{
	"contracts/Test.sol": {
		"MarketPlace": {
			"abi": [
				{
					"inputs": [],
					"stateMutability": "nonpayable",
					"type": "constructor"
				},
				{
					"inputs": [
						{
							"internalType": "uint256",
							"name": "_inStock",
							"type": "uint256"
						},
						{
							"internalType": "uint256",
							"name": "_price",
							"type": "uint256"
						},
						{
							"internalType": "string",
							"name": "_name",
							"type": "string"
						}
					],
					"name": "addItems",
					"outputs": [],
					"stateMutability": "nonpayable",
					"type": "function"
				},
				{
					"inputs": [],
					"name": "owner",
					"outputs": [
						{
							"internalType": "address",
							"name": "",
							"type": "address"
						}
					],
					"stateMutability": "view",
					"type": "function"
				},
				{
					"inputs": [
						{
							"internalType": "uint256",
							"name": "_amount",
							"type": "uint256"
						},
						{
							"internalType": "uint256",
							"name": "_id",
							"type": "uint256"
						}
					],
					"name": "purchase",
					"outputs": [],
					"stateMutability": "payable",
					"type": "function"
				},
				{
					"inputs": [
						{
							"internalType": "uint256",
							"name": "productId",
							"type": "uint256"
						}
					],
					"name": "showInStock",
					"outputs": [
						{
							"internalType": "uint256",
							"name": "",
							"type": "uint256"
						}
					],
					"stateMutability": "view",
					"type": "function"
				},
				{
					"inputs": [],
					"name": "showItems",
					"outputs": [
						{
							"components": [
								{
									"internalType": "uint256",
									"name": "inStock",
									"type": "uint256"
								},
								{
									"internalType": "uint256",
									"name": "price",
									"type": "uint256"
								},
								{
									"internalType": "string",
									"name": "name",
									"type": "string"
								}
							],
							"internalType": "struct MarketPlace.Product[]",
							"name": "",
							"type": "tuple[]"
						}
					],
					"stateMutability": "view",
					"type": "function"
				},
				{
					"inputs": [
						{
							"internalType": "address",
							"name": "",
							"type": "address"
						},
						{
							"internalType": "uint256",
							"name": "",
							"type": "uint256"
						}
					],
					"name": "userProducts",
					"outputs": [
						{
							"internalType": "uint256",
							"name": "inStock",
							"type": "uint256"
						},
						{
							"internalType": "uint256",
							"name": "price",
							"type": "uint256"
						},
						{
							"internalType": "string",
							"name": "name",
							"type": "string"
						}
					],
					"stateMutability": "view",
					"type": "function"
				},
				{
					"inputs": [
						{
							"internalType": "address",
							"name": "",
							"type": "address"
						}
					],
					"name": "users",
					"outputs": [
						{
							"internalType": "uint256",
							"name": "purchased",
							"type": "uint256"
						},
						{
							"internalType": "enum MarketPlace.Role",
							"name": "role",
							"type": "uint8"
						}
					],
					"stateMutability": "view",
					"type": "function"
				}
			],
			"devdoc": {
				"kind": "dev",
				"methods": {},
				"version": 1
			},
			"evm": {
				"assembly": "    /* \"contracts/Test.sol\":57:2123  contract MarketPlace {... */\n  mstore(0x40, 0x80)\n    /* \"contracts/Test.sol\":525:619  constructor() {... */\n  callvalue\n  dup1\n  iszero\n  tag_1\n  jumpi\n  0x00\n  dup1\n  revert\ntag_1:\n  pop\n    /* \"contracts/Test.sol\":557:567  msg.sender */\n  caller\n    /* \"contracts/Test.sol\":549:554  owner */\n  0x00\n  dup1\n    /* \"contracts/Test.sol\":549:567  owner = msg.sender */\n  0x0100\n  exp\n  dup2\n  sload\n  dup2\n  0xffffffffffffffffffffffffffffffffffffffff\n  mul\n  not\n  and\n  swap1\n  dup4\n  0xffffffffffffffffffffffffffffffffffffffff\n  and\n  mul\n  or\n  swap1\n  sstore\n  pop\n    /* \"contracts/Test.sol\":592:612  User(0, Role.Market) */\n  mload(0x40)\n  dup1\n  0x40\n  add\n  0x40\n  mstore\n  dup1\n    /* \"contracts/Test.sol\":597:598  0 */\n  0x00\n    /* \"contracts/Test.sol\":592:612  User(0, Role.Market) */\n  dup2\n  mstore\n  0x20\n  add\n    /* \"contracts/Test.sol\":600:611  Role.Market */\n  0x01\n    /* \"contracts/Test.sol\":592:612  User(0, Role.Market) */\n  dup1\n  dup2\n  gt\n  iszero\n  tag_4\n  jumpi\n  tag_5\n  tag_6\n  jump\t// in\ntag_5:\ntag_4:\n  dup2\n  mstore\n  pop\n    /* \"contracts/Test.sol\":577:582  users */\n  0x01\n    /* \"contracts/Test.sol\":577:589  users[owner] */\n  0x00\n    /* \"contracts/Test.sol\":583:588  owner */\n  dup1\n  0x00\n  swap1\n  sload\n  swap1\n  0x0100\n  exp\n  swap1\n  div\n  0xffffffffffffffffffffffffffffffffffffffff\n  and\n    /* \"contracts/Test.sol\":577:589  users[owner] */\n  0xffffffffffffffffffffffffffffffffffffffff\n  and\n  0xffffffffffffffffffffffffffffffffffffffff\n  and\n  dup2\n  mstore\n  0x20\n  add\n  swap1\n  dup2\n  mstore\n  0x20\n  add\n  0x00\n  keccak256\n    /* \"contracts/Test.sol\":577:612  users[owner] = User(0, Role.Market) */\n  0x00\n  dup3\n  add\n  mload\n  dup2\n  0x00\n  add\n  sstore\n  0x20\n  dup3\n  add\n  mload\n  dup2\n  0x01\n  add\n  exp(0x0100, 0x00)\n  dup2\n  sload\n  dup2\n  0xff\n  mul\n  not\n  and\n  swap1\n  dup4\n  0x01\n  dup2\n  gt\n  iszero\n  tag_7\n  jumpi\n  tag_8\n  tag_6\n  jump\t// in\ntag_8:\ntag_7:\n  mul\n  or\n  swap1\n  sstore\n  pop\n  swap1\n  pop\n  pop\n    /* \"contracts/Test.sol\":57:2123  contract MarketPlace {... */\n  jump(tag_9)\n    /* \"#utility.yul\":7:187   */\ntag_6:\n    /* \"#utility.yul\":55:132   */\n  0x4e487b7100000000000000000000000000000000000000000000000000000000\n    /* \"#utility.yul\":52:53   */\n  0x00\n    /* \"#utility.yul\":45:133   */\n  mstore\n    /* \"#utility.yul\":152:156   */\n  0x21\n    /* \"#utility.yul\":149:150   */\n  0x04\n    /* \"#utility.yul\":142:157   */\n  mstore\n    /* \"#utility.yul\":176:180   */\n  0x24\n    /* \"#utility.yul\":173:174   */\n  0x00\n    /* \"#utility.yul\":166:181   */\n  revert\n    /* \"contracts/Test.sol\":57:2123  contract MarketPlace {... */\ntag_9:\n  dataSize(sub_0)\n  dup1\n  dataOffset(sub_0)\n  0x00\n  codecopy\n  0x00\n  return\nstop\n\nsub_0: assembly {\n        /* \"contracts/Test.sol\":57:2123  contract MarketPlace {... */\n      mstore(0x40, 0x80)\n      jumpi(tag_1, lt(calldatasize, 0x04))\n      shr(0xe0, calldataload(0x00))\n      dup1\n      0x70876c98\n      gt\n      tag_9\n      jumpi\n      dup1\n      0x70876c98\n      eq\n      tag_5\n      jumpi\n      dup1\n      0x8da5cb5b\n      eq\n      tag_6\n      jumpi\n      dup1\n      0xa211f1ed\n      eq\n      tag_7\n      jumpi\n      dup1\n      0xa87430ba\n      eq\n      tag_8\n      jumpi\n      jump(tag_1)\n    tag_9:\n      dup1\n      0x3d527883\n      eq\n      tag_2\n      jumpi\n      dup1\n      0x3dd26a93\n      eq\n      tag_3\n      jumpi\n      dup1\n      0x687527c6\n      eq\n      tag_4\n      jumpi\n    tag_1:\n      0x00\n      dup1\n      revert\n        /* \"contracts/Test.sol\":344:393  mapping(address => Product[]) public userProducts */\n    tag_2:\n      callvalue\n      dup1\n      iszero\n      tag_10\n      jumpi\n      0x00\n      dup1\n      revert\n    tag_10:\n      pop\n      tag_11\n      0x04\n      dup1\n      calldatasize\n      sub\n      dup2\n      add\n      swap1\n      tag_12\n      swap2\n      swap1\n      tag_13\n      jump\t// in\n    tag_12:\n      tag_14\n      jump\t// in\n    tag_11:\n      mload(0x40)\n      tag_15\n      swap4\n      swap3\n      swap2\n      swap1\n      tag_16\n      jump\t// in\n    tag_15:\n      mload(0x40)\n      dup1\n      swap2\n      sub\n      swap1\n      return\n        /* \"contracts/Test.sol\":828:931  function showItems() public view returns (Product[] memory) {... */\n    tag_3:\n      callvalue\n      dup1\n      iszero\n      tag_17\n      jumpi\n      0x00\n      dup1\n      revert\n    tag_17:\n      pop\n      tag_18\n      tag_19\n      jump\t// in\n    tag_18:\n      mload(0x40)\n      tag_20\n      swap2\n      swap1\n      tag_21\n      jump\t// in\n    tag_20:\n      mload(0x40)\n      dup1\n      swap2\n      sub\n      swap1\n      return\n        /* \"contracts/Test.sol\":937:1142  function showInStock(uint productId) public view returns (uint) {... */\n    tag_4:\n      callvalue\n      dup1\n      iszero\n      tag_22\n      jumpi\n      0x00\n      dup1\n      revert\n    tag_22:\n      pop\n      tag_23\n      0x04\n      dup1\n      calldatasize\n      sub\n      dup2\n      add\n      swap1\n      tag_24\n      swap2\n      swap1\n      tag_25\n      jump\t// in\n    tag_24:\n      tag_26\n      jump\t// in\n    tag_23:\n      mload(0x40)\n      tag_27\n      swap2\n      swap1\n      tag_28\n      jump\t// in\n    tag_27:\n      mload(0x40)\n      dup1\n      swap2\n      sub\n      swap1\n      return\n        /* \"contracts/Test.sol\":1148:2012  function purchase(uint _amount, uint _id) public payable {... */\n    tag_5:\n      tag_29\n      0x04\n      dup1\n      calldatasize\n      sub\n      dup2\n      add\n      swap1\n      tag_30\n      swap2\n      swap1\n      tag_31\n      jump\t// in\n    tag_30:\n      tag_32\n      jump\t// in\n    tag_29:\n      stop\n        /* \"contracts/Test.sol\":84:104  address public owner */\n    tag_6:\n      callvalue\n      dup1\n      iszero\n      tag_33\n      jumpi\n      0x00\n      dup1\n      revert\n    tag_33:\n      pop\n      tag_34\n      tag_35\n      jump\t// in\n    tag_34:\n      mload(0x40)\n      tag_36\n      swap2\n      swap1\n      tag_37\n      jump\t// in\n    tag_36:\n      mload(0x40)\n      dup1\n      swap2\n      sub\n      swap1\n      return\n        /* \"contracts/Test.sol\":625:822  function addItems(uint _inStock, uint _price, string calldata _name) public onlyOwner {... */\n    tag_7:\n      callvalue\n      dup1\n      iszero\n      tag_38\n      jumpi\n      0x00\n      dup1\n      revert\n    tag_38:\n      pop\n      tag_39\n      0x04\n      dup1\n      calldatasize\n      sub\n      dup2\n      add\n      swap1\n      tag_40\n      swap2\n      swap1\n      tag_41\n      jump\t// in\n    tag_40:\n      tag_42\n      jump\t// in\n    tag_39:\n      stop\n        /* \"contracts/Test.sol\":301:338  mapping(address => User) public users */\n    tag_8:\n      callvalue\n      dup1\n      iszero\n      tag_43\n      jumpi\n      0x00\n      dup1\n      revert\n    tag_43:\n      pop\n      tag_44\n      0x04\n      dup1\n      calldatasize\n      sub\n      dup2\n      add\n      swap1\n      tag_45\n      swap2\n      swap1\n      tag_46\n      jump\t// in\n    tag_45:\n      tag_47\n      jump\t// in\n    tag_44:\n      mload(0x40)\n      tag_48\n      swap3\n      swap2\n      swap1\n      tag_49\n      jump\t// in\n    tag_48:\n      mload(0x40)\n      dup1\n      swap2\n      sub\n      swap1\n      return\n        /* \"contracts/Test.sol\":344:393  mapping(address => Product[]) public userProducts */\n    tag_14:\n      mstore(0x20, 0x02)\n      dup2\n      0x00\n      mstore\n      keccak256(0x00, 0x40)\n      dup2\n      dup2\n      sload\n      dup2\n      lt\n      tag_50\n      jumpi\n      0x00\n      dup1\n      revert\n    tag_50:\n      swap1\n      0x00\n      mstore\n      keccak256(0x00, 0x20)\n      swap1\n      0x03\n      mul\n      add\n      0x00\n      swap2\n      pop\n      swap2\n      pop\n      pop\n      dup1\n      0x00\n      add\n      sload\n      swap1\n      dup1\n      0x01\n      add\n      sload\n      swap1\n      dup1\n      0x02\n      add\n      dup1\n      sload\n      tag_52\n      swap1\n      tag_53\n      jump\t// in\n    tag_52:\n      dup1\n      0x1f\n      add\n      0x20\n      dup1\n      swap2\n      div\n      mul\n      0x20\n      add\n      mload(0x40)\n      swap1\n      dup2\n      add\n      0x40\n      mstore\n      dup1\n      swap3\n      swap2\n      swap1\n      dup2\n      dup2\n      mstore\n      0x20\n      add\n      dup3\n      dup1\n      sload\n      tag_54\n      swap1\n      tag_53\n      jump\t// in\n    tag_54:\n      dup1\n      iszero\n      tag_55\n      jumpi\n      dup1\n      0x1f\n      lt\n      tag_56\n      jumpi\n      0x0100\n      dup1\n      dup4\n      sload\n      div\n      mul\n      dup4\n      mstore\n      swap2\n      0x20\n      add\n      swap2\n      jump(tag_55)\n    tag_56:\n      dup3\n      add\n      swap2\n      swap1\n      0x00\n      mstore\n      keccak256(0x00, 0x20)\n      swap1\n    tag_57:\n      dup2\n      sload\n      dup2\n      mstore\n      swap1\n      0x01\n      add\n      swap1\n      0x20\n      add\n      dup1\n      dup4\n      gt\n      tag_57\n      jumpi\n      dup3\n      swap1\n      sub\n      0x1f\n      and\n      dup3\n      add\n      swap2\n    tag_55:\n      pop\n      pop\n      pop\n      pop\n      pop\n      swap1\n      pop\n      dup4\n      jump\t// out\n        /* \"contracts/Test.sol\":828:931  function showItems() public view returns (Product[] memory) {... */\n    tag_19:\n        /* \"contracts/Test.sol\":870:886  Product[] memory */\n      0x60\n        /* \"contracts/Test.sol\":905:917  userProducts */\n      0x02\n        /* \"contracts/Test.sol\":905:924  userProducts[owner] */\n      0x00\n        /* \"contracts/Test.sol\":918:923  owner */\n      dup1\n      0x00\n      swap1\n      sload\n      swap1\n      0x0100\n      exp\n      swap1\n      div\n      0xffffffffffffffffffffffffffffffffffffffff\n      and\n        /* \"contracts/Test.sol\":905:924  userProducts[owner] */\n      0xffffffffffffffffffffffffffffffffffffffff\n      and\n      0xffffffffffffffffffffffffffffffffffffffff\n      and\n      dup2\n      mstore\n      0x20\n      add\n      swap1\n      dup2\n      mstore\n      0x20\n      add\n      0x00\n      keccak256\n        /* \"contracts/Test.sol\":898:924  return userProducts[owner] */\n      dup1\n      sload\n      dup1\n      0x20\n      mul\n      0x20\n      add\n      mload(0x40)\n      swap1\n      dup2\n      add\n      0x40\n      mstore\n      dup1\n      swap3\n      swap2\n      swap1\n      dup2\n      dup2\n      mstore\n      0x20\n      add\n      0x00\n      swap1\n    tag_59:\n      dup3\n      dup3\n      lt\n      iszero\n      tag_60\n      jumpi\n      dup4\n      dup3\n      swap1\n      0x00\n      mstore\n      keccak256(0x00, 0x20)\n      swap1\n      0x03\n      mul\n      add\n      mload(0x40)\n      dup1\n      0x60\n      add\n      0x40\n      mstore\n      swap1\n      dup2\n      0x00\n      dup3\n      add\n      sload\n      dup2\n      mstore\n      0x20\n      add\n      0x01\n      dup3\n      add\n      sload\n      dup2\n      mstore\n      0x20\n      add\n      0x02\n      dup3\n      add\n      dup1\n      sload\n      tag_62\n      swap1\n      tag_53\n      jump\t// in\n    tag_62:\n      dup1\n      0x1f\n      add\n      0x20\n      dup1\n      swap2\n      div\n      mul\n      0x20\n      add\n      mload(0x40)\n      swap1\n      dup2\n      add\n      0x40\n      mstore\n      dup1\n      swap3\n      swap2\n      swap1\n      dup2\n      dup2\n      mstore\n      0x20\n      add\n      dup3\n      dup1\n      sload\n      tag_63\n      swap1\n      tag_53\n      jump\t// in\n    tag_63:\n      dup1\n      iszero\n      tag_64\n      jumpi\n      dup1\n      0x1f\n      lt\n      tag_65\n      jumpi\n      0x0100\n      dup1\n      dup4\n      sload\n      div\n      mul\n      dup4\n      mstore\n      swap2\n      0x20\n      add\n      swap2\n      jump(tag_64)\n    tag_65:\n      dup3\n      add\n      swap2\n      swap1\n      0x00\n      mstore\n      keccak256(0x00, 0x20)\n      swap1\n    tag_66:\n      dup2\n      sload\n      dup2\n      mstore\n      swap1\n      0x01\n      add\n      swap1\n      0x20\n      add\n      dup1\n      dup4\n      gt\n      tag_66\n      jumpi\n      dup3\n      swap1\n      sub\n      0x1f\n      and\n      dup3\n      add\n      swap2\n    tag_64:\n      pop\n      pop\n      pop\n      pop\n      pop\n      dup2\n      mstore\n      pop\n      pop\n      dup2\n      mstore\n      0x20\n      add\n      swap1\n      0x01\n      add\n      swap1\n      jump(tag_59)\n    tag_60:\n      pop\n      pop\n      pop\n      pop\n      swap1\n      pop\n        /* \"contracts/Test.sol\":828:931  function showItems() public view returns (Product[] memory) {... */\n      swap1\n      jump\t// out\n        /* \"contracts/Test.sol\":937:1142  function showInStock(uint productId) public view returns (uint) {... */\n    tag_26:\n        /* \"contracts/Test.sol\":995:999  uint */\n      0x00\n        /* \"contracts/Test.sol\":1031:1043  userProducts */\n      0x02\n        /* \"contracts/Test.sol\":1031:1050  userProducts[owner] */\n      0x00\n        /* \"contracts/Test.sol\":1044:1049  owner */\n      dup1\n      0x00\n      swap1\n      sload\n      swap1\n      0x0100\n      exp\n      swap1\n      div\n      0xffffffffffffffffffffffffffffffffffffffff\n      and\n        /* \"contracts/Test.sol\":1031:1050  userProducts[owner] */\n      0xffffffffffffffffffffffffffffffffffffffff\n      and\n      0xffffffffffffffffffffffffffffffffffffffff\n      and\n      dup2\n      mstore\n      0x20\n      add\n      swap1\n      dup2\n      mstore\n      0x20\n      add\n      0x00\n      keccak256\n        /* \"contracts/Test.sol\":1031:1057  userProducts[owner].length */\n      dup1\n      sload\n      swap1\n      pop\n        /* \"contracts/Test.sol\":1019:1028  productId */\n      dup3\n        /* \"contracts/Test.sol\":1019:1057  productId < userProducts[owner].length */\n      lt\n        /* \"contracts/Test.sol\":1011:1080  require(productId < userProducts[owner].length, \"Invalid product ID\") */\n      tag_68\n      jumpi\n      mload(0x40)\n      0x08c379a000000000000000000000000000000000000000000000000000000000\n      dup2\n      mstore\n      0x04\n      add\n      tag_69\n      swap1\n      tag_70\n      jump\t// in\n    tag_69:\n      mload(0x40)\n      dup1\n      swap2\n      sub\n      swap1\n      revert\n    tag_68:\n        /* \"contracts/Test.sol\":1097:1109  userProducts */\n      0x02\n        /* \"contracts/Test.sol\":1097:1116  userProducts[owner] */\n      0x00\n        /* \"contracts/Test.sol\":1110:1115  owner */\n      dup1\n      0x00\n      swap1\n      sload\n      swap1\n      0x0100\n      exp\n      swap1\n      div\n      0xffffffffffffffffffffffffffffffffffffffff\n      and\n        /* \"contracts/Test.sol\":1097:1116  userProducts[owner] */\n      0xffffffffffffffffffffffffffffffffffffffff\n      and\n      0xffffffffffffffffffffffffffffffffffffffff\n      and\n      dup2\n      mstore\n      0x20\n      add\n      swap1\n      dup2\n      mstore\n      0x20\n      add\n      0x00\n      keccak256\n        /* \"contracts/Test.sol\":1117:1126  productId */\n      dup3\n        /* \"contracts/Test.sol\":1097:1127  userProducts[owner][productId] */\n      dup2\n      sload\n      dup2\n      lt\n      tag_71\n      jumpi\n      tag_72\n      tag_73\n      jump\t// in\n    tag_72:\n    tag_71:\n      swap1\n      0x00\n      mstore\n      keccak256(0x00, 0x20)\n      swap1\n      0x03\n      mul\n      add\n        /* \"contracts/Test.sol\":1097:1135  userProducts[owner][productId].inStock */\n      0x00\n      add\n      sload\n        /* \"contracts/Test.sol\":1090:1135  return userProducts[owner][productId].inStock */\n      swap1\n      pop\n        /* \"contracts/Test.sol\":937:1142  function showInStock(uint productId) public view returns (uint) {... */\n      swap2\n      swap1\n      pop\n      jump\t// out\n        /* \"contracts/Test.sol\":1148:2012  function purchase(uint _amount, uint _id) public payable {... */\n    tag_32:\n        /* \"contracts/Test.sol\":1238:1250  userProducts */\n      0x02\n        /* \"contracts/Test.sol\":1238:1257  userProducts[owner] */\n      0x00\n        /* \"contracts/Test.sol\":1251:1256  owner */\n      dup1\n      0x00\n      swap1\n      sload\n      swap1\n      0x0100\n      exp\n      swap1\n      div\n      0xffffffffffffffffffffffffffffffffffffffff\n      and\n        /* \"contracts/Test.sol\":1238:1257  userProducts[owner] */\n      0xffffffffffffffffffffffffffffffffffffffff\n      and\n      0xffffffffffffffffffffffffffffffffffffffff\n      and\n      dup2\n      mstore\n      0x20\n      add\n      swap1\n      dup2\n      mstore\n      0x20\n      add\n      0x00\n      keccak256\n        /* \"contracts/Test.sol\":1258:1261  _id */\n      dup2\n        /* \"contracts/Test.sol\":1238:1262  userProducts[owner][_id] */\n      dup2\n      sload\n      dup2\n      lt\n      tag_76\n      jumpi\n      tag_77\n      tag_73\n      jump\t// in\n    tag_77:\n    tag_76:\n      swap1\n      0x00\n      mstore\n      keccak256(0x00, 0x20)\n      swap1\n      0x03\n      mul\n      add\n        /* \"contracts/Test.sol\":1238:1270  userProducts[owner][_id].inStock */\n      0x00\n      add\n      sload\n        /* \"contracts/Test.sol\":1227:1234  _amount */\n      dup3\n        /* \"contracts/Test.sol\":1227:1270  _amount <= userProducts[owner][_id].inStock */\n      gt\n      iszero\n        /* \"contracts/Test.sol\":1219:1271  require(_amount <= userProducts[owner][_id].inStock) */\n      tag_79\n      jumpi\n      0x00\n      dup1\n      revert\n    tag_79:\n        /* \"contracts/Test.sol\":1361:1362  0 */\n      0x00\n        /* \"contracts/Test.sol\":1352:1359  _amount */\n      dup3\n        /* \"contracts/Test.sol\":1352:1362  _amount >0 */\n      gt\n        /* \"contracts/Test.sol\":1344:1363  require(_amount >0) */\n      tag_80\n      jumpi\n      0x00\n      dup1\n      revert\n    tag_80:\n        /* \"contracts/Test.sol\":1420:1435  uint totalPrice */\n      0x00\n        /* \"contracts/Test.sol\":1448:1460  userProducts */\n      0x02\n        /* \"contracts/Test.sol\":1448:1467  userProducts[owner] */\n      0x00\n        /* \"contracts/Test.sol\":1461:1466  owner */\n      dup1\n      0x00\n      swap1\n      sload\n      swap1\n      0x0100\n      exp\n      swap1\n      div\n      0xffffffffffffffffffffffffffffffffffffffff\n      and\n        /* \"contracts/Test.sol\":1448:1467  userProducts[owner] */\n      0xffffffffffffffffffffffffffffffffffffffff\n      and\n      0xffffffffffffffffffffffffffffffffffffffff\n      and\n      dup2\n      mstore\n      0x20\n      add\n      swap1\n      dup2\n      mstore\n      0x20\n      add\n      0x00\n      keccak256\n        /* \"contracts/Test.sol\":1468:1471  _id */\n      dup3\n        /* \"contracts/Test.sol\":1448:1472  userProducts[owner][_id] */\n      dup2\n      sload\n      dup2\n      lt\n      tag_81\n      jumpi\n      tag_82\n      tag_73\n      jump\t// in\n    tag_82:\n    tag_81:\n      swap1\n      0x00\n      mstore\n      keccak256(0x00, 0x20)\n      swap1\n      0x03\n      mul\n      add\n        /* \"contracts/Test.sol\":1448:1478  userProducts[owner][_id].price */\n      0x01\n      add\n      sload\n        /* \"contracts/Test.sol\":1438:1445  _amount */\n      dup4\n        /* \"contracts/Test.sol\":1438:1478  _amount * userProducts[owner][_id].price */\n      tag_84\n      swap2\n      swap1\n      tag_85\n      jump\t// in\n    tag_84:\n        /* \"contracts/Test.sol\":1420:1478  uint totalPrice = _amount * userProducts[owner][_id].price */\n      swap1\n      pop\n        /* \"contracts/Test.sol\":1513:1523  totalPrice */\n      dup1\n        /* \"contracts/Test.sol\":1500:1509  msg.value */\n      callvalue\n        /* \"contracts/Test.sol\":1500:1523  msg.value >= totalPrice */\n      lt\n      iszero\n        /* \"contracts/Test.sol\":1492:1524  require(msg.value >= totalPrice) */\n      tag_86\n      jumpi\n      0x00\n      dup1\n      revert\n    tag_86:\n        /* \"contracts/Test.sol\":1539:1558  Product memory item */\n      0x00\n        /* \"contracts/Test.sol\":1561:1636  Product(_amount, userProducts[owner][0].price, userProducts[owner][0].name) */\n      mload(0x40)\n      dup1\n      0x60\n      add\n      0x40\n      mstore\n      dup1\n        /* \"contracts/Test.sol\":1569:1576  _amount */\n      dup6\n        /* \"contracts/Test.sol\":1561:1636  Product(_amount, userProducts[owner][0].price, userProducts[owner][0].name) */\n      dup2\n      mstore\n      0x20\n      add\n        /* \"contracts/Test.sol\":1578:1590  userProducts */\n      0x02\n        /* \"contracts/Test.sol\":1578:1597  userProducts[owner] */\n      0x00\n        /* \"contracts/Test.sol\":1591:1596  owner */\n      dup1\n      0x00\n      swap1\n      sload\n      swap1\n      0x0100\n      exp\n      swap1\n      div\n      0xffffffffffffffffffffffffffffffffffffffff\n      and\n        /* \"contracts/Test.sol\":1578:1597  userProducts[owner] */\n      0xffffffffffffffffffffffffffffffffffffffff\n      and\n      0xffffffffffffffffffffffffffffffffffffffff\n      and\n      dup2\n      mstore\n      0x20\n      add\n      swap1\n      dup2\n      mstore\n      0x20\n      add\n      0x00\n      keccak256\n        /* \"contracts/Test.sol\":1598:1599  0 */\n      0x00\n        /* \"contracts/Test.sol\":1578:1600  userProducts[owner][0] */\n      dup2\n      sload\n      dup2\n      lt\n      tag_87\n      jumpi\n      tag_88\n      tag_73\n      jump\t// in\n    tag_88:\n    tag_87:\n      swap1\n      0x00\n      mstore\n      keccak256(0x00, 0x20)\n      swap1\n      0x03\n      mul\n      add\n        /* \"contracts/Test.sol\":1578:1606  userProducts[owner][0].price */\n      0x01\n      add\n      sload\n        /* \"contracts/Test.sol\":1561:1636  Product(_amount, userProducts[owner][0].price, userProducts[owner][0].name) */\n      dup2\n      mstore\n      0x20\n      add\n        /* \"contracts/Test.sol\":1608:1620  userProducts */\n      0x02\n        /* \"contracts/Test.sol\":1608:1627  userProducts[owner] */\n      0x00\n        /* \"contracts/Test.sol\":1621:1626  owner */\n      dup1\n      0x00\n      swap1\n      sload\n      swap1\n      0x0100\n      exp\n      swap1\n      div\n      0xffffffffffffffffffffffffffffffffffffffff\n      and\n        /* \"contracts/Test.sol\":1608:1627  userProducts[owner] */\n      0xffffffffffffffffffffffffffffffffffffffff\n      and\n      0xffffffffffffffffffffffffffffffffffffffff\n      and\n      dup2\n      mstore\n      0x20\n      add\n      swap1\n      dup2\n      mstore\n      0x20\n      add\n      0x00\n      keccak256\n        /* \"contracts/Test.sol\":1628:1629  0 */\n      0x00\n        /* \"contracts/Test.sol\":1608:1630  userProducts[owner][0] */\n      dup2\n      sload\n      dup2\n      lt\n      tag_90\n      jumpi\n      tag_91\n      tag_73\n      jump\t// in\n    tag_91:\n    tag_90:\n      swap1\n      0x00\n      mstore\n      keccak256(0x00, 0x20)\n      swap1\n      0x03\n      mul\n      add\n        /* \"contracts/Test.sol\":1608:1635  userProducts[owner][0].name */\n      0x02\n      add\n        /* \"contracts/Test.sol\":1561:1636  Product(_amount, userProducts[owner][0].price, userProducts[owner][0].name) */\n      dup1\n      sload\n      tag_93\n      swap1\n      tag_53\n      jump\t// in\n    tag_93:\n      dup1\n      0x1f\n      add\n      0x20\n      dup1\n      swap2\n      div\n      mul\n      0x20\n      add\n      mload(0x40)\n      swap1\n      dup2\n      add\n      0x40\n      mstore\n      dup1\n      swap3\n      swap2\n      swap1\n      dup2\n      dup2\n      mstore\n      0x20\n      add\n      dup3\n      dup1\n      sload\n      tag_94\n      swap1\n      tag_53\n      jump\t// in\n    tag_94:\n      dup1\n      iszero\n      tag_95\n      jumpi\n      dup1\n      0x1f\n      lt\n      tag_96\n      jumpi\n      0x0100\n      dup1\n      dup4\n      sload\n      div\n      mul\n      dup4\n      mstore\n      swap2\n      0x20\n      add\n      swap2\n      jump(tag_95)\n    tag_96:\n      dup3\n      add\n      swap2\n      swap1\n      0x00\n      mstore\n      keccak256(0x00, 0x20)\n      swap1\n    tag_97:\n      dup2\n      sload\n      dup2\n      mstore\n      swap1\n      0x01\n      add\n      swap1\n      0x20\n      add\n      dup1\n      dup4\n      gt\n      tag_97\n      jumpi\n      dup3\n      swap1\n      sub\n      0x1f\n      and\n      dup3\n      add\n      swap2\n    tag_95:\n      pop\n      pop\n      pop\n      pop\n      pop\n      dup2\n      mstore\n      pop\n        /* \"contracts/Test.sol\":1539:1636  Product memory item = Product(_amount, userProducts[owner][0].price, userProducts[owner][0].name) */\n      swap1\n      pop\n        /* \"contracts/Test.sol\":1686:1693  _amount */\n      dup4\n        /* \"contracts/Test.sol\":1650:1662  userProducts */\n      0x02\n        /* \"contracts/Test.sol\":1650:1669  userProducts[owner] */\n      0x00\n        /* \"contracts/Test.sol\":1663:1668  owner */\n      dup1\n      0x00\n      swap1\n      sload\n      swap1\n      0x0100\n      exp\n      swap1\n      div\n      0xffffffffffffffffffffffffffffffffffffffff\n      and\n        /* \"contracts/Test.sol\":1650:1669  userProducts[owner] */\n      0xffffffffffffffffffffffffffffffffffffffff\n      and\n      0xffffffffffffffffffffffffffffffffffffffff\n      and\n      dup2\n      mstore\n      0x20\n      add\n      swap1\n      dup2\n      mstore\n      0x20\n      add\n      0x00\n      keccak256\n        /* \"contracts/Test.sol\":1670:1673  _id */\n      dup5\n        /* \"contracts/Test.sol\":1650:1674  userProducts[owner][_id] */\n      dup2\n      sload\n      dup2\n      lt\n      tag_98\n      jumpi\n      tag_99\n      tag_73\n      jump\t// in\n    tag_99:\n    tag_98:\n      swap1\n      0x00\n      mstore\n      keccak256(0x00, 0x20)\n      swap1\n      0x03\n      mul\n      add\n        /* \"contracts/Test.sol\":1650:1682  userProducts[owner][_id].inStock */\n      0x00\n      add\n      0x00\n        /* \"contracts/Test.sol\":1650:1693  userProducts[owner][_id].inStock -= _amount */\n      dup3\n      dup3\n      sload\n      tag_101\n      swap2\n      swap1\n      tag_102\n      jump\t// in\n    tag_101:\n      swap3\n      pop\n      pop\n      dup2\n      swap1\n      sstore\n      pop\n        /* \"contracts/Test.sol\":1707:1719  userProducts */\n      0x02\n        /* \"contracts/Test.sol\":1707:1731  userProducts[msg.sender] */\n      0x00\n        /* \"contracts/Test.sol\":1720:1730  msg.sender */\n      caller\n        /* \"contracts/Test.sol\":1707:1731  userProducts[msg.sender] */\n      0xffffffffffffffffffffffffffffffffffffffff\n      and\n      0xffffffffffffffffffffffffffffffffffffffff\n      and\n      dup2\n      mstore\n      0x20\n      add\n      swap1\n      dup2\n      mstore\n      0x20\n      add\n      0x00\n      keccak256\n        /* \"contracts/Test.sol\":1737:1741  item */\n      dup2\n        /* \"contracts/Test.sol\":1707:1742  userProducts[msg.sender].push(item) */\n      swap1\n      dup1\n      0x01\n      dup2\n      sload\n      add\n      dup1\n      dup3\n      sstore\n      dup1\n      swap2\n      pop\n      pop\n      0x01\n      swap1\n      sub\n      swap1\n      0x00\n      mstore\n      keccak256(0x00, 0x20)\n      swap1\n      0x03\n      mul\n      add\n      0x00\n      swap1\n      swap2\n      swap1\n      swap2\n      swap1\n      swap2\n      pop\n      0x00\n      dup3\n      add\n      mload\n      dup2\n      0x00\n      add\n      sstore\n      0x20\n      dup3\n      add\n      mload\n      dup2\n      0x01\n      add\n      sstore\n      0x40\n      dup3\n      add\n      mload\n      dup2\n      0x02\n      add\n      swap1\n      dup2\n      tag_104\n      swap2\n      swap1\n      tag_105\n      jump\t// in\n    tag_104:\n      pop\n      pop\n      pop\n        /* \"contracts/Test.sol\":1773:1783  totalPrice */\n      dup2\n        /* \"contracts/Test.sol\":1761:1770  msg.value */\n      callvalue\n        /* \"contracts/Test.sol\":1761:1783  msg.value > totalPrice */\n      gt\n        /* \"contracts/Test.sol\":1757:1908  if (msg.value > totalPrice) {... */\n      iszero\n      tag_106\n      jumpi\n        /* \"contracts/Test.sol\":1803:1814  uint change */\n      0x00\n        /* \"contracts/Test.sol\":1829:1839  totalPrice */\n      dup3\n        /* \"contracts/Test.sol\":1817:1826  msg.value */\n      callvalue\n        /* \"contracts/Test.sol\":1817:1839  msg.value - totalPrice */\n      tag_107\n      swap2\n      swap1\n      tag_102\n      jump\t// in\n    tag_107:\n        /* \"contracts/Test.sol\":1803:1839  uint change = msg.value - totalPrice */\n      swap1\n      pop\n        /* \"contracts/Test.sol\":1865:1875  msg.sender */\n      caller\n        /* \"contracts/Test.sol\":1857:1885  payable(msg.sender).transfer */\n      0xffffffffffffffffffffffffffffffffffffffff\n      and\n        /* \"contracts/Test.sol\":1857:1893  payable(msg.sender).transfer(change) */\n      0x08fc\n        /* \"contracts/Test.sol\":1886:1892  change */\n      dup3\n        /* \"contracts/Test.sol\":1857:1893  payable(msg.sender).transfer(change) */\n      swap1\n      dup2\n      iszero\n      mul\n      swap1\n      mload(0x40)\n      0x00\n      mload(0x40)\n      dup1\n      dup4\n      sub\n      dup2\n      dup6\n      dup9\n      dup9\n      call\n      swap4\n      pop\n      pop\n      pop\n      pop\n      iszero\n      dup1\n      iszero\n      tag_109\n      jumpi\n      returndatasize\n      0x00\n      dup1\n      returndatacopy\n      revert(0x00, returndatasize)\n    tag_109:\n      pop\n        /* \"contracts/Test.sol\":1785:1908  {... */\n      pop\n        /* \"contracts/Test.sol\":1757:1908  if (msg.value > totalPrice) {... */\n    tag_106:\n        /* \"contracts/Test.sol\":1922:1934  uint balance */\n      0x00\n        /* \"contracts/Test.sol\":1937:1958  address(this).balance */\n      selfbalance\n        /* \"contracts/Test.sol\":1922:1958  uint balance = address(this).balance */\n      swap1\n      pop\n        /* \"contracts/Test.sol\":1980:1985  owner */\n      0x00\n      dup1\n      sload\n      swap1\n      0x0100\n      exp\n      swap1\n      div\n      0xffffffffffffffffffffffffffffffffffffffff\n      and\n        /* \"contracts/Test.sol\":1972:1995  payable(owner).transfer */\n      0xffffffffffffffffffffffffffffffffffffffff\n      and\n        /* \"contracts/Test.sol\":1972:2004  payable(owner).transfer(balance) */\n      0x08fc\n        /* \"contracts/Test.sol\":1996:2003  balance */\n      dup3\n        /* \"contracts/Test.sol\":1972:2004  payable(owner).transfer(balance) */\n      swap1\n      dup2\n      iszero\n      mul\n      swap1\n      mload(0x40)\n      0x00\n      mload(0x40)\n      dup1\n      dup4\n      sub\n      dup2\n      dup6\n      dup9\n      dup9\n      call\n      swap4\n      pop\n      pop\n      pop\n      pop\n      iszero\n      dup1\n      iszero\n      tag_111\n      jumpi\n      returndatasize\n      0x00\n      dup1\n      returndatacopy\n      revert(0x00, returndatasize)\n    tag_111:\n      pop\n        /* \"contracts/Test.sol\":1205:2012  {... */\n      pop\n      pop\n      pop\n        /* \"contracts/Test.sol\":1148:2012  function purchase(uint _amount, uint _id) public payable {... */\n      pop\n      pop\n      jump\t// out\n        /* \"contracts/Test.sol\":84:104  address public owner */\n    tag_35:\n      0x00\n      dup1\n      sload\n      swap1\n      0x0100\n      exp\n      swap1\n      div\n      0xffffffffffffffffffffffffffffffffffffffff\n      and\n      dup2\n      jump\t// out\n        /* \"contracts/Test.sol\":625:822  function addItems(uint _inStock, uint _price, string calldata _name) public onlyOwner {... */\n    tag_42:\n        /* \"contracts/Test.sol\":453:458  owner */\n      0x00\n      dup1\n      sload\n      swap1\n      0x0100\n      exp\n      swap1\n      div\n      0xffffffffffffffffffffffffffffffffffffffff\n      and\n        /* \"contracts/Test.sol\":439:458  msg.sender == owner */\n      0xffffffffffffffffffffffffffffffffffffffff\n      and\n        /* \"contracts/Test.sol\":439:449  msg.sender */\n      caller\n        /* \"contracts/Test.sol\":439:458  msg.sender == owner */\n      0xffffffffffffffffffffffffffffffffffffffff\n      and\n      eq\n        /* \"contracts/Test.sol\":431:501  require(msg.sender == owner, \"Only the owner can perform this action\") */\n      tag_113\n      jumpi\n      mload(0x40)\n      0x08c379a000000000000000000000000000000000000000000000000000000000\n      dup2\n      mstore\n      0x04\n      add\n      tag_114\n      swap1\n      tag_115\n      jump\t// in\n    tag_114:\n      mload(0x40)\n      dup1\n      swap2\n      sub\n      swap1\n      revert\n    tag_113:\n        /* \"contracts/Test.sol\":721:740  Product memory item */\n      0x00\n        /* \"contracts/Test.sol\":743:775  Product(_inStock, _price, _name) */\n      mload(0x40)\n      dup1\n      0x60\n      add\n      0x40\n      mstore\n      dup1\n        /* \"contracts/Test.sol\":751:759  _inStock */\n      dup7\n        /* \"contracts/Test.sol\":743:775  Product(_inStock, _price, _name) */\n      dup2\n      mstore\n      0x20\n      add\n        /* \"contracts/Test.sol\":761:767  _price */\n      dup6\n        /* \"contracts/Test.sol\":743:775  Product(_inStock, _price, _name) */\n      dup2\n      mstore\n      0x20\n      add\n        /* \"contracts/Test.sol\":769:774  _name */\n      dup5\n      dup5\n        /* \"contracts/Test.sol\":743:775  Product(_inStock, _price, _name) */\n      dup1\n      dup1\n      0x1f\n      add\n      0x20\n      dup1\n      swap2\n      div\n      mul\n      0x20\n      add\n      mload(0x40)\n      swap1\n      dup2\n      add\n      0x40\n      mstore\n      dup1\n      swap4\n      swap3\n      swap2\n      swap1\n      dup2\n      dup2\n      mstore\n      0x20\n      add\n      dup4\n      dup4\n      dup1\n      dup3\n      dup5\n      calldatacopy\n      0x00\n      dup2\n      dup5\n      add\n      mstore\n      not(0x1f)\n      0x1f\n      dup3\n      add\n      and\n      swap1\n      pop\n      dup1\n      dup4\n      add\n      swap3\n      pop\n      pop\n      pop\n      pop\n      pop\n      pop\n      pop\n      dup2\n      mstore\n      pop\n        /* \"contracts/Test.sol\":721:775  Product memory item = Product(_inStock, _price, _name) */\n      swap1\n      pop\n        /* \"contracts/Test.sol\":785:797  userProducts */\n      0x02\n        /* \"contracts/Test.sol\":785:804  userProducts[owner] */\n      0x00\n        /* \"contracts/Test.sol\":798:803  owner */\n      dup1\n      0x00\n      swap1\n      sload\n      swap1\n      0x0100\n      exp\n      swap1\n      div\n      0xffffffffffffffffffffffffffffffffffffffff\n      and\n        /* \"contracts/Test.sol\":785:804  userProducts[owner] */\n      0xffffffffffffffffffffffffffffffffffffffff\n      and\n      0xffffffffffffffffffffffffffffffffffffffff\n      and\n      dup2\n      mstore\n      0x20\n      add\n      swap1\n      dup2\n      mstore\n      0x20\n      add\n      0x00\n      keccak256\n        /* \"contracts/Test.sol\":810:814  item */\n      dup2\n        /* \"contracts/Test.sol\":785:815  userProducts[owner].push(item) */\n      swap1\n      dup1\n      0x01\n      dup2\n      sload\n      add\n      dup1\n      dup3\n      sstore\n      dup1\n      swap2\n      pop\n      pop\n      0x01\n      swap1\n      sub\n      swap1\n      0x00\n      mstore\n      keccak256(0x00, 0x20)\n      swap1\n      0x03\n      mul\n      add\n      0x00\n      swap1\n      swap2\n      swap1\n      swap2\n      swap1\n      swap2\n      pop\n      0x00\n      dup3\n      add\n      mload\n      dup2\n      0x00\n      add\n      sstore\n      0x20\n      dup3\n      add\n      mload\n      dup2\n      0x01\n      add\n      sstore\n      0x40\n      dup3\n      add\n      mload\n      dup2\n      0x02\n      add\n      swap1\n      dup2\n      tag_118\n      swap2\n      swap1\n      tag_105\n      jump\t// in\n    tag_118:\n      pop\n      pop\n      pop\n        /* \"contracts/Test.sol\":711:822  {... */\n      pop\n        /* \"contracts/Test.sol\":625:822  function addItems(uint _inStock, uint _price, string calldata _name) public onlyOwner {... */\n      pop\n      pop\n      pop\n      pop\n      jump\t// out\n        /* \"contracts/Test.sol\":301:338  mapping(address => User) public users */\n    tag_47:\n      mstore(0x20, 0x01)\n      dup1\n      0x00\n      mstore\n      keccak256(0x00, 0x40)\n      0x00\n      swap2\n      pop\n      swap1\n      pop\n      dup1\n      0x00\n      add\n      sload\n      swap1\n      dup1\n      0x01\n      add\n      0x00\n      swap1\n      sload\n      swap1\n      0x0100\n      exp\n      swap1\n      div\n      0xff\n      and\n      swap1\n      pop\n      dup3\n      jump\t// out\n        /* \"#utility.yul\":88:205   */\n    tag_120:\n        /* \"#utility.yul\":197:198   */\n      0x00\n        /* \"#utility.yul\":194:195   */\n      dup1\n        /* \"#utility.yul\":187:199   */\n      revert\n        /* \"#utility.yul\":211:328   */\n    tag_121:\n        /* \"#utility.yul\":320:321   */\n      0x00\n        /* \"#utility.yul\":317:318   */\n      dup1\n        /* \"#utility.yul\":310:322   */\n      revert\n        /* \"#utility.yul\":334:460   */\n    tag_122:\n        /* \"#utility.yul\":371:378   */\n      0x00\n        /* \"#utility.yul\":411:453   */\n      0xffffffffffffffffffffffffffffffffffffffff\n        /* \"#utility.yul\":404:409   */\n      dup3\n        /* \"#utility.yul\":400:454   */\n      and\n        /* \"#utility.yul\":389:454   */\n      swap1\n      pop\n        /* \"#utility.yul\":334:460   */\n      swap2\n      swap1\n      pop\n      jump\t// out\n        /* \"#utility.yul\":466:562   */\n    tag_123:\n        /* \"#utility.yul\":503:510   */\n      0x00\n        /* \"#utility.yul\":532:556   */\n      tag_183\n        /* \"#utility.yul\":550:555   */\n      dup3\n        /* \"#utility.yul\":532:556   */\n      tag_122\n      jump\t// in\n    tag_183:\n        /* \"#utility.yul\":521:556   */\n      swap1\n      pop\n        /* \"#utility.yul\":466:562   */\n      swap2\n      swap1\n      pop\n      jump\t// out\n        /* \"#utility.yul\":568:690   */\n    tag_124:\n        /* \"#utility.yul\":641:665   */\n      tag_185\n        /* \"#utility.yul\":659:664   */\n      dup2\n        /* \"#utility.yul\":641:665   */\n      tag_123\n      jump\t// in\n    tag_185:\n        /* \"#utility.yul\":634:639   */\n      dup2\n        /* \"#utility.yul\":631:666   */\n      eq\n        /* \"#utility.yul\":621:684   */\n      tag_186\n      jumpi\n        /* \"#utility.yul\":680:681   */\n      0x00\n        /* \"#utility.yul\":677:678   */\n      dup1\n        /* \"#utility.yul\":670:682   */\n      revert\n        /* \"#utility.yul\":621:684   */\n    tag_186:\n        /* \"#utility.yul\":568:690   */\n      pop\n      jump\t// out\n        /* \"#utility.yul\":696:835   */\n    tag_125:\n        /* \"#utility.yul\":742:747   */\n      0x00\n        /* \"#utility.yul\":780:786   */\n      dup2\n        /* \"#utility.yul\":767:787   */\n      calldataload\n        /* \"#utility.yul\":758:787   */\n      swap1\n      pop\n        /* \"#utility.yul\":796:829   */\n      tag_188\n        /* \"#utility.yul\":823:828   */\n      dup2\n        /* \"#utility.yul\":796:829   */\n      tag_124\n      jump\t// in\n    tag_188:\n        /* \"#utility.yul\":696:835   */\n      swap3\n      swap2\n      pop\n      pop\n      jump\t// out\n        /* \"#utility.yul\":841:918   */\n    tag_126:\n        /* \"#utility.yul\":878:885   */\n      0x00\n        /* \"#utility.yul\":907:912   */\n      dup2\n        /* \"#utility.yul\":896:912   */\n      swap1\n      pop\n        /* \"#utility.yul\":841:918   */\n      swap2\n      swap1\n      pop\n      jump\t// out\n        /* \"#utility.yul\":924:1046   */\n    tag_127:\n        /* \"#utility.yul\":997:1021   */\n      tag_191\n        /* \"#utility.yul\":1015:1020   */\n      dup2\n        /* \"#utility.yul\":997:1021   */\n      tag_126\n      jump\t// in\n    tag_191:\n        /* \"#utility.yul\":990:995   */\n      dup2\n        /* \"#utility.yul\":987:1022   */\n      eq\n        /* \"#utility.yul\":977:1040   */\n      tag_192\n      jumpi\n        /* \"#utility.yul\":1036:1037   */\n      0x00\n        /* \"#utility.yul\":1033:1034   */\n      dup1\n        /* \"#utility.yul\":1026:1038   */\n      revert\n        /* \"#utility.yul\":977:1040   */\n    tag_192:\n        /* \"#utility.yul\":924:1046   */\n      pop\n      jump\t// out\n        /* \"#utility.yul\":1052:1191   */\n    tag_128:\n        /* \"#utility.yul\":1098:1103   */\n      0x00\n        /* \"#utility.yul\":1136:1142   */\n      dup2\n        /* \"#utility.yul\":1123:1143   */\n      calldataload\n        /* \"#utility.yul\":1114:1143   */\n      swap1\n      pop\n        /* \"#utility.yul\":1152:1185   */\n      tag_194\n        /* \"#utility.yul\":1179:1184   */\n      dup2\n        /* \"#utility.yul\":1152:1185   */\n      tag_127\n      jump\t// in\n    tag_194:\n        /* \"#utility.yul\":1052:1191   */\n      swap3\n      swap2\n      pop\n      pop\n      jump\t// out\n        /* \"#utility.yul\":1197:1671   */\n    tag_13:\n        /* \"#utility.yul\":1265:1271   */\n      0x00\n        /* \"#utility.yul\":1273:1279   */\n      dup1\n        /* \"#utility.yul\":1322:1324   */\n      0x40\n        /* \"#utility.yul\":1310:1319   */\n      dup4\n        /* \"#utility.yul\":1301:1308   */\n      dup6\n        /* \"#utility.yul\":1297:1320   */\n      sub\n        /* \"#utility.yul\":1293:1325   */\n      slt\n        /* \"#utility.yul\":1290:1409   */\n      iszero\n      tag_196\n      jumpi\n        /* \"#utility.yul\":1328:1407   */\n      tag_197\n      tag_120\n      jump\t// in\n    tag_197:\n        /* \"#utility.yul\":1290:1409   */\n    tag_196:\n        /* \"#utility.yul\":1448:1449   */\n      0x00\n        /* \"#utility.yul\":1473:1526   */\n      tag_198\n        /* \"#utility.yul\":1518:1525   */\n      dup6\n        /* \"#utility.yul\":1509:1515   */\n      dup3\n        /* \"#utility.yul\":1498:1507   */\n      dup7\n        /* \"#utility.yul\":1494:1516   */\n      add\n        /* \"#utility.yul\":1473:1526   */\n      tag_125\n      jump\t// in\n    tag_198:\n        /* \"#utility.yul\":1463:1526   */\n      swap3\n      pop\n        /* \"#utility.yul\":1419:1536   */\n      pop\n        /* \"#utility.yul\":1575:1577   */\n      0x20\n        /* \"#utility.yul\":1601:1654   */\n      tag_199\n        /* \"#utility.yul\":1646:1653   */\n      dup6\n        /* \"#utility.yul\":1637:1643   */\n      dup3\n        /* \"#utility.yul\":1626:1635   */\n      dup7\n        /* \"#utility.yul\":1622:1644   */\n      add\n        /* \"#utility.yul\":1601:1654   */\n      tag_128\n      jump\t// in\n    tag_199:\n        /* \"#utility.yul\":1591:1654   */\n      swap2\n      pop\n        /* \"#utility.yul\":1546:1664   */\n      pop\n        /* \"#utility.yul\":1197:1671   */\n      swap3\n      pop\n      swap3\n      swap1\n      pop\n      jump\t// out\n        /* \"#utility.yul\":1677:1795   */\n    tag_129:\n        /* \"#utility.yul\":1764:1788   */\n      tag_201\n        /* \"#utility.yul\":1782:1787   */\n      dup2\n        /* \"#utility.yul\":1764:1788   */\n      tag_126\n      jump\t// in\n    tag_201:\n        /* \"#utility.yul\":1759:1762   */\n      dup3\n        /* \"#utility.yul\":1752:1789   */\n      mstore\n        /* \"#utility.yul\":1677:1795   */\n      pop\n      pop\n      jump\t// out\n        /* \"#utility.yul\":1801:1900   */\n    tag_130:\n        /* \"#utility.yul\":1853:1859   */\n      0x00\n        /* \"#utility.yul\":1887:1892   */\n      dup2\n        /* \"#utility.yul\":1881:1893   */\n      mload\n        /* \"#utility.yul\":1871:1893   */\n      swap1\n      pop\n        /* \"#utility.yul\":1801:1900   */\n      swap2\n      swap1\n      pop\n      jump\t// out\n        /* \"#utility.yul\":1906:2075   */\n    tag_131:\n        /* \"#utility.yul\":1990:2001   */\n      0x00\n        /* \"#utility.yul\":2024:2030   */\n      dup3\n        /* \"#utility.yul\":2019:2022   */\n      dup3\n        /* \"#utility.yul\":2012:2031   */\n      mstore\n        /* \"#utility.yul\":2064:2068   */\n      0x20\n        /* \"#utility.yul\":2059:2062   */\n      dup3\n        /* \"#utility.yul\":2055:2069   */\n      add\n        /* \"#utility.yul\":2040:2069   */\n      swap1\n      pop\n        /* \"#utility.yul\":1906:2075   */\n      swap3\n      swap2\n      pop\n      pop\n      jump\t// out\n        /* \"#utility.yul\":2081:2327   */\n    tag_132:\n        /* \"#utility.yul\":2162:2163   */\n      0x00\n        /* \"#utility.yul\":2172:2285   */\n    tag_205:\n        /* \"#utility.yul\":2186:2192   */\n      dup4\n        /* \"#utility.yul\":2183:2184   */\n      dup2\n        /* \"#utility.yul\":2180:2193   */\n      lt\n        /* \"#utility.yul\":2172:2285   */\n      iszero\n      tag_207\n      jumpi\n        /* \"#utility.yul\":2271:2272   */\n      dup1\n        /* \"#utility.yul\":2266:2269   */\n      dup3\n        /* \"#utility.yul\":2262:2273   */\n      add\n        /* \"#utility.yul\":2256:2274   */\n      mload\n        /* \"#utility.yul\":2252:2253   */\n      dup2\n        /* \"#utility.yul\":2247:2250   */\n      dup5\n        /* \"#utility.yul\":2243:2254   */\n      add\n        /* \"#utility.yul\":2236:2275   */\n      mstore\n        /* \"#utility.yul\":2208:2210   */\n      0x20\n        /* \"#utility.yul\":2205:2206   */\n      dup2\n        /* \"#utility.yul\":2201:2211   */\n      add\n        /* \"#utility.yul\":2196:2211   */\n      swap1\n      pop\n        /* \"#utility.yul\":2172:2285   */\n      jump(tag_205)\n    tag_207:\n        /* \"#utility.yul\":2319:2320   */\n      0x00\n        /* \"#utility.yul\":2310:2316   */\n      dup5\n        /* \"#utility.yul\":2305:2308   */\n      dup5\n        /* \"#utility.yul\":2301:2317   */\n      add\n        /* \"#utility.yul\":2294:2321   */\n      mstore\n        /* \"#utility.yul\":2143:2327   */\n      pop\n        /* \"#utility.yul\":2081:2327   */\n      pop\n      pop\n      pop\n      jump\t// out\n        /* \"#utility.yul\":2333:2435   */\n    tag_133:\n        /* \"#utility.yul\":2374:2380   */\n      0x00\n        /* \"#utility.yul\":2425:2427   */\n      0x1f\n        /* \"#utility.yul\":2421:2428   */\n      not\n        /* \"#utility.yul\":2416:2418   */\n      0x1f\n        /* \"#utility.yul\":2409:2414   */\n      dup4\n        /* \"#utility.yul\":2405:2419   */\n      add\n        /* \"#utility.yul\":2401:2429   */\n      and\n        /* \"#utility.yul\":2391:2429   */\n      swap1\n      pop\n        /* \"#utility.yul\":2333:2435   */\n      swap2\n      swap1\n      pop\n      jump\t// out\n        /* \"#utility.yul\":2441:2818   */\n    tag_134:\n        /* \"#utility.yul\":2529:2532   */\n      0x00\n        /* \"#utility.yul\":2557:2596   */\n      tag_210\n        /* \"#utility.yul\":2590:2595   */\n      dup3\n        /* \"#utility.yul\":2557:2596   */\n      tag_130\n      jump\t// in\n    tag_210:\n        /* \"#utility.yul\":2612:2683   */\n      tag_211\n        /* \"#utility.yul\":2676:2682   */\n      dup2\n        /* \"#utility.yul\":2671:2674   */\n      dup6\n        /* \"#utility.yul\":2612:2683   */\n      tag_131\n      jump\t// in\n    tag_211:\n        /* \"#utility.yul\":2605:2683   */\n      swap4\n      pop\n        /* \"#utility.yul\":2692:2757   */\n      tag_212\n        /* \"#utility.yul\":2750:2756   */\n      dup2\n        /* \"#utility.yul\":2745:2748   */\n      dup6\n        /* \"#utility.yul\":2738:2742   */\n      0x20\n        /* \"#utility.yul\":2731:2736   */\n      dup7\n        /* \"#utility.yul\":2727:2743   */\n      add\n        /* \"#utility.yul\":2692:2757   */\n      tag_132\n      jump\t// in\n    tag_212:\n        /* \"#utility.yul\":2782:2811   */\n      tag_213\n        /* \"#utility.yul\":2804:2810   */\n      dup2\n        /* \"#utility.yul\":2782:2811   */\n      tag_133\n      jump\t// in\n    tag_213:\n        /* \"#utility.yul\":2777:2780   */\n      dup5\n        /* \"#utility.yul\":2773:2812   */\n      add\n        /* \"#utility.yul\":2766:2812   */\n      swap2\n      pop\n        /* \"#utility.yul\":2533:2818   */\n      pop\n        /* \"#utility.yul\":2441:2818   */\n      swap3\n      swap2\n      pop\n      pop\n      jump\t// out\n        /* \"#utility.yul\":2824:3357   */\n    tag_16:\n        /* \"#utility.yul\":2993:2997   */\n      0x00\n        /* \"#utility.yul\":3031:3033   */\n      0x60\n        /* \"#utility.yul\":3020:3029   */\n      dup3\n        /* \"#utility.yul\":3016:3034   */\n      add\n        /* \"#utility.yul\":3008:3034   */\n      swap1\n      pop\n        /* \"#utility.yul\":3044:3115   */\n      tag_215\n        /* \"#utility.yul\":3112:3113   */\n      0x00\n        /* \"#utility.yul\":3101:3110   */\n      dup4\n        /* \"#utility.yul\":3097:3114   */\n      add\n        /* \"#utility.yul\":3088:3094   */\n      dup7\n        /* \"#utility.yul\":3044:3115   */\n      tag_129\n      jump\t// in\n    tag_215:\n        /* \"#utility.yul\":3125:3197   */\n      tag_216\n        /* \"#utility.yul\":3193:3195   */\n      0x20\n        /* \"#utility.yul\":3182:3191   */\n      dup4\n        /* \"#utility.yul\":3178:3196   */\n      add\n        /* \"#utility.yul\":3169:3175   */\n      dup6\n        /* \"#utility.yul\":3125:3197   */\n      tag_129\n      jump\t// in\n    tag_216:\n        /* \"#utility.yul\":3244:3253   */\n      dup2\n        /* \"#utility.yul\":3238:3242   */\n      dup2\n        /* \"#utility.yul\":3234:3254   */\n      sub\n        /* \"#utility.yul\":3229:3231   */\n      0x40\n        /* \"#utility.yul\":3218:3227   */\n      dup4\n        /* \"#utility.yul\":3214:3232   */\n      add\n        /* \"#utility.yul\":3207:3255   */\n      mstore\n        /* \"#utility.yul\":3272:3350   */\n      tag_217\n        /* \"#utility.yul\":3345:3349   */\n      dup2\n        /* \"#utility.yul\":3336:3342   */\n      dup5\n        /* \"#utility.yul\":3272:3350   */\n      tag_134\n      jump\t// in\n    tag_217:\n        /* \"#utility.yul\":3264:3350   */\n      swap1\n      pop\n        /* \"#utility.yul\":2824:3357   */\n      swap5\n      swap4\n      pop\n      pop\n      pop\n      pop\n      jump\t// out\n        /* \"#utility.yul\":3363:3500   */\n    tag_135:\n        /* \"#utility.yul\":3453:3459   */\n      0x00\n        /* \"#utility.yul\":3487:3492   */\n      dup2\n        /* \"#utility.yul\":3481:3493   */\n      mload\n        /* \"#utility.yul\":3471:3493   */\n      swap1\n      pop\n        /* \"#utility.yul\":3363:3500   */\n      swap2\n      swap1\n      pop\n      jump\t// out\n        /* \"#utility.yul\":3506:3713   */\n    tag_136:\n        /* \"#utility.yul\":3628:3639   */\n      0x00\n        /* \"#utility.yul\":3662:3668   */\n      dup3\n        /* \"#utility.yul\":3657:3660   */\n      dup3\n        /* \"#utility.yul\":3650:3669   */\n      mstore\n        /* \"#utility.yul\":3702:3706   */\n      0x20\n        /* \"#utility.yul\":3697:3700   */\n      dup3\n        /* \"#utility.yul\":3693:3707   */\n      add\n        /* \"#utility.yul\":3678:3707   */\n      swap1\n      pop\n        /* \"#utility.yul\":3506:3713   */\n      swap3\n      swap2\n      pop\n      pop\n      jump\t// out\n        /* \"#utility.yul\":3719:3874   */\n    tag_137:\n        /* \"#utility.yul\":3809:3813   */\n      0x00\n        /* \"#utility.yul\":3832:3835   */\n      dup2\n        /* \"#utility.yul\":3824:3835   */\n      swap1\n      pop\n        /* \"#utility.yul\":3862:3866   */\n      0x20\n        /* \"#utility.yul\":3857:3860   */\n      dup3\n        /* \"#utility.yul\":3853:3867   */\n      add\n        /* \"#utility.yul\":3845:3867   */\n      swap1\n      pop\n        /* \"#utility.yul\":3719:3874   */\n      swap2\n      swap1\n      pop\n      jump\t// out\n        /* \"#utility.yul\":3880:3988   */\n    tag_138:\n        /* \"#utility.yul\":3957:3981   */\n      tag_222\n        /* \"#utility.yul\":3975:3980   */\n      dup2\n        /* \"#utility.yul\":3957:3981   */\n      tag_126\n      jump\t// in\n    tag_222:\n        /* \"#utility.yul\":3952:3955   */\n      dup3\n        /* \"#utility.yul\":3945:3982   */\n      mstore\n        /* \"#utility.yul\":3880:3988   */\n      pop\n      pop\n      jump\t// out\n        /* \"#utility.yul\":3994:4153   */\n    tag_139:\n        /* \"#utility.yul\":4068:4079   */\n      0x00\n        /* \"#utility.yul\":4102:4108   */\n      dup3\n        /* \"#utility.yul\":4097:4100   */\n      dup3\n        /* \"#utility.yul\":4090:4109   */\n      mstore\n        /* \"#utility.yul\":4142:4146   */\n      0x20\n        /* \"#utility.yul\":4137:4140   */\n      dup3\n        /* \"#utility.yul\":4133:4147   */\n      add\n        /* \"#utility.yul\":4118:4147   */\n      swap1\n      pop\n        /* \"#utility.yul\":3994:4153   */\n      swap3\n      swap2\n      pop\n      pop\n      jump\t// out\n        /* \"#utility.yul\":4159:4516   */\n    tag_140:\n        /* \"#utility.yul\":4237:4240   */\n      0x00\n        /* \"#utility.yul\":4265:4304   */\n      tag_225\n        /* \"#utility.yul\":4298:4303   */\n      dup3\n        /* \"#utility.yul\":4265:4304   */\n      tag_130\n      jump\t// in\n    tag_225:\n        /* \"#utility.yul\":4320:4381   */\n      tag_226\n        /* \"#utility.yul\":4374:4380   */\n      dup2\n        /* \"#utility.yul\":4369:4372   */\n      dup6\n        /* \"#utility.yul\":4320:4381   */\n      tag_139\n      jump\t// in\n    tag_226:\n        /* \"#utility.yul\":4313:4381   */\n      swap4\n      pop\n        /* \"#utility.yul\":4390:4455   */\n      tag_227\n        /* \"#utility.yul\":4448:4454   */\n      dup2\n        /* \"#utility.yul\":4443:4446   */\n      dup6\n        /* \"#utility.yul\":4436:4440   */\n      0x20\n        /* \"#utility.yul\":4429:4434   */\n      dup7\n        /* \"#utility.yul\":4425:4441   */\n      add\n        /* \"#utility.yul\":4390:4455   */\n      tag_132\n      jump\t// in\n    tag_227:\n        /* \"#utility.yul\":4480:4509   */\n      tag_228\n        /* \"#utility.yul\":4502:4508   */\n      dup2\n        /* \"#utility.yul\":4480:4509   */\n      tag_133\n      jump\t// in\n    tag_228:\n        /* \"#utility.yul\":4475:4478   */\n      dup5\n        /* \"#utility.yul\":4471:4510   */\n      add\n        /* \"#utility.yul\":4464:4510   */\n      swap2\n      pop\n        /* \"#utility.yul\":4241:4516   */\n      pop\n        /* \"#utility.yul\":4159:4516   */\n      swap3\n      swap2\n      pop\n      pop\n      jump\t// out\n        /* \"#utility.yul\":4586:5356   */\n    tag_141:\n        /* \"#utility.yul\":4691:4694   */\n      0x00\n        /* \"#utility.yul\":4727:4731   */\n      0x60\n        /* \"#utility.yul\":4722:4725   */\n      dup4\n        /* \"#utility.yul\":4718:4732   */\n      add\n        /* \"#utility.yul\":4817:4821   */\n      0x00\n        /* \"#utility.yul\":4810:4815   */\n      dup4\n        /* \"#utility.yul\":4806:4822   */\n      add\n        /* \"#utility.yul\":4800:4823   */\n      mload\n        /* \"#utility.yul\":4836:4899   */\n      tag_230\n        /* \"#utility.yul\":4893:4897   */\n      0x00\n        /* \"#utility.yul\":4888:4891   */\n      dup7\n        /* \"#utility.yul\":4884:4898   */\n      add\n        /* \"#utility.yul\":4870:4882   */\n      dup3\n        /* \"#utility.yul\":4836:4899   */\n      tag_138\n      jump\t// in\n    tag_230:\n        /* \"#utility.yul\":4742:4909   */\n      pop\n        /* \"#utility.yul\":4992:4996   */\n      0x20\n        /* \"#utility.yul\":4985:4990   */\n      dup4\n        /* \"#utility.yul\":4981:4997   */\n      add\n        /* \"#utility.yul\":4975:4998   */\n      mload\n        /* \"#utility.yul\":5011:5074   */\n      tag_231\n        /* \"#utility.yul\":5068:5072   */\n      0x20\n        /* \"#utility.yul\":5063:5066   */\n      dup7\n        /* \"#utility.yul\":5059:5073   */\n      add\n        /* \"#utility.yul\":5045:5057   */\n      dup3\n        /* \"#utility.yul\":5011:5074   */\n      tag_138\n      jump\t// in\n    tag_231:\n        /* \"#utility.yul\":4919:5084   */\n      pop\n        /* \"#utility.yul\":5166:5170   */\n      0x40\n        /* \"#utility.yul\":5159:5164   */\n      dup4\n        /* \"#utility.yul\":5155:5171   */\n      add\n        /* \"#utility.yul\":5149:5172   */\n      mload\n        /* \"#utility.yul\":5219:5222   */\n      dup5\n        /* \"#utility.yul\":5213:5217   */\n      dup3\n        /* \"#utility.yul\":5209:5223   */\n      sub\n        /* \"#utility.yul\":5202:5206   */\n      0x40\n        /* \"#utility.yul\":5197:5200   */\n      dup7\n        /* \"#utility.yul\":5193:5207   */\n      add\n        /* \"#utility.yul\":5186:5224   */\n      mstore\n        /* \"#utility.yul\":5245:5318   */\n      tag_232\n        /* \"#utility.yul\":5313:5317   */\n      dup3\n        /* \"#utility.yul\":5299:5311   */\n      dup3\n        /* \"#utility.yul\":5245:5318   */\n      tag_140\n      jump\t// in\n    tag_232:\n        /* \"#utility.yul\":5237:5318   */\n      swap2\n      pop\n        /* \"#utility.yul\":5094:5329   */\n      pop\n        /* \"#utility.yul\":5346:5350   */\n      dup1\n        /* \"#utility.yul\":5339:5350   */\n      swap2\n      pop\n        /* \"#utility.yul\":4696:5356   */\n      pop\n        /* \"#utility.yul\":4586:5356   */\n      swap3\n      swap2\n      pop\n      pop\n      jump\t// out\n        /* \"#utility.yul\":5362:5610   */\n    tag_142:\n        /* \"#utility.yul\":5477:5487   */\n      0x00\n        /* \"#utility.yul\":5512:5604   */\n      tag_234\n        /* \"#utility.yul\":5600:5603   */\n      dup4\n        /* \"#utility.yul\":5592:5598   */\n      dup4\n        /* \"#utility.yul\":5512:5604   */\n      tag_141\n      jump\t// in\n    tag_234:\n        /* \"#utility.yul\":5498:5604   */\n      swap1\n      pop\n        /* \"#utility.yul\":5362:5610   */\n      swap3\n      swap2\n      pop\n      pop\n      jump\t// out\n        /* \"#utility.yul\":5616:5752   */\n    tag_143:\n        /* \"#utility.yul\":5709:5713   */\n      0x00\n        /* \"#utility.yul\":5741:5745   */\n      0x20\n        /* \"#utility.yul\":5736:5739   */\n      dup3\n        /* \"#utility.yul\":5732:5746   */\n      add\n        /* \"#utility.yul\":5724:5746   */\n      swap1\n      pop\n        /* \"#utility.yul\":5616:5752   */\n      swap2\n      swap1\n      pop\n      jump\t// out\n        /* \"#utility.yul\":5826:6921   */\n    tag_144:\n        /* \"#utility.yul\":5991:5994   */\n      0x00\n        /* \"#utility.yul\":6020:6097   */\n      tag_237\n        /* \"#utility.yul\":6091:6096   */\n      dup3\n        /* \"#utility.yul\":6020:6097   */\n      tag_135\n      jump\t// in\n    tag_237:\n        /* \"#utility.yul\":6113:6222   */\n      tag_238\n        /* \"#utility.yul\":6215:6221   */\n      dup2\n        /* \"#utility.yul\":6210:6213   */\n      dup6\n        /* \"#utility.yul\":6113:6222   */\n      tag_136\n      jump\t// in\n    tag_238:\n        /* \"#utility.yul\":6106:6222   */\n      swap4\n      pop\n        /* \"#utility.yul\":6248:6251   */\n      dup4\n        /* \"#utility.yul\":6293:6297   */\n      0x20\n        /* \"#utility.yul\":6285:6291   */\n      dup3\n        /* \"#utility.yul\":6281:6298   */\n      mul\n        /* \"#utility.yul\":6276:6279   */\n      dup6\n        /* \"#utility.yul\":6272:6299   */\n      add\n        /* \"#utility.yul\":6323:6402   */\n      tag_239\n        /* \"#utility.yul\":6396:6401   */\n      dup6\n        /* \"#utility.yul\":6323:6402   */\n      tag_137\n      jump\t// in\n    tag_239:\n        /* \"#utility.yul\":6425:6432   */\n      dup1\n        /* \"#utility.yul\":6456:6457   */\n      0x00\n        /* \"#utility.yul\":6441:6876   */\n    tag_240:\n        /* \"#utility.yul\":6466:6472   */\n      dup6\n        /* \"#utility.yul\":6463:6464   */\n      dup2\n        /* \"#utility.yul\":6460:6473   */\n      lt\n        /* \"#utility.yul\":6441:6876   */\n      iszero\n      tag_242\n      jumpi\n        /* \"#utility.yul\":6537:6546   */\n      dup5\n        /* \"#utility.yul\":6531:6535   */\n      dup5\n        /* \"#utility.yul\":6527:6547   */\n      sub\n        /* \"#utility.yul\":6522:6525   */\n      dup10\n        /* \"#utility.yul\":6515:6548   */\n      mstore\n        /* \"#utility.yul\":6588:6594   */\n      dup2\n        /* \"#utility.yul\":6582:6595   */\n      mload\n        /* \"#utility.yul\":6616:6726   */\n      tag_243\n        /* \"#utility.yul\":6721:6725   */\n      dup6\n        /* \"#utility.yul\":6706:6719   */\n      dup3\n        /* \"#utility.yul\":6616:6726   */\n      tag_142\n      jump\t// in\n    tag_243:\n        /* \"#utility.yul\":6608:6726   */\n      swap5\n      pop\n        /* \"#utility.yul\":6749:6832   */\n      tag_244\n        /* \"#utility.yul\":6825:6831   */\n      dup4\n        /* \"#utility.yul\":6749:6832   */\n      tag_143\n      jump\t// in\n    tag_244:\n        /* \"#utility.yul\":6739:6832   */\n      swap3\n      pop\n        /* \"#utility.yul\":6861:6865   */\n      0x20\n        /* \"#utility.yul\":6856:6859   */\n      dup11\n        /* \"#utility.yul\":6852:6866   */\n      add\n        /* \"#utility.yul\":6845:6866   */\n      swap10\n      pop\n        /* \"#utility.yul\":6501:6876   */\n      pop\n        /* \"#utility.yul\":6488:6489   */\n      0x01\n        /* \"#utility.yul\":6485:6486   */\n      dup2\n        /* \"#utility.yul\":6481:6490   */\n      add\n        /* \"#utility.yul\":6476:6490   */\n      swap1\n      pop\n        /* \"#utility.yul\":6441:6876   */\n      jump(tag_240)\n    tag_242:\n        /* \"#utility.yul\":6445:6459   */\n      pop\n        /* \"#utility.yul\":6892:6896   */\n      dup3\n        /* \"#utility.yul\":6885:6896   */\n      swap8\n      pop\n        /* \"#utility.yul\":6912:6915   */\n      dup8\n        /* \"#utility.yul\":6905:6915   */\n      swap6\n      pop\n        /* \"#utility.yul\":5996:6921   */\n      pop\n      pop\n      pop\n      pop\n      pop\n        /* \"#utility.yul\":5826:6921   */\n      swap3\n      swap2\n      pop\n      pop\n      jump\t// out\n        /* \"#utility.yul\":6927:7392   */\n    tag_21:\n        /* \"#utility.yul\":7116:7120   */\n      0x00\n        /* \"#utility.yul\":7154:7156   */\n      0x20\n        /* \"#utility.yul\":7143:7152   */\n      dup3\n        /* \"#utility.yul\":7139:7157   */\n      add\n        /* \"#utility.yul\":7131:7157   */\n      swap1\n      pop\n        /* \"#utility.yul\":7203:7212   */\n      dup2\n        /* \"#utility.yul\":7197:7201   */\n      dup2\n        /* \"#utility.yul\":7193:7213   */\n      sub\n        /* \"#utility.yul\":7189:7190   */\n      0x00\n        /* \"#utility.yul\":7178:7187   */\n      dup4\n        /* \"#utility.yul\":7174:7191   */\n      add\n        /* \"#utility.yul\":7167:7214   */\n      mstore\n        /* \"#utility.yul\":7231:7385   */\n      tag_246\n        /* \"#utility.yul\":7380:7384   */\n      dup2\n        /* \"#utility.yul\":7371:7377   */\n      dup5\n        /* \"#utility.yul\":7231:7385   */\n      tag_144\n      jump\t// in\n    tag_246:\n        /* \"#utility.yul\":7223:7385   */\n      swap1\n      pop\n        /* \"#utility.yul\":6927:7392   */\n      swap3\n      swap2\n      pop\n      pop\n      jump\t// out\n        /* \"#utility.yul\":7398:7727   */\n    tag_25:\n        /* \"#utility.yul\":7457:7463   */\n      0x00\n        /* \"#utility.yul\":7506:7508   */\n      0x20\n        /* \"#utility.yul\":7494:7503   */\n      dup3\n        /* \"#utility.yul\":7485:7492   */\n      dup5\n        /* \"#utility.yul\":7481:7504   */\n      sub\n        /* \"#utility.yul\":7477:7509   */\n      slt\n        /* \"#utility.yul\":7474:7593   */\n      iszero\n      tag_248\n      jumpi\n        /* \"#utility.yul\":7512:7591   */\n      tag_249\n      tag_120\n      jump\t// in\n    tag_249:\n        /* \"#utility.yul\":7474:7593   */\n    tag_248:\n        /* \"#utility.yul\":7632:7633   */\n      0x00\n        /* \"#utility.yul\":7657:7710   */\n      tag_250\n        /* \"#utility.yul\":7702:7709   */\n      dup5\n        /* \"#utility.yul\":7693:7699   */\n      dup3\n        /* \"#utility.yul\":7682:7691   */\n      dup6\n        /* \"#utility.yul\":7678:7700   */\n      add\n        /* \"#utility.yul\":7657:7710   */\n      tag_128\n      jump\t// in\n    tag_250:\n        /* \"#utility.yul\":7647:7710   */\n      swap2\n      pop\n        /* \"#utility.yul\":7603:7720   */\n      pop\n        /* \"#utility.yul\":7398:7727   */\n      swap3\n      swap2\n      pop\n      pop\n      jump\t// out\n        /* \"#utility.yul\":7733:7955   */\n    tag_28:\n        /* \"#utility.yul\":7826:7830   */\n      0x00\n        /* \"#utility.yul\":7864:7866   */\n      0x20\n        /* \"#utility.yul\":7853:7862   */\n      dup3\n        /* \"#utility.yul\":7849:7867   */\n      add\n        /* \"#utility.yul\":7841:7867   */\n      swap1\n      pop\n        /* \"#utility.yul\":7877:7948   */\n      tag_252\n        /* \"#utility.yul\":7945:7946   */\n      0x00\n        /* \"#utility.yul\":7934:7943   */\n      dup4\n        /* \"#utility.yul\":7930:7947   */\n      add\n        /* \"#utility.yul\":7921:7927   */\n      dup5\n        /* \"#utility.yul\":7877:7948   */\n      tag_129\n      jump\t// in\n    tag_252:\n        /* \"#utility.yul\":7733:7955   */\n      swap3\n      swap2\n      pop\n      pop\n      jump\t// out\n        /* \"#utility.yul\":7961:8435   */\n    tag_31:\n        /* \"#utility.yul\":8029:8035   */\n      0x00\n        /* \"#utility.yul\":8037:8043   */\n      dup1\n        /* \"#utility.yul\":8086:8088   */\n      0x40\n        /* \"#utility.yul\":8074:8083   */\n      dup4\n        /* \"#utility.yul\":8065:8072   */\n      dup6\n        /* \"#utility.yul\":8061:8084   */\n      sub\n        /* \"#utility.yul\":8057:8089   */\n      slt\n        /* \"#utility.yul\":8054:8173   */\n      iszero\n      tag_254\n      jumpi\n        /* \"#utility.yul\":8092:8171   */\n      tag_255\n      tag_120\n      jump\t// in\n    tag_255:\n        /* \"#utility.yul\":8054:8173   */\n    tag_254:\n        /* \"#utility.yul\":8212:8213   */\n      0x00\n        /* \"#utility.yul\":8237:8290   */\n      tag_256\n        /* \"#utility.yul\":8282:8289   */\n      dup6\n        /* \"#utility.yul\":8273:8279   */\n      dup3\n        /* \"#utility.yul\":8262:8271   */\n      dup7\n        /* \"#utility.yul\":8258:8280   */\n      add\n        /* \"#utility.yul\":8237:8290   */\n      tag_128\n      jump\t// in\n    tag_256:\n        /* \"#utility.yul\":8227:8290   */\n      swap3\n      pop\n        /* \"#utility.yul\":8183:8300   */\n      pop\n        /* \"#utility.yul\":8339:8341   */\n      0x20\n        /* \"#utility.yul\":8365:8418   */\n      tag_257\n        /* \"#utility.yul\":8410:8417   */\n      dup6\n        /* \"#utility.yul\":8401:8407   */\n      dup3\n        /* \"#utility.yul\":8390:8399   */\n      dup7\n        /* \"#utility.yul\":8386:8408   */\n      add\n        /* \"#utility.yul\":8365:8418   */\n      tag_128\n      jump\t// in\n    tag_257:\n        /* \"#utility.yul\":8355:8418   */\n      swap2\n      pop\n        /* \"#utility.yul\":8310:8428   */\n      pop\n        /* \"#utility.yul\":7961:8435   */\n      swap3\n      pop\n      swap3\n      swap1\n      pop\n      jump\t// out\n        /* \"#utility.yul\":8441:8559   */\n    tag_145:\n        /* \"#utility.yul\":8528:8552   */\n      tag_259\n        /* \"#utility.yul\":8546:8551   */\n      dup2\n        /* \"#utility.yul\":8528:8552   */\n      tag_123\n      jump\t// in\n    tag_259:\n        /* \"#utility.yul\":8523:8526   */\n      dup3\n        /* \"#utility.yul\":8516:8553   */\n      mstore\n        /* \"#utility.yul\":8441:8559   */\n      pop\n      pop\n      jump\t// out\n        /* \"#utility.yul\":8565:8787   */\n    tag_37:\n        /* \"#utility.yul\":8658:8662   */\n      0x00\n        /* \"#utility.yul\":8696:8698   */\n      0x20\n        /* \"#utility.yul\":8685:8694   */\n      dup3\n        /* \"#utility.yul\":8681:8699   */\n      add\n        /* \"#utility.yul\":8673:8699   */\n      swap1\n      pop\n        /* \"#utility.yul\":8709:8780   */\n      tag_261\n        /* \"#utility.yul\":8777:8778   */\n      0x00\n        /* \"#utility.yul\":8766:8775   */\n      dup4\n        /* \"#utility.yul\":8762:8779   */\n      add\n        /* \"#utility.yul\":8753:8759   */\n      dup5\n        /* \"#utility.yul\":8709:8780   */\n      tag_145\n      jump\t// in\n    tag_261:\n        /* \"#utility.yul\":8565:8787   */\n      swap3\n      swap2\n      pop\n      pop\n      jump\t// out\n        /* \"#utility.yul\":8793:8910   */\n    tag_146:\n        /* \"#utility.yul\":8902:8903   */\n      0x00\n        /* \"#utility.yul\":8899:8900   */\n      dup1\n        /* \"#utility.yul\":8892:8904   */\n      revert\n        /* \"#utility.yul\":8916:9033   */\n    tag_147:\n        /* \"#utility.yul\":9025:9026   */\n      0x00\n        /* \"#utility.yul\":9022:9023   */\n      dup1\n        /* \"#utility.yul\":9015:9027   */\n      revert\n        /* \"#utility.yul\":9039:9156   */\n    tag_148:\n        /* \"#utility.yul\":9148:9149   */\n      0x00\n        /* \"#utility.yul\":9145:9146   */\n      dup1\n        /* \"#utility.yul\":9138:9150   */\n      revert\n        /* \"#utility.yul\":9176:9729   */\n    tag_149:\n        /* \"#utility.yul\":9234:9242   */\n      0x00\n        /* \"#utility.yul\":9244:9250   */\n      dup1\n        /* \"#utility.yul\":9294:9297   */\n      dup4\n        /* \"#utility.yul\":9287:9291   */\n      0x1f\n        /* \"#utility.yul\":9279:9285   */\n      dup5\n        /* \"#utility.yul\":9275:9292   */\n      add\n        /* \"#utility.yul\":9271:9298   */\n      slt\n        /* \"#utility.yul\":9261:9383   */\n      tag_266\n      jumpi\n        /* \"#utility.yul\":9302:9381   */\n      tag_267\n      tag_146\n      jump\t// in\n    tag_267:\n        /* \"#utility.yul\":9261:9383   */\n    tag_266:\n        /* \"#utility.yul\":9415:9421   */\n      dup3\n        /* \"#utility.yul\":9402:9422   */\n      calldataload\n        /* \"#utility.yul\":9392:9422   */\n      swap1\n      pop\n        /* \"#utility.yul\":9445:9463   */\n      0xffffffffffffffff\n        /* \"#utility.yul\":9437:9443   */\n      dup2\n        /* \"#utility.yul\":9434:9464   */\n      gt\n        /* \"#utility.yul\":9431:9548   */\n      iszero\n      tag_268\n      jumpi\n        /* \"#utility.yul\":9467:9546   */\n      tag_269\n      tag_147\n      jump\t// in\n    tag_269:\n        /* \"#utility.yul\":9431:9548   */\n    tag_268:\n        /* \"#utility.yul\":9581:9585   */\n      0x20\n        /* \"#utility.yul\":9573:9579   */\n      dup4\n        /* \"#utility.yul\":9569:9586   */\n      add\n        /* \"#utility.yul\":9557:9586   */\n      swap2\n      pop\n        /* \"#utility.yul\":9635:9638   */\n      dup4\n        /* \"#utility.yul\":9627:9631   */\n      0x01\n        /* \"#utility.yul\":9619:9625   */\n      dup3\n        /* \"#utility.yul\":9615:9632   */\n      mul\n        /* \"#utility.yul\":9605:9613   */\n      dup4\n        /* \"#utility.yul\":9601:9633   */\n      add\n        /* \"#utility.yul\":9598:9639   */\n      gt\n        /* \"#utility.yul\":9595:9723   */\n      iszero\n      tag_270\n      jumpi\n        /* \"#utility.yul\":9642:9721   */\n      tag_271\n      tag_148\n      jump\t// in\n    tag_271:\n        /* \"#utility.yul\":9595:9723   */\n    tag_270:\n        /* \"#utility.yul\":9176:9729   */\n      swap3\n      pop\n      swap3\n      swap1\n      pop\n      jump\t// out\n        /* \"#utility.yul\":9735:10554   */\n    tag_41:\n        /* \"#utility.yul\":9824:9830   */\n      0x00\n        /* \"#utility.yul\":9832:9838   */\n      dup1\n        /* \"#utility.yul\":9840:9846   */\n      0x00\n        /* \"#utility.yul\":9848:9854   */\n      dup1\n        /* \"#utility.yul\":9897:9899   */\n      0x60\n        /* \"#utility.yul\":9885:9894   */\n      dup6\n        /* \"#utility.yul\":9876:9883   */\n      dup8\n        /* \"#utility.yul\":9872:9895   */\n      sub\n        /* \"#utility.yul\":9868:9900   */\n      slt\n        /* \"#utility.yul\":9865:9984   */\n      iszero\n      tag_273\n      jumpi\n        /* \"#utility.yul\":9903:9982   */\n      tag_274\n      tag_120\n      jump\t// in\n    tag_274:\n        /* \"#utility.yul\":9865:9984   */\n    tag_273:\n        /* \"#utility.yul\":10023:10024   */\n      0x00\n        /* \"#utility.yul\":10048:10101   */\n      tag_275\n        /* \"#utility.yul\":10093:10100   */\n      dup8\n        /* \"#utility.yul\":10084:10090   */\n      dup3\n        /* \"#utility.yul\":10073:10082   */\n      dup9\n        /* \"#utility.yul\":10069:10091   */\n      add\n        /* \"#utility.yul\":10048:10101   */\n      tag_128\n      jump\t// in\n    tag_275:\n        /* \"#utility.yul\":10038:10101   */\n      swap5\n      pop\n        /* \"#utility.yul\":9994:10111   */\n      pop\n        /* \"#utility.yul\":10150:10152   */\n      0x20\n        /* \"#utility.yul\":10176:10229   */\n      tag_276\n        /* \"#utility.yul\":10221:10228   */\n      dup8\n        /* \"#utility.yul\":10212:10218   */\n      dup3\n        /* \"#utility.yul\":10201:10210   */\n      dup9\n        /* \"#utility.yul\":10197:10219   */\n      add\n        /* \"#utility.yul\":10176:10229   */\n      tag_128\n      jump\t// in\n    tag_276:\n        /* \"#utility.yul\":10166:10229   */\n      swap4\n      pop\n        /* \"#utility.yul\":10121:10239   */\n      pop\n        /* \"#utility.yul\":10306:10308   */\n      0x40\n        /* \"#utility.yul\":10295:10304   */\n      dup6\n        /* \"#utility.yul\":10291:10309   */\n      add\n        /* \"#utility.yul\":10278:10310   */\n      calldataload\n        /* \"#utility.yul\":10337:10355   */\n      0xffffffffffffffff\n        /* \"#utility.yul\":10329:10335   */\n      dup2\n        /* \"#utility.yul\":10326:10356   */\n      gt\n        /* \"#utility.yul\":10323:10440   */\n      iszero\n      tag_277\n      jumpi\n        /* \"#utility.yul\":10359:10438   */\n      tag_278\n      tag_121\n      jump\t// in\n    tag_278:\n        /* \"#utility.yul\":10323:10440   */\n    tag_277:\n        /* \"#utility.yul\":10472:10537   */\n      tag_279\n        /* \"#utility.yul\":10529:10536   */\n      dup8\n        /* \"#utility.yul\":10520:10526   */\n      dup3\n        /* \"#utility.yul\":10509:10518   */\n      dup9\n        /* \"#utility.yul\":10505:10527   */\n      add\n        /* \"#utility.yul\":10472:10537   */\n      tag_149\n      jump\t// in\n    tag_279:\n        /* \"#utility.yul\":10454:10537   */\n      swap3\n      pop\n      swap3\n      pop\n        /* \"#utility.yul\":10249:10547   */\n      pop\n        /* \"#utility.yul\":9735:10554   */\n      swap3\n      swap6\n      swap2\n      swap5\n      pop\n      swap3\n      pop\n      jump\t// out\n        /* \"#utility.yul\":10560:10889   */\n    tag_46:\n        /* \"#utility.yul\":10619:10625   */\n      0x00\n        /* \"#utility.yul\":10668:10670   */\n      0x20\n        /* \"#utility.yul\":10656:10665   */\n      dup3\n        /* \"#utility.yul\":10647:10654   */\n      dup5\n        /* \"#utility.yul\":10643:10666   */\n      sub\n        /* \"#utility.yul\":10639:10671   */\n      slt\n        /* \"#utility.yul\":10636:10755   */\n      iszero\n      tag_281\n      jumpi\n        /* \"#utility.yul\":10674:10753   */\n      tag_282\n      tag_120\n      jump\t// in\n    tag_282:\n        /* \"#utility.yul\":10636:10755   */\n    tag_281:\n        /* \"#utility.yul\":10794:10795   */\n      0x00\n        /* \"#utility.yul\":10819:10872   */\n      tag_283\n        /* \"#utility.yul\":10864:10871   */\n      dup5\n        /* \"#utility.yul\":10855:10861   */\n      dup3\n        /* \"#utility.yul\":10844:10853   */\n      dup6\n        /* \"#utility.yul\":10840:10862   */\n      add\n        /* \"#utility.yul\":10819:10872   */\n      tag_125\n      jump\t// in\n    tag_283:\n        /* \"#utility.yul\":10809:10872   */\n      swap2\n      pop\n        /* \"#utility.yul\":10765:10882   */\n      pop\n        /* \"#utility.yul\":10560:10889   */\n      swap3\n      swap2\n      pop\n      pop\n      jump\t// out\n        /* \"#utility.yul\":10895:11075   */\n    tag_150:\n        /* \"#utility.yul\":10943:11020   */\n      0x4e487b7100000000000000000000000000000000000000000000000000000000\n        /* \"#utility.yul\":10940:10941   */\n      0x00\n        /* \"#utility.yul\":10933:11021   */\n      mstore\n        /* \"#utility.yul\":11040:11044   */\n      0x21\n        /* \"#utility.yul\":11037:11038   */\n      0x04\n        /* \"#utility.yul\":11030:11045   */\n      mstore\n        /* \"#utility.yul\":11064:11068   */\n      0x24\n        /* \"#utility.yul\":11061:11062   */\n      0x00\n        /* \"#utility.yul\":11054:11069   */\n      revert\n        /* \"#utility.yul\":11081:11192   */\n    tag_151:\n        /* \"#utility.yul\":11160:11161   */\n      0x02\n        /* \"#utility.yul\":11153:11158   */\n      dup2\n        /* \"#utility.yul\":11150:11162   */\n      lt\n        /* \"#utility.yul\":11140:11186   */\n      tag_286\n      jumpi\n        /* \"#utility.yul\":11166:11184   */\n      tag_287\n      tag_150\n      jump\t// in\n    tag_287:\n        /* \"#utility.yul\":11140:11186   */\n    tag_286:\n        /* \"#utility.yul\":11081:11192   */\n      pop\n      jump\t// out\n        /* \"#utility.yul\":11198:11321   */\n    tag_152:\n        /* \"#utility.yul\":11241:11248   */\n      0x00\n        /* \"#utility.yul\":11270:11275   */\n      dup2\n        /* \"#utility.yul\":11259:11275   */\n      swap1\n      pop\n        /* \"#utility.yul\":11276:11315   */\n      tag_289\n        /* \"#utility.yul\":11309:11314   */\n      dup3\n        /* \"#utility.yul\":11276:11315   */\n      tag_151\n      jump\t// in\n    tag_289:\n        /* \"#utility.yul\":11198:11321   */\n      swap2\n      swap1\n      pop\n      jump\t// out\n        /* \"#utility.yul\":11327:11450   */\n    tag_153:\n        /* \"#utility.yul\":11381:11390   */\n      0x00\n        /* \"#utility.yul\":11414:11444   */\n      tag_291\n        /* \"#utility.yul\":11438:11443   */\n      dup3\n        /* \"#utility.yul\":11414:11444   */\n      tag_152\n      jump\t// in\n    tag_291:\n        /* \"#utility.yul\":11401:11444   */\n      swap1\n      pop\n        /* \"#utility.yul\":11327:11450   */\n      swap2\n      swap1\n      pop\n      jump\t// out\n        /* \"#utility.yul\":11456:11595   */\n    tag_154:\n        /* \"#utility.yul\":11547:11588   */\n      tag_293\n        /* \"#utility.yul\":11582:11587   */\n      dup2\n        /* \"#utility.yul\":11547:11588   */\n      tag_153\n      jump\t// in\n    tag_293:\n        /* \"#utility.yul\":11542:11545   */\n      dup3\n        /* \"#utility.yul\":11535:11589   */\n      mstore\n        /* \"#utility.yul\":11456:11595   */\n      pop\n      pop\n      jump\t// out\n        /* \"#utility.yul\":11601:11941   */\n    tag_49:\n        /* \"#utility.yul\":11726:11730   */\n      0x00\n        /* \"#utility.yul\":11764:11766   */\n      0x40\n        /* \"#utility.yul\":11753:11762   */\n      dup3\n        /* \"#utility.yul\":11749:11767   */\n      add\n        /* \"#utility.yul\":11741:11767   */\n      swap1\n      pop\n        /* \"#utility.yul\":11777:11848   */\n      tag_295\n        /* \"#utility.yul\":11845:11846   */\n      0x00\n        /* \"#utility.yul\":11834:11843   */\n      dup4\n        /* \"#utility.yul\":11830:11847   */\n      add\n        /* \"#utility.yul\":11821:11827   */\n      dup6\n        /* \"#utility.yul\":11777:11848   */\n      tag_129\n      jump\t// in\n    tag_295:\n        /* \"#utility.yul\":11858:11934   */\n      tag_296\n        /* \"#utility.yul\":11930:11932   */\n      0x20\n        /* \"#utility.yul\":11919:11928   */\n      dup4\n        /* \"#utility.yul\":11915:11933   */\n      add\n        /* \"#utility.yul\":11906:11912   */\n      dup5\n        /* \"#utility.yul\":11858:11934   */\n      tag_154\n      jump\t// in\n    tag_296:\n        /* \"#utility.yul\":11601:11941   */\n      swap4\n      swap3\n      pop\n      pop\n      pop\n      jump\t// out\n        /* \"#utility.yul\":11947:12127   */\n    tag_155:\n        /* \"#utility.yul\":11995:12072   */\n      0x4e487b7100000000000000000000000000000000000000000000000000000000\n        /* \"#utility.yul\":11992:11993   */\n      0x00\n        /* \"#utility.yul\":11985:12073   */\n      mstore\n        /* \"#utility.yul\":12092:12096   */\n      0x22\n        /* \"#utility.yul\":12089:12090   */\n      0x04\n        /* \"#utility.yul\":12082:12097   */\n      mstore\n        /* \"#utility.yul\":12116:12120   */\n      0x24\n        /* \"#utility.yul\":12113:12114   */\n      0x00\n        /* \"#utility.yul\":12106:12121   */\n      revert\n        /* \"#utility.yul\":12133:12453   */\n    tag_53:\n        /* \"#utility.yul\":12177:12183   */\n      0x00\n        /* \"#utility.yul\":12214:12215   */\n      0x02\n        /* \"#utility.yul\":12208:12212   */\n      dup3\n        /* \"#utility.yul\":12204:12216   */\n      div\n        /* \"#utility.yul\":12194:12216   */\n      swap1\n      pop\n        /* \"#utility.yul\":12261:12262   */\n      0x01\n        /* \"#utility.yul\":12255:12259   */\n      dup3\n        /* \"#utility.yul\":12251:12263   */\n      and\n        /* \"#utility.yul\":12282:12300   */\n      dup1\n        /* \"#utility.yul\":12272:12353   */\n      tag_299\n      jumpi\n        /* \"#utility.yul\":12338:12342   */\n      0x7f\n        /* \"#utility.yul\":12330:12336   */\n      dup3\n        /* \"#utility.yul\":12326:12343   */\n      and\n        /* \"#utility.yul\":12316:12343   */\n      swap2\n      pop\n        /* \"#utility.yul\":12272:12353   */\n    tag_299:\n        /* \"#utility.yul\":12400:12402   */\n      0x20\n        /* \"#utility.yul\":12392:12398   */\n      dup3\n        /* \"#utility.yul\":12389:12403   */\n      lt\n        /* \"#utility.yul\":12369:12387   */\n      dup2\n        /* \"#utility.yul\":12366:12404   */\n      sub\n        /* \"#utility.yul\":12363:12447   */\n      tag_300\n      jumpi\n        /* \"#utility.yul\":12419:12437   */\n      tag_301\n      tag_155\n      jump\t// in\n    tag_301:\n        /* \"#utility.yul\":12363:12447   */\n    tag_300:\n        /* \"#utility.yul\":12184:12453   */\n      pop\n        /* \"#utility.yul\":12133:12453   */\n      swap2\n      swap1\n      pop\n      jump\t// out\n        /* \"#utility.yul\":12459:12627   */\n    tag_156:\n        /* \"#utility.yul\":12599:12619   */\n      0x496e76616c69642070726f647563742049440000000000000000000000000000\n        /* \"#utility.yul\":12595:12596   */\n      0x00\n        /* \"#utility.yul\":12587:12593   */\n      dup3\n        /* \"#utility.yul\":12583:12597   */\n      add\n        /* \"#utility.yul\":12576:12620   */\n      mstore\n        /* \"#utility.yul\":12459:12627   */\n      pop\n      jump\t// out\n        /* \"#utility.yul\":12633:12999   */\n    tag_157:\n        /* \"#utility.yul\":12775:12778   */\n      0x00\n        /* \"#utility.yul\":12796:12863   */\n      tag_304\n        /* \"#utility.yul\":12860:12862   */\n      0x12\n        /* \"#utility.yul\":12855:12858   */\n      dup4\n        /* \"#utility.yul\":12796:12863   */\n      tag_131\n      jump\t// in\n    tag_304:\n        /* \"#utility.yul\":12789:12863   */\n      swap2\n      pop\n        /* \"#utility.yul\":12872:12965   */\n      tag_305\n        /* \"#utility.yul\":12961:12964   */\n      dup3\n        /* \"#utility.yul\":12872:12965   */\n      tag_156\n      jump\t// in\n    tag_305:\n        /* \"#utility.yul\":12990:12992   */\n      0x20\n        /* \"#utility.yul\":12985:12988   */\n      dup3\n        /* \"#utility.yul\":12981:12993   */\n      add\n        /* \"#utility.yul\":12974:12993   */\n      swap1\n      pop\n        /* \"#utility.yul\":12633:12999   */\n      swap2\n      swap1\n      pop\n      jump\t// out\n        /* \"#utility.yul\":13005:13424   */\n    tag_70:\n        /* \"#utility.yul\":13171:13175   */\n      0x00\n        /* \"#utility.yul\":13209:13211   */\n      0x20\n        /* \"#utility.yul\":13198:13207   */\n      dup3\n        /* \"#utility.yul\":13194:13212   */\n      add\n        /* \"#utility.yul\":13186:13212   */\n      swap1\n      pop\n        /* \"#utility.yul\":13258:13267   */\n      dup2\n        /* \"#utility.yul\":13252:13256   */\n      dup2\n        /* \"#utility.yul\":13248:13268   */\n      sub\n        /* \"#utility.yul\":13244:13245   */\n      0x00\n        /* \"#utility.yul\":13233:13242   */\n      dup4\n        /* \"#utility.yul\":13229:13246   */\n      add\n        /* \"#utility.yul\":13222:13269   */\n      mstore\n        /* \"#utility.yul\":13286:13417   */\n      tag_307\n        /* \"#utility.yul\":13412:13416   */\n      dup2\n        /* \"#utility.yul\":13286:13417   */\n      tag_157\n      jump\t// in\n    tag_307:\n        /* \"#utility.yul\":13278:13417   */\n      swap1\n      pop\n        /* \"#utility.yul\":13005:13424   */\n      swap2\n      swap1\n      pop\n      jump\t// out\n        /* \"#utility.yul\":13430:13610   */\n    tag_73:\n        /* \"#utility.yul\":13478:13555   */\n      0x4e487b7100000000000000000000000000000000000000000000000000000000\n        /* \"#utility.yul\":13475:13476   */\n      0x00\n        /* \"#utility.yul\":13468:13556   */\n      mstore\n        /* \"#utility.yul\":13575:13579   */\n      0x32\n        /* \"#utility.yul\":13572:13573   */\n      0x04\n        /* \"#utility.yul\":13565:13580   */\n      mstore\n        /* \"#utility.yul\":13599:13603   */\n      0x24\n        /* \"#utility.yul\":13596:13597   */\n      0x00\n        /* \"#utility.yul\":13589:13604   */\n      revert\n        /* \"#utility.yul\":13616:13796   */\n    tag_158:\n        /* \"#utility.yul\":13664:13741   */\n      0x4e487b7100000000000000000000000000000000000000000000000000000000\n        /* \"#utility.yul\":13661:13662   */\n      0x00\n        /* \"#utility.yul\":13654:13742   */\n      mstore\n        /* \"#utility.yul\":13761:13765   */\n      0x11\n        /* \"#utility.yul\":13758:13759   */\n      0x04\n        /* \"#utility.yul\":13751:13766   */\n      mstore\n        /* \"#utility.yul\":13785:13789   */\n      0x24\n        /* \"#utility.yul\":13782:13783   */\n      0x00\n        /* \"#utility.yul\":13775:13790   */\n      revert\n        /* \"#utility.yul\":13802:14212   */\n    tag_85:\n        /* \"#utility.yul\":13842:13849   */\n      0x00\n        /* \"#utility.yul\":13865:13885   */\n      tag_311\n        /* \"#utility.yul\":13883:13884   */\n      dup3\n        /* \"#utility.yul\":13865:13885   */\n      tag_126\n      jump\t// in\n    tag_311:\n        /* \"#utility.yul\":13860:13885   */\n      swap2\n      pop\n        /* \"#utility.yul\":13899:13919   */\n      tag_312\n        /* \"#utility.yul\":13917:13918   */\n      dup4\n        /* \"#utility.yul\":13899:13919   */\n      tag_126\n      jump\t// in\n    tag_312:\n        /* \"#utility.yul\":13894:13919   */\n      swap3\n      pop\n        /* \"#utility.yul\":13954:13955   */\n      dup3\n        /* \"#utility.yul\":13951:13952   */\n      dup3\n        /* \"#utility.yul\":13947:13956   */\n      mul\n        /* \"#utility.yul\":13976:14006   */\n      tag_313\n        /* \"#utility.yul\":13994:14005   */\n      dup2\n        /* \"#utility.yul\":13976:14006   */\n      tag_126\n      jump\t// in\n    tag_313:\n        /* \"#utility.yul\":13965:14006   */\n      swap2\n      pop\n        /* \"#utility.yul\":14155:14156   */\n      dup3\n        /* \"#utility.yul\":14146:14153   */\n      dup3\n        /* \"#utility.yul\":14142:14157   */\n      div\n        /* \"#utility.yul\":14139:14140   */\n      dup5\n        /* \"#utility.yul\":14136:14158   */\n      eq\n        /* \"#utility.yul\":14116:14117   */\n      dup4\n        /* \"#utility.yul\":14109:14118   */\n      iszero\n        /* \"#utility.yul\":14089:14172   */\n      or\n        /* \"#utility.yul\":14066:14205   */\n      tag_314\n      jumpi\n        /* \"#utility.yul\":14185:14203   */\n      tag_315\n      tag_158\n      jump\t// in\n    tag_315:\n        /* \"#utility.yul\":14066:14205   */\n    tag_314:\n        /* \"#utility.yul\":13850:14212   */\n      pop\n        /* \"#utility.yul\":13802:14212   */\n      swap3\n      swap2\n      pop\n      pop\n      jump\t// out\n        /* \"#utility.yul\":14218:14412   */\n    tag_102:\n        /* \"#utility.yul\":14258:14262   */\n      0x00\n        /* \"#utility.yul\":14278:14298   */\n      tag_317\n        /* \"#utility.yul\":14296:14297   */\n      dup3\n        /* \"#utility.yul\":14278:14298   */\n      tag_126\n      jump\t// in\n    tag_317:\n        /* \"#utility.yul\":14273:14298   */\n      swap2\n      pop\n        /* \"#utility.yul\":14312:14332   */\n      tag_318\n        /* \"#utility.yul\":14330:14331   */\n      dup4\n        /* \"#utility.yul\":14312:14332   */\n      tag_126\n      jump\t// in\n    tag_318:\n        /* \"#utility.yul\":14307:14332   */\n      swap3\n      pop\n        /* \"#utility.yul\":14356:14357   */\n      dup3\n        /* \"#utility.yul\":14353:14354   */\n      dup3\n        /* \"#utility.yul\":14349:14358   */\n      sub\n        /* \"#utility.yul\":14341:14358   */\n      swap1\n      pop\n        /* \"#utility.yul\":14380:14381   */\n      dup2\n        /* \"#utility.yul\":14374:14378   */\n      dup2\n        /* \"#utility.yul\":14371:14382   */\n      gt\n        /* \"#utility.yul\":14368:14405   */\n      iszero\n      tag_319\n      jumpi\n        /* \"#utility.yul\":14385:14403   */\n      tag_320\n      tag_158\n      jump\t// in\n    tag_320:\n        /* \"#utility.yul\":14368:14405   */\n    tag_319:\n        /* \"#utility.yul\":14218:14412   */\n      swap3\n      swap2\n      pop\n      pop\n      jump\t// out\n        /* \"#utility.yul\":14418:14598   */\n    tag_159:\n        /* \"#utility.yul\":14466:14543   */\n      0x4e487b7100000000000000000000000000000000000000000000000000000000\n        /* \"#utility.yul\":14463:14464   */\n      0x00\n        /* \"#utility.yul\":14456:14544   */\n      mstore\n        /* \"#utility.yul\":14563:14567   */\n      0x41\n        /* \"#utility.yul\":14560:14561   */\n      0x04\n        /* \"#utility.yul\":14553:14568   */\n      mstore\n        /* \"#utility.yul\":14587:14591   */\n      0x24\n        /* \"#utility.yul\":14584:14585   */\n      0x00\n        /* \"#utility.yul\":14577:14592   */\n      revert\n        /* \"#utility.yul\":14604:14745   */\n    tag_160:\n        /* \"#utility.yul\":14653:14657   */\n      0x00\n        /* \"#utility.yul\":14676:14679   */\n      dup2\n        /* \"#utility.yul\":14668:14679   */\n      swap1\n      pop\n        /* \"#utility.yul\":14699:14702   */\n      dup2\n        /* \"#utility.yul\":14696:14697   */\n      0x00\n        /* \"#utility.yul\":14689:14703   */\n      mstore\n        /* \"#utility.yul\":14733:14737   */\n      0x20\n        /* \"#utility.yul\":14730:14731   */\n      0x00\n        /* \"#utility.yul\":14720:14738   */\n      keccak256\n        /* \"#utility.yul\":14712:14738   */\n      swap1\n      pop\n        /* \"#utility.yul\":14604:14745   */\n      swap2\n      swap1\n      pop\n      jump\t// out\n        /* \"#utility.yul\":14751:14844   */\n    tag_161:\n        /* \"#utility.yul\":14788:14794   */\n      0x00\n        /* \"#utility.yul\":14835:14837   */\n      0x20\n        /* \"#utility.yul\":14830:14832   */\n      0x1f\n        /* \"#utility.yul\":14823:14828   */\n      dup4\n        /* \"#utility.yul\":14819:14833   */\n      add\n        /* \"#utility.yul\":14815:14838   */\n      div\n        /* \"#utility.yul\":14805:14838   */\n      swap1\n      pop\n        /* \"#utility.yul\":14751:14844   */\n      swap2\n      swap1\n      pop\n      jump\t// out\n        /* \"#utility.yul\":14850:14957   */\n    tag_162:\n        /* \"#utility.yul\":14894:14902   */\n      0x00\n        /* \"#utility.yul\":14944:14949   */\n      dup3\n        /* \"#utility.yul\":14938:14942   */\n      dup3\n        /* \"#utility.yul\":14934:14950   */\n      shl\n        /* \"#utility.yul\":14913:14950   */\n      swap1\n      pop\n        /* \"#utility.yul\":14850:14957   */\n      swap3\n      swap2\n      pop\n      pop\n      jump\t// out\n        /* \"#utility.yul\":14963:15356   */\n    tag_163:\n        /* \"#utility.yul\":15032:15038   */\n      0x00\n        /* \"#utility.yul\":15082:15083   */\n      0x08\n        /* \"#utility.yul\":15070:15080   */\n      dup4\n        /* \"#utility.yul\":15066:15084   */\n      mul\n        /* \"#utility.yul\":15105:15202   */\n      tag_326\n        /* \"#utility.yul\":15135:15201   */\n      0xffffffffffffffffffffffffffffffffffffffffffffffffffffffffffffffff\n        /* \"#utility.yul\":15124:15133   */\n      dup3\n        /* \"#utility.yul\":15105:15202   */\n      tag_162\n      jump\t// in\n    tag_326:\n        /* \"#utility.yul\":15223:15262   */\n      tag_327\n        /* \"#utility.yul\":15253:15261   */\n      dup7\n        /* \"#utility.yul\":15242:15251   */\n      dup4\n        /* \"#utility.yul\":15223:15262   */\n      tag_162\n      jump\t// in\n    tag_327:\n        /* \"#utility.yul\":15211:15262   */\n      swap6\n      pop\n        /* \"#utility.yul\":15295:15299   */\n      dup1\n        /* \"#utility.yul\":15291:15300   */\n      not\n        /* \"#utility.yul\":15284:15289   */\n      dup5\n        /* \"#utility.yul\":15280:15301   */\n      and\n        /* \"#utility.yul\":15271:15301   */\n      swap4\n      pop\n        /* \"#utility.yul\":15344:15348   */\n      dup1\n        /* \"#utility.yul\":15334:15342   */\n      dup7\n        /* \"#utility.yul\":15330:15349   */\n      and\n        /* \"#utility.yul\":15323:15328   */\n      dup5\n        /* \"#utility.yul\":15320:15350   */\n      or\n        /* \"#utility.yul\":15310:15350   */\n      swap3\n      pop\n        /* \"#utility.yul\":15039:15356   */\n      pop\n      pop\n        /* \"#utility.yul\":14963:15356   */\n      swap4\n      swap3\n      pop\n      pop\n      pop\n      jump\t// out\n        /* \"#utility.yul\":15362:15422   */\n    tag_164:\n        /* \"#utility.yul\":15390:15393   */\n      0x00\n        /* \"#utility.yul\":15411:15416   */\n      dup2\n        /* \"#utility.yul\":15404:15416   */\n      swap1\n      pop\n        /* \"#utility.yul\":15362:15422   */\n      swap2\n      swap1\n      pop\n      jump\t// out\n        /* \"#utility.yul\":15428:15570   */\n    tag_165:\n        /* \"#utility.yul\":15478:15487   */\n      0x00\n        /* \"#utility.yul\":15511:15564   */\n      tag_330\n        /* \"#utility.yul\":15529:15563   */\n      tag_331\n        /* \"#utility.yul\":15538:15562   */\n      tag_332\n        /* \"#utility.yul\":15556:15561   */\n      dup5\n        /* \"#utility.yul\":15538:15562   */\n      tag_126\n      jump\t// in\n    tag_332:\n        /* \"#utility.yul\":15529:15563   */\n      tag_164\n      jump\t// in\n    tag_331:\n        /* \"#utility.yul\":15511:15564   */\n      tag_126\n      jump\t// in\n    tag_330:\n        /* \"#utility.yul\":15498:15564   */\n      swap1\n      pop\n        /* \"#utility.yul\":15428:15570   */\n      swap2\n      swap1\n      pop\n      jump\t// out\n        /* \"#utility.yul\":15576:15651   */\n    tag_166:\n        /* \"#utility.yul\":15619:15622   */\n      0x00\n        /* \"#utility.yul\":15640:15645   */\n      dup2\n        /* \"#utility.yul\":15633:15645   */\n      swap1\n      pop\n        /* \"#utility.yul\":15576:15651   */\n      swap2\n      swap1\n      pop\n      jump\t// out\n        /* \"#utility.yul\":15657:15926   */\n    tag_167:\n        /* \"#utility.yul\":15767:15806   */\n      tag_335\n        /* \"#utility.yul\":15798:15805   */\n      dup4\n        /* \"#utility.yul\":15767:15806   */\n      tag_165\n      jump\t// in\n    tag_335:\n        /* \"#utility.yul\":15828:15919   */\n      tag_336\n        /* \"#utility.yul\":15877:15918   */\n      tag_337\n        /* \"#utility.yul\":15901:15917   */\n      dup3\n        /* \"#utility.yul\":15877:15918   */\n      tag_166\n      jump\t// in\n    tag_337:\n        /* \"#utility.yul\":15869:15875   */\n      dup5\n        /* \"#utility.yul\":15862:15866   */\n      dup5\n        /* \"#utility.yul\":15856:15867   */\n      sload\n        /* \"#utility.yul\":15828:15919   */\n      tag_163\n      jump\t// in\n    tag_336:\n        /* \"#utility.yul\":15822:15826   */\n      dup3\n        /* \"#utility.yul\":15815:15920   */\n      sstore\n        /* \"#utility.yul\":15733:15926   */\n      pop\n        /* \"#utility.yul\":15657:15926   */\n      pop\n      pop\n      pop\n      jump\t// out\n        /* \"#utility.yul\":15932:16005   */\n    tag_168:\n        /* \"#utility.yul\":15977:15980   */\n      0x00\n        /* \"#utility.yul\":15932:16005   */\n      swap1\n      jump\t// out\n        /* \"#utility.yul\":16011:16200   */\n    tag_169:\n        /* \"#utility.yul\":16088:16120   */\n      tag_340\n      tag_168\n      jump\t// in\n    tag_340:\n        /* \"#utility.yul\":16129:16194   */\n      tag_341\n        /* \"#utility.yul\":16187:16193   */\n      dup2\n        /* \"#utility.yul\":16179:16185   */\n      dup5\n        /* \"#utility.yul\":16173:16177   */\n      dup5\n        /* \"#utility.yul\":16129:16194   */\n      tag_167\n      jump\t// in\n    tag_341:\n        /* \"#utility.yul\":16064:16200   */\n      pop\n        /* \"#utility.yul\":16011:16200   */\n      pop\n      pop\n      jump\t// out\n        /* \"#utility.yul\":16206:16392   */\n    tag_170:\n        /* \"#utility.yul\":16266:16386   */\n    tag_343:\n        /* \"#utility.yul\":16283:16286   */\n      dup2\n        /* \"#utility.yul\":16276:16281   */\n      dup2\n        /* \"#utility.yul\":16273:16287   */\n      lt\n        /* \"#utility.yul\":16266:16386   */\n      iszero\n      tag_345\n      jumpi\n        /* \"#utility.yul\":16337:16376   */\n      tag_346\n        /* \"#utility.yul\":16374:16375   */\n      0x00\n        /* \"#utility.yul\":16367:16372   */\n      dup3\n        /* \"#utility.yul\":16337:16376   */\n      tag_169\n      jump\t// in\n    tag_346:\n        /* \"#utility.yul\":16310:16311   */\n      0x01\n        /* \"#utility.yul\":16303:16308   */\n      dup2\n        /* \"#utility.yul\":16299:16312   */\n      add\n        /* \"#utility.yul\":16290:16312   */\n      swap1\n      pop\n        /* \"#utility.yul\":16266:16386   */\n      jump(tag_343)\n    tag_345:\n        /* \"#utility.yul\":16206:16392   */\n      pop\n      pop\n      jump\t// out\n        /* \"#utility.yul\":16398:16941   */\n    tag_171:\n        /* \"#utility.yul\":16499:16501   */\n      0x1f\n        /* \"#utility.yul\":16494:16497   */\n      dup3\n        /* \"#utility.yul\":16491:16502   */\n      gt\n        /* \"#utility.yul\":16488:16934   */\n      iszero\n      tag_348\n      jumpi\n        /* \"#utility.yul\":16533:16571   */\n      tag_349\n        /* \"#utility.yul\":16565:16570   */\n      dup2\n        /* \"#utility.yul\":16533:16571   */\n      tag_160\n      jump\t// in\n    tag_349:\n        /* \"#utility.yul\":16617:16646   */\n      tag_350\n        /* \"#utility.yul\":16635:16645   */\n      dup5\n        /* \"#utility.yul\":16617:16646   */\n      tag_161\n      jump\t// in\n    tag_350:\n        /* \"#utility.yul\":16607:16615   */\n      dup2\n        /* \"#utility.yul\":16603:16647   */\n      add\n        /* \"#utility.yul\":16800:16802   */\n      0x20\n        /* \"#utility.yul\":16788:16798   */\n      dup6\n        /* \"#utility.yul\":16785:16803   */\n      lt\n        /* \"#utility.yul\":16782:16831   */\n      iszero\n      tag_351\n      jumpi\n        /* \"#utility.yul\":16821:16829   */\n      dup2\n        /* \"#utility.yul\":16806:16829   */\n      swap1\n      pop\n        /* \"#utility.yul\":16782:16831   */\n    tag_351:\n        /* \"#utility.yul\":16844:16924   */\n      tag_352\n        /* \"#utility.yul\":16900:16922   */\n      tag_353\n        /* \"#utility.yul\":16918:16921   */\n      dup6\n        /* \"#utility.yul\":16900:16922   */\n      tag_161\n      jump\t// in\n    tag_353:\n        /* \"#utility.yul\":16890:16898   */\n      dup4\n        /* \"#utility.yul\":16886:16923   */\n      add\n        /* \"#utility.yul\":16873:16884   */\n      dup3\n        /* \"#utility.yul\":16844:16924   */\n      tag_170\n      jump\t// in\n    tag_352:\n        /* \"#utility.yul\":16503:16934   */\n      pop\n      pop\n        /* \"#utility.yul\":16488:16934   */\n    tag_348:\n        /* \"#utility.yul\":16398:16941   */\n      pop\n      pop\n      pop\n      jump\t// out\n        /* \"#utility.yul\":16947:17064   */\n    tag_172:\n        /* \"#utility.yul\":17001:17009   */\n      0x00\n        /* \"#utility.yul\":17051:17056   */\n      dup3\n        /* \"#utility.yul\":17045:17049   */\n      dup3\n        /* \"#utility.yul\":17041:17057   */\n      shr\n        /* \"#utility.yul\":17020:17057   */\n      swap1\n      pop\n        /* \"#utility.yul\":16947:17064   */\n      swap3\n      swap2\n      pop\n      pop\n      jump\t// out\n        /* \"#utility.yul\":17070:17239   */\n    tag_173:\n        /* \"#utility.yul\":17114:17120   */\n      0x00\n        /* \"#utility.yul\":17147:17198   */\n      tag_356\n        /* \"#utility.yul\":17195:17196   */\n      0x00\n        /* \"#utility.yul\":17191:17197   */\n      not\n        /* \"#utility.yul\":17183:17188   */\n      dup5\n        /* \"#utility.yul\":17180:17181   */\n      0x08\n        /* \"#utility.yul\":17176:17189   */\n      mul\n        /* \"#utility.yul\":17147:17198   */\n      tag_172\n      jump\t// in\n    tag_356:\n        /* \"#utility.yul\":17143:17199   */\n      not\n        /* \"#utility.yul\":17228:17232   */\n      dup1\n        /* \"#utility.yul\":17222:17226   */\n      dup4\n        /* \"#utility.yul\":17218:17233   */\n      and\n        /* \"#utility.yul\":17208:17233   */\n      swap2\n      pop\n        /* \"#utility.yul\":17121:17239   */\n      pop\n        /* \"#utility.yul\":17070:17239   */\n      swap3\n      swap2\n      pop\n      pop\n      jump\t// out\n        /* \"#utility.yul\":17244:17539   */\n    tag_174:\n        /* \"#utility.yul\":17320:17324   */\n      0x00\n        /* \"#utility.yul\":17466:17495   */\n      tag_358\n        /* \"#utility.yul\":17491:17494   */\n      dup4\n        /* \"#utility.yul\":17485:17489   */\n      dup4\n        /* \"#utility.yul\":17466:17495   */\n      tag_173\n      jump\t// in\n    tag_358:\n        /* \"#utility.yul\":17458:17495   */\n      swap2\n      pop\n        /* \"#utility.yul\":17528:17531   */\n      dup3\n        /* \"#utility.yul\":17525:17526   */\n      0x02\n        /* \"#utility.yul\":17521:17532   */\n      mul\n        /* \"#utility.yul\":17515:17519   */\n      dup3\n        /* \"#utility.yul\":17512:17533   */\n      or\n        /* \"#utility.yul\":17504:17533   */\n      swap1\n      pop\n        /* \"#utility.yul\":17244:17539   */\n      swap3\n      swap2\n      pop\n      pop\n      jump\t// out\n        /* \"#utility.yul\":17544:18939   */\n    tag_105:\n        /* \"#utility.yul\":17661:17698   */\n      tag_360\n        /* \"#utility.yul\":17694:17697   */\n      dup3\n        /* \"#utility.yul\":17661:17698   */\n      tag_130\n      jump\t// in\n    tag_360:\n        /* \"#utility.yul\":17763:17781   */\n      0xffffffffffffffff\n        /* \"#utility.yul\":17755:17761   */\n      dup2\n        /* \"#utility.yul\":17752:17782   */\n      gt\n        /* \"#utility.yul\":17749:17805   */\n      iszero\n      tag_361\n      jumpi\n        /* \"#utility.yul\":17785:17803   */\n      tag_362\n      tag_159\n      jump\t// in\n    tag_362:\n        /* \"#utility.yul\":17749:17805   */\n    tag_361:\n        /* \"#utility.yul\":17829:17867   */\n      tag_363\n        /* \"#utility.yul\":17861:17865   */\n      dup3\n        /* \"#utility.yul\":17855:17866   */\n      sload\n        /* \"#utility.yul\":17829:17867   */\n      tag_53\n      jump\t// in\n    tag_363:\n        /* \"#utility.yul\":17914:17981   */\n      tag_364\n        /* \"#utility.yul\":17974:17980   */\n      dup3\n        /* \"#utility.yul\":17966:17972   */\n      dup3\n        /* \"#utility.yul\":17960:17964   */\n      dup6\n        /* \"#utility.yul\":17914:17981   */\n      tag_171\n      jump\t// in\n    tag_364:\n        /* \"#utility.yul\":18008:18009   */\n      0x00\n        /* \"#utility.yul\":18032:18036   */\n      0x20\n        /* \"#utility.yul\":18019:18036   */\n      swap1\n      pop\n        /* \"#utility.yul\":18064:18066   */\n      0x1f\n        /* \"#utility.yul\":18056:18062   */\n      dup4\n        /* \"#utility.yul\":18053:18067   */\n      gt\n        /* \"#utility.yul\":18081:18082   */\n      0x01\n        /* \"#utility.yul\":18076:18694   */\n      dup2\n      eq\n      tag_366\n      jumpi\n        /* \"#utility.yul\":18738:18739   */\n      0x00\n        /* \"#utility.yul\":18755:18761   */\n      dup5\n        /* \"#utility.yul\":18752:18829   */\n      iszero\n      tag_367\n      jumpi\n        /* \"#utility.yul\":18804:18813   */\n      dup3\n        /* \"#utility.yul\":18799:18802   */\n      dup8\n        /* \"#utility.yul\":18795:18814   */\n      add\n        /* \"#utility.yul\":18789:18815   */\n      mload\n        /* \"#utility.yul\":18780:18815   */\n      swap1\n      pop\n        /* \"#utility.yul\":18752:18829   */\n    tag_367:\n        /* \"#utility.yul\":18855:18922   */\n      tag_368\n        /* \"#utility.yul\":18915:18921   */\n      dup6\n        /* \"#utility.yul\":18908:18913   */\n      dup3\n        /* \"#utility.yul\":18855:18922   */\n      tag_174\n      jump\t// in\n    tag_368:\n        /* \"#utility.yul\":18849:18853   */\n      dup7\n        /* \"#utility.yul\":18842:18923   */\n      sstore\n        /* \"#utility.yul\":18711:18933   */\n      pop\n        /* \"#utility.yul\":18046:18933   */\n      jump(tag_365)\n        /* \"#utility.yul\":18076:18694   */\n    tag_366:\n        /* \"#utility.yul\":18128:18132   */\n      0x1f\n        /* \"#utility.yul\":18124:18133   */\n      not\n        /* \"#utility.yul\":18116:18122   */\n      dup5\n        /* \"#utility.yul\":18112:18134   */\n      and\n        /* \"#utility.yul\":18162:18199   */\n      tag_369\n        /* \"#utility.yul\":18194:18198   */\n      dup7\n        /* \"#utility.yul\":18162:18199   */\n      tag_160\n      jump\t// in\n    tag_369:\n        /* \"#utility.yul\":18221:18222   */\n      0x00\n        /* \"#utility.yul\":18235:18443   */\n    tag_370:\n        /* \"#utility.yul\":18249:18256   */\n      dup3\n        /* \"#utility.yul\":18246:18247   */\n      dup2\n        /* \"#utility.yul\":18243:18257   */\n      lt\n        /* \"#utility.yul\":18235:18443   */\n      iszero\n      tag_372\n      jumpi\n        /* \"#utility.yul\":18328:18337   */\n      dup5\n        /* \"#utility.yul\":18323:18326   */\n      dup10\n        /* \"#utility.yul\":18319:18338   */\n      add\n        /* \"#utility.yul\":18313:18339   */\n      mload\n        /* \"#utility.yul\":18305:18311   */\n      dup3\n        /* \"#utility.yul\":18298:18340   */\n      sstore\n        /* \"#utility.yul\":18379:18380   */\n      0x01\n        /* \"#utility.yul\":18371:18377   */\n      dup3\n        /* \"#utility.yul\":18367:18381   */\n      add\n        /* \"#utility.yul\":18357:18381   */\n      swap2\n      pop\n        /* \"#utility.yul\":18426:18428   */\n      0x20\n        /* \"#utility.yul\":18415:18424   */\n      dup6\n        /* \"#utility.yul\":18411:18429   */\n      add\n        /* \"#utility.yul\":18398:18429   */\n      swap5\n      pop\n        /* \"#utility.yul\":18272:18276   */\n      0x20\n        /* \"#utility.yul\":18269:18270   */\n      dup2\n        /* \"#utility.yul\":18265:18277   */\n      add\n        /* \"#utility.yul\":18260:18277   */\n      swap1\n      pop\n        /* \"#utility.yul\":18235:18443   */\n      jump(tag_370)\n    tag_372:\n        /* \"#utility.yul\":18471:18477   */\n      dup7\n        /* \"#utility.yul\":18462:18469   */\n      dup4\n        /* \"#utility.yul\":18459:18478   */\n      lt\n        /* \"#utility.yul\":18456:18635   */\n      iszero\n      tag_373\n      jumpi\n        /* \"#utility.yul\":18529:18538   */\n      dup5\n        /* \"#utility.yul\":18524:18527   */\n      dup10\n        /* \"#utility.yul\":18520:18539   */\n      add\n        /* \"#utility.yul\":18514:18540   */\n      mload\n        /* \"#utility.yul\":18572:18620   */\n      tag_374\n        /* \"#utility.yul\":18614:18618   */\n      0x1f\n        /* \"#utility.yul\":18606:18612   */\n      dup10\n        /* \"#utility.yul\":18602:18619   */\n      and\n        /* \"#utility.yul\":18591:18600   */\n      dup3\n        /* \"#utility.yul\":18572:18620   */\n      tag_173\n      jump\t// in\n    tag_374:\n        /* \"#utility.yul\":18564:18570   */\n      dup4\n        /* \"#utility.yul\":18557:18621   */\n      sstore\n        /* \"#utility.yul\":18479:18635   */\n      pop\n        /* \"#utility.yul\":18456:18635   */\n    tag_373:\n        /* \"#utility.yul\":18681:18682   */\n      0x01\n        /* \"#utility.yul\":18677:18678   */\n      0x02\n        /* \"#utility.yul\":18669:18675   */\n      dup9\n        /* \"#utility.yul\":18665:18679   */\n      mul\n        /* \"#utility.yul\":18661:18683   */\n      add\n        /* \"#utility.yul\":18655:18659   */\n      dup9\n        /* \"#utility.yul\":18648:18684   */\n      sstore\n        /* \"#utility.yul\":18083:18694   */\n      pop\n      pop\n      pop\n        /* \"#utility.yul\":18046:18933   */\n    tag_365:\n      pop\n        /* \"#utility.yul\":17636:18939   */\n      pop\n      pop\n      pop\n        /* \"#utility.yul\":17544:18939   */\n      pop\n      pop\n      jump\t// out\n        /* \"#utility.yul\":18945:19170   */\n    tag_175:\n        /* \"#utility.yul\":19085:19119   */\n      0x4f6e6c7920746865206f776e65722063616e20706572666f726d207468697320\n        /* \"#utility.yul\":19081:19082   */\n      0x00\n        /* \"#utility.yul\":19073:19079   */\n      dup3\n        /* \"#utility.yul\":19069:19083   */\n      add\n        /* \"#utility.yul\":19062:19120   */\n      mstore\n        /* \"#utility.yul\":19154:19162   */\n      0x616374696f6e0000000000000000000000000000000000000000000000000000\n        /* \"#utility.yul\":19149:19151   */\n      0x20\n        /* \"#utility.yul\":19141:19147   */\n      dup3\n        /* \"#utility.yul\":19137:19152   */\n      add\n        /* \"#utility.yul\":19130:19163   */\n      mstore\n        /* \"#utility.yul\":18945:19170   */\n      pop\n      jump\t// out\n        /* \"#utility.yul\":19176:19542   */\n    tag_176:\n        /* \"#utility.yul\":19318:19321   */\n      0x00\n        /* \"#utility.yul\":19339:19406   */\n      tag_377\n        /* \"#utility.yul\":19403:19405   */\n      0x26\n        /* \"#utility.yul\":19398:19401   */\n      dup4\n        /* \"#utility.yul\":19339:19406   */\n      tag_131\n      jump\t// in\n    tag_377:\n        /* \"#utility.yul\":19332:19406   */\n      swap2\n      pop\n        /* \"#utility.yul\":19415:19508   */\n      tag_378\n        /* \"#utility.yul\":19504:19507   */\n      dup3\n        /* \"#utility.yul\":19415:19508   */\n      tag_175\n      jump\t// in\n    tag_378:\n        /* \"#utility.yul\":19533:19535   */\n      0x40\n        /* \"#utility.yul\":19528:19531   */\n      dup3\n        /* \"#utility.yul\":19524:19536   */\n      add\n        /* \"#utility.yul\":19517:19536   */\n      swap1\n      pop\n        /* \"#utility.yul\":19176:19542   */\n      swap2\n      swap1\n      pop\n      jump\t// out\n        /* \"#utility.yul\":19548:19967   */\n    tag_115:\n        /* \"#utility.yul\":19714:19718   */\n      0x00\n        /* \"#utility.yul\":19752:19754   */\n      0x20\n        /* \"#utility.yul\":19741:19750   */\n      dup3\n        /* \"#utility.yul\":19737:19755   */\n      add\n        /* \"#utility.yul\":19729:19755   */\n      swap1\n      pop\n        /* \"#utility.yul\":19801:19810   */\n      dup2\n        /* \"#utility.yul\":19795:19799   */\n      dup2\n        /* \"#utility.yul\":19791:19811   */\n      sub\n        /* \"#utility.yul\":19787:19788   */\n      0x00\n        /* \"#utility.yul\":19776:19785   */\n      dup4\n        /* \"#utility.yul\":19772:19789   */\n      add\n        /* \"#utility.yul\":19765:19812   */\n      mstore\n        /* \"#utility.yul\":19829:19960   */\n      tag_380\n        /* \"#utility.yul\":19955:19959   */\n      dup2\n        /* \"#utility.yul\":19829:19960   */\n      tag_176\n      jump\t// in\n    tag_380:\n        /* \"#utility.yul\":19821:19960   */\n      swap1\n      pop\n        /* \"#utility.yul\":19548:19967   */\n      swap2\n      swap1\n      pop\n      jump\t// out\n\n    auxdata: 0xa2646970667358221220a7578e95d71799c88ceec5ebd5b5ba4de155ac86424b3339b086c3339395783964736f6c63430008120033\n}\n",
				"bytecode": {
					"linkReferences": {},
					"object": "608060405234801561001057600080fd5b50336000806101000a81548173ffffffffffffffffffffffffffffffffffffffff021916908373ffffffffffffffffffffffffffffffffffffffff1602179055506040518060400160405280600081526020016001808111156100765761007561011b565b5b815250600160008060009054906101000a900473ffffffffffffffffffffffffffffffffffffffff1673ffffffffffffffffffffffffffffffffffffffff1673ffffffffffffffffffffffffffffffffffffffff1681526020019081526020016000206000820151816000015560208201518160010160006101000a81548160ff0219169083600181111561010e5761010d61011b565b5b021790555090505061014a565b7f4e487b7100000000000000000000000000000000000000000000000000000000600052602160045260246000fd5b6116d5806101596000396000f3fe6080604052600436106100705760003560e01c806370876c981161004e57806370876c981461011c5780638da5cb5b14610138578063a211f1ed14610163578063a87430ba1461018c57610070565b80633d527883146100755780633dd26a93146100b4578063687527c6146100df575b600080fd5b34801561008157600080fd5b5061009c60048036038101906100979190610cbe565b6101ca565b6040516100ab93929190610d9d565b60405180910390f35b3480156100c057600080fd5b506100c9610299565b6040516100d69190610f46565b60405180910390f35b3480156100eb57600080fd5b5061010660048036038101906101019190610f68565b6103fc565b6040516101139190610f95565b60405180910390f35b61013660048036038101906101319190610fb0565b61052e565b005b34801561014457600080fd5b5061014d610a1d565b60405161015a9190610fff565b60405180910390f35b34801561016f57600080fd5b5061018a6004803603810190610185919061107f565b610a41565b005b34801561019857600080fd5b506101b360048036038101906101ae91906110f3565b610bef565b6040516101c1929190611197565b60405180910390f35b600260205281600052604060002081815481106101e657600080fd5b906000526020600020906003020160009150915050806000015490806001015490806002018054610216906111ef565b80601f0160208091040260200160405190810160405280929190818152602001828054610242906111ef565b801561028f5780601f106102645761010080835404028352916020019161028f565b820191906000526020600020905b81548152906001019060200180831161027257829003601f168201915b5050505050905083565b6060600260008060009054906101000a900473ffffffffffffffffffffffffffffffffffffffff1673ffffffffffffffffffffffffffffffffffffffff1673ffffffffffffffffffffffffffffffffffffffff168152602001908152602001600020805480602002602001604051908101604052809291908181526020016000905b828210156103f357838290600052602060002090600302016040518060600160405290816000820154815260200160018201548152602001600282018054610362906111ef565b80601f016020809104026020016040519081016040528092919081815260200182805461038e906111ef565b80156103db5780601f106103b0576101008083540402835291602001916103db565b820191906000526020600020905b8154815290600101906020018083116103be57829003601f168201915b5050505050815250508152602001906001019061031b565b50505050905090565b6000600260008060009054906101000a900473ffffffffffffffffffffffffffffffffffffffff1673ffffffffffffffffffffffffffffffffffffffff1673ffffffffffffffffffffffffffffffffffffffff1681526020019081526020016000208054905082106104a3576040517f08c379a000000000000000000000000000000000000000000000000000000000815260040161049a9061126c565b60405180910390fd5b600260008060009054906101000a900473ffffffffffffffffffffffffffffffffffffffff1673ffffffffffffffffffffffffffffffffffffffff1673ffffffffffffffffffffffffffffffffffffffff16815260200190815260200160002082815481106105155761051461128c565b5b9060005260206000209060030201600001549050919050565b600260008060009054906101000a900473ffffffffffffffffffffffffffffffffffffffff1673ffffffffffffffffffffffffffffffffffffffff1673ffffffffffffffffffffffffffffffffffffffff16815260200190815260200160002081815481106105a05761059f61128c565b5b9060005260206000209060030201600001548211156105be57600080fd5b600082116105cb57600080fd5b6000600260008060009054906101000a900473ffffffffffffffffffffffffffffffffffffffff1673ffffffffffffffffffffffffffffffffffffffff1673ffffffffffffffffffffffffffffffffffffffff168152602001908152602001600020828154811061063f5761063e61128c565b5b9060005260206000209060030201600101548361065c91906112ea565b90508034101561066b57600080fd5b60006040518060600160405280858152602001600260008060009054906101000a900473ffffffffffffffffffffffffffffffffffffffff1673ffffffffffffffffffffffffffffffffffffffff1673ffffffffffffffffffffffffffffffffffffffff1681526020019081526020016000206000815481106106f1576106f061128c565b5b9060005260206000209060030201600101548152602001600260008060009054906101000a900473ffffffffffffffffffffffffffffffffffffffff1673ffffffffffffffffffffffffffffffffffffffff1673ffffffffffffffffffffffffffffffffffffffff16815260200190815260200160002060008154811061077b5761077a61128c565b5b90600052602060002090600302016002018054610797906111ef565b80601f01602080910402602001604051908101604052809291908181526020018280546107c3906111ef565b80156108105780601f106107e557610100808354040283529160200191610810565b820191906000526020600020905b8154815290600101906020018083116107f357829003601f168201915b5050505050815250905083600260008060009054906101000a900473ffffffffffffffffffffffffffffffffffffffff1673ffffffffffffffffffffffffffffffffffffffff1673ffffffffffffffffffffffffffffffffffffffff168152602001908152602001600020848154811061088d5761088c61128c565b5b906000526020600020906003020160000160008282546108ad919061132c565b92505081905550600260003373ffffffffffffffffffffffffffffffffffffffff1673ffffffffffffffffffffffffffffffffffffffff16815260200190815260200160002081908060018154018082558091505060019003906000526020600020906003020160009091909190915060008201518160000155602082015181600101556040820151816002019081610946919061153b565b505050813411156109aa576000823461095f919061132c565b90503373ffffffffffffffffffffffffffffffffffffffff166108fc829081150290604051600060405180830381858888f193505050501580156109a7573d6000803e3d6000fd5b50505b600047905060008054906101000a900473ffffffffffffffffffffffffffffffffffffffff1673ffffffffffffffffffffffffffffffffffffffff166108fc829081150290604051600060405180830381858888f19350505050158015610a15573d6000803e3d6000fd5b505050505050565b60008054906101000a900473ffffffffffffffffffffffffffffffffffffffff1681565b60008054906101000a900473ffffffffffffffffffffffffffffffffffffffff1673ffffffffffffffffffffffffffffffffffffffff163373ffffffffffffffffffffffffffffffffffffffff1614610acf576040517f08c379a0000000000000000000000000000000000000000000000000000000008152600401610ac69061167f565b60405180910390fd5b6000604051806060016040528086815260200185815260200184848080601f016020809104026020016040519081016040528093929190818152602001838380828437600081840152601f19601f820116905080830192505050505050508152509050600260008060009054906101000a900473ffffffffffffffffffffffffffffffffffffffff1673ffffffffffffffffffffffffffffffffffffffff1673ffffffffffffffffffffffffffffffffffffffff16815260200190815260200160002081908060018154018082558091505060019003906000526020600020906003020160009091909190915060008201518160000155602082015181600101556040820151816002019081610be5919061153b565b5050505050505050565b60016020528060005260406000206000915090508060000154908060010160009054906101000a900460ff16905082565b600080fd5b600080fd5b600073ffffffffffffffffffffffffffffffffffffffff82169050919050565b6000610c5582610c2a565b9050919050565b610c6581610c4a565b8114610c7057600080fd5b50565b600081359050610c8281610c5c565b92915050565b6000819050919050565b610c9b81610c88565b8114610ca657600080fd5b50565b600081359050610cb881610c92565b92915050565b60008060408385031215610cd557610cd4610c20565b5b6000610ce385828601610c73565b9250506020610cf485828601610ca9565b9150509250929050565b610d0781610c88565b82525050565b600081519050919050565b600082825260208201905092915050565b60005b83811015610d47578082015181840152602081019050610d2c565b60008484015250505050565b6000601f19601f8301169050919050565b6000610d6f82610d0d565b610d798185610d18565b9350610d89818560208601610d29565b610d9281610d53565b840191505092915050565b6000606082019050610db26000830186610cfe565b610dbf6020830185610cfe565b8181036040830152610dd18184610d64565b9050949350505050565b600081519050919050565b600082825260208201905092915050565b6000819050602082019050919050565b610e1081610c88565b82525050565b600082825260208201905092915050565b6000610e3282610d0d565b610e3c8185610e16565b9350610e4c818560208601610d29565b610e5581610d53565b840191505092915050565b6000606083016000830151610e786000860182610e07565b506020830151610e8b6020860182610e07565b5060408301518482036040860152610ea38282610e27565b9150508091505092915050565b6000610ebc8383610e60565b905092915050565b6000602082019050919050565b6000610edc82610ddb565b610ee68185610de6565b935083602082028501610ef885610df7565b8060005b85811015610f345784840389528151610f158582610eb0565b9450610f2083610ec4565b925060208a01995050600181019050610efc565b50829750879550505050505092915050565b60006020820190508181036000830152610f608184610ed1565b905092915050565b600060208284031215610f7e57610f7d610c20565b5b6000610f8c84828501610ca9565b91505092915050565b6000602082019050610faa6000830184610cfe565b92915050565b60008060408385031215610fc757610fc6610c20565b5b6000610fd585828601610ca9565b9250506020610fe685828601610ca9565b9150509250929050565b610ff981610c4a565b82525050565b60006020820190506110146000830184610ff0565b92915050565b600080fd5b600080fd5b600080fd5b60008083601f84011261103f5761103e61101a565b5b8235905067ffffffffffffffff81111561105c5761105b61101f565b5b60208301915083600182028301111561107857611077611024565b5b9250929050565b6000806000806060858703121561109957611098610c20565b5b60006110a787828801610ca9565b94505060206110b887828801610ca9565b935050604085013567ffffffffffffffff8111156110d9576110d8610c25565b5b6110e587828801611029565b925092505092959194509250565b60006020828403121561110957611108610c20565b5b600061111784828501610c73565b91505092915050565b7f4e487b7100000000000000000000000000000000000000000000000000000000600052602160045260246000fd5b600281106111605761115f611120565b5b50565b60008190506111718261114f565b919050565b600061118182611163565b9050919050565b61119181611176565b82525050565b60006040820190506111ac6000830185610cfe565b6111b96020830184611188565b9392505050565b7f4e487b7100000000000000000000000000000000000000000000000000000000600052602260045260246000fd5b6000600282049050600182168061120757607f821691505b60208210810361121a576112196111c0565b5b50919050565b7f496e76616c69642070726f647563742049440000000000000000000000000000600082015250565b6000611256601283610d18565b915061126182611220565b602082019050919050565b6000602082019050818103600083015261128581611249565b9050919050565b7f4e487b7100000000000000000000000000000000000000000000000000000000600052603260045260246000fd5b7f4e487b7100000000000000000000000000000000000000000000000000000000600052601160045260246000fd5b60006112f582610c88565b915061130083610c88565b925082820261130e81610c88565b91508282048414831517611325576113246112bb565b5b5092915050565b600061133782610c88565b915061134283610c88565b925082820390508181111561135a576113596112bb565b5b92915050565b7f4e487b7100000000000000000000000000000000000000000000000000000000600052604160045260246000fd5b60008190508160005260206000209050919050565b60006020601f8301049050919050565b600082821b905092915050565b6000600883026113f17fffffffffffffffffffffffffffffffffffffffffffffffffffffffffffffffff826113b4565b6113fb86836113b4565b95508019841693508086168417925050509392505050565b6000819050919050565b600061143861143361142e84610c88565b611413565b610c88565b9050919050565b6000819050919050565b6114528361141d565b61146661145e8261143f565b8484546113c1565b825550505050565b600090565b61147b61146e565b611486818484611449565b505050565b5b818110156114aa5761149f600082611473565b60018101905061148c565b5050565b601f8211156114ef576114c08161138f565b6114c9846113a4565b810160208510156114d8578190505b6114ec6114e4856113a4565b83018261148b565b50505b505050565b600082821c905092915050565b6000611512600019846008026114f4565b1980831691505092915050565b600061152b8383611501565b9150826002028217905092915050565b61154482610d0d565b67ffffffffffffffff81111561155d5761155c611360565b5b61156782546111ef565b6115728282856114ae565b600060209050601f8311600181146115a55760008415611593578287015190505b61159d858261151f565b865550611605565b601f1984166115b38661138f565b60005b828110156115db578489015182556001820191506020850194506020810190506115b6565b868310156115f857848901516115f4601f891682611501565b8355505b6001600288020188555050505b505050505050565b7f4f6e6c7920746865206f776e65722063616e20706572666f726d20746869732060008201527f616374696f6e0000000000000000000000000000000000000000000000000000602082015250565b6000611669602683610d18565b91506116748261160d565b604082019050919050565b600060208201905081810360008301526116988161165c565b905091905056fea2646970667358221220a7578e95d71799c88ceec5ebd5b5ba4de155ac86424b3339b086c3339395783964736f6c63430008120033",
					"opcodes": "PUSH1 0x80 PUSH1 0x40 MSTORE CALLVALUE DUP1 ISZERO PUSH2 0x10 JUMPI PUSH1 0x0 DUP1 REVERT JUMPDEST POP CALLER PUSH1 0x0 DUP1 PUSH2 0x100 EXP DUP2 SLOAD DUP2 PUSH20 0xFFFFFFFFFFFFFFFFFFFFFFFFFFFFFFFFFFFFFFFF MUL NOT AND SWAP1 DUP4 PUSH20 0xFFFFFFFFFFFFFFFFFFFFFFFFFFFFFFFFFFFFFFFF AND MUL OR SWAP1 SSTORE POP PUSH1 0x40 MLOAD DUP1 PUSH1 0x40 ADD PUSH1 0x40 MSTORE DUP1 PUSH1 0x0 DUP2 MSTORE PUSH1 0x20 ADD PUSH1 0x1 DUP1 DUP2 GT ISZERO PUSH2 0x76 JUMPI PUSH2 0x75 PUSH2 0x11B JUMP JUMPDEST JUMPDEST DUP2 MSTORE POP PUSH1 0x1 PUSH1 0x0 DUP1 PUSH1 0x0 SWAP1 SLOAD SWAP1 PUSH2 0x100 EXP SWAP1 DIV PUSH20 0xFFFFFFFFFFFFFFFFFFFFFFFFFFFFFFFFFFFFFFFF AND PUSH20 0xFFFFFFFFFFFFFFFFFFFFFFFFFFFFFFFFFFFFFFFF AND PUSH20 0xFFFFFFFFFFFFFFFFFFFFFFFFFFFFFFFFFFFFFFFF AND DUP2 MSTORE PUSH1 0x20 ADD SWAP1 DUP2 MSTORE PUSH1 0x20 ADD PUSH1 0x0 KECCAK256 PUSH1 0x0 DUP3 ADD MLOAD DUP2 PUSH1 0x0 ADD SSTORE PUSH1 0x20 DUP3 ADD MLOAD DUP2 PUSH1 0x1 ADD PUSH1 0x0 PUSH2 0x100 EXP DUP2 SLOAD DUP2 PUSH1 0xFF MUL NOT AND SWAP1 DUP4 PUSH1 0x1 DUP2 GT ISZERO PUSH2 0x10E JUMPI PUSH2 0x10D PUSH2 0x11B JUMP JUMPDEST JUMPDEST MUL OR SWAP1 SSTORE POP SWAP1 POP POP PUSH2 0x14A JUMP JUMPDEST PUSH32 0x4E487B7100000000000000000000000000000000000000000000000000000000 PUSH1 0x0 MSTORE PUSH1 0x21 PUSH1 0x4 MSTORE PUSH1 0x24 PUSH1 0x0 REVERT JUMPDEST PUSH2 0x16D5 DUP1 PUSH2 0x159 PUSH1 0x0 CODECOPY PUSH1 0x0 RETURN INVALID PUSH1 0x80 PUSH1 0x40 MSTORE PUSH1 0x4 CALLDATASIZE LT PUSH2 0x70 JUMPI PUSH1 0x0 CALLDATALOAD PUSH1 0xE0 SHR DUP1 PUSH4 0x70876C98 GT PUSH2 0x4E JUMPI DUP1 PUSH4 0x70876C98 EQ PUSH2 0x11C JUMPI DUP1 PUSH4 0x8DA5CB5B EQ PUSH2 0x138 JUMPI DUP1 PUSH4 0xA211F1ED EQ PUSH2 0x163 JUMPI DUP1 PUSH4 0xA87430BA EQ PUSH2 0x18C JUMPI PUSH2 0x70 JUMP JUMPDEST DUP1 PUSH4 0x3D527883 EQ PUSH2 0x75 JUMPI DUP1 PUSH4 0x3DD26A93 EQ PUSH2 0xB4 JUMPI DUP1 PUSH4 0x687527C6 EQ PUSH2 0xDF JUMPI JUMPDEST PUSH1 0x0 DUP1 REVERT JUMPDEST CALLVALUE DUP1 ISZERO PUSH2 0x81 JUMPI PUSH1 0x0 DUP1 REVERT JUMPDEST POP PUSH2 0x9C PUSH1 0x4 DUP1 CALLDATASIZE SUB DUP2 ADD SWAP1 PUSH2 0x97 SWAP2 SWAP1 PUSH2 0xCBE JUMP JUMPDEST PUSH2 0x1CA JUMP JUMPDEST PUSH1 0x40 MLOAD PUSH2 0xAB SWAP4 SWAP3 SWAP2 SWAP1 PUSH2 0xD9D JUMP JUMPDEST PUSH1 0x40 MLOAD DUP1 SWAP2 SUB SWAP1 RETURN JUMPDEST CALLVALUE DUP1 ISZERO PUSH2 0xC0 JUMPI PUSH1 0x0 DUP1 REVERT JUMPDEST POP PUSH2 0xC9 PUSH2 0x299 JUMP JUMPDEST PUSH1 0x40 MLOAD PUSH2 0xD6 SWAP2 SWAP1 PUSH2 0xF46 JUMP JUMPDEST PUSH1 0x40 MLOAD DUP1 SWAP2 SUB SWAP1 RETURN JUMPDEST CALLVALUE DUP1 ISZERO PUSH2 0xEB JUMPI PUSH1 0x0 DUP1 REVERT JUMPDEST POP PUSH2 0x106 PUSH1 0x4 DUP1 CALLDATASIZE SUB DUP2 ADD SWAP1 PUSH2 0x101 SWAP2 SWAP1 PUSH2 0xF68 JUMP JUMPDEST PUSH2 0x3FC JUMP JUMPDEST PUSH1 0x40 MLOAD PUSH2 0x113 SWAP2 SWAP1 PUSH2 0xF95 JUMP JUMPDEST PUSH1 0x40 MLOAD DUP1 SWAP2 SUB SWAP1 RETURN JUMPDEST PUSH2 0x136 PUSH1 0x4 DUP1 CALLDATASIZE SUB DUP2 ADD SWAP1 PUSH2 0x131 SWAP2 SWAP1 PUSH2 0xFB0 JUMP JUMPDEST PUSH2 0x52E JUMP JUMPDEST STOP JUMPDEST CALLVALUE DUP1 ISZERO PUSH2 0x144 JUMPI PUSH1 0x0 DUP1 REVERT JUMPDEST POP PUSH2 0x14D PUSH2 0xA1D JUMP JUMPDEST PUSH1 0x40 MLOAD PUSH2 0x15A SWAP2 SWAP1 PUSH2 0xFFF JUMP JUMPDEST PUSH1 0x40 MLOAD DUP1 SWAP2 SUB SWAP1 RETURN JUMPDEST CALLVALUE DUP1 ISZERO PUSH2 0x16F JUMPI PUSH1 0x0 DUP1 REVERT JUMPDEST POP PUSH2 0x18A PUSH1 0x4 DUP1 CALLDATASIZE SUB DUP2 ADD SWAP1 PUSH2 0x185 SWAP2 SWAP1 PUSH2 0x107F JUMP JUMPDEST PUSH2 0xA41 JUMP JUMPDEST STOP JUMPDEST CALLVALUE DUP1 ISZERO PUSH2 0x198 JUMPI PUSH1 0x0 DUP1 REVERT JUMPDEST POP PUSH2 0x1B3 PUSH1 0x4 DUP1 CALLDATASIZE SUB DUP2 ADD SWAP1 PUSH2 0x1AE SWAP2 SWAP1 PUSH2 0x10F3 JUMP JUMPDEST PUSH2 0xBEF JUMP JUMPDEST PUSH1 0x40 MLOAD PUSH2 0x1C1 SWAP3 SWAP2 SWAP1 PUSH2 0x1197 JUMP JUMPDEST PUSH1 0x40 MLOAD DUP1 SWAP2 SUB SWAP1 RETURN JUMPDEST PUSH1 0x2 PUSH1 0x20 MSTORE DUP2 PUSH1 0x0 MSTORE PUSH1 0x40 PUSH1 0x0 KECCAK256 DUP2 DUP2 SLOAD DUP2 LT PUSH2 0x1E6 JUMPI PUSH1 0x0 DUP1 REVERT JUMPDEST SWAP1 PUSH1 0x0 MSTORE PUSH1 0x20 PUSH1 0x0 KECCAK256 SWAP1 PUSH1 0x3 MUL ADD PUSH1 0x0 SWAP2 POP SWAP2 POP POP DUP1 PUSH1 0x0 ADD SLOAD SWAP1 DUP1 PUSH1 0x1 ADD SLOAD SWAP1 DUP1 PUSH1 0x2 ADD DUP1 SLOAD PUSH2 0x216 SWAP1 PUSH2 0x11EF JUMP JUMPDEST DUP1 PUSH1 0x1F ADD PUSH1 0x20 DUP1 SWAP2 DIV MUL PUSH1 0x20 ADD PUSH1 0x40 MLOAD SWAP1 DUP2 ADD PUSH1 0x40 MSTORE DUP1 SWAP3 SWAP2 SWAP1 DUP2 DUP2 MSTORE PUSH1 0x20 ADD DUP3 DUP1 SLOAD PUSH2 0x242 SWAP1 PUSH2 0x11EF JUMP JUMPDEST DUP1 ISZERO PUSH2 0x28F JUMPI DUP1 PUSH1 0x1F LT PUSH2 0x264 JUMPI PUSH2 0x100 DUP1 DUP4 SLOAD DIV MUL DUP4 MSTORE SWAP2 PUSH1 0x20 ADD SWAP2 PUSH2 0x28F JUMP JUMPDEST DUP3 ADD SWAP2 SWAP1 PUSH1 0x0 MSTORE PUSH1 0x20 PUSH1 0x0 KECCAK256 SWAP1 JUMPDEST DUP2 SLOAD DUP2 MSTORE SWAP1 PUSH1 0x1 ADD SWAP1 PUSH1 0x20 ADD DUP1 DUP4 GT PUSH2 0x272 JUMPI DUP3 SWAP1 SUB PUSH1 0x1F AND DUP3 ADD SWAP2 JUMPDEST POP POP POP POP POP SWAP1 POP DUP4 JUMP JUMPDEST PUSH1 0x60 PUSH1 0x2 PUSH1 0x0 DUP1 PUSH1 0x0 SWAP1 SLOAD SWAP1 PUSH2 0x100 EXP SWAP1 DIV PUSH20 0xFFFFFFFFFFFFFFFFFFFFFFFFFFFFFFFFFFFFFFFF AND PUSH20 0xFFFFFFFFFFFFFFFFFFFFFFFFFFFFFFFFFFFFFFFF AND PUSH20 0xFFFFFFFFFFFFFFFFFFFFFFFFFFFFFFFFFFFFFFFF AND DUP2 MSTORE PUSH1 0x20 ADD SWAP1 DUP2 MSTORE PUSH1 0x20 ADD PUSH1 0x0 KECCAK256 DUP1 SLOAD DUP1 PUSH1 0x20 MUL PUSH1 0x20 ADD PUSH1 0x40 MLOAD SWAP1 DUP2 ADD PUSH1 0x40 MSTORE DUP1 SWAP3 SWAP2 SWAP1 DUP2 DUP2 MSTORE PUSH1 0x20 ADD PUSH1 0x0 SWAP1 JUMPDEST DUP3 DUP3 LT ISZERO PUSH2 0x3F3 JUMPI DUP4 DUP3 SWAP1 PUSH1 0x0 MSTORE PUSH1 0x20 PUSH1 0x0 KECCAK256 SWAP1 PUSH1 0x3 MUL ADD PUSH1 0x40 MLOAD DUP1 PUSH1 0x60 ADD PUSH1 0x40 MSTORE SWAP1 DUP2 PUSH1 0x0 DUP3 ADD SLOAD DUP2 MSTORE PUSH1 0x20 ADD PUSH1 0x1 DUP3 ADD SLOAD DUP2 MSTORE PUSH1 0x20 ADD PUSH1 0x2 DUP3 ADD DUP1 SLOAD PUSH2 0x362 SWAP1 PUSH2 0x11EF JUMP JUMPDEST DUP1 PUSH1 0x1F ADD PUSH1 0x20 DUP1 SWAP2 DIV MUL PUSH1 0x20 ADD PUSH1 0x40 MLOAD SWAP1 DUP2 ADD PUSH1 0x40 MSTORE DUP1 SWAP3 SWAP2 SWAP1 DUP2 DUP2 MSTORE PUSH1 0x20 ADD DUP3 DUP1 SLOAD PUSH2 0x38E SWAP1 PUSH2 0x11EF JUMP JUMPDEST DUP1 ISZERO PUSH2 0x3DB JUMPI DUP1 PUSH1 0x1F LT PUSH2 0x3B0 JUMPI PUSH2 0x100 DUP1 DUP4 SLOAD DIV MUL DUP4 MSTORE SWAP2 PUSH1 0x20 ADD SWAP2 PUSH2 0x3DB JUMP JUMPDEST DUP3 ADD SWAP2 SWAP1 PUSH1 0x0 MSTORE PUSH1 0x20 PUSH1 0x0 KECCAK256 SWAP1 JUMPDEST DUP2 SLOAD DUP2 MSTORE SWAP1 PUSH1 0x1 ADD SWAP1 PUSH1 0x20 ADD DUP1 DUP4 GT PUSH2 0x3BE JUMPI DUP3 SWAP1 SUB PUSH1 0x1F AND DUP3 ADD SWAP2 JUMPDEST POP POP POP POP POP DUP2 MSTORE POP POP DUP2 MSTORE PUSH1 0x20 ADD SWAP1 PUSH1 0x1 ADD SWAP1 PUSH2 0x31B JUMP JUMPDEST POP POP POP POP SWAP1 POP SWAP1 JUMP JUMPDEST PUSH1 0x0 PUSH1 0x2 PUSH1 0x0 DUP1 PUSH1 0x0 SWAP1 SLOAD SWAP1 PUSH2 0x100 EXP SWAP1 DIV PUSH20 0xFFFFFFFFFFFFFFFFFFFFFFFFFFFFFFFFFFFFFFFF AND PUSH20 0xFFFFFFFFFFFFFFFFFFFFFFFFFFFFFFFFFFFFFFFF AND PUSH20 0xFFFFFFFFFFFFFFFFFFFFFFFFFFFFFFFFFFFFFFFF AND DUP2 MSTORE PUSH1 0x20 ADD SWAP1 DUP2 MSTORE PUSH1 0x20 ADD PUSH1 0x0 KECCAK256 DUP1 SLOAD SWAP1 POP DUP3 LT PUSH2 0x4A3 JUMPI PUSH1 0x40 MLOAD PUSH32 0x8C379A000000000000000000000000000000000000000000000000000000000 DUP2 MSTORE PUSH1 0x4 ADD PUSH2 0x49A SWAP1 PUSH2 0x126C JUMP JUMPDEST PUSH1 0x40 MLOAD DUP1 SWAP2 SUB SWAP1 REVERT JUMPDEST PUSH1 0x2 PUSH1 0x0 DUP1 PUSH1 0x0 SWAP1 SLOAD SWAP1 PUSH2 0x100 EXP SWAP1 DIV PUSH20 0xFFFFFFFFFFFFFFFFFFFFFFFFFFFFFFFFFFFFFFFF AND PUSH20 0xFFFFFFFFFFFFFFFFFFFFFFFFFFFFFFFFFFFFFFFF AND PUSH20 0xFFFFFFFFFFFFFFFFFFFFFFFFFFFFFFFFFFFFFFFF AND DUP2 MSTORE PUSH1 0x20 ADD SWAP1 DUP2 MSTORE PUSH1 0x20 ADD PUSH1 0x0 KECCAK256 DUP3 DUP2 SLOAD DUP2 LT PUSH2 0x515 JUMPI PUSH2 0x514 PUSH2 0x128C JUMP JUMPDEST JUMPDEST SWAP1 PUSH1 0x0 MSTORE PUSH1 0x20 PUSH1 0x0 KECCAK256 SWAP1 PUSH1 0x3 MUL ADD PUSH1 0x0 ADD SLOAD SWAP1 POP SWAP2 SWAP1 POP JUMP JUMPDEST PUSH1 0x2 PUSH1 0x0 DUP1 PUSH1 0x0 SWAP1 SLOAD SWAP1 PUSH2 0x100 EXP SWAP1 DIV PUSH20 0xFFFFFFFFFFFFFFFFFFFFFFFFFFFFFFFFFFFFFFFF AND PUSH20 0xFFFFFFFFFFFFFFFFFFFFFFFFFFFFFFFFFFFFFFFF AND PUSH20 0xFFFFFFFFFFFFFFFFFFFFFFFFFFFFFFFFFFFFFFFF AND DUP2 MSTORE PUSH1 0x20 ADD SWAP1 DUP2 MSTORE PUSH1 0x20 ADD PUSH1 0x0 KECCAK256 DUP2 DUP2 SLOAD DUP2 LT PUSH2 0x5A0 JUMPI PUSH2 0x59F PUSH2 0x128C JUMP JUMPDEST JUMPDEST SWAP1 PUSH1 0x0 MSTORE PUSH1 0x20 PUSH1 0x0 KECCAK256 SWAP1 PUSH1 0x3 MUL ADD PUSH1 0x0 ADD SLOAD DUP3 GT ISZERO PUSH2 0x5BE JUMPI PUSH1 0x0 DUP1 REVERT JUMPDEST PUSH1 0x0 DUP3 GT PUSH2 0x5CB JUMPI PUSH1 0x0 DUP1 REVERT JUMPDEST PUSH1 0x0 PUSH1 0x2 PUSH1 0x0 DUP1 PUSH1 0x0 SWAP1 SLOAD SWAP1 PUSH2 0x100 EXP SWAP1 DIV PUSH20 0xFFFFFFFFFFFFFFFFFFFFFFFFFFFFFFFFFFFFFFFF AND PUSH20 0xFFFFFFFFFFFFFFFFFFFFFFFFFFFFFFFFFFFFFFFF AND PUSH20 0xFFFFFFFFFFFFFFFFFFFFFFFFFFFFFFFFFFFFFFFF AND DUP2 MSTORE PUSH1 0x20 ADD SWAP1 DUP2 MSTORE PUSH1 0x20 ADD PUSH1 0x0 KECCAK256 DUP3 DUP2 SLOAD DUP2 LT PUSH2 0x63F JUMPI PUSH2 0x63E PUSH2 0x128C JUMP JUMPDEST JUMPDEST SWAP1 PUSH1 0x0 MSTORE PUSH1 0x20 PUSH1 0x0 KECCAK256 SWAP1 PUSH1 0x3 MUL ADD PUSH1 0x1 ADD SLOAD DUP4 PUSH2 0x65C SWAP2 SWAP1 PUSH2 0x12EA JUMP JUMPDEST SWAP1 POP DUP1 CALLVALUE LT ISZERO PUSH2 0x66B JUMPI PUSH1 0x0 DUP1 REVERT JUMPDEST PUSH1 0x0 PUSH1 0x40 MLOAD DUP1 PUSH1 0x60 ADD PUSH1 0x40 MSTORE DUP1 DUP6 DUP2 MSTORE PUSH1 0x20 ADD PUSH1 0x2 PUSH1 0x0 DUP1 PUSH1 0x0 SWAP1 SLOAD SWAP1 PUSH2 0x100 EXP SWAP1 DIV PUSH20 0xFFFFFFFFFFFFFFFFFFFFFFFFFFFFFFFFFFFFFFFF AND PUSH20 0xFFFFFFFFFFFFFFFFFFFFFFFFFFFFFFFFFFFFFFFF AND PUSH20 0xFFFFFFFFFFFFFFFFFFFFFFFFFFFFFFFFFFFFFFFF AND DUP2 MSTORE PUSH1 0x20 ADD SWAP1 DUP2 MSTORE PUSH1 0x20 ADD PUSH1 0x0 KECCAK256 PUSH1 0x0 DUP2 SLOAD DUP2 LT PUSH2 0x6F1 JUMPI PUSH2 0x6F0 PUSH2 0x128C JUMP JUMPDEST JUMPDEST SWAP1 PUSH1 0x0 MSTORE PUSH1 0x20 PUSH1 0x0 KECCAK256 SWAP1 PUSH1 0x3 MUL ADD PUSH1 0x1 ADD SLOAD DUP2 MSTORE PUSH1 0x20 ADD PUSH1 0x2 PUSH1 0x0 DUP1 PUSH1 0x0 SWAP1 SLOAD SWAP1 PUSH2 0x100 EXP SWAP1 DIV PUSH20 0xFFFFFFFFFFFFFFFFFFFFFFFFFFFFFFFFFFFFFFFF AND PUSH20 0xFFFFFFFFFFFFFFFFFFFFFFFFFFFFFFFFFFFFFFFF AND PUSH20 0xFFFFFFFFFFFFFFFFFFFFFFFFFFFFFFFFFFFFFFFF AND DUP2 MSTORE PUSH1 0x20 ADD SWAP1 DUP2 MSTORE PUSH1 0x20 ADD PUSH1 0x0 KECCAK256 PUSH1 0x0 DUP2 SLOAD DUP2 LT PUSH2 0x77B JUMPI PUSH2 0x77A PUSH2 0x128C JUMP JUMPDEST JUMPDEST SWAP1 PUSH1 0x0 MSTORE PUSH1 0x20 PUSH1 0x0 KECCAK256 SWAP1 PUSH1 0x3 MUL ADD PUSH1 0x2 ADD DUP1 SLOAD PUSH2 0x797 SWAP1 PUSH2 0x11EF JUMP JUMPDEST DUP1 PUSH1 0x1F ADD PUSH1 0x20 DUP1 SWAP2 DIV MUL PUSH1 0x20 ADD PUSH1 0x40 MLOAD SWAP1 DUP2 ADD PUSH1 0x40 MSTORE DUP1 SWAP3 SWAP2 SWAP1 DUP2 DUP2 MSTORE PUSH1 0x20 ADD DUP3 DUP1 SLOAD PUSH2 0x7C3 SWAP1 PUSH2 0x11EF JUMP JUMPDEST DUP1 ISZERO PUSH2 0x810 JUMPI DUP1 PUSH1 0x1F LT PUSH2 0x7E5 JUMPI PUSH2 0x100 DUP1 DUP4 SLOAD DIV MUL DUP4 MSTORE SWAP2 PUSH1 0x20 ADD SWAP2 PUSH2 0x810 JUMP JUMPDEST DUP3 ADD SWAP2 SWAP1 PUSH1 0x0 MSTORE PUSH1 0x20 PUSH1 0x0 KECCAK256 SWAP1 JUMPDEST DUP2 SLOAD DUP2 MSTORE SWAP1 PUSH1 0x1 ADD SWAP1 PUSH1 0x20 ADD DUP1 DUP4 GT PUSH2 0x7F3 JUMPI DUP3 SWAP1 SUB PUSH1 0x1F AND DUP3 ADD SWAP2 JUMPDEST POP POP POP POP POP DUP2 MSTORE POP SWAP1 POP DUP4 PUSH1 0x2 PUSH1 0x0 DUP1 PUSH1 0x0 SWAP1 SLOAD SWAP1 PUSH2 0x100 EXP SWAP1 DIV PUSH20 0xFFFFFFFFFFFFFFFFFFFFFFFFFFFFFFFFFFFFFFFF AND PUSH20 0xFFFFFFFFFFFFFFFFFFFFFFFFFFFFFFFFFFFFFFFF AND PUSH20 0xFFFFFFFFFFFFFFFFFFFFFFFFFFFFFFFFFFFFFFFF AND DUP2 MSTORE PUSH1 0x20 ADD SWAP1 DUP2 MSTORE PUSH1 0x20 ADD PUSH1 0x0 KECCAK256 DUP5 DUP2 SLOAD DUP2 LT PUSH2 0x88D JUMPI PUSH2 0x88C PUSH2 0x128C JUMP JUMPDEST JUMPDEST SWAP1 PUSH1 0x0 MSTORE PUSH1 0x20 PUSH1 0x0 KECCAK256 SWAP1 PUSH1 0x3 MUL ADD PUSH1 0x0 ADD PUSH1 0x0 DUP3 DUP3 SLOAD PUSH2 0x8AD SWAP2 SWAP1 PUSH2 0x132C JUMP JUMPDEST SWAP3 POP POP DUP2 SWAP1 SSTORE POP PUSH1 0x2 PUSH1 0x0 CALLER PUSH20 0xFFFFFFFFFFFFFFFFFFFFFFFFFFFFFFFFFFFFFFFF AND PUSH20 0xFFFFFFFFFFFFFFFFFFFFFFFFFFFFFFFFFFFFFFFF AND DUP2 MSTORE PUSH1 0x20 ADD SWAP1 DUP2 MSTORE PUSH1 0x20 ADD PUSH1 0x0 KECCAK256 DUP2 SWAP1 DUP1 PUSH1 0x1 DUP2 SLOAD ADD DUP1 DUP3 SSTORE DUP1 SWAP2 POP POP PUSH1 0x1 SWAP1 SUB SWAP1 PUSH1 0x0 MSTORE PUSH1 0x20 PUSH1 0x0 KECCAK256 SWAP1 PUSH1 0x3 MUL ADD PUSH1 0x0 SWAP1 SWAP2 SWAP1 SWAP2 SWAP1 SWAP2 POP PUSH1 0x0 DUP3 ADD MLOAD DUP2 PUSH1 0x0 ADD SSTORE PUSH1 0x20 DUP3 ADD MLOAD DUP2 PUSH1 0x1 ADD SSTORE PUSH1 0x40 DUP3 ADD MLOAD DUP2 PUSH1 0x2 ADD SWAP1 DUP2 PUSH2 0x946 SWAP2 SWAP1 PUSH2 0x153B JUMP JUMPDEST POP POP POP DUP2 CALLVALUE GT ISZERO PUSH2 0x9AA JUMPI PUSH1 0x0 DUP3 CALLVALUE PUSH2 0x95F SWAP2 SWAP1 PUSH2 0x132C JUMP JUMPDEST SWAP1 POP CALLER PUSH20 0xFFFFFFFFFFFFFFFFFFFFFFFFFFFFFFFFFFFFFFFF AND PUSH2 0x8FC DUP3 SWAP1 DUP2 ISZERO MUL SWAP1 PUSH1 0x40 MLOAD PUSH1 0x0 PUSH1 0x40 MLOAD DUP1 DUP4 SUB DUP2 DUP6 DUP9 DUP9 CALL SWAP4 POP POP POP POP ISZERO DUP1 ISZERO PUSH2 0x9A7 JUMPI RETURNDATASIZE PUSH1 0x0 DUP1 RETURNDATACOPY RETURNDATASIZE PUSH1 0x0 REVERT JUMPDEST POP POP JUMPDEST PUSH1 0x0 SELFBALANCE SWAP1 POP PUSH1 0x0 DUP1 SLOAD SWAP1 PUSH2 0x100 EXP SWAP1 DIV PUSH20 0xFFFFFFFFFFFFFFFFFFFFFFFFFFFFFFFFFFFFFFFF AND PUSH20 0xFFFFFFFFFFFFFFFFFFFFFFFFFFFFFFFFFFFFFFFF AND PUSH2 0x8FC DUP3 SWAP1 DUP2 ISZERO MUL SWAP1 PUSH1 0x40 MLOAD PUSH1 0x0 PUSH1 0x40 MLOAD DUP1 DUP4 SUB DUP2 DUP6 DUP9 DUP9 CALL SWAP4 POP POP POP POP ISZERO DUP1 ISZERO PUSH2 0xA15 JUMPI RETURNDATASIZE PUSH1 0x0 DUP1 RETURNDATACOPY RETURNDATASIZE PUSH1 0x0 REVERT JUMPDEST POP POP POP POP POP POP JUMP JUMPDEST PUSH1 0x0 DUP1 SLOAD SWAP1 PUSH2 0x100 EXP SWAP1 DIV PUSH20 0xFFFFFFFFFFFFFFFFFFFFFFFFFFFFFFFFFFFFFFFF AND DUP2 JUMP JUMPDEST PUSH1 0x0 DUP1 SLOAD SWAP1 PUSH2 0x100 EXP SWAP1 DIV PUSH20 0xFFFFFFFFFFFFFFFFFFFFFFFFFFFFFFFFFFFFFFFF AND PUSH20 0xFFFFFFFFFFFFFFFFFFFFFFFFFFFFFFFFFFFFFFFF AND CALLER PUSH20 0xFFFFFFFFFFFFFFFFFFFFFFFFFFFFFFFFFFFFFFFF AND EQ PUSH2 0xACF JUMPI PUSH1 0x40 MLOAD PUSH32 0x8C379A000000000000000000000000000000000000000000000000000000000 DUP2 MSTORE PUSH1 0x4 ADD PUSH2 0xAC6 SWAP1 PUSH2 0x167F JUMP JUMPDEST PUSH1 0x40 MLOAD DUP1 SWAP2 SUB SWAP1 REVERT JUMPDEST PUSH1 0x0 PUSH1 0x40 MLOAD DUP1 PUSH1 0x60 ADD PUSH1 0x40 MSTORE DUP1 DUP7 DUP2 MSTORE PUSH1 0x20 ADD DUP6 DUP2 MSTORE PUSH1 0x20 ADD DUP5 DUP5 DUP1 DUP1 PUSH1 0x1F ADD PUSH1 0x20 DUP1 SWAP2 DIV MUL PUSH1 0x20 ADD PUSH1 0x40 MLOAD SWAP1 DUP2 ADD PUSH1 0x40 MSTORE DUP1 SWAP4 SWAP3 SWAP2 SWAP1 DUP2 DUP2 MSTORE PUSH1 0x20 ADD DUP4 DUP4 DUP1 DUP3 DUP5 CALLDATACOPY PUSH1 0x0 DUP2 DUP5 ADD MSTORE PUSH1 0x1F NOT PUSH1 0x1F DUP3 ADD AND SWAP1 POP DUP1 DUP4 ADD SWAP3 POP POP POP POP POP POP POP DUP2 MSTORE POP SWAP1 POP PUSH1 0x2 PUSH1 0x0 DUP1 PUSH1 0x0 SWAP1 SLOAD SWAP1 PUSH2 0x100 EXP SWAP1 DIV PUSH20 0xFFFFFFFFFFFFFFFFFFFFFFFFFFFFFFFFFFFFFFFF AND PUSH20 0xFFFFFFFFFFFFFFFFFFFFFFFFFFFFFFFFFFFFFFFF AND PUSH20 0xFFFFFFFFFFFFFFFFFFFFFFFFFFFFFFFFFFFFFFFF AND DUP2 MSTORE PUSH1 0x20 ADD SWAP1 DUP2 MSTORE PUSH1 0x20 ADD PUSH1 0x0 KECCAK256 DUP2 SWAP1 DUP1 PUSH1 0x1 DUP2 SLOAD ADD DUP1 DUP3 SSTORE DUP1 SWAP2 POP POP PUSH1 0x1 SWAP1 SUB SWAP1 PUSH1 0x0 MSTORE PUSH1 0x20 PUSH1 0x0 KECCAK256 SWAP1 PUSH1 0x3 MUL ADD PUSH1 0x0 SWAP1 SWAP2 SWAP1 SWAP2 SWAP1 SWAP2 POP PUSH1 0x0 DUP3 ADD MLOAD DUP2 PUSH1 0x0 ADD SSTORE PUSH1 0x20 DUP3 ADD MLOAD DUP2 PUSH1 0x1 ADD SSTORE PUSH1 0x40 DUP3 ADD MLOAD DUP2 PUSH1 0x2 ADD SWAP1 DUP2 PUSH2 0xBE5 SWAP2 SWAP1 PUSH2 0x153B JUMP JUMPDEST POP POP POP POP POP POP POP POP JUMP JUMPDEST PUSH1 0x1 PUSH1 0x20 MSTORE DUP1 PUSH1 0x0 MSTORE PUSH1 0x40 PUSH1 0x0 KECCAK256 PUSH1 0x0 SWAP2 POP SWAP1 POP DUP1 PUSH1 0x0 ADD SLOAD SWAP1 DUP1 PUSH1 0x1 ADD PUSH1 0x0 SWAP1 SLOAD SWAP1 PUSH2 0x100 EXP SWAP1 DIV PUSH1 0xFF AND SWAP1 POP DUP3 JUMP JUMPDEST PUSH1 0x0 DUP1 REVERT JUMPDEST PUSH1 0x0 DUP1 REVERT JUMPDEST PUSH1 0x0 PUSH20 0xFFFFFFFFFFFFFFFFFFFFFFFFFFFFFFFFFFFFFFFF DUP3 AND SWAP1 POP SWAP2 SWAP1 POP JUMP JUMPDEST PUSH1 0x0 PUSH2 0xC55 DUP3 PUSH2 0xC2A JUMP JUMPDEST SWAP1 POP SWAP2 SWAP1 POP JUMP JUMPDEST PUSH2 0xC65 DUP2 PUSH2 0xC4A JUMP JUMPDEST DUP2 EQ PUSH2 0xC70 JUMPI PUSH1 0x0 DUP1 REVERT JUMPDEST POP JUMP JUMPDEST PUSH1 0x0 DUP2 CALLDATALOAD SWAP1 POP PUSH2 0xC82 DUP2 PUSH2 0xC5C JUMP JUMPDEST SWAP3 SWAP2 POP POP JUMP JUMPDEST PUSH1 0x0 DUP2 SWAP1 POP SWAP2 SWAP1 POP JUMP JUMPDEST PUSH2 0xC9B DUP2 PUSH2 0xC88 JUMP JUMPDEST DUP2 EQ PUSH2 0xCA6 JUMPI PUSH1 0x0 DUP1 REVERT JUMPDEST POP JUMP JUMPDEST PUSH1 0x0 DUP2 CALLDATALOAD SWAP1 POP PUSH2 0xCB8 DUP2 PUSH2 0xC92 JUMP JUMPDEST SWAP3 SWAP2 POP POP JUMP JUMPDEST PUSH1 0x0 DUP1 PUSH1 0x40 DUP4 DUP6 SUB SLT ISZERO PUSH2 0xCD5 JUMPI PUSH2 0xCD4 PUSH2 0xC20 JUMP JUMPDEST JUMPDEST PUSH1 0x0 PUSH2 0xCE3 DUP6 DUP3 DUP7 ADD PUSH2 0xC73 JUMP JUMPDEST SWAP3 POP POP PUSH1 0x20 PUSH2 0xCF4 DUP6 DUP3 DUP7 ADD PUSH2 0xCA9 JUMP JUMPDEST SWAP2 POP POP SWAP3 POP SWAP3 SWAP1 POP JUMP JUMPDEST PUSH2 0xD07 DUP2 PUSH2 0xC88 JUMP JUMPDEST DUP3 MSTORE POP POP JUMP JUMPDEST PUSH1 0x0 DUP2 MLOAD SWAP1 POP SWAP2 SWAP1 POP JUMP JUMPDEST PUSH1 0x0 DUP3 DUP3 MSTORE PUSH1 0x20 DUP3 ADD SWAP1 POP SWAP3 SWAP2 POP POP JUMP JUMPDEST PUSH1 0x0 JUMPDEST DUP4 DUP2 LT ISZERO PUSH2 0xD47 JUMPI DUP1 DUP3 ADD MLOAD DUP2 DUP5 ADD MSTORE PUSH1 0x20 DUP2 ADD SWAP1 POP PUSH2 0xD2C JUMP JUMPDEST PUSH1 0x0 DUP5 DUP5 ADD MSTORE POP POP POP POP JUMP JUMPDEST PUSH1 0x0 PUSH1 0x1F NOT PUSH1 0x1F DUP4 ADD AND SWAP1 POP SWAP2 SWAP1 POP JUMP JUMPDEST PUSH1 0x0 PUSH2 0xD6F DUP3 PUSH2 0xD0D JUMP JUMPDEST PUSH2 0xD79 DUP2 DUP6 PUSH2 0xD18 JUMP JUMPDEST SWAP4 POP PUSH2 0xD89 DUP2 DUP6 PUSH1 0x20 DUP7 ADD PUSH2 0xD29 JUMP JUMPDEST PUSH2 0xD92 DUP2 PUSH2 0xD53 JUMP JUMPDEST DUP5 ADD SWAP2 POP POP SWAP3 SWAP2 POP POP JUMP JUMPDEST PUSH1 0x0 PUSH1 0x60 DUP3 ADD SWAP1 POP PUSH2 0xDB2 PUSH1 0x0 DUP4 ADD DUP7 PUSH2 0xCFE JUMP JUMPDEST PUSH2 0xDBF PUSH1 0x20 DUP4 ADD DUP6 PUSH2 0xCFE JUMP JUMPDEST DUP2 DUP2 SUB PUSH1 0x40 DUP4 ADD MSTORE PUSH2 0xDD1 DUP2 DUP5 PUSH2 0xD64 JUMP JUMPDEST SWAP1 POP SWAP5 SWAP4 POP POP POP POP JUMP JUMPDEST PUSH1 0x0 DUP2 MLOAD SWAP1 POP SWAP2 SWAP1 POP JUMP JUMPDEST PUSH1 0x0 DUP3 DUP3 MSTORE PUSH1 0x20 DUP3 ADD SWAP1 POP SWAP3 SWAP2 POP POP JUMP JUMPDEST PUSH1 0x0 DUP2 SWAP1 POP PUSH1 0x20 DUP3 ADD SWAP1 POP SWAP2 SWAP1 POP JUMP JUMPDEST PUSH2 0xE10 DUP2 PUSH2 0xC88 JUMP JUMPDEST DUP3 MSTORE POP POP JUMP JUMPDEST PUSH1 0x0 DUP3 DUP3 MSTORE PUSH1 0x20 DUP3 ADD SWAP1 POP SWAP3 SWAP2 POP POP JUMP JUMPDEST PUSH1 0x0 PUSH2 0xE32 DUP3 PUSH2 0xD0D JUMP JUMPDEST PUSH2 0xE3C DUP2 DUP6 PUSH2 0xE16 JUMP JUMPDEST SWAP4 POP PUSH2 0xE4C DUP2 DUP6 PUSH1 0x20 DUP7 ADD PUSH2 0xD29 JUMP JUMPDEST PUSH2 0xE55 DUP2 PUSH2 0xD53 JUMP JUMPDEST DUP5 ADD SWAP2 POP POP SWAP3 SWAP2 POP POP JUMP JUMPDEST PUSH1 0x0 PUSH1 0x60 DUP4 ADD PUSH1 0x0 DUP4 ADD MLOAD PUSH2 0xE78 PUSH1 0x0 DUP7 ADD DUP3 PUSH2 0xE07 JUMP JUMPDEST POP PUSH1 0x20 DUP4 ADD MLOAD PUSH2 0xE8B PUSH1 0x20 DUP7 ADD DUP3 PUSH2 0xE07 JUMP JUMPDEST POP PUSH1 0x40 DUP4 ADD MLOAD DUP5 DUP3 SUB PUSH1 0x40 DUP7 ADD MSTORE PUSH2 0xEA3 DUP3 DUP3 PUSH2 0xE27 JUMP JUMPDEST SWAP2 POP POP DUP1 SWAP2 POP POP SWAP3 SWAP2 POP POP JUMP JUMPDEST PUSH1 0x0 PUSH2 0xEBC DUP4 DUP4 PUSH2 0xE60 JUMP JUMPDEST SWAP1 POP SWAP3 SWAP2 POP POP JUMP JUMPDEST PUSH1 0x0 PUSH1 0x20 DUP3 ADD SWAP1 POP SWAP2 SWAP1 POP JUMP JUMPDEST PUSH1 0x0 PUSH2 0xEDC DUP3 PUSH2 0xDDB JUMP JUMPDEST PUSH2 0xEE6 DUP2 DUP6 PUSH2 0xDE6 JUMP JUMPDEST SWAP4 POP DUP4 PUSH1 0x20 DUP3 MUL DUP6 ADD PUSH2 0xEF8 DUP6 PUSH2 0xDF7 JUMP JUMPDEST DUP1 PUSH1 0x0 JUMPDEST DUP6 DUP2 LT ISZERO PUSH2 0xF34 JUMPI DUP5 DUP5 SUB DUP10 MSTORE DUP2 MLOAD PUSH2 0xF15 DUP6 DUP3 PUSH2 0xEB0 JUMP JUMPDEST SWAP5 POP PUSH2 0xF20 DUP4 PUSH2 0xEC4 JUMP JUMPDEST SWAP3 POP PUSH1 0x20 DUP11 ADD SWAP10 POP POP PUSH1 0x1 DUP2 ADD SWAP1 POP PUSH2 0xEFC JUMP JUMPDEST POP DUP3 SWAP8 POP DUP8 SWAP6 POP POP POP POP POP POP SWAP3 SWAP2 POP POP JUMP JUMPDEST PUSH1 0x0 PUSH1 0x20 DUP3 ADD SWAP1 POP DUP2 DUP2 SUB PUSH1 0x0 DUP4 ADD MSTORE PUSH2 0xF60 DUP2 DUP5 PUSH2 0xED1 JUMP JUMPDEST SWAP1 POP SWAP3 SWAP2 POP POP JUMP JUMPDEST PUSH1 0x0 PUSH1 0x20 DUP3 DUP5 SUB SLT ISZERO PUSH2 0xF7E JUMPI PUSH2 0xF7D PUSH2 0xC20 JUMP JUMPDEST JUMPDEST PUSH1 0x0 PUSH2 0xF8C DUP5 DUP3 DUP6 ADD PUSH2 0xCA9 JUMP JUMPDEST SWAP2 POP POP SWAP3 SWAP2 POP POP JUMP JUMPDEST PUSH1 0x0 PUSH1 0x20 DUP3 ADD SWAP1 POP PUSH2 0xFAA PUSH1 0x0 DUP4 ADD DUP5 PUSH2 0xCFE JUMP JUMPDEST SWAP3 SWAP2 POP POP JUMP JUMPDEST PUSH1 0x0 DUP1 PUSH1 0x40 DUP4 DUP6 SUB SLT ISZERO PUSH2 0xFC7 JUMPI PUSH2 0xFC6 PUSH2 0xC20 JUMP JUMPDEST JUMPDEST PUSH1 0x0 PUSH2 0xFD5 DUP6 DUP3 DUP7 ADD PUSH2 0xCA9 JUMP JUMPDEST SWAP3 POP POP PUSH1 0x20 PUSH2 0xFE6 DUP6 DUP3 DUP7 ADD PUSH2 0xCA9 JUMP JUMPDEST SWAP2 POP POP SWAP3 POP SWAP3 SWAP1 POP JUMP JUMPDEST PUSH2 0xFF9 DUP2 PUSH2 0xC4A JUMP JUMPDEST DUP3 MSTORE POP POP JUMP JUMPDEST PUSH1 0x0 PUSH1 0x20 DUP3 ADD SWAP1 POP PUSH2 0x1014 PUSH1 0x0 DUP4 ADD DUP5 PUSH2 0xFF0 JUMP JUMPDEST SWAP3 SWAP2 POP POP JUMP JUMPDEST PUSH1 0x0 DUP1 REVERT JUMPDEST PUSH1 0x0 DUP1 REVERT JUMPDEST PUSH1 0x0 DUP1 REVERT JUMPDEST PUSH1 0x0 DUP1 DUP4 PUSH1 0x1F DUP5 ADD SLT PUSH2 0x103F JUMPI PUSH2 0x103E PUSH2 0x101A JUMP JUMPDEST JUMPDEST DUP3 CALLDATALOAD SWAP1 POP PUSH8 0xFFFFFFFFFFFFFFFF DUP2 GT ISZERO PUSH2 0x105C JUMPI PUSH2 0x105B PUSH2 0x101F JUMP JUMPDEST JUMPDEST PUSH1 0x20 DUP4 ADD SWAP2 POP DUP4 PUSH1 0x1 DUP3 MUL DUP4 ADD GT ISZERO PUSH2 0x1078 JUMPI PUSH2 0x1077 PUSH2 0x1024 JUMP JUMPDEST JUMPDEST SWAP3 POP SWAP3 SWAP1 POP JUMP JUMPDEST PUSH1 0x0 DUP1 PUSH1 0x0 DUP1 PUSH1 0x60 DUP6 DUP8 SUB SLT ISZERO PUSH2 0x1099 JUMPI PUSH2 0x1098 PUSH2 0xC20 JUMP JUMPDEST JUMPDEST PUSH1 0x0 PUSH2 0x10A7 DUP8 DUP3 DUP9 ADD PUSH2 0xCA9 JUMP JUMPDEST SWAP5 POP POP PUSH1 0x20 PUSH2 0x10B8 DUP8 DUP3 DUP9 ADD PUSH2 0xCA9 JUMP JUMPDEST SWAP4 POP POP PUSH1 0x40 DUP6 ADD CALLDATALOAD PUSH8 0xFFFFFFFFFFFFFFFF DUP2 GT ISZERO PUSH2 0x10D9 JUMPI PUSH2 0x10D8 PUSH2 0xC25 JUMP JUMPDEST JUMPDEST PUSH2 0x10E5 DUP8 DUP3 DUP9 ADD PUSH2 0x1029 JUMP JUMPDEST SWAP3 POP SWAP3 POP POP SWAP3 SWAP6 SWAP2 SWAP5 POP SWAP3 POP JUMP JUMPDEST PUSH1 0x0 PUSH1 0x20 DUP3 DUP5 SUB SLT ISZERO PUSH2 0x1109 JUMPI PUSH2 0x1108 PUSH2 0xC20 JUMP JUMPDEST JUMPDEST PUSH1 0x0 PUSH2 0x1117 DUP5 DUP3 DUP6 ADD PUSH2 0xC73 JUMP JUMPDEST SWAP2 POP POP SWAP3 SWAP2 POP POP JUMP JUMPDEST PUSH32 0x4E487B7100000000000000000000000000000000000000000000000000000000 PUSH1 0x0 MSTORE PUSH1 0x21 PUSH1 0x4 MSTORE PUSH1 0x24 PUSH1 0x0 REVERT JUMPDEST PUSH1 0x2 DUP2 LT PUSH2 0x1160 JUMPI PUSH2 0x115F PUSH2 0x1120 JUMP JUMPDEST JUMPDEST POP JUMP JUMPDEST PUSH1 0x0 DUP2 SWAP1 POP PUSH2 0x1171 DUP3 PUSH2 0x114F JUMP JUMPDEST SWAP2 SWAP1 POP JUMP JUMPDEST PUSH1 0x0 PUSH2 0x1181 DUP3 PUSH2 0x1163 JUMP JUMPDEST SWAP1 POP SWAP2 SWAP1 POP JUMP JUMPDEST PUSH2 0x1191 DUP2 PUSH2 0x1176 JUMP JUMPDEST DUP3 MSTORE POP POP JUMP JUMPDEST PUSH1 0x0 PUSH1 0x40 DUP3 ADD SWAP1 POP PUSH2 0x11AC PUSH1 0x0 DUP4 ADD DUP6 PUSH2 0xCFE JUMP JUMPDEST PUSH2 0x11B9 PUSH1 0x20 DUP4 ADD DUP5 PUSH2 0x1188 JUMP JUMPDEST SWAP4 SWAP3 POP POP POP JUMP JUMPDEST PUSH32 0x4E487B7100000000000000000000000000000000000000000000000000000000 PUSH1 0x0 MSTORE PUSH1 0x22 PUSH1 0x4 MSTORE PUSH1 0x24 PUSH1 0x0 REVERT JUMPDEST PUSH1 0x0 PUSH1 0x2 DUP3 DIV SWAP1 POP PUSH1 0x1 DUP3 AND DUP1 PUSH2 0x1207 JUMPI PUSH1 0x7F DUP3 AND SWAP2 POP JUMPDEST PUSH1 0x20 DUP3 LT DUP2 SUB PUSH2 0x121A JUMPI PUSH2 0x1219 PUSH2 0x11C0 JUMP JUMPDEST JUMPDEST POP SWAP2 SWAP1 POP JUMP JUMPDEST PUSH32 0x496E76616C69642070726F647563742049440000000000000000000000000000 PUSH1 0x0 DUP3 ADD MSTORE POP JUMP JUMPDEST PUSH1 0x0 PUSH2 0x1256 PUSH1 0x12 DUP4 PUSH2 0xD18 JUMP JUMPDEST SWAP2 POP PUSH2 0x1261 DUP3 PUSH2 0x1220 JUMP JUMPDEST PUSH1 0x20 DUP3 ADD SWAP1 POP SWAP2 SWAP1 POP JUMP JUMPDEST PUSH1 0x0 PUSH1 0x20 DUP3 ADD SWAP1 POP DUP2 DUP2 SUB PUSH1 0x0 DUP4 ADD MSTORE PUSH2 0x1285 DUP2 PUSH2 0x1249 JUMP JUMPDEST SWAP1 POP SWAP2 SWAP1 POP JUMP JUMPDEST PUSH32 0x4E487B7100000000000000000000000000000000000000000000000000000000 PUSH1 0x0 MSTORE PUSH1 0x32 PUSH1 0x4 MSTORE PUSH1 0x24 PUSH1 0x0 REVERT JUMPDEST PUSH32 0x4E487B7100000000000000000000000000000000000000000000000000000000 PUSH1 0x0 MSTORE PUSH1 0x11 PUSH1 0x4 MSTORE PUSH1 0x24 PUSH1 0x0 REVERT JUMPDEST PUSH1 0x0 PUSH2 0x12F5 DUP3 PUSH2 0xC88 JUMP JUMPDEST SWAP2 POP PUSH2 0x1300 DUP4 PUSH2 0xC88 JUMP JUMPDEST SWAP3 POP DUP3 DUP3 MUL PUSH2 0x130E DUP2 PUSH2 0xC88 JUMP JUMPDEST SWAP2 POP DUP3 DUP3 DIV DUP5 EQ DUP4 ISZERO OR PUSH2 0x1325 JUMPI PUSH2 0x1324 PUSH2 0x12BB JUMP JUMPDEST JUMPDEST POP SWAP3 SWAP2 POP POP JUMP JUMPDEST PUSH1 0x0 PUSH2 0x1337 DUP3 PUSH2 0xC88 JUMP JUMPDEST SWAP2 POP PUSH2 0x1342 DUP4 PUSH2 0xC88 JUMP JUMPDEST SWAP3 POP DUP3 DUP3 SUB SWAP1 POP DUP2 DUP2 GT ISZERO PUSH2 0x135A JUMPI PUSH2 0x1359 PUSH2 0x12BB JUMP JUMPDEST JUMPDEST SWAP3 SWAP2 POP POP JUMP JUMPDEST PUSH32 0x4E487B7100000000000000000000000000000000000000000000000000000000 PUSH1 0x0 MSTORE PUSH1 0x41 PUSH1 0x4 MSTORE PUSH1 0x24 PUSH1 0x0 REVERT JUMPDEST PUSH1 0x0 DUP2 SWAP1 POP DUP2 PUSH1 0x0 MSTORE PUSH1 0x20 PUSH1 0x0 KECCAK256 SWAP1 POP SWAP2 SWAP1 POP JUMP JUMPDEST PUSH1 0x0 PUSH1 0x20 PUSH1 0x1F DUP4 ADD DIV SWAP1 POP SWAP2 SWAP1 POP JUMP JUMPDEST PUSH1 0x0 DUP3 DUP3 SHL SWAP1 POP SWAP3 SWAP2 POP POP JUMP JUMPDEST PUSH1 0x0 PUSH1 0x8 DUP4 MUL PUSH2 0x13F1 PUSH32 0xFFFFFFFFFFFFFFFFFFFFFFFFFFFFFFFFFFFFFFFFFFFFFFFFFFFFFFFFFFFFFFFF DUP3 PUSH2 0x13B4 JUMP JUMPDEST PUSH2 0x13FB DUP7 DUP4 PUSH2 0x13B4 JUMP JUMPDEST SWAP6 POP DUP1 NOT DUP5 AND SWAP4 POP DUP1 DUP7 AND DUP5 OR SWAP3 POP POP POP SWAP4 SWAP3 POP POP POP JUMP JUMPDEST PUSH1 0x0 DUP2 SWAP1 POP SWAP2 SWAP1 POP JUMP JUMPDEST PUSH1 0x0 PUSH2 0x1438 PUSH2 0x1433 PUSH2 0x142E DUP5 PUSH2 0xC88 JUMP JUMPDEST PUSH2 0x1413 JUMP JUMPDEST PUSH2 0xC88 JUMP JUMPDEST SWAP1 POP SWAP2 SWAP1 POP JUMP JUMPDEST PUSH1 0x0 DUP2 SWAP1 POP SWAP2 SWAP1 POP JUMP JUMPDEST PUSH2 0x1452 DUP4 PUSH2 0x141D JUMP JUMPDEST PUSH2 0x1466 PUSH2 0x145E DUP3 PUSH2 0x143F JUMP JUMPDEST DUP5 DUP5 SLOAD PUSH2 0x13C1 JUMP JUMPDEST DUP3 SSTORE POP POP POP POP JUMP JUMPDEST PUSH1 0x0 SWAP1 JUMP JUMPDEST PUSH2 0x147B PUSH2 0x146E JUMP JUMPDEST PUSH2 0x1486 DUP2 DUP5 DUP5 PUSH2 0x1449 JUMP JUMPDEST POP POP POP JUMP JUMPDEST JUMPDEST DUP2 DUP2 LT ISZERO PUSH2 0x14AA JUMPI PUSH2 0x149F PUSH1 0x0 DUP3 PUSH2 0x1473 JUMP JUMPDEST PUSH1 0x1 DUP2 ADD SWAP1 POP PUSH2 0x148C JUMP JUMPDEST POP POP JUMP JUMPDEST PUSH1 0x1F DUP3 GT ISZERO PUSH2 0x14EF JUMPI PUSH2 0x14C0 DUP2 PUSH2 0x138F JUMP JUMPDEST PUSH2 0x14C9 DUP5 PUSH2 0x13A4 JUMP JUMPDEST DUP2 ADD PUSH1 0x20 DUP6 LT ISZERO PUSH2 0x14D8 JUMPI DUP2 SWAP1 POP JUMPDEST PUSH2 0x14EC PUSH2 0x14E4 DUP6 PUSH2 0x13A4 JUMP JUMPDEST DUP4 ADD DUP3 PUSH2 0x148B JUMP JUMPDEST POP POP JUMPDEST POP POP POP JUMP JUMPDEST PUSH1 0x0 DUP3 DUP3 SHR SWAP1 POP SWAP3 SWAP2 POP POP JUMP JUMPDEST PUSH1 0x0 PUSH2 0x1512 PUSH1 0x0 NOT DUP5 PUSH1 0x8 MUL PUSH2 0x14F4 JUMP JUMPDEST NOT DUP1 DUP4 AND SWAP2 POP POP SWAP3 SWAP2 POP POP JUMP JUMPDEST PUSH1 0x0 PUSH2 0x152B DUP4 DUP4 PUSH2 0x1501 JUMP JUMPDEST SWAP2 POP DUP3 PUSH1 0x2 MUL DUP3 OR SWAP1 POP SWAP3 SWAP2 POP POP JUMP JUMPDEST PUSH2 0x1544 DUP3 PUSH2 0xD0D JUMP JUMPDEST PUSH8 0xFFFFFFFFFFFFFFFF DUP2 GT ISZERO PUSH2 0x155D JUMPI PUSH2 0x155C PUSH2 0x1360 JUMP JUMPDEST JUMPDEST PUSH2 0x1567 DUP3 SLOAD PUSH2 0x11EF JUMP JUMPDEST PUSH2 0x1572 DUP3 DUP3 DUP6 PUSH2 0x14AE JUMP JUMPDEST PUSH1 0x0 PUSH1 0x20 SWAP1 POP PUSH1 0x1F DUP4 GT PUSH1 0x1 DUP2 EQ PUSH2 0x15A5 JUMPI PUSH1 0x0 DUP5 ISZERO PUSH2 0x1593 JUMPI DUP3 DUP8 ADD MLOAD SWAP1 POP JUMPDEST PUSH2 0x159D DUP6 DUP3 PUSH2 0x151F JUMP JUMPDEST DUP7 SSTORE POP PUSH2 0x1605 JUMP JUMPDEST PUSH1 0x1F NOT DUP5 AND PUSH2 0x15B3 DUP7 PUSH2 0x138F JUMP JUMPDEST PUSH1 0x0 JUMPDEST DUP3 DUP2 LT ISZERO PUSH2 0x15DB JUMPI DUP5 DUP10 ADD MLOAD DUP3 SSTORE PUSH1 0x1 DUP3 ADD SWAP2 POP PUSH1 0x20 DUP6 ADD SWAP5 POP PUSH1 0x20 DUP2 ADD SWAP1 POP PUSH2 0x15B6 JUMP JUMPDEST DUP7 DUP4 LT ISZERO PUSH2 0x15F8 JUMPI DUP5 DUP10 ADD MLOAD PUSH2 0x15F4 PUSH1 0x1F DUP10 AND DUP3 PUSH2 0x1501 JUMP JUMPDEST DUP4 SSTORE POP JUMPDEST PUSH1 0x1 PUSH1 0x2 DUP9 MUL ADD DUP9 SSTORE POP POP POP JUMPDEST POP POP POP POP POP POP JUMP JUMPDEST PUSH32 0x4F6E6C7920746865206F776E65722063616E20706572666F726D207468697320 PUSH1 0x0 DUP3 ADD MSTORE PUSH32 0x616374696F6E0000000000000000000000000000000000000000000000000000 PUSH1 0x20 DUP3 ADD MSTORE POP JUMP JUMPDEST PUSH1 0x0 PUSH2 0x1669 PUSH1 0x26 DUP4 PUSH2 0xD18 JUMP JUMPDEST SWAP2 POP PUSH2 0x1674 DUP3 PUSH2 0x160D JUMP JUMPDEST PUSH1 0x40 DUP3 ADD SWAP1 POP SWAP2 SWAP1 POP JUMP JUMPDEST PUSH1 0x0 PUSH1 0x20 DUP3 ADD SWAP1 POP DUP2 DUP2 SUB PUSH1 0x0 DUP4 ADD MSTORE PUSH2 0x1698 DUP2 PUSH2 0x165C JUMP JUMPDEST SWAP1 POP SWAP2 SWAP1 POP JUMP INVALID LOG2 PUSH5 0x6970667358 0x22 SLT KECCAK256 0xA7 JUMPI DUP15 SWAP6 0xD7 OR SWAP10 0xC8 DUP13 0xEE 0xC5 0xEB 0xD5 0xB5 0xBA 0x4D 0xE1 SSTORE 0xAC DUP7 TIMESTAMP 0x4B CALLER CODECOPY 0xB0 DUP7 0xC3 CALLER SWAP4 SWAP6 PUSH25 0x3964736F6C6343000812003300000000000000000000000000 "
				},
				"gasEstimates": {
					"creation": {
						"codeDepositCost": "1169000",
						"executionCost": "57127",
						"totalCost": "1226127"
					},
					"external": {
						"addItems(uint256,uint256,string)": "infinite",
						"owner()": "2533",
						"purchase(uint256,uint256)": "infinite",
						"showInStock(uint256)": "infinite",
						"showItems()": "infinite",
						"userProducts(address,uint256)": "infinite",
						"users(address)": "5237"
					}
				},
				"methodIdentifiers": {
					"addItems(uint256,uint256,string)": "a211f1ed",
					"owner()": "8da5cb5b",
					"purchase(uint256,uint256)": "70876c98",
					"showInStock(uint256)": "687527c6",
					"showItems()": "3dd26a93",
					"userProducts(address,uint256)": "3d527883",
					"users(address)": "a87430ba"
				}
			},
			"storageLayout": {
				"storage": [
					{
						"astId": 3,
						"contract": "contracts/Test.sol:MarketPlace",
						"label": "owner",
						"offset": 0,
						"slot": "0",
						"type": "t_address"
					},
					{
						"astId": 24,
						"contract": "contracts/Test.sol:MarketPlace",
						"label": "users",
						"offset": 0,
						"slot": "1",
						"type": "t_mapping(t_address,t_struct(User)12_storage)"
					},
					{
						"astId": 30,
						"contract": "contracts/Test.sol:MarketPlace",
						"label": "userProducts",
						"offset": 0,
						"slot": "2",
						"type": "t_mapping(t_address,t_array(t_struct(Product)19_storage)dyn_storage)"
					}
				],
				"types": {
					"t_address": {
						"encoding": "inplace",
						"label": "address",
						"numberOfBytes": "20"
					},
					"t_array(t_struct(Product)19_storage)dyn_storage": {
						"base": "t_struct(Product)19_storage",
						"encoding": "dynamic_array",
						"label": "struct MarketPlace.Product[]",
						"numberOfBytes": "32"
					},
					"t_enum(Role)6": {
						"encoding": "inplace",
						"label": "enum MarketPlace.Role",
						"numberOfBytes": "1"
					},
					"t_mapping(t_address,t_array(t_struct(Product)19_storage)dyn_storage)": {
						"encoding": "mapping",
						"key": "t_address",
						"label": "mapping(address => struct MarketPlace.Product[])",
						"numberOfBytes": "32",
						"value": "t_array(t_struct(Product)19_storage)dyn_storage"
					},
					"t_mapping(t_address,t_struct(User)12_storage)": {
						"encoding": "mapping",
						"key": "t_address",
						"label": "mapping(address => struct MarketPlace.User)",
						"numberOfBytes": "32",
						"value": "t_struct(User)12_storage"
					},
					"t_string_storage": {
						"encoding": "bytes",
						"label": "string",
						"numberOfBytes": "32"
					},
					"t_struct(Product)19_storage": {
						"encoding": "inplace",
						"label": "struct MarketPlace.Product",
						"members": [
							{
								"astId": 14,
								"contract": "contracts/Test.sol:MarketPlace",
								"label": "inStock",
								"offset": 0,
								"slot": "0",
								"type": "t_uint256"
							},
							{
								"astId": 16,
								"contract": "contracts/Test.sol:MarketPlace",
								"label": "price",
								"offset": 0,
								"slot": "1",
								"type": "t_uint256"
							},
							{
								"astId": 18,
								"contract": "contracts/Test.sol:MarketPlace",
								"label": "name",
								"offset": 0,
								"slot": "2",
								"type": "t_string_storage"
							}
						],
						"numberOfBytes": "96"
					},
					"t_struct(User)12_storage": {
						"encoding": "inplace",
						"label": "struct MarketPlace.User",
						"members": [
							{
								"astId": 8,
								"contract": "contracts/Test.sol:MarketPlace",
								"label": "purchased",
								"offset": 0,
								"slot": "0",
								"type": "t_uint256"
							},
							{
								"astId": 11,
								"contract": "contracts/Test.sol:MarketPlace",
								"label": "role",
								"offset": 0,
								"slot": "1",
								"type": "t_enum(Role)6"
							}
						],
						"numberOfBytes": "64"
					},
					"t_uint256": {
						"encoding": "inplace",
						"label": "uint256",
						"numberOfBytes": "32"
					}
				}
			},
			"userdoc": {
				"kind": "user",
				"methods": {},
				"version": 1
			}
		}
	}
}