{
	"contracts/Test.sol": {
		"Test": {
			"abi": [
				{
					"inputs": [],
					"stateMutability": "nonpayable",
					"type": "constructor"
				},
				{
					"inputs": [
						{
							"internalType": "uint256",
							"name": "_inStock",
							"type": "uint256"
						},
						{
							"internalType": "uint256",
							"name": "_price",
							"type": "uint256"
						},
						{
							"internalType": "string",
							"name": "_name",
							"type": "string"
						}
					],
					"name": "addItems",
					"outputs": [],
					"stateMutability": "nonpayable",
					"type": "function"
				},
				{
					"inputs": [],
					"name": "owner",
					"outputs": [
						{
							"internalType": "address",
							"name": "",
							"type": "address"
						}
					],
					"stateMutability": "view",
					"type": "function"
				},
				{
					"inputs": [],
					"name": "showInStock",
					"outputs": [
						{
							"internalType": "uint256",
							"name": "",
							"type": "uint256"
						}
					],
					"stateMutability": "view",
					"type": "function"
				},
				{
					"inputs": [],
					"name": "showItems",
					"outputs": [
						{
							"components": [
								{
									"internalType": "uint256",
									"name": "inStock",
									"type": "uint256"
								},
								{
									"internalType": "uint256",
									"name": "price",
									"type": "uint256"
								},
								{
									"internalType": "string",
									"name": "name",
									"type": "string"
								}
							],
							"internalType": "struct Test.Product[]",
							"name": "",
							"type": "tuple[]"
						}
					],
					"stateMutability": "view",
					"type": "function"
				},
				{
					"inputs": [
						{
							"internalType": "address",
							"name": "",
							"type": "address"
						}
					],
					"name": "users",
					"outputs": [
						{
							"internalType": "uint256",
							"name": "purchased",
							"type": "uint256"
						},
						{
							"internalType": "enum Test.Role",
							"name": "role",
							"type": "uint8"
						}
					],
					"stateMutability": "view",
					"type": "function"
				}
			],
			"devdoc": {
				"kind": "dev",
				"methods": {},
				"version": 1
			},
			"evm": {
				"assembly": "    /* \"contracts/Test.sol\":57:1603  contract Test{... */\n  mstore(0x40, 0x80)\n    /* \"contracts/Test.sol\":364:413  constructor(){... */\n  callvalue\n  dup1\n  iszero\n  tag_1\n  jumpi\n  0x00\n  dup1\n  revert\ntag_1:\n  pop\n    /* \"contracts/Test.sol\":395:405  msg.sender */\n  caller\n    /* \"contracts/Test.sol\":387:392  owner */\n  0x00\n  dup1\n    /* \"contracts/Test.sol\":387:405  owner = msg.sender */\n  0x0100\n  exp\n  dup2\n  sload\n  dup2\n  0xffffffffffffffffffffffffffffffffffffffff\n  mul\n  not\n  and\n  swap1\n  dup4\n  0xffffffffffffffffffffffffffffffffffffffff\n  and\n  mul\n  or\n  swap1\n  sstore\n  pop\n    /* \"contracts/Test.sol\":57:1603  contract Test{... */\n  dataSize(sub_0)\n  dup1\n  dataOffset(sub_0)\n  0x00\n  codecopy\n  0x00\n  return\nstop\n\nsub_0: assembly {\n        /* \"contracts/Test.sol\":57:1603  contract Test{... */\n      mstore(0x40, 0x80)\n      callvalue\n      dup1\n      iszero\n      tag_1\n      jumpi\n      0x00\n      dup1\n      revert\n    tag_1:\n      pop\n      jumpi(tag_2, lt(calldatasize, 0x04))\n      shr(0xe0, calldataload(0x00))\n      dup1\n      0x3dd26a93\n      eq\n      tag_3\n      jumpi\n      dup1\n      0x8da5cb5b\n      eq\n      tag_4\n      jumpi\n      dup1\n      0xa211f1ed\n      eq\n      tag_5\n      jumpi\n      dup1\n      0xa87430ba\n      eq\n      tag_6\n      jumpi\n      dup1\n      0xb8d1ab32\n      eq\n      tag_7\n      jumpi\n    tag_2:\n      0x00\n      dup1\n      revert\n        /* \"contracts/Test.sol\":613:716  function showItems() public view returns(Product[] memory) {... */\n    tag_3:\n      tag_8\n      tag_9\n      jump\t// in\n    tag_8:\n      mload(0x40)\n      tag_10\n      swap2\n      swap1\n      tag_11\n      jump\t// in\n    tag_10:\n      mload(0x40)\n      dup1\n      swap2\n      sub\n      swap1\n      return\n        /* \"contracts/Test.sol\":76:96  address public owner */\n    tag_4:\n      tag_12\n      tag_13\n      jump\t// in\n    tag_12:\n      mload(0x40)\n      tag_14\n      swap2\n      swap1\n      tag_15\n      jump\t// in\n    tag_14:\n      mload(0x40)\n      dup1\n      swap2\n      sub\n      swap1\n      return\n        /* \"contracts/Test.sol\":419:607  function addItems(uint _inStock, uint _price, string calldata _name) public {... */\n    tag_5:\n      tag_16\n      0x04\n      dup1\n      calldatasize\n      sub\n      dup2\n      add\n      swap1\n      tag_17\n      swap2\n      swap1\n      tag_18\n      jump\t// in\n    tag_17:\n      tag_19\n      jump\t// in\n    tag_16:\n      stop\n        /* \"contracts/Test.sol\":320:357  mapping(address => User) public users */\n    tag_6:\n      tag_20\n      0x04\n      dup1\n      calldatasize\n      sub\n      dup2\n      add\n      swap1\n      tag_21\n      swap2\n      swap1\n      tag_22\n      jump\t// in\n    tag_21:\n      tag_23\n      jump\t// in\n    tag_20:\n      mload(0x40)\n      tag_24\n      swap3\n      swap2\n      swap1\n      tag_25\n      jump\t// in\n    tag_24:\n      mload(0x40)\n      dup1\n      swap2\n      sub\n      swap1\n      return\n        /* \"contracts/Test.sol\":722:826  function showInStock() public view returns(uint) {... */\n    tag_7:\n      tag_26\n      tag_27\n      jump\t// in\n    tag_26:\n      mload(0x40)\n      tag_28\n      swap2\n      swap1\n      tag_29\n      jump\t// in\n    tag_28:\n      mload(0x40)\n      dup1\n      swap2\n      sub\n      swap1\n      return\n        /* \"contracts/Test.sol\":613:716  function showItems() public view returns(Product[] memory) {... */\n    tag_9:\n        /* \"contracts/Test.sol\":654:670  Product[] memory */\n      0x60\n        /* \"contracts/Test.sol\":689:694  users */\n      0x01\n        /* \"contracts/Test.sol\":689:701  users[owner] */\n      0x00\n        /* \"contracts/Test.sol\":695:700  owner */\n      dup1\n      0x00\n      swap1\n      sload\n      swap1\n      0x0100\n      exp\n      swap1\n      div\n      0xffffffffffffffffffffffffffffffffffffffff\n      and\n        /* \"contracts/Test.sol\":689:701  users[owner] */\n      0xffffffffffffffffffffffffffffffffffffffff\n      and\n      0xffffffffffffffffffffffffffffffffffffffff\n      and\n      dup2\n      mstore\n      0x20\n      add\n      swap1\n      dup2\n      mstore\n      0x20\n      add\n      0x00\n      keccak256\n        /* \"contracts/Test.sol\":689:709  users[owner].product */\n      0x02\n      add\n        /* \"contracts/Test.sol\":682:709  return users[owner].product */\n      dup1\n      sload\n      dup1\n      0x20\n      mul\n      0x20\n      add\n      mload(0x40)\n      swap1\n      dup2\n      add\n      0x40\n      mstore\n      dup1\n      swap3\n      swap2\n      swap1\n      dup2\n      dup2\n      mstore\n      0x20\n      add\n      0x00\n      swap1\n    tag_31:\n      dup3\n      dup3\n      lt\n      iszero\n      tag_32\n      jumpi\n      dup4\n      dup3\n      swap1\n      0x00\n      mstore\n      keccak256(0x00, 0x20)\n      swap1\n      0x03\n      mul\n      add\n      mload(0x40)\n      dup1\n      0x60\n      add\n      0x40\n      mstore\n      swap1\n      dup2\n      0x00\n      dup3\n      add\n      sload\n      dup2\n      mstore\n      0x20\n      add\n      0x01\n      dup3\n      add\n      sload\n      dup2\n      mstore\n      0x20\n      add\n      0x02\n      dup3\n      add\n      dup1\n      sload\n      tag_34\n      swap1\n      tag_35\n      jump\t// in\n    tag_34:\n      dup1\n      0x1f\n      add\n      0x20\n      dup1\n      swap2\n      div\n      mul\n      0x20\n      add\n      mload(0x40)\n      swap1\n      dup2\n      add\n      0x40\n      mstore\n      dup1\n      swap3\n      swap2\n      swap1\n      dup2\n      dup2\n      mstore\n      0x20\n      add\n      dup3\n      dup1\n      sload\n      tag_36\n      swap1\n      tag_35\n      jump\t// in\n    tag_36:\n      dup1\n      iszero\n      tag_37\n      jumpi\n      dup1\n      0x1f\n      lt\n      tag_38\n      jumpi\n      0x0100\n      dup1\n      dup4\n      sload\n      div\n      mul\n      dup4\n      mstore\n      swap2\n      0x20\n      add\n      swap2\n      jump(tag_37)\n    tag_38:\n      dup3\n      add\n      swap2\n      swap1\n      0x00\n      mstore\n      keccak256(0x00, 0x20)\n      swap1\n    tag_39:\n      dup2\n      sload\n      dup2\n      mstore\n      swap1\n      0x01\n      add\n      swap1\n      0x20\n      add\n      dup1\n      dup4\n      gt\n      tag_39\n      jumpi\n      dup3\n      swap1\n      sub\n      0x1f\n      and\n      dup3\n      add\n      swap2\n    tag_37:\n      pop\n      pop\n      pop\n      pop\n      pop\n      dup2\n      mstore\n      pop\n      pop\n      dup2\n      mstore\n      0x20\n      add\n      swap1\n      0x01\n      add\n      swap1\n      jump(tag_31)\n    tag_32:\n      pop\n      pop\n      pop\n      pop\n      swap1\n      pop\n        /* \"contracts/Test.sol\":613:716  function showItems() public view returns(Product[] memory) {... */\n      swap1\n      jump\t// out\n        /* \"contracts/Test.sol\":76:96  address public owner */\n    tag_13:\n      0x00\n      dup1\n      sload\n      swap1\n      0x0100\n      exp\n      swap1\n      div\n      0xffffffffffffffffffffffffffffffffffffffff\n      and\n      dup2\n      jump\t// out\n        /* \"contracts/Test.sol\":419:607  function addItems(uint _inStock, uint _price, string calldata _name) public {... */\n    tag_19:\n        /* \"contracts/Test.sol\":505:524  Product memory item */\n      0x00\n        /* \"contracts/Test.sol\":527:559  Product(_inStock, _price, _name) */\n      mload(0x40)\n      dup1\n      0x60\n      add\n      0x40\n      mstore\n      dup1\n        /* \"contracts/Test.sol\":535:543  _inStock */\n      dup7\n        /* \"contracts/Test.sol\":527:559  Product(_inStock, _price, _name) */\n      dup2\n      mstore\n      0x20\n      add\n        /* \"contracts/Test.sol\":545:551  _price */\n      dup6\n        /* \"contracts/Test.sol\":527:559  Product(_inStock, _price, _name) */\n      dup2\n      mstore\n      0x20\n      add\n        /* \"contracts/Test.sol\":553:558  _name */\n      dup5\n      dup5\n        /* \"contracts/Test.sol\":527:559  Product(_inStock, _price, _name) */\n      dup1\n      dup1\n      0x1f\n      add\n      0x20\n      dup1\n      swap2\n      div\n      mul\n      0x20\n      add\n      mload(0x40)\n      swap1\n      dup2\n      add\n      0x40\n      mstore\n      dup1\n      swap4\n      swap3\n      swap2\n      swap1\n      dup2\n      dup2\n      mstore\n      0x20\n      add\n      dup4\n      dup4\n      dup1\n      dup3\n      dup5\n      calldatacopy\n      0x00\n      dup2\n      dup5\n      add\n      mstore\n      not(0x1f)\n      0x1f\n      dup3\n      add\n      and\n      swap1\n      pop\n      dup1\n      dup4\n      add\n      swap3\n      pop\n      pop\n      pop\n      pop\n      pop\n      pop\n      pop\n      dup2\n      mstore\n      pop\n        /* \"contracts/Test.sol\":505:559  Product memory item = Product(_inStock, _price, _name) */\n      swap1\n      pop\n        /* \"contracts/Test.sol\":569:574  users */\n      0x01\n        /* \"contracts/Test.sol\":569:581  users[owner] */\n      0x00\n        /* \"contracts/Test.sol\":575:580  owner */\n      dup1\n      0x00\n      swap1\n      sload\n      swap1\n      0x0100\n      exp\n      swap1\n      div\n      0xffffffffffffffffffffffffffffffffffffffff\n      and\n        /* \"contracts/Test.sol\":569:581  users[owner] */\n      0xffffffffffffffffffffffffffffffffffffffff\n      and\n      0xffffffffffffffffffffffffffffffffffffffff\n      and\n      dup2\n      mstore\n      0x20\n      add\n      swap1\n      dup2\n      mstore\n      0x20\n      add\n      0x00\n      keccak256\n        /* \"contracts/Test.sol\":569:589  users[owner].product */\n      0x02\n      add\n        /* \"contracts/Test.sol\":595:599  item */\n      dup2\n        /* \"contracts/Test.sol\":569:600  users[owner].product.push(item) */\n      swap1\n      dup1\n      0x01\n      dup2\n      sload\n      add\n      dup1\n      dup3\n      sstore\n      dup1\n      swap2\n      pop\n      pop\n      0x01\n      swap1\n      sub\n      swap1\n      0x00\n      mstore\n      keccak256(0x00, 0x20)\n      swap1\n      0x03\n      mul\n      add\n      0x00\n      swap1\n      swap2\n      swap1\n      swap2\n      swap1\n      swap2\n      pop\n      0x00\n      dup3\n      add\n      mload\n      dup2\n      0x00\n      add\n      sstore\n      0x20\n      dup3\n      add\n      mload\n      dup2\n      0x01\n      add\n      sstore\n      0x40\n      dup3\n      add\n      mload\n      dup2\n      0x02\n      add\n      swap1\n      dup2\n      tag_42\n      swap2\n      swap1\n      tag_43\n      jump\t// in\n    tag_42:\n      pop\n      pop\n      pop\n        /* \"contracts/Test.sol\":495:607  {... */\n      pop\n        /* \"contracts/Test.sol\":419:607  function addItems(uint _inStock, uint _price, string calldata _name) public {... */\n      pop\n      pop\n      pop\n      pop\n      jump\t// out\n        /* \"contracts/Test.sol\":320:357  mapping(address => User) public users */\n    tag_23:\n      mstore(0x20, 0x01)\n      dup1\n      0x00\n      mstore\n      keccak256(0x00, 0x40)\n      0x00\n      swap2\n      pop\n      swap1\n      pop\n      dup1\n      0x00\n      add\n      sload\n      swap1\n      dup1\n      0x01\n      add\n      0x00\n      swap1\n      sload\n      swap1\n      0x0100\n      exp\n      swap1\n      div\n      0xff\n      and\n      swap1\n      pop\n      dup3\n      jump\t// out\n        /* \"contracts/Test.sol\":722:826  function showInStock() public view returns(uint) {... */\n    tag_27:\n        /* \"contracts/Test.sol\":765:769  uint */\n      0x00\n        /* \"contracts/Test.sol\":788:793  users */\n      0x01\n        /* \"contracts/Test.sol\":788:800  users[owner] */\n      0x00\n        /* \"contracts/Test.sol\":794:799  owner */\n      dup1\n      0x00\n      swap1\n      sload\n      swap1\n      0x0100\n      exp\n      swap1\n      div\n      0xffffffffffffffffffffffffffffffffffffffff\n      and\n        /* \"contracts/Test.sol\":788:800  users[owner] */\n      0xffffffffffffffffffffffffffffffffffffffff\n      and\n      0xffffffffffffffffffffffffffffffffffffffff\n      and\n      dup2\n      mstore\n      0x20\n      add\n      swap1\n      dup2\n      mstore\n      0x20\n      add\n      0x00\n      keccak256\n        /* \"contracts/Test.sol\":788:808  users[owner].product */\n      0x02\n      add\n        /* \"contracts/Test.sol\":809:810  0 */\n      0x00\n        /* \"contracts/Test.sol\":788:811  users[owner].product[0] */\n      dup2\n      sload\n      dup2\n      lt\n      tag_45\n      jumpi\n      tag_46\n      tag_47\n      jump\t// in\n    tag_46:\n    tag_45:\n      swap1\n      0x00\n      mstore\n      keccak256(0x00, 0x20)\n      swap1\n      0x03\n      mul\n      add\n        /* \"contracts/Test.sol\":788:819  users[owner].product[0].inStock */\n      0x00\n      add\n      sload\n        /* \"contracts/Test.sol\":781:819  return users[owner].product[0].inStock */\n      swap1\n      pop\n        /* \"contracts/Test.sol\":722:826  function showInStock() public view returns(uint) {... */\n      swap1\n      jump\t// out\n        /* \"#utility.yul\":7:144   */\n    tag_49:\n        /* \"#utility.yul\":97:103   */\n      0x00\n        /* \"#utility.yul\":131:136   */\n      dup2\n        /* \"#utility.yul\":125:137   */\n      mload\n        /* \"#utility.yul\":115:137   */\n      swap1\n      pop\n        /* \"#utility.yul\":7:144   */\n      swap2\n      swap1\n      pop\n      jump\t// out\n        /* \"#utility.yul\":150:357   */\n    tag_50:\n        /* \"#utility.yul\":272:283   */\n      0x00\n        /* \"#utility.yul\":306:312   */\n      dup3\n        /* \"#utility.yul\":301:304   */\n      dup3\n        /* \"#utility.yul\":294:313   */\n      mstore\n        /* \"#utility.yul\":346:350   */\n      0x20\n        /* \"#utility.yul\":341:344   */\n      dup3\n        /* \"#utility.yul\":337:351   */\n      add\n        /* \"#utility.yul\":322:351   */\n      swap1\n      pop\n        /* \"#utility.yul\":150:357   */\n      swap3\n      swap2\n      pop\n      pop\n      jump\t// out\n        /* \"#utility.yul\":363:518   */\n    tag_51:\n        /* \"#utility.yul\":453:457   */\n      0x00\n        /* \"#utility.yul\":476:479   */\n      dup2\n        /* \"#utility.yul\":468:479   */\n      swap1\n      pop\n        /* \"#utility.yul\":506:510   */\n      0x20\n        /* \"#utility.yul\":501:504   */\n      dup3\n        /* \"#utility.yul\":497:511   */\n      add\n        /* \"#utility.yul\":489:511   */\n      swap1\n      pop\n        /* \"#utility.yul\":363:518   */\n      swap2\n      swap1\n      pop\n      jump\t// out\n        /* \"#utility.yul\":524:601   */\n    tag_52:\n        /* \"#utility.yul\":561:568   */\n      0x00\n        /* \"#utility.yul\":590:595   */\n      dup2\n        /* \"#utility.yul\":579:595   */\n      swap1\n      pop\n        /* \"#utility.yul\":524:601   */\n      swap2\n      swap1\n      pop\n      jump\t// out\n        /* \"#utility.yul\":607:715   */\n    tag_53:\n        /* \"#utility.yul\":684:708   */\n      tag_106\n        /* \"#utility.yul\":702:707   */\n      dup2\n        /* \"#utility.yul\":684:708   */\n      tag_52\n      jump\t// in\n    tag_106:\n        /* \"#utility.yul\":679:682   */\n      dup3\n        /* \"#utility.yul\":672:709   */\n      mstore\n        /* \"#utility.yul\":607:715   */\n      pop\n      pop\n      jump\t// out\n        /* \"#utility.yul\":721:820   */\n    tag_54:\n        /* \"#utility.yul\":773:779   */\n      0x00\n        /* \"#utility.yul\":807:812   */\n      dup2\n        /* \"#utility.yul\":801:813   */\n      mload\n        /* \"#utility.yul\":791:813   */\n      swap1\n      pop\n        /* \"#utility.yul\":721:820   */\n      swap2\n      swap1\n      pop\n      jump\t// out\n        /* \"#utility.yul\":826:985   */\n    tag_55:\n        /* \"#utility.yul\":900:911   */\n      0x00\n        /* \"#utility.yul\":934:940   */\n      dup3\n        /* \"#utility.yul\":929:932   */\n      dup3\n        /* \"#utility.yul\":922:941   */\n      mstore\n        /* \"#utility.yul\":974:978   */\n      0x20\n        /* \"#utility.yul\":969:972   */\n      dup3\n        /* \"#utility.yul\":965:979   */\n      add\n        /* \"#utility.yul\":950:979   */\n      swap1\n      pop\n        /* \"#utility.yul\":826:985   */\n      swap3\n      swap2\n      pop\n      pop\n      jump\t// out\n        /* \"#utility.yul\":991:1237   */\n    tag_56:\n        /* \"#utility.yul\":1072:1073   */\n      0x00\n        /* \"#utility.yul\":1082:1195   */\n    tag_110:\n        /* \"#utility.yul\":1096:1102   */\n      dup4\n        /* \"#utility.yul\":1093:1094   */\n      dup2\n        /* \"#utility.yul\":1090:1103   */\n      lt\n        /* \"#utility.yul\":1082:1195   */\n      iszero\n      tag_112\n      jumpi\n        /* \"#utility.yul\":1181:1182   */\n      dup1\n        /* \"#utility.yul\":1176:1179   */\n      dup3\n        /* \"#utility.yul\":1172:1183   */\n      add\n        /* \"#utility.yul\":1166:1184   */\n      mload\n        /* \"#utility.yul\":1162:1163   */\n      dup2\n        /* \"#utility.yul\":1157:1160   */\n      dup5\n        /* \"#utility.yul\":1153:1164   */\n      add\n        /* \"#utility.yul\":1146:1185   */\n      mstore\n        /* \"#utility.yul\":1118:1120   */\n      0x20\n        /* \"#utility.yul\":1115:1116   */\n      dup2\n        /* \"#utility.yul\":1111:1121   */\n      add\n        /* \"#utility.yul\":1106:1121   */\n      swap1\n      pop\n        /* \"#utility.yul\":1082:1195   */\n      jump(tag_110)\n    tag_112:\n        /* \"#utility.yul\":1229:1230   */\n      0x00\n        /* \"#utility.yul\":1220:1226   */\n      dup5\n        /* \"#utility.yul\":1215:1218   */\n      dup5\n        /* \"#utility.yul\":1211:1227   */\n      add\n        /* \"#utility.yul\":1204:1231   */\n      mstore\n        /* \"#utility.yul\":1053:1237   */\n      pop\n        /* \"#utility.yul\":991:1237   */\n      pop\n      pop\n      pop\n      jump\t// out\n        /* \"#utility.yul\":1243:1345   */\n    tag_57:\n        /* \"#utility.yul\":1284:1290   */\n      0x00\n        /* \"#utility.yul\":1335:1337   */\n      0x1f\n        /* \"#utility.yul\":1331:1338   */\n      not\n        /* \"#utility.yul\":1326:1328   */\n      0x1f\n        /* \"#utility.yul\":1319:1324   */\n      dup4\n        /* \"#utility.yul\":1315:1329   */\n      add\n        /* \"#utility.yul\":1311:1339   */\n      and\n        /* \"#utility.yul\":1301:1339   */\n      swap1\n      pop\n        /* \"#utility.yul\":1243:1345   */\n      swap2\n      swap1\n      pop\n      jump\t// out\n        /* \"#utility.yul\":1351:1708   */\n    tag_58:\n        /* \"#utility.yul\":1429:1432   */\n      0x00\n        /* \"#utility.yul\":1457:1496   */\n      tag_115\n        /* \"#utility.yul\":1490:1495   */\n      dup3\n        /* \"#utility.yul\":1457:1496   */\n      tag_54\n      jump\t// in\n    tag_115:\n        /* \"#utility.yul\":1512:1573   */\n      tag_116\n        /* \"#utility.yul\":1566:1572   */\n      dup2\n        /* \"#utility.yul\":1561:1564   */\n      dup6\n        /* \"#utility.yul\":1512:1573   */\n      tag_55\n      jump\t// in\n    tag_116:\n        /* \"#utility.yul\":1505:1573   */\n      swap4\n      pop\n        /* \"#utility.yul\":1582:1647   */\n      tag_117\n        /* \"#utility.yul\":1640:1646   */\n      dup2\n        /* \"#utility.yul\":1635:1638   */\n      dup6\n        /* \"#utility.yul\":1628:1632   */\n      0x20\n        /* \"#utility.yul\":1621:1626   */\n      dup7\n        /* \"#utility.yul\":1617:1633   */\n      add\n        /* \"#utility.yul\":1582:1647   */\n      tag_56\n      jump\t// in\n    tag_117:\n        /* \"#utility.yul\":1672:1701   */\n      tag_118\n        /* \"#utility.yul\":1694:1700   */\n      dup2\n        /* \"#utility.yul\":1672:1701   */\n      tag_57\n      jump\t// in\n    tag_118:\n        /* \"#utility.yul\":1667:1670   */\n      dup5\n        /* \"#utility.yul\":1663:1702   */\n      add\n        /* \"#utility.yul\":1656:1702   */\n      swap2\n      pop\n        /* \"#utility.yul\":1433:1708   */\n      pop\n        /* \"#utility.yul\":1351:1708   */\n      swap3\n      swap2\n      pop\n      pop\n      jump\t// out\n        /* \"#utility.yul\":1764:2534   */\n    tag_59:\n        /* \"#utility.yul\":1869:1872   */\n      0x00\n        /* \"#utility.yul\":1905:1909   */\n      0x60\n        /* \"#utility.yul\":1900:1903   */\n      dup4\n        /* \"#utility.yul\":1896:1910   */\n      add\n        /* \"#utility.yul\":1995:1999   */\n      0x00\n        /* \"#utility.yul\":1988:1993   */\n      dup4\n        /* \"#utility.yul\":1984:2000   */\n      add\n        /* \"#utility.yul\":1978:2001   */\n      mload\n        /* \"#utility.yul\":2014:2077   */\n      tag_120\n        /* \"#utility.yul\":2071:2075   */\n      0x00\n        /* \"#utility.yul\":2066:2069   */\n      dup7\n        /* \"#utility.yul\":2062:2076   */\n      add\n        /* \"#utility.yul\":2048:2060   */\n      dup3\n        /* \"#utility.yul\":2014:2077   */\n      tag_53\n      jump\t// in\n    tag_120:\n        /* \"#utility.yul\":1920:2087   */\n      pop\n        /* \"#utility.yul\":2170:2174   */\n      0x20\n        /* \"#utility.yul\":2163:2168   */\n      dup4\n        /* \"#utility.yul\":2159:2175   */\n      add\n        /* \"#utility.yul\":2153:2176   */\n      mload\n        /* \"#utility.yul\":2189:2252   */\n      tag_121\n        /* \"#utility.yul\":2246:2250   */\n      0x20\n        /* \"#utility.yul\":2241:2244   */\n      dup7\n        /* \"#utility.yul\":2237:2251   */\n      add\n        /* \"#utility.yul\":2223:2235   */\n      dup3\n        /* \"#utility.yul\":2189:2252   */\n      tag_53\n      jump\t// in\n    tag_121:\n        /* \"#utility.yul\":2097:2262   */\n      pop\n        /* \"#utility.yul\":2344:2348   */\n      0x40\n        /* \"#utility.yul\":2337:2342   */\n      dup4\n        /* \"#utility.yul\":2333:2349   */\n      add\n        /* \"#utility.yul\":2327:2350   */\n      mload\n        /* \"#utility.yul\":2397:2400   */\n      dup5\n        /* \"#utility.yul\":2391:2395   */\n      dup3\n        /* \"#utility.yul\":2387:2401   */\n      sub\n        /* \"#utility.yul\":2380:2384   */\n      0x40\n        /* \"#utility.yul\":2375:2378   */\n      dup7\n        /* \"#utility.yul\":2371:2385   */\n      add\n        /* \"#utility.yul\":2364:2402   */\n      mstore\n        /* \"#utility.yul\":2423:2496   */\n      tag_122\n        /* \"#utility.yul\":2491:2495   */\n      dup3\n        /* \"#utility.yul\":2477:2489   */\n      dup3\n        /* \"#utility.yul\":2423:2496   */\n      tag_58\n      jump\t// in\n    tag_122:\n        /* \"#utility.yul\":2415:2496   */\n      swap2\n      pop\n        /* \"#utility.yul\":2272:2507   */\n      pop\n        /* \"#utility.yul\":2524:2528   */\n      dup1\n        /* \"#utility.yul\":2517:2528   */\n      swap2\n      pop\n        /* \"#utility.yul\":1874:2534   */\n      pop\n        /* \"#utility.yul\":1764:2534   */\n      swap3\n      swap2\n      pop\n      pop\n      jump\t// out\n        /* \"#utility.yul\":2540:2788   */\n    tag_60:\n        /* \"#utility.yul\":2655:2665   */\n      0x00\n        /* \"#utility.yul\":2690:2782   */\n      tag_124\n        /* \"#utility.yul\":2778:2781   */\n      dup4\n        /* \"#utility.yul\":2770:2776   */\n      dup4\n        /* \"#utility.yul\":2690:2782   */\n      tag_59\n      jump\t// in\n    tag_124:\n        /* \"#utility.yul\":2676:2782   */\n      swap1\n      pop\n        /* \"#utility.yul\":2540:2788   */\n      swap3\n      swap2\n      pop\n      pop\n      jump\t// out\n        /* \"#utility.yul\":2794:2930   */\n    tag_61:\n        /* \"#utility.yul\":2887:2891   */\n      0x00\n        /* \"#utility.yul\":2919:2923   */\n      0x20\n        /* \"#utility.yul\":2914:2917   */\n      dup3\n        /* \"#utility.yul\":2910:2924   */\n      add\n        /* \"#utility.yul\":2902:2924   */\n      swap1\n      pop\n        /* \"#utility.yul\":2794:2930   */\n      swap2\n      swap1\n      pop\n      jump\t// out\n        /* \"#utility.yul\":2990:4085   */\n    tag_62:\n        /* \"#utility.yul\":3155:3158   */\n      0x00\n        /* \"#utility.yul\":3184:3261   */\n      tag_127\n        /* \"#utility.yul\":3255:3260   */\n      dup3\n        /* \"#utility.yul\":3184:3261   */\n      tag_49\n      jump\t// in\n    tag_127:\n        /* \"#utility.yul\":3277:3386   */\n      tag_128\n        /* \"#utility.yul\":3379:3385   */\n      dup2\n        /* \"#utility.yul\":3374:3377   */\n      dup6\n        /* \"#utility.yul\":3277:3386   */\n      tag_50\n      jump\t// in\n    tag_128:\n        /* \"#utility.yul\":3270:3386   */\n      swap4\n      pop\n        /* \"#utility.yul\":3412:3415   */\n      dup4\n        /* \"#utility.yul\":3457:3461   */\n      0x20\n        /* \"#utility.yul\":3449:3455   */\n      dup3\n        /* \"#utility.yul\":3445:3462   */\n      mul\n        /* \"#utility.yul\":3440:3443   */\n      dup6\n        /* \"#utility.yul\":3436:3463   */\n      add\n        /* \"#utility.yul\":3487:3566   */\n      tag_129\n        /* \"#utility.yul\":3560:3565   */\n      dup6\n        /* \"#utility.yul\":3487:3566   */\n      tag_51\n      jump\t// in\n    tag_129:\n        /* \"#utility.yul\":3589:3596   */\n      dup1\n        /* \"#utility.yul\":3620:3621   */\n      0x00\n        /* \"#utility.yul\":3605:4040   */\n    tag_130:\n        /* \"#utility.yul\":3630:3636   */\n      dup6\n        /* \"#utility.yul\":3627:3628   */\n      dup2\n        /* \"#utility.yul\":3624:3637   */\n      lt\n        /* \"#utility.yul\":3605:4040   */\n      iszero\n      tag_132\n      jumpi\n        /* \"#utility.yul\":3701:3710   */\n      dup5\n        /* \"#utility.yul\":3695:3699   */\n      dup5\n        /* \"#utility.yul\":3691:3711   */\n      sub\n        /* \"#utility.yul\":3686:3689   */\n      dup10\n        /* \"#utility.yul\":3679:3712   */\n      mstore\n        /* \"#utility.yul\":3752:3758   */\n      dup2\n        /* \"#utility.yul\":3746:3759   */\n      mload\n        /* \"#utility.yul\":3780:3890   */\n      tag_133\n        /* \"#utility.yul\":3885:3889   */\n      dup6\n        /* \"#utility.yul\":3870:3883   */\n      dup3\n        /* \"#utility.yul\":3780:3890   */\n      tag_60\n      jump\t// in\n    tag_133:\n        /* \"#utility.yul\":3772:3890   */\n      swap5\n      pop\n        /* \"#utility.yul\":3913:3996   */\n      tag_134\n        /* \"#utility.yul\":3989:3995   */\n      dup4\n        /* \"#utility.yul\":3913:3996   */\n      tag_61\n      jump\t// in\n    tag_134:\n        /* \"#utility.yul\":3903:3996   */\n      swap3\n      pop\n        /* \"#utility.yul\":4025:4029   */\n      0x20\n        /* \"#utility.yul\":4020:4023   */\n      dup11\n        /* \"#utility.yul\":4016:4030   */\n      add\n        /* \"#utility.yul\":4009:4030   */\n      swap10\n      pop\n        /* \"#utility.yul\":3665:4040   */\n      pop\n        /* \"#utility.yul\":3652:3653   */\n      0x01\n        /* \"#utility.yul\":3649:3650   */\n      dup2\n        /* \"#utility.yul\":3645:3654   */\n      add\n        /* \"#utility.yul\":3640:3654   */\n      swap1\n      pop\n        /* \"#utility.yul\":3605:4040   */\n      jump(tag_130)\n    tag_132:\n        /* \"#utility.yul\":3609:3623   */\n      pop\n        /* \"#utility.yul\":4056:4060   */\n      dup3\n        /* \"#utility.yul\":4049:4060   */\n      swap8\n      pop\n        /* \"#utility.yul\":4076:4079   */\n      dup8\n        /* \"#utility.yul\":4069:4079   */\n      swap6\n      pop\n        /* \"#utility.yul\":3160:4085   */\n      pop\n      pop\n      pop\n      pop\n      pop\n        /* \"#utility.yul\":2990:4085   */\n      swap3\n      swap2\n      pop\n      pop\n      jump\t// out\n        /* \"#utility.yul\":4091:4556   */\n    tag_11:\n        /* \"#utility.yul\":4280:4284   */\n      0x00\n        /* \"#utility.yul\":4318:4320   */\n      0x20\n        /* \"#utility.yul\":4307:4316   */\n      dup3\n        /* \"#utility.yul\":4303:4321   */\n      add\n        /* \"#utility.yul\":4295:4321   */\n      swap1\n      pop\n        /* \"#utility.yul\":4367:4376   */\n      dup2\n        /* \"#utility.yul\":4361:4365   */\n      dup2\n        /* \"#utility.yul\":4357:4377   */\n      sub\n        /* \"#utility.yul\":4353:4354   */\n      0x00\n        /* \"#utility.yul\":4342:4351   */\n      dup4\n        /* \"#utility.yul\":4338:4355   */\n      add\n        /* \"#utility.yul\":4331:4378   */\n      mstore\n        /* \"#utility.yul\":4395:4549   */\n      tag_136\n        /* \"#utility.yul\":4544:4548   */\n      dup2\n        /* \"#utility.yul\":4535:4541   */\n      dup5\n        /* \"#utility.yul\":4395:4549   */\n      tag_62\n      jump\t// in\n    tag_136:\n        /* \"#utility.yul\":4387:4549   */\n      swap1\n      pop\n        /* \"#utility.yul\":4091:4556   */\n      swap3\n      swap2\n      pop\n      pop\n      jump\t// out\n        /* \"#utility.yul\":4562:4688   */\n    tag_63:\n        /* \"#utility.yul\":4599:4606   */\n      0x00\n        /* \"#utility.yul\":4639:4681   */\n      0xffffffffffffffffffffffffffffffffffffffff\n        /* \"#utility.yul\":4632:4637   */\n      dup3\n        /* \"#utility.yul\":4628:4682   */\n      and\n        /* \"#utility.yul\":4617:4682   */\n      swap1\n      pop\n        /* \"#utility.yul\":4562:4688   */\n      swap2\n      swap1\n      pop\n      jump\t// out\n        /* \"#utility.yul\":4694:4790   */\n    tag_64:\n        /* \"#utility.yul\":4731:4738   */\n      0x00\n        /* \"#utility.yul\":4760:4784   */\n      tag_139\n        /* \"#utility.yul\":4778:4783   */\n      dup3\n        /* \"#utility.yul\":4760:4784   */\n      tag_63\n      jump\t// in\n    tag_139:\n        /* \"#utility.yul\":4749:4784   */\n      swap1\n      pop\n        /* \"#utility.yul\":4694:4790   */\n      swap2\n      swap1\n      pop\n      jump\t// out\n        /* \"#utility.yul\":4796:4914   */\n    tag_65:\n        /* \"#utility.yul\":4883:4907   */\n      tag_141\n        /* \"#utility.yul\":4901:4906   */\n      dup2\n        /* \"#utility.yul\":4883:4907   */\n      tag_64\n      jump\t// in\n    tag_141:\n        /* \"#utility.yul\":4878:4881   */\n      dup3\n        /* \"#utility.yul\":4871:4908   */\n      mstore\n        /* \"#utility.yul\":4796:4914   */\n      pop\n      pop\n      jump\t// out\n        /* \"#utility.yul\":4920:5142   */\n    tag_15:\n        /* \"#utility.yul\":5013:5017   */\n      0x00\n        /* \"#utility.yul\":5051:5053   */\n      0x20\n        /* \"#utility.yul\":5040:5049   */\n      dup3\n        /* \"#utility.yul\":5036:5054   */\n      add\n        /* \"#utility.yul\":5028:5054   */\n      swap1\n      pop\n        /* \"#utility.yul\":5064:5135   */\n      tag_143\n        /* \"#utility.yul\":5132:5133   */\n      0x00\n        /* \"#utility.yul\":5121:5130   */\n      dup4\n        /* \"#utility.yul\":5117:5134   */\n      add\n        /* \"#utility.yul\":5108:5114   */\n      dup5\n        /* \"#utility.yul\":5064:5135   */\n      tag_65\n      jump\t// in\n    tag_143:\n        /* \"#utility.yul\":4920:5142   */\n      swap3\n      swap2\n      pop\n      pop\n      jump\t// out\n        /* \"#utility.yul\":5229:5346   */\n    tag_67:\n        /* \"#utility.yul\":5338:5339   */\n      0x00\n        /* \"#utility.yul\":5335:5336   */\n      dup1\n        /* \"#utility.yul\":5328:5340   */\n      revert\n        /* \"#utility.yul\":5352:5469   */\n    tag_68:\n        /* \"#utility.yul\":5461:5462   */\n      0x00\n        /* \"#utility.yul\":5458:5459   */\n      dup1\n        /* \"#utility.yul\":5451:5463   */\n      revert\n        /* \"#utility.yul\":5475:5597   */\n    tag_69:\n        /* \"#utility.yul\":5548:5572   */\n      tag_148\n        /* \"#utility.yul\":5566:5571   */\n      dup2\n        /* \"#utility.yul\":5548:5572   */\n      tag_52\n      jump\t// in\n    tag_148:\n        /* \"#utility.yul\":5541:5546   */\n      dup2\n        /* \"#utility.yul\":5538:5573   */\n      eq\n        /* \"#utility.yul\":5528:5591   */\n      tag_149\n      jumpi\n        /* \"#utility.yul\":5587:5588   */\n      0x00\n        /* \"#utility.yul\":5584:5585   */\n      dup1\n        /* \"#utility.yul\":5577:5589   */\n      revert\n        /* \"#utility.yul\":5528:5591   */\n    tag_149:\n        /* \"#utility.yul\":5475:5597   */\n      pop\n      jump\t// out\n        /* \"#utility.yul\":5603:5742   */\n    tag_70:\n        /* \"#utility.yul\":5649:5654   */\n      0x00\n        /* \"#utility.yul\":5687:5693   */\n      dup2\n        /* \"#utility.yul\":5674:5694   */\n      calldataload\n        /* \"#utility.yul\":5665:5694   */\n      swap1\n      pop\n        /* \"#utility.yul\":5703:5736   */\n      tag_151\n        /* \"#utility.yul\":5730:5735   */\n      dup2\n        /* \"#utility.yul\":5703:5736   */\n      tag_69\n      jump\t// in\n    tag_151:\n        /* \"#utility.yul\":5603:5742   */\n      swap3\n      swap2\n      pop\n      pop\n      jump\t// out\n        /* \"#utility.yul\":5748:5865   */\n    tag_71:\n        /* \"#utility.yul\":5857:5858   */\n      0x00\n        /* \"#utility.yul\":5854:5855   */\n      dup1\n        /* \"#utility.yul\":5847:5859   */\n      revert\n        /* \"#utility.yul\":5871:5988   */\n    tag_72:\n        /* \"#utility.yul\":5980:5981   */\n      0x00\n        /* \"#utility.yul\":5977:5978   */\n      dup1\n        /* \"#utility.yul\":5970:5982   */\n      revert\n        /* \"#utility.yul\":5994:6111   */\n    tag_73:\n        /* \"#utility.yul\":6103:6104   */\n      0x00\n        /* \"#utility.yul\":6100:6101   */\n      dup1\n        /* \"#utility.yul\":6093:6105   */\n      revert\n        /* \"#utility.yul\":6131:6684   */\n    tag_74:\n        /* \"#utility.yul\":6189:6197   */\n      0x00\n        /* \"#utility.yul\":6199:6205   */\n      dup1\n        /* \"#utility.yul\":6249:6252   */\n      dup4\n        /* \"#utility.yul\":6242:6246   */\n      0x1f\n        /* \"#utility.yul\":6234:6240   */\n      dup5\n        /* \"#utility.yul\":6230:6247   */\n      add\n        /* \"#utility.yul\":6226:6253   */\n      slt\n        /* \"#utility.yul\":6216:6338   */\n      tag_156\n      jumpi\n        /* \"#utility.yul\":6257:6336   */\n      tag_157\n      tag_71\n      jump\t// in\n    tag_157:\n        /* \"#utility.yul\":6216:6338   */\n    tag_156:\n        /* \"#utility.yul\":6370:6376   */\n      dup3\n        /* \"#utility.yul\":6357:6377   */\n      calldataload\n        /* \"#utility.yul\":6347:6377   */\n      swap1\n      pop\n        /* \"#utility.yul\":6400:6418   */\n      0xffffffffffffffff\n        /* \"#utility.yul\":6392:6398   */\n      dup2\n        /* \"#utility.yul\":6389:6419   */\n      gt\n        /* \"#utility.yul\":6386:6503   */\n      iszero\n      tag_158\n      jumpi\n        /* \"#utility.yul\":6422:6501   */\n      tag_159\n      tag_72\n      jump\t// in\n    tag_159:\n        /* \"#utility.yul\":6386:6503   */\n    tag_158:\n        /* \"#utility.yul\":6536:6540   */\n      0x20\n        /* \"#utility.yul\":6528:6534   */\n      dup4\n        /* \"#utility.yul\":6524:6541   */\n      add\n        /* \"#utility.yul\":6512:6541   */\n      swap2\n      pop\n        /* \"#utility.yul\":6590:6593   */\n      dup4\n        /* \"#utility.yul\":6582:6586   */\n      0x01\n        /* \"#utility.yul\":6574:6580   */\n      dup3\n        /* \"#utility.yul\":6570:6587   */\n      mul\n        /* \"#utility.yul\":6560:6568   */\n      dup4\n        /* \"#utility.yul\":6556:6588   */\n      add\n        /* \"#utility.yul\":6553:6594   */\n      gt\n        /* \"#utility.yul\":6550:6678   */\n      iszero\n      tag_160\n      jumpi\n        /* \"#utility.yul\":6597:6676   */\n      tag_161\n      tag_73\n      jump\t// in\n    tag_161:\n        /* \"#utility.yul\":6550:6678   */\n    tag_160:\n        /* \"#utility.yul\":6131:6684   */\n      swap3\n      pop\n      swap3\n      swap1\n      pop\n      jump\t// out\n        /* \"#utility.yul\":6690:7509   */\n    tag_18:\n        /* \"#utility.yul\":6779:6785   */\n      0x00\n        /* \"#utility.yul\":6787:6793   */\n      dup1\n        /* \"#utility.yul\":6795:6801   */\n      0x00\n        /* \"#utility.yul\":6803:6809   */\n      dup1\n        /* \"#utility.yul\":6852:6854   */\n      0x60\n        /* \"#utility.yul\":6840:6849   */\n      dup6\n        /* \"#utility.yul\":6831:6838   */\n      dup8\n        /* \"#utility.yul\":6827:6850   */\n      sub\n        /* \"#utility.yul\":6823:6855   */\n      slt\n        /* \"#utility.yul\":6820:6939   */\n      iszero\n      tag_163\n      jumpi\n        /* \"#utility.yul\":6858:6937   */\n      tag_164\n      tag_67\n      jump\t// in\n    tag_164:\n        /* \"#utility.yul\":6820:6939   */\n    tag_163:\n        /* \"#utility.yul\":6978:6979   */\n      0x00\n        /* \"#utility.yul\":7003:7056   */\n      tag_165\n        /* \"#utility.yul\":7048:7055   */\n      dup8\n        /* \"#utility.yul\":7039:7045   */\n      dup3\n        /* \"#utility.yul\":7028:7037   */\n      dup9\n        /* \"#utility.yul\":7024:7046   */\n      add\n        /* \"#utility.yul\":7003:7056   */\n      tag_70\n      jump\t// in\n    tag_165:\n        /* \"#utility.yul\":6993:7056   */\n      swap5\n      pop\n        /* \"#utility.yul\":6949:7066   */\n      pop\n        /* \"#utility.yul\":7105:7107   */\n      0x20\n        /* \"#utility.yul\":7131:7184   */\n      tag_166\n        /* \"#utility.yul\":7176:7183   */\n      dup8\n        /* \"#utility.yul\":7167:7173   */\n      dup3\n        /* \"#utility.yul\":7156:7165   */\n      dup9\n        /* \"#utility.yul\":7152:7174   */\n      add\n        /* \"#utility.yul\":7131:7184   */\n      tag_70\n      jump\t// in\n    tag_166:\n        /* \"#utility.yul\":7121:7184   */\n      swap4\n      pop\n        /* \"#utility.yul\":7076:7194   */\n      pop\n        /* \"#utility.yul\":7261:7263   */\n      0x40\n        /* \"#utility.yul\":7250:7259   */\n      dup6\n        /* \"#utility.yul\":7246:7264   */\n      add\n        /* \"#utility.yul\":7233:7265   */\n      calldataload\n        /* \"#utility.yul\":7292:7310   */\n      0xffffffffffffffff\n        /* \"#utility.yul\":7284:7290   */\n      dup2\n        /* \"#utility.yul\":7281:7311   */\n      gt\n        /* \"#utility.yul\":7278:7395   */\n      iszero\n      tag_167\n      jumpi\n        /* \"#utility.yul\":7314:7393   */\n      tag_168\n      tag_68\n      jump\t// in\n    tag_168:\n        /* \"#utility.yul\":7278:7395   */\n    tag_167:\n        /* \"#utility.yul\":7427:7492   */\n      tag_169\n        /* \"#utility.yul\":7484:7491   */\n      dup8\n        /* \"#utility.yul\":7475:7481   */\n      dup3\n        /* \"#utility.yul\":7464:7473   */\n      dup9\n        /* \"#utility.yul\":7460:7482   */\n      add\n        /* \"#utility.yul\":7427:7492   */\n      tag_74\n      jump\t// in\n    tag_169:\n        /* \"#utility.yul\":7409:7492   */\n      swap3\n      pop\n      swap3\n      pop\n        /* \"#utility.yul\":7204:7502   */\n      pop\n        /* \"#utility.yul\":6690:7509   */\n      swap3\n      swap6\n      swap2\n      swap5\n      pop\n      swap3\n      pop\n      jump\t// out\n        /* \"#utility.yul\":7515:7637   */\n    tag_75:\n        /* \"#utility.yul\":7588:7612   */\n      tag_171\n        /* \"#utility.yul\":7606:7611   */\n      dup2\n        /* \"#utility.yul\":7588:7612   */\n      tag_64\n      jump\t// in\n    tag_171:\n        /* \"#utility.yul\":7581:7586   */\n      dup2\n        /* \"#utility.yul\":7578:7613   */\n      eq\n        /* \"#utility.yul\":7568:7631   */\n      tag_172\n      jumpi\n        /* \"#utility.yul\":7627:7628   */\n      0x00\n        /* \"#utility.yul\":7624:7625   */\n      dup1\n        /* \"#utility.yul\":7617:7629   */\n      revert\n        /* \"#utility.yul\":7568:7631   */\n    tag_172:\n        /* \"#utility.yul\":7515:7637   */\n      pop\n      jump\t// out\n        /* \"#utility.yul\":7643:7782   */\n    tag_76:\n        /* \"#utility.yul\":7689:7694   */\n      0x00\n        /* \"#utility.yul\":7727:7733   */\n      dup2\n        /* \"#utility.yul\":7714:7734   */\n      calldataload\n        /* \"#utility.yul\":7705:7734   */\n      swap1\n      pop\n        /* \"#utility.yul\":7743:7776   */\n      tag_174\n        /* \"#utility.yul\":7770:7775   */\n      dup2\n        /* \"#utility.yul\":7743:7776   */\n      tag_75\n      jump\t// in\n    tag_174:\n        /* \"#utility.yul\":7643:7782   */\n      swap3\n      swap2\n      pop\n      pop\n      jump\t// out\n        /* \"#utility.yul\":7788:8117   */\n    tag_22:\n        /* \"#utility.yul\":7847:7853   */\n      0x00\n        /* \"#utility.yul\":7896:7898   */\n      0x20\n        /* \"#utility.yul\":7884:7893   */\n      dup3\n        /* \"#utility.yul\":7875:7882   */\n      dup5\n        /* \"#utility.yul\":7871:7894   */\n      sub\n        /* \"#utility.yul\":7867:7899   */\n      slt\n        /* \"#utility.yul\":7864:7983   */\n      iszero\n      tag_176\n      jumpi\n        /* \"#utility.yul\":7902:7981   */\n      tag_177\n      tag_67\n      jump\t// in\n    tag_177:\n        /* \"#utility.yul\":7864:7983   */\n    tag_176:\n        /* \"#utility.yul\":8022:8023   */\n      0x00\n        /* \"#utility.yul\":8047:8100   */\n      tag_178\n        /* \"#utility.yul\":8092:8099   */\n      dup5\n        /* \"#utility.yul\":8083:8089   */\n      dup3\n        /* \"#utility.yul\":8072:8081   */\n      dup6\n        /* \"#utility.yul\":8068:8090   */\n      add\n        /* \"#utility.yul\":8047:8100   */\n      tag_76\n      jump\t// in\n    tag_178:\n        /* \"#utility.yul\":8037:8100   */\n      swap2\n      pop\n        /* \"#utility.yul\":7993:8110   */\n      pop\n        /* \"#utility.yul\":7788:8117   */\n      swap3\n      swap2\n      pop\n      pop\n      jump\t// out\n        /* \"#utility.yul\":8123:8241   */\n    tag_77:\n        /* \"#utility.yul\":8210:8234   */\n      tag_180\n        /* \"#utility.yul\":8228:8233   */\n      dup2\n        /* \"#utility.yul\":8210:8234   */\n      tag_52\n      jump\t// in\n    tag_180:\n        /* \"#utility.yul\":8205:8208   */\n      dup3\n        /* \"#utility.yul\":8198:8235   */\n      mstore\n        /* \"#utility.yul\":8123:8241   */\n      pop\n      pop\n      jump\t// out\n        /* \"#utility.yul\":8247:8427   */\n    tag_78:\n        /* \"#utility.yul\":8295:8372   */\n      0x4e487b7100000000000000000000000000000000000000000000000000000000\n        /* \"#utility.yul\":8292:8293   */\n      0x00\n        /* \"#utility.yul\":8285:8373   */\n      mstore\n        /* \"#utility.yul\":8392:8396   */\n      0x21\n        /* \"#utility.yul\":8389:8390   */\n      0x04\n        /* \"#utility.yul\":8382:8397   */\n      mstore\n        /* \"#utility.yul\":8416:8420   */\n      0x24\n        /* \"#utility.yul\":8413:8414   */\n      0x00\n        /* \"#utility.yul\":8406:8421   */\n      revert\n        /* \"#utility.yul\":8433:8544   */\n    tag_79:\n        /* \"#utility.yul\":8512:8513   */\n      0x02\n        /* \"#utility.yul\":8505:8510   */\n      dup2\n        /* \"#utility.yul\":8502:8514   */\n      lt\n        /* \"#utility.yul\":8492:8538   */\n      tag_183\n      jumpi\n        /* \"#utility.yul\":8518:8536   */\n      tag_184\n      tag_78\n      jump\t// in\n    tag_184:\n        /* \"#utility.yul\":8492:8538   */\n    tag_183:\n        /* \"#utility.yul\":8433:8544   */\n      pop\n      jump\t// out\n        /* \"#utility.yul\":8550:8673   */\n    tag_80:\n        /* \"#utility.yul\":8593:8600   */\n      0x00\n        /* \"#utility.yul\":8622:8627   */\n      dup2\n        /* \"#utility.yul\":8611:8627   */\n      swap1\n      pop\n        /* \"#utility.yul\":8628:8667   */\n      tag_186\n        /* \"#utility.yul\":8661:8666   */\n      dup3\n        /* \"#utility.yul\":8628:8667   */\n      tag_79\n      jump\t// in\n    tag_186:\n        /* \"#utility.yul\":8550:8673   */\n      swap2\n      swap1\n      pop\n      jump\t// out\n        /* \"#utility.yul\":8679:8802   */\n    tag_81:\n        /* \"#utility.yul\":8733:8742   */\n      0x00\n        /* \"#utility.yul\":8766:8796   */\n      tag_188\n        /* \"#utility.yul\":8790:8795   */\n      dup3\n        /* \"#utility.yul\":8766:8796   */\n      tag_80\n      jump\t// in\n    tag_188:\n        /* \"#utility.yul\":8753:8796   */\n      swap1\n      pop\n        /* \"#utility.yul\":8679:8802   */\n      swap2\n      swap1\n      pop\n      jump\t// out\n        /* \"#utility.yul\":8808:8947   */\n    tag_82:\n        /* \"#utility.yul\":8899:8940   */\n      tag_190\n        /* \"#utility.yul\":8934:8939   */\n      dup2\n        /* \"#utility.yul\":8899:8940   */\n      tag_81\n      jump\t// in\n    tag_190:\n        /* \"#utility.yul\":8894:8897   */\n      dup3\n        /* \"#utility.yul\":8887:8941   */\n      mstore\n        /* \"#utility.yul\":8808:8947   */\n      pop\n      pop\n      jump\t// out\n        /* \"#utility.yul\":8953:9293   */\n    tag_25:\n        /* \"#utility.yul\":9078:9082   */\n      0x00\n        /* \"#utility.yul\":9116:9118   */\n      0x40\n        /* \"#utility.yul\":9105:9114   */\n      dup3\n        /* \"#utility.yul\":9101:9119   */\n      add\n        /* \"#utility.yul\":9093:9119   */\n      swap1\n      pop\n        /* \"#utility.yul\":9129:9200   */\n      tag_192\n        /* \"#utility.yul\":9197:9198   */\n      0x00\n        /* \"#utility.yul\":9186:9195   */\n      dup4\n        /* \"#utility.yul\":9182:9199   */\n      add\n        /* \"#utility.yul\":9173:9179   */\n      dup6\n        /* \"#utility.yul\":9129:9200   */\n      tag_77\n      jump\t// in\n    tag_192:\n        /* \"#utility.yul\":9210:9286   */\n      tag_193\n        /* \"#utility.yul\":9282:9284   */\n      0x20\n        /* \"#utility.yul\":9271:9280   */\n      dup4\n        /* \"#utility.yul\":9267:9285   */\n      add\n        /* \"#utility.yul\":9258:9264   */\n      dup5\n        /* \"#utility.yul\":9210:9286   */\n      tag_82\n      jump\t// in\n    tag_193:\n        /* \"#utility.yul\":8953:9293   */\n      swap4\n      swap3\n      pop\n      pop\n      pop\n      jump\t// out\n        /* \"#utility.yul\":9299:9521   */\n    tag_29:\n        /* \"#utility.yul\":9392:9396   */\n      0x00\n        /* \"#utility.yul\":9430:9432   */\n      0x20\n        /* \"#utility.yul\":9419:9428   */\n      dup3\n        /* \"#utility.yul\":9415:9433   */\n      add\n        /* \"#utility.yul\":9407:9433   */\n      swap1\n      pop\n        /* \"#utility.yul\":9443:9514   */\n      tag_195\n        /* \"#utility.yul\":9511:9512   */\n      0x00\n        /* \"#utility.yul\":9500:9509   */\n      dup4\n        /* \"#utility.yul\":9496:9513   */\n      add\n        /* \"#utility.yul\":9487:9493   */\n      dup5\n        /* \"#utility.yul\":9443:9514   */\n      tag_77\n      jump\t// in\n    tag_195:\n        /* \"#utility.yul\":9299:9521   */\n      swap3\n      swap2\n      pop\n      pop\n      jump\t// out\n        /* \"#utility.yul\":9527:9707   */\n    tag_83:\n        /* \"#utility.yul\":9575:9652   */\n      0x4e487b7100000000000000000000000000000000000000000000000000000000\n        /* \"#utility.yul\":9572:9573   */\n      0x00\n        /* \"#utility.yul\":9565:9653   */\n      mstore\n        /* \"#utility.yul\":9672:9676   */\n      0x22\n        /* \"#utility.yul\":9669:9670   */\n      0x04\n        /* \"#utility.yul\":9662:9677   */\n      mstore\n        /* \"#utility.yul\":9696:9700   */\n      0x24\n        /* \"#utility.yul\":9693:9694   */\n      0x00\n        /* \"#utility.yul\":9686:9701   */\n      revert\n        /* \"#utility.yul\":9713:10033   */\n    tag_35:\n        /* \"#utility.yul\":9757:9763   */\n      0x00\n        /* \"#utility.yul\":9794:9795   */\n      0x02\n        /* \"#utility.yul\":9788:9792   */\n      dup3\n        /* \"#utility.yul\":9784:9796   */\n      div\n        /* \"#utility.yul\":9774:9796   */\n      swap1\n      pop\n        /* \"#utility.yul\":9841:9842   */\n      0x01\n        /* \"#utility.yul\":9835:9839   */\n      dup3\n        /* \"#utility.yul\":9831:9843   */\n      and\n        /* \"#utility.yul\":9862:9880   */\n      dup1\n        /* \"#utility.yul\":9852:9933   */\n      tag_198\n      jumpi\n        /* \"#utility.yul\":9918:9922   */\n      0x7f\n        /* \"#utility.yul\":9910:9916   */\n      dup3\n        /* \"#utility.yul\":9906:9923   */\n      and\n        /* \"#utility.yul\":9896:9923   */\n      swap2\n      pop\n        /* \"#utility.yul\":9852:9933   */\n    tag_198:\n        /* \"#utility.yul\":9980:9982   */\n      0x20\n        /* \"#utility.yul\":9972:9978   */\n      dup3\n        /* \"#utility.yul\":9969:9983   */\n      lt\n        /* \"#utility.yul\":9949:9967   */\n      dup2\n        /* \"#utility.yul\":9946:9984   */\n      sub\n        /* \"#utility.yul\":9943:10027   */\n      tag_199\n      jumpi\n        /* \"#utility.yul\":9999:10017   */\n      tag_200\n      tag_83\n      jump\t// in\n    tag_200:\n        /* \"#utility.yul\":9943:10027   */\n    tag_199:\n        /* \"#utility.yul\":9764:10033   */\n      pop\n        /* \"#utility.yul\":9713:10033   */\n      swap2\n      swap1\n      pop\n      jump\t// out\n        /* \"#utility.yul\":10039:10219   */\n    tag_84:\n        /* \"#utility.yul\":10087:10164   */\n      0x4e487b7100000000000000000000000000000000000000000000000000000000\n        /* \"#utility.yul\":10084:10085   */\n      0x00\n        /* \"#utility.yul\":10077:10165   */\n      mstore\n        /* \"#utility.yul\":10184:10188   */\n      0x41\n        /* \"#utility.yul\":10181:10182   */\n      0x04\n        /* \"#utility.yul\":10174:10189   */\n      mstore\n        /* \"#utility.yul\":10208:10212   */\n      0x24\n        /* \"#utility.yul\":10205:10206   */\n      0x00\n        /* \"#utility.yul\":10198:10213   */\n      revert\n        /* \"#utility.yul\":10225:10366   */\n    tag_85:\n        /* \"#utility.yul\":10274:10278   */\n      0x00\n        /* \"#utility.yul\":10297:10300   */\n      dup2\n        /* \"#utility.yul\":10289:10300   */\n      swap1\n      pop\n        /* \"#utility.yul\":10320:10323   */\n      dup2\n        /* \"#utility.yul\":10317:10318   */\n      0x00\n        /* \"#utility.yul\":10310:10324   */\n      mstore\n        /* \"#utility.yul\":10354:10358   */\n      0x20\n        /* \"#utility.yul\":10351:10352   */\n      0x00\n        /* \"#utility.yul\":10341:10359   */\n      keccak256\n        /* \"#utility.yul\":10333:10359   */\n      swap1\n      pop\n        /* \"#utility.yul\":10225:10366   */\n      swap2\n      swap1\n      pop\n      jump\t// out\n        /* \"#utility.yul\":10372:10465   */\n    tag_86:\n        /* \"#utility.yul\":10409:10415   */\n      0x00\n        /* \"#utility.yul\":10456:10458   */\n      0x20\n        /* \"#utility.yul\":10451:10453   */\n      0x1f\n        /* \"#utility.yul\":10444:10449   */\n      dup4\n        /* \"#utility.yul\":10440:10454   */\n      add\n        /* \"#utility.yul\":10436:10459   */\n      div\n        /* \"#utility.yul\":10426:10459   */\n      swap1\n      pop\n        /* \"#utility.yul\":10372:10465   */\n      swap2\n      swap1\n      pop\n      jump\t// out\n        /* \"#utility.yul\":10471:10578   */\n    tag_87:\n        /* \"#utility.yul\":10515:10523   */\n      0x00\n        /* \"#utility.yul\":10565:10570   */\n      dup3\n        /* \"#utility.yul\":10559:10563   */\n      dup3\n        /* \"#utility.yul\":10555:10571   */\n      shl\n        /* \"#utility.yul\":10534:10571   */\n      swap1\n      pop\n        /* \"#utility.yul\":10471:10578   */\n      swap3\n      swap2\n      pop\n      pop\n      jump\t// out\n        /* \"#utility.yul\":10584:10977   */\n    tag_88:\n        /* \"#utility.yul\":10653:10659   */\n      0x00\n        /* \"#utility.yul\":10703:10704   */\n      0x08\n        /* \"#utility.yul\":10691:10701   */\n      dup4\n        /* \"#utility.yul\":10687:10705   */\n      mul\n        /* \"#utility.yul\":10726:10823   */\n      tag_206\n        /* \"#utility.yul\":10756:10822   */\n      0xffffffffffffffffffffffffffffffffffffffffffffffffffffffffffffffff\n        /* \"#utility.yul\":10745:10754   */\n      dup3\n        /* \"#utility.yul\":10726:10823   */\n      tag_87\n      jump\t// in\n    tag_206:\n        /* \"#utility.yul\":10844:10883   */\n      tag_207\n        /* \"#utility.yul\":10874:10882   */\n      dup7\n        /* \"#utility.yul\":10863:10872   */\n      dup4\n        /* \"#utility.yul\":10844:10883   */\n      tag_87\n      jump\t// in\n    tag_207:\n        /* \"#utility.yul\":10832:10883   */\n      swap6\n      pop\n        /* \"#utility.yul\":10916:10920   */\n      dup1\n        /* \"#utility.yul\":10912:10921   */\n      not\n        /* \"#utility.yul\":10905:10910   */\n      dup5\n        /* \"#utility.yul\":10901:10922   */\n      and\n        /* \"#utility.yul\":10892:10922   */\n      swap4\n      pop\n        /* \"#utility.yul\":10965:10969   */\n      dup1\n        /* \"#utility.yul\":10955:10963   */\n      dup7\n        /* \"#utility.yul\":10951:10970   */\n      and\n        /* \"#utility.yul\":10944:10949   */\n      dup5\n        /* \"#utility.yul\":10941:10971   */\n      or\n        /* \"#utility.yul\":10931:10971   */\n      swap3\n      pop\n        /* \"#utility.yul\":10660:10977   */\n      pop\n      pop\n        /* \"#utility.yul\":10584:10977   */\n      swap4\n      swap3\n      pop\n      pop\n      pop\n      jump\t// out\n        /* \"#utility.yul\":10983:11043   */\n    tag_89:\n        /* \"#utility.yul\":11011:11014   */\n      0x00\n        /* \"#utility.yul\":11032:11037   */\n      dup2\n        /* \"#utility.yul\":11025:11037   */\n      swap1\n      pop\n        /* \"#utility.yul\":10983:11043   */\n      swap2\n      swap1\n      pop\n      jump\t// out\n        /* \"#utility.yul\":11049:11191   */\n    tag_90:\n        /* \"#utility.yul\":11099:11108   */\n      0x00\n        /* \"#utility.yul\":11132:11185   */\n      tag_210\n        /* \"#utility.yul\":11150:11184   */\n      tag_211\n        /* \"#utility.yul\":11159:11183   */\n      tag_212\n        /* \"#utility.yul\":11177:11182   */\n      dup5\n        /* \"#utility.yul\":11159:11183   */\n      tag_52\n      jump\t// in\n    tag_212:\n        /* \"#utility.yul\":11150:11184   */\n      tag_89\n      jump\t// in\n    tag_211:\n        /* \"#utility.yul\":11132:11185   */\n      tag_52\n      jump\t// in\n    tag_210:\n        /* \"#utility.yul\":11119:11185   */\n      swap1\n      pop\n        /* \"#utility.yul\":11049:11191   */\n      swap2\n      swap1\n      pop\n      jump\t// out\n        /* \"#utility.yul\":11197:11272   */\n    tag_91:\n        /* \"#utility.yul\":11240:11243   */\n      0x00\n        /* \"#utility.yul\":11261:11266   */\n      dup2\n        /* \"#utility.yul\":11254:11266   */\n      swap1\n      pop\n        /* \"#utility.yul\":11197:11272   */\n      swap2\n      swap1\n      pop\n      jump\t// out\n        /* \"#utility.yul\":11278:11547   */\n    tag_92:\n        /* \"#utility.yul\":11388:11427   */\n      tag_215\n        /* \"#utility.yul\":11419:11426   */\n      dup4\n        /* \"#utility.yul\":11388:11427   */\n      tag_90\n      jump\t// in\n    tag_215:\n        /* \"#utility.yul\":11449:11540   */\n      tag_216\n        /* \"#utility.yul\":11498:11539   */\n      tag_217\n        /* \"#utility.yul\":11522:11538   */\n      dup3\n        /* \"#utility.yul\":11498:11539   */\n      tag_91\n      jump\t// in\n    tag_217:\n        /* \"#utility.yul\":11490:11496   */\n      dup5\n        /* \"#utility.yul\":11483:11487   */\n      dup5\n        /* \"#utility.yul\":11477:11488   */\n      sload\n        /* \"#utility.yul\":11449:11540   */\n      tag_88\n      jump\t// in\n    tag_216:\n        /* \"#utility.yul\":11443:11447   */\n      dup3\n        /* \"#utility.yul\":11436:11541   */\n      sstore\n        /* \"#utility.yul\":11354:11547   */\n      pop\n        /* \"#utility.yul\":11278:11547   */\n      pop\n      pop\n      pop\n      jump\t// out\n        /* \"#utility.yul\":11553:11626   */\n    tag_93:\n        /* \"#utility.yul\":11598:11601   */\n      0x00\n        /* \"#utility.yul\":11553:11626   */\n      swap1\n      jump\t// out\n        /* \"#utility.yul\":11632:11821   */\n    tag_94:\n        /* \"#utility.yul\":11709:11741   */\n      tag_220\n      tag_93\n      jump\t// in\n    tag_220:\n        /* \"#utility.yul\":11750:11815   */\n      tag_221\n        /* \"#utility.yul\":11808:11814   */\n      dup2\n        /* \"#utility.yul\":11800:11806   */\n      dup5\n        /* \"#utility.yul\":11794:11798   */\n      dup5\n        /* \"#utility.yul\":11750:11815   */\n      tag_92\n      jump\t// in\n    tag_221:\n        /* \"#utility.yul\":11685:11821   */\n      pop\n        /* \"#utility.yul\":11632:11821   */\n      pop\n      pop\n      jump\t// out\n        /* \"#utility.yul\":11827:12013   */\n    tag_95:\n        /* \"#utility.yul\":11887:12007   */\n    tag_223:\n        /* \"#utility.yul\":11904:11907   */\n      dup2\n        /* \"#utility.yul\":11897:11902   */\n      dup2\n        /* \"#utility.yul\":11894:11908   */\n      lt\n        /* \"#utility.yul\":11887:12007   */\n      iszero\n      tag_225\n      jumpi\n        /* \"#utility.yul\":11958:11997   */\n      tag_226\n        /* \"#utility.yul\":11995:11996   */\n      0x00\n        /* \"#utility.yul\":11988:11993   */\n      dup3\n        /* \"#utility.yul\":11958:11997   */\n      tag_94\n      jump\t// in\n    tag_226:\n        /* \"#utility.yul\":11931:11932   */\n      0x01\n        /* \"#utility.yul\":11924:11929   */\n      dup2\n        /* \"#utility.yul\":11920:11933   */\n      add\n        /* \"#utility.yul\":11911:11933   */\n      swap1\n      pop\n        /* \"#utility.yul\":11887:12007   */\n      jump(tag_223)\n    tag_225:\n        /* \"#utility.yul\":11827:12013   */\n      pop\n      pop\n      jump\t// out\n        /* \"#utility.yul\":12019:12562   */\n    tag_96:\n        /* \"#utility.yul\":12120:12122   */\n      0x1f\n        /* \"#utility.yul\":12115:12118   */\n      dup3\n        /* \"#utility.yul\":12112:12123   */\n      gt\n        /* \"#utility.yul\":12109:12555   */\n      iszero\n      tag_228\n      jumpi\n        /* \"#utility.yul\":12154:12192   */\n      tag_229\n        /* \"#utility.yul\":12186:12191   */\n      dup2\n        /* \"#utility.yul\":12154:12192   */\n      tag_85\n      jump\t// in\n    tag_229:\n        /* \"#utility.yul\":12238:12267   */\n      tag_230\n        /* \"#utility.yul\":12256:12266   */\n      dup5\n        /* \"#utility.yul\":12238:12267   */\n      tag_86\n      jump\t// in\n    tag_230:\n        /* \"#utility.yul\":12228:12236   */\n      dup2\n        /* \"#utility.yul\":12224:12268   */\n      add\n        /* \"#utility.yul\":12421:12423   */\n      0x20\n        /* \"#utility.yul\":12409:12419   */\n      dup6\n        /* \"#utility.yul\":12406:12424   */\n      lt\n        /* \"#utility.yul\":12403:12452   */\n      iszero\n      tag_231\n      jumpi\n        /* \"#utility.yul\":12442:12450   */\n      dup2\n        /* \"#utility.yul\":12427:12450   */\n      swap1\n      pop\n        /* \"#utility.yul\":12403:12452   */\n    tag_231:\n        /* \"#utility.yul\":12465:12545   */\n      tag_232\n        /* \"#utility.yul\":12521:12543   */\n      tag_233\n        /* \"#utility.yul\":12539:12542   */\n      dup6\n        /* \"#utility.yul\":12521:12543   */\n      tag_86\n      jump\t// in\n    tag_233:\n        /* \"#utility.yul\":12511:12519   */\n      dup4\n        /* \"#utility.yul\":12507:12544   */\n      add\n        /* \"#utility.yul\":12494:12505   */\n      dup3\n        /* \"#utility.yul\":12465:12545   */\n      tag_95\n      jump\t// in\n    tag_232:\n        /* \"#utility.yul\":12124:12555   */\n      pop\n      pop\n        /* \"#utility.yul\":12109:12555   */\n    tag_228:\n        /* \"#utility.yul\":12019:12562   */\n      pop\n      pop\n      pop\n      jump\t// out\n        /* \"#utility.yul\":12568:12685   */\n    tag_97:\n        /* \"#utility.yul\":12622:12630   */\n      0x00\n        /* \"#utility.yul\":12672:12677   */\n      dup3\n        /* \"#utility.yul\":12666:12670   */\n      dup3\n        /* \"#utility.yul\":12662:12678   */\n      shr\n        /* \"#utility.yul\":12641:12678   */\n      swap1\n      pop\n        /* \"#utility.yul\":12568:12685   */\n      swap3\n      swap2\n      pop\n      pop\n      jump\t// out\n        /* \"#utility.yul\":12691:12860   */\n    tag_98:\n        /* \"#utility.yul\":12735:12741   */\n      0x00\n        /* \"#utility.yul\":12768:12819   */\n      tag_236\n        /* \"#utility.yul\":12816:12817   */\n      0x00\n        /* \"#utility.yul\":12812:12818   */\n      not\n        /* \"#utility.yul\":12804:12809   */\n      dup5\n        /* \"#utility.yul\":12801:12802   */\n      0x08\n        /* \"#utility.yul\":12797:12810   */\n      mul\n        /* \"#utility.yul\":12768:12819   */\n      tag_97\n      jump\t// in\n    tag_236:\n        /* \"#utility.yul\":12764:12820   */\n      not\n        /* \"#utility.yul\":12849:12853   */\n      dup1\n        /* \"#utility.yul\":12843:12847   */\n      dup4\n        /* \"#utility.yul\":12839:12854   */\n      and\n        /* \"#utility.yul\":12829:12854   */\n      swap2\n      pop\n        /* \"#utility.yul\":12742:12860   */\n      pop\n        /* \"#utility.yul\":12691:12860   */\n      swap3\n      swap2\n      pop\n      pop\n      jump\t// out\n        /* \"#utility.yul\":12865:13160   */\n    tag_99:\n        /* \"#utility.yul\":12941:12945   */\n      0x00\n        /* \"#utility.yul\":13087:13116   */\n      tag_238\n        /* \"#utility.yul\":13112:13115   */\n      dup4\n        /* \"#utility.yul\":13106:13110   */\n      dup4\n        /* \"#utility.yul\":13087:13116   */\n      tag_98\n      jump\t// in\n    tag_238:\n        /* \"#utility.yul\":13079:13116   */\n      swap2\n      pop\n        /* \"#utility.yul\":13149:13152   */\n      dup3\n        /* \"#utility.yul\":13146:13147   */\n      0x02\n        /* \"#utility.yul\":13142:13153   */\n      mul\n        /* \"#utility.yul\":13136:13140   */\n      dup3\n        /* \"#utility.yul\":13133:13154   */\n      or\n        /* \"#utility.yul\":13125:13154   */\n      swap1\n      pop\n        /* \"#utility.yul\":12865:13160   */\n      swap3\n      swap2\n      pop\n      pop\n      jump\t// out\n        /* \"#utility.yul\":13165:14560   */\n    tag_43:\n        /* \"#utility.yul\":13282:13319   */\n      tag_240\n        /* \"#utility.yul\":13315:13318   */\n      dup3\n        /* \"#utility.yul\":13282:13319   */\n      tag_54\n      jump\t// in\n    tag_240:\n        /* \"#utility.yul\":13384:13402   */\n      0xffffffffffffffff\n        /* \"#utility.yul\":13376:13382   */\n      dup2\n        /* \"#utility.yul\":13373:13403   */\n      gt\n        /* \"#utility.yul\":13370:13426   */\n      iszero\n      tag_241\n      jumpi\n        /* \"#utility.yul\":13406:13424   */\n      tag_242\n      tag_84\n      jump\t// in\n    tag_242:\n        /* \"#utility.yul\":13370:13426   */\n    tag_241:\n        /* \"#utility.yul\":13450:13488   */\n      tag_243\n        /* \"#utility.yul\":13482:13486   */\n      dup3\n        /* \"#utility.yul\":13476:13487   */\n      sload\n        /* \"#utility.yul\":13450:13488   */\n      tag_35\n      jump\t// in\n    tag_243:\n        /* \"#utility.yul\":13535:13602   */\n      tag_244\n        /* \"#utility.yul\":13595:13601   */\n      dup3\n        /* \"#utility.yul\":13587:13593   */\n      dup3\n        /* \"#utility.yul\":13581:13585   */\n      dup6\n        /* \"#utility.yul\":13535:13602   */\n      tag_96\n      jump\t// in\n    tag_244:\n        /* \"#utility.yul\":13629:13630   */\n      0x00\n        /* \"#utility.yul\":13653:13657   */\n      0x20\n        /* \"#utility.yul\":13640:13657   */\n      swap1\n      pop\n        /* \"#utility.yul\":13685:13687   */\n      0x1f\n        /* \"#utility.yul\":13677:13683   */\n      dup4\n        /* \"#utility.yul\":13674:13688   */\n      gt\n        /* \"#utility.yul\":13702:13703   */\n      0x01\n        /* \"#utility.yul\":13697:14315   */\n      dup2\n      eq\n      tag_246\n      jumpi\n        /* \"#utility.yul\":14359:14360   */\n      0x00\n        /* \"#utility.yul\":14376:14382   */\n      dup5\n        /* \"#utility.yul\":14373:14450   */\n      iszero\n      tag_247\n      jumpi\n        /* \"#utility.yul\":14425:14434   */\n      dup3\n        /* \"#utility.yul\":14420:14423   */\n      dup8\n        /* \"#utility.yul\":14416:14435   */\n      add\n        /* \"#utility.yul\":14410:14436   */\n      mload\n        /* \"#utility.yul\":14401:14436   */\n      swap1\n      pop\n        /* \"#utility.yul\":14373:14450   */\n    tag_247:\n        /* \"#utility.yul\":14476:14543   */\n      tag_248\n        /* \"#utility.yul\":14536:14542   */\n      dup6\n        /* \"#utility.yul\":14529:14534   */\n      dup3\n        /* \"#utility.yul\":14476:14543   */\n      tag_99\n      jump\t// in\n    tag_248:\n        /* \"#utility.yul\":14470:14474   */\n      dup7\n        /* \"#utility.yul\":14463:14544   */\n      sstore\n        /* \"#utility.yul\":14332:14554   */\n      pop\n        /* \"#utility.yul\":13667:14554   */\n      jump(tag_245)\n        /* \"#utility.yul\":13697:14315   */\n    tag_246:\n        /* \"#utility.yul\":13749:13753   */\n      0x1f\n        /* \"#utility.yul\":13745:13754   */\n      not\n        /* \"#utility.yul\":13737:13743   */\n      dup5\n        /* \"#utility.yul\":13733:13755   */\n      and\n        /* \"#utility.yul\":13783:13820   */\n      tag_249\n        /* \"#utility.yul\":13815:13819   */\n      dup7\n        /* \"#utility.yul\":13783:13820   */\n      tag_85\n      jump\t// in\n    tag_249:\n        /* \"#utility.yul\":13842:13843   */\n      0x00\n        /* \"#utility.yul\":13856:14064   */\n    tag_250:\n        /* \"#utility.yul\":13870:13877   */\n      dup3\n        /* \"#utility.yul\":13867:13868   */\n      dup2\n        /* \"#utility.yul\":13864:13878   */\n      lt\n        /* \"#utility.yul\":13856:14064   */\n      iszero\n      tag_252\n      jumpi\n        /* \"#utility.yul\":13949:13958   */\n      dup5\n        /* \"#utility.yul\":13944:13947   */\n      dup10\n        /* \"#utility.yul\":13940:13959   */\n      add\n        /* \"#utility.yul\":13934:13960   */\n      mload\n        /* \"#utility.yul\":13926:13932   */\n      dup3\n        /* \"#utility.yul\":13919:13961   */\n      sstore\n        /* \"#utility.yul\":14000:14001   */\n      0x01\n        /* \"#utility.yul\":13992:13998   */\n      dup3\n        /* \"#utility.yul\":13988:14002   */\n      add\n        /* \"#utility.yul\":13978:14002   */\n      swap2\n      pop\n        /* \"#utility.yul\":14047:14049   */\n      0x20\n        /* \"#utility.yul\":14036:14045   */\n      dup6\n        /* \"#utility.yul\":14032:14050   */\n      add\n        /* \"#utility.yul\":14019:14050   */\n      swap5\n      pop\n        /* \"#utility.yul\":13893:13897   */\n      0x20\n        /* \"#utility.yul\":13890:13891   */\n      dup2\n        /* \"#utility.yul\":13886:13898   */\n      add\n        /* \"#utility.yul\":13881:13898   */\n      swap1\n      pop\n        /* \"#utility.yul\":13856:14064   */\n      jump(tag_250)\n    tag_252:\n        /* \"#utility.yul\":14092:14098   */\n      dup7\n        /* \"#utility.yul\":14083:14090   */\n      dup4\n        /* \"#utility.yul\":14080:14099   */\n      lt\n        /* \"#utility.yul\":14077:14256   */\n      iszero\n      tag_253\n      jumpi\n        /* \"#utility.yul\":14150:14159   */\n      dup5\n        /* \"#utility.yul\":14145:14148   */\n      dup10\n        /* \"#utility.yul\":14141:14160   */\n      add\n        /* \"#utility.yul\":14135:14161   */\n      mload\n        /* \"#utility.yul\":14193:14241   */\n      tag_254\n        /* \"#utility.yul\":14235:14239   */\n      0x1f\n        /* \"#utility.yul\":14227:14233   */\n      dup10\n        /* \"#utility.yul\":14223:14240   */\n      and\n        /* \"#utility.yul\":14212:14221   */\n      dup3\n        /* \"#utility.yul\":14193:14241   */\n      tag_98\n      jump\t// in\n    tag_254:\n        /* \"#utility.yul\":14185:14191   */\n      dup4\n        /* \"#utility.yul\":14178:14242   */\n      sstore\n        /* \"#utility.yul\":14100:14256   */\n      pop\n        /* \"#utility.yul\":14077:14256   */\n    tag_253:\n        /* \"#utility.yul\":14302:14303   */\n      0x01\n        /* \"#utility.yul\":14298:14299   */\n      0x02\n        /* \"#utility.yul\":14290:14296   */\n      dup9\n        /* \"#utility.yul\":14286:14300   */\n      mul\n        /* \"#utility.yul\":14282:14304   */\n      add\n        /* \"#utility.yul\":14276:14280   */\n      dup9\n        /* \"#utility.yul\":14269:14305   */\n      sstore\n        /* \"#utility.yul\":13704:14315   */\n      pop\n      pop\n      pop\n        /* \"#utility.yul\":13667:14554   */\n    tag_245:\n      pop\n        /* \"#utility.yul\":13257:14560   */\n      pop\n      pop\n      pop\n        /* \"#utility.yul\":13165:14560   */\n      pop\n      pop\n      jump\t// out\n        /* \"#utility.yul\":14566:14746   */\n    tag_47:\n        /* \"#utility.yul\":14614:14691   */\n      0x4e487b7100000000000000000000000000000000000000000000000000000000\n        /* \"#utility.yul\":14611:14612   */\n      0x00\n        /* \"#utility.yul\":14604:14692   */\n      mstore\n        /* \"#utility.yul\":14711:14715   */\n      0x32\n        /* \"#utility.yul\":14708:14709   */\n      0x04\n        /* \"#utility.yul\":14701:14716   */\n      mstore\n        /* \"#utility.yul\":14735:14739   */\n      0x24\n        /* \"#utility.yul\":14732:14733   */\n      0x00\n        /* \"#utility.yul\":14725:14740   */\n      revert\n\n    auxdata: 0xa2646970667358221220deec1d9161a3c238939b739bf8d3b831045247fa769c65607b6a0667309e2e7064736f6c63430008120033\n}\n",
				"bytecode": {
					"linkReferences": {},
					"object": "608060405234801561001057600080fd5b50336000806101000a81548173ffffffffffffffffffffffffffffffffffffffff021916908373ffffffffffffffffffffffffffffffffffffffff160217905550610c4d806100606000396000f3fe608060405234801561001057600080fd5b50600436106100575760003560e01c80633dd26a931461005c5780638da5cb5b1461007a578063a211f1ed14610098578063a87430ba146100b4578063b8d1ab32146100e5575b600080fd5b610064610103565b604051610071919061062b565b60405180910390f35b610082610269565b60405161008f919061068e565b60405180910390f35b6100b260048036038101906100ad9190610744565b61028d565b005b6100ce60048036038101906100c991906107e4565b6103b0565b6040516100dc929190610897565b60405180910390f35b6100ed6103e1565b6040516100fa91906108c0565b60405180910390f35b6060600160008060009054906101000a900473ffffffffffffffffffffffffffffffffffffffff1673ffffffffffffffffffffffffffffffffffffffff1673ffffffffffffffffffffffffffffffffffffffff168152602001908152602001600020600201805480602002602001604051908101604052809291908181526020016000905b82821015610260578382906000526020600020906003020160405180606001604052908160008201548152602001600182015481526020016002820180546101cf9061090a565b80601f01602080910402602001604051908101604052809291908181526020018280546101fb9061090a565b80156102485780601f1061021d57610100808354040283529160200191610248565b820191906000526020600020905b81548152906001019060200180831161022b57829003601f168201915b50505050508152505081526020019060010190610188565b50505050905090565b60008054906101000a900473ffffffffffffffffffffffffffffffffffffffff1681565b6000604051806060016040528086815260200185815260200184848080601f016020809104026020016040519081016040528093929190818152602001838380828437600081840152601f19601f820116905080830192505050505050508152509050600160008060009054906101000a900473ffffffffffffffffffffffffffffffffffffffff1673ffffffffffffffffffffffffffffffffffffffff1673ffffffffffffffffffffffffffffffffffffffff168152602001908152602001600020600201819080600181540180825580915050600190039060005260206000209060030201600090919091909150600082015181600001556020820151816001015560408201518160020190816103a69190610b16565b5050505050505050565b60016020528060005260406000206000915090508060000154908060010160009054906101000a900460ff16905082565b6000600160008060009054906101000a900473ffffffffffffffffffffffffffffffffffffffff1673ffffffffffffffffffffffffffffffffffffffff1673ffffffffffffffffffffffffffffffffffffffff16815260200190815260200160002060020160008154811061045957610458610be8565b5b906000526020600020906003020160000154905090565b600081519050919050565b600082825260208201905092915050565b6000819050602082019050919050565b6000819050919050565b6104af8161049c565b82525050565b600081519050919050565b600082825260208201905092915050565b60005b838110156104ef5780820151818401526020810190506104d4565b60008484015250505050565b6000601f19601f8301169050919050565b6000610517826104b5565b61052181856104c0565b93506105318185602086016104d1565b61053a816104fb565b840191505092915050565b600060608301600083015161055d60008601826104a6565b50602083015161057060208601826104a6565b5060408301518482036040860152610588828261050c565b9150508091505092915050565b60006105a18383610545565b905092915050565b6000602082019050919050565b60006105c182610470565b6105cb818561047b565b9350836020820285016105dd8561048c565b8060005b8581101561061957848403895281516105fa8582610595565b9450610605836105a9565b925060208a019950506001810190506105e1565b50829750879550505050505092915050565b6000602082019050818103600083015261064581846105b6565b905092915050565b600073ffffffffffffffffffffffffffffffffffffffff82169050919050565b60006106788261064d565b9050919050565b6106888161066d565b82525050565b60006020820190506106a3600083018461067f565b92915050565b600080fd5b600080fd5b6106bc8161049c565b81146106c757600080fd5b50565b6000813590506106d9816106b3565b92915050565b600080fd5b600080fd5b600080fd5b60008083601f840112610704576107036106df565b5b8235905067ffffffffffffffff811115610721576107206106e4565b5b60208301915083600182028301111561073d5761073c6106e9565b5b9250929050565b6000806000806060858703121561075e5761075d6106a9565b5b600061076c878288016106ca565b945050602061077d878288016106ca565b935050604085013567ffffffffffffffff81111561079e5761079d6106ae565b5b6107aa878288016106ee565b925092505092959194509250565b6107c18161066d565b81146107cc57600080fd5b50565b6000813590506107de816107b8565b92915050565b6000602082840312156107fa576107f96106a9565b5b6000610808848285016107cf565b91505092915050565b61081a8161049c565b82525050565b7f4e487b7100000000000000000000000000000000000000000000000000000000600052602160045260246000fd5b600281106108605761085f610820565b5b50565b60008190506108718261084f565b919050565b600061088182610863565b9050919050565b61089181610876565b82525050565b60006040820190506108ac6000830185610811565b6108b96020830184610888565b9392505050565b60006020820190506108d56000830184610811565b92915050565b7f4e487b7100000000000000000000000000000000000000000000000000000000600052602260045260246000fd5b6000600282049050600182168061092257607f821691505b602082108103610935576109346108db565b5b50919050565b7f4e487b7100000000000000000000000000000000000000000000000000000000600052604160045260246000fd5b60008190508160005260206000209050919050565b60006020601f8301049050919050565b600082821b905092915050565b6000600883026109cc7fffffffffffffffffffffffffffffffffffffffffffffffffffffffffffffffff8261098f565b6109d6868361098f565b95508019841693508086168417925050509392505050565b6000819050919050565b6000610a13610a0e610a098461049c565b6109ee565b61049c565b9050919050565b6000819050919050565b610a2d836109f8565b610a41610a3982610a1a565b84845461099c565b825550505050565b600090565b610a56610a49565b610a61818484610a24565b505050565b5b81811015610a8557610a7a600082610a4e565b600181019050610a67565b5050565b601f821115610aca57610a9b8161096a565b610aa48461097f565b81016020851015610ab3578190505b610ac7610abf8561097f565b830182610a66565b50505b505050565b600082821c905092915050565b6000610aed60001984600802610acf565b1980831691505092915050565b6000610b068383610adc565b9150826002028217905092915050565b610b1f826104b5565b67ffffffffffffffff811115610b3857610b3761093b565b5b610b42825461090a565b610b4d828285610a89565b600060209050601f831160018114610b805760008415610b6e578287015190505b610b788582610afa565b865550610be0565b601f198416610b8e8661096a565b60005b82811015610bb657848901518255600182019150602085019450602081019050610b91565b86831015610bd35784890151610bcf601f891682610adc565b8355505b6001600288020188555050505b505050505050565b7f4e487b7100000000000000000000000000000000000000000000000000000000600052603260045260246000fdfea2646970667358221220deec1d9161a3c238939b739bf8d3b831045247fa769c65607b6a0667309e2e7064736f6c63430008120033",
					"opcodes": "PUSH1 0x80 PUSH1 0x40 MSTORE CALLVALUE DUP1 ISZERO PUSH2 0x10 JUMPI PUSH1 0x0 DUP1 REVERT JUMPDEST POP CALLER PUSH1 0x0 DUP1 PUSH2 0x100 EXP DUP2 SLOAD DUP2 PUSH20 0xFFFFFFFFFFFFFFFFFFFFFFFFFFFFFFFFFFFFFFFF MUL NOT AND SWAP1 DUP4 PUSH20 0xFFFFFFFFFFFFFFFFFFFFFFFFFFFFFFFFFFFFFFFF AND MUL OR SWAP1 SSTORE POP PUSH2 0xC4D DUP1 PUSH2 0x60 PUSH1 0x0 CODECOPY PUSH1 0x0 RETURN INVALID PUSH1 0x80 PUSH1 0x40 MSTORE CALLVALUE DUP1 ISZERO PUSH2 0x10 JUMPI PUSH1 0x0 DUP1 REVERT JUMPDEST POP PUSH1 0x4 CALLDATASIZE LT PUSH2 0x57 JUMPI PUSH1 0x0 CALLDATALOAD PUSH1 0xE0 SHR DUP1 PUSH4 0x3DD26A93 EQ PUSH2 0x5C JUMPI DUP1 PUSH4 0x8DA5CB5B EQ PUSH2 0x7A JUMPI DUP1 PUSH4 0xA211F1ED EQ PUSH2 0x98 JUMPI DUP1 PUSH4 0xA87430BA EQ PUSH2 0xB4 JUMPI DUP1 PUSH4 0xB8D1AB32 EQ PUSH2 0xE5 JUMPI JUMPDEST PUSH1 0x0 DUP1 REVERT JUMPDEST PUSH2 0x64 PUSH2 0x103 JUMP JUMPDEST PUSH1 0x40 MLOAD PUSH2 0x71 SWAP2 SWAP1 PUSH2 0x62B JUMP JUMPDEST PUSH1 0x40 MLOAD DUP1 SWAP2 SUB SWAP1 RETURN JUMPDEST PUSH2 0x82 PUSH2 0x269 JUMP JUMPDEST PUSH1 0x40 MLOAD PUSH2 0x8F SWAP2 SWAP1 PUSH2 0x68E JUMP JUMPDEST PUSH1 0x40 MLOAD DUP1 SWAP2 SUB SWAP1 RETURN JUMPDEST PUSH2 0xB2 PUSH1 0x4 DUP1 CALLDATASIZE SUB DUP2 ADD SWAP1 PUSH2 0xAD SWAP2 SWAP1 PUSH2 0x744 JUMP JUMPDEST PUSH2 0x28D JUMP JUMPDEST STOP JUMPDEST PUSH2 0xCE PUSH1 0x4 DUP1 CALLDATASIZE SUB DUP2 ADD SWAP1 PUSH2 0xC9 SWAP2 SWAP1 PUSH2 0x7E4 JUMP JUMPDEST PUSH2 0x3B0 JUMP JUMPDEST PUSH1 0x40 MLOAD PUSH2 0xDC SWAP3 SWAP2 SWAP1 PUSH2 0x897 JUMP JUMPDEST PUSH1 0x40 MLOAD DUP1 SWAP2 SUB SWAP1 RETURN JUMPDEST PUSH2 0xED PUSH2 0x3E1 JUMP JUMPDEST PUSH1 0x40 MLOAD PUSH2 0xFA SWAP2 SWAP1 PUSH2 0x8C0 JUMP JUMPDEST PUSH1 0x40 MLOAD DUP1 SWAP2 SUB SWAP1 RETURN JUMPDEST PUSH1 0x60 PUSH1 0x1 PUSH1 0x0 DUP1 PUSH1 0x0 SWAP1 SLOAD SWAP1 PUSH2 0x100 EXP SWAP1 DIV PUSH20 0xFFFFFFFFFFFFFFFFFFFFFFFFFFFFFFFFFFFFFFFF AND PUSH20 0xFFFFFFFFFFFFFFFFFFFFFFFFFFFFFFFFFFFFFFFF AND PUSH20 0xFFFFFFFFFFFFFFFFFFFFFFFFFFFFFFFFFFFFFFFF AND DUP2 MSTORE PUSH1 0x20 ADD SWAP1 DUP2 MSTORE PUSH1 0x20 ADD PUSH1 0x0 KECCAK256 PUSH1 0x2 ADD DUP1 SLOAD DUP1 PUSH1 0x20 MUL PUSH1 0x20 ADD PUSH1 0x40 MLOAD SWAP1 DUP2 ADD PUSH1 0x40 MSTORE DUP1 SWAP3 SWAP2 SWAP1 DUP2 DUP2 MSTORE PUSH1 0x20 ADD PUSH1 0x0 SWAP1 JUMPDEST DUP3 DUP3 LT ISZERO PUSH2 0x260 JUMPI DUP4 DUP3 SWAP1 PUSH1 0x0 MSTORE PUSH1 0x20 PUSH1 0x0 KECCAK256 SWAP1 PUSH1 0x3 MUL ADD PUSH1 0x40 MLOAD DUP1 PUSH1 0x60 ADD PUSH1 0x40 MSTORE SWAP1 DUP2 PUSH1 0x0 DUP3 ADD SLOAD DUP2 MSTORE PUSH1 0x20 ADD PUSH1 0x1 DUP3 ADD SLOAD DUP2 MSTORE PUSH1 0x20 ADD PUSH1 0x2 DUP3 ADD DUP1 SLOAD PUSH2 0x1CF SWAP1 PUSH2 0x90A JUMP JUMPDEST DUP1 PUSH1 0x1F ADD PUSH1 0x20 DUP1 SWAP2 DIV MUL PUSH1 0x20 ADD PUSH1 0x40 MLOAD SWAP1 DUP2 ADD PUSH1 0x40 MSTORE DUP1 SWAP3 SWAP2 SWAP1 DUP2 DUP2 MSTORE PUSH1 0x20 ADD DUP3 DUP1 SLOAD PUSH2 0x1FB SWAP1 PUSH2 0x90A JUMP JUMPDEST DUP1 ISZERO PUSH2 0x248 JUMPI DUP1 PUSH1 0x1F LT PUSH2 0x21D JUMPI PUSH2 0x100 DUP1 DUP4 SLOAD DIV MUL DUP4 MSTORE SWAP2 PUSH1 0x20 ADD SWAP2 PUSH2 0x248 JUMP JUMPDEST DUP3 ADD SWAP2 SWAP1 PUSH1 0x0 MSTORE PUSH1 0x20 PUSH1 0x0 KECCAK256 SWAP1 JUMPDEST DUP2 SLOAD DUP2 MSTORE SWAP1 PUSH1 0x1 ADD SWAP1 PUSH1 0x20 ADD DUP1 DUP4 GT PUSH2 0x22B JUMPI DUP3 SWAP1 SUB PUSH1 0x1F AND DUP3 ADD SWAP2 JUMPDEST POP POP POP POP POP DUP2 MSTORE POP POP DUP2 MSTORE PUSH1 0x20 ADD SWAP1 PUSH1 0x1 ADD SWAP1 PUSH2 0x188 JUMP JUMPDEST POP POP POP POP SWAP1 POP SWAP1 JUMP JUMPDEST PUSH1 0x0 DUP1 SLOAD SWAP1 PUSH2 0x100 EXP SWAP1 DIV PUSH20 0xFFFFFFFFFFFFFFFFFFFFFFFFFFFFFFFFFFFFFFFF AND DUP2 JUMP JUMPDEST PUSH1 0x0 PUSH1 0x40 MLOAD DUP1 PUSH1 0x60 ADD PUSH1 0x40 MSTORE DUP1 DUP7 DUP2 MSTORE PUSH1 0x20 ADD DUP6 DUP2 MSTORE PUSH1 0x20 ADD DUP5 DUP5 DUP1 DUP1 PUSH1 0x1F ADD PUSH1 0x20 DUP1 SWAP2 DIV MUL PUSH1 0x20 ADD PUSH1 0x40 MLOAD SWAP1 DUP2 ADD PUSH1 0x40 MSTORE DUP1 SWAP4 SWAP3 SWAP2 SWAP1 DUP2 DUP2 MSTORE PUSH1 0x20 ADD DUP4 DUP4 DUP1 DUP3 DUP5 CALLDATACOPY PUSH1 0x0 DUP2 DUP5 ADD MSTORE PUSH1 0x1F NOT PUSH1 0x1F DUP3 ADD AND SWAP1 POP DUP1 DUP4 ADD SWAP3 POP POP POP POP POP POP POP DUP2 MSTORE POP SWAP1 POP PUSH1 0x1 PUSH1 0x0 DUP1 PUSH1 0x0 SWAP1 SLOAD SWAP1 PUSH2 0x100 EXP SWAP1 DIV PUSH20 0xFFFFFFFFFFFFFFFFFFFFFFFFFFFFFFFFFFFFFFFF AND PUSH20 0xFFFFFFFFFFFFFFFFFFFFFFFFFFFFFFFFFFFFFFFF AND PUSH20 0xFFFFFFFFFFFFFFFFFFFFFFFFFFFFFFFFFFFFFFFF AND DUP2 MSTORE PUSH1 0x20 ADD SWAP1 DUP2 MSTORE PUSH1 0x20 ADD PUSH1 0x0 KECCAK256 PUSH1 0x2 ADD DUP2 SWAP1 DUP1 PUSH1 0x1 DUP2 SLOAD ADD DUP1 DUP3 SSTORE DUP1 SWAP2 POP POP PUSH1 0x1 SWAP1 SUB SWAP1 PUSH1 0x0 MSTORE PUSH1 0x20 PUSH1 0x0 KECCAK256 SWAP1 PUSH1 0x3 MUL ADD PUSH1 0x0 SWAP1 SWAP2 SWAP1 SWAP2 SWAP1 SWAP2 POP PUSH1 0x0 DUP3 ADD MLOAD DUP2 PUSH1 0x0 ADD SSTORE PUSH1 0x20 DUP3 ADD MLOAD DUP2 PUSH1 0x1 ADD SSTORE PUSH1 0x40 DUP3 ADD MLOAD DUP2 PUSH1 0x2 ADD SWAP1 DUP2 PUSH2 0x3A6 SWAP2 SWAP1 PUSH2 0xB16 JUMP JUMPDEST POP POP POP POP POP POP POP POP JUMP JUMPDEST PUSH1 0x1 PUSH1 0x20 MSTORE DUP1 PUSH1 0x0 MSTORE PUSH1 0x40 PUSH1 0x0 KECCAK256 PUSH1 0x0 SWAP2 POP SWAP1 POP DUP1 PUSH1 0x0 ADD SLOAD SWAP1 DUP1 PUSH1 0x1 ADD PUSH1 0x0 SWAP1 SLOAD SWAP1 PUSH2 0x100 EXP SWAP1 DIV PUSH1 0xFF AND SWAP1 POP DUP3 JUMP JUMPDEST PUSH1 0x0 PUSH1 0x1 PUSH1 0x0 DUP1 PUSH1 0x0 SWAP1 SLOAD SWAP1 PUSH2 0x100 EXP SWAP1 DIV PUSH20 0xFFFFFFFFFFFFFFFFFFFFFFFFFFFFFFFFFFFFFFFF AND PUSH20 0xFFFFFFFFFFFFFFFFFFFFFFFFFFFFFFFFFFFFFFFF AND PUSH20 0xFFFFFFFFFFFFFFFFFFFFFFFFFFFFFFFFFFFFFFFF AND DUP2 MSTORE PUSH1 0x20 ADD SWAP1 DUP2 MSTORE PUSH1 0x20 ADD PUSH1 0x0 KECCAK256 PUSH1 0x2 ADD PUSH1 0x0 DUP2 SLOAD DUP2 LT PUSH2 0x459 JUMPI PUSH2 0x458 PUSH2 0xBE8 JUMP JUMPDEST JUMPDEST SWAP1 PUSH1 0x0 MSTORE PUSH1 0x20 PUSH1 0x0 KECCAK256 SWAP1 PUSH1 0x3 MUL ADD PUSH1 0x0 ADD SLOAD SWAP1 POP SWAP1 JUMP JUMPDEST PUSH1 0x0 DUP2 MLOAD SWAP1 POP SWAP2 SWAP1 POP JUMP JUMPDEST PUSH1 0x0 DUP3 DUP3 MSTORE PUSH1 0x20 DUP3 ADD SWAP1 POP SWAP3 SWAP2 POP POP JUMP JUMPDEST PUSH1 0x0 DUP2 SWAP1 POP PUSH1 0x20 DUP3 ADD SWAP1 POP SWAP2 SWAP1 POP JUMP JUMPDEST PUSH1 0x0 DUP2 SWAP1 POP SWAP2 SWAP1 POP JUMP JUMPDEST PUSH2 0x4AF DUP2 PUSH2 0x49C JUMP JUMPDEST DUP3 MSTORE POP POP JUMP JUMPDEST PUSH1 0x0 DUP2 MLOAD SWAP1 POP SWAP2 SWAP1 POP JUMP JUMPDEST PUSH1 0x0 DUP3 DUP3 MSTORE PUSH1 0x20 DUP3 ADD SWAP1 POP SWAP3 SWAP2 POP POP JUMP JUMPDEST PUSH1 0x0 JUMPDEST DUP4 DUP2 LT ISZERO PUSH2 0x4EF JUMPI DUP1 DUP3 ADD MLOAD DUP2 DUP5 ADD MSTORE PUSH1 0x20 DUP2 ADD SWAP1 POP PUSH2 0x4D4 JUMP JUMPDEST PUSH1 0x0 DUP5 DUP5 ADD MSTORE POP POP POP POP JUMP JUMPDEST PUSH1 0x0 PUSH1 0x1F NOT PUSH1 0x1F DUP4 ADD AND SWAP1 POP SWAP2 SWAP1 POP JUMP JUMPDEST PUSH1 0x0 PUSH2 0x517 DUP3 PUSH2 0x4B5 JUMP JUMPDEST PUSH2 0x521 DUP2 DUP6 PUSH2 0x4C0 JUMP JUMPDEST SWAP4 POP PUSH2 0x531 DUP2 DUP6 PUSH1 0x20 DUP7 ADD PUSH2 0x4D1 JUMP JUMPDEST PUSH2 0x53A DUP2 PUSH2 0x4FB JUMP JUMPDEST DUP5 ADD SWAP2 POP POP SWAP3 SWAP2 POP POP JUMP JUMPDEST PUSH1 0x0 PUSH1 0x60 DUP4 ADD PUSH1 0x0 DUP4 ADD MLOAD PUSH2 0x55D PUSH1 0x0 DUP7 ADD DUP3 PUSH2 0x4A6 JUMP JUMPDEST POP PUSH1 0x20 DUP4 ADD MLOAD PUSH2 0x570 PUSH1 0x20 DUP7 ADD DUP3 PUSH2 0x4A6 JUMP JUMPDEST POP PUSH1 0x40 DUP4 ADD MLOAD DUP5 DUP3 SUB PUSH1 0x40 DUP7 ADD MSTORE PUSH2 0x588 DUP3 DUP3 PUSH2 0x50C JUMP JUMPDEST SWAP2 POP POP DUP1 SWAP2 POP POP SWAP3 SWAP2 POP POP JUMP JUMPDEST PUSH1 0x0 PUSH2 0x5A1 DUP4 DUP4 PUSH2 0x545 JUMP JUMPDEST SWAP1 POP SWAP3 SWAP2 POP POP JUMP JUMPDEST PUSH1 0x0 PUSH1 0x20 DUP3 ADD SWAP1 POP SWAP2 SWAP1 POP JUMP JUMPDEST PUSH1 0x0 PUSH2 0x5C1 DUP3 PUSH2 0x470 JUMP JUMPDEST PUSH2 0x5CB DUP2 DUP6 PUSH2 0x47B JUMP JUMPDEST SWAP4 POP DUP4 PUSH1 0x20 DUP3 MUL DUP6 ADD PUSH2 0x5DD DUP6 PUSH2 0x48C JUMP JUMPDEST DUP1 PUSH1 0x0 JUMPDEST DUP6 DUP2 LT ISZERO PUSH2 0x619 JUMPI DUP5 DUP5 SUB DUP10 MSTORE DUP2 MLOAD PUSH2 0x5FA DUP6 DUP3 PUSH2 0x595 JUMP JUMPDEST SWAP5 POP PUSH2 0x605 DUP4 PUSH2 0x5A9 JUMP JUMPDEST SWAP3 POP PUSH1 0x20 DUP11 ADD SWAP10 POP POP PUSH1 0x1 DUP2 ADD SWAP1 POP PUSH2 0x5E1 JUMP JUMPDEST POP DUP3 SWAP8 POP DUP8 SWAP6 POP POP POP POP POP POP SWAP3 SWAP2 POP POP JUMP JUMPDEST PUSH1 0x0 PUSH1 0x20 DUP3 ADD SWAP1 POP DUP2 DUP2 SUB PUSH1 0x0 DUP4 ADD MSTORE PUSH2 0x645 DUP2 DUP5 PUSH2 0x5B6 JUMP JUMPDEST SWAP1 POP SWAP3 SWAP2 POP POP JUMP JUMPDEST PUSH1 0x0 PUSH20 0xFFFFFFFFFFFFFFFFFFFFFFFFFFFFFFFFFFFFFFFF DUP3 AND SWAP1 POP SWAP2 SWAP1 POP JUMP JUMPDEST PUSH1 0x0 PUSH2 0x678 DUP3 PUSH2 0x64D JUMP JUMPDEST SWAP1 POP SWAP2 SWAP1 POP JUMP JUMPDEST PUSH2 0x688 DUP2 PUSH2 0x66D JUMP JUMPDEST DUP3 MSTORE POP POP JUMP JUMPDEST PUSH1 0x0 PUSH1 0x20 DUP3 ADD SWAP1 POP PUSH2 0x6A3 PUSH1 0x0 DUP4 ADD DUP5 PUSH2 0x67F JUMP JUMPDEST SWAP3 SWAP2 POP POP JUMP JUMPDEST PUSH1 0x0 DUP1 REVERT JUMPDEST PUSH1 0x0 DUP1 REVERT JUMPDEST PUSH2 0x6BC DUP2 PUSH2 0x49C JUMP JUMPDEST DUP2 EQ PUSH2 0x6C7 JUMPI PUSH1 0x0 DUP1 REVERT JUMPDEST POP JUMP JUMPDEST PUSH1 0x0 DUP2 CALLDATALOAD SWAP1 POP PUSH2 0x6D9 DUP2 PUSH2 0x6B3 JUMP JUMPDEST SWAP3 SWAP2 POP POP JUMP JUMPDEST PUSH1 0x0 DUP1 REVERT JUMPDEST PUSH1 0x0 DUP1 REVERT JUMPDEST PUSH1 0x0 DUP1 REVERT JUMPDEST PUSH1 0x0 DUP1 DUP4 PUSH1 0x1F DUP5 ADD SLT PUSH2 0x704 JUMPI PUSH2 0x703 PUSH2 0x6DF JUMP JUMPDEST JUMPDEST DUP3 CALLDATALOAD SWAP1 POP PUSH8 0xFFFFFFFFFFFFFFFF DUP2 GT ISZERO PUSH2 0x721 JUMPI PUSH2 0x720 PUSH2 0x6E4 JUMP JUMPDEST JUMPDEST PUSH1 0x20 DUP4 ADD SWAP2 POP DUP4 PUSH1 0x1 DUP3 MUL DUP4 ADD GT ISZERO PUSH2 0x73D JUMPI PUSH2 0x73C PUSH2 0x6E9 JUMP JUMPDEST JUMPDEST SWAP3 POP SWAP3 SWAP1 POP JUMP JUMPDEST PUSH1 0x0 DUP1 PUSH1 0x0 DUP1 PUSH1 0x60 DUP6 DUP8 SUB SLT ISZERO PUSH2 0x75E JUMPI PUSH2 0x75D PUSH2 0x6A9 JUMP JUMPDEST JUMPDEST PUSH1 0x0 PUSH2 0x76C DUP8 DUP3 DUP9 ADD PUSH2 0x6CA JUMP JUMPDEST SWAP5 POP POP PUSH1 0x20 PUSH2 0x77D DUP8 DUP3 DUP9 ADD PUSH2 0x6CA JUMP JUMPDEST SWAP4 POP POP PUSH1 0x40 DUP6 ADD CALLDATALOAD PUSH8 0xFFFFFFFFFFFFFFFF DUP2 GT ISZERO PUSH2 0x79E JUMPI PUSH2 0x79D PUSH2 0x6AE JUMP JUMPDEST JUMPDEST PUSH2 0x7AA DUP8 DUP3 DUP9 ADD PUSH2 0x6EE JUMP JUMPDEST SWAP3 POP SWAP3 POP POP SWAP3 SWAP6 SWAP2 SWAP5 POP SWAP3 POP JUMP JUMPDEST PUSH2 0x7C1 DUP2 PUSH2 0x66D JUMP JUMPDEST DUP2 EQ PUSH2 0x7CC JUMPI PUSH1 0x0 DUP1 REVERT JUMPDEST POP JUMP JUMPDEST PUSH1 0x0 DUP2 CALLDATALOAD SWAP1 POP PUSH2 0x7DE DUP2 PUSH2 0x7B8 JUMP JUMPDEST SWAP3 SWAP2 POP POP JUMP JUMPDEST PUSH1 0x0 PUSH1 0x20 DUP3 DUP5 SUB SLT ISZERO PUSH2 0x7FA JUMPI PUSH2 0x7F9 PUSH2 0x6A9 JUMP JUMPDEST JUMPDEST PUSH1 0x0 PUSH2 0x808 DUP5 DUP3 DUP6 ADD PUSH2 0x7CF JUMP JUMPDEST SWAP2 POP POP SWAP3 SWAP2 POP POP JUMP JUMPDEST PUSH2 0x81A DUP2 PUSH2 0x49C JUMP JUMPDEST DUP3 MSTORE POP POP JUMP JUMPDEST PUSH32 0x4E487B7100000000000000000000000000000000000000000000000000000000 PUSH1 0x0 MSTORE PUSH1 0x21 PUSH1 0x4 MSTORE PUSH1 0x24 PUSH1 0x0 REVERT JUMPDEST PUSH1 0x2 DUP2 LT PUSH2 0x860 JUMPI PUSH2 0x85F PUSH2 0x820 JUMP JUMPDEST JUMPDEST POP JUMP JUMPDEST PUSH1 0x0 DUP2 SWAP1 POP PUSH2 0x871 DUP3 PUSH2 0x84F JUMP JUMPDEST SWAP2 SWAP1 POP JUMP JUMPDEST PUSH1 0x0 PUSH2 0x881 DUP3 PUSH2 0x863 JUMP JUMPDEST SWAP1 POP SWAP2 SWAP1 POP JUMP JUMPDEST PUSH2 0x891 DUP2 PUSH2 0x876 JUMP JUMPDEST DUP3 MSTORE POP POP JUMP JUMPDEST PUSH1 0x0 PUSH1 0x40 DUP3 ADD SWAP1 POP PUSH2 0x8AC PUSH1 0x0 DUP4 ADD DUP6 PUSH2 0x811 JUMP JUMPDEST PUSH2 0x8B9 PUSH1 0x20 DUP4 ADD DUP5 PUSH2 0x888 JUMP JUMPDEST SWAP4 SWAP3 POP POP POP JUMP JUMPDEST PUSH1 0x0 PUSH1 0x20 DUP3 ADD SWAP1 POP PUSH2 0x8D5 PUSH1 0x0 DUP4 ADD DUP5 PUSH2 0x811 JUMP JUMPDEST SWAP3 SWAP2 POP POP JUMP JUMPDEST PUSH32 0x4E487B7100000000000000000000000000000000000000000000000000000000 PUSH1 0x0 MSTORE PUSH1 0x22 PUSH1 0x4 MSTORE PUSH1 0x24 PUSH1 0x0 REVERT JUMPDEST PUSH1 0x0 PUSH1 0x2 DUP3 DIV SWAP1 POP PUSH1 0x1 DUP3 AND DUP1 PUSH2 0x922 JUMPI PUSH1 0x7F DUP3 AND SWAP2 POP JUMPDEST PUSH1 0x20 DUP3 LT DUP2 SUB PUSH2 0x935 JUMPI PUSH2 0x934 PUSH2 0x8DB JUMP JUMPDEST JUMPDEST POP SWAP2 SWAP1 POP JUMP JUMPDEST PUSH32 0x4E487B7100000000000000000000000000000000000000000000000000000000 PUSH1 0x0 MSTORE PUSH1 0x41 PUSH1 0x4 MSTORE PUSH1 0x24 PUSH1 0x0 REVERT JUMPDEST PUSH1 0x0 DUP2 SWAP1 POP DUP2 PUSH1 0x0 MSTORE PUSH1 0x20 PUSH1 0x0 KECCAK256 SWAP1 POP SWAP2 SWAP1 POP JUMP JUMPDEST PUSH1 0x0 PUSH1 0x20 PUSH1 0x1F DUP4 ADD DIV SWAP1 POP SWAP2 SWAP1 POP JUMP JUMPDEST PUSH1 0x0 DUP3 DUP3 SHL SWAP1 POP SWAP3 SWAP2 POP POP JUMP JUMPDEST PUSH1 0x0 PUSH1 0x8 DUP4 MUL PUSH2 0x9CC PUSH32 0xFFFFFFFFFFFFFFFFFFFFFFFFFFFFFFFFFFFFFFFFFFFFFFFFFFFFFFFFFFFFFFFF DUP3 PUSH2 0x98F JUMP JUMPDEST PUSH2 0x9D6 DUP7 DUP4 PUSH2 0x98F JUMP JUMPDEST SWAP6 POP DUP1 NOT DUP5 AND SWAP4 POP DUP1 DUP7 AND DUP5 OR SWAP3 POP POP POP SWAP4 SWAP3 POP POP POP JUMP JUMPDEST PUSH1 0x0 DUP2 SWAP1 POP SWAP2 SWAP1 POP JUMP JUMPDEST PUSH1 0x0 PUSH2 0xA13 PUSH2 0xA0E PUSH2 0xA09 DUP5 PUSH2 0x49C JUMP JUMPDEST PUSH2 0x9EE JUMP JUMPDEST PUSH2 0x49C JUMP JUMPDEST SWAP1 POP SWAP2 SWAP1 POP JUMP JUMPDEST PUSH1 0x0 DUP2 SWAP1 POP SWAP2 SWAP1 POP JUMP JUMPDEST PUSH2 0xA2D DUP4 PUSH2 0x9F8 JUMP JUMPDEST PUSH2 0xA41 PUSH2 0xA39 DUP3 PUSH2 0xA1A JUMP JUMPDEST DUP5 DUP5 SLOAD PUSH2 0x99C JUMP JUMPDEST DUP3 SSTORE POP POP POP POP JUMP JUMPDEST PUSH1 0x0 SWAP1 JUMP JUMPDEST PUSH2 0xA56 PUSH2 0xA49 JUMP JUMPDEST PUSH2 0xA61 DUP2 DUP5 DUP5 PUSH2 0xA24 JUMP JUMPDEST POP POP POP JUMP JUMPDEST JUMPDEST DUP2 DUP2 LT ISZERO PUSH2 0xA85 JUMPI PUSH2 0xA7A PUSH1 0x0 DUP3 PUSH2 0xA4E JUMP JUMPDEST PUSH1 0x1 DUP2 ADD SWAP1 POP PUSH2 0xA67 JUMP JUMPDEST POP POP JUMP JUMPDEST PUSH1 0x1F DUP3 GT ISZERO PUSH2 0xACA JUMPI PUSH2 0xA9B DUP2 PUSH2 0x96A JUMP JUMPDEST PUSH2 0xAA4 DUP5 PUSH2 0x97F JUMP JUMPDEST DUP2 ADD PUSH1 0x20 DUP6 LT ISZERO PUSH2 0xAB3 JUMPI DUP2 SWAP1 POP JUMPDEST PUSH2 0xAC7 PUSH2 0xABF DUP6 PUSH2 0x97F JUMP JUMPDEST DUP4 ADD DUP3 PUSH2 0xA66 JUMP JUMPDEST POP POP JUMPDEST POP POP POP JUMP JUMPDEST PUSH1 0x0 DUP3 DUP3 SHR SWAP1 POP SWAP3 SWAP2 POP POP JUMP JUMPDEST PUSH1 0x0 PUSH2 0xAED PUSH1 0x0 NOT DUP5 PUSH1 0x8 MUL PUSH2 0xACF JUMP JUMPDEST NOT DUP1 DUP4 AND SWAP2 POP POP SWAP3 SWAP2 POP POP JUMP JUMPDEST PUSH1 0x0 PUSH2 0xB06 DUP4 DUP4 PUSH2 0xADC JUMP JUMPDEST SWAP2 POP DUP3 PUSH1 0x2 MUL DUP3 OR SWAP1 POP SWAP3 SWAP2 POP POP JUMP JUMPDEST PUSH2 0xB1F DUP3 PUSH2 0x4B5 JUMP JUMPDEST PUSH8 0xFFFFFFFFFFFFFFFF DUP2 GT ISZERO PUSH2 0xB38 JUMPI PUSH2 0xB37 PUSH2 0x93B JUMP JUMPDEST JUMPDEST PUSH2 0xB42 DUP3 SLOAD PUSH2 0x90A JUMP JUMPDEST PUSH2 0xB4D DUP3 DUP3 DUP6 PUSH2 0xA89 JUMP JUMPDEST PUSH1 0x0 PUSH1 0x20 SWAP1 POP PUSH1 0x1F DUP4 GT PUSH1 0x1 DUP2 EQ PUSH2 0xB80 JUMPI PUSH1 0x0 DUP5 ISZERO PUSH2 0xB6E JUMPI DUP3 DUP8 ADD MLOAD SWAP1 POP JUMPDEST PUSH2 0xB78 DUP6 DUP3 PUSH2 0xAFA JUMP JUMPDEST DUP7 SSTORE POP PUSH2 0xBE0 JUMP JUMPDEST PUSH1 0x1F NOT DUP5 AND PUSH2 0xB8E DUP7 PUSH2 0x96A JUMP JUMPDEST PUSH1 0x0 JUMPDEST DUP3 DUP2 LT ISZERO PUSH2 0xBB6 JUMPI DUP5 DUP10 ADD MLOAD DUP3 SSTORE PUSH1 0x1 DUP3 ADD SWAP2 POP PUSH1 0x20 DUP6 ADD SWAP5 POP PUSH1 0x20 DUP2 ADD SWAP1 POP PUSH2 0xB91 JUMP JUMPDEST DUP7 DUP4 LT ISZERO PUSH2 0xBD3 JUMPI DUP5 DUP10 ADD MLOAD PUSH2 0xBCF PUSH1 0x1F DUP10 AND DUP3 PUSH2 0xADC JUMP JUMPDEST DUP4 SSTORE POP JUMPDEST PUSH1 0x1 PUSH1 0x2 DUP9 MUL ADD DUP9 SSTORE POP POP POP JUMPDEST POP POP POP POP POP POP JUMP JUMPDEST PUSH32 0x4E487B7100000000000000000000000000000000000000000000000000000000 PUSH1 0x0 MSTORE PUSH1 0x32 PUSH1 0x4 MSTORE PUSH1 0x24 PUSH1 0x0 REVERT INVALID LOG2 PUSH5 0x6970667358 0x22 SLT KECCAK256 0xDE 0xEC SAR SWAP2 PUSH2 0xA3C2 CODESIZE SWAP4 SWAP12 PUSH20 0x9BF8D3B831045247FA769C65607B6A0667309E2E PUSH17 0x64736F6C63430008120033000000000000 "
				},
				"gasEstimates": {
					"creation": {
						"codeDepositCost": "629800",
						"executionCost": "24930",
						"totalCost": "654730"
					},
					"external": {
						"addItems(uint256,uint256,string)": "infinite",
						"owner()": "2511",
						"showInStock()": "6932",
						"showItems()": "infinite",
						"users(address)": "5215"
					}
				},
				"methodIdentifiers": {
					"addItems(uint256,uint256,string)": "a211f1ed",
					"owner()": "8da5cb5b",
					"showInStock()": "b8d1ab32",
					"showItems()": "3dd26a93",
					"users(address)": "a87430ba"
				}
			},
			"storageLayout": {
				"storage": [
					{
						"astId": 3,
						"contract": "contracts/Test.sol:Test",
						"label": "owner",
						"offset": 0,
						"slot": "0",
						"type": "t_address"
					},
					{
						"astId": 28,
						"contract": "contracts/Test.sol:Test",
						"label": "users",
						"offset": 0,
						"slot": "1",
						"type": "t_mapping(t_address,t_struct(User)16_storage)"
					}
				],
				"types": {
					"t_address": {
						"encoding": "inplace",
						"label": "address",
						"numberOfBytes": "20"
					},
					"t_array(t_struct(Product)23_storage)dyn_storage": {
						"base": "t_struct(Product)23_storage",
						"encoding": "dynamic_array",
						"label": "struct Test.Product[]",
						"numberOfBytes": "32"
					},
					"t_enum(Role)6": {
						"encoding": "inplace",
						"label": "enum Test.Role",
						"numberOfBytes": "1"
					},
					"t_mapping(t_address,t_struct(User)16_storage)": {
						"encoding": "mapping",
						"key": "t_address",
						"label": "mapping(address => struct Test.User)",
						"numberOfBytes": "32",
						"value": "t_struct(User)16_storage"
					},
					"t_string_storage": {
						"encoding": "bytes",
						"label": "string",
						"numberOfBytes": "32"
					},
					"t_struct(Product)23_storage": {
						"encoding": "inplace",
						"label": "struct Test.Product",
						"members": [
							{
								"astId": 18,
								"contract": "contracts/Test.sol:Test",
								"label": "inStock",
								"offset": 0,
								"slot": "0",
								"type": "t_uint256"
							},
							{
								"astId": 20,
								"contract": "contracts/Test.sol:Test",
								"label": "price",
								"offset": 0,
								"slot": "1",
								"type": "t_uint256"
							},
							{
								"astId": 22,
								"contract": "contracts/Test.sol:Test",
								"label": "name",
								"offset": 0,
								"slot": "2",
								"type": "t_string_storage"
							}
						],
						"numberOfBytes": "96"
					},
					"t_struct(User)16_storage": {
						"encoding": "inplace",
						"label": "struct Test.User",
						"members": [
							{
								"astId": 8,
								"contract": "contracts/Test.sol:Test",
								"label": "purchased",
								"offset": 0,
								"slot": "0",
								"type": "t_uint256"
							},
							{
								"astId": 11,
								"contract": "contracts/Test.sol:Test",
								"label": "role",
								"offset": 0,
								"slot": "1",
								"type": "t_enum(Role)6"
							},
							{
								"astId": 15,
								"contract": "contracts/Test.sol:Test",
								"label": "product",
								"offset": 0,
								"slot": "2",
								"type": "t_array(t_struct(Product)23_storage)dyn_storage"
							}
						],
						"numberOfBytes": "96"
					},
					"t_uint256": {
						"encoding": "inplace",
						"label": "uint256",
						"numberOfBytes": "32"
					}
				}
			},
			"userdoc": {
				"kind": "user",
				"methods": {},
				"version": 1
			}
		}
	}
}