{
	"contracts/MarketPlace.sol": {
		"MarketPlace": {
			"abi": [
				{
					"inputs": [],
					"stateMutability": "nonpayable",
					"type": "constructor"
				},
				{
					"inputs": [
						{
							"internalType": "uint256",
							"name": "_inStock",
							"type": "uint256"
						},
						{
							"internalType": "uint256",
							"name": "_price",
							"type": "uint256"
						},
						{
							"internalType": "string",
							"name": "_name",
							"type": "string"
						},
						{
							"internalType": "uint256",
							"name": "_expDate",
							"type": "uint256"
						},
						{
							"internalType": "address",
							"name": "_addressSupp",
							"type": "address"
						}
					],
					"name": "addItemsSupplier",
					"outputs": [],
					"stateMutability": "nonpayable",
					"type": "function"
				},
				{
					"inputs": [
						{
							"internalType": "uint256",
							"name": "_idTicket",
							"type": "uint256"
						}
					],
					"name": "approveChangeRole",
					"outputs": [],
					"stateMutability": "nonpayable",
					"type": "function"
				},
				{
					"inputs": [
						{
							"internalType": "enum MarketPlace.Role",
							"name": "_role",
							"type": "uint8"
						}
					],
					"name": "changeRole",
					"outputs": [],
					"stateMutability": "nonpayable",
					"type": "function"
				},
				{
					"inputs": [
						{
							"internalType": "string",
							"name": "_nameRef",
							"type": "string"
						},
						{
							"internalType": "address",
							"name": "_user",
							"type": "address"
						}
					],
					"name": "genRef",
					"outputs": [],
					"stateMutability": "nonpayable",
					"type": "function"
				},
				{
					"inputs": [],
					"name": "makeMarket",
					"outputs": [],
					"stateMutability": "nonpayable",
					"type": "function"
				},
				{
					"inputs": [],
					"name": "makeSupplier",
					"outputs": [],
					"stateMutability": "nonpayable",
					"type": "function"
				},
				{
					"inputs": [],
					"name": "makeUser",
					"outputs": [],
					"stateMutability": "nonpayable",
					"type": "function"
				},
				{
					"inputs": [],
					"name": "owner",
					"outputs": [
						{
							"internalType": "address",
							"name": "",
							"type": "address"
						}
					],
					"stateMutability": "view",
					"type": "function"
				},
				{
					"inputs": [
						{
							"internalType": "address",
							"name": "_shop",
							"type": "address"
						},
						{
							"internalType": "uint256",
							"name": "_amount",
							"type": "uint256"
						},
						{
							"internalType": "uint256",
							"name": "_id",
							"type": "uint256"
						},
						{
							"internalType": "string",
							"name": "_ref",
							"type": "string"
						}
					],
					"name": "purchase",
					"outputs": [],
					"stateMutability": "payable",
					"type": "function"
				},
				{
					"inputs": [
						{
							"internalType": "uint256",
							"name": "_modulus",
							"type": "uint256"
						}
					],
					"name": "randMod",
					"outputs": [
						{
							"internalType": "uint256",
							"name": "",
							"type": "uint256"
						}
					],
					"stateMutability": "view",
					"type": "function"
				},
				{
					"inputs": [
						{
							"internalType": "string",
							"name": "",
							"type": "string"
						}
					],
					"name": "referrals",
					"outputs": [
						{
							"internalType": "address",
							"name": "",
							"type": "address"
						}
					],
					"stateMutability": "view",
					"type": "function"
				},
				{
					"inputs": [
						{
							"internalType": "address",
							"name": "_shop",
							"type": "address"
						},
						{
							"internalType": "uint256",
							"name": "_productId",
							"type": "uint256"
						},
						{
							"internalType": "uint256",
							"name": "_amount",
							"type": "uint256"
						},
						{
							"internalType": "address",
							"name": "_supplier",
							"type": "address"
						}
					],
					"name": "refillStore",
					"outputs": [],
					"stateMutability": "payable",
					"type": "function"
				},
				{
					"inputs": [
						{
							"internalType": "address",
							"name": "_shop",
							"type": "address"
						},
						{
							"internalType": "uint256",
							"name": "_productId",
							"type": "uint256"
						}
					],
					"name": "refund",
					"outputs": [],
					"stateMutability": "nonpayable",
					"type": "function"
				},
				{
					"inputs": [
						{
							"internalType": "uint256",
							"name": "",
							"type": "uint256"
						}
					],
					"name": "tickets",
					"outputs": [
						{
							"internalType": "address",
							"name": "userAddr",
							"type": "address"
						},
						{
							"internalType": "enum MarketPlace.Role",
							"name": "role",
							"type": "uint8"
						}
					],
					"stateMutability": "view",
					"type": "function"
				},
				{
					"inputs": [
						{
							"internalType": "address",
							"name": "",
							"type": "address"
						},
						{
							"internalType": "uint256",
							"name": "",
							"type": "uint256"
						}
					],
					"name": "userProducts",
					"outputs": [
						{
							"internalType": "uint256",
							"name": "inStock",
							"type": "uint256"
						},
						{
							"internalType": "uint256",
							"name": "price",
							"type": "uint256"
						},
						{
							"internalType": "string",
							"name": "name",
							"type": "string"
						},
						{
							"internalType": "uint256",
							"name": "expDate",
							"type": "uint256"
						}
					],
					"stateMutability": "view",
					"type": "function"
				},
				{
					"inputs": [
						{
							"internalType": "address",
							"name": "",
							"type": "address"
						}
					],
					"name": "users",
					"outputs": [
						{
							"internalType": "enum MarketPlace.Role",
							"name": "role",
							"type": "uint8"
						},
						{
							"internalType": "uint256",
							"name": "balance",
							"type": "uint256"
						}
					],
					"stateMutability": "view",
					"type": "function"
				},
				{
					"inputs": [
						{
							"internalType": "address",
							"name": "_shop",
							"type": "address"
						}
					],
					"name": "withdrawBal",
					"outputs": [],
					"stateMutability": "nonpayable",
					"type": "function"
				}
			],
			"devdoc": {
				"kind": "dev",
				"methods": {},
				"version": 1
			},
			"evm": {
				"assembly": "    /* \"contracts/MarketPlace.sol\":60:5844  contract MarketPlace {... */\n  mstore(0x40, 0x80)\n    /* \"contracts/MarketPlace.sol\":185:234  constructor() {... */\n  callvalue\n  dup1\n  iszero\n  tag_1\n  jumpi\n  0x00\n  dup1\n  revert\ntag_1:\n  pop\n    /* \"contracts/MarketPlace.sol\":217:227  msg.sender */\n  caller\n    /* \"contracts/MarketPlace.sol\":209:214  owner */\n  0x01\n  0x00\n    /* \"contracts/MarketPlace.sol\":209:227  owner = msg.sender */\n  0x0100\n  exp\n  dup2\n  sload\n  dup2\n  0xffffffffffffffffffffffffffffffffffffffff\n  mul\n  not\n  and\n  swap1\n  dup4\n  0xffffffffffffffffffffffffffffffffffffffff\n  and\n  mul\n  or\n  swap1\n  sstore\n  pop\n    /* \"contracts/MarketPlace.sol\":60:5844  contract MarketPlace {... */\n  dataSize(sub_0)\n  dup1\n  dataOffset(sub_0)\n  0x00\n  codecopy\n  0x00\n  return\nstop\n\nsub_0: assembly {\n        /* \"contracts/MarketPlace.sol\":60:5844  contract MarketPlace {... */\n      mstore(0x40, 0x80)\n      jumpi(tag_1, lt(calldatasize, 0x04))\n      shr(0xe0, calldataload(0x00))\n      dup1\n      0x861c2b6d\n      gt\n      tag_19\n      jumpi\n      dup1\n      0xa87430ba\n      gt\n      tag_20\n      jumpi\n      dup1\n      0xa87430ba\n      eq\n      tag_14\n      jumpi\n      dup1\n      0xd18a524a\n      eq\n      tag_15\n      jumpi\n      dup1\n      0xd55768dd\n      eq\n      tag_16\n      jumpi\n      dup1\n      0xf67a2ad1\n      eq\n      tag_17\n      jumpi\n      dup1\n      0xfecd8f79\n      eq\n      tag_18\n      jumpi\n      jump(tag_1)\n    tag_20:\n      dup1\n      0x861c2b6d\n      eq\n      tag_10\n      jumpi\n      dup1\n      0x8da5cb5b\n      eq\n      tag_11\n      jumpi\n      dup1\n      0x9f1cd587\n      eq\n      tag_12\n      jumpi\n      dup1\n      0xa1ba90b6\n      eq\n      tag_13\n      jumpi\n      jump(tag_1)\n    tag_19:\n      dup1\n      0x55dea0b3\n      gt\n      tag_21\n      jumpi\n      dup1\n      0x55dea0b3\n      eq\n      tag_6\n      jumpi\n      dup1\n      0x66d0dc67\n      eq\n      tag_7\n      jumpi\n      dup1\n      0x6f764708\n      eq\n      tag_8\n      jumpi\n      dup1\n      0x805553e8\n      eq\n      tag_9\n      jumpi\n      jump(tag_1)\n    tag_21:\n      dup1\n      0x3d527883\n      eq\n      tag_2\n      jumpi\n      dup1\n      0x3dfe7dee\n      eq\n      tag_3\n      jumpi\n      dup1\n      0x410085df\n      eq\n      tag_4\n      jumpi\n      dup1\n      0x50b44712\n      eq\n      tag_5\n      jumpi\n    tag_1:\n      0x00\n      dup1\n      revert\n        /* \"contracts/MarketPlace.sol\":534:583  mapping(address => Product[]) public userProducts */\n    tag_2:\n      callvalue\n      dup1\n      iszero\n      tag_22\n      jumpi\n      0x00\n      dup1\n      revert\n    tag_22:\n      pop\n      tag_23\n      0x04\n      dup1\n      calldatasize\n      sub\n      dup2\n      add\n      swap1\n      tag_24\n      swap2\n      swap1\n      tag_25\n      jump\t// in\n    tag_24:\n      tag_26\n      jump\t// in\n    tag_23:\n      mload(0x40)\n      tag_27\n      swap5\n      swap4\n      swap3\n      swap2\n      swap1\n      tag_28\n      jump\t// in\n    tag_27:\n      mload(0x40)\n      dup1\n      swap2\n      sub\n      swap1\n      return\n        /* \"contracts/MarketPlace.sol\":1130:1220  function makeSupplier() public {... */\n    tag_3:\n      callvalue\n      dup1\n      iszero\n      tag_29\n      jumpi\n      0x00\n      dup1\n      revert\n    tag_29:\n      pop\n      tag_30\n      tag_31\n      jump\t// in\n    tag_30:\n      stop\n        /* \"contracts/MarketPlace.sol\":3616:4153  function refund(address _shop, uint _productId) public {... */\n    tag_4:\n      callvalue\n      dup1\n      iszero\n      tag_32\n      jumpi\n      0x00\n      dup1\n      revert\n    tag_32:\n      pop\n      tag_33\n      0x04\n      dup1\n      calldatasize\n      sub\n      dup2\n      add\n      swap1\n      tag_34\n      swap2\n      swap1\n      tag_25\n      jump\t// in\n    tag_34:\n      tag_35\n      jump\t// in\n    tag_33:\n      stop\n        /* \"contracts/MarketPlace.sol\":129:152  Ticket[] public tickets */\n    tag_5:\n      callvalue\n      dup1\n      iszero\n      tag_36\n      jumpi\n      0x00\n      dup1\n      revert\n    tag_36:\n      pop\n      tag_37\n      0x04\n      dup1\n      calldatasize\n      sub\n      dup2\n      add\n      swap1\n      tag_38\n      swap2\n      swap1\n      tag_39\n      jump\t// in\n    tag_38:\n      tag_40\n      jump\t// in\n    tag_37:\n      mload(0x40)\n      tag_41\n      swap3\n      swap2\n      swap1\n      tag_42\n      jump\t// in\n    tag_41:\n      mload(0x40)\n      dup1\n      swap2\n      sub\n      swap1\n      return\n        /* \"contracts/MarketPlace.sol\":1544:1639  function changeRole(Role _role) public {... */\n    tag_6:\n      callvalue\n      dup1\n      iszero\n      tag_43\n      jumpi\n      0x00\n      dup1\n      revert\n    tag_43:\n      pop\n      tag_44\n      0x04\n      dup1\n      calldatasize\n      sub\n      dup2\n      add\n      swap1\n      tag_45\n      swap2\n      swap1\n      tag_46\n      jump\t// in\n    tag_45:\n      tag_47\n      jump\t// in\n    tag_44:\n      stop\n        /* \"contracts/MarketPlace.sol\":1226:1313  function makeMarket() public  {... */\n    tag_7:\n      callvalue\n      dup1\n      iszero\n      tag_48\n      jumpi\n      0x00\n      dup1\n      revert\n    tag_48:\n      pop\n      tag_49\n      tag_50\n      jump\t// in\n    tag_49:\n      stop\n        /* \"contracts/MarketPlace.sol\":1319:1538  function approveChangeRole(uint _idTicket) public OnlyOwner {... */\n    tag_8:\n      callvalue\n      dup1\n      iszero\n      tag_51\n      jumpi\n      0x00\n      dup1\n      revert\n    tag_51:\n      pop\n      tag_52\n      0x04\n      dup1\n      calldatasize\n      sub\n      dup2\n      add\n      swap1\n      tag_53\n      swap2\n      swap1\n      tag_39\n      jump\t// in\n    tag_53:\n      tag_54\n      jump\t// in\n    tag_52:\n      stop\n        /* \"contracts/MarketPlace.sol\":1645:1857  function randMod(uint _modulus) public view returns(uint) {   ... */\n    tag_9:\n      callvalue\n      dup1\n      iszero\n      tag_55\n      jumpi\n      0x00\n      dup1\n      revert\n    tag_55:\n      pop\n      tag_56\n      0x04\n      dup1\n      calldatasize\n      sub\n      dup2\n      add\n      swap1\n      tag_57\n      swap2\n      swap1\n      tag_39\n      jump\t// in\n    tag_57:\n      tag_58\n      jump\t// in\n    tag_56:\n      mload(0x40)\n      tag_59\n      swap2\n      swap1\n      tag_60\n      jump\t// in\n    tag_59:\n      mload(0x40)\n      dup1\n      swap2\n      sub\n      swap1\n      return\n        /* \"contracts/MarketPlace.sol\":2014:2310  function addItemsSupplier(uint _inStock, uint _price, string calldata _name, uint _expDate, address _addressSupp) public AccessControl(Role.Supplier, _addressSupp) {... */\n    tag_10:\n      callvalue\n      dup1\n      iszero\n      tag_61\n      jumpi\n      0x00\n      dup1\n      revert\n    tag_61:\n      pop\n      tag_62\n      0x04\n      dup1\n      calldatasize\n      sub\n      dup2\n      add\n      swap1\n      tag_63\n      swap2\n      swap1\n      tag_64\n      jump\t// in\n    tag_63:\n      tag_65\n      jump\t// in\n    tag_62:\n      stop\n        /* \"contracts/MarketPlace.sol\":158:178  address public owner */\n    tag_11:\n      callvalue\n      dup1\n      iszero\n      tag_66\n      jumpi\n      0x00\n      dup1\n      revert\n    tag_66:\n      pop\n      tag_67\n      tag_68\n      jump\t// in\n    tag_67:\n      mload(0x40)\n      tag_69\n      swap2\n      swap1\n      tag_70\n      jump\t// in\n    tag_69:\n      mload(0x40)\n      dup1\n      swap2\n      sub\n      swap1\n      return\n        /* \"contracts/MarketPlace.sol\":4159:5731  function purchase(address _shop, uint _amount, uint _id, string memory _ref ) public payable {... */\n    tag_12:\n      tag_71\n      0x04\n      dup1\n      calldatasize\n      sub\n      dup2\n      add\n      swap1\n      tag_72\n      swap2\n      swap1\n      tag_73\n      jump\t// in\n    tag_72:\n      tag_74\n      jump\t// in\n    tag_71:\n      stop\n        /* \"contracts/MarketPlace.sol\":1863:2007  function genRef(string memory _nameRef, address _user) public {... */\n    tag_13:\n      callvalue\n      dup1\n      iszero\n      tag_75\n      jumpi\n      0x00\n      dup1\n      revert\n    tag_75:\n      pop\n      tag_76\n      0x04\n      dup1\n      calldatasize\n      sub\n      dup2\n      add\n      swap1\n      tag_77\n      swap2\n      swap1\n      tag_78\n      jump\t// in\n    tag_77:\n      tag_79\n      jump\t// in\n    tag_76:\n      stop\n        /* \"contracts/MarketPlace.sol\":491:528  mapping(address => User) public users */\n    tag_14:\n      callvalue\n      dup1\n      iszero\n      tag_80\n      jumpi\n      0x00\n      dup1\n      revert\n    tag_80:\n      pop\n      tag_81\n      0x04\n      dup1\n      calldatasize\n      sub\n      dup2\n      add\n      swap1\n      tag_82\n      swap2\n      swap1\n      tag_83\n      jump\t// in\n    tag_82:\n      tag_84\n      jump\t// in\n    tag_81:\n      mload(0x40)\n      tag_85\n      swap3\n      swap2\n      swap1\n      tag_86\n      jump\t// in\n    tag_85:\n      mload(0x40)\n      dup1\n      swap2\n      sub\n      swap1\n      return\n        /* \"contracts/MarketPlace.sol\":1042:1124  function makeUser() public {... */\n    tag_15:\n      callvalue\n      dup1\n      iszero\n      tag_87\n      jumpi\n      0x00\n      dup1\n      revert\n    tag_87:\n      pop\n      tag_88\n      tag_89\n      jump\t// in\n    tag_88:\n      stop\n        /* \"contracts/MarketPlace.sol\":589:632  mapping(string => address) public referrals */\n    tag_16:\n      callvalue\n      dup1\n      iszero\n      tag_90\n      jumpi\n      0x00\n      dup1\n      revert\n    tag_90:\n      pop\n      tag_91\n      0x04\n      dup1\n      calldatasize\n      sub\n      dup2\n      add\n      swap1\n      tag_92\n      swap2\n      swap1\n      tag_93\n      jump\t// in\n    tag_92:\n      tag_94\n      jump\t// in\n    tag_91:\n      mload(0x40)\n      tag_95\n      swap2\n      swap1\n      tag_70\n      jump\t// in\n    tag_95:\n      mload(0x40)\n      dup1\n      swap2\n      sub\n      swap1\n      return\n        /* \"contracts/MarketPlace.sol\":5737:5842  function withdrawBal(address _shop) public {... */\n    tag_17:\n      callvalue\n      dup1\n      iszero\n      tag_96\n      jumpi\n      0x00\n      dup1\n      revert\n    tag_96:\n      pop\n      tag_97\n      0x04\n      dup1\n      calldatasize\n      sub\n      dup2\n      add\n      swap1\n      tag_98\n      swap2\n      swap1\n      tag_83\n      jump\t// in\n    tag_98:\n      tag_99\n      jump\t// in\n    tag_97:\n      stop\n        /* \"contracts/MarketPlace.sol\":2321:3610  function refillStore(address _shop, uint _productId, uint _amount, address _supplier) public payable AccessControl(Role.Market, _shop) {... */\n    tag_18:\n      tag_100\n      0x04\n      dup1\n      calldatasize\n      sub\n      dup2\n      add\n      swap1\n      tag_101\n      swap2\n      swap1\n      tag_102\n      jump\t// in\n    tag_101:\n      tag_103\n      jump\t// in\n    tag_100:\n      stop\n        /* \"contracts/MarketPlace.sol\":534:583  mapping(address => Product[]) public userProducts */\n    tag_26:\n      mstore(0x20, 0x03)\n      dup2\n      0x00\n      mstore\n      keccak256(0x00, 0x40)\n      dup2\n      dup2\n      sload\n      dup2\n      lt\n      tag_104\n      jumpi\n      0x00\n      dup1\n      revert\n    tag_104:\n      swap1\n      0x00\n      mstore\n      keccak256(0x00, 0x20)\n      swap1\n      0x04\n      mul\n      add\n      0x00\n      swap2\n      pop\n      swap2\n      pop\n      pop\n      dup1\n      0x00\n      add\n      sload\n      swap1\n      dup1\n      0x01\n      add\n      sload\n      swap1\n      dup1\n      0x02\n      add\n      dup1\n      sload\n      tag_106\n      swap1\n      tag_107\n      jump\t// in\n    tag_106:\n      dup1\n      0x1f\n      add\n      0x20\n      dup1\n      swap2\n      div\n      mul\n      0x20\n      add\n      mload(0x40)\n      swap1\n      dup2\n      add\n      0x40\n      mstore\n      dup1\n      swap3\n      swap2\n      swap1\n      dup2\n      dup2\n      mstore\n      0x20\n      add\n      dup3\n      dup1\n      sload\n      tag_108\n      swap1\n      tag_107\n      jump\t// in\n    tag_108:\n      dup1\n      iszero\n      tag_109\n      jumpi\n      dup1\n      0x1f\n      lt\n      tag_110\n      jumpi\n      0x0100\n      dup1\n      dup4\n      sload\n      div\n      mul\n      dup4\n      mstore\n      swap2\n      0x20\n      add\n      swap2\n      jump(tag_109)\n    tag_110:\n      dup3\n      add\n      swap2\n      swap1\n      0x00\n      mstore\n      keccak256(0x00, 0x20)\n      swap1\n    tag_111:\n      dup2\n      sload\n      dup2\n      mstore\n      swap1\n      0x01\n      add\n      swap1\n      0x20\n      add\n      dup1\n      dup4\n      gt\n      tag_111\n      jumpi\n      dup3\n      swap1\n      sub\n      0x1f\n      and\n      dup3\n      add\n      swap2\n    tag_109:\n      pop\n      pop\n      pop\n      pop\n      pop\n      swap1\n      dup1\n      0x03\n      add\n      sload\n      swap1\n      pop\n      dup5\n      jump\t// out\n        /* \"contracts/MarketPlace.sol\":1130:1220  function makeSupplier() public {... */\n    tag_31:\n        /* \"contracts/MarketPlace.sol\":1191:1213  User(Role.Supplier, 0) */\n      mload(0x40)\n      dup1\n      0x40\n      add\n      0x40\n      mstore\n      dup1\n        /* \"contracts/MarketPlace.sol\":1196:1209  Role.Supplier */\n      0x02\n        /* \"contracts/MarketPlace.sol\":1191:1213  User(Role.Supplier, 0) */\n      dup1\n      dup2\n      gt\n      iszero\n      tag_113\n      jumpi\n      tag_114\n      tag_115\n      jump\t// in\n    tag_114:\n    tag_113:\n      dup2\n      mstore\n      0x20\n      add\n        /* \"contracts/MarketPlace.sol\":1211:1212  0 */\n      0x00\n        /* \"contracts/MarketPlace.sol\":1191:1213  User(Role.Supplier, 0) */\n      dup2\n      mstore\n      pop\n        /* \"contracts/MarketPlace.sol\":1171:1176  users */\n      0x02\n        /* \"contracts/MarketPlace.sol\":1171:1188  users[msg.sender] */\n      0x00\n        /* \"contracts/MarketPlace.sol\":1177:1187  msg.sender */\n      caller\n        /* \"contracts/MarketPlace.sol\":1171:1188  users[msg.sender] */\n      0xffffffffffffffffffffffffffffffffffffffff\n      and\n      0xffffffffffffffffffffffffffffffffffffffff\n      and\n      dup2\n      mstore\n      0x20\n      add\n      swap1\n      dup2\n      mstore\n      0x20\n      add\n      0x00\n      keccak256\n        /* \"contracts/MarketPlace.sol\":1171:1213  users[msg.sender] = User(Role.Supplier, 0) */\n      0x00\n      dup3\n      add\n      mload\n      dup2\n      0x00\n      add\n      exp(0x0100, 0x00)\n      dup2\n      sload\n      dup2\n      0xff\n      mul\n      not\n      and\n      swap1\n      dup4\n      0x02\n      dup2\n      gt\n      iszero\n      tag_116\n      jumpi\n      tag_117\n      tag_115\n      jump\t// in\n    tag_117:\n    tag_116:\n      mul\n      or\n      swap1\n      sstore\n      pop\n      0x20\n      dup3\n      add\n      mload\n      dup2\n      0x01\n      add\n      sstore\n      swap1\n      pop\n      pop\n        /* \"contracts/MarketPlace.sol\":1130:1220  function makeSupplier() public {... */\n      jump\t// out\n        /* \"contracts/MarketPlace.sol\":3616:4153  function refund(address _shop, uint _productId) public {... */\n    tag_35:\n        /* \"contracts/MarketPlace.sol\":3736:3748  userProducts */\n      0x03\n        /* \"contracts/MarketPlace.sol\":3736:3755  userProducts[_shop] */\n      0x00\n        /* \"contracts/MarketPlace.sol\":3749:3754  _shop */\n      dup4\n        /* \"contracts/MarketPlace.sol\":3736:3755  userProducts[_shop] */\n      0xffffffffffffffffffffffffffffffffffffffff\n      and\n      0xffffffffffffffffffffffffffffffffffffffff\n      and\n      dup2\n      mstore\n      0x20\n      add\n      swap1\n      dup2\n      mstore\n      0x20\n      add\n      0x00\n      keccak256\n        /* \"contracts/MarketPlace.sol\":3756:3766  _productId */\n      dup2\n        /* \"contracts/MarketPlace.sol\":3736:3767  userProducts[_shop][_productId] */\n      dup2\n      sload\n      dup2\n      lt\n      tag_119\n      jumpi\n      tag_120\n      tag_121\n      jump\t// in\n    tag_120:\n    tag_119:\n      swap1\n      0x00\n      mstore\n      keccak256(0x00, 0x20)\n      swap1\n      0x04\n      mul\n      add\n        /* \"contracts/MarketPlace.sol\":3736:3775  userProducts[_shop][_productId].expDate */\n      0x03\n      add\n      sload\n        /* \"contracts/MarketPlace.sol\":3689:3701  userProducts */\n      0x03\n        /* \"contracts/MarketPlace.sol\":3689:3713  userProducts[msg.sender] */\n      0x00\n        /* \"contracts/MarketPlace.sol\":3702:3712  msg.sender */\n      caller\n        /* \"contracts/MarketPlace.sol\":3689:3713  userProducts[msg.sender] */\n      0xffffffffffffffffffffffffffffffffffffffff\n      and\n      0xffffffffffffffffffffffffffffffffffffffff\n      and\n      dup2\n      mstore\n      0x20\n      add\n      swap1\n      dup2\n      mstore\n      0x20\n      add\n      0x00\n      keccak256\n        /* \"contracts/MarketPlace.sol\":3714:3724  _productId */\n      dup3\n        /* \"contracts/MarketPlace.sol\":3689:3725  userProducts[msg.sender][_productId] */\n      dup2\n      sload\n      dup2\n      lt\n      tag_123\n      jumpi\n      tag_124\n      tag_121\n      jump\t// in\n    tag_124:\n    tag_123:\n      swap1\n      0x00\n      mstore\n      keccak256(0x00, 0x20)\n      swap1\n      0x04\n      mul\n      add\n        /* \"contracts/MarketPlace.sol\":3689:3733  userProducts[msg.sender][_productId].expDate */\n      0x03\n      add\n      sload\n        /* \"contracts/MarketPlace.sol\":3689:3775  userProducts[msg.sender][_productId].expDate > userProducts[_shop][_productId].expDate */\n      gt\n        /* \"contracts/MarketPlace.sol\":3681:3776  require(userProducts[msg.sender][_productId].expDate > userProducts[_shop][_productId].expDate) */\n      tag_126\n      jumpi\n      0x00\n      dup1\n      revert\n    tag_126:\n        /* \"contracts/MarketPlace.sol\":3786:3802  uint totalRefSum */\n      0x00\n        /* \"contracts/MarketPlace.sol\":3893:3900  1 ether */\n      0x0de0b6b3a7640000\n        /* \"contracts/MarketPlace.sol\":3853:3865  userProducts */\n      0x03\n        /* \"contracts/MarketPlace.sol\":3853:3872  userProducts[_shop] */\n      0x00\n        /* \"contracts/MarketPlace.sol\":3866:3871  _shop */\n      dup6\n        /* \"contracts/MarketPlace.sol\":3853:3872  userProducts[_shop] */\n      0xffffffffffffffffffffffffffffffffffffffff\n      and\n      0xffffffffffffffffffffffffffffffffffffffff\n      and\n      dup2\n      mstore\n      0x20\n      add\n      swap1\n      dup2\n      mstore\n      0x20\n      add\n      0x00\n      keccak256\n        /* \"contracts/MarketPlace.sol\":3873:3883  _productId */\n      dup4\n        /* \"contracts/MarketPlace.sol\":3853:3884  userProducts[_shop][_productId] */\n      dup2\n      sload\n      dup2\n      lt\n      tag_127\n      jumpi\n      tag_128\n      tag_121\n      jump\t// in\n    tag_128:\n    tag_127:\n      swap1\n      0x00\n      mstore\n      keccak256(0x00, 0x20)\n      swap1\n      0x04\n      mul\n      add\n        /* \"contracts/MarketPlace.sol\":3853:3890  userProducts[_shop][_productId].price */\n      0x01\n      add\n      sload\n        /* \"contracts/MarketPlace.sol\":3806:3818  userProducts */\n      0x03\n        /* \"contracts/MarketPlace.sol\":3806:3830  userProducts[msg.sender] */\n      0x00\n        /* \"contracts/MarketPlace.sol\":3819:3829  msg.sender */\n      caller\n        /* \"contracts/MarketPlace.sol\":3806:3830  userProducts[msg.sender] */\n      0xffffffffffffffffffffffffffffffffffffffff\n      and\n      0xffffffffffffffffffffffffffffffffffffffff\n      and\n      dup2\n      mstore\n      0x20\n      add\n      swap1\n      dup2\n      mstore\n      0x20\n      add\n      0x00\n      keccak256\n        /* \"contracts/MarketPlace.sol\":3831:3841  _productId */\n      dup5\n        /* \"contracts/MarketPlace.sol\":3806:3842  userProducts[msg.sender][_productId] */\n      dup2\n      sload\n      dup2\n      lt\n      tag_130\n      jumpi\n      tag_131\n      tag_121\n      jump\t// in\n    tag_131:\n    tag_130:\n      swap1\n      0x00\n      mstore\n      keccak256(0x00, 0x20)\n      swap1\n      0x04\n      mul\n      add\n        /* \"contracts/MarketPlace.sol\":3806:3850  userProducts[msg.sender][_productId].inStock */\n      0x00\n      add\n      sload\n        /* \"contracts/MarketPlace.sol\":3806:3890  userProducts[msg.sender][_productId].inStock * userProducts[_shop][_productId].price */\n      tag_133\n      swap2\n      swap1\n      tag_134\n      jump\t// in\n    tag_133:\n        /* \"contracts/MarketPlace.sol\":3806:3900  userProducts[msg.sender][_productId].inStock * userProducts[_shop][_productId].price * 1 ether */\n      tag_135\n      swap2\n      swap1\n      tag_134\n      jump\t// in\n    tag_135:\n        /* \"contracts/MarketPlace.sol\":3786:3900  uint totalRefSum =  userProducts[msg.sender][_productId].inStock * userProducts[_shop][_productId].price * 1 ether */\n      swap1\n      pop\n        /* \"contracts/MarketPlace.sol\":3953:3965  userProducts */\n      0x03\n        /* \"contracts/MarketPlace.sol\":3953:3977  userProducts[msg.sender] */\n      0x00\n        /* \"contracts/MarketPlace.sol\":3966:3976  msg.sender */\n      caller\n        /* \"contracts/MarketPlace.sol\":3953:3977  userProducts[msg.sender] */\n      0xffffffffffffffffffffffffffffffffffffffff\n      and\n      0xffffffffffffffffffffffffffffffffffffffff\n      and\n      dup2\n      mstore\n      0x20\n      add\n      swap1\n      dup2\n      mstore\n      0x20\n      add\n      0x00\n      keccak256\n        /* \"contracts/MarketPlace.sol\":3978:3988  _productId */\n      dup3\n        /* \"contracts/MarketPlace.sol\":3953:3989  userProducts[msg.sender][_productId] */\n      dup2\n      sload\n      dup2\n      lt\n      tag_136\n      jumpi\n      tag_137\n      tag_121\n      jump\t// in\n    tag_137:\n    tag_136:\n      swap1\n      0x00\n      mstore\n      keccak256(0x00, 0x20)\n      swap1\n      0x04\n      mul\n      add\n        /* \"contracts/MarketPlace.sol\":3953:3997  userProducts[msg.sender][_productId].inStock */\n      0x00\n      add\n      sload\n        /* \"contracts/MarketPlace.sol\":3910:3922  userProducts */\n      0x03\n        /* \"contracts/MarketPlace.sol\":3910:3929  userProducts[_shop] */\n      0x00\n        /* \"contracts/MarketPlace.sol\":3923:3928  _shop */\n      dup6\n        /* \"contracts/MarketPlace.sol\":3910:3929  userProducts[_shop] */\n      0xffffffffffffffffffffffffffffffffffffffff\n      and\n      0xffffffffffffffffffffffffffffffffffffffff\n      and\n      dup2\n      mstore\n      0x20\n      add\n      swap1\n      dup2\n      mstore\n      0x20\n      add\n      0x00\n      keccak256\n        /* \"contracts/MarketPlace.sol\":3930:3940  _productId */\n      dup4\n        /* \"contracts/MarketPlace.sol\":3910:3941  userProducts[_shop][_productId] */\n      dup2\n      sload\n      dup2\n      lt\n      tag_139\n      jumpi\n      tag_140\n      tag_121\n      jump\t// in\n    tag_140:\n    tag_139:\n      swap1\n      0x00\n      mstore\n      keccak256(0x00, 0x20)\n      swap1\n      0x04\n      mul\n      add\n        /* \"contracts/MarketPlace.sol\":3910:3949  userProducts[_shop][_productId].inStock */\n      0x00\n      add\n      0x00\n        /* \"contracts/MarketPlace.sol\":3910:3997  userProducts[_shop][_productId].inStock += userProducts[msg.sender][_productId].inStock */\n      dup3\n      dup3\n      sload\n      tag_142\n      swap2\n      swap1\n      tag_143\n      jump\t// in\n    tag_142:\n      swap3\n      pop\n      pop\n      dup2\n      swap1\n      sstore\n      pop\n        /* \"contracts/MarketPlace.sol\":4014:4026  userProducts */\n      0x03\n        /* \"contracts/MarketPlace.sol\":4014:4038  userProducts[msg.sender] */\n      0x00\n        /* \"contracts/MarketPlace.sol\":4027:4037  msg.sender */\n      caller\n        /* \"contracts/MarketPlace.sol\":4014:4038  userProducts[msg.sender] */\n      0xffffffffffffffffffffffffffffffffffffffff\n      and\n      0xffffffffffffffffffffffffffffffffffffffff\n      and\n      dup2\n      mstore\n      0x20\n      add\n      swap1\n      dup2\n      mstore\n      0x20\n      add\n      0x00\n      keccak256\n        /* \"contracts/MarketPlace.sol\":4039:4049  _productId */\n      dup3\n        /* \"contracts/MarketPlace.sol\":4014:4050  userProducts[msg.sender][_productId] */\n      dup2\n      sload\n      dup2\n      lt\n      tag_144\n      jumpi\n      tag_145\n      tag_121\n      jump\t// in\n    tag_145:\n    tag_144:\n      swap1\n      0x00\n      mstore\n      keccak256(0x00, 0x20)\n      swap1\n      0x04\n      mul\n      add\n      0x00\n        /* \"contracts/MarketPlace.sol\":4007:4050  delete userProducts[msg.sender][_productId] */\n      dup1\n      dup3\n      add\n      0x00\n      swap1\n      sstore\n      0x01\n      dup3\n      add\n      0x00\n      swap1\n      sstore\n      0x02\n      dup3\n      add\n      0x00\n      tag_147\n      swap2\n      swap1\n      tag_148\n      jump\t// in\n    tag_147:\n      0x03\n      dup3\n      add\n      0x00\n      swap1\n      sstore\n      pop\n      pop\n        /* \"contracts/MarketPlace.sol\":4084:4095  totalRefSum */\n      dup1\n        /* \"contracts/MarketPlace.sol\":4060:4065  users */\n      0x02\n        /* \"contracts/MarketPlace.sol\":4060:4072  users[_shop] */\n      0x00\n        /* \"contracts/MarketPlace.sol\":4066:4071  _shop */\n      dup6\n        /* \"contracts/MarketPlace.sol\":4060:4072  users[_shop] */\n      0xffffffffffffffffffffffffffffffffffffffff\n      and\n      0xffffffffffffffffffffffffffffffffffffffff\n      and\n      dup2\n      mstore\n      0x20\n      add\n      swap1\n      dup2\n      mstore\n      0x20\n      add\n      0x00\n      keccak256\n        /* \"contracts/MarketPlace.sol\":4060:4080  users[_shop].balance */\n      0x01\n      add\n      0x00\n        /* \"contracts/MarketPlace.sol\":4060:4095  users[_shop].balance -= totalRefSum */\n      dup3\n      dup3\n      sload\n      tag_149\n      swap2\n      swap1\n      tag_150\n      jump\t// in\n    tag_149:\n      swap3\n      pop\n      pop\n      dup2\n      swap1\n      sstore\n      pop\n        /* \"contracts/MarketPlace.sol\":4113:4123  msg.sender */\n      caller\n        /* \"contracts/MarketPlace.sol\":4105:4133  payable(msg.sender).transfer */\n      0xffffffffffffffffffffffffffffffffffffffff\n      and\n        /* \"contracts/MarketPlace.sol\":4105:4146  payable(msg.sender).transfer(totalRefSum) */\n      0x08fc\n        /* \"contracts/MarketPlace.sol\":4134:4145  totalRefSum */\n      dup3\n        /* \"contracts/MarketPlace.sol\":4105:4146  payable(msg.sender).transfer(totalRefSum) */\n      swap1\n      dup2\n      iszero\n      mul\n      swap1\n      mload(0x40)\n      0x00\n      mload(0x40)\n      dup1\n      dup4\n      sub\n      dup2\n      dup6\n      dup9\n      dup9\n      call\n      swap4\n      pop\n      pop\n      pop\n      pop\n      iszero\n      dup1\n      iszero\n      tag_152\n      jumpi\n      returndatasize\n      0x00\n      dup1\n      returndatacopy\n      revert(0x00, returndatasize)\n    tag_152:\n      pop\n        /* \"contracts/MarketPlace.sol\":3671:4153  {... */\n      pop\n        /* \"contracts/MarketPlace.sol\":3616:4153  function refund(address _shop, uint _productId) public {... */\n      pop\n      pop\n      jump\t// out\n        /* \"contracts/MarketPlace.sol\":129:152  Ticket[] public tickets */\n    tag_40:\n      0x00\n      dup2\n      dup2\n      sload\n      dup2\n      lt\n      tag_153\n      jumpi\n      0x00\n      dup1\n      revert\n    tag_153:\n      swap1\n      0x00\n      mstore\n      keccak256(0x00, 0x20)\n      add\n      0x00\n      swap2\n      pop\n      swap1\n      pop\n      dup1\n      0x00\n      add\n      0x00\n      swap1\n      sload\n      swap1\n      0x0100\n      exp\n      swap1\n      div\n      0xffffffffffffffffffffffffffffffffffffffff\n      and\n      swap1\n      dup1\n      0x00\n      add\n      0x14\n      swap1\n      sload\n      swap1\n      0x0100\n      exp\n      swap1\n      div\n      0xff\n      and\n      swap1\n      pop\n      dup3\n      jump\t// out\n        /* \"contracts/MarketPlace.sol\":1544:1639  function changeRole(Role _role) public {... */\n    tag_47:\n        /* \"contracts/MarketPlace.sol\":1593:1600  tickets */\n      0x00\n        /* \"contracts/MarketPlace.sol\":1606:1631  Ticket(msg.sender, _role) */\n      mload(0x40)\n      dup1\n      0x40\n      add\n      0x40\n      mstore\n      dup1\n        /* \"contracts/MarketPlace.sol\":1613:1623  msg.sender */\n      caller\n        /* \"contracts/MarketPlace.sol\":1606:1631  Ticket(msg.sender, _role) */\n      0xffffffffffffffffffffffffffffffffffffffff\n      and\n      dup2\n      mstore\n      0x20\n      add\n        /* \"contracts/MarketPlace.sol\":1625:1630  _role */\n      dup4\n        /* \"contracts/MarketPlace.sol\":1606:1631  Ticket(msg.sender, _role) */\n      0x02\n      dup2\n      gt\n      iszero\n      tag_156\n      jumpi\n      tag_157\n      tag_115\n      jump\t// in\n    tag_157:\n    tag_156:\n      dup2\n      mstore\n      pop\n        /* \"contracts/MarketPlace.sol\":1593:1632  tickets.push(Ticket(msg.sender, _role)) */\n      swap1\n      dup1\n      0x01\n      dup2\n      sload\n      add\n      dup1\n      dup3\n      sstore\n      dup1\n      swap2\n      pop\n      pop\n      0x01\n      swap1\n      sub\n      swap1\n      0x00\n      mstore\n      keccak256(0x00, 0x20)\n      add\n      0x00\n      swap1\n      swap2\n      swap1\n      swap2\n      swap1\n      swap2\n      pop\n      0x00\n      dup3\n      add\n      mload\n      dup2\n      0x00\n      add\n      exp(0x0100, 0x00)\n      dup2\n      sload\n      dup2\n      0xffffffffffffffffffffffffffffffffffffffff\n      mul\n      not\n      and\n      swap1\n      dup4\n      0xffffffffffffffffffffffffffffffffffffffff\n      and\n      mul\n      or\n      swap1\n      sstore\n      pop\n      0x20\n      dup3\n      add\n      mload\n      dup2\n      0x00\n      add\n      exp(0x0100, 0x14)\n      dup2\n      sload\n      dup2\n      0xff\n      mul\n      not\n      and\n      swap1\n      dup4\n      0x02\n      dup2\n      gt\n      iszero\n      tag_159\n      jumpi\n      tag_160\n      tag_115\n      jump\t// in\n    tag_160:\n    tag_159:\n      mul\n      or\n      swap1\n      sstore\n      pop\n      pop\n      pop\n        /* \"contracts/MarketPlace.sol\":1544:1639  function changeRole(Role _role) public {... */\n      pop\n      jump\t// out\n        /* \"contracts/MarketPlace.sol\":1226:1313  function makeMarket() public  {... */\n    tag_50:\n        /* \"contracts/MarketPlace.sol\":1286:1306  User(Role.Market, 0) */\n      mload(0x40)\n      dup1\n      0x40\n      add\n      0x40\n      mstore\n      dup1\n        /* \"contracts/MarketPlace.sol\":1291:1302  Role.Market */\n      0x01\n        /* \"contracts/MarketPlace.sol\":1286:1306  User(Role.Market, 0) */\n      0x02\n      dup2\n      gt\n      iszero\n      tag_162\n      jumpi\n      tag_163\n      tag_115\n      jump\t// in\n    tag_163:\n    tag_162:\n      dup2\n      mstore\n      0x20\n      add\n        /* \"contracts/MarketPlace.sol\":1304:1305  0 */\n      0x00\n        /* \"contracts/MarketPlace.sol\":1286:1306  User(Role.Market, 0) */\n      dup2\n      mstore\n      pop\n        /* \"contracts/MarketPlace.sol\":1266:1271  users */\n      0x02\n        /* \"contracts/MarketPlace.sol\":1266:1283  users[msg.sender] */\n      0x00\n        /* \"contracts/MarketPlace.sol\":1272:1282  msg.sender */\n      caller\n        /* \"contracts/MarketPlace.sol\":1266:1283  users[msg.sender] */\n      0xffffffffffffffffffffffffffffffffffffffff\n      and\n      0xffffffffffffffffffffffffffffffffffffffff\n      and\n      dup2\n      mstore\n      0x20\n      add\n      swap1\n      dup2\n      mstore\n      0x20\n      add\n      0x00\n      keccak256\n        /* \"contracts/MarketPlace.sol\":1266:1306  users[msg.sender] = User(Role.Market, 0) */\n      0x00\n      dup3\n      add\n      mload\n      dup2\n      0x00\n      add\n      exp(0x0100, 0x00)\n      dup2\n      sload\n      dup2\n      0xff\n      mul\n      not\n      and\n      swap1\n      dup4\n      0x02\n      dup2\n      gt\n      iszero\n      tag_164\n      jumpi\n      tag_165\n      tag_115\n      jump\t// in\n    tag_165:\n    tag_164:\n      mul\n      or\n      swap1\n      sstore\n      pop\n      0x20\n      dup3\n      add\n      mload\n      dup2\n      0x01\n      add\n      sstore\n      swap1\n      pop\n      pop\n        /* \"contracts/MarketPlace.sol\":1226:1313  function makeMarket() public  {... */\n      jump\t// out\n        /* \"contracts/MarketPlace.sol\":1319:1538  function approveChangeRole(uint _idTicket) public OnlyOwner {... */\n    tag_54:\n        /* \"contracts/MarketPlace.sol\":692:697  owner */\n      0x01\n      0x00\n      swap1\n      sload\n      swap1\n      0x0100\n      exp\n      swap1\n      div\n      0xffffffffffffffffffffffffffffffffffffffff\n      and\n        /* \"contracts/MarketPlace.sol\":678:697  msg.sender == owner */\n      0xffffffffffffffffffffffffffffffffffffffff\n      and\n        /* \"contracts/MarketPlace.sol\":678:688  msg.sender */\n      caller\n        /* \"contracts/MarketPlace.sol\":678:697  msg.sender == owner */\n      0xffffffffffffffffffffffffffffffffffffffff\n      and\n      eq\n        /* \"contracts/MarketPlace.sol\":670:698  require(msg.sender == owner) */\n      tag_167\n      jumpi\n      0x00\n      dup1\n      revert\n    tag_167:\n        /* \"contracts/MarketPlace.sol\":1389:1405  address userAddr */\n      0x00\n        /* \"contracts/MarketPlace.sol\":1408:1415  tickets */\n      dup1\n        /* \"contracts/MarketPlace.sol\":1416:1425  _idTicket */\n      dup3\n        /* \"contracts/MarketPlace.sol\":1408:1426  tickets[_idTicket] */\n      dup2\n      sload\n      dup2\n      lt\n      tag_169\n      jumpi\n      tag_170\n      tag_121\n      jump\t// in\n    tag_170:\n    tag_169:\n      swap1\n      0x00\n      mstore\n      keccak256(0x00, 0x20)\n      add\n        /* \"contracts/MarketPlace.sol\":1408:1435  tickets[_idTicket].userAddr */\n      0x00\n      add\n      0x00\n      swap1\n      sload\n      swap1\n      0x0100\n      exp\n      swap1\n      div\n      0xffffffffffffffffffffffffffffffffffffffff\n      and\n        /* \"contracts/MarketPlace.sol\":1389:1435  address userAddr = tickets[_idTicket].userAddr */\n      swap1\n      pop\n        /* \"contracts/MarketPlace.sol\":1445:1461  Role changedRole */\n      0x00\n        /* \"contracts/MarketPlace.sol\":1464:1471  tickets */\n      dup1\n        /* \"contracts/MarketPlace.sol\":1472:1481  _idTicket */\n      dup4\n        /* \"contracts/MarketPlace.sol\":1464:1482  tickets[_idTicket] */\n      dup2\n      sload\n      dup2\n      lt\n      tag_172\n      jumpi\n      tag_173\n      tag_121\n      jump\t// in\n    tag_173:\n    tag_172:\n      swap1\n      0x00\n      mstore\n      keccak256(0x00, 0x20)\n      add\n        /* \"contracts/MarketPlace.sol\":1464:1487  tickets[_idTicket].role */\n      0x00\n      add\n      0x14\n      swap1\n      sload\n      swap1\n      0x0100\n      exp\n      swap1\n      div\n      0xff\n      and\n        /* \"contracts/MarketPlace.sol\":1445:1487  Role changedRole = tickets[_idTicket].role */\n      swap1\n      pop\n        /* \"contracts/MarketPlace.sol\":1520:1531  changedRole */\n      dup1\n        /* \"contracts/MarketPlace.sol\":1497:1502  users */\n      0x02\n        /* \"contracts/MarketPlace.sol\":1497:1512  users[userAddr] */\n      0x00\n        /* \"contracts/MarketPlace.sol\":1503:1511  userAddr */\n      dup5\n        /* \"contracts/MarketPlace.sol\":1497:1512  users[userAddr] */\n      0xffffffffffffffffffffffffffffffffffffffff\n      and\n      0xffffffffffffffffffffffffffffffffffffffff\n      and\n      dup2\n      mstore\n      0x20\n      add\n      swap1\n      dup2\n      mstore\n      0x20\n      add\n      0x00\n      keccak256\n        /* \"contracts/MarketPlace.sol\":1497:1517  users[userAddr].role */\n      0x00\n      add\n      0x00\n        /* \"contracts/MarketPlace.sol\":1497:1531  users[userAddr].role = changedRole */\n      0x0100\n      exp\n      dup2\n      sload\n      dup2\n      0xff\n      mul\n      not\n      and\n      swap1\n      dup4\n      0x02\n      dup2\n      gt\n      iszero\n      tag_175\n      jumpi\n      tag_176\n      tag_115\n      jump\t// in\n    tag_176:\n    tag_175:\n      mul\n      or\n      swap1\n      sstore\n      pop\n        /* \"contracts/MarketPlace.sol\":1379:1538  {... */\n      pop\n      pop\n        /* \"contracts/MarketPlace.sol\":1319:1538  function approveChangeRole(uint _idTicket) public OnlyOwner {... */\n      pop\n      jump\t// out\n        /* \"contracts/MarketPlace.sol\":1645:1857  function randMod(uint _modulus) public view returns(uint) {   ... */\n    tag_58:\n        /* \"contracts/MarketPlace.sol\":1697:1701  uint */\n      0x00\n        /* \"contracts/MarketPlace.sol\":1716:1730  uint randNonce */\n      dup1\n        /* \"contracts/MarketPlace.sol\":1740:1751  randNonce++ */\n      dup1\n      dup1\n      tag_178\n      swap1\n      tag_179\n      jump\t// in\n    tag_178:\n      swap2\n      pop\n      pop\n        /* \"contracts/MarketPlace.sol\":1842:1850  _modulus */\n      dup3\n        /* \"contracts/MarketPlace.sol\":1800:1815  block.timestamp */\n      timestamp\n        /* \"contracts/MarketPlace.sol\":1816:1826  msg.sender */\n      caller\n        /* \"contracts/MarketPlace.sol\":1827:1836  randNonce */\n      dup4\n        /* \"contracts/MarketPlace.sol\":1783:1837  abi.encodePacked(block.timestamp,msg.sender,randNonce) */\n      add(0x20, mload(0x40))\n      tag_180\n      swap4\n      swap3\n      swap2\n      swap1\n      tag_181\n      jump\t// in\n    tag_180:\n      mload(0x40)\n      0x20\n      dup2\n      dup4\n      sub\n      sub\n      dup2\n      mstore\n      swap1\n      0x40\n      mstore\n        /* \"contracts/MarketPlace.sol\":1773:1838  keccak256(abi.encodePacked(block.timestamp,msg.sender,randNonce)) */\n      dup1\n      mload\n      swap1\n      0x20\n      add\n      keccak256\n        /* \"contracts/MarketPlace.sol\":1768:1839  uint(keccak256(abi.encodePacked(block.timestamp,msg.sender,randNonce))) */\n      0x00\n      shr\n        /* \"contracts/MarketPlace.sol\":1768:1850  uint(keccak256(abi.encodePacked(block.timestamp,msg.sender,randNonce))) % _modulus */\n      tag_182\n      swap2\n      swap1\n      tag_183\n      jump\t// in\n    tag_182:\n        /* \"contracts/MarketPlace.sol\":1761:1850  return uint(keccak256(abi.encodePacked(block.timestamp,msg.sender,randNonce))) % _modulus */\n      swap2\n      pop\n      pop\n        /* \"contracts/MarketPlace.sol\":1645:1857  function randMod(uint _modulus) public view returns(uint) {   ... */\n      swap2\n      swap1\n      pop\n      jump\t// out\n        /* \"contracts/MarketPlace.sol\":2014:2310  function addItemsSupplier(uint _inStock, uint _price, string calldata _name, uint _expDate, address _addressSupp) public AccessControl(Role.Supplier, _addressSupp) {... */\n    tag_65:\n        /* \"contracts/MarketPlace.sol\":2149:2162  Role.Supplier */\n      0x02\n        /* \"contracts/MarketPlace.sol\":2164:2176  _addressSupp */\n      dup2\n        /* \"contracts/MarketPlace.sol\":819:824  _role */\n      dup2\n        /* \"contracts/MarketPlace.sol\":793:824  users[msg.sender].role == _role */\n      0x02\n      dup2\n      gt\n      iszero\n      tag_185\n      jumpi\n      tag_186\n      tag_115\n      jump\t// in\n    tag_186:\n    tag_185:\n        /* \"contracts/MarketPlace.sol\":793:798  users */\n      0x02\n        /* \"contracts/MarketPlace.sol\":793:810  users[msg.sender] */\n      0x00\n        /* \"contracts/MarketPlace.sol\":799:809  msg.sender */\n      caller\n        /* \"contracts/MarketPlace.sol\":793:810  users[msg.sender] */\n      0xffffffffffffffffffffffffffffffffffffffff\n      and\n      0xffffffffffffffffffffffffffffffffffffffff\n      and\n      dup2\n      mstore\n      0x20\n      add\n      swap1\n      dup2\n      mstore\n      0x20\n      add\n      0x00\n      keccak256\n        /* \"contracts/MarketPlace.sol\":793:815  users[msg.sender].role */\n      0x00\n      add\n      0x00\n      swap1\n      sload\n      swap1\n      0x0100\n      exp\n      swap1\n      div\n      0xff\n      and\n        /* \"contracts/MarketPlace.sol\":793:824  users[msg.sender].role == _role */\n      0x02\n      dup2\n      gt\n      iszero\n      tag_187\n      jumpi\n      tag_188\n      tag_115\n      jump\t// in\n    tag_188:\n    tag_187:\n      eq\n        /* \"contracts/MarketPlace.sol\":785:901  require(users[msg.sender].role == _role, unicode\"Ваша роль не позволяет это изменять\") */\n      tag_189\n      jumpi\n      mload(0x40)\n      0x08c379a000000000000000000000000000000000000000000000000000000000\n      dup2\n      mstore\n      0x04\n      add\n      tag_190\n      swap1\n      tag_191\n      jump\t// in\n    tag_190:\n      mload(0x40)\n      dup1\n      swap2\n      sub\n      swap1\n      revert\n    tag_189:\n        /* \"contracts/MarketPlace.sol\":933:938  _shop */\n      dup1\n        /* \"contracts/MarketPlace.sol\":919:938  msg.sender == _shop */\n      0xffffffffffffffffffffffffffffffffffffffff\n      and\n        /* \"contracts/MarketPlace.sol\":919:929  msg.sender */\n      caller\n        /* \"contracts/MarketPlace.sol\":919:938  msg.sender == _shop */\n      0xffffffffffffffffffffffffffffffffffffffff\n      and\n      eq\n        /* \"contracts/MarketPlace.sol\":911:1017  require(msg.sender == _shop, unicode\"Магазин не соответсвует отправителю\") */\n      tag_192\n      jumpi\n      mload(0x40)\n      0x08c379a000000000000000000000000000000000000000000000000000000000\n      dup2\n      mstore\n      0x04\n      add\n      tag_193\n      swap1\n      tag_194\n      jump\t// in\n    tag_193:\n      mload(0x40)\n      dup1\n      swap2\n      sub\n      swap1\n      revert\n    tag_192:\n        /* \"contracts/MarketPlace.sol\":2188:2207  Product memory item */\n      0x00\n        /* \"contracts/MarketPlace.sol\":2210:2256  Product(_inStock, _price / 2, _name, _expDate) */\n      mload(0x40)\n      dup1\n      0x80\n      add\n      0x40\n      mstore\n      dup1\n        /* \"contracts/MarketPlace.sol\":2218:2226  _inStock */\n      dup11\n        /* \"contracts/MarketPlace.sol\":2210:2256  Product(_inStock, _price / 2, _name, _expDate) */\n      dup2\n      mstore\n      0x20\n      add\n        /* \"contracts/MarketPlace.sol\":2237:2238  2 */\n      0x02\n        /* \"contracts/MarketPlace.sol\":2228:2234  _price */\n      dup11\n        /* \"contracts/MarketPlace.sol\":2228:2238  _price / 2 */\n      tag_196\n      swap2\n      swap1\n      tag_197\n      jump\t// in\n    tag_196:\n        /* \"contracts/MarketPlace.sol\":2210:2256  Product(_inStock, _price / 2, _name, _expDate) */\n      dup2\n      mstore\n      0x20\n      add\n        /* \"contracts/MarketPlace.sol\":2240:2245  _name */\n      dup9\n      dup9\n        /* \"contracts/MarketPlace.sol\":2210:2256  Product(_inStock, _price / 2, _name, _expDate) */\n      dup1\n      dup1\n      0x1f\n      add\n      0x20\n      dup1\n      swap2\n      div\n      mul\n      0x20\n      add\n      mload(0x40)\n      swap1\n      dup2\n      add\n      0x40\n      mstore\n      dup1\n      swap4\n      swap3\n      swap2\n      swap1\n      dup2\n      dup2\n      mstore\n      0x20\n      add\n      dup4\n      dup4\n      dup1\n      dup3\n      dup5\n      calldatacopy\n      0x00\n      dup2\n      dup5\n      add\n      mstore\n      not(0x1f)\n      0x1f\n      dup3\n      add\n      and\n      swap1\n      pop\n      dup1\n      dup4\n      add\n      swap3\n      pop\n      pop\n      pop\n      pop\n      pop\n      pop\n      pop\n      dup2\n      mstore\n      0x20\n      add\n        /* \"contracts/MarketPlace.sol\":2247:2255  _expDate */\n      dup7\n        /* \"contracts/MarketPlace.sol\":2210:2256  Product(_inStock, _price / 2, _name, _expDate) */\n      dup2\n      mstore\n      pop\n        /* \"contracts/MarketPlace.sol\":2188:2256  Product memory item = Product(_inStock, _price / 2, _name, _expDate) */\n      swap1\n      pop\n        /* \"contracts/MarketPlace.sol\":2266:2278  userProducts */\n      0x03\n        /* \"contracts/MarketPlace.sol\":2266:2292  userProducts[_addressSupp] */\n      0x00\n        /* \"contracts/MarketPlace.sol\":2279:2291  _addressSupp */\n      dup6\n        /* \"contracts/MarketPlace.sol\":2266:2292  userProducts[_addressSupp] */\n      0xffffffffffffffffffffffffffffffffffffffff\n      and\n      0xffffffffffffffffffffffffffffffffffffffff\n      and\n      dup2\n      mstore\n      0x20\n      add\n      swap1\n      dup2\n      mstore\n      0x20\n      add\n      0x00\n      keccak256\n        /* \"contracts/MarketPlace.sol\":2298:2302  item */\n      dup2\n        /* \"contracts/MarketPlace.sol\":2266:2303  userProducts[_addressSupp].push(item) */\n      swap1\n      dup1\n      0x01\n      dup2\n      sload\n      add\n      dup1\n      dup3\n      sstore\n      dup1\n      swap2\n      pop\n      pop\n      0x01\n      swap1\n      sub\n      swap1\n      0x00\n      mstore\n      keccak256(0x00, 0x20)\n      swap1\n      0x04\n      mul\n      add\n      0x00\n      swap1\n      swap2\n      swap1\n      swap2\n      swap1\n      swap2\n      pop\n      0x00\n      dup3\n      add\n      mload\n      dup2\n      0x00\n      add\n      sstore\n      0x20\n      dup3\n      add\n      mload\n      dup2\n      0x01\n      add\n      sstore\n      0x40\n      dup3\n      add\n      mload\n      dup2\n      0x02\n      add\n      swap1\n      dup2\n      tag_199\n      swap2\n      swap1\n      tag_200\n      jump\t// in\n    tag_199:\n      pop\n      0x60\n      dup3\n      add\n      mload\n      dup2\n      0x03\n      add\n      sstore\n      pop\n      pop\n        /* \"contracts/MarketPlace.sol\":2178:2310  {... */\n      pop\n        /* \"contracts/MarketPlace.sol\":2014:2310  function addItemsSupplier(uint _inStock, uint _price, string calldata _name, uint _expDate, address _addressSupp) public AccessControl(Role.Supplier, _addressSupp) {... */\n      pop\n      pop\n      pop\n      pop\n      pop\n      pop\n      pop\n      pop\n      jump\t// out\n        /* \"contracts/MarketPlace.sol\":158:178  address public owner */\n    tag_68:\n      0x01\n      0x00\n      swap1\n      sload\n      swap1\n      0x0100\n      exp\n      swap1\n      div\n      0xffffffffffffffffffffffffffffffffffffffff\n      and\n      dup2\n      jump\t// out\n        /* \"contracts/MarketPlace.sol\":4159:5731  function purchase(address _shop, uint _amount, uint _id, string memory _ref ) public payable {... */\n    tag_74:\n        /* \"contracts/MarketPlace.sol\":4292:4301  Role.User */\n      0x00\n        /* \"contracts/MarketPlace.sol\":4266:4301  users[msg.sender].role == Role.User */\n      0x02\n      dup2\n      gt\n      iszero\n      tag_202\n      jumpi\n      tag_203\n      tag_115\n      jump\t// in\n    tag_203:\n    tag_202:\n        /* \"contracts/MarketPlace.sol\":4266:4271  users */\n      0x02\n        /* \"contracts/MarketPlace.sol\":4266:4283  users[msg.sender] */\n      0x00\n        /* \"contracts/MarketPlace.sol\":4272:4282  msg.sender */\n      caller\n        /* \"contracts/MarketPlace.sol\":4266:4283  users[msg.sender] */\n      0xffffffffffffffffffffffffffffffffffffffff\n      and\n      0xffffffffffffffffffffffffffffffffffffffff\n      and\n      dup2\n      mstore\n      0x20\n      add\n      swap1\n      dup2\n      mstore\n      0x20\n      add\n      0x00\n      keccak256\n        /* \"contracts/MarketPlace.sol\":4266:4288  users[msg.sender].role */\n      0x00\n      add\n      0x00\n      swap1\n      sload\n      swap1\n      0x0100\n      exp\n      swap1\n      div\n      0xff\n      and\n        /* \"contracts/MarketPlace.sol\":4266:4301  users[msg.sender].role == Role.User */\n      0x02\n      dup2\n      gt\n      iszero\n      tag_204\n      jumpi\n      tag_205\n      tag_115\n      jump\t// in\n    tag_205:\n    tag_204:\n      sub\n        /* \"contracts/MarketPlace.sol\":4262:4367  if (users[msg.sender].role == Role.User) {... */\n      tag_206\n      jumpi\n        /* \"contracts/MarketPlace.sol\":4337:4356  User( Role.User, 0) */\n      mload(0x40)\n      dup1\n      0x40\n      add\n      0x40\n      mstore\n      dup1\n        /* \"contracts/MarketPlace.sol\":4343:4352  Role.User */\n      0x00\n        /* \"contracts/MarketPlace.sol\":4337:4356  User( Role.User, 0) */\n      0x02\n      dup2\n      gt\n      iszero\n      tag_207\n      jumpi\n      tag_208\n      tag_115\n      jump\t// in\n    tag_208:\n    tag_207:\n      dup2\n      mstore\n      0x20\n      add\n        /* \"contracts/MarketPlace.sol\":4354:4355  0 */\n      0x00\n        /* \"contracts/MarketPlace.sol\":4337:4356  User( Role.User, 0) */\n      dup2\n      mstore\n      pop\n        /* \"contracts/MarketPlace.sol\":4317:4322  users */\n      0x02\n        /* \"contracts/MarketPlace.sol\":4317:4334  users[msg.sender] */\n      0x00\n        /* \"contracts/MarketPlace.sol\":4323:4333  msg.sender */\n      caller\n        /* \"contracts/MarketPlace.sol\":4317:4334  users[msg.sender] */\n      0xffffffffffffffffffffffffffffffffffffffff\n      and\n      0xffffffffffffffffffffffffffffffffffffffff\n      and\n      dup2\n      mstore\n      0x20\n      add\n      swap1\n      dup2\n      mstore\n      0x20\n      add\n      0x00\n      keccak256\n        /* \"contracts/MarketPlace.sol\":4317:4356  users[msg.sender] = User( Role.User, 0) */\n      0x00\n      dup3\n      add\n      mload\n      dup2\n      0x00\n      add\n      exp(0x0100, 0x00)\n      dup2\n      sload\n      dup2\n      0xff\n      mul\n      not\n      and\n      swap1\n      dup4\n      0x02\n      dup2\n      gt\n      iszero\n      tag_209\n      jumpi\n      tag_210\n      tag_115\n      jump\t// in\n    tag_210:\n    tag_209:\n      mul\n      or\n      swap1\n      sstore\n      pop\n      0x20\n      dup3\n      add\n      mload\n      dup2\n      0x01\n      add\n      sstore\n      swap1\n      pop\n      pop\n        /* \"contracts/MarketPlace.sol\":4262:4367  if (users[msg.sender].role == Role.User) {... */\n    tag_206:\n        /* \"contracts/MarketPlace.sol\":4403:4404  0 */\n      0x00\n        /* \"contracts/MarketPlace.sol\":4393:4400  _amount */\n      dup4\n        /* \"contracts/MarketPlace.sol\":4393:4404  _amount > 0 */\n      gt\n        /* \"contracts/MarketPlace.sol\":4385:4447  require(_amount > 0, \"Purchase amount must be greater than 0\") */\n      tag_211\n      jumpi\n      mload(0x40)\n      0x08c379a000000000000000000000000000000000000000000000000000000000\n      dup2\n      mstore\n      0x04\n      add\n      tag_212\n      swap1\n      tag_213\n      jump\t// in\n    tag_212:\n      mload(0x40)\n      dup1\n      swap2\n      sub\n      swap1\n      revert\n    tag_211:\n        /* \"contracts/MarketPlace.sol\":4471:4483  userProducts */\n      0x03\n        /* \"contracts/MarketPlace.sol\":4471:4490  userProducts[_shop] */\n      0x00\n        /* \"contracts/MarketPlace.sol\":4484:4489  _shop */\n      dup6\n        /* \"contracts/MarketPlace.sol\":4471:4490  userProducts[_shop] */\n      0xffffffffffffffffffffffffffffffffffffffff\n      and\n      0xffffffffffffffffffffffffffffffffffffffff\n      and\n      dup2\n      mstore\n      0x20\n      add\n      swap1\n      dup2\n      mstore\n      0x20\n      add\n      0x00\n      keccak256\n        /* \"contracts/MarketPlace.sol\":4471:4497  userProducts[_shop].length */\n      dup1\n      sload\n      swap1\n      pop\n        /* \"contracts/MarketPlace.sol\":4465:4468  _id */\n      dup3\n        /* \"contracts/MarketPlace.sol\":4465:4497  _id < userProducts[_shop].length */\n      lt\n        /* \"contracts/MarketPlace.sol\":4457:4520  require(_id < userProducts[_shop].length, \"Invalid product ID\") */\n      tag_214\n      jumpi\n      mload(0x40)\n      0x08c379a000000000000000000000000000000000000000000000000000000000\n      dup2\n      mstore\n      0x04\n      add\n      tag_215\n      swap1\n      tag_216\n      jump\t// in\n    tag_215:\n      mload(0x40)\n      dup1\n      swap2\n      sub\n      swap1\n      revert\n    tag_214:\n        /* \"contracts/MarketPlace.sol\":4549:4561  userProducts */\n      0x03\n        /* \"contracts/MarketPlace.sol\":4549:4568  userProducts[_shop] */\n      0x00\n        /* \"contracts/MarketPlace.sol\":4562:4567  _shop */\n      dup6\n        /* \"contracts/MarketPlace.sol\":4549:4568  userProducts[_shop] */\n      0xffffffffffffffffffffffffffffffffffffffff\n      and\n      0xffffffffffffffffffffffffffffffffffffffff\n      and\n      dup2\n      mstore\n      0x20\n      add\n      swap1\n      dup2\n      mstore\n      0x20\n      add\n      0x00\n      keccak256\n        /* \"contracts/MarketPlace.sol\":4569:4572  _id */\n      dup3\n        /* \"contracts/MarketPlace.sol\":4549:4573  userProducts[_shop][_id] */\n      dup2\n      sload\n      dup2\n      lt\n      tag_217\n      jumpi\n      tag_218\n      tag_121\n      jump\t// in\n    tag_218:\n    tag_217:\n      swap1\n      0x00\n      mstore\n      keccak256(0x00, 0x20)\n      swap1\n      0x04\n      mul\n      add\n        /* \"contracts/MarketPlace.sol\":4549:4581  userProducts[_shop][_id].inStock */\n      0x00\n      add\n      sload\n        /* \"contracts/MarketPlace.sol\":4538:4545  _amount */\n      dup4\n        /* \"contracts/MarketPlace.sol\":4538:4581  _amount <= userProducts[_shop][_id].inStock */\n      gt\n      iszero\n        /* \"contracts/MarketPlace.sol\":4530:4612  require(_amount <= userProducts[_shop][_id].inStock, \"Not enough stock available\") */\n      tag_220\n      jumpi\n      mload(0x40)\n      0x08c379a000000000000000000000000000000000000000000000000000000000\n      dup2\n      mstore\n      0x04\n      add\n      tag_221\n      swap1\n      tag_222\n      jump\t// in\n    tag_221:\n      mload(0x40)\n      dup1\n      swap2\n      sub\n      swap1\n      revert\n    tag_220:\n        /* \"contracts/MarketPlace.sol\":4623:4638  uint totalPrice */\n      0x00\n        /* \"contracts/MarketPlace.sol\":4684:4691  1 ether */\n      0x0de0b6b3a7640000\n        /* \"contracts/MarketPlace.sol\":4651:4663  userProducts */\n      0x03\n        /* \"contracts/MarketPlace.sol\":4651:4670  userProducts[_shop] */\n      0x00\n        /* \"contracts/MarketPlace.sol\":4664:4669  _shop */\n      dup8\n        /* \"contracts/MarketPlace.sol\":4651:4670  userProducts[_shop] */\n      0xffffffffffffffffffffffffffffffffffffffff\n      and\n      0xffffffffffffffffffffffffffffffffffffffff\n      and\n      dup2\n      mstore\n      0x20\n      add\n      swap1\n      dup2\n      mstore\n      0x20\n      add\n      0x00\n      keccak256\n        /* \"contracts/MarketPlace.sol\":4671:4674  _id */\n      dup5\n        /* \"contracts/MarketPlace.sol\":4651:4675  userProducts[_shop][_id] */\n      dup2\n      sload\n      dup2\n      lt\n      tag_223\n      jumpi\n      tag_224\n      tag_121\n      jump\t// in\n    tag_224:\n    tag_223:\n      swap1\n      0x00\n      mstore\n      keccak256(0x00, 0x20)\n      swap1\n      0x04\n      mul\n      add\n        /* \"contracts/MarketPlace.sol\":4651:4681  userProducts[_shop][_id].price */\n      0x01\n      add\n      sload\n        /* \"contracts/MarketPlace.sol\":4641:4648  _amount */\n      dup6\n        /* \"contracts/MarketPlace.sol\":4641:4681  _amount * userProducts[_shop][_id].price */\n      tag_226\n      swap2\n      swap1\n      tag_134\n      jump\t// in\n    tag_226:\n        /* \"contracts/MarketPlace.sol\":4641:4691  _amount * userProducts[_shop][_id].price * 1 ether */\n      tag_227\n      swap2\n      swap1\n      tag_134\n      jump\t// in\n    tag_227:\n        /* \"contracts/MarketPlace.sol\":4623:4691  uint totalPrice = _amount * userProducts[_shop][_id].price * 1 ether */\n      swap1\n      pop\n        /* \"contracts/MarketPlace.sol\":4725:4735  msg.sender */\n      caller\n        /* \"contracts/MarketPlace.sol\":4706:4735  referrals[_ref] == msg.sender */\n      0xffffffffffffffffffffffffffffffffffffffff\n      and\n        /* \"contracts/MarketPlace.sol\":4706:4715  referrals */\n      0x04\n        /* \"contracts/MarketPlace.sol\":4716:4720  _ref */\n      dup4\n        /* \"contracts/MarketPlace.sol\":4706:4721  referrals[_ref] */\n      mload(0x40)\n      tag_228\n      swap2\n      swap1\n      tag_229\n      jump\t// in\n    tag_228:\n      swap1\n      dup2\n      mstore\n      0x20\n      add\n      mload(0x40)\n      dup1\n      swap2\n      sub\n      swap1\n      keccak256\n      0x00\n      swap1\n      sload\n      swap1\n      0x0100\n      exp\n      swap1\n      div\n      0xffffffffffffffffffffffffffffffffffffffff\n      and\n        /* \"contracts/MarketPlace.sol\":4706:4735  referrals[_ref] == msg.sender */\n      0xffffffffffffffffffffffffffffffffffffffff\n      and\n      sub\n        /* \"contracts/MarketPlace.sol\":4702:4840  if (referrals[_ref] == msg.sender) {... */\n      tag_230\n      jumpi\n        /* \"contracts/MarketPlace.sol\":4783:4786  100 */\n      0x64\n        /* \"contracts/MarketPlace.sol\":4778:4780  90 */\n      0x5a\n        /* \"contracts/MarketPlace.sol\":4765:4775  totalPrice */\n      dup3\n        /* \"contracts/MarketPlace.sol\":4765:4780  totalPrice * 90 */\n      tag_231\n      swap2\n      swap1\n      tag_134\n      jump\t// in\n    tag_231:\n        /* \"contracts/MarketPlace.sol\":4765:4786  totalPrice * 90 / 100 */\n      tag_232\n      swap2\n      swap1\n      tag_197\n      jump\t// in\n    tag_232:\n        /* \"contracts/MarketPlace.sol\":4751:4787  totalPrice = (totalPrice * 90 / 100) */\n      swap1\n      pop\n        /* \"contracts/MarketPlace.sol\":4827:4828  0 */\n      0x00\n        /* \"contracts/MarketPlace.sol\":4801:4810  referrals */\n      0x04\n        /* \"contracts/MarketPlace.sol\":4811:4815  _ref */\n      dup4\n        /* \"contracts/MarketPlace.sol\":4801:4816  referrals[_ref] */\n      mload(0x40)\n      tag_233\n      swap2\n      swap1\n      tag_229\n      jump\t// in\n    tag_233:\n      swap1\n      dup2\n      mstore\n      0x20\n      add\n      mload(0x40)\n      dup1\n      swap2\n      sub\n      swap1\n      keccak256\n      0x00\n        /* \"contracts/MarketPlace.sol\":4801:4829  referrals[_ref] = address(0) */\n      0x0100\n      exp\n      dup2\n      sload\n      dup2\n      0xffffffffffffffffffffffffffffffffffffffff\n      mul\n      not\n      and\n      swap1\n      dup4\n      0xffffffffffffffffffffffffffffffffffffffff\n      and\n      mul\n      or\n      swap1\n      sstore\n      pop\n        /* \"contracts/MarketPlace.sol\":4702:4840  if (referrals[_ref] == msg.sender) {... */\n    tag_230:\n        /* \"contracts/MarketPlace.sol\":4871:4881  totalPrice */\n      dup1\n        /* \"contracts/MarketPlace.sol\":4858:4867  msg.value */\n      callvalue\n        /* \"contracts/MarketPlace.sol\":4858:4881  msg.value >= totalPrice */\n      lt\n      iszero\n        /* \"contracts/MarketPlace.sol\":4850:4909  require(msg.value >= totalPrice, \"Insufficient funds sent\") */\n      tag_234\n      jumpi\n      mload(0x40)\n      0x08c379a000000000000000000000000000000000000000000000000000000000\n      dup2\n      mstore\n      0x04\n      add\n      tag_235\n      swap1\n      tag_236\n      jump\t// in\n    tag_235:\n      mload(0x40)\n      dup1\n      swap2\n      sub\n      swap1\n      revert\n    tag_234:\n        /* \"contracts/MarketPlace.sol\":4919:4937  bool productExists */\n      0x00\n        /* \"contracts/MarketPlace.sol\":4961:4967  uint i */\n      dup1\n        /* \"contracts/MarketPlace.sol\":4956:5287  for (uint i = 0; i < userProducts[msg.sender].length; i++) {... */\n    tag_237:\n        /* \"contracts/MarketPlace.sol\":4977:4989  userProducts */\n      0x03\n        /* \"contracts/MarketPlace.sol\":4977:5001  userProducts[msg.sender] */\n      0x00\n        /* \"contracts/MarketPlace.sol\":4990:5000  msg.sender */\n      caller\n        /* \"contracts/MarketPlace.sol\":4977:5001  userProducts[msg.sender] */\n      0xffffffffffffffffffffffffffffffffffffffff\n      and\n      0xffffffffffffffffffffffffffffffffffffffff\n      and\n      dup2\n      mstore\n      0x20\n      add\n      swap1\n      dup2\n      mstore\n      0x20\n      add\n      0x00\n      keccak256\n        /* \"contracts/MarketPlace.sol\":4977:5008  userProducts[msg.sender].length */\n      dup1\n      sload\n      swap1\n      pop\n        /* \"contracts/MarketPlace.sol\":4973:4974  i */\n      dup2\n        /* \"contracts/MarketPlace.sol\":4973:5008  i < userProducts[msg.sender].length */\n      lt\n        /* \"contracts/MarketPlace.sol\":4956:5287  for (uint i = 0; i < userProducts[msg.sender].length; i++) {... */\n      iszero\n      tag_238\n      jumpi\n        /* \"contracts/MarketPlace.sol\":5103:5115  userProducts */\n      0x03\n        /* \"contracts/MarketPlace.sol\":5103:5122  userProducts[_shop] */\n      0x00\n        /* \"contracts/MarketPlace.sol\":5116:5121  _shop */\n      dup9\n        /* \"contracts/MarketPlace.sol\":5103:5122  userProducts[_shop] */\n      0xffffffffffffffffffffffffffffffffffffffff\n      and\n      0xffffffffffffffffffffffffffffffffffffffff\n      and\n      dup2\n      mstore\n      0x20\n      add\n      swap1\n      dup2\n      mstore\n      0x20\n      add\n      0x00\n      keccak256\n        /* \"contracts/MarketPlace.sol\":5123:5126  _id */\n      dup6\n        /* \"contracts/MarketPlace.sol\":5103:5127  userProducts[_shop][_id] */\n      dup2\n      sload\n      dup2\n      lt\n      tag_240\n      jumpi\n      tag_241\n      tag_121\n      jump\t// in\n    tag_241:\n    tag_240:\n      swap1\n      0x00\n      mstore\n      keccak256(0x00, 0x20)\n      swap1\n      0x04\n      mul\n      add\n        /* \"contracts/MarketPlace.sol\":5103:5132  userProducts[_shop][_id].name */\n      0x02\n      add\n        /* \"contracts/MarketPlace.sol\":5087:5134  keccak256(bytes(userProducts[_shop][_id].name)) */\n      mload(0x40)\n      tag_243\n      swap2\n      swap1\n      tag_244\n      jump\t// in\n    tag_243:\n      mload(0x40)\n      dup1\n      swap2\n      sub\n      swap1\n      keccak256\n        /* \"contracts/MarketPlace.sol\":5049:5061  userProducts */\n      0x03\n        /* \"contracts/MarketPlace.sol\":5049:5073  userProducts[msg.sender] */\n      0x00\n        /* \"contracts/MarketPlace.sol\":5062:5072  msg.sender */\n      caller\n        /* \"contracts/MarketPlace.sol\":5049:5073  userProducts[msg.sender] */\n      0xffffffffffffffffffffffffffffffffffffffff\n      and\n      0xffffffffffffffffffffffffffffffffffffffff\n      and\n      dup2\n      mstore\n      0x20\n      add\n      swap1\n      dup2\n      mstore\n      0x20\n      add\n      0x00\n      keccak256\n        /* \"contracts/MarketPlace.sol\":5074:5075  i */\n      dup3\n        /* \"contracts/MarketPlace.sol\":5049:5076  userProducts[msg.sender][i] */\n      dup2\n      sload\n      dup2\n      lt\n      tag_245\n      jumpi\n      tag_246\n      tag_121\n      jump\t// in\n    tag_246:\n    tag_245:\n      swap1\n      0x00\n      mstore\n      keccak256(0x00, 0x20)\n      swap1\n      0x04\n      mul\n      add\n        /* \"contracts/MarketPlace.sol\":5049:5081  userProducts[msg.sender][i].name */\n      0x02\n      add\n        /* \"contracts/MarketPlace.sol\":5033:5083  keccak256(bytes(userProducts[msg.sender][i].name)) */\n      mload(0x40)\n      tag_248\n      swap2\n      swap1\n      tag_244\n      jump\t// in\n    tag_248:\n      mload(0x40)\n      dup1\n      swap2\n      sub\n      swap1\n      keccak256\n        /* \"contracts/MarketPlace.sol\":5033:5134  keccak256(bytes(userProducts[msg.sender][i].name)) == keccak256(bytes(userProducts[_shop][_id].name)) */\n      sub\n        /* \"contracts/MarketPlace.sol\":5029:5277  if (keccak256(bytes(userProducts[msg.sender][i].name)) == keccak256(bytes(userProducts[_shop][_id].name))) {... */\n      tag_249\n      jumpi\n        /* \"contracts/MarketPlace.sol\":5193:5200  _amount */\n      dup6\n        /* \"contracts/MarketPlace.sol\":5154:5166  userProducts */\n      0x03\n        /* \"contracts/MarketPlace.sol\":5154:5178  userProducts[msg.sender] */\n      0x00\n        /* \"contracts/MarketPlace.sol\":5167:5177  msg.sender */\n      caller\n        /* \"contracts/MarketPlace.sol\":5154:5178  userProducts[msg.sender] */\n      0xffffffffffffffffffffffffffffffffffffffff\n      and\n      0xffffffffffffffffffffffffffffffffffffffff\n      and\n      dup2\n      mstore\n      0x20\n      add\n      swap1\n      dup2\n      mstore\n      0x20\n      add\n      0x00\n      keccak256\n        /* \"contracts/MarketPlace.sol\":5179:5180  i */\n      dup3\n        /* \"contracts/MarketPlace.sol\":5154:5181  userProducts[msg.sender][i] */\n      dup2\n      sload\n      dup2\n      lt\n      tag_250\n      jumpi\n      tag_251\n      tag_121\n      jump\t// in\n    tag_251:\n    tag_250:\n      swap1\n      0x00\n      mstore\n      keccak256(0x00, 0x20)\n      swap1\n      0x04\n      mul\n      add\n        /* \"contracts/MarketPlace.sol\":5154:5189  userProducts[msg.sender][i].inStock */\n      0x00\n      add\n      0x00\n        /* \"contracts/MarketPlace.sol\":5154:5200  userProducts[msg.sender][i].inStock += _amount */\n      dup3\n      dup3\n      sload\n      tag_253\n      swap2\n      swap1\n      tag_143\n      jump\t// in\n    tag_253:\n      swap3\n      pop\n      pop\n      dup2\n      swap1\n      sstore\n      pop\n        /* \"contracts/MarketPlace.sol\":5234:5238  true */\n      0x01\n        /* \"contracts/MarketPlace.sol\":5218:5238  productExists = true */\n      swap2\n      pop\n        /* \"contracts/MarketPlace.sol\":5256:5261  break */\n      jump(tag_238)\n        /* \"contracts/MarketPlace.sol\":5029:5277  if (keccak256(bytes(userProducts[msg.sender][i].name)) == keccak256(bytes(userProducts[_shop][_id].name))) {... */\n    tag_249:\n        /* \"contracts/MarketPlace.sol\":5010:5013  i++ */\n      dup1\n      dup1\n      tag_254\n      swap1\n      tag_179\n      jump\t// in\n    tag_254:\n      swap2\n      pop\n      pop\n        /* \"contracts/MarketPlace.sol\":4956:5287  for (uint i = 0; i < userProducts[msg.sender].length; i++) {... */\n      jump(tag_237)\n    tag_238:\n      pop\n        /* \"contracts/MarketPlace.sol\":5302:5315  productExists */\n      dup1\n        /* \"contracts/MarketPlace.sol\":5297:5513  if (!productExists) {... */\n      tag_255\n      jumpi\n        /* \"contracts/MarketPlace.sol\":5331:5353  Product memory newItem */\n      0x00\n        /* \"contracts/MarketPlace.sol\":5356:5450  Product(_amount, userProducts[_shop][_id].price, userProducts[_shop][_id].name, randMod(1000)) */\n      mload(0x40)\n      dup1\n      0x80\n      add\n      0x40\n      mstore\n      dup1\n        /* \"contracts/MarketPlace.sol\":5364:5371  _amount */\n      dup8\n        /* \"contracts/MarketPlace.sol\":5356:5450  Product(_amount, userProducts[_shop][_id].price, userProducts[_shop][_id].name, randMod(1000)) */\n      dup2\n      mstore\n      0x20\n      add\n        /* \"contracts/MarketPlace.sol\":5373:5385  userProducts */\n      0x03\n        /* \"contracts/MarketPlace.sol\":5373:5392  userProducts[_shop] */\n      0x00\n        /* \"contracts/MarketPlace.sol\":5386:5391  _shop */\n      dup11\n        /* \"contracts/MarketPlace.sol\":5373:5392  userProducts[_shop] */\n      0xffffffffffffffffffffffffffffffffffffffff\n      and\n      0xffffffffffffffffffffffffffffffffffffffff\n      and\n      dup2\n      mstore\n      0x20\n      add\n      swap1\n      dup2\n      mstore\n      0x20\n      add\n      0x00\n      keccak256\n        /* \"contracts/MarketPlace.sol\":5393:5396  _id */\n      dup8\n        /* \"contracts/MarketPlace.sol\":5373:5397  userProducts[_shop][_id] */\n      dup2\n      sload\n      dup2\n      lt\n      tag_256\n      jumpi\n      tag_257\n      tag_121\n      jump\t// in\n    tag_257:\n    tag_256:\n      swap1\n      0x00\n      mstore\n      keccak256(0x00, 0x20)\n      swap1\n      0x04\n      mul\n      add\n        /* \"contracts/MarketPlace.sol\":5373:5403  userProducts[_shop][_id].price */\n      0x01\n      add\n      sload\n        /* \"contracts/MarketPlace.sol\":5356:5450  Product(_amount, userProducts[_shop][_id].price, userProducts[_shop][_id].name, randMod(1000)) */\n      dup2\n      mstore\n      0x20\n      add\n        /* \"contracts/MarketPlace.sol\":5405:5417  userProducts */\n      0x03\n        /* \"contracts/MarketPlace.sol\":5405:5424  userProducts[_shop] */\n      0x00\n        /* \"contracts/MarketPlace.sol\":5418:5423  _shop */\n      dup11\n        /* \"contracts/MarketPlace.sol\":5405:5424  userProducts[_shop] */\n      0xffffffffffffffffffffffffffffffffffffffff\n      and\n      0xffffffffffffffffffffffffffffffffffffffff\n      and\n      dup2\n      mstore\n      0x20\n      add\n      swap1\n      dup2\n      mstore\n      0x20\n      add\n      0x00\n      keccak256\n        /* \"contracts/MarketPlace.sol\":5425:5428  _id */\n      dup8\n        /* \"contracts/MarketPlace.sol\":5405:5429  userProducts[_shop][_id] */\n      dup2\n      sload\n      dup2\n      lt\n      tag_259\n      jumpi\n      tag_260\n      tag_121\n      jump\t// in\n    tag_260:\n    tag_259:\n      swap1\n      0x00\n      mstore\n      keccak256(0x00, 0x20)\n      swap1\n      0x04\n      mul\n      add\n        /* \"contracts/MarketPlace.sol\":5405:5434  userProducts[_shop][_id].name */\n      0x02\n      add\n        /* \"contracts/MarketPlace.sol\":5356:5450  Product(_amount, userProducts[_shop][_id].price, userProducts[_shop][_id].name, randMod(1000)) */\n      dup1\n      sload\n      tag_262\n      swap1\n      tag_107\n      jump\t// in\n    tag_262:\n      dup1\n      0x1f\n      add\n      0x20\n      dup1\n      swap2\n      div\n      mul\n      0x20\n      add\n      mload(0x40)\n      swap1\n      dup2\n      add\n      0x40\n      mstore\n      dup1\n      swap3\n      swap2\n      swap1\n      dup2\n      dup2\n      mstore\n      0x20\n      add\n      dup3\n      dup1\n      sload\n      tag_263\n      swap1\n      tag_107\n      jump\t// in\n    tag_263:\n      dup1\n      iszero\n      tag_264\n      jumpi\n      dup1\n      0x1f\n      lt\n      tag_265\n      jumpi\n      0x0100\n      dup1\n      dup4\n      sload\n      div\n      mul\n      dup4\n      mstore\n      swap2\n      0x20\n      add\n      swap2\n      jump(tag_264)\n    tag_265:\n      dup3\n      add\n      swap2\n      swap1\n      0x00\n      mstore\n      keccak256(0x00, 0x20)\n      swap1\n    tag_266:\n      dup2\n      sload\n      dup2\n      mstore\n      swap1\n      0x01\n      add\n      swap1\n      0x20\n      add\n      dup1\n      dup4\n      gt\n      tag_266\n      jumpi\n      dup3\n      swap1\n      sub\n      0x1f\n      and\n      dup3\n      add\n      swap2\n    tag_264:\n      pop\n      pop\n      pop\n      pop\n      pop\n      dup2\n      mstore\n      0x20\n      add\n        /* \"contracts/MarketPlace.sol\":5436:5449  randMod(1000) */\n      tag_267\n        /* \"contracts/MarketPlace.sol\":5444:5448  1000 */\n      0x03e8\n        /* \"contracts/MarketPlace.sol\":5436:5443  randMod */\n      tag_58\n        /* \"contracts/MarketPlace.sol\":5436:5449  randMod(1000) */\n      jump\t// in\n    tag_267:\n        /* \"contracts/MarketPlace.sol\":5356:5450  Product(_amount, userProducts[_shop][_id].price, userProducts[_shop][_id].name, randMod(1000)) */\n      dup2\n      mstore\n      pop\n        /* \"contracts/MarketPlace.sol\":5331:5450  Product memory newItem = Product(_amount, userProducts[_shop][_id].price, userProducts[_shop][_id].name, randMod(1000)) */\n      swap1\n      pop\n        /* \"contracts/MarketPlace.sol\":5464:5476  userProducts */\n      0x03\n        /* \"contracts/MarketPlace.sol\":5464:5488  userProducts[msg.sender] */\n      0x00\n        /* \"contracts/MarketPlace.sol\":5477:5487  msg.sender */\n      caller\n        /* \"contracts/MarketPlace.sol\":5464:5488  userProducts[msg.sender] */\n      0xffffffffffffffffffffffffffffffffffffffff\n      and\n      0xffffffffffffffffffffffffffffffffffffffff\n      and\n      dup2\n      mstore\n      0x20\n      add\n      swap1\n      dup2\n      mstore\n      0x20\n      add\n      0x00\n      keccak256\n        /* \"contracts/MarketPlace.sol\":5494:5501  newItem */\n      dup2\n        /* \"contracts/MarketPlace.sol\":5464:5502  userProducts[msg.sender].push(newItem) */\n      swap1\n      dup1\n      0x01\n      dup2\n      sload\n      add\n      dup1\n      dup3\n      sstore\n      dup1\n      swap2\n      pop\n      pop\n      0x01\n      swap1\n      sub\n      swap1\n      0x00\n      mstore\n      keccak256(0x00, 0x20)\n      swap1\n      0x04\n      mul\n      add\n      0x00\n      swap1\n      swap2\n      swap1\n      swap2\n      swap1\n      swap2\n      pop\n      0x00\n      dup3\n      add\n      mload\n      dup2\n      0x00\n      add\n      sstore\n      0x20\n      dup3\n      add\n      mload\n      dup2\n      0x01\n      add\n      sstore\n      0x40\n      dup3\n      add\n      mload\n      dup2\n      0x02\n      add\n      swap1\n      dup2\n      tag_269\n      swap2\n      swap1\n      tag_200\n      jump\t// in\n    tag_269:\n      pop\n      0x60\n      dup3\n      add\n      mload\n      dup2\n      0x03\n      add\n      sstore\n      pop\n      pop\n        /* \"contracts/MarketPlace.sol\":5317:5513  {... */\n      pop\n        /* \"contracts/MarketPlace.sol\":5297:5513  if (!productExists) {... */\n    tag_255:\n        /* \"contracts/MarketPlace.sol\":5559:5566  _amount */\n      dup5\n        /* \"contracts/MarketPlace.sol\":5523:5535  userProducts */\n      0x03\n        /* \"contracts/MarketPlace.sol\":5523:5542  userProducts[_shop] */\n      0x00\n        /* \"contracts/MarketPlace.sol\":5536:5541  _shop */\n      dup9\n        /* \"contracts/MarketPlace.sol\":5523:5542  userProducts[_shop] */\n      0xffffffffffffffffffffffffffffffffffffffff\n      and\n      0xffffffffffffffffffffffffffffffffffffffff\n      and\n      dup2\n      mstore\n      0x20\n      add\n      swap1\n      dup2\n      mstore\n      0x20\n      add\n      0x00\n      keccak256\n        /* \"contracts/MarketPlace.sol\":5543:5546  _id */\n      dup6\n        /* \"contracts/MarketPlace.sol\":5523:5547  userProducts[_shop][_id] */\n      dup2\n      sload\n      dup2\n      lt\n      tag_270\n      jumpi\n      tag_271\n      tag_121\n      jump\t// in\n    tag_271:\n    tag_270:\n      swap1\n      0x00\n      mstore\n      keccak256(0x00, 0x20)\n      swap1\n      0x04\n      mul\n      add\n        /* \"contracts/MarketPlace.sol\":5523:5555  userProducts[_shop][_id].inStock */\n      0x00\n      add\n      0x00\n        /* \"contracts/MarketPlace.sol\":5523:5566  userProducts[_shop][_id].inStock -= _amount */\n      dup3\n      dup3\n      sload\n      tag_273\n      swap2\n      swap1\n      tag_150\n      jump\t// in\n    tag_273:\n      swap3\n      pop\n      pop\n      dup2\n      swap1\n      sstore\n      pop\n        /* \"contracts/MarketPlace.sol\":5599:5609  totalPrice */\n      dup2\n        /* \"contracts/MarketPlace.sol\":5576:5581  users */\n      0x02\n        /* \"contracts/MarketPlace.sol\":5576:5588  users[_shop] */\n      0x00\n        /* \"contracts/MarketPlace.sol\":5582:5587  _shop */\n      dup9\n        /* \"contracts/MarketPlace.sol\":5576:5588  users[_shop] */\n      0xffffffffffffffffffffffffffffffffffffffff\n      and\n      0xffffffffffffffffffffffffffffffffffffffff\n      and\n      dup2\n      mstore\n      0x20\n      add\n      swap1\n      dup2\n      mstore\n      0x20\n      add\n      0x00\n      keccak256\n        /* \"contracts/MarketPlace.sol\":5576:5596  users[_shop].balance */\n      0x01\n      add\n        /* \"contracts/MarketPlace.sol\":5576:5609  users[_shop].balance = totalPrice */\n      dup2\n      swap1\n      sstore\n      pop\n        /* \"contracts/MarketPlace.sol\":5636:5646  totalPrice */\n      dup2\n        /* \"contracts/MarketPlace.sol\":5624:5633  msg.value */\n      callvalue\n        /* \"contracts/MarketPlace.sol\":5624:5646  msg.value > totalPrice */\n      gt\n        /* \"contracts/MarketPlace.sol\":5620:5725  if (msg.value > totalPrice) {... */\n      iszero\n      tag_274\n      jumpi\n        /* \"contracts/MarketPlace.sol\":5670:5680  msg.sender */\n      caller\n        /* \"contracts/MarketPlace.sol\":5662:5690  payable(msg.sender).transfer */\n      0xffffffffffffffffffffffffffffffffffffffff\n      and\n        /* \"contracts/MarketPlace.sol\":5662:5714  payable(msg.sender).transfer(msg.value - totalPrice) */\n      0x08fc\n        /* \"contracts/MarketPlace.sol\":5703:5713  totalPrice */\n      dup4\n        /* \"contracts/MarketPlace.sol\":5691:5700  msg.value */\n      callvalue\n        /* \"contracts/MarketPlace.sol\":5691:5713  msg.value - totalPrice */\n      tag_275\n      swap2\n      swap1\n      tag_150\n      jump\t// in\n    tag_275:\n        /* \"contracts/MarketPlace.sol\":5662:5714  payable(msg.sender).transfer(msg.value - totalPrice) */\n      swap1\n      dup2\n      iszero\n      mul\n      swap1\n      mload(0x40)\n      0x00\n      mload(0x40)\n      dup1\n      dup4\n      sub\n      dup2\n      dup6\n      dup9\n      dup9\n      call\n      swap4\n      pop\n      pop\n      pop\n      pop\n      iszero\n      dup1\n      iszero\n      tag_277\n      jumpi\n      returndatasize\n      0x00\n      dup1\n      returndatacopy\n      revert(0x00, returndatasize)\n    tag_277:\n      pop\n        /* \"contracts/MarketPlace.sol\":5620:5725  if (msg.value > totalPrice) {... */\n    tag_274:\n        /* \"contracts/MarketPlace.sol\":4252:5731  {... */\n      pop\n      pop\n        /* \"contracts/MarketPlace.sol\":4159:5731  function purchase(address _shop, uint _amount, uint _id, string memory _ref ) public payable {... */\n      pop\n      pop\n      pop\n      pop\n      jump\t// out\n        /* \"contracts/MarketPlace.sol\":1863:2007  function genRef(string memory _nameRef, address _user) public {... */\n    tag_79:\n        /* \"contracts/MarketPlace.sol\":1957:1962  _user */\n      dup1\n        /* \"contracts/MarketPlace.sol\":1943:1962  msg.sender != _user */\n      0xffffffffffffffffffffffffffffffffffffffff\n      and\n        /* \"contracts/MarketPlace.sol\":1943:1953  msg.sender */\n      caller\n        /* \"contracts/MarketPlace.sol\":1943:1962  msg.sender != _user */\n      0xffffffffffffffffffffffffffffffffffffffff\n      and\n      sub\n        /* \"contracts/MarketPlace.sol\":1935:1963  require(msg.sender != _user) */\n      tag_279\n      jumpi\n      0x00\n      dup1\n      revert\n    tag_279:\n        /* \"contracts/MarketPlace.sol\":1995:2000  _user */\n      dup1\n        /* \"contracts/MarketPlace.sol\":1973:1982  referrals */\n      0x04\n        /* \"contracts/MarketPlace.sol\":1983:1991  _nameRef */\n      dup4\n        /* \"contracts/MarketPlace.sol\":1973:1992  referrals[_nameRef] */\n      mload(0x40)\n      tag_280\n      swap2\n      swap1\n      tag_229\n      jump\t// in\n    tag_280:\n      swap1\n      dup2\n      mstore\n      0x20\n      add\n      mload(0x40)\n      dup1\n      swap2\n      sub\n      swap1\n      keccak256\n      0x00\n        /* \"contracts/MarketPlace.sol\":1973:2000  referrals[_nameRef] = _user */\n      0x0100\n      exp\n      dup2\n      sload\n      dup2\n      0xffffffffffffffffffffffffffffffffffffffff\n      mul\n      not\n      and\n      swap1\n      dup4\n      0xffffffffffffffffffffffffffffffffffffffff\n      and\n      mul\n      or\n      swap1\n      sstore\n      pop\n        /* \"contracts/MarketPlace.sol\":1863:2007  function genRef(string memory _nameRef, address _user) public {... */\n      pop\n      pop\n      jump\t// out\n        /* \"contracts/MarketPlace.sol\":491:528  mapping(address => User) public users */\n    tag_84:\n      mstore(0x20, 0x02)\n      dup1\n      0x00\n      mstore\n      keccak256(0x00, 0x40)\n      0x00\n      swap2\n      pop\n      swap1\n      pop\n      dup1\n      0x00\n      add\n      0x00\n      swap1\n      sload\n      swap1\n      0x0100\n      exp\n      swap1\n      div\n      0xff\n      and\n      swap1\n      dup1\n      0x01\n      add\n      sload\n      swap1\n      pop\n      dup3\n      jump\t// out\n        /* \"contracts/MarketPlace.sol\":1042:1124  function makeUser() public {... */\n    tag_89:\n        /* \"contracts/MarketPlace.sol\":1099:1117  User(Role.User, 0) */\n      mload(0x40)\n      dup1\n      0x40\n      add\n      0x40\n      mstore\n      dup1\n        /* \"contracts/MarketPlace.sol\":1104:1113  Role.User */\n      0x00\n        /* \"contracts/MarketPlace.sol\":1099:1117  User(Role.User, 0) */\n      0x02\n      dup2\n      gt\n      iszero\n      tag_282\n      jumpi\n      tag_283\n      tag_115\n      jump\t// in\n    tag_283:\n    tag_282:\n      dup2\n      mstore\n      0x20\n      add\n        /* \"contracts/MarketPlace.sol\":1115:1116  0 */\n      0x00\n        /* \"contracts/MarketPlace.sol\":1099:1117  User(Role.User, 0) */\n      dup2\n      mstore\n      pop\n        /* \"contracts/MarketPlace.sol\":1079:1084  users */\n      0x02\n        /* \"contracts/MarketPlace.sol\":1079:1096  users[msg.sender] */\n      0x00\n        /* \"contracts/MarketPlace.sol\":1085:1095  msg.sender */\n      caller\n        /* \"contracts/MarketPlace.sol\":1079:1096  users[msg.sender] */\n      0xffffffffffffffffffffffffffffffffffffffff\n      and\n      0xffffffffffffffffffffffffffffffffffffffff\n      and\n      dup2\n      mstore\n      0x20\n      add\n      swap1\n      dup2\n      mstore\n      0x20\n      add\n      0x00\n      keccak256\n        /* \"contracts/MarketPlace.sol\":1079:1117  users[msg.sender] = User(Role.User, 0) */\n      0x00\n      dup3\n      add\n      mload\n      dup2\n      0x00\n      add\n      exp(0x0100, 0x00)\n      dup2\n      sload\n      dup2\n      0xff\n      mul\n      not\n      and\n      swap1\n      dup4\n      0x02\n      dup2\n      gt\n      iszero\n      tag_284\n      jumpi\n      tag_285\n      tag_115\n      jump\t// in\n    tag_285:\n    tag_284:\n      mul\n      or\n      swap1\n      sstore\n      pop\n      0x20\n      dup3\n      add\n      mload\n      dup2\n      0x01\n      add\n      sstore\n      swap1\n      pop\n      pop\n        /* \"contracts/MarketPlace.sol\":1042:1124  function makeUser() public {... */\n      jump\t// out\n        /* \"contracts/MarketPlace.sol\":589:632  mapping(string => address) public referrals */\n    tag_94:\n      0x04\n      dup2\n      dup1\n      mload\n      0x20\n      dup2\n      add\n      dup3\n      add\n      dup1\n      mload\n      dup5\n      dup3\n      mstore\n      0x20\n      dup4\n      add\n      0x20\n      dup6\n      add\n      keccak256\n      dup2\n      dup4\n      mstore\n      dup1\n      swap6\n      pop\n      pop\n      pop\n      pop\n      pop\n      pop\n      0x00\n      swap2\n      pop\n      sload\n      swap1\n      0x0100\n      exp\n      swap1\n      div\n      0xffffffffffffffffffffffffffffffffffffffff\n      and\n      dup2\n      jump\t// out\n        /* \"contracts/MarketPlace.sol\":5737:5842  function withdrawBal(address _shop) public {... */\n    tag_99:\n        /* \"contracts/MarketPlace.sol\":5798:5803  _shop */\n      dup1\n        /* \"contracts/MarketPlace.sol\":5790:5813  payable(_shop).transfer */\n      0xffffffffffffffffffffffffffffffffffffffff\n      and\n        /* \"contracts/MarketPlace.sol\":5790:5835  payable(_shop).transfer(users[_shop].balance) */\n      0x08fc\n        /* \"contracts/MarketPlace.sol\":5814:5819  users */\n      0x02\n        /* \"contracts/MarketPlace.sol\":5814:5826  users[_shop] */\n      0x00\n        /* \"contracts/MarketPlace.sol\":5820:5825  _shop */\n      dup5\n        /* \"contracts/MarketPlace.sol\":5814:5826  users[_shop] */\n      0xffffffffffffffffffffffffffffffffffffffff\n      and\n      0xffffffffffffffffffffffffffffffffffffffff\n      and\n      dup2\n      mstore\n      0x20\n      add\n      swap1\n      dup2\n      mstore\n      0x20\n      add\n      0x00\n      keccak256\n        /* \"contracts/MarketPlace.sol\":5814:5834  users[_shop].balance */\n      0x01\n      add\n      sload\n        /* \"contracts/MarketPlace.sol\":5790:5835  payable(_shop).transfer(users[_shop].balance) */\n      swap1\n      dup2\n      iszero\n      mul\n      swap1\n      mload(0x40)\n      0x00\n      mload(0x40)\n      dup1\n      dup4\n      sub\n      dup2\n      dup6\n      dup9\n      dup9\n      call\n      swap4\n      pop\n      pop\n      pop\n      pop\n      iszero\n      dup1\n      iszero\n      tag_288\n      jumpi\n      returndatasize\n      0x00\n      dup1\n      returndatacopy\n      revert(0x00, returndatasize)\n    tag_288:\n      pop\n        /* \"contracts/MarketPlace.sol\":5737:5842  function withdrawBal(address _shop) public {... */\n      pop\n      jump\t// out\n        /* \"contracts/MarketPlace.sol\":2321:3610  function refillStore(address _shop, uint _productId, uint _amount, address _supplier) public payable AccessControl(Role.Market, _shop) {... */\n    tag_103:\n        /* \"contracts/MarketPlace.sol\":2436:2447  Role.Market */\n      0x01\n        /* \"contracts/MarketPlace.sol\":2449:2454  _shop */\n      dup5\n        /* \"contracts/MarketPlace.sol\":819:824  _role */\n      dup2\n        /* \"contracts/MarketPlace.sol\":793:824  users[msg.sender].role == _role */\n      0x02\n      dup2\n      gt\n      iszero\n      tag_290\n      jumpi\n      tag_291\n      tag_115\n      jump\t// in\n    tag_291:\n    tag_290:\n        /* \"contracts/MarketPlace.sol\":793:798  users */\n      0x02\n        /* \"contracts/MarketPlace.sol\":793:810  users[msg.sender] */\n      0x00\n        /* \"contracts/MarketPlace.sol\":799:809  msg.sender */\n      caller\n        /* \"contracts/MarketPlace.sol\":793:810  users[msg.sender] */\n      0xffffffffffffffffffffffffffffffffffffffff\n      and\n      0xffffffffffffffffffffffffffffffffffffffff\n      and\n      dup2\n      mstore\n      0x20\n      add\n      swap1\n      dup2\n      mstore\n      0x20\n      add\n      0x00\n      keccak256\n        /* \"contracts/MarketPlace.sol\":793:815  users[msg.sender].role */\n      0x00\n      add\n      0x00\n      swap1\n      sload\n      swap1\n      0x0100\n      exp\n      swap1\n      div\n      0xff\n      and\n        /* \"contracts/MarketPlace.sol\":793:824  users[msg.sender].role == _role */\n      0x02\n      dup2\n      gt\n      iszero\n      tag_292\n      jumpi\n      tag_293\n      tag_115\n      jump\t// in\n    tag_293:\n    tag_292:\n      eq\n        /* \"contracts/MarketPlace.sol\":785:901  require(users[msg.sender].role == _role, unicode\"Ваша роль не позволяет это изменять\") */\n      tag_294\n      jumpi\n      mload(0x40)\n      0x08c379a000000000000000000000000000000000000000000000000000000000\n      dup2\n      mstore\n      0x04\n      add\n      tag_295\n      swap1\n      tag_191\n      jump\t// in\n    tag_295:\n      mload(0x40)\n      dup1\n      swap2\n      sub\n      swap1\n      revert\n    tag_294:\n        /* \"contracts/MarketPlace.sol\":933:938  _shop */\n      dup1\n        /* \"contracts/MarketPlace.sol\":919:938  msg.sender == _shop */\n      0xffffffffffffffffffffffffffffffffffffffff\n      and\n        /* \"contracts/MarketPlace.sol\":919:929  msg.sender */\n      caller\n        /* \"contracts/MarketPlace.sol\":919:938  msg.sender == _shop */\n      0xffffffffffffffffffffffffffffffffffffffff\n      and\n      eq\n        /* \"contracts/MarketPlace.sol\":911:1017  require(msg.sender == _shop, unicode\"Магазин не соответсвует отправителю\") */\n      tag_296\n      jumpi\n      mload(0x40)\n      0x08c379a000000000000000000000000000000000000000000000000000000000\n      dup2\n      mstore\n      0x04\n      add\n      tag_297\n      swap1\n      tag_194\n      jump\t// in\n    tag_297:\n      mload(0x40)\n      dup1\n      swap2\n      sub\n      swap1\n      revert\n    tag_296:\n        /* \"contracts/MarketPlace.sol\":2484:2485  0 */\n      0x00\n        /* \"contracts/MarketPlace.sol\":2474:2481  _amount */\n      dup5\n        /* \"contracts/MarketPlace.sol\":2474:2485  _amount > 0 */\n      gt\n        /* \"contracts/MarketPlace.sol\":2466:2528  require(_amount > 0, \"Purchase amount must be greater than 0\") */\n      tag_299\n      jumpi\n      mload(0x40)\n      0x08c379a000000000000000000000000000000000000000000000000000000000\n      dup2\n      mstore\n      0x04\n      add\n      tag_300\n      swap1\n      tag_213\n      jump\t// in\n    tag_300:\n      mload(0x40)\n      dup1\n      swap2\n      sub\n      swap1\n      revert\n    tag_299:\n        /* \"contracts/MarketPlace.sol\":2559:2571  userProducts */\n      0x03\n        /* \"contracts/MarketPlace.sol\":2559:2582  userProducts[_supplier] */\n      0x00\n        /* \"contracts/MarketPlace.sol\":2572:2581  _supplier */\n      dup5\n        /* \"contracts/MarketPlace.sol\":2559:2582  userProducts[_supplier] */\n      0xffffffffffffffffffffffffffffffffffffffff\n      and\n      0xffffffffffffffffffffffffffffffffffffffff\n      and\n      dup2\n      mstore\n      0x20\n      add\n      swap1\n      dup2\n      mstore\n      0x20\n      add\n      0x00\n      keccak256\n        /* \"contracts/MarketPlace.sol\":2559:2589  userProducts[_supplier].length */\n      dup1\n      sload\n      swap1\n      pop\n        /* \"contracts/MarketPlace.sol\":2546:2556  _productId */\n      dup6\n        /* \"contracts/MarketPlace.sol\":2546:2589  _productId < userProducts[_supplier].length */\n      lt\n        /* \"contracts/MarketPlace.sol\":2538:2612  require(_productId < userProducts[_supplier].length, \"Invalid product ID\") */\n      tag_301\n      jumpi\n      mload(0x40)\n      0x08c379a000000000000000000000000000000000000000000000000000000000\n      dup2\n      mstore\n      0x04\n      add\n      tag_302\n      swap1\n      tag_216\n      jump\t// in\n    tag_302:\n      mload(0x40)\n      dup1\n      swap2\n      sub\n      swap1\n      revert\n    tag_301:\n        /* \"contracts/MarketPlace.sol\":2622:2632  uint price */\n      0x00\n        /* \"contracts/MarketPlace.sol\":2635:2647  userProducts */\n      0x03\n        /* \"contracts/MarketPlace.sol\":2635:2658  userProducts[_supplier] */\n      0x00\n        /* \"contracts/MarketPlace.sol\":2648:2657  _supplier */\n      dup6\n        /* \"contracts/MarketPlace.sol\":2635:2658  userProducts[_supplier] */\n      0xffffffffffffffffffffffffffffffffffffffff\n      and\n      0xffffffffffffffffffffffffffffffffffffffff\n      and\n      dup2\n      mstore\n      0x20\n      add\n      swap1\n      dup2\n      mstore\n      0x20\n      add\n      0x00\n      keccak256\n        /* \"contracts/MarketPlace.sol\":2659:2669  _productId */\n      dup7\n        /* \"contracts/MarketPlace.sol\":2635:2670  userProducts[_supplier][_productId] */\n      dup2\n      sload\n      dup2\n      lt\n      tag_303\n      jumpi\n      tag_304\n      tag_121\n      jump\t// in\n    tag_304:\n    tag_303:\n      swap1\n      0x00\n      mstore\n      keccak256(0x00, 0x20)\n      swap1\n      0x04\n      mul\n      add\n        /* \"contracts/MarketPlace.sol\":2635:2676  userProducts[_supplier][_productId].price */\n      0x01\n      add\n      sload\n        /* \"contracts/MarketPlace.sol\":2622:2676  uint price = userProducts[_supplier][_productId].price */\n      swap1\n      pop\n        /* \"contracts/MarketPlace.sol\":2686:2701  uint totalPrice */\n      0x00\n        /* \"contracts/MarketPlace.sol\":2722:2729  1 ether */\n      0x0de0b6b3a7640000\n        /* \"contracts/MarketPlace.sol\":2712:2719  _amount */\n      dup7\n        /* \"contracts/MarketPlace.sol\":2704:2709  price */\n      dup4\n        /* \"contracts/MarketPlace.sol\":2704:2719  price * _amount */\n      tag_306\n      swap2\n      swap1\n      tag_134\n      jump\t// in\n    tag_306:\n        /* \"contracts/MarketPlace.sol\":2704:2729  price * _amount * 1 ether */\n      tag_307\n      swap2\n      swap1\n      tag_134\n      jump\t// in\n    tag_307:\n        /* \"contracts/MarketPlace.sol\":2686:2729  uint totalPrice = price * _amount * 1 ether */\n      swap1\n      pop\n        /* \"contracts/MarketPlace.sol\":2760:2770  totalPrice */\n      dup1\n        /* \"contracts/MarketPlace.sol\":2747:2756  msg.value */\n      callvalue\n        /* \"contracts/MarketPlace.sol\":2747:2770  msg.value >= totalPrice */\n      lt\n      iszero\n        /* \"contracts/MarketPlace.sol\":2739:2798  require(msg.value >= totalPrice, \"Insufficient funds sent\") */\n      tag_308\n      jumpi\n      mload(0x40)\n      0x08c379a000000000000000000000000000000000000000000000000000000000\n      dup2\n      mstore\n      0x04\n      add\n      tag_309\n      swap1\n      tag_236\n      jump\t// in\n    tag_309:\n      mload(0x40)\n      dup1\n      swap2\n      sub\n      swap1\n      revert\n    tag_308:\n        /* \"contracts/MarketPlace.sol\":2808:2832  string memory targetName */\n      0x00\n        /* \"contracts/MarketPlace.sol\":2835:2847  userProducts */\n      0x03\n        /* \"contracts/MarketPlace.sol\":2835:2858  userProducts[_supplier] */\n      0x00\n        /* \"contracts/MarketPlace.sol\":2848:2857  _supplier */\n      dup8\n        /* \"contracts/MarketPlace.sol\":2835:2858  userProducts[_supplier] */\n      0xffffffffffffffffffffffffffffffffffffffff\n      and\n      0xffffffffffffffffffffffffffffffffffffffff\n      and\n      dup2\n      mstore\n      0x20\n      add\n      swap1\n      dup2\n      mstore\n      0x20\n      add\n      0x00\n      keccak256\n        /* \"contracts/MarketPlace.sol\":2859:2869  _productId */\n      dup9\n        /* \"contracts/MarketPlace.sol\":2835:2870  userProducts[_supplier][_productId] */\n      dup2\n      sload\n      dup2\n      lt\n      tag_310\n      jumpi\n      tag_311\n      tag_121\n      jump\t// in\n    tag_311:\n    tag_310:\n      swap1\n      0x00\n      mstore\n      keccak256(0x00, 0x20)\n      swap1\n      0x04\n      mul\n      add\n        /* \"contracts/MarketPlace.sol\":2835:2875  userProducts[_supplier][_productId].name */\n      0x02\n      add\n        /* \"contracts/MarketPlace.sol\":2808:2875  string memory targetName = userProducts[_supplier][_productId].name */\n      dup1\n      sload\n      tag_313\n      swap1\n      tag_107\n      jump\t// in\n    tag_313:\n      dup1\n      0x1f\n      add\n      0x20\n      dup1\n      swap2\n      div\n      mul\n      0x20\n      add\n      mload(0x40)\n      swap1\n      dup2\n      add\n      0x40\n      mstore\n      dup1\n      swap3\n      swap2\n      swap1\n      dup2\n      dup2\n      mstore\n      0x20\n      add\n      dup3\n      dup1\n      sload\n      tag_314\n      swap1\n      tag_107\n      jump\t// in\n    tag_314:\n      dup1\n      iszero\n      tag_315\n      jumpi\n      dup1\n      0x1f\n      lt\n      tag_316\n      jumpi\n      0x0100\n      dup1\n      dup4\n      sload\n      div\n      mul\n      dup4\n      mstore\n      swap2\n      0x20\n      add\n      swap2\n      jump(tag_315)\n    tag_316:\n      dup3\n      add\n      swap2\n      swap1\n      0x00\n      mstore\n      keccak256(0x00, 0x20)\n      swap1\n    tag_317:\n      dup2\n      sload\n      dup2\n      mstore\n      swap1\n      0x01\n      add\n      swap1\n      0x20\n      add\n      dup1\n      dup4\n      gt\n      tag_317\n      jumpi\n      dup3\n      swap1\n      sub\n      0x1f\n      and\n      dup3\n      add\n      swap2\n    tag_315:\n      pop\n      pop\n      pop\n      pop\n      pop\n      swap1\n      pop\n        /* \"contracts/MarketPlace.sol\":2885:2903  bool productExists */\n      0x00\n        /* \"contracts/MarketPlace.sol\":2926:2932  uint i */\n      dup1\n        /* \"contracts/MarketPlace.sol\":2922:3217  for(uint i = 0; i< userProducts[_shop].length; i++){... */\n    tag_318:\n        /* \"contracts/MarketPlace.sol\":2941:2953  userProducts */\n      0x03\n        /* \"contracts/MarketPlace.sol\":2941:2960  userProducts[_shop] */\n      0x00\n        /* \"contracts/MarketPlace.sol\":2954:2959  _shop */\n      dup13\n        /* \"contracts/MarketPlace.sol\":2941:2960  userProducts[_shop] */\n      0xffffffffffffffffffffffffffffffffffffffff\n      and\n      0xffffffffffffffffffffffffffffffffffffffff\n      and\n      dup2\n      mstore\n      0x20\n      add\n      swap1\n      dup2\n      mstore\n      0x20\n      add\n      0x00\n      keccak256\n        /* \"contracts/MarketPlace.sol\":2941:2967  userProducts[_shop].length */\n      dup1\n      sload\n      swap1\n      pop\n        /* \"contracts/MarketPlace.sol\":2938:2939  i */\n      dup2\n        /* \"contracts/MarketPlace.sol\":2938:2967  i< userProducts[_shop].length */\n      lt\n        /* \"contracts/MarketPlace.sol\":2922:3217  for(uint i = 0; i< userProducts[_shop].length; i++){... */\n      iszero\n      tag_319\n      jumpi\n        /* \"contracts/MarketPlace.sol\":3039:3051  userProducts */\n      0x03\n        /* \"contracts/MarketPlace.sol\":3039:3058  userProducts[_shop] */\n      0x00\n        /* \"contracts/MarketPlace.sol\":3052:3057  _shop */\n      dup13\n        /* \"contracts/MarketPlace.sol\":3039:3058  userProducts[_shop] */\n      0xffffffffffffffffffffffffffffffffffffffff\n      and\n      0xffffffffffffffffffffffffffffffffffffffff\n      and\n      dup2\n      mstore\n      0x20\n      add\n      swap1\n      dup2\n      mstore\n      0x20\n      add\n      0x00\n      keccak256\n        /* \"contracts/MarketPlace.sol\":3059:3060  i */\n      dup2\n        /* \"contracts/MarketPlace.sol\":3039:3061  userProducts[_shop][i] */\n      dup2\n      sload\n      dup2\n      lt\n      tag_321\n      jumpi\n      tag_322\n      tag_121\n      jump\t// in\n    tag_322:\n    tag_321:\n      swap1\n      0x00\n      mstore\n      keccak256(0x00, 0x20)\n      swap1\n      0x04\n      mul\n      add\n        /* \"contracts/MarketPlace.sol\":3039:3066  userProducts[_shop][i].name */\n      0x02\n      add\n        /* \"contracts/MarketPlace.sol\":3023:3068  keccak256(bytes(userProducts[_shop][i].name)) */\n      mload(0x40)\n      tag_324\n      swap2\n      swap1\n      tag_244\n      jump\t// in\n    tag_324:\n      mload(0x40)\n      dup1\n      swap2\n      sub\n      swap1\n      keccak256\n        /* \"contracts/MarketPlace.sol\":3007:3017  targetName */\n      dup4\n        /* \"contracts/MarketPlace.sol\":2991:3019  keccak256(bytes(targetName)) */\n      dup1\n      mload\n      swap1\n      0x20\n      add\n      keccak256\n        /* \"contracts/MarketPlace.sol\":2991:3068  keccak256(bytes(targetName)) == keccak256(bytes(userProducts[_shop][i].name)) */\n      sub\n        /* \"contracts/MarketPlace.sol\":2987:3207  if (keccak256(bytes(targetName)) == keccak256(bytes(userProducts[_shop][i].name))){... */\n      tag_325\n      jumpi\n        /* \"contracts/MarketPlace.sol\":3121:3128  _amount */\n      dup9\n        /* \"contracts/MarketPlace.sol\":3087:3099  userProducts */\n      0x03\n        /* \"contracts/MarketPlace.sol\":3087:3106  userProducts[_shop] */\n      0x00\n        /* \"contracts/MarketPlace.sol\":3100:3105  _shop */\n      dup14\n        /* \"contracts/MarketPlace.sol\":3087:3106  userProducts[_shop] */\n      0xffffffffffffffffffffffffffffffffffffffff\n      and\n      0xffffffffffffffffffffffffffffffffffffffff\n      and\n      dup2\n      mstore\n      0x20\n      add\n      swap1\n      dup2\n      mstore\n      0x20\n      add\n      0x00\n      keccak256\n        /* \"contracts/MarketPlace.sol\":3107:3108  i */\n      dup3\n        /* \"contracts/MarketPlace.sol\":3087:3109  userProducts[_shop][i] */\n      dup2\n      sload\n      dup2\n      lt\n      tag_326\n      jumpi\n      tag_327\n      tag_121\n      jump\t// in\n    tag_327:\n    tag_326:\n      swap1\n      0x00\n      mstore\n      keccak256(0x00, 0x20)\n      swap1\n      0x04\n      mul\n      add\n        /* \"contracts/MarketPlace.sol\":3087:3117  userProducts[_shop][i].inStock */\n      0x00\n      add\n      0x00\n        /* \"contracts/MarketPlace.sol\":3087:3128  userProducts[_shop][i].inStock += _amount */\n      dup3\n      dup3\n      sload\n      tag_329\n      swap2\n      swap1\n      tag_143\n      jump\t// in\n    tag_329:\n      swap3\n      pop\n      pop\n      dup2\n      swap1\n      sstore\n      pop\n        /* \"contracts/MarketPlace.sol\":3162:3166  true */\n      0x01\n        /* \"contracts/MarketPlace.sol\":3146:3166  productExists = true */\n      swap2\n      pop\n        /* \"contracts/MarketPlace.sol\":3184:3189  break */\n      jump(tag_319)\n        /* \"contracts/MarketPlace.sol\":2987:3207  if (keccak256(bytes(targetName)) == keccak256(bytes(userProducts[_shop][i].name))){... */\n    tag_325:\n        /* \"contracts/MarketPlace.sol\":2969:2972  i++ */\n      dup1\n      dup1\n      tag_330\n      swap1\n      tag_179\n      jump\t// in\n    tag_330:\n      swap2\n      pop\n      pop\n        /* \"contracts/MarketPlace.sol\":2922:3217  for(uint i = 0; i< userProducts[_shop].length; i++){... */\n      jump(tag_318)\n    tag_319:\n      pop\n        /* \"contracts/MarketPlace.sol\":3232:3245  productExists */\n      dup1\n        /* \"contracts/MarketPlace.sol\":3227:3423  if (!productExists){... */\n      tag_331\n      jumpi\n        /* \"contracts/MarketPlace.sol\":3260:3282  Product memory newItem */\n      0x00\n        /* \"contracts/MarketPlace.sol\":3285:3365  Product(_amount, price, targetName, userProducts[_supplier][_productId].expDate) */\n      mload(0x40)\n      dup1\n      0x80\n      add\n      0x40\n      mstore\n      dup1\n        /* \"contracts/MarketPlace.sol\":3293:3300  _amount */\n      dup11\n        /* \"contracts/MarketPlace.sol\":3285:3365  Product(_amount, price, targetName, userProducts[_supplier][_productId].expDate) */\n      dup2\n      mstore\n      0x20\n      add\n        /* \"contracts/MarketPlace.sol\":3302:3307  price */\n      dup7\n        /* \"contracts/MarketPlace.sol\":3285:3365  Product(_amount, price, targetName, userProducts[_supplier][_productId].expDate) */\n      dup2\n      mstore\n      0x20\n      add\n        /* \"contracts/MarketPlace.sol\":3309:3319  targetName */\n      dup5\n        /* \"contracts/MarketPlace.sol\":3285:3365  Product(_amount, price, targetName, userProducts[_supplier][_productId].expDate) */\n      dup2\n      mstore\n      0x20\n      add\n        /* \"contracts/MarketPlace.sol\":3321:3333  userProducts */\n      0x03\n        /* \"contracts/MarketPlace.sol\":3321:3344  userProducts[_supplier] */\n      0x00\n        /* \"contracts/MarketPlace.sol\":3334:3343  _supplier */\n      dup12\n        /* \"contracts/MarketPlace.sol\":3321:3344  userProducts[_supplier] */\n      0xffffffffffffffffffffffffffffffffffffffff\n      and\n      0xffffffffffffffffffffffffffffffffffffffff\n      and\n      dup2\n      mstore\n      0x20\n      add\n      swap1\n      dup2\n      mstore\n      0x20\n      add\n      0x00\n      keccak256\n        /* \"contracts/MarketPlace.sol\":3345:3355  _productId */\n      dup13\n        /* \"contracts/MarketPlace.sol\":3321:3356  userProducts[_supplier][_productId] */\n      dup2\n      sload\n      dup2\n      lt\n      tag_332\n      jumpi\n      tag_333\n      tag_121\n      jump\t// in\n    tag_333:\n    tag_332:\n      swap1\n      0x00\n      mstore\n      keccak256(0x00, 0x20)\n      swap1\n      0x04\n      mul\n      add\n        /* \"contracts/MarketPlace.sol\":3321:3364  userProducts[_supplier][_productId].expDate */\n      0x03\n      add\n      sload\n        /* \"contracts/MarketPlace.sol\":3285:3365  Product(_amount, price, targetName, userProducts[_supplier][_productId].expDate) */\n      dup2\n      mstore\n      pop\n        /* \"contracts/MarketPlace.sol\":3260:3365  Product memory newItem = Product(_amount, price, targetName, userProducts[_supplier][_productId].expDate) */\n      swap1\n      pop\n        /* \"contracts/MarketPlace.sol\":3379:3391  userProducts */\n      0x03\n        /* \"contracts/MarketPlace.sol\":3379:3398  userProducts[_shop] */\n      0x00\n        /* \"contracts/MarketPlace.sol\":3392:3397  _shop */\n      dup13\n        /* \"contracts/MarketPlace.sol\":3379:3398  userProducts[_shop] */\n      0xffffffffffffffffffffffffffffffffffffffff\n      and\n      0xffffffffffffffffffffffffffffffffffffffff\n      and\n      dup2\n      mstore\n      0x20\n      add\n      swap1\n      dup2\n      mstore\n      0x20\n      add\n      0x00\n      keccak256\n        /* \"contracts/MarketPlace.sol\":3404:3411  newItem */\n      dup2\n        /* \"contracts/MarketPlace.sol\":3379:3412  userProducts[_shop].push(newItem) */\n      swap1\n      dup1\n      0x01\n      dup2\n      sload\n      add\n      dup1\n      dup3\n      sstore\n      dup1\n      swap2\n      pop\n      pop\n      0x01\n      swap1\n      sub\n      swap1\n      0x00\n      mstore\n      keccak256(0x00, 0x20)\n      swap1\n      0x04\n      mul\n      add\n      0x00\n      swap1\n      swap2\n      swap1\n      swap2\n      swap1\n      swap2\n      pop\n      0x00\n      dup3\n      add\n      mload\n      dup2\n      0x00\n      add\n      sstore\n      0x20\n      dup3\n      add\n      mload\n      dup2\n      0x01\n      add\n      sstore\n      0x40\n      dup3\n      add\n      mload\n      dup2\n      0x02\n      add\n      swap1\n      dup2\n      tag_336\n      swap2\n      swap1\n      tag_200\n      jump\t// in\n    tag_336:\n      pop\n      0x60\n      dup3\n      add\n      mload\n      dup2\n      0x03\n      add\n      sstore\n      pop\n      pop\n        /* \"contracts/MarketPlace.sol\":3246:3423  {... */\n      pop\n        /* \"contracts/MarketPlace.sol\":3227:3423  if (!productExists){... */\n    tag_331:\n        /* \"contracts/MarketPlace.sol\":3480:3487  _amount */\n      dup8\n        /* \"contracts/MarketPlace.sol\":3433:3445  userProducts */\n      0x03\n        /* \"contracts/MarketPlace.sol\":3433:3456  userProducts[_supplier] */\n      0x00\n        /* \"contracts/MarketPlace.sol\":3446:3455  _supplier */\n      dup10\n        /* \"contracts/MarketPlace.sol\":3433:3456  userProducts[_supplier] */\n      0xffffffffffffffffffffffffffffffffffffffff\n      and\n      0xffffffffffffffffffffffffffffffffffffffff\n      and\n      dup2\n      mstore\n      0x20\n      add\n      swap1\n      dup2\n      mstore\n      0x20\n      add\n      0x00\n      keccak256\n        /* \"contracts/MarketPlace.sol\":3457:3467  _productId */\n      dup11\n        /* \"contracts/MarketPlace.sol\":3433:3468  userProducts[_supplier][_productId] */\n      dup2\n      sload\n      dup2\n      lt\n      tag_337\n      jumpi\n      tag_338\n      tag_121\n      jump\t// in\n    tag_338:\n    tag_337:\n      swap1\n      0x00\n      mstore\n      keccak256(0x00, 0x20)\n      swap1\n      0x04\n      mul\n      add\n        /* \"contracts/MarketPlace.sol\":3433:3476  userProducts[_supplier][_productId].inStock */\n      0x00\n      add\n      0x00\n        /* \"contracts/MarketPlace.sol\":3433:3487  userProducts[_supplier][_productId].inStock -= _amount */\n      dup3\n      dup3\n      sload\n      tag_340\n      swap2\n      swap1\n      tag_150\n      jump\t// in\n    tag_340:\n      swap3\n      pop\n      pop\n      dup2\n      swap1\n      sstore\n      pop\n        /* \"contracts/MarketPlace.sol\":3514:3524  totalPrice */\n      dup3\n        /* \"contracts/MarketPlace.sol\":3502:3511  msg.value */\n      callvalue\n        /* \"contracts/MarketPlace.sol\":3502:3524  msg.value > totalPrice */\n      gt\n        /* \"contracts/MarketPlace.sol\":3498:3603  if (msg.value > totalPrice) {... */\n      iszero\n      tag_341\n      jumpi\n        /* \"contracts/MarketPlace.sol\":3548:3558  msg.sender */\n      caller\n        /* \"contracts/MarketPlace.sol\":3540:3568  payable(msg.sender).transfer */\n      0xffffffffffffffffffffffffffffffffffffffff\n      and\n        /* \"contracts/MarketPlace.sol\":3540:3592  payable(msg.sender).transfer(msg.value - totalPrice) */\n      0x08fc\n        /* \"contracts/MarketPlace.sol\":3581:3591  totalPrice */\n      dup5\n        /* \"contracts/MarketPlace.sol\":3569:3578  msg.value */\n      callvalue\n        /* \"contracts/MarketPlace.sol\":3569:3591  msg.value - totalPrice */\n      tag_342\n      swap2\n      swap1\n      tag_150\n      jump\t// in\n    tag_342:\n        /* \"contracts/MarketPlace.sol\":3540:3592  payable(msg.sender).transfer(msg.value - totalPrice) */\n      swap1\n      dup2\n      iszero\n      mul\n      swap1\n      mload(0x40)\n      0x00\n      mload(0x40)\n      dup1\n      dup4\n      sub\n      dup2\n      dup6\n      dup9\n      dup9\n      call\n      swap4\n      pop\n      pop\n      pop\n      pop\n      iszero\n      dup1\n      iszero\n      tag_344\n      jumpi\n      returndatasize\n      0x00\n      dup1\n      returndatacopy\n      revert(0x00, returndatasize)\n    tag_344:\n      pop\n        /* \"contracts/MarketPlace.sol\":3498:3603  if (msg.value > totalPrice) {... */\n    tag_341:\n        /* \"contracts/MarketPlace.sol\":2456:3610  {... */\n      pop\n      pop\n      pop\n      pop\n        /* \"contracts/MarketPlace.sol\":2321:3610  function refillStore(address _shop, uint _productId, uint _amount, address _supplier) public payable AccessControl(Role.Market, _shop) {... */\n      pop\n      pop\n      pop\n      pop\n      pop\n      pop\n      jump\t// out\n    tag_148:\n      pop\n      dup1\n      sload\n      tag_345\n      swap1\n      tag_107\n      jump\t// in\n    tag_345:\n      0x00\n      dup3\n      sstore\n      dup1\n      0x1f\n      lt\n      tag_347\n      jumpi\n      pop\n      jump(tag_346)\n    tag_347:\n      0x1f\n      add\n      0x20\n      swap1\n      div\n      swap1\n      0x00\n      mstore\n      keccak256(0x00, 0x20)\n      swap1\n      dup2\n      add\n      swap1\n      tag_348\n      swap2\n      swap1\n      tag_349\n      jump\t// in\n    tag_348:\n    tag_346:\n      pop\n      jump\t// out\n    tag_349:\n    tag_350:\n      dup1\n      dup3\n      gt\n      iszero\n      tag_351\n      jumpi\n      0x00\n      dup2\n      0x00\n      swap1\n      sstore\n      pop\n      0x01\n      add\n      jump(tag_350)\n    tag_351:\n      pop\n      swap1\n      jump\t// out\n        /* \"#utility.yul\":7:82   */\n    tag_352:\n        /* \"#utility.yul\":40:46   */\n      0x00\n        /* \"#utility.yul\":73:75   */\n      0x40\n        /* \"#utility.yul\":67:76   */\n      mload\n        /* \"#utility.yul\":57:76   */\n      swap1\n      pop\n        /* \"#utility.yul\":7:82   */\n      swap1\n      jump\t// out\n        /* \"#utility.yul\":88:205   */\n    tag_353:\n        /* \"#utility.yul\":197:198   */\n      0x00\n        /* \"#utility.yul\":194:195   */\n      dup1\n        /* \"#utility.yul\":187:199   */\n      revert\n        /* \"#utility.yul\":211:328   */\n    tag_354:\n        /* \"#utility.yul\":320:321   */\n      0x00\n        /* \"#utility.yul\":317:318   */\n      dup1\n        /* \"#utility.yul\":310:322   */\n      revert\n        /* \"#utility.yul\":334:460   */\n    tag_355:\n        /* \"#utility.yul\":371:378   */\n      0x00\n        /* \"#utility.yul\":411:453   */\n      0xffffffffffffffffffffffffffffffffffffffff\n        /* \"#utility.yul\":404:409   */\n      dup3\n        /* \"#utility.yul\":400:454   */\n      and\n        /* \"#utility.yul\":389:454   */\n      swap1\n      pop\n        /* \"#utility.yul\":334:460   */\n      swap2\n      swap1\n      pop\n      jump\t// out\n        /* \"#utility.yul\":466:562   */\n    tag_356:\n        /* \"#utility.yul\":503:510   */\n      0x00\n        /* \"#utility.yul\":532:556   */\n      tag_434\n        /* \"#utility.yul\":550:555   */\n      dup3\n        /* \"#utility.yul\":532:556   */\n      tag_355\n      jump\t// in\n    tag_434:\n        /* \"#utility.yul\":521:556   */\n      swap1\n      pop\n        /* \"#utility.yul\":466:562   */\n      swap2\n      swap1\n      pop\n      jump\t// out\n        /* \"#utility.yul\":568:690   */\n    tag_357:\n        /* \"#utility.yul\":641:665   */\n      tag_436\n        /* \"#utility.yul\":659:664   */\n      dup2\n        /* \"#utility.yul\":641:665   */\n      tag_356\n      jump\t// in\n    tag_436:\n        /* \"#utility.yul\":634:639   */\n      dup2\n        /* \"#utility.yul\":631:666   */\n      eq\n        /* \"#utility.yul\":621:684   */\n      tag_437\n      jumpi\n        /* \"#utility.yul\":680:681   */\n      0x00\n        /* \"#utility.yul\":677:678   */\n      dup1\n        /* \"#utility.yul\":670:682   */\n      revert\n        /* \"#utility.yul\":621:684   */\n    tag_437:\n        /* \"#utility.yul\":568:690   */\n      pop\n      jump\t// out\n        /* \"#utility.yul\":696:835   */\n    tag_358:\n        /* \"#utility.yul\":742:747   */\n      0x00\n        /* \"#utility.yul\":780:786   */\n      dup2\n        /* \"#utility.yul\":767:787   */\n      calldataload\n        /* \"#utility.yul\":758:787   */\n      swap1\n      pop\n        /* \"#utility.yul\":796:829   */\n      tag_439\n        /* \"#utility.yul\":823:828   */\n      dup2\n        /* \"#utility.yul\":796:829   */\n      tag_357\n      jump\t// in\n    tag_439:\n        /* \"#utility.yul\":696:835   */\n      swap3\n      swap2\n      pop\n      pop\n      jump\t// out\n        /* \"#utility.yul\":841:918   */\n    tag_359:\n        /* \"#utility.yul\":878:885   */\n      0x00\n        /* \"#utility.yul\":907:912   */\n      dup2\n        /* \"#utility.yul\":896:912   */\n      swap1\n      pop\n        /* \"#utility.yul\":841:918   */\n      swap2\n      swap1\n      pop\n      jump\t// out\n        /* \"#utility.yul\":924:1046   */\n    tag_360:\n        /* \"#utility.yul\":997:1021   */\n      tag_442\n        /* \"#utility.yul\":1015:1020   */\n      dup2\n        /* \"#utility.yul\":997:1021   */\n      tag_359\n      jump\t// in\n    tag_442:\n        /* \"#utility.yul\":990:995   */\n      dup2\n        /* \"#utility.yul\":987:1022   */\n      eq\n        /* \"#utility.yul\":977:1040   */\n      tag_443\n      jumpi\n        /* \"#utility.yul\":1036:1037   */\n      0x00\n        /* \"#utility.yul\":1033:1034   */\n      dup1\n        /* \"#utility.yul\":1026:1038   */\n      revert\n        /* \"#utility.yul\":977:1040   */\n    tag_443:\n        /* \"#utility.yul\":924:1046   */\n      pop\n      jump\t// out\n        /* \"#utility.yul\":1052:1191   */\n    tag_361:\n        /* \"#utility.yul\":1098:1103   */\n      0x00\n        /* \"#utility.yul\":1136:1142   */\n      dup2\n        /* \"#utility.yul\":1123:1143   */\n      calldataload\n        /* \"#utility.yul\":1114:1143   */\n      swap1\n      pop\n        /* \"#utility.yul\":1152:1185   */\n      tag_445\n        /* \"#utility.yul\":1179:1184   */\n      dup2\n        /* \"#utility.yul\":1152:1185   */\n      tag_360\n      jump\t// in\n    tag_445:\n        /* \"#utility.yul\":1052:1191   */\n      swap3\n      swap2\n      pop\n      pop\n      jump\t// out\n        /* \"#utility.yul\":1197:1671   */\n    tag_25:\n        /* \"#utility.yul\":1265:1271   */\n      0x00\n        /* \"#utility.yul\":1273:1279   */\n      dup1\n        /* \"#utility.yul\":1322:1324   */\n      0x40\n        /* \"#utility.yul\":1310:1319   */\n      dup4\n        /* \"#utility.yul\":1301:1308   */\n      dup6\n        /* \"#utility.yul\":1297:1320   */\n      sub\n        /* \"#utility.yul\":1293:1325   */\n      slt\n        /* \"#utility.yul\":1290:1409   */\n      iszero\n      tag_447\n      jumpi\n        /* \"#utility.yul\":1328:1407   */\n      tag_448\n      tag_353\n      jump\t// in\n    tag_448:\n        /* \"#utility.yul\":1290:1409   */\n    tag_447:\n        /* \"#utility.yul\":1448:1449   */\n      0x00\n        /* \"#utility.yul\":1473:1526   */\n      tag_449\n        /* \"#utility.yul\":1518:1525   */\n      dup6\n        /* \"#utility.yul\":1509:1515   */\n      dup3\n        /* \"#utility.yul\":1498:1507   */\n      dup7\n        /* \"#utility.yul\":1494:1516   */\n      add\n        /* \"#utility.yul\":1473:1526   */\n      tag_358\n      jump\t// in\n    tag_449:\n        /* \"#utility.yul\":1463:1526   */\n      swap3\n      pop\n        /* \"#utility.yul\":1419:1536   */\n      pop\n        /* \"#utility.yul\":1575:1577   */\n      0x20\n        /* \"#utility.yul\":1601:1654   */\n      tag_450\n        /* \"#utility.yul\":1646:1653   */\n      dup6\n        /* \"#utility.yul\":1637:1643   */\n      dup3\n        /* \"#utility.yul\":1626:1635   */\n      dup7\n        /* \"#utility.yul\":1622:1644   */\n      add\n        /* \"#utility.yul\":1601:1654   */\n      tag_361\n      jump\t// in\n    tag_450:\n        /* \"#utility.yul\":1591:1654   */\n      swap2\n      pop\n        /* \"#utility.yul\":1546:1664   */\n      pop\n        /* \"#utility.yul\":1197:1671   */\n      swap3\n      pop\n      swap3\n      swap1\n      pop\n      jump\t// out\n        /* \"#utility.yul\":1677:1795   */\n    tag_362:\n        /* \"#utility.yul\":1764:1788   */\n      tag_452\n        /* \"#utility.yul\":1782:1787   */\n      dup2\n        /* \"#utility.yul\":1764:1788   */\n      tag_359\n      jump\t// in\n    tag_452:\n        /* \"#utility.yul\":1759:1762   */\n      dup3\n        /* \"#utility.yul\":1752:1789   */\n      mstore\n        /* \"#utility.yul\":1677:1795   */\n      pop\n      pop\n      jump\t// out\n        /* \"#utility.yul\":1801:1900   */\n    tag_363:\n        /* \"#utility.yul\":1853:1859   */\n      0x00\n        /* \"#utility.yul\":1887:1892   */\n      dup2\n        /* \"#utility.yul\":1881:1893   */\n      mload\n        /* \"#utility.yul\":1871:1893   */\n      swap1\n      pop\n        /* \"#utility.yul\":1801:1900   */\n      swap2\n      swap1\n      pop\n      jump\t// out\n        /* \"#utility.yul\":1906:2075   */\n    tag_364:\n        /* \"#utility.yul\":1990:2001   */\n      0x00\n        /* \"#utility.yul\":2024:2030   */\n      dup3\n        /* \"#utility.yul\":2019:2022   */\n      dup3\n        /* \"#utility.yul\":2012:2031   */\n      mstore\n        /* \"#utility.yul\":2064:2068   */\n      0x20\n        /* \"#utility.yul\":2059:2062   */\n      dup3\n        /* \"#utility.yul\":2055:2069   */\n      add\n        /* \"#utility.yul\":2040:2069   */\n      swap1\n      pop\n        /* \"#utility.yul\":1906:2075   */\n      swap3\n      swap2\n      pop\n      pop\n      jump\t// out\n        /* \"#utility.yul\":2081:2327   */\n    tag_365:\n        /* \"#utility.yul\":2162:2163   */\n      0x00\n        /* \"#utility.yul\":2172:2285   */\n    tag_456:\n        /* \"#utility.yul\":2186:2192   */\n      dup4\n        /* \"#utility.yul\":2183:2184   */\n      dup2\n        /* \"#utility.yul\":2180:2193   */\n      lt\n        /* \"#utility.yul\":2172:2285   */\n      iszero\n      tag_458\n      jumpi\n        /* \"#utility.yul\":2271:2272   */\n      dup1\n        /* \"#utility.yul\":2266:2269   */\n      dup3\n        /* \"#utility.yul\":2262:2273   */\n      add\n        /* \"#utility.yul\":2256:2274   */\n      mload\n        /* \"#utility.yul\":2252:2253   */\n      dup2\n        /* \"#utility.yul\":2247:2250   */\n      dup5\n        /* \"#utility.yul\":2243:2254   */\n      add\n        /* \"#utility.yul\":2236:2275   */\n      mstore\n        /* \"#utility.yul\":2208:2210   */\n      0x20\n        /* \"#utility.yul\":2205:2206   */\n      dup2\n        /* \"#utility.yul\":2201:2211   */\n      add\n        /* \"#utility.yul\":2196:2211   */\n      swap1\n      pop\n        /* \"#utility.yul\":2172:2285   */\n      jump(tag_456)\n    tag_458:\n        /* \"#utility.yul\":2319:2320   */\n      0x00\n        /* \"#utility.yul\":2310:2316   */\n      dup5\n        /* \"#utility.yul\":2305:2308   */\n      dup5\n        /* \"#utility.yul\":2301:2317   */\n      add\n        /* \"#utility.yul\":2294:2321   */\n      mstore\n        /* \"#utility.yul\":2143:2327   */\n      pop\n        /* \"#utility.yul\":2081:2327   */\n      pop\n      pop\n      pop\n      jump\t// out\n        /* \"#utility.yul\":2333:2435   */\n    tag_366:\n        /* \"#utility.yul\":2374:2380   */\n      0x00\n        /* \"#utility.yul\":2425:2427   */\n      0x1f\n        /* \"#utility.yul\":2421:2428   */\n      not\n        /* \"#utility.yul\":2416:2418   */\n      0x1f\n        /* \"#utility.yul\":2409:2414   */\n      dup4\n        /* \"#utility.yul\":2405:2419   */\n      add\n        /* \"#utility.yul\":2401:2429   */\n      and\n        /* \"#utility.yul\":2391:2429   */\n      swap1\n      pop\n        /* \"#utility.yul\":2333:2435   */\n      swap2\n      swap1\n      pop\n      jump\t// out\n        /* \"#utility.yul\":2441:2818   */\n    tag_367:\n        /* \"#utility.yul\":2529:2532   */\n      0x00\n        /* \"#utility.yul\":2557:2596   */\n      tag_461\n        /* \"#utility.yul\":2590:2595   */\n      dup3\n        /* \"#utility.yul\":2557:2596   */\n      tag_363\n      jump\t// in\n    tag_461:\n        /* \"#utility.yul\":2612:2683   */\n      tag_462\n        /* \"#utility.yul\":2676:2682   */\n      dup2\n        /* \"#utility.yul\":2671:2674   */\n      dup6\n        /* \"#utility.yul\":2612:2683   */\n      tag_364\n      jump\t// in\n    tag_462:\n        /* \"#utility.yul\":2605:2683   */\n      swap4\n      pop\n        /* \"#utility.yul\":2692:2757   */\n      tag_463\n        /* \"#utility.yul\":2750:2756   */\n      dup2\n        /* \"#utility.yul\":2745:2748   */\n      dup6\n        /* \"#utility.yul\":2738:2742   */\n      0x20\n        /* \"#utility.yul\":2731:2736   */\n      dup7\n        /* \"#utility.yul\":2727:2743   */\n      add\n        /* \"#utility.yul\":2692:2757   */\n      tag_365\n      jump\t// in\n    tag_463:\n        /* \"#utility.yul\":2782:2811   */\n      tag_464\n        /* \"#utility.yul\":2804:2810   */\n      dup2\n        /* \"#utility.yul\":2782:2811   */\n      tag_366\n      jump\t// in\n    tag_464:\n        /* \"#utility.yul\":2777:2780   */\n      dup5\n        /* \"#utility.yul\":2773:2812   */\n      add\n        /* \"#utility.yul\":2766:2812   */\n      swap2\n      pop\n        /* \"#utility.yul\":2533:2818   */\n      pop\n        /* \"#utility.yul\":2441:2818   */\n      swap3\n      swap2\n      pop\n      pop\n      jump\t// out\n        /* \"#utility.yul\":2824:3468   */\n    tag_28:\n        /* \"#utility.yul\":3021:3025   */\n      0x00\n        /* \"#utility.yul\":3059:3062   */\n      0x80\n        /* \"#utility.yul\":3048:3057   */\n      dup3\n        /* \"#utility.yul\":3044:3063   */\n      add\n        /* \"#utility.yul\":3036:3063   */\n      swap1\n      pop\n        /* \"#utility.yul\":3073:3144   */\n      tag_466\n        /* \"#utility.yul\":3141:3142   */\n      0x00\n        /* \"#utility.yul\":3130:3139   */\n      dup4\n        /* \"#utility.yul\":3126:3143   */\n      add\n        /* \"#utility.yul\":3117:3123   */\n      dup8\n        /* \"#utility.yul\":3073:3144   */\n      tag_362\n      jump\t// in\n    tag_466:\n        /* \"#utility.yul\":3154:3226   */\n      tag_467\n        /* \"#utility.yul\":3222:3224   */\n      0x20\n        /* \"#utility.yul\":3211:3220   */\n      dup4\n        /* \"#utility.yul\":3207:3225   */\n      add\n        /* \"#utility.yul\":3198:3204   */\n      dup7\n        /* \"#utility.yul\":3154:3226   */\n      tag_362\n      jump\t// in\n    tag_467:\n        /* \"#utility.yul\":3273:3282   */\n      dup2\n        /* \"#utility.yul\":3267:3271   */\n      dup2\n        /* \"#utility.yul\":3263:3283   */\n      sub\n        /* \"#utility.yul\":3258:3260   */\n      0x40\n        /* \"#utility.yul\":3247:3256   */\n      dup4\n        /* \"#utility.yul\":3243:3261   */\n      add\n        /* \"#utility.yul\":3236:3284   */\n      mstore\n        /* \"#utility.yul\":3301:3379   */\n      tag_468\n        /* \"#utility.yul\":3374:3378   */\n      dup2\n        /* \"#utility.yul\":3365:3371   */\n      dup6\n        /* \"#utility.yul\":3301:3379   */\n      tag_367\n      jump\t// in\n    tag_468:\n        /* \"#utility.yul\":3293:3379   */\n      swap1\n      pop\n        /* \"#utility.yul\":3389:3461   */\n      tag_469\n        /* \"#utility.yul\":3457:3459   */\n      0x60\n        /* \"#utility.yul\":3446:3455   */\n      dup4\n        /* \"#utility.yul\":3442:3460   */\n      add\n        /* \"#utility.yul\":3433:3439   */\n      dup5\n        /* \"#utility.yul\":3389:3461   */\n      tag_362\n      jump\t// in\n    tag_469:\n        /* \"#utility.yul\":2824:3468   */\n      swap6\n      swap5\n      pop\n      pop\n      pop\n      pop\n      pop\n      jump\t// out\n        /* \"#utility.yul\":3474:3803   */\n    tag_39:\n        /* \"#utility.yul\":3533:3539   */\n      0x00\n        /* \"#utility.yul\":3582:3584   */\n      0x20\n        /* \"#utility.yul\":3570:3579   */\n      dup3\n        /* \"#utility.yul\":3561:3568   */\n      dup5\n        /* \"#utility.yul\":3557:3580   */\n      sub\n        /* \"#utility.yul\":3553:3585   */\n      slt\n        /* \"#utility.yul\":3550:3669   */\n      iszero\n      tag_471\n      jumpi\n        /* \"#utility.yul\":3588:3667   */\n      tag_472\n      tag_353\n      jump\t// in\n    tag_472:\n        /* \"#utility.yul\":3550:3669   */\n    tag_471:\n        /* \"#utility.yul\":3708:3709   */\n      0x00\n        /* \"#utility.yul\":3733:3786   */\n      tag_473\n        /* \"#utility.yul\":3778:3785   */\n      dup5\n        /* \"#utility.yul\":3769:3775   */\n      dup3\n        /* \"#utility.yul\":3758:3767   */\n      dup6\n        /* \"#utility.yul\":3754:3776   */\n      add\n        /* \"#utility.yul\":3733:3786   */\n      tag_361\n      jump\t// in\n    tag_473:\n        /* \"#utility.yul\":3723:3786   */\n      swap2\n      pop\n        /* \"#utility.yul\":3679:3796   */\n      pop\n        /* \"#utility.yul\":3474:3803   */\n      swap3\n      swap2\n      pop\n      pop\n      jump\t// out\n        /* \"#utility.yul\":3809:3927   */\n    tag_368:\n        /* \"#utility.yul\":3896:3920   */\n      tag_475\n        /* \"#utility.yul\":3914:3919   */\n      dup2\n        /* \"#utility.yul\":3896:3920   */\n      tag_356\n      jump\t// in\n    tag_475:\n        /* \"#utility.yul\":3891:3894   */\n      dup3\n        /* \"#utility.yul\":3884:3921   */\n      mstore\n        /* \"#utility.yul\":3809:3927   */\n      pop\n      pop\n      jump\t// out\n        /* \"#utility.yul\":3933:4113   */\n    tag_115:\n        /* \"#utility.yul\":3981:4058   */\n      0x4e487b7100000000000000000000000000000000000000000000000000000000\n        /* \"#utility.yul\":3978:3979   */\n      0x00\n        /* \"#utility.yul\":3971:4059   */\n      mstore\n        /* \"#utility.yul\":4078:4082   */\n      0x21\n        /* \"#utility.yul\":4075:4076   */\n      0x04\n        /* \"#utility.yul\":4068:4083   */\n      mstore\n        /* \"#utility.yul\":4102:4106   */\n      0x24\n        /* \"#utility.yul\":4099:4100   */\n      0x00\n        /* \"#utility.yul\":4092:4107   */\n      revert\n        /* \"#utility.yul\":4119:4230   */\n    tag_369:\n        /* \"#utility.yul\":4198:4199   */\n      0x03\n        /* \"#utility.yul\":4191:4196   */\n      dup2\n        /* \"#utility.yul\":4188:4200   */\n      lt\n        /* \"#utility.yul\":4178:4224   */\n      tag_478\n      jumpi\n        /* \"#utility.yul\":4204:4222   */\n      tag_479\n      tag_115\n      jump\t// in\n    tag_479:\n        /* \"#utility.yul\":4178:4224   */\n    tag_478:\n        /* \"#utility.yul\":4119:4230   */\n      pop\n      jump\t// out\n        /* \"#utility.yul\":4236:4359   */\n    tag_370:\n        /* \"#utility.yul\":4279:4286   */\n      0x00\n        /* \"#utility.yul\":4308:4313   */\n      dup2\n        /* \"#utility.yul\":4297:4313   */\n      swap1\n      pop\n        /* \"#utility.yul\":4314:4353   */\n      tag_481\n        /* \"#utility.yul\":4347:4352   */\n      dup3\n        /* \"#utility.yul\":4314:4353   */\n      tag_369\n      jump\t// in\n    tag_481:\n        /* \"#utility.yul\":4236:4359   */\n      swap2\n      swap1\n      pop\n      jump\t// out\n        /* \"#utility.yul\":4365:4488   */\n    tag_371:\n        /* \"#utility.yul\":4419:4428   */\n      0x00\n        /* \"#utility.yul\":4452:4482   */\n      tag_483\n        /* \"#utility.yul\":4476:4481   */\n      dup3\n        /* \"#utility.yul\":4452:4482   */\n      tag_370\n      jump\t// in\n    tag_483:\n        /* \"#utility.yul\":4439:4482   */\n      swap1\n      pop\n        /* \"#utility.yul\":4365:4488   */\n      swap2\n      swap1\n      pop\n      jump\t// out\n        /* \"#utility.yul\":4494:4633   */\n    tag_372:\n        /* \"#utility.yul\":4585:4626   */\n      tag_485\n        /* \"#utility.yul\":4620:4625   */\n      dup2\n        /* \"#utility.yul\":4585:4626   */\n      tag_371\n      jump\t// in\n    tag_485:\n        /* \"#utility.yul\":4580:4583   */\n      dup3\n        /* \"#utility.yul\":4573:4627   */\n      mstore\n        /* \"#utility.yul\":4494:4633   */\n      pop\n      pop\n      jump\t// out\n        /* \"#utility.yul\":4639:4979   */\n    tag_42:\n        /* \"#utility.yul\":4764:4768   */\n      0x00\n        /* \"#utility.yul\":4802:4804   */\n      0x40\n        /* \"#utility.yul\":4791:4800   */\n      dup3\n        /* \"#utility.yul\":4787:4805   */\n      add\n        /* \"#utility.yul\":4779:4805   */\n      swap1\n      pop\n        /* \"#utility.yul\":4815:4886   */\n      tag_487\n        /* \"#utility.yul\":4883:4884   */\n      0x00\n        /* \"#utility.yul\":4872:4881   */\n      dup4\n        /* \"#utility.yul\":4868:4885   */\n      add\n        /* \"#utility.yul\":4859:4865   */\n      dup6\n        /* \"#utility.yul\":4815:4886   */\n      tag_368\n      jump\t// in\n    tag_487:\n        /* \"#utility.yul\":4896:4972   */\n      tag_488\n        /* \"#utility.yul\":4968:4970   */\n      0x20\n        /* \"#utility.yul\":4957:4966   */\n      dup4\n        /* \"#utility.yul\":4953:4971   */\n      add\n        /* \"#utility.yul\":4944:4950   */\n      dup5\n        /* \"#utility.yul\":4896:4972   */\n      tag_372\n      jump\t// in\n    tag_488:\n        /* \"#utility.yul\":4639:4979   */\n      swap4\n      swap3\n      pop\n      pop\n      pop\n      jump\t// out\n        /* \"#utility.yul\":4985:5090   */\n    tag_373:\n        /* \"#utility.yul\":5064:5065   */\n      0x03\n        /* \"#utility.yul\":5057:5062   */\n      dup2\n        /* \"#utility.yul\":5054:5066   */\n      lt\n        /* \"#utility.yul\":5044:5084   */\n      tag_490\n      jumpi\n        /* \"#utility.yul\":5080:5081   */\n      0x00\n        /* \"#utility.yul\":5077:5078   */\n      dup1\n        /* \"#utility.yul\":5070:5082   */\n      revert\n        /* \"#utility.yul\":5044:5084   */\n    tag_490:\n        /* \"#utility.yul\":4985:5090   */\n      pop\n      jump\t// out\n        /* \"#utility.yul\":5096:5247   */\n    tag_374:\n        /* \"#utility.yul\":5148:5153   */\n      0x00\n        /* \"#utility.yul\":5186:5192   */\n      dup2\n        /* \"#utility.yul\":5173:5193   */\n      calldataload\n        /* \"#utility.yul\":5164:5193   */\n      swap1\n      pop\n        /* \"#utility.yul\":5202:5241   */\n      tag_492\n        /* \"#utility.yul\":5235:5240   */\n      dup2\n        /* \"#utility.yul\":5202:5241   */\n      tag_373\n      jump\t// in\n    tag_492:\n        /* \"#utility.yul\":5096:5247   */\n      swap3\n      swap2\n      pop\n      pop\n      jump\t// out\n        /* \"#utility.yul\":5253:5594   */\n    tag_46:\n        /* \"#utility.yul\":5318:5324   */\n      0x00\n        /* \"#utility.yul\":5367:5369   */\n      0x20\n        /* \"#utility.yul\":5355:5364   */\n      dup3\n        /* \"#utility.yul\":5346:5353   */\n      dup5\n        /* \"#utility.yul\":5342:5365   */\n      sub\n        /* \"#utility.yul\":5338:5370   */\n      slt\n        /* \"#utility.yul\":5335:5454   */\n      iszero\n      tag_494\n      jumpi\n        /* \"#utility.yul\":5373:5452   */\n      tag_495\n      tag_353\n      jump\t// in\n    tag_495:\n        /* \"#utility.yul\":5335:5454   */\n    tag_494:\n        /* \"#utility.yul\":5493:5494   */\n      0x00\n        /* \"#utility.yul\":5518:5577   */\n      tag_496\n        /* \"#utility.yul\":5569:5576   */\n      dup5\n        /* \"#utility.yul\":5560:5566   */\n      dup3\n        /* \"#utility.yul\":5549:5558   */\n      dup6\n        /* \"#utility.yul\":5545:5567   */\n      add\n        /* \"#utility.yul\":5518:5577   */\n      tag_374\n      jump\t// in\n    tag_496:\n        /* \"#utility.yul\":5508:5577   */\n      swap2\n      pop\n        /* \"#utility.yul\":5464:5587   */\n      pop\n        /* \"#utility.yul\":5253:5594   */\n      swap3\n      swap2\n      pop\n      pop\n      jump\t// out\n        /* \"#utility.yul\":5600:5822   */\n    tag_60:\n        /* \"#utility.yul\":5693:5697   */\n      0x00\n        /* \"#utility.yul\":5731:5733   */\n      0x20\n        /* \"#utility.yul\":5720:5729   */\n      dup3\n        /* \"#utility.yul\":5716:5734   */\n      add\n        /* \"#utility.yul\":5708:5734   */\n      swap1\n      pop\n        /* \"#utility.yul\":5744:5815   */\n      tag_498\n        /* \"#utility.yul\":5812:5813   */\n      0x00\n        /* \"#utility.yul\":5801:5810   */\n      dup4\n        /* \"#utility.yul\":5797:5814   */\n      add\n        /* \"#utility.yul\":5788:5794   */\n      dup5\n        /* \"#utility.yul\":5744:5815   */\n      tag_362\n      jump\t// in\n    tag_498:\n        /* \"#utility.yul\":5600:5822   */\n      swap3\n      swap2\n      pop\n      pop\n      jump\t// out\n        /* \"#utility.yul\":5828:5945   */\n    tag_375:\n        /* \"#utility.yul\":5937:5938   */\n      0x00\n        /* \"#utility.yul\":5934:5935   */\n      dup1\n        /* \"#utility.yul\":5927:5939   */\n      revert\n        /* \"#utility.yul\":5951:6068   */\n    tag_376:\n        /* \"#utility.yul\":6060:6061   */\n      0x00\n        /* \"#utility.yul\":6057:6058   */\n      dup1\n        /* \"#utility.yul\":6050:6062   */\n      revert\n        /* \"#utility.yul\":6074:6191   */\n    tag_377:\n        /* \"#utility.yul\":6183:6184   */\n      0x00\n        /* \"#utility.yul\":6180:6181   */\n      dup1\n        /* \"#utility.yul\":6173:6185   */\n      revert\n        /* \"#utility.yul\":6211:6764   */\n    tag_378:\n        /* \"#utility.yul\":6269:6277   */\n      0x00\n        /* \"#utility.yul\":6279:6285   */\n      dup1\n        /* \"#utility.yul\":6329:6332   */\n      dup4\n        /* \"#utility.yul\":6322:6326   */\n      0x1f\n        /* \"#utility.yul\":6314:6320   */\n      dup5\n        /* \"#utility.yul\":6310:6327   */\n      add\n        /* \"#utility.yul\":6306:6333   */\n      slt\n        /* \"#utility.yul\":6296:6418   */\n      tag_503\n      jumpi\n        /* \"#utility.yul\":6337:6416   */\n      tag_504\n      tag_375\n      jump\t// in\n    tag_504:\n        /* \"#utility.yul\":6296:6418   */\n    tag_503:\n        /* \"#utility.yul\":6450:6456   */\n      dup3\n        /* \"#utility.yul\":6437:6457   */\n      calldataload\n        /* \"#utility.yul\":6427:6457   */\n      swap1\n      pop\n        /* \"#utility.yul\":6480:6498   */\n      0xffffffffffffffff\n        /* \"#utility.yul\":6472:6478   */\n      dup2\n        /* \"#utility.yul\":6469:6499   */\n      gt\n        /* \"#utility.yul\":6466:6583   */\n      iszero\n      tag_505\n      jumpi\n        /* \"#utility.yul\":6502:6581   */\n      tag_506\n      tag_376\n      jump\t// in\n    tag_506:\n        /* \"#utility.yul\":6466:6583   */\n    tag_505:\n        /* \"#utility.yul\":6616:6620   */\n      0x20\n        /* \"#utility.yul\":6608:6614   */\n      dup4\n        /* \"#utility.yul\":6604:6621   */\n      add\n        /* \"#utility.yul\":6592:6621   */\n      swap2\n      pop\n        /* \"#utility.yul\":6670:6673   */\n      dup4\n        /* \"#utility.yul\":6662:6666   */\n      0x01\n        /* \"#utility.yul\":6654:6660   */\n      dup3\n        /* \"#utility.yul\":6650:6667   */\n      mul\n        /* \"#utility.yul\":6640:6648   */\n      dup4\n        /* \"#utility.yul\":6636:6668   */\n      add\n        /* \"#utility.yul\":6633:6674   */\n      gt\n        /* \"#utility.yul\":6630:6758   */\n      iszero\n      tag_507\n      jumpi\n        /* \"#utility.yul\":6677:6756   */\n      tag_508\n      tag_377\n      jump\t// in\n    tag_508:\n        /* \"#utility.yul\":6630:6758   */\n    tag_507:\n        /* \"#utility.yul\":6211:6764   */\n      swap3\n      pop\n      swap3\n      swap1\n      pop\n      jump\t// out\n        /* \"#utility.yul\":6770:7881   */\n    tag_64:\n        /* \"#utility.yul\":6877:6883   */\n      0x00\n        /* \"#utility.yul\":6885:6891   */\n      dup1\n        /* \"#utility.yul\":6893:6899   */\n      0x00\n        /* \"#utility.yul\":6901:6907   */\n      dup1\n        /* \"#utility.yul\":6909:6915   */\n      0x00\n        /* \"#utility.yul\":6917:6923   */\n      dup1\n        /* \"#utility.yul\":6966:6969   */\n      0xa0\n        /* \"#utility.yul\":6954:6963   */\n      dup8\n        /* \"#utility.yul\":6945:6952   */\n      dup10\n        /* \"#utility.yul\":6941:6964   */\n      sub\n        /* \"#utility.yul\":6937:6970   */\n      slt\n        /* \"#utility.yul\":6934:7054   */\n      iszero\n      tag_510\n      jumpi\n        /* \"#utility.yul\":6973:7052   */\n      tag_511\n      tag_353\n      jump\t// in\n    tag_511:\n        /* \"#utility.yul\":6934:7054   */\n    tag_510:\n        /* \"#utility.yul\":7093:7094   */\n      0x00\n        /* \"#utility.yul\":7118:7171   */\n      tag_512\n        /* \"#utility.yul\":7163:7170   */\n      dup10\n        /* \"#utility.yul\":7154:7160   */\n      dup3\n        /* \"#utility.yul\":7143:7152   */\n      dup11\n        /* \"#utility.yul\":7139:7161   */\n      add\n        /* \"#utility.yul\":7118:7171   */\n      tag_361\n      jump\t// in\n    tag_512:\n        /* \"#utility.yul\":7108:7171   */\n      swap7\n      pop\n        /* \"#utility.yul\":7064:7181   */\n      pop\n        /* \"#utility.yul\":7220:7222   */\n      0x20\n        /* \"#utility.yul\":7246:7299   */\n      tag_513\n        /* \"#utility.yul\":7291:7298   */\n      dup10\n        /* \"#utility.yul\":7282:7288   */\n      dup3\n        /* \"#utility.yul\":7271:7280   */\n      dup11\n        /* \"#utility.yul\":7267:7289   */\n      add\n        /* \"#utility.yul\":7246:7299   */\n      tag_361\n      jump\t// in\n    tag_513:\n        /* \"#utility.yul\":7236:7299   */\n      swap6\n      pop\n        /* \"#utility.yul\":7191:7309   */\n      pop\n        /* \"#utility.yul\":7376:7378   */\n      0x40\n        /* \"#utility.yul\":7365:7374   */\n      dup8\n        /* \"#utility.yul\":7361:7379   */\n      add\n        /* \"#utility.yul\":7348:7380   */\n      calldataload\n        /* \"#utility.yul\":7407:7425   */\n      0xffffffffffffffff\n        /* \"#utility.yul\":7399:7405   */\n      dup2\n        /* \"#utility.yul\":7396:7426   */\n      gt\n        /* \"#utility.yul\":7393:7510   */\n      iszero\n      tag_514\n      jumpi\n        /* \"#utility.yul\":7429:7508   */\n      tag_515\n      tag_354\n      jump\t// in\n    tag_515:\n        /* \"#utility.yul\":7393:7510   */\n    tag_514:\n        /* \"#utility.yul\":7542:7607   */\n      tag_516\n        /* \"#utility.yul\":7599:7606   */\n      dup10\n        /* \"#utility.yul\":7590:7596   */\n      dup3\n        /* \"#utility.yul\":7579:7588   */\n      dup11\n        /* \"#utility.yul\":7575:7597   */\n      add\n        /* \"#utility.yul\":7542:7607   */\n      tag_378\n      jump\t// in\n    tag_516:\n        /* \"#utility.yul\":7524:7607   */\n      swap5\n      pop\n      swap5\n      pop\n        /* \"#utility.yul\":7319:7617   */\n      pop\n        /* \"#utility.yul\":7656:7658   */\n      0x60\n        /* \"#utility.yul\":7682:7735   */\n      tag_517\n        /* \"#utility.yul\":7727:7734   */\n      dup10\n        /* \"#utility.yul\":7718:7724   */\n      dup3\n        /* \"#utility.yul\":7707:7716   */\n      dup11\n        /* \"#utility.yul\":7703:7725   */\n      add\n        /* \"#utility.yul\":7682:7735   */\n      tag_361\n      jump\t// in\n    tag_517:\n        /* \"#utility.yul\":7672:7735   */\n      swap3\n      pop\n        /* \"#utility.yul\":7627:7745   */\n      pop\n        /* \"#utility.yul\":7784:7787   */\n      0x80\n        /* \"#utility.yul\":7811:7864   */\n      tag_518\n        /* \"#utility.yul\":7856:7863   */\n      dup10\n        /* \"#utility.yul\":7847:7853   */\n      dup3\n        /* \"#utility.yul\":7836:7845   */\n      dup11\n        /* \"#utility.yul\":7832:7854   */\n      add\n        /* \"#utility.yul\":7811:7864   */\n      tag_358\n      jump\t// in\n    tag_518:\n        /* \"#utility.yul\":7801:7864   */\n      swap2\n      pop\n        /* \"#utility.yul\":7755:7874   */\n      pop\n        /* \"#utility.yul\":6770:7881   */\n      swap3\n      swap6\n      pop\n      swap3\n      swap6\n      pop\n      swap3\n      swap6\n      jump\t// out\n        /* \"#utility.yul\":7887:8109   */\n    tag_70:\n        /* \"#utility.yul\":7980:7984   */\n      0x00\n        /* \"#utility.yul\":8018:8020   */\n      0x20\n        /* \"#utility.yul\":8007:8016   */\n      dup3\n        /* \"#utility.yul\":8003:8021   */\n      add\n        /* \"#utility.yul\":7995:8021   */\n      swap1\n      pop\n        /* \"#utility.yul\":8031:8102   */\n      tag_520\n        /* \"#utility.yul\":8099:8100   */\n      0x00\n        /* \"#utility.yul\":8088:8097   */\n      dup4\n        /* \"#utility.yul\":8084:8101   */\n      add\n        /* \"#utility.yul\":8075:8081   */\n      dup5\n        /* \"#utility.yul\":8031:8102   */\n      tag_368\n      jump\t// in\n    tag_520:\n        /* \"#utility.yul\":7887:8109   */\n      swap3\n      swap2\n      pop\n      pop\n      jump\t// out\n        /* \"#utility.yul\":8115:8232   */\n    tag_379:\n        /* \"#utility.yul\":8224:8225   */\n      0x00\n        /* \"#utility.yul\":8221:8222   */\n      dup1\n        /* \"#utility.yul\":8214:8226   */\n      revert\n        /* \"#utility.yul\":8238:8418   */\n    tag_380:\n        /* \"#utility.yul\":8286:8363   */\n      0x4e487b7100000000000000000000000000000000000000000000000000000000\n        /* \"#utility.yul\":8283:8284   */\n      0x00\n        /* \"#utility.yul\":8276:8364   */\n      mstore\n        /* \"#utility.yul\":8383:8387   */\n      0x41\n        /* \"#utility.yul\":8380:8381   */\n      0x04\n        /* \"#utility.yul\":8373:8388   */\n      mstore\n        /* \"#utility.yul\":8407:8411   */\n      0x24\n        /* \"#utility.yul\":8404:8405   */\n      0x00\n        /* \"#utility.yul\":8397:8412   */\n      revert\n        /* \"#utility.yul\":8424:8705   */\n    tag_381:\n        /* \"#utility.yul\":8507:8534   */\n      tag_524\n        /* \"#utility.yul\":8529:8533   */\n      dup3\n        /* \"#utility.yul\":8507:8534   */\n      tag_366\n      jump\t// in\n    tag_524:\n        /* \"#utility.yul\":8499:8505   */\n      dup2\n        /* \"#utility.yul\":8495:8535   */\n      add\n        /* \"#utility.yul\":8637:8643   */\n      dup2\n        /* \"#utility.yul\":8625:8635   */\n      dup2\n        /* \"#utility.yul\":8622:8644   */\n      lt\n        /* \"#utility.yul\":8601:8619   */\n      0xffffffffffffffff\n        /* \"#utility.yul\":8589:8599   */\n      dup3\n        /* \"#utility.yul\":8586:8620   */\n      gt\n        /* \"#utility.yul\":8583:8645   */\n      or\n        /* \"#utility.yul\":8580:8668   */\n      iszero\n      tag_525\n      jumpi\n        /* \"#utility.yul\":8648:8666   */\n      tag_526\n      tag_380\n      jump\t// in\n    tag_526:\n        /* \"#utility.yul\":8580:8668   */\n    tag_525:\n        /* \"#utility.yul\":8688:8698   */\n      dup1\n        /* \"#utility.yul\":8684:8686   */\n      0x40\n        /* \"#utility.yul\":8677:8699   */\n      mstore\n        /* \"#utility.yul\":8467:8705   */\n      pop\n        /* \"#utility.yul\":8424:8705   */\n      pop\n      pop\n      jump\t// out\n        /* \"#utility.yul\":8711:8840   */\n    tag_382:\n        /* \"#utility.yul\":8745:8751   */\n      0x00\n        /* \"#utility.yul\":8772:8792   */\n      tag_528\n      tag_352\n      jump\t// in\n    tag_528:\n        /* \"#utility.yul\":8762:8792   */\n      swap1\n      pop\n        /* \"#utility.yul\":8801:8834   */\n      tag_529\n        /* \"#utility.yul\":8829:8833   */\n      dup3\n        /* \"#utility.yul\":8821:8827   */\n      dup3\n        /* \"#utility.yul\":8801:8834   */\n      tag_381\n      jump\t// in\n    tag_529:\n        /* \"#utility.yul\":8711:8840   */\n      swap2\n      swap1\n      pop\n      jump\t// out\n        /* \"#utility.yul\":8846:9154   */\n    tag_383:\n        /* \"#utility.yul\":8908:8912   */\n      0x00\n        /* \"#utility.yul\":8998:9016   */\n      0xffffffffffffffff\n        /* \"#utility.yul\":8990:8996   */\n      dup3\n        /* \"#utility.yul\":8987:9017   */\n      gt\n        /* \"#utility.yul\":8984:9040   */\n      iszero\n      tag_531\n      jumpi\n        /* \"#utility.yul\":9020:9038   */\n      tag_532\n      tag_380\n      jump\t// in\n    tag_532:\n        /* \"#utility.yul\":8984:9040   */\n    tag_531:\n        /* \"#utility.yul\":9058:9087   */\n      tag_533\n        /* \"#utility.yul\":9080:9086   */\n      dup3\n        /* \"#utility.yul\":9058:9087   */\n      tag_366\n      jump\t// in\n    tag_533:\n        /* \"#utility.yul\":9050:9087   */\n      swap1\n      pop\n        /* \"#utility.yul\":9142:9146   */\n      0x20\n        /* \"#utility.yul\":9136:9140   */\n      dup2\n        /* \"#utility.yul\":9132:9147   */\n      add\n        /* \"#utility.yul\":9124:9147   */\n      swap1\n      pop\n        /* \"#utility.yul\":8846:9154   */\n      swap2\n      swap1\n      pop\n      jump\t// out\n        /* \"#utility.yul\":9160:9306   */\n    tag_384:\n        /* \"#utility.yul\":9257:9263   */\n      dup3\n        /* \"#utility.yul\":9252:9255   */\n      dup2\n        /* \"#utility.yul\":9247:9250   */\n      dup4\n        /* \"#utility.yul\":9234:9264   */\n      calldatacopy\n        /* \"#utility.yul\":9298:9299   */\n      0x00\n        /* \"#utility.yul\":9289:9295   */\n      dup4\n        /* \"#utility.yul\":9284:9287   */\n      dup4\n        /* \"#utility.yul\":9280:9296   */\n      add\n        /* \"#utility.yul\":9273:9300   */\n      mstore\n        /* \"#utility.yul\":9160:9306   */\n      pop\n      pop\n      pop\n      jump\t// out\n        /* \"#utility.yul\":9312:9737   */\n    tag_385:\n        /* \"#utility.yul\":9390:9395   */\n      0x00\n        /* \"#utility.yul\":9415:9481   */\n      tag_536\n        /* \"#utility.yul\":9431:9480   */\n      tag_537\n        /* \"#utility.yul\":9473:9479   */\n      dup5\n        /* \"#utility.yul\":9431:9480   */\n      tag_383\n      jump\t// in\n    tag_537:\n        /* \"#utility.yul\":9415:9481   */\n      tag_382\n      jump\t// in\n    tag_536:\n        /* \"#utility.yul\":9406:9481   */\n      swap1\n      pop\n        /* \"#utility.yul\":9504:9510   */\n      dup3\n        /* \"#utility.yul\":9497:9502   */\n      dup2\n        /* \"#utility.yul\":9490:9511   */\n      mstore\n        /* \"#utility.yul\":9542:9546   */\n      0x20\n        /* \"#utility.yul\":9535:9540   */\n      dup2\n        /* \"#utility.yul\":9531:9547   */\n      add\n        /* \"#utility.yul\":9580:9583   */\n      dup5\n        /* \"#utility.yul\":9571:9577   */\n      dup5\n        /* \"#utility.yul\":9566:9569   */\n      dup5\n        /* \"#utility.yul\":9562:9578   */\n      add\n        /* \"#utility.yul\":9559:9584   */\n      gt\n        /* \"#utility.yul\":9556:9668   */\n      iszero\n      tag_538\n      jumpi\n        /* \"#utility.yul\":9587:9666   */\n      tag_539\n      tag_379\n      jump\t// in\n    tag_539:\n        /* \"#utility.yul\":9556:9668   */\n    tag_538:\n        /* \"#utility.yul\":9677:9731   */\n      tag_540\n        /* \"#utility.yul\":9724:9730   */\n      dup5\n        /* \"#utility.yul\":9719:9722   */\n      dup3\n        /* \"#utility.yul\":9714:9717   */\n      dup6\n        /* \"#utility.yul\":9677:9731   */\n      tag_384\n      jump\t// in\n    tag_540:\n        /* \"#utility.yul\":9396:9737   */\n      pop\n        /* \"#utility.yul\":9312:9737   */\n      swap4\n      swap3\n      pop\n      pop\n      pop\n      jump\t// out\n        /* \"#utility.yul\":9757:10097   */\n    tag_386:\n        /* \"#utility.yul\":9813:9818   */\n      0x00\n        /* \"#utility.yul\":9862:9865   */\n      dup3\n        /* \"#utility.yul\":9855:9859   */\n      0x1f\n        /* \"#utility.yul\":9847:9853   */\n      dup4\n        /* \"#utility.yul\":9843:9860   */\n      add\n        /* \"#utility.yul\":9839:9866   */\n      slt\n        /* \"#utility.yul\":9829:9951   */\n      tag_542\n      jumpi\n        /* \"#utility.yul\":9870:9949   */\n      tag_543\n      tag_375\n      jump\t// in\n    tag_543:\n        /* \"#utility.yul\":9829:9951   */\n    tag_542:\n        /* \"#utility.yul\":9987:9993   */\n      dup2\n        /* \"#utility.yul\":9974:9994   */\n      calldataload\n        /* \"#utility.yul\":10012:10091   */\n      tag_544\n        /* \"#utility.yul\":10087:10090   */\n      dup5\n        /* \"#utility.yul\":10079:10085   */\n      dup3\n        /* \"#utility.yul\":10072:10076   */\n      0x20\n        /* \"#utility.yul\":10064:10070   */\n      dup7\n        /* \"#utility.yul\":10060:10077   */\n      add\n        /* \"#utility.yul\":10012:10091   */\n      tag_385\n      jump\t// in\n    tag_544:\n        /* \"#utility.yul\":10003:10091   */\n      swap2\n      pop\n        /* \"#utility.yul\":9819:10097   */\n      pop\n        /* \"#utility.yul\":9757:10097   */\n      swap3\n      swap2\n      pop\n      pop\n      jump\t// out\n        /* \"#utility.yul\":10103:11048   */\n    tag_73:\n        /* \"#utility.yul\":10199:10205   */\n      0x00\n        /* \"#utility.yul\":10207:10213   */\n      dup1\n        /* \"#utility.yul\":10215:10221   */\n      0x00\n        /* \"#utility.yul\":10223:10229   */\n      dup1\n        /* \"#utility.yul\":10272:10275   */\n      0x80\n        /* \"#utility.yul\":10260:10269   */\n      dup6\n        /* \"#utility.yul\":10251:10258   */\n      dup8\n        /* \"#utility.yul\":10247:10270   */\n      sub\n        /* \"#utility.yul\":10243:10276   */\n      slt\n        /* \"#utility.yul\":10240:10360   */\n      iszero\n      tag_546\n      jumpi\n        /* \"#utility.yul\":10279:10358   */\n      tag_547\n      tag_353\n      jump\t// in\n    tag_547:\n        /* \"#utility.yul\":10240:10360   */\n    tag_546:\n        /* \"#utility.yul\":10399:10400   */\n      0x00\n        /* \"#utility.yul\":10424:10477   */\n      tag_548\n        /* \"#utility.yul\":10469:10476   */\n      dup8\n        /* \"#utility.yul\":10460:10466   */\n      dup3\n        /* \"#utility.yul\":10449:10458   */\n      dup9\n        /* \"#utility.yul\":10445:10467   */\n      add\n        /* \"#utility.yul\":10424:10477   */\n      tag_358\n      jump\t// in\n    tag_548:\n        /* \"#utility.yul\":10414:10477   */\n      swap5\n      pop\n        /* \"#utility.yul\":10370:10487   */\n      pop\n        /* \"#utility.yul\":10526:10528   */\n      0x20\n        /* \"#utility.yul\":10552:10605   */\n      tag_549\n        /* \"#utility.yul\":10597:10604   */\n      dup8\n        /* \"#utility.yul\":10588:10594   */\n      dup3\n        /* \"#utility.yul\":10577:10586   */\n      dup9\n        /* \"#utility.yul\":10573:10595   */\n      add\n        /* \"#utility.yul\":10552:10605   */\n      tag_361\n      jump\t// in\n    tag_549:\n        /* \"#utility.yul\":10542:10605   */\n      swap4\n      pop\n        /* \"#utility.yul\":10497:10615   */\n      pop\n        /* \"#utility.yul\":10654:10656   */\n      0x40\n        /* \"#utility.yul\":10680:10733   */\n      tag_550\n        /* \"#utility.yul\":10725:10732   */\n      dup8\n        /* \"#utility.yul\":10716:10722   */\n      dup3\n        /* \"#utility.yul\":10705:10714   */\n      dup9\n        /* \"#utility.yul\":10701:10723   */\n      add\n        /* \"#utility.yul\":10680:10733   */\n      tag_361\n      jump\t// in\n    tag_550:\n        /* \"#utility.yul\":10670:10733   */\n      swap3\n      pop\n        /* \"#utility.yul\":10625:10743   */\n      pop\n        /* \"#utility.yul\":10810:10812   */\n      0x60\n        /* \"#utility.yul\":10799:10808   */\n      dup6\n        /* \"#utility.yul\":10795:10813   */\n      add\n        /* \"#utility.yul\":10782:10814   */\n      calldataload\n        /* \"#utility.yul\":10841:10859   */\n      0xffffffffffffffff\n        /* \"#utility.yul\":10833:10839   */\n      dup2\n        /* \"#utility.yul\":10830:10860   */\n      gt\n        /* \"#utility.yul\":10827:10944   */\n      iszero\n      tag_551\n      jumpi\n        /* \"#utility.yul\":10863:10942   */\n      tag_552\n      tag_354\n      jump\t// in\n    tag_552:\n        /* \"#utility.yul\":10827:10944   */\n    tag_551:\n        /* \"#utility.yul\":10968:11031   */\n      tag_553\n        /* \"#utility.yul\":11023:11030   */\n      dup8\n        /* \"#utility.yul\":11014:11020   */\n      dup3\n        /* \"#utility.yul\":11003:11012   */\n      dup9\n        /* \"#utility.yul\":10999:11021   */\n      add\n        /* \"#utility.yul\":10968:11031   */\n      tag_386\n      jump\t// in\n    tag_553:\n        /* \"#utility.yul\":10958:11031   */\n      swap2\n      pop\n        /* \"#utility.yul\":10753:11041   */\n      pop\n        /* \"#utility.yul\":10103:11048   */\n      swap3\n      swap6\n      swap2\n      swap5\n      pop\n      swap3\n      pop\n      jump\t// out\n        /* \"#utility.yul\":11054:11708   */\n    tag_78:\n        /* \"#utility.yul\":11132:11138   */\n      0x00\n        /* \"#utility.yul\":11140:11146   */\n      dup1\n        /* \"#utility.yul\":11189:11191   */\n      0x40\n        /* \"#utility.yul\":11177:11186   */\n      dup4\n        /* \"#utility.yul\":11168:11175   */\n      dup6\n        /* \"#utility.yul\":11164:11187   */\n      sub\n        /* \"#utility.yul\":11160:11192   */\n      slt\n        /* \"#utility.yul\":11157:11276   */\n      iszero\n      tag_555\n      jumpi\n        /* \"#utility.yul\":11195:11274   */\n      tag_556\n      tag_353\n      jump\t// in\n    tag_556:\n        /* \"#utility.yul\":11157:11276   */\n    tag_555:\n        /* \"#utility.yul\":11343:11344   */\n      0x00\n        /* \"#utility.yul\":11332:11341   */\n      dup4\n        /* \"#utility.yul\":11328:11345   */\n      add\n        /* \"#utility.yul\":11315:11346   */\n      calldataload\n        /* \"#utility.yul\":11373:11391   */\n      0xffffffffffffffff\n        /* \"#utility.yul\":11365:11371   */\n      dup2\n        /* \"#utility.yul\":11362:11392   */\n      gt\n        /* \"#utility.yul\":11359:11476   */\n      iszero\n      tag_557\n      jumpi\n        /* \"#utility.yul\":11395:11474   */\n      tag_558\n      tag_354\n      jump\t// in\n    tag_558:\n        /* \"#utility.yul\":11359:11476   */\n    tag_557:\n        /* \"#utility.yul\":11500:11563   */\n      tag_559\n        /* \"#utility.yul\":11555:11562   */\n      dup6\n        /* \"#utility.yul\":11546:11552   */\n      dup3\n        /* \"#utility.yul\":11535:11544   */\n      dup7\n        /* \"#utility.yul\":11531:11553   */\n      add\n        /* \"#utility.yul\":11500:11563   */\n      tag_386\n      jump\t// in\n    tag_559:\n        /* \"#utility.yul\":11490:11563   */\n      swap3\n      pop\n        /* \"#utility.yul\":11286:11573   */\n      pop\n        /* \"#utility.yul\":11612:11614   */\n      0x20\n        /* \"#utility.yul\":11638:11691   */\n      tag_560\n        /* \"#utility.yul\":11683:11690   */\n      dup6\n        /* \"#utility.yul\":11674:11680   */\n      dup3\n        /* \"#utility.yul\":11663:11672   */\n      dup7\n        /* \"#utility.yul\":11659:11681   */\n      add\n        /* \"#utility.yul\":11638:11691   */\n      tag_358\n      jump\t// in\n    tag_560:\n        /* \"#utility.yul\":11628:11691   */\n      swap2\n      pop\n        /* \"#utility.yul\":11583:11701   */\n      pop\n        /* \"#utility.yul\":11054:11708   */\n      swap3\n      pop\n      swap3\n      swap1\n      pop\n      jump\t// out\n        /* \"#utility.yul\":11714:12043   */\n    tag_83:\n        /* \"#utility.yul\":11773:11779   */\n      0x00\n        /* \"#utility.yul\":11822:11824   */\n      0x20\n        /* \"#utility.yul\":11810:11819   */\n      dup3\n        /* \"#utility.yul\":11801:11808   */\n      dup5\n        /* \"#utility.yul\":11797:11820   */\n      sub\n        /* \"#utility.yul\":11793:11825   */\n      slt\n        /* \"#utility.yul\":11790:11909   */\n      iszero\n      tag_562\n      jumpi\n        /* \"#utility.yul\":11828:11907   */\n      tag_563\n      tag_353\n      jump\t// in\n    tag_563:\n        /* \"#utility.yul\":11790:11909   */\n    tag_562:\n        /* \"#utility.yul\":11948:11949   */\n      0x00\n        /* \"#utility.yul\":11973:12026   */\n      tag_564\n        /* \"#utility.yul\":12018:12025   */\n      dup5\n        /* \"#utility.yul\":12009:12015   */\n      dup3\n        /* \"#utility.yul\":11998:12007   */\n      dup6\n        /* \"#utility.yul\":11994:12016   */\n      add\n        /* \"#utility.yul\":11973:12026   */\n      tag_358\n      jump\t// in\n    tag_564:\n        /* \"#utility.yul\":11963:12026   */\n      swap2\n      pop\n        /* \"#utility.yul\":11919:12036   */\n      pop\n        /* \"#utility.yul\":11714:12043   */\n      swap3\n      swap2\n      pop\n      pop\n      jump\t// out\n        /* \"#utility.yul\":12049:12389   */\n    tag_86:\n        /* \"#utility.yul\":12174:12178   */\n      0x00\n        /* \"#utility.yul\":12212:12214   */\n      0x40\n        /* \"#utility.yul\":12201:12210   */\n      dup3\n        /* \"#utility.yul\":12197:12215   */\n      add\n        /* \"#utility.yul\":12189:12215   */\n      swap1\n      pop\n        /* \"#utility.yul\":12225:12300   */\n      tag_566\n        /* \"#utility.yul\":12297:12298   */\n      0x00\n        /* \"#utility.yul\":12286:12295   */\n      dup4\n        /* \"#utility.yul\":12282:12299   */\n      add\n        /* \"#utility.yul\":12273:12279   */\n      dup6\n        /* \"#utility.yul\":12225:12300   */\n      tag_372\n      jump\t// in\n    tag_566:\n        /* \"#utility.yul\":12310:12382   */\n      tag_567\n        /* \"#utility.yul\":12378:12380   */\n      0x20\n        /* \"#utility.yul\":12367:12376   */\n      dup4\n        /* \"#utility.yul\":12363:12381   */\n      add\n        /* \"#utility.yul\":12354:12360   */\n      dup5\n        /* \"#utility.yul\":12310:12382   */\n      tag_362\n      jump\t// in\n    tag_567:\n        /* \"#utility.yul\":12049:12389   */\n      swap4\n      swap3\n      pop\n      pop\n      pop\n      jump\t// out\n        /* \"#utility.yul\":12395:12904   */\n    tag_93:\n        /* \"#utility.yul\":12464:12470   */\n      0x00\n        /* \"#utility.yul\":12513:12515   */\n      0x20\n        /* \"#utility.yul\":12501:12510   */\n      dup3\n        /* \"#utility.yul\":12492:12499   */\n      dup5\n        /* \"#utility.yul\":12488:12511   */\n      sub\n        /* \"#utility.yul\":12484:12516   */\n      slt\n        /* \"#utility.yul\":12481:12600   */\n      iszero\n      tag_569\n      jumpi\n        /* \"#utility.yul\":12519:12598   */\n      tag_570\n      tag_353\n      jump\t// in\n    tag_570:\n        /* \"#utility.yul\":12481:12600   */\n    tag_569:\n        /* \"#utility.yul\":12667:12668   */\n      0x00\n        /* \"#utility.yul\":12656:12665   */\n      dup3\n        /* \"#utility.yul\":12652:12669   */\n      add\n        /* \"#utility.yul\":12639:12670   */\n      calldataload\n        /* \"#utility.yul\":12697:12715   */\n      0xffffffffffffffff\n        /* \"#utility.yul\":12689:12695   */\n      dup2\n        /* \"#utility.yul\":12686:12716   */\n      gt\n        /* \"#utility.yul\":12683:12800   */\n      iszero\n      tag_571\n      jumpi\n        /* \"#utility.yul\":12719:12798   */\n      tag_572\n      tag_354\n      jump\t// in\n    tag_572:\n        /* \"#utility.yul\":12683:12800   */\n    tag_571:\n        /* \"#utility.yul\":12824:12887   */\n      tag_573\n        /* \"#utility.yul\":12879:12886   */\n      dup5\n        /* \"#utility.yul\":12870:12876   */\n      dup3\n        /* \"#utility.yul\":12859:12868   */\n      dup6\n        /* \"#utility.yul\":12855:12877   */\n      add\n        /* \"#utility.yul\":12824:12887   */\n      tag_386\n      jump\t// in\n    tag_573:\n        /* \"#utility.yul\":12814:12887   */\n      swap2\n      pop\n        /* \"#utility.yul\":12610:12897   */\n      pop\n        /* \"#utility.yul\":12395:12904   */\n      swap3\n      swap2\n      pop\n      pop\n      jump\t// out\n        /* \"#utility.yul\":12910:13675   */\n    tag_102:\n        /* \"#utility.yul\":12996:13002   */\n      0x00\n        /* \"#utility.yul\":13004:13010   */\n      dup1\n        /* \"#utility.yul\":13012:13018   */\n      0x00\n        /* \"#utility.yul\":13020:13026   */\n      dup1\n        /* \"#utility.yul\":13069:13072   */\n      0x80\n        /* \"#utility.yul\":13057:13066   */\n      dup6\n        /* \"#utility.yul\":13048:13055   */\n      dup8\n        /* \"#utility.yul\":13044:13067   */\n      sub\n        /* \"#utility.yul\":13040:13073   */\n      slt\n        /* \"#utility.yul\":13037:13157   */\n      iszero\n      tag_575\n      jumpi\n        /* \"#utility.yul\":13076:13155   */\n      tag_576\n      tag_353\n      jump\t// in\n    tag_576:\n        /* \"#utility.yul\":13037:13157   */\n    tag_575:\n        /* \"#utility.yul\":13196:13197   */\n      0x00\n        /* \"#utility.yul\":13221:13274   */\n      tag_577\n        /* \"#utility.yul\":13266:13273   */\n      dup8\n        /* \"#utility.yul\":13257:13263   */\n      dup3\n        /* \"#utility.yul\":13246:13255   */\n      dup9\n        /* \"#utility.yul\":13242:13264   */\n      add\n        /* \"#utility.yul\":13221:13274   */\n      tag_358\n      jump\t// in\n    tag_577:\n        /* \"#utility.yul\":13211:13274   */\n      swap5\n      pop\n        /* \"#utility.yul\":13167:13284   */\n      pop\n        /* \"#utility.yul\":13323:13325   */\n      0x20\n        /* \"#utility.yul\":13349:13402   */\n      tag_578\n        /* \"#utility.yul\":13394:13401   */\n      dup8\n        /* \"#utility.yul\":13385:13391   */\n      dup3\n        /* \"#utility.yul\":13374:13383   */\n      dup9\n        /* \"#utility.yul\":13370:13392   */\n      add\n        /* \"#utility.yul\":13349:13402   */\n      tag_361\n      jump\t// in\n    tag_578:\n        /* \"#utility.yul\":13339:13402   */\n      swap4\n      pop\n        /* \"#utility.yul\":13294:13412   */\n      pop\n        /* \"#utility.yul\":13451:13453   */\n      0x40\n        /* \"#utility.yul\":13477:13530   */\n      tag_579\n        /* \"#utility.yul\":13522:13529   */\n      dup8\n        /* \"#utility.yul\":13513:13519   */\n      dup3\n        /* \"#utility.yul\":13502:13511   */\n      dup9\n        /* \"#utility.yul\":13498:13520   */\n      add\n        /* \"#utility.yul\":13477:13530   */\n      tag_361\n      jump\t// in\n    tag_579:\n        /* \"#utility.yul\":13467:13530   */\n      swap3\n      pop\n        /* \"#utility.yul\":13422:13540   */\n      pop\n        /* \"#utility.yul\":13579:13581   */\n      0x60\n        /* \"#utility.yul\":13605:13658   */\n      tag_580\n        /* \"#utility.yul\":13650:13657   */\n      dup8\n        /* \"#utility.yul\":13641:13647   */\n      dup3\n        /* \"#utility.yul\":13630:13639   */\n      dup9\n        /* \"#utility.yul\":13626:13648   */\n      add\n        /* \"#utility.yul\":13605:13658   */\n      tag_358\n      jump\t// in\n    tag_580:\n        /* \"#utility.yul\":13595:13658   */\n      swap2\n      pop\n        /* \"#utility.yul\":13550:13668   */\n      pop\n        /* \"#utility.yul\":12910:13675   */\n      swap3\n      swap6\n      swap2\n      swap5\n      pop\n      swap3\n      pop\n      jump\t// out\n        /* \"#utility.yul\":13681:13861   */\n    tag_387:\n        /* \"#utility.yul\":13729:13806   */\n      0x4e487b7100000000000000000000000000000000000000000000000000000000\n        /* \"#utility.yul\":13726:13727   */\n      0x00\n        /* \"#utility.yul\":13719:13807   */\n      mstore\n        /* \"#utility.yul\":13826:13830   */\n      0x22\n        /* \"#utility.yul\":13823:13824   */\n      0x04\n        /* \"#utility.yul\":13816:13831   */\n      mstore\n        /* \"#utility.yul\":13850:13854   */\n      0x24\n        /* \"#utility.yul\":13847:13848   */\n      0x00\n        /* \"#utility.yul\":13840:13855   */\n      revert\n        /* \"#utility.yul\":13867:14187   */\n    tag_107:\n        /* \"#utility.yul\":13911:13917   */\n      0x00\n        /* \"#utility.yul\":13948:13949   */\n      0x02\n        /* \"#utility.yul\":13942:13946   */\n      dup3\n        /* \"#utility.yul\":13938:13950   */\n      div\n        /* \"#utility.yul\":13928:13950   */\n      swap1\n      pop\n        /* \"#utility.yul\":13995:13996   */\n      0x01\n        /* \"#utility.yul\":13989:13993   */\n      dup3\n        /* \"#utility.yul\":13985:13997   */\n      and\n        /* \"#utility.yul\":14016:14034   */\n      dup1\n        /* \"#utility.yul\":14006:14087   */\n      tag_583\n      jumpi\n        /* \"#utility.yul\":14072:14076   */\n      0x7f\n        /* \"#utility.yul\":14064:14070   */\n      dup3\n        /* \"#utility.yul\":14060:14077   */\n      and\n        /* \"#utility.yul\":14050:14077   */\n      swap2\n      pop\n        /* \"#utility.yul\":14006:14087   */\n    tag_583:\n        /* \"#utility.yul\":14134:14136   */\n      0x20\n        /* \"#utility.yul\":14126:14132   */\n      dup3\n        /* \"#utility.yul\":14123:14137   */\n      lt\n        /* \"#utility.yul\":14103:14121   */\n      dup2\n        /* \"#utility.yul\":14100:14138   */\n      sub\n        /* \"#utility.yul\":14097:14181   */\n      tag_584\n      jumpi\n        /* \"#utility.yul\":14153:14171   */\n      tag_585\n      tag_387\n      jump\t// in\n    tag_585:\n        /* \"#utility.yul\":14097:14181   */\n    tag_584:\n        /* \"#utility.yul\":13918:14187   */\n      pop\n        /* \"#utility.yul\":13867:14187   */\n      swap2\n      swap1\n      pop\n      jump\t// out\n        /* \"#utility.yul\":14193:14373   */\n    tag_121:\n        /* \"#utility.yul\":14241:14318   */\n      0x4e487b7100000000000000000000000000000000000000000000000000000000\n        /* \"#utility.yul\":14238:14239   */\n      0x00\n        /* \"#utility.yul\":14231:14319   */\n      mstore\n        /* \"#utility.yul\":14338:14342   */\n      0x32\n        /* \"#utility.yul\":14335:14336   */\n      0x04\n        /* \"#utility.yul\":14328:14343   */\n      mstore\n        /* \"#utility.yul\":14362:14366   */\n      0x24\n        /* \"#utility.yul\":14359:14360   */\n      0x00\n        /* \"#utility.yul\":14352:14367   */\n      revert\n        /* \"#utility.yul\":14379:14559   */\n    tag_388:\n        /* \"#utility.yul\":14427:14504   */\n      0x4e487b7100000000000000000000000000000000000000000000000000000000\n        /* \"#utility.yul\":14424:14425   */\n      0x00\n        /* \"#utility.yul\":14417:14505   */\n      mstore\n        /* \"#utility.yul\":14524:14528   */\n      0x11\n        /* \"#utility.yul\":14521:14522   */\n      0x04\n        /* \"#utility.yul\":14514:14529   */\n      mstore\n        /* \"#utility.yul\":14548:14552   */\n      0x24\n        /* \"#utility.yul\":14545:14546   */\n      0x00\n        /* \"#utility.yul\":14538:14553   */\n      revert\n        /* \"#utility.yul\":14565:14975   */\n    tag_134:\n        /* \"#utility.yul\":14605:14612   */\n      0x00\n        /* \"#utility.yul\":14628:14648   */\n      tag_589\n        /* \"#utility.yul\":14646:14647   */\n      dup3\n        /* \"#utility.yul\":14628:14648   */\n      tag_359\n      jump\t// in\n    tag_589:\n        /* \"#utility.yul\":14623:14648   */\n      swap2\n      pop\n        /* \"#utility.yul\":14662:14682   */\n      tag_590\n        /* \"#utility.yul\":14680:14681   */\n      dup4\n        /* \"#utility.yul\":14662:14682   */\n      tag_359\n      jump\t// in\n    tag_590:\n        /* \"#utility.yul\":14657:14682   */\n      swap3\n      pop\n        /* \"#utility.yul\":14717:14718   */\n      dup3\n        /* \"#utility.yul\":14714:14715   */\n      dup3\n        /* \"#utility.yul\":14710:14719   */\n      mul\n        /* \"#utility.yul\":14739:14769   */\n      tag_591\n        /* \"#utility.yul\":14757:14768   */\n      dup2\n        /* \"#utility.yul\":14739:14769   */\n      tag_359\n      jump\t// in\n    tag_591:\n        /* \"#utility.yul\":14728:14769   */\n      swap2\n      pop\n        /* \"#utility.yul\":14918:14919   */\n      dup3\n        /* \"#utility.yul\":14909:14916   */\n      dup3\n        /* \"#utility.yul\":14905:14920   */\n      div\n        /* \"#utility.yul\":14902:14903   */\n      dup5\n        /* \"#utility.yul\":14899:14921   */\n      eq\n        /* \"#utility.yul\":14879:14880   */\n      dup4\n        /* \"#utility.yul\":14872:14881   */\n      iszero\n        /* \"#utility.yul\":14852:14935   */\n      or\n        /* \"#utility.yul\":14829:14968   */\n      tag_592\n      jumpi\n        /* \"#utility.yul\":14948:14966   */\n      tag_593\n      tag_388\n      jump\t// in\n    tag_593:\n        /* \"#utility.yul\":14829:14968   */\n    tag_592:\n        /* \"#utility.yul\":14613:14975   */\n      pop\n        /* \"#utility.yul\":14565:14975   */\n      swap3\n      swap2\n      pop\n      pop\n      jump\t// out\n        /* \"#utility.yul\":14981:15172   */\n    tag_143:\n        /* \"#utility.yul\":15021:15024   */\n      0x00\n        /* \"#utility.yul\":15040:15060   */\n      tag_595\n        /* \"#utility.yul\":15058:15059   */\n      dup3\n        /* \"#utility.yul\":15040:15060   */\n      tag_359\n      jump\t// in\n    tag_595:\n        /* \"#utility.yul\":15035:15060   */\n      swap2\n      pop\n        /* \"#utility.yul\":15074:15094   */\n      tag_596\n        /* \"#utility.yul\":15092:15093   */\n      dup4\n        /* \"#utility.yul\":15074:15094   */\n      tag_359\n      jump\t// in\n    tag_596:\n        /* \"#utility.yul\":15069:15094   */\n      swap3\n      pop\n        /* \"#utility.yul\":15117:15118   */\n      dup3\n        /* \"#utility.yul\":15114:15115   */\n      dup3\n        /* \"#utility.yul\":15110:15119   */\n      add\n        /* \"#utility.yul\":15103:15119   */\n      swap1\n      pop\n        /* \"#utility.yul\":15138:15141   */\n      dup1\n        /* \"#utility.yul\":15135:15136   */\n      dup3\n        /* \"#utility.yul\":15132:15142   */\n      gt\n        /* \"#utility.yul\":15129:15165   */\n      iszero\n      tag_597\n      jumpi\n        /* \"#utility.yul\":15145:15163   */\n      tag_598\n      tag_388\n      jump\t// in\n    tag_598:\n        /* \"#utility.yul\":15129:15165   */\n    tag_597:\n        /* \"#utility.yul\":14981:15172   */\n      swap3\n      swap2\n      pop\n      pop\n      jump\t// out\n        /* \"#utility.yul\":15178:15372   */\n    tag_150:\n        /* \"#utility.yul\":15218:15222   */\n      0x00\n        /* \"#utility.yul\":15238:15258   */\n      tag_600\n        /* \"#utility.yul\":15256:15257   */\n      dup3\n        /* \"#utility.yul\":15238:15258   */\n      tag_359\n      jump\t// in\n    tag_600:\n        /* \"#utility.yul\":15233:15258   */\n      swap2\n      pop\n        /* \"#utility.yul\":15272:15292   */\n      tag_601\n        /* \"#utility.yul\":15290:15291   */\n      dup4\n        /* \"#utility.yul\":15272:15292   */\n      tag_359\n      jump\t// in\n    tag_601:\n        /* \"#utility.yul\":15267:15292   */\n      swap3\n      pop\n        /* \"#utility.yul\":15316:15317   */\n      dup3\n        /* \"#utility.yul\":15313:15314   */\n      dup3\n        /* \"#utility.yul\":15309:15318   */\n      sub\n        /* \"#utility.yul\":15301:15318   */\n      swap1\n      pop\n        /* \"#utility.yul\":15340:15341   */\n      dup2\n        /* \"#utility.yul\":15334:15338   */\n      dup2\n        /* \"#utility.yul\":15331:15342   */\n      gt\n        /* \"#utility.yul\":15328:15365   */\n      iszero\n      tag_602\n      jumpi\n        /* \"#utility.yul\":15345:15363   */\n      tag_603\n      tag_388\n      jump\t// in\n    tag_603:\n        /* \"#utility.yul\":15328:15365   */\n    tag_602:\n        /* \"#utility.yul\":15178:15372   */\n      swap3\n      swap2\n      pop\n      pop\n      jump\t// out\n        /* \"#utility.yul\":15378:15611   */\n    tag_179:\n        /* \"#utility.yul\":15417:15420   */\n      0x00\n        /* \"#utility.yul\":15440:15464   */\n      tag_605\n        /* \"#utility.yul\":15458:15463   */\n      dup3\n        /* \"#utility.yul\":15440:15464   */\n      tag_359\n      jump\t// in\n    tag_605:\n        /* \"#utility.yul\":15431:15464   */\n      swap2\n      pop\n        /* \"#utility.yul\":15486:15552   */\n      0xffffffffffffffffffffffffffffffffffffffffffffffffffffffffffffffff\n        /* \"#utility.yul\":15479:15484   */\n      dup3\n        /* \"#utility.yul\":15476:15553   */\n      sub\n        /* \"#utility.yul\":15473:15576   */\n      tag_606\n      jumpi\n        /* \"#utility.yul\":15556:15574   */\n      tag_607\n      tag_388\n      jump\t// in\n    tag_607:\n        /* \"#utility.yul\":15473:15576   */\n    tag_606:\n        /* \"#utility.yul\":15603:15604   */\n      0x01\n        /* \"#utility.yul\":15596:15601   */\n      dup3\n        /* \"#utility.yul\":15592:15605   */\n      add\n        /* \"#utility.yul\":15585:15605   */\n      swap1\n      pop\n        /* \"#utility.yul\":15378:15611   */\n      swap2\n      swap1\n      pop\n      jump\t// out\n        /* \"#utility.yul\":15617:15696   */\n    tag_389:\n        /* \"#utility.yul\":15656:15663   */\n      0x00\n        /* \"#utility.yul\":15685:15690   */\n      dup2\n        /* \"#utility.yul\":15674:15690   */\n      swap1\n      pop\n        /* \"#utility.yul\":15617:15696   */\n      swap2\n      swap1\n      pop\n      jump\t// out\n        /* \"#utility.yul\":15702:15859   */\n    tag_390:\n        /* \"#utility.yul\":15807:15852   */\n      tag_610\n        /* \"#utility.yul\":15827:15851   */\n      tag_611\n        /* \"#utility.yul\":15845:15850   */\n      dup3\n        /* \"#utility.yul\":15827:15851   */\n      tag_359\n      jump\t// in\n    tag_611:\n        /* \"#utility.yul\":15807:15852   */\n      tag_389\n      jump\t// in\n    tag_610:\n        /* \"#utility.yul\":15802:15805   */\n      dup3\n        /* \"#utility.yul\":15795:15853   */\n      mstore\n        /* \"#utility.yul\":15702:15859   */\n      pop\n      pop\n      jump\t// out\n        /* \"#utility.yul\":15865:15959   */\n    tag_391:\n        /* \"#utility.yul\":15898:15906   */\n      0x00\n        /* \"#utility.yul\":15946:15951   */\n      dup2\n        /* \"#utility.yul\":15942:15944   */\n      0x60\n        /* \"#utility.yul\":15938:15952   */\n      shl\n        /* \"#utility.yul\":15917:15952   */\n      swap1\n      pop\n        /* \"#utility.yul\":15865:15959   */\n      swap2\n      swap1\n      pop\n      jump\t// out\n        /* \"#utility.yul\":15965:16059   */\n    tag_392:\n        /* \"#utility.yul\":16004:16011   */\n      0x00\n        /* \"#utility.yul\":16033:16053   */\n      tag_614\n        /* \"#utility.yul\":16047:16052   */\n      dup3\n        /* \"#utility.yul\":16033:16053   */\n      tag_391\n      jump\t// in\n    tag_614:\n        /* \"#utility.yul\":16022:16053   */\n      swap1\n      pop\n        /* \"#utility.yul\":15965:16059   */\n      swap2\n      swap1\n      pop\n      jump\t// out\n        /* \"#utility.yul\":16065:16165   */\n    tag_393:\n        /* \"#utility.yul\":16104:16111   */\n      0x00\n        /* \"#utility.yul\":16133:16159   */\n      tag_616\n        /* \"#utility.yul\":16153:16158   */\n      dup3\n        /* \"#utility.yul\":16133:16159   */\n      tag_392\n      jump\t// in\n    tag_616:\n        /* \"#utility.yul\":16122:16159   */\n      swap1\n      pop\n        /* \"#utility.yul\":16065:16165   */\n      swap2\n      swap1\n      pop\n      jump\t// out\n        /* \"#utility.yul\":16171:16328   */\n    tag_394:\n        /* \"#utility.yul\":16276:16321   */\n      tag_618\n        /* \"#utility.yul\":16296:16320   */\n      tag_619\n        /* \"#utility.yul\":16314:16319   */\n      dup3\n        /* \"#utility.yul\":16296:16320   */\n      tag_356\n      jump\t// in\n    tag_619:\n        /* \"#utility.yul\":16276:16321   */\n      tag_393\n      jump\t// in\n    tag_618:\n        /* \"#utility.yul\":16271:16274   */\n      dup3\n        /* \"#utility.yul\":16264:16322   */\n      mstore\n        /* \"#utility.yul\":16171:16328   */\n      pop\n      pop\n      jump\t// out\n        /* \"#utility.yul\":16334:16872   */\n    tag_181:\n        /* \"#utility.yul\":16502:16505   */\n      0x00\n        /* \"#utility.yul\":16517:16592   */\n      tag_621\n        /* \"#utility.yul\":16588:16591   */\n      dup3\n        /* \"#utility.yul\":16579:16585   */\n      dup7\n        /* \"#utility.yul\":16517:16592   */\n      tag_390\n      jump\t// in\n    tag_621:\n        /* \"#utility.yul\":16617:16619   */\n      0x20\n        /* \"#utility.yul\":16612:16615   */\n      dup3\n        /* \"#utility.yul\":16608:16620   */\n      add\n        /* \"#utility.yul\":16601:16620   */\n      swap2\n      pop\n        /* \"#utility.yul\":16630:16705   */\n      tag_622\n        /* \"#utility.yul\":16701:16704   */\n      dup3\n        /* \"#utility.yul\":16692:16698   */\n      dup6\n        /* \"#utility.yul\":16630:16705   */\n      tag_394\n      jump\t// in\n    tag_622:\n        /* \"#utility.yul\":16730:16732   */\n      0x14\n        /* \"#utility.yul\":16725:16728   */\n      dup3\n        /* \"#utility.yul\":16721:16733   */\n      add\n        /* \"#utility.yul\":16714:16733   */\n      swap2\n      pop\n        /* \"#utility.yul\":16743:16818   */\n      tag_623\n        /* \"#utility.yul\":16814:16817   */\n      dup3\n        /* \"#utility.yul\":16805:16811   */\n      dup5\n        /* \"#utility.yul\":16743:16818   */\n      tag_390\n      jump\t// in\n    tag_623:\n        /* \"#utility.yul\":16843:16845   */\n      0x20\n        /* \"#utility.yul\":16838:16841   */\n      dup3\n        /* \"#utility.yul\":16834:16846   */\n      add\n        /* \"#utility.yul\":16827:16846   */\n      swap2\n      pop\n        /* \"#utility.yul\":16863:16866   */\n      dup2\n        /* \"#utility.yul\":16856:16866   */\n      swap1\n      pop\n        /* \"#utility.yul\":16334:16872   */\n      swap5\n      swap4\n      pop\n      pop\n      pop\n      pop\n      jump\t// out\n        /* \"#utility.yul\":16878:17058   */\n    tag_395:\n        /* \"#utility.yul\":16926:17003   */\n      0x4e487b7100000000000000000000000000000000000000000000000000000000\n        /* \"#utility.yul\":16923:16924   */\n      0x00\n        /* \"#utility.yul\":16916:17004   */\n      mstore\n        /* \"#utility.yul\":17023:17027   */\n      0x12\n        /* \"#utility.yul\":17020:17021   */\n      0x04\n        /* \"#utility.yul\":17013:17028   */\n      mstore\n        /* \"#utility.yul\":17047:17051   */\n      0x24\n        /* \"#utility.yul\":17044:17045   */\n      0x00\n        /* \"#utility.yul\":17037:17052   */\n      revert\n        /* \"#utility.yul\":17064:17240   */\n    tag_183:\n        /* \"#utility.yul\":17096:17097   */\n      0x00\n        /* \"#utility.yul\":17113:17133   */\n      tag_626\n        /* \"#utility.yul\":17131:17132   */\n      dup3\n        /* \"#utility.yul\":17113:17133   */\n      tag_359\n      jump\t// in\n    tag_626:\n        /* \"#utility.yul\":17108:17133   */\n      swap2\n      pop\n        /* \"#utility.yul\":17147:17167   */\n      tag_627\n        /* \"#utility.yul\":17165:17166   */\n      dup4\n        /* \"#utility.yul\":17147:17167   */\n      tag_359\n      jump\t// in\n    tag_627:\n        /* \"#utility.yul\":17142:17167   */\n      swap3\n      pop\n        /* \"#utility.yul\":17186:17187   */\n      dup3\n        /* \"#utility.yul\":17176:17211   */\n      tag_628\n      jumpi\n        /* \"#utility.yul\":17191:17209   */\n      tag_629\n      tag_395\n      jump\t// in\n    tag_629:\n        /* \"#utility.yul\":17176:17211   */\n    tag_628:\n        /* \"#utility.yul\":17232:17233   */\n      dup3\n        /* \"#utility.yul\":17229:17230   */\n      dup3\n        /* \"#utility.yul\":17225:17234   */\n      mod\n        /* \"#utility.yul\":17220:17234   */\n      swap1\n      pop\n        /* \"#utility.yul\":17064:17240   */\n      swap3\n      swap2\n      pop\n      pop\n      jump\t// out\n        /* \"#utility.yul\":17246:17662   */\n    tag_396:\n        /* \"#utility.yul\":17386:17452   */\n      0xd092d0b0d188d0b020d180d0bed0bbd18c20d0bdd0b520d0bfd0bed0b7d0b2d0\n        /* \"#utility.yul\":17382:17383   */\n      0x00\n        /* \"#utility.yul\":17374:17380   */\n      dup3\n        /* \"#utility.yul\":17370:17384   */\n      add\n        /* \"#utility.yul\":17363:17453   */\n      mstore\n        /* \"#utility.yul\":17487:17553   */\n      0xbed0bbd18fd0b5d18220d18dd182d0be20d0b8d0b7d0bcd0b5d0bdd18fd182d1\n        /* \"#utility.yul\":17482:17484   */\n      0x20\n        /* \"#utility.yul\":17474:17480   */\n      dup3\n        /* \"#utility.yul\":17470:17485   */\n      add\n        /* \"#utility.yul\":17463:17554   */\n      mstore\n        /* \"#utility.yul\":17588:17654   */\n      0x8c00000000000000000000000000000000000000000000000000000000000000\n        /* \"#utility.yul\":17583:17585   */\n      0x40\n        /* \"#utility.yul\":17575:17581   */\n      dup3\n        /* \"#utility.yul\":17571:17586   */\n      add\n        /* \"#utility.yul\":17564:17655   */\n      mstore\n        /* \"#utility.yul\":17246:17662   */\n      pop\n      jump\t// out\n        /* \"#utility.yul\":17668:18034   */\n    tag_397:\n        /* \"#utility.yul\":17810:17813   */\n      0x00\n        /* \"#utility.yul\":17831:17898   */\n      tag_632\n        /* \"#utility.yul\":17895:17897   */\n      0x41\n        /* \"#utility.yul\":17890:17893   */\n      dup4\n        /* \"#utility.yul\":17831:17898   */\n      tag_364\n      jump\t// in\n    tag_632:\n        /* \"#utility.yul\":17824:17898   */\n      swap2\n      pop\n        /* \"#utility.yul\":17907:18000   */\n      tag_633\n        /* \"#utility.yul\":17996:17999   */\n      dup3\n        /* \"#utility.yul\":17907:18000   */\n      tag_396\n      jump\t// in\n    tag_633:\n        /* \"#utility.yul\":18025:18027   */\n      0x60\n        /* \"#utility.yul\":18020:18023   */\n      dup3\n        /* \"#utility.yul\":18016:18028   */\n      add\n        /* \"#utility.yul\":18009:18028   */\n      swap1\n      pop\n        /* \"#utility.yul\":17668:18034   */\n      swap2\n      swap1\n      pop\n      jump\t// out\n        /* \"#utility.yul\":18040:18459   */\n    tag_191:\n        /* \"#utility.yul\":18206:18210   */\n      0x00\n        /* \"#utility.yul\":18244:18246   */\n      0x20\n        /* \"#utility.yul\":18233:18242   */\n      dup3\n        /* \"#utility.yul\":18229:18247   */\n      add\n        /* \"#utility.yul\":18221:18247   */\n      swap1\n      pop\n        /* \"#utility.yul\":18293:18302   */\n      dup2\n        /* \"#utility.yul\":18287:18291   */\n      dup2\n        /* \"#utility.yul\":18283:18303   */\n      sub\n        /* \"#utility.yul\":18279:18280   */\n      0x00\n        /* \"#utility.yul\":18268:18277   */\n      dup4\n        /* \"#utility.yul\":18264:18281   */\n      add\n        /* \"#utility.yul\":18257:18304   */\n      mstore\n        /* \"#utility.yul\":18321:18452   */\n      tag_635\n        /* \"#utility.yul\":18447:18451   */\n      dup2\n        /* \"#utility.yul\":18321:18452   */\n      tag_397\n      jump\t// in\n    tag_635:\n        /* \"#utility.yul\":18313:18452   */\n      swap1\n      pop\n        /* \"#utility.yul\":18040:18459   */\n      swap2\n      swap1\n      pop\n      jump\t// out\n        /* \"#utility.yul\":18465:18881   */\n    tag_398:\n        /* \"#utility.yul\":18605:18671   */\n      0xd09cd0b0d0b3d0b0d0b7d0b8d0bd20d0bdd0b520d181d0bed0bed182d0b2d0b5\n        /* \"#utility.yul\":18601:18602   */\n      0x00\n        /* \"#utility.yul\":18593:18599   */\n      dup3\n        /* \"#utility.yul\":18589:18603   */\n      add\n        /* \"#utility.yul\":18582:18672   */\n      mstore\n        /* \"#utility.yul\":18706:18772   */\n      0xd182d181d0b2d183d0b5d18220d0bed182d0bfd180d0b0d0b2d0b8d182d0b5d0\n        /* \"#utility.yul\":18701:18703   */\n      0x20\n        /* \"#utility.yul\":18693:18699   */\n      dup3\n        /* \"#utility.yul\":18689:18704   */\n      add\n        /* \"#utility.yul\":18682:18773   */\n      mstore\n        /* \"#utility.yul\":18807:18873   */\n      0xbbd18e0000000000000000000000000000000000000000000000000000000000\n        /* \"#utility.yul\":18802:18804   */\n      0x40\n        /* \"#utility.yul\":18794:18800   */\n      dup3\n        /* \"#utility.yul\":18790:18805   */\n      add\n        /* \"#utility.yul\":18783:18874   */\n      mstore\n        /* \"#utility.yul\":18465:18881   */\n      pop\n      jump\t// out\n        /* \"#utility.yul\":18887:19253   */\n    tag_399:\n        /* \"#utility.yul\":19029:19032   */\n      0x00\n        /* \"#utility.yul\":19050:19117   */\n      tag_638\n        /* \"#utility.yul\":19114:19116   */\n      0x43\n        /* \"#utility.yul\":19109:19112   */\n      dup4\n        /* \"#utility.yul\":19050:19117   */\n      tag_364\n      jump\t// in\n    tag_638:\n        /* \"#utility.yul\":19043:19117   */\n      swap2\n      pop\n        /* \"#utility.yul\":19126:19219   */\n      tag_639\n        /* \"#utility.yul\":19215:19218   */\n      dup3\n        /* \"#utility.yul\":19126:19219   */\n      tag_398\n      jump\t// in\n    tag_639:\n        /* \"#utility.yul\":19244:19246   */\n      0x60\n        /* \"#utility.yul\":19239:19242   */\n      dup3\n        /* \"#utility.yul\":19235:19247   */\n      add\n        /* \"#utility.yul\":19228:19247   */\n      swap1\n      pop\n        /* \"#utility.yul\":18887:19253   */\n      swap2\n      swap1\n      pop\n      jump\t// out\n        /* \"#utility.yul\":19259:19678   */\n    tag_194:\n        /* \"#utility.yul\":19425:19429   */\n      0x00\n        /* \"#utility.yul\":19463:19465   */\n      0x20\n        /* \"#utility.yul\":19452:19461   */\n      dup3\n        /* \"#utility.yul\":19448:19466   */\n      add\n        /* \"#utility.yul\":19440:19466   */\n      swap1\n      pop\n        /* \"#utility.yul\":19512:19521   */\n      dup2\n        /* \"#utility.yul\":19506:19510   */\n      dup2\n        /* \"#utility.yul\":19502:19522   */\n      sub\n        /* \"#utility.yul\":19498:19499   */\n      0x00\n        /* \"#utility.yul\":19487:19496   */\n      dup4\n        /* \"#utility.yul\":19483:19500   */\n      add\n        /* \"#utility.yul\":19476:19523   */\n      mstore\n        /* \"#utility.yul\":19540:19671   */\n      tag_641\n        /* \"#utility.yul\":19666:19670   */\n      dup2\n        /* \"#utility.yul\":19540:19671   */\n      tag_399\n      jump\t// in\n    tag_641:\n        /* \"#utility.yul\":19532:19671   */\n      swap1\n      pop\n        /* \"#utility.yul\":19259:19678   */\n      swap2\n      swap1\n      pop\n      jump\t// out\n        /* \"#utility.yul\":19684:19869   */\n    tag_197:\n        /* \"#utility.yul\":19724:19725   */\n      0x00\n        /* \"#utility.yul\":19741:19761   */\n      tag_643\n        /* \"#utility.yul\":19759:19760   */\n      dup3\n        /* \"#utility.yul\":19741:19761   */\n      tag_359\n      jump\t// in\n    tag_643:\n        /* \"#utility.yul\":19736:19761   */\n      swap2\n      pop\n        /* \"#utility.yul\":19775:19795   */\n      tag_644\n        /* \"#utility.yul\":19793:19794   */\n      dup4\n        /* \"#utility.yul\":19775:19795   */\n      tag_359\n      jump\t// in\n    tag_644:\n        /* \"#utility.yul\":19770:19795   */\n      swap3\n      pop\n        /* \"#utility.yul\":19814:19815   */\n      dup3\n        /* \"#utility.yul\":19804:19839   */\n      tag_645\n      jumpi\n        /* \"#utility.yul\":19819:19837   */\n      tag_646\n      tag_395\n      jump\t// in\n    tag_646:\n        /* \"#utility.yul\":19804:19839   */\n    tag_645:\n        /* \"#utility.yul\":19861:19862   */\n      dup3\n        /* \"#utility.yul\":19858:19859   */\n      dup3\n        /* \"#utility.yul\":19854:19863   */\n      div\n        /* \"#utility.yul\":19849:19863   */\n      swap1\n      pop\n        /* \"#utility.yul\":19684:19869   */\n      swap3\n      swap2\n      pop\n      pop\n      jump\t// out\n        /* \"#utility.yul\":19875:20016   */\n    tag_400:\n        /* \"#utility.yul\":19924:19928   */\n      0x00\n        /* \"#utility.yul\":19947:19950   */\n      dup2\n        /* \"#utility.yul\":19939:19950   */\n      swap1\n      pop\n        /* \"#utility.yul\":19970:19973   */\n      dup2\n        /* \"#utility.yul\":19967:19968   */\n      0x00\n        /* \"#utility.yul\":19960:19974   */\n      mstore\n        /* \"#utility.yul\":20004:20008   */\n      0x20\n        /* \"#utility.yul\":20001:20002   */\n      0x00\n        /* \"#utility.yul\":19991:20009   */\n      keccak256\n        /* \"#utility.yul\":19983:20009   */\n      swap1\n      pop\n        /* \"#utility.yul\":19875:20016   */\n      swap2\n      swap1\n      pop\n      jump\t// out\n        /* \"#utility.yul\":20022:20115   */\n    tag_401:\n        /* \"#utility.yul\":20059:20065   */\n      0x00\n        /* \"#utility.yul\":20106:20108   */\n      0x20\n        /* \"#utility.yul\":20101:20103   */\n      0x1f\n        /* \"#utility.yul\":20094:20099   */\n      dup4\n        /* \"#utility.yul\":20090:20104   */\n      add\n        /* \"#utility.yul\":20086:20109   */\n      div\n        /* \"#utility.yul\":20076:20109   */\n      swap1\n      pop\n        /* \"#utility.yul\":20022:20115   */\n      swap2\n      swap1\n      pop\n      jump\t// out\n        /* \"#utility.yul\":20121:20228   */\n    tag_402:\n        /* \"#utility.yul\":20165:20173   */\n      0x00\n        /* \"#utility.yul\":20215:20220   */\n      dup3\n        /* \"#utility.yul\":20209:20213   */\n      dup3\n        /* \"#utility.yul\":20205:20221   */\n      shl\n        /* \"#utility.yul\":20184:20221   */\n      swap1\n      pop\n        /* \"#utility.yul\":20121:20228   */\n      swap3\n      swap2\n      pop\n      pop\n      jump\t// out\n        /* \"#utility.yul\":20234:20627   */\n    tag_403:\n        /* \"#utility.yul\":20303:20309   */\n      0x00\n        /* \"#utility.yul\":20353:20354   */\n      0x08\n        /* \"#utility.yul\":20341:20351   */\n      dup4\n        /* \"#utility.yul\":20337:20355   */\n      mul\n        /* \"#utility.yul\":20376:20473   */\n      tag_651\n        /* \"#utility.yul\":20406:20472   */\n      0xffffffffffffffffffffffffffffffffffffffffffffffffffffffffffffffff\n        /* \"#utility.yul\":20395:20404   */\n      dup3\n        /* \"#utility.yul\":20376:20473   */\n      tag_402\n      jump\t// in\n    tag_651:\n        /* \"#utility.yul\":20494:20533   */\n      tag_652\n        /* \"#utility.yul\":20524:20532   */\n      dup7\n        /* \"#utility.yul\":20513:20522   */\n      dup4\n        /* \"#utility.yul\":20494:20533   */\n      tag_402\n      jump\t// in\n    tag_652:\n        /* \"#utility.yul\":20482:20533   */\n      swap6\n      pop\n        /* \"#utility.yul\":20566:20570   */\n      dup1\n        /* \"#utility.yul\":20562:20571   */\n      not\n        /* \"#utility.yul\":20555:20560   */\n      dup5\n        /* \"#utility.yul\":20551:20572   */\n      and\n        /* \"#utility.yul\":20542:20572   */\n      swap4\n      pop\n        /* \"#utility.yul\":20615:20619   */\n      dup1\n        /* \"#utility.yul\":20605:20613   */\n      dup7\n        /* \"#utility.yul\":20601:20620   */\n      and\n        /* \"#utility.yul\":20594:20599   */\n      dup5\n        /* \"#utility.yul\":20591:20621   */\n      or\n        /* \"#utility.yul\":20581:20621   */\n      swap3\n      pop\n        /* \"#utility.yul\":20310:20627   */\n      pop\n      pop\n        /* \"#utility.yul\":20234:20627   */\n      swap4\n      swap3\n      pop\n      pop\n      pop\n      jump\t// out\n        /* \"#utility.yul\":20633:20693   */\n    tag_404:\n        /* \"#utility.yul\":20661:20664   */\n      0x00\n        /* \"#utility.yul\":20682:20687   */\n      dup2\n        /* \"#utility.yul\":20675:20687   */\n      swap1\n      pop\n        /* \"#utility.yul\":20633:20693   */\n      swap2\n      swap1\n      pop\n      jump\t// out\n        /* \"#utility.yul\":20699:20841   */\n    tag_405:\n        /* \"#utility.yul\":20749:20758   */\n      0x00\n        /* \"#utility.yul\":20782:20835   */\n      tag_655\n        /* \"#utility.yul\":20800:20834   */\n      tag_656\n        /* \"#utility.yul\":20809:20833   */\n      tag_657\n        /* \"#utility.yul\":20827:20832   */\n      dup5\n        /* \"#utility.yul\":20809:20833   */\n      tag_359\n      jump\t// in\n    tag_657:\n        /* \"#utility.yul\":20800:20834   */\n      tag_404\n      jump\t// in\n    tag_656:\n        /* \"#utility.yul\":20782:20835   */\n      tag_359\n      jump\t// in\n    tag_655:\n        /* \"#utility.yul\":20769:20835   */\n      swap1\n      pop\n        /* \"#utility.yul\":20699:20841   */\n      swap2\n      swap1\n      pop\n      jump\t// out\n        /* \"#utility.yul\":20847:20922   */\n    tag_406:\n        /* \"#utility.yul\":20890:20893   */\n      0x00\n        /* \"#utility.yul\":20911:20916   */\n      dup2\n        /* \"#utility.yul\":20904:20916   */\n      swap1\n      pop\n        /* \"#utility.yul\":20847:20922   */\n      swap2\n      swap1\n      pop\n      jump\t// out\n        /* \"#utility.yul\":20928:21197   */\n    tag_407:\n        /* \"#utility.yul\":21038:21077   */\n      tag_660\n        /* \"#utility.yul\":21069:21076   */\n      dup4\n        /* \"#utility.yul\":21038:21077   */\n      tag_405\n      jump\t// in\n    tag_660:\n        /* \"#utility.yul\":21099:21190   */\n      tag_661\n        /* \"#utility.yul\":21148:21189   */\n      tag_662\n        /* \"#utility.yul\":21172:21188   */\n      dup3\n        /* \"#utility.yul\":21148:21189   */\n      tag_406\n      jump\t// in\n    tag_662:\n        /* \"#utility.yul\":21140:21146   */\n      dup5\n        /* \"#utility.yul\":21133:21137   */\n      dup5\n        /* \"#utility.yul\":21127:21138   */\n      sload\n        /* \"#utility.yul\":21099:21190   */\n      tag_403\n      jump\t// in\n    tag_661:\n        /* \"#utility.yul\":21093:21097   */\n      dup3\n        /* \"#utility.yul\":21086:21191   */\n      sstore\n        /* \"#utility.yul\":21004:21197   */\n      pop\n        /* \"#utility.yul\":20928:21197   */\n      pop\n      pop\n      pop\n      jump\t// out\n        /* \"#utility.yul\":21203:21276   */\n    tag_408:\n        /* \"#utility.yul\":21248:21251   */\n      0x00\n        /* \"#utility.yul\":21203:21276   */\n      swap1\n      jump\t// out\n        /* \"#utility.yul\":21282:21471   */\n    tag_409:\n        /* \"#utility.yul\":21359:21391   */\n      tag_665\n      tag_408\n      jump\t// in\n    tag_665:\n        /* \"#utility.yul\":21400:21465   */\n      tag_666\n        /* \"#utility.yul\":21458:21464   */\n      dup2\n        /* \"#utility.yul\":21450:21456   */\n      dup5\n        /* \"#utility.yul\":21444:21448   */\n      dup5\n        /* \"#utility.yul\":21400:21465   */\n      tag_407\n      jump\t// in\n    tag_666:\n        /* \"#utility.yul\":21335:21471   */\n      pop\n        /* \"#utility.yul\":21282:21471   */\n      pop\n      pop\n      jump\t// out\n        /* \"#utility.yul\":21477:21663   */\n    tag_410:\n        /* \"#utility.yul\":21537:21657   */\n    tag_668:\n        /* \"#utility.yul\":21554:21557   */\n      dup2\n        /* \"#utility.yul\":21547:21552   */\n      dup2\n        /* \"#utility.yul\":21544:21558   */\n      lt\n        /* \"#utility.yul\":21537:21657   */\n      iszero\n      tag_670\n      jumpi\n        /* \"#utility.yul\":21608:21647   */\n      tag_671\n        /* \"#utility.yul\":21645:21646   */\n      0x00\n        /* \"#utility.yul\":21638:21643   */\n      dup3\n        /* \"#utility.yul\":21608:21647   */\n      tag_409\n      jump\t// in\n    tag_671:\n        /* \"#utility.yul\":21581:21582   */\n      0x01\n        /* \"#utility.yul\":21574:21579   */\n      dup2\n        /* \"#utility.yul\":21570:21583   */\n      add\n        /* \"#utility.yul\":21561:21583   */\n      swap1\n      pop\n        /* \"#utility.yul\":21537:21657   */\n      jump(tag_668)\n    tag_670:\n        /* \"#utility.yul\":21477:21663   */\n      pop\n      pop\n      jump\t// out\n        /* \"#utility.yul\":21669:22212   */\n    tag_411:\n        /* \"#utility.yul\":21770:21772   */\n      0x1f\n        /* \"#utility.yul\":21765:21768   */\n      dup3\n        /* \"#utility.yul\":21762:21773   */\n      gt\n        /* \"#utility.yul\":21759:22205   */\n      iszero\n      tag_673\n      jumpi\n        /* \"#utility.yul\":21804:21842   */\n      tag_674\n        /* \"#utility.yul\":21836:21841   */\n      dup2\n        /* \"#utility.yul\":21804:21842   */\n      tag_400\n      jump\t// in\n    tag_674:\n        /* \"#utility.yul\":21888:21917   */\n      tag_675\n        /* \"#utility.yul\":21906:21916   */\n      dup5\n        /* \"#utility.yul\":21888:21917   */\n      tag_401\n      jump\t// in\n    tag_675:\n        /* \"#utility.yul\":21878:21886   */\n      dup2\n        /* \"#utility.yul\":21874:21918   */\n      add\n        /* \"#utility.yul\":22071:22073   */\n      0x20\n        /* \"#utility.yul\":22059:22069   */\n      dup6\n        /* \"#utility.yul\":22056:22074   */\n      lt\n        /* \"#utility.yul\":22053:22102   */\n      iszero\n      tag_676\n      jumpi\n        /* \"#utility.yul\":22092:22100   */\n      dup2\n        /* \"#utility.yul\":22077:22100   */\n      swap1\n      pop\n        /* \"#utility.yul\":22053:22102   */\n    tag_676:\n        /* \"#utility.yul\":22115:22195   */\n      tag_677\n        /* \"#utility.yul\":22171:22193   */\n      tag_678\n        /* \"#utility.yul\":22189:22192   */\n      dup6\n        /* \"#utility.yul\":22171:22193   */\n      tag_401\n      jump\t// in\n    tag_678:\n        /* \"#utility.yul\":22161:22169   */\n      dup4\n        /* \"#utility.yul\":22157:22194   */\n      add\n        /* \"#utility.yul\":22144:22155   */\n      dup3\n        /* \"#utility.yul\":22115:22195   */\n      tag_410\n      jump\t// in\n    tag_677:\n        /* \"#utility.yul\":21774:22205   */\n      pop\n      pop\n        /* \"#utility.yul\":21759:22205   */\n    tag_673:\n        /* \"#utility.yul\":21669:22212   */\n      pop\n      pop\n      pop\n      jump\t// out\n        /* \"#utility.yul\":22218:22335   */\n    tag_412:\n        /* \"#utility.yul\":22272:22280   */\n      0x00\n        /* \"#utility.yul\":22322:22327   */\n      dup3\n        /* \"#utility.yul\":22316:22320   */\n      dup3\n        /* \"#utility.yul\":22312:22328   */\n      shr\n        /* \"#utility.yul\":22291:22328   */\n      swap1\n      pop\n        /* \"#utility.yul\":22218:22335   */\n      swap3\n      swap2\n      pop\n      pop\n      jump\t// out\n        /* \"#utility.yul\":22341:22510   */\n    tag_413:\n        /* \"#utility.yul\":22385:22391   */\n      0x00\n        /* \"#utility.yul\":22418:22469   */\n      tag_681\n        /* \"#utility.yul\":22466:22467   */\n      0x00\n        /* \"#utility.yul\":22462:22468   */\n      not\n        /* \"#utility.yul\":22454:22459   */\n      dup5\n        /* \"#utility.yul\":22451:22452   */\n      0x08\n        /* \"#utility.yul\":22447:22460   */\n      mul\n        /* \"#utility.yul\":22418:22469   */\n      tag_412\n      jump\t// in\n    tag_681:\n        /* \"#utility.yul\":22414:22470   */\n      not\n        /* \"#utility.yul\":22499:22503   */\n      dup1\n        /* \"#utility.yul\":22493:22497   */\n      dup4\n        /* \"#utility.yul\":22489:22504   */\n      and\n        /* \"#utility.yul\":22479:22504   */\n      swap2\n      pop\n        /* \"#utility.yul\":22392:22510   */\n      pop\n        /* \"#utility.yul\":22341:22510   */\n      swap3\n      swap2\n      pop\n      pop\n      jump\t// out\n        /* \"#utility.yul\":22515:22810   */\n    tag_414:\n        /* \"#utility.yul\":22591:22595   */\n      0x00\n        /* \"#utility.yul\":22737:22766   */\n      tag_683\n        /* \"#utility.yul\":22762:22765   */\n      dup4\n        /* \"#utility.yul\":22756:22760   */\n      dup4\n        /* \"#utility.yul\":22737:22766   */\n      tag_413\n      jump\t// in\n    tag_683:\n        /* \"#utility.yul\":22729:22766   */\n      swap2\n      pop\n        /* \"#utility.yul\":22799:22802   */\n      dup3\n        /* \"#utility.yul\":22796:22797   */\n      0x02\n        /* \"#utility.yul\":22792:22803   */\n      mul\n        /* \"#utility.yul\":22786:22790   */\n      dup3\n        /* \"#utility.yul\":22783:22804   */\n      or\n        /* \"#utility.yul\":22775:22804   */\n      swap1\n      pop\n        /* \"#utility.yul\":22515:22810   */\n      swap3\n      swap2\n      pop\n      pop\n      jump\t// out\n        /* \"#utility.yul\":22815:24210   */\n    tag_200:\n        /* \"#utility.yul\":22932:22969   */\n      tag_685\n        /* \"#utility.yul\":22965:22968   */\n      dup3\n        /* \"#utility.yul\":22932:22969   */\n      tag_363\n      jump\t// in\n    tag_685:\n        /* \"#utility.yul\":23034:23052   */\n      0xffffffffffffffff\n        /* \"#utility.yul\":23026:23032   */\n      dup2\n        /* \"#utility.yul\":23023:23053   */\n      gt\n        /* \"#utility.yul\":23020:23076   */\n      iszero\n      tag_686\n      jumpi\n        /* \"#utility.yul\":23056:23074   */\n      tag_687\n      tag_380\n      jump\t// in\n    tag_687:\n        /* \"#utility.yul\":23020:23076   */\n    tag_686:\n        /* \"#utility.yul\":23100:23138   */\n      tag_688\n        /* \"#utility.yul\":23132:23136   */\n      dup3\n        /* \"#utility.yul\":23126:23137   */\n      sload\n        /* \"#utility.yul\":23100:23138   */\n      tag_107\n      jump\t// in\n    tag_688:\n        /* \"#utility.yul\":23185:23252   */\n      tag_689\n        /* \"#utility.yul\":23245:23251   */\n      dup3\n        /* \"#utility.yul\":23237:23243   */\n      dup3\n        /* \"#utility.yul\":23231:23235   */\n      dup6\n        /* \"#utility.yul\":23185:23252   */\n      tag_411\n      jump\t// in\n    tag_689:\n        /* \"#utility.yul\":23279:23280   */\n      0x00\n        /* \"#utility.yul\":23303:23307   */\n      0x20\n        /* \"#utility.yul\":23290:23307   */\n      swap1\n      pop\n        /* \"#utility.yul\":23335:23337   */\n      0x1f\n        /* \"#utility.yul\":23327:23333   */\n      dup4\n        /* \"#utility.yul\":23324:23338   */\n      gt\n        /* \"#utility.yul\":23352:23353   */\n      0x01\n        /* \"#utility.yul\":23347:23965   */\n      dup2\n      eq\n      tag_691\n      jumpi\n        /* \"#utility.yul\":24009:24010   */\n      0x00\n        /* \"#utility.yul\":24026:24032   */\n      dup5\n        /* \"#utility.yul\":24023:24100   */\n      iszero\n      tag_692\n      jumpi\n        /* \"#utility.yul\":24075:24084   */\n      dup3\n        /* \"#utility.yul\":24070:24073   */\n      dup8\n        /* \"#utility.yul\":24066:24085   */\n      add\n        /* \"#utility.yul\":24060:24086   */\n      mload\n        /* \"#utility.yul\":24051:24086   */\n      swap1\n      pop\n        /* \"#utility.yul\":24023:24100   */\n    tag_692:\n        /* \"#utility.yul\":24126:24193   */\n      tag_693\n        /* \"#utility.yul\":24186:24192   */\n      dup6\n        /* \"#utility.yul\":24179:24184   */\n      dup3\n        /* \"#utility.yul\":24126:24193   */\n      tag_414\n      jump\t// in\n    tag_693:\n        /* \"#utility.yul\":24120:24124   */\n      dup7\n        /* \"#utility.yul\":24113:24194   */\n      sstore\n        /* \"#utility.yul\":23982:24204   */\n      pop\n        /* \"#utility.yul\":23317:24204   */\n      jump(tag_690)\n        /* \"#utility.yul\":23347:23965   */\n    tag_691:\n        /* \"#utility.yul\":23399:23403   */\n      0x1f\n        /* \"#utility.yul\":23395:23404   */\n      not\n        /* \"#utility.yul\":23387:23393   */\n      dup5\n        /* \"#utility.yul\":23383:23405   */\n      and\n        /* \"#utility.yul\":23433:23470   */\n      tag_694\n        /* \"#utility.yul\":23465:23469   */\n      dup7\n        /* \"#utility.yul\":23433:23470   */\n      tag_400\n      jump\t// in\n    tag_694:\n        /* \"#utility.yul\":23492:23493   */\n      0x00\n        /* \"#utility.yul\":23506:23714   */\n    tag_695:\n        /* \"#utility.yul\":23520:23527   */\n      dup3\n        /* \"#utility.yul\":23517:23518   */\n      dup2\n        /* \"#utility.yul\":23514:23528   */\n      lt\n        /* \"#utility.yul\":23506:23714   */\n      iszero\n      tag_697\n      jumpi\n        /* \"#utility.yul\":23599:23608   */\n      dup5\n        /* \"#utility.yul\":23594:23597   */\n      dup10\n        /* \"#utility.yul\":23590:23609   */\n      add\n        /* \"#utility.yul\":23584:23610   */\n      mload\n        /* \"#utility.yul\":23576:23582   */\n      dup3\n        /* \"#utility.yul\":23569:23611   */\n      sstore\n        /* \"#utility.yul\":23650:23651   */\n      0x01\n        /* \"#utility.yul\":23642:23648   */\n      dup3\n        /* \"#utility.yul\":23638:23652   */\n      add\n        /* \"#utility.yul\":23628:23652   */\n      swap2\n      pop\n        /* \"#utility.yul\":23697:23699   */\n      0x20\n        /* \"#utility.yul\":23686:23695   */\n      dup6\n        /* \"#utility.yul\":23682:23700   */\n      add\n        /* \"#utility.yul\":23669:23700   */\n      swap5\n      pop\n        /* \"#utility.yul\":23543:23547   */\n      0x20\n        /* \"#utility.yul\":23540:23541   */\n      dup2\n        /* \"#utility.yul\":23536:23548   */\n      add\n        /* \"#utility.yul\":23531:23548   */\n      swap1\n      pop\n        /* \"#utility.yul\":23506:23714   */\n      jump(tag_695)\n    tag_697:\n        /* \"#utility.yul\":23742:23748   */\n      dup7\n        /* \"#utility.yul\":23733:23740   */\n      dup4\n        /* \"#utility.yul\":23730:23749   */\n      lt\n        /* \"#utility.yul\":23727:23906   */\n      iszero\n      tag_698\n      jumpi\n        /* \"#utility.yul\":23800:23809   */\n      dup5\n        /* \"#utility.yul\":23795:23798   */\n      dup10\n        /* \"#utility.yul\":23791:23810   */\n      add\n        /* \"#utility.yul\":23785:23811   */\n      mload\n        /* \"#utility.yul\":23843:23891   */\n      tag_699\n        /* \"#utility.yul\":23885:23889   */\n      0x1f\n        /* \"#utility.yul\":23877:23883   */\n      dup10\n        /* \"#utility.yul\":23873:23890   */\n      and\n        /* \"#utility.yul\":23862:23871   */\n      dup3\n        /* \"#utility.yul\":23843:23891   */\n      tag_413\n      jump\t// in\n    tag_699:\n        /* \"#utility.yul\":23835:23841   */\n      dup4\n        /* \"#utility.yul\":23828:23892   */\n      sstore\n        /* \"#utility.yul\":23750:23906   */\n      pop\n        /* \"#utility.yul\":23727:23906   */\n    tag_698:\n        /* \"#utility.yul\":23952:23953   */\n      0x01\n        /* \"#utility.yul\":23948:23949   */\n      0x02\n        /* \"#utility.yul\":23940:23946   */\n      dup9\n        /* \"#utility.yul\":23936:23950   */\n      mul\n        /* \"#utility.yul\":23932:23954   */\n      add\n        /* \"#utility.yul\":23926:23930   */\n      dup9\n        /* \"#utility.yul\":23919:23955   */\n      sstore\n        /* \"#utility.yul\":23354:23965   */\n      pop\n      pop\n      pop\n        /* \"#utility.yul\":23317:24204   */\n    tag_690:\n      pop\n        /* \"#utility.yul\":22907:24210   */\n      pop\n      pop\n      pop\n        /* \"#utility.yul\":22815:24210   */\n      pop\n      pop\n      jump\t// out\n        /* \"#utility.yul\":24216:24441   */\n    tag_415:\n        /* \"#utility.yul\":24356:24390   */\n      0x507572636861736520616d6f756e74206d757374206265206772656174657220\n        /* \"#utility.yul\":24352:24353   */\n      0x00\n        /* \"#utility.yul\":24344:24350   */\n      dup3\n        /* \"#utility.yul\":24340:24354   */\n      add\n        /* \"#utility.yul\":24333:24391   */\n      mstore\n        /* \"#utility.yul\":24425:24433   */\n      0x7468616e20300000000000000000000000000000000000000000000000000000\n        /* \"#utility.yul\":24420:24422   */\n      0x20\n        /* \"#utility.yul\":24412:24418   */\n      dup3\n        /* \"#utility.yul\":24408:24423   */\n      add\n        /* \"#utility.yul\":24401:24434   */\n      mstore\n        /* \"#utility.yul\":24216:24441   */\n      pop\n      jump\t// out\n        /* \"#utility.yul\":24447:24813   */\n    tag_416:\n        /* \"#utility.yul\":24589:24592   */\n      0x00\n        /* \"#utility.yul\":24610:24677   */\n      tag_702\n        /* \"#utility.yul\":24674:24676   */\n      0x26\n        /* \"#utility.yul\":24669:24672   */\n      dup4\n        /* \"#utility.yul\":24610:24677   */\n      tag_364\n      jump\t// in\n    tag_702:\n        /* \"#utility.yul\":24603:24677   */\n      swap2\n      pop\n        /* \"#utility.yul\":24686:24779   */\n      tag_703\n        /* \"#utility.yul\":24775:24778   */\n      dup3\n        /* \"#utility.yul\":24686:24779   */\n      tag_415\n      jump\t// in\n    tag_703:\n        /* \"#utility.yul\":24804:24806   */\n      0x40\n        /* \"#utility.yul\":24799:24802   */\n      dup3\n        /* \"#utility.yul\":24795:24807   */\n      add\n        /* \"#utility.yul\":24788:24807   */\n      swap1\n      pop\n        /* \"#utility.yul\":24447:24813   */\n      swap2\n      swap1\n      pop\n      jump\t// out\n        /* \"#utility.yul\":24819:25238   */\n    tag_213:\n        /* \"#utility.yul\":24985:24989   */\n      0x00\n        /* \"#utility.yul\":25023:25025   */\n      0x20\n        /* \"#utility.yul\":25012:25021   */\n      dup3\n        /* \"#utility.yul\":25008:25026   */\n      add\n        /* \"#utility.yul\":25000:25026   */\n      swap1\n      pop\n        /* \"#utility.yul\":25072:25081   */\n      dup2\n        /* \"#utility.yul\":25066:25070   */\n      dup2\n        /* \"#utility.yul\":25062:25082   */\n      sub\n        /* \"#utility.yul\":25058:25059   */\n      0x00\n        /* \"#utility.yul\":25047:25056   */\n      dup4\n        /* \"#utility.yul\":25043:25060   */\n      add\n        /* \"#utility.yul\":25036:25083   */\n      mstore\n        /* \"#utility.yul\":25100:25231   */\n      tag_705\n        /* \"#utility.yul\":25226:25230   */\n      dup2\n        /* \"#utility.yul\":25100:25231   */\n      tag_416\n      jump\t// in\n    tag_705:\n        /* \"#utility.yul\":25092:25231   */\n      swap1\n      pop\n        /* \"#utility.yul\":24819:25238   */\n      swap2\n      swap1\n      pop\n      jump\t// out\n        /* \"#utility.yul\":25244:25412   */\n    tag_417:\n        /* \"#utility.yul\":25384:25404   */\n      0x496e76616c69642070726f647563742049440000000000000000000000000000\n        /* \"#utility.yul\":25380:25381   */\n      0x00\n        /* \"#utility.yul\":25372:25378   */\n      dup3\n        /* \"#utility.yul\":25368:25382   */\n      add\n        /* \"#utility.yul\":25361:25405   */\n      mstore\n        /* \"#utility.yul\":25244:25412   */\n      pop\n      jump\t// out\n        /* \"#utility.yul\":25418:25784   */\n    tag_418:\n        /* \"#utility.yul\":25560:25563   */\n      0x00\n        /* \"#utility.yul\":25581:25648   */\n      tag_708\n        /* \"#utility.yul\":25645:25647   */\n      0x12\n        /* \"#utility.yul\":25640:25643   */\n      dup4\n        /* \"#utility.yul\":25581:25648   */\n      tag_364\n      jump\t// in\n    tag_708:\n        /* \"#utility.yul\":25574:25648   */\n      swap2\n      pop\n        /* \"#utility.yul\":25657:25750   */\n      tag_709\n        /* \"#utility.yul\":25746:25749   */\n      dup3\n        /* \"#utility.yul\":25657:25750   */\n      tag_417\n      jump\t// in\n    tag_709:\n        /* \"#utility.yul\":25775:25777   */\n      0x20\n        /* \"#utility.yul\":25770:25773   */\n      dup3\n        /* \"#utility.yul\":25766:25778   */\n      add\n        /* \"#utility.yul\":25759:25778   */\n      swap1\n      pop\n        /* \"#utility.yul\":25418:25784   */\n      swap2\n      swap1\n      pop\n      jump\t// out\n        /* \"#utility.yul\":25790:26209   */\n    tag_216:\n        /* \"#utility.yul\":25956:25960   */\n      0x00\n        /* \"#utility.yul\":25994:25996   */\n      0x20\n        /* \"#utility.yul\":25983:25992   */\n      dup3\n        /* \"#utility.yul\":25979:25997   */\n      add\n        /* \"#utility.yul\":25971:25997   */\n      swap1\n      pop\n        /* \"#utility.yul\":26043:26052   */\n      dup2\n        /* \"#utility.yul\":26037:26041   */\n      dup2\n        /* \"#utility.yul\":26033:26053   */\n      sub\n        /* \"#utility.yul\":26029:26030   */\n      0x00\n        /* \"#utility.yul\":26018:26027   */\n      dup4\n        /* \"#utility.yul\":26014:26031   */\n      add\n        /* \"#utility.yul\":26007:26054   */\n      mstore\n        /* \"#utility.yul\":26071:26202   */\n      tag_711\n        /* \"#utility.yul\":26197:26201   */\n      dup2\n        /* \"#utility.yul\":26071:26202   */\n      tag_418\n      jump\t// in\n    tag_711:\n        /* \"#utility.yul\":26063:26202   */\n      swap1\n      pop\n        /* \"#utility.yul\":25790:26209   */\n      swap2\n      swap1\n      pop\n      jump\t// out\n        /* \"#utility.yul\":26215:26391   */\n    tag_419:\n        /* \"#utility.yul\":26355:26383   */\n      0x4e6f7420656e6f7567682073746f636b20617661696c61626c65000000000000\n        /* \"#utility.yul\":26351:26352   */\n      0x00\n        /* \"#utility.yul\":26343:26349   */\n      dup3\n        /* \"#utility.yul\":26339:26353   */\n      add\n        /* \"#utility.yul\":26332:26384   */\n      mstore\n        /* \"#utility.yul\":26215:26391   */\n      pop\n      jump\t// out\n        /* \"#utility.yul\":26397:26763   */\n    tag_420:\n        /* \"#utility.yul\":26539:26542   */\n      0x00\n        /* \"#utility.yul\":26560:26627   */\n      tag_714\n        /* \"#utility.yul\":26624:26626   */\n      0x1a\n        /* \"#utility.yul\":26619:26622   */\n      dup4\n        /* \"#utility.yul\":26560:26627   */\n      tag_364\n      jump\t// in\n    tag_714:\n        /* \"#utility.yul\":26553:26627   */\n      swap2\n      pop\n        /* \"#utility.yul\":26636:26729   */\n      tag_715\n        /* \"#utility.yul\":26725:26728   */\n      dup3\n        /* \"#utility.yul\":26636:26729   */\n      tag_419\n      jump\t// in\n    tag_715:\n        /* \"#utility.yul\":26754:26756   */\n      0x20\n        /* \"#utility.yul\":26749:26752   */\n      dup3\n        /* \"#utility.yul\":26745:26757   */\n      add\n        /* \"#utility.yul\":26738:26757   */\n      swap1\n      pop\n        /* \"#utility.yul\":26397:26763   */\n      swap2\n      swap1\n      pop\n      jump\t// out\n        /* \"#utility.yul\":26769:27188   */\n    tag_222:\n        /* \"#utility.yul\":26935:26939   */\n      0x00\n        /* \"#utility.yul\":26973:26975   */\n      0x20\n        /* \"#utility.yul\":26962:26971   */\n      dup3\n        /* \"#utility.yul\":26958:26976   */\n      add\n        /* \"#utility.yul\":26950:26976   */\n      swap1\n      pop\n        /* \"#utility.yul\":27022:27031   */\n      dup2\n        /* \"#utility.yul\":27016:27020   */\n      dup2\n        /* \"#utility.yul\":27012:27032   */\n      sub\n        /* \"#utility.yul\":27008:27009   */\n      0x00\n        /* \"#utility.yul\":26997:27006   */\n      dup4\n        /* \"#utility.yul\":26993:27010   */\n      add\n        /* \"#utility.yul\":26986:27033   */\n      mstore\n        /* \"#utility.yul\":27050:27181   */\n      tag_717\n        /* \"#utility.yul\":27176:27180   */\n      dup2\n        /* \"#utility.yul\":27050:27181   */\n      tag_420\n      jump\t// in\n    tag_717:\n        /* \"#utility.yul\":27042:27181   */\n      swap1\n      pop\n        /* \"#utility.yul\":26769:27188   */\n      swap2\n      swap1\n      pop\n      jump\t// out\n        /* \"#utility.yul\":27194:27342   */\n    tag_421:\n        /* \"#utility.yul\":27296:27307   */\n      0x00\n        /* \"#utility.yul\":27333:27336   */\n      dup2\n        /* \"#utility.yul\":27318:27336   */\n      swap1\n      pop\n        /* \"#utility.yul\":27194:27342   */\n      swap3\n      swap2\n      pop\n      pop\n      jump\t// out\n        /* \"#utility.yul\":27348:27738   */\n    tag_422:\n        /* \"#utility.yul\":27454:27457   */\n      0x00\n        /* \"#utility.yul\":27482:27521   */\n      tag_720\n        /* \"#utility.yul\":27515:27520   */\n      dup3\n        /* \"#utility.yul\":27482:27521   */\n      tag_363\n      jump\t// in\n    tag_720:\n        /* \"#utility.yul\":27537:27626   */\n      tag_721\n        /* \"#utility.yul\":27619:27625   */\n      dup2\n        /* \"#utility.yul\":27614:27617   */\n      dup6\n        /* \"#utility.yul\":27537:27626   */\n      tag_421\n      jump\t// in\n    tag_721:\n        /* \"#utility.yul\":27530:27626   */\n      swap4\n      pop\n        /* \"#utility.yul\":27635:27700   */\n      tag_722\n        /* \"#utility.yul\":27693:27699   */\n      dup2\n        /* \"#utility.yul\":27688:27691   */\n      dup6\n        /* \"#utility.yul\":27681:27685   */\n      0x20\n        /* \"#utility.yul\":27674:27679   */\n      dup7\n        /* \"#utility.yul\":27670:27686   */\n      add\n        /* \"#utility.yul\":27635:27700   */\n      tag_365\n      jump\t// in\n    tag_722:\n        /* \"#utility.yul\":27725:27731   */\n      dup1\n        /* \"#utility.yul\":27720:27723   */\n      dup5\n        /* \"#utility.yul\":27716:27732   */\n      add\n        /* \"#utility.yul\":27709:27732   */\n      swap2\n      pop\n        /* \"#utility.yul\":27458:27738   */\n      pop\n        /* \"#utility.yul\":27348:27738   */\n      swap3\n      swap2\n      pop\n      pop\n      jump\t// out\n        /* \"#utility.yul\":27744:28019   */\n    tag_229:\n        /* \"#utility.yul\":27876:27879   */\n      0x00\n        /* \"#utility.yul\":27898:27993   */\n      tag_724\n        /* \"#utility.yul\":27989:27992   */\n      dup3\n        /* \"#utility.yul\":27980:27986   */\n      dup5\n        /* \"#utility.yul\":27898:27993   */\n      tag_422\n      jump\t// in\n    tag_724:\n        /* \"#utility.yul\":27891:27993   */\n      swap2\n      pop\n        /* \"#utility.yul\":28010:28013   */\n      dup2\n        /* \"#utility.yul\":28003:28013   */\n      swap1\n      pop\n        /* \"#utility.yul\":27744:28019   */\n      swap3\n      swap2\n      pop\n      pop\n      jump\t// out\n        /* \"#utility.yul\":28025:28198   */\n    tag_423:\n        /* \"#utility.yul\":28165:28190   */\n      0x496e73756666696369656e742066756e64732073656e74000000000000000000\n        /* \"#utility.yul\":28161:28162   */\n      0x00\n        /* \"#utility.yul\":28153:28159   */\n      dup3\n        /* \"#utility.yul\":28149:28163   */\n      add\n        /* \"#utility.yul\":28142:28191   */\n      mstore\n        /* \"#utility.yul\":28025:28198   */\n      pop\n      jump\t// out\n        /* \"#utility.yul\":28204:28570   */\n    tag_424:\n        /* \"#utility.yul\":28346:28349   */\n      0x00\n        /* \"#utility.yul\":28367:28434   */\n      tag_727\n        /* \"#utility.yul\":28431:28433   */\n      0x17\n        /* \"#utility.yul\":28426:28429   */\n      dup4\n        /* \"#utility.yul\":28367:28434   */\n      tag_364\n      jump\t// in\n    tag_727:\n        /* \"#utility.yul\":28360:28434   */\n      swap2\n      pop\n        /* \"#utility.yul\":28443:28536   */\n      tag_728\n        /* \"#utility.yul\":28532:28535   */\n      dup3\n        /* \"#utility.yul\":28443:28536   */\n      tag_423\n      jump\t// in\n    tag_728:\n        /* \"#utility.yul\":28561:28563   */\n      0x20\n        /* \"#utility.yul\":28556:28559   */\n      dup3\n        /* \"#utility.yul\":28552:28564   */\n      add\n        /* \"#utility.yul\":28545:28564   */\n      swap1\n      pop\n        /* \"#utility.yul\":28204:28570   */\n      swap2\n      swap1\n      pop\n      jump\t// out\n        /* \"#utility.yul\":28576:28995   */\n    tag_236:\n        /* \"#utility.yul\":28742:28746   */\n      0x00\n        /* \"#utility.yul\":28780:28782   */\n      0x20\n        /* \"#utility.yul\":28769:28778   */\n      dup3\n        /* \"#utility.yul\":28765:28783   */\n      add\n        /* \"#utility.yul\":28757:28783   */\n      swap1\n      pop\n        /* \"#utility.yul\":28829:28838   */\n      dup2\n        /* \"#utility.yul\":28823:28827   */\n      dup2\n        /* \"#utility.yul\":28819:28839   */\n      sub\n        /* \"#utility.yul\":28815:28816   */\n      0x00\n        /* \"#utility.yul\":28804:28813   */\n      dup4\n        /* \"#utility.yul\":28800:28817   */\n      add\n        /* \"#utility.yul\":28793:28840   */\n      mstore\n        /* \"#utility.yul\":28857:28988   */\n      tag_730\n        /* \"#utility.yul\":28983:28987   */\n      dup2\n        /* \"#utility.yul\":28857:28988   */\n      tag_424\n      jump\t// in\n    tag_730:\n        /* \"#utility.yul\":28849:28988   */\n      swap1\n      pop\n        /* \"#utility.yul\":28576:28995   */\n      swap2\n      swap1\n      pop\n      jump\t// out\n        /* \"#utility.yul\":29001:29148   */\n    tag_425:\n        /* \"#utility.yul\":29102:29113   */\n      0x00\n        /* \"#utility.yul\":29139:29142   */\n      dup2\n        /* \"#utility.yul\":29124:29142   */\n      swap1\n      pop\n        /* \"#utility.yul\":29001:29148   */\n      swap3\n      swap2\n      pop\n      pop\n      jump\t// out\n        /* \"#utility.yul\":29154:29298   */\n    tag_426:\n        /* \"#utility.yul\":29206:29210   */\n      0x00\n        /* \"#utility.yul\":29229:29232   */\n      dup2\n        /* \"#utility.yul\":29221:29232   */\n      swap1\n      pop\n        /* \"#utility.yul\":29252:29255   */\n      dup2\n        /* \"#utility.yul\":29249:29250   */\n      0x00\n        /* \"#utility.yul\":29242:29256   */\n      mstore\n        /* \"#utility.yul\":29286:29290   */\n      0x20\n        /* \"#utility.yul\":29283:29284   */\n      0x00\n        /* \"#utility.yul\":29273:29291   */\n      keccak256\n        /* \"#utility.yul\":29265:29291   */\n      swap1\n      pop\n        /* \"#utility.yul\":29154:29298   */\n      swap2\n      swap1\n      pop\n      jump\t// out\n        /* \"#utility.yul\":29326:30204   */\n    tag_427:\n        /* \"#utility.yul\":29431:29434   */\n      0x00\n        /* \"#utility.yul\":29468:29473   */\n      dup2\n        /* \"#utility.yul\":29462:29474   */\n      sload\n        /* \"#utility.yul\":29497:29533   */\n      tag_734\n        /* \"#utility.yul\":29523:29532   */\n      dup2\n        /* \"#utility.yul\":29497:29533   */\n      tag_107\n      jump\t// in\n    tag_734:\n        /* \"#utility.yul\":29549:29637   */\n      tag_735\n        /* \"#utility.yul\":29630:29636   */\n      dup2\n        /* \"#utility.yul\":29625:29628   */\n      dup7\n        /* \"#utility.yul\":29549:29637   */\n      tag_425\n      jump\t// in\n    tag_735:\n        /* \"#utility.yul\":29542:29637   */\n      swap5\n      pop\n        /* \"#utility.yul\":29668:29669   */\n      0x01\n        /* \"#utility.yul\":29657:29666   */\n      dup3\n        /* \"#utility.yul\":29653:29670   */\n      and\n        /* \"#utility.yul\":29684:29685   */\n      0x00\n        /* \"#utility.yul\":29679:29845   */\n      dup2\n      eq\n      tag_737\n      jumpi\n        /* \"#utility.yul\":29859:29860   */\n      0x01\n        /* \"#utility.yul\":29854:30198   */\n      dup2\n      eq\n      tag_738\n      jumpi\n        /* \"#utility.yul\":29646:30198   */\n      jump(tag_736)\n        /* \"#utility.yul\":29679:29845   */\n    tag_737:\n        /* \"#utility.yul\":29763:29767   */\n      0xff\n        /* \"#utility.yul\":29759:29768   */\n      not\n        /* \"#utility.yul\":29748:29757   */\n      dup4\n        /* \"#utility.yul\":29744:29769   */\n      and\n        /* \"#utility.yul\":29739:29742   */\n      dup7\n        /* \"#utility.yul\":29732:29770   */\n      mstore\n        /* \"#utility.yul\":29825:29831   */\n      dup2\n        /* \"#utility.yul\":29818:29832   */\n      iszero\n        /* \"#utility.yul\":29811:29833   */\n      iszero\n        /* \"#utility.yul\":29803:29809   */\n      dup3\n        /* \"#utility.yul\":29799:29834   */\n      mul\n        /* \"#utility.yul\":29794:29797   */\n      dup7\n        /* \"#utility.yul\":29790:29835   */\n      add\n        /* \"#utility.yul\":29783:29835   */\n      swap4\n      pop\n        /* \"#utility.yul\":29679:29845   */\n      jump(tag_736)\n        /* \"#utility.yul\":29854:30198   */\n    tag_738:\n        /* \"#utility.yul\":29921:29962   */\n      tag_739\n        /* \"#utility.yul\":29956:29961   */\n      dup6\n        /* \"#utility.yul\":29921:29962   */\n      tag_426\n      jump\t// in\n    tag_739:\n        /* \"#utility.yul\":29984:29985   */\n      0x00\n        /* \"#utility.yul\":29998:30152   */\n    tag_740:\n        /* \"#utility.yul\":30012:30018   */\n      dup4\n        /* \"#utility.yul\":30009:30010   */\n      dup2\n        /* \"#utility.yul\":30006:30019   */\n      lt\n        /* \"#utility.yul\":29998:30152   */\n      iszero\n      tag_742\n      jumpi\n        /* \"#utility.yul\":30086:30093   */\n      dup2\n        /* \"#utility.yul\":30080:30094   */\n      sload\n        /* \"#utility.yul\":30076:30077   */\n      dup2\n        /* \"#utility.yul\":30071:30074   */\n      dup10\n        /* \"#utility.yul\":30067:30078   */\n      add\n        /* \"#utility.yul\":30060:30095   */\n      mstore\n        /* \"#utility.yul\":30136:30137   */\n      0x01\n        /* \"#utility.yul\":30127:30134   */\n      dup3\n        /* \"#utility.yul\":30123:30138   */\n      add\n        /* \"#utility.yul\":30112:30138   */\n      swap2\n      pop\n        /* \"#utility.yul\":30034:30038   */\n      0x20\n        /* \"#utility.yul\":30031:30032   */\n      dup2\n        /* \"#utility.yul\":30027:30039   */\n      add\n        /* \"#utility.yul\":30022:30039   */\n      swap1\n      pop\n        /* \"#utility.yul\":29998:30152   */\n      jump(tag_740)\n    tag_742:\n        /* \"#utility.yul\":30181:30187   */\n      dup4\n        /* \"#utility.yul\":30176:30179   */\n      dup9\n        /* \"#utility.yul\":30172:30188   */\n      add\n        /* \"#utility.yul\":30165:30188   */\n      swap6\n      pop\n        /* \"#utility.yul\":29861:30198   */\n      pop\n      pop\n        /* \"#utility.yul\":29646:30198   */\n    tag_736:\n      pop\n        /* \"#utility.yul\":29435:30204   */\n      pop\n      pop\n        /* \"#utility.yul\":29326:30204   */\n      swap3\n      swap2\n      pop\n      pop\n      jump\t// out\n        /* \"#utility.yul\":30210:30483   */\n    tag_244:\n        /* \"#utility.yul\":30341:30344   */\n      0x00\n        /* \"#utility.yul\":30363:30457   */\n      tag_744\n        /* \"#utility.yul\":30453:30456   */\n      dup3\n        /* \"#utility.yul\":30444:30450   */\n      dup5\n        /* \"#utility.yul\":30363:30457   */\n      tag_427\n      jump\t// in\n    tag_744:\n        /* \"#utility.yul\":30356:30457   */\n      swap2\n      pop\n        /* \"#utility.yul\":30474:30477   */\n      dup2\n        /* \"#utility.yul\":30467:30477   */\n      swap1\n      pop\n        /* \"#utility.yul\":30210:30483   */\n      swap3\n      swap2\n      pop\n      pop\n      jump\t// out\n\n    auxdata: 0xa26469706673582212202a9cb490a23d8514314fa2d2ff1994460e0190ca2464f26445d970ee19f3330364736f6c63430008150033\n}\n",
				"bytecode": {
					"linkReferences": {},
					"object": "608060405234801561000f575f80fd5b503360015f6101000a81548173ffffffffffffffffffffffffffffffffffffffff021916908373ffffffffffffffffffffffffffffffffffffffff1602179055506131a38061005d5f395ff3fe6080604052600436106100fd575f3560e01c8063861c2b6d11610094578063a87430ba11610063578063a87430ba146102f3578063d18a524a14610330578063d55768dd14610346578063f67a2ad114610382578063fecd8f79146103aa576100fd565b8063861c2b6d1461025d5780638da5cb5b146102855780639f1cd587146102af578063a1ba90b6146102cb576100fd565b806355dea0b3116100d057806355dea0b3146101bb57806366d0dc67146101e35780636f764708146101f9578063805553e814610221576100fd565b80633d527883146101015780633dfe7dee14610140578063410085df1461015657806350b447121461017e575b5f80fd5b34801561010c575f80fd5b5061012760048036038101906101229190612193565b6103c6565b604051610137949392919061226a565b60405180910390f35b34801561014b575f80fd5b50610154610492565b005b348015610161575f80fd5b5061017c60048036038101906101779190612193565b610532565b005b348015610189575f80fd5b506101a4600480360381019061019f91906122b4565b6108c6565b6040516101b2929190612361565b60405180910390f35b3480156101c6575f80fd5b506101e160048036038101906101dc91906123ab565b61091b565b005b3480156101ee575f80fd5b506101f76109f3565b005b348015610204575f80fd5b5061021f600480360381019061021a91906122b4565b610a94565b005b34801561022c575f80fd5b50610247600480360381019061024291906122b4565b610bc5565b60405161025491906123d6565b60405180910390f35b348015610268575f80fd5b50610283600480360381019061027e9190612450565b610c15565b005b348015610290575f80fd5b50610299610e4d565b6040516102a691906124e6565b60405180910390f35b6102c960048036038101906102c49190612627565b610e72565b005b3480156102d6575f80fd5b506102f160048036038101906102ec91906126a7565b611783565b005b3480156102fe575f80fd5b5061031960048036038101906103149190612701565b61181a565b60405161032792919061272c565b60405180910390f35b34801561033b575f80fd5b50610344611846565b005b348015610351575f80fd5b5061036c60048036038101906103679190612753565b6118e6565b60405161037991906124e6565b60405180910390f35b34801561038d575f80fd5b506103a860048036038101906103a39190612701565b61192e565b005b6103c460048036038101906103bf919061279a565b6119b5565b005b6003602052815f5260405f2081815481106103df575f80fd5b905f5260205f2090600402015f9150915050805f01549080600101549080600201805461040b9061282b565b80601f01602080910402602001604051908101604052809291908181526020018280546104379061282b565b80156104825780601f1061045957610100808354040283529160200191610482565b820191905f5260205f20905b81548152906001019060200180831161046557829003601f168201915b5050505050908060030154905084565b60405180604001604052806002808111156104b0576104af6122ee565b5b81526020015f81525060025f3373ffffffffffffffffffffffffffffffffffffffff1673ffffffffffffffffffffffffffffffffffffffff1681526020019081526020015f205f820151815f015f6101000a81548160ff0219169083600281111561051e5761051d6122ee565b5b021790555060208201518160010155905050565b60035f8373ffffffffffffffffffffffffffffffffffffffff1673ffffffffffffffffffffffffffffffffffffffff1681526020019081526020015f2081815481106105815761058061285b565b5b905f5260205f2090600402016003015460035f3373ffffffffffffffffffffffffffffffffffffffff1673ffffffffffffffffffffffffffffffffffffffff1681526020019081526020015f2082815481106105e0576105df61285b565b5b905f5260205f20906004020160030154116105f9575f80fd5b5f670de0b6b3a764000060035f8573ffffffffffffffffffffffffffffffffffffffff1673ffffffffffffffffffffffffffffffffffffffff1681526020019081526020015f2083815481106106525761065161285b565b5b905f5260205f2090600402016001015460035f3373ffffffffffffffffffffffffffffffffffffffff1673ffffffffffffffffffffffffffffffffffffffff1681526020019081526020015f2084815481106106b1576106b061285b565b5b905f5260205f2090600402015f01546106ca91906128b5565b6106d491906128b5565b905060035f3373ffffffffffffffffffffffffffffffffffffffff1673ffffffffffffffffffffffffffffffffffffffff1681526020019081526020015f2082815481106107255761072461285b565b5b905f5260205f2090600402015f015460035f8573ffffffffffffffffffffffffffffffffffffffff1673ffffffffffffffffffffffffffffffffffffffff1681526020019081526020015f2083815481106107835761078261285b565b5b905f5260205f2090600402015f015f82825461079f91906128f6565b9250508190555060035f3373ffffffffffffffffffffffffffffffffffffffff1673ffffffffffffffffffffffffffffffffffffffff1681526020019081526020015f2082815481106107f5576107f461285b565b5b905f5260205f2090600402015f8082015f9055600182015f9055600282015f61081e919061209d565b600382015f905550508060025f8573ffffffffffffffffffffffffffffffffffffffff1673ffffffffffffffffffffffffffffffffffffffff1681526020019081526020015f206001015f8282546108769190612929565b925050819055503373ffffffffffffffffffffffffffffffffffffffff166108fc8290811502906040515f60405180830381858888f193505050501580156108c0573d5f803e3d5ffd5b50505050565b5f81815481106108d4575f80fd5b905f5260205f20015f91509050805f015f9054906101000a900473ffffffffffffffffffffffffffffffffffffffff1690805f0160149054906101000a900460ff16905082565b5f60405180604001604052803373ffffffffffffffffffffffffffffffffffffffff168152602001836002811115610956576109556122ee565b5b815250908060018154018082558091505060019003905f5260205f20015f909190919091505f820151815f015f6101000a81548173ffffffffffffffffffffffffffffffffffffffff021916908373ffffffffffffffffffffffffffffffffffffffff1602179055506020820151815f0160146101000a81548160ff021916908360028111156109e9576109e86122ee565b5b0217905550505050565b604051806040016040528060016002811115610a1257610a116122ee565b5b81526020015f81525060025f3373ffffffffffffffffffffffffffffffffffffffff1673ffffffffffffffffffffffffffffffffffffffff1681526020019081526020015f205f820151815f015f6101000a81548160ff02191690836002811115610a8057610a7f6122ee565b5b021790555060208201518160010155905050565b60015f9054906101000a900473ffffffffffffffffffffffffffffffffffffffff1673ffffffffffffffffffffffffffffffffffffffff163373ffffffffffffffffffffffffffffffffffffffff1614610aec575f80fd5b5f808281548110610b0057610aff61285b565b5b905f5260205f20015f015f9054906101000a900473ffffffffffffffffffffffffffffffffffffffff1690505f808381548110610b4057610b3f61285b565b5b905f5260205f20015f0160149054906101000a900460ff1690508060025f8473ffffffffffffffffffffffffffffffffffffffff1673ffffffffffffffffffffffffffffffffffffffff1681526020019081526020015f205f015f6101000a81548160ff02191690836002811115610bbb57610bba6122ee565b5b0217905550505050565b5f808080610bd29061295c565b91505082423383604051602001610beb93929190612a08565b604051602081830303815290604052805190602001205f1c610c0d9190612a71565b915050919050565b600281816002811115610c2b57610c2a6122ee565b5b60025f3373ffffffffffffffffffffffffffffffffffffffff1673ffffffffffffffffffffffffffffffffffffffff1681526020019081526020015f205f015f9054906101000a900460ff166002811115610c8957610c886122ee565b5b14610cc9576040517f08c379a0000000000000000000000000000000000000000000000000000000008152600401610cc090612b37565b60405180910390fd5b8073ffffffffffffffffffffffffffffffffffffffff163373ffffffffffffffffffffffffffffffffffffffff1614610d37576040517f08c379a0000000000000000000000000000000000000000000000000000000008152600401610d2e90612beb565b60405180910390fd5b5f60405180608001604052808a815260200160028a610d569190612c09565b815260200188888080601f0160208091040260200160405190810160405280939291908181526020018383808284375f81840152601f19601f82011690508083019250505050505050815260200186815250905060035f8573ffffffffffffffffffffffffffffffffffffffff1673ffffffffffffffffffffffffffffffffffffffff1681526020019081526020015f2081908060018154018082558091505060019003905f5260205f2090600402015f909190919091505f820151815f0155602082015181600101556040820151816002019081610e359190612dd6565b50606082015181600301555050505050505050505050565b60015f9054906101000a900473ffffffffffffffffffffffffffffffffffffffff1681565b5f6002811115610e8557610e846122ee565b5b60025f3373ffffffffffffffffffffffffffffffffffffffff1673ffffffffffffffffffffffffffffffffffffffff1681526020019081526020015f205f015f9054906101000a900460ff166002811115610ee357610ee26122ee565b5b03610f875760405180604001604052805f6002811115610f0657610f056122ee565b5b81526020015f81525060025f3373ffffffffffffffffffffffffffffffffffffffff1673ffffffffffffffffffffffffffffffffffffffff1681526020019081526020015f205f820151815f015f6101000a81548160ff02191690836002811115610f7457610f736122ee565b5b0217905550602082015181600101559050505b5f8311610fc9576040517f08c379a0000000000000000000000000000000000000000000000000000000008152600401610fc090612f15565b60405180910390fd5b60035f8573ffffffffffffffffffffffffffffffffffffffff1673ffffffffffffffffffffffffffffffffffffffff1681526020019081526020015f2080549050821061104b576040517f08c379a000000000000000000000000000000000000000000000000000000000815260040161104290612f7d565b60405180910390fd5b60035f8573ffffffffffffffffffffffffffffffffffffffff1673ffffffffffffffffffffffffffffffffffffffff1681526020019081526020015f20828154811061109a5761109961285b565b5b905f5260205f2090600402015f01548311156110eb576040517f08c379a00000000000000000000000000000000000000000000000000000000081526004016110e290612fe5565b60405180910390fd5b5f670de0b6b3a764000060035f8773ffffffffffffffffffffffffffffffffffffffff1673ffffffffffffffffffffffffffffffffffffffff1681526020019081526020015f2084815481106111445761114361285b565b5b905f5260205f209060040201600101548561115f91906128b5565b61116991906128b5565b90503373ffffffffffffffffffffffffffffffffffffffff16600483604051611192919061303d565b90815260200160405180910390205f9054906101000a900473ffffffffffffffffffffffffffffffffffffffff1673ffffffffffffffffffffffffffffffffffffffff1603611253576064605a826111ea91906128b5565b6111f49190612c09565b90505f600483604051611207919061303d565b90815260200160405180910390205f6101000a81548173ffffffffffffffffffffffffffffffffffffffff021916908373ffffffffffffffffffffffffffffffffffffffff1602179055505b80341015611296576040517f08c379a000000000000000000000000000000000000000000000000000000000815260040161128d9061309d565b60405180910390fd5b5f805b60035f3373ffffffffffffffffffffffffffffffffffffffff1673ffffffffffffffffffffffffffffffffffffffff1681526020019081526020015f208054905081101561145b5760035f8873ffffffffffffffffffffffffffffffffffffffff1673ffffffffffffffffffffffffffffffffffffffff1681526020019081526020015f2085815481106113305761132f61285b565b5b905f5260205f20906004020160020160405161134c9190613157565b604051809103902060035f3373ffffffffffffffffffffffffffffffffffffffff1673ffffffffffffffffffffffffffffffffffffffff1681526020019081526020015f2082815481106113a3576113a261285b565b5b905f5260205f2090600402016002016040516113bf9190613157565b604051809103902003611448578560035f3373ffffffffffffffffffffffffffffffffffffffff1673ffffffffffffffffffffffffffffffffffffffff1681526020019081526020015f20828154811061141c5761141b61285b565b5b905f5260205f2090600402015f015f82825461143891906128f6565b925050819055506001915061145b565b80806114539061295c565b915050611299565b508061166b575f604051806080016040528087815260200160035f8a73ffffffffffffffffffffffffffffffffffffffff1673ffffffffffffffffffffffffffffffffffffffff1681526020019081526020015f2087815481106114c2576114c161285b565b5b905f5260205f20906004020160010154815260200160035f8a73ffffffffffffffffffffffffffffffffffffffff1673ffffffffffffffffffffffffffffffffffffffff1681526020019081526020015f2087815481106115265761152561285b565b5b905f5260205f20906004020160020180546115409061282b565b80601f016020809104026020016040519081016040528092919081815260200182805461156c9061282b565b80156115b75780601f1061158e576101008083540402835291602001916115b7565b820191905f5260205f20905b81548152906001019060200180831161159a57829003601f168201915b505050505081526020016115cc6103e8610bc5565b815250905060035f3373ffffffffffffffffffffffffffffffffffffffff1673ffffffffffffffffffffffffffffffffffffffff1681526020019081526020015f2081908060018154018082558091505060019003905f5260205f2090600402015f909190919091505f820151815f015560208201518160010155604082015181600201908161165c9190612dd6565b50606082015181600301555050505b8460035f8873ffffffffffffffffffffffffffffffffffffffff1673ffffffffffffffffffffffffffffffffffffffff1681526020019081526020015f2085815481106116bb576116ba61285b565b5b905f5260205f2090600402015f015f8282546116d79190612929565b925050819055508160025f8873ffffffffffffffffffffffffffffffffffffffff1673ffffffffffffffffffffffffffffffffffffffff1681526020019081526020015f20600101819055508134111561177b573373ffffffffffffffffffffffffffffffffffffffff166108fc83346117519190612929565b90811502906040515f60405180830381858888f19350505050158015611779573d5f803e3d5ffd5b505b505050505050565b8073ffffffffffffffffffffffffffffffffffffffff163373ffffffffffffffffffffffffffffffffffffffff16036117ba575f80fd5b806004836040516117cb919061303d565b90815260200160405180910390205f6101000a81548173ffffffffffffffffffffffffffffffffffffffff021916908373ffffffffffffffffffffffffffffffffffffffff1602179055505050565b6002602052805f5260405f205f91509050805f015f9054906101000a900460ff16908060010154905082565b60405180604001604052805f6002811115611864576118636122ee565b5b81526020015f81525060025f3373ffffffffffffffffffffffffffffffffffffffff1673ffffffffffffffffffffffffffffffffffffffff1681526020019081526020015f205f820151815f015f6101000a81548160ff021916908360028111156118d2576118d16122ee565b5b021790555060208201518160010155905050565b6004818051602081018201805184825260208301602085012081835280955050505050505f915054906101000a900473ffffffffffffffffffffffffffffffffffffffff1681565b8073ffffffffffffffffffffffffffffffffffffffff166108fc60025f8473ffffffffffffffffffffffffffffffffffffffff1673ffffffffffffffffffffffffffffffffffffffff1681526020019081526020015f206001015490811502906040515f60405180830381858888f193505050501580156119b1573d5f803e3d5ffd5b5050565b6001848160028111156119cb576119ca6122ee565b5b60025f3373ffffffffffffffffffffffffffffffffffffffff1673ffffffffffffffffffffffffffffffffffffffff1681526020019081526020015f205f015f9054906101000a900460ff166002811115611a2957611a286122ee565b5b14611a69576040517f08c379a0000000000000000000000000000000000000000000000000000000008152600401611a6090612b37565b60405180910390fd5b8073ffffffffffffffffffffffffffffffffffffffff163373ffffffffffffffffffffffffffffffffffffffff1614611ad7576040517f08c379a0000000000000000000000000000000000000000000000000000000008152600401611ace90612beb565b60405180910390fd5b5f8411611b19576040517f08c379a0000000000000000000000000000000000000000000000000000000008152600401611b1090612f15565b60405180910390fd5b60035f8473ffffffffffffffffffffffffffffffffffffffff1673ffffffffffffffffffffffffffffffffffffffff1681526020019081526020015f20805490508510611b9b576040517f08c379a0000000000000000000000000000000000000000000000000000000008152600401611b9290612f7d565b60405180910390fd5b5f60035f8573ffffffffffffffffffffffffffffffffffffffff1673ffffffffffffffffffffffffffffffffffffffff1681526020019081526020015f208681548110611beb57611bea61285b565b5b905f5260205f2090600402016001015490505f670de0b6b3a76400008683611c1391906128b5565b611c1d91906128b5565b905080341015611c62576040517f08c379a0000000000000000000000000000000000000000000000000000000008152600401611c599061309d565b60405180910390fd5b5f60035f8773ffffffffffffffffffffffffffffffffffffffff1673ffffffffffffffffffffffffffffffffffffffff1681526020019081526020015f208881548110611cb257611cb161285b565b5b905f5260205f2090600402016002018054611ccc9061282b565b80601f0160208091040260200160405190810160405280929190818152602001828054611cf89061282b565b8015611d435780601f10611d1a57610100808354040283529160200191611d43565b820191905f5260205f20905b815481529060010190602001808311611d2657829003601f168201915b505050505090505f805b60035f8c73ffffffffffffffffffffffffffffffffffffffff1673ffffffffffffffffffffffffffffffffffffffff1681526020019081526020015f2080549050811015611ea45760035f8c73ffffffffffffffffffffffffffffffffffffffff1673ffffffffffffffffffffffffffffffffffffffff1681526020019081526020015f208181548110611de457611de361285b565b5b905f5260205f209060040201600201604051611e009190613157565b6040518091039020838051906020012003611e91578860035f8d73ffffffffffffffffffffffffffffffffffffffff1673ffffffffffffffffffffffffffffffffffffffff1681526020019081526020015f208281548110611e6557611e6461285b565b5b905f5260205f2090600402015f015f828254611e8191906128f6565b9250508190555060019150611ea4565b8080611e9c9061295c565b915050611d4d565b5080611fc6575f60405180608001604052808a815260200186815260200184815260200160035f8b73ffffffffffffffffffffffffffffffffffffffff1673ffffffffffffffffffffffffffffffffffffffff1681526020019081526020015f208c81548110611f1757611f1661285b565b5b905f5260205f20906004020160030154815250905060035f8c73ffffffffffffffffffffffffffffffffffffffff1673ffffffffffffffffffffffffffffffffffffffff1681526020019081526020015f2081908060018154018082558091505060019003905f5260205f2090600402015f909190919091505f820151815f0155602082015181600101556040820151816002019081611fb79190612dd6565b50606082015181600301555050505b8760035f8973ffffffffffffffffffffffffffffffffffffffff1673ffffffffffffffffffffffffffffffffffffffff1681526020019081526020015f208a815481106120165761201561285b565b5b905f5260205f2090600402015f015f8282546120329190612929565b9250508190555082341115612091573373ffffffffffffffffffffffffffffffffffffffff166108fc84346120679190612929565b90811502906040515f60405180830381858888f1935050505015801561208f573d5f803e3d5ffd5b505b50505050505050505050565b5080546120a99061282b565b5f825580601f106120ba57506120d7565b601f0160209004905f5260205f20908101906120d691906120da565b5b50565b5b808211156120f1575f815f9055506001016120db565b5090565b5f604051905090565b5f80fd5b5f80fd5b5f73ffffffffffffffffffffffffffffffffffffffff82169050919050565b5f61212f82612106565b9050919050565b61213f81612125565b8114612149575f80fd5b50565b5f8135905061215a81612136565b92915050565b5f819050919050565b61217281612160565b811461217c575f80fd5b50565b5f8135905061218d81612169565b92915050565b5f80604083850312156121a9576121a86120fe565b5b5f6121b68582860161214c565b92505060206121c78582860161217f565b9150509250929050565b6121da81612160565b82525050565b5f81519050919050565b5f82825260208201905092915050565b5f5b838110156122175780820151818401526020810190506121fc565b5f8484015250505050565b5f601f19601f8301169050919050565b5f61223c826121e0565b61224681856121ea565b93506122568185602086016121fa565b61225f81612222565b840191505092915050565b5f60808201905061227d5f8301876121d1565b61228a60208301866121d1565b818103604083015261229c8185612232565b90506122ab60608301846121d1565b95945050505050565b5f602082840312156122c9576122c86120fe565b5b5f6122d68482850161217f565b91505092915050565b6122e881612125565b82525050565b7f4e487b71000000000000000000000000000000000000000000000000000000005f52602160045260245ffd5b6003811061232c5761232b6122ee565b5b50565b5f81905061233c8261231b565b919050565b5f61234b8261232f565b9050919050565b61235b81612341565b82525050565b5f6040820190506123745f8301856122df565b6123816020830184612352565b9392505050565b60038110612394575f80fd5b50565b5f813590506123a581612388565b92915050565b5f602082840312156123c0576123bf6120fe565b5b5f6123cd84828501612397565b91505092915050565b5f6020820190506123e95f8301846121d1565b92915050565b5f80fd5b5f80fd5b5f80fd5b5f8083601f8401126124105761240f6123ef565b5b8235905067ffffffffffffffff81111561242d5761242c6123f3565b5b602083019150836001820283011115612449576124486123f7565b5b9250929050565b5f805f805f8060a0878903121561246a576124696120fe565b5b5f61247789828a0161217f565b965050602061248889828a0161217f565b955050604087013567ffffffffffffffff8111156124a9576124a8612102565b5b6124b589828a016123fb565b945094505060606124c889828a0161217f565b92505060806124d989828a0161214c565b9150509295509295509295565b5f6020820190506124f95f8301846122df565b92915050565b5f80fd5b7f4e487b71000000000000000000000000000000000000000000000000000000005f52604160045260245ffd5b61253982612222565b810181811067ffffffffffffffff8211171561255857612557612503565b5b80604052505050565b5f61256a6120f5565b90506125768282612530565b919050565b5f67ffffffffffffffff82111561259557612594612503565b5b61259e82612222565b9050602081019050919050565b828183375f83830152505050565b5f6125cb6125c68461257b565b612561565b9050828152602081018484840111156125e7576125e66124ff565b5b6125f28482856125ab565b509392505050565b5f82601f83011261260e5761260d6123ef565b5b813561261e8482602086016125b9565b91505092915050565b5f805f806080858703121561263f5761263e6120fe565b5b5f61264c8782880161214c565b945050602061265d8782880161217f565b935050604061266e8782880161217f565b925050606085013567ffffffffffffffff81111561268f5761268e612102565b5b61269b878288016125fa565b91505092959194509250565b5f80604083850312156126bd576126bc6120fe565b5b5f83013567ffffffffffffffff8111156126da576126d9612102565b5b6126e6858286016125fa565b92505060206126f78582860161214c565b9150509250929050565b5f60208284031215612716576127156120fe565b5b5f6127238482850161214c565b91505092915050565b5f60408201905061273f5f830185612352565b61274c60208301846121d1565b9392505050565b5f60208284031215612768576127676120fe565b5b5f82013567ffffffffffffffff81111561278557612784612102565b5b612791848285016125fa565b91505092915050565b5f805f80608085870312156127b2576127b16120fe565b5b5f6127bf8782880161214c565b94505060206127d08782880161217f565b93505060406127e18782880161217f565b92505060606127f28782880161214c565b91505092959194509250565b7f4e487b71000000000000000000000000000000000000000000000000000000005f52602260045260245ffd5b5f600282049050600182168061284257607f821691505b602082108103612855576128546127fe565b5b50919050565b7f4e487b71000000000000000000000000000000000000000000000000000000005f52603260045260245ffd5b7f4e487b71000000000000000000000000000000000000000000000000000000005f52601160045260245ffd5b5f6128bf82612160565b91506128ca83612160565b92508282026128d881612160565b915082820484148315176128ef576128ee612888565b5b5092915050565b5f61290082612160565b915061290b83612160565b925082820190508082111561292357612922612888565b5b92915050565b5f61293382612160565b915061293e83612160565b925082820390508181111561295657612955612888565b5b92915050565b5f61296682612160565b91507fffffffffffffffffffffffffffffffffffffffffffffffffffffffffffffffff820361299857612997612888565b5b600182019050919050565b5f819050919050565b6129bd6129b882612160565b6129a3565b82525050565b5f8160601b9050919050565b5f6129d9826129c3565b9050919050565b5f6129ea826129cf565b9050919050565b612a026129fd82612125565b6129e0565b82525050565b5f612a1382866129ac565b602082019150612a2382856129f1565b601482019150612a3382846129ac565b602082019150819050949350505050565b7f4e487b71000000000000000000000000000000000000000000000000000000005f52601260045260245ffd5b5f612a7b82612160565b9150612a8683612160565b925082612a9657612a95612a44565b5b828206905092915050565b7fd092d0b0d188d0b020d180d0bed0bbd18c20d0bdd0b520d0bfd0bed0b7d0b2d05f8201527fbed0bbd18fd0b5d18220d18dd182d0be20d0b8d0b7d0bcd0b5d0bdd18fd182d160208201527f8c00000000000000000000000000000000000000000000000000000000000000604082015250565b5f612b216041836121ea565b9150612b2c82612aa1565b606082019050919050565b5f6020820190508181035f830152612b4e81612b15565b9050919050565b7fd09cd0b0d0b3d0b0d0b7d0b8d0bd20d0bdd0b520d181d0bed0bed182d0b2d0b55f8201527fd182d181d0b2d183d0b5d18220d0bed182d0bfd180d0b0d0b2d0b8d182d0b5d060208201527fbbd18e0000000000000000000000000000000000000000000000000000000000604082015250565b5f612bd56043836121ea565b9150612be082612b55565b606082019050919050565b5f6020820190508181035f830152612c0281612bc9565b9050919050565b5f612c1382612160565b9150612c1e83612160565b925082612c2e57612c2d612a44565b5b828204905092915050565b5f819050815f5260205f209050919050565b5f6020601f8301049050919050565b5f82821b905092915050565b5f60088302612c957fffffffffffffffffffffffffffffffffffffffffffffffffffffffffffffffff82612c5a565b612c9f8683612c5a565b95508019841693508086168417925050509392505050565b5f819050919050565b5f612cda612cd5612cd084612160565b612cb7565b612160565b9050919050565b5f819050919050565b612cf383612cc0565b612d07612cff82612ce1565b848454612c66565b825550505050565b5f90565b612d1b612d0f565b612d26818484612cea565b505050565b5b81811015612d4957612d3e5f82612d13565b600181019050612d2c565b5050565b601f821115612d8e57612d5f81612c39565b612d6884612c4b565b81016020851015612d77578190505b612d8b612d8385612c4b565b830182612d2b565b50505b505050565b5f82821c905092915050565b5f612dae5f1984600802612d93565b1980831691505092915050565b5f612dc68383612d9f565b9150826002028217905092915050565b612ddf826121e0565b67ffffffffffffffff811115612df857612df7612503565b5b612e02825461282b565b612e0d828285612d4d565b5f60209050601f831160018114612e3e575f8415612e2c578287015190505b612e368582612dbb565b865550612e9d565b601f198416612e4c86612c39565b5f5b82811015612e7357848901518255600182019150602085019450602081019050612e4e565b86831015612e905784890151612e8c601f891682612d9f565b8355505b6001600288020188555050505b505050505050565b7f507572636861736520616d6f756e74206d7573742062652067726561746572205f8201527f7468616e20300000000000000000000000000000000000000000000000000000602082015250565b5f612eff6026836121ea565b9150612f0a82612ea5565b604082019050919050565b5f6020820190508181035f830152612f2c81612ef3565b9050919050565b7f496e76616c69642070726f6475637420494400000000000000000000000000005f82015250565b5f612f676012836121ea565b9150612f7282612f33565b602082019050919050565b5f6020820190508181035f830152612f9481612f5b565b9050919050565b7f4e6f7420656e6f7567682073746f636b20617661696c61626c650000000000005f82015250565b5f612fcf601a836121ea565b9150612fda82612f9b565b602082019050919050565b5f6020820190508181035f830152612ffc81612fc3565b9050919050565b5f81905092915050565b5f613017826121e0565b6130218185613003565b93506130318185602086016121fa565b80840191505092915050565b5f613048828461300d565b915081905092915050565b7f496e73756666696369656e742066756e64732073656e740000000000000000005f82015250565b5f6130876017836121ea565b915061309282613053565b602082019050919050565b5f6020820190508181035f8301526130b48161307b565b9050919050565b5f81905092915050565b5f819050815f5260205f209050919050565b5f81546130e38161282b565b6130ed81866130bb565b9450600182165f8114613107576001811461311c5761314e565b60ff198316865281151582028601935061314e565b613125856130c5565b5f5b8381101561314657815481890152600182019150602081019050613127565b838801955050505b50505092915050565b5f61316282846130d7565b91508190509291505056fea26469706673582212202a9cb490a23d8514314fa2d2ff1994460e0190ca2464f26445d970ee19f3330364736f6c63430008150033",
					"opcodes": "PUSH1 0x80 PUSH1 0x40 MSTORE CALLVALUE DUP1 ISZERO PUSH2 0xF JUMPI PUSH0 DUP1 REVERT JUMPDEST POP CALLER PUSH1 0x1 PUSH0 PUSH2 0x100 EXP DUP2 SLOAD DUP2 PUSH20 0xFFFFFFFFFFFFFFFFFFFFFFFFFFFFFFFFFFFFFFFF MUL NOT AND SWAP1 DUP4 PUSH20 0xFFFFFFFFFFFFFFFFFFFFFFFFFFFFFFFFFFFFFFFF AND MUL OR SWAP1 SSTORE POP PUSH2 0x31A3 DUP1 PUSH2 0x5D PUSH0 CODECOPY PUSH0 RETURN INVALID PUSH1 0x80 PUSH1 0x40 MSTORE PUSH1 0x4 CALLDATASIZE LT PUSH2 0xFD JUMPI PUSH0 CALLDATALOAD PUSH1 0xE0 SHR DUP1 PUSH4 0x861C2B6D GT PUSH2 0x94 JUMPI DUP1 PUSH4 0xA87430BA GT PUSH2 0x63 JUMPI DUP1 PUSH4 0xA87430BA EQ PUSH2 0x2F3 JUMPI DUP1 PUSH4 0xD18A524A EQ PUSH2 0x330 JUMPI DUP1 PUSH4 0xD55768DD EQ PUSH2 0x346 JUMPI DUP1 PUSH4 0xF67A2AD1 EQ PUSH2 0x382 JUMPI DUP1 PUSH4 0xFECD8F79 EQ PUSH2 0x3AA JUMPI PUSH2 0xFD JUMP JUMPDEST DUP1 PUSH4 0x861C2B6D EQ PUSH2 0x25D JUMPI DUP1 PUSH4 0x8DA5CB5B EQ PUSH2 0x285 JUMPI DUP1 PUSH4 0x9F1CD587 EQ PUSH2 0x2AF JUMPI DUP1 PUSH4 0xA1BA90B6 EQ PUSH2 0x2CB JUMPI PUSH2 0xFD JUMP JUMPDEST DUP1 PUSH4 0x55DEA0B3 GT PUSH2 0xD0 JUMPI DUP1 PUSH4 0x55DEA0B3 EQ PUSH2 0x1BB JUMPI DUP1 PUSH4 0x66D0DC67 EQ PUSH2 0x1E3 JUMPI DUP1 PUSH4 0x6F764708 EQ PUSH2 0x1F9 JUMPI DUP1 PUSH4 0x805553E8 EQ PUSH2 0x221 JUMPI PUSH2 0xFD JUMP JUMPDEST DUP1 PUSH4 0x3D527883 EQ PUSH2 0x101 JUMPI DUP1 PUSH4 0x3DFE7DEE EQ PUSH2 0x140 JUMPI DUP1 PUSH4 0x410085DF EQ PUSH2 0x156 JUMPI DUP1 PUSH4 0x50B44712 EQ PUSH2 0x17E JUMPI JUMPDEST PUSH0 DUP1 REVERT JUMPDEST CALLVALUE DUP1 ISZERO PUSH2 0x10C JUMPI PUSH0 DUP1 REVERT JUMPDEST POP PUSH2 0x127 PUSH1 0x4 DUP1 CALLDATASIZE SUB DUP2 ADD SWAP1 PUSH2 0x122 SWAP2 SWAP1 PUSH2 0x2193 JUMP JUMPDEST PUSH2 0x3C6 JUMP JUMPDEST PUSH1 0x40 MLOAD PUSH2 0x137 SWAP5 SWAP4 SWAP3 SWAP2 SWAP1 PUSH2 0x226A JUMP JUMPDEST PUSH1 0x40 MLOAD DUP1 SWAP2 SUB SWAP1 RETURN JUMPDEST CALLVALUE DUP1 ISZERO PUSH2 0x14B JUMPI PUSH0 DUP1 REVERT JUMPDEST POP PUSH2 0x154 PUSH2 0x492 JUMP JUMPDEST STOP JUMPDEST CALLVALUE DUP1 ISZERO PUSH2 0x161 JUMPI PUSH0 DUP1 REVERT JUMPDEST POP PUSH2 0x17C PUSH1 0x4 DUP1 CALLDATASIZE SUB DUP2 ADD SWAP1 PUSH2 0x177 SWAP2 SWAP1 PUSH2 0x2193 JUMP JUMPDEST PUSH2 0x532 JUMP JUMPDEST STOP JUMPDEST CALLVALUE DUP1 ISZERO PUSH2 0x189 JUMPI PUSH0 DUP1 REVERT JUMPDEST POP PUSH2 0x1A4 PUSH1 0x4 DUP1 CALLDATASIZE SUB DUP2 ADD SWAP1 PUSH2 0x19F SWAP2 SWAP1 PUSH2 0x22B4 JUMP JUMPDEST PUSH2 0x8C6 JUMP JUMPDEST PUSH1 0x40 MLOAD PUSH2 0x1B2 SWAP3 SWAP2 SWAP1 PUSH2 0x2361 JUMP JUMPDEST PUSH1 0x40 MLOAD DUP1 SWAP2 SUB SWAP1 RETURN JUMPDEST CALLVALUE DUP1 ISZERO PUSH2 0x1C6 JUMPI PUSH0 DUP1 REVERT JUMPDEST POP PUSH2 0x1E1 PUSH1 0x4 DUP1 CALLDATASIZE SUB DUP2 ADD SWAP1 PUSH2 0x1DC SWAP2 SWAP1 PUSH2 0x23AB JUMP JUMPDEST PUSH2 0x91B JUMP JUMPDEST STOP JUMPDEST CALLVALUE DUP1 ISZERO PUSH2 0x1EE JUMPI PUSH0 DUP1 REVERT JUMPDEST POP PUSH2 0x1F7 PUSH2 0x9F3 JUMP JUMPDEST STOP JUMPDEST CALLVALUE DUP1 ISZERO PUSH2 0x204 JUMPI PUSH0 DUP1 REVERT JUMPDEST POP PUSH2 0x21F PUSH1 0x4 DUP1 CALLDATASIZE SUB DUP2 ADD SWAP1 PUSH2 0x21A SWAP2 SWAP1 PUSH2 0x22B4 JUMP JUMPDEST PUSH2 0xA94 JUMP JUMPDEST STOP JUMPDEST CALLVALUE DUP1 ISZERO PUSH2 0x22C JUMPI PUSH0 DUP1 REVERT JUMPDEST POP PUSH2 0x247 PUSH1 0x4 DUP1 CALLDATASIZE SUB DUP2 ADD SWAP1 PUSH2 0x242 SWAP2 SWAP1 PUSH2 0x22B4 JUMP JUMPDEST PUSH2 0xBC5 JUMP JUMPDEST PUSH1 0x40 MLOAD PUSH2 0x254 SWAP2 SWAP1 PUSH2 0x23D6 JUMP JUMPDEST PUSH1 0x40 MLOAD DUP1 SWAP2 SUB SWAP1 RETURN JUMPDEST CALLVALUE DUP1 ISZERO PUSH2 0x268 JUMPI PUSH0 DUP1 REVERT JUMPDEST POP PUSH2 0x283 PUSH1 0x4 DUP1 CALLDATASIZE SUB DUP2 ADD SWAP1 PUSH2 0x27E SWAP2 SWAP1 PUSH2 0x2450 JUMP JUMPDEST PUSH2 0xC15 JUMP JUMPDEST STOP JUMPDEST CALLVALUE DUP1 ISZERO PUSH2 0x290 JUMPI PUSH0 DUP1 REVERT JUMPDEST POP PUSH2 0x299 PUSH2 0xE4D JUMP JUMPDEST PUSH1 0x40 MLOAD PUSH2 0x2A6 SWAP2 SWAP1 PUSH2 0x24E6 JUMP JUMPDEST PUSH1 0x40 MLOAD DUP1 SWAP2 SUB SWAP1 RETURN JUMPDEST PUSH2 0x2C9 PUSH1 0x4 DUP1 CALLDATASIZE SUB DUP2 ADD SWAP1 PUSH2 0x2C4 SWAP2 SWAP1 PUSH2 0x2627 JUMP JUMPDEST PUSH2 0xE72 JUMP JUMPDEST STOP JUMPDEST CALLVALUE DUP1 ISZERO PUSH2 0x2D6 JUMPI PUSH0 DUP1 REVERT JUMPDEST POP PUSH2 0x2F1 PUSH1 0x4 DUP1 CALLDATASIZE SUB DUP2 ADD SWAP1 PUSH2 0x2EC SWAP2 SWAP1 PUSH2 0x26A7 JUMP JUMPDEST PUSH2 0x1783 JUMP JUMPDEST STOP JUMPDEST CALLVALUE DUP1 ISZERO PUSH2 0x2FE JUMPI PUSH0 DUP1 REVERT JUMPDEST POP PUSH2 0x319 PUSH1 0x4 DUP1 CALLDATASIZE SUB DUP2 ADD SWAP1 PUSH2 0x314 SWAP2 SWAP1 PUSH2 0x2701 JUMP JUMPDEST PUSH2 0x181A JUMP JUMPDEST PUSH1 0x40 MLOAD PUSH2 0x327 SWAP3 SWAP2 SWAP1 PUSH2 0x272C JUMP JUMPDEST PUSH1 0x40 MLOAD DUP1 SWAP2 SUB SWAP1 RETURN JUMPDEST CALLVALUE DUP1 ISZERO PUSH2 0x33B JUMPI PUSH0 DUP1 REVERT JUMPDEST POP PUSH2 0x344 PUSH2 0x1846 JUMP JUMPDEST STOP JUMPDEST CALLVALUE DUP1 ISZERO PUSH2 0x351 JUMPI PUSH0 DUP1 REVERT JUMPDEST POP PUSH2 0x36C PUSH1 0x4 DUP1 CALLDATASIZE SUB DUP2 ADD SWAP1 PUSH2 0x367 SWAP2 SWAP1 PUSH2 0x2753 JUMP JUMPDEST PUSH2 0x18E6 JUMP JUMPDEST PUSH1 0x40 MLOAD PUSH2 0x379 SWAP2 SWAP1 PUSH2 0x24E6 JUMP JUMPDEST PUSH1 0x40 MLOAD DUP1 SWAP2 SUB SWAP1 RETURN JUMPDEST CALLVALUE DUP1 ISZERO PUSH2 0x38D JUMPI PUSH0 DUP1 REVERT JUMPDEST POP PUSH2 0x3A8 PUSH1 0x4 DUP1 CALLDATASIZE SUB DUP2 ADD SWAP1 PUSH2 0x3A3 SWAP2 SWAP1 PUSH2 0x2701 JUMP JUMPDEST PUSH2 0x192E JUMP JUMPDEST STOP JUMPDEST PUSH2 0x3C4 PUSH1 0x4 DUP1 CALLDATASIZE SUB DUP2 ADD SWAP1 PUSH2 0x3BF SWAP2 SWAP1 PUSH2 0x279A JUMP JUMPDEST PUSH2 0x19B5 JUMP JUMPDEST STOP JUMPDEST PUSH1 0x3 PUSH1 0x20 MSTORE DUP2 PUSH0 MSTORE PUSH1 0x40 PUSH0 KECCAK256 DUP2 DUP2 SLOAD DUP2 LT PUSH2 0x3DF JUMPI PUSH0 DUP1 REVERT JUMPDEST SWAP1 PUSH0 MSTORE PUSH1 0x20 PUSH0 KECCAK256 SWAP1 PUSH1 0x4 MUL ADD PUSH0 SWAP2 POP SWAP2 POP POP DUP1 PUSH0 ADD SLOAD SWAP1 DUP1 PUSH1 0x1 ADD SLOAD SWAP1 DUP1 PUSH1 0x2 ADD DUP1 SLOAD PUSH2 0x40B SWAP1 PUSH2 0x282B JUMP JUMPDEST DUP1 PUSH1 0x1F ADD PUSH1 0x20 DUP1 SWAP2 DIV MUL PUSH1 0x20 ADD PUSH1 0x40 MLOAD SWAP1 DUP2 ADD PUSH1 0x40 MSTORE DUP1 SWAP3 SWAP2 SWAP1 DUP2 DUP2 MSTORE PUSH1 0x20 ADD DUP3 DUP1 SLOAD PUSH2 0x437 SWAP1 PUSH2 0x282B JUMP JUMPDEST DUP1 ISZERO PUSH2 0x482 JUMPI DUP1 PUSH1 0x1F LT PUSH2 0x459 JUMPI PUSH2 0x100 DUP1 DUP4 SLOAD DIV MUL DUP4 MSTORE SWAP2 PUSH1 0x20 ADD SWAP2 PUSH2 0x482 JUMP JUMPDEST DUP3 ADD SWAP2 SWAP1 PUSH0 MSTORE PUSH1 0x20 PUSH0 KECCAK256 SWAP1 JUMPDEST DUP2 SLOAD DUP2 MSTORE SWAP1 PUSH1 0x1 ADD SWAP1 PUSH1 0x20 ADD DUP1 DUP4 GT PUSH2 0x465 JUMPI DUP3 SWAP1 SUB PUSH1 0x1F AND DUP3 ADD SWAP2 JUMPDEST POP POP POP POP POP SWAP1 DUP1 PUSH1 0x3 ADD SLOAD SWAP1 POP DUP5 JUMP JUMPDEST PUSH1 0x40 MLOAD DUP1 PUSH1 0x40 ADD PUSH1 0x40 MSTORE DUP1 PUSH1 0x2 DUP1 DUP2 GT ISZERO PUSH2 0x4B0 JUMPI PUSH2 0x4AF PUSH2 0x22EE JUMP JUMPDEST JUMPDEST DUP2 MSTORE PUSH1 0x20 ADD PUSH0 DUP2 MSTORE POP PUSH1 0x2 PUSH0 CALLER PUSH20 0xFFFFFFFFFFFFFFFFFFFFFFFFFFFFFFFFFFFFFFFF AND PUSH20 0xFFFFFFFFFFFFFFFFFFFFFFFFFFFFFFFFFFFFFFFF AND DUP2 MSTORE PUSH1 0x20 ADD SWAP1 DUP2 MSTORE PUSH1 0x20 ADD PUSH0 KECCAK256 PUSH0 DUP3 ADD MLOAD DUP2 PUSH0 ADD PUSH0 PUSH2 0x100 EXP DUP2 SLOAD DUP2 PUSH1 0xFF MUL NOT AND SWAP1 DUP4 PUSH1 0x2 DUP2 GT ISZERO PUSH2 0x51E JUMPI PUSH2 0x51D PUSH2 0x22EE JUMP JUMPDEST JUMPDEST MUL OR SWAP1 SSTORE POP PUSH1 0x20 DUP3 ADD MLOAD DUP2 PUSH1 0x1 ADD SSTORE SWAP1 POP POP JUMP JUMPDEST PUSH1 0x3 PUSH0 DUP4 PUSH20 0xFFFFFFFFFFFFFFFFFFFFFFFFFFFFFFFFFFFFFFFF AND PUSH20 0xFFFFFFFFFFFFFFFFFFFFFFFFFFFFFFFFFFFFFFFF AND DUP2 MSTORE PUSH1 0x20 ADD SWAP1 DUP2 MSTORE PUSH1 0x20 ADD PUSH0 KECCAK256 DUP2 DUP2 SLOAD DUP2 LT PUSH2 0x581 JUMPI PUSH2 0x580 PUSH2 0x285B JUMP JUMPDEST JUMPDEST SWAP1 PUSH0 MSTORE PUSH1 0x20 PUSH0 KECCAK256 SWAP1 PUSH1 0x4 MUL ADD PUSH1 0x3 ADD SLOAD PUSH1 0x3 PUSH0 CALLER PUSH20 0xFFFFFFFFFFFFFFFFFFFFFFFFFFFFFFFFFFFFFFFF AND PUSH20 0xFFFFFFFFFFFFFFFFFFFFFFFFFFFFFFFFFFFFFFFF AND DUP2 MSTORE PUSH1 0x20 ADD SWAP1 DUP2 MSTORE PUSH1 0x20 ADD PUSH0 KECCAK256 DUP3 DUP2 SLOAD DUP2 LT PUSH2 0x5E0 JUMPI PUSH2 0x5DF PUSH2 0x285B JUMP JUMPDEST JUMPDEST SWAP1 PUSH0 MSTORE PUSH1 0x20 PUSH0 KECCAK256 SWAP1 PUSH1 0x4 MUL ADD PUSH1 0x3 ADD SLOAD GT PUSH2 0x5F9 JUMPI PUSH0 DUP1 REVERT JUMPDEST PUSH0 PUSH8 0xDE0B6B3A7640000 PUSH1 0x3 PUSH0 DUP6 PUSH20 0xFFFFFFFFFFFFFFFFFFFFFFFFFFFFFFFFFFFFFFFF AND PUSH20 0xFFFFFFFFFFFFFFFFFFFFFFFFFFFFFFFFFFFFFFFF AND DUP2 MSTORE PUSH1 0x20 ADD SWAP1 DUP2 MSTORE PUSH1 0x20 ADD PUSH0 KECCAK256 DUP4 DUP2 SLOAD DUP2 LT PUSH2 0x652 JUMPI PUSH2 0x651 PUSH2 0x285B JUMP JUMPDEST JUMPDEST SWAP1 PUSH0 MSTORE PUSH1 0x20 PUSH0 KECCAK256 SWAP1 PUSH1 0x4 MUL ADD PUSH1 0x1 ADD SLOAD PUSH1 0x3 PUSH0 CALLER PUSH20 0xFFFFFFFFFFFFFFFFFFFFFFFFFFFFFFFFFFFFFFFF AND PUSH20 0xFFFFFFFFFFFFFFFFFFFFFFFFFFFFFFFFFFFFFFFF AND DUP2 MSTORE PUSH1 0x20 ADD SWAP1 DUP2 MSTORE PUSH1 0x20 ADD PUSH0 KECCAK256 DUP5 DUP2 SLOAD DUP2 LT PUSH2 0x6B1 JUMPI PUSH2 0x6B0 PUSH2 0x285B JUMP JUMPDEST JUMPDEST SWAP1 PUSH0 MSTORE PUSH1 0x20 PUSH0 KECCAK256 SWAP1 PUSH1 0x4 MUL ADD PUSH0 ADD SLOAD PUSH2 0x6CA SWAP2 SWAP1 PUSH2 0x28B5 JUMP JUMPDEST PUSH2 0x6D4 SWAP2 SWAP1 PUSH2 0x28B5 JUMP JUMPDEST SWAP1 POP PUSH1 0x3 PUSH0 CALLER PUSH20 0xFFFFFFFFFFFFFFFFFFFFFFFFFFFFFFFFFFFFFFFF AND PUSH20 0xFFFFFFFFFFFFFFFFFFFFFFFFFFFFFFFFFFFFFFFF AND DUP2 MSTORE PUSH1 0x20 ADD SWAP1 DUP2 MSTORE PUSH1 0x20 ADD PUSH0 KECCAK256 DUP3 DUP2 SLOAD DUP2 LT PUSH2 0x725 JUMPI PUSH2 0x724 PUSH2 0x285B JUMP JUMPDEST JUMPDEST SWAP1 PUSH0 MSTORE PUSH1 0x20 PUSH0 KECCAK256 SWAP1 PUSH1 0x4 MUL ADD PUSH0 ADD SLOAD PUSH1 0x3 PUSH0 DUP6 PUSH20 0xFFFFFFFFFFFFFFFFFFFFFFFFFFFFFFFFFFFFFFFF AND PUSH20 0xFFFFFFFFFFFFFFFFFFFFFFFFFFFFFFFFFFFFFFFF AND DUP2 MSTORE PUSH1 0x20 ADD SWAP1 DUP2 MSTORE PUSH1 0x20 ADD PUSH0 KECCAK256 DUP4 DUP2 SLOAD DUP2 LT PUSH2 0x783 JUMPI PUSH2 0x782 PUSH2 0x285B JUMP JUMPDEST JUMPDEST SWAP1 PUSH0 MSTORE PUSH1 0x20 PUSH0 KECCAK256 SWAP1 PUSH1 0x4 MUL ADD PUSH0 ADD PUSH0 DUP3 DUP3 SLOAD PUSH2 0x79F SWAP2 SWAP1 PUSH2 0x28F6 JUMP JUMPDEST SWAP3 POP POP DUP2 SWAP1 SSTORE POP PUSH1 0x3 PUSH0 CALLER PUSH20 0xFFFFFFFFFFFFFFFFFFFFFFFFFFFFFFFFFFFFFFFF AND PUSH20 0xFFFFFFFFFFFFFFFFFFFFFFFFFFFFFFFFFFFFFFFF AND DUP2 MSTORE PUSH1 0x20 ADD SWAP1 DUP2 MSTORE PUSH1 0x20 ADD PUSH0 KECCAK256 DUP3 DUP2 SLOAD DUP2 LT PUSH2 0x7F5 JUMPI PUSH2 0x7F4 PUSH2 0x285B JUMP JUMPDEST JUMPDEST SWAP1 PUSH0 MSTORE PUSH1 0x20 PUSH0 KECCAK256 SWAP1 PUSH1 0x4 MUL ADD PUSH0 DUP1 DUP3 ADD PUSH0 SWAP1 SSTORE PUSH1 0x1 DUP3 ADD PUSH0 SWAP1 SSTORE PUSH1 0x2 DUP3 ADD PUSH0 PUSH2 0x81E SWAP2 SWAP1 PUSH2 0x209D JUMP JUMPDEST PUSH1 0x3 DUP3 ADD PUSH0 SWAP1 SSTORE POP POP DUP1 PUSH1 0x2 PUSH0 DUP6 PUSH20 0xFFFFFFFFFFFFFFFFFFFFFFFFFFFFFFFFFFFFFFFF AND PUSH20 0xFFFFFFFFFFFFFFFFFFFFFFFFFFFFFFFFFFFFFFFF AND DUP2 MSTORE PUSH1 0x20 ADD SWAP1 DUP2 MSTORE PUSH1 0x20 ADD PUSH0 KECCAK256 PUSH1 0x1 ADD PUSH0 DUP3 DUP3 SLOAD PUSH2 0x876 SWAP2 SWAP1 PUSH2 0x2929 JUMP JUMPDEST SWAP3 POP POP DUP2 SWAP1 SSTORE POP CALLER PUSH20 0xFFFFFFFFFFFFFFFFFFFFFFFFFFFFFFFFFFFFFFFF AND PUSH2 0x8FC DUP3 SWAP1 DUP2 ISZERO MUL SWAP1 PUSH1 0x40 MLOAD PUSH0 PUSH1 0x40 MLOAD DUP1 DUP4 SUB DUP2 DUP6 DUP9 DUP9 CALL SWAP4 POP POP POP POP ISZERO DUP1 ISZERO PUSH2 0x8C0 JUMPI RETURNDATASIZE PUSH0 DUP1 RETURNDATACOPY RETURNDATASIZE PUSH0 REVERT JUMPDEST POP POP POP POP JUMP JUMPDEST PUSH0 DUP2 DUP2 SLOAD DUP2 LT PUSH2 0x8D4 JUMPI PUSH0 DUP1 REVERT JUMPDEST SWAP1 PUSH0 MSTORE PUSH1 0x20 PUSH0 KECCAK256 ADD PUSH0 SWAP2 POP SWAP1 POP DUP1 PUSH0 ADD PUSH0 SWAP1 SLOAD SWAP1 PUSH2 0x100 EXP SWAP1 DIV PUSH20 0xFFFFFFFFFFFFFFFFFFFFFFFFFFFFFFFFFFFFFFFF AND SWAP1 DUP1 PUSH0 ADD PUSH1 0x14 SWAP1 SLOAD SWAP1 PUSH2 0x100 EXP SWAP1 DIV PUSH1 0xFF AND SWAP1 POP DUP3 JUMP JUMPDEST PUSH0 PUSH1 0x40 MLOAD DUP1 PUSH1 0x40 ADD PUSH1 0x40 MSTORE DUP1 CALLER PUSH20 0xFFFFFFFFFFFFFFFFFFFFFFFFFFFFFFFFFFFFFFFF AND DUP2 MSTORE PUSH1 0x20 ADD DUP4 PUSH1 0x2 DUP2 GT ISZERO PUSH2 0x956 JUMPI PUSH2 0x955 PUSH2 0x22EE JUMP JUMPDEST JUMPDEST DUP2 MSTORE POP SWAP1 DUP1 PUSH1 0x1 DUP2 SLOAD ADD DUP1 DUP3 SSTORE DUP1 SWAP2 POP POP PUSH1 0x1 SWAP1 SUB SWAP1 PUSH0 MSTORE PUSH1 0x20 PUSH0 KECCAK256 ADD PUSH0 SWAP1 SWAP2 SWAP1 SWAP2 SWAP1 SWAP2 POP PUSH0 DUP3 ADD MLOAD DUP2 PUSH0 ADD PUSH0 PUSH2 0x100 EXP DUP2 SLOAD DUP2 PUSH20 0xFFFFFFFFFFFFFFFFFFFFFFFFFFFFFFFFFFFFFFFF MUL NOT AND SWAP1 DUP4 PUSH20 0xFFFFFFFFFFFFFFFFFFFFFFFFFFFFFFFFFFFFFFFF AND MUL OR SWAP1 SSTORE POP PUSH1 0x20 DUP3 ADD MLOAD DUP2 PUSH0 ADD PUSH1 0x14 PUSH2 0x100 EXP DUP2 SLOAD DUP2 PUSH1 0xFF MUL NOT AND SWAP1 DUP4 PUSH1 0x2 DUP2 GT ISZERO PUSH2 0x9E9 JUMPI PUSH2 0x9E8 PUSH2 0x22EE JUMP JUMPDEST JUMPDEST MUL OR SWAP1 SSTORE POP POP POP POP JUMP JUMPDEST PUSH1 0x40 MLOAD DUP1 PUSH1 0x40 ADD PUSH1 0x40 MSTORE DUP1 PUSH1 0x1 PUSH1 0x2 DUP2 GT ISZERO PUSH2 0xA12 JUMPI PUSH2 0xA11 PUSH2 0x22EE JUMP JUMPDEST JUMPDEST DUP2 MSTORE PUSH1 0x20 ADD PUSH0 DUP2 MSTORE POP PUSH1 0x2 PUSH0 CALLER PUSH20 0xFFFFFFFFFFFFFFFFFFFFFFFFFFFFFFFFFFFFFFFF AND PUSH20 0xFFFFFFFFFFFFFFFFFFFFFFFFFFFFFFFFFFFFFFFF AND DUP2 MSTORE PUSH1 0x20 ADD SWAP1 DUP2 MSTORE PUSH1 0x20 ADD PUSH0 KECCAK256 PUSH0 DUP3 ADD MLOAD DUP2 PUSH0 ADD PUSH0 PUSH2 0x100 EXP DUP2 SLOAD DUP2 PUSH1 0xFF MUL NOT AND SWAP1 DUP4 PUSH1 0x2 DUP2 GT ISZERO PUSH2 0xA80 JUMPI PUSH2 0xA7F PUSH2 0x22EE JUMP JUMPDEST JUMPDEST MUL OR SWAP1 SSTORE POP PUSH1 0x20 DUP3 ADD MLOAD DUP2 PUSH1 0x1 ADD SSTORE SWAP1 POP POP JUMP JUMPDEST PUSH1 0x1 PUSH0 SWAP1 SLOAD SWAP1 PUSH2 0x100 EXP SWAP1 DIV PUSH20 0xFFFFFFFFFFFFFFFFFFFFFFFFFFFFFFFFFFFFFFFF AND PUSH20 0xFFFFFFFFFFFFFFFFFFFFFFFFFFFFFFFFFFFFFFFF AND CALLER PUSH20 0xFFFFFFFFFFFFFFFFFFFFFFFFFFFFFFFFFFFFFFFF AND EQ PUSH2 0xAEC JUMPI PUSH0 DUP1 REVERT JUMPDEST PUSH0 DUP1 DUP3 DUP2 SLOAD DUP2 LT PUSH2 0xB00 JUMPI PUSH2 0xAFF PUSH2 0x285B JUMP JUMPDEST JUMPDEST SWAP1 PUSH0 MSTORE PUSH1 0x20 PUSH0 KECCAK256 ADD PUSH0 ADD PUSH0 SWAP1 SLOAD SWAP1 PUSH2 0x100 EXP SWAP1 DIV PUSH20 0xFFFFFFFFFFFFFFFFFFFFFFFFFFFFFFFFFFFFFFFF AND SWAP1 POP PUSH0 DUP1 DUP4 DUP2 SLOAD DUP2 LT PUSH2 0xB40 JUMPI PUSH2 0xB3F PUSH2 0x285B JUMP JUMPDEST JUMPDEST SWAP1 PUSH0 MSTORE PUSH1 0x20 PUSH0 KECCAK256 ADD PUSH0 ADD PUSH1 0x14 SWAP1 SLOAD SWAP1 PUSH2 0x100 EXP SWAP1 DIV PUSH1 0xFF AND SWAP1 POP DUP1 PUSH1 0x2 PUSH0 DUP5 PUSH20 0xFFFFFFFFFFFFFFFFFFFFFFFFFFFFFFFFFFFFFFFF AND PUSH20 0xFFFFFFFFFFFFFFFFFFFFFFFFFFFFFFFFFFFFFFFF AND DUP2 MSTORE PUSH1 0x20 ADD SWAP1 DUP2 MSTORE PUSH1 0x20 ADD PUSH0 KECCAK256 PUSH0 ADD PUSH0 PUSH2 0x100 EXP DUP2 SLOAD DUP2 PUSH1 0xFF MUL NOT AND SWAP1 DUP4 PUSH1 0x2 DUP2 GT ISZERO PUSH2 0xBBB JUMPI PUSH2 0xBBA PUSH2 0x22EE JUMP JUMPDEST JUMPDEST MUL OR SWAP1 SSTORE POP POP POP POP JUMP JUMPDEST PUSH0 DUP1 DUP1 DUP1 PUSH2 0xBD2 SWAP1 PUSH2 0x295C JUMP JUMPDEST SWAP2 POP POP DUP3 TIMESTAMP CALLER DUP4 PUSH1 0x40 MLOAD PUSH1 0x20 ADD PUSH2 0xBEB SWAP4 SWAP3 SWAP2 SWAP1 PUSH2 0x2A08 JUMP JUMPDEST PUSH1 0x40 MLOAD PUSH1 0x20 DUP2 DUP4 SUB SUB DUP2 MSTORE SWAP1 PUSH1 0x40 MSTORE DUP1 MLOAD SWAP1 PUSH1 0x20 ADD KECCAK256 PUSH0 SHR PUSH2 0xC0D SWAP2 SWAP1 PUSH2 0x2A71 JUMP JUMPDEST SWAP2 POP POP SWAP2 SWAP1 POP JUMP JUMPDEST PUSH1 0x2 DUP2 DUP2 PUSH1 0x2 DUP2 GT ISZERO PUSH2 0xC2B JUMPI PUSH2 0xC2A PUSH2 0x22EE JUMP JUMPDEST JUMPDEST PUSH1 0x2 PUSH0 CALLER PUSH20 0xFFFFFFFFFFFFFFFFFFFFFFFFFFFFFFFFFFFFFFFF AND PUSH20 0xFFFFFFFFFFFFFFFFFFFFFFFFFFFFFFFFFFFFFFFF AND DUP2 MSTORE PUSH1 0x20 ADD SWAP1 DUP2 MSTORE PUSH1 0x20 ADD PUSH0 KECCAK256 PUSH0 ADD PUSH0 SWAP1 SLOAD SWAP1 PUSH2 0x100 EXP SWAP1 DIV PUSH1 0xFF AND PUSH1 0x2 DUP2 GT ISZERO PUSH2 0xC89 JUMPI PUSH2 0xC88 PUSH2 0x22EE JUMP JUMPDEST JUMPDEST EQ PUSH2 0xCC9 JUMPI PUSH1 0x40 MLOAD PUSH32 0x8C379A000000000000000000000000000000000000000000000000000000000 DUP2 MSTORE PUSH1 0x4 ADD PUSH2 0xCC0 SWAP1 PUSH2 0x2B37 JUMP JUMPDEST PUSH1 0x40 MLOAD DUP1 SWAP2 SUB SWAP1 REVERT JUMPDEST DUP1 PUSH20 0xFFFFFFFFFFFFFFFFFFFFFFFFFFFFFFFFFFFFFFFF AND CALLER PUSH20 0xFFFFFFFFFFFFFFFFFFFFFFFFFFFFFFFFFFFFFFFF AND EQ PUSH2 0xD37 JUMPI PUSH1 0x40 MLOAD PUSH32 0x8C379A000000000000000000000000000000000000000000000000000000000 DUP2 MSTORE PUSH1 0x4 ADD PUSH2 0xD2E SWAP1 PUSH2 0x2BEB JUMP JUMPDEST PUSH1 0x40 MLOAD DUP1 SWAP2 SUB SWAP1 REVERT JUMPDEST PUSH0 PUSH1 0x40 MLOAD DUP1 PUSH1 0x80 ADD PUSH1 0x40 MSTORE DUP1 DUP11 DUP2 MSTORE PUSH1 0x20 ADD PUSH1 0x2 DUP11 PUSH2 0xD56 SWAP2 SWAP1 PUSH2 0x2C09 JUMP JUMPDEST DUP2 MSTORE PUSH1 0x20 ADD DUP9 DUP9 DUP1 DUP1 PUSH1 0x1F ADD PUSH1 0x20 DUP1 SWAP2 DIV MUL PUSH1 0x20 ADD PUSH1 0x40 MLOAD SWAP1 DUP2 ADD PUSH1 0x40 MSTORE DUP1 SWAP4 SWAP3 SWAP2 SWAP1 DUP2 DUP2 MSTORE PUSH1 0x20 ADD DUP4 DUP4 DUP1 DUP3 DUP5 CALLDATACOPY PUSH0 DUP2 DUP5 ADD MSTORE PUSH1 0x1F NOT PUSH1 0x1F DUP3 ADD AND SWAP1 POP DUP1 DUP4 ADD SWAP3 POP POP POP POP POP POP POP DUP2 MSTORE PUSH1 0x20 ADD DUP7 DUP2 MSTORE POP SWAP1 POP PUSH1 0x3 PUSH0 DUP6 PUSH20 0xFFFFFFFFFFFFFFFFFFFFFFFFFFFFFFFFFFFFFFFF AND PUSH20 0xFFFFFFFFFFFFFFFFFFFFFFFFFFFFFFFFFFFFFFFF AND DUP2 MSTORE PUSH1 0x20 ADD SWAP1 DUP2 MSTORE PUSH1 0x20 ADD PUSH0 KECCAK256 DUP2 SWAP1 DUP1 PUSH1 0x1 DUP2 SLOAD ADD DUP1 DUP3 SSTORE DUP1 SWAP2 POP POP PUSH1 0x1 SWAP1 SUB SWAP1 PUSH0 MSTORE PUSH1 0x20 PUSH0 KECCAK256 SWAP1 PUSH1 0x4 MUL ADD PUSH0 SWAP1 SWAP2 SWAP1 SWAP2 SWAP1 SWAP2 POP PUSH0 DUP3 ADD MLOAD DUP2 PUSH0 ADD SSTORE PUSH1 0x20 DUP3 ADD MLOAD DUP2 PUSH1 0x1 ADD SSTORE PUSH1 0x40 DUP3 ADD MLOAD DUP2 PUSH1 0x2 ADD SWAP1 DUP2 PUSH2 0xE35 SWAP2 SWAP1 PUSH2 0x2DD6 JUMP JUMPDEST POP PUSH1 0x60 DUP3 ADD MLOAD DUP2 PUSH1 0x3 ADD SSTORE POP POP POP POP POP POP POP POP POP POP POP JUMP JUMPDEST PUSH1 0x1 PUSH0 SWAP1 SLOAD SWAP1 PUSH2 0x100 EXP SWAP1 DIV PUSH20 0xFFFFFFFFFFFFFFFFFFFFFFFFFFFFFFFFFFFFFFFF AND DUP2 JUMP JUMPDEST PUSH0 PUSH1 0x2 DUP2 GT ISZERO PUSH2 0xE85 JUMPI PUSH2 0xE84 PUSH2 0x22EE JUMP JUMPDEST JUMPDEST PUSH1 0x2 PUSH0 CALLER PUSH20 0xFFFFFFFFFFFFFFFFFFFFFFFFFFFFFFFFFFFFFFFF AND PUSH20 0xFFFFFFFFFFFFFFFFFFFFFFFFFFFFFFFFFFFFFFFF AND DUP2 MSTORE PUSH1 0x20 ADD SWAP1 DUP2 MSTORE PUSH1 0x20 ADD PUSH0 KECCAK256 PUSH0 ADD PUSH0 SWAP1 SLOAD SWAP1 PUSH2 0x100 EXP SWAP1 DIV PUSH1 0xFF AND PUSH1 0x2 DUP2 GT ISZERO PUSH2 0xEE3 JUMPI PUSH2 0xEE2 PUSH2 0x22EE JUMP JUMPDEST JUMPDEST SUB PUSH2 0xF87 JUMPI PUSH1 0x40 MLOAD DUP1 PUSH1 0x40 ADD PUSH1 0x40 MSTORE DUP1 PUSH0 PUSH1 0x2 DUP2 GT ISZERO PUSH2 0xF06 JUMPI PUSH2 0xF05 PUSH2 0x22EE JUMP JUMPDEST JUMPDEST DUP2 MSTORE PUSH1 0x20 ADD PUSH0 DUP2 MSTORE POP PUSH1 0x2 PUSH0 CALLER PUSH20 0xFFFFFFFFFFFFFFFFFFFFFFFFFFFFFFFFFFFFFFFF AND PUSH20 0xFFFFFFFFFFFFFFFFFFFFFFFFFFFFFFFFFFFFFFFF AND DUP2 MSTORE PUSH1 0x20 ADD SWAP1 DUP2 MSTORE PUSH1 0x20 ADD PUSH0 KECCAK256 PUSH0 DUP3 ADD MLOAD DUP2 PUSH0 ADD PUSH0 PUSH2 0x100 EXP DUP2 SLOAD DUP2 PUSH1 0xFF MUL NOT AND SWAP1 DUP4 PUSH1 0x2 DUP2 GT ISZERO PUSH2 0xF74 JUMPI PUSH2 0xF73 PUSH2 0x22EE JUMP JUMPDEST JUMPDEST MUL OR SWAP1 SSTORE POP PUSH1 0x20 DUP3 ADD MLOAD DUP2 PUSH1 0x1 ADD SSTORE SWAP1 POP POP JUMPDEST PUSH0 DUP4 GT PUSH2 0xFC9 JUMPI PUSH1 0x40 MLOAD PUSH32 0x8C379A000000000000000000000000000000000000000000000000000000000 DUP2 MSTORE PUSH1 0x4 ADD PUSH2 0xFC0 SWAP1 PUSH2 0x2F15 JUMP JUMPDEST PUSH1 0x40 MLOAD DUP1 SWAP2 SUB SWAP1 REVERT JUMPDEST PUSH1 0x3 PUSH0 DUP6 PUSH20 0xFFFFFFFFFFFFFFFFFFFFFFFFFFFFFFFFFFFFFFFF AND PUSH20 0xFFFFFFFFFFFFFFFFFFFFFFFFFFFFFFFFFFFFFFFF AND DUP2 MSTORE PUSH1 0x20 ADD SWAP1 DUP2 MSTORE PUSH1 0x20 ADD PUSH0 KECCAK256 DUP1 SLOAD SWAP1 POP DUP3 LT PUSH2 0x104B JUMPI PUSH1 0x40 MLOAD PUSH32 0x8C379A000000000000000000000000000000000000000000000000000000000 DUP2 MSTORE PUSH1 0x4 ADD PUSH2 0x1042 SWAP1 PUSH2 0x2F7D JUMP JUMPDEST PUSH1 0x40 MLOAD DUP1 SWAP2 SUB SWAP1 REVERT JUMPDEST PUSH1 0x3 PUSH0 DUP6 PUSH20 0xFFFFFFFFFFFFFFFFFFFFFFFFFFFFFFFFFFFFFFFF AND PUSH20 0xFFFFFFFFFFFFFFFFFFFFFFFFFFFFFFFFFFFFFFFF AND DUP2 MSTORE PUSH1 0x20 ADD SWAP1 DUP2 MSTORE PUSH1 0x20 ADD PUSH0 KECCAK256 DUP3 DUP2 SLOAD DUP2 LT PUSH2 0x109A JUMPI PUSH2 0x1099 PUSH2 0x285B JUMP JUMPDEST JUMPDEST SWAP1 PUSH0 MSTORE PUSH1 0x20 PUSH0 KECCAK256 SWAP1 PUSH1 0x4 MUL ADD PUSH0 ADD SLOAD DUP4 GT ISZERO PUSH2 0x10EB JUMPI PUSH1 0x40 MLOAD PUSH32 0x8C379A000000000000000000000000000000000000000000000000000000000 DUP2 MSTORE PUSH1 0x4 ADD PUSH2 0x10E2 SWAP1 PUSH2 0x2FE5 JUMP JUMPDEST PUSH1 0x40 MLOAD DUP1 SWAP2 SUB SWAP1 REVERT JUMPDEST PUSH0 PUSH8 0xDE0B6B3A7640000 PUSH1 0x3 PUSH0 DUP8 PUSH20 0xFFFFFFFFFFFFFFFFFFFFFFFFFFFFFFFFFFFFFFFF AND PUSH20 0xFFFFFFFFFFFFFFFFFFFFFFFFFFFFFFFFFFFFFFFF AND DUP2 MSTORE PUSH1 0x20 ADD SWAP1 DUP2 MSTORE PUSH1 0x20 ADD PUSH0 KECCAK256 DUP5 DUP2 SLOAD DUP2 LT PUSH2 0x1144 JUMPI PUSH2 0x1143 PUSH2 0x285B JUMP JUMPDEST JUMPDEST SWAP1 PUSH0 MSTORE PUSH1 0x20 PUSH0 KECCAK256 SWAP1 PUSH1 0x4 MUL ADD PUSH1 0x1 ADD SLOAD DUP6 PUSH2 0x115F SWAP2 SWAP1 PUSH2 0x28B5 JUMP JUMPDEST PUSH2 0x1169 SWAP2 SWAP1 PUSH2 0x28B5 JUMP JUMPDEST SWAP1 POP CALLER PUSH20 0xFFFFFFFFFFFFFFFFFFFFFFFFFFFFFFFFFFFFFFFF AND PUSH1 0x4 DUP4 PUSH1 0x40 MLOAD PUSH2 0x1192 SWAP2 SWAP1 PUSH2 0x303D JUMP JUMPDEST SWAP1 DUP2 MSTORE PUSH1 0x20 ADD PUSH1 0x40 MLOAD DUP1 SWAP2 SUB SWAP1 KECCAK256 PUSH0 SWAP1 SLOAD SWAP1 PUSH2 0x100 EXP SWAP1 DIV PUSH20 0xFFFFFFFFFFFFFFFFFFFFFFFFFFFFFFFFFFFFFFFF AND PUSH20 0xFFFFFFFFFFFFFFFFFFFFFFFFFFFFFFFFFFFFFFFF AND SUB PUSH2 0x1253 JUMPI PUSH1 0x64 PUSH1 0x5A DUP3 PUSH2 0x11EA SWAP2 SWAP1 PUSH2 0x28B5 JUMP JUMPDEST PUSH2 0x11F4 SWAP2 SWAP1 PUSH2 0x2C09 JUMP JUMPDEST SWAP1 POP PUSH0 PUSH1 0x4 DUP4 PUSH1 0x40 MLOAD PUSH2 0x1207 SWAP2 SWAP1 PUSH2 0x303D JUMP JUMPDEST SWAP1 DUP2 MSTORE PUSH1 0x20 ADD PUSH1 0x40 MLOAD DUP1 SWAP2 SUB SWAP1 KECCAK256 PUSH0 PUSH2 0x100 EXP DUP2 SLOAD DUP2 PUSH20 0xFFFFFFFFFFFFFFFFFFFFFFFFFFFFFFFFFFFFFFFF MUL NOT AND SWAP1 DUP4 PUSH20 0xFFFFFFFFFFFFFFFFFFFFFFFFFFFFFFFFFFFFFFFF AND MUL OR SWAP1 SSTORE POP JUMPDEST DUP1 CALLVALUE LT ISZERO PUSH2 0x1296 JUMPI PUSH1 0x40 MLOAD PUSH32 0x8C379A000000000000000000000000000000000000000000000000000000000 DUP2 MSTORE PUSH1 0x4 ADD PUSH2 0x128D SWAP1 PUSH2 0x309D JUMP JUMPDEST PUSH1 0x40 MLOAD DUP1 SWAP2 SUB SWAP1 REVERT JUMPDEST PUSH0 DUP1 JUMPDEST PUSH1 0x3 PUSH0 CALLER PUSH20 0xFFFFFFFFFFFFFFFFFFFFFFFFFFFFFFFFFFFFFFFF AND PUSH20 0xFFFFFFFFFFFFFFFFFFFFFFFFFFFFFFFFFFFFFFFF AND DUP2 MSTORE PUSH1 0x20 ADD SWAP1 DUP2 MSTORE PUSH1 0x20 ADD PUSH0 KECCAK256 DUP1 SLOAD SWAP1 POP DUP2 LT ISZERO PUSH2 0x145B JUMPI PUSH1 0x3 PUSH0 DUP9 PUSH20 0xFFFFFFFFFFFFFFFFFFFFFFFFFFFFFFFFFFFFFFFF AND PUSH20 0xFFFFFFFFFFFFFFFFFFFFFFFFFFFFFFFFFFFFFFFF AND DUP2 MSTORE PUSH1 0x20 ADD SWAP1 DUP2 MSTORE PUSH1 0x20 ADD PUSH0 KECCAK256 DUP6 DUP2 SLOAD DUP2 LT PUSH2 0x1330 JUMPI PUSH2 0x132F PUSH2 0x285B JUMP JUMPDEST JUMPDEST SWAP1 PUSH0 MSTORE PUSH1 0x20 PUSH0 KECCAK256 SWAP1 PUSH1 0x4 MUL ADD PUSH1 0x2 ADD PUSH1 0x40 MLOAD PUSH2 0x134C SWAP2 SWAP1 PUSH2 0x3157 JUMP JUMPDEST PUSH1 0x40 MLOAD DUP1 SWAP2 SUB SWAP1 KECCAK256 PUSH1 0x3 PUSH0 CALLER PUSH20 0xFFFFFFFFFFFFFFFFFFFFFFFFFFFFFFFFFFFFFFFF AND PUSH20 0xFFFFFFFFFFFFFFFFFFFFFFFFFFFFFFFFFFFFFFFF AND DUP2 MSTORE PUSH1 0x20 ADD SWAP1 DUP2 MSTORE PUSH1 0x20 ADD PUSH0 KECCAK256 DUP3 DUP2 SLOAD DUP2 LT PUSH2 0x13A3 JUMPI PUSH2 0x13A2 PUSH2 0x285B JUMP JUMPDEST JUMPDEST SWAP1 PUSH0 MSTORE PUSH1 0x20 PUSH0 KECCAK256 SWAP1 PUSH1 0x4 MUL ADD PUSH1 0x2 ADD PUSH1 0x40 MLOAD PUSH2 0x13BF SWAP2 SWAP1 PUSH2 0x3157 JUMP JUMPDEST PUSH1 0x40 MLOAD DUP1 SWAP2 SUB SWAP1 KECCAK256 SUB PUSH2 0x1448 JUMPI DUP6 PUSH1 0x3 PUSH0 CALLER PUSH20 0xFFFFFFFFFFFFFFFFFFFFFFFFFFFFFFFFFFFFFFFF AND PUSH20 0xFFFFFFFFFFFFFFFFFFFFFFFFFFFFFFFFFFFFFFFF AND DUP2 MSTORE PUSH1 0x20 ADD SWAP1 DUP2 MSTORE PUSH1 0x20 ADD PUSH0 KECCAK256 DUP3 DUP2 SLOAD DUP2 LT PUSH2 0x141C JUMPI PUSH2 0x141B PUSH2 0x285B JUMP JUMPDEST JUMPDEST SWAP1 PUSH0 MSTORE PUSH1 0x20 PUSH0 KECCAK256 SWAP1 PUSH1 0x4 MUL ADD PUSH0 ADD PUSH0 DUP3 DUP3 SLOAD PUSH2 0x1438 SWAP2 SWAP1 PUSH2 0x28F6 JUMP JUMPDEST SWAP3 POP POP DUP2 SWAP1 SSTORE POP PUSH1 0x1 SWAP2 POP PUSH2 0x145B JUMP JUMPDEST DUP1 DUP1 PUSH2 0x1453 SWAP1 PUSH2 0x295C JUMP JUMPDEST SWAP2 POP POP PUSH2 0x1299 JUMP JUMPDEST POP DUP1 PUSH2 0x166B JUMPI PUSH0 PUSH1 0x40 MLOAD DUP1 PUSH1 0x80 ADD PUSH1 0x40 MSTORE DUP1 DUP8 DUP2 MSTORE PUSH1 0x20 ADD PUSH1 0x3 PUSH0 DUP11 PUSH20 0xFFFFFFFFFFFFFFFFFFFFFFFFFFFFFFFFFFFFFFFF AND PUSH20 0xFFFFFFFFFFFFFFFFFFFFFFFFFFFFFFFFFFFFFFFF AND DUP2 MSTORE PUSH1 0x20 ADD SWAP1 DUP2 MSTORE PUSH1 0x20 ADD PUSH0 KECCAK256 DUP8 DUP2 SLOAD DUP2 LT PUSH2 0x14C2 JUMPI PUSH2 0x14C1 PUSH2 0x285B JUMP JUMPDEST JUMPDEST SWAP1 PUSH0 MSTORE PUSH1 0x20 PUSH0 KECCAK256 SWAP1 PUSH1 0x4 MUL ADD PUSH1 0x1 ADD SLOAD DUP2 MSTORE PUSH1 0x20 ADD PUSH1 0x3 PUSH0 DUP11 PUSH20 0xFFFFFFFFFFFFFFFFFFFFFFFFFFFFFFFFFFFFFFFF AND PUSH20 0xFFFFFFFFFFFFFFFFFFFFFFFFFFFFFFFFFFFFFFFF AND DUP2 MSTORE PUSH1 0x20 ADD SWAP1 DUP2 MSTORE PUSH1 0x20 ADD PUSH0 KECCAK256 DUP8 DUP2 SLOAD DUP2 LT PUSH2 0x1526 JUMPI PUSH2 0x1525 PUSH2 0x285B JUMP JUMPDEST JUMPDEST SWAP1 PUSH0 MSTORE PUSH1 0x20 PUSH0 KECCAK256 SWAP1 PUSH1 0x4 MUL ADD PUSH1 0x2 ADD DUP1 SLOAD PUSH2 0x1540 SWAP1 PUSH2 0x282B JUMP JUMPDEST DUP1 PUSH1 0x1F ADD PUSH1 0x20 DUP1 SWAP2 DIV MUL PUSH1 0x20 ADD PUSH1 0x40 MLOAD SWAP1 DUP2 ADD PUSH1 0x40 MSTORE DUP1 SWAP3 SWAP2 SWAP1 DUP2 DUP2 MSTORE PUSH1 0x20 ADD DUP3 DUP1 SLOAD PUSH2 0x156C SWAP1 PUSH2 0x282B JUMP JUMPDEST DUP1 ISZERO PUSH2 0x15B7 JUMPI DUP1 PUSH1 0x1F LT PUSH2 0x158E JUMPI PUSH2 0x100 DUP1 DUP4 SLOAD DIV MUL DUP4 MSTORE SWAP2 PUSH1 0x20 ADD SWAP2 PUSH2 0x15B7 JUMP JUMPDEST DUP3 ADD SWAP2 SWAP1 PUSH0 MSTORE PUSH1 0x20 PUSH0 KECCAK256 SWAP1 JUMPDEST DUP2 SLOAD DUP2 MSTORE SWAP1 PUSH1 0x1 ADD SWAP1 PUSH1 0x20 ADD DUP1 DUP4 GT PUSH2 0x159A JUMPI DUP3 SWAP1 SUB PUSH1 0x1F AND DUP3 ADD SWAP2 JUMPDEST POP POP POP POP POP DUP2 MSTORE PUSH1 0x20 ADD PUSH2 0x15CC PUSH2 0x3E8 PUSH2 0xBC5 JUMP JUMPDEST DUP2 MSTORE POP SWAP1 POP PUSH1 0x3 PUSH0 CALLER PUSH20 0xFFFFFFFFFFFFFFFFFFFFFFFFFFFFFFFFFFFFFFFF AND PUSH20 0xFFFFFFFFFFFFFFFFFFFFFFFFFFFFFFFFFFFFFFFF AND DUP2 MSTORE PUSH1 0x20 ADD SWAP1 DUP2 MSTORE PUSH1 0x20 ADD PUSH0 KECCAK256 DUP2 SWAP1 DUP1 PUSH1 0x1 DUP2 SLOAD ADD DUP1 DUP3 SSTORE DUP1 SWAP2 POP POP PUSH1 0x1 SWAP1 SUB SWAP1 PUSH0 MSTORE PUSH1 0x20 PUSH0 KECCAK256 SWAP1 PUSH1 0x4 MUL ADD PUSH0 SWAP1 SWAP2 SWAP1 SWAP2 SWAP1 SWAP2 POP PUSH0 DUP3 ADD MLOAD DUP2 PUSH0 ADD SSTORE PUSH1 0x20 DUP3 ADD MLOAD DUP2 PUSH1 0x1 ADD SSTORE PUSH1 0x40 DUP3 ADD MLOAD DUP2 PUSH1 0x2 ADD SWAP1 DUP2 PUSH2 0x165C SWAP2 SWAP1 PUSH2 0x2DD6 JUMP JUMPDEST POP PUSH1 0x60 DUP3 ADD MLOAD DUP2 PUSH1 0x3 ADD SSTORE POP POP POP JUMPDEST DUP5 PUSH1 0x3 PUSH0 DUP9 PUSH20 0xFFFFFFFFFFFFFFFFFFFFFFFFFFFFFFFFFFFFFFFF AND PUSH20 0xFFFFFFFFFFFFFFFFFFFFFFFFFFFFFFFFFFFFFFFF AND DUP2 MSTORE PUSH1 0x20 ADD SWAP1 DUP2 MSTORE PUSH1 0x20 ADD PUSH0 KECCAK256 DUP6 DUP2 SLOAD DUP2 LT PUSH2 0x16BB JUMPI PUSH2 0x16BA PUSH2 0x285B JUMP JUMPDEST JUMPDEST SWAP1 PUSH0 MSTORE PUSH1 0x20 PUSH0 KECCAK256 SWAP1 PUSH1 0x4 MUL ADD PUSH0 ADD PUSH0 DUP3 DUP3 SLOAD PUSH2 0x16D7 SWAP2 SWAP1 PUSH2 0x2929 JUMP JUMPDEST SWAP3 POP POP DUP2 SWAP1 SSTORE POP DUP2 PUSH1 0x2 PUSH0 DUP9 PUSH20 0xFFFFFFFFFFFFFFFFFFFFFFFFFFFFFFFFFFFFFFFF AND PUSH20 0xFFFFFFFFFFFFFFFFFFFFFFFFFFFFFFFFFFFFFFFF AND DUP2 MSTORE PUSH1 0x20 ADD SWAP1 DUP2 MSTORE PUSH1 0x20 ADD PUSH0 KECCAK256 PUSH1 0x1 ADD DUP2 SWAP1 SSTORE POP DUP2 CALLVALUE GT ISZERO PUSH2 0x177B JUMPI CALLER PUSH20 0xFFFFFFFFFFFFFFFFFFFFFFFFFFFFFFFFFFFFFFFF AND PUSH2 0x8FC DUP4 CALLVALUE PUSH2 0x1751 SWAP2 SWAP1 PUSH2 0x2929 JUMP JUMPDEST SWAP1 DUP2 ISZERO MUL SWAP1 PUSH1 0x40 MLOAD PUSH0 PUSH1 0x40 MLOAD DUP1 DUP4 SUB DUP2 DUP6 DUP9 DUP9 CALL SWAP4 POP POP POP POP ISZERO DUP1 ISZERO PUSH2 0x1779 JUMPI RETURNDATASIZE PUSH0 DUP1 RETURNDATACOPY RETURNDATASIZE PUSH0 REVERT JUMPDEST POP JUMPDEST POP POP POP POP POP POP JUMP JUMPDEST DUP1 PUSH20 0xFFFFFFFFFFFFFFFFFFFFFFFFFFFFFFFFFFFFFFFF AND CALLER PUSH20 0xFFFFFFFFFFFFFFFFFFFFFFFFFFFFFFFFFFFFFFFF AND SUB PUSH2 0x17BA JUMPI PUSH0 DUP1 REVERT JUMPDEST DUP1 PUSH1 0x4 DUP4 PUSH1 0x40 MLOAD PUSH2 0x17CB SWAP2 SWAP1 PUSH2 0x303D JUMP JUMPDEST SWAP1 DUP2 MSTORE PUSH1 0x20 ADD PUSH1 0x40 MLOAD DUP1 SWAP2 SUB SWAP1 KECCAK256 PUSH0 PUSH2 0x100 EXP DUP2 SLOAD DUP2 PUSH20 0xFFFFFFFFFFFFFFFFFFFFFFFFFFFFFFFFFFFFFFFF MUL NOT AND SWAP1 DUP4 PUSH20 0xFFFFFFFFFFFFFFFFFFFFFFFFFFFFFFFFFFFFFFFF AND MUL OR SWAP1 SSTORE POP POP POP JUMP JUMPDEST PUSH1 0x2 PUSH1 0x20 MSTORE DUP1 PUSH0 MSTORE PUSH1 0x40 PUSH0 KECCAK256 PUSH0 SWAP2 POP SWAP1 POP DUP1 PUSH0 ADD PUSH0 SWAP1 SLOAD SWAP1 PUSH2 0x100 EXP SWAP1 DIV PUSH1 0xFF AND SWAP1 DUP1 PUSH1 0x1 ADD SLOAD SWAP1 POP DUP3 JUMP JUMPDEST PUSH1 0x40 MLOAD DUP1 PUSH1 0x40 ADD PUSH1 0x40 MSTORE DUP1 PUSH0 PUSH1 0x2 DUP2 GT ISZERO PUSH2 0x1864 JUMPI PUSH2 0x1863 PUSH2 0x22EE JUMP JUMPDEST JUMPDEST DUP2 MSTORE PUSH1 0x20 ADD PUSH0 DUP2 MSTORE POP PUSH1 0x2 PUSH0 CALLER PUSH20 0xFFFFFFFFFFFFFFFFFFFFFFFFFFFFFFFFFFFFFFFF AND PUSH20 0xFFFFFFFFFFFFFFFFFFFFFFFFFFFFFFFFFFFFFFFF AND DUP2 MSTORE PUSH1 0x20 ADD SWAP1 DUP2 MSTORE PUSH1 0x20 ADD PUSH0 KECCAK256 PUSH0 DUP3 ADD MLOAD DUP2 PUSH0 ADD PUSH0 PUSH2 0x100 EXP DUP2 SLOAD DUP2 PUSH1 0xFF MUL NOT AND SWAP1 DUP4 PUSH1 0x2 DUP2 GT ISZERO PUSH2 0x18D2 JUMPI PUSH2 0x18D1 PUSH2 0x22EE JUMP JUMPDEST JUMPDEST MUL OR SWAP1 SSTORE POP PUSH1 0x20 DUP3 ADD MLOAD DUP2 PUSH1 0x1 ADD SSTORE SWAP1 POP POP JUMP JUMPDEST PUSH1 0x4 DUP2 DUP1 MLOAD PUSH1 0x20 DUP2 ADD DUP3 ADD DUP1 MLOAD DUP5 DUP3 MSTORE PUSH1 0x20 DUP4 ADD PUSH1 0x20 DUP6 ADD KECCAK256 DUP2 DUP4 MSTORE DUP1 SWAP6 POP POP POP POP POP POP PUSH0 SWAP2 POP SLOAD SWAP1 PUSH2 0x100 EXP SWAP1 DIV PUSH20 0xFFFFFFFFFFFFFFFFFFFFFFFFFFFFFFFFFFFFFFFF AND DUP2 JUMP JUMPDEST DUP1 PUSH20 0xFFFFFFFFFFFFFFFFFFFFFFFFFFFFFFFFFFFFFFFF AND PUSH2 0x8FC PUSH1 0x2 PUSH0 DUP5 PUSH20 0xFFFFFFFFFFFFFFFFFFFFFFFFFFFFFFFFFFFFFFFF AND PUSH20 0xFFFFFFFFFFFFFFFFFFFFFFFFFFFFFFFFFFFFFFFF AND DUP2 MSTORE PUSH1 0x20 ADD SWAP1 DUP2 MSTORE PUSH1 0x20 ADD PUSH0 KECCAK256 PUSH1 0x1 ADD SLOAD SWAP1 DUP2 ISZERO MUL SWAP1 PUSH1 0x40 MLOAD PUSH0 PUSH1 0x40 MLOAD DUP1 DUP4 SUB DUP2 DUP6 DUP9 DUP9 CALL SWAP4 POP POP POP POP ISZERO DUP1 ISZERO PUSH2 0x19B1 JUMPI RETURNDATASIZE PUSH0 DUP1 RETURNDATACOPY RETURNDATASIZE PUSH0 REVERT JUMPDEST POP POP JUMP JUMPDEST PUSH1 0x1 DUP5 DUP2 PUSH1 0x2 DUP2 GT ISZERO PUSH2 0x19CB JUMPI PUSH2 0x19CA PUSH2 0x22EE JUMP JUMPDEST JUMPDEST PUSH1 0x2 PUSH0 CALLER PUSH20 0xFFFFFFFFFFFFFFFFFFFFFFFFFFFFFFFFFFFFFFFF AND PUSH20 0xFFFFFFFFFFFFFFFFFFFFFFFFFFFFFFFFFFFFFFFF AND DUP2 MSTORE PUSH1 0x20 ADD SWAP1 DUP2 MSTORE PUSH1 0x20 ADD PUSH0 KECCAK256 PUSH0 ADD PUSH0 SWAP1 SLOAD SWAP1 PUSH2 0x100 EXP SWAP1 DIV PUSH1 0xFF AND PUSH1 0x2 DUP2 GT ISZERO PUSH2 0x1A29 JUMPI PUSH2 0x1A28 PUSH2 0x22EE JUMP JUMPDEST JUMPDEST EQ PUSH2 0x1A69 JUMPI PUSH1 0x40 MLOAD PUSH32 0x8C379A000000000000000000000000000000000000000000000000000000000 DUP2 MSTORE PUSH1 0x4 ADD PUSH2 0x1A60 SWAP1 PUSH2 0x2B37 JUMP JUMPDEST PUSH1 0x40 MLOAD DUP1 SWAP2 SUB SWAP1 REVERT JUMPDEST DUP1 PUSH20 0xFFFFFFFFFFFFFFFFFFFFFFFFFFFFFFFFFFFFFFFF AND CALLER PUSH20 0xFFFFFFFFFFFFFFFFFFFFFFFFFFFFFFFFFFFFFFFF AND EQ PUSH2 0x1AD7 JUMPI PUSH1 0x40 MLOAD PUSH32 0x8C379A000000000000000000000000000000000000000000000000000000000 DUP2 MSTORE PUSH1 0x4 ADD PUSH2 0x1ACE SWAP1 PUSH2 0x2BEB JUMP JUMPDEST PUSH1 0x40 MLOAD DUP1 SWAP2 SUB SWAP1 REVERT JUMPDEST PUSH0 DUP5 GT PUSH2 0x1B19 JUMPI PUSH1 0x40 MLOAD PUSH32 0x8C379A000000000000000000000000000000000000000000000000000000000 DUP2 MSTORE PUSH1 0x4 ADD PUSH2 0x1B10 SWAP1 PUSH2 0x2F15 JUMP JUMPDEST PUSH1 0x40 MLOAD DUP1 SWAP2 SUB SWAP1 REVERT JUMPDEST PUSH1 0x3 PUSH0 DUP5 PUSH20 0xFFFFFFFFFFFFFFFFFFFFFFFFFFFFFFFFFFFFFFFF AND PUSH20 0xFFFFFFFFFFFFFFFFFFFFFFFFFFFFFFFFFFFFFFFF AND DUP2 MSTORE PUSH1 0x20 ADD SWAP1 DUP2 MSTORE PUSH1 0x20 ADD PUSH0 KECCAK256 DUP1 SLOAD SWAP1 POP DUP6 LT PUSH2 0x1B9B JUMPI PUSH1 0x40 MLOAD PUSH32 0x8C379A000000000000000000000000000000000000000000000000000000000 DUP2 MSTORE PUSH1 0x4 ADD PUSH2 0x1B92 SWAP1 PUSH2 0x2F7D JUMP JUMPDEST PUSH1 0x40 MLOAD DUP1 SWAP2 SUB SWAP1 REVERT JUMPDEST PUSH0 PUSH1 0x3 PUSH0 DUP6 PUSH20 0xFFFFFFFFFFFFFFFFFFFFFFFFFFFFFFFFFFFFFFFF AND PUSH20 0xFFFFFFFFFFFFFFFFFFFFFFFFFFFFFFFFFFFFFFFF AND DUP2 MSTORE PUSH1 0x20 ADD SWAP1 DUP2 MSTORE PUSH1 0x20 ADD PUSH0 KECCAK256 DUP7 DUP2 SLOAD DUP2 LT PUSH2 0x1BEB JUMPI PUSH2 0x1BEA PUSH2 0x285B JUMP JUMPDEST JUMPDEST SWAP1 PUSH0 MSTORE PUSH1 0x20 PUSH0 KECCAK256 SWAP1 PUSH1 0x4 MUL ADD PUSH1 0x1 ADD SLOAD SWAP1 POP PUSH0 PUSH8 0xDE0B6B3A7640000 DUP7 DUP4 PUSH2 0x1C13 SWAP2 SWAP1 PUSH2 0x28B5 JUMP JUMPDEST PUSH2 0x1C1D SWAP2 SWAP1 PUSH2 0x28B5 JUMP JUMPDEST SWAP1 POP DUP1 CALLVALUE LT ISZERO PUSH2 0x1C62 JUMPI PUSH1 0x40 MLOAD PUSH32 0x8C379A000000000000000000000000000000000000000000000000000000000 DUP2 MSTORE PUSH1 0x4 ADD PUSH2 0x1C59 SWAP1 PUSH2 0x309D JUMP JUMPDEST PUSH1 0x40 MLOAD DUP1 SWAP2 SUB SWAP1 REVERT JUMPDEST PUSH0 PUSH1 0x3 PUSH0 DUP8 PUSH20 0xFFFFFFFFFFFFFFFFFFFFFFFFFFFFFFFFFFFFFFFF AND PUSH20 0xFFFFFFFFFFFFFFFFFFFFFFFFFFFFFFFFFFFFFFFF AND DUP2 MSTORE PUSH1 0x20 ADD SWAP1 DUP2 MSTORE PUSH1 0x20 ADD PUSH0 KECCAK256 DUP9 DUP2 SLOAD DUP2 LT PUSH2 0x1CB2 JUMPI PUSH2 0x1CB1 PUSH2 0x285B JUMP JUMPDEST JUMPDEST SWAP1 PUSH0 MSTORE PUSH1 0x20 PUSH0 KECCAK256 SWAP1 PUSH1 0x4 MUL ADD PUSH1 0x2 ADD DUP1 SLOAD PUSH2 0x1CCC SWAP1 PUSH2 0x282B JUMP JUMPDEST DUP1 PUSH1 0x1F ADD PUSH1 0x20 DUP1 SWAP2 DIV MUL PUSH1 0x20 ADD PUSH1 0x40 MLOAD SWAP1 DUP2 ADD PUSH1 0x40 MSTORE DUP1 SWAP3 SWAP2 SWAP1 DUP2 DUP2 MSTORE PUSH1 0x20 ADD DUP3 DUP1 SLOAD PUSH2 0x1CF8 SWAP1 PUSH2 0x282B JUMP JUMPDEST DUP1 ISZERO PUSH2 0x1D43 JUMPI DUP1 PUSH1 0x1F LT PUSH2 0x1D1A JUMPI PUSH2 0x100 DUP1 DUP4 SLOAD DIV MUL DUP4 MSTORE SWAP2 PUSH1 0x20 ADD SWAP2 PUSH2 0x1D43 JUMP JUMPDEST DUP3 ADD SWAP2 SWAP1 PUSH0 MSTORE PUSH1 0x20 PUSH0 KECCAK256 SWAP1 JUMPDEST DUP2 SLOAD DUP2 MSTORE SWAP1 PUSH1 0x1 ADD SWAP1 PUSH1 0x20 ADD DUP1 DUP4 GT PUSH2 0x1D26 JUMPI DUP3 SWAP1 SUB PUSH1 0x1F AND DUP3 ADD SWAP2 JUMPDEST POP POP POP POP POP SWAP1 POP PUSH0 DUP1 JUMPDEST PUSH1 0x3 PUSH0 DUP13 PUSH20 0xFFFFFFFFFFFFFFFFFFFFFFFFFFFFFFFFFFFFFFFF AND PUSH20 0xFFFFFFFFFFFFFFFFFFFFFFFFFFFFFFFFFFFFFFFF AND DUP2 MSTORE PUSH1 0x20 ADD SWAP1 DUP2 MSTORE PUSH1 0x20 ADD PUSH0 KECCAK256 DUP1 SLOAD SWAP1 POP DUP2 LT ISZERO PUSH2 0x1EA4 JUMPI PUSH1 0x3 PUSH0 DUP13 PUSH20 0xFFFFFFFFFFFFFFFFFFFFFFFFFFFFFFFFFFFFFFFF AND PUSH20 0xFFFFFFFFFFFFFFFFFFFFFFFFFFFFFFFFFFFFFFFF AND DUP2 MSTORE PUSH1 0x20 ADD SWAP1 DUP2 MSTORE PUSH1 0x20 ADD PUSH0 KECCAK256 DUP2 DUP2 SLOAD DUP2 LT PUSH2 0x1DE4 JUMPI PUSH2 0x1DE3 PUSH2 0x285B JUMP JUMPDEST JUMPDEST SWAP1 PUSH0 MSTORE PUSH1 0x20 PUSH0 KECCAK256 SWAP1 PUSH1 0x4 MUL ADD PUSH1 0x2 ADD PUSH1 0x40 MLOAD PUSH2 0x1E00 SWAP2 SWAP1 PUSH2 0x3157 JUMP JUMPDEST PUSH1 0x40 MLOAD DUP1 SWAP2 SUB SWAP1 KECCAK256 DUP4 DUP1 MLOAD SWAP1 PUSH1 0x20 ADD KECCAK256 SUB PUSH2 0x1E91 JUMPI DUP9 PUSH1 0x3 PUSH0 DUP14 PUSH20 0xFFFFFFFFFFFFFFFFFFFFFFFFFFFFFFFFFFFFFFFF AND PUSH20 0xFFFFFFFFFFFFFFFFFFFFFFFFFFFFFFFFFFFFFFFF AND DUP2 MSTORE PUSH1 0x20 ADD SWAP1 DUP2 MSTORE PUSH1 0x20 ADD PUSH0 KECCAK256 DUP3 DUP2 SLOAD DUP2 LT PUSH2 0x1E65 JUMPI PUSH2 0x1E64 PUSH2 0x285B JUMP JUMPDEST JUMPDEST SWAP1 PUSH0 MSTORE PUSH1 0x20 PUSH0 KECCAK256 SWAP1 PUSH1 0x4 MUL ADD PUSH0 ADD PUSH0 DUP3 DUP3 SLOAD PUSH2 0x1E81 SWAP2 SWAP1 PUSH2 0x28F6 JUMP JUMPDEST SWAP3 POP POP DUP2 SWAP1 SSTORE POP PUSH1 0x1 SWAP2 POP PUSH2 0x1EA4 JUMP JUMPDEST DUP1 DUP1 PUSH2 0x1E9C SWAP1 PUSH2 0x295C JUMP JUMPDEST SWAP2 POP POP PUSH2 0x1D4D JUMP JUMPDEST POP DUP1 PUSH2 0x1FC6 JUMPI PUSH0 PUSH1 0x40 MLOAD DUP1 PUSH1 0x80 ADD PUSH1 0x40 MSTORE DUP1 DUP11 DUP2 MSTORE PUSH1 0x20 ADD DUP7 DUP2 MSTORE PUSH1 0x20 ADD DUP5 DUP2 MSTORE PUSH1 0x20 ADD PUSH1 0x3 PUSH0 DUP12 PUSH20 0xFFFFFFFFFFFFFFFFFFFFFFFFFFFFFFFFFFFFFFFF AND PUSH20 0xFFFFFFFFFFFFFFFFFFFFFFFFFFFFFFFFFFFFFFFF AND DUP2 MSTORE PUSH1 0x20 ADD SWAP1 DUP2 MSTORE PUSH1 0x20 ADD PUSH0 KECCAK256 DUP13 DUP2 SLOAD DUP2 LT PUSH2 0x1F17 JUMPI PUSH2 0x1F16 PUSH2 0x285B JUMP JUMPDEST JUMPDEST SWAP1 PUSH0 MSTORE PUSH1 0x20 PUSH0 KECCAK256 SWAP1 PUSH1 0x4 MUL ADD PUSH1 0x3 ADD SLOAD DUP2 MSTORE POP SWAP1 POP PUSH1 0x3 PUSH0 DUP13 PUSH20 0xFFFFFFFFFFFFFFFFFFFFFFFFFFFFFFFFFFFFFFFF AND PUSH20 0xFFFFFFFFFFFFFFFFFFFFFFFFFFFFFFFFFFFFFFFF AND DUP2 MSTORE PUSH1 0x20 ADD SWAP1 DUP2 MSTORE PUSH1 0x20 ADD PUSH0 KECCAK256 DUP2 SWAP1 DUP1 PUSH1 0x1 DUP2 SLOAD ADD DUP1 DUP3 SSTORE DUP1 SWAP2 POP POP PUSH1 0x1 SWAP1 SUB SWAP1 PUSH0 MSTORE PUSH1 0x20 PUSH0 KECCAK256 SWAP1 PUSH1 0x4 MUL ADD PUSH0 SWAP1 SWAP2 SWAP1 SWAP2 SWAP1 SWAP2 POP PUSH0 DUP3 ADD MLOAD DUP2 PUSH0 ADD SSTORE PUSH1 0x20 DUP3 ADD MLOAD DUP2 PUSH1 0x1 ADD SSTORE PUSH1 0x40 DUP3 ADD MLOAD DUP2 PUSH1 0x2 ADD SWAP1 DUP2 PUSH2 0x1FB7 SWAP2 SWAP1 PUSH2 0x2DD6 JUMP JUMPDEST POP PUSH1 0x60 DUP3 ADD MLOAD DUP2 PUSH1 0x3 ADD SSTORE POP POP POP JUMPDEST DUP8 PUSH1 0x3 PUSH0 DUP10 PUSH20 0xFFFFFFFFFFFFFFFFFFFFFFFFFFFFFFFFFFFFFFFF AND PUSH20 0xFFFFFFFFFFFFFFFFFFFFFFFFFFFFFFFFFFFFFFFF AND DUP2 MSTORE PUSH1 0x20 ADD SWAP1 DUP2 MSTORE PUSH1 0x20 ADD PUSH0 KECCAK256 DUP11 DUP2 SLOAD DUP2 LT PUSH2 0x2016 JUMPI PUSH2 0x2015 PUSH2 0x285B JUMP JUMPDEST JUMPDEST SWAP1 PUSH0 MSTORE PUSH1 0x20 PUSH0 KECCAK256 SWAP1 PUSH1 0x4 MUL ADD PUSH0 ADD PUSH0 DUP3 DUP3 SLOAD PUSH2 0x2032 SWAP2 SWAP1 PUSH2 0x2929 JUMP JUMPDEST SWAP3 POP POP DUP2 SWAP1 SSTORE POP DUP3 CALLVALUE GT ISZERO PUSH2 0x2091 JUMPI CALLER PUSH20 0xFFFFFFFFFFFFFFFFFFFFFFFFFFFFFFFFFFFFFFFF AND PUSH2 0x8FC DUP5 CALLVALUE PUSH2 0x2067 SWAP2 SWAP1 PUSH2 0x2929 JUMP JUMPDEST SWAP1 DUP2 ISZERO MUL SWAP1 PUSH1 0x40 MLOAD PUSH0 PUSH1 0x40 MLOAD DUP1 DUP4 SUB DUP2 DUP6 DUP9 DUP9 CALL SWAP4 POP POP POP POP ISZERO DUP1 ISZERO PUSH2 0x208F JUMPI RETURNDATASIZE PUSH0 DUP1 RETURNDATACOPY RETURNDATASIZE PUSH0 REVERT JUMPDEST POP JUMPDEST POP POP POP POP POP POP POP POP POP POP JUMP JUMPDEST POP DUP1 SLOAD PUSH2 0x20A9 SWAP1 PUSH2 0x282B JUMP JUMPDEST PUSH0 DUP3 SSTORE DUP1 PUSH1 0x1F LT PUSH2 0x20BA JUMPI POP PUSH2 0x20D7 JUMP JUMPDEST PUSH1 0x1F ADD PUSH1 0x20 SWAP1 DIV SWAP1 PUSH0 MSTORE PUSH1 0x20 PUSH0 KECCAK256 SWAP1 DUP2 ADD SWAP1 PUSH2 0x20D6 SWAP2 SWAP1 PUSH2 0x20DA JUMP JUMPDEST JUMPDEST POP JUMP JUMPDEST JUMPDEST DUP1 DUP3 GT ISZERO PUSH2 0x20F1 JUMPI PUSH0 DUP2 PUSH0 SWAP1 SSTORE POP PUSH1 0x1 ADD PUSH2 0x20DB JUMP JUMPDEST POP SWAP1 JUMP JUMPDEST PUSH0 PUSH1 0x40 MLOAD SWAP1 POP SWAP1 JUMP JUMPDEST PUSH0 DUP1 REVERT JUMPDEST PUSH0 DUP1 REVERT JUMPDEST PUSH0 PUSH20 0xFFFFFFFFFFFFFFFFFFFFFFFFFFFFFFFFFFFFFFFF DUP3 AND SWAP1 POP SWAP2 SWAP1 POP JUMP JUMPDEST PUSH0 PUSH2 0x212F DUP3 PUSH2 0x2106 JUMP JUMPDEST SWAP1 POP SWAP2 SWAP1 POP JUMP JUMPDEST PUSH2 0x213F DUP2 PUSH2 0x2125 JUMP JUMPDEST DUP2 EQ PUSH2 0x2149 JUMPI PUSH0 DUP1 REVERT JUMPDEST POP JUMP JUMPDEST PUSH0 DUP2 CALLDATALOAD SWAP1 POP PUSH2 0x215A DUP2 PUSH2 0x2136 JUMP JUMPDEST SWAP3 SWAP2 POP POP JUMP JUMPDEST PUSH0 DUP2 SWAP1 POP SWAP2 SWAP1 POP JUMP JUMPDEST PUSH2 0x2172 DUP2 PUSH2 0x2160 JUMP JUMPDEST DUP2 EQ PUSH2 0x217C JUMPI PUSH0 DUP1 REVERT JUMPDEST POP JUMP JUMPDEST PUSH0 DUP2 CALLDATALOAD SWAP1 POP PUSH2 0x218D DUP2 PUSH2 0x2169 JUMP JUMPDEST SWAP3 SWAP2 POP POP JUMP JUMPDEST PUSH0 DUP1 PUSH1 0x40 DUP4 DUP6 SUB SLT ISZERO PUSH2 0x21A9 JUMPI PUSH2 0x21A8 PUSH2 0x20FE JUMP JUMPDEST JUMPDEST PUSH0 PUSH2 0x21B6 DUP6 DUP3 DUP7 ADD PUSH2 0x214C JUMP JUMPDEST SWAP3 POP POP PUSH1 0x20 PUSH2 0x21C7 DUP6 DUP3 DUP7 ADD PUSH2 0x217F JUMP JUMPDEST SWAP2 POP POP SWAP3 POP SWAP3 SWAP1 POP JUMP JUMPDEST PUSH2 0x21DA DUP2 PUSH2 0x2160 JUMP JUMPDEST DUP3 MSTORE POP POP JUMP JUMPDEST PUSH0 DUP2 MLOAD SWAP1 POP SWAP2 SWAP1 POP JUMP JUMPDEST PUSH0 DUP3 DUP3 MSTORE PUSH1 0x20 DUP3 ADD SWAP1 POP SWAP3 SWAP2 POP POP JUMP JUMPDEST PUSH0 JUMPDEST DUP4 DUP2 LT ISZERO PUSH2 0x2217 JUMPI DUP1 DUP3 ADD MLOAD DUP2 DUP5 ADD MSTORE PUSH1 0x20 DUP2 ADD SWAP1 POP PUSH2 0x21FC JUMP JUMPDEST PUSH0 DUP5 DUP5 ADD MSTORE POP POP POP POP JUMP JUMPDEST PUSH0 PUSH1 0x1F NOT PUSH1 0x1F DUP4 ADD AND SWAP1 POP SWAP2 SWAP1 POP JUMP JUMPDEST PUSH0 PUSH2 0x223C DUP3 PUSH2 0x21E0 JUMP JUMPDEST PUSH2 0x2246 DUP2 DUP6 PUSH2 0x21EA JUMP JUMPDEST SWAP4 POP PUSH2 0x2256 DUP2 DUP6 PUSH1 0x20 DUP7 ADD PUSH2 0x21FA JUMP JUMPDEST PUSH2 0x225F DUP2 PUSH2 0x2222 JUMP JUMPDEST DUP5 ADD SWAP2 POP POP SWAP3 SWAP2 POP POP JUMP JUMPDEST PUSH0 PUSH1 0x80 DUP3 ADD SWAP1 POP PUSH2 0x227D PUSH0 DUP4 ADD DUP8 PUSH2 0x21D1 JUMP JUMPDEST PUSH2 0x228A PUSH1 0x20 DUP4 ADD DUP7 PUSH2 0x21D1 JUMP JUMPDEST DUP2 DUP2 SUB PUSH1 0x40 DUP4 ADD MSTORE PUSH2 0x229C DUP2 DUP6 PUSH2 0x2232 JUMP JUMPDEST SWAP1 POP PUSH2 0x22AB PUSH1 0x60 DUP4 ADD DUP5 PUSH2 0x21D1 JUMP JUMPDEST SWAP6 SWAP5 POP POP POP POP POP JUMP JUMPDEST PUSH0 PUSH1 0x20 DUP3 DUP5 SUB SLT ISZERO PUSH2 0x22C9 JUMPI PUSH2 0x22C8 PUSH2 0x20FE JUMP JUMPDEST JUMPDEST PUSH0 PUSH2 0x22D6 DUP5 DUP3 DUP6 ADD PUSH2 0x217F JUMP JUMPDEST SWAP2 POP POP SWAP3 SWAP2 POP POP JUMP JUMPDEST PUSH2 0x22E8 DUP2 PUSH2 0x2125 JUMP JUMPDEST DUP3 MSTORE POP POP JUMP JUMPDEST PUSH32 0x4E487B7100000000000000000000000000000000000000000000000000000000 PUSH0 MSTORE PUSH1 0x21 PUSH1 0x4 MSTORE PUSH1 0x24 PUSH0 REVERT JUMPDEST PUSH1 0x3 DUP2 LT PUSH2 0x232C JUMPI PUSH2 0x232B PUSH2 0x22EE JUMP JUMPDEST JUMPDEST POP JUMP JUMPDEST PUSH0 DUP2 SWAP1 POP PUSH2 0x233C DUP3 PUSH2 0x231B JUMP JUMPDEST SWAP2 SWAP1 POP JUMP JUMPDEST PUSH0 PUSH2 0x234B DUP3 PUSH2 0x232F JUMP JUMPDEST SWAP1 POP SWAP2 SWAP1 POP JUMP JUMPDEST PUSH2 0x235B DUP2 PUSH2 0x2341 JUMP JUMPDEST DUP3 MSTORE POP POP JUMP JUMPDEST PUSH0 PUSH1 0x40 DUP3 ADD SWAP1 POP PUSH2 0x2374 PUSH0 DUP4 ADD DUP6 PUSH2 0x22DF JUMP JUMPDEST PUSH2 0x2381 PUSH1 0x20 DUP4 ADD DUP5 PUSH2 0x2352 JUMP JUMPDEST SWAP4 SWAP3 POP POP POP JUMP JUMPDEST PUSH1 0x3 DUP2 LT PUSH2 0x2394 JUMPI PUSH0 DUP1 REVERT JUMPDEST POP JUMP JUMPDEST PUSH0 DUP2 CALLDATALOAD SWAP1 POP PUSH2 0x23A5 DUP2 PUSH2 0x2388 JUMP JUMPDEST SWAP3 SWAP2 POP POP JUMP JUMPDEST PUSH0 PUSH1 0x20 DUP3 DUP5 SUB SLT ISZERO PUSH2 0x23C0 JUMPI PUSH2 0x23BF PUSH2 0x20FE JUMP JUMPDEST JUMPDEST PUSH0 PUSH2 0x23CD DUP5 DUP3 DUP6 ADD PUSH2 0x2397 JUMP JUMPDEST SWAP2 POP POP SWAP3 SWAP2 POP POP JUMP JUMPDEST PUSH0 PUSH1 0x20 DUP3 ADD SWAP1 POP PUSH2 0x23E9 PUSH0 DUP4 ADD DUP5 PUSH2 0x21D1 JUMP JUMPDEST SWAP3 SWAP2 POP POP JUMP JUMPDEST PUSH0 DUP1 REVERT JUMPDEST PUSH0 DUP1 REVERT JUMPDEST PUSH0 DUP1 REVERT JUMPDEST PUSH0 DUP1 DUP4 PUSH1 0x1F DUP5 ADD SLT PUSH2 0x2410 JUMPI PUSH2 0x240F PUSH2 0x23EF JUMP JUMPDEST JUMPDEST DUP3 CALLDATALOAD SWAP1 POP PUSH8 0xFFFFFFFFFFFFFFFF DUP2 GT ISZERO PUSH2 0x242D JUMPI PUSH2 0x242C PUSH2 0x23F3 JUMP JUMPDEST JUMPDEST PUSH1 0x20 DUP4 ADD SWAP2 POP DUP4 PUSH1 0x1 DUP3 MUL DUP4 ADD GT ISZERO PUSH2 0x2449 JUMPI PUSH2 0x2448 PUSH2 0x23F7 JUMP JUMPDEST JUMPDEST SWAP3 POP SWAP3 SWAP1 POP JUMP JUMPDEST PUSH0 DUP1 PUSH0 DUP1 PUSH0 DUP1 PUSH1 0xA0 DUP8 DUP10 SUB SLT ISZERO PUSH2 0x246A JUMPI PUSH2 0x2469 PUSH2 0x20FE JUMP JUMPDEST JUMPDEST PUSH0 PUSH2 0x2477 DUP10 DUP3 DUP11 ADD PUSH2 0x217F JUMP JUMPDEST SWAP7 POP POP PUSH1 0x20 PUSH2 0x2488 DUP10 DUP3 DUP11 ADD PUSH2 0x217F JUMP JUMPDEST SWAP6 POP POP PUSH1 0x40 DUP8 ADD CALLDATALOAD PUSH8 0xFFFFFFFFFFFFFFFF DUP2 GT ISZERO PUSH2 0x24A9 JUMPI PUSH2 0x24A8 PUSH2 0x2102 JUMP JUMPDEST JUMPDEST PUSH2 0x24B5 DUP10 DUP3 DUP11 ADD PUSH2 0x23FB JUMP JUMPDEST SWAP5 POP SWAP5 POP POP PUSH1 0x60 PUSH2 0x24C8 DUP10 DUP3 DUP11 ADD PUSH2 0x217F JUMP JUMPDEST SWAP3 POP POP PUSH1 0x80 PUSH2 0x24D9 DUP10 DUP3 DUP11 ADD PUSH2 0x214C JUMP JUMPDEST SWAP2 POP POP SWAP3 SWAP6 POP SWAP3 SWAP6 POP SWAP3 SWAP6 JUMP JUMPDEST PUSH0 PUSH1 0x20 DUP3 ADD SWAP1 POP PUSH2 0x24F9 PUSH0 DUP4 ADD DUP5 PUSH2 0x22DF JUMP JUMPDEST SWAP3 SWAP2 POP POP JUMP JUMPDEST PUSH0 DUP1 REVERT JUMPDEST PUSH32 0x4E487B7100000000000000000000000000000000000000000000000000000000 PUSH0 MSTORE PUSH1 0x41 PUSH1 0x4 MSTORE PUSH1 0x24 PUSH0 REVERT JUMPDEST PUSH2 0x2539 DUP3 PUSH2 0x2222 JUMP JUMPDEST DUP2 ADD DUP2 DUP2 LT PUSH8 0xFFFFFFFFFFFFFFFF DUP3 GT OR ISZERO PUSH2 0x2558 JUMPI PUSH2 0x2557 PUSH2 0x2503 JUMP JUMPDEST JUMPDEST DUP1 PUSH1 0x40 MSTORE POP POP POP JUMP JUMPDEST PUSH0 PUSH2 0x256A PUSH2 0x20F5 JUMP JUMPDEST SWAP1 POP PUSH2 0x2576 DUP3 DUP3 PUSH2 0x2530 JUMP JUMPDEST SWAP2 SWAP1 POP JUMP JUMPDEST PUSH0 PUSH8 0xFFFFFFFFFFFFFFFF DUP3 GT ISZERO PUSH2 0x2595 JUMPI PUSH2 0x2594 PUSH2 0x2503 JUMP JUMPDEST JUMPDEST PUSH2 0x259E DUP3 PUSH2 0x2222 JUMP JUMPDEST SWAP1 POP PUSH1 0x20 DUP2 ADD SWAP1 POP SWAP2 SWAP1 POP JUMP JUMPDEST DUP3 DUP2 DUP4 CALLDATACOPY PUSH0 DUP4 DUP4 ADD MSTORE POP POP POP JUMP JUMPDEST PUSH0 PUSH2 0x25CB PUSH2 0x25C6 DUP5 PUSH2 0x257B JUMP JUMPDEST PUSH2 0x2561 JUMP JUMPDEST SWAP1 POP DUP3 DUP2 MSTORE PUSH1 0x20 DUP2 ADD DUP5 DUP5 DUP5 ADD GT ISZERO PUSH2 0x25E7 JUMPI PUSH2 0x25E6 PUSH2 0x24FF JUMP JUMPDEST JUMPDEST PUSH2 0x25F2 DUP5 DUP3 DUP6 PUSH2 0x25AB JUMP JUMPDEST POP SWAP4 SWAP3 POP POP POP JUMP JUMPDEST PUSH0 DUP3 PUSH1 0x1F DUP4 ADD SLT PUSH2 0x260E JUMPI PUSH2 0x260D PUSH2 0x23EF JUMP JUMPDEST JUMPDEST DUP2 CALLDATALOAD PUSH2 0x261E DUP5 DUP3 PUSH1 0x20 DUP7 ADD PUSH2 0x25B9 JUMP JUMPDEST SWAP2 POP POP SWAP3 SWAP2 POP POP JUMP JUMPDEST PUSH0 DUP1 PUSH0 DUP1 PUSH1 0x80 DUP6 DUP8 SUB SLT ISZERO PUSH2 0x263F JUMPI PUSH2 0x263E PUSH2 0x20FE JUMP JUMPDEST JUMPDEST PUSH0 PUSH2 0x264C DUP8 DUP3 DUP9 ADD PUSH2 0x214C JUMP JUMPDEST SWAP5 POP POP PUSH1 0x20 PUSH2 0x265D DUP8 DUP3 DUP9 ADD PUSH2 0x217F JUMP JUMPDEST SWAP4 POP POP PUSH1 0x40 PUSH2 0x266E DUP8 DUP3 DUP9 ADD PUSH2 0x217F JUMP JUMPDEST SWAP3 POP POP PUSH1 0x60 DUP6 ADD CALLDATALOAD PUSH8 0xFFFFFFFFFFFFFFFF DUP2 GT ISZERO PUSH2 0x268F JUMPI PUSH2 0x268E PUSH2 0x2102 JUMP JUMPDEST JUMPDEST PUSH2 0x269B DUP8 DUP3 DUP9 ADD PUSH2 0x25FA JUMP JUMPDEST SWAP2 POP POP SWAP3 SWAP6 SWAP2 SWAP5 POP SWAP3 POP JUMP JUMPDEST PUSH0 DUP1 PUSH1 0x40 DUP4 DUP6 SUB SLT ISZERO PUSH2 0x26BD JUMPI PUSH2 0x26BC PUSH2 0x20FE JUMP JUMPDEST JUMPDEST PUSH0 DUP4 ADD CALLDATALOAD PUSH8 0xFFFFFFFFFFFFFFFF DUP2 GT ISZERO PUSH2 0x26DA JUMPI PUSH2 0x26D9 PUSH2 0x2102 JUMP JUMPDEST JUMPDEST PUSH2 0x26E6 DUP6 DUP3 DUP7 ADD PUSH2 0x25FA JUMP JUMPDEST SWAP3 POP POP PUSH1 0x20 PUSH2 0x26F7 DUP6 DUP3 DUP7 ADD PUSH2 0x214C JUMP JUMPDEST SWAP2 POP POP SWAP3 POP SWAP3 SWAP1 POP JUMP JUMPDEST PUSH0 PUSH1 0x20 DUP3 DUP5 SUB SLT ISZERO PUSH2 0x2716 JUMPI PUSH2 0x2715 PUSH2 0x20FE JUMP JUMPDEST JUMPDEST PUSH0 PUSH2 0x2723 DUP5 DUP3 DUP6 ADD PUSH2 0x214C JUMP JUMPDEST SWAP2 POP POP SWAP3 SWAP2 POP POP JUMP JUMPDEST PUSH0 PUSH1 0x40 DUP3 ADD SWAP1 POP PUSH2 0x273F PUSH0 DUP4 ADD DUP6 PUSH2 0x2352 JUMP JUMPDEST PUSH2 0x274C PUSH1 0x20 DUP4 ADD DUP5 PUSH2 0x21D1 JUMP JUMPDEST SWAP4 SWAP3 POP POP POP JUMP JUMPDEST PUSH0 PUSH1 0x20 DUP3 DUP5 SUB SLT ISZERO PUSH2 0x2768 JUMPI PUSH2 0x2767 PUSH2 0x20FE JUMP JUMPDEST JUMPDEST PUSH0 DUP3 ADD CALLDATALOAD PUSH8 0xFFFFFFFFFFFFFFFF DUP2 GT ISZERO PUSH2 0x2785 JUMPI PUSH2 0x2784 PUSH2 0x2102 JUMP JUMPDEST JUMPDEST PUSH2 0x2791 DUP5 DUP3 DUP6 ADD PUSH2 0x25FA JUMP JUMPDEST SWAP2 POP POP SWAP3 SWAP2 POP POP JUMP JUMPDEST PUSH0 DUP1 PUSH0 DUP1 PUSH1 0x80 DUP6 DUP8 SUB SLT ISZERO PUSH2 0x27B2 JUMPI PUSH2 0x27B1 PUSH2 0x20FE JUMP JUMPDEST JUMPDEST PUSH0 PUSH2 0x27BF DUP8 DUP3 DUP9 ADD PUSH2 0x214C JUMP JUMPDEST SWAP5 POP POP PUSH1 0x20 PUSH2 0x27D0 DUP8 DUP3 DUP9 ADD PUSH2 0x217F JUMP JUMPDEST SWAP4 POP POP PUSH1 0x40 PUSH2 0x27E1 DUP8 DUP3 DUP9 ADD PUSH2 0x217F JUMP JUMPDEST SWAP3 POP POP PUSH1 0x60 PUSH2 0x27F2 DUP8 DUP3 DUP9 ADD PUSH2 0x214C JUMP JUMPDEST SWAP2 POP POP SWAP3 SWAP6 SWAP2 SWAP5 POP SWAP3 POP JUMP JUMPDEST PUSH32 0x4E487B7100000000000000000000000000000000000000000000000000000000 PUSH0 MSTORE PUSH1 0x22 PUSH1 0x4 MSTORE PUSH1 0x24 PUSH0 REVERT JUMPDEST PUSH0 PUSH1 0x2 DUP3 DIV SWAP1 POP PUSH1 0x1 DUP3 AND DUP1 PUSH2 0x2842 JUMPI PUSH1 0x7F DUP3 AND SWAP2 POP JUMPDEST PUSH1 0x20 DUP3 LT DUP2 SUB PUSH2 0x2855 JUMPI PUSH2 0x2854 PUSH2 0x27FE JUMP JUMPDEST JUMPDEST POP SWAP2 SWAP1 POP JUMP JUMPDEST PUSH32 0x4E487B7100000000000000000000000000000000000000000000000000000000 PUSH0 MSTORE PUSH1 0x32 PUSH1 0x4 MSTORE PUSH1 0x24 PUSH0 REVERT JUMPDEST PUSH32 0x4E487B7100000000000000000000000000000000000000000000000000000000 PUSH0 MSTORE PUSH1 0x11 PUSH1 0x4 MSTORE PUSH1 0x24 PUSH0 REVERT JUMPDEST PUSH0 PUSH2 0x28BF DUP3 PUSH2 0x2160 JUMP JUMPDEST SWAP2 POP PUSH2 0x28CA DUP4 PUSH2 0x2160 JUMP JUMPDEST SWAP3 POP DUP3 DUP3 MUL PUSH2 0x28D8 DUP2 PUSH2 0x2160 JUMP JUMPDEST SWAP2 POP DUP3 DUP3 DIV DUP5 EQ DUP4 ISZERO OR PUSH2 0x28EF JUMPI PUSH2 0x28EE PUSH2 0x2888 JUMP JUMPDEST JUMPDEST POP SWAP3 SWAP2 POP POP JUMP JUMPDEST PUSH0 PUSH2 0x2900 DUP3 PUSH2 0x2160 JUMP JUMPDEST SWAP2 POP PUSH2 0x290B DUP4 PUSH2 0x2160 JUMP JUMPDEST SWAP3 POP DUP3 DUP3 ADD SWAP1 POP DUP1 DUP3 GT ISZERO PUSH2 0x2923 JUMPI PUSH2 0x2922 PUSH2 0x2888 JUMP JUMPDEST JUMPDEST SWAP3 SWAP2 POP POP JUMP JUMPDEST PUSH0 PUSH2 0x2933 DUP3 PUSH2 0x2160 JUMP JUMPDEST SWAP2 POP PUSH2 0x293E DUP4 PUSH2 0x2160 JUMP JUMPDEST SWAP3 POP DUP3 DUP3 SUB SWAP1 POP DUP2 DUP2 GT ISZERO PUSH2 0x2956 JUMPI PUSH2 0x2955 PUSH2 0x2888 JUMP JUMPDEST JUMPDEST SWAP3 SWAP2 POP POP JUMP JUMPDEST PUSH0 PUSH2 0x2966 DUP3 PUSH2 0x2160 JUMP JUMPDEST SWAP2 POP PUSH32 0xFFFFFFFFFFFFFFFFFFFFFFFFFFFFFFFFFFFFFFFFFFFFFFFFFFFFFFFFFFFFFFFF DUP3 SUB PUSH2 0x2998 JUMPI PUSH2 0x2997 PUSH2 0x2888 JUMP JUMPDEST JUMPDEST PUSH1 0x1 DUP3 ADD SWAP1 POP SWAP2 SWAP1 POP JUMP JUMPDEST PUSH0 DUP2 SWAP1 POP SWAP2 SWAP1 POP JUMP JUMPDEST PUSH2 0x29BD PUSH2 0x29B8 DUP3 PUSH2 0x2160 JUMP JUMPDEST PUSH2 0x29A3 JUMP JUMPDEST DUP3 MSTORE POP POP JUMP JUMPDEST PUSH0 DUP2 PUSH1 0x60 SHL SWAP1 POP SWAP2 SWAP1 POP JUMP JUMPDEST PUSH0 PUSH2 0x29D9 DUP3 PUSH2 0x29C3 JUMP JUMPDEST SWAP1 POP SWAP2 SWAP1 POP JUMP JUMPDEST PUSH0 PUSH2 0x29EA DUP3 PUSH2 0x29CF JUMP JUMPDEST SWAP1 POP SWAP2 SWAP1 POP JUMP JUMPDEST PUSH2 0x2A02 PUSH2 0x29FD DUP3 PUSH2 0x2125 JUMP JUMPDEST PUSH2 0x29E0 JUMP JUMPDEST DUP3 MSTORE POP POP JUMP JUMPDEST PUSH0 PUSH2 0x2A13 DUP3 DUP7 PUSH2 0x29AC JUMP JUMPDEST PUSH1 0x20 DUP3 ADD SWAP2 POP PUSH2 0x2A23 DUP3 DUP6 PUSH2 0x29F1 JUMP JUMPDEST PUSH1 0x14 DUP3 ADD SWAP2 POP PUSH2 0x2A33 DUP3 DUP5 PUSH2 0x29AC JUMP JUMPDEST PUSH1 0x20 DUP3 ADD SWAP2 POP DUP2 SWAP1 POP SWAP5 SWAP4 POP POP POP POP JUMP JUMPDEST PUSH32 0x4E487B7100000000000000000000000000000000000000000000000000000000 PUSH0 MSTORE PUSH1 0x12 PUSH1 0x4 MSTORE PUSH1 0x24 PUSH0 REVERT JUMPDEST PUSH0 PUSH2 0x2A7B DUP3 PUSH2 0x2160 JUMP JUMPDEST SWAP2 POP PUSH2 0x2A86 DUP4 PUSH2 0x2160 JUMP JUMPDEST SWAP3 POP DUP3 PUSH2 0x2A96 JUMPI PUSH2 0x2A95 PUSH2 0x2A44 JUMP JUMPDEST JUMPDEST DUP3 DUP3 MOD SWAP1 POP SWAP3 SWAP2 POP POP JUMP JUMPDEST PUSH32 0xD092D0B0D188D0B020D180D0BED0BBD18C20D0BDD0B520D0BFD0BED0B7D0B2D0 PUSH0 DUP3 ADD MSTORE PUSH32 0xBED0BBD18FD0B5D18220D18DD182D0BE20D0B8D0B7D0BCD0B5D0BDD18FD182D1 PUSH1 0x20 DUP3 ADD MSTORE PUSH32 0x8C00000000000000000000000000000000000000000000000000000000000000 PUSH1 0x40 DUP3 ADD MSTORE POP JUMP JUMPDEST PUSH0 PUSH2 0x2B21 PUSH1 0x41 DUP4 PUSH2 0x21EA JUMP JUMPDEST SWAP2 POP PUSH2 0x2B2C DUP3 PUSH2 0x2AA1 JUMP JUMPDEST PUSH1 0x60 DUP3 ADD SWAP1 POP SWAP2 SWAP1 POP JUMP JUMPDEST PUSH0 PUSH1 0x20 DUP3 ADD SWAP1 POP DUP2 DUP2 SUB PUSH0 DUP4 ADD MSTORE PUSH2 0x2B4E DUP2 PUSH2 0x2B15 JUMP JUMPDEST SWAP1 POP SWAP2 SWAP1 POP JUMP JUMPDEST PUSH32 0xD09CD0B0D0B3D0B0D0B7D0B8D0BD20D0BDD0B520D181D0BED0BED182D0B2D0B5 PUSH0 DUP3 ADD MSTORE PUSH32 0xD182D181D0B2D183D0B5D18220D0BED182D0BFD180D0B0D0B2D0B8D182D0B5D0 PUSH1 0x20 DUP3 ADD MSTORE PUSH32 0xBBD18E0000000000000000000000000000000000000000000000000000000000 PUSH1 0x40 DUP3 ADD MSTORE POP JUMP JUMPDEST PUSH0 PUSH2 0x2BD5 PUSH1 0x43 DUP4 PUSH2 0x21EA JUMP JUMPDEST SWAP2 POP PUSH2 0x2BE0 DUP3 PUSH2 0x2B55 JUMP JUMPDEST PUSH1 0x60 DUP3 ADD SWAP1 POP SWAP2 SWAP1 POP JUMP JUMPDEST PUSH0 PUSH1 0x20 DUP3 ADD SWAP1 POP DUP2 DUP2 SUB PUSH0 DUP4 ADD MSTORE PUSH2 0x2C02 DUP2 PUSH2 0x2BC9 JUMP JUMPDEST SWAP1 POP SWAP2 SWAP1 POP JUMP JUMPDEST PUSH0 PUSH2 0x2C13 DUP3 PUSH2 0x2160 JUMP JUMPDEST SWAP2 POP PUSH2 0x2C1E DUP4 PUSH2 0x2160 JUMP JUMPDEST SWAP3 POP DUP3 PUSH2 0x2C2E JUMPI PUSH2 0x2C2D PUSH2 0x2A44 JUMP JUMPDEST JUMPDEST DUP3 DUP3 DIV SWAP1 POP SWAP3 SWAP2 POP POP JUMP JUMPDEST PUSH0 DUP2 SWAP1 POP DUP2 PUSH0 MSTORE PUSH1 0x20 PUSH0 KECCAK256 SWAP1 POP SWAP2 SWAP1 POP JUMP JUMPDEST PUSH0 PUSH1 0x20 PUSH1 0x1F DUP4 ADD DIV SWAP1 POP SWAP2 SWAP1 POP JUMP JUMPDEST PUSH0 DUP3 DUP3 SHL SWAP1 POP SWAP3 SWAP2 POP POP JUMP JUMPDEST PUSH0 PUSH1 0x8 DUP4 MUL PUSH2 0x2C95 PUSH32 0xFFFFFFFFFFFFFFFFFFFFFFFFFFFFFFFFFFFFFFFFFFFFFFFFFFFFFFFFFFFFFFFF DUP3 PUSH2 0x2C5A JUMP JUMPDEST PUSH2 0x2C9F DUP7 DUP4 PUSH2 0x2C5A JUMP JUMPDEST SWAP6 POP DUP1 NOT DUP5 AND SWAP4 POP DUP1 DUP7 AND DUP5 OR SWAP3 POP POP POP SWAP4 SWAP3 POP POP POP JUMP JUMPDEST PUSH0 DUP2 SWAP1 POP SWAP2 SWAP1 POP JUMP JUMPDEST PUSH0 PUSH2 0x2CDA PUSH2 0x2CD5 PUSH2 0x2CD0 DUP5 PUSH2 0x2160 JUMP JUMPDEST PUSH2 0x2CB7 JUMP JUMPDEST PUSH2 0x2160 JUMP JUMPDEST SWAP1 POP SWAP2 SWAP1 POP JUMP JUMPDEST PUSH0 DUP2 SWAP1 POP SWAP2 SWAP1 POP JUMP JUMPDEST PUSH2 0x2CF3 DUP4 PUSH2 0x2CC0 JUMP JUMPDEST PUSH2 0x2D07 PUSH2 0x2CFF DUP3 PUSH2 0x2CE1 JUMP JUMPDEST DUP5 DUP5 SLOAD PUSH2 0x2C66 JUMP JUMPDEST DUP3 SSTORE POP POP POP POP JUMP JUMPDEST PUSH0 SWAP1 JUMP JUMPDEST PUSH2 0x2D1B PUSH2 0x2D0F JUMP JUMPDEST PUSH2 0x2D26 DUP2 DUP5 DUP5 PUSH2 0x2CEA JUMP JUMPDEST POP POP POP JUMP JUMPDEST JUMPDEST DUP2 DUP2 LT ISZERO PUSH2 0x2D49 JUMPI PUSH2 0x2D3E PUSH0 DUP3 PUSH2 0x2D13 JUMP JUMPDEST PUSH1 0x1 DUP2 ADD SWAP1 POP PUSH2 0x2D2C JUMP JUMPDEST POP POP JUMP JUMPDEST PUSH1 0x1F DUP3 GT ISZERO PUSH2 0x2D8E JUMPI PUSH2 0x2D5F DUP2 PUSH2 0x2C39 JUMP JUMPDEST PUSH2 0x2D68 DUP5 PUSH2 0x2C4B JUMP JUMPDEST DUP2 ADD PUSH1 0x20 DUP6 LT ISZERO PUSH2 0x2D77 JUMPI DUP2 SWAP1 POP JUMPDEST PUSH2 0x2D8B PUSH2 0x2D83 DUP6 PUSH2 0x2C4B JUMP JUMPDEST DUP4 ADD DUP3 PUSH2 0x2D2B JUMP JUMPDEST POP POP JUMPDEST POP POP POP JUMP JUMPDEST PUSH0 DUP3 DUP3 SHR SWAP1 POP SWAP3 SWAP2 POP POP JUMP JUMPDEST PUSH0 PUSH2 0x2DAE PUSH0 NOT DUP5 PUSH1 0x8 MUL PUSH2 0x2D93 JUMP JUMPDEST NOT DUP1 DUP4 AND SWAP2 POP POP SWAP3 SWAP2 POP POP JUMP JUMPDEST PUSH0 PUSH2 0x2DC6 DUP4 DUP4 PUSH2 0x2D9F JUMP JUMPDEST SWAP2 POP DUP3 PUSH1 0x2 MUL DUP3 OR SWAP1 POP SWAP3 SWAP2 POP POP JUMP JUMPDEST PUSH2 0x2DDF DUP3 PUSH2 0x21E0 JUMP JUMPDEST PUSH8 0xFFFFFFFFFFFFFFFF DUP2 GT ISZERO PUSH2 0x2DF8 JUMPI PUSH2 0x2DF7 PUSH2 0x2503 JUMP JUMPDEST JUMPDEST PUSH2 0x2E02 DUP3 SLOAD PUSH2 0x282B JUMP JUMPDEST PUSH2 0x2E0D DUP3 DUP3 DUP6 PUSH2 0x2D4D JUMP JUMPDEST PUSH0 PUSH1 0x20 SWAP1 POP PUSH1 0x1F DUP4 GT PUSH1 0x1 DUP2 EQ PUSH2 0x2E3E JUMPI PUSH0 DUP5 ISZERO PUSH2 0x2E2C JUMPI DUP3 DUP8 ADD MLOAD SWAP1 POP JUMPDEST PUSH2 0x2E36 DUP6 DUP3 PUSH2 0x2DBB JUMP JUMPDEST DUP7 SSTORE POP PUSH2 0x2E9D JUMP JUMPDEST PUSH1 0x1F NOT DUP5 AND PUSH2 0x2E4C DUP7 PUSH2 0x2C39 JUMP JUMPDEST PUSH0 JUMPDEST DUP3 DUP2 LT ISZERO PUSH2 0x2E73 JUMPI DUP5 DUP10 ADD MLOAD DUP3 SSTORE PUSH1 0x1 DUP3 ADD SWAP2 POP PUSH1 0x20 DUP6 ADD SWAP5 POP PUSH1 0x20 DUP2 ADD SWAP1 POP PUSH2 0x2E4E JUMP JUMPDEST DUP7 DUP4 LT ISZERO PUSH2 0x2E90 JUMPI DUP5 DUP10 ADD MLOAD PUSH2 0x2E8C PUSH1 0x1F DUP10 AND DUP3 PUSH2 0x2D9F JUMP JUMPDEST DUP4 SSTORE POP JUMPDEST PUSH1 0x1 PUSH1 0x2 DUP9 MUL ADD DUP9 SSTORE POP POP POP JUMPDEST POP POP POP POP POP POP JUMP JUMPDEST PUSH32 0x507572636861736520616D6F756E74206D757374206265206772656174657220 PUSH0 DUP3 ADD MSTORE PUSH32 0x7468616E20300000000000000000000000000000000000000000000000000000 PUSH1 0x20 DUP3 ADD MSTORE POP JUMP JUMPDEST PUSH0 PUSH2 0x2EFF PUSH1 0x26 DUP4 PUSH2 0x21EA JUMP JUMPDEST SWAP2 POP PUSH2 0x2F0A DUP3 PUSH2 0x2EA5 JUMP JUMPDEST PUSH1 0x40 DUP3 ADD SWAP1 POP SWAP2 SWAP1 POP JUMP JUMPDEST PUSH0 PUSH1 0x20 DUP3 ADD SWAP1 POP DUP2 DUP2 SUB PUSH0 DUP4 ADD MSTORE PUSH2 0x2F2C DUP2 PUSH2 0x2EF3 JUMP JUMPDEST SWAP1 POP SWAP2 SWAP1 POP JUMP JUMPDEST PUSH32 0x496E76616C69642070726F647563742049440000000000000000000000000000 PUSH0 DUP3 ADD MSTORE POP JUMP JUMPDEST PUSH0 PUSH2 0x2F67 PUSH1 0x12 DUP4 PUSH2 0x21EA JUMP JUMPDEST SWAP2 POP PUSH2 0x2F72 DUP3 PUSH2 0x2F33 JUMP JUMPDEST PUSH1 0x20 DUP3 ADD SWAP1 POP SWAP2 SWAP1 POP JUMP JUMPDEST PUSH0 PUSH1 0x20 DUP3 ADD SWAP1 POP DUP2 DUP2 SUB PUSH0 DUP4 ADD MSTORE PUSH2 0x2F94 DUP2 PUSH2 0x2F5B JUMP JUMPDEST SWAP1 POP SWAP2 SWAP1 POP JUMP JUMPDEST PUSH32 0x4E6F7420656E6F7567682073746F636B20617661696C61626C65000000000000 PUSH0 DUP3 ADD MSTORE POP JUMP JUMPDEST PUSH0 PUSH2 0x2FCF PUSH1 0x1A DUP4 PUSH2 0x21EA JUMP JUMPDEST SWAP2 POP PUSH2 0x2FDA DUP3 PUSH2 0x2F9B JUMP JUMPDEST PUSH1 0x20 DUP3 ADD SWAP1 POP SWAP2 SWAP1 POP JUMP JUMPDEST PUSH0 PUSH1 0x20 DUP3 ADD SWAP1 POP DUP2 DUP2 SUB PUSH0 DUP4 ADD MSTORE PUSH2 0x2FFC DUP2 PUSH2 0x2FC3 JUMP JUMPDEST SWAP1 POP SWAP2 SWAP1 POP JUMP JUMPDEST PUSH0 DUP2 SWAP1 POP SWAP3 SWAP2 POP POP JUMP JUMPDEST PUSH0 PUSH2 0x3017 DUP3 PUSH2 0x21E0 JUMP JUMPDEST PUSH2 0x3021 DUP2 DUP6 PUSH2 0x3003 JUMP JUMPDEST SWAP4 POP PUSH2 0x3031 DUP2 DUP6 PUSH1 0x20 DUP7 ADD PUSH2 0x21FA JUMP JUMPDEST DUP1 DUP5 ADD SWAP2 POP POP SWAP3 SWAP2 POP POP JUMP JUMPDEST PUSH0 PUSH2 0x3048 DUP3 DUP5 PUSH2 0x300D JUMP JUMPDEST SWAP2 POP DUP2 SWAP1 POP SWAP3 SWAP2 POP POP JUMP JUMPDEST PUSH32 0x496E73756666696369656E742066756E64732073656E74000000000000000000 PUSH0 DUP3 ADD MSTORE POP JUMP JUMPDEST PUSH0 PUSH2 0x3087 PUSH1 0x17 DUP4 PUSH2 0x21EA JUMP JUMPDEST SWAP2 POP PUSH2 0x3092 DUP3 PUSH2 0x3053 JUMP JUMPDEST PUSH1 0x20 DUP3 ADD SWAP1 POP SWAP2 SWAP1 POP JUMP JUMPDEST PUSH0 PUSH1 0x20 DUP3 ADD SWAP1 POP DUP2 DUP2 SUB PUSH0 DUP4 ADD MSTORE PUSH2 0x30B4 DUP2 PUSH2 0x307B JUMP JUMPDEST SWAP1 POP SWAP2 SWAP1 POP JUMP JUMPDEST PUSH0 DUP2 SWAP1 POP SWAP3 SWAP2 POP POP JUMP JUMPDEST PUSH0 DUP2 SWAP1 POP DUP2 PUSH0 MSTORE PUSH1 0x20 PUSH0 KECCAK256 SWAP1 POP SWAP2 SWAP1 POP JUMP JUMPDEST PUSH0 DUP2 SLOAD PUSH2 0x30E3 DUP2 PUSH2 0x282B JUMP JUMPDEST PUSH2 0x30ED DUP2 DUP7 PUSH2 0x30BB JUMP JUMPDEST SWAP5 POP PUSH1 0x1 DUP3 AND PUSH0 DUP2 EQ PUSH2 0x3107 JUMPI PUSH1 0x1 DUP2 EQ PUSH2 0x311C JUMPI PUSH2 0x314E JUMP JUMPDEST PUSH1 0xFF NOT DUP4 AND DUP7 MSTORE DUP2 ISZERO ISZERO DUP3 MUL DUP7 ADD SWAP4 POP PUSH2 0x314E JUMP JUMPDEST PUSH2 0x3125 DUP6 PUSH2 0x30C5 JUMP JUMPDEST PUSH0 JUMPDEST DUP4 DUP2 LT ISZERO PUSH2 0x3146 JUMPI DUP2 SLOAD DUP2 DUP10 ADD MSTORE PUSH1 0x1 DUP3 ADD SWAP2 POP PUSH1 0x20 DUP2 ADD SWAP1 POP PUSH2 0x3127 JUMP JUMPDEST DUP4 DUP9 ADD SWAP6 POP POP POP JUMPDEST POP POP POP SWAP3 SWAP2 POP POP JUMP JUMPDEST PUSH0 PUSH2 0x3162 DUP3 DUP5 PUSH2 0x30D7 JUMP JUMPDEST SWAP2 POP DUP2 SWAP1 POP SWAP3 SWAP2 POP POP JUMP INVALID LOG2 PUSH5 0x6970667358 0x22 SLT KECCAK256 0x2A SWAP13 0xB4 SWAP1 LOG2 RETURNDATASIZE DUP6 EQ BALANCE 0x4F LOG2 0xD2 SELFDESTRUCT NOT SWAP5 CHAINID 0xE ADD SWAP1 0xCA 0x24 PUSH5 0xF26445D970 0xEE NOT RETURN CALLER SUB PUSH5 0x736F6C6343 STOP ADDMOD ISZERO STOP CALLER "
				},
				"gasEstimates": {
					"creation": {
						"codeDepositCost": "2541400",
						"executionCost": "27011",
						"totalCost": "2568411"
					},
					"external": {
						"addItemsSupplier(uint256,uint256,string,uint256,address)": "infinite",
						"approveChangeRole(uint256)": "35727",
						"changeRole(uint8)": "73422",
						"genRef(string,address)": "infinite",
						"makeMarket()": "29689",
						"makeSupplier()": "29690",
						"makeUser()": "29687",
						"owner()": "2553",
						"purchase(address,uint256,uint256,string)": "infinite",
						"randMod(uint256)": "infinite",
						"referrals(string)": "infinite",
						"refillStore(address,uint256,uint256,address)": "infinite",
						"refund(address,uint256)": "infinite",
						"tickets(uint256)": "7446",
						"userProducts(address,uint256)": "infinite",
						"users(address)": "5177",
						"withdrawBal(address)": "infinite"
					}
				},
				"methodIdentifiers": {
					"addItemsSupplier(uint256,uint256,string,uint256,address)": "861c2b6d",
					"approveChangeRole(uint256)": "6f764708",
					"changeRole(uint8)": "55dea0b3",
					"genRef(string,address)": "a1ba90b6",
					"makeMarket()": "66d0dc67",
					"makeSupplier()": "3dfe7dee",
					"makeUser()": "d18a524a",
					"owner()": "8da5cb5b",
					"purchase(address,uint256,uint256,string)": "9f1cd587",
					"randMod(uint256)": "805553e8",
					"referrals(string)": "d55768dd",
					"refillStore(address,uint256,uint256,address)": "fecd8f79",
					"refund(address,uint256)": "410085df",
					"tickets(uint256)": "50b44712",
					"userProducts(address,uint256)": "3d527883",
					"users(address)": "a87430ba",
					"withdrawBal(address)": "f67a2ad1"
				}
			},
			"storageLayout": {
				"storage": [
					{
						"astId": 9,
						"contract": "contracts/MarketPlace.sol:MarketPlace",
						"label": "tickets",
						"offset": 0,
						"slot": "0",
						"type": "t_array(t_struct(Ticket)26_storage)dyn_storage"
					},
					{
						"astId": 11,
						"contract": "contracts/MarketPlace.sol:MarketPlace",
						"label": "owner",
						"offset": 0,
						"slot": "1",
						"type": "t_address"
					},
					{
						"astId": 46,
						"contract": "contracts/MarketPlace.sol:MarketPlace",
						"label": "users",
						"offset": 0,
						"slot": "2",
						"type": "t_mapping(t_address,t_struct(User)32_storage)"
					},
					{
						"astId": 52,
						"contract": "contracts/MarketPlace.sol:MarketPlace",
						"label": "userProducts",
						"offset": 0,
						"slot": "3",
						"type": "t_mapping(t_address,t_array(t_struct(Product)41_storage)dyn_storage)"
					},
					{
						"astId": 56,
						"contract": "contracts/MarketPlace.sol:MarketPlace",
						"label": "referrals",
						"offset": 0,
						"slot": "4",
						"type": "t_mapping(t_string_memory_ptr,t_address)"
					}
				],
				"types": {
					"t_address": {
						"encoding": "inplace",
						"label": "address",
						"numberOfBytes": "20"
					},
					"t_array(t_struct(Product)41_storage)dyn_storage": {
						"base": "t_struct(Product)41_storage",
						"encoding": "dynamic_array",
						"label": "struct MarketPlace.Product[]",
						"numberOfBytes": "32"
					},
					"t_array(t_struct(Ticket)26_storage)dyn_storage": {
						"base": "t_struct(Ticket)26_storage",
						"encoding": "dynamic_array",
						"label": "struct MarketPlace.Ticket[]",
						"numberOfBytes": "32"
					},
					"t_enum(Role)5": {
						"encoding": "inplace",
						"label": "enum MarketPlace.Role",
						"numberOfBytes": "1"
					},
					"t_mapping(t_address,t_array(t_struct(Product)41_storage)dyn_storage)": {
						"encoding": "mapping",
						"key": "t_address",
						"label": "mapping(address => struct MarketPlace.Product[])",
						"numberOfBytes": "32",
						"value": "t_array(t_struct(Product)41_storage)dyn_storage"
					},
					"t_mapping(t_address,t_struct(User)32_storage)": {
						"encoding": "mapping",
						"key": "t_address",
						"label": "mapping(address => struct MarketPlace.User)",
						"numberOfBytes": "32",
						"value": "t_struct(User)32_storage"
					},
					"t_mapping(t_string_memory_ptr,t_address)": {
						"encoding": "mapping",
						"key": "t_string_memory_ptr",
						"label": "mapping(string => address)",
						"numberOfBytes": "32",
						"value": "t_address"
					},
					"t_string_memory_ptr": {
						"encoding": "bytes",
						"label": "string",
						"numberOfBytes": "32"
					},
					"t_string_storage": {
						"encoding": "bytes",
						"label": "string",
						"numberOfBytes": "32"
					},
					"t_struct(Product)41_storage": {
						"encoding": "inplace",
						"label": "struct MarketPlace.Product",
						"members": [
							{
								"astId": 34,
								"contract": "contracts/MarketPlace.sol:MarketPlace",
								"label": "inStock",
								"offset": 0,
								"slot": "0",
								"type": "t_uint256"
							},
							{
								"astId": 36,
								"contract": "contracts/MarketPlace.sol:MarketPlace",
								"label": "price",
								"offset": 0,
								"slot": "1",
								"type": "t_uint256"
							},
							{
								"astId": 38,
								"contract": "contracts/MarketPlace.sol:MarketPlace",
								"label": "name",
								"offset": 0,
								"slot": "2",
								"type": "t_string_storage"
							},
							{
								"astId": 40,
								"contract": "contracts/MarketPlace.sol:MarketPlace",
								"label": "expDate",
								"offset": 0,
								"slot": "3",
								"type": "t_uint256"
							}
						],
						"numberOfBytes": "128"
					},
					"t_struct(Ticket)26_storage": {
						"encoding": "inplace",
						"label": "struct MarketPlace.Ticket",
						"members": [
							{
								"astId": 22,
								"contract": "contracts/MarketPlace.sol:MarketPlace",
								"label": "userAddr",
								"offset": 0,
								"slot": "0",
								"type": "t_address"
							},
							{
								"astId": 25,
								"contract": "contracts/MarketPlace.sol:MarketPlace",
								"label": "role",
								"offset": 20,
								"slot": "0",
								"type": "t_enum(Role)5"
							}
						],
						"numberOfBytes": "32"
					},
					"t_struct(User)32_storage": {
						"encoding": "inplace",
						"label": "struct MarketPlace.User",
						"members": [
							{
								"astId": 29,
								"contract": "contracts/MarketPlace.sol:MarketPlace",
								"label": "role",
								"offset": 0,
								"slot": "0",
								"type": "t_enum(Role)5"
							},
							{
								"astId": 31,
								"contract": "contracts/MarketPlace.sol:MarketPlace",
								"label": "balance",
								"offset": 0,
								"slot": "1",
								"type": "t_uint256"
							}
						],
						"numberOfBytes": "64"
					},
					"t_uint256": {
						"encoding": "inplace",
						"label": "uint256",
						"numberOfBytes": "32"
					}
				}
			},
			"userdoc": {
				"kind": "user",
				"methods": {},
				"version": 1
			}
		}
	}
}