{
	"contracts/edits.sol": {
		"MarketPlace": {
			"abi": [
				{
					"inputs": [],
					"stateMutability": "nonpayable",
					"type": "constructor"
				},
				{
					"inputs": [
						{
							"internalType": "bool",
							"name": "_solution",
							"type": "bool"
						},
						{
							"internalType": "uint256",
							"name": "_deliveryId",
							"type": "uint256"
						}
					],
					"name": "acceptDelivery",
					"outputs": [],
					"stateMutability": "payable",
					"type": "function"
				},
				{
					"inputs": [
						{
							"internalType": "uint256",
							"name": "_inStock",
							"type": "uint256"
						},
						{
							"internalType": "uint256",
							"name": "_price",
							"type": "uint256"
						},
						{
							"internalType": "string",
							"name": "_name",
							"type": "string"
						},
						{
							"internalType": "uint256",
							"name": "_expDate",
							"type": "uint256"
						}
					],
					"name": "addItemsMarket",
					"outputs": [],
					"stateMutability": "nonpayable",
					"type": "function"
				},
				{
					"inputs": [
						{
							"internalType": "uint256",
							"name": "_inStock",
							"type": "uint256"
						},
						{
							"internalType": "uint256",
							"name": "_price",
							"type": "uint256"
						},
						{
							"internalType": "string",
							"name": "_name",
							"type": "string"
						},
						{
							"internalType": "uint256",
							"name": "_expDate",
							"type": "uint256"
						},
						{
							"internalType": "address",
							"name": "_addressSupp",
							"type": "address"
						}
					],
					"name": "addItemsSupplier",
					"outputs": [],
					"stateMutability": "nonpayable",
					"type": "function"
				},
				{
					"inputs": [
						{
							"internalType": "uint256",
							"name": "_idTicket",
							"type": "uint256"
						},
						{
							"internalType": "bool",
							"name": "_status",
							"type": "bool"
						}
					],
					"name": "approveChangeRole",
					"outputs": [],
					"stateMutability": "nonpayable",
					"type": "function"
				},
				{
					"inputs": [
						{
							"internalType": "bool",
							"name": "_solution",
							"type": "bool"
						},
						{
							"internalType": "uint256",
							"name": "_deliveryId",
							"type": "uint256"
						}
					],
					"name": "approveDelivery",
					"outputs": [],
					"stateMutability": "nonpayable",
					"type": "function"
				},
				{
					"inputs": [
						{
							"internalType": "enum MarketPlace.Role",
							"name": "_role",
							"type": "uint8"
						}
					],
					"name": "changeRole",
					"outputs": [],
					"stateMutability": "nonpayable",
					"type": "function"
				},
				{
					"inputs": [
						{
							"internalType": "uint256",
							"name": "",
							"type": "uint256"
						}
					],
					"name": "deliveryOrders",
					"outputs": [
						{
							"internalType": "address",
							"name": "userAddr",
							"type": "address"
						},
						{
							"internalType": "address",
							"name": "shop",
							"type": "address"
						},
						{
							"internalType": "enum MarketPlace.Status",
							"name": "status",
							"type": "uint8"
						},
						{
							"internalType": "string",
							"name": "trackNumber",
							"type": "string"
						},
						{
							"internalType": "uint256",
							"name": "productId",
							"type": "uint256"
						},
						{
							"internalType": "uint256",
							"name": "amount",
							"type": "uint256"
						}
					],
					"stateMutability": "view",
					"type": "function"
				},
				{
					"inputs": [
						{
							"internalType": "string",
							"name": "_nameRef",
							"type": "string"
						},
						{
							"internalType": "address",
							"name": "_user",
							"type": "address"
						}
					],
					"name": "genRef",
					"outputs": [],
					"stateMutability": "nonpayable",
					"type": "function"
				},
				{
					"inputs": [],
					"name": "getProductCounts",
					"outputs": [
						{
							"internalType": "uint256",
							"name": "",
							"type": "uint256"
						}
					],
					"stateMutability": "view",
					"type": "function"
				},
				{
					"inputs": [
						{
							"internalType": "address",
							"name": "_shop",
							"type": "address"
						}
					],
					"name": "getProducts",
					"outputs": [
						{
							"components": [
								{
									"internalType": "uint256",
									"name": "id",
									"type": "uint256"
								},
								{
									"internalType": "address",
									"name": "userAddress",
									"type": "address"
								},
								{
									"internalType": "uint256",
									"name": "inStock",
									"type": "uint256"
								},
								{
									"internalType": "uint256",
									"name": "price",
									"type": "uint256"
								},
								{
									"internalType": "string",
									"name": "name",
									"type": "string"
								},
								{
									"internalType": "uint256",
									"name": "expDate",
									"type": "uint256"
								}
							],
							"internalType": "struct MarketPlace.Product[]",
							"name": "",
							"type": "tuple[]"
						}
					],
					"stateMutability": "view",
					"type": "function"
				},
				{
					"inputs": [
						{
							"internalType": "address",
							"name": "",
							"type": "address"
						}
					],
					"name": "hasRoleChangeRequest",
					"outputs": [
						{
							"internalType": "bool",
							"name": "",
							"type": "bool"
						}
					],
					"stateMutability": "view",
					"type": "function"
				},
				{
					"inputs": [
						{
							"internalType": "string",
							"name": "_login",
							"type": "string"
						},
						{
							"internalType": "string",
							"name": "_password",
							"type": "string"
						}
					],
					"name": "login",
					"outputs": [
						{
							"components": [
								{
									"internalType": "string",
									"name": "login",
									"type": "string"
								},
								{
									"internalType": "string",
									"name": "firstName",
									"type": "string"
								},
								{
									"internalType": "string",
									"name": "lastName",
									"type": "string"
								},
								{
									"internalType": "enum MarketPlace.Role",
									"name": "role",
									"type": "uint8"
								},
								{
									"internalType": "uint256",
									"name": "balance",
									"type": "uint256"
								}
							],
							"internalType": "struct MarketPlace.User",
							"name": "",
							"type": "tuple"
						}
					],
					"stateMutability": "view",
					"type": "function"
				},
				{
					"inputs": [
						{
							"internalType": "address",
							"name": "_shop",
							"type": "address"
						},
						{
							"internalType": "uint256",
							"name": "_productId",
							"type": "uint256"
						},
						{
							"internalType": "uint256",
							"name": "_amount",
							"type": "uint256"
						}
					],
					"name": "makeDelivery",
					"outputs": [],
					"stateMutability": "nonpayable",
					"type": "function"
				},
				{
					"inputs": [
						{
							"internalType": "address",
							"name": "",
							"type": "address"
						},
						{
							"internalType": "uint256",
							"name": "",
							"type": "uint256"
						}
					],
					"name": "marketProducts",
					"outputs": [
						{
							"internalType": "uint256",
							"name": "id",
							"type": "uint256"
						},
						{
							"internalType": "address",
							"name": "userAddress",
							"type": "address"
						},
						{
							"internalType": "uint256",
							"name": "inStock",
							"type": "uint256"
						},
						{
							"internalType": "uint256",
							"name": "price",
							"type": "uint256"
						},
						{
							"internalType": "string",
							"name": "name",
							"type": "string"
						},
						{
							"internalType": "uint256",
							"name": "expDate",
							"type": "uint256"
						}
					],
					"stateMutability": "view",
					"type": "function"
				},
				{
					"inputs": [],
					"name": "owner",
					"outputs": [
						{
							"internalType": "address",
							"name": "",
							"type": "address"
						}
					],
					"stateMutability": "view",
					"type": "function"
				},
				{
					"inputs": [
						{
							"internalType": "address",
							"name": "",
							"type": "address"
						}
					],
					"name": "passwords",
					"outputs": [
						{
							"internalType": "bytes32",
							"name": "",
							"type": "bytes32"
						}
					],
					"stateMutability": "view",
					"type": "function"
				},
				{
					"inputs": [
						{
							"internalType": "address",
							"name": "_shop",
							"type": "address"
						},
						{
							"internalType": "uint256",
							"name": "_amount",
							"type": "uint256"
						},
						{
							"internalType": "uint256",
							"name": "_id",
							"type": "uint256"
						},
						{
							"internalType": "string",
							"name": "_ref",
							"type": "string"
						}
					],
					"name": "purchase",
					"outputs": [],
					"stateMutability": "payable",
					"type": "function"
				},
				{
					"inputs": [
						{
							"internalType": "uint256",
							"name": "_modulus",
							"type": "uint256"
						}
					],
					"name": "randMod",
					"outputs": [
						{
							"internalType": "uint256",
							"name": "",
							"type": "uint256"
						}
					],
					"stateMutability": "view",
					"type": "function"
				},
				{
					"inputs": [
						{
							"internalType": "string",
							"name": "",
							"type": "string"
						}
					],
					"name": "referrals",
					"outputs": [
						{
							"internalType": "address",
							"name": "",
							"type": "address"
						}
					],
					"stateMutability": "view",
					"type": "function"
				},
				{
					"inputs": [
						{
							"internalType": "address",
							"name": "_shop",
							"type": "address"
						},
						{
							"internalType": "uint256",
							"name": "_productId",
							"type": "uint256"
						},
						{
							"internalType": "uint256",
							"name": "_amount",
							"type": "uint256"
						},
						{
							"internalType": "address",
							"name": "_supplier",
							"type": "address"
						}
					],
					"name": "refillStore",
					"outputs": [],
					"stateMutability": "payable",
					"type": "function"
				},
				{
					"inputs": [
						{
							"internalType": "address",
							"name": "_shop",
							"type": "address"
						},
						{
							"internalType": "uint256",
							"name": "_productId",
							"type": "uint256"
						}
					],
					"name": "refundRequest",
					"outputs": [],
					"stateMutability": "nonpayable",
					"type": "function"
				},
				{
					"inputs": [
						{
							"internalType": "string",
							"name": "_login",
							"type": "string"
						},
						{
							"internalType": "string",
							"name": "_firstName",
							"type": "string"
						},
						{
							"internalType": "string",
							"name": "_lastName",
							"type": "string"
						},
						{
							"internalType": "string",
							"name": "_password",
							"type": "string"
						}
					],
					"name": "registration",
					"outputs": [],
					"stateMutability": "nonpayable",
					"type": "function"
				},
				{
					"inputs": [
						{
							"internalType": "address",
							"name": "",
							"type": "address"
						},
						{
							"internalType": "uint256",
							"name": "",
							"type": "uint256"
						}
					],
					"name": "supplierProducts",
					"outputs": [
						{
							"internalType": "uint256",
							"name": "id",
							"type": "uint256"
						},
						{
							"internalType": "address",
							"name": "userAddress",
							"type": "address"
						},
						{
							"internalType": "uint256",
							"name": "inStock",
							"type": "uint256"
						},
						{
							"internalType": "uint256",
							"name": "price",
							"type": "uint256"
						},
						{
							"internalType": "string",
							"name": "name",
							"type": "string"
						},
						{
							"internalType": "uint256",
							"name": "expDate",
							"type": "uint256"
						}
					],
					"stateMutability": "view",
					"type": "function"
				},
				{
					"inputs": [
						{
							"internalType": "uint256",
							"name": "",
							"type": "uint256"
						}
					],
					"name": "tickets",
					"outputs": [
						{
							"internalType": "address",
							"name": "userAddr",
							"type": "address"
						},
						{
							"internalType": "enum MarketPlace.Role",
							"name": "role",
							"type": "uint8"
						}
					],
					"stateMutability": "view",
					"type": "function"
				},
				{
					"inputs": [
						{
							"internalType": "address",
							"name": "",
							"type": "address"
						},
						{
							"internalType": "uint256",
							"name": "",
							"type": "uint256"
						}
					],
					"name": "userProducts",
					"outputs": [
						{
							"internalType": "uint256",
							"name": "id",
							"type": "uint256"
						},
						{
							"internalType": "address",
							"name": "userAddress",
							"type": "address"
						},
						{
							"internalType": "uint256",
							"name": "inStock",
							"type": "uint256"
						},
						{
							"internalType": "uint256",
							"name": "price",
							"type": "uint256"
						},
						{
							"internalType": "string",
							"name": "name",
							"type": "string"
						},
						{
							"internalType": "uint256",
							"name": "expDate",
							"type": "uint256"
						}
					],
					"stateMutability": "view",
					"type": "function"
				},
				{
					"inputs": [
						{
							"internalType": "address",
							"name": "",
							"type": "address"
						}
					],
					"name": "users",
					"outputs": [
						{
							"internalType": "string",
							"name": "login",
							"type": "string"
						},
						{
							"internalType": "string",
							"name": "firstName",
							"type": "string"
						},
						{
							"internalType": "string",
							"name": "lastName",
							"type": "string"
						},
						{
							"internalType": "enum MarketPlace.Role",
							"name": "role",
							"type": "uint8"
						},
						{
							"internalType": "uint256",
							"name": "balance",
							"type": "uint256"
						}
					],
					"stateMutability": "view",
					"type": "function"
				},
				{
					"inputs": [],
					"name": "withdrawBal",
					"outputs": [],
					"stateMutability": "nonpayable",
					"type": "function"
				}
			],
			"devdoc": {
				"kind": "dev",
				"methods": {},
				"version": 1
			},
			"evm": {
				"assembly": "    /* \"contracts/edits.sol\":301:9789  contract MarketPlace {... */\n  mstore(0x40, 0x80)\n    /* \"contracts/edits.sol\":1547:1596  constructor() {... */\n  callvalue\n  dup1\n  iszero\n  tag_1\n  jumpi\n  0x00\n  dup1\n  revert\ntag_1:\n  pop\n    /* \"contracts/edits.sol\":1579:1589  msg.sender */\n  caller\n    /* \"contracts/edits.sol\":1571:1576  owner */\n  0x01\n  0x00\n    /* \"contracts/edits.sol\":1571:1589  owner = msg.sender */\n  0x0100\n  exp\n  dup2\n  sload\n  dup2\n  0xffffffffffffffffffffffffffffffffffffffff\n  mul\n  not\n  and\n  swap1\n  dup4\n  0xffffffffffffffffffffffffffffffffffffffff\n  and\n  mul\n  or\n  swap1\n  sstore\n  pop\n    /* \"contracts/edits.sol\":301:9789  contract MarketPlace {... */\n  dataSize(sub_0)\n  dup1\n  dataOffset(sub_0)\n  0x00\n  codecopy\n  0x00\n  return\nstop\n\nsub_0: assembly {\n        /* \"contracts/edits.sol\":301:9789  contract MarketPlace {... */\n      mstore(0x40, 0x80)\n      jumpi(tag_1, lt(calldatasize, 0x04))\n      shr(0xe0, calldataload(0x00))\n      dup1\n      0x805553e8\n      gt\n      tag_29\n      jumpi\n      dup1\n      0xb66959d2\n      gt\n      tag_30\n      jumpi\n      dup1\n      0xda0d37e6\n      gt\n      tag_31\n      jumpi\n      dup1\n      0xda0d37e6\n      eq\n      tag_25\n      jumpi\n      dup1\n      0xda76af31\n      eq\n      tag_26\n      jumpi\n      dup1\n      0xf6364cc1\n      eq\n      tag_27\n      jumpi\n      dup1\n      0xfecd8f79\n      eq\n      tag_28\n      jumpi\n      jump(tag_1)\n    tag_31:\n      dup1\n      0xb66959d2\n      eq\n      tag_22\n      jumpi\n      dup1\n      0xd35e5d95\n      eq\n      tag_23\n      jumpi\n      dup1\n      0xd55768dd\n      eq\n      tag_24\n      jumpi\n      jump(tag_1)\n    tag_30:\n      dup1\n      0x9f1cd587\n      gt\n      tag_32\n      jumpi\n      dup1\n      0x9f1cd587\n      eq\n      tag_18\n      jumpi\n      dup1\n      0xa1ba90b6\n      eq\n      tag_19\n      jumpi\n      dup1\n      0xa87430ba\n      eq\n      tag_20\n      jumpi\n      dup1\n      0xb17d8553\n      eq\n      tag_21\n      jumpi\n      jump(tag_1)\n    tag_32:\n      dup1\n      0x805553e8\n      eq\n      tag_15\n      jumpi\n      dup1\n      0x861c2b6d\n      eq\n      tag_16\n      jumpi\n      dup1\n      0x8da5cb5b\n      eq\n      tag_17\n      jumpi\n      jump(tag_1)\n    tag_29:\n      dup1\n      0x4f424547\n      gt\n      tag_33\n      jumpi\n      dup1\n      0x58467dbc\n      gt\n      tag_34\n      jumpi\n      dup1\n      0x58467dbc\n      eq\n      tag_11\n      jumpi\n      dup1\n      0x7555bf10\n      eq\n      tag_12\n      jumpi\n      dup1\n      0x7e2cff28\n      eq\n      tag_13\n      jumpi\n      dup1\n      0x7eb33a58\n      eq\n      tag_14\n      jumpi\n      jump(tag_1)\n    tag_34:\n      dup1\n      0x4f424547\n      eq\n      tag_8\n      jumpi\n      dup1\n      0x50b44712\n      eq\n      tag_9\n      jumpi\n      dup1\n      0x55dea0b3\n      eq\n      tag_10\n      jumpi\n      jump(tag_1)\n    tag_33:\n      dup1\n      0x8de16a\n      eq\n      tag_2\n      jumpi\n      dup1\n      0x1691473c\n      eq\n      tag_3\n      jumpi\n      dup1\n      0x1cc11721\n      eq\n      tag_4\n      jumpi\n      dup1\n      0x27b90b1b\n      eq\n      tag_5\n      jumpi\n      dup1\n      0x3d527883\n      eq\n      tag_6\n      jumpi\n      dup1\n      0x401176e3\n      eq\n      tag_7\n      jumpi\n    tag_1:\n      0x00\n      dup1\n      revert\n        /* \"contracts/edits.sol\":5768:6039  function addItemsMarket(uint _inStock, uint _price, string calldata _name, uint _expDate) external  AccessControl(Role.Market) { ... */\n    tag_2:\n      callvalue\n      dup1\n      iszero\n      tag_35\n      jumpi\n      0x00\n      dup1\n      revert\n    tag_35:\n      pop\n      tag_36\n      0x04\n      dup1\n      calldatasize\n      sub\n      dup2\n      add\n      swap1\n      tag_37\n      swap2\n      swap1\n      tag_38\n      jump\t// in\n    tag_37:\n      tag_39\n      jump\t// in\n    tag_36:\n      stop\n        /* \"contracts/edits.sol\":2717:2835  function getProducts(address _shop) public view returns(Product[] memory){... */\n    tag_3:\n      callvalue\n      dup1\n      iszero\n      tag_40\n      jumpi\n      0x00\n      dup1\n      revert\n    tag_40:\n      pop\n      tag_41\n      0x04\n      dup1\n      calldatasize\n      sub\n      dup2\n      add\n      swap1\n      tag_42\n      swap2\n      swap1\n      tag_43\n      jump\t// in\n    tag_42:\n      tag_44\n      jump\t// in\n    tag_41:\n      mload(0x40)\n      tag_45\n      swap2\n      swap1\n      tag_46\n      jump\t// in\n    tag_45:\n      mload(0x40)\n      dup1\n      swap2\n      sub\n      swap1\n      return\n        /* \"contracts/edits.sol\":1035:1072  DeliveryOrder[] public deliveryOrders */\n    tag_4:\n      callvalue\n      dup1\n      iszero\n      tag_47\n      jumpi\n      0x00\n      dup1\n      revert\n    tag_47:\n      pop\n      tag_48\n      0x04\n      dup1\n      calldatasize\n      sub\n      dup2\n      add\n      swap1\n      tag_49\n      swap2\n      swap1\n      tag_50\n      jump\t// in\n    tag_49:\n      tag_51\n      jump\t// in\n    tag_48:\n      mload(0x40)\n      tag_52\n      swap7\n      swap6\n      swap5\n      swap4\n      swap3\n      swap2\n      swap1\n      tag_53\n      jump\t// in\n    tag_52:\n      mload(0x40)\n      dup1\n      swap2\n      sub\n      swap1\n      return\n        /* \"contracts/edits.sol\":1386:1439  mapping(address => Product[]) public supplierProducts */\n    tag_5:\n      callvalue\n      dup1\n      iszero\n      tag_54\n      jumpi\n      0x00\n      dup1\n      revert\n    tag_54:\n      pop\n      tag_55\n      0x04\n      dup1\n      calldatasize\n      sub\n      dup2\n      add\n      swap1\n      tag_56\n      swap2\n      swap1\n      tag_57\n      jump\t// in\n    tag_56:\n      tag_58\n      jump\t// in\n    tag_55:\n      mload(0x40)\n      tag_59\n      swap7\n      swap6\n      swap5\n      swap4\n      swap3\n      swap2\n      swap1\n      tag_60\n      jump\t// in\n    tag_59:\n      mload(0x40)\n      dup1\n      swap2\n      sub\n      swap1\n      return\n        /* \"contracts/edits.sol\":1274:1323  mapping(address => Product[]) public userProducts */\n    tag_6:\n      callvalue\n      dup1\n      iszero\n      tag_61\n      jumpi\n      0x00\n      dup1\n      revert\n    tag_61:\n      pop\n      tag_62\n      0x04\n      dup1\n      calldatasize\n      sub\n      dup2\n      add\n      swap1\n      tag_63\n      swap2\n      swap1\n      tag_57\n      jump\t// in\n    tag_63:\n      tag_64\n      jump\t// in\n    tag_62:\n      mload(0x40)\n      tag_65\n      swap7\n      swap6\n      swap5\n      swap4\n      swap3\n      swap2\n      swap1\n      tag_60\n      jump\t// in\n    tag_65:\n      mload(0x40)\n      dup1\n      swap2\n      sub\n      swap1\n      return\n        /* \"contracts/edits.sol\":7384:8305  function refundRequest(address _shop, uint _productId) external {... */\n    tag_7:\n      callvalue\n      dup1\n      iszero\n      tag_66\n      jumpi\n      0x00\n      dup1\n      revert\n    tag_66:\n      pop\n      tag_67\n      0x04\n      dup1\n      calldatasize\n      sub\n      dup2\n      add\n      swap1\n      tag_68\n      swap2\n      swap1\n      tag_57\n      jump\t// in\n    tag_68:\n      tag_69\n      jump\t// in\n    tag_67:\n      stop\n        /* \"contracts/edits.sol\":1329:1380  mapping(address => Product[]) public marketProducts */\n    tag_8:\n      callvalue\n      dup1\n      iszero\n      tag_70\n      jumpi\n      0x00\n      dup1\n      revert\n    tag_70:\n      pop\n      tag_71\n      0x04\n      dup1\n      calldatasize\n      sub\n      dup2\n      add\n      swap1\n      tag_72\n      swap2\n      swap1\n      tag_57\n      jump\t// in\n    tag_72:\n      tag_73\n      jump\t// in\n    tag_71:\n      mload(0x40)\n      tag_74\n      swap7\n      swap6\n      swap5\n      swap4\n      swap3\n      swap2\n      swap1\n      tag_60\n      jump\t// in\n    tag_74:\n      mload(0x40)\n      dup1\n      swap2\n      sub\n      swap1\n      return\n        /* \"contracts/edits.sol\":979:1002  Ticket[] public tickets */\n    tag_9:\n      callvalue\n      dup1\n      iszero\n      tag_75\n      jumpi\n      0x00\n      dup1\n      revert\n    tag_75:\n      pop\n      tag_76\n      0x04\n      dup1\n      calldatasize\n      sub\n      dup2\n      add\n      swap1\n      tag_77\n      swap2\n      swap1\n      tag_50\n      jump\t// in\n    tag_77:\n      tag_78\n      jump\t// in\n    tag_76:\n      mload(0x40)\n      tag_79\n      swap3\n      swap2\n      swap1\n      tag_80\n      jump\t// in\n    tag_79:\n      mload(0x40)\n      dup1\n      swap2\n      sub\n      swap1\n      return\n        /* \"contracts/edits.sol\":3637:3833  function changeRole(Role _role) public {... */\n    tag_10:\n      callvalue\n      dup1\n      iszero\n      tag_81\n      jumpi\n      0x00\n      dup1\n      revert\n    tag_81:\n      pop\n      tag_82\n      0x04\n      dup1\n      calldatasize\n      sub\n      dup2\n      add\n      swap1\n      tag_83\n      swap2\n      swap1\n      tag_84\n      jump\t// in\n    tag_83:\n      tag_85\n      jump\t// in\n    tag_82:\n      stop\n        /* \"contracts/edits.sol\":2338:2711  function login(string memory _login, string memory _password) external view returns(User memory) {... */\n    tag_11:\n      callvalue\n      dup1\n      iszero\n      tag_86\n      jumpi\n      0x00\n      dup1\n      revert\n    tag_86:\n      pop\n      tag_87\n      0x04\n      dup1\n      calldatasize\n      sub\n      dup2\n      add\n      swap1\n      tag_88\n      swap2\n      swap1\n      tag_89\n      jump\t// in\n    tag_88:\n      tag_90\n      jump\t// in\n    tag_87:\n      mload(0x40)\n      tag_91\n      swap2\n      swap1\n      tag_92\n      jump\t// in\n    tag_91:\n      mload(0x40)\n      dup1\n      swap2\n      sub\n      swap1\n      return\n        /* \"contracts/edits.sol\":4171:4720  function makeDelivery(address _shop, uint _productId, uint _amount) external  {... */\n    tag_12:\n      callvalue\n      dup1\n      iszero\n      tag_93\n      jumpi\n      0x00\n      dup1\n      revert\n    tag_93:\n      pop\n      tag_94\n      0x04\n      dup1\n      calldatasize\n      sub\n      dup2\n      add\n      swap1\n      tag_95\n      swap2\n      swap1\n      tag_96\n      jump\t// in\n    tag_95:\n      tag_97\n      jump\t// in\n    tag_94:\n      stop\n        /* \"contracts/edits.sol\":1079:1131  mapping(address => bool) public hasRoleChangeRequest */\n    tag_13:\n      callvalue\n      dup1\n      iszero\n      tag_98\n      jumpi\n      0x00\n      dup1\n      revert\n    tag_98:\n      pop\n      tag_99\n      0x04\n      dup1\n      calldatasize\n      sub\n      dup2\n      add\n      swap1\n      tag_100\n      swap2\n      swap1\n      tag_43\n      jump\t// in\n    tag_100:\n      tag_101\n      jump\t// in\n    tag_99:\n      mload(0x40)\n      tag_102\n      swap2\n      swap1\n      tag_103\n      jump\t// in\n    tag_102:\n      mload(0x40)\n      dup1\n      swap2\n      sub\n      swap1\n      return\n        /* \"contracts/edits.sol\":4726:5024  function approveDelivery(bool _solution, uint _deliveryId) external  AccessControl(Role.Market) { ... */\n    tag_14:\n      callvalue\n      dup1\n      iszero\n      tag_104\n      jumpi\n      0x00\n      dup1\n      revert\n    tag_104:\n      pop\n      tag_105\n      0x04\n      dup1\n      calldatasize\n      sub\n      dup2\n      add\n      swap1\n      tag_106\n      swap2\n      swap1\n      tag_107\n      jump\t// in\n    tag_106:\n      tag_108\n      jump\t// in\n    tag_105:\n      stop\n        /* \"contracts/edits.sol\":3840:4050  function randMod(uint _modulus) public view returns(uint) { ... */\n    tag_15:\n      callvalue\n      dup1\n      iszero\n      tag_109\n      jumpi\n      0x00\n      dup1\n      revert\n    tag_109:\n      pop\n      tag_110\n      0x04\n      dup1\n      calldatasize\n      sub\n      dup2\n      add\n      swap1\n      tag_111\n      swap2\n      swap1\n      tag_50\n      jump\t// in\n    tag_111:\n      tag_112\n      jump\t// in\n    tag_110:\n      mload(0x40)\n      tag_113\n      swap2\n      swap1\n      tag_114\n      jump\t// in\n    tag_113:\n      mload(0x40)\n      dup1\n      swap2\n      sub\n      swap1\n      return\n        /* \"contracts/edits.sol\":5456:5762  function addItemsSupplier(uint _inStock, uint _price, string calldata _name, uint _expDate, address _addressSupp) external  AccessControl(Role.Supplier) {... */\n    tag_16:\n      callvalue\n      dup1\n      iszero\n      tag_115\n      jumpi\n      0x00\n      dup1\n      revert\n    tag_115:\n      pop\n      tag_116\n      0x04\n      dup1\n      calldatasize\n      sub\n      dup2\n      add\n      swap1\n      tag_117\n      swap2\n      swap1\n      tag_118\n      jump\t// in\n    tag_117:\n      tag_119\n      jump\t// in\n    tag_116:\n      stop\n        /* \"contracts/edits.sol\":1008:1028  address public owner */\n    tag_17:\n      callvalue\n      dup1\n      iszero\n      tag_120\n      jumpi\n      0x00\n      dup1\n      revert\n    tag_120:\n      pop\n      tag_121\n      tag_122\n      jump\t// in\n    tag_121:\n      mload(0x40)\n      tag_123\n      swap2\n      swap1\n      tag_124\n      jump\t// in\n    tag_123:\n      mload(0x40)\n      dup1\n      swap2\n      sub\n      swap1\n      return\n        /* \"contracts/edits.sol\":8311:9612  function purchase(address _shop, uint _amount, uint _id, string memory _ref ) public payable {... */\n    tag_18:\n      tag_125\n      0x04\n      dup1\n      calldatasize\n      sub\n      dup2\n      add\n      swap1\n      tag_126\n      swap2\n      swap1\n      tag_127\n      jump\t// in\n    tag_126:\n      tag_128\n      jump\t// in\n    tag_125:\n      stop\n        /* \"contracts/edits.sol\":4056:4164  function genRef(string memory _nameRef, address _user) external {... */\n    tag_19:\n      callvalue\n      dup1\n      iszero\n      tag_129\n      jumpi\n      0x00\n      dup1\n      revert\n    tag_129:\n      pop\n      tag_130\n      0x04\n      dup1\n      calldatasize\n      sub\n      dup2\n      add\n      swap1\n      tag_131\n      swap2\n      swap1\n      tag_132\n      jump\t// in\n    tag_131:\n      tag_133\n      jump\t// in\n    tag_130:\n      stop\n        /* \"contracts/edits.sol\":1137:1174  mapping(address => User) public users */\n    tag_20:\n      callvalue\n      dup1\n      iszero\n      tag_134\n      jumpi\n      0x00\n      dup1\n      revert\n    tag_134:\n      pop\n      tag_135\n      0x04\n      dup1\n      calldatasize\n      sub\n      dup2\n      add\n      swap1\n      tag_136\n      swap2\n      swap1\n      tag_43\n      jump\t// in\n    tag_136:\n      tag_137\n      jump\t// in\n    tag_135:\n      mload(0x40)\n      tag_138\n      swap6\n      swap5\n      swap4\n      swap3\n      swap2\n      swap1\n      tag_139\n      jump\t// in\n    tag_138:\n      mload(0x40)\n      dup1\n      swap2\n      sub\n      swap1\n      return\n        /* \"contracts/edits.sol\":2051:2332  function registration(string memory _login, string memory _firstName, string memory _lastName, string memory _password) external {... */\n    tag_21:\n      callvalue\n      dup1\n      iszero\n      tag_140\n      jumpi\n      0x00\n      dup1\n      revert\n    tag_140:\n      pop\n      tag_141\n      0x04\n      dup1\n      calldatasize\n      sub\n      dup2\n      add\n      swap1\n      tag_142\n      swap2\n      swap1\n      tag_143\n      jump\t// in\n    tag_142:\n      tag_144\n      jump\t// in\n    tag_141:\n      stop\n        /* \"contracts/edits.sol\":3227:3630  function approveChangeRole(uint _idTicket, bool _status) external OnlyOwner { ... */\n    tag_22:\n      callvalue\n      dup1\n      iszero\n      tag_145\n      jumpi\n      0x00\n      dup1\n      revert\n    tag_145:\n      pop\n      tag_146\n      0x04\n      dup1\n      calldatasize\n      sub\n      dup2\n      add\n      swap1\n      tag_147\n      swap2\n      swap1\n      tag_148\n      jump\t// in\n    tag_147:\n      tag_149\n      jump\t// in\n    tag_146:\n      stop\n        /* \"contracts/edits.sol\":1837:1947  function getProductCounts() external view returns(uint){... */\n    tag_23:\n      callvalue\n      dup1\n      iszero\n      tag_150\n      jumpi\n      0x00\n      dup1\n      revert\n    tag_150:\n      pop\n      tag_151\n      tag_152\n      jump\t// in\n    tag_151:\n      mload(0x40)\n      tag_153\n      swap2\n      swap1\n      tag_114\n      jump\t// in\n    tag_153:\n      mload(0x40)\n      dup1\n      swap2\n      sub\n      swap1\n      return\n        /* \"contracts/edits.sol\":1446:1489  mapping(string => address) public referrals */\n    tag_24:\n      callvalue\n      dup1\n      iszero\n      tag_154\n      jumpi\n      0x00\n      dup1\n      revert\n    tag_154:\n      pop\n      tag_155\n      0x04\n      dup1\n      calldatasize\n      sub\n      dup2\n      add\n      swap1\n      tag_156\n      swap2\n      swap1\n      tag_157\n      jump\t// in\n    tag_156:\n      tag_158\n      jump\t// in\n    tag_155:\n      mload(0x40)\n      tag_159\n      swap2\n      swap1\n      tag_124\n      jump\t// in\n    tag_159:\n      mload(0x40)\n      dup1\n      swap2\n      sub\n      swap1\n      return\n        /* \"contracts/edits.sol\":1496:1540  mapping(address => bytes32) public passwords */\n    tag_25:\n      callvalue\n      dup1\n      iszero\n      tag_160\n      jumpi\n      0x00\n      dup1\n      revert\n    tag_160:\n      pop\n      tag_161\n      0x04\n      dup1\n      calldatasize\n      sub\n      dup2\n      add\n      swap1\n      tag_162\n      swap2\n      swap1\n      tag_43\n      jump\t// in\n    tag_162:\n      tag_163\n      jump\t// in\n    tag_161:\n      mload(0x40)\n      tag_164\n      swap2\n      swap1\n      tag_165\n      jump\t// in\n    tag_164:\n      mload(0x40)\n      dup1\n      swap2\n      sub\n      swap1\n      return\n        /* \"contracts/edits.sol\":5030:5450  function acceptDelivery(bool _solution, uint _deliveryId) external  payable AccessControl(Role.User) { ... */\n    tag_26:\n      tag_166\n      0x04\n      dup1\n      calldatasize\n      sub\n      dup2\n      add\n      swap1\n      tag_167\n      swap2\n      swap1\n      tag_107\n      jump\t// in\n    tag_167:\n      tag_168\n      jump\t// in\n    tag_166:\n      stop\n        /* \"contracts/edits.sol\":9618:9787  function withdrawBal() public AccessControl(Role.Market) { ... */\n    tag_27:\n      callvalue\n      dup1\n      iszero\n      tag_169\n      jumpi\n      0x00\n      dup1\n      revert\n    tag_169:\n      pop\n      tag_170\n      tag_171\n      jump\t// in\n    tag_170:\n      stop\n        /* \"contracts/edits.sol\":6050:7378  function refillStore(address _shop, uint _productId, uint _amount, address _supplier) external payable AccessControl(Role.Market) {... */\n    tag_28:\n      tag_172\n      0x04\n      dup1\n      calldatasize\n      sub\n      dup2\n      add\n      swap1\n      tag_173\n      swap2\n      swap1\n      tag_174\n      jump\t// in\n    tag_173:\n      tag_175\n      jump\t// in\n    tag_172:\n      stop\n        /* \"contracts/edits.sol\":5768:6039  function addItemsMarket(uint _inStock, uint _price, string calldata _name, uint _expDate) external  AccessControl(Role.Market) { ... */\n    tag_39:\n        /* \"contracts/edits.sol\":5882:5893  Role.Market */\n      0x01\n        /* \"contracts/edits.sol\":1767:1772  _role */\n      dup1\n        /* \"contracts/edits.sol\":1741:1772  users[msg.sender].role == _role */\n      0x02\n      dup2\n      gt\n      iszero\n      tag_177\n      jumpi\n      tag_178\n      tag_179\n      jump\t// in\n    tag_178:\n    tag_177:\n        /* \"contracts/edits.sol\":1741:1746  users */\n      0x04\n        /* \"contracts/edits.sol\":1741:1758  users[msg.sender] */\n      0x00\n        /* \"contracts/edits.sol\":1747:1757  msg.sender */\n      caller\n        /* \"contracts/edits.sol\":1741:1758  users[msg.sender] */\n      0xffffffffffffffffffffffffffffffffffffffff\n      and\n      0xffffffffffffffffffffffffffffffffffffffff\n      and\n      dup2\n      mstore\n      0x20\n      add\n      swap1\n      dup2\n      mstore\n      0x20\n      add\n      0x00\n      keccak256\n        /* \"contracts/edits.sol\":1741:1763  users[msg.sender].role */\n      0x03\n      add\n      0x00\n      swap1\n      sload\n      swap1\n      0x0100\n      exp\n      swap1\n      div\n      0xff\n      and\n        /* \"contracts/edits.sol\":1741:1772  users[msg.sender].role == _role */\n      0x02\n      dup2\n      gt\n      iszero\n      tag_180\n      jumpi\n      tag_181\n      tag_179\n      jump\t// in\n    tag_181:\n    tag_180:\n      eq\n        /* \"contracts/edits.sol\":1733:1813  require(users[msg.sender].role == _role, \"Your role does not allow this change\") */\n      tag_182\n      jumpi\n      mload(0x40)\n      0x08c379a000000000000000000000000000000000000000000000000000000000\n      dup2\n      mstore\n      0x04\n      add\n      tag_183\n      swap1\n      tag_184\n      jump\t// in\n    tag_183:\n      mload(0x40)\n      dup1\n      swap2\n      sub\n      swap1\n      revert\n    tag_182:\n        /* \"contracts/edits.sol\":5906:5925  Product memory item */\n      0x00\n        /* \"contracts/edits.sol\":5928:5985  Product(0, msg.sender, _inStock, _price, _name, _expDate) */\n      mload(0x40)\n      dup1\n      0xc0\n      add\n      0x40\n      mstore\n      dup1\n        /* \"contracts/edits.sol\":5936:5937  0 */\n      0x00\n        /* \"contracts/edits.sol\":5928:5985  Product(0, msg.sender, _inStock, _price, _name, _expDate) */\n      dup2\n      mstore\n      0x20\n      add\n        /* \"contracts/edits.sol\":5939:5949  msg.sender */\n      caller\n        /* \"contracts/edits.sol\":5928:5985  Product(0, msg.sender, _inStock, _price, _name, _expDate) */\n      0xffffffffffffffffffffffffffffffffffffffff\n      and\n      dup2\n      mstore\n      0x20\n      add\n        /* \"contracts/edits.sol\":5951:5959  _inStock */\n      dup9\n        /* \"contracts/edits.sol\":5928:5985  Product(0, msg.sender, _inStock, _price, _name, _expDate) */\n      dup2\n      mstore\n      0x20\n      add\n        /* \"contracts/edits.sol\":5961:5967  _price */\n      dup8\n        /* \"contracts/edits.sol\":5928:5985  Product(0, msg.sender, _inStock, _price, _name, _expDate) */\n      dup2\n      mstore\n      0x20\n      add\n        /* \"contracts/edits.sol\":5969:5974  _name */\n      dup7\n      dup7\n        /* \"contracts/edits.sol\":5928:5985  Product(0, msg.sender, _inStock, _price, _name, _expDate) */\n      dup1\n      dup1\n      0x1f\n      add\n      0x20\n      dup1\n      swap2\n      div\n      mul\n      0x20\n      add\n      mload(0x40)\n      swap1\n      dup2\n      add\n      0x40\n      mstore\n      dup1\n      swap4\n      swap3\n      swap2\n      swap1\n      dup2\n      dup2\n      mstore\n      0x20\n      add\n      dup4\n      dup4\n      dup1\n      dup3\n      dup5\n      calldatacopy\n      0x00\n      dup2\n      dup5\n      add\n      mstore\n      not(0x1f)\n      0x1f\n      dup3\n      add\n      and\n      swap1\n      pop\n      dup1\n      dup4\n      add\n      swap3\n      pop\n      pop\n      pop\n      pop\n      pop\n      pop\n      pop\n      dup2\n      mstore\n      0x20\n      add\n        /* \"contracts/edits.sol\":5976:5984  _expDate */\n      dup5\n        /* \"contracts/edits.sol\":5928:5985  Product(0, msg.sender, _inStock, _price, _name, _expDate) */\n      dup2\n      mstore\n      pop\n        /* \"contracts/edits.sol\":5906:5985  Product memory item = Product(0, msg.sender, _inStock, _price, _name, _expDate) */\n      swap1\n      pop\n        /* \"contracts/edits.sol\":5995:6009  marketProducts */\n      0x06\n        /* \"contracts/edits.sol\":5995:6021  marketProducts[msg.sender] */\n      0x00\n        /* \"contracts/edits.sol\":6010:6020  msg.sender */\n      caller\n        /* \"contracts/edits.sol\":5995:6021  marketProducts[msg.sender] */\n      0xffffffffffffffffffffffffffffffffffffffff\n      and\n      0xffffffffffffffffffffffffffffffffffffffff\n      and\n      dup2\n      mstore\n      0x20\n      add\n      swap1\n      dup2\n      mstore\n      0x20\n      add\n      0x00\n      keccak256\n        /* \"contracts/edits.sol\":6027:6031  item */\n      dup2\n        /* \"contracts/edits.sol\":5995:6032  marketProducts[msg.sender].push(item) */\n      swap1\n      dup1\n      0x01\n      dup2\n      sload\n      add\n      dup1\n      dup3\n      sstore\n      dup1\n      swap2\n      pop\n      pop\n      0x01\n      swap1\n      sub\n      swap1\n      0x00\n      mstore\n      keccak256(0x00, 0x20)\n      swap1\n      0x06\n      mul\n      add\n      0x00\n      swap1\n      swap2\n      swap1\n      swap2\n      swap1\n      swap2\n      pop\n      0x00\n      dup3\n      add\n      mload\n      dup2\n      0x00\n      add\n      sstore\n      0x20\n      dup3\n      add\n      mload\n      dup2\n      0x01\n      add\n      exp(0x0100, 0x00)\n      dup2\n      sload\n      dup2\n      0xffffffffffffffffffffffffffffffffffffffff\n      mul\n      not\n      and\n      swap1\n      dup4\n      0xffffffffffffffffffffffffffffffffffffffff\n      and\n      mul\n      or\n      swap1\n      sstore\n      pop\n      0x40\n      dup3\n      add\n      mload\n      dup2\n      0x02\n      add\n      sstore\n      0x60\n      dup3\n      add\n      mload\n      dup2\n      0x03\n      add\n      sstore\n      0x80\n      dup3\n      add\n      mload\n      dup2\n      0x04\n      add\n      swap1\n      dup2\n      tag_187\n      swap2\n      swap1\n      tag_188\n      jump\t// in\n    tag_187:\n      pop\n      0xa0\n      dup3\n      add\n      mload\n      dup2\n      0x05\n      add\n      sstore\n      pop\n      pop\n        /* \"contracts/edits.sol\":5895:6039  { ... */\n      pop\n        /* \"contracts/edits.sol\":5768:6039  function addItemsMarket(uint _inStock, uint _price, string calldata _name, uint _expDate) external  AccessControl(Role.Market) { ... */\n      pop\n      pop\n      pop\n      pop\n      pop\n      pop\n      jump\t// out\n        /* \"contracts/edits.sol\":2717:2835  function getProducts(address _shop) public view returns(Product[] memory){... */\n    tag_44:\n        /* \"contracts/edits.sol\":2773:2789  Product[] memory */\n      0x60\n        /* \"contracts/edits.sol\":2807:2821  marketProducts */\n      0x06\n        /* \"contracts/edits.sol\":2807:2828  marketProducts[_shop] */\n      0x00\n        /* \"contracts/edits.sol\":2822:2827  _shop */\n      dup4\n        /* \"contracts/edits.sol\":2807:2828  marketProducts[_shop] */\n      0xffffffffffffffffffffffffffffffffffffffff\n      and\n      0xffffffffffffffffffffffffffffffffffffffff\n      and\n      dup2\n      mstore\n      0x20\n      add\n      swap1\n      dup2\n      mstore\n      0x20\n      add\n      0x00\n      keccak256\n        /* \"contracts/edits.sol\":2800:2828  return marketProducts[_shop] */\n      dup1\n      sload\n      dup1\n      0x20\n      mul\n      0x20\n      add\n      mload(0x40)\n      swap1\n      dup2\n      add\n      0x40\n      mstore\n      dup1\n      swap3\n      swap2\n      swap1\n      dup2\n      dup2\n      mstore\n      0x20\n      add\n      0x00\n      swap1\n    tag_190:\n      dup3\n      dup3\n      lt\n      iszero\n      tag_191\n      jumpi\n      dup4\n      dup3\n      swap1\n      0x00\n      mstore\n      keccak256(0x00, 0x20)\n      swap1\n      0x06\n      mul\n      add\n      mload(0x40)\n      dup1\n      0xc0\n      add\n      0x40\n      mstore\n      swap1\n      dup2\n      0x00\n      dup3\n      add\n      sload\n      dup2\n      mstore\n      0x20\n      add\n      0x01\n      dup3\n      add\n      0x00\n      swap1\n      sload\n      swap1\n      0x0100\n      exp\n      swap1\n      div\n      0xffffffffffffffffffffffffffffffffffffffff\n      and\n      0xffffffffffffffffffffffffffffffffffffffff\n      and\n      0xffffffffffffffffffffffffffffffffffffffff\n      and\n      dup2\n      mstore\n      0x20\n      add\n      0x02\n      dup3\n      add\n      sload\n      dup2\n      mstore\n      0x20\n      add\n      0x03\n      dup3\n      add\n      sload\n      dup2\n      mstore\n      0x20\n      add\n      0x04\n      dup3\n      add\n      dup1\n      sload\n      tag_193\n      swap1\n      tag_194\n      jump\t// in\n    tag_193:\n      dup1\n      0x1f\n      add\n      0x20\n      dup1\n      swap2\n      div\n      mul\n      0x20\n      add\n      mload(0x40)\n      swap1\n      dup2\n      add\n      0x40\n      mstore\n      dup1\n      swap3\n      swap2\n      swap1\n      dup2\n      dup2\n      mstore\n      0x20\n      add\n      dup3\n      dup1\n      sload\n      tag_195\n      swap1\n      tag_194\n      jump\t// in\n    tag_195:\n      dup1\n      iszero\n      tag_196\n      jumpi\n      dup1\n      0x1f\n      lt\n      tag_197\n      jumpi\n      0x0100\n      dup1\n      dup4\n      sload\n      div\n      mul\n      dup4\n      mstore\n      swap2\n      0x20\n      add\n      swap2\n      jump(tag_196)\n    tag_197:\n      dup3\n      add\n      swap2\n      swap1\n      0x00\n      mstore\n      keccak256(0x00, 0x20)\n      swap1\n    tag_198:\n      dup2\n      sload\n      dup2\n      mstore\n      swap1\n      0x01\n      add\n      swap1\n      0x20\n      add\n      dup1\n      dup4\n      gt\n      tag_198\n      jumpi\n      dup3\n      swap1\n      sub\n      0x1f\n      and\n      dup3\n      add\n      swap2\n    tag_196:\n      pop\n      pop\n      pop\n      pop\n      pop\n      dup2\n      mstore\n      0x20\n      add\n      0x05\n      dup3\n      add\n      sload\n      dup2\n      mstore\n      pop\n      pop\n      dup2\n      mstore\n      0x20\n      add\n      swap1\n      0x01\n      add\n      swap1\n      jump(tag_190)\n    tag_191:\n      pop\n      pop\n      pop\n      pop\n      swap1\n      pop\n        /* \"contracts/edits.sol\":2717:2835  function getProducts(address _shop) public view returns(Product[] memory){... */\n      swap2\n      swap1\n      pop\n      jump\t// out\n        /* \"contracts/edits.sol\":1035:1072  DeliveryOrder[] public deliveryOrders */\n    tag_51:\n      0x02\n      dup2\n      dup2\n      sload\n      dup2\n      lt\n      tag_199\n      jumpi\n      0x00\n      dup1\n      revert\n    tag_199:\n      swap1\n      0x00\n      mstore\n      keccak256(0x00, 0x20)\n      swap1\n      0x05\n      mul\n      add\n      0x00\n      swap2\n      pop\n      swap1\n      pop\n      dup1\n      0x00\n      add\n      0x00\n      swap1\n      sload\n      swap1\n      0x0100\n      exp\n      swap1\n      div\n      0xffffffffffffffffffffffffffffffffffffffff\n      and\n      swap1\n      dup1\n      0x01\n      add\n      0x00\n      swap1\n      sload\n      swap1\n      0x0100\n      exp\n      swap1\n      div\n      0xffffffffffffffffffffffffffffffffffffffff\n      and\n      swap1\n      dup1\n      0x01\n      add\n      0x14\n      swap1\n      sload\n      swap1\n      0x0100\n      exp\n      swap1\n      div\n      0xff\n      and\n      swap1\n      dup1\n      0x02\n      add\n      dup1\n      sload\n      tag_201\n      swap1\n      tag_194\n      jump\t// in\n    tag_201:\n      dup1\n      0x1f\n      add\n      0x20\n      dup1\n      swap2\n      div\n      mul\n      0x20\n      add\n      mload(0x40)\n      swap1\n      dup2\n      add\n      0x40\n      mstore\n      dup1\n      swap3\n      swap2\n      swap1\n      dup2\n      dup2\n      mstore\n      0x20\n      add\n      dup3\n      dup1\n      sload\n      tag_202\n      swap1\n      tag_194\n      jump\t// in\n    tag_202:\n      dup1\n      iszero\n      tag_203\n      jumpi\n      dup1\n      0x1f\n      lt\n      tag_204\n      jumpi\n      0x0100\n      dup1\n      dup4\n      sload\n      div\n      mul\n      dup4\n      mstore\n      swap2\n      0x20\n      add\n      swap2\n      jump(tag_203)\n    tag_204:\n      dup3\n      add\n      swap2\n      swap1\n      0x00\n      mstore\n      keccak256(0x00, 0x20)\n      swap1\n    tag_205:\n      dup2\n      sload\n      dup2\n      mstore\n      swap1\n      0x01\n      add\n      swap1\n      0x20\n      add\n      dup1\n      dup4\n      gt\n      tag_205\n      jumpi\n      dup3\n      swap1\n      sub\n      0x1f\n      and\n      dup3\n      add\n      swap2\n    tag_203:\n      pop\n      pop\n      pop\n      pop\n      pop\n      swap1\n      dup1\n      0x03\n      add\n      sload\n      swap1\n      dup1\n      0x04\n      add\n      sload\n      swap1\n      pop\n      dup7\n      jump\t// out\n        /* \"contracts/edits.sol\":1386:1439  mapping(address => Product[]) public supplierProducts */\n    tag_58:\n      mstore(0x20, 0x07)\n      dup2\n      0x00\n      mstore\n      keccak256(0x00, 0x40)\n      dup2\n      dup2\n      sload\n      dup2\n      lt\n      tag_206\n      jumpi\n      0x00\n      dup1\n      revert\n    tag_206:\n      swap1\n      0x00\n      mstore\n      keccak256(0x00, 0x20)\n      swap1\n      0x06\n      mul\n      add\n      0x00\n      swap2\n      pop\n      swap2\n      pop\n      pop\n      dup1\n      0x00\n      add\n      sload\n      swap1\n      dup1\n      0x01\n      add\n      0x00\n      swap1\n      sload\n      swap1\n      0x0100\n      exp\n      swap1\n      div\n      0xffffffffffffffffffffffffffffffffffffffff\n      and\n      swap1\n      dup1\n      0x02\n      add\n      sload\n      swap1\n      dup1\n      0x03\n      add\n      sload\n      swap1\n      dup1\n      0x04\n      add\n      dup1\n      sload\n      tag_208\n      swap1\n      tag_194\n      jump\t// in\n    tag_208:\n      dup1\n      0x1f\n      add\n      0x20\n      dup1\n      swap2\n      div\n      mul\n      0x20\n      add\n      mload(0x40)\n      swap1\n      dup2\n      add\n      0x40\n      mstore\n      dup1\n      swap3\n      swap2\n      swap1\n      dup2\n      dup2\n      mstore\n      0x20\n      add\n      dup3\n      dup1\n      sload\n      tag_209\n      swap1\n      tag_194\n      jump\t// in\n    tag_209:\n      dup1\n      iszero\n      tag_210\n      jumpi\n      dup1\n      0x1f\n      lt\n      tag_211\n      jumpi\n      0x0100\n      dup1\n      dup4\n      sload\n      div\n      mul\n      dup4\n      mstore\n      swap2\n      0x20\n      add\n      swap2\n      jump(tag_210)\n    tag_211:\n      dup3\n      add\n      swap2\n      swap1\n      0x00\n      mstore\n      keccak256(0x00, 0x20)\n      swap1\n    tag_212:\n      dup2\n      sload\n      dup2\n      mstore\n      swap1\n      0x01\n      add\n      swap1\n      0x20\n      add\n      dup1\n      dup4\n      gt\n      tag_212\n      jumpi\n      dup3\n      swap1\n      sub\n      0x1f\n      and\n      dup3\n      add\n      swap2\n    tag_210:\n      pop\n      pop\n      pop\n      pop\n      pop\n      swap1\n      dup1\n      0x05\n      add\n      sload\n      swap1\n      pop\n      dup7\n      jump\t// out\n        /* \"contracts/edits.sol\":1274:1323  mapping(address => Product[]) public userProducts */\n    tag_64:\n      mstore(0x20, 0x05)\n      dup2\n      0x00\n      mstore\n      keccak256(0x00, 0x40)\n      dup2\n      dup2\n      sload\n      dup2\n      lt\n      tag_213\n      jumpi\n      0x00\n      dup1\n      revert\n    tag_213:\n      swap1\n      0x00\n      mstore\n      keccak256(0x00, 0x20)\n      swap1\n      0x06\n      mul\n      add\n      0x00\n      swap2\n      pop\n      swap2\n      pop\n      pop\n      dup1\n      0x00\n      add\n      sload\n      swap1\n      dup1\n      0x01\n      add\n      0x00\n      swap1\n      sload\n      swap1\n      0x0100\n      exp\n      swap1\n      div\n      0xffffffffffffffffffffffffffffffffffffffff\n      and\n      swap1\n      dup1\n      0x02\n      add\n      sload\n      swap1\n      dup1\n      0x03\n      add\n      sload\n      swap1\n      dup1\n      0x04\n      add\n      dup1\n      sload\n      tag_215\n      swap1\n      tag_194\n      jump\t// in\n    tag_215:\n      dup1\n      0x1f\n      add\n      0x20\n      dup1\n      swap2\n      div\n      mul\n      0x20\n      add\n      mload(0x40)\n      swap1\n      dup2\n      add\n      0x40\n      mstore\n      dup1\n      swap3\n      swap2\n      swap1\n      dup2\n      dup2\n      mstore\n      0x20\n      add\n      dup3\n      dup1\n      sload\n      tag_216\n      swap1\n      tag_194\n      jump\t// in\n    tag_216:\n      dup1\n      iszero\n      tag_217\n      jumpi\n      dup1\n      0x1f\n      lt\n      tag_218\n      jumpi\n      0x0100\n      dup1\n      dup4\n      sload\n      div\n      mul\n      dup4\n      mstore\n      swap2\n      0x20\n      add\n      swap2\n      jump(tag_217)\n    tag_218:\n      dup3\n      add\n      swap2\n      swap1\n      0x00\n      mstore\n      keccak256(0x00, 0x20)\n      swap1\n    tag_219:\n      dup2\n      sload\n      dup2\n      mstore\n      swap1\n      0x01\n      add\n      swap1\n      0x20\n      add\n      dup1\n      dup4\n      gt\n      tag_219\n      jumpi\n      dup3\n      swap1\n      sub\n      0x1f\n      and\n      dup3\n      add\n      swap2\n    tag_217:\n      pop\n      pop\n      pop\n      pop\n      pop\n      swap1\n      dup1\n      0x05\n      add\n      sload\n      swap1\n      pop\n      dup7\n      jump\t// out\n        /* \"contracts/edits.sol\":7384:8305  function refundRequest(address _shop, uint _productId) external {... */\n    tag_69:\n        /* \"contracts/edits.sol\":7458:7470  uint idArray */\n      0x00\n        /* \"contracts/edits.sol\":7480:7492  bool isFound */\n      dup1\n        /* \"contracts/edits.sol\":7495:7500  false */\n      0x00\n        /* \"contracts/edits.sol\":7480:7500  bool isFound = false */\n      swap1\n      pop\n        /* \"contracts/edits.sol\":7515:7521  uint i */\n      0x00\n        /* \"contracts/edits.sol\":7511:7813  for(uint i; i < userProducts[msg.sender].length; i++) {... */\n    tag_221:\n        /* \"contracts/edits.sol\":7527:7539  userProducts */\n      0x05\n        /* \"contracts/edits.sol\":7527:7551  userProducts[msg.sender] */\n      0x00\n        /* \"contracts/edits.sol\":7540:7550  msg.sender */\n      caller\n        /* \"contracts/edits.sol\":7527:7551  userProducts[msg.sender] */\n      0xffffffffffffffffffffffffffffffffffffffff\n      and\n      0xffffffffffffffffffffffffffffffffffffffff\n      and\n      dup2\n      mstore\n      0x20\n      add\n      swap1\n      dup2\n      mstore\n      0x20\n      add\n      0x00\n      keccak256\n        /* \"contracts/edits.sol\":7527:7558  userProducts[msg.sender].length */\n      dup1\n      sload\n      swap1\n      pop\n        /* \"contracts/edits.sol\":7523:7524  i */\n      dup2\n        /* \"contracts/edits.sol\":7523:7558  i < userProducts[msg.sender].length */\n      lt\n        /* \"contracts/edits.sol\":7511:7813  for(uint i; i < userProducts[msg.sender].length; i++) {... */\n      iszero\n      tag_222\n      jumpi\n        /* \"contracts/edits.sol\":7662:7676  marketProducts */\n      0x06\n        /* \"contracts/edits.sol\":7662:7683  marketProducts[_shop] */\n      0x00\n        /* \"contracts/edits.sol\":7677:7682  _shop */\n      dup7\n        /* \"contracts/edits.sol\":7662:7683  marketProducts[_shop] */\n      0xffffffffffffffffffffffffffffffffffffffff\n      and\n      0xffffffffffffffffffffffffffffffffffffffff\n      and\n      dup2\n      mstore\n      0x20\n      add\n      swap1\n      dup2\n      mstore\n      0x20\n      add\n      0x00\n      keccak256\n        /* \"contracts/edits.sol\":7684:7694  _productId */\n      dup5\n        /* \"contracts/edits.sol\":7662:7695  marketProducts[_shop][_productId] */\n      dup2\n      sload\n      dup2\n      lt\n      tag_224\n      jumpi\n      tag_225\n      tag_226\n      jump\t// in\n    tag_225:\n    tag_224:\n      swap1\n      0x00\n      mstore\n      keccak256(0x00, 0x20)\n      swap1\n      0x06\n      mul\n      add\n        /* \"contracts/edits.sol\":7662:7700  marketProducts[_shop][_productId].name */\n      0x04\n      add\n        /* \"contracts/edits.sol\":7651:7701  abi.encode(marketProducts[_shop][_productId].name) */\n      add(0x20, mload(0x40))\n      tag_228\n      swap2\n      swap1\n      tag_229\n      jump\t// in\n    tag_228:\n      mload(0x40)\n      0x20\n      dup2\n      dup4\n      sub\n      sub\n      dup2\n      mstore\n      swap1\n      0x40\n      mstore\n        /* \"contracts/edits.sol\":7641:7702  keccak256(abi.encode(marketProducts[_shop][_productId].name)) */\n      dup1\n      mload\n      swap1\n      0x20\n      add\n      keccak256\n        /* \"contracts/edits.sol\":7603:7615  userProducts */\n      0x05\n        /* \"contracts/edits.sol\":7603:7627  userProducts[msg.sender] */\n      0x00\n        /* \"contracts/edits.sol\":7616:7626  msg.sender */\n      caller\n        /* \"contracts/edits.sol\":7603:7627  userProducts[msg.sender] */\n      0xffffffffffffffffffffffffffffffffffffffff\n      and\n      0xffffffffffffffffffffffffffffffffffffffff\n      and\n      dup2\n      mstore\n      0x20\n      add\n      swap1\n      dup2\n      mstore\n      0x20\n      add\n      0x00\n      keccak256\n        /* \"contracts/edits.sol\":7628:7629  i */\n      dup3\n        /* \"contracts/edits.sol\":7603:7630  userProducts[msg.sender][i] */\n      dup2\n      sload\n      dup2\n      lt\n      tag_230\n      jumpi\n      tag_231\n      tag_226\n      jump\t// in\n    tag_231:\n    tag_230:\n      swap1\n      0x00\n      mstore\n      keccak256(0x00, 0x20)\n      swap1\n      0x06\n      mul\n      add\n        /* \"contracts/edits.sol\":7603:7635  userProducts[msg.sender][i].name */\n      0x04\n      add\n        /* \"contracts/edits.sol\":7592:7636  abi.encode(userProducts[msg.sender][i].name) */\n      add(0x20, mload(0x40))\n      tag_233\n      swap2\n      swap1\n      tag_229\n      jump\t// in\n    tag_233:\n      mload(0x40)\n      0x20\n      dup2\n      dup4\n      sub\n      sub\n      dup2\n      mstore\n      swap1\n      0x40\n      mstore\n        /* \"contracts/edits.sol\":7582:7637  keccak256(abi.encode(userProducts[msg.sender][i].name)) */\n      dup1\n      mload\n      swap1\n      0x20\n      add\n      keccak256\n        /* \"contracts/edits.sol\":7582:7702  keccak256(abi.encode(userProducts[msg.sender][i].name)) == keccak256(abi.encode(marketProducts[_shop][_productId].name)) */\n      sub\n        /* \"contracts/edits.sol\":7579:7803  if(keccak256(abi.encode(userProducts[msg.sender][i].name)) == keccak256(abi.encode(marketProducts[_shop][_productId].name))) {... */\n      tag_234\n      jumpi\n        /* \"contracts/edits.sol\":7732:7733  i */\n      dup1\n        /* \"contracts/edits.sol\":7722:7733  idArray = i */\n      swap3\n      pop\n        /* \"contracts/edits.sol\":7761:7765  true */\n      0x01\n        /* \"contracts/edits.sol\":7751:7765  isFound = true */\n      swap2\n      pop\n        /* \"contracts/edits.sol\":7783:7788  break */\n      jump(tag_222)\n        /* \"contracts/edits.sol\":7579:7803  if(keccak256(abi.encode(userProducts[msg.sender][i].name)) == keccak256(abi.encode(marketProducts[_shop][_productId].name))) {... */\n    tag_234:\n        /* \"contracts/edits.sol\":7560:7563  i++ */\n      dup1\n      dup1\n      tag_235\n      swap1\n      tag_236\n      jump\t// in\n    tag_235:\n      swap2\n      pop\n      pop\n        /* \"contracts/edits.sol\":7511:7813  for(uint i; i < userProducts[msg.sender].length; i++) {... */\n      jump(tag_221)\n    tag_222:\n      pop\n        /* \"contracts/edits.sol\":7831:7838  isFound */\n      dup1\n        /* \"contracts/edits.sol\":7823:7839  require(isFound) */\n      tag_237\n      jumpi\n      0x00\n      dup1\n      revert\n    tag_237:\n        /* \"contracts/edits.sol\":7901:7915  marketProducts */\n      0x06\n        /* \"contracts/edits.sol\":7901:7922  marketProducts[_shop] */\n      0x00\n        /* \"contracts/edits.sol\":7916:7921  _shop */\n      dup6\n        /* \"contracts/edits.sol\":7901:7922  marketProducts[_shop] */\n      0xffffffffffffffffffffffffffffffffffffffff\n      and\n      0xffffffffffffffffffffffffffffffffffffffff\n      and\n      dup2\n      mstore\n      0x20\n      add\n      swap1\n      dup2\n      mstore\n      0x20\n      add\n      0x00\n      keccak256\n        /* \"contracts/edits.sol\":7923:7933  _productId */\n      dup4\n        /* \"contracts/edits.sol\":7901:7934  marketProducts[_shop][_productId] */\n      dup2\n      sload\n      dup2\n      lt\n      tag_238\n      jumpi\n      tag_239\n      tag_226\n      jump\t// in\n    tag_239:\n    tag_238:\n      swap1\n      0x00\n      mstore\n      keccak256(0x00, 0x20)\n      swap1\n      0x06\n      mul\n      add\n        /* \"contracts/edits.sol\":7901:7942  marketProducts[_shop][_productId].expDate */\n      0x05\n      add\n      sload\n        /* \"contracts/edits.sol\":7857:7869  userProducts */\n      0x05\n        /* \"contracts/edits.sol\":7857:7881  userProducts[msg.sender] */\n      0x00\n        /* \"contracts/edits.sol\":7870:7880  msg.sender */\n      caller\n        /* \"contracts/edits.sol\":7857:7881  userProducts[msg.sender] */\n      0xffffffffffffffffffffffffffffffffffffffff\n      and\n      0xffffffffffffffffffffffffffffffffffffffff\n      and\n      dup2\n      mstore\n      0x20\n      add\n      swap1\n      dup2\n      mstore\n      0x20\n      add\n      0x00\n      keccak256\n        /* \"contracts/edits.sol\":7882:7889  idArray */\n      dup4\n        /* \"contracts/edits.sol\":7857:7890  userProducts[msg.sender][idArray] */\n      dup2\n      sload\n      dup2\n      lt\n      tag_241\n      jumpi\n      tag_242\n      tag_226\n      jump\t// in\n    tag_242:\n    tag_241:\n      swap1\n      0x00\n      mstore\n      keccak256(0x00, 0x20)\n      swap1\n      0x06\n      mul\n      add\n        /* \"contracts/edits.sol\":7857:7898  userProducts[msg.sender][idArray].expDate */\n      0x05\n      add\n      sload\n        /* \"contracts/edits.sol\":7857:7942  userProducts[msg.sender][idArray].expDate > marketProducts[_shop][_productId].expDate */\n      gt\n        /* \"contracts/edits.sol\":7849:7943  require(userProducts[msg.sender][idArray].expDate > marketProducts[_shop][_productId].expDate) */\n      tag_244\n      jumpi\n      0x00\n      dup1\n      revert\n    tag_244:\n        /* \"contracts/edits.sol\":7953:7969  uint totalRefSum */\n      0x00\n        /* \"contracts/edits.sol\":8017:8031  marketProducts */\n      0x06\n        /* \"contracts/edits.sol\":8017:8038  marketProducts[_shop] */\n      0x00\n        /* \"contracts/edits.sol\":8032:8037  _shop */\n      dup7\n        /* \"contracts/edits.sol\":8017:8038  marketProducts[_shop] */\n      0xffffffffffffffffffffffffffffffffffffffff\n      and\n      0xffffffffffffffffffffffffffffffffffffffff\n      and\n      dup2\n      mstore\n      0x20\n      add\n      swap1\n      dup2\n      mstore\n      0x20\n      add\n      0x00\n      keccak256\n        /* \"contracts/edits.sol\":8039:8049  _productId */\n      dup5\n        /* \"contracts/edits.sol\":8017:8050  marketProducts[_shop][_productId] */\n      dup2\n      sload\n      dup2\n      lt\n      tag_245\n      jumpi\n      tag_246\n      tag_226\n      jump\t// in\n    tag_246:\n    tag_245:\n      swap1\n      0x00\n      mstore\n      keccak256(0x00, 0x20)\n      swap1\n      0x06\n      mul\n      add\n        /* \"contracts/edits.sol\":8017:8056  marketProducts[_shop][_productId].price */\n      0x03\n      add\n      sload\n        /* \"contracts/edits.sol\":7973:7985  userProducts */\n      0x05\n        /* \"contracts/edits.sol\":7973:7997  userProducts[msg.sender] */\n      0x00\n        /* \"contracts/edits.sol\":7986:7996  msg.sender */\n      caller\n        /* \"contracts/edits.sol\":7973:7997  userProducts[msg.sender] */\n      0xffffffffffffffffffffffffffffffffffffffff\n      and\n      0xffffffffffffffffffffffffffffffffffffffff\n      and\n      dup2\n      mstore\n      0x20\n      add\n      swap1\n      dup2\n      mstore\n      0x20\n      add\n      0x00\n      keccak256\n        /* \"contracts/edits.sol\":7998:8005  idArray */\n      dup5\n        /* \"contracts/edits.sol\":7973:8006  userProducts[msg.sender][idArray] */\n      dup2\n      sload\n      dup2\n      lt\n      tag_248\n      jumpi\n      tag_249\n      tag_226\n      jump\t// in\n    tag_249:\n    tag_248:\n      swap1\n      0x00\n      mstore\n      keccak256(0x00, 0x20)\n      swap1\n      0x06\n      mul\n      add\n        /* \"contracts/edits.sol\":7973:8014  userProducts[msg.sender][idArray].inStock */\n      0x02\n      add\n      sload\n        /* \"contracts/edits.sol\":7973:8056  userProducts[msg.sender][idArray].inStock * marketProducts[_shop][_productId].price */\n      tag_251\n      swap2\n      swap1\n      tag_252\n      jump\t// in\n    tag_251:\n        /* \"contracts/edits.sol\":7953:8056  uint totalRefSum =  userProducts[msg.sender][idArray].inStock * marketProducts[_shop][_productId].price */\n      swap1\n      pop\n        /* \"contracts/edits.sol\":8111:8123  userProducts */\n      0x05\n        /* \"contracts/edits.sol\":8111:8135  userProducts[msg.sender] */\n      0x00\n        /* \"contracts/edits.sol\":8124:8134  msg.sender */\n      caller\n        /* \"contracts/edits.sol\":8111:8135  userProducts[msg.sender] */\n      0xffffffffffffffffffffffffffffffffffffffff\n      and\n      0xffffffffffffffffffffffffffffffffffffffff\n      and\n      dup2\n      mstore\n      0x20\n      add\n      swap1\n      dup2\n      mstore\n      0x20\n      add\n      0x00\n      keccak256\n        /* \"contracts/edits.sol\":8136:8143  idArray */\n      dup4\n        /* \"contracts/edits.sol\":8111:8144  userProducts[msg.sender][idArray] */\n      dup2\n      sload\n      dup2\n      lt\n      tag_253\n      jumpi\n      tag_254\n      tag_226\n      jump\t// in\n    tag_254:\n    tag_253:\n      swap1\n      0x00\n      mstore\n      keccak256(0x00, 0x20)\n      swap1\n      0x06\n      mul\n      add\n        /* \"contracts/edits.sol\":8111:8152  userProducts[msg.sender][idArray].inStock */\n      0x02\n      add\n      sload\n        /* \"contracts/edits.sol\":8066:8080  marketProducts */\n      0x06\n        /* \"contracts/edits.sol\":8066:8087  marketProducts[_shop] */\n      0x00\n        /* \"contracts/edits.sol\":8081:8086  _shop */\n      dup8\n        /* \"contracts/edits.sol\":8066:8087  marketProducts[_shop] */\n      0xffffffffffffffffffffffffffffffffffffffff\n      and\n      0xffffffffffffffffffffffffffffffffffffffff\n      and\n      dup2\n      mstore\n      0x20\n      add\n      swap1\n      dup2\n      mstore\n      0x20\n      add\n      0x00\n      keccak256\n        /* \"contracts/edits.sol\":8088:8098  _productId */\n      dup6\n        /* \"contracts/edits.sol\":8066:8099  marketProducts[_shop][_productId] */\n      dup2\n      sload\n      dup2\n      lt\n      tag_256\n      jumpi\n      tag_257\n      tag_226\n      jump\t// in\n    tag_257:\n    tag_256:\n      swap1\n      0x00\n      mstore\n      keccak256(0x00, 0x20)\n      swap1\n      0x06\n      mul\n      add\n        /* \"contracts/edits.sol\":8066:8107  marketProducts[_shop][_productId].inStock */\n      0x02\n      add\n      0x00\n        /* \"contracts/edits.sol\":8066:8152  marketProducts[_shop][_productId].inStock += userProducts[msg.sender][idArray].inStock */\n      dup3\n      dup3\n      sload\n      tag_259\n      swap2\n      swap1\n      tag_260\n      jump\t// in\n    tag_259:\n      swap3\n      pop\n      pop\n      dup2\n      swap1\n      sstore\n      pop\n        /* \"contracts/edits.sol\":8169:8181  userProducts */\n      0x05\n        /* \"contracts/edits.sol\":8169:8193  userProducts[msg.sender] */\n      0x00\n        /* \"contracts/edits.sol\":8182:8192  msg.sender */\n      caller\n        /* \"contracts/edits.sol\":8169:8193  userProducts[msg.sender] */\n      0xffffffffffffffffffffffffffffffffffffffff\n      and\n      0xffffffffffffffffffffffffffffffffffffffff\n      and\n      dup2\n      mstore\n      0x20\n      add\n      swap1\n      dup2\n      mstore\n      0x20\n      add\n      0x00\n      keccak256\n        /* \"contracts/edits.sol\":8194:8201  idArray */\n      dup4\n        /* \"contracts/edits.sol\":8169:8202  userProducts[msg.sender][idArray] */\n      dup2\n      sload\n      dup2\n      lt\n      tag_261\n      jumpi\n      tag_262\n      tag_226\n      jump\t// in\n    tag_262:\n    tag_261:\n      swap1\n      0x00\n      mstore\n      keccak256(0x00, 0x20)\n      swap1\n      0x06\n      mul\n      add\n      0x00\n        /* \"contracts/edits.sol\":8162:8202  delete userProducts[msg.sender][idArray] */\n      dup1\n      dup3\n      add\n      0x00\n      swap1\n      sstore\n      0x01\n      dup3\n      add\n      exp(0x0100, 0x00)\n      dup2\n      sload\n      swap1\n      0xffffffffffffffffffffffffffffffffffffffff\n      mul\n      not\n      and\n      swap1\n      sstore\n      0x02\n      dup3\n      add\n      0x00\n      swap1\n      sstore\n      0x03\n      dup3\n      add\n      0x00\n      swap1\n      sstore\n      0x04\n      dup3\n      add\n      0x00\n      tag_264\n      swap2\n      swap1\n      tag_265\n      jump\t// in\n    tag_264:\n      0x05\n      dup3\n      add\n      0x00\n      swap1\n      sstore\n      pop\n      pop\n        /* \"contracts/edits.sol\":8236:8247  totalRefSum */\n      dup1\n        /* \"contracts/edits.sol\":8212:8217  users */\n      0x04\n        /* \"contracts/edits.sol\":8212:8224  users[_shop] */\n      0x00\n        /* \"contracts/edits.sol\":8218:8223  _shop */\n      dup8\n        /* \"contracts/edits.sol\":8212:8224  users[_shop] */\n      0xffffffffffffffffffffffffffffffffffffffff\n      and\n      0xffffffffffffffffffffffffffffffffffffffff\n      and\n      dup2\n      mstore\n      0x20\n      add\n      swap1\n      dup2\n      mstore\n      0x20\n      add\n      0x00\n      keccak256\n        /* \"contracts/edits.sol\":8212:8232  users[_shop].balance */\n      0x04\n      add\n      0x00\n        /* \"contracts/edits.sol\":8212:8247  users[_shop].balance -= totalRefSum */\n      dup3\n      dup3\n      sload\n      tag_266\n      swap2\n      swap1\n      tag_267\n      jump\t// in\n    tag_266:\n      swap3\n      pop\n      pop\n      dup2\n      swap1\n      sstore\n      pop\n        /* \"contracts/edits.sol\":8265:8275  msg.sender */\n      caller\n        /* \"contracts/edits.sol\":8257:8285  payable(msg.sender).transfer */\n      0xffffffffffffffffffffffffffffffffffffffff\n      and\n        /* \"contracts/edits.sol\":8257:8298  payable(msg.sender).transfer(totalRefSum) */\n      0x08fc\n        /* \"contracts/edits.sol\":8286:8297  totalRefSum */\n      dup3\n        /* \"contracts/edits.sol\":8257:8298  payable(msg.sender).transfer(totalRefSum) */\n      swap1\n      dup2\n      iszero\n      mul\n      swap1\n      mload(0x40)\n      0x00\n      mload(0x40)\n      dup1\n      dup4\n      sub\n      dup2\n      dup6\n      dup9\n      dup9\n      call\n      swap4\n      pop\n      pop\n      pop\n      pop\n      iszero\n      dup1\n      iszero\n      tag_269\n      jumpi\n      returndatasize\n      0x00\n      dup1\n      returndatacopy\n      revert(0x00, returndatasize)\n    tag_269:\n      pop\n        /* \"contracts/edits.sol\":7448:8305  {... */\n      pop\n      pop\n      pop\n        /* \"contracts/edits.sol\":7384:8305  function refundRequest(address _shop, uint _productId) external {... */\n      pop\n      pop\n      jump\t// out\n        /* \"contracts/edits.sol\":1329:1380  mapping(address => Product[]) public marketProducts */\n    tag_73:\n      mstore(0x20, 0x06)\n      dup2\n      0x00\n      mstore\n      keccak256(0x00, 0x40)\n      dup2\n      dup2\n      sload\n      dup2\n      lt\n      tag_270\n      jumpi\n      0x00\n      dup1\n      revert\n    tag_270:\n      swap1\n      0x00\n      mstore\n      keccak256(0x00, 0x20)\n      swap1\n      0x06\n      mul\n      add\n      0x00\n      swap2\n      pop\n      swap2\n      pop\n      pop\n      dup1\n      0x00\n      add\n      sload\n      swap1\n      dup1\n      0x01\n      add\n      0x00\n      swap1\n      sload\n      swap1\n      0x0100\n      exp\n      swap1\n      div\n      0xffffffffffffffffffffffffffffffffffffffff\n      and\n      swap1\n      dup1\n      0x02\n      add\n      sload\n      swap1\n      dup1\n      0x03\n      add\n      sload\n      swap1\n      dup1\n      0x04\n      add\n      dup1\n      sload\n      tag_272\n      swap1\n      tag_194\n      jump\t// in\n    tag_272:\n      dup1\n      0x1f\n      add\n      0x20\n      dup1\n      swap2\n      div\n      mul\n      0x20\n      add\n      mload(0x40)\n      swap1\n      dup2\n      add\n      0x40\n      mstore\n      dup1\n      swap3\n      swap2\n      swap1\n      dup2\n      dup2\n      mstore\n      0x20\n      add\n      dup3\n      dup1\n      sload\n      tag_273\n      swap1\n      tag_194\n      jump\t// in\n    tag_273:\n      dup1\n      iszero\n      tag_274\n      jumpi\n      dup1\n      0x1f\n      lt\n      tag_275\n      jumpi\n      0x0100\n      dup1\n      dup4\n      sload\n      div\n      mul\n      dup4\n      mstore\n      swap2\n      0x20\n      add\n      swap2\n      jump(tag_274)\n    tag_275:\n      dup3\n      add\n      swap2\n      swap1\n      0x00\n      mstore\n      keccak256(0x00, 0x20)\n      swap1\n    tag_276:\n      dup2\n      sload\n      dup2\n      mstore\n      swap1\n      0x01\n      add\n      swap1\n      0x20\n      add\n      dup1\n      dup4\n      gt\n      tag_276\n      jumpi\n      dup3\n      swap1\n      sub\n      0x1f\n      and\n      dup3\n      add\n      swap2\n    tag_274:\n      pop\n      pop\n      pop\n      pop\n      pop\n      swap1\n      dup1\n      0x05\n      add\n      sload\n      swap1\n      pop\n      dup7\n      jump\t// out\n        /* \"contracts/edits.sol\":979:1002  Ticket[] public tickets */\n    tag_78:\n      0x00\n      dup2\n      dup2\n      sload\n      dup2\n      lt\n      tag_277\n      jumpi\n      0x00\n      dup1\n      revert\n    tag_277:\n      swap1\n      0x00\n      mstore\n      keccak256(0x00, 0x20)\n      add\n      0x00\n      swap2\n      pop\n      swap1\n      pop\n      dup1\n      0x00\n      add\n      0x00\n      swap1\n      sload\n      swap1\n      0x0100\n      exp\n      swap1\n      div\n      0xffffffffffffffffffffffffffffffffffffffff\n      and\n      swap1\n      dup1\n      0x00\n      add\n      0x14\n      swap1\n      sload\n      swap1\n      0x0100\n      exp\n      swap1\n      div\n      0xff\n      and\n      swap1\n      pop\n      dup3\n      jump\t// out\n        /* \"contracts/edits.sol\":3637:3833  function changeRole(Role _role) public {... */\n    tag_85:\n        /* \"contracts/edits.sol\":3695:3715  hasRoleChangeRequest */\n      0x03\n        /* \"contracts/edits.sol\":3695:3727  hasRoleChangeRequest[msg.sender] */\n      0x00\n        /* \"contracts/edits.sol\":3716:3726  msg.sender */\n      caller\n        /* \"contracts/edits.sol\":3695:3727  hasRoleChangeRequest[msg.sender] */\n      0xffffffffffffffffffffffffffffffffffffffff\n      and\n      0xffffffffffffffffffffffffffffffffffffffff\n      and\n      dup2\n      mstore\n      0x20\n      add\n      swap1\n      dup2\n      mstore\n      0x20\n      add\n      0x00\n      keccak256\n      0x00\n      swap1\n      sload\n      swap1\n      0x0100\n      exp\n      swap1\n      div\n      0xff\n      and\n        /* \"contracts/edits.sol\":3694:3727  !hasRoleChangeRequest[msg.sender] */\n      iszero\n        /* \"contracts/edits.sol\":3686:3728  require(!hasRoleChangeRequest[msg.sender]) */\n      tag_280\n      jumpi\n      0x00\n      dup1\n      revert\n    tag_280:\n        /* \"contracts/edits.sol\":3738:3745  tickets */\n      0x00\n        /* \"contracts/edits.sol\":3751:3776  Ticket(msg.sender, _role) */\n      mload(0x40)\n      dup1\n      0x40\n      add\n      0x40\n      mstore\n      dup1\n        /* \"contracts/edits.sol\":3758:3768  msg.sender */\n      caller\n        /* \"contracts/edits.sol\":3751:3776  Ticket(msg.sender, _role) */\n      0xffffffffffffffffffffffffffffffffffffffff\n      and\n      dup2\n      mstore\n      0x20\n      add\n        /* \"contracts/edits.sol\":3770:3775  _role */\n      dup4\n        /* \"contracts/edits.sol\":3751:3776  Ticket(msg.sender, _role) */\n      0x02\n      dup2\n      gt\n      iszero\n      tag_281\n      jumpi\n      tag_282\n      tag_179\n      jump\t// in\n    tag_282:\n    tag_281:\n      dup2\n      mstore\n      pop\n        /* \"contracts/edits.sol\":3738:3777  tickets.push(Ticket(msg.sender, _role)) */\n      swap1\n      dup1\n      0x01\n      dup2\n      sload\n      add\n      dup1\n      dup3\n      sstore\n      dup1\n      swap2\n      pop\n      pop\n      0x01\n      swap1\n      sub\n      swap1\n      0x00\n      mstore\n      keccak256(0x00, 0x20)\n      add\n      0x00\n      swap1\n      swap2\n      swap1\n      swap2\n      swap1\n      swap2\n      pop\n      0x00\n      dup3\n      add\n      mload\n      dup2\n      0x00\n      add\n      exp(0x0100, 0x00)\n      dup2\n      sload\n      dup2\n      0xffffffffffffffffffffffffffffffffffffffff\n      mul\n      not\n      and\n      swap1\n      dup4\n      0xffffffffffffffffffffffffffffffffffffffff\n      and\n      mul\n      or\n      swap1\n      sstore\n      pop\n      0x20\n      dup3\n      add\n      mload\n      dup2\n      0x00\n      add\n      exp(0x0100, 0x14)\n      dup2\n      sload\n      dup2\n      0xff\n      mul\n      not\n      and\n      swap1\n      dup4\n      0x02\n      dup2\n      gt\n      iszero\n      tag_284\n      jumpi\n      tag_285\n      tag_179\n      jump\t// in\n    tag_285:\n    tag_284:\n      mul\n      or\n      swap1\n      sstore\n      pop\n      pop\n      pop\n        /* \"contracts/edits.sol\":3822:3826  true */\n      0x01\n        /* \"contracts/edits.sol\":3787:3807  hasRoleChangeRequest */\n      0x03\n        /* \"contracts/edits.sol\":3787:3819  hasRoleChangeRequest[msg.sender] */\n      0x00\n        /* \"contracts/edits.sol\":3808:3818  msg.sender */\n      caller\n        /* \"contracts/edits.sol\":3787:3819  hasRoleChangeRequest[msg.sender] */\n      0xffffffffffffffffffffffffffffffffffffffff\n      and\n      0xffffffffffffffffffffffffffffffffffffffff\n      and\n      dup2\n      mstore\n      0x20\n      add\n      swap1\n      dup2\n      mstore\n      0x20\n      add\n      0x00\n      keccak256\n      0x00\n        /* \"contracts/edits.sol\":3787:3826  hasRoleChangeRequest[msg.sender] = true */\n      0x0100\n      exp\n      dup2\n      sload\n      dup2\n      0xff\n      mul\n      not\n      and\n      swap1\n      dup4\n      iszero\n      iszero\n      mul\n      or\n      swap1\n      sstore\n      pop\n        /* \"contracts/edits.sol\":3637:3833  function changeRole(Role _role) public {... */\n      pop\n      jump\t// out\n        /* \"contracts/edits.sol\":2338:2711  function login(string memory _login, string memory _password) external view returns(User memory) {... */\n    tag_90:\n        /* \"contracts/edits.sol\":2422:2433  User memory */\n      tag_286\n      tag_287\n      jump\t// in\n    tag_286:\n        /* \"contracts/edits.sol\":2445:2470  string memory storedLogin */\n      0x00\n        /* \"contracts/edits.sol\":2473:2478  users */\n      0x04\n        /* \"contracts/edits.sol\":2473:2490  users[msg.sender] */\n      0x00\n        /* \"contracts/edits.sol\":2479:2489  msg.sender */\n      caller\n        /* \"contracts/edits.sol\":2473:2490  users[msg.sender] */\n      0xffffffffffffffffffffffffffffffffffffffff\n      and\n      0xffffffffffffffffffffffffffffffffffffffff\n      and\n      dup2\n      mstore\n      0x20\n      add\n      swap1\n      dup2\n      mstore\n      0x20\n      add\n      0x00\n      keccak256\n        /* \"contracts/edits.sol\":2473:2496  users[msg.sender].login */\n      0x00\n      add\n        /* \"contracts/edits.sol\":2445:2496  string memory storedLogin = users[msg.sender].login */\n      dup1\n      sload\n      tag_289\n      swap1\n      tag_194\n      jump\t// in\n    tag_289:\n      dup1\n      0x1f\n      add\n      0x20\n      dup1\n      swap2\n      div\n      mul\n      0x20\n      add\n      mload(0x40)\n      swap1\n      dup2\n      add\n      0x40\n      mstore\n      dup1\n      swap3\n      swap2\n      swap1\n      dup2\n      dup2\n      mstore\n      0x20\n      add\n      dup3\n      dup1\n      sload\n      tag_290\n      swap1\n      tag_194\n      jump\t// in\n    tag_290:\n      dup1\n      iszero\n      tag_291\n      jumpi\n      dup1\n      0x1f\n      lt\n      tag_292\n      jumpi\n      0x0100\n      dup1\n      dup4\n      sload\n      div\n      mul\n      dup4\n      mstore\n      swap2\n      0x20\n      add\n      swap2\n      jump(tag_291)\n    tag_292:\n      dup3\n      add\n      swap2\n      swap1\n      0x00\n      mstore\n      keccak256(0x00, 0x20)\n      swap1\n    tag_293:\n      dup2\n      sload\n      dup2\n      mstore\n      swap1\n      0x01\n      add\n      swap1\n      0x20\n      add\n      dup1\n      dup4\n      gt\n      tag_293\n      jumpi\n      dup3\n      swap1\n      sub\n      0x1f\n      and\n      dup3\n      add\n      swap2\n    tag_291:\n      pop\n      pop\n      pop\n      pop\n      pop\n      swap1\n      pop\n        /* \"contracts/edits.sol\":2580:2591  storedLogin */\n      dup1\n        /* \"contracts/edits.sol\":2563:2592  abi.encodePacked(storedLogin) */\n      add(0x20, mload(0x40))\n      tag_294\n      swap2\n      swap1\n      tag_295\n      jump\t// in\n    tag_294:\n      mload(0x40)\n      0x20\n      dup2\n      dup4\n      sub\n      sub\n      dup2\n      mstore\n      swap1\n      0x40\n      mstore\n        /* \"contracts/edits.sol\":2553:2593  keccak256(abi.encodePacked(storedLogin)) */\n      dup1\n      mload\n      swap1\n      0x20\n      add\n      keccak256\n        /* \"contracts/edits.sol\":2541:2547  _login */\n      dup5\n        /* \"contracts/edits.sol\":2524:2548  abi.encodePacked(_login) */\n      add(0x20, mload(0x40))\n      tag_296\n      swap2\n      swap1\n      tag_295\n      jump\t// in\n    tag_296:\n      mload(0x40)\n      0x20\n      dup2\n      dup4\n      sub\n      sub\n      dup2\n      mstore\n      swap1\n      0x40\n      mstore\n        /* \"contracts/edits.sol\":2514:2549  keccak256(abi.encodePacked(_login)) */\n      dup1\n      mload\n      swap1\n      0x20\n      add\n      keccak256\n        /* \"contracts/edits.sol\":2514:2593  keccak256(abi.encodePacked(_login)) == keccak256(abi.encodePacked(storedLogin)) */\n      eq\n        /* \"contracts/edits.sol\":2506:2594  require(keccak256(abi.encodePacked(_login)) == keccak256(abi.encodePacked(storedLogin))) */\n      tag_297\n      jumpi\n      0x00\n      dup1\n      revert\n    tag_297:\n        /* \"contracts/edits.sol\":2648:2657  passwords */\n      0x09\n        /* \"contracts/edits.sol\":2648:2669  passwords[msg.sender] */\n      0x00\n        /* \"contracts/edits.sol\":2658:2668  msg.sender */\n      caller\n        /* \"contracts/edits.sol\":2648:2669  passwords[msg.sender] */\n      0xffffffffffffffffffffffffffffffffffffffff\n      and\n      0xffffffffffffffffffffffffffffffffffffffff\n      and\n      dup2\n      mstore\n      0x20\n      add\n      swap1\n      dup2\n      mstore\n      0x20\n      add\n      0x00\n      keccak256\n      sload\n        /* \"contracts/edits.sol\":2633:2642  _password */\n      dup4\n        /* \"contracts/edits.sol\":2622:2643  abi.encode(_password) */\n      add(0x20, mload(0x40))\n      tag_298\n      swap2\n      swap1\n      tag_299\n      jump\t// in\n    tag_298:\n      mload(0x40)\n      0x20\n      dup2\n      dup4\n      sub\n      sub\n      dup2\n      mstore\n      swap1\n      0x40\n      mstore\n        /* \"contracts/edits.sol\":2612:2644  keccak256(abi.encode(_password)) */\n      dup1\n      mload\n      swap1\n      0x20\n      add\n      keccak256\n        /* \"contracts/edits.sol\":2612:2669  keccak256(abi.encode(_password)) == passwords[msg.sender] */\n      eq\n        /* \"contracts/edits.sol\":2604:2670  require(keccak256(abi.encode(_password)) == passwords[msg.sender]) */\n      tag_300\n      jumpi\n      0x00\n      dup1\n      revert\n    tag_300:\n        /* \"contracts/edits.sol\":2687:2692  users */\n      0x04\n        /* \"contracts/edits.sol\":2687:2704  users[msg.sender] */\n      0x00\n        /* \"contracts/edits.sol\":2693:2703  msg.sender */\n      caller\n        /* \"contracts/edits.sol\":2687:2704  users[msg.sender] */\n      0xffffffffffffffffffffffffffffffffffffffff\n      and\n      0xffffffffffffffffffffffffffffffffffffffff\n      and\n      dup2\n      mstore\n      0x20\n      add\n      swap1\n      dup2\n      mstore\n      0x20\n      add\n      0x00\n      keccak256\n        /* \"contracts/edits.sol\":2680:2704  return users[msg.sender] */\n      mload(0x40)\n      dup1\n      0xa0\n      add\n      0x40\n      mstore\n      swap1\n      dup2\n      0x00\n      dup3\n      add\n      dup1\n      sload\n      tag_301\n      swap1\n      tag_194\n      jump\t// in\n    tag_301:\n      dup1\n      0x1f\n      add\n      0x20\n      dup1\n      swap2\n      div\n      mul\n      0x20\n      add\n      mload(0x40)\n      swap1\n      dup2\n      add\n      0x40\n      mstore\n      dup1\n      swap3\n      swap2\n      swap1\n      dup2\n      dup2\n      mstore\n      0x20\n      add\n      dup3\n      dup1\n      sload\n      tag_302\n      swap1\n      tag_194\n      jump\t// in\n    tag_302:\n      dup1\n      iszero\n      tag_303\n      jumpi\n      dup1\n      0x1f\n      lt\n      tag_304\n      jumpi\n      0x0100\n      dup1\n      dup4\n      sload\n      div\n      mul\n      dup4\n      mstore\n      swap2\n      0x20\n      add\n      swap2\n      jump(tag_303)\n    tag_304:\n      dup3\n      add\n      swap2\n      swap1\n      0x00\n      mstore\n      keccak256(0x00, 0x20)\n      swap1\n    tag_305:\n      dup2\n      sload\n      dup2\n      mstore\n      swap1\n      0x01\n      add\n      swap1\n      0x20\n      add\n      dup1\n      dup4\n      gt\n      tag_305\n      jumpi\n      dup3\n      swap1\n      sub\n      0x1f\n      and\n      dup3\n      add\n      swap2\n    tag_303:\n      pop\n      pop\n      pop\n      pop\n      pop\n      dup2\n      mstore\n      0x20\n      add\n      0x01\n      dup3\n      add\n      dup1\n      sload\n      tag_306\n      swap1\n      tag_194\n      jump\t// in\n    tag_306:\n      dup1\n      0x1f\n      add\n      0x20\n      dup1\n      swap2\n      div\n      mul\n      0x20\n      add\n      mload(0x40)\n      swap1\n      dup2\n      add\n      0x40\n      mstore\n      dup1\n      swap3\n      swap2\n      swap1\n      dup2\n      dup2\n      mstore\n      0x20\n      add\n      dup3\n      dup1\n      sload\n      tag_307\n      swap1\n      tag_194\n      jump\t// in\n    tag_307:\n      dup1\n      iszero\n      tag_308\n      jumpi\n      dup1\n      0x1f\n      lt\n      tag_309\n      jumpi\n      0x0100\n      dup1\n      dup4\n      sload\n      div\n      mul\n      dup4\n      mstore\n      swap2\n      0x20\n      add\n      swap2\n      jump(tag_308)\n    tag_309:\n      dup3\n      add\n      swap2\n      swap1\n      0x00\n      mstore\n      keccak256(0x00, 0x20)\n      swap1\n    tag_310:\n      dup2\n      sload\n      dup2\n      mstore\n      swap1\n      0x01\n      add\n      swap1\n      0x20\n      add\n      dup1\n      dup4\n      gt\n      tag_310\n      jumpi\n      dup3\n      swap1\n      sub\n      0x1f\n      and\n      dup3\n      add\n      swap2\n    tag_308:\n      pop\n      pop\n      pop\n      pop\n      pop\n      dup2\n      mstore\n      0x20\n      add\n      0x02\n      dup3\n      add\n      dup1\n      sload\n      tag_311\n      swap1\n      tag_194\n      jump\t// in\n    tag_311:\n      dup1\n      0x1f\n      add\n      0x20\n      dup1\n      swap2\n      div\n      mul\n      0x20\n      add\n      mload(0x40)\n      swap1\n      dup2\n      add\n      0x40\n      mstore\n      dup1\n      swap3\n      swap2\n      swap1\n      dup2\n      dup2\n      mstore\n      0x20\n      add\n      dup3\n      dup1\n      sload\n      tag_312\n      swap1\n      tag_194\n      jump\t// in\n    tag_312:\n      dup1\n      iszero\n      tag_313\n      jumpi\n      dup1\n      0x1f\n      lt\n      tag_314\n      jumpi\n      0x0100\n      dup1\n      dup4\n      sload\n      div\n      mul\n      dup4\n      mstore\n      swap2\n      0x20\n      add\n      swap2\n      jump(tag_313)\n    tag_314:\n      dup3\n      add\n      swap2\n      swap1\n      0x00\n      mstore\n      keccak256(0x00, 0x20)\n      swap1\n    tag_315:\n      dup2\n      sload\n      dup2\n      mstore\n      swap1\n      0x01\n      add\n      swap1\n      0x20\n      add\n      dup1\n      dup4\n      gt\n      tag_315\n      jumpi\n      dup3\n      swap1\n      sub\n      0x1f\n      and\n      dup3\n      add\n      swap2\n    tag_313:\n      pop\n      pop\n      pop\n      pop\n      pop\n      dup2\n      mstore\n      0x20\n      add\n      0x03\n      dup3\n      add\n      0x00\n      swap1\n      sload\n      swap1\n      0x0100\n      exp\n      swap1\n      div\n      0xff\n      and\n      0x02\n      dup2\n      gt\n      iszero\n      tag_316\n      jumpi\n      tag_317\n      tag_179\n      jump\t// in\n    tag_317:\n    tag_316:\n      0x02\n      dup2\n      gt\n      iszero\n      tag_318\n      jumpi\n      tag_319\n      tag_179\n      jump\t// in\n    tag_319:\n    tag_318:\n      dup2\n      mstore\n      0x20\n      add\n      0x04\n      dup3\n      add\n      sload\n      dup2\n      mstore\n      pop\n      pop\n      swap2\n      pop\n      pop\n        /* \"contracts/edits.sol\":2338:2711  function login(string memory _login, string memory _password) external view returns(User memory) {... */\n      swap3\n      swap2\n      pop\n      pop\n      jump\t// out\n        /* \"contracts/edits.sol\":4171:4720  function makeDelivery(address _shop, uint _productId, uint _amount) external  {... */\n    tag_97:\n        /* \"contracts/edits.sol\":4277:4278  0 */\n      0x00\n        /* \"contracts/edits.sol\":4267:4274  _amount */\n      dup2\n        /* \"contracts/edits.sol\":4267:4278  _amount > 0 */\n      gt\n        /* \"contracts/edits.sol\":4259:4321  require(_amount > 0, \"Purchase amount must be greater than 0\") */\n      tag_321\n      jumpi\n      mload(0x40)\n      0x08c379a000000000000000000000000000000000000000000000000000000000\n      dup2\n      mstore\n      0x04\n      add\n      tag_322\n      swap1\n      tag_323\n      jump\t// in\n    tag_322:\n      mload(0x40)\n      dup1\n      swap2\n      sub\n      swap1\n      revert\n    tag_321:\n        /* \"contracts/edits.sol\":4352:4366  marketProducts */\n      0x06\n        /* \"contracts/edits.sol\":4352:4373  marketProducts[_shop] */\n      0x00\n        /* \"contracts/edits.sol\":4367:4372  _shop */\n      dup5\n        /* \"contracts/edits.sol\":4352:4373  marketProducts[_shop] */\n      0xffffffffffffffffffffffffffffffffffffffff\n      and\n      0xffffffffffffffffffffffffffffffffffffffff\n      and\n      dup2\n      mstore\n      0x20\n      add\n      swap1\n      dup2\n      mstore\n      0x20\n      add\n      0x00\n      keccak256\n        /* \"contracts/edits.sol\":4352:4380  marketProducts[_shop].length */\n      dup1\n      sload\n      swap1\n      pop\n        /* \"contracts/edits.sol\":4339:4349  _productId */\n      dup3\n        /* \"contracts/edits.sol\":4339:4380  _productId < marketProducts[_shop].length */\n      lt\n        /* \"contracts/edits.sol\":4331:4403  require(_productId < marketProducts[_shop].length, \"Invalid product ID\") */\n      tag_324\n      jumpi\n      mload(0x40)\n      0x08c379a000000000000000000000000000000000000000000000000000000000\n      dup2\n      mstore\n      0x04\n      add\n      tag_325\n      swap1\n      tag_326\n      jump\t// in\n    tag_325:\n      mload(0x40)\n      dup1\n      swap2\n      sub\n      swap1\n      revert\n    tag_324:\n        /* \"contracts/edits.sol\":4413:4438  string memory productName */\n      0x00\n        /* \"contracts/edits.sol\":4441:4455  marketProducts */\n      0x06\n        /* \"contracts/edits.sol\":4441:4462  marketProducts[_shop] */\n      0x00\n        /* \"contracts/edits.sol\":4456:4461  _shop */\n      dup6\n        /* \"contracts/edits.sol\":4441:4462  marketProducts[_shop] */\n      0xffffffffffffffffffffffffffffffffffffffff\n      and\n      0xffffffffffffffffffffffffffffffffffffffff\n      and\n      dup2\n      mstore\n      0x20\n      add\n      swap1\n      dup2\n      mstore\n      0x20\n      add\n      0x00\n      keccak256\n        /* \"contracts/edits.sol\":4463:4473  _productId */\n      dup4\n        /* \"contracts/edits.sol\":4441:4474  marketProducts[_shop][_productId] */\n      dup2\n      sload\n      dup2\n      lt\n      tag_327\n      jumpi\n      tag_328\n      tag_226\n      jump\t// in\n    tag_328:\n    tag_327:\n      swap1\n      0x00\n      mstore\n      keccak256(0x00, 0x20)\n      swap1\n      0x06\n      mul\n      add\n        /* \"contracts/edits.sol\":4441:4479  marketProducts[_shop][_productId].name */\n      0x04\n      add\n        /* \"contracts/edits.sol\":4413:4479  string memory productName = marketProducts[_shop][_productId].name */\n      dup1\n      sload\n      tag_330\n      swap1\n      tag_194\n      jump\t// in\n    tag_330:\n      dup1\n      0x1f\n      add\n      0x20\n      dup1\n      swap2\n      div\n      mul\n      0x20\n      add\n      mload(0x40)\n      swap1\n      dup2\n      add\n      0x40\n      mstore\n      dup1\n      swap3\n      swap2\n      swap1\n      dup2\n      dup2\n      mstore\n      0x20\n      add\n      dup3\n      dup1\n      sload\n      tag_331\n      swap1\n      tag_194\n      jump\t// in\n    tag_331:\n      dup1\n      iszero\n      tag_332\n      jumpi\n      dup1\n      0x1f\n      lt\n      tag_333\n      jumpi\n      0x0100\n      dup1\n      dup4\n      sload\n      div\n      mul\n      dup4\n      mstore\n      swap2\n      0x20\n      add\n      swap2\n      jump(tag_332)\n    tag_333:\n      dup3\n      add\n      swap2\n      swap1\n      0x00\n      mstore\n      keccak256(0x00, 0x20)\n      swap1\n    tag_334:\n      dup2\n      sload\n      dup2\n      mstore\n      swap1\n      0x01\n      add\n      swap1\n      0x20\n      add\n      dup1\n      dup4\n      gt\n      tag_334\n      jumpi\n      dup3\n      swap1\n      sub\n      0x1f\n      and\n      dup3\n      add\n      swap2\n    tag_332:\n      pop\n      pop\n      pop\n      pop\n      pop\n      swap1\n      pop\n        /* \"contracts/edits.sol\":4489:4514  string memory trackNumber */\n      0x00\n        /* \"contracts/edits.sol\":4536:4547  productName */\n      dup2\n        /* \"contracts/edits.sol\":4517:4553  string.concat(\"AA\",productName,\"BB\") */\n      add(0x20, mload(0x40))\n      tag_335\n      swap2\n      swap1\n      tag_336\n      jump\t// in\n    tag_335:\n      mload(0x40)\n      0x20\n      dup2\n      dup4\n      sub\n      sub\n      dup2\n      mstore\n      swap1\n      0x40\n      mstore\n        /* \"contracts/edits.sol\":4489:4553  string memory trackNumber = string.concat(\"AA\",productName,\"BB\") */\n      swap1\n      pop\n        /* \"contracts/edits.sol\":4563:4589  DeliveryOrder memory order */\n      0x00\n        /* \"contracts/edits.sol\":4592:4677  DeliveryOrder(msg.sender, _shop, Status.Prepairing, trackNumber, _productId, _amount) */\n      mload(0x40)\n      dup1\n      0xc0\n      add\n      0x40\n      mstore\n      dup1\n        /* \"contracts/edits.sol\":4606:4616  msg.sender */\n      caller\n        /* \"contracts/edits.sol\":4592:4677  DeliveryOrder(msg.sender, _shop, Status.Prepairing, trackNumber, _productId, _amount) */\n      0xffffffffffffffffffffffffffffffffffffffff\n      and\n      dup2\n      mstore\n      0x20\n      add\n        /* \"contracts/edits.sol\":4618:4623  _shop */\n      dup8\n        /* \"contracts/edits.sol\":4592:4677  DeliveryOrder(msg.sender, _shop, Status.Prepairing, trackNumber, _productId, _amount) */\n      0xffffffffffffffffffffffffffffffffffffffff\n      and\n      dup2\n      mstore\n      0x20\n      add\n        /* \"contracts/edits.sol\":4625:4642  Status.Prepairing */\n      0x01\n        /* \"contracts/edits.sol\":4592:4677  DeliveryOrder(msg.sender, _shop, Status.Prepairing, trackNumber, _productId, _amount) */\n      0x03\n      dup2\n      gt\n      iszero\n      tag_337\n      jumpi\n      tag_338\n      tag_179\n      jump\t// in\n    tag_338:\n    tag_337:\n      dup2\n      mstore\n      0x20\n      add\n        /* \"contracts/edits.sol\":4644:4655  trackNumber */\n      dup4\n        /* \"contracts/edits.sol\":4592:4677  DeliveryOrder(msg.sender, _shop, Status.Prepairing, trackNumber, _productId, _amount) */\n      dup2\n      mstore\n      0x20\n      add\n        /* \"contracts/edits.sol\":4657:4667  _productId */\n      dup7\n        /* \"contracts/edits.sol\":4592:4677  DeliveryOrder(msg.sender, _shop, Status.Prepairing, trackNumber, _productId, _amount) */\n      dup2\n      mstore\n      0x20\n      add\n        /* \"contracts/edits.sol\":4669:4676  _amount */\n      dup6\n        /* \"contracts/edits.sol\":4592:4677  DeliveryOrder(msg.sender, _shop, Status.Prepairing, trackNumber, _productId, _amount) */\n      dup2\n      mstore\n      pop\n        /* \"contracts/edits.sol\":4563:4677  DeliveryOrder memory order = DeliveryOrder(msg.sender, _shop, Status.Prepairing, trackNumber, _productId, _amount) */\n      swap1\n      pop\n        /* \"contracts/edits.sol\":4687:4701  deliveryOrders */\n      0x02\n        /* \"contracts/edits.sol\":4707:4712  order */\n      dup2\n        /* \"contracts/edits.sol\":4687:4713  deliveryOrders.push(order) */\n      swap1\n      dup1\n      0x01\n      dup2\n      sload\n      add\n      dup1\n      dup3\n      sstore\n      dup1\n      swap2\n      pop\n      pop\n      0x01\n      swap1\n      sub\n      swap1\n      0x00\n      mstore\n      keccak256(0x00, 0x20)\n      swap1\n      0x05\n      mul\n      add\n      0x00\n      swap1\n      swap2\n      swap1\n      swap2\n      swap1\n      swap2\n      pop\n      0x00\n      dup3\n      add\n      mload\n      dup2\n      0x00\n      add\n      exp(0x0100, 0x00)\n      dup2\n      sload\n      dup2\n      0xffffffffffffffffffffffffffffffffffffffff\n      mul\n      not\n      and\n      swap1\n      dup4\n      0xffffffffffffffffffffffffffffffffffffffff\n      and\n      mul\n      or\n      swap1\n      sstore\n      pop\n      0x20\n      dup3\n      add\n      mload\n      dup2\n      0x01\n      add\n      exp(0x0100, 0x00)\n      dup2\n      sload\n      dup2\n      0xffffffffffffffffffffffffffffffffffffffff\n      mul\n      not\n      and\n      swap1\n      dup4\n      0xffffffffffffffffffffffffffffffffffffffff\n      and\n      mul\n      or\n      swap1\n      sstore\n      pop\n      0x40\n      dup3\n      add\n      mload\n      dup2\n      0x01\n      add\n      exp(0x0100, 0x14)\n      dup2\n      sload\n      dup2\n      0xff\n      mul\n      not\n      and\n      swap1\n      dup4\n      0x03\n      dup2\n      gt\n      iszero\n      tag_340\n      jumpi\n      tag_341\n      tag_179\n      jump\t// in\n    tag_341:\n    tag_340:\n      mul\n      or\n      swap1\n      sstore\n      pop\n      0x60\n      dup3\n      add\n      mload\n      dup2\n      0x02\n      add\n      swap1\n      dup2\n      tag_342\n      swap2\n      swap1\n      tag_188\n      jump\t// in\n    tag_342:\n      pop\n      0x80\n      dup3\n      add\n      mload\n      dup2\n      0x03\n      add\n      sstore\n      0xa0\n      dup3\n      add\n      mload\n      dup2\n      0x04\n      add\n      sstore\n      pop\n      pop\n        /* \"contracts/edits.sol\":4249:4720  {... */\n      pop\n      pop\n      pop\n        /* \"contracts/edits.sol\":4171:4720  function makeDelivery(address _shop, uint _productId, uint _amount) external  {... */\n      pop\n      pop\n      pop\n      jump\t// out\n        /* \"contracts/edits.sol\":1079:1131  mapping(address => bool) public hasRoleChangeRequest */\n    tag_101:\n      mstore(0x20, 0x03)\n      dup1\n      0x00\n      mstore\n      keccak256(0x00, 0x40)\n      0x00\n      swap2\n      pop\n      sload\n      swap1\n      0x0100\n      exp\n      swap1\n      div\n      0xff\n      and\n      dup2\n      jump\t// out\n        /* \"contracts/edits.sol\":4726:5024  function approveDelivery(bool _solution, uint _deliveryId) external  AccessControl(Role.Market) { ... */\n    tag_108:\n        /* \"contracts/edits.sol\":4809:4820  Role.Market */\n      0x01\n        /* \"contracts/edits.sol\":1767:1772  _role */\n      dup1\n        /* \"contracts/edits.sol\":1741:1772  users[msg.sender].role == _role */\n      0x02\n      dup2\n      gt\n      iszero\n      tag_344\n      jumpi\n      tag_345\n      tag_179\n      jump\t// in\n    tag_345:\n    tag_344:\n        /* \"contracts/edits.sol\":1741:1746  users */\n      0x04\n        /* \"contracts/edits.sol\":1741:1758  users[msg.sender] */\n      0x00\n        /* \"contracts/edits.sol\":1747:1757  msg.sender */\n      caller\n        /* \"contracts/edits.sol\":1741:1758  users[msg.sender] */\n      0xffffffffffffffffffffffffffffffffffffffff\n      and\n      0xffffffffffffffffffffffffffffffffffffffff\n      and\n      dup2\n      mstore\n      0x20\n      add\n      swap1\n      dup2\n      mstore\n      0x20\n      add\n      0x00\n      keccak256\n        /* \"contracts/edits.sol\":1741:1763  users[msg.sender].role */\n      0x03\n      add\n      0x00\n      swap1\n      sload\n      swap1\n      0x0100\n      exp\n      swap1\n      div\n      0xff\n      and\n        /* \"contracts/edits.sol\":1741:1772  users[msg.sender].role == _role */\n      0x02\n      dup2\n      gt\n      iszero\n      tag_346\n      jumpi\n      tag_347\n      tag_179\n      jump\t// in\n    tag_347:\n    tag_346:\n      eq\n        /* \"contracts/edits.sol\":1733:1813  require(users[msg.sender].role == _role, \"Your role does not allow this change\") */\n      tag_348\n      jumpi\n      mload(0x40)\n      0x08c379a000000000000000000000000000000000000000000000000000000000\n      dup2\n      mstore\n      0x04\n      add\n      tag_349\n      swap1\n      tag_184\n      jump\t// in\n    tag_349:\n      mload(0x40)\n      dup1\n      swap2\n      sub\n      swap1\n      revert\n    tag_348:\n        /* \"contracts/edits.sol\":4837:4846  _solution */\n      dup3\n        /* \"contracts/edits.sol\":4833:5018  if (_solution) {... */\n      iszero\n      tag_351\n      jumpi\n        /* \"contracts/edits.sol\":4899:4916  Status.Prepairing */\n      0x01\n        /* \"contracts/edits.sol\":4862:4876  deliveryOrders */\n      0x02\n        /* \"contracts/edits.sol\":4877:4888  _deliveryId */\n      dup4\n        /* \"contracts/edits.sol\":4862:4889  deliveryOrders[_deliveryId] */\n      dup2\n      sload\n      dup2\n      lt\n      tag_352\n      jumpi\n      tag_353\n      tag_226\n      jump\t// in\n    tag_353:\n    tag_352:\n      swap1\n      0x00\n      mstore\n      keccak256(0x00, 0x20)\n      swap1\n      0x05\n      mul\n      add\n        /* \"contracts/edits.sol\":4862:4896  deliveryOrders[_deliveryId].status */\n      0x01\n      add\n      0x14\n        /* \"contracts/edits.sol\":4862:4916  deliveryOrders[_deliveryId].status = Status.Prepairing */\n      0x0100\n      exp\n      dup2\n      sload\n      dup2\n      0xff\n      mul\n      not\n      and\n      swap1\n      dup4\n      0x03\n      dup2\n      gt\n      iszero\n      tag_355\n      jumpi\n      tag_356\n      tag_179\n      jump\t// in\n    tag_356:\n    tag_355:\n      mul\n      or\n      swap1\n      sstore\n      pop\n        /* \"contracts/edits.sol\":4833:5018  if (_solution) {... */\n      jump(tag_357)\n    tag_351:\n        /* \"contracts/edits.sol\":4992:5007  Status.Canceled */\n      0x02\n        /* \"contracts/edits.sol\":4955:4969  deliveryOrders */\n      dup1\n        /* \"contracts/edits.sol\":4970:4981  _deliveryId */\n      dup4\n        /* \"contracts/edits.sol\":4955:4982  deliveryOrders[_deliveryId] */\n      dup2\n      sload\n      dup2\n      lt\n      tag_358\n      jumpi\n      tag_359\n      tag_226\n      jump\t// in\n    tag_359:\n    tag_358:\n      swap1\n      0x00\n      mstore\n      keccak256(0x00, 0x20)\n      swap1\n      0x05\n      mul\n      add\n        /* \"contracts/edits.sol\":4955:4989  deliveryOrders[_deliveryId].status */\n      0x01\n      add\n      0x14\n        /* \"contracts/edits.sol\":4955:5007  deliveryOrders[_deliveryId].status = Status.Canceled */\n      0x0100\n      exp\n      dup2\n      sload\n      dup2\n      0xff\n      mul\n      not\n      and\n      swap1\n      dup4\n      0x03\n      dup2\n      gt\n      iszero\n      tag_361\n      jumpi\n      tag_362\n      tag_179\n      jump\t// in\n    tag_362:\n    tag_361:\n      mul\n      or\n      swap1\n      sstore\n      pop\n        /* \"contracts/edits.sol\":4833:5018  if (_solution) {... */\n    tag_357:\n        /* \"contracts/edits.sol\":4726:5024  function approveDelivery(bool _solution, uint _deliveryId) external  AccessControl(Role.Market) { ... */\n      pop\n      pop\n      pop\n      jump\t// out\n        /* \"contracts/edits.sol\":3840:4050  function randMod(uint _modulus) public view returns(uint) { ... */\n    tag_112:\n        /* \"contracts/edits.sol\":3892:3896  uint */\n      0x00\n        /* \"contracts/edits.sol\":3909:3923  uint randNonce */\n      dup1\n        /* \"contracts/edits.sol\":3933:3944  randNonce++ */\n      dup1\n      dup1\n      tag_364\n      swap1\n      tag_236\n      jump\t// in\n    tag_364:\n      swap2\n      pop\n      pop\n        /* \"contracts/edits.sol\":4035:4043  _modulus */\n      dup3\n        /* \"contracts/edits.sol\":3993:4008  block.timestamp */\n      timestamp\n        /* \"contracts/edits.sol\":4009:4019  msg.sender */\n      caller\n        /* \"contracts/edits.sol\":4020:4029  randNonce */\n      dup4\n        /* \"contracts/edits.sol\":3976:4030  abi.encodePacked(block.timestamp,msg.sender,randNonce) */\n      add(0x20, mload(0x40))\n      tag_365\n      swap4\n      swap3\n      swap2\n      swap1\n      tag_366\n      jump\t// in\n    tag_365:\n      mload(0x40)\n      0x20\n      dup2\n      dup4\n      sub\n      sub\n      dup2\n      mstore\n      swap1\n      0x40\n      mstore\n        /* \"contracts/edits.sol\":3966:4031  keccak256(abi.encodePacked(block.timestamp,msg.sender,randNonce)) */\n      dup1\n      mload\n      swap1\n      0x20\n      add\n      keccak256\n        /* \"contracts/edits.sol\":3961:4032  uint(keccak256(abi.encodePacked(block.timestamp,msg.sender,randNonce))) */\n      0x00\n      shr\n        /* \"contracts/edits.sol\":3961:4043  uint(keccak256(abi.encodePacked(block.timestamp,msg.sender,randNonce))) % _modulus */\n      tag_367\n      swap2\n      swap1\n      tag_368\n      jump\t// in\n    tag_367:\n        /* \"contracts/edits.sol\":3954:4043  return uint(keccak256(abi.encodePacked(block.timestamp,msg.sender,randNonce))) % _modulus */\n      swap2\n      pop\n      pop\n        /* \"contracts/edits.sol\":3840:4050  function randMod(uint _modulus) public view returns(uint) { ... */\n      swap2\n      swap1\n      pop\n      jump\t// out\n        /* \"contracts/edits.sol\":5456:5762  function addItemsSupplier(uint _inStock, uint _price, string calldata _name, uint _expDate, address _addressSupp) external  AccessControl(Role.Supplier) {... */\n    tag_119:\n        /* \"contracts/edits.sol\":5594:5607  Role.Supplier */\n      0x02\n        /* \"contracts/edits.sol\":1767:1772  _role */\n      dup1\n        /* \"contracts/edits.sol\":1741:1772  users[msg.sender].role == _role */\n      0x02\n      dup2\n      gt\n      iszero\n      tag_370\n      jumpi\n      tag_371\n      tag_179\n      jump\t// in\n    tag_371:\n    tag_370:\n        /* \"contracts/edits.sol\":1741:1746  users */\n      0x04\n        /* \"contracts/edits.sol\":1741:1758  users[msg.sender] */\n      0x00\n        /* \"contracts/edits.sol\":1747:1757  msg.sender */\n      caller\n        /* \"contracts/edits.sol\":1741:1758  users[msg.sender] */\n      0xffffffffffffffffffffffffffffffffffffffff\n      and\n      0xffffffffffffffffffffffffffffffffffffffff\n      and\n      dup2\n      mstore\n      0x20\n      add\n      swap1\n      dup2\n      mstore\n      0x20\n      add\n      0x00\n      keccak256\n        /* \"contracts/edits.sol\":1741:1763  users[msg.sender].role */\n      0x03\n      add\n      0x00\n      swap1\n      sload\n      swap1\n      0x0100\n      exp\n      swap1\n      div\n      0xff\n      and\n        /* \"contracts/edits.sol\":1741:1772  users[msg.sender].role == _role */\n      0x02\n      dup2\n      gt\n      iszero\n      tag_372\n      jumpi\n      tag_373\n      tag_179\n      jump\t// in\n    tag_373:\n    tag_372:\n      eq\n        /* \"contracts/edits.sol\":1733:1813  require(users[msg.sender].role == _role, \"Your role does not allow this change\") */\n      tag_374\n      jumpi\n      mload(0x40)\n      0x08c379a000000000000000000000000000000000000000000000000000000000\n      dup2\n      mstore\n      0x04\n      add\n      tag_375\n      swap1\n      tag_184\n      jump\t// in\n    tag_375:\n      mload(0x40)\n      dup1\n      swap2\n      sub\n      swap1\n      revert\n    tag_374:\n        /* \"contracts/edits.sol\":5619:5638  Product memory item */\n      0x00\n        /* \"contracts/edits.sol\":5641:5704  Product(0, _addressSupp, _inStock, _price / 2, _name, _expDate) */\n      mload(0x40)\n      dup1\n      0xc0\n      add\n      0x40\n      mstore\n      dup1\n        /* \"contracts/edits.sol\":5649:5650  0 */\n      0x00\n        /* \"contracts/edits.sol\":5641:5704  Product(0, _addressSupp, _inStock, _price / 2, _name, _expDate) */\n      dup2\n      mstore\n      0x20\n      add\n        /* \"contracts/edits.sol\":5652:5664  _addressSupp */\n      dup5\n        /* \"contracts/edits.sol\":5641:5704  Product(0, _addressSupp, _inStock, _price / 2, _name, _expDate) */\n      0xffffffffffffffffffffffffffffffffffffffff\n      and\n      dup2\n      mstore\n      0x20\n      add\n        /* \"contracts/edits.sol\":5666:5674  _inStock */\n      dup10\n        /* \"contracts/edits.sol\":5641:5704  Product(0, _addressSupp, _inStock, _price / 2, _name, _expDate) */\n      dup2\n      mstore\n      0x20\n      add\n        /* \"contracts/edits.sol\":5685:5686  2 */\n      0x02\n        /* \"contracts/edits.sol\":5676:5682  _price */\n      dup10\n        /* \"contracts/edits.sol\":5676:5686  _price / 2 */\n      tag_377\n      swap2\n      swap1\n      tag_378\n      jump\t// in\n    tag_377:\n        /* \"contracts/edits.sol\":5641:5704  Product(0, _addressSupp, _inStock, _price / 2, _name, _expDate) */\n      dup2\n      mstore\n      0x20\n      add\n        /* \"contracts/edits.sol\":5688:5693  _name */\n      dup8\n      dup8\n        /* \"contracts/edits.sol\":5641:5704  Product(0, _addressSupp, _inStock, _price / 2, _name, _expDate) */\n      dup1\n      dup1\n      0x1f\n      add\n      0x20\n      dup1\n      swap2\n      div\n      mul\n      0x20\n      add\n      mload(0x40)\n      swap1\n      dup2\n      add\n      0x40\n      mstore\n      dup1\n      swap4\n      swap3\n      swap2\n      swap1\n      dup2\n      dup2\n      mstore\n      0x20\n      add\n      dup4\n      dup4\n      dup1\n      dup3\n      dup5\n      calldatacopy\n      0x00\n      dup2\n      dup5\n      add\n      mstore\n      not(0x1f)\n      0x1f\n      dup3\n      add\n      and\n      swap1\n      pop\n      dup1\n      dup4\n      add\n      swap3\n      pop\n      pop\n      pop\n      pop\n      pop\n      pop\n      pop\n      dup2\n      mstore\n      0x20\n      add\n        /* \"contracts/edits.sol\":5695:5703  _expDate */\n      dup6\n        /* \"contracts/edits.sol\":5641:5704  Product(0, _addressSupp, _inStock, _price / 2, _name, _expDate) */\n      dup2\n      mstore\n      pop\n        /* \"contracts/edits.sol\":5619:5704  Product memory item = Product(0, _addressSupp, _inStock, _price / 2, _name, _expDate) */\n      swap1\n      pop\n        /* \"contracts/edits.sol\":5714:5730  supplierProducts */\n      0x07\n        /* \"contracts/edits.sol\":5714:5744  supplierProducts[_addressSupp] */\n      0x00\n        /* \"contracts/edits.sol\":5731:5743  _addressSupp */\n      dup5\n        /* \"contracts/edits.sol\":5714:5744  supplierProducts[_addressSupp] */\n      0xffffffffffffffffffffffffffffffffffffffff\n      and\n      0xffffffffffffffffffffffffffffffffffffffff\n      and\n      dup2\n      mstore\n      0x20\n      add\n      swap1\n      dup2\n      mstore\n      0x20\n      add\n      0x00\n      keccak256\n        /* \"contracts/edits.sol\":5750:5754  item */\n      dup2\n        /* \"contracts/edits.sol\":5714:5755  supplierProducts[_addressSupp].push(item) */\n      swap1\n      dup1\n      0x01\n      dup2\n      sload\n      add\n      dup1\n      dup3\n      sstore\n      dup1\n      swap2\n      pop\n      pop\n      0x01\n      swap1\n      sub\n      swap1\n      0x00\n      mstore\n      keccak256(0x00, 0x20)\n      swap1\n      0x06\n      mul\n      add\n      0x00\n      swap1\n      swap2\n      swap1\n      swap2\n      swap1\n      swap2\n      pop\n      0x00\n      dup3\n      add\n      mload\n      dup2\n      0x00\n      add\n      sstore\n      0x20\n      dup3\n      add\n      mload\n      dup2\n      0x01\n      add\n      exp(0x0100, 0x00)\n      dup2\n      sload\n      dup2\n      0xffffffffffffffffffffffffffffffffffffffff\n      mul\n      not\n      and\n      swap1\n      dup4\n      0xffffffffffffffffffffffffffffffffffffffff\n      and\n      mul\n      or\n      swap1\n      sstore\n      pop\n      0x40\n      dup3\n      add\n      mload\n      dup2\n      0x02\n      add\n      sstore\n      0x60\n      dup3\n      add\n      mload\n      dup2\n      0x03\n      add\n      sstore\n      0x80\n      dup3\n      add\n      mload\n      dup2\n      0x04\n      add\n      swap1\n      dup2\n      tag_380\n      swap2\n      swap1\n      tag_188\n      jump\t// in\n    tag_380:\n      pop\n      0xa0\n      dup3\n      add\n      mload\n      dup2\n      0x05\n      add\n      sstore\n      pop\n      pop\n        /* \"contracts/edits.sol\":5609:5762  {... */\n      pop\n        /* \"contracts/edits.sol\":5456:5762  function addItemsSupplier(uint _inStock, uint _price, string calldata _name, uint _expDate, address _addressSupp) external  AccessControl(Role.Supplier) {... */\n      pop\n      pop\n      pop\n      pop\n      pop\n      pop\n      pop\n      jump\t// out\n        /* \"contracts/edits.sol\":1008:1028  address public owner */\n    tag_122:\n      0x01\n      0x00\n      swap1\n      sload\n      swap1\n      0x0100\n      exp\n      swap1\n      div\n      0xffffffffffffffffffffffffffffffffffffffff\n      and\n      dup2\n      jump\t// out\n        /* \"contracts/edits.sol\":8311:9612  function purchase(address _shop, uint _amount, uint _id, string memory _ref ) public payable {... */\n    tag_128:\n        /* \"contracts/edits.sol\":8432:8433  0 */\n      0x00\n        /* \"contracts/edits.sol\":8422:8429  _amount */\n      dup4\n        /* \"contracts/edits.sol\":8422:8433  _amount > 0 */\n      gt\n        /* \"contracts/edits.sol\":8414:8476  require(_amount > 0, \"Purchase amount must be greater than 0\") */\n      tag_382\n      jumpi\n      mload(0x40)\n      0x08c379a000000000000000000000000000000000000000000000000000000000\n      dup2\n      mstore\n      0x04\n      add\n      tag_383\n      swap1\n      tag_323\n      jump\t// in\n    tag_383:\n      mload(0x40)\n      dup1\n      swap2\n      sub\n      swap1\n      revert\n    tag_382:\n        /* \"contracts/edits.sol\":8500:8514  marketProducts */\n      0x06\n        /* \"contracts/edits.sol\":8500:8521  marketProducts[_shop] */\n      0x00\n        /* \"contracts/edits.sol\":8515:8520  _shop */\n      dup6\n        /* \"contracts/edits.sol\":8500:8521  marketProducts[_shop] */\n      0xffffffffffffffffffffffffffffffffffffffff\n      and\n      0xffffffffffffffffffffffffffffffffffffffff\n      and\n      dup2\n      mstore\n      0x20\n      add\n      swap1\n      dup2\n      mstore\n      0x20\n      add\n      0x00\n      keccak256\n        /* \"contracts/edits.sol\":8500:8528  marketProducts[_shop].length */\n      dup1\n      sload\n      swap1\n      pop\n        /* \"contracts/edits.sol\":8494:8497  _id */\n      dup3\n        /* \"contracts/edits.sol\":8494:8528  _id < marketProducts[_shop].length */\n      lt\n        /* \"contracts/edits.sol\":8486:8551  require(_id < marketProducts[_shop].length, \"Invalid product ID\") */\n      tag_384\n      jumpi\n      mload(0x40)\n      0x08c379a000000000000000000000000000000000000000000000000000000000\n      dup2\n      mstore\n      0x04\n      add\n      tag_385\n      swap1\n      tag_326\n      jump\t// in\n    tag_385:\n      mload(0x40)\n      dup1\n      swap2\n      sub\n      swap1\n      revert\n    tag_384:\n        /* \"contracts/edits.sol\":8580:8594  marketProducts */\n      0x06\n        /* \"contracts/edits.sol\":8580:8601  marketProducts[_shop] */\n      0x00\n        /* \"contracts/edits.sol\":8595:8600  _shop */\n      dup6\n        /* \"contracts/edits.sol\":8580:8601  marketProducts[_shop] */\n      0xffffffffffffffffffffffffffffffffffffffff\n      and\n      0xffffffffffffffffffffffffffffffffffffffff\n      and\n      dup2\n      mstore\n      0x20\n      add\n      swap1\n      dup2\n      mstore\n      0x20\n      add\n      0x00\n      keccak256\n        /* \"contracts/edits.sol\":8602:8605  _id */\n      dup3\n        /* \"contracts/edits.sol\":8580:8606  marketProducts[_shop][_id] */\n      dup2\n      sload\n      dup2\n      lt\n      tag_386\n      jumpi\n      tag_387\n      tag_226\n      jump\t// in\n    tag_387:\n    tag_386:\n      swap1\n      0x00\n      mstore\n      keccak256(0x00, 0x20)\n      swap1\n      0x06\n      mul\n      add\n        /* \"contracts/edits.sol\":8580:8614  marketProducts[_shop][_id].inStock */\n      0x02\n      add\n      sload\n        /* \"contracts/edits.sol\":8569:8576  _amount */\n      dup4\n        /* \"contracts/edits.sol\":8569:8614  _amount <= marketProducts[_shop][_id].inStock */\n      gt\n      iszero\n        /* \"contracts/edits.sol\":8561:8645  require(_amount <= marketProducts[_shop][_id].inStock, \"Not enough stock available\") */\n      tag_389\n      jumpi\n      mload(0x40)\n      0x08c379a000000000000000000000000000000000000000000000000000000000\n      dup2\n      mstore\n      0x04\n      add\n      tag_390\n      swap1\n      tag_391\n      jump\t// in\n    tag_390:\n      mload(0x40)\n      dup1\n      swap2\n      sub\n      swap1\n      revert\n    tag_389:\n        /* \"contracts/edits.sol\":8655:8670  uint totalPrice */\n      0x00\n        /* \"contracts/edits.sol\":8683:8697  marketProducts */\n      0x06\n        /* \"contracts/edits.sol\":8683:8704  marketProducts[_shop] */\n      0x00\n        /* \"contracts/edits.sol\":8698:8703  _shop */\n      dup7\n        /* \"contracts/edits.sol\":8683:8704  marketProducts[_shop] */\n      0xffffffffffffffffffffffffffffffffffffffff\n      and\n      0xffffffffffffffffffffffffffffffffffffffff\n      and\n      dup2\n      mstore\n      0x20\n      add\n      swap1\n      dup2\n      mstore\n      0x20\n      add\n      0x00\n      keccak256\n        /* \"contracts/edits.sol\":8705:8708  _id */\n      dup4\n        /* \"contracts/edits.sol\":8683:8709  marketProducts[_shop][_id] */\n      dup2\n      sload\n      dup2\n      lt\n      tag_392\n      jumpi\n      tag_393\n      tag_226\n      jump\t// in\n    tag_393:\n    tag_392:\n      swap1\n      0x00\n      mstore\n      keccak256(0x00, 0x20)\n      swap1\n      0x06\n      mul\n      add\n        /* \"contracts/edits.sol\":8683:8715  marketProducts[_shop][_id].price */\n      0x03\n      add\n      sload\n        /* \"contracts/edits.sol\":8673:8680  _amount */\n      dup5\n        /* \"contracts/edits.sol\":8673:8715  _amount * marketProducts[_shop][_id].price */\n      tag_395\n      swap2\n      swap1\n      tag_252\n      jump\t// in\n    tag_395:\n        /* \"contracts/edits.sol\":8655:8715  uint totalPrice = _amount * marketProducts[_shop][_id].price */\n      swap1\n      pop\n        /* \"contracts/edits.sol\":8757:8767  msg.sender */\n      caller\n        /* \"contracts/edits.sol\":8738:8767  referrals[_ref] == msg.sender */\n      0xffffffffffffffffffffffffffffffffffffffff\n      and\n        /* \"contracts/edits.sol\":8738:8747  referrals */\n      0x08\n        /* \"contracts/edits.sol\":8748:8752  _ref */\n      dup4\n        /* \"contracts/edits.sol\":8738:8753  referrals[_ref] */\n      mload(0x40)\n      tag_396\n      swap2\n      swap1\n      tag_295\n      jump\t// in\n    tag_396:\n      swap1\n      dup2\n      mstore\n      0x20\n      add\n      mload(0x40)\n      dup1\n      swap2\n      sub\n      swap1\n      keccak256\n      0x00\n      swap1\n      sload\n      swap1\n      0x0100\n      exp\n      swap1\n      div\n      0xffffffffffffffffffffffffffffffffffffffff\n      and\n        /* \"contracts/edits.sol\":8738:8767  referrals[_ref] == msg.sender */\n      0xffffffffffffffffffffffffffffffffffffffff\n      and\n      sub\n        /* \"contracts/edits.sol\":8734:8872  if (referrals[_ref] == msg.sender) {... */\n      tag_397\n      jumpi\n        /* \"contracts/edits.sol\":8815:8818  100 */\n      0x64\n        /* \"contracts/edits.sol\":8810:8812  90 */\n      0x5a\n        /* \"contracts/edits.sol\":8797:8807  totalPrice */\n      dup3\n        /* \"contracts/edits.sol\":8797:8812  totalPrice * 90 */\n      tag_398\n      swap2\n      swap1\n      tag_252\n      jump\t// in\n    tag_398:\n        /* \"contracts/edits.sol\":8797:8818  totalPrice * 90 / 100 */\n      tag_399\n      swap2\n      swap1\n      tag_378\n      jump\t// in\n    tag_399:\n        /* \"contracts/edits.sol\":8783:8819  totalPrice = (totalPrice * 90 / 100) */\n      swap1\n      pop\n        /* \"contracts/edits.sol\":8859:8860  0 */\n      0x00\n        /* \"contracts/edits.sol\":8833:8842  referrals */\n      0x08\n        /* \"contracts/edits.sol\":8843:8847  _ref */\n      dup4\n        /* \"contracts/edits.sol\":8833:8848  referrals[_ref] */\n      mload(0x40)\n      tag_400\n      swap2\n      swap1\n      tag_295\n      jump\t// in\n    tag_400:\n      swap1\n      dup2\n      mstore\n      0x20\n      add\n      mload(0x40)\n      dup1\n      swap2\n      sub\n      swap1\n      keccak256\n      0x00\n        /* \"contracts/edits.sol\":8833:8861  referrals[_ref] = address(0) */\n      0x0100\n      exp\n      dup2\n      sload\n      dup2\n      0xffffffffffffffffffffffffffffffffffffffff\n      mul\n      not\n      and\n      swap1\n      dup4\n      0xffffffffffffffffffffffffffffffffffffffff\n      and\n      mul\n      or\n      swap1\n      sstore\n      pop\n        /* \"contracts/edits.sol\":8734:8872  if (referrals[_ref] == msg.sender) {... */\n    tag_397:\n        /* \"contracts/edits.sol\":8903:8913  totalPrice */\n      dup1\n        /* \"contracts/edits.sol\":8890:8899  msg.value */\n      callvalue\n        /* \"contracts/edits.sol\":8890:8913  msg.value >= totalPrice */\n      lt\n      iszero\n        /* \"contracts/edits.sol\":8882:8941  require(msg.value >= totalPrice, \"Insufficient funds sent\") */\n      tag_401\n      jumpi\n      mload(0x40)\n      0x08c379a000000000000000000000000000000000000000000000000000000000\n      dup2\n      mstore\n      0x04\n      add\n      tag_402\n      swap1\n      tag_403\n      jump\t// in\n    tag_402:\n      mload(0x40)\n      dup1\n      swap2\n      sub\n      swap1\n      revert\n    tag_401:\n        /* \"contracts/edits.sol\":8951:8969  bool productExists */\n      0x00\n        /* \"contracts/edits.sol\":8993:8999  uint i */\n      dup1\n        /* \"contracts/edits.sol\":8988:9331  for (uint i = 0; i < userProducts[msg.sender].length; i++) {... */\n    tag_404:\n        /* \"contracts/edits.sol\":9009:9021  userProducts */\n      0x05\n        /* \"contracts/edits.sol\":9009:9033  userProducts[msg.sender] */\n      0x00\n        /* \"contracts/edits.sol\":9022:9032  msg.sender */\n      caller\n        /* \"contracts/edits.sol\":9009:9033  userProducts[msg.sender] */\n      0xffffffffffffffffffffffffffffffffffffffff\n      and\n      0xffffffffffffffffffffffffffffffffffffffff\n      and\n      dup2\n      mstore\n      0x20\n      add\n      swap1\n      dup2\n      mstore\n      0x20\n      add\n      0x00\n      keccak256\n        /* \"contracts/edits.sol\":9009:9040  userProducts[msg.sender].length */\n      dup1\n      sload\n      swap1\n      pop\n        /* \"contracts/edits.sol\":9005:9006  i */\n      dup2\n        /* \"contracts/edits.sol\":9005:9040  i < userProducts[msg.sender].length */\n      lt\n        /* \"contracts/edits.sol\":8988:9331  for (uint i = 0; i < userProducts[msg.sender].length; i++) {... */\n      iszero\n      tag_405\n      jumpi\n        /* \"contracts/edits.sol\":9145:9159  marketProducts */\n      0x06\n        /* \"contracts/edits.sol\":9145:9166  marketProducts[_shop] */\n      0x00\n        /* \"contracts/edits.sol\":9160:9165  _shop */\n      dup9\n        /* \"contracts/edits.sol\":9145:9166  marketProducts[_shop] */\n      0xffffffffffffffffffffffffffffffffffffffff\n      and\n      0xffffffffffffffffffffffffffffffffffffffff\n      and\n      dup2\n      mstore\n      0x20\n      add\n      swap1\n      dup2\n      mstore\n      0x20\n      add\n      0x00\n      keccak256\n        /* \"contracts/edits.sol\":9167:9170  _id */\n      dup6\n        /* \"contracts/edits.sol\":9145:9171  marketProducts[_shop][_id] */\n      dup2\n      sload\n      dup2\n      lt\n      tag_407\n      jumpi\n      tag_408\n      tag_226\n      jump\t// in\n    tag_408:\n    tag_407:\n      swap1\n      0x00\n      mstore\n      keccak256(0x00, 0x20)\n      swap1\n      0x06\n      mul\n      add\n        /* \"contracts/edits.sol\":9145:9176  marketProducts[_shop][_id].name */\n      0x04\n      add\n        /* \"contracts/edits.sol\":9134:9177  abi.encode(marketProducts[_shop][_id].name) */\n      add(0x20, mload(0x40))\n      tag_410\n      swap2\n      swap1\n      tag_229\n      jump\t// in\n    tag_410:\n      mload(0x40)\n      0x20\n      dup2\n      dup4\n      sub\n      sub\n      dup2\n      mstore\n      swap1\n      0x40\n      mstore\n        /* \"contracts/edits.sol\":9124:9178  keccak256(abi.encode(marketProducts[_shop][_id].name)) */\n      dup1\n      mload\n      swap1\n      0x20\n      add\n      keccak256\n        /* \"contracts/edits.sol\":9086:9098  userProducts */\n      0x05\n        /* \"contracts/edits.sol\":9086:9110  userProducts[msg.sender] */\n      0x00\n        /* \"contracts/edits.sol\":9099:9109  msg.sender */\n      caller\n        /* \"contracts/edits.sol\":9086:9110  userProducts[msg.sender] */\n      0xffffffffffffffffffffffffffffffffffffffff\n      and\n      0xffffffffffffffffffffffffffffffffffffffff\n      and\n      dup2\n      mstore\n      0x20\n      add\n      swap1\n      dup2\n      mstore\n      0x20\n      add\n      0x00\n      keccak256\n        /* \"contracts/edits.sol\":9111:9112  i */\n      dup3\n        /* \"contracts/edits.sol\":9086:9113  userProducts[msg.sender][i] */\n      dup2\n      sload\n      dup2\n      lt\n      tag_411\n      jumpi\n      tag_412\n      tag_226\n      jump\t// in\n    tag_412:\n    tag_411:\n      swap1\n      0x00\n      mstore\n      keccak256(0x00, 0x20)\n      swap1\n      0x06\n      mul\n      add\n        /* \"contracts/edits.sol\":9086:9118  userProducts[msg.sender][i].name */\n      0x04\n      add\n        /* \"contracts/edits.sol\":9075:9119  abi.encode(userProducts[msg.sender][i].name) */\n      add(0x20, mload(0x40))\n      tag_414\n      swap2\n      swap1\n      tag_229\n      jump\t// in\n    tag_414:\n      mload(0x40)\n      0x20\n      dup2\n      dup4\n      sub\n      sub\n      dup2\n      mstore\n      swap1\n      0x40\n      mstore\n        /* \"contracts/edits.sol\":9065:9120  keccak256(abi.encode(userProducts[msg.sender][i].name)) */\n      dup1\n      mload\n      swap1\n      0x20\n      add\n      keccak256\n        /* \"contracts/edits.sol\":9065:9178  keccak256(abi.encode(userProducts[msg.sender][i].name)) == keccak256(abi.encode(marketProducts[_shop][_id].name)) */\n      sub\n        /* \"contracts/edits.sol\":9061:9321  if (keccak256(abi.encode(userProducts[msg.sender][i].name)) == keccak256(abi.encode(marketProducts[_shop][_id].name))) {... */\n      tag_415\n      jumpi\n        /* \"contracts/edits.sol\":9237:9244  _amount */\n      dup6\n        /* \"contracts/edits.sol\":9198:9210  userProducts */\n      0x05\n        /* \"contracts/edits.sol\":9198:9222  userProducts[msg.sender] */\n      0x00\n        /* \"contracts/edits.sol\":9211:9221  msg.sender */\n      caller\n        /* \"contracts/edits.sol\":9198:9222  userProducts[msg.sender] */\n      0xffffffffffffffffffffffffffffffffffffffff\n      and\n      0xffffffffffffffffffffffffffffffffffffffff\n      and\n      dup2\n      mstore\n      0x20\n      add\n      swap1\n      dup2\n      mstore\n      0x20\n      add\n      0x00\n      keccak256\n        /* \"contracts/edits.sol\":9223:9224  i */\n      dup3\n        /* \"contracts/edits.sol\":9198:9225  userProducts[msg.sender][i] */\n      dup2\n      sload\n      dup2\n      lt\n      tag_416\n      jumpi\n      tag_417\n      tag_226\n      jump\t// in\n    tag_417:\n    tag_416:\n      swap1\n      0x00\n      mstore\n      keccak256(0x00, 0x20)\n      swap1\n      0x06\n      mul\n      add\n        /* \"contracts/edits.sol\":9198:9233  userProducts[msg.sender][i].inStock */\n      0x02\n      add\n      0x00\n        /* \"contracts/edits.sol\":9198:9244  userProducts[msg.sender][i].inStock += _amount */\n      dup3\n      dup3\n      sload\n      tag_419\n      swap2\n      swap1\n      tag_260\n      jump\t// in\n    tag_419:\n      swap3\n      pop\n      pop\n      dup2\n      swap1\n      sstore\n      pop\n        /* \"contracts/edits.sol\":9278:9282  true */\n      0x01\n        /* \"contracts/edits.sol\":9262:9282  productExists = true */\n      swap2\n      pop\n        /* \"contracts/edits.sol\":9300:9305  break */\n      jump(tag_405)\n        /* \"contracts/edits.sol\":9061:9321  if (keccak256(abi.encode(userProducts[msg.sender][i].name)) == keccak256(abi.encode(marketProducts[_shop][_id].name))) {... */\n    tag_415:\n        /* \"contracts/edits.sol\":9042:9045  i++ */\n      dup1\n      dup1\n      tag_420\n      swap1\n      tag_236\n      jump\t// in\n    tag_420:\n      swap2\n      pop\n      pop\n        /* \"contracts/edits.sol\":8988:9331  for (uint i = 0; i < userProducts[msg.sender].length; i++) {... */\n      jump(tag_404)\n    tag_405:\n      pop\n        /* \"contracts/edits.sol\":9346:9359  productExists */\n      dup1\n        /* \"contracts/edits.sol\":9341:9504  if (!productExists) {... */\n      tag_421\n      jumpi\n        /* \"contracts/edits.sol\":9375:9387  userProducts */\n      0x05\n        /* \"contracts/edits.sol\":9375:9399  userProducts[msg.sender] */\n      0x00\n        /* \"contracts/edits.sol\":9388:9398  msg.sender */\n      caller\n        /* \"contracts/edits.sol\":9375:9399  userProducts[msg.sender] */\n      0xffffffffffffffffffffffffffffffffffffffff\n      and\n      0xffffffffffffffffffffffffffffffffffffffff\n      and\n      dup2\n      mstore\n      0x20\n      add\n      swap1\n      dup2\n      mstore\n      0x20\n      add\n      0x00\n      keccak256\n        /* \"contracts/edits.sol\":9405:9492  Product(_id, _shop, _amount, msg.value, marketProducts[_shop][_id].name, randMod(1000)) */\n      mload(0x40)\n      dup1\n      0xc0\n      add\n      0x40\n      mstore\n      dup1\n        /* \"contracts/edits.sol\":9413:9416  _id */\n      dup7\n        /* \"contracts/edits.sol\":9405:9492  Product(_id, _shop, _amount, msg.value, marketProducts[_shop][_id].name, randMod(1000)) */\n      dup2\n      mstore\n      0x20\n      add\n        /* \"contracts/edits.sol\":9418:9423  _shop */\n      dup9\n        /* \"contracts/edits.sol\":9405:9492  Product(_id, _shop, _amount, msg.value, marketProducts[_shop][_id].name, randMod(1000)) */\n      0xffffffffffffffffffffffffffffffffffffffff\n      and\n      dup2\n      mstore\n      0x20\n      add\n        /* \"contracts/edits.sol\":9425:9432  _amount */\n      dup8\n        /* \"contracts/edits.sol\":9405:9492  Product(_id, _shop, _amount, msg.value, marketProducts[_shop][_id].name, randMod(1000)) */\n      dup2\n      mstore\n      0x20\n      add\n        /* \"contracts/edits.sol\":9434:9443  msg.value */\n      callvalue\n        /* \"contracts/edits.sol\":9405:9492  Product(_id, _shop, _amount, msg.value, marketProducts[_shop][_id].name, randMod(1000)) */\n      dup2\n      mstore\n      0x20\n      add\n        /* \"contracts/edits.sol\":9445:9459  marketProducts */\n      0x06\n        /* \"contracts/edits.sol\":9445:9466  marketProducts[_shop] */\n      0x00\n        /* \"contracts/edits.sol\":9460:9465  _shop */\n      dup11\n        /* \"contracts/edits.sol\":9445:9466  marketProducts[_shop] */\n      0xffffffffffffffffffffffffffffffffffffffff\n      and\n      0xffffffffffffffffffffffffffffffffffffffff\n      and\n      dup2\n      mstore\n      0x20\n      add\n      swap1\n      dup2\n      mstore\n      0x20\n      add\n      0x00\n      keccak256\n        /* \"contracts/edits.sol\":9467:9470  _id */\n      dup8\n        /* \"contracts/edits.sol\":9445:9471  marketProducts[_shop][_id] */\n      dup2\n      sload\n      dup2\n      lt\n      tag_422\n      jumpi\n      tag_423\n      tag_226\n      jump\t// in\n    tag_423:\n    tag_422:\n      swap1\n      0x00\n      mstore\n      keccak256(0x00, 0x20)\n      swap1\n      0x06\n      mul\n      add\n        /* \"contracts/edits.sol\":9445:9476  marketProducts[_shop][_id].name */\n      0x04\n      add\n        /* \"contracts/edits.sol\":9405:9492  Product(_id, _shop, _amount, msg.value, marketProducts[_shop][_id].name, randMod(1000)) */\n      dup1\n      sload\n      tag_425\n      swap1\n      tag_194\n      jump\t// in\n    tag_425:\n      dup1\n      0x1f\n      add\n      0x20\n      dup1\n      swap2\n      div\n      mul\n      0x20\n      add\n      mload(0x40)\n      swap1\n      dup2\n      add\n      0x40\n      mstore\n      dup1\n      swap3\n      swap2\n      swap1\n      dup2\n      dup2\n      mstore\n      0x20\n      add\n      dup3\n      dup1\n      sload\n      tag_426\n      swap1\n      tag_194\n      jump\t// in\n    tag_426:\n      dup1\n      iszero\n      tag_427\n      jumpi\n      dup1\n      0x1f\n      lt\n      tag_428\n      jumpi\n      0x0100\n      dup1\n      dup4\n      sload\n      div\n      mul\n      dup4\n      mstore\n      swap2\n      0x20\n      add\n      swap2\n      jump(tag_427)\n    tag_428:\n      dup3\n      add\n      swap2\n      swap1\n      0x00\n      mstore\n      keccak256(0x00, 0x20)\n      swap1\n    tag_429:\n      dup2\n      sload\n      dup2\n      mstore\n      swap1\n      0x01\n      add\n      swap1\n      0x20\n      add\n      dup1\n      dup4\n      gt\n      tag_429\n      jumpi\n      dup3\n      swap1\n      sub\n      0x1f\n      and\n      dup3\n      add\n      swap2\n    tag_427:\n      pop\n      pop\n      pop\n      pop\n      pop\n      dup2\n      mstore\n      0x20\n      add\n        /* \"contracts/edits.sol\":9478:9491  randMod(1000) */\n      tag_430\n        /* \"contracts/edits.sol\":9486:9490  1000 */\n      0x03e8\n        /* \"contracts/edits.sol\":9478:9485  randMod */\n      tag_112\n        /* \"contracts/edits.sol\":9478:9491  randMod(1000) */\n      jump\t// in\n    tag_430:\n        /* \"contracts/edits.sol\":9405:9492  Product(_id, _shop, _amount, msg.value, marketProducts[_shop][_id].name, randMod(1000)) */\n      dup2\n      mstore\n      pop\n        /* \"contracts/edits.sol\":9375:9493  userProducts[msg.sender].push(Product(_id, _shop, _amount, msg.value, marketProducts[_shop][_id].name, randMod(1000))) */\n      swap1\n      dup1\n      0x01\n      dup2\n      sload\n      add\n      dup1\n      dup3\n      sstore\n      dup1\n      swap2\n      pop\n      pop\n      0x01\n      swap1\n      sub\n      swap1\n      0x00\n      mstore\n      keccak256(0x00, 0x20)\n      swap1\n      0x06\n      mul\n      add\n      0x00\n      swap1\n      swap2\n      swap1\n      swap2\n      swap1\n      swap2\n      pop\n      0x00\n      dup3\n      add\n      mload\n      dup2\n      0x00\n      add\n      sstore\n      0x20\n      dup3\n      add\n      mload\n      dup2\n      0x01\n      add\n      exp(0x0100, 0x00)\n      dup2\n      sload\n      dup2\n      0xffffffffffffffffffffffffffffffffffffffff\n      mul\n      not\n      and\n      swap1\n      dup4\n      0xffffffffffffffffffffffffffffffffffffffff\n      and\n      mul\n      or\n      swap1\n      sstore\n      pop\n      0x40\n      dup3\n      add\n      mload\n      dup2\n      0x02\n      add\n      sstore\n      0x60\n      dup3\n      add\n      mload\n      dup2\n      0x03\n      add\n      sstore\n      0x80\n      dup3\n      add\n      mload\n      dup2\n      0x04\n      add\n      swap1\n      dup2\n      tag_432\n      swap2\n      swap1\n      tag_188\n      jump\t// in\n    tag_432:\n      pop\n      0xa0\n      dup3\n      add\n      mload\n      dup2\n      0x05\n      add\n      sstore\n      pop\n      pop\n        /* \"contracts/edits.sol\":9341:9504  if (!productExists) {... */\n    tag_421:\n        /* \"contracts/edits.sol\":9552:9559  _amount */\n      dup5\n        /* \"contracts/edits.sol\":9514:9528  marketProducts */\n      0x06\n        /* \"contracts/edits.sol\":9514:9535  marketProducts[_shop] */\n      0x00\n        /* \"contracts/edits.sol\":9529:9534  _shop */\n      dup9\n        /* \"contracts/edits.sol\":9514:9535  marketProducts[_shop] */\n      0xffffffffffffffffffffffffffffffffffffffff\n      and\n      0xffffffffffffffffffffffffffffffffffffffff\n      and\n      dup2\n      mstore\n      0x20\n      add\n      swap1\n      dup2\n      mstore\n      0x20\n      add\n      0x00\n      keccak256\n        /* \"contracts/edits.sol\":9536:9539  _id */\n      dup6\n        /* \"contracts/edits.sol\":9514:9540  marketProducts[_shop][_id] */\n      dup2\n      sload\n      dup2\n      lt\n      tag_433\n      jumpi\n      tag_434\n      tag_226\n      jump\t// in\n    tag_434:\n    tag_433:\n      swap1\n      0x00\n      mstore\n      keccak256(0x00, 0x20)\n      swap1\n      0x06\n      mul\n      add\n        /* \"contracts/edits.sol\":9514:9548  marketProducts[_shop][_id].inStock */\n      0x02\n      add\n      0x00\n        /* \"contracts/edits.sol\":9514:9559  marketProducts[_shop][_id].inStock -= _amount */\n      dup3\n      dup3\n      sload\n      tag_436\n      swap2\n      swap1\n      tag_267\n      jump\t// in\n    tag_436:\n      swap3\n      pop\n      pop\n      dup2\n      swap1\n      sstore\n      pop\n        /* \"contracts/edits.sol\":9593:9603  totalPrice */\n      dup2\n        /* \"contracts/edits.sol\":9569:9574  users */\n      0x04\n        /* \"contracts/edits.sol\":9569:9581  users[_shop] */\n      0x00\n        /* \"contracts/edits.sol\":9575:9580  _shop */\n      dup9\n        /* \"contracts/edits.sol\":9569:9581  users[_shop] */\n      0xffffffffffffffffffffffffffffffffffffffff\n      and\n      0xffffffffffffffffffffffffffffffffffffffff\n      and\n      dup2\n      mstore\n      0x20\n      add\n      swap1\n      dup2\n      mstore\n      0x20\n      add\n      0x00\n      keccak256\n        /* \"contracts/edits.sol\":9569:9589  users[_shop].balance */\n      0x04\n      add\n      0x00\n        /* \"contracts/edits.sol\":9569:9603  users[_shop].balance += totalPrice */\n      dup3\n      dup3\n      sload\n      tag_437\n      swap2\n      swap1\n      tag_260\n      jump\t// in\n    tag_437:\n      swap3\n      pop\n      pop\n      dup2\n      swap1\n      sstore\n      pop\n        /* \"contracts/edits.sol\":8404:9612  {... */\n      pop\n      pop\n        /* \"contracts/edits.sol\":8311:9612  function purchase(address _shop, uint _amount, uint _id, string memory _ref ) public payable {... */\n      pop\n      pop\n      pop\n      pop\n      jump\t// out\n        /* \"contracts/edits.sol\":4056:4164  function genRef(string memory _nameRef, address _user) external {... */\n    tag_133:\n        /* \"contracts/edits.sol\":4152:4157  _user */\n      dup1\n        /* \"contracts/edits.sol\":4130:4139  referrals */\n      0x08\n        /* \"contracts/edits.sol\":4140:4148  _nameRef */\n      dup4\n        /* \"contracts/edits.sol\":4130:4149  referrals[_nameRef] */\n      mload(0x40)\n      tag_439\n      swap2\n      swap1\n      tag_295\n      jump\t// in\n    tag_439:\n      swap1\n      dup2\n      mstore\n      0x20\n      add\n      mload(0x40)\n      dup1\n      swap2\n      sub\n      swap1\n      keccak256\n      0x00\n        /* \"contracts/edits.sol\":4130:4157  referrals[_nameRef] = _user */\n      0x0100\n      exp\n      dup2\n      sload\n      dup2\n      0xffffffffffffffffffffffffffffffffffffffff\n      mul\n      not\n      and\n      swap1\n      dup4\n      0xffffffffffffffffffffffffffffffffffffffff\n      and\n      mul\n      or\n      swap1\n      sstore\n      pop\n        /* \"contracts/edits.sol\":4056:4164  function genRef(string memory _nameRef, address _user) external {... */\n      pop\n      pop\n      jump\t// out\n        /* \"contracts/edits.sol\":1137:1174  mapping(address => User) public users */\n    tag_137:\n      mstore(0x20, 0x04)\n      dup1\n      0x00\n      mstore\n      keccak256(0x00, 0x40)\n      0x00\n      swap2\n      pop\n      swap1\n      pop\n      dup1\n      0x00\n      add\n      dup1\n      sload\n      tag_440\n      swap1\n      tag_194\n      jump\t// in\n    tag_440:\n      dup1\n      0x1f\n      add\n      0x20\n      dup1\n      swap2\n      div\n      mul\n      0x20\n      add\n      mload(0x40)\n      swap1\n      dup2\n      add\n      0x40\n      mstore\n      dup1\n      swap3\n      swap2\n      swap1\n      dup2\n      dup2\n      mstore\n      0x20\n      add\n      dup3\n      dup1\n      sload\n      tag_441\n      swap1\n      tag_194\n      jump\t// in\n    tag_441:\n      dup1\n      iszero\n      tag_442\n      jumpi\n      dup1\n      0x1f\n      lt\n      tag_443\n      jumpi\n      0x0100\n      dup1\n      dup4\n      sload\n      div\n      mul\n      dup4\n      mstore\n      swap2\n      0x20\n      add\n      swap2\n      jump(tag_442)\n    tag_443:\n      dup3\n      add\n      swap2\n      swap1\n      0x00\n      mstore\n      keccak256(0x00, 0x20)\n      swap1\n    tag_444:\n      dup2\n      sload\n      dup2\n      mstore\n      swap1\n      0x01\n      add\n      swap1\n      0x20\n      add\n      dup1\n      dup4\n      gt\n      tag_444\n      jumpi\n      dup3\n      swap1\n      sub\n      0x1f\n      and\n      dup3\n      add\n      swap2\n    tag_442:\n      pop\n      pop\n      pop\n      pop\n      pop\n      swap1\n      dup1\n      0x01\n      add\n      dup1\n      sload\n      tag_445\n      swap1\n      tag_194\n      jump\t// in\n    tag_445:\n      dup1\n      0x1f\n      add\n      0x20\n      dup1\n      swap2\n      div\n      mul\n      0x20\n      add\n      mload(0x40)\n      swap1\n      dup2\n      add\n      0x40\n      mstore\n      dup1\n      swap3\n      swap2\n      swap1\n      dup2\n      dup2\n      mstore\n      0x20\n      add\n      dup3\n      dup1\n      sload\n      tag_446\n      swap1\n      tag_194\n      jump\t// in\n    tag_446:\n      dup1\n      iszero\n      tag_447\n      jumpi\n      dup1\n      0x1f\n      lt\n      tag_448\n      jumpi\n      0x0100\n      dup1\n      dup4\n      sload\n      div\n      mul\n      dup4\n      mstore\n      swap2\n      0x20\n      add\n      swap2\n      jump(tag_447)\n    tag_448:\n      dup3\n      add\n      swap2\n      swap1\n      0x00\n      mstore\n      keccak256(0x00, 0x20)\n      swap1\n    tag_449:\n      dup2\n      sload\n      dup2\n      mstore\n      swap1\n      0x01\n      add\n      swap1\n      0x20\n      add\n      dup1\n      dup4\n      gt\n      tag_449\n      jumpi\n      dup3\n      swap1\n      sub\n      0x1f\n      and\n      dup3\n      add\n      swap2\n    tag_447:\n      pop\n      pop\n      pop\n      pop\n      pop\n      swap1\n      dup1\n      0x02\n      add\n      dup1\n      sload\n      tag_450\n      swap1\n      tag_194\n      jump\t// in\n    tag_450:\n      dup1\n      0x1f\n      add\n      0x20\n      dup1\n      swap2\n      div\n      mul\n      0x20\n      add\n      mload(0x40)\n      swap1\n      dup2\n      add\n      0x40\n      mstore\n      dup1\n      swap3\n      swap2\n      swap1\n      dup2\n      dup2\n      mstore\n      0x20\n      add\n      dup3\n      dup1\n      sload\n      tag_451\n      swap1\n      tag_194\n      jump\t// in\n    tag_451:\n      dup1\n      iszero\n      tag_452\n      jumpi\n      dup1\n      0x1f\n      lt\n      tag_453\n      jumpi\n      0x0100\n      dup1\n      dup4\n      sload\n      div\n      mul\n      dup4\n      mstore\n      swap2\n      0x20\n      add\n      swap2\n      jump(tag_452)\n    tag_453:\n      dup3\n      add\n      swap2\n      swap1\n      0x00\n      mstore\n      keccak256(0x00, 0x20)\n      swap1\n    tag_454:\n      dup2\n      sload\n      dup2\n      mstore\n      swap1\n      0x01\n      add\n      swap1\n      0x20\n      add\n      dup1\n      dup4\n      gt\n      tag_454\n      jumpi\n      dup3\n      swap1\n      sub\n      0x1f\n      and\n      dup3\n      add\n      swap2\n    tag_452:\n      pop\n      pop\n      pop\n      pop\n      pop\n      swap1\n      dup1\n      0x03\n      add\n      0x00\n      swap1\n      sload\n      swap1\n      0x0100\n      exp\n      swap1\n      div\n      0xff\n      and\n      swap1\n      dup1\n      0x04\n      add\n      sload\n      swap1\n      pop\n      dup6\n      jump\t// out\n        /* \"contracts/edits.sol\":2051:2332  function registration(string memory _login, string memory _firstName, string memory _lastName, string memory _password) external {... */\n    tag_144:\n        /* \"contracts/edits.sol\":2210:2259  User(_login, _firstName, _lastName, Role.User, 0) */\n      mload(0x40)\n      dup1\n      0xa0\n      add\n      0x40\n      mstore\n      dup1\n        /* \"contracts/edits.sol\":2215:2221  _login */\n      dup6\n        /* \"contracts/edits.sol\":2210:2259  User(_login, _firstName, _lastName, Role.User, 0) */\n      dup2\n      mstore\n      0x20\n      add\n        /* \"contracts/edits.sol\":2223:2233  _firstName */\n      dup5\n        /* \"contracts/edits.sol\":2210:2259  User(_login, _firstName, _lastName, Role.User, 0) */\n      dup2\n      mstore\n      0x20\n      add\n        /* \"contracts/edits.sol\":2235:2244  _lastName */\n      dup4\n        /* \"contracts/edits.sol\":2210:2259  User(_login, _firstName, _lastName, Role.User, 0) */\n      dup2\n      mstore\n      0x20\n      add\n        /* \"contracts/edits.sol\":2246:2255  Role.User */\n      0x00\n        /* \"contracts/edits.sol\":2210:2259  User(_login, _firstName, _lastName, Role.User, 0) */\n      0x02\n      dup2\n      gt\n      iszero\n      tag_456\n      jumpi\n      tag_457\n      tag_179\n      jump\t// in\n    tag_457:\n    tag_456:\n      dup2\n      mstore\n      0x20\n      add\n        /* \"contracts/edits.sol\":2257:2258  0 */\n      0x00\n        /* \"contracts/edits.sol\":2210:2259  User(_login, _firstName, _lastName, Role.User, 0) */\n      dup2\n      mstore\n      pop\n        /* \"contracts/edits.sol\":2190:2195  users */\n      0x04\n        /* \"contracts/edits.sol\":2190:2207  users[msg.sender] */\n      0x00\n        /* \"contracts/edits.sol\":2196:2206  msg.sender */\n      caller\n        /* \"contracts/edits.sol\":2190:2207  users[msg.sender] */\n      0xffffffffffffffffffffffffffffffffffffffff\n      and\n      0xffffffffffffffffffffffffffffffffffffffff\n      and\n      dup2\n      mstore\n      0x20\n      add\n      swap1\n      dup2\n      mstore\n      0x20\n      add\n      0x00\n      keccak256\n        /* \"contracts/edits.sol\":2190:2259  users[msg.sender] = User(_login, _firstName, _lastName, Role.User, 0) */\n      0x00\n      dup3\n      add\n      mload\n      dup2\n      0x00\n      add\n      swap1\n      dup2\n      tag_458\n      swap2\n      swap1\n      tag_188\n      jump\t// in\n    tag_458:\n      pop\n      0x20\n      dup3\n      add\n      mload\n      dup2\n      0x01\n      add\n      swap1\n      dup2\n      tag_459\n      swap2\n      swap1\n      tag_188\n      jump\t// in\n    tag_459:\n      pop\n      0x40\n      dup3\n      add\n      mload\n      dup2\n      0x02\n      add\n      swap1\n      dup2\n      tag_460\n      swap2\n      swap1\n      tag_188\n      jump\t// in\n    tag_460:\n      pop\n      0x60\n      dup3\n      add\n      mload\n      dup2\n      0x03\n      add\n      exp(0x0100, 0x00)\n      dup2\n      sload\n      dup2\n      0xff\n      mul\n      not\n      and\n      swap1\n      dup4\n      0x02\n      dup2\n      gt\n      iszero\n      tag_461\n      jumpi\n      tag_462\n      tag_179\n      jump\t// in\n    tag_462:\n    tag_461:\n      mul\n      or\n      swap1\n      sstore\n      pop\n      0x80\n      dup3\n      add\n      mload\n      dup2\n      0x04\n      add\n      sstore\n      swap1\n      pop\n      pop\n        /* \"contracts/edits.sol\":2314:2323  _password */\n      dup1\n        /* \"contracts/edits.sol\":2303:2324  abi.encode(_password) */\n      add(0x20, mload(0x40))\n      tag_463\n      swap2\n      swap1\n      tag_299\n      jump\t// in\n    tag_463:\n      mload(0x40)\n      0x20\n      dup2\n      dup4\n      sub\n      sub\n      dup2\n      mstore\n      swap1\n      0x40\n      mstore\n        /* \"contracts/edits.sol\":2293:2325  keccak256(abi.encode(_password)) */\n      dup1\n      mload\n      swap1\n      0x20\n      add\n      keccak256\n        /* \"contracts/edits.sol\":2269:2278  passwords */\n      0x09\n        /* \"contracts/edits.sol\":2269:2290  passwords[msg.sender] */\n      0x00\n        /* \"contracts/edits.sol\":2279:2289  msg.sender */\n      caller\n        /* \"contracts/edits.sol\":2269:2290  passwords[msg.sender] */\n      0xffffffffffffffffffffffffffffffffffffffff\n      and\n      0xffffffffffffffffffffffffffffffffffffffff\n      and\n      dup2\n      mstore\n      0x20\n      add\n      swap1\n      dup2\n      mstore\n      0x20\n      add\n      0x00\n      keccak256\n        /* \"contracts/edits.sol\":2269:2325  passwords[msg.sender] = keccak256(abi.encode(_password)) */\n      dup2\n      swap1\n      sstore\n      pop\n        /* \"contracts/edits.sol\":2051:2332  function registration(string memory _login, string memory _firstName, string memory _lastName, string memory _password) external {... */\n      pop\n      pop\n      pop\n      pop\n      jump\t// out\n        /* \"contracts/edits.sol\":3227:3630  function approveChangeRole(uint _idTicket, bool _status) external OnlyOwner { ... */\n    tag_149:\n        /* \"contracts/edits.sol\":1655:1660  owner */\n      0x01\n      0x00\n      swap1\n      sload\n      swap1\n      0x0100\n      exp\n      swap1\n      div\n      0xffffffffffffffffffffffffffffffffffffffff\n      and\n        /* \"contracts/edits.sol\":1641:1660  msg.sender == owner */\n      0xffffffffffffffffffffffffffffffffffffffff\n      and\n        /* \"contracts/edits.sol\":1641:1651  msg.sender */\n      caller\n        /* \"contracts/edits.sol\":1641:1660  msg.sender == owner */\n      0xffffffffffffffffffffffffffffffffffffffff\n      and\n      eq\n        /* \"contracts/edits.sol\":1633:1661  require(msg.sender == owner) */\n      tag_465\n      jumpi\n      0x00\n      dup1\n      revert\n    tag_465:\n        /* \"contracts/edits.sol\":3334:3341  tickets */\n      0x00\n        /* \"contracts/edits.sol\":3334:3348  tickets.length */\n      dup1\n      sload\n      swap1\n      pop\n        /* \"contracts/edits.sol\":3322:3331  _idTicket */\n      dup3\n        /* \"contracts/edits.sol\":3322:3348  _idTicket < tickets.length */\n      lt\n        /* \"contracts/edits.sol\":3314:3349  require(_idTicket < tickets.length) */\n      tag_467\n      jumpi\n      0x00\n      dup1\n      revert\n    tag_467:\n        /* \"contracts/edits.sol\":3359:3375  address userAddr */\n      0x00\n        /* \"contracts/edits.sol\":3378:3385  tickets */\n      dup1\n        /* \"contracts/edits.sol\":3386:3395  _idTicket */\n      dup4\n        /* \"contracts/edits.sol\":3378:3396  tickets[_idTicket] */\n      dup2\n      sload\n      dup2\n      lt\n      tag_468\n      jumpi\n      tag_469\n      tag_226\n      jump\t// in\n    tag_469:\n    tag_468:\n      swap1\n      0x00\n      mstore\n      keccak256(0x00, 0x20)\n      add\n        /* \"contracts/edits.sol\":3378:3405  tickets[_idTicket].userAddr */\n      0x00\n      add\n      0x00\n      swap1\n      sload\n      swap1\n      0x0100\n      exp\n      swap1\n      div\n      0xffffffffffffffffffffffffffffffffffffffff\n      and\n        /* \"contracts/edits.sol\":3359:3405  address userAddr = tickets[_idTicket].userAddr */\n      swap1\n      pop\n        /* \"contracts/edits.sol\":3415:3431  Role changedRole */\n      0x00\n        /* \"contracts/edits.sol\":3434:3441  tickets */\n      dup1\n        /* \"contracts/edits.sol\":3442:3451  _idTicket */\n      dup5\n        /* \"contracts/edits.sol\":3434:3452  tickets[_idTicket] */\n      dup2\n      sload\n      dup2\n      lt\n      tag_471\n      jumpi\n      tag_472\n      tag_226\n      jump\t// in\n    tag_472:\n    tag_471:\n      swap1\n      0x00\n      mstore\n      keccak256(0x00, 0x20)\n      add\n        /* \"contracts/edits.sol\":3434:3457  tickets[_idTicket].role */\n      0x00\n      add\n      0x14\n      swap1\n      sload\n      swap1\n      0x0100\n      exp\n      swap1\n      div\n      0xff\n      and\n        /* \"contracts/edits.sol\":3415:3457  Role changedRole = tickets[_idTicket].role */\n      swap1\n      pop\n        /* \"contracts/edits.sol\":3472:3479  _status */\n      dup3\n        /* \"contracts/edits.sol\":3468:3540  if (_status) {... */\n      iszero\n      tag_474\n      jumpi\n        /* \"contracts/edits.sol\":3518:3529  changedRole */\n      dup1\n        /* \"contracts/edits.sol\":3495:3500  users */\n      0x04\n        /* \"contracts/edits.sol\":3495:3510  users[userAddr] */\n      0x00\n        /* \"contracts/edits.sol\":3501:3509  userAddr */\n      dup5\n        /* \"contracts/edits.sol\":3495:3510  users[userAddr] */\n      0xffffffffffffffffffffffffffffffffffffffff\n      and\n      0xffffffffffffffffffffffffffffffffffffffff\n      and\n      dup2\n      mstore\n      0x20\n      add\n      swap1\n      dup2\n      mstore\n      0x20\n      add\n      0x00\n      keccak256\n        /* \"contracts/edits.sol\":3495:3515  users[userAddr].role */\n      0x03\n      add\n      0x00\n        /* \"contracts/edits.sol\":3495:3529  users[userAddr].role = changedRole */\n      0x0100\n      exp\n      dup2\n      sload\n      dup2\n      0xff\n      mul\n      not\n      and\n      swap1\n      dup4\n      0x02\n      dup2\n      gt\n      iszero\n      tag_475\n      jumpi\n      tag_476\n      tag_179\n      jump\t// in\n    tag_476:\n    tag_475:\n      mul\n      or\n      swap1\n      sstore\n      pop\n        /* \"contracts/edits.sol\":3468:3540  if (_status) {... */\n    tag_474:\n        /* \"contracts/edits.sol\":3583:3588  false */\n      0x00\n        /* \"contracts/edits.sol\":3550:3570  hasRoleChangeRequest */\n      0x03\n        /* \"contracts/edits.sol\":3550:3580  hasRoleChangeRequest[userAddr] */\n      0x00\n        /* \"contracts/edits.sol\":3571:3579  userAddr */\n      dup5\n        /* \"contracts/edits.sol\":3550:3580  hasRoleChangeRequest[userAddr] */\n      0xffffffffffffffffffffffffffffffffffffffff\n      and\n      0xffffffffffffffffffffffffffffffffffffffff\n      and\n      dup2\n      mstore\n      0x20\n      add\n      swap1\n      dup2\n      mstore\n      0x20\n      add\n      0x00\n      keccak256\n      0x00\n        /* \"contracts/edits.sol\":3550:3588  hasRoleChangeRequest[userAddr] = false */\n      0x0100\n      exp\n      dup2\n      sload\n      dup2\n      0xff\n      mul\n      not\n      and\n      swap1\n      dup4\n      iszero\n      iszero\n      mul\n      or\n      swap1\n      sstore\n      pop\n        /* \"contracts/edits.sol\":3605:3612  tickets */\n      0x00\n        /* \"contracts/edits.sol\":3613:3622  _idTicket */\n      dup5\n        /* \"contracts/edits.sol\":3605:3623  tickets[_idTicket] */\n      dup2\n      sload\n      dup2\n      lt\n      tag_477\n      jumpi\n      tag_478\n      tag_226\n      jump\t// in\n    tag_478:\n    tag_477:\n      swap1\n      0x00\n      mstore\n      keccak256(0x00, 0x20)\n      add\n      0x00\n        /* \"contracts/edits.sol\":3598:3623  delete tickets[_idTicket] */\n      dup1\n      dup3\n      add\n      exp(0x0100, 0x00)\n      dup2\n      sload\n      swap1\n      0xffffffffffffffffffffffffffffffffffffffff\n      mul\n      not\n      and\n      swap1\n      sstore\n      0x00\n      dup3\n      add\n      exp(0x0100, 0x14)\n      dup2\n      sload\n      swap1\n      0xff\n      mul\n      not\n      and\n      swap1\n      sstore\n      pop\n      pop\n        /* \"contracts/edits.sol\":3303:3630  { ... */\n      pop\n      pop\n        /* \"contracts/edits.sol\":3227:3630  function approveChangeRole(uint _idTicket, bool _status) external OnlyOwner { ... */\n      pop\n      pop\n      jump\t// out\n        /* \"contracts/edits.sol\":1837:1947  function getProductCounts() external view returns(uint){... */\n    tag_152:\n        /* \"contracts/edits.sol\":1887:1891  uint */\n      0x00\n        /* \"contracts/edits.sol\":1909:1921  userProducts */\n      0x05\n        /* \"contracts/edits.sol\":1909:1933  userProducts[msg.sender] */\n      0x00\n        /* \"contracts/edits.sol\":1922:1932  msg.sender */\n      caller\n        /* \"contracts/edits.sol\":1909:1933  userProducts[msg.sender] */\n      0xffffffffffffffffffffffffffffffffffffffff\n      and\n      0xffffffffffffffffffffffffffffffffffffffff\n      and\n      dup2\n      mstore\n      0x20\n      add\n      swap1\n      dup2\n      mstore\n      0x20\n      add\n      0x00\n      keccak256\n        /* \"contracts/edits.sol\":1909:1940  userProducts[msg.sender].length */\n      dup1\n      sload\n      swap1\n      pop\n        /* \"contracts/edits.sol\":1902:1940  return userProducts[msg.sender].length */\n      swap1\n      pop\n        /* \"contracts/edits.sol\":1837:1947  function getProductCounts() external view returns(uint){... */\n      swap1\n      jump\t// out\n        /* \"contracts/edits.sol\":1446:1489  mapping(string => address) public referrals */\n    tag_158:\n      0x08\n      dup2\n      dup1\n      mload\n      0x20\n      dup2\n      add\n      dup3\n      add\n      dup1\n      mload\n      dup5\n      dup3\n      mstore\n      0x20\n      dup4\n      add\n      0x20\n      dup6\n      add\n      keccak256\n      dup2\n      dup4\n      mstore\n      dup1\n      swap6\n      pop\n      pop\n      pop\n      pop\n      pop\n      pop\n      0x00\n      swap2\n      pop\n      sload\n      swap1\n      0x0100\n      exp\n      swap1\n      div\n      0xffffffffffffffffffffffffffffffffffffffff\n      and\n      dup2\n      jump\t// out\n        /* \"contracts/edits.sol\":1496:1540  mapping(address => bytes32) public passwords */\n    tag_163:\n      mstore(0x20, 0x09)\n      dup1\n      0x00\n      mstore\n      keccak256(0x00, 0x40)\n      0x00\n      swap2\n      pop\n      swap1\n      pop\n      sload\n      dup2\n      jump\t// out\n        /* \"contracts/edits.sol\":5030:5450  function acceptDelivery(bool _solution, uint _deliveryId) external  payable AccessControl(Role.User) { ... */\n    tag_168:\n        /* \"contracts/edits.sol\":5120:5129  Role.User */\n      0x00\n        /* \"contracts/edits.sol\":1767:1772  _role */\n      dup1\n        /* \"contracts/edits.sol\":1741:1772  users[msg.sender].role == _role */\n      0x02\n      dup2\n      gt\n      iszero\n      tag_482\n      jumpi\n      tag_483\n      tag_179\n      jump\t// in\n    tag_483:\n    tag_482:\n        /* \"contracts/edits.sol\":1741:1746  users */\n      0x04\n        /* \"contracts/edits.sol\":1741:1758  users[msg.sender] */\n      0x00\n        /* \"contracts/edits.sol\":1747:1757  msg.sender */\n      caller\n        /* \"contracts/edits.sol\":1741:1758  users[msg.sender] */\n      0xffffffffffffffffffffffffffffffffffffffff\n      and\n      0xffffffffffffffffffffffffffffffffffffffff\n      and\n      dup2\n      mstore\n      0x20\n      add\n      swap1\n      dup2\n      mstore\n      0x20\n      add\n      0x00\n      keccak256\n        /* \"contracts/edits.sol\":1741:1763  users[msg.sender].role */\n      0x03\n      add\n      0x00\n      swap1\n      sload\n      swap1\n      0x0100\n      exp\n      swap1\n      div\n      0xff\n      and\n        /* \"contracts/edits.sol\":1741:1772  users[msg.sender].role == _role */\n      0x02\n      dup2\n      gt\n      iszero\n      tag_484\n      jumpi\n      tag_485\n      tag_179\n      jump\t// in\n    tag_485:\n    tag_484:\n      eq\n        /* \"contracts/edits.sol\":1733:1813  require(users[msg.sender].role == _role, \"Your role does not allow this change\") */\n      tag_486\n      jumpi\n      mload(0x40)\n      0x08c379a000000000000000000000000000000000000000000000000000000000\n      dup2\n      mstore\n      0x04\n      add\n      tag_487\n      swap1\n      tag_184\n      jump\t// in\n    tag_487:\n      mload(0x40)\n      dup1\n      swap2\n      sub\n      swap1\n      revert\n    tag_486:\n        /* \"contracts/edits.sol\":5188:5205  Status.Prepairing */\n      0x01\n        /* \"contracts/edits.sol\":5150:5205  deliveryOrders[_deliveryId].status == Status.Prepairing */\n      0x03\n      dup2\n      gt\n      iszero\n      tag_489\n      jumpi\n      tag_490\n      tag_179\n      jump\t// in\n    tag_490:\n    tag_489:\n        /* \"contracts/edits.sol\":5150:5164  deliveryOrders */\n      0x02\n        /* \"contracts/edits.sol\":5165:5176  _deliveryId */\n      dup4\n        /* \"contracts/edits.sol\":5150:5177  deliveryOrders[_deliveryId] */\n      dup2\n      sload\n      dup2\n      lt\n      tag_491\n      jumpi\n      tag_492\n      tag_226\n      jump\t// in\n    tag_492:\n    tag_491:\n      swap1\n      0x00\n      mstore\n      keccak256(0x00, 0x20)\n      swap1\n      0x05\n      mul\n      add\n        /* \"contracts/edits.sol\":5150:5184  deliveryOrders[_deliveryId].status */\n      0x01\n      add\n      0x14\n      swap1\n      sload\n      swap1\n      0x0100\n      exp\n      swap1\n      div\n      0xff\n      and\n        /* \"contracts/edits.sol\":5150:5205  deliveryOrders[_deliveryId].status == Status.Prepairing */\n      0x03\n      dup2\n      gt\n      iszero\n      tag_494\n      jumpi\n      tag_495\n      tag_179\n      jump\t// in\n    tag_495:\n    tag_494:\n      eq\n        /* \"contracts/edits.sol\":5142:5206  require(deliveryOrders[_deliveryId].status == Status.Prepairing) */\n      tag_496\n      jumpi\n      0x00\n      dup1\n      revert\n    tag_496:\n        /* \"contracts/edits.sol\":5220:5229  _solution */\n      dup3\n        /* \"contracts/edits.sol\":5216:5444  if (_solution) { ... */\n      iszero\n      tag_497\n      jumpi\n        /* \"contracts/edits.sol\":5246:5341  purchase(deliveryOrders[_deliveryId].shop, deliveryOrders[_deliveryId].amount, _deliveryId, \"\") */\n      tag_498\n        /* \"contracts/edits.sol\":5255:5269  deliveryOrders */\n      0x02\n        /* \"contracts/edits.sol\":5270:5281  _deliveryId */\n      dup4\n        /* \"contracts/edits.sol\":5255:5282  deliveryOrders[_deliveryId] */\n      dup2\n      sload\n      dup2\n      lt\n      tag_499\n      jumpi\n      tag_500\n      tag_226\n      jump\t// in\n    tag_500:\n    tag_499:\n      swap1\n      0x00\n      mstore\n      keccak256(0x00, 0x20)\n      swap1\n      0x05\n      mul\n      add\n        /* \"contracts/edits.sol\":5255:5287  deliveryOrders[_deliveryId].shop */\n      0x01\n      add\n      0x00\n      swap1\n      sload\n      swap1\n      0x0100\n      exp\n      swap1\n      div\n      0xffffffffffffffffffffffffffffffffffffffff\n      and\n        /* \"contracts/edits.sol\":5289:5303  deliveryOrders */\n      0x02\n        /* \"contracts/edits.sol\":5304:5315  _deliveryId */\n      dup5\n        /* \"contracts/edits.sol\":5289:5316  deliveryOrders[_deliveryId] */\n      dup2\n      sload\n      dup2\n      lt\n      tag_502\n      jumpi\n      tag_503\n      tag_226\n      jump\t// in\n    tag_503:\n    tag_502:\n      swap1\n      0x00\n      mstore\n      keccak256(0x00, 0x20)\n      swap1\n      0x05\n      mul\n      add\n        /* \"contracts/edits.sol\":5289:5323  deliveryOrders[_deliveryId].amount */\n      0x04\n      add\n      sload\n        /* \"contracts/edits.sol\":5325:5336  _deliveryId */\n      dup5\n        /* \"contracts/edits.sol\":5246:5341  purchase(deliveryOrders[_deliveryId].shop, deliveryOrders[_deliveryId].amount, _deliveryId, \"\") */\n      mload(0x40)\n      dup1\n      0x20\n      add\n      0x40\n      mstore\n      dup1\n      0x00\n      dup2\n      mstore\n      pop\n        /* \"contracts/edits.sol\":5246:5254  purchase */\n      tag_128\n        /* \"contracts/edits.sol\":5246:5341  purchase(deliveryOrders[_deliveryId].shop, deliveryOrders[_deliveryId].amount, _deliveryId, \"\") */\n      jump\t// in\n    tag_498:\n        /* \"contracts/edits.sol\":5216:5444  if (_solution) { ... */\n      jump(tag_505)\n    tag_497:\n        /* \"contracts/edits.sol\":5418:5433  Status.Canceled */\n      0x02\n        /* \"contracts/edits.sol\":5380:5433  deliveryOrders[_deliveryId].status == Status.Canceled */\n      0x03\n      dup2\n      gt\n      iszero\n      tag_506\n      jumpi\n      tag_507\n      tag_179\n      jump\t// in\n    tag_507:\n    tag_506:\n        /* \"contracts/edits.sol\":5380:5394  deliveryOrders */\n      0x02\n        /* \"contracts/edits.sol\":5395:5406  _deliveryId */\n      dup4\n        /* \"contracts/edits.sol\":5380:5407  deliveryOrders[_deliveryId] */\n      dup2\n      sload\n      dup2\n      lt\n      tag_508\n      jumpi\n      tag_509\n      tag_226\n      jump\t// in\n    tag_509:\n    tag_508:\n      swap1\n      0x00\n      mstore\n      keccak256(0x00, 0x20)\n      swap1\n      0x05\n      mul\n      add\n        /* \"contracts/edits.sol\":5380:5414  deliveryOrders[_deliveryId].status */\n      0x01\n      add\n      0x14\n      swap1\n      sload\n      swap1\n      0x0100\n      exp\n      swap1\n      div\n      0xff\n      and\n        /* \"contracts/edits.sol\":5380:5433  deliveryOrders[_deliveryId].status == Status.Canceled */\n      0x03\n      dup2\n      gt\n      iszero\n      tag_511\n      jumpi\n      tag_512\n      tag_179\n      jump\t// in\n    tag_512:\n    tag_511:\n      pop\n      pop\n        /* \"contracts/edits.sol\":5216:5444  if (_solution) { ... */\n    tag_505:\n        /* \"contracts/edits.sol\":5030:5450  function acceptDelivery(bool _solution, uint _deliveryId) external  payable AccessControl(Role.User) { ... */\n      pop\n      pop\n      pop\n      jump\t// out\n        /* \"contracts/edits.sol\":9618:9787  function withdrawBal() public AccessControl(Role.Market) { ... */\n    tag_171:\n        /* \"contracts/edits.sol\":9662:9673  Role.Market */\n      0x01\n        /* \"contracts/edits.sol\":1767:1772  _role */\n      dup1\n        /* \"contracts/edits.sol\":1741:1772  users[msg.sender].role == _role */\n      0x02\n      dup2\n      gt\n      iszero\n      tag_514\n      jumpi\n      tag_515\n      tag_179\n      jump\t// in\n    tag_515:\n    tag_514:\n        /* \"contracts/edits.sol\":1741:1746  users */\n      0x04\n        /* \"contracts/edits.sol\":1741:1758  users[msg.sender] */\n      0x00\n        /* \"contracts/edits.sol\":1747:1757  msg.sender */\n      caller\n        /* \"contracts/edits.sol\":1741:1758  users[msg.sender] */\n      0xffffffffffffffffffffffffffffffffffffffff\n      and\n      0xffffffffffffffffffffffffffffffffffffffff\n      and\n      dup2\n      mstore\n      0x20\n      add\n      swap1\n      dup2\n      mstore\n      0x20\n      add\n      0x00\n      keccak256\n        /* \"contracts/edits.sol\":1741:1763  users[msg.sender].role */\n      0x03\n      add\n      0x00\n      swap1\n      sload\n      swap1\n      0x0100\n      exp\n      swap1\n      div\n      0xff\n      and\n        /* \"contracts/edits.sol\":1741:1772  users[msg.sender].role == _role */\n      0x02\n      dup2\n      gt\n      iszero\n      tag_516\n      jumpi\n      tag_517\n      tag_179\n      jump\t// in\n    tag_517:\n    tag_516:\n      eq\n        /* \"contracts/edits.sol\":1733:1813  require(users[msg.sender].role == _role, \"Your role does not allow this change\") */\n      tag_518\n      jumpi\n      mload(0x40)\n      0x08c379a000000000000000000000000000000000000000000000000000000000\n      dup2\n      mstore\n      0x04\n      add\n      tag_519\n      swap1\n      tag_184\n      jump\t// in\n    tag_519:\n      mload(0x40)\n      dup1\n      swap2\n      sub\n      swap1\n      revert\n    tag_518:\n        /* \"contracts/edits.sol\":9694:9704  msg.sender */\n      caller\n        /* \"contracts/edits.sol\":9686:9714  payable(msg.sender).transfer */\n      0xffffffffffffffffffffffffffffffffffffffff\n      and\n        /* \"contracts/edits.sol\":9686:9741  payable(msg.sender).transfer(users[msg.sender].balance) */\n      0x08fc\n        /* \"contracts/edits.sol\":9715:9720  users */\n      0x04\n        /* \"contracts/edits.sol\":9715:9732  users[msg.sender] */\n      0x00\n        /* \"contracts/edits.sol\":9721:9731  msg.sender */\n      caller\n        /* \"contracts/edits.sol\":9715:9732  users[msg.sender] */\n      0xffffffffffffffffffffffffffffffffffffffff\n      and\n      0xffffffffffffffffffffffffffffffffffffffff\n      and\n      dup2\n      mstore\n      0x20\n      add\n      swap1\n      dup2\n      mstore\n      0x20\n      add\n      0x00\n      keccak256\n        /* \"contracts/edits.sol\":9715:9740  users[msg.sender].balance */\n      0x04\n      add\n      sload\n        /* \"contracts/edits.sol\":9686:9741  payable(msg.sender).transfer(users[msg.sender].balance) */\n      swap1\n      dup2\n      iszero\n      mul\n      swap1\n      mload(0x40)\n      0x00\n      mload(0x40)\n      dup1\n      dup4\n      sub\n      dup2\n      dup6\n      dup9\n      dup9\n      call\n      swap4\n      pop\n      pop\n      pop\n      pop\n      iszero\n      dup1\n      iszero\n      tag_522\n      jumpi\n      returndatasize\n      0x00\n      dup1\n      returndatacopy\n      revert(0x00, returndatasize)\n    tag_522:\n      pop\n        /* \"contracts/edits.sol\":9779:9780  0 */\n      0x00\n        /* \"contracts/edits.sol\":9751:9756  users */\n      0x04\n        /* \"contracts/edits.sol\":9751:9768  users[msg.sender] */\n      0x00\n        /* \"contracts/edits.sol\":9757:9767  msg.sender */\n      caller\n        /* \"contracts/edits.sol\":9751:9768  users[msg.sender] */\n      0xffffffffffffffffffffffffffffffffffffffff\n      and\n      0xffffffffffffffffffffffffffffffffffffffff\n      and\n      dup2\n      mstore\n      0x20\n      add\n      swap1\n      dup2\n      mstore\n      0x20\n      add\n      0x00\n      keccak256\n        /* \"contracts/edits.sol\":9751:9776  users[msg.sender].balance */\n      0x04\n      add\n        /* \"contracts/edits.sol\":9751:9780  users[msg.sender].balance = 0 */\n      dup2\n      swap1\n      sstore\n      pop\n        /* \"contracts/edits.sol\":9618:9787  function withdrawBal() public AccessControl(Role.Market) { ... */\n      pop\n      jump\t// out\n        /* \"contracts/edits.sol\":6050:7378  function refillStore(address _shop, uint _productId, uint _amount, address _supplier) external payable AccessControl(Role.Market) {... */\n    tag_175:\n        /* \"contracts/edits.sol\":6167:6178  Role.Market */\n      0x01\n        /* \"contracts/edits.sol\":1767:1772  _role */\n      dup1\n        /* \"contracts/edits.sol\":1741:1772  users[msg.sender].role == _role */\n      0x02\n      dup2\n      gt\n      iszero\n      tag_524\n      jumpi\n      tag_525\n      tag_179\n      jump\t// in\n    tag_525:\n    tag_524:\n        /* \"contracts/edits.sol\":1741:1746  users */\n      0x04\n        /* \"contracts/edits.sol\":1741:1758  users[msg.sender] */\n      0x00\n        /* \"contracts/edits.sol\":1747:1757  msg.sender */\n      caller\n        /* \"contracts/edits.sol\":1741:1758  users[msg.sender] */\n      0xffffffffffffffffffffffffffffffffffffffff\n      and\n      0xffffffffffffffffffffffffffffffffffffffff\n      and\n      dup2\n      mstore\n      0x20\n      add\n      swap1\n      dup2\n      mstore\n      0x20\n      add\n      0x00\n      keccak256\n        /* \"contracts/edits.sol\":1741:1763  users[msg.sender].role */\n      0x03\n      add\n      0x00\n      swap1\n      sload\n      swap1\n      0x0100\n      exp\n      swap1\n      div\n      0xff\n      and\n        /* \"contracts/edits.sol\":1741:1772  users[msg.sender].role == _role */\n      0x02\n      dup2\n      gt\n      iszero\n      tag_526\n      jumpi\n      tag_527\n      tag_179\n      jump\t// in\n    tag_527:\n    tag_526:\n      eq\n        /* \"contracts/edits.sol\":1733:1813  require(users[msg.sender].role == _role, \"Your role does not allow this change\") */\n      tag_528\n      jumpi\n      mload(0x40)\n      0x08c379a000000000000000000000000000000000000000000000000000000000\n      dup2\n      mstore\n      0x04\n      add\n      tag_529\n      swap1\n      tag_184\n      jump\t// in\n    tag_529:\n      mload(0x40)\n      dup1\n      swap2\n      sub\n      swap1\n      revert\n    tag_528:\n        /* \"contracts/edits.sol\":6208:6209  0 */\n      0x00\n        /* \"contracts/edits.sol\":6198:6205  _amount */\n      dup4\n        /* \"contracts/edits.sol\":6198:6209  _amount > 0 */\n      gt\n        /* \"contracts/edits.sol\":6190:6252  require(_amount > 0, \"Purchase amount must be greater than 0\") */\n      tag_531\n      jumpi\n      mload(0x40)\n      0x08c379a000000000000000000000000000000000000000000000000000000000\n      dup2\n      mstore\n      0x04\n      add\n      tag_532\n      swap1\n      tag_323\n      jump\t// in\n    tag_532:\n      mload(0x40)\n      dup1\n      swap2\n      sub\n      swap1\n      revert\n    tag_531:\n        /* \"contracts/edits.sol\":6283:6299  supplierProducts */\n      0x07\n        /* \"contracts/edits.sol\":6283:6310  supplierProducts[_supplier] */\n      0x00\n        /* \"contracts/edits.sol\":6300:6309  _supplier */\n      dup4\n        /* \"contracts/edits.sol\":6283:6310  supplierProducts[_supplier] */\n      0xffffffffffffffffffffffffffffffffffffffff\n      and\n      0xffffffffffffffffffffffffffffffffffffffff\n      and\n      dup2\n      mstore\n      0x20\n      add\n      swap1\n      dup2\n      mstore\n      0x20\n      add\n      0x00\n      keccak256\n        /* \"contracts/edits.sol\":6283:6317  supplierProducts[_supplier].length */\n      dup1\n      sload\n      swap1\n      pop\n        /* \"contracts/edits.sol\":6270:6280  _productId */\n      dup5\n        /* \"contracts/edits.sol\":6270:6317  _productId < supplierProducts[_supplier].length */\n      lt\n        /* \"contracts/edits.sol\":6262:6340  require(_productId < supplierProducts[_supplier].length, \"Invalid product ID\") */\n      tag_533\n      jumpi\n      mload(0x40)\n      0x08c379a000000000000000000000000000000000000000000000000000000000\n      dup2\n      mstore\n      0x04\n      add\n      tag_534\n      swap1\n      tag_326\n      jump\t// in\n    tag_534:\n      mload(0x40)\n      dup1\n      swap2\n      sub\n      swap1\n      revert\n    tag_533:\n        /* \"contracts/edits.sol\":6350:6360  uint price */\n      0x00\n        /* \"contracts/edits.sol\":6363:6379  supplierProducts */\n      0x07\n        /* \"contracts/edits.sol\":6363:6390  supplierProducts[_supplier] */\n      0x00\n        /* \"contracts/edits.sol\":6380:6389  _supplier */\n      dup5\n        /* \"contracts/edits.sol\":6363:6390  supplierProducts[_supplier] */\n      0xffffffffffffffffffffffffffffffffffffffff\n      and\n      0xffffffffffffffffffffffffffffffffffffffff\n      and\n      dup2\n      mstore\n      0x20\n      add\n      swap1\n      dup2\n      mstore\n      0x20\n      add\n      0x00\n      keccak256\n        /* \"contracts/edits.sol\":6391:6401  _productId */\n      dup6\n        /* \"contracts/edits.sol\":6363:6402  supplierProducts[_supplier][_productId] */\n      dup2\n      sload\n      dup2\n      lt\n      tag_535\n      jumpi\n      tag_536\n      tag_226\n      jump\t// in\n    tag_536:\n    tag_535:\n      swap1\n      0x00\n      mstore\n      keccak256(0x00, 0x20)\n      swap1\n      0x06\n      mul\n      add\n        /* \"contracts/edits.sol\":6363:6408  supplierProducts[_supplier][_productId].price */\n      0x03\n      add\n      sload\n        /* \"contracts/edits.sol\":6350:6408  uint price = supplierProducts[_supplier][_productId].price */\n      swap1\n      pop\n        /* \"contracts/edits.sol\":6418:6433  uint totalPrice */\n      0x00\n        /* \"contracts/edits.sol\":6444:6451  _amount */\n      dup5\n        /* \"contracts/edits.sol\":6436:6441  price */\n      dup3\n        /* \"contracts/edits.sol\":6436:6451  price * _amount */\n      tag_538\n      swap2\n      swap1\n      tag_252\n      jump\t// in\n    tag_538:\n        /* \"contracts/edits.sol\":6418:6451  uint totalPrice = price * _amount */\n      swap1\n      pop\n        /* \"contracts/edits.sol\":6483:6493  totalPrice */\n      dup1\n        /* \"contracts/edits.sol\":6470:6479  msg.value */\n      callvalue\n        /* \"contracts/edits.sol\":6470:6493  msg.value >= totalPrice */\n      lt\n      iszero\n        /* \"contracts/edits.sol\":6462:6521  require(msg.value >= totalPrice, \"Insufficient funds sent\") */\n      tag_539\n      jumpi\n      mload(0x40)\n      0x08c379a000000000000000000000000000000000000000000000000000000000\n      dup2\n      mstore\n      0x04\n      add\n      tag_540\n      swap1\n      tag_403\n      jump\t// in\n    tag_540:\n      mload(0x40)\n      dup1\n      swap2\n      sub\n      swap1\n      revert\n    tag_539:\n        /* \"contracts/edits.sol\":6531:6555  string memory targetName */\n      0x00\n        /* \"contracts/edits.sol\":6558:6574  supplierProducts */\n      0x07\n        /* \"contracts/edits.sol\":6558:6585  supplierProducts[_supplier] */\n      0x00\n        /* \"contracts/edits.sol\":6575:6584  _supplier */\n      dup7\n        /* \"contracts/edits.sol\":6558:6585  supplierProducts[_supplier] */\n      0xffffffffffffffffffffffffffffffffffffffff\n      and\n      0xffffffffffffffffffffffffffffffffffffffff\n      and\n      dup2\n      mstore\n      0x20\n      add\n      swap1\n      dup2\n      mstore\n      0x20\n      add\n      0x00\n      keccak256\n        /* \"contracts/edits.sol\":6586:6596  _productId */\n      dup8\n        /* \"contracts/edits.sol\":6558:6597  supplierProducts[_supplier][_productId] */\n      dup2\n      sload\n      dup2\n      lt\n      tag_541\n      jumpi\n      tag_542\n      tag_226\n      jump\t// in\n    tag_542:\n    tag_541:\n      swap1\n      0x00\n      mstore\n      keccak256(0x00, 0x20)\n      swap1\n      0x06\n      mul\n      add\n        /* \"contracts/edits.sol\":6558:6602  supplierProducts[_supplier][_productId].name */\n      0x04\n      add\n        /* \"contracts/edits.sol\":6531:6602  string memory targetName = supplierProducts[_supplier][_productId].name */\n      dup1\n      sload\n      tag_544\n      swap1\n      tag_194\n      jump\t// in\n    tag_544:\n      dup1\n      0x1f\n      add\n      0x20\n      dup1\n      swap2\n      div\n      mul\n      0x20\n      add\n      mload(0x40)\n      swap1\n      dup2\n      add\n      0x40\n      mstore\n      dup1\n      swap3\n      swap2\n      swap1\n      dup2\n      dup2\n      mstore\n      0x20\n      add\n      dup3\n      dup1\n      sload\n      tag_545\n      swap1\n      tag_194\n      jump\t// in\n    tag_545:\n      dup1\n      iszero\n      tag_546\n      jumpi\n      dup1\n      0x1f\n      lt\n      tag_547\n      jumpi\n      0x0100\n      dup1\n      dup4\n      sload\n      div\n      mul\n      dup4\n      mstore\n      swap2\n      0x20\n      add\n      swap2\n      jump(tag_546)\n    tag_547:\n      dup3\n      add\n      swap2\n      swap1\n      0x00\n      mstore\n      keccak256(0x00, 0x20)\n      swap1\n    tag_548:\n      dup2\n      sload\n      dup2\n      mstore\n      swap1\n      0x01\n      add\n      swap1\n      0x20\n      add\n      dup1\n      dup4\n      gt\n      tag_548\n      jumpi\n      dup3\n      swap1\n      sub\n      0x1f\n      and\n      dup3\n      add\n      swap2\n    tag_546:\n      pop\n      pop\n      pop\n      pop\n      pop\n      swap1\n      pop\n        /* \"contracts/edits.sol\":6612:6630  bool productExists */\n      0x00\n        /* \"contracts/edits.sol\":6653:6659  uint i */\n      dup1\n        /* \"contracts/edits.sol\":6649:6960  for(uint i = 0; i< marketProducts[_shop].length; i++){... */\n    tag_549:\n        /* \"contracts/edits.sol\":6668:6682  marketProducts */\n      0x06\n        /* \"contracts/edits.sol\":6668:6689  marketProducts[_shop] */\n      0x00\n        /* \"contracts/edits.sol\":6683:6688  _shop */\n      dup12\n        /* \"contracts/edits.sol\":6668:6689  marketProducts[_shop] */\n      0xffffffffffffffffffffffffffffffffffffffff\n      and\n      0xffffffffffffffffffffffffffffffffffffffff\n      and\n      dup2\n      mstore\n      0x20\n      add\n      swap1\n      dup2\n      mstore\n      0x20\n      add\n      0x00\n      keccak256\n        /* \"contracts/edits.sol\":6668:6696  marketProducts[_shop].length */\n      dup1\n      sload\n      swap1\n      pop\n        /* \"contracts/edits.sol\":6665:6666  i */\n      dup2\n        /* \"contracts/edits.sol\":6665:6696  i< marketProducts[_shop].length */\n      lt\n        /* \"contracts/edits.sol\":6649:6960  for(uint i = 0; i< marketProducts[_shop].length; i++){... */\n      iszero\n      tag_550\n      jumpi\n        /* \"contracts/edits.sol\":6778:6792  marketProducts */\n      0x06\n        /* \"contracts/edits.sol\":6778:6799  marketProducts[_shop] */\n      0x00\n        /* \"contracts/edits.sol\":6793:6798  _shop */\n      dup12\n        /* \"contracts/edits.sol\":6778:6799  marketProducts[_shop] */\n      0xffffffffffffffffffffffffffffffffffffffff\n      and\n      0xffffffffffffffffffffffffffffffffffffffff\n      and\n      dup2\n      mstore\n      0x20\n      add\n      swap1\n      dup2\n      mstore\n      0x20\n      add\n      0x00\n      keccak256\n        /* \"contracts/edits.sol\":6800:6801  i */\n      dup2\n        /* \"contracts/edits.sol\":6778:6802  marketProducts[_shop][i] */\n      dup2\n      sload\n      dup2\n      lt\n      tag_552\n      jumpi\n      tag_553\n      tag_226\n      jump\t// in\n    tag_553:\n    tag_552:\n      swap1\n      0x00\n      mstore\n      keccak256(0x00, 0x20)\n      swap1\n      0x06\n      mul\n      add\n        /* \"contracts/edits.sol\":6778:6807  marketProducts[_shop][i].name */\n      0x04\n      add\n        /* \"contracts/edits.sol\":6767:6808  abi.encode(marketProducts[_shop][i].name) */\n      add(0x20, mload(0x40))\n      tag_555\n      swap2\n      swap1\n      tag_229\n      jump\t// in\n    tag_555:\n      mload(0x40)\n      0x20\n      dup2\n      dup4\n      sub\n      sub\n      dup2\n      mstore\n      swap1\n      0x40\n      mstore\n        /* \"contracts/edits.sol\":6757:6809  keccak256(abi.encode(marketProducts[_shop][i].name)) */\n      dup1\n      mload\n      swap1\n      0x20\n      add\n      keccak256\n        /* \"contracts/edits.sol\":6741:6751  targetName */\n      dup4\n        /* \"contracts/edits.sol\":6730:6752  abi.encode(targetName) */\n      add(0x20, mload(0x40))\n      tag_556\n      swap2\n      swap1\n      tag_299\n      jump\t// in\n    tag_556:\n      mload(0x40)\n      0x20\n      dup2\n      dup4\n      sub\n      sub\n      dup2\n      mstore\n      swap1\n      0x40\n      mstore\n        /* \"contracts/edits.sol\":6720:6753  keccak256(abi.encode(targetName)) */\n      dup1\n      mload\n      swap1\n      0x20\n      add\n      keccak256\n        /* \"contracts/edits.sol\":6720:6809  keccak256(abi.encode(targetName)) == keccak256(abi.encode(marketProducts[_shop][i].name)) */\n      sub\n        /* \"contracts/edits.sol\":6716:6950  if (keccak256(abi.encode(targetName)) == keccak256(abi.encode(marketProducts[_shop][i].name))){... */\n      tag_557\n      jumpi\n        /* \"contracts/edits.sol\":6864:6871  _amount */\n      dup8\n        /* \"contracts/edits.sol\":6828:6842  marketProducts */\n      0x06\n        /* \"contracts/edits.sol\":6828:6849  marketProducts[_shop] */\n      0x00\n        /* \"contracts/edits.sol\":6843:6848  _shop */\n      dup13\n        /* \"contracts/edits.sol\":6828:6849  marketProducts[_shop] */\n      0xffffffffffffffffffffffffffffffffffffffff\n      and\n      0xffffffffffffffffffffffffffffffffffffffff\n      and\n      dup2\n      mstore\n      0x20\n      add\n      swap1\n      dup2\n      mstore\n      0x20\n      add\n      0x00\n      keccak256\n        /* \"contracts/edits.sol\":6850:6851  i */\n      dup3\n        /* \"contracts/edits.sol\":6828:6852  marketProducts[_shop][i] */\n      dup2\n      sload\n      dup2\n      lt\n      tag_558\n      jumpi\n      tag_559\n      tag_226\n      jump\t// in\n    tag_559:\n    tag_558:\n      swap1\n      0x00\n      mstore\n      keccak256(0x00, 0x20)\n      swap1\n      0x06\n      mul\n      add\n        /* \"contracts/edits.sol\":6828:6860  marketProducts[_shop][i].inStock */\n      0x02\n      add\n      0x00\n        /* \"contracts/edits.sol\":6828:6871  marketProducts[_shop][i].inStock += _amount */\n      dup3\n      dup3\n      sload\n      tag_561\n      swap2\n      swap1\n      tag_260\n      jump\t// in\n    tag_561:\n      swap3\n      pop\n      pop\n      dup2\n      swap1\n      sstore\n      pop\n        /* \"contracts/edits.sol\":6905:6909  true */\n      0x01\n        /* \"contracts/edits.sol\":6889:6909  productExists = true */\n      swap2\n      pop\n        /* \"contracts/edits.sol\":6927:6932  break */\n      jump(tag_550)\n        /* \"contracts/edits.sol\":6716:6950  if (keccak256(abi.encode(targetName)) == keccak256(abi.encode(marketProducts[_shop][i].name))){... */\n    tag_557:\n        /* \"contracts/edits.sol\":6698:6701  i++ */\n      dup1\n      dup1\n      tag_562\n      swap1\n      tag_236\n      jump\t// in\n    tag_562:\n      swap2\n      pop\n      pop\n        /* \"contracts/edits.sol\":6649:6960  for(uint i = 0; i< marketProducts[_shop].length; i++){... */\n      jump(tag_549)\n    tag_550:\n      pop\n        /* \"contracts/edits.sol\":6975:6988  productExists */\n      dup1\n        /* \"contracts/edits.sol\":6970:7186  if (!productExists){... */\n      tag_563\n      jumpi\n        /* \"contracts/edits.sol\":7003:7025  Product memory newItem */\n      0x00\n        /* \"contracts/edits.sol\":7028:7126  Product(0, _supplier, _amount, price, targetName, supplierProducts[_supplier][_productId].expDate) */\n      mload(0x40)\n      dup1\n      0xc0\n      add\n      0x40\n      mstore\n      dup1\n        /* \"contracts/edits.sol\":7036:7037  0 */\n      0x00\n        /* \"contracts/edits.sol\":7028:7126  Product(0, _supplier, _amount, price, targetName, supplierProducts[_supplier][_productId].expDate) */\n      dup2\n      mstore\n      0x20\n      add\n        /* \"contracts/edits.sol\":7039:7048  _supplier */\n      dup9\n        /* \"contracts/edits.sol\":7028:7126  Product(0, _supplier, _amount, price, targetName, supplierProducts[_supplier][_productId].expDate) */\n      0xffffffffffffffffffffffffffffffffffffffff\n      and\n      dup2\n      mstore\n      0x20\n      add\n        /* \"contracts/edits.sol\":7050:7057  _amount */\n      dup10\n        /* \"contracts/edits.sol\":7028:7126  Product(0, _supplier, _amount, price, targetName, supplierProducts[_supplier][_productId].expDate) */\n      dup2\n      mstore\n      0x20\n      add\n        /* \"contracts/edits.sol\":7059:7064  price */\n      dup7\n        /* \"contracts/edits.sol\":7028:7126  Product(0, _supplier, _amount, price, targetName, supplierProducts[_supplier][_productId].expDate) */\n      dup2\n      mstore\n      0x20\n      add\n        /* \"contracts/edits.sol\":7066:7076  targetName */\n      dup5\n        /* \"contracts/edits.sol\":7028:7126  Product(0, _supplier, _amount, price, targetName, supplierProducts[_supplier][_productId].expDate) */\n      dup2\n      mstore\n      0x20\n      add\n        /* \"contracts/edits.sol\":7078:7094  supplierProducts */\n      0x07\n        /* \"contracts/edits.sol\":7078:7105  supplierProducts[_supplier] */\n      0x00\n        /* \"contracts/edits.sol\":7095:7104  _supplier */\n      dup11\n        /* \"contracts/edits.sol\":7078:7105  supplierProducts[_supplier] */\n      0xffffffffffffffffffffffffffffffffffffffff\n      and\n      0xffffffffffffffffffffffffffffffffffffffff\n      and\n      dup2\n      mstore\n      0x20\n      add\n      swap1\n      dup2\n      mstore\n      0x20\n      add\n      0x00\n      keccak256\n        /* \"contracts/edits.sol\":7106:7116  _productId */\n      dup12\n        /* \"contracts/edits.sol\":7078:7117  supplierProducts[_supplier][_productId] */\n      dup2\n      sload\n      dup2\n      lt\n      tag_564\n      jumpi\n      tag_565\n      tag_226\n      jump\t// in\n    tag_565:\n    tag_564:\n      swap1\n      0x00\n      mstore\n      keccak256(0x00, 0x20)\n      swap1\n      0x06\n      mul\n      add\n        /* \"contracts/edits.sol\":7078:7125  supplierProducts[_supplier][_productId].expDate */\n      0x05\n      add\n      sload\n        /* \"contracts/edits.sol\":7028:7126  Product(0, _supplier, _amount, price, targetName, supplierProducts[_supplier][_productId].expDate) */\n      dup2\n      mstore\n      pop\n        /* \"contracts/edits.sol\":7003:7126  Product memory newItem = Product(0, _supplier, _amount, price, targetName, supplierProducts[_supplier][_productId].expDate) */\n      swap1\n      pop\n        /* \"contracts/edits.sol\":7140:7154  marketProducts */\n      0x06\n        /* \"contracts/edits.sol\":7140:7161  marketProducts[_shop] */\n      0x00\n        /* \"contracts/edits.sol\":7155:7160  _shop */\n      dup12\n        /* \"contracts/edits.sol\":7140:7161  marketProducts[_shop] */\n      0xffffffffffffffffffffffffffffffffffffffff\n      and\n      0xffffffffffffffffffffffffffffffffffffffff\n      and\n      dup2\n      mstore\n      0x20\n      add\n      swap1\n      dup2\n      mstore\n      0x20\n      add\n      0x00\n      keccak256\n        /* \"contracts/edits.sol\":7167:7174  newItem */\n      dup2\n        /* \"contracts/edits.sol\":7140:7175  marketProducts[_shop].push(newItem) */\n      swap1\n      dup1\n      0x01\n      dup2\n      sload\n      add\n      dup1\n      dup3\n      sstore\n      dup1\n      swap2\n      pop\n      pop\n      0x01\n      swap1\n      sub\n      swap1\n      0x00\n      mstore\n      keccak256(0x00, 0x20)\n      swap1\n      0x06\n      mul\n      add\n      0x00\n      swap1\n      swap2\n      swap1\n      swap2\n      swap1\n      swap2\n      pop\n      0x00\n      dup3\n      add\n      mload\n      dup2\n      0x00\n      add\n      sstore\n      0x20\n      dup3\n      add\n      mload\n      dup2\n      0x01\n      add\n      exp(0x0100, 0x00)\n      dup2\n      sload\n      dup2\n      0xffffffffffffffffffffffffffffffffffffffff\n      mul\n      not\n      and\n      swap1\n      dup4\n      0xffffffffffffffffffffffffffffffffffffffff\n      and\n      mul\n      or\n      swap1\n      sstore\n      pop\n      0x40\n      dup3\n      add\n      mload\n      dup2\n      0x02\n      add\n      sstore\n      0x60\n      dup3\n      add\n      mload\n      dup2\n      0x03\n      add\n      sstore\n      0x80\n      dup3\n      add\n      mload\n      dup2\n      0x04\n      add\n      swap1\n      dup2\n      tag_568\n      swap2\n      swap1\n      tag_188\n      jump\t// in\n    tag_568:\n      pop\n      0xa0\n      dup3\n      add\n      mload\n      dup2\n      0x05\n      add\n      sstore\n      pop\n      pop\n        /* \"contracts/edits.sol\":6989:7186  {... */\n      pop\n        /* \"contracts/edits.sol\":6970:7186  if (!productExists){... */\n    tag_563:\n        /* \"contracts/edits.sol\":7247:7254  _amount */\n      dup7\n        /* \"contracts/edits.sol\":7196:7212  supplierProducts */\n      0x07\n        /* \"contracts/edits.sol\":7196:7223  supplierProducts[_supplier] */\n      0x00\n        /* \"contracts/edits.sol\":7213:7222  _supplier */\n      dup9\n        /* \"contracts/edits.sol\":7196:7223  supplierProducts[_supplier] */\n      0xffffffffffffffffffffffffffffffffffffffff\n      and\n      0xffffffffffffffffffffffffffffffffffffffff\n      and\n      dup2\n      mstore\n      0x20\n      add\n      swap1\n      dup2\n      mstore\n      0x20\n      add\n      0x00\n      keccak256\n        /* \"contracts/edits.sol\":7224:7234  _productId */\n      dup10\n        /* \"contracts/edits.sol\":7196:7235  supplierProducts[_supplier][_productId] */\n      dup2\n      sload\n      dup2\n      lt\n      tag_569\n      jumpi\n      tag_570\n      tag_226\n      jump\t// in\n    tag_570:\n    tag_569:\n      swap1\n      0x00\n      mstore\n      keccak256(0x00, 0x20)\n      swap1\n      0x06\n      mul\n      add\n        /* \"contracts/edits.sol\":7196:7243  supplierProducts[_supplier][_productId].inStock */\n      0x02\n      add\n      0x00\n        /* \"contracts/edits.sol\":7196:7254  supplierProducts[_supplier][_productId].inStock -= _amount */\n      dup3\n      dup3\n      sload\n      tag_572\n      swap2\n      swap1\n      tag_267\n      jump\t// in\n    tag_572:\n      swap3\n      pop\n      pop\n      dup2\n      swap1\n      sstore\n      pop\n        /* \"contracts/edits.sol\":7281:7291  totalPrice */\n      dup3\n        /* \"contracts/edits.sol\":7269:7278  msg.value */\n      callvalue\n        /* \"contracts/edits.sol\":7269:7291  msg.value > totalPrice */\n      gt\n        /* \"contracts/edits.sol\":7265:7371  if (msg.value > totalPrice) {... */\n      iszero\n      tag_573\n      jumpi\n        /* \"contracts/edits.sol\":7315:7325  msg.sender */\n      caller\n        /* \"contracts/edits.sol\":7307:7335  payable(msg.sender).transfer */\n      0xffffffffffffffffffffffffffffffffffffffff\n      and\n        /* \"contracts/edits.sol\":7307:7359  payable(msg.sender).transfer(msg.value - totalPrice) */\n      0x08fc\n        /* \"contracts/edits.sol\":7348:7358  totalPrice */\n      dup5\n        /* \"contracts/edits.sol\":7336:7345  msg.value */\n      callvalue\n        /* \"contracts/edits.sol\":7336:7358  msg.value - totalPrice */\n      tag_574\n      swap2\n      swap1\n      tag_267\n      jump\t// in\n    tag_574:\n        /* \"contracts/edits.sol\":7307:7359  payable(msg.sender).transfer(msg.value - totalPrice) */\n      swap1\n      dup2\n      iszero\n      mul\n      swap1\n      mload(0x40)\n      0x00\n      mload(0x40)\n      dup1\n      dup4\n      sub\n      dup2\n      dup6\n      dup9\n      dup9\n      call\n      swap4\n      pop\n      pop\n      pop\n      pop\n      iszero\n      dup1\n      iszero\n      tag_576\n      jumpi\n      returndatasize\n      0x00\n      dup1\n      returndatacopy\n      revert(0x00, returndatasize)\n    tag_576:\n      pop\n        /* \"contracts/edits.sol\":7265:7371  if (msg.value > totalPrice) {... */\n    tag_573:\n        /* \"contracts/edits.sol\":6180:7378  {... */\n      pop\n      pop\n      pop\n      pop\n        /* \"contracts/edits.sol\":6050:7378  function refillStore(address _shop, uint _productId, uint _amount, address _supplier) external payable AccessControl(Role.Market) {... */\n      pop\n      pop\n      pop\n      pop\n      pop\n      jump\t// out\n    tag_265:\n      pop\n      dup1\n      sload\n      tag_577\n      swap1\n      tag_194\n      jump\t// in\n    tag_577:\n      0x00\n      dup3\n      sstore\n      dup1\n      0x1f\n      lt\n      tag_579\n      jumpi\n      pop\n      jump(tag_578)\n    tag_579:\n      0x1f\n      add\n      0x20\n      swap1\n      div\n      swap1\n      0x00\n      mstore\n      keccak256(0x00, 0x20)\n      swap1\n      dup2\n      add\n      swap1\n      tag_580\n      swap2\n      swap1\n      tag_581\n      jump\t// in\n    tag_580:\n    tag_578:\n      pop\n      jump\t// out\n    tag_287:\n      mload(0x40)\n      dup1\n      0xa0\n      add\n      0x40\n      mstore\n      dup1\n      0x60\n      dup2\n      mstore\n      0x20\n      add\n      0x60\n      dup2\n      mstore\n      0x20\n      add\n      0x60\n      dup2\n      mstore\n      0x20\n      add\n      0x00\n      0x02\n      dup2\n      gt\n      iszero\n      tag_582\n      jumpi\n      tag_583\n      tag_179\n      jump\t// in\n    tag_583:\n    tag_582:\n      dup2\n      mstore\n      0x20\n      add\n      0x00\n      dup2\n      mstore\n      pop\n      swap1\n      jump\t// out\n    tag_581:\n    tag_584:\n      dup1\n      dup3\n      gt\n      iszero\n      tag_585\n      jumpi\n      0x00\n      dup2\n      0x00\n      swap1\n      sstore\n      pop\n      0x01\n      add\n      jump(tag_584)\n    tag_585:\n      pop\n      swap1\n      jump\t// out\n        /* \"#utility.yul\":7:82   */\n    tag_586:\n        /* \"#utility.yul\":40:46   */\n      0x00\n        /* \"#utility.yul\":73:75   */\n      0x40\n        /* \"#utility.yul\":67:76   */\n      mload\n        /* \"#utility.yul\":57:76   */\n      swap1\n      pop\n        /* \"#utility.yul\":7:82   */\n      swap1\n      jump\t// out\n        /* \"#utility.yul\":88:205   */\n    tag_587:\n        /* \"#utility.yul\":197:198   */\n      0x00\n        /* \"#utility.yul\":194:195   */\n      dup1\n        /* \"#utility.yul\":187:199   */\n      revert\n        /* \"#utility.yul\":211:328   */\n    tag_588:\n        /* \"#utility.yul\":320:321   */\n      0x00\n        /* \"#utility.yul\":317:318   */\n      dup1\n        /* \"#utility.yul\":310:322   */\n      revert\n        /* \"#utility.yul\":334:411   */\n    tag_589:\n        /* \"#utility.yul\":371:378   */\n      0x00\n        /* \"#utility.yul\":400:405   */\n      dup2\n        /* \"#utility.yul\":389:405   */\n      swap1\n      pop\n        /* \"#utility.yul\":334:411   */\n      swap2\n      swap1\n      pop\n      jump\t// out\n        /* \"#utility.yul\":417:539   */\n    tag_590:\n        /* \"#utility.yul\":490:514   */\n      tag_689\n        /* \"#utility.yul\":508:513   */\n      dup2\n        /* \"#utility.yul\":490:514   */\n      tag_589\n      jump\t// in\n    tag_689:\n        /* \"#utility.yul\":483:488   */\n      dup2\n        /* \"#utility.yul\":480:515   */\n      eq\n        /* \"#utility.yul\":470:533   */\n      tag_690\n      jumpi\n        /* \"#utility.yul\":529:530   */\n      0x00\n        /* \"#utility.yul\":526:527   */\n      dup1\n        /* \"#utility.yul\":519:531   */\n      revert\n        /* \"#utility.yul\":470:533   */\n    tag_690:\n        /* \"#utility.yul\":417:539   */\n      pop\n      jump\t// out\n        /* \"#utility.yul\":545:684   */\n    tag_591:\n        /* \"#utility.yul\":591:596   */\n      0x00\n        /* \"#utility.yul\":629:635   */\n      dup2\n        /* \"#utility.yul\":616:636   */\n      calldataload\n        /* \"#utility.yul\":607:636   */\n      swap1\n      pop\n        /* \"#utility.yul\":645:678   */\n      tag_692\n        /* \"#utility.yul\":672:677   */\n      dup2\n        /* \"#utility.yul\":645:678   */\n      tag_590\n      jump\t// in\n    tag_692:\n        /* \"#utility.yul\":545:684   */\n      swap3\n      swap2\n      pop\n      pop\n      jump\t// out\n        /* \"#utility.yul\":690:807   */\n    tag_592:\n        /* \"#utility.yul\":799:800   */\n      0x00\n        /* \"#utility.yul\":796:797   */\n      dup1\n        /* \"#utility.yul\":789:801   */\n      revert\n        /* \"#utility.yul\":813:930   */\n    tag_593:\n        /* \"#utility.yul\":922:923   */\n      0x00\n        /* \"#utility.yul\":919:920   */\n      dup1\n        /* \"#utility.yul\":912:924   */\n      revert\n        /* \"#utility.yul\":936:1053   */\n    tag_594:\n        /* \"#utility.yul\":1045:1046   */\n      0x00\n        /* \"#utility.yul\":1042:1043   */\n      dup1\n        /* \"#utility.yul\":1035:1047   */\n      revert\n        /* \"#utility.yul\":1073:1626   */\n    tag_595:\n        /* \"#utility.yul\":1131:1139   */\n      0x00\n        /* \"#utility.yul\":1141:1147   */\n      dup1\n        /* \"#utility.yul\":1191:1194   */\n      dup4\n        /* \"#utility.yul\":1184:1188   */\n      0x1f\n        /* \"#utility.yul\":1176:1182   */\n      dup5\n        /* \"#utility.yul\":1172:1189   */\n      add\n        /* \"#utility.yul\":1168:1195   */\n      slt\n        /* \"#utility.yul\":1158:1280   */\n      tag_697\n      jumpi\n        /* \"#utility.yul\":1199:1278   */\n      tag_698\n      tag_592\n      jump\t// in\n    tag_698:\n        /* \"#utility.yul\":1158:1280   */\n    tag_697:\n        /* \"#utility.yul\":1312:1318   */\n      dup3\n        /* \"#utility.yul\":1299:1319   */\n      calldataload\n        /* \"#utility.yul\":1289:1319   */\n      swap1\n      pop\n        /* \"#utility.yul\":1342:1360   */\n      0xffffffffffffffff\n        /* \"#utility.yul\":1334:1340   */\n      dup2\n        /* \"#utility.yul\":1331:1361   */\n      gt\n        /* \"#utility.yul\":1328:1445   */\n      iszero\n      tag_699\n      jumpi\n        /* \"#utility.yul\":1364:1443   */\n      tag_700\n      tag_593\n      jump\t// in\n    tag_700:\n        /* \"#utility.yul\":1328:1445   */\n    tag_699:\n        /* \"#utility.yul\":1478:1482   */\n      0x20\n        /* \"#utility.yul\":1470:1476   */\n      dup4\n        /* \"#utility.yul\":1466:1483   */\n      add\n        /* \"#utility.yul\":1454:1483   */\n      swap2\n      pop\n        /* \"#utility.yul\":1532:1535   */\n      dup4\n        /* \"#utility.yul\":1524:1528   */\n      0x01\n        /* \"#utility.yul\":1516:1522   */\n      dup3\n        /* \"#utility.yul\":1512:1529   */\n      mul\n        /* \"#utility.yul\":1502:1510   */\n      dup4\n        /* \"#utility.yul\":1498:1530   */\n      add\n        /* \"#utility.yul\":1495:1536   */\n      gt\n        /* \"#utility.yul\":1492:1620   */\n      iszero\n      tag_701\n      jumpi\n        /* \"#utility.yul\":1539:1618   */\n      tag_702\n      tag_594\n      jump\t// in\n    tag_702:\n        /* \"#utility.yul\":1492:1620   */\n    tag_701:\n        /* \"#utility.yul\":1073:1626   */\n      swap3\n      pop\n      swap3\n      swap1\n      pop\n      jump\t// out\n        /* \"#utility.yul\":1632:2597   */\n    tag_38:\n        /* \"#utility.yul\":1730:1736   */\n      0x00\n        /* \"#utility.yul\":1738:1744   */\n      dup1\n        /* \"#utility.yul\":1746:1752   */\n      0x00\n        /* \"#utility.yul\":1754:1760   */\n      dup1\n        /* \"#utility.yul\":1762:1768   */\n      0x00\n        /* \"#utility.yul\":1811:1814   */\n      0x80\n        /* \"#utility.yul\":1799:1808   */\n      dup7\n        /* \"#utility.yul\":1790:1797   */\n      dup9\n        /* \"#utility.yul\":1786:1809   */\n      sub\n        /* \"#utility.yul\":1782:1815   */\n      slt\n        /* \"#utility.yul\":1779:1899   */\n      iszero\n      tag_704\n      jumpi\n        /* \"#utility.yul\":1818:1897   */\n      tag_705\n      tag_587\n      jump\t// in\n    tag_705:\n        /* \"#utility.yul\":1779:1899   */\n    tag_704:\n        /* \"#utility.yul\":1938:1939   */\n      0x00\n        /* \"#utility.yul\":1963:2016   */\n      tag_706\n        /* \"#utility.yul\":2008:2015   */\n      dup9\n        /* \"#utility.yul\":1999:2005   */\n      dup3\n        /* \"#utility.yul\":1988:1997   */\n      dup10\n        /* \"#utility.yul\":1984:2006   */\n      add\n        /* \"#utility.yul\":1963:2016   */\n      tag_591\n      jump\t// in\n    tag_706:\n        /* \"#utility.yul\":1953:2016   */\n      swap6\n      pop\n        /* \"#utility.yul\":1909:2026   */\n      pop\n        /* \"#utility.yul\":2065:2067   */\n      0x20\n        /* \"#utility.yul\":2091:2144   */\n      tag_707\n        /* \"#utility.yul\":2136:2143   */\n      dup9\n        /* \"#utility.yul\":2127:2133   */\n      dup3\n        /* \"#utility.yul\":2116:2125   */\n      dup10\n        /* \"#utility.yul\":2112:2134   */\n      add\n        /* \"#utility.yul\":2091:2144   */\n      tag_591\n      jump\t// in\n    tag_707:\n        /* \"#utility.yul\":2081:2144   */\n      swap5\n      pop\n        /* \"#utility.yul\":2036:2154   */\n      pop\n        /* \"#utility.yul\":2221:2223   */\n      0x40\n        /* \"#utility.yul\":2210:2219   */\n      dup7\n        /* \"#utility.yul\":2206:2224   */\n      add\n        /* \"#utility.yul\":2193:2225   */\n      calldataload\n        /* \"#utility.yul\":2252:2270   */\n      0xffffffffffffffff\n        /* \"#utility.yul\":2244:2250   */\n      dup2\n        /* \"#utility.yul\":2241:2271   */\n      gt\n        /* \"#utility.yul\":2238:2355   */\n      iszero\n      tag_708\n      jumpi\n        /* \"#utility.yul\":2274:2353   */\n      tag_709\n      tag_588\n      jump\t// in\n    tag_709:\n        /* \"#utility.yul\":2238:2355   */\n    tag_708:\n        /* \"#utility.yul\":2387:2452   */\n      tag_710\n        /* \"#utility.yul\":2444:2451   */\n      dup9\n        /* \"#utility.yul\":2435:2441   */\n      dup3\n        /* \"#utility.yul\":2424:2433   */\n      dup10\n        /* \"#utility.yul\":2420:2442   */\n      add\n        /* \"#utility.yul\":2387:2452   */\n      tag_595\n      jump\t// in\n    tag_710:\n        /* \"#utility.yul\":2369:2452   */\n      swap4\n      pop\n      swap4\n      pop\n        /* \"#utility.yul\":2164:2462   */\n      pop\n        /* \"#utility.yul\":2501:2503   */\n      0x60\n        /* \"#utility.yul\":2527:2580   */\n      tag_711\n        /* \"#utility.yul\":2572:2579   */\n      dup9\n        /* \"#utility.yul\":2563:2569   */\n      dup3\n        /* \"#utility.yul\":2552:2561   */\n      dup10\n        /* \"#utility.yul\":2548:2570   */\n      add\n        /* \"#utility.yul\":2527:2580   */\n      tag_591\n      jump\t// in\n    tag_711:\n        /* \"#utility.yul\":2517:2580   */\n      swap2\n      pop\n        /* \"#utility.yul\":2472:2590   */\n      pop\n        /* \"#utility.yul\":1632:2597   */\n      swap3\n      swap6\n      pop\n      swap3\n      swap6\n      swap1\n      swap4\n      pop\n      jump\t// out\n        /* \"#utility.yul\":2603:2729   */\n    tag_596:\n        /* \"#utility.yul\":2640:2647   */\n      0x00\n        /* \"#utility.yul\":2680:2722   */\n      0xffffffffffffffffffffffffffffffffffffffff\n        /* \"#utility.yul\":2673:2678   */\n      dup3\n        /* \"#utility.yul\":2669:2723   */\n      and\n        /* \"#utility.yul\":2658:2723   */\n      swap1\n      pop\n        /* \"#utility.yul\":2603:2729   */\n      swap2\n      swap1\n      pop\n      jump\t// out\n        /* \"#utility.yul\":2735:2831   */\n    tag_597:\n        /* \"#utility.yul\":2772:2779   */\n      0x00\n        /* \"#utility.yul\":2801:2825   */\n      tag_714\n        /* \"#utility.yul\":2819:2824   */\n      dup3\n        /* \"#utility.yul\":2801:2825   */\n      tag_596\n      jump\t// in\n    tag_714:\n        /* \"#utility.yul\":2790:2825   */\n      swap1\n      pop\n        /* \"#utility.yul\":2735:2831   */\n      swap2\n      swap1\n      pop\n      jump\t// out\n        /* \"#utility.yul\":2837:2959   */\n    tag_598:\n        /* \"#utility.yul\":2910:2934   */\n      tag_716\n        /* \"#utility.yul\":2928:2933   */\n      dup2\n        /* \"#utility.yul\":2910:2934   */\n      tag_597\n      jump\t// in\n    tag_716:\n        /* \"#utility.yul\":2903:2908   */\n      dup2\n        /* \"#utility.yul\":2900:2935   */\n      eq\n        /* \"#utility.yul\":2890:2953   */\n      tag_717\n      jumpi\n        /* \"#utility.yul\":2949:2950   */\n      0x00\n        /* \"#utility.yul\":2946:2947   */\n      dup1\n        /* \"#utility.yul\":2939:2951   */\n      revert\n        /* \"#utility.yul\":2890:2953   */\n    tag_717:\n        /* \"#utility.yul\":2837:2959   */\n      pop\n      jump\t// out\n        /* \"#utility.yul\":2965:3104   */\n    tag_599:\n        /* \"#utility.yul\":3011:3016   */\n      0x00\n        /* \"#utility.yul\":3049:3055   */\n      dup2\n        /* \"#utility.yul\":3036:3056   */\n      calldataload\n        /* \"#utility.yul\":3027:3056   */\n      swap1\n      pop\n        /* \"#utility.yul\":3065:3098   */\n      tag_719\n        /* \"#utility.yul\":3092:3097   */\n      dup2\n        /* \"#utility.yul\":3065:3098   */\n      tag_598\n      jump\t// in\n    tag_719:\n        /* \"#utility.yul\":2965:3104   */\n      swap3\n      swap2\n      pop\n      pop\n      jump\t// out\n        /* \"#utility.yul\":3110:3439   */\n    tag_43:\n        /* \"#utility.yul\":3169:3175   */\n      0x00\n        /* \"#utility.yul\":3218:3220   */\n      0x20\n        /* \"#utility.yul\":3206:3215   */\n      dup3\n        /* \"#utility.yul\":3197:3204   */\n      dup5\n        /* \"#utility.yul\":3193:3216   */\n      sub\n        /* \"#utility.yul\":3189:3221   */\n      slt\n        /* \"#utility.yul\":3186:3305   */\n      iszero\n      tag_721\n      jumpi\n        /* \"#utility.yul\":3224:3303   */\n      tag_722\n      tag_587\n      jump\t// in\n    tag_722:\n        /* \"#utility.yul\":3186:3305   */\n    tag_721:\n        /* \"#utility.yul\":3344:3345   */\n      0x00\n        /* \"#utility.yul\":3369:3422   */\n      tag_723\n        /* \"#utility.yul\":3414:3421   */\n      dup5\n        /* \"#utility.yul\":3405:3411   */\n      dup3\n        /* \"#utility.yul\":3394:3403   */\n      dup6\n        /* \"#utility.yul\":3390:3412   */\n      add\n        /* \"#utility.yul\":3369:3422   */\n      tag_599\n      jump\t// in\n    tag_723:\n        /* \"#utility.yul\":3359:3422   */\n      swap2\n      pop\n        /* \"#utility.yul\":3315:3432   */\n      pop\n        /* \"#utility.yul\":3110:3439   */\n      swap3\n      swap2\n      pop\n      pop\n      jump\t// out\n        /* \"#utility.yul\":3445:3582   */\n    tag_600:\n        /* \"#utility.yul\":3535:3541   */\n      0x00\n        /* \"#utility.yul\":3569:3574   */\n      dup2\n        /* \"#utility.yul\":3563:3575   */\n      mload\n        /* \"#utility.yul\":3553:3575   */\n      swap1\n      pop\n        /* \"#utility.yul\":3445:3582   */\n      swap2\n      swap1\n      pop\n      jump\t// out\n        /* \"#utility.yul\":3588:3795   */\n    tag_601:\n        /* \"#utility.yul\":3710:3721   */\n      0x00\n        /* \"#utility.yul\":3744:3750   */\n      dup3\n        /* \"#utility.yul\":3739:3742   */\n      dup3\n        /* \"#utility.yul\":3732:3751   */\n      mstore\n        /* \"#utility.yul\":3784:3788   */\n      0x20\n        /* \"#utility.yul\":3779:3782   */\n      dup3\n        /* \"#utility.yul\":3775:3789   */\n      add\n        /* \"#utility.yul\":3760:3789   */\n      swap1\n      pop\n        /* \"#utility.yul\":3588:3795   */\n      swap3\n      swap2\n      pop\n      pop\n      jump\t// out\n        /* \"#utility.yul\":3801:3956   */\n    tag_602:\n        /* \"#utility.yul\":3891:3895   */\n      0x00\n        /* \"#utility.yul\":3914:3917   */\n      dup2\n        /* \"#utility.yul\":3906:3917   */\n      swap1\n      pop\n        /* \"#utility.yul\":3944:3948   */\n      0x20\n        /* \"#utility.yul\":3939:3942   */\n      dup3\n        /* \"#utility.yul\":3935:3949   */\n      add\n        /* \"#utility.yul\":3927:3949   */\n      swap1\n      pop\n        /* \"#utility.yul\":3801:3956   */\n      swap2\n      swap1\n      pop\n      jump\t// out\n        /* \"#utility.yul\":3962:4070   */\n    tag_603:\n        /* \"#utility.yul\":4039:4063   */\n      tag_728\n        /* \"#utility.yul\":4057:4062   */\n      dup2\n        /* \"#utility.yul\":4039:4063   */\n      tag_589\n      jump\t// in\n    tag_728:\n        /* \"#utility.yul\":4034:4037   */\n      dup3\n        /* \"#utility.yul\":4027:4064   */\n      mstore\n        /* \"#utility.yul\":3962:4070   */\n      pop\n      pop\n      jump\t// out\n        /* \"#utility.yul\":4076:4184   */\n    tag_604:\n        /* \"#utility.yul\":4153:4177   */\n      tag_730\n        /* \"#utility.yul\":4171:4176   */\n      dup2\n        /* \"#utility.yul\":4153:4177   */\n      tag_597\n      jump\t// in\n    tag_730:\n        /* \"#utility.yul\":4148:4151   */\n      dup3\n        /* \"#utility.yul\":4141:4178   */\n      mstore\n        /* \"#utility.yul\":4076:4184   */\n      pop\n      pop\n      jump\t// out\n        /* \"#utility.yul\":4190:4289   */\n    tag_605:\n        /* \"#utility.yul\":4242:4248   */\n      0x00\n        /* \"#utility.yul\":4276:4281   */\n      dup2\n        /* \"#utility.yul\":4270:4282   */\n      mload\n        /* \"#utility.yul\":4260:4282   */\n      swap1\n      pop\n        /* \"#utility.yul\":4190:4289   */\n      swap2\n      swap1\n      pop\n      jump\t// out\n        /* \"#utility.yul\":4295:4454   */\n    tag_606:\n        /* \"#utility.yul\":4369:4380   */\n      0x00\n        /* \"#utility.yul\":4403:4409   */\n      dup3\n        /* \"#utility.yul\":4398:4401   */\n      dup3\n        /* \"#utility.yul\":4391:4410   */\n      mstore\n        /* \"#utility.yul\":4443:4447   */\n      0x20\n        /* \"#utility.yul\":4438:4441   */\n      dup3\n        /* \"#utility.yul\":4434:4448   */\n      add\n        /* \"#utility.yul\":4419:4448   */\n      swap1\n      pop\n        /* \"#utility.yul\":4295:4454   */\n      swap3\n      swap2\n      pop\n      pop\n      jump\t// out\n        /* \"#utility.yul\":4460:4706   */\n    tag_607:\n        /* \"#utility.yul\":4541:4542   */\n      0x00\n        /* \"#utility.yul\":4551:4664   */\n    tag_734:\n        /* \"#utility.yul\":4565:4571   */\n      dup4\n        /* \"#utility.yul\":4562:4563   */\n      dup2\n        /* \"#utility.yul\":4559:4572   */\n      lt\n        /* \"#utility.yul\":4551:4664   */\n      iszero\n      tag_736\n      jumpi\n        /* \"#utility.yul\":4650:4651   */\n      dup1\n        /* \"#utility.yul\":4645:4648   */\n      dup3\n        /* \"#utility.yul\":4641:4652   */\n      add\n        /* \"#utility.yul\":4635:4653   */\n      mload\n        /* \"#utility.yul\":4631:4632   */\n      dup2\n        /* \"#utility.yul\":4626:4629   */\n      dup5\n        /* \"#utility.yul\":4622:4633   */\n      add\n        /* \"#utility.yul\":4615:4654   */\n      mstore\n        /* \"#utility.yul\":4587:4589   */\n      0x20\n        /* \"#utility.yul\":4584:4585   */\n      dup2\n        /* \"#utility.yul\":4580:4590   */\n      add\n        /* \"#utility.yul\":4575:4590   */\n      swap1\n      pop\n        /* \"#utility.yul\":4551:4664   */\n      jump(tag_734)\n    tag_736:\n        /* \"#utility.yul\":4698:4699   */\n      0x00\n        /* \"#utility.yul\":4689:4695   */\n      dup5\n        /* \"#utility.yul\":4684:4687   */\n      dup5\n        /* \"#utility.yul\":4680:4696   */\n      add\n        /* \"#utility.yul\":4673:4700   */\n      mstore\n        /* \"#utility.yul\":4522:4706   */\n      pop\n        /* \"#utility.yul\":4460:4706   */\n      pop\n      pop\n      pop\n      jump\t// out\n        /* \"#utility.yul\":4712:4814   */\n    tag_608:\n        /* \"#utility.yul\":4753:4759   */\n      0x00\n        /* \"#utility.yul\":4804:4806   */\n      0x1f\n        /* \"#utility.yul\":4800:4807   */\n      not\n        /* \"#utility.yul\":4795:4797   */\n      0x1f\n        /* \"#utility.yul\":4788:4793   */\n      dup4\n        /* \"#utility.yul\":4784:4798   */\n      add\n        /* \"#utility.yul\":4780:4808   */\n      and\n        /* \"#utility.yul\":4770:4808   */\n      swap1\n      pop\n        /* \"#utility.yul\":4712:4814   */\n      swap2\n      swap1\n      pop\n      jump\t// out\n        /* \"#utility.yul\":4820:5177   */\n    tag_609:\n        /* \"#utility.yul\":4898:4901   */\n      0x00\n        /* \"#utility.yul\":4926:4965   */\n      tag_739\n        /* \"#utility.yul\":4959:4964   */\n      dup3\n        /* \"#utility.yul\":4926:4965   */\n      tag_605\n      jump\t// in\n    tag_739:\n        /* \"#utility.yul\":4981:5042   */\n      tag_740\n        /* \"#utility.yul\":5035:5041   */\n      dup2\n        /* \"#utility.yul\":5030:5033   */\n      dup6\n        /* \"#utility.yul\":4981:5042   */\n      tag_606\n      jump\t// in\n    tag_740:\n        /* \"#utility.yul\":4974:5042   */\n      swap4\n      pop\n        /* \"#utility.yul\":5051:5116   */\n      tag_741\n        /* \"#utility.yul\":5109:5115   */\n      dup2\n        /* \"#utility.yul\":5104:5107   */\n      dup6\n        /* \"#utility.yul\":5097:5101   */\n      0x20\n        /* \"#utility.yul\":5090:5095   */\n      dup7\n        /* \"#utility.yul\":5086:5102   */\n      add\n        /* \"#utility.yul\":5051:5116   */\n      tag_607\n      jump\t// in\n    tag_741:\n        /* \"#utility.yul\":5141:5170   */\n      tag_742\n        /* \"#utility.yul\":5163:5169   */\n      dup2\n        /* \"#utility.yul\":5141:5170   */\n      tag_608\n      jump\t// in\n    tag_742:\n        /* \"#utility.yul\":5136:5139   */\n      dup5\n        /* \"#utility.yul\":5132:5171   */\n      add\n        /* \"#utility.yul\":5125:5171   */\n      swap2\n      pop\n        /* \"#utility.yul\":4902:5177   */\n      pop\n        /* \"#utility.yul\":4820:5177   */\n      swap3\n      swap2\n      pop\n      pop\n      jump\t// out\n        /* \"#utility.yul\":5247:6547   */\n    tag_610:\n        /* \"#utility.yul\":5352:5355   */\n      0x00\n        /* \"#utility.yul\":5388:5392   */\n      0xc0\n        /* \"#utility.yul\":5383:5386   */\n      dup4\n        /* \"#utility.yul\":5379:5393   */\n      add\n        /* \"#utility.yul\":5473:5477   */\n      0x00\n        /* \"#utility.yul\":5466:5471   */\n      dup4\n        /* \"#utility.yul\":5462:5478   */\n      add\n        /* \"#utility.yul\":5456:5479   */\n      mload\n        /* \"#utility.yul\":5492:5555   */\n      tag_744\n        /* \"#utility.yul\":5549:5553   */\n      0x00\n        /* \"#utility.yul\":5544:5547   */\n      dup7\n        /* \"#utility.yul\":5540:5554   */\n      add\n        /* \"#utility.yul\":5526:5538   */\n      dup3\n        /* \"#utility.yul\":5492:5555   */\n      tag_603\n      jump\t// in\n    tag_744:\n        /* \"#utility.yul\":5403:5565   */\n      pop\n        /* \"#utility.yul\":5654:5658   */\n      0x20\n        /* \"#utility.yul\":5647:5652   */\n      dup4\n        /* \"#utility.yul\":5643:5659   */\n      add\n        /* \"#utility.yul\":5637:5660   */\n      mload\n        /* \"#utility.yul\":5673:5736   */\n      tag_745\n        /* \"#utility.yul\":5730:5734   */\n      0x20\n        /* \"#utility.yul\":5725:5728   */\n      dup7\n        /* \"#utility.yul\":5721:5735   */\n      add\n        /* \"#utility.yul\":5707:5719   */\n      dup3\n        /* \"#utility.yul\":5673:5736   */\n      tag_604\n      jump\t// in\n    tag_745:\n        /* \"#utility.yul\":5575:5746   */\n      pop\n        /* \"#utility.yul\":5831:5835   */\n      0x40\n        /* \"#utility.yul\":5824:5829   */\n      dup4\n        /* \"#utility.yul\":5820:5836   */\n      add\n        /* \"#utility.yul\":5814:5837   */\n      mload\n        /* \"#utility.yul\":5850:5913   */\n      tag_746\n        /* \"#utility.yul\":5907:5911   */\n      0x40\n        /* \"#utility.yul\":5902:5905   */\n      dup7\n        /* \"#utility.yul\":5898:5912   */\n      add\n        /* \"#utility.yul\":5884:5896   */\n      dup3\n        /* \"#utility.yul\":5850:5913   */\n      tag_603\n      jump\t// in\n    tag_746:\n        /* \"#utility.yul\":5756:5923   */\n      pop\n        /* \"#utility.yul\":6006:6010   */\n      0x60\n        /* \"#utility.yul\":5999:6004   */\n      dup4\n        /* \"#utility.yul\":5995:6011   */\n      add\n        /* \"#utility.yul\":5989:6012   */\n      mload\n        /* \"#utility.yul\":6025:6088   */\n      tag_747\n        /* \"#utility.yul\":6082:6086   */\n      0x60\n        /* \"#utility.yul\":6077:6080   */\n      dup7\n        /* \"#utility.yul\":6073:6087   */\n      add\n        /* \"#utility.yul\":6059:6071   */\n      dup3\n        /* \"#utility.yul\":6025:6088   */\n      tag_603\n      jump\t// in\n    tag_747:\n        /* \"#utility.yul\":5933:6098   */\n      pop\n        /* \"#utility.yul\":6180:6184   */\n      0x80\n        /* \"#utility.yul\":6173:6178   */\n      dup4\n        /* \"#utility.yul\":6169:6185   */\n      add\n        /* \"#utility.yul\":6163:6186   */\n      mload\n        /* \"#utility.yul\":6233:6236   */\n      dup5\n        /* \"#utility.yul\":6227:6231   */\n      dup3\n        /* \"#utility.yul\":6223:6237   */\n      sub\n        /* \"#utility.yul\":6216:6220   */\n      0x80\n        /* \"#utility.yul\":6211:6214   */\n      dup7\n        /* \"#utility.yul\":6207:6221   */\n      add\n        /* \"#utility.yul\":6200:6238   */\n      mstore\n        /* \"#utility.yul\":6259:6332   */\n      tag_748\n        /* \"#utility.yul\":6327:6331   */\n      dup3\n        /* \"#utility.yul\":6313:6325   */\n      dup3\n        /* \"#utility.yul\":6259:6332   */\n      tag_609\n      jump\t// in\n    tag_748:\n        /* \"#utility.yul\":6251:6332   */\n      swap2\n      pop\n        /* \"#utility.yul\":6108:6343   */\n      pop\n        /* \"#utility.yul\":6428:6432   */\n      0xa0\n        /* \"#utility.yul\":6421:6426   */\n      dup4\n        /* \"#utility.yul\":6417:6433   */\n      add\n        /* \"#utility.yul\":6411:6434   */\n      mload\n        /* \"#utility.yul\":6447:6510   */\n      tag_749\n        /* \"#utility.yul\":6504:6508   */\n      0xa0\n        /* \"#utility.yul\":6499:6502   */\n      dup7\n        /* \"#utility.yul\":6495:6509   */\n      add\n        /* \"#utility.yul\":6481:6493   */\n      dup3\n        /* \"#utility.yul\":6447:6510   */\n      tag_603\n      jump\t// in\n    tag_749:\n        /* \"#utility.yul\":6353:6520   */\n      pop\n        /* \"#utility.yul\":6537:6541   */\n      dup1\n        /* \"#utility.yul\":6530:6541   */\n      swap2\n      pop\n        /* \"#utility.yul\":5357:6547   */\n      pop\n        /* \"#utility.yul\":5247:6547   */\n      swap3\n      swap2\n      pop\n      pop\n      jump\t// out\n        /* \"#utility.yul\":6553:6801   */\n    tag_611:\n        /* \"#utility.yul\":6668:6678   */\n      0x00\n        /* \"#utility.yul\":6703:6795   */\n      tag_751\n        /* \"#utility.yul\":6791:6794   */\n      dup4\n        /* \"#utility.yul\":6783:6789   */\n      dup4\n        /* \"#utility.yul\":6703:6795   */\n      tag_610\n      jump\t// in\n    tag_751:\n        /* \"#utility.yul\":6689:6795   */\n      swap1\n      pop\n        /* \"#utility.yul\":6553:6801   */\n      swap3\n      swap2\n      pop\n      pop\n      jump\t// out\n        /* \"#utility.yul\":6807:6943   */\n    tag_612:\n        /* \"#utility.yul\":6900:6904   */\n      0x00\n        /* \"#utility.yul\":6932:6936   */\n      0x20\n        /* \"#utility.yul\":6927:6930   */\n      dup3\n        /* \"#utility.yul\":6923:6937   */\n      add\n        /* \"#utility.yul\":6915:6937   */\n      swap1\n      pop\n        /* \"#utility.yul\":6807:6943   */\n      swap2\n      swap1\n      pop\n      jump\t// out\n        /* \"#utility.yul\":7017:8112   */\n    tag_613:\n        /* \"#utility.yul\":7182:7185   */\n      0x00\n        /* \"#utility.yul\":7211:7288   */\n      tag_754\n        /* \"#utility.yul\":7282:7287   */\n      dup3\n        /* \"#utility.yul\":7211:7288   */\n      tag_600\n      jump\t// in\n    tag_754:\n        /* \"#utility.yul\":7304:7413   */\n      tag_755\n        /* \"#utility.yul\":7406:7412   */\n      dup2\n        /* \"#utility.yul\":7401:7404   */\n      dup6\n        /* \"#utility.yul\":7304:7413   */\n      tag_601\n      jump\t// in\n    tag_755:\n        /* \"#utility.yul\":7297:7413   */\n      swap4\n      pop\n        /* \"#utility.yul\":7439:7442   */\n      dup4\n        /* \"#utility.yul\":7484:7488   */\n      0x20\n        /* \"#utility.yul\":7476:7482   */\n      dup3\n        /* \"#utility.yul\":7472:7489   */\n      mul\n        /* \"#utility.yul\":7467:7470   */\n      dup6\n        /* \"#utility.yul\":7463:7490   */\n      add\n        /* \"#utility.yul\":7514:7593   */\n      tag_756\n        /* \"#utility.yul\":7587:7592   */\n      dup6\n        /* \"#utility.yul\":7514:7593   */\n      tag_602\n      jump\t// in\n    tag_756:\n        /* \"#utility.yul\":7616:7623   */\n      dup1\n        /* \"#utility.yul\":7647:7648   */\n      0x00\n        /* \"#utility.yul\":7632:8067   */\n    tag_757:\n        /* \"#utility.yul\":7657:7663   */\n      dup6\n        /* \"#utility.yul\":7654:7655   */\n      dup2\n        /* \"#utility.yul\":7651:7664   */\n      lt\n        /* \"#utility.yul\":7632:8067   */\n      iszero\n      tag_759\n      jumpi\n        /* \"#utility.yul\":7728:7737   */\n      dup5\n        /* \"#utility.yul\":7722:7726   */\n      dup5\n        /* \"#utility.yul\":7718:7738   */\n      sub\n        /* \"#utility.yul\":7713:7716   */\n      dup10\n        /* \"#utility.yul\":7706:7739   */\n      mstore\n        /* \"#utility.yul\":7779:7785   */\n      dup2\n        /* \"#utility.yul\":7773:7786   */\n      mload\n        /* \"#utility.yul\":7807:7917   */\n      tag_760\n        /* \"#utility.yul\":7912:7916   */\n      dup6\n        /* \"#utility.yul\":7897:7910   */\n      dup3\n        /* \"#utility.yul\":7807:7917   */\n      tag_611\n      jump\t// in\n    tag_760:\n        /* \"#utility.yul\":7799:7917   */\n      swap5\n      pop\n        /* \"#utility.yul\":7940:8023   */\n      tag_761\n        /* \"#utility.yul\":8016:8022   */\n      dup4\n        /* \"#utility.yul\":7940:8023   */\n      tag_612\n      jump\t// in\n    tag_761:\n        /* \"#utility.yul\":7930:8023   */\n      swap3\n      pop\n        /* \"#utility.yul\":8052:8056   */\n      0x20\n        /* \"#utility.yul\":8047:8050   */\n      dup11\n        /* \"#utility.yul\":8043:8057   */\n      add\n        /* \"#utility.yul\":8036:8057   */\n      swap10\n      pop\n        /* \"#utility.yul\":7692:8067   */\n      pop\n        /* \"#utility.yul\":7679:7680   */\n      0x01\n        /* \"#utility.yul\":7676:7677   */\n      dup2\n        /* \"#utility.yul\":7672:7681   */\n      add\n        /* \"#utility.yul\":7667:7681   */\n      swap1\n      pop\n        /* \"#utility.yul\":7632:8067   */\n      jump(tag_757)\n    tag_759:\n        /* \"#utility.yul\":7636:7650   */\n      pop\n        /* \"#utility.yul\":8083:8087   */\n      dup3\n        /* \"#utility.yul\":8076:8087   */\n      swap8\n      pop\n        /* \"#utility.yul\":8103:8106   */\n      dup8\n        /* \"#utility.yul\":8096:8106   */\n      swap6\n      pop\n        /* \"#utility.yul\":7187:8112   */\n      pop\n      pop\n      pop\n      pop\n      pop\n        /* \"#utility.yul\":7017:8112   */\n      swap3\n      swap2\n      pop\n      pop\n      jump\t// out\n        /* \"#utility.yul\":8118:8583   */\n    tag_46:\n        /* \"#utility.yul\":8307:8311   */\n      0x00\n        /* \"#utility.yul\":8345:8347   */\n      0x20\n        /* \"#utility.yul\":8334:8343   */\n      dup3\n        /* \"#utility.yul\":8330:8348   */\n      add\n        /* \"#utility.yul\":8322:8348   */\n      swap1\n      pop\n        /* \"#utility.yul\":8394:8403   */\n      dup2\n        /* \"#utility.yul\":8388:8392   */\n      dup2\n        /* \"#utility.yul\":8384:8404   */\n      sub\n        /* \"#utility.yul\":8380:8381   */\n      0x00\n        /* \"#utility.yul\":8369:8378   */\n      dup4\n        /* \"#utility.yul\":8365:8382   */\n      add\n        /* \"#utility.yul\":8358:8405   */\n      mstore\n        /* \"#utility.yul\":8422:8576   */\n      tag_763\n        /* \"#utility.yul\":8571:8575   */\n      dup2\n        /* \"#utility.yul\":8562:8568   */\n      dup5\n        /* \"#utility.yul\":8422:8576   */\n      tag_613\n      jump\t// in\n    tag_763:\n        /* \"#utility.yul\":8414:8576   */\n      swap1\n      pop\n        /* \"#utility.yul\":8118:8583   */\n      swap3\n      swap2\n      pop\n      pop\n      jump\t// out\n        /* \"#utility.yul\":8589:8918   */\n    tag_50:\n        /* \"#utility.yul\":8648:8654   */\n      0x00\n        /* \"#utility.yul\":8697:8699   */\n      0x20\n        /* \"#utility.yul\":8685:8694   */\n      dup3\n        /* \"#utility.yul\":8676:8683   */\n      dup5\n        /* \"#utility.yul\":8672:8695   */\n      sub\n        /* \"#utility.yul\":8668:8700   */\n      slt\n        /* \"#utility.yul\":8665:8784   */\n      iszero\n      tag_765\n      jumpi\n        /* \"#utility.yul\":8703:8782   */\n      tag_766\n      tag_587\n      jump\t// in\n    tag_766:\n        /* \"#utility.yul\":8665:8784   */\n    tag_765:\n        /* \"#utility.yul\":8823:8824   */\n      0x00\n        /* \"#utility.yul\":8848:8901   */\n      tag_767\n        /* \"#utility.yul\":8893:8900   */\n      dup5\n        /* \"#utility.yul\":8884:8890   */\n      dup3\n        /* \"#utility.yul\":8873:8882   */\n      dup6\n        /* \"#utility.yul\":8869:8891   */\n      add\n        /* \"#utility.yul\":8848:8901   */\n      tag_591\n      jump\t// in\n    tag_767:\n        /* \"#utility.yul\":8838:8901   */\n      swap2\n      pop\n        /* \"#utility.yul\":8794:8911   */\n      pop\n        /* \"#utility.yul\":8589:8918   */\n      swap3\n      swap2\n      pop\n      pop\n      jump\t// out\n        /* \"#utility.yul\":8924:9042   */\n    tag_614:\n        /* \"#utility.yul\":9011:9035   */\n      tag_769\n        /* \"#utility.yul\":9029:9034   */\n      dup2\n        /* \"#utility.yul\":9011:9035   */\n      tag_597\n      jump\t// in\n    tag_769:\n        /* \"#utility.yul\":9006:9009   */\n      dup3\n        /* \"#utility.yul\":8999:9036   */\n      mstore\n        /* \"#utility.yul\":8924:9042   */\n      pop\n      pop\n      jump\t// out\n        /* \"#utility.yul\":9048:9228   */\n    tag_179:\n        /* \"#utility.yul\":9096:9173   */\n      0x4e487b7100000000000000000000000000000000000000000000000000000000\n        /* \"#utility.yul\":9093:9094   */\n      0x00\n        /* \"#utility.yul\":9086:9174   */\n      mstore\n        /* \"#utility.yul\":9193:9197   */\n      0x21\n        /* \"#utility.yul\":9190:9191   */\n      0x04\n        /* \"#utility.yul\":9183:9198   */\n      mstore\n        /* \"#utility.yul\":9217:9221   */\n      0x24\n        /* \"#utility.yul\":9214:9215   */\n      0x00\n        /* \"#utility.yul\":9207:9222   */\n      revert\n        /* \"#utility.yul\":9234:9348   */\n    tag_615:\n        /* \"#utility.yul\":9316:9317   */\n      0x04\n        /* \"#utility.yul\":9309:9314   */\n      dup2\n        /* \"#utility.yul\":9306:9318   */\n      lt\n        /* \"#utility.yul\":9296:9342   */\n      tag_772\n      jumpi\n        /* \"#utility.yul\":9322:9340   */\n      tag_773\n      tag_179\n      jump\t// in\n    tag_773:\n        /* \"#utility.yul\":9296:9342   */\n    tag_772:\n        /* \"#utility.yul\":9234:9348   */\n      pop\n      jump\t// out\n        /* \"#utility.yul\":9354:9483   */\n    tag_616:\n        /* \"#utility.yul\":9400:9407   */\n      0x00\n        /* \"#utility.yul\":9429:9434   */\n      dup2\n        /* \"#utility.yul\":9418:9434   */\n      swap1\n      pop\n        /* \"#utility.yul\":9435:9477   */\n      tag_775\n        /* \"#utility.yul\":9471:9476   */\n      dup3\n        /* \"#utility.yul\":9435:9477   */\n      tag_615\n      jump\t// in\n    tag_775:\n        /* \"#utility.yul\":9354:9483   */\n      swap2\n      swap1\n      pop\n      jump\t// out\n        /* \"#utility.yul\":9489:9618   */\n    tag_617:\n        /* \"#utility.yul\":9546:9555   */\n      0x00\n        /* \"#utility.yul\":9579:9612   */\n      tag_777\n        /* \"#utility.yul\":9606:9611   */\n      dup3\n        /* \"#utility.yul\":9579:9612   */\n      tag_616\n      jump\t// in\n    tag_777:\n        /* \"#utility.yul\":9566:9612   */\n      swap1\n      pop\n        /* \"#utility.yul\":9489:9618   */\n      swap2\n      swap1\n      pop\n      jump\t// out\n        /* \"#utility.yul\":9624:9769   */\n    tag_618:\n        /* \"#utility.yul\":9718:9762   */\n      tag_779\n        /* \"#utility.yul\":9756:9761   */\n      dup2\n        /* \"#utility.yul\":9718:9762   */\n      tag_617\n      jump\t// in\n    tag_779:\n        /* \"#utility.yul\":9713:9716   */\n      dup3\n        /* \"#utility.yul\":9706:9763   */\n      mstore\n        /* \"#utility.yul\":9624:9769   */\n      pop\n      pop\n      jump\t// out\n        /* \"#utility.yul\":9775:9944   */\n    tag_619:\n        /* \"#utility.yul\":9859:9870   */\n      0x00\n        /* \"#utility.yul\":9893:9899   */\n      dup3\n        /* \"#utility.yul\":9888:9891   */\n      dup3\n        /* \"#utility.yul\":9881:9900   */\n      mstore\n        /* \"#utility.yul\":9933:9937   */\n      0x20\n        /* \"#utility.yul\":9928:9931   */\n      dup3\n        /* \"#utility.yul\":9924:9938   */\n      add\n        /* \"#utility.yul\":9909:9938   */\n      swap1\n      pop\n        /* \"#utility.yul\":9775:9944   */\n      swap3\n      swap2\n      pop\n      pop\n      jump\t// out\n        /* \"#utility.yul\":9950:10327   */\n    tag_620:\n        /* \"#utility.yul\":10038:10041   */\n      0x00\n        /* \"#utility.yul\":10066:10105   */\n      tag_782\n        /* \"#utility.yul\":10099:10104   */\n      dup3\n        /* \"#utility.yul\":10066:10105   */\n      tag_605\n      jump\t// in\n    tag_782:\n        /* \"#utility.yul\":10121:10192   */\n      tag_783\n        /* \"#utility.yul\":10185:10191   */\n      dup2\n        /* \"#utility.yul\":10180:10183   */\n      dup6\n        /* \"#utility.yul\":10121:10192   */\n      tag_619\n      jump\t// in\n    tag_783:\n        /* \"#utility.yul\":10114:10192   */\n      swap4\n      pop\n        /* \"#utility.yul\":10201:10266   */\n      tag_784\n        /* \"#utility.yul\":10259:10265   */\n      dup2\n        /* \"#utility.yul\":10254:10257   */\n      dup6\n        /* \"#utility.yul\":10247:10251   */\n      0x20\n        /* \"#utility.yul\":10240:10245   */\n      dup7\n        /* \"#utility.yul\":10236:10252   */\n      add\n        /* \"#utility.yul\":10201:10266   */\n      tag_607\n      jump\t// in\n    tag_784:\n        /* \"#utility.yul\":10291:10320   */\n      tag_785\n        /* \"#utility.yul\":10313:10319   */\n      dup2\n        /* \"#utility.yul\":10291:10320   */\n      tag_608\n      jump\t// in\n    tag_785:\n        /* \"#utility.yul\":10286:10289   */\n      dup5\n        /* \"#utility.yul\":10282:10321   */\n      add\n        /* \"#utility.yul\":10275:10321   */\n      swap2\n      pop\n        /* \"#utility.yul\":10042:10327   */\n      pop\n        /* \"#utility.yul\":9950:10327   */\n      swap3\n      swap2\n      pop\n      pop\n      jump\t// out\n        /* \"#utility.yul\":10333:10451   */\n    tag_621:\n        /* \"#utility.yul\":10420:10444   */\n      tag_787\n        /* \"#utility.yul\":10438:10443   */\n      dup2\n        /* \"#utility.yul\":10420:10444   */\n      tag_589\n      jump\t// in\n    tag_787:\n        /* \"#utility.yul\":10415:10418   */\n      dup3\n        /* \"#utility.yul\":10408:10445   */\n      mstore\n        /* \"#utility.yul\":10333:10451   */\n      pop\n      pop\n      jump\t// out\n        /* \"#utility.yul\":10457:11337   */\n    tag_53:\n        /* \"#utility.yul\":10717:10721   */\n      0x00\n        /* \"#utility.yul\":10755:10758   */\n      0xc0\n        /* \"#utility.yul\":10744:10753   */\n      dup3\n        /* \"#utility.yul\":10740:10759   */\n      add\n        /* \"#utility.yul\":10732:10759   */\n      swap1\n      pop\n        /* \"#utility.yul\":10769:10840   */\n      tag_789\n        /* \"#utility.yul\":10837:10838   */\n      0x00\n        /* \"#utility.yul\":10826:10835   */\n      dup4\n        /* \"#utility.yul\":10822:10839   */\n      add\n        /* \"#utility.yul\":10813:10819   */\n      dup10\n        /* \"#utility.yul\":10769:10840   */\n      tag_614\n      jump\t// in\n    tag_789:\n        /* \"#utility.yul\":10850:10922   */\n      tag_790\n        /* \"#utility.yul\":10918:10920   */\n      0x20\n        /* \"#utility.yul\":10907:10916   */\n      dup4\n        /* \"#utility.yul\":10903:10921   */\n      add\n        /* \"#utility.yul\":10894:10900   */\n      dup9\n        /* \"#utility.yul\":10850:10922   */\n      tag_614\n      jump\t// in\n    tag_790:\n        /* \"#utility.yul\":10932:11011   */\n      tag_791\n        /* \"#utility.yul\":11007:11009   */\n      0x40\n        /* \"#utility.yul\":10996:11005   */\n      dup4\n        /* \"#utility.yul\":10992:11010   */\n      add\n        /* \"#utility.yul\":10983:10989   */\n      dup8\n        /* \"#utility.yul\":10932:11011   */\n      tag_618\n      jump\t// in\n    tag_791:\n        /* \"#utility.yul\":11058:11067   */\n      dup2\n        /* \"#utility.yul\":11052:11056   */\n      dup2\n        /* \"#utility.yul\":11048:11068   */\n      sub\n        /* \"#utility.yul\":11043:11045   */\n      0x60\n        /* \"#utility.yul\":11032:11041   */\n      dup4\n        /* \"#utility.yul\":11028:11046   */\n      add\n        /* \"#utility.yul\":11021:11069   */\n      mstore\n        /* \"#utility.yul\":11086:11164   */\n      tag_792\n        /* \"#utility.yul\":11159:11163   */\n      dup2\n        /* \"#utility.yul\":11150:11156   */\n      dup7\n        /* \"#utility.yul\":11086:11164   */\n      tag_620\n      jump\t// in\n    tag_792:\n        /* \"#utility.yul\":11078:11164   */\n      swap1\n      pop\n        /* \"#utility.yul\":11174:11247   */\n      tag_793\n        /* \"#utility.yul\":11242:11245   */\n      0x80\n        /* \"#utility.yul\":11231:11240   */\n      dup4\n        /* \"#utility.yul\":11227:11246   */\n      add\n        /* \"#utility.yul\":11218:11224   */\n      dup6\n        /* \"#utility.yul\":11174:11247   */\n      tag_621\n      jump\t// in\n    tag_793:\n        /* \"#utility.yul\":11257:11330   */\n      tag_794\n        /* \"#utility.yul\":11325:11328   */\n      0xa0\n        /* \"#utility.yul\":11314:11323   */\n      dup4\n        /* \"#utility.yul\":11310:11329   */\n      add\n        /* \"#utility.yul\":11301:11307   */\n      dup5\n        /* \"#utility.yul\":11257:11330   */\n      tag_621\n      jump\t// in\n    tag_794:\n        /* \"#utility.yul\":10457:11337   */\n      swap8\n      swap7\n      pop\n      pop\n      pop\n      pop\n      pop\n      pop\n      pop\n      jump\t// out\n        /* \"#utility.yul\":11343:11817   */\n    tag_57:\n        /* \"#utility.yul\":11411:11417   */\n      0x00\n        /* \"#utility.yul\":11419:11425   */\n      dup1\n        /* \"#utility.yul\":11468:11470   */\n      0x40\n        /* \"#utility.yul\":11456:11465   */\n      dup4\n        /* \"#utility.yul\":11447:11454   */\n      dup6\n        /* \"#utility.yul\":11443:11466   */\n      sub\n        /* \"#utility.yul\":11439:11471   */\n      slt\n        /* \"#utility.yul\":11436:11555   */\n      iszero\n      tag_796\n      jumpi\n        /* \"#utility.yul\":11474:11553   */\n      tag_797\n      tag_587\n      jump\t// in\n    tag_797:\n        /* \"#utility.yul\":11436:11555   */\n    tag_796:\n        /* \"#utility.yul\":11594:11595   */\n      0x00\n        /* \"#utility.yul\":11619:11672   */\n      tag_798\n        /* \"#utility.yul\":11664:11671   */\n      dup6\n        /* \"#utility.yul\":11655:11661   */\n      dup3\n        /* \"#utility.yul\":11644:11653   */\n      dup7\n        /* \"#utility.yul\":11640:11662   */\n      add\n        /* \"#utility.yul\":11619:11672   */\n      tag_599\n      jump\t// in\n    tag_798:\n        /* \"#utility.yul\":11609:11672   */\n      swap3\n      pop\n        /* \"#utility.yul\":11565:11682   */\n      pop\n        /* \"#utility.yul\":11721:11723   */\n      0x20\n        /* \"#utility.yul\":11747:11800   */\n      tag_799\n        /* \"#utility.yul\":11792:11799   */\n      dup6\n        /* \"#utility.yul\":11783:11789   */\n      dup3\n        /* \"#utility.yul\":11772:11781   */\n      dup7\n        /* \"#utility.yul\":11768:11790   */\n      add\n        /* \"#utility.yul\":11747:11800   */\n      tag_591\n      jump\t// in\n    tag_799:\n        /* \"#utility.yul\":11737:11800   */\n      swap2\n      pop\n        /* \"#utility.yul\":11692:11810   */\n      pop\n        /* \"#utility.yul\":11343:11817   */\n      swap3\n      pop\n      swap3\n      swap1\n      pop\n      jump\t// out\n        /* \"#utility.yul\":11823:12689   */\n    tag_60:\n        /* \"#utility.yul\":12076:12080   */\n      0x00\n        /* \"#utility.yul\":12114:12117   */\n      0xc0\n        /* \"#utility.yul\":12103:12112   */\n      dup3\n        /* \"#utility.yul\":12099:12118   */\n      add\n        /* \"#utility.yul\":12091:12118   */\n      swap1\n      pop\n        /* \"#utility.yul\":12128:12199   */\n      tag_801\n        /* \"#utility.yul\":12196:12197   */\n      0x00\n        /* \"#utility.yul\":12185:12194   */\n      dup4\n        /* \"#utility.yul\":12181:12198   */\n      add\n        /* \"#utility.yul\":12172:12178   */\n      dup10\n        /* \"#utility.yul\":12128:12199   */\n      tag_621\n      jump\t// in\n    tag_801:\n        /* \"#utility.yul\":12209:12281   */\n      tag_802\n        /* \"#utility.yul\":12277:12279   */\n      0x20\n        /* \"#utility.yul\":12266:12275   */\n      dup4\n        /* \"#utility.yul\":12262:12280   */\n      add\n        /* \"#utility.yul\":12253:12259   */\n      dup9\n        /* \"#utility.yul\":12209:12281   */\n      tag_614\n      jump\t// in\n    tag_802:\n        /* \"#utility.yul\":12291:12363   */\n      tag_803\n        /* \"#utility.yul\":12359:12361   */\n      0x40\n        /* \"#utility.yul\":12348:12357   */\n      dup4\n        /* \"#utility.yul\":12344:12362   */\n      add\n        /* \"#utility.yul\":12335:12341   */\n      dup8\n        /* \"#utility.yul\":12291:12363   */\n      tag_621\n      jump\t// in\n    tag_803:\n        /* \"#utility.yul\":12373:12445   */\n      tag_804\n        /* \"#utility.yul\":12441:12443   */\n      0x60\n        /* \"#utility.yul\":12430:12439   */\n      dup4\n        /* \"#utility.yul\":12426:12444   */\n      add\n        /* \"#utility.yul\":12417:12423   */\n      dup7\n        /* \"#utility.yul\":12373:12445   */\n      tag_621\n      jump\t// in\n    tag_804:\n        /* \"#utility.yul\":12493:12502   */\n      dup2\n        /* \"#utility.yul\":12487:12491   */\n      dup2\n        /* \"#utility.yul\":12483:12503   */\n      sub\n        /* \"#utility.yul\":12477:12480   */\n      0x80\n        /* \"#utility.yul\":12466:12475   */\n      dup4\n        /* \"#utility.yul\":12462:12481   */\n      add\n        /* \"#utility.yul\":12455:12504   */\n      mstore\n        /* \"#utility.yul\":12521:12599   */\n      tag_805\n        /* \"#utility.yul\":12594:12598   */\n      dup2\n        /* \"#utility.yul\":12585:12591   */\n      dup6\n        /* \"#utility.yul\":12521:12599   */\n      tag_620\n      jump\t// in\n    tag_805:\n        /* \"#utility.yul\":12513:12599   */\n      swap1\n      pop\n        /* \"#utility.yul\":12609:12682   */\n      tag_806\n        /* \"#utility.yul\":12677:12680   */\n      0xa0\n        /* \"#utility.yul\":12666:12675   */\n      dup4\n        /* \"#utility.yul\":12662:12681   */\n      add\n        /* \"#utility.yul\":12653:12659   */\n      dup5\n        /* \"#utility.yul\":12609:12682   */\n      tag_621\n      jump\t// in\n    tag_806:\n        /* \"#utility.yul\":11823:12689   */\n      swap8\n      swap7\n      pop\n      pop\n      pop\n      pop\n      pop\n      pop\n      pop\n      jump\t// out\n        /* \"#utility.yul\":12695:12806   */\n    tag_622:\n        /* \"#utility.yul\":12774:12775   */\n      0x03\n        /* \"#utility.yul\":12767:12772   */\n      dup2\n        /* \"#utility.yul\":12764:12776   */\n      lt\n        /* \"#utility.yul\":12754:12800   */\n      tag_808\n      jumpi\n        /* \"#utility.yul\":12780:12798   */\n      tag_809\n      tag_179\n      jump\t// in\n    tag_809:\n        /* \"#utility.yul\":12754:12800   */\n    tag_808:\n        /* \"#utility.yul\":12695:12806   */\n      pop\n      jump\t// out\n        /* \"#utility.yul\":12812:12935   */\n    tag_623:\n        /* \"#utility.yul\":12855:12862   */\n      0x00\n        /* \"#utility.yul\":12884:12889   */\n      dup2\n        /* \"#utility.yul\":12873:12889   */\n      swap1\n      pop\n        /* \"#utility.yul\":12890:12929   */\n      tag_811\n        /* \"#utility.yul\":12923:12928   */\n      dup3\n        /* \"#utility.yul\":12890:12929   */\n      tag_622\n      jump\t// in\n    tag_811:\n        /* \"#utility.yul\":12812:12935   */\n      swap2\n      swap1\n      pop\n      jump\t// out\n        /* \"#utility.yul\":12941:13064   */\n    tag_624:\n        /* \"#utility.yul\":12995:13004   */\n      0x00\n        /* \"#utility.yul\":13028:13058   */\n      tag_813\n        /* \"#utility.yul\":13052:13057   */\n      dup3\n        /* \"#utility.yul\":13028:13058   */\n      tag_623\n      jump\t// in\n    tag_813:\n        /* \"#utility.yul\":13015:13058   */\n      swap1\n      pop\n        /* \"#utility.yul\":12941:13064   */\n      swap2\n      swap1\n      pop\n      jump\t// out\n        /* \"#utility.yul\":13070:13209   */\n    tag_625:\n        /* \"#utility.yul\":13161:13202   */\n      tag_815\n        /* \"#utility.yul\":13196:13201   */\n      dup2\n        /* \"#utility.yul\":13161:13202   */\n      tag_624\n      jump\t// in\n    tag_815:\n        /* \"#utility.yul\":13156:13159   */\n      dup3\n        /* \"#utility.yul\":13149:13203   */\n      mstore\n        /* \"#utility.yul\":13070:13209   */\n      pop\n      pop\n      jump\t// out\n        /* \"#utility.yul\":13215:13555   */\n    tag_80:\n        /* \"#utility.yul\":13340:13344   */\n      0x00\n        /* \"#utility.yul\":13378:13380   */\n      0x40\n        /* \"#utility.yul\":13367:13376   */\n      dup3\n        /* \"#utility.yul\":13363:13381   */\n      add\n        /* \"#utility.yul\":13355:13381   */\n      swap1\n      pop\n        /* \"#utility.yul\":13391:13462   */\n      tag_817\n        /* \"#utility.yul\":13459:13460   */\n      0x00\n        /* \"#utility.yul\":13448:13457   */\n      dup4\n        /* \"#utility.yul\":13444:13461   */\n      add\n        /* \"#utility.yul\":13435:13441   */\n      dup6\n        /* \"#utility.yul\":13391:13462   */\n      tag_614\n      jump\t// in\n    tag_817:\n        /* \"#utility.yul\":13472:13548   */\n      tag_818\n        /* \"#utility.yul\":13544:13546   */\n      0x20\n        /* \"#utility.yul\":13533:13542   */\n      dup4\n        /* \"#utility.yul\":13529:13547   */\n      add\n        /* \"#utility.yul\":13520:13526   */\n      dup5\n        /* \"#utility.yul\":13472:13548   */\n      tag_625\n      jump\t// in\n    tag_818:\n        /* \"#utility.yul\":13215:13555   */\n      swap4\n      swap3\n      pop\n      pop\n      pop\n      jump\t// out\n        /* \"#utility.yul\":13561:13666   */\n    tag_626:\n        /* \"#utility.yul\":13640:13641   */\n      0x03\n        /* \"#utility.yul\":13633:13638   */\n      dup2\n        /* \"#utility.yul\":13630:13642   */\n      lt\n        /* \"#utility.yul\":13620:13660   */\n      tag_820\n      jumpi\n        /* \"#utility.yul\":13656:13657   */\n      0x00\n        /* \"#utility.yul\":13653:13654   */\n      dup1\n        /* \"#utility.yul\":13646:13658   */\n      revert\n        /* \"#utility.yul\":13620:13660   */\n    tag_820:\n        /* \"#utility.yul\":13561:13666   */\n      pop\n      jump\t// out\n        /* \"#utility.yul\":13672:13823   */\n    tag_627:\n        /* \"#utility.yul\":13724:13729   */\n      0x00\n        /* \"#utility.yul\":13762:13768   */\n      dup2\n        /* \"#utility.yul\":13749:13769   */\n      calldataload\n        /* \"#utility.yul\":13740:13769   */\n      swap1\n      pop\n        /* \"#utility.yul\":13778:13817   */\n      tag_822\n        /* \"#utility.yul\":13811:13816   */\n      dup2\n        /* \"#utility.yul\":13778:13817   */\n      tag_626\n      jump\t// in\n    tag_822:\n        /* \"#utility.yul\":13672:13823   */\n      swap3\n      swap2\n      pop\n      pop\n      jump\t// out\n        /* \"#utility.yul\":13829:14170   */\n    tag_84:\n        /* \"#utility.yul\":13894:13900   */\n      0x00\n        /* \"#utility.yul\":13943:13945   */\n      0x20\n        /* \"#utility.yul\":13931:13940   */\n      dup3\n        /* \"#utility.yul\":13922:13929   */\n      dup5\n        /* \"#utility.yul\":13918:13941   */\n      sub\n        /* \"#utility.yul\":13914:13946   */\n      slt\n        /* \"#utility.yul\":13911:14030   */\n      iszero\n      tag_824\n      jumpi\n        /* \"#utility.yul\":13949:14028   */\n      tag_825\n      tag_587\n      jump\t// in\n    tag_825:\n        /* \"#utility.yul\":13911:14030   */\n    tag_824:\n        /* \"#utility.yul\":14069:14070   */\n      0x00\n        /* \"#utility.yul\":14094:14153   */\n      tag_826\n        /* \"#utility.yul\":14145:14152   */\n      dup5\n        /* \"#utility.yul\":14136:14142   */\n      dup3\n        /* \"#utility.yul\":14125:14134   */\n      dup6\n        /* \"#utility.yul\":14121:14143   */\n      add\n        /* \"#utility.yul\":14094:14153   */\n      tag_627\n      jump\t// in\n    tag_826:\n        /* \"#utility.yul\":14084:14153   */\n      swap2\n      pop\n        /* \"#utility.yul\":14040:14163   */\n      pop\n        /* \"#utility.yul\":13829:14170   */\n      swap3\n      swap2\n      pop\n      pop\n      jump\t// out\n        /* \"#utility.yul\":14176:14293   */\n    tag_628:\n        /* \"#utility.yul\":14285:14286   */\n      0x00\n        /* \"#utility.yul\":14282:14283   */\n      dup1\n        /* \"#utility.yul\":14275:14287   */\n      revert\n        /* \"#utility.yul\":14299:14479   */\n    tag_629:\n        /* \"#utility.yul\":14347:14424   */\n      0x4e487b7100000000000000000000000000000000000000000000000000000000\n        /* \"#utility.yul\":14344:14345   */\n      0x00\n        /* \"#utility.yul\":14337:14425   */\n      mstore\n        /* \"#utility.yul\":14444:14448   */\n      0x41\n        /* \"#utility.yul\":14441:14442   */\n      0x04\n        /* \"#utility.yul\":14434:14449   */\n      mstore\n        /* \"#utility.yul\":14468:14472   */\n      0x24\n        /* \"#utility.yul\":14465:14466   */\n      0x00\n        /* \"#utility.yul\":14458:14473   */\n      revert\n        /* \"#utility.yul\":14485:14766   */\n    tag_630:\n        /* \"#utility.yul\":14568:14595   */\n      tag_830\n        /* \"#utility.yul\":14590:14594   */\n      dup3\n        /* \"#utility.yul\":14568:14595   */\n      tag_608\n      jump\t// in\n    tag_830:\n        /* \"#utility.yul\":14560:14566   */\n      dup2\n        /* \"#utility.yul\":14556:14596   */\n      add\n        /* \"#utility.yul\":14698:14704   */\n      dup2\n        /* \"#utility.yul\":14686:14696   */\n      dup2\n        /* \"#utility.yul\":14683:14705   */\n      lt\n        /* \"#utility.yul\":14662:14680   */\n      0xffffffffffffffff\n        /* \"#utility.yul\":14650:14660   */\n      dup3\n        /* \"#utility.yul\":14647:14681   */\n      gt\n        /* \"#utility.yul\":14644:14706   */\n      or\n        /* \"#utility.yul\":14641:14729   */\n      iszero\n      tag_831\n      jumpi\n        /* \"#utility.yul\":14709:14727   */\n      tag_832\n      tag_629\n      jump\t// in\n    tag_832:\n        /* \"#utility.yul\":14641:14729   */\n    tag_831:\n        /* \"#utility.yul\":14749:14759   */\n      dup1\n        /* \"#utility.yul\":14745:14747   */\n      0x40\n        /* \"#utility.yul\":14738:14760   */\n      mstore\n        /* \"#utility.yul\":14528:14766   */\n      pop\n        /* \"#utility.yul\":14485:14766   */\n      pop\n      pop\n      jump\t// out\n        /* \"#utility.yul\":14772:14901   */\n    tag_631:\n        /* \"#utility.yul\":14806:14812   */\n      0x00\n        /* \"#utility.yul\":14833:14853   */\n      tag_834\n      tag_586\n      jump\t// in\n    tag_834:\n        /* \"#utility.yul\":14823:14853   */\n      swap1\n      pop\n        /* \"#utility.yul\":14862:14895   */\n      tag_835\n        /* \"#utility.yul\":14890:14894   */\n      dup3\n        /* \"#utility.yul\":14882:14888   */\n      dup3\n        /* \"#utility.yul\":14862:14895   */\n      tag_630\n      jump\t// in\n    tag_835:\n        /* \"#utility.yul\":14772:14901   */\n      swap2\n      swap1\n      pop\n      jump\t// out\n        /* \"#utility.yul\":14907:15215   */\n    tag_632:\n        /* \"#utility.yul\":14969:14973   */\n      0x00\n        /* \"#utility.yul\":15059:15077   */\n      0xffffffffffffffff\n        /* \"#utility.yul\":15051:15057   */\n      dup3\n        /* \"#utility.yul\":15048:15078   */\n      gt\n        /* \"#utility.yul\":15045:15101   */\n      iszero\n      tag_837\n      jumpi\n        /* \"#utility.yul\":15081:15099   */\n      tag_838\n      tag_629\n      jump\t// in\n    tag_838:\n        /* \"#utility.yul\":15045:15101   */\n    tag_837:\n        /* \"#utility.yul\":15119:15148   */\n      tag_839\n        /* \"#utility.yul\":15141:15147   */\n      dup3\n        /* \"#utility.yul\":15119:15148   */\n      tag_608\n      jump\t// in\n    tag_839:\n        /* \"#utility.yul\":15111:15148   */\n      swap1\n      pop\n        /* \"#utility.yul\":15203:15207   */\n      0x20\n        /* \"#utility.yul\":15197:15201   */\n      dup2\n        /* \"#utility.yul\":15193:15208   */\n      add\n        /* \"#utility.yul\":15185:15208   */\n      swap1\n      pop\n        /* \"#utility.yul\":14907:15215   */\n      swap2\n      swap1\n      pop\n      jump\t// out\n        /* \"#utility.yul\":15221:15367   */\n    tag_633:\n        /* \"#utility.yul\":15318:15324   */\n      dup3\n        /* \"#utility.yul\":15313:15316   */\n      dup2\n        /* \"#utility.yul\":15308:15311   */\n      dup4\n        /* \"#utility.yul\":15295:15325   */\n      calldatacopy\n        /* \"#utility.yul\":15359:15360   */\n      0x00\n        /* \"#utility.yul\":15350:15356   */\n      dup4\n        /* \"#utility.yul\":15345:15348   */\n      dup4\n        /* \"#utility.yul\":15341:15357   */\n      add\n        /* \"#utility.yul\":15334:15361   */\n      mstore\n        /* \"#utility.yul\":15221:15367   */\n      pop\n      pop\n      pop\n      jump\t// out\n        /* \"#utility.yul\":15373:15798   */\n    tag_634:\n        /* \"#utility.yul\":15451:15456   */\n      0x00\n        /* \"#utility.yul\":15476:15542   */\n      tag_842\n        /* \"#utility.yul\":15492:15541   */\n      tag_843\n        /* \"#utility.yul\":15534:15540   */\n      dup5\n        /* \"#utility.yul\":15492:15541   */\n      tag_632\n      jump\t// in\n    tag_843:\n        /* \"#utility.yul\":15476:15542   */\n      tag_631\n      jump\t// in\n    tag_842:\n        /* \"#utility.yul\":15467:15542   */\n      swap1\n      pop\n        /* \"#utility.yul\":15565:15571   */\n      dup3\n        /* \"#utility.yul\":15558:15563   */\n      dup2\n        /* \"#utility.yul\":15551:15572   */\n      mstore\n        /* \"#utility.yul\":15603:15607   */\n      0x20\n        /* \"#utility.yul\":15596:15601   */\n      dup2\n        /* \"#utility.yul\":15592:15608   */\n      add\n        /* \"#utility.yul\":15641:15644   */\n      dup5\n        /* \"#utility.yul\":15632:15638   */\n      dup5\n        /* \"#utility.yul\":15627:15630   */\n      dup5\n        /* \"#utility.yul\":15623:15639   */\n      add\n        /* \"#utility.yul\":15620:15645   */\n      gt\n        /* \"#utility.yul\":15617:15729   */\n      iszero\n      tag_844\n      jumpi\n        /* \"#utility.yul\":15648:15727   */\n      tag_845\n      tag_628\n      jump\t// in\n    tag_845:\n        /* \"#utility.yul\":15617:15729   */\n    tag_844:\n        /* \"#utility.yul\":15738:15792   */\n      tag_846\n        /* \"#utility.yul\":15785:15791   */\n      dup5\n        /* \"#utility.yul\":15780:15783   */\n      dup3\n        /* \"#utility.yul\":15775:15778   */\n      dup6\n        /* \"#utility.yul\":15738:15792   */\n      tag_633\n      jump\t// in\n    tag_846:\n        /* \"#utility.yul\":15457:15798   */\n      pop\n        /* \"#utility.yul\":15373:15798   */\n      swap4\n      swap3\n      pop\n      pop\n      pop\n      jump\t// out\n        /* \"#utility.yul\":15818:16158   */\n    tag_635:\n        /* \"#utility.yul\":15874:15879   */\n      0x00\n        /* \"#utility.yul\":15923:15926   */\n      dup3\n        /* \"#utility.yul\":15916:15920   */\n      0x1f\n        /* \"#utility.yul\":15908:15914   */\n      dup4\n        /* \"#utility.yul\":15904:15921   */\n      add\n        /* \"#utility.yul\":15900:15927   */\n      slt\n        /* \"#utility.yul\":15890:16012   */\n      tag_848\n      jumpi\n        /* \"#utility.yul\":15931:16010   */\n      tag_849\n      tag_592\n      jump\t// in\n    tag_849:\n        /* \"#utility.yul\":15890:16012   */\n    tag_848:\n        /* \"#utility.yul\":16048:16054   */\n      dup2\n        /* \"#utility.yul\":16035:16055   */\n      calldataload\n        /* \"#utility.yul\":16073:16152   */\n      tag_850\n        /* \"#utility.yul\":16148:16151   */\n      dup5\n        /* \"#utility.yul\":16140:16146   */\n      dup3\n        /* \"#utility.yul\":16133:16137   */\n      0x20\n        /* \"#utility.yul\":16125:16131   */\n      dup7\n        /* \"#utility.yul\":16121:16138   */\n      add\n        /* \"#utility.yul\":16073:16152   */\n      tag_634\n      jump\t// in\n    tag_850:\n        /* \"#utility.yul\":16064:16152   */\n      swap2\n      pop\n        /* \"#utility.yul\":15880:16158   */\n      pop\n        /* \"#utility.yul\":15818:16158   */\n      swap3\n      swap2\n      pop\n      pop\n      jump\t// out\n        /* \"#utility.yul\":16164:16998   */\n    tag_89:\n        /* \"#utility.yul\":16252:16258   */\n      0x00\n        /* \"#utility.yul\":16260:16266   */\n      dup1\n        /* \"#utility.yul\":16309:16311   */\n      0x40\n        /* \"#utility.yul\":16297:16306   */\n      dup4\n        /* \"#utility.yul\":16288:16295   */\n      dup6\n        /* \"#utility.yul\":16284:16307   */\n      sub\n        /* \"#utility.yul\":16280:16312   */\n      slt\n        /* \"#utility.yul\":16277:16396   */\n      iszero\n      tag_852\n      jumpi\n        /* \"#utility.yul\":16315:16394   */\n      tag_853\n      tag_587\n      jump\t// in\n    tag_853:\n        /* \"#utility.yul\":16277:16396   */\n    tag_852:\n        /* \"#utility.yul\":16463:16464   */\n      0x00\n        /* \"#utility.yul\":16452:16461   */\n      dup4\n        /* \"#utility.yul\":16448:16465   */\n      add\n        /* \"#utility.yul\":16435:16466   */\n      calldataload\n        /* \"#utility.yul\":16493:16511   */\n      0xffffffffffffffff\n        /* \"#utility.yul\":16485:16491   */\n      dup2\n        /* \"#utility.yul\":16482:16512   */\n      gt\n        /* \"#utility.yul\":16479:16596   */\n      iszero\n      tag_854\n      jumpi\n        /* \"#utility.yul\":16515:16594   */\n      tag_855\n      tag_588\n      jump\t// in\n    tag_855:\n        /* \"#utility.yul\":16479:16596   */\n    tag_854:\n        /* \"#utility.yul\":16620:16683   */\n      tag_856\n        /* \"#utility.yul\":16675:16682   */\n      dup6\n        /* \"#utility.yul\":16666:16672   */\n      dup3\n        /* \"#utility.yul\":16655:16664   */\n      dup7\n        /* \"#utility.yul\":16651:16673   */\n      add\n        /* \"#utility.yul\":16620:16683   */\n      tag_635\n      jump\t// in\n    tag_856:\n        /* \"#utility.yul\":16610:16683   */\n      swap3\n      pop\n        /* \"#utility.yul\":16406:16693   */\n      pop\n        /* \"#utility.yul\":16760:16762   */\n      0x20\n        /* \"#utility.yul\":16749:16758   */\n      dup4\n        /* \"#utility.yul\":16745:16763   */\n      add\n        /* \"#utility.yul\":16732:16764   */\n      calldataload\n        /* \"#utility.yul\":16791:16809   */\n      0xffffffffffffffff\n        /* \"#utility.yul\":16783:16789   */\n      dup2\n        /* \"#utility.yul\":16780:16810   */\n      gt\n        /* \"#utility.yul\":16777:16894   */\n      iszero\n      tag_857\n      jumpi\n        /* \"#utility.yul\":16813:16892   */\n      tag_858\n      tag_588\n      jump\t// in\n    tag_858:\n        /* \"#utility.yul\":16777:16894   */\n    tag_857:\n        /* \"#utility.yul\":16918:16981   */\n      tag_859\n        /* \"#utility.yul\":16973:16980   */\n      dup6\n        /* \"#utility.yul\":16964:16970   */\n      dup3\n        /* \"#utility.yul\":16953:16962   */\n      dup7\n        /* \"#utility.yul\":16949:16971   */\n      add\n        /* \"#utility.yul\":16918:16981   */\n      tag_635\n      jump\t// in\n    tag_859:\n        /* \"#utility.yul\":16908:16981   */\n      swap2\n      pop\n        /* \"#utility.yul\":16703:16991   */\n      pop\n        /* \"#utility.yul\":16164:16998   */\n      swap3\n      pop\n      swap3\n      swap1\n      pop\n      jump\t// out\n        /* \"#utility.yul\":17004:17133   */\n    tag_636:\n        /* \"#utility.yul\":17085:17126   */\n      tag_861\n        /* \"#utility.yul\":17120:17125   */\n      dup2\n        /* \"#utility.yul\":17085:17126   */\n      tag_624\n      jump\t// in\n    tag_861:\n        /* \"#utility.yul\":17080:17083   */\n      dup3\n        /* \"#utility.yul\":17073:17127   */\n      mstore\n        /* \"#utility.yul\":17004:17133   */\n      pop\n      pop\n      jump\t// out\n        /* \"#utility.yul\":17197:18474   */\n    tag_637:\n        /* \"#utility.yul\":17306:17309   */\n      0x00\n        /* \"#utility.yul\":17342:17346   */\n      0xa0\n        /* \"#utility.yul\":17337:17340   */\n      dup4\n        /* \"#utility.yul\":17333:17347   */\n      add\n        /* \"#utility.yul\":17430:17434   */\n      0x00\n        /* \"#utility.yul\":17423:17428   */\n      dup4\n        /* \"#utility.yul\":17419:17435   */\n      add\n        /* \"#utility.yul\":17413:17436   */\n      mload\n        /* \"#utility.yul\":17483:17486   */\n      dup5\n        /* \"#utility.yul\":17477:17481   */\n      dup3\n        /* \"#utility.yul\":17473:17487   */\n      sub\n        /* \"#utility.yul\":17466:17470   */\n      0x00\n        /* \"#utility.yul\":17461:17464   */\n      dup7\n        /* \"#utility.yul\":17457:17471   */\n      add\n        /* \"#utility.yul\":17450:17488   */\n      mstore\n        /* \"#utility.yul\":17509:17582   */\n      tag_863\n        /* \"#utility.yul\":17577:17581   */\n      dup3\n        /* \"#utility.yul\":17563:17575   */\n      dup3\n        /* \"#utility.yul\":17509:17582   */\n      tag_609\n      jump\t// in\n    tag_863:\n        /* \"#utility.yul\":17501:17582   */\n      swap2\n      pop\n        /* \"#utility.yul\":17357:17593   */\n      pop\n        /* \"#utility.yul\":17680:17684   */\n      0x20\n        /* \"#utility.yul\":17673:17678   */\n      dup4\n        /* \"#utility.yul\":17669:17685   */\n      add\n        /* \"#utility.yul\":17663:17686   */\n      mload\n        /* \"#utility.yul\":17733:17736   */\n      dup5\n        /* \"#utility.yul\":17727:17731   */\n      dup3\n        /* \"#utility.yul\":17723:17737   */\n      sub\n        /* \"#utility.yul\":17716:17720   */\n      0x20\n        /* \"#utility.yul\":17711:17714   */\n      dup7\n        /* \"#utility.yul\":17707:17721   */\n      add\n        /* \"#utility.yul\":17700:17738   */\n      mstore\n        /* \"#utility.yul\":17759:17832   */\n      tag_864\n        /* \"#utility.yul\":17827:17831   */\n      dup3\n        /* \"#utility.yul\":17813:17825   */\n      dup3\n        /* \"#utility.yul\":17759:17832   */\n      tag_609\n      jump\t// in\n    tag_864:\n        /* \"#utility.yul\":17751:17832   */\n      swap2\n      pop\n        /* \"#utility.yul\":17603:17843   */\n      pop\n        /* \"#utility.yul\":17929:17933   */\n      0x40\n        /* \"#utility.yul\":17922:17927   */\n      dup4\n        /* \"#utility.yul\":17918:17934   */\n      add\n        /* \"#utility.yul\":17912:17935   */\n      mload\n        /* \"#utility.yul\":17982:17985   */\n      dup5\n        /* \"#utility.yul\":17976:17980   */\n      dup3\n        /* \"#utility.yul\":17972:17986   */\n      sub\n        /* \"#utility.yul\":17965:17969   */\n      0x40\n        /* \"#utility.yul\":17960:17963   */\n      dup7\n        /* \"#utility.yul\":17956:17970   */\n      add\n        /* \"#utility.yul\":17949:17987   */\n      mstore\n        /* \"#utility.yul\":18008:18081   */\n      tag_865\n        /* \"#utility.yul\":18076:18080   */\n      dup3\n        /* \"#utility.yul\":18062:18074   */\n      dup3\n        /* \"#utility.yul\":18008:18081   */\n      tag_609\n      jump\t// in\n    tag_865:\n        /* \"#utility.yul\":18000:18081   */\n      swap2\n      pop\n        /* \"#utility.yul\":17853:18092   */\n      pop\n        /* \"#utility.yul\":18174:18178   */\n      0x60\n        /* \"#utility.yul\":18167:18172   */\n      dup4\n        /* \"#utility.yul\":18163:18179   */\n      add\n        /* \"#utility.yul\":18157:18180   */\n      mload\n        /* \"#utility.yul\":18193:18260   */\n      tag_866\n        /* \"#utility.yul\":18254:18258   */\n      0x60\n        /* \"#utility.yul\":18249:18252   */\n      dup7\n        /* \"#utility.yul\":18245:18259   */\n      add\n        /* \"#utility.yul\":18231:18243   */\n      dup3\n        /* \"#utility.yul\":18193:18260   */\n      tag_636\n      jump\t// in\n    tag_866:\n        /* \"#utility.yul\":18102:18270   */\n      pop\n        /* \"#utility.yul\":18355:18359   */\n      0x80\n        /* \"#utility.yul\":18348:18353   */\n      dup4\n        /* \"#utility.yul\":18344:18360   */\n      add\n        /* \"#utility.yul\":18338:18361   */\n      mload\n        /* \"#utility.yul\":18374:18437   */\n      tag_867\n        /* \"#utility.yul\":18431:18435   */\n      0x80\n        /* \"#utility.yul\":18426:18429   */\n      dup7\n        /* \"#utility.yul\":18422:18436   */\n      add\n        /* \"#utility.yul\":18408:18420   */\n      dup3\n        /* \"#utility.yul\":18374:18437   */\n      tag_603\n      jump\t// in\n    tag_867:\n        /* \"#utility.yul\":18280:18447   */\n      pop\n        /* \"#utility.yul\":18464:18468   */\n      dup1\n        /* \"#utility.yul\":18457:18468   */\n      swap2\n      pop\n        /* \"#utility.yul\":17311:18474   */\n      pop\n        /* \"#utility.yul\":17197:18474   */\n      swap3\n      swap2\n      pop\n      pop\n      jump\t// out\n        /* \"#utility.yul\":18480:18833   */\n    tag_92:\n        /* \"#utility.yul\":18613:18617   */\n      0x00\n        /* \"#utility.yul\":18651:18653   */\n      0x20\n        /* \"#utility.yul\":18640:18649   */\n      dup3\n        /* \"#utility.yul\":18636:18654   */\n      add\n        /* \"#utility.yul\":18628:18654   */\n      swap1\n      pop\n        /* \"#utility.yul\":18700:18709   */\n      dup2\n        /* \"#utility.yul\":18694:18698   */\n      dup2\n        /* \"#utility.yul\":18690:18710   */\n      sub\n        /* \"#utility.yul\":18686:18687   */\n      0x00\n        /* \"#utility.yul\":18675:18684   */\n      dup4\n        /* \"#utility.yul\":18671:18688   */\n      add\n        /* \"#utility.yul\":18664:18711   */\n      mstore\n        /* \"#utility.yul\":18728:18826   */\n      tag_869\n        /* \"#utility.yul\":18821:18825   */\n      dup2\n        /* \"#utility.yul\":18812:18818   */\n      dup5\n        /* \"#utility.yul\":18728:18826   */\n      tag_637\n      jump\t// in\n    tag_869:\n        /* \"#utility.yul\":18720:18826   */\n      swap1\n      pop\n        /* \"#utility.yul\":18480:18833   */\n      swap3\n      swap2\n      pop\n      pop\n      jump\t// out\n        /* \"#utility.yul\":18839:19458   */\n    tag_96:\n        /* \"#utility.yul\":18916:18922   */\n      0x00\n        /* \"#utility.yul\":18924:18930   */\n      dup1\n        /* \"#utility.yul\":18932:18938   */\n      0x00\n        /* \"#utility.yul\":18981:18983   */\n      0x60\n        /* \"#utility.yul\":18969:18978   */\n      dup5\n        /* \"#utility.yul\":18960:18967   */\n      dup7\n        /* \"#utility.yul\":18956:18979   */\n      sub\n        /* \"#utility.yul\":18952:18984   */\n      slt\n        /* \"#utility.yul\":18949:19068   */\n      iszero\n      tag_871\n      jumpi\n        /* \"#utility.yul\":18987:19066   */\n      tag_872\n      tag_587\n      jump\t// in\n    tag_872:\n        /* \"#utility.yul\":18949:19068   */\n    tag_871:\n        /* \"#utility.yul\":19107:19108   */\n      0x00\n        /* \"#utility.yul\":19132:19185   */\n      tag_873\n        /* \"#utility.yul\":19177:19184   */\n      dup7\n        /* \"#utility.yul\":19168:19174   */\n      dup3\n        /* \"#utility.yul\":19157:19166   */\n      dup8\n        /* \"#utility.yul\":19153:19175   */\n      add\n        /* \"#utility.yul\":19132:19185   */\n      tag_599\n      jump\t// in\n    tag_873:\n        /* \"#utility.yul\":19122:19185   */\n      swap4\n      pop\n        /* \"#utility.yul\":19078:19195   */\n      pop\n        /* \"#utility.yul\":19234:19236   */\n      0x20\n        /* \"#utility.yul\":19260:19313   */\n      tag_874\n        /* \"#utility.yul\":19305:19312   */\n      dup7\n        /* \"#utility.yul\":19296:19302   */\n      dup3\n        /* \"#utility.yul\":19285:19294   */\n      dup8\n        /* \"#utility.yul\":19281:19303   */\n      add\n        /* \"#utility.yul\":19260:19313   */\n      tag_591\n      jump\t// in\n    tag_874:\n        /* \"#utility.yul\":19250:19313   */\n      swap3\n      pop\n        /* \"#utility.yul\":19205:19323   */\n      pop\n        /* \"#utility.yul\":19362:19364   */\n      0x40\n        /* \"#utility.yul\":19388:19441   */\n      tag_875\n        /* \"#utility.yul\":19433:19440   */\n      dup7\n        /* \"#utility.yul\":19424:19430   */\n      dup3\n        /* \"#utility.yul\":19413:19422   */\n      dup8\n        /* \"#utility.yul\":19409:19431   */\n      add\n        /* \"#utility.yul\":19388:19441   */\n      tag_591\n      jump\t// in\n    tag_875:\n        /* \"#utility.yul\":19378:19441   */\n      swap2\n      pop\n        /* \"#utility.yul\":19333:19451   */\n      pop\n        /* \"#utility.yul\":18839:19458   */\n      swap3\n      pop\n      swap3\n      pop\n      swap3\n      jump\t// out\n        /* \"#utility.yul\":19464:19554   */\n    tag_638:\n        /* \"#utility.yul\":19498:19505   */\n      0x00\n        /* \"#utility.yul\":19541:19546   */\n      dup2\n        /* \"#utility.yul\":19534:19547   */\n      iszero\n        /* \"#utility.yul\":19527:19548   */\n      iszero\n        /* \"#utility.yul\":19516:19548   */\n      swap1\n      pop\n        /* \"#utility.yul\":19464:19554   */\n      swap2\n      swap1\n      pop\n      jump\t// out\n        /* \"#utility.yul\":19560:19669   */\n    tag_639:\n        /* \"#utility.yul\":19641:19662   */\n      tag_878\n        /* \"#utility.yul\":19656:19661   */\n      dup2\n        /* \"#utility.yul\":19641:19662   */\n      tag_638\n      jump\t// in\n    tag_878:\n        /* \"#utility.yul\":19636:19639   */\n      dup3\n        /* \"#utility.yul\":19629:19663   */\n      mstore\n        /* \"#utility.yul\":19560:19669   */\n      pop\n      pop\n      jump\t// out\n        /* \"#utility.yul\":19675:19885   */\n    tag_103:\n        /* \"#utility.yul\":19762:19766   */\n      0x00\n        /* \"#utility.yul\":19800:19802   */\n      0x20\n        /* \"#utility.yul\":19789:19798   */\n      dup3\n        /* \"#utility.yul\":19785:19803   */\n      add\n        /* \"#utility.yul\":19777:19803   */\n      swap1\n      pop\n        /* \"#utility.yul\":19813:19878   */\n      tag_880\n        /* \"#utility.yul\":19875:19876   */\n      0x00\n        /* \"#utility.yul\":19864:19873   */\n      dup4\n        /* \"#utility.yul\":19860:19877   */\n      add\n        /* \"#utility.yul\":19851:19857   */\n      dup5\n        /* \"#utility.yul\":19813:19878   */\n      tag_639\n      jump\t// in\n    tag_880:\n        /* \"#utility.yul\":19675:19885   */\n      swap3\n      swap2\n      pop\n      pop\n      jump\t// out\n        /* \"#utility.yul\":19891:20007   */\n    tag_640:\n        /* \"#utility.yul\":19961:19982   */\n      tag_882\n        /* \"#utility.yul\":19976:19981   */\n      dup2\n        /* \"#utility.yul\":19961:19982   */\n      tag_638\n      jump\t// in\n    tag_882:\n        /* \"#utility.yul\":19954:19959   */\n      dup2\n        /* \"#utility.yul\":19951:19983   */\n      eq\n        /* \"#utility.yul\":19941:20001   */\n      tag_883\n      jumpi\n        /* \"#utility.yul\":19997:19998   */\n      0x00\n        /* \"#utility.yul\":19994:19995   */\n      dup1\n        /* \"#utility.yul\":19987:19999   */\n      revert\n        /* \"#utility.yul\":19941:20001   */\n    tag_883:\n        /* \"#utility.yul\":19891:20007   */\n      pop\n      jump\t// out\n        /* \"#utility.yul\":20013:20146   */\n    tag_641:\n        /* \"#utility.yul\":20056:20061   */\n      0x00\n        /* \"#utility.yul\":20094:20100   */\n      dup2\n        /* \"#utility.yul\":20081:20101   */\n      calldataload\n        /* \"#utility.yul\":20072:20101   */\n      swap1\n      pop\n        /* \"#utility.yul\":20110:20140   */\n      tag_885\n        /* \"#utility.yul\":20134:20139   */\n      dup2\n        /* \"#utility.yul\":20110:20140   */\n      tag_640\n      jump\t// in\n    tag_885:\n        /* \"#utility.yul\":20013:20146   */\n      swap3\n      swap2\n      pop\n      pop\n      jump\t// out\n        /* \"#utility.yul\":20152:20620   */\n    tag_107:\n        /* \"#utility.yul\":20217:20223   */\n      0x00\n        /* \"#utility.yul\":20225:20231   */\n      dup1\n        /* \"#utility.yul\":20274:20276   */\n      0x40\n        /* \"#utility.yul\":20262:20271   */\n      dup4\n        /* \"#utility.yul\":20253:20260   */\n      dup6\n        /* \"#utility.yul\":20249:20272   */\n      sub\n        /* \"#utility.yul\":20245:20277   */\n      slt\n        /* \"#utility.yul\":20242:20361   */\n      iszero\n      tag_887\n      jumpi\n        /* \"#utility.yul\":20280:20359   */\n      tag_888\n      tag_587\n      jump\t// in\n    tag_888:\n        /* \"#utility.yul\":20242:20361   */\n    tag_887:\n        /* \"#utility.yul\":20400:20401   */\n      0x00\n        /* \"#utility.yul\":20425:20475   */\n      tag_889\n        /* \"#utility.yul\":20467:20474   */\n      dup6\n        /* \"#utility.yul\":20458:20464   */\n      dup3\n        /* \"#utility.yul\":20447:20456   */\n      dup7\n        /* \"#utility.yul\":20443:20465   */\n      add\n        /* \"#utility.yul\":20425:20475   */\n      tag_641\n      jump\t// in\n    tag_889:\n        /* \"#utility.yul\":20415:20475   */\n      swap3\n      pop\n        /* \"#utility.yul\":20371:20485   */\n      pop\n        /* \"#utility.yul\":20524:20526   */\n      0x20\n        /* \"#utility.yul\":20550:20603   */\n      tag_890\n        /* \"#utility.yul\":20595:20602   */\n      dup6\n        /* \"#utility.yul\":20586:20592   */\n      dup3\n        /* \"#utility.yul\":20575:20584   */\n      dup7\n        /* \"#utility.yul\":20571:20593   */\n      add\n        /* \"#utility.yul\":20550:20603   */\n      tag_591\n      jump\t// in\n    tag_890:\n        /* \"#utility.yul\":20540:20603   */\n      swap2\n      pop\n        /* \"#utility.yul\":20495:20613   */\n      pop\n        /* \"#utility.yul\":20152:20620   */\n      swap3\n      pop\n      swap3\n      swap1\n      pop\n      jump\t// out\n        /* \"#utility.yul\":20626:20848   */\n    tag_114:\n        /* \"#utility.yul\":20719:20723   */\n      0x00\n        /* \"#utility.yul\":20757:20759   */\n      0x20\n        /* \"#utility.yul\":20746:20755   */\n      dup3\n        /* \"#utility.yul\":20742:20760   */\n      add\n        /* \"#utility.yul\":20734:20760   */\n      swap1\n      pop\n        /* \"#utility.yul\":20770:20841   */\n      tag_892\n        /* \"#utility.yul\":20838:20839   */\n      0x00\n        /* \"#utility.yul\":20827:20836   */\n      dup4\n        /* \"#utility.yul\":20823:20840   */\n      add\n        /* \"#utility.yul\":20814:20820   */\n      dup5\n        /* \"#utility.yul\":20770:20841   */\n      tag_621\n      jump\t// in\n    tag_892:\n        /* \"#utility.yul\":20626:20848   */\n      swap3\n      swap2\n      pop\n      pop\n      jump\t// out\n        /* \"#utility.yul\":20854:21965   */\n    tag_118:\n        /* \"#utility.yul\":20961:20967   */\n      0x00\n        /* \"#utility.yul\":20969:20975   */\n      dup1\n        /* \"#utility.yul\":20977:20983   */\n      0x00\n        /* \"#utility.yul\":20985:20991   */\n      dup1\n        /* \"#utility.yul\":20993:20999   */\n      0x00\n        /* \"#utility.yul\":21001:21007   */\n      dup1\n        /* \"#utility.yul\":21050:21053   */\n      0xa0\n        /* \"#utility.yul\":21038:21047   */\n      dup8\n        /* \"#utility.yul\":21029:21036   */\n      dup10\n        /* \"#utility.yul\":21025:21048   */\n      sub\n        /* \"#utility.yul\":21021:21054   */\n      slt\n        /* \"#utility.yul\":21018:21138   */\n      iszero\n      tag_894\n      jumpi\n        /* \"#utility.yul\":21057:21136   */\n      tag_895\n      tag_587\n      jump\t// in\n    tag_895:\n        /* \"#utility.yul\":21018:21138   */\n    tag_894:\n        /* \"#utility.yul\":21177:21178   */\n      0x00\n        /* \"#utility.yul\":21202:21255   */\n      tag_896\n        /* \"#utility.yul\":21247:21254   */\n      dup10\n        /* \"#utility.yul\":21238:21244   */\n      dup3\n        /* \"#utility.yul\":21227:21236   */\n      dup11\n        /* \"#utility.yul\":21223:21245   */\n      add\n        /* \"#utility.yul\":21202:21255   */\n      tag_591\n      jump\t// in\n    tag_896:\n        /* \"#utility.yul\":21192:21255   */\n      swap7\n      pop\n        /* \"#utility.yul\":21148:21265   */\n      pop\n        /* \"#utility.yul\":21304:21306   */\n      0x20\n        /* \"#utility.yul\":21330:21383   */\n      tag_897\n        /* \"#utility.yul\":21375:21382   */\n      dup10\n        /* \"#utility.yul\":21366:21372   */\n      dup3\n        /* \"#utility.yul\":21355:21364   */\n      dup11\n        /* \"#utility.yul\":21351:21373   */\n      add\n        /* \"#utility.yul\":21330:21383   */\n      tag_591\n      jump\t// in\n    tag_897:\n        /* \"#utility.yul\":21320:21383   */\n      swap6\n      pop\n        /* \"#utility.yul\":21275:21393   */\n      pop\n        /* \"#utility.yul\":21460:21462   */\n      0x40\n        /* \"#utility.yul\":21449:21458   */\n      dup8\n        /* \"#utility.yul\":21445:21463   */\n      add\n        /* \"#utility.yul\":21432:21464   */\n      calldataload\n        /* \"#utility.yul\":21491:21509   */\n      0xffffffffffffffff\n        /* \"#utility.yul\":21483:21489   */\n      dup2\n        /* \"#utility.yul\":21480:21510   */\n      gt\n        /* \"#utility.yul\":21477:21594   */\n      iszero\n      tag_898\n      jumpi\n        /* \"#utility.yul\":21513:21592   */\n      tag_899\n      tag_588\n      jump\t// in\n    tag_899:\n        /* \"#utility.yul\":21477:21594   */\n    tag_898:\n        /* \"#utility.yul\":21626:21691   */\n      tag_900\n        /* \"#utility.yul\":21683:21690   */\n      dup10\n        /* \"#utility.yul\":21674:21680   */\n      dup3\n        /* \"#utility.yul\":21663:21672   */\n      dup11\n        /* \"#utility.yul\":21659:21681   */\n      add\n        /* \"#utility.yul\":21626:21691   */\n      tag_595\n      jump\t// in\n    tag_900:\n        /* \"#utility.yul\":21608:21691   */\n      swap5\n      pop\n      swap5\n      pop\n        /* \"#utility.yul\":21403:21701   */\n      pop\n        /* \"#utility.yul\":21740:21742   */\n      0x60\n        /* \"#utility.yul\":21766:21819   */\n      tag_901\n        /* \"#utility.yul\":21811:21818   */\n      dup10\n        /* \"#utility.yul\":21802:21808   */\n      dup3\n        /* \"#utility.yul\":21791:21800   */\n      dup11\n        /* \"#utility.yul\":21787:21809   */\n      add\n        /* \"#utility.yul\":21766:21819   */\n      tag_591\n      jump\t// in\n    tag_901:\n        /* \"#utility.yul\":21756:21819   */\n      swap3\n      pop\n        /* \"#utility.yul\":21711:21829   */\n      pop\n        /* \"#utility.yul\":21868:21871   */\n      0x80\n        /* \"#utility.yul\":21895:21948   */\n      tag_902\n        /* \"#utility.yul\":21940:21947   */\n      dup10\n        /* \"#utility.yul\":21931:21937   */\n      dup3\n        /* \"#utility.yul\":21920:21929   */\n      dup11\n        /* \"#utility.yul\":21916:21938   */\n      add\n        /* \"#utility.yul\":21895:21948   */\n      tag_599\n      jump\t// in\n    tag_902:\n        /* \"#utility.yul\":21885:21948   */\n      swap2\n      pop\n        /* \"#utility.yul\":21839:21958   */\n      pop\n        /* \"#utility.yul\":20854:21965   */\n      swap3\n      swap6\n      pop\n      swap3\n      swap6\n      pop\n      swap3\n      swap6\n      jump\t// out\n        /* \"#utility.yul\":21971:22193   */\n    tag_124:\n        /* \"#utility.yul\":22064:22068   */\n      0x00\n        /* \"#utility.yul\":22102:22104   */\n      0x20\n        /* \"#utility.yul\":22091:22100   */\n      dup3\n        /* \"#utility.yul\":22087:22105   */\n      add\n        /* \"#utility.yul\":22079:22105   */\n      swap1\n      pop\n        /* \"#utility.yul\":22115:22186   */\n      tag_904\n        /* \"#utility.yul\":22183:22184   */\n      0x00\n        /* \"#utility.yul\":22172:22181   */\n      dup4\n        /* \"#utility.yul\":22168:22185   */\n      add\n        /* \"#utility.yul\":22159:22165   */\n      dup5\n        /* \"#utility.yul\":22115:22186   */\n      tag_614\n      jump\t// in\n    tag_904:\n        /* \"#utility.yul\":21971:22193   */\n      swap3\n      swap2\n      pop\n      pop\n      jump\t// out\n        /* \"#utility.yul\":22199:23144   */\n    tag_127:\n        /* \"#utility.yul\":22295:22301   */\n      0x00\n        /* \"#utility.yul\":22303:22309   */\n      dup1\n        /* \"#utility.yul\":22311:22317   */\n      0x00\n        /* \"#utility.yul\":22319:22325   */\n      dup1\n        /* \"#utility.yul\":22368:22371   */\n      0x80\n        /* \"#utility.yul\":22356:22365   */\n      dup6\n        /* \"#utility.yul\":22347:22354   */\n      dup8\n        /* \"#utility.yul\":22343:22366   */\n      sub\n        /* \"#utility.yul\":22339:22372   */\n      slt\n        /* \"#utility.yul\":22336:22456   */\n      iszero\n      tag_906\n      jumpi\n        /* \"#utility.yul\":22375:22454   */\n      tag_907\n      tag_587\n      jump\t// in\n    tag_907:\n        /* \"#utility.yul\":22336:22456   */\n    tag_906:\n        /* \"#utility.yul\":22495:22496   */\n      0x00\n        /* \"#utility.yul\":22520:22573   */\n      tag_908\n        /* \"#utility.yul\":22565:22572   */\n      dup8\n        /* \"#utility.yul\":22556:22562   */\n      dup3\n        /* \"#utility.yul\":22545:22554   */\n      dup9\n        /* \"#utility.yul\":22541:22563   */\n      add\n        /* \"#utility.yul\":22520:22573   */\n      tag_599\n      jump\t// in\n    tag_908:\n        /* \"#utility.yul\":22510:22573   */\n      swap5\n      pop\n        /* \"#utility.yul\":22466:22583   */\n      pop\n        /* \"#utility.yul\":22622:22624   */\n      0x20\n        /* \"#utility.yul\":22648:22701   */\n      tag_909\n        /* \"#utility.yul\":22693:22700   */\n      dup8\n        /* \"#utility.yul\":22684:22690   */\n      dup3\n        /* \"#utility.yul\":22673:22682   */\n      dup9\n        /* \"#utility.yul\":22669:22691   */\n      add\n        /* \"#utility.yul\":22648:22701   */\n      tag_591\n      jump\t// in\n    tag_909:\n        /* \"#utility.yul\":22638:22701   */\n      swap4\n      pop\n        /* \"#utility.yul\":22593:22711   */\n      pop\n        /* \"#utility.yul\":22750:22752   */\n      0x40\n        /* \"#utility.yul\":22776:22829   */\n      tag_910\n        /* \"#utility.yul\":22821:22828   */\n      dup8\n        /* \"#utility.yul\":22812:22818   */\n      dup3\n        /* \"#utility.yul\":22801:22810   */\n      dup9\n        /* \"#utility.yul\":22797:22819   */\n      add\n        /* \"#utility.yul\":22776:22829   */\n      tag_591\n      jump\t// in\n    tag_910:\n        /* \"#utility.yul\":22766:22829   */\n      swap3\n      pop\n        /* \"#utility.yul\":22721:22839   */\n      pop\n        /* \"#utility.yul\":22906:22908   */\n      0x60\n        /* \"#utility.yul\":22895:22904   */\n      dup6\n        /* \"#utility.yul\":22891:22909   */\n      add\n        /* \"#utility.yul\":22878:22910   */\n      calldataload\n        /* \"#utility.yul\":22937:22955   */\n      0xffffffffffffffff\n        /* \"#utility.yul\":22929:22935   */\n      dup2\n        /* \"#utility.yul\":22926:22956   */\n      gt\n        /* \"#utility.yul\":22923:23040   */\n      iszero\n      tag_911\n      jumpi\n        /* \"#utility.yul\":22959:23038   */\n      tag_912\n      tag_588\n      jump\t// in\n    tag_912:\n        /* \"#utility.yul\":22923:23040   */\n    tag_911:\n        /* \"#utility.yul\":23064:23127   */\n      tag_913\n        /* \"#utility.yul\":23119:23126   */\n      dup8\n        /* \"#utility.yul\":23110:23116   */\n      dup3\n        /* \"#utility.yul\":23099:23108   */\n      dup9\n        /* \"#utility.yul\":23095:23117   */\n      add\n        /* \"#utility.yul\":23064:23127   */\n      tag_635\n      jump\t// in\n    tag_913:\n        /* \"#utility.yul\":23054:23127   */\n      swap2\n      pop\n        /* \"#utility.yul\":22849:23137   */\n      pop\n        /* \"#utility.yul\":22199:23144   */\n      swap3\n      swap6\n      swap2\n      swap5\n      pop\n      swap3\n      pop\n      jump\t// out\n        /* \"#utility.yul\":23150:23804   */\n    tag_132:\n        /* \"#utility.yul\":23228:23234   */\n      0x00\n        /* \"#utility.yul\":23236:23242   */\n      dup1\n        /* \"#utility.yul\":23285:23287   */\n      0x40\n        /* \"#utility.yul\":23273:23282   */\n      dup4\n        /* \"#utility.yul\":23264:23271   */\n      dup6\n        /* \"#utility.yul\":23260:23283   */\n      sub\n        /* \"#utility.yul\":23256:23288   */\n      slt\n        /* \"#utility.yul\":23253:23372   */\n      iszero\n      tag_915\n      jumpi\n        /* \"#utility.yul\":23291:23370   */\n      tag_916\n      tag_587\n      jump\t// in\n    tag_916:\n        /* \"#utility.yul\":23253:23372   */\n    tag_915:\n        /* \"#utility.yul\":23439:23440   */\n      0x00\n        /* \"#utility.yul\":23428:23437   */\n      dup4\n        /* \"#utility.yul\":23424:23441   */\n      add\n        /* \"#utility.yul\":23411:23442   */\n      calldataload\n        /* \"#utility.yul\":23469:23487   */\n      0xffffffffffffffff\n        /* \"#utility.yul\":23461:23467   */\n      dup2\n        /* \"#utility.yul\":23458:23488   */\n      gt\n        /* \"#utility.yul\":23455:23572   */\n      iszero\n      tag_917\n      jumpi\n        /* \"#utility.yul\":23491:23570   */\n      tag_918\n      tag_588\n      jump\t// in\n    tag_918:\n        /* \"#utility.yul\":23455:23572   */\n    tag_917:\n        /* \"#utility.yul\":23596:23659   */\n      tag_919\n        /* \"#utility.yul\":23651:23658   */\n      dup6\n        /* \"#utility.yul\":23642:23648   */\n      dup3\n        /* \"#utility.yul\":23631:23640   */\n      dup7\n        /* \"#utility.yul\":23627:23649   */\n      add\n        /* \"#utility.yul\":23596:23659   */\n      tag_635\n      jump\t// in\n    tag_919:\n        /* \"#utility.yul\":23586:23659   */\n      swap3\n      pop\n        /* \"#utility.yul\":23382:23669   */\n      pop\n        /* \"#utility.yul\":23708:23710   */\n      0x20\n        /* \"#utility.yul\":23734:23787   */\n      tag_920\n        /* \"#utility.yul\":23779:23786   */\n      dup6\n        /* \"#utility.yul\":23770:23776   */\n      dup3\n        /* \"#utility.yul\":23759:23768   */\n      dup7\n        /* \"#utility.yul\":23755:23777   */\n      add\n        /* \"#utility.yul\":23734:23787   */\n      tag_599\n      jump\t// in\n    tag_920:\n        /* \"#utility.yul\":23724:23787   */\n      swap2\n      pop\n        /* \"#utility.yul\":23679:23797   */\n      pop\n        /* \"#utility.yul\":23150:23804   */\n      swap3\n      pop\n      swap3\n      swap1\n      pop\n      jump\t// out\n        /* \"#utility.yul\":23810:24755   */\n    tag_139:\n        /* \"#utility.yul\":24079:24083   */\n      0x00\n        /* \"#utility.yul\":24117:24120   */\n      0xa0\n        /* \"#utility.yul\":24106:24115   */\n      dup3\n        /* \"#utility.yul\":24102:24121   */\n      add\n        /* \"#utility.yul\":24094:24121   */\n      swap1\n      pop\n        /* \"#utility.yul\":24167:24176   */\n      dup2\n        /* \"#utility.yul\":24161:24165   */\n      dup2\n        /* \"#utility.yul\":24157:24177   */\n      sub\n        /* \"#utility.yul\":24153:24154   */\n      0x00\n        /* \"#utility.yul\":24142:24151   */\n      dup4\n        /* \"#utility.yul\":24138:24155   */\n      add\n        /* \"#utility.yul\":24131:24178   */\n      mstore\n        /* \"#utility.yul\":24195:24273   */\n      tag_922\n        /* \"#utility.yul\":24268:24272   */\n      dup2\n        /* \"#utility.yul\":24259:24265   */\n      dup9\n        /* \"#utility.yul\":24195:24273   */\n      tag_620\n      jump\t// in\n    tag_922:\n        /* \"#utility.yul\":24187:24273   */\n      swap1\n      pop\n        /* \"#utility.yul\":24320:24329   */\n      dup2\n        /* \"#utility.yul\":24314:24318   */\n      dup2\n        /* \"#utility.yul\":24310:24330   */\n      sub\n        /* \"#utility.yul\":24305:24307   */\n      0x20\n        /* \"#utility.yul\":24294:24303   */\n      dup4\n        /* \"#utility.yul\":24290:24308   */\n      add\n        /* \"#utility.yul\":24283:24331   */\n      mstore\n        /* \"#utility.yul\":24348:24426   */\n      tag_923\n        /* \"#utility.yul\":24421:24425   */\n      dup2\n        /* \"#utility.yul\":24412:24418   */\n      dup8\n        /* \"#utility.yul\":24348:24426   */\n      tag_620\n      jump\t// in\n    tag_923:\n        /* \"#utility.yul\":24340:24426   */\n      swap1\n      pop\n        /* \"#utility.yul\":24473:24482   */\n      dup2\n        /* \"#utility.yul\":24467:24471   */\n      dup2\n        /* \"#utility.yul\":24463:24483   */\n      sub\n        /* \"#utility.yul\":24458:24460   */\n      0x40\n        /* \"#utility.yul\":24447:24456   */\n      dup4\n        /* \"#utility.yul\":24443:24461   */\n      add\n        /* \"#utility.yul\":24436:24484   */\n      mstore\n        /* \"#utility.yul\":24501:24579   */\n      tag_924\n        /* \"#utility.yul\":24574:24578   */\n      dup2\n        /* \"#utility.yul\":24565:24571   */\n      dup7\n        /* \"#utility.yul\":24501:24579   */\n      tag_620\n      jump\t// in\n    tag_924:\n        /* \"#utility.yul\":24493:24579   */\n      swap1\n      pop\n        /* \"#utility.yul\":24589:24665   */\n      tag_925\n        /* \"#utility.yul\":24661:24663   */\n      0x60\n        /* \"#utility.yul\":24650:24659   */\n      dup4\n        /* \"#utility.yul\":24646:24664   */\n      add\n        /* \"#utility.yul\":24637:24643   */\n      dup6\n        /* \"#utility.yul\":24589:24665   */\n      tag_625\n      jump\t// in\n    tag_925:\n        /* \"#utility.yul\":24675:24748   */\n      tag_926\n        /* \"#utility.yul\":24743:24746   */\n      0x80\n        /* \"#utility.yul\":24732:24741   */\n      dup4\n        /* \"#utility.yul\":24728:24747   */\n      add\n        /* \"#utility.yul\":24719:24725   */\n      dup5\n        /* \"#utility.yul\":24675:24748   */\n      tag_621\n      jump\t// in\n    tag_926:\n        /* \"#utility.yul\":23810:24755   */\n      swap7\n      swap6\n      pop\n      pop\n      pop\n      pop\n      pop\n      pop\n      jump\t// out\n        /* \"#utility.yul\":24761:26246   */\n    tag_143:\n        /* \"#utility.yul\":24887:24893   */\n      0x00\n        /* \"#utility.yul\":24895:24901   */\n      dup1\n        /* \"#utility.yul\":24903:24909   */\n      0x00\n        /* \"#utility.yul\":24911:24917   */\n      dup1\n        /* \"#utility.yul\":24960:24963   */\n      0x80\n        /* \"#utility.yul\":24948:24957   */\n      dup6\n        /* \"#utility.yul\":24939:24946   */\n      dup8\n        /* \"#utility.yul\":24935:24958   */\n      sub\n        /* \"#utility.yul\":24931:24964   */\n      slt\n        /* \"#utility.yul\":24928:25048   */\n      iszero\n      tag_928\n      jumpi\n        /* \"#utility.yul\":24967:25046   */\n      tag_929\n      tag_587\n      jump\t// in\n    tag_929:\n        /* \"#utility.yul\":24928:25048   */\n    tag_928:\n        /* \"#utility.yul\":25115:25116   */\n      0x00\n        /* \"#utility.yul\":25104:25113   */\n      dup6\n        /* \"#utility.yul\":25100:25117   */\n      add\n        /* \"#utility.yul\":25087:25118   */\n      calldataload\n        /* \"#utility.yul\":25145:25163   */\n      0xffffffffffffffff\n        /* \"#utility.yul\":25137:25143   */\n      dup2\n        /* \"#utility.yul\":25134:25164   */\n      gt\n        /* \"#utility.yul\":25131:25248   */\n      iszero\n      tag_930\n      jumpi\n        /* \"#utility.yul\":25167:25246   */\n      tag_931\n      tag_588\n      jump\t// in\n    tag_931:\n        /* \"#utility.yul\":25131:25248   */\n    tag_930:\n        /* \"#utility.yul\":25272:25335   */\n      tag_932\n        /* \"#utility.yul\":25327:25334   */\n      dup8\n        /* \"#utility.yul\":25318:25324   */\n      dup3\n        /* \"#utility.yul\":25307:25316   */\n      dup9\n        /* \"#utility.yul\":25303:25325   */\n      add\n        /* \"#utility.yul\":25272:25335   */\n      tag_635\n      jump\t// in\n    tag_932:\n        /* \"#utility.yul\":25262:25335   */\n      swap5\n      pop\n        /* \"#utility.yul\":25058:25345   */\n      pop\n        /* \"#utility.yul\":25412:25414   */\n      0x20\n        /* \"#utility.yul\":25401:25410   */\n      dup6\n        /* \"#utility.yul\":25397:25415   */\n      add\n        /* \"#utility.yul\":25384:25416   */\n      calldataload\n        /* \"#utility.yul\":25443:25461   */\n      0xffffffffffffffff\n        /* \"#utility.yul\":25435:25441   */\n      dup2\n        /* \"#utility.yul\":25432:25462   */\n      gt\n        /* \"#utility.yul\":25429:25546   */\n      iszero\n      tag_933\n      jumpi\n        /* \"#utility.yul\":25465:25544   */\n      tag_934\n      tag_588\n      jump\t// in\n    tag_934:\n        /* \"#utility.yul\":25429:25546   */\n    tag_933:\n        /* \"#utility.yul\":25570:25633   */\n      tag_935\n        /* \"#utility.yul\":25625:25632   */\n      dup8\n        /* \"#utility.yul\":25616:25622   */\n      dup3\n        /* \"#utility.yul\":25605:25614   */\n      dup9\n        /* \"#utility.yul\":25601:25623   */\n      add\n        /* \"#utility.yul\":25570:25633   */\n      tag_635\n      jump\t// in\n    tag_935:\n        /* \"#utility.yul\":25560:25633   */\n      swap4\n      pop\n        /* \"#utility.yul\":25355:25643   */\n      pop\n        /* \"#utility.yul\":25710:25712   */\n      0x40\n        /* \"#utility.yul\":25699:25708   */\n      dup6\n        /* \"#utility.yul\":25695:25713   */\n      add\n        /* \"#utility.yul\":25682:25714   */\n      calldataload\n        /* \"#utility.yul\":25741:25759   */\n      0xffffffffffffffff\n        /* \"#utility.yul\":25733:25739   */\n      dup2\n        /* \"#utility.yul\":25730:25760   */\n      gt\n        /* \"#utility.yul\":25727:25844   */\n      iszero\n      tag_936\n      jumpi\n        /* \"#utility.yul\":25763:25842   */\n      tag_937\n      tag_588\n      jump\t// in\n    tag_937:\n        /* \"#utility.yul\":25727:25844   */\n    tag_936:\n        /* \"#utility.yul\":25868:25931   */\n      tag_938\n        /* \"#utility.yul\":25923:25930   */\n      dup8\n        /* \"#utility.yul\":25914:25920   */\n      dup3\n        /* \"#utility.yul\":25903:25912   */\n      dup9\n        /* \"#utility.yul\":25899:25921   */\n      add\n        /* \"#utility.yul\":25868:25931   */\n      tag_635\n      jump\t// in\n    tag_938:\n        /* \"#utility.yul\":25858:25931   */\n      swap3\n      pop\n        /* \"#utility.yul\":25653:25941   */\n      pop\n        /* \"#utility.yul\":26008:26010   */\n      0x60\n        /* \"#utility.yul\":25997:26006   */\n      dup6\n        /* \"#utility.yul\":25993:26011   */\n      add\n        /* \"#utility.yul\":25980:26012   */\n      calldataload\n        /* \"#utility.yul\":26039:26057   */\n      0xffffffffffffffff\n        /* \"#utility.yul\":26031:26037   */\n      dup2\n        /* \"#utility.yul\":26028:26058   */\n      gt\n        /* \"#utility.yul\":26025:26142   */\n      iszero\n      tag_939\n      jumpi\n        /* \"#utility.yul\":26061:26140   */\n      tag_940\n      tag_588\n      jump\t// in\n    tag_940:\n        /* \"#utility.yul\":26025:26142   */\n    tag_939:\n        /* \"#utility.yul\":26166:26229   */\n      tag_941\n        /* \"#utility.yul\":26221:26228   */\n      dup8\n        /* \"#utility.yul\":26212:26218   */\n      dup3\n        /* \"#utility.yul\":26201:26210   */\n      dup9\n        /* \"#utility.yul\":26197:26219   */\n      add\n        /* \"#utility.yul\":26166:26229   */\n      tag_635\n      jump\t// in\n    tag_941:\n        /* \"#utility.yul\":26156:26229   */\n      swap2\n      pop\n        /* \"#utility.yul\":25951:26239   */\n      pop\n        /* \"#utility.yul\":24761:26246   */\n      swap3\n      swap6\n      swap2\n      swap5\n      pop\n      swap3\n      pop\n      jump\t// out\n        /* \"#utility.yul\":26252:26720   */\n    tag_148:\n        /* \"#utility.yul\":26317:26323   */\n      0x00\n        /* \"#utility.yul\":26325:26331   */\n      dup1\n        /* \"#utility.yul\":26374:26376   */\n      0x40\n        /* \"#utility.yul\":26362:26371   */\n      dup4\n        /* \"#utility.yul\":26353:26360   */\n      dup6\n        /* \"#utility.yul\":26349:26372   */\n      sub\n        /* \"#utility.yul\":26345:26377   */\n      slt\n        /* \"#utility.yul\":26342:26461   */\n      iszero\n      tag_943\n      jumpi\n        /* \"#utility.yul\":26380:26459   */\n      tag_944\n      tag_587\n      jump\t// in\n    tag_944:\n        /* \"#utility.yul\":26342:26461   */\n    tag_943:\n        /* \"#utility.yul\":26500:26501   */\n      0x00\n        /* \"#utility.yul\":26525:26578   */\n      tag_945\n        /* \"#utility.yul\":26570:26577   */\n      dup6\n        /* \"#utility.yul\":26561:26567   */\n      dup3\n        /* \"#utility.yul\":26550:26559   */\n      dup7\n        /* \"#utility.yul\":26546:26568   */\n      add\n        /* \"#utility.yul\":26525:26578   */\n      tag_591\n      jump\t// in\n    tag_945:\n        /* \"#utility.yul\":26515:26578   */\n      swap3\n      pop\n        /* \"#utility.yul\":26471:26588   */\n      pop\n        /* \"#utility.yul\":26627:26629   */\n      0x20\n        /* \"#utility.yul\":26653:26703   */\n      tag_946\n        /* \"#utility.yul\":26695:26702   */\n      dup6\n        /* \"#utility.yul\":26686:26692   */\n      dup3\n        /* \"#utility.yul\":26675:26684   */\n      dup7\n        /* \"#utility.yul\":26671:26693   */\n      add\n        /* \"#utility.yul\":26653:26703   */\n      tag_641\n      jump\t// in\n    tag_946:\n        /* \"#utility.yul\":26643:26703   */\n      swap2\n      pop\n        /* \"#utility.yul\":26598:26713   */\n      pop\n        /* \"#utility.yul\":26252:26720   */\n      swap3\n      pop\n      swap3\n      swap1\n      pop\n      jump\t// out\n        /* \"#utility.yul\":26726:27235   */\n    tag_157:\n        /* \"#utility.yul\":26795:26801   */\n      0x00\n        /* \"#utility.yul\":26844:26846   */\n      0x20\n        /* \"#utility.yul\":26832:26841   */\n      dup3\n        /* \"#utility.yul\":26823:26830   */\n      dup5\n        /* \"#utility.yul\":26819:26842   */\n      sub\n        /* \"#utility.yul\":26815:26847   */\n      slt\n        /* \"#utility.yul\":26812:26931   */\n      iszero\n      tag_948\n      jumpi\n        /* \"#utility.yul\":26850:26929   */\n      tag_949\n      tag_587\n      jump\t// in\n    tag_949:\n        /* \"#utility.yul\":26812:26931   */\n    tag_948:\n        /* \"#utility.yul\":26998:26999   */\n      0x00\n        /* \"#utility.yul\":26987:26996   */\n      dup3\n        /* \"#utility.yul\":26983:27000   */\n      add\n        /* \"#utility.yul\":26970:27001   */\n      calldataload\n        /* \"#utility.yul\":27028:27046   */\n      0xffffffffffffffff\n        /* \"#utility.yul\":27020:27026   */\n      dup2\n        /* \"#utility.yul\":27017:27047   */\n      gt\n        /* \"#utility.yul\":27014:27131   */\n      iszero\n      tag_950\n      jumpi\n        /* \"#utility.yul\":27050:27129   */\n      tag_951\n      tag_588\n      jump\t// in\n    tag_951:\n        /* \"#utility.yul\":27014:27131   */\n    tag_950:\n        /* \"#utility.yul\":27155:27218   */\n      tag_952\n        /* \"#utility.yul\":27210:27217   */\n      dup5\n        /* \"#utility.yul\":27201:27207   */\n      dup3\n        /* \"#utility.yul\":27190:27199   */\n      dup6\n        /* \"#utility.yul\":27186:27208   */\n      add\n        /* \"#utility.yul\":27155:27218   */\n      tag_635\n      jump\t// in\n    tag_952:\n        /* \"#utility.yul\":27145:27218   */\n      swap2\n      pop\n        /* \"#utility.yul\":26941:27228   */\n      pop\n        /* \"#utility.yul\":26726:27235   */\n      swap3\n      swap2\n      pop\n      pop\n      jump\t// out\n        /* \"#utility.yul\":27241:27318   */\n    tag_642:\n        /* \"#utility.yul\":27278:27285   */\n      0x00\n        /* \"#utility.yul\":27307:27312   */\n      dup2\n        /* \"#utility.yul\":27296:27312   */\n      swap1\n      pop\n        /* \"#utility.yul\":27241:27318   */\n      swap2\n      swap1\n      pop\n      jump\t// out\n        /* \"#utility.yul\":27324:27442   */\n    tag_643:\n        /* \"#utility.yul\":27411:27435   */\n      tag_955\n        /* \"#utility.yul\":27429:27434   */\n      dup2\n        /* \"#utility.yul\":27411:27435   */\n      tag_642\n      jump\t// in\n    tag_955:\n        /* \"#utility.yul\":27406:27409   */\n      dup3\n        /* \"#utility.yul\":27399:27436   */\n      mstore\n        /* \"#utility.yul\":27324:27442   */\n      pop\n      pop\n      jump\t// out\n        /* \"#utility.yul\":27448:27670   */\n    tag_165:\n        /* \"#utility.yul\":27541:27545   */\n      0x00\n        /* \"#utility.yul\":27579:27581   */\n      0x20\n        /* \"#utility.yul\":27568:27577   */\n      dup3\n        /* \"#utility.yul\":27564:27582   */\n      add\n        /* \"#utility.yul\":27556:27582   */\n      swap1\n      pop\n        /* \"#utility.yul\":27592:27663   */\n      tag_957\n        /* \"#utility.yul\":27660:27661   */\n      0x00\n        /* \"#utility.yul\":27649:27658   */\n      dup4\n        /* \"#utility.yul\":27645:27662   */\n      add\n        /* \"#utility.yul\":27636:27642   */\n      dup5\n        /* \"#utility.yul\":27592:27663   */\n      tag_643\n      jump\t// in\n    tag_957:\n        /* \"#utility.yul\":27448:27670   */\n      swap3\n      swap2\n      pop\n      pop\n      jump\t// out\n        /* \"#utility.yul\":27676:28441   */\n    tag_174:\n        /* \"#utility.yul\":27762:27768   */\n      0x00\n        /* \"#utility.yul\":27770:27776   */\n      dup1\n        /* \"#utility.yul\":27778:27784   */\n      0x00\n        /* \"#utility.yul\":27786:27792   */\n      dup1\n        /* \"#utility.yul\":27835:27838   */\n      0x80\n        /* \"#utility.yul\":27823:27832   */\n      dup6\n        /* \"#utility.yul\":27814:27821   */\n      dup8\n        /* \"#utility.yul\":27810:27833   */\n      sub\n        /* \"#utility.yul\":27806:27839   */\n      slt\n        /* \"#utility.yul\":27803:27923   */\n      iszero\n      tag_959\n      jumpi\n        /* \"#utility.yul\":27842:27921   */\n      tag_960\n      tag_587\n      jump\t// in\n    tag_960:\n        /* \"#utility.yul\":27803:27923   */\n    tag_959:\n        /* \"#utility.yul\":27962:27963   */\n      0x00\n        /* \"#utility.yul\":27987:28040   */\n      tag_961\n        /* \"#utility.yul\":28032:28039   */\n      dup8\n        /* \"#utility.yul\":28023:28029   */\n      dup3\n        /* \"#utility.yul\":28012:28021   */\n      dup9\n        /* \"#utility.yul\":28008:28030   */\n      add\n        /* \"#utility.yul\":27987:28040   */\n      tag_599\n      jump\t// in\n    tag_961:\n        /* \"#utility.yul\":27977:28040   */\n      swap5\n      pop\n        /* \"#utility.yul\":27933:28050   */\n      pop\n        /* \"#utility.yul\":28089:28091   */\n      0x20\n        /* \"#utility.yul\":28115:28168   */\n      tag_962\n        /* \"#utility.yul\":28160:28167   */\n      dup8\n        /* \"#utility.yul\":28151:28157   */\n      dup3\n        /* \"#utility.yul\":28140:28149   */\n      dup9\n        /* \"#utility.yul\":28136:28158   */\n      add\n        /* \"#utility.yul\":28115:28168   */\n      tag_591\n      jump\t// in\n    tag_962:\n        /* \"#utility.yul\":28105:28168   */\n      swap4\n      pop\n        /* \"#utility.yul\":28060:28178   */\n      pop\n        /* \"#utility.yul\":28217:28219   */\n      0x40\n        /* \"#utility.yul\":28243:28296   */\n      tag_963\n        /* \"#utility.yul\":28288:28295   */\n      dup8\n        /* \"#utility.yul\":28279:28285   */\n      dup3\n        /* \"#utility.yul\":28268:28277   */\n      dup9\n        /* \"#utility.yul\":28264:28286   */\n      add\n        /* \"#utility.yul\":28243:28296   */\n      tag_591\n      jump\t// in\n    tag_963:\n        /* \"#utility.yul\":28233:28296   */\n      swap3\n      pop\n        /* \"#utility.yul\":28188:28306   */\n      pop\n        /* \"#utility.yul\":28345:28347   */\n      0x60\n        /* \"#utility.yul\":28371:28424   */\n      tag_964\n        /* \"#utility.yul\":28416:28423   */\n      dup8\n        /* \"#utility.yul\":28407:28413   */\n      dup3\n        /* \"#utility.yul\":28396:28405   */\n      dup9\n        /* \"#utility.yul\":28392:28414   */\n      add\n        /* \"#utility.yul\":28371:28424   */\n      tag_599\n      jump\t// in\n    tag_964:\n        /* \"#utility.yul\":28361:28424   */\n      swap2\n      pop\n        /* \"#utility.yul\":28316:28434   */\n      pop\n        /* \"#utility.yul\":27676:28441   */\n      swap3\n      swap6\n      swap2\n      swap5\n      pop\n      swap3\n      pop\n      jump\t// out\n        /* \"#utility.yul\":28447:28670   */\n    tag_644:\n        /* \"#utility.yul\":28587:28621   */\n      0x596f757220726f6c6520646f6573206e6f7420616c6c6f772074686973206368\n        /* \"#utility.yul\":28583:28584   */\n      0x00\n        /* \"#utility.yul\":28575:28581   */\n      dup3\n        /* \"#utility.yul\":28571:28585   */\n      add\n        /* \"#utility.yul\":28564:28622   */\n      mstore\n        /* \"#utility.yul\":28656:28662   */\n      0x616e676500000000000000000000000000000000000000000000000000000000\n        /* \"#utility.yul\":28651:28653   */\n      0x20\n        /* \"#utility.yul\":28643:28649   */\n      dup3\n        /* \"#utility.yul\":28639:28654   */\n      add\n        /* \"#utility.yul\":28632:28663   */\n      mstore\n        /* \"#utility.yul\":28447:28670   */\n      pop\n      jump\t// out\n        /* \"#utility.yul\":28676:29042   */\n    tag_645:\n        /* \"#utility.yul\":28818:28821   */\n      0x00\n        /* \"#utility.yul\":28839:28906   */\n      tag_967\n        /* \"#utility.yul\":28903:28905   */\n      0x24\n        /* \"#utility.yul\":28898:28901   */\n      dup4\n        /* \"#utility.yul\":28839:28906   */\n      tag_619\n      jump\t// in\n    tag_967:\n        /* \"#utility.yul\":28832:28906   */\n      swap2\n      pop\n        /* \"#utility.yul\":28915:29008   */\n      tag_968\n        /* \"#utility.yul\":29004:29007   */\n      dup3\n        /* \"#utility.yul\":28915:29008   */\n      tag_644\n      jump\t// in\n    tag_968:\n        /* \"#utility.yul\":29033:29035   */\n      0x40\n        /* \"#utility.yul\":29028:29031   */\n      dup3\n        /* \"#utility.yul\":29024:29036   */\n      add\n        /* \"#utility.yul\":29017:29036   */\n      swap1\n      pop\n        /* \"#utility.yul\":28676:29042   */\n      swap2\n      swap1\n      pop\n      jump\t// out\n        /* \"#utility.yul\":29048:29467   */\n    tag_184:\n        /* \"#utility.yul\":29214:29218   */\n      0x00\n        /* \"#utility.yul\":29252:29254   */\n      0x20\n        /* \"#utility.yul\":29241:29250   */\n      dup3\n        /* \"#utility.yul\":29237:29255   */\n      add\n        /* \"#utility.yul\":29229:29255   */\n      swap1\n      pop\n        /* \"#utility.yul\":29301:29310   */\n      dup2\n        /* \"#utility.yul\":29295:29299   */\n      dup2\n        /* \"#utility.yul\":29291:29311   */\n      sub\n        /* \"#utility.yul\":29287:29288   */\n      0x00\n        /* \"#utility.yul\":29276:29285   */\n      dup4\n        /* \"#utility.yul\":29272:29289   */\n      add\n        /* \"#utility.yul\":29265:29312   */\n      mstore\n        /* \"#utility.yul\":29329:29460   */\n      tag_970\n        /* \"#utility.yul\":29455:29459   */\n      dup2\n        /* \"#utility.yul\":29329:29460   */\n      tag_645\n      jump\t// in\n    tag_970:\n        /* \"#utility.yul\":29321:29460   */\n      swap1\n      pop\n        /* \"#utility.yul\":29048:29467   */\n      swap2\n      swap1\n      pop\n      jump\t// out\n        /* \"#utility.yul\":29473:29653   */\n    tag_646:\n        /* \"#utility.yul\":29521:29598   */\n      0x4e487b7100000000000000000000000000000000000000000000000000000000\n        /* \"#utility.yul\":29518:29519   */\n      0x00\n        /* \"#utility.yul\":29511:29599   */\n      mstore\n        /* \"#utility.yul\":29618:29622   */\n      0x22\n        /* \"#utility.yul\":29615:29616   */\n      0x04\n        /* \"#utility.yul\":29608:29623   */\n      mstore\n        /* \"#utility.yul\":29642:29646   */\n      0x24\n        /* \"#utility.yul\":29639:29640   */\n      0x00\n        /* \"#utility.yul\":29632:29647   */\n      revert\n        /* \"#utility.yul\":29659:29979   */\n    tag_194:\n        /* \"#utility.yul\":29703:29709   */\n      0x00\n        /* \"#utility.yul\":29740:29741   */\n      0x02\n        /* \"#utility.yul\":29734:29738   */\n      dup3\n        /* \"#utility.yul\":29730:29742   */\n      div\n        /* \"#utility.yul\":29720:29742   */\n      swap1\n      pop\n        /* \"#utility.yul\":29787:29788   */\n      0x01\n        /* \"#utility.yul\":29781:29785   */\n      dup3\n        /* \"#utility.yul\":29777:29789   */\n      and\n        /* \"#utility.yul\":29808:29826   */\n      dup1\n        /* \"#utility.yul\":29798:29879   */\n      tag_973\n      jumpi\n        /* \"#utility.yul\":29864:29868   */\n      0x7f\n        /* \"#utility.yul\":29856:29862   */\n      dup3\n        /* \"#utility.yul\":29852:29869   */\n      and\n        /* \"#utility.yul\":29842:29869   */\n      swap2\n      pop\n        /* \"#utility.yul\":29798:29879   */\n    tag_973:\n        /* \"#utility.yul\":29926:29928   */\n      0x20\n        /* \"#utility.yul\":29918:29924   */\n      dup3\n        /* \"#utility.yul\":29915:29929   */\n      lt\n        /* \"#utility.yul\":29895:29913   */\n      dup2\n        /* \"#utility.yul\":29892:29930   */\n      sub\n        /* \"#utility.yul\":29889:29973   */\n      tag_974\n      jumpi\n        /* \"#utility.yul\":29945:29963   */\n      tag_975\n      tag_646\n      jump\t// in\n    tag_975:\n        /* \"#utility.yul\":29889:29973   */\n    tag_974:\n        /* \"#utility.yul\":29710:29979   */\n      pop\n        /* \"#utility.yul\":29659:29979   */\n      swap2\n      swap1\n      pop\n      jump\t// out\n        /* \"#utility.yul\":29985:30126   */\n    tag_647:\n        /* \"#utility.yul\":30034:30038   */\n      0x00\n        /* \"#utility.yul\":30057:30060   */\n      dup2\n        /* \"#utility.yul\":30049:30060   */\n      swap1\n      pop\n        /* \"#utility.yul\":30080:30083   */\n      dup2\n        /* \"#utility.yul\":30077:30078   */\n      0x00\n        /* \"#utility.yul\":30070:30084   */\n      mstore\n        /* \"#utility.yul\":30114:30118   */\n      0x20\n        /* \"#utility.yul\":30111:30112   */\n      0x00\n        /* \"#utility.yul\":30101:30119   */\n      keccak256\n        /* \"#utility.yul\":30093:30119   */\n      swap1\n      pop\n        /* \"#utility.yul\":29985:30126   */\n      swap2\n      swap1\n      pop\n      jump\t// out\n        /* \"#utility.yul\":30132:30225   */\n    tag_648:\n        /* \"#utility.yul\":30169:30175   */\n      0x00\n        /* \"#utility.yul\":30216:30218   */\n      0x20\n        /* \"#utility.yul\":30211:30213   */\n      0x1f\n        /* \"#utility.yul\":30204:30209   */\n      dup4\n        /* \"#utility.yul\":30200:30214   */\n      add\n        /* \"#utility.yul\":30196:30219   */\n      div\n        /* \"#utility.yul\":30186:30219   */\n      swap1\n      pop\n        /* \"#utility.yul\":30132:30225   */\n      swap2\n      swap1\n      pop\n      jump\t// out\n        /* \"#utility.yul\":30231:30338   */\n    tag_649:\n        /* \"#utility.yul\":30275:30283   */\n      0x00\n        /* \"#utility.yul\":30325:30330   */\n      dup3\n        /* \"#utility.yul\":30319:30323   */\n      dup3\n        /* \"#utility.yul\":30315:30331   */\n      shl\n        /* \"#utility.yul\":30294:30331   */\n      swap1\n      pop\n        /* \"#utility.yul\":30231:30338   */\n      swap3\n      swap2\n      pop\n      pop\n      jump\t// out\n        /* \"#utility.yul\":30344:30737   */\n    tag_650:\n        /* \"#utility.yul\":30413:30419   */\n      0x00\n        /* \"#utility.yul\":30463:30464   */\n      0x08\n        /* \"#utility.yul\":30451:30461   */\n      dup4\n        /* \"#utility.yul\":30447:30465   */\n      mul\n        /* \"#utility.yul\":30486:30583   */\n      tag_980\n        /* \"#utility.yul\":30516:30582   */\n      0xffffffffffffffffffffffffffffffffffffffffffffffffffffffffffffffff\n        /* \"#utility.yul\":30505:30514   */\n      dup3\n        /* \"#utility.yul\":30486:30583   */\n      tag_649\n      jump\t// in\n    tag_980:\n        /* \"#utility.yul\":30604:30643   */\n      tag_981\n        /* \"#utility.yul\":30634:30642   */\n      dup7\n        /* \"#utility.yul\":30623:30632   */\n      dup4\n        /* \"#utility.yul\":30604:30643   */\n      tag_649\n      jump\t// in\n    tag_981:\n        /* \"#utility.yul\":30592:30643   */\n      swap6\n      pop\n        /* \"#utility.yul\":30676:30680   */\n      dup1\n        /* \"#utility.yul\":30672:30681   */\n      not\n        /* \"#utility.yul\":30665:30670   */\n      dup5\n        /* \"#utility.yul\":30661:30682   */\n      and\n        /* \"#utility.yul\":30652:30682   */\n      swap4\n      pop\n        /* \"#utility.yul\":30725:30729   */\n      dup1\n        /* \"#utility.yul\":30715:30723   */\n      dup7\n        /* \"#utility.yul\":30711:30730   */\n      and\n        /* \"#utility.yul\":30704:30709   */\n      dup5\n        /* \"#utility.yul\":30701:30731   */\n      or\n        /* \"#utility.yul\":30691:30731   */\n      swap3\n      pop\n        /* \"#utility.yul\":30420:30737   */\n      pop\n      pop\n        /* \"#utility.yul\":30344:30737   */\n      swap4\n      swap3\n      pop\n      pop\n      pop\n      jump\t// out\n        /* \"#utility.yul\":30743:30803   */\n    tag_651:\n        /* \"#utility.yul\":30771:30774   */\n      0x00\n        /* \"#utility.yul\":30792:30797   */\n      dup2\n        /* \"#utility.yul\":30785:30797   */\n      swap1\n      pop\n        /* \"#utility.yul\":30743:30803   */\n      swap2\n      swap1\n      pop\n      jump\t// out\n        /* \"#utility.yul\":30809:30951   */\n    tag_652:\n        /* \"#utility.yul\":30859:30868   */\n      0x00\n        /* \"#utility.yul\":30892:30945   */\n      tag_984\n        /* \"#utility.yul\":30910:30944   */\n      tag_985\n        /* \"#utility.yul\":30919:30943   */\n      tag_986\n        /* \"#utility.yul\":30937:30942   */\n      dup5\n        /* \"#utility.yul\":30919:30943   */\n      tag_589\n      jump\t// in\n    tag_986:\n        /* \"#utility.yul\":30910:30944   */\n      tag_651\n      jump\t// in\n    tag_985:\n        /* \"#utility.yul\":30892:30945   */\n      tag_589\n      jump\t// in\n    tag_984:\n        /* \"#utility.yul\":30879:30945   */\n      swap1\n      pop\n        /* \"#utility.yul\":30809:30951   */\n      swap2\n      swap1\n      pop\n      jump\t// out\n        /* \"#utility.yul\":30957:31032   */\n    tag_653:\n        /* \"#utility.yul\":31000:31003   */\n      0x00\n        /* \"#utility.yul\":31021:31026   */\n      dup2\n        /* \"#utility.yul\":31014:31026   */\n      swap1\n      pop\n        /* \"#utility.yul\":30957:31032   */\n      swap2\n      swap1\n      pop\n      jump\t// out\n        /* \"#utility.yul\":31038:31307   */\n    tag_654:\n        /* \"#utility.yul\":31148:31187   */\n      tag_989\n        /* \"#utility.yul\":31179:31186   */\n      dup4\n        /* \"#utility.yul\":31148:31187   */\n      tag_652\n      jump\t// in\n    tag_989:\n        /* \"#utility.yul\":31209:31300   */\n      tag_990\n        /* \"#utility.yul\":31258:31299   */\n      tag_991\n        /* \"#utility.yul\":31282:31298   */\n      dup3\n        /* \"#utility.yul\":31258:31299   */\n      tag_653\n      jump\t// in\n    tag_991:\n        /* \"#utility.yul\":31250:31256   */\n      dup5\n        /* \"#utility.yul\":31243:31247   */\n      dup5\n        /* \"#utility.yul\":31237:31248   */\n      sload\n        /* \"#utility.yul\":31209:31300   */\n      tag_650\n      jump\t// in\n    tag_990:\n        /* \"#utility.yul\":31203:31207   */\n      dup3\n        /* \"#utility.yul\":31196:31301   */\n      sstore\n        /* \"#utility.yul\":31114:31307   */\n      pop\n        /* \"#utility.yul\":31038:31307   */\n      pop\n      pop\n      pop\n      jump\t// out\n        /* \"#utility.yul\":31313:31386   */\n    tag_655:\n        /* \"#utility.yul\":31358:31361   */\n      0x00\n        /* \"#utility.yul\":31313:31386   */\n      swap1\n      jump\t// out\n        /* \"#utility.yul\":31392:31581   */\n    tag_656:\n        /* \"#utility.yul\":31469:31501   */\n      tag_994\n      tag_655\n      jump\t// in\n    tag_994:\n        /* \"#utility.yul\":31510:31575   */\n      tag_995\n        /* \"#utility.yul\":31568:31574   */\n      dup2\n        /* \"#utility.yul\":31560:31566   */\n      dup5\n        /* \"#utility.yul\":31554:31558   */\n      dup5\n        /* \"#utility.yul\":31510:31575   */\n      tag_654\n      jump\t// in\n    tag_995:\n        /* \"#utility.yul\":31445:31581   */\n      pop\n        /* \"#utility.yul\":31392:31581   */\n      pop\n      pop\n      jump\t// out\n        /* \"#utility.yul\":31587:31773   */\n    tag_657:\n        /* \"#utility.yul\":31647:31767   */\n    tag_997:\n        /* \"#utility.yul\":31664:31667   */\n      dup2\n        /* \"#utility.yul\":31657:31662   */\n      dup2\n        /* \"#utility.yul\":31654:31668   */\n      lt\n        /* \"#utility.yul\":31647:31767   */\n      iszero\n      tag_999\n      jumpi\n        /* \"#utility.yul\":31718:31757   */\n      tag_1000\n        /* \"#utility.yul\":31755:31756   */\n      0x00\n        /* \"#utility.yul\":31748:31753   */\n      dup3\n        /* \"#utility.yul\":31718:31757   */\n      tag_656\n      jump\t// in\n    tag_1000:\n        /* \"#utility.yul\":31691:31692   */\n      0x01\n        /* \"#utility.yul\":31684:31689   */\n      dup2\n        /* \"#utility.yul\":31680:31693   */\n      add\n        /* \"#utility.yul\":31671:31693   */\n      swap1\n      pop\n        /* \"#utility.yul\":31647:31767   */\n      jump(tag_997)\n    tag_999:\n        /* \"#utility.yul\":31587:31773   */\n      pop\n      pop\n      jump\t// out\n        /* \"#utility.yul\":31779:32322   */\n    tag_658:\n        /* \"#utility.yul\":31880:31882   */\n      0x1f\n        /* \"#utility.yul\":31875:31878   */\n      dup3\n        /* \"#utility.yul\":31872:31883   */\n      gt\n        /* \"#utility.yul\":31869:32315   */\n      iszero\n      tag_1002\n      jumpi\n        /* \"#utility.yul\":31914:31952   */\n      tag_1003\n        /* \"#utility.yul\":31946:31951   */\n      dup2\n        /* \"#utility.yul\":31914:31952   */\n      tag_647\n      jump\t// in\n    tag_1003:\n        /* \"#utility.yul\":31998:32027   */\n      tag_1004\n        /* \"#utility.yul\":32016:32026   */\n      dup5\n        /* \"#utility.yul\":31998:32027   */\n      tag_648\n      jump\t// in\n    tag_1004:\n        /* \"#utility.yul\":31988:31996   */\n      dup2\n        /* \"#utility.yul\":31984:32028   */\n      add\n        /* \"#utility.yul\":32181:32183   */\n      0x20\n        /* \"#utility.yul\":32169:32179   */\n      dup6\n        /* \"#utility.yul\":32166:32184   */\n      lt\n        /* \"#utility.yul\":32163:32212   */\n      iszero\n      tag_1005\n      jumpi\n        /* \"#utility.yul\":32202:32210   */\n      dup2\n        /* \"#utility.yul\":32187:32210   */\n      swap1\n      pop\n        /* \"#utility.yul\":32163:32212   */\n    tag_1005:\n        /* \"#utility.yul\":32225:32305   */\n      tag_1006\n        /* \"#utility.yul\":32281:32303   */\n      tag_1007\n        /* \"#utility.yul\":32299:32302   */\n      dup6\n        /* \"#utility.yul\":32281:32303   */\n      tag_648\n      jump\t// in\n    tag_1007:\n        /* \"#utility.yul\":32271:32279   */\n      dup4\n        /* \"#utility.yul\":32267:32304   */\n      add\n        /* \"#utility.yul\":32254:32265   */\n      dup3\n        /* \"#utility.yul\":32225:32305   */\n      tag_657\n      jump\t// in\n    tag_1006:\n        /* \"#utility.yul\":31884:32315   */\n      pop\n      pop\n        /* \"#utility.yul\":31869:32315   */\n    tag_1002:\n        /* \"#utility.yul\":31779:32322   */\n      pop\n      pop\n      pop\n      jump\t// out\n        /* \"#utility.yul\":32328:32445   */\n    tag_659:\n        /* \"#utility.yul\":32382:32390   */\n      0x00\n        /* \"#utility.yul\":32432:32437   */\n      dup3\n        /* \"#utility.yul\":32426:32430   */\n      dup3\n        /* \"#utility.yul\":32422:32438   */\n      shr\n        /* \"#utility.yul\":32401:32438   */\n      swap1\n      pop\n        /* \"#utility.yul\":32328:32445   */\n      swap3\n      swap2\n      pop\n      pop\n      jump\t// out\n        /* \"#utility.yul\":32451:32620   */\n    tag_660:\n        /* \"#utility.yul\":32495:32501   */\n      0x00\n        /* \"#utility.yul\":32528:32579   */\n      tag_1010\n        /* \"#utility.yul\":32576:32577   */\n      0x00\n        /* \"#utility.yul\":32572:32578   */\n      not\n        /* \"#utility.yul\":32564:32569   */\n      dup5\n        /* \"#utility.yul\":32561:32562   */\n      0x08\n        /* \"#utility.yul\":32557:32570   */\n      mul\n        /* \"#utility.yul\":32528:32579   */\n      tag_659\n      jump\t// in\n    tag_1010:\n        /* \"#utility.yul\":32524:32580   */\n      not\n        /* \"#utility.yul\":32609:32613   */\n      dup1\n        /* \"#utility.yul\":32603:32607   */\n      dup4\n        /* \"#utility.yul\":32599:32614   */\n      and\n        /* \"#utility.yul\":32589:32614   */\n      swap2\n      pop\n        /* \"#utility.yul\":32502:32620   */\n      pop\n        /* \"#utility.yul\":32451:32620   */\n      swap3\n      swap2\n      pop\n      pop\n      jump\t// out\n        /* \"#utility.yul\":32625:32920   */\n    tag_661:\n        /* \"#utility.yul\":32701:32705   */\n      0x00\n        /* \"#utility.yul\":32847:32876   */\n      tag_1012\n        /* \"#utility.yul\":32872:32875   */\n      dup4\n        /* \"#utility.yul\":32866:32870   */\n      dup4\n        /* \"#utility.yul\":32847:32876   */\n      tag_660\n      jump\t// in\n    tag_1012:\n        /* \"#utility.yul\":32839:32876   */\n      swap2\n      pop\n        /* \"#utility.yul\":32909:32912   */\n      dup3\n        /* \"#utility.yul\":32906:32907   */\n      0x02\n        /* \"#utility.yul\":32902:32913   */\n      mul\n        /* \"#utility.yul\":32896:32900   */\n      dup3\n        /* \"#utility.yul\":32893:32914   */\n      or\n        /* \"#utility.yul\":32885:32914   */\n      swap1\n      pop\n        /* \"#utility.yul\":32625:32920   */\n      swap3\n      swap2\n      pop\n      pop\n      jump\t// out\n        /* \"#utility.yul\":32925:34320   */\n    tag_188:\n        /* \"#utility.yul\":33042:33079   */\n      tag_1014\n        /* \"#utility.yul\":33075:33078   */\n      dup3\n        /* \"#utility.yul\":33042:33079   */\n      tag_605\n      jump\t// in\n    tag_1014:\n        /* \"#utility.yul\":33144:33162   */\n      0xffffffffffffffff\n        /* \"#utility.yul\":33136:33142   */\n      dup2\n        /* \"#utility.yul\":33133:33163   */\n      gt\n        /* \"#utility.yul\":33130:33186   */\n      iszero\n      tag_1015\n      jumpi\n        /* \"#utility.yul\":33166:33184   */\n      tag_1016\n      tag_629\n      jump\t// in\n    tag_1016:\n        /* \"#utility.yul\":33130:33186   */\n    tag_1015:\n        /* \"#utility.yul\":33210:33248   */\n      tag_1017\n        /* \"#utility.yul\":33242:33246   */\n      dup3\n        /* \"#utility.yul\":33236:33247   */\n      sload\n        /* \"#utility.yul\":33210:33248   */\n      tag_194\n      jump\t// in\n    tag_1017:\n        /* \"#utility.yul\":33295:33362   */\n      tag_1018\n        /* \"#utility.yul\":33355:33361   */\n      dup3\n        /* \"#utility.yul\":33347:33353   */\n      dup3\n        /* \"#utility.yul\":33341:33345   */\n      dup6\n        /* \"#utility.yul\":33295:33362   */\n      tag_658\n      jump\t// in\n    tag_1018:\n        /* \"#utility.yul\":33389:33390   */\n      0x00\n        /* \"#utility.yul\":33413:33417   */\n      0x20\n        /* \"#utility.yul\":33400:33417   */\n      swap1\n      pop\n        /* \"#utility.yul\":33445:33447   */\n      0x1f\n        /* \"#utility.yul\":33437:33443   */\n      dup4\n        /* \"#utility.yul\":33434:33448   */\n      gt\n        /* \"#utility.yul\":33462:33463   */\n      0x01\n        /* \"#utility.yul\":33457:34075   */\n      dup2\n      eq\n      tag_1020\n      jumpi\n        /* \"#utility.yul\":34119:34120   */\n      0x00\n        /* \"#utility.yul\":34136:34142   */\n      dup5\n        /* \"#utility.yul\":34133:34210   */\n      iszero\n      tag_1021\n      jumpi\n        /* \"#utility.yul\":34185:34194   */\n      dup3\n        /* \"#utility.yul\":34180:34183   */\n      dup8\n        /* \"#utility.yul\":34176:34195   */\n      add\n        /* \"#utility.yul\":34170:34196   */\n      mload\n        /* \"#utility.yul\":34161:34196   */\n      swap1\n      pop\n        /* \"#utility.yul\":34133:34210   */\n    tag_1021:\n        /* \"#utility.yul\":34236:34303   */\n      tag_1022\n        /* \"#utility.yul\":34296:34302   */\n      dup6\n        /* \"#utility.yul\":34289:34294   */\n      dup3\n        /* \"#utility.yul\":34236:34303   */\n      tag_661\n      jump\t// in\n    tag_1022:\n        /* \"#utility.yul\":34230:34234   */\n      dup7\n        /* \"#utility.yul\":34223:34304   */\n      sstore\n        /* \"#utility.yul\":34092:34314   */\n      pop\n        /* \"#utility.yul\":33427:34314   */\n      jump(tag_1019)\n        /* \"#utility.yul\":33457:34075   */\n    tag_1020:\n        /* \"#utility.yul\":33509:33513   */\n      0x1f\n        /* \"#utility.yul\":33505:33514   */\n      not\n        /* \"#utility.yul\":33497:33503   */\n      dup5\n        /* \"#utility.yul\":33493:33515   */\n      and\n        /* \"#utility.yul\":33543:33580   */\n      tag_1023\n        /* \"#utility.yul\":33575:33579   */\n      dup7\n        /* \"#utility.yul\":33543:33580   */\n      tag_647\n      jump\t// in\n    tag_1023:\n        /* \"#utility.yul\":33602:33603   */\n      0x00\n        /* \"#utility.yul\":33616:33824   */\n    tag_1024:\n        /* \"#utility.yul\":33630:33637   */\n      dup3\n        /* \"#utility.yul\":33627:33628   */\n      dup2\n        /* \"#utility.yul\":33624:33638   */\n      lt\n        /* \"#utility.yul\":33616:33824   */\n      iszero\n      tag_1026\n      jumpi\n        /* \"#utility.yul\":33709:33718   */\n      dup5\n        /* \"#utility.yul\":33704:33707   */\n      dup10\n        /* \"#utility.yul\":33700:33719   */\n      add\n        /* \"#utility.yul\":33694:33720   */\n      mload\n        /* \"#utility.yul\":33686:33692   */\n      dup3\n        /* \"#utility.yul\":33679:33721   */\n      sstore\n        /* \"#utility.yul\":33760:33761   */\n      0x01\n        /* \"#utility.yul\":33752:33758   */\n      dup3\n        /* \"#utility.yul\":33748:33762   */\n      add\n        /* \"#utility.yul\":33738:33762   */\n      swap2\n      pop\n        /* \"#utility.yul\":33807:33809   */\n      0x20\n        /* \"#utility.yul\":33796:33805   */\n      dup6\n        /* \"#utility.yul\":33792:33810   */\n      add\n        /* \"#utility.yul\":33779:33810   */\n      swap5\n      pop\n        /* \"#utility.yul\":33653:33657   */\n      0x20\n        /* \"#utility.yul\":33650:33651   */\n      dup2\n        /* \"#utility.yul\":33646:33658   */\n      add\n        /* \"#utility.yul\":33641:33658   */\n      swap1\n      pop\n        /* \"#utility.yul\":33616:33824   */\n      jump(tag_1024)\n    tag_1026:\n        /* \"#utility.yul\":33852:33858   */\n      dup7\n        /* \"#utility.yul\":33843:33850   */\n      dup4\n        /* \"#utility.yul\":33840:33859   */\n      lt\n        /* \"#utility.yul\":33837:34016   */\n      iszero\n      tag_1027\n      jumpi\n        /* \"#utility.yul\":33910:33919   */\n      dup5\n        /* \"#utility.yul\":33905:33908   */\n      dup10\n        /* \"#utility.yul\":33901:33920   */\n      add\n        /* \"#utility.yul\":33895:33921   */\n      mload\n        /* \"#utility.yul\":33953:34001   */\n      tag_1028\n        /* \"#utility.yul\":33995:33999   */\n      0x1f\n        /* \"#utility.yul\":33987:33993   */\n      dup10\n        /* \"#utility.yul\":33983:34000   */\n      and\n        /* \"#utility.yul\":33972:33981   */\n      dup3\n        /* \"#utility.yul\":33953:34001   */\n      tag_660\n      jump\t// in\n    tag_1028:\n        /* \"#utility.yul\":33945:33951   */\n      dup4\n        /* \"#utility.yul\":33938:34002   */\n      sstore\n        /* \"#utility.yul\":33860:34016   */\n      pop\n        /* \"#utility.yul\":33837:34016   */\n    tag_1027:\n        /* \"#utility.yul\":34062:34063   */\n      0x01\n        /* \"#utility.yul\":34058:34059   */\n      0x02\n        /* \"#utility.yul\":34050:34056   */\n      dup9\n        /* \"#utility.yul\":34046:34060   */\n      mul\n        /* \"#utility.yul\":34042:34064   */\n      add\n        /* \"#utility.yul\":34036:34040   */\n      dup9\n        /* \"#utility.yul\":34029:34065   */\n      sstore\n        /* \"#utility.yul\":33464:34075   */\n      pop\n      pop\n      pop\n        /* \"#utility.yul\":33427:34314   */\n    tag_1019:\n      pop\n        /* \"#utility.yul\":33017:34320   */\n      pop\n      pop\n      pop\n        /* \"#utility.yul\":32925:34320   */\n      pop\n      pop\n      jump\t// out\n        /* \"#utility.yul\":34326:34506   */\n    tag_226:\n        /* \"#utility.yul\":34374:34451   */\n      0x4e487b7100000000000000000000000000000000000000000000000000000000\n        /* \"#utility.yul\":34371:34372   */\n      0x00\n        /* \"#utility.yul\":34364:34452   */\n      mstore\n        /* \"#utility.yul\":34471:34475   */\n      0x32\n        /* \"#utility.yul\":34468:34469   */\n      0x04\n        /* \"#utility.yul\":34461:34476   */\n      mstore\n        /* \"#utility.yul\":34495:34499   */\n      0x24\n        /* \"#utility.yul\":34492:34493   */\n      0x00\n        /* \"#utility.yul\":34485:34500   */\n      revert\n        /* \"#utility.yul\":34536:35367   */\n    tag_662:\n        /* \"#utility.yul\":34621:34624   */\n      0x00\n        /* \"#utility.yul\":34658:34663   */\n      dup2\n        /* \"#utility.yul\":34652:34664   */\n      sload\n        /* \"#utility.yul\":34687:34723   */\n      tag_1031\n        /* \"#utility.yul\":34713:34722   */\n      dup2\n        /* \"#utility.yul\":34687:34723   */\n      tag_194\n      jump\t// in\n    tag_1031:\n        /* \"#utility.yul\":34739:34810   */\n      tag_1032\n        /* \"#utility.yul\":34803:34809   */\n      dup2\n        /* \"#utility.yul\":34798:34801   */\n      dup7\n        /* \"#utility.yul\":34739:34810   */\n      tag_619\n      jump\t// in\n    tag_1032:\n        /* \"#utility.yul\":34732:34810   */\n      swap5\n      pop\n        /* \"#utility.yul\":34841:34842   */\n      0x01\n        /* \"#utility.yul\":34830:34839   */\n      dup3\n        /* \"#utility.yul\":34826:34843   */\n      and\n        /* \"#utility.yul\":34857:34858   */\n      0x00\n        /* \"#utility.yul\":34852:35016   */\n      dup2\n      eq\n      tag_1034\n      jumpi\n        /* \"#utility.yul\":35030:35031   */\n      0x01\n        /* \"#utility.yul\":35025:35361   */\n      dup2\n      eq\n      tag_1035\n      jumpi\n        /* \"#utility.yul\":34819:35361   */\n      jump(tag_1033)\n        /* \"#utility.yul\":34852:35016   */\n    tag_1034:\n        /* \"#utility.yul\":34936:34940   */\n      0xff\n        /* \"#utility.yul\":34932:34941   */\n      not\n        /* \"#utility.yul\":34921:34930   */\n      dup4\n        /* \"#utility.yul\":34917:34942   */\n      and\n        /* \"#utility.yul\":34912:34915   */\n      dup7\n        /* \"#utility.yul\":34905:34943   */\n      mstore\n        /* \"#utility.yul\":34996:35002   */\n      dup2\n        /* \"#utility.yul\":34989:35003   */\n      iszero\n        /* \"#utility.yul\":34982:35004   */\n      iszero\n        /* \"#utility.yul\":34976:34980   */\n      0x20\n        /* \"#utility.yul\":34972:35005   */\n      mul\n        /* \"#utility.yul\":34967:34970   */\n      dup7\n        /* \"#utility.yul\":34963:35006   */\n      add\n        /* \"#utility.yul\":34956:35006   */\n      swap4\n      pop\n        /* \"#utility.yul\":34852:35016   */\n      jump(tag_1033)\n        /* \"#utility.yul\":35025:35361   */\n    tag_1035:\n        /* \"#utility.yul\":35092:35130   */\n      tag_1036\n        /* \"#utility.yul\":35124:35129   */\n      dup6\n        /* \"#utility.yul\":35092:35130   */\n      tag_647\n      jump\t// in\n    tag_1036:\n        /* \"#utility.yul\":35152:35153   */\n      0x00\n        /* \"#utility.yul\":35166:35320   */\n    tag_1037:\n        /* \"#utility.yul\":35180:35186   */\n      dup4\n        /* \"#utility.yul\":35177:35178   */\n      dup2\n        /* \"#utility.yul\":35174:35187   */\n      lt\n        /* \"#utility.yul\":35166:35320   */\n      iszero\n      tag_1039\n      jumpi\n        /* \"#utility.yul\":35254:35261   */\n      dup2\n        /* \"#utility.yul\":35248:35262   */\n      sload\n        /* \"#utility.yul\":35244:35245   */\n      dup2\n        /* \"#utility.yul\":35239:35242   */\n      dup10\n        /* \"#utility.yul\":35235:35246   */\n      add\n        /* \"#utility.yul\":35228:35263   */\n      mstore\n        /* \"#utility.yul\":35304:35305   */\n      0x01\n        /* \"#utility.yul\":35295:35302   */\n      dup3\n        /* \"#utility.yul\":35291:35306   */\n      add\n        /* \"#utility.yul\":35280:35306   */\n      swap2\n      pop\n        /* \"#utility.yul\":35202:35206   */\n      0x20\n        /* \"#utility.yul\":35199:35200   */\n      dup2\n        /* \"#utility.yul\":35195:35207   */\n      add\n        /* \"#utility.yul\":35190:35207   */\n      swap1\n      pop\n        /* \"#utility.yul\":35166:35320   */\n      jump(tag_1037)\n    tag_1039:\n        /* \"#utility.yul\":35349:35350   */\n      dup1\n        /* \"#utility.yul\":35344:35347   */\n      dup9\n        /* \"#utility.yul\":35340:35351   */\n      add\n        /* \"#utility.yul\":35333:35351   */\n      swap6\n      pop\n        /* \"#utility.yul\":35032:35361   */\n      pop\n      pop\n        /* \"#utility.yul\":34819:35361   */\n    tag_1033:\n      pop\n        /* \"#utility.yul\":34625:35367   */\n      pop\n      pop\n        /* \"#utility.yul\":34536:35367   */\n      swap3\n      swap2\n      pop\n      pop\n      jump\t// out\n        /* \"#utility.yul\":35373:35680   */\n    tag_229:\n        /* \"#utility.yul\":35483:35487   */\n      0x00\n        /* \"#utility.yul\":35521:35523   */\n      0x20\n        /* \"#utility.yul\":35510:35519   */\n      dup3\n        /* \"#utility.yul\":35506:35524   */\n      add\n        /* \"#utility.yul\":35498:35524   */\n      swap1\n      pop\n        /* \"#utility.yul\":35570:35579   */\n      dup2\n        /* \"#utility.yul\":35564:35568   */\n      dup2\n        /* \"#utility.yul\":35560:35580   */\n      sub\n        /* \"#utility.yul\":35556:35557   */\n      0x00\n        /* \"#utility.yul\":35545:35554   */\n      dup4\n        /* \"#utility.yul\":35541:35558   */\n      add\n        /* \"#utility.yul\":35534:35581   */\n      mstore\n        /* \"#utility.yul\":35598:35673   */\n      tag_1041\n        /* \"#utility.yul\":35668:35672   */\n      dup2\n        /* \"#utility.yul\":35659:35665   */\n      dup5\n        /* \"#utility.yul\":35598:35673   */\n      tag_662\n      jump\t// in\n    tag_1041:\n        /* \"#utility.yul\":35590:35673   */\n      swap1\n      pop\n        /* \"#utility.yul\":35373:35680   */\n      swap3\n      swap2\n      pop\n      pop\n      jump\t// out\n        /* \"#utility.yul\":35686:35866   */\n    tag_663:\n        /* \"#utility.yul\":35734:35811   */\n      0x4e487b7100000000000000000000000000000000000000000000000000000000\n        /* \"#utility.yul\":35731:35732   */\n      0x00\n        /* \"#utility.yul\":35724:35812   */\n      mstore\n        /* \"#utility.yul\":35831:35835   */\n      0x11\n        /* \"#utility.yul\":35828:35829   */\n      0x04\n        /* \"#utility.yul\":35821:35836   */\n      mstore\n        /* \"#utility.yul\":35855:35859   */\n      0x24\n        /* \"#utility.yul\":35852:35853   */\n      0x00\n        /* \"#utility.yul\":35845:35860   */\n      revert\n        /* \"#utility.yul\":35872:36105   */\n    tag_236:\n        /* \"#utility.yul\":35911:35914   */\n      0x00\n        /* \"#utility.yul\":35934:35958   */\n      tag_1044\n        /* \"#utility.yul\":35952:35957   */\n      dup3\n        /* \"#utility.yul\":35934:35958   */\n      tag_589\n      jump\t// in\n    tag_1044:\n        /* \"#utility.yul\":35925:35958   */\n      swap2\n      pop\n        /* \"#utility.yul\":35980:36046   */\n      0xffffffffffffffffffffffffffffffffffffffffffffffffffffffffffffffff\n        /* \"#utility.yul\":35973:35978   */\n      dup3\n        /* \"#utility.yul\":35970:36047   */\n      sub\n        /* \"#utility.yul\":35967:36070   */\n      tag_1045\n      jumpi\n        /* \"#utility.yul\":36050:36068   */\n      tag_1046\n      tag_663\n      jump\t// in\n    tag_1046:\n        /* \"#utility.yul\":35967:36070   */\n    tag_1045:\n        /* \"#utility.yul\":36097:36098   */\n      0x01\n        /* \"#utility.yul\":36090:36095   */\n      dup3\n        /* \"#utility.yul\":36086:36099   */\n      add\n        /* \"#utility.yul\":36079:36099   */\n      swap1\n      pop\n        /* \"#utility.yul\":35872:36105   */\n      swap2\n      swap1\n      pop\n      jump\t// out\n        /* \"#utility.yul\":36111:36521   */\n    tag_252:\n        /* \"#utility.yul\":36151:36158   */\n      0x00\n        /* \"#utility.yul\":36174:36194   */\n      tag_1048\n        /* \"#utility.yul\":36192:36193   */\n      dup3\n        /* \"#utility.yul\":36174:36194   */\n      tag_589\n      jump\t// in\n    tag_1048:\n        /* \"#utility.yul\":36169:36194   */\n      swap2\n      pop\n        /* \"#utility.yul\":36208:36228   */\n      tag_1049\n        /* \"#utility.yul\":36226:36227   */\n      dup4\n        /* \"#utility.yul\":36208:36228   */\n      tag_589\n      jump\t// in\n    tag_1049:\n        /* \"#utility.yul\":36203:36228   */\n      swap3\n      pop\n        /* \"#utility.yul\":36263:36264   */\n      dup3\n        /* \"#utility.yul\":36260:36261   */\n      dup3\n        /* \"#utility.yul\":36256:36265   */\n      mul\n        /* \"#utility.yul\":36285:36315   */\n      tag_1050\n        /* \"#utility.yul\":36303:36314   */\n      dup2\n        /* \"#utility.yul\":36285:36315   */\n      tag_589\n      jump\t// in\n    tag_1050:\n        /* \"#utility.yul\":36274:36315   */\n      swap2\n      pop\n        /* \"#utility.yul\":36464:36465   */\n      dup3\n        /* \"#utility.yul\":36455:36462   */\n      dup3\n        /* \"#utility.yul\":36451:36466   */\n      div\n        /* \"#utility.yul\":36448:36449   */\n      dup5\n        /* \"#utility.yul\":36445:36467   */\n      eq\n        /* \"#utility.yul\":36425:36426   */\n      dup4\n        /* \"#utility.yul\":36418:36427   */\n      iszero\n        /* \"#utility.yul\":36398:36481   */\n      or\n        /* \"#utility.yul\":36375:36514   */\n      tag_1051\n      jumpi\n        /* \"#utility.yul\":36494:36512   */\n      tag_1052\n      tag_663\n      jump\t// in\n    tag_1052:\n        /* \"#utility.yul\":36375:36514   */\n    tag_1051:\n        /* \"#utility.yul\":36159:36521   */\n      pop\n        /* \"#utility.yul\":36111:36521   */\n      swap3\n      swap2\n      pop\n      pop\n      jump\t// out\n        /* \"#utility.yul\":36527:36718   */\n    tag_260:\n        /* \"#utility.yul\":36567:36570   */\n      0x00\n        /* \"#utility.yul\":36586:36606   */\n      tag_1054\n        /* \"#utility.yul\":36604:36605   */\n      dup3\n        /* \"#utility.yul\":36586:36606   */\n      tag_589\n      jump\t// in\n    tag_1054:\n        /* \"#utility.yul\":36581:36606   */\n      swap2\n      pop\n        /* \"#utility.yul\":36620:36640   */\n      tag_1055\n        /* \"#utility.yul\":36638:36639   */\n      dup4\n        /* \"#utility.yul\":36620:36640   */\n      tag_589\n      jump\t// in\n    tag_1055:\n        /* \"#utility.yul\":36615:36640   */\n      swap3\n      pop\n        /* \"#utility.yul\":36663:36664   */\n      dup3\n        /* \"#utility.yul\":36660:36661   */\n      dup3\n        /* \"#utility.yul\":36656:36665   */\n      add\n        /* \"#utility.yul\":36649:36665   */\n      swap1\n      pop\n        /* \"#utility.yul\":36684:36687   */\n      dup1\n        /* \"#utility.yul\":36681:36682   */\n      dup3\n        /* \"#utility.yul\":36678:36688   */\n      gt\n        /* \"#utility.yul\":36675:36711   */\n      iszero\n      tag_1056\n      jumpi\n        /* \"#utility.yul\":36691:36709   */\n      tag_1057\n      tag_663\n      jump\t// in\n    tag_1057:\n        /* \"#utility.yul\":36675:36711   */\n    tag_1056:\n        /* \"#utility.yul\":36527:36718   */\n      swap3\n      swap2\n      pop\n      pop\n      jump\t// out\n        /* \"#utility.yul\":36724:36918   */\n    tag_267:\n        /* \"#utility.yul\":36764:36768   */\n      0x00\n        /* \"#utility.yul\":36784:36804   */\n      tag_1059\n        /* \"#utility.yul\":36802:36803   */\n      dup3\n        /* \"#utility.yul\":36784:36804   */\n      tag_589\n      jump\t// in\n    tag_1059:\n        /* \"#utility.yul\":36779:36804   */\n      swap2\n      pop\n        /* \"#utility.yul\":36818:36838   */\n      tag_1060\n        /* \"#utility.yul\":36836:36837   */\n      dup4\n        /* \"#utility.yul\":36818:36838   */\n      tag_589\n      jump\t// in\n    tag_1060:\n        /* \"#utility.yul\":36813:36838   */\n      swap3\n      pop\n        /* \"#utility.yul\":36862:36863   */\n      dup3\n        /* \"#utility.yul\":36859:36860   */\n      dup3\n        /* \"#utility.yul\":36855:36864   */\n      sub\n        /* \"#utility.yul\":36847:36864   */\n      swap1\n      pop\n        /* \"#utility.yul\":36886:36887   */\n      dup2\n        /* \"#utility.yul\":36880:36884   */\n      dup2\n        /* \"#utility.yul\":36877:36888   */\n      gt\n        /* \"#utility.yul\":36874:36911   */\n      iszero\n      tag_1061\n      jumpi\n        /* \"#utility.yul\":36891:36909   */\n      tag_1062\n      tag_663\n      jump\t// in\n    tag_1062:\n        /* \"#utility.yul\":36874:36911   */\n    tag_1061:\n        /* \"#utility.yul\":36724:36918   */\n      swap3\n      swap2\n      pop\n      pop\n      jump\t// out\n        /* \"#utility.yul\":36924:37072   */\n    tag_664:\n        /* \"#utility.yul\":37026:37037   */\n      0x00\n        /* \"#utility.yul\":37063:37066   */\n      dup2\n        /* \"#utility.yul\":37048:37066   */\n      swap1\n      pop\n        /* \"#utility.yul\":36924:37072   */\n      swap3\n      swap2\n      pop\n      pop\n      jump\t// out\n        /* \"#utility.yul\":37078:37468   */\n    tag_665:\n        /* \"#utility.yul\":37184:37187   */\n      0x00\n        /* \"#utility.yul\":37212:37251   */\n      tag_1065\n        /* \"#utility.yul\":37245:37250   */\n      dup3\n        /* \"#utility.yul\":37212:37251   */\n      tag_605\n      jump\t// in\n    tag_1065:\n        /* \"#utility.yul\":37267:37356   */\n      tag_1066\n        /* \"#utility.yul\":37349:37355   */\n      dup2\n        /* \"#utility.yul\":37344:37347   */\n      dup6\n        /* \"#utility.yul\":37267:37356   */\n      tag_664\n      jump\t// in\n    tag_1066:\n        /* \"#utility.yul\":37260:37356   */\n      swap4\n      pop\n        /* \"#utility.yul\":37365:37430   */\n      tag_1067\n        /* \"#utility.yul\":37423:37429   */\n      dup2\n        /* \"#utility.yul\":37418:37421   */\n      dup6\n        /* \"#utility.yul\":37411:37415   */\n      0x20\n        /* \"#utility.yul\":37404:37409   */\n      dup7\n        /* \"#utility.yul\":37400:37416   */\n      add\n        /* \"#utility.yul\":37365:37430   */\n      tag_607\n      jump\t// in\n    tag_1067:\n        /* \"#utility.yul\":37455:37461   */\n      dup1\n        /* \"#utility.yul\":37450:37453   */\n      dup5\n        /* \"#utility.yul\":37446:37462   */\n      add\n        /* \"#utility.yul\":37439:37462   */\n      swap2\n      pop\n        /* \"#utility.yul\":37188:37468   */\n      pop\n        /* \"#utility.yul\":37078:37468   */\n      swap3\n      swap2\n      pop\n      pop\n      jump\t// out\n        /* \"#utility.yul\":37474:37749   */\n    tag_295:\n        /* \"#utility.yul\":37606:37609   */\n      0x00\n        /* \"#utility.yul\":37628:37723   */\n      tag_1069\n        /* \"#utility.yul\":37719:37722   */\n      dup3\n        /* \"#utility.yul\":37710:37716   */\n      dup5\n        /* \"#utility.yul\":37628:37723   */\n      tag_665\n      jump\t// in\n    tag_1069:\n        /* \"#utility.yul\":37621:37723   */\n      swap2\n      pop\n        /* \"#utility.yul\":37740:37743   */\n      dup2\n        /* \"#utility.yul\":37733:37743   */\n      swap1\n      pop\n        /* \"#utility.yul\":37474:37749   */\n      swap3\n      swap2\n      pop\n      pop\n      jump\t// out\n        /* \"#utility.yul\":37755:38068   */\n    tag_299:\n        /* \"#utility.yul\":37868:37872   */\n      0x00\n        /* \"#utility.yul\":37906:37908   */\n      0x20\n        /* \"#utility.yul\":37895:37904   */\n      dup3\n        /* \"#utility.yul\":37891:37909   */\n      add\n        /* \"#utility.yul\":37883:37909   */\n      swap1\n      pop\n        /* \"#utility.yul\":37955:37964   */\n      dup2\n        /* \"#utility.yul\":37949:37953   */\n      dup2\n        /* \"#utility.yul\":37945:37965   */\n      sub\n        /* \"#utility.yul\":37941:37942   */\n      0x00\n        /* \"#utility.yul\":37930:37939   */\n      dup4\n        /* \"#utility.yul\":37926:37943   */\n      add\n        /* \"#utility.yul\":37919:37966   */\n      mstore\n        /* \"#utility.yul\":37983:38061   */\n      tag_1071\n        /* \"#utility.yul\":38056:38060   */\n      dup2\n        /* \"#utility.yul\":38047:38053   */\n      dup5\n        /* \"#utility.yul\":37983:38061   */\n      tag_620\n      jump\t// in\n    tag_1071:\n        /* \"#utility.yul\":37975:38061   */\n      swap1\n      pop\n        /* \"#utility.yul\":37755:38068   */\n      swap3\n      swap2\n      pop\n      pop\n      jump\t// out\n        /* \"#utility.yul\":38074:38299   */\n    tag_666:\n        /* \"#utility.yul\":38214:38248   */\n      0x507572636861736520616d6f756e74206d757374206265206772656174657220\n        /* \"#utility.yul\":38210:38211   */\n      0x00\n        /* \"#utility.yul\":38202:38208   */\n      dup3\n        /* \"#utility.yul\":38198:38212   */\n      add\n        /* \"#utility.yul\":38191:38249   */\n      mstore\n        /* \"#utility.yul\":38283:38291   */\n      0x7468616e20300000000000000000000000000000000000000000000000000000\n        /* \"#utility.yul\":38278:38280   */\n      0x20\n        /* \"#utility.yul\":38270:38276   */\n      dup3\n        /* \"#utility.yul\":38266:38281   */\n      add\n        /* \"#utility.yul\":38259:38292   */\n      mstore\n        /* \"#utility.yul\":38074:38299   */\n      pop\n      jump\t// out\n        /* \"#utility.yul\":38305:38671   */\n    tag_667:\n        /* \"#utility.yul\":38447:38450   */\n      0x00\n        /* \"#utility.yul\":38468:38535   */\n      tag_1074\n        /* \"#utility.yul\":38532:38534   */\n      0x26\n        /* \"#utility.yul\":38527:38530   */\n      dup4\n        /* \"#utility.yul\":38468:38535   */\n      tag_619\n      jump\t// in\n    tag_1074:\n        /* \"#utility.yul\":38461:38535   */\n      swap2\n      pop\n        /* \"#utility.yul\":38544:38637   */\n      tag_1075\n        /* \"#utility.yul\":38633:38636   */\n      dup3\n        /* \"#utility.yul\":38544:38637   */\n      tag_666\n      jump\t// in\n    tag_1075:\n        /* \"#utility.yul\":38662:38664   */\n      0x40\n        /* \"#utility.yul\":38657:38660   */\n      dup3\n        /* \"#utility.yul\":38653:38665   */\n      add\n        /* \"#utility.yul\":38646:38665   */\n      swap1\n      pop\n        /* \"#utility.yul\":38305:38671   */\n      swap2\n      swap1\n      pop\n      jump\t// out\n        /* \"#utility.yul\":38677:39096   */\n    tag_323:\n        /* \"#utility.yul\":38843:38847   */\n      0x00\n        /* \"#utility.yul\":38881:38883   */\n      0x20\n        /* \"#utility.yul\":38870:38879   */\n      dup3\n        /* \"#utility.yul\":38866:38884   */\n      add\n        /* \"#utility.yul\":38858:38884   */\n      swap1\n      pop\n        /* \"#utility.yul\":38930:38939   */\n      dup2\n        /* \"#utility.yul\":38924:38928   */\n      dup2\n        /* \"#utility.yul\":38920:38940   */\n      sub\n        /* \"#utility.yul\":38916:38917   */\n      0x00\n        /* \"#utility.yul\":38905:38914   */\n      dup4\n        /* \"#utility.yul\":38901:38918   */\n      add\n        /* \"#utility.yul\":38894:38941   */\n      mstore\n        /* \"#utility.yul\":38958:39089   */\n      tag_1077\n        /* \"#utility.yul\":39084:39088   */\n      dup2\n        /* \"#utility.yul\":38958:39089   */\n      tag_667\n      jump\t// in\n    tag_1077:\n        /* \"#utility.yul\":38950:39089   */\n      swap1\n      pop\n        /* \"#utility.yul\":38677:39096   */\n      swap2\n      swap1\n      pop\n      jump\t// out\n        /* \"#utility.yul\":39102:39270   */\n    tag_668:\n        /* \"#utility.yul\":39242:39262   */\n      0x496e76616c69642070726f647563742049440000000000000000000000000000\n        /* \"#utility.yul\":39238:39239   */\n      0x00\n        /* \"#utility.yul\":39230:39236   */\n      dup3\n        /* \"#utility.yul\":39226:39240   */\n      add\n        /* \"#utility.yul\":39219:39263   */\n      mstore\n        /* \"#utility.yul\":39102:39270   */\n      pop\n      jump\t// out\n        /* \"#utility.yul\":39276:39642   */\n    tag_669:\n        /* \"#utility.yul\":39418:39421   */\n      0x00\n        /* \"#utility.yul\":39439:39506   */\n      tag_1080\n        /* \"#utility.yul\":39503:39505   */\n      0x12\n        /* \"#utility.yul\":39498:39501   */\n      dup4\n        /* \"#utility.yul\":39439:39506   */\n      tag_619\n      jump\t// in\n    tag_1080:\n        /* \"#utility.yul\":39432:39506   */\n      swap2\n      pop\n        /* \"#utility.yul\":39515:39608   */\n      tag_1081\n        /* \"#utility.yul\":39604:39607   */\n      dup3\n        /* \"#utility.yul\":39515:39608   */\n      tag_668\n      jump\t// in\n    tag_1081:\n        /* \"#utility.yul\":39633:39635   */\n      0x20\n        /* \"#utility.yul\":39628:39631   */\n      dup3\n        /* \"#utility.yul\":39624:39636   */\n      add\n        /* \"#utility.yul\":39617:39636   */\n      swap1\n      pop\n        /* \"#utility.yul\":39276:39642   */\n      swap2\n      swap1\n      pop\n      jump\t// out\n        /* \"#utility.yul\":39648:40067   */\n    tag_326:\n        /* \"#utility.yul\":39814:39818   */\n      0x00\n        /* \"#utility.yul\":39852:39854   */\n      0x20\n        /* \"#utility.yul\":39841:39850   */\n      dup3\n        /* \"#utility.yul\":39837:39855   */\n      add\n        /* \"#utility.yul\":39829:39855   */\n      swap1\n      pop\n        /* \"#utility.yul\":39901:39910   */\n      dup2\n        /* \"#utility.yul\":39895:39899   */\n      dup2\n        /* \"#utility.yul\":39891:39911   */\n      sub\n        /* \"#utility.yul\":39887:39888   */\n      0x00\n        /* \"#utility.yul\":39876:39885   */\n      dup4\n        /* \"#utility.yul\":39872:39889   */\n      add\n        /* \"#utility.yul\":39865:39912   */\n      mstore\n        /* \"#utility.yul\":39929:40060   */\n      tag_1083\n        /* \"#utility.yul\":40055:40059   */\n      dup2\n        /* \"#utility.yul\":39929:40060   */\n      tag_669\n      jump\t// in\n    tag_1083:\n        /* \"#utility.yul\":39921:40060   */\n      swap1\n      pop\n        /* \"#utility.yul\":39648:40067   */\n      swap2\n      swap1\n      pop\n      jump\t// out\n        /* \"#utility.yul\":40073:40252   */\n    tag_670:\n        /* \"#utility.yul\":40241:40245   */\n      0x4141000000000000000000000000000000000000000000000000000000000000\n        /* \"#utility.yul\":40236:40239   */\n      dup2\n        /* \"#utility.yul\":40229:40246   */\n      mstore\n        /* \"#utility.yul\":40073:40252   */\n      pop\n      jump\t// out\n        /* \"#utility.yul\":40258:40437   */\n    tag_671:\n        /* \"#utility.yul\":40426:40430   */\n      0x4242000000000000000000000000000000000000000000000000000000000000\n        /* \"#utility.yul\":40421:40424   */\n      dup2\n        /* \"#utility.yul\":40414:40431   */\n      mstore\n        /* \"#utility.yul\":40258:40437   */\n      pop\n      jump\t// out\n        /* \"#utility.yul\":40443:41246   */\n    tag_336:\n        /* \"#utility.yul\":40755:40758   */\n      0x00\n        /* \"#utility.yul\":40770:40907   */\n      tag_1087\n        /* \"#utility.yul\":40903:40906   */\n      dup3\n        /* \"#utility.yul\":40770:40907   */\n      tag_670\n      jump\t// in\n    tag_1087:\n        /* \"#utility.yul\":40932:40933   */\n      0x02\n        /* \"#utility.yul\":40927:40930   */\n      dup3\n        /* \"#utility.yul\":40923:40934   */\n      add\n        /* \"#utility.yul\":40916:40934   */\n      swap2\n      pop\n        /* \"#utility.yul\":40951:41046   */\n      tag_1088\n        /* \"#utility.yul\":41042:41045   */\n      dup3\n        /* \"#utility.yul\":41033:41039   */\n      dup5\n        /* \"#utility.yul\":40951:41046   */\n      tag_665\n      jump\t// in\n    tag_1088:\n        /* \"#utility.yul\":40944:41046   */\n      swap2\n      pop\n        /* \"#utility.yul\":41056:41193   */\n      tag_1089\n        /* \"#utility.yul\":41189:41192   */\n      dup3\n        /* \"#utility.yul\":41056:41193   */\n      tag_671\n      jump\t// in\n    tag_1089:\n        /* \"#utility.yul\":41218:41219   */\n      0x02\n        /* \"#utility.yul\":41213:41216   */\n      dup3\n        /* \"#utility.yul\":41209:41220   */\n      add\n        /* \"#utility.yul\":41202:41220   */\n      swap2\n      pop\n        /* \"#utility.yul\":41237:41240   */\n      dup2\n        /* \"#utility.yul\":41230:41240   */\n      swap1\n      pop\n        /* \"#utility.yul\":40443:41246   */\n      swap3\n      swap2\n      pop\n      pop\n      jump\t// out\n        /* \"#utility.yul\":41252:41331   */\n    tag_672:\n        /* \"#utility.yul\":41291:41298   */\n      0x00\n        /* \"#utility.yul\":41320:41325   */\n      dup2\n        /* \"#utility.yul\":41309:41325   */\n      swap1\n      pop\n        /* \"#utility.yul\":41252:41331   */\n      swap2\n      swap1\n      pop\n      jump\t// out\n        /* \"#utility.yul\":41337:41494   */\n    tag_673:\n        /* \"#utility.yul\":41442:41487   */\n      tag_1092\n        /* \"#utility.yul\":41462:41486   */\n      tag_1093\n        /* \"#utility.yul\":41480:41485   */\n      dup3\n        /* \"#utility.yul\":41462:41486   */\n      tag_589\n      jump\t// in\n    tag_1093:\n        /* \"#utility.yul\":41442:41487   */\n      tag_672\n      jump\t// in\n    tag_1092:\n        /* \"#utility.yul\":41437:41440   */\n      dup3\n        /* \"#utility.yul\":41430:41488   */\n      mstore\n        /* \"#utility.yul\":41337:41494   */\n      pop\n      pop\n      jump\t// out\n        /* \"#utility.yul\":41500:41594   */\n    tag_674:\n        /* \"#utility.yul\":41533:41541   */\n      0x00\n        /* \"#utility.yul\":41581:41586   */\n      dup2\n        /* \"#utility.yul\":41577:41579   */\n      0x60\n        /* \"#utility.yul\":41573:41587   */\n      shl\n        /* \"#utility.yul\":41552:41587   */\n      swap1\n      pop\n        /* \"#utility.yul\":41500:41594   */\n      swap2\n      swap1\n      pop\n      jump\t// out\n        /* \"#utility.yul\":41600:41694   */\n    tag_675:\n        /* \"#utility.yul\":41639:41646   */\n      0x00\n        /* \"#utility.yul\":41668:41688   */\n      tag_1096\n        /* \"#utility.yul\":41682:41687   */\n      dup3\n        /* \"#utility.yul\":41668:41688   */\n      tag_674\n      jump\t// in\n    tag_1096:\n        /* \"#utility.yul\":41657:41688   */\n      swap1\n      pop\n        /* \"#utility.yul\":41600:41694   */\n      swap2\n      swap1\n      pop\n      jump\t// out\n        /* \"#utility.yul\":41700:41800   */\n    tag_676:\n        /* \"#utility.yul\":41739:41746   */\n      0x00\n        /* \"#utility.yul\":41768:41794   */\n      tag_1098\n        /* \"#utility.yul\":41788:41793   */\n      dup3\n        /* \"#utility.yul\":41768:41794   */\n      tag_675\n      jump\t// in\n    tag_1098:\n        /* \"#utility.yul\":41757:41794   */\n      swap1\n      pop\n        /* \"#utility.yul\":41700:41800   */\n      swap2\n      swap1\n      pop\n      jump\t// out\n        /* \"#utility.yul\":41806:41963   */\n    tag_677:\n        /* \"#utility.yul\":41911:41956   */\n      tag_1100\n        /* \"#utility.yul\":41931:41955   */\n      tag_1101\n        /* \"#utility.yul\":41949:41954   */\n      dup3\n        /* \"#utility.yul\":41931:41955   */\n      tag_597\n      jump\t// in\n    tag_1101:\n        /* \"#utility.yul\":41911:41956   */\n      tag_676\n      jump\t// in\n    tag_1100:\n        /* \"#utility.yul\":41906:41909   */\n      dup3\n        /* \"#utility.yul\":41899:41957   */\n      mstore\n        /* \"#utility.yul\":41806:41963   */\n      pop\n      pop\n      jump\t// out\n        /* \"#utility.yul\":41969:42507   */\n    tag_366:\n        /* \"#utility.yul\":42137:42140   */\n      0x00\n        /* \"#utility.yul\":42152:42227   */\n      tag_1103\n        /* \"#utility.yul\":42223:42226   */\n      dup3\n        /* \"#utility.yul\":42214:42220   */\n      dup7\n        /* \"#utility.yul\":42152:42227   */\n      tag_673\n      jump\t// in\n    tag_1103:\n        /* \"#utility.yul\":42252:42254   */\n      0x20\n        /* \"#utility.yul\":42247:42250   */\n      dup3\n        /* \"#utility.yul\":42243:42255   */\n      add\n        /* \"#utility.yul\":42236:42255   */\n      swap2\n      pop\n        /* \"#utility.yul\":42265:42340   */\n      tag_1104\n        /* \"#utility.yul\":42336:42339   */\n      dup3\n        /* \"#utility.yul\":42327:42333   */\n      dup6\n        /* \"#utility.yul\":42265:42340   */\n      tag_677\n      jump\t// in\n    tag_1104:\n        /* \"#utility.yul\":42365:42367   */\n      0x14\n        /* \"#utility.yul\":42360:42363   */\n      dup3\n        /* \"#utility.yul\":42356:42368   */\n      add\n        /* \"#utility.yul\":42349:42368   */\n      swap2\n      pop\n        /* \"#utility.yul\":42378:42453   */\n      tag_1105\n        /* \"#utility.yul\":42449:42452   */\n      dup3\n        /* \"#utility.yul\":42440:42446   */\n      dup5\n        /* \"#utility.yul\":42378:42453   */\n      tag_673\n      jump\t// in\n    tag_1105:\n        /* \"#utility.yul\":42478:42480   */\n      0x20\n        /* \"#utility.yul\":42473:42476   */\n      dup3\n        /* \"#utility.yul\":42469:42481   */\n      add\n        /* \"#utility.yul\":42462:42481   */\n      swap2\n      pop\n        /* \"#utility.yul\":42498:42501   */\n      dup2\n        /* \"#utility.yul\":42491:42501   */\n      swap1\n      pop\n        /* \"#utility.yul\":41969:42507   */\n      swap5\n      swap4\n      pop\n      pop\n      pop\n      pop\n      jump\t// out\n        /* \"#utility.yul\":42513:42693   */\n    tag_678:\n        /* \"#utility.yul\":42561:42638   */\n      0x4e487b7100000000000000000000000000000000000000000000000000000000\n        /* \"#utility.yul\":42558:42559   */\n      0x00\n        /* \"#utility.yul\":42551:42639   */\n      mstore\n        /* \"#utility.yul\":42658:42662   */\n      0x12\n        /* \"#utility.yul\":42655:42656   */\n      0x04\n        /* \"#utility.yul\":42648:42663   */\n      mstore\n        /* \"#utility.yul\":42682:42686   */\n      0x24\n        /* \"#utility.yul\":42679:42680   */\n      0x00\n        /* \"#utility.yul\":42672:42687   */\n      revert\n        /* \"#utility.yul\":42699:42875   */\n    tag_368:\n        /* \"#utility.yul\":42731:42732   */\n      0x00\n        /* \"#utility.yul\":42748:42768   */\n      tag_1108\n        /* \"#utility.yul\":42766:42767   */\n      dup3\n        /* \"#utility.yul\":42748:42768   */\n      tag_589\n      jump\t// in\n    tag_1108:\n        /* \"#utility.yul\":42743:42768   */\n      swap2\n      pop\n        /* \"#utility.yul\":42782:42802   */\n      tag_1109\n        /* \"#utility.yul\":42800:42801   */\n      dup4\n        /* \"#utility.yul\":42782:42802   */\n      tag_589\n      jump\t// in\n    tag_1109:\n        /* \"#utility.yul\":42777:42802   */\n      swap3\n      pop\n        /* \"#utility.yul\":42821:42822   */\n      dup3\n        /* \"#utility.yul\":42811:42846   */\n      tag_1110\n      jumpi\n        /* \"#utility.yul\":42826:42844   */\n      tag_1111\n      tag_678\n      jump\t// in\n    tag_1111:\n        /* \"#utility.yul\":42811:42846   */\n    tag_1110:\n        /* \"#utility.yul\":42867:42868   */\n      dup3\n        /* \"#utility.yul\":42864:42865   */\n      dup3\n        /* \"#utility.yul\":42860:42869   */\n      mod\n        /* \"#utility.yul\":42855:42869   */\n      swap1\n      pop\n        /* \"#utility.yul\":42699:42875   */\n      swap3\n      swap2\n      pop\n      pop\n      jump\t// out\n        /* \"#utility.yul\":42881:43066   */\n    tag_378:\n        /* \"#utility.yul\":42921:42922   */\n      0x00\n        /* \"#utility.yul\":42938:42958   */\n      tag_1113\n        /* \"#utility.yul\":42956:42957   */\n      dup3\n        /* \"#utility.yul\":42938:42958   */\n      tag_589\n      jump\t// in\n    tag_1113:\n        /* \"#utility.yul\":42933:42958   */\n      swap2\n      pop\n        /* \"#utility.yul\":42972:42992   */\n      tag_1114\n        /* \"#utility.yul\":42990:42991   */\n      dup4\n        /* \"#utility.yul\":42972:42992   */\n      tag_589\n      jump\t// in\n    tag_1114:\n        /* \"#utility.yul\":42967:42992   */\n      swap3\n      pop\n        /* \"#utility.yul\":43011:43012   */\n      dup3\n        /* \"#utility.yul\":43001:43036   */\n      tag_1115\n      jumpi\n        /* \"#utility.yul\":43016:43034   */\n      tag_1116\n      tag_678\n      jump\t// in\n    tag_1116:\n        /* \"#utility.yul\":43001:43036   */\n    tag_1115:\n        /* \"#utility.yul\":43058:43059   */\n      dup3\n        /* \"#utility.yul\":43055:43056   */\n      dup3\n        /* \"#utility.yul\":43051:43060   */\n      div\n        /* \"#utility.yul\":43046:43060   */\n      swap1\n      pop\n        /* \"#utility.yul\":42881:43066   */\n      swap3\n      swap2\n      pop\n      pop\n      jump\t// out\n        /* \"#utility.yul\":43072:43248   */\n    tag_679:\n        /* \"#utility.yul\":43212:43240   */\n      0x4e6f7420656e6f7567682073746f636b20617661696c61626c65000000000000\n        /* \"#utility.yul\":43208:43209   */\n      0x00\n        /* \"#utility.yul\":43200:43206   */\n      dup3\n        /* \"#utility.yul\":43196:43210   */\n      add\n        /* \"#utility.yul\":43189:43241   */\n      mstore\n        /* \"#utility.yul\":43072:43248   */\n      pop\n      jump\t// out\n        /* \"#utility.yul\":43254:43620   */\n    tag_680:\n        /* \"#utility.yul\":43396:43399   */\n      0x00\n        /* \"#utility.yul\":43417:43484   */\n      tag_1119\n        /* \"#utility.yul\":43481:43483   */\n      0x1a\n        /* \"#utility.yul\":43476:43479   */\n      dup4\n        /* \"#utility.yul\":43417:43484   */\n      tag_619\n      jump\t// in\n    tag_1119:\n        /* \"#utility.yul\":43410:43484   */\n      swap2\n      pop\n        /* \"#utility.yul\":43493:43586   */\n      tag_1120\n        /* \"#utility.yul\":43582:43585   */\n      dup3\n        /* \"#utility.yul\":43493:43586   */\n      tag_679\n      jump\t// in\n    tag_1120:\n        /* \"#utility.yul\":43611:43613   */\n      0x20\n        /* \"#utility.yul\":43606:43609   */\n      dup3\n        /* \"#utility.yul\":43602:43614   */\n      add\n        /* \"#utility.yul\":43595:43614   */\n      swap1\n      pop\n        /* \"#utility.yul\":43254:43620   */\n      swap2\n      swap1\n      pop\n      jump\t// out\n        /* \"#utility.yul\":43626:44045   */\n    tag_391:\n        /* \"#utility.yul\":43792:43796   */\n      0x00\n        /* \"#utility.yul\":43830:43832   */\n      0x20\n        /* \"#utility.yul\":43819:43828   */\n      dup3\n        /* \"#utility.yul\":43815:43833   */\n      add\n        /* \"#utility.yul\":43807:43833   */\n      swap1\n      pop\n        /* \"#utility.yul\":43879:43888   */\n      dup2\n        /* \"#utility.yul\":43873:43877   */\n      dup2\n        /* \"#utility.yul\":43869:43889   */\n      sub\n        /* \"#utility.yul\":43865:43866   */\n      0x00\n        /* \"#utility.yul\":43854:43863   */\n      dup4\n        /* \"#utility.yul\":43850:43867   */\n      add\n        /* \"#utility.yul\":43843:43890   */\n      mstore\n        /* \"#utility.yul\":43907:44038   */\n      tag_1122\n        /* \"#utility.yul\":44033:44037   */\n      dup2\n        /* \"#utility.yul\":43907:44038   */\n      tag_680\n      jump\t// in\n    tag_1122:\n        /* \"#utility.yul\":43899:44038   */\n      swap1\n      pop\n        /* \"#utility.yul\":43626:44045   */\n      swap2\n      swap1\n      pop\n      jump\t// out\n        /* \"#utility.yul\":44051:44224   */\n    tag_681:\n        /* \"#utility.yul\":44191:44216   */\n      0x496e73756666696369656e742066756e64732073656e74000000000000000000\n        /* \"#utility.yul\":44187:44188   */\n      0x00\n        /* \"#utility.yul\":44179:44185   */\n      dup3\n        /* \"#utility.yul\":44175:44189   */\n      add\n        /* \"#utility.yul\":44168:44217   */\n      mstore\n        /* \"#utility.yul\":44051:44224   */\n      pop\n      jump\t// out\n        /* \"#utility.yul\":44230:44596   */\n    tag_682:\n        /* \"#utility.yul\":44372:44375   */\n      0x00\n        /* \"#utility.yul\":44393:44460   */\n      tag_1125\n        /* \"#utility.yul\":44457:44459   */\n      0x17\n        /* \"#utility.yul\":44452:44455   */\n      dup4\n        /* \"#utility.yul\":44393:44460   */\n      tag_619\n      jump\t// in\n    tag_1125:\n        /* \"#utility.yul\":44386:44460   */\n      swap2\n      pop\n        /* \"#utility.yul\":44469:44562   */\n      tag_1126\n        /* \"#utility.yul\":44558:44561   */\n      dup3\n        /* \"#utility.yul\":44469:44562   */\n      tag_681\n      jump\t// in\n    tag_1126:\n        /* \"#utility.yul\":44587:44589   */\n      0x20\n        /* \"#utility.yul\":44582:44585   */\n      dup3\n        /* \"#utility.yul\":44578:44590   */\n      add\n        /* \"#utility.yul\":44571:44590   */\n      swap1\n      pop\n        /* \"#utility.yul\":44230:44596   */\n      swap2\n      swap1\n      pop\n      jump\t// out\n        /* \"#utility.yul\":44602:45021   */\n    tag_403:\n        /* \"#utility.yul\":44768:44772   */\n      0x00\n        /* \"#utility.yul\":44806:44808   */\n      0x20\n        /* \"#utility.yul\":44795:44804   */\n      dup3\n        /* \"#utility.yul\":44791:44809   */\n      add\n        /* \"#utility.yul\":44783:44809   */\n      swap1\n      pop\n        /* \"#utility.yul\":44855:44864   */\n      dup2\n        /* \"#utility.yul\":44849:44853   */\n      dup2\n        /* \"#utility.yul\":44845:44865   */\n      sub\n        /* \"#utility.yul\":44841:44842   */\n      0x00\n        /* \"#utility.yul\":44830:44839   */\n      dup4\n        /* \"#utility.yul\":44826:44843   */\n      add\n        /* \"#utility.yul\":44819:44866   */\n      mstore\n        /* \"#utility.yul\":44883:45014   */\n      tag_1128\n        /* \"#utility.yul\":45009:45013   */\n      dup2\n        /* \"#utility.yul\":44883:45014   */\n      tag_682\n      jump\t// in\n    tag_1128:\n        /* \"#utility.yul\":44875:45014   */\n      swap1\n      pop\n        /* \"#utility.yul\":44602:45021   */\n      swap2\n      swap1\n      pop\n      jump\t// out\n\n    auxdata: 0xa264697066735822122020d3e3866058e251d0648b121260110200b72545480d31f0f48141e5dce4c45d64736f6c63430008150033\n}\n",
				"bytecode": {
					"linkReferences": {},
					"object": "608060405234801561000f575f80fd5b503360015f6101000a81548173ffffffffffffffffffffffffffffffffffffffff021916908373ffffffffffffffffffffffffffffffffffffffff1602179055506151058061005d5f395ff3fe60806040526004361061019a575f3560e01c8063805553e8116100eb578063b66959d211610089578063da0d37e611610063578063da0d37e614610623578063da76af311461065f578063f6364cc11461067b578063fecd8f79146106915761019a565b8063b66959d214610595578063d35e5d95146105bd578063d55768dd146105e75761019a565b80639f1cd587116100c55780639f1cd587146104e9578063a1ba90b614610505578063a87430ba1461052d578063b17d85531461056d5761019a565b8063805553e81461045b578063861c2b6d146104975780638da5cb5b146104bf5761019a565b80634f4245471161015857806358467dbc1161013257806358467dbc146103935780637555bf10146103cf5780637e2cff28146103f75780637eb33a58146104335761019a565b80634f424547146102ed57806350b447121461032e57806355dea0b31461036b5761019a565b80628de16a1461019e5780631691473c146101c65780631cc117211461020257806327b90b1b146102435780633d52788314610284578063401176e3146102c5575b5f80fd5b3480156101a9575f80fd5b506101c460048036038101906101bf9190613aa1565b6106ad565b005b3480156101d1575f80fd5b506101ec60048036038101906101e79190613b7f565b6108db565b6040516101f99190613d93565b60405180910390f35b34801561020d575f80fd5b5061022860048036038101906102239190613db3565b610a80565b60405161023a96959493929190613eb7565b60405180910390f35b34801561024e575f80fd5b5061026960048036038101906102649190613f1d565b610b98565b60405161027b96959493929190613f5b565b60405180910390f35b34801561028f575f80fd5b506102aa60048036038101906102a59190613f1d565b610c8f565b6040516102bc96959493929190613f5b565b60405180910390f35b3480156102d0575f80fd5b506102eb60048036038101906102e69190613f1d565b610d86565b005b3480156102f8575f80fd5b50610313600480360381019061030e9190613f1d565b6112be565b60405161032596959493929190613f5b565b60405180910390f35b348015610339575f80fd5b50610354600480360381019061034f9190613db3565b6113b5565b604051610362929190614007565b60405180910390f35b348015610376575f80fd5b50610391600480360381019061038c9190614051565b61140a565b005b34801561039e575f80fd5b506103b960048036038101906103b491906141a4565b61158a565b6040516103c691906142aa565b60405180910390f35b3480156103da575f80fd5b506103f560048036038101906103f091906142ca565b611964565b005b348015610402575f80fd5b5061041d60048036038101906104189190613b7f565b611cb9565b60405161042a9190614334565b60405180910390f35b34801561043e575f80fd5b5061045960048036038101906104549190614377565b611cd6565b005b348015610466575f80fd5b50610481600480360381019061047c9190613db3565b611e32565b60405161048e91906143b5565b60405180910390f35b3480156104a2575f80fd5b506104bd60048036038101906104b891906143ce565b611e82565b005b3480156104ca575f80fd5b506104d36120bd565b6040516104e09190614464565b60405180910390f35b61050360048036038101906104fe919061447d565b6120e2565b005b348015610510575f80fd5b5061052b600480360381019061052691906144fd565b6128b8565b005b348015610538575f80fd5b50610553600480360381019061054e9190613b7f565b612918565b604051610564959493929190614557565b60405180910390f35b348015610578575f80fd5b50610593600480360381019061058e91906145bd565b612ae8565b005b3480156105a0575f80fd5b506105bb60048036038101906105b69190614691565b612c48565b005b3480156105c8575f80fd5b506105d1612e3b565b6040516105de91906143b5565b60405180910390f35b3480156105f2575f80fd5b5061060d600480360381019061060891906146cf565b612e82565b60405161061a9190614464565b60405180910390f35b34801561062e575f80fd5b5061064960048036038101906106449190613b7f565b612eca565b604051610656919061472e565b60405180910390f35b61067960048036038101906106749190614377565b612edf565b005b348015610686575f80fd5b5061068f6130db565b005b6106ab60048036038101906106a69190614747565b61325b565b005b60018060028111156106c2576106c1613ded565b5b60045f3373ffffffffffffffffffffffffffffffffffffffff1673ffffffffffffffffffffffffffffffffffffffff1681526020019081526020015f206003015f9054906101000a900460ff16600281111561072157610720613ded565b5b14610761576040517f08c379a00000000000000000000000000000000000000000000000000000000081526004016107589061481b565b60405180910390fd5b5f6040518060c001604052805f81526020013373ffffffffffffffffffffffffffffffffffffffff16815260200188815260200187815260200186868080601f0160208091040260200160405190810160405280939291908181526020018383808284375f81840152601f19601f82011690508083019250505050505050815260200184815250905060065f3373ffffffffffffffffffffffffffffffffffffffff1673ffffffffffffffffffffffffffffffffffffffff1681526020019081526020015f2081908060018154018082558091505060019003905f5260205f2090600602015f909190919091505f820151815f01556020820151816001015f6101000a81548173ffffffffffffffffffffffffffffffffffffffff021916908373ffffffffffffffffffffffffffffffffffffffff160217905550604082015181600201556060820151816003015560808201518160040190816108c59190614a33565b5060a08201518160050155505050505050505050565b606060065f8373ffffffffffffffffffffffffffffffffffffffff1673ffffffffffffffffffffffffffffffffffffffff1681526020019081526020015f20805480602002602001604051908101604052809291908181526020015f905b82821015610a75578382905f5260205f2090600602016040518060c00160405290815f8201548152602001600182015f9054906101000a900473ffffffffffffffffffffffffffffffffffffffff1673ffffffffffffffffffffffffffffffffffffffff1673ffffffffffffffffffffffffffffffffffffffff16815260200160028201548152602001600382015481526020016004820180546109dc90614866565b80601f0160208091040260200160405190810160405280929190818152602001828054610a0890614866565b8015610a535780601f10610a2a57610100808354040283529160200191610a53565b820191905f5260205f20905b815481529060010190602001808311610a3657829003601f168201915b5050505050815260200160058201548152505081526020019060010190610939565b505050509050919050565b60028181548110610a8f575f80fd5b905f5260205f2090600502015f91509050805f015f9054906101000a900473ffffffffffffffffffffffffffffffffffffffff1690806001015f9054906101000a900473ffffffffffffffffffffffffffffffffffffffff16908060010160149054906101000a900460ff1690806002018054610b0b90614866565b80601f0160208091040260200160405190810160405280929190818152602001828054610b3790614866565b8015610b825780601f10610b5957610100808354040283529160200191610b82565b820191905f5260205f20905b815481529060010190602001808311610b6557829003601f168201915b5050505050908060030154908060040154905086565b6007602052815f5260405f208181548110610bb1575f80fd5b905f5260205f2090600602015f9150915050805f015490806001015f9054906101000a900473ffffffffffffffffffffffffffffffffffffffff1690806002015490806003015490806004018054610c0890614866565b80601f0160208091040260200160405190810160405280929190818152602001828054610c3490614866565b8015610c7f5780601f10610c5657610100808354040283529160200191610c7f565b820191905f5260205f20905b815481529060010190602001808311610c6257829003601f168201915b5050505050908060050154905086565b6005602052815f5260405f208181548110610ca8575f80fd5b905f5260205f2090600602015f9150915050805f015490806001015f9054906101000a900473ffffffffffffffffffffffffffffffffffffffff1690806002015490806003015490806004018054610cff90614866565b80601f0160208091040260200160405190810160405280929190818152602001828054610d2b90614866565b8015610d765780601f10610d4d57610100808354040283529160200191610d76565b820191905f5260205f20905b815481529060010190602001808311610d5957829003601f168201915b5050505050908060050154905086565b5f805f90505f5b60055f3373ffffffffffffffffffffffffffffffffffffffff1673ffffffffffffffffffffffffffffffffffffffff1681526020019081526020015f2080549050811015610f015760065f8673ffffffffffffffffffffffffffffffffffffffff1673ffffffffffffffffffffffffffffffffffffffff1681526020019081526020015f208481548110610e2457610e23614b02565b5b905f5260205f209060060201600401604051602001610e439190614bb0565b6040516020818303038152906040528051906020012060055f3373ffffffffffffffffffffffffffffffffffffffff1673ffffffffffffffffffffffffffffffffffffffff1681526020019081526020015f208281548110610ea857610ea7614b02565b5b905f5260205f209060060201600401604051602001610ec79190614bb0565b6040516020818303038152906040528051906020012003610eee5780925060019150610f01565b8080610ef990614bfd565b915050610d8d565b5080610f0b575f80fd5b60065f8573ffffffffffffffffffffffffffffffffffffffff1673ffffffffffffffffffffffffffffffffffffffff1681526020019081526020015f208381548110610f5a57610f59614b02565b5b905f5260205f2090600602016005015460055f3373ffffffffffffffffffffffffffffffffffffffff1673ffffffffffffffffffffffffffffffffffffffff1681526020019081526020015f208381548110610fb957610fb8614b02565b5b905f5260205f2090600602016005015411610fd2575f80fd5b5f60065f8673ffffffffffffffffffffffffffffffffffffffff1673ffffffffffffffffffffffffffffffffffffffff1681526020019081526020015f20848154811061102257611021614b02565b5b905f5260205f2090600602016003015460055f3373ffffffffffffffffffffffffffffffffffffffff1673ffffffffffffffffffffffffffffffffffffffff1681526020019081526020015f20848154811061108157611080614b02565b5b905f5260205f2090600602016002015461109b9190614c44565b905060055f3373ffffffffffffffffffffffffffffffffffffffff1673ffffffffffffffffffffffffffffffffffffffff1681526020019081526020015f2083815481106110ec576110eb614b02565b5b905f5260205f2090600602016002015460065f8773ffffffffffffffffffffffffffffffffffffffff1673ffffffffffffffffffffffffffffffffffffffff1681526020019081526020015f20858154811061114b5761114a614b02565b5b905f5260205f2090600602016002015f8282546111689190614c85565b9250508190555060055f3373ffffffffffffffffffffffffffffffffffffffff1673ffffffffffffffffffffffffffffffffffffffff1681526020019081526020015f2083815481106111be576111bd614b02565b5b905f5260205f2090600602015f8082015f9055600182015f6101000a81549073ffffffffffffffffffffffffffffffffffffffff0219169055600282015f9055600382015f9055600482015f6112149190613965565b600582015f905550508060045f8773ffffffffffffffffffffffffffffffffffffffff1673ffffffffffffffffffffffffffffffffffffffff1681526020019081526020015f206004015f82825461126c9190614cb8565b925050819055503373ffffffffffffffffffffffffffffffffffffffff166108fc8290811502906040515f60405180830381858888f193505050501580156112b6573d5f803e3d5ffd5b505050505050565b6006602052815f5260405f2081815481106112d7575f80fd5b905f5260205f2090600602015f9150915050805f015490806001015f9054906101000a900473ffffffffffffffffffffffffffffffffffffffff169080600201549080600301549080600401805461132e90614866565b80601f016020809104026020016040519081016040528092919081815260200182805461135a90614866565b80156113a55780601f1061137c576101008083540402835291602001916113a5565b820191905f5260205f20905b81548152906001019060200180831161138857829003601f168201915b5050505050908060050154905086565b5f81815481106113c3575f80fd5b905f5260205f20015f91509050805f015f9054906101000a900473ffffffffffffffffffffffffffffffffffffffff1690805f0160149054906101000a900460ff16905082565b60035f3373ffffffffffffffffffffffffffffffffffffffff1673ffffffffffffffffffffffffffffffffffffffff1681526020019081526020015f205f9054906101000a900460ff161561145d575f80fd5b5f60405180604001604052803373ffffffffffffffffffffffffffffffffffffffff16815260200183600281111561149857611497613ded565b5b815250908060018154018082558091505060019003905f5260205f20015f909190919091505f820151815f015f6101000a81548173ffffffffffffffffffffffffffffffffffffffff021916908373ffffffffffffffffffffffffffffffffffffffff1602179055506020820151815f0160146101000a81548160ff0219169083600281111561152b5761152a613ded565b5b02179055505050600160035f3373ffffffffffffffffffffffffffffffffffffffff1673ffffffffffffffffffffffffffffffffffffffff1681526020019081526020015f205f6101000a81548160ff02191690831515021790555050565b6115926139a2565b5f60045f3373ffffffffffffffffffffffffffffffffffffffff1673ffffffffffffffffffffffffffffffffffffffff1681526020019081526020015f205f0180546115dd90614866565b80601f016020809104026020016040519081016040528092919081815260200182805461160990614866565b80156116545780601f1061162b57610100808354040283529160200191611654565b820191905f5260205f20905b81548152906001019060200180831161163757829003601f168201915b505050505090508060405160200161166c9190614d25565b60405160208183030381529060405280519060200120846040516020016116939190614d25565b60405160208183030381529060405280519060200120146116b2575f80fd5b60095f3373ffffffffffffffffffffffffffffffffffffffff1673ffffffffffffffffffffffffffffffffffffffff1681526020019081526020015f2054836040516020016117019190614d3b565b6040516020818303038152906040528051906020012014611720575f80fd5b60045f3373ffffffffffffffffffffffffffffffffffffffff1673ffffffffffffffffffffffffffffffffffffffff1681526020019081526020015f206040518060a00160405290815f8201805461177790614866565b80601f01602080910402602001604051908101604052809291908181526020018280546117a390614866565b80156117ee5780601f106117c5576101008083540402835291602001916117ee565b820191905f5260205f20905b8154815290600101906020018083116117d157829003601f168201915b5050505050815260200160018201805461180790614866565b80601f016020809104026020016040519081016040528092919081815260200182805461183390614866565b801561187e5780601f106118555761010080835404028352916020019161187e565b820191905f5260205f20905b81548152906001019060200180831161186157829003601f168201915b5050505050815260200160028201805461189790614866565b80601f01602080910402602001604051908101604052809291908181526020018280546118c390614866565b801561190e5780601f106118e55761010080835404028352916020019161190e565b820191905f5260205f20905b8154815290600101906020018083116118f157829003601f168201915b50505050508152602001600382015f9054906101000a900460ff16600281111561193b5761193a613ded565b5b600281111561194d5761194c613ded565b5b815260200160048201548152505091505092915050565b5f81116119a6576040517f08c379a000000000000000000000000000000000000000000000000000000000815260040161199d90614dcb565b60405180910390fd5b60065f8473ffffffffffffffffffffffffffffffffffffffff1673ffffffffffffffffffffffffffffffffffffffff1681526020019081526020015f20805490508210611a28576040517f08c379a0000000000000000000000000000000000000000000000000000000008152600401611a1f90614e33565b60405180910390fd5b5f60065f8573ffffffffffffffffffffffffffffffffffffffff1673ffffffffffffffffffffffffffffffffffffffff1681526020019081526020015f208381548110611a7857611a77614b02565b5b905f5260205f2090600602016004018054611a9290614866565b80601f0160208091040260200160405190810160405280929190818152602001828054611abe90614866565b8015611b095780601f10611ae057610100808354040283529160200191611b09565b820191905f5260205f20905b815481529060010190602001808311611aec57829003601f168201915b505050505090505f81604051602001611b229190614e9d565b60405160208183030381529060405290505f6040518060c001604052803373ffffffffffffffffffffffffffffffffffffffff1681526020018773ffffffffffffffffffffffffffffffffffffffff16815260200160016003811115611b8b57611b8a613ded565b5b8152602001838152602001868152602001858152509050600281908060018154018082558091505060019003905f5260205f2090600502015f909190919091505f820151815f015f6101000a81548173ffffffffffffffffffffffffffffffffffffffff021916908373ffffffffffffffffffffffffffffffffffffffff1602179055506020820151816001015f6101000a81548173ffffffffffffffffffffffffffffffffffffffff021916908373ffffffffffffffffffffffffffffffffffffffff16021790555060408201518160010160146101000a81548160ff02191690836003811115611c8057611c7f613ded565b5b02179055506060820151816002019081611c9a9190614a33565b506080820151816003015560a082015181600401555050505050505050565b6003602052805f5260405f205f915054906101000a900460ff1681565b6001806002811115611ceb57611cea613ded565b5b60045f3373ffffffffffffffffffffffffffffffffffffffff1673ffffffffffffffffffffffffffffffffffffffff1681526020019081526020015f206003015f9054906101000a900460ff166002811115611d4a57611d49613ded565b5b14611d8a576040517f08c379a0000000000000000000000000000000000000000000000000000000008152600401611d819061481b565b60405180910390fd5b8215611de157600160028381548110611da657611da5614b02565b5b905f5260205f20906005020160010160146101000a81548160ff02191690836003811115611dd757611dd6613ded565b5b0217905550611e2d565b6002808381548110611df657611df5614b02565b5b905f5260205f20906005020160010160146101000a81548160ff02191690836003811115611e2757611e26613ded565b5b02179055505b505050565b5f808080611e3f90614bfd565b91505082423383604051602001611e5893929190614f36565b604051602081830303815290604052805190602001205f1c611e7a9190614f9f565b915050919050565b6002806002811115611e9757611e96613ded565b5b60045f3373ffffffffffffffffffffffffffffffffffffffff1673ffffffffffffffffffffffffffffffffffffffff1681526020019081526020015f206003015f9054906101000a900460ff166002811115611ef657611ef5613ded565b5b14611f36576040517f08c379a0000000000000000000000000000000000000000000000000000000008152600401611f2d9061481b565b60405180910390fd5b5f6040518060c001604052805f81526020018473ffffffffffffffffffffffffffffffffffffffff168152602001898152602001600289611f779190614fcf565b815260200187878080601f0160208091040260200160405190810160405280939291908181526020018383808284375f81840152601f19601f82011690508083019250505050505050815260200185815250905060075f8473ffffffffffffffffffffffffffffffffffffffff1673ffffffffffffffffffffffffffffffffffffffff1681526020019081526020015f2081908060018154018082558091505060019003905f5260205f2090600602015f909190919091505f820151815f01556020820151816001015f6101000a81548173ffffffffffffffffffffffffffffffffffffffff021916908373ffffffffffffffffffffffffffffffffffffffff160217905550604082015181600201556060820151816003015560808201518160040190816120a69190614a33565b5060a0820151816005015550505050505050505050565b60015f9054906101000a900473ffffffffffffffffffffffffffffffffffffffff1681565b5f8311612124576040517f08c379a000000000000000000000000000000000000000000000000000000000815260040161211b90614dcb565b60405180910390fd5b60065f8573ffffffffffffffffffffffffffffffffffffffff1673ffffffffffffffffffffffffffffffffffffffff1681526020019081526020015f208054905082106121a6576040517f08c379a000000000000000000000000000000000000000000000000000000000815260040161219d90614e33565b60405180910390fd5b60065f8573ffffffffffffffffffffffffffffffffffffffff1673ffffffffffffffffffffffffffffffffffffffff1681526020019081526020015f2082815481106121f5576121f4614b02565b5b905f5260205f20906006020160020154831115612247576040517f08c379a000000000000000000000000000000000000000000000000000000000815260040161223e90615049565b60405180910390fd5b5f60065f8673ffffffffffffffffffffffffffffffffffffffff1673ffffffffffffffffffffffffffffffffffffffff1681526020019081526020015f20838154811061229757612296614b02565b5b905f5260205f20906006020160030154846122b29190614c44565b90503373ffffffffffffffffffffffffffffffffffffffff166008836040516122db9190614d25565b90815260200160405180910390205f9054906101000a900473ffffffffffffffffffffffffffffffffffffffff1673ffffffffffffffffffffffffffffffffffffffff160361239c576064605a826123339190614c44565b61233d9190614fcf565b90505f6008836040516123509190614d25565b90815260200160405180910390205f6101000a81548173ffffffffffffffffffffffffffffffffffffffff021916908373ffffffffffffffffffffffffffffffffffffffff1602179055505b803410156123df576040517f08c379a00000000000000000000000000000000000000000000000000000000081526004016123d6906150b1565b60405180910390fd5b5f805b60055f3373ffffffffffffffffffffffffffffffffffffffff1673ffffffffffffffffffffffffffffffffffffffff1681526020019081526020015f20805490508110156125c75760065f8873ffffffffffffffffffffffffffffffffffffffff1673ffffffffffffffffffffffffffffffffffffffff1681526020019081526020015f20858154811061247957612478614b02565b5b905f5260205f2090600602016004016040516020016124989190614bb0565b6040516020818303038152906040528051906020012060055f3373ffffffffffffffffffffffffffffffffffffffff1673ffffffffffffffffffffffffffffffffffffffff1681526020019081526020015f2082815481106124fd576124fc614b02565b5b905f5260205f20906006020160040160405160200161251c9190614bb0565b60405160208183030381529060405280519060200120036125b4578560055f3373ffffffffffffffffffffffffffffffffffffffff1673ffffffffffffffffffffffffffffffffffffffff1681526020019081526020015f20828154811061258757612586614b02565b5b905f5260205f2090600602016002015f8282546125a49190614c85565b92505081905550600191506125c7565b80806125bf90614bfd565b9150506123e2565b50806127e65760055f3373ffffffffffffffffffffffffffffffffffffffff1673ffffffffffffffffffffffffffffffffffffffff1681526020019081526020015f206040518060c001604052808681526020018873ffffffffffffffffffffffffffffffffffffffff16815260200187815260200134815260200160065f8a73ffffffffffffffffffffffffffffffffffffffff1673ffffffffffffffffffffffffffffffffffffffff1681526020019081526020015f20878154811061269257612691614b02565b5b905f5260205f20906006020160040180546126ac90614866565b80601f01602080910402602001604051908101604052809291908181526020018280546126d890614866565b80156127235780601f106126fa57610100808354040283529160200191612723565b820191905f5260205f20905b81548152906001019060200180831161270657829003601f168201915b505050505081526020016127386103e8611e32565b815250908060018154018082558091505060019003905f5260205f2090600602015f909190919091505f820151815f01556020820151816001015f6101000a81548173ffffffffffffffffffffffffffffffffffffffff021916908373ffffffffffffffffffffffffffffffffffffffff160217905550604082015181600201556060820151816003015560808201518160040190816127d89190614a33565b5060a0820151816005015550505b8460065f8873ffffffffffffffffffffffffffffffffffffffff1673ffffffffffffffffffffffffffffffffffffffff1681526020019081526020015f20858154811061283657612835614b02565b5b905f5260205f2090600602016002015f8282546128539190614cb8565b925050819055508160045f8873ffffffffffffffffffffffffffffffffffffffff1673ffffffffffffffffffffffffffffffffffffffff1681526020019081526020015f206004015f8282546128a99190614c85565b92505081905550505050505050565b806008836040516128c99190614d25565b90815260200160405180910390205f6101000a81548173ffffffffffffffffffffffffffffffffffffffff021916908373ffffffffffffffffffffffffffffffffffffffff1602179055505050565b6004602052805f5260405f205f91509050805f01805461293790614866565b80601f016020809104026020016040519081016040528092919081815260200182805461296390614866565b80156129ae5780601f10612985576101008083540402835291602001916129ae565b820191905f5260205f20905b81548152906001019060200180831161299157829003601f168201915b5050505050908060010180546129c390614866565b80601f01602080910402602001604051908101604052809291908181526020018280546129ef90614866565b8015612a3a5780601f10612a1157610100808354040283529160200191612a3a565b820191905f5260205f20905b815481529060010190602001808311612a1d57829003601f168201915b505050505090806002018054612a4f90614866565b80601f0160208091040260200160405190810160405280929190818152602001828054612a7b90614866565b8015612ac65780601f10612a9d57610100808354040283529160200191612ac6565b820191905f5260205f20905b815481529060010190602001808311612aa957829003601f168201915b505050505090806003015f9054906101000a900460ff16908060040154905085565b6040518060a001604052808581526020018481526020018381526020015f6002811115612b1857612b17613ded565b5b81526020015f81525060045f3373ffffffffffffffffffffffffffffffffffffffff1673ffffffffffffffffffffffffffffffffffffffff1681526020019081526020015f205f820151815f019081612b719190614a33565b506020820151816001019081612b879190614a33565b506040820151816002019081612b9d9190614a33565b506060820151816003015f6101000a81548160ff02191690836002811115612bc857612bc7613ded565b5b02179055506080820151816004015590505080604051602001612beb9190614d3b565b6040516020818303038152906040528051906020012060095f3373ffffffffffffffffffffffffffffffffffffffff1673ffffffffffffffffffffffffffffffffffffffff1681526020019081526020015f208190555050505050565b60015f9054906101000a900473ffffffffffffffffffffffffffffffffffffffff1673ffffffffffffffffffffffffffffffffffffffff163373ffffffffffffffffffffffffffffffffffffffff1614612ca0575f80fd5b5f805490508210612caf575f80fd5b5f808381548110612cc357612cc2614b02565b5b905f5260205f20015f015f9054906101000a900473ffffffffffffffffffffffffffffffffffffffff1690505f808481548110612d0357612d02614b02565b5b905f5260205f20015f0160149054906101000a900460ff1690508215612d8b578060045f8473ffffffffffffffffffffffffffffffffffffffff1673ffffffffffffffffffffffffffffffffffffffff1681526020019081526020015f206003015f6101000a81548160ff02191690836002811115612d8557612d84613ded565b5b02179055505b5f60035f8473ffffffffffffffffffffffffffffffffffffffff1673ffffffffffffffffffffffffffffffffffffffff1681526020019081526020015f205f6101000a81548160ff0219169083151502179055505f8481548110612df257612df1614b02565b5b905f5260205f20015f8082015f6101000a81549073ffffffffffffffffffffffffffffffffffffffff02191690555f820160146101000a81549060ff0219169055505050505050565b5f60055f3373ffffffffffffffffffffffffffffffffffffffff1673ffffffffffffffffffffffffffffffffffffffff1681526020019081526020015f2080549050905090565b6008818051602081018201805184825260208301602085012081835280955050505050505f915054906101000a900473ffffffffffffffffffffffffffffffffffffffff1681565b6009602052805f5260405f205f915090505481565b5f806002811115612ef357612ef2613ded565b5b60045f3373ffffffffffffffffffffffffffffffffffffffff1673ffffffffffffffffffffffffffffffffffffffff1681526020019081526020015f206003015f9054906101000a900460ff166002811115612f5257612f51613ded565b5b14612f92576040517f08c379a0000000000000000000000000000000000000000000000000000000008152600401612f899061481b565b60405180910390fd5b60016003811115612fa657612fa5613ded565b5b60028381548110612fba57612fb9614b02565b5b905f5260205f20906005020160010160149054906101000a900460ff166003811115612fe957612fe8613ded565b5b14612ff2575f80fd5b821561307c576130776002838154811061300f5761300e614b02565b5b905f5260205f2090600502016001015f9054906101000a900473ffffffffffffffffffffffffffffffffffffffff166002848154811061305257613051614b02565b5b905f5260205f209060050201600401548460405180602001604052805f8152506120e2565b6130d6565b600260038111156130905761308f613ded565b5b600283815481106130a4576130a3614b02565b5b905f5260205f20906005020160010160149054906101000a900460ff1660038111156130d3576130d2613ded565b5b50505b505050565b60018060028111156130f0576130ef613ded565b5b60045f3373ffffffffffffffffffffffffffffffffffffffff1673ffffffffffffffffffffffffffffffffffffffff1681526020019081526020015f206003015f9054906101000a900460ff16600281111561314f5761314e613ded565b5b1461318f576040517f08c379a00000000000000000000000000000000000000000000000000000000081526004016131869061481b565b60405180910390fd5b3373ffffffffffffffffffffffffffffffffffffffff166108fc60045f3373ffffffffffffffffffffffffffffffffffffffff1673ffffffffffffffffffffffffffffffffffffffff1681526020019081526020015f206004015490811502906040515f60405180830381858888f19350505050158015613212573d5f803e3d5ffd5b505f60045f3373ffffffffffffffffffffffffffffffffffffffff1673ffffffffffffffffffffffffffffffffffffffff1681526020019081526020015f206004018190555050565b60018060028111156132705761326f613ded565b5b60045f3373ffffffffffffffffffffffffffffffffffffffff1673ffffffffffffffffffffffffffffffffffffffff1681526020019081526020015f206003015f9054906101000a900460ff1660028111156132cf576132ce613ded565b5b1461330f576040517f08c379a00000000000000000000000000000000000000000000000000000000081526004016133069061481b565b60405180910390fd5b5f8311613351576040517f08c379a000000000000000000000000000000000000000000000000000000000815260040161334890614dcb565b60405180910390fd5b60075f8373ffffffffffffffffffffffffffffffffffffffff1673ffffffffffffffffffffffffffffffffffffffff1681526020019081526020015f208054905084106133d3576040517f08c379a00000000000000000000000000000000000000000000000000000000081526004016133ca90614e33565b60405180910390fd5b5f60075f8473ffffffffffffffffffffffffffffffffffffffff1673ffffffffffffffffffffffffffffffffffffffff1681526020019081526020015f20858154811061342357613422614b02565b5b905f5260205f2090600602016003015490505f84826134429190614c44565b905080341015613487576040517f08c379a000000000000000000000000000000000000000000000000000000000815260040161347e906150b1565b60405180910390fd5b5f60075f8673ffffffffffffffffffffffffffffffffffffffff1673ffffffffffffffffffffffffffffffffffffffff1681526020019081526020015f2087815481106134d7576134d6614b02565b5b905f5260205f20906006020160040180546134f190614866565b80601f016020809104026020016040519081016040528092919081815260200182805461351d90614866565b80156135685780601f1061353f57610100808354040283529160200191613568565b820191905f5260205f20905b81548152906001019060200180831161354b57829003601f168201915b505050505090505f805b60065f8b73ffffffffffffffffffffffffffffffffffffffff1673ffffffffffffffffffffffffffffffffffffffff1681526020019081526020015f20805490508110156136fa5760065f8b73ffffffffffffffffffffffffffffffffffffffff1673ffffffffffffffffffffffffffffffffffffffff1681526020019081526020015f20818154811061360957613608614b02565b5b905f5260205f2090600602016004016040516020016136289190614bb0565b604051602081830303815290604052805190602001208360405160200161364f9190614d3b565b60405160208183030381529060405280519060200120036136e7578760065f8c73ffffffffffffffffffffffffffffffffffffffff1673ffffffffffffffffffffffffffffffffffffffff1681526020019081526020015f2082815481106136ba576136b9614b02565b5b905f5260205f2090600602016002015f8282546136d79190614c85565b92505081905550600191506136fa565b80806136f290614bfd565b915050613572565b508061388e575f6040518060c001604052805f81526020018873ffffffffffffffffffffffffffffffffffffffff16815260200189815260200186815260200184815260200160075f8a73ffffffffffffffffffffffffffffffffffffffff1673ffffffffffffffffffffffffffffffffffffffff1681526020019081526020015f208b8154811061378f5761378e614b02565b5b905f5260205f20906006020160050154815250905060065f8b73ffffffffffffffffffffffffffffffffffffffff1673ffffffffffffffffffffffffffffffffffffffff1681526020019081526020015f2081908060018154018082558091505060019003905f5260205f2090600602015f909190919091505f820151815f01556020820151816001015f6101000a81548173ffffffffffffffffffffffffffffffffffffffff021916908373ffffffffffffffffffffffffffffffffffffffff1602179055506040820151816002015560608201518160030155608082015181600401908161387f9190614a33565b5060a082015181600501555050505b8660075f8873ffffffffffffffffffffffffffffffffffffffff1673ffffffffffffffffffffffffffffffffffffffff1681526020019081526020015f2089815481106138de576138dd614b02565b5b905f5260205f2090600602016002015f8282546138fb9190614cb8565b925050819055508234111561395a573373ffffffffffffffffffffffffffffffffffffffff166108fc84346139309190614cb8565b90811502906040515f60405180830381858888f19350505050158015613958573d5f803e3d5ffd5b505b505050505050505050565b50805461397190614866565b5f825580601f10613982575061399f565b601f0160209004905f5260205f209081019061399e91906139e1565b5b50565b6040518060a001604052806060815260200160608152602001606081526020015f60028111156139d5576139d4613ded565b5b81526020015f81525090565b5b808211156139f8575f815f9055506001016139e2565b5090565b5f604051905090565b5f80fd5b5f80fd5b5f819050919050565b613a1f81613a0d565b8114613a29575f80fd5b50565b5f81359050613a3a81613a16565b92915050565b5f80fd5b5f80fd5b5f80fd5b5f8083601f840112613a6157613a60613a40565b5b8235905067ffffffffffffffff811115613a7e57613a7d613a44565b5b602083019150836001820283011115613a9a57613a99613a48565b5b9250929050565b5f805f805f60808688031215613aba57613ab9613a05565b5b5f613ac788828901613a2c565b9550506020613ad888828901613a2c565b945050604086013567ffffffffffffffff811115613af957613af8613a09565b5b613b0588828901613a4c565b93509350506060613b1888828901613a2c565b9150509295509295909350565b5f73ffffffffffffffffffffffffffffffffffffffff82169050919050565b5f613b4e82613b25565b9050919050565b613b5e81613b44565b8114613b68575f80fd5b50565b5f81359050613b7981613b55565b92915050565b5f60208284031215613b9457613b93613a05565b5b5f613ba184828501613b6b565b91505092915050565b5f81519050919050565b5f82825260208201905092915050565b5f819050602082019050919050565b613bdc81613a0d565b82525050565b613beb81613b44565b82525050565b5f81519050919050565b5f82825260208201905092915050565b5f5b83811015613c28578082015181840152602081019050613c0d565b5f8484015250505050565b5f601f19601f8301169050919050565b5f613c4d82613bf1565b613c578185613bfb565b9350613c67818560208601613c0b565b613c7081613c33565b840191505092915050565b5f60c083015f830151613c905f860182613bd3565b506020830151613ca36020860182613be2565b506040830151613cb66040860182613bd3565b506060830151613cc96060860182613bd3565b5060808301518482036080860152613ce18282613c43565b91505060a0830151613cf660a0860182613bd3565b508091505092915050565b5f613d0c8383613c7b565b905092915050565b5f602082019050919050565b5f613d2a82613baa565b613d348185613bb4565b935083602082028501613d4685613bc4565b805f5b85811015613d815784840389528151613d628582613d01565b9450613d6d83613d14565b925060208a01995050600181019050613d49565b50829750879550505050505092915050565b5f6020820190508181035f830152613dab8184613d20565b905092915050565b5f60208284031215613dc857613dc7613a05565b5b5f613dd584828501613a2c565b91505092915050565b613de781613b44565b82525050565b7f4e487b71000000000000000000000000000000000000000000000000000000005f52602160045260245ffd5b60048110613e2b57613e2a613ded565b5b50565b5f819050613e3b82613e1a565b919050565b5f613e4a82613e2e565b9050919050565b613e5a81613e40565b82525050565b5f82825260208201905092915050565b5f613e7a82613bf1565b613e848185613e60565b9350613e94818560208601613c0b565b613e9d81613c33565b840191505092915050565b613eb181613a0d565b82525050565b5f60c082019050613eca5f830189613dde565b613ed76020830188613dde565b613ee46040830187613e51565b8181036060830152613ef68186613e70565b9050613f056080830185613ea8565b613f1260a0830184613ea8565b979650505050505050565b5f8060408385031215613f3357613f32613a05565b5b5f613f4085828601613b6b565b9250506020613f5185828601613a2c565b9150509250929050565b5f60c082019050613f6e5f830189613ea8565b613f7b6020830188613dde565b613f886040830187613ea8565b613f956060830186613ea8565b8181036080830152613fa78185613e70565b9050613fb660a0830184613ea8565b979650505050505050565b60038110613fd257613fd1613ded565b5b50565b5f819050613fe282613fc1565b919050565b5f613ff182613fd5565b9050919050565b61400181613fe7565b82525050565b5f60408201905061401a5f830185613dde565b6140276020830184613ff8565b9392505050565b6003811061403a575f80fd5b50565b5f8135905061404b8161402e565b92915050565b5f6020828403121561406657614065613a05565b5b5f6140738482850161403d565b91505092915050565b5f80fd5b7f4e487b71000000000000000000000000000000000000000000000000000000005f52604160045260245ffd5b6140b682613c33565b810181811067ffffffffffffffff821117156140d5576140d4614080565b5b80604052505050565b5f6140e76139fc565b90506140f382826140ad565b919050565b5f67ffffffffffffffff82111561411257614111614080565b5b61411b82613c33565b9050602081019050919050565b828183375f83830152505050565b5f614148614143846140f8565b6140de565b9050828152602081018484840111156141645761416361407c565b5b61416f848285614128565b509392505050565b5f82601f83011261418b5761418a613a40565b5b813561419b848260208601614136565b91505092915050565b5f80604083850312156141ba576141b9613a05565b5b5f83013567ffffffffffffffff8111156141d7576141d6613a09565b5b6141e385828601614177565b925050602083013567ffffffffffffffff81111561420457614203613a09565b5b61421085828601614177565b9150509250929050565b61422381613fe7565b82525050565b5f60a083015f8301518482035f8601526142438282613c43565b9150506020830151848203602086015261425d8282613c43565b915050604083015184820360408601526142778282613c43565b915050606083015161428c606086018261421a565b50608083015161429f6080860182613bd3565b508091505092915050565b5f6020820190508181035f8301526142c28184614229565b905092915050565b5f805f606084860312156142e1576142e0613a05565b5b5f6142ee86828701613b6b565b93505060206142ff86828701613a2c565b925050604061431086828701613a2c565b9150509250925092565b5f8115159050919050565b61432e8161431a565b82525050565b5f6020820190506143475f830184614325565b92915050565b6143568161431a565b8114614360575f80fd5b50565b5f813590506143718161434d565b92915050565b5f806040838503121561438d5761438c613a05565b5b5f61439a85828601614363565b92505060206143ab85828601613a2c565b9150509250929050565b5f6020820190506143c85f830184613ea8565b92915050565b5f805f805f8060a087890312156143e8576143e7613a05565b5b5f6143f589828a01613a2c565b965050602061440689828a01613a2c565b955050604087013567ffffffffffffffff81111561442757614426613a09565b5b61443389828a01613a4c565b9450945050606061444689828a01613a2c565b925050608061445789828a01613b6b565b9150509295509295509295565b5f6020820190506144775f830184613dde565b92915050565b5f805f806080858703121561449557614494613a05565b5b5f6144a287828801613b6b565b94505060206144b387828801613a2c565b93505060406144c487828801613a2c565b925050606085013567ffffffffffffffff8111156144e5576144e4613a09565b5b6144f187828801614177565b91505092959194509250565b5f806040838503121561451357614512613a05565b5b5f83013567ffffffffffffffff8111156145305761452f613a09565b5b61453c85828601614177565b925050602061454d85828601613b6b565b9150509250929050565b5f60a0820190508181035f83015261456f8188613e70565b905081810360208301526145838187613e70565b905081810360408301526145978186613e70565b90506145a66060830185613ff8565b6145b36080830184613ea8565b9695505050505050565b5f805f80608085870312156145d5576145d4613a05565b5b5f85013567ffffffffffffffff8111156145f2576145f1613a09565b5b6145fe87828801614177565b945050602085013567ffffffffffffffff81111561461f5761461e613a09565b5b61462b87828801614177565b935050604085013567ffffffffffffffff81111561464c5761464b613a09565b5b61465887828801614177565b925050606085013567ffffffffffffffff81111561467957614678613a09565b5b61468587828801614177565b91505092959194509250565b5f80604083850312156146a7576146a6613a05565b5b5f6146b485828601613a2c565b92505060206146c585828601614363565b9150509250929050565b5f602082840312156146e4576146e3613a05565b5b5f82013567ffffffffffffffff81111561470157614700613a09565b5b61470d84828501614177565b91505092915050565b5f819050919050565b61472881614716565b82525050565b5f6020820190506147415f83018461471f565b92915050565b5f805f806080858703121561475f5761475e613a05565b5b5f61476c87828801613b6b565b945050602061477d87828801613a2c565b935050604061478e87828801613a2c565b925050606061479f87828801613b6b565b91505092959194509250565b7f596f757220726f6c6520646f6573206e6f7420616c6c6f7720746869732063685f8201527f616e676500000000000000000000000000000000000000000000000000000000602082015250565b5f614805602483613e60565b9150614810826147ab565b604082019050919050565b5f6020820190508181035f830152614832816147f9565b9050919050565b7f4e487b71000000000000000000000000000000000000000000000000000000005f52602260045260245ffd5b5f600282049050600182168061487d57607f821691505b6020821081036148905761488f614839565b5b50919050565b5f819050815f5260205f209050919050565b5f6020601f8301049050919050565b5f82821b905092915050565b5f600883026148f27fffffffffffffffffffffffffffffffffffffffffffffffffffffffffffffffff826148b7565b6148fc86836148b7565b95508019841693508086168417925050509392505050565b5f819050919050565b5f61493761493261492d84613a0d565b614914565b613a0d565b9050919050565b5f819050919050565b6149508361491d565b61496461495c8261493e565b8484546148c3565b825550505050565b5f90565b61497861496c565b614983818484614947565b505050565b5b818110156149a65761499b5f82614970565b600181019050614989565b5050565b601f8211156149eb576149bc81614896565b6149c5846148a8565b810160208510156149d4578190505b6149e86149e0856148a8565b830182614988565b50505b505050565b5f82821c905092915050565b5f614a0b5f19846008026149f0565b1980831691505092915050565b5f614a2383836149fc565b9150826002028217905092915050565b614a3c82613bf1565b67ffffffffffffffff811115614a5557614a54614080565b5b614a5f8254614866565b614a6a8282856149aa565b5f60209050601f831160018114614a9b575f8415614a89578287015190505b614a938582614a18565b865550614afa565b601f198416614aa986614896565b5f5b82811015614ad057848901518255600182019150602085019450602081019050614aab565b86831015614aed5784890151614ae9601f8916826149fc565b8355505b6001600288020188555050505b505050505050565b7f4e487b71000000000000000000000000000000000000000000000000000000005f52603260045260245ffd5b5f8154614b3b81614866565b614b458186613e60565b9450600182165f8114614b5f5760018114614b7557614ba7565b60ff198316865281151560200286019350614ba7565b614b7e85614896565b5f5b83811015614b9f57815481890152600182019150602081019050614b80565b808801955050505b50505092915050565b5f6020820190508181035f830152614bc88184614b2f565b905092915050565b7f4e487b71000000000000000000000000000000000000000000000000000000005f52601160045260245ffd5b5f614c0782613a0d565b91507fffffffffffffffffffffffffffffffffffffffffffffffffffffffffffffffff8203614c3957614c38614bd0565b5b600182019050919050565b5f614c4e82613a0d565b9150614c5983613a0d565b9250828202614c6781613a0d565b91508282048414831517614c7e57614c7d614bd0565b5b5092915050565b5f614c8f82613a0d565b9150614c9a83613a0d565b9250828201905080821115614cb257614cb1614bd0565b5b92915050565b5f614cc282613a0d565b9150614ccd83613a0d565b9250828203905081811115614ce557614ce4614bd0565b5b92915050565b5f81905092915050565b5f614cff82613bf1565b614d098185614ceb565b9350614d19818560208601613c0b565b80840191505092915050565b5f614d308284614cf5565b915081905092915050565b5f6020820190508181035f830152614d538184613e70565b905092915050565b7f507572636861736520616d6f756e74206d7573742062652067726561746572205f8201527f7468616e20300000000000000000000000000000000000000000000000000000602082015250565b5f614db5602683613e60565b9150614dc082614d5b565b604082019050919050565b5f6020820190508181035f830152614de281614da9565b9050919050565b7f496e76616c69642070726f6475637420494400000000000000000000000000005f82015250565b5f614e1d601283613e60565b9150614e2882614de9565b602082019050919050565b5f6020820190508181035f830152614e4a81614e11565b9050919050565b7f4141000000000000000000000000000000000000000000000000000000000000815250565b7f4242000000000000000000000000000000000000000000000000000000000000815250565b5f614ea782614e51565b600282019150614eb78284614cf5565b9150614ec282614e77565b60028201915081905092915050565b5f819050919050565b614eeb614ee682613a0d565b614ed1565b82525050565b5f8160601b9050919050565b5f614f0782614ef1565b9050919050565b5f614f1882614efd565b9050919050565b614f30614f2b82613b44565b614f0e565b82525050565b5f614f418286614eda565b602082019150614f518285614f1f565b601482019150614f618284614eda565b602082019150819050949350505050565b7f4e487b71000000000000000000000000000000000000000000000000000000005f52601260045260245ffd5b5f614fa982613a0d565b9150614fb483613a0d565b925082614fc457614fc3614f72565b5b828206905092915050565b5f614fd982613a0d565b9150614fe483613a0d565b925082614ff457614ff3614f72565b5b828204905092915050565b7f4e6f7420656e6f7567682073746f636b20617661696c61626c650000000000005f82015250565b5f615033601a83613e60565b915061503e82614fff565b602082019050919050565b5f6020820190508181035f83015261506081615027565b9050919050565b7f496e73756666696369656e742066756e64732073656e740000000000000000005f82015250565b5f61509b601783613e60565b91506150a682615067565b602082019050919050565b5f6020820190508181035f8301526150c88161508f565b905091905056fea264697066735822122020d3e3866058e251d0648b121260110200b72545480d31f0f48141e5dce4c45d64736f6c63430008150033",
					"opcodes": "PUSH1 0x80 PUSH1 0x40 MSTORE CALLVALUE DUP1 ISZERO PUSH2 0xF JUMPI PUSH0 DUP1 REVERT JUMPDEST POP CALLER PUSH1 0x1 PUSH0 PUSH2 0x100 EXP DUP2 SLOAD DUP2 PUSH20 0xFFFFFFFFFFFFFFFFFFFFFFFFFFFFFFFFFFFFFFFF MUL NOT AND SWAP1 DUP4 PUSH20 0xFFFFFFFFFFFFFFFFFFFFFFFFFFFFFFFFFFFFFFFF AND MUL OR SWAP1 SSTORE POP PUSH2 0x5105 DUP1 PUSH2 0x5D PUSH0 CODECOPY PUSH0 RETURN INVALID PUSH1 0x80 PUSH1 0x40 MSTORE PUSH1 0x4 CALLDATASIZE LT PUSH2 0x19A JUMPI PUSH0 CALLDATALOAD PUSH1 0xE0 SHR DUP1 PUSH4 0x805553E8 GT PUSH2 0xEB JUMPI DUP1 PUSH4 0xB66959D2 GT PUSH2 0x89 JUMPI DUP1 PUSH4 0xDA0D37E6 GT PUSH2 0x63 JUMPI DUP1 PUSH4 0xDA0D37E6 EQ PUSH2 0x623 JUMPI DUP1 PUSH4 0xDA76AF31 EQ PUSH2 0x65F JUMPI DUP1 PUSH4 0xF6364CC1 EQ PUSH2 0x67B JUMPI DUP1 PUSH4 0xFECD8F79 EQ PUSH2 0x691 JUMPI PUSH2 0x19A JUMP JUMPDEST DUP1 PUSH4 0xB66959D2 EQ PUSH2 0x595 JUMPI DUP1 PUSH4 0xD35E5D95 EQ PUSH2 0x5BD JUMPI DUP1 PUSH4 0xD55768DD EQ PUSH2 0x5E7 JUMPI PUSH2 0x19A JUMP JUMPDEST DUP1 PUSH4 0x9F1CD587 GT PUSH2 0xC5 JUMPI DUP1 PUSH4 0x9F1CD587 EQ PUSH2 0x4E9 JUMPI DUP1 PUSH4 0xA1BA90B6 EQ PUSH2 0x505 JUMPI DUP1 PUSH4 0xA87430BA EQ PUSH2 0x52D JUMPI DUP1 PUSH4 0xB17D8553 EQ PUSH2 0x56D JUMPI PUSH2 0x19A JUMP JUMPDEST DUP1 PUSH4 0x805553E8 EQ PUSH2 0x45B JUMPI DUP1 PUSH4 0x861C2B6D EQ PUSH2 0x497 JUMPI DUP1 PUSH4 0x8DA5CB5B EQ PUSH2 0x4BF JUMPI PUSH2 0x19A JUMP JUMPDEST DUP1 PUSH4 0x4F424547 GT PUSH2 0x158 JUMPI DUP1 PUSH4 0x58467DBC GT PUSH2 0x132 JUMPI DUP1 PUSH4 0x58467DBC EQ PUSH2 0x393 JUMPI DUP1 PUSH4 0x7555BF10 EQ PUSH2 0x3CF JUMPI DUP1 PUSH4 0x7E2CFF28 EQ PUSH2 0x3F7 JUMPI DUP1 PUSH4 0x7EB33A58 EQ PUSH2 0x433 JUMPI PUSH2 0x19A JUMP JUMPDEST DUP1 PUSH4 0x4F424547 EQ PUSH2 0x2ED JUMPI DUP1 PUSH4 0x50B44712 EQ PUSH2 0x32E JUMPI DUP1 PUSH4 0x55DEA0B3 EQ PUSH2 0x36B JUMPI PUSH2 0x19A JUMP JUMPDEST DUP1 PUSH3 0x8DE16A EQ PUSH2 0x19E JUMPI DUP1 PUSH4 0x1691473C EQ PUSH2 0x1C6 JUMPI DUP1 PUSH4 0x1CC11721 EQ PUSH2 0x202 JUMPI DUP1 PUSH4 0x27B90B1B EQ PUSH2 0x243 JUMPI DUP1 PUSH4 0x3D527883 EQ PUSH2 0x284 JUMPI DUP1 PUSH4 0x401176E3 EQ PUSH2 0x2C5 JUMPI JUMPDEST PUSH0 DUP1 REVERT JUMPDEST CALLVALUE DUP1 ISZERO PUSH2 0x1A9 JUMPI PUSH0 DUP1 REVERT JUMPDEST POP PUSH2 0x1C4 PUSH1 0x4 DUP1 CALLDATASIZE SUB DUP2 ADD SWAP1 PUSH2 0x1BF SWAP2 SWAP1 PUSH2 0x3AA1 JUMP JUMPDEST PUSH2 0x6AD JUMP JUMPDEST STOP JUMPDEST CALLVALUE DUP1 ISZERO PUSH2 0x1D1 JUMPI PUSH0 DUP1 REVERT JUMPDEST POP PUSH2 0x1EC PUSH1 0x4 DUP1 CALLDATASIZE SUB DUP2 ADD SWAP1 PUSH2 0x1E7 SWAP2 SWAP1 PUSH2 0x3B7F JUMP JUMPDEST PUSH2 0x8DB JUMP JUMPDEST PUSH1 0x40 MLOAD PUSH2 0x1F9 SWAP2 SWAP1 PUSH2 0x3D93 JUMP JUMPDEST PUSH1 0x40 MLOAD DUP1 SWAP2 SUB SWAP1 RETURN JUMPDEST CALLVALUE DUP1 ISZERO PUSH2 0x20D JUMPI PUSH0 DUP1 REVERT JUMPDEST POP PUSH2 0x228 PUSH1 0x4 DUP1 CALLDATASIZE SUB DUP2 ADD SWAP1 PUSH2 0x223 SWAP2 SWAP1 PUSH2 0x3DB3 JUMP JUMPDEST PUSH2 0xA80 JUMP JUMPDEST PUSH1 0x40 MLOAD PUSH2 0x23A SWAP7 SWAP6 SWAP5 SWAP4 SWAP3 SWAP2 SWAP1 PUSH2 0x3EB7 JUMP JUMPDEST PUSH1 0x40 MLOAD DUP1 SWAP2 SUB SWAP1 RETURN JUMPDEST CALLVALUE DUP1 ISZERO PUSH2 0x24E JUMPI PUSH0 DUP1 REVERT JUMPDEST POP PUSH2 0x269 PUSH1 0x4 DUP1 CALLDATASIZE SUB DUP2 ADD SWAP1 PUSH2 0x264 SWAP2 SWAP1 PUSH2 0x3F1D JUMP JUMPDEST PUSH2 0xB98 JUMP JUMPDEST PUSH1 0x40 MLOAD PUSH2 0x27B SWAP7 SWAP6 SWAP5 SWAP4 SWAP3 SWAP2 SWAP1 PUSH2 0x3F5B JUMP JUMPDEST PUSH1 0x40 MLOAD DUP1 SWAP2 SUB SWAP1 RETURN JUMPDEST CALLVALUE DUP1 ISZERO PUSH2 0x28F JUMPI PUSH0 DUP1 REVERT JUMPDEST POP PUSH2 0x2AA PUSH1 0x4 DUP1 CALLDATASIZE SUB DUP2 ADD SWAP1 PUSH2 0x2A5 SWAP2 SWAP1 PUSH2 0x3F1D JUMP JUMPDEST PUSH2 0xC8F JUMP JUMPDEST PUSH1 0x40 MLOAD PUSH2 0x2BC SWAP7 SWAP6 SWAP5 SWAP4 SWAP3 SWAP2 SWAP1 PUSH2 0x3F5B JUMP JUMPDEST PUSH1 0x40 MLOAD DUP1 SWAP2 SUB SWAP1 RETURN JUMPDEST CALLVALUE DUP1 ISZERO PUSH2 0x2D0 JUMPI PUSH0 DUP1 REVERT JUMPDEST POP PUSH2 0x2EB PUSH1 0x4 DUP1 CALLDATASIZE SUB DUP2 ADD SWAP1 PUSH2 0x2E6 SWAP2 SWAP1 PUSH2 0x3F1D JUMP JUMPDEST PUSH2 0xD86 JUMP JUMPDEST STOP JUMPDEST CALLVALUE DUP1 ISZERO PUSH2 0x2F8 JUMPI PUSH0 DUP1 REVERT JUMPDEST POP PUSH2 0x313 PUSH1 0x4 DUP1 CALLDATASIZE SUB DUP2 ADD SWAP1 PUSH2 0x30E SWAP2 SWAP1 PUSH2 0x3F1D JUMP JUMPDEST PUSH2 0x12BE JUMP JUMPDEST PUSH1 0x40 MLOAD PUSH2 0x325 SWAP7 SWAP6 SWAP5 SWAP4 SWAP3 SWAP2 SWAP1 PUSH2 0x3F5B JUMP JUMPDEST PUSH1 0x40 MLOAD DUP1 SWAP2 SUB SWAP1 RETURN JUMPDEST CALLVALUE DUP1 ISZERO PUSH2 0x339 JUMPI PUSH0 DUP1 REVERT JUMPDEST POP PUSH2 0x354 PUSH1 0x4 DUP1 CALLDATASIZE SUB DUP2 ADD SWAP1 PUSH2 0x34F SWAP2 SWAP1 PUSH2 0x3DB3 JUMP JUMPDEST PUSH2 0x13B5 JUMP JUMPDEST PUSH1 0x40 MLOAD PUSH2 0x362 SWAP3 SWAP2 SWAP1 PUSH2 0x4007 JUMP JUMPDEST PUSH1 0x40 MLOAD DUP1 SWAP2 SUB SWAP1 RETURN JUMPDEST CALLVALUE DUP1 ISZERO PUSH2 0x376 JUMPI PUSH0 DUP1 REVERT JUMPDEST POP PUSH2 0x391 PUSH1 0x4 DUP1 CALLDATASIZE SUB DUP2 ADD SWAP1 PUSH2 0x38C SWAP2 SWAP1 PUSH2 0x4051 JUMP JUMPDEST PUSH2 0x140A JUMP JUMPDEST STOP JUMPDEST CALLVALUE DUP1 ISZERO PUSH2 0x39E JUMPI PUSH0 DUP1 REVERT JUMPDEST POP PUSH2 0x3B9 PUSH1 0x4 DUP1 CALLDATASIZE SUB DUP2 ADD SWAP1 PUSH2 0x3B4 SWAP2 SWAP1 PUSH2 0x41A4 JUMP JUMPDEST PUSH2 0x158A JUMP JUMPDEST PUSH1 0x40 MLOAD PUSH2 0x3C6 SWAP2 SWAP1 PUSH2 0x42AA JUMP JUMPDEST PUSH1 0x40 MLOAD DUP1 SWAP2 SUB SWAP1 RETURN JUMPDEST CALLVALUE DUP1 ISZERO PUSH2 0x3DA JUMPI PUSH0 DUP1 REVERT JUMPDEST POP PUSH2 0x3F5 PUSH1 0x4 DUP1 CALLDATASIZE SUB DUP2 ADD SWAP1 PUSH2 0x3F0 SWAP2 SWAP1 PUSH2 0x42CA JUMP JUMPDEST PUSH2 0x1964 JUMP JUMPDEST STOP JUMPDEST CALLVALUE DUP1 ISZERO PUSH2 0x402 JUMPI PUSH0 DUP1 REVERT JUMPDEST POP PUSH2 0x41D PUSH1 0x4 DUP1 CALLDATASIZE SUB DUP2 ADD SWAP1 PUSH2 0x418 SWAP2 SWAP1 PUSH2 0x3B7F JUMP JUMPDEST PUSH2 0x1CB9 JUMP JUMPDEST PUSH1 0x40 MLOAD PUSH2 0x42A SWAP2 SWAP1 PUSH2 0x4334 JUMP JUMPDEST PUSH1 0x40 MLOAD DUP1 SWAP2 SUB SWAP1 RETURN JUMPDEST CALLVALUE DUP1 ISZERO PUSH2 0x43E JUMPI PUSH0 DUP1 REVERT JUMPDEST POP PUSH2 0x459 PUSH1 0x4 DUP1 CALLDATASIZE SUB DUP2 ADD SWAP1 PUSH2 0x454 SWAP2 SWAP1 PUSH2 0x4377 JUMP JUMPDEST PUSH2 0x1CD6 JUMP JUMPDEST STOP JUMPDEST CALLVALUE DUP1 ISZERO PUSH2 0x466 JUMPI PUSH0 DUP1 REVERT JUMPDEST POP PUSH2 0x481 PUSH1 0x4 DUP1 CALLDATASIZE SUB DUP2 ADD SWAP1 PUSH2 0x47C SWAP2 SWAP1 PUSH2 0x3DB3 JUMP JUMPDEST PUSH2 0x1E32 JUMP JUMPDEST PUSH1 0x40 MLOAD PUSH2 0x48E SWAP2 SWAP1 PUSH2 0x43B5 JUMP JUMPDEST PUSH1 0x40 MLOAD DUP1 SWAP2 SUB SWAP1 RETURN JUMPDEST CALLVALUE DUP1 ISZERO PUSH2 0x4A2 JUMPI PUSH0 DUP1 REVERT JUMPDEST POP PUSH2 0x4BD PUSH1 0x4 DUP1 CALLDATASIZE SUB DUP2 ADD SWAP1 PUSH2 0x4B8 SWAP2 SWAP1 PUSH2 0x43CE JUMP JUMPDEST PUSH2 0x1E82 JUMP JUMPDEST STOP JUMPDEST CALLVALUE DUP1 ISZERO PUSH2 0x4CA JUMPI PUSH0 DUP1 REVERT JUMPDEST POP PUSH2 0x4D3 PUSH2 0x20BD JUMP JUMPDEST PUSH1 0x40 MLOAD PUSH2 0x4E0 SWAP2 SWAP1 PUSH2 0x4464 JUMP JUMPDEST PUSH1 0x40 MLOAD DUP1 SWAP2 SUB SWAP1 RETURN JUMPDEST PUSH2 0x503 PUSH1 0x4 DUP1 CALLDATASIZE SUB DUP2 ADD SWAP1 PUSH2 0x4FE SWAP2 SWAP1 PUSH2 0x447D JUMP JUMPDEST PUSH2 0x20E2 JUMP JUMPDEST STOP JUMPDEST CALLVALUE DUP1 ISZERO PUSH2 0x510 JUMPI PUSH0 DUP1 REVERT JUMPDEST POP PUSH2 0x52B PUSH1 0x4 DUP1 CALLDATASIZE SUB DUP2 ADD SWAP1 PUSH2 0x526 SWAP2 SWAP1 PUSH2 0x44FD JUMP JUMPDEST PUSH2 0x28B8 JUMP JUMPDEST STOP JUMPDEST CALLVALUE DUP1 ISZERO PUSH2 0x538 JUMPI PUSH0 DUP1 REVERT JUMPDEST POP PUSH2 0x553 PUSH1 0x4 DUP1 CALLDATASIZE SUB DUP2 ADD SWAP1 PUSH2 0x54E SWAP2 SWAP1 PUSH2 0x3B7F JUMP JUMPDEST PUSH2 0x2918 JUMP JUMPDEST PUSH1 0x40 MLOAD PUSH2 0x564 SWAP6 SWAP5 SWAP4 SWAP3 SWAP2 SWAP1 PUSH2 0x4557 JUMP JUMPDEST PUSH1 0x40 MLOAD DUP1 SWAP2 SUB SWAP1 RETURN JUMPDEST CALLVALUE DUP1 ISZERO PUSH2 0x578 JUMPI PUSH0 DUP1 REVERT JUMPDEST POP PUSH2 0x593 PUSH1 0x4 DUP1 CALLDATASIZE SUB DUP2 ADD SWAP1 PUSH2 0x58E SWAP2 SWAP1 PUSH2 0x45BD JUMP JUMPDEST PUSH2 0x2AE8 JUMP JUMPDEST STOP JUMPDEST CALLVALUE DUP1 ISZERO PUSH2 0x5A0 JUMPI PUSH0 DUP1 REVERT JUMPDEST POP PUSH2 0x5BB PUSH1 0x4 DUP1 CALLDATASIZE SUB DUP2 ADD SWAP1 PUSH2 0x5B6 SWAP2 SWAP1 PUSH2 0x4691 JUMP JUMPDEST PUSH2 0x2C48 JUMP JUMPDEST STOP JUMPDEST CALLVALUE DUP1 ISZERO PUSH2 0x5C8 JUMPI PUSH0 DUP1 REVERT JUMPDEST POP PUSH2 0x5D1 PUSH2 0x2E3B JUMP JUMPDEST PUSH1 0x40 MLOAD PUSH2 0x5DE SWAP2 SWAP1 PUSH2 0x43B5 JUMP JUMPDEST PUSH1 0x40 MLOAD DUP1 SWAP2 SUB SWAP1 RETURN JUMPDEST CALLVALUE DUP1 ISZERO PUSH2 0x5F2 JUMPI PUSH0 DUP1 REVERT JUMPDEST POP PUSH2 0x60D PUSH1 0x4 DUP1 CALLDATASIZE SUB DUP2 ADD SWAP1 PUSH2 0x608 SWAP2 SWAP1 PUSH2 0x46CF JUMP JUMPDEST PUSH2 0x2E82 JUMP JUMPDEST PUSH1 0x40 MLOAD PUSH2 0x61A SWAP2 SWAP1 PUSH2 0x4464 JUMP JUMPDEST PUSH1 0x40 MLOAD DUP1 SWAP2 SUB SWAP1 RETURN JUMPDEST CALLVALUE DUP1 ISZERO PUSH2 0x62E JUMPI PUSH0 DUP1 REVERT JUMPDEST POP PUSH2 0x649 PUSH1 0x4 DUP1 CALLDATASIZE SUB DUP2 ADD SWAP1 PUSH2 0x644 SWAP2 SWAP1 PUSH2 0x3B7F JUMP JUMPDEST PUSH2 0x2ECA JUMP JUMPDEST PUSH1 0x40 MLOAD PUSH2 0x656 SWAP2 SWAP1 PUSH2 0x472E JUMP JUMPDEST PUSH1 0x40 MLOAD DUP1 SWAP2 SUB SWAP1 RETURN JUMPDEST PUSH2 0x679 PUSH1 0x4 DUP1 CALLDATASIZE SUB DUP2 ADD SWAP1 PUSH2 0x674 SWAP2 SWAP1 PUSH2 0x4377 JUMP JUMPDEST PUSH2 0x2EDF JUMP JUMPDEST STOP JUMPDEST CALLVALUE DUP1 ISZERO PUSH2 0x686 JUMPI PUSH0 DUP1 REVERT JUMPDEST POP PUSH2 0x68F PUSH2 0x30DB JUMP JUMPDEST STOP JUMPDEST PUSH2 0x6AB PUSH1 0x4 DUP1 CALLDATASIZE SUB DUP2 ADD SWAP1 PUSH2 0x6A6 SWAP2 SWAP1 PUSH2 0x4747 JUMP JUMPDEST PUSH2 0x325B JUMP JUMPDEST STOP JUMPDEST PUSH1 0x1 DUP1 PUSH1 0x2 DUP2 GT ISZERO PUSH2 0x6C2 JUMPI PUSH2 0x6C1 PUSH2 0x3DED JUMP JUMPDEST JUMPDEST PUSH1 0x4 PUSH0 CALLER PUSH20 0xFFFFFFFFFFFFFFFFFFFFFFFFFFFFFFFFFFFFFFFF AND PUSH20 0xFFFFFFFFFFFFFFFFFFFFFFFFFFFFFFFFFFFFFFFF AND DUP2 MSTORE PUSH1 0x20 ADD SWAP1 DUP2 MSTORE PUSH1 0x20 ADD PUSH0 KECCAK256 PUSH1 0x3 ADD PUSH0 SWAP1 SLOAD SWAP1 PUSH2 0x100 EXP SWAP1 DIV PUSH1 0xFF AND PUSH1 0x2 DUP2 GT ISZERO PUSH2 0x721 JUMPI PUSH2 0x720 PUSH2 0x3DED JUMP JUMPDEST JUMPDEST EQ PUSH2 0x761 JUMPI PUSH1 0x40 MLOAD PUSH32 0x8C379A000000000000000000000000000000000000000000000000000000000 DUP2 MSTORE PUSH1 0x4 ADD PUSH2 0x758 SWAP1 PUSH2 0x481B JUMP JUMPDEST PUSH1 0x40 MLOAD DUP1 SWAP2 SUB SWAP1 REVERT JUMPDEST PUSH0 PUSH1 0x40 MLOAD DUP1 PUSH1 0xC0 ADD PUSH1 0x40 MSTORE DUP1 PUSH0 DUP2 MSTORE PUSH1 0x20 ADD CALLER PUSH20 0xFFFFFFFFFFFFFFFFFFFFFFFFFFFFFFFFFFFFFFFF AND DUP2 MSTORE PUSH1 0x20 ADD DUP9 DUP2 MSTORE PUSH1 0x20 ADD DUP8 DUP2 MSTORE PUSH1 0x20 ADD DUP7 DUP7 DUP1 DUP1 PUSH1 0x1F ADD PUSH1 0x20 DUP1 SWAP2 DIV MUL PUSH1 0x20 ADD PUSH1 0x40 MLOAD SWAP1 DUP2 ADD PUSH1 0x40 MSTORE DUP1 SWAP4 SWAP3 SWAP2 SWAP1 DUP2 DUP2 MSTORE PUSH1 0x20 ADD DUP4 DUP4 DUP1 DUP3 DUP5 CALLDATACOPY PUSH0 DUP2 DUP5 ADD MSTORE PUSH1 0x1F NOT PUSH1 0x1F DUP3 ADD AND SWAP1 POP DUP1 DUP4 ADD SWAP3 POP POP POP POP POP POP POP DUP2 MSTORE PUSH1 0x20 ADD DUP5 DUP2 MSTORE POP SWAP1 POP PUSH1 0x6 PUSH0 CALLER PUSH20 0xFFFFFFFFFFFFFFFFFFFFFFFFFFFFFFFFFFFFFFFF AND PUSH20 0xFFFFFFFFFFFFFFFFFFFFFFFFFFFFFFFFFFFFFFFF AND DUP2 MSTORE PUSH1 0x20 ADD SWAP1 DUP2 MSTORE PUSH1 0x20 ADD PUSH0 KECCAK256 DUP2 SWAP1 DUP1 PUSH1 0x1 DUP2 SLOAD ADD DUP1 DUP3 SSTORE DUP1 SWAP2 POP POP PUSH1 0x1 SWAP1 SUB SWAP1 PUSH0 MSTORE PUSH1 0x20 PUSH0 KECCAK256 SWAP1 PUSH1 0x6 MUL ADD PUSH0 SWAP1 SWAP2 SWAP1 SWAP2 SWAP1 SWAP2 POP PUSH0 DUP3 ADD MLOAD DUP2 PUSH0 ADD SSTORE PUSH1 0x20 DUP3 ADD MLOAD DUP2 PUSH1 0x1 ADD PUSH0 PUSH2 0x100 EXP DUP2 SLOAD DUP2 PUSH20 0xFFFFFFFFFFFFFFFFFFFFFFFFFFFFFFFFFFFFFFFF MUL NOT AND SWAP1 DUP4 PUSH20 0xFFFFFFFFFFFFFFFFFFFFFFFFFFFFFFFFFFFFFFFF AND MUL OR SWAP1 SSTORE POP PUSH1 0x40 DUP3 ADD MLOAD DUP2 PUSH1 0x2 ADD SSTORE PUSH1 0x60 DUP3 ADD MLOAD DUP2 PUSH1 0x3 ADD SSTORE PUSH1 0x80 DUP3 ADD MLOAD DUP2 PUSH1 0x4 ADD SWAP1 DUP2 PUSH2 0x8C5 SWAP2 SWAP1 PUSH2 0x4A33 JUMP JUMPDEST POP PUSH1 0xA0 DUP3 ADD MLOAD DUP2 PUSH1 0x5 ADD SSTORE POP POP POP POP POP POP POP POP POP JUMP JUMPDEST PUSH1 0x60 PUSH1 0x6 PUSH0 DUP4 PUSH20 0xFFFFFFFFFFFFFFFFFFFFFFFFFFFFFFFFFFFFFFFF AND PUSH20 0xFFFFFFFFFFFFFFFFFFFFFFFFFFFFFFFFFFFFFFFF AND DUP2 MSTORE PUSH1 0x20 ADD SWAP1 DUP2 MSTORE PUSH1 0x20 ADD PUSH0 KECCAK256 DUP1 SLOAD DUP1 PUSH1 0x20 MUL PUSH1 0x20 ADD PUSH1 0x40 MLOAD SWAP1 DUP2 ADD PUSH1 0x40 MSTORE DUP1 SWAP3 SWAP2 SWAP1 DUP2 DUP2 MSTORE PUSH1 0x20 ADD PUSH0 SWAP1 JUMPDEST DUP3 DUP3 LT ISZERO PUSH2 0xA75 JUMPI DUP4 DUP3 SWAP1 PUSH0 MSTORE PUSH1 0x20 PUSH0 KECCAK256 SWAP1 PUSH1 0x6 MUL ADD PUSH1 0x40 MLOAD DUP1 PUSH1 0xC0 ADD PUSH1 0x40 MSTORE SWAP1 DUP2 PUSH0 DUP3 ADD SLOAD DUP2 MSTORE PUSH1 0x20 ADD PUSH1 0x1 DUP3 ADD PUSH0 SWAP1 SLOAD SWAP1 PUSH2 0x100 EXP SWAP1 DIV PUSH20 0xFFFFFFFFFFFFFFFFFFFFFFFFFFFFFFFFFFFFFFFF AND PUSH20 0xFFFFFFFFFFFFFFFFFFFFFFFFFFFFFFFFFFFFFFFF AND PUSH20 0xFFFFFFFFFFFFFFFFFFFFFFFFFFFFFFFFFFFFFFFF AND DUP2 MSTORE PUSH1 0x20 ADD PUSH1 0x2 DUP3 ADD SLOAD DUP2 MSTORE PUSH1 0x20 ADD PUSH1 0x3 DUP3 ADD SLOAD DUP2 MSTORE PUSH1 0x20 ADD PUSH1 0x4 DUP3 ADD DUP1 SLOAD PUSH2 0x9DC SWAP1 PUSH2 0x4866 JUMP JUMPDEST DUP1 PUSH1 0x1F ADD PUSH1 0x20 DUP1 SWAP2 DIV MUL PUSH1 0x20 ADD PUSH1 0x40 MLOAD SWAP1 DUP2 ADD PUSH1 0x40 MSTORE DUP1 SWAP3 SWAP2 SWAP1 DUP2 DUP2 MSTORE PUSH1 0x20 ADD DUP3 DUP1 SLOAD PUSH2 0xA08 SWAP1 PUSH2 0x4866 JUMP JUMPDEST DUP1 ISZERO PUSH2 0xA53 JUMPI DUP1 PUSH1 0x1F LT PUSH2 0xA2A JUMPI PUSH2 0x100 DUP1 DUP4 SLOAD DIV MUL DUP4 MSTORE SWAP2 PUSH1 0x20 ADD SWAP2 PUSH2 0xA53 JUMP JUMPDEST DUP3 ADD SWAP2 SWAP1 PUSH0 MSTORE PUSH1 0x20 PUSH0 KECCAK256 SWAP1 JUMPDEST DUP2 SLOAD DUP2 MSTORE SWAP1 PUSH1 0x1 ADD SWAP1 PUSH1 0x20 ADD DUP1 DUP4 GT PUSH2 0xA36 JUMPI DUP3 SWAP1 SUB PUSH1 0x1F AND DUP3 ADD SWAP2 JUMPDEST POP POP POP POP POP DUP2 MSTORE PUSH1 0x20 ADD PUSH1 0x5 DUP3 ADD SLOAD DUP2 MSTORE POP POP DUP2 MSTORE PUSH1 0x20 ADD SWAP1 PUSH1 0x1 ADD SWAP1 PUSH2 0x939 JUMP JUMPDEST POP POP POP POP SWAP1 POP SWAP2 SWAP1 POP JUMP JUMPDEST PUSH1 0x2 DUP2 DUP2 SLOAD DUP2 LT PUSH2 0xA8F JUMPI PUSH0 DUP1 REVERT JUMPDEST SWAP1 PUSH0 MSTORE PUSH1 0x20 PUSH0 KECCAK256 SWAP1 PUSH1 0x5 MUL ADD PUSH0 SWAP2 POP SWAP1 POP DUP1 PUSH0 ADD PUSH0 SWAP1 SLOAD SWAP1 PUSH2 0x100 EXP SWAP1 DIV PUSH20 0xFFFFFFFFFFFFFFFFFFFFFFFFFFFFFFFFFFFFFFFF AND SWAP1 DUP1 PUSH1 0x1 ADD PUSH0 SWAP1 SLOAD SWAP1 PUSH2 0x100 EXP SWAP1 DIV PUSH20 0xFFFFFFFFFFFFFFFFFFFFFFFFFFFFFFFFFFFFFFFF AND SWAP1 DUP1 PUSH1 0x1 ADD PUSH1 0x14 SWAP1 SLOAD SWAP1 PUSH2 0x100 EXP SWAP1 DIV PUSH1 0xFF AND SWAP1 DUP1 PUSH1 0x2 ADD DUP1 SLOAD PUSH2 0xB0B SWAP1 PUSH2 0x4866 JUMP JUMPDEST DUP1 PUSH1 0x1F ADD PUSH1 0x20 DUP1 SWAP2 DIV MUL PUSH1 0x20 ADD PUSH1 0x40 MLOAD SWAP1 DUP2 ADD PUSH1 0x40 MSTORE DUP1 SWAP3 SWAP2 SWAP1 DUP2 DUP2 MSTORE PUSH1 0x20 ADD DUP3 DUP1 SLOAD PUSH2 0xB37 SWAP1 PUSH2 0x4866 JUMP JUMPDEST DUP1 ISZERO PUSH2 0xB82 JUMPI DUP1 PUSH1 0x1F LT PUSH2 0xB59 JUMPI PUSH2 0x100 DUP1 DUP4 SLOAD DIV MUL DUP4 MSTORE SWAP2 PUSH1 0x20 ADD SWAP2 PUSH2 0xB82 JUMP JUMPDEST DUP3 ADD SWAP2 SWAP1 PUSH0 MSTORE PUSH1 0x20 PUSH0 KECCAK256 SWAP1 JUMPDEST DUP2 SLOAD DUP2 MSTORE SWAP1 PUSH1 0x1 ADD SWAP1 PUSH1 0x20 ADD DUP1 DUP4 GT PUSH2 0xB65 JUMPI DUP3 SWAP1 SUB PUSH1 0x1F AND DUP3 ADD SWAP2 JUMPDEST POP POP POP POP POP SWAP1 DUP1 PUSH1 0x3 ADD SLOAD SWAP1 DUP1 PUSH1 0x4 ADD SLOAD SWAP1 POP DUP7 JUMP JUMPDEST PUSH1 0x7 PUSH1 0x20 MSTORE DUP2 PUSH0 MSTORE PUSH1 0x40 PUSH0 KECCAK256 DUP2 DUP2 SLOAD DUP2 LT PUSH2 0xBB1 JUMPI PUSH0 DUP1 REVERT JUMPDEST SWAP1 PUSH0 MSTORE PUSH1 0x20 PUSH0 KECCAK256 SWAP1 PUSH1 0x6 MUL ADD PUSH0 SWAP2 POP SWAP2 POP POP DUP1 PUSH0 ADD SLOAD SWAP1 DUP1 PUSH1 0x1 ADD PUSH0 SWAP1 SLOAD SWAP1 PUSH2 0x100 EXP SWAP1 DIV PUSH20 0xFFFFFFFFFFFFFFFFFFFFFFFFFFFFFFFFFFFFFFFF AND SWAP1 DUP1 PUSH1 0x2 ADD SLOAD SWAP1 DUP1 PUSH1 0x3 ADD SLOAD SWAP1 DUP1 PUSH1 0x4 ADD DUP1 SLOAD PUSH2 0xC08 SWAP1 PUSH2 0x4866 JUMP JUMPDEST DUP1 PUSH1 0x1F ADD PUSH1 0x20 DUP1 SWAP2 DIV MUL PUSH1 0x20 ADD PUSH1 0x40 MLOAD SWAP1 DUP2 ADD PUSH1 0x40 MSTORE DUP1 SWAP3 SWAP2 SWAP1 DUP2 DUP2 MSTORE PUSH1 0x20 ADD DUP3 DUP1 SLOAD PUSH2 0xC34 SWAP1 PUSH2 0x4866 JUMP JUMPDEST DUP1 ISZERO PUSH2 0xC7F JUMPI DUP1 PUSH1 0x1F LT PUSH2 0xC56 JUMPI PUSH2 0x100 DUP1 DUP4 SLOAD DIV MUL DUP4 MSTORE SWAP2 PUSH1 0x20 ADD SWAP2 PUSH2 0xC7F JUMP JUMPDEST DUP3 ADD SWAP2 SWAP1 PUSH0 MSTORE PUSH1 0x20 PUSH0 KECCAK256 SWAP1 JUMPDEST DUP2 SLOAD DUP2 MSTORE SWAP1 PUSH1 0x1 ADD SWAP1 PUSH1 0x20 ADD DUP1 DUP4 GT PUSH2 0xC62 JUMPI DUP3 SWAP1 SUB PUSH1 0x1F AND DUP3 ADD SWAP2 JUMPDEST POP POP POP POP POP SWAP1 DUP1 PUSH1 0x5 ADD SLOAD SWAP1 POP DUP7 JUMP JUMPDEST PUSH1 0x5 PUSH1 0x20 MSTORE DUP2 PUSH0 MSTORE PUSH1 0x40 PUSH0 KECCAK256 DUP2 DUP2 SLOAD DUP2 LT PUSH2 0xCA8 JUMPI PUSH0 DUP1 REVERT JUMPDEST SWAP1 PUSH0 MSTORE PUSH1 0x20 PUSH0 KECCAK256 SWAP1 PUSH1 0x6 MUL ADD PUSH0 SWAP2 POP SWAP2 POP POP DUP1 PUSH0 ADD SLOAD SWAP1 DUP1 PUSH1 0x1 ADD PUSH0 SWAP1 SLOAD SWAP1 PUSH2 0x100 EXP SWAP1 DIV PUSH20 0xFFFFFFFFFFFFFFFFFFFFFFFFFFFFFFFFFFFFFFFF AND SWAP1 DUP1 PUSH1 0x2 ADD SLOAD SWAP1 DUP1 PUSH1 0x3 ADD SLOAD SWAP1 DUP1 PUSH1 0x4 ADD DUP1 SLOAD PUSH2 0xCFF SWAP1 PUSH2 0x4866 JUMP JUMPDEST DUP1 PUSH1 0x1F ADD PUSH1 0x20 DUP1 SWAP2 DIV MUL PUSH1 0x20 ADD PUSH1 0x40 MLOAD SWAP1 DUP2 ADD PUSH1 0x40 MSTORE DUP1 SWAP3 SWAP2 SWAP1 DUP2 DUP2 MSTORE PUSH1 0x20 ADD DUP3 DUP1 SLOAD PUSH2 0xD2B SWAP1 PUSH2 0x4866 JUMP JUMPDEST DUP1 ISZERO PUSH2 0xD76 JUMPI DUP1 PUSH1 0x1F LT PUSH2 0xD4D JUMPI PUSH2 0x100 DUP1 DUP4 SLOAD DIV MUL DUP4 MSTORE SWAP2 PUSH1 0x20 ADD SWAP2 PUSH2 0xD76 JUMP JUMPDEST DUP3 ADD SWAP2 SWAP1 PUSH0 MSTORE PUSH1 0x20 PUSH0 KECCAK256 SWAP1 JUMPDEST DUP2 SLOAD DUP2 MSTORE SWAP1 PUSH1 0x1 ADD SWAP1 PUSH1 0x20 ADD DUP1 DUP4 GT PUSH2 0xD59 JUMPI DUP3 SWAP1 SUB PUSH1 0x1F AND DUP3 ADD SWAP2 JUMPDEST POP POP POP POP POP SWAP1 DUP1 PUSH1 0x5 ADD SLOAD SWAP1 POP DUP7 JUMP JUMPDEST PUSH0 DUP1 PUSH0 SWAP1 POP PUSH0 JUMPDEST PUSH1 0x5 PUSH0 CALLER PUSH20 0xFFFFFFFFFFFFFFFFFFFFFFFFFFFFFFFFFFFFFFFF AND PUSH20 0xFFFFFFFFFFFFFFFFFFFFFFFFFFFFFFFFFFFFFFFF AND DUP2 MSTORE PUSH1 0x20 ADD SWAP1 DUP2 MSTORE PUSH1 0x20 ADD PUSH0 KECCAK256 DUP1 SLOAD SWAP1 POP DUP2 LT ISZERO PUSH2 0xF01 JUMPI PUSH1 0x6 PUSH0 DUP7 PUSH20 0xFFFFFFFFFFFFFFFFFFFFFFFFFFFFFFFFFFFFFFFF AND PUSH20 0xFFFFFFFFFFFFFFFFFFFFFFFFFFFFFFFFFFFFFFFF AND DUP2 MSTORE PUSH1 0x20 ADD SWAP1 DUP2 MSTORE PUSH1 0x20 ADD PUSH0 KECCAK256 DUP5 DUP2 SLOAD DUP2 LT PUSH2 0xE24 JUMPI PUSH2 0xE23 PUSH2 0x4B02 JUMP JUMPDEST JUMPDEST SWAP1 PUSH0 MSTORE PUSH1 0x20 PUSH0 KECCAK256 SWAP1 PUSH1 0x6 MUL ADD PUSH1 0x4 ADD PUSH1 0x40 MLOAD PUSH1 0x20 ADD PUSH2 0xE43 SWAP2 SWAP1 PUSH2 0x4BB0 JUMP JUMPDEST PUSH1 0x40 MLOAD PUSH1 0x20 DUP2 DUP4 SUB SUB DUP2 MSTORE SWAP1 PUSH1 0x40 MSTORE DUP1 MLOAD SWAP1 PUSH1 0x20 ADD KECCAK256 PUSH1 0x5 PUSH0 CALLER PUSH20 0xFFFFFFFFFFFFFFFFFFFFFFFFFFFFFFFFFFFFFFFF AND PUSH20 0xFFFFFFFFFFFFFFFFFFFFFFFFFFFFFFFFFFFFFFFF AND DUP2 MSTORE PUSH1 0x20 ADD SWAP1 DUP2 MSTORE PUSH1 0x20 ADD PUSH0 KECCAK256 DUP3 DUP2 SLOAD DUP2 LT PUSH2 0xEA8 JUMPI PUSH2 0xEA7 PUSH2 0x4B02 JUMP JUMPDEST JUMPDEST SWAP1 PUSH0 MSTORE PUSH1 0x20 PUSH0 KECCAK256 SWAP1 PUSH1 0x6 MUL ADD PUSH1 0x4 ADD PUSH1 0x40 MLOAD PUSH1 0x20 ADD PUSH2 0xEC7 SWAP2 SWAP1 PUSH2 0x4BB0 JUMP JUMPDEST PUSH1 0x40 MLOAD PUSH1 0x20 DUP2 DUP4 SUB SUB DUP2 MSTORE SWAP1 PUSH1 0x40 MSTORE DUP1 MLOAD SWAP1 PUSH1 0x20 ADD KECCAK256 SUB PUSH2 0xEEE JUMPI DUP1 SWAP3 POP PUSH1 0x1 SWAP2 POP PUSH2 0xF01 JUMP JUMPDEST DUP1 DUP1 PUSH2 0xEF9 SWAP1 PUSH2 0x4BFD JUMP JUMPDEST SWAP2 POP POP PUSH2 0xD8D JUMP JUMPDEST POP DUP1 PUSH2 0xF0B JUMPI PUSH0 DUP1 REVERT JUMPDEST PUSH1 0x6 PUSH0 DUP6 PUSH20 0xFFFFFFFFFFFFFFFFFFFFFFFFFFFFFFFFFFFFFFFF AND PUSH20 0xFFFFFFFFFFFFFFFFFFFFFFFFFFFFFFFFFFFFFFFF AND DUP2 MSTORE PUSH1 0x20 ADD SWAP1 DUP2 MSTORE PUSH1 0x20 ADD PUSH0 KECCAK256 DUP4 DUP2 SLOAD DUP2 LT PUSH2 0xF5A JUMPI PUSH2 0xF59 PUSH2 0x4B02 JUMP JUMPDEST JUMPDEST SWAP1 PUSH0 MSTORE PUSH1 0x20 PUSH0 KECCAK256 SWAP1 PUSH1 0x6 MUL ADD PUSH1 0x5 ADD SLOAD PUSH1 0x5 PUSH0 CALLER PUSH20 0xFFFFFFFFFFFFFFFFFFFFFFFFFFFFFFFFFFFFFFFF AND PUSH20 0xFFFFFFFFFFFFFFFFFFFFFFFFFFFFFFFFFFFFFFFF AND DUP2 MSTORE PUSH1 0x20 ADD SWAP1 DUP2 MSTORE PUSH1 0x20 ADD PUSH0 KECCAK256 DUP4 DUP2 SLOAD DUP2 LT PUSH2 0xFB9 JUMPI PUSH2 0xFB8 PUSH2 0x4B02 JUMP JUMPDEST JUMPDEST SWAP1 PUSH0 MSTORE PUSH1 0x20 PUSH0 KECCAK256 SWAP1 PUSH1 0x6 MUL ADD PUSH1 0x5 ADD SLOAD GT PUSH2 0xFD2 JUMPI PUSH0 DUP1 REVERT JUMPDEST PUSH0 PUSH1 0x6 PUSH0 DUP7 PUSH20 0xFFFFFFFFFFFFFFFFFFFFFFFFFFFFFFFFFFFFFFFF AND PUSH20 0xFFFFFFFFFFFFFFFFFFFFFFFFFFFFFFFFFFFFFFFF AND DUP2 MSTORE PUSH1 0x20 ADD SWAP1 DUP2 MSTORE PUSH1 0x20 ADD PUSH0 KECCAK256 DUP5 DUP2 SLOAD DUP2 LT PUSH2 0x1022 JUMPI PUSH2 0x1021 PUSH2 0x4B02 JUMP JUMPDEST JUMPDEST SWAP1 PUSH0 MSTORE PUSH1 0x20 PUSH0 KECCAK256 SWAP1 PUSH1 0x6 MUL ADD PUSH1 0x3 ADD SLOAD PUSH1 0x5 PUSH0 CALLER PUSH20 0xFFFFFFFFFFFFFFFFFFFFFFFFFFFFFFFFFFFFFFFF AND PUSH20 0xFFFFFFFFFFFFFFFFFFFFFFFFFFFFFFFFFFFFFFFF AND DUP2 MSTORE PUSH1 0x20 ADD SWAP1 DUP2 MSTORE PUSH1 0x20 ADD PUSH0 KECCAK256 DUP5 DUP2 SLOAD DUP2 LT PUSH2 0x1081 JUMPI PUSH2 0x1080 PUSH2 0x4B02 JUMP JUMPDEST JUMPDEST SWAP1 PUSH0 MSTORE PUSH1 0x20 PUSH0 KECCAK256 SWAP1 PUSH1 0x6 MUL ADD PUSH1 0x2 ADD SLOAD PUSH2 0x109B SWAP2 SWAP1 PUSH2 0x4C44 JUMP JUMPDEST SWAP1 POP PUSH1 0x5 PUSH0 CALLER PUSH20 0xFFFFFFFFFFFFFFFFFFFFFFFFFFFFFFFFFFFFFFFF AND PUSH20 0xFFFFFFFFFFFFFFFFFFFFFFFFFFFFFFFFFFFFFFFF AND DUP2 MSTORE PUSH1 0x20 ADD SWAP1 DUP2 MSTORE PUSH1 0x20 ADD PUSH0 KECCAK256 DUP4 DUP2 SLOAD DUP2 LT PUSH2 0x10EC JUMPI PUSH2 0x10EB PUSH2 0x4B02 JUMP JUMPDEST JUMPDEST SWAP1 PUSH0 MSTORE PUSH1 0x20 PUSH0 KECCAK256 SWAP1 PUSH1 0x6 MUL ADD PUSH1 0x2 ADD SLOAD PUSH1 0x6 PUSH0 DUP8 PUSH20 0xFFFFFFFFFFFFFFFFFFFFFFFFFFFFFFFFFFFFFFFF AND PUSH20 0xFFFFFFFFFFFFFFFFFFFFFFFFFFFFFFFFFFFFFFFF AND DUP2 MSTORE PUSH1 0x20 ADD SWAP1 DUP2 MSTORE PUSH1 0x20 ADD PUSH0 KECCAK256 DUP6 DUP2 SLOAD DUP2 LT PUSH2 0x114B JUMPI PUSH2 0x114A PUSH2 0x4B02 JUMP JUMPDEST JUMPDEST SWAP1 PUSH0 MSTORE PUSH1 0x20 PUSH0 KECCAK256 SWAP1 PUSH1 0x6 MUL ADD PUSH1 0x2 ADD PUSH0 DUP3 DUP3 SLOAD PUSH2 0x1168 SWAP2 SWAP1 PUSH2 0x4C85 JUMP JUMPDEST SWAP3 POP POP DUP2 SWAP1 SSTORE POP PUSH1 0x5 PUSH0 CALLER PUSH20 0xFFFFFFFFFFFFFFFFFFFFFFFFFFFFFFFFFFFFFFFF AND PUSH20 0xFFFFFFFFFFFFFFFFFFFFFFFFFFFFFFFFFFFFFFFF AND DUP2 MSTORE PUSH1 0x20 ADD SWAP1 DUP2 MSTORE PUSH1 0x20 ADD PUSH0 KECCAK256 DUP4 DUP2 SLOAD DUP2 LT PUSH2 0x11BE JUMPI PUSH2 0x11BD PUSH2 0x4B02 JUMP JUMPDEST JUMPDEST SWAP1 PUSH0 MSTORE PUSH1 0x20 PUSH0 KECCAK256 SWAP1 PUSH1 0x6 MUL ADD PUSH0 DUP1 DUP3 ADD PUSH0 SWAP1 SSTORE PUSH1 0x1 DUP3 ADD PUSH0 PUSH2 0x100 EXP DUP2 SLOAD SWAP1 PUSH20 0xFFFFFFFFFFFFFFFFFFFFFFFFFFFFFFFFFFFFFFFF MUL NOT AND SWAP1 SSTORE PUSH1 0x2 DUP3 ADD PUSH0 SWAP1 SSTORE PUSH1 0x3 DUP3 ADD PUSH0 SWAP1 SSTORE PUSH1 0x4 DUP3 ADD PUSH0 PUSH2 0x1214 SWAP2 SWAP1 PUSH2 0x3965 JUMP JUMPDEST PUSH1 0x5 DUP3 ADD PUSH0 SWAP1 SSTORE POP POP DUP1 PUSH1 0x4 PUSH0 DUP8 PUSH20 0xFFFFFFFFFFFFFFFFFFFFFFFFFFFFFFFFFFFFFFFF AND PUSH20 0xFFFFFFFFFFFFFFFFFFFFFFFFFFFFFFFFFFFFFFFF AND DUP2 MSTORE PUSH1 0x20 ADD SWAP1 DUP2 MSTORE PUSH1 0x20 ADD PUSH0 KECCAK256 PUSH1 0x4 ADD PUSH0 DUP3 DUP3 SLOAD PUSH2 0x126C SWAP2 SWAP1 PUSH2 0x4CB8 JUMP JUMPDEST SWAP3 POP POP DUP2 SWAP1 SSTORE POP CALLER PUSH20 0xFFFFFFFFFFFFFFFFFFFFFFFFFFFFFFFFFFFFFFFF AND PUSH2 0x8FC DUP3 SWAP1 DUP2 ISZERO MUL SWAP1 PUSH1 0x40 MLOAD PUSH0 PUSH1 0x40 MLOAD DUP1 DUP4 SUB DUP2 DUP6 DUP9 DUP9 CALL SWAP4 POP POP POP POP ISZERO DUP1 ISZERO PUSH2 0x12B6 JUMPI RETURNDATASIZE PUSH0 DUP1 RETURNDATACOPY RETURNDATASIZE PUSH0 REVERT JUMPDEST POP POP POP POP POP POP JUMP JUMPDEST PUSH1 0x6 PUSH1 0x20 MSTORE DUP2 PUSH0 MSTORE PUSH1 0x40 PUSH0 KECCAK256 DUP2 DUP2 SLOAD DUP2 LT PUSH2 0x12D7 JUMPI PUSH0 DUP1 REVERT JUMPDEST SWAP1 PUSH0 MSTORE PUSH1 0x20 PUSH0 KECCAK256 SWAP1 PUSH1 0x6 MUL ADD PUSH0 SWAP2 POP SWAP2 POP POP DUP1 PUSH0 ADD SLOAD SWAP1 DUP1 PUSH1 0x1 ADD PUSH0 SWAP1 SLOAD SWAP1 PUSH2 0x100 EXP SWAP1 DIV PUSH20 0xFFFFFFFFFFFFFFFFFFFFFFFFFFFFFFFFFFFFFFFF AND SWAP1 DUP1 PUSH1 0x2 ADD SLOAD SWAP1 DUP1 PUSH1 0x3 ADD SLOAD SWAP1 DUP1 PUSH1 0x4 ADD DUP1 SLOAD PUSH2 0x132E SWAP1 PUSH2 0x4866 JUMP JUMPDEST DUP1 PUSH1 0x1F ADD PUSH1 0x20 DUP1 SWAP2 DIV MUL PUSH1 0x20 ADD PUSH1 0x40 MLOAD SWAP1 DUP2 ADD PUSH1 0x40 MSTORE DUP1 SWAP3 SWAP2 SWAP1 DUP2 DUP2 MSTORE PUSH1 0x20 ADD DUP3 DUP1 SLOAD PUSH2 0x135A SWAP1 PUSH2 0x4866 JUMP JUMPDEST DUP1 ISZERO PUSH2 0x13A5 JUMPI DUP1 PUSH1 0x1F LT PUSH2 0x137C JUMPI PUSH2 0x100 DUP1 DUP4 SLOAD DIV MUL DUP4 MSTORE SWAP2 PUSH1 0x20 ADD SWAP2 PUSH2 0x13A5 JUMP JUMPDEST DUP3 ADD SWAP2 SWAP1 PUSH0 MSTORE PUSH1 0x20 PUSH0 KECCAK256 SWAP1 JUMPDEST DUP2 SLOAD DUP2 MSTORE SWAP1 PUSH1 0x1 ADD SWAP1 PUSH1 0x20 ADD DUP1 DUP4 GT PUSH2 0x1388 JUMPI DUP3 SWAP1 SUB PUSH1 0x1F AND DUP3 ADD SWAP2 JUMPDEST POP POP POP POP POP SWAP1 DUP1 PUSH1 0x5 ADD SLOAD SWAP1 POP DUP7 JUMP JUMPDEST PUSH0 DUP2 DUP2 SLOAD DUP2 LT PUSH2 0x13C3 JUMPI PUSH0 DUP1 REVERT JUMPDEST SWAP1 PUSH0 MSTORE PUSH1 0x20 PUSH0 KECCAK256 ADD PUSH0 SWAP2 POP SWAP1 POP DUP1 PUSH0 ADD PUSH0 SWAP1 SLOAD SWAP1 PUSH2 0x100 EXP SWAP1 DIV PUSH20 0xFFFFFFFFFFFFFFFFFFFFFFFFFFFFFFFFFFFFFFFF AND SWAP1 DUP1 PUSH0 ADD PUSH1 0x14 SWAP1 SLOAD SWAP1 PUSH2 0x100 EXP SWAP1 DIV PUSH1 0xFF AND SWAP1 POP DUP3 JUMP JUMPDEST PUSH1 0x3 PUSH0 CALLER PUSH20 0xFFFFFFFFFFFFFFFFFFFFFFFFFFFFFFFFFFFFFFFF AND PUSH20 0xFFFFFFFFFFFFFFFFFFFFFFFFFFFFFFFFFFFFFFFF AND DUP2 MSTORE PUSH1 0x20 ADD SWAP1 DUP2 MSTORE PUSH1 0x20 ADD PUSH0 KECCAK256 PUSH0 SWAP1 SLOAD SWAP1 PUSH2 0x100 EXP SWAP1 DIV PUSH1 0xFF AND ISZERO PUSH2 0x145D JUMPI PUSH0 DUP1 REVERT JUMPDEST PUSH0 PUSH1 0x40 MLOAD DUP1 PUSH1 0x40 ADD PUSH1 0x40 MSTORE DUP1 CALLER PUSH20 0xFFFFFFFFFFFFFFFFFFFFFFFFFFFFFFFFFFFFFFFF AND DUP2 MSTORE PUSH1 0x20 ADD DUP4 PUSH1 0x2 DUP2 GT ISZERO PUSH2 0x1498 JUMPI PUSH2 0x1497 PUSH2 0x3DED JUMP JUMPDEST JUMPDEST DUP2 MSTORE POP SWAP1 DUP1 PUSH1 0x1 DUP2 SLOAD ADD DUP1 DUP3 SSTORE DUP1 SWAP2 POP POP PUSH1 0x1 SWAP1 SUB SWAP1 PUSH0 MSTORE PUSH1 0x20 PUSH0 KECCAK256 ADD PUSH0 SWAP1 SWAP2 SWAP1 SWAP2 SWAP1 SWAP2 POP PUSH0 DUP3 ADD MLOAD DUP2 PUSH0 ADD PUSH0 PUSH2 0x100 EXP DUP2 SLOAD DUP2 PUSH20 0xFFFFFFFFFFFFFFFFFFFFFFFFFFFFFFFFFFFFFFFF MUL NOT AND SWAP1 DUP4 PUSH20 0xFFFFFFFFFFFFFFFFFFFFFFFFFFFFFFFFFFFFFFFF AND MUL OR SWAP1 SSTORE POP PUSH1 0x20 DUP3 ADD MLOAD DUP2 PUSH0 ADD PUSH1 0x14 PUSH2 0x100 EXP DUP2 SLOAD DUP2 PUSH1 0xFF MUL NOT AND SWAP1 DUP4 PUSH1 0x2 DUP2 GT ISZERO PUSH2 0x152B JUMPI PUSH2 0x152A PUSH2 0x3DED JUMP JUMPDEST JUMPDEST MUL OR SWAP1 SSTORE POP POP POP PUSH1 0x1 PUSH1 0x3 PUSH0 CALLER PUSH20 0xFFFFFFFFFFFFFFFFFFFFFFFFFFFFFFFFFFFFFFFF AND PUSH20 0xFFFFFFFFFFFFFFFFFFFFFFFFFFFFFFFFFFFFFFFF AND DUP2 MSTORE PUSH1 0x20 ADD SWAP1 DUP2 MSTORE PUSH1 0x20 ADD PUSH0 KECCAK256 PUSH0 PUSH2 0x100 EXP DUP2 SLOAD DUP2 PUSH1 0xFF MUL NOT AND SWAP1 DUP4 ISZERO ISZERO MUL OR SWAP1 SSTORE POP POP JUMP JUMPDEST PUSH2 0x1592 PUSH2 0x39A2 JUMP JUMPDEST PUSH0 PUSH1 0x4 PUSH0 CALLER PUSH20 0xFFFFFFFFFFFFFFFFFFFFFFFFFFFFFFFFFFFFFFFF AND PUSH20 0xFFFFFFFFFFFFFFFFFFFFFFFFFFFFFFFFFFFFFFFF AND DUP2 MSTORE PUSH1 0x20 ADD SWAP1 DUP2 MSTORE PUSH1 0x20 ADD PUSH0 KECCAK256 PUSH0 ADD DUP1 SLOAD PUSH2 0x15DD SWAP1 PUSH2 0x4866 JUMP JUMPDEST DUP1 PUSH1 0x1F ADD PUSH1 0x20 DUP1 SWAP2 DIV MUL PUSH1 0x20 ADD PUSH1 0x40 MLOAD SWAP1 DUP2 ADD PUSH1 0x40 MSTORE DUP1 SWAP3 SWAP2 SWAP1 DUP2 DUP2 MSTORE PUSH1 0x20 ADD DUP3 DUP1 SLOAD PUSH2 0x1609 SWAP1 PUSH2 0x4866 JUMP JUMPDEST DUP1 ISZERO PUSH2 0x1654 JUMPI DUP1 PUSH1 0x1F LT PUSH2 0x162B JUMPI PUSH2 0x100 DUP1 DUP4 SLOAD DIV MUL DUP4 MSTORE SWAP2 PUSH1 0x20 ADD SWAP2 PUSH2 0x1654 JUMP JUMPDEST DUP3 ADD SWAP2 SWAP1 PUSH0 MSTORE PUSH1 0x20 PUSH0 KECCAK256 SWAP1 JUMPDEST DUP2 SLOAD DUP2 MSTORE SWAP1 PUSH1 0x1 ADD SWAP1 PUSH1 0x20 ADD DUP1 DUP4 GT PUSH2 0x1637 JUMPI DUP3 SWAP1 SUB PUSH1 0x1F AND DUP3 ADD SWAP2 JUMPDEST POP POP POP POP POP SWAP1 POP DUP1 PUSH1 0x40 MLOAD PUSH1 0x20 ADD PUSH2 0x166C SWAP2 SWAP1 PUSH2 0x4D25 JUMP JUMPDEST PUSH1 0x40 MLOAD PUSH1 0x20 DUP2 DUP4 SUB SUB DUP2 MSTORE SWAP1 PUSH1 0x40 MSTORE DUP1 MLOAD SWAP1 PUSH1 0x20 ADD KECCAK256 DUP5 PUSH1 0x40 MLOAD PUSH1 0x20 ADD PUSH2 0x1693 SWAP2 SWAP1 PUSH2 0x4D25 JUMP JUMPDEST PUSH1 0x40 MLOAD PUSH1 0x20 DUP2 DUP4 SUB SUB DUP2 MSTORE SWAP1 PUSH1 0x40 MSTORE DUP1 MLOAD SWAP1 PUSH1 0x20 ADD KECCAK256 EQ PUSH2 0x16B2 JUMPI PUSH0 DUP1 REVERT JUMPDEST PUSH1 0x9 PUSH0 CALLER PUSH20 0xFFFFFFFFFFFFFFFFFFFFFFFFFFFFFFFFFFFFFFFF AND PUSH20 0xFFFFFFFFFFFFFFFFFFFFFFFFFFFFFFFFFFFFFFFF AND DUP2 MSTORE PUSH1 0x20 ADD SWAP1 DUP2 MSTORE PUSH1 0x20 ADD PUSH0 KECCAK256 SLOAD DUP4 PUSH1 0x40 MLOAD PUSH1 0x20 ADD PUSH2 0x1701 SWAP2 SWAP1 PUSH2 0x4D3B JUMP JUMPDEST PUSH1 0x40 MLOAD PUSH1 0x20 DUP2 DUP4 SUB SUB DUP2 MSTORE SWAP1 PUSH1 0x40 MSTORE DUP1 MLOAD SWAP1 PUSH1 0x20 ADD KECCAK256 EQ PUSH2 0x1720 JUMPI PUSH0 DUP1 REVERT JUMPDEST PUSH1 0x4 PUSH0 CALLER PUSH20 0xFFFFFFFFFFFFFFFFFFFFFFFFFFFFFFFFFFFFFFFF AND PUSH20 0xFFFFFFFFFFFFFFFFFFFFFFFFFFFFFFFFFFFFFFFF AND DUP2 MSTORE PUSH1 0x20 ADD SWAP1 DUP2 MSTORE PUSH1 0x20 ADD PUSH0 KECCAK256 PUSH1 0x40 MLOAD DUP1 PUSH1 0xA0 ADD PUSH1 0x40 MSTORE SWAP1 DUP2 PUSH0 DUP3 ADD DUP1 SLOAD PUSH2 0x1777 SWAP1 PUSH2 0x4866 JUMP JUMPDEST DUP1 PUSH1 0x1F ADD PUSH1 0x20 DUP1 SWAP2 DIV MUL PUSH1 0x20 ADD PUSH1 0x40 MLOAD SWAP1 DUP2 ADD PUSH1 0x40 MSTORE DUP1 SWAP3 SWAP2 SWAP1 DUP2 DUP2 MSTORE PUSH1 0x20 ADD DUP3 DUP1 SLOAD PUSH2 0x17A3 SWAP1 PUSH2 0x4866 JUMP JUMPDEST DUP1 ISZERO PUSH2 0x17EE JUMPI DUP1 PUSH1 0x1F LT PUSH2 0x17C5 JUMPI PUSH2 0x100 DUP1 DUP4 SLOAD DIV MUL DUP4 MSTORE SWAP2 PUSH1 0x20 ADD SWAP2 PUSH2 0x17EE JUMP JUMPDEST DUP3 ADD SWAP2 SWAP1 PUSH0 MSTORE PUSH1 0x20 PUSH0 KECCAK256 SWAP1 JUMPDEST DUP2 SLOAD DUP2 MSTORE SWAP1 PUSH1 0x1 ADD SWAP1 PUSH1 0x20 ADD DUP1 DUP4 GT PUSH2 0x17D1 JUMPI DUP3 SWAP1 SUB PUSH1 0x1F AND DUP3 ADD SWAP2 JUMPDEST POP POP POP POP POP DUP2 MSTORE PUSH1 0x20 ADD PUSH1 0x1 DUP3 ADD DUP1 SLOAD PUSH2 0x1807 SWAP1 PUSH2 0x4866 JUMP JUMPDEST DUP1 PUSH1 0x1F ADD PUSH1 0x20 DUP1 SWAP2 DIV MUL PUSH1 0x20 ADD PUSH1 0x40 MLOAD SWAP1 DUP2 ADD PUSH1 0x40 MSTORE DUP1 SWAP3 SWAP2 SWAP1 DUP2 DUP2 MSTORE PUSH1 0x20 ADD DUP3 DUP1 SLOAD PUSH2 0x1833 SWAP1 PUSH2 0x4866 JUMP JUMPDEST DUP1 ISZERO PUSH2 0x187E JUMPI DUP1 PUSH1 0x1F LT PUSH2 0x1855 JUMPI PUSH2 0x100 DUP1 DUP4 SLOAD DIV MUL DUP4 MSTORE SWAP2 PUSH1 0x20 ADD SWAP2 PUSH2 0x187E JUMP JUMPDEST DUP3 ADD SWAP2 SWAP1 PUSH0 MSTORE PUSH1 0x20 PUSH0 KECCAK256 SWAP1 JUMPDEST DUP2 SLOAD DUP2 MSTORE SWAP1 PUSH1 0x1 ADD SWAP1 PUSH1 0x20 ADD DUP1 DUP4 GT PUSH2 0x1861 JUMPI DUP3 SWAP1 SUB PUSH1 0x1F AND DUP3 ADD SWAP2 JUMPDEST POP POP POP POP POP DUP2 MSTORE PUSH1 0x20 ADD PUSH1 0x2 DUP3 ADD DUP1 SLOAD PUSH2 0x1897 SWAP1 PUSH2 0x4866 JUMP JUMPDEST DUP1 PUSH1 0x1F ADD PUSH1 0x20 DUP1 SWAP2 DIV MUL PUSH1 0x20 ADD PUSH1 0x40 MLOAD SWAP1 DUP2 ADD PUSH1 0x40 MSTORE DUP1 SWAP3 SWAP2 SWAP1 DUP2 DUP2 MSTORE PUSH1 0x20 ADD DUP3 DUP1 SLOAD PUSH2 0x18C3 SWAP1 PUSH2 0x4866 JUMP JUMPDEST DUP1 ISZERO PUSH2 0x190E JUMPI DUP1 PUSH1 0x1F LT PUSH2 0x18E5 JUMPI PUSH2 0x100 DUP1 DUP4 SLOAD DIV MUL DUP4 MSTORE SWAP2 PUSH1 0x20 ADD SWAP2 PUSH2 0x190E JUMP JUMPDEST DUP3 ADD SWAP2 SWAP1 PUSH0 MSTORE PUSH1 0x20 PUSH0 KECCAK256 SWAP1 JUMPDEST DUP2 SLOAD DUP2 MSTORE SWAP1 PUSH1 0x1 ADD SWAP1 PUSH1 0x20 ADD DUP1 DUP4 GT PUSH2 0x18F1 JUMPI DUP3 SWAP1 SUB PUSH1 0x1F AND DUP3 ADD SWAP2 JUMPDEST POP POP POP POP POP DUP2 MSTORE PUSH1 0x20 ADD PUSH1 0x3 DUP3 ADD PUSH0 SWAP1 SLOAD SWAP1 PUSH2 0x100 EXP SWAP1 DIV PUSH1 0xFF AND PUSH1 0x2 DUP2 GT ISZERO PUSH2 0x193B JUMPI PUSH2 0x193A PUSH2 0x3DED JUMP JUMPDEST JUMPDEST PUSH1 0x2 DUP2 GT ISZERO PUSH2 0x194D JUMPI PUSH2 0x194C PUSH2 0x3DED JUMP JUMPDEST JUMPDEST DUP2 MSTORE PUSH1 0x20 ADD PUSH1 0x4 DUP3 ADD SLOAD DUP2 MSTORE POP POP SWAP2 POP POP SWAP3 SWAP2 POP POP JUMP JUMPDEST PUSH0 DUP2 GT PUSH2 0x19A6 JUMPI PUSH1 0x40 MLOAD PUSH32 0x8C379A000000000000000000000000000000000000000000000000000000000 DUP2 MSTORE PUSH1 0x4 ADD PUSH2 0x199D SWAP1 PUSH2 0x4DCB JUMP JUMPDEST PUSH1 0x40 MLOAD DUP1 SWAP2 SUB SWAP1 REVERT JUMPDEST PUSH1 0x6 PUSH0 DUP5 PUSH20 0xFFFFFFFFFFFFFFFFFFFFFFFFFFFFFFFFFFFFFFFF AND PUSH20 0xFFFFFFFFFFFFFFFFFFFFFFFFFFFFFFFFFFFFFFFF AND DUP2 MSTORE PUSH1 0x20 ADD SWAP1 DUP2 MSTORE PUSH1 0x20 ADD PUSH0 KECCAK256 DUP1 SLOAD SWAP1 POP DUP3 LT PUSH2 0x1A28 JUMPI PUSH1 0x40 MLOAD PUSH32 0x8C379A000000000000000000000000000000000000000000000000000000000 DUP2 MSTORE PUSH1 0x4 ADD PUSH2 0x1A1F SWAP1 PUSH2 0x4E33 JUMP JUMPDEST PUSH1 0x40 MLOAD DUP1 SWAP2 SUB SWAP1 REVERT JUMPDEST PUSH0 PUSH1 0x6 PUSH0 DUP6 PUSH20 0xFFFFFFFFFFFFFFFFFFFFFFFFFFFFFFFFFFFFFFFF AND PUSH20 0xFFFFFFFFFFFFFFFFFFFFFFFFFFFFFFFFFFFFFFFF AND DUP2 MSTORE PUSH1 0x20 ADD SWAP1 DUP2 MSTORE PUSH1 0x20 ADD PUSH0 KECCAK256 DUP4 DUP2 SLOAD DUP2 LT PUSH2 0x1A78 JUMPI PUSH2 0x1A77 PUSH2 0x4B02 JUMP JUMPDEST JUMPDEST SWAP1 PUSH0 MSTORE PUSH1 0x20 PUSH0 KECCAK256 SWAP1 PUSH1 0x6 MUL ADD PUSH1 0x4 ADD DUP1 SLOAD PUSH2 0x1A92 SWAP1 PUSH2 0x4866 JUMP JUMPDEST DUP1 PUSH1 0x1F ADD PUSH1 0x20 DUP1 SWAP2 DIV MUL PUSH1 0x20 ADD PUSH1 0x40 MLOAD SWAP1 DUP2 ADD PUSH1 0x40 MSTORE DUP1 SWAP3 SWAP2 SWAP1 DUP2 DUP2 MSTORE PUSH1 0x20 ADD DUP3 DUP1 SLOAD PUSH2 0x1ABE SWAP1 PUSH2 0x4866 JUMP JUMPDEST DUP1 ISZERO PUSH2 0x1B09 JUMPI DUP1 PUSH1 0x1F LT PUSH2 0x1AE0 JUMPI PUSH2 0x100 DUP1 DUP4 SLOAD DIV MUL DUP4 MSTORE SWAP2 PUSH1 0x20 ADD SWAP2 PUSH2 0x1B09 JUMP JUMPDEST DUP3 ADD SWAP2 SWAP1 PUSH0 MSTORE PUSH1 0x20 PUSH0 KECCAK256 SWAP1 JUMPDEST DUP2 SLOAD DUP2 MSTORE SWAP1 PUSH1 0x1 ADD SWAP1 PUSH1 0x20 ADD DUP1 DUP4 GT PUSH2 0x1AEC JUMPI DUP3 SWAP1 SUB PUSH1 0x1F AND DUP3 ADD SWAP2 JUMPDEST POP POP POP POP POP SWAP1 POP PUSH0 DUP2 PUSH1 0x40 MLOAD PUSH1 0x20 ADD PUSH2 0x1B22 SWAP2 SWAP1 PUSH2 0x4E9D JUMP JUMPDEST PUSH1 0x40 MLOAD PUSH1 0x20 DUP2 DUP4 SUB SUB DUP2 MSTORE SWAP1 PUSH1 0x40 MSTORE SWAP1 POP PUSH0 PUSH1 0x40 MLOAD DUP1 PUSH1 0xC0 ADD PUSH1 0x40 MSTORE DUP1 CALLER PUSH20 0xFFFFFFFFFFFFFFFFFFFFFFFFFFFFFFFFFFFFFFFF AND DUP2 MSTORE PUSH1 0x20 ADD DUP8 PUSH20 0xFFFFFFFFFFFFFFFFFFFFFFFFFFFFFFFFFFFFFFFF AND DUP2 MSTORE PUSH1 0x20 ADD PUSH1 0x1 PUSH1 0x3 DUP2 GT ISZERO PUSH2 0x1B8B JUMPI PUSH2 0x1B8A PUSH2 0x3DED JUMP JUMPDEST JUMPDEST DUP2 MSTORE PUSH1 0x20 ADD DUP4 DUP2 MSTORE PUSH1 0x20 ADD DUP7 DUP2 MSTORE PUSH1 0x20 ADD DUP6 DUP2 MSTORE POP SWAP1 POP PUSH1 0x2 DUP2 SWAP1 DUP1 PUSH1 0x1 DUP2 SLOAD ADD DUP1 DUP3 SSTORE DUP1 SWAP2 POP POP PUSH1 0x1 SWAP1 SUB SWAP1 PUSH0 MSTORE PUSH1 0x20 PUSH0 KECCAK256 SWAP1 PUSH1 0x5 MUL ADD PUSH0 SWAP1 SWAP2 SWAP1 SWAP2 SWAP1 SWAP2 POP PUSH0 DUP3 ADD MLOAD DUP2 PUSH0 ADD PUSH0 PUSH2 0x100 EXP DUP2 SLOAD DUP2 PUSH20 0xFFFFFFFFFFFFFFFFFFFFFFFFFFFFFFFFFFFFFFFF MUL NOT AND SWAP1 DUP4 PUSH20 0xFFFFFFFFFFFFFFFFFFFFFFFFFFFFFFFFFFFFFFFF AND MUL OR SWAP1 SSTORE POP PUSH1 0x20 DUP3 ADD MLOAD DUP2 PUSH1 0x1 ADD PUSH0 PUSH2 0x100 EXP DUP2 SLOAD DUP2 PUSH20 0xFFFFFFFFFFFFFFFFFFFFFFFFFFFFFFFFFFFFFFFF MUL NOT AND SWAP1 DUP4 PUSH20 0xFFFFFFFFFFFFFFFFFFFFFFFFFFFFFFFFFFFFFFFF AND MUL OR SWAP1 SSTORE POP PUSH1 0x40 DUP3 ADD MLOAD DUP2 PUSH1 0x1 ADD PUSH1 0x14 PUSH2 0x100 EXP DUP2 SLOAD DUP2 PUSH1 0xFF MUL NOT AND SWAP1 DUP4 PUSH1 0x3 DUP2 GT ISZERO PUSH2 0x1C80 JUMPI PUSH2 0x1C7F PUSH2 0x3DED JUMP JUMPDEST JUMPDEST MUL OR SWAP1 SSTORE POP PUSH1 0x60 DUP3 ADD MLOAD DUP2 PUSH1 0x2 ADD SWAP1 DUP2 PUSH2 0x1C9A SWAP2 SWAP1 PUSH2 0x4A33 JUMP JUMPDEST POP PUSH1 0x80 DUP3 ADD MLOAD DUP2 PUSH1 0x3 ADD SSTORE PUSH1 0xA0 DUP3 ADD MLOAD DUP2 PUSH1 0x4 ADD SSTORE POP POP POP POP POP POP POP POP JUMP JUMPDEST PUSH1 0x3 PUSH1 0x20 MSTORE DUP1 PUSH0 MSTORE PUSH1 0x40 PUSH0 KECCAK256 PUSH0 SWAP2 POP SLOAD SWAP1 PUSH2 0x100 EXP SWAP1 DIV PUSH1 0xFF AND DUP2 JUMP JUMPDEST PUSH1 0x1 DUP1 PUSH1 0x2 DUP2 GT ISZERO PUSH2 0x1CEB JUMPI PUSH2 0x1CEA PUSH2 0x3DED JUMP JUMPDEST JUMPDEST PUSH1 0x4 PUSH0 CALLER PUSH20 0xFFFFFFFFFFFFFFFFFFFFFFFFFFFFFFFFFFFFFFFF AND PUSH20 0xFFFFFFFFFFFFFFFFFFFFFFFFFFFFFFFFFFFFFFFF AND DUP2 MSTORE PUSH1 0x20 ADD SWAP1 DUP2 MSTORE PUSH1 0x20 ADD PUSH0 KECCAK256 PUSH1 0x3 ADD PUSH0 SWAP1 SLOAD SWAP1 PUSH2 0x100 EXP SWAP1 DIV PUSH1 0xFF AND PUSH1 0x2 DUP2 GT ISZERO PUSH2 0x1D4A JUMPI PUSH2 0x1D49 PUSH2 0x3DED JUMP JUMPDEST JUMPDEST EQ PUSH2 0x1D8A JUMPI PUSH1 0x40 MLOAD PUSH32 0x8C379A000000000000000000000000000000000000000000000000000000000 DUP2 MSTORE PUSH1 0x4 ADD PUSH2 0x1D81 SWAP1 PUSH2 0x481B JUMP JUMPDEST PUSH1 0x40 MLOAD DUP1 SWAP2 SUB SWAP1 REVERT JUMPDEST DUP3 ISZERO PUSH2 0x1DE1 JUMPI PUSH1 0x1 PUSH1 0x2 DUP4 DUP2 SLOAD DUP2 LT PUSH2 0x1DA6 JUMPI PUSH2 0x1DA5 PUSH2 0x4B02 JUMP JUMPDEST JUMPDEST SWAP1 PUSH0 MSTORE PUSH1 0x20 PUSH0 KECCAK256 SWAP1 PUSH1 0x5 MUL ADD PUSH1 0x1 ADD PUSH1 0x14 PUSH2 0x100 EXP DUP2 SLOAD DUP2 PUSH1 0xFF MUL NOT AND SWAP1 DUP4 PUSH1 0x3 DUP2 GT ISZERO PUSH2 0x1DD7 JUMPI PUSH2 0x1DD6 PUSH2 0x3DED JUMP JUMPDEST JUMPDEST MUL OR SWAP1 SSTORE POP PUSH2 0x1E2D JUMP JUMPDEST PUSH1 0x2 DUP1 DUP4 DUP2 SLOAD DUP2 LT PUSH2 0x1DF6 JUMPI PUSH2 0x1DF5 PUSH2 0x4B02 JUMP JUMPDEST JUMPDEST SWAP1 PUSH0 MSTORE PUSH1 0x20 PUSH0 KECCAK256 SWAP1 PUSH1 0x5 MUL ADD PUSH1 0x1 ADD PUSH1 0x14 PUSH2 0x100 EXP DUP2 SLOAD DUP2 PUSH1 0xFF MUL NOT AND SWAP1 DUP4 PUSH1 0x3 DUP2 GT ISZERO PUSH2 0x1E27 JUMPI PUSH2 0x1E26 PUSH2 0x3DED JUMP JUMPDEST JUMPDEST MUL OR SWAP1 SSTORE POP JUMPDEST POP POP POP JUMP JUMPDEST PUSH0 DUP1 DUP1 DUP1 PUSH2 0x1E3F SWAP1 PUSH2 0x4BFD JUMP JUMPDEST SWAP2 POP POP DUP3 TIMESTAMP CALLER DUP4 PUSH1 0x40 MLOAD PUSH1 0x20 ADD PUSH2 0x1E58 SWAP4 SWAP3 SWAP2 SWAP1 PUSH2 0x4F36 JUMP JUMPDEST PUSH1 0x40 MLOAD PUSH1 0x20 DUP2 DUP4 SUB SUB DUP2 MSTORE SWAP1 PUSH1 0x40 MSTORE DUP1 MLOAD SWAP1 PUSH1 0x20 ADD KECCAK256 PUSH0 SHR PUSH2 0x1E7A SWAP2 SWAP1 PUSH2 0x4F9F JUMP JUMPDEST SWAP2 POP POP SWAP2 SWAP1 POP JUMP JUMPDEST PUSH1 0x2 DUP1 PUSH1 0x2 DUP2 GT ISZERO PUSH2 0x1E97 JUMPI PUSH2 0x1E96 PUSH2 0x3DED JUMP JUMPDEST JUMPDEST PUSH1 0x4 PUSH0 CALLER PUSH20 0xFFFFFFFFFFFFFFFFFFFFFFFFFFFFFFFFFFFFFFFF AND PUSH20 0xFFFFFFFFFFFFFFFFFFFFFFFFFFFFFFFFFFFFFFFF AND DUP2 MSTORE PUSH1 0x20 ADD SWAP1 DUP2 MSTORE PUSH1 0x20 ADD PUSH0 KECCAK256 PUSH1 0x3 ADD PUSH0 SWAP1 SLOAD SWAP1 PUSH2 0x100 EXP SWAP1 DIV PUSH1 0xFF AND PUSH1 0x2 DUP2 GT ISZERO PUSH2 0x1EF6 JUMPI PUSH2 0x1EF5 PUSH2 0x3DED JUMP JUMPDEST JUMPDEST EQ PUSH2 0x1F36 JUMPI PUSH1 0x40 MLOAD PUSH32 0x8C379A000000000000000000000000000000000000000000000000000000000 DUP2 MSTORE PUSH1 0x4 ADD PUSH2 0x1F2D SWAP1 PUSH2 0x481B JUMP JUMPDEST PUSH1 0x40 MLOAD DUP1 SWAP2 SUB SWAP1 REVERT JUMPDEST PUSH0 PUSH1 0x40 MLOAD DUP1 PUSH1 0xC0 ADD PUSH1 0x40 MSTORE DUP1 PUSH0 DUP2 MSTORE PUSH1 0x20 ADD DUP5 PUSH20 0xFFFFFFFFFFFFFFFFFFFFFFFFFFFFFFFFFFFFFFFF AND DUP2 MSTORE PUSH1 0x20 ADD DUP10 DUP2 MSTORE PUSH1 0x20 ADD PUSH1 0x2 DUP10 PUSH2 0x1F77 SWAP2 SWAP1 PUSH2 0x4FCF JUMP JUMPDEST DUP2 MSTORE PUSH1 0x20 ADD DUP8 DUP8 DUP1 DUP1 PUSH1 0x1F ADD PUSH1 0x20 DUP1 SWAP2 DIV MUL PUSH1 0x20 ADD PUSH1 0x40 MLOAD SWAP1 DUP2 ADD PUSH1 0x40 MSTORE DUP1 SWAP4 SWAP3 SWAP2 SWAP1 DUP2 DUP2 MSTORE PUSH1 0x20 ADD DUP4 DUP4 DUP1 DUP3 DUP5 CALLDATACOPY PUSH0 DUP2 DUP5 ADD MSTORE PUSH1 0x1F NOT PUSH1 0x1F DUP3 ADD AND SWAP1 POP DUP1 DUP4 ADD SWAP3 POP POP POP POP POP POP POP DUP2 MSTORE PUSH1 0x20 ADD DUP6 DUP2 MSTORE POP SWAP1 POP PUSH1 0x7 PUSH0 DUP5 PUSH20 0xFFFFFFFFFFFFFFFFFFFFFFFFFFFFFFFFFFFFFFFF AND PUSH20 0xFFFFFFFFFFFFFFFFFFFFFFFFFFFFFFFFFFFFFFFF AND DUP2 MSTORE PUSH1 0x20 ADD SWAP1 DUP2 MSTORE PUSH1 0x20 ADD PUSH0 KECCAK256 DUP2 SWAP1 DUP1 PUSH1 0x1 DUP2 SLOAD ADD DUP1 DUP3 SSTORE DUP1 SWAP2 POP POP PUSH1 0x1 SWAP1 SUB SWAP1 PUSH0 MSTORE PUSH1 0x20 PUSH0 KECCAK256 SWAP1 PUSH1 0x6 MUL ADD PUSH0 SWAP1 SWAP2 SWAP1 SWAP2 SWAP1 SWAP2 POP PUSH0 DUP3 ADD MLOAD DUP2 PUSH0 ADD SSTORE PUSH1 0x20 DUP3 ADD MLOAD DUP2 PUSH1 0x1 ADD PUSH0 PUSH2 0x100 EXP DUP2 SLOAD DUP2 PUSH20 0xFFFFFFFFFFFFFFFFFFFFFFFFFFFFFFFFFFFFFFFF MUL NOT AND SWAP1 DUP4 PUSH20 0xFFFFFFFFFFFFFFFFFFFFFFFFFFFFFFFFFFFFFFFF AND MUL OR SWAP1 SSTORE POP PUSH1 0x40 DUP3 ADD MLOAD DUP2 PUSH1 0x2 ADD SSTORE PUSH1 0x60 DUP3 ADD MLOAD DUP2 PUSH1 0x3 ADD SSTORE PUSH1 0x80 DUP3 ADD MLOAD DUP2 PUSH1 0x4 ADD SWAP1 DUP2 PUSH2 0x20A6 SWAP2 SWAP1 PUSH2 0x4A33 JUMP JUMPDEST POP PUSH1 0xA0 DUP3 ADD MLOAD DUP2 PUSH1 0x5 ADD SSTORE POP POP POP POP POP POP POP POP POP POP JUMP JUMPDEST PUSH1 0x1 PUSH0 SWAP1 SLOAD SWAP1 PUSH2 0x100 EXP SWAP1 DIV PUSH20 0xFFFFFFFFFFFFFFFFFFFFFFFFFFFFFFFFFFFFFFFF AND DUP2 JUMP JUMPDEST PUSH0 DUP4 GT PUSH2 0x2124 JUMPI PUSH1 0x40 MLOAD PUSH32 0x8C379A000000000000000000000000000000000000000000000000000000000 DUP2 MSTORE PUSH1 0x4 ADD PUSH2 0x211B SWAP1 PUSH2 0x4DCB JUMP JUMPDEST PUSH1 0x40 MLOAD DUP1 SWAP2 SUB SWAP1 REVERT JUMPDEST PUSH1 0x6 PUSH0 DUP6 PUSH20 0xFFFFFFFFFFFFFFFFFFFFFFFFFFFFFFFFFFFFFFFF AND PUSH20 0xFFFFFFFFFFFFFFFFFFFFFFFFFFFFFFFFFFFFFFFF AND DUP2 MSTORE PUSH1 0x20 ADD SWAP1 DUP2 MSTORE PUSH1 0x20 ADD PUSH0 KECCAK256 DUP1 SLOAD SWAP1 POP DUP3 LT PUSH2 0x21A6 JUMPI PUSH1 0x40 MLOAD PUSH32 0x8C379A000000000000000000000000000000000000000000000000000000000 DUP2 MSTORE PUSH1 0x4 ADD PUSH2 0x219D SWAP1 PUSH2 0x4E33 JUMP JUMPDEST PUSH1 0x40 MLOAD DUP1 SWAP2 SUB SWAP1 REVERT JUMPDEST PUSH1 0x6 PUSH0 DUP6 PUSH20 0xFFFFFFFFFFFFFFFFFFFFFFFFFFFFFFFFFFFFFFFF AND PUSH20 0xFFFFFFFFFFFFFFFFFFFFFFFFFFFFFFFFFFFFFFFF AND DUP2 MSTORE PUSH1 0x20 ADD SWAP1 DUP2 MSTORE PUSH1 0x20 ADD PUSH0 KECCAK256 DUP3 DUP2 SLOAD DUP2 LT PUSH2 0x21F5 JUMPI PUSH2 0x21F4 PUSH2 0x4B02 JUMP JUMPDEST JUMPDEST SWAP1 PUSH0 MSTORE PUSH1 0x20 PUSH0 KECCAK256 SWAP1 PUSH1 0x6 MUL ADD PUSH1 0x2 ADD SLOAD DUP4 GT ISZERO PUSH2 0x2247 JUMPI PUSH1 0x40 MLOAD PUSH32 0x8C379A000000000000000000000000000000000000000000000000000000000 DUP2 MSTORE PUSH1 0x4 ADD PUSH2 0x223E SWAP1 PUSH2 0x5049 JUMP JUMPDEST PUSH1 0x40 MLOAD DUP1 SWAP2 SUB SWAP1 REVERT JUMPDEST PUSH0 PUSH1 0x6 PUSH0 DUP7 PUSH20 0xFFFFFFFFFFFFFFFFFFFFFFFFFFFFFFFFFFFFFFFF AND PUSH20 0xFFFFFFFFFFFFFFFFFFFFFFFFFFFFFFFFFFFFFFFF AND DUP2 MSTORE PUSH1 0x20 ADD SWAP1 DUP2 MSTORE PUSH1 0x20 ADD PUSH0 KECCAK256 DUP4 DUP2 SLOAD DUP2 LT PUSH2 0x2297 JUMPI PUSH2 0x2296 PUSH2 0x4B02 JUMP JUMPDEST JUMPDEST SWAP1 PUSH0 MSTORE PUSH1 0x20 PUSH0 KECCAK256 SWAP1 PUSH1 0x6 MUL ADD PUSH1 0x3 ADD SLOAD DUP5 PUSH2 0x22B2 SWAP2 SWAP1 PUSH2 0x4C44 JUMP JUMPDEST SWAP1 POP CALLER PUSH20 0xFFFFFFFFFFFFFFFFFFFFFFFFFFFFFFFFFFFFFFFF AND PUSH1 0x8 DUP4 PUSH1 0x40 MLOAD PUSH2 0x22DB SWAP2 SWAP1 PUSH2 0x4D25 JUMP JUMPDEST SWAP1 DUP2 MSTORE PUSH1 0x20 ADD PUSH1 0x40 MLOAD DUP1 SWAP2 SUB SWAP1 KECCAK256 PUSH0 SWAP1 SLOAD SWAP1 PUSH2 0x100 EXP SWAP1 DIV PUSH20 0xFFFFFFFFFFFFFFFFFFFFFFFFFFFFFFFFFFFFFFFF AND PUSH20 0xFFFFFFFFFFFFFFFFFFFFFFFFFFFFFFFFFFFFFFFF AND SUB PUSH2 0x239C JUMPI PUSH1 0x64 PUSH1 0x5A DUP3 PUSH2 0x2333 SWAP2 SWAP1 PUSH2 0x4C44 JUMP JUMPDEST PUSH2 0x233D SWAP2 SWAP1 PUSH2 0x4FCF JUMP JUMPDEST SWAP1 POP PUSH0 PUSH1 0x8 DUP4 PUSH1 0x40 MLOAD PUSH2 0x2350 SWAP2 SWAP1 PUSH2 0x4D25 JUMP JUMPDEST SWAP1 DUP2 MSTORE PUSH1 0x20 ADD PUSH1 0x40 MLOAD DUP1 SWAP2 SUB SWAP1 KECCAK256 PUSH0 PUSH2 0x100 EXP DUP2 SLOAD DUP2 PUSH20 0xFFFFFFFFFFFFFFFFFFFFFFFFFFFFFFFFFFFFFFFF MUL NOT AND SWAP1 DUP4 PUSH20 0xFFFFFFFFFFFFFFFFFFFFFFFFFFFFFFFFFFFFFFFF AND MUL OR SWAP1 SSTORE POP JUMPDEST DUP1 CALLVALUE LT ISZERO PUSH2 0x23DF JUMPI PUSH1 0x40 MLOAD PUSH32 0x8C379A000000000000000000000000000000000000000000000000000000000 DUP2 MSTORE PUSH1 0x4 ADD PUSH2 0x23D6 SWAP1 PUSH2 0x50B1 JUMP JUMPDEST PUSH1 0x40 MLOAD DUP1 SWAP2 SUB SWAP1 REVERT JUMPDEST PUSH0 DUP1 JUMPDEST PUSH1 0x5 PUSH0 CALLER PUSH20 0xFFFFFFFFFFFFFFFFFFFFFFFFFFFFFFFFFFFFFFFF AND PUSH20 0xFFFFFFFFFFFFFFFFFFFFFFFFFFFFFFFFFFFFFFFF AND DUP2 MSTORE PUSH1 0x20 ADD SWAP1 DUP2 MSTORE PUSH1 0x20 ADD PUSH0 KECCAK256 DUP1 SLOAD SWAP1 POP DUP2 LT ISZERO PUSH2 0x25C7 JUMPI PUSH1 0x6 PUSH0 DUP9 PUSH20 0xFFFFFFFFFFFFFFFFFFFFFFFFFFFFFFFFFFFFFFFF AND PUSH20 0xFFFFFFFFFFFFFFFFFFFFFFFFFFFFFFFFFFFFFFFF AND DUP2 MSTORE PUSH1 0x20 ADD SWAP1 DUP2 MSTORE PUSH1 0x20 ADD PUSH0 KECCAK256 DUP6 DUP2 SLOAD DUP2 LT PUSH2 0x2479 JUMPI PUSH2 0x2478 PUSH2 0x4B02 JUMP JUMPDEST JUMPDEST SWAP1 PUSH0 MSTORE PUSH1 0x20 PUSH0 KECCAK256 SWAP1 PUSH1 0x6 MUL ADD PUSH1 0x4 ADD PUSH1 0x40 MLOAD PUSH1 0x20 ADD PUSH2 0x2498 SWAP2 SWAP1 PUSH2 0x4BB0 JUMP JUMPDEST PUSH1 0x40 MLOAD PUSH1 0x20 DUP2 DUP4 SUB SUB DUP2 MSTORE SWAP1 PUSH1 0x40 MSTORE DUP1 MLOAD SWAP1 PUSH1 0x20 ADD KECCAK256 PUSH1 0x5 PUSH0 CALLER PUSH20 0xFFFFFFFFFFFFFFFFFFFFFFFFFFFFFFFFFFFFFFFF AND PUSH20 0xFFFFFFFFFFFFFFFFFFFFFFFFFFFFFFFFFFFFFFFF AND DUP2 MSTORE PUSH1 0x20 ADD SWAP1 DUP2 MSTORE PUSH1 0x20 ADD PUSH0 KECCAK256 DUP3 DUP2 SLOAD DUP2 LT PUSH2 0x24FD JUMPI PUSH2 0x24FC PUSH2 0x4B02 JUMP JUMPDEST JUMPDEST SWAP1 PUSH0 MSTORE PUSH1 0x20 PUSH0 KECCAK256 SWAP1 PUSH1 0x6 MUL ADD PUSH1 0x4 ADD PUSH1 0x40 MLOAD PUSH1 0x20 ADD PUSH2 0x251C SWAP2 SWAP1 PUSH2 0x4BB0 JUMP JUMPDEST PUSH1 0x40 MLOAD PUSH1 0x20 DUP2 DUP4 SUB SUB DUP2 MSTORE SWAP1 PUSH1 0x40 MSTORE DUP1 MLOAD SWAP1 PUSH1 0x20 ADD KECCAK256 SUB PUSH2 0x25B4 JUMPI DUP6 PUSH1 0x5 PUSH0 CALLER PUSH20 0xFFFFFFFFFFFFFFFFFFFFFFFFFFFFFFFFFFFFFFFF AND PUSH20 0xFFFFFFFFFFFFFFFFFFFFFFFFFFFFFFFFFFFFFFFF AND DUP2 MSTORE PUSH1 0x20 ADD SWAP1 DUP2 MSTORE PUSH1 0x20 ADD PUSH0 KECCAK256 DUP3 DUP2 SLOAD DUP2 LT PUSH2 0x2587 JUMPI PUSH2 0x2586 PUSH2 0x4B02 JUMP JUMPDEST JUMPDEST SWAP1 PUSH0 MSTORE PUSH1 0x20 PUSH0 KECCAK256 SWAP1 PUSH1 0x6 MUL ADD PUSH1 0x2 ADD PUSH0 DUP3 DUP3 SLOAD PUSH2 0x25A4 SWAP2 SWAP1 PUSH2 0x4C85 JUMP JUMPDEST SWAP3 POP POP DUP2 SWAP1 SSTORE POP PUSH1 0x1 SWAP2 POP PUSH2 0x25C7 JUMP JUMPDEST DUP1 DUP1 PUSH2 0x25BF SWAP1 PUSH2 0x4BFD JUMP JUMPDEST SWAP2 POP POP PUSH2 0x23E2 JUMP JUMPDEST POP DUP1 PUSH2 0x27E6 JUMPI PUSH1 0x5 PUSH0 CALLER PUSH20 0xFFFFFFFFFFFFFFFFFFFFFFFFFFFFFFFFFFFFFFFF AND PUSH20 0xFFFFFFFFFFFFFFFFFFFFFFFFFFFFFFFFFFFFFFFF AND DUP2 MSTORE PUSH1 0x20 ADD SWAP1 DUP2 MSTORE PUSH1 0x20 ADD PUSH0 KECCAK256 PUSH1 0x40 MLOAD DUP1 PUSH1 0xC0 ADD PUSH1 0x40 MSTORE DUP1 DUP7 DUP2 MSTORE PUSH1 0x20 ADD DUP9 PUSH20 0xFFFFFFFFFFFFFFFFFFFFFFFFFFFFFFFFFFFFFFFF AND DUP2 MSTORE PUSH1 0x20 ADD DUP8 DUP2 MSTORE PUSH1 0x20 ADD CALLVALUE DUP2 MSTORE PUSH1 0x20 ADD PUSH1 0x6 PUSH0 DUP11 PUSH20 0xFFFFFFFFFFFFFFFFFFFFFFFFFFFFFFFFFFFFFFFF AND PUSH20 0xFFFFFFFFFFFFFFFFFFFFFFFFFFFFFFFFFFFFFFFF AND DUP2 MSTORE PUSH1 0x20 ADD SWAP1 DUP2 MSTORE PUSH1 0x20 ADD PUSH0 KECCAK256 DUP8 DUP2 SLOAD DUP2 LT PUSH2 0x2692 JUMPI PUSH2 0x2691 PUSH2 0x4B02 JUMP JUMPDEST JUMPDEST SWAP1 PUSH0 MSTORE PUSH1 0x20 PUSH0 KECCAK256 SWAP1 PUSH1 0x6 MUL ADD PUSH1 0x4 ADD DUP1 SLOAD PUSH2 0x26AC SWAP1 PUSH2 0x4866 JUMP JUMPDEST DUP1 PUSH1 0x1F ADD PUSH1 0x20 DUP1 SWAP2 DIV MUL PUSH1 0x20 ADD PUSH1 0x40 MLOAD SWAP1 DUP2 ADD PUSH1 0x40 MSTORE DUP1 SWAP3 SWAP2 SWAP1 DUP2 DUP2 MSTORE PUSH1 0x20 ADD DUP3 DUP1 SLOAD PUSH2 0x26D8 SWAP1 PUSH2 0x4866 JUMP JUMPDEST DUP1 ISZERO PUSH2 0x2723 JUMPI DUP1 PUSH1 0x1F LT PUSH2 0x26FA JUMPI PUSH2 0x100 DUP1 DUP4 SLOAD DIV MUL DUP4 MSTORE SWAP2 PUSH1 0x20 ADD SWAP2 PUSH2 0x2723 JUMP JUMPDEST DUP3 ADD SWAP2 SWAP1 PUSH0 MSTORE PUSH1 0x20 PUSH0 KECCAK256 SWAP1 JUMPDEST DUP2 SLOAD DUP2 MSTORE SWAP1 PUSH1 0x1 ADD SWAP1 PUSH1 0x20 ADD DUP1 DUP4 GT PUSH2 0x2706 JUMPI DUP3 SWAP1 SUB PUSH1 0x1F AND DUP3 ADD SWAP2 JUMPDEST POP POP POP POP POP DUP2 MSTORE PUSH1 0x20 ADD PUSH2 0x2738 PUSH2 0x3E8 PUSH2 0x1E32 JUMP JUMPDEST DUP2 MSTORE POP SWAP1 DUP1 PUSH1 0x1 DUP2 SLOAD ADD DUP1 DUP3 SSTORE DUP1 SWAP2 POP POP PUSH1 0x1 SWAP1 SUB SWAP1 PUSH0 MSTORE PUSH1 0x20 PUSH0 KECCAK256 SWAP1 PUSH1 0x6 MUL ADD PUSH0 SWAP1 SWAP2 SWAP1 SWAP2 SWAP1 SWAP2 POP PUSH0 DUP3 ADD MLOAD DUP2 PUSH0 ADD SSTORE PUSH1 0x20 DUP3 ADD MLOAD DUP2 PUSH1 0x1 ADD PUSH0 PUSH2 0x100 EXP DUP2 SLOAD DUP2 PUSH20 0xFFFFFFFFFFFFFFFFFFFFFFFFFFFFFFFFFFFFFFFF MUL NOT AND SWAP1 DUP4 PUSH20 0xFFFFFFFFFFFFFFFFFFFFFFFFFFFFFFFFFFFFFFFF AND MUL OR SWAP1 SSTORE POP PUSH1 0x40 DUP3 ADD MLOAD DUP2 PUSH1 0x2 ADD SSTORE PUSH1 0x60 DUP3 ADD MLOAD DUP2 PUSH1 0x3 ADD SSTORE PUSH1 0x80 DUP3 ADD MLOAD DUP2 PUSH1 0x4 ADD SWAP1 DUP2 PUSH2 0x27D8 SWAP2 SWAP1 PUSH2 0x4A33 JUMP JUMPDEST POP PUSH1 0xA0 DUP3 ADD MLOAD DUP2 PUSH1 0x5 ADD SSTORE POP POP JUMPDEST DUP5 PUSH1 0x6 PUSH0 DUP9 PUSH20 0xFFFFFFFFFFFFFFFFFFFFFFFFFFFFFFFFFFFFFFFF AND PUSH20 0xFFFFFFFFFFFFFFFFFFFFFFFFFFFFFFFFFFFFFFFF AND DUP2 MSTORE PUSH1 0x20 ADD SWAP1 DUP2 MSTORE PUSH1 0x20 ADD PUSH0 KECCAK256 DUP6 DUP2 SLOAD DUP2 LT PUSH2 0x2836 JUMPI PUSH2 0x2835 PUSH2 0x4B02 JUMP JUMPDEST JUMPDEST SWAP1 PUSH0 MSTORE PUSH1 0x20 PUSH0 KECCAK256 SWAP1 PUSH1 0x6 MUL ADD PUSH1 0x2 ADD PUSH0 DUP3 DUP3 SLOAD PUSH2 0x2853 SWAP2 SWAP1 PUSH2 0x4CB8 JUMP JUMPDEST SWAP3 POP POP DUP2 SWAP1 SSTORE POP DUP2 PUSH1 0x4 PUSH0 DUP9 PUSH20 0xFFFFFFFFFFFFFFFFFFFFFFFFFFFFFFFFFFFFFFFF AND PUSH20 0xFFFFFFFFFFFFFFFFFFFFFFFFFFFFFFFFFFFFFFFF AND DUP2 MSTORE PUSH1 0x20 ADD SWAP1 DUP2 MSTORE PUSH1 0x20 ADD PUSH0 KECCAK256 PUSH1 0x4 ADD PUSH0 DUP3 DUP3 SLOAD PUSH2 0x28A9 SWAP2 SWAP1 PUSH2 0x4C85 JUMP JUMPDEST SWAP3 POP POP DUP2 SWAP1 SSTORE POP POP POP POP POP POP POP JUMP JUMPDEST DUP1 PUSH1 0x8 DUP4 PUSH1 0x40 MLOAD PUSH2 0x28C9 SWAP2 SWAP1 PUSH2 0x4D25 JUMP JUMPDEST SWAP1 DUP2 MSTORE PUSH1 0x20 ADD PUSH1 0x40 MLOAD DUP1 SWAP2 SUB SWAP1 KECCAK256 PUSH0 PUSH2 0x100 EXP DUP2 SLOAD DUP2 PUSH20 0xFFFFFFFFFFFFFFFFFFFFFFFFFFFFFFFFFFFFFFFF MUL NOT AND SWAP1 DUP4 PUSH20 0xFFFFFFFFFFFFFFFFFFFFFFFFFFFFFFFFFFFFFFFF AND MUL OR SWAP1 SSTORE POP POP POP JUMP JUMPDEST PUSH1 0x4 PUSH1 0x20 MSTORE DUP1 PUSH0 MSTORE PUSH1 0x40 PUSH0 KECCAK256 PUSH0 SWAP2 POP SWAP1 POP DUP1 PUSH0 ADD DUP1 SLOAD PUSH2 0x2937 SWAP1 PUSH2 0x4866 JUMP JUMPDEST DUP1 PUSH1 0x1F ADD PUSH1 0x20 DUP1 SWAP2 DIV MUL PUSH1 0x20 ADD PUSH1 0x40 MLOAD SWAP1 DUP2 ADD PUSH1 0x40 MSTORE DUP1 SWAP3 SWAP2 SWAP1 DUP2 DUP2 MSTORE PUSH1 0x20 ADD DUP3 DUP1 SLOAD PUSH2 0x2963 SWAP1 PUSH2 0x4866 JUMP JUMPDEST DUP1 ISZERO PUSH2 0x29AE JUMPI DUP1 PUSH1 0x1F LT PUSH2 0x2985 JUMPI PUSH2 0x100 DUP1 DUP4 SLOAD DIV MUL DUP4 MSTORE SWAP2 PUSH1 0x20 ADD SWAP2 PUSH2 0x29AE JUMP JUMPDEST DUP3 ADD SWAP2 SWAP1 PUSH0 MSTORE PUSH1 0x20 PUSH0 KECCAK256 SWAP1 JUMPDEST DUP2 SLOAD DUP2 MSTORE SWAP1 PUSH1 0x1 ADD SWAP1 PUSH1 0x20 ADD DUP1 DUP4 GT PUSH2 0x2991 JUMPI DUP3 SWAP1 SUB PUSH1 0x1F AND DUP3 ADD SWAP2 JUMPDEST POP POP POP POP POP SWAP1 DUP1 PUSH1 0x1 ADD DUP1 SLOAD PUSH2 0x29C3 SWAP1 PUSH2 0x4866 JUMP JUMPDEST DUP1 PUSH1 0x1F ADD PUSH1 0x20 DUP1 SWAP2 DIV MUL PUSH1 0x20 ADD PUSH1 0x40 MLOAD SWAP1 DUP2 ADD PUSH1 0x40 MSTORE DUP1 SWAP3 SWAP2 SWAP1 DUP2 DUP2 MSTORE PUSH1 0x20 ADD DUP3 DUP1 SLOAD PUSH2 0x29EF SWAP1 PUSH2 0x4866 JUMP JUMPDEST DUP1 ISZERO PUSH2 0x2A3A JUMPI DUP1 PUSH1 0x1F LT PUSH2 0x2A11 JUMPI PUSH2 0x100 DUP1 DUP4 SLOAD DIV MUL DUP4 MSTORE SWAP2 PUSH1 0x20 ADD SWAP2 PUSH2 0x2A3A JUMP JUMPDEST DUP3 ADD SWAP2 SWAP1 PUSH0 MSTORE PUSH1 0x20 PUSH0 KECCAK256 SWAP1 JUMPDEST DUP2 SLOAD DUP2 MSTORE SWAP1 PUSH1 0x1 ADD SWAP1 PUSH1 0x20 ADD DUP1 DUP4 GT PUSH2 0x2A1D JUMPI DUP3 SWAP1 SUB PUSH1 0x1F AND DUP3 ADD SWAP2 JUMPDEST POP POP POP POP POP SWAP1 DUP1 PUSH1 0x2 ADD DUP1 SLOAD PUSH2 0x2A4F SWAP1 PUSH2 0x4866 JUMP JUMPDEST DUP1 PUSH1 0x1F ADD PUSH1 0x20 DUP1 SWAP2 DIV MUL PUSH1 0x20 ADD PUSH1 0x40 MLOAD SWAP1 DUP2 ADD PUSH1 0x40 MSTORE DUP1 SWAP3 SWAP2 SWAP1 DUP2 DUP2 MSTORE PUSH1 0x20 ADD DUP3 DUP1 SLOAD PUSH2 0x2A7B SWAP1 PUSH2 0x4866 JUMP JUMPDEST DUP1 ISZERO PUSH2 0x2AC6 JUMPI DUP1 PUSH1 0x1F LT PUSH2 0x2A9D JUMPI PUSH2 0x100 DUP1 DUP4 SLOAD DIV MUL DUP4 MSTORE SWAP2 PUSH1 0x20 ADD SWAP2 PUSH2 0x2AC6 JUMP JUMPDEST DUP3 ADD SWAP2 SWAP1 PUSH0 MSTORE PUSH1 0x20 PUSH0 KECCAK256 SWAP1 JUMPDEST DUP2 SLOAD DUP2 MSTORE SWAP1 PUSH1 0x1 ADD SWAP1 PUSH1 0x20 ADD DUP1 DUP4 GT PUSH2 0x2AA9 JUMPI DUP3 SWAP1 SUB PUSH1 0x1F AND DUP3 ADD SWAP2 JUMPDEST POP POP POP POP POP SWAP1 DUP1 PUSH1 0x3 ADD PUSH0 SWAP1 SLOAD SWAP1 PUSH2 0x100 EXP SWAP1 DIV PUSH1 0xFF AND SWAP1 DUP1 PUSH1 0x4 ADD SLOAD SWAP1 POP DUP6 JUMP JUMPDEST PUSH1 0x40 MLOAD DUP1 PUSH1 0xA0 ADD PUSH1 0x40 MSTORE DUP1 DUP6 DUP2 MSTORE PUSH1 0x20 ADD DUP5 DUP2 MSTORE PUSH1 0x20 ADD DUP4 DUP2 MSTORE PUSH1 0x20 ADD PUSH0 PUSH1 0x2 DUP2 GT ISZERO PUSH2 0x2B18 JUMPI PUSH2 0x2B17 PUSH2 0x3DED JUMP JUMPDEST JUMPDEST DUP2 MSTORE PUSH1 0x20 ADD PUSH0 DUP2 MSTORE POP PUSH1 0x4 PUSH0 CALLER PUSH20 0xFFFFFFFFFFFFFFFFFFFFFFFFFFFFFFFFFFFFFFFF AND PUSH20 0xFFFFFFFFFFFFFFFFFFFFFFFFFFFFFFFFFFFFFFFF AND DUP2 MSTORE PUSH1 0x20 ADD SWAP1 DUP2 MSTORE PUSH1 0x20 ADD PUSH0 KECCAK256 PUSH0 DUP3 ADD MLOAD DUP2 PUSH0 ADD SWAP1 DUP2 PUSH2 0x2B71 SWAP2 SWAP1 PUSH2 0x4A33 JUMP JUMPDEST POP PUSH1 0x20 DUP3 ADD MLOAD DUP2 PUSH1 0x1 ADD SWAP1 DUP2 PUSH2 0x2B87 SWAP2 SWAP1 PUSH2 0x4A33 JUMP JUMPDEST POP PUSH1 0x40 DUP3 ADD MLOAD DUP2 PUSH1 0x2 ADD SWAP1 DUP2 PUSH2 0x2B9D SWAP2 SWAP1 PUSH2 0x4A33 JUMP JUMPDEST POP PUSH1 0x60 DUP3 ADD MLOAD DUP2 PUSH1 0x3 ADD PUSH0 PUSH2 0x100 EXP DUP2 SLOAD DUP2 PUSH1 0xFF MUL NOT AND SWAP1 DUP4 PUSH1 0x2 DUP2 GT ISZERO PUSH2 0x2BC8 JUMPI PUSH2 0x2BC7 PUSH2 0x3DED JUMP JUMPDEST JUMPDEST MUL OR SWAP1 SSTORE POP PUSH1 0x80 DUP3 ADD MLOAD DUP2 PUSH1 0x4 ADD SSTORE SWAP1 POP POP DUP1 PUSH1 0x40 MLOAD PUSH1 0x20 ADD PUSH2 0x2BEB SWAP2 SWAP1 PUSH2 0x4D3B JUMP JUMPDEST PUSH1 0x40 MLOAD PUSH1 0x20 DUP2 DUP4 SUB SUB DUP2 MSTORE SWAP1 PUSH1 0x40 MSTORE DUP1 MLOAD SWAP1 PUSH1 0x20 ADD KECCAK256 PUSH1 0x9 PUSH0 CALLER PUSH20 0xFFFFFFFFFFFFFFFFFFFFFFFFFFFFFFFFFFFFFFFF AND PUSH20 0xFFFFFFFFFFFFFFFFFFFFFFFFFFFFFFFFFFFFFFFF AND DUP2 MSTORE PUSH1 0x20 ADD SWAP1 DUP2 MSTORE PUSH1 0x20 ADD PUSH0 KECCAK256 DUP2 SWAP1 SSTORE POP POP POP POP POP JUMP JUMPDEST PUSH1 0x1 PUSH0 SWAP1 SLOAD SWAP1 PUSH2 0x100 EXP SWAP1 DIV PUSH20 0xFFFFFFFFFFFFFFFFFFFFFFFFFFFFFFFFFFFFFFFF AND PUSH20 0xFFFFFFFFFFFFFFFFFFFFFFFFFFFFFFFFFFFFFFFF AND CALLER PUSH20 0xFFFFFFFFFFFFFFFFFFFFFFFFFFFFFFFFFFFFFFFF AND EQ PUSH2 0x2CA0 JUMPI PUSH0 DUP1 REVERT JUMPDEST PUSH0 DUP1 SLOAD SWAP1 POP DUP3 LT PUSH2 0x2CAF JUMPI PUSH0 DUP1 REVERT JUMPDEST PUSH0 DUP1 DUP4 DUP2 SLOAD DUP2 LT PUSH2 0x2CC3 JUMPI PUSH2 0x2CC2 PUSH2 0x4B02 JUMP JUMPDEST JUMPDEST SWAP1 PUSH0 MSTORE PUSH1 0x20 PUSH0 KECCAK256 ADD PUSH0 ADD PUSH0 SWAP1 SLOAD SWAP1 PUSH2 0x100 EXP SWAP1 DIV PUSH20 0xFFFFFFFFFFFFFFFFFFFFFFFFFFFFFFFFFFFFFFFF AND SWAP1 POP PUSH0 DUP1 DUP5 DUP2 SLOAD DUP2 LT PUSH2 0x2D03 JUMPI PUSH2 0x2D02 PUSH2 0x4B02 JUMP JUMPDEST JUMPDEST SWAP1 PUSH0 MSTORE PUSH1 0x20 PUSH0 KECCAK256 ADD PUSH0 ADD PUSH1 0x14 SWAP1 SLOAD SWAP1 PUSH2 0x100 EXP SWAP1 DIV PUSH1 0xFF AND SWAP1 POP DUP3 ISZERO PUSH2 0x2D8B JUMPI DUP1 PUSH1 0x4 PUSH0 DUP5 PUSH20 0xFFFFFFFFFFFFFFFFFFFFFFFFFFFFFFFFFFFFFFFF AND PUSH20 0xFFFFFFFFFFFFFFFFFFFFFFFFFFFFFFFFFFFFFFFF AND DUP2 MSTORE PUSH1 0x20 ADD SWAP1 DUP2 MSTORE PUSH1 0x20 ADD PUSH0 KECCAK256 PUSH1 0x3 ADD PUSH0 PUSH2 0x100 EXP DUP2 SLOAD DUP2 PUSH1 0xFF MUL NOT AND SWAP1 DUP4 PUSH1 0x2 DUP2 GT ISZERO PUSH2 0x2D85 JUMPI PUSH2 0x2D84 PUSH2 0x3DED JUMP JUMPDEST JUMPDEST MUL OR SWAP1 SSTORE POP JUMPDEST PUSH0 PUSH1 0x3 PUSH0 DUP5 PUSH20 0xFFFFFFFFFFFFFFFFFFFFFFFFFFFFFFFFFFFFFFFF AND PUSH20 0xFFFFFFFFFFFFFFFFFFFFFFFFFFFFFFFFFFFFFFFF AND DUP2 MSTORE PUSH1 0x20 ADD SWAP1 DUP2 MSTORE PUSH1 0x20 ADD PUSH0 KECCAK256 PUSH0 PUSH2 0x100 EXP DUP2 SLOAD DUP2 PUSH1 0xFF MUL NOT AND SWAP1 DUP4 ISZERO ISZERO MUL OR SWAP1 SSTORE POP PUSH0 DUP5 DUP2 SLOAD DUP2 LT PUSH2 0x2DF2 JUMPI PUSH2 0x2DF1 PUSH2 0x4B02 JUMP JUMPDEST JUMPDEST SWAP1 PUSH0 MSTORE PUSH1 0x20 PUSH0 KECCAK256 ADD PUSH0 DUP1 DUP3 ADD PUSH0 PUSH2 0x100 EXP DUP2 SLOAD SWAP1 PUSH20 0xFFFFFFFFFFFFFFFFFFFFFFFFFFFFFFFFFFFFFFFF MUL NOT AND SWAP1 SSTORE PUSH0 DUP3 ADD PUSH1 0x14 PUSH2 0x100 EXP DUP2 SLOAD SWAP1 PUSH1 0xFF MUL NOT AND SWAP1 SSTORE POP POP POP POP POP POP JUMP JUMPDEST PUSH0 PUSH1 0x5 PUSH0 CALLER PUSH20 0xFFFFFFFFFFFFFFFFFFFFFFFFFFFFFFFFFFFFFFFF AND PUSH20 0xFFFFFFFFFFFFFFFFFFFFFFFFFFFFFFFFFFFFFFFF AND DUP2 MSTORE PUSH1 0x20 ADD SWAP1 DUP2 MSTORE PUSH1 0x20 ADD PUSH0 KECCAK256 DUP1 SLOAD SWAP1 POP SWAP1 POP SWAP1 JUMP JUMPDEST PUSH1 0x8 DUP2 DUP1 MLOAD PUSH1 0x20 DUP2 ADD DUP3 ADD DUP1 MLOAD DUP5 DUP3 MSTORE PUSH1 0x20 DUP4 ADD PUSH1 0x20 DUP6 ADD KECCAK256 DUP2 DUP4 MSTORE DUP1 SWAP6 POP POP POP POP POP POP PUSH0 SWAP2 POP SLOAD SWAP1 PUSH2 0x100 EXP SWAP1 DIV PUSH20 0xFFFFFFFFFFFFFFFFFFFFFFFFFFFFFFFFFFFFFFFF AND DUP2 JUMP JUMPDEST PUSH1 0x9 PUSH1 0x20 MSTORE DUP1 PUSH0 MSTORE PUSH1 0x40 PUSH0 KECCAK256 PUSH0 SWAP2 POP SWAP1 POP SLOAD DUP2 JUMP JUMPDEST PUSH0 DUP1 PUSH1 0x2 DUP2 GT ISZERO PUSH2 0x2EF3 JUMPI PUSH2 0x2EF2 PUSH2 0x3DED JUMP JUMPDEST JUMPDEST PUSH1 0x4 PUSH0 CALLER PUSH20 0xFFFFFFFFFFFFFFFFFFFFFFFFFFFFFFFFFFFFFFFF AND PUSH20 0xFFFFFFFFFFFFFFFFFFFFFFFFFFFFFFFFFFFFFFFF AND DUP2 MSTORE PUSH1 0x20 ADD SWAP1 DUP2 MSTORE PUSH1 0x20 ADD PUSH0 KECCAK256 PUSH1 0x3 ADD PUSH0 SWAP1 SLOAD SWAP1 PUSH2 0x100 EXP SWAP1 DIV PUSH1 0xFF AND PUSH1 0x2 DUP2 GT ISZERO PUSH2 0x2F52 JUMPI PUSH2 0x2F51 PUSH2 0x3DED JUMP JUMPDEST JUMPDEST EQ PUSH2 0x2F92 JUMPI PUSH1 0x40 MLOAD PUSH32 0x8C379A000000000000000000000000000000000000000000000000000000000 DUP2 MSTORE PUSH1 0x4 ADD PUSH2 0x2F89 SWAP1 PUSH2 0x481B JUMP JUMPDEST PUSH1 0x40 MLOAD DUP1 SWAP2 SUB SWAP1 REVERT JUMPDEST PUSH1 0x1 PUSH1 0x3 DUP2 GT ISZERO PUSH2 0x2FA6 JUMPI PUSH2 0x2FA5 PUSH2 0x3DED JUMP JUMPDEST JUMPDEST PUSH1 0x2 DUP4 DUP2 SLOAD DUP2 LT PUSH2 0x2FBA JUMPI PUSH2 0x2FB9 PUSH2 0x4B02 JUMP JUMPDEST JUMPDEST SWAP1 PUSH0 MSTORE PUSH1 0x20 PUSH0 KECCAK256 SWAP1 PUSH1 0x5 MUL ADD PUSH1 0x1 ADD PUSH1 0x14 SWAP1 SLOAD SWAP1 PUSH2 0x100 EXP SWAP1 DIV PUSH1 0xFF AND PUSH1 0x3 DUP2 GT ISZERO PUSH2 0x2FE9 JUMPI PUSH2 0x2FE8 PUSH2 0x3DED JUMP JUMPDEST JUMPDEST EQ PUSH2 0x2FF2 JUMPI PUSH0 DUP1 REVERT JUMPDEST DUP3 ISZERO PUSH2 0x307C JUMPI PUSH2 0x3077 PUSH1 0x2 DUP4 DUP2 SLOAD DUP2 LT PUSH2 0x300F JUMPI PUSH2 0x300E PUSH2 0x4B02 JUMP JUMPDEST JUMPDEST SWAP1 PUSH0 MSTORE PUSH1 0x20 PUSH0 KECCAK256 SWAP1 PUSH1 0x5 MUL ADD PUSH1 0x1 ADD PUSH0 SWAP1 SLOAD SWAP1 PUSH2 0x100 EXP SWAP1 DIV PUSH20 0xFFFFFFFFFFFFFFFFFFFFFFFFFFFFFFFFFFFFFFFF AND PUSH1 0x2 DUP5 DUP2 SLOAD DUP2 LT PUSH2 0x3052 JUMPI PUSH2 0x3051 PUSH2 0x4B02 JUMP JUMPDEST JUMPDEST SWAP1 PUSH0 MSTORE PUSH1 0x20 PUSH0 KECCAK256 SWAP1 PUSH1 0x5 MUL ADD PUSH1 0x4 ADD SLOAD DUP5 PUSH1 0x40 MLOAD DUP1 PUSH1 0x20 ADD PUSH1 0x40 MSTORE DUP1 PUSH0 DUP2 MSTORE POP PUSH2 0x20E2 JUMP JUMPDEST PUSH2 0x30D6 JUMP JUMPDEST PUSH1 0x2 PUSH1 0x3 DUP2 GT ISZERO PUSH2 0x3090 JUMPI PUSH2 0x308F PUSH2 0x3DED JUMP JUMPDEST JUMPDEST PUSH1 0x2 DUP4 DUP2 SLOAD DUP2 LT PUSH2 0x30A4 JUMPI PUSH2 0x30A3 PUSH2 0x4B02 JUMP JUMPDEST JUMPDEST SWAP1 PUSH0 MSTORE PUSH1 0x20 PUSH0 KECCAK256 SWAP1 PUSH1 0x5 MUL ADD PUSH1 0x1 ADD PUSH1 0x14 SWAP1 SLOAD SWAP1 PUSH2 0x100 EXP SWAP1 DIV PUSH1 0xFF AND PUSH1 0x3 DUP2 GT ISZERO PUSH2 0x30D3 JUMPI PUSH2 0x30D2 PUSH2 0x3DED JUMP JUMPDEST JUMPDEST POP POP JUMPDEST POP POP POP JUMP JUMPDEST PUSH1 0x1 DUP1 PUSH1 0x2 DUP2 GT ISZERO PUSH2 0x30F0 JUMPI PUSH2 0x30EF PUSH2 0x3DED JUMP JUMPDEST JUMPDEST PUSH1 0x4 PUSH0 CALLER PUSH20 0xFFFFFFFFFFFFFFFFFFFFFFFFFFFFFFFFFFFFFFFF AND PUSH20 0xFFFFFFFFFFFFFFFFFFFFFFFFFFFFFFFFFFFFFFFF AND DUP2 MSTORE PUSH1 0x20 ADD SWAP1 DUP2 MSTORE PUSH1 0x20 ADD PUSH0 KECCAK256 PUSH1 0x3 ADD PUSH0 SWAP1 SLOAD SWAP1 PUSH2 0x100 EXP SWAP1 DIV PUSH1 0xFF AND PUSH1 0x2 DUP2 GT ISZERO PUSH2 0x314F JUMPI PUSH2 0x314E PUSH2 0x3DED JUMP JUMPDEST JUMPDEST EQ PUSH2 0x318F JUMPI PUSH1 0x40 MLOAD PUSH32 0x8C379A000000000000000000000000000000000000000000000000000000000 DUP2 MSTORE PUSH1 0x4 ADD PUSH2 0x3186 SWAP1 PUSH2 0x481B JUMP JUMPDEST PUSH1 0x40 MLOAD DUP1 SWAP2 SUB SWAP1 REVERT JUMPDEST CALLER PUSH20 0xFFFFFFFFFFFFFFFFFFFFFFFFFFFFFFFFFFFFFFFF AND PUSH2 0x8FC PUSH1 0x4 PUSH0 CALLER PUSH20 0xFFFFFFFFFFFFFFFFFFFFFFFFFFFFFFFFFFFFFFFF AND PUSH20 0xFFFFFFFFFFFFFFFFFFFFFFFFFFFFFFFFFFFFFFFF AND DUP2 MSTORE PUSH1 0x20 ADD SWAP1 DUP2 MSTORE PUSH1 0x20 ADD PUSH0 KECCAK256 PUSH1 0x4 ADD SLOAD SWAP1 DUP2 ISZERO MUL SWAP1 PUSH1 0x40 MLOAD PUSH0 PUSH1 0x40 MLOAD DUP1 DUP4 SUB DUP2 DUP6 DUP9 DUP9 CALL SWAP4 POP POP POP POP ISZERO DUP1 ISZERO PUSH2 0x3212 JUMPI RETURNDATASIZE PUSH0 DUP1 RETURNDATACOPY RETURNDATASIZE PUSH0 REVERT JUMPDEST POP PUSH0 PUSH1 0x4 PUSH0 CALLER PUSH20 0xFFFFFFFFFFFFFFFFFFFFFFFFFFFFFFFFFFFFFFFF AND PUSH20 0xFFFFFFFFFFFFFFFFFFFFFFFFFFFFFFFFFFFFFFFF AND DUP2 MSTORE PUSH1 0x20 ADD SWAP1 DUP2 MSTORE PUSH1 0x20 ADD PUSH0 KECCAK256 PUSH1 0x4 ADD DUP2 SWAP1 SSTORE POP POP JUMP JUMPDEST PUSH1 0x1 DUP1 PUSH1 0x2 DUP2 GT ISZERO PUSH2 0x3270 JUMPI PUSH2 0x326F PUSH2 0x3DED JUMP JUMPDEST JUMPDEST PUSH1 0x4 PUSH0 CALLER PUSH20 0xFFFFFFFFFFFFFFFFFFFFFFFFFFFFFFFFFFFFFFFF AND PUSH20 0xFFFFFFFFFFFFFFFFFFFFFFFFFFFFFFFFFFFFFFFF AND DUP2 MSTORE PUSH1 0x20 ADD SWAP1 DUP2 MSTORE PUSH1 0x20 ADD PUSH0 KECCAK256 PUSH1 0x3 ADD PUSH0 SWAP1 SLOAD SWAP1 PUSH2 0x100 EXP SWAP1 DIV PUSH1 0xFF AND PUSH1 0x2 DUP2 GT ISZERO PUSH2 0x32CF JUMPI PUSH2 0x32CE PUSH2 0x3DED JUMP JUMPDEST JUMPDEST EQ PUSH2 0x330F JUMPI PUSH1 0x40 MLOAD PUSH32 0x8C379A000000000000000000000000000000000000000000000000000000000 DUP2 MSTORE PUSH1 0x4 ADD PUSH2 0x3306 SWAP1 PUSH2 0x481B JUMP JUMPDEST PUSH1 0x40 MLOAD DUP1 SWAP2 SUB SWAP1 REVERT JUMPDEST PUSH0 DUP4 GT PUSH2 0x3351 JUMPI PUSH1 0x40 MLOAD PUSH32 0x8C379A000000000000000000000000000000000000000000000000000000000 DUP2 MSTORE PUSH1 0x4 ADD PUSH2 0x3348 SWAP1 PUSH2 0x4DCB JUMP JUMPDEST PUSH1 0x40 MLOAD DUP1 SWAP2 SUB SWAP1 REVERT JUMPDEST PUSH1 0x7 PUSH0 DUP4 PUSH20 0xFFFFFFFFFFFFFFFFFFFFFFFFFFFFFFFFFFFFFFFF AND PUSH20 0xFFFFFFFFFFFFFFFFFFFFFFFFFFFFFFFFFFFFFFFF AND DUP2 MSTORE PUSH1 0x20 ADD SWAP1 DUP2 MSTORE PUSH1 0x20 ADD PUSH0 KECCAK256 DUP1 SLOAD SWAP1 POP DUP5 LT PUSH2 0x33D3 JUMPI PUSH1 0x40 MLOAD PUSH32 0x8C379A000000000000000000000000000000000000000000000000000000000 DUP2 MSTORE PUSH1 0x4 ADD PUSH2 0x33CA SWAP1 PUSH2 0x4E33 JUMP JUMPDEST PUSH1 0x40 MLOAD DUP1 SWAP2 SUB SWAP1 REVERT JUMPDEST PUSH0 PUSH1 0x7 PUSH0 DUP5 PUSH20 0xFFFFFFFFFFFFFFFFFFFFFFFFFFFFFFFFFFFFFFFF AND PUSH20 0xFFFFFFFFFFFFFFFFFFFFFFFFFFFFFFFFFFFFFFFF AND DUP2 MSTORE PUSH1 0x20 ADD SWAP1 DUP2 MSTORE PUSH1 0x20 ADD PUSH0 KECCAK256 DUP6 DUP2 SLOAD DUP2 LT PUSH2 0x3423 JUMPI PUSH2 0x3422 PUSH2 0x4B02 JUMP JUMPDEST JUMPDEST SWAP1 PUSH0 MSTORE PUSH1 0x20 PUSH0 KECCAK256 SWAP1 PUSH1 0x6 MUL ADD PUSH1 0x3 ADD SLOAD SWAP1 POP PUSH0 DUP5 DUP3 PUSH2 0x3442 SWAP2 SWAP1 PUSH2 0x4C44 JUMP JUMPDEST SWAP1 POP DUP1 CALLVALUE LT ISZERO PUSH2 0x3487 JUMPI PUSH1 0x40 MLOAD PUSH32 0x8C379A000000000000000000000000000000000000000000000000000000000 DUP2 MSTORE PUSH1 0x4 ADD PUSH2 0x347E SWAP1 PUSH2 0x50B1 JUMP JUMPDEST PUSH1 0x40 MLOAD DUP1 SWAP2 SUB SWAP1 REVERT JUMPDEST PUSH0 PUSH1 0x7 PUSH0 DUP7 PUSH20 0xFFFFFFFFFFFFFFFFFFFFFFFFFFFFFFFFFFFFFFFF AND PUSH20 0xFFFFFFFFFFFFFFFFFFFFFFFFFFFFFFFFFFFFFFFF AND DUP2 MSTORE PUSH1 0x20 ADD SWAP1 DUP2 MSTORE PUSH1 0x20 ADD PUSH0 KECCAK256 DUP8 DUP2 SLOAD DUP2 LT PUSH2 0x34D7 JUMPI PUSH2 0x34D6 PUSH2 0x4B02 JUMP JUMPDEST JUMPDEST SWAP1 PUSH0 MSTORE PUSH1 0x20 PUSH0 KECCAK256 SWAP1 PUSH1 0x6 MUL ADD PUSH1 0x4 ADD DUP1 SLOAD PUSH2 0x34F1 SWAP1 PUSH2 0x4866 JUMP JUMPDEST DUP1 PUSH1 0x1F ADD PUSH1 0x20 DUP1 SWAP2 DIV MUL PUSH1 0x20 ADD PUSH1 0x40 MLOAD SWAP1 DUP2 ADD PUSH1 0x40 MSTORE DUP1 SWAP3 SWAP2 SWAP1 DUP2 DUP2 MSTORE PUSH1 0x20 ADD DUP3 DUP1 SLOAD PUSH2 0x351D SWAP1 PUSH2 0x4866 JUMP JUMPDEST DUP1 ISZERO PUSH2 0x3568 JUMPI DUP1 PUSH1 0x1F LT PUSH2 0x353F JUMPI PUSH2 0x100 DUP1 DUP4 SLOAD DIV MUL DUP4 MSTORE SWAP2 PUSH1 0x20 ADD SWAP2 PUSH2 0x3568 JUMP JUMPDEST DUP3 ADD SWAP2 SWAP1 PUSH0 MSTORE PUSH1 0x20 PUSH0 KECCAK256 SWAP1 JUMPDEST DUP2 SLOAD DUP2 MSTORE SWAP1 PUSH1 0x1 ADD SWAP1 PUSH1 0x20 ADD DUP1 DUP4 GT PUSH2 0x354B JUMPI DUP3 SWAP1 SUB PUSH1 0x1F AND DUP3 ADD SWAP2 JUMPDEST POP POP POP POP POP SWAP1 POP PUSH0 DUP1 JUMPDEST PUSH1 0x6 PUSH0 DUP12 PUSH20 0xFFFFFFFFFFFFFFFFFFFFFFFFFFFFFFFFFFFFFFFF AND PUSH20 0xFFFFFFFFFFFFFFFFFFFFFFFFFFFFFFFFFFFFFFFF AND DUP2 MSTORE PUSH1 0x20 ADD SWAP1 DUP2 MSTORE PUSH1 0x20 ADD PUSH0 KECCAK256 DUP1 SLOAD SWAP1 POP DUP2 LT ISZERO PUSH2 0x36FA JUMPI PUSH1 0x6 PUSH0 DUP12 PUSH20 0xFFFFFFFFFFFFFFFFFFFFFFFFFFFFFFFFFFFFFFFF AND PUSH20 0xFFFFFFFFFFFFFFFFFFFFFFFFFFFFFFFFFFFFFFFF AND DUP2 MSTORE PUSH1 0x20 ADD SWAP1 DUP2 MSTORE PUSH1 0x20 ADD PUSH0 KECCAK256 DUP2 DUP2 SLOAD DUP2 LT PUSH2 0x3609 JUMPI PUSH2 0x3608 PUSH2 0x4B02 JUMP JUMPDEST JUMPDEST SWAP1 PUSH0 MSTORE PUSH1 0x20 PUSH0 KECCAK256 SWAP1 PUSH1 0x6 MUL ADD PUSH1 0x4 ADD PUSH1 0x40 MLOAD PUSH1 0x20 ADD PUSH2 0x3628 SWAP2 SWAP1 PUSH2 0x4BB0 JUMP JUMPDEST PUSH1 0x40 MLOAD PUSH1 0x20 DUP2 DUP4 SUB SUB DUP2 MSTORE SWAP1 PUSH1 0x40 MSTORE DUP1 MLOAD SWAP1 PUSH1 0x20 ADD KECCAK256 DUP4 PUSH1 0x40 MLOAD PUSH1 0x20 ADD PUSH2 0x364F SWAP2 SWAP1 PUSH2 0x4D3B JUMP JUMPDEST PUSH1 0x40 MLOAD PUSH1 0x20 DUP2 DUP4 SUB SUB DUP2 MSTORE SWAP1 PUSH1 0x40 MSTORE DUP1 MLOAD SWAP1 PUSH1 0x20 ADD KECCAK256 SUB PUSH2 0x36E7 JUMPI DUP8 PUSH1 0x6 PUSH0 DUP13 PUSH20 0xFFFFFFFFFFFFFFFFFFFFFFFFFFFFFFFFFFFFFFFF AND PUSH20 0xFFFFFFFFFFFFFFFFFFFFFFFFFFFFFFFFFFFFFFFF AND DUP2 MSTORE PUSH1 0x20 ADD SWAP1 DUP2 MSTORE PUSH1 0x20 ADD PUSH0 KECCAK256 DUP3 DUP2 SLOAD DUP2 LT PUSH2 0x36BA JUMPI PUSH2 0x36B9 PUSH2 0x4B02 JUMP JUMPDEST JUMPDEST SWAP1 PUSH0 MSTORE PUSH1 0x20 PUSH0 KECCAK256 SWAP1 PUSH1 0x6 MUL ADD PUSH1 0x2 ADD PUSH0 DUP3 DUP3 SLOAD PUSH2 0x36D7 SWAP2 SWAP1 PUSH2 0x4C85 JUMP JUMPDEST SWAP3 POP POP DUP2 SWAP1 SSTORE POP PUSH1 0x1 SWAP2 POP PUSH2 0x36FA JUMP JUMPDEST DUP1 DUP1 PUSH2 0x36F2 SWAP1 PUSH2 0x4BFD JUMP JUMPDEST SWAP2 POP POP PUSH2 0x3572 JUMP JUMPDEST POP DUP1 PUSH2 0x388E JUMPI PUSH0 PUSH1 0x40 MLOAD DUP1 PUSH1 0xC0 ADD PUSH1 0x40 MSTORE DUP1 PUSH0 DUP2 MSTORE PUSH1 0x20 ADD DUP9 PUSH20 0xFFFFFFFFFFFFFFFFFFFFFFFFFFFFFFFFFFFFFFFF AND DUP2 MSTORE PUSH1 0x20 ADD DUP10 DUP2 MSTORE PUSH1 0x20 ADD DUP7 DUP2 MSTORE PUSH1 0x20 ADD DUP5 DUP2 MSTORE PUSH1 0x20 ADD PUSH1 0x7 PUSH0 DUP11 PUSH20 0xFFFFFFFFFFFFFFFFFFFFFFFFFFFFFFFFFFFFFFFF AND PUSH20 0xFFFFFFFFFFFFFFFFFFFFFFFFFFFFFFFFFFFFFFFF AND DUP2 MSTORE PUSH1 0x20 ADD SWAP1 DUP2 MSTORE PUSH1 0x20 ADD PUSH0 KECCAK256 DUP12 DUP2 SLOAD DUP2 LT PUSH2 0x378F JUMPI PUSH2 0x378E PUSH2 0x4B02 JUMP JUMPDEST JUMPDEST SWAP1 PUSH0 MSTORE PUSH1 0x20 PUSH0 KECCAK256 SWAP1 PUSH1 0x6 MUL ADD PUSH1 0x5 ADD SLOAD DUP2 MSTORE POP SWAP1 POP PUSH1 0x6 PUSH0 DUP12 PUSH20 0xFFFFFFFFFFFFFFFFFFFFFFFFFFFFFFFFFFFFFFFF AND PUSH20 0xFFFFFFFFFFFFFFFFFFFFFFFFFFFFFFFFFFFFFFFF AND DUP2 MSTORE PUSH1 0x20 ADD SWAP1 DUP2 MSTORE PUSH1 0x20 ADD PUSH0 KECCAK256 DUP2 SWAP1 DUP1 PUSH1 0x1 DUP2 SLOAD ADD DUP1 DUP3 SSTORE DUP1 SWAP2 POP POP PUSH1 0x1 SWAP1 SUB SWAP1 PUSH0 MSTORE PUSH1 0x20 PUSH0 KECCAK256 SWAP1 PUSH1 0x6 MUL ADD PUSH0 SWAP1 SWAP2 SWAP1 SWAP2 SWAP1 SWAP2 POP PUSH0 DUP3 ADD MLOAD DUP2 PUSH0 ADD SSTORE PUSH1 0x20 DUP3 ADD MLOAD DUP2 PUSH1 0x1 ADD PUSH0 PUSH2 0x100 EXP DUP2 SLOAD DUP2 PUSH20 0xFFFFFFFFFFFFFFFFFFFFFFFFFFFFFFFFFFFFFFFF MUL NOT AND SWAP1 DUP4 PUSH20 0xFFFFFFFFFFFFFFFFFFFFFFFFFFFFFFFFFFFFFFFF AND MUL OR SWAP1 SSTORE POP PUSH1 0x40 DUP3 ADD MLOAD DUP2 PUSH1 0x2 ADD SSTORE PUSH1 0x60 DUP3 ADD MLOAD DUP2 PUSH1 0x3 ADD SSTORE PUSH1 0x80 DUP3 ADD MLOAD DUP2 PUSH1 0x4 ADD SWAP1 DUP2 PUSH2 0x387F SWAP2 SWAP1 PUSH2 0x4A33 JUMP JUMPDEST POP PUSH1 0xA0 DUP3 ADD MLOAD DUP2 PUSH1 0x5 ADD SSTORE POP POP POP JUMPDEST DUP7 PUSH1 0x7 PUSH0 DUP9 PUSH20 0xFFFFFFFFFFFFFFFFFFFFFFFFFFFFFFFFFFFFFFFF AND PUSH20 0xFFFFFFFFFFFFFFFFFFFFFFFFFFFFFFFFFFFFFFFF AND DUP2 MSTORE PUSH1 0x20 ADD SWAP1 DUP2 MSTORE PUSH1 0x20 ADD PUSH0 KECCAK256 DUP10 DUP2 SLOAD DUP2 LT PUSH2 0x38DE JUMPI PUSH2 0x38DD PUSH2 0x4B02 JUMP JUMPDEST JUMPDEST SWAP1 PUSH0 MSTORE PUSH1 0x20 PUSH0 KECCAK256 SWAP1 PUSH1 0x6 MUL ADD PUSH1 0x2 ADD PUSH0 DUP3 DUP3 SLOAD PUSH2 0x38FB SWAP2 SWAP1 PUSH2 0x4CB8 JUMP JUMPDEST SWAP3 POP POP DUP2 SWAP1 SSTORE POP DUP3 CALLVALUE GT ISZERO PUSH2 0x395A JUMPI CALLER PUSH20 0xFFFFFFFFFFFFFFFFFFFFFFFFFFFFFFFFFFFFFFFF AND PUSH2 0x8FC DUP5 CALLVALUE PUSH2 0x3930 SWAP2 SWAP1 PUSH2 0x4CB8 JUMP JUMPDEST SWAP1 DUP2 ISZERO MUL SWAP1 PUSH1 0x40 MLOAD PUSH0 PUSH1 0x40 MLOAD DUP1 DUP4 SUB DUP2 DUP6 DUP9 DUP9 CALL SWAP4 POP POP POP POP ISZERO DUP1 ISZERO PUSH2 0x3958 JUMPI RETURNDATASIZE PUSH0 DUP1 RETURNDATACOPY RETURNDATASIZE PUSH0 REVERT JUMPDEST POP JUMPDEST POP POP POP POP POP POP POP POP POP JUMP JUMPDEST POP DUP1 SLOAD PUSH2 0x3971 SWAP1 PUSH2 0x4866 JUMP JUMPDEST PUSH0 DUP3 SSTORE DUP1 PUSH1 0x1F LT PUSH2 0x3982 JUMPI POP PUSH2 0x399F JUMP JUMPDEST PUSH1 0x1F ADD PUSH1 0x20 SWAP1 DIV SWAP1 PUSH0 MSTORE PUSH1 0x20 PUSH0 KECCAK256 SWAP1 DUP2 ADD SWAP1 PUSH2 0x399E SWAP2 SWAP1 PUSH2 0x39E1 JUMP JUMPDEST JUMPDEST POP JUMP JUMPDEST PUSH1 0x40 MLOAD DUP1 PUSH1 0xA0 ADD PUSH1 0x40 MSTORE DUP1 PUSH1 0x60 DUP2 MSTORE PUSH1 0x20 ADD PUSH1 0x60 DUP2 MSTORE PUSH1 0x20 ADD PUSH1 0x60 DUP2 MSTORE PUSH1 0x20 ADD PUSH0 PUSH1 0x2 DUP2 GT ISZERO PUSH2 0x39D5 JUMPI PUSH2 0x39D4 PUSH2 0x3DED JUMP JUMPDEST JUMPDEST DUP2 MSTORE PUSH1 0x20 ADD PUSH0 DUP2 MSTORE POP SWAP1 JUMP JUMPDEST JUMPDEST DUP1 DUP3 GT ISZERO PUSH2 0x39F8 JUMPI PUSH0 DUP2 PUSH0 SWAP1 SSTORE POP PUSH1 0x1 ADD PUSH2 0x39E2 JUMP JUMPDEST POP SWAP1 JUMP JUMPDEST PUSH0 PUSH1 0x40 MLOAD SWAP1 POP SWAP1 JUMP JUMPDEST PUSH0 DUP1 REVERT JUMPDEST PUSH0 DUP1 REVERT JUMPDEST PUSH0 DUP2 SWAP1 POP SWAP2 SWAP1 POP JUMP JUMPDEST PUSH2 0x3A1F DUP2 PUSH2 0x3A0D JUMP JUMPDEST DUP2 EQ PUSH2 0x3A29 JUMPI PUSH0 DUP1 REVERT JUMPDEST POP JUMP JUMPDEST PUSH0 DUP2 CALLDATALOAD SWAP1 POP PUSH2 0x3A3A DUP2 PUSH2 0x3A16 JUMP JUMPDEST SWAP3 SWAP2 POP POP JUMP JUMPDEST PUSH0 DUP1 REVERT JUMPDEST PUSH0 DUP1 REVERT JUMPDEST PUSH0 DUP1 REVERT JUMPDEST PUSH0 DUP1 DUP4 PUSH1 0x1F DUP5 ADD SLT PUSH2 0x3A61 JUMPI PUSH2 0x3A60 PUSH2 0x3A40 JUMP JUMPDEST JUMPDEST DUP3 CALLDATALOAD SWAP1 POP PUSH8 0xFFFFFFFFFFFFFFFF DUP2 GT ISZERO PUSH2 0x3A7E JUMPI PUSH2 0x3A7D PUSH2 0x3A44 JUMP JUMPDEST JUMPDEST PUSH1 0x20 DUP4 ADD SWAP2 POP DUP4 PUSH1 0x1 DUP3 MUL DUP4 ADD GT ISZERO PUSH2 0x3A9A JUMPI PUSH2 0x3A99 PUSH2 0x3A48 JUMP JUMPDEST JUMPDEST SWAP3 POP SWAP3 SWAP1 POP JUMP JUMPDEST PUSH0 DUP1 PUSH0 DUP1 PUSH0 PUSH1 0x80 DUP7 DUP9 SUB SLT ISZERO PUSH2 0x3ABA JUMPI PUSH2 0x3AB9 PUSH2 0x3A05 JUMP JUMPDEST JUMPDEST PUSH0 PUSH2 0x3AC7 DUP9 DUP3 DUP10 ADD PUSH2 0x3A2C JUMP JUMPDEST SWAP6 POP POP PUSH1 0x20 PUSH2 0x3AD8 DUP9 DUP3 DUP10 ADD PUSH2 0x3A2C JUMP JUMPDEST SWAP5 POP POP PUSH1 0x40 DUP7 ADD CALLDATALOAD PUSH8 0xFFFFFFFFFFFFFFFF DUP2 GT ISZERO PUSH2 0x3AF9 JUMPI PUSH2 0x3AF8 PUSH2 0x3A09 JUMP JUMPDEST JUMPDEST PUSH2 0x3B05 DUP9 DUP3 DUP10 ADD PUSH2 0x3A4C JUMP JUMPDEST SWAP4 POP SWAP4 POP POP PUSH1 0x60 PUSH2 0x3B18 DUP9 DUP3 DUP10 ADD PUSH2 0x3A2C JUMP JUMPDEST SWAP2 POP POP SWAP3 SWAP6 POP SWAP3 SWAP6 SWAP1 SWAP4 POP JUMP JUMPDEST PUSH0 PUSH20 0xFFFFFFFFFFFFFFFFFFFFFFFFFFFFFFFFFFFFFFFF DUP3 AND SWAP1 POP SWAP2 SWAP1 POP JUMP JUMPDEST PUSH0 PUSH2 0x3B4E DUP3 PUSH2 0x3B25 JUMP JUMPDEST SWAP1 POP SWAP2 SWAP1 POP JUMP JUMPDEST PUSH2 0x3B5E DUP2 PUSH2 0x3B44 JUMP JUMPDEST DUP2 EQ PUSH2 0x3B68 JUMPI PUSH0 DUP1 REVERT JUMPDEST POP JUMP JUMPDEST PUSH0 DUP2 CALLDATALOAD SWAP1 POP PUSH2 0x3B79 DUP2 PUSH2 0x3B55 JUMP JUMPDEST SWAP3 SWAP2 POP POP JUMP JUMPDEST PUSH0 PUSH1 0x20 DUP3 DUP5 SUB SLT ISZERO PUSH2 0x3B94 JUMPI PUSH2 0x3B93 PUSH2 0x3A05 JUMP JUMPDEST JUMPDEST PUSH0 PUSH2 0x3BA1 DUP5 DUP3 DUP6 ADD PUSH2 0x3B6B JUMP JUMPDEST SWAP2 POP POP SWAP3 SWAP2 POP POP JUMP JUMPDEST PUSH0 DUP2 MLOAD SWAP1 POP SWAP2 SWAP1 POP JUMP JUMPDEST PUSH0 DUP3 DUP3 MSTORE PUSH1 0x20 DUP3 ADD SWAP1 POP SWAP3 SWAP2 POP POP JUMP JUMPDEST PUSH0 DUP2 SWAP1 POP PUSH1 0x20 DUP3 ADD SWAP1 POP SWAP2 SWAP1 POP JUMP JUMPDEST PUSH2 0x3BDC DUP2 PUSH2 0x3A0D JUMP JUMPDEST DUP3 MSTORE POP POP JUMP JUMPDEST PUSH2 0x3BEB DUP2 PUSH2 0x3B44 JUMP JUMPDEST DUP3 MSTORE POP POP JUMP JUMPDEST PUSH0 DUP2 MLOAD SWAP1 POP SWAP2 SWAP1 POP JUMP JUMPDEST PUSH0 DUP3 DUP3 MSTORE PUSH1 0x20 DUP3 ADD SWAP1 POP SWAP3 SWAP2 POP POP JUMP JUMPDEST PUSH0 JUMPDEST DUP4 DUP2 LT ISZERO PUSH2 0x3C28 JUMPI DUP1 DUP3 ADD MLOAD DUP2 DUP5 ADD MSTORE PUSH1 0x20 DUP2 ADD SWAP1 POP PUSH2 0x3C0D JUMP JUMPDEST PUSH0 DUP5 DUP5 ADD MSTORE POP POP POP POP JUMP JUMPDEST PUSH0 PUSH1 0x1F NOT PUSH1 0x1F DUP4 ADD AND SWAP1 POP SWAP2 SWAP1 POP JUMP JUMPDEST PUSH0 PUSH2 0x3C4D DUP3 PUSH2 0x3BF1 JUMP JUMPDEST PUSH2 0x3C57 DUP2 DUP6 PUSH2 0x3BFB JUMP JUMPDEST SWAP4 POP PUSH2 0x3C67 DUP2 DUP6 PUSH1 0x20 DUP7 ADD PUSH2 0x3C0B JUMP JUMPDEST PUSH2 0x3C70 DUP2 PUSH2 0x3C33 JUMP JUMPDEST DUP5 ADD SWAP2 POP POP SWAP3 SWAP2 POP POP JUMP JUMPDEST PUSH0 PUSH1 0xC0 DUP4 ADD PUSH0 DUP4 ADD MLOAD PUSH2 0x3C90 PUSH0 DUP7 ADD DUP3 PUSH2 0x3BD3 JUMP JUMPDEST POP PUSH1 0x20 DUP4 ADD MLOAD PUSH2 0x3CA3 PUSH1 0x20 DUP7 ADD DUP3 PUSH2 0x3BE2 JUMP JUMPDEST POP PUSH1 0x40 DUP4 ADD MLOAD PUSH2 0x3CB6 PUSH1 0x40 DUP7 ADD DUP3 PUSH2 0x3BD3 JUMP JUMPDEST POP PUSH1 0x60 DUP4 ADD MLOAD PUSH2 0x3CC9 PUSH1 0x60 DUP7 ADD DUP3 PUSH2 0x3BD3 JUMP JUMPDEST POP PUSH1 0x80 DUP4 ADD MLOAD DUP5 DUP3 SUB PUSH1 0x80 DUP7 ADD MSTORE PUSH2 0x3CE1 DUP3 DUP3 PUSH2 0x3C43 JUMP JUMPDEST SWAP2 POP POP PUSH1 0xA0 DUP4 ADD MLOAD PUSH2 0x3CF6 PUSH1 0xA0 DUP7 ADD DUP3 PUSH2 0x3BD3 JUMP JUMPDEST POP DUP1 SWAP2 POP POP SWAP3 SWAP2 POP POP JUMP JUMPDEST PUSH0 PUSH2 0x3D0C DUP4 DUP4 PUSH2 0x3C7B JUMP JUMPDEST SWAP1 POP SWAP3 SWAP2 POP POP JUMP JUMPDEST PUSH0 PUSH1 0x20 DUP3 ADD SWAP1 POP SWAP2 SWAP1 POP JUMP JUMPDEST PUSH0 PUSH2 0x3D2A DUP3 PUSH2 0x3BAA JUMP JUMPDEST PUSH2 0x3D34 DUP2 DUP6 PUSH2 0x3BB4 JUMP JUMPDEST SWAP4 POP DUP4 PUSH1 0x20 DUP3 MUL DUP6 ADD PUSH2 0x3D46 DUP6 PUSH2 0x3BC4 JUMP JUMPDEST DUP1 PUSH0 JUMPDEST DUP6 DUP2 LT ISZERO PUSH2 0x3D81 JUMPI DUP5 DUP5 SUB DUP10 MSTORE DUP2 MLOAD PUSH2 0x3D62 DUP6 DUP3 PUSH2 0x3D01 JUMP JUMPDEST SWAP5 POP PUSH2 0x3D6D DUP4 PUSH2 0x3D14 JUMP JUMPDEST SWAP3 POP PUSH1 0x20 DUP11 ADD SWAP10 POP POP PUSH1 0x1 DUP2 ADD SWAP1 POP PUSH2 0x3D49 JUMP JUMPDEST POP DUP3 SWAP8 POP DUP8 SWAP6 POP POP POP POP POP POP SWAP3 SWAP2 POP POP JUMP JUMPDEST PUSH0 PUSH1 0x20 DUP3 ADD SWAP1 POP DUP2 DUP2 SUB PUSH0 DUP4 ADD MSTORE PUSH2 0x3DAB DUP2 DUP5 PUSH2 0x3D20 JUMP JUMPDEST SWAP1 POP SWAP3 SWAP2 POP POP JUMP JUMPDEST PUSH0 PUSH1 0x20 DUP3 DUP5 SUB SLT ISZERO PUSH2 0x3DC8 JUMPI PUSH2 0x3DC7 PUSH2 0x3A05 JUMP JUMPDEST JUMPDEST PUSH0 PUSH2 0x3DD5 DUP5 DUP3 DUP6 ADD PUSH2 0x3A2C JUMP JUMPDEST SWAP2 POP POP SWAP3 SWAP2 POP POP JUMP JUMPDEST PUSH2 0x3DE7 DUP2 PUSH2 0x3B44 JUMP JUMPDEST DUP3 MSTORE POP POP JUMP JUMPDEST PUSH32 0x4E487B7100000000000000000000000000000000000000000000000000000000 PUSH0 MSTORE PUSH1 0x21 PUSH1 0x4 MSTORE PUSH1 0x24 PUSH0 REVERT JUMPDEST PUSH1 0x4 DUP2 LT PUSH2 0x3E2B JUMPI PUSH2 0x3E2A PUSH2 0x3DED JUMP JUMPDEST JUMPDEST POP JUMP JUMPDEST PUSH0 DUP2 SWAP1 POP PUSH2 0x3E3B DUP3 PUSH2 0x3E1A JUMP JUMPDEST SWAP2 SWAP1 POP JUMP JUMPDEST PUSH0 PUSH2 0x3E4A DUP3 PUSH2 0x3E2E JUMP JUMPDEST SWAP1 POP SWAP2 SWAP1 POP JUMP JUMPDEST PUSH2 0x3E5A DUP2 PUSH2 0x3E40 JUMP JUMPDEST DUP3 MSTORE POP POP JUMP JUMPDEST PUSH0 DUP3 DUP3 MSTORE PUSH1 0x20 DUP3 ADD SWAP1 POP SWAP3 SWAP2 POP POP JUMP JUMPDEST PUSH0 PUSH2 0x3E7A DUP3 PUSH2 0x3BF1 JUMP JUMPDEST PUSH2 0x3E84 DUP2 DUP6 PUSH2 0x3E60 JUMP JUMPDEST SWAP4 POP PUSH2 0x3E94 DUP2 DUP6 PUSH1 0x20 DUP7 ADD PUSH2 0x3C0B JUMP JUMPDEST PUSH2 0x3E9D DUP2 PUSH2 0x3C33 JUMP JUMPDEST DUP5 ADD SWAP2 POP POP SWAP3 SWAP2 POP POP JUMP JUMPDEST PUSH2 0x3EB1 DUP2 PUSH2 0x3A0D JUMP JUMPDEST DUP3 MSTORE POP POP JUMP JUMPDEST PUSH0 PUSH1 0xC0 DUP3 ADD SWAP1 POP PUSH2 0x3ECA PUSH0 DUP4 ADD DUP10 PUSH2 0x3DDE JUMP JUMPDEST PUSH2 0x3ED7 PUSH1 0x20 DUP4 ADD DUP9 PUSH2 0x3DDE JUMP JUMPDEST PUSH2 0x3EE4 PUSH1 0x40 DUP4 ADD DUP8 PUSH2 0x3E51 JUMP JUMPDEST DUP2 DUP2 SUB PUSH1 0x60 DUP4 ADD MSTORE PUSH2 0x3EF6 DUP2 DUP7 PUSH2 0x3E70 JUMP JUMPDEST SWAP1 POP PUSH2 0x3F05 PUSH1 0x80 DUP4 ADD DUP6 PUSH2 0x3EA8 JUMP JUMPDEST PUSH2 0x3F12 PUSH1 0xA0 DUP4 ADD DUP5 PUSH2 0x3EA8 JUMP JUMPDEST SWAP8 SWAP7 POP POP POP POP POP POP POP JUMP JUMPDEST PUSH0 DUP1 PUSH1 0x40 DUP4 DUP6 SUB SLT ISZERO PUSH2 0x3F33 JUMPI PUSH2 0x3F32 PUSH2 0x3A05 JUMP JUMPDEST JUMPDEST PUSH0 PUSH2 0x3F40 DUP6 DUP3 DUP7 ADD PUSH2 0x3B6B JUMP JUMPDEST SWAP3 POP POP PUSH1 0x20 PUSH2 0x3F51 DUP6 DUP3 DUP7 ADD PUSH2 0x3A2C JUMP JUMPDEST SWAP2 POP POP SWAP3 POP SWAP3 SWAP1 POP JUMP JUMPDEST PUSH0 PUSH1 0xC0 DUP3 ADD SWAP1 POP PUSH2 0x3F6E PUSH0 DUP4 ADD DUP10 PUSH2 0x3EA8 JUMP JUMPDEST PUSH2 0x3F7B PUSH1 0x20 DUP4 ADD DUP9 PUSH2 0x3DDE JUMP JUMPDEST PUSH2 0x3F88 PUSH1 0x40 DUP4 ADD DUP8 PUSH2 0x3EA8 JUMP JUMPDEST PUSH2 0x3F95 PUSH1 0x60 DUP4 ADD DUP7 PUSH2 0x3EA8 JUMP JUMPDEST DUP2 DUP2 SUB PUSH1 0x80 DUP4 ADD MSTORE PUSH2 0x3FA7 DUP2 DUP6 PUSH2 0x3E70 JUMP JUMPDEST SWAP1 POP PUSH2 0x3FB6 PUSH1 0xA0 DUP4 ADD DUP5 PUSH2 0x3EA8 JUMP JUMPDEST SWAP8 SWAP7 POP POP POP POP POP POP POP JUMP JUMPDEST PUSH1 0x3 DUP2 LT PUSH2 0x3FD2 JUMPI PUSH2 0x3FD1 PUSH2 0x3DED JUMP JUMPDEST JUMPDEST POP JUMP JUMPDEST PUSH0 DUP2 SWAP1 POP PUSH2 0x3FE2 DUP3 PUSH2 0x3FC1 JUMP JUMPDEST SWAP2 SWAP1 POP JUMP JUMPDEST PUSH0 PUSH2 0x3FF1 DUP3 PUSH2 0x3FD5 JUMP JUMPDEST SWAP1 POP SWAP2 SWAP1 POP JUMP JUMPDEST PUSH2 0x4001 DUP2 PUSH2 0x3FE7 JUMP JUMPDEST DUP3 MSTORE POP POP JUMP JUMPDEST PUSH0 PUSH1 0x40 DUP3 ADD SWAP1 POP PUSH2 0x401A PUSH0 DUP4 ADD DUP6 PUSH2 0x3DDE JUMP JUMPDEST PUSH2 0x4027 PUSH1 0x20 DUP4 ADD DUP5 PUSH2 0x3FF8 JUMP JUMPDEST SWAP4 SWAP3 POP POP POP JUMP JUMPDEST PUSH1 0x3 DUP2 LT PUSH2 0x403A JUMPI PUSH0 DUP1 REVERT JUMPDEST POP JUMP JUMPDEST PUSH0 DUP2 CALLDATALOAD SWAP1 POP PUSH2 0x404B DUP2 PUSH2 0x402E JUMP JUMPDEST SWAP3 SWAP2 POP POP JUMP JUMPDEST PUSH0 PUSH1 0x20 DUP3 DUP5 SUB SLT ISZERO PUSH2 0x4066 JUMPI PUSH2 0x4065 PUSH2 0x3A05 JUMP JUMPDEST JUMPDEST PUSH0 PUSH2 0x4073 DUP5 DUP3 DUP6 ADD PUSH2 0x403D JUMP JUMPDEST SWAP2 POP POP SWAP3 SWAP2 POP POP JUMP JUMPDEST PUSH0 DUP1 REVERT JUMPDEST PUSH32 0x4E487B7100000000000000000000000000000000000000000000000000000000 PUSH0 MSTORE PUSH1 0x41 PUSH1 0x4 MSTORE PUSH1 0x24 PUSH0 REVERT JUMPDEST PUSH2 0x40B6 DUP3 PUSH2 0x3C33 JUMP JUMPDEST DUP2 ADD DUP2 DUP2 LT PUSH8 0xFFFFFFFFFFFFFFFF DUP3 GT OR ISZERO PUSH2 0x40D5 JUMPI PUSH2 0x40D4 PUSH2 0x4080 JUMP JUMPDEST JUMPDEST DUP1 PUSH1 0x40 MSTORE POP POP POP JUMP JUMPDEST PUSH0 PUSH2 0x40E7 PUSH2 0x39FC JUMP JUMPDEST SWAP1 POP PUSH2 0x40F3 DUP3 DUP3 PUSH2 0x40AD JUMP JUMPDEST SWAP2 SWAP1 POP JUMP JUMPDEST PUSH0 PUSH8 0xFFFFFFFFFFFFFFFF DUP3 GT ISZERO PUSH2 0x4112 JUMPI PUSH2 0x4111 PUSH2 0x4080 JUMP JUMPDEST JUMPDEST PUSH2 0x411B DUP3 PUSH2 0x3C33 JUMP JUMPDEST SWAP1 POP PUSH1 0x20 DUP2 ADD SWAP1 POP SWAP2 SWAP1 POP JUMP JUMPDEST DUP3 DUP2 DUP4 CALLDATACOPY PUSH0 DUP4 DUP4 ADD MSTORE POP POP POP JUMP JUMPDEST PUSH0 PUSH2 0x4148 PUSH2 0x4143 DUP5 PUSH2 0x40F8 JUMP JUMPDEST PUSH2 0x40DE JUMP JUMPDEST SWAP1 POP DUP3 DUP2 MSTORE PUSH1 0x20 DUP2 ADD DUP5 DUP5 DUP5 ADD GT ISZERO PUSH2 0x4164 JUMPI PUSH2 0x4163 PUSH2 0x407C JUMP JUMPDEST JUMPDEST PUSH2 0x416F DUP5 DUP3 DUP6 PUSH2 0x4128 JUMP JUMPDEST POP SWAP4 SWAP3 POP POP POP JUMP JUMPDEST PUSH0 DUP3 PUSH1 0x1F DUP4 ADD SLT PUSH2 0x418B JUMPI PUSH2 0x418A PUSH2 0x3A40 JUMP JUMPDEST JUMPDEST DUP2 CALLDATALOAD PUSH2 0x419B DUP5 DUP3 PUSH1 0x20 DUP7 ADD PUSH2 0x4136 JUMP JUMPDEST SWAP2 POP POP SWAP3 SWAP2 POP POP JUMP JUMPDEST PUSH0 DUP1 PUSH1 0x40 DUP4 DUP6 SUB SLT ISZERO PUSH2 0x41BA JUMPI PUSH2 0x41B9 PUSH2 0x3A05 JUMP JUMPDEST JUMPDEST PUSH0 DUP4 ADD CALLDATALOAD PUSH8 0xFFFFFFFFFFFFFFFF DUP2 GT ISZERO PUSH2 0x41D7 JUMPI PUSH2 0x41D6 PUSH2 0x3A09 JUMP JUMPDEST JUMPDEST PUSH2 0x41E3 DUP6 DUP3 DUP7 ADD PUSH2 0x4177 JUMP JUMPDEST SWAP3 POP POP PUSH1 0x20 DUP4 ADD CALLDATALOAD PUSH8 0xFFFFFFFFFFFFFFFF DUP2 GT ISZERO PUSH2 0x4204 JUMPI PUSH2 0x4203 PUSH2 0x3A09 JUMP JUMPDEST JUMPDEST PUSH2 0x4210 DUP6 DUP3 DUP7 ADD PUSH2 0x4177 JUMP JUMPDEST SWAP2 POP POP SWAP3 POP SWAP3 SWAP1 POP JUMP JUMPDEST PUSH2 0x4223 DUP2 PUSH2 0x3FE7 JUMP JUMPDEST DUP3 MSTORE POP POP JUMP JUMPDEST PUSH0 PUSH1 0xA0 DUP4 ADD PUSH0 DUP4 ADD MLOAD DUP5 DUP3 SUB PUSH0 DUP7 ADD MSTORE PUSH2 0x4243 DUP3 DUP3 PUSH2 0x3C43 JUMP JUMPDEST SWAP2 POP POP PUSH1 0x20 DUP4 ADD MLOAD DUP5 DUP3 SUB PUSH1 0x20 DUP7 ADD MSTORE PUSH2 0x425D DUP3 DUP3 PUSH2 0x3C43 JUMP JUMPDEST SWAP2 POP POP PUSH1 0x40 DUP4 ADD MLOAD DUP5 DUP3 SUB PUSH1 0x40 DUP7 ADD MSTORE PUSH2 0x4277 DUP3 DUP3 PUSH2 0x3C43 JUMP JUMPDEST SWAP2 POP POP PUSH1 0x60 DUP4 ADD MLOAD PUSH2 0x428C PUSH1 0x60 DUP7 ADD DUP3 PUSH2 0x421A JUMP JUMPDEST POP PUSH1 0x80 DUP4 ADD MLOAD PUSH2 0x429F PUSH1 0x80 DUP7 ADD DUP3 PUSH2 0x3BD3 JUMP JUMPDEST POP DUP1 SWAP2 POP POP SWAP3 SWAP2 POP POP JUMP JUMPDEST PUSH0 PUSH1 0x20 DUP3 ADD SWAP1 POP DUP2 DUP2 SUB PUSH0 DUP4 ADD MSTORE PUSH2 0x42C2 DUP2 DUP5 PUSH2 0x4229 JUMP JUMPDEST SWAP1 POP SWAP3 SWAP2 POP POP JUMP JUMPDEST PUSH0 DUP1 PUSH0 PUSH1 0x60 DUP5 DUP7 SUB SLT ISZERO PUSH2 0x42E1 JUMPI PUSH2 0x42E0 PUSH2 0x3A05 JUMP JUMPDEST JUMPDEST PUSH0 PUSH2 0x42EE DUP7 DUP3 DUP8 ADD PUSH2 0x3B6B JUMP JUMPDEST SWAP4 POP POP PUSH1 0x20 PUSH2 0x42FF DUP7 DUP3 DUP8 ADD PUSH2 0x3A2C JUMP JUMPDEST SWAP3 POP POP PUSH1 0x40 PUSH2 0x4310 DUP7 DUP3 DUP8 ADD PUSH2 0x3A2C JUMP JUMPDEST SWAP2 POP POP SWAP3 POP SWAP3 POP SWAP3 JUMP JUMPDEST PUSH0 DUP2 ISZERO ISZERO SWAP1 POP SWAP2 SWAP1 POP JUMP JUMPDEST PUSH2 0x432E DUP2 PUSH2 0x431A JUMP JUMPDEST DUP3 MSTORE POP POP JUMP JUMPDEST PUSH0 PUSH1 0x20 DUP3 ADD SWAP1 POP PUSH2 0x4347 PUSH0 DUP4 ADD DUP5 PUSH2 0x4325 JUMP JUMPDEST SWAP3 SWAP2 POP POP JUMP JUMPDEST PUSH2 0x4356 DUP2 PUSH2 0x431A JUMP JUMPDEST DUP2 EQ PUSH2 0x4360 JUMPI PUSH0 DUP1 REVERT JUMPDEST POP JUMP JUMPDEST PUSH0 DUP2 CALLDATALOAD SWAP1 POP PUSH2 0x4371 DUP2 PUSH2 0x434D JUMP JUMPDEST SWAP3 SWAP2 POP POP JUMP JUMPDEST PUSH0 DUP1 PUSH1 0x40 DUP4 DUP6 SUB SLT ISZERO PUSH2 0x438D JUMPI PUSH2 0x438C PUSH2 0x3A05 JUMP JUMPDEST JUMPDEST PUSH0 PUSH2 0x439A DUP6 DUP3 DUP7 ADD PUSH2 0x4363 JUMP JUMPDEST SWAP3 POP POP PUSH1 0x20 PUSH2 0x43AB DUP6 DUP3 DUP7 ADD PUSH2 0x3A2C JUMP JUMPDEST SWAP2 POP POP SWAP3 POP SWAP3 SWAP1 POP JUMP JUMPDEST PUSH0 PUSH1 0x20 DUP3 ADD SWAP1 POP PUSH2 0x43C8 PUSH0 DUP4 ADD DUP5 PUSH2 0x3EA8 JUMP JUMPDEST SWAP3 SWAP2 POP POP JUMP JUMPDEST PUSH0 DUP1 PUSH0 DUP1 PUSH0 DUP1 PUSH1 0xA0 DUP8 DUP10 SUB SLT ISZERO PUSH2 0x43E8 JUMPI PUSH2 0x43E7 PUSH2 0x3A05 JUMP JUMPDEST JUMPDEST PUSH0 PUSH2 0x43F5 DUP10 DUP3 DUP11 ADD PUSH2 0x3A2C JUMP JUMPDEST SWAP7 POP POP PUSH1 0x20 PUSH2 0x4406 DUP10 DUP3 DUP11 ADD PUSH2 0x3A2C JUMP JUMPDEST SWAP6 POP POP PUSH1 0x40 DUP8 ADD CALLDATALOAD PUSH8 0xFFFFFFFFFFFFFFFF DUP2 GT ISZERO PUSH2 0x4427 JUMPI PUSH2 0x4426 PUSH2 0x3A09 JUMP JUMPDEST JUMPDEST PUSH2 0x4433 DUP10 DUP3 DUP11 ADD PUSH2 0x3A4C JUMP JUMPDEST SWAP5 POP SWAP5 POP POP PUSH1 0x60 PUSH2 0x4446 DUP10 DUP3 DUP11 ADD PUSH2 0x3A2C JUMP JUMPDEST SWAP3 POP POP PUSH1 0x80 PUSH2 0x4457 DUP10 DUP3 DUP11 ADD PUSH2 0x3B6B JUMP JUMPDEST SWAP2 POP POP SWAP3 SWAP6 POP SWAP3 SWAP6 POP SWAP3 SWAP6 JUMP JUMPDEST PUSH0 PUSH1 0x20 DUP3 ADD SWAP1 POP PUSH2 0x4477 PUSH0 DUP4 ADD DUP5 PUSH2 0x3DDE JUMP JUMPDEST SWAP3 SWAP2 POP POP JUMP JUMPDEST PUSH0 DUP1 PUSH0 DUP1 PUSH1 0x80 DUP6 DUP8 SUB SLT ISZERO PUSH2 0x4495 JUMPI PUSH2 0x4494 PUSH2 0x3A05 JUMP JUMPDEST JUMPDEST PUSH0 PUSH2 0x44A2 DUP8 DUP3 DUP9 ADD PUSH2 0x3B6B JUMP JUMPDEST SWAP5 POP POP PUSH1 0x20 PUSH2 0x44B3 DUP8 DUP3 DUP9 ADD PUSH2 0x3A2C JUMP JUMPDEST SWAP4 POP POP PUSH1 0x40 PUSH2 0x44C4 DUP8 DUP3 DUP9 ADD PUSH2 0x3A2C JUMP JUMPDEST SWAP3 POP POP PUSH1 0x60 DUP6 ADD CALLDATALOAD PUSH8 0xFFFFFFFFFFFFFFFF DUP2 GT ISZERO PUSH2 0x44E5 JUMPI PUSH2 0x44E4 PUSH2 0x3A09 JUMP JUMPDEST JUMPDEST PUSH2 0x44F1 DUP8 DUP3 DUP9 ADD PUSH2 0x4177 JUMP JUMPDEST SWAP2 POP POP SWAP3 SWAP6 SWAP2 SWAP5 POP SWAP3 POP JUMP JUMPDEST PUSH0 DUP1 PUSH1 0x40 DUP4 DUP6 SUB SLT ISZERO PUSH2 0x4513 JUMPI PUSH2 0x4512 PUSH2 0x3A05 JUMP JUMPDEST JUMPDEST PUSH0 DUP4 ADD CALLDATALOAD PUSH8 0xFFFFFFFFFFFFFFFF DUP2 GT ISZERO PUSH2 0x4530 JUMPI PUSH2 0x452F PUSH2 0x3A09 JUMP JUMPDEST JUMPDEST PUSH2 0x453C DUP6 DUP3 DUP7 ADD PUSH2 0x4177 JUMP JUMPDEST SWAP3 POP POP PUSH1 0x20 PUSH2 0x454D DUP6 DUP3 DUP7 ADD PUSH2 0x3B6B JUMP JUMPDEST SWAP2 POP POP SWAP3 POP SWAP3 SWAP1 POP JUMP JUMPDEST PUSH0 PUSH1 0xA0 DUP3 ADD SWAP1 POP DUP2 DUP2 SUB PUSH0 DUP4 ADD MSTORE PUSH2 0x456F DUP2 DUP9 PUSH2 0x3E70 JUMP JUMPDEST SWAP1 POP DUP2 DUP2 SUB PUSH1 0x20 DUP4 ADD MSTORE PUSH2 0x4583 DUP2 DUP8 PUSH2 0x3E70 JUMP JUMPDEST SWAP1 POP DUP2 DUP2 SUB PUSH1 0x40 DUP4 ADD MSTORE PUSH2 0x4597 DUP2 DUP7 PUSH2 0x3E70 JUMP JUMPDEST SWAP1 POP PUSH2 0x45A6 PUSH1 0x60 DUP4 ADD DUP6 PUSH2 0x3FF8 JUMP JUMPDEST PUSH2 0x45B3 PUSH1 0x80 DUP4 ADD DUP5 PUSH2 0x3EA8 JUMP JUMPDEST SWAP7 SWAP6 POP POP POP POP POP POP JUMP JUMPDEST PUSH0 DUP1 PUSH0 DUP1 PUSH1 0x80 DUP6 DUP8 SUB SLT ISZERO PUSH2 0x45D5 JUMPI PUSH2 0x45D4 PUSH2 0x3A05 JUMP JUMPDEST JUMPDEST PUSH0 DUP6 ADD CALLDATALOAD PUSH8 0xFFFFFFFFFFFFFFFF DUP2 GT ISZERO PUSH2 0x45F2 JUMPI PUSH2 0x45F1 PUSH2 0x3A09 JUMP JUMPDEST JUMPDEST PUSH2 0x45FE DUP8 DUP3 DUP9 ADD PUSH2 0x4177 JUMP JUMPDEST SWAP5 POP POP PUSH1 0x20 DUP6 ADD CALLDATALOAD PUSH8 0xFFFFFFFFFFFFFFFF DUP2 GT ISZERO PUSH2 0x461F JUMPI PUSH2 0x461E PUSH2 0x3A09 JUMP JUMPDEST JUMPDEST PUSH2 0x462B DUP8 DUP3 DUP9 ADD PUSH2 0x4177 JUMP JUMPDEST SWAP4 POP POP PUSH1 0x40 DUP6 ADD CALLDATALOAD PUSH8 0xFFFFFFFFFFFFFFFF DUP2 GT ISZERO PUSH2 0x464C JUMPI PUSH2 0x464B PUSH2 0x3A09 JUMP JUMPDEST JUMPDEST PUSH2 0x4658 DUP8 DUP3 DUP9 ADD PUSH2 0x4177 JUMP JUMPDEST SWAP3 POP POP PUSH1 0x60 DUP6 ADD CALLDATALOAD PUSH8 0xFFFFFFFFFFFFFFFF DUP2 GT ISZERO PUSH2 0x4679 JUMPI PUSH2 0x4678 PUSH2 0x3A09 JUMP JUMPDEST JUMPDEST PUSH2 0x4685 DUP8 DUP3 DUP9 ADD PUSH2 0x4177 JUMP JUMPDEST SWAP2 POP POP SWAP3 SWAP6 SWAP2 SWAP5 POP SWAP3 POP JUMP JUMPDEST PUSH0 DUP1 PUSH1 0x40 DUP4 DUP6 SUB SLT ISZERO PUSH2 0x46A7 JUMPI PUSH2 0x46A6 PUSH2 0x3A05 JUMP JUMPDEST JUMPDEST PUSH0 PUSH2 0x46B4 DUP6 DUP3 DUP7 ADD PUSH2 0x3A2C JUMP JUMPDEST SWAP3 POP POP PUSH1 0x20 PUSH2 0x46C5 DUP6 DUP3 DUP7 ADD PUSH2 0x4363 JUMP JUMPDEST SWAP2 POP POP SWAP3 POP SWAP3 SWAP1 POP JUMP JUMPDEST PUSH0 PUSH1 0x20 DUP3 DUP5 SUB SLT ISZERO PUSH2 0x46E4 JUMPI PUSH2 0x46E3 PUSH2 0x3A05 JUMP JUMPDEST JUMPDEST PUSH0 DUP3 ADD CALLDATALOAD PUSH8 0xFFFFFFFFFFFFFFFF DUP2 GT ISZERO PUSH2 0x4701 JUMPI PUSH2 0x4700 PUSH2 0x3A09 JUMP JUMPDEST JUMPDEST PUSH2 0x470D DUP5 DUP3 DUP6 ADD PUSH2 0x4177 JUMP JUMPDEST SWAP2 POP POP SWAP3 SWAP2 POP POP JUMP JUMPDEST PUSH0 DUP2 SWAP1 POP SWAP2 SWAP1 POP JUMP JUMPDEST PUSH2 0x4728 DUP2 PUSH2 0x4716 JUMP JUMPDEST DUP3 MSTORE POP POP JUMP JUMPDEST PUSH0 PUSH1 0x20 DUP3 ADD SWAP1 POP PUSH2 0x4741 PUSH0 DUP4 ADD DUP5 PUSH2 0x471F JUMP JUMPDEST SWAP3 SWAP2 POP POP JUMP JUMPDEST PUSH0 DUP1 PUSH0 DUP1 PUSH1 0x80 DUP6 DUP8 SUB SLT ISZERO PUSH2 0x475F JUMPI PUSH2 0x475E PUSH2 0x3A05 JUMP JUMPDEST JUMPDEST PUSH0 PUSH2 0x476C DUP8 DUP3 DUP9 ADD PUSH2 0x3B6B JUMP JUMPDEST SWAP5 POP POP PUSH1 0x20 PUSH2 0x477D DUP8 DUP3 DUP9 ADD PUSH2 0x3A2C JUMP JUMPDEST SWAP4 POP POP PUSH1 0x40 PUSH2 0x478E DUP8 DUP3 DUP9 ADD PUSH2 0x3A2C JUMP JUMPDEST SWAP3 POP POP PUSH1 0x60 PUSH2 0x479F DUP8 DUP3 DUP9 ADD PUSH2 0x3B6B JUMP JUMPDEST SWAP2 POP POP SWAP3 SWAP6 SWAP2 SWAP5 POP SWAP3 POP JUMP JUMPDEST PUSH32 0x596F757220726F6C6520646F6573206E6F7420616C6C6F772074686973206368 PUSH0 DUP3 ADD MSTORE PUSH32 0x616E676500000000000000000000000000000000000000000000000000000000 PUSH1 0x20 DUP3 ADD MSTORE POP JUMP JUMPDEST PUSH0 PUSH2 0x4805 PUSH1 0x24 DUP4 PUSH2 0x3E60 JUMP JUMPDEST SWAP2 POP PUSH2 0x4810 DUP3 PUSH2 0x47AB JUMP JUMPDEST PUSH1 0x40 DUP3 ADD SWAP1 POP SWAP2 SWAP1 POP JUMP JUMPDEST PUSH0 PUSH1 0x20 DUP3 ADD SWAP1 POP DUP2 DUP2 SUB PUSH0 DUP4 ADD MSTORE PUSH2 0x4832 DUP2 PUSH2 0x47F9 JUMP JUMPDEST SWAP1 POP SWAP2 SWAP1 POP JUMP JUMPDEST PUSH32 0x4E487B7100000000000000000000000000000000000000000000000000000000 PUSH0 MSTORE PUSH1 0x22 PUSH1 0x4 MSTORE PUSH1 0x24 PUSH0 REVERT JUMPDEST PUSH0 PUSH1 0x2 DUP3 DIV SWAP1 POP PUSH1 0x1 DUP3 AND DUP1 PUSH2 0x487D JUMPI PUSH1 0x7F DUP3 AND SWAP2 POP JUMPDEST PUSH1 0x20 DUP3 LT DUP2 SUB PUSH2 0x4890 JUMPI PUSH2 0x488F PUSH2 0x4839 JUMP JUMPDEST JUMPDEST POP SWAP2 SWAP1 POP JUMP JUMPDEST PUSH0 DUP2 SWAP1 POP DUP2 PUSH0 MSTORE PUSH1 0x20 PUSH0 KECCAK256 SWAP1 POP SWAP2 SWAP1 POP JUMP JUMPDEST PUSH0 PUSH1 0x20 PUSH1 0x1F DUP4 ADD DIV SWAP1 POP SWAP2 SWAP1 POP JUMP JUMPDEST PUSH0 DUP3 DUP3 SHL SWAP1 POP SWAP3 SWAP2 POP POP JUMP JUMPDEST PUSH0 PUSH1 0x8 DUP4 MUL PUSH2 0x48F2 PUSH32 0xFFFFFFFFFFFFFFFFFFFFFFFFFFFFFFFFFFFFFFFFFFFFFFFFFFFFFFFFFFFFFFFF DUP3 PUSH2 0x48B7 JUMP JUMPDEST PUSH2 0x48FC DUP7 DUP4 PUSH2 0x48B7 JUMP JUMPDEST SWAP6 POP DUP1 NOT DUP5 AND SWAP4 POP DUP1 DUP7 AND DUP5 OR SWAP3 POP POP POP SWAP4 SWAP3 POP POP POP JUMP JUMPDEST PUSH0 DUP2 SWAP1 POP SWAP2 SWAP1 POP JUMP JUMPDEST PUSH0 PUSH2 0x4937 PUSH2 0x4932 PUSH2 0x492D DUP5 PUSH2 0x3A0D JUMP JUMPDEST PUSH2 0x4914 JUMP JUMPDEST PUSH2 0x3A0D JUMP JUMPDEST SWAP1 POP SWAP2 SWAP1 POP JUMP JUMPDEST PUSH0 DUP2 SWAP1 POP SWAP2 SWAP1 POP JUMP JUMPDEST PUSH2 0x4950 DUP4 PUSH2 0x491D JUMP JUMPDEST PUSH2 0x4964 PUSH2 0x495C DUP3 PUSH2 0x493E JUMP JUMPDEST DUP5 DUP5 SLOAD PUSH2 0x48C3 JUMP JUMPDEST DUP3 SSTORE POP POP POP POP JUMP JUMPDEST PUSH0 SWAP1 JUMP JUMPDEST PUSH2 0x4978 PUSH2 0x496C JUMP JUMPDEST PUSH2 0x4983 DUP2 DUP5 DUP5 PUSH2 0x4947 JUMP JUMPDEST POP POP POP JUMP JUMPDEST JUMPDEST DUP2 DUP2 LT ISZERO PUSH2 0x49A6 JUMPI PUSH2 0x499B PUSH0 DUP3 PUSH2 0x4970 JUMP JUMPDEST PUSH1 0x1 DUP2 ADD SWAP1 POP PUSH2 0x4989 JUMP JUMPDEST POP POP JUMP JUMPDEST PUSH1 0x1F DUP3 GT ISZERO PUSH2 0x49EB JUMPI PUSH2 0x49BC DUP2 PUSH2 0x4896 JUMP JUMPDEST PUSH2 0x49C5 DUP5 PUSH2 0x48A8 JUMP JUMPDEST DUP2 ADD PUSH1 0x20 DUP6 LT ISZERO PUSH2 0x49D4 JUMPI DUP2 SWAP1 POP JUMPDEST PUSH2 0x49E8 PUSH2 0x49E0 DUP6 PUSH2 0x48A8 JUMP JUMPDEST DUP4 ADD DUP3 PUSH2 0x4988 JUMP JUMPDEST POP POP JUMPDEST POP POP POP JUMP JUMPDEST PUSH0 DUP3 DUP3 SHR SWAP1 POP SWAP3 SWAP2 POP POP JUMP JUMPDEST PUSH0 PUSH2 0x4A0B PUSH0 NOT DUP5 PUSH1 0x8 MUL PUSH2 0x49F0 JUMP JUMPDEST NOT DUP1 DUP4 AND SWAP2 POP POP SWAP3 SWAP2 POP POP JUMP JUMPDEST PUSH0 PUSH2 0x4A23 DUP4 DUP4 PUSH2 0x49FC JUMP JUMPDEST SWAP2 POP DUP3 PUSH1 0x2 MUL DUP3 OR SWAP1 POP SWAP3 SWAP2 POP POP JUMP JUMPDEST PUSH2 0x4A3C DUP3 PUSH2 0x3BF1 JUMP JUMPDEST PUSH8 0xFFFFFFFFFFFFFFFF DUP2 GT ISZERO PUSH2 0x4A55 JUMPI PUSH2 0x4A54 PUSH2 0x4080 JUMP JUMPDEST JUMPDEST PUSH2 0x4A5F DUP3 SLOAD PUSH2 0x4866 JUMP JUMPDEST PUSH2 0x4A6A DUP3 DUP3 DUP6 PUSH2 0x49AA JUMP JUMPDEST PUSH0 PUSH1 0x20 SWAP1 POP PUSH1 0x1F DUP4 GT PUSH1 0x1 DUP2 EQ PUSH2 0x4A9B JUMPI PUSH0 DUP5 ISZERO PUSH2 0x4A89 JUMPI DUP3 DUP8 ADD MLOAD SWAP1 POP JUMPDEST PUSH2 0x4A93 DUP6 DUP3 PUSH2 0x4A18 JUMP JUMPDEST DUP7 SSTORE POP PUSH2 0x4AFA JUMP JUMPDEST PUSH1 0x1F NOT DUP5 AND PUSH2 0x4AA9 DUP7 PUSH2 0x4896 JUMP JUMPDEST PUSH0 JUMPDEST DUP3 DUP2 LT ISZERO PUSH2 0x4AD0 JUMPI DUP5 DUP10 ADD MLOAD DUP3 SSTORE PUSH1 0x1 DUP3 ADD SWAP2 POP PUSH1 0x20 DUP6 ADD SWAP5 POP PUSH1 0x20 DUP2 ADD SWAP1 POP PUSH2 0x4AAB JUMP JUMPDEST DUP7 DUP4 LT ISZERO PUSH2 0x4AED JUMPI DUP5 DUP10 ADD MLOAD PUSH2 0x4AE9 PUSH1 0x1F DUP10 AND DUP3 PUSH2 0x49FC JUMP JUMPDEST DUP4 SSTORE POP JUMPDEST PUSH1 0x1 PUSH1 0x2 DUP9 MUL ADD DUP9 SSTORE POP POP POP JUMPDEST POP POP POP POP POP POP JUMP JUMPDEST PUSH32 0x4E487B7100000000000000000000000000000000000000000000000000000000 PUSH0 MSTORE PUSH1 0x32 PUSH1 0x4 MSTORE PUSH1 0x24 PUSH0 REVERT JUMPDEST PUSH0 DUP2 SLOAD PUSH2 0x4B3B DUP2 PUSH2 0x4866 JUMP JUMPDEST PUSH2 0x4B45 DUP2 DUP7 PUSH2 0x3E60 JUMP JUMPDEST SWAP5 POP PUSH1 0x1 DUP3 AND PUSH0 DUP2 EQ PUSH2 0x4B5F JUMPI PUSH1 0x1 DUP2 EQ PUSH2 0x4B75 JUMPI PUSH2 0x4BA7 JUMP JUMPDEST PUSH1 0xFF NOT DUP4 AND DUP7 MSTORE DUP2 ISZERO ISZERO PUSH1 0x20 MUL DUP7 ADD SWAP4 POP PUSH2 0x4BA7 JUMP JUMPDEST PUSH2 0x4B7E DUP6 PUSH2 0x4896 JUMP JUMPDEST PUSH0 JUMPDEST DUP4 DUP2 LT ISZERO PUSH2 0x4B9F JUMPI DUP2 SLOAD DUP2 DUP10 ADD MSTORE PUSH1 0x1 DUP3 ADD SWAP2 POP PUSH1 0x20 DUP2 ADD SWAP1 POP PUSH2 0x4B80 JUMP JUMPDEST DUP1 DUP9 ADD SWAP6 POP POP POP JUMPDEST POP POP POP SWAP3 SWAP2 POP POP JUMP JUMPDEST PUSH0 PUSH1 0x20 DUP3 ADD SWAP1 POP DUP2 DUP2 SUB PUSH0 DUP4 ADD MSTORE PUSH2 0x4BC8 DUP2 DUP5 PUSH2 0x4B2F JUMP JUMPDEST SWAP1 POP SWAP3 SWAP2 POP POP JUMP JUMPDEST PUSH32 0x4E487B7100000000000000000000000000000000000000000000000000000000 PUSH0 MSTORE PUSH1 0x11 PUSH1 0x4 MSTORE PUSH1 0x24 PUSH0 REVERT JUMPDEST PUSH0 PUSH2 0x4C07 DUP3 PUSH2 0x3A0D JUMP JUMPDEST SWAP2 POP PUSH32 0xFFFFFFFFFFFFFFFFFFFFFFFFFFFFFFFFFFFFFFFFFFFFFFFFFFFFFFFFFFFFFFFF DUP3 SUB PUSH2 0x4C39 JUMPI PUSH2 0x4C38 PUSH2 0x4BD0 JUMP JUMPDEST JUMPDEST PUSH1 0x1 DUP3 ADD SWAP1 POP SWAP2 SWAP1 POP JUMP JUMPDEST PUSH0 PUSH2 0x4C4E DUP3 PUSH2 0x3A0D JUMP JUMPDEST SWAP2 POP PUSH2 0x4C59 DUP4 PUSH2 0x3A0D JUMP JUMPDEST SWAP3 POP DUP3 DUP3 MUL PUSH2 0x4C67 DUP2 PUSH2 0x3A0D JUMP JUMPDEST SWAP2 POP DUP3 DUP3 DIV DUP5 EQ DUP4 ISZERO OR PUSH2 0x4C7E JUMPI PUSH2 0x4C7D PUSH2 0x4BD0 JUMP JUMPDEST JUMPDEST POP SWAP3 SWAP2 POP POP JUMP JUMPDEST PUSH0 PUSH2 0x4C8F DUP3 PUSH2 0x3A0D JUMP JUMPDEST SWAP2 POP PUSH2 0x4C9A DUP4 PUSH2 0x3A0D JUMP JUMPDEST SWAP3 POP DUP3 DUP3 ADD SWAP1 POP DUP1 DUP3 GT ISZERO PUSH2 0x4CB2 JUMPI PUSH2 0x4CB1 PUSH2 0x4BD0 JUMP JUMPDEST JUMPDEST SWAP3 SWAP2 POP POP JUMP JUMPDEST PUSH0 PUSH2 0x4CC2 DUP3 PUSH2 0x3A0D JUMP JUMPDEST SWAP2 POP PUSH2 0x4CCD DUP4 PUSH2 0x3A0D JUMP JUMPDEST SWAP3 POP DUP3 DUP3 SUB SWAP1 POP DUP2 DUP2 GT ISZERO PUSH2 0x4CE5 JUMPI PUSH2 0x4CE4 PUSH2 0x4BD0 JUMP JUMPDEST JUMPDEST SWAP3 SWAP2 POP POP JUMP JUMPDEST PUSH0 DUP2 SWAP1 POP SWAP3 SWAP2 POP POP JUMP JUMPDEST PUSH0 PUSH2 0x4CFF DUP3 PUSH2 0x3BF1 JUMP JUMPDEST PUSH2 0x4D09 DUP2 DUP6 PUSH2 0x4CEB JUMP JUMPDEST SWAP4 POP PUSH2 0x4D19 DUP2 DUP6 PUSH1 0x20 DUP7 ADD PUSH2 0x3C0B JUMP JUMPDEST DUP1 DUP5 ADD SWAP2 POP POP SWAP3 SWAP2 POP POP JUMP JUMPDEST PUSH0 PUSH2 0x4D30 DUP3 DUP5 PUSH2 0x4CF5 JUMP JUMPDEST SWAP2 POP DUP2 SWAP1 POP SWAP3 SWAP2 POP POP JUMP JUMPDEST PUSH0 PUSH1 0x20 DUP3 ADD SWAP1 POP DUP2 DUP2 SUB PUSH0 DUP4 ADD MSTORE PUSH2 0x4D53 DUP2 DUP5 PUSH2 0x3E70 JUMP JUMPDEST SWAP1 POP SWAP3 SWAP2 POP POP JUMP JUMPDEST PUSH32 0x507572636861736520616D6F756E74206D757374206265206772656174657220 PUSH0 DUP3 ADD MSTORE PUSH32 0x7468616E20300000000000000000000000000000000000000000000000000000 PUSH1 0x20 DUP3 ADD MSTORE POP JUMP JUMPDEST PUSH0 PUSH2 0x4DB5 PUSH1 0x26 DUP4 PUSH2 0x3E60 JUMP JUMPDEST SWAP2 POP PUSH2 0x4DC0 DUP3 PUSH2 0x4D5B JUMP JUMPDEST PUSH1 0x40 DUP3 ADD SWAP1 POP SWAP2 SWAP1 POP JUMP JUMPDEST PUSH0 PUSH1 0x20 DUP3 ADD SWAP1 POP DUP2 DUP2 SUB PUSH0 DUP4 ADD MSTORE PUSH2 0x4DE2 DUP2 PUSH2 0x4DA9 JUMP JUMPDEST SWAP1 POP SWAP2 SWAP1 POP JUMP JUMPDEST PUSH32 0x496E76616C69642070726F647563742049440000000000000000000000000000 PUSH0 DUP3 ADD MSTORE POP JUMP JUMPDEST PUSH0 PUSH2 0x4E1D PUSH1 0x12 DUP4 PUSH2 0x3E60 JUMP JUMPDEST SWAP2 POP PUSH2 0x4E28 DUP3 PUSH2 0x4DE9 JUMP JUMPDEST PUSH1 0x20 DUP3 ADD SWAP1 POP SWAP2 SWAP1 POP JUMP JUMPDEST PUSH0 PUSH1 0x20 DUP3 ADD SWAP1 POP DUP2 DUP2 SUB PUSH0 DUP4 ADD MSTORE PUSH2 0x4E4A DUP2 PUSH2 0x4E11 JUMP JUMPDEST SWAP1 POP SWAP2 SWAP1 POP JUMP JUMPDEST PUSH32 0x4141000000000000000000000000000000000000000000000000000000000000 DUP2 MSTORE POP JUMP JUMPDEST PUSH32 0x4242000000000000000000000000000000000000000000000000000000000000 DUP2 MSTORE POP JUMP JUMPDEST PUSH0 PUSH2 0x4EA7 DUP3 PUSH2 0x4E51 JUMP JUMPDEST PUSH1 0x2 DUP3 ADD SWAP2 POP PUSH2 0x4EB7 DUP3 DUP5 PUSH2 0x4CF5 JUMP JUMPDEST SWAP2 POP PUSH2 0x4EC2 DUP3 PUSH2 0x4E77 JUMP JUMPDEST PUSH1 0x2 DUP3 ADD SWAP2 POP DUP2 SWAP1 POP SWAP3 SWAP2 POP POP JUMP JUMPDEST PUSH0 DUP2 SWAP1 POP SWAP2 SWAP1 POP JUMP JUMPDEST PUSH2 0x4EEB PUSH2 0x4EE6 DUP3 PUSH2 0x3A0D JUMP JUMPDEST PUSH2 0x4ED1 JUMP JUMPDEST DUP3 MSTORE POP POP JUMP JUMPDEST PUSH0 DUP2 PUSH1 0x60 SHL SWAP1 POP SWAP2 SWAP1 POP JUMP JUMPDEST PUSH0 PUSH2 0x4F07 DUP3 PUSH2 0x4EF1 JUMP JUMPDEST SWAP1 POP SWAP2 SWAP1 POP JUMP JUMPDEST PUSH0 PUSH2 0x4F18 DUP3 PUSH2 0x4EFD JUMP JUMPDEST SWAP1 POP SWAP2 SWAP1 POP JUMP JUMPDEST PUSH2 0x4F30 PUSH2 0x4F2B DUP3 PUSH2 0x3B44 JUMP JUMPDEST PUSH2 0x4F0E JUMP JUMPDEST DUP3 MSTORE POP POP JUMP JUMPDEST PUSH0 PUSH2 0x4F41 DUP3 DUP7 PUSH2 0x4EDA JUMP JUMPDEST PUSH1 0x20 DUP3 ADD SWAP2 POP PUSH2 0x4F51 DUP3 DUP6 PUSH2 0x4F1F JUMP JUMPDEST PUSH1 0x14 DUP3 ADD SWAP2 POP PUSH2 0x4F61 DUP3 DUP5 PUSH2 0x4EDA JUMP JUMPDEST PUSH1 0x20 DUP3 ADD SWAP2 POP DUP2 SWAP1 POP SWAP5 SWAP4 POP POP POP POP JUMP JUMPDEST PUSH32 0x4E487B7100000000000000000000000000000000000000000000000000000000 PUSH0 MSTORE PUSH1 0x12 PUSH1 0x4 MSTORE PUSH1 0x24 PUSH0 REVERT JUMPDEST PUSH0 PUSH2 0x4FA9 DUP3 PUSH2 0x3A0D JUMP JUMPDEST SWAP2 POP PUSH2 0x4FB4 DUP4 PUSH2 0x3A0D JUMP JUMPDEST SWAP3 POP DUP3 PUSH2 0x4FC4 JUMPI PUSH2 0x4FC3 PUSH2 0x4F72 JUMP JUMPDEST JUMPDEST DUP3 DUP3 MOD SWAP1 POP SWAP3 SWAP2 POP POP JUMP JUMPDEST PUSH0 PUSH2 0x4FD9 DUP3 PUSH2 0x3A0D JUMP JUMPDEST SWAP2 POP PUSH2 0x4FE4 DUP4 PUSH2 0x3A0D JUMP JUMPDEST SWAP3 POP DUP3 PUSH2 0x4FF4 JUMPI PUSH2 0x4FF3 PUSH2 0x4F72 JUMP JUMPDEST JUMPDEST DUP3 DUP3 DIV SWAP1 POP SWAP3 SWAP2 POP POP JUMP JUMPDEST PUSH32 0x4E6F7420656E6F7567682073746F636B20617661696C61626C65000000000000 PUSH0 DUP3 ADD MSTORE POP JUMP JUMPDEST PUSH0 PUSH2 0x5033 PUSH1 0x1A DUP4 PUSH2 0x3E60 JUMP JUMPDEST SWAP2 POP PUSH2 0x503E DUP3 PUSH2 0x4FFF JUMP JUMPDEST PUSH1 0x20 DUP3 ADD SWAP1 POP SWAP2 SWAP1 POP JUMP JUMPDEST PUSH0 PUSH1 0x20 DUP3 ADD SWAP1 POP DUP2 DUP2 SUB PUSH0 DUP4 ADD MSTORE PUSH2 0x5060 DUP2 PUSH2 0x5027 JUMP JUMPDEST SWAP1 POP SWAP2 SWAP1 POP JUMP JUMPDEST PUSH32 0x496E73756666696369656E742066756E64732073656E74000000000000000000 PUSH0 DUP3 ADD MSTORE POP JUMP JUMPDEST PUSH0 PUSH2 0x509B PUSH1 0x17 DUP4 PUSH2 0x3E60 JUMP JUMPDEST SWAP2 POP PUSH2 0x50A6 DUP3 PUSH2 0x5067 JUMP JUMPDEST PUSH1 0x20 DUP3 ADD SWAP1 POP SWAP2 SWAP1 POP JUMP JUMPDEST PUSH0 PUSH1 0x20 DUP3 ADD SWAP1 POP DUP2 DUP2 SUB PUSH0 DUP4 ADD MSTORE PUSH2 0x50C8 DUP2 PUSH2 0x508F JUMP JUMPDEST SWAP1 POP SWAP2 SWAP1 POP JUMP INVALID LOG2 PUSH5 0x6970667358 0x22 SLT KECCAK256 KECCAK256 0xD3 0xE3 DUP7 PUSH1 0x58 0xE2 MLOAD 0xD0 PUSH5 0x8B12126011 MUL STOP 0xB7 0x25 GASLIMIT BASEFEE 0xD BALANCE CREATE DELEGATECALL DUP2 COINBASE 0xE5 0xDC 0xE4 0xC4 0x5D PUSH5 0x736F6C6343 STOP ADDMOD ISZERO STOP CALLER "
				},
				"gasEstimates": {
					"creation": {
						"codeDepositCost": "4148200",
						"executionCost": "29030",
						"totalCost": "4177230"
					},
					"external": {
						"acceptDelivery(bool,uint256)": "infinite",
						"addItemsMarket(uint256,uint256,string,uint256)": "infinite",
						"addItemsSupplier(uint256,uint256,string,uint256,address)": "infinite",
						"approveChangeRole(uint256,bool)": "113116",
						"approveDelivery(bool,uint256)": "29560",
						"changeRole(uint8)": "100084",
						"deliveryOrders(uint256)": "infinite",
						"genRef(string,address)": "infinite",
						"getProductCounts()": "2594",
						"getProducts(address)": "infinite",
						"hasRoleChangeRequest(address)": "2922",
						"login(string,string)": "infinite",
						"makeDelivery(address,uint256,uint256)": "infinite",
						"marketProducts(address,uint256)": "infinite",
						"owner()": "2598",
						"passwords(address)": "2846",
						"purchase(address,uint256,uint256,string)": "infinite",
						"randMod(uint256)": "infinite",
						"referrals(string)": "infinite",
						"refillStore(address,uint256,uint256,address)": "infinite",
						"refundRequest(address,uint256)": "infinite",
						"registration(string,string,string,string)": "infinite",
						"supplierProducts(address,uint256)": "infinite",
						"tickets(uint256)": "7424",
						"userProducts(address,uint256)": "infinite",
						"users(address)": "infinite",
						"withdrawBal()": "infinite"
					}
				},
				"methodIdentifiers": {
					"acceptDelivery(bool,uint256)": "da76af31",
					"addItemsMarket(uint256,uint256,string,uint256)": "008de16a",
					"addItemsSupplier(uint256,uint256,string,uint256,address)": "861c2b6d",
					"approveChangeRole(uint256,bool)": "b66959d2",
					"approveDelivery(bool,uint256)": "7eb33a58",
					"changeRole(uint8)": "55dea0b3",
					"deliveryOrders(uint256)": "1cc11721",
					"genRef(string,address)": "a1ba90b6",
					"getProductCounts()": "d35e5d95",
					"getProducts(address)": "1691473c",
					"hasRoleChangeRequest(address)": "7e2cff28",
					"login(string,string)": "58467dbc",
					"makeDelivery(address,uint256,uint256)": "7555bf10",
					"marketProducts(address,uint256)": "4f424547",
					"owner()": "8da5cb5b",
					"passwords(address)": "da0d37e6",
					"purchase(address,uint256,uint256,string)": "9f1cd587",
					"randMod(uint256)": "805553e8",
					"referrals(string)": "d55768dd",
					"refillStore(address,uint256,uint256,address)": "fecd8f79",
					"refundRequest(address,uint256)": "401176e3",
					"registration(string,string,string,string)": "b17d8553",
					"supplierProducts(address,uint256)": "27b90b1b",
					"tickets(uint256)": "50b44712",
					"userProducts(address,uint256)": "3d527883",
					"users(address)": "a87430ba",
					"withdrawBal()": "f6364cc1"
				}
			},
			"storageLayout": {
				"storage": [
					{
						"astId": 59,
						"contract": "contracts/edits.sol:MarketPlace",
						"label": "tickets",
						"offset": 0,
						"slot": "0",
						"type": "t_array(t_struct(Ticket)30_storage)dyn_storage"
					},
					{
						"astId": 61,
						"contract": "contracts/edits.sol:MarketPlace",
						"label": "owner",
						"offset": 0,
						"slot": "1",
						"type": "t_address"
					},
					{
						"astId": 65,
						"contract": "contracts/edits.sol:MarketPlace",
						"label": "deliveryOrders",
						"offset": 0,
						"slot": "2",
						"type": "t_array(t_struct(DeliveryOrder)24_storage)dyn_storage"
					},
					{
						"astId": 69,
						"contract": "contracts/edits.sol:MarketPlace",
						"label": "hasRoleChangeRequest",
						"offset": 0,
						"slot": "3",
						"type": "t_mapping(t_address,t_bool)"
					},
					{
						"astId": 74,
						"contract": "contracts/edits.sol:MarketPlace",
						"label": "users",
						"offset": 0,
						"slot": "4",
						"type": "t_mapping(t_address,t_struct(User)42_storage)"
					},
					{
						"astId": 80,
						"contract": "contracts/edits.sol:MarketPlace",
						"label": "userProducts",
						"offset": 0,
						"slot": "5",
						"type": "t_mapping(t_address,t_array(t_struct(Product)55_storage)dyn_storage)"
					},
					{
						"astId": 86,
						"contract": "contracts/edits.sol:MarketPlace",
						"label": "marketProducts",
						"offset": 0,
						"slot": "6",
						"type": "t_mapping(t_address,t_array(t_struct(Product)55_storage)dyn_storage)"
					},
					{
						"astId": 92,
						"contract": "contracts/edits.sol:MarketPlace",
						"label": "supplierProducts",
						"offset": 0,
						"slot": "7",
						"type": "t_mapping(t_address,t_array(t_struct(Product)55_storage)dyn_storage)"
					},
					{
						"astId": 96,
						"contract": "contracts/edits.sol:MarketPlace",
						"label": "referrals",
						"offset": 0,
						"slot": "8",
						"type": "t_mapping(t_string_memory_ptr,t_address)"
					},
					{
						"astId": 100,
						"contract": "contracts/edits.sol:MarketPlace",
						"label": "passwords",
						"offset": 0,
						"slot": "9",
						"type": "t_mapping(t_address,t_bytes32)"
					}
				],
				"types": {
					"t_address": {
						"encoding": "inplace",
						"label": "address",
						"numberOfBytes": "20"
					},
					"t_array(t_struct(DeliveryOrder)24_storage)dyn_storage": {
						"base": "t_struct(DeliveryOrder)24_storage",
						"encoding": "dynamic_array",
						"label": "struct MarketPlace.DeliveryOrder[]",
						"numberOfBytes": "32"
					},
					"t_array(t_struct(Product)55_storage)dyn_storage": {
						"base": "t_struct(Product)55_storage",
						"encoding": "dynamic_array",
						"label": "struct MarketPlace.Product[]",
						"numberOfBytes": "32"
					},
					"t_array(t_struct(Ticket)30_storage)dyn_storage": {
						"base": "t_struct(Ticket)30_storage",
						"encoding": "dynamic_array",
						"label": "struct MarketPlace.Ticket[]",
						"numberOfBytes": "32"
					},
					"t_bool": {
						"encoding": "inplace",
						"label": "bool",
						"numberOfBytes": "1"
					},
					"t_bytes32": {
						"encoding": "inplace",
						"label": "bytes32",
						"numberOfBytes": "32"
					},
					"t_enum(Role)5": {
						"encoding": "inplace",
						"label": "enum MarketPlace.Role",
						"numberOfBytes": "1"
					},
					"t_enum(Status)10": {
						"encoding": "inplace",
						"label": "enum MarketPlace.Status",
						"numberOfBytes": "1"
					},
					"t_mapping(t_address,t_array(t_struct(Product)55_storage)dyn_storage)": {
						"encoding": "mapping",
						"key": "t_address",
						"label": "mapping(address => struct MarketPlace.Product[])",
						"numberOfBytes": "32",
						"value": "t_array(t_struct(Product)55_storage)dyn_storage"
					},
					"t_mapping(t_address,t_bool)": {
						"encoding": "mapping",
						"key": "t_address",
						"label": "mapping(address => bool)",
						"numberOfBytes": "32",
						"value": "t_bool"
					},
					"t_mapping(t_address,t_bytes32)": {
						"encoding": "mapping",
						"key": "t_address",
						"label": "mapping(address => bytes32)",
						"numberOfBytes": "32",
						"value": "t_bytes32"
					},
					"t_mapping(t_address,t_struct(User)42_storage)": {
						"encoding": "mapping",
						"key": "t_address",
						"label": "mapping(address => struct MarketPlace.User)",
						"numberOfBytes": "32",
						"value": "t_struct(User)42_storage"
					},
					"t_mapping(t_string_memory_ptr,t_address)": {
						"encoding": "mapping",
						"key": "t_string_memory_ptr",
						"label": "mapping(string => address)",
						"numberOfBytes": "32",
						"value": "t_address"
					},
					"t_string_memory_ptr": {
						"encoding": "bytes",
						"label": "string",
						"numberOfBytes": "32"
					},
					"t_string_storage": {
						"encoding": "bytes",
						"label": "string",
						"numberOfBytes": "32"
					},
					"t_struct(DeliveryOrder)24_storage": {
						"encoding": "inplace",
						"label": "struct MarketPlace.DeliveryOrder",
						"members": [
							{
								"astId": 12,
								"contract": "contracts/edits.sol:MarketPlace",
								"label": "userAddr",
								"offset": 0,
								"slot": "0",
								"type": "t_address"
							},
							{
								"astId": 14,
								"contract": "contracts/edits.sol:MarketPlace",
								"label": "shop",
								"offset": 0,
								"slot": "1",
								"type": "t_address"
							},
							{
								"astId": 17,
								"contract": "contracts/edits.sol:MarketPlace",
								"label": "status",
								"offset": 20,
								"slot": "1",
								"type": "t_enum(Status)10"
							},
							{
								"astId": 19,
								"contract": "contracts/edits.sol:MarketPlace",
								"label": "trackNumber",
								"offset": 0,
								"slot": "2",
								"type": "t_string_storage"
							},
							{
								"astId": 21,
								"contract": "contracts/edits.sol:MarketPlace",
								"label": "productId",
								"offset": 0,
								"slot": "3",
								"type": "t_uint256"
							},
							{
								"astId": 23,
								"contract": "contracts/edits.sol:MarketPlace",
								"label": "amount",
								"offset": 0,
								"slot": "4",
								"type": "t_uint256"
							}
						],
						"numberOfBytes": "160"
					},
					"t_struct(Product)55_storage": {
						"encoding": "inplace",
						"label": "struct MarketPlace.Product",
						"members": [
							{
								"astId": 44,
								"contract": "contracts/edits.sol:MarketPlace",
								"label": "id",
								"offset": 0,
								"slot": "0",
								"type": "t_uint256"
							},
							{
								"astId": 46,
								"contract": "contracts/edits.sol:MarketPlace",
								"label": "userAddress",
								"offset": 0,
								"slot": "1",
								"type": "t_address"
							},
							{
								"astId": 48,
								"contract": "contracts/edits.sol:MarketPlace",
								"label": "inStock",
								"offset": 0,
								"slot": "2",
								"type": "t_uint256"
							},
							{
								"astId": 50,
								"contract": "contracts/edits.sol:MarketPlace",
								"label": "price",
								"offset": 0,
								"slot": "3",
								"type": "t_uint256"
							},
							{
								"astId": 52,
								"contract": "contracts/edits.sol:MarketPlace",
								"label": "name",
								"offset": 0,
								"slot": "4",
								"type": "t_string_storage"
							},
							{
								"astId": 54,
								"contract": "contracts/edits.sol:MarketPlace",
								"label": "expDate",
								"offset": 0,
								"slot": "5",
								"type": "t_uint256"
							}
						],
						"numberOfBytes": "192"
					},
					"t_struct(Ticket)30_storage": {
						"encoding": "inplace",
						"label": "struct MarketPlace.Ticket",
						"members": [
							{
								"astId": 26,
								"contract": "contracts/edits.sol:MarketPlace",
								"label": "userAddr",
								"offset": 0,
								"slot": "0",
								"type": "t_address"
							},
							{
								"astId": 29,
								"contract": "contracts/edits.sol:MarketPlace",
								"label": "role",
								"offset": 20,
								"slot": "0",
								"type": "t_enum(Role)5"
							}
						],
						"numberOfBytes": "32"
					},
					"t_struct(User)42_storage": {
						"encoding": "inplace",
						"label": "struct MarketPlace.User",
						"members": [
							{
								"astId": 32,
								"contract": "contracts/edits.sol:MarketPlace",
								"label": "login",
								"offset": 0,
								"slot": "0",
								"type": "t_string_storage"
							},
							{
								"astId": 34,
								"contract": "contracts/edits.sol:MarketPlace",
								"label": "firstName",
								"offset": 0,
								"slot": "1",
								"type": "t_string_storage"
							},
							{
								"astId": 36,
								"contract": "contracts/edits.sol:MarketPlace",
								"label": "lastName",
								"offset": 0,
								"slot": "2",
								"type": "t_string_storage"
							},
							{
								"astId": 39,
								"contract": "contracts/edits.sol:MarketPlace",
								"label": "role",
								"offset": 0,
								"slot": "3",
								"type": "t_enum(Role)5"
							},
							{
								"astId": 41,
								"contract": "contracts/edits.sol:MarketPlace",
								"label": "balance",
								"offset": 0,
								"slot": "4",
								"type": "t_uint256"
							}
						],
						"numberOfBytes": "160"
					},
					"t_uint256": {
						"encoding": "inplace",
						"label": "uint256",
						"numberOfBytes": "32"
					}
				}
			},
			"userdoc": {
				"kind": "user",
				"methods": {},
				"version": 1
			}
		}
	}
}