{
	"contracts/MarketPlace.sol": {
		"MarketPlace": {
			"abi": [
				{
					"inputs": [
						{
							"internalType": "address",
							"name": "_shop",
							"type": "address"
						},
						{
							"internalType": "uint256",
							"name": "_inStock",
							"type": "uint256"
						},
						{
							"internalType": "uint256",
							"name": "_price",
							"type": "uint256"
						},
						{
							"internalType": "string",
							"name": "_name",
							"type": "string"
						},
						{
							"internalType": "uint256",
							"name": "_expDate",
							"type": "uint256"
						}
					],
					"name": "addItems",
					"outputs": [],
					"stateMutability": "nonpayable",
					"type": "function"
				},
				{
					"inputs": [
						{
							"internalType": "uint256",
							"name": "_inStock",
							"type": "uint256"
						},
						{
							"internalType": "uint256",
							"name": "_price",
							"type": "uint256"
						},
						{
							"internalType": "string",
							"name": "_name",
							"type": "string"
						},
						{
							"internalType": "uint256",
							"name": "_expDate",
							"type": "uint256"
						}
					],
					"name": "addItemsSupplier",
					"outputs": [],
					"stateMutability": "nonpayable",
					"type": "function"
				},
				{
					"inputs": [],
					"name": "makeMarket",
					"outputs": [],
					"stateMutability": "nonpayable",
					"type": "function"
				},
				{
					"inputs": [],
					"name": "owner",
					"outputs": [
						{
							"internalType": "address",
							"name": "",
							"type": "address"
						}
					],
					"stateMutability": "view",
					"type": "function"
				},
				{
					"inputs": [
						{
							"internalType": "address",
							"name": "_shop",
							"type": "address"
						},
						{
							"internalType": "uint256",
							"name": "_amount",
							"type": "uint256"
						},
						{
							"internalType": "uint256",
							"name": "_id",
							"type": "uint256"
						}
					],
					"name": "purchase",
					"outputs": [],
					"stateMutability": "payable",
					"type": "function"
				},
				{
					"inputs": [
						{
							"internalType": "uint256",
							"name": "_modulus",
							"type": "uint256"
						}
					],
					"name": "randMod",
					"outputs": [
						{
							"internalType": "uint256",
							"name": "",
							"type": "uint256"
						}
					],
					"stateMutability": "view",
					"type": "function"
				},
				{
					"inputs": [
						{
							"internalType": "address",
							"name": "_shop",
							"type": "address"
						},
						{
							"internalType": "uint256",
							"name": "_productId",
							"type": "uint256"
						},
						{
							"internalType": "uint256",
							"name": "_amount",
							"type": "uint256"
						}
					],
					"name": "refillStore",
					"outputs": [],
					"stateMutability": "payable",
					"type": "function"
				},
				{
					"inputs": [
						{
							"internalType": "address",
							"name": "_shop",
							"type": "address"
						},
						{
							"internalType": "uint256",
							"name": "_productId",
							"type": "uint256"
						}
					],
					"name": "refund",
					"outputs": [],
					"stateMutability": "payable",
					"type": "function"
				},
				{
					"inputs": [],
					"name": "supplier",
					"outputs": [
						{
							"internalType": "address",
							"name": "",
							"type": "address"
						}
					],
					"stateMutability": "view",
					"type": "function"
				},
				{
					"inputs": [
						{
							"internalType": "address",
							"name": "",
							"type": "address"
						},
						{
							"internalType": "uint256",
							"name": "",
							"type": "uint256"
						}
					],
					"name": "userProducts",
					"outputs": [
						{
							"internalType": "uint256",
							"name": "inStock",
							"type": "uint256"
						},
						{
							"internalType": "uint256",
							"name": "price",
							"type": "uint256"
						},
						{
							"internalType": "string",
							"name": "name",
							"type": "string"
						},
						{
							"internalType": "uint256",
							"name": "expDate",
							"type": "uint256"
						}
					],
					"stateMutability": "view",
					"type": "function"
				},
				{
					"inputs": [
						{
							"internalType": "address",
							"name": "",
							"type": "address"
						}
					],
					"name": "users",
					"outputs": [
						{
							"internalType": "enum MarketPlace.Role",
							"name": "role",
							"type": "uint8"
						}
					],
					"stateMutability": "view",
					"type": "function"
				}
			],
			"devdoc": {
				"kind": "dev",
				"methods": {},
				"version": 1
			},
			"evm": {
				"assembly": "    /* \"contracts/MarketPlace.sol\":270:5146  contract MarketPlace {... */\n  mstore(0x40, 0x80)\n  callvalue\n  dup1\n  iszero\n  tag_1\n  jumpi\n  0x00\n  dup1\n  revert\ntag_1:\n  pop\n  dataSize(sub_0)\n  dup1\n  dataOffset(sub_0)\n  0x00\n  codecopy\n  0x00\n  return\nstop\n\nsub_0: assembly {\n        /* \"contracts/MarketPlace.sol\":270:5146  contract MarketPlace {... */\n      mstore(0x40, 0x80)\n      jumpi(tag_1, lt(calldatasize, 0x04))\n      shr(0xe0, calldataload(0x00))\n      dup1\n      0x410085df\n      gt\n      tag_13\n      jumpi\n      dup1\n      0x410085df\n      eq\n      tag_7\n      jumpi\n      dup1\n      0x66d0dc67\n      eq\n      tag_8\n      jumpi\n      dup1\n      0x805553e8\n      eq\n      tag_9\n      jumpi\n      dup1\n      0x8da5cb5b\n      eq\n      tag_10\n      jumpi\n      dup1\n      0x98968f15\n      eq\n      tag_11\n      jumpi\n      dup1\n      0xa87430ba\n      eq\n      tag_12\n      jumpi\n      jump(tag_1)\n    tag_13:\n      dup1\n      0x03194133\n      eq\n      tag_2\n      jumpi\n      dup1\n      0x05103ede\n      eq\n      tag_3\n      jumpi\n      dup1\n      0x33af9f8b\n      eq\n      tag_4\n      jumpi\n      dup1\n      0x36da4468\n      eq\n      tag_5\n      jumpi\n      dup1\n      0x3d527883\n      eq\n      tag_6\n      jumpi\n    tag_1:\n      0x00\n      dup1\n      revert\n        /* \"contracts/MarketPlace.sol\":1538:1799  function addItems(address _shop, uint _inStock, uint _price, string calldata _name, uint _expDate) public AccessControl(Role.Market, _shop) {... */\n    tag_2:\n      callvalue\n      dup1\n      iszero\n      tag_14\n      jumpi\n      0x00\n      dup1\n      revert\n    tag_14:\n      pop\n      tag_15\n      0x04\n      dup1\n      calldatasize\n      sub\n      dup2\n      add\n      swap1\n      tag_16\n      swap2\n      swap1\n      tag_17\n      jump\t// in\n    tag_16:\n      tag_18\n      jump\t// in\n    tag_15:\n      stop\n        /* \"contracts/MarketPlace.sol\":1805:2857  function refillStore(address _shop, uint _productId, uint _amount) public payable AccessControl(Role.Market, _shop){... */\n    tag_3:\n      tag_19\n      0x04\n      dup1\n      calldatasize\n      sub\n      dup2\n      add\n      swap1\n      tag_20\n      swap2\n      swap1\n      tag_21\n      jump\t// in\n    tag_20:\n      tag_22\n      jump\t// in\n    tag_19:\n      stop\n        /* \"contracts/MarketPlace.sol\":1127:1433  function addItemsSupplier(uint _inStock, uint _price, string calldata _name, uint _expDate) public{... */\n    tag_4:\n      callvalue\n      dup1\n      iszero\n      tag_23\n      jumpi\n      0x00\n      dup1\n      revert\n    tag_23:\n      pop\n      tag_24\n      0x04\n      dup1\n      calldatasize\n      sub\n      dup2\n      add\n      swap1\n      tag_25\n      swap2\n      swap1\n      tag_26\n      jump\t// in\n    tag_25:\n      tag_27\n      jump\t// in\n    tag_24:\n      stop\n        /* \"contracts/MarketPlace.sol\":323:346  address public supplier */\n    tag_5:\n      callvalue\n      dup1\n      iszero\n      tag_28\n      jumpi\n      0x00\n      dup1\n      revert\n    tag_28:\n      pop\n      tag_29\n      tag_30\n      jump\t// in\n    tag_29:\n      mload(0x40)\n      tag_31\n      swap2\n      swap1\n      tag_32\n      jump\t// in\n    tag_31:\n      mload(0x40)\n      dup1\n      swap2\n      sub\n      swap1\n      return\n        /* \"contracts/MarketPlace.sol\":594:643  mapping(address => Product[]) public userProducts */\n    tag_6:\n      callvalue\n      dup1\n      iszero\n      tag_33\n      jumpi\n      0x00\n      dup1\n      revert\n    tag_33:\n      pop\n      tag_34\n      0x04\n      dup1\n      calldatasize\n      sub\n      dup2\n      add\n      swap1\n      tag_35\n      swap2\n      swap1\n      tag_36\n      jump\t// in\n    tag_35:\n      tag_37\n      jump\t// in\n    tag_34:\n      mload(0x40)\n      tag_38\n      swap5\n      swap4\n      swap3\n      swap2\n      swap1\n      tag_39\n      jump\t// in\n    tag_38:\n      mload(0x40)\n      dup1\n      swap2\n      sub\n      swap1\n      return\n        /* \"contracts/MarketPlace.sol\":2863:3331  function refund(address _shop, uint _productId) public payable {... */\n    tag_7:\n      tag_40\n      0x04\n      dup1\n      calldatasize\n      sub\n      dup2\n      add\n      swap1\n      tag_41\n      swap2\n      swap1\n      tag_36\n      jump\t// in\n    tag_41:\n      tag_42\n      jump\t// in\n    tag_40:\n      stop\n        /* \"contracts/MarketPlace.sol\":1444:1528  function makeMarket() public  {... */\n    tag_8:\n      callvalue\n      dup1\n      iszero\n      tag_43\n      jumpi\n      0x00\n      dup1\n      revert\n    tag_43:\n      pop\n      tag_44\n      tag_45\n      jump\t// in\n    tag_44:\n      stop\n        /* \"contracts/MarketPlace.sol\":905:1121  function randMod(uint _modulus) public view returns(uint)... */\n    tag_9:\n      callvalue\n      dup1\n      iszero\n      tag_46\n      jumpi\n      0x00\n      dup1\n      revert\n    tag_46:\n      pop\n      tag_47\n      0x04\n      dup1\n      calldatasize\n      sub\n      dup2\n      add\n      swap1\n      tag_48\n      swap2\n      swap1\n      tag_49\n      jump\t// in\n    tag_48:\n      tag_50\n      jump\t// in\n    tag_47:\n      mload(0x40)\n      tag_51\n      swap2\n      swap1\n      tag_52\n      jump\t// in\n    tag_51:\n      mload(0x40)\n      dup1\n      swap2\n      sub\n      swap1\n      return\n        /* \"contracts/MarketPlace.sol\":297:317  address public owner */\n    tag_10:\n      callvalue\n      dup1\n      iszero\n      tag_53\n      jumpi\n      0x00\n      dup1\n      revert\n    tag_53:\n      pop\n      tag_54\n      tag_55\n      jump\t// in\n    tag_54:\n      mload(0x40)\n      tag_56\n      swap2\n      swap1\n      tag_32\n      jump\t// in\n    tag_56:\n      mload(0x40)\n      dup1\n      swap2\n      sub\n      swap1\n      return\n        /* \"contracts/MarketPlace.sol\":3337:5143  function purchase(address _shop, uint _amount, uint _id) public payable {... */\n    tag_11:\n      tag_57\n      0x04\n      dup1\n      calldatasize\n      sub\n      dup2\n      add\n      swap1\n      tag_58\n      swap2\n      swap1\n      tag_21\n      jump\t// in\n    tag_58:\n      tag_59\n      jump\t// in\n    tag_57:\n      stop\n        /* \"contracts/MarketPlace.sol\":551:588  mapping(address => User) public users */\n    tag_12:\n      callvalue\n      dup1\n      iszero\n      tag_60\n      jumpi\n      0x00\n      dup1\n      revert\n    tag_60:\n      pop\n      tag_61\n      0x04\n      dup1\n      calldatasize\n      sub\n      dup2\n      add\n      swap1\n      tag_62\n      swap2\n      swap1\n      tag_63\n      jump\t// in\n    tag_62:\n      tag_64\n      jump\t// in\n    tag_61:\n      mload(0x40)\n      tag_65\n      swap2\n      swap1\n      tag_66\n      jump\t// in\n    tag_65:\n      mload(0x40)\n      dup1\n      swap2\n      sub\n      swap1\n      return\n        /* \"contracts/MarketPlace.sol\":1538:1799  function addItems(address _shop, uint _inStock, uint _price, string calldata _name, uint _expDate) public AccessControl(Role.Market, _shop) {... */\n    tag_18:\n        /* \"contracts/MarketPlace.sol\":1658:1669  Role.Market */\n      0x01\n        /* \"contracts/MarketPlace.sol\":1671:1676  _shop */\n      dup7\n        /* \"contracts/MarketPlace.sol\":748:753  _role */\n      dup2\n        /* \"contracts/MarketPlace.sol\":722:753  users[msg.sender].role == _role */\n      0x02\n      dup2\n      gt\n      iszero\n      tag_68\n      jumpi\n      tag_69\n      tag_70\n      jump\t// in\n    tag_69:\n    tag_68:\n        /* \"contracts/MarketPlace.sol\":722:727  users */\n      0x02\n        /* \"contracts/MarketPlace.sol\":722:739  users[msg.sender] */\n      0x00\n        /* \"contracts/MarketPlace.sol\":728:738  msg.sender */\n      caller\n        /* \"contracts/MarketPlace.sol\":722:739  users[msg.sender] */\n      0xffffffffffffffffffffffffffffffffffffffff\n      and\n      0xffffffffffffffffffffffffffffffffffffffff\n      and\n      dup2\n      mstore\n      0x20\n      add\n      swap1\n      dup2\n      mstore\n      0x20\n      add\n      0x00\n      keccak256\n        /* \"contracts/MarketPlace.sol\":722:744  users[msg.sender].role */\n      0x00\n      add\n      0x00\n      swap1\n      sload\n      swap1\n      0x0100\n      exp\n      swap1\n      div\n      0xff\n      and\n        /* \"contracts/MarketPlace.sol\":722:753  users[msg.sender].role == _role */\n      0x02\n      dup2\n      gt\n      iszero\n      tag_71\n      jumpi\n      tag_72\n      tag_70\n      jump\t// in\n    tag_72:\n    tag_71:\n      eq\n        /* \"contracts/MarketPlace.sol\":714:765  require(users[msg.sender].role == _role, unicode\"\") */\n      tag_73\n      jumpi\n      mload(0x40)\n      0x08c379a000000000000000000000000000000000000000000000000000000000\n      dup2\n      mstore\n      0x04\n      add\n      tag_74\n      swap1\n      tag_75\n      jump\t// in\n    tag_74:\n      mload(0x40)\n      dup1\n      swap2\n      sub\n      swap1\n      revert\n    tag_73:\n        /* \"contracts/MarketPlace.sol\":797:802  _shop */\n      dup1\n        /* \"contracts/MarketPlace.sol\":783:802  msg.sender == _shop */\n      0xffffffffffffffffffffffffffffffffffffffff\n      and\n        /* \"contracts/MarketPlace.sol\":783:793  msg.sender */\n      caller\n        /* \"contracts/MarketPlace.sol\":783:802  msg.sender == _shop */\n      0xffffffffffffffffffffffffffffffffffffffff\n      and\n      eq\n        /* \"contracts/MarketPlace.sol\":775:881  require(msg.sender == _shop, unicode\"Магазин не соответсвует отправителю\") */\n      tag_76\n      jumpi\n      mload(0x40)\n      0x08c379a000000000000000000000000000000000000000000000000000000000\n      dup2\n      mstore\n      0x04\n      add\n      tag_77\n      swap1\n      tag_78\n      jump\t// in\n    tag_77:\n      mload(0x40)\n      dup1\n      swap2\n      sub\n      swap1\n      revert\n    tag_76:\n        /* \"contracts/MarketPlace.sol\":1688:1707  Product memory item */\n      0x00\n        /* \"contracts/MarketPlace.sol\":1710:1752  Product(_inStock, _price, _name, _expDate) */\n      mload(0x40)\n      dup1\n      0x80\n      add\n      0x40\n      mstore\n      dup1\n        /* \"contracts/MarketPlace.sol\":1718:1726  _inStock */\n      dup10\n        /* \"contracts/MarketPlace.sol\":1710:1752  Product(_inStock, _price, _name, _expDate) */\n      dup2\n      mstore\n      0x20\n      add\n        /* \"contracts/MarketPlace.sol\":1728:1734  _price */\n      dup9\n        /* \"contracts/MarketPlace.sol\":1710:1752  Product(_inStock, _price, _name, _expDate) */\n      dup2\n      mstore\n      0x20\n      add\n        /* \"contracts/MarketPlace.sol\":1736:1741  _name */\n      dup8\n      dup8\n        /* \"contracts/MarketPlace.sol\":1710:1752  Product(_inStock, _price, _name, _expDate) */\n      dup1\n      dup1\n      0x1f\n      add\n      0x20\n      dup1\n      swap2\n      div\n      mul\n      0x20\n      add\n      mload(0x40)\n      swap1\n      dup2\n      add\n      0x40\n      mstore\n      dup1\n      swap4\n      swap3\n      swap2\n      swap1\n      dup2\n      dup2\n      mstore\n      0x20\n      add\n      dup4\n      dup4\n      dup1\n      dup3\n      dup5\n      calldatacopy\n      0x00\n      dup2\n      dup5\n      add\n      mstore\n      not(0x1f)\n      0x1f\n      dup3\n      add\n      and\n      swap1\n      pop\n      dup1\n      dup4\n      add\n      swap3\n      pop\n      pop\n      pop\n      pop\n      pop\n      pop\n      pop\n      dup2\n      mstore\n      0x20\n      add\n        /* \"contracts/MarketPlace.sol\":1743:1751  _expDate */\n      dup6\n        /* \"contracts/MarketPlace.sol\":1710:1752  Product(_inStock, _price, _name, _expDate) */\n      dup2\n      mstore\n      pop\n        /* \"contracts/MarketPlace.sol\":1688:1752  Product memory item = Product(_inStock, _price, _name, _expDate) */\n      swap1\n      pop\n        /* \"contracts/MarketPlace.sol\":1762:1774  userProducts */\n      0x03\n        /* \"contracts/MarketPlace.sol\":1762:1781  userProducts[_shop] */\n      0x00\n        /* \"contracts/MarketPlace.sol\":1775:1780  _shop */\n      dup11\n        /* \"contracts/MarketPlace.sol\":1762:1781  userProducts[_shop] */\n      0xffffffffffffffffffffffffffffffffffffffff\n      and\n      0xffffffffffffffffffffffffffffffffffffffff\n      and\n      dup2\n      mstore\n      0x20\n      add\n      swap1\n      dup2\n      mstore\n      0x20\n      add\n      0x00\n      keccak256\n        /* \"contracts/MarketPlace.sol\":1787:1791  item */\n      dup2\n        /* \"contracts/MarketPlace.sol\":1762:1792  userProducts[_shop].push(item) */\n      swap1\n      dup1\n      0x01\n      dup2\n      sload\n      add\n      dup1\n      dup3\n      sstore\n      dup1\n      swap2\n      pop\n      pop\n      0x01\n      swap1\n      sub\n      swap1\n      0x00\n      mstore\n      keccak256(0x00, 0x20)\n      swap1\n      0x04\n      mul\n      add\n      0x00\n      swap1\n      swap2\n      swap1\n      swap2\n      swap1\n      swap2\n      pop\n      0x00\n      dup3\n      add\n      mload\n      dup2\n      0x00\n      add\n      sstore\n      0x20\n      dup3\n      add\n      mload\n      dup2\n      0x01\n      add\n      sstore\n      0x40\n      dup3\n      add\n      mload\n      dup2\n      0x02\n      add\n      swap1\n      dup2\n      tag_81\n      swap2\n      swap1\n      tag_82\n      jump\t// in\n    tag_81:\n      pop\n      0x60\n      dup3\n      add\n      mload\n      dup2\n      0x03\n      add\n      sstore\n      pop\n      pop\n        /* \"contracts/MarketPlace.sol\":1678:1799  {... */\n      pop\n        /* \"contracts/MarketPlace.sol\":1538:1799  function addItems(address _shop, uint _inStock, uint _price, string calldata _name, uint _expDate) public AccessControl(Role.Market, _shop) {... */\n      pop\n      pop\n      pop\n      pop\n      pop\n      pop\n      pop\n      pop\n      jump\t// out\n        /* \"contracts/MarketPlace.sol\":1805:2857  function refillStore(address _shop, uint _productId, uint _amount) public payable AccessControl(Role.Market, _shop){... */\n    tag_22:\n        /* \"contracts/MarketPlace.sol\":1901:1912  Role.Market */\n      0x01\n        /* \"contracts/MarketPlace.sol\":1914:1919  _shop */\n      dup4\n        /* \"contracts/MarketPlace.sol\":748:753  _role */\n      dup2\n        /* \"contracts/MarketPlace.sol\":722:753  users[msg.sender].role == _role */\n      0x02\n      dup2\n      gt\n      iszero\n      tag_84\n      jumpi\n      tag_85\n      tag_70\n      jump\t// in\n    tag_85:\n    tag_84:\n        /* \"contracts/MarketPlace.sol\":722:727  users */\n      0x02\n        /* \"contracts/MarketPlace.sol\":722:739  users[msg.sender] */\n      0x00\n        /* \"contracts/MarketPlace.sol\":728:738  msg.sender */\n      caller\n        /* \"contracts/MarketPlace.sol\":722:739  users[msg.sender] */\n      0xffffffffffffffffffffffffffffffffffffffff\n      and\n      0xffffffffffffffffffffffffffffffffffffffff\n      and\n      dup2\n      mstore\n      0x20\n      add\n      swap1\n      dup2\n      mstore\n      0x20\n      add\n      0x00\n      keccak256\n        /* \"contracts/MarketPlace.sol\":722:744  users[msg.sender].role */\n      0x00\n      add\n      0x00\n      swap1\n      sload\n      swap1\n      0x0100\n      exp\n      swap1\n      div\n      0xff\n      and\n        /* \"contracts/MarketPlace.sol\":722:753  users[msg.sender].role == _role */\n      0x02\n      dup2\n      gt\n      iszero\n      tag_86\n      jumpi\n      tag_87\n      tag_70\n      jump\t// in\n    tag_87:\n    tag_86:\n      eq\n        /* \"contracts/MarketPlace.sol\":714:765  require(users[msg.sender].role == _role, unicode\"\") */\n      tag_88\n      jumpi\n      mload(0x40)\n      0x08c379a000000000000000000000000000000000000000000000000000000000\n      dup2\n      mstore\n      0x04\n      add\n      tag_89\n      swap1\n      tag_75\n      jump\t// in\n    tag_89:\n      mload(0x40)\n      dup1\n      swap2\n      sub\n      swap1\n      revert\n    tag_88:\n        /* \"contracts/MarketPlace.sol\":797:802  _shop */\n      dup1\n        /* \"contracts/MarketPlace.sol\":783:802  msg.sender == _shop */\n      0xffffffffffffffffffffffffffffffffffffffff\n      and\n        /* \"contracts/MarketPlace.sol\":783:793  msg.sender */\n      caller\n        /* \"contracts/MarketPlace.sol\":783:802  msg.sender == _shop */\n      0xffffffffffffffffffffffffffffffffffffffff\n      and\n      eq\n        /* \"contracts/MarketPlace.sol\":775:881  require(msg.sender == _shop, unicode\"Магазин не соответсвует отправителю\") */\n      tag_90\n      jumpi\n      mload(0x40)\n      0x08c379a000000000000000000000000000000000000000000000000000000000\n      dup2\n      mstore\n      0x04\n      add\n      tag_91\n      swap1\n      tag_78\n      jump\t// in\n    tag_91:\n      mload(0x40)\n      dup1\n      swap2\n      sub\n      swap1\n      revert\n    tag_90:\n        /* \"contracts/MarketPlace.sol\":1948:1949  0 */\n      0x00\n        /* \"contracts/MarketPlace.sol\":1938:1945  _amount */\n      dup4\n        /* \"contracts/MarketPlace.sol\":1938:1949  _amount > 0 */\n      gt\n        /* \"contracts/MarketPlace.sol\":1930:1992  require(_amount > 0, \"Purchase amount must be greater than 0\") */\n      tag_93\n      jumpi\n      mload(0x40)\n      0x08c379a000000000000000000000000000000000000000000000000000000000\n      dup2\n      mstore\n      0x04\n      add\n      tag_94\n      swap1\n      tag_95\n      jump\t// in\n    tag_94:\n      mload(0x40)\n      dup1\n      swap2\n      sub\n      swap1\n      revert\n    tag_93:\n        /* \"contracts/MarketPlace.sol\":2023:2035  userProducts */\n      0x03\n        /* \"contracts/MarketPlace.sol\":2023:2042  userProducts[_shop] */\n      0x00\n        /* \"contracts/MarketPlace.sol\":2036:2041  _shop */\n      dup7\n        /* \"contracts/MarketPlace.sol\":2023:2042  userProducts[_shop] */\n      0xffffffffffffffffffffffffffffffffffffffff\n      and\n      0xffffffffffffffffffffffffffffffffffffffff\n      and\n      dup2\n      mstore\n      0x20\n      add\n      swap1\n      dup2\n      mstore\n      0x20\n      add\n      0x00\n      keccak256\n        /* \"contracts/MarketPlace.sol\":2023:2049  userProducts[_shop].length */\n      dup1\n      sload\n      swap1\n      pop\n        /* \"contracts/MarketPlace.sol\":2010:2020  _productId */\n      dup5\n        /* \"contracts/MarketPlace.sol\":2010:2049  _productId < userProducts[_shop].length */\n      lt\n        /* \"contracts/MarketPlace.sol\":2002:2072  require(_productId < userProducts[_shop].length, \"Invalid product ID\") */\n      tag_96\n      jumpi\n      mload(0x40)\n      0x08c379a000000000000000000000000000000000000000000000000000000000\n      dup2\n      mstore\n      0x04\n      add\n      tag_97\n      swap1\n      tag_98\n      jump\t// in\n    tag_97:\n      mload(0x40)\n      dup1\n      swap2\n      sub\n      swap1\n      revert\n    tag_96:\n        /* \"contracts/MarketPlace.sol\":2083:2098  uint totalPrice */\n      0x00\n        /* \"contracts/MarketPlace.sol\":2108:2118  uint price */\n      dup1\n        /* \"contracts/MarketPlace.sol\":2128:2152  string memory targetName */\n      0x00\n        /* \"contracts/MarketPlace.sol\":2155:2167  userProducts */\n      0x03\n        /* \"contracts/MarketPlace.sol\":2155:2174  userProducts[_shop] */\n      0x00\n        /* \"contracts/MarketPlace.sol\":2168:2173  _shop */\n      dup10\n        /* \"contracts/MarketPlace.sol\":2155:2174  userProducts[_shop] */\n      0xffffffffffffffffffffffffffffffffffffffff\n      and\n      0xffffffffffffffffffffffffffffffffffffffff\n      and\n      dup2\n      mstore\n      0x20\n      add\n      swap1\n      dup2\n      mstore\n      0x20\n      add\n      0x00\n      keccak256\n        /* \"contracts/MarketPlace.sol\":2175:2185  _productId */\n      dup8\n        /* \"contracts/MarketPlace.sol\":2155:2186  userProducts[_shop][_productId] */\n      dup2\n      sload\n      dup2\n      lt\n      tag_99\n      jumpi\n      tag_100\n      tag_101\n      jump\t// in\n    tag_100:\n    tag_99:\n      swap1\n      0x00\n      mstore\n      keccak256(0x00, 0x20)\n      swap1\n      0x04\n      mul\n      add\n        /* \"contracts/MarketPlace.sol\":2155:2191  userProducts[_shop][_productId].name */\n      0x02\n      add\n        /* \"contracts/MarketPlace.sol\":2128:2191  string memory targetName = userProducts[_shop][_productId].name */\n      dup1\n      sload\n      tag_103\n      swap1\n      tag_104\n      jump\t// in\n    tag_103:\n      dup1\n      0x1f\n      add\n      0x20\n      dup1\n      swap2\n      div\n      mul\n      0x20\n      add\n      mload(0x40)\n      swap1\n      dup2\n      add\n      0x40\n      mstore\n      dup1\n      swap3\n      swap2\n      swap1\n      dup2\n      dup2\n      mstore\n      0x20\n      add\n      dup3\n      dup1\n      sload\n      tag_105\n      swap1\n      tag_104\n      jump\t// in\n    tag_105:\n      dup1\n      iszero\n      tag_106\n      jumpi\n      dup1\n      0x1f\n      lt\n      tag_107\n      jumpi\n      0x0100\n      dup1\n      dup4\n      sload\n      div\n      mul\n      dup4\n      mstore\n      swap2\n      0x20\n      add\n      swap2\n      jump(tag_106)\n    tag_107:\n      dup3\n      add\n      swap2\n      swap1\n      0x00\n      mstore\n      keccak256(0x00, 0x20)\n      swap1\n    tag_108:\n      dup2\n      sload\n      dup2\n      mstore\n      swap1\n      0x01\n      add\n      swap1\n      0x20\n      add\n      dup1\n      dup4\n      gt\n      tag_108\n      jumpi\n      dup3\n      swap1\n      sub\n      0x1f\n      and\n      dup3\n      add\n      swap2\n    tag_106:\n      pop\n      pop\n      pop\n      pop\n      pop\n      swap1\n      pop\n        /* \"contracts/MarketPlace.sol\":2206:2212  uint i */\n      0x00\n        /* \"contracts/MarketPlace.sol\":2202:2701  for(uint i = 0; i< userProducts[supplier].length; i++){... */\n    tag_109:\n        /* \"contracts/MarketPlace.sol\":2221:2233  userProducts */\n      0x03\n        /* \"contracts/MarketPlace.sol\":2221:2243  userProducts[supplier] */\n      0x00\n        /* \"contracts/MarketPlace.sol\":2234:2242  supplier */\n      0x01\n      0x00\n      swap1\n      sload\n      swap1\n      0x0100\n      exp\n      swap1\n      div\n      0xffffffffffffffffffffffffffffffffffffffff\n      and\n        /* \"contracts/MarketPlace.sol\":2221:2243  userProducts[supplier] */\n      0xffffffffffffffffffffffffffffffffffffffff\n      and\n      0xffffffffffffffffffffffffffffffffffffffff\n      and\n      dup2\n      mstore\n      0x20\n      add\n      swap1\n      dup2\n      mstore\n      0x20\n      add\n      0x00\n      keccak256\n        /* \"contracts/MarketPlace.sol\":2221:2250  userProducts[supplier].length */\n      dup1\n      sload\n      swap1\n      pop\n        /* \"contracts/MarketPlace.sol\":2218:2219  i */\n      dup2\n        /* \"contracts/MarketPlace.sol\":2218:2250  i< userProducts[supplier].length */\n      lt\n        /* \"contracts/MarketPlace.sol\":2202:2701  for(uint i = 0; i< userProducts[supplier].length; i++){... */\n      iszero\n      tag_110\n      jumpi\n        /* \"contracts/MarketPlace.sol\":2322:2334  userProducts */\n      0x03\n        /* \"contracts/MarketPlace.sol\":2322:2344  userProducts[supplier] */\n      0x00\n        /* \"contracts/MarketPlace.sol\":2335:2343  supplier */\n      0x01\n      0x00\n      swap1\n      sload\n      swap1\n      0x0100\n      exp\n      swap1\n      div\n      0xffffffffffffffffffffffffffffffffffffffff\n      and\n        /* \"contracts/MarketPlace.sol\":2322:2344  userProducts[supplier] */\n      0xffffffffffffffffffffffffffffffffffffffff\n      and\n      0xffffffffffffffffffffffffffffffffffffffff\n      and\n      dup2\n      mstore\n      0x20\n      add\n      swap1\n      dup2\n      mstore\n      0x20\n      add\n      0x00\n      keccak256\n        /* \"contracts/MarketPlace.sol\":2345:2346  i */\n      dup2\n        /* \"contracts/MarketPlace.sol\":2322:2347  userProducts[supplier][i] */\n      dup2\n      sload\n      dup2\n      lt\n      tag_112\n      jumpi\n      tag_113\n      tag_101\n      jump\t// in\n    tag_113:\n    tag_112:\n      swap1\n      0x00\n      mstore\n      keccak256(0x00, 0x20)\n      swap1\n      0x04\n      mul\n      add\n        /* \"contracts/MarketPlace.sol\":2322:2352  userProducts[supplier][i].name */\n      0x02\n      add\n        /* \"contracts/MarketPlace.sol\":2306:2354  keccak256(bytes(userProducts[supplier][i].name)) */\n      mload(0x40)\n      tag_115\n      swap2\n      swap1\n      tag_116\n      jump\t// in\n    tag_115:\n      mload(0x40)\n      dup1\n      swap2\n      sub\n      swap1\n      keccak256\n        /* \"contracts/MarketPlace.sol\":2290:2300  targetName */\n      dup3\n        /* \"contracts/MarketPlace.sol\":2274:2302  keccak256(bytes(targetName)) */\n      dup1\n      mload\n      swap1\n      0x20\n      add\n      keccak256\n        /* \"contracts/MarketPlace.sol\":2274:2354  keccak256(bytes(targetName)) == keccak256(bytes(userProducts[supplier][i].name)) */\n      sub\n        /* \"contracts/MarketPlace.sol\":2270:2691  if (keccak256(bytes(targetName)) == keccak256(bytes(userProducts[supplier][i].name))){... */\n      tag_117\n      jumpi\n        /* \"contracts/MarketPlace.sol\":2381:2393  userProducts */\n      0x03\n        /* \"contracts/MarketPlace.sol\":2381:2403  userProducts[supplier] */\n      0x00\n        /* \"contracts/MarketPlace.sol\":2394:2402  supplier */\n      0x01\n      0x00\n      swap1\n      sload\n      swap1\n      0x0100\n      exp\n      swap1\n      div\n      0xffffffffffffffffffffffffffffffffffffffff\n      and\n        /* \"contracts/MarketPlace.sol\":2381:2403  userProducts[supplier] */\n      0xffffffffffffffffffffffffffffffffffffffff\n      and\n      0xffffffffffffffffffffffffffffffffffffffff\n      and\n      dup2\n      mstore\n      0x20\n      add\n      swap1\n      dup2\n      mstore\n      0x20\n      add\n      0x00\n      keccak256\n        /* \"contracts/MarketPlace.sol\":2404:2405  i */\n      dup2\n        /* \"contracts/MarketPlace.sol\":2381:2406  userProducts[supplier][i] */\n      dup2\n      sload\n      dup2\n      lt\n      tag_118\n      jumpi\n      tag_119\n      tag_101\n      jump\t// in\n    tag_119:\n    tag_118:\n      swap1\n      0x00\n      mstore\n      keccak256(0x00, 0x20)\n      swap1\n      0x04\n      mul\n      add\n        /* \"contracts/MarketPlace.sol\":2381:2412  userProducts[supplier][i].price */\n      0x01\n      add\n      sload\n        /* \"contracts/MarketPlace.sol\":2373:2412  price = userProducts[supplier][i].price */\n      swap3\n      pop\n        /* \"contracts/MarketPlace.sol\":2461:2468  1 ether */\n      0x0de0b6b3a7640000\n        /* \"contracts/MarketPlace.sol\":2451:2458  _amount */\n      dup8\n        /* \"contracts/MarketPlace.sol\":2443:2448  price */\n      dup5\n        /* \"contracts/MarketPlace.sol\":2443:2458  price * _amount */\n      tag_121\n      swap2\n      swap1\n      tag_122\n      jump\t// in\n    tag_121:\n        /* \"contracts/MarketPlace.sol\":2443:2468  price * _amount * 1 ether */\n      tag_123\n      swap2\n      swap1\n      tag_122\n      jump\t// in\n    tag_123:\n        /* \"contracts/MarketPlace.sol\":2430:2468  totalPrice = price * _amount * 1 ether */\n      swap4\n      pop\n        /* \"contracts/MarketPlace.sol\":2507:2517  totalPrice */\n      dup4\n        /* \"contracts/MarketPlace.sol\":2494:2503  msg.value */\n      callvalue\n        /* \"contracts/MarketPlace.sol\":2494:2517  msg.value >= totalPrice */\n      lt\n      iszero\n        /* \"contracts/MarketPlace.sol\":2486:2545  require(msg.value >= totalPrice, \"Insufficient funds sent\") */\n      tag_124\n      jumpi\n      mload(0x40)\n      0x08c379a000000000000000000000000000000000000000000000000000000000\n      dup2\n      mstore\n      0x04\n      add\n      tag_125\n      swap1\n      tag_126\n      jump\t// in\n    tag_125:\n      mload(0x40)\n      dup1\n      swap2\n      sub\n      swap1\n      revert\n    tag_124:\n        /* \"contracts/MarketPlace.sol\":2598:2605  _amount */\n      dup7\n        /* \"contracts/MarketPlace.sol\":2563:2575  userProducts */\n      0x03\n        /* \"contracts/MarketPlace.sol\":2563:2585  userProducts[supplier] */\n      0x00\n        /* \"contracts/MarketPlace.sol\":2576:2584  supplier */\n      0x01\n      0x00\n      swap1\n      sload\n      swap1\n      0x0100\n      exp\n      swap1\n      div\n      0xffffffffffffffffffffffffffffffffffffffff\n      and\n        /* \"contracts/MarketPlace.sol\":2563:2585  userProducts[supplier] */\n      0xffffffffffffffffffffffffffffffffffffffff\n      and\n      0xffffffffffffffffffffffffffffffffffffffff\n      and\n      dup2\n      mstore\n      0x20\n      add\n      swap1\n      dup2\n      mstore\n      0x20\n      add\n      0x00\n      keccak256\n        /* \"contracts/MarketPlace.sol\":2586:2587  i */\n      dup3\n        /* \"contracts/MarketPlace.sol\":2563:2588  userProducts[supplier][i] */\n      dup2\n      sload\n      dup2\n      lt\n      tag_127\n      jumpi\n      tag_128\n      tag_101\n      jump\t// in\n    tag_128:\n    tag_127:\n      swap1\n      0x00\n      mstore\n      keccak256(0x00, 0x20)\n      swap1\n      0x04\n      mul\n      add\n        /* \"contracts/MarketPlace.sol\":2563:2596  userProducts[supplier][i].inStock */\n      0x00\n      add\n      0x00\n        /* \"contracts/MarketPlace.sol\":2563:2605  userProducts[supplier][i].inStock-=_amount */\n      dup3\n      dup3\n      sload\n      tag_130\n      swap2\n      swap1\n      tag_131\n      jump\t// in\n    tag_130:\n      swap3\n      pop\n      pop\n      dup2\n      swap1\n      sstore\n      pop\n        /* \"contracts/MarketPlace.sol\":2666:2673  _amount */\n      dup7\n        /* \"contracts/MarketPlace.sol\":2623:2635  userProducts */\n      0x03\n        /* \"contracts/MarketPlace.sol\":2623:2642  userProducts[_shop] */\n      0x00\n        /* \"contracts/MarketPlace.sol\":2636:2641  _shop */\n      dup12\n        /* \"contracts/MarketPlace.sol\":2623:2642  userProducts[_shop] */\n      0xffffffffffffffffffffffffffffffffffffffff\n      and\n      0xffffffffffffffffffffffffffffffffffffffff\n      and\n      dup2\n      mstore\n      0x20\n      add\n      swap1\n      dup2\n      mstore\n      0x20\n      add\n      0x00\n      keccak256\n        /* \"contracts/MarketPlace.sol\":2643:2653  _productId */\n      dup10\n        /* \"contracts/MarketPlace.sol\":2623:2654  userProducts[_shop][_productId] */\n      dup2\n      sload\n      dup2\n      lt\n      tag_132\n      jumpi\n      tag_133\n      tag_101\n      jump\t// in\n    tag_133:\n    tag_132:\n      swap1\n      0x00\n      mstore\n      keccak256(0x00, 0x20)\n      swap1\n      0x04\n      mul\n      add\n        /* \"contracts/MarketPlace.sol\":2623:2662  userProducts[_shop][_productId].inStock */\n      0x00\n      add\n      0x00\n        /* \"contracts/MarketPlace.sol\":2623:2673  userProducts[_shop][_productId].inStock += _amount */\n      dup3\n      dup3\n      sload\n      tag_135\n      swap2\n      swap1\n      tag_136\n      jump\t// in\n    tag_135:\n      swap3\n      pop\n      pop\n      dup2\n      swap1\n      sstore\n      pop\n        /* \"contracts/MarketPlace.sol\":2270:2691  if (keccak256(bytes(targetName)) == keccak256(bytes(userProducts[supplier][i].name))){... */\n    tag_117:\n        /* \"contracts/MarketPlace.sol\":2252:2255  i++ */\n      dup1\n      dup1\n      tag_137\n      swap1\n      tag_138\n      jump\t// in\n    tag_137:\n      swap2\n      pop\n      pop\n        /* \"contracts/MarketPlace.sol\":2202:2701  for(uint i = 0; i< userProducts[supplier].length; i++){... */\n      jump(tag_109)\n    tag_110:\n      pop\n        /* \"contracts/MarketPlace.sol\":2727:2737  totalPrice */\n      dup3\n        /* \"contracts/MarketPlace.sol\":2715:2724  msg.value */\n      callvalue\n        /* \"contracts/MarketPlace.sol\":2715:2737  msg.value > totalPrice */\n      gt\n        /* \"contracts/MarketPlace.sol\":2711:2850  if (msg.value > totalPrice) {... */\n      iszero\n      tag_139\n      jumpi\n        /* \"contracts/MarketPlace.sol\":2753:2764  uint change */\n      0x00\n        /* \"contracts/MarketPlace.sol\":2779:2789  totalPrice */\n      dup4\n        /* \"contracts/MarketPlace.sol\":2767:2776  msg.value */\n      callvalue\n        /* \"contracts/MarketPlace.sol\":2767:2789  msg.value - totalPrice */\n      tag_140\n      swap2\n      swap1\n      tag_131\n      jump\t// in\n    tag_140:\n        /* \"contracts/MarketPlace.sol\":2753:2789  uint change = msg.value - totalPrice */\n      swap1\n      pop\n        /* \"contracts/MarketPlace.sol\":2811:2821  msg.sender */\n      caller\n        /* \"contracts/MarketPlace.sol\":2803:2831  payable(msg.sender).transfer */\n      0xffffffffffffffffffffffffffffffffffffffff\n      and\n        /* \"contracts/MarketPlace.sol\":2803:2839  payable(msg.sender).transfer(change) */\n      0x08fc\n        /* \"contracts/MarketPlace.sol\":2832:2838  change */\n      dup3\n        /* \"contracts/MarketPlace.sol\":2803:2839  payable(msg.sender).transfer(change) */\n      swap1\n      dup2\n      iszero\n      mul\n      swap1\n      mload(0x40)\n      0x00\n      mload(0x40)\n      dup1\n      dup4\n      sub\n      dup2\n      dup6\n      dup9\n      dup9\n      call\n      swap4\n      pop\n      pop\n      pop\n      pop\n      iszero\n      dup1\n      iszero\n      tag_142\n      jumpi\n      returndatasize\n      0x00\n      dup1\n      returndatacopy\n      revert(0x00, returndatasize)\n    tag_142:\n      pop\n        /* \"contracts/MarketPlace.sol\":2739:2850  {... */\n      pop\n        /* \"contracts/MarketPlace.sol\":2711:2850  if (msg.value > totalPrice) {... */\n    tag_139:\n        /* \"contracts/MarketPlace.sol\":1920:2857  {... */\n      pop\n      pop\n      pop\n        /* \"contracts/MarketPlace.sol\":1805:2857  function refillStore(address _shop, uint _productId, uint _amount) public payable AccessControl(Role.Market, _shop){... */\n      pop\n      pop\n      pop\n      pop\n      pop\n      jump\t// out\n        /* \"contracts/MarketPlace.sol\":1127:1433  function addItemsSupplier(uint _inStock, uint _price, string calldata _name, uint _expDate) public{... */\n    tag_27:\n        /* \"contracts/MarketPlace.sol\":1246:1256  msg.sender */\n      caller\n        /* \"contracts/MarketPlace.sol\":1235:1243  supplier */\n      0x01\n      0x00\n        /* \"contracts/MarketPlace.sol\":1235:1256  supplier = msg.sender */\n      0x0100\n      exp\n      dup2\n      sload\n      dup2\n      0xffffffffffffffffffffffffffffffffffffffff\n      mul\n      not\n      and\n      swap1\n      dup4\n      0xffffffffffffffffffffffffffffffffffffffff\n      and\n      mul\n      or\n      swap1\n      sstore\n      pop\n        /* \"contracts/MarketPlace.sol\":1284:1303  User(Role.Supplier) */\n      mload(0x40)\n      dup1\n      0x20\n      add\n      0x40\n      mstore\n      dup1\n        /* \"contracts/MarketPlace.sol\":1289:1302  Role.Supplier */\n      0x02\n        /* \"contracts/MarketPlace.sol\":1284:1303  User(Role.Supplier) */\n      dup1\n      dup2\n      gt\n      iszero\n      tag_144\n      jumpi\n      tag_145\n      tag_70\n      jump\t// in\n    tag_145:\n    tag_144:\n      dup2\n      mstore\n      pop\n        /* \"contracts/MarketPlace.sol\":1266:1271  users */\n      0x02\n        /* \"contracts/MarketPlace.sol\":1266:1281  users[supplier] */\n      0x00\n        /* \"contracts/MarketPlace.sol\":1272:1280  supplier */\n      0x01\n      0x00\n      swap1\n      sload\n      swap1\n      0x0100\n      exp\n      swap1\n      div\n      0xffffffffffffffffffffffffffffffffffffffff\n      and\n        /* \"contracts/MarketPlace.sol\":1266:1281  users[supplier] */\n      0xffffffffffffffffffffffffffffffffffffffff\n      and\n      0xffffffffffffffffffffffffffffffffffffffff\n      and\n      dup2\n      mstore\n      0x20\n      add\n      swap1\n      dup2\n      mstore\n      0x20\n      add\n      0x00\n      keccak256\n        /* \"contracts/MarketPlace.sol\":1266:1303  users[supplier] = User(Role.Supplier) */\n      0x00\n      dup3\n      add\n      mload\n      dup2\n      0x00\n      add\n      exp(0x0100, 0x00)\n      dup2\n      sload\n      dup2\n      0xff\n      mul\n      not\n      and\n      swap1\n      dup4\n      0x02\n      dup2\n      gt\n      iszero\n      tag_146\n      jumpi\n      tag_147\n      tag_70\n      jump\t// in\n    tag_147:\n    tag_146:\n      mul\n      or\n      swap1\n      sstore\n      pop\n      swap1\n      pop\n      pop\n        /* \"contracts/MarketPlace.sol\":1313:1332  Product memory item */\n      0x00\n        /* \"contracts/MarketPlace.sol\":1335:1381  Product(_inStock, _price / 2, _name, _expDate) */\n      mload(0x40)\n      dup1\n      0x80\n      add\n      0x40\n      mstore\n      dup1\n        /* \"contracts/MarketPlace.sol\":1343:1351  _inStock */\n      dup8\n        /* \"contracts/MarketPlace.sol\":1335:1381  Product(_inStock, _price / 2, _name, _expDate) */\n      dup2\n      mstore\n      0x20\n      add\n        /* \"contracts/MarketPlace.sol\":1362:1363  2 */\n      0x02\n        /* \"contracts/MarketPlace.sol\":1353:1359  _price */\n      dup8\n        /* \"contracts/MarketPlace.sol\":1353:1363  _price / 2 */\n      tag_148\n      swap2\n      swap1\n      tag_149\n      jump\t// in\n    tag_148:\n        /* \"contracts/MarketPlace.sol\":1335:1381  Product(_inStock, _price / 2, _name, _expDate) */\n      dup2\n      mstore\n      0x20\n      add\n        /* \"contracts/MarketPlace.sol\":1365:1370  _name */\n      dup6\n      dup6\n        /* \"contracts/MarketPlace.sol\":1335:1381  Product(_inStock, _price / 2, _name, _expDate) */\n      dup1\n      dup1\n      0x1f\n      add\n      0x20\n      dup1\n      swap2\n      div\n      mul\n      0x20\n      add\n      mload(0x40)\n      swap1\n      dup2\n      add\n      0x40\n      mstore\n      dup1\n      swap4\n      swap3\n      swap2\n      swap1\n      dup2\n      dup2\n      mstore\n      0x20\n      add\n      dup4\n      dup4\n      dup1\n      dup3\n      dup5\n      calldatacopy\n      0x00\n      dup2\n      dup5\n      add\n      mstore\n      not(0x1f)\n      0x1f\n      dup3\n      add\n      and\n      swap1\n      pop\n      dup1\n      dup4\n      add\n      swap3\n      pop\n      pop\n      pop\n      pop\n      pop\n      pop\n      pop\n      dup2\n      mstore\n      0x20\n      add\n        /* \"contracts/MarketPlace.sol\":1372:1380  _expDate */\n      dup4\n        /* \"contracts/MarketPlace.sol\":1335:1381  Product(_inStock, _price / 2, _name, _expDate) */\n      dup2\n      mstore\n      pop\n        /* \"contracts/MarketPlace.sol\":1313:1381  Product memory item = Product(_inStock, _price / 2, _name, _expDate) */\n      swap1\n      pop\n        /* \"contracts/MarketPlace.sol\":1391:1403  userProducts */\n      0x03\n        /* \"contracts/MarketPlace.sol\":1391:1415  userProducts[msg.sender] */\n      0x00\n        /* \"contracts/MarketPlace.sol\":1404:1414  msg.sender */\n      caller\n        /* \"contracts/MarketPlace.sol\":1391:1415  userProducts[msg.sender] */\n      0xffffffffffffffffffffffffffffffffffffffff\n      and\n      0xffffffffffffffffffffffffffffffffffffffff\n      and\n      dup2\n      mstore\n      0x20\n      add\n      swap1\n      dup2\n      mstore\n      0x20\n      add\n      0x00\n      keccak256\n        /* \"contracts/MarketPlace.sol\":1421:1425  item */\n      dup2\n        /* \"contracts/MarketPlace.sol\":1391:1426  userProducts[msg.sender].push(item) */\n      swap1\n      dup1\n      0x01\n      dup2\n      sload\n      add\n      dup1\n      dup3\n      sstore\n      dup1\n      swap2\n      pop\n      pop\n      0x01\n      swap1\n      sub\n      swap1\n      0x00\n      mstore\n      keccak256(0x00, 0x20)\n      swap1\n      0x04\n      mul\n      add\n      0x00\n      swap1\n      swap2\n      swap1\n      swap2\n      swap1\n      swap2\n      pop\n      0x00\n      dup3\n      add\n      mload\n      dup2\n      0x00\n      add\n      sstore\n      0x20\n      dup3\n      add\n      mload\n      dup2\n      0x01\n      add\n      sstore\n      0x40\n      dup3\n      add\n      mload\n      dup2\n      0x02\n      add\n      swap1\n      dup2\n      tag_151\n      swap2\n      swap1\n      tag_82\n      jump\t// in\n    tag_151:\n      pop\n      0x60\n      dup3\n      add\n      mload\n      dup2\n      0x03\n      add\n      sstore\n      pop\n      pop\n        /* \"contracts/MarketPlace.sol\":1225:1433  {... */\n      pop\n        /* \"contracts/MarketPlace.sol\":1127:1433  function addItemsSupplier(uint _inStock, uint _price, string calldata _name, uint _expDate) public{... */\n      pop\n      pop\n      pop\n      pop\n      pop\n      jump\t// out\n        /* \"contracts/MarketPlace.sol\":323:346  address public supplier */\n    tag_30:\n      0x01\n      0x00\n      swap1\n      sload\n      swap1\n      0x0100\n      exp\n      swap1\n      div\n      0xffffffffffffffffffffffffffffffffffffffff\n      and\n      dup2\n      jump\t// out\n        /* \"contracts/MarketPlace.sol\":594:643  mapping(address => Product[]) public userProducts */\n    tag_37:\n      mstore(0x20, 0x03)\n      dup2\n      0x00\n      mstore\n      keccak256(0x00, 0x40)\n      dup2\n      dup2\n      sload\n      dup2\n      lt\n      tag_152\n      jumpi\n      0x00\n      dup1\n      revert\n    tag_152:\n      swap1\n      0x00\n      mstore\n      keccak256(0x00, 0x20)\n      swap1\n      0x04\n      mul\n      add\n      0x00\n      swap2\n      pop\n      swap2\n      pop\n      pop\n      dup1\n      0x00\n      add\n      sload\n      swap1\n      dup1\n      0x01\n      add\n      sload\n      swap1\n      dup1\n      0x02\n      add\n      dup1\n      sload\n      tag_154\n      swap1\n      tag_104\n      jump\t// in\n    tag_154:\n      dup1\n      0x1f\n      add\n      0x20\n      dup1\n      swap2\n      div\n      mul\n      0x20\n      add\n      mload(0x40)\n      swap1\n      dup2\n      add\n      0x40\n      mstore\n      dup1\n      swap3\n      swap2\n      swap1\n      dup2\n      dup2\n      mstore\n      0x20\n      add\n      dup3\n      dup1\n      sload\n      tag_155\n      swap1\n      tag_104\n      jump\t// in\n    tag_155:\n      dup1\n      iszero\n      tag_156\n      jumpi\n      dup1\n      0x1f\n      lt\n      tag_157\n      jumpi\n      0x0100\n      dup1\n      dup4\n      sload\n      div\n      mul\n      dup4\n      mstore\n      swap2\n      0x20\n      add\n      swap2\n      jump(tag_156)\n    tag_157:\n      dup3\n      add\n      swap2\n      swap1\n      0x00\n      mstore\n      keccak256(0x00, 0x20)\n      swap1\n    tag_158:\n      dup2\n      sload\n      dup2\n      mstore\n      swap1\n      0x01\n      add\n      swap1\n      0x20\n      add\n      dup1\n      dup4\n      gt\n      tag_158\n      jumpi\n      dup3\n      swap1\n      sub\n      0x1f\n      and\n      dup3\n      add\n      swap2\n    tag_156:\n      pop\n      pop\n      pop\n      pop\n      pop\n      swap1\n      dup1\n      0x03\n      add\n      sload\n      swap1\n      pop\n      dup5\n      jump\t// out\n        /* \"contracts/MarketPlace.sol\":2863:3331  function refund(address _shop, uint _productId) public payable {... */\n    tag_42:\n        /* \"contracts/MarketPlace.sol\":2936:2948  uint userExp */\n      0x00\n        /* \"contracts/MarketPlace.sol\":2951:2963  userProducts */\n      0x03\n        /* \"contracts/MarketPlace.sol\":2951:2975  userProducts[msg.sender] */\n      0x00\n        /* \"contracts/MarketPlace.sol\":2964:2974  msg.sender */\n      caller\n        /* \"contracts/MarketPlace.sol\":2951:2975  userProducts[msg.sender] */\n      0xffffffffffffffffffffffffffffffffffffffff\n      and\n      0xffffffffffffffffffffffffffffffffffffffff\n      and\n      dup2\n      mstore\n      0x20\n      add\n      swap1\n      dup2\n      mstore\n      0x20\n      add\n      0x00\n      keccak256\n        /* \"contracts/MarketPlace.sol\":2976:2986  _productId */\n      dup3\n        /* \"contracts/MarketPlace.sol\":2951:2987  userProducts[msg.sender][_productId] */\n      dup2\n      sload\n      dup2\n      lt\n      tag_160\n      jumpi\n      tag_161\n      tag_101\n      jump\t// in\n    tag_161:\n    tag_160:\n      swap1\n      0x00\n      mstore\n      keccak256(0x00, 0x20)\n      swap1\n      0x04\n      mul\n      add\n        /* \"contracts/MarketPlace.sol\":2951:2995  userProducts[msg.sender][_productId].expDate */\n      0x03\n      add\n      sload\n        /* \"contracts/MarketPlace.sol\":2936:2995  uint userExp = userProducts[msg.sender][_productId].expDate */\n      swap1\n      pop\n        /* \"contracts/MarketPlace.sol\":3005:3017  uint shopExp */\n      0x00\n        /* \"contracts/MarketPlace.sol\":3020:3032  userProducts */\n      0x03\n        /* \"contracts/MarketPlace.sol\":3020:3039  userProducts[_shop] */\n      0x00\n        /* \"contracts/MarketPlace.sol\":3033:3038  _shop */\n      dup6\n        /* \"contracts/MarketPlace.sol\":3020:3039  userProducts[_shop] */\n      0xffffffffffffffffffffffffffffffffffffffff\n      and\n      0xffffffffffffffffffffffffffffffffffffffff\n      and\n      dup2\n      mstore\n      0x20\n      add\n      swap1\n      dup2\n      mstore\n      0x20\n      add\n      0x00\n      keccak256\n        /* \"contracts/MarketPlace.sol\":3040:3050  _productId */\n      dup4\n        /* \"contracts/MarketPlace.sol\":3020:3051  userProducts[_shop][_productId] */\n      dup2\n      sload\n      dup2\n      lt\n      tag_163\n      jumpi\n      tag_164\n      tag_101\n      jump\t// in\n    tag_164:\n    tag_163:\n      swap1\n      0x00\n      mstore\n      keccak256(0x00, 0x20)\n      swap1\n      0x04\n      mul\n      add\n        /* \"contracts/MarketPlace.sol\":3020:3059  userProducts[_shop][_productId].expDate */\n      0x03\n      add\n      sload\n        /* \"contracts/MarketPlace.sol\":3005:3059  uint shopExp = userProducts[_shop][_productId].expDate */\n      swap1\n      pop\n        /* \"contracts/MarketPlace.sol\":3087:3094  shopExp */\n      dup1\n        /* \"contracts/MarketPlace.sol\":3077:3084  userExp */\n      dup3\n        /* \"contracts/MarketPlace.sol\":3077:3094  userExp > shopExp */\n      gt\n        /* \"contracts/MarketPlace.sol\":3069:3095  require(userExp > shopExp) */\n      tag_166\n      jumpi\n      0x00\n      dup1\n      revert\n    tag_166:\n        /* \"contracts/MarketPlace.sol\":3105:3121  uint totalRefSum */\n      0x00\n        /* \"contracts/MarketPlace.sol\":3212:3219  1 ether */\n      0x0de0b6b3a7640000\n        /* \"contracts/MarketPlace.sol\":3172:3184  userProducts */\n      0x03\n        /* \"contracts/MarketPlace.sol\":3172:3191  userProducts[_shop] */\n      0x00\n        /* \"contracts/MarketPlace.sol\":3185:3190  _shop */\n      dup8\n        /* \"contracts/MarketPlace.sol\":3172:3191  userProducts[_shop] */\n      0xffffffffffffffffffffffffffffffffffffffff\n      and\n      0xffffffffffffffffffffffffffffffffffffffff\n      and\n      dup2\n      mstore\n      0x20\n      add\n      swap1\n      dup2\n      mstore\n      0x20\n      add\n      0x00\n      keccak256\n        /* \"contracts/MarketPlace.sol\":3192:3202  _productId */\n      dup6\n        /* \"contracts/MarketPlace.sol\":3172:3203  userProducts[_shop][_productId] */\n      dup2\n      sload\n      dup2\n      lt\n      tag_167\n      jumpi\n      tag_168\n      tag_101\n      jump\t// in\n    tag_168:\n    tag_167:\n      swap1\n      0x00\n      mstore\n      keccak256(0x00, 0x20)\n      swap1\n      0x04\n      mul\n      add\n        /* \"contracts/MarketPlace.sol\":3172:3209  userProducts[_shop][_productId].price */\n      0x01\n      add\n      sload\n        /* \"contracts/MarketPlace.sol\":3125:3137  userProducts */\n      0x03\n        /* \"contracts/MarketPlace.sol\":3125:3149  userProducts[msg.sender] */\n      0x00\n        /* \"contracts/MarketPlace.sol\":3138:3148  msg.sender */\n      caller\n        /* \"contracts/MarketPlace.sol\":3125:3149  userProducts[msg.sender] */\n      0xffffffffffffffffffffffffffffffffffffffff\n      and\n      0xffffffffffffffffffffffffffffffffffffffff\n      and\n      dup2\n      mstore\n      0x20\n      add\n      swap1\n      dup2\n      mstore\n      0x20\n      add\n      0x00\n      keccak256\n        /* \"contracts/MarketPlace.sol\":3150:3160  _productId */\n      dup7\n        /* \"contracts/MarketPlace.sol\":3125:3161  userProducts[msg.sender][_productId] */\n      dup2\n      sload\n      dup2\n      lt\n      tag_170\n      jumpi\n      tag_171\n      tag_101\n      jump\t// in\n    tag_171:\n    tag_170:\n      swap1\n      0x00\n      mstore\n      keccak256(0x00, 0x20)\n      swap1\n      0x04\n      mul\n      add\n        /* \"contracts/MarketPlace.sol\":3125:3169  userProducts[msg.sender][_productId].inStock */\n      0x00\n      add\n      sload\n        /* \"contracts/MarketPlace.sol\":3125:3209  userProducts[msg.sender][_productId].inStock * userProducts[_shop][_productId].price */\n      tag_173\n      swap2\n      swap1\n      tag_122\n      jump\t// in\n    tag_173:\n        /* \"contracts/MarketPlace.sol\":3125:3219  userProducts[msg.sender][_productId].inStock * userProducts[_shop][_productId].price * 1 ether */\n      tag_174\n      swap2\n      swap1\n      tag_122\n      jump\t// in\n    tag_174:\n        /* \"contracts/MarketPlace.sol\":3105:3219  uint totalRefSum =  userProducts[msg.sender][_productId].inStock * userProducts[_shop][_productId].price * 1 ether */\n      swap1\n      pop\n        /* \"contracts/MarketPlace.sol\":3236:3248  userProducts */\n      0x03\n        /* \"contracts/MarketPlace.sol\":3236:3260  userProducts[msg.sender] */\n      0x00\n        /* \"contracts/MarketPlace.sol\":3249:3259  msg.sender */\n      caller\n        /* \"contracts/MarketPlace.sol\":3236:3260  userProducts[msg.sender] */\n      0xffffffffffffffffffffffffffffffffffffffff\n      and\n      0xffffffffffffffffffffffffffffffffffffffff\n      and\n      dup2\n      mstore\n      0x20\n      add\n      swap1\n      dup2\n      mstore\n      0x20\n      add\n      0x00\n      keccak256\n        /* \"contracts/MarketPlace.sol\":3261:3271  _productId */\n      dup5\n        /* \"contracts/MarketPlace.sol\":3236:3272  userProducts[msg.sender][_productId] */\n      dup2\n      sload\n      dup2\n      lt\n      tag_175\n      jumpi\n      tag_176\n      tag_101\n      jump\t// in\n    tag_176:\n    tag_175:\n      swap1\n      0x00\n      mstore\n      keccak256(0x00, 0x20)\n      swap1\n      0x04\n      mul\n      add\n      0x00\n        /* \"contracts/MarketPlace.sol\":3229:3272  delete userProducts[msg.sender][_productId] */\n      dup1\n      dup3\n      add\n      0x00\n      swap1\n      sstore\n      0x01\n      dup3\n      add\n      0x00\n      swap1\n      sstore\n      0x02\n      dup3\n      add\n      0x00\n      tag_178\n      swap2\n      swap1\n      tag_179\n      jump\t// in\n    tag_178:\n      0x03\n      dup3\n      add\n      0x00\n      swap1\n      sstore\n      pop\n      pop\n        /* \"contracts/MarketPlace.sol\":3290:3300  msg.sender */\n      caller\n        /* \"contracts/MarketPlace.sol\":3282:3310  payable(msg.sender).transfer */\n      0xffffffffffffffffffffffffffffffffffffffff\n      and\n        /* \"contracts/MarketPlace.sol\":3282:3323  payable(msg.sender).transfer(totalRefSum) */\n      0x08fc\n        /* \"contracts/MarketPlace.sol\":3311:3322  totalRefSum */\n      dup3\n        /* \"contracts/MarketPlace.sol\":3282:3323  payable(msg.sender).transfer(totalRefSum) */\n      swap1\n      dup2\n      iszero\n      mul\n      swap1\n      mload(0x40)\n      0x00\n      mload(0x40)\n      dup1\n      dup4\n      sub\n      dup2\n      dup6\n      dup9\n      dup9\n      call\n      swap4\n      pop\n      pop\n      pop\n      pop\n      iszero\n      dup1\n      iszero\n      tag_181\n      jumpi\n      returndatasize\n      0x00\n      dup1\n      returndatacopy\n      revert(0x00, returndatasize)\n    tag_181:\n      pop\n        /* \"contracts/MarketPlace.sol\":2926:3331  {... */\n      pop\n      pop\n      pop\n        /* \"contracts/MarketPlace.sol\":2863:3331  function refund(address _shop, uint _productId) public payable {... */\n      pop\n      pop\n      jump\t// out\n        /* \"contracts/MarketPlace.sol\":1444:1528  function makeMarket() public  {... */\n    tag_45:\n        /* \"contracts/MarketPlace.sol\":1504:1521  User(Role.Market) */\n      mload(0x40)\n      dup1\n      0x20\n      add\n      0x40\n      mstore\n      dup1\n        /* \"contracts/MarketPlace.sol\":1509:1520  Role.Market */\n      0x01\n        /* \"contracts/MarketPlace.sol\":1504:1521  User(Role.Market) */\n      0x02\n      dup2\n      gt\n      iszero\n      tag_183\n      jumpi\n      tag_184\n      tag_70\n      jump\t// in\n    tag_184:\n    tag_183:\n      dup2\n      mstore\n      pop\n        /* \"contracts/MarketPlace.sol\":1484:1489  users */\n      0x02\n        /* \"contracts/MarketPlace.sol\":1484:1501  users[msg.sender] */\n      0x00\n        /* \"contracts/MarketPlace.sol\":1490:1500  msg.sender */\n      caller\n        /* \"contracts/MarketPlace.sol\":1484:1501  users[msg.sender] */\n      0xffffffffffffffffffffffffffffffffffffffff\n      and\n      0xffffffffffffffffffffffffffffffffffffffff\n      and\n      dup2\n      mstore\n      0x20\n      add\n      swap1\n      dup2\n      mstore\n      0x20\n      add\n      0x00\n      keccak256\n        /* \"contracts/MarketPlace.sol\":1484:1521  users[msg.sender] = User(Role.Market) */\n      0x00\n      dup3\n      add\n      mload\n      dup2\n      0x00\n      add\n      exp(0x0100, 0x00)\n      dup2\n      sload\n      dup2\n      0xff\n      mul\n      not\n      and\n      swap1\n      dup4\n      0x02\n      dup2\n      gt\n      iszero\n      tag_185\n      jumpi\n      tag_186\n      tag_70\n      jump\t// in\n    tag_186:\n    tag_185:\n      mul\n      or\n      swap1\n      sstore\n      pop\n      swap1\n      pop\n      pop\n        /* \"contracts/MarketPlace.sol\":1444:1528  function makeMarket() public  {... */\n      jump\t// out\n        /* \"contracts/MarketPlace.sol\":905:1121  function randMod(uint _modulus) public view returns(uint)... */\n    tag_50:\n        /* \"contracts/MarketPlace.sol\":957:961  uint */\n      0x00\n        /* \"contracts/MarketPlace.sol\":980:994  uint randNonce */\n      dup1\n        /* \"contracts/MarketPlace.sol\":1004:1015  randNonce++ */\n      dup1\n      dup1\n      tag_188\n      swap1\n      tag_138\n      jump\t// in\n    tag_188:\n      swap2\n      pop\n      pop\n        /* \"contracts/MarketPlace.sol\":1106:1114  _modulus */\n      dup3\n        /* \"contracts/MarketPlace.sol\":1064:1079  block.timestamp */\n      timestamp\n        /* \"contracts/MarketPlace.sol\":1080:1090  msg.sender */\n      caller\n        /* \"contracts/MarketPlace.sol\":1091:1100  randNonce */\n      dup4\n        /* \"contracts/MarketPlace.sol\":1047:1101  abi.encodePacked(block.timestamp,msg.sender,randNonce) */\n      add(0x20, mload(0x40))\n      tag_189\n      swap4\n      swap3\n      swap2\n      swap1\n      tag_190\n      jump\t// in\n    tag_189:\n      mload(0x40)\n      0x20\n      dup2\n      dup4\n      sub\n      sub\n      dup2\n      mstore\n      swap1\n      0x40\n      mstore\n        /* \"contracts/MarketPlace.sol\":1037:1102  keccak256(abi.encodePacked(block.timestamp,msg.sender,randNonce)) */\n      dup1\n      mload\n      swap1\n      0x20\n      add\n      keccak256\n        /* \"contracts/MarketPlace.sol\":1032:1103  uint(keccak256(abi.encodePacked(block.timestamp,msg.sender,randNonce))) */\n      0x00\n      shr\n        /* \"contracts/MarketPlace.sol\":1032:1114  uint(keccak256(abi.encodePacked(block.timestamp,msg.sender,randNonce))) % _modulus */\n      tag_191\n      swap2\n      swap1\n      tag_192\n      jump\t// in\n    tag_191:\n        /* \"contracts/MarketPlace.sol\":1025:1114  return uint(keccak256(abi.encodePacked(block.timestamp,msg.sender,randNonce))) % _modulus */\n      swap2\n      pop\n      pop\n        /* \"contracts/MarketPlace.sol\":905:1121  function randMod(uint _modulus) public view returns(uint)... */\n      swap2\n      swap1\n      pop\n      jump\t// out\n        /* \"contracts/MarketPlace.sol\":297:317  address public owner */\n    tag_55:\n      0x00\n      dup1\n      sload\n      swap1\n      0x0100\n      exp\n      swap1\n      div\n      0xffffffffffffffffffffffffffffffffffffffff\n      and\n      dup2\n      jump\t// out\n        /* \"contracts/MarketPlace.sol\":3337:5143  function purchase(address _shop, uint _amount, uint _id) public payable {... */\n    tag_59:\n        /* \"contracts/MarketPlace.sol\":3449:3458  Role.User */\n      0x00\n        /* \"contracts/MarketPlace.sol\":3423:3458  users[msg.sender].role == Role.User */\n      0x02\n      dup2\n      gt\n      iszero\n      tag_194\n      jumpi\n      tag_195\n      tag_70\n      jump\t// in\n    tag_195:\n    tag_194:\n        /* \"contracts/MarketPlace.sol\":3423:3428  users */\n      0x02\n        /* \"contracts/MarketPlace.sol\":3423:3440  users[msg.sender] */\n      0x00\n        /* \"contracts/MarketPlace.sol\":3429:3439  msg.sender */\n      caller\n        /* \"contracts/MarketPlace.sol\":3423:3440  users[msg.sender] */\n      0xffffffffffffffffffffffffffffffffffffffff\n      and\n      0xffffffffffffffffffffffffffffffffffffffff\n      and\n      dup2\n      mstore\n      0x20\n      add\n      swap1\n      dup2\n      mstore\n      0x20\n      add\n      0x00\n      keccak256\n        /* \"contracts/MarketPlace.sol\":3423:3445  users[msg.sender].role */\n      0x00\n      add\n      0x00\n      swap1\n      sload\n      swap1\n      0x0100\n      exp\n      swap1\n      div\n      0xff\n      and\n        /* \"contracts/MarketPlace.sol\":3423:3458  users[msg.sender].role == Role.User */\n      0x02\n      dup2\n      gt\n      iszero\n      tag_196\n      jumpi\n      tag_197\n      tag_70\n      jump\t// in\n    tag_197:\n    tag_196:\n      sub\n        /* \"contracts/MarketPlace.sol\":3419:3521  if (users[msg.sender].role == Role.User) {... */\n      tag_198\n      jumpi\n        /* \"contracts/MarketPlace.sol\":3494:3510  User( Role.User) */\n      mload(0x40)\n      dup1\n      0x20\n      add\n      0x40\n      mstore\n      dup1\n        /* \"contracts/MarketPlace.sol\":3500:3509  Role.User */\n      0x00\n        /* \"contracts/MarketPlace.sol\":3494:3510  User( Role.User) */\n      0x02\n      dup2\n      gt\n      iszero\n      tag_199\n      jumpi\n      tag_200\n      tag_70\n      jump\t// in\n    tag_200:\n    tag_199:\n      dup2\n      mstore\n      pop\n        /* \"contracts/MarketPlace.sol\":3474:3479  users */\n      0x02\n        /* \"contracts/MarketPlace.sol\":3474:3491  users[msg.sender] */\n      0x00\n        /* \"contracts/MarketPlace.sol\":3480:3490  msg.sender */\n      caller\n        /* \"contracts/MarketPlace.sol\":3474:3491  users[msg.sender] */\n      0xffffffffffffffffffffffffffffffffffffffff\n      and\n      0xffffffffffffffffffffffffffffffffffffffff\n      and\n      dup2\n      mstore\n      0x20\n      add\n      swap1\n      dup2\n      mstore\n      0x20\n      add\n      0x00\n      keccak256\n        /* \"contracts/MarketPlace.sol\":3474:3510  users[msg.sender] = User( Role.User) */\n      0x00\n      dup3\n      add\n      mload\n      dup2\n      0x00\n      add\n      exp(0x0100, 0x00)\n      dup2\n      sload\n      dup2\n      0xff\n      mul\n      not\n      and\n      swap1\n      dup4\n      0x02\n      dup2\n      gt\n      iszero\n      tag_201\n      jumpi\n      tag_202\n      tag_70\n      jump\t// in\n    tag_202:\n    tag_201:\n      mul\n      or\n      swap1\n      sstore\n      pop\n      swap1\n      pop\n      pop\n        /* \"contracts/MarketPlace.sol\":3419:3521  if (users[msg.sender].role == Role.User) {... */\n    tag_198:\n        /* \"contracts/MarketPlace.sol\":3557:3558  0 */\n      0x00\n        /* \"contracts/MarketPlace.sol\":3547:3554  _amount */\n      dup3\n        /* \"contracts/MarketPlace.sol\":3547:3558  _amount > 0 */\n      gt\n        /* \"contracts/MarketPlace.sol\":3539:3601  require(_amount > 0, \"Purchase amount must be greater than 0\") */\n      tag_203\n      jumpi\n      mload(0x40)\n      0x08c379a000000000000000000000000000000000000000000000000000000000\n      dup2\n      mstore\n      0x04\n      add\n      tag_204\n      swap1\n      tag_95\n      jump\t// in\n    tag_204:\n      mload(0x40)\n      dup1\n      swap2\n      sub\n      swap1\n      revert\n    tag_203:\n        /* \"contracts/MarketPlace.sol\":3625:3637  userProducts */\n      0x03\n        /* \"contracts/MarketPlace.sol\":3625:3644  userProducts[_shop] */\n      0x00\n        /* \"contracts/MarketPlace.sol\":3638:3643  _shop */\n      dup5\n        /* \"contracts/MarketPlace.sol\":3625:3644  userProducts[_shop] */\n      0xffffffffffffffffffffffffffffffffffffffff\n      and\n      0xffffffffffffffffffffffffffffffffffffffff\n      and\n      dup2\n      mstore\n      0x20\n      add\n      swap1\n      dup2\n      mstore\n      0x20\n      add\n      0x00\n      keccak256\n        /* \"contracts/MarketPlace.sol\":3625:3651  userProducts[_shop].length */\n      dup1\n      sload\n      swap1\n      pop\n        /* \"contracts/MarketPlace.sol\":3619:3622  _id */\n      dup2\n        /* \"contracts/MarketPlace.sol\":3619:3651  _id < userProducts[_shop].length */\n      lt\n        /* \"contracts/MarketPlace.sol\":3611:3674  require(_id < userProducts[_shop].length, \"Invalid product ID\") */\n      tag_205\n      jumpi\n      mload(0x40)\n      0x08c379a000000000000000000000000000000000000000000000000000000000\n      dup2\n      mstore\n      0x04\n      add\n      tag_206\n      swap1\n      tag_98\n      jump\t// in\n    tag_206:\n      mload(0x40)\n      dup1\n      swap2\n      sub\n      swap1\n      revert\n    tag_205:\n        /* \"contracts/MarketPlace.sol\":3703:3715  userProducts */\n      0x03\n        /* \"contracts/MarketPlace.sol\":3703:3722  userProducts[_shop] */\n      0x00\n        /* \"contracts/MarketPlace.sol\":3716:3721  _shop */\n      dup5\n        /* \"contracts/MarketPlace.sol\":3703:3722  userProducts[_shop] */\n      0xffffffffffffffffffffffffffffffffffffffff\n      and\n      0xffffffffffffffffffffffffffffffffffffffff\n      and\n      dup2\n      mstore\n      0x20\n      add\n      swap1\n      dup2\n      mstore\n      0x20\n      add\n      0x00\n      keccak256\n        /* \"contracts/MarketPlace.sol\":3723:3726  _id */\n      dup2\n        /* \"contracts/MarketPlace.sol\":3703:3727  userProducts[_shop][_id] */\n      dup2\n      sload\n      dup2\n      lt\n      tag_207\n      jumpi\n      tag_208\n      tag_101\n      jump\t// in\n    tag_208:\n    tag_207:\n      swap1\n      0x00\n      mstore\n      keccak256(0x00, 0x20)\n      swap1\n      0x04\n      mul\n      add\n        /* \"contracts/MarketPlace.sol\":3703:3735  userProducts[_shop][_id].inStock */\n      0x00\n      add\n      sload\n        /* \"contracts/MarketPlace.sol\":3692:3699  _amount */\n      dup3\n        /* \"contracts/MarketPlace.sol\":3692:3735  _amount <= userProducts[_shop][_id].inStock */\n      gt\n      iszero\n        /* \"contracts/MarketPlace.sol\":3684:3766  require(_amount <= userProducts[_shop][_id].inStock, \"Not enough stock available\") */\n      tag_210\n      jumpi\n      mload(0x40)\n      0x08c379a000000000000000000000000000000000000000000000000000000000\n      dup2\n      mstore\n      0x04\n      add\n      tag_211\n      swap1\n      tag_212\n      jump\t// in\n    tag_211:\n      mload(0x40)\n      dup1\n      swap2\n      sub\n      swap1\n      revert\n    tag_210:\n        /* \"contracts/MarketPlace.sol\":3777:3792  uint totalPrice */\n      0x00\n        /* \"contracts/MarketPlace.sol\":3838:3845  1 ether */\n      0x0de0b6b3a7640000\n        /* \"contracts/MarketPlace.sol\":3805:3817  userProducts */\n      0x03\n        /* \"contracts/MarketPlace.sol\":3805:3824  userProducts[_shop] */\n      0x00\n        /* \"contracts/MarketPlace.sol\":3818:3823  _shop */\n      dup7\n        /* \"contracts/MarketPlace.sol\":3805:3824  userProducts[_shop] */\n      0xffffffffffffffffffffffffffffffffffffffff\n      and\n      0xffffffffffffffffffffffffffffffffffffffff\n      and\n      dup2\n      mstore\n      0x20\n      add\n      swap1\n      dup2\n      mstore\n      0x20\n      add\n      0x00\n      keccak256\n        /* \"contracts/MarketPlace.sol\":3825:3828  _id */\n      dup4\n        /* \"contracts/MarketPlace.sol\":3805:3829  userProducts[_shop][_id] */\n      dup2\n      sload\n      dup2\n      lt\n      tag_213\n      jumpi\n      tag_214\n      tag_101\n      jump\t// in\n    tag_214:\n    tag_213:\n      swap1\n      0x00\n      mstore\n      keccak256(0x00, 0x20)\n      swap1\n      0x04\n      mul\n      add\n        /* \"contracts/MarketPlace.sol\":3805:3835  userProducts[_shop][_id].price */\n      0x01\n      add\n      sload\n        /* \"contracts/MarketPlace.sol\":3795:3802  _amount */\n      dup5\n        /* \"contracts/MarketPlace.sol\":3795:3835  _amount * userProducts[_shop][_id].price */\n      tag_216\n      swap2\n      swap1\n      tag_122\n      jump\t// in\n    tag_216:\n        /* \"contracts/MarketPlace.sol\":3795:3845  _amount * userProducts[_shop][_id].price * 1 ether */\n      tag_217\n      swap2\n      swap1\n      tag_122\n      jump\t// in\n    tag_217:\n        /* \"contracts/MarketPlace.sol\":3777:3845  uint totalPrice = _amount * userProducts[_shop][_id].price * 1 ether */\n      swap1\n      pop\n        /* \"contracts/MarketPlace.sol\":3876:3886  totalPrice */\n      dup1\n        /* \"contracts/MarketPlace.sol\":3863:3872  msg.value */\n      callvalue\n        /* \"contracts/MarketPlace.sol\":3863:3886  msg.value >= totalPrice */\n      lt\n      iszero\n        /* \"contracts/MarketPlace.sol\":3855:3914  require(msg.value >= totalPrice, \"Insufficient funds sent\") */\n      tag_218\n      jumpi\n      mload(0x40)\n      0x08c379a000000000000000000000000000000000000000000000000000000000\n      dup2\n      mstore\n      0x04\n      add\n      tag_219\n      swap1\n      tag_126\n      jump\t// in\n    tag_219:\n      mload(0x40)\n      dup1\n      swap2\n      sub\n      swap1\n      revert\n    tag_218:\n        /* \"contracts/MarketPlace.sol\":4015:4033  bool productExists */\n      0x00\n        /* \"contracts/MarketPlace.sol\":4056:4062  uint i */\n      dup1\n        /* \"contracts/MarketPlace.sol\":4051:4458  for (uint i = 0; i < userProducts[msg.sender].length; i++) {... */\n    tag_220:\n        /* \"contracts/MarketPlace.sol\":4072:4084  userProducts */\n      0x03\n        /* \"contracts/MarketPlace.sol\":4072:4096  userProducts[msg.sender] */\n      0x00\n        /* \"contracts/MarketPlace.sol\":4085:4095  msg.sender */\n      caller\n        /* \"contracts/MarketPlace.sol\":4072:4096  userProducts[msg.sender] */\n      0xffffffffffffffffffffffffffffffffffffffff\n      and\n      0xffffffffffffffffffffffffffffffffffffffff\n      and\n      dup2\n      mstore\n      0x20\n      add\n      swap1\n      dup2\n      mstore\n      0x20\n      add\n      0x00\n      keccak256\n        /* \"contracts/MarketPlace.sol\":4072:4103  userProducts[msg.sender].length */\n      dup1\n      sload\n      swap1\n      pop\n        /* \"contracts/MarketPlace.sol\":4068:4069  i */\n      dup2\n        /* \"contracts/MarketPlace.sol\":4068:4103  i < userProducts[msg.sender].length */\n      lt\n        /* \"contracts/MarketPlace.sol\":4051:4458  for (uint i = 0; i < userProducts[msg.sender].length; i++) {... */\n      iszero\n      tag_221\n      jumpi\n        /* \"contracts/MarketPlace.sol\":4198:4210  userProducts */\n      0x03\n        /* \"contracts/MarketPlace.sol\":4198:4217  userProducts[_shop] */\n      0x00\n        /* \"contracts/MarketPlace.sol\":4211:4216  _shop */\n      dup8\n        /* \"contracts/MarketPlace.sol\":4198:4217  userProducts[_shop] */\n      0xffffffffffffffffffffffffffffffffffffffff\n      and\n      0xffffffffffffffffffffffffffffffffffffffff\n      and\n      dup2\n      mstore\n      0x20\n      add\n      swap1\n      dup2\n      mstore\n      0x20\n      add\n      0x00\n      keccak256\n        /* \"contracts/MarketPlace.sol\":4218:4221  _id */\n      dup5\n        /* \"contracts/MarketPlace.sol\":4198:4222  userProducts[_shop][_id] */\n      dup2\n      sload\n      dup2\n      lt\n      tag_223\n      jumpi\n      tag_224\n      tag_101\n      jump\t// in\n    tag_224:\n    tag_223:\n      swap1\n      0x00\n      mstore\n      keccak256(0x00, 0x20)\n      swap1\n      0x04\n      mul\n      add\n        /* \"contracts/MarketPlace.sol\":4198:4227  userProducts[_shop][_id].name */\n      0x02\n      add\n        /* \"contracts/MarketPlace.sol\":4182:4229  keccak256(bytes(userProducts[_shop][_id].name)) */\n      mload(0x40)\n      tag_226\n      swap2\n      swap1\n      tag_116\n      jump\t// in\n    tag_226:\n      mload(0x40)\n      dup1\n      swap2\n      sub\n      swap1\n      keccak256\n        /* \"contracts/MarketPlace.sol\":4144:4156  userProducts */\n      0x03\n        /* \"contracts/MarketPlace.sol\":4144:4168  userProducts[msg.sender] */\n      0x00\n        /* \"contracts/MarketPlace.sol\":4157:4167  msg.sender */\n      caller\n        /* \"contracts/MarketPlace.sol\":4144:4168  userProducts[msg.sender] */\n      0xffffffffffffffffffffffffffffffffffffffff\n      and\n      0xffffffffffffffffffffffffffffffffffffffff\n      and\n      dup2\n      mstore\n      0x20\n      add\n      swap1\n      dup2\n      mstore\n      0x20\n      add\n      0x00\n      keccak256\n        /* \"contracts/MarketPlace.sol\":4169:4170  i */\n      dup3\n        /* \"contracts/MarketPlace.sol\":4144:4171  userProducts[msg.sender][i] */\n      dup2\n      sload\n      dup2\n      lt\n      tag_227\n      jumpi\n      tag_228\n      tag_101\n      jump\t// in\n    tag_228:\n    tag_227:\n      swap1\n      0x00\n      mstore\n      keccak256(0x00, 0x20)\n      swap1\n      0x04\n      mul\n      add\n        /* \"contracts/MarketPlace.sol\":4144:4176  userProducts[msg.sender][i].name */\n      0x02\n      add\n        /* \"contracts/MarketPlace.sol\":4128:4178  keccak256(bytes(userProducts[msg.sender][i].name)) */\n      mload(0x40)\n      tag_230\n      swap2\n      swap1\n      tag_116\n      jump\t// in\n    tag_230:\n      mload(0x40)\n      dup1\n      swap2\n      sub\n      swap1\n      keccak256\n        /* \"contracts/MarketPlace.sol\":4128:4229  keccak256(bytes(userProducts[msg.sender][i].name)) == keccak256(bytes(userProducts[_shop][_id].name)) */\n      sub\n        /* \"contracts/MarketPlace.sol\":4124:4448  if (keccak256(bytes(userProducts[msg.sender][i].name)) == keccak256(bytes(userProducts[_shop][_id].name))) {... */\n      tag_231\n      jumpi\n        /* \"contracts/MarketPlace.sol\":4288:4295  _amount */\n      dup5\n        /* \"contracts/MarketPlace.sol\":4249:4261  userProducts */\n      0x03\n        /* \"contracts/MarketPlace.sol\":4249:4273  userProducts[msg.sender] */\n      0x00\n        /* \"contracts/MarketPlace.sol\":4262:4272  msg.sender */\n      caller\n        /* \"contracts/MarketPlace.sol\":4249:4273  userProducts[msg.sender] */\n      0xffffffffffffffffffffffffffffffffffffffff\n      and\n      0xffffffffffffffffffffffffffffffffffffffff\n      and\n      dup2\n      mstore\n      0x20\n      add\n      swap1\n      dup2\n      mstore\n      0x20\n      add\n      0x00\n      keccak256\n        /* \"contracts/MarketPlace.sol\":4274:4275  i */\n      dup3\n        /* \"contracts/MarketPlace.sol\":4249:4276  userProducts[msg.sender][i] */\n      dup2\n      sload\n      dup2\n      lt\n      tag_232\n      jumpi\n      tag_233\n      tag_101\n      jump\t// in\n    tag_233:\n    tag_232:\n      swap1\n      0x00\n      mstore\n      keccak256(0x00, 0x20)\n      swap1\n      0x04\n      mul\n      add\n        /* \"contracts/MarketPlace.sol\":4249:4284  userProducts[msg.sender][i].inStock */\n      0x00\n      add\n      0x00\n        /* \"contracts/MarketPlace.sol\":4249:4295  userProducts[msg.sender][i].inStock += _amount */\n      dup3\n      dup3\n      sload\n      tag_235\n      swap2\n      swap1\n      tag_136\n      jump\t// in\n    tag_235:\n      swap3\n      pop\n      pop\n      dup2\n      swap1\n      sstore\n      pop\n        /* \"contracts/MarketPlace.sol\":4329:4333  true */\n      0x01\n        /* \"contracts/MarketPlace.sol\":4313:4333  productExists = true */\n      swap2\n      pop\n        /* \"contracts/MarketPlace.sol\":4351:4356  break */\n      jump(tag_221)\n        /* \"contracts/MarketPlace.sol\":4124:4448  if (keccak256(bytes(userProducts[msg.sender][i].name)) == keccak256(bytes(userProducts[_shop][_id].name))) {... */\n    tag_231:\n        /* \"contracts/MarketPlace.sol\":4105:4108  i++ */\n      dup1\n      dup1\n      tag_236\n      swap1\n      tag_138\n      jump\t// in\n    tag_236:\n      swap2\n      pop\n      pop\n        /* \"contracts/MarketPlace.sol\":4051:4458  for (uint i = 0; i < userProducts[msg.sender].length; i++) {... */\n      jump(tag_220)\n    tag_221:\n      pop\n        /* \"contracts/MarketPlace.sol\":4553:4566  productExists */\n      dup1\n        /* \"contracts/MarketPlace.sol\":4548:4833  if (!productExists) {... */\n      tag_237\n      jumpi\n        /* \"contracts/MarketPlace.sol\":4651:4673  Product memory newItem */\n      0x00\n        /* \"contracts/MarketPlace.sol\":4676:4770  Product(_amount, userProducts[_shop][_id].price, userProducts[_shop][_id].name, randMod(1000)) */\n      mload(0x40)\n      dup1\n      0x80\n      add\n      0x40\n      mstore\n      dup1\n        /* \"contracts/MarketPlace.sol\":4684:4691  _amount */\n      dup7\n        /* \"contracts/MarketPlace.sol\":4676:4770  Product(_amount, userProducts[_shop][_id].price, userProducts[_shop][_id].name, randMod(1000)) */\n      dup2\n      mstore\n      0x20\n      add\n        /* \"contracts/MarketPlace.sol\":4693:4705  userProducts */\n      0x03\n        /* \"contracts/MarketPlace.sol\":4693:4712  userProducts[_shop] */\n      0x00\n        /* \"contracts/MarketPlace.sol\":4706:4711  _shop */\n      dup10\n        /* \"contracts/MarketPlace.sol\":4693:4712  userProducts[_shop] */\n      0xffffffffffffffffffffffffffffffffffffffff\n      and\n      0xffffffffffffffffffffffffffffffffffffffff\n      and\n      dup2\n      mstore\n      0x20\n      add\n      swap1\n      dup2\n      mstore\n      0x20\n      add\n      0x00\n      keccak256\n        /* \"contracts/MarketPlace.sol\":4713:4716  _id */\n      dup7\n        /* \"contracts/MarketPlace.sol\":4693:4717  userProducts[_shop][_id] */\n      dup2\n      sload\n      dup2\n      lt\n      tag_238\n      jumpi\n      tag_239\n      tag_101\n      jump\t// in\n    tag_239:\n    tag_238:\n      swap1\n      0x00\n      mstore\n      keccak256(0x00, 0x20)\n      swap1\n      0x04\n      mul\n      add\n        /* \"contracts/MarketPlace.sol\":4693:4723  userProducts[_shop][_id].price */\n      0x01\n      add\n      sload\n        /* \"contracts/MarketPlace.sol\":4676:4770  Product(_amount, userProducts[_shop][_id].price, userProducts[_shop][_id].name, randMod(1000)) */\n      dup2\n      mstore\n      0x20\n      add\n        /* \"contracts/MarketPlace.sol\":4725:4737  userProducts */\n      0x03\n        /* \"contracts/MarketPlace.sol\":4725:4744  userProducts[_shop] */\n      0x00\n        /* \"contracts/MarketPlace.sol\":4738:4743  _shop */\n      dup10\n        /* \"contracts/MarketPlace.sol\":4725:4744  userProducts[_shop] */\n      0xffffffffffffffffffffffffffffffffffffffff\n      and\n      0xffffffffffffffffffffffffffffffffffffffff\n      and\n      dup2\n      mstore\n      0x20\n      add\n      swap1\n      dup2\n      mstore\n      0x20\n      add\n      0x00\n      keccak256\n        /* \"contracts/MarketPlace.sol\":4745:4748  _id */\n      dup7\n        /* \"contracts/MarketPlace.sol\":4725:4749  userProducts[_shop][_id] */\n      dup2\n      sload\n      dup2\n      lt\n      tag_241\n      jumpi\n      tag_242\n      tag_101\n      jump\t// in\n    tag_242:\n    tag_241:\n      swap1\n      0x00\n      mstore\n      keccak256(0x00, 0x20)\n      swap1\n      0x04\n      mul\n      add\n        /* \"contracts/MarketPlace.sol\":4725:4754  userProducts[_shop][_id].name */\n      0x02\n      add\n        /* \"contracts/MarketPlace.sol\":4676:4770  Product(_amount, userProducts[_shop][_id].price, userProducts[_shop][_id].name, randMod(1000)) */\n      dup1\n      sload\n      tag_244\n      swap1\n      tag_104\n      jump\t// in\n    tag_244:\n      dup1\n      0x1f\n      add\n      0x20\n      dup1\n      swap2\n      div\n      mul\n      0x20\n      add\n      mload(0x40)\n      swap1\n      dup2\n      add\n      0x40\n      mstore\n      dup1\n      swap3\n      swap2\n      swap1\n      dup2\n      dup2\n      mstore\n      0x20\n      add\n      dup3\n      dup1\n      sload\n      tag_245\n      swap1\n      tag_104\n      jump\t// in\n    tag_245:\n      dup1\n      iszero\n      tag_246\n      jumpi\n      dup1\n      0x1f\n      lt\n      tag_247\n      jumpi\n      0x0100\n      dup1\n      dup4\n      sload\n      div\n      mul\n      dup4\n      mstore\n      swap2\n      0x20\n      add\n      swap2\n      jump(tag_246)\n    tag_247:\n      dup3\n      add\n      swap2\n      swap1\n      0x00\n      mstore\n      keccak256(0x00, 0x20)\n      swap1\n    tag_248:\n      dup2\n      sload\n      dup2\n      mstore\n      swap1\n      0x01\n      add\n      swap1\n      0x20\n      add\n      dup1\n      dup4\n      gt\n      tag_248\n      jumpi\n      dup3\n      swap1\n      sub\n      0x1f\n      and\n      dup3\n      add\n      swap2\n    tag_246:\n      pop\n      pop\n      pop\n      pop\n      pop\n      dup2\n      mstore\n      0x20\n      add\n        /* \"contracts/MarketPlace.sol\":4756:4769  randMod(1000) */\n      tag_249\n        /* \"contracts/MarketPlace.sol\":4764:4768  1000 */\n      0x03e8\n        /* \"contracts/MarketPlace.sol\":4756:4763  randMod */\n      tag_50\n        /* \"contracts/MarketPlace.sol\":4756:4769  randMod(1000) */\n      jump\t// in\n    tag_249:\n        /* \"contracts/MarketPlace.sol\":4676:4770  Product(_amount, userProducts[_shop][_id].price, userProducts[_shop][_id].name, randMod(1000)) */\n      dup2\n      mstore\n      pop\n        /* \"contracts/MarketPlace.sol\":4651:4770  Product memory newItem = Product(_amount, userProducts[_shop][_id].price, userProducts[_shop][_id].name, randMod(1000)) */\n      swap1\n      pop\n        /* \"contracts/MarketPlace.sol\":4784:4796  userProducts */\n      0x03\n        /* \"contracts/MarketPlace.sol\":4784:4808  userProducts[msg.sender] */\n      0x00\n        /* \"contracts/MarketPlace.sol\":4797:4807  msg.sender */\n      caller\n        /* \"contracts/MarketPlace.sol\":4784:4808  userProducts[msg.sender] */\n      0xffffffffffffffffffffffffffffffffffffffff\n      and\n      0xffffffffffffffffffffffffffffffffffffffff\n      and\n      dup2\n      mstore\n      0x20\n      add\n      swap1\n      dup2\n      mstore\n      0x20\n      add\n      0x00\n      keccak256\n        /* \"contracts/MarketPlace.sol\":4814:4821  newItem */\n      dup2\n        /* \"contracts/MarketPlace.sol\":4784:4822  userProducts[msg.sender].push(newItem) */\n      swap1\n      dup1\n      0x01\n      dup2\n      sload\n      add\n      dup1\n      dup3\n      sstore\n      dup1\n      swap2\n      pop\n      pop\n      0x01\n      swap1\n      sub\n      swap1\n      0x00\n      mstore\n      keccak256(0x00, 0x20)\n      swap1\n      0x04\n      mul\n      add\n      0x00\n      swap1\n      swap2\n      swap1\n      swap2\n      swap1\n      swap2\n      pop\n      0x00\n      dup3\n      add\n      mload\n      dup2\n      0x00\n      add\n      sstore\n      0x20\n      dup3\n      add\n      mload\n      dup2\n      0x01\n      add\n      sstore\n      0x40\n      dup3\n      add\n      mload\n      dup2\n      0x02\n      add\n      swap1\n      dup2\n      tag_251\n      swap2\n      swap1\n      tag_82\n      jump\t// in\n    tag_251:\n      pop\n      0x60\n      dup3\n      add\n      mload\n      dup2\n      0x03\n      add\n      sstore\n      pop\n      pop\n        /* \"contracts/MarketPlace.sol\":4568:4833  {... */\n      pop\n        /* \"contracts/MarketPlace.sol\":4548:4833  if (!productExists) {... */\n    tag_237:\n        /* \"contracts/MarketPlace.sol\":4879:4886  _amount */\n      dup4\n        /* \"contracts/MarketPlace.sol\":4843:4855  userProducts */\n      0x03\n        /* \"contracts/MarketPlace.sol\":4843:4862  userProducts[_shop] */\n      0x00\n        /* \"contracts/MarketPlace.sol\":4856:4861  _shop */\n      dup8\n        /* \"contracts/MarketPlace.sol\":4843:4862  userProducts[_shop] */\n      0xffffffffffffffffffffffffffffffffffffffff\n      and\n      0xffffffffffffffffffffffffffffffffffffffff\n      and\n      dup2\n      mstore\n      0x20\n      add\n      swap1\n      dup2\n      mstore\n      0x20\n      add\n      0x00\n      keccak256\n        /* \"contracts/MarketPlace.sol\":4863:4866  _id */\n      dup5\n        /* \"contracts/MarketPlace.sol\":4843:4867  userProducts[_shop][_id] */\n      dup2\n      sload\n      dup2\n      lt\n      tag_252\n      jumpi\n      tag_253\n      tag_101\n      jump\t// in\n    tag_253:\n    tag_252:\n      swap1\n      0x00\n      mstore\n      keccak256(0x00, 0x20)\n      swap1\n      0x04\n      mul\n      add\n        /* \"contracts/MarketPlace.sol\":4843:4875  userProducts[_shop][_id].inStock */\n      0x00\n      add\n      0x00\n        /* \"contracts/MarketPlace.sol\":4843:4886  userProducts[_shop][_id].inStock -= _amount */\n      dup3\n      dup3\n      sload\n      tag_255\n      swap2\n      swap1\n      tag_131\n      jump\t// in\n    tag_255:\n      swap3\n      pop\n      pop\n      dup2\n      swap1\n      sstore\n      pop\n        /* \"contracts/MarketPlace.sol\":4913:4923  totalPrice */\n      dup2\n        /* \"contracts/MarketPlace.sol\":4901:4910  msg.value */\n      callvalue\n        /* \"contracts/MarketPlace.sol\":4901:4923  msg.value > totalPrice */\n      gt\n        /* \"contracts/MarketPlace.sol\":4897:5036  if (msg.value > totalPrice) {... */\n      iszero\n      tag_256\n      jumpi\n        /* \"contracts/MarketPlace.sol\":4939:4950  uint change */\n      0x00\n        /* \"contracts/MarketPlace.sol\":4965:4975  totalPrice */\n      dup3\n        /* \"contracts/MarketPlace.sol\":4953:4962  msg.value */\n      callvalue\n        /* \"contracts/MarketPlace.sol\":4953:4975  msg.value - totalPrice */\n      tag_257\n      swap2\n      swap1\n      tag_131\n      jump\t// in\n    tag_257:\n        /* \"contracts/MarketPlace.sol\":4939:4975  uint change = msg.value - totalPrice */\n      swap1\n      pop\n        /* \"contracts/MarketPlace.sol\":4997:5007  msg.sender */\n      caller\n        /* \"contracts/MarketPlace.sol\":4989:5017  payable(msg.sender).transfer */\n      0xffffffffffffffffffffffffffffffffffffffff\n      and\n        /* \"contracts/MarketPlace.sol\":4989:5025  payable(msg.sender).transfer(change) */\n      0x08fc\n        /* \"contracts/MarketPlace.sol\":5018:5024  change */\n      dup3\n        /* \"contracts/MarketPlace.sol\":4989:5025  payable(msg.sender).transfer(change) */\n      swap1\n      dup2\n      iszero\n      mul\n      swap1\n      mload(0x40)\n      0x00\n      mload(0x40)\n      dup1\n      dup4\n      sub\n      dup2\n      dup6\n      dup9\n      dup9\n      call\n      swap4\n      pop\n      pop\n      pop\n      pop\n      iszero\n      dup1\n      iszero\n      tag_259\n      jumpi\n      returndatasize\n      0x00\n      dup1\n      returndatacopy\n      revert(0x00, returndatasize)\n    tag_259:\n      pop\n        /* \"contracts/MarketPlace.sol\":4925:5036  {... */\n      pop\n        /* \"contracts/MarketPlace.sol\":4897:5036  if (msg.value > totalPrice) {... */\n    tag_256:\n        /* \"contracts/MarketPlace.sol\":5054:5066  uint balance */\n      0x00\n        /* \"contracts/MarketPlace.sol\":5069:5090  address(this).balance */\n      selfbalance\n        /* \"contracts/MarketPlace.sol\":5054:5090  uint balance = address(this).balance */\n      swap1\n      pop\n        /* \"contracts/MarketPlace.sol\":5108:5113  _shop */\n      dup6\n        /* \"contracts/MarketPlace.sol\":5100:5123  payable(_shop).transfer */\n      0xffffffffffffffffffffffffffffffffffffffff\n      and\n        /* \"contracts/MarketPlace.sol\":5100:5132  payable(_shop).transfer(balance) */\n      0x08fc\n        /* \"contracts/MarketPlace.sol\":5124:5131  balance */\n      dup3\n        /* \"contracts/MarketPlace.sol\":5100:5132  payable(_shop).transfer(balance) */\n      swap1\n      dup2\n      iszero\n      mul\n      swap1\n      mload(0x40)\n      0x00\n      mload(0x40)\n      dup1\n      dup4\n      sub\n      dup2\n      dup6\n      dup9\n      dup9\n      call\n      swap4\n      pop\n      pop\n      pop\n      pop\n      iszero\n      dup1\n      iszero\n      tag_261\n      jumpi\n      returndatasize\n      0x00\n      dup1\n      returndatacopy\n      revert(0x00, returndatasize)\n    tag_261:\n      pop\n        /* \"contracts/MarketPlace.sol\":3409:5143  {... */\n      pop\n      pop\n      pop\n        /* \"contracts/MarketPlace.sol\":3337:5143  function purchase(address _shop, uint _amount, uint _id) public payable {... */\n      pop\n      pop\n      pop\n      jump\t// out\n        /* \"contracts/MarketPlace.sol\":551:588  mapping(address => User) public users */\n    tag_64:\n      mstore(0x20, 0x02)\n      dup1\n      0x00\n      mstore\n      keccak256(0x00, 0x40)\n      0x00\n      swap2\n      pop\n      swap1\n      pop\n      dup1\n      0x00\n      add\n      0x00\n      swap1\n      sload\n      swap1\n      0x0100\n      exp\n      swap1\n      div\n      0xff\n      and\n      swap1\n      pop\n      dup2\n      jump\t// out\n    tag_179:\n      pop\n      dup1\n      sload\n      tag_262\n      swap1\n      tag_104\n      jump\t// in\n    tag_262:\n      0x00\n      dup3\n      sstore\n      dup1\n      0x1f\n      lt\n      tag_264\n      jumpi\n      pop\n      jump(tag_263)\n    tag_264:\n      0x1f\n      add\n      0x20\n      swap1\n      div\n      swap1\n      0x00\n      mstore\n      keccak256(0x00, 0x20)\n      swap1\n      dup2\n      add\n      swap1\n      tag_265\n      swap2\n      swap1\n      tag_266\n      jump\t// in\n    tag_265:\n    tag_263:\n      pop\n      jump\t// out\n    tag_266:\n    tag_267:\n      dup1\n      dup3\n      gt\n      iszero\n      tag_268\n      jumpi\n      0x00\n      dup2\n      0x00\n      swap1\n      sstore\n      pop\n      0x01\n      add\n      jump(tag_267)\n    tag_268:\n      pop\n      swap1\n      jump\t// out\n        /* \"#utility.yul\":88:205   */\n    tag_270:\n        /* \"#utility.yul\":197:198   */\n      0x00\n        /* \"#utility.yul\":194:195   */\n      dup1\n        /* \"#utility.yul\":187:199   */\n      revert\n        /* \"#utility.yul\":211:328   */\n    tag_271:\n        /* \"#utility.yul\":320:321   */\n      0x00\n        /* \"#utility.yul\":317:318   */\n      dup1\n        /* \"#utility.yul\":310:322   */\n      revert\n        /* \"#utility.yul\":334:460   */\n    tag_272:\n        /* \"#utility.yul\":371:378   */\n      0x00\n        /* \"#utility.yul\":411:453   */\n      0xffffffffffffffffffffffffffffffffffffffff\n        /* \"#utility.yul\":404:409   */\n      dup3\n        /* \"#utility.yul\":400:454   */\n      and\n        /* \"#utility.yul\":389:454   */\n      swap1\n      pop\n        /* \"#utility.yul\":334:460   */\n      swap2\n      swap1\n      pop\n      jump\t// out\n        /* \"#utility.yul\":466:562   */\n    tag_273:\n        /* \"#utility.yul\":503:510   */\n      0x00\n        /* \"#utility.yul\":532:556   */\n      tag_340\n        /* \"#utility.yul\":550:555   */\n      dup3\n        /* \"#utility.yul\":532:556   */\n      tag_272\n      jump\t// in\n    tag_340:\n        /* \"#utility.yul\":521:556   */\n      swap1\n      pop\n        /* \"#utility.yul\":466:562   */\n      swap2\n      swap1\n      pop\n      jump\t// out\n        /* \"#utility.yul\":568:690   */\n    tag_274:\n        /* \"#utility.yul\":641:665   */\n      tag_342\n        /* \"#utility.yul\":659:664   */\n      dup2\n        /* \"#utility.yul\":641:665   */\n      tag_273\n      jump\t// in\n    tag_342:\n        /* \"#utility.yul\":634:639   */\n      dup2\n        /* \"#utility.yul\":631:666   */\n      eq\n        /* \"#utility.yul\":621:684   */\n      tag_343\n      jumpi\n        /* \"#utility.yul\":680:681   */\n      0x00\n        /* \"#utility.yul\":677:678   */\n      dup1\n        /* \"#utility.yul\":670:682   */\n      revert\n        /* \"#utility.yul\":621:684   */\n    tag_343:\n        /* \"#utility.yul\":568:690   */\n      pop\n      jump\t// out\n        /* \"#utility.yul\":696:835   */\n    tag_275:\n        /* \"#utility.yul\":742:747   */\n      0x00\n        /* \"#utility.yul\":780:786   */\n      dup2\n        /* \"#utility.yul\":767:787   */\n      calldataload\n        /* \"#utility.yul\":758:787   */\n      swap1\n      pop\n        /* \"#utility.yul\":796:829   */\n      tag_345\n        /* \"#utility.yul\":823:828   */\n      dup2\n        /* \"#utility.yul\":796:829   */\n      tag_274\n      jump\t// in\n    tag_345:\n        /* \"#utility.yul\":696:835   */\n      swap3\n      swap2\n      pop\n      pop\n      jump\t// out\n        /* \"#utility.yul\":841:918   */\n    tag_276:\n        /* \"#utility.yul\":878:885   */\n      0x00\n        /* \"#utility.yul\":907:912   */\n      dup2\n        /* \"#utility.yul\":896:912   */\n      swap1\n      pop\n        /* \"#utility.yul\":841:918   */\n      swap2\n      swap1\n      pop\n      jump\t// out\n        /* \"#utility.yul\":924:1046   */\n    tag_277:\n        /* \"#utility.yul\":997:1021   */\n      tag_348\n        /* \"#utility.yul\":1015:1020   */\n      dup2\n        /* \"#utility.yul\":997:1021   */\n      tag_276\n      jump\t// in\n    tag_348:\n        /* \"#utility.yul\":990:995   */\n      dup2\n        /* \"#utility.yul\":987:1022   */\n      eq\n        /* \"#utility.yul\":977:1040   */\n      tag_349\n      jumpi\n        /* \"#utility.yul\":1036:1037   */\n      0x00\n        /* \"#utility.yul\":1033:1034   */\n      dup1\n        /* \"#utility.yul\":1026:1038   */\n      revert\n        /* \"#utility.yul\":977:1040   */\n    tag_349:\n        /* \"#utility.yul\":924:1046   */\n      pop\n      jump\t// out\n        /* \"#utility.yul\":1052:1191   */\n    tag_278:\n        /* \"#utility.yul\":1098:1103   */\n      0x00\n        /* \"#utility.yul\":1136:1142   */\n      dup2\n        /* \"#utility.yul\":1123:1143   */\n      calldataload\n        /* \"#utility.yul\":1114:1143   */\n      swap1\n      pop\n        /* \"#utility.yul\":1152:1185   */\n      tag_351\n        /* \"#utility.yul\":1179:1184   */\n      dup2\n        /* \"#utility.yul\":1152:1185   */\n      tag_277\n      jump\t// in\n    tag_351:\n        /* \"#utility.yul\":1052:1191   */\n      swap3\n      swap2\n      pop\n      pop\n      jump\t// out\n        /* \"#utility.yul\":1197:1314   */\n    tag_279:\n        /* \"#utility.yul\":1306:1307   */\n      0x00\n        /* \"#utility.yul\":1303:1304   */\n      dup1\n        /* \"#utility.yul\":1296:1308   */\n      revert\n        /* \"#utility.yul\":1320:1437   */\n    tag_280:\n        /* \"#utility.yul\":1429:1430   */\n      0x00\n        /* \"#utility.yul\":1426:1427   */\n      dup1\n        /* \"#utility.yul\":1419:1431   */\n      revert\n        /* \"#utility.yul\":1443:1560   */\n    tag_281:\n        /* \"#utility.yul\":1552:1553   */\n      0x00\n        /* \"#utility.yul\":1549:1550   */\n      dup1\n        /* \"#utility.yul\":1542:1554   */\n      revert\n        /* \"#utility.yul\":1580:2133   */\n    tag_282:\n        /* \"#utility.yul\":1638:1646   */\n      0x00\n        /* \"#utility.yul\":1648:1654   */\n      dup1\n        /* \"#utility.yul\":1698:1701   */\n      dup4\n        /* \"#utility.yul\":1691:1695   */\n      0x1f\n        /* \"#utility.yul\":1683:1689   */\n      dup5\n        /* \"#utility.yul\":1679:1696   */\n      add\n        /* \"#utility.yul\":1675:1702   */\n      slt\n        /* \"#utility.yul\":1665:1787   */\n      tag_356\n      jumpi\n        /* \"#utility.yul\":1706:1785   */\n      tag_357\n      tag_279\n      jump\t// in\n    tag_357:\n        /* \"#utility.yul\":1665:1787   */\n    tag_356:\n        /* \"#utility.yul\":1819:1825   */\n      dup3\n        /* \"#utility.yul\":1806:1826   */\n      calldataload\n        /* \"#utility.yul\":1796:1826   */\n      swap1\n      pop\n        /* \"#utility.yul\":1849:1867   */\n      0xffffffffffffffff\n        /* \"#utility.yul\":1841:1847   */\n      dup2\n        /* \"#utility.yul\":1838:1868   */\n      gt\n        /* \"#utility.yul\":1835:1952   */\n      iszero\n      tag_358\n      jumpi\n        /* \"#utility.yul\":1871:1950   */\n      tag_359\n      tag_280\n      jump\t// in\n    tag_359:\n        /* \"#utility.yul\":1835:1952   */\n    tag_358:\n        /* \"#utility.yul\":1985:1989   */\n      0x20\n        /* \"#utility.yul\":1977:1983   */\n      dup4\n        /* \"#utility.yul\":1973:1990   */\n      add\n        /* \"#utility.yul\":1961:1990   */\n      swap2\n      pop\n        /* \"#utility.yul\":2039:2042   */\n      dup4\n        /* \"#utility.yul\":2031:2035   */\n      0x01\n        /* \"#utility.yul\":2023:2029   */\n      dup3\n        /* \"#utility.yul\":2019:2036   */\n      mul\n        /* \"#utility.yul\":2009:2017   */\n      dup4\n        /* \"#utility.yul\":2005:2037   */\n      add\n        /* \"#utility.yul\":2002:2043   */\n      gt\n        /* \"#utility.yul\":1999:2127   */\n      iszero\n      tag_360\n      jumpi\n        /* \"#utility.yul\":2046:2125   */\n      tag_361\n      tag_281\n      jump\t// in\n    tag_361:\n        /* \"#utility.yul\":1999:2127   */\n    tag_360:\n        /* \"#utility.yul\":1580:2133   */\n      swap3\n      pop\n      swap3\n      swap1\n      pop\n      jump\t// out\n        /* \"#utility.yul\":2139:3250   */\n    tag_17:\n        /* \"#utility.yul\":2246:2252   */\n      0x00\n        /* \"#utility.yul\":2254:2260   */\n      dup1\n        /* \"#utility.yul\":2262:2268   */\n      0x00\n        /* \"#utility.yul\":2270:2276   */\n      dup1\n        /* \"#utility.yul\":2278:2284   */\n      0x00\n        /* \"#utility.yul\":2286:2292   */\n      dup1\n        /* \"#utility.yul\":2335:2338   */\n      0xa0\n        /* \"#utility.yul\":2323:2332   */\n      dup8\n        /* \"#utility.yul\":2314:2321   */\n      dup10\n        /* \"#utility.yul\":2310:2333   */\n      sub\n        /* \"#utility.yul\":2306:2339   */\n      slt\n        /* \"#utility.yul\":2303:2423   */\n      iszero\n      tag_363\n      jumpi\n        /* \"#utility.yul\":2342:2421   */\n      tag_364\n      tag_270\n      jump\t// in\n    tag_364:\n        /* \"#utility.yul\":2303:2423   */\n    tag_363:\n        /* \"#utility.yul\":2462:2463   */\n      0x00\n        /* \"#utility.yul\":2487:2540   */\n      tag_365\n        /* \"#utility.yul\":2532:2539   */\n      dup10\n        /* \"#utility.yul\":2523:2529   */\n      dup3\n        /* \"#utility.yul\":2512:2521   */\n      dup11\n        /* \"#utility.yul\":2508:2530   */\n      add\n        /* \"#utility.yul\":2487:2540   */\n      tag_275\n      jump\t// in\n    tag_365:\n        /* \"#utility.yul\":2477:2540   */\n      swap7\n      pop\n        /* \"#utility.yul\":2433:2550   */\n      pop\n        /* \"#utility.yul\":2589:2591   */\n      0x20\n        /* \"#utility.yul\":2615:2668   */\n      tag_366\n        /* \"#utility.yul\":2660:2667   */\n      dup10\n        /* \"#utility.yul\":2651:2657   */\n      dup3\n        /* \"#utility.yul\":2640:2649   */\n      dup11\n        /* \"#utility.yul\":2636:2658   */\n      add\n        /* \"#utility.yul\":2615:2668   */\n      tag_278\n      jump\t// in\n    tag_366:\n        /* \"#utility.yul\":2605:2668   */\n      swap6\n      pop\n        /* \"#utility.yul\":2560:2678   */\n      pop\n        /* \"#utility.yul\":2717:2719   */\n      0x40\n        /* \"#utility.yul\":2743:2796   */\n      tag_367\n        /* \"#utility.yul\":2788:2795   */\n      dup10\n        /* \"#utility.yul\":2779:2785   */\n      dup3\n        /* \"#utility.yul\":2768:2777   */\n      dup11\n        /* \"#utility.yul\":2764:2786   */\n      add\n        /* \"#utility.yul\":2743:2796   */\n      tag_278\n      jump\t// in\n    tag_367:\n        /* \"#utility.yul\":2733:2796   */\n      swap5\n      pop\n        /* \"#utility.yul\":2688:2806   */\n      pop\n        /* \"#utility.yul\":2873:2875   */\n      0x60\n        /* \"#utility.yul\":2862:2871   */\n      dup8\n        /* \"#utility.yul\":2858:2876   */\n      add\n        /* \"#utility.yul\":2845:2877   */\n      calldataload\n        /* \"#utility.yul\":2904:2922   */\n      0xffffffffffffffff\n        /* \"#utility.yul\":2896:2902   */\n      dup2\n        /* \"#utility.yul\":2893:2923   */\n      gt\n        /* \"#utility.yul\":2890:3007   */\n      iszero\n      tag_368\n      jumpi\n        /* \"#utility.yul\":2926:3005   */\n      tag_369\n      tag_271\n      jump\t// in\n    tag_369:\n        /* \"#utility.yul\":2890:3007   */\n    tag_368:\n        /* \"#utility.yul\":3039:3104   */\n      tag_370\n        /* \"#utility.yul\":3096:3103   */\n      dup10\n        /* \"#utility.yul\":3087:3093   */\n      dup3\n        /* \"#utility.yul\":3076:3085   */\n      dup11\n        /* \"#utility.yul\":3072:3094   */\n      add\n        /* \"#utility.yul\":3039:3104   */\n      tag_282\n      jump\t// in\n    tag_370:\n        /* \"#utility.yul\":3021:3104   */\n      swap4\n      pop\n      swap4\n      pop\n        /* \"#utility.yul\":2816:3114   */\n      pop\n        /* \"#utility.yul\":3153:3156   */\n      0x80\n        /* \"#utility.yul\":3180:3233   */\n      tag_371\n        /* \"#utility.yul\":3225:3232   */\n      dup10\n        /* \"#utility.yul\":3216:3222   */\n      dup3\n        /* \"#utility.yul\":3205:3214   */\n      dup11\n        /* \"#utility.yul\":3201:3223   */\n      add\n        /* \"#utility.yul\":3180:3233   */\n      tag_278\n      jump\t// in\n    tag_371:\n        /* \"#utility.yul\":3170:3233   */\n      swap2\n      pop\n        /* \"#utility.yul\":3124:3243   */\n      pop\n        /* \"#utility.yul\":2139:3250   */\n      swap3\n      swap6\n      pop\n      swap3\n      swap6\n      pop\n      swap3\n      swap6\n      jump\t// out\n        /* \"#utility.yul\":3256:3875   */\n    tag_21:\n        /* \"#utility.yul\":3333:3339   */\n      0x00\n        /* \"#utility.yul\":3341:3347   */\n      dup1\n        /* \"#utility.yul\":3349:3355   */\n      0x00\n        /* \"#utility.yul\":3398:3400   */\n      0x60\n        /* \"#utility.yul\":3386:3395   */\n      dup5\n        /* \"#utility.yul\":3377:3384   */\n      dup7\n        /* \"#utility.yul\":3373:3396   */\n      sub\n        /* \"#utility.yul\":3369:3401   */\n      slt\n        /* \"#utility.yul\":3366:3485   */\n      iszero\n      tag_373\n      jumpi\n        /* \"#utility.yul\":3404:3483   */\n      tag_374\n      tag_270\n      jump\t// in\n    tag_374:\n        /* \"#utility.yul\":3366:3485   */\n    tag_373:\n        /* \"#utility.yul\":3524:3525   */\n      0x00\n        /* \"#utility.yul\":3549:3602   */\n      tag_375\n        /* \"#utility.yul\":3594:3601   */\n      dup7\n        /* \"#utility.yul\":3585:3591   */\n      dup3\n        /* \"#utility.yul\":3574:3583   */\n      dup8\n        /* \"#utility.yul\":3570:3592   */\n      add\n        /* \"#utility.yul\":3549:3602   */\n      tag_275\n      jump\t// in\n    tag_375:\n        /* \"#utility.yul\":3539:3602   */\n      swap4\n      pop\n        /* \"#utility.yul\":3495:3612   */\n      pop\n        /* \"#utility.yul\":3651:3653   */\n      0x20\n        /* \"#utility.yul\":3677:3730   */\n      tag_376\n        /* \"#utility.yul\":3722:3729   */\n      dup7\n        /* \"#utility.yul\":3713:3719   */\n      dup3\n        /* \"#utility.yul\":3702:3711   */\n      dup8\n        /* \"#utility.yul\":3698:3720   */\n      add\n        /* \"#utility.yul\":3677:3730   */\n      tag_278\n      jump\t// in\n    tag_376:\n        /* \"#utility.yul\":3667:3730   */\n      swap3\n      pop\n        /* \"#utility.yul\":3622:3740   */\n      pop\n        /* \"#utility.yul\":3779:3781   */\n      0x40\n        /* \"#utility.yul\":3805:3858   */\n      tag_377\n        /* \"#utility.yul\":3850:3857   */\n      dup7\n        /* \"#utility.yul\":3841:3847   */\n      dup3\n        /* \"#utility.yul\":3830:3839   */\n      dup8\n        /* \"#utility.yul\":3826:3848   */\n      add\n        /* \"#utility.yul\":3805:3858   */\n      tag_278\n      jump\t// in\n    tag_377:\n        /* \"#utility.yul\":3795:3858   */\n      swap2\n      pop\n        /* \"#utility.yul\":3750:3868   */\n      pop\n        /* \"#utility.yul\":3256:3875   */\n      swap3\n      pop\n      swap3\n      pop\n      swap3\n      jump\t// out\n        /* \"#utility.yul\":3881:4846   */\n    tag_26:\n        /* \"#utility.yul\":3979:3985   */\n      0x00\n        /* \"#utility.yul\":3987:3993   */\n      dup1\n        /* \"#utility.yul\":3995:4001   */\n      0x00\n        /* \"#utility.yul\":4003:4009   */\n      dup1\n        /* \"#utility.yul\":4011:4017   */\n      0x00\n        /* \"#utility.yul\":4060:4063   */\n      0x80\n        /* \"#utility.yul\":4048:4057   */\n      dup7\n        /* \"#utility.yul\":4039:4046   */\n      dup9\n        /* \"#utility.yul\":4035:4058   */\n      sub\n        /* \"#utility.yul\":4031:4064   */\n      slt\n        /* \"#utility.yul\":4028:4148   */\n      iszero\n      tag_379\n      jumpi\n        /* \"#utility.yul\":4067:4146   */\n      tag_380\n      tag_270\n      jump\t// in\n    tag_380:\n        /* \"#utility.yul\":4028:4148   */\n    tag_379:\n        /* \"#utility.yul\":4187:4188   */\n      0x00\n        /* \"#utility.yul\":4212:4265   */\n      tag_381\n        /* \"#utility.yul\":4257:4264   */\n      dup9\n        /* \"#utility.yul\":4248:4254   */\n      dup3\n        /* \"#utility.yul\":4237:4246   */\n      dup10\n        /* \"#utility.yul\":4233:4255   */\n      add\n        /* \"#utility.yul\":4212:4265   */\n      tag_278\n      jump\t// in\n    tag_381:\n        /* \"#utility.yul\":4202:4265   */\n      swap6\n      pop\n        /* \"#utility.yul\":4158:4275   */\n      pop\n        /* \"#utility.yul\":4314:4316   */\n      0x20\n        /* \"#utility.yul\":4340:4393   */\n      tag_382\n        /* \"#utility.yul\":4385:4392   */\n      dup9\n        /* \"#utility.yul\":4376:4382   */\n      dup3\n        /* \"#utility.yul\":4365:4374   */\n      dup10\n        /* \"#utility.yul\":4361:4383   */\n      add\n        /* \"#utility.yul\":4340:4393   */\n      tag_278\n      jump\t// in\n    tag_382:\n        /* \"#utility.yul\":4330:4393   */\n      swap5\n      pop\n        /* \"#utility.yul\":4285:4403   */\n      pop\n        /* \"#utility.yul\":4470:4472   */\n      0x40\n        /* \"#utility.yul\":4459:4468   */\n      dup7\n        /* \"#utility.yul\":4455:4473   */\n      add\n        /* \"#utility.yul\":4442:4474   */\n      calldataload\n        /* \"#utility.yul\":4501:4519   */\n      0xffffffffffffffff\n        /* \"#utility.yul\":4493:4499   */\n      dup2\n        /* \"#utility.yul\":4490:4520   */\n      gt\n        /* \"#utility.yul\":4487:4604   */\n      iszero\n      tag_383\n      jumpi\n        /* \"#utility.yul\":4523:4602   */\n      tag_384\n      tag_271\n      jump\t// in\n    tag_384:\n        /* \"#utility.yul\":4487:4604   */\n    tag_383:\n        /* \"#utility.yul\":4636:4701   */\n      tag_385\n        /* \"#utility.yul\":4693:4700   */\n      dup9\n        /* \"#utility.yul\":4684:4690   */\n      dup3\n        /* \"#utility.yul\":4673:4682   */\n      dup10\n        /* \"#utility.yul\":4669:4691   */\n      add\n        /* \"#utility.yul\":4636:4701   */\n      tag_282\n      jump\t// in\n    tag_385:\n        /* \"#utility.yul\":4618:4701   */\n      swap4\n      pop\n      swap4\n      pop\n        /* \"#utility.yul\":4413:4711   */\n      pop\n        /* \"#utility.yul\":4750:4752   */\n      0x60\n        /* \"#utility.yul\":4776:4829   */\n      tag_386\n        /* \"#utility.yul\":4821:4828   */\n      dup9\n        /* \"#utility.yul\":4812:4818   */\n      dup3\n        /* \"#utility.yul\":4801:4810   */\n      dup10\n        /* \"#utility.yul\":4797:4819   */\n      add\n        /* \"#utility.yul\":4776:4829   */\n      tag_278\n      jump\t// in\n    tag_386:\n        /* \"#utility.yul\":4766:4829   */\n      swap2\n      pop\n        /* \"#utility.yul\":4721:4839   */\n      pop\n        /* \"#utility.yul\":3881:4846   */\n      swap3\n      swap6\n      pop\n      swap3\n      swap6\n      swap1\n      swap4\n      pop\n      jump\t// out\n        /* \"#utility.yul\":4852:4970   */\n    tag_283:\n        /* \"#utility.yul\":4939:4963   */\n      tag_388\n        /* \"#utility.yul\":4957:4962   */\n      dup2\n        /* \"#utility.yul\":4939:4963   */\n      tag_273\n      jump\t// in\n    tag_388:\n        /* \"#utility.yul\":4934:4937   */\n      dup3\n        /* \"#utility.yul\":4927:4964   */\n      mstore\n        /* \"#utility.yul\":4852:4970   */\n      pop\n      pop\n      jump\t// out\n        /* \"#utility.yul\":4976:5198   */\n    tag_32:\n        /* \"#utility.yul\":5069:5073   */\n      0x00\n        /* \"#utility.yul\":5107:5109   */\n      0x20\n        /* \"#utility.yul\":5096:5105   */\n      dup3\n        /* \"#utility.yul\":5092:5110   */\n      add\n        /* \"#utility.yul\":5084:5110   */\n      swap1\n      pop\n        /* \"#utility.yul\":5120:5191   */\n      tag_390\n        /* \"#utility.yul\":5188:5189   */\n      0x00\n        /* \"#utility.yul\":5177:5186   */\n      dup4\n        /* \"#utility.yul\":5173:5190   */\n      add\n        /* \"#utility.yul\":5164:5170   */\n      dup5\n        /* \"#utility.yul\":5120:5191   */\n      tag_283\n      jump\t// in\n    tag_390:\n        /* \"#utility.yul\":4976:5198   */\n      swap3\n      swap2\n      pop\n      pop\n      jump\t// out\n        /* \"#utility.yul\":5204:5678   */\n    tag_36:\n        /* \"#utility.yul\":5272:5278   */\n      0x00\n        /* \"#utility.yul\":5280:5286   */\n      dup1\n        /* \"#utility.yul\":5329:5331   */\n      0x40\n        /* \"#utility.yul\":5317:5326   */\n      dup4\n        /* \"#utility.yul\":5308:5315   */\n      dup6\n        /* \"#utility.yul\":5304:5327   */\n      sub\n        /* \"#utility.yul\":5300:5332   */\n      slt\n        /* \"#utility.yul\":5297:5416   */\n      iszero\n      tag_392\n      jumpi\n        /* \"#utility.yul\":5335:5414   */\n      tag_393\n      tag_270\n      jump\t// in\n    tag_393:\n        /* \"#utility.yul\":5297:5416   */\n    tag_392:\n        /* \"#utility.yul\":5455:5456   */\n      0x00\n        /* \"#utility.yul\":5480:5533   */\n      tag_394\n        /* \"#utility.yul\":5525:5532   */\n      dup6\n        /* \"#utility.yul\":5516:5522   */\n      dup3\n        /* \"#utility.yul\":5505:5514   */\n      dup7\n        /* \"#utility.yul\":5501:5523   */\n      add\n        /* \"#utility.yul\":5480:5533   */\n      tag_275\n      jump\t// in\n    tag_394:\n        /* \"#utility.yul\":5470:5533   */\n      swap3\n      pop\n        /* \"#utility.yul\":5426:5543   */\n      pop\n        /* \"#utility.yul\":5582:5584   */\n      0x20\n        /* \"#utility.yul\":5608:5661   */\n      tag_395\n        /* \"#utility.yul\":5653:5660   */\n      dup6\n        /* \"#utility.yul\":5644:5650   */\n      dup3\n        /* \"#utility.yul\":5633:5642   */\n      dup7\n        /* \"#utility.yul\":5629:5651   */\n      add\n        /* \"#utility.yul\":5608:5661   */\n      tag_278\n      jump\t// in\n    tag_395:\n        /* \"#utility.yul\":5598:5661   */\n      swap2\n      pop\n        /* \"#utility.yul\":5553:5671   */\n      pop\n        /* \"#utility.yul\":5204:5678   */\n      swap3\n      pop\n      swap3\n      swap1\n      pop\n      jump\t// out\n        /* \"#utility.yul\":5684:5802   */\n    tag_284:\n        /* \"#utility.yul\":5771:5795   */\n      tag_397\n        /* \"#utility.yul\":5789:5794   */\n      dup2\n        /* \"#utility.yul\":5771:5795   */\n      tag_276\n      jump\t// in\n    tag_397:\n        /* \"#utility.yul\":5766:5769   */\n      dup3\n        /* \"#utility.yul\":5759:5796   */\n      mstore\n        /* \"#utility.yul\":5684:5802   */\n      pop\n      pop\n      jump\t// out\n        /* \"#utility.yul\":5808:5907   */\n    tag_285:\n        /* \"#utility.yul\":5860:5866   */\n      0x00\n        /* \"#utility.yul\":5894:5899   */\n      dup2\n        /* \"#utility.yul\":5888:5900   */\n      mload\n        /* \"#utility.yul\":5878:5900   */\n      swap1\n      pop\n        /* \"#utility.yul\":5808:5907   */\n      swap2\n      swap1\n      pop\n      jump\t// out\n        /* \"#utility.yul\":5913:6082   */\n    tag_286:\n        /* \"#utility.yul\":5997:6008   */\n      0x00\n        /* \"#utility.yul\":6031:6037   */\n      dup3\n        /* \"#utility.yul\":6026:6029   */\n      dup3\n        /* \"#utility.yul\":6019:6038   */\n      mstore\n        /* \"#utility.yul\":6071:6075   */\n      0x20\n        /* \"#utility.yul\":6066:6069   */\n      dup3\n        /* \"#utility.yul\":6062:6076   */\n      add\n        /* \"#utility.yul\":6047:6076   */\n      swap1\n      pop\n        /* \"#utility.yul\":5913:6082   */\n      swap3\n      swap2\n      pop\n      pop\n      jump\t// out\n        /* \"#utility.yul\":6088:6334   */\n    tag_287:\n        /* \"#utility.yul\":6169:6170   */\n      0x00\n        /* \"#utility.yul\":6179:6292   */\n    tag_401:\n        /* \"#utility.yul\":6193:6199   */\n      dup4\n        /* \"#utility.yul\":6190:6191   */\n      dup2\n        /* \"#utility.yul\":6187:6200   */\n      lt\n        /* \"#utility.yul\":6179:6292   */\n      iszero\n      tag_403\n      jumpi\n        /* \"#utility.yul\":6278:6279   */\n      dup1\n        /* \"#utility.yul\":6273:6276   */\n      dup3\n        /* \"#utility.yul\":6269:6280   */\n      add\n        /* \"#utility.yul\":6263:6281   */\n      mload\n        /* \"#utility.yul\":6259:6260   */\n      dup2\n        /* \"#utility.yul\":6254:6257   */\n      dup5\n        /* \"#utility.yul\":6250:6261   */\n      add\n        /* \"#utility.yul\":6243:6282   */\n      mstore\n        /* \"#utility.yul\":6215:6217   */\n      0x20\n        /* \"#utility.yul\":6212:6213   */\n      dup2\n        /* \"#utility.yul\":6208:6218   */\n      add\n        /* \"#utility.yul\":6203:6218   */\n      swap1\n      pop\n        /* \"#utility.yul\":6179:6292   */\n      jump(tag_401)\n    tag_403:\n        /* \"#utility.yul\":6326:6327   */\n      0x00\n        /* \"#utility.yul\":6317:6323   */\n      dup5\n        /* \"#utility.yul\":6312:6315   */\n      dup5\n        /* \"#utility.yul\":6308:6324   */\n      add\n        /* \"#utility.yul\":6301:6328   */\n      mstore\n        /* \"#utility.yul\":6150:6334   */\n      pop\n        /* \"#utility.yul\":6088:6334   */\n      pop\n      pop\n      pop\n      jump\t// out\n        /* \"#utility.yul\":6340:6442   */\n    tag_288:\n        /* \"#utility.yul\":6381:6387   */\n      0x00\n        /* \"#utility.yul\":6432:6434   */\n      0x1f\n        /* \"#utility.yul\":6428:6435   */\n      not\n        /* \"#utility.yul\":6423:6425   */\n      0x1f\n        /* \"#utility.yul\":6416:6421   */\n      dup4\n        /* \"#utility.yul\":6412:6426   */\n      add\n        /* \"#utility.yul\":6408:6436   */\n      and\n        /* \"#utility.yul\":6398:6436   */\n      swap1\n      pop\n        /* \"#utility.yul\":6340:6442   */\n      swap2\n      swap1\n      pop\n      jump\t// out\n        /* \"#utility.yul\":6448:6825   */\n    tag_289:\n        /* \"#utility.yul\":6536:6539   */\n      0x00\n        /* \"#utility.yul\":6564:6603   */\n      tag_406\n        /* \"#utility.yul\":6597:6602   */\n      dup3\n        /* \"#utility.yul\":6564:6603   */\n      tag_285\n      jump\t// in\n    tag_406:\n        /* \"#utility.yul\":6619:6690   */\n      tag_407\n        /* \"#utility.yul\":6683:6689   */\n      dup2\n        /* \"#utility.yul\":6678:6681   */\n      dup6\n        /* \"#utility.yul\":6619:6690   */\n      tag_286\n      jump\t// in\n    tag_407:\n        /* \"#utility.yul\":6612:6690   */\n      swap4\n      pop\n        /* \"#utility.yul\":6699:6764   */\n      tag_408\n        /* \"#utility.yul\":6757:6763   */\n      dup2\n        /* \"#utility.yul\":6752:6755   */\n      dup6\n        /* \"#utility.yul\":6745:6749   */\n      0x20\n        /* \"#utility.yul\":6738:6743   */\n      dup7\n        /* \"#utility.yul\":6734:6750   */\n      add\n        /* \"#utility.yul\":6699:6764   */\n      tag_287\n      jump\t// in\n    tag_408:\n        /* \"#utility.yul\":6789:6818   */\n      tag_409\n        /* \"#utility.yul\":6811:6817   */\n      dup2\n        /* \"#utility.yul\":6789:6818   */\n      tag_288\n      jump\t// in\n    tag_409:\n        /* \"#utility.yul\":6784:6787   */\n      dup5\n        /* \"#utility.yul\":6780:6819   */\n      add\n        /* \"#utility.yul\":6773:6819   */\n      swap2\n      pop\n        /* \"#utility.yul\":6540:6825   */\n      pop\n        /* \"#utility.yul\":6448:6825   */\n      swap3\n      swap2\n      pop\n      pop\n      jump\t// out\n        /* \"#utility.yul\":6831:7475   */\n    tag_39:\n        /* \"#utility.yul\":7028:7032   */\n      0x00\n        /* \"#utility.yul\":7066:7069   */\n      0x80\n        /* \"#utility.yul\":7055:7064   */\n      dup3\n        /* \"#utility.yul\":7051:7070   */\n      add\n        /* \"#utility.yul\":7043:7070   */\n      swap1\n      pop\n        /* \"#utility.yul\":7080:7151   */\n      tag_411\n        /* \"#utility.yul\":7148:7149   */\n      0x00\n        /* \"#utility.yul\":7137:7146   */\n      dup4\n        /* \"#utility.yul\":7133:7150   */\n      add\n        /* \"#utility.yul\":7124:7130   */\n      dup8\n        /* \"#utility.yul\":7080:7151   */\n      tag_284\n      jump\t// in\n    tag_411:\n        /* \"#utility.yul\":7161:7233   */\n      tag_412\n        /* \"#utility.yul\":7229:7231   */\n      0x20\n        /* \"#utility.yul\":7218:7227   */\n      dup4\n        /* \"#utility.yul\":7214:7232   */\n      add\n        /* \"#utility.yul\":7205:7211   */\n      dup7\n        /* \"#utility.yul\":7161:7233   */\n      tag_284\n      jump\t// in\n    tag_412:\n        /* \"#utility.yul\":7280:7289   */\n      dup2\n        /* \"#utility.yul\":7274:7278   */\n      dup2\n        /* \"#utility.yul\":7270:7290   */\n      sub\n        /* \"#utility.yul\":7265:7267   */\n      0x40\n        /* \"#utility.yul\":7254:7263   */\n      dup4\n        /* \"#utility.yul\":7250:7268   */\n      add\n        /* \"#utility.yul\":7243:7291   */\n      mstore\n        /* \"#utility.yul\":7308:7386   */\n      tag_413\n        /* \"#utility.yul\":7381:7385   */\n      dup2\n        /* \"#utility.yul\":7372:7378   */\n      dup6\n        /* \"#utility.yul\":7308:7386   */\n      tag_289\n      jump\t// in\n    tag_413:\n        /* \"#utility.yul\":7300:7386   */\n      swap1\n      pop\n        /* \"#utility.yul\":7396:7468   */\n      tag_414\n        /* \"#utility.yul\":7464:7466   */\n      0x60\n        /* \"#utility.yul\":7453:7462   */\n      dup4\n        /* \"#utility.yul\":7449:7467   */\n      add\n        /* \"#utility.yul\":7440:7446   */\n      dup5\n        /* \"#utility.yul\":7396:7468   */\n      tag_284\n      jump\t// in\n    tag_414:\n        /* \"#utility.yul\":6831:7475   */\n      swap6\n      swap5\n      pop\n      pop\n      pop\n      pop\n      pop\n      jump\t// out\n        /* \"#utility.yul\":7481:7810   */\n    tag_49:\n        /* \"#utility.yul\":7540:7546   */\n      0x00\n        /* \"#utility.yul\":7589:7591   */\n      0x20\n        /* \"#utility.yul\":7577:7586   */\n      dup3\n        /* \"#utility.yul\":7568:7575   */\n      dup5\n        /* \"#utility.yul\":7564:7587   */\n      sub\n        /* \"#utility.yul\":7560:7592   */\n      slt\n        /* \"#utility.yul\":7557:7676   */\n      iszero\n      tag_416\n      jumpi\n        /* \"#utility.yul\":7595:7674   */\n      tag_417\n      tag_270\n      jump\t// in\n    tag_417:\n        /* \"#utility.yul\":7557:7676   */\n    tag_416:\n        /* \"#utility.yul\":7715:7716   */\n      0x00\n        /* \"#utility.yul\":7740:7793   */\n      tag_418\n        /* \"#utility.yul\":7785:7792   */\n      dup5\n        /* \"#utility.yul\":7776:7782   */\n      dup3\n        /* \"#utility.yul\":7765:7774   */\n      dup6\n        /* \"#utility.yul\":7761:7783   */\n      add\n        /* \"#utility.yul\":7740:7793   */\n      tag_278\n      jump\t// in\n    tag_418:\n        /* \"#utility.yul\":7730:7793   */\n      swap2\n      pop\n        /* \"#utility.yul\":7686:7803   */\n      pop\n        /* \"#utility.yul\":7481:7810   */\n      swap3\n      swap2\n      pop\n      pop\n      jump\t// out\n        /* \"#utility.yul\":7816:8038   */\n    tag_52:\n        /* \"#utility.yul\":7909:7913   */\n      0x00\n        /* \"#utility.yul\":7947:7949   */\n      0x20\n        /* \"#utility.yul\":7936:7945   */\n      dup3\n        /* \"#utility.yul\":7932:7950   */\n      add\n        /* \"#utility.yul\":7924:7950   */\n      swap1\n      pop\n        /* \"#utility.yul\":7960:8031   */\n      tag_420\n        /* \"#utility.yul\":8028:8029   */\n      0x00\n        /* \"#utility.yul\":8017:8026   */\n      dup4\n        /* \"#utility.yul\":8013:8030   */\n      add\n        /* \"#utility.yul\":8004:8010   */\n      dup5\n        /* \"#utility.yul\":7960:8031   */\n      tag_284\n      jump\t// in\n    tag_420:\n        /* \"#utility.yul\":7816:8038   */\n      swap3\n      swap2\n      pop\n      pop\n      jump\t// out\n        /* \"#utility.yul\":8044:8373   */\n    tag_63:\n        /* \"#utility.yul\":8103:8109   */\n      0x00\n        /* \"#utility.yul\":8152:8154   */\n      0x20\n        /* \"#utility.yul\":8140:8149   */\n      dup3\n        /* \"#utility.yul\":8131:8138   */\n      dup5\n        /* \"#utility.yul\":8127:8150   */\n      sub\n        /* \"#utility.yul\":8123:8155   */\n      slt\n        /* \"#utility.yul\":8120:8239   */\n      iszero\n      tag_422\n      jumpi\n        /* \"#utility.yul\":8158:8237   */\n      tag_423\n      tag_270\n      jump\t// in\n    tag_423:\n        /* \"#utility.yul\":8120:8239   */\n    tag_422:\n        /* \"#utility.yul\":8278:8279   */\n      0x00\n        /* \"#utility.yul\":8303:8356   */\n      tag_424\n        /* \"#utility.yul\":8348:8355   */\n      dup5\n        /* \"#utility.yul\":8339:8345   */\n      dup3\n        /* \"#utility.yul\":8328:8337   */\n      dup6\n        /* \"#utility.yul\":8324:8346   */\n      add\n        /* \"#utility.yul\":8303:8356   */\n      tag_275\n      jump\t// in\n    tag_424:\n        /* \"#utility.yul\":8293:8356   */\n      swap2\n      pop\n        /* \"#utility.yul\":8249:8366   */\n      pop\n        /* \"#utility.yul\":8044:8373   */\n      swap3\n      swap2\n      pop\n      pop\n      jump\t// out\n        /* \"#utility.yul\":8379:8559   */\n    tag_70:\n        /* \"#utility.yul\":8427:8504   */\n      0x4e487b7100000000000000000000000000000000000000000000000000000000\n        /* \"#utility.yul\":8424:8425   */\n      0x00\n        /* \"#utility.yul\":8417:8505   */\n      mstore\n        /* \"#utility.yul\":8524:8528   */\n      0x21\n        /* \"#utility.yul\":8521:8522   */\n      0x04\n        /* \"#utility.yul\":8514:8529   */\n      mstore\n        /* \"#utility.yul\":8548:8552   */\n      0x24\n        /* \"#utility.yul\":8545:8546   */\n      0x00\n        /* \"#utility.yul\":8538:8553   */\n      revert\n        /* \"#utility.yul\":8565:8676   */\n    tag_290:\n        /* \"#utility.yul\":8644:8645   */\n      0x03\n        /* \"#utility.yul\":8637:8642   */\n      dup2\n        /* \"#utility.yul\":8634:8646   */\n      lt\n        /* \"#utility.yul\":8624:8670   */\n      tag_427\n      jumpi\n        /* \"#utility.yul\":8650:8668   */\n      tag_428\n      tag_70\n      jump\t// in\n    tag_428:\n        /* \"#utility.yul\":8624:8670   */\n    tag_427:\n        /* \"#utility.yul\":8565:8676   */\n      pop\n      jump\t// out\n        /* \"#utility.yul\":8682:8805   */\n    tag_291:\n        /* \"#utility.yul\":8725:8732   */\n      0x00\n        /* \"#utility.yul\":8754:8759   */\n      dup2\n        /* \"#utility.yul\":8743:8759   */\n      swap1\n      pop\n        /* \"#utility.yul\":8760:8799   */\n      tag_430\n        /* \"#utility.yul\":8793:8798   */\n      dup3\n        /* \"#utility.yul\":8760:8799   */\n      tag_290\n      jump\t// in\n    tag_430:\n        /* \"#utility.yul\":8682:8805   */\n      swap2\n      swap1\n      pop\n      jump\t// out\n        /* \"#utility.yul\":8811:8934   */\n    tag_292:\n        /* \"#utility.yul\":8865:8874   */\n      0x00\n        /* \"#utility.yul\":8898:8928   */\n      tag_432\n        /* \"#utility.yul\":8922:8927   */\n      dup3\n        /* \"#utility.yul\":8898:8928   */\n      tag_291\n      jump\t// in\n    tag_432:\n        /* \"#utility.yul\":8885:8928   */\n      swap1\n      pop\n        /* \"#utility.yul\":8811:8934   */\n      swap2\n      swap1\n      pop\n      jump\t// out\n        /* \"#utility.yul\":8940:9079   */\n    tag_293:\n        /* \"#utility.yul\":9031:9072   */\n      tag_434\n        /* \"#utility.yul\":9066:9071   */\n      dup2\n        /* \"#utility.yul\":9031:9072   */\n      tag_292\n      jump\t// in\n    tag_434:\n        /* \"#utility.yul\":9026:9029   */\n      dup3\n        /* \"#utility.yul\":9019:9073   */\n      mstore\n        /* \"#utility.yul\":8940:9079   */\n      pop\n      pop\n      jump\t// out\n        /* \"#utility.yul\":9085:9315   */\n    tag_66:\n        /* \"#utility.yul\":9182:9186   */\n      0x00\n        /* \"#utility.yul\":9220:9222   */\n      0x20\n        /* \"#utility.yul\":9209:9218   */\n      dup3\n        /* \"#utility.yul\":9205:9223   */\n      add\n        /* \"#utility.yul\":9197:9223   */\n      swap1\n      pop\n        /* \"#utility.yul\":9233:9308   */\n      tag_436\n        /* \"#utility.yul\":9305:9306   */\n      0x00\n        /* \"#utility.yul\":9294:9303   */\n      dup4\n        /* \"#utility.yul\":9290:9307   */\n      add\n        /* \"#utility.yul\":9281:9287   */\n      dup5\n        /* \"#utility.yul\":9233:9308   */\n      tag_293\n      jump\t// in\n    tag_436:\n        /* \"#utility.yul\":9085:9315   */\n      swap3\n      swap2\n      pop\n      pop\n      jump\t// out\n        /* \"#utility.yul\":9321:9435   */\n    tag_294:\n      pop\n      jump\t// out\n        /* \"#utility.yul\":9441:9805   */\n    tag_295:\n        /* \"#utility.yul\":9583:9586   */\n      0x00\n        /* \"#utility.yul\":9604:9670   */\n      tag_439\n        /* \"#utility.yul\":9668:9669   */\n      0x00\n        /* \"#utility.yul\":9663:9666   */\n      dup4\n        /* \"#utility.yul\":9604:9670   */\n      tag_286\n      jump\t// in\n    tag_439:\n        /* \"#utility.yul\":9597:9670   */\n      swap2\n      pop\n        /* \"#utility.yul\":9679:9772   */\n      tag_440\n        /* \"#utility.yul\":9768:9771   */\n      dup3\n        /* \"#utility.yul\":9679:9772   */\n      tag_294\n      jump\t// in\n    tag_440:\n        /* \"#utility.yul\":9797:9798   */\n      0x00\n        /* \"#utility.yul\":9792:9795   */\n      dup3\n        /* \"#utility.yul\":9788:9799   */\n      add\n        /* \"#utility.yul\":9781:9799   */\n      swap1\n      pop\n        /* \"#utility.yul\":9441:9805   */\n      swap2\n      swap1\n      pop\n      jump\t// out\n        /* \"#utility.yul\":9811:10230   */\n    tag_75:\n        /* \"#utility.yul\":9977:9981   */\n      0x00\n        /* \"#utility.yul\":10015:10017   */\n      0x20\n        /* \"#utility.yul\":10004:10013   */\n      dup3\n        /* \"#utility.yul\":10000:10018   */\n      add\n        /* \"#utility.yul\":9992:10018   */\n      swap1\n      pop\n        /* \"#utility.yul\":10064:10073   */\n      dup2\n        /* \"#utility.yul\":10058:10062   */\n      dup2\n        /* \"#utility.yul\":10054:10074   */\n      sub\n        /* \"#utility.yul\":10050:10051   */\n      0x00\n        /* \"#utility.yul\":10039:10048   */\n      dup4\n        /* \"#utility.yul\":10035:10052   */\n      add\n        /* \"#utility.yul\":10028:10075   */\n      mstore\n        /* \"#utility.yul\":10092:10223   */\n      tag_442\n        /* \"#utility.yul\":10218:10222   */\n      dup2\n        /* \"#utility.yul\":10092:10223   */\n      tag_295\n      jump\t// in\n    tag_442:\n        /* \"#utility.yul\":10084:10223   */\n      swap1\n      pop\n        /* \"#utility.yul\":9811:10230   */\n      swap2\n      swap1\n      pop\n      jump\t// out\n        /* \"#utility.yul\":10236:10652   */\n    tag_296:\n        /* \"#utility.yul\":10376:10442   */\n      0xd09cd0b0d0b3d0b0d0b7d0b8d0bd20d0bdd0b520d181d0bed0bed182d0b2d0b5\n        /* \"#utility.yul\":10372:10373   */\n      0x00\n        /* \"#utility.yul\":10364:10370   */\n      dup3\n        /* \"#utility.yul\":10360:10374   */\n      add\n        /* \"#utility.yul\":10353:10443   */\n      mstore\n        /* \"#utility.yul\":10477:10543   */\n      0xd182d181d0b2d183d0b5d18220d0bed182d0bfd180d0b0d0b2d0b8d182d0b5d0\n        /* \"#utility.yul\":10472:10474   */\n      0x20\n        /* \"#utility.yul\":10464:10470   */\n      dup3\n        /* \"#utility.yul\":10460:10475   */\n      add\n        /* \"#utility.yul\":10453:10544   */\n      mstore\n        /* \"#utility.yul\":10578:10644   */\n      0xbbd18e0000000000000000000000000000000000000000000000000000000000\n        /* \"#utility.yul\":10573:10575   */\n      0x40\n        /* \"#utility.yul\":10565:10571   */\n      dup3\n        /* \"#utility.yul\":10561:10576   */\n      add\n        /* \"#utility.yul\":10554:10645   */\n      mstore\n        /* \"#utility.yul\":10236:10652   */\n      pop\n      jump\t// out\n        /* \"#utility.yul\":10658:11024   */\n    tag_297:\n        /* \"#utility.yul\":10800:10803   */\n      0x00\n        /* \"#utility.yul\":10821:10888   */\n      tag_445\n        /* \"#utility.yul\":10885:10887   */\n      0x43\n        /* \"#utility.yul\":10880:10883   */\n      dup4\n        /* \"#utility.yul\":10821:10888   */\n      tag_286\n      jump\t// in\n    tag_445:\n        /* \"#utility.yul\":10814:10888   */\n      swap2\n      pop\n        /* \"#utility.yul\":10897:10990   */\n      tag_446\n        /* \"#utility.yul\":10986:10989   */\n      dup3\n        /* \"#utility.yul\":10897:10990   */\n      tag_296\n      jump\t// in\n    tag_446:\n        /* \"#utility.yul\":11015:11017   */\n      0x60\n        /* \"#utility.yul\":11010:11013   */\n      dup3\n        /* \"#utility.yul\":11006:11018   */\n      add\n        /* \"#utility.yul\":10999:11018   */\n      swap1\n      pop\n        /* \"#utility.yul\":10658:11024   */\n      swap2\n      swap1\n      pop\n      jump\t// out\n        /* \"#utility.yul\":11030:11449   */\n    tag_78:\n        /* \"#utility.yul\":11196:11200   */\n      0x00\n        /* \"#utility.yul\":11234:11236   */\n      0x20\n        /* \"#utility.yul\":11223:11232   */\n      dup3\n        /* \"#utility.yul\":11219:11237   */\n      add\n        /* \"#utility.yul\":11211:11237   */\n      swap1\n      pop\n        /* \"#utility.yul\":11283:11292   */\n      dup2\n        /* \"#utility.yul\":11277:11281   */\n      dup2\n        /* \"#utility.yul\":11273:11293   */\n      sub\n        /* \"#utility.yul\":11269:11270   */\n      0x00\n        /* \"#utility.yul\":11258:11267   */\n      dup4\n        /* \"#utility.yul\":11254:11271   */\n      add\n        /* \"#utility.yul\":11247:11294   */\n      mstore\n        /* \"#utility.yul\":11311:11442   */\n      tag_448\n        /* \"#utility.yul\":11437:11441   */\n      dup2\n        /* \"#utility.yul\":11311:11442   */\n      tag_297\n      jump\t// in\n    tag_448:\n        /* \"#utility.yul\":11303:11442   */\n      swap1\n      pop\n        /* \"#utility.yul\":11030:11449   */\n      swap2\n      swap1\n      pop\n      jump\t// out\n        /* \"#utility.yul\":11455:11635   */\n    tag_298:\n        /* \"#utility.yul\":11503:11580   */\n      0x4e487b7100000000000000000000000000000000000000000000000000000000\n        /* \"#utility.yul\":11500:11501   */\n      0x00\n        /* \"#utility.yul\":11493:11581   */\n      mstore\n        /* \"#utility.yul\":11600:11604   */\n      0x41\n        /* \"#utility.yul\":11597:11598   */\n      0x04\n        /* \"#utility.yul\":11590:11605   */\n      mstore\n        /* \"#utility.yul\":11624:11628   */\n      0x24\n        /* \"#utility.yul\":11621:11622   */\n      0x00\n        /* \"#utility.yul\":11614:11629   */\n      revert\n        /* \"#utility.yul\":11641:11821   */\n    tag_299:\n        /* \"#utility.yul\":11689:11766   */\n      0x4e487b7100000000000000000000000000000000000000000000000000000000\n        /* \"#utility.yul\":11686:11687   */\n      0x00\n        /* \"#utility.yul\":11679:11767   */\n      mstore\n        /* \"#utility.yul\":11786:11790   */\n      0x22\n        /* \"#utility.yul\":11783:11784   */\n      0x04\n        /* \"#utility.yul\":11776:11791   */\n      mstore\n        /* \"#utility.yul\":11810:11814   */\n      0x24\n        /* \"#utility.yul\":11807:11808   */\n      0x00\n        /* \"#utility.yul\":11800:11815   */\n      revert\n        /* \"#utility.yul\":11827:12147   */\n    tag_104:\n        /* \"#utility.yul\":11871:11877   */\n      0x00\n        /* \"#utility.yul\":11908:11909   */\n      0x02\n        /* \"#utility.yul\":11902:11906   */\n      dup3\n        /* \"#utility.yul\":11898:11910   */\n      div\n        /* \"#utility.yul\":11888:11910   */\n      swap1\n      pop\n        /* \"#utility.yul\":11955:11956   */\n      0x01\n        /* \"#utility.yul\":11949:11953   */\n      dup3\n        /* \"#utility.yul\":11945:11957   */\n      and\n        /* \"#utility.yul\":11976:11994   */\n      dup1\n        /* \"#utility.yul\":11966:12047   */\n      tag_452\n      jumpi\n        /* \"#utility.yul\":12032:12036   */\n      0x7f\n        /* \"#utility.yul\":12024:12030   */\n      dup3\n        /* \"#utility.yul\":12020:12037   */\n      and\n        /* \"#utility.yul\":12010:12037   */\n      swap2\n      pop\n        /* \"#utility.yul\":11966:12047   */\n    tag_452:\n        /* \"#utility.yul\":12094:12096   */\n      0x20\n        /* \"#utility.yul\":12086:12092   */\n      dup3\n        /* \"#utility.yul\":12083:12097   */\n      lt\n        /* \"#utility.yul\":12063:12081   */\n      dup2\n        /* \"#utility.yul\":12060:12098   */\n      sub\n        /* \"#utility.yul\":12057:12141   */\n      tag_453\n      jumpi\n        /* \"#utility.yul\":12113:12131   */\n      tag_454\n      tag_299\n      jump\t// in\n    tag_454:\n        /* \"#utility.yul\":12057:12141   */\n    tag_453:\n        /* \"#utility.yul\":11878:12147   */\n      pop\n        /* \"#utility.yul\":11827:12147   */\n      swap2\n      swap1\n      pop\n      jump\t// out\n        /* \"#utility.yul\":12153:12294   */\n    tag_300:\n        /* \"#utility.yul\":12202:12206   */\n      0x00\n        /* \"#utility.yul\":12225:12228   */\n      dup2\n        /* \"#utility.yul\":12217:12228   */\n      swap1\n      pop\n        /* \"#utility.yul\":12248:12251   */\n      dup2\n        /* \"#utility.yul\":12245:12246   */\n      0x00\n        /* \"#utility.yul\":12238:12252   */\n      mstore\n        /* \"#utility.yul\":12282:12286   */\n      0x20\n        /* \"#utility.yul\":12279:12280   */\n      0x00\n        /* \"#utility.yul\":12269:12287   */\n      keccak256\n        /* \"#utility.yul\":12261:12287   */\n      swap1\n      pop\n        /* \"#utility.yul\":12153:12294   */\n      swap2\n      swap1\n      pop\n      jump\t// out\n        /* \"#utility.yul\":12300:12393   */\n    tag_301:\n        /* \"#utility.yul\":12337:12343   */\n      0x00\n        /* \"#utility.yul\":12384:12386   */\n      0x20\n        /* \"#utility.yul\":12379:12381   */\n      0x1f\n        /* \"#utility.yul\":12372:12377   */\n      dup4\n        /* \"#utility.yul\":12368:12382   */\n      add\n        /* \"#utility.yul\":12364:12387   */\n      div\n        /* \"#utility.yul\":12354:12387   */\n      swap1\n      pop\n        /* \"#utility.yul\":12300:12393   */\n      swap2\n      swap1\n      pop\n      jump\t// out\n        /* \"#utility.yul\":12399:12506   */\n    tag_302:\n        /* \"#utility.yul\":12443:12451   */\n      0x00\n        /* \"#utility.yul\":12493:12498   */\n      dup3\n        /* \"#utility.yul\":12487:12491   */\n      dup3\n        /* \"#utility.yul\":12483:12499   */\n      shl\n        /* \"#utility.yul\":12462:12499   */\n      swap1\n      pop\n        /* \"#utility.yul\":12399:12506   */\n      swap3\n      swap2\n      pop\n      pop\n      jump\t// out\n        /* \"#utility.yul\":12512:12905   */\n    tag_303:\n        /* \"#utility.yul\":12581:12587   */\n      0x00\n        /* \"#utility.yul\":12631:12632   */\n      0x08\n        /* \"#utility.yul\":12619:12629   */\n      dup4\n        /* \"#utility.yul\":12615:12633   */\n      mul\n        /* \"#utility.yul\":12654:12751   */\n      tag_459\n        /* \"#utility.yul\":12684:12750   */\n      0xffffffffffffffffffffffffffffffffffffffffffffffffffffffffffffffff\n        /* \"#utility.yul\":12673:12682   */\n      dup3\n        /* \"#utility.yul\":12654:12751   */\n      tag_302\n      jump\t// in\n    tag_459:\n        /* \"#utility.yul\":12772:12811   */\n      tag_460\n        /* \"#utility.yul\":12802:12810   */\n      dup7\n        /* \"#utility.yul\":12791:12800   */\n      dup4\n        /* \"#utility.yul\":12772:12811   */\n      tag_302\n      jump\t// in\n    tag_460:\n        /* \"#utility.yul\":12760:12811   */\n      swap6\n      pop\n        /* \"#utility.yul\":12844:12848   */\n      dup1\n        /* \"#utility.yul\":12840:12849   */\n      not\n        /* \"#utility.yul\":12833:12838   */\n      dup5\n        /* \"#utility.yul\":12829:12850   */\n      and\n        /* \"#utility.yul\":12820:12850   */\n      swap4\n      pop\n        /* \"#utility.yul\":12893:12897   */\n      dup1\n        /* \"#utility.yul\":12883:12891   */\n      dup7\n        /* \"#utility.yul\":12879:12898   */\n      and\n        /* \"#utility.yul\":12872:12877   */\n      dup5\n        /* \"#utility.yul\":12869:12899   */\n      or\n        /* \"#utility.yul\":12859:12899   */\n      swap3\n      pop\n        /* \"#utility.yul\":12588:12905   */\n      pop\n      pop\n        /* \"#utility.yul\":12512:12905   */\n      swap4\n      swap3\n      pop\n      pop\n      pop\n      jump\t// out\n        /* \"#utility.yul\":12911:12971   */\n    tag_304:\n        /* \"#utility.yul\":12939:12942   */\n      0x00\n        /* \"#utility.yul\":12960:12965   */\n      dup2\n        /* \"#utility.yul\":12953:12965   */\n      swap1\n      pop\n        /* \"#utility.yul\":12911:12971   */\n      swap2\n      swap1\n      pop\n      jump\t// out\n        /* \"#utility.yul\":12977:13119   */\n    tag_305:\n        /* \"#utility.yul\":13027:13036   */\n      0x00\n        /* \"#utility.yul\":13060:13113   */\n      tag_463\n        /* \"#utility.yul\":13078:13112   */\n      tag_464\n        /* \"#utility.yul\":13087:13111   */\n      tag_465\n        /* \"#utility.yul\":13105:13110   */\n      dup5\n        /* \"#utility.yul\":13087:13111   */\n      tag_276\n      jump\t// in\n    tag_465:\n        /* \"#utility.yul\":13078:13112   */\n      tag_304\n      jump\t// in\n    tag_464:\n        /* \"#utility.yul\":13060:13113   */\n      tag_276\n      jump\t// in\n    tag_463:\n        /* \"#utility.yul\":13047:13113   */\n      swap1\n      pop\n        /* \"#utility.yul\":12977:13119   */\n      swap2\n      swap1\n      pop\n      jump\t// out\n        /* \"#utility.yul\":13125:13200   */\n    tag_306:\n        /* \"#utility.yul\":13168:13171   */\n      0x00\n        /* \"#utility.yul\":13189:13194   */\n      dup2\n        /* \"#utility.yul\":13182:13194   */\n      swap1\n      pop\n        /* \"#utility.yul\":13125:13200   */\n      swap2\n      swap1\n      pop\n      jump\t// out\n        /* \"#utility.yul\":13206:13475   */\n    tag_307:\n        /* \"#utility.yul\":13316:13355   */\n      tag_468\n        /* \"#utility.yul\":13347:13354   */\n      dup4\n        /* \"#utility.yul\":13316:13355   */\n      tag_305\n      jump\t// in\n    tag_468:\n        /* \"#utility.yul\":13377:13468   */\n      tag_469\n        /* \"#utility.yul\":13426:13467   */\n      tag_470\n        /* \"#utility.yul\":13450:13466   */\n      dup3\n        /* \"#utility.yul\":13426:13467   */\n      tag_306\n      jump\t// in\n    tag_470:\n        /* \"#utility.yul\":13418:13424   */\n      dup5\n        /* \"#utility.yul\":13411:13415   */\n      dup5\n        /* \"#utility.yul\":13405:13416   */\n      sload\n        /* \"#utility.yul\":13377:13468   */\n      tag_303\n      jump\t// in\n    tag_469:\n        /* \"#utility.yul\":13371:13375   */\n      dup3\n        /* \"#utility.yul\":13364:13469   */\n      sstore\n        /* \"#utility.yul\":13282:13475   */\n      pop\n        /* \"#utility.yul\":13206:13475   */\n      pop\n      pop\n      pop\n      jump\t// out\n        /* \"#utility.yul\":13481:13554   */\n    tag_308:\n        /* \"#utility.yul\":13526:13529   */\n      0x00\n        /* \"#utility.yul\":13481:13554   */\n      swap1\n      jump\t// out\n        /* \"#utility.yul\":13560:13749   */\n    tag_309:\n        /* \"#utility.yul\":13637:13669   */\n      tag_473\n      tag_308\n      jump\t// in\n    tag_473:\n        /* \"#utility.yul\":13678:13743   */\n      tag_474\n        /* \"#utility.yul\":13736:13742   */\n      dup2\n        /* \"#utility.yul\":13728:13734   */\n      dup5\n        /* \"#utility.yul\":13722:13726   */\n      dup5\n        /* \"#utility.yul\":13678:13743   */\n      tag_307\n      jump\t// in\n    tag_474:\n        /* \"#utility.yul\":13613:13749   */\n      pop\n        /* \"#utility.yul\":13560:13749   */\n      pop\n      pop\n      jump\t// out\n        /* \"#utility.yul\":13755:13941   */\n    tag_310:\n        /* \"#utility.yul\":13815:13935   */\n    tag_476:\n        /* \"#utility.yul\":13832:13835   */\n      dup2\n        /* \"#utility.yul\":13825:13830   */\n      dup2\n        /* \"#utility.yul\":13822:13836   */\n      lt\n        /* \"#utility.yul\":13815:13935   */\n      iszero\n      tag_478\n      jumpi\n        /* \"#utility.yul\":13886:13925   */\n      tag_479\n        /* \"#utility.yul\":13923:13924   */\n      0x00\n        /* \"#utility.yul\":13916:13921   */\n      dup3\n        /* \"#utility.yul\":13886:13925   */\n      tag_309\n      jump\t// in\n    tag_479:\n        /* \"#utility.yul\":13859:13860   */\n      0x01\n        /* \"#utility.yul\":13852:13857   */\n      dup2\n        /* \"#utility.yul\":13848:13861   */\n      add\n        /* \"#utility.yul\":13839:13861   */\n      swap1\n      pop\n        /* \"#utility.yul\":13815:13935   */\n      jump(tag_476)\n    tag_478:\n        /* \"#utility.yul\":13755:13941   */\n      pop\n      pop\n      jump\t// out\n        /* \"#utility.yul\":13947:14490   */\n    tag_311:\n        /* \"#utility.yul\":14048:14050   */\n      0x1f\n        /* \"#utility.yul\":14043:14046   */\n      dup3\n        /* \"#utility.yul\":14040:14051   */\n      gt\n        /* \"#utility.yul\":14037:14483   */\n      iszero\n      tag_481\n      jumpi\n        /* \"#utility.yul\":14082:14120   */\n      tag_482\n        /* \"#utility.yul\":14114:14119   */\n      dup2\n        /* \"#utility.yul\":14082:14120   */\n      tag_300\n      jump\t// in\n    tag_482:\n        /* \"#utility.yul\":14166:14195   */\n      tag_483\n        /* \"#utility.yul\":14184:14194   */\n      dup5\n        /* \"#utility.yul\":14166:14195   */\n      tag_301\n      jump\t// in\n    tag_483:\n        /* \"#utility.yul\":14156:14164   */\n      dup2\n        /* \"#utility.yul\":14152:14196   */\n      add\n        /* \"#utility.yul\":14349:14351   */\n      0x20\n        /* \"#utility.yul\":14337:14347   */\n      dup6\n        /* \"#utility.yul\":14334:14352   */\n      lt\n        /* \"#utility.yul\":14331:14380   */\n      iszero\n      tag_484\n      jumpi\n        /* \"#utility.yul\":14370:14378   */\n      dup2\n        /* \"#utility.yul\":14355:14378   */\n      swap1\n      pop\n        /* \"#utility.yul\":14331:14380   */\n    tag_484:\n        /* \"#utility.yul\":14393:14473   */\n      tag_485\n        /* \"#utility.yul\":14449:14471   */\n      tag_486\n        /* \"#utility.yul\":14467:14470   */\n      dup6\n        /* \"#utility.yul\":14449:14471   */\n      tag_301\n      jump\t// in\n    tag_486:\n        /* \"#utility.yul\":14439:14447   */\n      dup4\n        /* \"#utility.yul\":14435:14472   */\n      add\n        /* \"#utility.yul\":14422:14433   */\n      dup3\n        /* \"#utility.yul\":14393:14473   */\n      tag_310\n      jump\t// in\n    tag_485:\n        /* \"#utility.yul\":14052:14483   */\n      pop\n      pop\n        /* \"#utility.yul\":14037:14483   */\n    tag_481:\n        /* \"#utility.yul\":13947:14490   */\n      pop\n      pop\n      pop\n      jump\t// out\n        /* \"#utility.yul\":14496:14613   */\n    tag_312:\n        /* \"#utility.yul\":14550:14558   */\n      0x00\n        /* \"#utility.yul\":14600:14605   */\n      dup3\n        /* \"#utility.yul\":14594:14598   */\n      dup3\n        /* \"#utility.yul\":14590:14606   */\n      shr\n        /* \"#utility.yul\":14569:14606   */\n      swap1\n      pop\n        /* \"#utility.yul\":14496:14613   */\n      swap3\n      swap2\n      pop\n      pop\n      jump\t// out\n        /* \"#utility.yul\":14619:14788   */\n    tag_313:\n        /* \"#utility.yul\":14663:14669   */\n      0x00\n        /* \"#utility.yul\":14696:14747   */\n      tag_489\n        /* \"#utility.yul\":14744:14745   */\n      0x00\n        /* \"#utility.yul\":14740:14746   */\n      not\n        /* \"#utility.yul\":14732:14737   */\n      dup5\n        /* \"#utility.yul\":14729:14730   */\n      0x08\n        /* \"#utility.yul\":14725:14738   */\n      mul\n        /* \"#utility.yul\":14696:14747   */\n      tag_312\n      jump\t// in\n    tag_489:\n        /* \"#utility.yul\":14692:14748   */\n      not\n        /* \"#utility.yul\":14777:14781   */\n      dup1\n        /* \"#utility.yul\":14771:14775   */\n      dup4\n        /* \"#utility.yul\":14767:14782   */\n      and\n        /* \"#utility.yul\":14757:14782   */\n      swap2\n      pop\n        /* \"#utility.yul\":14670:14788   */\n      pop\n        /* \"#utility.yul\":14619:14788   */\n      swap3\n      swap2\n      pop\n      pop\n      jump\t// out\n        /* \"#utility.yul\":14793:15088   */\n    tag_314:\n        /* \"#utility.yul\":14869:14873   */\n      0x00\n        /* \"#utility.yul\":15015:15044   */\n      tag_491\n        /* \"#utility.yul\":15040:15043   */\n      dup4\n        /* \"#utility.yul\":15034:15038   */\n      dup4\n        /* \"#utility.yul\":15015:15044   */\n      tag_313\n      jump\t// in\n    tag_491:\n        /* \"#utility.yul\":15007:15044   */\n      swap2\n      pop\n        /* \"#utility.yul\":15077:15080   */\n      dup3\n        /* \"#utility.yul\":15074:15075   */\n      0x02\n        /* \"#utility.yul\":15070:15081   */\n      mul\n        /* \"#utility.yul\":15064:15068   */\n      dup3\n        /* \"#utility.yul\":15061:15082   */\n      or\n        /* \"#utility.yul\":15053:15082   */\n      swap1\n      pop\n        /* \"#utility.yul\":14793:15088   */\n      swap3\n      swap2\n      pop\n      pop\n      jump\t// out\n        /* \"#utility.yul\":15093:16488   */\n    tag_82:\n        /* \"#utility.yul\":15210:15247   */\n      tag_493\n        /* \"#utility.yul\":15243:15246   */\n      dup3\n        /* \"#utility.yul\":15210:15247   */\n      tag_285\n      jump\t// in\n    tag_493:\n        /* \"#utility.yul\":15312:15330   */\n      0xffffffffffffffff\n        /* \"#utility.yul\":15304:15310   */\n      dup2\n        /* \"#utility.yul\":15301:15331   */\n      gt\n        /* \"#utility.yul\":15298:15354   */\n      iszero\n      tag_494\n      jumpi\n        /* \"#utility.yul\":15334:15352   */\n      tag_495\n      tag_298\n      jump\t// in\n    tag_495:\n        /* \"#utility.yul\":15298:15354   */\n    tag_494:\n        /* \"#utility.yul\":15378:15416   */\n      tag_496\n        /* \"#utility.yul\":15410:15414   */\n      dup3\n        /* \"#utility.yul\":15404:15415   */\n      sload\n        /* \"#utility.yul\":15378:15416   */\n      tag_104\n      jump\t// in\n    tag_496:\n        /* \"#utility.yul\":15463:15530   */\n      tag_497\n        /* \"#utility.yul\":15523:15529   */\n      dup3\n        /* \"#utility.yul\":15515:15521   */\n      dup3\n        /* \"#utility.yul\":15509:15513   */\n      dup6\n        /* \"#utility.yul\":15463:15530   */\n      tag_311\n      jump\t// in\n    tag_497:\n        /* \"#utility.yul\":15557:15558   */\n      0x00\n        /* \"#utility.yul\":15581:15585   */\n      0x20\n        /* \"#utility.yul\":15568:15585   */\n      swap1\n      pop\n        /* \"#utility.yul\":15613:15615   */\n      0x1f\n        /* \"#utility.yul\":15605:15611   */\n      dup4\n        /* \"#utility.yul\":15602:15616   */\n      gt\n        /* \"#utility.yul\":15630:15631   */\n      0x01\n        /* \"#utility.yul\":15625:16243   */\n      dup2\n      eq\n      tag_499\n      jumpi\n        /* \"#utility.yul\":16287:16288   */\n      0x00\n        /* \"#utility.yul\":16304:16310   */\n      dup5\n        /* \"#utility.yul\":16301:16378   */\n      iszero\n      tag_500\n      jumpi\n        /* \"#utility.yul\":16353:16362   */\n      dup3\n        /* \"#utility.yul\":16348:16351   */\n      dup8\n        /* \"#utility.yul\":16344:16363   */\n      add\n        /* \"#utility.yul\":16338:16364   */\n      mload\n        /* \"#utility.yul\":16329:16364   */\n      swap1\n      pop\n        /* \"#utility.yul\":16301:16378   */\n    tag_500:\n        /* \"#utility.yul\":16404:16471   */\n      tag_501\n        /* \"#utility.yul\":16464:16470   */\n      dup6\n        /* \"#utility.yul\":16457:16462   */\n      dup3\n        /* \"#utility.yul\":16404:16471   */\n      tag_314\n      jump\t// in\n    tag_501:\n        /* \"#utility.yul\":16398:16402   */\n      dup7\n        /* \"#utility.yul\":16391:16472   */\n      sstore\n        /* \"#utility.yul\":16260:16482   */\n      pop\n        /* \"#utility.yul\":15595:16482   */\n      jump(tag_498)\n        /* \"#utility.yul\":15625:16243   */\n    tag_499:\n        /* \"#utility.yul\":15677:15681   */\n      0x1f\n        /* \"#utility.yul\":15673:15682   */\n      not\n        /* \"#utility.yul\":15665:15671   */\n      dup5\n        /* \"#utility.yul\":15661:15683   */\n      and\n        /* \"#utility.yul\":15711:15748   */\n      tag_502\n        /* \"#utility.yul\":15743:15747   */\n      dup7\n        /* \"#utility.yul\":15711:15748   */\n      tag_300\n      jump\t// in\n    tag_502:\n        /* \"#utility.yul\":15770:15771   */\n      0x00\n        /* \"#utility.yul\":15784:15992   */\n    tag_503:\n        /* \"#utility.yul\":15798:15805   */\n      dup3\n        /* \"#utility.yul\":15795:15796   */\n      dup2\n        /* \"#utility.yul\":15792:15806   */\n      lt\n        /* \"#utility.yul\":15784:15992   */\n      iszero\n      tag_505\n      jumpi\n        /* \"#utility.yul\":15877:15886   */\n      dup5\n        /* \"#utility.yul\":15872:15875   */\n      dup10\n        /* \"#utility.yul\":15868:15887   */\n      add\n        /* \"#utility.yul\":15862:15888   */\n      mload\n        /* \"#utility.yul\":15854:15860   */\n      dup3\n        /* \"#utility.yul\":15847:15889   */\n      sstore\n        /* \"#utility.yul\":15928:15929   */\n      0x01\n        /* \"#utility.yul\":15920:15926   */\n      dup3\n        /* \"#utility.yul\":15916:15930   */\n      add\n        /* \"#utility.yul\":15906:15930   */\n      swap2\n      pop\n        /* \"#utility.yul\":15975:15977   */\n      0x20\n        /* \"#utility.yul\":15964:15973   */\n      dup6\n        /* \"#utility.yul\":15960:15978   */\n      add\n        /* \"#utility.yul\":15947:15978   */\n      swap5\n      pop\n        /* \"#utility.yul\":15821:15825   */\n      0x20\n        /* \"#utility.yul\":15818:15819   */\n      dup2\n        /* \"#utility.yul\":15814:15826   */\n      add\n        /* \"#utility.yul\":15809:15826   */\n      swap1\n      pop\n        /* \"#utility.yul\":15784:15992   */\n      jump(tag_503)\n    tag_505:\n        /* \"#utility.yul\":16020:16026   */\n      dup7\n        /* \"#utility.yul\":16011:16018   */\n      dup4\n        /* \"#utility.yul\":16008:16027   */\n      lt\n        /* \"#utility.yul\":16005:16184   */\n      iszero\n      tag_506\n      jumpi\n        /* \"#utility.yul\":16078:16087   */\n      dup5\n        /* \"#utility.yul\":16073:16076   */\n      dup10\n        /* \"#utility.yul\":16069:16088   */\n      add\n        /* \"#utility.yul\":16063:16089   */\n      mload\n        /* \"#utility.yul\":16121:16169   */\n      tag_507\n        /* \"#utility.yul\":16163:16167   */\n      0x1f\n        /* \"#utility.yul\":16155:16161   */\n      dup10\n        /* \"#utility.yul\":16151:16168   */\n      and\n        /* \"#utility.yul\":16140:16149   */\n      dup3\n        /* \"#utility.yul\":16121:16169   */\n      tag_313\n      jump\t// in\n    tag_507:\n        /* \"#utility.yul\":16113:16119   */\n      dup4\n        /* \"#utility.yul\":16106:16170   */\n      sstore\n        /* \"#utility.yul\":16028:16184   */\n      pop\n        /* \"#utility.yul\":16005:16184   */\n    tag_506:\n        /* \"#utility.yul\":16230:16231   */\n      0x01\n        /* \"#utility.yul\":16226:16227   */\n      0x02\n        /* \"#utility.yul\":16218:16224   */\n      dup9\n        /* \"#utility.yul\":16214:16228   */\n      mul\n        /* \"#utility.yul\":16210:16232   */\n      add\n        /* \"#utility.yul\":16204:16208   */\n      dup9\n        /* \"#utility.yul\":16197:16233   */\n      sstore\n        /* \"#utility.yul\":15632:16243   */\n      pop\n      pop\n      pop\n        /* \"#utility.yul\":15595:16482   */\n    tag_498:\n      pop\n        /* \"#utility.yul\":15185:16488   */\n      pop\n      pop\n      pop\n        /* \"#utility.yul\":15093:16488   */\n      pop\n      pop\n      jump\t// out\n        /* \"#utility.yul\":16494:16719   */\n    tag_315:\n        /* \"#utility.yul\":16634:16668   */\n      0x507572636861736520616d6f756e74206d757374206265206772656174657220\n        /* \"#utility.yul\":16630:16631   */\n      0x00\n        /* \"#utility.yul\":16622:16628   */\n      dup3\n        /* \"#utility.yul\":16618:16632   */\n      add\n        /* \"#utility.yul\":16611:16669   */\n      mstore\n        /* \"#utility.yul\":16703:16711   */\n      0x7468616e20300000000000000000000000000000000000000000000000000000\n        /* \"#utility.yul\":16698:16700   */\n      0x20\n        /* \"#utility.yul\":16690:16696   */\n      dup3\n        /* \"#utility.yul\":16686:16701   */\n      add\n        /* \"#utility.yul\":16679:16712   */\n      mstore\n        /* \"#utility.yul\":16494:16719   */\n      pop\n      jump\t// out\n        /* \"#utility.yul\":16725:17091   */\n    tag_316:\n        /* \"#utility.yul\":16867:16870   */\n      0x00\n        /* \"#utility.yul\":16888:16955   */\n      tag_510\n        /* \"#utility.yul\":16952:16954   */\n      0x26\n        /* \"#utility.yul\":16947:16950   */\n      dup4\n        /* \"#utility.yul\":16888:16955   */\n      tag_286\n      jump\t// in\n    tag_510:\n        /* \"#utility.yul\":16881:16955   */\n      swap2\n      pop\n        /* \"#utility.yul\":16964:17057   */\n      tag_511\n        /* \"#utility.yul\":17053:17056   */\n      dup3\n        /* \"#utility.yul\":16964:17057   */\n      tag_315\n      jump\t// in\n    tag_511:\n        /* \"#utility.yul\":17082:17084   */\n      0x40\n        /* \"#utility.yul\":17077:17080   */\n      dup3\n        /* \"#utility.yul\":17073:17085   */\n      add\n        /* \"#utility.yul\":17066:17085   */\n      swap1\n      pop\n        /* \"#utility.yul\":16725:17091   */\n      swap2\n      swap1\n      pop\n      jump\t// out\n        /* \"#utility.yul\":17097:17516   */\n    tag_95:\n        /* \"#utility.yul\":17263:17267   */\n      0x00\n        /* \"#utility.yul\":17301:17303   */\n      0x20\n        /* \"#utility.yul\":17290:17299   */\n      dup3\n        /* \"#utility.yul\":17286:17304   */\n      add\n        /* \"#utility.yul\":17278:17304   */\n      swap1\n      pop\n        /* \"#utility.yul\":17350:17359   */\n      dup2\n        /* \"#utility.yul\":17344:17348   */\n      dup2\n        /* \"#utility.yul\":17340:17360   */\n      sub\n        /* \"#utility.yul\":17336:17337   */\n      0x00\n        /* \"#utility.yul\":17325:17334   */\n      dup4\n        /* \"#utility.yul\":17321:17338   */\n      add\n        /* \"#utility.yul\":17314:17361   */\n      mstore\n        /* \"#utility.yul\":17378:17509   */\n      tag_513\n        /* \"#utility.yul\":17504:17508   */\n      dup2\n        /* \"#utility.yul\":17378:17509   */\n      tag_316\n      jump\t// in\n    tag_513:\n        /* \"#utility.yul\":17370:17509   */\n      swap1\n      pop\n        /* \"#utility.yul\":17097:17516   */\n      swap2\n      swap1\n      pop\n      jump\t// out\n        /* \"#utility.yul\":17522:17690   */\n    tag_317:\n        /* \"#utility.yul\":17662:17682   */\n      0x496e76616c69642070726f647563742049440000000000000000000000000000\n        /* \"#utility.yul\":17658:17659   */\n      0x00\n        /* \"#utility.yul\":17650:17656   */\n      dup3\n        /* \"#utility.yul\":17646:17660   */\n      add\n        /* \"#utility.yul\":17639:17683   */\n      mstore\n        /* \"#utility.yul\":17522:17690   */\n      pop\n      jump\t// out\n        /* \"#utility.yul\":17696:18062   */\n    tag_318:\n        /* \"#utility.yul\":17838:17841   */\n      0x00\n        /* \"#utility.yul\":17859:17926   */\n      tag_516\n        /* \"#utility.yul\":17923:17925   */\n      0x12\n        /* \"#utility.yul\":17918:17921   */\n      dup4\n        /* \"#utility.yul\":17859:17926   */\n      tag_286\n      jump\t// in\n    tag_516:\n        /* \"#utility.yul\":17852:17926   */\n      swap2\n      pop\n        /* \"#utility.yul\":17935:18028   */\n      tag_517\n        /* \"#utility.yul\":18024:18027   */\n      dup3\n        /* \"#utility.yul\":17935:18028   */\n      tag_317\n      jump\t// in\n    tag_517:\n        /* \"#utility.yul\":18053:18055   */\n      0x20\n        /* \"#utility.yul\":18048:18051   */\n      dup3\n        /* \"#utility.yul\":18044:18056   */\n      add\n        /* \"#utility.yul\":18037:18056   */\n      swap1\n      pop\n        /* \"#utility.yul\":17696:18062   */\n      swap2\n      swap1\n      pop\n      jump\t// out\n        /* \"#utility.yul\":18068:18487   */\n    tag_98:\n        /* \"#utility.yul\":18234:18238   */\n      0x00\n        /* \"#utility.yul\":18272:18274   */\n      0x20\n        /* \"#utility.yul\":18261:18270   */\n      dup3\n        /* \"#utility.yul\":18257:18275   */\n      add\n        /* \"#utility.yul\":18249:18275   */\n      swap1\n      pop\n        /* \"#utility.yul\":18321:18330   */\n      dup2\n        /* \"#utility.yul\":18315:18319   */\n      dup2\n        /* \"#utility.yul\":18311:18331   */\n      sub\n        /* \"#utility.yul\":18307:18308   */\n      0x00\n        /* \"#utility.yul\":18296:18305   */\n      dup4\n        /* \"#utility.yul\":18292:18309   */\n      add\n        /* \"#utility.yul\":18285:18332   */\n      mstore\n        /* \"#utility.yul\":18349:18480   */\n      tag_519\n        /* \"#utility.yul\":18475:18479   */\n      dup2\n        /* \"#utility.yul\":18349:18480   */\n      tag_318\n      jump\t// in\n    tag_519:\n        /* \"#utility.yul\":18341:18480   */\n      swap1\n      pop\n        /* \"#utility.yul\":18068:18487   */\n      swap2\n      swap1\n      pop\n      jump\t// out\n        /* \"#utility.yul\":18493:18673   */\n    tag_101:\n        /* \"#utility.yul\":18541:18618   */\n      0x4e487b7100000000000000000000000000000000000000000000000000000000\n        /* \"#utility.yul\":18538:18539   */\n      0x00\n        /* \"#utility.yul\":18531:18619   */\n      mstore\n        /* \"#utility.yul\":18638:18642   */\n      0x32\n        /* \"#utility.yul\":18635:18636   */\n      0x04\n        /* \"#utility.yul\":18628:18643   */\n      mstore\n        /* \"#utility.yul\":18662:18666   */\n      0x24\n        /* \"#utility.yul\":18659:18660   */\n      0x00\n        /* \"#utility.yul\":18652:18667   */\n      revert\n        /* \"#utility.yul\":18679:18826   */\n    tag_319:\n        /* \"#utility.yul\":18780:18791   */\n      0x00\n        /* \"#utility.yul\":18817:18820   */\n      dup2\n        /* \"#utility.yul\":18802:18820   */\n      swap1\n      pop\n        /* \"#utility.yul\":18679:18826   */\n      swap3\n      swap2\n      pop\n      pop\n      jump\t// out\n        /* \"#utility.yul\":18832:18976   */\n    tag_320:\n        /* \"#utility.yul\":18884:18888   */\n      0x00\n        /* \"#utility.yul\":18907:18910   */\n      dup2\n        /* \"#utility.yul\":18899:18910   */\n      swap1\n      pop\n        /* \"#utility.yul\":18930:18933   */\n      dup2\n        /* \"#utility.yul\":18927:18928   */\n      0x00\n        /* \"#utility.yul\":18920:18934   */\n      mstore\n        /* \"#utility.yul\":18964:18968   */\n      0x20\n        /* \"#utility.yul\":18961:18962   */\n      0x00\n        /* \"#utility.yul\":18951:18969   */\n      keccak256\n        /* \"#utility.yul\":18943:18969   */\n      swap1\n      pop\n        /* \"#utility.yul\":18832:18976   */\n      swap2\n      swap1\n      pop\n      jump\t// out\n        /* \"#utility.yul\":19004:19882   */\n    tag_321:\n        /* \"#utility.yul\":19109:19112   */\n      0x00\n        /* \"#utility.yul\":19146:19151   */\n      dup2\n        /* \"#utility.yul\":19140:19152   */\n      sload\n        /* \"#utility.yul\":19175:19211   */\n      tag_524\n        /* \"#utility.yul\":19201:19210   */\n      dup2\n        /* \"#utility.yul\":19175:19211   */\n      tag_104\n      jump\t// in\n    tag_524:\n        /* \"#utility.yul\":19227:19315   */\n      tag_525\n        /* \"#utility.yul\":19308:19314   */\n      dup2\n        /* \"#utility.yul\":19303:19306   */\n      dup7\n        /* \"#utility.yul\":19227:19315   */\n      tag_319\n      jump\t// in\n    tag_525:\n        /* \"#utility.yul\":19220:19315   */\n      swap5\n      pop\n        /* \"#utility.yul\":19346:19347   */\n      0x01\n        /* \"#utility.yul\":19335:19344   */\n      dup3\n        /* \"#utility.yul\":19331:19348   */\n      and\n        /* \"#utility.yul\":19362:19363   */\n      0x00\n        /* \"#utility.yul\":19357:19523   */\n      dup2\n      eq\n      tag_527\n      jumpi\n        /* \"#utility.yul\":19537:19538   */\n      0x01\n        /* \"#utility.yul\":19532:19876   */\n      dup2\n      eq\n      tag_528\n      jumpi\n        /* \"#utility.yul\":19324:19876   */\n      jump(tag_526)\n        /* \"#utility.yul\":19357:19523   */\n    tag_527:\n        /* \"#utility.yul\":19441:19445   */\n      0xff\n        /* \"#utility.yul\":19437:19446   */\n      not\n        /* \"#utility.yul\":19426:19435   */\n      dup4\n        /* \"#utility.yul\":19422:19447   */\n      and\n        /* \"#utility.yul\":19417:19420   */\n      dup7\n        /* \"#utility.yul\":19410:19448   */\n      mstore\n        /* \"#utility.yul\":19503:19509   */\n      dup2\n        /* \"#utility.yul\":19496:19510   */\n      iszero\n        /* \"#utility.yul\":19489:19511   */\n      iszero\n        /* \"#utility.yul\":19481:19487   */\n      dup3\n        /* \"#utility.yul\":19477:19512   */\n      mul\n        /* \"#utility.yul\":19472:19475   */\n      dup7\n        /* \"#utility.yul\":19468:19513   */\n      add\n        /* \"#utility.yul\":19461:19513   */\n      swap4\n      pop\n        /* \"#utility.yul\":19357:19523   */\n      jump(tag_526)\n        /* \"#utility.yul\":19532:19876   */\n    tag_528:\n        /* \"#utility.yul\":19599:19640   */\n      tag_529\n        /* \"#utility.yul\":19634:19639   */\n      dup6\n        /* \"#utility.yul\":19599:19640   */\n      tag_320\n      jump\t// in\n    tag_529:\n        /* \"#utility.yul\":19662:19663   */\n      0x00\n        /* \"#utility.yul\":19676:19830   */\n    tag_530:\n        /* \"#utility.yul\":19690:19696   */\n      dup4\n        /* \"#utility.yul\":19687:19688   */\n      dup2\n        /* \"#utility.yul\":19684:19697   */\n      lt\n        /* \"#utility.yul\":19676:19830   */\n      iszero\n      tag_532\n      jumpi\n        /* \"#utility.yul\":19764:19771   */\n      dup2\n        /* \"#utility.yul\":19758:19772   */\n      sload\n        /* \"#utility.yul\":19754:19755   */\n      dup2\n        /* \"#utility.yul\":19749:19752   */\n      dup10\n        /* \"#utility.yul\":19745:19756   */\n      add\n        /* \"#utility.yul\":19738:19773   */\n      mstore\n        /* \"#utility.yul\":19814:19815   */\n      0x01\n        /* \"#utility.yul\":19805:19812   */\n      dup3\n        /* \"#utility.yul\":19801:19816   */\n      add\n        /* \"#utility.yul\":19790:19816   */\n      swap2\n      pop\n        /* \"#utility.yul\":19712:19716   */\n      0x20\n        /* \"#utility.yul\":19709:19710   */\n      dup2\n        /* \"#utility.yul\":19705:19717   */\n      add\n        /* \"#utility.yul\":19700:19717   */\n      swap1\n      pop\n        /* \"#utility.yul\":19676:19830   */\n      jump(tag_530)\n    tag_532:\n        /* \"#utility.yul\":19859:19865   */\n      dup4\n        /* \"#utility.yul\":19854:19857   */\n      dup9\n        /* \"#utility.yul\":19850:19866   */\n      add\n        /* \"#utility.yul\":19843:19866   */\n      swap6\n      pop\n        /* \"#utility.yul\":19539:19876   */\n      pop\n      pop\n        /* \"#utility.yul\":19324:19876   */\n    tag_526:\n      pop\n        /* \"#utility.yul\":19113:19882   */\n      pop\n      pop\n        /* \"#utility.yul\":19004:19882   */\n      swap3\n      swap2\n      pop\n      pop\n      jump\t// out\n        /* \"#utility.yul\":19888:20161   */\n    tag_116:\n        /* \"#utility.yul\":20019:20022   */\n      0x00\n        /* \"#utility.yul\":20041:20135   */\n      tag_534\n        /* \"#utility.yul\":20131:20134   */\n      dup3\n        /* \"#utility.yul\":20122:20128   */\n      dup5\n        /* \"#utility.yul\":20041:20135   */\n      tag_321\n      jump\t// in\n    tag_534:\n        /* \"#utility.yul\":20034:20135   */\n      swap2\n      pop\n        /* \"#utility.yul\":20152:20155   */\n      dup2\n        /* \"#utility.yul\":20145:20155   */\n      swap1\n      pop\n        /* \"#utility.yul\":19888:20161   */\n      swap3\n      swap2\n      pop\n      pop\n      jump\t// out\n        /* \"#utility.yul\":20167:20347   */\n    tag_322:\n        /* \"#utility.yul\":20215:20292   */\n      0x4e487b7100000000000000000000000000000000000000000000000000000000\n        /* \"#utility.yul\":20212:20213   */\n      0x00\n        /* \"#utility.yul\":20205:20293   */\n      mstore\n        /* \"#utility.yul\":20312:20316   */\n      0x11\n        /* \"#utility.yul\":20309:20310   */\n      0x04\n        /* \"#utility.yul\":20302:20317   */\n      mstore\n        /* \"#utility.yul\":20336:20340   */\n      0x24\n        /* \"#utility.yul\":20333:20334   */\n      0x00\n        /* \"#utility.yul\":20326:20341   */\n      revert\n        /* \"#utility.yul\":20353:20763   */\n    tag_122:\n        /* \"#utility.yul\":20393:20400   */\n      0x00\n        /* \"#utility.yul\":20416:20436   */\n      tag_537\n        /* \"#utility.yul\":20434:20435   */\n      dup3\n        /* \"#utility.yul\":20416:20436   */\n      tag_276\n      jump\t// in\n    tag_537:\n        /* \"#utility.yul\":20411:20436   */\n      swap2\n      pop\n        /* \"#utility.yul\":20450:20470   */\n      tag_538\n        /* \"#utility.yul\":20468:20469   */\n      dup4\n        /* \"#utility.yul\":20450:20470   */\n      tag_276\n      jump\t// in\n    tag_538:\n        /* \"#utility.yul\":20445:20470   */\n      swap3\n      pop\n        /* \"#utility.yul\":20505:20506   */\n      dup3\n        /* \"#utility.yul\":20502:20503   */\n      dup3\n        /* \"#utility.yul\":20498:20507   */\n      mul\n        /* \"#utility.yul\":20527:20557   */\n      tag_539\n        /* \"#utility.yul\":20545:20556   */\n      dup2\n        /* \"#utility.yul\":20527:20557   */\n      tag_276\n      jump\t// in\n    tag_539:\n        /* \"#utility.yul\":20516:20557   */\n      swap2\n      pop\n        /* \"#utility.yul\":20706:20707   */\n      dup3\n        /* \"#utility.yul\":20697:20704   */\n      dup3\n        /* \"#utility.yul\":20693:20708   */\n      div\n        /* \"#utility.yul\":20690:20691   */\n      dup5\n        /* \"#utility.yul\":20687:20709   */\n      eq\n        /* \"#utility.yul\":20667:20668   */\n      dup4\n        /* \"#utility.yul\":20660:20669   */\n      iszero\n        /* \"#utility.yul\":20640:20723   */\n      or\n        /* \"#utility.yul\":20617:20756   */\n      tag_540\n      jumpi\n        /* \"#utility.yul\":20736:20754   */\n      tag_541\n      tag_322\n      jump\t// in\n    tag_541:\n        /* \"#utility.yul\":20617:20756   */\n    tag_540:\n        /* \"#utility.yul\":20401:20763   */\n      pop\n        /* \"#utility.yul\":20353:20763   */\n      swap3\n      swap2\n      pop\n      pop\n      jump\t// out\n        /* \"#utility.yul\":20769:20942   */\n    tag_323:\n        /* \"#utility.yul\":20909:20934   */\n      0x496e73756666696369656e742066756e64732073656e74000000000000000000\n        /* \"#utility.yul\":20905:20906   */\n      0x00\n        /* \"#utility.yul\":20897:20903   */\n      dup3\n        /* \"#utility.yul\":20893:20907   */\n      add\n        /* \"#utility.yul\":20886:20935   */\n      mstore\n        /* \"#utility.yul\":20769:20942   */\n      pop\n      jump\t// out\n        /* \"#utility.yul\":20948:21314   */\n    tag_324:\n        /* \"#utility.yul\":21090:21093   */\n      0x00\n        /* \"#utility.yul\":21111:21178   */\n      tag_544\n        /* \"#utility.yul\":21175:21177   */\n      0x17\n        /* \"#utility.yul\":21170:21173   */\n      dup4\n        /* \"#utility.yul\":21111:21178   */\n      tag_286\n      jump\t// in\n    tag_544:\n        /* \"#utility.yul\":21104:21178   */\n      swap2\n      pop\n        /* \"#utility.yul\":21187:21280   */\n      tag_545\n        /* \"#utility.yul\":21276:21279   */\n      dup3\n        /* \"#utility.yul\":21187:21280   */\n      tag_323\n      jump\t// in\n    tag_545:\n        /* \"#utility.yul\":21305:21307   */\n      0x20\n        /* \"#utility.yul\":21300:21303   */\n      dup3\n        /* \"#utility.yul\":21296:21308   */\n      add\n        /* \"#utility.yul\":21289:21308   */\n      swap1\n      pop\n        /* \"#utility.yul\":20948:21314   */\n      swap2\n      swap1\n      pop\n      jump\t// out\n        /* \"#utility.yul\":21320:21739   */\n    tag_126:\n        /* \"#utility.yul\":21486:21490   */\n      0x00\n        /* \"#utility.yul\":21524:21526   */\n      0x20\n        /* \"#utility.yul\":21513:21522   */\n      dup3\n        /* \"#utility.yul\":21509:21527   */\n      add\n        /* \"#utility.yul\":21501:21527   */\n      swap1\n      pop\n        /* \"#utility.yul\":21573:21582   */\n      dup2\n        /* \"#utility.yul\":21567:21571   */\n      dup2\n        /* \"#utility.yul\":21563:21583   */\n      sub\n        /* \"#utility.yul\":21559:21560   */\n      0x00\n        /* \"#utility.yul\":21548:21557   */\n      dup4\n        /* \"#utility.yul\":21544:21561   */\n      add\n        /* \"#utility.yul\":21537:21584   */\n      mstore\n        /* \"#utility.yul\":21601:21732   */\n      tag_547\n        /* \"#utility.yul\":21727:21731   */\n      dup2\n        /* \"#utility.yul\":21601:21732   */\n      tag_324\n      jump\t// in\n    tag_547:\n        /* \"#utility.yul\":21593:21732   */\n      swap1\n      pop\n        /* \"#utility.yul\":21320:21739   */\n      swap2\n      swap1\n      pop\n      jump\t// out\n        /* \"#utility.yul\":21745:21939   */\n    tag_131:\n        /* \"#utility.yul\":21785:21789   */\n      0x00\n        /* \"#utility.yul\":21805:21825   */\n      tag_549\n        /* \"#utility.yul\":21823:21824   */\n      dup3\n        /* \"#utility.yul\":21805:21825   */\n      tag_276\n      jump\t// in\n    tag_549:\n        /* \"#utility.yul\":21800:21825   */\n      swap2\n      pop\n        /* \"#utility.yul\":21839:21859   */\n      tag_550\n        /* \"#utility.yul\":21857:21858   */\n      dup4\n        /* \"#utility.yul\":21839:21859   */\n      tag_276\n      jump\t// in\n    tag_550:\n        /* \"#utility.yul\":21834:21859   */\n      swap3\n      pop\n        /* \"#utility.yul\":21883:21884   */\n      dup3\n        /* \"#utility.yul\":21880:21881   */\n      dup3\n        /* \"#utility.yul\":21876:21885   */\n      sub\n        /* \"#utility.yul\":21868:21885   */\n      swap1\n      pop\n        /* \"#utility.yul\":21907:21908   */\n      dup2\n        /* \"#utility.yul\":21901:21905   */\n      dup2\n        /* \"#utility.yul\":21898:21909   */\n      gt\n        /* \"#utility.yul\":21895:21932   */\n      iszero\n      tag_551\n      jumpi\n        /* \"#utility.yul\":21912:21930   */\n      tag_552\n      tag_322\n      jump\t// in\n    tag_552:\n        /* \"#utility.yul\":21895:21932   */\n    tag_551:\n        /* \"#utility.yul\":21745:21939   */\n      swap3\n      swap2\n      pop\n      pop\n      jump\t// out\n        /* \"#utility.yul\":21945:22136   */\n    tag_136:\n        /* \"#utility.yul\":21985:21988   */\n      0x00\n        /* \"#utility.yul\":22004:22024   */\n      tag_554\n        /* \"#utility.yul\":22022:22023   */\n      dup3\n        /* \"#utility.yul\":22004:22024   */\n      tag_276\n      jump\t// in\n    tag_554:\n        /* \"#utility.yul\":21999:22024   */\n      swap2\n      pop\n        /* \"#utility.yul\":22038:22058   */\n      tag_555\n        /* \"#utility.yul\":22056:22057   */\n      dup4\n        /* \"#utility.yul\":22038:22058   */\n      tag_276\n      jump\t// in\n    tag_555:\n        /* \"#utility.yul\":22033:22058   */\n      swap3\n      pop\n        /* \"#utility.yul\":22081:22082   */\n      dup3\n        /* \"#utility.yul\":22078:22079   */\n      dup3\n        /* \"#utility.yul\":22074:22083   */\n      add\n        /* \"#utility.yul\":22067:22083   */\n      swap1\n      pop\n        /* \"#utility.yul\":22102:22105   */\n      dup1\n        /* \"#utility.yul\":22099:22100   */\n      dup3\n        /* \"#utility.yul\":22096:22106   */\n      gt\n        /* \"#utility.yul\":22093:22129   */\n      iszero\n      tag_556\n      jumpi\n        /* \"#utility.yul\":22109:22127   */\n      tag_557\n      tag_322\n      jump\t// in\n    tag_557:\n        /* \"#utility.yul\":22093:22129   */\n    tag_556:\n        /* \"#utility.yul\":21945:22136   */\n      swap3\n      swap2\n      pop\n      pop\n      jump\t// out\n        /* \"#utility.yul\":22142:22375   */\n    tag_138:\n        /* \"#utility.yul\":22181:22184   */\n      0x00\n        /* \"#utility.yul\":22204:22228   */\n      tag_559\n        /* \"#utility.yul\":22222:22227   */\n      dup3\n        /* \"#utility.yul\":22204:22228   */\n      tag_276\n      jump\t// in\n    tag_559:\n        /* \"#utility.yul\":22195:22228   */\n      swap2\n      pop\n        /* \"#utility.yul\":22250:22316   */\n      0xffffffffffffffffffffffffffffffffffffffffffffffffffffffffffffffff\n        /* \"#utility.yul\":22243:22248   */\n      dup3\n        /* \"#utility.yul\":22240:22317   */\n      sub\n        /* \"#utility.yul\":22237:22340   */\n      tag_560\n      jumpi\n        /* \"#utility.yul\":22320:22338   */\n      tag_561\n      tag_322\n      jump\t// in\n    tag_561:\n        /* \"#utility.yul\":22237:22340   */\n    tag_560:\n        /* \"#utility.yul\":22367:22368   */\n      0x01\n        /* \"#utility.yul\":22360:22365   */\n      dup3\n        /* \"#utility.yul\":22356:22369   */\n      add\n        /* \"#utility.yul\":22349:22369   */\n      swap1\n      pop\n        /* \"#utility.yul\":22142:22375   */\n      swap2\n      swap1\n      pop\n      jump\t// out\n        /* \"#utility.yul\":22381:22561   */\n    tag_325:\n        /* \"#utility.yul\":22429:22506   */\n      0x4e487b7100000000000000000000000000000000000000000000000000000000\n        /* \"#utility.yul\":22426:22427   */\n      0x00\n        /* \"#utility.yul\":22419:22507   */\n      mstore\n        /* \"#utility.yul\":22526:22530   */\n      0x12\n        /* \"#utility.yul\":22523:22524   */\n      0x04\n        /* \"#utility.yul\":22516:22531   */\n      mstore\n        /* \"#utility.yul\":22550:22554   */\n      0x24\n        /* \"#utility.yul\":22547:22548   */\n      0x00\n        /* \"#utility.yul\":22540:22555   */\n      revert\n        /* \"#utility.yul\":22567:22752   */\n    tag_149:\n        /* \"#utility.yul\":22607:22608   */\n      0x00\n        /* \"#utility.yul\":22624:22644   */\n      tag_564\n        /* \"#utility.yul\":22642:22643   */\n      dup3\n        /* \"#utility.yul\":22624:22644   */\n      tag_276\n      jump\t// in\n    tag_564:\n        /* \"#utility.yul\":22619:22644   */\n      swap2\n      pop\n        /* \"#utility.yul\":22658:22678   */\n      tag_565\n        /* \"#utility.yul\":22676:22677   */\n      dup4\n        /* \"#utility.yul\":22658:22678   */\n      tag_276\n      jump\t// in\n    tag_565:\n        /* \"#utility.yul\":22653:22678   */\n      swap3\n      pop\n        /* \"#utility.yul\":22697:22698   */\n      dup3\n        /* \"#utility.yul\":22687:22722   */\n      tag_566\n      jumpi\n        /* \"#utility.yul\":22702:22720   */\n      tag_567\n      tag_325\n      jump\t// in\n    tag_567:\n        /* \"#utility.yul\":22687:22722   */\n    tag_566:\n        /* \"#utility.yul\":22744:22745   */\n      dup3\n        /* \"#utility.yul\":22741:22742   */\n      dup3\n        /* \"#utility.yul\":22737:22746   */\n      div\n        /* \"#utility.yul\":22732:22746   */\n      swap1\n      pop\n        /* \"#utility.yul\":22567:22752   */\n      swap3\n      swap2\n      pop\n      pop\n      jump\t// out\n        /* \"#utility.yul\":22758:22837   */\n    tag_326:\n        /* \"#utility.yul\":22797:22804   */\n      0x00\n        /* \"#utility.yul\":22826:22831   */\n      dup2\n        /* \"#utility.yul\":22815:22831   */\n      swap1\n      pop\n        /* \"#utility.yul\":22758:22837   */\n      swap2\n      swap1\n      pop\n      jump\t// out\n        /* \"#utility.yul\":22843:23000   */\n    tag_327:\n        /* \"#utility.yul\":22948:22993   */\n      tag_570\n        /* \"#utility.yul\":22968:22992   */\n      tag_571\n        /* \"#utility.yul\":22986:22991   */\n      dup3\n        /* \"#utility.yul\":22968:22992   */\n      tag_276\n      jump\t// in\n    tag_571:\n        /* \"#utility.yul\":22948:22993   */\n      tag_326\n      jump\t// in\n    tag_570:\n        /* \"#utility.yul\":22943:22946   */\n      dup3\n        /* \"#utility.yul\":22936:22994   */\n      mstore\n        /* \"#utility.yul\":22843:23000   */\n      pop\n      pop\n      jump\t// out\n        /* \"#utility.yul\":23006:23100   */\n    tag_328:\n        /* \"#utility.yul\":23039:23047   */\n      0x00\n        /* \"#utility.yul\":23087:23092   */\n      dup2\n        /* \"#utility.yul\":23083:23085   */\n      0x60\n        /* \"#utility.yul\":23079:23093   */\n      shl\n        /* \"#utility.yul\":23058:23093   */\n      swap1\n      pop\n        /* \"#utility.yul\":23006:23100   */\n      swap2\n      swap1\n      pop\n      jump\t// out\n        /* \"#utility.yul\":23106:23200   */\n    tag_329:\n        /* \"#utility.yul\":23145:23152   */\n      0x00\n        /* \"#utility.yul\":23174:23194   */\n      tag_574\n        /* \"#utility.yul\":23188:23193   */\n      dup3\n        /* \"#utility.yul\":23174:23194   */\n      tag_328\n      jump\t// in\n    tag_574:\n        /* \"#utility.yul\":23163:23194   */\n      swap1\n      pop\n        /* \"#utility.yul\":23106:23200   */\n      swap2\n      swap1\n      pop\n      jump\t// out\n        /* \"#utility.yul\":23206:23306   */\n    tag_330:\n        /* \"#utility.yul\":23245:23252   */\n      0x00\n        /* \"#utility.yul\":23274:23300   */\n      tag_576\n        /* \"#utility.yul\":23294:23299   */\n      dup3\n        /* \"#utility.yul\":23274:23300   */\n      tag_329\n      jump\t// in\n    tag_576:\n        /* \"#utility.yul\":23263:23300   */\n      swap1\n      pop\n        /* \"#utility.yul\":23206:23306   */\n      swap2\n      swap1\n      pop\n      jump\t// out\n        /* \"#utility.yul\":23312:23469   */\n    tag_331:\n        /* \"#utility.yul\":23417:23462   */\n      tag_578\n        /* \"#utility.yul\":23437:23461   */\n      tag_579\n        /* \"#utility.yul\":23455:23460   */\n      dup3\n        /* \"#utility.yul\":23437:23461   */\n      tag_273\n      jump\t// in\n    tag_579:\n        /* \"#utility.yul\":23417:23462   */\n      tag_330\n      jump\t// in\n    tag_578:\n        /* \"#utility.yul\":23412:23415   */\n      dup3\n        /* \"#utility.yul\":23405:23463   */\n      mstore\n        /* \"#utility.yul\":23312:23469   */\n      pop\n      pop\n      jump\t// out\n        /* \"#utility.yul\":23475:24013   */\n    tag_190:\n        /* \"#utility.yul\":23643:23646   */\n      0x00\n        /* \"#utility.yul\":23658:23733   */\n      tag_581\n        /* \"#utility.yul\":23729:23732   */\n      dup3\n        /* \"#utility.yul\":23720:23726   */\n      dup7\n        /* \"#utility.yul\":23658:23733   */\n      tag_327\n      jump\t// in\n    tag_581:\n        /* \"#utility.yul\":23758:23760   */\n      0x20\n        /* \"#utility.yul\":23753:23756   */\n      dup3\n        /* \"#utility.yul\":23749:23761   */\n      add\n        /* \"#utility.yul\":23742:23761   */\n      swap2\n      pop\n        /* \"#utility.yul\":23771:23846   */\n      tag_582\n        /* \"#utility.yul\":23842:23845   */\n      dup3\n        /* \"#utility.yul\":23833:23839   */\n      dup6\n        /* \"#utility.yul\":23771:23846   */\n      tag_331\n      jump\t// in\n    tag_582:\n        /* \"#utility.yul\":23871:23873   */\n      0x14\n        /* \"#utility.yul\":23866:23869   */\n      dup3\n        /* \"#utility.yul\":23862:23874   */\n      add\n        /* \"#utility.yul\":23855:23874   */\n      swap2\n      pop\n        /* \"#utility.yul\":23884:23959   */\n      tag_583\n        /* \"#utility.yul\":23955:23958   */\n      dup3\n        /* \"#utility.yul\":23946:23952   */\n      dup5\n        /* \"#utility.yul\":23884:23959   */\n      tag_327\n      jump\t// in\n    tag_583:\n        /* \"#utility.yul\":23984:23986   */\n      0x20\n        /* \"#utility.yul\":23979:23982   */\n      dup3\n        /* \"#utility.yul\":23975:23987   */\n      add\n        /* \"#utility.yul\":23968:23987   */\n      swap2\n      pop\n        /* \"#utility.yul\":24004:24007   */\n      dup2\n        /* \"#utility.yul\":23997:24007   */\n      swap1\n      pop\n        /* \"#utility.yul\":23475:24013   */\n      swap5\n      swap4\n      pop\n      pop\n      pop\n      pop\n      jump\t// out\n        /* \"#utility.yul\":24019:24195   */\n    tag_192:\n        /* \"#utility.yul\":24051:24052   */\n      0x00\n        /* \"#utility.yul\":24068:24088   */\n      tag_585\n        /* \"#utility.yul\":24086:24087   */\n      dup3\n        /* \"#utility.yul\":24068:24088   */\n      tag_276\n      jump\t// in\n    tag_585:\n        /* \"#utility.yul\":24063:24088   */\n      swap2\n      pop\n        /* \"#utility.yul\":24102:24122   */\n      tag_586\n        /* \"#utility.yul\":24120:24121   */\n      dup4\n        /* \"#utility.yul\":24102:24122   */\n      tag_276\n      jump\t// in\n    tag_586:\n        /* \"#utility.yul\":24097:24122   */\n      swap3\n      pop\n        /* \"#utility.yul\":24141:24142   */\n      dup3\n        /* \"#utility.yul\":24131:24166   */\n      tag_587\n      jumpi\n        /* \"#utility.yul\":24146:24164   */\n      tag_588\n      tag_325\n      jump\t// in\n    tag_588:\n        /* \"#utility.yul\":24131:24166   */\n    tag_587:\n        /* \"#utility.yul\":24187:24188   */\n      dup3\n        /* \"#utility.yul\":24184:24185   */\n      dup3\n        /* \"#utility.yul\":24180:24189   */\n      mod\n        /* \"#utility.yul\":24175:24189   */\n      swap1\n      pop\n        /* \"#utility.yul\":24019:24195   */\n      swap3\n      swap2\n      pop\n      pop\n      jump\t// out\n        /* \"#utility.yul\":24201:24377   */\n    tag_332:\n        /* \"#utility.yul\":24341:24369   */\n      0x4e6f7420656e6f7567682073746f636b20617661696c61626c65000000000000\n        /* \"#utility.yul\":24337:24338   */\n      0x00\n        /* \"#utility.yul\":24329:24335   */\n      dup3\n        /* \"#utility.yul\":24325:24339   */\n      add\n        /* \"#utility.yul\":24318:24370   */\n      mstore\n        /* \"#utility.yul\":24201:24377   */\n      pop\n      jump\t// out\n        /* \"#utility.yul\":24383:24749   */\n    tag_333:\n        /* \"#utility.yul\":24525:24528   */\n      0x00\n        /* \"#utility.yul\":24546:24613   */\n      tag_591\n        /* \"#utility.yul\":24610:24612   */\n      0x1a\n        /* \"#utility.yul\":24605:24608   */\n      dup4\n        /* \"#utility.yul\":24546:24613   */\n      tag_286\n      jump\t// in\n    tag_591:\n        /* \"#utility.yul\":24539:24613   */\n      swap2\n      pop\n        /* \"#utility.yul\":24622:24715   */\n      tag_592\n        /* \"#utility.yul\":24711:24714   */\n      dup3\n        /* \"#utility.yul\":24622:24715   */\n      tag_332\n      jump\t// in\n    tag_592:\n        /* \"#utility.yul\":24740:24742   */\n      0x20\n        /* \"#utility.yul\":24735:24738   */\n      dup3\n        /* \"#utility.yul\":24731:24743   */\n      add\n        /* \"#utility.yul\":24724:24743   */\n      swap1\n      pop\n        /* \"#utility.yul\":24383:24749   */\n      swap2\n      swap1\n      pop\n      jump\t// out\n        /* \"#utility.yul\":24755:25174   */\n    tag_212:\n        /* \"#utility.yul\":24921:24925   */\n      0x00\n        /* \"#utility.yul\":24959:24961   */\n      0x20\n        /* \"#utility.yul\":24948:24957   */\n      dup3\n        /* \"#utility.yul\":24944:24962   */\n      add\n        /* \"#utility.yul\":24936:24962   */\n      swap1\n      pop\n        /* \"#utility.yul\":25008:25017   */\n      dup2\n        /* \"#utility.yul\":25002:25006   */\n      dup2\n        /* \"#utility.yul\":24998:25018   */\n      sub\n        /* \"#utility.yul\":24994:24995   */\n      0x00\n        /* \"#utility.yul\":24983:24992   */\n      dup4\n        /* \"#utility.yul\":24979:24996   */\n      add\n        /* \"#utility.yul\":24972:25019   */\n      mstore\n        /* \"#utility.yul\":25036:25167   */\n      tag_594\n        /* \"#utility.yul\":25162:25166   */\n      dup2\n        /* \"#utility.yul\":25036:25167   */\n      tag_333\n      jump\t// in\n    tag_594:\n        /* \"#utility.yul\":25028:25167   */\n      swap1\n      pop\n        /* \"#utility.yul\":24755:25174   */\n      swap2\n      swap1\n      pop\n      jump\t// out\n\n    auxdata: 0xa2646970667358221220fb44abc920a33b1b6bda4293ced48f6a1ea30fb3cce9447a9cc06b60aa75b1b264736f6c63430008120033\n}\n",
				"bytecode": {
					"linkReferences": {},
					"object": "608060405234801561001057600080fd5b506128ea806100206000396000f3fe60806040526004361061009c5760003560e01c8063410085df11610064578063410085df1461017a57806366d0dc6714610196578063805553e8146101ad5780638da5cb5b146101ea57806398968f1514610215578063a87430ba146102315761009c565b806303194133146100a157806305103ede146100ca57806333af9f8b146100e657806336da44681461010f5780633d5278831461013a575b600080fd5b3480156100ad57600080fd5b506100c860048036038101906100c39190611bc1565b61026e565b005b6100e460048036038101906100df9190611c5b565b6104a7565b005b3480156100f257600080fd5b5061010d60048036038101906101089190611cae565b610b1a565b005b34801561011b57600080fd5b50610124610d2c565b6040516101319190611d45565b60405180910390f35b34801561014657600080fd5b50610161600480360381019061015c9190611d60565b610d52565b6040516101719493929190611e3f565b60405180910390f35b610194600480360381019061018f9190611d60565b610e27565b005b3480156101a257600080fd5b506101ab6110c0565b005b3480156101b957600080fd5b506101d460048036038101906101cf9190611e8b565b611156565b6040516101e19190611eb8565b60405180910390f35b3480156101f657600080fd5b506101ff6111a8565b60405161020c9190611d45565b60405180910390f35b61022f600480360381019061022a9190611c5b565b6111cc565b005b34801561023d57600080fd5b5061025860048036038101906102539190611ed3565b611a36565b6040516102659190611f77565b60405180910390f35b60018681600281111561028457610283611f00565b5b600260003373ffffffffffffffffffffffffffffffffffffffff1673ffffffffffffffffffffffffffffffffffffffff16815260200190815260200160002060000160009054906101000a900460ff1660028111156102e6576102e5611f00565b5b14610326576040517f08c379a000000000000000000000000000000000000000000000000000000000815260040161031d90611fb8565b60405180910390fd5b8073ffffffffffffffffffffffffffffffffffffffff163373ffffffffffffffffffffffffffffffffffffffff1614610394576040517f08c379a000000000000000000000000000000000000000000000000000000000815260040161038b90612070565b60405180910390fd5b6000604051806080016040528089815260200188815260200187878080601f016020809104026020016040519081016040528093929190818152602001838380828437600081840152601f19601f820116905080830192505050505050508152602001858152509050600360008a73ffffffffffffffffffffffffffffffffffffffff1673ffffffffffffffffffffffffffffffffffffffff1681526020019081526020016000208190806001815401808255809150506001900390600052602060002090600402016000909190919091506000820151816000015560208201518160010155604082015181600201908161048f91906122cb565b50606082015181600301555050505050505050505050565b6001838160028111156104bd576104bc611f00565b5b600260003373ffffffffffffffffffffffffffffffffffffffff1673ffffffffffffffffffffffffffffffffffffffff16815260200190815260200160002060000160009054906101000a900460ff16600281111561051f5761051e611f00565b5b1461055f576040517f08c379a000000000000000000000000000000000000000000000000000000000815260040161055690611fb8565b60405180910390fd5b8073ffffffffffffffffffffffffffffffffffffffff163373ffffffffffffffffffffffffffffffffffffffff16146105cd576040517f08c379a00000000000000000000000000000000000000000000000000000000081526004016105c490612070565b60405180910390fd5b60008311610610576040517f08c379a00000000000000000000000000000000000000000000000000000000081526004016106079061240f565b60405180910390fd5b600360008673ffffffffffffffffffffffffffffffffffffffff1673ffffffffffffffffffffffffffffffffffffffff168152602001908152602001600020805490508410610694576040517f08c379a000000000000000000000000000000000000000000000000000000000815260040161068b9061247b565b60405180910390fd5b6000806000600360008973ffffffffffffffffffffffffffffffffffffffff1673ffffffffffffffffffffffffffffffffffffffff16815260200190815260200160002087815481106106ea576106e961249b565b5b90600052602060002090600402016002018054610706906120ee565b80601f0160208091040260200160405190810160405280929190818152602001828054610732906120ee565b801561077f5780601f106107545761010080835404028352916020019161077f565b820191906000526020600020905b81548152906001019060200180831161076257829003601f168201915b5050505050905060005b60036000600160009054906101000a900473ffffffffffffffffffffffffffffffffffffffff1673ffffffffffffffffffffffffffffffffffffffff1673ffffffffffffffffffffffffffffffffffffffff16815260200190815260200160002080549050811015610aae5760036000600160009054906101000a900473ffffffffffffffffffffffffffffffffffffffff1673ffffffffffffffffffffffffffffffffffffffff1673ffffffffffffffffffffffffffffffffffffffff16815260200190815260200160002081815481106108685761086761249b565b5b9060005260206000209060040201600201604051610886919061256d565b6040518091039020828051906020012003610a9b5760036000600160009054906101000a900473ffffffffffffffffffffffffffffffffffffffff1673ffffffffffffffffffffffffffffffffffffffff1673ffffffffffffffffffffffffffffffffffffffff168152602001908152602001600020818154811061090e5761090d61249b565b5b9060005260206000209060040201600101549250670de0b6b3a7640000878461093791906125b3565b61094191906125b3565b935083341015610986576040517f08c379a000000000000000000000000000000000000000000000000000000000815260040161097d90612641565b60405180910390fd5b8660036000600160009054906101000a900473ffffffffffffffffffffffffffffffffffffffff1673ffffffffffffffffffffffffffffffffffffffff1673ffffffffffffffffffffffffffffffffffffffff16815260200190815260200160002082815481106109fa576109f961249b565b5b90600052602060002090600402016000016000828254610a1a9190612661565b9250508190555086600360008b73ffffffffffffffffffffffffffffffffffffffff1673ffffffffffffffffffffffffffffffffffffffff1681526020019081526020016000208981548110610a7357610a7261249b565b5b90600052602060002090600402016000016000828254610a939190612695565b925050819055505b8080610aa6906126c9565b915050610789565b5082341115610b105760008334610ac59190612661565b90503373ffffffffffffffffffffffffffffffffffffffff166108fc829081150290604051600060405180830381858888f19350505050158015610b0d573d6000803e3d6000fd5b50505b5050505050505050565b33600160006101000a81548173ffffffffffffffffffffffffffffffffffffffff021916908373ffffffffffffffffffffffffffffffffffffffff1602179055506040518060200160405280600280811115610b7957610b78611f00565b5b81525060026000600160009054906101000a900473ffffffffffffffffffffffffffffffffffffffff1673ffffffffffffffffffffffffffffffffffffffff1673ffffffffffffffffffffffffffffffffffffffff16815260200190815260200160002060008201518160000160006101000a81548160ff02191690836002811115610c0857610c07611f00565b5b021790555090505060006040518060800160405280878152602001600287610c309190612740565b815260200185858080601f016020809104026020016040519081016040528093929190818152602001838380828437600081840152601f19601f820116905080830192505050505050508152602001838152509050600360003373ffffffffffffffffffffffffffffffffffffffff1673ffffffffffffffffffffffffffffffffffffffff16815260200190815260200160002081908060018154018082558091505060019003906000526020600020906004020160009091909190915060008201518160000155602082015181600101556040820151816002019081610d1791906122cb565b50606082015181600301555050505050505050565b600160009054906101000a900473ffffffffffffffffffffffffffffffffffffffff1681565b60036020528160005260406000208181548110610d6e57600080fd5b906000526020600020906004020160009150915050806000015490806001015490806002018054610d9e906120ee565b80601f0160208091040260200160405190810160405280929190818152602001828054610dca906120ee565b8015610e175780601f10610dec57610100808354040283529160200191610e17565b820191906000526020600020905b815481529060010190602001808311610dfa57829003601f168201915b5050505050908060030154905084565b6000600360003373ffffffffffffffffffffffffffffffffffffffff1673ffffffffffffffffffffffffffffffffffffffff1681526020019081526020016000208281548110610e7a57610e7961249b565b5b90600052602060002090600402016003015490506000600360008573ffffffffffffffffffffffffffffffffffffffff1673ffffffffffffffffffffffffffffffffffffffff1681526020019081526020016000208381548110610ee157610ee061249b565b5b9060005260206000209060040201600301549050808211610f0157600080fd5b6000670de0b6b3a7640000600360008773ffffffffffffffffffffffffffffffffffffffff1673ffffffffffffffffffffffffffffffffffffffff1681526020019081526020016000208581548110610f5d57610f5c61249b565b5b906000526020600020906004020160010154600360003373ffffffffffffffffffffffffffffffffffffffff1673ffffffffffffffffffffffffffffffffffffffff1681526020019081526020016000208681548110610fc057610fbf61249b565b5b906000526020600020906004020160000154610fdc91906125b3565b610fe691906125b3565b9050600360003373ffffffffffffffffffffffffffffffffffffffff1673ffffffffffffffffffffffffffffffffffffffff16815260200190815260200160002084815481106110395761103861249b565b5b906000526020600020906004020160008082016000905560018201600090556002820160006110689190611a61565b600382016000905550503373ffffffffffffffffffffffffffffffffffffffff166108fc829081150290604051600060405180830381858888f193505050501580156110b8573d6000803e3d6000fd5b505050505050565b6040518060200160405280600160028111156110df576110de611f00565b5b815250600260003373ffffffffffffffffffffffffffffffffffffffff1673ffffffffffffffffffffffffffffffffffffffff16815260200190815260200160002060008201518160000160006101000a81548160ff0219169083600281111561114c5761114b611f00565b5b0217905550905050565b6000808080611164906126c9565b9150508242338360405160200161117d939291906127da565b6040516020818303038152906040528051906020012060001c6111a09190612817565b915050919050565b60008054906101000a900473ffffffffffffffffffffffffffffffffffffffff1681565b600060028111156111e0576111df611f00565b5b600260003373ffffffffffffffffffffffffffffffffffffffff1673ffffffffffffffffffffffffffffffffffffffff16815260200190815260200160002060000160009054906101000a900460ff16600281111561124257611241611f00565b5b036112dc5760405180602001604052806000600281111561126657611265611f00565b5b815250600260003373ffffffffffffffffffffffffffffffffffffffff1673ffffffffffffffffffffffffffffffffffffffff16815260200190815260200160002060008201518160000160006101000a81548160ff021916908360028111156112d3576112d2611f00565b5b02179055509050505b6000821161131f576040517f08c379a00000000000000000000000000000000000000000000000000000000081526004016113169061240f565b60405180910390fd5b600360008473ffffffffffffffffffffffffffffffffffffffff1673ffffffffffffffffffffffffffffffffffffffff1681526020019081526020016000208054905081106113a3576040517f08c379a000000000000000000000000000000000000000000000000000000000815260040161139a9061247b565b60405180910390fd5b600360008473ffffffffffffffffffffffffffffffffffffffff1673ffffffffffffffffffffffffffffffffffffffff16815260200190815260200160002081815481106113f4576113f361249b565b5b906000526020600020906004020160000154821115611448576040517f08c379a000000000000000000000000000000000000000000000000000000000815260040161143f90612894565b60405180910390fd5b6000670de0b6b3a7640000600360008673ffffffffffffffffffffffffffffffffffffffff1673ffffffffffffffffffffffffffffffffffffffff16815260200190815260200160002083815481106114a4576114a361249b565b5b906000526020600020906004020160010154846114c191906125b3565b6114cb91906125b3565b905080341015611510576040517f08c379a000000000000000000000000000000000000000000000000000000000815260040161150790612641565b60405180910390fd5b6000805b600360003373ffffffffffffffffffffffffffffffffffffffff1673ffffffffffffffffffffffffffffffffffffffff168152602001908152602001600020805490508110156116e657600360008773ffffffffffffffffffffffffffffffffffffffff1673ffffffffffffffffffffffffffffffffffffffff16815260200190815260200160002084815481106115af576115ae61249b565b5b90600052602060002090600402016002016040516115cd919061256d565b6040518091039020600360003373ffffffffffffffffffffffffffffffffffffffff1673ffffffffffffffffffffffffffffffffffffffff16815260200190815260200160002082815481106116265761162561249b565b5b9060005260206000209060040201600201604051611644919061256d565b6040518091039020036116d35784600360003373ffffffffffffffffffffffffffffffffffffffff1673ffffffffffffffffffffffffffffffffffffffff16815260200190815260200160002082815481106116a3576116a261249b565b5b906000526020600020906004020160000160008282546116c39190612695565b92505081905550600191506116e6565b80806116de906126c9565b915050611514565b50806119085760006040518060800160405280868152602001600360008973ffffffffffffffffffffffffffffffffffffffff1673ffffffffffffffffffffffffffffffffffffffff16815260200190815260200160002086815481106117505761174f61249b565b5b9060005260206000209060040201600101548152602001600360008973ffffffffffffffffffffffffffffffffffffffff1673ffffffffffffffffffffffffffffffffffffffff16815260200190815260200160002086815481106117b8576117b761249b565b5b906000526020600020906004020160020180546117d4906120ee565b80601f0160208091040260200160405190810160405280929190818152602001828054611800906120ee565b801561184d5780601f106118225761010080835404028352916020019161184d565b820191906000526020600020905b81548152906001019060200180831161183057829003601f168201915b505050505081526020016118626103e8611156565b8152509050600360003373ffffffffffffffffffffffffffffffffffffffff1673ffffffffffffffffffffffffffffffffffffffff168152602001908152602001600020819080600181540180825580915050600190039060005260206000209060040201600090919091909150600082015181600001556020820151816001015560408201518160020190816118f991906122cb565b50606082015181600301555050505b83600360008773ffffffffffffffffffffffffffffffffffffffff1673ffffffffffffffffffffffffffffffffffffffff168152602001908152602001600020848154811061195a5761195961249b565b5b9060005260206000209060040201600001600082825461197a9190612661565b92505081905550813411156119e257600082346119979190612661565b90503373ffffffffffffffffffffffffffffffffffffffff166108fc829081150290604051600060405180830381858888f193505050501580156119df573d6000803e3d6000fd5b50505b60004790508573ffffffffffffffffffffffffffffffffffffffff166108fc829081150290604051600060405180830381858888f19350505050158015611a2d573d6000803e3d6000fd5b50505050505050565b60026020528060005260406000206000915090508060000160009054906101000a900460ff16905081565b508054611a6d906120ee565b6000825580601f10611a7f5750611a9e565b601f016020900490600052602060002090810190611a9d9190611aa1565b5b50565b5b80821115611aba576000816000905550600101611aa2565b5090565b600080fd5b600080fd5b600073ffffffffffffffffffffffffffffffffffffffff82169050919050565b6000611af382611ac8565b9050919050565b611b0381611ae8565b8114611b0e57600080fd5b50565b600081359050611b2081611afa565b92915050565b6000819050919050565b611b3981611b26565b8114611b4457600080fd5b50565b600081359050611b5681611b30565b92915050565b600080fd5b600080fd5b600080fd5b60008083601f840112611b8157611b80611b5c565b5b8235905067ffffffffffffffff811115611b9e57611b9d611b61565b5b602083019150836001820283011115611bba57611bb9611b66565b5b9250929050565b60008060008060008060a08789031215611bde57611bdd611abe565b5b6000611bec89828a01611b11565b9650506020611bfd89828a01611b47565b9550506040611c0e89828a01611b47565b945050606087013567ffffffffffffffff811115611c2f57611c2e611ac3565b5b611c3b89828a01611b6b565b93509350506080611c4e89828a01611b47565b9150509295509295509295565b600080600060608486031215611c7457611c73611abe565b5b6000611c8286828701611b11565b9350506020611c9386828701611b47565b9250506040611ca486828701611b47565b9150509250925092565b600080600080600060808688031215611cca57611cc9611abe565b5b6000611cd888828901611b47565b9550506020611ce988828901611b47565b945050604086013567ffffffffffffffff811115611d0a57611d09611ac3565b5b611d1688828901611b6b565b93509350506060611d2988828901611b47565b9150509295509295909350565b611d3f81611ae8565b82525050565b6000602082019050611d5a6000830184611d36565b92915050565b60008060408385031215611d7757611d76611abe565b5b6000611d8585828601611b11565b9250506020611d9685828601611b47565b9150509250929050565b611da981611b26565b82525050565b600081519050919050565b600082825260208201905092915050565b60005b83811015611de9578082015181840152602081019050611dce565b60008484015250505050565b6000601f19601f8301169050919050565b6000611e1182611daf565b611e1b8185611dba565b9350611e2b818560208601611dcb565b611e3481611df5565b840191505092915050565b6000608082019050611e546000830187611da0565b611e616020830186611da0565b8181036040830152611e738185611e06565b9050611e826060830184611da0565b95945050505050565b600060208284031215611ea157611ea0611abe565b5b6000611eaf84828501611b47565b91505092915050565b6000602082019050611ecd6000830184611da0565b92915050565b600060208284031215611ee957611ee8611abe565b5b6000611ef784828501611b11565b91505092915050565b7f4e487b7100000000000000000000000000000000000000000000000000000000600052602160045260246000fd5b60038110611f4057611f3f611f00565b5b50565b6000819050611f5182611f2f565b919050565b6000611f6182611f43565b9050919050565b611f7181611f56565b82525050565b6000602082019050611f8c6000830184611f68565b92915050565b50565b6000611fa2600083611dba565b9150611fad82611f92565b600082019050919050565b60006020820190508181036000830152611fd181611f95565b9050919050565b7fd09cd0b0d0b3d0b0d0b7d0b8d0bd20d0bdd0b520d181d0bed0bed182d0b2d0b560008201527fd182d181d0b2d183d0b5d18220d0bed182d0bfd180d0b0d0b2d0b8d182d0b5d060208201527fbbd18e0000000000000000000000000000000000000000000000000000000000604082015250565b600061205a604383611dba565b915061206582611fd8565b606082019050919050565b600060208201905081810360008301526120898161204d565b9050919050565b7f4e487b7100000000000000000000000000000000000000000000000000000000600052604160045260246000fd5b7f4e487b7100000000000000000000000000000000000000000000000000000000600052602260045260246000fd5b6000600282049050600182168061210657607f821691505b602082108103612119576121186120bf565b5b50919050565b60008190508160005260206000209050919050565b60006020601f8301049050919050565b600082821b905092915050565b6000600883026121817fffffffffffffffffffffffffffffffffffffffffffffffffffffffffffffffff82612144565b61218b8683612144565b95508019841693508086168417925050509392505050565b6000819050919050565b60006121c86121c36121be84611b26565b6121a3565b611b26565b9050919050565b6000819050919050565b6121e2836121ad565b6121f66121ee826121cf565b848454612151565b825550505050565b600090565b61220b6121fe565b6122168184846121d9565b505050565b5b8181101561223a5761222f600082612203565b60018101905061221c565b5050565b601f82111561227f576122508161211f565b61225984612134565b81016020851015612268578190505b61227c61227485612134565b83018261221b565b50505b505050565b600082821c905092915050565b60006122a260001984600802612284565b1980831691505092915050565b60006122bb8383612291565b9150826002028217905092915050565b6122d482611daf565b67ffffffffffffffff8111156122ed576122ec612090565b5b6122f782546120ee565b61230282828561223e565b600060209050601f8311600181146123355760008415612323578287015190505b61232d85826122af565b865550612395565b601f1984166123438661211f565b60005b8281101561236b57848901518255600182019150602085019450602081019050612346565b868310156123885784890151612384601f891682612291565b8355505b6001600288020188555050505b505050505050565b7f507572636861736520616d6f756e74206d75737420626520677265617465722060008201527f7468616e20300000000000000000000000000000000000000000000000000000602082015250565b60006123f9602683611dba565b91506124048261239d565b604082019050919050565b60006020820190508181036000830152612428816123ec565b9050919050565b7f496e76616c69642070726f647563742049440000000000000000000000000000600082015250565b6000612465601283611dba565b91506124708261242f565b602082019050919050565b6000602082019050818103600083015261249481612458565b9050919050565b7f4e487b7100000000000000000000000000000000000000000000000000000000600052603260045260246000fd5b600081905092915050565b60008190508160005260206000209050919050565b600081546124f7816120ee565b61250181866124ca565b9450600182166000811461251c576001811461253157612564565b60ff1983168652811515820286019350612564565b61253a856124d5565b60005b8381101561255c5781548189015260018201915060208101905061253d565b838801955050505b50505092915050565b600061257982846124ea565b915081905092915050565b7f4e487b7100000000000000000000000000000000000000000000000000000000600052601160045260246000fd5b60006125be82611b26565b91506125c983611b26565b92508282026125d781611b26565b915082820484148315176125ee576125ed612584565b5b5092915050565b7f496e73756666696369656e742066756e64732073656e74000000000000000000600082015250565b600061262b601783611dba565b9150612636826125f5565b602082019050919050565b6000602082019050818103600083015261265a8161261e565b9050919050565b600061266c82611b26565b915061267783611b26565b925082820390508181111561268f5761268e612584565b5b92915050565b60006126a082611b26565b91506126ab83611b26565b92508282019050808211156126c3576126c2612584565b5b92915050565b60006126d482611b26565b91507fffffffffffffffffffffffffffffffffffffffffffffffffffffffffffffffff820361270657612705612584565b5b600182019050919050565b7f4e487b7100000000000000000000000000000000000000000000000000000000600052601260045260246000fd5b600061274b82611b26565b915061275683611b26565b92508261276657612765612711565b5b828204905092915050565b6000819050919050565b61278c61278782611b26565b612771565b82525050565b60008160601b9050919050565b60006127aa82612792565b9050919050565b60006127bc8261279f565b9050919050565b6127d46127cf82611ae8565b6127b1565b82525050565b60006127e6828661277b565b6020820191506127f682856127c3565b601482019150612806828461277b565b602082019150819050949350505050565b600061282282611b26565b915061282d83611b26565b92508261283d5761283c612711565b5b828206905092915050565b7f4e6f7420656e6f7567682073746f636b20617661696c61626c65000000000000600082015250565b600061287e601a83611dba565b915061288982612848565b602082019050919050565b600060208201905081810360008301526128ad81612871565b905091905056fea2646970667358221220fb44abc920a33b1b6bda4293ced48f6a1ea30fb3cce9447a9cc06b60aa75b1b264736f6c63430008120033",
					"opcodes": "PUSH1 0x80 PUSH1 0x40 MSTORE CALLVALUE DUP1 ISZERO PUSH2 0x10 JUMPI PUSH1 0x0 DUP1 REVERT JUMPDEST POP PUSH2 0x28EA DUP1 PUSH2 0x20 PUSH1 0x0 CODECOPY PUSH1 0x0 RETURN INVALID PUSH1 0x80 PUSH1 0x40 MSTORE PUSH1 0x4 CALLDATASIZE LT PUSH2 0x9C JUMPI PUSH1 0x0 CALLDATALOAD PUSH1 0xE0 SHR DUP1 PUSH4 0x410085DF GT PUSH2 0x64 JUMPI DUP1 PUSH4 0x410085DF EQ PUSH2 0x17A JUMPI DUP1 PUSH4 0x66D0DC67 EQ PUSH2 0x196 JUMPI DUP1 PUSH4 0x805553E8 EQ PUSH2 0x1AD JUMPI DUP1 PUSH4 0x8DA5CB5B EQ PUSH2 0x1EA JUMPI DUP1 PUSH4 0x98968F15 EQ PUSH2 0x215 JUMPI DUP1 PUSH4 0xA87430BA EQ PUSH2 0x231 JUMPI PUSH2 0x9C JUMP JUMPDEST DUP1 PUSH4 0x3194133 EQ PUSH2 0xA1 JUMPI DUP1 PUSH4 0x5103EDE EQ PUSH2 0xCA JUMPI DUP1 PUSH4 0x33AF9F8B EQ PUSH2 0xE6 JUMPI DUP1 PUSH4 0x36DA4468 EQ PUSH2 0x10F JUMPI DUP1 PUSH4 0x3D527883 EQ PUSH2 0x13A JUMPI JUMPDEST PUSH1 0x0 DUP1 REVERT JUMPDEST CALLVALUE DUP1 ISZERO PUSH2 0xAD JUMPI PUSH1 0x0 DUP1 REVERT JUMPDEST POP PUSH2 0xC8 PUSH1 0x4 DUP1 CALLDATASIZE SUB DUP2 ADD SWAP1 PUSH2 0xC3 SWAP2 SWAP1 PUSH2 0x1BC1 JUMP JUMPDEST PUSH2 0x26E JUMP JUMPDEST STOP JUMPDEST PUSH2 0xE4 PUSH1 0x4 DUP1 CALLDATASIZE SUB DUP2 ADD SWAP1 PUSH2 0xDF SWAP2 SWAP1 PUSH2 0x1C5B JUMP JUMPDEST PUSH2 0x4A7 JUMP JUMPDEST STOP JUMPDEST CALLVALUE DUP1 ISZERO PUSH2 0xF2 JUMPI PUSH1 0x0 DUP1 REVERT JUMPDEST POP PUSH2 0x10D PUSH1 0x4 DUP1 CALLDATASIZE SUB DUP2 ADD SWAP1 PUSH2 0x108 SWAP2 SWAP1 PUSH2 0x1CAE JUMP JUMPDEST PUSH2 0xB1A JUMP JUMPDEST STOP JUMPDEST CALLVALUE DUP1 ISZERO PUSH2 0x11B JUMPI PUSH1 0x0 DUP1 REVERT JUMPDEST POP PUSH2 0x124 PUSH2 0xD2C JUMP JUMPDEST PUSH1 0x40 MLOAD PUSH2 0x131 SWAP2 SWAP1 PUSH2 0x1D45 JUMP JUMPDEST PUSH1 0x40 MLOAD DUP1 SWAP2 SUB SWAP1 RETURN JUMPDEST CALLVALUE DUP1 ISZERO PUSH2 0x146 JUMPI PUSH1 0x0 DUP1 REVERT JUMPDEST POP PUSH2 0x161 PUSH1 0x4 DUP1 CALLDATASIZE SUB DUP2 ADD SWAP1 PUSH2 0x15C SWAP2 SWAP1 PUSH2 0x1D60 JUMP JUMPDEST PUSH2 0xD52 JUMP JUMPDEST PUSH1 0x40 MLOAD PUSH2 0x171 SWAP5 SWAP4 SWAP3 SWAP2 SWAP1 PUSH2 0x1E3F JUMP JUMPDEST PUSH1 0x40 MLOAD DUP1 SWAP2 SUB SWAP1 RETURN JUMPDEST PUSH2 0x194 PUSH1 0x4 DUP1 CALLDATASIZE SUB DUP2 ADD SWAP1 PUSH2 0x18F SWAP2 SWAP1 PUSH2 0x1D60 JUMP JUMPDEST PUSH2 0xE27 JUMP JUMPDEST STOP JUMPDEST CALLVALUE DUP1 ISZERO PUSH2 0x1A2 JUMPI PUSH1 0x0 DUP1 REVERT JUMPDEST POP PUSH2 0x1AB PUSH2 0x10C0 JUMP JUMPDEST STOP JUMPDEST CALLVALUE DUP1 ISZERO PUSH2 0x1B9 JUMPI PUSH1 0x0 DUP1 REVERT JUMPDEST POP PUSH2 0x1D4 PUSH1 0x4 DUP1 CALLDATASIZE SUB DUP2 ADD SWAP1 PUSH2 0x1CF SWAP2 SWAP1 PUSH2 0x1E8B JUMP JUMPDEST PUSH2 0x1156 JUMP JUMPDEST PUSH1 0x40 MLOAD PUSH2 0x1E1 SWAP2 SWAP1 PUSH2 0x1EB8 JUMP JUMPDEST PUSH1 0x40 MLOAD DUP1 SWAP2 SUB SWAP1 RETURN JUMPDEST CALLVALUE DUP1 ISZERO PUSH2 0x1F6 JUMPI PUSH1 0x0 DUP1 REVERT JUMPDEST POP PUSH2 0x1FF PUSH2 0x11A8 JUMP JUMPDEST PUSH1 0x40 MLOAD PUSH2 0x20C SWAP2 SWAP1 PUSH2 0x1D45 JUMP JUMPDEST PUSH1 0x40 MLOAD DUP1 SWAP2 SUB SWAP1 RETURN JUMPDEST PUSH2 0x22F PUSH1 0x4 DUP1 CALLDATASIZE SUB DUP2 ADD SWAP1 PUSH2 0x22A SWAP2 SWAP1 PUSH2 0x1C5B JUMP JUMPDEST PUSH2 0x11CC JUMP JUMPDEST STOP JUMPDEST CALLVALUE DUP1 ISZERO PUSH2 0x23D JUMPI PUSH1 0x0 DUP1 REVERT JUMPDEST POP PUSH2 0x258 PUSH1 0x4 DUP1 CALLDATASIZE SUB DUP2 ADD SWAP1 PUSH2 0x253 SWAP2 SWAP1 PUSH2 0x1ED3 JUMP JUMPDEST PUSH2 0x1A36 JUMP JUMPDEST PUSH1 0x40 MLOAD PUSH2 0x265 SWAP2 SWAP1 PUSH2 0x1F77 JUMP JUMPDEST PUSH1 0x40 MLOAD DUP1 SWAP2 SUB SWAP1 RETURN JUMPDEST PUSH1 0x1 DUP7 DUP2 PUSH1 0x2 DUP2 GT ISZERO PUSH2 0x284 JUMPI PUSH2 0x283 PUSH2 0x1F00 JUMP JUMPDEST JUMPDEST PUSH1 0x2 PUSH1 0x0 CALLER PUSH20 0xFFFFFFFFFFFFFFFFFFFFFFFFFFFFFFFFFFFFFFFF AND PUSH20 0xFFFFFFFFFFFFFFFFFFFFFFFFFFFFFFFFFFFFFFFF AND DUP2 MSTORE PUSH1 0x20 ADD SWAP1 DUP2 MSTORE PUSH1 0x20 ADD PUSH1 0x0 KECCAK256 PUSH1 0x0 ADD PUSH1 0x0 SWAP1 SLOAD SWAP1 PUSH2 0x100 EXP SWAP1 DIV PUSH1 0xFF AND PUSH1 0x2 DUP2 GT ISZERO PUSH2 0x2E6 JUMPI PUSH2 0x2E5 PUSH2 0x1F00 JUMP JUMPDEST JUMPDEST EQ PUSH2 0x326 JUMPI PUSH1 0x40 MLOAD PUSH32 0x8C379A000000000000000000000000000000000000000000000000000000000 DUP2 MSTORE PUSH1 0x4 ADD PUSH2 0x31D SWAP1 PUSH2 0x1FB8 JUMP JUMPDEST PUSH1 0x40 MLOAD DUP1 SWAP2 SUB SWAP1 REVERT JUMPDEST DUP1 PUSH20 0xFFFFFFFFFFFFFFFFFFFFFFFFFFFFFFFFFFFFFFFF AND CALLER PUSH20 0xFFFFFFFFFFFFFFFFFFFFFFFFFFFFFFFFFFFFFFFF AND EQ PUSH2 0x394 JUMPI PUSH1 0x40 MLOAD PUSH32 0x8C379A000000000000000000000000000000000000000000000000000000000 DUP2 MSTORE PUSH1 0x4 ADD PUSH2 0x38B SWAP1 PUSH2 0x2070 JUMP JUMPDEST PUSH1 0x40 MLOAD DUP1 SWAP2 SUB SWAP1 REVERT JUMPDEST PUSH1 0x0 PUSH1 0x40 MLOAD DUP1 PUSH1 0x80 ADD PUSH1 0x40 MSTORE DUP1 DUP10 DUP2 MSTORE PUSH1 0x20 ADD DUP9 DUP2 MSTORE PUSH1 0x20 ADD DUP8 DUP8 DUP1 DUP1 PUSH1 0x1F ADD PUSH1 0x20 DUP1 SWAP2 DIV MUL PUSH1 0x20 ADD PUSH1 0x40 MLOAD SWAP1 DUP2 ADD PUSH1 0x40 MSTORE DUP1 SWAP4 SWAP3 SWAP2 SWAP1 DUP2 DUP2 MSTORE PUSH1 0x20 ADD DUP4 DUP4 DUP1 DUP3 DUP5 CALLDATACOPY PUSH1 0x0 DUP2 DUP5 ADD MSTORE PUSH1 0x1F NOT PUSH1 0x1F DUP3 ADD AND SWAP1 POP DUP1 DUP4 ADD SWAP3 POP POP POP POP POP POP POP DUP2 MSTORE PUSH1 0x20 ADD DUP6 DUP2 MSTORE POP SWAP1 POP PUSH1 0x3 PUSH1 0x0 DUP11 PUSH20 0xFFFFFFFFFFFFFFFFFFFFFFFFFFFFFFFFFFFFFFFF AND PUSH20 0xFFFFFFFFFFFFFFFFFFFFFFFFFFFFFFFFFFFFFFFF AND DUP2 MSTORE PUSH1 0x20 ADD SWAP1 DUP2 MSTORE PUSH1 0x20 ADD PUSH1 0x0 KECCAK256 DUP2 SWAP1 DUP1 PUSH1 0x1 DUP2 SLOAD ADD DUP1 DUP3 SSTORE DUP1 SWAP2 POP POP PUSH1 0x1 SWAP1 SUB SWAP1 PUSH1 0x0 MSTORE PUSH1 0x20 PUSH1 0x0 KECCAK256 SWAP1 PUSH1 0x4 MUL ADD PUSH1 0x0 SWAP1 SWAP2 SWAP1 SWAP2 SWAP1 SWAP2 POP PUSH1 0x0 DUP3 ADD MLOAD DUP2 PUSH1 0x0 ADD SSTORE PUSH1 0x20 DUP3 ADD MLOAD DUP2 PUSH1 0x1 ADD SSTORE PUSH1 0x40 DUP3 ADD MLOAD DUP2 PUSH1 0x2 ADD SWAP1 DUP2 PUSH2 0x48F SWAP2 SWAP1 PUSH2 0x22CB JUMP JUMPDEST POP PUSH1 0x60 DUP3 ADD MLOAD DUP2 PUSH1 0x3 ADD SSTORE POP POP POP POP POP POP POP POP POP POP POP JUMP JUMPDEST PUSH1 0x1 DUP4 DUP2 PUSH1 0x2 DUP2 GT ISZERO PUSH2 0x4BD JUMPI PUSH2 0x4BC PUSH2 0x1F00 JUMP JUMPDEST JUMPDEST PUSH1 0x2 PUSH1 0x0 CALLER PUSH20 0xFFFFFFFFFFFFFFFFFFFFFFFFFFFFFFFFFFFFFFFF AND PUSH20 0xFFFFFFFFFFFFFFFFFFFFFFFFFFFFFFFFFFFFFFFF AND DUP2 MSTORE PUSH1 0x20 ADD SWAP1 DUP2 MSTORE PUSH1 0x20 ADD PUSH1 0x0 KECCAK256 PUSH1 0x0 ADD PUSH1 0x0 SWAP1 SLOAD SWAP1 PUSH2 0x100 EXP SWAP1 DIV PUSH1 0xFF AND PUSH1 0x2 DUP2 GT ISZERO PUSH2 0x51F JUMPI PUSH2 0x51E PUSH2 0x1F00 JUMP JUMPDEST JUMPDEST EQ PUSH2 0x55F JUMPI PUSH1 0x40 MLOAD PUSH32 0x8C379A000000000000000000000000000000000000000000000000000000000 DUP2 MSTORE PUSH1 0x4 ADD PUSH2 0x556 SWAP1 PUSH2 0x1FB8 JUMP JUMPDEST PUSH1 0x40 MLOAD DUP1 SWAP2 SUB SWAP1 REVERT JUMPDEST DUP1 PUSH20 0xFFFFFFFFFFFFFFFFFFFFFFFFFFFFFFFFFFFFFFFF AND CALLER PUSH20 0xFFFFFFFFFFFFFFFFFFFFFFFFFFFFFFFFFFFFFFFF AND EQ PUSH2 0x5CD JUMPI PUSH1 0x40 MLOAD PUSH32 0x8C379A000000000000000000000000000000000000000000000000000000000 DUP2 MSTORE PUSH1 0x4 ADD PUSH2 0x5C4 SWAP1 PUSH2 0x2070 JUMP JUMPDEST PUSH1 0x40 MLOAD DUP1 SWAP2 SUB SWAP1 REVERT JUMPDEST PUSH1 0x0 DUP4 GT PUSH2 0x610 JUMPI PUSH1 0x40 MLOAD PUSH32 0x8C379A000000000000000000000000000000000000000000000000000000000 DUP2 MSTORE PUSH1 0x4 ADD PUSH2 0x607 SWAP1 PUSH2 0x240F JUMP JUMPDEST PUSH1 0x40 MLOAD DUP1 SWAP2 SUB SWAP1 REVERT JUMPDEST PUSH1 0x3 PUSH1 0x0 DUP7 PUSH20 0xFFFFFFFFFFFFFFFFFFFFFFFFFFFFFFFFFFFFFFFF AND PUSH20 0xFFFFFFFFFFFFFFFFFFFFFFFFFFFFFFFFFFFFFFFF AND DUP2 MSTORE PUSH1 0x20 ADD SWAP1 DUP2 MSTORE PUSH1 0x20 ADD PUSH1 0x0 KECCAK256 DUP1 SLOAD SWAP1 POP DUP5 LT PUSH2 0x694 JUMPI PUSH1 0x40 MLOAD PUSH32 0x8C379A000000000000000000000000000000000000000000000000000000000 DUP2 MSTORE PUSH1 0x4 ADD PUSH2 0x68B SWAP1 PUSH2 0x247B JUMP JUMPDEST PUSH1 0x40 MLOAD DUP1 SWAP2 SUB SWAP1 REVERT JUMPDEST PUSH1 0x0 DUP1 PUSH1 0x0 PUSH1 0x3 PUSH1 0x0 DUP10 PUSH20 0xFFFFFFFFFFFFFFFFFFFFFFFFFFFFFFFFFFFFFFFF AND PUSH20 0xFFFFFFFFFFFFFFFFFFFFFFFFFFFFFFFFFFFFFFFF AND DUP2 MSTORE PUSH1 0x20 ADD SWAP1 DUP2 MSTORE PUSH1 0x20 ADD PUSH1 0x0 KECCAK256 DUP8 DUP2 SLOAD DUP2 LT PUSH2 0x6EA JUMPI PUSH2 0x6E9 PUSH2 0x249B JUMP JUMPDEST JUMPDEST SWAP1 PUSH1 0x0 MSTORE PUSH1 0x20 PUSH1 0x0 KECCAK256 SWAP1 PUSH1 0x4 MUL ADD PUSH1 0x2 ADD DUP1 SLOAD PUSH2 0x706 SWAP1 PUSH2 0x20EE JUMP JUMPDEST DUP1 PUSH1 0x1F ADD PUSH1 0x20 DUP1 SWAP2 DIV MUL PUSH1 0x20 ADD PUSH1 0x40 MLOAD SWAP1 DUP2 ADD PUSH1 0x40 MSTORE DUP1 SWAP3 SWAP2 SWAP1 DUP2 DUP2 MSTORE PUSH1 0x20 ADD DUP3 DUP1 SLOAD PUSH2 0x732 SWAP1 PUSH2 0x20EE JUMP JUMPDEST DUP1 ISZERO PUSH2 0x77F JUMPI DUP1 PUSH1 0x1F LT PUSH2 0x754 JUMPI PUSH2 0x100 DUP1 DUP4 SLOAD DIV MUL DUP4 MSTORE SWAP2 PUSH1 0x20 ADD SWAP2 PUSH2 0x77F JUMP JUMPDEST DUP3 ADD SWAP2 SWAP1 PUSH1 0x0 MSTORE PUSH1 0x20 PUSH1 0x0 KECCAK256 SWAP1 JUMPDEST DUP2 SLOAD DUP2 MSTORE SWAP1 PUSH1 0x1 ADD SWAP1 PUSH1 0x20 ADD DUP1 DUP4 GT PUSH2 0x762 JUMPI DUP3 SWAP1 SUB PUSH1 0x1F AND DUP3 ADD SWAP2 JUMPDEST POP POP POP POP POP SWAP1 POP PUSH1 0x0 JUMPDEST PUSH1 0x3 PUSH1 0x0 PUSH1 0x1 PUSH1 0x0 SWAP1 SLOAD SWAP1 PUSH2 0x100 EXP SWAP1 DIV PUSH20 0xFFFFFFFFFFFFFFFFFFFFFFFFFFFFFFFFFFFFFFFF AND PUSH20 0xFFFFFFFFFFFFFFFFFFFFFFFFFFFFFFFFFFFFFFFF AND PUSH20 0xFFFFFFFFFFFFFFFFFFFFFFFFFFFFFFFFFFFFFFFF AND DUP2 MSTORE PUSH1 0x20 ADD SWAP1 DUP2 MSTORE PUSH1 0x20 ADD PUSH1 0x0 KECCAK256 DUP1 SLOAD SWAP1 POP DUP2 LT ISZERO PUSH2 0xAAE JUMPI PUSH1 0x3 PUSH1 0x0 PUSH1 0x1 PUSH1 0x0 SWAP1 SLOAD SWAP1 PUSH2 0x100 EXP SWAP1 DIV PUSH20 0xFFFFFFFFFFFFFFFFFFFFFFFFFFFFFFFFFFFFFFFF AND PUSH20 0xFFFFFFFFFFFFFFFFFFFFFFFFFFFFFFFFFFFFFFFF AND PUSH20 0xFFFFFFFFFFFFFFFFFFFFFFFFFFFFFFFFFFFFFFFF AND DUP2 MSTORE PUSH1 0x20 ADD SWAP1 DUP2 MSTORE PUSH1 0x20 ADD PUSH1 0x0 KECCAK256 DUP2 DUP2 SLOAD DUP2 LT PUSH2 0x868 JUMPI PUSH2 0x867 PUSH2 0x249B JUMP JUMPDEST JUMPDEST SWAP1 PUSH1 0x0 MSTORE PUSH1 0x20 PUSH1 0x0 KECCAK256 SWAP1 PUSH1 0x4 MUL ADD PUSH1 0x2 ADD PUSH1 0x40 MLOAD PUSH2 0x886 SWAP2 SWAP1 PUSH2 0x256D JUMP JUMPDEST PUSH1 0x40 MLOAD DUP1 SWAP2 SUB SWAP1 KECCAK256 DUP3 DUP1 MLOAD SWAP1 PUSH1 0x20 ADD KECCAK256 SUB PUSH2 0xA9B JUMPI PUSH1 0x3 PUSH1 0x0 PUSH1 0x1 PUSH1 0x0 SWAP1 SLOAD SWAP1 PUSH2 0x100 EXP SWAP1 DIV PUSH20 0xFFFFFFFFFFFFFFFFFFFFFFFFFFFFFFFFFFFFFFFF AND PUSH20 0xFFFFFFFFFFFFFFFFFFFFFFFFFFFFFFFFFFFFFFFF AND PUSH20 0xFFFFFFFFFFFFFFFFFFFFFFFFFFFFFFFFFFFFFFFF AND DUP2 MSTORE PUSH1 0x20 ADD SWAP1 DUP2 MSTORE PUSH1 0x20 ADD PUSH1 0x0 KECCAK256 DUP2 DUP2 SLOAD DUP2 LT PUSH2 0x90E JUMPI PUSH2 0x90D PUSH2 0x249B JUMP JUMPDEST JUMPDEST SWAP1 PUSH1 0x0 MSTORE PUSH1 0x20 PUSH1 0x0 KECCAK256 SWAP1 PUSH1 0x4 MUL ADD PUSH1 0x1 ADD SLOAD SWAP3 POP PUSH8 0xDE0B6B3A7640000 DUP8 DUP5 PUSH2 0x937 SWAP2 SWAP1 PUSH2 0x25B3 JUMP JUMPDEST PUSH2 0x941 SWAP2 SWAP1 PUSH2 0x25B3 JUMP JUMPDEST SWAP4 POP DUP4 CALLVALUE LT ISZERO PUSH2 0x986 JUMPI PUSH1 0x40 MLOAD PUSH32 0x8C379A000000000000000000000000000000000000000000000000000000000 DUP2 MSTORE PUSH1 0x4 ADD PUSH2 0x97D SWAP1 PUSH2 0x2641 JUMP JUMPDEST PUSH1 0x40 MLOAD DUP1 SWAP2 SUB SWAP1 REVERT JUMPDEST DUP7 PUSH1 0x3 PUSH1 0x0 PUSH1 0x1 PUSH1 0x0 SWAP1 SLOAD SWAP1 PUSH2 0x100 EXP SWAP1 DIV PUSH20 0xFFFFFFFFFFFFFFFFFFFFFFFFFFFFFFFFFFFFFFFF AND PUSH20 0xFFFFFFFFFFFFFFFFFFFFFFFFFFFFFFFFFFFFFFFF AND PUSH20 0xFFFFFFFFFFFFFFFFFFFFFFFFFFFFFFFFFFFFFFFF AND DUP2 MSTORE PUSH1 0x20 ADD SWAP1 DUP2 MSTORE PUSH1 0x20 ADD PUSH1 0x0 KECCAK256 DUP3 DUP2 SLOAD DUP2 LT PUSH2 0x9FA JUMPI PUSH2 0x9F9 PUSH2 0x249B JUMP JUMPDEST JUMPDEST SWAP1 PUSH1 0x0 MSTORE PUSH1 0x20 PUSH1 0x0 KECCAK256 SWAP1 PUSH1 0x4 MUL ADD PUSH1 0x0 ADD PUSH1 0x0 DUP3 DUP3 SLOAD PUSH2 0xA1A SWAP2 SWAP1 PUSH2 0x2661 JUMP JUMPDEST SWAP3 POP POP DUP2 SWAP1 SSTORE POP DUP7 PUSH1 0x3 PUSH1 0x0 DUP12 PUSH20 0xFFFFFFFFFFFFFFFFFFFFFFFFFFFFFFFFFFFFFFFF AND PUSH20 0xFFFFFFFFFFFFFFFFFFFFFFFFFFFFFFFFFFFFFFFF AND DUP2 MSTORE PUSH1 0x20 ADD SWAP1 DUP2 MSTORE PUSH1 0x20 ADD PUSH1 0x0 KECCAK256 DUP10 DUP2 SLOAD DUP2 LT PUSH2 0xA73 JUMPI PUSH2 0xA72 PUSH2 0x249B JUMP JUMPDEST JUMPDEST SWAP1 PUSH1 0x0 MSTORE PUSH1 0x20 PUSH1 0x0 KECCAK256 SWAP1 PUSH1 0x4 MUL ADD PUSH1 0x0 ADD PUSH1 0x0 DUP3 DUP3 SLOAD PUSH2 0xA93 SWAP2 SWAP1 PUSH2 0x2695 JUMP JUMPDEST SWAP3 POP POP DUP2 SWAP1 SSTORE POP JUMPDEST DUP1 DUP1 PUSH2 0xAA6 SWAP1 PUSH2 0x26C9 JUMP JUMPDEST SWAP2 POP POP PUSH2 0x789 JUMP JUMPDEST POP DUP3 CALLVALUE GT ISZERO PUSH2 0xB10 JUMPI PUSH1 0x0 DUP4 CALLVALUE PUSH2 0xAC5 SWAP2 SWAP1 PUSH2 0x2661 JUMP JUMPDEST SWAP1 POP CALLER PUSH20 0xFFFFFFFFFFFFFFFFFFFFFFFFFFFFFFFFFFFFFFFF AND PUSH2 0x8FC DUP3 SWAP1 DUP2 ISZERO MUL SWAP1 PUSH1 0x40 MLOAD PUSH1 0x0 PUSH1 0x40 MLOAD DUP1 DUP4 SUB DUP2 DUP6 DUP9 DUP9 CALL SWAP4 POP POP POP POP ISZERO DUP1 ISZERO PUSH2 0xB0D JUMPI RETURNDATASIZE PUSH1 0x0 DUP1 RETURNDATACOPY RETURNDATASIZE PUSH1 0x0 REVERT JUMPDEST POP POP JUMPDEST POP POP POP POP POP POP POP POP JUMP JUMPDEST CALLER PUSH1 0x1 PUSH1 0x0 PUSH2 0x100 EXP DUP2 SLOAD DUP2 PUSH20 0xFFFFFFFFFFFFFFFFFFFFFFFFFFFFFFFFFFFFFFFF MUL NOT AND SWAP1 DUP4 PUSH20 0xFFFFFFFFFFFFFFFFFFFFFFFFFFFFFFFFFFFFFFFF AND MUL OR SWAP1 SSTORE POP PUSH1 0x40 MLOAD DUP1 PUSH1 0x20 ADD PUSH1 0x40 MSTORE DUP1 PUSH1 0x2 DUP1 DUP2 GT ISZERO PUSH2 0xB79 JUMPI PUSH2 0xB78 PUSH2 0x1F00 JUMP JUMPDEST JUMPDEST DUP2 MSTORE POP PUSH1 0x2 PUSH1 0x0 PUSH1 0x1 PUSH1 0x0 SWAP1 SLOAD SWAP1 PUSH2 0x100 EXP SWAP1 DIV PUSH20 0xFFFFFFFFFFFFFFFFFFFFFFFFFFFFFFFFFFFFFFFF AND PUSH20 0xFFFFFFFFFFFFFFFFFFFFFFFFFFFFFFFFFFFFFFFF AND PUSH20 0xFFFFFFFFFFFFFFFFFFFFFFFFFFFFFFFFFFFFFFFF AND DUP2 MSTORE PUSH1 0x20 ADD SWAP1 DUP2 MSTORE PUSH1 0x20 ADD PUSH1 0x0 KECCAK256 PUSH1 0x0 DUP3 ADD MLOAD DUP2 PUSH1 0x0 ADD PUSH1 0x0 PUSH2 0x100 EXP DUP2 SLOAD DUP2 PUSH1 0xFF MUL NOT AND SWAP1 DUP4 PUSH1 0x2 DUP2 GT ISZERO PUSH2 0xC08 JUMPI PUSH2 0xC07 PUSH2 0x1F00 JUMP JUMPDEST JUMPDEST MUL OR SWAP1 SSTORE POP SWAP1 POP POP PUSH1 0x0 PUSH1 0x40 MLOAD DUP1 PUSH1 0x80 ADD PUSH1 0x40 MSTORE DUP1 DUP8 DUP2 MSTORE PUSH1 0x20 ADD PUSH1 0x2 DUP8 PUSH2 0xC30 SWAP2 SWAP1 PUSH2 0x2740 JUMP JUMPDEST DUP2 MSTORE PUSH1 0x20 ADD DUP6 DUP6 DUP1 DUP1 PUSH1 0x1F ADD PUSH1 0x20 DUP1 SWAP2 DIV MUL PUSH1 0x20 ADD PUSH1 0x40 MLOAD SWAP1 DUP2 ADD PUSH1 0x40 MSTORE DUP1 SWAP4 SWAP3 SWAP2 SWAP1 DUP2 DUP2 MSTORE PUSH1 0x20 ADD DUP4 DUP4 DUP1 DUP3 DUP5 CALLDATACOPY PUSH1 0x0 DUP2 DUP5 ADD MSTORE PUSH1 0x1F NOT PUSH1 0x1F DUP3 ADD AND SWAP1 POP DUP1 DUP4 ADD SWAP3 POP POP POP POP POP POP POP DUP2 MSTORE PUSH1 0x20 ADD DUP4 DUP2 MSTORE POP SWAP1 POP PUSH1 0x3 PUSH1 0x0 CALLER PUSH20 0xFFFFFFFFFFFFFFFFFFFFFFFFFFFFFFFFFFFFFFFF AND PUSH20 0xFFFFFFFFFFFFFFFFFFFFFFFFFFFFFFFFFFFFFFFF AND DUP2 MSTORE PUSH1 0x20 ADD SWAP1 DUP2 MSTORE PUSH1 0x20 ADD PUSH1 0x0 KECCAK256 DUP2 SWAP1 DUP1 PUSH1 0x1 DUP2 SLOAD ADD DUP1 DUP3 SSTORE DUP1 SWAP2 POP POP PUSH1 0x1 SWAP1 SUB SWAP1 PUSH1 0x0 MSTORE PUSH1 0x20 PUSH1 0x0 KECCAK256 SWAP1 PUSH1 0x4 MUL ADD PUSH1 0x0 SWAP1 SWAP2 SWAP1 SWAP2 SWAP1 SWAP2 POP PUSH1 0x0 DUP3 ADD MLOAD DUP2 PUSH1 0x0 ADD SSTORE PUSH1 0x20 DUP3 ADD MLOAD DUP2 PUSH1 0x1 ADD SSTORE PUSH1 0x40 DUP3 ADD MLOAD DUP2 PUSH1 0x2 ADD SWAP1 DUP2 PUSH2 0xD17 SWAP2 SWAP1 PUSH2 0x22CB JUMP JUMPDEST POP PUSH1 0x60 DUP3 ADD MLOAD DUP2 PUSH1 0x3 ADD SSTORE POP POP POP POP POP POP POP POP JUMP JUMPDEST PUSH1 0x1 PUSH1 0x0 SWAP1 SLOAD SWAP1 PUSH2 0x100 EXP SWAP1 DIV PUSH20 0xFFFFFFFFFFFFFFFFFFFFFFFFFFFFFFFFFFFFFFFF AND DUP2 JUMP JUMPDEST PUSH1 0x3 PUSH1 0x20 MSTORE DUP2 PUSH1 0x0 MSTORE PUSH1 0x40 PUSH1 0x0 KECCAK256 DUP2 DUP2 SLOAD DUP2 LT PUSH2 0xD6E JUMPI PUSH1 0x0 DUP1 REVERT JUMPDEST SWAP1 PUSH1 0x0 MSTORE PUSH1 0x20 PUSH1 0x0 KECCAK256 SWAP1 PUSH1 0x4 MUL ADD PUSH1 0x0 SWAP2 POP SWAP2 POP POP DUP1 PUSH1 0x0 ADD SLOAD SWAP1 DUP1 PUSH1 0x1 ADD SLOAD SWAP1 DUP1 PUSH1 0x2 ADD DUP1 SLOAD PUSH2 0xD9E SWAP1 PUSH2 0x20EE JUMP JUMPDEST DUP1 PUSH1 0x1F ADD PUSH1 0x20 DUP1 SWAP2 DIV MUL PUSH1 0x20 ADD PUSH1 0x40 MLOAD SWAP1 DUP2 ADD PUSH1 0x40 MSTORE DUP1 SWAP3 SWAP2 SWAP1 DUP2 DUP2 MSTORE PUSH1 0x20 ADD DUP3 DUP1 SLOAD PUSH2 0xDCA SWAP1 PUSH2 0x20EE JUMP JUMPDEST DUP1 ISZERO PUSH2 0xE17 JUMPI DUP1 PUSH1 0x1F LT PUSH2 0xDEC JUMPI PUSH2 0x100 DUP1 DUP4 SLOAD DIV MUL DUP4 MSTORE SWAP2 PUSH1 0x20 ADD SWAP2 PUSH2 0xE17 JUMP JUMPDEST DUP3 ADD SWAP2 SWAP1 PUSH1 0x0 MSTORE PUSH1 0x20 PUSH1 0x0 KECCAK256 SWAP1 JUMPDEST DUP2 SLOAD DUP2 MSTORE SWAP1 PUSH1 0x1 ADD SWAP1 PUSH1 0x20 ADD DUP1 DUP4 GT PUSH2 0xDFA JUMPI DUP3 SWAP1 SUB PUSH1 0x1F AND DUP3 ADD SWAP2 JUMPDEST POP POP POP POP POP SWAP1 DUP1 PUSH1 0x3 ADD SLOAD SWAP1 POP DUP5 JUMP JUMPDEST PUSH1 0x0 PUSH1 0x3 PUSH1 0x0 CALLER PUSH20 0xFFFFFFFFFFFFFFFFFFFFFFFFFFFFFFFFFFFFFFFF AND PUSH20 0xFFFFFFFFFFFFFFFFFFFFFFFFFFFFFFFFFFFFFFFF AND DUP2 MSTORE PUSH1 0x20 ADD SWAP1 DUP2 MSTORE PUSH1 0x20 ADD PUSH1 0x0 KECCAK256 DUP3 DUP2 SLOAD DUP2 LT PUSH2 0xE7A JUMPI PUSH2 0xE79 PUSH2 0x249B JUMP JUMPDEST JUMPDEST SWAP1 PUSH1 0x0 MSTORE PUSH1 0x20 PUSH1 0x0 KECCAK256 SWAP1 PUSH1 0x4 MUL ADD PUSH1 0x3 ADD SLOAD SWAP1 POP PUSH1 0x0 PUSH1 0x3 PUSH1 0x0 DUP6 PUSH20 0xFFFFFFFFFFFFFFFFFFFFFFFFFFFFFFFFFFFFFFFF AND PUSH20 0xFFFFFFFFFFFFFFFFFFFFFFFFFFFFFFFFFFFFFFFF AND DUP2 MSTORE PUSH1 0x20 ADD SWAP1 DUP2 MSTORE PUSH1 0x20 ADD PUSH1 0x0 KECCAK256 DUP4 DUP2 SLOAD DUP2 LT PUSH2 0xEE1 JUMPI PUSH2 0xEE0 PUSH2 0x249B JUMP JUMPDEST JUMPDEST SWAP1 PUSH1 0x0 MSTORE PUSH1 0x20 PUSH1 0x0 KECCAK256 SWAP1 PUSH1 0x4 MUL ADD PUSH1 0x3 ADD SLOAD SWAP1 POP DUP1 DUP3 GT PUSH2 0xF01 JUMPI PUSH1 0x0 DUP1 REVERT JUMPDEST PUSH1 0x0 PUSH8 0xDE0B6B3A7640000 PUSH1 0x3 PUSH1 0x0 DUP8 PUSH20 0xFFFFFFFFFFFFFFFFFFFFFFFFFFFFFFFFFFFFFFFF AND PUSH20 0xFFFFFFFFFFFFFFFFFFFFFFFFFFFFFFFFFFFFFFFF AND DUP2 MSTORE PUSH1 0x20 ADD SWAP1 DUP2 MSTORE PUSH1 0x20 ADD PUSH1 0x0 KECCAK256 DUP6 DUP2 SLOAD DUP2 LT PUSH2 0xF5D JUMPI PUSH2 0xF5C PUSH2 0x249B JUMP JUMPDEST JUMPDEST SWAP1 PUSH1 0x0 MSTORE PUSH1 0x20 PUSH1 0x0 KECCAK256 SWAP1 PUSH1 0x4 MUL ADD PUSH1 0x1 ADD SLOAD PUSH1 0x3 PUSH1 0x0 CALLER PUSH20 0xFFFFFFFFFFFFFFFFFFFFFFFFFFFFFFFFFFFFFFFF AND PUSH20 0xFFFFFFFFFFFFFFFFFFFFFFFFFFFFFFFFFFFFFFFF AND DUP2 MSTORE PUSH1 0x20 ADD SWAP1 DUP2 MSTORE PUSH1 0x20 ADD PUSH1 0x0 KECCAK256 DUP7 DUP2 SLOAD DUP2 LT PUSH2 0xFC0 JUMPI PUSH2 0xFBF PUSH2 0x249B JUMP JUMPDEST JUMPDEST SWAP1 PUSH1 0x0 MSTORE PUSH1 0x20 PUSH1 0x0 KECCAK256 SWAP1 PUSH1 0x4 MUL ADD PUSH1 0x0 ADD SLOAD PUSH2 0xFDC SWAP2 SWAP1 PUSH2 0x25B3 JUMP JUMPDEST PUSH2 0xFE6 SWAP2 SWAP1 PUSH2 0x25B3 JUMP JUMPDEST SWAP1 POP PUSH1 0x3 PUSH1 0x0 CALLER PUSH20 0xFFFFFFFFFFFFFFFFFFFFFFFFFFFFFFFFFFFFFFFF AND PUSH20 0xFFFFFFFFFFFFFFFFFFFFFFFFFFFFFFFFFFFFFFFF AND DUP2 MSTORE PUSH1 0x20 ADD SWAP1 DUP2 MSTORE PUSH1 0x20 ADD PUSH1 0x0 KECCAK256 DUP5 DUP2 SLOAD DUP2 LT PUSH2 0x1039 JUMPI PUSH2 0x1038 PUSH2 0x249B JUMP JUMPDEST JUMPDEST SWAP1 PUSH1 0x0 MSTORE PUSH1 0x20 PUSH1 0x0 KECCAK256 SWAP1 PUSH1 0x4 MUL ADD PUSH1 0x0 DUP1 DUP3 ADD PUSH1 0x0 SWAP1 SSTORE PUSH1 0x1 DUP3 ADD PUSH1 0x0 SWAP1 SSTORE PUSH1 0x2 DUP3 ADD PUSH1 0x0 PUSH2 0x1068 SWAP2 SWAP1 PUSH2 0x1A61 JUMP JUMPDEST PUSH1 0x3 DUP3 ADD PUSH1 0x0 SWAP1 SSTORE POP POP CALLER PUSH20 0xFFFFFFFFFFFFFFFFFFFFFFFFFFFFFFFFFFFFFFFF AND PUSH2 0x8FC DUP3 SWAP1 DUP2 ISZERO MUL SWAP1 PUSH1 0x40 MLOAD PUSH1 0x0 PUSH1 0x40 MLOAD DUP1 DUP4 SUB DUP2 DUP6 DUP9 DUP9 CALL SWAP4 POP POP POP POP ISZERO DUP1 ISZERO PUSH2 0x10B8 JUMPI RETURNDATASIZE PUSH1 0x0 DUP1 RETURNDATACOPY RETURNDATASIZE PUSH1 0x0 REVERT JUMPDEST POP POP POP POP POP POP JUMP JUMPDEST PUSH1 0x40 MLOAD DUP1 PUSH1 0x20 ADD PUSH1 0x40 MSTORE DUP1 PUSH1 0x1 PUSH1 0x2 DUP2 GT ISZERO PUSH2 0x10DF JUMPI PUSH2 0x10DE PUSH2 0x1F00 JUMP JUMPDEST JUMPDEST DUP2 MSTORE POP PUSH1 0x2 PUSH1 0x0 CALLER PUSH20 0xFFFFFFFFFFFFFFFFFFFFFFFFFFFFFFFFFFFFFFFF AND PUSH20 0xFFFFFFFFFFFFFFFFFFFFFFFFFFFFFFFFFFFFFFFF AND DUP2 MSTORE PUSH1 0x20 ADD SWAP1 DUP2 MSTORE PUSH1 0x20 ADD PUSH1 0x0 KECCAK256 PUSH1 0x0 DUP3 ADD MLOAD DUP2 PUSH1 0x0 ADD PUSH1 0x0 PUSH2 0x100 EXP DUP2 SLOAD DUP2 PUSH1 0xFF MUL NOT AND SWAP1 DUP4 PUSH1 0x2 DUP2 GT ISZERO PUSH2 0x114C JUMPI PUSH2 0x114B PUSH2 0x1F00 JUMP JUMPDEST JUMPDEST MUL OR SWAP1 SSTORE POP SWAP1 POP POP JUMP JUMPDEST PUSH1 0x0 DUP1 DUP1 DUP1 PUSH2 0x1164 SWAP1 PUSH2 0x26C9 JUMP JUMPDEST SWAP2 POP POP DUP3 TIMESTAMP CALLER DUP4 PUSH1 0x40 MLOAD PUSH1 0x20 ADD PUSH2 0x117D SWAP4 SWAP3 SWAP2 SWAP1 PUSH2 0x27DA JUMP JUMPDEST PUSH1 0x40 MLOAD PUSH1 0x20 DUP2 DUP4 SUB SUB DUP2 MSTORE SWAP1 PUSH1 0x40 MSTORE DUP1 MLOAD SWAP1 PUSH1 0x20 ADD KECCAK256 PUSH1 0x0 SHR PUSH2 0x11A0 SWAP2 SWAP1 PUSH2 0x2817 JUMP JUMPDEST SWAP2 POP POP SWAP2 SWAP1 POP JUMP JUMPDEST PUSH1 0x0 DUP1 SLOAD SWAP1 PUSH2 0x100 EXP SWAP1 DIV PUSH20 0xFFFFFFFFFFFFFFFFFFFFFFFFFFFFFFFFFFFFFFFF AND DUP2 JUMP JUMPDEST PUSH1 0x0 PUSH1 0x2 DUP2 GT ISZERO PUSH2 0x11E0 JUMPI PUSH2 0x11DF PUSH2 0x1F00 JUMP JUMPDEST JUMPDEST PUSH1 0x2 PUSH1 0x0 CALLER PUSH20 0xFFFFFFFFFFFFFFFFFFFFFFFFFFFFFFFFFFFFFFFF AND PUSH20 0xFFFFFFFFFFFFFFFFFFFFFFFFFFFFFFFFFFFFFFFF AND DUP2 MSTORE PUSH1 0x20 ADD SWAP1 DUP2 MSTORE PUSH1 0x20 ADD PUSH1 0x0 KECCAK256 PUSH1 0x0 ADD PUSH1 0x0 SWAP1 SLOAD SWAP1 PUSH2 0x100 EXP SWAP1 DIV PUSH1 0xFF AND PUSH1 0x2 DUP2 GT ISZERO PUSH2 0x1242 JUMPI PUSH2 0x1241 PUSH2 0x1F00 JUMP JUMPDEST JUMPDEST SUB PUSH2 0x12DC JUMPI PUSH1 0x40 MLOAD DUP1 PUSH1 0x20 ADD PUSH1 0x40 MSTORE DUP1 PUSH1 0x0 PUSH1 0x2 DUP2 GT ISZERO PUSH2 0x1266 JUMPI PUSH2 0x1265 PUSH2 0x1F00 JUMP JUMPDEST JUMPDEST DUP2 MSTORE POP PUSH1 0x2 PUSH1 0x0 CALLER PUSH20 0xFFFFFFFFFFFFFFFFFFFFFFFFFFFFFFFFFFFFFFFF AND PUSH20 0xFFFFFFFFFFFFFFFFFFFFFFFFFFFFFFFFFFFFFFFF AND DUP2 MSTORE PUSH1 0x20 ADD SWAP1 DUP2 MSTORE PUSH1 0x20 ADD PUSH1 0x0 KECCAK256 PUSH1 0x0 DUP3 ADD MLOAD DUP2 PUSH1 0x0 ADD PUSH1 0x0 PUSH2 0x100 EXP DUP2 SLOAD DUP2 PUSH1 0xFF MUL NOT AND SWAP1 DUP4 PUSH1 0x2 DUP2 GT ISZERO PUSH2 0x12D3 JUMPI PUSH2 0x12D2 PUSH2 0x1F00 JUMP JUMPDEST JUMPDEST MUL OR SWAP1 SSTORE POP SWAP1 POP POP JUMPDEST PUSH1 0x0 DUP3 GT PUSH2 0x131F JUMPI PUSH1 0x40 MLOAD PUSH32 0x8C379A000000000000000000000000000000000000000000000000000000000 DUP2 MSTORE PUSH1 0x4 ADD PUSH2 0x1316 SWAP1 PUSH2 0x240F JUMP JUMPDEST PUSH1 0x40 MLOAD DUP1 SWAP2 SUB SWAP1 REVERT JUMPDEST PUSH1 0x3 PUSH1 0x0 DUP5 PUSH20 0xFFFFFFFFFFFFFFFFFFFFFFFFFFFFFFFFFFFFFFFF AND PUSH20 0xFFFFFFFFFFFFFFFFFFFFFFFFFFFFFFFFFFFFFFFF AND DUP2 MSTORE PUSH1 0x20 ADD SWAP1 DUP2 MSTORE PUSH1 0x20 ADD PUSH1 0x0 KECCAK256 DUP1 SLOAD SWAP1 POP DUP2 LT PUSH2 0x13A3 JUMPI PUSH1 0x40 MLOAD PUSH32 0x8C379A000000000000000000000000000000000000000000000000000000000 DUP2 MSTORE PUSH1 0x4 ADD PUSH2 0x139A SWAP1 PUSH2 0x247B JUMP JUMPDEST PUSH1 0x40 MLOAD DUP1 SWAP2 SUB SWAP1 REVERT JUMPDEST PUSH1 0x3 PUSH1 0x0 DUP5 PUSH20 0xFFFFFFFFFFFFFFFFFFFFFFFFFFFFFFFFFFFFFFFF AND PUSH20 0xFFFFFFFFFFFFFFFFFFFFFFFFFFFFFFFFFFFFFFFF AND DUP2 MSTORE PUSH1 0x20 ADD SWAP1 DUP2 MSTORE PUSH1 0x20 ADD PUSH1 0x0 KECCAK256 DUP2 DUP2 SLOAD DUP2 LT PUSH2 0x13F4 JUMPI PUSH2 0x13F3 PUSH2 0x249B JUMP JUMPDEST JUMPDEST SWAP1 PUSH1 0x0 MSTORE PUSH1 0x20 PUSH1 0x0 KECCAK256 SWAP1 PUSH1 0x4 MUL ADD PUSH1 0x0 ADD SLOAD DUP3 GT ISZERO PUSH2 0x1448 JUMPI PUSH1 0x40 MLOAD PUSH32 0x8C379A000000000000000000000000000000000000000000000000000000000 DUP2 MSTORE PUSH1 0x4 ADD PUSH2 0x143F SWAP1 PUSH2 0x2894 JUMP JUMPDEST PUSH1 0x40 MLOAD DUP1 SWAP2 SUB SWAP1 REVERT JUMPDEST PUSH1 0x0 PUSH8 0xDE0B6B3A7640000 PUSH1 0x3 PUSH1 0x0 DUP7 PUSH20 0xFFFFFFFFFFFFFFFFFFFFFFFFFFFFFFFFFFFFFFFF AND PUSH20 0xFFFFFFFFFFFFFFFFFFFFFFFFFFFFFFFFFFFFFFFF AND DUP2 MSTORE PUSH1 0x20 ADD SWAP1 DUP2 MSTORE PUSH1 0x20 ADD PUSH1 0x0 KECCAK256 DUP4 DUP2 SLOAD DUP2 LT PUSH2 0x14A4 JUMPI PUSH2 0x14A3 PUSH2 0x249B JUMP JUMPDEST JUMPDEST SWAP1 PUSH1 0x0 MSTORE PUSH1 0x20 PUSH1 0x0 KECCAK256 SWAP1 PUSH1 0x4 MUL ADD PUSH1 0x1 ADD SLOAD DUP5 PUSH2 0x14C1 SWAP2 SWAP1 PUSH2 0x25B3 JUMP JUMPDEST PUSH2 0x14CB SWAP2 SWAP1 PUSH2 0x25B3 JUMP JUMPDEST SWAP1 POP DUP1 CALLVALUE LT ISZERO PUSH2 0x1510 JUMPI PUSH1 0x40 MLOAD PUSH32 0x8C379A000000000000000000000000000000000000000000000000000000000 DUP2 MSTORE PUSH1 0x4 ADD PUSH2 0x1507 SWAP1 PUSH2 0x2641 JUMP JUMPDEST PUSH1 0x40 MLOAD DUP1 SWAP2 SUB SWAP1 REVERT JUMPDEST PUSH1 0x0 DUP1 JUMPDEST PUSH1 0x3 PUSH1 0x0 CALLER PUSH20 0xFFFFFFFFFFFFFFFFFFFFFFFFFFFFFFFFFFFFFFFF AND PUSH20 0xFFFFFFFFFFFFFFFFFFFFFFFFFFFFFFFFFFFFFFFF AND DUP2 MSTORE PUSH1 0x20 ADD SWAP1 DUP2 MSTORE PUSH1 0x20 ADD PUSH1 0x0 KECCAK256 DUP1 SLOAD SWAP1 POP DUP2 LT ISZERO PUSH2 0x16E6 JUMPI PUSH1 0x3 PUSH1 0x0 DUP8 PUSH20 0xFFFFFFFFFFFFFFFFFFFFFFFFFFFFFFFFFFFFFFFF AND PUSH20 0xFFFFFFFFFFFFFFFFFFFFFFFFFFFFFFFFFFFFFFFF AND DUP2 MSTORE PUSH1 0x20 ADD SWAP1 DUP2 MSTORE PUSH1 0x20 ADD PUSH1 0x0 KECCAK256 DUP5 DUP2 SLOAD DUP2 LT PUSH2 0x15AF JUMPI PUSH2 0x15AE PUSH2 0x249B JUMP JUMPDEST JUMPDEST SWAP1 PUSH1 0x0 MSTORE PUSH1 0x20 PUSH1 0x0 KECCAK256 SWAP1 PUSH1 0x4 MUL ADD PUSH1 0x2 ADD PUSH1 0x40 MLOAD PUSH2 0x15CD SWAP2 SWAP1 PUSH2 0x256D JUMP JUMPDEST PUSH1 0x40 MLOAD DUP1 SWAP2 SUB SWAP1 KECCAK256 PUSH1 0x3 PUSH1 0x0 CALLER PUSH20 0xFFFFFFFFFFFFFFFFFFFFFFFFFFFFFFFFFFFFFFFF AND PUSH20 0xFFFFFFFFFFFFFFFFFFFFFFFFFFFFFFFFFFFFFFFF AND DUP2 MSTORE PUSH1 0x20 ADD SWAP1 DUP2 MSTORE PUSH1 0x20 ADD PUSH1 0x0 KECCAK256 DUP3 DUP2 SLOAD DUP2 LT PUSH2 0x1626 JUMPI PUSH2 0x1625 PUSH2 0x249B JUMP JUMPDEST JUMPDEST SWAP1 PUSH1 0x0 MSTORE PUSH1 0x20 PUSH1 0x0 KECCAK256 SWAP1 PUSH1 0x4 MUL ADD PUSH1 0x2 ADD PUSH1 0x40 MLOAD PUSH2 0x1644 SWAP2 SWAP1 PUSH2 0x256D JUMP JUMPDEST PUSH1 0x40 MLOAD DUP1 SWAP2 SUB SWAP1 KECCAK256 SUB PUSH2 0x16D3 JUMPI DUP5 PUSH1 0x3 PUSH1 0x0 CALLER PUSH20 0xFFFFFFFFFFFFFFFFFFFFFFFFFFFFFFFFFFFFFFFF AND PUSH20 0xFFFFFFFFFFFFFFFFFFFFFFFFFFFFFFFFFFFFFFFF AND DUP2 MSTORE PUSH1 0x20 ADD SWAP1 DUP2 MSTORE PUSH1 0x20 ADD PUSH1 0x0 KECCAK256 DUP3 DUP2 SLOAD DUP2 LT PUSH2 0x16A3 JUMPI PUSH2 0x16A2 PUSH2 0x249B JUMP JUMPDEST JUMPDEST SWAP1 PUSH1 0x0 MSTORE PUSH1 0x20 PUSH1 0x0 KECCAK256 SWAP1 PUSH1 0x4 MUL ADD PUSH1 0x0 ADD PUSH1 0x0 DUP3 DUP3 SLOAD PUSH2 0x16C3 SWAP2 SWAP1 PUSH2 0x2695 JUMP JUMPDEST SWAP3 POP POP DUP2 SWAP1 SSTORE POP PUSH1 0x1 SWAP2 POP PUSH2 0x16E6 JUMP JUMPDEST DUP1 DUP1 PUSH2 0x16DE SWAP1 PUSH2 0x26C9 JUMP JUMPDEST SWAP2 POP POP PUSH2 0x1514 JUMP JUMPDEST POP DUP1 PUSH2 0x1908 JUMPI PUSH1 0x0 PUSH1 0x40 MLOAD DUP1 PUSH1 0x80 ADD PUSH1 0x40 MSTORE DUP1 DUP7 DUP2 MSTORE PUSH1 0x20 ADD PUSH1 0x3 PUSH1 0x0 DUP10 PUSH20 0xFFFFFFFFFFFFFFFFFFFFFFFFFFFFFFFFFFFFFFFF AND PUSH20 0xFFFFFFFFFFFFFFFFFFFFFFFFFFFFFFFFFFFFFFFF AND DUP2 MSTORE PUSH1 0x20 ADD SWAP1 DUP2 MSTORE PUSH1 0x20 ADD PUSH1 0x0 KECCAK256 DUP7 DUP2 SLOAD DUP2 LT PUSH2 0x1750 JUMPI PUSH2 0x174F PUSH2 0x249B JUMP JUMPDEST JUMPDEST SWAP1 PUSH1 0x0 MSTORE PUSH1 0x20 PUSH1 0x0 KECCAK256 SWAP1 PUSH1 0x4 MUL ADD PUSH1 0x1 ADD SLOAD DUP2 MSTORE PUSH1 0x20 ADD PUSH1 0x3 PUSH1 0x0 DUP10 PUSH20 0xFFFFFFFFFFFFFFFFFFFFFFFFFFFFFFFFFFFFFFFF AND PUSH20 0xFFFFFFFFFFFFFFFFFFFFFFFFFFFFFFFFFFFFFFFF AND DUP2 MSTORE PUSH1 0x20 ADD SWAP1 DUP2 MSTORE PUSH1 0x20 ADD PUSH1 0x0 KECCAK256 DUP7 DUP2 SLOAD DUP2 LT PUSH2 0x17B8 JUMPI PUSH2 0x17B7 PUSH2 0x249B JUMP JUMPDEST JUMPDEST SWAP1 PUSH1 0x0 MSTORE PUSH1 0x20 PUSH1 0x0 KECCAK256 SWAP1 PUSH1 0x4 MUL ADD PUSH1 0x2 ADD DUP1 SLOAD PUSH2 0x17D4 SWAP1 PUSH2 0x20EE JUMP JUMPDEST DUP1 PUSH1 0x1F ADD PUSH1 0x20 DUP1 SWAP2 DIV MUL PUSH1 0x20 ADD PUSH1 0x40 MLOAD SWAP1 DUP2 ADD PUSH1 0x40 MSTORE DUP1 SWAP3 SWAP2 SWAP1 DUP2 DUP2 MSTORE PUSH1 0x20 ADD DUP3 DUP1 SLOAD PUSH2 0x1800 SWAP1 PUSH2 0x20EE JUMP JUMPDEST DUP1 ISZERO PUSH2 0x184D JUMPI DUP1 PUSH1 0x1F LT PUSH2 0x1822 JUMPI PUSH2 0x100 DUP1 DUP4 SLOAD DIV MUL DUP4 MSTORE SWAP2 PUSH1 0x20 ADD SWAP2 PUSH2 0x184D JUMP JUMPDEST DUP3 ADD SWAP2 SWAP1 PUSH1 0x0 MSTORE PUSH1 0x20 PUSH1 0x0 KECCAK256 SWAP1 JUMPDEST DUP2 SLOAD DUP2 MSTORE SWAP1 PUSH1 0x1 ADD SWAP1 PUSH1 0x20 ADD DUP1 DUP4 GT PUSH2 0x1830 JUMPI DUP3 SWAP1 SUB PUSH1 0x1F AND DUP3 ADD SWAP2 JUMPDEST POP POP POP POP POP DUP2 MSTORE PUSH1 0x20 ADD PUSH2 0x1862 PUSH2 0x3E8 PUSH2 0x1156 JUMP JUMPDEST DUP2 MSTORE POP SWAP1 POP PUSH1 0x3 PUSH1 0x0 CALLER PUSH20 0xFFFFFFFFFFFFFFFFFFFFFFFFFFFFFFFFFFFFFFFF AND PUSH20 0xFFFFFFFFFFFFFFFFFFFFFFFFFFFFFFFFFFFFFFFF AND DUP2 MSTORE PUSH1 0x20 ADD SWAP1 DUP2 MSTORE PUSH1 0x20 ADD PUSH1 0x0 KECCAK256 DUP2 SWAP1 DUP1 PUSH1 0x1 DUP2 SLOAD ADD DUP1 DUP3 SSTORE DUP1 SWAP2 POP POP PUSH1 0x1 SWAP1 SUB SWAP1 PUSH1 0x0 MSTORE PUSH1 0x20 PUSH1 0x0 KECCAK256 SWAP1 PUSH1 0x4 MUL ADD PUSH1 0x0 SWAP1 SWAP2 SWAP1 SWAP2 SWAP1 SWAP2 POP PUSH1 0x0 DUP3 ADD MLOAD DUP2 PUSH1 0x0 ADD SSTORE PUSH1 0x20 DUP3 ADD MLOAD DUP2 PUSH1 0x1 ADD SSTORE PUSH1 0x40 DUP3 ADD MLOAD DUP2 PUSH1 0x2 ADD SWAP1 DUP2 PUSH2 0x18F9 SWAP2 SWAP1 PUSH2 0x22CB JUMP JUMPDEST POP PUSH1 0x60 DUP3 ADD MLOAD DUP2 PUSH1 0x3 ADD SSTORE POP POP POP JUMPDEST DUP4 PUSH1 0x3 PUSH1 0x0 DUP8 PUSH20 0xFFFFFFFFFFFFFFFFFFFFFFFFFFFFFFFFFFFFFFFF AND PUSH20 0xFFFFFFFFFFFFFFFFFFFFFFFFFFFFFFFFFFFFFFFF AND DUP2 MSTORE PUSH1 0x20 ADD SWAP1 DUP2 MSTORE PUSH1 0x20 ADD PUSH1 0x0 KECCAK256 DUP5 DUP2 SLOAD DUP2 LT PUSH2 0x195A JUMPI PUSH2 0x1959 PUSH2 0x249B JUMP JUMPDEST JUMPDEST SWAP1 PUSH1 0x0 MSTORE PUSH1 0x20 PUSH1 0x0 KECCAK256 SWAP1 PUSH1 0x4 MUL ADD PUSH1 0x0 ADD PUSH1 0x0 DUP3 DUP3 SLOAD PUSH2 0x197A SWAP2 SWAP1 PUSH2 0x2661 JUMP JUMPDEST SWAP3 POP POP DUP2 SWAP1 SSTORE POP DUP2 CALLVALUE GT ISZERO PUSH2 0x19E2 JUMPI PUSH1 0x0 DUP3 CALLVALUE PUSH2 0x1997 SWAP2 SWAP1 PUSH2 0x2661 JUMP JUMPDEST SWAP1 POP CALLER PUSH20 0xFFFFFFFFFFFFFFFFFFFFFFFFFFFFFFFFFFFFFFFF AND PUSH2 0x8FC DUP3 SWAP1 DUP2 ISZERO MUL SWAP1 PUSH1 0x40 MLOAD PUSH1 0x0 PUSH1 0x40 MLOAD DUP1 DUP4 SUB DUP2 DUP6 DUP9 DUP9 CALL SWAP4 POP POP POP POP ISZERO DUP1 ISZERO PUSH2 0x19DF JUMPI RETURNDATASIZE PUSH1 0x0 DUP1 RETURNDATACOPY RETURNDATASIZE PUSH1 0x0 REVERT JUMPDEST POP POP JUMPDEST PUSH1 0x0 SELFBALANCE SWAP1 POP DUP6 PUSH20 0xFFFFFFFFFFFFFFFFFFFFFFFFFFFFFFFFFFFFFFFF AND PUSH2 0x8FC DUP3 SWAP1 DUP2 ISZERO MUL SWAP1 PUSH1 0x40 MLOAD PUSH1 0x0 PUSH1 0x40 MLOAD DUP1 DUP4 SUB DUP2 DUP6 DUP9 DUP9 CALL SWAP4 POP POP POP POP ISZERO DUP1 ISZERO PUSH2 0x1A2D JUMPI RETURNDATASIZE PUSH1 0x0 DUP1 RETURNDATACOPY RETURNDATASIZE PUSH1 0x0 REVERT JUMPDEST POP POP POP POP POP POP POP JUMP JUMPDEST PUSH1 0x2 PUSH1 0x20 MSTORE DUP1 PUSH1 0x0 MSTORE PUSH1 0x40 PUSH1 0x0 KECCAK256 PUSH1 0x0 SWAP2 POP SWAP1 POP DUP1 PUSH1 0x0 ADD PUSH1 0x0 SWAP1 SLOAD SWAP1 PUSH2 0x100 EXP SWAP1 DIV PUSH1 0xFF AND SWAP1 POP DUP2 JUMP JUMPDEST POP DUP1 SLOAD PUSH2 0x1A6D SWAP1 PUSH2 0x20EE JUMP JUMPDEST PUSH1 0x0 DUP3 SSTORE DUP1 PUSH1 0x1F LT PUSH2 0x1A7F JUMPI POP PUSH2 0x1A9E JUMP JUMPDEST PUSH1 0x1F ADD PUSH1 0x20 SWAP1 DIV SWAP1 PUSH1 0x0 MSTORE PUSH1 0x20 PUSH1 0x0 KECCAK256 SWAP1 DUP2 ADD SWAP1 PUSH2 0x1A9D SWAP2 SWAP1 PUSH2 0x1AA1 JUMP JUMPDEST JUMPDEST POP JUMP JUMPDEST JUMPDEST DUP1 DUP3 GT ISZERO PUSH2 0x1ABA JUMPI PUSH1 0x0 DUP2 PUSH1 0x0 SWAP1 SSTORE POP PUSH1 0x1 ADD PUSH2 0x1AA2 JUMP JUMPDEST POP SWAP1 JUMP JUMPDEST PUSH1 0x0 DUP1 REVERT JUMPDEST PUSH1 0x0 DUP1 REVERT JUMPDEST PUSH1 0x0 PUSH20 0xFFFFFFFFFFFFFFFFFFFFFFFFFFFFFFFFFFFFFFFF DUP3 AND SWAP1 POP SWAP2 SWAP1 POP JUMP JUMPDEST PUSH1 0x0 PUSH2 0x1AF3 DUP3 PUSH2 0x1AC8 JUMP JUMPDEST SWAP1 POP SWAP2 SWAP1 POP JUMP JUMPDEST PUSH2 0x1B03 DUP2 PUSH2 0x1AE8 JUMP JUMPDEST DUP2 EQ PUSH2 0x1B0E JUMPI PUSH1 0x0 DUP1 REVERT JUMPDEST POP JUMP JUMPDEST PUSH1 0x0 DUP2 CALLDATALOAD SWAP1 POP PUSH2 0x1B20 DUP2 PUSH2 0x1AFA JUMP JUMPDEST SWAP3 SWAP2 POP POP JUMP JUMPDEST PUSH1 0x0 DUP2 SWAP1 POP SWAP2 SWAP1 POP JUMP JUMPDEST PUSH2 0x1B39 DUP2 PUSH2 0x1B26 JUMP JUMPDEST DUP2 EQ PUSH2 0x1B44 JUMPI PUSH1 0x0 DUP1 REVERT JUMPDEST POP JUMP JUMPDEST PUSH1 0x0 DUP2 CALLDATALOAD SWAP1 POP PUSH2 0x1B56 DUP2 PUSH2 0x1B30 JUMP JUMPDEST SWAP3 SWAP2 POP POP JUMP JUMPDEST PUSH1 0x0 DUP1 REVERT JUMPDEST PUSH1 0x0 DUP1 REVERT JUMPDEST PUSH1 0x0 DUP1 REVERT JUMPDEST PUSH1 0x0 DUP1 DUP4 PUSH1 0x1F DUP5 ADD SLT PUSH2 0x1B81 JUMPI PUSH2 0x1B80 PUSH2 0x1B5C JUMP JUMPDEST JUMPDEST DUP3 CALLDATALOAD SWAP1 POP PUSH8 0xFFFFFFFFFFFFFFFF DUP2 GT ISZERO PUSH2 0x1B9E JUMPI PUSH2 0x1B9D PUSH2 0x1B61 JUMP JUMPDEST JUMPDEST PUSH1 0x20 DUP4 ADD SWAP2 POP DUP4 PUSH1 0x1 DUP3 MUL DUP4 ADD GT ISZERO PUSH2 0x1BBA JUMPI PUSH2 0x1BB9 PUSH2 0x1B66 JUMP JUMPDEST JUMPDEST SWAP3 POP SWAP3 SWAP1 POP JUMP JUMPDEST PUSH1 0x0 DUP1 PUSH1 0x0 DUP1 PUSH1 0x0 DUP1 PUSH1 0xA0 DUP8 DUP10 SUB SLT ISZERO PUSH2 0x1BDE JUMPI PUSH2 0x1BDD PUSH2 0x1ABE JUMP JUMPDEST JUMPDEST PUSH1 0x0 PUSH2 0x1BEC DUP10 DUP3 DUP11 ADD PUSH2 0x1B11 JUMP JUMPDEST SWAP7 POP POP PUSH1 0x20 PUSH2 0x1BFD DUP10 DUP3 DUP11 ADD PUSH2 0x1B47 JUMP JUMPDEST SWAP6 POP POP PUSH1 0x40 PUSH2 0x1C0E DUP10 DUP3 DUP11 ADD PUSH2 0x1B47 JUMP JUMPDEST SWAP5 POP POP PUSH1 0x60 DUP8 ADD CALLDATALOAD PUSH8 0xFFFFFFFFFFFFFFFF DUP2 GT ISZERO PUSH2 0x1C2F JUMPI PUSH2 0x1C2E PUSH2 0x1AC3 JUMP JUMPDEST JUMPDEST PUSH2 0x1C3B DUP10 DUP3 DUP11 ADD PUSH2 0x1B6B JUMP JUMPDEST SWAP4 POP SWAP4 POP POP PUSH1 0x80 PUSH2 0x1C4E DUP10 DUP3 DUP11 ADD PUSH2 0x1B47 JUMP JUMPDEST SWAP2 POP POP SWAP3 SWAP6 POP SWAP3 SWAP6 POP SWAP3 SWAP6 JUMP JUMPDEST PUSH1 0x0 DUP1 PUSH1 0x0 PUSH1 0x60 DUP5 DUP7 SUB SLT ISZERO PUSH2 0x1C74 JUMPI PUSH2 0x1C73 PUSH2 0x1ABE JUMP JUMPDEST JUMPDEST PUSH1 0x0 PUSH2 0x1C82 DUP7 DUP3 DUP8 ADD PUSH2 0x1B11 JUMP JUMPDEST SWAP4 POP POP PUSH1 0x20 PUSH2 0x1C93 DUP7 DUP3 DUP8 ADD PUSH2 0x1B47 JUMP JUMPDEST SWAP3 POP POP PUSH1 0x40 PUSH2 0x1CA4 DUP7 DUP3 DUP8 ADD PUSH2 0x1B47 JUMP JUMPDEST SWAP2 POP POP SWAP3 POP SWAP3 POP SWAP3 JUMP JUMPDEST PUSH1 0x0 DUP1 PUSH1 0x0 DUP1 PUSH1 0x0 PUSH1 0x80 DUP7 DUP9 SUB SLT ISZERO PUSH2 0x1CCA JUMPI PUSH2 0x1CC9 PUSH2 0x1ABE JUMP JUMPDEST JUMPDEST PUSH1 0x0 PUSH2 0x1CD8 DUP9 DUP3 DUP10 ADD PUSH2 0x1B47 JUMP JUMPDEST SWAP6 POP POP PUSH1 0x20 PUSH2 0x1CE9 DUP9 DUP3 DUP10 ADD PUSH2 0x1B47 JUMP JUMPDEST SWAP5 POP POP PUSH1 0x40 DUP7 ADD CALLDATALOAD PUSH8 0xFFFFFFFFFFFFFFFF DUP2 GT ISZERO PUSH2 0x1D0A JUMPI PUSH2 0x1D09 PUSH2 0x1AC3 JUMP JUMPDEST JUMPDEST PUSH2 0x1D16 DUP9 DUP3 DUP10 ADD PUSH2 0x1B6B JUMP JUMPDEST SWAP4 POP SWAP4 POP POP PUSH1 0x60 PUSH2 0x1D29 DUP9 DUP3 DUP10 ADD PUSH2 0x1B47 JUMP JUMPDEST SWAP2 POP POP SWAP3 SWAP6 POP SWAP3 SWAP6 SWAP1 SWAP4 POP JUMP JUMPDEST PUSH2 0x1D3F DUP2 PUSH2 0x1AE8 JUMP JUMPDEST DUP3 MSTORE POP POP JUMP JUMPDEST PUSH1 0x0 PUSH1 0x20 DUP3 ADD SWAP1 POP PUSH2 0x1D5A PUSH1 0x0 DUP4 ADD DUP5 PUSH2 0x1D36 JUMP JUMPDEST SWAP3 SWAP2 POP POP JUMP JUMPDEST PUSH1 0x0 DUP1 PUSH1 0x40 DUP4 DUP6 SUB SLT ISZERO PUSH2 0x1D77 JUMPI PUSH2 0x1D76 PUSH2 0x1ABE JUMP JUMPDEST JUMPDEST PUSH1 0x0 PUSH2 0x1D85 DUP6 DUP3 DUP7 ADD PUSH2 0x1B11 JUMP JUMPDEST SWAP3 POP POP PUSH1 0x20 PUSH2 0x1D96 DUP6 DUP3 DUP7 ADD PUSH2 0x1B47 JUMP JUMPDEST SWAP2 POP POP SWAP3 POP SWAP3 SWAP1 POP JUMP JUMPDEST PUSH2 0x1DA9 DUP2 PUSH2 0x1B26 JUMP JUMPDEST DUP3 MSTORE POP POP JUMP JUMPDEST PUSH1 0x0 DUP2 MLOAD SWAP1 POP SWAP2 SWAP1 POP JUMP JUMPDEST PUSH1 0x0 DUP3 DUP3 MSTORE PUSH1 0x20 DUP3 ADD SWAP1 POP SWAP3 SWAP2 POP POP JUMP JUMPDEST PUSH1 0x0 JUMPDEST DUP4 DUP2 LT ISZERO PUSH2 0x1DE9 JUMPI DUP1 DUP3 ADD MLOAD DUP2 DUP5 ADD MSTORE PUSH1 0x20 DUP2 ADD SWAP1 POP PUSH2 0x1DCE JUMP JUMPDEST PUSH1 0x0 DUP5 DUP5 ADD MSTORE POP POP POP POP JUMP JUMPDEST PUSH1 0x0 PUSH1 0x1F NOT PUSH1 0x1F DUP4 ADD AND SWAP1 POP SWAP2 SWAP1 POP JUMP JUMPDEST PUSH1 0x0 PUSH2 0x1E11 DUP3 PUSH2 0x1DAF JUMP JUMPDEST PUSH2 0x1E1B DUP2 DUP6 PUSH2 0x1DBA JUMP JUMPDEST SWAP4 POP PUSH2 0x1E2B DUP2 DUP6 PUSH1 0x20 DUP7 ADD PUSH2 0x1DCB JUMP JUMPDEST PUSH2 0x1E34 DUP2 PUSH2 0x1DF5 JUMP JUMPDEST DUP5 ADD SWAP2 POP POP SWAP3 SWAP2 POP POP JUMP JUMPDEST PUSH1 0x0 PUSH1 0x80 DUP3 ADD SWAP1 POP PUSH2 0x1E54 PUSH1 0x0 DUP4 ADD DUP8 PUSH2 0x1DA0 JUMP JUMPDEST PUSH2 0x1E61 PUSH1 0x20 DUP4 ADD DUP7 PUSH2 0x1DA0 JUMP JUMPDEST DUP2 DUP2 SUB PUSH1 0x40 DUP4 ADD MSTORE PUSH2 0x1E73 DUP2 DUP6 PUSH2 0x1E06 JUMP JUMPDEST SWAP1 POP PUSH2 0x1E82 PUSH1 0x60 DUP4 ADD DUP5 PUSH2 0x1DA0 JUMP JUMPDEST SWAP6 SWAP5 POP POP POP POP POP JUMP JUMPDEST PUSH1 0x0 PUSH1 0x20 DUP3 DUP5 SUB SLT ISZERO PUSH2 0x1EA1 JUMPI PUSH2 0x1EA0 PUSH2 0x1ABE JUMP JUMPDEST JUMPDEST PUSH1 0x0 PUSH2 0x1EAF DUP5 DUP3 DUP6 ADD PUSH2 0x1B47 JUMP JUMPDEST SWAP2 POP POP SWAP3 SWAP2 POP POP JUMP JUMPDEST PUSH1 0x0 PUSH1 0x20 DUP3 ADD SWAP1 POP PUSH2 0x1ECD PUSH1 0x0 DUP4 ADD DUP5 PUSH2 0x1DA0 JUMP JUMPDEST SWAP3 SWAP2 POP POP JUMP JUMPDEST PUSH1 0x0 PUSH1 0x20 DUP3 DUP5 SUB SLT ISZERO PUSH2 0x1EE9 JUMPI PUSH2 0x1EE8 PUSH2 0x1ABE JUMP JUMPDEST JUMPDEST PUSH1 0x0 PUSH2 0x1EF7 DUP5 DUP3 DUP6 ADD PUSH2 0x1B11 JUMP JUMPDEST SWAP2 POP POP SWAP3 SWAP2 POP POP JUMP JUMPDEST PUSH32 0x4E487B7100000000000000000000000000000000000000000000000000000000 PUSH1 0x0 MSTORE PUSH1 0x21 PUSH1 0x4 MSTORE PUSH1 0x24 PUSH1 0x0 REVERT JUMPDEST PUSH1 0x3 DUP2 LT PUSH2 0x1F40 JUMPI PUSH2 0x1F3F PUSH2 0x1F00 JUMP JUMPDEST JUMPDEST POP JUMP JUMPDEST PUSH1 0x0 DUP2 SWAP1 POP PUSH2 0x1F51 DUP3 PUSH2 0x1F2F JUMP JUMPDEST SWAP2 SWAP1 POP JUMP JUMPDEST PUSH1 0x0 PUSH2 0x1F61 DUP3 PUSH2 0x1F43 JUMP JUMPDEST SWAP1 POP SWAP2 SWAP1 POP JUMP JUMPDEST PUSH2 0x1F71 DUP2 PUSH2 0x1F56 JUMP JUMPDEST DUP3 MSTORE POP POP JUMP JUMPDEST PUSH1 0x0 PUSH1 0x20 DUP3 ADD SWAP1 POP PUSH2 0x1F8C PUSH1 0x0 DUP4 ADD DUP5 PUSH2 0x1F68 JUMP JUMPDEST SWAP3 SWAP2 POP POP JUMP JUMPDEST POP JUMP JUMPDEST PUSH1 0x0 PUSH2 0x1FA2 PUSH1 0x0 DUP4 PUSH2 0x1DBA JUMP JUMPDEST SWAP2 POP PUSH2 0x1FAD DUP3 PUSH2 0x1F92 JUMP JUMPDEST PUSH1 0x0 DUP3 ADD SWAP1 POP SWAP2 SWAP1 POP JUMP JUMPDEST PUSH1 0x0 PUSH1 0x20 DUP3 ADD SWAP1 POP DUP2 DUP2 SUB PUSH1 0x0 DUP4 ADD MSTORE PUSH2 0x1FD1 DUP2 PUSH2 0x1F95 JUMP JUMPDEST SWAP1 POP SWAP2 SWAP1 POP JUMP JUMPDEST PUSH32 0xD09CD0B0D0B3D0B0D0B7D0B8D0BD20D0BDD0B520D181D0BED0BED182D0B2D0B5 PUSH1 0x0 DUP3 ADD MSTORE PUSH32 0xD182D181D0B2D183D0B5D18220D0BED182D0BFD180D0B0D0B2D0B8D182D0B5D0 PUSH1 0x20 DUP3 ADD MSTORE PUSH32 0xBBD18E0000000000000000000000000000000000000000000000000000000000 PUSH1 0x40 DUP3 ADD MSTORE POP JUMP JUMPDEST PUSH1 0x0 PUSH2 0x205A PUSH1 0x43 DUP4 PUSH2 0x1DBA JUMP JUMPDEST SWAP2 POP PUSH2 0x2065 DUP3 PUSH2 0x1FD8 JUMP JUMPDEST PUSH1 0x60 DUP3 ADD SWAP1 POP SWAP2 SWAP1 POP JUMP JUMPDEST PUSH1 0x0 PUSH1 0x20 DUP3 ADD SWAP1 POP DUP2 DUP2 SUB PUSH1 0x0 DUP4 ADD MSTORE PUSH2 0x2089 DUP2 PUSH2 0x204D JUMP JUMPDEST SWAP1 POP SWAP2 SWAP1 POP JUMP JUMPDEST PUSH32 0x4E487B7100000000000000000000000000000000000000000000000000000000 PUSH1 0x0 MSTORE PUSH1 0x41 PUSH1 0x4 MSTORE PUSH1 0x24 PUSH1 0x0 REVERT JUMPDEST PUSH32 0x4E487B7100000000000000000000000000000000000000000000000000000000 PUSH1 0x0 MSTORE PUSH1 0x22 PUSH1 0x4 MSTORE PUSH1 0x24 PUSH1 0x0 REVERT JUMPDEST PUSH1 0x0 PUSH1 0x2 DUP3 DIV SWAP1 POP PUSH1 0x1 DUP3 AND DUP1 PUSH2 0x2106 JUMPI PUSH1 0x7F DUP3 AND SWAP2 POP JUMPDEST PUSH1 0x20 DUP3 LT DUP2 SUB PUSH2 0x2119 JUMPI PUSH2 0x2118 PUSH2 0x20BF JUMP JUMPDEST JUMPDEST POP SWAP2 SWAP1 POP JUMP JUMPDEST PUSH1 0x0 DUP2 SWAP1 POP DUP2 PUSH1 0x0 MSTORE PUSH1 0x20 PUSH1 0x0 KECCAK256 SWAP1 POP SWAP2 SWAP1 POP JUMP JUMPDEST PUSH1 0x0 PUSH1 0x20 PUSH1 0x1F DUP4 ADD DIV SWAP1 POP SWAP2 SWAP1 POP JUMP JUMPDEST PUSH1 0x0 DUP3 DUP3 SHL SWAP1 POP SWAP3 SWAP2 POP POP JUMP JUMPDEST PUSH1 0x0 PUSH1 0x8 DUP4 MUL PUSH2 0x2181 PUSH32 0xFFFFFFFFFFFFFFFFFFFFFFFFFFFFFFFFFFFFFFFFFFFFFFFFFFFFFFFFFFFFFFFF DUP3 PUSH2 0x2144 JUMP JUMPDEST PUSH2 0x218B DUP7 DUP4 PUSH2 0x2144 JUMP JUMPDEST SWAP6 POP DUP1 NOT DUP5 AND SWAP4 POP DUP1 DUP7 AND DUP5 OR SWAP3 POP POP POP SWAP4 SWAP3 POP POP POP JUMP JUMPDEST PUSH1 0x0 DUP2 SWAP1 POP SWAP2 SWAP1 POP JUMP JUMPDEST PUSH1 0x0 PUSH2 0x21C8 PUSH2 0x21C3 PUSH2 0x21BE DUP5 PUSH2 0x1B26 JUMP JUMPDEST PUSH2 0x21A3 JUMP JUMPDEST PUSH2 0x1B26 JUMP JUMPDEST SWAP1 POP SWAP2 SWAP1 POP JUMP JUMPDEST PUSH1 0x0 DUP2 SWAP1 POP SWAP2 SWAP1 POP JUMP JUMPDEST PUSH2 0x21E2 DUP4 PUSH2 0x21AD JUMP JUMPDEST PUSH2 0x21F6 PUSH2 0x21EE DUP3 PUSH2 0x21CF JUMP JUMPDEST DUP5 DUP5 SLOAD PUSH2 0x2151 JUMP JUMPDEST DUP3 SSTORE POP POP POP POP JUMP JUMPDEST PUSH1 0x0 SWAP1 JUMP JUMPDEST PUSH2 0x220B PUSH2 0x21FE JUMP JUMPDEST PUSH2 0x2216 DUP2 DUP5 DUP5 PUSH2 0x21D9 JUMP JUMPDEST POP POP POP JUMP JUMPDEST JUMPDEST DUP2 DUP2 LT ISZERO PUSH2 0x223A JUMPI PUSH2 0x222F PUSH1 0x0 DUP3 PUSH2 0x2203 JUMP JUMPDEST PUSH1 0x1 DUP2 ADD SWAP1 POP PUSH2 0x221C JUMP JUMPDEST POP POP JUMP JUMPDEST PUSH1 0x1F DUP3 GT ISZERO PUSH2 0x227F JUMPI PUSH2 0x2250 DUP2 PUSH2 0x211F JUMP JUMPDEST PUSH2 0x2259 DUP5 PUSH2 0x2134 JUMP JUMPDEST DUP2 ADD PUSH1 0x20 DUP6 LT ISZERO PUSH2 0x2268 JUMPI DUP2 SWAP1 POP JUMPDEST PUSH2 0x227C PUSH2 0x2274 DUP6 PUSH2 0x2134 JUMP JUMPDEST DUP4 ADD DUP3 PUSH2 0x221B JUMP JUMPDEST POP POP JUMPDEST POP POP POP JUMP JUMPDEST PUSH1 0x0 DUP3 DUP3 SHR SWAP1 POP SWAP3 SWAP2 POP POP JUMP JUMPDEST PUSH1 0x0 PUSH2 0x22A2 PUSH1 0x0 NOT DUP5 PUSH1 0x8 MUL PUSH2 0x2284 JUMP JUMPDEST NOT DUP1 DUP4 AND SWAP2 POP POP SWAP3 SWAP2 POP POP JUMP JUMPDEST PUSH1 0x0 PUSH2 0x22BB DUP4 DUP4 PUSH2 0x2291 JUMP JUMPDEST SWAP2 POP DUP3 PUSH1 0x2 MUL DUP3 OR SWAP1 POP SWAP3 SWAP2 POP POP JUMP JUMPDEST PUSH2 0x22D4 DUP3 PUSH2 0x1DAF JUMP JUMPDEST PUSH8 0xFFFFFFFFFFFFFFFF DUP2 GT ISZERO PUSH2 0x22ED JUMPI PUSH2 0x22EC PUSH2 0x2090 JUMP JUMPDEST JUMPDEST PUSH2 0x22F7 DUP3 SLOAD PUSH2 0x20EE JUMP JUMPDEST PUSH2 0x2302 DUP3 DUP3 DUP6 PUSH2 0x223E JUMP JUMPDEST PUSH1 0x0 PUSH1 0x20 SWAP1 POP PUSH1 0x1F DUP4 GT PUSH1 0x1 DUP2 EQ PUSH2 0x2335 JUMPI PUSH1 0x0 DUP5 ISZERO PUSH2 0x2323 JUMPI DUP3 DUP8 ADD MLOAD SWAP1 POP JUMPDEST PUSH2 0x232D DUP6 DUP3 PUSH2 0x22AF JUMP JUMPDEST DUP7 SSTORE POP PUSH2 0x2395 JUMP JUMPDEST PUSH1 0x1F NOT DUP5 AND PUSH2 0x2343 DUP7 PUSH2 0x211F JUMP JUMPDEST PUSH1 0x0 JUMPDEST DUP3 DUP2 LT ISZERO PUSH2 0x236B JUMPI DUP5 DUP10 ADD MLOAD DUP3 SSTORE PUSH1 0x1 DUP3 ADD SWAP2 POP PUSH1 0x20 DUP6 ADD SWAP5 POP PUSH1 0x20 DUP2 ADD SWAP1 POP PUSH2 0x2346 JUMP JUMPDEST DUP7 DUP4 LT ISZERO PUSH2 0x2388 JUMPI DUP5 DUP10 ADD MLOAD PUSH2 0x2384 PUSH1 0x1F DUP10 AND DUP3 PUSH2 0x2291 JUMP JUMPDEST DUP4 SSTORE POP JUMPDEST PUSH1 0x1 PUSH1 0x2 DUP9 MUL ADD DUP9 SSTORE POP POP POP JUMPDEST POP POP POP POP POP POP JUMP JUMPDEST PUSH32 0x507572636861736520616D6F756E74206D757374206265206772656174657220 PUSH1 0x0 DUP3 ADD MSTORE PUSH32 0x7468616E20300000000000000000000000000000000000000000000000000000 PUSH1 0x20 DUP3 ADD MSTORE POP JUMP JUMPDEST PUSH1 0x0 PUSH2 0x23F9 PUSH1 0x26 DUP4 PUSH2 0x1DBA JUMP JUMPDEST SWAP2 POP PUSH2 0x2404 DUP3 PUSH2 0x239D JUMP JUMPDEST PUSH1 0x40 DUP3 ADD SWAP1 POP SWAP2 SWAP1 POP JUMP JUMPDEST PUSH1 0x0 PUSH1 0x20 DUP3 ADD SWAP1 POP DUP2 DUP2 SUB PUSH1 0x0 DUP4 ADD MSTORE PUSH2 0x2428 DUP2 PUSH2 0x23EC JUMP JUMPDEST SWAP1 POP SWAP2 SWAP1 POP JUMP JUMPDEST PUSH32 0x496E76616C69642070726F647563742049440000000000000000000000000000 PUSH1 0x0 DUP3 ADD MSTORE POP JUMP JUMPDEST PUSH1 0x0 PUSH2 0x2465 PUSH1 0x12 DUP4 PUSH2 0x1DBA JUMP JUMPDEST SWAP2 POP PUSH2 0x2470 DUP3 PUSH2 0x242F JUMP JUMPDEST PUSH1 0x20 DUP3 ADD SWAP1 POP SWAP2 SWAP1 POP JUMP JUMPDEST PUSH1 0x0 PUSH1 0x20 DUP3 ADD SWAP1 POP DUP2 DUP2 SUB PUSH1 0x0 DUP4 ADD MSTORE PUSH2 0x2494 DUP2 PUSH2 0x2458 JUMP JUMPDEST SWAP1 POP SWAP2 SWAP1 POP JUMP JUMPDEST PUSH32 0x4E487B7100000000000000000000000000000000000000000000000000000000 PUSH1 0x0 MSTORE PUSH1 0x32 PUSH1 0x4 MSTORE PUSH1 0x24 PUSH1 0x0 REVERT JUMPDEST PUSH1 0x0 DUP2 SWAP1 POP SWAP3 SWAP2 POP POP JUMP JUMPDEST PUSH1 0x0 DUP2 SWAP1 POP DUP2 PUSH1 0x0 MSTORE PUSH1 0x20 PUSH1 0x0 KECCAK256 SWAP1 POP SWAP2 SWAP1 POP JUMP JUMPDEST PUSH1 0x0 DUP2 SLOAD PUSH2 0x24F7 DUP2 PUSH2 0x20EE JUMP JUMPDEST PUSH2 0x2501 DUP2 DUP7 PUSH2 0x24CA JUMP JUMPDEST SWAP5 POP PUSH1 0x1 DUP3 AND PUSH1 0x0 DUP2 EQ PUSH2 0x251C JUMPI PUSH1 0x1 DUP2 EQ PUSH2 0x2531 JUMPI PUSH2 0x2564 JUMP JUMPDEST PUSH1 0xFF NOT DUP4 AND DUP7 MSTORE DUP2 ISZERO ISZERO DUP3 MUL DUP7 ADD SWAP4 POP PUSH2 0x2564 JUMP JUMPDEST PUSH2 0x253A DUP6 PUSH2 0x24D5 JUMP JUMPDEST PUSH1 0x0 JUMPDEST DUP4 DUP2 LT ISZERO PUSH2 0x255C JUMPI DUP2 SLOAD DUP2 DUP10 ADD MSTORE PUSH1 0x1 DUP3 ADD SWAP2 POP PUSH1 0x20 DUP2 ADD SWAP1 POP PUSH2 0x253D JUMP JUMPDEST DUP4 DUP9 ADD SWAP6 POP POP POP JUMPDEST POP POP POP SWAP3 SWAP2 POP POP JUMP JUMPDEST PUSH1 0x0 PUSH2 0x2579 DUP3 DUP5 PUSH2 0x24EA JUMP JUMPDEST SWAP2 POP DUP2 SWAP1 POP SWAP3 SWAP2 POP POP JUMP JUMPDEST PUSH32 0x4E487B7100000000000000000000000000000000000000000000000000000000 PUSH1 0x0 MSTORE PUSH1 0x11 PUSH1 0x4 MSTORE PUSH1 0x24 PUSH1 0x0 REVERT JUMPDEST PUSH1 0x0 PUSH2 0x25BE DUP3 PUSH2 0x1B26 JUMP JUMPDEST SWAP2 POP PUSH2 0x25C9 DUP4 PUSH2 0x1B26 JUMP JUMPDEST SWAP3 POP DUP3 DUP3 MUL PUSH2 0x25D7 DUP2 PUSH2 0x1B26 JUMP JUMPDEST SWAP2 POP DUP3 DUP3 DIV DUP5 EQ DUP4 ISZERO OR PUSH2 0x25EE JUMPI PUSH2 0x25ED PUSH2 0x2584 JUMP JUMPDEST JUMPDEST POP SWAP3 SWAP2 POP POP JUMP JUMPDEST PUSH32 0x496E73756666696369656E742066756E64732073656E74000000000000000000 PUSH1 0x0 DUP3 ADD MSTORE POP JUMP JUMPDEST PUSH1 0x0 PUSH2 0x262B PUSH1 0x17 DUP4 PUSH2 0x1DBA JUMP JUMPDEST SWAP2 POP PUSH2 0x2636 DUP3 PUSH2 0x25F5 JUMP JUMPDEST PUSH1 0x20 DUP3 ADD SWAP1 POP SWAP2 SWAP1 POP JUMP JUMPDEST PUSH1 0x0 PUSH1 0x20 DUP3 ADD SWAP1 POP DUP2 DUP2 SUB PUSH1 0x0 DUP4 ADD MSTORE PUSH2 0x265A DUP2 PUSH2 0x261E JUMP JUMPDEST SWAP1 POP SWAP2 SWAP1 POP JUMP JUMPDEST PUSH1 0x0 PUSH2 0x266C DUP3 PUSH2 0x1B26 JUMP JUMPDEST SWAP2 POP PUSH2 0x2677 DUP4 PUSH2 0x1B26 JUMP JUMPDEST SWAP3 POP DUP3 DUP3 SUB SWAP1 POP DUP2 DUP2 GT ISZERO PUSH2 0x268F JUMPI PUSH2 0x268E PUSH2 0x2584 JUMP JUMPDEST JUMPDEST SWAP3 SWAP2 POP POP JUMP JUMPDEST PUSH1 0x0 PUSH2 0x26A0 DUP3 PUSH2 0x1B26 JUMP JUMPDEST SWAP2 POP PUSH2 0x26AB DUP4 PUSH2 0x1B26 JUMP JUMPDEST SWAP3 POP DUP3 DUP3 ADD SWAP1 POP DUP1 DUP3 GT ISZERO PUSH2 0x26C3 JUMPI PUSH2 0x26C2 PUSH2 0x2584 JUMP JUMPDEST JUMPDEST SWAP3 SWAP2 POP POP JUMP JUMPDEST PUSH1 0x0 PUSH2 0x26D4 DUP3 PUSH2 0x1B26 JUMP JUMPDEST SWAP2 POP PUSH32 0xFFFFFFFFFFFFFFFFFFFFFFFFFFFFFFFFFFFFFFFFFFFFFFFFFFFFFFFFFFFFFFFF DUP3 SUB PUSH2 0x2706 JUMPI PUSH2 0x2705 PUSH2 0x2584 JUMP JUMPDEST JUMPDEST PUSH1 0x1 DUP3 ADD SWAP1 POP SWAP2 SWAP1 POP JUMP JUMPDEST PUSH32 0x4E487B7100000000000000000000000000000000000000000000000000000000 PUSH1 0x0 MSTORE PUSH1 0x12 PUSH1 0x4 MSTORE PUSH1 0x24 PUSH1 0x0 REVERT JUMPDEST PUSH1 0x0 PUSH2 0x274B DUP3 PUSH2 0x1B26 JUMP JUMPDEST SWAP2 POP PUSH2 0x2756 DUP4 PUSH2 0x1B26 JUMP JUMPDEST SWAP3 POP DUP3 PUSH2 0x2766 JUMPI PUSH2 0x2765 PUSH2 0x2711 JUMP JUMPDEST JUMPDEST DUP3 DUP3 DIV SWAP1 POP SWAP3 SWAP2 POP POP JUMP JUMPDEST PUSH1 0x0 DUP2 SWAP1 POP SWAP2 SWAP1 POP JUMP JUMPDEST PUSH2 0x278C PUSH2 0x2787 DUP3 PUSH2 0x1B26 JUMP JUMPDEST PUSH2 0x2771 JUMP JUMPDEST DUP3 MSTORE POP POP JUMP JUMPDEST PUSH1 0x0 DUP2 PUSH1 0x60 SHL SWAP1 POP SWAP2 SWAP1 POP JUMP JUMPDEST PUSH1 0x0 PUSH2 0x27AA DUP3 PUSH2 0x2792 JUMP JUMPDEST SWAP1 POP SWAP2 SWAP1 POP JUMP JUMPDEST PUSH1 0x0 PUSH2 0x27BC DUP3 PUSH2 0x279F JUMP JUMPDEST SWAP1 POP SWAP2 SWAP1 POP JUMP JUMPDEST PUSH2 0x27D4 PUSH2 0x27CF DUP3 PUSH2 0x1AE8 JUMP JUMPDEST PUSH2 0x27B1 JUMP JUMPDEST DUP3 MSTORE POP POP JUMP JUMPDEST PUSH1 0x0 PUSH2 0x27E6 DUP3 DUP7 PUSH2 0x277B JUMP JUMPDEST PUSH1 0x20 DUP3 ADD SWAP2 POP PUSH2 0x27F6 DUP3 DUP6 PUSH2 0x27C3 JUMP JUMPDEST PUSH1 0x14 DUP3 ADD SWAP2 POP PUSH2 0x2806 DUP3 DUP5 PUSH2 0x277B JUMP JUMPDEST PUSH1 0x20 DUP3 ADD SWAP2 POP DUP2 SWAP1 POP SWAP5 SWAP4 POP POP POP POP JUMP JUMPDEST PUSH1 0x0 PUSH2 0x2822 DUP3 PUSH2 0x1B26 JUMP JUMPDEST SWAP2 POP PUSH2 0x282D DUP4 PUSH2 0x1B26 JUMP JUMPDEST SWAP3 POP DUP3 PUSH2 0x283D JUMPI PUSH2 0x283C PUSH2 0x2711 JUMP JUMPDEST JUMPDEST DUP3 DUP3 MOD SWAP1 POP SWAP3 SWAP2 POP POP JUMP JUMPDEST PUSH32 0x4E6F7420656E6F7567682073746F636B20617661696C61626C65000000000000 PUSH1 0x0 DUP3 ADD MSTORE POP JUMP JUMPDEST PUSH1 0x0 PUSH2 0x287E PUSH1 0x1A DUP4 PUSH2 0x1DBA JUMP JUMPDEST SWAP2 POP PUSH2 0x2889 DUP3 PUSH2 0x2848 JUMP JUMPDEST PUSH1 0x20 DUP3 ADD SWAP1 POP SWAP2 SWAP1 POP JUMP JUMPDEST PUSH1 0x0 PUSH1 0x20 DUP3 ADD SWAP1 POP DUP2 DUP2 SUB PUSH1 0x0 DUP4 ADD MSTORE PUSH2 0x28AD DUP2 PUSH2 0x2871 JUMP JUMPDEST SWAP1 POP SWAP2 SWAP1 POP JUMP INVALID LOG2 PUSH5 0x6970667358 0x22 SLT KECCAK256 0xFB PREVRANDAO 0xAB 0xC9 KECCAK256 LOG3 EXTCODESIZE SHL PUSH12 0xDA4293CED48F6A1EA30FB3CC 0xE9 PREVRANDAO PUSH27 0x9CC06B60AA75B1B264736F6C634300081200330000000000000000 "
				},
				"gasEstimates": {
					"creation": {
						"codeDepositCost": "2094800",
						"executionCost": "2229",
						"totalCost": "2097029"
					},
					"external": {
						"addItems(address,uint256,uint256,string,uint256)": "infinite",
						"addItemsSupplier(uint256,uint256,string,uint256)": "infinite",
						"makeMarket()": "24634",
						"owner()": "2577",
						"purchase(address,uint256,uint256)": "infinite",
						"randMod(uint256)": "infinite",
						"refillStore(address,uint256,uint256)": "infinite",
						"refund(address,uint256)": "infinite",
						"supplier()": "2581",
						"userProducts(address,uint256)": "infinite",
						"users(address)": "3069"
					}
				},
				"methodIdentifiers": {
					"addItems(address,uint256,uint256,string,uint256)": "03194133",
					"addItemsSupplier(uint256,uint256,string,uint256)": "33af9f8b",
					"makeMarket()": "66d0dc67",
					"owner()": "8da5cb5b",
					"purchase(address,uint256,uint256)": "98968f15",
					"randMod(uint256)": "805553e8",
					"refillStore(address,uint256,uint256)": "05103ede",
					"refund(address,uint256)": "410085df",
					"supplier()": "36da4468",
					"userProducts(address,uint256)": "3d527883",
					"users(address)": "a87430ba"
				}
			},
			"storageLayout": {
				"storage": [
					{
						"astId": 3,
						"contract": "contracts/MarketPlace.sol:MarketPlace",
						"label": "owner",
						"offset": 0,
						"slot": "0",
						"type": "t_address"
					},
					{
						"astId": 5,
						"contract": "contracts/MarketPlace.sol:MarketPlace",
						"label": "supplier",
						"offset": 0,
						"slot": "1",
						"type": "t_address"
					},
					{
						"astId": 27,
						"contract": "contracts/MarketPlace.sol:MarketPlace",
						"label": "users",
						"offset": 0,
						"slot": "2",
						"type": "t_mapping(t_address,t_struct(User)13_storage)"
					},
					{
						"astId": 33,
						"contract": "contracts/MarketPlace.sol:MarketPlace",
						"label": "userProducts",
						"offset": 0,
						"slot": "3",
						"type": "t_mapping(t_address,t_array(t_struct(Product)22_storage)dyn_storage)"
					}
				],
				"types": {
					"t_address": {
						"encoding": "inplace",
						"label": "address",
						"numberOfBytes": "20"
					},
					"t_array(t_struct(Product)22_storage)dyn_storage": {
						"base": "t_struct(Product)22_storage",
						"encoding": "dynamic_array",
						"label": "struct MarketPlace.Product[]",
						"numberOfBytes": "32"
					},
					"t_enum(Role)9": {
						"encoding": "inplace",
						"label": "enum MarketPlace.Role",
						"numberOfBytes": "1"
					},
					"t_mapping(t_address,t_array(t_struct(Product)22_storage)dyn_storage)": {
						"encoding": "mapping",
						"key": "t_address",
						"label": "mapping(address => struct MarketPlace.Product[])",
						"numberOfBytes": "32",
						"value": "t_array(t_struct(Product)22_storage)dyn_storage"
					},
					"t_mapping(t_address,t_struct(User)13_storage)": {
						"encoding": "mapping",
						"key": "t_address",
						"label": "mapping(address => struct MarketPlace.User)",
						"numberOfBytes": "32",
						"value": "t_struct(User)13_storage"
					},
					"t_string_storage": {
						"encoding": "bytes",
						"label": "string",
						"numberOfBytes": "32"
					},
					"t_struct(Product)22_storage": {
						"encoding": "inplace",
						"label": "struct MarketPlace.Product",
						"members": [
							{
								"astId": 15,
								"contract": "contracts/MarketPlace.sol:MarketPlace",
								"label": "inStock",
								"offset": 0,
								"slot": "0",
								"type": "t_uint256"
							},
							{
								"astId": 17,
								"contract": "contracts/MarketPlace.sol:MarketPlace",
								"label": "price",
								"offset": 0,
								"slot": "1",
								"type": "t_uint256"
							},
							{
								"astId": 19,
								"contract": "contracts/MarketPlace.sol:MarketPlace",
								"label": "name",
								"offset": 0,
								"slot": "2",
								"type": "t_string_storage"
							},
							{
								"astId": 21,
								"contract": "contracts/MarketPlace.sol:MarketPlace",
								"label": "expDate",
								"offset": 0,
								"slot": "3",
								"type": "t_uint256"
							}
						],
						"numberOfBytes": "128"
					},
					"t_struct(User)13_storage": {
						"encoding": "inplace",
						"label": "struct MarketPlace.User",
						"members": [
							{
								"astId": 12,
								"contract": "contracts/MarketPlace.sol:MarketPlace",
								"label": "role",
								"offset": 0,
								"slot": "0",
								"type": "t_enum(Role)9"
							}
						],
						"numberOfBytes": "32"
					},
					"t_uint256": {
						"encoding": "inplace",
						"label": "uint256",
						"numberOfBytes": "32"
					}
				}
			},
			"userdoc": {
				"kind": "user",
				"methods": {},
				"version": 1
			}
		}
	}
}