{
	"contracts/MarketPlaceTest.sol": {
		"MarketPlace": {
			"abi": [
				{
					"inputs": [
						{
							"internalType": "address",
							"name": "_shop",
							"type": "address"
						},
						{
							"internalType": "uint256",
							"name": "_inStock",
							"type": "uint256"
						},
						{
							"internalType": "uint256",
							"name": "_price",
							"type": "uint256"
						},
						{
							"internalType": "string",
							"name": "_name",
							"type": "string"
						}
					],
					"name": "addItems",
					"outputs": [],
					"stateMutability": "nonpayable",
					"type": "function"
				},
				{
					"inputs": [
						{
							"internalType": "uint256",
							"name": "_inStock",
							"type": "uint256"
						},
						{
							"internalType": "uint256",
							"name": "_price",
							"type": "uint256"
						},
						{
							"internalType": "string",
							"name": "_name",
							"type": "string"
						}
					],
					"name": "addItemsSupplier",
					"outputs": [],
					"stateMutability": "nonpayable",
					"type": "function"
				},
				{
					"inputs": [],
					"name": "makeMarket",
					"outputs": [],
					"stateMutability": "nonpayable",
					"type": "function"
				},
				{
					"inputs": [],
					"name": "owner",
					"outputs": [
						{
							"internalType": "address",
							"name": "",
							"type": "address"
						}
					],
					"stateMutability": "view",
					"type": "function"
				},
				{
					"inputs": [
						{
							"internalType": "address",
							"name": "_shop",
							"type": "address"
						},
						{
							"internalType": "uint256",
							"name": "_amount",
							"type": "uint256"
						},
						{
							"internalType": "uint256",
							"name": "_id",
							"type": "uint256"
						}
					],
					"name": "purchase",
					"outputs": [],
					"stateMutability": "payable",
					"type": "function"
				},
				{
					"inputs": [
						{
							"internalType": "address",
							"name": "_shop",
							"type": "address"
						},
						{
							"internalType": "uint256",
							"name": "_productId",
							"type": "uint256"
						},
						{
							"internalType": "uint256",
							"name": "_amount",
							"type": "uint256"
						}
					],
					"name": "refillStore",
					"outputs": [],
					"stateMutability": "payable",
					"type": "function"
				},
				{
					"inputs": [],
					"name": "supplier",
					"outputs": [
						{
							"internalType": "address",
							"name": "",
							"type": "address"
						}
					],
					"stateMutability": "view",
					"type": "function"
				},
				{
					"inputs": [
						{
							"internalType": "address",
							"name": "",
							"type": "address"
						},
						{
							"internalType": "uint256",
							"name": "",
							"type": "uint256"
						}
					],
					"name": "userProducts",
					"outputs": [
						{
							"internalType": "uint256",
							"name": "inStock",
							"type": "uint256"
						},
						{
							"internalType": "uint256",
							"name": "price",
							"type": "uint256"
						},
						{
							"internalType": "string",
							"name": "name",
							"type": "string"
						}
					],
					"stateMutability": "view",
					"type": "function"
				},
				{
					"inputs": [
						{
							"internalType": "address",
							"name": "",
							"type": "address"
						}
					],
					"name": "users",
					"outputs": [
						{
							"internalType": "enum MarketPlace.Role",
							"name": "role",
							"type": "uint8"
						}
					],
					"stateMutability": "view",
					"type": "function"
				}
			],
			"devdoc": {
				"kind": "dev",
				"methods": {},
				"version": 1
			},
			"evm": {
				"assembly": "    /* \"contracts/MarketPlaceTest.sol\":171:4226  contract MarketPlace {... */\n  mstore(0x40, 0x80)\n  callvalue\n  dup1\n  iszero\n  tag_1\n  jumpi\n  0x00\n  dup1\n  revert\ntag_1:\n  pop\n  dataSize(sub_0)\n  dup1\n  dataOffset(sub_0)\n  0x00\n  codecopy\n  0x00\n  return\nstop\n\nsub_0: assembly {\n        /* \"contracts/MarketPlaceTest.sol\":171:4226  contract MarketPlace {... */\n      mstore(0x40, 0x80)\n      jumpi(tag_1, lt(calldatasize, 0x04))\n      shr(0xe0, calldataload(0x00))\n      dup1\n      0x8da5cb5b\n      gt\n      tag_11\n      jumpi\n      dup1\n      0x8da5cb5b\n      eq\n      tag_6\n      jumpi\n      dup1\n      0x98968f15\n      eq\n      tag_7\n      jumpi\n      dup1\n      0xa87430ba\n      eq\n      tag_8\n      jumpi\n      dup1\n      0xe1b5e055\n      eq\n      tag_9\n      jumpi\n      dup1\n      0xee0fd7f9\n      eq\n      tag_10\n      jumpi\n      jump(tag_1)\n    tag_11:\n      dup1\n      0x05103ede\n      eq\n      tag_2\n      jumpi\n      dup1\n      0x36da4468\n      eq\n      tag_3\n      jumpi\n      dup1\n      0x3d527883\n      eq\n      tag_4\n      jumpi\n      dup1\n      0x66d0dc67\n      eq\n      tag_5\n      jumpi\n    tag_1:\n      0x00\n      dup1\n      revert\n        /* \"contracts/MarketPlaceTest.sol\":1447:2499  function refillStore(address _shop, uint _productId, uint _amount) public payable AccessControl(Role.Market, _shop){... */\n    tag_2:\n      tag_12\n      0x04\n      dup1\n      calldatasize\n      sub\n      dup2\n      add\n      swap1\n      tag_13\n      swap2\n      swap1\n      tag_14\n      jump\t// in\n    tag_13:\n      tag_15\n      jump\t// in\n    tag_12:\n      stop\n        /* \"contracts/MarketPlaceTest.sol\":224:247  address public supplier */\n    tag_3:\n      callvalue\n      dup1\n      iszero\n      tag_16\n      jumpi\n      0x00\n      dup1\n      revert\n    tag_16:\n      pop\n      tag_17\n      tag_18\n      jump\t// in\n    tag_17:\n      mload(0x40)\n      tag_19\n      swap2\n      swap1\n      tag_20\n      jump\t// in\n    tag_19:\n      mload(0x40)\n      dup1\n      swap2\n      sub\n      swap1\n      return\n        /* \"contracts/MarketPlaceTest.sol\":473:522  mapping(address => Product[]) public userProducts */\n    tag_4:\n      callvalue\n      dup1\n      iszero\n      tag_21\n      jumpi\n      0x00\n      dup1\n      revert\n    tag_21:\n      pop\n      tag_22\n      0x04\n      dup1\n      calldatasize\n      sub\n      dup2\n      add\n      swap1\n      tag_23\n      swap2\n      swap1\n      tag_24\n      jump\t// in\n    tag_23:\n      tag_25\n      jump\t// in\n    tag_22:\n      mload(0x40)\n      tag_26\n      swap4\n      swap3\n      swap2\n      swap1\n      tag_27\n      jump\t// in\n    tag_26:\n      mload(0x40)\n      dup1\n      swap2\n      sub\n      swap1\n      return\n        /* \"contracts/MarketPlaceTest.sol\":1111:1195  function makeMarket() public  {... */\n    tag_5:\n      callvalue\n      dup1\n      iszero\n      tag_28\n      jumpi\n      0x00\n      dup1\n      revert\n    tag_28:\n      pop\n      tag_29\n      tag_30\n      jump\t// in\n    tag_29:\n      stop\n        /* \"contracts/MarketPlaceTest.sol\":198:218  address public owner */\n    tag_6:\n      callvalue\n      dup1\n      iszero\n      tag_31\n      jumpi\n      0x00\n      dup1\n      revert\n    tag_31:\n      pop\n      tag_32\n      tag_33\n      jump\t// in\n    tag_32:\n      mload(0x40)\n      tag_34\n      swap2\n      swap1\n      tag_20\n      jump\t// in\n    tag_34:\n      mload(0x40)\n      dup1\n      swap2\n      sub\n      swap1\n      return\n        /* \"contracts/MarketPlaceTest.sol\":2505:4223  function purchase(address _shop, uint _amount, uint _id) public payable {... */\n    tag_7:\n      tag_35\n      0x04\n      dup1\n      calldatasize\n      sub\n      dup2\n      add\n      swap1\n      tag_36\n      swap2\n      swap1\n      tag_14\n      jump\t// in\n    tag_36:\n      tag_37\n      jump\t// in\n    tag_35:\n      stop\n        /* \"contracts/MarketPlaceTest.sol\":430:467  mapping(address => User) public users */\n    tag_8:\n      callvalue\n      dup1\n      iszero\n      tag_38\n      jumpi\n      0x00\n      dup1\n      revert\n    tag_38:\n      pop\n      tag_39\n      0x04\n      dup1\n      calldatasize\n      sub\n      dup2\n      add\n      swap1\n      tag_40\n      swap2\n      swap1\n      tag_41\n      jump\t// in\n    tag_40:\n      tag_42\n      jump\t// in\n    tag_39:\n      mload(0x40)\n      tag_43\n      swap2\n      swap1\n      tag_44\n      jump\t// in\n    tag_43:\n      mload(0x40)\n      dup1\n      swap2\n      sub\n      swap1\n      return\n        /* \"contracts/MarketPlaceTest.sol\":785:1066  function addItemsSupplier(uint _inStock, uint _price, string calldata _name) public{... */\n    tag_9:\n      callvalue\n      dup1\n      iszero\n      tag_45\n      jumpi\n      0x00\n      dup1\n      revert\n    tag_45:\n      pop\n      tag_46\n      0x04\n      dup1\n      calldatasize\n      sub\n      dup2\n      add\n      swap1\n      tag_47\n      swap2\n      swap1\n      tag_48\n      jump\t// in\n    tag_47:\n      tag_49\n      jump\t// in\n    tag_46:\n      stop\n        /* \"contracts/MarketPlaceTest.sol\":1205:1441  function addItems(address _shop, uint _inStock, uint _price, string calldata _name) public AccessControl(Role.Market, _shop) {... */\n    tag_10:\n      callvalue\n      dup1\n      iszero\n      tag_50\n      jumpi\n      0x00\n      dup1\n      revert\n    tag_50:\n      pop\n      tag_51\n      0x04\n      dup1\n      calldatasize\n      sub\n      dup2\n      add\n      swap1\n      tag_52\n      swap2\n      swap1\n      tag_53\n      jump\t// in\n    tag_52:\n      tag_54\n      jump\t// in\n    tag_51:\n      stop\n        /* \"contracts/MarketPlaceTest.sol\":1447:2499  function refillStore(address _shop, uint _productId, uint _amount) public payable AccessControl(Role.Market, _shop){... */\n    tag_15:\n        /* \"contracts/MarketPlaceTest.sol\":1543:1554  Role.Market */\n      0x01\n        /* \"contracts/MarketPlaceTest.sol\":1556:1561  _shop */\n      dup4\n        /* \"contracts/MarketPlaceTest.sol\":627:632  _role */\n      dup2\n        /* \"contracts/MarketPlaceTest.sol\":601:632  users[msg.sender].role == _role */\n      0x02\n      dup2\n      gt\n      iszero\n      tag_56\n      jumpi\n      tag_57\n      tag_58\n      jump\t// in\n    tag_57:\n    tag_56:\n        /* \"contracts/MarketPlaceTest.sol\":601:606  users */\n      0x02\n        /* \"contracts/MarketPlaceTest.sol\":601:618  users[msg.sender] */\n      0x00\n        /* \"contracts/MarketPlaceTest.sol\":607:617  msg.sender */\n      caller\n        /* \"contracts/MarketPlaceTest.sol\":601:618  users[msg.sender] */\n      0xffffffffffffffffffffffffffffffffffffffff\n      and\n      0xffffffffffffffffffffffffffffffffffffffff\n      and\n      dup2\n      mstore\n      0x20\n      add\n      swap1\n      dup2\n      mstore\n      0x20\n      add\n      0x00\n      keccak256\n        /* \"contracts/MarketPlaceTest.sol\":601:623  users[msg.sender].role */\n      0x00\n      add\n      0x00\n      swap1\n      sload\n      swap1\n      0x0100\n      exp\n      swap1\n      div\n      0xff\n      and\n        /* \"contracts/MarketPlaceTest.sol\":601:632  users[msg.sender].role == _role */\n      0x02\n      dup2\n      gt\n      iszero\n      tag_59\n      jumpi\n      tag_60\n      tag_58\n      jump\t// in\n    tag_60:\n    tag_59:\n      eq\n        /* \"contracts/MarketPlaceTest.sol\":593:644  require(users[msg.sender].role == _role, unicode\"\") */\n      tag_61\n      jumpi\n      mload(0x40)\n      0x08c379a000000000000000000000000000000000000000000000000000000000\n      dup2\n      mstore\n      0x04\n      add\n      tag_62\n      swap1\n      tag_63\n      jump\t// in\n    tag_62:\n      mload(0x40)\n      dup1\n      swap2\n      sub\n      swap1\n      revert\n    tag_61:\n        /* \"contracts/MarketPlaceTest.sol\":676:681  _shop */\n      dup1\n        /* \"contracts/MarketPlaceTest.sol\":662:681  msg.sender == _shop */\n      0xffffffffffffffffffffffffffffffffffffffff\n      and\n        /* \"contracts/MarketPlaceTest.sol\":662:672  msg.sender */\n      caller\n        /* \"contracts/MarketPlaceTest.sol\":662:681  msg.sender == _shop */\n      0xffffffffffffffffffffffffffffffffffffffff\n      and\n      eq\n        /* \"contracts/MarketPlaceTest.sol\":654:760  require(msg.sender == _shop, unicode\"Магазин не соответсвует отправителю\") */\n      tag_64\n      jumpi\n      mload(0x40)\n      0x08c379a000000000000000000000000000000000000000000000000000000000\n      dup2\n      mstore\n      0x04\n      add\n      tag_65\n      swap1\n      tag_66\n      jump\t// in\n    tag_65:\n      mload(0x40)\n      dup1\n      swap2\n      sub\n      swap1\n      revert\n    tag_64:\n        /* \"contracts/MarketPlaceTest.sol\":1590:1591  0 */\n      0x00\n        /* \"contracts/MarketPlaceTest.sol\":1580:1587  _amount */\n      dup4\n        /* \"contracts/MarketPlaceTest.sol\":1580:1591  _amount > 0 */\n      gt\n        /* \"contracts/MarketPlaceTest.sol\":1572:1634  require(_amount > 0, \"Purchase amount must be greater than 0\") */\n      tag_68\n      jumpi\n      mload(0x40)\n      0x08c379a000000000000000000000000000000000000000000000000000000000\n      dup2\n      mstore\n      0x04\n      add\n      tag_69\n      swap1\n      tag_70\n      jump\t// in\n    tag_69:\n      mload(0x40)\n      dup1\n      swap2\n      sub\n      swap1\n      revert\n    tag_68:\n        /* \"contracts/MarketPlaceTest.sol\":1665:1677  userProducts */\n      0x03\n        /* \"contracts/MarketPlaceTest.sol\":1665:1684  userProducts[_shop] */\n      0x00\n        /* \"contracts/MarketPlaceTest.sol\":1678:1683  _shop */\n      dup7\n        /* \"contracts/MarketPlaceTest.sol\":1665:1684  userProducts[_shop] */\n      0xffffffffffffffffffffffffffffffffffffffff\n      and\n      0xffffffffffffffffffffffffffffffffffffffff\n      and\n      dup2\n      mstore\n      0x20\n      add\n      swap1\n      dup2\n      mstore\n      0x20\n      add\n      0x00\n      keccak256\n        /* \"contracts/MarketPlaceTest.sol\":1665:1691  userProducts[_shop].length */\n      dup1\n      sload\n      swap1\n      pop\n        /* \"contracts/MarketPlaceTest.sol\":1652:1662  _productId */\n      dup5\n        /* \"contracts/MarketPlaceTest.sol\":1652:1691  _productId < userProducts[_shop].length */\n      lt\n        /* \"contracts/MarketPlaceTest.sol\":1644:1714  require(_productId < userProducts[_shop].length, \"Invalid product ID\") */\n      tag_71\n      jumpi\n      mload(0x40)\n      0x08c379a000000000000000000000000000000000000000000000000000000000\n      dup2\n      mstore\n      0x04\n      add\n      tag_72\n      swap1\n      tag_73\n      jump\t// in\n    tag_72:\n      mload(0x40)\n      dup1\n      swap2\n      sub\n      swap1\n      revert\n    tag_71:\n        /* \"contracts/MarketPlaceTest.sol\":1725:1740  uint totalPrice */\n      0x00\n        /* \"contracts/MarketPlaceTest.sol\":1750:1760  uint price */\n      dup1\n        /* \"contracts/MarketPlaceTest.sol\":1770:1794  string memory targetName */\n      0x00\n        /* \"contracts/MarketPlaceTest.sol\":1797:1809  userProducts */\n      0x03\n        /* \"contracts/MarketPlaceTest.sol\":1797:1816  userProducts[_shop] */\n      0x00\n        /* \"contracts/MarketPlaceTest.sol\":1810:1815  _shop */\n      dup10\n        /* \"contracts/MarketPlaceTest.sol\":1797:1816  userProducts[_shop] */\n      0xffffffffffffffffffffffffffffffffffffffff\n      and\n      0xffffffffffffffffffffffffffffffffffffffff\n      and\n      dup2\n      mstore\n      0x20\n      add\n      swap1\n      dup2\n      mstore\n      0x20\n      add\n      0x00\n      keccak256\n        /* \"contracts/MarketPlaceTest.sol\":1817:1827  _productId */\n      dup8\n        /* \"contracts/MarketPlaceTest.sol\":1797:1828  userProducts[_shop][_productId] */\n      dup2\n      sload\n      dup2\n      lt\n      tag_74\n      jumpi\n      tag_75\n      tag_76\n      jump\t// in\n    tag_75:\n    tag_74:\n      swap1\n      0x00\n      mstore\n      keccak256(0x00, 0x20)\n      swap1\n      0x03\n      mul\n      add\n        /* \"contracts/MarketPlaceTest.sol\":1797:1833  userProducts[_shop][_productId].name */\n      0x02\n      add\n        /* \"contracts/MarketPlaceTest.sol\":1770:1833  string memory targetName = userProducts[_shop][_productId].name */\n      dup1\n      sload\n      tag_78\n      swap1\n      tag_79\n      jump\t// in\n    tag_78:\n      dup1\n      0x1f\n      add\n      0x20\n      dup1\n      swap2\n      div\n      mul\n      0x20\n      add\n      mload(0x40)\n      swap1\n      dup2\n      add\n      0x40\n      mstore\n      dup1\n      swap3\n      swap2\n      swap1\n      dup2\n      dup2\n      mstore\n      0x20\n      add\n      dup3\n      dup1\n      sload\n      tag_80\n      swap1\n      tag_79\n      jump\t// in\n    tag_80:\n      dup1\n      iszero\n      tag_81\n      jumpi\n      dup1\n      0x1f\n      lt\n      tag_82\n      jumpi\n      0x0100\n      dup1\n      dup4\n      sload\n      div\n      mul\n      dup4\n      mstore\n      swap2\n      0x20\n      add\n      swap2\n      jump(tag_81)\n    tag_82:\n      dup3\n      add\n      swap2\n      swap1\n      0x00\n      mstore\n      keccak256(0x00, 0x20)\n      swap1\n    tag_83:\n      dup2\n      sload\n      dup2\n      mstore\n      swap1\n      0x01\n      add\n      swap1\n      0x20\n      add\n      dup1\n      dup4\n      gt\n      tag_83\n      jumpi\n      dup3\n      swap1\n      sub\n      0x1f\n      and\n      dup3\n      add\n      swap2\n    tag_81:\n      pop\n      pop\n      pop\n      pop\n      pop\n      swap1\n      pop\n        /* \"contracts/MarketPlaceTest.sol\":1848:1854  uint i */\n      0x00\n        /* \"contracts/MarketPlaceTest.sol\":1844:2343  for(uint i = 0; i< userProducts[supplier].length; i++){... */\n    tag_84:\n        /* \"contracts/MarketPlaceTest.sol\":1863:1875  userProducts */\n      0x03\n        /* \"contracts/MarketPlaceTest.sol\":1863:1885  userProducts[supplier] */\n      0x00\n        /* \"contracts/MarketPlaceTest.sol\":1876:1884  supplier */\n      0x01\n      0x00\n      swap1\n      sload\n      swap1\n      0x0100\n      exp\n      swap1\n      div\n      0xffffffffffffffffffffffffffffffffffffffff\n      and\n        /* \"contracts/MarketPlaceTest.sol\":1863:1885  userProducts[supplier] */\n      0xffffffffffffffffffffffffffffffffffffffff\n      and\n      0xffffffffffffffffffffffffffffffffffffffff\n      and\n      dup2\n      mstore\n      0x20\n      add\n      swap1\n      dup2\n      mstore\n      0x20\n      add\n      0x00\n      keccak256\n        /* \"contracts/MarketPlaceTest.sol\":1863:1892  userProducts[supplier].length */\n      dup1\n      sload\n      swap1\n      pop\n        /* \"contracts/MarketPlaceTest.sol\":1860:1861  i */\n      dup2\n        /* \"contracts/MarketPlaceTest.sol\":1860:1892  i< userProducts[supplier].length */\n      lt\n        /* \"contracts/MarketPlaceTest.sol\":1844:2343  for(uint i = 0; i< userProducts[supplier].length; i++){... */\n      iszero\n      tag_85\n      jumpi\n        /* \"contracts/MarketPlaceTest.sol\":1964:1976  userProducts */\n      0x03\n        /* \"contracts/MarketPlaceTest.sol\":1964:1986  userProducts[supplier] */\n      0x00\n        /* \"contracts/MarketPlaceTest.sol\":1977:1985  supplier */\n      0x01\n      0x00\n      swap1\n      sload\n      swap1\n      0x0100\n      exp\n      swap1\n      div\n      0xffffffffffffffffffffffffffffffffffffffff\n      and\n        /* \"contracts/MarketPlaceTest.sol\":1964:1986  userProducts[supplier] */\n      0xffffffffffffffffffffffffffffffffffffffff\n      and\n      0xffffffffffffffffffffffffffffffffffffffff\n      and\n      dup2\n      mstore\n      0x20\n      add\n      swap1\n      dup2\n      mstore\n      0x20\n      add\n      0x00\n      keccak256\n        /* \"contracts/MarketPlaceTest.sol\":1987:1988  i */\n      dup2\n        /* \"contracts/MarketPlaceTest.sol\":1964:1989  userProducts[supplier][i] */\n      dup2\n      sload\n      dup2\n      lt\n      tag_87\n      jumpi\n      tag_88\n      tag_76\n      jump\t// in\n    tag_88:\n    tag_87:\n      swap1\n      0x00\n      mstore\n      keccak256(0x00, 0x20)\n      swap1\n      0x03\n      mul\n      add\n        /* \"contracts/MarketPlaceTest.sol\":1964:1994  userProducts[supplier][i].name */\n      0x02\n      add\n        /* \"contracts/MarketPlaceTest.sol\":1948:1996  keccak256(bytes(userProducts[supplier][i].name)) */\n      mload(0x40)\n      tag_90\n      swap2\n      swap1\n      tag_91\n      jump\t// in\n    tag_90:\n      mload(0x40)\n      dup1\n      swap2\n      sub\n      swap1\n      keccak256\n        /* \"contracts/MarketPlaceTest.sol\":1932:1942  targetName */\n      dup3\n        /* \"contracts/MarketPlaceTest.sol\":1916:1944  keccak256(bytes(targetName)) */\n      dup1\n      mload\n      swap1\n      0x20\n      add\n      keccak256\n        /* \"contracts/MarketPlaceTest.sol\":1916:1996  keccak256(bytes(targetName)) == keccak256(bytes(userProducts[supplier][i].name)) */\n      sub\n        /* \"contracts/MarketPlaceTest.sol\":1912:2333  if (keccak256(bytes(targetName)) == keccak256(bytes(userProducts[supplier][i].name))){... */\n      tag_92\n      jumpi\n        /* \"contracts/MarketPlaceTest.sol\":2023:2035  userProducts */\n      0x03\n        /* \"contracts/MarketPlaceTest.sol\":2023:2045  userProducts[supplier] */\n      0x00\n        /* \"contracts/MarketPlaceTest.sol\":2036:2044  supplier */\n      0x01\n      0x00\n      swap1\n      sload\n      swap1\n      0x0100\n      exp\n      swap1\n      div\n      0xffffffffffffffffffffffffffffffffffffffff\n      and\n        /* \"contracts/MarketPlaceTest.sol\":2023:2045  userProducts[supplier] */\n      0xffffffffffffffffffffffffffffffffffffffff\n      and\n      0xffffffffffffffffffffffffffffffffffffffff\n      and\n      dup2\n      mstore\n      0x20\n      add\n      swap1\n      dup2\n      mstore\n      0x20\n      add\n      0x00\n      keccak256\n        /* \"contracts/MarketPlaceTest.sol\":2046:2047  i */\n      dup2\n        /* \"contracts/MarketPlaceTest.sol\":2023:2048  userProducts[supplier][i] */\n      dup2\n      sload\n      dup2\n      lt\n      tag_93\n      jumpi\n      tag_94\n      tag_76\n      jump\t// in\n    tag_94:\n    tag_93:\n      swap1\n      0x00\n      mstore\n      keccak256(0x00, 0x20)\n      swap1\n      0x03\n      mul\n      add\n        /* \"contracts/MarketPlaceTest.sol\":2023:2054  userProducts[supplier][i].price */\n      0x01\n      add\n      sload\n        /* \"contracts/MarketPlaceTest.sol\":2015:2054  price = userProducts[supplier][i].price */\n      swap3\n      pop\n        /* \"contracts/MarketPlaceTest.sol\":2103:2110  1 ether */\n      0x0de0b6b3a7640000\n        /* \"contracts/MarketPlaceTest.sol\":2093:2100  _amount */\n      dup8\n        /* \"contracts/MarketPlaceTest.sol\":2085:2090  price */\n      dup5\n        /* \"contracts/MarketPlaceTest.sol\":2085:2100  price * _amount */\n      tag_96\n      swap2\n      swap1\n      tag_97\n      jump\t// in\n    tag_96:\n        /* \"contracts/MarketPlaceTest.sol\":2085:2110  price * _amount * 1 ether */\n      tag_98\n      swap2\n      swap1\n      tag_97\n      jump\t// in\n    tag_98:\n        /* \"contracts/MarketPlaceTest.sol\":2072:2110  totalPrice = price * _amount * 1 ether */\n      swap4\n      pop\n        /* \"contracts/MarketPlaceTest.sol\":2149:2159  totalPrice */\n      dup4\n        /* \"contracts/MarketPlaceTest.sol\":2136:2145  msg.value */\n      callvalue\n        /* \"contracts/MarketPlaceTest.sol\":2136:2159  msg.value >= totalPrice */\n      lt\n      iszero\n        /* \"contracts/MarketPlaceTest.sol\":2128:2187  require(msg.value >= totalPrice, \"Insufficient funds sent\") */\n      tag_99\n      jumpi\n      mload(0x40)\n      0x08c379a000000000000000000000000000000000000000000000000000000000\n      dup2\n      mstore\n      0x04\n      add\n      tag_100\n      swap1\n      tag_101\n      jump\t// in\n    tag_100:\n      mload(0x40)\n      dup1\n      swap2\n      sub\n      swap1\n      revert\n    tag_99:\n        /* \"contracts/MarketPlaceTest.sol\":2240:2247  _amount */\n      dup7\n        /* \"contracts/MarketPlaceTest.sol\":2205:2217  userProducts */\n      0x03\n        /* \"contracts/MarketPlaceTest.sol\":2205:2227  userProducts[supplier] */\n      0x00\n        /* \"contracts/MarketPlaceTest.sol\":2218:2226  supplier */\n      0x01\n      0x00\n      swap1\n      sload\n      swap1\n      0x0100\n      exp\n      swap1\n      div\n      0xffffffffffffffffffffffffffffffffffffffff\n      and\n        /* \"contracts/MarketPlaceTest.sol\":2205:2227  userProducts[supplier] */\n      0xffffffffffffffffffffffffffffffffffffffff\n      and\n      0xffffffffffffffffffffffffffffffffffffffff\n      and\n      dup2\n      mstore\n      0x20\n      add\n      swap1\n      dup2\n      mstore\n      0x20\n      add\n      0x00\n      keccak256\n        /* \"contracts/MarketPlaceTest.sol\":2228:2229  i */\n      dup3\n        /* \"contracts/MarketPlaceTest.sol\":2205:2230  userProducts[supplier][i] */\n      dup2\n      sload\n      dup2\n      lt\n      tag_102\n      jumpi\n      tag_103\n      tag_76\n      jump\t// in\n    tag_103:\n    tag_102:\n      swap1\n      0x00\n      mstore\n      keccak256(0x00, 0x20)\n      swap1\n      0x03\n      mul\n      add\n        /* \"contracts/MarketPlaceTest.sol\":2205:2238  userProducts[supplier][i].inStock */\n      0x00\n      add\n      0x00\n        /* \"contracts/MarketPlaceTest.sol\":2205:2247  userProducts[supplier][i].inStock-=_amount */\n      dup3\n      dup3\n      sload\n      tag_105\n      swap2\n      swap1\n      tag_106\n      jump\t// in\n    tag_105:\n      swap3\n      pop\n      pop\n      dup2\n      swap1\n      sstore\n      pop\n        /* \"contracts/MarketPlaceTest.sol\":2308:2315  _amount */\n      dup7\n        /* \"contracts/MarketPlaceTest.sol\":2265:2277  userProducts */\n      0x03\n        /* \"contracts/MarketPlaceTest.sol\":2265:2284  userProducts[_shop] */\n      0x00\n        /* \"contracts/MarketPlaceTest.sol\":2278:2283  _shop */\n      dup12\n        /* \"contracts/MarketPlaceTest.sol\":2265:2284  userProducts[_shop] */\n      0xffffffffffffffffffffffffffffffffffffffff\n      and\n      0xffffffffffffffffffffffffffffffffffffffff\n      and\n      dup2\n      mstore\n      0x20\n      add\n      swap1\n      dup2\n      mstore\n      0x20\n      add\n      0x00\n      keccak256\n        /* \"contracts/MarketPlaceTest.sol\":2285:2295  _productId */\n      dup10\n        /* \"contracts/MarketPlaceTest.sol\":2265:2296  userProducts[_shop][_productId] */\n      dup2\n      sload\n      dup2\n      lt\n      tag_107\n      jumpi\n      tag_108\n      tag_76\n      jump\t// in\n    tag_108:\n    tag_107:\n      swap1\n      0x00\n      mstore\n      keccak256(0x00, 0x20)\n      swap1\n      0x03\n      mul\n      add\n        /* \"contracts/MarketPlaceTest.sol\":2265:2304  userProducts[_shop][_productId].inStock */\n      0x00\n      add\n      0x00\n        /* \"contracts/MarketPlaceTest.sol\":2265:2315  userProducts[_shop][_productId].inStock += _amount */\n      dup3\n      dup3\n      sload\n      tag_110\n      swap2\n      swap1\n      tag_111\n      jump\t// in\n    tag_110:\n      swap3\n      pop\n      pop\n      dup2\n      swap1\n      sstore\n      pop\n        /* \"contracts/MarketPlaceTest.sol\":1912:2333  if (keccak256(bytes(targetName)) == keccak256(bytes(userProducts[supplier][i].name))){... */\n    tag_92:\n        /* \"contracts/MarketPlaceTest.sol\":1894:1897  i++ */\n      dup1\n      dup1\n      tag_112\n      swap1\n      tag_113\n      jump\t// in\n    tag_112:\n      swap2\n      pop\n      pop\n        /* \"contracts/MarketPlaceTest.sol\":1844:2343  for(uint i = 0; i< userProducts[supplier].length; i++){... */\n      jump(tag_84)\n    tag_85:\n      pop\n        /* \"contracts/MarketPlaceTest.sol\":2369:2379  totalPrice */\n      dup3\n        /* \"contracts/MarketPlaceTest.sol\":2357:2366  msg.value */\n      callvalue\n        /* \"contracts/MarketPlaceTest.sol\":2357:2379  msg.value > totalPrice */\n      gt\n        /* \"contracts/MarketPlaceTest.sol\":2353:2492  if (msg.value > totalPrice) {... */\n      iszero\n      tag_114\n      jumpi\n        /* \"contracts/MarketPlaceTest.sol\":2395:2406  uint change */\n      0x00\n        /* \"contracts/MarketPlaceTest.sol\":2421:2431  totalPrice */\n      dup4\n        /* \"contracts/MarketPlaceTest.sol\":2409:2418  msg.value */\n      callvalue\n        /* \"contracts/MarketPlaceTest.sol\":2409:2431  msg.value - totalPrice */\n      tag_115\n      swap2\n      swap1\n      tag_106\n      jump\t// in\n    tag_115:\n        /* \"contracts/MarketPlaceTest.sol\":2395:2431  uint change = msg.value - totalPrice */\n      swap1\n      pop\n        /* \"contracts/MarketPlaceTest.sol\":2453:2463  msg.sender */\n      caller\n        /* \"contracts/MarketPlaceTest.sol\":2445:2473  payable(msg.sender).transfer */\n      0xffffffffffffffffffffffffffffffffffffffff\n      and\n        /* \"contracts/MarketPlaceTest.sol\":2445:2481  payable(msg.sender).transfer(change) */\n      0x08fc\n        /* \"contracts/MarketPlaceTest.sol\":2474:2480  change */\n      dup3\n        /* \"contracts/MarketPlaceTest.sol\":2445:2481  payable(msg.sender).transfer(change) */\n      swap1\n      dup2\n      iszero\n      mul\n      swap1\n      mload(0x40)\n      0x00\n      mload(0x40)\n      dup1\n      dup4\n      sub\n      dup2\n      dup6\n      dup9\n      dup9\n      call\n      swap4\n      pop\n      pop\n      pop\n      pop\n      iszero\n      dup1\n      iszero\n      tag_117\n      jumpi\n      returndatasize\n      0x00\n      dup1\n      returndatacopy\n      revert(0x00, returndatasize)\n    tag_117:\n      pop\n        /* \"contracts/MarketPlaceTest.sol\":2381:2492  {... */\n      pop\n        /* \"contracts/MarketPlaceTest.sol\":2353:2492  if (msg.value > totalPrice) {... */\n    tag_114:\n        /* \"contracts/MarketPlaceTest.sol\":1562:2499  {... */\n      pop\n      pop\n      pop\n        /* \"contracts/MarketPlaceTest.sol\":1447:2499  function refillStore(address _shop, uint _productId, uint _amount) public payable AccessControl(Role.Market, _shop){... */\n      pop\n      pop\n      pop\n      pop\n      pop\n      jump\t// out\n        /* \"contracts/MarketPlaceTest.sol\":224:247  address public supplier */\n    tag_18:\n      0x01\n      0x00\n      swap1\n      sload\n      swap1\n      0x0100\n      exp\n      swap1\n      div\n      0xffffffffffffffffffffffffffffffffffffffff\n      and\n      dup2\n      jump\t// out\n        /* \"contracts/MarketPlaceTest.sol\":473:522  mapping(address => Product[]) public userProducts */\n    tag_25:\n      mstore(0x20, 0x03)\n      dup2\n      0x00\n      mstore\n      keccak256(0x00, 0x40)\n      dup2\n      dup2\n      sload\n      dup2\n      lt\n      tag_118\n      jumpi\n      0x00\n      dup1\n      revert\n    tag_118:\n      swap1\n      0x00\n      mstore\n      keccak256(0x00, 0x20)\n      swap1\n      0x03\n      mul\n      add\n      0x00\n      swap2\n      pop\n      swap2\n      pop\n      pop\n      dup1\n      0x00\n      add\n      sload\n      swap1\n      dup1\n      0x01\n      add\n      sload\n      swap1\n      dup1\n      0x02\n      add\n      dup1\n      sload\n      tag_120\n      swap1\n      tag_79\n      jump\t// in\n    tag_120:\n      dup1\n      0x1f\n      add\n      0x20\n      dup1\n      swap2\n      div\n      mul\n      0x20\n      add\n      mload(0x40)\n      swap1\n      dup2\n      add\n      0x40\n      mstore\n      dup1\n      swap3\n      swap2\n      swap1\n      dup2\n      dup2\n      mstore\n      0x20\n      add\n      dup3\n      dup1\n      sload\n      tag_121\n      swap1\n      tag_79\n      jump\t// in\n    tag_121:\n      dup1\n      iszero\n      tag_122\n      jumpi\n      dup1\n      0x1f\n      lt\n      tag_123\n      jumpi\n      0x0100\n      dup1\n      dup4\n      sload\n      div\n      mul\n      dup4\n      mstore\n      swap2\n      0x20\n      add\n      swap2\n      jump(tag_122)\n    tag_123:\n      dup3\n      add\n      swap2\n      swap1\n      0x00\n      mstore\n      keccak256(0x00, 0x20)\n      swap1\n    tag_124:\n      dup2\n      sload\n      dup2\n      mstore\n      swap1\n      0x01\n      add\n      swap1\n      0x20\n      add\n      dup1\n      dup4\n      gt\n      tag_124\n      jumpi\n      dup3\n      swap1\n      sub\n      0x1f\n      and\n      dup3\n      add\n      swap2\n    tag_122:\n      pop\n      pop\n      pop\n      pop\n      pop\n      swap1\n      pop\n      dup4\n      jump\t// out\n        /* \"contracts/MarketPlaceTest.sol\":1111:1195  function makeMarket() public  {... */\n    tag_30:\n        /* \"contracts/MarketPlaceTest.sol\":1171:1188  User(Role.Market) */\n      mload(0x40)\n      dup1\n      0x20\n      add\n      0x40\n      mstore\n      dup1\n        /* \"contracts/MarketPlaceTest.sol\":1176:1187  Role.Market */\n      0x01\n        /* \"contracts/MarketPlaceTest.sol\":1171:1188  User(Role.Market) */\n      0x02\n      dup2\n      gt\n      iszero\n      tag_126\n      jumpi\n      tag_127\n      tag_58\n      jump\t// in\n    tag_127:\n    tag_126:\n      dup2\n      mstore\n      pop\n        /* \"contracts/MarketPlaceTest.sol\":1151:1156  users */\n      0x02\n        /* \"contracts/MarketPlaceTest.sol\":1151:1168  users[msg.sender] */\n      0x00\n        /* \"contracts/MarketPlaceTest.sol\":1157:1167  msg.sender */\n      caller\n        /* \"contracts/MarketPlaceTest.sol\":1151:1168  users[msg.sender] */\n      0xffffffffffffffffffffffffffffffffffffffff\n      and\n      0xffffffffffffffffffffffffffffffffffffffff\n      and\n      dup2\n      mstore\n      0x20\n      add\n      swap1\n      dup2\n      mstore\n      0x20\n      add\n      0x00\n      keccak256\n        /* \"contracts/MarketPlaceTest.sol\":1151:1188  users[msg.sender] = User(Role.Market) */\n      0x00\n      dup3\n      add\n      mload\n      dup2\n      0x00\n      add\n      exp(0x0100, 0x00)\n      dup2\n      sload\n      dup2\n      0xff\n      mul\n      not\n      and\n      swap1\n      dup4\n      0x02\n      dup2\n      gt\n      iszero\n      tag_128\n      jumpi\n      tag_129\n      tag_58\n      jump\t// in\n    tag_129:\n    tag_128:\n      mul\n      or\n      swap1\n      sstore\n      pop\n      swap1\n      pop\n      pop\n        /* \"contracts/MarketPlaceTest.sol\":1111:1195  function makeMarket() public  {... */\n      jump\t// out\n        /* \"contracts/MarketPlaceTest.sol\":198:218  address public owner */\n    tag_33:\n      0x00\n      dup1\n      sload\n      swap1\n      0x0100\n      exp\n      swap1\n      div\n      0xffffffffffffffffffffffffffffffffffffffff\n      and\n      dup2\n      jump\t// out\n        /* \"contracts/MarketPlaceTest.sol\":2505:4223  function purchase(address _shop, uint _amount, uint _id) public payable {... */\n    tag_37:\n        /* \"contracts/MarketPlaceTest.sol\":2617:2626  Role.User */\n      0x00\n        /* \"contracts/MarketPlaceTest.sol\":2591:2626  users[msg.sender].role == Role.User */\n      0x02\n      dup2\n      gt\n      iszero\n      tag_131\n      jumpi\n      tag_132\n      tag_58\n      jump\t// in\n    tag_132:\n    tag_131:\n        /* \"contracts/MarketPlaceTest.sol\":2591:2596  users */\n      0x02\n        /* \"contracts/MarketPlaceTest.sol\":2591:2608  users[msg.sender] */\n      0x00\n        /* \"contracts/MarketPlaceTest.sol\":2597:2607  msg.sender */\n      caller\n        /* \"contracts/MarketPlaceTest.sol\":2591:2608  users[msg.sender] */\n      0xffffffffffffffffffffffffffffffffffffffff\n      and\n      0xffffffffffffffffffffffffffffffffffffffff\n      and\n      dup2\n      mstore\n      0x20\n      add\n      swap1\n      dup2\n      mstore\n      0x20\n      add\n      0x00\n      keccak256\n        /* \"contracts/MarketPlaceTest.sol\":2591:2613  users[msg.sender].role */\n      0x00\n      add\n      0x00\n      swap1\n      sload\n      swap1\n      0x0100\n      exp\n      swap1\n      div\n      0xff\n      and\n        /* \"contracts/MarketPlaceTest.sol\":2591:2626  users[msg.sender].role == Role.User */\n      0x02\n      dup2\n      gt\n      iszero\n      tag_133\n      jumpi\n      tag_134\n      tag_58\n      jump\t// in\n    tag_134:\n    tag_133:\n      sub\n        /* \"contracts/MarketPlaceTest.sol\":2587:2689  if (users[msg.sender].role == Role.User) {... */\n      tag_135\n      jumpi\n        /* \"contracts/MarketPlaceTest.sol\":2662:2678  User( Role.User) */\n      mload(0x40)\n      dup1\n      0x20\n      add\n      0x40\n      mstore\n      dup1\n        /* \"contracts/MarketPlaceTest.sol\":2668:2677  Role.User */\n      0x00\n        /* \"contracts/MarketPlaceTest.sol\":2662:2678  User( Role.User) */\n      0x02\n      dup2\n      gt\n      iszero\n      tag_136\n      jumpi\n      tag_137\n      tag_58\n      jump\t// in\n    tag_137:\n    tag_136:\n      dup2\n      mstore\n      pop\n        /* \"contracts/MarketPlaceTest.sol\":2642:2647  users */\n      0x02\n        /* \"contracts/MarketPlaceTest.sol\":2642:2659  users[msg.sender] */\n      0x00\n        /* \"contracts/MarketPlaceTest.sol\":2648:2658  msg.sender */\n      caller\n        /* \"contracts/MarketPlaceTest.sol\":2642:2659  users[msg.sender] */\n      0xffffffffffffffffffffffffffffffffffffffff\n      and\n      0xffffffffffffffffffffffffffffffffffffffff\n      and\n      dup2\n      mstore\n      0x20\n      add\n      swap1\n      dup2\n      mstore\n      0x20\n      add\n      0x00\n      keccak256\n        /* \"contracts/MarketPlaceTest.sol\":2642:2678  users[msg.sender] = User( Role.User) */\n      0x00\n      dup3\n      add\n      mload\n      dup2\n      0x00\n      add\n      exp(0x0100, 0x00)\n      dup2\n      sload\n      dup2\n      0xff\n      mul\n      not\n      and\n      swap1\n      dup4\n      0x02\n      dup2\n      gt\n      iszero\n      tag_138\n      jumpi\n      tag_139\n      tag_58\n      jump\t// in\n    tag_139:\n    tag_138:\n      mul\n      or\n      swap1\n      sstore\n      pop\n      swap1\n      pop\n      pop\n        /* \"contracts/MarketPlaceTest.sol\":2587:2689  if (users[msg.sender].role == Role.User) {... */\n    tag_135:\n        /* \"contracts/MarketPlaceTest.sol\":2725:2726  0 */\n      0x00\n        /* \"contracts/MarketPlaceTest.sol\":2715:2722  _amount */\n      dup3\n        /* \"contracts/MarketPlaceTest.sol\":2715:2726  _amount > 0 */\n      gt\n        /* \"contracts/MarketPlaceTest.sol\":2707:2769  require(_amount > 0, \"Purchase amount must be greater than 0\") */\n      tag_140\n      jumpi\n      mload(0x40)\n      0x08c379a000000000000000000000000000000000000000000000000000000000\n      dup2\n      mstore\n      0x04\n      add\n      tag_141\n      swap1\n      tag_70\n      jump\t// in\n    tag_141:\n      mload(0x40)\n      dup1\n      swap2\n      sub\n      swap1\n      revert\n    tag_140:\n        /* \"contracts/MarketPlaceTest.sol\":2793:2805  userProducts */\n      0x03\n        /* \"contracts/MarketPlaceTest.sol\":2793:2812  userProducts[_shop] */\n      0x00\n        /* \"contracts/MarketPlaceTest.sol\":2806:2811  _shop */\n      dup5\n        /* \"contracts/MarketPlaceTest.sol\":2793:2812  userProducts[_shop] */\n      0xffffffffffffffffffffffffffffffffffffffff\n      and\n      0xffffffffffffffffffffffffffffffffffffffff\n      and\n      dup2\n      mstore\n      0x20\n      add\n      swap1\n      dup2\n      mstore\n      0x20\n      add\n      0x00\n      keccak256\n        /* \"contracts/MarketPlaceTest.sol\":2793:2819  userProducts[_shop].length */\n      dup1\n      sload\n      swap1\n      pop\n        /* \"contracts/MarketPlaceTest.sol\":2787:2790  _id */\n      dup2\n        /* \"contracts/MarketPlaceTest.sol\":2787:2819  _id < userProducts[_shop].length */\n      lt\n        /* \"contracts/MarketPlaceTest.sol\":2779:2842  require(_id < userProducts[_shop].length, \"Invalid product ID\") */\n      tag_142\n      jumpi\n      mload(0x40)\n      0x08c379a000000000000000000000000000000000000000000000000000000000\n      dup2\n      mstore\n      0x04\n      add\n      tag_143\n      swap1\n      tag_73\n      jump\t// in\n    tag_143:\n      mload(0x40)\n      dup1\n      swap2\n      sub\n      swap1\n      revert\n    tag_142:\n        /* \"contracts/MarketPlaceTest.sol\":2871:2883  userProducts */\n      0x03\n        /* \"contracts/MarketPlaceTest.sol\":2871:2890  userProducts[_shop] */\n      0x00\n        /* \"contracts/MarketPlaceTest.sol\":2884:2889  _shop */\n      dup5\n        /* \"contracts/MarketPlaceTest.sol\":2871:2890  userProducts[_shop] */\n      0xffffffffffffffffffffffffffffffffffffffff\n      and\n      0xffffffffffffffffffffffffffffffffffffffff\n      and\n      dup2\n      mstore\n      0x20\n      add\n      swap1\n      dup2\n      mstore\n      0x20\n      add\n      0x00\n      keccak256\n        /* \"contracts/MarketPlaceTest.sol\":2891:2894  _id */\n      dup2\n        /* \"contracts/MarketPlaceTest.sol\":2871:2895  userProducts[_shop][_id] */\n      dup2\n      sload\n      dup2\n      lt\n      tag_144\n      jumpi\n      tag_145\n      tag_76\n      jump\t// in\n    tag_145:\n    tag_144:\n      swap1\n      0x00\n      mstore\n      keccak256(0x00, 0x20)\n      swap1\n      0x03\n      mul\n      add\n        /* \"contracts/MarketPlaceTest.sol\":2871:2903  userProducts[_shop][_id].inStock */\n      0x00\n      add\n      sload\n        /* \"contracts/MarketPlaceTest.sol\":2860:2867  _amount */\n      dup3\n        /* \"contracts/MarketPlaceTest.sol\":2860:2903  _amount <= userProducts[_shop][_id].inStock */\n      gt\n      iszero\n        /* \"contracts/MarketPlaceTest.sol\":2852:2934  require(_amount <= userProducts[_shop][_id].inStock, \"Not enough stock available\") */\n      tag_147\n      jumpi\n      mload(0x40)\n      0x08c379a000000000000000000000000000000000000000000000000000000000\n      dup2\n      mstore\n      0x04\n      add\n      tag_148\n      swap1\n      tag_149\n      jump\t// in\n    tag_148:\n      mload(0x40)\n      dup1\n      swap2\n      sub\n      swap1\n      revert\n    tag_147:\n        /* \"contracts/MarketPlaceTest.sol\":2945:2960  uint totalPrice */\n      0x00\n        /* \"contracts/MarketPlaceTest.sol\":3006:3013  1 ether */\n      0x0de0b6b3a7640000\n        /* \"contracts/MarketPlaceTest.sol\":2973:2985  userProducts */\n      0x03\n        /* \"contracts/MarketPlaceTest.sol\":2973:2992  userProducts[_shop] */\n      0x00\n        /* \"contracts/MarketPlaceTest.sol\":2986:2991  _shop */\n      dup7\n        /* \"contracts/MarketPlaceTest.sol\":2973:2992  userProducts[_shop] */\n      0xffffffffffffffffffffffffffffffffffffffff\n      and\n      0xffffffffffffffffffffffffffffffffffffffff\n      and\n      dup2\n      mstore\n      0x20\n      add\n      swap1\n      dup2\n      mstore\n      0x20\n      add\n      0x00\n      keccak256\n        /* \"contracts/MarketPlaceTest.sol\":2993:2996  _id */\n      dup4\n        /* \"contracts/MarketPlaceTest.sol\":2973:2997  userProducts[_shop][_id] */\n      dup2\n      sload\n      dup2\n      lt\n      tag_150\n      jumpi\n      tag_151\n      tag_76\n      jump\t// in\n    tag_151:\n    tag_150:\n      swap1\n      0x00\n      mstore\n      keccak256(0x00, 0x20)\n      swap1\n      0x03\n      mul\n      add\n        /* \"contracts/MarketPlaceTest.sol\":2973:3003  userProducts[_shop][_id].price */\n      0x01\n      add\n      sload\n        /* \"contracts/MarketPlaceTest.sol\":2963:2970  _amount */\n      dup5\n        /* \"contracts/MarketPlaceTest.sol\":2963:3003  _amount * userProducts[_shop][_id].price */\n      tag_153\n      swap2\n      swap1\n      tag_97\n      jump\t// in\n    tag_153:\n        /* \"contracts/MarketPlaceTest.sol\":2963:3013  _amount * userProducts[_shop][_id].price * 1 ether */\n      tag_154\n      swap2\n      swap1\n      tag_97\n      jump\t// in\n    tag_154:\n        /* \"contracts/MarketPlaceTest.sol\":2945:3013  uint totalPrice = _amount * userProducts[_shop][_id].price * 1 ether */\n      swap1\n      pop\n        /* \"contracts/MarketPlaceTest.sol\":3044:3054  totalPrice */\n      dup1\n        /* \"contracts/MarketPlaceTest.sol\":3031:3040  msg.value */\n      callvalue\n        /* \"contracts/MarketPlaceTest.sol\":3031:3054  msg.value >= totalPrice */\n      lt\n      iszero\n        /* \"contracts/MarketPlaceTest.sol\":3023:3082  require(msg.value >= totalPrice, \"Insufficient funds sent\") */\n      tag_155\n      jumpi\n      mload(0x40)\n      0x08c379a000000000000000000000000000000000000000000000000000000000\n      dup2\n      mstore\n      0x04\n      add\n      tag_156\n      swap1\n      tag_101\n      jump\t// in\n    tag_156:\n      mload(0x40)\n      dup1\n      swap2\n      sub\n      swap1\n      revert\n    tag_155:\n        /* \"contracts/MarketPlaceTest.sol\":3183:3201  bool productExists */\n      0x00\n        /* \"contracts/MarketPlaceTest.sol\":3224:3230  uint i */\n      dup1\n        /* \"contracts/MarketPlaceTest.sol\":3219:3626  for (uint i = 0; i < userProducts[msg.sender].length; i++) {... */\n    tag_157:\n        /* \"contracts/MarketPlaceTest.sol\":3240:3252  userProducts */\n      0x03\n        /* \"contracts/MarketPlaceTest.sol\":3240:3264  userProducts[msg.sender] */\n      0x00\n        /* \"contracts/MarketPlaceTest.sol\":3253:3263  msg.sender */\n      caller\n        /* \"contracts/MarketPlaceTest.sol\":3240:3264  userProducts[msg.sender] */\n      0xffffffffffffffffffffffffffffffffffffffff\n      and\n      0xffffffffffffffffffffffffffffffffffffffff\n      and\n      dup2\n      mstore\n      0x20\n      add\n      swap1\n      dup2\n      mstore\n      0x20\n      add\n      0x00\n      keccak256\n        /* \"contracts/MarketPlaceTest.sol\":3240:3271  userProducts[msg.sender].length */\n      dup1\n      sload\n      swap1\n      pop\n        /* \"contracts/MarketPlaceTest.sol\":3236:3237  i */\n      dup2\n        /* \"contracts/MarketPlaceTest.sol\":3236:3271  i < userProducts[msg.sender].length */\n      lt\n        /* \"contracts/MarketPlaceTest.sol\":3219:3626  for (uint i = 0; i < userProducts[msg.sender].length; i++) {... */\n      iszero\n      tag_158\n      jumpi\n        /* \"contracts/MarketPlaceTest.sol\":3366:3378  userProducts */\n      0x03\n        /* \"contracts/MarketPlaceTest.sol\":3366:3385  userProducts[_shop] */\n      0x00\n        /* \"contracts/MarketPlaceTest.sol\":3379:3384  _shop */\n      dup8\n        /* \"contracts/MarketPlaceTest.sol\":3366:3385  userProducts[_shop] */\n      0xffffffffffffffffffffffffffffffffffffffff\n      and\n      0xffffffffffffffffffffffffffffffffffffffff\n      and\n      dup2\n      mstore\n      0x20\n      add\n      swap1\n      dup2\n      mstore\n      0x20\n      add\n      0x00\n      keccak256\n        /* \"contracts/MarketPlaceTest.sol\":3386:3389  _id */\n      dup5\n        /* \"contracts/MarketPlaceTest.sol\":3366:3390  userProducts[_shop][_id] */\n      dup2\n      sload\n      dup2\n      lt\n      tag_160\n      jumpi\n      tag_161\n      tag_76\n      jump\t// in\n    tag_161:\n    tag_160:\n      swap1\n      0x00\n      mstore\n      keccak256(0x00, 0x20)\n      swap1\n      0x03\n      mul\n      add\n        /* \"contracts/MarketPlaceTest.sol\":3366:3395  userProducts[_shop][_id].name */\n      0x02\n      add\n        /* \"contracts/MarketPlaceTest.sol\":3350:3397  keccak256(bytes(userProducts[_shop][_id].name)) */\n      mload(0x40)\n      tag_163\n      swap2\n      swap1\n      tag_91\n      jump\t// in\n    tag_163:\n      mload(0x40)\n      dup1\n      swap2\n      sub\n      swap1\n      keccak256\n        /* \"contracts/MarketPlaceTest.sol\":3312:3324  userProducts */\n      0x03\n        /* \"contracts/MarketPlaceTest.sol\":3312:3336  userProducts[msg.sender] */\n      0x00\n        /* \"contracts/MarketPlaceTest.sol\":3325:3335  msg.sender */\n      caller\n        /* \"contracts/MarketPlaceTest.sol\":3312:3336  userProducts[msg.sender] */\n      0xffffffffffffffffffffffffffffffffffffffff\n      and\n      0xffffffffffffffffffffffffffffffffffffffff\n      and\n      dup2\n      mstore\n      0x20\n      add\n      swap1\n      dup2\n      mstore\n      0x20\n      add\n      0x00\n      keccak256\n        /* \"contracts/MarketPlaceTest.sol\":3337:3338  i */\n      dup3\n        /* \"contracts/MarketPlaceTest.sol\":3312:3339  userProducts[msg.sender][i] */\n      dup2\n      sload\n      dup2\n      lt\n      tag_164\n      jumpi\n      tag_165\n      tag_76\n      jump\t// in\n    tag_165:\n    tag_164:\n      swap1\n      0x00\n      mstore\n      keccak256(0x00, 0x20)\n      swap1\n      0x03\n      mul\n      add\n        /* \"contracts/MarketPlaceTest.sol\":3312:3344  userProducts[msg.sender][i].name */\n      0x02\n      add\n        /* \"contracts/MarketPlaceTest.sol\":3296:3346  keccak256(bytes(userProducts[msg.sender][i].name)) */\n      mload(0x40)\n      tag_167\n      swap2\n      swap1\n      tag_91\n      jump\t// in\n    tag_167:\n      mload(0x40)\n      dup1\n      swap2\n      sub\n      swap1\n      keccak256\n        /* \"contracts/MarketPlaceTest.sol\":3296:3397  keccak256(bytes(userProducts[msg.sender][i].name)) == keccak256(bytes(userProducts[_shop][_id].name)) */\n      sub\n        /* \"contracts/MarketPlaceTest.sol\":3292:3616  if (keccak256(bytes(userProducts[msg.sender][i].name)) == keccak256(bytes(userProducts[_shop][_id].name))) {... */\n      tag_168\n      jumpi\n        /* \"contracts/MarketPlaceTest.sol\":3456:3463  _amount */\n      dup5\n        /* \"contracts/MarketPlaceTest.sol\":3417:3429  userProducts */\n      0x03\n        /* \"contracts/MarketPlaceTest.sol\":3417:3441  userProducts[msg.sender] */\n      0x00\n        /* \"contracts/MarketPlaceTest.sol\":3430:3440  msg.sender */\n      caller\n        /* \"contracts/MarketPlaceTest.sol\":3417:3441  userProducts[msg.sender] */\n      0xffffffffffffffffffffffffffffffffffffffff\n      and\n      0xffffffffffffffffffffffffffffffffffffffff\n      and\n      dup2\n      mstore\n      0x20\n      add\n      swap1\n      dup2\n      mstore\n      0x20\n      add\n      0x00\n      keccak256\n        /* \"contracts/MarketPlaceTest.sol\":3442:3443  i */\n      dup3\n        /* \"contracts/MarketPlaceTest.sol\":3417:3444  userProducts[msg.sender][i] */\n      dup2\n      sload\n      dup2\n      lt\n      tag_169\n      jumpi\n      tag_170\n      tag_76\n      jump\t// in\n    tag_170:\n    tag_169:\n      swap1\n      0x00\n      mstore\n      keccak256(0x00, 0x20)\n      swap1\n      0x03\n      mul\n      add\n        /* \"contracts/MarketPlaceTest.sol\":3417:3452  userProducts[msg.sender][i].inStock */\n      0x00\n      add\n      0x00\n        /* \"contracts/MarketPlaceTest.sol\":3417:3463  userProducts[msg.sender][i].inStock += _amount */\n      dup3\n      dup3\n      sload\n      tag_172\n      swap2\n      swap1\n      tag_111\n      jump\t// in\n    tag_172:\n      swap3\n      pop\n      pop\n      dup2\n      swap1\n      sstore\n      pop\n        /* \"contracts/MarketPlaceTest.sol\":3497:3501  true */\n      0x01\n        /* \"contracts/MarketPlaceTest.sol\":3481:3501  productExists = true */\n      swap2\n      pop\n        /* \"contracts/MarketPlaceTest.sol\":3519:3524  break */\n      jump(tag_158)\n        /* \"contracts/MarketPlaceTest.sol\":3292:3616  if (keccak256(bytes(userProducts[msg.sender][i].name)) == keccak256(bytes(userProducts[_shop][_id].name))) {... */\n    tag_168:\n        /* \"contracts/MarketPlaceTest.sol\":3273:3276  i++ */\n      dup1\n      dup1\n      tag_173\n      swap1\n      tag_113\n      jump\t// in\n    tag_173:\n      swap2\n      pop\n      pop\n        /* \"contracts/MarketPlaceTest.sol\":3219:3626  for (uint i = 0; i < userProducts[msg.sender].length; i++) {... */\n      jump(tag_157)\n    tag_158:\n      pop\n        /* \"contracts/MarketPlaceTest.sol\":3641:3654  productExists */\n      dup1\n        /* \"contracts/MarketPlaceTest.sol\":3636:3921  if (!productExists) {... */\n      tag_174\n      jumpi\n        /* \"contracts/MarketPlaceTest.sol\":3754:3776  Product memory newItem */\n      0x00\n        /* \"contracts/MarketPlaceTest.sol\":3779:3858  Product(_amount, userProducts[_shop][_id].price, userProducts[_shop][_id].name) */\n      mload(0x40)\n      dup1\n      0x60\n      add\n      0x40\n      mstore\n      dup1\n        /* \"contracts/MarketPlaceTest.sol\":3787:3794  _amount */\n      dup7\n        /* \"contracts/MarketPlaceTest.sol\":3779:3858  Product(_amount, userProducts[_shop][_id].price, userProducts[_shop][_id].name) */\n      dup2\n      mstore\n      0x20\n      add\n        /* \"contracts/MarketPlaceTest.sol\":3796:3808  userProducts */\n      0x03\n        /* \"contracts/MarketPlaceTest.sol\":3796:3815  userProducts[_shop] */\n      0x00\n        /* \"contracts/MarketPlaceTest.sol\":3809:3814  _shop */\n      dup10\n        /* \"contracts/MarketPlaceTest.sol\":3796:3815  userProducts[_shop] */\n      0xffffffffffffffffffffffffffffffffffffffff\n      and\n      0xffffffffffffffffffffffffffffffffffffffff\n      and\n      dup2\n      mstore\n      0x20\n      add\n      swap1\n      dup2\n      mstore\n      0x20\n      add\n      0x00\n      keccak256\n        /* \"contracts/MarketPlaceTest.sol\":3816:3819  _id */\n      dup7\n        /* \"contracts/MarketPlaceTest.sol\":3796:3820  userProducts[_shop][_id] */\n      dup2\n      sload\n      dup2\n      lt\n      tag_175\n      jumpi\n      tag_176\n      tag_76\n      jump\t// in\n    tag_176:\n    tag_175:\n      swap1\n      0x00\n      mstore\n      keccak256(0x00, 0x20)\n      swap1\n      0x03\n      mul\n      add\n        /* \"contracts/MarketPlaceTest.sol\":3796:3826  userProducts[_shop][_id].price */\n      0x01\n      add\n      sload\n        /* \"contracts/MarketPlaceTest.sol\":3779:3858  Product(_amount, userProducts[_shop][_id].price, userProducts[_shop][_id].name) */\n      dup2\n      mstore\n      0x20\n      add\n        /* \"contracts/MarketPlaceTest.sol\":3828:3840  userProducts */\n      0x03\n        /* \"contracts/MarketPlaceTest.sol\":3828:3847  userProducts[_shop] */\n      0x00\n        /* \"contracts/MarketPlaceTest.sol\":3841:3846  _shop */\n      dup10\n        /* \"contracts/MarketPlaceTest.sol\":3828:3847  userProducts[_shop] */\n      0xffffffffffffffffffffffffffffffffffffffff\n      and\n      0xffffffffffffffffffffffffffffffffffffffff\n      and\n      dup2\n      mstore\n      0x20\n      add\n      swap1\n      dup2\n      mstore\n      0x20\n      add\n      0x00\n      keccak256\n        /* \"contracts/MarketPlaceTest.sol\":3848:3851  _id */\n      dup7\n        /* \"contracts/MarketPlaceTest.sol\":3828:3852  userProducts[_shop][_id] */\n      dup2\n      sload\n      dup2\n      lt\n      tag_178\n      jumpi\n      tag_179\n      tag_76\n      jump\t// in\n    tag_179:\n    tag_178:\n      swap1\n      0x00\n      mstore\n      keccak256(0x00, 0x20)\n      swap1\n      0x03\n      mul\n      add\n        /* \"contracts/MarketPlaceTest.sol\":3828:3857  userProducts[_shop][_id].name */\n      0x02\n      add\n        /* \"contracts/MarketPlaceTest.sol\":3779:3858  Product(_amount, userProducts[_shop][_id].price, userProducts[_shop][_id].name) */\n      dup1\n      sload\n      tag_181\n      swap1\n      tag_79\n      jump\t// in\n    tag_181:\n      dup1\n      0x1f\n      add\n      0x20\n      dup1\n      swap2\n      div\n      mul\n      0x20\n      add\n      mload(0x40)\n      swap1\n      dup2\n      add\n      0x40\n      mstore\n      dup1\n      swap3\n      swap2\n      swap1\n      dup2\n      dup2\n      mstore\n      0x20\n      add\n      dup3\n      dup1\n      sload\n      tag_182\n      swap1\n      tag_79\n      jump\t// in\n    tag_182:\n      dup1\n      iszero\n      tag_183\n      jumpi\n      dup1\n      0x1f\n      lt\n      tag_184\n      jumpi\n      0x0100\n      dup1\n      dup4\n      sload\n      div\n      mul\n      dup4\n      mstore\n      swap2\n      0x20\n      add\n      swap2\n      jump(tag_183)\n    tag_184:\n      dup3\n      add\n      swap2\n      swap1\n      0x00\n      mstore\n      keccak256(0x00, 0x20)\n      swap1\n    tag_185:\n      dup2\n      sload\n      dup2\n      mstore\n      swap1\n      0x01\n      add\n      swap1\n      0x20\n      add\n      dup1\n      dup4\n      gt\n      tag_185\n      jumpi\n      dup3\n      swap1\n      sub\n      0x1f\n      and\n      dup3\n      add\n      swap2\n    tag_183:\n      pop\n      pop\n      pop\n      pop\n      pop\n      dup2\n      mstore\n      pop\n        /* \"contracts/MarketPlaceTest.sol\":3754:3858  Product memory newItem = Product(_amount, userProducts[_shop][_id].price, userProducts[_shop][_id].name) */\n      swap1\n      pop\n        /* \"contracts/MarketPlaceTest.sol\":3872:3884  userProducts */\n      0x03\n        /* \"contracts/MarketPlaceTest.sol\":3872:3896  userProducts[msg.sender] */\n      0x00\n        /* \"contracts/MarketPlaceTest.sol\":3885:3895  msg.sender */\n      caller\n        /* \"contracts/MarketPlaceTest.sol\":3872:3896  userProducts[msg.sender] */\n      0xffffffffffffffffffffffffffffffffffffffff\n      and\n      0xffffffffffffffffffffffffffffffffffffffff\n      and\n      dup2\n      mstore\n      0x20\n      add\n      swap1\n      dup2\n      mstore\n      0x20\n      add\n      0x00\n      keccak256\n        /* \"contracts/MarketPlaceTest.sol\":3902:3909  newItem */\n      dup2\n        /* \"contracts/MarketPlaceTest.sol\":3872:3910  userProducts[msg.sender].push(newItem) */\n      swap1\n      dup1\n      0x01\n      dup2\n      sload\n      add\n      dup1\n      dup3\n      sstore\n      dup1\n      swap2\n      pop\n      pop\n      0x01\n      swap1\n      sub\n      swap1\n      0x00\n      mstore\n      keccak256(0x00, 0x20)\n      swap1\n      0x03\n      mul\n      add\n      0x00\n      swap1\n      swap2\n      swap1\n      swap2\n      swap1\n      swap2\n      pop\n      0x00\n      dup3\n      add\n      mload\n      dup2\n      0x00\n      add\n      sstore\n      0x20\n      dup3\n      add\n      mload\n      dup2\n      0x01\n      add\n      sstore\n      0x40\n      dup3\n      add\n      mload\n      dup2\n      0x02\n      add\n      swap1\n      dup2\n      tag_187\n      swap2\n      swap1\n      tag_188\n      jump\t// in\n    tag_187:\n      pop\n      pop\n      pop\n        /* \"contracts/MarketPlaceTest.sol\":3656:3921  {... */\n      pop\n        /* \"contracts/MarketPlaceTest.sol\":3636:3921  if (!productExists) {... */\n    tag_174:\n        /* \"contracts/MarketPlaceTest.sol\":3967:3974  _amount */\n      dup4\n        /* \"contracts/MarketPlaceTest.sol\":3931:3943  userProducts */\n      0x03\n        /* \"contracts/MarketPlaceTest.sol\":3931:3950  userProducts[_shop] */\n      0x00\n        /* \"contracts/MarketPlaceTest.sol\":3944:3949  _shop */\n      dup8\n        /* \"contracts/MarketPlaceTest.sol\":3931:3950  userProducts[_shop] */\n      0xffffffffffffffffffffffffffffffffffffffff\n      and\n      0xffffffffffffffffffffffffffffffffffffffff\n      and\n      dup2\n      mstore\n      0x20\n      add\n      swap1\n      dup2\n      mstore\n      0x20\n      add\n      0x00\n      keccak256\n        /* \"contracts/MarketPlaceTest.sol\":3951:3954  _id */\n      dup5\n        /* \"contracts/MarketPlaceTest.sol\":3931:3955  userProducts[_shop][_id] */\n      dup2\n      sload\n      dup2\n      lt\n      tag_189\n      jumpi\n      tag_190\n      tag_76\n      jump\t// in\n    tag_190:\n    tag_189:\n      swap1\n      0x00\n      mstore\n      keccak256(0x00, 0x20)\n      swap1\n      0x03\n      mul\n      add\n        /* \"contracts/MarketPlaceTest.sol\":3931:3963  userProducts[_shop][_id].inStock */\n      0x00\n      add\n      0x00\n        /* \"contracts/MarketPlaceTest.sol\":3931:3974  userProducts[_shop][_id].inStock -= _amount */\n      dup3\n      dup3\n      sload\n      tag_192\n      swap2\n      swap1\n      tag_106\n      jump\t// in\n    tag_192:\n      swap3\n      pop\n      pop\n      dup2\n      swap1\n      sstore\n      pop\n        /* \"contracts/MarketPlaceTest.sol\":4001:4011  totalPrice */\n      dup2\n        /* \"contracts/MarketPlaceTest.sol\":3989:3998  msg.value */\n      callvalue\n        /* \"contracts/MarketPlaceTest.sol\":3989:4011  msg.value > totalPrice */\n      gt\n        /* \"contracts/MarketPlaceTest.sol\":3985:4124  if (msg.value > totalPrice) {... */\n      iszero\n      tag_193\n      jumpi\n        /* \"contracts/MarketPlaceTest.sol\":4027:4038  uint change */\n      0x00\n        /* \"contracts/MarketPlaceTest.sol\":4053:4063  totalPrice */\n      dup3\n        /* \"contracts/MarketPlaceTest.sol\":4041:4050  msg.value */\n      callvalue\n        /* \"contracts/MarketPlaceTest.sol\":4041:4063  msg.value - totalPrice */\n      tag_194\n      swap2\n      swap1\n      tag_106\n      jump\t// in\n    tag_194:\n        /* \"contracts/MarketPlaceTest.sol\":4027:4063  uint change = msg.value - totalPrice */\n      swap1\n      pop\n        /* \"contracts/MarketPlaceTest.sol\":4085:4095  msg.sender */\n      caller\n        /* \"contracts/MarketPlaceTest.sol\":4077:4105  payable(msg.sender).transfer */\n      0xffffffffffffffffffffffffffffffffffffffff\n      and\n        /* \"contracts/MarketPlaceTest.sol\":4077:4113  payable(msg.sender).transfer(change) */\n      0x08fc\n        /* \"contracts/MarketPlaceTest.sol\":4106:4112  change */\n      dup3\n        /* \"contracts/MarketPlaceTest.sol\":4077:4113  payable(msg.sender).transfer(change) */\n      swap1\n      dup2\n      iszero\n      mul\n      swap1\n      mload(0x40)\n      0x00\n      mload(0x40)\n      dup1\n      dup4\n      sub\n      dup2\n      dup6\n      dup9\n      dup9\n      call\n      swap4\n      pop\n      pop\n      pop\n      pop\n      iszero\n      dup1\n      iszero\n      tag_196\n      jumpi\n      returndatasize\n      0x00\n      dup1\n      returndatacopy\n      revert(0x00, returndatasize)\n    tag_196:\n      pop\n        /* \"contracts/MarketPlaceTest.sol\":4013:4124  {... */\n      pop\n        /* \"contracts/MarketPlaceTest.sol\":3985:4124  if (msg.value > totalPrice) {... */\n    tag_193:\n        /* \"contracts/MarketPlaceTest.sol\":4134:4146  uint balance */\n      0x00\n        /* \"contracts/MarketPlaceTest.sol\":4149:4170  address(this).balance */\n      selfbalance\n        /* \"contracts/MarketPlaceTest.sol\":4134:4170  uint balance = address(this).balance */\n      swap1\n      pop\n        /* \"contracts/MarketPlaceTest.sol\":4188:4193  _shop */\n      dup6\n        /* \"contracts/MarketPlaceTest.sol\":4180:4203  payable(_shop).transfer */\n      0xffffffffffffffffffffffffffffffffffffffff\n      and\n        /* \"contracts/MarketPlaceTest.sol\":4180:4212  payable(_shop).transfer(balance) */\n      0x08fc\n        /* \"contracts/MarketPlaceTest.sol\":4204:4211  balance */\n      dup3\n        /* \"contracts/MarketPlaceTest.sol\":4180:4212  payable(_shop).transfer(balance) */\n      swap1\n      dup2\n      iszero\n      mul\n      swap1\n      mload(0x40)\n      0x00\n      mload(0x40)\n      dup1\n      dup4\n      sub\n      dup2\n      dup6\n      dup9\n      dup9\n      call\n      swap4\n      pop\n      pop\n      pop\n      pop\n      iszero\n      dup1\n      iszero\n      tag_198\n      jumpi\n      returndatasize\n      0x00\n      dup1\n      returndatacopy\n      revert(0x00, returndatasize)\n    tag_198:\n      pop\n        /* \"contracts/MarketPlaceTest.sol\":2577:4223  {... */\n      pop\n      pop\n      pop\n        /* \"contracts/MarketPlaceTest.sol\":2505:4223  function purchase(address _shop, uint _amount, uint _id) public payable {... */\n      pop\n      pop\n      pop\n      jump\t// out\n        /* \"contracts/MarketPlaceTest.sol\":430:467  mapping(address => User) public users */\n    tag_42:\n      mstore(0x20, 0x02)\n      dup1\n      0x00\n      mstore\n      keccak256(0x00, 0x40)\n      0x00\n      swap2\n      pop\n      swap1\n      pop\n      dup1\n      0x00\n      add\n      0x00\n      swap1\n      sload\n      swap1\n      0x0100\n      exp\n      swap1\n      div\n      0xff\n      and\n      swap1\n      pop\n      dup2\n      jump\t// out\n        /* \"contracts/MarketPlaceTest.sol\":785:1066  function addItemsSupplier(uint _inStock, uint _price, string calldata _name) public{... */\n    tag_49:\n        /* \"contracts/MarketPlaceTest.sol\":889:899  msg.sender */\n      caller\n        /* \"contracts/MarketPlaceTest.sol\":878:886  supplier */\n      0x01\n      0x00\n        /* \"contracts/MarketPlaceTest.sol\":878:899  supplier = msg.sender */\n      0x0100\n      exp\n      dup2\n      sload\n      dup2\n      0xffffffffffffffffffffffffffffffffffffffff\n      mul\n      not\n      and\n      swap1\n      dup4\n      0xffffffffffffffffffffffffffffffffffffffff\n      and\n      mul\n      or\n      swap1\n      sstore\n      pop\n        /* \"contracts/MarketPlaceTest.sol\":927:946  User(Role.Supplier) */\n      mload(0x40)\n      dup1\n      0x20\n      add\n      0x40\n      mstore\n      dup1\n        /* \"contracts/MarketPlaceTest.sol\":932:945  Role.Supplier */\n      0x02\n        /* \"contracts/MarketPlaceTest.sol\":927:946  User(Role.Supplier) */\n      dup1\n      dup2\n      gt\n      iszero\n      tag_200\n      jumpi\n      tag_201\n      tag_58\n      jump\t// in\n    tag_201:\n    tag_200:\n      dup2\n      mstore\n      pop\n        /* \"contracts/MarketPlaceTest.sol\":909:914  users */\n      0x02\n        /* \"contracts/MarketPlaceTest.sol\":909:924  users[supplier] */\n      0x00\n        /* \"contracts/MarketPlaceTest.sol\":915:923  supplier */\n      0x01\n      0x00\n      swap1\n      sload\n      swap1\n      0x0100\n      exp\n      swap1\n      div\n      0xffffffffffffffffffffffffffffffffffffffff\n      and\n        /* \"contracts/MarketPlaceTest.sol\":909:924  users[supplier] */\n      0xffffffffffffffffffffffffffffffffffffffff\n      and\n      0xffffffffffffffffffffffffffffffffffffffff\n      and\n      dup2\n      mstore\n      0x20\n      add\n      swap1\n      dup2\n      mstore\n      0x20\n      add\n      0x00\n      keccak256\n        /* \"contracts/MarketPlaceTest.sol\":909:946  users[supplier] = User(Role.Supplier) */\n      0x00\n      dup3\n      add\n      mload\n      dup2\n      0x00\n      add\n      exp(0x0100, 0x00)\n      dup2\n      sload\n      dup2\n      0xff\n      mul\n      not\n      and\n      swap1\n      dup4\n      0x02\n      dup2\n      gt\n      iszero\n      tag_202\n      jumpi\n      tag_203\n      tag_58\n      jump\t// in\n    tag_203:\n    tag_202:\n      mul\n      or\n      swap1\n      sstore\n      pop\n      swap1\n      pop\n      pop\n        /* \"contracts/MarketPlaceTest.sol\":956:975  Product memory item */\n      0x00\n        /* \"contracts/MarketPlaceTest.sol\":978:1014  Product(_inStock, _price / 2, _name) */\n      mload(0x40)\n      dup1\n      0x60\n      add\n      0x40\n      mstore\n      dup1\n        /* \"contracts/MarketPlaceTest.sol\":986:994  _inStock */\n      dup7\n        /* \"contracts/MarketPlaceTest.sol\":978:1014  Product(_inStock, _price / 2, _name) */\n      dup2\n      mstore\n      0x20\n      add\n        /* \"contracts/MarketPlaceTest.sol\":1005:1006  2 */\n      0x02\n        /* \"contracts/MarketPlaceTest.sol\":996:1002  _price */\n      dup7\n        /* \"contracts/MarketPlaceTest.sol\":996:1006  _price / 2 */\n      tag_204\n      swap2\n      swap1\n      tag_205\n      jump\t// in\n    tag_204:\n        /* \"contracts/MarketPlaceTest.sol\":978:1014  Product(_inStock, _price / 2, _name) */\n      dup2\n      mstore\n      0x20\n      add\n        /* \"contracts/MarketPlaceTest.sol\":1008:1013  _name */\n      dup5\n      dup5\n        /* \"contracts/MarketPlaceTest.sol\":978:1014  Product(_inStock, _price / 2, _name) */\n      dup1\n      dup1\n      0x1f\n      add\n      0x20\n      dup1\n      swap2\n      div\n      mul\n      0x20\n      add\n      mload(0x40)\n      swap1\n      dup2\n      add\n      0x40\n      mstore\n      dup1\n      swap4\n      swap3\n      swap2\n      swap1\n      dup2\n      dup2\n      mstore\n      0x20\n      add\n      dup4\n      dup4\n      dup1\n      dup3\n      dup5\n      calldatacopy\n      0x00\n      dup2\n      dup5\n      add\n      mstore\n      not(0x1f)\n      0x1f\n      dup3\n      add\n      and\n      swap1\n      pop\n      dup1\n      dup4\n      add\n      swap3\n      pop\n      pop\n      pop\n      pop\n      pop\n      pop\n      pop\n      dup2\n      mstore\n      pop\n        /* \"contracts/MarketPlaceTest.sol\":956:1014  Product memory item = Product(_inStock, _price / 2, _name) */\n      swap1\n      pop\n        /* \"contracts/MarketPlaceTest.sol\":1024:1036  userProducts */\n      0x03\n        /* \"contracts/MarketPlaceTest.sol\":1024:1048  userProducts[msg.sender] */\n      0x00\n        /* \"contracts/MarketPlaceTest.sol\":1037:1047  msg.sender */\n      caller\n        /* \"contracts/MarketPlaceTest.sol\":1024:1048  userProducts[msg.sender] */\n      0xffffffffffffffffffffffffffffffffffffffff\n      and\n      0xffffffffffffffffffffffffffffffffffffffff\n      and\n      dup2\n      mstore\n      0x20\n      add\n      swap1\n      dup2\n      mstore\n      0x20\n      add\n      0x00\n      keccak256\n        /* \"contracts/MarketPlaceTest.sol\":1054:1058  item */\n      dup2\n        /* \"contracts/MarketPlaceTest.sol\":1024:1059  userProducts[msg.sender].push(item) */\n      swap1\n      dup1\n      0x01\n      dup2\n      sload\n      add\n      dup1\n      dup3\n      sstore\n      dup1\n      swap2\n      pop\n      pop\n      0x01\n      swap1\n      sub\n      swap1\n      0x00\n      mstore\n      keccak256(0x00, 0x20)\n      swap1\n      0x03\n      mul\n      add\n      0x00\n      swap1\n      swap2\n      swap1\n      swap2\n      swap1\n      swap2\n      pop\n      0x00\n      dup3\n      add\n      mload\n      dup2\n      0x00\n      add\n      sstore\n      0x20\n      dup3\n      add\n      mload\n      dup2\n      0x01\n      add\n      sstore\n      0x40\n      dup3\n      add\n      mload\n      dup2\n      0x02\n      add\n      swap1\n      dup2\n      tag_207\n      swap2\n      swap1\n      tag_188\n      jump\t// in\n    tag_207:\n      pop\n      pop\n      pop\n        /* \"contracts/MarketPlaceTest.sol\":868:1066  {... */\n      pop\n        /* \"contracts/MarketPlaceTest.sol\":785:1066  function addItemsSupplier(uint _inStock, uint _price, string calldata _name) public{... */\n      pop\n      pop\n      pop\n      pop\n      jump\t// out\n        /* \"contracts/MarketPlaceTest.sol\":1205:1441  function addItems(address _shop, uint _inStock, uint _price, string calldata _name) public AccessControl(Role.Market, _shop) {... */\n    tag_54:\n        /* \"contracts/MarketPlaceTest.sol\":1310:1321  Role.Market */\n      0x01\n        /* \"contracts/MarketPlaceTest.sol\":1323:1328  _shop */\n      dup6\n        /* \"contracts/MarketPlaceTest.sol\":627:632  _role */\n      dup2\n        /* \"contracts/MarketPlaceTest.sol\":601:632  users[msg.sender].role == _role */\n      0x02\n      dup2\n      gt\n      iszero\n      tag_209\n      jumpi\n      tag_210\n      tag_58\n      jump\t// in\n    tag_210:\n    tag_209:\n        /* \"contracts/MarketPlaceTest.sol\":601:606  users */\n      0x02\n        /* \"contracts/MarketPlaceTest.sol\":601:618  users[msg.sender] */\n      0x00\n        /* \"contracts/MarketPlaceTest.sol\":607:617  msg.sender */\n      caller\n        /* \"contracts/MarketPlaceTest.sol\":601:618  users[msg.sender] */\n      0xffffffffffffffffffffffffffffffffffffffff\n      and\n      0xffffffffffffffffffffffffffffffffffffffff\n      and\n      dup2\n      mstore\n      0x20\n      add\n      swap1\n      dup2\n      mstore\n      0x20\n      add\n      0x00\n      keccak256\n        /* \"contracts/MarketPlaceTest.sol\":601:623  users[msg.sender].role */\n      0x00\n      add\n      0x00\n      swap1\n      sload\n      swap1\n      0x0100\n      exp\n      swap1\n      div\n      0xff\n      and\n        /* \"contracts/MarketPlaceTest.sol\":601:632  users[msg.sender].role == _role */\n      0x02\n      dup2\n      gt\n      iszero\n      tag_211\n      jumpi\n      tag_212\n      tag_58\n      jump\t// in\n    tag_212:\n    tag_211:\n      eq\n        /* \"contracts/MarketPlaceTest.sol\":593:644  require(users[msg.sender].role == _role, unicode\"\") */\n      tag_213\n      jumpi\n      mload(0x40)\n      0x08c379a000000000000000000000000000000000000000000000000000000000\n      dup2\n      mstore\n      0x04\n      add\n      tag_214\n      swap1\n      tag_63\n      jump\t// in\n    tag_214:\n      mload(0x40)\n      dup1\n      swap2\n      sub\n      swap1\n      revert\n    tag_213:\n        /* \"contracts/MarketPlaceTest.sol\":676:681  _shop */\n      dup1\n        /* \"contracts/MarketPlaceTest.sol\":662:681  msg.sender == _shop */\n      0xffffffffffffffffffffffffffffffffffffffff\n      and\n        /* \"contracts/MarketPlaceTest.sol\":662:672  msg.sender */\n      caller\n        /* \"contracts/MarketPlaceTest.sol\":662:681  msg.sender == _shop */\n      0xffffffffffffffffffffffffffffffffffffffff\n      and\n      eq\n        /* \"contracts/MarketPlaceTest.sol\":654:760  require(msg.sender == _shop, unicode\"Магазин не соответсвует отправителю\") */\n      tag_215\n      jumpi\n      mload(0x40)\n      0x08c379a000000000000000000000000000000000000000000000000000000000\n      dup2\n      mstore\n      0x04\n      add\n      tag_216\n      swap1\n      tag_66\n      jump\t// in\n    tag_216:\n      mload(0x40)\n      dup1\n      swap2\n      sub\n      swap1\n      revert\n    tag_215:\n        /* \"contracts/MarketPlaceTest.sol\":1340:1359  Product memory item */\n      0x00\n        /* \"contracts/MarketPlaceTest.sol\":1362:1394  Product(_inStock, _price, _name) */\n      mload(0x40)\n      dup1\n      0x60\n      add\n      0x40\n      mstore\n      dup1\n        /* \"contracts/MarketPlaceTest.sol\":1370:1378  _inStock */\n      dup9\n        /* \"contracts/MarketPlaceTest.sol\":1362:1394  Product(_inStock, _price, _name) */\n      dup2\n      mstore\n      0x20\n      add\n        /* \"contracts/MarketPlaceTest.sol\":1380:1386  _price */\n      dup8\n        /* \"contracts/MarketPlaceTest.sol\":1362:1394  Product(_inStock, _price, _name) */\n      dup2\n      mstore\n      0x20\n      add\n        /* \"contracts/MarketPlaceTest.sol\":1388:1393  _name */\n      dup7\n      dup7\n        /* \"contracts/MarketPlaceTest.sol\":1362:1394  Product(_inStock, _price, _name) */\n      dup1\n      dup1\n      0x1f\n      add\n      0x20\n      dup1\n      swap2\n      div\n      mul\n      0x20\n      add\n      mload(0x40)\n      swap1\n      dup2\n      add\n      0x40\n      mstore\n      dup1\n      swap4\n      swap3\n      swap2\n      swap1\n      dup2\n      dup2\n      mstore\n      0x20\n      add\n      dup4\n      dup4\n      dup1\n      dup3\n      dup5\n      calldatacopy\n      0x00\n      dup2\n      dup5\n      add\n      mstore\n      not(0x1f)\n      0x1f\n      dup3\n      add\n      and\n      swap1\n      pop\n      dup1\n      dup4\n      add\n      swap3\n      pop\n      pop\n      pop\n      pop\n      pop\n      pop\n      pop\n      dup2\n      mstore\n      pop\n        /* \"contracts/MarketPlaceTest.sol\":1340:1394  Product memory item = Product(_inStock, _price, _name) */\n      swap1\n      pop\n        /* \"contracts/MarketPlaceTest.sol\":1404:1416  userProducts */\n      0x03\n        /* \"contracts/MarketPlaceTest.sol\":1404:1423  userProducts[_shop] */\n      0x00\n        /* \"contracts/MarketPlaceTest.sol\":1417:1422  _shop */\n      dup10\n        /* \"contracts/MarketPlaceTest.sol\":1404:1423  userProducts[_shop] */\n      0xffffffffffffffffffffffffffffffffffffffff\n      and\n      0xffffffffffffffffffffffffffffffffffffffff\n      and\n      dup2\n      mstore\n      0x20\n      add\n      swap1\n      dup2\n      mstore\n      0x20\n      add\n      0x00\n      keccak256\n        /* \"contracts/MarketPlaceTest.sol\":1429:1433  item */\n      dup2\n        /* \"contracts/MarketPlaceTest.sol\":1404:1434  userProducts[_shop].push(item) */\n      swap1\n      dup1\n      0x01\n      dup2\n      sload\n      add\n      dup1\n      dup3\n      sstore\n      dup1\n      swap2\n      pop\n      pop\n      0x01\n      swap1\n      sub\n      swap1\n      0x00\n      mstore\n      keccak256(0x00, 0x20)\n      swap1\n      0x03\n      mul\n      add\n      0x00\n      swap1\n      swap2\n      swap1\n      swap2\n      swap1\n      swap2\n      pop\n      0x00\n      dup3\n      add\n      mload\n      dup2\n      0x00\n      add\n      sstore\n      0x20\n      dup3\n      add\n      mload\n      dup2\n      0x01\n      add\n      sstore\n      0x40\n      dup3\n      add\n      mload\n      dup2\n      0x02\n      add\n      swap1\n      dup2\n      tag_219\n      swap2\n      swap1\n      tag_188\n      jump\t// in\n    tag_219:\n      pop\n      pop\n      pop\n        /* \"contracts/MarketPlaceTest.sol\":1330:1441  {... */\n      pop\n        /* \"contracts/MarketPlaceTest.sol\":1205:1441  function addItems(address _shop, uint _inStock, uint _price, string calldata _name) public AccessControl(Role.Market, _shop) {... */\n      pop\n      pop\n      pop\n      pop\n      pop\n      pop\n      pop\n      jump\t// out\n        /* \"#utility.yul\":88:205   */\n    tag_221:\n        /* \"#utility.yul\":197:198   */\n      0x00\n        /* \"#utility.yul\":194:195   */\n      dup1\n        /* \"#utility.yul\":187:199   */\n      revert\n        /* \"#utility.yul\":211:328   */\n    tag_222:\n        /* \"#utility.yul\":320:321   */\n      0x00\n        /* \"#utility.yul\":317:318   */\n      dup1\n        /* \"#utility.yul\":310:322   */\n      revert\n        /* \"#utility.yul\":334:460   */\n    tag_223:\n        /* \"#utility.yul\":371:378   */\n      0x00\n        /* \"#utility.yul\":411:453   */\n      0xffffffffffffffffffffffffffffffffffffffff\n        /* \"#utility.yul\":404:409   */\n      dup3\n        /* \"#utility.yul\":400:454   */\n      and\n        /* \"#utility.yul\":389:454   */\n      swap1\n      pop\n        /* \"#utility.yul\":334:460   */\n      swap2\n      swap1\n      pop\n      jump\t// out\n        /* \"#utility.yul\":466:562   */\n    tag_224:\n        /* \"#utility.yul\":503:510   */\n      0x00\n        /* \"#utility.yul\":532:556   */\n      tag_285\n        /* \"#utility.yul\":550:555   */\n      dup3\n        /* \"#utility.yul\":532:556   */\n      tag_223\n      jump\t// in\n    tag_285:\n        /* \"#utility.yul\":521:556   */\n      swap1\n      pop\n        /* \"#utility.yul\":466:562   */\n      swap2\n      swap1\n      pop\n      jump\t// out\n        /* \"#utility.yul\":568:690   */\n    tag_225:\n        /* \"#utility.yul\":641:665   */\n      tag_287\n        /* \"#utility.yul\":659:664   */\n      dup2\n        /* \"#utility.yul\":641:665   */\n      tag_224\n      jump\t// in\n    tag_287:\n        /* \"#utility.yul\":634:639   */\n      dup2\n        /* \"#utility.yul\":631:666   */\n      eq\n        /* \"#utility.yul\":621:684   */\n      tag_288\n      jumpi\n        /* \"#utility.yul\":680:681   */\n      0x00\n        /* \"#utility.yul\":677:678   */\n      dup1\n        /* \"#utility.yul\":670:682   */\n      revert\n        /* \"#utility.yul\":621:684   */\n    tag_288:\n        /* \"#utility.yul\":568:690   */\n      pop\n      jump\t// out\n        /* \"#utility.yul\":696:835   */\n    tag_226:\n        /* \"#utility.yul\":742:747   */\n      0x00\n        /* \"#utility.yul\":780:786   */\n      dup2\n        /* \"#utility.yul\":767:787   */\n      calldataload\n        /* \"#utility.yul\":758:787   */\n      swap1\n      pop\n        /* \"#utility.yul\":796:829   */\n      tag_290\n        /* \"#utility.yul\":823:828   */\n      dup2\n        /* \"#utility.yul\":796:829   */\n      tag_225\n      jump\t// in\n    tag_290:\n        /* \"#utility.yul\":696:835   */\n      swap3\n      swap2\n      pop\n      pop\n      jump\t// out\n        /* \"#utility.yul\":841:918   */\n    tag_227:\n        /* \"#utility.yul\":878:885   */\n      0x00\n        /* \"#utility.yul\":907:912   */\n      dup2\n        /* \"#utility.yul\":896:912   */\n      swap1\n      pop\n        /* \"#utility.yul\":841:918   */\n      swap2\n      swap1\n      pop\n      jump\t// out\n        /* \"#utility.yul\":924:1046   */\n    tag_228:\n        /* \"#utility.yul\":997:1021   */\n      tag_293\n        /* \"#utility.yul\":1015:1020   */\n      dup2\n        /* \"#utility.yul\":997:1021   */\n      tag_227\n      jump\t// in\n    tag_293:\n        /* \"#utility.yul\":990:995   */\n      dup2\n        /* \"#utility.yul\":987:1022   */\n      eq\n        /* \"#utility.yul\":977:1040   */\n      tag_294\n      jumpi\n        /* \"#utility.yul\":1036:1037   */\n      0x00\n        /* \"#utility.yul\":1033:1034   */\n      dup1\n        /* \"#utility.yul\":1026:1038   */\n      revert\n        /* \"#utility.yul\":977:1040   */\n    tag_294:\n        /* \"#utility.yul\":924:1046   */\n      pop\n      jump\t// out\n        /* \"#utility.yul\":1052:1191   */\n    tag_229:\n        /* \"#utility.yul\":1098:1103   */\n      0x00\n        /* \"#utility.yul\":1136:1142   */\n      dup2\n        /* \"#utility.yul\":1123:1143   */\n      calldataload\n        /* \"#utility.yul\":1114:1143   */\n      swap1\n      pop\n        /* \"#utility.yul\":1152:1185   */\n      tag_296\n        /* \"#utility.yul\":1179:1184   */\n      dup2\n        /* \"#utility.yul\":1152:1185   */\n      tag_228\n      jump\t// in\n    tag_296:\n        /* \"#utility.yul\":1052:1191   */\n      swap3\n      swap2\n      pop\n      pop\n      jump\t// out\n        /* \"#utility.yul\":1197:1816   */\n    tag_14:\n        /* \"#utility.yul\":1274:1280   */\n      0x00\n        /* \"#utility.yul\":1282:1288   */\n      dup1\n        /* \"#utility.yul\":1290:1296   */\n      0x00\n        /* \"#utility.yul\":1339:1341   */\n      0x60\n        /* \"#utility.yul\":1327:1336   */\n      dup5\n        /* \"#utility.yul\":1318:1325   */\n      dup7\n        /* \"#utility.yul\":1314:1337   */\n      sub\n        /* \"#utility.yul\":1310:1342   */\n      slt\n        /* \"#utility.yul\":1307:1426   */\n      iszero\n      tag_298\n      jumpi\n        /* \"#utility.yul\":1345:1424   */\n      tag_299\n      tag_221\n      jump\t// in\n    tag_299:\n        /* \"#utility.yul\":1307:1426   */\n    tag_298:\n        /* \"#utility.yul\":1465:1466   */\n      0x00\n        /* \"#utility.yul\":1490:1543   */\n      tag_300\n        /* \"#utility.yul\":1535:1542   */\n      dup7\n        /* \"#utility.yul\":1526:1532   */\n      dup3\n        /* \"#utility.yul\":1515:1524   */\n      dup8\n        /* \"#utility.yul\":1511:1533   */\n      add\n        /* \"#utility.yul\":1490:1543   */\n      tag_226\n      jump\t// in\n    tag_300:\n        /* \"#utility.yul\":1480:1543   */\n      swap4\n      pop\n        /* \"#utility.yul\":1436:1553   */\n      pop\n        /* \"#utility.yul\":1592:1594   */\n      0x20\n        /* \"#utility.yul\":1618:1671   */\n      tag_301\n        /* \"#utility.yul\":1663:1670   */\n      dup7\n        /* \"#utility.yul\":1654:1660   */\n      dup3\n        /* \"#utility.yul\":1643:1652   */\n      dup8\n        /* \"#utility.yul\":1639:1661   */\n      add\n        /* \"#utility.yul\":1618:1671   */\n      tag_229\n      jump\t// in\n    tag_301:\n        /* \"#utility.yul\":1608:1671   */\n      swap3\n      pop\n        /* \"#utility.yul\":1563:1681   */\n      pop\n        /* \"#utility.yul\":1720:1722   */\n      0x40\n        /* \"#utility.yul\":1746:1799   */\n      tag_302\n        /* \"#utility.yul\":1791:1798   */\n      dup7\n        /* \"#utility.yul\":1782:1788   */\n      dup3\n        /* \"#utility.yul\":1771:1780   */\n      dup8\n        /* \"#utility.yul\":1767:1789   */\n      add\n        /* \"#utility.yul\":1746:1799   */\n      tag_229\n      jump\t// in\n    tag_302:\n        /* \"#utility.yul\":1736:1799   */\n      swap2\n      pop\n        /* \"#utility.yul\":1691:1809   */\n      pop\n        /* \"#utility.yul\":1197:1816   */\n      swap3\n      pop\n      swap3\n      pop\n      swap3\n      jump\t// out\n        /* \"#utility.yul\":1822:1940   */\n    tag_230:\n        /* \"#utility.yul\":1909:1933   */\n      tag_304\n        /* \"#utility.yul\":1927:1932   */\n      dup2\n        /* \"#utility.yul\":1909:1933   */\n      tag_224\n      jump\t// in\n    tag_304:\n        /* \"#utility.yul\":1904:1907   */\n      dup3\n        /* \"#utility.yul\":1897:1934   */\n      mstore\n        /* \"#utility.yul\":1822:1940   */\n      pop\n      pop\n      jump\t// out\n        /* \"#utility.yul\":1946:2168   */\n    tag_20:\n        /* \"#utility.yul\":2039:2043   */\n      0x00\n        /* \"#utility.yul\":2077:2079   */\n      0x20\n        /* \"#utility.yul\":2066:2075   */\n      dup3\n        /* \"#utility.yul\":2062:2080   */\n      add\n        /* \"#utility.yul\":2054:2080   */\n      swap1\n      pop\n        /* \"#utility.yul\":2090:2161   */\n      tag_306\n        /* \"#utility.yul\":2158:2159   */\n      0x00\n        /* \"#utility.yul\":2147:2156   */\n      dup4\n        /* \"#utility.yul\":2143:2160   */\n      add\n        /* \"#utility.yul\":2134:2140   */\n      dup5\n        /* \"#utility.yul\":2090:2161   */\n      tag_230\n      jump\t// in\n    tag_306:\n        /* \"#utility.yul\":1946:2168   */\n      swap3\n      swap2\n      pop\n      pop\n      jump\t// out\n        /* \"#utility.yul\":2174:2648   */\n    tag_24:\n        /* \"#utility.yul\":2242:2248   */\n      0x00\n        /* \"#utility.yul\":2250:2256   */\n      dup1\n        /* \"#utility.yul\":2299:2301   */\n      0x40\n        /* \"#utility.yul\":2287:2296   */\n      dup4\n        /* \"#utility.yul\":2278:2285   */\n      dup6\n        /* \"#utility.yul\":2274:2297   */\n      sub\n        /* \"#utility.yul\":2270:2302   */\n      slt\n        /* \"#utility.yul\":2267:2386   */\n      iszero\n      tag_308\n      jumpi\n        /* \"#utility.yul\":2305:2384   */\n      tag_309\n      tag_221\n      jump\t// in\n    tag_309:\n        /* \"#utility.yul\":2267:2386   */\n    tag_308:\n        /* \"#utility.yul\":2425:2426   */\n      0x00\n        /* \"#utility.yul\":2450:2503   */\n      tag_310\n        /* \"#utility.yul\":2495:2502   */\n      dup6\n        /* \"#utility.yul\":2486:2492   */\n      dup3\n        /* \"#utility.yul\":2475:2484   */\n      dup7\n        /* \"#utility.yul\":2471:2493   */\n      add\n        /* \"#utility.yul\":2450:2503   */\n      tag_226\n      jump\t// in\n    tag_310:\n        /* \"#utility.yul\":2440:2503   */\n      swap3\n      pop\n        /* \"#utility.yul\":2396:2513   */\n      pop\n        /* \"#utility.yul\":2552:2554   */\n      0x20\n        /* \"#utility.yul\":2578:2631   */\n      tag_311\n        /* \"#utility.yul\":2623:2630   */\n      dup6\n        /* \"#utility.yul\":2614:2620   */\n      dup3\n        /* \"#utility.yul\":2603:2612   */\n      dup7\n        /* \"#utility.yul\":2599:2621   */\n      add\n        /* \"#utility.yul\":2578:2631   */\n      tag_229\n      jump\t// in\n    tag_311:\n        /* \"#utility.yul\":2568:2631   */\n      swap2\n      pop\n        /* \"#utility.yul\":2523:2641   */\n      pop\n        /* \"#utility.yul\":2174:2648   */\n      swap3\n      pop\n      swap3\n      swap1\n      pop\n      jump\t// out\n        /* \"#utility.yul\":2654:2772   */\n    tag_231:\n        /* \"#utility.yul\":2741:2765   */\n      tag_313\n        /* \"#utility.yul\":2759:2764   */\n      dup2\n        /* \"#utility.yul\":2741:2765   */\n      tag_227\n      jump\t// in\n    tag_313:\n        /* \"#utility.yul\":2736:2739   */\n      dup3\n        /* \"#utility.yul\":2729:2766   */\n      mstore\n        /* \"#utility.yul\":2654:2772   */\n      pop\n      pop\n      jump\t// out\n        /* \"#utility.yul\":2778:2877   */\n    tag_232:\n        /* \"#utility.yul\":2830:2836   */\n      0x00\n        /* \"#utility.yul\":2864:2869   */\n      dup2\n        /* \"#utility.yul\":2858:2870   */\n      mload\n        /* \"#utility.yul\":2848:2870   */\n      swap1\n      pop\n        /* \"#utility.yul\":2778:2877   */\n      swap2\n      swap1\n      pop\n      jump\t// out\n        /* \"#utility.yul\":2883:3052   */\n    tag_233:\n        /* \"#utility.yul\":2967:2978   */\n      0x00\n        /* \"#utility.yul\":3001:3007   */\n      dup3\n        /* \"#utility.yul\":2996:2999   */\n      dup3\n        /* \"#utility.yul\":2989:3008   */\n      mstore\n        /* \"#utility.yul\":3041:3045   */\n      0x20\n        /* \"#utility.yul\":3036:3039   */\n      dup3\n        /* \"#utility.yul\":3032:3046   */\n      add\n        /* \"#utility.yul\":3017:3046   */\n      swap1\n      pop\n        /* \"#utility.yul\":2883:3052   */\n      swap3\n      swap2\n      pop\n      pop\n      jump\t// out\n        /* \"#utility.yul\":3058:3304   */\n    tag_234:\n        /* \"#utility.yul\":3139:3140   */\n      0x00\n        /* \"#utility.yul\":3149:3262   */\n    tag_317:\n        /* \"#utility.yul\":3163:3169   */\n      dup4\n        /* \"#utility.yul\":3160:3161   */\n      dup2\n        /* \"#utility.yul\":3157:3170   */\n      lt\n        /* \"#utility.yul\":3149:3262   */\n      iszero\n      tag_319\n      jumpi\n        /* \"#utility.yul\":3248:3249   */\n      dup1\n        /* \"#utility.yul\":3243:3246   */\n      dup3\n        /* \"#utility.yul\":3239:3250   */\n      add\n        /* \"#utility.yul\":3233:3251   */\n      mload\n        /* \"#utility.yul\":3229:3230   */\n      dup2\n        /* \"#utility.yul\":3224:3227   */\n      dup5\n        /* \"#utility.yul\":3220:3231   */\n      add\n        /* \"#utility.yul\":3213:3252   */\n      mstore\n        /* \"#utility.yul\":3185:3187   */\n      0x20\n        /* \"#utility.yul\":3182:3183   */\n      dup2\n        /* \"#utility.yul\":3178:3188   */\n      add\n        /* \"#utility.yul\":3173:3188   */\n      swap1\n      pop\n        /* \"#utility.yul\":3149:3262   */\n      jump(tag_317)\n    tag_319:\n        /* \"#utility.yul\":3296:3297   */\n      0x00\n        /* \"#utility.yul\":3287:3293   */\n      dup5\n        /* \"#utility.yul\":3282:3285   */\n      dup5\n        /* \"#utility.yul\":3278:3294   */\n      add\n        /* \"#utility.yul\":3271:3298   */\n      mstore\n        /* \"#utility.yul\":3120:3304   */\n      pop\n        /* \"#utility.yul\":3058:3304   */\n      pop\n      pop\n      pop\n      jump\t// out\n        /* \"#utility.yul\":3310:3412   */\n    tag_235:\n        /* \"#utility.yul\":3351:3357   */\n      0x00\n        /* \"#utility.yul\":3402:3404   */\n      0x1f\n        /* \"#utility.yul\":3398:3405   */\n      not\n        /* \"#utility.yul\":3393:3395   */\n      0x1f\n        /* \"#utility.yul\":3386:3391   */\n      dup4\n        /* \"#utility.yul\":3382:3396   */\n      add\n        /* \"#utility.yul\":3378:3406   */\n      and\n        /* \"#utility.yul\":3368:3406   */\n      swap1\n      pop\n        /* \"#utility.yul\":3310:3412   */\n      swap2\n      swap1\n      pop\n      jump\t// out\n        /* \"#utility.yul\":3418:3795   */\n    tag_236:\n        /* \"#utility.yul\":3506:3509   */\n      0x00\n        /* \"#utility.yul\":3534:3573   */\n      tag_322\n        /* \"#utility.yul\":3567:3572   */\n      dup3\n        /* \"#utility.yul\":3534:3573   */\n      tag_232\n      jump\t// in\n    tag_322:\n        /* \"#utility.yul\":3589:3660   */\n      tag_323\n        /* \"#utility.yul\":3653:3659   */\n      dup2\n        /* \"#utility.yul\":3648:3651   */\n      dup6\n        /* \"#utility.yul\":3589:3660   */\n      tag_233\n      jump\t// in\n    tag_323:\n        /* \"#utility.yul\":3582:3660   */\n      swap4\n      pop\n        /* \"#utility.yul\":3669:3734   */\n      tag_324\n        /* \"#utility.yul\":3727:3733   */\n      dup2\n        /* \"#utility.yul\":3722:3725   */\n      dup6\n        /* \"#utility.yul\":3715:3719   */\n      0x20\n        /* \"#utility.yul\":3708:3713   */\n      dup7\n        /* \"#utility.yul\":3704:3720   */\n      add\n        /* \"#utility.yul\":3669:3734   */\n      tag_234\n      jump\t// in\n    tag_324:\n        /* \"#utility.yul\":3759:3788   */\n      tag_325\n        /* \"#utility.yul\":3781:3787   */\n      dup2\n        /* \"#utility.yul\":3759:3788   */\n      tag_235\n      jump\t// in\n    tag_325:\n        /* \"#utility.yul\":3754:3757   */\n      dup5\n        /* \"#utility.yul\":3750:3789   */\n      add\n        /* \"#utility.yul\":3743:3789   */\n      swap2\n      pop\n        /* \"#utility.yul\":3510:3795   */\n      pop\n        /* \"#utility.yul\":3418:3795   */\n      swap3\n      swap2\n      pop\n      pop\n      jump\t// out\n        /* \"#utility.yul\":3801:4334   */\n    tag_27:\n        /* \"#utility.yul\":3970:3974   */\n      0x00\n        /* \"#utility.yul\":4008:4010   */\n      0x60\n        /* \"#utility.yul\":3997:4006   */\n      dup3\n        /* \"#utility.yul\":3993:4011   */\n      add\n        /* \"#utility.yul\":3985:4011   */\n      swap1\n      pop\n        /* \"#utility.yul\":4021:4092   */\n      tag_327\n        /* \"#utility.yul\":4089:4090   */\n      0x00\n        /* \"#utility.yul\":4078:4087   */\n      dup4\n        /* \"#utility.yul\":4074:4091   */\n      add\n        /* \"#utility.yul\":4065:4071   */\n      dup7\n        /* \"#utility.yul\":4021:4092   */\n      tag_231\n      jump\t// in\n    tag_327:\n        /* \"#utility.yul\":4102:4174   */\n      tag_328\n        /* \"#utility.yul\":4170:4172   */\n      0x20\n        /* \"#utility.yul\":4159:4168   */\n      dup4\n        /* \"#utility.yul\":4155:4173   */\n      add\n        /* \"#utility.yul\":4146:4152   */\n      dup6\n        /* \"#utility.yul\":4102:4174   */\n      tag_231\n      jump\t// in\n    tag_328:\n        /* \"#utility.yul\":4221:4230   */\n      dup2\n        /* \"#utility.yul\":4215:4219   */\n      dup2\n        /* \"#utility.yul\":4211:4231   */\n      sub\n        /* \"#utility.yul\":4206:4208   */\n      0x40\n        /* \"#utility.yul\":4195:4204   */\n      dup4\n        /* \"#utility.yul\":4191:4209   */\n      add\n        /* \"#utility.yul\":4184:4232   */\n      mstore\n        /* \"#utility.yul\":4249:4327   */\n      tag_329\n        /* \"#utility.yul\":4322:4326   */\n      dup2\n        /* \"#utility.yul\":4313:4319   */\n      dup5\n        /* \"#utility.yul\":4249:4327   */\n      tag_236\n      jump\t// in\n    tag_329:\n        /* \"#utility.yul\":4241:4327   */\n      swap1\n      pop\n        /* \"#utility.yul\":3801:4334   */\n      swap5\n      swap4\n      pop\n      pop\n      pop\n      pop\n      jump\t// out\n        /* \"#utility.yul\":4340:4669   */\n    tag_41:\n        /* \"#utility.yul\":4399:4405   */\n      0x00\n        /* \"#utility.yul\":4448:4450   */\n      0x20\n        /* \"#utility.yul\":4436:4445   */\n      dup3\n        /* \"#utility.yul\":4427:4434   */\n      dup5\n        /* \"#utility.yul\":4423:4446   */\n      sub\n        /* \"#utility.yul\":4419:4451   */\n      slt\n        /* \"#utility.yul\":4416:4535   */\n      iszero\n      tag_331\n      jumpi\n        /* \"#utility.yul\":4454:4533   */\n      tag_332\n      tag_221\n      jump\t// in\n    tag_332:\n        /* \"#utility.yul\":4416:4535   */\n    tag_331:\n        /* \"#utility.yul\":4574:4575   */\n      0x00\n        /* \"#utility.yul\":4599:4652   */\n      tag_333\n        /* \"#utility.yul\":4644:4651   */\n      dup5\n        /* \"#utility.yul\":4635:4641   */\n      dup3\n        /* \"#utility.yul\":4624:4633   */\n      dup6\n        /* \"#utility.yul\":4620:4642   */\n      add\n        /* \"#utility.yul\":4599:4652   */\n      tag_226\n      jump\t// in\n    tag_333:\n        /* \"#utility.yul\":4589:4652   */\n      swap2\n      pop\n        /* \"#utility.yul\":4545:4662   */\n      pop\n        /* \"#utility.yul\":4340:4669   */\n      swap3\n      swap2\n      pop\n      pop\n      jump\t// out\n        /* \"#utility.yul\":4675:4855   */\n    tag_58:\n        /* \"#utility.yul\":4723:4800   */\n      0x4e487b7100000000000000000000000000000000000000000000000000000000\n        /* \"#utility.yul\":4720:4721   */\n      0x00\n        /* \"#utility.yul\":4713:4801   */\n      mstore\n        /* \"#utility.yul\":4820:4824   */\n      0x21\n        /* \"#utility.yul\":4817:4818   */\n      0x04\n        /* \"#utility.yul\":4810:4825   */\n      mstore\n        /* \"#utility.yul\":4844:4848   */\n      0x24\n        /* \"#utility.yul\":4841:4842   */\n      0x00\n        /* \"#utility.yul\":4834:4849   */\n      revert\n        /* \"#utility.yul\":4861:4972   */\n    tag_237:\n        /* \"#utility.yul\":4940:4941   */\n      0x03\n        /* \"#utility.yul\":4933:4938   */\n      dup2\n        /* \"#utility.yul\":4930:4942   */\n      lt\n        /* \"#utility.yul\":4920:4966   */\n      tag_336\n      jumpi\n        /* \"#utility.yul\":4946:4964   */\n      tag_337\n      tag_58\n      jump\t// in\n    tag_337:\n        /* \"#utility.yul\":4920:4966   */\n    tag_336:\n        /* \"#utility.yul\":4861:4972   */\n      pop\n      jump\t// out\n        /* \"#utility.yul\":4978:5101   */\n    tag_238:\n        /* \"#utility.yul\":5021:5028   */\n      0x00\n        /* \"#utility.yul\":5050:5055   */\n      dup2\n        /* \"#utility.yul\":5039:5055   */\n      swap1\n      pop\n        /* \"#utility.yul\":5056:5095   */\n      tag_339\n        /* \"#utility.yul\":5089:5094   */\n      dup3\n        /* \"#utility.yul\":5056:5095   */\n      tag_237\n      jump\t// in\n    tag_339:\n        /* \"#utility.yul\":4978:5101   */\n      swap2\n      swap1\n      pop\n      jump\t// out\n        /* \"#utility.yul\":5107:5230   */\n    tag_239:\n        /* \"#utility.yul\":5161:5170   */\n      0x00\n        /* \"#utility.yul\":5194:5224   */\n      tag_341\n        /* \"#utility.yul\":5218:5223   */\n      dup3\n        /* \"#utility.yul\":5194:5224   */\n      tag_238\n      jump\t// in\n    tag_341:\n        /* \"#utility.yul\":5181:5224   */\n      swap1\n      pop\n        /* \"#utility.yul\":5107:5230   */\n      swap2\n      swap1\n      pop\n      jump\t// out\n        /* \"#utility.yul\":5236:5375   */\n    tag_240:\n        /* \"#utility.yul\":5327:5368   */\n      tag_343\n        /* \"#utility.yul\":5362:5367   */\n      dup2\n        /* \"#utility.yul\":5327:5368   */\n      tag_239\n      jump\t// in\n    tag_343:\n        /* \"#utility.yul\":5322:5325   */\n      dup3\n        /* \"#utility.yul\":5315:5369   */\n      mstore\n        /* \"#utility.yul\":5236:5375   */\n      pop\n      pop\n      jump\t// out\n        /* \"#utility.yul\":5381:5611   */\n    tag_44:\n        /* \"#utility.yul\":5478:5482   */\n      0x00\n        /* \"#utility.yul\":5516:5518   */\n      0x20\n        /* \"#utility.yul\":5505:5514   */\n      dup3\n        /* \"#utility.yul\":5501:5519   */\n      add\n        /* \"#utility.yul\":5493:5519   */\n      swap1\n      pop\n        /* \"#utility.yul\":5529:5604   */\n      tag_345\n        /* \"#utility.yul\":5601:5602   */\n      0x00\n        /* \"#utility.yul\":5590:5599   */\n      dup4\n        /* \"#utility.yul\":5586:5603   */\n      add\n        /* \"#utility.yul\":5577:5583   */\n      dup5\n        /* \"#utility.yul\":5529:5604   */\n      tag_240\n      jump\t// in\n    tag_345:\n        /* \"#utility.yul\":5381:5611   */\n      swap3\n      swap2\n      pop\n      pop\n      jump\t// out\n        /* \"#utility.yul\":5617:5734   */\n    tag_241:\n        /* \"#utility.yul\":5726:5727   */\n      0x00\n        /* \"#utility.yul\":5723:5724   */\n      dup1\n        /* \"#utility.yul\":5716:5728   */\n      revert\n        /* \"#utility.yul\":5740:5857   */\n    tag_242:\n        /* \"#utility.yul\":5849:5850   */\n      0x00\n        /* \"#utility.yul\":5846:5847   */\n      dup1\n        /* \"#utility.yul\":5839:5851   */\n      revert\n        /* \"#utility.yul\":5863:5980   */\n    tag_243:\n        /* \"#utility.yul\":5972:5973   */\n      0x00\n        /* \"#utility.yul\":5969:5970   */\n      dup1\n        /* \"#utility.yul\":5962:5974   */\n      revert\n        /* \"#utility.yul\":6000:6553   */\n    tag_244:\n        /* \"#utility.yul\":6058:6066   */\n      0x00\n        /* \"#utility.yul\":6068:6074   */\n      dup1\n        /* \"#utility.yul\":6118:6121   */\n      dup4\n        /* \"#utility.yul\":6111:6115   */\n      0x1f\n        /* \"#utility.yul\":6103:6109   */\n      dup5\n        /* \"#utility.yul\":6099:6116   */\n      add\n        /* \"#utility.yul\":6095:6122   */\n      slt\n        /* \"#utility.yul\":6085:6207   */\n      tag_350\n      jumpi\n        /* \"#utility.yul\":6126:6205   */\n      tag_351\n      tag_241\n      jump\t// in\n    tag_351:\n        /* \"#utility.yul\":6085:6207   */\n    tag_350:\n        /* \"#utility.yul\":6239:6245   */\n      dup3\n        /* \"#utility.yul\":6226:6246   */\n      calldataload\n        /* \"#utility.yul\":6216:6246   */\n      swap1\n      pop\n        /* \"#utility.yul\":6269:6287   */\n      0xffffffffffffffff\n        /* \"#utility.yul\":6261:6267   */\n      dup2\n        /* \"#utility.yul\":6258:6288   */\n      gt\n        /* \"#utility.yul\":6255:6372   */\n      iszero\n      tag_352\n      jumpi\n        /* \"#utility.yul\":6291:6370   */\n      tag_353\n      tag_242\n      jump\t// in\n    tag_353:\n        /* \"#utility.yul\":6255:6372   */\n    tag_352:\n        /* \"#utility.yul\":6405:6409   */\n      0x20\n        /* \"#utility.yul\":6397:6403   */\n      dup4\n        /* \"#utility.yul\":6393:6410   */\n      add\n        /* \"#utility.yul\":6381:6410   */\n      swap2\n      pop\n        /* \"#utility.yul\":6459:6462   */\n      dup4\n        /* \"#utility.yul\":6451:6455   */\n      0x01\n        /* \"#utility.yul\":6443:6449   */\n      dup3\n        /* \"#utility.yul\":6439:6456   */\n      mul\n        /* \"#utility.yul\":6429:6437   */\n      dup4\n        /* \"#utility.yul\":6425:6457   */\n      add\n        /* \"#utility.yul\":6422:6463   */\n      gt\n        /* \"#utility.yul\":6419:6547   */\n      iszero\n      tag_354\n      jumpi\n        /* \"#utility.yul\":6466:6545   */\n      tag_355\n      tag_243\n      jump\t// in\n    tag_355:\n        /* \"#utility.yul\":6419:6547   */\n    tag_354:\n        /* \"#utility.yul\":6000:6553   */\n      swap3\n      pop\n      swap3\n      swap1\n      pop\n      jump\t// out\n        /* \"#utility.yul\":6559:7378   */\n    tag_48:\n        /* \"#utility.yul\":6648:6654   */\n      0x00\n        /* \"#utility.yul\":6656:6662   */\n      dup1\n        /* \"#utility.yul\":6664:6670   */\n      0x00\n        /* \"#utility.yul\":6672:6678   */\n      dup1\n        /* \"#utility.yul\":6721:6723   */\n      0x60\n        /* \"#utility.yul\":6709:6718   */\n      dup6\n        /* \"#utility.yul\":6700:6707   */\n      dup8\n        /* \"#utility.yul\":6696:6719   */\n      sub\n        /* \"#utility.yul\":6692:6724   */\n      slt\n        /* \"#utility.yul\":6689:6808   */\n      iszero\n      tag_357\n      jumpi\n        /* \"#utility.yul\":6727:6806   */\n      tag_358\n      tag_221\n      jump\t// in\n    tag_358:\n        /* \"#utility.yul\":6689:6808   */\n    tag_357:\n        /* \"#utility.yul\":6847:6848   */\n      0x00\n        /* \"#utility.yul\":6872:6925   */\n      tag_359\n        /* \"#utility.yul\":6917:6924   */\n      dup8\n        /* \"#utility.yul\":6908:6914   */\n      dup3\n        /* \"#utility.yul\":6897:6906   */\n      dup9\n        /* \"#utility.yul\":6893:6915   */\n      add\n        /* \"#utility.yul\":6872:6925   */\n      tag_229\n      jump\t// in\n    tag_359:\n        /* \"#utility.yul\":6862:6925   */\n      swap5\n      pop\n        /* \"#utility.yul\":6818:6935   */\n      pop\n        /* \"#utility.yul\":6974:6976   */\n      0x20\n        /* \"#utility.yul\":7000:7053   */\n      tag_360\n        /* \"#utility.yul\":7045:7052   */\n      dup8\n        /* \"#utility.yul\":7036:7042   */\n      dup3\n        /* \"#utility.yul\":7025:7034   */\n      dup9\n        /* \"#utility.yul\":7021:7043   */\n      add\n        /* \"#utility.yul\":7000:7053   */\n      tag_229\n      jump\t// in\n    tag_360:\n        /* \"#utility.yul\":6990:7053   */\n      swap4\n      pop\n        /* \"#utility.yul\":6945:7063   */\n      pop\n        /* \"#utility.yul\":7130:7132   */\n      0x40\n        /* \"#utility.yul\":7119:7128   */\n      dup6\n        /* \"#utility.yul\":7115:7133   */\n      add\n        /* \"#utility.yul\":7102:7134   */\n      calldataload\n        /* \"#utility.yul\":7161:7179   */\n      0xffffffffffffffff\n        /* \"#utility.yul\":7153:7159   */\n      dup2\n        /* \"#utility.yul\":7150:7180   */\n      gt\n        /* \"#utility.yul\":7147:7264   */\n      iszero\n      tag_361\n      jumpi\n        /* \"#utility.yul\":7183:7262   */\n      tag_362\n      tag_222\n      jump\t// in\n    tag_362:\n        /* \"#utility.yul\":7147:7264   */\n    tag_361:\n        /* \"#utility.yul\":7296:7361   */\n      tag_363\n        /* \"#utility.yul\":7353:7360   */\n      dup8\n        /* \"#utility.yul\":7344:7350   */\n      dup3\n        /* \"#utility.yul\":7333:7342   */\n      dup9\n        /* \"#utility.yul\":7329:7351   */\n      add\n        /* \"#utility.yul\":7296:7361   */\n      tag_244\n      jump\t// in\n    tag_363:\n        /* \"#utility.yul\":7278:7361   */\n      swap3\n      pop\n      swap3\n      pop\n        /* \"#utility.yul\":7073:7371   */\n      pop\n        /* \"#utility.yul\":6559:7378   */\n      swap3\n      swap6\n      swap2\n      swap5\n      pop\n      swap3\n      pop\n      jump\t// out\n        /* \"#utility.yul\":7384:8349   */\n    tag_53:\n        /* \"#utility.yul\":7482:7488   */\n      0x00\n        /* \"#utility.yul\":7490:7496   */\n      dup1\n        /* \"#utility.yul\":7498:7504   */\n      0x00\n        /* \"#utility.yul\":7506:7512   */\n      dup1\n        /* \"#utility.yul\":7514:7520   */\n      0x00\n        /* \"#utility.yul\":7563:7566   */\n      0x80\n        /* \"#utility.yul\":7551:7560   */\n      dup7\n        /* \"#utility.yul\":7542:7549   */\n      dup9\n        /* \"#utility.yul\":7538:7561   */\n      sub\n        /* \"#utility.yul\":7534:7567   */\n      slt\n        /* \"#utility.yul\":7531:7651   */\n      iszero\n      tag_365\n      jumpi\n        /* \"#utility.yul\":7570:7649   */\n      tag_366\n      tag_221\n      jump\t// in\n    tag_366:\n        /* \"#utility.yul\":7531:7651   */\n    tag_365:\n        /* \"#utility.yul\":7690:7691   */\n      0x00\n        /* \"#utility.yul\":7715:7768   */\n      tag_367\n        /* \"#utility.yul\":7760:7767   */\n      dup9\n        /* \"#utility.yul\":7751:7757   */\n      dup3\n        /* \"#utility.yul\":7740:7749   */\n      dup10\n        /* \"#utility.yul\":7736:7758   */\n      add\n        /* \"#utility.yul\":7715:7768   */\n      tag_226\n      jump\t// in\n    tag_367:\n        /* \"#utility.yul\":7705:7768   */\n      swap6\n      pop\n        /* \"#utility.yul\":7661:7778   */\n      pop\n        /* \"#utility.yul\":7817:7819   */\n      0x20\n        /* \"#utility.yul\":7843:7896   */\n      tag_368\n        /* \"#utility.yul\":7888:7895   */\n      dup9\n        /* \"#utility.yul\":7879:7885   */\n      dup3\n        /* \"#utility.yul\":7868:7877   */\n      dup10\n        /* \"#utility.yul\":7864:7886   */\n      add\n        /* \"#utility.yul\":7843:7896   */\n      tag_229\n      jump\t// in\n    tag_368:\n        /* \"#utility.yul\":7833:7896   */\n      swap5\n      pop\n        /* \"#utility.yul\":7788:7906   */\n      pop\n        /* \"#utility.yul\":7945:7947   */\n      0x40\n        /* \"#utility.yul\":7971:8024   */\n      tag_369\n        /* \"#utility.yul\":8016:8023   */\n      dup9\n        /* \"#utility.yul\":8007:8013   */\n      dup3\n        /* \"#utility.yul\":7996:8005   */\n      dup10\n        /* \"#utility.yul\":7992:8014   */\n      add\n        /* \"#utility.yul\":7971:8024   */\n      tag_229\n      jump\t// in\n    tag_369:\n        /* \"#utility.yul\":7961:8024   */\n      swap4\n      pop\n        /* \"#utility.yul\":7916:8034   */\n      pop\n        /* \"#utility.yul\":8101:8103   */\n      0x60\n        /* \"#utility.yul\":8090:8099   */\n      dup7\n        /* \"#utility.yul\":8086:8104   */\n      add\n        /* \"#utility.yul\":8073:8105   */\n      calldataload\n        /* \"#utility.yul\":8132:8150   */\n      0xffffffffffffffff\n        /* \"#utility.yul\":8124:8130   */\n      dup2\n        /* \"#utility.yul\":8121:8151   */\n      gt\n        /* \"#utility.yul\":8118:8235   */\n      iszero\n      tag_370\n      jumpi\n        /* \"#utility.yul\":8154:8233   */\n      tag_371\n      tag_222\n      jump\t// in\n    tag_371:\n        /* \"#utility.yul\":8118:8235   */\n    tag_370:\n        /* \"#utility.yul\":8267:8332   */\n      tag_372\n        /* \"#utility.yul\":8324:8331   */\n      dup9\n        /* \"#utility.yul\":8315:8321   */\n      dup3\n        /* \"#utility.yul\":8304:8313   */\n      dup10\n        /* \"#utility.yul\":8300:8322   */\n      add\n        /* \"#utility.yul\":8267:8332   */\n      tag_244\n      jump\t// in\n    tag_372:\n        /* \"#utility.yul\":8249:8332   */\n      swap3\n      pop\n      swap3\n      pop\n        /* \"#utility.yul\":8044:8342   */\n      pop\n        /* \"#utility.yul\":7384:8349   */\n      swap3\n      swap6\n      pop\n      swap3\n      swap6\n      swap1\n      swap4\n      pop\n      jump\t// out\n        /* \"#utility.yul\":8355:8469   */\n    tag_245:\n      pop\n      jump\t// out\n        /* \"#utility.yul\":8475:8839   */\n    tag_246:\n        /* \"#utility.yul\":8617:8620   */\n      0x00\n        /* \"#utility.yul\":8638:8704   */\n      tag_375\n        /* \"#utility.yul\":8702:8703   */\n      0x00\n        /* \"#utility.yul\":8697:8700   */\n      dup4\n        /* \"#utility.yul\":8638:8704   */\n      tag_233\n      jump\t// in\n    tag_375:\n        /* \"#utility.yul\":8631:8704   */\n      swap2\n      pop\n        /* \"#utility.yul\":8713:8806   */\n      tag_376\n        /* \"#utility.yul\":8802:8805   */\n      dup3\n        /* \"#utility.yul\":8713:8806   */\n      tag_245\n      jump\t// in\n    tag_376:\n        /* \"#utility.yul\":8831:8832   */\n      0x00\n        /* \"#utility.yul\":8826:8829   */\n      dup3\n        /* \"#utility.yul\":8822:8833   */\n      add\n        /* \"#utility.yul\":8815:8833   */\n      swap1\n      pop\n        /* \"#utility.yul\":8475:8839   */\n      swap2\n      swap1\n      pop\n      jump\t// out\n        /* \"#utility.yul\":8845:9264   */\n    tag_63:\n        /* \"#utility.yul\":9011:9015   */\n      0x00\n        /* \"#utility.yul\":9049:9051   */\n      0x20\n        /* \"#utility.yul\":9038:9047   */\n      dup3\n        /* \"#utility.yul\":9034:9052   */\n      add\n        /* \"#utility.yul\":9026:9052   */\n      swap1\n      pop\n        /* \"#utility.yul\":9098:9107   */\n      dup2\n        /* \"#utility.yul\":9092:9096   */\n      dup2\n        /* \"#utility.yul\":9088:9108   */\n      sub\n        /* \"#utility.yul\":9084:9085   */\n      0x00\n        /* \"#utility.yul\":9073:9082   */\n      dup4\n        /* \"#utility.yul\":9069:9086   */\n      add\n        /* \"#utility.yul\":9062:9109   */\n      mstore\n        /* \"#utility.yul\":9126:9257   */\n      tag_378\n        /* \"#utility.yul\":9252:9256   */\n      dup2\n        /* \"#utility.yul\":9126:9257   */\n      tag_246\n      jump\t// in\n    tag_378:\n        /* \"#utility.yul\":9118:9257   */\n      swap1\n      pop\n        /* \"#utility.yul\":8845:9264   */\n      swap2\n      swap1\n      pop\n      jump\t// out\n        /* \"#utility.yul\":9270:9686   */\n    tag_247:\n        /* \"#utility.yul\":9410:9476   */\n      0xd09cd0b0d0b3d0b0d0b7d0b8d0bd20d0bdd0b520d181d0bed0bed182d0b2d0b5\n        /* \"#utility.yul\":9406:9407   */\n      0x00\n        /* \"#utility.yul\":9398:9404   */\n      dup3\n        /* \"#utility.yul\":9394:9408   */\n      add\n        /* \"#utility.yul\":9387:9477   */\n      mstore\n        /* \"#utility.yul\":9511:9577   */\n      0xd182d181d0b2d183d0b5d18220d0bed182d0bfd180d0b0d0b2d0b8d182d0b5d0\n        /* \"#utility.yul\":9506:9508   */\n      0x20\n        /* \"#utility.yul\":9498:9504   */\n      dup3\n        /* \"#utility.yul\":9494:9509   */\n      add\n        /* \"#utility.yul\":9487:9578   */\n      mstore\n        /* \"#utility.yul\":9612:9678   */\n      0xbbd18e0000000000000000000000000000000000000000000000000000000000\n        /* \"#utility.yul\":9607:9609   */\n      0x40\n        /* \"#utility.yul\":9599:9605   */\n      dup3\n        /* \"#utility.yul\":9595:9610   */\n      add\n        /* \"#utility.yul\":9588:9679   */\n      mstore\n        /* \"#utility.yul\":9270:9686   */\n      pop\n      jump\t// out\n        /* \"#utility.yul\":9692:10058   */\n    tag_248:\n        /* \"#utility.yul\":9834:9837   */\n      0x00\n        /* \"#utility.yul\":9855:9922   */\n      tag_381\n        /* \"#utility.yul\":9919:9921   */\n      0x43\n        /* \"#utility.yul\":9914:9917   */\n      dup4\n        /* \"#utility.yul\":9855:9922   */\n      tag_233\n      jump\t// in\n    tag_381:\n        /* \"#utility.yul\":9848:9922   */\n      swap2\n      pop\n        /* \"#utility.yul\":9931:10024   */\n      tag_382\n        /* \"#utility.yul\":10020:10023   */\n      dup3\n        /* \"#utility.yul\":9931:10024   */\n      tag_247\n      jump\t// in\n    tag_382:\n        /* \"#utility.yul\":10049:10051   */\n      0x60\n        /* \"#utility.yul\":10044:10047   */\n      dup3\n        /* \"#utility.yul\":10040:10052   */\n      add\n        /* \"#utility.yul\":10033:10052   */\n      swap1\n      pop\n        /* \"#utility.yul\":9692:10058   */\n      swap2\n      swap1\n      pop\n      jump\t// out\n        /* \"#utility.yul\":10064:10483   */\n    tag_66:\n        /* \"#utility.yul\":10230:10234   */\n      0x00\n        /* \"#utility.yul\":10268:10270   */\n      0x20\n        /* \"#utility.yul\":10257:10266   */\n      dup3\n        /* \"#utility.yul\":10253:10271   */\n      add\n        /* \"#utility.yul\":10245:10271   */\n      swap1\n      pop\n        /* \"#utility.yul\":10317:10326   */\n      dup2\n        /* \"#utility.yul\":10311:10315   */\n      dup2\n        /* \"#utility.yul\":10307:10327   */\n      sub\n        /* \"#utility.yul\":10303:10304   */\n      0x00\n        /* \"#utility.yul\":10292:10301   */\n      dup4\n        /* \"#utility.yul\":10288:10305   */\n      add\n        /* \"#utility.yul\":10281:10328   */\n      mstore\n        /* \"#utility.yul\":10345:10476   */\n      tag_384\n        /* \"#utility.yul\":10471:10475   */\n      dup2\n        /* \"#utility.yul\":10345:10476   */\n      tag_248\n      jump\t// in\n    tag_384:\n        /* \"#utility.yul\":10337:10476   */\n      swap1\n      pop\n        /* \"#utility.yul\":10064:10483   */\n      swap2\n      swap1\n      pop\n      jump\t// out\n        /* \"#utility.yul\":10489:10714   */\n    tag_249:\n        /* \"#utility.yul\":10629:10663   */\n      0x507572636861736520616d6f756e74206d757374206265206772656174657220\n        /* \"#utility.yul\":10625:10626   */\n      0x00\n        /* \"#utility.yul\":10617:10623   */\n      dup3\n        /* \"#utility.yul\":10613:10627   */\n      add\n        /* \"#utility.yul\":10606:10664   */\n      mstore\n        /* \"#utility.yul\":10698:10706   */\n      0x7468616e20300000000000000000000000000000000000000000000000000000\n        /* \"#utility.yul\":10693:10695   */\n      0x20\n        /* \"#utility.yul\":10685:10691   */\n      dup3\n        /* \"#utility.yul\":10681:10696   */\n      add\n        /* \"#utility.yul\":10674:10707   */\n      mstore\n        /* \"#utility.yul\":10489:10714   */\n      pop\n      jump\t// out\n        /* \"#utility.yul\":10720:11086   */\n    tag_250:\n        /* \"#utility.yul\":10862:10865   */\n      0x00\n        /* \"#utility.yul\":10883:10950   */\n      tag_387\n        /* \"#utility.yul\":10947:10949   */\n      0x26\n        /* \"#utility.yul\":10942:10945   */\n      dup4\n        /* \"#utility.yul\":10883:10950   */\n      tag_233\n      jump\t// in\n    tag_387:\n        /* \"#utility.yul\":10876:10950   */\n      swap2\n      pop\n        /* \"#utility.yul\":10959:11052   */\n      tag_388\n        /* \"#utility.yul\":11048:11051   */\n      dup3\n        /* \"#utility.yul\":10959:11052   */\n      tag_249\n      jump\t// in\n    tag_388:\n        /* \"#utility.yul\":11077:11079   */\n      0x40\n        /* \"#utility.yul\":11072:11075   */\n      dup3\n        /* \"#utility.yul\":11068:11080   */\n      add\n        /* \"#utility.yul\":11061:11080   */\n      swap1\n      pop\n        /* \"#utility.yul\":10720:11086   */\n      swap2\n      swap1\n      pop\n      jump\t// out\n        /* \"#utility.yul\":11092:11511   */\n    tag_70:\n        /* \"#utility.yul\":11258:11262   */\n      0x00\n        /* \"#utility.yul\":11296:11298   */\n      0x20\n        /* \"#utility.yul\":11285:11294   */\n      dup3\n        /* \"#utility.yul\":11281:11299   */\n      add\n        /* \"#utility.yul\":11273:11299   */\n      swap1\n      pop\n        /* \"#utility.yul\":11345:11354   */\n      dup2\n        /* \"#utility.yul\":11339:11343   */\n      dup2\n        /* \"#utility.yul\":11335:11355   */\n      sub\n        /* \"#utility.yul\":11331:11332   */\n      0x00\n        /* \"#utility.yul\":11320:11329   */\n      dup4\n        /* \"#utility.yul\":11316:11333   */\n      add\n        /* \"#utility.yul\":11309:11356   */\n      mstore\n        /* \"#utility.yul\":11373:11504   */\n      tag_390\n        /* \"#utility.yul\":11499:11503   */\n      dup2\n        /* \"#utility.yul\":11373:11504   */\n      tag_250\n      jump\t// in\n    tag_390:\n        /* \"#utility.yul\":11365:11504   */\n      swap1\n      pop\n        /* \"#utility.yul\":11092:11511   */\n      swap2\n      swap1\n      pop\n      jump\t// out\n        /* \"#utility.yul\":11517:11685   */\n    tag_251:\n        /* \"#utility.yul\":11657:11677   */\n      0x496e76616c69642070726f647563742049440000000000000000000000000000\n        /* \"#utility.yul\":11653:11654   */\n      0x00\n        /* \"#utility.yul\":11645:11651   */\n      dup3\n        /* \"#utility.yul\":11641:11655   */\n      add\n        /* \"#utility.yul\":11634:11678   */\n      mstore\n        /* \"#utility.yul\":11517:11685   */\n      pop\n      jump\t// out\n        /* \"#utility.yul\":11691:12057   */\n    tag_252:\n        /* \"#utility.yul\":11833:11836   */\n      0x00\n        /* \"#utility.yul\":11854:11921   */\n      tag_393\n        /* \"#utility.yul\":11918:11920   */\n      0x12\n        /* \"#utility.yul\":11913:11916   */\n      dup4\n        /* \"#utility.yul\":11854:11921   */\n      tag_233\n      jump\t// in\n    tag_393:\n        /* \"#utility.yul\":11847:11921   */\n      swap2\n      pop\n        /* \"#utility.yul\":11930:12023   */\n      tag_394\n        /* \"#utility.yul\":12019:12022   */\n      dup3\n        /* \"#utility.yul\":11930:12023   */\n      tag_251\n      jump\t// in\n    tag_394:\n        /* \"#utility.yul\":12048:12050   */\n      0x20\n        /* \"#utility.yul\":12043:12046   */\n      dup3\n        /* \"#utility.yul\":12039:12051   */\n      add\n        /* \"#utility.yul\":12032:12051   */\n      swap1\n      pop\n        /* \"#utility.yul\":11691:12057   */\n      swap2\n      swap1\n      pop\n      jump\t// out\n        /* \"#utility.yul\":12063:12482   */\n    tag_73:\n        /* \"#utility.yul\":12229:12233   */\n      0x00\n        /* \"#utility.yul\":12267:12269   */\n      0x20\n        /* \"#utility.yul\":12256:12265   */\n      dup3\n        /* \"#utility.yul\":12252:12270   */\n      add\n        /* \"#utility.yul\":12244:12270   */\n      swap1\n      pop\n        /* \"#utility.yul\":12316:12325   */\n      dup2\n        /* \"#utility.yul\":12310:12314   */\n      dup2\n        /* \"#utility.yul\":12306:12326   */\n      sub\n        /* \"#utility.yul\":12302:12303   */\n      0x00\n        /* \"#utility.yul\":12291:12300   */\n      dup4\n        /* \"#utility.yul\":12287:12304   */\n      add\n        /* \"#utility.yul\":12280:12327   */\n      mstore\n        /* \"#utility.yul\":12344:12475   */\n      tag_396\n        /* \"#utility.yul\":12470:12474   */\n      dup2\n        /* \"#utility.yul\":12344:12475   */\n      tag_252\n      jump\t// in\n    tag_396:\n        /* \"#utility.yul\":12336:12475   */\n      swap1\n      pop\n        /* \"#utility.yul\":12063:12482   */\n      swap2\n      swap1\n      pop\n      jump\t// out\n        /* \"#utility.yul\":12488:12668   */\n    tag_76:\n        /* \"#utility.yul\":12536:12613   */\n      0x4e487b7100000000000000000000000000000000000000000000000000000000\n        /* \"#utility.yul\":12533:12534   */\n      0x00\n        /* \"#utility.yul\":12526:12614   */\n      mstore\n        /* \"#utility.yul\":12633:12637   */\n      0x32\n        /* \"#utility.yul\":12630:12631   */\n      0x04\n        /* \"#utility.yul\":12623:12638   */\n      mstore\n        /* \"#utility.yul\":12657:12661   */\n      0x24\n        /* \"#utility.yul\":12654:12655   */\n      0x00\n        /* \"#utility.yul\":12647:12662   */\n      revert\n        /* \"#utility.yul\":12674:12854   */\n    tag_253:\n        /* \"#utility.yul\":12722:12799   */\n      0x4e487b7100000000000000000000000000000000000000000000000000000000\n        /* \"#utility.yul\":12719:12720   */\n      0x00\n        /* \"#utility.yul\":12712:12800   */\n      mstore\n        /* \"#utility.yul\":12819:12823   */\n      0x22\n        /* \"#utility.yul\":12816:12817   */\n      0x04\n        /* \"#utility.yul\":12809:12824   */\n      mstore\n        /* \"#utility.yul\":12843:12847   */\n      0x24\n        /* \"#utility.yul\":12840:12841   */\n      0x00\n        /* \"#utility.yul\":12833:12848   */\n      revert\n        /* \"#utility.yul\":12860:13180   */\n    tag_79:\n        /* \"#utility.yul\":12904:12910   */\n      0x00\n        /* \"#utility.yul\":12941:12942   */\n      0x02\n        /* \"#utility.yul\":12935:12939   */\n      dup3\n        /* \"#utility.yul\":12931:12943   */\n      div\n        /* \"#utility.yul\":12921:12943   */\n      swap1\n      pop\n        /* \"#utility.yul\":12988:12989   */\n      0x01\n        /* \"#utility.yul\":12982:12986   */\n      dup3\n        /* \"#utility.yul\":12978:12990   */\n      and\n        /* \"#utility.yul\":13009:13027   */\n      dup1\n        /* \"#utility.yul\":12999:13080   */\n      tag_400\n      jumpi\n        /* \"#utility.yul\":13065:13069   */\n      0x7f\n        /* \"#utility.yul\":13057:13063   */\n      dup3\n        /* \"#utility.yul\":13053:13070   */\n      and\n        /* \"#utility.yul\":13043:13070   */\n      swap2\n      pop\n        /* \"#utility.yul\":12999:13080   */\n    tag_400:\n        /* \"#utility.yul\":13127:13129   */\n      0x20\n        /* \"#utility.yul\":13119:13125   */\n      dup3\n        /* \"#utility.yul\":13116:13130   */\n      lt\n        /* \"#utility.yul\":13096:13114   */\n      dup2\n        /* \"#utility.yul\":13093:13131   */\n      sub\n        /* \"#utility.yul\":13090:13174   */\n      tag_401\n      jumpi\n        /* \"#utility.yul\":13146:13164   */\n      tag_402\n      tag_253\n      jump\t// in\n    tag_402:\n        /* \"#utility.yul\":13090:13174   */\n    tag_401:\n        /* \"#utility.yul\":12911:13180   */\n      pop\n        /* \"#utility.yul\":12860:13180   */\n      swap2\n      swap1\n      pop\n      jump\t// out\n        /* \"#utility.yul\":13186:13333   */\n    tag_254:\n        /* \"#utility.yul\":13287:13298   */\n      0x00\n        /* \"#utility.yul\":13324:13327   */\n      dup2\n        /* \"#utility.yul\":13309:13327   */\n      swap1\n      pop\n        /* \"#utility.yul\":13186:13333   */\n      swap3\n      swap2\n      pop\n      pop\n      jump\t// out\n        /* \"#utility.yul\":13339:13483   */\n    tag_255:\n        /* \"#utility.yul\":13391:13395   */\n      0x00\n        /* \"#utility.yul\":13414:13417   */\n      dup2\n        /* \"#utility.yul\":13406:13417   */\n      swap1\n      pop\n        /* \"#utility.yul\":13437:13440   */\n      dup2\n        /* \"#utility.yul\":13434:13435   */\n      0x00\n        /* \"#utility.yul\":13427:13441   */\n      mstore\n        /* \"#utility.yul\":13471:13475   */\n      0x20\n        /* \"#utility.yul\":13468:13469   */\n      0x00\n        /* \"#utility.yul\":13458:13476   */\n      keccak256\n        /* \"#utility.yul\":13450:13476   */\n      swap1\n      pop\n        /* \"#utility.yul\":13339:13483   */\n      swap2\n      swap1\n      pop\n      jump\t// out\n        /* \"#utility.yul\":13511:14389   */\n    tag_256:\n        /* \"#utility.yul\":13616:13619   */\n      0x00\n        /* \"#utility.yul\":13653:13658   */\n      dup2\n        /* \"#utility.yul\":13647:13659   */\n      sload\n        /* \"#utility.yul\":13682:13718   */\n      tag_406\n        /* \"#utility.yul\":13708:13717   */\n      dup2\n        /* \"#utility.yul\":13682:13718   */\n      tag_79\n      jump\t// in\n    tag_406:\n        /* \"#utility.yul\":13734:13822   */\n      tag_407\n        /* \"#utility.yul\":13815:13821   */\n      dup2\n        /* \"#utility.yul\":13810:13813   */\n      dup7\n        /* \"#utility.yul\":13734:13822   */\n      tag_254\n      jump\t// in\n    tag_407:\n        /* \"#utility.yul\":13727:13822   */\n      swap5\n      pop\n        /* \"#utility.yul\":13853:13854   */\n      0x01\n        /* \"#utility.yul\":13842:13851   */\n      dup3\n        /* \"#utility.yul\":13838:13855   */\n      and\n        /* \"#utility.yul\":13869:13870   */\n      0x00\n        /* \"#utility.yul\":13864:14030   */\n      dup2\n      eq\n      tag_409\n      jumpi\n        /* \"#utility.yul\":14044:14045   */\n      0x01\n        /* \"#utility.yul\":14039:14383   */\n      dup2\n      eq\n      tag_410\n      jumpi\n        /* \"#utility.yul\":13831:14383   */\n      jump(tag_408)\n        /* \"#utility.yul\":13864:14030   */\n    tag_409:\n        /* \"#utility.yul\":13948:13952   */\n      0xff\n        /* \"#utility.yul\":13944:13953   */\n      not\n        /* \"#utility.yul\":13933:13942   */\n      dup4\n        /* \"#utility.yul\":13929:13954   */\n      and\n        /* \"#utility.yul\":13924:13927   */\n      dup7\n        /* \"#utility.yul\":13917:13955   */\n      mstore\n        /* \"#utility.yul\":14010:14016   */\n      dup2\n        /* \"#utility.yul\":14003:14017   */\n      iszero\n        /* \"#utility.yul\":13996:14018   */\n      iszero\n        /* \"#utility.yul\":13988:13994   */\n      dup3\n        /* \"#utility.yul\":13984:14019   */\n      mul\n        /* \"#utility.yul\":13979:13982   */\n      dup7\n        /* \"#utility.yul\":13975:14020   */\n      add\n        /* \"#utility.yul\":13968:14020   */\n      swap4\n      pop\n        /* \"#utility.yul\":13864:14030   */\n      jump(tag_408)\n        /* \"#utility.yul\":14039:14383   */\n    tag_410:\n        /* \"#utility.yul\":14106:14147   */\n      tag_411\n        /* \"#utility.yul\":14141:14146   */\n      dup6\n        /* \"#utility.yul\":14106:14147   */\n      tag_255\n      jump\t// in\n    tag_411:\n        /* \"#utility.yul\":14169:14170   */\n      0x00\n        /* \"#utility.yul\":14183:14337   */\n    tag_412:\n        /* \"#utility.yul\":14197:14203   */\n      dup4\n        /* \"#utility.yul\":14194:14195   */\n      dup2\n        /* \"#utility.yul\":14191:14204   */\n      lt\n        /* \"#utility.yul\":14183:14337   */\n      iszero\n      tag_414\n      jumpi\n        /* \"#utility.yul\":14271:14278   */\n      dup2\n        /* \"#utility.yul\":14265:14279   */\n      sload\n        /* \"#utility.yul\":14261:14262   */\n      dup2\n        /* \"#utility.yul\":14256:14259   */\n      dup10\n        /* \"#utility.yul\":14252:14263   */\n      add\n        /* \"#utility.yul\":14245:14280   */\n      mstore\n        /* \"#utility.yul\":14321:14322   */\n      0x01\n        /* \"#utility.yul\":14312:14319   */\n      dup3\n        /* \"#utility.yul\":14308:14323   */\n      add\n        /* \"#utility.yul\":14297:14323   */\n      swap2\n      pop\n        /* \"#utility.yul\":14219:14223   */\n      0x20\n        /* \"#utility.yul\":14216:14217   */\n      dup2\n        /* \"#utility.yul\":14212:14224   */\n      add\n        /* \"#utility.yul\":14207:14224   */\n      swap1\n      pop\n        /* \"#utility.yul\":14183:14337   */\n      jump(tag_412)\n    tag_414:\n        /* \"#utility.yul\":14366:14372   */\n      dup4\n        /* \"#utility.yul\":14361:14364   */\n      dup9\n        /* \"#utility.yul\":14357:14373   */\n      add\n        /* \"#utility.yul\":14350:14373   */\n      swap6\n      pop\n        /* \"#utility.yul\":14046:14383   */\n      pop\n      pop\n        /* \"#utility.yul\":13831:14383   */\n    tag_408:\n      pop\n        /* \"#utility.yul\":13620:14389   */\n      pop\n      pop\n        /* \"#utility.yul\":13511:14389   */\n      swap3\n      swap2\n      pop\n      pop\n      jump\t// out\n        /* \"#utility.yul\":14395:14668   */\n    tag_91:\n        /* \"#utility.yul\":14526:14529   */\n      0x00\n        /* \"#utility.yul\":14548:14642   */\n      tag_416\n        /* \"#utility.yul\":14638:14641   */\n      dup3\n        /* \"#utility.yul\":14629:14635   */\n      dup5\n        /* \"#utility.yul\":14548:14642   */\n      tag_256\n      jump\t// in\n    tag_416:\n        /* \"#utility.yul\":14541:14642   */\n      swap2\n      pop\n        /* \"#utility.yul\":14659:14662   */\n      dup2\n        /* \"#utility.yul\":14652:14662   */\n      swap1\n      pop\n        /* \"#utility.yul\":14395:14668   */\n      swap3\n      swap2\n      pop\n      pop\n      jump\t// out\n        /* \"#utility.yul\":14674:14854   */\n    tag_257:\n        /* \"#utility.yul\":14722:14799   */\n      0x4e487b7100000000000000000000000000000000000000000000000000000000\n        /* \"#utility.yul\":14719:14720   */\n      0x00\n        /* \"#utility.yul\":14712:14800   */\n      mstore\n        /* \"#utility.yul\":14819:14823   */\n      0x11\n        /* \"#utility.yul\":14816:14817   */\n      0x04\n        /* \"#utility.yul\":14809:14824   */\n      mstore\n        /* \"#utility.yul\":14843:14847   */\n      0x24\n        /* \"#utility.yul\":14840:14841   */\n      0x00\n        /* \"#utility.yul\":14833:14848   */\n      revert\n        /* \"#utility.yul\":14860:15270   */\n    tag_97:\n        /* \"#utility.yul\":14900:14907   */\n      0x00\n        /* \"#utility.yul\":14923:14943   */\n      tag_419\n        /* \"#utility.yul\":14941:14942   */\n      dup3\n        /* \"#utility.yul\":14923:14943   */\n      tag_227\n      jump\t// in\n    tag_419:\n        /* \"#utility.yul\":14918:14943   */\n      swap2\n      pop\n        /* \"#utility.yul\":14957:14977   */\n      tag_420\n        /* \"#utility.yul\":14975:14976   */\n      dup4\n        /* \"#utility.yul\":14957:14977   */\n      tag_227\n      jump\t// in\n    tag_420:\n        /* \"#utility.yul\":14952:14977   */\n      swap3\n      pop\n        /* \"#utility.yul\":15012:15013   */\n      dup3\n        /* \"#utility.yul\":15009:15010   */\n      dup3\n        /* \"#utility.yul\":15005:15014   */\n      mul\n        /* \"#utility.yul\":15034:15064   */\n      tag_421\n        /* \"#utility.yul\":15052:15063   */\n      dup2\n        /* \"#utility.yul\":15034:15064   */\n      tag_227\n      jump\t// in\n    tag_421:\n        /* \"#utility.yul\":15023:15064   */\n      swap2\n      pop\n        /* \"#utility.yul\":15213:15214   */\n      dup3\n        /* \"#utility.yul\":15204:15211   */\n      dup3\n        /* \"#utility.yul\":15200:15215   */\n      div\n        /* \"#utility.yul\":15197:15198   */\n      dup5\n        /* \"#utility.yul\":15194:15216   */\n      eq\n        /* \"#utility.yul\":15174:15175   */\n      dup4\n        /* \"#utility.yul\":15167:15176   */\n      iszero\n        /* \"#utility.yul\":15147:15230   */\n      or\n        /* \"#utility.yul\":15124:15263   */\n      tag_422\n      jumpi\n        /* \"#utility.yul\":15243:15261   */\n      tag_423\n      tag_257\n      jump\t// in\n    tag_423:\n        /* \"#utility.yul\":15124:15263   */\n    tag_422:\n        /* \"#utility.yul\":14908:15270   */\n      pop\n        /* \"#utility.yul\":14860:15270   */\n      swap3\n      swap2\n      pop\n      pop\n      jump\t// out\n        /* \"#utility.yul\":15276:15449   */\n    tag_258:\n        /* \"#utility.yul\":15416:15441   */\n      0x496e73756666696369656e742066756e64732073656e74000000000000000000\n        /* \"#utility.yul\":15412:15413   */\n      0x00\n        /* \"#utility.yul\":15404:15410   */\n      dup3\n        /* \"#utility.yul\":15400:15414   */\n      add\n        /* \"#utility.yul\":15393:15442   */\n      mstore\n        /* \"#utility.yul\":15276:15449   */\n      pop\n      jump\t// out\n        /* \"#utility.yul\":15455:15821   */\n    tag_259:\n        /* \"#utility.yul\":15597:15600   */\n      0x00\n        /* \"#utility.yul\":15618:15685   */\n      tag_426\n        /* \"#utility.yul\":15682:15684   */\n      0x17\n        /* \"#utility.yul\":15677:15680   */\n      dup4\n        /* \"#utility.yul\":15618:15685   */\n      tag_233\n      jump\t// in\n    tag_426:\n        /* \"#utility.yul\":15611:15685   */\n      swap2\n      pop\n        /* \"#utility.yul\":15694:15787   */\n      tag_427\n        /* \"#utility.yul\":15783:15786   */\n      dup3\n        /* \"#utility.yul\":15694:15787   */\n      tag_258\n      jump\t// in\n    tag_427:\n        /* \"#utility.yul\":15812:15814   */\n      0x20\n        /* \"#utility.yul\":15807:15810   */\n      dup3\n        /* \"#utility.yul\":15803:15815   */\n      add\n        /* \"#utility.yul\":15796:15815   */\n      swap1\n      pop\n        /* \"#utility.yul\":15455:15821   */\n      swap2\n      swap1\n      pop\n      jump\t// out\n        /* \"#utility.yul\":15827:16246   */\n    tag_101:\n        /* \"#utility.yul\":15993:15997   */\n      0x00\n        /* \"#utility.yul\":16031:16033   */\n      0x20\n        /* \"#utility.yul\":16020:16029   */\n      dup3\n        /* \"#utility.yul\":16016:16034   */\n      add\n        /* \"#utility.yul\":16008:16034   */\n      swap1\n      pop\n        /* \"#utility.yul\":16080:16089   */\n      dup2\n        /* \"#utility.yul\":16074:16078   */\n      dup2\n        /* \"#utility.yul\":16070:16090   */\n      sub\n        /* \"#utility.yul\":16066:16067   */\n      0x00\n        /* \"#utility.yul\":16055:16064   */\n      dup4\n        /* \"#utility.yul\":16051:16068   */\n      add\n        /* \"#utility.yul\":16044:16091   */\n      mstore\n        /* \"#utility.yul\":16108:16239   */\n      tag_429\n        /* \"#utility.yul\":16234:16238   */\n      dup2\n        /* \"#utility.yul\":16108:16239   */\n      tag_259\n      jump\t// in\n    tag_429:\n        /* \"#utility.yul\":16100:16239   */\n      swap1\n      pop\n        /* \"#utility.yul\":15827:16246   */\n      swap2\n      swap1\n      pop\n      jump\t// out\n        /* \"#utility.yul\":16252:16446   */\n    tag_106:\n        /* \"#utility.yul\":16292:16296   */\n      0x00\n        /* \"#utility.yul\":16312:16332   */\n      tag_431\n        /* \"#utility.yul\":16330:16331   */\n      dup3\n        /* \"#utility.yul\":16312:16332   */\n      tag_227\n      jump\t// in\n    tag_431:\n        /* \"#utility.yul\":16307:16332   */\n      swap2\n      pop\n        /* \"#utility.yul\":16346:16366   */\n      tag_432\n        /* \"#utility.yul\":16364:16365   */\n      dup4\n        /* \"#utility.yul\":16346:16366   */\n      tag_227\n      jump\t// in\n    tag_432:\n        /* \"#utility.yul\":16341:16366   */\n      swap3\n      pop\n        /* \"#utility.yul\":16390:16391   */\n      dup3\n        /* \"#utility.yul\":16387:16388   */\n      dup3\n        /* \"#utility.yul\":16383:16392   */\n      sub\n        /* \"#utility.yul\":16375:16392   */\n      swap1\n      pop\n        /* \"#utility.yul\":16414:16415   */\n      dup2\n        /* \"#utility.yul\":16408:16412   */\n      dup2\n        /* \"#utility.yul\":16405:16416   */\n      gt\n        /* \"#utility.yul\":16402:16439   */\n      iszero\n      tag_433\n      jumpi\n        /* \"#utility.yul\":16419:16437   */\n      tag_434\n      tag_257\n      jump\t// in\n    tag_434:\n        /* \"#utility.yul\":16402:16439   */\n    tag_433:\n        /* \"#utility.yul\":16252:16446   */\n      swap3\n      swap2\n      pop\n      pop\n      jump\t// out\n        /* \"#utility.yul\":16452:16643   */\n    tag_111:\n        /* \"#utility.yul\":16492:16495   */\n      0x00\n        /* \"#utility.yul\":16511:16531   */\n      tag_436\n        /* \"#utility.yul\":16529:16530   */\n      dup3\n        /* \"#utility.yul\":16511:16531   */\n      tag_227\n      jump\t// in\n    tag_436:\n        /* \"#utility.yul\":16506:16531   */\n      swap2\n      pop\n        /* \"#utility.yul\":16545:16565   */\n      tag_437\n        /* \"#utility.yul\":16563:16564   */\n      dup4\n        /* \"#utility.yul\":16545:16565   */\n      tag_227\n      jump\t// in\n    tag_437:\n        /* \"#utility.yul\":16540:16565   */\n      swap3\n      pop\n        /* \"#utility.yul\":16588:16589   */\n      dup3\n        /* \"#utility.yul\":16585:16586   */\n      dup3\n        /* \"#utility.yul\":16581:16590   */\n      add\n        /* \"#utility.yul\":16574:16590   */\n      swap1\n      pop\n        /* \"#utility.yul\":16609:16612   */\n      dup1\n        /* \"#utility.yul\":16606:16607   */\n      dup3\n        /* \"#utility.yul\":16603:16613   */\n      gt\n        /* \"#utility.yul\":16600:16636   */\n      iszero\n      tag_438\n      jumpi\n        /* \"#utility.yul\":16616:16634   */\n      tag_439\n      tag_257\n      jump\t// in\n    tag_439:\n        /* \"#utility.yul\":16600:16636   */\n    tag_438:\n        /* \"#utility.yul\":16452:16643   */\n      swap3\n      swap2\n      pop\n      pop\n      jump\t// out\n        /* \"#utility.yul\":16649:16882   */\n    tag_113:\n        /* \"#utility.yul\":16688:16691   */\n      0x00\n        /* \"#utility.yul\":16711:16735   */\n      tag_441\n        /* \"#utility.yul\":16729:16734   */\n      dup3\n        /* \"#utility.yul\":16711:16735   */\n      tag_227\n      jump\t// in\n    tag_441:\n        /* \"#utility.yul\":16702:16735   */\n      swap2\n      pop\n        /* \"#utility.yul\":16757:16823   */\n      0xffffffffffffffffffffffffffffffffffffffffffffffffffffffffffffffff\n        /* \"#utility.yul\":16750:16755   */\n      dup3\n        /* \"#utility.yul\":16747:16824   */\n      sub\n        /* \"#utility.yul\":16744:16847   */\n      tag_442\n      jumpi\n        /* \"#utility.yul\":16827:16845   */\n      tag_443\n      tag_257\n      jump\t// in\n    tag_443:\n        /* \"#utility.yul\":16744:16847   */\n    tag_442:\n        /* \"#utility.yul\":16874:16875   */\n      0x01\n        /* \"#utility.yul\":16867:16872   */\n      dup3\n        /* \"#utility.yul\":16863:16876   */\n      add\n        /* \"#utility.yul\":16856:16876   */\n      swap1\n      pop\n        /* \"#utility.yul\":16649:16882   */\n      swap2\n      swap1\n      pop\n      jump\t// out\n        /* \"#utility.yul\":16888:17064   */\n    tag_260:\n        /* \"#utility.yul\":17028:17056   */\n      0x4e6f7420656e6f7567682073746f636b20617661696c61626c65000000000000\n        /* \"#utility.yul\":17024:17025   */\n      0x00\n        /* \"#utility.yul\":17016:17022   */\n      dup3\n        /* \"#utility.yul\":17012:17026   */\n      add\n        /* \"#utility.yul\":17005:17057   */\n      mstore\n        /* \"#utility.yul\":16888:17064   */\n      pop\n      jump\t// out\n        /* \"#utility.yul\":17070:17436   */\n    tag_261:\n        /* \"#utility.yul\":17212:17215   */\n      0x00\n        /* \"#utility.yul\":17233:17300   */\n      tag_446\n        /* \"#utility.yul\":17297:17299   */\n      0x1a\n        /* \"#utility.yul\":17292:17295   */\n      dup4\n        /* \"#utility.yul\":17233:17300   */\n      tag_233\n      jump\t// in\n    tag_446:\n        /* \"#utility.yul\":17226:17300   */\n      swap2\n      pop\n        /* \"#utility.yul\":17309:17402   */\n      tag_447\n        /* \"#utility.yul\":17398:17401   */\n      dup3\n        /* \"#utility.yul\":17309:17402   */\n      tag_260\n      jump\t// in\n    tag_447:\n        /* \"#utility.yul\":17427:17429   */\n      0x20\n        /* \"#utility.yul\":17422:17425   */\n      dup3\n        /* \"#utility.yul\":17418:17430   */\n      add\n        /* \"#utility.yul\":17411:17430   */\n      swap1\n      pop\n        /* \"#utility.yul\":17070:17436   */\n      swap2\n      swap1\n      pop\n      jump\t// out\n        /* \"#utility.yul\":17442:17861   */\n    tag_149:\n        /* \"#utility.yul\":17608:17612   */\n      0x00\n        /* \"#utility.yul\":17646:17648   */\n      0x20\n        /* \"#utility.yul\":17635:17644   */\n      dup3\n        /* \"#utility.yul\":17631:17649   */\n      add\n        /* \"#utility.yul\":17623:17649   */\n      swap1\n      pop\n        /* \"#utility.yul\":17695:17704   */\n      dup2\n        /* \"#utility.yul\":17689:17693   */\n      dup2\n        /* \"#utility.yul\":17685:17705   */\n      sub\n        /* \"#utility.yul\":17681:17682   */\n      0x00\n        /* \"#utility.yul\":17670:17679   */\n      dup4\n        /* \"#utility.yul\":17666:17683   */\n      add\n        /* \"#utility.yul\":17659:17706   */\n      mstore\n        /* \"#utility.yul\":17723:17854   */\n      tag_449\n        /* \"#utility.yul\":17849:17853   */\n      dup2\n        /* \"#utility.yul\":17723:17854   */\n      tag_261\n      jump\t// in\n    tag_449:\n        /* \"#utility.yul\":17715:17854   */\n      swap1\n      pop\n        /* \"#utility.yul\":17442:17861   */\n      swap2\n      swap1\n      pop\n      jump\t// out\n        /* \"#utility.yul\":17867:18047   */\n    tag_262:\n        /* \"#utility.yul\":17915:17992   */\n      0x4e487b7100000000000000000000000000000000000000000000000000000000\n        /* \"#utility.yul\":17912:17913   */\n      0x00\n        /* \"#utility.yul\":17905:17993   */\n      mstore\n        /* \"#utility.yul\":18012:18016   */\n      0x41\n        /* \"#utility.yul\":18009:18010   */\n      0x04\n        /* \"#utility.yul\":18002:18017   */\n      mstore\n        /* \"#utility.yul\":18036:18040   */\n      0x24\n        /* \"#utility.yul\":18033:18034   */\n      0x00\n        /* \"#utility.yul\":18026:18041   */\n      revert\n        /* \"#utility.yul\":18053:18194   */\n    tag_263:\n        /* \"#utility.yul\":18102:18106   */\n      0x00\n        /* \"#utility.yul\":18125:18128   */\n      dup2\n        /* \"#utility.yul\":18117:18128   */\n      swap1\n      pop\n        /* \"#utility.yul\":18148:18151   */\n      dup2\n        /* \"#utility.yul\":18145:18146   */\n      0x00\n        /* \"#utility.yul\":18138:18152   */\n      mstore\n        /* \"#utility.yul\":18182:18186   */\n      0x20\n        /* \"#utility.yul\":18179:18180   */\n      0x00\n        /* \"#utility.yul\":18169:18187   */\n      keccak256\n        /* \"#utility.yul\":18161:18187   */\n      swap1\n      pop\n        /* \"#utility.yul\":18053:18194   */\n      swap2\n      swap1\n      pop\n      jump\t// out\n        /* \"#utility.yul\":18200:18293   */\n    tag_264:\n        /* \"#utility.yul\":18237:18243   */\n      0x00\n        /* \"#utility.yul\":18284:18286   */\n      0x20\n        /* \"#utility.yul\":18279:18281   */\n      0x1f\n        /* \"#utility.yul\":18272:18277   */\n      dup4\n        /* \"#utility.yul\":18268:18282   */\n      add\n        /* \"#utility.yul\":18264:18287   */\n      div\n        /* \"#utility.yul\":18254:18287   */\n      swap1\n      pop\n        /* \"#utility.yul\":18200:18293   */\n      swap2\n      swap1\n      pop\n      jump\t// out\n        /* \"#utility.yul\":18299:18406   */\n    tag_265:\n        /* \"#utility.yul\":18343:18351   */\n      0x00\n        /* \"#utility.yul\":18393:18398   */\n      dup3\n        /* \"#utility.yul\":18387:18391   */\n      dup3\n        /* \"#utility.yul\":18383:18399   */\n      shl\n        /* \"#utility.yul\":18362:18399   */\n      swap1\n      pop\n        /* \"#utility.yul\":18299:18406   */\n      swap3\n      swap2\n      pop\n      pop\n      jump\t// out\n        /* \"#utility.yul\":18412:18805   */\n    tag_266:\n        /* \"#utility.yul\":18481:18487   */\n      0x00\n        /* \"#utility.yul\":18531:18532   */\n      0x08\n        /* \"#utility.yul\":18519:18529   */\n      dup4\n        /* \"#utility.yul\":18515:18533   */\n      mul\n        /* \"#utility.yul\":18554:18651   */\n      tag_455\n        /* \"#utility.yul\":18584:18650   */\n      0xffffffffffffffffffffffffffffffffffffffffffffffffffffffffffffffff\n        /* \"#utility.yul\":18573:18582   */\n      dup3\n        /* \"#utility.yul\":18554:18651   */\n      tag_265\n      jump\t// in\n    tag_455:\n        /* \"#utility.yul\":18672:18711   */\n      tag_456\n        /* \"#utility.yul\":18702:18710   */\n      dup7\n        /* \"#utility.yul\":18691:18700   */\n      dup4\n        /* \"#utility.yul\":18672:18711   */\n      tag_265\n      jump\t// in\n    tag_456:\n        /* \"#utility.yul\":18660:18711   */\n      swap6\n      pop\n        /* \"#utility.yul\":18744:18748   */\n      dup1\n        /* \"#utility.yul\":18740:18749   */\n      not\n        /* \"#utility.yul\":18733:18738   */\n      dup5\n        /* \"#utility.yul\":18729:18750   */\n      and\n        /* \"#utility.yul\":18720:18750   */\n      swap4\n      pop\n        /* \"#utility.yul\":18793:18797   */\n      dup1\n        /* \"#utility.yul\":18783:18791   */\n      dup7\n        /* \"#utility.yul\":18779:18798   */\n      and\n        /* \"#utility.yul\":18772:18777   */\n      dup5\n        /* \"#utility.yul\":18769:18799   */\n      or\n        /* \"#utility.yul\":18759:18799   */\n      swap3\n      pop\n        /* \"#utility.yul\":18488:18805   */\n      pop\n      pop\n        /* \"#utility.yul\":18412:18805   */\n      swap4\n      swap3\n      pop\n      pop\n      pop\n      jump\t// out\n        /* \"#utility.yul\":18811:18871   */\n    tag_267:\n        /* \"#utility.yul\":18839:18842   */\n      0x00\n        /* \"#utility.yul\":18860:18865   */\n      dup2\n        /* \"#utility.yul\":18853:18865   */\n      swap1\n      pop\n        /* \"#utility.yul\":18811:18871   */\n      swap2\n      swap1\n      pop\n      jump\t// out\n        /* \"#utility.yul\":18877:19019   */\n    tag_268:\n        /* \"#utility.yul\":18927:18936   */\n      0x00\n        /* \"#utility.yul\":18960:19013   */\n      tag_459\n        /* \"#utility.yul\":18978:19012   */\n      tag_460\n        /* \"#utility.yul\":18987:19011   */\n      tag_461\n        /* \"#utility.yul\":19005:19010   */\n      dup5\n        /* \"#utility.yul\":18987:19011   */\n      tag_227\n      jump\t// in\n    tag_461:\n        /* \"#utility.yul\":18978:19012   */\n      tag_267\n      jump\t// in\n    tag_460:\n        /* \"#utility.yul\":18960:19013   */\n      tag_227\n      jump\t// in\n    tag_459:\n        /* \"#utility.yul\":18947:19013   */\n      swap1\n      pop\n        /* \"#utility.yul\":18877:19019   */\n      swap2\n      swap1\n      pop\n      jump\t// out\n        /* \"#utility.yul\":19025:19100   */\n    tag_269:\n        /* \"#utility.yul\":19068:19071   */\n      0x00\n        /* \"#utility.yul\":19089:19094   */\n      dup2\n        /* \"#utility.yul\":19082:19094   */\n      swap1\n      pop\n        /* \"#utility.yul\":19025:19100   */\n      swap2\n      swap1\n      pop\n      jump\t// out\n        /* \"#utility.yul\":19106:19375   */\n    tag_270:\n        /* \"#utility.yul\":19216:19255   */\n      tag_464\n        /* \"#utility.yul\":19247:19254   */\n      dup4\n        /* \"#utility.yul\":19216:19255   */\n      tag_268\n      jump\t// in\n    tag_464:\n        /* \"#utility.yul\":19277:19368   */\n      tag_465\n        /* \"#utility.yul\":19326:19367   */\n      tag_466\n        /* \"#utility.yul\":19350:19366   */\n      dup3\n        /* \"#utility.yul\":19326:19367   */\n      tag_269\n      jump\t// in\n    tag_466:\n        /* \"#utility.yul\":19318:19324   */\n      dup5\n        /* \"#utility.yul\":19311:19315   */\n      dup5\n        /* \"#utility.yul\":19305:19316   */\n      sload\n        /* \"#utility.yul\":19277:19368   */\n      tag_266\n      jump\t// in\n    tag_465:\n        /* \"#utility.yul\":19271:19275   */\n      dup3\n        /* \"#utility.yul\":19264:19369   */\n      sstore\n        /* \"#utility.yul\":19182:19375   */\n      pop\n        /* \"#utility.yul\":19106:19375   */\n      pop\n      pop\n      pop\n      jump\t// out\n        /* \"#utility.yul\":19381:19454   */\n    tag_271:\n        /* \"#utility.yul\":19426:19429   */\n      0x00\n        /* \"#utility.yul\":19381:19454   */\n      swap1\n      jump\t// out\n        /* \"#utility.yul\":19460:19649   */\n    tag_272:\n        /* \"#utility.yul\":19537:19569   */\n      tag_469\n      tag_271\n      jump\t// in\n    tag_469:\n        /* \"#utility.yul\":19578:19643   */\n      tag_470\n        /* \"#utility.yul\":19636:19642   */\n      dup2\n        /* \"#utility.yul\":19628:19634   */\n      dup5\n        /* \"#utility.yul\":19622:19626   */\n      dup5\n        /* \"#utility.yul\":19578:19643   */\n      tag_270\n      jump\t// in\n    tag_470:\n        /* \"#utility.yul\":19513:19649   */\n      pop\n        /* \"#utility.yul\":19460:19649   */\n      pop\n      pop\n      jump\t// out\n        /* \"#utility.yul\":19655:19841   */\n    tag_273:\n        /* \"#utility.yul\":19715:19835   */\n    tag_472:\n        /* \"#utility.yul\":19732:19735   */\n      dup2\n        /* \"#utility.yul\":19725:19730   */\n      dup2\n        /* \"#utility.yul\":19722:19736   */\n      lt\n        /* \"#utility.yul\":19715:19835   */\n      iszero\n      tag_474\n      jumpi\n        /* \"#utility.yul\":19786:19825   */\n      tag_475\n        /* \"#utility.yul\":19823:19824   */\n      0x00\n        /* \"#utility.yul\":19816:19821   */\n      dup3\n        /* \"#utility.yul\":19786:19825   */\n      tag_272\n      jump\t// in\n    tag_475:\n        /* \"#utility.yul\":19759:19760   */\n      0x01\n        /* \"#utility.yul\":19752:19757   */\n      dup2\n        /* \"#utility.yul\":19748:19761   */\n      add\n        /* \"#utility.yul\":19739:19761   */\n      swap1\n      pop\n        /* \"#utility.yul\":19715:19835   */\n      jump(tag_472)\n    tag_474:\n        /* \"#utility.yul\":19655:19841   */\n      pop\n      pop\n      jump\t// out\n        /* \"#utility.yul\":19847:20390   */\n    tag_274:\n        /* \"#utility.yul\":19948:19950   */\n      0x1f\n        /* \"#utility.yul\":19943:19946   */\n      dup3\n        /* \"#utility.yul\":19940:19951   */\n      gt\n        /* \"#utility.yul\":19937:20383   */\n      iszero\n      tag_477\n      jumpi\n        /* \"#utility.yul\":19982:20020   */\n      tag_478\n        /* \"#utility.yul\":20014:20019   */\n      dup2\n        /* \"#utility.yul\":19982:20020   */\n      tag_263\n      jump\t// in\n    tag_478:\n        /* \"#utility.yul\":20066:20095   */\n      tag_479\n        /* \"#utility.yul\":20084:20094   */\n      dup5\n        /* \"#utility.yul\":20066:20095   */\n      tag_264\n      jump\t// in\n    tag_479:\n        /* \"#utility.yul\":20056:20064   */\n      dup2\n        /* \"#utility.yul\":20052:20096   */\n      add\n        /* \"#utility.yul\":20249:20251   */\n      0x20\n        /* \"#utility.yul\":20237:20247   */\n      dup6\n        /* \"#utility.yul\":20234:20252   */\n      lt\n        /* \"#utility.yul\":20231:20280   */\n      iszero\n      tag_480\n      jumpi\n        /* \"#utility.yul\":20270:20278   */\n      dup2\n        /* \"#utility.yul\":20255:20278   */\n      swap1\n      pop\n        /* \"#utility.yul\":20231:20280   */\n    tag_480:\n        /* \"#utility.yul\":20293:20373   */\n      tag_481\n        /* \"#utility.yul\":20349:20371   */\n      tag_482\n        /* \"#utility.yul\":20367:20370   */\n      dup6\n        /* \"#utility.yul\":20349:20371   */\n      tag_264\n      jump\t// in\n    tag_482:\n        /* \"#utility.yul\":20339:20347   */\n      dup4\n        /* \"#utility.yul\":20335:20372   */\n      add\n        /* \"#utility.yul\":20322:20333   */\n      dup3\n        /* \"#utility.yul\":20293:20373   */\n      tag_273\n      jump\t// in\n    tag_481:\n        /* \"#utility.yul\":19952:20383   */\n      pop\n      pop\n        /* \"#utility.yul\":19937:20383   */\n    tag_477:\n        /* \"#utility.yul\":19847:20390   */\n      pop\n      pop\n      pop\n      jump\t// out\n        /* \"#utility.yul\":20396:20513   */\n    tag_275:\n        /* \"#utility.yul\":20450:20458   */\n      0x00\n        /* \"#utility.yul\":20500:20505   */\n      dup3\n        /* \"#utility.yul\":20494:20498   */\n      dup3\n        /* \"#utility.yul\":20490:20506   */\n      shr\n        /* \"#utility.yul\":20469:20506   */\n      swap1\n      pop\n        /* \"#utility.yul\":20396:20513   */\n      swap3\n      swap2\n      pop\n      pop\n      jump\t// out\n        /* \"#utility.yul\":20519:20688   */\n    tag_276:\n        /* \"#utility.yul\":20563:20569   */\n      0x00\n        /* \"#utility.yul\":20596:20647   */\n      tag_485\n        /* \"#utility.yul\":20644:20645   */\n      0x00\n        /* \"#utility.yul\":20640:20646   */\n      not\n        /* \"#utility.yul\":20632:20637   */\n      dup5\n        /* \"#utility.yul\":20629:20630   */\n      0x08\n        /* \"#utility.yul\":20625:20638   */\n      mul\n        /* \"#utility.yul\":20596:20647   */\n      tag_275\n      jump\t// in\n    tag_485:\n        /* \"#utility.yul\":20592:20648   */\n      not\n        /* \"#utility.yul\":20677:20681   */\n      dup1\n        /* \"#utility.yul\":20671:20675   */\n      dup4\n        /* \"#utility.yul\":20667:20682   */\n      and\n        /* \"#utility.yul\":20657:20682   */\n      swap2\n      pop\n        /* \"#utility.yul\":20570:20688   */\n      pop\n        /* \"#utility.yul\":20519:20688   */\n      swap3\n      swap2\n      pop\n      pop\n      jump\t// out\n        /* \"#utility.yul\":20693:20988   */\n    tag_277:\n        /* \"#utility.yul\":20769:20773   */\n      0x00\n        /* \"#utility.yul\":20915:20944   */\n      tag_487\n        /* \"#utility.yul\":20940:20943   */\n      dup4\n        /* \"#utility.yul\":20934:20938   */\n      dup4\n        /* \"#utility.yul\":20915:20944   */\n      tag_276\n      jump\t// in\n    tag_487:\n        /* \"#utility.yul\":20907:20944   */\n      swap2\n      pop\n        /* \"#utility.yul\":20977:20980   */\n      dup3\n        /* \"#utility.yul\":20974:20975   */\n      0x02\n        /* \"#utility.yul\":20970:20981   */\n      mul\n        /* \"#utility.yul\":20964:20968   */\n      dup3\n        /* \"#utility.yul\":20961:20982   */\n      or\n        /* \"#utility.yul\":20953:20982   */\n      swap1\n      pop\n        /* \"#utility.yul\":20693:20988   */\n      swap3\n      swap2\n      pop\n      pop\n      jump\t// out\n        /* \"#utility.yul\":20993:22388   */\n    tag_188:\n        /* \"#utility.yul\":21110:21147   */\n      tag_489\n        /* \"#utility.yul\":21143:21146   */\n      dup3\n        /* \"#utility.yul\":21110:21147   */\n      tag_232\n      jump\t// in\n    tag_489:\n        /* \"#utility.yul\":21212:21230   */\n      0xffffffffffffffff\n        /* \"#utility.yul\":21204:21210   */\n      dup2\n        /* \"#utility.yul\":21201:21231   */\n      gt\n        /* \"#utility.yul\":21198:21254   */\n      iszero\n      tag_490\n      jumpi\n        /* \"#utility.yul\":21234:21252   */\n      tag_491\n      tag_262\n      jump\t// in\n    tag_491:\n        /* \"#utility.yul\":21198:21254   */\n    tag_490:\n        /* \"#utility.yul\":21278:21316   */\n      tag_492\n        /* \"#utility.yul\":21310:21314   */\n      dup3\n        /* \"#utility.yul\":21304:21315   */\n      sload\n        /* \"#utility.yul\":21278:21316   */\n      tag_79\n      jump\t// in\n    tag_492:\n        /* \"#utility.yul\":21363:21430   */\n      tag_493\n        /* \"#utility.yul\":21423:21429   */\n      dup3\n        /* \"#utility.yul\":21415:21421   */\n      dup3\n        /* \"#utility.yul\":21409:21413   */\n      dup6\n        /* \"#utility.yul\":21363:21430   */\n      tag_274\n      jump\t// in\n    tag_493:\n        /* \"#utility.yul\":21457:21458   */\n      0x00\n        /* \"#utility.yul\":21481:21485   */\n      0x20\n        /* \"#utility.yul\":21468:21485   */\n      swap1\n      pop\n        /* \"#utility.yul\":21513:21515   */\n      0x1f\n        /* \"#utility.yul\":21505:21511   */\n      dup4\n        /* \"#utility.yul\":21502:21516   */\n      gt\n        /* \"#utility.yul\":21530:21531   */\n      0x01\n        /* \"#utility.yul\":21525:22143   */\n      dup2\n      eq\n      tag_495\n      jumpi\n        /* \"#utility.yul\":22187:22188   */\n      0x00\n        /* \"#utility.yul\":22204:22210   */\n      dup5\n        /* \"#utility.yul\":22201:22278   */\n      iszero\n      tag_496\n      jumpi\n        /* \"#utility.yul\":22253:22262   */\n      dup3\n        /* \"#utility.yul\":22248:22251   */\n      dup8\n        /* \"#utility.yul\":22244:22263   */\n      add\n        /* \"#utility.yul\":22238:22264   */\n      mload\n        /* \"#utility.yul\":22229:22264   */\n      swap1\n      pop\n        /* \"#utility.yul\":22201:22278   */\n    tag_496:\n        /* \"#utility.yul\":22304:22371   */\n      tag_497\n        /* \"#utility.yul\":22364:22370   */\n      dup6\n        /* \"#utility.yul\":22357:22362   */\n      dup3\n        /* \"#utility.yul\":22304:22371   */\n      tag_277\n      jump\t// in\n    tag_497:\n        /* \"#utility.yul\":22298:22302   */\n      dup7\n        /* \"#utility.yul\":22291:22372   */\n      sstore\n        /* \"#utility.yul\":22160:22382   */\n      pop\n        /* \"#utility.yul\":21495:22382   */\n      jump(tag_494)\n        /* \"#utility.yul\":21525:22143   */\n    tag_495:\n        /* \"#utility.yul\":21577:21581   */\n      0x1f\n        /* \"#utility.yul\":21573:21582   */\n      not\n        /* \"#utility.yul\":21565:21571   */\n      dup5\n        /* \"#utility.yul\":21561:21583   */\n      and\n        /* \"#utility.yul\":21611:21648   */\n      tag_498\n        /* \"#utility.yul\":21643:21647   */\n      dup7\n        /* \"#utility.yul\":21611:21648   */\n      tag_263\n      jump\t// in\n    tag_498:\n        /* \"#utility.yul\":21670:21671   */\n      0x00\n        /* \"#utility.yul\":21684:21892   */\n    tag_499:\n        /* \"#utility.yul\":21698:21705   */\n      dup3\n        /* \"#utility.yul\":21695:21696   */\n      dup2\n        /* \"#utility.yul\":21692:21706   */\n      lt\n        /* \"#utility.yul\":21684:21892   */\n      iszero\n      tag_501\n      jumpi\n        /* \"#utility.yul\":21777:21786   */\n      dup5\n        /* \"#utility.yul\":21772:21775   */\n      dup10\n        /* \"#utility.yul\":21768:21787   */\n      add\n        /* \"#utility.yul\":21762:21788   */\n      mload\n        /* \"#utility.yul\":21754:21760   */\n      dup3\n        /* \"#utility.yul\":21747:21789   */\n      sstore\n        /* \"#utility.yul\":21828:21829   */\n      0x01\n        /* \"#utility.yul\":21820:21826   */\n      dup3\n        /* \"#utility.yul\":21816:21830   */\n      add\n        /* \"#utility.yul\":21806:21830   */\n      swap2\n      pop\n        /* \"#utility.yul\":21875:21877   */\n      0x20\n        /* \"#utility.yul\":21864:21873   */\n      dup6\n        /* \"#utility.yul\":21860:21878   */\n      add\n        /* \"#utility.yul\":21847:21878   */\n      swap5\n      pop\n        /* \"#utility.yul\":21721:21725   */\n      0x20\n        /* \"#utility.yul\":21718:21719   */\n      dup2\n        /* \"#utility.yul\":21714:21726   */\n      add\n        /* \"#utility.yul\":21709:21726   */\n      swap1\n      pop\n        /* \"#utility.yul\":21684:21892   */\n      jump(tag_499)\n    tag_501:\n        /* \"#utility.yul\":21920:21926   */\n      dup7\n        /* \"#utility.yul\":21911:21918   */\n      dup4\n        /* \"#utility.yul\":21908:21927   */\n      lt\n        /* \"#utility.yul\":21905:22084   */\n      iszero\n      tag_502\n      jumpi\n        /* \"#utility.yul\":21978:21987   */\n      dup5\n        /* \"#utility.yul\":21973:21976   */\n      dup10\n        /* \"#utility.yul\":21969:21988   */\n      add\n        /* \"#utility.yul\":21963:21989   */\n      mload\n        /* \"#utility.yul\":22021:22069   */\n      tag_503\n        /* \"#utility.yul\":22063:22067   */\n      0x1f\n        /* \"#utility.yul\":22055:22061   */\n      dup10\n        /* \"#utility.yul\":22051:22068   */\n      and\n        /* \"#utility.yul\":22040:22049   */\n      dup3\n        /* \"#utility.yul\":22021:22069   */\n      tag_276\n      jump\t// in\n    tag_503:\n        /* \"#utility.yul\":22013:22019   */\n      dup4\n        /* \"#utility.yul\":22006:22070   */\n      sstore\n        /* \"#utility.yul\":21928:22084   */\n      pop\n        /* \"#utility.yul\":21905:22084   */\n    tag_502:\n        /* \"#utility.yul\":22130:22131   */\n      0x01\n        /* \"#utility.yul\":22126:22127   */\n      0x02\n        /* \"#utility.yul\":22118:22124   */\n      dup9\n        /* \"#utility.yul\":22114:22128   */\n      mul\n        /* \"#utility.yul\":22110:22132   */\n      add\n        /* \"#utility.yul\":22104:22108   */\n      dup9\n        /* \"#utility.yul\":22097:22133   */\n      sstore\n        /* \"#utility.yul\":21532:22143   */\n      pop\n      pop\n      pop\n        /* \"#utility.yul\":21495:22382   */\n    tag_494:\n      pop\n        /* \"#utility.yul\":21085:22388   */\n      pop\n      pop\n      pop\n        /* \"#utility.yul\":20993:22388   */\n      pop\n      pop\n      jump\t// out\n        /* \"#utility.yul\":22394:22574   */\n    tag_278:\n        /* \"#utility.yul\":22442:22519   */\n      0x4e487b7100000000000000000000000000000000000000000000000000000000\n        /* \"#utility.yul\":22439:22440   */\n      0x00\n        /* \"#utility.yul\":22432:22520   */\n      mstore\n        /* \"#utility.yul\":22539:22543   */\n      0x12\n        /* \"#utility.yul\":22536:22537   */\n      0x04\n        /* \"#utility.yul\":22529:22544   */\n      mstore\n        /* \"#utility.yul\":22563:22567   */\n      0x24\n        /* \"#utility.yul\":22560:22561   */\n      0x00\n        /* \"#utility.yul\":22553:22568   */\n      revert\n        /* \"#utility.yul\":22580:22765   */\n    tag_205:\n        /* \"#utility.yul\":22620:22621   */\n      0x00\n        /* \"#utility.yul\":22637:22657   */\n      tag_506\n        /* \"#utility.yul\":22655:22656   */\n      dup3\n        /* \"#utility.yul\":22637:22657   */\n      tag_227\n      jump\t// in\n    tag_506:\n        /* \"#utility.yul\":22632:22657   */\n      swap2\n      pop\n        /* \"#utility.yul\":22671:22691   */\n      tag_507\n        /* \"#utility.yul\":22689:22690   */\n      dup4\n        /* \"#utility.yul\":22671:22691   */\n      tag_227\n      jump\t// in\n    tag_507:\n        /* \"#utility.yul\":22666:22691   */\n      swap3\n      pop\n        /* \"#utility.yul\":22710:22711   */\n      dup3\n        /* \"#utility.yul\":22700:22735   */\n      tag_508\n      jumpi\n        /* \"#utility.yul\":22715:22733   */\n      tag_509\n      tag_278\n      jump\t// in\n    tag_509:\n        /* \"#utility.yul\":22700:22735   */\n    tag_508:\n        /* \"#utility.yul\":22757:22758   */\n      dup3\n        /* \"#utility.yul\":22754:22755   */\n      dup3\n        /* \"#utility.yul\":22750:22759   */\n      div\n        /* \"#utility.yul\":22745:22759   */\n      swap1\n      pop\n        /* \"#utility.yul\":22580:22765   */\n      swap3\n      swap2\n      pop\n      pop\n      jump\t// out\n\n    auxdata: 0xa26469706673582212200ec3da605e1d2fad72e9aa78fa57d7b80c10665539e84c2c59638410493037cb64736f6c63430008120033\n}\n",
				"bytecode": {
					"linkReferences": {},
					"object": "608060405234801561001057600080fd5b5061239d806100206000396000f3fe6080604052600436106100865760003560e01c80638da5cb5b116100595780638da5cb5b1461012857806398968f1514610153578063a87430ba1461016f578063e1b5e055146101ac578063ee0fd7f9146101d557610086565b806305103ede1461008b57806336da4468146100a75780633d527883146100d257806366d0dc6714610111575b600080fd5b6100a560048036038101906100a09190611762565b6101fe565b005b3480156100b357600080fd5b506100bc610871565b6040516100c991906117c4565b60405180910390f35b3480156100de57600080fd5b506100f960048036038101906100f491906117df565b610897565b604051610108939291906118be565b60405180910390f35b34801561011d57600080fd5b50610126610966565b005b34801561013457600080fd5b5061013d6109fc565b60405161014a91906117c4565b60405180910390f35b61016d60048036038101906101689190611762565b610a20565b005b34801561017b57600080fd5b50610196600480360381019061019191906118fc565b611270565b6040516101a391906119a0565b60405180910390f35b3480156101b857600080fd5b506101d360048036038101906101ce9190611a20565b61129b565b005b3480156101e157600080fd5b506101fc60048036038101906101f79190611a94565b61149c565b005b60018381600281111561021457610213611929565b5b600260003373ffffffffffffffffffffffffffffffffffffffff1673ffffffffffffffffffffffffffffffffffffffff16815260200190815260200160002060000160009054906101000a900460ff16600281111561027657610275611929565b5b146102b6576040517f08c379a00000000000000000000000000000000000000000000000000000000081526004016102ad90611b42565b60405180910390fd5b8073ffffffffffffffffffffffffffffffffffffffff163373ffffffffffffffffffffffffffffffffffffffff1614610324576040517f08c379a000000000000000000000000000000000000000000000000000000000815260040161031b90611bfa565b60405180910390fd5b60008311610367576040517f08c379a000000000000000000000000000000000000000000000000000000000815260040161035e90611c8c565b60405180910390fd5b600360008673ffffffffffffffffffffffffffffffffffffffff1673ffffffffffffffffffffffffffffffffffffffff1681526020019081526020016000208054905084106103eb576040517f08c379a00000000000000000000000000000000000000000000000000000000081526004016103e290611cf8565b60405180910390fd5b6000806000600360008973ffffffffffffffffffffffffffffffffffffffff1673ffffffffffffffffffffffffffffffffffffffff168152602001908152602001600020878154811061044157610440611d18565b5b9060005260206000209060030201600201805461045d90611d76565b80601f016020809104026020016040519081016040528092919081815260200182805461048990611d76565b80156104d65780601f106104ab576101008083540402835291602001916104d6565b820191906000526020600020905b8154815290600101906020018083116104b957829003601f168201915b5050505050905060005b60036000600160009054906101000a900473ffffffffffffffffffffffffffffffffffffffff1673ffffffffffffffffffffffffffffffffffffffff1673ffffffffffffffffffffffffffffffffffffffff168152602001908152602001600020805490508110156108055760036000600160009054906101000a900473ffffffffffffffffffffffffffffffffffffffff1673ffffffffffffffffffffffffffffffffffffffff1673ffffffffffffffffffffffffffffffffffffffff16815260200190815260200160002081815481106105bf576105be611d18565b5b90600052602060002090600302016002016040516105dd9190611e4a565b60405180910390208280519060200120036107f25760036000600160009054906101000a900473ffffffffffffffffffffffffffffffffffffffff1673ffffffffffffffffffffffffffffffffffffffff1673ffffffffffffffffffffffffffffffffffffffff168152602001908152602001600020818154811061066557610664611d18565b5b9060005260206000209060030201600101549250670de0b6b3a7640000878461068e9190611e90565b6106989190611e90565b9350833410156106dd576040517f08c379a00000000000000000000000000000000000000000000000000000000081526004016106d490611f1e565b60405180910390fd5b8660036000600160009054906101000a900473ffffffffffffffffffffffffffffffffffffffff1673ffffffffffffffffffffffffffffffffffffffff1673ffffffffffffffffffffffffffffffffffffffff168152602001908152602001600020828154811061075157610750611d18565b5b906000526020600020906003020160000160008282546107719190611f3e565b9250508190555086600360008b73ffffffffffffffffffffffffffffffffffffffff1673ffffffffffffffffffffffffffffffffffffffff16815260200190815260200160002089815481106107ca576107c9611d18565b5b906000526020600020906003020160000160008282546107ea9190611f72565b925050819055505b80806107fd90611fa6565b9150506104e0565b5082341115610867576000833461081c9190611f3e565b90503373ffffffffffffffffffffffffffffffffffffffff166108fc829081150290604051600060405180830381858888f19350505050158015610864573d6000803e3d6000fd5b50505b5050505050505050565b600160009054906101000a900473ffffffffffffffffffffffffffffffffffffffff1681565b600360205281600052604060002081815481106108b357600080fd5b9060005260206000209060030201600091509150508060000154908060010154908060020180546108e390611d76565b80601f016020809104026020016040519081016040528092919081815260200182805461090f90611d76565b801561095c5780601f106109315761010080835404028352916020019161095c565b820191906000526020600020905b81548152906001019060200180831161093f57829003601f168201915b5050505050905083565b60405180602001604052806001600281111561098557610984611929565b5b815250600260003373ffffffffffffffffffffffffffffffffffffffff1673ffffffffffffffffffffffffffffffffffffffff16815260200190815260200160002060008201518160000160006101000a81548160ff021916908360028111156109f2576109f1611929565b5b0217905550905050565b60008054906101000a900473ffffffffffffffffffffffffffffffffffffffff1681565b60006002811115610a3457610a33611929565b5b600260003373ffffffffffffffffffffffffffffffffffffffff1673ffffffffffffffffffffffffffffffffffffffff16815260200190815260200160002060000160009054906101000a900460ff166002811115610a9657610a95611929565b5b03610b3057604051806020016040528060006002811115610aba57610ab9611929565b5b815250600260003373ffffffffffffffffffffffffffffffffffffffff1673ffffffffffffffffffffffffffffffffffffffff16815260200190815260200160002060008201518160000160006101000a81548160ff02191690836002811115610b2757610b26611929565b5b02179055509050505b60008211610b73576040517f08c379a0000000000000000000000000000000000000000000000000000000008152600401610b6a90611c8c565b60405180910390fd5b600360008473ffffffffffffffffffffffffffffffffffffffff1673ffffffffffffffffffffffffffffffffffffffff168152602001908152602001600020805490508110610bf7576040517f08c379a0000000000000000000000000000000000000000000000000000000008152600401610bee90611cf8565b60405180910390fd5b600360008473ffffffffffffffffffffffffffffffffffffffff1673ffffffffffffffffffffffffffffffffffffffff1681526020019081526020016000208181548110610c4857610c47611d18565b5b906000526020600020906003020160000154821115610c9c576040517f08c379a0000000000000000000000000000000000000000000000000000000008152600401610c939061203a565b60405180910390fd5b6000670de0b6b3a7640000600360008673ffffffffffffffffffffffffffffffffffffffff1673ffffffffffffffffffffffffffffffffffffffff1681526020019081526020016000208381548110610cf857610cf7611d18565b5b90600052602060002090600302016001015484610d159190611e90565b610d1f9190611e90565b905080341015610d64576040517f08c379a0000000000000000000000000000000000000000000000000000000008152600401610d5b90611f1e565b60405180910390fd5b6000805b600360003373ffffffffffffffffffffffffffffffffffffffff1673ffffffffffffffffffffffffffffffffffffffff16815260200190815260200160002080549050811015610f3a57600360008773ffffffffffffffffffffffffffffffffffffffff1673ffffffffffffffffffffffffffffffffffffffff1681526020019081526020016000208481548110610e0357610e02611d18565b5b9060005260206000209060030201600201604051610e219190611e4a565b6040518091039020600360003373ffffffffffffffffffffffffffffffffffffffff1673ffffffffffffffffffffffffffffffffffffffff1681526020019081526020016000208281548110610e7a57610e79611d18565b5b9060005260206000209060030201600201604051610e989190611e4a565b604051809103902003610f275784600360003373ffffffffffffffffffffffffffffffffffffffff1673ffffffffffffffffffffffffffffffffffffffff1681526020019081526020016000208281548110610ef757610ef6611d18565b5b90600052602060002090600302016000016000828254610f179190611f72565b9250508190555060019150610f3a565b8080610f3290611fa6565b915050610d68565b50806111425760006040518060600160405280868152602001600360008973ffffffffffffffffffffffffffffffffffffffff1673ffffffffffffffffffffffffffffffffffffffff1681526020019081526020016000208681548110610fa457610fa3611d18565b5b9060005260206000209060030201600101548152602001600360008973ffffffffffffffffffffffffffffffffffffffff1673ffffffffffffffffffffffffffffffffffffffff168152602001908152602001600020868154811061100c5761100b611d18565b5b9060005260206000209060030201600201805461102890611d76565b80601f016020809104026020016040519081016040528092919081815260200182805461105490611d76565b80156110a15780601f10611076576101008083540402835291602001916110a1565b820191906000526020600020905b81548152906001019060200180831161108457829003601f168201915b50505050508152509050600360003373ffffffffffffffffffffffffffffffffffffffff1673ffffffffffffffffffffffffffffffffffffffff1681526020019081526020016000208190806001815401808255809150506001900390600052602060002090600302016000909190919091506000820151816000015560208201518160010155604082015181600201908161113d9190612235565b505050505b83600360008773ffffffffffffffffffffffffffffffffffffffff1673ffffffffffffffffffffffffffffffffffffffff168152602001908152602001600020848154811061119457611193611d18565b5b906000526020600020906003020160000160008282546111b49190611f3e565b925050819055508134111561121c57600082346111d19190611f3e565b90503373ffffffffffffffffffffffffffffffffffffffff166108fc829081150290604051600060405180830381858888f19350505050158015611219573d6000803e3d6000fd5b50505b60004790508573ffffffffffffffffffffffffffffffffffffffff166108fc829081150290604051600060405180830381858888f19350505050158015611267573d6000803e3d6000fd5b50505050505050565b60026020528060005260406000206000915090508060000160009054906101000a900460ff16905081565b33600160006101000a81548173ffffffffffffffffffffffffffffffffffffffff021916908373ffffffffffffffffffffffffffffffffffffffff16021790555060405180602001604052806002808111156112fa576112f9611929565b5b81525060026000600160009054906101000a900473ffffffffffffffffffffffffffffffffffffffff1673ffffffffffffffffffffffffffffffffffffffff1673ffffffffffffffffffffffffffffffffffffffff16815260200190815260200160002060008201518160000160006101000a81548160ff0219169083600281111561138957611388611929565b5b0217905550905050600060405180606001604052808681526020016002866113b19190612336565b815260200184848080601f016020809104026020016040519081016040528093929190818152602001838380828437600081840152601f19601f820116905080830192505050505050508152509050600360003373ffffffffffffffffffffffffffffffffffffffff1673ffffffffffffffffffffffffffffffffffffffff168152602001908152602001600020819080600181540180825580915050600190039060005260206000209060030201600090919091909150600082015181600001556020820151816001015560408201518160020190816114929190612235565b5050505050505050565b6001858160028111156114b2576114b1611929565b5b600260003373ffffffffffffffffffffffffffffffffffffffff1673ffffffffffffffffffffffffffffffffffffffff16815260200190815260200160002060000160009054906101000a900460ff16600281111561151457611513611929565b5b14611554576040517f08c379a000000000000000000000000000000000000000000000000000000000815260040161154b90611b42565b60405180910390fd5b8073ffffffffffffffffffffffffffffffffffffffff163373ffffffffffffffffffffffffffffffffffffffff16146115c2576040517f08c379a00000000000000000000000000000000000000000000000000000000081526004016115b990611bfa565b60405180910390fd5b6000604051806060016040528088815260200187815260200186868080601f016020809104026020016040519081016040528093929190818152602001838380828437600081840152601f19601f820116905080830192505050505050508152509050600360008973ffffffffffffffffffffffffffffffffffffffff1673ffffffffffffffffffffffffffffffffffffffff168152602001908152602001600020819080600181540180825580915050600190039060005260206000209060030201600090919091909150600082015181600001556020820151816001015560408201518160020190816116b79190612235565b5050505050505050505050565b600080fd5b600080fd5b600073ffffffffffffffffffffffffffffffffffffffff82169050919050565b60006116f9826116ce565b9050919050565b611709816116ee565b811461171457600080fd5b50565b60008135905061172681611700565b92915050565b6000819050919050565b61173f8161172c565b811461174a57600080fd5b50565b60008135905061175c81611736565b92915050565b60008060006060848603121561177b5761177a6116c4565b5b600061178986828701611717565b935050602061179a8682870161174d565b92505060406117ab8682870161174d565b9150509250925092565b6117be816116ee565b82525050565b60006020820190506117d960008301846117b5565b92915050565b600080604083850312156117f6576117f56116c4565b5b600061180485828601611717565b92505060206118158582860161174d565b9150509250929050565b6118288161172c565b82525050565b600081519050919050565b600082825260208201905092915050565b60005b8381101561186857808201518184015260208101905061184d565b60008484015250505050565b6000601f19601f8301169050919050565b60006118908261182e565b61189a8185611839565b93506118aa81856020860161184a565b6118b381611874565b840191505092915050565b60006060820190506118d3600083018661181f565b6118e0602083018561181f565b81810360408301526118f28184611885565b9050949350505050565b600060208284031215611912576119116116c4565b5b600061192084828501611717565b91505092915050565b7f4e487b7100000000000000000000000000000000000000000000000000000000600052602160045260246000fd5b6003811061196957611968611929565b5b50565b600081905061197a82611958565b919050565b600061198a8261196c565b9050919050565b61199a8161197f565b82525050565b60006020820190506119b56000830184611991565b92915050565b600080fd5b600080fd5b600080fd5b60008083601f8401126119e0576119df6119bb565b5b8235905067ffffffffffffffff8111156119fd576119fc6119c0565b5b602083019150836001820283011115611a1957611a186119c5565b5b9250929050565b60008060008060608587031215611a3a57611a396116c4565b5b6000611a488782880161174d565b9450506020611a598782880161174d565b935050604085013567ffffffffffffffff811115611a7a57611a796116c9565b5b611a86878288016119ca565b925092505092959194509250565b600080600080600060808688031215611ab057611aaf6116c4565b5b6000611abe88828901611717565b9550506020611acf8882890161174d565b9450506040611ae08882890161174d565b935050606086013567ffffffffffffffff811115611b0157611b006116c9565b5b611b0d888289016119ca565b92509250509295509295909350565b50565b6000611b2c600083611839565b9150611b3782611b1c565b600082019050919050565b60006020820190508181036000830152611b5b81611b1f565b9050919050565b7fd09cd0b0d0b3d0b0d0b7d0b8d0bd20d0bdd0b520d181d0bed0bed182d0b2d0b560008201527fd182d181d0b2d183d0b5d18220d0bed182d0bfd180d0b0d0b2d0b8d182d0b5d060208201527fbbd18e0000000000000000000000000000000000000000000000000000000000604082015250565b6000611be4604383611839565b9150611bef82611b62565b606082019050919050565b60006020820190508181036000830152611c1381611bd7565b9050919050565b7f507572636861736520616d6f756e74206d75737420626520677265617465722060008201527f7468616e20300000000000000000000000000000000000000000000000000000602082015250565b6000611c76602683611839565b9150611c8182611c1a565b604082019050919050565b60006020820190508181036000830152611ca581611c69565b9050919050565b7f496e76616c69642070726f647563742049440000000000000000000000000000600082015250565b6000611ce2601283611839565b9150611ced82611cac565b602082019050919050565b60006020820190508181036000830152611d1181611cd5565b9050919050565b7f4e487b7100000000000000000000000000000000000000000000000000000000600052603260045260246000fd5b7f4e487b7100000000000000000000000000000000000000000000000000000000600052602260045260246000fd5b60006002820490506001821680611d8e57607f821691505b602082108103611da157611da0611d47565b5b50919050565b600081905092915050565b60008190508160005260206000209050919050565b60008154611dd481611d76565b611dde8186611da7565b94506001821660008114611df95760018114611e0e57611e41565b60ff1983168652811515820286019350611e41565b611e1785611db2565b60005b83811015611e3957815481890152600182019150602081019050611e1a565b838801955050505b50505092915050565b6000611e568284611dc7565b915081905092915050565b7f4e487b7100000000000000000000000000000000000000000000000000000000600052601160045260246000fd5b6000611e9b8261172c565b9150611ea68361172c565b9250828202611eb48161172c565b91508282048414831517611ecb57611eca611e61565b5b5092915050565b7f496e73756666696369656e742066756e64732073656e74000000000000000000600082015250565b6000611f08601783611839565b9150611f1382611ed2565b602082019050919050565b60006020820190508181036000830152611f3781611efb565b9050919050565b6000611f498261172c565b9150611f548361172c565b9250828203905081811115611f6c57611f6b611e61565b5b92915050565b6000611f7d8261172c565b9150611f888361172c565b9250828201905080821115611fa057611f9f611e61565b5b92915050565b6000611fb18261172c565b91507fffffffffffffffffffffffffffffffffffffffffffffffffffffffffffffffff8203611fe357611fe2611e61565b5b600182019050919050565b7f4e6f7420656e6f7567682073746f636b20617661696c61626c65000000000000600082015250565b6000612024601a83611839565b915061202f82611fee565b602082019050919050565b6000602082019050818103600083015261205381612017565b9050919050565b7f4e487b7100000000000000000000000000000000000000000000000000000000600052604160045260246000fd5b60008190508160005260206000209050919050565b60006020601f8301049050919050565b600082821b905092915050565b6000600883026120eb7fffffffffffffffffffffffffffffffffffffffffffffffffffffffffffffffff826120ae565b6120f586836120ae565b95508019841693508086168417925050509392505050565b6000819050919050565b600061213261212d6121288461172c565b61210d565b61172c565b9050919050565b6000819050919050565b61214c83612117565b61216061215882612139565b8484546120bb565b825550505050565b600090565b612175612168565b612180818484612143565b505050565b5b818110156121a45761219960008261216d565b600181019050612186565b5050565b601f8211156121e9576121ba81612089565b6121c38461209e565b810160208510156121d2578190505b6121e66121de8561209e565b830182612185565b50505b505050565b600082821c905092915050565b600061220c600019846008026121ee565b1980831691505092915050565b600061222583836121fb565b9150826002028217905092915050565b61223e8261182e565b67ffffffffffffffff8111156122575761225661205a565b5b6122618254611d76565b61226c8282856121a8565b600060209050601f83116001811461229f576000841561228d578287015190505b6122978582612219565b8655506122ff565b601f1984166122ad86612089565b60005b828110156122d5578489015182556001820191506020850194506020810190506122b0565b868310156122f257848901516122ee601f8916826121fb565b8355505b6001600288020188555050505b505050505050565b7f4e487b7100000000000000000000000000000000000000000000000000000000600052601260045260246000fd5b60006123418261172c565b915061234c8361172c565b92508261235c5761235b612307565b5b82820490509291505056fea26469706673582212200ec3da605e1d2fad72e9aa78fa57d7b80c10665539e84c2c59638410493037cb64736f6c63430008120033",
					"opcodes": "PUSH1 0x80 PUSH1 0x40 MSTORE CALLVALUE DUP1 ISZERO PUSH2 0x10 JUMPI PUSH1 0x0 DUP1 REVERT JUMPDEST POP PUSH2 0x239D DUP1 PUSH2 0x20 PUSH1 0x0 CODECOPY PUSH1 0x0 RETURN INVALID PUSH1 0x80 PUSH1 0x40 MSTORE PUSH1 0x4 CALLDATASIZE LT PUSH2 0x86 JUMPI PUSH1 0x0 CALLDATALOAD PUSH1 0xE0 SHR DUP1 PUSH4 0x8DA5CB5B GT PUSH2 0x59 JUMPI DUP1 PUSH4 0x8DA5CB5B EQ PUSH2 0x128 JUMPI DUP1 PUSH4 0x98968F15 EQ PUSH2 0x153 JUMPI DUP1 PUSH4 0xA87430BA EQ PUSH2 0x16F JUMPI DUP1 PUSH4 0xE1B5E055 EQ PUSH2 0x1AC JUMPI DUP1 PUSH4 0xEE0FD7F9 EQ PUSH2 0x1D5 JUMPI PUSH2 0x86 JUMP JUMPDEST DUP1 PUSH4 0x5103EDE EQ PUSH2 0x8B JUMPI DUP1 PUSH4 0x36DA4468 EQ PUSH2 0xA7 JUMPI DUP1 PUSH4 0x3D527883 EQ PUSH2 0xD2 JUMPI DUP1 PUSH4 0x66D0DC67 EQ PUSH2 0x111 JUMPI JUMPDEST PUSH1 0x0 DUP1 REVERT JUMPDEST PUSH2 0xA5 PUSH1 0x4 DUP1 CALLDATASIZE SUB DUP2 ADD SWAP1 PUSH2 0xA0 SWAP2 SWAP1 PUSH2 0x1762 JUMP JUMPDEST PUSH2 0x1FE JUMP JUMPDEST STOP JUMPDEST CALLVALUE DUP1 ISZERO PUSH2 0xB3 JUMPI PUSH1 0x0 DUP1 REVERT JUMPDEST POP PUSH2 0xBC PUSH2 0x871 JUMP JUMPDEST PUSH1 0x40 MLOAD PUSH2 0xC9 SWAP2 SWAP1 PUSH2 0x17C4 JUMP JUMPDEST PUSH1 0x40 MLOAD DUP1 SWAP2 SUB SWAP1 RETURN JUMPDEST CALLVALUE DUP1 ISZERO PUSH2 0xDE JUMPI PUSH1 0x0 DUP1 REVERT JUMPDEST POP PUSH2 0xF9 PUSH1 0x4 DUP1 CALLDATASIZE SUB DUP2 ADD SWAP1 PUSH2 0xF4 SWAP2 SWAP1 PUSH2 0x17DF JUMP JUMPDEST PUSH2 0x897 JUMP JUMPDEST PUSH1 0x40 MLOAD PUSH2 0x108 SWAP4 SWAP3 SWAP2 SWAP1 PUSH2 0x18BE JUMP JUMPDEST PUSH1 0x40 MLOAD DUP1 SWAP2 SUB SWAP1 RETURN JUMPDEST CALLVALUE DUP1 ISZERO PUSH2 0x11D JUMPI PUSH1 0x0 DUP1 REVERT JUMPDEST POP PUSH2 0x126 PUSH2 0x966 JUMP JUMPDEST STOP JUMPDEST CALLVALUE DUP1 ISZERO PUSH2 0x134 JUMPI PUSH1 0x0 DUP1 REVERT JUMPDEST POP PUSH2 0x13D PUSH2 0x9FC JUMP JUMPDEST PUSH1 0x40 MLOAD PUSH2 0x14A SWAP2 SWAP1 PUSH2 0x17C4 JUMP JUMPDEST PUSH1 0x40 MLOAD DUP1 SWAP2 SUB SWAP1 RETURN JUMPDEST PUSH2 0x16D PUSH1 0x4 DUP1 CALLDATASIZE SUB DUP2 ADD SWAP1 PUSH2 0x168 SWAP2 SWAP1 PUSH2 0x1762 JUMP JUMPDEST PUSH2 0xA20 JUMP JUMPDEST STOP JUMPDEST CALLVALUE DUP1 ISZERO PUSH2 0x17B JUMPI PUSH1 0x0 DUP1 REVERT JUMPDEST POP PUSH2 0x196 PUSH1 0x4 DUP1 CALLDATASIZE SUB DUP2 ADD SWAP1 PUSH2 0x191 SWAP2 SWAP1 PUSH2 0x18FC JUMP JUMPDEST PUSH2 0x1270 JUMP JUMPDEST PUSH1 0x40 MLOAD PUSH2 0x1A3 SWAP2 SWAP1 PUSH2 0x19A0 JUMP JUMPDEST PUSH1 0x40 MLOAD DUP1 SWAP2 SUB SWAP1 RETURN JUMPDEST CALLVALUE DUP1 ISZERO PUSH2 0x1B8 JUMPI PUSH1 0x0 DUP1 REVERT JUMPDEST POP PUSH2 0x1D3 PUSH1 0x4 DUP1 CALLDATASIZE SUB DUP2 ADD SWAP1 PUSH2 0x1CE SWAP2 SWAP1 PUSH2 0x1A20 JUMP JUMPDEST PUSH2 0x129B JUMP JUMPDEST STOP JUMPDEST CALLVALUE DUP1 ISZERO PUSH2 0x1E1 JUMPI PUSH1 0x0 DUP1 REVERT JUMPDEST POP PUSH2 0x1FC PUSH1 0x4 DUP1 CALLDATASIZE SUB DUP2 ADD SWAP1 PUSH2 0x1F7 SWAP2 SWAP1 PUSH2 0x1A94 JUMP JUMPDEST PUSH2 0x149C JUMP JUMPDEST STOP JUMPDEST PUSH1 0x1 DUP4 DUP2 PUSH1 0x2 DUP2 GT ISZERO PUSH2 0x214 JUMPI PUSH2 0x213 PUSH2 0x1929 JUMP JUMPDEST JUMPDEST PUSH1 0x2 PUSH1 0x0 CALLER PUSH20 0xFFFFFFFFFFFFFFFFFFFFFFFFFFFFFFFFFFFFFFFF AND PUSH20 0xFFFFFFFFFFFFFFFFFFFFFFFFFFFFFFFFFFFFFFFF AND DUP2 MSTORE PUSH1 0x20 ADD SWAP1 DUP2 MSTORE PUSH1 0x20 ADD PUSH1 0x0 KECCAK256 PUSH1 0x0 ADD PUSH1 0x0 SWAP1 SLOAD SWAP1 PUSH2 0x100 EXP SWAP1 DIV PUSH1 0xFF AND PUSH1 0x2 DUP2 GT ISZERO PUSH2 0x276 JUMPI PUSH2 0x275 PUSH2 0x1929 JUMP JUMPDEST JUMPDEST EQ PUSH2 0x2B6 JUMPI PUSH1 0x40 MLOAD PUSH32 0x8C379A000000000000000000000000000000000000000000000000000000000 DUP2 MSTORE PUSH1 0x4 ADD PUSH2 0x2AD SWAP1 PUSH2 0x1B42 JUMP JUMPDEST PUSH1 0x40 MLOAD DUP1 SWAP2 SUB SWAP1 REVERT JUMPDEST DUP1 PUSH20 0xFFFFFFFFFFFFFFFFFFFFFFFFFFFFFFFFFFFFFFFF AND CALLER PUSH20 0xFFFFFFFFFFFFFFFFFFFFFFFFFFFFFFFFFFFFFFFF AND EQ PUSH2 0x324 JUMPI PUSH1 0x40 MLOAD PUSH32 0x8C379A000000000000000000000000000000000000000000000000000000000 DUP2 MSTORE PUSH1 0x4 ADD PUSH2 0x31B SWAP1 PUSH2 0x1BFA JUMP JUMPDEST PUSH1 0x40 MLOAD DUP1 SWAP2 SUB SWAP1 REVERT JUMPDEST PUSH1 0x0 DUP4 GT PUSH2 0x367 JUMPI PUSH1 0x40 MLOAD PUSH32 0x8C379A000000000000000000000000000000000000000000000000000000000 DUP2 MSTORE PUSH1 0x4 ADD PUSH2 0x35E SWAP1 PUSH2 0x1C8C JUMP JUMPDEST PUSH1 0x40 MLOAD DUP1 SWAP2 SUB SWAP1 REVERT JUMPDEST PUSH1 0x3 PUSH1 0x0 DUP7 PUSH20 0xFFFFFFFFFFFFFFFFFFFFFFFFFFFFFFFFFFFFFFFF AND PUSH20 0xFFFFFFFFFFFFFFFFFFFFFFFFFFFFFFFFFFFFFFFF AND DUP2 MSTORE PUSH1 0x20 ADD SWAP1 DUP2 MSTORE PUSH1 0x20 ADD PUSH1 0x0 KECCAK256 DUP1 SLOAD SWAP1 POP DUP5 LT PUSH2 0x3EB JUMPI PUSH1 0x40 MLOAD PUSH32 0x8C379A000000000000000000000000000000000000000000000000000000000 DUP2 MSTORE PUSH1 0x4 ADD PUSH2 0x3E2 SWAP1 PUSH2 0x1CF8 JUMP JUMPDEST PUSH1 0x40 MLOAD DUP1 SWAP2 SUB SWAP1 REVERT JUMPDEST PUSH1 0x0 DUP1 PUSH1 0x0 PUSH1 0x3 PUSH1 0x0 DUP10 PUSH20 0xFFFFFFFFFFFFFFFFFFFFFFFFFFFFFFFFFFFFFFFF AND PUSH20 0xFFFFFFFFFFFFFFFFFFFFFFFFFFFFFFFFFFFFFFFF AND DUP2 MSTORE PUSH1 0x20 ADD SWAP1 DUP2 MSTORE PUSH1 0x20 ADD PUSH1 0x0 KECCAK256 DUP8 DUP2 SLOAD DUP2 LT PUSH2 0x441 JUMPI PUSH2 0x440 PUSH2 0x1D18 JUMP JUMPDEST JUMPDEST SWAP1 PUSH1 0x0 MSTORE PUSH1 0x20 PUSH1 0x0 KECCAK256 SWAP1 PUSH1 0x3 MUL ADD PUSH1 0x2 ADD DUP1 SLOAD PUSH2 0x45D SWAP1 PUSH2 0x1D76 JUMP JUMPDEST DUP1 PUSH1 0x1F ADD PUSH1 0x20 DUP1 SWAP2 DIV MUL PUSH1 0x20 ADD PUSH1 0x40 MLOAD SWAP1 DUP2 ADD PUSH1 0x40 MSTORE DUP1 SWAP3 SWAP2 SWAP1 DUP2 DUP2 MSTORE PUSH1 0x20 ADD DUP3 DUP1 SLOAD PUSH2 0x489 SWAP1 PUSH2 0x1D76 JUMP JUMPDEST DUP1 ISZERO PUSH2 0x4D6 JUMPI DUP1 PUSH1 0x1F LT PUSH2 0x4AB JUMPI PUSH2 0x100 DUP1 DUP4 SLOAD DIV MUL DUP4 MSTORE SWAP2 PUSH1 0x20 ADD SWAP2 PUSH2 0x4D6 JUMP JUMPDEST DUP3 ADD SWAP2 SWAP1 PUSH1 0x0 MSTORE PUSH1 0x20 PUSH1 0x0 KECCAK256 SWAP1 JUMPDEST DUP2 SLOAD DUP2 MSTORE SWAP1 PUSH1 0x1 ADD SWAP1 PUSH1 0x20 ADD DUP1 DUP4 GT PUSH2 0x4B9 JUMPI DUP3 SWAP1 SUB PUSH1 0x1F AND DUP3 ADD SWAP2 JUMPDEST POP POP POP POP POP SWAP1 POP PUSH1 0x0 JUMPDEST PUSH1 0x3 PUSH1 0x0 PUSH1 0x1 PUSH1 0x0 SWAP1 SLOAD SWAP1 PUSH2 0x100 EXP SWAP1 DIV PUSH20 0xFFFFFFFFFFFFFFFFFFFFFFFFFFFFFFFFFFFFFFFF AND PUSH20 0xFFFFFFFFFFFFFFFFFFFFFFFFFFFFFFFFFFFFFFFF AND PUSH20 0xFFFFFFFFFFFFFFFFFFFFFFFFFFFFFFFFFFFFFFFF AND DUP2 MSTORE PUSH1 0x20 ADD SWAP1 DUP2 MSTORE PUSH1 0x20 ADD PUSH1 0x0 KECCAK256 DUP1 SLOAD SWAP1 POP DUP2 LT ISZERO PUSH2 0x805 JUMPI PUSH1 0x3 PUSH1 0x0 PUSH1 0x1 PUSH1 0x0 SWAP1 SLOAD SWAP1 PUSH2 0x100 EXP SWAP1 DIV PUSH20 0xFFFFFFFFFFFFFFFFFFFFFFFFFFFFFFFFFFFFFFFF AND PUSH20 0xFFFFFFFFFFFFFFFFFFFFFFFFFFFFFFFFFFFFFFFF AND PUSH20 0xFFFFFFFFFFFFFFFFFFFFFFFFFFFFFFFFFFFFFFFF AND DUP2 MSTORE PUSH1 0x20 ADD SWAP1 DUP2 MSTORE PUSH1 0x20 ADD PUSH1 0x0 KECCAK256 DUP2 DUP2 SLOAD DUP2 LT PUSH2 0x5BF JUMPI PUSH2 0x5BE PUSH2 0x1D18 JUMP JUMPDEST JUMPDEST SWAP1 PUSH1 0x0 MSTORE PUSH1 0x20 PUSH1 0x0 KECCAK256 SWAP1 PUSH1 0x3 MUL ADD PUSH1 0x2 ADD PUSH1 0x40 MLOAD PUSH2 0x5DD SWAP2 SWAP1 PUSH2 0x1E4A JUMP JUMPDEST PUSH1 0x40 MLOAD DUP1 SWAP2 SUB SWAP1 KECCAK256 DUP3 DUP1 MLOAD SWAP1 PUSH1 0x20 ADD KECCAK256 SUB PUSH2 0x7F2 JUMPI PUSH1 0x3 PUSH1 0x0 PUSH1 0x1 PUSH1 0x0 SWAP1 SLOAD SWAP1 PUSH2 0x100 EXP SWAP1 DIV PUSH20 0xFFFFFFFFFFFFFFFFFFFFFFFFFFFFFFFFFFFFFFFF AND PUSH20 0xFFFFFFFFFFFFFFFFFFFFFFFFFFFFFFFFFFFFFFFF AND PUSH20 0xFFFFFFFFFFFFFFFFFFFFFFFFFFFFFFFFFFFFFFFF AND DUP2 MSTORE PUSH1 0x20 ADD SWAP1 DUP2 MSTORE PUSH1 0x20 ADD PUSH1 0x0 KECCAK256 DUP2 DUP2 SLOAD DUP2 LT PUSH2 0x665 JUMPI PUSH2 0x664 PUSH2 0x1D18 JUMP JUMPDEST JUMPDEST SWAP1 PUSH1 0x0 MSTORE PUSH1 0x20 PUSH1 0x0 KECCAK256 SWAP1 PUSH1 0x3 MUL ADD PUSH1 0x1 ADD SLOAD SWAP3 POP PUSH8 0xDE0B6B3A7640000 DUP8 DUP5 PUSH2 0x68E SWAP2 SWAP1 PUSH2 0x1E90 JUMP JUMPDEST PUSH2 0x698 SWAP2 SWAP1 PUSH2 0x1E90 JUMP JUMPDEST SWAP4 POP DUP4 CALLVALUE LT ISZERO PUSH2 0x6DD JUMPI PUSH1 0x40 MLOAD PUSH32 0x8C379A000000000000000000000000000000000000000000000000000000000 DUP2 MSTORE PUSH1 0x4 ADD PUSH2 0x6D4 SWAP1 PUSH2 0x1F1E JUMP JUMPDEST PUSH1 0x40 MLOAD DUP1 SWAP2 SUB SWAP1 REVERT JUMPDEST DUP7 PUSH1 0x3 PUSH1 0x0 PUSH1 0x1 PUSH1 0x0 SWAP1 SLOAD SWAP1 PUSH2 0x100 EXP SWAP1 DIV PUSH20 0xFFFFFFFFFFFFFFFFFFFFFFFFFFFFFFFFFFFFFFFF AND PUSH20 0xFFFFFFFFFFFFFFFFFFFFFFFFFFFFFFFFFFFFFFFF AND PUSH20 0xFFFFFFFFFFFFFFFFFFFFFFFFFFFFFFFFFFFFFFFF AND DUP2 MSTORE PUSH1 0x20 ADD SWAP1 DUP2 MSTORE PUSH1 0x20 ADD PUSH1 0x0 KECCAK256 DUP3 DUP2 SLOAD DUP2 LT PUSH2 0x751 JUMPI PUSH2 0x750 PUSH2 0x1D18 JUMP JUMPDEST JUMPDEST SWAP1 PUSH1 0x0 MSTORE PUSH1 0x20 PUSH1 0x0 KECCAK256 SWAP1 PUSH1 0x3 MUL ADD PUSH1 0x0 ADD PUSH1 0x0 DUP3 DUP3 SLOAD PUSH2 0x771 SWAP2 SWAP1 PUSH2 0x1F3E JUMP JUMPDEST SWAP3 POP POP DUP2 SWAP1 SSTORE POP DUP7 PUSH1 0x3 PUSH1 0x0 DUP12 PUSH20 0xFFFFFFFFFFFFFFFFFFFFFFFFFFFFFFFFFFFFFFFF AND PUSH20 0xFFFFFFFFFFFFFFFFFFFFFFFFFFFFFFFFFFFFFFFF AND DUP2 MSTORE PUSH1 0x20 ADD SWAP1 DUP2 MSTORE PUSH1 0x20 ADD PUSH1 0x0 KECCAK256 DUP10 DUP2 SLOAD DUP2 LT PUSH2 0x7CA JUMPI PUSH2 0x7C9 PUSH2 0x1D18 JUMP JUMPDEST JUMPDEST SWAP1 PUSH1 0x0 MSTORE PUSH1 0x20 PUSH1 0x0 KECCAK256 SWAP1 PUSH1 0x3 MUL ADD PUSH1 0x0 ADD PUSH1 0x0 DUP3 DUP3 SLOAD PUSH2 0x7EA SWAP2 SWAP1 PUSH2 0x1F72 JUMP JUMPDEST SWAP3 POP POP DUP2 SWAP1 SSTORE POP JUMPDEST DUP1 DUP1 PUSH2 0x7FD SWAP1 PUSH2 0x1FA6 JUMP JUMPDEST SWAP2 POP POP PUSH2 0x4E0 JUMP JUMPDEST POP DUP3 CALLVALUE GT ISZERO PUSH2 0x867 JUMPI PUSH1 0x0 DUP4 CALLVALUE PUSH2 0x81C SWAP2 SWAP1 PUSH2 0x1F3E JUMP JUMPDEST SWAP1 POP CALLER PUSH20 0xFFFFFFFFFFFFFFFFFFFFFFFFFFFFFFFFFFFFFFFF AND PUSH2 0x8FC DUP3 SWAP1 DUP2 ISZERO MUL SWAP1 PUSH1 0x40 MLOAD PUSH1 0x0 PUSH1 0x40 MLOAD DUP1 DUP4 SUB DUP2 DUP6 DUP9 DUP9 CALL SWAP4 POP POP POP POP ISZERO DUP1 ISZERO PUSH2 0x864 JUMPI RETURNDATASIZE PUSH1 0x0 DUP1 RETURNDATACOPY RETURNDATASIZE PUSH1 0x0 REVERT JUMPDEST POP POP JUMPDEST POP POP POP POP POP POP POP POP JUMP JUMPDEST PUSH1 0x1 PUSH1 0x0 SWAP1 SLOAD SWAP1 PUSH2 0x100 EXP SWAP1 DIV PUSH20 0xFFFFFFFFFFFFFFFFFFFFFFFFFFFFFFFFFFFFFFFF AND DUP2 JUMP JUMPDEST PUSH1 0x3 PUSH1 0x20 MSTORE DUP2 PUSH1 0x0 MSTORE PUSH1 0x40 PUSH1 0x0 KECCAK256 DUP2 DUP2 SLOAD DUP2 LT PUSH2 0x8B3 JUMPI PUSH1 0x0 DUP1 REVERT JUMPDEST SWAP1 PUSH1 0x0 MSTORE PUSH1 0x20 PUSH1 0x0 KECCAK256 SWAP1 PUSH1 0x3 MUL ADD PUSH1 0x0 SWAP2 POP SWAP2 POP POP DUP1 PUSH1 0x0 ADD SLOAD SWAP1 DUP1 PUSH1 0x1 ADD SLOAD SWAP1 DUP1 PUSH1 0x2 ADD DUP1 SLOAD PUSH2 0x8E3 SWAP1 PUSH2 0x1D76 JUMP JUMPDEST DUP1 PUSH1 0x1F ADD PUSH1 0x20 DUP1 SWAP2 DIV MUL PUSH1 0x20 ADD PUSH1 0x40 MLOAD SWAP1 DUP2 ADD PUSH1 0x40 MSTORE DUP1 SWAP3 SWAP2 SWAP1 DUP2 DUP2 MSTORE PUSH1 0x20 ADD DUP3 DUP1 SLOAD PUSH2 0x90F SWAP1 PUSH2 0x1D76 JUMP JUMPDEST DUP1 ISZERO PUSH2 0x95C JUMPI DUP1 PUSH1 0x1F LT PUSH2 0x931 JUMPI PUSH2 0x100 DUP1 DUP4 SLOAD DIV MUL DUP4 MSTORE SWAP2 PUSH1 0x20 ADD SWAP2 PUSH2 0x95C JUMP JUMPDEST DUP3 ADD SWAP2 SWAP1 PUSH1 0x0 MSTORE PUSH1 0x20 PUSH1 0x0 KECCAK256 SWAP1 JUMPDEST DUP2 SLOAD DUP2 MSTORE SWAP1 PUSH1 0x1 ADD SWAP1 PUSH1 0x20 ADD DUP1 DUP4 GT PUSH2 0x93F JUMPI DUP3 SWAP1 SUB PUSH1 0x1F AND DUP3 ADD SWAP2 JUMPDEST POP POP POP POP POP SWAP1 POP DUP4 JUMP JUMPDEST PUSH1 0x40 MLOAD DUP1 PUSH1 0x20 ADD PUSH1 0x40 MSTORE DUP1 PUSH1 0x1 PUSH1 0x2 DUP2 GT ISZERO PUSH2 0x985 JUMPI PUSH2 0x984 PUSH2 0x1929 JUMP JUMPDEST JUMPDEST DUP2 MSTORE POP PUSH1 0x2 PUSH1 0x0 CALLER PUSH20 0xFFFFFFFFFFFFFFFFFFFFFFFFFFFFFFFFFFFFFFFF AND PUSH20 0xFFFFFFFFFFFFFFFFFFFFFFFFFFFFFFFFFFFFFFFF AND DUP2 MSTORE PUSH1 0x20 ADD SWAP1 DUP2 MSTORE PUSH1 0x20 ADD PUSH1 0x0 KECCAK256 PUSH1 0x0 DUP3 ADD MLOAD DUP2 PUSH1 0x0 ADD PUSH1 0x0 PUSH2 0x100 EXP DUP2 SLOAD DUP2 PUSH1 0xFF MUL NOT AND SWAP1 DUP4 PUSH1 0x2 DUP2 GT ISZERO PUSH2 0x9F2 JUMPI PUSH2 0x9F1 PUSH2 0x1929 JUMP JUMPDEST JUMPDEST MUL OR SWAP1 SSTORE POP SWAP1 POP POP JUMP JUMPDEST PUSH1 0x0 DUP1 SLOAD SWAP1 PUSH2 0x100 EXP SWAP1 DIV PUSH20 0xFFFFFFFFFFFFFFFFFFFFFFFFFFFFFFFFFFFFFFFF AND DUP2 JUMP JUMPDEST PUSH1 0x0 PUSH1 0x2 DUP2 GT ISZERO PUSH2 0xA34 JUMPI PUSH2 0xA33 PUSH2 0x1929 JUMP JUMPDEST JUMPDEST PUSH1 0x2 PUSH1 0x0 CALLER PUSH20 0xFFFFFFFFFFFFFFFFFFFFFFFFFFFFFFFFFFFFFFFF AND PUSH20 0xFFFFFFFFFFFFFFFFFFFFFFFFFFFFFFFFFFFFFFFF AND DUP2 MSTORE PUSH1 0x20 ADD SWAP1 DUP2 MSTORE PUSH1 0x20 ADD PUSH1 0x0 KECCAK256 PUSH1 0x0 ADD PUSH1 0x0 SWAP1 SLOAD SWAP1 PUSH2 0x100 EXP SWAP1 DIV PUSH1 0xFF AND PUSH1 0x2 DUP2 GT ISZERO PUSH2 0xA96 JUMPI PUSH2 0xA95 PUSH2 0x1929 JUMP JUMPDEST JUMPDEST SUB PUSH2 0xB30 JUMPI PUSH1 0x40 MLOAD DUP1 PUSH1 0x20 ADD PUSH1 0x40 MSTORE DUP1 PUSH1 0x0 PUSH1 0x2 DUP2 GT ISZERO PUSH2 0xABA JUMPI PUSH2 0xAB9 PUSH2 0x1929 JUMP JUMPDEST JUMPDEST DUP2 MSTORE POP PUSH1 0x2 PUSH1 0x0 CALLER PUSH20 0xFFFFFFFFFFFFFFFFFFFFFFFFFFFFFFFFFFFFFFFF AND PUSH20 0xFFFFFFFFFFFFFFFFFFFFFFFFFFFFFFFFFFFFFFFF AND DUP2 MSTORE PUSH1 0x20 ADD SWAP1 DUP2 MSTORE PUSH1 0x20 ADD PUSH1 0x0 KECCAK256 PUSH1 0x0 DUP3 ADD MLOAD DUP2 PUSH1 0x0 ADD PUSH1 0x0 PUSH2 0x100 EXP DUP2 SLOAD DUP2 PUSH1 0xFF MUL NOT AND SWAP1 DUP4 PUSH1 0x2 DUP2 GT ISZERO PUSH2 0xB27 JUMPI PUSH2 0xB26 PUSH2 0x1929 JUMP JUMPDEST JUMPDEST MUL OR SWAP1 SSTORE POP SWAP1 POP POP JUMPDEST PUSH1 0x0 DUP3 GT PUSH2 0xB73 JUMPI PUSH1 0x40 MLOAD PUSH32 0x8C379A000000000000000000000000000000000000000000000000000000000 DUP2 MSTORE PUSH1 0x4 ADD PUSH2 0xB6A SWAP1 PUSH2 0x1C8C JUMP JUMPDEST PUSH1 0x40 MLOAD DUP1 SWAP2 SUB SWAP1 REVERT JUMPDEST PUSH1 0x3 PUSH1 0x0 DUP5 PUSH20 0xFFFFFFFFFFFFFFFFFFFFFFFFFFFFFFFFFFFFFFFF AND PUSH20 0xFFFFFFFFFFFFFFFFFFFFFFFFFFFFFFFFFFFFFFFF AND DUP2 MSTORE PUSH1 0x20 ADD SWAP1 DUP2 MSTORE PUSH1 0x20 ADD PUSH1 0x0 KECCAK256 DUP1 SLOAD SWAP1 POP DUP2 LT PUSH2 0xBF7 JUMPI PUSH1 0x40 MLOAD PUSH32 0x8C379A000000000000000000000000000000000000000000000000000000000 DUP2 MSTORE PUSH1 0x4 ADD PUSH2 0xBEE SWAP1 PUSH2 0x1CF8 JUMP JUMPDEST PUSH1 0x40 MLOAD DUP1 SWAP2 SUB SWAP1 REVERT JUMPDEST PUSH1 0x3 PUSH1 0x0 DUP5 PUSH20 0xFFFFFFFFFFFFFFFFFFFFFFFFFFFFFFFFFFFFFFFF AND PUSH20 0xFFFFFFFFFFFFFFFFFFFFFFFFFFFFFFFFFFFFFFFF AND DUP2 MSTORE PUSH1 0x20 ADD SWAP1 DUP2 MSTORE PUSH1 0x20 ADD PUSH1 0x0 KECCAK256 DUP2 DUP2 SLOAD DUP2 LT PUSH2 0xC48 JUMPI PUSH2 0xC47 PUSH2 0x1D18 JUMP JUMPDEST JUMPDEST SWAP1 PUSH1 0x0 MSTORE PUSH1 0x20 PUSH1 0x0 KECCAK256 SWAP1 PUSH1 0x3 MUL ADD PUSH1 0x0 ADD SLOAD DUP3 GT ISZERO PUSH2 0xC9C JUMPI PUSH1 0x40 MLOAD PUSH32 0x8C379A000000000000000000000000000000000000000000000000000000000 DUP2 MSTORE PUSH1 0x4 ADD PUSH2 0xC93 SWAP1 PUSH2 0x203A JUMP JUMPDEST PUSH1 0x40 MLOAD DUP1 SWAP2 SUB SWAP1 REVERT JUMPDEST PUSH1 0x0 PUSH8 0xDE0B6B3A7640000 PUSH1 0x3 PUSH1 0x0 DUP7 PUSH20 0xFFFFFFFFFFFFFFFFFFFFFFFFFFFFFFFFFFFFFFFF AND PUSH20 0xFFFFFFFFFFFFFFFFFFFFFFFFFFFFFFFFFFFFFFFF AND DUP2 MSTORE PUSH1 0x20 ADD SWAP1 DUP2 MSTORE PUSH1 0x20 ADD PUSH1 0x0 KECCAK256 DUP4 DUP2 SLOAD DUP2 LT PUSH2 0xCF8 JUMPI PUSH2 0xCF7 PUSH2 0x1D18 JUMP JUMPDEST JUMPDEST SWAP1 PUSH1 0x0 MSTORE PUSH1 0x20 PUSH1 0x0 KECCAK256 SWAP1 PUSH1 0x3 MUL ADD PUSH1 0x1 ADD SLOAD DUP5 PUSH2 0xD15 SWAP2 SWAP1 PUSH2 0x1E90 JUMP JUMPDEST PUSH2 0xD1F SWAP2 SWAP1 PUSH2 0x1E90 JUMP JUMPDEST SWAP1 POP DUP1 CALLVALUE LT ISZERO PUSH2 0xD64 JUMPI PUSH1 0x40 MLOAD PUSH32 0x8C379A000000000000000000000000000000000000000000000000000000000 DUP2 MSTORE PUSH1 0x4 ADD PUSH2 0xD5B SWAP1 PUSH2 0x1F1E JUMP JUMPDEST PUSH1 0x40 MLOAD DUP1 SWAP2 SUB SWAP1 REVERT JUMPDEST PUSH1 0x0 DUP1 JUMPDEST PUSH1 0x3 PUSH1 0x0 CALLER PUSH20 0xFFFFFFFFFFFFFFFFFFFFFFFFFFFFFFFFFFFFFFFF AND PUSH20 0xFFFFFFFFFFFFFFFFFFFFFFFFFFFFFFFFFFFFFFFF AND DUP2 MSTORE PUSH1 0x20 ADD SWAP1 DUP2 MSTORE PUSH1 0x20 ADD PUSH1 0x0 KECCAK256 DUP1 SLOAD SWAP1 POP DUP2 LT ISZERO PUSH2 0xF3A JUMPI PUSH1 0x3 PUSH1 0x0 DUP8 PUSH20 0xFFFFFFFFFFFFFFFFFFFFFFFFFFFFFFFFFFFFFFFF AND PUSH20 0xFFFFFFFFFFFFFFFFFFFFFFFFFFFFFFFFFFFFFFFF AND DUP2 MSTORE PUSH1 0x20 ADD SWAP1 DUP2 MSTORE PUSH1 0x20 ADD PUSH1 0x0 KECCAK256 DUP5 DUP2 SLOAD DUP2 LT PUSH2 0xE03 JUMPI PUSH2 0xE02 PUSH2 0x1D18 JUMP JUMPDEST JUMPDEST SWAP1 PUSH1 0x0 MSTORE PUSH1 0x20 PUSH1 0x0 KECCAK256 SWAP1 PUSH1 0x3 MUL ADD PUSH1 0x2 ADD PUSH1 0x40 MLOAD PUSH2 0xE21 SWAP2 SWAP1 PUSH2 0x1E4A JUMP JUMPDEST PUSH1 0x40 MLOAD DUP1 SWAP2 SUB SWAP1 KECCAK256 PUSH1 0x3 PUSH1 0x0 CALLER PUSH20 0xFFFFFFFFFFFFFFFFFFFFFFFFFFFFFFFFFFFFFFFF AND PUSH20 0xFFFFFFFFFFFFFFFFFFFFFFFFFFFFFFFFFFFFFFFF AND DUP2 MSTORE PUSH1 0x20 ADD SWAP1 DUP2 MSTORE PUSH1 0x20 ADD PUSH1 0x0 KECCAK256 DUP3 DUP2 SLOAD DUP2 LT PUSH2 0xE7A JUMPI PUSH2 0xE79 PUSH2 0x1D18 JUMP JUMPDEST JUMPDEST SWAP1 PUSH1 0x0 MSTORE PUSH1 0x20 PUSH1 0x0 KECCAK256 SWAP1 PUSH1 0x3 MUL ADD PUSH1 0x2 ADD PUSH1 0x40 MLOAD PUSH2 0xE98 SWAP2 SWAP1 PUSH2 0x1E4A JUMP JUMPDEST PUSH1 0x40 MLOAD DUP1 SWAP2 SUB SWAP1 KECCAK256 SUB PUSH2 0xF27 JUMPI DUP5 PUSH1 0x3 PUSH1 0x0 CALLER PUSH20 0xFFFFFFFFFFFFFFFFFFFFFFFFFFFFFFFFFFFFFFFF AND PUSH20 0xFFFFFFFFFFFFFFFFFFFFFFFFFFFFFFFFFFFFFFFF AND DUP2 MSTORE PUSH1 0x20 ADD SWAP1 DUP2 MSTORE PUSH1 0x20 ADD PUSH1 0x0 KECCAK256 DUP3 DUP2 SLOAD DUP2 LT PUSH2 0xEF7 JUMPI PUSH2 0xEF6 PUSH2 0x1D18 JUMP JUMPDEST JUMPDEST SWAP1 PUSH1 0x0 MSTORE PUSH1 0x20 PUSH1 0x0 KECCAK256 SWAP1 PUSH1 0x3 MUL ADD PUSH1 0x0 ADD PUSH1 0x0 DUP3 DUP3 SLOAD PUSH2 0xF17 SWAP2 SWAP1 PUSH2 0x1F72 JUMP JUMPDEST SWAP3 POP POP DUP2 SWAP1 SSTORE POP PUSH1 0x1 SWAP2 POP PUSH2 0xF3A JUMP JUMPDEST DUP1 DUP1 PUSH2 0xF32 SWAP1 PUSH2 0x1FA6 JUMP JUMPDEST SWAP2 POP POP PUSH2 0xD68 JUMP JUMPDEST POP DUP1 PUSH2 0x1142 JUMPI PUSH1 0x0 PUSH1 0x40 MLOAD DUP1 PUSH1 0x60 ADD PUSH1 0x40 MSTORE DUP1 DUP7 DUP2 MSTORE PUSH1 0x20 ADD PUSH1 0x3 PUSH1 0x0 DUP10 PUSH20 0xFFFFFFFFFFFFFFFFFFFFFFFFFFFFFFFFFFFFFFFF AND PUSH20 0xFFFFFFFFFFFFFFFFFFFFFFFFFFFFFFFFFFFFFFFF AND DUP2 MSTORE PUSH1 0x20 ADD SWAP1 DUP2 MSTORE PUSH1 0x20 ADD PUSH1 0x0 KECCAK256 DUP7 DUP2 SLOAD DUP2 LT PUSH2 0xFA4 JUMPI PUSH2 0xFA3 PUSH2 0x1D18 JUMP JUMPDEST JUMPDEST SWAP1 PUSH1 0x0 MSTORE PUSH1 0x20 PUSH1 0x0 KECCAK256 SWAP1 PUSH1 0x3 MUL ADD PUSH1 0x1 ADD SLOAD DUP2 MSTORE PUSH1 0x20 ADD PUSH1 0x3 PUSH1 0x0 DUP10 PUSH20 0xFFFFFFFFFFFFFFFFFFFFFFFFFFFFFFFFFFFFFFFF AND PUSH20 0xFFFFFFFFFFFFFFFFFFFFFFFFFFFFFFFFFFFFFFFF AND DUP2 MSTORE PUSH1 0x20 ADD SWAP1 DUP2 MSTORE PUSH1 0x20 ADD PUSH1 0x0 KECCAK256 DUP7 DUP2 SLOAD DUP2 LT PUSH2 0x100C JUMPI PUSH2 0x100B PUSH2 0x1D18 JUMP JUMPDEST JUMPDEST SWAP1 PUSH1 0x0 MSTORE PUSH1 0x20 PUSH1 0x0 KECCAK256 SWAP1 PUSH1 0x3 MUL ADD PUSH1 0x2 ADD DUP1 SLOAD PUSH2 0x1028 SWAP1 PUSH2 0x1D76 JUMP JUMPDEST DUP1 PUSH1 0x1F ADD PUSH1 0x20 DUP1 SWAP2 DIV MUL PUSH1 0x20 ADD PUSH1 0x40 MLOAD SWAP1 DUP2 ADD PUSH1 0x40 MSTORE DUP1 SWAP3 SWAP2 SWAP1 DUP2 DUP2 MSTORE PUSH1 0x20 ADD DUP3 DUP1 SLOAD PUSH2 0x1054 SWAP1 PUSH2 0x1D76 JUMP JUMPDEST DUP1 ISZERO PUSH2 0x10A1 JUMPI DUP1 PUSH1 0x1F LT PUSH2 0x1076 JUMPI PUSH2 0x100 DUP1 DUP4 SLOAD DIV MUL DUP4 MSTORE SWAP2 PUSH1 0x20 ADD SWAP2 PUSH2 0x10A1 JUMP JUMPDEST DUP3 ADD SWAP2 SWAP1 PUSH1 0x0 MSTORE PUSH1 0x20 PUSH1 0x0 KECCAK256 SWAP1 JUMPDEST DUP2 SLOAD DUP2 MSTORE SWAP1 PUSH1 0x1 ADD SWAP1 PUSH1 0x20 ADD DUP1 DUP4 GT PUSH2 0x1084 JUMPI DUP3 SWAP1 SUB PUSH1 0x1F AND DUP3 ADD SWAP2 JUMPDEST POP POP POP POP POP DUP2 MSTORE POP SWAP1 POP PUSH1 0x3 PUSH1 0x0 CALLER PUSH20 0xFFFFFFFFFFFFFFFFFFFFFFFFFFFFFFFFFFFFFFFF AND PUSH20 0xFFFFFFFFFFFFFFFFFFFFFFFFFFFFFFFFFFFFFFFF AND DUP2 MSTORE PUSH1 0x20 ADD SWAP1 DUP2 MSTORE PUSH1 0x20 ADD PUSH1 0x0 KECCAK256 DUP2 SWAP1 DUP1 PUSH1 0x1 DUP2 SLOAD ADD DUP1 DUP3 SSTORE DUP1 SWAP2 POP POP PUSH1 0x1 SWAP1 SUB SWAP1 PUSH1 0x0 MSTORE PUSH1 0x20 PUSH1 0x0 KECCAK256 SWAP1 PUSH1 0x3 MUL ADD PUSH1 0x0 SWAP1 SWAP2 SWAP1 SWAP2 SWAP1 SWAP2 POP PUSH1 0x0 DUP3 ADD MLOAD DUP2 PUSH1 0x0 ADD SSTORE PUSH1 0x20 DUP3 ADD MLOAD DUP2 PUSH1 0x1 ADD SSTORE PUSH1 0x40 DUP3 ADD MLOAD DUP2 PUSH1 0x2 ADD SWAP1 DUP2 PUSH2 0x113D SWAP2 SWAP1 PUSH2 0x2235 JUMP JUMPDEST POP POP POP POP JUMPDEST DUP4 PUSH1 0x3 PUSH1 0x0 DUP8 PUSH20 0xFFFFFFFFFFFFFFFFFFFFFFFFFFFFFFFFFFFFFFFF AND PUSH20 0xFFFFFFFFFFFFFFFFFFFFFFFFFFFFFFFFFFFFFFFF AND DUP2 MSTORE PUSH1 0x20 ADD SWAP1 DUP2 MSTORE PUSH1 0x20 ADD PUSH1 0x0 KECCAK256 DUP5 DUP2 SLOAD DUP2 LT PUSH2 0x1194 JUMPI PUSH2 0x1193 PUSH2 0x1D18 JUMP JUMPDEST JUMPDEST SWAP1 PUSH1 0x0 MSTORE PUSH1 0x20 PUSH1 0x0 KECCAK256 SWAP1 PUSH1 0x3 MUL ADD PUSH1 0x0 ADD PUSH1 0x0 DUP3 DUP3 SLOAD PUSH2 0x11B4 SWAP2 SWAP1 PUSH2 0x1F3E JUMP JUMPDEST SWAP3 POP POP DUP2 SWAP1 SSTORE POP DUP2 CALLVALUE GT ISZERO PUSH2 0x121C JUMPI PUSH1 0x0 DUP3 CALLVALUE PUSH2 0x11D1 SWAP2 SWAP1 PUSH2 0x1F3E JUMP JUMPDEST SWAP1 POP CALLER PUSH20 0xFFFFFFFFFFFFFFFFFFFFFFFFFFFFFFFFFFFFFFFF AND PUSH2 0x8FC DUP3 SWAP1 DUP2 ISZERO MUL SWAP1 PUSH1 0x40 MLOAD PUSH1 0x0 PUSH1 0x40 MLOAD DUP1 DUP4 SUB DUP2 DUP6 DUP9 DUP9 CALL SWAP4 POP POP POP POP ISZERO DUP1 ISZERO PUSH2 0x1219 JUMPI RETURNDATASIZE PUSH1 0x0 DUP1 RETURNDATACOPY RETURNDATASIZE PUSH1 0x0 REVERT JUMPDEST POP POP JUMPDEST PUSH1 0x0 SELFBALANCE SWAP1 POP DUP6 PUSH20 0xFFFFFFFFFFFFFFFFFFFFFFFFFFFFFFFFFFFFFFFF AND PUSH2 0x8FC DUP3 SWAP1 DUP2 ISZERO MUL SWAP1 PUSH1 0x40 MLOAD PUSH1 0x0 PUSH1 0x40 MLOAD DUP1 DUP4 SUB DUP2 DUP6 DUP9 DUP9 CALL SWAP4 POP POP POP POP ISZERO DUP1 ISZERO PUSH2 0x1267 JUMPI RETURNDATASIZE PUSH1 0x0 DUP1 RETURNDATACOPY RETURNDATASIZE PUSH1 0x0 REVERT JUMPDEST POP POP POP POP POP POP POP JUMP JUMPDEST PUSH1 0x2 PUSH1 0x20 MSTORE DUP1 PUSH1 0x0 MSTORE PUSH1 0x40 PUSH1 0x0 KECCAK256 PUSH1 0x0 SWAP2 POP SWAP1 POP DUP1 PUSH1 0x0 ADD PUSH1 0x0 SWAP1 SLOAD SWAP1 PUSH2 0x100 EXP SWAP1 DIV PUSH1 0xFF AND SWAP1 POP DUP2 JUMP JUMPDEST CALLER PUSH1 0x1 PUSH1 0x0 PUSH2 0x100 EXP DUP2 SLOAD DUP2 PUSH20 0xFFFFFFFFFFFFFFFFFFFFFFFFFFFFFFFFFFFFFFFF MUL NOT AND SWAP1 DUP4 PUSH20 0xFFFFFFFFFFFFFFFFFFFFFFFFFFFFFFFFFFFFFFFF AND MUL OR SWAP1 SSTORE POP PUSH1 0x40 MLOAD DUP1 PUSH1 0x20 ADD PUSH1 0x40 MSTORE DUP1 PUSH1 0x2 DUP1 DUP2 GT ISZERO PUSH2 0x12FA JUMPI PUSH2 0x12F9 PUSH2 0x1929 JUMP JUMPDEST JUMPDEST DUP2 MSTORE POP PUSH1 0x2 PUSH1 0x0 PUSH1 0x1 PUSH1 0x0 SWAP1 SLOAD SWAP1 PUSH2 0x100 EXP SWAP1 DIV PUSH20 0xFFFFFFFFFFFFFFFFFFFFFFFFFFFFFFFFFFFFFFFF AND PUSH20 0xFFFFFFFFFFFFFFFFFFFFFFFFFFFFFFFFFFFFFFFF AND PUSH20 0xFFFFFFFFFFFFFFFFFFFFFFFFFFFFFFFFFFFFFFFF AND DUP2 MSTORE PUSH1 0x20 ADD SWAP1 DUP2 MSTORE PUSH1 0x20 ADD PUSH1 0x0 KECCAK256 PUSH1 0x0 DUP3 ADD MLOAD DUP2 PUSH1 0x0 ADD PUSH1 0x0 PUSH2 0x100 EXP DUP2 SLOAD DUP2 PUSH1 0xFF MUL NOT AND SWAP1 DUP4 PUSH1 0x2 DUP2 GT ISZERO PUSH2 0x1389 JUMPI PUSH2 0x1388 PUSH2 0x1929 JUMP JUMPDEST JUMPDEST MUL OR SWAP1 SSTORE POP SWAP1 POP POP PUSH1 0x0 PUSH1 0x40 MLOAD DUP1 PUSH1 0x60 ADD PUSH1 0x40 MSTORE DUP1 DUP7 DUP2 MSTORE PUSH1 0x20 ADD PUSH1 0x2 DUP7 PUSH2 0x13B1 SWAP2 SWAP1 PUSH2 0x2336 JUMP JUMPDEST DUP2 MSTORE PUSH1 0x20 ADD DUP5 DUP5 DUP1 DUP1 PUSH1 0x1F ADD PUSH1 0x20 DUP1 SWAP2 DIV MUL PUSH1 0x20 ADD PUSH1 0x40 MLOAD SWAP1 DUP2 ADD PUSH1 0x40 MSTORE DUP1 SWAP4 SWAP3 SWAP2 SWAP1 DUP2 DUP2 MSTORE PUSH1 0x20 ADD DUP4 DUP4 DUP1 DUP3 DUP5 CALLDATACOPY PUSH1 0x0 DUP2 DUP5 ADD MSTORE PUSH1 0x1F NOT PUSH1 0x1F DUP3 ADD AND SWAP1 POP DUP1 DUP4 ADD SWAP3 POP POP POP POP POP POP POP DUP2 MSTORE POP SWAP1 POP PUSH1 0x3 PUSH1 0x0 CALLER PUSH20 0xFFFFFFFFFFFFFFFFFFFFFFFFFFFFFFFFFFFFFFFF AND PUSH20 0xFFFFFFFFFFFFFFFFFFFFFFFFFFFFFFFFFFFFFFFF AND DUP2 MSTORE PUSH1 0x20 ADD SWAP1 DUP2 MSTORE PUSH1 0x20 ADD PUSH1 0x0 KECCAK256 DUP2 SWAP1 DUP1 PUSH1 0x1 DUP2 SLOAD ADD DUP1 DUP3 SSTORE DUP1 SWAP2 POP POP PUSH1 0x1 SWAP1 SUB SWAP1 PUSH1 0x0 MSTORE PUSH1 0x20 PUSH1 0x0 KECCAK256 SWAP1 PUSH1 0x3 MUL ADD PUSH1 0x0 SWAP1 SWAP2 SWAP1 SWAP2 SWAP1 SWAP2 POP PUSH1 0x0 DUP3 ADD MLOAD DUP2 PUSH1 0x0 ADD SSTORE PUSH1 0x20 DUP3 ADD MLOAD DUP2 PUSH1 0x1 ADD SSTORE PUSH1 0x40 DUP3 ADD MLOAD DUP2 PUSH1 0x2 ADD SWAP1 DUP2 PUSH2 0x1492 SWAP2 SWAP1 PUSH2 0x2235 JUMP JUMPDEST POP POP POP POP POP POP POP POP JUMP JUMPDEST PUSH1 0x1 DUP6 DUP2 PUSH1 0x2 DUP2 GT ISZERO PUSH2 0x14B2 JUMPI PUSH2 0x14B1 PUSH2 0x1929 JUMP JUMPDEST JUMPDEST PUSH1 0x2 PUSH1 0x0 CALLER PUSH20 0xFFFFFFFFFFFFFFFFFFFFFFFFFFFFFFFFFFFFFFFF AND PUSH20 0xFFFFFFFFFFFFFFFFFFFFFFFFFFFFFFFFFFFFFFFF AND DUP2 MSTORE PUSH1 0x20 ADD SWAP1 DUP2 MSTORE PUSH1 0x20 ADD PUSH1 0x0 KECCAK256 PUSH1 0x0 ADD PUSH1 0x0 SWAP1 SLOAD SWAP1 PUSH2 0x100 EXP SWAP1 DIV PUSH1 0xFF AND PUSH1 0x2 DUP2 GT ISZERO PUSH2 0x1514 JUMPI PUSH2 0x1513 PUSH2 0x1929 JUMP JUMPDEST JUMPDEST EQ PUSH2 0x1554 JUMPI PUSH1 0x40 MLOAD PUSH32 0x8C379A000000000000000000000000000000000000000000000000000000000 DUP2 MSTORE PUSH1 0x4 ADD PUSH2 0x154B SWAP1 PUSH2 0x1B42 JUMP JUMPDEST PUSH1 0x40 MLOAD DUP1 SWAP2 SUB SWAP1 REVERT JUMPDEST DUP1 PUSH20 0xFFFFFFFFFFFFFFFFFFFFFFFFFFFFFFFFFFFFFFFF AND CALLER PUSH20 0xFFFFFFFFFFFFFFFFFFFFFFFFFFFFFFFFFFFFFFFF AND EQ PUSH2 0x15C2 JUMPI PUSH1 0x40 MLOAD PUSH32 0x8C379A000000000000000000000000000000000000000000000000000000000 DUP2 MSTORE PUSH1 0x4 ADD PUSH2 0x15B9 SWAP1 PUSH2 0x1BFA JUMP JUMPDEST PUSH1 0x40 MLOAD DUP1 SWAP2 SUB SWAP1 REVERT JUMPDEST PUSH1 0x0 PUSH1 0x40 MLOAD DUP1 PUSH1 0x60 ADD PUSH1 0x40 MSTORE DUP1 DUP9 DUP2 MSTORE PUSH1 0x20 ADD DUP8 DUP2 MSTORE PUSH1 0x20 ADD DUP7 DUP7 DUP1 DUP1 PUSH1 0x1F ADD PUSH1 0x20 DUP1 SWAP2 DIV MUL PUSH1 0x20 ADD PUSH1 0x40 MLOAD SWAP1 DUP2 ADD PUSH1 0x40 MSTORE DUP1 SWAP4 SWAP3 SWAP2 SWAP1 DUP2 DUP2 MSTORE PUSH1 0x20 ADD DUP4 DUP4 DUP1 DUP3 DUP5 CALLDATACOPY PUSH1 0x0 DUP2 DUP5 ADD MSTORE PUSH1 0x1F NOT PUSH1 0x1F DUP3 ADD AND SWAP1 POP DUP1 DUP4 ADD SWAP3 POP POP POP POP POP POP POP DUP2 MSTORE POP SWAP1 POP PUSH1 0x3 PUSH1 0x0 DUP10 PUSH20 0xFFFFFFFFFFFFFFFFFFFFFFFFFFFFFFFFFFFFFFFF AND PUSH20 0xFFFFFFFFFFFFFFFFFFFFFFFFFFFFFFFFFFFFFFFF AND DUP2 MSTORE PUSH1 0x20 ADD SWAP1 DUP2 MSTORE PUSH1 0x20 ADD PUSH1 0x0 KECCAK256 DUP2 SWAP1 DUP1 PUSH1 0x1 DUP2 SLOAD ADD DUP1 DUP3 SSTORE DUP1 SWAP2 POP POP PUSH1 0x1 SWAP1 SUB SWAP1 PUSH1 0x0 MSTORE PUSH1 0x20 PUSH1 0x0 KECCAK256 SWAP1 PUSH1 0x3 MUL ADD PUSH1 0x0 SWAP1 SWAP2 SWAP1 SWAP2 SWAP1 SWAP2 POP PUSH1 0x0 DUP3 ADD MLOAD DUP2 PUSH1 0x0 ADD SSTORE PUSH1 0x20 DUP3 ADD MLOAD DUP2 PUSH1 0x1 ADD SSTORE PUSH1 0x40 DUP3 ADD MLOAD DUP2 PUSH1 0x2 ADD SWAP1 DUP2 PUSH2 0x16B7 SWAP2 SWAP1 PUSH2 0x2235 JUMP JUMPDEST POP POP POP POP POP POP POP POP POP POP POP JUMP JUMPDEST PUSH1 0x0 DUP1 REVERT JUMPDEST PUSH1 0x0 DUP1 REVERT JUMPDEST PUSH1 0x0 PUSH20 0xFFFFFFFFFFFFFFFFFFFFFFFFFFFFFFFFFFFFFFFF DUP3 AND SWAP1 POP SWAP2 SWAP1 POP JUMP JUMPDEST PUSH1 0x0 PUSH2 0x16F9 DUP3 PUSH2 0x16CE JUMP JUMPDEST SWAP1 POP SWAP2 SWAP1 POP JUMP JUMPDEST PUSH2 0x1709 DUP2 PUSH2 0x16EE JUMP JUMPDEST DUP2 EQ PUSH2 0x1714 JUMPI PUSH1 0x0 DUP1 REVERT JUMPDEST POP JUMP JUMPDEST PUSH1 0x0 DUP2 CALLDATALOAD SWAP1 POP PUSH2 0x1726 DUP2 PUSH2 0x1700 JUMP JUMPDEST SWAP3 SWAP2 POP POP JUMP JUMPDEST PUSH1 0x0 DUP2 SWAP1 POP SWAP2 SWAP1 POP JUMP JUMPDEST PUSH2 0x173F DUP2 PUSH2 0x172C JUMP JUMPDEST DUP2 EQ PUSH2 0x174A JUMPI PUSH1 0x0 DUP1 REVERT JUMPDEST POP JUMP JUMPDEST PUSH1 0x0 DUP2 CALLDATALOAD SWAP1 POP PUSH2 0x175C DUP2 PUSH2 0x1736 JUMP JUMPDEST SWAP3 SWAP2 POP POP JUMP JUMPDEST PUSH1 0x0 DUP1 PUSH1 0x0 PUSH1 0x60 DUP5 DUP7 SUB SLT ISZERO PUSH2 0x177B JUMPI PUSH2 0x177A PUSH2 0x16C4 JUMP JUMPDEST JUMPDEST PUSH1 0x0 PUSH2 0x1789 DUP7 DUP3 DUP8 ADD PUSH2 0x1717 JUMP JUMPDEST SWAP4 POP POP PUSH1 0x20 PUSH2 0x179A DUP7 DUP3 DUP8 ADD PUSH2 0x174D JUMP JUMPDEST SWAP3 POP POP PUSH1 0x40 PUSH2 0x17AB DUP7 DUP3 DUP8 ADD PUSH2 0x174D JUMP JUMPDEST SWAP2 POP POP SWAP3 POP SWAP3 POP SWAP3 JUMP JUMPDEST PUSH2 0x17BE DUP2 PUSH2 0x16EE JUMP JUMPDEST DUP3 MSTORE POP POP JUMP JUMPDEST PUSH1 0x0 PUSH1 0x20 DUP3 ADD SWAP1 POP PUSH2 0x17D9 PUSH1 0x0 DUP4 ADD DUP5 PUSH2 0x17B5 JUMP JUMPDEST SWAP3 SWAP2 POP POP JUMP JUMPDEST PUSH1 0x0 DUP1 PUSH1 0x40 DUP4 DUP6 SUB SLT ISZERO PUSH2 0x17F6 JUMPI PUSH2 0x17F5 PUSH2 0x16C4 JUMP JUMPDEST JUMPDEST PUSH1 0x0 PUSH2 0x1804 DUP6 DUP3 DUP7 ADD PUSH2 0x1717 JUMP JUMPDEST SWAP3 POP POP PUSH1 0x20 PUSH2 0x1815 DUP6 DUP3 DUP7 ADD PUSH2 0x174D JUMP JUMPDEST SWAP2 POP POP SWAP3 POP SWAP3 SWAP1 POP JUMP JUMPDEST PUSH2 0x1828 DUP2 PUSH2 0x172C JUMP JUMPDEST DUP3 MSTORE POP POP JUMP JUMPDEST PUSH1 0x0 DUP2 MLOAD SWAP1 POP SWAP2 SWAP1 POP JUMP JUMPDEST PUSH1 0x0 DUP3 DUP3 MSTORE PUSH1 0x20 DUP3 ADD SWAP1 POP SWAP3 SWAP2 POP POP JUMP JUMPDEST PUSH1 0x0 JUMPDEST DUP4 DUP2 LT ISZERO PUSH2 0x1868 JUMPI DUP1 DUP3 ADD MLOAD DUP2 DUP5 ADD MSTORE PUSH1 0x20 DUP2 ADD SWAP1 POP PUSH2 0x184D JUMP JUMPDEST PUSH1 0x0 DUP5 DUP5 ADD MSTORE POP POP POP POP JUMP JUMPDEST PUSH1 0x0 PUSH1 0x1F NOT PUSH1 0x1F DUP4 ADD AND SWAP1 POP SWAP2 SWAP1 POP JUMP JUMPDEST PUSH1 0x0 PUSH2 0x1890 DUP3 PUSH2 0x182E JUMP JUMPDEST PUSH2 0x189A DUP2 DUP6 PUSH2 0x1839 JUMP JUMPDEST SWAP4 POP PUSH2 0x18AA DUP2 DUP6 PUSH1 0x20 DUP7 ADD PUSH2 0x184A JUMP JUMPDEST PUSH2 0x18B3 DUP2 PUSH2 0x1874 JUMP JUMPDEST DUP5 ADD SWAP2 POP POP SWAP3 SWAP2 POP POP JUMP JUMPDEST PUSH1 0x0 PUSH1 0x60 DUP3 ADD SWAP1 POP PUSH2 0x18D3 PUSH1 0x0 DUP4 ADD DUP7 PUSH2 0x181F JUMP JUMPDEST PUSH2 0x18E0 PUSH1 0x20 DUP4 ADD DUP6 PUSH2 0x181F JUMP JUMPDEST DUP2 DUP2 SUB PUSH1 0x40 DUP4 ADD MSTORE PUSH2 0x18F2 DUP2 DUP5 PUSH2 0x1885 JUMP JUMPDEST SWAP1 POP SWAP5 SWAP4 POP POP POP POP JUMP JUMPDEST PUSH1 0x0 PUSH1 0x20 DUP3 DUP5 SUB SLT ISZERO PUSH2 0x1912 JUMPI PUSH2 0x1911 PUSH2 0x16C4 JUMP JUMPDEST JUMPDEST PUSH1 0x0 PUSH2 0x1920 DUP5 DUP3 DUP6 ADD PUSH2 0x1717 JUMP JUMPDEST SWAP2 POP POP SWAP3 SWAP2 POP POP JUMP JUMPDEST PUSH32 0x4E487B7100000000000000000000000000000000000000000000000000000000 PUSH1 0x0 MSTORE PUSH1 0x21 PUSH1 0x4 MSTORE PUSH1 0x24 PUSH1 0x0 REVERT JUMPDEST PUSH1 0x3 DUP2 LT PUSH2 0x1969 JUMPI PUSH2 0x1968 PUSH2 0x1929 JUMP JUMPDEST JUMPDEST POP JUMP JUMPDEST PUSH1 0x0 DUP2 SWAP1 POP PUSH2 0x197A DUP3 PUSH2 0x1958 JUMP JUMPDEST SWAP2 SWAP1 POP JUMP JUMPDEST PUSH1 0x0 PUSH2 0x198A DUP3 PUSH2 0x196C JUMP JUMPDEST SWAP1 POP SWAP2 SWAP1 POP JUMP JUMPDEST PUSH2 0x199A DUP2 PUSH2 0x197F JUMP JUMPDEST DUP3 MSTORE POP POP JUMP JUMPDEST PUSH1 0x0 PUSH1 0x20 DUP3 ADD SWAP1 POP PUSH2 0x19B5 PUSH1 0x0 DUP4 ADD DUP5 PUSH2 0x1991 JUMP JUMPDEST SWAP3 SWAP2 POP POP JUMP JUMPDEST PUSH1 0x0 DUP1 REVERT JUMPDEST PUSH1 0x0 DUP1 REVERT JUMPDEST PUSH1 0x0 DUP1 REVERT JUMPDEST PUSH1 0x0 DUP1 DUP4 PUSH1 0x1F DUP5 ADD SLT PUSH2 0x19E0 JUMPI PUSH2 0x19DF PUSH2 0x19BB JUMP JUMPDEST JUMPDEST DUP3 CALLDATALOAD SWAP1 POP PUSH8 0xFFFFFFFFFFFFFFFF DUP2 GT ISZERO PUSH2 0x19FD JUMPI PUSH2 0x19FC PUSH2 0x19C0 JUMP JUMPDEST JUMPDEST PUSH1 0x20 DUP4 ADD SWAP2 POP DUP4 PUSH1 0x1 DUP3 MUL DUP4 ADD GT ISZERO PUSH2 0x1A19 JUMPI PUSH2 0x1A18 PUSH2 0x19C5 JUMP JUMPDEST JUMPDEST SWAP3 POP SWAP3 SWAP1 POP JUMP JUMPDEST PUSH1 0x0 DUP1 PUSH1 0x0 DUP1 PUSH1 0x60 DUP6 DUP8 SUB SLT ISZERO PUSH2 0x1A3A JUMPI PUSH2 0x1A39 PUSH2 0x16C4 JUMP JUMPDEST JUMPDEST PUSH1 0x0 PUSH2 0x1A48 DUP8 DUP3 DUP9 ADD PUSH2 0x174D JUMP JUMPDEST SWAP5 POP POP PUSH1 0x20 PUSH2 0x1A59 DUP8 DUP3 DUP9 ADD PUSH2 0x174D JUMP JUMPDEST SWAP4 POP POP PUSH1 0x40 DUP6 ADD CALLDATALOAD PUSH8 0xFFFFFFFFFFFFFFFF DUP2 GT ISZERO PUSH2 0x1A7A JUMPI PUSH2 0x1A79 PUSH2 0x16C9 JUMP JUMPDEST JUMPDEST PUSH2 0x1A86 DUP8 DUP3 DUP9 ADD PUSH2 0x19CA JUMP JUMPDEST SWAP3 POP SWAP3 POP POP SWAP3 SWAP6 SWAP2 SWAP5 POP SWAP3 POP JUMP JUMPDEST PUSH1 0x0 DUP1 PUSH1 0x0 DUP1 PUSH1 0x0 PUSH1 0x80 DUP7 DUP9 SUB SLT ISZERO PUSH2 0x1AB0 JUMPI PUSH2 0x1AAF PUSH2 0x16C4 JUMP JUMPDEST JUMPDEST PUSH1 0x0 PUSH2 0x1ABE DUP9 DUP3 DUP10 ADD PUSH2 0x1717 JUMP JUMPDEST SWAP6 POP POP PUSH1 0x20 PUSH2 0x1ACF DUP9 DUP3 DUP10 ADD PUSH2 0x174D JUMP JUMPDEST SWAP5 POP POP PUSH1 0x40 PUSH2 0x1AE0 DUP9 DUP3 DUP10 ADD PUSH2 0x174D JUMP JUMPDEST SWAP4 POP POP PUSH1 0x60 DUP7 ADD CALLDATALOAD PUSH8 0xFFFFFFFFFFFFFFFF DUP2 GT ISZERO PUSH2 0x1B01 JUMPI PUSH2 0x1B00 PUSH2 0x16C9 JUMP JUMPDEST JUMPDEST PUSH2 0x1B0D DUP9 DUP3 DUP10 ADD PUSH2 0x19CA JUMP JUMPDEST SWAP3 POP SWAP3 POP POP SWAP3 SWAP6 POP SWAP3 SWAP6 SWAP1 SWAP4 POP JUMP JUMPDEST POP JUMP JUMPDEST PUSH1 0x0 PUSH2 0x1B2C PUSH1 0x0 DUP4 PUSH2 0x1839 JUMP JUMPDEST SWAP2 POP PUSH2 0x1B37 DUP3 PUSH2 0x1B1C JUMP JUMPDEST PUSH1 0x0 DUP3 ADD SWAP1 POP SWAP2 SWAP1 POP JUMP JUMPDEST PUSH1 0x0 PUSH1 0x20 DUP3 ADD SWAP1 POP DUP2 DUP2 SUB PUSH1 0x0 DUP4 ADD MSTORE PUSH2 0x1B5B DUP2 PUSH2 0x1B1F JUMP JUMPDEST SWAP1 POP SWAP2 SWAP1 POP JUMP JUMPDEST PUSH32 0xD09CD0B0D0B3D0B0D0B7D0B8D0BD20D0BDD0B520D181D0BED0BED182D0B2D0B5 PUSH1 0x0 DUP3 ADD MSTORE PUSH32 0xD182D181D0B2D183D0B5D18220D0BED182D0BFD180D0B0D0B2D0B8D182D0B5D0 PUSH1 0x20 DUP3 ADD MSTORE PUSH32 0xBBD18E0000000000000000000000000000000000000000000000000000000000 PUSH1 0x40 DUP3 ADD MSTORE POP JUMP JUMPDEST PUSH1 0x0 PUSH2 0x1BE4 PUSH1 0x43 DUP4 PUSH2 0x1839 JUMP JUMPDEST SWAP2 POP PUSH2 0x1BEF DUP3 PUSH2 0x1B62 JUMP JUMPDEST PUSH1 0x60 DUP3 ADD SWAP1 POP SWAP2 SWAP1 POP JUMP JUMPDEST PUSH1 0x0 PUSH1 0x20 DUP3 ADD SWAP1 POP DUP2 DUP2 SUB PUSH1 0x0 DUP4 ADD MSTORE PUSH2 0x1C13 DUP2 PUSH2 0x1BD7 JUMP JUMPDEST SWAP1 POP SWAP2 SWAP1 POP JUMP JUMPDEST PUSH32 0x507572636861736520616D6F756E74206D757374206265206772656174657220 PUSH1 0x0 DUP3 ADD MSTORE PUSH32 0x7468616E20300000000000000000000000000000000000000000000000000000 PUSH1 0x20 DUP3 ADD MSTORE POP JUMP JUMPDEST PUSH1 0x0 PUSH2 0x1C76 PUSH1 0x26 DUP4 PUSH2 0x1839 JUMP JUMPDEST SWAP2 POP PUSH2 0x1C81 DUP3 PUSH2 0x1C1A JUMP JUMPDEST PUSH1 0x40 DUP3 ADD SWAP1 POP SWAP2 SWAP1 POP JUMP JUMPDEST PUSH1 0x0 PUSH1 0x20 DUP3 ADD SWAP1 POP DUP2 DUP2 SUB PUSH1 0x0 DUP4 ADD MSTORE PUSH2 0x1CA5 DUP2 PUSH2 0x1C69 JUMP JUMPDEST SWAP1 POP SWAP2 SWAP1 POP JUMP JUMPDEST PUSH32 0x496E76616C69642070726F647563742049440000000000000000000000000000 PUSH1 0x0 DUP3 ADD MSTORE POP JUMP JUMPDEST PUSH1 0x0 PUSH2 0x1CE2 PUSH1 0x12 DUP4 PUSH2 0x1839 JUMP JUMPDEST SWAP2 POP PUSH2 0x1CED DUP3 PUSH2 0x1CAC JUMP JUMPDEST PUSH1 0x20 DUP3 ADD SWAP1 POP SWAP2 SWAP1 POP JUMP JUMPDEST PUSH1 0x0 PUSH1 0x20 DUP3 ADD SWAP1 POP DUP2 DUP2 SUB PUSH1 0x0 DUP4 ADD MSTORE PUSH2 0x1D11 DUP2 PUSH2 0x1CD5 JUMP JUMPDEST SWAP1 POP SWAP2 SWAP1 POP JUMP JUMPDEST PUSH32 0x4E487B7100000000000000000000000000000000000000000000000000000000 PUSH1 0x0 MSTORE PUSH1 0x32 PUSH1 0x4 MSTORE PUSH1 0x24 PUSH1 0x0 REVERT JUMPDEST PUSH32 0x4E487B7100000000000000000000000000000000000000000000000000000000 PUSH1 0x0 MSTORE PUSH1 0x22 PUSH1 0x4 MSTORE PUSH1 0x24 PUSH1 0x0 REVERT JUMPDEST PUSH1 0x0 PUSH1 0x2 DUP3 DIV SWAP1 POP PUSH1 0x1 DUP3 AND DUP1 PUSH2 0x1D8E JUMPI PUSH1 0x7F DUP3 AND SWAP2 POP JUMPDEST PUSH1 0x20 DUP3 LT DUP2 SUB PUSH2 0x1DA1 JUMPI PUSH2 0x1DA0 PUSH2 0x1D47 JUMP JUMPDEST JUMPDEST POP SWAP2 SWAP1 POP JUMP JUMPDEST PUSH1 0x0 DUP2 SWAP1 POP SWAP3 SWAP2 POP POP JUMP JUMPDEST PUSH1 0x0 DUP2 SWAP1 POP DUP2 PUSH1 0x0 MSTORE PUSH1 0x20 PUSH1 0x0 KECCAK256 SWAP1 POP SWAP2 SWAP1 POP JUMP JUMPDEST PUSH1 0x0 DUP2 SLOAD PUSH2 0x1DD4 DUP2 PUSH2 0x1D76 JUMP JUMPDEST PUSH2 0x1DDE DUP2 DUP7 PUSH2 0x1DA7 JUMP JUMPDEST SWAP5 POP PUSH1 0x1 DUP3 AND PUSH1 0x0 DUP2 EQ PUSH2 0x1DF9 JUMPI PUSH1 0x1 DUP2 EQ PUSH2 0x1E0E JUMPI PUSH2 0x1E41 JUMP JUMPDEST PUSH1 0xFF NOT DUP4 AND DUP7 MSTORE DUP2 ISZERO ISZERO DUP3 MUL DUP7 ADD SWAP4 POP PUSH2 0x1E41 JUMP JUMPDEST PUSH2 0x1E17 DUP6 PUSH2 0x1DB2 JUMP JUMPDEST PUSH1 0x0 JUMPDEST DUP4 DUP2 LT ISZERO PUSH2 0x1E39 JUMPI DUP2 SLOAD DUP2 DUP10 ADD MSTORE PUSH1 0x1 DUP3 ADD SWAP2 POP PUSH1 0x20 DUP2 ADD SWAP1 POP PUSH2 0x1E1A JUMP JUMPDEST DUP4 DUP9 ADD SWAP6 POP POP POP JUMPDEST POP POP POP SWAP3 SWAP2 POP POP JUMP JUMPDEST PUSH1 0x0 PUSH2 0x1E56 DUP3 DUP5 PUSH2 0x1DC7 JUMP JUMPDEST SWAP2 POP DUP2 SWAP1 POP SWAP3 SWAP2 POP POP JUMP JUMPDEST PUSH32 0x4E487B7100000000000000000000000000000000000000000000000000000000 PUSH1 0x0 MSTORE PUSH1 0x11 PUSH1 0x4 MSTORE PUSH1 0x24 PUSH1 0x0 REVERT JUMPDEST PUSH1 0x0 PUSH2 0x1E9B DUP3 PUSH2 0x172C JUMP JUMPDEST SWAP2 POP PUSH2 0x1EA6 DUP4 PUSH2 0x172C JUMP JUMPDEST SWAP3 POP DUP3 DUP3 MUL PUSH2 0x1EB4 DUP2 PUSH2 0x172C JUMP JUMPDEST SWAP2 POP DUP3 DUP3 DIV DUP5 EQ DUP4 ISZERO OR PUSH2 0x1ECB JUMPI PUSH2 0x1ECA PUSH2 0x1E61 JUMP JUMPDEST JUMPDEST POP SWAP3 SWAP2 POP POP JUMP JUMPDEST PUSH32 0x496E73756666696369656E742066756E64732073656E74000000000000000000 PUSH1 0x0 DUP3 ADD MSTORE POP JUMP JUMPDEST PUSH1 0x0 PUSH2 0x1F08 PUSH1 0x17 DUP4 PUSH2 0x1839 JUMP JUMPDEST SWAP2 POP PUSH2 0x1F13 DUP3 PUSH2 0x1ED2 JUMP JUMPDEST PUSH1 0x20 DUP3 ADD SWAP1 POP SWAP2 SWAP1 POP JUMP JUMPDEST PUSH1 0x0 PUSH1 0x20 DUP3 ADD SWAP1 POP DUP2 DUP2 SUB PUSH1 0x0 DUP4 ADD MSTORE PUSH2 0x1F37 DUP2 PUSH2 0x1EFB JUMP JUMPDEST SWAP1 POP SWAP2 SWAP1 POP JUMP JUMPDEST PUSH1 0x0 PUSH2 0x1F49 DUP3 PUSH2 0x172C JUMP JUMPDEST SWAP2 POP PUSH2 0x1F54 DUP4 PUSH2 0x172C JUMP JUMPDEST SWAP3 POP DUP3 DUP3 SUB SWAP1 POP DUP2 DUP2 GT ISZERO PUSH2 0x1F6C JUMPI PUSH2 0x1F6B PUSH2 0x1E61 JUMP JUMPDEST JUMPDEST SWAP3 SWAP2 POP POP JUMP JUMPDEST PUSH1 0x0 PUSH2 0x1F7D DUP3 PUSH2 0x172C JUMP JUMPDEST SWAP2 POP PUSH2 0x1F88 DUP4 PUSH2 0x172C JUMP JUMPDEST SWAP3 POP DUP3 DUP3 ADD SWAP1 POP DUP1 DUP3 GT ISZERO PUSH2 0x1FA0 JUMPI PUSH2 0x1F9F PUSH2 0x1E61 JUMP JUMPDEST JUMPDEST SWAP3 SWAP2 POP POP JUMP JUMPDEST PUSH1 0x0 PUSH2 0x1FB1 DUP3 PUSH2 0x172C JUMP JUMPDEST SWAP2 POP PUSH32 0xFFFFFFFFFFFFFFFFFFFFFFFFFFFFFFFFFFFFFFFFFFFFFFFFFFFFFFFFFFFFFFFF DUP3 SUB PUSH2 0x1FE3 JUMPI PUSH2 0x1FE2 PUSH2 0x1E61 JUMP JUMPDEST JUMPDEST PUSH1 0x1 DUP3 ADD SWAP1 POP SWAP2 SWAP1 POP JUMP JUMPDEST PUSH32 0x4E6F7420656E6F7567682073746F636B20617661696C61626C65000000000000 PUSH1 0x0 DUP3 ADD MSTORE POP JUMP JUMPDEST PUSH1 0x0 PUSH2 0x2024 PUSH1 0x1A DUP4 PUSH2 0x1839 JUMP JUMPDEST SWAP2 POP PUSH2 0x202F DUP3 PUSH2 0x1FEE JUMP JUMPDEST PUSH1 0x20 DUP3 ADD SWAP1 POP SWAP2 SWAP1 POP JUMP JUMPDEST PUSH1 0x0 PUSH1 0x20 DUP3 ADD SWAP1 POP DUP2 DUP2 SUB PUSH1 0x0 DUP4 ADD MSTORE PUSH2 0x2053 DUP2 PUSH2 0x2017 JUMP JUMPDEST SWAP1 POP SWAP2 SWAP1 POP JUMP JUMPDEST PUSH32 0x4E487B7100000000000000000000000000000000000000000000000000000000 PUSH1 0x0 MSTORE PUSH1 0x41 PUSH1 0x4 MSTORE PUSH1 0x24 PUSH1 0x0 REVERT JUMPDEST PUSH1 0x0 DUP2 SWAP1 POP DUP2 PUSH1 0x0 MSTORE PUSH1 0x20 PUSH1 0x0 KECCAK256 SWAP1 POP SWAP2 SWAP1 POP JUMP JUMPDEST PUSH1 0x0 PUSH1 0x20 PUSH1 0x1F DUP4 ADD DIV SWAP1 POP SWAP2 SWAP1 POP JUMP JUMPDEST PUSH1 0x0 DUP3 DUP3 SHL SWAP1 POP SWAP3 SWAP2 POP POP JUMP JUMPDEST PUSH1 0x0 PUSH1 0x8 DUP4 MUL PUSH2 0x20EB PUSH32 0xFFFFFFFFFFFFFFFFFFFFFFFFFFFFFFFFFFFFFFFFFFFFFFFFFFFFFFFFFFFFFFFF DUP3 PUSH2 0x20AE JUMP JUMPDEST PUSH2 0x20F5 DUP7 DUP4 PUSH2 0x20AE JUMP JUMPDEST SWAP6 POP DUP1 NOT DUP5 AND SWAP4 POP DUP1 DUP7 AND DUP5 OR SWAP3 POP POP POP SWAP4 SWAP3 POP POP POP JUMP JUMPDEST PUSH1 0x0 DUP2 SWAP1 POP SWAP2 SWAP1 POP JUMP JUMPDEST PUSH1 0x0 PUSH2 0x2132 PUSH2 0x212D PUSH2 0x2128 DUP5 PUSH2 0x172C JUMP JUMPDEST PUSH2 0x210D JUMP JUMPDEST PUSH2 0x172C JUMP JUMPDEST SWAP1 POP SWAP2 SWAP1 POP JUMP JUMPDEST PUSH1 0x0 DUP2 SWAP1 POP SWAP2 SWAP1 POP JUMP JUMPDEST PUSH2 0x214C DUP4 PUSH2 0x2117 JUMP JUMPDEST PUSH2 0x2160 PUSH2 0x2158 DUP3 PUSH2 0x2139 JUMP JUMPDEST DUP5 DUP5 SLOAD PUSH2 0x20BB JUMP JUMPDEST DUP3 SSTORE POP POP POP POP JUMP JUMPDEST PUSH1 0x0 SWAP1 JUMP JUMPDEST PUSH2 0x2175 PUSH2 0x2168 JUMP JUMPDEST PUSH2 0x2180 DUP2 DUP5 DUP5 PUSH2 0x2143 JUMP JUMPDEST POP POP POP JUMP JUMPDEST JUMPDEST DUP2 DUP2 LT ISZERO PUSH2 0x21A4 JUMPI PUSH2 0x2199 PUSH1 0x0 DUP3 PUSH2 0x216D JUMP JUMPDEST PUSH1 0x1 DUP2 ADD SWAP1 POP PUSH2 0x2186 JUMP JUMPDEST POP POP JUMP JUMPDEST PUSH1 0x1F DUP3 GT ISZERO PUSH2 0x21E9 JUMPI PUSH2 0x21BA DUP2 PUSH2 0x2089 JUMP JUMPDEST PUSH2 0x21C3 DUP5 PUSH2 0x209E JUMP JUMPDEST DUP2 ADD PUSH1 0x20 DUP6 LT ISZERO PUSH2 0x21D2 JUMPI DUP2 SWAP1 POP JUMPDEST PUSH2 0x21E6 PUSH2 0x21DE DUP6 PUSH2 0x209E JUMP JUMPDEST DUP4 ADD DUP3 PUSH2 0x2185 JUMP JUMPDEST POP POP JUMPDEST POP POP POP JUMP JUMPDEST PUSH1 0x0 DUP3 DUP3 SHR SWAP1 POP SWAP3 SWAP2 POP POP JUMP JUMPDEST PUSH1 0x0 PUSH2 0x220C PUSH1 0x0 NOT DUP5 PUSH1 0x8 MUL PUSH2 0x21EE JUMP JUMPDEST NOT DUP1 DUP4 AND SWAP2 POP POP SWAP3 SWAP2 POP POP JUMP JUMPDEST PUSH1 0x0 PUSH2 0x2225 DUP4 DUP4 PUSH2 0x21FB JUMP JUMPDEST SWAP2 POP DUP3 PUSH1 0x2 MUL DUP3 OR SWAP1 POP SWAP3 SWAP2 POP POP JUMP JUMPDEST PUSH2 0x223E DUP3 PUSH2 0x182E JUMP JUMPDEST PUSH8 0xFFFFFFFFFFFFFFFF DUP2 GT ISZERO PUSH2 0x2257 JUMPI PUSH2 0x2256 PUSH2 0x205A JUMP JUMPDEST JUMPDEST PUSH2 0x2261 DUP3 SLOAD PUSH2 0x1D76 JUMP JUMPDEST PUSH2 0x226C DUP3 DUP3 DUP6 PUSH2 0x21A8 JUMP JUMPDEST PUSH1 0x0 PUSH1 0x20 SWAP1 POP PUSH1 0x1F DUP4 GT PUSH1 0x1 DUP2 EQ PUSH2 0x229F JUMPI PUSH1 0x0 DUP5 ISZERO PUSH2 0x228D JUMPI DUP3 DUP8 ADD MLOAD SWAP1 POP JUMPDEST PUSH2 0x2297 DUP6 DUP3 PUSH2 0x2219 JUMP JUMPDEST DUP7 SSTORE POP PUSH2 0x22FF JUMP JUMPDEST PUSH1 0x1F NOT DUP5 AND PUSH2 0x22AD DUP7 PUSH2 0x2089 JUMP JUMPDEST PUSH1 0x0 JUMPDEST DUP3 DUP2 LT ISZERO PUSH2 0x22D5 JUMPI DUP5 DUP10 ADD MLOAD DUP3 SSTORE PUSH1 0x1 DUP3 ADD SWAP2 POP PUSH1 0x20 DUP6 ADD SWAP5 POP PUSH1 0x20 DUP2 ADD SWAP1 POP PUSH2 0x22B0 JUMP JUMPDEST DUP7 DUP4 LT ISZERO PUSH2 0x22F2 JUMPI DUP5 DUP10 ADD MLOAD PUSH2 0x22EE PUSH1 0x1F DUP10 AND DUP3 PUSH2 0x21FB JUMP JUMPDEST DUP4 SSTORE POP JUMPDEST PUSH1 0x1 PUSH1 0x2 DUP9 MUL ADD DUP9 SSTORE POP POP POP JUMPDEST POP POP POP POP POP POP JUMP JUMPDEST PUSH32 0x4E487B7100000000000000000000000000000000000000000000000000000000 PUSH1 0x0 MSTORE PUSH1 0x12 PUSH1 0x4 MSTORE PUSH1 0x24 PUSH1 0x0 REVERT JUMPDEST PUSH1 0x0 PUSH2 0x2341 DUP3 PUSH2 0x172C JUMP JUMPDEST SWAP2 POP PUSH2 0x234C DUP4 PUSH2 0x172C JUMP JUMPDEST SWAP3 POP DUP3 PUSH2 0x235C JUMPI PUSH2 0x235B PUSH2 0x2307 JUMP JUMPDEST JUMPDEST DUP3 DUP3 DIV SWAP1 POP SWAP3 SWAP2 POP POP JUMP INVALID LOG2 PUSH5 0x6970667358 0x22 SLT KECCAK256 0xE 0xC3 0xDA PUSH1 0x5E SAR 0x2F 0xAD PUSH19 0xE9AA78FA57D7B80C10665539E84C2C59638410 0x49 ADDRESS CALLDATACOPY 0xCB PUSH5 0x736F6C6343 STOP ADDMOD SLT STOP CALLER "
				},
				"gasEstimates": {
					"creation": {
						"codeDepositCost": "1823400",
						"executionCost": "1919",
						"totalCost": "1825319"
					},
					"external": {
						"addItems(address,uint256,uint256,string)": "infinite",
						"addItemsSupplier(uint256,uint256,string)": "infinite",
						"makeMarket()": "24679",
						"owner()": "2511",
						"purchase(address,uint256,uint256)": "infinite",
						"refillStore(address,uint256,uint256)": "infinite",
						"supplier()": "2537",
						"userProducts(address,uint256)": "infinite",
						"users(address)": "3003"
					}
				},
				"methodIdentifiers": {
					"addItems(address,uint256,uint256,string)": "ee0fd7f9",
					"addItemsSupplier(uint256,uint256,string)": "e1b5e055",
					"makeMarket()": "66d0dc67",
					"owner()": "8da5cb5b",
					"purchase(address,uint256,uint256)": "98968f15",
					"refillStore(address,uint256,uint256)": "05103ede",
					"supplier()": "36da4468",
					"userProducts(address,uint256)": "3d527883",
					"users(address)": "a87430ba"
				}
			},
			"storageLayout": {
				"storage": [
					{
						"astId": 3,
						"contract": "contracts/MarketPlaceTest.sol:MarketPlace",
						"label": "owner",
						"offset": 0,
						"slot": "0",
						"type": "t_address"
					},
					{
						"astId": 5,
						"contract": "contracts/MarketPlaceTest.sol:MarketPlace",
						"label": "supplier",
						"offset": 0,
						"slot": "1",
						"type": "t_address"
					},
					{
						"astId": 25,
						"contract": "contracts/MarketPlaceTest.sol:MarketPlace",
						"label": "users",
						"offset": 0,
						"slot": "2",
						"type": "t_mapping(t_address,t_struct(User)13_storage)"
					},
					{
						"astId": 31,
						"contract": "contracts/MarketPlaceTest.sol:MarketPlace",
						"label": "userProducts",
						"offset": 0,
						"slot": "3",
						"type": "t_mapping(t_address,t_array(t_struct(Product)20_storage)dyn_storage)"
					}
				],
				"types": {
					"t_address": {
						"encoding": "inplace",
						"label": "address",
						"numberOfBytes": "20"
					},
					"t_array(t_struct(Product)20_storage)dyn_storage": {
						"base": "t_struct(Product)20_storage",
						"encoding": "dynamic_array",
						"label": "struct MarketPlace.Product[]",
						"numberOfBytes": "32"
					},
					"t_enum(Role)9": {
						"encoding": "inplace",
						"label": "enum MarketPlace.Role",
						"numberOfBytes": "1"
					},
					"t_mapping(t_address,t_array(t_struct(Product)20_storage)dyn_storage)": {
						"encoding": "mapping",
						"key": "t_address",
						"label": "mapping(address => struct MarketPlace.Product[])",
						"numberOfBytes": "32",
						"value": "t_array(t_struct(Product)20_storage)dyn_storage"
					},
					"t_mapping(t_address,t_struct(User)13_storage)": {
						"encoding": "mapping",
						"key": "t_address",
						"label": "mapping(address => struct MarketPlace.User)",
						"numberOfBytes": "32",
						"value": "t_struct(User)13_storage"
					},
					"t_string_storage": {
						"encoding": "bytes",
						"label": "string",
						"numberOfBytes": "32"
					},
					"t_struct(Product)20_storage": {
						"encoding": "inplace",
						"label": "struct MarketPlace.Product",
						"members": [
							{
								"astId": 15,
								"contract": "contracts/MarketPlaceTest.sol:MarketPlace",
								"label": "inStock",
								"offset": 0,
								"slot": "0",
								"type": "t_uint256"
							},
							{
								"astId": 17,
								"contract": "contracts/MarketPlaceTest.sol:MarketPlace",
								"label": "price",
								"offset": 0,
								"slot": "1",
								"type": "t_uint256"
							},
							{
								"astId": 19,
								"contract": "contracts/MarketPlaceTest.sol:MarketPlace",
								"label": "name",
								"offset": 0,
								"slot": "2",
								"type": "t_string_storage"
							}
						],
						"numberOfBytes": "96"
					},
					"t_struct(User)13_storage": {
						"encoding": "inplace",
						"label": "struct MarketPlace.User",
						"members": [
							{
								"astId": 12,
								"contract": "contracts/MarketPlaceTest.sol:MarketPlace",
								"label": "role",
								"offset": 0,
								"slot": "0",
								"type": "t_enum(Role)9"
							}
						],
						"numberOfBytes": "32"
					},
					"t_uint256": {
						"encoding": "inplace",
						"label": "uint256",
						"numberOfBytes": "32"
					}
				}
			},
			"userdoc": {
				"kind": "user",
				"methods": {},
				"version": 1
			}
		}
	}
}