{
	"contracts/Test.sol": {
		"MarketPlace": {
			"abi": [
				{
					"inputs": [],
					"stateMutability": "nonpayable",
					"type": "constructor"
				},
				{
					"inputs": [
						{
							"internalType": "uint256",
							"name": "_inStock",
							"type": "uint256"
						},
						{
							"internalType": "uint256",
							"name": "_price",
							"type": "uint256"
						},
						{
							"internalType": "string",
							"name": "_name",
							"type": "string"
						},
						{
							"internalType": "uint256",
							"name": "_expDate",
							"type": "uint256"
						},
						{
							"internalType": "address",
							"name": "_addressSupp",
							"type": "address"
						}
					],
					"name": "addItemsSupplier",
					"outputs": [],
					"stateMutability": "nonpayable",
					"type": "function"
				},
				{
					"inputs": [
						{
							"internalType": "uint256",
							"name": "_idTicket",
							"type": "uint256"
						}
					],
					"name": "approveChangeRole",
					"outputs": [],
					"stateMutability": "nonpayable",
					"type": "function"
				},
				{
					"inputs": [
						{
							"internalType": "enum MarketPlace.Role",
							"name": "_role",
							"type": "uint8"
						}
					],
					"name": "changeRole",
					"outputs": [],
					"stateMutability": "nonpayable",
					"type": "function"
				},
				{
					"inputs": [
						{
							"internalType": "string",
							"name": "_nameRef",
							"type": "string"
						},
						{
							"internalType": "address",
							"name": "_user",
							"type": "address"
						}
					],
					"name": "genRef",
					"outputs": [],
					"stateMutability": "nonpayable",
					"type": "function"
				},
				{
					"inputs": [],
					"name": "makeMarket",
					"outputs": [],
					"stateMutability": "nonpayable",
					"type": "function"
				},
				{
					"inputs": [],
					"name": "makeSupplier",
					"outputs": [],
					"stateMutability": "nonpayable",
					"type": "function"
				},
				{
					"inputs": [],
					"name": "makeUser",
					"outputs": [],
					"stateMutability": "nonpayable",
					"type": "function"
				},
				{
					"inputs": [
						{
							"internalType": "address",
							"name": "",
							"type": "address"
						},
						{
							"internalType": "uint256",
							"name": "",
							"type": "uint256"
						}
					],
					"name": "marketProducts",
					"outputs": [
						{
							"internalType": "address",
							"name": "userAddress",
							"type": "address"
						},
						{
							"internalType": "uint256",
							"name": "inStock",
							"type": "uint256"
						},
						{
							"internalType": "uint256",
							"name": "price",
							"type": "uint256"
						},
						{
							"internalType": "string",
							"name": "name",
							"type": "string"
						},
						{
							"internalType": "uint256",
							"name": "expDate",
							"type": "uint256"
						}
					],
					"stateMutability": "view",
					"type": "function"
				},
				{
					"inputs": [],
					"name": "owner",
					"outputs": [
						{
							"internalType": "address",
							"name": "",
							"type": "address"
						}
					],
					"stateMutability": "view",
					"type": "function"
				},
				{
					"inputs": [
						{
							"internalType": "address",
							"name": "_shop",
							"type": "address"
						},
						{
							"internalType": "uint256",
							"name": "_amount",
							"type": "uint256"
						},
						{
							"internalType": "uint256",
							"name": "_id",
							"type": "uint256"
						},
						{
							"internalType": "string",
							"name": "_ref",
							"type": "string"
						}
					],
					"name": "purchase",
					"outputs": [],
					"stateMutability": "payable",
					"type": "function"
				},
				{
					"inputs": [
						{
							"internalType": "uint256",
							"name": "_modulus",
							"type": "uint256"
						}
					],
					"name": "randMod",
					"outputs": [
						{
							"internalType": "uint256",
							"name": "",
							"type": "uint256"
						}
					],
					"stateMutability": "view",
					"type": "function"
				},
				{
					"inputs": [
						{
							"internalType": "string",
							"name": "",
							"type": "string"
						}
					],
					"name": "referrals",
					"outputs": [
						{
							"internalType": "address",
							"name": "",
							"type": "address"
						}
					],
					"stateMutability": "view",
					"type": "function"
				},
				{
					"inputs": [
						{
							"internalType": "address",
							"name": "_shop",
							"type": "address"
						},
						{
							"internalType": "uint256",
							"name": "_productId",
							"type": "uint256"
						},
						{
							"internalType": "uint256",
							"name": "_amount",
							"type": "uint256"
						},
						{
							"internalType": "address",
							"name": "_supplier",
							"type": "address"
						}
					],
					"name": "refillStore",
					"outputs": [],
					"stateMutability": "payable",
					"type": "function"
				},
				{
					"inputs": [
						{
							"internalType": "address",
							"name": "_shop",
							"type": "address"
						},
						{
							"internalType": "uint256",
							"name": "_productId",
							"type": "uint256"
						}
					],
					"name": "refund",
					"outputs": [],
					"stateMutability": "nonpayable",
					"type": "function"
				},
				{
					"inputs": [
						{
							"internalType": "address",
							"name": "",
							"type": "address"
						},
						{
							"internalType": "uint256",
							"name": "",
							"type": "uint256"
						}
					],
					"name": "supplierProducts",
					"outputs": [
						{
							"internalType": "address",
							"name": "userAddress",
							"type": "address"
						},
						{
							"internalType": "uint256",
							"name": "inStock",
							"type": "uint256"
						},
						{
							"internalType": "uint256",
							"name": "price",
							"type": "uint256"
						},
						{
							"internalType": "string",
							"name": "name",
							"type": "string"
						},
						{
							"internalType": "uint256",
							"name": "expDate",
							"type": "uint256"
						}
					],
					"stateMutability": "view",
					"type": "function"
				},
				{
					"inputs": [
						{
							"internalType": "uint256",
							"name": "",
							"type": "uint256"
						}
					],
					"name": "tickets",
					"outputs": [
						{
							"internalType": "address",
							"name": "userAddr",
							"type": "address"
						},
						{
							"internalType": "enum MarketPlace.Role",
							"name": "role",
							"type": "uint8"
						}
					],
					"stateMutability": "view",
					"type": "function"
				},
				{
					"inputs": [
						{
							"internalType": "address",
							"name": "",
							"type": "address"
						},
						{
							"internalType": "uint256",
							"name": "",
							"type": "uint256"
						}
					],
					"name": "userProducts",
					"outputs": [
						{
							"internalType": "address",
							"name": "userAddress",
							"type": "address"
						},
						{
							"internalType": "uint256",
							"name": "inStock",
							"type": "uint256"
						},
						{
							"internalType": "uint256",
							"name": "price",
							"type": "uint256"
						},
						{
							"internalType": "string",
							"name": "name",
							"type": "string"
						},
						{
							"internalType": "uint256",
							"name": "expDate",
							"type": "uint256"
						}
					],
					"stateMutability": "view",
					"type": "function"
				},
				{
					"inputs": [
						{
							"internalType": "address",
							"name": "",
							"type": "address"
						}
					],
					"name": "users",
					"outputs": [
						{
							"internalType": "enum MarketPlace.Role",
							"name": "role",
							"type": "uint8"
						},
						{
							"internalType": "uint256",
							"name": "balance",
							"type": "uint256"
						}
					],
					"stateMutability": "view",
					"type": "function"
				},
				{
					"inputs": [
						{
							"internalType": "address",
							"name": "_shop",
							"type": "address"
						}
					],
					"name": "withdrawBal",
					"outputs": [],
					"stateMutability": "nonpayable",
					"type": "function"
				}
			],
			"devdoc": {
				"kind": "dev",
				"methods": {},
				"version": 1
			},
			"evm": {
				"assembly": "    /* \"contracts/Test.sol\":60:6440  contract MarketPlace {... */\n  mstore(0x40, 0x80)\n    /* \"contracts/Test.sol\":190:239  constructor() {... */\n  callvalue\n  dup1\n  iszero\n  tag_1\n  jumpi\n  0x00\n  dup1\n  revert\ntag_1:\n  pop\n    /* \"contracts/Test.sol\":222:232  msg.sender */\n  caller\n    /* \"contracts/Test.sol\":214:219  owner */\n  0x01\n  0x00\n    /* \"contracts/Test.sol\":214:232  owner = msg.sender */\n  0x0100\n  exp\n  dup2\n  sload\n  dup2\n  0xffffffffffffffffffffffffffffffffffffffff\n  mul\n  not\n  and\n  swap1\n  dup4\n  0xffffffffffffffffffffffffffffffffffffffff\n  and\n  mul\n  or\n  swap1\n  sstore\n  pop\n    /* \"contracts/Test.sol\":60:6440  contract MarketPlace {... */\n  dataSize(sub_0)\n  dup1\n  dataOffset(sub_0)\n  0x00\n  codecopy\n  0x00\n  return\nstop\n\nsub_0: assembly {\n        /* \"contracts/Test.sol\":60:6440  contract MarketPlace {... */\n      mstore(0x40, 0x80)\n      jumpi(tag_1, lt(calldatasize, 0x04))\n      shr(0xe0, calldataload(0x00))\n      dup1\n      0x805553e8\n      gt\n      tag_21\n      jumpi\n      dup1\n      0xa87430ba\n      gt\n      tag_22\n      jumpi\n      dup1\n      0xa87430ba\n      eq\n      tag_16\n      jumpi\n      dup1\n      0xd18a524a\n      eq\n      tag_17\n      jumpi\n      dup1\n      0xd55768dd\n      eq\n      tag_18\n      jumpi\n      dup1\n      0xf67a2ad1\n      eq\n      tag_19\n      jumpi\n      dup1\n      0xfecd8f79\n      eq\n      tag_20\n      jumpi\n      jump(tag_1)\n    tag_22:\n      dup1\n      0x805553e8\n      eq\n      tag_11\n      jumpi\n      dup1\n      0x861c2b6d\n      eq\n      tag_12\n      jumpi\n      dup1\n      0x8da5cb5b\n      eq\n      tag_13\n      jumpi\n      dup1\n      0x9f1cd587\n      eq\n      tag_14\n      jumpi\n      dup1\n      0xa1ba90b6\n      eq\n      tag_15\n      jumpi\n      jump(tag_1)\n    tag_21:\n      dup1\n      0x4f424547\n      gt\n      tag_23\n      jumpi\n      dup1\n      0x4f424547\n      eq\n      tag_6\n      jumpi\n      dup1\n      0x50b44712\n      eq\n      tag_7\n      jumpi\n      dup1\n      0x55dea0b3\n      eq\n      tag_8\n      jumpi\n      dup1\n      0x66d0dc67\n      eq\n      tag_9\n      jumpi\n      dup1\n      0x6f764708\n      eq\n      tag_10\n      jumpi\n      jump(tag_1)\n    tag_23:\n      dup1\n      0x27b90b1b\n      eq\n      tag_2\n      jumpi\n      dup1\n      0x3d527883\n      eq\n      tag_3\n      jumpi\n      dup1\n      0x3dfe7dee\n      eq\n      tag_4\n      jumpi\n      dup1\n      0x410085df\n      eq\n      tag_5\n      jumpi\n    tag_1:\n      0x00\n      dup1\n      revert\n        /* \"contracts/Test.sol\":792:845  mapping(address => Product[]) public supplierProducts */\n    tag_2:\n      callvalue\n      dup1\n      iszero\n      tag_24\n      jumpi\n      0x00\n      dup1\n      revert\n    tag_24:\n      pop\n      tag_25\n      0x04\n      dup1\n      calldatasize\n      sub\n      dup2\n      add\n      swap1\n      tag_26\n      swap2\n      swap1\n      tag_27\n      jump\t// in\n    tag_26:\n      tag_28\n      jump\t// in\n    tag_25:\n      mload(0x40)\n      tag_29\n      swap6\n      swap5\n      swap4\n      swap3\n      swap2\n      swap1\n      tag_30\n      jump\t// in\n    tag_29:\n      mload(0x40)\n      dup1\n      swap2\n      sub\n      swap1\n      return\n        /* \"contracts/Test.sol\":680:729  mapping(address => Product[]) public userProducts */\n    tag_3:\n      callvalue\n      dup1\n      iszero\n      tag_31\n      jumpi\n      0x00\n      dup1\n      revert\n    tag_31:\n      pop\n      tag_32\n      0x04\n      dup1\n      calldatasize\n      sub\n      dup2\n      add\n      swap1\n      tag_33\n      swap2\n      swap1\n      tag_27\n      jump\t// in\n    tag_33:\n      tag_34\n      jump\t// in\n    tag_32:\n      mload(0x40)\n      tag_35\n      swap6\n      swap5\n      swap4\n      swap3\n      swap2\n      swap1\n      tag_30\n      jump\t// in\n    tag_35:\n      mload(0x40)\n      dup1\n      swap2\n      sub\n      swap1\n      return\n        /* \"contracts/Test.sol\":1568:1658  function makeSupplier() public {... */\n    tag_4:\n      callvalue\n      dup1\n      iszero\n      tag_36\n      jumpi\n      0x00\n      dup1\n      revert\n    tag_36:\n      pop\n      tag_37\n      tag_38\n      jump\t// in\n    tag_37:\n      stop\n        /* \"contracts/Test.sol\":4182:4725  function refund(address _shop, uint _productId) public {... */\n    tag_5:\n      callvalue\n      dup1\n      iszero\n      tag_39\n      jumpi\n      0x00\n      dup1\n      revert\n    tag_39:\n      pop\n      tag_40\n      0x04\n      dup1\n      calldatasize\n      sub\n      dup2\n      add\n      swap1\n      tag_41\n      swap2\n      swap1\n      tag_27\n      jump\t// in\n    tag_41:\n      tag_42\n      jump\t// in\n    tag_40:\n      stop\n        /* \"contracts/Test.sol\":735:786  mapping(address => Product[]) public marketProducts */\n    tag_6:\n      callvalue\n      dup1\n      iszero\n      tag_43\n      jumpi\n      0x00\n      dup1\n      revert\n    tag_43:\n      pop\n      tag_44\n      0x04\n      dup1\n      calldatasize\n      sub\n      dup2\n      add\n      swap1\n      tag_45\n      swap2\n      swap1\n      tag_27\n      jump\t// in\n    tag_45:\n      tag_46\n      jump\t// in\n    tag_44:\n      mload(0x40)\n      tag_47\n      swap6\n      swap5\n      swap4\n      swap3\n      swap2\n      swap1\n      tag_30\n      jump\t// in\n    tag_47:\n      mload(0x40)\n      dup1\n      swap2\n      sub\n      swap1\n      return\n        /* \"contracts/Test.sol\":134:157  Ticket[] public tickets */\n    tag_7:\n      callvalue\n      dup1\n      iszero\n      tag_48\n      jumpi\n      0x00\n      dup1\n      revert\n    tag_48:\n      pop\n      tag_49\n      0x04\n      dup1\n      calldatasize\n      sub\n      dup2\n      add\n      swap1\n      tag_50\n      swap2\n      swap1\n      tag_51\n      jump\t// in\n    tag_50:\n      tag_52\n      jump\t// in\n    tag_49:\n      mload(0x40)\n      tag_53\n      swap3\n      swap2\n      swap1\n      tag_54\n      jump\t// in\n    tag_53:\n      mload(0x40)\n      dup1\n      swap2\n      sub\n      swap1\n      return\n        /* \"contracts/Test.sol\":2053:2148  function changeRole(Role _role) public {... */\n    tag_8:\n      callvalue\n      dup1\n      iszero\n      tag_55\n      jumpi\n      0x00\n      dup1\n      revert\n    tag_55:\n      pop\n      tag_56\n      0x04\n      dup1\n      calldatasize\n      sub\n      dup2\n      add\n      swap1\n      tag_57\n      swap2\n      swap1\n      tag_58\n      jump\t// in\n    tag_57:\n      tag_59\n      jump\t// in\n    tag_56:\n      stop\n        /* \"contracts/Test.sol\":1664:1751  function makeMarket() public  {... */\n    tag_9:\n      callvalue\n      dup1\n      iszero\n      tag_60\n      jumpi\n      0x00\n      dup1\n      revert\n    tag_60:\n      pop\n      tag_61\n      tag_62\n      jump\t// in\n    tag_61:\n      stop\n        /* \"contracts/Test.sol\":1757:2047  function approveChangeRole(uint _idTicket) public OnlyOwner {... */\n    tag_10:\n      callvalue\n      dup1\n      iszero\n      tag_63\n      jumpi\n      0x00\n      dup1\n      revert\n    tag_63:\n      pop\n      tag_64\n      0x04\n      dup1\n      calldatasize\n      sub\n      dup2\n      add\n      swap1\n      tag_65\n      swap2\n      swap1\n      tag_51\n      jump\t// in\n    tag_65:\n      tag_66\n      jump\t// in\n    tag_64:\n      stop\n        /* \"contracts/Test.sol\":2154:2366  function randMod(uint _modulus) public view returns(uint) {   ... */\n    tag_11:\n      callvalue\n      dup1\n      iszero\n      tag_67\n      jumpi\n      0x00\n      dup1\n      revert\n    tag_67:\n      pop\n      tag_68\n      0x04\n      dup1\n      calldatasize\n      sub\n      dup2\n      add\n      swap1\n      tag_69\n      swap2\n      swap1\n      tag_51\n      jump\t// in\n    tag_69:\n      tag_70\n      jump\t// in\n    tag_68:\n      mload(0x40)\n      tag_71\n      swap2\n      swap1\n      tag_72\n      jump\t// in\n    tag_71:\n      mload(0x40)\n      dup1\n      swap2\n      sub\n      swap1\n      return\n        /* \"contracts/Test.sol\":2523:2837  function addItemsSupplier(uint _inStock, uint _price, string calldata _name, uint _expDate, address _addressSupp) public AccessControl(Role.Supplier, _addressSupp) {... */\n    tag_12:\n      callvalue\n      dup1\n      iszero\n      tag_73\n      jumpi\n      0x00\n      dup1\n      revert\n    tag_73:\n      pop\n      tag_74\n      0x04\n      dup1\n      calldatasize\n      sub\n      dup2\n      add\n      swap1\n      tag_75\n      swap2\n      swap1\n      tag_76\n      jump\t// in\n    tag_75:\n      tag_77\n      jump\t// in\n    tag_74:\n      stop\n        /* \"contracts/Test.sol\":163:183  address public owner */\n    tag_13:\n      callvalue\n      dup1\n      iszero\n      tag_78\n      jumpi\n      0x00\n      dup1\n      revert\n    tag_78:\n      pop\n      tag_79\n      tag_80\n      jump\t// in\n    tag_79:\n      mload(0x40)\n      tag_81\n      swap2\n      swap1\n      tag_82\n      jump\t// in\n    tag_81:\n      mload(0x40)\n      dup1\n      swap2\n      sub\n      swap1\n      return\n        /* \"contracts/Test.sol\":4731:6327  function purchase(address _shop, uint _amount, uint _id, string memory _ref ) public payable {... */\n    tag_14:\n      tag_83\n      0x04\n      dup1\n      calldatasize\n      sub\n      dup2\n      add\n      swap1\n      tag_84\n      swap2\n      swap1\n      tag_85\n      jump\t// in\n    tag_84:\n      tag_86\n      jump\t// in\n    tag_83:\n      stop\n        /* \"contracts/Test.sol\":2372:2516  function genRef(string memory _nameRef, address _user) public {... */\n    tag_15:\n      callvalue\n      dup1\n      iszero\n      tag_87\n      jumpi\n      0x00\n      dup1\n      revert\n    tag_87:\n      pop\n      tag_88\n      0x04\n      dup1\n      calldatasize\n      sub\n      dup2\n      add\n      swap1\n      tag_89\n      swap2\n      swap1\n      tag_90\n      jump\t// in\n    tag_89:\n      tag_91\n      jump\t// in\n    tag_88:\n      stop\n        /* \"contracts/Test.sol\":637:674  mapping(address => User) public users */\n    tag_16:\n      callvalue\n      dup1\n      iszero\n      tag_92\n      jumpi\n      0x00\n      dup1\n      revert\n    tag_92:\n      pop\n      tag_93\n      0x04\n      dup1\n      calldatasize\n      sub\n      dup2\n      add\n      swap1\n      tag_94\n      swap2\n      swap1\n      tag_95\n      jump\t// in\n    tag_94:\n      tag_96\n      jump\t// in\n    tag_93:\n      mload(0x40)\n      tag_97\n      swap3\n      swap2\n      swap1\n      tag_98\n      jump\t// in\n    tag_97:\n      mload(0x40)\n      dup1\n      swap2\n      sub\n      swap1\n      return\n        /* \"contracts/Test.sol\":1480:1562  function makeUser() public {... */\n    tag_17:\n      callvalue\n      dup1\n      iszero\n      tag_99\n      jumpi\n      0x00\n      dup1\n      revert\n    tag_99:\n      pop\n      tag_100\n      tag_101\n      jump\t// in\n    tag_100:\n      stop\n        /* \"contracts/Test.sol\":851:894  mapping(string => address) public referrals */\n    tag_18:\n      callvalue\n      dup1\n      iszero\n      tag_102\n      jumpi\n      0x00\n      dup1\n      revert\n    tag_102:\n      pop\n      tag_103\n      0x04\n      dup1\n      calldatasize\n      sub\n      dup2\n      add\n      swap1\n      tag_104\n      swap2\n      swap1\n      tag_105\n      jump\t// in\n    tag_104:\n      tag_106\n      jump\t// in\n    tag_103:\n      mload(0x40)\n      tag_107\n      swap2\n      swap1\n      tag_82\n      jump\t// in\n    tag_107:\n      mload(0x40)\n      dup1\n      swap2\n      sub\n      swap1\n      return\n        /* \"contracts/Test.sol\":6333:6438  function withdrawBal(address _shop) public {... */\n    tag_19:\n      callvalue\n      dup1\n      iszero\n      tag_108\n      jumpi\n      0x00\n      dup1\n      revert\n    tag_108:\n      pop\n      tag_109\n      0x04\n      dup1\n      calldatasize\n      sub\n      dup2\n      add\n      swap1\n      tag_110\n      swap2\n      swap1\n      tag_95\n      jump\t// in\n    tag_110:\n      tag_111\n      jump\t// in\n    tag_109:\n      stop\n        /* \"contracts/Test.sol\":2848:4176  function refillStore(address _shop, uint _productId, uint _amount, address _supplier) public payable AccessControl(Role.Market, _shop) {... */\n    tag_20:\n      tag_112\n      0x04\n      dup1\n      calldatasize\n      sub\n      dup2\n      add\n      swap1\n      tag_113\n      swap2\n      swap1\n      tag_114\n      jump\t// in\n    tag_113:\n      tag_115\n      jump\t// in\n    tag_112:\n      stop\n        /* \"contracts/Test.sol\":792:845  mapping(address => Product[]) public supplierProducts */\n    tag_28:\n      mstore(0x20, 0x05)\n      dup2\n      0x00\n      mstore\n      keccak256(0x00, 0x40)\n      dup2\n      dup2\n      sload\n      dup2\n      lt\n      tag_116\n      jumpi\n      0x00\n      dup1\n      revert\n    tag_116:\n      swap1\n      0x00\n      mstore\n      keccak256(0x00, 0x20)\n      swap1\n      0x05\n      mul\n      add\n      0x00\n      swap2\n      pop\n      swap2\n      pop\n      pop\n      dup1\n      0x00\n      add\n      0x00\n      swap1\n      sload\n      swap1\n      0x0100\n      exp\n      swap1\n      div\n      0xffffffffffffffffffffffffffffffffffffffff\n      and\n      swap1\n      dup1\n      0x01\n      add\n      sload\n      swap1\n      dup1\n      0x02\n      add\n      sload\n      swap1\n      dup1\n      0x03\n      add\n      dup1\n      sload\n      tag_118\n      swap1\n      tag_119\n      jump\t// in\n    tag_118:\n      dup1\n      0x1f\n      add\n      0x20\n      dup1\n      swap2\n      div\n      mul\n      0x20\n      add\n      mload(0x40)\n      swap1\n      dup2\n      add\n      0x40\n      mstore\n      dup1\n      swap3\n      swap2\n      swap1\n      dup2\n      dup2\n      mstore\n      0x20\n      add\n      dup3\n      dup1\n      sload\n      tag_120\n      swap1\n      tag_119\n      jump\t// in\n    tag_120:\n      dup1\n      iszero\n      tag_121\n      jumpi\n      dup1\n      0x1f\n      lt\n      tag_122\n      jumpi\n      0x0100\n      dup1\n      dup4\n      sload\n      div\n      mul\n      dup4\n      mstore\n      swap2\n      0x20\n      add\n      swap2\n      jump(tag_121)\n    tag_122:\n      dup3\n      add\n      swap2\n      swap1\n      0x00\n      mstore\n      keccak256(0x00, 0x20)\n      swap1\n    tag_123:\n      dup2\n      sload\n      dup2\n      mstore\n      swap1\n      0x01\n      add\n      swap1\n      0x20\n      add\n      dup1\n      dup4\n      gt\n      tag_123\n      jumpi\n      dup3\n      swap1\n      sub\n      0x1f\n      and\n      dup3\n      add\n      swap2\n    tag_121:\n      pop\n      pop\n      pop\n      pop\n      pop\n      swap1\n      dup1\n      0x04\n      add\n      sload\n      swap1\n      pop\n      dup6\n      jump\t// out\n        /* \"contracts/Test.sol\":680:729  mapping(address => Product[]) public userProducts */\n    tag_34:\n      mstore(0x20, 0x03)\n      dup2\n      0x00\n      mstore\n      keccak256(0x00, 0x40)\n      dup2\n      dup2\n      sload\n      dup2\n      lt\n      tag_124\n      jumpi\n      0x00\n      dup1\n      revert\n    tag_124:\n      swap1\n      0x00\n      mstore\n      keccak256(0x00, 0x20)\n      swap1\n      0x05\n      mul\n      add\n      0x00\n      swap2\n      pop\n      swap2\n      pop\n      pop\n      dup1\n      0x00\n      add\n      0x00\n      swap1\n      sload\n      swap1\n      0x0100\n      exp\n      swap1\n      div\n      0xffffffffffffffffffffffffffffffffffffffff\n      and\n      swap1\n      dup1\n      0x01\n      add\n      sload\n      swap1\n      dup1\n      0x02\n      add\n      sload\n      swap1\n      dup1\n      0x03\n      add\n      dup1\n      sload\n      tag_126\n      swap1\n      tag_119\n      jump\t// in\n    tag_126:\n      dup1\n      0x1f\n      add\n      0x20\n      dup1\n      swap2\n      div\n      mul\n      0x20\n      add\n      mload(0x40)\n      swap1\n      dup2\n      add\n      0x40\n      mstore\n      dup1\n      swap3\n      swap2\n      swap1\n      dup2\n      dup2\n      mstore\n      0x20\n      add\n      dup3\n      dup1\n      sload\n      tag_127\n      swap1\n      tag_119\n      jump\t// in\n    tag_127:\n      dup1\n      iszero\n      tag_128\n      jumpi\n      dup1\n      0x1f\n      lt\n      tag_129\n      jumpi\n      0x0100\n      dup1\n      dup4\n      sload\n      div\n      mul\n      dup4\n      mstore\n      swap2\n      0x20\n      add\n      swap2\n      jump(tag_128)\n    tag_129:\n      dup3\n      add\n      swap2\n      swap1\n      0x00\n      mstore\n      keccak256(0x00, 0x20)\n      swap1\n    tag_130:\n      dup2\n      sload\n      dup2\n      mstore\n      swap1\n      0x01\n      add\n      swap1\n      0x20\n      add\n      dup1\n      dup4\n      gt\n      tag_130\n      jumpi\n      dup3\n      swap1\n      sub\n      0x1f\n      and\n      dup3\n      add\n      swap2\n    tag_128:\n      pop\n      pop\n      pop\n      pop\n      pop\n      swap1\n      dup1\n      0x04\n      add\n      sload\n      swap1\n      pop\n      dup6\n      jump\t// out\n        /* \"contracts/Test.sol\":1568:1658  function makeSupplier() public {... */\n    tag_38:\n        /* \"contracts/Test.sol\":1629:1651  User(Role.Supplier, 0) */\n      mload(0x40)\n      dup1\n      0x40\n      add\n      0x40\n      mstore\n      dup1\n        /* \"contracts/Test.sol\":1634:1647  Role.Supplier */\n      0x02\n        /* \"contracts/Test.sol\":1629:1651  User(Role.Supplier, 0) */\n      dup1\n      dup2\n      gt\n      iszero\n      tag_132\n      jumpi\n      tag_133\n      tag_134\n      jump\t// in\n    tag_133:\n    tag_132:\n      dup2\n      mstore\n      0x20\n      add\n        /* \"contracts/Test.sol\":1649:1650  0 */\n      0x00\n        /* \"contracts/Test.sol\":1629:1651  User(Role.Supplier, 0) */\n      dup2\n      mstore\n      pop\n        /* \"contracts/Test.sol\":1609:1614  users */\n      0x02\n        /* \"contracts/Test.sol\":1609:1626  users[msg.sender] */\n      0x00\n        /* \"contracts/Test.sol\":1615:1625  msg.sender */\n      caller\n        /* \"contracts/Test.sol\":1609:1626  users[msg.sender] */\n      0xffffffffffffffffffffffffffffffffffffffff\n      and\n      0xffffffffffffffffffffffffffffffffffffffff\n      and\n      dup2\n      mstore\n      0x20\n      add\n      swap1\n      dup2\n      mstore\n      0x20\n      add\n      0x00\n      keccak256\n        /* \"contracts/Test.sol\":1609:1651  users[msg.sender] = User(Role.Supplier, 0) */\n      0x00\n      dup3\n      add\n      mload\n      dup2\n      0x00\n      add\n      exp(0x0100, 0x00)\n      dup2\n      sload\n      dup2\n      0xff\n      mul\n      not\n      and\n      swap1\n      dup4\n      0x02\n      dup2\n      gt\n      iszero\n      tag_135\n      jumpi\n      tag_136\n      tag_134\n      jump\t// in\n    tag_136:\n    tag_135:\n      mul\n      or\n      swap1\n      sstore\n      pop\n      0x20\n      dup3\n      add\n      mload\n      dup2\n      0x01\n      add\n      sstore\n      swap1\n      pop\n      pop\n        /* \"contracts/Test.sol\":1568:1658  function makeSupplier() public {... */\n      jump\t// out\n        /* \"contracts/Test.sol\":4182:4725  function refund(address _shop, uint _productId) public {... */\n    tag_42:\n        /* \"contracts/Test.sol\":4302:4316  marketProducts */\n      0x04\n        /* \"contracts/Test.sol\":4302:4323  marketProducts[_shop] */\n      0x00\n        /* \"contracts/Test.sol\":4317:4322  _shop */\n      dup4\n        /* \"contracts/Test.sol\":4302:4323  marketProducts[_shop] */\n      0xffffffffffffffffffffffffffffffffffffffff\n      and\n      0xffffffffffffffffffffffffffffffffffffffff\n      and\n      dup2\n      mstore\n      0x20\n      add\n      swap1\n      dup2\n      mstore\n      0x20\n      add\n      0x00\n      keccak256\n        /* \"contracts/Test.sol\":4324:4334  _productId */\n      dup2\n        /* \"contracts/Test.sol\":4302:4335  marketProducts[_shop][_productId] */\n      dup2\n      sload\n      dup2\n      lt\n      tag_138\n      jumpi\n      tag_139\n      tag_140\n      jump\t// in\n    tag_139:\n    tag_138:\n      swap1\n      0x00\n      mstore\n      keccak256(0x00, 0x20)\n      swap1\n      0x05\n      mul\n      add\n        /* \"contracts/Test.sol\":4302:4343  marketProducts[_shop][_productId].expDate */\n      0x04\n      add\n      sload\n        /* \"contracts/Test.sol\":4255:4267  userProducts */\n      0x03\n        /* \"contracts/Test.sol\":4255:4279  userProducts[msg.sender] */\n      0x00\n        /* \"contracts/Test.sol\":4268:4278  msg.sender */\n      caller\n        /* \"contracts/Test.sol\":4255:4279  userProducts[msg.sender] */\n      0xffffffffffffffffffffffffffffffffffffffff\n      and\n      0xffffffffffffffffffffffffffffffffffffffff\n      and\n      dup2\n      mstore\n      0x20\n      add\n      swap1\n      dup2\n      mstore\n      0x20\n      add\n      0x00\n      keccak256\n        /* \"contracts/Test.sol\":4280:4290  _productId */\n      dup3\n        /* \"contracts/Test.sol\":4255:4291  userProducts[msg.sender][_productId] */\n      dup2\n      sload\n      dup2\n      lt\n      tag_142\n      jumpi\n      tag_143\n      tag_140\n      jump\t// in\n    tag_143:\n    tag_142:\n      swap1\n      0x00\n      mstore\n      keccak256(0x00, 0x20)\n      swap1\n      0x05\n      mul\n      add\n        /* \"contracts/Test.sol\":4255:4299  userProducts[msg.sender][_productId].expDate */\n      0x04\n      add\n      sload\n        /* \"contracts/Test.sol\":4255:4343  userProducts[msg.sender][_productId].expDate > marketProducts[_shop][_productId].expDate */\n      gt\n        /* \"contracts/Test.sol\":4247:4344  require(userProducts[msg.sender][_productId].expDate > marketProducts[_shop][_productId].expDate) */\n      tag_145\n      jumpi\n      0x00\n      dup1\n      revert\n    tag_145:\n        /* \"contracts/Test.sol\":4354:4370  uint totalRefSum */\n      0x00\n        /* \"contracts/Test.sol\":4463:4470  1 ether */\n      0x0de0b6b3a7640000\n        /* \"contracts/Test.sol\":4421:4435  marketProducts */\n      0x04\n        /* \"contracts/Test.sol\":4421:4442  marketProducts[_shop] */\n      0x00\n        /* \"contracts/Test.sol\":4436:4441  _shop */\n      dup6\n        /* \"contracts/Test.sol\":4421:4442  marketProducts[_shop] */\n      0xffffffffffffffffffffffffffffffffffffffff\n      and\n      0xffffffffffffffffffffffffffffffffffffffff\n      and\n      dup2\n      mstore\n      0x20\n      add\n      swap1\n      dup2\n      mstore\n      0x20\n      add\n      0x00\n      keccak256\n        /* \"contracts/Test.sol\":4443:4453  _productId */\n      dup4\n        /* \"contracts/Test.sol\":4421:4454  marketProducts[_shop][_productId] */\n      dup2\n      sload\n      dup2\n      lt\n      tag_146\n      jumpi\n      tag_147\n      tag_140\n      jump\t// in\n    tag_147:\n    tag_146:\n      swap1\n      0x00\n      mstore\n      keccak256(0x00, 0x20)\n      swap1\n      0x05\n      mul\n      add\n        /* \"contracts/Test.sol\":4421:4460  marketProducts[_shop][_productId].price */\n      0x02\n      add\n      sload\n        /* \"contracts/Test.sol\":4374:4386  userProducts */\n      0x03\n        /* \"contracts/Test.sol\":4374:4398  userProducts[msg.sender] */\n      0x00\n        /* \"contracts/Test.sol\":4387:4397  msg.sender */\n      caller\n        /* \"contracts/Test.sol\":4374:4398  userProducts[msg.sender] */\n      0xffffffffffffffffffffffffffffffffffffffff\n      and\n      0xffffffffffffffffffffffffffffffffffffffff\n      and\n      dup2\n      mstore\n      0x20\n      add\n      swap1\n      dup2\n      mstore\n      0x20\n      add\n      0x00\n      keccak256\n        /* \"contracts/Test.sol\":4399:4409  _productId */\n      dup5\n        /* \"contracts/Test.sol\":4374:4410  userProducts[msg.sender][_productId] */\n      dup2\n      sload\n      dup2\n      lt\n      tag_149\n      jumpi\n      tag_150\n      tag_140\n      jump\t// in\n    tag_150:\n    tag_149:\n      swap1\n      0x00\n      mstore\n      keccak256(0x00, 0x20)\n      swap1\n      0x05\n      mul\n      add\n        /* \"contracts/Test.sol\":4374:4418  userProducts[msg.sender][_productId].inStock */\n      0x01\n      add\n      sload\n        /* \"contracts/Test.sol\":4374:4460  userProducts[msg.sender][_productId].inStock * marketProducts[_shop][_productId].price */\n      tag_152\n      swap2\n      swap1\n      tag_153\n      jump\t// in\n    tag_152:\n        /* \"contracts/Test.sol\":4374:4470  userProducts[msg.sender][_productId].inStock * marketProducts[_shop][_productId].price * 1 ether */\n      tag_154\n      swap2\n      swap1\n      tag_153\n      jump\t// in\n    tag_154:\n        /* \"contracts/Test.sol\":4354:4470  uint totalRefSum =  userProducts[msg.sender][_productId].inStock * marketProducts[_shop][_productId].price * 1 ether */\n      swap1\n      pop\n        /* \"contracts/Test.sol\":4525:4537  userProducts */\n      0x03\n        /* \"contracts/Test.sol\":4525:4549  userProducts[msg.sender] */\n      0x00\n        /* \"contracts/Test.sol\":4538:4548  msg.sender */\n      caller\n        /* \"contracts/Test.sol\":4525:4549  userProducts[msg.sender] */\n      0xffffffffffffffffffffffffffffffffffffffff\n      and\n      0xffffffffffffffffffffffffffffffffffffffff\n      and\n      dup2\n      mstore\n      0x20\n      add\n      swap1\n      dup2\n      mstore\n      0x20\n      add\n      0x00\n      keccak256\n        /* \"contracts/Test.sol\":4550:4560  _productId */\n      dup3\n        /* \"contracts/Test.sol\":4525:4561  userProducts[msg.sender][_productId] */\n      dup2\n      sload\n      dup2\n      lt\n      tag_155\n      jumpi\n      tag_156\n      tag_140\n      jump\t// in\n    tag_156:\n    tag_155:\n      swap1\n      0x00\n      mstore\n      keccak256(0x00, 0x20)\n      swap1\n      0x05\n      mul\n      add\n        /* \"contracts/Test.sol\":4525:4569  userProducts[msg.sender][_productId].inStock */\n      0x01\n      add\n      sload\n        /* \"contracts/Test.sol\":4480:4494  marketProducts */\n      0x04\n        /* \"contracts/Test.sol\":4480:4501  marketProducts[_shop] */\n      0x00\n        /* \"contracts/Test.sol\":4495:4500  _shop */\n      dup6\n        /* \"contracts/Test.sol\":4480:4501  marketProducts[_shop] */\n      0xffffffffffffffffffffffffffffffffffffffff\n      and\n      0xffffffffffffffffffffffffffffffffffffffff\n      and\n      dup2\n      mstore\n      0x20\n      add\n      swap1\n      dup2\n      mstore\n      0x20\n      add\n      0x00\n      keccak256\n        /* \"contracts/Test.sol\":4502:4512  _productId */\n      dup4\n        /* \"contracts/Test.sol\":4480:4513  marketProducts[_shop][_productId] */\n      dup2\n      sload\n      dup2\n      lt\n      tag_158\n      jumpi\n      tag_159\n      tag_140\n      jump\t// in\n    tag_159:\n    tag_158:\n      swap1\n      0x00\n      mstore\n      keccak256(0x00, 0x20)\n      swap1\n      0x05\n      mul\n      add\n        /* \"contracts/Test.sol\":4480:4521  marketProducts[_shop][_productId].inStock */\n      0x01\n      add\n      0x00\n        /* \"contracts/Test.sol\":4480:4569  marketProducts[_shop][_productId].inStock += userProducts[msg.sender][_productId].inStock */\n      dup3\n      dup3\n      sload\n      tag_161\n      swap2\n      swap1\n      tag_162\n      jump\t// in\n    tag_161:\n      swap3\n      pop\n      pop\n      dup2\n      swap1\n      sstore\n      pop\n        /* \"contracts/Test.sol\":4586:4598  userProducts */\n      0x03\n        /* \"contracts/Test.sol\":4586:4610  userProducts[msg.sender] */\n      0x00\n        /* \"contracts/Test.sol\":4599:4609  msg.sender */\n      caller\n        /* \"contracts/Test.sol\":4586:4610  userProducts[msg.sender] */\n      0xffffffffffffffffffffffffffffffffffffffff\n      and\n      0xffffffffffffffffffffffffffffffffffffffff\n      and\n      dup2\n      mstore\n      0x20\n      add\n      swap1\n      dup2\n      mstore\n      0x20\n      add\n      0x00\n      keccak256\n        /* \"contracts/Test.sol\":4611:4621  _productId */\n      dup3\n        /* \"contracts/Test.sol\":4586:4622  userProducts[msg.sender][_productId] */\n      dup2\n      sload\n      dup2\n      lt\n      tag_163\n      jumpi\n      tag_164\n      tag_140\n      jump\t// in\n    tag_164:\n    tag_163:\n      swap1\n      0x00\n      mstore\n      keccak256(0x00, 0x20)\n      swap1\n      0x05\n      mul\n      add\n      0x00\n        /* \"contracts/Test.sol\":4579:4622  delete userProducts[msg.sender][_productId] */\n      dup1\n      dup3\n      add\n      exp(0x0100, 0x00)\n      dup2\n      sload\n      swap1\n      0xffffffffffffffffffffffffffffffffffffffff\n      mul\n      not\n      and\n      swap1\n      sstore\n      0x01\n      dup3\n      add\n      0x00\n      swap1\n      sstore\n      0x02\n      dup3\n      add\n      0x00\n      swap1\n      sstore\n      0x03\n      dup3\n      add\n      0x00\n      tag_166\n      swap2\n      swap1\n      tag_167\n      jump\t// in\n    tag_166:\n      0x04\n      dup3\n      add\n      0x00\n      swap1\n      sstore\n      pop\n      pop\n        /* \"contracts/Test.sol\":4656:4667  totalRefSum */\n      dup1\n        /* \"contracts/Test.sol\":4632:4637  users */\n      0x02\n        /* \"contracts/Test.sol\":4632:4644  users[_shop] */\n      0x00\n        /* \"contracts/Test.sol\":4638:4643  _shop */\n      dup6\n        /* \"contracts/Test.sol\":4632:4644  users[_shop] */\n      0xffffffffffffffffffffffffffffffffffffffff\n      and\n      0xffffffffffffffffffffffffffffffffffffffff\n      and\n      dup2\n      mstore\n      0x20\n      add\n      swap1\n      dup2\n      mstore\n      0x20\n      add\n      0x00\n      keccak256\n        /* \"contracts/Test.sol\":4632:4652  users[_shop].balance */\n      0x01\n      add\n      0x00\n        /* \"contracts/Test.sol\":4632:4667  users[_shop].balance -= totalRefSum */\n      dup3\n      dup3\n      sload\n      tag_168\n      swap2\n      swap1\n      tag_169\n      jump\t// in\n    tag_168:\n      swap3\n      pop\n      pop\n      dup2\n      swap1\n      sstore\n      pop\n        /* \"contracts/Test.sol\":4685:4695  msg.sender */\n      caller\n        /* \"contracts/Test.sol\":4677:4705  payable(msg.sender).transfer */\n      0xffffffffffffffffffffffffffffffffffffffff\n      and\n        /* \"contracts/Test.sol\":4677:4718  payable(msg.sender).transfer(totalRefSum) */\n      0x08fc\n        /* \"contracts/Test.sol\":4706:4717  totalRefSum */\n      dup3\n        /* \"contracts/Test.sol\":4677:4718  payable(msg.sender).transfer(totalRefSum) */\n      swap1\n      dup2\n      iszero\n      mul\n      swap1\n      mload(0x40)\n      0x00\n      mload(0x40)\n      dup1\n      dup4\n      sub\n      dup2\n      dup6\n      dup9\n      dup9\n      call\n      swap4\n      pop\n      pop\n      pop\n      pop\n      iszero\n      dup1\n      iszero\n      tag_171\n      jumpi\n      returndatasize\n      0x00\n      dup1\n      returndatacopy\n      revert(0x00, returndatasize)\n    tag_171:\n      pop\n        /* \"contracts/Test.sol\":4237:4725  {... */\n      pop\n        /* \"contracts/Test.sol\":4182:4725  function refund(address _shop, uint _productId) public {... */\n      pop\n      pop\n      jump\t// out\n        /* \"contracts/Test.sol\":735:786  mapping(address => Product[]) public marketProducts */\n    tag_46:\n      mstore(0x20, 0x04)\n      dup2\n      0x00\n      mstore\n      keccak256(0x00, 0x40)\n      dup2\n      dup2\n      sload\n      dup2\n      lt\n      tag_172\n      jumpi\n      0x00\n      dup1\n      revert\n    tag_172:\n      swap1\n      0x00\n      mstore\n      keccak256(0x00, 0x20)\n      swap1\n      0x05\n      mul\n      add\n      0x00\n      swap2\n      pop\n      swap2\n      pop\n      pop\n      dup1\n      0x00\n      add\n      0x00\n      swap1\n      sload\n      swap1\n      0x0100\n      exp\n      swap1\n      div\n      0xffffffffffffffffffffffffffffffffffffffff\n      and\n      swap1\n      dup1\n      0x01\n      add\n      sload\n      swap1\n      dup1\n      0x02\n      add\n      sload\n      swap1\n      dup1\n      0x03\n      add\n      dup1\n      sload\n      tag_174\n      swap1\n      tag_119\n      jump\t// in\n    tag_174:\n      dup1\n      0x1f\n      add\n      0x20\n      dup1\n      swap2\n      div\n      mul\n      0x20\n      add\n      mload(0x40)\n      swap1\n      dup2\n      add\n      0x40\n      mstore\n      dup1\n      swap3\n      swap2\n      swap1\n      dup2\n      dup2\n      mstore\n      0x20\n      add\n      dup3\n      dup1\n      sload\n      tag_175\n      swap1\n      tag_119\n      jump\t// in\n    tag_175:\n      dup1\n      iszero\n      tag_176\n      jumpi\n      dup1\n      0x1f\n      lt\n      tag_177\n      jumpi\n      0x0100\n      dup1\n      dup4\n      sload\n      div\n      mul\n      dup4\n      mstore\n      swap2\n      0x20\n      add\n      swap2\n      jump(tag_176)\n    tag_177:\n      dup3\n      add\n      swap2\n      swap1\n      0x00\n      mstore\n      keccak256(0x00, 0x20)\n      swap1\n    tag_178:\n      dup2\n      sload\n      dup2\n      mstore\n      swap1\n      0x01\n      add\n      swap1\n      0x20\n      add\n      dup1\n      dup4\n      gt\n      tag_178\n      jumpi\n      dup3\n      swap1\n      sub\n      0x1f\n      and\n      dup3\n      add\n      swap2\n    tag_176:\n      pop\n      pop\n      pop\n      pop\n      pop\n      swap1\n      dup1\n      0x04\n      add\n      sload\n      swap1\n      pop\n      dup6\n      jump\t// out\n        /* \"contracts/Test.sol\":134:157  Ticket[] public tickets */\n    tag_52:\n      0x00\n      dup2\n      dup2\n      sload\n      dup2\n      lt\n      tag_179\n      jumpi\n      0x00\n      dup1\n      revert\n    tag_179:\n      swap1\n      0x00\n      mstore\n      keccak256(0x00, 0x20)\n      add\n      0x00\n      swap2\n      pop\n      swap1\n      pop\n      dup1\n      0x00\n      add\n      0x00\n      swap1\n      sload\n      swap1\n      0x0100\n      exp\n      swap1\n      div\n      0xffffffffffffffffffffffffffffffffffffffff\n      and\n      swap1\n      dup1\n      0x00\n      add\n      0x14\n      swap1\n      sload\n      swap1\n      0x0100\n      exp\n      swap1\n      div\n      0xff\n      and\n      swap1\n      pop\n      dup3\n      jump\t// out\n        /* \"contracts/Test.sol\":2053:2148  function changeRole(Role _role) public {... */\n    tag_59:\n        /* \"contracts/Test.sol\":2102:2109  tickets */\n      0x00\n        /* \"contracts/Test.sol\":2115:2140  Ticket(msg.sender, _role) */\n      mload(0x40)\n      dup1\n      0x40\n      add\n      0x40\n      mstore\n      dup1\n        /* \"contracts/Test.sol\":2122:2132  msg.sender */\n      caller\n        /* \"contracts/Test.sol\":2115:2140  Ticket(msg.sender, _role) */\n      0xffffffffffffffffffffffffffffffffffffffff\n      and\n      dup2\n      mstore\n      0x20\n      add\n        /* \"contracts/Test.sol\":2134:2139  _role */\n      dup4\n        /* \"contracts/Test.sol\":2115:2140  Ticket(msg.sender, _role) */\n      0x02\n      dup2\n      gt\n      iszero\n      tag_182\n      jumpi\n      tag_183\n      tag_134\n      jump\t// in\n    tag_183:\n    tag_182:\n      dup2\n      mstore\n      pop\n        /* \"contracts/Test.sol\":2102:2141  tickets.push(Ticket(msg.sender, _role)) */\n      swap1\n      dup1\n      0x01\n      dup2\n      sload\n      add\n      dup1\n      dup3\n      sstore\n      dup1\n      swap2\n      pop\n      pop\n      0x01\n      swap1\n      sub\n      swap1\n      0x00\n      mstore\n      keccak256(0x00, 0x20)\n      add\n      0x00\n      swap1\n      swap2\n      swap1\n      swap2\n      swap1\n      swap2\n      pop\n      0x00\n      dup3\n      add\n      mload\n      dup2\n      0x00\n      add\n      exp(0x0100, 0x00)\n      dup2\n      sload\n      dup2\n      0xffffffffffffffffffffffffffffffffffffffff\n      mul\n      not\n      and\n      swap1\n      dup4\n      0xffffffffffffffffffffffffffffffffffffffff\n      and\n      mul\n      or\n      swap1\n      sstore\n      pop\n      0x20\n      dup3\n      add\n      mload\n      dup2\n      0x00\n      add\n      exp(0x0100, 0x14)\n      dup2\n      sload\n      dup2\n      0xff\n      mul\n      not\n      and\n      swap1\n      dup4\n      0x02\n      dup2\n      gt\n      iszero\n      tag_185\n      jumpi\n      tag_186\n      tag_134\n      jump\t// in\n    tag_186:\n    tag_185:\n      mul\n      or\n      swap1\n      sstore\n      pop\n      pop\n      pop\n        /* \"contracts/Test.sol\":2053:2148  function changeRole(Role _role) public {... */\n      pop\n      jump\t// out\n        /* \"contracts/Test.sol\":1664:1751  function makeMarket() public  {... */\n    tag_62:\n        /* \"contracts/Test.sol\":1724:1744  User(Role.Market, 0) */\n      mload(0x40)\n      dup1\n      0x40\n      add\n      0x40\n      mstore\n      dup1\n        /* \"contracts/Test.sol\":1729:1740  Role.Market */\n      0x01\n        /* \"contracts/Test.sol\":1724:1744  User(Role.Market, 0) */\n      0x02\n      dup2\n      gt\n      iszero\n      tag_188\n      jumpi\n      tag_189\n      tag_134\n      jump\t// in\n    tag_189:\n    tag_188:\n      dup2\n      mstore\n      0x20\n      add\n        /* \"contracts/Test.sol\":1742:1743  0 */\n      0x00\n        /* \"contracts/Test.sol\":1724:1744  User(Role.Market, 0) */\n      dup2\n      mstore\n      pop\n        /* \"contracts/Test.sol\":1704:1709  users */\n      0x02\n        /* \"contracts/Test.sol\":1704:1721  users[msg.sender] */\n      0x00\n        /* \"contracts/Test.sol\":1710:1720  msg.sender */\n      caller\n        /* \"contracts/Test.sol\":1704:1721  users[msg.sender] */\n      0xffffffffffffffffffffffffffffffffffffffff\n      and\n      0xffffffffffffffffffffffffffffffffffffffff\n      and\n      dup2\n      mstore\n      0x20\n      add\n      swap1\n      dup2\n      mstore\n      0x20\n      add\n      0x00\n      keccak256\n        /* \"contracts/Test.sol\":1704:1744  users[msg.sender] = User(Role.Market, 0) */\n      0x00\n      dup3\n      add\n      mload\n      dup2\n      0x00\n      add\n      exp(0x0100, 0x00)\n      dup2\n      sload\n      dup2\n      0xff\n      mul\n      not\n      and\n      swap1\n      dup4\n      0x02\n      dup2\n      gt\n      iszero\n      tag_190\n      jumpi\n      tag_191\n      tag_134\n      jump\t// in\n    tag_191:\n    tag_190:\n      mul\n      or\n      swap1\n      sstore\n      pop\n      0x20\n      dup3\n      add\n      mload\n      dup2\n      0x01\n      add\n      sstore\n      swap1\n      pop\n      pop\n        /* \"contracts/Test.sol\":1664:1751  function makeMarket() public  {... */\n      jump\t// out\n        /* \"contracts/Test.sol\":1757:2047  function approveChangeRole(uint _idTicket) public OnlyOwner {... */\n    tag_66:\n        /* \"contracts/Test.sol\":954:959  owner */\n      0x01\n      0x00\n      swap1\n      sload\n      swap1\n      0x0100\n      exp\n      swap1\n      div\n      0xffffffffffffffffffffffffffffffffffffffff\n      and\n        /* \"contracts/Test.sol\":940:959  msg.sender == owner */\n      0xffffffffffffffffffffffffffffffffffffffff\n      and\n        /* \"contracts/Test.sol\":940:950  msg.sender */\n      caller\n        /* \"contracts/Test.sol\":940:959  msg.sender == owner */\n      0xffffffffffffffffffffffffffffffffffffffff\n      and\n      eq\n        /* \"contracts/Test.sol\":932:960  require(msg.sender == owner) */\n      tag_193\n      jumpi\n      0x00\n      dup1\n      revert\n    tag_193:\n        /* \"contracts/Test.sol\":1827:1843  address userAddr */\n      0x00\n        /* \"contracts/Test.sol\":1846:1853  tickets */\n      dup1\n        /* \"contracts/Test.sol\":1854:1863  _idTicket */\n      dup3\n        /* \"contracts/Test.sol\":1846:1864  tickets[_idTicket] */\n      dup2\n      sload\n      dup2\n      lt\n      tag_195\n      jumpi\n      tag_196\n      tag_140\n      jump\t// in\n    tag_196:\n    tag_195:\n      swap1\n      0x00\n      mstore\n      keccak256(0x00, 0x20)\n      add\n        /* \"contracts/Test.sol\":1846:1873  tickets[_idTicket].userAddr */\n      0x00\n      add\n      0x00\n      swap1\n      sload\n      swap1\n      0x0100\n      exp\n      swap1\n      div\n      0xffffffffffffffffffffffffffffffffffffffff\n      and\n        /* \"contracts/Test.sol\":1827:1873  address userAddr = tickets[_idTicket].userAddr */\n      swap1\n      pop\n        /* \"contracts/Test.sol\":1883:1899  Role changedRole */\n      0x00\n        /* \"contracts/Test.sol\":1902:1909  tickets */\n      dup1\n        /* \"contracts/Test.sol\":1910:1919  _idTicket */\n      dup4\n        /* \"contracts/Test.sol\":1902:1920  tickets[_idTicket] */\n      dup2\n      sload\n      dup2\n      lt\n      tag_198\n      jumpi\n      tag_199\n      tag_140\n      jump\t// in\n    tag_199:\n    tag_198:\n      swap1\n      0x00\n      mstore\n      keccak256(0x00, 0x20)\n      add\n        /* \"contracts/Test.sol\":1902:1925  tickets[_idTicket].role */\n      0x00\n      add\n      0x14\n      swap1\n      sload\n      swap1\n      0x0100\n      exp\n      swap1\n      div\n      0xff\n      and\n        /* \"contracts/Test.sol\":1883:1925  Role changedRole = tickets[_idTicket].role */\n      swap1\n      pop\n        /* \"contracts/Test.sol\":1958:1969  changedRole */\n      dup1\n        /* \"contracts/Test.sol\":1935:1940  users */\n      0x02\n        /* \"contracts/Test.sol\":1935:1950  users[userAddr] */\n      0x00\n        /* \"contracts/Test.sol\":1941:1949  userAddr */\n      dup5\n        /* \"contracts/Test.sol\":1935:1950  users[userAddr] */\n      0xffffffffffffffffffffffffffffffffffffffff\n      and\n      0xffffffffffffffffffffffffffffffffffffffff\n      and\n      dup2\n      mstore\n      0x20\n      add\n      swap1\n      dup2\n      mstore\n      0x20\n      add\n      0x00\n      keccak256\n        /* \"contracts/Test.sol\":1935:1955  users[userAddr].role */\n      0x00\n      add\n      0x00\n        /* \"contracts/Test.sol\":1935:1969  users[userAddr].role = changedRole */\n      0x0100\n      exp\n      dup2\n      sload\n      dup2\n      0xff\n      mul\n      not\n      and\n      swap1\n      dup4\n      0x02\n      dup2\n      gt\n      iszero\n      tag_201\n      jumpi\n      tag_202\n      tag_134\n      jump\t// in\n    tag_202:\n    tag_201:\n      mul\n      or\n      swap1\n      sstore\n      pop\n        /* \"contracts/Test.sol\":1817:2047  {... */\n      pop\n      pop\n        /* \"contracts/Test.sol\":1757:2047  function approveChangeRole(uint _idTicket) public OnlyOwner {... */\n      pop\n      jump\t// out\n        /* \"contracts/Test.sol\":2154:2366  function randMod(uint _modulus) public view returns(uint) {   ... */\n    tag_70:\n        /* \"contracts/Test.sol\":2206:2210  uint */\n      0x00\n        /* \"contracts/Test.sol\":2225:2239  uint randNonce */\n      dup1\n        /* \"contracts/Test.sol\":2249:2260  randNonce++ */\n      dup1\n      dup1\n      tag_204\n      swap1\n      tag_205\n      jump\t// in\n    tag_204:\n      swap2\n      pop\n      pop\n        /* \"contracts/Test.sol\":2351:2359  _modulus */\n      dup3\n        /* \"contracts/Test.sol\":2309:2324  block.timestamp */\n      timestamp\n        /* \"contracts/Test.sol\":2325:2335  msg.sender */\n      caller\n        /* \"contracts/Test.sol\":2336:2345  randNonce */\n      dup4\n        /* \"contracts/Test.sol\":2292:2346  abi.encodePacked(block.timestamp,msg.sender,randNonce) */\n      add(0x20, mload(0x40))\n      tag_206\n      swap4\n      swap3\n      swap2\n      swap1\n      tag_207\n      jump\t// in\n    tag_206:\n      mload(0x40)\n      0x20\n      dup2\n      dup4\n      sub\n      sub\n      dup2\n      mstore\n      swap1\n      0x40\n      mstore\n        /* \"contracts/Test.sol\":2282:2347  keccak256(abi.encodePacked(block.timestamp,msg.sender,randNonce)) */\n      dup1\n      mload\n      swap1\n      0x20\n      add\n      keccak256\n        /* \"contracts/Test.sol\":2277:2348  uint(keccak256(abi.encodePacked(block.timestamp,msg.sender,randNonce))) */\n      0x00\n      shr\n        /* \"contracts/Test.sol\":2277:2359  uint(keccak256(abi.encodePacked(block.timestamp,msg.sender,randNonce))) % _modulus */\n      tag_208\n      swap2\n      swap1\n      tag_209\n      jump\t// in\n    tag_208:\n        /* \"contracts/Test.sol\":2270:2359  return uint(keccak256(abi.encodePacked(block.timestamp,msg.sender,randNonce))) % _modulus */\n      swap2\n      pop\n      pop\n        /* \"contracts/Test.sol\":2154:2366  function randMod(uint _modulus) public view returns(uint) {   ... */\n      swap2\n      swap1\n      pop\n      jump\t// out\n        /* \"contracts/Test.sol\":2523:2837  function addItemsSupplier(uint _inStock, uint _price, string calldata _name, uint _expDate, address _addressSupp) public AccessControl(Role.Supplier, _addressSupp) {... */\n    tag_77:\n        /* \"contracts/Test.sol\":2658:2671  Role.Supplier */\n      0x02\n        /* \"contracts/Test.sol\":2673:2685  _addressSupp */\n      dup2\n        /* \"contracts/Test.sol\":1081:1086  _role */\n      dup2\n        /* \"contracts/Test.sol\":1055:1086  users[msg.sender].role == _role */\n      0x02\n      dup2\n      gt\n      iszero\n      tag_211\n      jumpi\n      tag_212\n      tag_134\n      jump\t// in\n    tag_212:\n    tag_211:\n        /* \"contracts/Test.sol\":1055:1060  users */\n      0x02\n        /* \"contracts/Test.sol\":1055:1072  users[msg.sender] */\n      0x00\n        /* \"contracts/Test.sol\":1061:1071  msg.sender */\n      caller\n        /* \"contracts/Test.sol\":1055:1072  users[msg.sender] */\n      0xffffffffffffffffffffffffffffffffffffffff\n      and\n      0xffffffffffffffffffffffffffffffffffffffff\n      and\n      dup2\n      mstore\n      0x20\n      add\n      swap1\n      dup2\n      mstore\n      0x20\n      add\n      0x00\n      keccak256\n        /* \"contracts/Test.sol\":1055:1077  users[msg.sender].role */\n      0x00\n      add\n      0x00\n      swap1\n      sload\n      swap1\n      0x0100\n      exp\n      swap1\n      div\n      0xff\n      and\n        /* \"contracts/Test.sol\":1055:1086  users[msg.sender].role == _role */\n      0x02\n      dup2\n      gt\n      iszero\n      tag_213\n      jumpi\n      tag_214\n      tag_134\n      jump\t// in\n    tag_214:\n    tag_213:\n      eq\n        /* \"contracts/Test.sol\":1047:1163  require(users[msg.sender].role == _role, unicode\"Ваша роль не позволяет это изменять\") */\n      tag_215\n      jumpi\n      mload(0x40)\n      0x08c379a000000000000000000000000000000000000000000000000000000000\n      dup2\n      mstore\n      0x04\n      add\n      tag_216\n      swap1\n      tag_217\n      jump\t// in\n    tag_216:\n      mload(0x40)\n      dup1\n      swap2\n      sub\n      swap1\n      revert\n    tag_215:\n        /* \"contracts/Test.sol\":1195:1200  _shop */\n      dup1\n        /* \"contracts/Test.sol\":1181:1200  msg.sender == _shop */\n      0xffffffffffffffffffffffffffffffffffffffff\n      and\n        /* \"contracts/Test.sol\":1181:1191  msg.sender */\n      caller\n        /* \"contracts/Test.sol\":1181:1200  msg.sender == _shop */\n      0xffffffffffffffffffffffffffffffffffffffff\n      and\n      eq\n        /* \"contracts/Test.sol\":1173:1279  require(msg.sender == _shop, unicode\"Магазин не соответсвует отправителю\") */\n      tag_218\n      jumpi\n      mload(0x40)\n      0x08c379a000000000000000000000000000000000000000000000000000000000\n      dup2\n      mstore\n      0x04\n      add\n      tag_219\n      swap1\n      tag_220\n      jump\t// in\n    tag_219:\n      mload(0x40)\n      dup1\n      swap2\n      sub\n      swap1\n      revert\n    tag_218:\n        /* \"contracts/Test.sol\":2697:2716  Product memory item */\n      0x00\n        /* \"contracts/Test.sol\":2719:2779  Product(_addressSupp, _inStock, _price / 2, _name, _expDate) */\n      mload(0x40)\n      dup1\n      0xa0\n      add\n      0x40\n      mstore\n      dup1\n        /* \"contracts/Test.sol\":2727:2739  _addressSupp */\n      dup6\n        /* \"contracts/Test.sol\":2719:2779  Product(_addressSupp, _inStock, _price / 2, _name, _expDate) */\n      0xffffffffffffffffffffffffffffffffffffffff\n      and\n      dup2\n      mstore\n      0x20\n      add\n        /* \"contracts/Test.sol\":2741:2749  _inStock */\n      dup11\n        /* \"contracts/Test.sol\":2719:2779  Product(_addressSupp, _inStock, _price / 2, _name, _expDate) */\n      dup2\n      mstore\n      0x20\n      add\n        /* \"contracts/Test.sol\":2760:2761  2 */\n      0x02\n        /* \"contracts/Test.sol\":2751:2757  _price */\n      dup11\n        /* \"contracts/Test.sol\":2751:2761  _price / 2 */\n      tag_222\n      swap2\n      swap1\n      tag_223\n      jump\t// in\n    tag_222:\n        /* \"contracts/Test.sol\":2719:2779  Product(_addressSupp, _inStock, _price / 2, _name, _expDate) */\n      dup2\n      mstore\n      0x20\n      add\n        /* \"contracts/Test.sol\":2763:2768  _name */\n      dup9\n      dup9\n        /* \"contracts/Test.sol\":2719:2779  Product(_addressSupp, _inStock, _price / 2, _name, _expDate) */\n      dup1\n      dup1\n      0x1f\n      add\n      0x20\n      dup1\n      swap2\n      div\n      mul\n      0x20\n      add\n      mload(0x40)\n      swap1\n      dup2\n      add\n      0x40\n      mstore\n      dup1\n      swap4\n      swap3\n      swap2\n      swap1\n      dup2\n      dup2\n      mstore\n      0x20\n      add\n      dup4\n      dup4\n      dup1\n      dup3\n      dup5\n      calldatacopy\n      0x00\n      dup2\n      dup5\n      add\n      mstore\n      not(0x1f)\n      0x1f\n      dup3\n      add\n      and\n      swap1\n      pop\n      dup1\n      dup4\n      add\n      swap3\n      pop\n      pop\n      pop\n      pop\n      pop\n      pop\n      pop\n      dup2\n      mstore\n      0x20\n      add\n        /* \"contracts/Test.sol\":2770:2778  _expDate */\n      dup7\n        /* \"contracts/Test.sol\":2719:2779  Product(_addressSupp, _inStock, _price / 2, _name, _expDate) */\n      dup2\n      mstore\n      pop\n        /* \"contracts/Test.sol\":2697:2779  Product memory item = Product(_addressSupp, _inStock, _price / 2, _name, _expDate) */\n      swap1\n      pop\n        /* \"contracts/Test.sol\":2789:2805  supplierProducts */\n      0x05\n        /* \"contracts/Test.sol\":2789:2819  supplierProducts[_addressSupp] */\n      0x00\n        /* \"contracts/Test.sol\":2806:2818  _addressSupp */\n      dup6\n        /* \"contracts/Test.sol\":2789:2819  supplierProducts[_addressSupp] */\n      0xffffffffffffffffffffffffffffffffffffffff\n      and\n      0xffffffffffffffffffffffffffffffffffffffff\n      and\n      dup2\n      mstore\n      0x20\n      add\n      swap1\n      dup2\n      mstore\n      0x20\n      add\n      0x00\n      keccak256\n        /* \"contracts/Test.sol\":2825:2829  item */\n      dup2\n        /* \"contracts/Test.sol\":2789:2830  supplierProducts[_addressSupp].push(item) */\n      swap1\n      dup1\n      0x01\n      dup2\n      sload\n      add\n      dup1\n      dup3\n      sstore\n      dup1\n      swap2\n      pop\n      pop\n      0x01\n      swap1\n      sub\n      swap1\n      0x00\n      mstore\n      keccak256(0x00, 0x20)\n      swap1\n      0x05\n      mul\n      add\n      0x00\n      swap1\n      swap2\n      swap1\n      swap2\n      swap1\n      swap2\n      pop\n      0x00\n      dup3\n      add\n      mload\n      dup2\n      0x00\n      add\n      exp(0x0100, 0x00)\n      dup2\n      sload\n      dup2\n      0xffffffffffffffffffffffffffffffffffffffff\n      mul\n      not\n      and\n      swap1\n      dup4\n      0xffffffffffffffffffffffffffffffffffffffff\n      and\n      mul\n      or\n      swap1\n      sstore\n      pop\n      0x20\n      dup3\n      add\n      mload\n      dup2\n      0x01\n      add\n      sstore\n      0x40\n      dup3\n      add\n      mload\n      dup2\n      0x02\n      add\n      sstore\n      0x60\n      dup3\n      add\n      mload\n      dup2\n      0x03\n      add\n      swap1\n      dup2\n      tag_225\n      swap2\n      swap1\n      tag_226\n      jump\t// in\n    tag_225:\n      pop\n      0x80\n      dup3\n      add\n      mload\n      dup2\n      0x04\n      add\n      sstore\n      pop\n      pop\n        /* \"contracts/Test.sol\":2687:2837  {... */\n      pop\n        /* \"contracts/Test.sol\":2523:2837  function addItemsSupplier(uint _inStock, uint _price, string calldata _name, uint _expDate, address _addressSupp) public AccessControl(Role.Supplier, _addressSupp) {... */\n      pop\n      pop\n      pop\n      pop\n      pop\n      pop\n      pop\n      pop\n      jump\t// out\n        /* \"contracts/Test.sol\":163:183  address public owner */\n    tag_80:\n      0x01\n      0x00\n      swap1\n      sload\n      swap1\n      0x0100\n      exp\n      swap1\n      div\n      0xffffffffffffffffffffffffffffffffffffffff\n      and\n      dup2\n      jump\t// out\n        /* \"contracts/Test.sol\":4731:6327  function purchase(address _shop, uint _amount, uint _id, string memory _ref ) public payable {... */\n    tag_86:\n        /* \"contracts/Test.sol\":4864:4873  Role.User */\n      0x00\n        /* \"contracts/Test.sol\":4838:4873  users[msg.sender].role == Role.User */\n      0x02\n      dup2\n      gt\n      iszero\n      tag_228\n      jumpi\n      tag_229\n      tag_134\n      jump\t// in\n    tag_229:\n    tag_228:\n        /* \"contracts/Test.sol\":4838:4843  users */\n      0x02\n        /* \"contracts/Test.sol\":4838:4855  users[msg.sender] */\n      0x00\n        /* \"contracts/Test.sol\":4844:4854  msg.sender */\n      caller\n        /* \"contracts/Test.sol\":4838:4855  users[msg.sender] */\n      0xffffffffffffffffffffffffffffffffffffffff\n      and\n      0xffffffffffffffffffffffffffffffffffffffff\n      and\n      dup2\n      mstore\n      0x20\n      add\n      swap1\n      dup2\n      mstore\n      0x20\n      add\n      0x00\n      keccak256\n        /* \"contracts/Test.sol\":4838:4860  users[msg.sender].role */\n      0x00\n      add\n      0x00\n      swap1\n      sload\n      swap1\n      0x0100\n      exp\n      swap1\n      div\n      0xff\n      and\n        /* \"contracts/Test.sol\":4838:4873  users[msg.sender].role == Role.User */\n      0x02\n      dup2\n      gt\n      iszero\n      tag_230\n      jumpi\n      tag_231\n      tag_134\n      jump\t// in\n    tag_231:\n    tag_230:\n      sub\n        /* \"contracts/Test.sol\":4834:4939  if (users[msg.sender].role == Role.User) {... */\n      tag_232\n      jumpi\n        /* \"contracts/Test.sol\":4909:4928  User( Role.User, 0) */\n      mload(0x40)\n      dup1\n      0x40\n      add\n      0x40\n      mstore\n      dup1\n        /* \"contracts/Test.sol\":4915:4924  Role.User */\n      0x00\n        /* \"contracts/Test.sol\":4909:4928  User( Role.User, 0) */\n      0x02\n      dup2\n      gt\n      iszero\n      tag_233\n      jumpi\n      tag_234\n      tag_134\n      jump\t// in\n    tag_234:\n    tag_233:\n      dup2\n      mstore\n      0x20\n      add\n        /* \"contracts/Test.sol\":4926:4927  0 */\n      0x00\n        /* \"contracts/Test.sol\":4909:4928  User( Role.User, 0) */\n      dup2\n      mstore\n      pop\n        /* \"contracts/Test.sol\":4889:4894  users */\n      0x02\n        /* \"contracts/Test.sol\":4889:4906  users[msg.sender] */\n      0x00\n        /* \"contracts/Test.sol\":4895:4905  msg.sender */\n      caller\n        /* \"contracts/Test.sol\":4889:4906  users[msg.sender] */\n      0xffffffffffffffffffffffffffffffffffffffff\n      and\n      0xffffffffffffffffffffffffffffffffffffffff\n      and\n      dup2\n      mstore\n      0x20\n      add\n      swap1\n      dup2\n      mstore\n      0x20\n      add\n      0x00\n      keccak256\n        /* \"contracts/Test.sol\":4889:4928  users[msg.sender] = User( Role.User, 0) */\n      0x00\n      dup3\n      add\n      mload\n      dup2\n      0x00\n      add\n      exp(0x0100, 0x00)\n      dup2\n      sload\n      dup2\n      0xff\n      mul\n      not\n      and\n      swap1\n      dup4\n      0x02\n      dup2\n      gt\n      iszero\n      tag_235\n      jumpi\n      tag_236\n      tag_134\n      jump\t// in\n    tag_236:\n    tag_235:\n      mul\n      or\n      swap1\n      sstore\n      pop\n      0x20\n      dup3\n      add\n      mload\n      dup2\n      0x01\n      add\n      sstore\n      swap1\n      pop\n      pop\n        /* \"contracts/Test.sol\":4834:4939  if (users[msg.sender].role == Role.User) {... */\n    tag_232:\n        /* \"contracts/Test.sol\":4975:4976  0 */\n      0x00\n        /* \"contracts/Test.sol\":4965:4972  _amount */\n      dup4\n        /* \"contracts/Test.sol\":4965:4976  _amount > 0 */\n      gt\n        /* \"contracts/Test.sol\":4957:5019  require(_amount > 0, \"Purchase amount must be greater than 0\") */\n      tag_237\n      jumpi\n      mload(0x40)\n      0x08c379a000000000000000000000000000000000000000000000000000000000\n      dup2\n      mstore\n      0x04\n      add\n      tag_238\n      swap1\n      tag_239\n      jump\t// in\n    tag_238:\n      mload(0x40)\n      dup1\n      swap2\n      sub\n      swap1\n      revert\n    tag_237:\n        /* \"contracts/Test.sol\":5043:5057  marketProducts */\n      0x04\n        /* \"contracts/Test.sol\":5043:5064  marketProducts[_shop] */\n      0x00\n        /* \"contracts/Test.sol\":5058:5063  _shop */\n      dup6\n        /* \"contracts/Test.sol\":5043:5064  marketProducts[_shop] */\n      0xffffffffffffffffffffffffffffffffffffffff\n      and\n      0xffffffffffffffffffffffffffffffffffffffff\n      and\n      dup2\n      mstore\n      0x20\n      add\n      swap1\n      dup2\n      mstore\n      0x20\n      add\n      0x00\n      keccak256\n        /* \"contracts/Test.sol\":5043:5071  marketProducts[_shop].length */\n      dup1\n      sload\n      swap1\n      pop\n        /* \"contracts/Test.sol\":5037:5040  _id */\n      dup3\n        /* \"contracts/Test.sol\":5037:5071  _id < marketProducts[_shop].length */\n      lt\n        /* \"contracts/Test.sol\":5029:5094  require(_id < marketProducts[_shop].length, \"Invalid product ID\") */\n      tag_240\n      jumpi\n      mload(0x40)\n      0x08c379a000000000000000000000000000000000000000000000000000000000\n      dup2\n      mstore\n      0x04\n      add\n      tag_241\n      swap1\n      tag_242\n      jump\t// in\n    tag_241:\n      mload(0x40)\n      dup1\n      swap2\n      sub\n      swap1\n      revert\n    tag_240:\n        /* \"contracts/Test.sol\":5123:5137  marketProducts */\n      0x04\n        /* \"contracts/Test.sol\":5123:5144  marketProducts[_shop] */\n      0x00\n        /* \"contracts/Test.sol\":5138:5143  _shop */\n      dup6\n        /* \"contracts/Test.sol\":5123:5144  marketProducts[_shop] */\n      0xffffffffffffffffffffffffffffffffffffffff\n      and\n      0xffffffffffffffffffffffffffffffffffffffff\n      and\n      dup2\n      mstore\n      0x20\n      add\n      swap1\n      dup2\n      mstore\n      0x20\n      add\n      0x00\n      keccak256\n        /* \"contracts/Test.sol\":5145:5148  _id */\n      dup3\n        /* \"contracts/Test.sol\":5123:5149  marketProducts[_shop][_id] */\n      dup2\n      sload\n      dup2\n      lt\n      tag_243\n      jumpi\n      tag_244\n      tag_140\n      jump\t// in\n    tag_244:\n    tag_243:\n      swap1\n      0x00\n      mstore\n      keccak256(0x00, 0x20)\n      swap1\n      0x05\n      mul\n      add\n        /* \"contracts/Test.sol\":5123:5157  marketProducts[_shop][_id].inStock */\n      0x01\n      add\n      sload\n        /* \"contracts/Test.sol\":5112:5119  _amount */\n      dup4\n        /* \"contracts/Test.sol\":5112:5157  _amount <= marketProducts[_shop][_id].inStock */\n      gt\n      iszero\n        /* \"contracts/Test.sol\":5104:5188  require(_amount <= marketProducts[_shop][_id].inStock, \"Not enough stock available\") */\n      tag_246\n      jumpi\n      mload(0x40)\n      0x08c379a000000000000000000000000000000000000000000000000000000000\n      dup2\n      mstore\n      0x04\n      add\n      tag_247\n      swap1\n      tag_248\n      jump\t// in\n    tag_247:\n      mload(0x40)\n      dup1\n      swap2\n      sub\n      swap1\n      revert\n    tag_246:\n        /* \"contracts/Test.sol\":5199:5214  uint totalPrice */\n      0x00\n        /* \"contracts/Test.sol\":5262:5269  1 ether */\n      0x0de0b6b3a7640000\n        /* \"contracts/Test.sol\":5227:5241  marketProducts */\n      0x04\n        /* \"contracts/Test.sol\":5227:5248  marketProducts[_shop] */\n      0x00\n        /* \"contracts/Test.sol\":5242:5247  _shop */\n      dup8\n        /* \"contracts/Test.sol\":5227:5248  marketProducts[_shop] */\n      0xffffffffffffffffffffffffffffffffffffffff\n      and\n      0xffffffffffffffffffffffffffffffffffffffff\n      and\n      dup2\n      mstore\n      0x20\n      add\n      swap1\n      dup2\n      mstore\n      0x20\n      add\n      0x00\n      keccak256\n        /* \"contracts/Test.sol\":5249:5252  _id */\n      dup5\n        /* \"contracts/Test.sol\":5227:5253  marketProducts[_shop][_id] */\n      dup2\n      sload\n      dup2\n      lt\n      tag_249\n      jumpi\n      tag_250\n      tag_140\n      jump\t// in\n    tag_250:\n    tag_249:\n      swap1\n      0x00\n      mstore\n      keccak256(0x00, 0x20)\n      swap1\n      0x05\n      mul\n      add\n        /* \"contracts/Test.sol\":5227:5259  marketProducts[_shop][_id].price */\n      0x02\n      add\n      sload\n        /* \"contracts/Test.sol\":5217:5224  _amount */\n      dup6\n        /* \"contracts/Test.sol\":5217:5259  _amount * marketProducts[_shop][_id].price */\n      tag_252\n      swap2\n      swap1\n      tag_153\n      jump\t// in\n    tag_252:\n        /* \"contracts/Test.sol\":5217:5269  _amount * marketProducts[_shop][_id].price * 1 ether */\n      tag_253\n      swap2\n      swap1\n      tag_153\n      jump\t// in\n    tag_253:\n        /* \"contracts/Test.sol\":5199:5269  uint totalPrice = _amount * marketProducts[_shop][_id].price * 1 ether */\n      swap1\n      pop\n        /* \"contracts/Test.sol\":5303:5313  msg.sender */\n      caller\n        /* \"contracts/Test.sol\":5284:5313  referrals[_ref] == msg.sender */\n      0xffffffffffffffffffffffffffffffffffffffff\n      and\n        /* \"contracts/Test.sol\":5284:5293  referrals */\n      0x06\n        /* \"contracts/Test.sol\":5294:5298  _ref */\n      dup4\n        /* \"contracts/Test.sol\":5284:5299  referrals[_ref] */\n      mload(0x40)\n      tag_254\n      swap2\n      swap1\n      tag_255\n      jump\t// in\n    tag_254:\n      swap1\n      dup2\n      mstore\n      0x20\n      add\n      mload(0x40)\n      dup1\n      swap2\n      sub\n      swap1\n      keccak256\n      0x00\n      swap1\n      sload\n      swap1\n      0x0100\n      exp\n      swap1\n      div\n      0xffffffffffffffffffffffffffffffffffffffff\n      and\n        /* \"contracts/Test.sol\":5284:5313  referrals[_ref] == msg.sender */\n      0xffffffffffffffffffffffffffffffffffffffff\n      and\n      sub\n        /* \"contracts/Test.sol\":5280:5418  if (referrals[_ref] == msg.sender) {... */\n      tag_256\n      jumpi\n        /* \"contracts/Test.sol\":5361:5364  100 */\n      0x64\n        /* \"contracts/Test.sol\":5356:5358  90 */\n      0x5a\n        /* \"contracts/Test.sol\":5343:5353  totalPrice */\n      dup3\n        /* \"contracts/Test.sol\":5343:5358  totalPrice * 90 */\n      tag_257\n      swap2\n      swap1\n      tag_153\n      jump\t// in\n    tag_257:\n        /* \"contracts/Test.sol\":5343:5364  totalPrice * 90 / 100 */\n      tag_258\n      swap2\n      swap1\n      tag_223\n      jump\t// in\n    tag_258:\n        /* \"contracts/Test.sol\":5329:5365  totalPrice = (totalPrice * 90 / 100) */\n      swap1\n      pop\n        /* \"contracts/Test.sol\":5405:5406  0 */\n      0x00\n        /* \"contracts/Test.sol\":5379:5388  referrals */\n      0x06\n        /* \"contracts/Test.sol\":5389:5393  _ref */\n      dup4\n        /* \"contracts/Test.sol\":5379:5394  referrals[_ref] */\n      mload(0x40)\n      tag_259\n      swap2\n      swap1\n      tag_255\n      jump\t// in\n    tag_259:\n      swap1\n      dup2\n      mstore\n      0x20\n      add\n      mload(0x40)\n      dup1\n      swap2\n      sub\n      swap1\n      keccak256\n      0x00\n        /* \"contracts/Test.sol\":5379:5407  referrals[_ref] = address(0) */\n      0x0100\n      exp\n      dup2\n      sload\n      dup2\n      0xffffffffffffffffffffffffffffffffffffffff\n      mul\n      not\n      and\n      swap1\n      dup4\n      0xffffffffffffffffffffffffffffffffffffffff\n      and\n      mul\n      or\n      swap1\n      sstore\n      pop\n        /* \"contracts/Test.sol\":5280:5418  if (referrals[_ref] == msg.sender) {... */\n    tag_256:\n        /* \"contracts/Test.sol\":5449:5459  totalPrice */\n      dup1\n        /* \"contracts/Test.sol\":5436:5445  msg.value */\n      callvalue\n        /* \"contracts/Test.sol\":5436:5459  msg.value >= totalPrice */\n      lt\n      iszero\n        /* \"contracts/Test.sol\":5428:5487  require(msg.value >= totalPrice, \"Insufficient funds sent\") */\n      tag_260\n      jumpi\n      mload(0x40)\n      0x08c379a000000000000000000000000000000000000000000000000000000000\n      dup2\n      mstore\n      0x04\n      add\n      tag_261\n      swap1\n      tag_262\n      jump\t// in\n    tag_261:\n      mload(0x40)\n      dup1\n      swap2\n      sub\n      swap1\n      revert\n    tag_260:\n        /* \"contracts/Test.sol\":5497:5515  bool productExists */\n      0x00\n        /* \"contracts/Test.sol\":5539:5545  uint i */\n      dup1\n        /* \"contracts/Test.sol\":5534:5865  for (uint i = 0; i < userProducts[msg.sender].length; i++) {... */\n    tag_263:\n        /* \"contracts/Test.sol\":5555:5567  userProducts */\n      0x03\n        /* \"contracts/Test.sol\":5555:5579  userProducts[msg.sender] */\n      0x00\n        /* \"contracts/Test.sol\":5568:5578  msg.sender */\n      caller\n        /* \"contracts/Test.sol\":5555:5579  userProducts[msg.sender] */\n      0xffffffffffffffffffffffffffffffffffffffff\n      and\n      0xffffffffffffffffffffffffffffffffffffffff\n      and\n      dup2\n      mstore\n      0x20\n      add\n      swap1\n      dup2\n      mstore\n      0x20\n      add\n      0x00\n      keccak256\n        /* \"contracts/Test.sol\":5555:5586  userProducts[msg.sender].length */\n      dup1\n      sload\n      swap1\n      pop\n        /* \"contracts/Test.sol\":5551:5552  i */\n      dup2\n        /* \"contracts/Test.sol\":5551:5586  i < userProducts[msg.sender].length */\n      lt\n        /* \"contracts/Test.sol\":5534:5865  for (uint i = 0; i < userProducts[msg.sender].length; i++) {... */\n      iszero\n      tag_264\n      jumpi\n        /* \"contracts/Test.sol\":5681:5693  userProducts */\n      0x03\n        /* \"contracts/Test.sol\":5681:5700  userProducts[_shop] */\n      0x00\n        /* \"contracts/Test.sol\":5694:5699  _shop */\n      dup9\n        /* \"contracts/Test.sol\":5681:5700  userProducts[_shop] */\n      0xffffffffffffffffffffffffffffffffffffffff\n      and\n      0xffffffffffffffffffffffffffffffffffffffff\n      and\n      dup2\n      mstore\n      0x20\n      add\n      swap1\n      dup2\n      mstore\n      0x20\n      add\n      0x00\n      keccak256\n        /* \"contracts/Test.sol\":5701:5704  _id */\n      dup6\n        /* \"contracts/Test.sol\":5681:5705  userProducts[_shop][_id] */\n      dup2\n      sload\n      dup2\n      lt\n      tag_266\n      jumpi\n      tag_267\n      tag_140\n      jump\t// in\n    tag_267:\n    tag_266:\n      swap1\n      0x00\n      mstore\n      keccak256(0x00, 0x20)\n      swap1\n      0x05\n      mul\n      add\n        /* \"contracts/Test.sol\":5681:5710  userProducts[_shop][_id].name */\n      0x03\n      add\n        /* \"contracts/Test.sol\":5665:5712  keccak256(bytes(userProducts[_shop][_id].name)) */\n      mload(0x40)\n      tag_269\n      swap2\n      swap1\n      tag_270\n      jump\t// in\n    tag_269:\n      mload(0x40)\n      dup1\n      swap2\n      sub\n      swap1\n      keccak256\n        /* \"contracts/Test.sol\":5627:5639  userProducts */\n      0x03\n        /* \"contracts/Test.sol\":5627:5651  userProducts[msg.sender] */\n      0x00\n        /* \"contracts/Test.sol\":5640:5650  msg.sender */\n      caller\n        /* \"contracts/Test.sol\":5627:5651  userProducts[msg.sender] */\n      0xffffffffffffffffffffffffffffffffffffffff\n      and\n      0xffffffffffffffffffffffffffffffffffffffff\n      and\n      dup2\n      mstore\n      0x20\n      add\n      swap1\n      dup2\n      mstore\n      0x20\n      add\n      0x00\n      keccak256\n        /* \"contracts/Test.sol\":5652:5653  i */\n      dup3\n        /* \"contracts/Test.sol\":5627:5654  userProducts[msg.sender][i] */\n      dup2\n      sload\n      dup2\n      lt\n      tag_271\n      jumpi\n      tag_272\n      tag_140\n      jump\t// in\n    tag_272:\n    tag_271:\n      swap1\n      0x00\n      mstore\n      keccak256(0x00, 0x20)\n      swap1\n      0x05\n      mul\n      add\n        /* \"contracts/Test.sol\":5627:5659  userProducts[msg.sender][i].name */\n      0x03\n      add\n        /* \"contracts/Test.sol\":5611:5661  keccak256(bytes(userProducts[msg.sender][i].name)) */\n      mload(0x40)\n      tag_274\n      swap2\n      swap1\n      tag_270\n      jump\t// in\n    tag_274:\n      mload(0x40)\n      dup1\n      swap2\n      sub\n      swap1\n      keccak256\n        /* \"contracts/Test.sol\":5611:5712  keccak256(bytes(userProducts[msg.sender][i].name)) == keccak256(bytes(userProducts[_shop][_id].name)) */\n      sub\n        /* \"contracts/Test.sol\":5607:5855  if (keccak256(bytes(userProducts[msg.sender][i].name)) == keccak256(bytes(userProducts[_shop][_id].name))) {... */\n      tag_275\n      jumpi\n        /* \"contracts/Test.sol\":5771:5778  _amount */\n      dup6\n        /* \"contracts/Test.sol\":5732:5744  userProducts */\n      0x03\n        /* \"contracts/Test.sol\":5732:5756  userProducts[msg.sender] */\n      0x00\n        /* \"contracts/Test.sol\":5745:5755  msg.sender */\n      caller\n        /* \"contracts/Test.sol\":5732:5756  userProducts[msg.sender] */\n      0xffffffffffffffffffffffffffffffffffffffff\n      and\n      0xffffffffffffffffffffffffffffffffffffffff\n      and\n      dup2\n      mstore\n      0x20\n      add\n      swap1\n      dup2\n      mstore\n      0x20\n      add\n      0x00\n      keccak256\n        /* \"contracts/Test.sol\":5757:5758  i */\n      dup3\n        /* \"contracts/Test.sol\":5732:5759  userProducts[msg.sender][i] */\n      dup2\n      sload\n      dup2\n      lt\n      tag_276\n      jumpi\n      tag_277\n      tag_140\n      jump\t// in\n    tag_277:\n    tag_276:\n      swap1\n      0x00\n      mstore\n      keccak256(0x00, 0x20)\n      swap1\n      0x05\n      mul\n      add\n        /* \"contracts/Test.sol\":5732:5767  userProducts[msg.sender][i].inStock */\n      0x01\n      add\n      0x00\n        /* \"contracts/Test.sol\":5732:5778  userProducts[msg.sender][i].inStock += _amount */\n      dup3\n      dup3\n      sload\n      tag_279\n      swap2\n      swap1\n      tag_162\n      jump\t// in\n    tag_279:\n      swap3\n      pop\n      pop\n      dup2\n      swap1\n      sstore\n      pop\n        /* \"contracts/Test.sol\":5812:5816  true */\n      0x01\n        /* \"contracts/Test.sol\":5796:5816  productExists = true */\n      swap2\n      pop\n        /* \"contracts/Test.sol\":5834:5839  break */\n      jump(tag_264)\n        /* \"contracts/Test.sol\":5607:5855  if (keccak256(bytes(userProducts[msg.sender][i].name)) == keccak256(bytes(userProducts[_shop][_id].name))) {... */\n    tag_275:\n        /* \"contracts/Test.sol\":5588:5591  i++ */\n      dup1\n      dup1\n      tag_280\n      swap1\n      tag_205\n      jump\t// in\n    tag_280:\n      swap2\n      pop\n      pop\n        /* \"contracts/Test.sol\":5534:5865  for (uint i = 0; i < userProducts[msg.sender].length; i++) {... */\n      jump(tag_263)\n    tag_264:\n      pop\n        /* \"contracts/Test.sol\":5880:5893  productExists */\n      dup1\n        /* \"contracts/Test.sol\":5875:6107  if (!productExists) {... */\n      tag_281\n      jumpi\n        /* \"contracts/Test.sol\":5909:5931  Product memory newItem */\n      0x00\n        /* \"contracts/Test.sol\":5934:6044  Product(msg.sender, _amount, marketProducts[_shop][_id].price, marketProducts[_shop][_id].name, randMod(1000)) */\n      mload(0x40)\n      dup1\n      0xa0\n      add\n      0x40\n      mstore\n      dup1\n        /* \"contracts/Test.sol\":5942:5952  msg.sender */\n      caller\n        /* \"contracts/Test.sol\":5934:6044  Product(msg.sender, _amount, marketProducts[_shop][_id].price, marketProducts[_shop][_id].name, randMod(1000)) */\n      0xffffffffffffffffffffffffffffffffffffffff\n      and\n      dup2\n      mstore\n      0x20\n      add\n        /* \"contracts/Test.sol\":5954:5961  _amount */\n      dup8\n        /* \"contracts/Test.sol\":5934:6044  Product(msg.sender, _amount, marketProducts[_shop][_id].price, marketProducts[_shop][_id].name, randMod(1000)) */\n      dup2\n      mstore\n      0x20\n      add\n        /* \"contracts/Test.sol\":5963:5977  marketProducts */\n      0x04\n        /* \"contracts/Test.sol\":5963:5984  marketProducts[_shop] */\n      0x00\n        /* \"contracts/Test.sol\":5978:5983  _shop */\n      dup11\n        /* \"contracts/Test.sol\":5963:5984  marketProducts[_shop] */\n      0xffffffffffffffffffffffffffffffffffffffff\n      and\n      0xffffffffffffffffffffffffffffffffffffffff\n      and\n      dup2\n      mstore\n      0x20\n      add\n      swap1\n      dup2\n      mstore\n      0x20\n      add\n      0x00\n      keccak256\n        /* \"contracts/Test.sol\":5985:5988  _id */\n      dup8\n        /* \"contracts/Test.sol\":5963:5989  marketProducts[_shop][_id] */\n      dup2\n      sload\n      dup2\n      lt\n      tag_282\n      jumpi\n      tag_283\n      tag_140\n      jump\t// in\n    tag_283:\n    tag_282:\n      swap1\n      0x00\n      mstore\n      keccak256(0x00, 0x20)\n      swap1\n      0x05\n      mul\n      add\n        /* \"contracts/Test.sol\":5963:5995  marketProducts[_shop][_id].price */\n      0x02\n      add\n      sload\n        /* \"contracts/Test.sol\":5934:6044  Product(msg.sender, _amount, marketProducts[_shop][_id].price, marketProducts[_shop][_id].name, randMod(1000)) */\n      dup2\n      mstore\n      0x20\n      add\n        /* \"contracts/Test.sol\":5997:6011  marketProducts */\n      0x04\n        /* \"contracts/Test.sol\":5997:6018  marketProducts[_shop] */\n      0x00\n        /* \"contracts/Test.sol\":6012:6017  _shop */\n      dup11\n        /* \"contracts/Test.sol\":5997:6018  marketProducts[_shop] */\n      0xffffffffffffffffffffffffffffffffffffffff\n      and\n      0xffffffffffffffffffffffffffffffffffffffff\n      and\n      dup2\n      mstore\n      0x20\n      add\n      swap1\n      dup2\n      mstore\n      0x20\n      add\n      0x00\n      keccak256\n        /* \"contracts/Test.sol\":6019:6022  _id */\n      dup8\n        /* \"contracts/Test.sol\":5997:6023  marketProducts[_shop][_id] */\n      dup2\n      sload\n      dup2\n      lt\n      tag_285\n      jumpi\n      tag_286\n      tag_140\n      jump\t// in\n    tag_286:\n    tag_285:\n      swap1\n      0x00\n      mstore\n      keccak256(0x00, 0x20)\n      swap1\n      0x05\n      mul\n      add\n        /* \"contracts/Test.sol\":5997:6028  marketProducts[_shop][_id].name */\n      0x03\n      add\n        /* \"contracts/Test.sol\":5934:6044  Product(msg.sender, _amount, marketProducts[_shop][_id].price, marketProducts[_shop][_id].name, randMod(1000)) */\n      dup1\n      sload\n      tag_288\n      swap1\n      tag_119\n      jump\t// in\n    tag_288:\n      dup1\n      0x1f\n      add\n      0x20\n      dup1\n      swap2\n      div\n      mul\n      0x20\n      add\n      mload(0x40)\n      swap1\n      dup2\n      add\n      0x40\n      mstore\n      dup1\n      swap3\n      swap2\n      swap1\n      dup2\n      dup2\n      mstore\n      0x20\n      add\n      dup3\n      dup1\n      sload\n      tag_289\n      swap1\n      tag_119\n      jump\t// in\n    tag_289:\n      dup1\n      iszero\n      tag_290\n      jumpi\n      dup1\n      0x1f\n      lt\n      tag_291\n      jumpi\n      0x0100\n      dup1\n      dup4\n      sload\n      div\n      mul\n      dup4\n      mstore\n      swap2\n      0x20\n      add\n      swap2\n      jump(tag_290)\n    tag_291:\n      dup3\n      add\n      swap2\n      swap1\n      0x00\n      mstore\n      keccak256(0x00, 0x20)\n      swap1\n    tag_292:\n      dup2\n      sload\n      dup2\n      mstore\n      swap1\n      0x01\n      add\n      swap1\n      0x20\n      add\n      dup1\n      dup4\n      gt\n      tag_292\n      jumpi\n      dup3\n      swap1\n      sub\n      0x1f\n      and\n      dup3\n      add\n      swap2\n    tag_290:\n      pop\n      pop\n      pop\n      pop\n      pop\n      dup2\n      mstore\n      0x20\n      add\n        /* \"contracts/Test.sol\":6030:6043  randMod(1000) */\n      tag_293\n        /* \"contracts/Test.sol\":6038:6042  1000 */\n      0x03e8\n        /* \"contracts/Test.sol\":6030:6037  randMod */\n      tag_70\n        /* \"contracts/Test.sol\":6030:6043  randMod(1000) */\n      jump\t// in\n    tag_293:\n        /* \"contracts/Test.sol\":5934:6044  Product(msg.sender, _amount, marketProducts[_shop][_id].price, marketProducts[_shop][_id].name, randMod(1000)) */\n      dup2\n      mstore\n      pop\n        /* \"contracts/Test.sol\":5909:6044  Product memory newItem = Product(msg.sender, _amount, marketProducts[_shop][_id].price, marketProducts[_shop][_id].name, randMod(1000)) */\n      swap1\n      pop\n        /* \"contracts/Test.sol\":6058:6070  userProducts */\n      0x03\n        /* \"contracts/Test.sol\":6058:6082  userProducts[msg.sender] */\n      0x00\n        /* \"contracts/Test.sol\":6071:6081  msg.sender */\n      caller\n        /* \"contracts/Test.sol\":6058:6082  userProducts[msg.sender] */\n      0xffffffffffffffffffffffffffffffffffffffff\n      and\n      0xffffffffffffffffffffffffffffffffffffffff\n      and\n      dup2\n      mstore\n      0x20\n      add\n      swap1\n      dup2\n      mstore\n      0x20\n      add\n      0x00\n      keccak256\n        /* \"contracts/Test.sol\":6088:6095  newItem */\n      dup2\n        /* \"contracts/Test.sol\":6058:6096  userProducts[msg.sender].push(newItem) */\n      swap1\n      dup1\n      0x01\n      dup2\n      sload\n      add\n      dup1\n      dup3\n      sstore\n      dup1\n      swap2\n      pop\n      pop\n      0x01\n      swap1\n      sub\n      swap1\n      0x00\n      mstore\n      keccak256(0x00, 0x20)\n      swap1\n      0x05\n      mul\n      add\n      0x00\n      swap1\n      swap2\n      swap1\n      swap2\n      swap1\n      swap2\n      pop\n      0x00\n      dup3\n      add\n      mload\n      dup2\n      0x00\n      add\n      exp(0x0100, 0x00)\n      dup2\n      sload\n      dup2\n      0xffffffffffffffffffffffffffffffffffffffff\n      mul\n      not\n      and\n      swap1\n      dup4\n      0xffffffffffffffffffffffffffffffffffffffff\n      and\n      mul\n      or\n      swap1\n      sstore\n      pop\n      0x20\n      dup3\n      add\n      mload\n      dup2\n      0x01\n      add\n      sstore\n      0x40\n      dup3\n      add\n      mload\n      dup2\n      0x02\n      add\n      sstore\n      0x60\n      dup3\n      add\n      mload\n      dup2\n      0x03\n      add\n      swap1\n      dup2\n      tag_295\n      swap2\n      swap1\n      tag_226\n      jump\t// in\n    tag_295:\n      pop\n      0x80\n      dup3\n      add\n      mload\n      dup2\n      0x04\n      add\n      sstore\n      pop\n      pop\n        /* \"contracts/Test.sol\":5895:6107  {... */\n      pop\n        /* \"contracts/Test.sol\":5875:6107  if (!productExists) {... */\n    tag_281:\n        /* \"contracts/Test.sol\":6155:6162  _amount */\n      dup5\n        /* \"contracts/Test.sol\":6117:6131  marketProducts */\n      0x04\n        /* \"contracts/Test.sol\":6117:6138  marketProducts[_shop] */\n      0x00\n        /* \"contracts/Test.sol\":6132:6137  _shop */\n      dup9\n        /* \"contracts/Test.sol\":6117:6138  marketProducts[_shop] */\n      0xffffffffffffffffffffffffffffffffffffffff\n      and\n      0xffffffffffffffffffffffffffffffffffffffff\n      and\n      dup2\n      mstore\n      0x20\n      add\n      swap1\n      dup2\n      mstore\n      0x20\n      add\n      0x00\n      keccak256\n        /* \"contracts/Test.sol\":6139:6142  _id */\n      dup6\n        /* \"contracts/Test.sol\":6117:6143  marketProducts[_shop][_id] */\n      dup2\n      sload\n      dup2\n      lt\n      tag_296\n      jumpi\n      tag_297\n      tag_140\n      jump\t// in\n    tag_297:\n    tag_296:\n      swap1\n      0x00\n      mstore\n      keccak256(0x00, 0x20)\n      swap1\n      0x05\n      mul\n      add\n        /* \"contracts/Test.sol\":6117:6151  marketProducts[_shop][_id].inStock */\n      0x01\n      add\n      0x00\n        /* \"contracts/Test.sol\":6117:6162  marketProducts[_shop][_id].inStock -= _amount */\n      dup3\n      dup3\n      sload\n      tag_299\n      swap2\n      swap1\n      tag_169\n      jump\t// in\n    tag_299:\n      swap3\n      pop\n      pop\n      dup2\n      swap1\n      sstore\n      pop\n        /* \"contracts/Test.sol\":6195:6205  totalPrice */\n      dup2\n        /* \"contracts/Test.sol\":6172:6177  users */\n      0x02\n        /* \"contracts/Test.sol\":6172:6184  users[_shop] */\n      0x00\n        /* \"contracts/Test.sol\":6178:6183  _shop */\n      dup9\n        /* \"contracts/Test.sol\":6172:6184  users[_shop] */\n      0xffffffffffffffffffffffffffffffffffffffff\n      and\n      0xffffffffffffffffffffffffffffffffffffffff\n      and\n      dup2\n      mstore\n      0x20\n      add\n      swap1\n      dup2\n      mstore\n      0x20\n      add\n      0x00\n      keccak256\n        /* \"contracts/Test.sol\":6172:6192  users[_shop].balance */\n      0x01\n      add\n        /* \"contracts/Test.sol\":6172:6205  users[_shop].balance = totalPrice */\n      dup2\n      swap1\n      sstore\n      pop\n        /* \"contracts/Test.sol\":6232:6242  totalPrice */\n      dup2\n        /* \"contracts/Test.sol\":6220:6229  msg.value */\n      callvalue\n        /* \"contracts/Test.sol\":6220:6242  msg.value > totalPrice */\n      gt\n        /* \"contracts/Test.sol\":6216:6321  if (msg.value > totalPrice) {... */\n      iszero\n      tag_300\n      jumpi\n        /* \"contracts/Test.sol\":6266:6276  msg.sender */\n      caller\n        /* \"contracts/Test.sol\":6258:6286  payable(msg.sender).transfer */\n      0xffffffffffffffffffffffffffffffffffffffff\n      and\n        /* \"contracts/Test.sol\":6258:6310  payable(msg.sender).transfer(msg.value - totalPrice) */\n      0x08fc\n        /* \"contracts/Test.sol\":6299:6309  totalPrice */\n      dup4\n        /* \"contracts/Test.sol\":6287:6296  msg.value */\n      callvalue\n        /* \"contracts/Test.sol\":6287:6309  msg.value - totalPrice */\n      tag_301\n      swap2\n      swap1\n      tag_169\n      jump\t// in\n    tag_301:\n        /* \"contracts/Test.sol\":6258:6310  payable(msg.sender).transfer(msg.value - totalPrice) */\n      swap1\n      dup2\n      iszero\n      mul\n      swap1\n      mload(0x40)\n      0x00\n      mload(0x40)\n      dup1\n      dup4\n      sub\n      dup2\n      dup6\n      dup9\n      dup9\n      call\n      swap4\n      pop\n      pop\n      pop\n      pop\n      iszero\n      dup1\n      iszero\n      tag_303\n      jumpi\n      returndatasize\n      0x00\n      dup1\n      returndatacopy\n      revert(0x00, returndatasize)\n    tag_303:\n      pop\n        /* \"contracts/Test.sol\":6216:6321  if (msg.value > totalPrice) {... */\n    tag_300:\n        /* \"contracts/Test.sol\":4824:6327  {... */\n      pop\n      pop\n        /* \"contracts/Test.sol\":4731:6327  function purchase(address _shop, uint _amount, uint _id, string memory _ref ) public payable {... */\n      pop\n      pop\n      pop\n      pop\n      jump\t// out\n        /* \"contracts/Test.sol\":2372:2516  function genRef(string memory _nameRef, address _user) public {... */\n    tag_91:\n        /* \"contracts/Test.sol\":2466:2471  _user */\n      dup1\n        /* \"contracts/Test.sol\":2452:2471  msg.sender != _user */\n      0xffffffffffffffffffffffffffffffffffffffff\n      and\n        /* \"contracts/Test.sol\":2452:2462  msg.sender */\n      caller\n        /* \"contracts/Test.sol\":2452:2471  msg.sender != _user */\n      0xffffffffffffffffffffffffffffffffffffffff\n      and\n      sub\n        /* \"contracts/Test.sol\":2444:2472  require(msg.sender != _user) */\n      tag_305\n      jumpi\n      0x00\n      dup1\n      revert\n    tag_305:\n        /* \"contracts/Test.sol\":2504:2509  _user */\n      dup1\n        /* \"contracts/Test.sol\":2482:2491  referrals */\n      0x06\n        /* \"contracts/Test.sol\":2492:2500  _nameRef */\n      dup4\n        /* \"contracts/Test.sol\":2482:2501  referrals[_nameRef] */\n      mload(0x40)\n      tag_306\n      swap2\n      swap1\n      tag_255\n      jump\t// in\n    tag_306:\n      swap1\n      dup2\n      mstore\n      0x20\n      add\n      mload(0x40)\n      dup1\n      swap2\n      sub\n      swap1\n      keccak256\n      0x00\n        /* \"contracts/Test.sol\":2482:2509  referrals[_nameRef] = _user */\n      0x0100\n      exp\n      dup2\n      sload\n      dup2\n      0xffffffffffffffffffffffffffffffffffffffff\n      mul\n      not\n      and\n      swap1\n      dup4\n      0xffffffffffffffffffffffffffffffffffffffff\n      and\n      mul\n      or\n      swap1\n      sstore\n      pop\n        /* \"contracts/Test.sol\":2372:2516  function genRef(string memory _nameRef, address _user) public {... */\n      pop\n      pop\n      jump\t// out\n        /* \"contracts/Test.sol\":637:674  mapping(address => User) public users */\n    tag_96:\n      mstore(0x20, 0x02)\n      dup1\n      0x00\n      mstore\n      keccak256(0x00, 0x40)\n      0x00\n      swap2\n      pop\n      swap1\n      pop\n      dup1\n      0x00\n      add\n      0x00\n      swap1\n      sload\n      swap1\n      0x0100\n      exp\n      swap1\n      div\n      0xff\n      and\n      swap1\n      dup1\n      0x01\n      add\n      sload\n      swap1\n      pop\n      dup3\n      jump\t// out\n        /* \"contracts/Test.sol\":1480:1562  function makeUser() public {... */\n    tag_101:\n        /* \"contracts/Test.sol\":1537:1555  User(Role.User, 0) */\n      mload(0x40)\n      dup1\n      0x40\n      add\n      0x40\n      mstore\n      dup1\n        /* \"contracts/Test.sol\":1542:1551  Role.User */\n      0x00\n        /* \"contracts/Test.sol\":1537:1555  User(Role.User, 0) */\n      0x02\n      dup2\n      gt\n      iszero\n      tag_308\n      jumpi\n      tag_309\n      tag_134\n      jump\t// in\n    tag_309:\n    tag_308:\n      dup2\n      mstore\n      0x20\n      add\n        /* \"contracts/Test.sol\":1553:1554  0 */\n      0x00\n        /* \"contracts/Test.sol\":1537:1555  User(Role.User, 0) */\n      dup2\n      mstore\n      pop\n        /* \"contracts/Test.sol\":1517:1522  users */\n      0x02\n        /* \"contracts/Test.sol\":1517:1534  users[msg.sender] */\n      0x00\n        /* \"contracts/Test.sol\":1523:1533  msg.sender */\n      caller\n        /* \"contracts/Test.sol\":1517:1534  users[msg.sender] */\n      0xffffffffffffffffffffffffffffffffffffffff\n      and\n      0xffffffffffffffffffffffffffffffffffffffff\n      and\n      dup2\n      mstore\n      0x20\n      add\n      swap1\n      dup2\n      mstore\n      0x20\n      add\n      0x00\n      keccak256\n        /* \"contracts/Test.sol\":1517:1555  users[msg.sender] = User(Role.User, 0) */\n      0x00\n      dup3\n      add\n      mload\n      dup2\n      0x00\n      add\n      exp(0x0100, 0x00)\n      dup2\n      sload\n      dup2\n      0xff\n      mul\n      not\n      and\n      swap1\n      dup4\n      0x02\n      dup2\n      gt\n      iszero\n      tag_310\n      jumpi\n      tag_311\n      tag_134\n      jump\t// in\n    tag_311:\n    tag_310:\n      mul\n      or\n      swap1\n      sstore\n      pop\n      0x20\n      dup3\n      add\n      mload\n      dup2\n      0x01\n      add\n      sstore\n      swap1\n      pop\n      pop\n        /* \"contracts/Test.sol\":1480:1562  function makeUser() public {... */\n      jump\t// out\n        /* \"contracts/Test.sol\":851:894  mapping(string => address) public referrals */\n    tag_106:\n      0x06\n      dup2\n      dup1\n      mload\n      0x20\n      dup2\n      add\n      dup3\n      add\n      dup1\n      mload\n      dup5\n      dup3\n      mstore\n      0x20\n      dup4\n      add\n      0x20\n      dup6\n      add\n      keccak256\n      dup2\n      dup4\n      mstore\n      dup1\n      swap6\n      pop\n      pop\n      pop\n      pop\n      pop\n      pop\n      0x00\n      swap2\n      pop\n      sload\n      swap1\n      0x0100\n      exp\n      swap1\n      div\n      0xffffffffffffffffffffffffffffffffffffffff\n      and\n      dup2\n      jump\t// out\n        /* \"contracts/Test.sol\":6333:6438  function withdrawBal(address _shop) public {... */\n    tag_111:\n        /* \"contracts/Test.sol\":6394:6399  _shop */\n      dup1\n        /* \"contracts/Test.sol\":6386:6409  payable(_shop).transfer */\n      0xffffffffffffffffffffffffffffffffffffffff\n      and\n        /* \"contracts/Test.sol\":6386:6431  payable(_shop).transfer(users[_shop].balance) */\n      0x08fc\n        /* \"contracts/Test.sol\":6410:6415  users */\n      0x02\n        /* \"contracts/Test.sol\":6410:6422  users[_shop] */\n      0x00\n        /* \"contracts/Test.sol\":6416:6421  _shop */\n      dup5\n        /* \"contracts/Test.sol\":6410:6422  users[_shop] */\n      0xffffffffffffffffffffffffffffffffffffffff\n      and\n      0xffffffffffffffffffffffffffffffffffffffff\n      and\n      dup2\n      mstore\n      0x20\n      add\n      swap1\n      dup2\n      mstore\n      0x20\n      add\n      0x00\n      keccak256\n        /* \"contracts/Test.sol\":6410:6430  users[_shop].balance */\n      0x01\n      add\n      sload\n        /* \"contracts/Test.sol\":6386:6431  payable(_shop).transfer(users[_shop].balance) */\n      swap1\n      dup2\n      iszero\n      mul\n      swap1\n      mload(0x40)\n      0x00\n      mload(0x40)\n      dup1\n      dup4\n      sub\n      dup2\n      dup6\n      dup9\n      dup9\n      call\n      swap4\n      pop\n      pop\n      pop\n      pop\n      iszero\n      dup1\n      iszero\n      tag_314\n      jumpi\n      returndatasize\n      0x00\n      dup1\n      returndatacopy\n      revert(0x00, returndatasize)\n    tag_314:\n      pop\n        /* \"contracts/Test.sol\":6333:6438  function withdrawBal(address _shop) public {... */\n      pop\n      jump\t// out\n        /* \"contracts/Test.sol\":2848:4176  function refillStore(address _shop, uint _productId, uint _amount, address _supplier) public payable AccessControl(Role.Market, _shop) {... */\n    tag_115:\n        /* \"contracts/Test.sol\":2963:2974  Role.Market */\n      0x01\n        /* \"contracts/Test.sol\":2976:2981  _shop */\n      dup5\n        /* \"contracts/Test.sol\":1081:1086  _role */\n      dup2\n        /* \"contracts/Test.sol\":1055:1086  users[msg.sender].role == _role */\n      0x02\n      dup2\n      gt\n      iszero\n      tag_316\n      jumpi\n      tag_317\n      tag_134\n      jump\t// in\n    tag_317:\n    tag_316:\n        /* \"contracts/Test.sol\":1055:1060  users */\n      0x02\n        /* \"contracts/Test.sol\":1055:1072  users[msg.sender] */\n      0x00\n        /* \"contracts/Test.sol\":1061:1071  msg.sender */\n      caller\n        /* \"contracts/Test.sol\":1055:1072  users[msg.sender] */\n      0xffffffffffffffffffffffffffffffffffffffff\n      and\n      0xffffffffffffffffffffffffffffffffffffffff\n      and\n      dup2\n      mstore\n      0x20\n      add\n      swap1\n      dup2\n      mstore\n      0x20\n      add\n      0x00\n      keccak256\n        /* \"contracts/Test.sol\":1055:1077  users[msg.sender].role */\n      0x00\n      add\n      0x00\n      swap1\n      sload\n      swap1\n      0x0100\n      exp\n      swap1\n      div\n      0xff\n      and\n        /* \"contracts/Test.sol\":1055:1086  users[msg.sender].role == _role */\n      0x02\n      dup2\n      gt\n      iszero\n      tag_318\n      jumpi\n      tag_319\n      tag_134\n      jump\t// in\n    tag_319:\n    tag_318:\n      eq\n        /* \"contracts/Test.sol\":1047:1163  require(users[msg.sender].role == _role, unicode\"Ваша роль не позволяет это изменять\") */\n      tag_320\n      jumpi\n      mload(0x40)\n      0x08c379a000000000000000000000000000000000000000000000000000000000\n      dup2\n      mstore\n      0x04\n      add\n      tag_321\n      swap1\n      tag_217\n      jump\t// in\n    tag_321:\n      mload(0x40)\n      dup1\n      swap2\n      sub\n      swap1\n      revert\n    tag_320:\n        /* \"contracts/Test.sol\":1195:1200  _shop */\n      dup1\n        /* \"contracts/Test.sol\":1181:1200  msg.sender == _shop */\n      0xffffffffffffffffffffffffffffffffffffffff\n      and\n        /* \"contracts/Test.sol\":1181:1191  msg.sender */\n      caller\n        /* \"contracts/Test.sol\":1181:1200  msg.sender == _shop */\n      0xffffffffffffffffffffffffffffffffffffffff\n      and\n      eq\n        /* \"contracts/Test.sol\":1173:1279  require(msg.sender == _shop, unicode\"Магазин не соответсвует отправителю\") */\n      tag_322\n      jumpi\n      mload(0x40)\n      0x08c379a000000000000000000000000000000000000000000000000000000000\n      dup2\n      mstore\n      0x04\n      add\n      tag_323\n      swap1\n      tag_220\n      jump\t// in\n    tag_323:\n      mload(0x40)\n      dup1\n      swap2\n      sub\n      swap1\n      revert\n    tag_322:\n        /* \"contracts/Test.sol\":3011:3012  0 */\n      0x00\n        /* \"contracts/Test.sol\":3001:3008  _amount */\n      dup5\n        /* \"contracts/Test.sol\":3001:3012  _amount > 0 */\n      gt\n        /* \"contracts/Test.sol\":2993:3055  require(_amount > 0, \"Purchase amount must be greater than 0\") */\n      tag_325\n      jumpi\n      mload(0x40)\n      0x08c379a000000000000000000000000000000000000000000000000000000000\n      dup2\n      mstore\n      0x04\n      add\n      tag_326\n      swap1\n      tag_239\n      jump\t// in\n    tag_326:\n      mload(0x40)\n      dup1\n      swap2\n      sub\n      swap1\n      revert\n    tag_325:\n        /* \"contracts/Test.sol\":3086:3102  supplierProducts */\n      0x05\n        /* \"contracts/Test.sol\":3086:3113  supplierProducts[_supplier] */\n      0x00\n        /* \"contracts/Test.sol\":3103:3112  _supplier */\n      dup5\n        /* \"contracts/Test.sol\":3086:3113  supplierProducts[_supplier] */\n      0xffffffffffffffffffffffffffffffffffffffff\n      and\n      0xffffffffffffffffffffffffffffffffffffffff\n      and\n      dup2\n      mstore\n      0x20\n      add\n      swap1\n      dup2\n      mstore\n      0x20\n      add\n      0x00\n      keccak256\n        /* \"contracts/Test.sol\":3086:3120  supplierProducts[_supplier].length */\n      dup1\n      sload\n      swap1\n      pop\n        /* \"contracts/Test.sol\":3073:3083  _productId */\n      dup6\n        /* \"contracts/Test.sol\":3073:3120  _productId < supplierProducts[_supplier].length */\n      lt\n        /* \"contracts/Test.sol\":3065:3143  require(_productId < supplierProducts[_supplier].length, \"Invalid product ID\") */\n      tag_327\n      jumpi\n      mload(0x40)\n      0x08c379a000000000000000000000000000000000000000000000000000000000\n      dup2\n      mstore\n      0x04\n      add\n      tag_328\n      swap1\n      tag_242\n      jump\t// in\n    tag_328:\n      mload(0x40)\n      dup1\n      swap2\n      sub\n      swap1\n      revert\n    tag_327:\n        /* \"contracts/Test.sol\":3153:3163  uint price */\n      0x00\n        /* \"contracts/Test.sol\":3166:3182  supplierProducts */\n      0x05\n        /* \"contracts/Test.sol\":3166:3193  supplierProducts[_supplier] */\n      0x00\n        /* \"contracts/Test.sol\":3183:3192  _supplier */\n      dup6\n        /* \"contracts/Test.sol\":3166:3193  supplierProducts[_supplier] */\n      0xffffffffffffffffffffffffffffffffffffffff\n      and\n      0xffffffffffffffffffffffffffffffffffffffff\n      and\n      dup2\n      mstore\n      0x20\n      add\n      swap1\n      dup2\n      mstore\n      0x20\n      add\n      0x00\n      keccak256\n        /* \"contracts/Test.sol\":3194:3204  _productId */\n      dup7\n        /* \"contracts/Test.sol\":3166:3205  supplierProducts[_supplier][_productId] */\n      dup2\n      sload\n      dup2\n      lt\n      tag_329\n      jumpi\n      tag_330\n      tag_140\n      jump\t// in\n    tag_330:\n    tag_329:\n      swap1\n      0x00\n      mstore\n      keccak256(0x00, 0x20)\n      swap1\n      0x05\n      mul\n      add\n        /* \"contracts/Test.sol\":3166:3211  supplierProducts[_supplier][_productId].price */\n      0x02\n      add\n      sload\n        /* \"contracts/Test.sol\":3153:3211  uint price = supplierProducts[_supplier][_productId].price */\n      swap1\n      pop\n        /* \"contracts/Test.sol\":3221:3236  uint totalPrice */\n      0x00\n        /* \"contracts/Test.sol\":3257:3264  1 ether */\n      0x0de0b6b3a7640000\n        /* \"contracts/Test.sol\":3247:3254  _amount */\n      dup7\n        /* \"contracts/Test.sol\":3239:3244  price */\n      dup4\n        /* \"contracts/Test.sol\":3239:3254  price * _amount */\n      tag_332\n      swap2\n      swap1\n      tag_153\n      jump\t// in\n    tag_332:\n        /* \"contracts/Test.sol\":3239:3264  price * _amount * 1 ether */\n      tag_333\n      swap2\n      swap1\n      tag_153\n      jump\t// in\n    tag_333:\n        /* \"contracts/Test.sol\":3221:3264  uint totalPrice = price * _amount * 1 ether */\n      swap1\n      pop\n        /* \"contracts/Test.sol\":3295:3305  totalPrice */\n      dup1\n        /* \"contracts/Test.sol\":3282:3291  msg.value */\n      callvalue\n        /* \"contracts/Test.sol\":3282:3305  msg.value >= totalPrice */\n      lt\n      iszero\n        /* \"contracts/Test.sol\":3274:3333  require(msg.value >= totalPrice, \"Insufficient funds sent\") */\n      tag_334\n      jumpi\n      mload(0x40)\n      0x08c379a000000000000000000000000000000000000000000000000000000000\n      dup2\n      mstore\n      0x04\n      add\n      tag_335\n      swap1\n      tag_262\n      jump\t// in\n    tag_335:\n      mload(0x40)\n      dup1\n      swap2\n      sub\n      swap1\n      revert\n    tag_334:\n        /* \"contracts/Test.sol\":3343:3367  string memory targetName */\n      0x00\n        /* \"contracts/Test.sol\":3370:3386  supplierProducts */\n      0x05\n        /* \"contracts/Test.sol\":3370:3397  supplierProducts[_supplier] */\n      0x00\n        /* \"contracts/Test.sol\":3387:3396  _supplier */\n      dup8\n        /* \"contracts/Test.sol\":3370:3397  supplierProducts[_supplier] */\n      0xffffffffffffffffffffffffffffffffffffffff\n      and\n      0xffffffffffffffffffffffffffffffffffffffff\n      and\n      dup2\n      mstore\n      0x20\n      add\n      swap1\n      dup2\n      mstore\n      0x20\n      add\n      0x00\n      keccak256\n        /* \"contracts/Test.sol\":3398:3408  _productId */\n      dup9\n        /* \"contracts/Test.sol\":3370:3409  supplierProducts[_supplier][_productId] */\n      dup2\n      sload\n      dup2\n      lt\n      tag_336\n      jumpi\n      tag_337\n      tag_140\n      jump\t// in\n    tag_337:\n    tag_336:\n      swap1\n      0x00\n      mstore\n      keccak256(0x00, 0x20)\n      swap1\n      0x05\n      mul\n      add\n        /* \"contracts/Test.sol\":3370:3414  supplierProducts[_supplier][_productId].name */\n      0x03\n      add\n        /* \"contracts/Test.sol\":3343:3414  string memory targetName = supplierProducts[_supplier][_productId].name */\n      dup1\n      sload\n      tag_339\n      swap1\n      tag_119\n      jump\t// in\n    tag_339:\n      dup1\n      0x1f\n      add\n      0x20\n      dup1\n      swap2\n      div\n      mul\n      0x20\n      add\n      mload(0x40)\n      swap1\n      dup2\n      add\n      0x40\n      mstore\n      dup1\n      swap3\n      swap2\n      swap1\n      dup2\n      dup2\n      mstore\n      0x20\n      add\n      dup3\n      dup1\n      sload\n      tag_340\n      swap1\n      tag_119\n      jump\t// in\n    tag_340:\n      dup1\n      iszero\n      tag_341\n      jumpi\n      dup1\n      0x1f\n      lt\n      tag_342\n      jumpi\n      0x0100\n      dup1\n      dup4\n      sload\n      div\n      mul\n      dup4\n      mstore\n      swap2\n      0x20\n      add\n      swap2\n      jump(tag_341)\n    tag_342:\n      dup3\n      add\n      swap2\n      swap1\n      0x00\n      mstore\n      keccak256(0x00, 0x20)\n      swap1\n    tag_343:\n      dup2\n      sload\n      dup2\n      mstore\n      swap1\n      0x01\n      add\n      swap1\n      0x20\n      add\n      dup1\n      dup4\n      gt\n      tag_343\n      jumpi\n      dup3\n      swap1\n      sub\n      0x1f\n      and\n      dup3\n      add\n      swap2\n    tag_341:\n      pop\n      pop\n      pop\n      pop\n      pop\n      swap1\n      pop\n        /* \"contracts/Test.sol\":3424:3442  bool productExists */\n      0x00\n        /* \"contracts/Test.sol\":3465:3471  uint i */\n      dup1\n        /* \"contracts/Test.sol\":3461:3762  for(uint i = 0; i< marketProducts[_shop].length; i++){... */\n    tag_344:\n        /* \"contracts/Test.sol\":3480:3494  marketProducts */\n      0x04\n        /* \"contracts/Test.sol\":3480:3501  marketProducts[_shop] */\n      0x00\n        /* \"contracts/Test.sol\":3495:3500  _shop */\n      dup13\n        /* \"contracts/Test.sol\":3480:3501  marketProducts[_shop] */\n      0xffffffffffffffffffffffffffffffffffffffff\n      and\n      0xffffffffffffffffffffffffffffffffffffffff\n      and\n      dup2\n      mstore\n      0x20\n      add\n      swap1\n      dup2\n      mstore\n      0x20\n      add\n      0x00\n      keccak256\n        /* \"contracts/Test.sol\":3480:3508  marketProducts[_shop].length */\n      dup1\n      sload\n      swap1\n      pop\n        /* \"contracts/Test.sol\":3477:3478  i */\n      dup2\n        /* \"contracts/Test.sol\":3477:3508  i< marketProducts[_shop].length */\n      lt\n        /* \"contracts/Test.sol\":3461:3762  for(uint i = 0; i< marketProducts[_shop].length; i++){... */\n      iszero\n      tag_345\n      jumpi\n        /* \"contracts/Test.sol\":3580:3594  marketProducts */\n      0x04\n        /* \"contracts/Test.sol\":3580:3601  marketProducts[_shop] */\n      0x00\n        /* \"contracts/Test.sol\":3595:3600  _shop */\n      dup13\n        /* \"contracts/Test.sol\":3580:3601  marketProducts[_shop] */\n      0xffffffffffffffffffffffffffffffffffffffff\n      and\n      0xffffffffffffffffffffffffffffffffffffffff\n      and\n      dup2\n      mstore\n      0x20\n      add\n      swap1\n      dup2\n      mstore\n      0x20\n      add\n      0x00\n      keccak256\n        /* \"contracts/Test.sol\":3602:3603  i */\n      dup2\n        /* \"contracts/Test.sol\":3580:3604  marketProducts[_shop][i] */\n      dup2\n      sload\n      dup2\n      lt\n      tag_347\n      jumpi\n      tag_348\n      tag_140\n      jump\t// in\n    tag_348:\n    tag_347:\n      swap1\n      0x00\n      mstore\n      keccak256(0x00, 0x20)\n      swap1\n      0x05\n      mul\n      add\n        /* \"contracts/Test.sol\":3580:3609  marketProducts[_shop][i].name */\n      0x03\n      add\n        /* \"contracts/Test.sol\":3564:3611  keccak256(bytes(marketProducts[_shop][i].name)) */\n      mload(0x40)\n      tag_350\n      swap2\n      swap1\n      tag_270\n      jump\t// in\n    tag_350:\n      mload(0x40)\n      dup1\n      swap2\n      sub\n      swap1\n      keccak256\n        /* \"contracts/Test.sol\":3548:3558  targetName */\n      dup4\n        /* \"contracts/Test.sol\":3532:3560  keccak256(bytes(targetName)) */\n      dup1\n      mload\n      swap1\n      0x20\n      add\n      keccak256\n        /* \"contracts/Test.sol\":3532:3611  keccak256(bytes(targetName)) == keccak256(bytes(marketProducts[_shop][i].name)) */\n      sub\n        /* \"contracts/Test.sol\":3528:3752  if (keccak256(bytes(targetName)) == keccak256(bytes(marketProducts[_shop][i].name))){... */\n      tag_351\n      jumpi\n        /* \"contracts/Test.sol\":3666:3673  _amount */\n      dup9\n        /* \"contracts/Test.sol\":3630:3644  marketProducts */\n      0x04\n        /* \"contracts/Test.sol\":3630:3651  marketProducts[_shop] */\n      0x00\n        /* \"contracts/Test.sol\":3645:3650  _shop */\n      dup14\n        /* \"contracts/Test.sol\":3630:3651  marketProducts[_shop] */\n      0xffffffffffffffffffffffffffffffffffffffff\n      and\n      0xffffffffffffffffffffffffffffffffffffffff\n      and\n      dup2\n      mstore\n      0x20\n      add\n      swap1\n      dup2\n      mstore\n      0x20\n      add\n      0x00\n      keccak256\n        /* \"contracts/Test.sol\":3652:3653  i */\n      dup3\n        /* \"contracts/Test.sol\":3630:3654  marketProducts[_shop][i] */\n      dup2\n      sload\n      dup2\n      lt\n      tag_352\n      jumpi\n      tag_353\n      tag_140\n      jump\t// in\n    tag_353:\n    tag_352:\n      swap1\n      0x00\n      mstore\n      keccak256(0x00, 0x20)\n      swap1\n      0x05\n      mul\n      add\n        /* \"contracts/Test.sol\":3630:3662  marketProducts[_shop][i].inStock */\n      0x01\n      add\n      0x00\n        /* \"contracts/Test.sol\":3630:3673  marketProducts[_shop][i].inStock += _amount */\n      dup3\n      dup3\n      sload\n      tag_355\n      swap2\n      swap1\n      tag_162\n      jump\t// in\n    tag_355:\n      swap3\n      pop\n      pop\n      dup2\n      swap1\n      sstore\n      pop\n        /* \"contracts/Test.sol\":3707:3711  true */\n      0x01\n        /* \"contracts/Test.sol\":3691:3711  productExists = true */\n      swap2\n      pop\n        /* \"contracts/Test.sol\":3729:3734  break */\n      jump(tag_345)\n        /* \"contracts/Test.sol\":3528:3752  if (keccak256(bytes(targetName)) == keccak256(bytes(marketProducts[_shop][i].name))){... */\n    tag_351:\n        /* \"contracts/Test.sol\":3510:3513  i++ */\n      dup1\n      dup1\n      tag_356\n      swap1\n      tag_205\n      jump\t// in\n    tag_356:\n      swap2\n      pop\n      pop\n        /* \"contracts/Test.sol\":3461:3762  for(uint i = 0; i< marketProducts[_shop].length; i++){... */\n      jump(tag_344)\n    tag_345:\n      pop\n        /* \"contracts/Test.sol\":3777:3790  productExists */\n      dup1\n        /* \"contracts/Test.sol\":3772:3985  if (!productExists){... */\n      tag_357\n      jumpi\n        /* \"contracts/Test.sol\":3805:3827  Product memory newItem */\n      0x00\n        /* \"contracts/Test.sol\":3830:3925  Product(_supplier, _amount, price, targetName, supplierProducts[_supplier][_productId].expDate) */\n      mload(0x40)\n      dup1\n      0xa0\n      add\n      0x40\n      mstore\n      dup1\n        /* \"contracts/Test.sol\":3838:3847  _supplier */\n      dup10\n        /* \"contracts/Test.sol\":3830:3925  Product(_supplier, _amount, price, targetName, supplierProducts[_supplier][_productId].expDate) */\n      0xffffffffffffffffffffffffffffffffffffffff\n      and\n      dup2\n      mstore\n      0x20\n      add\n        /* \"contracts/Test.sol\":3849:3856  _amount */\n      dup11\n        /* \"contracts/Test.sol\":3830:3925  Product(_supplier, _amount, price, targetName, supplierProducts[_supplier][_productId].expDate) */\n      dup2\n      mstore\n      0x20\n      add\n        /* \"contracts/Test.sol\":3858:3863  price */\n      dup7\n        /* \"contracts/Test.sol\":3830:3925  Product(_supplier, _amount, price, targetName, supplierProducts[_supplier][_productId].expDate) */\n      dup2\n      mstore\n      0x20\n      add\n        /* \"contracts/Test.sol\":3865:3875  targetName */\n      dup5\n        /* \"contracts/Test.sol\":3830:3925  Product(_supplier, _amount, price, targetName, supplierProducts[_supplier][_productId].expDate) */\n      dup2\n      mstore\n      0x20\n      add\n        /* \"contracts/Test.sol\":3877:3893  supplierProducts */\n      0x05\n        /* \"contracts/Test.sol\":3877:3904  supplierProducts[_supplier] */\n      0x00\n        /* \"contracts/Test.sol\":3894:3903  _supplier */\n      dup12\n        /* \"contracts/Test.sol\":3877:3904  supplierProducts[_supplier] */\n      0xffffffffffffffffffffffffffffffffffffffff\n      and\n      0xffffffffffffffffffffffffffffffffffffffff\n      and\n      dup2\n      mstore\n      0x20\n      add\n      swap1\n      dup2\n      mstore\n      0x20\n      add\n      0x00\n      keccak256\n        /* \"contracts/Test.sol\":3905:3915  _productId */\n      dup13\n        /* \"contracts/Test.sol\":3877:3916  supplierProducts[_supplier][_productId] */\n      dup2\n      sload\n      dup2\n      lt\n      tag_358\n      jumpi\n      tag_359\n      tag_140\n      jump\t// in\n    tag_359:\n    tag_358:\n      swap1\n      0x00\n      mstore\n      keccak256(0x00, 0x20)\n      swap1\n      0x05\n      mul\n      add\n        /* \"contracts/Test.sol\":3877:3924  supplierProducts[_supplier][_productId].expDate */\n      0x04\n      add\n      sload\n        /* \"contracts/Test.sol\":3830:3925  Product(_supplier, _amount, price, targetName, supplierProducts[_supplier][_productId].expDate) */\n      dup2\n      mstore\n      pop\n        /* \"contracts/Test.sol\":3805:3925  Product memory newItem = Product(_supplier, _amount, price, targetName, supplierProducts[_supplier][_productId].expDate) */\n      swap1\n      pop\n        /* \"contracts/Test.sol\":3939:3953  marketProducts */\n      0x04\n        /* \"contracts/Test.sol\":3939:3960  marketProducts[_shop] */\n      0x00\n        /* \"contracts/Test.sol\":3954:3959  _shop */\n      dup13\n        /* \"contracts/Test.sol\":3939:3960  marketProducts[_shop] */\n      0xffffffffffffffffffffffffffffffffffffffff\n      and\n      0xffffffffffffffffffffffffffffffffffffffff\n      and\n      dup2\n      mstore\n      0x20\n      add\n      swap1\n      dup2\n      mstore\n      0x20\n      add\n      0x00\n      keccak256\n        /* \"contracts/Test.sol\":3966:3973  newItem */\n      dup2\n        /* \"contracts/Test.sol\":3939:3974  marketProducts[_shop].push(newItem) */\n      swap1\n      dup1\n      0x01\n      dup2\n      sload\n      add\n      dup1\n      dup3\n      sstore\n      dup1\n      swap2\n      pop\n      pop\n      0x01\n      swap1\n      sub\n      swap1\n      0x00\n      mstore\n      keccak256(0x00, 0x20)\n      swap1\n      0x05\n      mul\n      add\n      0x00\n      swap1\n      swap2\n      swap1\n      swap2\n      swap1\n      swap2\n      pop\n      0x00\n      dup3\n      add\n      mload\n      dup2\n      0x00\n      add\n      exp(0x0100, 0x00)\n      dup2\n      sload\n      dup2\n      0xffffffffffffffffffffffffffffffffffffffff\n      mul\n      not\n      and\n      swap1\n      dup4\n      0xffffffffffffffffffffffffffffffffffffffff\n      and\n      mul\n      or\n      swap1\n      sstore\n      pop\n      0x20\n      dup3\n      add\n      mload\n      dup2\n      0x01\n      add\n      sstore\n      0x40\n      dup3\n      add\n      mload\n      dup2\n      0x02\n      add\n      sstore\n      0x60\n      dup3\n      add\n      mload\n      dup2\n      0x03\n      add\n      swap1\n      dup2\n      tag_362\n      swap2\n      swap1\n      tag_226\n      jump\t// in\n    tag_362:\n      pop\n      0x80\n      dup3\n      add\n      mload\n      dup2\n      0x04\n      add\n      sstore\n      pop\n      pop\n        /* \"contracts/Test.sol\":3791:3985  {... */\n      pop\n        /* \"contracts/Test.sol\":3772:3985  if (!productExists){... */\n    tag_357:\n        /* \"contracts/Test.sol\":4046:4053  _amount */\n      dup8\n        /* \"contracts/Test.sol\":3995:4011  supplierProducts */\n      0x05\n        /* \"contracts/Test.sol\":3995:4022  supplierProducts[_supplier] */\n      0x00\n        /* \"contracts/Test.sol\":4012:4021  _supplier */\n      dup10\n        /* \"contracts/Test.sol\":3995:4022  supplierProducts[_supplier] */\n      0xffffffffffffffffffffffffffffffffffffffff\n      and\n      0xffffffffffffffffffffffffffffffffffffffff\n      and\n      dup2\n      mstore\n      0x20\n      add\n      swap1\n      dup2\n      mstore\n      0x20\n      add\n      0x00\n      keccak256\n        /* \"contracts/Test.sol\":4023:4033  _productId */\n      dup11\n        /* \"contracts/Test.sol\":3995:4034  supplierProducts[_supplier][_productId] */\n      dup2\n      sload\n      dup2\n      lt\n      tag_363\n      jumpi\n      tag_364\n      tag_140\n      jump\t// in\n    tag_364:\n    tag_363:\n      swap1\n      0x00\n      mstore\n      keccak256(0x00, 0x20)\n      swap1\n      0x05\n      mul\n      add\n        /* \"contracts/Test.sol\":3995:4042  supplierProducts[_supplier][_productId].inStock */\n      0x01\n      add\n      0x00\n        /* \"contracts/Test.sol\":3995:4053  supplierProducts[_supplier][_productId].inStock -= _amount */\n      dup3\n      dup3\n      sload\n      tag_366\n      swap2\n      swap1\n      tag_169\n      jump\t// in\n    tag_366:\n      swap3\n      pop\n      pop\n      dup2\n      swap1\n      sstore\n      pop\n        /* \"contracts/Test.sol\":4080:4090  totalPrice */\n      dup3\n        /* \"contracts/Test.sol\":4068:4077  msg.value */\n      callvalue\n        /* \"contracts/Test.sol\":4068:4090  msg.value > totalPrice */\n      gt\n        /* \"contracts/Test.sol\":4064:4169  if (msg.value > totalPrice) {... */\n      iszero\n      tag_367\n      jumpi\n        /* \"contracts/Test.sol\":4114:4124  msg.sender */\n      caller\n        /* \"contracts/Test.sol\":4106:4134  payable(msg.sender).transfer */\n      0xffffffffffffffffffffffffffffffffffffffff\n      and\n        /* \"contracts/Test.sol\":4106:4158  payable(msg.sender).transfer(msg.value - totalPrice) */\n      0x08fc\n        /* \"contracts/Test.sol\":4147:4157  totalPrice */\n      dup5\n        /* \"contracts/Test.sol\":4135:4144  msg.value */\n      callvalue\n        /* \"contracts/Test.sol\":4135:4157  msg.value - totalPrice */\n      tag_368\n      swap2\n      swap1\n      tag_169\n      jump\t// in\n    tag_368:\n        /* \"contracts/Test.sol\":4106:4158  payable(msg.sender).transfer(msg.value - totalPrice) */\n      swap1\n      dup2\n      iszero\n      mul\n      swap1\n      mload(0x40)\n      0x00\n      mload(0x40)\n      dup1\n      dup4\n      sub\n      dup2\n      dup6\n      dup9\n      dup9\n      call\n      swap4\n      pop\n      pop\n      pop\n      pop\n      iszero\n      dup1\n      iszero\n      tag_370\n      jumpi\n      returndatasize\n      0x00\n      dup1\n      returndatacopy\n      revert(0x00, returndatasize)\n    tag_370:\n      pop\n        /* \"contracts/Test.sol\":4064:4169  if (msg.value > totalPrice) {... */\n    tag_367:\n        /* \"contracts/Test.sol\":2983:4176  {... */\n      pop\n      pop\n      pop\n      pop\n        /* \"contracts/Test.sol\":2848:4176  function refillStore(address _shop, uint _productId, uint _amount, address _supplier) public payable AccessControl(Role.Market, _shop) {... */\n      pop\n      pop\n      pop\n      pop\n      pop\n      pop\n      jump\t// out\n    tag_167:\n      pop\n      dup1\n      sload\n      tag_371\n      swap1\n      tag_119\n      jump\t// in\n    tag_371:\n      0x00\n      dup3\n      sstore\n      dup1\n      0x1f\n      lt\n      tag_373\n      jumpi\n      pop\n      jump(tag_372)\n    tag_373:\n      0x1f\n      add\n      0x20\n      swap1\n      div\n      swap1\n      0x00\n      mstore\n      keccak256(0x00, 0x20)\n      swap1\n      dup2\n      add\n      swap1\n      tag_374\n      swap2\n      swap1\n      tag_375\n      jump\t// in\n    tag_374:\n    tag_372:\n      pop\n      jump\t// out\n    tag_375:\n    tag_376:\n      dup1\n      dup3\n      gt\n      iszero\n      tag_377\n      jumpi\n      0x00\n      dup2\n      0x00\n      swap1\n      sstore\n      pop\n      0x01\n      add\n      jump(tag_376)\n    tag_377:\n      pop\n      swap1\n      jump\t// out\n        /* \"#utility.yul\":7:82   */\n    tag_378:\n        /* \"#utility.yul\":40:46   */\n      0x00\n        /* \"#utility.yul\":73:75   */\n      0x40\n        /* \"#utility.yul\":67:76   */\n      mload\n        /* \"#utility.yul\":57:76   */\n      swap1\n      pop\n        /* \"#utility.yul\":7:82   */\n      swap1\n      jump\t// out\n        /* \"#utility.yul\":88:205   */\n    tag_379:\n        /* \"#utility.yul\":197:198   */\n      0x00\n        /* \"#utility.yul\":194:195   */\n      dup1\n        /* \"#utility.yul\":187:199   */\n      revert\n        /* \"#utility.yul\":211:328   */\n    tag_380:\n        /* \"#utility.yul\":320:321   */\n      0x00\n        /* \"#utility.yul\":317:318   */\n      dup1\n        /* \"#utility.yul\":310:322   */\n      revert\n        /* \"#utility.yul\":334:460   */\n    tag_381:\n        /* \"#utility.yul\":371:378   */\n      0x00\n        /* \"#utility.yul\":411:453   */\n      0xffffffffffffffffffffffffffffffffffffffff\n        /* \"#utility.yul\":404:409   */\n      dup3\n        /* \"#utility.yul\":400:454   */\n      and\n        /* \"#utility.yul\":389:454   */\n      swap1\n      pop\n        /* \"#utility.yul\":334:460   */\n      swap2\n      swap1\n      pop\n      jump\t// out\n        /* \"#utility.yul\":466:562   */\n    tag_382:\n        /* \"#utility.yul\":503:510   */\n      0x00\n        /* \"#utility.yul\":532:556   */\n      tag_460\n        /* \"#utility.yul\":550:555   */\n      dup3\n        /* \"#utility.yul\":532:556   */\n      tag_381\n      jump\t// in\n    tag_460:\n        /* \"#utility.yul\":521:556   */\n      swap1\n      pop\n        /* \"#utility.yul\":466:562   */\n      swap2\n      swap1\n      pop\n      jump\t// out\n        /* \"#utility.yul\":568:690   */\n    tag_383:\n        /* \"#utility.yul\":641:665   */\n      tag_462\n        /* \"#utility.yul\":659:664   */\n      dup2\n        /* \"#utility.yul\":641:665   */\n      tag_382\n      jump\t// in\n    tag_462:\n        /* \"#utility.yul\":634:639   */\n      dup2\n        /* \"#utility.yul\":631:666   */\n      eq\n        /* \"#utility.yul\":621:684   */\n      tag_463\n      jumpi\n        /* \"#utility.yul\":680:681   */\n      0x00\n        /* \"#utility.yul\":677:678   */\n      dup1\n        /* \"#utility.yul\":670:682   */\n      revert\n        /* \"#utility.yul\":621:684   */\n    tag_463:\n        /* \"#utility.yul\":568:690   */\n      pop\n      jump\t// out\n        /* \"#utility.yul\":696:835   */\n    tag_384:\n        /* \"#utility.yul\":742:747   */\n      0x00\n        /* \"#utility.yul\":780:786   */\n      dup2\n        /* \"#utility.yul\":767:787   */\n      calldataload\n        /* \"#utility.yul\":758:787   */\n      swap1\n      pop\n        /* \"#utility.yul\":796:829   */\n      tag_465\n        /* \"#utility.yul\":823:828   */\n      dup2\n        /* \"#utility.yul\":796:829   */\n      tag_383\n      jump\t// in\n    tag_465:\n        /* \"#utility.yul\":696:835   */\n      swap3\n      swap2\n      pop\n      pop\n      jump\t// out\n        /* \"#utility.yul\":841:918   */\n    tag_385:\n        /* \"#utility.yul\":878:885   */\n      0x00\n        /* \"#utility.yul\":907:912   */\n      dup2\n        /* \"#utility.yul\":896:912   */\n      swap1\n      pop\n        /* \"#utility.yul\":841:918   */\n      swap2\n      swap1\n      pop\n      jump\t// out\n        /* \"#utility.yul\":924:1046   */\n    tag_386:\n        /* \"#utility.yul\":997:1021   */\n      tag_468\n        /* \"#utility.yul\":1015:1020   */\n      dup2\n        /* \"#utility.yul\":997:1021   */\n      tag_385\n      jump\t// in\n    tag_468:\n        /* \"#utility.yul\":990:995   */\n      dup2\n        /* \"#utility.yul\":987:1022   */\n      eq\n        /* \"#utility.yul\":977:1040   */\n      tag_469\n      jumpi\n        /* \"#utility.yul\":1036:1037   */\n      0x00\n        /* \"#utility.yul\":1033:1034   */\n      dup1\n        /* \"#utility.yul\":1026:1038   */\n      revert\n        /* \"#utility.yul\":977:1040   */\n    tag_469:\n        /* \"#utility.yul\":924:1046   */\n      pop\n      jump\t// out\n        /* \"#utility.yul\":1052:1191   */\n    tag_387:\n        /* \"#utility.yul\":1098:1103   */\n      0x00\n        /* \"#utility.yul\":1136:1142   */\n      dup2\n        /* \"#utility.yul\":1123:1143   */\n      calldataload\n        /* \"#utility.yul\":1114:1143   */\n      swap1\n      pop\n        /* \"#utility.yul\":1152:1185   */\n      tag_471\n        /* \"#utility.yul\":1179:1184   */\n      dup2\n        /* \"#utility.yul\":1152:1185   */\n      tag_386\n      jump\t// in\n    tag_471:\n        /* \"#utility.yul\":1052:1191   */\n      swap3\n      swap2\n      pop\n      pop\n      jump\t// out\n        /* \"#utility.yul\":1197:1671   */\n    tag_27:\n        /* \"#utility.yul\":1265:1271   */\n      0x00\n        /* \"#utility.yul\":1273:1279   */\n      dup1\n        /* \"#utility.yul\":1322:1324   */\n      0x40\n        /* \"#utility.yul\":1310:1319   */\n      dup4\n        /* \"#utility.yul\":1301:1308   */\n      dup6\n        /* \"#utility.yul\":1297:1320   */\n      sub\n        /* \"#utility.yul\":1293:1325   */\n      slt\n        /* \"#utility.yul\":1290:1409   */\n      iszero\n      tag_473\n      jumpi\n        /* \"#utility.yul\":1328:1407   */\n      tag_474\n      tag_379\n      jump\t// in\n    tag_474:\n        /* \"#utility.yul\":1290:1409   */\n    tag_473:\n        /* \"#utility.yul\":1448:1449   */\n      0x00\n        /* \"#utility.yul\":1473:1526   */\n      tag_475\n        /* \"#utility.yul\":1518:1525   */\n      dup6\n        /* \"#utility.yul\":1509:1515   */\n      dup3\n        /* \"#utility.yul\":1498:1507   */\n      dup7\n        /* \"#utility.yul\":1494:1516   */\n      add\n        /* \"#utility.yul\":1473:1526   */\n      tag_384\n      jump\t// in\n    tag_475:\n        /* \"#utility.yul\":1463:1526   */\n      swap3\n      pop\n        /* \"#utility.yul\":1419:1536   */\n      pop\n        /* \"#utility.yul\":1575:1577   */\n      0x20\n        /* \"#utility.yul\":1601:1654   */\n      tag_476\n        /* \"#utility.yul\":1646:1653   */\n      dup6\n        /* \"#utility.yul\":1637:1643   */\n      dup3\n        /* \"#utility.yul\":1626:1635   */\n      dup7\n        /* \"#utility.yul\":1622:1644   */\n      add\n        /* \"#utility.yul\":1601:1654   */\n      tag_387\n      jump\t// in\n    tag_476:\n        /* \"#utility.yul\":1591:1654   */\n      swap2\n      pop\n        /* \"#utility.yul\":1546:1664   */\n      pop\n        /* \"#utility.yul\":1197:1671   */\n      swap3\n      pop\n      swap3\n      swap1\n      pop\n      jump\t// out\n        /* \"#utility.yul\":1677:1795   */\n    tag_388:\n        /* \"#utility.yul\":1764:1788   */\n      tag_478\n        /* \"#utility.yul\":1782:1787   */\n      dup2\n        /* \"#utility.yul\":1764:1788   */\n      tag_382\n      jump\t// in\n    tag_478:\n        /* \"#utility.yul\":1759:1762   */\n      dup3\n        /* \"#utility.yul\":1752:1789   */\n      mstore\n        /* \"#utility.yul\":1677:1795   */\n      pop\n      pop\n      jump\t// out\n        /* \"#utility.yul\":1801:1919   */\n    tag_389:\n        /* \"#utility.yul\":1888:1912   */\n      tag_480\n        /* \"#utility.yul\":1906:1911   */\n      dup2\n        /* \"#utility.yul\":1888:1912   */\n      tag_385\n      jump\t// in\n    tag_480:\n        /* \"#utility.yul\":1883:1886   */\n      dup3\n        /* \"#utility.yul\":1876:1913   */\n      mstore\n        /* \"#utility.yul\":1801:1919   */\n      pop\n      pop\n      jump\t// out\n        /* \"#utility.yul\":1925:2024   */\n    tag_390:\n        /* \"#utility.yul\":1977:1983   */\n      0x00\n        /* \"#utility.yul\":2011:2016   */\n      dup2\n        /* \"#utility.yul\":2005:2017   */\n      mload\n        /* \"#utility.yul\":1995:2017   */\n      swap1\n      pop\n        /* \"#utility.yul\":1925:2024   */\n      swap2\n      swap1\n      pop\n      jump\t// out\n        /* \"#utility.yul\":2030:2199   */\n    tag_391:\n        /* \"#utility.yul\":2114:2125   */\n      0x00\n        /* \"#utility.yul\":2148:2154   */\n      dup3\n        /* \"#utility.yul\":2143:2146   */\n      dup3\n        /* \"#utility.yul\":2136:2155   */\n      mstore\n        /* \"#utility.yul\":2188:2192   */\n      0x20\n        /* \"#utility.yul\":2183:2186   */\n      dup3\n        /* \"#utility.yul\":2179:2193   */\n      add\n        /* \"#utility.yul\":2164:2193   */\n      swap1\n      pop\n        /* \"#utility.yul\":2030:2199   */\n      swap3\n      swap2\n      pop\n      pop\n      jump\t// out\n        /* \"#utility.yul\":2205:2451   */\n    tag_392:\n        /* \"#utility.yul\":2286:2287   */\n      0x00\n        /* \"#utility.yul\":2296:2409   */\n    tag_484:\n        /* \"#utility.yul\":2310:2316   */\n      dup4\n        /* \"#utility.yul\":2307:2308   */\n      dup2\n        /* \"#utility.yul\":2304:2317   */\n      lt\n        /* \"#utility.yul\":2296:2409   */\n      iszero\n      tag_486\n      jumpi\n        /* \"#utility.yul\":2395:2396   */\n      dup1\n        /* \"#utility.yul\":2390:2393   */\n      dup3\n        /* \"#utility.yul\":2386:2397   */\n      add\n        /* \"#utility.yul\":2380:2398   */\n      mload\n        /* \"#utility.yul\":2376:2377   */\n      dup2\n        /* \"#utility.yul\":2371:2374   */\n      dup5\n        /* \"#utility.yul\":2367:2378   */\n      add\n        /* \"#utility.yul\":2360:2399   */\n      mstore\n        /* \"#utility.yul\":2332:2334   */\n      0x20\n        /* \"#utility.yul\":2329:2330   */\n      dup2\n        /* \"#utility.yul\":2325:2335   */\n      add\n        /* \"#utility.yul\":2320:2335   */\n      swap1\n      pop\n        /* \"#utility.yul\":2296:2409   */\n      jump(tag_484)\n    tag_486:\n        /* \"#utility.yul\":2443:2444   */\n      0x00\n        /* \"#utility.yul\":2434:2440   */\n      dup5\n        /* \"#utility.yul\":2429:2432   */\n      dup5\n        /* \"#utility.yul\":2425:2441   */\n      add\n        /* \"#utility.yul\":2418:2445   */\n      mstore\n        /* \"#utility.yul\":2267:2451   */\n      pop\n        /* \"#utility.yul\":2205:2451   */\n      pop\n      pop\n      pop\n      jump\t// out\n        /* \"#utility.yul\":2457:2559   */\n    tag_393:\n        /* \"#utility.yul\":2498:2504   */\n      0x00\n        /* \"#utility.yul\":2549:2551   */\n      0x1f\n        /* \"#utility.yul\":2545:2552   */\n      not\n        /* \"#utility.yul\":2540:2542   */\n      0x1f\n        /* \"#utility.yul\":2533:2538   */\n      dup4\n        /* \"#utility.yul\":2529:2543   */\n      add\n        /* \"#utility.yul\":2525:2553   */\n      and\n        /* \"#utility.yul\":2515:2553   */\n      swap1\n      pop\n        /* \"#utility.yul\":2457:2559   */\n      swap2\n      swap1\n      pop\n      jump\t// out\n        /* \"#utility.yul\":2565:2942   */\n    tag_394:\n        /* \"#utility.yul\":2653:2656   */\n      0x00\n        /* \"#utility.yul\":2681:2720   */\n      tag_489\n        /* \"#utility.yul\":2714:2719   */\n      dup3\n        /* \"#utility.yul\":2681:2720   */\n      tag_390\n      jump\t// in\n    tag_489:\n        /* \"#utility.yul\":2736:2807   */\n      tag_490\n        /* \"#utility.yul\":2800:2806   */\n      dup2\n        /* \"#utility.yul\":2795:2798   */\n      dup6\n        /* \"#utility.yul\":2736:2807   */\n      tag_391\n      jump\t// in\n    tag_490:\n        /* \"#utility.yul\":2729:2807   */\n      swap4\n      pop\n        /* \"#utility.yul\":2816:2881   */\n      tag_491\n        /* \"#utility.yul\":2874:2880   */\n      dup2\n        /* \"#utility.yul\":2869:2872   */\n      dup6\n        /* \"#utility.yul\":2862:2866   */\n      0x20\n        /* \"#utility.yul\":2855:2860   */\n      dup7\n        /* \"#utility.yul\":2851:2867   */\n      add\n        /* \"#utility.yul\":2816:2881   */\n      tag_392\n      jump\t// in\n    tag_491:\n        /* \"#utility.yul\":2906:2935   */\n      tag_492\n        /* \"#utility.yul\":2928:2934   */\n      dup2\n        /* \"#utility.yul\":2906:2935   */\n      tag_393\n      jump\t// in\n    tag_492:\n        /* \"#utility.yul\":2901:2904   */\n      dup5\n        /* \"#utility.yul\":2897:2936   */\n      add\n        /* \"#utility.yul\":2890:2936   */\n      swap2\n      pop\n        /* \"#utility.yul\":2657:2942   */\n      pop\n        /* \"#utility.yul\":2565:2942   */\n      swap3\n      swap2\n      pop\n      pop\n      jump\t// out\n        /* \"#utility.yul\":2948:3703   */\n    tag_30:\n        /* \"#utility.yul\":3173:3177   */\n      0x00\n        /* \"#utility.yul\":3211:3214   */\n      0xa0\n        /* \"#utility.yul\":3200:3209   */\n      dup3\n        /* \"#utility.yul\":3196:3215   */\n      add\n        /* \"#utility.yul\":3188:3215   */\n      swap1\n      pop\n        /* \"#utility.yul\":3225:3296   */\n      tag_494\n        /* \"#utility.yul\":3293:3294   */\n      0x00\n        /* \"#utility.yul\":3282:3291   */\n      dup4\n        /* \"#utility.yul\":3278:3295   */\n      add\n        /* \"#utility.yul\":3269:3275   */\n      dup9\n        /* \"#utility.yul\":3225:3296   */\n      tag_388\n      jump\t// in\n    tag_494:\n        /* \"#utility.yul\":3306:3378   */\n      tag_495\n        /* \"#utility.yul\":3374:3376   */\n      0x20\n        /* \"#utility.yul\":3363:3372   */\n      dup4\n        /* \"#utility.yul\":3359:3377   */\n      add\n        /* \"#utility.yul\":3350:3356   */\n      dup8\n        /* \"#utility.yul\":3306:3378   */\n      tag_389\n      jump\t// in\n    tag_495:\n        /* \"#utility.yul\":3388:3460   */\n      tag_496\n        /* \"#utility.yul\":3456:3458   */\n      0x40\n        /* \"#utility.yul\":3445:3454   */\n      dup4\n        /* \"#utility.yul\":3441:3459   */\n      add\n        /* \"#utility.yul\":3432:3438   */\n      dup7\n        /* \"#utility.yul\":3388:3460   */\n      tag_389\n      jump\t// in\n    tag_496:\n        /* \"#utility.yul\":3507:3516   */\n      dup2\n        /* \"#utility.yul\":3501:3505   */\n      dup2\n        /* \"#utility.yul\":3497:3517   */\n      sub\n        /* \"#utility.yul\":3492:3494   */\n      0x60\n        /* \"#utility.yul\":3481:3490   */\n      dup4\n        /* \"#utility.yul\":3477:3495   */\n      add\n        /* \"#utility.yul\":3470:3518   */\n      mstore\n        /* \"#utility.yul\":3535:3613   */\n      tag_497\n        /* \"#utility.yul\":3608:3612   */\n      dup2\n        /* \"#utility.yul\":3599:3605   */\n      dup6\n        /* \"#utility.yul\":3535:3613   */\n      tag_394\n      jump\t// in\n    tag_497:\n        /* \"#utility.yul\":3527:3613   */\n      swap1\n      pop\n        /* \"#utility.yul\":3623:3696   */\n      tag_498\n        /* \"#utility.yul\":3691:3694   */\n      0x80\n        /* \"#utility.yul\":3680:3689   */\n      dup4\n        /* \"#utility.yul\":3676:3695   */\n      add\n        /* \"#utility.yul\":3667:3673   */\n      dup5\n        /* \"#utility.yul\":3623:3696   */\n      tag_389\n      jump\t// in\n    tag_498:\n        /* \"#utility.yul\":2948:3703   */\n      swap7\n      swap6\n      pop\n      pop\n      pop\n      pop\n      pop\n      pop\n      jump\t// out\n        /* \"#utility.yul\":3709:4038   */\n    tag_51:\n        /* \"#utility.yul\":3768:3774   */\n      0x00\n        /* \"#utility.yul\":3817:3819   */\n      0x20\n        /* \"#utility.yul\":3805:3814   */\n      dup3\n        /* \"#utility.yul\":3796:3803   */\n      dup5\n        /* \"#utility.yul\":3792:3815   */\n      sub\n        /* \"#utility.yul\":3788:3820   */\n      slt\n        /* \"#utility.yul\":3785:3904   */\n      iszero\n      tag_500\n      jumpi\n        /* \"#utility.yul\":3823:3902   */\n      tag_501\n      tag_379\n      jump\t// in\n    tag_501:\n        /* \"#utility.yul\":3785:3904   */\n    tag_500:\n        /* \"#utility.yul\":3943:3944   */\n      0x00\n        /* \"#utility.yul\":3968:4021   */\n      tag_502\n        /* \"#utility.yul\":4013:4020   */\n      dup5\n        /* \"#utility.yul\":4004:4010   */\n      dup3\n        /* \"#utility.yul\":3993:4002   */\n      dup6\n        /* \"#utility.yul\":3989:4011   */\n      add\n        /* \"#utility.yul\":3968:4021   */\n      tag_387\n      jump\t// in\n    tag_502:\n        /* \"#utility.yul\":3958:4021   */\n      swap2\n      pop\n        /* \"#utility.yul\":3914:4031   */\n      pop\n        /* \"#utility.yul\":3709:4038   */\n      swap3\n      swap2\n      pop\n      pop\n      jump\t// out\n        /* \"#utility.yul\":4044:4224   */\n    tag_134:\n        /* \"#utility.yul\":4092:4169   */\n      0x4e487b7100000000000000000000000000000000000000000000000000000000\n        /* \"#utility.yul\":4089:4090   */\n      0x00\n        /* \"#utility.yul\":4082:4170   */\n      mstore\n        /* \"#utility.yul\":4189:4193   */\n      0x21\n        /* \"#utility.yul\":4186:4187   */\n      0x04\n        /* \"#utility.yul\":4179:4194   */\n      mstore\n        /* \"#utility.yul\":4213:4217   */\n      0x24\n        /* \"#utility.yul\":4210:4211   */\n      0x00\n        /* \"#utility.yul\":4203:4218   */\n      revert\n        /* \"#utility.yul\":4230:4341   */\n    tag_395:\n        /* \"#utility.yul\":4309:4310   */\n      0x03\n        /* \"#utility.yul\":4302:4307   */\n      dup2\n        /* \"#utility.yul\":4299:4311   */\n      lt\n        /* \"#utility.yul\":4289:4335   */\n      tag_505\n      jumpi\n        /* \"#utility.yul\":4315:4333   */\n      tag_506\n      tag_134\n      jump\t// in\n    tag_506:\n        /* \"#utility.yul\":4289:4335   */\n    tag_505:\n        /* \"#utility.yul\":4230:4341   */\n      pop\n      jump\t// out\n        /* \"#utility.yul\":4347:4470   */\n    tag_396:\n        /* \"#utility.yul\":4390:4397   */\n      0x00\n        /* \"#utility.yul\":4419:4424   */\n      dup2\n        /* \"#utility.yul\":4408:4424   */\n      swap1\n      pop\n        /* \"#utility.yul\":4425:4464   */\n      tag_508\n        /* \"#utility.yul\":4458:4463   */\n      dup3\n        /* \"#utility.yul\":4425:4464   */\n      tag_395\n      jump\t// in\n    tag_508:\n        /* \"#utility.yul\":4347:4470   */\n      swap2\n      swap1\n      pop\n      jump\t// out\n        /* \"#utility.yul\":4476:4599   */\n    tag_397:\n        /* \"#utility.yul\":4530:4539   */\n      0x00\n        /* \"#utility.yul\":4563:4593   */\n      tag_510\n        /* \"#utility.yul\":4587:4592   */\n      dup3\n        /* \"#utility.yul\":4563:4593   */\n      tag_396\n      jump\t// in\n    tag_510:\n        /* \"#utility.yul\":4550:4593   */\n      swap1\n      pop\n        /* \"#utility.yul\":4476:4599   */\n      swap2\n      swap1\n      pop\n      jump\t// out\n        /* \"#utility.yul\":4605:4744   */\n    tag_398:\n        /* \"#utility.yul\":4696:4737   */\n      tag_512\n        /* \"#utility.yul\":4731:4736   */\n      dup2\n        /* \"#utility.yul\":4696:4737   */\n      tag_397\n      jump\t// in\n    tag_512:\n        /* \"#utility.yul\":4691:4694   */\n      dup3\n        /* \"#utility.yul\":4684:4738   */\n      mstore\n        /* \"#utility.yul\":4605:4744   */\n      pop\n      pop\n      jump\t// out\n        /* \"#utility.yul\":4750:5090   */\n    tag_54:\n        /* \"#utility.yul\":4875:4879   */\n      0x00\n        /* \"#utility.yul\":4913:4915   */\n      0x40\n        /* \"#utility.yul\":4902:4911   */\n      dup3\n        /* \"#utility.yul\":4898:4916   */\n      add\n        /* \"#utility.yul\":4890:4916   */\n      swap1\n      pop\n        /* \"#utility.yul\":4926:4997   */\n      tag_514\n        /* \"#utility.yul\":4994:4995   */\n      0x00\n        /* \"#utility.yul\":4983:4992   */\n      dup4\n        /* \"#utility.yul\":4979:4996   */\n      add\n        /* \"#utility.yul\":4970:4976   */\n      dup6\n        /* \"#utility.yul\":4926:4997   */\n      tag_388\n      jump\t// in\n    tag_514:\n        /* \"#utility.yul\":5007:5083   */\n      tag_515\n        /* \"#utility.yul\":5079:5081   */\n      0x20\n        /* \"#utility.yul\":5068:5077   */\n      dup4\n        /* \"#utility.yul\":5064:5082   */\n      add\n        /* \"#utility.yul\":5055:5061   */\n      dup5\n        /* \"#utility.yul\":5007:5083   */\n      tag_398\n      jump\t// in\n    tag_515:\n        /* \"#utility.yul\":4750:5090   */\n      swap4\n      swap3\n      pop\n      pop\n      pop\n      jump\t// out\n        /* \"#utility.yul\":5096:5201   */\n    tag_399:\n        /* \"#utility.yul\":5175:5176   */\n      0x03\n        /* \"#utility.yul\":5168:5173   */\n      dup2\n        /* \"#utility.yul\":5165:5177   */\n      lt\n        /* \"#utility.yul\":5155:5195   */\n      tag_517\n      jumpi\n        /* \"#utility.yul\":5191:5192   */\n      0x00\n        /* \"#utility.yul\":5188:5189   */\n      dup1\n        /* \"#utility.yul\":5181:5193   */\n      revert\n        /* \"#utility.yul\":5155:5195   */\n    tag_517:\n        /* \"#utility.yul\":5096:5201   */\n      pop\n      jump\t// out\n        /* \"#utility.yul\":5207:5358   */\n    tag_400:\n        /* \"#utility.yul\":5259:5264   */\n      0x00\n        /* \"#utility.yul\":5297:5303   */\n      dup2\n        /* \"#utility.yul\":5284:5304   */\n      calldataload\n        /* \"#utility.yul\":5275:5304   */\n      swap1\n      pop\n        /* \"#utility.yul\":5313:5352   */\n      tag_519\n        /* \"#utility.yul\":5346:5351   */\n      dup2\n        /* \"#utility.yul\":5313:5352   */\n      tag_399\n      jump\t// in\n    tag_519:\n        /* \"#utility.yul\":5207:5358   */\n      swap3\n      swap2\n      pop\n      pop\n      jump\t// out\n        /* \"#utility.yul\":5364:5705   */\n    tag_58:\n        /* \"#utility.yul\":5429:5435   */\n      0x00\n        /* \"#utility.yul\":5478:5480   */\n      0x20\n        /* \"#utility.yul\":5466:5475   */\n      dup3\n        /* \"#utility.yul\":5457:5464   */\n      dup5\n        /* \"#utility.yul\":5453:5476   */\n      sub\n        /* \"#utility.yul\":5449:5481   */\n      slt\n        /* \"#utility.yul\":5446:5565   */\n      iszero\n      tag_521\n      jumpi\n        /* \"#utility.yul\":5484:5563   */\n      tag_522\n      tag_379\n      jump\t// in\n    tag_522:\n        /* \"#utility.yul\":5446:5565   */\n    tag_521:\n        /* \"#utility.yul\":5604:5605   */\n      0x00\n        /* \"#utility.yul\":5629:5688   */\n      tag_523\n        /* \"#utility.yul\":5680:5687   */\n      dup5\n        /* \"#utility.yul\":5671:5677   */\n      dup3\n        /* \"#utility.yul\":5660:5669   */\n      dup6\n        /* \"#utility.yul\":5656:5678   */\n      add\n        /* \"#utility.yul\":5629:5688   */\n      tag_400\n      jump\t// in\n    tag_523:\n        /* \"#utility.yul\":5619:5688   */\n      swap2\n      pop\n        /* \"#utility.yul\":5575:5698   */\n      pop\n        /* \"#utility.yul\":5364:5705   */\n      swap3\n      swap2\n      pop\n      pop\n      jump\t// out\n        /* \"#utility.yul\":5711:5933   */\n    tag_72:\n        /* \"#utility.yul\":5804:5808   */\n      0x00\n        /* \"#utility.yul\":5842:5844   */\n      0x20\n        /* \"#utility.yul\":5831:5840   */\n      dup3\n        /* \"#utility.yul\":5827:5845   */\n      add\n        /* \"#utility.yul\":5819:5845   */\n      swap1\n      pop\n        /* \"#utility.yul\":5855:5926   */\n      tag_525\n        /* \"#utility.yul\":5923:5924   */\n      0x00\n        /* \"#utility.yul\":5912:5921   */\n      dup4\n        /* \"#utility.yul\":5908:5925   */\n      add\n        /* \"#utility.yul\":5899:5905   */\n      dup5\n        /* \"#utility.yul\":5855:5926   */\n      tag_389\n      jump\t// in\n    tag_525:\n        /* \"#utility.yul\":5711:5933   */\n      swap3\n      swap2\n      pop\n      pop\n      jump\t// out\n        /* \"#utility.yul\":5939:6056   */\n    tag_401:\n        /* \"#utility.yul\":6048:6049   */\n      0x00\n        /* \"#utility.yul\":6045:6046   */\n      dup1\n        /* \"#utility.yul\":6038:6050   */\n      revert\n        /* \"#utility.yul\":6062:6179   */\n    tag_402:\n        /* \"#utility.yul\":6171:6172   */\n      0x00\n        /* \"#utility.yul\":6168:6169   */\n      dup1\n        /* \"#utility.yul\":6161:6173   */\n      revert\n        /* \"#utility.yul\":6185:6302   */\n    tag_403:\n        /* \"#utility.yul\":6294:6295   */\n      0x00\n        /* \"#utility.yul\":6291:6292   */\n      dup1\n        /* \"#utility.yul\":6284:6296   */\n      revert\n        /* \"#utility.yul\":6322:6875   */\n    tag_404:\n        /* \"#utility.yul\":6380:6388   */\n      0x00\n        /* \"#utility.yul\":6390:6396   */\n      dup1\n        /* \"#utility.yul\":6440:6443   */\n      dup4\n        /* \"#utility.yul\":6433:6437   */\n      0x1f\n        /* \"#utility.yul\":6425:6431   */\n      dup5\n        /* \"#utility.yul\":6421:6438   */\n      add\n        /* \"#utility.yul\":6417:6444   */\n      slt\n        /* \"#utility.yul\":6407:6529   */\n      tag_530\n      jumpi\n        /* \"#utility.yul\":6448:6527   */\n      tag_531\n      tag_401\n      jump\t// in\n    tag_531:\n        /* \"#utility.yul\":6407:6529   */\n    tag_530:\n        /* \"#utility.yul\":6561:6567   */\n      dup3\n        /* \"#utility.yul\":6548:6568   */\n      calldataload\n        /* \"#utility.yul\":6538:6568   */\n      swap1\n      pop\n        /* \"#utility.yul\":6591:6609   */\n      0xffffffffffffffff\n        /* \"#utility.yul\":6583:6589   */\n      dup2\n        /* \"#utility.yul\":6580:6610   */\n      gt\n        /* \"#utility.yul\":6577:6694   */\n      iszero\n      tag_532\n      jumpi\n        /* \"#utility.yul\":6613:6692   */\n      tag_533\n      tag_402\n      jump\t// in\n    tag_533:\n        /* \"#utility.yul\":6577:6694   */\n    tag_532:\n        /* \"#utility.yul\":6727:6731   */\n      0x20\n        /* \"#utility.yul\":6719:6725   */\n      dup4\n        /* \"#utility.yul\":6715:6732   */\n      add\n        /* \"#utility.yul\":6703:6732   */\n      swap2\n      pop\n        /* \"#utility.yul\":6781:6784   */\n      dup4\n        /* \"#utility.yul\":6773:6777   */\n      0x01\n        /* \"#utility.yul\":6765:6771   */\n      dup3\n        /* \"#utility.yul\":6761:6778   */\n      mul\n        /* \"#utility.yul\":6751:6759   */\n      dup4\n        /* \"#utility.yul\":6747:6779   */\n      add\n        /* \"#utility.yul\":6744:6785   */\n      gt\n        /* \"#utility.yul\":6741:6869   */\n      iszero\n      tag_534\n      jumpi\n        /* \"#utility.yul\":6788:6867   */\n      tag_535\n      tag_403\n      jump\t// in\n    tag_535:\n        /* \"#utility.yul\":6741:6869   */\n    tag_534:\n        /* \"#utility.yul\":6322:6875   */\n      swap3\n      pop\n      swap3\n      swap1\n      pop\n      jump\t// out\n        /* \"#utility.yul\":6881:7992   */\n    tag_76:\n        /* \"#utility.yul\":6988:6994   */\n      0x00\n        /* \"#utility.yul\":6996:7002   */\n      dup1\n        /* \"#utility.yul\":7004:7010   */\n      0x00\n        /* \"#utility.yul\":7012:7018   */\n      dup1\n        /* \"#utility.yul\":7020:7026   */\n      0x00\n        /* \"#utility.yul\":7028:7034   */\n      dup1\n        /* \"#utility.yul\":7077:7080   */\n      0xa0\n        /* \"#utility.yul\":7065:7074   */\n      dup8\n        /* \"#utility.yul\":7056:7063   */\n      dup10\n        /* \"#utility.yul\":7052:7075   */\n      sub\n        /* \"#utility.yul\":7048:7081   */\n      slt\n        /* \"#utility.yul\":7045:7165   */\n      iszero\n      tag_537\n      jumpi\n        /* \"#utility.yul\":7084:7163   */\n      tag_538\n      tag_379\n      jump\t// in\n    tag_538:\n        /* \"#utility.yul\":7045:7165   */\n    tag_537:\n        /* \"#utility.yul\":7204:7205   */\n      0x00\n        /* \"#utility.yul\":7229:7282   */\n      tag_539\n        /* \"#utility.yul\":7274:7281   */\n      dup10\n        /* \"#utility.yul\":7265:7271   */\n      dup3\n        /* \"#utility.yul\":7254:7263   */\n      dup11\n        /* \"#utility.yul\":7250:7272   */\n      add\n        /* \"#utility.yul\":7229:7282   */\n      tag_387\n      jump\t// in\n    tag_539:\n        /* \"#utility.yul\":7219:7282   */\n      swap7\n      pop\n        /* \"#utility.yul\":7175:7292   */\n      pop\n        /* \"#utility.yul\":7331:7333   */\n      0x20\n        /* \"#utility.yul\":7357:7410   */\n      tag_540\n        /* \"#utility.yul\":7402:7409   */\n      dup10\n        /* \"#utility.yul\":7393:7399   */\n      dup3\n        /* \"#utility.yul\":7382:7391   */\n      dup11\n        /* \"#utility.yul\":7378:7400   */\n      add\n        /* \"#utility.yul\":7357:7410   */\n      tag_387\n      jump\t// in\n    tag_540:\n        /* \"#utility.yul\":7347:7410   */\n      swap6\n      pop\n        /* \"#utility.yul\":7302:7420   */\n      pop\n        /* \"#utility.yul\":7487:7489   */\n      0x40\n        /* \"#utility.yul\":7476:7485   */\n      dup8\n        /* \"#utility.yul\":7472:7490   */\n      add\n        /* \"#utility.yul\":7459:7491   */\n      calldataload\n        /* \"#utility.yul\":7518:7536   */\n      0xffffffffffffffff\n        /* \"#utility.yul\":7510:7516   */\n      dup2\n        /* \"#utility.yul\":7507:7537   */\n      gt\n        /* \"#utility.yul\":7504:7621   */\n      iszero\n      tag_541\n      jumpi\n        /* \"#utility.yul\":7540:7619   */\n      tag_542\n      tag_380\n      jump\t// in\n    tag_542:\n        /* \"#utility.yul\":7504:7621   */\n    tag_541:\n        /* \"#utility.yul\":7653:7718   */\n      tag_543\n        /* \"#utility.yul\":7710:7717   */\n      dup10\n        /* \"#utility.yul\":7701:7707   */\n      dup3\n        /* \"#utility.yul\":7690:7699   */\n      dup11\n        /* \"#utility.yul\":7686:7708   */\n      add\n        /* \"#utility.yul\":7653:7718   */\n      tag_404\n      jump\t// in\n    tag_543:\n        /* \"#utility.yul\":7635:7718   */\n      swap5\n      pop\n      swap5\n      pop\n        /* \"#utility.yul\":7430:7728   */\n      pop\n        /* \"#utility.yul\":7767:7769   */\n      0x60\n        /* \"#utility.yul\":7793:7846   */\n      tag_544\n        /* \"#utility.yul\":7838:7845   */\n      dup10\n        /* \"#utility.yul\":7829:7835   */\n      dup3\n        /* \"#utility.yul\":7818:7827   */\n      dup11\n        /* \"#utility.yul\":7814:7836   */\n      add\n        /* \"#utility.yul\":7793:7846   */\n      tag_387\n      jump\t// in\n    tag_544:\n        /* \"#utility.yul\":7783:7846   */\n      swap3\n      pop\n        /* \"#utility.yul\":7738:7856   */\n      pop\n        /* \"#utility.yul\":7895:7898   */\n      0x80\n        /* \"#utility.yul\":7922:7975   */\n      tag_545\n        /* \"#utility.yul\":7967:7974   */\n      dup10\n        /* \"#utility.yul\":7958:7964   */\n      dup3\n        /* \"#utility.yul\":7947:7956   */\n      dup11\n        /* \"#utility.yul\":7943:7965   */\n      add\n        /* \"#utility.yul\":7922:7975   */\n      tag_384\n      jump\t// in\n    tag_545:\n        /* \"#utility.yul\":7912:7975   */\n      swap2\n      pop\n        /* \"#utility.yul\":7866:7985   */\n      pop\n        /* \"#utility.yul\":6881:7992   */\n      swap3\n      swap6\n      pop\n      swap3\n      swap6\n      pop\n      swap3\n      swap6\n      jump\t// out\n        /* \"#utility.yul\":7998:8220   */\n    tag_82:\n        /* \"#utility.yul\":8091:8095   */\n      0x00\n        /* \"#utility.yul\":8129:8131   */\n      0x20\n        /* \"#utility.yul\":8118:8127   */\n      dup3\n        /* \"#utility.yul\":8114:8132   */\n      add\n        /* \"#utility.yul\":8106:8132   */\n      swap1\n      pop\n        /* \"#utility.yul\":8142:8213   */\n      tag_547\n        /* \"#utility.yul\":8210:8211   */\n      0x00\n        /* \"#utility.yul\":8199:8208   */\n      dup4\n        /* \"#utility.yul\":8195:8212   */\n      add\n        /* \"#utility.yul\":8186:8192   */\n      dup5\n        /* \"#utility.yul\":8142:8213   */\n      tag_388\n      jump\t// in\n    tag_547:\n        /* \"#utility.yul\":7998:8220   */\n      swap3\n      swap2\n      pop\n      pop\n      jump\t// out\n        /* \"#utility.yul\":8226:8343   */\n    tag_405:\n        /* \"#utility.yul\":8335:8336   */\n      0x00\n        /* \"#utility.yul\":8332:8333   */\n      dup1\n        /* \"#utility.yul\":8325:8337   */\n      revert\n        /* \"#utility.yul\":8349:8529   */\n    tag_406:\n        /* \"#utility.yul\":8397:8474   */\n      0x4e487b7100000000000000000000000000000000000000000000000000000000\n        /* \"#utility.yul\":8394:8395   */\n      0x00\n        /* \"#utility.yul\":8387:8475   */\n      mstore\n        /* \"#utility.yul\":8494:8498   */\n      0x41\n        /* \"#utility.yul\":8491:8492   */\n      0x04\n        /* \"#utility.yul\":8484:8499   */\n      mstore\n        /* \"#utility.yul\":8518:8522   */\n      0x24\n        /* \"#utility.yul\":8515:8516   */\n      0x00\n        /* \"#utility.yul\":8508:8523   */\n      revert\n        /* \"#utility.yul\":8535:8816   */\n    tag_407:\n        /* \"#utility.yul\":8618:8645   */\n      tag_551\n        /* \"#utility.yul\":8640:8644   */\n      dup3\n        /* \"#utility.yul\":8618:8645   */\n      tag_393\n      jump\t// in\n    tag_551:\n        /* \"#utility.yul\":8610:8616   */\n      dup2\n        /* \"#utility.yul\":8606:8646   */\n      add\n        /* \"#utility.yul\":8748:8754   */\n      dup2\n        /* \"#utility.yul\":8736:8746   */\n      dup2\n        /* \"#utility.yul\":8733:8755   */\n      lt\n        /* \"#utility.yul\":8712:8730   */\n      0xffffffffffffffff\n        /* \"#utility.yul\":8700:8710   */\n      dup3\n        /* \"#utility.yul\":8697:8731   */\n      gt\n        /* \"#utility.yul\":8694:8756   */\n      or\n        /* \"#utility.yul\":8691:8779   */\n      iszero\n      tag_552\n      jumpi\n        /* \"#utility.yul\":8759:8777   */\n      tag_553\n      tag_406\n      jump\t// in\n    tag_553:\n        /* \"#utility.yul\":8691:8779   */\n    tag_552:\n        /* \"#utility.yul\":8799:8809   */\n      dup1\n        /* \"#utility.yul\":8795:8797   */\n      0x40\n        /* \"#utility.yul\":8788:8810   */\n      mstore\n        /* \"#utility.yul\":8578:8816   */\n      pop\n        /* \"#utility.yul\":8535:8816   */\n      pop\n      pop\n      jump\t// out\n        /* \"#utility.yul\":8822:8951   */\n    tag_408:\n        /* \"#utility.yul\":8856:8862   */\n      0x00\n        /* \"#utility.yul\":8883:8903   */\n      tag_555\n      tag_378\n      jump\t// in\n    tag_555:\n        /* \"#utility.yul\":8873:8903   */\n      swap1\n      pop\n        /* \"#utility.yul\":8912:8945   */\n      tag_556\n        /* \"#utility.yul\":8940:8944   */\n      dup3\n        /* \"#utility.yul\":8932:8938   */\n      dup3\n        /* \"#utility.yul\":8912:8945   */\n      tag_407\n      jump\t// in\n    tag_556:\n        /* \"#utility.yul\":8822:8951   */\n      swap2\n      swap1\n      pop\n      jump\t// out\n        /* \"#utility.yul\":8957:9265   */\n    tag_409:\n        /* \"#utility.yul\":9019:9023   */\n      0x00\n        /* \"#utility.yul\":9109:9127   */\n      0xffffffffffffffff\n        /* \"#utility.yul\":9101:9107   */\n      dup3\n        /* \"#utility.yul\":9098:9128   */\n      gt\n        /* \"#utility.yul\":9095:9151   */\n      iszero\n      tag_558\n      jumpi\n        /* \"#utility.yul\":9131:9149   */\n      tag_559\n      tag_406\n      jump\t// in\n    tag_559:\n        /* \"#utility.yul\":9095:9151   */\n    tag_558:\n        /* \"#utility.yul\":9169:9198   */\n      tag_560\n        /* \"#utility.yul\":9191:9197   */\n      dup3\n        /* \"#utility.yul\":9169:9198   */\n      tag_393\n      jump\t// in\n    tag_560:\n        /* \"#utility.yul\":9161:9198   */\n      swap1\n      pop\n        /* \"#utility.yul\":9253:9257   */\n      0x20\n        /* \"#utility.yul\":9247:9251   */\n      dup2\n        /* \"#utility.yul\":9243:9258   */\n      add\n        /* \"#utility.yul\":9235:9258   */\n      swap1\n      pop\n        /* \"#utility.yul\":8957:9265   */\n      swap2\n      swap1\n      pop\n      jump\t// out\n        /* \"#utility.yul\":9271:9417   */\n    tag_410:\n        /* \"#utility.yul\":9368:9374   */\n      dup3\n        /* \"#utility.yul\":9363:9366   */\n      dup2\n        /* \"#utility.yul\":9358:9361   */\n      dup4\n        /* \"#utility.yul\":9345:9375   */\n      calldatacopy\n        /* \"#utility.yul\":9409:9410   */\n      0x00\n        /* \"#utility.yul\":9400:9406   */\n      dup4\n        /* \"#utility.yul\":9395:9398   */\n      dup4\n        /* \"#utility.yul\":9391:9407   */\n      add\n        /* \"#utility.yul\":9384:9411   */\n      mstore\n        /* \"#utility.yul\":9271:9417   */\n      pop\n      pop\n      pop\n      jump\t// out\n        /* \"#utility.yul\":9423:9848   */\n    tag_411:\n        /* \"#utility.yul\":9501:9506   */\n      0x00\n        /* \"#utility.yul\":9526:9592   */\n      tag_563\n        /* \"#utility.yul\":9542:9591   */\n      tag_564\n        /* \"#utility.yul\":9584:9590   */\n      dup5\n        /* \"#utility.yul\":9542:9591   */\n      tag_409\n      jump\t// in\n    tag_564:\n        /* \"#utility.yul\":9526:9592   */\n      tag_408\n      jump\t// in\n    tag_563:\n        /* \"#utility.yul\":9517:9592   */\n      swap1\n      pop\n        /* \"#utility.yul\":9615:9621   */\n      dup3\n        /* \"#utility.yul\":9608:9613   */\n      dup2\n        /* \"#utility.yul\":9601:9622   */\n      mstore\n        /* \"#utility.yul\":9653:9657   */\n      0x20\n        /* \"#utility.yul\":9646:9651   */\n      dup2\n        /* \"#utility.yul\":9642:9658   */\n      add\n        /* \"#utility.yul\":9691:9694   */\n      dup5\n        /* \"#utility.yul\":9682:9688   */\n      dup5\n        /* \"#utility.yul\":9677:9680   */\n      dup5\n        /* \"#utility.yul\":9673:9689   */\n      add\n        /* \"#utility.yul\":9670:9695   */\n      gt\n        /* \"#utility.yul\":9667:9779   */\n      iszero\n      tag_565\n      jumpi\n        /* \"#utility.yul\":9698:9777   */\n      tag_566\n      tag_405\n      jump\t// in\n    tag_566:\n        /* \"#utility.yul\":9667:9779   */\n    tag_565:\n        /* \"#utility.yul\":9788:9842   */\n      tag_567\n        /* \"#utility.yul\":9835:9841   */\n      dup5\n        /* \"#utility.yul\":9830:9833   */\n      dup3\n        /* \"#utility.yul\":9825:9828   */\n      dup6\n        /* \"#utility.yul\":9788:9842   */\n      tag_410\n      jump\t// in\n    tag_567:\n        /* \"#utility.yul\":9507:9848   */\n      pop\n        /* \"#utility.yul\":9423:9848   */\n      swap4\n      swap3\n      pop\n      pop\n      pop\n      jump\t// out\n        /* \"#utility.yul\":9868:10208   */\n    tag_412:\n        /* \"#utility.yul\":9924:9929   */\n      0x00\n        /* \"#utility.yul\":9973:9976   */\n      dup3\n        /* \"#utility.yul\":9966:9970   */\n      0x1f\n        /* \"#utility.yul\":9958:9964   */\n      dup4\n        /* \"#utility.yul\":9954:9971   */\n      add\n        /* \"#utility.yul\":9950:9977   */\n      slt\n        /* \"#utility.yul\":9940:10062   */\n      tag_569\n      jumpi\n        /* \"#utility.yul\":9981:10060   */\n      tag_570\n      tag_401\n      jump\t// in\n    tag_570:\n        /* \"#utility.yul\":9940:10062   */\n    tag_569:\n        /* \"#utility.yul\":10098:10104   */\n      dup2\n        /* \"#utility.yul\":10085:10105   */\n      calldataload\n        /* \"#utility.yul\":10123:10202   */\n      tag_571\n        /* \"#utility.yul\":10198:10201   */\n      dup5\n        /* \"#utility.yul\":10190:10196   */\n      dup3\n        /* \"#utility.yul\":10183:10187   */\n      0x20\n        /* \"#utility.yul\":10175:10181   */\n      dup7\n        /* \"#utility.yul\":10171:10188   */\n      add\n        /* \"#utility.yul\":10123:10202   */\n      tag_411\n      jump\t// in\n    tag_571:\n        /* \"#utility.yul\":10114:10202   */\n      swap2\n      pop\n        /* \"#utility.yul\":9930:10208   */\n      pop\n        /* \"#utility.yul\":9868:10208   */\n      swap3\n      swap2\n      pop\n      pop\n      jump\t// out\n        /* \"#utility.yul\":10214:11159   */\n    tag_85:\n        /* \"#utility.yul\":10310:10316   */\n      0x00\n        /* \"#utility.yul\":10318:10324   */\n      dup1\n        /* \"#utility.yul\":10326:10332   */\n      0x00\n        /* \"#utility.yul\":10334:10340   */\n      dup1\n        /* \"#utility.yul\":10383:10386   */\n      0x80\n        /* \"#utility.yul\":10371:10380   */\n      dup6\n        /* \"#utility.yul\":10362:10369   */\n      dup8\n        /* \"#utility.yul\":10358:10381   */\n      sub\n        /* \"#utility.yul\":10354:10387   */\n      slt\n        /* \"#utility.yul\":10351:10471   */\n      iszero\n      tag_573\n      jumpi\n        /* \"#utility.yul\":10390:10469   */\n      tag_574\n      tag_379\n      jump\t// in\n    tag_574:\n        /* \"#utility.yul\":10351:10471   */\n    tag_573:\n        /* \"#utility.yul\":10510:10511   */\n      0x00\n        /* \"#utility.yul\":10535:10588   */\n      tag_575\n        /* \"#utility.yul\":10580:10587   */\n      dup8\n        /* \"#utility.yul\":10571:10577   */\n      dup3\n        /* \"#utility.yul\":10560:10569   */\n      dup9\n        /* \"#utility.yul\":10556:10578   */\n      add\n        /* \"#utility.yul\":10535:10588   */\n      tag_384\n      jump\t// in\n    tag_575:\n        /* \"#utility.yul\":10525:10588   */\n      swap5\n      pop\n        /* \"#utility.yul\":10481:10598   */\n      pop\n        /* \"#utility.yul\":10637:10639   */\n      0x20\n        /* \"#utility.yul\":10663:10716   */\n      tag_576\n        /* \"#utility.yul\":10708:10715   */\n      dup8\n        /* \"#utility.yul\":10699:10705   */\n      dup3\n        /* \"#utility.yul\":10688:10697   */\n      dup9\n        /* \"#utility.yul\":10684:10706   */\n      add\n        /* \"#utility.yul\":10663:10716   */\n      tag_387\n      jump\t// in\n    tag_576:\n        /* \"#utility.yul\":10653:10716   */\n      swap4\n      pop\n        /* \"#utility.yul\":10608:10726   */\n      pop\n        /* \"#utility.yul\":10765:10767   */\n      0x40\n        /* \"#utility.yul\":10791:10844   */\n      tag_577\n        /* \"#utility.yul\":10836:10843   */\n      dup8\n        /* \"#utility.yul\":10827:10833   */\n      dup3\n        /* \"#utility.yul\":10816:10825   */\n      dup9\n        /* \"#utility.yul\":10812:10834   */\n      add\n        /* \"#utility.yul\":10791:10844   */\n      tag_387\n      jump\t// in\n    tag_577:\n        /* \"#utility.yul\":10781:10844   */\n      swap3\n      pop\n        /* \"#utility.yul\":10736:10854   */\n      pop\n        /* \"#utility.yul\":10921:10923   */\n      0x60\n        /* \"#utility.yul\":10910:10919   */\n      dup6\n        /* \"#utility.yul\":10906:10924   */\n      add\n        /* \"#utility.yul\":10893:10925   */\n      calldataload\n        /* \"#utility.yul\":10952:10970   */\n      0xffffffffffffffff\n        /* \"#utility.yul\":10944:10950   */\n      dup2\n        /* \"#utility.yul\":10941:10971   */\n      gt\n        /* \"#utility.yul\":10938:11055   */\n      iszero\n      tag_578\n      jumpi\n        /* \"#utility.yul\":10974:11053   */\n      tag_579\n      tag_380\n      jump\t// in\n    tag_579:\n        /* \"#utility.yul\":10938:11055   */\n    tag_578:\n        /* \"#utility.yul\":11079:11142   */\n      tag_580\n        /* \"#utility.yul\":11134:11141   */\n      dup8\n        /* \"#utility.yul\":11125:11131   */\n      dup3\n        /* \"#utility.yul\":11114:11123   */\n      dup9\n        /* \"#utility.yul\":11110:11132   */\n      add\n        /* \"#utility.yul\":11079:11142   */\n      tag_412\n      jump\t// in\n    tag_580:\n        /* \"#utility.yul\":11069:11142   */\n      swap2\n      pop\n        /* \"#utility.yul\":10864:11152   */\n      pop\n        /* \"#utility.yul\":10214:11159   */\n      swap3\n      swap6\n      swap2\n      swap5\n      pop\n      swap3\n      pop\n      jump\t// out\n        /* \"#utility.yul\":11165:11819   */\n    tag_90:\n        /* \"#utility.yul\":11243:11249   */\n      0x00\n        /* \"#utility.yul\":11251:11257   */\n      dup1\n        /* \"#utility.yul\":11300:11302   */\n      0x40\n        /* \"#utility.yul\":11288:11297   */\n      dup4\n        /* \"#utility.yul\":11279:11286   */\n      dup6\n        /* \"#utility.yul\":11275:11298   */\n      sub\n        /* \"#utility.yul\":11271:11303   */\n      slt\n        /* \"#utility.yul\":11268:11387   */\n      iszero\n      tag_582\n      jumpi\n        /* \"#utility.yul\":11306:11385   */\n      tag_583\n      tag_379\n      jump\t// in\n    tag_583:\n        /* \"#utility.yul\":11268:11387   */\n    tag_582:\n        /* \"#utility.yul\":11454:11455   */\n      0x00\n        /* \"#utility.yul\":11443:11452   */\n      dup4\n        /* \"#utility.yul\":11439:11456   */\n      add\n        /* \"#utility.yul\":11426:11457   */\n      calldataload\n        /* \"#utility.yul\":11484:11502   */\n      0xffffffffffffffff\n        /* \"#utility.yul\":11476:11482   */\n      dup2\n        /* \"#utility.yul\":11473:11503   */\n      gt\n        /* \"#utility.yul\":11470:11587   */\n      iszero\n      tag_584\n      jumpi\n        /* \"#utility.yul\":11506:11585   */\n      tag_585\n      tag_380\n      jump\t// in\n    tag_585:\n        /* \"#utility.yul\":11470:11587   */\n    tag_584:\n        /* \"#utility.yul\":11611:11674   */\n      tag_586\n        /* \"#utility.yul\":11666:11673   */\n      dup6\n        /* \"#utility.yul\":11657:11663   */\n      dup3\n        /* \"#utility.yul\":11646:11655   */\n      dup7\n        /* \"#utility.yul\":11642:11664   */\n      add\n        /* \"#utility.yul\":11611:11674   */\n      tag_412\n      jump\t// in\n    tag_586:\n        /* \"#utility.yul\":11601:11674   */\n      swap3\n      pop\n        /* \"#utility.yul\":11397:11684   */\n      pop\n        /* \"#utility.yul\":11723:11725   */\n      0x20\n        /* \"#utility.yul\":11749:11802   */\n      tag_587\n        /* \"#utility.yul\":11794:11801   */\n      dup6\n        /* \"#utility.yul\":11785:11791   */\n      dup3\n        /* \"#utility.yul\":11774:11783   */\n      dup7\n        /* \"#utility.yul\":11770:11792   */\n      add\n        /* \"#utility.yul\":11749:11802   */\n      tag_384\n      jump\t// in\n    tag_587:\n        /* \"#utility.yul\":11739:11802   */\n      swap2\n      pop\n        /* \"#utility.yul\":11694:11812   */\n      pop\n        /* \"#utility.yul\":11165:11819   */\n      swap3\n      pop\n      swap3\n      swap1\n      pop\n      jump\t// out\n        /* \"#utility.yul\":11825:12154   */\n    tag_95:\n        /* \"#utility.yul\":11884:11890   */\n      0x00\n        /* \"#utility.yul\":11933:11935   */\n      0x20\n        /* \"#utility.yul\":11921:11930   */\n      dup3\n        /* \"#utility.yul\":11912:11919   */\n      dup5\n        /* \"#utility.yul\":11908:11931   */\n      sub\n        /* \"#utility.yul\":11904:11936   */\n      slt\n        /* \"#utility.yul\":11901:12020   */\n      iszero\n      tag_589\n      jumpi\n        /* \"#utility.yul\":11939:12018   */\n      tag_590\n      tag_379\n      jump\t// in\n    tag_590:\n        /* \"#utility.yul\":11901:12020   */\n    tag_589:\n        /* \"#utility.yul\":12059:12060   */\n      0x00\n        /* \"#utility.yul\":12084:12137   */\n      tag_591\n        /* \"#utility.yul\":12129:12136   */\n      dup5\n        /* \"#utility.yul\":12120:12126   */\n      dup3\n        /* \"#utility.yul\":12109:12118   */\n      dup6\n        /* \"#utility.yul\":12105:12127   */\n      add\n        /* \"#utility.yul\":12084:12137   */\n      tag_384\n      jump\t// in\n    tag_591:\n        /* \"#utility.yul\":12074:12137   */\n      swap2\n      pop\n        /* \"#utility.yul\":12030:12147   */\n      pop\n        /* \"#utility.yul\":11825:12154   */\n      swap3\n      swap2\n      pop\n      pop\n      jump\t// out\n        /* \"#utility.yul\":12160:12500   */\n    tag_98:\n        /* \"#utility.yul\":12285:12289   */\n      0x00\n        /* \"#utility.yul\":12323:12325   */\n      0x40\n        /* \"#utility.yul\":12312:12321   */\n      dup3\n        /* \"#utility.yul\":12308:12326   */\n      add\n        /* \"#utility.yul\":12300:12326   */\n      swap1\n      pop\n        /* \"#utility.yul\":12336:12411   */\n      tag_593\n        /* \"#utility.yul\":12408:12409   */\n      0x00\n        /* \"#utility.yul\":12397:12406   */\n      dup4\n        /* \"#utility.yul\":12393:12410   */\n      add\n        /* \"#utility.yul\":12384:12390   */\n      dup6\n        /* \"#utility.yul\":12336:12411   */\n      tag_398\n      jump\t// in\n    tag_593:\n        /* \"#utility.yul\":12421:12493   */\n      tag_594\n        /* \"#utility.yul\":12489:12491   */\n      0x20\n        /* \"#utility.yul\":12478:12487   */\n      dup4\n        /* \"#utility.yul\":12474:12492   */\n      add\n        /* \"#utility.yul\":12465:12471   */\n      dup5\n        /* \"#utility.yul\":12421:12493   */\n      tag_389\n      jump\t// in\n    tag_594:\n        /* \"#utility.yul\":12160:12500   */\n      swap4\n      swap3\n      pop\n      pop\n      pop\n      jump\t// out\n        /* \"#utility.yul\":12506:13015   */\n    tag_105:\n        /* \"#utility.yul\":12575:12581   */\n      0x00\n        /* \"#utility.yul\":12624:12626   */\n      0x20\n        /* \"#utility.yul\":12612:12621   */\n      dup3\n        /* \"#utility.yul\":12603:12610   */\n      dup5\n        /* \"#utility.yul\":12599:12622   */\n      sub\n        /* \"#utility.yul\":12595:12627   */\n      slt\n        /* \"#utility.yul\":12592:12711   */\n      iszero\n      tag_596\n      jumpi\n        /* \"#utility.yul\":12630:12709   */\n      tag_597\n      tag_379\n      jump\t// in\n    tag_597:\n        /* \"#utility.yul\":12592:12711   */\n    tag_596:\n        /* \"#utility.yul\":12778:12779   */\n      0x00\n        /* \"#utility.yul\":12767:12776   */\n      dup3\n        /* \"#utility.yul\":12763:12780   */\n      add\n        /* \"#utility.yul\":12750:12781   */\n      calldataload\n        /* \"#utility.yul\":12808:12826   */\n      0xffffffffffffffff\n        /* \"#utility.yul\":12800:12806   */\n      dup2\n        /* \"#utility.yul\":12797:12827   */\n      gt\n        /* \"#utility.yul\":12794:12911   */\n      iszero\n      tag_598\n      jumpi\n        /* \"#utility.yul\":12830:12909   */\n      tag_599\n      tag_380\n      jump\t// in\n    tag_599:\n        /* \"#utility.yul\":12794:12911   */\n    tag_598:\n        /* \"#utility.yul\":12935:12998   */\n      tag_600\n        /* \"#utility.yul\":12990:12997   */\n      dup5\n        /* \"#utility.yul\":12981:12987   */\n      dup3\n        /* \"#utility.yul\":12970:12979   */\n      dup6\n        /* \"#utility.yul\":12966:12988   */\n      add\n        /* \"#utility.yul\":12935:12998   */\n      tag_412\n      jump\t// in\n    tag_600:\n        /* \"#utility.yul\":12925:12998   */\n      swap2\n      pop\n        /* \"#utility.yul\":12721:13008   */\n      pop\n        /* \"#utility.yul\":12506:13015   */\n      swap3\n      swap2\n      pop\n      pop\n      jump\t// out\n        /* \"#utility.yul\":13021:13786   */\n    tag_114:\n        /* \"#utility.yul\":13107:13113   */\n      0x00\n        /* \"#utility.yul\":13115:13121   */\n      dup1\n        /* \"#utility.yul\":13123:13129   */\n      0x00\n        /* \"#utility.yul\":13131:13137   */\n      dup1\n        /* \"#utility.yul\":13180:13183   */\n      0x80\n        /* \"#utility.yul\":13168:13177   */\n      dup6\n        /* \"#utility.yul\":13159:13166   */\n      dup8\n        /* \"#utility.yul\":13155:13178   */\n      sub\n        /* \"#utility.yul\":13151:13184   */\n      slt\n        /* \"#utility.yul\":13148:13268   */\n      iszero\n      tag_602\n      jumpi\n        /* \"#utility.yul\":13187:13266   */\n      tag_603\n      tag_379\n      jump\t// in\n    tag_603:\n        /* \"#utility.yul\":13148:13268   */\n    tag_602:\n        /* \"#utility.yul\":13307:13308   */\n      0x00\n        /* \"#utility.yul\":13332:13385   */\n      tag_604\n        /* \"#utility.yul\":13377:13384   */\n      dup8\n        /* \"#utility.yul\":13368:13374   */\n      dup3\n        /* \"#utility.yul\":13357:13366   */\n      dup9\n        /* \"#utility.yul\":13353:13375   */\n      add\n        /* \"#utility.yul\":13332:13385   */\n      tag_384\n      jump\t// in\n    tag_604:\n        /* \"#utility.yul\":13322:13385   */\n      swap5\n      pop\n        /* \"#utility.yul\":13278:13395   */\n      pop\n        /* \"#utility.yul\":13434:13436   */\n      0x20\n        /* \"#utility.yul\":13460:13513   */\n      tag_605\n        /* \"#utility.yul\":13505:13512   */\n      dup8\n        /* \"#utility.yul\":13496:13502   */\n      dup3\n        /* \"#utility.yul\":13485:13494   */\n      dup9\n        /* \"#utility.yul\":13481:13503   */\n      add\n        /* \"#utility.yul\":13460:13513   */\n      tag_387\n      jump\t// in\n    tag_605:\n        /* \"#utility.yul\":13450:13513   */\n      swap4\n      pop\n        /* \"#utility.yul\":13405:13523   */\n      pop\n        /* \"#utility.yul\":13562:13564   */\n      0x40\n        /* \"#utility.yul\":13588:13641   */\n      tag_606\n        /* \"#utility.yul\":13633:13640   */\n      dup8\n        /* \"#utility.yul\":13624:13630   */\n      dup3\n        /* \"#utility.yul\":13613:13622   */\n      dup9\n        /* \"#utility.yul\":13609:13631   */\n      add\n        /* \"#utility.yul\":13588:13641   */\n      tag_387\n      jump\t// in\n    tag_606:\n        /* \"#utility.yul\":13578:13641   */\n      swap3\n      pop\n        /* \"#utility.yul\":13533:13651   */\n      pop\n        /* \"#utility.yul\":13690:13692   */\n      0x60\n        /* \"#utility.yul\":13716:13769   */\n      tag_607\n        /* \"#utility.yul\":13761:13768   */\n      dup8\n        /* \"#utility.yul\":13752:13758   */\n      dup3\n        /* \"#utility.yul\":13741:13750   */\n      dup9\n        /* \"#utility.yul\":13737:13759   */\n      add\n        /* \"#utility.yul\":13716:13769   */\n      tag_384\n      jump\t// in\n    tag_607:\n        /* \"#utility.yul\":13706:13769   */\n      swap2\n      pop\n        /* \"#utility.yul\":13661:13779   */\n      pop\n        /* \"#utility.yul\":13021:13786   */\n      swap3\n      swap6\n      swap2\n      swap5\n      pop\n      swap3\n      pop\n      jump\t// out\n        /* \"#utility.yul\":13792:13972   */\n    tag_413:\n        /* \"#utility.yul\":13840:13917   */\n      0x4e487b7100000000000000000000000000000000000000000000000000000000\n        /* \"#utility.yul\":13837:13838   */\n      0x00\n        /* \"#utility.yul\":13830:13918   */\n      mstore\n        /* \"#utility.yul\":13937:13941   */\n      0x22\n        /* \"#utility.yul\":13934:13935   */\n      0x04\n        /* \"#utility.yul\":13927:13942   */\n      mstore\n        /* \"#utility.yul\":13961:13965   */\n      0x24\n        /* \"#utility.yul\":13958:13959   */\n      0x00\n        /* \"#utility.yul\":13951:13966   */\n      revert\n        /* \"#utility.yul\":13978:14298   */\n    tag_119:\n        /* \"#utility.yul\":14022:14028   */\n      0x00\n        /* \"#utility.yul\":14059:14060   */\n      0x02\n        /* \"#utility.yul\":14053:14057   */\n      dup3\n        /* \"#utility.yul\":14049:14061   */\n      div\n        /* \"#utility.yul\":14039:14061   */\n      swap1\n      pop\n        /* \"#utility.yul\":14106:14107   */\n      0x01\n        /* \"#utility.yul\":14100:14104   */\n      dup3\n        /* \"#utility.yul\":14096:14108   */\n      and\n        /* \"#utility.yul\":14127:14145   */\n      dup1\n        /* \"#utility.yul\":14117:14198   */\n      tag_610\n      jumpi\n        /* \"#utility.yul\":14183:14187   */\n      0x7f\n        /* \"#utility.yul\":14175:14181   */\n      dup3\n        /* \"#utility.yul\":14171:14188   */\n      and\n        /* \"#utility.yul\":14161:14188   */\n      swap2\n      pop\n        /* \"#utility.yul\":14117:14198   */\n    tag_610:\n        /* \"#utility.yul\":14245:14247   */\n      0x20\n        /* \"#utility.yul\":14237:14243   */\n      dup3\n        /* \"#utility.yul\":14234:14248   */\n      lt\n        /* \"#utility.yul\":14214:14232   */\n      dup2\n        /* \"#utility.yul\":14211:14249   */\n      sub\n        /* \"#utility.yul\":14208:14292   */\n      tag_611\n      jumpi\n        /* \"#utility.yul\":14264:14282   */\n      tag_612\n      tag_413\n      jump\t// in\n    tag_612:\n        /* \"#utility.yul\":14208:14292   */\n    tag_611:\n        /* \"#utility.yul\":14029:14298   */\n      pop\n        /* \"#utility.yul\":13978:14298   */\n      swap2\n      swap1\n      pop\n      jump\t// out\n        /* \"#utility.yul\":14304:14484   */\n    tag_140:\n        /* \"#utility.yul\":14352:14429   */\n      0x4e487b7100000000000000000000000000000000000000000000000000000000\n        /* \"#utility.yul\":14349:14350   */\n      0x00\n        /* \"#utility.yul\":14342:14430   */\n      mstore\n        /* \"#utility.yul\":14449:14453   */\n      0x32\n        /* \"#utility.yul\":14446:14447   */\n      0x04\n        /* \"#utility.yul\":14439:14454   */\n      mstore\n        /* \"#utility.yul\":14473:14477   */\n      0x24\n        /* \"#utility.yul\":14470:14471   */\n      0x00\n        /* \"#utility.yul\":14463:14478   */\n      revert\n        /* \"#utility.yul\":14490:14670   */\n    tag_414:\n        /* \"#utility.yul\":14538:14615   */\n      0x4e487b7100000000000000000000000000000000000000000000000000000000\n        /* \"#utility.yul\":14535:14536   */\n      0x00\n        /* \"#utility.yul\":14528:14616   */\n      mstore\n        /* \"#utility.yul\":14635:14639   */\n      0x11\n        /* \"#utility.yul\":14632:14633   */\n      0x04\n        /* \"#utility.yul\":14625:14640   */\n      mstore\n        /* \"#utility.yul\":14659:14663   */\n      0x24\n        /* \"#utility.yul\":14656:14657   */\n      0x00\n        /* \"#utility.yul\":14649:14664   */\n      revert\n        /* \"#utility.yul\":14676:15086   */\n    tag_153:\n        /* \"#utility.yul\":14716:14723   */\n      0x00\n        /* \"#utility.yul\":14739:14759   */\n      tag_616\n        /* \"#utility.yul\":14757:14758   */\n      dup3\n        /* \"#utility.yul\":14739:14759   */\n      tag_385\n      jump\t// in\n    tag_616:\n        /* \"#utility.yul\":14734:14759   */\n      swap2\n      pop\n        /* \"#utility.yul\":14773:14793   */\n      tag_617\n        /* \"#utility.yul\":14791:14792   */\n      dup4\n        /* \"#utility.yul\":14773:14793   */\n      tag_385\n      jump\t// in\n    tag_617:\n        /* \"#utility.yul\":14768:14793   */\n      swap3\n      pop\n        /* \"#utility.yul\":14828:14829   */\n      dup3\n        /* \"#utility.yul\":14825:14826   */\n      dup3\n        /* \"#utility.yul\":14821:14830   */\n      mul\n        /* \"#utility.yul\":14850:14880   */\n      tag_618\n        /* \"#utility.yul\":14868:14879   */\n      dup2\n        /* \"#utility.yul\":14850:14880   */\n      tag_385\n      jump\t// in\n    tag_618:\n        /* \"#utility.yul\":14839:14880   */\n      swap2\n      pop\n        /* \"#utility.yul\":15029:15030   */\n      dup3\n        /* \"#utility.yul\":15020:15027   */\n      dup3\n        /* \"#utility.yul\":15016:15031   */\n      div\n        /* \"#utility.yul\":15013:15014   */\n      dup5\n        /* \"#utility.yul\":15010:15032   */\n      eq\n        /* \"#utility.yul\":14990:14991   */\n      dup4\n        /* \"#utility.yul\":14983:14992   */\n      iszero\n        /* \"#utility.yul\":14963:15046   */\n      or\n        /* \"#utility.yul\":14940:15079   */\n      tag_619\n      jumpi\n        /* \"#utility.yul\":15059:15077   */\n      tag_620\n      tag_414\n      jump\t// in\n    tag_620:\n        /* \"#utility.yul\":14940:15079   */\n    tag_619:\n        /* \"#utility.yul\":14724:15086   */\n      pop\n        /* \"#utility.yul\":14676:15086   */\n      swap3\n      swap2\n      pop\n      pop\n      jump\t// out\n        /* \"#utility.yul\":15092:15283   */\n    tag_162:\n        /* \"#utility.yul\":15132:15135   */\n      0x00\n        /* \"#utility.yul\":15151:15171   */\n      tag_622\n        /* \"#utility.yul\":15169:15170   */\n      dup3\n        /* \"#utility.yul\":15151:15171   */\n      tag_385\n      jump\t// in\n    tag_622:\n        /* \"#utility.yul\":15146:15171   */\n      swap2\n      pop\n        /* \"#utility.yul\":15185:15205   */\n      tag_623\n        /* \"#utility.yul\":15203:15204   */\n      dup4\n        /* \"#utility.yul\":15185:15205   */\n      tag_385\n      jump\t// in\n    tag_623:\n        /* \"#utility.yul\":15180:15205   */\n      swap3\n      pop\n        /* \"#utility.yul\":15228:15229   */\n      dup3\n        /* \"#utility.yul\":15225:15226   */\n      dup3\n        /* \"#utility.yul\":15221:15230   */\n      add\n        /* \"#utility.yul\":15214:15230   */\n      swap1\n      pop\n        /* \"#utility.yul\":15249:15252   */\n      dup1\n        /* \"#utility.yul\":15246:15247   */\n      dup3\n        /* \"#utility.yul\":15243:15253   */\n      gt\n        /* \"#utility.yul\":15240:15276   */\n      iszero\n      tag_624\n      jumpi\n        /* \"#utility.yul\":15256:15274   */\n      tag_625\n      tag_414\n      jump\t// in\n    tag_625:\n        /* \"#utility.yul\":15240:15276   */\n    tag_624:\n        /* \"#utility.yul\":15092:15283   */\n      swap3\n      swap2\n      pop\n      pop\n      jump\t// out\n        /* \"#utility.yul\":15289:15483   */\n    tag_169:\n        /* \"#utility.yul\":15329:15333   */\n      0x00\n        /* \"#utility.yul\":15349:15369   */\n      tag_627\n        /* \"#utility.yul\":15367:15368   */\n      dup3\n        /* \"#utility.yul\":15349:15369   */\n      tag_385\n      jump\t// in\n    tag_627:\n        /* \"#utility.yul\":15344:15369   */\n      swap2\n      pop\n        /* \"#utility.yul\":15383:15403   */\n      tag_628\n        /* \"#utility.yul\":15401:15402   */\n      dup4\n        /* \"#utility.yul\":15383:15403   */\n      tag_385\n      jump\t// in\n    tag_628:\n        /* \"#utility.yul\":15378:15403   */\n      swap3\n      pop\n        /* \"#utility.yul\":15427:15428   */\n      dup3\n        /* \"#utility.yul\":15424:15425   */\n      dup3\n        /* \"#utility.yul\":15420:15429   */\n      sub\n        /* \"#utility.yul\":15412:15429   */\n      swap1\n      pop\n        /* \"#utility.yul\":15451:15452   */\n      dup2\n        /* \"#utility.yul\":15445:15449   */\n      dup2\n        /* \"#utility.yul\":15442:15453   */\n      gt\n        /* \"#utility.yul\":15439:15476   */\n      iszero\n      tag_629\n      jumpi\n        /* \"#utility.yul\":15456:15474   */\n      tag_630\n      tag_414\n      jump\t// in\n    tag_630:\n        /* \"#utility.yul\":15439:15476   */\n    tag_629:\n        /* \"#utility.yul\":15289:15483   */\n      swap3\n      swap2\n      pop\n      pop\n      jump\t// out\n        /* \"#utility.yul\":15489:15722   */\n    tag_205:\n        /* \"#utility.yul\":15528:15531   */\n      0x00\n        /* \"#utility.yul\":15551:15575   */\n      tag_632\n        /* \"#utility.yul\":15569:15574   */\n      dup3\n        /* \"#utility.yul\":15551:15575   */\n      tag_385\n      jump\t// in\n    tag_632:\n        /* \"#utility.yul\":15542:15575   */\n      swap2\n      pop\n        /* \"#utility.yul\":15597:15663   */\n      0xffffffffffffffffffffffffffffffffffffffffffffffffffffffffffffffff\n        /* \"#utility.yul\":15590:15595   */\n      dup3\n        /* \"#utility.yul\":15587:15664   */\n      sub\n        /* \"#utility.yul\":15584:15687   */\n      tag_633\n      jumpi\n        /* \"#utility.yul\":15667:15685   */\n      tag_634\n      tag_414\n      jump\t// in\n    tag_634:\n        /* \"#utility.yul\":15584:15687   */\n    tag_633:\n        /* \"#utility.yul\":15714:15715   */\n      0x01\n        /* \"#utility.yul\":15707:15712   */\n      dup3\n        /* \"#utility.yul\":15703:15716   */\n      add\n        /* \"#utility.yul\":15696:15716   */\n      swap1\n      pop\n        /* \"#utility.yul\":15489:15722   */\n      swap2\n      swap1\n      pop\n      jump\t// out\n        /* \"#utility.yul\":15728:15807   */\n    tag_415:\n        /* \"#utility.yul\":15767:15774   */\n      0x00\n        /* \"#utility.yul\":15796:15801   */\n      dup2\n        /* \"#utility.yul\":15785:15801   */\n      swap1\n      pop\n        /* \"#utility.yul\":15728:15807   */\n      swap2\n      swap1\n      pop\n      jump\t// out\n        /* \"#utility.yul\":15813:15970   */\n    tag_416:\n        /* \"#utility.yul\":15918:15963   */\n      tag_637\n        /* \"#utility.yul\":15938:15962   */\n      tag_638\n        /* \"#utility.yul\":15956:15961   */\n      dup3\n        /* \"#utility.yul\":15938:15962   */\n      tag_385\n      jump\t// in\n    tag_638:\n        /* \"#utility.yul\":15918:15963   */\n      tag_415\n      jump\t// in\n    tag_637:\n        /* \"#utility.yul\":15913:15916   */\n      dup3\n        /* \"#utility.yul\":15906:15964   */\n      mstore\n        /* \"#utility.yul\":15813:15970   */\n      pop\n      pop\n      jump\t// out\n        /* \"#utility.yul\":15976:16070   */\n    tag_417:\n        /* \"#utility.yul\":16009:16017   */\n      0x00\n        /* \"#utility.yul\":16057:16062   */\n      dup2\n        /* \"#utility.yul\":16053:16055   */\n      0x60\n        /* \"#utility.yul\":16049:16063   */\n      shl\n        /* \"#utility.yul\":16028:16063   */\n      swap1\n      pop\n        /* \"#utility.yul\":15976:16070   */\n      swap2\n      swap1\n      pop\n      jump\t// out\n        /* \"#utility.yul\":16076:16170   */\n    tag_418:\n        /* \"#utility.yul\":16115:16122   */\n      0x00\n        /* \"#utility.yul\":16144:16164   */\n      tag_641\n        /* \"#utility.yul\":16158:16163   */\n      dup3\n        /* \"#utility.yul\":16144:16164   */\n      tag_417\n      jump\t// in\n    tag_641:\n        /* \"#utility.yul\":16133:16164   */\n      swap1\n      pop\n        /* \"#utility.yul\":16076:16170   */\n      swap2\n      swap1\n      pop\n      jump\t// out\n        /* \"#utility.yul\":16176:16276   */\n    tag_419:\n        /* \"#utility.yul\":16215:16222   */\n      0x00\n        /* \"#utility.yul\":16244:16270   */\n      tag_643\n        /* \"#utility.yul\":16264:16269   */\n      dup3\n        /* \"#utility.yul\":16244:16270   */\n      tag_418\n      jump\t// in\n    tag_643:\n        /* \"#utility.yul\":16233:16270   */\n      swap1\n      pop\n        /* \"#utility.yul\":16176:16276   */\n      swap2\n      swap1\n      pop\n      jump\t// out\n        /* \"#utility.yul\":16282:16439   */\n    tag_420:\n        /* \"#utility.yul\":16387:16432   */\n      tag_645\n        /* \"#utility.yul\":16407:16431   */\n      tag_646\n        /* \"#utility.yul\":16425:16430   */\n      dup3\n        /* \"#utility.yul\":16407:16431   */\n      tag_382\n      jump\t// in\n    tag_646:\n        /* \"#utility.yul\":16387:16432   */\n      tag_419\n      jump\t// in\n    tag_645:\n        /* \"#utility.yul\":16382:16385   */\n      dup3\n        /* \"#utility.yul\":16375:16433   */\n      mstore\n        /* \"#utility.yul\":16282:16439   */\n      pop\n      pop\n      jump\t// out\n        /* \"#utility.yul\":16445:16983   */\n    tag_207:\n        /* \"#utility.yul\":16613:16616   */\n      0x00\n        /* \"#utility.yul\":16628:16703   */\n      tag_648\n        /* \"#utility.yul\":16699:16702   */\n      dup3\n        /* \"#utility.yul\":16690:16696   */\n      dup7\n        /* \"#utility.yul\":16628:16703   */\n      tag_416\n      jump\t// in\n    tag_648:\n        /* \"#utility.yul\":16728:16730   */\n      0x20\n        /* \"#utility.yul\":16723:16726   */\n      dup3\n        /* \"#utility.yul\":16719:16731   */\n      add\n        /* \"#utility.yul\":16712:16731   */\n      swap2\n      pop\n        /* \"#utility.yul\":16741:16816   */\n      tag_649\n        /* \"#utility.yul\":16812:16815   */\n      dup3\n        /* \"#utility.yul\":16803:16809   */\n      dup6\n        /* \"#utility.yul\":16741:16816   */\n      tag_420\n      jump\t// in\n    tag_649:\n        /* \"#utility.yul\":16841:16843   */\n      0x14\n        /* \"#utility.yul\":16836:16839   */\n      dup3\n        /* \"#utility.yul\":16832:16844   */\n      add\n        /* \"#utility.yul\":16825:16844   */\n      swap2\n      pop\n        /* \"#utility.yul\":16854:16929   */\n      tag_650\n        /* \"#utility.yul\":16925:16928   */\n      dup3\n        /* \"#utility.yul\":16916:16922   */\n      dup5\n        /* \"#utility.yul\":16854:16929   */\n      tag_416\n      jump\t// in\n    tag_650:\n        /* \"#utility.yul\":16954:16956   */\n      0x20\n        /* \"#utility.yul\":16949:16952   */\n      dup3\n        /* \"#utility.yul\":16945:16957   */\n      add\n        /* \"#utility.yul\":16938:16957   */\n      swap2\n      pop\n        /* \"#utility.yul\":16974:16977   */\n      dup2\n        /* \"#utility.yul\":16967:16977   */\n      swap1\n      pop\n        /* \"#utility.yul\":16445:16983   */\n      swap5\n      swap4\n      pop\n      pop\n      pop\n      pop\n      jump\t// out\n        /* \"#utility.yul\":16989:17169   */\n    tag_421:\n        /* \"#utility.yul\":17037:17114   */\n      0x4e487b7100000000000000000000000000000000000000000000000000000000\n        /* \"#utility.yul\":17034:17035   */\n      0x00\n        /* \"#utility.yul\":17027:17115   */\n      mstore\n        /* \"#utility.yul\":17134:17138   */\n      0x12\n        /* \"#utility.yul\":17131:17132   */\n      0x04\n        /* \"#utility.yul\":17124:17139   */\n      mstore\n        /* \"#utility.yul\":17158:17162   */\n      0x24\n        /* \"#utility.yul\":17155:17156   */\n      0x00\n        /* \"#utility.yul\":17148:17163   */\n      revert\n        /* \"#utility.yul\":17175:17351   */\n    tag_209:\n        /* \"#utility.yul\":17207:17208   */\n      0x00\n        /* \"#utility.yul\":17224:17244   */\n      tag_653\n        /* \"#utility.yul\":17242:17243   */\n      dup3\n        /* \"#utility.yul\":17224:17244   */\n      tag_385\n      jump\t// in\n    tag_653:\n        /* \"#utility.yul\":17219:17244   */\n      swap2\n      pop\n        /* \"#utility.yul\":17258:17278   */\n      tag_654\n        /* \"#utility.yul\":17276:17277   */\n      dup4\n        /* \"#utility.yul\":17258:17278   */\n      tag_385\n      jump\t// in\n    tag_654:\n        /* \"#utility.yul\":17253:17278   */\n      swap3\n      pop\n        /* \"#utility.yul\":17297:17298   */\n      dup3\n        /* \"#utility.yul\":17287:17322   */\n      tag_655\n      jumpi\n        /* \"#utility.yul\":17302:17320   */\n      tag_656\n      tag_421\n      jump\t// in\n    tag_656:\n        /* \"#utility.yul\":17287:17322   */\n    tag_655:\n        /* \"#utility.yul\":17343:17344   */\n      dup3\n        /* \"#utility.yul\":17340:17341   */\n      dup3\n        /* \"#utility.yul\":17336:17345   */\n      mod\n        /* \"#utility.yul\":17331:17345   */\n      swap1\n      pop\n        /* \"#utility.yul\":17175:17351   */\n      swap3\n      swap2\n      pop\n      pop\n      jump\t// out\n        /* \"#utility.yul\":17357:17773   */\n    tag_422:\n        /* \"#utility.yul\":17497:17563   */\n      0xd092d0b0d188d0b020d180d0bed0bbd18c20d0bdd0b520d0bfd0bed0b7d0b2d0\n        /* \"#utility.yul\":17493:17494   */\n      0x00\n        /* \"#utility.yul\":17485:17491   */\n      dup3\n        /* \"#utility.yul\":17481:17495   */\n      add\n        /* \"#utility.yul\":17474:17564   */\n      mstore\n        /* \"#utility.yul\":17598:17664   */\n      0xbed0bbd18fd0b5d18220d18dd182d0be20d0b8d0b7d0bcd0b5d0bdd18fd182d1\n        /* \"#utility.yul\":17593:17595   */\n      0x20\n        /* \"#utility.yul\":17585:17591   */\n      dup3\n        /* \"#utility.yul\":17581:17596   */\n      add\n        /* \"#utility.yul\":17574:17665   */\n      mstore\n        /* \"#utility.yul\":17699:17765   */\n      0x8c00000000000000000000000000000000000000000000000000000000000000\n        /* \"#utility.yul\":17694:17696   */\n      0x40\n        /* \"#utility.yul\":17686:17692   */\n      dup3\n        /* \"#utility.yul\":17682:17697   */\n      add\n        /* \"#utility.yul\":17675:17766   */\n      mstore\n        /* \"#utility.yul\":17357:17773   */\n      pop\n      jump\t// out\n        /* \"#utility.yul\":17779:18145   */\n    tag_423:\n        /* \"#utility.yul\":17921:17924   */\n      0x00\n        /* \"#utility.yul\":17942:18009   */\n      tag_659\n        /* \"#utility.yul\":18006:18008   */\n      0x41\n        /* \"#utility.yul\":18001:18004   */\n      dup4\n        /* \"#utility.yul\":17942:18009   */\n      tag_391\n      jump\t// in\n    tag_659:\n        /* \"#utility.yul\":17935:18009   */\n      swap2\n      pop\n        /* \"#utility.yul\":18018:18111   */\n      tag_660\n        /* \"#utility.yul\":18107:18110   */\n      dup3\n        /* \"#utility.yul\":18018:18111   */\n      tag_422\n      jump\t// in\n    tag_660:\n        /* \"#utility.yul\":18136:18138   */\n      0x60\n        /* \"#utility.yul\":18131:18134   */\n      dup3\n        /* \"#utility.yul\":18127:18139   */\n      add\n        /* \"#utility.yul\":18120:18139   */\n      swap1\n      pop\n        /* \"#utility.yul\":17779:18145   */\n      swap2\n      swap1\n      pop\n      jump\t// out\n        /* \"#utility.yul\":18151:18570   */\n    tag_217:\n        /* \"#utility.yul\":18317:18321   */\n      0x00\n        /* \"#utility.yul\":18355:18357   */\n      0x20\n        /* \"#utility.yul\":18344:18353   */\n      dup3\n        /* \"#utility.yul\":18340:18358   */\n      add\n        /* \"#utility.yul\":18332:18358   */\n      swap1\n      pop\n        /* \"#utility.yul\":18404:18413   */\n      dup2\n        /* \"#utility.yul\":18398:18402   */\n      dup2\n        /* \"#utility.yul\":18394:18414   */\n      sub\n        /* \"#utility.yul\":18390:18391   */\n      0x00\n        /* \"#utility.yul\":18379:18388   */\n      dup4\n        /* \"#utility.yul\":18375:18392   */\n      add\n        /* \"#utility.yul\":18368:18415   */\n      mstore\n        /* \"#utility.yul\":18432:18563   */\n      tag_662\n        /* \"#utility.yul\":18558:18562   */\n      dup2\n        /* \"#utility.yul\":18432:18563   */\n      tag_423\n      jump\t// in\n    tag_662:\n        /* \"#utility.yul\":18424:18563   */\n      swap1\n      pop\n        /* \"#utility.yul\":18151:18570   */\n      swap2\n      swap1\n      pop\n      jump\t// out\n        /* \"#utility.yul\":18576:18992   */\n    tag_424:\n        /* \"#utility.yul\":18716:18782   */\n      0xd09cd0b0d0b3d0b0d0b7d0b8d0bd20d0bdd0b520d181d0bed0bed182d0b2d0b5\n        /* \"#utility.yul\":18712:18713   */\n      0x00\n        /* \"#utility.yul\":18704:18710   */\n      dup3\n        /* \"#utility.yul\":18700:18714   */\n      add\n        /* \"#utility.yul\":18693:18783   */\n      mstore\n        /* \"#utility.yul\":18817:18883   */\n      0xd182d181d0b2d183d0b5d18220d0bed182d0bfd180d0b0d0b2d0b8d182d0b5d0\n        /* \"#utility.yul\":18812:18814   */\n      0x20\n        /* \"#utility.yul\":18804:18810   */\n      dup3\n        /* \"#utility.yul\":18800:18815   */\n      add\n        /* \"#utility.yul\":18793:18884   */\n      mstore\n        /* \"#utility.yul\":18918:18984   */\n      0xbbd18e0000000000000000000000000000000000000000000000000000000000\n        /* \"#utility.yul\":18913:18915   */\n      0x40\n        /* \"#utility.yul\":18905:18911   */\n      dup3\n        /* \"#utility.yul\":18901:18916   */\n      add\n        /* \"#utility.yul\":18894:18985   */\n      mstore\n        /* \"#utility.yul\":18576:18992   */\n      pop\n      jump\t// out\n        /* \"#utility.yul\":18998:19364   */\n    tag_425:\n        /* \"#utility.yul\":19140:19143   */\n      0x00\n        /* \"#utility.yul\":19161:19228   */\n      tag_665\n        /* \"#utility.yul\":19225:19227   */\n      0x43\n        /* \"#utility.yul\":19220:19223   */\n      dup4\n        /* \"#utility.yul\":19161:19228   */\n      tag_391\n      jump\t// in\n    tag_665:\n        /* \"#utility.yul\":19154:19228   */\n      swap2\n      pop\n        /* \"#utility.yul\":19237:19330   */\n      tag_666\n        /* \"#utility.yul\":19326:19329   */\n      dup3\n        /* \"#utility.yul\":19237:19330   */\n      tag_424\n      jump\t// in\n    tag_666:\n        /* \"#utility.yul\":19355:19357   */\n      0x60\n        /* \"#utility.yul\":19350:19353   */\n      dup3\n        /* \"#utility.yul\":19346:19358   */\n      add\n        /* \"#utility.yul\":19339:19358   */\n      swap1\n      pop\n        /* \"#utility.yul\":18998:19364   */\n      swap2\n      swap1\n      pop\n      jump\t// out\n        /* \"#utility.yul\":19370:19789   */\n    tag_220:\n        /* \"#utility.yul\":19536:19540   */\n      0x00\n        /* \"#utility.yul\":19574:19576   */\n      0x20\n        /* \"#utility.yul\":19563:19572   */\n      dup3\n        /* \"#utility.yul\":19559:19577   */\n      add\n        /* \"#utility.yul\":19551:19577   */\n      swap1\n      pop\n        /* \"#utility.yul\":19623:19632   */\n      dup2\n        /* \"#utility.yul\":19617:19621   */\n      dup2\n        /* \"#utility.yul\":19613:19633   */\n      sub\n        /* \"#utility.yul\":19609:19610   */\n      0x00\n        /* \"#utility.yul\":19598:19607   */\n      dup4\n        /* \"#utility.yul\":19594:19611   */\n      add\n        /* \"#utility.yul\":19587:19634   */\n      mstore\n        /* \"#utility.yul\":19651:19782   */\n      tag_668\n        /* \"#utility.yul\":19777:19781   */\n      dup2\n        /* \"#utility.yul\":19651:19782   */\n      tag_425\n      jump\t// in\n    tag_668:\n        /* \"#utility.yul\":19643:19782   */\n      swap1\n      pop\n        /* \"#utility.yul\":19370:19789   */\n      swap2\n      swap1\n      pop\n      jump\t// out\n        /* \"#utility.yul\":19795:19980   */\n    tag_223:\n        /* \"#utility.yul\":19835:19836   */\n      0x00\n        /* \"#utility.yul\":19852:19872   */\n      tag_670\n        /* \"#utility.yul\":19870:19871   */\n      dup3\n        /* \"#utility.yul\":19852:19872   */\n      tag_385\n      jump\t// in\n    tag_670:\n        /* \"#utility.yul\":19847:19872   */\n      swap2\n      pop\n        /* \"#utility.yul\":19886:19906   */\n      tag_671\n        /* \"#utility.yul\":19904:19905   */\n      dup4\n        /* \"#utility.yul\":19886:19906   */\n      tag_385\n      jump\t// in\n    tag_671:\n        /* \"#utility.yul\":19881:19906   */\n      swap3\n      pop\n        /* \"#utility.yul\":19925:19926   */\n      dup3\n        /* \"#utility.yul\":19915:19950   */\n      tag_672\n      jumpi\n        /* \"#utility.yul\":19930:19948   */\n      tag_673\n      tag_421\n      jump\t// in\n    tag_673:\n        /* \"#utility.yul\":19915:19950   */\n    tag_672:\n        /* \"#utility.yul\":19972:19973   */\n      dup3\n        /* \"#utility.yul\":19969:19970   */\n      dup3\n        /* \"#utility.yul\":19965:19974   */\n      div\n        /* \"#utility.yul\":19960:19974   */\n      swap1\n      pop\n        /* \"#utility.yul\":19795:19980   */\n      swap3\n      swap2\n      pop\n      pop\n      jump\t// out\n        /* \"#utility.yul\":19986:20127   */\n    tag_426:\n        /* \"#utility.yul\":20035:20039   */\n      0x00\n        /* \"#utility.yul\":20058:20061   */\n      dup2\n        /* \"#utility.yul\":20050:20061   */\n      swap1\n      pop\n        /* \"#utility.yul\":20081:20084   */\n      dup2\n        /* \"#utility.yul\":20078:20079   */\n      0x00\n        /* \"#utility.yul\":20071:20085   */\n      mstore\n        /* \"#utility.yul\":20115:20119   */\n      0x20\n        /* \"#utility.yul\":20112:20113   */\n      0x00\n        /* \"#utility.yul\":20102:20120   */\n      keccak256\n        /* \"#utility.yul\":20094:20120   */\n      swap1\n      pop\n        /* \"#utility.yul\":19986:20127   */\n      swap2\n      swap1\n      pop\n      jump\t// out\n        /* \"#utility.yul\":20133:20226   */\n    tag_427:\n        /* \"#utility.yul\":20170:20176   */\n      0x00\n        /* \"#utility.yul\":20217:20219   */\n      0x20\n        /* \"#utility.yul\":20212:20214   */\n      0x1f\n        /* \"#utility.yul\":20205:20210   */\n      dup4\n        /* \"#utility.yul\":20201:20215   */\n      add\n        /* \"#utility.yul\":20197:20220   */\n      div\n        /* \"#utility.yul\":20187:20220   */\n      swap1\n      pop\n        /* \"#utility.yul\":20133:20226   */\n      swap2\n      swap1\n      pop\n      jump\t// out\n        /* \"#utility.yul\":20232:20339   */\n    tag_428:\n        /* \"#utility.yul\":20276:20284   */\n      0x00\n        /* \"#utility.yul\":20326:20331   */\n      dup3\n        /* \"#utility.yul\":20320:20324   */\n      dup3\n        /* \"#utility.yul\":20316:20332   */\n      shl\n        /* \"#utility.yul\":20295:20332   */\n      swap1\n      pop\n        /* \"#utility.yul\":20232:20339   */\n      swap3\n      swap2\n      pop\n      pop\n      jump\t// out\n        /* \"#utility.yul\":20345:20738   */\n    tag_429:\n        /* \"#utility.yul\":20414:20420   */\n      0x00\n        /* \"#utility.yul\":20464:20465   */\n      0x08\n        /* \"#utility.yul\":20452:20462   */\n      dup4\n        /* \"#utility.yul\":20448:20466   */\n      mul\n        /* \"#utility.yul\":20487:20584   */\n      tag_678\n        /* \"#utility.yul\":20517:20583   */\n      0xffffffffffffffffffffffffffffffffffffffffffffffffffffffffffffffff\n        /* \"#utility.yul\":20506:20515   */\n      dup3\n        /* \"#utility.yul\":20487:20584   */\n      tag_428\n      jump\t// in\n    tag_678:\n        /* \"#utility.yul\":20605:20644   */\n      tag_679\n        /* \"#utility.yul\":20635:20643   */\n      dup7\n        /* \"#utility.yul\":20624:20633   */\n      dup4\n        /* \"#utility.yul\":20605:20644   */\n      tag_428\n      jump\t// in\n    tag_679:\n        /* \"#utility.yul\":20593:20644   */\n      swap6\n      pop\n        /* \"#utility.yul\":20677:20681   */\n      dup1\n        /* \"#utility.yul\":20673:20682   */\n      not\n        /* \"#utility.yul\":20666:20671   */\n      dup5\n        /* \"#utility.yul\":20662:20683   */\n      and\n        /* \"#utility.yul\":20653:20683   */\n      swap4\n      pop\n        /* \"#utility.yul\":20726:20730   */\n      dup1\n        /* \"#utility.yul\":20716:20724   */\n      dup7\n        /* \"#utility.yul\":20712:20731   */\n      and\n        /* \"#utility.yul\":20705:20710   */\n      dup5\n        /* \"#utility.yul\":20702:20732   */\n      or\n        /* \"#utility.yul\":20692:20732   */\n      swap3\n      pop\n        /* \"#utility.yul\":20421:20738   */\n      pop\n      pop\n        /* \"#utility.yul\":20345:20738   */\n      swap4\n      swap3\n      pop\n      pop\n      pop\n      jump\t// out\n        /* \"#utility.yul\":20744:20804   */\n    tag_430:\n        /* \"#utility.yul\":20772:20775   */\n      0x00\n        /* \"#utility.yul\":20793:20798   */\n      dup2\n        /* \"#utility.yul\":20786:20798   */\n      swap1\n      pop\n        /* \"#utility.yul\":20744:20804   */\n      swap2\n      swap1\n      pop\n      jump\t// out\n        /* \"#utility.yul\":20810:20952   */\n    tag_431:\n        /* \"#utility.yul\":20860:20869   */\n      0x00\n        /* \"#utility.yul\":20893:20946   */\n      tag_682\n        /* \"#utility.yul\":20911:20945   */\n      tag_683\n        /* \"#utility.yul\":20920:20944   */\n      tag_684\n        /* \"#utility.yul\":20938:20943   */\n      dup5\n        /* \"#utility.yul\":20920:20944   */\n      tag_385\n      jump\t// in\n    tag_684:\n        /* \"#utility.yul\":20911:20945   */\n      tag_430\n      jump\t// in\n    tag_683:\n        /* \"#utility.yul\":20893:20946   */\n      tag_385\n      jump\t// in\n    tag_682:\n        /* \"#utility.yul\":20880:20946   */\n      swap1\n      pop\n        /* \"#utility.yul\":20810:20952   */\n      swap2\n      swap1\n      pop\n      jump\t// out\n        /* \"#utility.yul\":20958:21033   */\n    tag_432:\n        /* \"#utility.yul\":21001:21004   */\n      0x00\n        /* \"#utility.yul\":21022:21027   */\n      dup2\n        /* \"#utility.yul\":21015:21027   */\n      swap1\n      pop\n        /* \"#utility.yul\":20958:21033   */\n      swap2\n      swap1\n      pop\n      jump\t// out\n        /* \"#utility.yul\":21039:21308   */\n    tag_433:\n        /* \"#utility.yul\":21149:21188   */\n      tag_687\n        /* \"#utility.yul\":21180:21187   */\n      dup4\n        /* \"#utility.yul\":21149:21188   */\n      tag_431\n      jump\t// in\n    tag_687:\n        /* \"#utility.yul\":21210:21301   */\n      tag_688\n        /* \"#utility.yul\":21259:21300   */\n      tag_689\n        /* \"#utility.yul\":21283:21299   */\n      dup3\n        /* \"#utility.yul\":21259:21300   */\n      tag_432\n      jump\t// in\n    tag_689:\n        /* \"#utility.yul\":21251:21257   */\n      dup5\n        /* \"#utility.yul\":21244:21248   */\n      dup5\n        /* \"#utility.yul\":21238:21249   */\n      sload\n        /* \"#utility.yul\":21210:21301   */\n      tag_429\n      jump\t// in\n    tag_688:\n        /* \"#utility.yul\":21204:21208   */\n      dup3\n        /* \"#utility.yul\":21197:21302   */\n      sstore\n        /* \"#utility.yul\":21115:21308   */\n      pop\n        /* \"#utility.yul\":21039:21308   */\n      pop\n      pop\n      pop\n      jump\t// out\n        /* \"#utility.yul\":21314:21387   */\n    tag_434:\n        /* \"#utility.yul\":21359:21362   */\n      0x00\n        /* \"#utility.yul\":21314:21387   */\n      swap1\n      jump\t// out\n        /* \"#utility.yul\":21393:21582   */\n    tag_435:\n        /* \"#utility.yul\":21470:21502   */\n      tag_692\n      tag_434\n      jump\t// in\n    tag_692:\n        /* \"#utility.yul\":21511:21576   */\n      tag_693\n        /* \"#utility.yul\":21569:21575   */\n      dup2\n        /* \"#utility.yul\":21561:21567   */\n      dup5\n        /* \"#utility.yul\":21555:21559   */\n      dup5\n        /* \"#utility.yul\":21511:21576   */\n      tag_433\n      jump\t// in\n    tag_693:\n        /* \"#utility.yul\":21446:21582   */\n      pop\n        /* \"#utility.yul\":21393:21582   */\n      pop\n      pop\n      jump\t// out\n        /* \"#utility.yul\":21588:21774   */\n    tag_436:\n        /* \"#utility.yul\":21648:21768   */\n    tag_695:\n        /* \"#utility.yul\":21665:21668   */\n      dup2\n        /* \"#utility.yul\":21658:21663   */\n      dup2\n        /* \"#utility.yul\":21655:21669   */\n      lt\n        /* \"#utility.yul\":21648:21768   */\n      iszero\n      tag_697\n      jumpi\n        /* \"#utility.yul\":21719:21758   */\n      tag_698\n        /* \"#utility.yul\":21756:21757   */\n      0x00\n        /* \"#utility.yul\":21749:21754   */\n      dup3\n        /* \"#utility.yul\":21719:21758   */\n      tag_435\n      jump\t// in\n    tag_698:\n        /* \"#utility.yul\":21692:21693   */\n      0x01\n        /* \"#utility.yul\":21685:21690   */\n      dup2\n        /* \"#utility.yul\":21681:21694   */\n      add\n        /* \"#utility.yul\":21672:21694   */\n      swap1\n      pop\n        /* \"#utility.yul\":21648:21768   */\n      jump(tag_695)\n    tag_697:\n        /* \"#utility.yul\":21588:21774   */\n      pop\n      pop\n      jump\t// out\n        /* \"#utility.yul\":21780:22323   */\n    tag_437:\n        /* \"#utility.yul\":21881:21883   */\n      0x1f\n        /* \"#utility.yul\":21876:21879   */\n      dup3\n        /* \"#utility.yul\":21873:21884   */\n      gt\n        /* \"#utility.yul\":21870:22316   */\n      iszero\n      tag_700\n      jumpi\n        /* \"#utility.yul\":21915:21953   */\n      tag_701\n        /* \"#utility.yul\":21947:21952   */\n      dup2\n        /* \"#utility.yul\":21915:21953   */\n      tag_426\n      jump\t// in\n    tag_701:\n        /* \"#utility.yul\":21999:22028   */\n      tag_702\n        /* \"#utility.yul\":22017:22027   */\n      dup5\n        /* \"#utility.yul\":21999:22028   */\n      tag_427\n      jump\t// in\n    tag_702:\n        /* \"#utility.yul\":21989:21997   */\n      dup2\n        /* \"#utility.yul\":21985:22029   */\n      add\n        /* \"#utility.yul\":22182:22184   */\n      0x20\n        /* \"#utility.yul\":22170:22180   */\n      dup6\n        /* \"#utility.yul\":22167:22185   */\n      lt\n        /* \"#utility.yul\":22164:22213   */\n      iszero\n      tag_703\n      jumpi\n        /* \"#utility.yul\":22203:22211   */\n      dup2\n        /* \"#utility.yul\":22188:22211   */\n      swap1\n      pop\n        /* \"#utility.yul\":22164:22213   */\n    tag_703:\n        /* \"#utility.yul\":22226:22306   */\n      tag_704\n        /* \"#utility.yul\":22282:22304   */\n      tag_705\n        /* \"#utility.yul\":22300:22303   */\n      dup6\n        /* \"#utility.yul\":22282:22304   */\n      tag_427\n      jump\t// in\n    tag_705:\n        /* \"#utility.yul\":22272:22280   */\n      dup4\n        /* \"#utility.yul\":22268:22305   */\n      add\n        /* \"#utility.yul\":22255:22266   */\n      dup3\n        /* \"#utility.yul\":22226:22306   */\n      tag_436\n      jump\t// in\n    tag_704:\n        /* \"#utility.yul\":21885:22316   */\n      pop\n      pop\n        /* \"#utility.yul\":21870:22316   */\n    tag_700:\n        /* \"#utility.yul\":21780:22323   */\n      pop\n      pop\n      pop\n      jump\t// out\n        /* \"#utility.yul\":22329:22446   */\n    tag_438:\n        /* \"#utility.yul\":22383:22391   */\n      0x00\n        /* \"#utility.yul\":22433:22438   */\n      dup3\n        /* \"#utility.yul\":22427:22431   */\n      dup3\n        /* \"#utility.yul\":22423:22439   */\n      shr\n        /* \"#utility.yul\":22402:22439   */\n      swap1\n      pop\n        /* \"#utility.yul\":22329:22446   */\n      swap3\n      swap2\n      pop\n      pop\n      jump\t// out\n        /* \"#utility.yul\":22452:22621   */\n    tag_439:\n        /* \"#utility.yul\":22496:22502   */\n      0x00\n        /* \"#utility.yul\":22529:22580   */\n      tag_708\n        /* \"#utility.yul\":22577:22578   */\n      0x00\n        /* \"#utility.yul\":22573:22579   */\n      not\n        /* \"#utility.yul\":22565:22570   */\n      dup5\n        /* \"#utility.yul\":22562:22563   */\n      0x08\n        /* \"#utility.yul\":22558:22571   */\n      mul\n        /* \"#utility.yul\":22529:22580   */\n      tag_438\n      jump\t// in\n    tag_708:\n        /* \"#utility.yul\":22525:22581   */\n      not\n        /* \"#utility.yul\":22610:22614   */\n      dup1\n        /* \"#utility.yul\":22604:22608   */\n      dup4\n        /* \"#utility.yul\":22600:22615   */\n      and\n        /* \"#utility.yul\":22590:22615   */\n      swap2\n      pop\n        /* \"#utility.yul\":22503:22621   */\n      pop\n        /* \"#utility.yul\":22452:22621   */\n      swap3\n      swap2\n      pop\n      pop\n      jump\t// out\n        /* \"#utility.yul\":22626:22921   */\n    tag_440:\n        /* \"#utility.yul\":22702:22706   */\n      0x00\n        /* \"#utility.yul\":22848:22877   */\n      tag_710\n        /* \"#utility.yul\":22873:22876   */\n      dup4\n        /* \"#utility.yul\":22867:22871   */\n      dup4\n        /* \"#utility.yul\":22848:22877   */\n      tag_439\n      jump\t// in\n    tag_710:\n        /* \"#utility.yul\":22840:22877   */\n      swap2\n      pop\n        /* \"#utility.yul\":22910:22913   */\n      dup3\n        /* \"#utility.yul\":22907:22908   */\n      0x02\n        /* \"#utility.yul\":22903:22914   */\n      mul\n        /* \"#utility.yul\":22897:22901   */\n      dup3\n        /* \"#utility.yul\":22894:22915   */\n      or\n        /* \"#utility.yul\":22886:22915   */\n      swap1\n      pop\n        /* \"#utility.yul\":22626:22921   */\n      swap3\n      swap2\n      pop\n      pop\n      jump\t// out\n        /* \"#utility.yul\":22926:24321   */\n    tag_226:\n        /* \"#utility.yul\":23043:23080   */\n      tag_712\n        /* \"#utility.yul\":23076:23079   */\n      dup3\n        /* \"#utility.yul\":23043:23080   */\n      tag_390\n      jump\t// in\n    tag_712:\n        /* \"#utility.yul\":23145:23163   */\n      0xffffffffffffffff\n        /* \"#utility.yul\":23137:23143   */\n      dup2\n        /* \"#utility.yul\":23134:23164   */\n      gt\n        /* \"#utility.yul\":23131:23187   */\n      iszero\n      tag_713\n      jumpi\n        /* \"#utility.yul\":23167:23185   */\n      tag_714\n      tag_406\n      jump\t// in\n    tag_714:\n        /* \"#utility.yul\":23131:23187   */\n    tag_713:\n        /* \"#utility.yul\":23211:23249   */\n      tag_715\n        /* \"#utility.yul\":23243:23247   */\n      dup3\n        /* \"#utility.yul\":23237:23248   */\n      sload\n        /* \"#utility.yul\":23211:23249   */\n      tag_119\n      jump\t// in\n    tag_715:\n        /* \"#utility.yul\":23296:23363   */\n      tag_716\n        /* \"#utility.yul\":23356:23362   */\n      dup3\n        /* \"#utility.yul\":23348:23354   */\n      dup3\n        /* \"#utility.yul\":23342:23346   */\n      dup6\n        /* \"#utility.yul\":23296:23363   */\n      tag_437\n      jump\t// in\n    tag_716:\n        /* \"#utility.yul\":23390:23391   */\n      0x00\n        /* \"#utility.yul\":23414:23418   */\n      0x20\n        /* \"#utility.yul\":23401:23418   */\n      swap1\n      pop\n        /* \"#utility.yul\":23446:23448   */\n      0x1f\n        /* \"#utility.yul\":23438:23444   */\n      dup4\n        /* \"#utility.yul\":23435:23449   */\n      gt\n        /* \"#utility.yul\":23463:23464   */\n      0x01\n        /* \"#utility.yul\":23458:24076   */\n      dup2\n      eq\n      tag_718\n      jumpi\n        /* \"#utility.yul\":24120:24121   */\n      0x00\n        /* \"#utility.yul\":24137:24143   */\n      dup5\n        /* \"#utility.yul\":24134:24211   */\n      iszero\n      tag_719\n      jumpi\n        /* \"#utility.yul\":24186:24195   */\n      dup3\n        /* \"#utility.yul\":24181:24184   */\n      dup8\n        /* \"#utility.yul\":24177:24196   */\n      add\n        /* \"#utility.yul\":24171:24197   */\n      mload\n        /* \"#utility.yul\":24162:24197   */\n      swap1\n      pop\n        /* \"#utility.yul\":24134:24211   */\n    tag_719:\n        /* \"#utility.yul\":24237:24304   */\n      tag_720\n        /* \"#utility.yul\":24297:24303   */\n      dup6\n        /* \"#utility.yul\":24290:24295   */\n      dup3\n        /* \"#utility.yul\":24237:24304   */\n      tag_440\n      jump\t// in\n    tag_720:\n        /* \"#utility.yul\":24231:24235   */\n      dup7\n        /* \"#utility.yul\":24224:24305   */\n      sstore\n        /* \"#utility.yul\":24093:24315   */\n      pop\n        /* \"#utility.yul\":23428:24315   */\n      jump(tag_717)\n        /* \"#utility.yul\":23458:24076   */\n    tag_718:\n        /* \"#utility.yul\":23510:23514   */\n      0x1f\n        /* \"#utility.yul\":23506:23515   */\n      not\n        /* \"#utility.yul\":23498:23504   */\n      dup5\n        /* \"#utility.yul\":23494:23516   */\n      and\n        /* \"#utility.yul\":23544:23581   */\n      tag_721\n        /* \"#utility.yul\":23576:23580   */\n      dup7\n        /* \"#utility.yul\":23544:23581   */\n      tag_426\n      jump\t// in\n    tag_721:\n        /* \"#utility.yul\":23603:23604   */\n      0x00\n        /* \"#utility.yul\":23617:23825   */\n    tag_722:\n        /* \"#utility.yul\":23631:23638   */\n      dup3\n        /* \"#utility.yul\":23628:23629   */\n      dup2\n        /* \"#utility.yul\":23625:23639   */\n      lt\n        /* \"#utility.yul\":23617:23825   */\n      iszero\n      tag_724\n      jumpi\n        /* \"#utility.yul\":23710:23719   */\n      dup5\n        /* \"#utility.yul\":23705:23708   */\n      dup10\n        /* \"#utility.yul\":23701:23720   */\n      add\n        /* \"#utility.yul\":23695:23721   */\n      mload\n        /* \"#utility.yul\":23687:23693   */\n      dup3\n        /* \"#utility.yul\":23680:23722   */\n      sstore\n        /* \"#utility.yul\":23761:23762   */\n      0x01\n        /* \"#utility.yul\":23753:23759   */\n      dup3\n        /* \"#utility.yul\":23749:23763   */\n      add\n        /* \"#utility.yul\":23739:23763   */\n      swap2\n      pop\n        /* \"#utility.yul\":23808:23810   */\n      0x20\n        /* \"#utility.yul\":23797:23806   */\n      dup6\n        /* \"#utility.yul\":23793:23811   */\n      add\n        /* \"#utility.yul\":23780:23811   */\n      swap5\n      pop\n        /* \"#utility.yul\":23654:23658   */\n      0x20\n        /* \"#utility.yul\":23651:23652   */\n      dup2\n        /* \"#utility.yul\":23647:23659   */\n      add\n        /* \"#utility.yul\":23642:23659   */\n      swap1\n      pop\n        /* \"#utility.yul\":23617:23825   */\n      jump(tag_722)\n    tag_724:\n        /* \"#utility.yul\":23853:23859   */\n      dup7\n        /* \"#utility.yul\":23844:23851   */\n      dup4\n        /* \"#utility.yul\":23841:23860   */\n      lt\n        /* \"#utility.yul\":23838:24017   */\n      iszero\n      tag_725\n      jumpi\n        /* \"#utility.yul\":23911:23920   */\n      dup5\n        /* \"#utility.yul\":23906:23909   */\n      dup10\n        /* \"#utility.yul\":23902:23921   */\n      add\n        /* \"#utility.yul\":23896:23922   */\n      mload\n        /* \"#utility.yul\":23954:24002   */\n      tag_726\n        /* \"#utility.yul\":23996:24000   */\n      0x1f\n        /* \"#utility.yul\":23988:23994   */\n      dup10\n        /* \"#utility.yul\":23984:24001   */\n      and\n        /* \"#utility.yul\":23973:23982   */\n      dup3\n        /* \"#utility.yul\":23954:24002   */\n      tag_439\n      jump\t// in\n    tag_726:\n        /* \"#utility.yul\":23946:23952   */\n      dup4\n        /* \"#utility.yul\":23939:24003   */\n      sstore\n        /* \"#utility.yul\":23861:24017   */\n      pop\n        /* \"#utility.yul\":23838:24017   */\n    tag_725:\n        /* \"#utility.yul\":24063:24064   */\n      0x01\n        /* \"#utility.yul\":24059:24060   */\n      0x02\n        /* \"#utility.yul\":24051:24057   */\n      dup9\n        /* \"#utility.yul\":24047:24061   */\n      mul\n        /* \"#utility.yul\":24043:24065   */\n      add\n        /* \"#utility.yul\":24037:24041   */\n      dup9\n        /* \"#utility.yul\":24030:24066   */\n      sstore\n        /* \"#utility.yul\":23465:24076   */\n      pop\n      pop\n      pop\n        /* \"#utility.yul\":23428:24315   */\n    tag_717:\n      pop\n        /* \"#utility.yul\":23018:24321   */\n      pop\n      pop\n      pop\n        /* \"#utility.yul\":22926:24321   */\n      pop\n      pop\n      jump\t// out\n        /* \"#utility.yul\":24327:24552   */\n    tag_441:\n        /* \"#utility.yul\":24467:24501   */\n      0x507572636861736520616d6f756e74206d757374206265206772656174657220\n        /* \"#utility.yul\":24463:24464   */\n      0x00\n        /* \"#utility.yul\":24455:24461   */\n      dup3\n        /* \"#utility.yul\":24451:24465   */\n      add\n        /* \"#utility.yul\":24444:24502   */\n      mstore\n        /* \"#utility.yul\":24536:24544   */\n      0x7468616e20300000000000000000000000000000000000000000000000000000\n        /* \"#utility.yul\":24531:24533   */\n      0x20\n        /* \"#utility.yul\":24523:24529   */\n      dup3\n        /* \"#utility.yul\":24519:24534   */\n      add\n        /* \"#utility.yul\":24512:24545   */\n      mstore\n        /* \"#utility.yul\":24327:24552   */\n      pop\n      jump\t// out\n        /* \"#utility.yul\":24558:24924   */\n    tag_442:\n        /* \"#utility.yul\":24700:24703   */\n      0x00\n        /* \"#utility.yul\":24721:24788   */\n      tag_729\n        /* \"#utility.yul\":24785:24787   */\n      0x26\n        /* \"#utility.yul\":24780:24783   */\n      dup4\n        /* \"#utility.yul\":24721:24788   */\n      tag_391\n      jump\t// in\n    tag_729:\n        /* \"#utility.yul\":24714:24788   */\n      swap2\n      pop\n        /* \"#utility.yul\":24797:24890   */\n      tag_730\n        /* \"#utility.yul\":24886:24889   */\n      dup3\n        /* \"#utility.yul\":24797:24890   */\n      tag_441\n      jump\t// in\n    tag_730:\n        /* \"#utility.yul\":24915:24917   */\n      0x40\n        /* \"#utility.yul\":24910:24913   */\n      dup3\n        /* \"#utility.yul\":24906:24918   */\n      add\n        /* \"#utility.yul\":24899:24918   */\n      swap1\n      pop\n        /* \"#utility.yul\":24558:24924   */\n      swap2\n      swap1\n      pop\n      jump\t// out\n        /* \"#utility.yul\":24930:25349   */\n    tag_239:\n        /* \"#utility.yul\":25096:25100   */\n      0x00\n        /* \"#utility.yul\":25134:25136   */\n      0x20\n        /* \"#utility.yul\":25123:25132   */\n      dup3\n        /* \"#utility.yul\":25119:25137   */\n      add\n        /* \"#utility.yul\":25111:25137   */\n      swap1\n      pop\n        /* \"#utility.yul\":25183:25192   */\n      dup2\n        /* \"#utility.yul\":25177:25181   */\n      dup2\n        /* \"#utility.yul\":25173:25193   */\n      sub\n        /* \"#utility.yul\":25169:25170   */\n      0x00\n        /* \"#utility.yul\":25158:25167   */\n      dup4\n        /* \"#utility.yul\":25154:25171   */\n      add\n        /* \"#utility.yul\":25147:25194   */\n      mstore\n        /* \"#utility.yul\":25211:25342   */\n      tag_732\n        /* \"#utility.yul\":25337:25341   */\n      dup2\n        /* \"#utility.yul\":25211:25342   */\n      tag_442\n      jump\t// in\n    tag_732:\n        /* \"#utility.yul\":25203:25342   */\n      swap1\n      pop\n        /* \"#utility.yul\":24930:25349   */\n      swap2\n      swap1\n      pop\n      jump\t// out\n        /* \"#utility.yul\":25355:25523   */\n    tag_443:\n        /* \"#utility.yul\":25495:25515   */\n      0x496e76616c69642070726f647563742049440000000000000000000000000000\n        /* \"#utility.yul\":25491:25492   */\n      0x00\n        /* \"#utility.yul\":25483:25489   */\n      dup3\n        /* \"#utility.yul\":25479:25493   */\n      add\n        /* \"#utility.yul\":25472:25516   */\n      mstore\n        /* \"#utility.yul\":25355:25523   */\n      pop\n      jump\t// out\n        /* \"#utility.yul\":25529:25895   */\n    tag_444:\n        /* \"#utility.yul\":25671:25674   */\n      0x00\n        /* \"#utility.yul\":25692:25759   */\n      tag_735\n        /* \"#utility.yul\":25756:25758   */\n      0x12\n        /* \"#utility.yul\":25751:25754   */\n      dup4\n        /* \"#utility.yul\":25692:25759   */\n      tag_391\n      jump\t// in\n    tag_735:\n        /* \"#utility.yul\":25685:25759   */\n      swap2\n      pop\n        /* \"#utility.yul\":25768:25861   */\n      tag_736\n        /* \"#utility.yul\":25857:25860   */\n      dup3\n        /* \"#utility.yul\":25768:25861   */\n      tag_443\n      jump\t// in\n    tag_736:\n        /* \"#utility.yul\":25886:25888   */\n      0x20\n        /* \"#utility.yul\":25881:25884   */\n      dup3\n        /* \"#utility.yul\":25877:25889   */\n      add\n        /* \"#utility.yul\":25870:25889   */\n      swap1\n      pop\n        /* \"#utility.yul\":25529:25895   */\n      swap2\n      swap1\n      pop\n      jump\t// out\n        /* \"#utility.yul\":25901:26320   */\n    tag_242:\n        /* \"#utility.yul\":26067:26071   */\n      0x00\n        /* \"#utility.yul\":26105:26107   */\n      0x20\n        /* \"#utility.yul\":26094:26103   */\n      dup3\n        /* \"#utility.yul\":26090:26108   */\n      add\n        /* \"#utility.yul\":26082:26108   */\n      swap1\n      pop\n        /* \"#utility.yul\":26154:26163   */\n      dup2\n        /* \"#utility.yul\":26148:26152   */\n      dup2\n        /* \"#utility.yul\":26144:26164   */\n      sub\n        /* \"#utility.yul\":26140:26141   */\n      0x00\n        /* \"#utility.yul\":26129:26138   */\n      dup4\n        /* \"#utility.yul\":26125:26142   */\n      add\n        /* \"#utility.yul\":26118:26165   */\n      mstore\n        /* \"#utility.yul\":26182:26313   */\n      tag_738\n        /* \"#utility.yul\":26308:26312   */\n      dup2\n        /* \"#utility.yul\":26182:26313   */\n      tag_444\n      jump\t// in\n    tag_738:\n        /* \"#utility.yul\":26174:26313   */\n      swap1\n      pop\n        /* \"#utility.yul\":25901:26320   */\n      swap2\n      swap1\n      pop\n      jump\t// out\n        /* \"#utility.yul\":26326:26502   */\n    tag_445:\n        /* \"#utility.yul\":26466:26494   */\n      0x4e6f7420656e6f7567682073746f636b20617661696c61626c65000000000000\n        /* \"#utility.yul\":26462:26463   */\n      0x00\n        /* \"#utility.yul\":26454:26460   */\n      dup3\n        /* \"#utility.yul\":26450:26464   */\n      add\n        /* \"#utility.yul\":26443:26495   */\n      mstore\n        /* \"#utility.yul\":26326:26502   */\n      pop\n      jump\t// out\n        /* \"#utility.yul\":26508:26874   */\n    tag_446:\n        /* \"#utility.yul\":26650:26653   */\n      0x00\n        /* \"#utility.yul\":26671:26738   */\n      tag_741\n        /* \"#utility.yul\":26735:26737   */\n      0x1a\n        /* \"#utility.yul\":26730:26733   */\n      dup4\n        /* \"#utility.yul\":26671:26738   */\n      tag_391\n      jump\t// in\n    tag_741:\n        /* \"#utility.yul\":26664:26738   */\n      swap2\n      pop\n        /* \"#utility.yul\":26747:26840   */\n      tag_742\n        /* \"#utility.yul\":26836:26839   */\n      dup3\n        /* \"#utility.yul\":26747:26840   */\n      tag_445\n      jump\t// in\n    tag_742:\n        /* \"#utility.yul\":26865:26867   */\n      0x20\n        /* \"#utility.yul\":26860:26863   */\n      dup3\n        /* \"#utility.yul\":26856:26868   */\n      add\n        /* \"#utility.yul\":26849:26868   */\n      swap1\n      pop\n        /* \"#utility.yul\":26508:26874   */\n      swap2\n      swap1\n      pop\n      jump\t// out\n        /* \"#utility.yul\":26880:27299   */\n    tag_248:\n        /* \"#utility.yul\":27046:27050   */\n      0x00\n        /* \"#utility.yul\":27084:27086   */\n      0x20\n        /* \"#utility.yul\":27073:27082   */\n      dup3\n        /* \"#utility.yul\":27069:27087   */\n      add\n        /* \"#utility.yul\":27061:27087   */\n      swap1\n      pop\n        /* \"#utility.yul\":27133:27142   */\n      dup2\n        /* \"#utility.yul\":27127:27131   */\n      dup2\n        /* \"#utility.yul\":27123:27143   */\n      sub\n        /* \"#utility.yul\":27119:27120   */\n      0x00\n        /* \"#utility.yul\":27108:27117   */\n      dup4\n        /* \"#utility.yul\":27104:27121   */\n      add\n        /* \"#utility.yul\":27097:27144   */\n      mstore\n        /* \"#utility.yul\":27161:27292   */\n      tag_744\n        /* \"#utility.yul\":27287:27291   */\n      dup2\n        /* \"#utility.yul\":27161:27292   */\n      tag_446\n      jump\t// in\n    tag_744:\n        /* \"#utility.yul\":27153:27292   */\n      swap1\n      pop\n        /* \"#utility.yul\":26880:27299   */\n      swap2\n      swap1\n      pop\n      jump\t// out\n        /* \"#utility.yul\":27305:27453   */\n    tag_447:\n        /* \"#utility.yul\":27407:27418   */\n      0x00\n        /* \"#utility.yul\":27444:27447   */\n      dup2\n        /* \"#utility.yul\":27429:27447   */\n      swap1\n      pop\n        /* \"#utility.yul\":27305:27453   */\n      swap3\n      swap2\n      pop\n      pop\n      jump\t// out\n        /* \"#utility.yul\":27459:27849   */\n    tag_448:\n        /* \"#utility.yul\":27565:27568   */\n      0x00\n        /* \"#utility.yul\":27593:27632   */\n      tag_747\n        /* \"#utility.yul\":27626:27631   */\n      dup3\n        /* \"#utility.yul\":27593:27632   */\n      tag_390\n      jump\t// in\n    tag_747:\n        /* \"#utility.yul\":27648:27737   */\n      tag_748\n        /* \"#utility.yul\":27730:27736   */\n      dup2\n        /* \"#utility.yul\":27725:27728   */\n      dup6\n        /* \"#utility.yul\":27648:27737   */\n      tag_447\n      jump\t// in\n    tag_748:\n        /* \"#utility.yul\":27641:27737   */\n      swap4\n      pop\n        /* \"#utility.yul\":27746:27811   */\n      tag_749\n        /* \"#utility.yul\":27804:27810   */\n      dup2\n        /* \"#utility.yul\":27799:27802   */\n      dup6\n        /* \"#utility.yul\":27792:27796   */\n      0x20\n        /* \"#utility.yul\":27785:27790   */\n      dup7\n        /* \"#utility.yul\":27781:27797   */\n      add\n        /* \"#utility.yul\":27746:27811   */\n      tag_392\n      jump\t// in\n    tag_749:\n        /* \"#utility.yul\":27836:27842   */\n      dup1\n        /* \"#utility.yul\":27831:27834   */\n      dup5\n        /* \"#utility.yul\":27827:27843   */\n      add\n        /* \"#utility.yul\":27820:27843   */\n      swap2\n      pop\n        /* \"#utility.yul\":27569:27849   */\n      pop\n        /* \"#utility.yul\":27459:27849   */\n      swap3\n      swap2\n      pop\n      pop\n      jump\t// out\n        /* \"#utility.yul\":27855:28130   */\n    tag_255:\n        /* \"#utility.yul\":27987:27990   */\n      0x00\n        /* \"#utility.yul\":28009:28104   */\n      tag_751\n        /* \"#utility.yul\":28100:28103   */\n      dup3\n        /* \"#utility.yul\":28091:28097   */\n      dup5\n        /* \"#utility.yul\":28009:28104   */\n      tag_448\n      jump\t// in\n    tag_751:\n        /* \"#utility.yul\":28002:28104   */\n      swap2\n      pop\n        /* \"#utility.yul\":28121:28124   */\n      dup2\n        /* \"#utility.yul\":28114:28124   */\n      swap1\n      pop\n        /* \"#utility.yul\":27855:28130   */\n      swap3\n      swap2\n      pop\n      pop\n      jump\t// out\n        /* \"#utility.yul\":28136:28309   */\n    tag_449:\n        /* \"#utility.yul\":28276:28301   */\n      0x496e73756666696369656e742066756e64732073656e74000000000000000000\n        /* \"#utility.yul\":28272:28273   */\n      0x00\n        /* \"#utility.yul\":28264:28270   */\n      dup3\n        /* \"#utility.yul\":28260:28274   */\n      add\n        /* \"#utility.yul\":28253:28302   */\n      mstore\n        /* \"#utility.yul\":28136:28309   */\n      pop\n      jump\t// out\n        /* \"#utility.yul\":28315:28681   */\n    tag_450:\n        /* \"#utility.yul\":28457:28460   */\n      0x00\n        /* \"#utility.yul\":28478:28545   */\n      tag_754\n        /* \"#utility.yul\":28542:28544   */\n      0x17\n        /* \"#utility.yul\":28537:28540   */\n      dup4\n        /* \"#utility.yul\":28478:28545   */\n      tag_391\n      jump\t// in\n    tag_754:\n        /* \"#utility.yul\":28471:28545   */\n      swap2\n      pop\n        /* \"#utility.yul\":28554:28647   */\n      tag_755\n        /* \"#utility.yul\":28643:28646   */\n      dup3\n        /* \"#utility.yul\":28554:28647   */\n      tag_449\n      jump\t// in\n    tag_755:\n        /* \"#utility.yul\":28672:28674   */\n      0x20\n        /* \"#utility.yul\":28667:28670   */\n      dup3\n        /* \"#utility.yul\":28663:28675   */\n      add\n        /* \"#utility.yul\":28656:28675   */\n      swap1\n      pop\n        /* \"#utility.yul\":28315:28681   */\n      swap2\n      swap1\n      pop\n      jump\t// out\n        /* \"#utility.yul\":28687:29106   */\n    tag_262:\n        /* \"#utility.yul\":28853:28857   */\n      0x00\n        /* \"#utility.yul\":28891:28893   */\n      0x20\n        /* \"#utility.yul\":28880:28889   */\n      dup3\n        /* \"#utility.yul\":28876:28894   */\n      add\n        /* \"#utility.yul\":28868:28894   */\n      swap1\n      pop\n        /* \"#utility.yul\":28940:28949   */\n      dup2\n        /* \"#utility.yul\":28934:28938   */\n      dup2\n        /* \"#utility.yul\":28930:28950   */\n      sub\n        /* \"#utility.yul\":28926:28927   */\n      0x00\n        /* \"#utility.yul\":28915:28924   */\n      dup4\n        /* \"#utility.yul\":28911:28928   */\n      add\n        /* \"#utility.yul\":28904:28951   */\n      mstore\n        /* \"#utility.yul\":28968:29099   */\n      tag_757\n        /* \"#utility.yul\":29094:29098   */\n      dup2\n        /* \"#utility.yul\":28968:29099   */\n      tag_450\n      jump\t// in\n    tag_757:\n        /* \"#utility.yul\":28960:29099   */\n      swap1\n      pop\n        /* \"#utility.yul\":28687:29106   */\n      swap2\n      swap1\n      pop\n      jump\t// out\n        /* \"#utility.yul\":29112:29259   */\n    tag_451:\n        /* \"#utility.yul\":29213:29224   */\n      0x00\n        /* \"#utility.yul\":29250:29253   */\n      dup2\n        /* \"#utility.yul\":29235:29253   */\n      swap1\n      pop\n        /* \"#utility.yul\":29112:29259   */\n      swap3\n      swap2\n      pop\n      pop\n      jump\t// out\n        /* \"#utility.yul\":29265:29409   */\n    tag_452:\n        /* \"#utility.yul\":29317:29321   */\n      0x00\n        /* \"#utility.yul\":29340:29343   */\n      dup2\n        /* \"#utility.yul\":29332:29343   */\n      swap1\n      pop\n        /* \"#utility.yul\":29363:29366   */\n      dup2\n        /* \"#utility.yul\":29360:29361   */\n      0x00\n        /* \"#utility.yul\":29353:29367   */\n      mstore\n        /* \"#utility.yul\":29397:29401   */\n      0x20\n        /* \"#utility.yul\":29394:29395   */\n      0x00\n        /* \"#utility.yul\":29384:29402   */\n      keccak256\n        /* \"#utility.yul\":29376:29402   */\n      swap1\n      pop\n        /* \"#utility.yul\":29265:29409   */\n      swap2\n      swap1\n      pop\n      jump\t// out\n        /* \"#utility.yul\":29437:30315   */\n    tag_453:\n        /* \"#utility.yul\":29542:29545   */\n      0x00\n        /* \"#utility.yul\":29579:29584   */\n      dup2\n        /* \"#utility.yul\":29573:29585   */\n      sload\n        /* \"#utility.yul\":29608:29644   */\n      tag_761\n        /* \"#utility.yul\":29634:29643   */\n      dup2\n        /* \"#utility.yul\":29608:29644   */\n      tag_119\n      jump\t// in\n    tag_761:\n        /* \"#utility.yul\":29660:29748   */\n      tag_762\n        /* \"#utility.yul\":29741:29747   */\n      dup2\n        /* \"#utility.yul\":29736:29739   */\n      dup7\n        /* \"#utility.yul\":29660:29748   */\n      tag_451\n      jump\t// in\n    tag_762:\n        /* \"#utility.yul\":29653:29748   */\n      swap5\n      pop\n        /* \"#utility.yul\":29779:29780   */\n      0x01\n        /* \"#utility.yul\":29768:29777   */\n      dup3\n        /* \"#utility.yul\":29764:29781   */\n      and\n        /* \"#utility.yul\":29795:29796   */\n      0x00\n        /* \"#utility.yul\":29790:29956   */\n      dup2\n      eq\n      tag_764\n      jumpi\n        /* \"#utility.yul\":29970:29971   */\n      0x01\n        /* \"#utility.yul\":29965:30309   */\n      dup2\n      eq\n      tag_765\n      jumpi\n        /* \"#utility.yul\":29757:30309   */\n      jump(tag_763)\n        /* \"#utility.yul\":29790:29956   */\n    tag_764:\n        /* \"#utility.yul\":29874:29878   */\n      0xff\n        /* \"#utility.yul\":29870:29879   */\n      not\n        /* \"#utility.yul\":29859:29868   */\n      dup4\n        /* \"#utility.yul\":29855:29880   */\n      and\n        /* \"#utility.yul\":29850:29853   */\n      dup7\n        /* \"#utility.yul\":29843:29881   */\n      mstore\n        /* \"#utility.yul\":29936:29942   */\n      dup2\n        /* \"#utility.yul\":29929:29943   */\n      iszero\n        /* \"#utility.yul\":29922:29944   */\n      iszero\n        /* \"#utility.yul\":29914:29920   */\n      dup3\n        /* \"#utility.yul\":29910:29945   */\n      mul\n        /* \"#utility.yul\":29905:29908   */\n      dup7\n        /* \"#utility.yul\":29901:29946   */\n      add\n        /* \"#utility.yul\":29894:29946   */\n      swap4\n      pop\n        /* \"#utility.yul\":29790:29956   */\n      jump(tag_763)\n        /* \"#utility.yul\":29965:30309   */\n    tag_765:\n        /* \"#utility.yul\":30032:30073   */\n      tag_766\n        /* \"#utility.yul\":30067:30072   */\n      dup6\n        /* \"#utility.yul\":30032:30073   */\n      tag_452\n      jump\t// in\n    tag_766:\n        /* \"#utility.yul\":30095:30096   */\n      0x00\n        /* \"#utility.yul\":30109:30263   */\n    tag_767:\n        /* \"#utility.yul\":30123:30129   */\n      dup4\n        /* \"#utility.yul\":30120:30121   */\n      dup2\n        /* \"#utility.yul\":30117:30130   */\n      lt\n        /* \"#utility.yul\":30109:30263   */\n      iszero\n      tag_769\n      jumpi\n        /* \"#utility.yul\":30197:30204   */\n      dup2\n        /* \"#utility.yul\":30191:30205   */\n      sload\n        /* \"#utility.yul\":30187:30188   */\n      dup2\n        /* \"#utility.yul\":30182:30185   */\n      dup10\n        /* \"#utility.yul\":30178:30189   */\n      add\n        /* \"#utility.yul\":30171:30206   */\n      mstore\n        /* \"#utility.yul\":30247:30248   */\n      0x01\n        /* \"#utility.yul\":30238:30245   */\n      dup3\n        /* \"#utility.yul\":30234:30249   */\n      add\n        /* \"#utility.yul\":30223:30249   */\n      swap2\n      pop\n        /* \"#utility.yul\":30145:30149   */\n      0x20\n        /* \"#utility.yul\":30142:30143   */\n      dup2\n        /* \"#utility.yul\":30138:30150   */\n      add\n        /* \"#utility.yul\":30133:30150   */\n      swap1\n      pop\n        /* \"#utility.yul\":30109:30263   */\n      jump(tag_767)\n    tag_769:\n        /* \"#utility.yul\":30292:30298   */\n      dup4\n        /* \"#utility.yul\":30287:30290   */\n      dup9\n        /* \"#utility.yul\":30283:30299   */\n      add\n        /* \"#utility.yul\":30276:30299   */\n      swap6\n      pop\n        /* \"#utility.yul\":29972:30309   */\n      pop\n      pop\n        /* \"#utility.yul\":29757:30309   */\n    tag_763:\n      pop\n        /* \"#utility.yul\":29546:30315   */\n      pop\n      pop\n        /* \"#utility.yul\":29437:30315   */\n      swap3\n      swap2\n      pop\n      pop\n      jump\t// out\n        /* \"#utility.yul\":30321:30594   */\n    tag_270:\n        /* \"#utility.yul\":30452:30455   */\n      0x00\n        /* \"#utility.yul\":30474:30568   */\n      tag_771\n        /* \"#utility.yul\":30564:30567   */\n      dup3\n        /* \"#utility.yul\":30555:30561   */\n      dup5\n        /* \"#utility.yul\":30474:30568   */\n      tag_453\n      jump\t// in\n    tag_771:\n        /* \"#utility.yul\":30467:30568   */\n      swap2\n      pop\n        /* \"#utility.yul\":30585:30588   */\n      dup2\n        /* \"#utility.yul\":30578:30588   */\n      swap1\n      pop\n        /* \"#utility.yul\":30321:30594   */\n      swap3\n      swap2\n      pop\n      pop\n      jump\t// out\n\n    auxdata: 0xa2646970667358221220ff6fa0f492dac51be21ba502f019f5284d2e00ffcc6c69260f40ac8198454cbb64736f6c63430008150033\n}\n",
				"bytecode": {
					"linkReferences": {},
					"object": "608060405234801561000f575f80fd5b503360015f6101000a81548173ffffffffffffffffffffffffffffffffffffffff021916908373ffffffffffffffffffffffffffffffffffffffff1602179055506135a38061005d5f395ff3fe608060405260043610610113575f3560e01c8063805553e81161009f578063a87430ba11610063578063a87430ba1461038a578063d18a524a146103c7578063d55768dd146103dd578063f67a2ad114610419578063fecd8f791461044157610113565b8063805553e8146102b8578063861c2b6d146102f45780638da5cb5b1461031c5780639f1cd58714610346578063a1ba90b61461036257610113565b80634f424547116100e65780634f424547146101d557806350b447121461021557806355dea0b31461025257806366d0dc671461027a5780636f7647081461029057610113565b806327b90b1b146101175780633d527883146101575780633dfe7dee14610197578063410085df146101ad575b5f80fd5b348015610122575f80fd5b5061013d60048036038101906101389190612585565b61045d565b60405161014e95949392919061266b565b60405180910390f35b348015610162575f80fd5b5061017d60048036038101906101789190612585565b61054e565b60405161018e95949392919061266b565b60405180910390f35b3480156101a2575f80fd5b506101ab61063f565b005b3480156101b8575f80fd5b506101d360048036038101906101ce9190612585565b6106df565b005b3480156101e0575f80fd5b506101fb60048036038101906101f69190612585565b610a9c565b60405161020c95949392919061266b565b60405180910390f35b348015610220575f80fd5b5061023b600480360381019061023691906126c3565b610b8d565b604051610249929190612761565b60405180910390f35b34801561025d575f80fd5b50610278600480360381019061027391906127ab565b610be2565b005b348015610285575f80fd5b5061028e610cba565b005b34801561029b575f80fd5b506102b660048036038101906102b191906126c3565b610d5b565b005b3480156102c3575f80fd5b506102de60048036038101906102d991906126c3565b610e8c565b6040516102eb91906127d6565b60405180910390f35b3480156102ff575f80fd5b5061031a60048036038101906103159190612850565b610edc565b005b348015610327575f80fd5b50610330611176565b60405161033d91906128e6565b60405180910390f35b610360600480360381019061035b9190612a27565b61119b565b005b34801561036d575f80fd5b5061038860048036038101906103839190612aa7565b611b11565b005b348015610395575f80fd5b506103b060048036038101906103ab9190612b01565b611ba8565b6040516103be929190612b2c565b60405180910390f35b3480156103d2575f80fd5b506103db611bd4565b005b3480156103e8575f80fd5b5061040360048036038101906103fe9190612b53565b611c74565b60405161041091906128e6565b60405180910390f35b348015610424575f80fd5b5061043f600480360381019061043a9190612b01565b611cbc565b005b61045b60048036038101906104569190612b9a565b611d43565b005b6005602052815f5260405f208181548110610476575f80fd5b905f5260205f2090600502015f9150915050805f015f9054906101000a900473ffffffffffffffffffffffffffffffffffffffff16908060010154908060020154908060030180546104c790612c2b565b80601f01602080910402602001604051908101604052809291908181526020018280546104f390612c2b565b801561053e5780601f106105155761010080835404028352916020019161053e565b820191905f5260205f20905b81548152906001019060200180831161052157829003601f168201915b5050505050908060040154905085565b6003602052815f5260405f208181548110610567575f80fd5b905f5260205f2090600502015f9150915050805f015f9054906101000a900473ffffffffffffffffffffffffffffffffffffffff16908060010154908060020154908060030180546105b890612c2b565b80601f01602080910402602001604051908101604052809291908181526020018280546105e490612c2b565b801561062f5780601f106106065761010080835404028352916020019161062f565b820191905f5260205f20905b81548152906001019060200180831161061257829003601f168201915b5050505050908060040154905085565b604051806040016040528060028081111561065d5761065c6126ee565b5b81526020015f81525060025f3373ffffffffffffffffffffffffffffffffffffffff1673ffffffffffffffffffffffffffffffffffffffff1681526020019081526020015f205f820151815f015f6101000a81548160ff021916908360028111156106cb576106ca6126ee565b5b021790555060208201518160010155905050565b60045f8373ffffffffffffffffffffffffffffffffffffffff1673ffffffffffffffffffffffffffffffffffffffff1681526020019081526020015f20818154811061072e5761072d612c5b565b5b905f5260205f2090600502016004015460035f3373ffffffffffffffffffffffffffffffffffffffff1673ffffffffffffffffffffffffffffffffffffffff1681526020019081526020015f20828154811061078d5761078c612c5b565b5b905f5260205f20906005020160040154116107a6575f80fd5b5f670de0b6b3a764000060045f8573ffffffffffffffffffffffffffffffffffffffff1673ffffffffffffffffffffffffffffffffffffffff1681526020019081526020015f2083815481106107ff576107fe612c5b565b5b905f5260205f2090600502016002015460035f3373ffffffffffffffffffffffffffffffffffffffff1673ffffffffffffffffffffffffffffffffffffffff1681526020019081526020015f20848154811061085e5761085d612c5b565b5b905f5260205f209060050201600101546108789190612cb5565b6108829190612cb5565b905060035f3373ffffffffffffffffffffffffffffffffffffffff1673ffffffffffffffffffffffffffffffffffffffff1681526020019081526020015f2082815481106108d3576108d2612c5b565b5b905f5260205f2090600502016001015460045f8573ffffffffffffffffffffffffffffffffffffffff1673ffffffffffffffffffffffffffffffffffffffff1681526020019081526020015f20838154811061093257610931612c5b565b5b905f5260205f2090600502016001015f82825461094f9190612cf6565b9250508190555060035f3373ffffffffffffffffffffffffffffffffffffffff1673ffffffffffffffffffffffffffffffffffffffff1681526020019081526020015f2082815481106109a5576109a4612c5b565b5b905f5260205f2090600502015f8082015f6101000a81549073ffffffffffffffffffffffffffffffffffffffff0219169055600182015f9055600282015f9055600382015f6109f4919061248f565b600482015f905550508060025f8573ffffffffffffffffffffffffffffffffffffffff1673ffffffffffffffffffffffffffffffffffffffff1681526020019081526020015f206001015f828254610a4c9190612d29565b925050819055503373ffffffffffffffffffffffffffffffffffffffff166108fc8290811502906040515f60405180830381858888f19350505050158015610a96573d5f803e3d5ffd5b50505050565b6004602052815f5260405f208181548110610ab5575f80fd5b905f5260205f2090600502015f9150915050805f015f9054906101000a900473ffffffffffffffffffffffffffffffffffffffff1690806001015490806002015490806003018054610b0690612c2b565b80601f0160208091040260200160405190810160405280929190818152602001828054610b3290612c2b565b8015610b7d5780601f10610b5457610100808354040283529160200191610b7d565b820191905f5260205f20905b815481529060010190602001808311610b6057829003601f168201915b5050505050908060040154905085565b5f8181548110610b9b575f80fd5b905f5260205f20015f91509050805f015f9054906101000a900473ffffffffffffffffffffffffffffffffffffffff1690805f0160149054906101000a900460ff16905082565b5f60405180604001604052803373ffffffffffffffffffffffffffffffffffffffff168152602001836002811115610c1d57610c1c6126ee565b5b815250908060018154018082558091505060019003905f5260205f20015f909190919091505f820151815f015f6101000a81548173ffffffffffffffffffffffffffffffffffffffff021916908373ffffffffffffffffffffffffffffffffffffffff1602179055506020820151815f0160146101000a81548160ff02191690836002811115610cb057610caf6126ee565b5b0217905550505050565b604051806040016040528060016002811115610cd957610cd86126ee565b5b81526020015f81525060025f3373ffffffffffffffffffffffffffffffffffffffff1673ffffffffffffffffffffffffffffffffffffffff1681526020019081526020015f205f820151815f015f6101000a81548160ff02191690836002811115610d4757610d466126ee565b5b021790555060208201518160010155905050565b60015f9054906101000a900473ffffffffffffffffffffffffffffffffffffffff1673ffffffffffffffffffffffffffffffffffffffff163373ffffffffffffffffffffffffffffffffffffffff1614610db3575f80fd5b5f808281548110610dc757610dc6612c5b565b5b905f5260205f20015f015f9054906101000a900473ffffffffffffffffffffffffffffffffffffffff1690505f808381548110610e0757610e06612c5b565b5b905f5260205f20015f0160149054906101000a900460ff1690508060025f8473ffffffffffffffffffffffffffffffffffffffff1673ffffffffffffffffffffffffffffffffffffffff1681526020019081526020015f205f015f6101000a81548160ff02191690836002811115610e8257610e816126ee565b5b0217905550505050565b5f808080610e9990612d5c565b91505082423383604051602001610eb293929190612e08565b604051602081830303815290604052805190602001205f1c610ed49190612e71565b915050919050565b600281816002811115610ef257610ef16126ee565b5b60025f3373ffffffffffffffffffffffffffffffffffffffff1673ffffffffffffffffffffffffffffffffffffffff1681526020019081526020015f205f015f9054906101000a900460ff166002811115610f5057610f4f6126ee565b5b14610f90576040517f08c379a0000000000000000000000000000000000000000000000000000000008152600401610f8790612f37565b60405180910390fd5b8073ffffffffffffffffffffffffffffffffffffffff163373ffffffffffffffffffffffffffffffffffffffff1614610ffe576040517f08c379a0000000000000000000000000000000000000000000000000000000008152600401610ff590612feb565b60405180910390fd5b5f6040518060a001604052808573ffffffffffffffffffffffffffffffffffffffff1681526020018a815260200160028a6110399190613009565b815260200188888080601f0160208091040260200160405190810160405280939291908181526020018383808284375f81840152601f19601f82011690508083019250505050505050815260200186815250905060055f8573ffffffffffffffffffffffffffffffffffffffff1673ffffffffffffffffffffffffffffffffffffffff1681526020019081526020015f2081908060018154018082558091505060019003905f5260205f2090600502015f909190919091505f820151815f015f6101000a81548173ffffffffffffffffffffffffffffffffffffffff021916908373ffffffffffffffffffffffffffffffffffffffff1602179055506020820151816001015560408201518160020155606082015181600301908161115e91906131d6565b50608082015181600401555050505050505050505050565b60015f9054906101000a900473ffffffffffffffffffffffffffffffffffffffff1681565b5f60028111156111ae576111ad6126ee565b5b60025f3373ffffffffffffffffffffffffffffffffffffffff1673ffffffffffffffffffffffffffffffffffffffff1681526020019081526020015f205f015f9054906101000a900460ff16600281111561120c5761120b6126ee565b5b036112b05760405180604001604052805f600281111561122f5761122e6126ee565b5b81526020015f81525060025f3373ffffffffffffffffffffffffffffffffffffffff1673ffffffffffffffffffffffffffffffffffffffff1681526020019081526020015f205f820151815f015f6101000a81548160ff0219169083600281111561129d5761129c6126ee565b5b0217905550602082015181600101559050505b5f83116112f2576040517f08c379a00000000000000000000000000000000000000000000000000000000081526004016112e990613315565b60405180910390fd5b60045f8573ffffffffffffffffffffffffffffffffffffffff1673ffffffffffffffffffffffffffffffffffffffff1681526020019081526020015f20805490508210611374576040517f08c379a000000000000000000000000000000000000000000000000000000000815260040161136b9061337d565b60405180910390fd5b60045f8573ffffffffffffffffffffffffffffffffffffffff1673ffffffffffffffffffffffffffffffffffffffff1681526020019081526020015f2082815481106113c3576113c2612c5b565b5b905f5260205f20906005020160010154831115611415576040517f08c379a000000000000000000000000000000000000000000000000000000000815260040161140c906133e5565b60405180910390fd5b5f670de0b6b3a764000060045f8773ffffffffffffffffffffffffffffffffffffffff1673ffffffffffffffffffffffffffffffffffffffff1681526020019081526020015f20848154811061146e5761146d612c5b565b5b905f5260205f20906005020160020154856114899190612cb5565b6114939190612cb5565b90503373ffffffffffffffffffffffffffffffffffffffff166006836040516114bc919061343d565b90815260200160405180910390205f9054906101000a900473ffffffffffffffffffffffffffffffffffffffff1673ffffffffffffffffffffffffffffffffffffffff160361157d576064605a826115149190612cb5565b61151e9190613009565b90505f600683604051611531919061343d565b90815260200160405180910390205f6101000a81548173ffffffffffffffffffffffffffffffffffffffff021916908373ffffffffffffffffffffffffffffffffffffffff1602179055505b803410156115c0576040517f08c379a00000000000000000000000000000000000000000000000000000000081526004016115b79061349d565b60405180910390fd5b5f805b60035f3373ffffffffffffffffffffffffffffffffffffffff1673ffffffffffffffffffffffffffffffffffffffff1681526020019081526020015f20805490508110156117865760035f8873ffffffffffffffffffffffffffffffffffffffff1673ffffffffffffffffffffffffffffffffffffffff1681526020019081526020015f20858154811061165a57611659612c5b565b5b905f5260205f2090600502016003016040516116769190613557565b604051809103902060035f3373ffffffffffffffffffffffffffffffffffffffff1673ffffffffffffffffffffffffffffffffffffffff1681526020019081526020015f2082815481106116cd576116cc612c5b565b5b905f5260205f2090600502016003016040516116e99190613557565b604051809103902003611773578560035f3373ffffffffffffffffffffffffffffffffffffffff1673ffffffffffffffffffffffffffffffffffffffff1681526020019081526020015f20828154811061174657611745612c5b565b5b905f5260205f2090600502016001015f8282546117639190612cf6565b9250508190555060019150611786565b808061177e90612d5c565b9150506115c3565b50806119f8575f6040518060a001604052803373ffffffffffffffffffffffffffffffffffffffff16815260200187815260200160045f8a73ffffffffffffffffffffffffffffffffffffffff1673ffffffffffffffffffffffffffffffffffffffff1681526020019081526020015f20878154811061180957611808612c5b565b5b905f5260205f20906005020160020154815260200160045f8a73ffffffffffffffffffffffffffffffffffffffff1673ffffffffffffffffffffffffffffffffffffffff1681526020019081526020015f20878154811061186d5761186c612c5b565b5b905f5260205f209060050201600301805461188790612c2b565b80601f01602080910402602001604051908101604052809291908181526020018280546118b390612c2b565b80156118fe5780601f106118d5576101008083540402835291602001916118fe565b820191905f5260205f20905b8154815290600101906020018083116118e157829003601f168201915b505050505081526020016119136103e8610e8c565b815250905060035f3373ffffffffffffffffffffffffffffffffffffffff1673ffffffffffffffffffffffffffffffffffffffff1681526020019081526020015f2081908060018154018082558091505060019003905f5260205f2090600502015f909190919091505f820151815f015f6101000a81548173ffffffffffffffffffffffffffffffffffffffff021916908373ffffffffffffffffffffffffffffffffffffffff160217905550602082015181600101556040820151816002015560608201518160030190816119e991906131d6565b50608082015181600401555050505b8460045f8873ffffffffffffffffffffffffffffffffffffffff1673ffffffffffffffffffffffffffffffffffffffff1681526020019081526020015f208581548110611a4857611a47612c5b565b5b905f5260205f2090600502016001015f828254611a659190612d29565b925050819055508160025f8873ffffffffffffffffffffffffffffffffffffffff1673ffffffffffffffffffffffffffffffffffffffff1681526020019081526020015f206001018190555081341115611b09573373ffffffffffffffffffffffffffffffffffffffff166108fc8334611adf9190612d29565b90811502906040515f60405180830381858888f19350505050158015611b07573d5f803e3d5ffd5b505b505050505050565b8073ffffffffffffffffffffffffffffffffffffffff163373ffffffffffffffffffffffffffffffffffffffff1603611b48575f80fd5b80600683604051611b59919061343d565b90815260200160405180910390205f6101000a81548173ffffffffffffffffffffffffffffffffffffffff021916908373ffffffffffffffffffffffffffffffffffffffff1602179055505050565b6002602052805f5260405f205f91509050805f015f9054906101000a900460ff16908060010154905082565b60405180604001604052805f6002811115611bf257611bf16126ee565b5b81526020015f81525060025f3373ffffffffffffffffffffffffffffffffffffffff1673ffffffffffffffffffffffffffffffffffffffff1681526020019081526020015f205f820151815f015f6101000a81548160ff02191690836002811115611c6057611c5f6126ee565b5b021790555060208201518160010155905050565b6006818051602081018201805184825260208301602085012081835280955050505050505f915054906101000a900473ffffffffffffffffffffffffffffffffffffffff1681565b8073ffffffffffffffffffffffffffffffffffffffff166108fc60025f8473ffffffffffffffffffffffffffffffffffffffff1673ffffffffffffffffffffffffffffffffffffffff1681526020019081526020015f206001015490811502906040515f60405180830381858888f19350505050158015611d3f573d5f803e3d5ffd5b5050565b600184816002811115611d5957611d586126ee565b5b60025f3373ffffffffffffffffffffffffffffffffffffffff1673ffffffffffffffffffffffffffffffffffffffff1681526020019081526020015f205f015f9054906101000a900460ff166002811115611db757611db66126ee565b5b14611df7576040517f08c379a0000000000000000000000000000000000000000000000000000000008152600401611dee90612f37565b60405180910390fd5b8073ffffffffffffffffffffffffffffffffffffffff163373ffffffffffffffffffffffffffffffffffffffff1614611e65576040517f08c379a0000000000000000000000000000000000000000000000000000000008152600401611e5c90612feb565b60405180910390fd5b5f8411611ea7576040517f08c379a0000000000000000000000000000000000000000000000000000000008152600401611e9e90613315565b60405180910390fd5b60055f8473ffffffffffffffffffffffffffffffffffffffff1673ffffffffffffffffffffffffffffffffffffffff1681526020019081526020015f20805490508510611f29576040517f08c379a0000000000000000000000000000000000000000000000000000000008152600401611f209061337d565b60405180910390fd5b5f60055f8573ffffffffffffffffffffffffffffffffffffffff1673ffffffffffffffffffffffffffffffffffffffff1681526020019081526020015f208681548110611f7957611f78612c5b565b5b905f5260205f2090600502016002015490505f670de0b6b3a76400008683611fa19190612cb5565b611fab9190612cb5565b905080341015611ff0576040517f08c379a0000000000000000000000000000000000000000000000000000000008152600401611fe79061349d565b60405180910390fd5b5f60055f8773ffffffffffffffffffffffffffffffffffffffff1673ffffffffffffffffffffffffffffffffffffffff1681526020019081526020015f2088815481106120405761203f612c5b565b5b905f5260205f209060050201600301805461205a90612c2b565b80601f016020809104026020016040519081016040528092919081815260200182805461208690612c2b565b80156120d15780601f106120a8576101008083540402835291602001916120d1565b820191905f5260205f20905b8154815290600101906020018083116120b457829003601f168201915b505050505090505f805b60045f8c73ffffffffffffffffffffffffffffffffffffffff1673ffffffffffffffffffffffffffffffffffffffff1681526020019081526020015f20805490508110156122335760045f8c73ffffffffffffffffffffffffffffffffffffffff1673ffffffffffffffffffffffffffffffffffffffff1681526020019081526020015f20818154811061217257612171612c5b565b5b905f5260205f20906005020160030160405161218e9190613557565b6040518091039020838051906020012003612220578860045f8d73ffffffffffffffffffffffffffffffffffffffff1673ffffffffffffffffffffffffffffffffffffffff1681526020019081526020015f2082815481106121f3576121f2612c5b565b5b905f5260205f2090600502016001015f8282546122109190612cf6565b9250508190555060019150612233565b808061222b90612d5c565b9150506120db565b50806123b7575f6040518060a001604052808973ffffffffffffffffffffffffffffffffffffffff1681526020018a815260200186815260200184815260200160055f8b73ffffffffffffffffffffffffffffffffffffffff1673ffffffffffffffffffffffffffffffffffffffff1681526020019081526020015f208c815481106122c2576122c1612c5b565b5b905f5260205f20906005020160040154815250905060045f8c73ffffffffffffffffffffffffffffffffffffffff1673ffffffffffffffffffffffffffffffffffffffff1681526020019081526020015f2081908060018154018082558091505060019003905f5260205f2090600502015f909190919091505f820151815f015f6101000a81548173ffffffffffffffffffffffffffffffffffffffff021916908373ffffffffffffffffffffffffffffffffffffffff160217905550602082015181600101556040820151816002015560608201518160030190816123a891906131d6565b50608082015181600401555050505b8760055f8973ffffffffffffffffffffffffffffffffffffffff1673ffffffffffffffffffffffffffffffffffffffff1681526020019081526020015f208a8154811061240757612406612c5b565b5b905f5260205f2090600502016001015f8282546124249190612d29565b9250508190555082341115612483573373ffffffffffffffffffffffffffffffffffffffff166108fc84346124599190612d29565b90811502906040515f60405180830381858888f19350505050158015612481573d5f803e3d5ffd5b505b50505050505050505050565b50805461249b90612c2b565b5f825580601f106124ac57506124c9565b601f0160209004905f5260205f20908101906124c891906124cc565b5b50565b5b808211156124e3575f815f9055506001016124cd565b5090565b5f604051905090565b5f80fd5b5f80fd5b5f73ffffffffffffffffffffffffffffffffffffffff82169050919050565b5f612521826124f8565b9050919050565b61253181612517565b811461253b575f80fd5b50565b5f8135905061254c81612528565b92915050565b5f819050919050565b61256481612552565b811461256e575f80fd5b50565b5f8135905061257f8161255b565b92915050565b5f806040838503121561259b5761259a6124f0565b5b5f6125a88582860161253e565b92505060206125b985828601612571565b9150509250929050565b6125cc81612517565b82525050565b6125db81612552565b82525050565b5f81519050919050565b5f82825260208201905092915050565b5f5b838110156126185780820151818401526020810190506125fd565b5f8484015250505050565b5f601f19601f8301169050919050565b5f61263d826125e1565b61264781856125eb565b93506126578185602086016125fb565b61266081612623565b840191505092915050565b5f60a08201905061267e5f8301886125c3565b61268b60208301876125d2565b61269860408301866125d2565b81810360608301526126aa8185612633565b90506126b960808301846125d2565b9695505050505050565b5f602082840312156126d8576126d76124f0565b5b5f6126e584828501612571565b91505092915050565b7f4e487b71000000000000000000000000000000000000000000000000000000005f52602160045260245ffd5b6003811061272c5761272b6126ee565b5b50565b5f81905061273c8261271b565b919050565b5f61274b8261272f565b9050919050565b61275b81612741565b82525050565b5f6040820190506127745f8301856125c3565b6127816020830184612752565b9392505050565b60038110612794575f80fd5b50565b5f813590506127a581612788565b92915050565b5f602082840312156127c0576127bf6124f0565b5b5f6127cd84828501612797565b91505092915050565b5f6020820190506127e95f8301846125d2565b92915050565b5f80fd5b5f80fd5b5f80fd5b5f8083601f8401126128105761280f6127ef565b5b8235905067ffffffffffffffff81111561282d5761282c6127f3565b5b602083019150836001820283011115612849576128486127f7565b5b9250929050565b5f805f805f8060a0878903121561286a576128696124f0565b5b5f61287789828a01612571565b965050602061288889828a01612571565b955050604087013567ffffffffffffffff8111156128a9576128a86124f4565b5b6128b589828a016127fb565b945094505060606128c889828a01612571565b92505060806128d989828a0161253e565b9150509295509295509295565b5f6020820190506128f95f8301846125c3565b92915050565b5f80fd5b7f4e487b71000000000000000000000000000000000000000000000000000000005f52604160045260245ffd5b61293982612623565b810181811067ffffffffffffffff8211171561295857612957612903565b5b80604052505050565b5f61296a6124e7565b90506129768282612930565b919050565b5f67ffffffffffffffff82111561299557612994612903565b5b61299e82612623565b9050602081019050919050565b828183375f83830152505050565b5f6129cb6129c68461297b565b612961565b9050828152602081018484840111156129e7576129e66128ff565b5b6129f28482856129ab565b509392505050565b5f82601f830112612a0e57612a0d6127ef565b5b8135612a1e8482602086016129b9565b91505092915050565b5f805f8060808587031215612a3f57612a3e6124f0565b5b5f612a4c8782880161253e565b9450506020612a5d87828801612571565b9350506040612a6e87828801612571565b925050606085013567ffffffffffffffff811115612a8f57612a8e6124f4565b5b612a9b878288016129fa565b91505092959194509250565b5f8060408385031215612abd57612abc6124f0565b5b5f83013567ffffffffffffffff811115612ada57612ad96124f4565b5b612ae6858286016129fa565b9250506020612af78582860161253e565b9150509250929050565b5f60208284031215612b1657612b156124f0565b5b5f612b238482850161253e565b91505092915050565b5f604082019050612b3f5f830185612752565b612b4c60208301846125d2565b9392505050565b5f60208284031215612b6857612b676124f0565b5b5f82013567ffffffffffffffff811115612b8557612b846124f4565b5b612b91848285016129fa565b91505092915050565b5f805f8060808587031215612bb257612bb16124f0565b5b5f612bbf8782880161253e565b9450506020612bd087828801612571565b9350506040612be187828801612571565b9250506060612bf28782880161253e565b91505092959194509250565b7f4e487b71000000000000000000000000000000000000000000000000000000005f52602260045260245ffd5b5f6002820490506001821680612c4257607f821691505b602082108103612c5557612c54612bfe565b5b50919050565b7f4e487b71000000000000000000000000000000000000000000000000000000005f52603260045260245ffd5b7f4e487b71000000000000000000000000000000000000000000000000000000005f52601160045260245ffd5b5f612cbf82612552565b9150612cca83612552565b9250828202612cd881612552565b91508282048414831517612cef57612cee612c88565b5b5092915050565b5f612d0082612552565b9150612d0b83612552565b9250828201905080821115612d2357612d22612c88565b5b92915050565b5f612d3382612552565b9150612d3e83612552565b9250828203905081811115612d5657612d55612c88565b5b92915050565b5f612d6682612552565b91507fffffffffffffffffffffffffffffffffffffffffffffffffffffffffffffffff8203612d9857612d97612c88565b5b600182019050919050565b5f819050919050565b612dbd612db882612552565b612da3565b82525050565b5f8160601b9050919050565b5f612dd982612dc3565b9050919050565b5f612dea82612dcf565b9050919050565b612e02612dfd82612517565b612de0565b82525050565b5f612e138286612dac565b602082019150612e238285612df1565b601482019150612e338284612dac565b602082019150819050949350505050565b7f4e487b71000000000000000000000000000000000000000000000000000000005f52601260045260245ffd5b5f612e7b82612552565b9150612e8683612552565b925082612e9657612e95612e44565b5b828206905092915050565b7fd092d0b0d188d0b020d180d0bed0bbd18c20d0bdd0b520d0bfd0bed0b7d0b2d05f8201527fbed0bbd18fd0b5d18220d18dd182d0be20d0b8d0b7d0bcd0b5d0bdd18fd182d160208201527f8c00000000000000000000000000000000000000000000000000000000000000604082015250565b5f612f216041836125eb565b9150612f2c82612ea1565b606082019050919050565b5f6020820190508181035f830152612f4e81612f15565b9050919050565b7fd09cd0b0d0b3d0b0d0b7d0b8d0bd20d0bdd0b520d181d0bed0bed182d0b2d0b55f8201527fd182d181d0b2d183d0b5d18220d0bed182d0bfd180d0b0d0b2d0b8d182d0b5d060208201527fbbd18e0000000000000000000000000000000000000000000000000000000000604082015250565b5f612fd56043836125eb565b9150612fe082612f55565b606082019050919050565b5f6020820190508181035f83015261300281612fc9565b9050919050565b5f61301382612552565b915061301e83612552565b92508261302e5761302d612e44565b5b828204905092915050565b5f819050815f5260205f209050919050565b5f6020601f8301049050919050565b5f82821b905092915050565b5f600883026130957fffffffffffffffffffffffffffffffffffffffffffffffffffffffffffffffff8261305a565b61309f868361305a565b95508019841693508086168417925050509392505050565b5f819050919050565b5f6130da6130d56130d084612552565b6130b7565b612552565b9050919050565b5f819050919050565b6130f3836130c0565b6131076130ff826130e1565b848454613066565b825550505050565b5f90565b61311b61310f565b6131268184846130ea565b505050565b5b818110156131495761313e5f82613113565b60018101905061312c565b5050565b601f82111561318e5761315f81613039565b6131688461304b565b81016020851015613177578190505b61318b6131838561304b565b83018261312b565b50505b505050565b5f82821c905092915050565b5f6131ae5f1984600802613193565b1980831691505092915050565b5f6131c6838361319f565b9150826002028217905092915050565b6131df826125e1565b67ffffffffffffffff8111156131f8576131f7612903565b5b6132028254612c2b565b61320d82828561314d565b5f60209050601f83116001811461323e575f841561322c578287015190505b61323685826131bb565b86555061329d565b601f19841661324c86613039565b5f5b828110156132735784890151825560018201915060208501945060208101905061324e565b86831015613290578489015161328c601f89168261319f565b8355505b6001600288020188555050505b505050505050565b7f507572636861736520616d6f756e74206d7573742062652067726561746572205f8201527f7468616e20300000000000000000000000000000000000000000000000000000602082015250565b5f6132ff6026836125eb565b915061330a826132a5565b604082019050919050565b5f6020820190508181035f83015261332c816132f3565b9050919050565b7f496e76616c69642070726f6475637420494400000000000000000000000000005f82015250565b5f6133676012836125eb565b915061337282613333565b602082019050919050565b5f6020820190508181035f8301526133948161335b565b9050919050565b7f4e6f7420656e6f7567682073746f636b20617661696c61626c650000000000005f82015250565b5f6133cf601a836125eb565b91506133da8261339b565b602082019050919050565b5f6020820190508181035f8301526133fc816133c3565b9050919050565b5f81905092915050565b5f613417826125e1565b6134218185613403565b93506134318185602086016125fb565b80840191505092915050565b5f613448828461340d565b915081905092915050565b7f496e73756666696369656e742066756e64732073656e740000000000000000005f82015250565b5f6134876017836125eb565b915061349282613453565b602082019050919050565b5f6020820190508181035f8301526134b48161347b565b9050919050565b5f81905092915050565b5f819050815f5260205f209050919050565b5f81546134e381612c2b565b6134ed81866134bb565b9450600182165f8114613507576001811461351c5761354e565b60ff198316865281151582028601935061354e565b613525856134c5565b5f5b8381101561354657815481890152600182019150602081019050613527565b838801955050505b50505092915050565b5f61356282846134d7565b91508190509291505056fea2646970667358221220ff6fa0f492dac51be21ba502f019f5284d2e00ffcc6c69260f40ac8198454cbb64736f6c63430008150033",
					"opcodes": "PUSH1 0x80 PUSH1 0x40 MSTORE CALLVALUE DUP1 ISZERO PUSH2 0xF JUMPI PUSH0 DUP1 REVERT JUMPDEST POP CALLER PUSH1 0x1 PUSH0 PUSH2 0x100 EXP DUP2 SLOAD DUP2 PUSH20 0xFFFFFFFFFFFFFFFFFFFFFFFFFFFFFFFFFFFFFFFF MUL NOT AND SWAP1 DUP4 PUSH20 0xFFFFFFFFFFFFFFFFFFFFFFFFFFFFFFFFFFFFFFFF AND MUL OR SWAP1 SSTORE POP PUSH2 0x35A3 DUP1 PUSH2 0x5D PUSH0 CODECOPY PUSH0 RETURN INVALID PUSH1 0x80 PUSH1 0x40 MSTORE PUSH1 0x4 CALLDATASIZE LT PUSH2 0x113 JUMPI PUSH0 CALLDATALOAD PUSH1 0xE0 SHR DUP1 PUSH4 0x805553E8 GT PUSH2 0x9F JUMPI DUP1 PUSH4 0xA87430BA GT PUSH2 0x63 JUMPI DUP1 PUSH4 0xA87430BA EQ PUSH2 0x38A JUMPI DUP1 PUSH4 0xD18A524A EQ PUSH2 0x3C7 JUMPI DUP1 PUSH4 0xD55768DD EQ PUSH2 0x3DD JUMPI DUP1 PUSH4 0xF67A2AD1 EQ PUSH2 0x419 JUMPI DUP1 PUSH4 0xFECD8F79 EQ PUSH2 0x441 JUMPI PUSH2 0x113 JUMP JUMPDEST DUP1 PUSH4 0x805553E8 EQ PUSH2 0x2B8 JUMPI DUP1 PUSH4 0x861C2B6D EQ PUSH2 0x2F4 JUMPI DUP1 PUSH4 0x8DA5CB5B EQ PUSH2 0x31C JUMPI DUP1 PUSH4 0x9F1CD587 EQ PUSH2 0x346 JUMPI DUP1 PUSH4 0xA1BA90B6 EQ PUSH2 0x362 JUMPI PUSH2 0x113 JUMP JUMPDEST DUP1 PUSH4 0x4F424547 GT PUSH2 0xE6 JUMPI DUP1 PUSH4 0x4F424547 EQ PUSH2 0x1D5 JUMPI DUP1 PUSH4 0x50B44712 EQ PUSH2 0x215 JUMPI DUP1 PUSH4 0x55DEA0B3 EQ PUSH2 0x252 JUMPI DUP1 PUSH4 0x66D0DC67 EQ PUSH2 0x27A JUMPI DUP1 PUSH4 0x6F764708 EQ PUSH2 0x290 JUMPI PUSH2 0x113 JUMP JUMPDEST DUP1 PUSH4 0x27B90B1B EQ PUSH2 0x117 JUMPI DUP1 PUSH4 0x3D527883 EQ PUSH2 0x157 JUMPI DUP1 PUSH4 0x3DFE7DEE EQ PUSH2 0x197 JUMPI DUP1 PUSH4 0x410085DF EQ PUSH2 0x1AD JUMPI JUMPDEST PUSH0 DUP1 REVERT JUMPDEST CALLVALUE DUP1 ISZERO PUSH2 0x122 JUMPI PUSH0 DUP1 REVERT JUMPDEST POP PUSH2 0x13D PUSH1 0x4 DUP1 CALLDATASIZE SUB DUP2 ADD SWAP1 PUSH2 0x138 SWAP2 SWAP1 PUSH2 0x2585 JUMP JUMPDEST PUSH2 0x45D JUMP JUMPDEST PUSH1 0x40 MLOAD PUSH2 0x14E SWAP6 SWAP5 SWAP4 SWAP3 SWAP2 SWAP1 PUSH2 0x266B JUMP JUMPDEST PUSH1 0x40 MLOAD DUP1 SWAP2 SUB SWAP1 RETURN JUMPDEST CALLVALUE DUP1 ISZERO PUSH2 0x162 JUMPI PUSH0 DUP1 REVERT JUMPDEST POP PUSH2 0x17D PUSH1 0x4 DUP1 CALLDATASIZE SUB DUP2 ADD SWAP1 PUSH2 0x178 SWAP2 SWAP1 PUSH2 0x2585 JUMP JUMPDEST PUSH2 0x54E JUMP JUMPDEST PUSH1 0x40 MLOAD PUSH2 0x18E SWAP6 SWAP5 SWAP4 SWAP3 SWAP2 SWAP1 PUSH2 0x266B JUMP JUMPDEST PUSH1 0x40 MLOAD DUP1 SWAP2 SUB SWAP1 RETURN JUMPDEST CALLVALUE DUP1 ISZERO PUSH2 0x1A2 JUMPI PUSH0 DUP1 REVERT JUMPDEST POP PUSH2 0x1AB PUSH2 0x63F JUMP JUMPDEST STOP JUMPDEST CALLVALUE DUP1 ISZERO PUSH2 0x1B8 JUMPI PUSH0 DUP1 REVERT JUMPDEST POP PUSH2 0x1D3 PUSH1 0x4 DUP1 CALLDATASIZE SUB DUP2 ADD SWAP1 PUSH2 0x1CE SWAP2 SWAP1 PUSH2 0x2585 JUMP JUMPDEST PUSH2 0x6DF JUMP JUMPDEST STOP JUMPDEST CALLVALUE DUP1 ISZERO PUSH2 0x1E0 JUMPI PUSH0 DUP1 REVERT JUMPDEST POP PUSH2 0x1FB PUSH1 0x4 DUP1 CALLDATASIZE SUB DUP2 ADD SWAP1 PUSH2 0x1F6 SWAP2 SWAP1 PUSH2 0x2585 JUMP JUMPDEST PUSH2 0xA9C JUMP JUMPDEST PUSH1 0x40 MLOAD PUSH2 0x20C SWAP6 SWAP5 SWAP4 SWAP3 SWAP2 SWAP1 PUSH2 0x266B JUMP JUMPDEST PUSH1 0x40 MLOAD DUP1 SWAP2 SUB SWAP1 RETURN JUMPDEST CALLVALUE DUP1 ISZERO PUSH2 0x220 JUMPI PUSH0 DUP1 REVERT JUMPDEST POP PUSH2 0x23B PUSH1 0x4 DUP1 CALLDATASIZE SUB DUP2 ADD SWAP1 PUSH2 0x236 SWAP2 SWAP1 PUSH2 0x26C3 JUMP JUMPDEST PUSH2 0xB8D JUMP JUMPDEST PUSH1 0x40 MLOAD PUSH2 0x249 SWAP3 SWAP2 SWAP1 PUSH2 0x2761 JUMP JUMPDEST PUSH1 0x40 MLOAD DUP1 SWAP2 SUB SWAP1 RETURN JUMPDEST CALLVALUE DUP1 ISZERO PUSH2 0x25D JUMPI PUSH0 DUP1 REVERT JUMPDEST POP PUSH2 0x278 PUSH1 0x4 DUP1 CALLDATASIZE SUB DUP2 ADD SWAP1 PUSH2 0x273 SWAP2 SWAP1 PUSH2 0x27AB JUMP JUMPDEST PUSH2 0xBE2 JUMP JUMPDEST STOP JUMPDEST CALLVALUE DUP1 ISZERO PUSH2 0x285 JUMPI PUSH0 DUP1 REVERT JUMPDEST POP PUSH2 0x28E PUSH2 0xCBA JUMP JUMPDEST STOP JUMPDEST CALLVALUE DUP1 ISZERO PUSH2 0x29B JUMPI PUSH0 DUP1 REVERT JUMPDEST POP PUSH2 0x2B6 PUSH1 0x4 DUP1 CALLDATASIZE SUB DUP2 ADD SWAP1 PUSH2 0x2B1 SWAP2 SWAP1 PUSH2 0x26C3 JUMP JUMPDEST PUSH2 0xD5B JUMP JUMPDEST STOP JUMPDEST CALLVALUE DUP1 ISZERO PUSH2 0x2C3 JUMPI PUSH0 DUP1 REVERT JUMPDEST POP PUSH2 0x2DE PUSH1 0x4 DUP1 CALLDATASIZE SUB DUP2 ADD SWAP1 PUSH2 0x2D9 SWAP2 SWAP1 PUSH2 0x26C3 JUMP JUMPDEST PUSH2 0xE8C JUMP JUMPDEST PUSH1 0x40 MLOAD PUSH2 0x2EB SWAP2 SWAP1 PUSH2 0x27D6 JUMP JUMPDEST PUSH1 0x40 MLOAD DUP1 SWAP2 SUB SWAP1 RETURN JUMPDEST CALLVALUE DUP1 ISZERO PUSH2 0x2FF JUMPI PUSH0 DUP1 REVERT JUMPDEST POP PUSH2 0x31A PUSH1 0x4 DUP1 CALLDATASIZE SUB DUP2 ADD SWAP1 PUSH2 0x315 SWAP2 SWAP1 PUSH2 0x2850 JUMP JUMPDEST PUSH2 0xEDC JUMP JUMPDEST STOP JUMPDEST CALLVALUE DUP1 ISZERO PUSH2 0x327 JUMPI PUSH0 DUP1 REVERT JUMPDEST POP PUSH2 0x330 PUSH2 0x1176 JUMP JUMPDEST PUSH1 0x40 MLOAD PUSH2 0x33D SWAP2 SWAP1 PUSH2 0x28E6 JUMP JUMPDEST PUSH1 0x40 MLOAD DUP1 SWAP2 SUB SWAP1 RETURN JUMPDEST PUSH2 0x360 PUSH1 0x4 DUP1 CALLDATASIZE SUB DUP2 ADD SWAP1 PUSH2 0x35B SWAP2 SWAP1 PUSH2 0x2A27 JUMP JUMPDEST PUSH2 0x119B JUMP JUMPDEST STOP JUMPDEST CALLVALUE DUP1 ISZERO PUSH2 0x36D JUMPI PUSH0 DUP1 REVERT JUMPDEST POP PUSH2 0x388 PUSH1 0x4 DUP1 CALLDATASIZE SUB DUP2 ADD SWAP1 PUSH2 0x383 SWAP2 SWAP1 PUSH2 0x2AA7 JUMP JUMPDEST PUSH2 0x1B11 JUMP JUMPDEST STOP JUMPDEST CALLVALUE DUP1 ISZERO PUSH2 0x395 JUMPI PUSH0 DUP1 REVERT JUMPDEST POP PUSH2 0x3B0 PUSH1 0x4 DUP1 CALLDATASIZE SUB DUP2 ADD SWAP1 PUSH2 0x3AB SWAP2 SWAP1 PUSH2 0x2B01 JUMP JUMPDEST PUSH2 0x1BA8 JUMP JUMPDEST PUSH1 0x40 MLOAD PUSH2 0x3BE SWAP3 SWAP2 SWAP1 PUSH2 0x2B2C JUMP JUMPDEST PUSH1 0x40 MLOAD DUP1 SWAP2 SUB SWAP1 RETURN JUMPDEST CALLVALUE DUP1 ISZERO PUSH2 0x3D2 JUMPI PUSH0 DUP1 REVERT JUMPDEST POP PUSH2 0x3DB PUSH2 0x1BD4 JUMP JUMPDEST STOP JUMPDEST CALLVALUE DUP1 ISZERO PUSH2 0x3E8 JUMPI PUSH0 DUP1 REVERT JUMPDEST POP PUSH2 0x403 PUSH1 0x4 DUP1 CALLDATASIZE SUB DUP2 ADD SWAP1 PUSH2 0x3FE SWAP2 SWAP1 PUSH2 0x2B53 JUMP JUMPDEST PUSH2 0x1C74 JUMP JUMPDEST PUSH1 0x40 MLOAD PUSH2 0x410 SWAP2 SWAP1 PUSH2 0x28E6 JUMP JUMPDEST PUSH1 0x40 MLOAD DUP1 SWAP2 SUB SWAP1 RETURN JUMPDEST CALLVALUE DUP1 ISZERO PUSH2 0x424 JUMPI PUSH0 DUP1 REVERT JUMPDEST POP PUSH2 0x43F PUSH1 0x4 DUP1 CALLDATASIZE SUB DUP2 ADD SWAP1 PUSH2 0x43A SWAP2 SWAP1 PUSH2 0x2B01 JUMP JUMPDEST PUSH2 0x1CBC JUMP JUMPDEST STOP JUMPDEST PUSH2 0x45B PUSH1 0x4 DUP1 CALLDATASIZE SUB DUP2 ADD SWAP1 PUSH2 0x456 SWAP2 SWAP1 PUSH2 0x2B9A JUMP JUMPDEST PUSH2 0x1D43 JUMP JUMPDEST STOP JUMPDEST PUSH1 0x5 PUSH1 0x20 MSTORE DUP2 PUSH0 MSTORE PUSH1 0x40 PUSH0 KECCAK256 DUP2 DUP2 SLOAD DUP2 LT PUSH2 0x476 JUMPI PUSH0 DUP1 REVERT JUMPDEST SWAP1 PUSH0 MSTORE PUSH1 0x20 PUSH0 KECCAK256 SWAP1 PUSH1 0x5 MUL ADD PUSH0 SWAP2 POP SWAP2 POP POP DUP1 PUSH0 ADD PUSH0 SWAP1 SLOAD SWAP1 PUSH2 0x100 EXP SWAP1 DIV PUSH20 0xFFFFFFFFFFFFFFFFFFFFFFFFFFFFFFFFFFFFFFFF AND SWAP1 DUP1 PUSH1 0x1 ADD SLOAD SWAP1 DUP1 PUSH1 0x2 ADD SLOAD SWAP1 DUP1 PUSH1 0x3 ADD DUP1 SLOAD PUSH2 0x4C7 SWAP1 PUSH2 0x2C2B JUMP JUMPDEST DUP1 PUSH1 0x1F ADD PUSH1 0x20 DUP1 SWAP2 DIV MUL PUSH1 0x20 ADD PUSH1 0x40 MLOAD SWAP1 DUP2 ADD PUSH1 0x40 MSTORE DUP1 SWAP3 SWAP2 SWAP1 DUP2 DUP2 MSTORE PUSH1 0x20 ADD DUP3 DUP1 SLOAD PUSH2 0x4F3 SWAP1 PUSH2 0x2C2B JUMP JUMPDEST DUP1 ISZERO PUSH2 0x53E JUMPI DUP1 PUSH1 0x1F LT PUSH2 0x515 JUMPI PUSH2 0x100 DUP1 DUP4 SLOAD DIV MUL DUP4 MSTORE SWAP2 PUSH1 0x20 ADD SWAP2 PUSH2 0x53E JUMP JUMPDEST DUP3 ADD SWAP2 SWAP1 PUSH0 MSTORE PUSH1 0x20 PUSH0 KECCAK256 SWAP1 JUMPDEST DUP2 SLOAD DUP2 MSTORE SWAP1 PUSH1 0x1 ADD SWAP1 PUSH1 0x20 ADD DUP1 DUP4 GT PUSH2 0x521 JUMPI DUP3 SWAP1 SUB PUSH1 0x1F AND DUP3 ADD SWAP2 JUMPDEST POP POP POP POP POP SWAP1 DUP1 PUSH1 0x4 ADD SLOAD SWAP1 POP DUP6 JUMP JUMPDEST PUSH1 0x3 PUSH1 0x20 MSTORE DUP2 PUSH0 MSTORE PUSH1 0x40 PUSH0 KECCAK256 DUP2 DUP2 SLOAD DUP2 LT PUSH2 0x567 JUMPI PUSH0 DUP1 REVERT JUMPDEST SWAP1 PUSH0 MSTORE PUSH1 0x20 PUSH0 KECCAK256 SWAP1 PUSH1 0x5 MUL ADD PUSH0 SWAP2 POP SWAP2 POP POP DUP1 PUSH0 ADD PUSH0 SWAP1 SLOAD SWAP1 PUSH2 0x100 EXP SWAP1 DIV PUSH20 0xFFFFFFFFFFFFFFFFFFFFFFFFFFFFFFFFFFFFFFFF AND SWAP1 DUP1 PUSH1 0x1 ADD SLOAD SWAP1 DUP1 PUSH1 0x2 ADD SLOAD SWAP1 DUP1 PUSH1 0x3 ADD DUP1 SLOAD PUSH2 0x5B8 SWAP1 PUSH2 0x2C2B JUMP JUMPDEST DUP1 PUSH1 0x1F ADD PUSH1 0x20 DUP1 SWAP2 DIV MUL PUSH1 0x20 ADD PUSH1 0x40 MLOAD SWAP1 DUP2 ADD PUSH1 0x40 MSTORE DUP1 SWAP3 SWAP2 SWAP1 DUP2 DUP2 MSTORE PUSH1 0x20 ADD DUP3 DUP1 SLOAD PUSH2 0x5E4 SWAP1 PUSH2 0x2C2B JUMP JUMPDEST DUP1 ISZERO PUSH2 0x62F JUMPI DUP1 PUSH1 0x1F LT PUSH2 0x606 JUMPI PUSH2 0x100 DUP1 DUP4 SLOAD DIV MUL DUP4 MSTORE SWAP2 PUSH1 0x20 ADD SWAP2 PUSH2 0x62F JUMP JUMPDEST DUP3 ADD SWAP2 SWAP1 PUSH0 MSTORE PUSH1 0x20 PUSH0 KECCAK256 SWAP1 JUMPDEST DUP2 SLOAD DUP2 MSTORE SWAP1 PUSH1 0x1 ADD SWAP1 PUSH1 0x20 ADD DUP1 DUP4 GT PUSH2 0x612 JUMPI DUP3 SWAP1 SUB PUSH1 0x1F AND DUP3 ADD SWAP2 JUMPDEST POP POP POP POP POP SWAP1 DUP1 PUSH1 0x4 ADD SLOAD SWAP1 POP DUP6 JUMP JUMPDEST PUSH1 0x40 MLOAD DUP1 PUSH1 0x40 ADD PUSH1 0x40 MSTORE DUP1 PUSH1 0x2 DUP1 DUP2 GT ISZERO PUSH2 0x65D JUMPI PUSH2 0x65C PUSH2 0x26EE JUMP JUMPDEST JUMPDEST DUP2 MSTORE PUSH1 0x20 ADD PUSH0 DUP2 MSTORE POP PUSH1 0x2 PUSH0 CALLER PUSH20 0xFFFFFFFFFFFFFFFFFFFFFFFFFFFFFFFFFFFFFFFF AND PUSH20 0xFFFFFFFFFFFFFFFFFFFFFFFFFFFFFFFFFFFFFFFF AND DUP2 MSTORE PUSH1 0x20 ADD SWAP1 DUP2 MSTORE PUSH1 0x20 ADD PUSH0 KECCAK256 PUSH0 DUP3 ADD MLOAD DUP2 PUSH0 ADD PUSH0 PUSH2 0x100 EXP DUP2 SLOAD DUP2 PUSH1 0xFF MUL NOT AND SWAP1 DUP4 PUSH1 0x2 DUP2 GT ISZERO PUSH2 0x6CB JUMPI PUSH2 0x6CA PUSH2 0x26EE JUMP JUMPDEST JUMPDEST MUL OR SWAP1 SSTORE POP PUSH1 0x20 DUP3 ADD MLOAD DUP2 PUSH1 0x1 ADD SSTORE SWAP1 POP POP JUMP JUMPDEST PUSH1 0x4 PUSH0 DUP4 PUSH20 0xFFFFFFFFFFFFFFFFFFFFFFFFFFFFFFFFFFFFFFFF AND PUSH20 0xFFFFFFFFFFFFFFFFFFFFFFFFFFFFFFFFFFFFFFFF AND DUP2 MSTORE PUSH1 0x20 ADD SWAP1 DUP2 MSTORE PUSH1 0x20 ADD PUSH0 KECCAK256 DUP2 DUP2 SLOAD DUP2 LT PUSH2 0x72E JUMPI PUSH2 0x72D PUSH2 0x2C5B JUMP JUMPDEST JUMPDEST SWAP1 PUSH0 MSTORE PUSH1 0x20 PUSH0 KECCAK256 SWAP1 PUSH1 0x5 MUL ADD PUSH1 0x4 ADD SLOAD PUSH1 0x3 PUSH0 CALLER PUSH20 0xFFFFFFFFFFFFFFFFFFFFFFFFFFFFFFFFFFFFFFFF AND PUSH20 0xFFFFFFFFFFFFFFFFFFFFFFFFFFFFFFFFFFFFFFFF AND DUP2 MSTORE PUSH1 0x20 ADD SWAP1 DUP2 MSTORE PUSH1 0x20 ADD PUSH0 KECCAK256 DUP3 DUP2 SLOAD DUP2 LT PUSH2 0x78D JUMPI PUSH2 0x78C PUSH2 0x2C5B JUMP JUMPDEST JUMPDEST SWAP1 PUSH0 MSTORE PUSH1 0x20 PUSH0 KECCAK256 SWAP1 PUSH1 0x5 MUL ADD PUSH1 0x4 ADD SLOAD GT PUSH2 0x7A6 JUMPI PUSH0 DUP1 REVERT JUMPDEST PUSH0 PUSH8 0xDE0B6B3A7640000 PUSH1 0x4 PUSH0 DUP6 PUSH20 0xFFFFFFFFFFFFFFFFFFFFFFFFFFFFFFFFFFFFFFFF AND PUSH20 0xFFFFFFFFFFFFFFFFFFFFFFFFFFFFFFFFFFFFFFFF AND DUP2 MSTORE PUSH1 0x20 ADD SWAP1 DUP2 MSTORE PUSH1 0x20 ADD PUSH0 KECCAK256 DUP4 DUP2 SLOAD DUP2 LT PUSH2 0x7FF JUMPI PUSH2 0x7FE PUSH2 0x2C5B JUMP JUMPDEST JUMPDEST SWAP1 PUSH0 MSTORE PUSH1 0x20 PUSH0 KECCAK256 SWAP1 PUSH1 0x5 MUL ADD PUSH1 0x2 ADD SLOAD PUSH1 0x3 PUSH0 CALLER PUSH20 0xFFFFFFFFFFFFFFFFFFFFFFFFFFFFFFFFFFFFFFFF AND PUSH20 0xFFFFFFFFFFFFFFFFFFFFFFFFFFFFFFFFFFFFFFFF AND DUP2 MSTORE PUSH1 0x20 ADD SWAP1 DUP2 MSTORE PUSH1 0x20 ADD PUSH0 KECCAK256 DUP5 DUP2 SLOAD DUP2 LT PUSH2 0x85E JUMPI PUSH2 0x85D PUSH2 0x2C5B JUMP JUMPDEST JUMPDEST SWAP1 PUSH0 MSTORE PUSH1 0x20 PUSH0 KECCAK256 SWAP1 PUSH1 0x5 MUL ADD PUSH1 0x1 ADD SLOAD PUSH2 0x878 SWAP2 SWAP1 PUSH2 0x2CB5 JUMP JUMPDEST PUSH2 0x882 SWAP2 SWAP1 PUSH2 0x2CB5 JUMP JUMPDEST SWAP1 POP PUSH1 0x3 PUSH0 CALLER PUSH20 0xFFFFFFFFFFFFFFFFFFFFFFFFFFFFFFFFFFFFFFFF AND PUSH20 0xFFFFFFFFFFFFFFFFFFFFFFFFFFFFFFFFFFFFFFFF AND DUP2 MSTORE PUSH1 0x20 ADD SWAP1 DUP2 MSTORE PUSH1 0x20 ADD PUSH0 KECCAK256 DUP3 DUP2 SLOAD DUP2 LT PUSH2 0x8D3 JUMPI PUSH2 0x8D2 PUSH2 0x2C5B JUMP JUMPDEST JUMPDEST SWAP1 PUSH0 MSTORE PUSH1 0x20 PUSH0 KECCAK256 SWAP1 PUSH1 0x5 MUL ADD PUSH1 0x1 ADD SLOAD PUSH1 0x4 PUSH0 DUP6 PUSH20 0xFFFFFFFFFFFFFFFFFFFFFFFFFFFFFFFFFFFFFFFF AND PUSH20 0xFFFFFFFFFFFFFFFFFFFFFFFFFFFFFFFFFFFFFFFF AND DUP2 MSTORE PUSH1 0x20 ADD SWAP1 DUP2 MSTORE PUSH1 0x20 ADD PUSH0 KECCAK256 DUP4 DUP2 SLOAD DUP2 LT PUSH2 0x932 JUMPI PUSH2 0x931 PUSH2 0x2C5B JUMP JUMPDEST JUMPDEST SWAP1 PUSH0 MSTORE PUSH1 0x20 PUSH0 KECCAK256 SWAP1 PUSH1 0x5 MUL ADD PUSH1 0x1 ADD PUSH0 DUP3 DUP3 SLOAD PUSH2 0x94F SWAP2 SWAP1 PUSH2 0x2CF6 JUMP JUMPDEST SWAP3 POP POP DUP2 SWAP1 SSTORE POP PUSH1 0x3 PUSH0 CALLER PUSH20 0xFFFFFFFFFFFFFFFFFFFFFFFFFFFFFFFFFFFFFFFF AND PUSH20 0xFFFFFFFFFFFFFFFFFFFFFFFFFFFFFFFFFFFFFFFF AND DUP2 MSTORE PUSH1 0x20 ADD SWAP1 DUP2 MSTORE PUSH1 0x20 ADD PUSH0 KECCAK256 DUP3 DUP2 SLOAD DUP2 LT PUSH2 0x9A5 JUMPI PUSH2 0x9A4 PUSH2 0x2C5B JUMP JUMPDEST JUMPDEST SWAP1 PUSH0 MSTORE PUSH1 0x20 PUSH0 KECCAK256 SWAP1 PUSH1 0x5 MUL ADD PUSH0 DUP1 DUP3 ADD PUSH0 PUSH2 0x100 EXP DUP2 SLOAD SWAP1 PUSH20 0xFFFFFFFFFFFFFFFFFFFFFFFFFFFFFFFFFFFFFFFF MUL NOT AND SWAP1 SSTORE PUSH1 0x1 DUP3 ADD PUSH0 SWAP1 SSTORE PUSH1 0x2 DUP3 ADD PUSH0 SWAP1 SSTORE PUSH1 0x3 DUP3 ADD PUSH0 PUSH2 0x9F4 SWAP2 SWAP1 PUSH2 0x248F JUMP JUMPDEST PUSH1 0x4 DUP3 ADD PUSH0 SWAP1 SSTORE POP POP DUP1 PUSH1 0x2 PUSH0 DUP6 PUSH20 0xFFFFFFFFFFFFFFFFFFFFFFFFFFFFFFFFFFFFFFFF AND PUSH20 0xFFFFFFFFFFFFFFFFFFFFFFFFFFFFFFFFFFFFFFFF AND DUP2 MSTORE PUSH1 0x20 ADD SWAP1 DUP2 MSTORE PUSH1 0x20 ADD PUSH0 KECCAK256 PUSH1 0x1 ADD PUSH0 DUP3 DUP3 SLOAD PUSH2 0xA4C SWAP2 SWAP1 PUSH2 0x2D29 JUMP JUMPDEST SWAP3 POP POP DUP2 SWAP1 SSTORE POP CALLER PUSH20 0xFFFFFFFFFFFFFFFFFFFFFFFFFFFFFFFFFFFFFFFF AND PUSH2 0x8FC DUP3 SWAP1 DUP2 ISZERO MUL SWAP1 PUSH1 0x40 MLOAD PUSH0 PUSH1 0x40 MLOAD DUP1 DUP4 SUB DUP2 DUP6 DUP9 DUP9 CALL SWAP4 POP POP POP POP ISZERO DUP1 ISZERO PUSH2 0xA96 JUMPI RETURNDATASIZE PUSH0 DUP1 RETURNDATACOPY RETURNDATASIZE PUSH0 REVERT JUMPDEST POP POP POP POP JUMP JUMPDEST PUSH1 0x4 PUSH1 0x20 MSTORE DUP2 PUSH0 MSTORE PUSH1 0x40 PUSH0 KECCAK256 DUP2 DUP2 SLOAD DUP2 LT PUSH2 0xAB5 JUMPI PUSH0 DUP1 REVERT JUMPDEST SWAP1 PUSH0 MSTORE PUSH1 0x20 PUSH0 KECCAK256 SWAP1 PUSH1 0x5 MUL ADD PUSH0 SWAP2 POP SWAP2 POP POP DUP1 PUSH0 ADD PUSH0 SWAP1 SLOAD SWAP1 PUSH2 0x100 EXP SWAP1 DIV PUSH20 0xFFFFFFFFFFFFFFFFFFFFFFFFFFFFFFFFFFFFFFFF AND SWAP1 DUP1 PUSH1 0x1 ADD SLOAD SWAP1 DUP1 PUSH1 0x2 ADD SLOAD SWAP1 DUP1 PUSH1 0x3 ADD DUP1 SLOAD PUSH2 0xB06 SWAP1 PUSH2 0x2C2B JUMP JUMPDEST DUP1 PUSH1 0x1F ADD PUSH1 0x20 DUP1 SWAP2 DIV MUL PUSH1 0x20 ADD PUSH1 0x40 MLOAD SWAP1 DUP2 ADD PUSH1 0x40 MSTORE DUP1 SWAP3 SWAP2 SWAP1 DUP2 DUP2 MSTORE PUSH1 0x20 ADD DUP3 DUP1 SLOAD PUSH2 0xB32 SWAP1 PUSH2 0x2C2B JUMP JUMPDEST DUP1 ISZERO PUSH2 0xB7D JUMPI DUP1 PUSH1 0x1F LT PUSH2 0xB54 JUMPI PUSH2 0x100 DUP1 DUP4 SLOAD DIV MUL DUP4 MSTORE SWAP2 PUSH1 0x20 ADD SWAP2 PUSH2 0xB7D JUMP JUMPDEST DUP3 ADD SWAP2 SWAP1 PUSH0 MSTORE PUSH1 0x20 PUSH0 KECCAK256 SWAP1 JUMPDEST DUP2 SLOAD DUP2 MSTORE SWAP1 PUSH1 0x1 ADD SWAP1 PUSH1 0x20 ADD DUP1 DUP4 GT PUSH2 0xB60 JUMPI DUP3 SWAP1 SUB PUSH1 0x1F AND DUP3 ADD SWAP2 JUMPDEST POP POP POP POP POP SWAP1 DUP1 PUSH1 0x4 ADD SLOAD SWAP1 POP DUP6 JUMP JUMPDEST PUSH0 DUP2 DUP2 SLOAD DUP2 LT PUSH2 0xB9B JUMPI PUSH0 DUP1 REVERT JUMPDEST SWAP1 PUSH0 MSTORE PUSH1 0x20 PUSH0 KECCAK256 ADD PUSH0 SWAP2 POP SWAP1 POP DUP1 PUSH0 ADD PUSH0 SWAP1 SLOAD SWAP1 PUSH2 0x100 EXP SWAP1 DIV PUSH20 0xFFFFFFFFFFFFFFFFFFFFFFFFFFFFFFFFFFFFFFFF AND SWAP1 DUP1 PUSH0 ADD PUSH1 0x14 SWAP1 SLOAD SWAP1 PUSH2 0x100 EXP SWAP1 DIV PUSH1 0xFF AND SWAP1 POP DUP3 JUMP JUMPDEST PUSH0 PUSH1 0x40 MLOAD DUP1 PUSH1 0x40 ADD PUSH1 0x40 MSTORE DUP1 CALLER PUSH20 0xFFFFFFFFFFFFFFFFFFFFFFFFFFFFFFFFFFFFFFFF AND DUP2 MSTORE PUSH1 0x20 ADD DUP4 PUSH1 0x2 DUP2 GT ISZERO PUSH2 0xC1D JUMPI PUSH2 0xC1C PUSH2 0x26EE JUMP JUMPDEST JUMPDEST DUP2 MSTORE POP SWAP1 DUP1 PUSH1 0x1 DUP2 SLOAD ADD DUP1 DUP3 SSTORE DUP1 SWAP2 POP POP PUSH1 0x1 SWAP1 SUB SWAP1 PUSH0 MSTORE PUSH1 0x20 PUSH0 KECCAK256 ADD PUSH0 SWAP1 SWAP2 SWAP1 SWAP2 SWAP1 SWAP2 POP PUSH0 DUP3 ADD MLOAD DUP2 PUSH0 ADD PUSH0 PUSH2 0x100 EXP DUP2 SLOAD DUP2 PUSH20 0xFFFFFFFFFFFFFFFFFFFFFFFFFFFFFFFFFFFFFFFF MUL NOT AND SWAP1 DUP4 PUSH20 0xFFFFFFFFFFFFFFFFFFFFFFFFFFFFFFFFFFFFFFFF AND MUL OR SWAP1 SSTORE POP PUSH1 0x20 DUP3 ADD MLOAD DUP2 PUSH0 ADD PUSH1 0x14 PUSH2 0x100 EXP DUP2 SLOAD DUP2 PUSH1 0xFF MUL NOT AND SWAP1 DUP4 PUSH1 0x2 DUP2 GT ISZERO PUSH2 0xCB0 JUMPI PUSH2 0xCAF PUSH2 0x26EE JUMP JUMPDEST JUMPDEST MUL OR SWAP1 SSTORE POP POP POP POP JUMP JUMPDEST PUSH1 0x40 MLOAD DUP1 PUSH1 0x40 ADD PUSH1 0x40 MSTORE DUP1 PUSH1 0x1 PUSH1 0x2 DUP2 GT ISZERO PUSH2 0xCD9 JUMPI PUSH2 0xCD8 PUSH2 0x26EE JUMP JUMPDEST JUMPDEST DUP2 MSTORE PUSH1 0x20 ADD PUSH0 DUP2 MSTORE POP PUSH1 0x2 PUSH0 CALLER PUSH20 0xFFFFFFFFFFFFFFFFFFFFFFFFFFFFFFFFFFFFFFFF AND PUSH20 0xFFFFFFFFFFFFFFFFFFFFFFFFFFFFFFFFFFFFFFFF AND DUP2 MSTORE PUSH1 0x20 ADD SWAP1 DUP2 MSTORE PUSH1 0x20 ADD PUSH0 KECCAK256 PUSH0 DUP3 ADD MLOAD DUP2 PUSH0 ADD PUSH0 PUSH2 0x100 EXP DUP2 SLOAD DUP2 PUSH1 0xFF MUL NOT AND SWAP1 DUP4 PUSH1 0x2 DUP2 GT ISZERO PUSH2 0xD47 JUMPI PUSH2 0xD46 PUSH2 0x26EE JUMP JUMPDEST JUMPDEST MUL OR SWAP1 SSTORE POP PUSH1 0x20 DUP3 ADD MLOAD DUP2 PUSH1 0x1 ADD SSTORE SWAP1 POP POP JUMP JUMPDEST PUSH1 0x1 PUSH0 SWAP1 SLOAD SWAP1 PUSH2 0x100 EXP SWAP1 DIV PUSH20 0xFFFFFFFFFFFFFFFFFFFFFFFFFFFFFFFFFFFFFFFF AND PUSH20 0xFFFFFFFFFFFFFFFFFFFFFFFFFFFFFFFFFFFFFFFF AND CALLER PUSH20 0xFFFFFFFFFFFFFFFFFFFFFFFFFFFFFFFFFFFFFFFF AND EQ PUSH2 0xDB3 JUMPI PUSH0 DUP1 REVERT JUMPDEST PUSH0 DUP1 DUP3 DUP2 SLOAD DUP2 LT PUSH2 0xDC7 JUMPI PUSH2 0xDC6 PUSH2 0x2C5B JUMP JUMPDEST JUMPDEST SWAP1 PUSH0 MSTORE PUSH1 0x20 PUSH0 KECCAK256 ADD PUSH0 ADD PUSH0 SWAP1 SLOAD SWAP1 PUSH2 0x100 EXP SWAP1 DIV PUSH20 0xFFFFFFFFFFFFFFFFFFFFFFFFFFFFFFFFFFFFFFFF AND SWAP1 POP PUSH0 DUP1 DUP4 DUP2 SLOAD DUP2 LT PUSH2 0xE07 JUMPI PUSH2 0xE06 PUSH2 0x2C5B JUMP JUMPDEST JUMPDEST SWAP1 PUSH0 MSTORE PUSH1 0x20 PUSH0 KECCAK256 ADD PUSH0 ADD PUSH1 0x14 SWAP1 SLOAD SWAP1 PUSH2 0x100 EXP SWAP1 DIV PUSH1 0xFF AND SWAP1 POP DUP1 PUSH1 0x2 PUSH0 DUP5 PUSH20 0xFFFFFFFFFFFFFFFFFFFFFFFFFFFFFFFFFFFFFFFF AND PUSH20 0xFFFFFFFFFFFFFFFFFFFFFFFFFFFFFFFFFFFFFFFF AND DUP2 MSTORE PUSH1 0x20 ADD SWAP1 DUP2 MSTORE PUSH1 0x20 ADD PUSH0 KECCAK256 PUSH0 ADD PUSH0 PUSH2 0x100 EXP DUP2 SLOAD DUP2 PUSH1 0xFF MUL NOT AND SWAP1 DUP4 PUSH1 0x2 DUP2 GT ISZERO PUSH2 0xE82 JUMPI PUSH2 0xE81 PUSH2 0x26EE JUMP JUMPDEST JUMPDEST MUL OR SWAP1 SSTORE POP POP POP POP JUMP JUMPDEST PUSH0 DUP1 DUP1 DUP1 PUSH2 0xE99 SWAP1 PUSH2 0x2D5C JUMP JUMPDEST SWAP2 POP POP DUP3 TIMESTAMP CALLER DUP4 PUSH1 0x40 MLOAD PUSH1 0x20 ADD PUSH2 0xEB2 SWAP4 SWAP3 SWAP2 SWAP1 PUSH2 0x2E08 JUMP JUMPDEST PUSH1 0x40 MLOAD PUSH1 0x20 DUP2 DUP4 SUB SUB DUP2 MSTORE SWAP1 PUSH1 0x40 MSTORE DUP1 MLOAD SWAP1 PUSH1 0x20 ADD KECCAK256 PUSH0 SHR PUSH2 0xED4 SWAP2 SWAP1 PUSH2 0x2E71 JUMP JUMPDEST SWAP2 POP POP SWAP2 SWAP1 POP JUMP JUMPDEST PUSH1 0x2 DUP2 DUP2 PUSH1 0x2 DUP2 GT ISZERO PUSH2 0xEF2 JUMPI PUSH2 0xEF1 PUSH2 0x26EE JUMP JUMPDEST JUMPDEST PUSH1 0x2 PUSH0 CALLER PUSH20 0xFFFFFFFFFFFFFFFFFFFFFFFFFFFFFFFFFFFFFFFF AND PUSH20 0xFFFFFFFFFFFFFFFFFFFFFFFFFFFFFFFFFFFFFFFF AND DUP2 MSTORE PUSH1 0x20 ADD SWAP1 DUP2 MSTORE PUSH1 0x20 ADD PUSH0 KECCAK256 PUSH0 ADD PUSH0 SWAP1 SLOAD SWAP1 PUSH2 0x100 EXP SWAP1 DIV PUSH1 0xFF AND PUSH1 0x2 DUP2 GT ISZERO PUSH2 0xF50 JUMPI PUSH2 0xF4F PUSH2 0x26EE JUMP JUMPDEST JUMPDEST EQ PUSH2 0xF90 JUMPI PUSH1 0x40 MLOAD PUSH32 0x8C379A000000000000000000000000000000000000000000000000000000000 DUP2 MSTORE PUSH1 0x4 ADD PUSH2 0xF87 SWAP1 PUSH2 0x2F37 JUMP JUMPDEST PUSH1 0x40 MLOAD DUP1 SWAP2 SUB SWAP1 REVERT JUMPDEST DUP1 PUSH20 0xFFFFFFFFFFFFFFFFFFFFFFFFFFFFFFFFFFFFFFFF AND CALLER PUSH20 0xFFFFFFFFFFFFFFFFFFFFFFFFFFFFFFFFFFFFFFFF AND EQ PUSH2 0xFFE JUMPI PUSH1 0x40 MLOAD PUSH32 0x8C379A000000000000000000000000000000000000000000000000000000000 DUP2 MSTORE PUSH1 0x4 ADD PUSH2 0xFF5 SWAP1 PUSH2 0x2FEB JUMP JUMPDEST PUSH1 0x40 MLOAD DUP1 SWAP2 SUB SWAP1 REVERT JUMPDEST PUSH0 PUSH1 0x40 MLOAD DUP1 PUSH1 0xA0 ADD PUSH1 0x40 MSTORE DUP1 DUP6 PUSH20 0xFFFFFFFFFFFFFFFFFFFFFFFFFFFFFFFFFFFFFFFF AND DUP2 MSTORE PUSH1 0x20 ADD DUP11 DUP2 MSTORE PUSH1 0x20 ADD PUSH1 0x2 DUP11 PUSH2 0x1039 SWAP2 SWAP1 PUSH2 0x3009 JUMP JUMPDEST DUP2 MSTORE PUSH1 0x20 ADD DUP9 DUP9 DUP1 DUP1 PUSH1 0x1F ADD PUSH1 0x20 DUP1 SWAP2 DIV MUL PUSH1 0x20 ADD PUSH1 0x40 MLOAD SWAP1 DUP2 ADD PUSH1 0x40 MSTORE DUP1 SWAP4 SWAP3 SWAP2 SWAP1 DUP2 DUP2 MSTORE PUSH1 0x20 ADD DUP4 DUP4 DUP1 DUP3 DUP5 CALLDATACOPY PUSH0 DUP2 DUP5 ADD MSTORE PUSH1 0x1F NOT PUSH1 0x1F DUP3 ADD AND SWAP1 POP DUP1 DUP4 ADD SWAP3 POP POP POP POP POP POP POP DUP2 MSTORE PUSH1 0x20 ADD DUP7 DUP2 MSTORE POP SWAP1 POP PUSH1 0x5 PUSH0 DUP6 PUSH20 0xFFFFFFFFFFFFFFFFFFFFFFFFFFFFFFFFFFFFFFFF AND PUSH20 0xFFFFFFFFFFFFFFFFFFFFFFFFFFFFFFFFFFFFFFFF AND DUP2 MSTORE PUSH1 0x20 ADD SWAP1 DUP2 MSTORE PUSH1 0x20 ADD PUSH0 KECCAK256 DUP2 SWAP1 DUP1 PUSH1 0x1 DUP2 SLOAD ADD DUP1 DUP3 SSTORE DUP1 SWAP2 POP POP PUSH1 0x1 SWAP1 SUB SWAP1 PUSH0 MSTORE PUSH1 0x20 PUSH0 KECCAK256 SWAP1 PUSH1 0x5 MUL ADD PUSH0 SWAP1 SWAP2 SWAP1 SWAP2 SWAP1 SWAP2 POP PUSH0 DUP3 ADD MLOAD DUP2 PUSH0 ADD PUSH0 PUSH2 0x100 EXP DUP2 SLOAD DUP2 PUSH20 0xFFFFFFFFFFFFFFFFFFFFFFFFFFFFFFFFFFFFFFFF MUL NOT AND SWAP1 DUP4 PUSH20 0xFFFFFFFFFFFFFFFFFFFFFFFFFFFFFFFFFFFFFFFF AND MUL OR SWAP1 SSTORE POP PUSH1 0x20 DUP3 ADD MLOAD DUP2 PUSH1 0x1 ADD SSTORE PUSH1 0x40 DUP3 ADD MLOAD DUP2 PUSH1 0x2 ADD SSTORE PUSH1 0x60 DUP3 ADD MLOAD DUP2 PUSH1 0x3 ADD SWAP1 DUP2 PUSH2 0x115E SWAP2 SWAP1 PUSH2 0x31D6 JUMP JUMPDEST POP PUSH1 0x80 DUP3 ADD MLOAD DUP2 PUSH1 0x4 ADD SSTORE POP POP POP POP POP POP POP POP POP POP POP JUMP JUMPDEST PUSH1 0x1 PUSH0 SWAP1 SLOAD SWAP1 PUSH2 0x100 EXP SWAP1 DIV PUSH20 0xFFFFFFFFFFFFFFFFFFFFFFFFFFFFFFFFFFFFFFFF AND DUP2 JUMP JUMPDEST PUSH0 PUSH1 0x2 DUP2 GT ISZERO PUSH2 0x11AE JUMPI PUSH2 0x11AD PUSH2 0x26EE JUMP JUMPDEST JUMPDEST PUSH1 0x2 PUSH0 CALLER PUSH20 0xFFFFFFFFFFFFFFFFFFFFFFFFFFFFFFFFFFFFFFFF AND PUSH20 0xFFFFFFFFFFFFFFFFFFFFFFFFFFFFFFFFFFFFFFFF AND DUP2 MSTORE PUSH1 0x20 ADD SWAP1 DUP2 MSTORE PUSH1 0x20 ADD PUSH0 KECCAK256 PUSH0 ADD PUSH0 SWAP1 SLOAD SWAP1 PUSH2 0x100 EXP SWAP1 DIV PUSH1 0xFF AND PUSH1 0x2 DUP2 GT ISZERO PUSH2 0x120C JUMPI PUSH2 0x120B PUSH2 0x26EE JUMP JUMPDEST JUMPDEST SUB PUSH2 0x12B0 JUMPI PUSH1 0x40 MLOAD DUP1 PUSH1 0x40 ADD PUSH1 0x40 MSTORE DUP1 PUSH0 PUSH1 0x2 DUP2 GT ISZERO PUSH2 0x122F JUMPI PUSH2 0x122E PUSH2 0x26EE JUMP JUMPDEST JUMPDEST DUP2 MSTORE PUSH1 0x20 ADD PUSH0 DUP2 MSTORE POP PUSH1 0x2 PUSH0 CALLER PUSH20 0xFFFFFFFFFFFFFFFFFFFFFFFFFFFFFFFFFFFFFFFF AND PUSH20 0xFFFFFFFFFFFFFFFFFFFFFFFFFFFFFFFFFFFFFFFF AND DUP2 MSTORE PUSH1 0x20 ADD SWAP1 DUP2 MSTORE PUSH1 0x20 ADD PUSH0 KECCAK256 PUSH0 DUP3 ADD MLOAD DUP2 PUSH0 ADD PUSH0 PUSH2 0x100 EXP DUP2 SLOAD DUP2 PUSH1 0xFF MUL NOT AND SWAP1 DUP4 PUSH1 0x2 DUP2 GT ISZERO PUSH2 0x129D JUMPI PUSH2 0x129C PUSH2 0x26EE JUMP JUMPDEST JUMPDEST MUL OR SWAP1 SSTORE POP PUSH1 0x20 DUP3 ADD MLOAD DUP2 PUSH1 0x1 ADD SSTORE SWAP1 POP POP JUMPDEST PUSH0 DUP4 GT PUSH2 0x12F2 JUMPI PUSH1 0x40 MLOAD PUSH32 0x8C379A000000000000000000000000000000000000000000000000000000000 DUP2 MSTORE PUSH1 0x4 ADD PUSH2 0x12E9 SWAP1 PUSH2 0x3315 JUMP JUMPDEST PUSH1 0x40 MLOAD DUP1 SWAP2 SUB SWAP1 REVERT JUMPDEST PUSH1 0x4 PUSH0 DUP6 PUSH20 0xFFFFFFFFFFFFFFFFFFFFFFFFFFFFFFFFFFFFFFFF AND PUSH20 0xFFFFFFFFFFFFFFFFFFFFFFFFFFFFFFFFFFFFFFFF AND DUP2 MSTORE PUSH1 0x20 ADD SWAP1 DUP2 MSTORE PUSH1 0x20 ADD PUSH0 KECCAK256 DUP1 SLOAD SWAP1 POP DUP3 LT PUSH2 0x1374 JUMPI PUSH1 0x40 MLOAD PUSH32 0x8C379A000000000000000000000000000000000000000000000000000000000 DUP2 MSTORE PUSH1 0x4 ADD PUSH2 0x136B SWAP1 PUSH2 0x337D JUMP JUMPDEST PUSH1 0x40 MLOAD DUP1 SWAP2 SUB SWAP1 REVERT JUMPDEST PUSH1 0x4 PUSH0 DUP6 PUSH20 0xFFFFFFFFFFFFFFFFFFFFFFFFFFFFFFFFFFFFFFFF AND PUSH20 0xFFFFFFFFFFFFFFFFFFFFFFFFFFFFFFFFFFFFFFFF AND DUP2 MSTORE PUSH1 0x20 ADD SWAP1 DUP2 MSTORE PUSH1 0x20 ADD PUSH0 KECCAK256 DUP3 DUP2 SLOAD DUP2 LT PUSH2 0x13C3 JUMPI PUSH2 0x13C2 PUSH2 0x2C5B JUMP JUMPDEST JUMPDEST SWAP1 PUSH0 MSTORE PUSH1 0x20 PUSH0 KECCAK256 SWAP1 PUSH1 0x5 MUL ADD PUSH1 0x1 ADD SLOAD DUP4 GT ISZERO PUSH2 0x1415 JUMPI PUSH1 0x40 MLOAD PUSH32 0x8C379A000000000000000000000000000000000000000000000000000000000 DUP2 MSTORE PUSH1 0x4 ADD PUSH2 0x140C SWAP1 PUSH2 0x33E5 JUMP JUMPDEST PUSH1 0x40 MLOAD DUP1 SWAP2 SUB SWAP1 REVERT JUMPDEST PUSH0 PUSH8 0xDE0B6B3A7640000 PUSH1 0x4 PUSH0 DUP8 PUSH20 0xFFFFFFFFFFFFFFFFFFFFFFFFFFFFFFFFFFFFFFFF AND PUSH20 0xFFFFFFFFFFFFFFFFFFFFFFFFFFFFFFFFFFFFFFFF AND DUP2 MSTORE PUSH1 0x20 ADD SWAP1 DUP2 MSTORE PUSH1 0x20 ADD PUSH0 KECCAK256 DUP5 DUP2 SLOAD DUP2 LT PUSH2 0x146E JUMPI PUSH2 0x146D PUSH2 0x2C5B JUMP JUMPDEST JUMPDEST SWAP1 PUSH0 MSTORE PUSH1 0x20 PUSH0 KECCAK256 SWAP1 PUSH1 0x5 MUL ADD PUSH1 0x2 ADD SLOAD DUP6 PUSH2 0x1489 SWAP2 SWAP1 PUSH2 0x2CB5 JUMP JUMPDEST PUSH2 0x1493 SWAP2 SWAP1 PUSH2 0x2CB5 JUMP JUMPDEST SWAP1 POP CALLER PUSH20 0xFFFFFFFFFFFFFFFFFFFFFFFFFFFFFFFFFFFFFFFF AND PUSH1 0x6 DUP4 PUSH1 0x40 MLOAD PUSH2 0x14BC SWAP2 SWAP1 PUSH2 0x343D JUMP JUMPDEST SWAP1 DUP2 MSTORE PUSH1 0x20 ADD PUSH1 0x40 MLOAD DUP1 SWAP2 SUB SWAP1 KECCAK256 PUSH0 SWAP1 SLOAD SWAP1 PUSH2 0x100 EXP SWAP1 DIV PUSH20 0xFFFFFFFFFFFFFFFFFFFFFFFFFFFFFFFFFFFFFFFF AND PUSH20 0xFFFFFFFFFFFFFFFFFFFFFFFFFFFFFFFFFFFFFFFF AND SUB PUSH2 0x157D JUMPI PUSH1 0x64 PUSH1 0x5A DUP3 PUSH2 0x1514 SWAP2 SWAP1 PUSH2 0x2CB5 JUMP JUMPDEST PUSH2 0x151E SWAP2 SWAP1 PUSH2 0x3009 JUMP JUMPDEST SWAP1 POP PUSH0 PUSH1 0x6 DUP4 PUSH1 0x40 MLOAD PUSH2 0x1531 SWAP2 SWAP1 PUSH2 0x343D JUMP JUMPDEST SWAP1 DUP2 MSTORE PUSH1 0x20 ADD PUSH1 0x40 MLOAD DUP1 SWAP2 SUB SWAP1 KECCAK256 PUSH0 PUSH2 0x100 EXP DUP2 SLOAD DUP2 PUSH20 0xFFFFFFFFFFFFFFFFFFFFFFFFFFFFFFFFFFFFFFFF MUL NOT AND SWAP1 DUP4 PUSH20 0xFFFFFFFFFFFFFFFFFFFFFFFFFFFFFFFFFFFFFFFF AND MUL OR SWAP1 SSTORE POP JUMPDEST DUP1 CALLVALUE LT ISZERO PUSH2 0x15C0 JUMPI PUSH1 0x40 MLOAD PUSH32 0x8C379A000000000000000000000000000000000000000000000000000000000 DUP2 MSTORE PUSH1 0x4 ADD PUSH2 0x15B7 SWAP1 PUSH2 0x349D JUMP JUMPDEST PUSH1 0x40 MLOAD DUP1 SWAP2 SUB SWAP1 REVERT JUMPDEST PUSH0 DUP1 JUMPDEST PUSH1 0x3 PUSH0 CALLER PUSH20 0xFFFFFFFFFFFFFFFFFFFFFFFFFFFFFFFFFFFFFFFF AND PUSH20 0xFFFFFFFFFFFFFFFFFFFFFFFFFFFFFFFFFFFFFFFF AND DUP2 MSTORE PUSH1 0x20 ADD SWAP1 DUP2 MSTORE PUSH1 0x20 ADD PUSH0 KECCAK256 DUP1 SLOAD SWAP1 POP DUP2 LT ISZERO PUSH2 0x1786 JUMPI PUSH1 0x3 PUSH0 DUP9 PUSH20 0xFFFFFFFFFFFFFFFFFFFFFFFFFFFFFFFFFFFFFFFF AND PUSH20 0xFFFFFFFFFFFFFFFFFFFFFFFFFFFFFFFFFFFFFFFF AND DUP2 MSTORE PUSH1 0x20 ADD SWAP1 DUP2 MSTORE PUSH1 0x20 ADD PUSH0 KECCAK256 DUP6 DUP2 SLOAD DUP2 LT PUSH2 0x165A JUMPI PUSH2 0x1659 PUSH2 0x2C5B JUMP JUMPDEST JUMPDEST SWAP1 PUSH0 MSTORE PUSH1 0x20 PUSH0 KECCAK256 SWAP1 PUSH1 0x5 MUL ADD PUSH1 0x3 ADD PUSH1 0x40 MLOAD PUSH2 0x1676 SWAP2 SWAP1 PUSH2 0x3557 JUMP JUMPDEST PUSH1 0x40 MLOAD DUP1 SWAP2 SUB SWAP1 KECCAK256 PUSH1 0x3 PUSH0 CALLER PUSH20 0xFFFFFFFFFFFFFFFFFFFFFFFFFFFFFFFFFFFFFFFF AND PUSH20 0xFFFFFFFFFFFFFFFFFFFFFFFFFFFFFFFFFFFFFFFF AND DUP2 MSTORE PUSH1 0x20 ADD SWAP1 DUP2 MSTORE PUSH1 0x20 ADD PUSH0 KECCAK256 DUP3 DUP2 SLOAD DUP2 LT PUSH2 0x16CD JUMPI PUSH2 0x16CC PUSH2 0x2C5B JUMP JUMPDEST JUMPDEST SWAP1 PUSH0 MSTORE PUSH1 0x20 PUSH0 KECCAK256 SWAP1 PUSH1 0x5 MUL ADD PUSH1 0x3 ADD PUSH1 0x40 MLOAD PUSH2 0x16E9 SWAP2 SWAP1 PUSH2 0x3557 JUMP JUMPDEST PUSH1 0x40 MLOAD DUP1 SWAP2 SUB SWAP1 KECCAK256 SUB PUSH2 0x1773 JUMPI DUP6 PUSH1 0x3 PUSH0 CALLER PUSH20 0xFFFFFFFFFFFFFFFFFFFFFFFFFFFFFFFFFFFFFFFF AND PUSH20 0xFFFFFFFFFFFFFFFFFFFFFFFFFFFFFFFFFFFFFFFF AND DUP2 MSTORE PUSH1 0x20 ADD SWAP1 DUP2 MSTORE PUSH1 0x20 ADD PUSH0 KECCAK256 DUP3 DUP2 SLOAD DUP2 LT PUSH2 0x1746 JUMPI PUSH2 0x1745 PUSH2 0x2C5B JUMP JUMPDEST JUMPDEST SWAP1 PUSH0 MSTORE PUSH1 0x20 PUSH0 KECCAK256 SWAP1 PUSH1 0x5 MUL ADD PUSH1 0x1 ADD PUSH0 DUP3 DUP3 SLOAD PUSH2 0x1763 SWAP2 SWAP1 PUSH2 0x2CF6 JUMP JUMPDEST SWAP3 POP POP DUP2 SWAP1 SSTORE POP PUSH1 0x1 SWAP2 POP PUSH2 0x1786 JUMP JUMPDEST DUP1 DUP1 PUSH2 0x177E SWAP1 PUSH2 0x2D5C JUMP JUMPDEST SWAP2 POP POP PUSH2 0x15C3 JUMP JUMPDEST POP DUP1 PUSH2 0x19F8 JUMPI PUSH0 PUSH1 0x40 MLOAD DUP1 PUSH1 0xA0 ADD PUSH1 0x40 MSTORE DUP1 CALLER PUSH20 0xFFFFFFFFFFFFFFFFFFFFFFFFFFFFFFFFFFFFFFFF AND DUP2 MSTORE PUSH1 0x20 ADD DUP8 DUP2 MSTORE PUSH1 0x20 ADD PUSH1 0x4 PUSH0 DUP11 PUSH20 0xFFFFFFFFFFFFFFFFFFFFFFFFFFFFFFFFFFFFFFFF AND PUSH20 0xFFFFFFFFFFFFFFFFFFFFFFFFFFFFFFFFFFFFFFFF AND DUP2 MSTORE PUSH1 0x20 ADD SWAP1 DUP2 MSTORE PUSH1 0x20 ADD PUSH0 KECCAK256 DUP8 DUP2 SLOAD DUP2 LT PUSH2 0x1809 JUMPI PUSH2 0x1808 PUSH2 0x2C5B JUMP JUMPDEST JUMPDEST SWAP1 PUSH0 MSTORE PUSH1 0x20 PUSH0 KECCAK256 SWAP1 PUSH1 0x5 MUL ADD PUSH1 0x2 ADD SLOAD DUP2 MSTORE PUSH1 0x20 ADD PUSH1 0x4 PUSH0 DUP11 PUSH20 0xFFFFFFFFFFFFFFFFFFFFFFFFFFFFFFFFFFFFFFFF AND PUSH20 0xFFFFFFFFFFFFFFFFFFFFFFFFFFFFFFFFFFFFFFFF AND DUP2 MSTORE PUSH1 0x20 ADD SWAP1 DUP2 MSTORE PUSH1 0x20 ADD PUSH0 KECCAK256 DUP8 DUP2 SLOAD DUP2 LT PUSH2 0x186D JUMPI PUSH2 0x186C PUSH2 0x2C5B JUMP JUMPDEST JUMPDEST SWAP1 PUSH0 MSTORE PUSH1 0x20 PUSH0 KECCAK256 SWAP1 PUSH1 0x5 MUL ADD PUSH1 0x3 ADD DUP1 SLOAD PUSH2 0x1887 SWAP1 PUSH2 0x2C2B JUMP JUMPDEST DUP1 PUSH1 0x1F ADD PUSH1 0x20 DUP1 SWAP2 DIV MUL PUSH1 0x20 ADD PUSH1 0x40 MLOAD SWAP1 DUP2 ADD PUSH1 0x40 MSTORE DUP1 SWAP3 SWAP2 SWAP1 DUP2 DUP2 MSTORE PUSH1 0x20 ADD DUP3 DUP1 SLOAD PUSH2 0x18B3 SWAP1 PUSH2 0x2C2B JUMP JUMPDEST DUP1 ISZERO PUSH2 0x18FE JUMPI DUP1 PUSH1 0x1F LT PUSH2 0x18D5 JUMPI PUSH2 0x100 DUP1 DUP4 SLOAD DIV MUL DUP4 MSTORE SWAP2 PUSH1 0x20 ADD SWAP2 PUSH2 0x18FE JUMP JUMPDEST DUP3 ADD SWAP2 SWAP1 PUSH0 MSTORE PUSH1 0x20 PUSH0 KECCAK256 SWAP1 JUMPDEST DUP2 SLOAD DUP2 MSTORE SWAP1 PUSH1 0x1 ADD SWAP1 PUSH1 0x20 ADD DUP1 DUP4 GT PUSH2 0x18E1 JUMPI DUP3 SWAP1 SUB PUSH1 0x1F AND DUP3 ADD SWAP2 JUMPDEST POP POP POP POP POP DUP2 MSTORE PUSH1 0x20 ADD PUSH2 0x1913 PUSH2 0x3E8 PUSH2 0xE8C JUMP JUMPDEST DUP2 MSTORE POP SWAP1 POP PUSH1 0x3 PUSH0 CALLER PUSH20 0xFFFFFFFFFFFFFFFFFFFFFFFFFFFFFFFFFFFFFFFF AND PUSH20 0xFFFFFFFFFFFFFFFFFFFFFFFFFFFFFFFFFFFFFFFF AND DUP2 MSTORE PUSH1 0x20 ADD SWAP1 DUP2 MSTORE PUSH1 0x20 ADD PUSH0 KECCAK256 DUP2 SWAP1 DUP1 PUSH1 0x1 DUP2 SLOAD ADD DUP1 DUP3 SSTORE DUP1 SWAP2 POP POP PUSH1 0x1 SWAP1 SUB SWAP1 PUSH0 MSTORE PUSH1 0x20 PUSH0 KECCAK256 SWAP1 PUSH1 0x5 MUL ADD PUSH0 SWAP1 SWAP2 SWAP1 SWAP2 SWAP1 SWAP2 POP PUSH0 DUP3 ADD MLOAD DUP2 PUSH0 ADD PUSH0 PUSH2 0x100 EXP DUP2 SLOAD DUP2 PUSH20 0xFFFFFFFFFFFFFFFFFFFFFFFFFFFFFFFFFFFFFFFF MUL NOT AND SWAP1 DUP4 PUSH20 0xFFFFFFFFFFFFFFFFFFFFFFFFFFFFFFFFFFFFFFFF AND MUL OR SWAP1 SSTORE POP PUSH1 0x20 DUP3 ADD MLOAD DUP2 PUSH1 0x1 ADD SSTORE PUSH1 0x40 DUP3 ADD MLOAD DUP2 PUSH1 0x2 ADD SSTORE PUSH1 0x60 DUP3 ADD MLOAD DUP2 PUSH1 0x3 ADD SWAP1 DUP2 PUSH2 0x19E9 SWAP2 SWAP1 PUSH2 0x31D6 JUMP JUMPDEST POP PUSH1 0x80 DUP3 ADD MLOAD DUP2 PUSH1 0x4 ADD SSTORE POP POP POP JUMPDEST DUP5 PUSH1 0x4 PUSH0 DUP9 PUSH20 0xFFFFFFFFFFFFFFFFFFFFFFFFFFFFFFFFFFFFFFFF AND PUSH20 0xFFFFFFFFFFFFFFFFFFFFFFFFFFFFFFFFFFFFFFFF AND DUP2 MSTORE PUSH1 0x20 ADD SWAP1 DUP2 MSTORE PUSH1 0x20 ADD PUSH0 KECCAK256 DUP6 DUP2 SLOAD DUP2 LT PUSH2 0x1A48 JUMPI PUSH2 0x1A47 PUSH2 0x2C5B JUMP JUMPDEST JUMPDEST SWAP1 PUSH0 MSTORE PUSH1 0x20 PUSH0 KECCAK256 SWAP1 PUSH1 0x5 MUL ADD PUSH1 0x1 ADD PUSH0 DUP3 DUP3 SLOAD PUSH2 0x1A65 SWAP2 SWAP1 PUSH2 0x2D29 JUMP JUMPDEST SWAP3 POP POP DUP2 SWAP1 SSTORE POP DUP2 PUSH1 0x2 PUSH0 DUP9 PUSH20 0xFFFFFFFFFFFFFFFFFFFFFFFFFFFFFFFFFFFFFFFF AND PUSH20 0xFFFFFFFFFFFFFFFFFFFFFFFFFFFFFFFFFFFFFFFF AND DUP2 MSTORE PUSH1 0x20 ADD SWAP1 DUP2 MSTORE PUSH1 0x20 ADD PUSH0 KECCAK256 PUSH1 0x1 ADD DUP2 SWAP1 SSTORE POP DUP2 CALLVALUE GT ISZERO PUSH2 0x1B09 JUMPI CALLER PUSH20 0xFFFFFFFFFFFFFFFFFFFFFFFFFFFFFFFFFFFFFFFF AND PUSH2 0x8FC DUP4 CALLVALUE PUSH2 0x1ADF SWAP2 SWAP1 PUSH2 0x2D29 JUMP JUMPDEST SWAP1 DUP2 ISZERO MUL SWAP1 PUSH1 0x40 MLOAD PUSH0 PUSH1 0x40 MLOAD DUP1 DUP4 SUB DUP2 DUP6 DUP9 DUP9 CALL SWAP4 POP POP POP POP ISZERO DUP1 ISZERO PUSH2 0x1B07 JUMPI RETURNDATASIZE PUSH0 DUP1 RETURNDATACOPY RETURNDATASIZE PUSH0 REVERT JUMPDEST POP JUMPDEST POP POP POP POP POP POP JUMP JUMPDEST DUP1 PUSH20 0xFFFFFFFFFFFFFFFFFFFFFFFFFFFFFFFFFFFFFFFF AND CALLER PUSH20 0xFFFFFFFFFFFFFFFFFFFFFFFFFFFFFFFFFFFFFFFF AND SUB PUSH2 0x1B48 JUMPI PUSH0 DUP1 REVERT JUMPDEST DUP1 PUSH1 0x6 DUP4 PUSH1 0x40 MLOAD PUSH2 0x1B59 SWAP2 SWAP1 PUSH2 0x343D JUMP JUMPDEST SWAP1 DUP2 MSTORE PUSH1 0x20 ADD PUSH1 0x40 MLOAD DUP1 SWAP2 SUB SWAP1 KECCAK256 PUSH0 PUSH2 0x100 EXP DUP2 SLOAD DUP2 PUSH20 0xFFFFFFFFFFFFFFFFFFFFFFFFFFFFFFFFFFFFFFFF MUL NOT AND SWAP1 DUP4 PUSH20 0xFFFFFFFFFFFFFFFFFFFFFFFFFFFFFFFFFFFFFFFF AND MUL OR SWAP1 SSTORE POP POP POP JUMP JUMPDEST PUSH1 0x2 PUSH1 0x20 MSTORE DUP1 PUSH0 MSTORE PUSH1 0x40 PUSH0 KECCAK256 PUSH0 SWAP2 POP SWAP1 POP DUP1 PUSH0 ADD PUSH0 SWAP1 SLOAD SWAP1 PUSH2 0x100 EXP SWAP1 DIV PUSH1 0xFF AND SWAP1 DUP1 PUSH1 0x1 ADD SLOAD SWAP1 POP DUP3 JUMP JUMPDEST PUSH1 0x40 MLOAD DUP1 PUSH1 0x40 ADD PUSH1 0x40 MSTORE DUP1 PUSH0 PUSH1 0x2 DUP2 GT ISZERO PUSH2 0x1BF2 JUMPI PUSH2 0x1BF1 PUSH2 0x26EE JUMP JUMPDEST JUMPDEST DUP2 MSTORE PUSH1 0x20 ADD PUSH0 DUP2 MSTORE POP PUSH1 0x2 PUSH0 CALLER PUSH20 0xFFFFFFFFFFFFFFFFFFFFFFFFFFFFFFFFFFFFFFFF AND PUSH20 0xFFFFFFFFFFFFFFFFFFFFFFFFFFFFFFFFFFFFFFFF AND DUP2 MSTORE PUSH1 0x20 ADD SWAP1 DUP2 MSTORE PUSH1 0x20 ADD PUSH0 KECCAK256 PUSH0 DUP3 ADD MLOAD DUP2 PUSH0 ADD PUSH0 PUSH2 0x100 EXP DUP2 SLOAD DUP2 PUSH1 0xFF MUL NOT AND SWAP1 DUP4 PUSH1 0x2 DUP2 GT ISZERO PUSH2 0x1C60 JUMPI PUSH2 0x1C5F PUSH2 0x26EE JUMP JUMPDEST JUMPDEST MUL OR SWAP1 SSTORE POP PUSH1 0x20 DUP3 ADD MLOAD DUP2 PUSH1 0x1 ADD SSTORE SWAP1 POP POP JUMP JUMPDEST PUSH1 0x6 DUP2 DUP1 MLOAD PUSH1 0x20 DUP2 ADD DUP3 ADD DUP1 MLOAD DUP5 DUP3 MSTORE PUSH1 0x20 DUP4 ADD PUSH1 0x20 DUP6 ADD KECCAK256 DUP2 DUP4 MSTORE DUP1 SWAP6 POP POP POP POP POP POP PUSH0 SWAP2 POP SLOAD SWAP1 PUSH2 0x100 EXP SWAP1 DIV PUSH20 0xFFFFFFFFFFFFFFFFFFFFFFFFFFFFFFFFFFFFFFFF AND DUP2 JUMP JUMPDEST DUP1 PUSH20 0xFFFFFFFFFFFFFFFFFFFFFFFFFFFFFFFFFFFFFFFF AND PUSH2 0x8FC PUSH1 0x2 PUSH0 DUP5 PUSH20 0xFFFFFFFFFFFFFFFFFFFFFFFFFFFFFFFFFFFFFFFF AND PUSH20 0xFFFFFFFFFFFFFFFFFFFFFFFFFFFFFFFFFFFFFFFF AND DUP2 MSTORE PUSH1 0x20 ADD SWAP1 DUP2 MSTORE PUSH1 0x20 ADD PUSH0 KECCAK256 PUSH1 0x1 ADD SLOAD SWAP1 DUP2 ISZERO MUL SWAP1 PUSH1 0x40 MLOAD PUSH0 PUSH1 0x40 MLOAD DUP1 DUP4 SUB DUP2 DUP6 DUP9 DUP9 CALL SWAP4 POP POP POP POP ISZERO DUP1 ISZERO PUSH2 0x1D3F JUMPI RETURNDATASIZE PUSH0 DUP1 RETURNDATACOPY RETURNDATASIZE PUSH0 REVERT JUMPDEST POP POP JUMP JUMPDEST PUSH1 0x1 DUP5 DUP2 PUSH1 0x2 DUP2 GT ISZERO PUSH2 0x1D59 JUMPI PUSH2 0x1D58 PUSH2 0x26EE JUMP JUMPDEST JUMPDEST PUSH1 0x2 PUSH0 CALLER PUSH20 0xFFFFFFFFFFFFFFFFFFFFFFFFFFFFFFFFFFFFFFFF AND PUSH20 0xFFFFFFFFFFFFFFFFFFFFFFFFFFFFFFFFFFFFFFFF AND DUP2 MSTORE PUSH1 0x20 ADD SWAP1 DUP2 MSTORE PUSH1 0x20 ADD PUSH0 KECCAK256 PUSH0 ADD PUSH0 SWAP1 SLOAD SWAP1 PUSH2 0x100 EXP SWAP1 DIV PUSH1 0xFF AND PUSH1 0x2 DUP2 GT ISZERO PUSH2 0x1DB7 JUMPI PUSH2 0x1DB6 PUSH2 0x26EE JUMP JUMPDEST JUMPDEST EQ PUSH2 0x1DF7 JUMPI PUSH1 0x40 MLOAD PUSH32 0x8C379A000000000000000000000000000000000000000000000000000000000 DUP2 MSTORE PUSH1 0x4 ADD PUSH2 0x1DEE SWAP1 PUSH2 0x2F37 JUMP JUMPDEST PUSH1 0x40 MLOAD DUP1 SWAP2 SUB SWAP1 REVERT JUMPDEST DUP1 PUSH20 0xFFFFFFFFFFFFFFFFFFFFFFFFFFFFFFFFFFFFFFFF AND CALLER PUSH20 0xFFFFFFFFFFFFFFFFFFFFFFFFFFFFFFFFFFFFFFFF AND EQ PUSH2 0x1E65 JUMPI PUSH1 0x40 MLOAD PUSH32 0x8C379A000000000000000000000000000000000000000000000000000000000 DUP2 MSTORE PUSH1 0x4 ADD PUSH2 0x1E5C SWAP1 PUSH2 0x2FEB JUMP JUMPDEST PUSH1 0x40 MLOAD DUP1 SWAP2 SUB SWAP1 REVERT JUMPDEST PUSH0 DUP5 GT PUSH2 0x1EA7 JUMPI PUSH1 0x40 MLOAD PUSH32 0x8C379A000000000000000000000000000000000000000000000000000000000 DUP2 MSTORE PUSH1 0x4 ADD PUSH2 0x1E9E SWAP1 PUSH2 0x3315 JUMP JUMPDEST PUSH1 0x40 MLOAD DUP1 SWAP2 SUB SWAP1 REVERT JUMPDEST PUSH1 0x5 PUSH0 DUP5 PUSH20 0xFFFFFFFFFFFFFFFFFFFFFFFFFFFFFFFFFFFFFFFF AND PUSH20 0xFFFFFFFFFFFFFFFFFFFFFFFFFFFFFFFFFFFFFFFF AND DUP2 MSTORE PUSH1 0x20 ADD SWAP1 DUP2 MSTORE PUSH1 0x20 ADD PUSH0 KECCAK256 DUP1 SLOAD SWAP1 POP DUP6 LT PUSH2 0x1F29 JUMPI PUSH1 0x40 MLOAD PUSH32 0x8C379A000000000000000000000000000000000000000000000000000000000 DUP2 MSTORE PUSH1 0x4 ADD PUSH2 0x1F20 SWAP1 PUSH2 0x337D JUMP JUMPDEST PUSH1 0x40 MLOAD DUP1 SWAP2 SUB SWAP1 REVERT JUMPDEST PUSH0 PUSH1 0x5 PUSH0 DUP6 PUSH20 0xFFFFFFFFFFFFFFFFFFFFFFFFFFFFFFFFFFFFFFFF AND PUSH20 0xFFFFFFFFFFFFFFFFFFFFFFFFFFFFFFFFFFFFFFFF AND DUP2 MSTORE PUSH1 0x20 ADD SWAP1 DUP2 MSTORE PUSH1 0x20 ADD PUSH0 KECCAK256 DUP7 DUP2 SLOAD DUP2 LT PUSH2 0x1F79 JUMPI PUSH2 0x1F78 PUSH2 0x2C5B JUMP JUMPDEST JUMPDEST SWAP1 PUSH0 MSTORE PUSH1 0x20 PUSH0 KECCAK256 SWAP1 PUSH1 0x5 MUL ADD PUSH1 0x2 ADD SLOAD SWAP1 POP PUSH0 PUSH8 0xDE0B6B3A7640000 DUP7 DUP4 PUSH2 0x1FA1 SWAP2 SWAP1 PUSH2 0x2CB5 JUMP JUMPDEST PUSH2 0x1FAB SWAP2 SWAP1 PUSH2 0x2CB5 JUMP JUMPDEST SWAP1 POP DUP1 CALLVALUE LT ISZERO PUSH2 0x1FF0 JUMPI PUSH1 0x40 MLOAD PUSH32 0x8C379A000000000000000000000000000000000000000000000000000000000 DUP2 MSTORE PUSH1 0x4 ADD PUSH2 0x1FE7 SWAP1 PUSH2 0x349D JUMP JUMPDEST PUSH1 0x40 MLOAD DUP1 SWAP2 SUB SWAP1 REVERT JUMPDEST PUSH0 PUSH1 0x5 PUSH0 DUP8 PUSH20 0xFFFFFFFFFFFFFFFFFFFFFFFFFFFFFFFFFFFFFFFF AND PUSH20 0xFFFFFFFFFFFFFFFFFFFFFFFFFFFFFFFFFFFFFFFF AND DUP2 MSTORE PUSH1 0x20 ADD SWAP1 DUP2 MSTORE PUSH1 0x20 ADD PUSH0 KECCAK256 DUP9 DUP2 SLOAD DUP2 LT PUSH2 0x2040 JUMPI PUSH2 0x203F PUSH2 0x2C5B JUMP JUMPDEST JUMPDEST SWAP1 PUSH0 MSTORE PUSH1 0x20 PUSH0 KECCAK256 SWAP1 PUSH1 0x5 MUL ADD PUSH1 0x3 ADD DUP1 SLOAD PUSH2 0x205A SWAP1 PUSH2 0x2C2B JUMP JUMPDEST DUP1 PUSH1 0x1F ADD PUSH1 0x20 DUP1 SWAP2 DIV MUL PUSH1 0x20 ADD PUSH1 0x40 MLOAD SWAP1 DUP2 ADD PUSH1 0x40 MSTORE DUP1 SWAP3 SWAP2 SWAP1 DUP2 DUP2 MSTORE PUSH1 0x20 ADD DUP3 DUP1 SLOAD PUSH2 0x2086 SWAP1 PUSH2 0x2C2B JUMP JUMPDEST DUP1 ISZERO PUSH2 0x20D1 JUMPI DUP1 PUSH1 0x1F LT PUSH2 0x20A8 JUMPI PUSH2 0x100 DUP1 DUP4 SLOAD DIV MUL DUP4 MSTORE SWAP2 PUSH1 0x20 ADD SWAP2 PUSH2 0x20D1 JUMP JUMPDEST DUP3 ADD SWAP2 SWAP1 PUSH0 MSTORE PUSH1 0x20 PUSH0 KECCAK256 SWAP1 JUMPDEST DUP2 SLOAD DUP2 MSTORE SWAP1 PUSH1 0x1 ADD SWAP1 PUSH1 0x20 ADD DUP1 DUP4 GT PUSH2 0x20B4 JUMPI DUP3 SWAP1 SUB PUSH1 0x1F AND DUP3 ADD SWAP2 JUMPDEST POP POP POP POP POP SWAP1 POP PUSH0 DUP1 JUMPDEST PUSH1 0x4 PUSH0 DUP13 PUSH20 0xFFFFFFFFFFFFFFFFFFFFFFFFFFFFFFFFFFFFFFFF AND PUSH20 0xFFFFFFFFFFFFFFFFFFFFFFFFFFFFFFFFFFFFFFFF AND DUP2 MSTORE PUSH1 0x20 ADD SWAP1 DUP2 MSTORE PUSH1 0x20 ADD PUSH0 KECCAK256 DUP1 SLOAD SWAP1 POP DUP2 LT ISZERO PUSH2 0x2233 JUMPI PUSH1 0x4 PUSH0 DUP13 PUSH20 0xFFFFFFFFFFFFFFFFFFFFFFFFFFFFFFFFFFFFFFFF AND PUSH20 0xFFFFFFFFFFFFFFFFFFFFFFFFFFFFFFFFFFFFFFFF AND DUP2 MSTORE PUSH1 0x20 ADD SWAP1 DUP2 MSTORE PUSH1 0x20 ADD PUSH0 KECCAK256 DUP2 DUP2 SLOAD DUP2 LT PUSH2 0x2172 JUMPI PUSH2 0x2171 PUSH2 0x2C5B JUMP JUMPDEST JUMPDEST SWAP1 PUSH0 MSTORE PUSH1 0x20 PUSH0 KECCAK256 SWAP1 PUSH1 0x5 MUL ADD PUSH1 0x3 ADD PUSH1 0x40 MLOAD PUSH2 0x218E SWAP2 SWAP1 PUSH2 0x3557 JUMP JUMPDEST PUSH1 0x40 MLOAD DUP1 SWAP2 SUB SWAP1 KECCAK256 DUP4 DUP1 MLOAD SWAP1 PUSH1 0x20 ADD KECCAK256 SUB PUSH2 0x2220 JUMPI DUP9 PUSH1 0x4 PUSH0 DUP14 PUSH20 0xFFFFFFFFFFFFFFFFFFFFFFFFFFFFFFFFFFFFFFFF AND PUSH20 0xFFFFFFFFFFFFFFFFFFFFFFFFFFFFFFFFFFFFFFFF AND DUP2 MSTORE PUSH1 0x20 ADD SWAP1 DUP2 MSTORE PUSH1 0x20 ADD PUSH0 KECCAK256 DUP3 DUP2 SLOAD DUP2 LT PUSH2 0x21F3 JUMPI PUSH2 0x21F2 PUSH2 0x2C5B JUMP JUMPDEST JUMPDEST SWAP1 PUSH0 MSTORE PUSH1 0x20 PUSH0 KECCAK256 SWAP1 PUSH1 0x5 MUL ADD PUSH1 0x1 ADD PUSH0 DUP3 DUP3 SLOAD PUSH2 0x2210 SWAP2 SWAP1 PUSH2 0x2CF6 JUMP JUMPDEST SWAP3 POP POP DUP2 SWAP1 SSTORE POP PUSH1 0x1 SWAP2 POP PUSH2 0x2233 JUMP JUMPDEST DUP1 DUP1 PUSH2 0x222B SWAP1 PUSH2 0x2D5C JUMP JUMPDEST SWAP2 POP POP PUSH2 0x20DB JUMP JUMPDEST POP DUP1 PUSH2 0x23B7 JUMPI PUSH0 PUSH1 0x40 MLOAD DUP1 PUSH1 0xA0 ADD PUSH1 0x40 MSTORE DUP1 DUP10 PUSH20 0xFFFFFFFFFFFFFFFFFFFFFFFFFFFFFFFFFFFFFFFF AND DUP2 MSTORE PUSH1 0x20 ADD DUP11 DUP2 MSTORE PUSH1 0x20 ADD DUP7 DUP2 MSTORE PUSH1 0x20 ADD DUP5 DUP2 MSTORE PUSH1 0x20 ADD PUSH1 0x5 PUSH0 DUP12 PUSH20 0xFFFFFFFFFFFFFFFFFFFFFFFFFFFFFFFFFFFFFFFF AND PUSH20 0xFFFFFFFFFFFFFFFFFFFFFFFFFFFFFFFFFFFFFFFF AND DUP2 MSTORE PUSH1 0x20 ADD SWAP1 DUP2 MSTORE PUSH1 0x20 ADD PUSH0 KECCAK256 DUP13 DUP2 SLOAD DUP2 LT PUSH2 0x22C2 JUMPI PUSH2 0x22C1 PUSH2 0x2C5B JUMP JUMPDEST JUMPDEST SWAP1 PUSH0 MSTORE PUSH1 0x20 PUSH0 KECCAK256 SWAP1 PUSH1 0x5 MUL ADD PUSH1 0x4 ADD SLOAD DUP2 MSTORE POP SWAP1 POP PUSH1 0x4 PUSH0 DUP13 PUSH20 0xFFFFFFFFFFFFFFFFFFFFFFFFFFFFFFFFFFFFFFFF AND PUSH20 0xFFFFFFFFFFFFFFFFFFFFFFFFFFFFFFFFFFFFFFFF AND DUP2 MSTORE PUSH1 0x20 ADD SWAP1 DUP2 MSTORE PUSH1 0x20 ADD PUSH0 KECCAK256 DUP2 SWAP1 DUP1 PUSH1 0x1 DUP2 SLOAD ADD DUP1 DUP3 SSTORE DUP1 SWAP2 POP POP PUSH1 0x1 SWAP1 SUB SWAP1 PUSH0 MSTORE PUSH1 0x20 PUSH0 KECCAK256 SWAP1 PUSH1 0x5 MUL ADD PUSH0 SWAP1 SWAP2 SWAP1 SWAP2 SWAP1 SWAP2 POP PUSH0 DUP3 ADD MLOAD DUP2 PUSH0 ADD PUSH0 PUSH2 0x100 EXP DUP2 SLOAD DUP2 PUSH20 0xFFFFFFFFFFFFFFFFFFFFFFFFFFFFFFFFFFFFFFFF MUL NOT AND SWAP1 DUP4 PUSH20 0xFFFFFFFFFFFFFFFFFFFFFFFFFFFFFFFFFFFFFFFF AND MUL OR SWAP1 SSTORE POP PUSH1 0x20 DUP3 ADD MLOAD DUP2 PUSH1 0x1 ADD SSTORE PUSH1 0x40 DUP3 ADD MLOAD DUP2 PUSH1 0x2 ADD SSTORE PUSH1 0x60 DUP3 ADD MLOAD DUP2 PUSH1 0x3 ADD SWAP1 DUP2 PUSH2 0x23A8 SWAP2 SWAP1 PUSH2 0x31D6 JUMP JUMPDEST POP PUSH1 0x80 DUP3 ADD MLOAD DUP2 PUSH1 0x4 ADD SSTORE POP POP POP JUMPDEST DUP8 PUSH1 0x5 PUSH0 DUP10 PUSH20 0xFFFFFFFFFFFFFFFFFFFFFFFFFFFFFFFFFFFFFFFF AND PUSH20 0xFFFFFFFFFFFFFFFFFFFFFFFFFFFFFFFFFFFFFFFF AND DUP2 MSTORE PUSH1 0x20 ADD SWAP1 DUP2 MSTORE PUSH1 0x20 ADD PUSH0 KECCAK256 DUP11 DUP2 SLOAD DUP2 LT PUSH2 0x2407 JUMPI PUSH2 0x2406 PUSH2 0x2C5B JUMP JUMPDEST JUMPDEST SWAP1 PUSH0 MSTORE PUSH1 0x20 PUSH0 KECCAK256 SWAP1 PUSH1 0x5 MUL ADD PUSH1 0x1 ADD PUSH0 DUP3 DUP3 SLOAD PUSH2 0x2424 SWAP2 SWAP1 PUSH2 0x2D29 JUMP JUMPDEST SWAP3 POP POP DUP2 SWAP1 SSTORE POP DUP3 CALLVALUE GT ISZERO PUSH2 0x2483 JUMPI CALLER PUSH20 0xFFFFFFFFFFFFFFFFFFFFFFFFFFFFFFFFFFFFFFFF AND PUSH2 0x8FC DUP5 CALLVALUE PUSH2 0x2459 SWAP2 SWAP1 PUSH2 0x2D29 JUMP JUMPDEST SWAP1 DUP2 ISZERO MUL SWAP1 PUSH1 0x40 MLOAD PUSH0 PUSH1 0x40 MLOAD DUP1 DUP4 SUB DUP2 DUP6 DUP9 DUP9 CALL SWAP4 POP POP POP POP ISZERO DUP1 ISZERO PUSH2 0x2481 JUMPI RETURNDATASIZE PUSH0 DUP1 RETURNDATACOPY RETURNDATASIZE PUSH0 REVERT JUMPDEST POP JUMPDEST POP POP POP POP POP POP POP POP POP POP JUMP JUMPDEST POP DUP1 SLOAD PUSH2 0x249B SWAP1 PUSH2 0x2C2B JUMP JUMPDEST PUSH0 DUP3 SSTORE DUP1 PUSH1 0x1F LT PUSH2 0x24AC JUMPI POP PUSH2 0x24C9 JUMP JUMPDEST PUSH1 0x1F ADD PUSH1 0x20 SWAP1 DIV SWAP1 PUSH0 MSTORE PUSH1 0x20 PUSH0 KECCAK256 SWAP1 DUP2 ADD SWAP1 PUSH2 0x24C8 SWAP2 SWAP1 PUSH2 0x24CC JUMP JUMPDEST JUMPDEST POP JUMP JUMPDEST JUMPDEST DUP1 DUP3 GT ISZERO PUSH2 0x24E3 JUMPI PUSH0 DUP2 PUSH0 SWAP1 SSTORE POP PUSH1 0x1 ADD PUSH2 0x24CD JUMP JUMPDEST POP SWAP1 JUMP JUMPDEST PUSH0 PUSH1 0x40 MLOAD SWAP1 POP SWAP1 JUMP JUMPDEST PUSH0 DUP1 REVERT JUMPDEST PUSH0 DUP1 REVERT JUMPDEST PUSH0 PUSH20 0xFFFFFFFFFFFFFFFFFFFFFFFFFFFFFFFFFFFFFFFF DUP3 AND SWAP1 POP SWAP2 SWAP1 POP JUMP JUMPDEST PUSH0 PUSH2 0x2521 DUP3 PUSH2 0x24F8 JUMP JUMPDEST SWAP1 POP SWAP2 SWAP1 POP JUMP JUMPDEST PUSH2 0x2531 DUP2 PUSH2 0x2517 JUMP JUMPDEST DUP2 EQ PUSH2 0x253B JUMPI PUSH0 DUP1 REVERT JUMPDEST POP JUMP JUMPDEST PUSH0 DUP2 CALLDATALOAD SWAP1 POP PUSH2 0x254C DUP2 PUSH2 0x2528 JUMP JUMPDEST SWAP3 SWAP2 POP POP JUMP JUMPDEST PUSH0 DUP2 SWAP1 POP SWAP2 SWAP1 POP JUMP JUMPDEST PUSH2 0x2564 DUP2 PUSH2 0x2552 JUMP JUMPDEST DUP2 EQ PUSH2 0x256E JUMPI PUSH0 DUP1 REVERT JUMPDEST POP JUMP JUMPDEST PUSH0 DUP2 CALLDATALOAD SWAP1 POP PUSH2 0x257F DUP2 PUSH2 0x255B JUMP JUMPDEST SWAP3 SWAP2 POP POP JUMP JUMPDEST PUSH0 DUP1 PUSH1 0x40 DUP4 DUP6 SUB SLT ISZERO PUSH2 0x259B JUMPI PUSH2 0x259A PUSH2 0x24F0 JUMP JUMPDEST JUMPDEST PUSH0 PUSH2 0x25A8 DUP6 DUP3 DUP7 ADD PUSH2 0x253E JUMP JUMPDEST SWAP3 POP POP PUSH1 0x20 PUSH2 0x25B9 DUP6 DUP3 DUP7 ADD PUSH2 0x2571 JUMP JUMPDEST SWAP2 POP POP SWAP3 POP SWAP3 SWAP1 POP JUMP JUMPDEST PUSH2 0x25CC DUP2 PUSH2 0x2517 JUMP JUMPDEST DUP3 MSTORE POP POP JUMP JUMPDEST PUSH2 0x25DB DUP2 PUSH2 0x2552 JUMP JUMPDEST DUP3 MSTORE POP POP JUMP JUMPDEST PUSH0 DUP2 MLOAD SWAP1 POP SWAP2 SWAP1 POP JUMP JUMPDEST PUSH0 DUP3 DUP3 MSTORE PUSH1 0x20 DUP3 ADD SWAP1 POP SWAP3 SWAP2 POP POP JUMP JUMPDEST PUSH0 JUMPDEST DUP4 DUP2 LT ISZERO PUSH2 0x2618 JUMPI DUP1 DUP3 ADD MLOAD DUP2 DUP5 ADD MSTORE PUSH1 0x20 DUP2 ADD SWAP1 POP PUSH2 0x25FD JUMP JUMPDEST PUSH0 DUP5 DUP5 ADD MSTORE POP POP POP POP JUMP JUMPDEST PUSH0 PUSH1 0x1F NOT PUSH1 0x1F DUP4 ADD AND SWAP1 POP SWAP2 SWAP1 POP JUMP JUMPDEST PUSH0 PUSH2 0x263D DUP3 PUSH2 0x25E1 JUMP JUMPDEST PUSH2 0x2647 DUP2 DUP6 PUSH2 0x25EB JUMP JUMPDEST SWAP4 POP PUSH2 0x2657 DUP2 DUP6 PUSH1 0x20 DUP7 ADD PUSH2 0x25FB JUMP JUMPDEST PUSH2 0x2660 DUP2 PUSH2 0x2623 JUMP JUMPDEST DUP5 ADD SWAP2 POP POP SWAP3 SWAP2 POP POP JUMP JUMPDEST PUSH0 PUSH1 0xA0 DUP3 ADD SWAP1 POP PUSH2 0x267E PUSH0 DUP4 ADD DUP9 PUSH2 0x25C3 JUMP JUMPDEST PUSH2 0x268B PUSH1 0x20 DUP4 ADD DUP8 PUSH2 0x25D2 JUMP JUMPDEST PUSH2 0x2698 PUSH1 0x40 DUP4 ADD DUP7 PUSH2 0x25D2 JUMP JUMPDEST DUP2 DUP2 SUB PUSH1 0x60 DUP4 ADD MSTORE PUSH2 0x26AA DUP2 DUP6 PUSH2 0x2633 JUMP JUMPDEST SWAP1 POP PUSH2 0x26B9 PUSH1 0x80 DUP4 ADD DUP5 PUSH2 0x25D2 JUMP JUMPDEST SWAP7 SWAP6 POP POP POP POP POP POP JUMP JUMPDEST PUSH0 PUSH1 0x20 DUP3 DUP5 SUB SLT ISZERO PUSH2 0x26D8 JUMPI PUSH2 0x26D7 PUSH2 0x24F0 JUMP JUMPDEST JUMPDEST PUSH0 PUSH2 0x26E5 DUP5 DUP3 DUP6 ADD PUSH2 0x2571 JUMP JUMPDEST SWAP2 POP POP SWAP3 SWAP2 POP POP JUMP JUMPDEST PUSH32 0x4E487B7100000000000000000000000000000000000000000000000000000000 PUSH0 MSTORE PUSH1 0x21 PUSH1 0x4 MSTORE PUSH1 0x24 PUSH0 REVERT JUMPDEST PUSH1 0x3 DUP2 LT PUSH2 0x272C JUMPI PUSH2 0x272B PUSH2 0x26EE JUMP JUMPDEST JUMPDEST POP JUMP JUMPDEST PUSH0 DUP2 SWAP1 POP PUSH2 0x273C DUP3 PUSH2 0x271B JUMP JUMPDEST SWAP2 SWAP1 POP JUMP JUMPDEST PUSH0 PUSH2 0x274B DUP3 PUSH2 0x272F JUMP JUMPDEST SWAP1 POP SWAP2 SWAP1 POP JUMP JUMPDEST PUSH2 0x275B DUP2 PUSH2 0x2741 JUMP JUMPDEST DUP3 MSTORE POP POP JUMP JUMPDEST PUSH0 PUSH1 0x40 DUP3 ADD SWAP1 POP PUSH2 0x2774 PUSH0 DUP4 ADD DUP6 PUSH2 0x25C3 JUMP JUMPDEST PUSH2 0x2781 PUSH1 0x20 DUP4 ADD DUP5 PUSH2 0x2752 JUMP JUMPDEST SWAP4 SWAP3 POP POP POP JUMP JUMPDEST PUSH1 0x3 DUP2 LT PUSH2 0x2794 JUMPI PUSH0 DUP1 REVERT JUMPDEST POP JUMP JUMPDEST PUSH0 DUP2 CALLDATALOAD SWAP1 POP PUSH2 0x27A5 DUP2 PUSH2 0x2788 JUMP JUMPDEST SWAP3 SWAP2 POP POP JUMP JUMPDEST PUSH0 PUSH1 0x20 DUP3 DUP5 SUB SLT ISZERO PUSH2 0x27C0 JUMPI PUSH2 0x27BF PUSH2 0x24F0 JUMP JUMPDEST JUMPDEST PUSH0 PUSH2 0x27CD DUP5 DUP3 DUP6 ADD PUSH2 0x2797 JUMP JUMPDEST SWAP2 POP POP SWAP3 SWAP2 POP POP JUMP JUMPDEST PUSH0 PUSH1 0x20 DUP3 ADD SWAP1 POP PUSH2 0x27E9 PUSH0 DUP4 ADD DUP5 PUSH2 0x25D2 JUMP JUMPDEST SWAP3 SWAP2 POP POP JUMP JUMPDEST PUSH0 DUP1 REVERT JUMPDEST PUSH0 DUP1 REVERT JUMPDEST PUSH0 DUP1 REVERT JUMPDEST PUSH0 DUP1 DUP4 PUSH1 0x1F DUP5 ADD SLT PUSH2 0x2810 JUMPI PUSH2 0x280F PUSH2 0x27EF JUMP JUMPDEST JUMPDEST DUP3 CALLDATALOAD SWAP1 POP PUSH8 0xFFFFFFFFFFFFFFFF DUP2 GT ISZERO PUSH2 0x282D JUMPI PUSH2 0x282C PUSH2 0x27F3 JUMP JUMPDEST JUMPDEST PUSH1 0x20 DUP4 ADD SWAP2 POP DUP4 PUSH1 0x1 DUP3 MUL DUP4 ADD GT ISZERO PUSH2 0x2849 JUMPI PUSH2 0x2848 PUSH2 0x27F7 JUMP JUMPDEST JUMPDEST SWAP3 POP SWAP3 SWAP1 POP JUMP JUMPDEST PUSH0 DUP1 PUSH0 DUP1 PUSH0 DUP1 PUSH1 0xA0 DUP8 DUP10 SUB SLT ISZERO PUSH2 0x286A JUMPI PUSH2 0x2869 PUSH2 0x24F0 JUMP JUMPDEST JUMPDEST PUSH0 PUSH2 0x2877 DUP10 DUP3 DUP11 ADD PUSH2 0x2571 JUMP JUMPDEST SWAP7 POP POP PUSH1 0x20 PUSH2 0x2888 DUP10 DUP3 DUP11 ADD PUSH2 0x2571 JUMP JUMPDEST SWAP6 POP POP PUSH1 0x40 DUP8 ADD CALLDATALOAD PUSH8 0xFFFFFFFFFFFFFFFF DUP2 GT ISZERO PUSH2 0x28A9 JUMPI PUSH2 0x28A8 PUSH2 0x24F4 JUMP JUMPDEST JUMPDEST PUSH2 0x28B5 DUP10 DUP3 DUP11 ADD PUSH2 0x27FB JUMP JUMPDEST SWAP5 POP SWAP5 POP POP PUSH1 0x60 PUSH2 0x28C8 DUP10 DUP3 DUP11 ADD PUSH2 0x2571 JUMP JUMPDEST SWAP3 POP POP PUSH1 0x80 PUSH2 0x28D9 DUP10 DUP3 DUP11 ADD PUSH2 0x253E JUMP JUMPDEST SWAP2 POP POP SWAP3 SWAP6 POP SWAP3 SWAP6 POP SWAP3 SWAP6 JUMP JUMPDEST PUSH0 PUSH1 0x20 DUP3 ADD SWAP1 POP PUSH2 0x28F9 PUSH0 DUP4 ADD DUP5 PUSH2 0x25C3 JUMP JUMPDEST SWAP3 SWAP2 POP POP JUMP JUMPDEST PUSH0 DUP1 REVERT JUMPDEST PUSH32 0x4E487B7100000000000000000000000000000000000000000000000000000000 PUSH0 MSTORE PUSH1 0x41 PUSH1 0x4 MSTORE PUSH1 0x24 PUSH0 REVERT JUMPDEST PUSH2 0x2939 DUP3 PUSH2 0x2623 JUMP JUMPDEST DUP2 ADD DUP2 DUP2 LT PUSH8 0xFFFFFFFFFFFFFFFF DUP3 GT OR ISZERO PUSH2 0x2958 JUMPI PUSH2 0x2957 PUSH2 0x2903 JUMP JUMPDEST JUMPDEST DUP1 PUSH1 0x40 MSTORE POP POP POP JUMP JUMPDEST PUSH0 PUSH2 0x296A PUSH2 0x24E7 JUMP JUMPDEST SWAP1 POP PUSH2 0x2976 DUP3 DUP3 PUSH2 0x2930 JUMP JUMPDEST SWAP2 SWAP1 POP JUMP JUMPDEST PUSH0 PUSH8 0xFFFFFFFFFFFFFFFF DUP3 GT ISZERO PUSH2 0x2995 JUMPI PUSH2 0x2994 PUSH2 0x2903 JUMP JUMPDEST JUMPDEST PUSH2 0x299E DUP3 PUSH2 0x2623 JUMP JUMPDEST SWAP1 POP PUSH1 0x20 DUP2 ADD SWAP1 POP SWAP2 SWAP1 POP JUMP JUMPDEST DUP3 DUP2 DUP4 CALLDATACOPY PUSH0 DUP4 DUP4 ADD MSTORE POP POP POP JUMP JUMPDEST PUSH0 PUSH2 0x29CB PUSH2 0x29C6 DUP5 PUSH2 0x297B JUMP JUMPDEST PUSH2 0x2961 JUMP JUMPDEST SWAP1 POP DUP3 DUP2 MSTORE PUSH1 0x20 DUP2 ADD DUP5 DUP5 DUP5 ADD GT ISZERO PUSH2 0x29E7 JUMPI PUSH2 0x29E6 PUSH2 0x28FF JUMP JUMPDEST JUMPDEST PUSH2 0x29F2 DUP5 DUP3 DUP6 PUSH2 0x29AB JUMP JUMPDEST POP SWAP4 SWAP3 POP POP POP JUMP JUMPDEST PUSH0 DUP3 PUSH1 0x1F DUP4 ADD SLT PUSH2 0x2A0E JUMPI PUSH2 0x2A0D PUSH2 0x27EF JUMP JUMPDEST JUMPDEST DUP2 CALLDATALOAD PUSH2 0x2A1E DUP5 DUP3 PUSH1 0x20 DUP7 ADD PUSH2 0x29B9 JUMP JUMPDEST SWAP2 POP POP SWAP3 SWAP2 POP POP JUMP JUMPDEST PUSH0 DUP1 PUSH0 DUP1 PUSH1 0x80 DUP6 DUP8 SUB SLT ISZERO PUSH2 0x2A3F JUMPI PUSH2 0x2A3E PUSH2 0x24F0 JUMP JUMPDEST JUMPDEST PUSH0 PUSH2 0x2A4C DUP8 DUP3 DUP9 ADD PUSH2 0x253E JUMP JUMPDEST SWAP5 POP POP PUSH1 0x20 PUSH2 0x2A5D DUP8 DUP3 DUP9 ADD PUSH2 0x2571 JUMP JUMPDEST SWAP4 POP POP PUSH1 0x40 PUSH2 0x2A6E DUP8 DUP3 DUP9 ADD PUSH2 0x2571 JUMP JUMPDEST SWAP3 POP POP PUSH1 0x60 DUP6 ADD CALLDATALOAD PUSH8 0xFFFFFFFFFFFFFFFF DUP2 GT ISZERO PUSH2 0x2A8F JUMPI PUSH2 0x2A8E PUSH2 0x24F4 JUMP JUMPDEST JUMPDEST PUSH2 0x2A9B DUP8 DUP3 DUP9 ADD PUSH2 0x29FA JUMP JUMPDEST SWAP2 POP POP SWAP3 SWAP6 SWAP2 SWAP5 POP SWAP3 POP JUMP JUMPDEST PUSH0 DUP1 PUSH1 0x40 DUP4 DUP6 SUB SLT ISZERO PUSH2 0x2ABD JUMPI PUSH2 0x2ABC PUSH2 0x24F0 JUMP JUMPDEST JUMPDEST PUSH0 DUP4 ADD CALLDATALOAD PUSH8 0xFFFFFFFFFFFFFFFF DUP2 GT ISZERO PUSH2 0x2ADA JUMPI PUSH2 0x2AD9 PUSH2 0x24F4 JUMP JUMPDEST JUMPDEST PUSH2 0x2AE6 DUP6 DUP3 DUP7 ADD PUSH2 0x29FA JUMP JUMPDEST SWAP3 POP POP PUSH1 0x20 PUSH2 0x2AF7 DUP6 DUP3 DUP7 ADD PUSH2 0x253E JUMP JUMPDEST SWAP2 POP POP SWAP3 POP SWAP3 SWAP1 POP JUMP JUMPDEST PUSH0 PUSH1 0x20 DUP3 DUP5 SUB SLT ISZERO PUSH2 0x2B16 JUMPI PUSH2 0x2B15 PUSH2 0x24F0 JUMP JUMPDEST JUMPDEST PUSH0 PUSH2 0x2B23 DUP5 DUP3 DUP6 ADD PUSH2 0x253E JUMP JUMPDEST SWAP2 POP POP SWAP3 SWAP2 POP POP JUMP JUMPDEST PUSH0 PUSH1 0x40 DUP3 ADD SWAP1 POP PUSH2 0x2B3F PUSH0 DUP4 ADD DUP6 PUSH2 0x2752 JUMP JUMPDEST PUSH2 0x2B4C PUSH1 0x20 DUP4 ADD DUP5 PUSH2 0x25D2 JUMP JUMPDEST SWAP4 SWAP3 POP POP POP JUMP JUMPDEST PUSH0 PUSH1 0x20 DUP3 DUP5 SUB SLT ISZERO PUSH2 0x2B68 JUMPI PUSH2 0x2B67 PUSH2 0x24F0 JUMP JUMPDEST JUMPDEST PUSH0 DUP3 ADD CALLDATALOAD PUSH8 0xFFFFFFFFFFFFFFFF DUP2 GT ISZERO PUSH2 0x2B85 JUMPI PUSH2 0x2B84 PUSH2 0x24F4 JUMP JUMPDEST JUMPDEST PUSH2 0x2B91 DUP5 DUP3 DUP6 ADD PUSH2 0x29FA JUMP JUMPDEST SWAP2 POP POP SWAP3 SWAP2 POP POP JUMP JUMPDEST PUSH0 DUP1 PUSH0 DUP1 PUSH1 0x80 DUP6 DUP8 SUB SLT ISZERO PUSH2 0x2BB2 JUMPI PUSH2 0x2BB1 PUSH2 0x24F0 JUMP JUMPDEST JUMPDEST PUSH0 PUSH2 0x2BBF DUP8 DUP3 DUP9 ADD PUSH2 0x253E JUMP JUMPDEST SWAP5 POP POP PUSH1 0x20 PUSH2 0x2BD0 DUP8 DUP3 DUP9 ADD PUSH2 0x2571 JUMP JUMPDEST SWAP4 POP POP PUSH1 0x40 PUSH2 0x2BE1 DUP8 DUP3 DUP9 ADD PUSH2 0x2571 JUMP JUMPDEST SWAP3 POP POP PUSH1 0x60 PUSH2 0x2BF2 DUP8 DUP3 DUP9 ADD PUSH2 0x253E JUMP JUMPDEST SWAP2 POP POP SWAP3 SWAP6 SWAP2 SWAP5 POP SWAP3 POP JUMP JUMPDEST PUSH32 0x4E487B7100000000000000000000000000000000000000000000000000000000 PUSH0 MSTORE PUSH1 0x22 PUSH1 0x4 MSTORE PUSH1 0x24 PUSH0 REVERT JUMPDEST PUSH0 PUSH1 0x2 DUP3 DIV SWAP1 POP PUSH1 0x1 DUP3 AND DUP1 PUSH2 0x2C42 JUMPI PUSH1 0x7F DUP3 AND SWAP2 POP JUMPDEST PUSH1 0x20 DUP3 LT DUP2 SUB PUSH2 0x2C55 JUMPI PUSH2 0x2C54 PUSH2 0x2BFE JUMP JUMPDEST JUMPDEST POP SWAP2 SWAP1 POP JUMP JUMPDEST PUSH32 0x4E487B7100000000000000000000000000000000000000000000000000000000 PUSH0 MSTORE PUSH1 0x32 PUSH1 0x4 MSTORE PUSH1 0x24 PUSH0 REVERT JUMPDEST PUSH32 0x4E487B7100000000000000000000000000000000000000000000000000000000 PUSH0 MSTORE PUSH1 0x11 PUSH1 0x4 MSTORE PUSH1 0x24 PUSH0 REVERT JUMPDEST PUSH0 PUSH2 0x2CBF DUP3 PUSH2 0x2552 JUMP JUMPDEST SWAP2 POP PUSH2 0x2CCA DUP4 PUSH2 0x2552 JUMP JUMPDEST SWAP3 POP DUP3 DUP3 MUL PUSH2 0x2CD8 DUP2 PUSH2 0x2552 JUMP JUMPDEST SWAP2 POP DUP3 DUP3 DIV DUP5 EQ DUP4 ISZERO OR PUSH2 0x2CEF JUMPI PUSH2 0x2CEE PUSH2 0x2C88 JUMP JUMPDEST JUMPDEST POP SWAP3 SWAP2 POP POP JUMP JUMPDEST PUSH0 PUSH2 0x2D00 DUP3 PUSH2 0x2552 JUMP JUMPDEST SWAP2 POP PUSH2 0x2D0B DUP4 PUSH2 0x2552 JUMP JUMPDEST SWAP3 POP DUP3 DUP3 ADD SWAP1 POP DUP1 DUP3 GT ISZERO PUSH2 0x2D23 JUMPI PUSH2 0x2D22 PUSH2 0x2C88 JUMP JUMPDEST JUMPDEST SWAP3 SWAP2 POP POP JUMP JUMPDEST PUSH0 PUSH2 0x2D33 DUP3 PUSH2 0x2552 JUMP JUMPDEST SWAP2 POP PUSH2 0x2D3E DUP4 PUSH2 0x2552 JUMP JUMPDEST SWAP3 POP DUP3 DUP3 SUB SWAP1 POP DUP2 DUP2 GT ISZERO PUSH2 0x2D56 JUMPI PUSH2 0x2D55 PUSH2 0x2C88 JUMP JUMPDEST JUMPDEST SWAP3 SWAP2 POP POP JUMP JUMPDEST PUSH0 PUSH2 0x2D66 DUP3 PUSH2 0x2552 JUMP JUMPDEST SWAP2 POP PUSH32 0xFFFFFFFFFFFFFFFFFFFFFFFFFFFFFFFFFFFFFFFFFFFFFFFFFFFFFFFFFFFFFFFF DUP3 SUB PUSH2 0x2D98 JUMPI PUSH2 0x2D97 PUSH2 0x2C88 JUMP JUMPDEST JUMPDEST PUSH1 0x1 DUP3 ADD SWAP1 POP SWAP2 SWAP1 POP JUMP JUMPDEST PUSH0 DUP2 SWAP1 POP SWAP2 SWAP1 POP JUMP JUMPDEST PUSH2 0x2DBD PUSH2 0x2DB8 DUP3 PUSH2 0x2552 JUMP JUMPDEST PUSH2 0x2DA3 JUMP JUMPDEST DUP3 MSTORE POP POP JUMP JUMPDEST PUSH0 DUP2 PUSH1 0x60 SHL SWAP1 POP SWAP2 SWAP1 POP JUMP JUMPDEST PUSH0 PUSH2 0x2DD9 DUP3 PUSH2 0x2DC3 JUMP JUMPDEST SWAP1 POP SWAP2 SWAP1 POP JUMP JUMPDEST PUSH0 PUSH2 0x2DEA DUP3 PUSH2 0x2DCF JUMP JUMPDEST SWAP1 POP SWAP2 SWAP1 POP JUMP JUMPDEST PUSH2 0x2E02 PUSH2 0x2DFD DUP3 PUSH2 0x2517 JUMP JUMPDEST PUSH2 0x2DE0 JUMP JUMPDEST DUP3 MSTORE POP POP JUMP JUMPDEST PUSH0 PUSH2 0x2E13 DUP3 DUP7 PUSH2 0x2DAC JUMP JUMPDEST PUSH1 0x20 DUP3 ADD SWAP2 POP PUSH2 0x2E23 DUP3 DUP6 PUSH2 0x2DF1 JUMP JUMPDEST PUSH1 0x14 DUP3 ADD SWAP2 POP PUSH2 0x2E33 DUP3 DUP5 PUSH2 0x2DAC JUMP JUMPDEST PUSH1 0x20 DUP3 ADD SWAP2 POP DUP2 SWAP1 POP SWAP5 SWAP4 POP POP POP POP JUMP JUMPDEST PUSH32 0x4E487B7100000000000000000000000000000000000000000000000000000000 PUSH0 MSTORE PUSH1 0x12 PUSH1 0x4 MSTORE PUSH1 0x24 PUSH0 REVERT JUMPDEST PUSH0 PUSH2 0x2E7B DUP3 PUSH2 0x2552 JUMP JUMPDEST SWAP2 POP PUSH2 0x2E86 DUP4 PUSH2 0x2552 JUMP JUMPDEST SWAP3 POP DUP3 PUSH2 0x2E96 JUMPI PUSH2 0x2E95 PUSH2 0x2E44 JUMP JUMPDEST JUMPDEST DUP3 DUP3 MOD SWAP1 POP SWAP3 SWAP2 POP POP JUMP JUMPDEST PUSH32 0xD092D0B0D188D0B020D180D0BED0BBD18C20D0BDD0B520D0BFD0BED0B7D0B2D0 PUSH0 DUP3 ADD MSTORE PUSH32 0xBED0BBD18FD0B5D18220D18DD182D0BE20D0B8D0B7D0BCD0B5D0BDD18FD182D1 PUSH1 0x20 DUP3 ADD MSTORE PUSH32 0x8C00000000000000000000000000000000000000000000000000000000000000 PUSH1 0x40 DUP3 ADD MSTORE POP JUMP JUMPDEST PUSH0 PUSH2 0x2F21 PUSH1 0x41 DUP4 PUSH2 0x25EB JUMP JUMPDEST SWAP2 POP PUSH2 0x2F2C DUP3 PUSH2 0x2EA1 JUMP JUMPDEST PUSH1 0x60 DUP3 ADD SWAP1 POP SWAP2 SWAP1 POP JUMP JUMPDEST PUSH0 PUSH1 0x20 DUP3 ADD SWAP1 POP DUP2 DUP2 SUB PUSH0 DUP4 ADD MSTORE PUSH2 0x2F4E DUP2 PUSH2 0x2F15 JUMP JUMPDEST SWAP1 POP SWAP2 SWAP1 POP JUMP JUMPDEST PUSH32 0xD09CD0B0D0B3D0B0D0B7D0B8D0BD20D0BDD0B520D181D0BED0BED182D0B2D0B5 PUSH0 DUP3 ADD MSTORE PUSH32 0xD182D181D0B2D183D0B5D18220D0BED182D0BFD180D0B0D0B2D0B8D182D0B5D0 PUSH1 0x20 DUP3 ADD MSTORE PUSH32 0xBBD18E0000000000000000000000000000000000000000000000000000000000 PUSH1 0x40 DUP3 ADD MSTORE POP JUMP JUMPDEST PUSH0 PUSH2 0x2FD5 PUSH1 0x43 DUP4 PUSH2 0x25EB JUMP JUMPDEST SWAP2 POP PUSH2 0x2FE0 DUP3 PUSH2 0x2F55 JUMP JUMPDEST PUSH1 0x60 DUP3 ADD SWAP1 POP SWAP2 SWAP1 POP JUMP JUMPDEST PUSH0 PUSH1 0x20 DUP3 ADD SWAP1 POP DUP2 DUP2 SUB PUSH0 DUP4 ADD MSTORE PUSH2 0x3002 DUP2 PUSH2 0x2FC9 JUMP JUMPDEST SWAP1 POP SWAP2 SWAP1 POP JUMP JUMPDEST PUSH0 PUSH2 0x3013 DUP3 PUSH2 0x2552 JUMP JUMPDEST SWAP2 POP PUSH2 0x301E DUP4 PUSH2 0x2552 JUMP JUMPDEST SWAP3 POP DUP3 PUSH2 0x302E JUMPI PUSH2 0x302D PUSH2 0x2E44 JUMP JUMPDEST JUMPDEST DUP3 DUP3 DIV SWAP1 POP SWAP3 SWAP2 POP POP JUMP JUMPDEST PUSH0 DUP2 SWAP1 POP DUP2 PUSH0 MSTORE PUSH1 0x20 PUSH0 KECCAK256 SWAP1 POP SWAP2 SWAP1 POP JUMP JUMPDEST PUSH0 PUSH1 0x20 PUSH1 0x1F DUP4 ADD DIV SWAP1 POP SWAP2 SWAP1 POP JUMP JUMPDEST PUSH0 DUP3 DUP3 SHL SWAP1 POP SWAP3 SWAP2 POP POP JUMP JUMPDEST PUSH0 PUSH1 0x8 DUP4 MUL PUSH2 0x3095 PUSH32 0xFFFFFFFFFFFFFFFFFFFFFFFFFFFFFFFFFFFFFFFFFFFFFFFFFFFFFFFFFFFFFFFF DUP3 PUSH2 0x305A JUMP JUMPDEST PUSH2 0x309F DUP7 DUP4 PUSH2 0x305A JUMP JUMPDEST SWAP6 POP DUP1 NOT DUP5 AND SWAP4 POP DUP1 DUP7 AND DUP5 OR SWAP3 POP POP POP SWAP4 SWAP3 POP POP POP JUMP JUMPDEST PUSH0 DUP2 SWAP1 POP SWAP2 SWAP1 POP JUMP JUMPDEST PUSH0 PUSH2 0x30DA PUSH2 0x30D5 PUSH2 0x30D0 DUP5 PUSH2 0x2552 JUMP JUMPDEST PUSH2 0x30B7 JUMP JUMPDEST PUSH2 0x2552 JUMP JUMPDEST SWAP1 POP SWAP2 SWAP1 POP JUMP JUMPDEST PUSH0 DUP2 SWAP1 POP SWAP2 SWAP1 POP JUMP JUMPDEST PUSH2 0x30F3 DUP4 PUSH2 0x30C0 JUMP JUMPDEST PUSH2 0x3107 PUSH2 0x30FF DUP3 PUSH2 0x30E1 JUMP JUMPDEST DUP5 DUP5 SLOAD PUSH2 0x3066 JUMP JUMPDEST DUP3 SSTORE POP POP POP POP JUMP JUMPDEST PUSH0 SWAP1 JUMP JUMPDEST PUSH2 0x311B PUSH2 0x310F JUMP JUMPDEST PUSH2 0x3126 DUP2 DUP5 DUP5 PUSH2 0x30EA JUMP JUMPDEST POP POP POP JUMP JUMPDEST JUMPDEST DUP2 DUP2 LT ISZERO PUSH2 0x3149 JUMPI PUSH2 0x313E PUSH0 DUP3 PUSH2 0x3113 JUMP JUMPDEST PUSH1 0x1 DUP2 ADD SWAP1 POP PUSH2 0x312C JUMP JUMPDEST POP POP JUMP JUMPDEST PUSH1 0x1F DUP3 GT ISZERO PUSH2 0x318E JUMPI PUSH2 0x315F DUP2 PUSH2 0x3039 JUMP JUMPDEST PUSH2 0x3168 DUP5 PUSH2 0x304B JUMP JUMPDEST DUP2 ADD PUSH1 0x20 DUP6 LT ISZERO PUSH2 0x3177 JUMPI DUP2 SWAP1 POP JUMPDEST PUSH2 0x318B PUSH2 0x3183 DUP6 PUSH2 0x304B JUMP JUMPDEST DUP4 ADD DUP3 PUSH2 0x312B JUMP JUMPDEST POP POP JUMPDEST POP POP POP JUMP JUMPDEST PUSH0 DUP3 DUP3 SHR SWAP1 POP SWAP3 SWAP2 POP POP JUMP JUMPDEST PUSH0 PUSH2 0x31AE PUSH0 NOT DUP5 PUSH1 0x8 MUL PUSH2 0x3193 JUMP JUMPDEST NOT DUP1 DUP4 AND SWAP2 POP POP SWAP3 SWAP2 POP POP JUMP JUMPDEST PUSH0 PUSH2 0x31C6 DUP4 DUP4 PUSH2 0x319F JUMP JUMPDEST SWAP2 POP DUP3 PUSH1 0x2 MUL DUP3 OR SWAP1 POP SWAP3 SWAP2 POP POP JUMP JUMPDEST PUSH2 0x31DF DUP3 PUSH2 0x25E1 JUMP JUMPDEST PUSH8 0xFFFFFFFFFFFFFFFF DUP2 GT ISZERO PUSH2 0x31F8 JUMPI PUSH2 0x31F7 PUSH2 0x2903 JUMP JUMPDEST JUMPDEST PUSH2 0x3202 DUP3 SLOAD PUSH2 0x2C2B JUMP JUMPDEST PUSH2 0x320D DUP3 DUP3 DUP6 PUSH2 0x314D JUMP JUMPDEST PUSH0 PUSH1 0x20 SWAP1 POP PUSH1 0x1F DUP4 GT PUSH1 0x1 DUP2 EQ PUSH2 0x323E JUMPI PUSH0 DUP5 ISZERO PUSH2 0x322C JUMPI DUP3 DUP8 ADD MLOAD SWAP1 POP JUMPDEST PUSH2 0x3236 DUP6 DUP3 PUSH2 0x31BB JUMP JUMPDEST DUP7 SSTORE POP PUSH2 0x329D JUMP JUMPDEST PUSH1 0x1F NOT DUP5 AND PUSH2 0x324C DUP7 PUSH2 0x3039 JUMP JUMPDEST PUSH0 JUMPDEST DUP3 DUP2 LT ISZERO PUSH2 0x3273 JUMPI DUP5 DUP10 ADD MLOAD DUP3 SSTORE PUSH1 0x1 DUP3 ADD SWAP2 POP PUSH1 0x20 DUP6 ADD SWAP5 POP PUSH1 0x20 DUP2 ADD SWAP1 POP PUSH2 0x324E JUMP JUMPDEST DUP7 DUP4 LT ISZERO PUSH2 0x3290 JUMPI DUP5 DUP10 ADD MLOAD PUSH2 0x328C PUSH1 0x1F DUP10 AND DUP3 PUSH2 0x319F JUMP JUMPDEST DUP4 SSTORE POP JUMPDEST PUSH1 0x1 PUSH1 0x2 DUP9 MUL ADD DUP9 SSTORE POP POP POP JUMPDEST POP POP POP POP POP POP JUMP JUMPDEST PUSH32 0x507572636861736520616D6F756E74206D757374206265206772656174657220 PUSH0 DUP3 ADD MSTORE PUSH32 0x7468616E20300000000000000000000000000000000000000000000000000000 PUSH1 0x20 DUP3 ADD MSTORE POP JUMP JUMPDEST PUSH0 PUSH2 0x32FF PUSH1 0x26 DUP4 PUSH2 0x25EB JUMP JUMPDEST SWAP2 POP PUSH2 0x330A DUP3 PUSH2 0x32A5 JUMP JUMPDEST PUSH1 0x40 DUP3 ADD SWAP1 POP SWAP2 SWAP1 POP JUMP JUMPDEST PUSH0 PUSH1 0x20 DUP3 ADD SWAP1 POP DUP2 DUP2 SUB PUSH0 DUP4 ADD MSTORE PUSH2 0x332C DUP2 PUSH2 0x32F3 JUMP JUMPDEST SWAP1 POP SWAP2 SWAP1 POP JUMP JUMPDEST PUSH32 0x496E76616C69642070726F647563742049440000000000000000000000000000 PUSH0 DUP3 ADD MSTORE POP JUMP JUMPDEST PUSH0 PUSH2 0x3367 PUSH1 0x12 DUP4 PUSH2 0x25EB JUMP JUMPDEST SWAP2 POP PUSH2 0x3372 DUP3 PUSH2 0x3333 JUMP JUMPDEST PUSH1 0x20 DUP3 ADD SWAP1 POP SWAP2 SWAP1 POP JUMP JUMPDEST PUSH0 PUSH1 0x20 DUP3 ADD SWAP1 POP DUP2 DUP2 SUB PUSH0 DUP4 ADD MSTORE PUSH2 0x3394 DUP2 PUSH2 0x335B JUMP JUMPDEST SWAP1 POP SWAP2 SWAP1 POP JUMP JUMPDEST PUSH32 0x4E6F7420656E6F7567682073746F636B20617661696C61626C65000000000000 PUSH0 DUP3 ADD MSTORE POP JUMP JUMPDEST PUSH0 PUSH2 0x33CF PUSH1 0x1A DUP4 PUSH2 0x25EB JUMP JUMPDEST SWAP2 POP PUSH2 0x33DA DUP3 PUSH2 0x339B JUMP JUMPDEST PUSH1 0x20 DUP3 ADD SWAP1 POP SWAP2 SWAP1 POP JUMP JUMPDEST PUSH0 PUSH1 0x20 DUP3 ADD SWAP1 POP DUP2 DUP2 SUB PUSH0 DUP4 ADD MSTORE PUSH2 0x33FC DUP2 PUSH2 0x33C3 JUMP JUMPDEST SWAP1 POP SWAP2 SWAP1 POP JUMP JUMPDEST PUSH0 DUP2 SWAP1 POP SWAP3 SWAP2 POP POP JUMP JUMPDEST PUSH0 PUSH2 0x3417 DUP3 PUSH2 0x25E1 JUMP JUMPDEST PUSH2 0x3421 DUP2 DUP6 PUSH2 0x3403 JUMP JUMPDEST SWAP4 POP PUSH2 0x3431 DUP2 DUP6 PUSH1 0x20 DUP7 ADD PUSH2 0x25FB JUMP JUMPDEST DUP1 DUP5 ADD SWAP2 POP POP SWAP3 SWAP2 POP POP JUMP JUMPDEST PUSH0 PUSH2 0x3448 DUP3 DUP5 PUSH2 0x340D JUMP JUMPDEST SWAP2 POP DUP2 SWAP1 POP SWAP3 SWAP2 POP POP JUMP JUMPDEST PUSH32 0x496E73756666696369656E742066756E64732073656E74000000000000000000 PUSH0 DUP3 ADD MSTORE POP JUMP JUMPDEST PUSH0 PUSH2 0x3487 PUSH1 0x17 DUP4 PUSH2 0x25EB JUMP JUMPDEST SWAP2 POP PUSH2 0x3492 DUP3 PUSH2 0x3453 JUMP JUMPDEST PUSH1 0x20 DUP3 ADD SWAP1 POP SWAP2 SWAP1 POP JUMP JUMPDEST PUSH0 PUSH1 0x20 DUP3 ADD SWAP1 POP DUP2 DUP2 SUB PUSH0 DUP4 ADD MSTORE PUSH2 0x34B4 DUP2 PUSH2 0x347B JUMP JUMPDEST SWAP1 POP SWAP2 SWAP1 POP JUMP JUMPDEST PUSH0 DUP2 SWAP1 POP SWAP3 SWAP2 POP POP JUMP JUMPDEST PUSH0 DUP2 SWAP1 POP DUP2 PUSH0 MSTORE PUSH1 0x20 PUSH0 KECCAK256 SWAP1 POP SWAP2 SWAP1 POP JUMP JUMPDEST PUSH0 DUP2 SLOAD PUSH2 0x34E3 DUP2 PUSH2 0x2C2B JUMP JUMPDEST PUSH2 0x34ED DUP2 DUP7 PUSH2 0x34BB JUMP JUMPDEST SWAP5 POP PUSH1 0x1 DUP3 AND PUSH0 DUP2 EQ PUSH2 0x3507 JUMPI PUSH1 0x1 DUP2 EQ PUSH2 0x351C JUMPI PUSH2 0x354E JUMP JUMPDEST PUSH1 0xFF NOT DUP4 AND DUP7 MSTORE DUP2 ISZERO ISZERO DUP3 MUL DUP7 ADD SWAP4 POP PUSH2 0x354E JUMP JUMPDEST PUSH2 0x3525 DUP6 PUSH2 0x34C5 JUMP JUMPDEST PUSH0 JUMPDEST DUP4 DUP2 LT ISZERO PUSH2 0x3546 JUMPI DUP2 SLOAD DUP2 DUP10 ADD MSTORE PUSH1 0x1 DUP3 ADD SWAP2 POP PUSH1 0x20 DUP2 ADD SWAP1 POP PUSH2 0x3527 JUMP JUMPDEST DUP4 DUP9 ADD SWAP6 POP POP POP JUMPDEST POP POP POP SWAP3 SWAP2 POP POP JUMP JUMPDEST PUSH0 PUSH2 0x3562 DUP3 DUP5 PUSH2 0x34D7 JUMP JUMPDEST SWAP2 POP DUP2 SWAP1 POP SWAP3 SWAP2 POP POP JUMP INVALID LOG2 PUSH5 0x6970667358 0x22 SLT KECCAK256 SELFDESTRUCT PUSH16 0xA0F492DAC51BE21BA502F019F5284D2E STOP SELFDESTRUCT 0xCC PUSH13 0x69260F40AC8198454CBB64736F PUSH13 0x63430008150033000000000000 "
				},
				"gasEstimates": {
					"creation": {
						"codeDepositCost": "2746200",
						"executionCost": "27255",
						"totalCost": "2773455"
					},
					"external": {
						"addItemsSupplier(uint256,uint256,string,uint256,address)": "infinite",
						"approveChangeRole(uint256)": "35771",
						"changeRole(uint8)": "73466",
						"genRef(string,address)": "infinite",
						"makeMarket()": "29733",
						"makeSupplier()": "29712",
						"makeUser()": "29687",
						"marketProducts(address,uint256)": "infinite",
						"owner()": "2575",
						"purchase(address,uint256,uint256,string)": "infinite",
						"randMod(uint256)": "infinite",
						"referrals(string)": "infinite",
						"refillStore(address,uint256,uint256,address)": "infinite",
						"refund(address,uint256)": "infinite",
						"supplierProducts(address,uint256)": "infinite",
						"tickets(uint256)": "7401",
						"userProducts(address,uint256)": "infinite",
						"users(address)": "5177",
						"withdrawBal(address)": "infinite"
					}
				},
				"methodIdentifiers": {
					"addItemsSupplier(uint256,uint256,string,uint256,address)": "861c2b6d",
					"approveChangeRole(uint256)": "6f764708",
					"changeRole(uint8)": "55dea0b3",
					"genRef(string,address)": "a1ba90b6",
					"makeMarket()": "66d0dc67",
					"makeSupplier()": "3dfe7dee",
					"makeUser()": "d18a524a",
					"marketProducts(address,uint256)": "4f424547",
					"owner()": "8da5cb5b",
					"purchase(address,uint256,uint256,string)": "9f1cd587",
					"randMod(uint256)": "805553e8",
					"referrals(string)": "d55768dd",
					"refillStore(address,uint256,uint256,address)": "fecd8f79",
					"refund(address,uint256)": "410085df",
					"supplierProducts(address,uint256)": "27b90b1b",
					"tickets(uint256)": "50b44712",
					"userProducts(address,uint256)": "3d527883",
					"users(address)": "a87430ba",
					"withdrawBal(address)": "f67a2ad1"
				}
			},
			"storageLayout": {
				"storage": [
					{
						"astId": 9,
						"contract": "contracts/Test.sol:MarketPlace",
						"label": "tickets",
						"offset": 0,
						"slot": "0",
						"type": "t_array(t_struct(Ticket)26_storage)dyn_storage"
					},
					{
						"astId": 11,
						"contract": "contracts/Test.sol:MarketPlace",
						"label": "owner",
						"offset": 0,
						"slot": "1",
						"type": "t_address"
					},
					{
						"astId": 48,
						"contract": "contracts/Test.sol:MarketPlace",
						"label": "users",
						"offset": 0,
						"slot": "2",
						"type": "t_mapping(t_address,t_struct(User)32_storage)"
					},
					{
						"astId": 54,
						"contract": "contracts/Test.sol:MarketPlace",
						"label": "userProducts",
						"offset": 0,
						"slot": "3",
						"type": "t_mapping(t_address,t_array(t_struct(Product)43_storage)dyn_storage)"
					},
					{
						"astId": 60,
						"contract": "contracts/Test.sol:MarketPlace",
						"label": "marketProducts",
						"offset": 0,
						"slot": "4",
						"type": "t_mapping(t_address,t_array(t_struct(Product)43_storage)dyn_storage)"
					},
					{
						"astId": 66,
						"contract": "contracts/Test.sol:MarketPlace",
						"label": "supplierProducts",
						"offset": 0,
						"slot": "5",
						"type": "t_mapping(t_address,t_array(t_struct(Product)43_storage)dyn_storage)"
					},
					{
						"astId": 70,
						"contract": "contracts/Test.sol:MarketPlace",
						"label": "referrals",
						"offset": 0,
						"slot": "6",
						"type": "t_mapping(t_string_memory_ptr,t_address)"
					}
				],
				"types": {
					"t_address": {
						"encoding": "inplace",
						"label": "address",
						"numberOfBytes": "20"
					},
					"t_array(t_struct(Product)43_storage)dyn_storage": {
						"base": "t_struct(Product)43_storage",
						"encoding": "dynamic_array",
						"label": "struct MarketPlace.Product[]",
						"numberOfBytes": "32"
					},
					"t_array(t_struct(Ticket)26_storage)dyn_storage": {
						"base": "t_struct(Ticket)26_storage",
						"encoding": "dynamic_array",
						"label": "struct MarketPlace.Ticket[]",
						"numberOfBytes": "32"
					},
					"t_enum(Role)5": {
						"encoding": "inplace",
						"label": "enum MarketPlace.Role",
						"numberOfBytes": "1"
					},
					"t_mapping(t_address,t_array(t_struct(Product)43_storage)dyn_storage)": {
						"encoding": "mapping",
						"key": "t_address",
						"label": "mapping(address => struct MarketPlace.Product[])",
						"numberOfBytes": "32",
						"value": "t_array(t_struct(Product)43_storage)dyn_storage"
					},
					"t_mapping(t_address,t_struct(User)32_storage)": {
						"encoding": "mapping",
						"key": "t_address",
						"label": "mapping(address => struct MarketPlace.User)",
						"numberOfBytes": "32",
						"value": "t_struct(User)32_storage"
					},
					"t_mapping(t_string_memory_ptr,t_address)": {
						"encoding": "mapping",
						"key": "t_string_memory_ptr",
						"label": "mapping(string => address)",
						"numberOfBytes": "32",
						"value": "t_address"
					},
					"t_string_memory_ptr": {
						"encoding": "bytes",
						"label": "string",
						"numberOfBytes": "32"
					},
					"t_string_storage": {
						"encoding": "bytes",
						"label": "string",
						"numberOfBytes": "32"
					},
					"t_struct(Product)43_storage": {
						"encoding": "inplace",
						"label": "struct MarketPlace.Product",
						"members": [
							{
								"astId": 34,
								"contract": "contracts/Test.sol:MarketPlace",
								"label": "userAddress",
								"offset": 0,
								"slot": "0",
								"type": "t_address"
							},
							{
								"astId": 36,
								"contract": "contracts/Test.sol:MarketPlace",
								"label": "inStock",
								"offset": 0,
								"slot": "1",
								"type": "t_uint256"
							},
							{
								"astId": 38,
								"contract": "contracts/Test.sol:MarketPlace",
								"label": "price",
								"offset": 0,
								"slot": "2",
								"type": "t_uint256"
							},
							{
								"astId": 40,
								"contract": "contracts/Test.sol:MarketPlace",
								"label": "name",
								"offset": 0,
								"slot": "3",
								"type": "t_string_storage"
							},
							{
								"astId": 42,
								"contract": "contracts/Test.sol:MarketPlace",
								"label": "expDate",
								"offset": 0,
								"slot": "4",
								"type": "t_uint256"
							}
						],
						"numberOfBytes": "160"
					},
					"t_struct(Ticket)26_storage": {
						"encoding": "inplace",
						"label": "struct MarketPlace.Ticket",
						"members": [
							{
								"astId": 22,
								"contract": "contracts/Test.sol:MarketPlace",
								"label": "userAddr",
								"offset": 0,
								"slot": "0",
								"type": "t_address"
							},
							{
								"astId": 25,
								"contract": "contracts/Test.sol:MarketPlace",
								"label": "role",
								"offset": 20,
								"slot": "0",
								"type": "t_enum(Role)5"
							}
						],
						"numberOfBytes": "32"
					},
					"t_struct(User)32_storage": {
						"encoding": "inplace",
						"label": "struct MarketPlace.User",
						"members": [
							{
								"astId": 29,
								"contract": "contracts/Test.sol:MarketPlace",
								"label": "role",
								"offset": 0,
								"slot": "0",
								"type": "t_enum(Role)5"
							},
							{
								"astId": 31,
								"contract": "contracts/Test.sol:MarketPlace",
								"label": "balance",
								"offset": 0,
								"slot": "1",
								"type": "t_uint256"
							}
						],
						"numberOfBytes": "64"
					},
					"t_uint256": {
						"encoding": "inplace",
						"label": "uint256",
						"numberOfBytes": "32"
					}
				}
			},
			"userdoc": {
				"kind": "user",
				"methods": {},
				"version": 1
			}
		}
	}
}