{
	"contracts/MarketPlace.sol": {
		"MarketPlace": {
			"abi": [
				{
					"inputs": [],
					"stateMutability": "nonpayable",
					"type": "constructor"
				},
				{
					"inputs": [
						{
							"internalType": "uint256",
							"name": "_inStock",
							"type": "uint256"
						},
						{
							"internalType": "uint256",
							"name": "_price",
							"type": "uint256"
						},
						{
							"internalType": "string",
							"name": "_name",
							"type": "string"
						}
					],
					"name": "addItems",
					"outputs": [],
					"stateMutability": "nonpayable",
					"type": "function"
				},
				{
					"inputs": [],
					"name": "owner",
					"outputs": [
						{
							"internalType": "address",
							"name": "",
							"type": "address"
						}
					],
					"stateMutability": "view",
					"type": "function"
				},
				{
					"inputs": [
						{
							"internalType": "uint256",
							"name": "_amount",
							"type": "uint256"
						},
						{
							"internalType": "uint256",
							"name": "_id",
							"type": "uint256"
						}
					],
					"name": "purchase",
					"outputs": [],
					"stateMutability": "payable",
					"type": "function"
				},
				{
					"inputs": [
						{
							"internalType": "uint256",
							"name": "productId",
							"type": "uint256"
						}
					],
					"name": "showInStock",
					"outputs": [
						{
							"internalType": "uint256",
							"name": "",
							"type": "uint256"
						}
					],
					"stateMutability": "view",
					"type": "function"
				},
				{
					"inputs": [],
					"name": "showItems",
					"outputs": [
						{
							"components": [
								{
									"internalType": "uint256",
									"name": "inStock",
									"type": "uint256"
								},
								{
									"internalType": "uint256",
									"name": "price",
									"type": "uint256"
								},
								{
									"internalType": "string",
									"name": "name",
									"type": "string"
								}
							],
							"internalType": "struct MarketPlace.Product[]",
							"name": "",
							"type": "tuple[]"
						}
					],
					"stateMutability": "view",
					"type": "function"
				},
				{
					"inputs": [
						{
							"internalType": "address",
							"name": "",
							"type": "address"
						},
						{
							"internalType": "uint256",
							"name": "",
							"type": "uint256"
						}
					],
					"name": "userProducts",
					"outputs": [
						{
							"internalType": "uint256",
							"name": "inStock",
							"type": "uint256"
						},
						{
							"internalType": "uint256",
							"name": "price",
							"type": "uint256"
						},
						{
							"internalType": "string",
							"name": "name",
							"type": "string"
						}
					],
					"stateMutability": "view",
					"type": "function"
				},
				{
					"inputs": [
						{
							"internalType": "address",
							"name": "",
							"type": "address"
						}
					],
					"name": "users",
					"outputs": [
						{
							"internalType": "uint256",
							"name": "purchased",
							"type": "uint256"
						},
						{
							"internalType": "enum MarketPlace.Role",
							"name": "role",
							"type": "uint8"
						}
					],
					"stateMutability": "view",
					"type": "function"
				}
			],
			"devdoc": {
				"kind": "dev",
				"methods": {},
				"version": 1
			},
			"evm": {
				"assembly": "    /* \"contracts/MarketPlace.sol\":57:2151  contract MarketPlace {... */\n  mstore(0x40, 0x80)\n    /* \"contracts/MarketPlace.sol\":525:619  constructor() {... */\n  callvalue\n  dup1\n  iszero\n  tag_1\n  jumpi\n  0x00\n  dup1\n  revert\ntag_1:\n  pop\n    /* \"contracts/MarketPlace.sol\":557:567  msg.sender */\n  caller\n    /* \"contracts/MarketPlace.sol\":549:554  owner */\n  0x00\n  dup1\n    /* \"contracts/MarketPlace.sol\":549:567  owner = msg.sender */\n  0x0100\n  exp\n  dup2\n  sload\n  dup2\n  0xffffffffffffffffffffffffffffffffffffffff\n  mul\n  not\n  and\n  swap1\n  dup4\n  0xffffffffffffffffffffffffffffffffffffffff\n  and\n  mul\n  or\n  swap1\n  sstore\n  pop\n    /* \"contracts/MarketPlace.sol\":592:612  User(0, Role.Market) */\n  mload(0x40)\n  dup1\n  0x40\n  add\n  0x40\n  mstore\n  dup1\n    /* \"contracts/MarketPlace.sol\":597:598  0 */\n  0x00\n    /* \"contracts/MarketPlace.sol\":592:612  User(0, Role.Market) */\n  dup2\n  mstore\n  0x20\n  add\n    /* \"contracts/MarketPlace.sol\":600:611  Role.Market */\n  0x01\n    /* \"contracts/MarketPlace.sol\":592:612  User(0, Role.Market) */\n  dup1\n  dup2\n  gt\n  iszero\n  tag_4\n  jumpi\n  tag_5\n  tag_6\n  jump\t// in\ntag_5:\ntag_4:\n  dup2\n  mstore\n  pop\n    /* \"contracts/MarketPlace.sol\":577:582  users */\n  0x01\n    /* \"contracts/MarketPlace.sol\":577:589  users[owner] */\n  0x00\n    /* \"contracts/MarketPlace.sol\":583:588  owner */\n  dup1\n  0x00\n  swap1\n  sload\n  swap1\n  0x0100\n  exp\n  swap1\n  div\n  0xffffffffffffffffffffffffffffffffffffffff\n  and\n    /* \"contracts/MarketPlace.sol\":577:589  users[owner] */\n  0xffffffffffffffffffffffffffffffffffffffff\n  and\n  0xffffffffffffffffffffffffffffffffffffffff\n  and\n  dup2\n  mstore\n  0x20\n  add\n  swap1\n  dup2\n  mstore\n  0x20\n  add\n  0x00\n  keccak256\n    /* \"contracts/MarketPlace.sol\":577:612  users[owner] = User(0, Role.Market) */\n  0x00\n  dup3\n  add\n  mload\n  dup2\n  0x00\n  add\n  sstore\n  0x20\n  dup3\n  add\n  mload\n  dup2\n  0x01\n  add\n  exp(0x0100, 0x00)\n  dup2\n  sload\n  dup2\n  0xff\n  mul\n  not\n  and\n  swap1\n  dup4\n  0x01\n  dup2\n  gt\n  iszero\n  tag_7\n  jumpi\n  tag_8\n  tag_6\n  jump\t// in\ntag_8:\ntag_7:\n  mul\n  or\n  swap1\n  sstore\n  pop\n  swap1\n  pop\n  pop\n    /* \"contracts/MarketPlace.sol\":57:2151  contract MarketPlace {... */\n  jump(tag_9)\n    /* \"#utility.yul\":7:187   */\ntag_6:\n    /* \"#utility.yul\":55:132   */\n  0x4e487b7100000000000000000000000000000000000000000000000000000000\n    /* \"#utility.yul\":52:53   */\n  0x00\n    /* \"#utility.yul\":45:133   */\n  mstore\n    /* \"#utility.yul\":152:156   */\n  0x21\n    /* \"#utility.yul\":149:150   */\n  0x04\n    /* \"#utility.yul\":142:157   */\n  mstore\n    /* \"#utility.yul\":176:180   */\n  0x24\n    /* \"#utility.yul\":173:174   */\n  0x00\n    /* \"#utility.yul\":166:181   */\n  revert\n    /* \"contracts/MarketPlace.sol\":57:2151  contract MarketPlace {... */\ntag_9:\n  dataSize(sub_0)\n  dup1\n  dataOffset(sub_0)\n  0x00\n  codecopy\n  0x00\n  return\nstop\n\nsub_0: assembly {\n        /* \"contracts/MarketPlace.sol\":57:2151  contract MarketPlace {... */\n      mstore(0x40, 0x80)\n      jumpi(tag_1, lt(calldatasize, 0x04))\n      shr(0xe0, calldataload(0x00))\n      dup1\n      0x70876c98\n      gt\n      tag_9\n      jumpi\n      dup1\n      0x70876c98\n      eq\n      tag_5\n      jumpi\n      dup1\n      0x8da5cb5b\n      eq\n      tag_6\n      jumpi\n      dup1\n      0xa211f1ed\n      eq\n      tag_7\n      jumpi\n      dup1\n      0xa87430ba\n      eq\n      tag_8\n      jumpi\n      jump(tag_1)\n    tag_9:\n      dup1\n      0x3d527883\n      eq\n      tag_2\n      jumpi\n      dup1\n      0x3dd26a93\n      eq\n      tag_3\n      jumpi\n      dup1\n      0x687527c6\n      eq\n      tag_4\n      jumpi\n    tag_1:\n      0x00\n      dup1\n      revert\n        /* \"contracts/MarketPlace.sol\":344:393  mapping(address => Product[]) public userProducts */\n    tag_2:\n      callvalue\n      dup1\n      iszero\n      tag_10\n      jumpi\n      0x00\n      dup1\n      revert\n    tag_10:\n      pop\n      tag_11\n      0x04\n      dup1\n      calldatasize\n      sub\n      dup2\n      add\n      swap1\n      tag_12\n      swap2\n      swap1\n      tag_13\n      jump\t// in\n    tag_12:\n      tag_14\n      jump\t// in\n    tag_11:\n      mload(0x40)\n      tag_15\n      swap4\n      swap3\n      swap2\n      swap1\n      tag_16\n      jump\t// in\n    tag_15:\n      mload(0x40)\n      dup1\n      swap2\n      sub\n      swap1\n      return\n        /* \"contracts/MarketPlace.sol\":828:931  function showItems() public view returns (Product[] memory) {... */\n    tag_3:\n      callvalue\n      dup1\n      iszero\n      tag_17\n      jumpi\n      0x00\n      dup1\n      revert\n    tag_17:\n      pop\n      tag_18\n      tag_19\n      jump\t// in\n    tag_18:\n      mload(0x40)\n      tag_20\n      swap2\n      swap1\n      tag_21\n      jump\t// in\n    tag_20:\n      mload(0x40)\n      dup1\n      swap2\n      sub\n      swap1\n      return\n        /* \"contracts/MarketPlace.sol\":937:1142  function showInStock(uint productId) public view returns (uint) {... */\n    tag_4:\n      callvalue\n      dup1\n      iszero\n      tag_22\n      jumpi\n      0x00\n      dup1\n      revert\n    tag_22:\n      pop\n      tag_23\n      0x04\n      dup1\n      calldatasize\n      sub\n      dup2\n      add\n      swap1\n      tag_24\n      swap2\n      swap1\n      tag_25\n      jump\t// in\n    tag_24:\n      tag_26\n      jump\t// in\n    tag_23:\n      mload(0x40)\n      tag_27\n      swap2\n      swap1\n      tag_28\n      jump\t// in\n    tag_27:\n      mload(0x40)\n      dup1\n      swap2\n      sub\n      swap1\n      return\n        /* \"contracts/MarketPlace.sol\":1148:2149  function purchase(uint _amount, uint _id) public payable {... */\n    tag_5:\n      tag_29\n      0x04\n      dup1\n      calldatasize\n      sub\n      dup2\n      add\n      swap1\n      tag_30\n      swap2\n      swap1\n      tag_31\n      jump\t// in\n    tag_30:\n      tag_32\n      jump\t// in\n    tag_29:\n      stop\n        /* \"contracts/MarketPlace.sol\":84:104  address public owner */\n    tag_6:\n      callvalue\n      dup1\n      iszero\n      tag_33\n      jumpi\n      0x00\n      dup1\n      revert\n    tag_33:\n      pop\n      tag_34\n      tag_35\n      jump\t// in\n    tag_34:\n      mload(0x40)\n      tag_36\n      swap2\n      swap1\n      tag_37\n      jump\t// in\n    tag_36:\n      mload(0x40)\n      dup1\n      swap2\n      sub\n      swap1\n      return\n        /* \"contracts/MarketPlace.sol\":625:822  function addItems(uint _inStock, uint _price, string calldata _name) public onlyOwner {... */\n    tag_7:\n      callvalue\n      dup1\n      iszero\n      tag_38\n      jumpi\n      0x00\n      dup1\n      revert\n    tag_38:\n      pop\n      tag_39\n      0x04\n      dup1\n      calldatasize\n      sub\n      dup2\n      add\n      swap1\n      tag_40\n      swap2\n      swap1\n      tag_41\n      jump\t// in\n    tag_40:\n      tag_42\n      jump\t// in\n    tag_39:\n      stop\n        /* \"contracts/MarketPlace.sol\":301:338  mapping(address => User) public users */\n    tag_8:\n      callvalue\n      dup1\n      iszero\n      tag_43\n      jumpi\n      0x00\n      dup1\n      revert\n    tag_43:\n      pop\n      tag_44\n      0x04\n      dup1\n      calldatasize\n      sub\n      dup2\n      add\n      swap1\n      tag_45\n      swap2\n      swap1\n      tag_46\n      jump\t// in\n    tag_45:\n      tag_47\n      jump\t// in\n    tag_44:\n      mload(0x40)\n      tag_48\n      swap3\n      swap2\n      swap1\n      tag_49\n      jump\t// in\n    tag_48:\n      mload(0x40)\n      dup1\n      swap2\n      sub\n      swap1\n      return\n        /* \"contracts/MarketPlace.sol\":344:393  mapping(address => Product[]) public userProducts */\n    tag_14:\n      mstore(0x20, 0x02)\n      dup2\n      0x00\n      mstore\n      keccak256(0x00, 0x40)\n      dup2\n      dup2\n      sload\n      dup2\n      lt\n      tag_50\n      jumpi\n      0x00\n      dup1\n      revert\n    tag_50:\n      swap1\n      0x00\n      mstore\n      keccak256(0x00, 0x20)\n      swap1\n      0x03\n      mul\n      add\n      0x00\n      swap2\n      pop\n      swap2\n      pop\n      pop\n      dup1\n      0x00\n      add\n      sload\n      swap1\n      dup1\n      0x01\n      add\n      sload\n      swap1\n      dup1\n      0x02\n      add\n      dup1\n      sload\n      tag_52\n      swap1\n      tag_53\n      jump\t// in\n    tag_52:\n      dup1\n      0x1f\n      add\n      0x20\n      dup1\n      swap2\n      div\n      mul\n      0x20\n      add\n      mload(0x40)\n      swap1\n      dup2\n      add\n      0x40\n      mstore\n      dup1\n      swap3\n      swap2\n      swap1\n      dup2\n      dup2\n      mstore\n      0x20\n      add\n      dup3\n      dup1\n      sload\n      tag_54\n      swap1\n      tag_53\n      jump\t// in\n    tag_54:\n      dup1\n      iszero\n      tag_55\n      jumpi\n      dup1\n      0x1f\n      lt\n      tag_56\n      jumpi\n      0x0100\n      dup1\n      dup4\n      sload\n      div\n      mul\n      dup4\n      mstore\n      swap2\n      0x20\n      add\n      swap2\n      jump(tag_55)\n    tag_56:\n      dup3\n      add\n      swap2\n      swap1\n      0x00\n      mstore\n      keccak256(0x00, 0x20)\n      swap1\n    tag_57:\n      dup2\n      sload\n      dup2\n      mstore\n      swap1\n      0x01\n      add\n      swap1\n      0x20\n      add\n      dup1\n      dup4\n      gt\n      tag_57\n      jumpi\n      dup3\n      swap1\n      sub\n      0x1f\n      and\n      dup3\n      add\n      swap2\n    tag_55:\n      pop\n      pop\n      pop\n      pop\n      pop\n      swap1\n      pop\n      dup4\n      jump\t// out\n        /* \"contracts/MarketPlace.sol\":828:931  function showItems() public view returns (Product[] memory) {... */\n    tag_19:\n        /* \"contracts/MarketPlace.sol\":870:886  Product[] memory */\n      0x60\n        /* \"contracts/MarketPlace.sol\":905:917  userProducts */\n      0x02\n        /* \"contracts/MarketPlace.sol\":905:924  userProducts[owner] */\n      0x00\n        /* \"contracts/MarketPlace.sol\":918:923  owner */\n      dup1\n      0x00\n      swap1\n      sload\n      swap1\n      0x0100\n      exp\n      swap1\n      div\n      0xffffffffffffffffffffffffffffffffffffffff\n      and\n        /* \"contracts/MarketPlace.sol\":905:924  userProducts[owner] */\n      0xffffffffffffffffffffffffffffffffffffffff\n      and\n      0xffffffffffffffffffffffffffffffffffffffff\n      and\n      dup2\n      mstore\n      0x20\n      add\n      swap1\n      dup2\n      mstore\n      0x20\n      add\n      0x00\n      keccak256\n        /* \"contracts/MarketPlace.sol\":898:924  return userProducts[owner] */\n      dup1\n      sload\n      dup1\n      0x20\n      mul\n      0x20\n      add\n      mload(0x40)\n      swap1\n      dup2\n      add\n      0x40\n      mstore\n      dup1\n      swap3\n      swap2\n      swap1\n      dup2\n      dup2\n      mstore\n      0x20\n      add\n      0x00\n      swap1\n    tag_59:\n      dup3\n      dup3\n      lt\n      iszero\n      tag_60\n      jumpi\n      dup4\n      dup3\n      swap1\n      0x00\n      mstore\n      keccak256(0x00, 0x20)\n      swap1\n      0x03\n      mul\n      add\n      mload(0x40)\n      dup1\n      0x60\n      add\n      0x40\n      mstore\n      swap1\n      dup2\n      0x00\n      dup3\n      add\n      sload\n      dup2\n      mstore\n      0x20\n      add\n      0x01\n      dup3\n      add\n      sload\n      dup2\n      mstore\n      0x20\n      add\n      0x02\n      dup3\n      add\n      dup1\n      sload\n      tag_62\n      swap1\n      tag_53\n      jump\t// in\n    tag_62:\n      dup1\n      0x1f\n      add\n      0x20\n      dup1\n      swap2\n      div\n      mul\n      0x20\n      add\n      mload(0x40)\n      swap1\n      dup2\n      add\n      0x40\n      mstore\n      dup1\n      swap3\n      swap2\n      swap1\n      dup2\n      dup2\n      mstore\n      0x20\n      add\n      dup3\n      dup1\n      sload\n      tag_63\n      swap1\n      tag_53\n      jump\t// in\n    tag_63:\n      dup1\n      iszero\n      tag_64\n      jumpi\n      dup1\n      0x1f\n      lt\n      tag_65\n      jumpi\n      0x0100\n      dup1\n      dup4\n      sload\n      div\n      mul\n      dup4\n      mstore\n      swap2\n      0x20\n      add\n      swap2\n      jump(tag_64)\n    tag_65:\n      dup3\n      add\n      swap2\n      swap1\n      0x00\n      mstore\n      keccak256(0x00, 0x20)\n      swap1\n    tag_66:\n      dup2\n      sload\n      dup2\n      mstore\n      swap1\n      0x01\n      add\n      swap1\n      0x20\n      add\n      dup1\n      dup4\n      gt\n      tag_66\n      jumpi\n      dup3\n      swap1\n      sub\n      0x1f\n      and\n      dup3\n      add\n      swap2\n    tag_64:\n      pop\n      pop\n      pop\n      pop\n      pop\n      dup2\n      mstore\n      pop\n      pop\n      dup2\n      mstore\n      0x20\n      add\n      swap1\n      0x01\n      add\n      swap1\n      jump(tag_59)\n    tag_60:\n      pop\n      pop\n      pop\n      pop\n      swap1\n      pop\n        /* \"contracts/MarketPlace.sol\":828:931  function showItems() public view returns (Product[] memory) {... */\n      swap1\n      jump\t// out\n        /* \"contracts/MarketPlace.sol\":937:1142  function showInStock(uint productId) public view returns (uint) {... */\n    tag_26:\n        /* \"contracts/MarketPlace.sol\":995:999  uint */\n      0x00\n        /* \"contracts/MarketPlace.sol\":1031:1043  userProducts */\n      0x02\n        /* \"contracts/MarketPlace.sol\":1031:1050  userProducts[owner] */\n      0x00\n        /* \"contracts/MarketPlace.sol\":1044:1049  owner */\n      dup1\n      0x00\n      swap1\n      sload\n      swap1\n      0x0100\n      exp\n      swap1\n      div\n      0xffffffffffffffffffffffffffffffffffffffff\n      and\n        /* \"contracts/MarketPlace.sol\":1031:1050  userProducts[owner] */\n      0xffffffffffffffffffffffffffffffffffffffff\n      and\n      0xffffffffffffffffffffffffffffffffffffffff\n      and\n      dup2\n      mstore\n      0x20\n      add\n      swap1\n      dup2\n      mstore\n      0x20\n      add\n      0x00\n      keccak256\n        /* \"contracts/MarketPlace.sol\":1031:1057  userProducts[owner].length */\n      dup1\n      sload\n      swap1\n      pop\n        /* \"contracts/MarketPlace.sol\":1019:1028  productId */\n      dup3\n        /* \"contracts/MarketPlace.sol\":1019:1057  productId < userProducts[owner].length */\n      lt\n        /* \"contracts/MarketPlace.sol\":1011:1080  require(productId < userProducts[owner].length, \"Invalid product ID\") */\n      tag_68\n      jumpi\n      mload(0x40)\n      0x08c379a000000000000000000000000000000000000000000000000000000000\n      dup2\n      mstore\n      0x04\n      add\n      tag_69\n      swap1\n      tag_70\n      jump\t// in\n    tag_69:\n      mload(0x40)\n      dup1\n      swap2\n      sub\n      swap1\n      revert\n    tag_68:\n        /* \"contracts/MarketPlace.sol\":1097:1109  userProducts */\n      0x02\n        /* \"contracts/MarketPlace.sol\":1097:1116  userProducts[owner] */\n      0x00\n        /* \"contracts/MarketPlace.sol\":1110:1115  owner */\n      dup1\n      0x00\n      swap1\n      sload\n      swap1\n      0x0100\n      exp\n      swap1\n      div\n      0xffffffffffffffffffffffffffffffffffffffff\n      and\n        /* \"contracts/MarketPlace.sol\":1097:1116  userProducts[owner] */\n      0xffffffffffffffffffffffffffffffffffffffff\n      and\n      0xffffffffffffffffffffffffffffffffffffffff\n      and\n      dup2\n      mstore\n      0x20\n      add\n      swap1\n      dup2\n      mstore\n      0x20\n      add\n      0x00\n      keccak256\n        /* \"contracts/MarketPlace.sol\":1117:1126  productId */\n      dup3\n        /* \"contracts/MarketPlace.sol\":1097:1127  userProducts[owner][productId] */\n      dup2\n      sload\n      dup2\n      lt\n      tag_71\n      jumpi\n      tag_72\n      tag_73\n      jump\t// in\n    tag_72:\n    tag_71:\n      swap1\n      0x00\n      mstore\n      keccak256(0x00, 0x20)\n      swap1\n      0x03\n      mul\n      add\n        /* \"contracts/MarketPlace.sol\":1097:1135  userProducts[owner][productId].inStock */\n      0x00\n      add\n      sload\n        /* \"contracts/MarketPlace.sol\":1090:1135  return userProducts[owner][productId].inStock */\n      swap1\n      pop\n        /* \"contracts/MarketPlace.sol\":937:1142  function showInStock(uint productId) public view returns (uint) {... */\n      swap2\n      swap1\n      pop\n      jump\t// out\n        /* \"contracts/MarketPlace.sol\":1148:2149  function purchase(uint _amount, uint _id) public payable {... */\n    tag_32:\n        /* \"contracts/MarketPlace.sol\":1233:1234  0 */\n      0x00\n        /* \"contracts/MarketPlace.sol\":1223:1230  _amount */\n      dup3\n        /* \"contracts/MarketPlace.sol\":1223:1234  _amount > 0 */\n      gt\n        /* \"contracts/MarketPlace.sol\":1215:1277  require(_amount > 0, \"Purchase amount must be greater than 0\") */\n      tag_76\n      jumpi\n      mload(0x40)\n      0x08c379a000000000000000000000000000000000000000000000000000000000\n      dup2\n      mstore\n      0x04\n      add\n      tag_77\n      swap1\n      tag_78\n      jump\t// in\n    tag_77:\n      mload(0x40)\n      dup1\n      swap2\n      sub\n      swap1\n      revert\n    tag_76:\n        /* \"contracts/MarketPlace.sol\":1301:1313  userProducts */\n      0x02\n        /* \"contracts/MarketPlace.sol\":1301:1320  userProducts[owner] */\n      0x00\n        /* \"contracts/MarketPlace.sol\":1314:1319  owner */\n      dup1\n      0x00\n      swap1\n      sload\n      swap1\n      0x0100\n      exp\n      swap1\n      div\n      0xffffffffffffffffffffffffffffffffffffffff\n      and\n        /* \"contracts/MarketPlace.sol\":1301:1320  userProducts[owner] */\n      0xffffffffffffffffffffffffffffffffffffffff\n      and\n      0xffffffffffffffffffffffffffffffffffffffff\n      and\n      dup2\n      mstore\n      0x20\n      add\n      swap1\n      dup2\n      mstore\n      0x20\n      add\n      0x00\n      keccak256\n        /* \"contracts/MarketPlace.sol\":1301:1327  userProducts[owner].length */\n      dup1\n      sload\n      swap1\n      pop\n        /* \"contracts/MarketPlace.sol\":1295:1298  _id */\n      dup2\n        /* \"contracts/MarketPlace.sol\":1295:1327  _id < userProducts[owner].length */\n      lt\n        /* \"contracts/MarketPlace.sol\":1287:1350  require(_id < userProducts[owner].length, \"Invalid product ID\") */\n      tag_79\n      jumpi\n      mload(0x40)\n      0x08c379a000000000000000000000000000000000000000000000000000000000\n      dup2\n      mstore\n      0x04\n      add\n      tag_80\n      swap1\n      tag_70\n      jump\t// in\n    tag_80:\n      mload(0x40)\n      dup1\n      swap2\n      sub\n      swap1\n      revert\n    tag_79:\n        /* \"contracts/MarketPlace.sol\":1391:1400  Role.User */\n      0x00\n        /* \"contracts/MarketPlace.sol\":1365:1400  users[msg.sender].role != Role.User */\n      0x01\n      dup2\n      gt\n      iszero\n      tag_81\n      jumpi\n      tag_82\n      tag_83\n      jump\t// in\n    tag_82:\n    tag_81:\n        /* \"contracts/MarketPlace.sol\":1365:1370  users */\n      0x01\n        /* \"contracts/MarketPlace.sol\":1365:1382  users[msg.sender] */\n      0x00\n        /* \"contracts/MarketPlace.sol\":1371:1381  msg.sender */\n      caller\n        /* \"contracts/MarketPlace.sol\":1365:1382  users[msg.sender] */\n      0xffffffffffffffffffffffffffffffffffffffff\n      and\n      0xffffffffffffffffffffffffffffffffffffffff\n      and\n      dup2\n      mstore\n      0x20\n      add\n      swap1\n      dup2\n      mstore\n      0x20\n      add\n      0x00\n      keccak256\n        /* \"contracts/MarketPlace.sol\":1365:1387  users[msg.sender].role */\n      0x01\n      add\n      0x00\n      swap1\n      sload\n      swap1\n      0x0100\n      exp\n      swap1\n      div\n      0xff\n      and\n        /* \"contracts/MarketPlace.sol\":1365:1400  users[msg.sender].role != Role.User */\n      0x01\n      dup2\n      gt\n      iszero\n      tag_84\n      jumpi\n      tag_85\n      tag_83\n      jump\t// in\n    tag_85:\n    tag_84:\n      eq\n        /* \"contracts/MarketPlace.sol\":1361:1457  if (users[msg.sender].role != Role.User) {... */\n      tag_86\n      jumpi\n        /* \"contracts/MarketPlace.sol\":1432:1450  User(0, Role.User) */\n      mload(0x40)\n      dup1\n      0x40\n      add\n      0x40\n      mstore\n      dup1\n        /* \"contracts/MarketPlace.sol\":1437:1438  0 */\n      0x00\n        /* \"contracts/MarketPlace.sol\":1432:1450  User(0, Role.User) */\n      dup2\n      mstore\n      0x20\n      add\n        /* \"contracts/MarketPlace.sol\":1440:1449  Role.User */\n      0x00\n        /* \"contracts/MarketPlace.sol\":1432:1450  User(0, Role.User) */\n      0x01\n      dup2\n      gt\n      iszero\n      tag_87\n      jumpi\n      tag_88\n      tag_83\n      jump\t// in\n    tag_88:\n    tag_87:\n      dup2\n      mstore\n      pop\n        /* \"contracts/MarketPlace.sol\":1412:1417  users */\n      0x01\n        /* \"contracts/MarketPlace.sol\":1412:1429  users[msg.sender] */\n      0x00\n        /* \"contracts/MarketPlace.sol\":1418:1428  msg.sender */\n      caller\n        /* \"contracts/MarketPlace.sol\":1412:1429  users[msg.sender] */\n      0xffffffffffffffffffffffffffffffffffffffff\n      and\n      0xffffffffffffffffffffffffffffffffffffffff\n      and\n      dup2\n      mstore\n      0x20\n      add\n      swap1\n      dup2\n      mstore\n      0x20\n      add\n      0x00\n      keccak256\n        /* \"contracts/MarketPlace.sol\":1412:1450  users[msg.sender] = User(0, Role.User) */\n      0x00\n      dup3\n      add\n      mload\n      dup2\n      0x00\n      add\n      sstore\n      0x20\n      dup3\n      add\n      mload\n      dup2\n      0x01\n      add\n      exp(0x0100, 0x00)\n      dup2\n      sload\n      dup2\n      0xff\n      mul\n      not\n      and\n      swap1\n      dup4\n      0x01\n      dup2\n      gt\n      iszero\n      tag_89\n      jumpi\n      tag_90\n      tag_83\n      jump\t// in\n    tag_90:\n    tag_89:\n      mul\n      or\n      swap1\n      sstore\n      pop\n      swap1\n      pop\n      pop\n        /* \"contracts/MarketPlace.sol\":1361:1457  if (users[msg.sender].role != Role.User) {... */\n    tag_86:\n        /* \"contracts/MarketPlace.sol\":1486:1498  userProducts */\n      0x02\n        /* \"contracts/MarketPlace.sol\":1486:1505  userProducts[owner] */\n      0x00\n        /* \"contracts/MarketPlace.sol\":1499:1504  owner */\n      dup1\n      0x00\n      swap1\n      sload\n      swap1\n      0x0100\n      exp\n      swap1\n      div\n      0xffffffffffffffffffffffffffffffffffffffff\n      and\n        /* \"contracts/MarketPlace.sol\":1486:1505  userProducts[owner] */\n      0xffffffffffffffffffffffffffffffffffffffff\n      and\n      0xffffffffffffffffffffffffffffffffffffffff\n      and\n      dup2\n      mstore\n      0x20\n      add\n      swap1\n      dup2\n      mstore\n      0x20\n      add\n      0x00\n      keccak256\n        /* \"contracts/MarketPlace.sol\":1506:1509  _id */\n      dup2\n        /* \"contracts/MarketPlace.sol\":1486:1510  userProducts[owner][_id] */\n      dup2\n      sload\n      dup2\n      lt\n      tag_91\n      jumpi\n      tag_92\n      tag_73\n      jump\t// in\n    tag_92:\n    tag_91:\n      swap1\n      0x00\n      mstore\n      keccak256(0x00, 0x20)\n      swap1\n      0x03\n      mul\n      add\n        /* \"contracts/MarketPlace.sol\":1486:1518  userProducts[owner][_id].inStock */\n      0x00\n      add\n      sload\n        /* \"contracts/MarketPlace.sol\":1475:1482  _amount */\n      dup3\n        /* \"contracts/MarketPlace.sol\":1475:1518  _amount <= userProducts[owner][_id].inStock */\n      gt\n      iszero\n        /* \"contracts/MarketPlace.sol\":1467:1549  require(_amount <= userProducts[owner][_id].inStock, \"Not enough stock available\") */\n      tag_94\n      jumpi\n      mload(0x40)\n      0x08c379a000000000000000000000000000000000000000000000000000000000\n      dup2\n      mstore\n      0x04\n      add\n      tag_95\n      swap1\n      tag_96\n      jump\t// in\n    tag_95:\n      mload(0x40)\n      dup1\n      swap2\n      sub\n      swap1\n      revert\n    tag_94:\n        /* \"contracts/MarketPlace.sol\":1560:1575  uint totalPrice */\n      0x00\n        /* \"contracts/MarketPlace.sol\":1621:1628  1 ether */\n      0x0de0b6b3a7640000\n        /* \"contracts/MarketPlace.sol\":1588:1600  userProducts */\n      0x02\n        /* \"contracts/MarketPlace.sol\":1588:1607  userProducts[owner] */\n      0x00\n        /* \"contracts/MarketPlace.sol\":1601:1606  owner */\n      dup1\n      0x00\n      swap1\n      sload\n      swap1\n      0x0100\n      exp\n      swap1\n      div\n      0xffffffffffffffffffffffffffffffffffffffff\n      and\n        /* \"contracts/MarketPlace.sol\":1588:1607  userProducts[owner] */\n      0xffffffffffffffffffffffffffffffffffffffff\n      and\n      0xffffffffffffffffffffffffffffffffffffffff\n      and\n      dup2\n      mstore\n      0x20\n      add\n      swap1\n      dup2\n      mstore\n      0x20\n      add\n      0x00\n      keccak256\n        /* \"contracts/MarketPlace.sol\":1608:1611  _id */\n      dup4\n        /* \"contracts/MarketPlace.sol\":1588:1612  userProducts[owner][_id] */\n      dup2\n      sload\n      dup2\n      lt\n      tag_97\n      jumpi\n      tag_98\n      tag_73\n      jump\t// in\n    tag_98:\n    tag_97:\n      swap1\n      0x00\n      mstore\n      keccak256(0x00, 0x20)\n      swap1\n      0x03\n      mul\n      add\n        /* \"contracts/MarketPlace.sol\":1588:1618  userProducts[owner][_id].price */\n      0x01\n      add\n      sload\n        /* \"contracts/MarketPlace.sol\":1578:1585  _amount */\n      dup5\n        /* \"contracts/MarketPlace.sol\":1578:1618  _amount * userProducts[owner][_id].price */\n      tag_100\n      swap2\n      swap1\n      tag_101\n      jump\t// in\n    tag_100:\n        /* \"contracts/MarketPlace.sol\":1578:1628  _amount * userProducts[owner][_id].price * 1 ether */\n      tag_102\n      swap2\n      swap1\n      tag_101\n      jump\t// in\n    tag_102:\n        /* \"contracts/MarketPlace.sol\":1560:1628  uint totalPrice = _amount * userProducts[owner][_id].price * 1 ether */\n      swap1\n      pop\n        /* \"contracts/MarketPlace.sol\":1659:1669  totalPrice */\n      dup1\n        /* \"contracts/MarketPlace.sol\":1646:1655  msg.value */\n      callvalue\n        /* \"contracts/MarketPlace.sol\":1646:1669  msg.value >= totalPrice */\n      lt\n      iszero\n        /* \"contracts/MarketPlace.sol\":1638:1697  require(msg.value >= totalPrice, \"Insufficient funds sent\") */\n      tag_103\n      jumpi\n      mload(0x40)\n      0x08c379a000000000000000000000000000000000000000000000000000000000\n      dup2\n      mstore\n      0x04\n      add\n      tag_104\n      swap1\n      tag_105\n      jump\t// in\n    tag_104:\n      mload(0x40)\n      dup1\n      swap2\n      sub\n      swap1\n      revert\n    tag_103:\n        /* \"contracts/MarketPlace.sol\":1708:1727  Product memory item */\n      0x00\n        /* \"contracts/MarketPlace.sol\":1730:1809  Product(_amount, userProducts[owner][_id].price, userProducts[owner][_id].name) */\n      mload(0x40)\n      dup1\n      0x60\n      add\n      0x40\n      mstore\n      dup1\n        /* \"contracts/MarketPlace.sol\":1738:1745  _amount */\n      dup6\n        /* \"contracts/MarketPlace.sol\":1730:1809  Product(_amount, userProducts[owner][_id].price, userProducts[owner][_id].name) */\n      dup2\n      mstore\n      0x20\n      add\n        /* \"contracts/MarketPlace.sol\":1747:1759  userProducts */\n      0x02\n        /* \"contracts/MarketPlace.sol\":1747:1766  userProducts[owner] */\n      0x00\n        /* \"contracts/MarketPlace.sol\":1760:1765  owner */\n      dup1\n      0x00\n      swap1\n      sload\n      swap1\n      0x0100\n      exp\n      swap1\n      div\n      0xffffffffffffffffffffffffffffffffffffffff\n      and\n        /* \"contracts/MarketPlace.sol\":1747:1766  userProducts[owner] */\n      0xffffffffffffffffffffffffffffffffffffffff\n      and\n      0xffffffffffffffffffffffffffffffffffffffff\n      and\n      dup2\n      mstore\n      0x20\n      add\n      swap1\n      dup2\n      mstore\n      0x20\n      add\n      0x00\n      keccak256\n        /* \"contracts/MarketPlace.sol\":1767:1770  _id */\n      dup6\n        /* \"contracts/MarketPlace.sol\":1747:1771  userProducts[owner][_id] */\n      dup2\n      sload\n      dup2\n      lt\n      tag_106\n      jumpi\n      tag_107\n      tag_73\n      jump\t// in\n    tag_107:\n    tag_106:\n      swap1\n      0x00\n      mstore\n      keccak256(0x00, 0x20)\n      swap1\n      0x03\n      mul\n      add\n        /* \"contracts/MarketPlace.sol\":1747:1777  userProducts[owner][_id].price */\n      0x01\n      add\n      sload\n        /* \"contracts/MarketPlace.sol\":1730:1809  Product(_amount, userProducts[owner][_id].price, userProducts[owner][_id].name) */\n      dup2\n      mstore\n      0x20\n      add\n        /* \"contracts/MarketPlace.sol\":1779:1791  userProducts */\n      0x02\n        /* \"contracts/MarketPlace.sol\":1779:1798  userProducts[owner] */\n      0x00\n        /* \"contracts/MarketPlace.sol\":1792:1797  owner */\n      dup1\n      0x00\n      swap1\n      sload\n      swap1\n      0x0100\n      exp\n      swap1\n      div\n      0xffffffffffffffffffffffffffffffffffffffff\n      and\n        /* \"contracts/MarketPlace.sol\":1779:1798  userProducts[owner] */\n      0xffffffffffffffffffffffffffffffffffffffff\n      and\n      0xffffffffffffffffffffffffffffffffffffffff\n      and\n      dup2\n      mstore\n      0x20\n      add\n      swap1\n      dup2\n      mstore\n      0x20\n      add\n      0x00\n      keccak256\n        /* \"contracts/MarketPlace.sol\":1799:1802  _id */\n      dup6\n        /* \"contracts/MarketPlace.sol\":1779:1803  userProducts[owner][_id] */\n      dup2\n      sload\n      dup2\n      lt\n      tag_109\n      jumpi\n      tag_110\n      tag_73\n      jump\t// in\n    tag_110:\n    tag_109:\n      swap1\n      0x00\n      mstore\n      keccak256(0x00, 0x20)\n      swap1\n      0x03\n      mul\n      add\n        /* \"contracts/MarketPlace.sol\":1779:1808  userProducts[owner][_id].name */\n      0x02\n      add\n        /* \"contracts/MarketPlace.sol\":1730:1809  Product(_amount, userProducts[owner][_id].price, userProducts[owner][_id].name) */\n      dup1\n      sload\n      tag_112\n      swap1\n      tag_53\n      jump\t// in\n    tag_112:\n      dup1\n      0x1f\n      add\n      0x20\n      dup1\n      swap2\n      div\n      mul\n      0x20\n      add\n      mload(0x40)\n      swap1\n      dup2\n      add\n      0x40\n      mstore\n      dup1\n      swap3\n      swap2\n      swap1\n      dup2\n      dup2\n      mstore\n      0x20\n      add\n      dup3\n      dup1\n      sload\n      tag_113\n      swap1\n      tag_53\n      jump\t// in\n    tag_113:\n      dup1\n      iszero\n      tag_114\n      jumpi\n      dup1\n      0x1f\n      lt\n      tag_115\n      jumpi\n      0x0100\n      dup1\n      dup4\n      sload\n      div\n      mul\n      dup4\n      mstore\n      swap2\n      0x20\n      add\n      swap2\n      jump(tag_114)\n    tag_115:\n      dup3\n      add\n      swap2\n      swap1\n      0x00\n      mstore\n      keccak256(0x00, 0x20)\n      swap1\n    tag_116:\n      dup2\n      sload\n      dup2\n      mstore\n      swap1\n      0x01\n      add\n      swap1\n      0x20\n      add\n      dup1\n      dup4\n      gt\n      tag_116\n      jumpi\n      dup3\n      swap1\n      sub\n      0x1f\n      and\n      dup3\n      add\n      swap2\n    tag_114:\n      pop\n      pop\n      pop\n      pop\n      pop\n      dup2\n      mstore\n      pop\n        /* \"contracts/MarketPlace.sol\":1708:1809  Product memory item = Product(_amount, userProducts[owner][_id].price, userProducts[owner][_id].name) */\n      swap1\n      pop\n        /* \"contracts/MarketPlace.sol\":1855:1862  _amount */\n      dup4\n        /* \"contracts/MarketPlace.sol\":1819:1831  userProducts */\n      0x02\n        /* \"contracts/MarketPlace.sol\":1819:1838  userProducts[owner] */\n      0x00\n        /* \"contracts/MarketPlace.sol\":1832:1837  owner */\n      dup1\n      0x00\n      swap1\n      sload\n      swap1\n      0x0100\n      exp\n      swap1\n      div\n      0xffffffffffffffffffffffffffffffffffffffff\n      and\n        /* \"contracts/MarketPlace.sol\":1819:1838  userProducts[owner] */\n      0xffffffffffffffffffffffffffffffffffffffff\n      and\n      0xffffffffffffffffffffffffffffffffffffffff\n      and\n      dup2\n      mstore\n      0x20\n      add\n      swap1\n      dup2\n      mstore\n      0x20\n      add\n      0x00\n      keccak256\n        /* \"contracts/MarketPlace.sol\":1839:1842  _id */\n      dup5\n        /* \"contracts/MarketPlace.sol\":1819:1843  userProducts[owner][_id] */\n      dup2\n      sload\n      dup2\n      lt\n      tag_117\n      jumpi\n      tag_118\n      tag_73\n      jump\t// in\n    tag_118:\n    tag_117:\n      swap1\n      0x00\n      mstore\n      keccak256(0x00, 0x20)\n      swap1\n      0x03\n      mul\n      add\n        /* \"contracts/MarketPlace.sol\":1819:1851  userProducts[owner][_id].inStock */\n      0x00\n      add\n      0x00\n        /* \"contracts/MarketPlace.sol\":1819:1862  userProducts[owner][_id].inStock -= _amount */\n      dup3\n      dup3\n      sload\n      tag_120\n      swap2\n      swap1\n      tag_121\n      jump\t// in\n    tag_120:\n      swap3\n      pop\n      pop\n      dup2\n      swap1\n      sstore\n      pop\n        /* \"contracts/MarketPlace.sol\":1881:1893  userProducts */\n      0x02\n        /* \"contracts/MarketPlace.sol\":1881:1905  userProducts[msg.sender] */\n      0x00\n        /* \"contracts/MarketPlace.sol\":1894:1904  msg.sender */\n      caller\n        /* \"contracts/MarketPlace.sol\":1881:1905  userProducts[msg.sender] */\n      0xffffffffffffffffffffffffffffffffffffffff\n      and\n      0xffffffffffffffffffffffffffffffffffffffff\n      and\n      dup2\n      mstore\n      0x20\n      add\n      swap1\n      dup2\n      mstore\n      0x20\n      add\n      0x00\n      keccak256\n        /* \"contracts/MarketPlace.sol\":1911:1915  item */\n      dup2\n        /* \"contracts/MarketPlace.sol\":1881:1916  userProducts[msg.sender].push(item) */\n      swap1\n      dup1\n      0x01\n      dup2\n      sload\n      add\n      dup1\n      dup3\n      sstore\n      dup1\n      swap2\n      pop\n      pop\n      0x01\n      swap1\n      sub\n      swap1\n      0x00\n      mstore\n      keccak256(0x00, 0x20)\n      swap1\n      0x03\n      mul\n      add\n      0x00\n      swap1\n      swap2\n      swap1\n      swap2\n      swap1\n      swap2\n      pop\n      0x00\n      dup3\n      add\n      mload\n      dup2\n      0x00\n      add\n      sstore\n      0x20\n      dup3\n      add\n      mload\n      dup2\n      0x01\n      add\n      sstore\n      0x40\n      dup3\n      add\n      mload\n      dup2\n      0x02\n      add\n      swap1\n      dup2\n      tag_123\n      swap2\n      swap1\n      tag_124\n      jump\t// in\n    tag_123:\n      pop\n      pop\n      pop\n        /* \"contracts/MarketPlace.sol\":1943:1953  totalPrice */\n      dup2\n        /* \"contracts/MarketPlace.sol\":1931:1940  msg.value */\n      callvalue\n        /* \"contracts/MarketPlace.sol\":1931:1953  msg.value > totalPrice */\n      gt\n        /* \"contracts/MarketPlace.sol\":1927:2062  if (msg.value > totalPrice) {... */\n      iszero\n      tag_125\n      jumpi\n        /* \"contracts/MarketPlace.sol\":1969:1980  uint change */\n      0x00\n        /* \"contracts/MarketPlace.sol\":1995:2005  totalPrice */\n      dup3\n        /* \"contracts/MarketPlace.sol\":1983:1992  msg.value */\n      callvalue\n        /* \"contracts/MarketPlace.sol\":1983:2005  msg.value - totalPrice */\n      tag_126\n      swap2\n      swap1\n      tag_121\n      jump\t// in\n    tag_126:\n        /* \"contracts/MarketPlace.sol\":1969:2005  uint change = msg.value - totalPrice */\n      swap1\n      pop\n        /* \"contracts/MarketPlace.sol\":2027:2037  msg.sender */\n      caller\n        /* \"contracts/MarketPlace.sol\":2019:2047  payable(msg.sender).transfer */\n      0xffffffffffffffffffffffffffffffffffffffff\n      and\n        /* \"contracts/MarketPlace.sol\":2019:2055  payable(msg.sender).transfer(change) */\n      0x08fc\n        /* \"contracts/MarketPlace.sol\":2048:2054  change */\n      dup3\n        /* \"contracts/MarketPlace.sol\":2019:2055  payable(msg.sender).transfer(change) */\n      swap1\n      dup2\n      iszero\n      mul\n      swap1\n      mload(0x40)\n      0x00\n      mload(0x40)\n      dup1\n      dup4\n      sub\n      dup2\n      dup6\n      dup9\n      dup9\n      call\n      swap4\n      pop\n      pop\n      pop\n      pop\n      iszero\n      dup1\n      iszero\n      tag_128\n      jumpi\n      returndatasize\n      0x00\n      dup1\n      returndatacopy\n      revert(0x00, returndatasize)\n    tag_128:\n      pop\n        /* \"contracts/MarketPlace.sol\":1955:2062  {... */\n      pop\n        /* \"contracts/MarketPlace.sol\":1927:2062  if (msg.value > totalPrice) {... */\n    tag_125:\n        /* \"contracts/MarketPlace.sol\":2068:2080  uint balance */\n      0x00\n        /* \"contracts/MarketPlace.sol\":2083:2104  address(this).balance */\n      selfbalance\n        /* \"contracts/MarketPlace.sol\":2068:2104  uint balance = address(this).balance */\n      swap1\n      pop\n        /* \"contracts/MarketPlace.sol\":2118:2123  owner */\n      0x00\n      dup1\n      sload\n      swap1\n      0x0100\n      exp\n      swap1\n      div\n      0xffffffffffffffffffffffffffffffffffffffff\n      and\n        /* \"contracts/MarketPlace.sol\":2110:2133  payable(owner).transfer */\n      0xffffffffffffffffffffffffffffffffffffffff\n      and\n        /* \"contracts/MarketPlace.sol\":2110:2142  payable(owner).transfer(balance) */\n      0x08fc\n        /* \"contracts/MarketPlace.sol\":2134:2141  balance */\n      dup3\n        /* \"contracts/MarketPlace.sol\":2110:2142  payable(owner).transfer(balance) */\n      swap1\n      dup2\n      iszero\n      mul\n      swap1\n      mload(0x40)\n      0x00\n      mload(0x40)\n      dup1\n      dup4\n      sub\n      dup2\n      dup6\n      dup9\n      dup9\n      call\n      swap4\n      pop\n      pop\n      pop\n      pop\n      iszero\n      dup1\n      iszero\n      tag_130\n      jumpi\n      returndatasize\n      0x00\n      dup1\n      returndatacopy\n      revert(0x00, returndatasize)\n    tag_130:\n      pop\n        /* \"contracts/MarketPlace.sol\":1205:2149  {... */\n      pop\n      pop\n      pop\n        /* \"contracts/MarketPlace.sol\":1148:2149  function purchase(uint _amount, uint _id) public payable {... */\n      pop\n      pop\n      jump\t// out\n        /* \"contracts/MarketPlace.sol\":84:104  address public owner */\n    tag_35:\n      0x00\n      dup1\n      sload\n      swap1\n      0x0100\n      exp\n      swap1\n      div\n      0xffffffffffffffffffffffffffffffffffffffff\n      and\n      dup2\n      jump\t// out\n        /* \"contracts/MarketPlace.sol\":625:822  function addItems(uint _inStock, uint _price, string calldata _name) public onlyOwner {... */\n    tag_42:\n        /* \"contracts/MarketPlace.sol\":453:458  owner */\n      0x00\n      dup1\n      sload\n      swap1\n      0x0100\n      exp\n      swap1\n      div\n      0xffffffffffffffffffffffffffffffffffffffff\n      and\n        /* \"contracts/MarketPlace.sol\":439:458  msg.sender == owner */\n      0xffffffffffffffffffffffffffffffffffffffff\n      and\n        /* \"contracts/MarketPlace.sol\":439:449  msg.sender */\n      caller\n        /* \"contracts/MarketPlace.sol\":439:458  msg.sender == owner */\n      0xffffffffffffffffffffffffffffffffffffffff\n      and\n      eq\n        /* \"contracts/MarketPlace.sol\":431:501  require(msg.sender == owner, \"Only the owner can perform this action\") */\n      tag_132\n      jumpi\n      mload(0x40)\n      0x08c379a000000000000000000000000000000000000000000000000000000000\n      dup2\n      mstore\n      0x04\n      add\n      tag_133\n      swap1\n      tag_134\n      jump\t// in\n    tag_133:\n      mload(0x40)\n      dup1\n      swap2\n      sub\n      swap1\n      revert\n    tag_132:\n        /* \"contracts/MarketPlace.sol\":721:740  Product memory item */\n      0x00\n        /* \"contracts/MarketPlace.sol\":743:775  Product(_inStock, _price, _name) */\n      mload(0x40)\n      dup1\n      0x60\n      add\n      0x40\n      mstore\n      dup1\n        /* \"contracts/MarketPlace.sol\":751:759  _inStock */\n      dup7\n        /* \"contracts/MarketPlace.sol\":743:775  Product(_inStock, _price, _name) */\n      dup2\n      mstore\n      0x20\n      add\n        /* \"contracts/MarketPlace.sol\":761:767  _price */\n      dup6\n        /* \"contracts/MarketPlace.sol\":743:775  Product(_inStock, _price, _name) */\n      dup2\n      mstore\n      0x20\n      add\n        /* \"contracts/MarketPlace.sol\":769:774  _name */\n      dup5\n      dup5\n        /* \"contracts/MarketPlace.sol\":743:775  Product(_inStock, _price, _name) */\n      dup1\n      dup1\n      0x1f\n      add\n      0x20\n      dup1\n      swap2\n      div\n      mul\n      0x20\n      add\n      mload(0x40)\n      swap1\n      dup2\n      add\n      0x40\n      mstore\n      dup1\n      swap4\n      swap3\n      swap2\n      swap1\n      dup2\n      dup2\n      mstore\n      0x20\n      add\n      dup4\n      dup4\n      dup1\n      dup3\n      dup5\n      calldatacopy\n      0x00\n      dup2\n      dup5\n      add\n      mstore\n      not(0x1f)\n      0x1f\n      dup3\n      add\n      and\n      swap1\n      pop\n      dup1\n      dup4\n      add\n      swap3\n      pop\n      pop\n      pop\n      pop\n      pop\n      pop\n      pop\n      dup2\n      mstore\n      pop\n        /* \"contracts/MarketPlace.sol\":721:775  Product memory item = Product(_inStock, _price, _name) */\n      swap1\n      pop\n        /* \"contracts/MarketPlace.sol\":785:797  userProducts */\n      0x02\n        /* \"contracts/MarketPlace.sol\":785:804  userProducts[owner] */\n      0x00\n        /* \"contracts/MarketPlace.sol\":798:803  owner */\n      dup1\n      0x00\n      swap1\n      sload\n      swap1\n      0x0100\n      exp\n      swap1\n      div\n      0xffffffffffffffffffffffffffffffffffffffff\n      and\n        /* \"contracts/MarketPlace.sol\":785:804  userProducts[owner] */\n      0xffffffffffffffffffffffffffffffffffffffff\n      and\n      0xffffffffffffffffffffffffffffffffffffffff\n      and\n      dup2\n      mstore\n      0x20\n      add\n      swap1\n      dup2\n      mstore\n      0x20\n      add\n      0x00\n      keccak256\n        /* \"contracts/MarketPlace.sol\":810:814  item */\n      dup2\n        /* \"contracts/MarketPlace.sol\":785:815  userProducts[owner].push(item) */\n      swap1\n      dup1\n      0x01\n      dup2\n      sload\n      add\n      dup1\n      dup3\n      sstore\n      dup1\n      swap2\n      pop\n      pop\n      0x01\n      swap1\n      sub\n      swap1\n      0x00\n      mstore\n      keccak256(0x00, 0x20)\n      swap1\n      0x03\n      mul\n      add\n      0x00\n      swap1\n      swap2\n      swap1\n      swap2\n      swap1\n      swap2\n      pop\n      0x00\n      dup3\n      add\n      mload\n      dup2\n      0x00\n      add\n      sstore\n      0x20\n      dup3\n      add\n      mload\n      dup2\n      0x01\n      add\n      sstore\n      0x40\n      dup3\n      add\n      mload\n      dup2\n      0x02\n      add\n      swap1\n      dup2\n      tag_137\n      swap2\n      swap1\n      tag_124\n      jump\t// in\n    tag_137:\n      pop\n      pop\n      pop\n        /* \"contracts/MarketPlace.sol\":711:822  {... */\n      pop\n        /* \"contracts/MarketPlace.sol\":625:822  function addItems(uint _inStock, uint _price, string calldata _name) public onlyOwner {... */\n      pop\n      pop\n      pop\n      pop\n      jump\t// out\n        /* \"contracts/MarketPlace.sol\":301:338  mapping(address => User) public users */\n    tag_47:\n      mstore(0x20, 0x01)\n      dup1\n      0x00\n      mstore\n      keccak256(0x00, 0x40)\n      0x00\n      swap2\n      pop\n      swap1\n      pop\n      dup1\n      0x00\n      add\n      sload\n      swap1\n      dup1\n      0x01\n      add\n      0x00\n      swap1\n      sload\n      swap1\n      0x0100\n      exp\n      swap1\n      div\n      0xff\n      and\n      swap1\n      pop\n      dup3\n      jump\t// out\n        /* \"#utility.yul\":88:205   */\n    tag_139:\n        /* \"#utility.yul\":197:198   */\n      0x00\n        /* \"#utility.yul\":194:195   */\n      dup1\n        /* \"#utility.yul\":187:199   */\n      revert\n        /* \"#utility.yul\":211:328   */\n    tag_140:\n        /* \"#utility.yul\":320:321   */\n      0x00\n        /* \"#utility.yul\":317:318   */\n      dup1\n        /* \"#utility.yul\":310:322   */\n      revert\n        /* \"#utility.yul\":334:460   */\n    tag_141:\n        /* \"#utility.yul\":371:378   */\n      0x00\n        /* \"#utility.yul\":411:453   */\n      0xffffffffffffffffffffffffffffffffffffffff\n        /* \"#utility.yul\":404:409   */\n      dup3\n        /* \"#utility.yul\":400:454   */\n      and\n        /* \"#utility.yul\":389:454   */\n      swap1\n      pop\n        /* \"#utility.yul\":334:460   */\n      swap2\n      swap1\n      pop\n      jump\t// out\n        /* \"#utility.yul\":466:562   */\n    tag_142:\n        /* \"#utility.yul\":503:510   */\n      0x00\n        /* \"#utility.yul\":532:556   */\n      tag_207\n        /* \"#utility.yul\":550:555   */\n      dup3\n        /* \"#utility.yul\":532:556   */\n      tag_141\n      jump\t// in\n    tag_207:\n        /* \"#utility.yul\":521:556   */\n      swap1\n      pop\n        /* \"#utility.yul\":466:562   */\n      swap2\n      swap1\n      pop\n      jump\t// out\n        /* \"#utility.yul\":568:690   */\n    tag_143:\n        /* \"#utility.yul\":641:665   */\n      tag_209\n        /* \"#utility.yul\":659:664   */\n      dup2\n        /* \"#utility.yul\":641:665   */\n      tag_142\n      jump\t// in\n    tag_209:\n        /* \"#utility.yul\":634:639   */\n      dup2\n        /* \"#utility.yul\":631:666   */\n      eq\n        /* \"#utility.yul\":621:684   */\n      tag_210\n      jumpi\n        /* \"#utility.yul\":680:681   */\n      0x00\n        /* \"#utility.yul\":677:678   */\n      dup1\n        /* \"#utility.yul\":670:682   */\n      revert\n        /* \"#utility.yul\":621:684   */\n    tag_210:\n        /* \"#utility.yul\":568:690   */\n      pop\n      jump\t// out\n        /* \"#utility.yul\":696:835   */\n    tag_144:\n        /* \"#utility.yul\":742:747   */\n      0x00\n        /* \"#utility.yul\":780:786   */\n      dup2\n        /* \"#utility.yul\":767:787   */\n      calldataload\n        /* \"#utility.yul\":758:787   */\n      swap1\n      pop\n        /* \"#utility.yul\":796:829   */\n      tag_212\n        /* \"#utility.yul\":823:828   */\n      dup2\n        /* \"#utility.yul\":796:829   */\n      tag_143\n      jump\t// in\n    tag_212:\n        /* \"#utility.yul\":696:835   */\n      swap3\n      swap2\n      pop\n      pop\n      jump\t// out\n        /* \"#utility.yul\":841:918   */\n    tag_145:\n        /* \"#utility.yul\":878:885   */\n      0x00\n        /* \"#utility.yul\":907:912   */\n      dup2\n        /* \"#utility.yul\":896:912   */\n      swap1\n      pop\n        /* \"#utility.yul\":841:918   */\n      swap2\n      swap1\n      pop\n      jump\t// out\n        /* \"#utility.yul\":924:1046   */\n    tag_146:\n        /* \"#utility.yul\":997:1021   */\n      tag_215\n        /* \"#utility.yul\":1015:1020   */\n      dup2\n        /* \"#utility.yul\":997:1021   */\n      tag_145\n      jump\t// in\n    tag_215:\n        /* \"#utility.yul\":990:995   */\n      dup2\n        /* \"#utility.yul\":987:1022   */\n      eq\n        /* \"#utility.yul\":977:1040   */\n      tag_216\n      jumpi\n        /* \"#utility.yul\":1036:1037   */\n      0x00\n        /* \"#utility.yul\":1033:1034   */\n      dup1\n        /* \"#utility.yul\":1026:1038   */\n      revert\n        /* \"#utility.yul\":977:1040   */\n    tag_216:\n        /* \"#utility.yul\":924:1046   */\n      pop\n      jump\t// out\n        /* \"#utility.yul\":1052:1191   */\n    tag_147:\n        /* \"#utility.yul\":1098:1103   */\n      0x00\n        /* \"#utility.yul\":1136:1142   */\n      dup2\n        /* \"#utility.yul\":1123:1143   */\n      calldataload\n        /* \"#utility.yul\":1114:1143   */\n      swap1\n      pop\n        /* \"#utility.yul\":1152:1185   */\n      tag_218\n        /* \"#utility.yul\":1179:1184   */\n      dup2\n        /* \"#utility.yul\":1152:1185   */\n      tag_146\n      jump\t// in\n    tag_218:\n        /* \"#utility.yul\":1052:1191   */\n      swap3\n      swap2\n      pop\n      pop\n      jump\t// out\n        /* \"#utility.yul\":1197:1671   */\n    tag_13:\n        /* \"#utility.yul\":1265:1271   */\n      0x00\n        /* \"#utility.yul\":1273:1279   */\n      dup1\n        /* \"#utility.yul\":1322:1324   */\n      0x40\n        /* \"#utility.yul\":1310:1319   */\n      dup4\n        /* \"#utility.yul\":1301:1308   */\n      dup6\n        /* \"#utility.yul\":1297:1320   */\n      sub\n        /* \"#utility.yul\":1293:1325   */\n      slt\n        /* \"#utility.yul\":1290:1409   */\n      iszero\n      tag_220\n      jumpi\n        /* \"#utility.yul\":1328:1407   */\n      tag_221\n      tag_139\n      jump\t// in\n    tag_221:\n        /* \"#utility.yul\":1290:1409   */\n    tag_220:\n        /* \"#utility.yul\":1448:1449   */\n      0x00\n        /* \"#utility.yul\":1473:1526   */\n      tag_222\n        /* \"#utility.yul\":1518:1525   */\n      dup6\n        /* \"#utility.yul\":1509:1515   */\n      dup3\n        /* \"#utility.yul\":1498:1507   */\n      dup7\n        /* \"#utility.yul\":1494:1516   */\n      add\n        /* \"#utility.yul\":1473:1526   */\n      tag_144\n      jump\t// in\n    tag_222:\n        /* \"#utility.yul\":1463:1526   */\n      swap3\n      pop\n        /* \"#utility.yul\":1419:1536   */\n      pop\n        /* \"#utility.yul\":1575:1577   */\n      0x20\n        /* \"#utility.yul\":1601:1654   */\n      tag_223\n        /* \"#utility.yul\":1646:1653   */\n      dup6\n        /* \"#utility.yul\":1637:1643   */\n      dup3\n        /* \"#utility.yul\":1626:1635   */\n      dup7\n        /* \"#utility.yul\":1622:1644   */\n      add\n        /* \"#utility.yul\":1601:1654   */\n      tag_147\n      jump\t// in\n    tag_223:\n        /* \"#utility.yul\":1591:1654   */\n      swap2\n      pop\n        /* \"#utility.yul\":1546:1664   */\n      pop\n        /* \"#utility.yul\":1197:1671   */\n      swap3\n      pop\n      swap3\n      swap1\n      pop\n      jump\t// out\n        /* \"#utility.yul\":1677:1795   */\n    tag_148:\n        /* \"#utility.yul\":1764:1788   */\n      tag_225\n        /* \"#utility.yul\":1782:1787   */\n      dup2\n        /* \"#utility.yul\":1764:1788   */\n      tag_145\n      jump\t// in\n    tag_225:\n        /* \"#utility.yul\":1759:1762   */\n      dup3\n        /* \"#utility.yul\":1752:1789   */\n      mstore\n        /* \"#utility.yul\":1677:1795   */\n      pop\n      pop\n      jump\t// out\n        /* \"#utility.yul\":1801:1900   */\n    tag_149:\n        /* \"#utility.yul\":1853:1859   */\n      0x00\n        /* \"#utility.yul\":1887:1892   */\n      dup2\n        /* \"#utility.yul\":1881:1893   */\n      mload\n        /* \"#utility.yul\":1871:1893   */\n      swap1\n      pop\n        /* \"#utility.yul\":1801:1900   */\n      swap2\n      swap1\n      pop\n      jump\t// out\n        /* \"#utility.yul\":1906:2075   */\n    tag_150:\n        /* \"#utility.yul\":1990:2001   */\n      0x00\n        /* \"#utility.yul\":2024:2030   */\n      dup3\n        /* \"#utility.yul\":2019:2022   */\n      dup3\n        /* \"#utility.yul\":2012:2031   */\n      mstore\n        /* \"#utility.yul\":2064:2068   */\n      0x20\n        /* \"#utility.yul\":2059:2062   */\n      dup3\n        /* \"#utility.yul\":2055:2069   */\n      add\n        /* \"#utility.yul\":2040:2069   */\n      swap1\n      pop\n        /* \"#utility.yul\":1906:2075   */\n      swap3\n      swap2\n      pop\n      pop\n      jump\t// out\n        /* \"#utility.yul\":2081:2327   */\n    tag_151:\n        /* \"#utility.yul\":2162:2163   */\n      0x00\n        /* \"#utility.yul\":2172:2285   */\n    tag_229:\n        /* \"#utility.yul\":2186:2192   */\n      dup4\n        /* \"#utility.yul\":2183:2184   */\n      dup2\n        /* \"#utility.yul\":2180:2193   */\n      lt\n        /* \"#utility.yul\":2172:2285   */\n      iszero\n      tag_231\n      jumpi\n        /* \"#utility.yul\":2271:2272   */\n      dup1\n        /* \"#utility.yul\":2266:2269   */\n      dup3\n        /* \"#utility.yul\":2262:2273   */\n      add\n        /* \"#utility.yul\":2256:2274   */\n      mload\n        /* \"#utility.yul\":2252:2253   */\n      dup2\n        /* \"#utility.yul\":2247:2250   */\n      dup5\n        /* \"#utility.yul\":2243:2254   */\n      add\n        /* \"#utility.yul\":2236:2275   */\n      mstore\n        /* \"#utility.yul\":2208:2210   */\n      0x20\n        /* \"#utility.yul\":2205:2206   */\n      dup2\n        /* \"#utility.yul\":2201:2211   */\n      add\n        /* \"#utility.yul\":2196:2211   */\n      swap1\n      pop\n        /* \"#utility.yul\":2172:2285   */\n      jump(tag_229)\n    tag_231:\n        /* \"#utility.yul\":2319:2320   */\n      0x00\n        /* \"#utility.yul\":2310:2316   */\n      dup5\n        /* \"#utility.yul\":2305:2308   */\n      dup5\n        /* \"#utility.yul\":2301:2317   */\n      add\n        /* \"#utility.yul\":2294:2321   */\n      mstore\n        /* \"#utility.yul\":2143:2327   */\n      pop\n        /* \"#utility.yul\":2081:2327   */\n      pop\n      pop\n      pop\n      jump\t// out\n        /* \"#utility.yul\":2333:2435   */\n    tag_152:\n        /* \"#utility.yul\":2374:2380   */\n      0x00\n        /* \"#utility.yul\":2425:2427   */\n      0x1f\n        /* \"#utility.yul\":2421:2428   */\n      not\n        /* \"#utility.yul\":2416:2418   */\n      0x1f\n        /* \"#utility.yul\":2409:2414   */\n      dup4\n        /* \"#utility.yul\":2405:2419   */\n      add\n        /* \"#utility.yul\":2401:2429   */\n      and\n        /* \"#utility.yul\":2391:2429   */\n      swap1\n      pop\n        /* \"#utility.yul\":2333:2435   */\n      swap2\n      swap1\n      pop\n      jump\t// out\n        /* \"#utility.yul\":2441:2818   */\n    tag_153:\n        /* \"#utility.yul\":2529:2532   */\n      0x00\n        /* \"#utility.yul\":2557:2596   */\n      tag_234\n        /* \"#utility.yul\":2590:2595   */\n      dup3\n        /* \"#utility.yul\":2557:2596   */\n      tag_149\n      jump\t// in\n    tag_234:\n        /* \"#utility.yul\":2612:2683   */\n      tag_235\n        /* \"#utility.yul\":2676:2682   */\n      dup2\n        /* \"#utility.yul\":2671:2674   */\n      dup6\n        /* \"#utility.yul\":2612:2683   */\n      tag_150\n      jump\t// in\n    tag_235:\n        /* \"#utility.yul\":2605:2683   */\n      swap4\n      pop\n        /* \"#utility.yul\":2692:2757   */\n      tag_236\n        /* \"#utility.yul\":2750:2756   */\n      dup2\n        /* \"#utility.yul\":2745:2748   */\n      dup6\n        /* \"#utility.yul\":2738:2742   */\n      0x20\n        /* \"#utility.yul\":2731:2736   */\n      dup7\n        /* \"#utility.yul\":2727:2743   */\n      add\n        /* \"#utility.yul\":2692:2757   */\n      tag_151\n      jump\t// in\n    tag_236:\n        /* \"#utility.yul\":2782:2811   */\n      tag_237\n        /* \"#utility.yul\":2804:2810   */\n      dup2\n        /* \"#utility.yul\":2782:2811   */\n      tag_152\n      jump\t// in\n    tag_237:\n        /* \"#utility.yul\":2777:2780   */\n      dup5\n        /* \"#utility.yul\":2773:2812   */\n      add\n        /* \"#utility.yul\":2766:2812   */\n      swap2\n      pop\n        /* \"#utility.yul\":2533:2818   */\n      pop\n        /* \"#utility.yul\":2441:2818   */\n      swap3\n      swap2\n      pop\n      pop\n      jump\t// out\n        /* \"#utility.yul\":2824:3357   */\n    tag_16:\n        /* \"#utility.yul\":2993:2997   */\n      0x00\n        /* \"#utility.yul\":3031:3033   */\n      0x60\n        /* \"#utility.yul\":3020:3029   */\n      dup3\n        /* \"#utility.yul\":3016:3034   */\n      add\n        /* \"#utility.yul\":3008:3034   */\n      swap1\n      pop\n        /* \"#utility.yul\":3044:3115   */\n      tag_239\n        /* \"#utility.yul\":3112:3113   */\n      0x00\n        /* \"#utility.yul\":3101:3110   */\n      dup4\n        /* \"#utility.yul\":3097:3114   */\n      add\n        /* \"#utility.yul\":3088:3094   */\n      dup7\n        /* \"#utility.yul\":3044:3115   */\n      tag_148\n      jump\t// in\n    tag_239:\n        /* \"#utility.yul\":3125:3197   */\n      tag_240\n        /* \"#utility.yul\":3193:3195   */\n      0x20\n        /* \"#utility.yul\":3182:3191   */\n      dup4\n        /* \"#utility.yul\":3178:3196   */\n      add\n        /* \"#utility.yul\":3169:3175   */\n      dup6\n        /* \"#utility.yul\":3125:3197   */\n      tag_148\n      jump\t// in\n    tag_240:\n        /* \"#utility.yul\":3244:3253   */\n      dup2\n        /* \"#utility.yul\":3238:3242   */\n      dup2\n        /* \"#utility.yul\":3234:3254   */\n      sub\n        /* \"#utility.yul\":3229:3231   */\n      0x40\n        /* \"#utility.yul\":3218:3227   */\n      dup4\n        /* \"#utility.yul\":3214:3232   */\n      add\n        /* \"#utility.yul\":3207:3255   */\n      mstore\n        /* \"#utility.yul\":3272:3350   */\n      tag_241\n        /* \"#utility.yul\":3345:3349   */\n      dup2\n        /* \"#utility.yul\":3336:3342   */\n      dup5\n        /* \"#utility.yul\":3272:3350   */\n      tag_153\n      jump\t// in\n    tag_241:\n        /* \"#utility.yul\":3264:3350   */\n      swap1\n      pop\n        /* \"#utility.yul\":2824:3357   */\n      swap5\n      swap4\n      pop\n      pop\n      pop\n      pop\n      jump\t// out\n        /* \"#utility.yul\":3363:3500   */\n    tag_154:\n        /* \"#utility.yul\":3453:3459   */\n      0x00\n        /* \"#utility.yul\":3487:3492   */\n      dup2\n        /* \"#utility.yul\":3481:3493   */\n      mload\n        /* \"#utility.yul\":3471:3493   */\n      swap1\n      pop\n        /* \"#utility.yul\":3363:3500   */\n      swap2\n      swap1\n      pop\n      jump\t// out\n        /* \"#utility.yul\":3506:3713   */\n    tag_155:\n        /* \"#utility.yul\":3628:3639   */\n      0x00\n        /* \"#utility.yul\":3662:3668   */\n      dup3\n        /* \"#utility.yul\":3657:3660   */\n      dup3\n        /* \"#utility.yul\":3650:3669   */\n      mstore\n        /* \"#utility.yul\":3702:3706   */\n      0x20\n        /* \"#utility.yul\":3697:3700   */\n      dup3\n        /* \"#utility.yul\":3693:3707   */\n      add\n        /* \"#utility.yul\":3678:3707   */\n      swap1\n      pop\n        /* \"#utility.yul\":3506:3713   */\n      swap3\n      swap2\n      pop\n      pop\n      jump\t// out\n        /* \"#utility.yul\":3719:3874   */\n    tag_156:\n        /* \"#utility.yul\":3809:3813   */\n      0x00\n        /* \"#utility.yul\":3832:3835   */\n      dup2\n        /* \"#utility.yul\":3824:3835   */\n      swap1\n      pop\n        /* \"#utility.yul\":3862:3866   */\n      0x20\n        /* \"#utility.yul\":3857:3860   */\n      dup3\n        /* \"#utility.yul\":3853:3867   */\n      add\n        /* \"#utility.yul\":3845:3867   */\n      swap1\n      pop\n        /* \"#utility.yul\":3719:3874   */\n      swap2\n      swap1\n      pop\n      jump\t// out\n        /* \"#utility.yul\":3880:3988   */\n    tag_157:\n        /* \"#utility.yul\":3957:3981   */\n      tag_246\n        /* \"#utility.yul\":3975:3980   */\n      dup2\n        /* \"#utility.yul\":3957:3981   */\n      tag_145\n      jump\t// in\n    tag_246:\n        /* \"#utility.yul\":3952:3955   */\n      dup3\n        /* \"#utility.yul\":3945:3982   */\n      mstore\n        /* \"#utility.yul\":3880:3988   */\n      pop\n      pop\n      jump\t// out\n        /* \"#utility.yul\":3994:4153   */\n    tag_158:\n        /* \"#utility.yul\":4068:4079   */\n      0x00\n        /* \"#utility.yul\":4102:4108   */\n      dup3\n        /* \"#utility.yul\":4097:4100   */\n      dup3\n        /* \"#utility.yul\":4090:4109   */\n      mstore\n        /* \"#utility.yul\":4142:4146   */\n      0x20\n        /* \"#utility.yul\":4137:4140   */\n      dup3\n        /* \"#utility.yul\":4133:4147   */\n      add\n        /* \"#utility.yul\":4118:4147   */\n      swap1\n      pop\n        /* \"#utility.yul\":3994:4153   */\n      swap3\n      swap2\n      pop\n      pop\n      jump\t// out\n        /* \"#utility.yul\":4159:4516   */\n    tag_159:\n        /* \"#utility.yul\":4237:4240   */\n      0x00\n        /* \"#utility.yul\":4265:4304   */\n      tag_249\n        /* \"#utility.yul\":4298:4303   */\n      dup3\n        /* \"#utility.yul\":4265:4304   */\n      tag_149\n      jump\t// in\n    tag_249:\n        /* \"#utility.yul\":4320:4381   */\n      tag_250\n        /* \"#utility.yul\":4374:4380   */\n      dup2\n        /* \"#utility.yul\":4369:4372   */\n      dup6\n        /* \"#utility.yul\":4320:4381   */\n      tag_158\n      jump\t// in\n    tag_250:\n        /* \"#utility.yul\":4313:4381   */\n      swap4\n      pop\n        /* \"#utility.yul\":4390:4455   */\n      tag_251\n        /* \"#utility.yul\":4448:4454   */\n      dup2\n        /* \"#utility.yul\":4443:4446   */\n      dup6\n        /* \"#utility.yul\":4436:4440   */\n      0x20\n        /* \"#utility.yul\":4429:4434   */\n      dup7\n        /* \"#utility.yul\":4425:4441   */\n      add\n        /* \"#utility.yul\":4390:4455   */\n      tag_151\n      jump\t// in\n    tag_251:\n        /* \"#utility.yul\":4480:4509   */\n      tag_252\n        /* \"#utility.yul\":4502:4508   */\n      dup2\n        /* \"#utility.yul\":4480:4509   */\n      tag_152\n      jump\t// in\n    tag_252:\n        /* \"#utility.yul\":4475:4478   */\n      dup5\n        /* \"#utility.yul\":4471:4510   */\n      add\n        /* \"#utility.yul\":4464:4510   */\n      swap2\n      pop\n        /* \"#utility.yul\":4241:4516   */\n      pop\n        /* \"#utility.yul\":4159:4516   */\n      swap3\n      swap2\n      pop\n      pop\n      jump\t// out\n        /* \"#utility.yul\":4586:5356   */\n    tag_160:\n        /* \"#utility.yul\":4691:4694   */\n      0x00\n        /* \"#utility.yul\":4727:4731   */\n      0x60\n        /* \"#utility.yul\":4722:4725   */\n      dup4\n        /* \"#utility.yul\":4718:4732   */\n      add\n        /* \"#utility.yul\":4817:4821   */\n      0x00\n        /* \"#utility.yul\":4810:4815   */\n      dup4\n        /* \"#utility.yul\":4806:4822   */\n      add\n        /* \"#utility.yul\":4800:4823   */\n      mload\n        /* \"#utility.yul\":4836:4899   */\n      tag_254\n        /* \"#utility.yul\":4893:4897   */\n      0x00\n        /* \"#utility.yul\":4888:4891   */\n      dup7\n        /* \"#utility.yul\":4884:4898   */\n      add\n        /* \"#utility.yul\":4870:4882   */\n      dup3\n        /* \"#utility.yul\":4836:4899   */\n      tag_157\n      jump\t// in\n    tag_254:\n        /* \"#utility.yul\":4742:4909   */\n      pop\n        /* \"#utility.yul\":4992:4996   */\n      0x20\n        /* \"#utility.yul\":4985:4990   */\n      dup4\n        /* \"#utility.yul\":4981:4997   */\n      add\n        /* \"#utility.yul\":4975:4998   */\n      mload\n        /* \"#utility.yul\":5011:5074   */\n      tag_255\n        /* \"#utility.yul\":5068:5072   */\n      0x20\n        /* \"#utility.yul\":5063:5066   */\n      dup7\n        /* \"#utility.yul\":5059:5073   */\n      add\n        /* \"#utility.yul\":5045:5057   */\n      dup3\n        /* \"#utility.yul\":5011:5074   */\n      tag_157\n      jump\t// in\n    tag_255:\n        /* \"#utility.yul\":4919:5084   */\n      pop\n        /* \"#utility.yul\":5166:5170   */\n      0x40\n        /* \"#utility.yul\":5159:5164   */\n      dup4\n        /* \"#utility.yul\":5155:5171   */\n      add\n        /* \"#utility.yul\":5149:5172   */\n      mload\n        /* \"#utility.yul\":5219:5222   */\n      dup5\n        /* \"#utility.yul\":5213:5217   */\n      dup3\n        /* \"#utility.yul\":5209:5223   */\n      sub\n        /* \"#utility.yul\":5202:5206   */\n      0x40\n        /* \"#utility.yul\":5197:5200   */\n      dup7\n        /* \"#utility.yul\":5193:5207   */\n      add\n        /* \"#utility.yul\":5186:5224   */\n      mstore\n        /* \"#utility.yul\":5245:5318   */\n      tag_256\n        /* \"#utility.yul\":5313:5317   */\n      dup3\n        /* \"#utility.yul\":5299:5311   */\n      dup3\n        /* \"#utility.yul\":5245:5318   */\n      tag_159\n      jump\t// in\n    tag_256:\n        /* \"#utility.yul\":5237:5318   */\n      swap2\n      pop\n        /* \"#utility.yul\":5094:5329   */\n      pop\n        /* \"#utility.yul\":5346:5350   */\n      dup1\n        /* \"#utility.yul\":5339:5350   */\n      swap2\n      pop\n        /* \"#utility.yul\":4696:5356   */\n      pop\n        /* \"#utility.yul\":4586:5356   */\n      swap3\n      swap2\n      pop\n      pop\n      jump\t// out\n        /* \"#utility.yul\":5362:5610   */\n    tag_161:\n        /* \"#utility.yul\":5477:5487   */\n      0x00\n        /* \"#utility.yul\":5512:5604   */\n      tag_258\n        /* \"#utility.yul\":5600:5603   */\n      dup4\n        /* \"#utility.yul\":5592:5598   */\n      dup4\n        /* \"#utility.yul\":5512:5604   */\n      tag_160\n      jump\t// in\n    tag_258:\n        /* \"#utility.yul\":5498:5604   */\n      swap1\n      pop\n        /* \"#utility.yul\":5362:5610   */\n      swap3\n      swap2\n      pop\n      pop\n      jump\t// out\n        /* \"#utility.yul\":5616:5752   */\n    tag_162:\n        /* \"#utility.yul\":5709:5713   */\n      0x00\n        /* \"#utility.yul\":5741:5745   */\n      0x20\n        /* \"#utility.yul\":5736:5739   */\n      dup3\n        /* \"#utility.yul\":5732:5746   */\n      add\n        /* \"#utility.yul\":5724:5746   */\n      swap1\n      pop\n        /* \"#utility.yul\":5616:5752   */\n      swap2\n      swap1\n      pop\n      jump\t// out\n        /* \"#utility.yul\":5826:6921   */\n    tag_163:\n        /* \"#utility.yul\":5991:5994   */\n      0x00\n        /* \"#utility.yul\":6020:6097   */\n      tag_261\n        /* \"#utility.yul\":6091:6096   */\n      dup3\n        /* \"#utility.yul\":6020:6097   */\n      tag_154\n      jump\t// in\n    tag_261:\n        /* \"#utility.yul\":6113:6222   */\n      tag_262\n        /* \"#utility.yul\":6215:6221   */\n      dup2\n        /* \"#utility.yul\":6210:6213   */\n      dup6\n        /* \"#utility.yul\":6113:6222   */\n      tag_155\n      jump\t// in\n    tag_262:\n        /* \"#utility.yul\":6106:6222   */\n      swap4\n      pop\n        /* \"#utility.yul\":6248:6251   */\n      dup4\n        /* \"#utility.yul\":6293:6297   */\n      0x20\n        /* \"#utility.yul\":6285:6291   */\n      dup3\n        /* \"#utility.yul\":6281:6298   */\n      mul\n        /* \"#utility.yul\":6276:6279   */\n      dup6\n        /* \"#utility.yul\":6272:6299   */\n      add\n        /* \"#utility.yul\":6323:6402   */\n      tag_263\n        /* \"#utility.yul\":6396:6401   */\n      dup6\n        /* \"#utility.yul\":6323:6402   */\n      tag_156\n      jump\t// in\n    tag_263:\n        /* \"#utility.yul\":6425:6432   */\n      dup1\n        /* \"#utility.yul\":6456:6457   */\n      0x00\n        /* \"#utility.yul\":6441:6876   */\n    tag_264:\n        /* \"#utility.yul\":6466:6472   */\n      dup6\n        /* \"#utility.yul\":6463:6464   */\n      dup2\n        /* \"#utility.yul\":6460:6473   */\n      lt\n        /* \"#utility.yul\":6441:6876   */\n      iszero\n      tag_266\n      jumpi\n        /* \"#utility.yul\":6537:6546   */\n      dup5\n        /* \"#utility.yul\":6531:6535   */\n      dup5\n        /* \"#utility.yul\":6527:6547   */\n      sub\n        /* \"#utility.yul\":6522:6525   */\n      dup10\n        /* \"#utility.yul\":6515:6548   */\n      mstore\n        /* \"#utility.yul\":6588:6594   */\n      dup2\n        /* \"#utility.yul\":6582:6595   */\n      mload\n        /* \"#utility.yul\":6616:6726   */\n      tag_267\n        /* \"#utility.yul\":6721:6725   */\n      dup6\n        /* \"#utility.yul\":6706:6719   */\n      dup3\n        /* \"#utility.yul\":6616:6726   */\n      tag_161\n      jump\t// in\n    tag_267:\n        /* \"#utility.yul\":6608:6726   */\n      swap5\n      pop\n        /* \"#utility.yul\":6749:6832   */\n      tag_268\n        /* \"#utility.yul\":6825:6831   */\n      dup4\n        /* \"#utility.yul\":6749:6832   */\n      tag_162\n      jump\t// in\n    tag_268:\n        /* \"#utility.yul\":6739:6832   */\n      swap3\n      pop\n        /* \"#utility.yul\":6861:6865   */\n      0x20\n        /* \"#utility.yul\":6856:6859   */\n      dup11\n        /* \"#utility.yul\":6852:6866   */\n      add\n        /* \"#utility.yul\":6845:6866   */\n      swap10\n      pop\n        /* \"#utility.yul\":6501:6876   */\n      pop\n        /* \"#utility.yul\":6488:6489   */\n      0x01\n        /* \"#utility.yul\":6485:6486   */\n      dup2\n        /* \"#utility.yul\":6481:6490   */\n      add\n        /* \"#utility.yul\":6476:6490   */\n      swap1\n      pop\n        /* \"#utility.yul\":6441:6876   */\n      jump(tag_264)\n    tag_266:\n        /* \"#utility.yul\":6445:6459   */\n      pop\n        /* \"#utility.yul\":6892:6896   */\n      dup3\n        /* \"#utility.yul\":6885:6896   */\n      swap8\n      pop\n        /* \"#utility.yul\":6912:6915   */\n      dup8\n        /* \"#utility.yul\":6905:6915   */\n      swap6\n      pop\n        /* \"#utility.yul\":5996:6921   */\n      pop\n      pop\n      pop\n      pop\n      pop\n        /* \"#utility.yul\":5826:6921   */\n      swap3\n      swap2\n      pop\n      pop\n      jump\t// out\n        /* \"#utility.yul\":6927:7392   */\n    tag_21:\n        /* \"#utility.yul\":7116:7120   */\n      0x00\n        /* \"#utility.yul\":7154:7156   */\n      0x20\n        /* \"#utility.yul\":7143:7152   */\n      dup3\n        /* \"#utility.yul\":7139:7157   */\n      add\n        /* \"#utility.yul\":7131:7157   */\n      swap1\n      pop\n        /* \"#utility.yul\":7203:7212   */\n      dup2\n        /* \"#utility.yul\":7197:7201   */\n      dup2\n        /* \"#utility.yul\":7193:7213   */\n      sub\n        /* \"#utility.yul\":7189:7190   */\n      0x00\n        /* \"#utility.yul\":7178:7187   */\n      dup4\n        /* \"#utility.yul\":7174:7191   */\n      add\n        /* \"#utility.yul\":7167:7214   */\n      mstore\n        /* \"#utility.yul\":7231:7385   */\n      tag_270\n        /* \"#utility.yul\":7380:7384   */\n      dup2\n        /* \"#utility.yul\":7371:7377   */\n      dup5\n        /* \"#utility.yul\":7231:7385   */\n      tag_163\n      jump\t// in\n    tag_270:\n        /* \"#utility.yul\":7223:7385   */\n      swap1\n      pop\n        /* \"#utility.yul\":6927:7392   */\n      swap3\n      swap2\n      pop\n      pop\n      jump\t// out\n        /* \"#utility.yul\":7398:7727   */\n    tag_25:\n        /* \"#utility.yul\":7457:7463   */\n      0x00\n        /* \"#utility.yul\":7506:7508   */\n      0x20\n        /* \"#utility.yul\":7494:7503   */\n      dup3\n        /* \"#utility.yul\":7485:7492   */\n      dup5\n        /* \"#utility.yul\":7481:7504   */\n      sub\n        /* \"#utility.yul\":7477:7509   */\n      slt\n        /* \"#utility.yul\":7474:7593   */\n      iszero\n      tag_272\n      jumpi\n        /* \"#utility.yul\":7512:7591   */\n      tag_273\n      tag_139\n      jump\t// in\n    tag_273:\n        /* \"#utility.yul\":7474:7593   */\n    tag_272:\n        /* \"#utility.yul\":7632:7633   */\n      0x00\n        /* \"#utility.yul\":7657:7710   */\n      tag_274\n        /* \"#utility.yul\":7702:7709   */\n      dup5\n        /* \"#utility.yul\":7693:7699   */\n      dup3\n        /* \"#utility.yul\":7682:7691   */\n      dup6\n        /* \"#utility.yul\":7678:7700   */\n      add\n        /* \"#utility.yul\":7657:7710   */\n      tag_147\n      jump\t// in\n    tag_274:\n        /* \"#utility.yul\":7647:7710   */\n      swap2\n      pop\n        /* \"#utility.yul\":7603:7720   */\n      pop\n        /* \"#utility.yul\":7398:7727   */\n      swap3\n      swap2\n      pop\n      pop\n      jump\t// out\n        /* \"#utility.yul\":7733:7955   */\n    tag_28:\n        /* \"#utility.yul\":7826:7830   */\n      0x00\n        /* \"#utility.yul\":7864:7866   */\n      0x20\n        /* \"#utility.yul\":7853:7862   */\n      dup3\n        /* \"#utility.yul\":7849:7867   */\n      add\n        /* \"#utility.yul\":7841:7867   */\n      swap1\n      pop\n        /* \"#utility.yul\":7877:7948   */\n      tag_276\n        /* \"#utility.yul\":7945:7946   */\n      0x00\n        /* \"#utility.yul\":7934:7943   */\n      dup4\n        /* \"#utility.yul\":7930:7947   */\n      add\n        /* \"#utility.yul\":7921:7927   */\n      dup5\n        /* \"#utility.yul\":7877:7948   */\n      tag_148\n      jump\t// in\n    tag_276:\n        /* \"#utility.yul\":7733:7955   */\n      swap3\n      swap2\n      pop\n      pop\n      jump\t// out\n        /* \"#utility.yul\":7961:8435   */\n    tag_31:\n        /* \"#utility.yul\":8029:8035   */\n      0x00\n        /* \"#utility.yul\":8037:8043   */\n      dup1\n        /* \"#utility.yul\":8086:8088   */\n      0x40\n        /* \"#utility.yul\":8074:8083   */\n      dup4\n        /* \"#utility.yul\":8065:8072   */\n      dup6\n        /* \"#utility.yul\":8061:8084   */\n      sub\n        /* \"#utility.yul\":8057:8089   */\n      slt\n        /* \"#utility.yul\":8054:8173   */\n      iszero\n      tag_278\n      jumpi\n        /* \"#utility.yul\":8092:8171   */\n      tag_279\n      tag_139\n      jump\t// in\n    tag_279:\n        /* \"#utility.yul\":8054:8173   */\n    tag_278:\n        /* \"#utility.yul\":8212:8213   */\n      0x00\n        /* \"#utility.yul\":8237:8290   */\n      tag_280\n        /* \"#utility.yul\":8282:8289   */\n      dup6\n        /* \"#utility.yul\":8273:8279   */\n      dup3\n        /* \"#utility.yul\":8262:8271   */\n      dup7\n        /* \"#utility.yul\":8258:8280   */\n      add\n        /* \"#utility.yul\":8237:8290   */\n      tag_147\n      jump\t// in\n    tag_280:\n        /* \"#utility.yul\":8227:8290   */\n      swap3\n      pop\n        /* \"#utility.yul\":8183:8300   */\n      pop\n        /* \"#utility.yul\":8339:8341   */\n      0x20\n        /* \"#utility.yul\":8365:8418   */\n      tag_281\n        /* \"#utility.yul\":8410:8417   */\n      dup6\n        /* \"#utility.yul\":8401:8407   */\n      dup3\n        /* \"#utility.yul\":8390:8399   */\n      dup7\n        /* \"#utility.yul\":8386:8408   */\n      add\n        /* \"#utility.yul\":8365:8418   */\n      tag_147\n      jump\t// in\n    tag_281:\n        /* \"#utility.yul\":8355:8418   */\n      swap2\n      pop\n        /* \"#utility.yul\":8310:8428   */\n      pop\n        /* \"#utility.yul\":7961:8435   */\n      swap3\n      pop\n      swap3\n      swap1\n      pop\n      jump\t// out\n        /* \"#utility.yul\":8441:8559   */\n    tag_164:\n        /* \"#utility.yul\":8528:8552   */\n      tag_283\n        /* \"#utility.yul\":8546:8551   */\n      dup2\n        /* \"#utility.yul\":8528:8552   */\n      tag_142\n      jump\t// in\n    tag_283:\n        /* \"#utility.yul\":8523:8526   */\n      dup3\n        /* \"#utility.yul\":8516:8553   */\n      mstore\n        /* \"#utility.yul\":8441:8559   */\n      pop\n      pop\n      jump\t// out\n        /* \"#utility.yul\":8565:8787   */\n    tag_37:\n        /* \"#utility.yul\":8658:8662   */\n      0x00\n        /* \"#utility.yul\":8696:8698   */\n      0x20\n        /* \"#utility.yul\":8685:8694   */\n      dup3\n        /* \"#utility.yul\":8681:8699   */\n      add\n        /* \"#utility.yul\":8673:8699   */\n      swap1\n      pop\n        /* \"#utility.yul\":8709:8780   */\n      tag_285\n        /* \"#utility.yul\":8777:8778   */\n      0x00\n        /* \"#utility.yul\":8766:8775   */\n      dup4\n        /* \"#utility.yul\":8762:8779   */\n      add\n        /* \"#utility.yul\":8753:8759   */\n      dup5\n        /* \"#utility.yul\":8709:8780   */\n      tag_164\n      jump\t// in\n    tag_285:\n        /* \"#utility.yul\":8565:8787   */\n      swap3\n      swap2\n      pop\n      pop\n      jump\t// out\n        /* \"#utility.yul\":8793:8910   */\n    tag_165:\n        /* \"#utility.yul\":8902:8903   */\n      0x00\n        /* \"#utility.yul\":8899:8900   */\n      dup1\n        /* \"#utility.yul\":8892:8904   */\n      revert\n        /* \"#utility.yul\":8916:9033   */\n    tag_166:\n        /* \"#utility.yul\":9025:9026   */\n      0x00\n        /* \"#utility.yul\":9022:9023   */\n      dup1\n        /* \"#utility.yul\":9015:9027   */\n      revert\n        /* \"#utility.yul\":9039:9156   */\n    tag_167:\n        /* \"#utility.yul\":9148:9149   */\n      0x00\n        /* \"#utility.yul\":9145:9146   */\n      dup1\n        /* \"#utility.yul\":9138:9150   */\n      revert\n        /* \"#utility.yul\":9176:9729   */\n    tag_168:\n        /* \"#utility.yul\":9234:9242   */\n      0x00\n        /* \"#utility.yul\":9244:9250   */\n      dup1\n        /* \"#utility.yul\":9294:9297   */\n      dup4\n        /* \"#utility.yul\":9287:9291   */\n      0x1f\n        /* \"#utility.yul\":9279:9285   */\n      dup5\n        /* \"#utility.yul\":9275:9292   */\n      add\n        /* \"#utility.yul\":9271:9298   */\n      slt\n        /* \"#utility.yul\":9261:9383   */\n      tag_290\n      jumpi\n        /* \"#utility.yul\":9302:9381   */\n      tag_291\n      tag_165\n      jump\t// in\n    tag_291:\n        /* \"#utility.yul\":9261:9383   */\n    tag_290:\n        /* \"#utility.yul\":9415:9421   */\n      dup3\n        /* \"#utility.yul\":9402:9422   */\n      calldataload\n        /* \"#utility.yul\":9392:9422   */\n      swap1\n      pop\n        /* \"#utility.yul\":9445:9463   */\n      0xffffffffffffffff\n        /* \"#utility.yul\":9437:9443   */\n      dup2\n        /* \"#utility.yul\":9434:9464   */\n      gt\n        /* \"#utility.yul\":9431:9548   */\n      iszero\n      tag_292\n      jumpi\n        /* \"#utility.yul\":9467:9546   */\n      tag_293\n      tag_166\n      jump\t// in\n    tag_293:\n        /* \"#utility.yul\":9431:9548   */\n    tag_292:\n        /* \"#utility.yul\":9581:9585   */\n      0x20\n        /* \"#utility.yul\":9573:9579   */\n      dup4\n        /* \"#utility.yul\":9569:9586   */\n      add\n        /* \"#utility.yul\":9557:9586   */\n      swap2\n      pop\n        /* \"#utility.yul\":9635:9638   */\n      dup4\n        /* \"#utility.yul\":9627:9631   */\n      0x01\n        /* \"#utility.yul\":9619:9625   */\n      dup3\n        /* \"#utility.yul\":9615:9632   */\n      mul\n        /* \"#utility.yul\":9605:9613   */\n      dup4\n        /* \"#utility.yul\":9601:9633   */\n      add\n        /* \"#utility.yul\":9598:9639   */\n      gt\n        /* \"#utility.yul\":9595:9723   */\n      iszero\n      tag_294\n      jumpi\n        /* \"#utility.yul\":9642:9721   */\n      tag_295\n      tag_167\n      jump\t// in\n    tag_295:\n        /* \"#utility.yul\":9595:9723   */\n    tag_294:\n        /* \"#utility.yul\":9176:9729   */\n      swap3\n      pop\n      swap3\n      swap1\n      pop\n      jump\t// out\n        /* \"#utility.yul\":9735:10554   */\n    tag_41:\n        /* \"#utility.yul\":9824:9830   */\n      0x00\n        /* \"#utility.yul\":9832:9838   */\n      dup1\n        /* \"#utility.yul\":9840:9846   */\n      0x00\n        /* \"#utility.yul\":9848:9854   */\n      dup1\n        /* \"#utility.yul\":9897:9899   */\n      0x60\n        /* \"#utility.yul\":9885:9894   */\n      dup6\n        /* \"#utility.yul\":9876:9883   */\n      dup8\n        /* \"#utility.yul\":9872:9895   */\n      sub\n        /* \"#utility.yul\":9868:9900   */\n      slt\n        /* \"#utility.yul\":9865:9984   */\n      iszero\n      tag_297\n      jumpi\n        /* \"#utility.yul\":9903:9982   */\n      tag_298\n      tag_139\n      jump\t// in\n    tag_298:\n        /* \"#utility.yul\":9865:9984   */\n    tag_297:\n        /* \"#utility.yul\":10023:10024   */\n      0x00\n        /* \"#utility.yul\":10048:10101   */\n      tag_299\n        /* \"#utility.yul\":10093:10100   */\n      dup8\n        /* \"#utility.yul\":10084:10090   */\n      dup3\n        /* \"#utility.yul\":10073:10082   */\n      dup9\n        /* \"#utility.yul\":10069:10091   */\n      add\n        /* \"#utility.yul\":10048:10101   */\n      tag_147\n      jump\t// in\n    tag_299:\n        /* \"#utility.yul\":10038:10101   */\n      swap5\n      pop\n        /* \"#utility.yul\":9994:10111   */\n      pop\n        /* \"#utility.yul\":10150:10152   */\n      0x20\n        /* \"#utility.yul\":10176:10229   */\n      tag_300\n        /* \"#utility.yul\":10221:10228   */\n      dup8\n        /* \"#utility.yul\":10212:10218   */\n      dup3\n        /* \"#utility.yul\":10201:10210   */\n      dup9\n        /* \"#utility.yul\":10197:10219   */\n      add\n        /* \"#utility.yul\":10176:10229   */\n      tag_147\n      jump\t// in\n    tag_300:\n        /* \"#utility.yul\":10166:10229   */\n      swap4\n      pop\n        /* \"#utility.yul\":10121:10239   */\n      pop\n        /* \"#utility.yul\":10306:10308   */\n      0x40\n        /* \"#utility.yul\":10295:10304   */\n      dup6\n        /* \"#utility.yul\":10291:10309   */\n      add\n        /* \"#utility.yul\":10278:10310   */\n      calldataload\n        /* \"#utility.yul\":10337:10355   */\n      0xffffffffffffffff\n        /* \"#utility.yul\":10329:10335   */\n      dup2\n        /* \"#utility.yul\":10326:10356   */\n      gt\n        /* \"#utility.yul\":10323:10440   */\n      iszero\n      tag_301\n      jumpi\n        /* \"#utility.yul\":10359:10438   */\n      tag_302\n      tag_140\n      jump\t// in\n    tag_302:\n        /* \"#utility.yul\":10323:10440   */\n    tag_301:\n        /* \"#utility.yul\":10472:10537   */\n      tag_303\n        /* \"#utility.yul\":10529:10536   */\n      dup8\n        /* \"#utility.yul\":10520:10526   */\n      dup3\n        /* \"#utility.yul\":10509:10518   */\n      dup9\n        /* \"#utility.yul\":10505:10527   */\n      add\n        /* \"#utility.yul\":10472:10537   */\n      tag_168\n      jump\t// in\n    tag_303:\n        /* \"#utility.yul\":10454:10537   */\n      swap3\n      pop\n      swap3\n      pop\n        /* \"#utility.yul\":10249:10547   */\n      pop\n        /* \"#utility.yul\":9735:10554   */\n      swap3\n      swap6\n      swap2\n      swap5\n      pop\n      swap3\n      pop\n      jump\t// out\n        /* \"#utility.yul\":10560:10889   */\n    tag_46:\n        /* \"#utility.yul\":10619:10625   */\n      0x00\n        /* \"#utility.yul\":10668:10670   */\n      0x20\n        /* \"#utility.yul\":10656:10665   */\n      dup3\n        /* \"#utility.yul\":10647:10654   */\n      dup5\n        /* \"#utility.yul\":10643:10666   */\n      sub\n        /* \"#utility.yul\":10639:10671   */\n      slt\n        /* \"#utility.yul\":10636:10755   */\n      iszero\n      tag_305\n      jumpi\n        /* \"#utility.yul\":10674:10753   */\n      tag_306\n      tag_139\n      jump\t// in\n    tag_306:\n        /* \"#utility.yul\":10636:10755   */\n    tag_305:\n        /* \"#utility.yul\":10794:10795   */\n      0x00\n        /* \"#utility.yul\":10819:10872   */\n      tag_307\n        /* \"#utility.yul\":10864:10871   */\n      dup5\n        /* \"#utility.yul\":10855:10861   */\n      dup3\n        /* \"#utility.yul\":10844:10853   */\n      dup6\n        /* \"#utility.yul\":10840:10862   */\n      add\n        /* \"#utility.yul\":10819:10872   */\n      tag_144\n      jump\t// in\n    tag_307:\n        /* \"#utility.yul\":10809:10872   */\n      swap2\n      pop\n        /* \"#utility.yul\":10765:10882   */\n      pop\n        /* \"#utility.yul\":10560:10889   */\n      swap3\n      swap2\n      pop\n      pop\n      jump\t// out\n        /* \"#utility.yul\":10895:11075   */\n    tag_83:\n        /* \"#utility.yul\":10943:11020   */\n      0x4e487b7100000000000000000000000000000000000000000000000000000000\n        /* \"#utility.yul\":10940:10941   */\n      0x00\n        /* \"#utility.yul\":10933:11021   */\n      mstore\n        /* \"#utility.yul\":11040:11044   */\n      0x21\n        /* \"#utility.yul\":11037:11038   */\n      0x04\n        /* \"#utility.yul\":11030:11045   */\n      mstore\n        /* \"#utility.yul\":11064:11068   */\n      0x24\n        /* \"#utility.yul\":11061:11062   */\n      0x00\n        /* \"#utility.yul\":11054:11069   */\n      revert\n        /* \"#utility.yul\":11081:11192   */\n    tag_169:\n        /* \"#utility.yul\":11160:11161   */\n      0x02\n        /* \"#utility.yul\":11153:11158   */\n      dup2\n        /* \"#utility.yul\":11150:11162   */\n      lt\n        /* \"#utility.yul\":11140:11186   */\n      tag_310\n      jumpi\n        /* \"#utility.yul\":11166:11184   */\n      tag_311\n      tag_83\n      jump\t// in\n    tag_311:\n        /* \"#utility.yul\":11140:11186   */\n    tag_310:\n        /* \"#utility.yul\":11081:11192   */\n      pop\n      jump\t// out\n        /* \"#utility.yul\":11198:11321   */\n    tag_170:\n        /* \"#utility.yul\":11241:11248   */\n      0x00\n        /* \"#utility.yul\":11270:11275   */\n      dup2\n        /* \"#utility.yul\":11259:11275   */\n      swap1\n      pop\n        /* \"#utility.yul\":11276:11315   */\n      tag_313\n        /* \"#utility.yul\":11309:11314   */\n      dup3\n        /* \"#utility.yul\":11276:11315   */\n      tag_169\n      jump\t// in\n    tag_313:\n        /* \"#utility.yul\":11198:11321   */\n      swap2\n      swap1\n      pop\n      jump\t// out\n        /* \"#utility.yul\":11327:11450   */\n    tag_171:\n        /* \"#utility.yul\":11381:11390   */\n      0x00\n        /* \"#utility.yul\":11414:11444   */\n      tag_315\n        /* \"#utility.yul\":11438:11443   */\n      dup3\n        /* \"#utility.yul\":11414:11444   */\n      tag_170\n      jump\t// in\n    tag_315:\n        /* \"#utility.yul\":11401:11444   */\n      swap1\n      pop\n        /* \"#utility.yul\":11327:11450   */\n      swap2\n      swap1\n      pop\n      jump\t// out\n        /* \"#utility.yul\":11456:11595   */\n    tag_172:\n        /* \"#utility.yul\":11547:11588   */\n      tag_317\n        /* \"#utility.yul\":11582:11587   */\n      dup2\n        /* \"#utility.yul\":11547:11588   */\n      tag_171\n      jump\t// in\n    tag_317:\n        /* \"#utility.yul\":11542:11545   */\n      dup3\n        /* \"#utility.yul\":11535:11589   */\n      mstore\n        /* \"#utility.yul\":11456:11595   */\n      pop\n      pop\n      jump\t// out\n        /* \"#utility.yul\":11601:11941   */\n    tag_49:\n        /* \"#utility.yul\":11726:11730   */\n      0x00\n        /* \"#utility.yul\":11764:11766   */\n      0x40\n        /* \"#utility.yul\":11753:11762   */\n      dup3\n        /* \"#utility.yul\":11749:11767   */\n      add\n        /* \"#utility.yul\":11741:11767   */\n      swap1\n      pop\n        /* \"#utility.yul\":11777:11848   */\n      tag_319\n        /* \"#utility.yul\":11845:11846   */\n      0x00\n        /* \"#utility.yul\":11834:11843   */\n      dup4\n        /* \"#utility.yul\":11830:11847   */\n      add\n        /* \"#utility.yul\":11821:11827   */\n      dup6\n        /* \"#utility.yul\":11777:11848   */\n      tag_148\n      jump\t// in\n    tag_319:\n        /* \"#utility.yul\":11858:11934   */\n      tag_320\n        /* \"#utility.yul\":11930:11932   */\n      0x20\n        /* \"#utility.yul\":11919:11928   */\n      dup4\n        /* \"#utility.yul\":11915:11933   */\n      add\n        /* \"#utility.yul\":11906:11912   */\n      dup5\n        /* \"#utility.yul\":11858:11934   */\n      tag_172\n      jump\t// in\n    tag_320:\n        /* \"#utility.yul\":11601:11941   */\n      swap4\n      swap3\n      pop\n      pop\n      pop\n      jump\t// out\n        /* \"#utility.yul\":11947:12127   */\n    tag_173:\n        /* \"#utility.yul\":11995:12072   */\n      0x4e487b7100000000000000000000000000000000000000000000000000000000\n        /* \"#utility.yul\":11992:11993   */\n      0x00\n        /* \"#utility.yul\":11985:12073   */\n      mstore\n        /* \"#utility.yul\":12092:12096   */\n      0x22\n        /* \"#utility.yul\":12089:12090   */\n      0x04\n        /* \"#utility.yul\":12082:12097   */\n      mstore\n        /* \"#utility.yul\":12116:12120   */\n      0x24\n        /* \"#utility.yul\":12113:12114   */\n      0x00\n        /* \"#utility.yul\":12106:12121   */\n      revert\n        /* \"#utility.yul\":12133:12453   */\n    tag_53:\n        /* \"#utility.yul\":12177:12183   */\n      0x00\n        /* \"#utility.yul\":12214:12215   */\n      0x02\n        /* \"#utility.yul\":12208:12212   */\n      dup3\n        /* \"#utility.yul\":12204:12216   */\n      div\n        /* \"#utility.yul\":12194:12216   */\n      swap1\n      pop\n        /* \"#utility.yul\":12261:12262   */\n      0x01\n        /* \"#utility.yul\":12255:12259   */\n      dup3\n        /* \"#utility.yul\":12251:12263   */\n      and\n        /* \"#utility.yul\":12282:12300   */\n      dup1\n        /* \"#utility.yul\":12272:12353   */\n      tag_323\n      jumpi\n        /* \"#utility.yul\":12338:12342   */\n      0x7f\n        /* \"#utility.yul\":12330:12336   */\n      dup3\n        /* \"#utility.yul\":12326:12343   */\n      and\n        /* \"#utility.yul\":12316:12343   */\n      swap2\n      pop\n        /* \"#utility.yul\":12272:12353   */\n    tag_323:\n        /* \"#utility.yul\":12400:12402   */\n      0x20\n        /* \"#utility.yul\":12392:12398   */\n      dup3\n        /* \"#utility.yul\":12389:12403   */\n      lt\n        /* \"#utility.yul\":12369:12387   */\n      dup2\n        /* \"#utility.yul\":12366:12404   */\n      sub\n        /* \"#utility.yul\":12363:12447   */\n      tag_324\n      jumpi\n        /* \"#utility.yul\":12419:12437   */\n      tag_325\n      tag_173\n      jump\t// in\n    tag_325:\n        /* \"#utility.yul\":12363:12447   */\n    tag_324:\n        /* \"#utility.yul\":12184:12453   */\n      pop\n        /* \"#utility.yul\":12133:12453   */\n      swap2\n      swap1\n      pop\n      jump\t// out\n        /* \"#utility.yul\":12459:12627   */\n    tag_174:\n        /* \"#utility.yul\":12599:12619   */\n      0x496e76616c69642070726f647563742049440000000000000000000000000000\n        /* \"#utility.yul\":12595:12596   */\n      0x00\n        /* \"#utility.yul\":12587:12593   */\n      dup3\n        /* \"#utility.yul\":12583:12597   */\n      add\n        /* \"#utility.yul\":12576:12620   */\n      mstore\n        /* \"#utility.yul\":12459:12627   */\n      pop\n      jump\t// out\n        /* \"#utility.yul\":12633:12999   */\n    tag_175:\n        /* \"#utility.yul\":12775:12778   */\n      0x00\n        /* \"#utility.yul\":12796:12863   */\n      tag_328\n        /* \"#utility.yul\":12860:12862   */\n      0x12\n        /* \"#utility.yul\":12855:12858   */\n      dup4\n        /* \"#utility.yul\":12796:12863   */\n      tag_150\n      jump\t// in\n    tag_328:\n        /* \"#utility.yul\":12789:12863   */\n      swap2\n      pop\n        /* \"#utility.yul\":12872:12965   */\n      tag_329\n        /* \"#utility.yul\":12961:12964   */\n      dup3\n        /* \"#utility.yul\":12872:12965   */\n      tag_174\n      jump\t// in\n    tag_329:\n        /* \"#utility.yul\":12990:12992   */\n      0x20\n        /* \"#utility.yul\":12985:12988   */\n      dup3\n        /* \"#utility.yul\":12981:12993   */\n      add\n        /* \"#utility.yul\":12974:12993   */\n      swap1\n      pop\n        /* \"#utility.yul\":12633:12999   */\n      swap2\n      swap1\n      pop\n      jump\t// out\n        /* \"#utility.yul\":13005:13424   */\n    tag_70:\n        /* \"#utility.yul\":13171:13175   */\n      0x00\n        /* \"#utility.yul\":13209:13211   */\n      0x20\n        /* \"#utility.yul\":13198:13207   */\n      dup3\n        /* \"#utility.yul\":13194:13212   */\n      add\n        /* \"#utility.yul\":13186:13212   */\n      swap1\n      pop\n        /* \"#utility.yul\":13258:13267   */\n      dup2\n        /* \"#utility.yul\":13252:13256   */\n      dup2\n        /* \"#utility.yul\":13248:13268   */\n      sub\n        /* \"#utility.yul\":13244:13245   */\n      0x00\n        /* \"#utility.yul\":13233:13242   */\n      dup4\n        /* \"#utility.yul\":13229:13246   */\n      add\n        /* \"#utility.yul\":13222:13269   */\n      mstore\n        /* \"#utility.yul\":13286:13417   */\n      tag_331\n        /* \"#utility.yul\":13412:13416   */\n      dup2\n        /* \"#utility.yul\":13286:13417   */\n      tag_175\n      jump\t// in\n    tag_331:\n        /* \"#utility.yul\":13278:13417   */\n      swap1\n      pop\n        /* \"#utility.yul\":13005:13424   */\n      swap2\n      swap1\n      pop\n      jump\t// out\n        /* \"#utility.yul\":13430:13610   */\n    tag_73:\n        /* \"#utility.yul\":13478:13555   */\n      0x4e487b7100000000000000000000000000000000000000000000000000000000\n        /* \"#utility.yul\":13475:13476   */\n      0x00\n        /* \"#utility.yul\":13468:13556   */\n      mstore\n        /* \"#utility.yul\":13575:13579   */\n      0x32\n        /* \"#utility.yul\":13572:13573   */\n      0x04\n        /* \"#utility.yul\":13565:13580   */\n      mstore\n        /* \"#utility.yul\":13599:13603   */\n      0x24\n        /* \"#utility.yul\":13596:13597   */\n      0x00\n        /* \"#utility.yul\":13589:13604   */\n      revert\n        /* \"#utility.yul\":13616:13841   */\n    tag_176:\n        /* \"#utility.yul\":13756:13790   */\n      0x507572636861736520616d6f756e74206d757374206265206772656174657220\n        /* \"#utility.yul\":13752:13753   */\n      0x00\n        /* \"#utility.yul\":13744:13750   */\n      dup3\n        /* \"#utility.yul\":13740:13754   */\n      add\n        /* \"#utility.yul\":13733:13791   */\n      mstore\n        /* \"#utility.yul\":13825:13833   */\n      0x7468616e20300000000000000000000000000000000000000000000000000000\n        /* \"#utility.yul\":13820:13822   */\n      0x20\n        /* \"#utility.yul\":13812:13818   */\n      dup3\n        /* \"#utility.yul\":13808:13823   */\n      add\n        /* \"#utility.yul\":13801:13834   */\n      mstore\n        /* \"#utility.yul\":13616:13841   */\n      pop\n      jump\t// out\n        /* \"#utility.yul\":13847:14213   */\n    tag_177:\n        /* \"#utility.yul\":13989:13992   */\n      0x00\n        /* \"#utility.yul\":14010:14077   */\n      tag_335\n        /* \"#utility.yul\":14074:14076   */\n      0x26\n        /* \"#utility.yul\":14069:14072   */\n      dup4\n        /* \"#utility.yul\":14010:14077   */\n      tag_150\n      jump\t// in\n    tag_335:\n        /* \"#utility.yul\":14003:14077   */\n      swap2\n      pop\n        /* \"#utility.yul\":14086:14179   */\n      tag_336\n        /* \"#utility.yul\":14175:14178   */\n      dup3\n        /* \"#utility.yul\":14086:14179   */\n      tag_176\n      jump\t// in\n    tag_336:\n        /* \"#utility.yul\":14204:14206   */\n      0x40\n        /* \"#utility.yul\":14199:14202   */\n      dup3\n        /* \"#utility.yul\":14195:14207   */\n      add\n        /* \"#utility.yul\":14188:14207   */\n      swap1\n      pop\n        /* \"#utility.yul\":13847:14213   */\n      swap2\n      swap1\n      pop\n      jump\t// out\n        /* \"#utility.yul\":14219:14638   */\n    tag_78:\n        /* \"#utility.yul\":14385:14389   */\n      0x00\n        /* \"#utility.yul\":14423:14425   */\n      0x20\n        /* \"#utility.yul\":14412:14421   */\n      dup3\n        /* \"#utility.yul\":14408:14426   */\n      add\n        /* \"#utility.yul\":14400:14426   */\n      swap1\n      pop\n        /* \"#utility.yul\":14472:14481   */\n      dup2\n        /* \"#utility.yul\":14466:14470   */\n      dup2\n        /* \"#utility.yul\":14462:14482   */\n      sub\n        /* \"#utility.yul\":14458:14459   */\n      0x00\n        /* \"#utility.yul\":14447:14456   */\n      dup4\n        /* \"#utility.yul\":14443:14460   */\n      add\n        /* \"#utility.yul\":14436:14483   */\n      mstore\n        /* \"#utility.yul\":14500:14631   */\n      tag_338\n        /* \"#utility.yul\":14626:14630   */\n      dup2\n        /* \"#utility.yul\":14500:14631   */\n      tag_177\n      jump\t// in\n    tag_338:\n        /* \"#utility.yul\":14492:14631   */\n      swap1\n      pop\n        /* \"#utility.yul\":14219:14638   */\n      swap2\n      swap1\n      pop\n      jump\t// out\n        /* \"#utility.yul\":14644:14820   */\n    tag_178:\n        /* \"#utility.yul\":14784:14812   */\n      0x4e6f7420656e6f7567682073746f636b20617661696c61626c65000000000000\n        /* \"#utility.yul\":14780:14781   */\n      0x00\n        /* \"#utility.yul\":14772:14778   */\n      dup3\n        /* \"#utility.yul\":14768:14782   */\n      add\n        /* \"#utility.yul\":14761:14813   */\n      mstore\n        /* \"#utility.yul\":14644:14820   */\n      pop\n      jump\t// out\n        /* \"#utility.yul\":14826:15192   */\n    tag_179:\n        /* \"#utility.yul\":14968:14971   */\n      0x00\n        /* \"#utility.yul\":14989:15056   */\n      tag_341\n        /* \"#utility.yul\":15053:15055   */\n      0x1a\n        /* \"#utility.yul\":15048:15051   */\n      dup4\n        /* \"#utility.yul\":14989:15056   */\n      tag_150\n      jump\t// in\n    tag_341:\n        /* \"#utility.yul\":14982:15056   */\n      swap2\n      pop\n        /* \"#utility.yul\":15065:15158   */\n      tag_342\n        /* \"#utility.yul\":15154:15157   */\n      dup3\n        /* \"#utility.yul\":15065:15158   */\n      tag_178\n      jump\t// in\n    tag_342:\n        /* \"#utility.yul\":15183:15185   */\n      0x20\n        /* \"#utility.yul\":15178:15181   */\n      dup3\n        /* \"#utility.yul\":15174:15186   */\n      add\n        /* \"#utility.yul\":15167:15186   */\n      swap1\n      pop\n        /* \"#utility.yul\":14826:15192   */\n      swap2\n      swap1\n      pop\n      jump\t// out\n        /* \"#utility.yul\":15198:15617   */\n    tag_96:\n        /* \"#utility.yul\":15364:15368   */\n      0x00\n        /* \"#utility.yul\":15402:15404   */\n      0x20\n        /* \"#utility.yul\":15391:15400   */\n      dup3\n        /* \"#utility.yul\":15387:15405   */\n      add\n        /* \"#utility.yul\":15379:15405   */\n      swap1\n      pop\n        /* \"#utility.yul\":15451:15460   */\n      dup2\n        /* \"#utility.yul\":15445:15449   */\n      dup2\n        /* \"#utility.yul\":15441:15461   */\n      sub\n        /* \"#utility.yul\":15437:15438   */\n      0x00\n        /* \"#utility.yul\":15426:15435   */\n      dup4\n        /* \"#utility.yul\":15422:15439   */\n      add\n        /* \"#utility.yul\":15415:15462   */\n      mstore\n        /* \"#utility.yul\":15479:15610   */\n      tag_344\n        /* \"#utility.yul\":15605:15609   */\n      dup2\n        /* \"#utility.yul\":15479:15610   */\n      tag_179\n      jump\t// in\n    tag_344:\n        /* \"#utility.yul\":15471:15610   */\n      swap1\n      pop\n        /* \"#utility.yul\":15198:15617   */\n      swap2\n      swap1\n      pop\n      jump\t// out\n        /* \"#utility.yul\":15623:15803   */\n    tag_180:\n        /* \"#utility.yul\":15671:15748   */\n      0x4e487b7100000000000000000000000000000000000000000000000000000000\n        /* \"#utility.yul\":15668:15669   */\n      0x00\n        /* \"#utility.yul\":15661:15749   */\n      mstore\n        /* \"#utility.yul\":15768:15772   */\n      0x11\n        /* \"#utility.yul\":15765:15766   */\n      0x04\n        /* \"#utility.yul\":15758:15773   */\n      mstore\n        /* \"#utility.yul\":15792:15796   */\n      0x24\n        /* \"#utility.yul\":15789:15790   */\n      0x00\n        /* \"#utility.yul\":15782:15797   */\n      revert\n        /* \"#utility.yul\":15809:16219   */\n    tag_101:\n        /* \"#utility.yul\":15849:15856   */\n      0x00\n        /* \"#utility.yul\":15872:15892   */\n      tag_347\n        /* \"#utility.yul\":15890:15891   */\n      dup3\n        /* \"#utility.yul\":15872:15892   */\n      tag_145\n      jump\t// in\n    tag_347:\n        /* \"#utility.yul\":15867:15892   */\n      swap2\n      pop\n        /* \"#utility.yul\":15906:15926   */\n      tag_348\n        /* \"#utility.yul\":15924:15925   */\n      dup4\n        /* \"#utility.yul\":15906:15926   */\n      tag_145\n      jump\t// in\n    tag_348:\n        /* \"#utility.yul\":15901:15926   */\n      swap3\n      pop\n        /* \"#utility.yul\":15961:15962   */\n      dup3\n        /* \"#utility.yul\":15958:15959   */\n      dup3\n        /* \"#utility.yul\":15954:15963   */\n      mul\n        /* \"#utility.yul\":15983:16013   */\n      tag_349\n        /* \"#utility.yul\":16001:16012   */\n      dup2\n        /* \"#utility.yul\":15983:16013   */\n      tag_145\n      jump\t// in\n    tag_349:\n        /* \"#utility.yul\":15972:16013   */\n      swap2\n      pop\n        /* \"#utility.yul\":16162:16163   */\n      dup3\n        /* \"#utility.yul\":16153:16160   */\n      dup3\n        /* \"#utility.yul\":16149:16164   */\n      div\n        /* \"#utility.yul\":16146:16147   */\n      dup5\n        /* \"#utility.yul\":16143:16165   */\n      eq\n        /* \"#utility.yul\":16123:16124   */\n      dup4\n        /* \"#utility.yul\":16116:16125   */\n      iszero\n        /* \"#utility.yul\":16096:16179   */\n      or\n        /* \"#utility.yul\":16073:16212   */\n      tag_350\n      jumpi\n        /* \"#utility.yul\":16192:16210   */\n      tag_351\n      tag_180\n      jump\t// in\n    tag_351:\n        /* \"#utility.yul\":16073:16212   */\n    tag_350:\n        /* \"#utility.yul\":15857:16219   */\n      pop\n        /* \"#utility.yul\":15809:16219   */\n      swap3\n      swap2\n      pop\n      pop\n      jump\t// out\n        /* \"#utility.yul\":16225:16398   */\n    tag_181:\n        /* \"#utility.yul\":16365:16390   */\n      0x496e73756666696369656e742066756e64732073656e74000000000000000000\n        /* \"#utility.yul\":16361:16362   */\n      0x00\n        /* \"#utility.yul\":16353:16359   */\n      dup3\n        /* \"#utility.yul\":16349:16363   */\n      add\n        /* \"#utility.yul\":16342:16391   */\n      mstore\n        /* \"#utility.yul\":16225:16398   */\n      pop\n      jump\t// out\n        /* \"#utility.yul\":16404:16770   */\n    tag_182:\n        /* \"#utility.yul\":16546:16549   */\n      0x00\n        /* \"#utility.yul\":16567:16634   */\n      tag_354\n        /* \"#utility.yul\":16631:16633   */\n      0x17\n        /* \"#utility.yul\":16626:16629   */\n      dup4\n        /* \"#utility.yul\":16567:16634   */\n      tag_150\n      jump\t// in\n    tag_354:\n        /* \"#utility.yul\":16560:16634   */\n      swap2\n      pop\n        /* \"#utility.yul\":16643:16736   */\n      tag_355\n        /* \"#utility.yul\":16732:16735   */\n      dup3\n        /* \"#utility.yul\":16643:16736   */\n      tag_181\n      jump\t// in\n    tag_355:\n        /* \"#utility.yul\":16761:16763   */\n      0x20\n        /* \"#utility.yul\":16756:16759   */\n      dup3\n        /* \"#utility.yul\":16752:16764   */\n      add\n        /* \"#utility.yul\":16745:16764   */\n      swap1\n      pop\n        /* \"#utility.yul\":16404:16770   */\n      swap2\n      swap1\n      pop\n      jump\t// out\n        /* \"#utility.yul\":16776:17195   */\n    tag_105:\n        /* \"#utility.yul\":16942:16946   */\n      0x00\n        /* \"#utility.yul\":16980:16982   */\n      0x20\n        /* \"#utility.yul\":16969:16978   */\n      dup3\n        /* \"#utility.yul\":16965:16983   */\n      add\n        /* \"#utility.yul\":16957:16983   */\n      swap1\n      pop\n        /* \"#utility.yul\":17029:17038   */\n      dup2\n        /* \"#utility.yul\":17023:17027   */\n      dup2\n        /* \"#utility.yul\":17019:17039   */\n      sub\n        /* \"#utility.yul\":17015:17016   */\n      0x00\n        /* \"#utility.yul\":17004:17013   */\n      dup4\n        /* \"#utility.yul\":17000:17017   */\n      add\n        /* \"#utility.yul\":16993:17040   */\n      mstore\n        /* \"#utility.yul\":17057:17188   */\n      tag_357\n        /* \"#utility.yul\":17183:17187   */\n      dup2\n        /* \"#utility.yul\":17057:17188   */\n      tag_182\n      jump\t// in\n    tag_357:\n        /* \"#utility.yul\":17049:17188   */\n      swap1\n      pop\n        /* \"#utility.yul\":16776:17195   */\n      swap2\n      swap1\n      pop\n      jump\t// out\n        /* \"#utility.yul\":17201:17395   */\n    tag_121:\n        /* \"#utility.yul\":17241:17245   */\n      0x00\n        /* \"#utility.yul\":17261:17281   */\n      tag_359\n        /* \"#utility.yul\":17279:17280   */\n      dup3\n        /* \"#utility.yul\":17261:17281   */\n      tag_145\n      jump\t// in\n    tag_359:\n        /* \"#utility.yul\":17256:17281   */\n      swap2\n      pop\n        /* \"#utility.yul\":17295:17315   */\n      tag_360\n        /* \"#utility.yul\":17313:17314   */\n      dup4\n        /* \"#utility.yul\":17295:17315   */\n      tag_145\n      jump\t// in\n    tag_360:\n        /* \"#utility.yul\":17290:17315   */\n      swap3\n      pop\n        /* \"#utility.yul\":17339:17340   */\n      dup3\n        /* \"#utility.yul\":17336:17337   */\n      dup3\n        /* \"#utility.yul\":17332:17341   */\n      sub\n        /* \"#utility.yul\":17324:17341   */\n      swap1\n      pop\n        /* \"#utility.yul\":17363:17364   */\n      dup2\n        /* \"#utility.yul\":17357:17361   */\n      dup2\n        /* \"#utility.yul\":17354:17365   */\n      gt\n        /* \"#utility.yul\":17351:17388   */\n      iszero\n      tag_361\n      jumpi\n        /* \"#utility.yul\":17368:17386   */\n      tag_362\n      tag_180\n      jump\t// in\n    tag_362:\n        /* \"#utility.yul\":17351:17388   */\n    tag_361:\n        /* \"#utility.yul\":17201:17395   */\n      swap3\n      swap2\n      pop\n      pop\n      jump\t// out\n        /* \"#utility.yul\":17401:17581   */\n    tag_183:\n        /* \"#utility.yul\":17449:17526   */\n      0x4e487b7100000000000000000000000000000000000000000000000000000000\n        /* \"#utility.yul\":17446:17447   */\n      0x00\n        /* \"#utility.yul\":17439:17527   */\n      mstore\n        /* \"#utility.yul\":17546:17550   */\n      0x41\n        /* \"#utility.yul\":17543:17544   */\n      0x04\n        /* \"#utility.yul\":17536:17551   */\n      mstore\n        /* \"#utility.yul\":17570:17574   */\n      0x24\n        /* \"#utility.yul\":17567:17568   */\n      0x00\n        /* \"#utility.yul\":17560:17575   */\n      revert\n        /* \"#utility.yul\":17587:17728   */\n    tag_184:\n        /* \"#utility.yul\":17636:17640   */\n      0x00\n        /* \"#utility.yul\":17659:17662   */\n      dup2\n        /* \"#utility.yul\":17651:17662   */\n      swap1\n      pop\n        /* \"#utility.yul\":17682:17685   */\n      dup2\n        /* \"#utility.yul\":17679:17680   */\n      0x00\n        /* \"#utility.yul\":17672:17686   */\n      mstore\n        /* \"#utility.yul\":17716:17720   */\n      0x20\n        /* \"#utility.yul\":17713:17714   */\n      0x00\n        /* \"#utility.yul\":17703:17721   */\n      keccak256\n        /* \"#utility.yul\":17695:17721   */\n      swap1\n      pop\n        /* \"#utility.yul\":17587:17728   */\n      swap2\n      swap1\n      pop\n      jump\t// out\n        /* \"#utility.yul\":17734:17827   */\n    tag_185:\n        /* \"#utility.yul\":17771:17777   */\n      0x00\n        /* \"#utility.yul\":17818:17820   */\n      0x20\n        /* \"#utility.yul\":17813:17815   */\n      0x1f\n        /* \"#utility.yul\":17806:17811   */\n      dup4\n        /* \"#utility.yul\":17802:17816   */\n      add\n        /* \"#utility.yul\":17798:17821   */\n      div\n        /* \"#utility.yul\":17788:17821   */\n      swap1\n      pop\n        /* \"#utility.yul\":17734:17827   */\n      swap2\n      swap1\n      pop\n      jump\t// out\n        /* \"#utility.yul\":17833:17940   */\n    tag_186:\n        /* \"#utility.yul\":17877:17885   */\n      0x00\n        /* \"#utility.yul\":17927:17932   */\n      dup3\n        /* \"#utility.yul\":17921:17925   */\n      dup3\n        /* \"#utility.yul\":17917:17933   */\n      shl\n        /* \"#utility.yul\":17896:17933   */\n      swap1\n      pop\n        /* \"#utility.yul\":17833:17940   */\n      swap3\n      swap2\n      pop\n      pop\n      jump\t// out\n        /* \"#utility.yul\":17946:18339   */\n    tag_187:\n        /* \"#utility.yul\":18015:18021   */\n      0x00\n        /* \"#utility.yul\":18065:18066   */\n      0x08\n        /* \"#utility.yul\":18053:18063   */\n      dup4\n        /* \"#utility.yul\":18049:18067   */\n      mul\n        /* \"#utility.yul\":18088:18185   */\n      tag_368\n        /* \"#utility.yul\":18118:18184   */\n      0xffffffffffffffffffffffffffffffffffffffffffffffffffffffffffffffff\n        /* \"#utility.yul\":18107:18116   */\n      dup3\n        /* \"#utility.yul\":18088:18185   */\n      tag_186\n      jump\t// in\n    tag_368:\n        /* \"#utility.yul\":18206:18245   */\n      tag_369\n        /* \"#utility.yul\":18236:18244   */\n      dup7\n        /* \"#utility.yul\":18225:18234   */\n      dup4\n        /* \"#utility.yul\":18206:18245   */\n      tag_186\n      jump\t// in\n    tag_369:\n        /* \"#utility.yul\":18194:18245   */\n      swap6\n      pop\n        /* \"#utility.yul\":18278:18282   */\n      dup1\n        /* \"#utility.yul\":18274:18283   */\n      not\n        /* \"#utility.yul\":18267:18272   */\n      dup5\n        /* \"#utility.yul\":18263:18284   */\n      and\n        /* \"#utility.yul\":18254:18284   */\n      swap4\n      pop\n        /* \"#utility.yul\":18327:18331   */\n      dup1\n        /* \"#utility.yul\":18317:18325   */\n      dup7\n        /* \"#utility.yul\":18313:18332   */\n      and\n        /* \"#utility.yul\":18306:18311   */\n      dup5\n        /* \"#utility.yul\":18303:18333   */\n      or\n        /* \"#utility.yul\":18293:18333   */\n      swap3\n      pop\n        /* \"#utility.yul\":18022:18339   */\n      pop\n      pop\n        /* \"#utility.yul\":17946:18339   */\n      swap4\n      swap3\n      pop\n      pop\n      pop\n      jump\t// out\n        /* \"#utility.yul\":18345:18405   */\n    tag_188:\n        /* \"#utility.yul\":18373:18376   */\n      0x00\n        /* \"#utility.yul\":18394:18399   */\n      dup2\n        /* \"#utility.yul\":18387:18399   */\n      swap1\n      pop\n        /* \"#utility.yul\":18345:18405   */\n      swap2\n      swap1\n      pop\n      jump\t// out\n        /* \"#utility.yul\":18411:18553   */\n    tag_189:\n        /* \"#utility.yul\":18461:18470   */\n      0x00\n        /* \"#utility.yul\":18494:18547   */\n      tag_372\n        /* \"#utility.yul\":18512:18546   */\n      tag_373\n        /* \"#utility.yul\":18521:18545   */\n      tag_374\n        /* \"#utility.yul\":18539:18544   */\n      dup5\n        /* \"#utility.yul\":18521:18545   */\n      tag_145\n      jump\t// in\n    tag_374:\n        /* \"#utility.yul\":18512:18546   */\n      tag_188\n      jump\t// in\n    tag_373:\n        /* \"#utility.yul\":18494:18547   */\n      tag_145\n      jump\t// in\n    tag_372:\n        /* \"#utility.yul\":18481:18547   */\n      swap1\n      pop\n        /* \"#utility.yul\":18411:18553   */\n      swap2\n      swap1\n      pop\n      jump\t// out\n        /* \"#utility.yul\":18559:18634   */\n    tag_190:\n        /* \"#utility.yul\":18602:18605   */\n      0x00\n        /* \"#utility.yul\":18623:18628   */\n      dup2\n        /* \"#utility.yul\":18616:18628   */\n      swap1\n      pop\n        /* \"#utility.yul\":18559:18634   */\n      swap2\n      swap1\n      pop\n      jump\t// out\n        /* \"#utility.yul\":18640:18909   */\n    tag_191:\n        /* \"#utility.yul\":18750:18789   */\n      tag_377\n        /* \"#utility.yul\":18781:18788   */\n      dup4\n        /* \"#utility.yul\":18750:18789   */\n      tag_189\n      jump\t// in\n    tag_377:\n        /* \"#utility.yul\":18811:18902   */\n      tag_378\n        /* \"#utility.yul\":18860:18901   */\n      tag_379\n        /* \"#utility.yul\":18884:18900   */\n      dup3\n        /* \"#utility.yul\":18860:18901   */\n      tag_190\n      jump\t// in\n    tag_379:\n        /* \"#utility.yul\":18852:18858   */\n      dup5\n        /* \"#utility.yul\":18845:18849   */\n      dup5\n        /* \"#utility.yul\":18839:18850   */\n      sload\n        /* \"#utility.yul\":18811:18902   */\n      tag_187\n      jump\t// in\n    tag_378:\n        /* \"#utility.yul\":18805:18809   */\n      dup3\n        /* \"#utility.yul\":18798:18903   */\n      sstore\n        /* \"#utility.yul\":18716:18909   */\n      pop\n        /* \"#utility.yul\":18640:18909   */\n      pop\n      pop\n      pop\n      jump\t// out\n        /* \"#utility.yul\":18915:18988   */\n    tag_192:\n        /* \"#utility.yul\":18960:18963   */\n      0x00\n        /* \"#utility.yul\":18915:18988   */\n      swap1\n      jump\t// out\n        /* \"#utility.yul\":18994:19183   */\n    tag_193:\n        /* \"#utility.yul\":19071:19103   */\n      tag_382\n      tag_192\n      jump\t// in\n    tag_382:\n        /* \"#utility.yul\":19112:19177   */\n      tag_383\n        /* \"#utility.yul\":19170:19176   */\n      dup2\n        /* \"#utility.yul\":19162:19168   */\n      dup5\n        /* \"#utility.yul\":19156:19160   */\n      dup5\n        /* \"#utility.yul\":19112:19177   */\n      tag_191\n      jump\t// in\n    tag_383:\n        /* \"#utility.yul\":19047:19183   */\n      pop\n        /* \"#utility.yul\":18994:19183   */\n      pop\n      pop\n      jump\t// out\n        /* \"#utility.yul\":19189:19375   */\n    tag_194:\n        /* \"#utility.yul\":19249:19369   */\n    tag_385:\n        /* \"#utility.yul\":19266:19269   */\n      dup2\n        /* \"#utility.yul\":19259:19264   */\n      dup2\n        /* \"#utility.yul\":19256:19270   */\n      lt\n        /* \"#utility.yul\":19249:19369   */\n      iszero\n      tag_387\n      jumpi\n        /* \"#utility.yul\":19320:19359   */\n      tag_388\n        /* \"#utility.yul\":19357:19358   */\n      0x00\n        /* \"#utility.yul\":19350:19355   */\n      dup3\n        /* \"#utility.yul\":19320:19359   */\n      tag_193\n      jump\t// in\n    tag_388:\n        /* \"#utility.yul\":19293:19294   */\n      0x01\n        /* \"#utility.yul\":19286:19291   */\n      dup2\n        /* \"#utility.yul\":19282:19295   */\n      add\n        /* \"#utility.yul\":19273:19295   */\n      swap1\n      pop\n        /* \"#utility.yul\":19249:19369   */\n      jump(tag_385)\n    tag_387:\n        /* \"#utility.yul\":19189:19375   */\n      pop\n      pop\n      jump\t// out\n        /* \"#utility.yul\":19381:19924   */\n    tag_195:\n        /* \"#utility.yul\":19482:19484   */\n      0x1f\n        /* \"#utility.yul\":19477:19480   */\n      dup3\n        /* \"#utility.yul\":19474:19485   */\n      gt\n        /* \"#utility.yul\":19471:19917   */\n      iszero\n      tag_390\n      jumpi\n        /* \"#utility.yul\":19516:19554   */\n      tag_391\n        /* \"#utility.yul\":19548:19553   */\n      dup2\n        /* \"#utility.yul\":19516:19554   */\n      tag_184\n      jump\t// in\n    tag_391:\n        /* \"#utility.yul\":19600:19629   */\n      tag_392\n        /* \"#utility.yul\":19618:19628   */\n      dup5\n        /* \"#utility.yul\":19600:19629   */\n      tag_185\n      jump\t// in\n    tag_392:\n        /* \"#utility.yul\":19590:19598   */\n      dup2\n        /* \"#utility.yul\":19586:19630   */\n      add\n        /* \"#utility.yul\":19783:19785   */\n      0x20\n        /* \"#utility.yul\":19771:19781   */\n      dup6\n        /* \"#utility.yul\":19768:19786   */\n      lt\n        /* \"#utility.yul\":19765:19814   */\n      iszero\n      tag_393\n      jumpi\n        /* \"#utility.yul\":19804:19812   */\n      dup2\n        /* \"#utility.yul\":19789:19812   */\n      swap1\n      pop\n        /* \"#utility.yul\":19765:19814   */\n    tag_393:\n        /* \"#utility.yul\":19827:19907   */\n      tag_394\n        /* \"#utility.yul\":19883:19905   */\n      tag_395\n        /* \"#utility.yul\":19901:19904   */\n      dup6\n        /* \"#utility.yul\":19883:19905   */\n      tag_185\n      jump\t// in\n    tag_395:\n        /* \"#utility.yul\":19873:19881   */\n      dup4\n        /* \"#utility.yul\":19869:19906   */\n      add\n        /* \"#utility.yul\":19856:19867   */\n      dup3\n        /* \"#utility.yul\":19827:19907   */\n      tag_194\n      jump\t// in\n    tag_394:\n        /* \"#utility.yul\":19486:19917   */\n      pop\n      pop\n        /* \"#utility.yul\":19471:19917   */\n    tag_390:\n        /* \"#utility.yul\":19381:19924   */\n      pop\n      pop\n      pop\n      jump\t// out\n        /* \"#utility.yul\":19930:20047   */\n    tag_196:\n        /* \"#utility.yul\":19984:19992   */\n      0x00\n        /* \"#utility.yul\":20034:20039   */\n      dup3\n        /* \"#utility.yul\":20028:20032   */\n      dup3\n        /* \"#utility.yul\":20024:20040   */\n      shr\n        /* \"#utility.yul\":20003:20040   */\n      swap1\n      pop\n        /* \"#utility.yul\":19930:20047   */\n      swap3\n      swap2\n      pop\n      pop\n      jump\t// out\n        /* \"#utility.yul\":20053:20222   */\n    tag_197:\n        /* \"#utility.yul\":20097:20103   */\n      0x00\n        /* \"#utility.yul\":20130:20181   */\n      tag_398\n        /* \"#utility.yul\":20178:20179   */\n      0x00\n        /* \"#utility.yul\":20174:20180   */\n      not\n        /* \"#utility.yul\":20166:20171   */\n      dup5\n        /* \"#utility.yul\":20163:20164   */\n      0x08\n        /* \"#utility.yul\":20159:20172   */\n      mul\n        /* \"#utility.yul\":20130:20181   */\n      tag_196\n      jump\t// in\n    tag_398:\n        /* \"#utility.yul\":20126:20182   */\n      not\n        /* \"#utility.yul\":20211:20215   */\n      dup1\n        /* \"#utility.yul\":20205:20209   */\n      dup4\n        /* \"#utility.yul\":20201:20216   */\n      and\n        /* \"#utility.yul\":20191:20216   */\n      swap2\n      pop\n        /* \"#utility.yul\":20104:20222   */\n      pop\n        /* \"#utility.yul\":20053:20222   */\n      swap3\n      swap2\n      pop\n      pop\n      jump\t// out\n        /* \"#utility.yul\":20227:20522   */\n    tag_198:\n        /* \"#utility.yul\":20303:20307   */\n      0x00\n        /* \"#utility.yul\":20449:20478   */\n      tag_400\n        /* \"#utility.yul\":20474:20477   */\n      dup4\n        /* \"#utility.yul\":20468:20472   */\n      dup4\n        /* \"#utility.yul\":20449:20478   */\n      tag_197\n      jump\t// in\n    tag_400:\n        /* \"#utility.yul\":20441:20478   */\n      swap2\n      pop\n        /* \"#utility.yul\":20511:20514   */\n      dup3\n        /* \"#utility.yul\":20508:20509   */\n      0x02\n        /* \"#utility.yul\":20504:20515   */\n      mul\n        /* \"#utility.yul\":20498:20502   */\n      dup3\n        /* \"#utility.yul\":20495:20516   */\n      or\n        /* \"#utility.yul\":20487:20516   */\n      swap1\n      pop\n        /* \"#utility.yul\":20227:20522   */\n      swap3\n      swap2\n      pop\n      pop\n      jump\t// out\n        /* \"#utility.yul\":20527:21922   */\n    tag_124:\n        /* \"#utility.yul\":20644:20681   */\n      tag_402\n        /* \"#utility.yul\":20677:20680   */\n      dup3\n        /* \"#utility.yul\":20644:20681   */\n      tag_149\n      jump\t// in\n    tag_402:\n        /* \"#utility.yul\":20746:20764   */\n      0xffffffffffffffff\n        /* \"#utility.yul\":20738:20744   */\n      dup2\n        /* \"#utility.yul\":20735:20765   */\n      gt\n        /* \"#utility.yul\":20732:20788   */\n      iszero\n      tag_403\n      jumpi\n        /* \"#utility.yul\":20768:20786   */\n      tag_404\n      tag_183\n      jump\t// in\n    tag_404:\n        /* \"#utility.yul\":20732:20788   */\n    tag_403:\n        /* \"#utility.yul\":20812:20850   */\n      tag_405\n        /* \"#utility.yul\":20844:20848   */\n      dup3\n        /* \"#utility.yul\":20838:20849   */\n      sload\n        /* \"#utility.yul\":20812:20850   */\n      tag_53\n      jump\t// in\n    tag_405:\n        /* \"#utility.yul\":20897:20964   */\n      tag_406\n        /* \"#utility.yul\":20957:20963   */\n      dup3\n        /* \"#utility.yul\":20949:20955   */\n      dup3\n        /* \"#utility.yul\":20943:20947   */\n      dup6\n        /* \"#utility.yul\":20897:20964   */\n      tag_195\n      jump\t// in\n    tag_406:\n        /* \"#utility.yul\":20991:20992   */\n      0x00\n        /* \"#utility.yul\":21015:21019   */\n      0x20\n        /* \"#utility.yul\":21002:21019   */\n      swap1\n      pop\n        /* \"#utility.yul\":21047:21049   */\n      0x1f\n        /* \"#utility.yul\":21039:21045   */\n      dup4\n        /* \"#utility.yul\":21036:21050   */\n      gt\n        /* \"#utility.yul\":21064:21065   */\n      0x01\n        /* \"#utility.yul\":21059:21677   */\n      dup2\n      eq\n      tag_408\n      jumpi\n        /* \"#utility.yul\":21721:21722   */\n      0x00\n        /* \"#utility.yul\":21738:21744   */\n      dup5\n        /* \"#utility.yul\":21735:21812   */\n      iszero\n      tag_409\n      jumpi\n        /* \"#utility.yul\":21787:21796   */\n      dup3\n        /* \"#utility.yul\":21782:21785   */\n      dup8\n        /* \"#utility.yul\":21778:21797   */\n      add\n        /* \"#utility.yul\":21772:21798   */\n      mload\n        /* \"#utility.yul\":21763:21798   */\n      swap1\n      pop\n        /* \"#utility.yul\":21735:21812   */\n    tag_409:\n        /* \"#utility.yul\":21838:21905   */\n      tag_410\n        /* \"#utility.yul\":21898:21904   */\n      dup6\n        /* \"#utility.yul\":21891:21896   */\n      dup3\n        /* \"#utility.yul\":21838:21905   */\n      tag_198\n      jump\t// in\n    tag_410:\n        /* \"#utility.yul\":21832:21836   */\n      dup7\n        /* \"#utility.yul\":21825:21906   */\n      sstore\n        /* \"#utility.yul\":21694:21916   */\n      pop\n        /* \"#utility.yul\":21029:21916   */\n      jump(tag_407)\n        /* \"#utility.yul\":21059:21677   */\n    tag_408:\n        /* \"#utility.yul\":21111:21115   */\n      0x1f\n        /* \"#utility.yul\":21107:21116   */\n      not\n        /* \"#utility.yul\":21099:21105   */\n      dup5\n        /* \"#utility.yul\":21095:21117   */\n      and\n        /* \"#utility.yul\":21145:21182   */\n      tag_411\n        /* \"#utility.yul\":21177:21181   */\n      dup7\n        /* \"#utility.yul\":21145:21182   */\n      tag_184\n      jump\t// in\n    tag_411:\n        /* \"#utility.yul\":21204:21205   */\n      0x00\n        /* \"#utility.yul\":21218:21426   */\n    tag_412:\n        /* \"#utility.yul\":21232:21239   */\n      dup3\n        /* \"#utility.yul\":21229:21230   */\n      dup2\n        /* \"#utility.yul\":21226:21240   */\n      lt\n        /* \"#utility.yul\":21218:21426   */\n      iszero\n      tag_414\n      jumpi\n        /* \"#utility.yul\":21311:21320   */\n      dup5\n        /* \"#utility.yul\":21306:21309   */\n      dup10\n        /* \"#utility.yul\":21302:21321   */\n      add\n        /* \"#utility.yul\":21296:21322   */\n      mload\n        /* \"#utility.yul\":21288:21294   */\n      dup3\n        /* \"#utility.yul\":21281:21323   */\n      sstore\n        /* \"#utility.yul\":21362:21363   */\n      0x01\n        /* \"#utility.yul\":21354:21360   */\n      dup3\n        /* \"#utility.yul\":21350:21364   */\n      add\n        /* \"#utility.yul\":21340:21364   */\n      swap2\n      pop\n        /* \"#utility.yul\":21409:21411   */\n      0x20\n        /* \"#utility.yul\":21398:21407   */\n      dup6\n        /* \"#utility.yul\":21394:21412   */\n      add\n        /* \"#utility.yul\":21381:21412   */\n      swap5\n      pop\n        /* \"#utility.yul\":21255:21259   */\n      0x20\n        /* \"#utility.yul\":21252:21253   */\n      dup2\n        /* \"#utility.yul\":21248:21260   */\n      add\n        /* \"#utility.yul\":21243:21260   */\n      swap1\n      pop\n        /* \"#utility.yul\":21218:21426   */\n      jump(tag_412)\n    tag_414:\n        /* \"#utility.yul\":21454:21460   */\n      dup7\n        /* \"#utility.yul\":21445:21452   */\n      dup4\n        /* \"#utility.yul\":21442:21461   */\n      lt\n        /* \"#utility.yul\":21439:21618   */\n      iszero\n      tag_415\n      jumpi\n        /* \"#utility.yul\":21512:21521   */\n      dup5\n        /* \"#utility.yul\":21507:21510   */\n      dup10\n        /* \"#utility.yul\":21503:21522   */\n      add\n        /* \"#utility.yul\":21497:21523   */\n      mload\n        /* \"#utility.yul\":21555:21603   */\n      tag_416\n        /* \"#utility.yul\":21597:21601   */\n      0x1f\n        /* \"#utility.yul\":21589:21595   */\n      dup10\n        /* \"#utility.yul\":21585:21602   */\n      and\n        /* \"#utility.yul\":21574:21583   */\n      dup3\n        /* \"#utility.yul\":21555:21603   */\n      tag_197\n      jump\t// in\n    tag_416:\n        /* \"#utility.yul\":21547:21553   */\n      dup4\n        /* \"#utility.yul\":21540:21604   */\n      sstore\n        /* \"#utility.yul\":21462:21618   */\n      pop\n        /* \"#utility.yul\":21439:21618   */\n    tag_415:\n        /* \"#utility.yul\":21664:21665   */\n      0x01\n        /* \"#utility.yul\":21660:21661   */\n      0x02\n        /* \"#utility.yul\":21652:21658   */\n      dup9\n        /* \"#utility.yul\":21648:21662   */\n      mul\n        /* \"#utility.yul\":21644:21666   */\n      add\n        /* \"#utility.yul\":21638:21642   */\n      dup9\n        /* \"#utility.yul\":21631:21667   */\n      sstore\n        /* \"#utility.yul\":21066:21677   */\n      pop\n      pop\n      pop\n        /* \"#utility.yul\":21029:21916   */\n    tag_407:\n      pop\n        /* \"#utility.yul\":20619:21922   */\n      pop\n      pop\n      pop\n        /* \"#utility.yul\":20527:21922   */\n      pop\n      pop\n      jump\t// out\n        /* \"#utility.yul\":21928:22153   */\n    tag_199:\n        /* \"#utility.yul\":22068:22102   */\n      0x4f6e6c7920746865206f776e65722063616e20706572666f726d207468697320\n        /* \"#utility.yul\":22064:22065   */\n      0x00\n        /* \"#utility.yul\":22056:22062   */\n      dup3\n        /* \"#utility.yul\":22052:22066   */\n      add\n        /* \"#utility.yul\":22045:22103   */\n      mstore\n        /* \"#utility.yul\":22137:22145   */\n      0x616374696f6e0000000000000000000000000000000000000000000000000000\n        /* \"#utility.yul\":22132:22134   */\n      0x20\n        /* \"#utility.yul\":22124:22130   */\n      dup3\n        /* \"#utility.yul\":22120:22135   */\n      add\n        /* \"#utility.yul\":22113:22146   */\n      mstore\n        /* \"#utility.yul\":21928:22153   */\n      pop\n      jump\t// out\n        /* \"#utility.yul\":22159:22525   */\n    tag_200:\n        /* \"#utility.yul\":22301:22304   */\n      0x00\n        /* \"#utility.yul\":22322:22389   */\n      tag_419\n        /* \"#utility.yul\":22386:22388   */\n      0x26\n        /* \"#utility.yul\":22381:22384   */\n      dup4\n        /* \"#utility.yul\":22322:22389   */\n      tag_150\n      jump\t// in\n    tag_419:\n        /* \"#utility.yul\":22315:22389   */\n      swap2\n      pop\n        /* \"#utility.yul\":22398:22491   */\n      tag_420\n        /* \"#utility.yul\":22487:22490   */\n      dup3\n        /* \"#utility.yul\":22398:22491   */\n      tag_199\n      jump\t// in\n    tag_420:\n        /* \"#utility.yul\":22516:22518   */\n      0x40\n        /* \"#utility.yul\":22511:22514   */\n      dup3\n        /* \"#utility.yul\":22507:22519   */\n      add\n        /* \"#utility.yul\":22500:22519   */\n      swap1\n      pop\n        /* \"#utility.yul\":22159:22525   */\n      swap2\n      swap1\n      pop\n      jump\t// out\n        /* \"#utility.yul\":22531:22950   */\n    tag_134:\n        /* \"#utility.yul\":22697:22701   */\n      0x00\n        /* \"#utility.yul\":22735:22737   */\n      0x20\n        /* \"#utility.yul\":22724:22733   */\n      dup3\n        /* \"#utility.yul\":22720:22738   */\n      add\n        /* \"#utility.yul\":22712:22738   */\n      swap1\n      pop\n        /* \"#utility.yul\":22784:22793   */\n      dup2\n        /* \"#utility.yul\":22778:22782   */\n      dup2\n        /* \"#utility.yul\":22774:22794   */\n      sub\n        /* \"#utility.yul\":22770:22771   */\n      0x00\n        /* \"#utility.yul\":22759:22768   */\n      dup4\n        /* \"#utility.yul\":22755:22772   */\n      add\n        /* \"#utility.yul\":22748:22795   */\n      mstore\n        /* \"#utility.yul\":22812:22943   */\n      tag_422\n        /* \"#utility.yul\":22938:22942   */\n      dup2\n        /* \"#utility.yul\":22812:22943   */\n      tag_200\n      jump\t// in\n    tag_422:\n        /* \"#utility.yul\":22804:22943   */\n      swap1\n      pop\n        /* \"#utility.yul\":22531:22950   */\n      swap2\n      swap1\n      pop\n      jump\t// out\n\n    auxdata: 0xa2646970667358221220d978c566f5fff87c05e3343ccdac347f13e9bfb3e390b0b1f077d71ba368c19e64736f6c63430008120033\n}\n",
				"bytecode": {
					"linkReferences": {},
					"object": "608060405234801561001057600080fd5b50336000806101000a81548173ffffffffffffffffffffffffffffffffffffffff021916908373ffffffffffffffffffffffffffffffffffffffff1602179055506040518060400160405280600081526020016001808111156100765761007561011b565b5b815250600160008060009054906101000a900473ffffffffffffffffffffffffffffffffffffffff1673ffffffffffffffffffffffffffffffffffffffff1673ffffffffffffffffffffffffffffffffffffffff1681526020019081526020016000206000820151816000015560208201518160010160006101000a81548160ff0219169083600181111561010e5761010d61011b565b5b021790555090505061014a565b7f4e487b7100000000000000000000000000000000000000000000000000000000600052602160045260246000fd5b611ab8806200015a6000396000f3fe6080604052600436106100705760003560e01c806370876c981161004e57806370876c981461011c5780638da5cb5b14610138578063a211f1ed14610163578063a87430ba1461018c57610070565b80633d527883146100755780633dd26a93146100b4578063687527c6146100df575b600080fd5b34801561008157600080fd5b5061009c60048036038101906100979190610f37565b6101ca565b6040516100ab93929190611016565b60405180910390f35b3480156100c057600080fd5b506100c9610299565b6040516100d691906111bf565b60405180910390f35b3480156100eb57600080fd5b50610106600480360381019061010191906111e1565b6103fc565b604051610113919061120e565b60405180910390f35b61013660048036038101906101319190611229565b61052e565b005b34801561014457600080fd5b5061014d610c96565b60405161015a9190611278565b60405180910390f35b34801561016f57600080fd5b5061018a600480360381019061018591906112f8565b610cba565b005b34801561019857600080fd5b506101b360048036038101906101ae919061136c565b610e68565b6040516101c1929190611410565b60405180910390f35b600260205281600052604060002081815481106101e657600080fd5b90600052602060002090600302016000915091505080600001549080600101549080600201805461021690611468565b80601f016020809104026020016040519081016040528092919081815260200182805461024290611468565b801561028f5780601f106102645761010080835404028352916020019161028f565b820191906000526020600020905b81548152906001019060200180831161027257829003601f168201915b5050505050905083565b6060600260008060009054906101000a900473ffffffffffffffffffffffffffffffffffffffff1673ffffffffffffffffffffffffffffffffffffffff1673ffffffffffffffffffffffffffffffffffffffff168152602001908152602001600020805480602002602001604051908101604052809291908181526020016000905b828210156103f35783829060005260206000209060030201604051806060016040529081600082015481526020016001820154815260200160028201805461036290611468565b80601f016020809104026020016040519081016040528092919081815260200182805461038e90611468565b80156103db5780601f106103b0576101008083540402835291602001916103db565b820191906000526020600020905b8154815290600101906020018083116103be57829003601f168201915b5050505050815250508152602001906001019061031b565b50505050905090565b6000600260008060009054906101000a900473ffffffffffffffffffffffffffffffffffffffff1673ffffffffffffffffffffffffffffffffffffffff1673ffffffffffffffffffffffffffffffffffffffff1681526020019081526020016000208054905082106104a3576040517f08c379a000000000000000000000000000000000000000000000000000000000815260040161049a906114e5565b60405180910390fd5b600260008060009054906101000a900473ffffffffffffffffffffffffffffffffffffffff1673ffffffffffffffffffffffffffffffffffffffff1673ffffffffffffffffffffffffffffffffffffffff168152602001908152602001600020828154811061051557610514611505565b5b9060005260206000209060030201600001549050919050565b60008211610571576040517f08c379a0000000000000000000000000000000000000000000000000000000008152600401610568906115a6565b60405180910390fd5b600260008060009054906101000a900473ffffffffffffffffffffffffffffffffffffffff1673ffffffffffffffffffffffffffffffffffffffff1673ffffffffffffffffffffffffffffffffffffffff168152602001908152602001600020805490508110610616576040517f08c379a000000000000000000000000000000000000000000000000000000000815260040161060d906114e5565b60405180910390fd5b6000600181111561062a57610629611399565b5b600160003373ffffffffffffffffffffffffffffffffffffffff1673ffffffffffffffffffffffffffffffffffffffff16815260200190815260200160002060010160009054906101000a900460ff16600181111561068c5761068b611399565b5b1461073757604051806040016040528060008152602001600060018111156106b7576106b6611399565b5b815250600160003373ffffffffffffffffffffffffffffffffffffffff1673ffffffffffffffffffffffffffffffffffffffff1681526020019081526020016000206000820151816000015560208201518160010160006101000a81548160ff0219169083600181111561072e5761072d611399565b5b02179055509050505b600260008060009054906101000a900473ffffffffffffffffffffffffffffffffffffffff1673ffffffffffffffffffffffffffffffffffffffff1673ffffffffffffffffffffffffffffffffffffffff16815260200190815260200160002081815481106107a9576107a8611505565b5b9060005260206000209060030201600001548211156107fd576040517f08c379a00000000000000000000000000000000000000000000000000000000081526004016107f490611612565b60405180910390fd5b6000670de0b6b3a7640000600260008060009054906101000a900473ffffffffffffffffffffffffffffffffffffffff1673ffffffffffffffffffffffffffffffffffffffff1673ffffffffffffffffffffffffffffffffffffffff168152602001908152602001600020838154811061087a57610879611505565b5b906000526020600020906003020160010154846108979190611661565b6108a19190611661565b9050803410156108e6576040517f08c379a00000000000000000000000000000000000000000000000000000000081526004016108dd906116ef565b60405180910390fd5b60006040518060600160405280858152602001600260008060009054906101000a900473ffffffffffffffffffffffffffffffffffffffff1673ffffffffffffffffffffffffffffffffffffffff1673ffffffffffffffffffffffffffffffffffffffff168152602001908152602001600020858154811061096b5761096a611505565b5b9060005260206000209060030201600101548152602001600260008060009054906101000a900473ffffffffffffffffffffffffffffffffffffffff1673ffffffffffffffffffffffffffffffffffffffff1673ffffffffffffffffffffffffffffffffffffffff16815260200190815260200160002085815481106109f4576109f3611505565b5b90600052602060002090600302016002018054610a1090611468565b80601f0160208091040260200160405190810160405280929190818152602001828054610a3c90611468565b8015610a895780601f10610a5e57610100808354040283529160200191610a89565b820191906000526020600020905b815481529060010190602001808311610a6c57829003601f168201915b5050505050815250905083600260008060009054906101000a900473ffffffffffffffffffffffffffffffffffffffff1673ffffffffffffffffffffffffffffffffffffffff1673ffffffffffffffffffffffffffffffffffffffff1681526020019081526020016000208481548110610b0657610b05611505565b5b90600052602060002090600302016000016000828254610b26919061170f565b92505081905550600260003373ffffffffffffffffffffffffffffffffffffffff1673ffffffffffffffffffffffffffffffffffffffff16815260200190815260200160002081908060018154018082558091505060019003906000526020600020906003020160009091909190915060008201518160000155602082015181600101556040820151816002019081610bbf919061191e565b50505081341115610c235760008234610bd8919061170f565b90503373ffffffffffffffffffffffffffffffffffffffff166108fc829081150290604051600060405180830381858888f19350505050158015610c20573d6000803e3d6000fd5b50505b600047905060008054906101000a900473ffffffffffffffffffffffffffffffffffffffff1673ffffffffffffffffffffffffffffffffffffffff166108fc829081150290604051600060405180830381858888f19350505050158015610c8e573d6000803e3d6000fd5b505050505050565b60008054906101000a900473ffffffffffffffffffffffffffffffffffffffff1681565b60008054906101000a900473ffffffffffffffffffffffffffffffffffffffff1673ffffffffffffffffffffffffffffffffffffffff163373ffffffffffffffffffffffffffffffffffffffff1614610d48576040517f08c379a0000000000000000000000000000000000000000000000000000000008152600401610d3f90611a62565b60405180910390fd5b6000604051806060016040528086815260200185815260200184848080601f016020809104026020016040519081016040528093929190818152602001838380828437600081840152601f19601f820116905080830192505050505050508152509050600260008060009054906101000a900473ffffffffffffffffffffffffffffffffffffffff1673ffffffffffffffffffffffffffffffffffffffff1673ffffffffffffffffffffffffffffffffffffffff16815260200190815260200160002081908060018154018082558091505060019003906000526020600020906003020160009091909190915060008201518160000155602082015181600101556040820151816002019081610e5e919061191e565b5050505050505050565b60016020528060005260406000206000915090508060000154908060010160009054906101000a900460ff16905082565b600080fd5b600080fd5b600073ffffffffffffffffffffffffffffffffffffffff82169050919050565b6000610ece82610ea3565b9050919050565b610ede81610ec3565b8114610ee957600080fd5b50565b600081359050610efb81610ed5565b92915050565b6000819050919050565b610f1481610f01565b8114610f1f57600080fd5b50565b600081359050610f3181610f0b565b92915050565b60008060408385031215610f4e57610f4d610e99565b5b6000610f5c85828601610eec565b9250506020610f6d85828601610f22565b9150509250929050565b610f8081610f01565b82525050565b600081519050919050565b600082825260208201905092915050565b60005b83811015610fc0578082015181840152602081019050610fa5565b60008484015250505050565b6000601f19601f8301169050919050565b6000610fe882610f86565b610ff28185610f91565b9350611002818560208601610fa2565b61100b81610fcc565b840191505092915050565b600060608201905061102b6000830186610f77565b6110386020830185610f77565b818103604083015261104a8184610fdd565b9050949350505050565b600081519050919050565b600082825260208201905092915050565b6000819050602082019050919050565b61108981610f01565b82525050565b600082825260208201905092915050565b60006110ab82610f86565b6110b5818561108f565b93506110c5818560208601610fa2565b6110ce81610fcc565b840191505092915050565b60006060830160008301516110f16000860182611080565b5060208301516111046020860182611080565b506040830151848203604086015261111c82826110a0565b9150508091505092915050565b600061113583836110d9565b905092915050565b6000602082019050919050565b600061115582611054565b61115f818561105f565b93508360208202850161117185611070565b8060005b858110156111ad578484038952815161118e8582611129565b94506111998361113d565b925060208a01995050600181019050611175565b50829750879550505050505092915050565b600060208201905081810360008301526111d9818461114a565b905092915050565b6000602082840312156111f7576111f6610e99565b5b600061120584828501610f22565b91505092915050565b60006020820190506112236000830184610f77565b92915050565b600080604083850312156112405761123f610e99565b5b600061124e85828601610f22565b925050602061125f85828601610f22565b9150509250929050565b61127281610ec3565b82525050565b600060208201905061128d6000830184611269565b92915050565b600080fd5b600080fd5b600080fd5b60008083601f8401126112b8576112b7611293565b5b8235905067ffffffffffffffff8111156112d5576112d4611298565b5b6020830191508360018202830111156112f1576112f061129d565b5b9250929050565b6000806000806060858703121561131257611311610e99565b5b600061132087828801610f22565b945050602061133187828801610f22565b935050604085013567ffffffffffffffff81111561135257611351610e9e565b5b61135e878288016112a2565b925092505092959194509250565b60006020828403121561138257611381610e99565b5b600061139084828501610eec565b91505092915050565b7f4e487b7100000000000000000000000000000000000000000000000000000000600052602160045260246000fd5b600281106113d9576113d8611399565b5b50565b60008190506113ea826113c8565b919050565b60006113fa826113dc565b9050919050565b61140a816113ef565b82525050565b60006040820190506114256000830185610f77565b6114326020830184611401565b9392505050565b7f4e487b7100000000000000000000000000000000000000000000000000000000600052602260045260246000fd5b6000600282049050600182168061148057607f821691505b60208210810361149357611492611439565b5b50919050565b7f496e76616c69642070726f647563742049440000000000000000000000000000600082015250565b60006114cf601283610f91565b91506114da82611499565b602082019050919050565b600060208201905081810360008301526114fe816114c2565b9050919050565b7f4e487b7100000000000000000000000000000000000000000000000000000000600052603260045260246000fd5b7f507572636861736520616d6f756e74206d75737420626520677265617465722060008201527f7468616e20300000000000000000000000000000000000000000000000000000602082015250565b6000611590602683610f91565b915061159b82611534565b604082019050919050565b600060208201905081810360008301526115bf81611583565b9050919050565b7f4e6f7420656e6f7567682073746f636b20617661696c61626c65000000000000600082015250565b60006115fc601a83610f91565b9150611607826115c6565b602082019050919050565b6000602082019050818103600083015261162b816115ef565b9050919050565b7f4e487b7100000000000000000000000000000000000000000000000000000000600052601160045260246000fd5b600061166c82610f01565b915061167783610f01565b925082820261168581610f01565b9150828204841483151761169c5761169b611632565b5b5092915050565b7f496e73756666696369656e742066756e64732073656e74000000000000000000600082015250565b60006116d9601783610f91565b91506116e4826116a3565b602082019050919050565b60006020820190508181036000830152611708816116cc565b9050919050565b600061171a82610f01565b915061172583610f01565b925082820390508181111561173d5761173c611632565b5b92915050565b7f4e487b7100000000000000000000000000000000000000000000000000000000600052604160045260246000fd5b60008190508160005260206000209050919050565b60006020601f8301049050919050565b600082821b905092915050565b6000600883026117d47fffffffffffffffffffffffffffffffffffffffffffffffffffffffffffffffff82611797565b6117de8683611797565b95508019841693508086168417925050509392505050565b6000819050919050565b600061181b61181661181184610f01565b6117f6565b610f01565b9050919050565b6000819050919050565b61183583611800565b61184961184182611822565b8484546117a4565b825550505050565b600090565b61185e611851565b61186981848461182c565b505050565b5b8181101561188d57611882600082611856565b60018101905061186f565b5050565b601f8211156118d2576118a381611772565b6118ac84611787565b810160208510156118bb578190505b6118cf6118c785611787565b83018261186e565b50505b505050565b600082821c905092915050565b60006118f5600019846008026118d7565b1980831691505092915050565b600061190e83836118e4565b9150826002028217905092915050565b61192782610f86565b67ffffffffffffffff8111156119405761193f611743565b5b61194a8254611468565b611955828285611891565b600060209050601f8311600181146119885760008415611976578287015190505b6119808582611902565b8655506119e8565b601f19841661199686611772565b60005b828110156119be57848901518255600182019150602085019450602081019050611999565b868310156119db57848901516119d7601f8916826118e4565b8355505b6001600288020188555050505b505050505050565b7f4f6e6c7920746865206f776e65722063616e20706572666f726d20746869732060008201527f616374696f6e0000000000000000000000000000000000000000000000000000602082015250565b6000611a4c602683610f91565b9150611a57826119f0565b604082019050919050565b60006020820190508181036000830152611a7b81611a3f565b905091905056fea2646970667358221220d978c566f5fff87c05e3343ccdac347f13e9bfb3e390b0b1f077d71ba368c19e64736f6c63430008120033",
					"opcodes": "PUSH1 0x80 PUSH1 0x40 MSTORE CALLVALUE DUP1 ISZERO PUSH2 0x10 JUMPI PUSH1 0x0 DUP1 REVERT JUMPDEST POP CALLER PUSH1 0x0 DUP1 PUSH2 0x100 EXP DUP2 SLOAD DUP2 PUSH20 0xFFFFFFFFFFFFFFFFFFFFFFFFFFFFFFFFFFFFFFFF MUL NOT AND SWAP1 DUP4 PUSH20 0xFFFFFFFFFFFFFFFFFFFFFFFFFFFFFFFFFFFFFFFF AND MUL OR SWAP1 SSTORE POP PUSH1 0x40 MLOAD DUP1 PUSH1 0x40 ADD PUSH1 0x40 MSTORE DUP1 PUSH1 0x0 DUP2 MSTORE PUSH1 0x20 ADD PUSH1 0x1 DUP1 DUP2 GT ISZERO PUSH2 0x76 JUMPI PUSH2 0x75 PUSH2 0x11B JUMP JUMPDEST JUMPDEST DUP2 MSTORE POP PUSH1 0x1 PUSH1 0x0 DUP1 PUSH1 0x0 SWAP1 SLOAD SWAP1 PUSH2 0x100 EXP SWAP1 DIV PUSH20 0xFFFFFFFFFFFFFFFFFFFFFFFFFFFFFFFFFFFFFFFF AND PUSH20 0xFFFFFFFFFFFFFFFFFFFFFFFFFFFFFFFFFFFFFFFF AND PUSH20 0xFFFFFFFFFFFFFFFFFFFFFFFFFFFFFFFFFFFFFFFF AND DUP2 MSTORE PUSH1 0x20 ADD SWAP1 DUP2 MSTORE PUSH1 0x20 ADD PUSH1 0x0 KECCAK256 PUSH1 0x0 DUP3 ADD MLOAD DUP2 PUSH1 0x0 ADD SSTORE PUSH1 0x20 DUP3 ADD MLOAD DUP2 PUSH1 0x1 ADD PUSH1 0x0 PUSH2 0x100 EXP DUP2 SLOAD DUP2 PUSH1 0xFF MUL NOT AND SWAP1 DUP4 PUSH1 0x1 DUP2 GT ISZERO PUSH2 0x10E JUMPI PUSH2 0x10D PUSH2 0x11B JUMP JUMPDEST JUMPDEST MUL OR SWAP1 SSTORE POP SWAP1 POP POP PUSH2 0x14A JUMP JUMPDEST PUSH32 0x4E487B7100000000000000000000000000000000000000000000000000000000 PUSH1 0x0 MSTORE PUSH1 0x21 PUSH1 0x4 MSTORE PUSH1 0x24 PUSH1 0x0 REVERT JUMPDEST PUSH2 0x1AB8 DUP1 PUSH3 0x15A PUSH1 0x0 CODECOPY PUSH1 0x0 RETURN INVALID PUSH1 0x80 PUSH1 0x40 MSTORE PUSH1 0x4 CALLDATASIZE LT PUSH2 0x70 JUMPI PUSH1 0x0 CALLDATALOAD PUSH1 0xE0 SHR DUP1 PUSH4 0x70876C98 GT PUSH2 0x4E JUMPI DUP1 PUSH4 0x70876C98 EQ PUSH2 0x11C JUMPI DUP1 PUSH4 0x8DA5CB5B EQ PUSH2 0x138 JUMPI DUP1 PUSH4 0xA211F1ED EQ PUSH2 0x163 JUMPI DUP1 PUSH4 0xA87430BA EQ PUSH2 0x18C JUMPI PUSH2 0x70 JUMP JUMPDEST DUP1 PUSH4 0x3D527883 EQ PUSH2 0x75 JUMPI DUP1 PUSH4 0x3DD26A93 EQ PUSH2 0xB4 JUMPI DUP1 PUSH4 0x687527C6 EQ PUSH2 0xDF JUMPI JUMPDEST PUSH1 0x0 DUP1 REVERT JUMPDEST CALLVALUE DUP1 ISZERO PUSH2 0x81 JUMPI PUSH1 0x0 DUP1 REVERT JUMPDEST POP PUSH2 0x9C PUSH1 0x4 DUP1 CALLDATASIZE SUB DUP2 ADD SWAP1 PUSH2 0x97 SWAP2 SWAP1 PUSH2 0xF37 JUMP JUMPDEST PUSH2 0x1CA JUMP JUMPDEST PUSH1 0x40 MLOAD PUSH2 0xAB SWAP4 SWAP3 SWAP2 SWAP1 PUSH2 0x1016 JUMP JUMPDEST PUSH1 0x40 MLOAD DUP1 SWAP2 SUB SWAP1 RETURN JUMPDEST CALLVALUE DUP1 ISZERO PUSH2 0xC0 JUMPI PUSH1 0x0 DUP1 REVERT JUMPDEST POP PUSH2 0xC9 PUSH2 0x299 JUMP JUMPDEST PUSH1 0x40 MLOAD PUSH2 0xD6 SWAP2 SWAP1 PUSH2 0x11BF JUMP JUMPDEST PUSH1 0x40 MLOAD DUP1 SWAP2 SUB SWAP1 RETURN JUMPDEST CALLVALUE DUP1 ISZERO PUSH2 0xEB JUMPI PUSH1 0x0 DUP1 REVERT JUMPDEST POP PUSH2 0x106 PUSH1 0x4 DUP1 CALLDATASIZE SUB DUP2 ADD SWAP1 PUSH2 0x101 SWAP2 SWAP1 PUSH2 0x11E1 JUMP JUMPDEST PUSH2 0x3FC JUMP JUMPDEST PUSH1 0x40 MLOAD PUSH2 0x113 SWAP2 SWAP1 PUSH2 0x120E JUMP JUMPDEST PUSH1 0x40 MLOAD DUP1 SWAP2 SUB SWAP1 RETURN JUMPDEST PUSH2 0x136 PUSH1 0x4 DUP1 CALLDATASIZE SUB DUP2 ADD SWAP1 PUSH2 0x131 SWAP2 SWAP1 PUSH2 0x1229 JUMP JUMPDEST PUSH2 0x52E JUMP JUMPDEST STOP JUMPDEST CALLVALUE DUP1 ISZERO PUSH2 0x144 JUMPI PUSH1 0x0 DUP1 REVERT JUMPDEST POP PUSH2 0x14D PUSH2 0xC96 JUMP JUMPDEST PUSH1 0x40 MLOAD PUSH2 0x15A SWAP2 SWAP1 PUSH2 0x1278 JUMP JUMPDEST PUSH1 0x40 MLOAD DUP1 SWAP2 SUB SWAP1 RETURN JUMPDEST CALLVALUE DUP1 ISZERO PUSH2 0x16F JUMPI PUSH1 0x0 DUP1 REVERT JUMPDEST POP PUSH2 0x18A PUSH1 0x4 DUP1 CALLDATASIZE SUB DUP2 ADD SWAP1 PUSH2 0x185 SWAP2 SWAP1 PUSH2 0x12F8 JUMP JUMPDEST PUSH2 0xCBA JUMP JUMPDEST STOP JUMPDEST CALLVALUE DUP1 ISZERO PUSH2 0x198 JUMPI PUSH1 0x0 DUP1 REVERT JUMPDEST POP PUSH2 0x1B3 PUSH1 0x4 DUP1 CALLDATASIZE SUB DUP2 ADD SWAP1 PUSH2 0x1AE SWAP2 SWAP1 PUSH2 0x136C JUMP JUMPDEST PUSH2 0xE68 JUMP JUMPDEST PUSH1 0x40 MLOAD PUSH2 0x1C1 SWAP3 SWAP2 SWAP1 PUSH2 0x1410 JUMP JUMPDEST PUSH1 0x40 MLOAD DUP1 SWAP2 SUB SWAP1 RETURN JUMPDEST PUSH1 0x2 PUSH1 0x20 MSTORE DUP2 PUSH1 0x0 MSTORE PUSH1 0x40 PUSH1 0x0 KECCAK256 DUP2 DUP2 SLOAD DUP2 LT PUSH2 0x1E6 JUMPI PUSH1 0x0 DUP1 REVERT JUMPDEST SWAP1 PUSH1 0x0 MSTORE PUSH1 0x20 PUSH1 0x0 KECCAK256 SWAP1 PUSH1 0x3 MUL ADD PUSH1 0x0 SWAP2 POP SWAP2 POP POP DUP1 PUSH1 0x0 ADD SLOAD SWAP1 DUP1 PUSH1 0x1 ADD SLOAD SWAP1 DUP1 PUSH1 0x2 ADD DUP1 SLOAD PUSH2 0x216 SWAP1 PUSH2 0x1468 JUMP JUMPDEST DUP1 PUSH1 0x1F ADD PUSH1 0x20 DUP1 SWAP2 DIV MUL PUSH1 0x20 ADD PUSH1 0x40 MLOAD SWAP1 DUP2 ADD PUSH1 0x40 MSTORE DUP1 SWAP3 SWAP2 SWAP1 DUP2 DUP2 MSTORE PUSH1 0x20 ADD DUP3 DUP1 SLOAD PUSH2 0x242 SWAP1 PUSH2 0x1468 JUMP JUMPDEST DUP1 ISZERO PUSH2 0x28F JUMPI DUP1 PUSH1 0x1F LT PUSH2 0x264 JUMPI PUSH2 0x100 DUP1 DUP4 SLOAD DIV MUL DUP4 MSTORE SWAP2 PUSH1 0x20 ADD SWAP2 PUSH2 0x28F JUMP JUMPDEST DUP3 ADD SWAP2 SWAP1 PUSH1 0x0 MSTORE PUSH1 0x20 PUSH1 0x0 KECCAK256 SWAP1 JUMPDEST DUP2 SLOAD DUP2 MSTORE SWAP1 PUSH1 0x1 ADD SWAP1 PUSH1 0x20 ADD DUP1 DUP4 GT PUSH2 0x272 JUMPI DUP3 SWAP1 SUB PUSH1 0x1F AND DUP3 ADD SWAP2 JUMPDEST POP POP POP POP POP SWAP1 POP DUP4 JUMP JUMPDEST PUSH1 0x60 PUSH1 0x2 PUSH1 0x0 DUP1 PUSH1 0x0 SWAP1 SLOAD SWAP1 PUSH2 0x100 EXP SWAP1 DIV PUSH20 0xFFFFFFFFFFFFFFFFFFFFFFFFFFFFFFFFFFFFFFFF AND PUSH20 0xFFFFFFFFFFFFFFFFFFFFFFFFFFFFFFFFFFFFFFFF AND PUSH20 0xFFFFFFFFFFFFFFFFFFFFFFFFFFFFFFFFFFFFFFFF AND DUP2 MSTORE PUSH1 0x20 ADD SWAP1 DUP2 MSTORE PUSH1 0x20 ADD PUSH1 0x0 KECCAK256 DUP1 SLOAD DUP1 PUSH1 0x20 MUL PUSH1 0x20 ADD PUSH1 0x40 MLOAD SWAP1 DUP2 ADD PUSH1 0x40 MSTORE DUP1 SWAP3 SWAP2 SWAP1 DUP2 DUP2 MSTORE PUSH1 0x20 ADD PUSH1 0x0 SWAP1 JUMPDEST DUP3 DUP3 LT ISZERO PUSH2 0x3F3 JUMPI DUP4 DUP3 SWAP1 PUSH1 0x0 MSTORE PUSH1 0x20 PUSH1 0x0 KECCAK256 SWAP1 PUSH1 0x3 MUL ADD PUSH1 0x40 MLOAD DUP1 PUSH1 0x60 ADD PUSH1 0x40 MSTORE SWAP1 DUP2 PUSH1 0x0 DUP3 ADD SLOAD DUP2 MSTORE PUSH1 0x20 ADD PUSH1 0x1 DUP3 ADD SLOAD DUP2 MSTORE PUSH1 0x20 ADD PUSH1 0x2 DUP3 ADD DUP1 SLOAD PUSH2 0x362 SWAP1 PUSH2 0x1468 JUMP JUMPDEST DUP1 PUSH1 0x1F ADD PUSH1 0x20 DUP1 SWAP2 DIV MUL PUSH1 0x20 ADD PUSH1 0x40 MLOAD SWAP1 DUP2 ADD PUSH1 0x40 MSTORE DUP1 SWAP3 SWAP2 SWAP1 DUP2 DUP2 MSTORE PUSH1 0x20 ADD DUP3 DUP1 SLOAD PUSH2 0x38E SWAP1 PUSH2 0x1468 JUMP JUMPDEST DUP1 ISZERO PUSH2 0x3DB JUMPI DUP1 PUSH1 0x1F LT PUSH2 0x3B0 JUMPI PUSH2 0x100 DUP1 DUP4 SLOAD DIV MUL DUP4 MSTORE SWAP2 PUSH1 0x20 ADD SWAP2 PUSH2 0x3DB JUMP JUMPDEST DUP3 ADD SWAP2 SWAP1 PUSH1 0x0 MSTORE PUSH1 0x20 PUSH1 0x0 KECCAK256 SWAP1 JUMPDEST DUP2 SLOAD DUP2 MSTORE SWAP1 PUSH1 0x1 ADD SWAP1 PUSH1 0x20 ADD DUP1 DUP4 GT PUSH2 0x3BE JUMPI DUP3 SWAP1 SUB PUSH1 0x1F AND DUP3 ADD SWAP2 JUMPDEST POP POP POP POP POP DUP2 MSTORE POP POP DUP2 MSTORE PUSH1 0x20 ADD SWAP1 PUSH1 0x1 ADD SWAP1 PUSH2 0x31B JUMP JUMPDEST POP POP POP POP SWAP1 POP SWAP1 JUMP JUMPDEST PUSH1 0x0 PUSH1 0x2 PUSH1 0x0 DUP1 PUSH1 0x0 SWAP1 SLOAD SWAP1 PUSH2 0x100 EXP SWAP1 DIV PUSH20 0xFFFFFFFFFFFFFFFFFFFFFFFFFFFFFFFFFFFFFFFF AND PUSH20 0xFFFFFFFFFFFFFFFFFFFFFFFFFFFFFFFFFFFFFFFF AND PUSH20 0xFFFFFFFFFFFFFFFFFFFFFFFFFFFFFFFFFFFFFFFF AND DUP2 MSTORE PUSH1 0x20 ADD SWAP1 DUP2 MSTORE PUSH1 0x20 ADD PUSH1 0x0 KECCAK256 DUP1 SLOAD SWAP1 POP DUP3 LT PUSH2 0x4A3 JUMPI PUSH1 0x40 MLOAD PUSH32 0x8C379A000000000000000000000000000000000000000000000000000000000 DUP2 MSTORE PUSH1 0x4 ADD PUSH2 0x49A SWAP1 PUSH2 0x14E5 JUMP JUMPDEST PUSH1 0x40 MLOAD DUP1 SWAP2 SUB SWAP1 REVERT JUMPDEST PUSH1 0x2 PUSH1 0x0 DUP1 PUSH1 0x0 SWAP1 SLOAD SWAP1 PUSH2 0x100 EXP SWAP1 DIV PUSH20 0xFFFFFFFFFFFFFFFFFFFFFFFFFFFFFFFFFFFFFFFF AND PUSH20 0xFFFFFFFFFFFFFFFFFFFFFFFFFFFFFFFFFFFFFFFF AND PUSH20 0xFFFFFFFFFFFFFFFFFFFFFFFFFFFFFFFFFFFFFFFF AND DUP2 MSTORE PUSH1 0x20 ADD SWAP1 DUP2 MSTORE PUSH1 0x20 ADD PUSH1 0x0 KECCAK256 DUP3 DUP2 SLOAD DUP2 LT PUSH2 0x515 JUMPI PUSH2 0x514 PUSH2 0x1505 JUMP JUMPDEST JUMPDEST SWAP1 PUSH1 0x0 MSTORE PUSH1 0x20 PUSH1 0x0 KECCAK256 SWAP1 PUSH1 0x3 MUL ADD PUSH1 0x0 ADD SLOAD SWAP1 POP SWAP2 SWAP1 POP JUMP JUMPDEST PUSH1 0x0 DUP3 GT PUSH2 0x571 JUMPI PUSH1 0x40 MLOAD PUSH32 0x8C379A000000000000000000000000000000000000000000000000000000000 DUP2 MSTORE PUSH1 0x4 ADD PUSH2 0x568 SWAP1 PUSH2 0x15A6 JUMP JUMPDEST PUSH1 0x40 MLOAD DUP1 SWAP2 SUB SWAP1 REVERT JUMPDEST PUSH1 0x2 PUSH1 0x0 DUP1 PUSH1 0x0 SWAP1 SLOAD SWAP1 PUSH2 0x100 EXP SWAP1 DIV PUSH20 0xFFFFFFFFFFFFFFFFFFFFFFFFFFFFFFFFFFFFFFFF AND PUSH20 0xFFFFFFFFFFFFFFFFFFFFFFFFFFFFFFFFFFFFFFFF AND PUSH20 0xFFFFFFFFFFFFFFFFFFFFFFFFFFFFFFFFFFFFFFFF AND DUP2 MSTORE PUSH1 0x20 ADD SWAP1 DUP2 MSTORE PUSH1 0x20 ADD PUSH1 0x0 KECCAK256 DUP1 SLOAD SWAP1 POP DUP2 LT PUSH2 0x616 JUMPI PUSH1 0x40 MLOAD PUSH32 0x8C379A000000000000000000000000000000000000000000000000000000000 DUP2 MSTORE PUSH1 0x4 ADD PUSH2 0x60D SWAP1 PUSH2 0x14E5 JUMP JUMPDEST PUSH1 0x40 MLOAD DUP1 SWAP2 SUB SWAP1 REVERT JUMPDEST PUSH1 0x0 PUSH1 0x1 DUP2 GT ISZERO PUSH2 0x62A JUMPI PUSH2 0x629 PUSH2 0x1399 JUMP JUMPDEST JUMPDEST PUSH1 0x1 PUSH1 0x0 CALLER PUSH20 0xFFFFFFFFFFFFFFFFFFFFFFFFFFFFFFFFFFFFFFFF AND PUSH20 0xFFFFFFFFFFFFFFFFFFFFFFFFFFFFFFFFFFFFFFFF AND DUP2 MSTORE PUSH1 0x20 ADD SWAP1 DUP2 MSTORE PUSH1 0x20 ADD PUSH1 0x0 KECCAK256 PUSH1 0x1 ADD PUSH1 0x0 SWAP1 SLOAD SWAP1 PUSH2 0x100 EXP SWAP1 DIV PUSH1 0xFF AND PUSH1 0x1 DUP2 GT ISZERO PUSH2 0x68C JUMPI PUSH2 0x68B PUSH2 0x1399 JUMP JUMPDEST JUMPDEST EQ PUSH2 0x737 JUMPI PUSH1 0x40 MLOAD DUP1 PUSH1 0x40 ADD PUSH1 0x40 MSTORE DUP1 PUSH1 0x0 DUP2 MSTORE PUSH1 0x20 ADD PUSH1 0x0 PUSH1 0x1 DUP2 GT ISZERO PUSH2 0x6B7 JUMPI PUSH2 0x6B6 PUSH2 0x1399 JUMP JUMPDEST JUMPDEST DUP2 MSTORE POP PUSH1 0x1 PUSH1 0x0 CALLER PUSH20 0xFFFFFFFFFFFFFFFFFFFFFFFFFFFFFFFFFFFFFFFF AND PUSH20 0xFFFFFFFFFFFFFFFFFFFFFFFFFFFFFFFFFFFFFFFF AND DUP2 MSTORE PUSH1 0x20 ADD SWAP1 DUP2 MSTORE PUSH1 0x20 ADD PUSH1 0x0 KECCAK256 PUSH1 0x0 DUP3 ADD MLOAD DUP2 PUSH1 0x0 ADD SSTORE PUSH1 0x20 DUP3 ADD MLOAD DUP2 PUSH1 0x1 ADD PUSH1 0x0 PUSH2 0x100 EXP DUP2 SLOAD DUP2 PUSH1 0xFF MUL NOT AND SWAP1 DUP4 PUSH1 0x1 DUP2 GT ISZERO PUSH2 0x72E JUMPI PUSH2 0x72D PUSH2 0x1399 JUMP JUMPDEST JUMPDEST MUL OR SWAP1 SSTORE POP SWAP1 POP POP JUMPDEST PUSH1 0x2 PUSH1 0x0 DUP1 PUSH1 0x0 SWAP1 SLOAD SWAP1 PUSH2 0x100 EXP SWAP1 DIV PUSH20 0xFFFFFFFFFFFFFFFFFFFFFFFFFFFFFFFFFFFFFFFF AND PUSH20 0xFFFFFFFFFFFFFFFFFFFFFFFFFFFFFFFFFFFFFFFF AND PUSH20 0xFFFFFFFFFFFFFFFFFFFFFFFFFFFFFFFFFFFFFFFF AND DUP2 MSTORE PUSH1 0x20 ADD SWAP1 DUP2 MSTORE PUSH1 0x20 ADD PUSH1 0x0 KECCAK256 DUP2 DUP2 SLOAD DUP2 LT PUSH2 0x7A9 JUMPI PUSH2 0x7A8 PUSH2 0x1505 JUMP JUMPDEST JUMPDEST SWAP1 PUSH1 0x0 MSTORE PUSH1 0x20 PUSH1 0x0 KECCAK256 SWAP1 PUSH1 0x3 MUL ADD PUSH1 0x0 ADD SLOAD DUP3 GT ISZERO PUSH2 0x7FD JUMPI PUSH1 0x40 MLOAD PUSH32 0x8C379A000000000000000000000000000000000000000000000000000000000 DUP2 MSTORE PUSH1 0x4 ADD PUSH2 0x7F4 SWAP1 PUSH2 0x1612 JUMP JUMPDEST PUSH1 0x40 MLOAD DUP1 SWAP2 SUB SWAP1 REVERT JUMPDEST PUSH1 0x0 PUSH8 0xDE0B6B3A7640000 PUSH1 0x2 PUSH1 0x0 DUP1 PUSH1 0x0 SWAP1 SLOAD SWAP1 PUSH2 0x100 EXP SWAP1 DIV PUSH20 0xFFFFFFFFFFFFFFFFFFFFFFFFFFFFFFFFFFFFFFFF AND PUSH20 0xFFFFFFFFFFFFFFFFFFFFFFFFFFFFFFFFFFFFFFFF AND PUSH20 0xFFFFFFFFFFFFFFFFFFFFFFFFFFFFFFFFFFFFFFFF AND DUP2 MSTORE PUSH1 0x20 ADD SWAP1 DUP2 MSTORE PUSH1 0x20 ADD PUSH1 0x0 KECCAK256 DUP4 DUP2 SLOAD DUP2 LT PUSH2 0x87A JUMPI PUSH2 0x879 PUSH2 0x1505 JUMP JUMPDEST JUMPDEST SWAP1 PUSH1 0x0 MSTORE PUSH1 0x20 PUSH1 0x0 KECCAK256 SWAP1 PUSH1 0x3 MUL ADD PUSH1 0x1 ADD SLOAD DUP5 PUSH2 0x897 SWAP2 SWAP1 PUSH2 0x1661 JUMP JUMPDEST PUSH2 0x8A1 SWAP2 SWAP1 PUSH2 0x1661 JUMP JUMPDEST SWAP1 POP DUP1 CALLVALUE LT ISZERO PUSH2 0x8E6 JUMPI PUSH1 0x40 MLOAD PUSH32 0x8C379A000000000000000000000000000000000000000000000000000000000 DUP2 MSTORE PUSH1 0x4 ADD PUSH2 0x8DD SWAP1 PUSH2 0x16EF JUMP JUMPDEST PUSH1 0x40 MLOAD DUP1 SWAP2 SUB SWAP1 REVERT JUMPDEST PUSH1 0x0 PUSH1 0x40 MLOAD DUP1 PUSH1 0x60 ADD PUSH1 0x40 MSTORE DUP1 DUP6 DUP2 MSTORE PUSH1 0x20 ADD PUSH1 0x2 PUSH1 0x0 DUP1 PUSH1 0x0 SWAP1 SLOAD SWAP1 PUSH2 0x100 EXP SWAP1 DIV PUSH20 0xFFFFFFFFFFFFFFFFFFFFFFFFFFFFFFFFFFFFFFFF AND PUSH20 0xFFFFFFFFFFFFFFFFFFFFFFFFFFFFFFFFFFFFFFFF AND PUSH20 0xFFFFFFFFFFFFFFFFFFFFFFFFFFFFFFFFFFFFFFFF AND DUP2 MSTORE PUSH1 0x20 ADD SWAP1 DUP2 MSTORE PUSH1 0x20 ADD PUSH1 0x0 KECCAK256 DUP6 DUP2 SLOAD DUP2 LT PUSH2 0x96B JUMPI PUSH2 0x96A PUSH2 0x1505 JUMP JUMPDEST JUMPDEST SWAP1 PUSH1 0x0 MSTORE PUSH1 0x20 PUSH1 0x0 KECCAK256 SWAP1 PUSH1 0x3 MUL ADD PUSH1 0x1 ADD SLOAD DUP2 MSTORE PUSH1 0x20 ADD PUSH1 0x2 PUSH1 0x0 DUP1 PUSH1 0x0 SWAP1 SLOAD SWAP1 PUSH2 0x100 EXP SWAP1 DIV PUSH20 0xFFFFFFFFFFFFFFFFFFFFFFFFFFFFFFFFFFFFFFFF AND PUSH20 0xFFFFFFFFFFFFFFFFFFFFFFFFFFFFFFFFFFFFFFFF AND PUSH20 0xFFFFFFFFFFFFFFFFFFFFFFFFFFFFFFFFFFFFFFFF AND DUP2 MSTORE PUSH1 0x20 ADD SWAP1 DUP2 MSTORE PUSH1 0x20 ADD PUSH1 0x0 KECCAK256 DUP6 DUP2 SLOAD DUP2 LT PUSH2 0x9F4 JUMPI PUSH2 0x9F3 PUSH2 0x1505 JUMP JUMPDEST JUMPDEST SWAP1 PUSH1 0x0 MSTORE PUSH1 0x20 PUSH1 0x0 KECCAK256 SWAP1 PUSH1 0x3 MUL ADD PUSH1 0x2 ADD DUP1 SLOAD PUSH2 0xA10 SWAP1 PUSH2 0x1468 JUMP JUMPDEST DUP1 PUSH1 0x1F ADD PUSH1 0x20 DUP1 SWAP2 DIV MUL PUSH1 0x20 ADD PUSH1 0x40 MLOAD SWAP1 DUP2 ADD PUSH1 0x40 MSTORE DUP1 SWAP3 SWAP2 SWAP1 DUP2 DUP2 MSTORE PUSH1 0x20 ADD DUP3 DUP1 SLOAD PUSH2 0xA3C SWAP1 PUSH2 0x1468 JUMP JUMPDEST DUP1 ISZERO PUSH2 0xA89 JUMPI DUP1 PUSH1 0x1F LT PUSH2 0xA5E JUMPI PUSH2 0x100 DUP1 DUP4 SLOAD DIV MUL DUP4 MSTORE SWAP2 PUSH1 0x20 ADD SWAP2 PUSH2 0xA89 JUMP JUMPDEST DUP3 ADD SWAP2 SWAP1 PUSH1 0x0 MSTORE PUSH1 0x20 PUSH1 0x0 KECCAK256 SWAP1 JUMPDEST DUP2 SLOAD DUP2 MSTORE SWAP1 PUSH1 0x1 ADD SWAP1 PUSH1 0x20 ADD DUP1 DUP4 GT PUSH2 0xA6C JUMPI DUP3 SWAP1 SUB PUSH1 0x1F AND DUP3 ADD SWAP2 JUMPDEST POP POP POP POP POP DUP2 MSTORE POP SWAP1 POP DUP4 PUSH1 0x2 PUSH1 0x0 DUP1 PUSH1 0x0 SWAP1 SLOAD SWAP1 PUSH2 0x100 EXP SWAP1 DIV PUSH20 0xFFFFFFFFFFFFFFFFFFFFFFFFFFFFFFFFFFFFFFFF AND PUSH20 0xFFFFFFFFFFFFFFFFFFFFFFFFFFFFFFFFFFFFFFFF AND PUSH20 0xFFFFFFFFFFFFFFFFFFFFFFFFFFFFFFFFFFFFFFFF AND DUP2 MSTORE PUSH1 0x20 ADD SWAP1 DUP2 MSTORE PUSH1 0x20 ADD PUSH1 0x0 KECCAK256 DUP5 DUP2 SLOAD DUP2 LT PUSH2 0xB06 JUMPI PUSH2 0xB05 PUSH2 0x1505 JUMP JUMPDEST JUMPDEST SWAP1 PUSH1 0x0 MSTORE PUSH1 0x20 PUSH1 0x0 KECCAK256 SWAP1 PUSH1 0x3 MUL ADD PUSH1 0x0 ADD PUSH1 0x0 DUP3 DUP3 SLOAD PUSH2 0xB26 SWAP2 SWAP1 PUSH2 0x170F JUMP JUMPDEST SWAP3 POP POP DUP2 SWAP1 SSTORE POP PUSH1 0x2 PUSH1 0x0 CALLER PUSH20 0xFFFFFFFFFFFFFFFFFFFFFFFFFFFFFFFFFFFFFFFF AND PUSH20 0xFFFFFFFFFFFFFFFFFFFFFFFFFFFFFFFFFFFFFFFF AND DUP2 MSTORE PUSH1 0x20 ADD SWAP1 DUP2 MSTORE PUSH1 0x20 ADD PUSH1 0x0 KECCAK256 DUP2 SWAP1 DUP1 PUSH1 0x1 DUP2 SLOAD ADD DUP1 DUP3 SSTORE DUP1 SWAP2 POP POP PUSH1 0x1 SWAP1 SUB SWAP1 PUSH1 0x0 MSTORE PUSH1 0x20 PUSH1 0x0 KECCAK256 SWAP1 PUSH1 0x3 MUL ADD PUSH1 0x0 SWAP1 SWAP2 SWAP1 SWAP2 SWAP1 SWAP2 POP PUSH1 0x0 DUP3 ADD MLOAD DUP2 PUSH1 0x0 ADD SSTORE PUSH1 0x20 DUP3 ADD MLOAD DUP2 PUSH1 0x1 ADD SSTORE PUSH1 0x40 DUP3 ADD MLOAD DUP2 PUSH1 0x2 ADD SWAP1 DUP2 PUSH2 0xBBF SWAP2 SWAP1 PUSH2 0x191E JUMP JUMPDEST POP POP POP DUP2 CALLVALUE GT ISZERO PUSH2 0xC23 JUMPI PUSH1 0x0 DUP3 CALLVALUE PUSH2 0xBD8 SWAP2 SWAP1 PUSH2 0x170F JUMP JUMPDEST SWAP1 POP CALLER PUSH20 0xFFFFFFFFFFFFFFFFFFFFFFFFFFFFFFFFFFFFFFFF AND PUSH2 0x8FC DUP3 SWAP1 DUP2 ISZERO MUL SWAP1 PUSH1 0x40 MLOAD PUSH1 0x0 PUSH1 0x40 MLOAD DUP1 DUP4 SUB DUP2 DUP6 DUP9 DUP9 CALL SWAP4 POP POP POP POP ISZERO DUP1 ISZERO PUSH2 0xC20 JUMPI RETURNDATASIZE PUSH1 0x0 DUP1 RETURNDATACOPY RETURNDATASIZE PUSH1 0x0 REVERT JUMPDEST POP POP JUMPDEST PUSH1 0x0 SELFBALANCE SWAP1 POP PUSH1 0x0 DUP1 SLOAD SWAP1 PUSH2 0x100 EXP SWAP1 DIV PUSH20 0xFFFFFFFFFFFFFFFFFFFFFFFFFFFFFFFFFFFFFFFF AND PUSH20 0xFFFFFFFFFFFFFFFFFFFFFFFFFFFFFFFFFFFFFFFF AND PUSH2 0x8FC DUP3 SWAP1 DUP2 ISZERO MUL SWAP1 PUSH1 0x40 MLOAD PUSH1 0x0 PUSH1 0x40 MLOAD DUP1 DUP4 SUB DUP2 DUP6 DUP9 DUP9 CALL SWAP4 POP POP POP POP ISZERO DUP1 ISZERO PUSH2 0xC8E JUMPI RETURNDATASIZE PUSH1 0x0 DUP1 RETURNDATACOPY RETURNDATASIZE PUSH1 0x0 REVERT JUMPDEST POP POP POP POP POP POP JUMP JUMPDEST PUSH1 0x0 DUP1 SLOAD SWAP1 PUSH2 0x100 EXP SWAP1 DIV PUSH20 0xFFFFFFFFFFFFFFFFFFFFFFFFFFFFFFFFFFFFFFFF AND DUP2 JUMP JUMPDEST PUSH1 0x0 DUP1 SLOAD SWAP1 PUSH2 0x100 EXP SWAP1 DIV PUSH20 0xFFFFFFFFFFFFFFFFFFFFFFFFFFFFFFFFFFFFFFFF AND PUSH20 0xFFFFFFFFFFFFFFFFFFFFFFFFFFFFFFFFFFFFFFFF AND CALLER PUSH20 0xFFFFFFFFFFFFFFFFFFFFFFFFFFFFFFFFFFFFFFFF AND EQ PUSH2 0xD48 JUMPI PUSH1 0x40 MLOAD PUSH32 0x8C379A000000000000000000000000000000000000000000000000000000000 DUP2 MSTORE PUSH1 0x4 ADD PUSH2 0xD3F SWAP1 PUSH2 0x1A62 JUMP JUMPDEST PUSH1 0x40 MLOAD DUP1 SWAP2 SUB SWAP1 REVERT JUMPDEST PUSH1 0x0 PUSH1 0x40 MLOAD DUP1 PUSH1 0x60 ADD PUSH1 0x40 MSTORE DUP1 DUP7 DUP2 MSTORE PUSH1 0x20 ADD DUP6 DUP2 MSTORE PUSH1 0x20 ADD DUP5 DUP5 DUP1 DUP1 PUSH1 0x1F ADD PUSH1 0x20 DUP1 SWAP2 DIV MUL PUSH1 0x20 ADD PUSH1 0x40 MLOAD SWAP1 DUP2 ADD PUSH1 0x40 MSTORE DUP1 SWAP4 SWAP3 SWAP2 SWAP1 DUP2 DUP2 MSTORE PUSH1 0x20 ADD DUP4 DUP4 DUP1 DUP3 DUP5 CALLDATACOPY PUSH1 0x0 DUP2 DUP5 ADD MSTORE PUSH1 0x1F NOT PUSH1 0x1F DUP3 ADD AND SWAP1 POP DUP1 DUP4 ADD SWAP3 POP POP POP POP POP POP POP DUP2 MSTORE POP SWAP1 POP PUSH1 0x2 PUSH1 0x0 DUP1 PUSH1 0x0 SWAP1 SLOAD SWAP1 PUSH2 0x100 EXP SWAP1 DIV PUSH20 0xFFFFFFFFFFFFFFFFFFFFFFFFFFFFFFFFFFFFFFFF AND PUSH20 0xFFFFFFFFFFFFFFFFFFFFFFFFFFFFFFFFFFFFFFFF AND PUSH20 0xFFFFFFFFFFFFFFFFFFFFFFFFFFFFFFFFFFFFFFFF AND DUP2 MSTORE PUSH1 0x20 ADD SWAP1 DUP2 MSTORE PUSH1 0x20 ADD PUSH1 0x0 KECCAK256 DUP2 SWAP1 DUP1 PUSH1 0x1 DUP2 SLOAD ADD DUP1 DUP3 SSTORE DUP1 SWAP2 POP POP PUSH1 0x1 SWAP1 SUB SWAP1 PUSH1 0x0 MSTORE PUSH1 0x20 PUSH1 0x0 KECCAK256 SWAP1 PUSH1 0x3 MUL ADD PUSH1 0x0 SWAP1 SWAP2 SWAP1 SWAP2 SWAP1 SWAP2 POP PUSH1 0x0 DUP3 ADD MLOAD DUP2 PUSH1 0x0 ADD SSTORE PUSH1 0x20 DUP3 ADD MLOAD DUP2 PUSH1 0x1 ADD SSTORE PUSH1 0x40 DUP3 ADD MLOAD DUP2 PUSH1 0x2 ADD SWAP1 DUP2 PUSH2 0xE5E SWAP2 SWAP1 PUSH2 0x191E JUMP JUMPDEST POP POP POP POP POP POP POP POP JUMP JUMPDEST PUSH1 0x1 PUSH1 0x20 MSTORE DUP1 PUSH1 0x0 MSTORE PUSH1 0x40 PUSH1 0x0 KECCAK256 PUSH1 0x0 SWAP2 POP SWAP1 POP DUP1 PUSH1 0x0 ADD SLOAD SWAP1 DUP1 PUSH1 0x1 ADD PUSH1 0x0 SWAP1 SLOAD SWAP1 PUSH2 0x100 EXP SWAP1 DIV PUSH1 0xFF AND SWAP1 POP DUP3 JUMP JUMPDEST PUSH1 0x0 DUP1 REVERT JUMPDEST PUSH1 0x0 DUP1 REVERT JUMPDEST PUSH1 0x0 PUSH20 0xFFFFFFFFFFFFFFFFFFFFFFFFFFFFFFFFFFFFFFFF DUP3 AND SWAP1 POP SWAP2 SWAP1 POP JUMP JUMPDEST PUSH1 0x0 PUSH2 0xECE DUP3 PUSH2 0xEA3 JUMP JUMPDEST SWAP1 POP SWAP2 SWAP1 POP JUMP JUMPDEST PUSH2 0xEDE DUP2 PUSH2 0xEC3 JUMP JUMPDEST DUP2 EQ PUSH2 0xEE9 JUMPI PUSH1 0x0 DUP1 REVERT JUMPDEST POP JUMP JUMPDEST PUSH1 0x0 DUP2 CALLDATALOAD SWAP1 POP PUSH2 0xEFB DUP2 PUSH2 0xED5 JUMP JUMPDEST SWAP3 SWAP2 POP POP JUMP JUMPDEST PUSH1 0x0 DUP2 SWAP1 POP SWAP2 SWAP1 POP JUMP JUMPDEST PUSH2 0xF14 DUP2 PUSH2 0xF01 JUMP JUMPDEST DUP2 EQ PUSH2 0xF1F JUMPI PUSH1 0x0 DUP1 REVERT JUMPDEST POP JUMP JUMPDEST PUSH1 0x0 DUP2 CALLDATALOAD SWAP1 POP PUSH2 0xF31 DUP2 PUSH2 0xF0B JUMP JUMPDEST SWAP3 SWAP2 POP POP JUMP JUMPDEST PUSH1 0x0 DUP1 PUSH1 0x40 DUP4 DUP6 SUB SLT ISZERO PUSH2 0xF4E JUMPI PUSH2 0xF4D PUSH2 0xE99 JUMP JUMPDEST JUMPDEST PUSH1 0x0 PUSH2 0xF5C DUP6 DUP3 DUP7 ADD PUSH2 0xEEC JUMP JUMPDEST SWAP3 POP POP PUSH1 0x20 PUSH2 0xF6D DUP6 DUP3 DUP7 ADD PUSH2 0xF22 JUMP JUMPDEST SWAP2 POP POP SWAP3 POP SWAP3 SWAP1 POP JUMP JUMPDEST PUSH2 0xF80 DUP2 PUSH2 0xF01 JUMP JUMPDEST DUP3 MSTORE POP POP JUMP JUMPDEST PUSH1 0x0 DUP2 MLOAD SWAP1 POP SWAP2 SWAP1 POP JUMP JUMPDEST PUSH1 0x0 DUP3 DUP3 MSTORE PUSH1 0x20 DUP3 ADD SWAP1 POP SWAP3 SWAP2 POP POP JUMP JUMPDEST PUSH1 0x0 JUMPDEST DUP4 DUP2 LT ISZERO PUSH2 0xFC0 JUMPI DUP1 DUP3 ADD MLOAD DUP2 DUP5 ADD MSTORE PUSH1 0x20 DUP2 ADD SWAP1 POP PUSH2 0xFA5 JUMP JUMPDEST PUSH1 0x0 DUP5 DUP5 ADD MSTORE POP POP POP POP JUMP JUMPDEST PUSH1 0x0 PUSH1 0x1F NOT PUSH1 0x1F DUP4 ADD AND SWAP1 POP SWAP2 SWAP1 POP JUMP JUMPDEST PUSH1 0x0 PUSH2 0xFE8 DUP3 PUSH2 0xF86 JUMP JUMPDEST PUSH2 0xFF2 DUP2 DUP6 PUSH2 0xF91 JUMP JUMPDEST SWAP4 POP PUSH2 0x1002 DUP2 DUP6 PUSH1 0x20 DUP7 ADD PUSH2 0xFA2 JUMP JUMPDEST PUSH2 0x100B DUP2 PUSH2 0xFCC JUMP JUMPDEST DUP5 ADD SWAP2 POP POP SWAP3 SWAP2 POP POP JUMP JUMPDEST PUSH1 0x0 PUSH1 0x60 DUP3 ADD SWAP1 POP PUSH2 0x102B PUSH1 0x0 DUP4 ADD DUP7 PUSH2 0xF77 JUMP JUMPDEST PUSH2 0x1038 PUSH1 0x20 DUP4 ADD DUP6 PUSH2 0xF77 JUMP JUMPDEST DUP2 DUP2 SUB PUSH1 0x40 DUP4 ADD MSTORE PUSH2 0x104A DUP2 DUP5 PUSH2 0xFDD JUMP JUMPDEST SWAP1 POP SWAP5 SWAP4 POP POP POP POP JUMP JUMPDEST PUSH1 0x0 DUP2 MLOAD SWAP1 POP SWAP2 SWAP1 POP JUMP JUMPDEST PUSH1 0x0 DUP3 DUP3 MSTORE PUSH1 0x20 DUP3 ADD SWAP1 POP SWAP3 SWAP2 POP POP JUMP JUMPDEST PUSH1 0x0 DUP2 SWAP1 POP PUSH1 0x20 DUP3 ADD SWAP1 POP SWAP2 SWAP1 POP JUMP JUMPDEST PUSH2 0x1089 DUP2 PUSH2 0xF01 JUMP JUMPDEST DUP3 MSTORE POP POP JUMP JUMPDEST PUSH1 0x0 DUP3 DUP3 MSTORE PUSH1 0x20 DUP3 ADD SWAP1 POP SWAP3 SWAP2 POP POP JUMP JUMPDEST PUSH1 0x0 PUSH2 0x10AB DUP3 PUSH2 0xF86 JUMP JUMPDEST PUSH2 0x10B5 DUP2 DUP6 PUSH2 0x108F JUMP JUMPDEST SWAP4 POP PUSH2 0x10C5 DUP2 DUP6 PUSH1 0x20 DUP7 ADD PUSH2 0xFA2 JUMP JUMPDEST PUSH2 0x10CE DUP2 PUSH2 0xFCC JUMP JUMPDEST DUP5 ADD SWAP2 POP POP SWAP3 SWAP2 POP POP JUMP JUMPDEST PUSH1 0x0 PUSH1 0x60 DUP4 ADD PUSH1 0x0 DUP4 ADD MLOAD PUSH2 0x10F1 PUSH1 0x0 DUP7 ADD DUP3 PUSH2 0x1080 JUMP JUMPDEST POP PUSH1 0x20 DUP4 ADD MLOAD PUSH2 0x1104 PUSH1 0x20 DUP7 ADD DUP3 PUSH2 0x1080 JUMP JUMPDEST POP PUSH1 0x40 DUP4 ADD MLOAD DUP5 DUP3 SUB PUSH1 0x40 DUP7 ADD MSTORE PUSH2 0x111C DUP3 DUP3 PUSH2 0x10A0 JUMP JUMPDEST SWAP2 POP POP DUP1 SWAP2 POP POP SWAP3 SWAP2 POP POP JUMP JUMPDEST PUSH1 0x0 PUSH2 0x1135 DUP4 DUP4 PUSH2 0x10D9 JUMP JUMPDEST SWAP1 POP SWAP3 SWAP2 POP POP JUMP JUMPDEST PUSH1 0x0 PUSH1 0x20 DUP3 ADD SWAP1 POP SWAP2 SWAP1 POP JUMP JUMPDEST PUSH1 0x0 PUSH2 0x1155 DUP3 PUSH2 0x1054 JUMP JUMPDEST PUSH2 0x115F DUP2 DUP6 PUSH2 0x105F JUMP JUMPDEST SWAP4 POP DUP4 PUSH1 0x20 DUP3 MUL DUP6 ADD PUSH2 0x1171 DUP6 PUSH2 0x1070 JUMP JUMPDEST DUP1 PUSH1 0x0 JUMPDEST DUP6 DUP2 LT ISZERO PUSH2 0x11AD JUMPI DUP5 DUP5 SUB DUP10 MSTORE DUP2 MLOAD PUSH2 0x118E DUP6 DUP3 PUSH2 0x1129 JUMP JUMPDEST SWAP5 POP PUSH2 0x1199 DUP4 PUSH2 0x113D JUMP JUMPDEST SWAP3 POP PUSH1 0x20 DUP11 ADD SWAP10 POP POP PUSH1 0x1 DUP2 ADD SWAP1 POP PUSH2 0x1175 JUMP JUMPDEST POP DUP3 SWAP8 POP DUP8 SWAP6 POP POP POP POP POP POP SWAP3 SWAP2 POP POP JUMP JUMPDEST PUSH1 0x0 PUSH1 0x20 DUP3 ADD SWAP1 POP DUP2 DUP2 SUB PUSH1 0x0 DUP4 ADD MSTORE PUSH2 0x11D9 DUP2 DUP5 PUSH2 0x114A JUMP JUMPDEST SWAP1 POP SWAP3 SWAP2 POP POP JUMP JUMPDEST PUSH1 0x0 PUSH1 0x20 DUP3 DUP5 SUB SLT ISZERO PUSH2 0x11F7 JUMPI PUSH2 0x11F6 PUSH2 0xE99 JUMP JUMPDEST JUMPDEST PUSH1 0x0 PUSH2 0x1205 DUP5 DUP3 DUP6 ADD PUSH2 0xF22 JUMP JUMPDEST SWAP2 POP POP SWAP3 SWAP2 POP POP JUMP JUMPDEST PUSH1 0x0 PUSH1 0x20 DUP3 ADD SWAP1 POP PUSH2 0x1223 PUSH1 0x0 DUP4 ADD DUP5 PUSH2 0xF77 JUMP JUMPDEST SWAP3 SWAP2 POP POP JUMP JUMPDEST PUSH1 0x0 DUP1 PUSH1 0x40 DUP4 DUP6 SUB SLT ISZERO PUSH2 0x1240 JUMPI PUSH2 0x123F PUSH2 0xE99 JUMP JUMPDEST JUMPDEST PUSH1 0x0 PUSH2 0x124E DUP6 DUP3 DUP7 ADD PUSH2 0xF22 JUMP JUMPDEST SWAP3 POP POP PUSH1 0x20 PUSH2 0x125F DUP6 DUP3 DUP7 ADD PUSH2 0xF22 JUMP JUMPDEST SWAP2 POP POP SWAP3 POP SWAP3 SWAP1 POP JUMP JUMPDEST PUSH2 0x1272 DUP2 PUSH2 0xEC3 JUMP JUMPDEST DUP3 MSTORE POP POP JUMP JUMPDEST PUSH1 0x0 PUSH1 0x20 DUP3 ADD SWAP1 POP PUSH2 0x128D PUSH1 0x0 DUP4 ADD DUP5 PUSH2 0x1269 JUMP JUMPDEST SWAP3 SWAP2 POP POP JUMP JUMPDEST PUSH1 0x0 DUP1 REVERT JUMPDEST PUSH1 0x0 DUP1 REVERT JUMPDEST PUSH1 0x0 DUP1 REVERT JUMPDEST PUSH1 0x0 DUP1 DUP4 PUSH1 0x1F DUP5 ADD SLT PUSH2 0x12B8 JUMPI PUSH2 0x12B7 PUSH2 0x1293 JUMP JUMPDEST JUMPDEST DUP3 CALLDATALOAD SWAP1 POP PUSH8 0xFFFFFFFFFFFFFFFF DUP2 GT ISZERO PUSH2 0x12D5 JUMPI PUSH2 0x12D4 PUSH2 0x1298 JUMP JUMPDEST JUMPDEST PUSH1 0x20 DUP4 ADD SWAP2 POP DUP4 PUSH1 0x1 DUP3 MUL DUP4 ADD GT ISZERO PUSH2 0x12F1 JUMPI PUSH2 0x12F0 PUSH2 0x129D JUMP JUMPDEST JUMPDEST SWAP3 POP SWAP3 SWAP1 POP JUMP JUMPDEST PUSH1 0x0 DUP1 PUSH1 0x0 DUP1 PUSH1 0x60 DUP6 DUP8 SUB SLT ISZERO PUSH2 0x1312 JUMPI PUSH2 0x1311 PUSH2 0xE99 JUMP JUMPDEST JUMPDEST PUSH1 0x0 PUSH2 0x1320 DUP8 DUP3 DUP9 ADD PUSH2 0xF22 JUMP JUMPDEST SWAP5 POP POP PUSH1 0x20 PUSH2 0x1331 DUP8 DUP3 DUP9 ADD PUSH2 0xF22 JUMP JUMPDEST SWAP4 POP POP PUSH1 0x40 DUP6 ADD CALLDATALOAD PUSH8 0xFFFFFFFFFFFFFFFF DUP2 GT ISZERO PUSH2 0x1352 JUMPI PUSH2 0x1351 PUSH2 0xE9E JUMP JUMPDEST JUMPDEST PUSH2 0x135E DUP8 DUP3 DUP9 ADD PUSH2 0x12A2 JUMP JUMPDEST SWAP3 POP SWAP3 POP POP SWAP3 SWAP6 SWAP2 SWAP5 POP SWAP3 POP JUMP JUMPDEST PUSH1 0x0 PUSH1 0x20 DUP3 DUP5 SUB SLT ISZERO PUSH2 0x1382 JUMPI PUSH2 0x1381 PUSH2 0xE99 JUMP JUMPDEST JUMPDEST PUSH1 0x0 PUSH2 0x1390 DUP5 DUP3 DUP6 ADD PUSH2 0xEEC JUMP JUMPDEST SWAP2 POP POP SWAP3 SWAP2 POP POP JUMP JUMPDEST PUSH32 0x4E487B7100000000000000000000000000000000000000000000000000000000 PUSH1 0x0 MSTORE PUSH1 0x21 PUSH1 0x4 MSTORE PUSH1 0x24 PUSH1 0x0 REVERT JUMPDEST PUSH1 0x2 DUP2 LT PUSH2 0x13D9 JUMPI PUSH2 0x13D8 PUSH2 0x1399 JUMP JUMPDEST JUMPDEST POP JUMP JUMPDEST PUSH1 0x0 DUP2 SWAP1 POP PUSH2 0x13EA DUP3 PUSH2 0x13C8 JUMP JUMPDEST SWAP2 SWAP1 POP JUMP JUMPDEST PUSH1 0x0 PUSH2 0x13FA DUP3 PUSH2 0x13DC JUMP JUMPDEST SWAP1 POP SWAP2 SWAP1 POP JUMP JUMPDEST PUSH2 0x140A DUP2 PUSH2 0x13EF JUMP JUMPDEST DUP3 MSTORE POP POP JUMP JUMPDEST PUSH1 0x0 PUSH1 0x40 DUP3 ADD SWAP1 POP PUSH2 0x1425 PUSH1 0x0 DUP4 ADD DUP6 PUSH2 0xF77 JUMP JUMPDEST PUSH2 0x1432 PUSH1 0x20 DUP4 ADD DUP5 PUSH2 0x1401 JUMP JUMPDEST SWAP4 SWAP3 POP POP POP JUMP JUMPDEST PUSH32 0x4E487B7100000000000000000000000000000000000000000000000000000000 PUSH1 0x0 MSTORE PUSH1 0x22 PUSH1 0x4 MSTORE PUSH1 0x24 PUSH1 0x0 REVERT JUMPDEST PUSH1 0x0 PUSH1 0x2 DUP3 DIV SWAP1 POP PUSH1 0x1 DUP3 AND DUP1 PUSH2 0x1480 JUMPI PUSH1 0x7F DUP3 AND SWAP2 POP JUMPDEST PUSH1 0x20 DUP3 LT DUP2 SUB PUSH2 0x1493 JUMPI PUSH2 0x1492 PUSH2 0x1439 JUMP JUMPDEST JUMPDEST POP SWAP2 SWAP1 POP JUMP JUMPDEST PUSH32 0x496E76616C69642070726F647563742049440000000000000000000000000000 PUSH1 0x0 DUP3 ADD MSTORE POP JUMP JUMPDEST PUSH1 0x0 PUSH2 0x14CF PUSH1 0x12 DUP4 PUSH2 0xF91 JUMP JUMPDEST SWAP2 POP PUSH2 0x14DA DUP3 PUSH2 0x1499 JUMP JUMPDEST PUSH1 0x20 DUP3 ADD SWAP1 POP SWAP2 SWAP1 POP JUMP JUMPDEST PUSH1 0x0 PUSH1 0x20 DUP3 ADD SWAP1 POP DUP2 DUP2 SUB PUSH1 0x0 DUP4 ADD MSTORE PUSH2 0x14FE DUP2 PUSH2 0x14C2 JUMP JUMPDEST SWAP1 POP SWAP2 SWAP1 POP JUMP JUMPDEST PUSH32 0x4E487B7100000000000000000000000000000000000000000000000000000000 PUSH1 0x0 MSTORE PUSH1 0x32 PUSH1 0x4 MSTORE PUSH1 0x24 PUSH1 0x0 REVERT JUMPDEST PUSH32 0x507572636861736520616D6F756E74206D757374206265206772656174657220 PUSH1 0x0 DUP3 ADD MSTORE PUSH32 0x7468616E20300000000000000000000000000000000000000000000000000000 PUSH1 0x20 DUP3 ADD MSTORE POP JUMP JUMPDEST PUSH1 0x0 PUSH2 0x1590 PUSH1 0x26 DUP4 PUSH2 0xF91 JUMP JUMPDEST SWAP2 POP PUSH2 0x159B DUP3 PUSH2 0x1534 JUMP JUMPDEST PUSH1 0x40 DUP3 ADD SWAP1 POP SWAP2 SWAP1 POP JUMP JUMPDEST PUSH1 0x0 PUSH1 0x20 DUP3 ADD SWAP1 POP DUP2 DUP2 SUB PUSH1 0x0 DUP4 ADD MSTORE PUSH2 0x15BF DUP2 PUSH2 0x1583 JUMP JUMPDEST SWAP1 POP SWAP2 SWAP1 POP JUMP JUMPDEST PUSH32 0x4E6F7420656E6F7567682073746F636B20617661696C61626C65000000000000 PUSH1 0x0 DUP3 ADD MSTORE POP JUMP JUMPDEST PUSH1 0x0 PUSH2 0x15FC PUSH1 0x1A DUP4 PUSH2 0xF91 JUMP JUMPDEST SWAP2 POP PUSH2 0x1607 DUP3 PUSH2 0x15C6 JUMP JUMPDEST PUSH1 0x20 DUP3 ADD SWAP1 POP SWAP2 SWAP1 POP JUMP JUMPDEST PUSH1 0x0 PUSH1 0x20 DUP3 ADD SWAP1 POP DUP2 DUP2 SUB PUSH1 0x0 DUP4 ADD MSTORE PUSH2 0x162B DUP2 PUSH2 0x15EF JUMP JUMPDEST SWAP1 POP SWAP2 SWAP1 POP JUMP JUMPDEST PUSH32 0x4E487B7100000000000000000000000000000000000000000000000000000000 PUSH1 0x0 MSTORE PUSH1 0x11 PUSH1 0x4 MSTORE PUSH1 0x24 PUSH1 0x0 REVERT JUMPDEST PUSH1 0x0 PUSH2 0x166C DUP3 PUSH2 0xF01 JUMP JUMPDEST SWAP2 POP PUSH2 0x1677 DUP4 PUSH2 0xF01 JUMP JUMPDEST SWAP3 POP DUP3 DUP3 MUL PUSH2 0x1685 DUP2 PUSH2 0xF01 JUMP JUMPDEST SWAP2 POP DUP3 DUP3 DIV DUP5 EQ DUP4 ISZERO OR PUSH2 0x169C JUMPI PUSH2 0x169B PUSH2 0x1632 JUMP JUMPDEST JUMPDEST POP SWAP3 SWAP2 POP POP JUMP JUMPDEST PUSH32 0x496E73756666696369656E742066756E64732073656E74000000000000000000 PUSH1 0x0 DUP3 ADD MSTORE POP JUMP JUMPDEST PUSH1 0x0 PUSH2 0x16D9 PUSH1 0x17 DUP4 PUSH2 0xF91 JUMP JUMPDEST SWAP2 POP PUSH2 0x16E4 DUP3 PUSH2 0x16A3 JUMP JUMPDEST PUSH1 0x20 DUP3 ADD SWAP1 POP SWAP2 SWAP1 POP JUMP JUMPDEST PUSH1 0x0 PUSH1 0x20 DUP3 ADD SWAP1 POP DUP2 DUP2 SUB PUSH1 0x0 DUP4 ADD MSTORE PUSH2 0x1708 DUP2 PUSH2 0x16CC JUMP JUMPDEST SWAP1 POP SWAP2 SWAP1 POP JUMP JUMPDEST PUSH1 0x0 PUSH2 0x171A DUP3 PUSH2 0xF01 JUMP JUMPDEST SWAP2 POP PUSH2 0x1725 DUP4 PUSH2 0xF01 JUMP JUMPDEST SWAP3 POP DUP3 DUP3 SUB SWAP1 POP DUP2 DUP2 GT ISZERO PUSH2 0x173D JUMPI PUSH2 0x173C PUSH2 0x1632 JUMP JUMPDEST JUMPDEST SWAP3 SWAP2 POP POP JUMP JUMPDEST PUSH32 0x4E487B7100000000000000000000000000000000000000000000000000000000 PUSH1 0x0 MSTORE PUSH1 0x41 PUSH1 0x4 MSTORE PUSH1 0x24 PUSH1 0x0 REVERT JUMPDEST PUSH1 0x0 DUP2 SWAP1 POP DUP2 PUSH1 0x0 MSTORE PUSH1 0x20 PUSH1 0x0 KECCAK256 SWAP1 POP SWAP2 SWAP1 POP JUMP JUMPDEST PUSH1 0x0 PUSH1 0x20 PUSH1 0x1F DUP4 ADD DIV SWAP1 POP SWAP2 SWAP1 POP JUMP JUMPDEST PUSH1 0x0 DUP3 DUP3 SHL SWAP1 POP SWAP3 SWAP2 POP POP JUMP JUMPDEST PUSH1 0x0 PUSH1 0x8 DUP4 MUL PUSH2 0x17D4 PUSH32 0xFFFFFFFFFFFFFFFFFFFFFFFFFFFFFFFFFFFFFFFFFFFFFFFFFFFFFFFFFFFFFFFF DUP3 PUSH2 0x1797 JUMP JUMPDEST PUSH2 0x17DE DUP7 DUP4 PUSH2 0x1797 JUMP JUMPDEST SWAP6 POP DUP1 NOT DUP5 AND SWAP4 POP DUP1 DUP7 AND DUP5 OR SWAP3 POP POP POP SWAP4 SWAP3 POP POP POP JUMP JUMPDEST PUSH1 0x0 DUP2 SWAP1 POP SWAP2 SWAP1 POP JUMP JUMPDEST PUSH1 0x0 PUSH2 0x181B PUSH2 0x1816 PUSH2 0x1811 DUP5 PUSH2 0xF01 JUMP JUMPDEST PUSH2 0x17F6 JUMP JUMPDEST PUSH2 0xF01 JUMP JUMPDEST SWAP1 POP SWAP2 SWAP1 POP JUMP JUMPDEST PUSH1 0x0 DUP2 SWAP1 POP SWAP2 SWAP1 POP JUMP JUMPDEST PUSH2 0x1835 DUP4 PUSH2 0x1800 JUMP JUMPDEST PUSH2 0x1849 PUSH2 0x1841 DUP3 PUSH2 0x1822 JUMP JUMPDEST DUP5 DUP5 SLOAD PUSH2 0x17A4 JUMP JUMPDEST DUP3 SSTORE POP POP POP POP JUMP JUMPDEST PUSH1 0x0 SWAP1 JUMP JUMPDEST PUSH2 0x185E PUSH2 0x1851 JUMP JUMPDEST PUSH2 0x1869 DUP2 DUP5 DUP5 PUSH2 0x182C JUMP JUMPDEST POP POP POP JUMP JUMPDEST JUMPDEST DUP2 DUP2 LT ISZERO PUSH2 0x188D JUMPI PUSH2 0x1882 PUSH1 0x0 DUP3 PUSH2 0x1856 JUMP JUMPDEST PUSH1 0x1 DUP2 ADD SWAP1 POP PUSH2 0x186F JUMP JUMPDEST POP POP JUMP JUMPDEST PUSH1 0x1F DUP3 GT ISZERO PUSH2 0x18D2 JUMPI PUSH2 0x18A3 DUP2 PUSH2 0x1772 JUMP JUMPDEST PUSH2 0x18AC DUP5 PUSH2 0x1787 JUMP JUMPDEST DUP2 ADD PUSH1 0x20 DUP6 LT ISZERO PUSH2 0x18BB JUMPI DUP2 SWAP1 POP JUMPDEST PUSH2 0x18CF PUSH2 0x18C7 DUP6 PUSH2 0x1787 JUMP JUMPDEST DUP4 ADD DUP3 PUSH2 0x186E JUMP JUMPDEST POP POP JUMPDEST POP POP POP JUMP JUMPDEST PUSH1 0x0 DUP3 DUP3 SHR SWAP1 POP SWAP3 SWAP2 POP POP JUMP JUMPDEST PUSH1 0x0 PUSH2 0x18F5 PUSH1 0x0 NOT DUP5 PUSH1 0x8 MUL PUSH2 0x18D7 JUMP JUMPDEST NOT DUP1 DUP4 AND SWAP2 POP POP SWAP3 SWAP2 POP POP JUMP JUMPDEST PUSH1 0x0 PUSH2 0x190E DUP4 DUP4 PUSH2 0x18E4 JUMP JUMPDEST SWAP2 POP DUP3 PUSH1 0x2 MUL DUP3 OR SWAP1 POP SWAP3 SWAP2 POP POP JUMP JUMPDEST PUSH2 0x1927 DUP3 PUSH2 0xF86 JUMP JUMPDEST PUSH8 0xFFFFFFFFFFFFFFFF DUP2 GT ISZERO PUSH2 0x1940 JUMPI PUSH2 0x193F PUSH2 0x1743 JUMP JUMPDEST JUMPDEST PUSH2 0x194A DUP3 SLOAD PUSH2 0x1468 JUMP JUMPDEST PUSH2 0x1955 DUP3 DUP3 DUP6 PUSH2 0x1891 JUMP JUMPDEST PUSH1 0x0 PUSH1 0x20 SWAP1 POP PUSH1 0x1F DUP4 GT PUSH1 0x1 DUP2 EQ PUSH2 0x1988 JUMPI PUSH1 0x0 DUP5 ISZERO PUSH2 0x1976 JUMPI DUP3 DUP8 ADD MLOAD SWAP1 POP JUMPDEST PUSH2 0x1980 DUP6 DUP3 PUSH2 0x1902 JUMP JUMPDEST DUP7 SSTORE POP PUSH2 0x19E8 JUMP JUMPDEST PUSH1 0x1F NOT DUP5 AND PUSH2 0x1996 DUP7 PUSH2 0x1772 JUMP JUMPDEST PUSH1 0x0 JUMPDEST DUP3 DUP2 LT ISZERO PUSH2 0x19BE JUMPI DUP5 DUP10 ADD MLOAD DUP3 SSTORE PUSH1 0x1 DUP3 ADD SWAP2 POP PUSH1 0x20 DUP6 ADD SWAP5 POP PUSH1 0x20 DUP2 ADD SWAP1 POP PUSH2 0x1999 JUMP JUMPDEST DUP7 DUP4 LT ISZERO PUSH2 0x19DB JUMPI DUP5 DUP10 ADD MLOAD PUSH2 0x19D7 PUSH1 0x1F DUP10 AND DUP3 PUSH2 0x18E4 JUMP JUMPDEST DUP4 SSTORE POP JUMPDEST PUSH1 0x1 PUSH1 0x2 DUP9 MUL ADD DUP9 SSTORE POP POP POP JUMPDEST POP POP POP POP POP POP JUMP JUMPDEST PUSH32 0x4F6E6C7920746865206F776E65722063616E20706572666F726D207468697320 PUSH1 0x0 DUP3 ADD MSTORE PUSH32 0x616374696F6E0000000000000000000000000000000000000000000000000000 PUSH1 0x20 DUP3 ADD MSTORE POP JUMP JUMPDEST PUSH1 0x0 PUSH2 0x1A4C PUSH1 0x26 DUP4 PUSH2 0xF91 JUMP JUMPDEST SWAP2 POP PUSH2 0x1A57 DUP3 PUSH2 0x19F0 JUMP JUMPDEST PUSH1 0x40 DUP3 ADD SWAP1 POP SWAP2 SWAP1 POP JUMP JUMPDEST PUSH1 0x0 PUSH1 0x20 DUP3 ADD SWAP1 POP DUP2 DUP2 SUB PUSH1 0x0 DUP4 ADD MSTORE PUSH2 0x1A7B DUP2 PUSH2 0x1A3F JUMP JUMPDEST SWAP1 POP SWAP2 SWAP1 POP JUMP INVALID LOG2 PUSH5 0x6970667358 0x22 SLT KECCAK256 0xD9 PUSH25 0xC566F5FFF87C05E3343CCDAC347F13E9BFB3E390B0B1F077D7 SHL LOG3 PUSH9 0xC19E64736F6C634300 ADDMOD SLT STOP CALLER "
				},
				"gasEstimates": {
					"creation": {
						"codeDepositCost": "1368000",
						"executionCost": "57337",
						"totalCost": "1425337"
					},
					"external": {
						"addItems(uint256,uint256,string)": "infinite",
						"owner()": "2533",
						"purchase(uint256,uint256)": "infinite",
						"showInStock(uint256)": "infinite",
						"showItems()": "infinite",
						"userProducts(address,uint256)": "infinite",
						"users(address)": "5237"
					}
				},
				"methodIdentifiers": {
					"addItems(uint256,uint256,string)": "a211f1ed",
					"owner()": "8da5cb5b",
					"purchase(uint256,uint256)": "70876c98",
					"showInStock(uint256)": "687527c6",
					"showItems()": "3dd26a93",
					"userProducts(address,uint256)": "3d527883",
					"users(address)": "a87430ba"
				}
			},
			"storageLayout": {
				"storage": [
					{
						"astId": 3,
						"contract": "contracts/MarketPlace.sol:MarketPlace",
						"label": "owner",
						"offset": 0,
						"slot": "0",
						"type": "t_address"
					},
					{
						"astId": 24,
						"contract": "contracts/MarketPlace.sol:MarketPlace",
						"label": "users",
						"offset": 0,
						"slot": "1",
						"type": "t_mapping(t_address,t_struct(User)12_storage)"
					},
					{
						"astId": 30,
						"contract": "contracts/MarketPlace.sol:MarketPlace",
						"label": "userProducts",
						"offset": 0,
						"slot": "2",
						"type": "t_mapping(t_address,t_array(t_struct(Product)19_storage)dyn_storage)"
					}
				],
				"types": {
					"t_address": {
						"encoding": "inplace",
						"label": "address",
						"numberOfBytes": "20"
					},
					"t_array(t_struct(Product)19_storage)dyn_storage": {
						"base": "t_struct(Product)19_storage",
						"encoding": "dynamic_array",
						"label": "struct MarketPlace.Product[]",
						"numberOfBytes": "32"
					},
					"t_enum(Role)6": {
						"encoding": "inplace",
						"label": "enum MarketPlace.Role",
						"numberOfBytes": "1"
					},
					"t_mapping(t_address,t_array(t_struct(Product)19_storage)dyn_storage)": {
						"encoding": "mapping",
						"key": "t_address",
						"label": "mapping(address => struct MarketPlace.Product[])",
						"numberOfBytes": "32",
						"value": "t_array(t_struct(Product)19_storage)dyn_storage"
					},
					"t_mapping(t_address,t_struct(User)12_storage)": {
						"encoding": "mapping",
						"key": "t_address",
						"label": "mapping(address => struct MarketPlace.User)",
						"numberOfBytes": "32",
						"value": "t_struct(User)12_storage"
					},
					"t_string_storage": {
						"encoding": "bytes",
						"label": "string",
						"numberOfBytes": "32"
					},
					"t_struct(Product)19_storage": {
						"encoding": "inplace",
						"label": "struct MarketPlace.Product",
						"members": [
							{
								"astId": 14,
								"contract": "contracts/MarketPlace.sol:MarketPlace",
								"label": "inStock",
								"offset": 0,
								"slot": "0",
								"type": "t_uint256"
							},
							{
								"astId": 16,
								"contract": "contracts/MarketPlace.sol:MarketPlace",
								"label": "price",
								"offset": 0,
								"slot": "1",
								"type": "t_uint256"
							},
							{
								"astId": 18,
								"contract": "contracts/MarketPlace.sol:MarketPlace",
								"label": "name",
								"offset": 0,
								"slot": "2",
								"type": "t_string_storage"
							}
						],
						"numberOfBytes": "96"
					},
					"t_struct(User)12_storage": {
						"encoding": "inplace",
						"label": "struct MarketPlace.User",
						"members": [
							{
								"astId": 8,
								"contract": "contracts/MarketPlace.sol:MarketPlace",
								"label": "purchased",
								"offset": 0,
								"slot": "0",
								"type": "t_uint256"
							},
							{
								"astId": 11,
								"contract": "contracts/MarketPlace.sol:MarketPlace",
								"label": "role",
								"offset": 0,
								"slot": "1",
								"type": "t_enum(Role)6"
							}
						],
						"numberOfBytes": "64"
					},
					"t_uint256": {
						"encoding": "inplace",
						"label": "uint256",
						"numberOfBytes": "32"
					}
				}
			},
			"userdoc": {
				"kind": "user",
				"methods": {},
				"version": 1
			}
		}
	}
}