{
	"contracts/MarketPlace.sol": {
		"MarketPlace": {
			"abi": [
				{
					"inputs": [],
					"stateMutability": "nonpayable",
					"type": "constructor"
				},
				{
					"inputs": [
						{
							"internalType": "address",
							"name": "_shop",
							"type": "address"
						},
						{
							"internalType": "uint256",
							"name": "_inStock",
							"type": "uint256"
						},
						{
							"internalType": "uint256",
							"name": "_price",
							"type": "uint256"
						},
						{
							"internalType": "string",
							"name": "_name",
							"type": "string"
						},
						{
							"internalType": "uint256",
							"name": "_expDate",
							"type": "uint256"
						}
					],
					"name": "addItems",
					"outputs": [],
					"stateMutability": "nonpayable",
					"type": "function"
				},
				{
					"inputs": [
						{
							"internalType": "uint256",
							"name": "_inStock",
							"type": "uint256"
						},
						{
							"internalType": "uint256",
							"name": "_price",
							"type": "uint256"
						},
						{
							"internalType": "string",
							"name": "_name",
							"type": "string"
						},
						{
							"internalType": "uint256",
							"name": "_expDate",
							"type": "uint256"
						},
						{
							"internalType": "address",
							"name": "_addressSupp",
							"type": "address"
						}
					],
					"name": "addItemsSupplier",
					"outputs": [],
					"stateMutability": "nonpayable",
					"type": "function"
				},
				{
					"inputs": [
						{
							"internalType": "uint256",
							"name": "_idTicket",
							"type": "uint256"
						}
					],
					"name": "approveChangeRole",
					"outputs": [],
					"stateMutability": "nonpayable",
					"type": "function"
				},
				{
					"inputs": [
						{
							"internalType": "enum MarketPlace.Role",
							"name": "_role",
							"type": "uint8"
						}
					],
					"name": "changeRole",
					"outputs": [],
					"stateMutability": "nonpayable",
					"type": "function"
				},
				{
					"inputs": [
						{
							"internalType": "string",
							"name": "_nameRef",
							"type": "string"
						},
						{
							"internalType": "address",
							"name": "_user",
							"type": "address"
						}
					],
					"name": "genRef",
					"outputs": [],
					"stateMutability": "nonpayable",
					"type": "function"
				},
				{
					"inputs": [],
					"name": "makeMarket",
					"outputs": [],
					"stateMutability": "nonpayable",
					"type": "function"
				},
				{
					"inputs": [],
					"name": "makeSupplier",
					"outputs": [],
					"stateMutability": "nonpayable",
					"type": "function"
				},
				{
					"inputs": [],
					"name": "makeUser",
					"outputs": [],
					"stateMutability": "nonpayable",
					"type": "function"
				},
				{
					"inputs": [],
					"name": "owner",
					"outputs": [
						{
							"internalType": "address",
							"name": "",
							"type": "address"
						}
					],
					"stateMutability": "view",
					"type": "function"
				},
				{
					"inputs": [
						{
							"internalType": "address",
							"name": "_shop",
							"type": "address"
						},
						{
							"internalType": "uint256",
							"name": "_amount",
							"type": "uint256"
						},
						{
							"internalType": "uint256",
							"name": "_id",
							"type": "uint256"
						},
						{
							"internalType": "string",
							"name": "_ref",
							"type": "string"
						}
					],
					"name": "purchase",
					"outputs": [],
					"stateMutability": "payable",
					"type": "function"
				},
				{
					"inputs": [
						{
							"internalType": "uint256",
							"name": "_modulus",
							"type": "uint256"
						}
					],
					"name": "randMod",
					"outputs": [
						{
							"internalType": "uint256",
							"name": "",
							"type": "uint256"
						}
					],
					"stateMutability": "view",
					"type": "function"
				},
				{
					"inputs": [
						{
							"internalType": "string",
							"name": "",
							"type": "string"
						}
					],
					"name": "referrals",
					"outputs": [
						{
							"internalType": "address",
							"name": "",
							"type": "address"
						}
					],
					"stateMutability": "view",
					"type": "function"
				},
				{
					"inputs": [
						{
							"internalType": "address",
							"name": "_shop",
							"type": "address"
						},
						{
							"internalType": "uint256",
							"name": "_productId",
							"type": "uint256"
						},
						{
							"internalType": "uint256",
							"name": "_amount",
							"type": "uint256"
						},
						{
							"internalType": "address",
							"name": "_supplier",
							"type": "address"
						}
					],
					"name": "refillStore",
					"outputs": [],
					"stateMutability": "payable",
					"type": "function"
				},
				{
					"inputs": [
						{
							"internalType": "address",
							"name": "_shop",
							"type": "address"
						},
						{
							"internalType": "uint256",
							"name": "_productId",
							"type": "uint256"
						}
					],
					"name": "refund",
					"outputs": [],
					"stateMutability": "nonpayable",
					"type": "function"
				},
				{
					"inputs": [
						{
							"internalType": "uint256",
							"name": "",
							"type": "uint256"
						}
					],
					"name": "tickets",
					"outputs": [
						{
							"internalType": "address",
							"name": "userAddr",
							"type": "address"
						},
						{
							"internalType": "enum MarketPlace.Role",
							"name": "role",
							"type": "uint8"
						}
					],
					"stateMutability": "view",
					"type": "function"
				},
				{
					"inputs": [
						{
							"internalType": "address",
							"name": "",
							"type": "address"
						},
						{
							"internalType": "uint256",
							"name": "",
							"type": "uint256"
						}
					],
					"name": "userProducts",
					"outputs": [
						{
							"internalType": "uint256",
							"name": "inStock",
							"type": "uint256"
						},
						{
							"internalType": "uint256",
							"name": "price",
							"type": "uint256"
						},
						{
							"internalType": "string",
							"name": "name",
							"type": "string"
						},
						{
							"internalType": "uint256",
							"name": "expDate",
							"type": "uint256"
						}
					],
					"stateMutability": "view",
					"type": "function"
				},
				{
					"inputs": [
						{
							"internalType": "address",
							"name": "",
							"type": "address"
						}
					],
					"name": "users",
					"outputs": [
						{
							"internalType": "enum MarketPlace.Role",
							"name": "role",
							"type": "uint8"
						},
						{
							"internalType": "uint256",
							"name": "balance",
							"type": "uint256"
						}
					],
					"stateMutability": "view",
					"type": "function"
				},
				{
					"inputs": [
						{
							"internalType": "address",
							"name": "_shop",
							"type": "address"
						}
					],
					"name": "withdrawBal",
					"outputs": [],
					"stateMutability": "nonpayable",
					"type": "function"
				}
			],
			"devdoc": {
				"kind": "dev",
				"methods": {},
				"version": 1
			},
			"evm": {
				"assembly": "    /* \"contracts/MarketPlace.sol\":202:7546  contract MarketPlace {... */\n  mstore(0x40, 0x80)\n    /* \"contracts/MarketPlace.sol\":326:374  constructor(){... */\n  callvalue\n  dup1\n  iszero\n  tag_1\n  jumpi\n  0x00\n  dup1\n  revert\ntag_1:\n  pop\n    /* \"contracts/MarketPlace.sol\":357:367  msg.sender */\n  caller\n    /* \"contracts/MarketPlace.sol\":349:354  owner */\n  0x01\n  0x00\n    /* \"contracts/MarketPlace.sol\":349:367  owner = msg.sender */\n  0x0100\n  exp\n  dup2\n  sload\n  dup2\n  0xffffffffffffffffffffffffffffffffffffffff\n  mul\n  not\n  and\n  swap1\n  dup4\n  0xffffffffffffffffffffffffffffffffffffffff\n  and\n  mul\n  or\n  swap1\n  sstore\n  pop\n    /* \"contracts/MarketPlace.sol\":202:7546  contract MarketPlace {... */\n  dataSize(sub_0)\n  dup1\n  dataOffset(sub_0)\n  0x00\n  codecopy\n  0x00\n  return\nstop\n\nsub_0: assembly {\n        /* \"contracts/MarketPlace.sol\":202:7546  contract MarketPlace {... */\n      mstore(0x40, 0x80)\n      jumpi(tag_1, lt(calldatasize, 0x04))\n      shr(0xe0, calldataload(0x00))\n      dup1\n      0x861c2b6d\n      gt\n      tag_20\n      jumpi\n      dup1\n      0xa87430ba\n      gt\n      tag_21\n      jumpi\n      dup1\n      0xa87430ba\n      eq\n      tag_15\n      jumpi\n      dup1\n      0xd18a524a\n      eq\n      tag_16\n      jumpi\n      dup1\n      0xd55768dd\n      eq\n      tag_17\n      jumpi\n      dup1\n      0xf67a2ad1\n      eq\n      tag_18\n      jumpi\n      dup1\n      0xfecd8f79\n      eq\n      tag_19\n      jumpi\n      jump(tag_1)\n    tag_21:\n      dup1\n      0x861c2b6d\n      eq\n      tag_11\n      jumpi\n      dup1\n      0x8da5cb5b\n      eq\n      tag_12\n      jumpi\n      dup1\n      0x9f1cd587\n      eq\n      tag_13\n      jumpi\n      dup1\n      0xa1ba90b6\n      eq\n      tag_14\n      jumpi\n      jump(tag_1)\n    tag_20:\n      dup1\n      0x50b44712\n      gt\n      tag_22\n      jumpi\n      dup1\n      0x50b44712\n      eq\n      tag_6\n      jumpi\n      dup1\n      0x55dea0b3\n      eq\n      tag_7\n      jumpi\n      dup1\n      0x66d0dc67\n      eq\n      tag_8\n      jumpi\n      dup1\n      0x6f764708\n      eq\n      tag_9\n      jumpi\n      dup1\n      0x805553e8\n      eq\n      tag_10\n      jumpi\n      jump(tag_1)\n    tag_22:\n      dup1\n      0x03194133\n      eq\n      tag_2\n      jumpi\n      dup1\n      0x3d527883\n      eq\n      tag_3\n      jumpi\n      dup1\n      0x3dfe7dee\n      eq\n      tag_4\n      jumpi\n      dup1\n      0x410085df\n      eq\n      tag_5\n      jumpi\n    tag_1:\n      0x00\n      dup1\n      revert\n        /* \"contracts/MarketPlace.sol\":2498:2759  function addItems(address _shop, uint _inStock, uint _price, string calldata _name, uint _expDate) public AccessControl(Role.Market, _shop) {... */\n    tag_2:\n      callvalue\n      dup1\n      iszero\n      tag_23\n      jumpi\n      0x00\n      dup1\n      revert\n    tag_23:\n      pop\n      tag_24\n      0x04\n      dup1\n      calldatasize\n      sub\n      dup2\n      add\n      swap1\n      tag_25\n      swap2\n      swap1\n      tag_26\n      jump\t// in\n    tag_25:\n      tag_27\n      jump\t// in\n    tag_24:\n      stop\n        /* \"contracts/MarketPlace.sol\":674:723  mapping(address => Product[]) public userProducts */\n    tag_3:\n      callvalue\n      dup1\n      iszero\n      tag_28\n      jumpi\n      0x00\n      dup1\n      revert\n    tag_28:\n      pop\n      tag_29\n      0x04\n      dup1\n      calldatasize\n      sub\n      dup2\n      add\n      swap1\n      tag_30\n      swap2\n      swap1\n      tag_31\n      jump\t// in\n    tag_30:\n      tag_32\n      jump\t// in\n    tag_29:\n      mload(0x40)\n      tag_33\n      swap5\n      swap4\n      swap3\n      swap2\n      swap1\n      tag_34\n      jump\t// in\n    tag_33:\n      mload(0x40)\n      dup1\n      swap2\n      sub\n      swap1\n      return\n        /* \"contracts/MarketPlace.sol\":2305:2395  function makeSupplier() public {... */\n    tag_4:\n      callvalue\n      dup1\n      iszero\n      tag_35\n      jumpi\n      0x00\n      dup1\n      revert\n    tag_35:\n      pop\n      tag_36\n      tag_37\n      jump\t// in\n    tag_36:\n      stop\n        /* \"contracts/MarketPlace.sol\":4867:5470  function refund(address _shop, uint _productId) public {... */\n    tag_5:\n      callvalue\n      dup1\n      iszero\n      tag_38\n      jumpi\n      0x00\n      dup1\n      revert\n    tag_38:\n      pop\n      tag_39\n      0x04\n      dup1\n      calldatasize\n      sub\n      dup2\n      add\n      swap1\n      tag_40\n      swap2\n      swap1\n      tag_31\n      jump\t// in\n    tag_40:\n      tag_41\n      jump\t// in\n    tag_39:\n      stop\n        /* \"contracts/MarketPlace.sol\":270:293  Ticket[] public tickets */\n    tag_6:\n      callvalue\n      dup1\n      iszero\n      tag_42\n      jumpi\n      0x00\n      dup1\n      revert\n    tag_42:\n      pop\n      tag_43\n      0x04\n      dup1\n      calldatasize\n      sub\n      dup2\n      add\n      swap1\n      tag_44\n      swap2\n      swap1\n      tag_45\n      jump\t// in\n    tag_44:\n      tag_46\n      jump\t// in\n    tag_43:\n      mload(0x40)\n      tag_47\n      swap3\n      swap2\n      swap1\n      tag_48\n      jump\t// in\n    tag_47:\n      mload(0x40)\n      dup1\n      swap2\n      sub\n      swap1\n      return\n        /* \"contracts/MarketPlace.sol\":1428:1620  function changeRole(Role _role) public{... */\n    tag_7:\n      callvalue\n      dup1\n      iszero\n      tag_49\n      jumpi\n      0x00\n      dup1\n      revert\n    tag_49:\n      pop\n      tag_50\n      0x04\n      dup1\n      calldatasize\n      sub\n      dup2\n      add\n      swap1\n      tag_51\n      swap2\n      swap1\n      tag_52\n      jump\t// in\n    tag_51:\n      tag_53\n      jump\t// in\n    tag_50:\n      stop\n        /* \"contracts/MarketPlace.sol\":2401:2488  function makeMarket() public  {... */\n    tag_8:\n      callvalue\n      dup1\n      iszero\n      tag_54\n      jumpi\n      0x00\n      dup1\n      revert\n    tag_54:\n      pop\n      tag_55\n      tag_56\n      jump\t// in\n    tag_55:\n      stop\n        /* \"contracts/MarketPlace.sol\":1204:1422  function approveChangeRole(uint _idTicket) public OnlyOwner{... */\n    tag_9:\n      callvalue\n      dup1\n      iszero\n      tag_57\n      jumpi\n      0x00\n      dup1\n      revert\n    tag_57:\n      pop\n      tag_58\n      0x04\n      dup1\n      calldatasize\n      sub\n      dup2\n      add\n      swap1\n      tag_59\n      swap2\n      swap1\n      tag_45\n      jump\t// in\n    tag_59:\n      tag_60\n      jump\t// in\n    tag_58:\n      stop\n        /* \"contracts/MarketPlace.sol\":1626:1842  function randMod(uint _modulus) public view returns(uint)... */\n    tag_10:\n      callvalue\n      dup1\n      iszero\n      tag_61\n      jumpi\n      0x00\n      dup1\n      revert\n    tag_61:\n      pop\n      tag_62\n      0x04\n      dup1\n      calldatasize\n      sub\n      dup2\n      add\n      swap1\n      tag_63\n      swap2\n      swap1\n      tag_45\n      jump\t// in\n    tag_63:\n      tag_64\n      jump\t// in\n    tag_62:\n      mload(0x40)\n      tag_65\n      swap2\n      swap1\n      tag_66\n      jump\t// in\n    tag_65:\n      mload(0x40)\n      dup1\n      swap2\n      sub\n      swap1\n      return\n        /* \"contracts/MarketPlace.sol\":1999:2295  function addItemsSupplier(uint _inStock, uint _price, string calldata _name, uint _expDate, address _addressSupp) public AccessControl(Role.Supplier, _addressSupp) {... */\n    tag_11:\n      callvalue\n      dup1\n      iszero\n      tag_67\n      jumpi\n      0x00\n      dup1\n      revert\n    tag_67:\n      pop\n      tag_68\n      0x04\n      dup1\n      calldatasize\n      sub\n      dup2\n      add\n      swap1\n      tag_69\n      swap2\n      swap1\n      tag_70\n      jump\t// in\n    tag_69:\n      tag_71\n      jump\t// in\n    tag_68:\n      stop\n        /* \"contracts/MarketPlace.sol\":299:319  address public owner */\n    tag_12:\n      callvalue\n      dup1\n      iszero\n      tag_72\n      jumpi\n      0x00\n      dup1\n      revert\n    tag_72:\n      pop\n      tag_73\n      tag_74\n      jump\t// in\n    tag_73:\n      mload(0x40)\n      tag_75\n      swap2\n      swap1\n      tag_76\n      jump\t// in\n    tag_75:\n      mload(0x40)\n      dup1\n      swap2\n      sub\n      swap1\n      return\n        /* \"contracts/MarketPlace.sol\":5476:7401  function purchase(address _shop, uint _amount, uint _id, string memory _ref ) public payable {... */\n    tag_13:\n      tag_77\n      0x04\n      dup1\n      calldatasize\n      sub\n      dup2\n      add\n      swap1\n      tag_78\n      swap2\n      swap1\n      tag_79\n      jump\t// in\n    tag_78:\n      tag_80\n      jump\t// in\n    tag_77:\n      stop\n        /* \"contracts/MarketPlace.sol\":1848:1992  function genRef(string memory _nameRef, address _user) public {... */\n    tag_14:\n      callvalue\n      dup1\n      iszero\n      tag_81\n      jumpi\n      0x00\n      dup1\n      revert\n    tag_81:\n      pop\n      tag_82\n      0x04\n      dup1\n      calldatasize\n      sub\n      dup2\n      add\n      swap1\n      tag_83\n      swap2\n      swap1\n      tag_84\n      jump\t// in\n    tag_83:\n      tag_85\n      jump\t// in\n    tag_82:\n      stop\n        /* \"contracts/MarketPlace.sol\":631:668  mapping(address => User) public users */\n    tag_15:\n      callvalue\n      dup1\n      iszero\n      tag_86\n      jumpi\n      0x00\n      dup1\n      revert\n    tag_86:\n      pop\n      tag_87\n      0x04\n      dup1\n      calldatasize\n      sub\n      dup2\n      add\n      swap1\n      tag_88\n      swap2\n      swap1\n      tag_89\n      jump\t// in\n    tag_88:\n      tag_90\n      jump\t// in\n    tag_87:\n      mload(0x40)\n      tag_91\n      swap3\n      swap2\n      swap1\n      tag_92\n      jump\t// in\n    tag_91:\n      mload(0x40)\n      dup1\n      swap2\n      sub\n      swap1\n      return\n        /* \"contracts/MarketPlace.sol\":1116:1198  function makeUser() public {... */\n    tag_16:\n      callvalue\n      dup1\n      iszero\n      tag_93\n      jumpi\n      0x00\n      dup1\n      revert\n    tag_93:\n      pop\n      tag_94\n      tag_95\n      jump\t// in\n    tag_94:\n      stop\n        /* \"contracts/MarketPlace.sol\":729:772  mapping(string => address) public referrals */\n    tag_17:\n      callvalue\n      dup1\n      iszero\n      tag_96\n      jumpi\n      0x00\n      dup1\n      revert\n    tag_96:\n      pop\n      tag_97\n      0x04\n      dup1\n      calldatasize\n      sub\n      dup2\n      add\n      swap1\n      tag_98\n      swap2\n      swap1\n      tag_99\n      jump\t// in\n    tag_98:\n      tag_100\n      jump\t// in\n    tag_97:\n      mload(0x40)\n      tag_101\n      swap2\n      swap1\n      tag_76\n      jump\t// in\n    tag_101:\n      mload(0x40)\n      dup1\n      swap2\n      sub\n      swap1\n      return\n        /* \"contracts/MarketPlace.sol\":7407:7544  function withdrawBal(address _shop) public {... */\n    tag_18:\n      callvalue\n      dup1\n      iszero\n      tag_102\n      jumpi\n      0x00\n      dup1\n      revert\n    tag_102:\n      pop\n      tag_103\n      0x04\n      dup1\n      calldatasize\n      sub\n      dup2\n      add\n      swap1\n      tag_104\n      swap2\n      swap1\n      tag_89\n      jump\t// in\n    tag_104:\n      tag_105\n      jump\t// in\n    tag_103:\n      stop\n        /* \"contracts/MarketPlace.sol\":2765:4861  function refillStore(address _shop, uint _productId, uint _amount, address _supplier) public payable AccessControl(Role.Market, _shop){... */\n    tag_19:\n      tag_106\n      0x04\n      dup1\n      calldatasize\n      sub\n      dup2\n      add\n      swap1\n      tag_107\n      swap2\n      swap1\n      tag_108\n      jump\t// in\n    tag_107:\n      tag_109\n      jump\t// in\n    tag_106:\n      stop\n        /* \"contracts/MarketPlace.sol\":2498:2759  function addItems(address _shop, uint _inStock, uint _price, string calldata _name, uint _expDate) public AccessControl(Role.Market, _shop) {... */\n    tag_27:\n        /* \"contracts/MarketPlace.sol\":2618:2629  Role.Market */\n      0x01\n        /* \"contracts/MarketPlace.sol\":2631:2636  _shop */\n      dup7\n        /* \"contracts/MarketPlace.sol\":959:964  _role */\n      dup2\n        /* \"contracts/MarketPlace.sol\":933:964  users[msg.sender].role == _role */\n      0x02\n      dup2\n      gt\n      iszero\n      tag_111\n      jumpi\n      tag_112\n      tag_113\n      jump\t// in\n    tag_112:\n    tag_111:\n        /* \"contracts/MarketPlace.sol\":933:938  users */\n      0x02\n        /* \"contracts/MarketPlace.sol\":933:950  users[msg.sender] */\n      0x00\n        /* \"contracts/MarketPlace.sol\":939:949  msg.sender */\n      caller\n        /* \"contracts/MarketPlace.sol\":933:950  users[msg.sender] */\n      0xffffffffffffffffffffffffffffffffffffffff\n      and\n      0xffffffffffffffffffffffffffffffffffffffff\n      and\n      dup2\n      mstore\n      0x20\n      add\n      swap1\n      dup2\n      mstore\n      0x20\n      add\n      0x00\n      keccak256\n        /* \"contracts/MarketPlace.sol\":933:955  users[msg.sender].role */\n      0x00\n      add\n      0x00\n      swap1\n      sload\n      swap1\n      0x0100\n      exp\n      swap1\n      div\n      0xff\n      and\n        /* \"contracts/MarketPlace.sol\":933:964  users[msg.sender].role == _role */\n      0x02\n      dup2\n      gt\n      iszero\n      tag_114\n      jumpi\n      tag_115\n      tag_113\n      jump\t// in\n    tag_115:\n    tag_114:\n      eq\n        /* \"contracts/MarketPlace.sol\":925:976  require(users[msg.sender].role == _role, unicode\"\") */\n      tag_116\n      jumpi\n      mload(0x40)\n      0x08c379a000000000000000000000000000000000000000000000000000000000\n      dup2\n      mstore\n      0x04\n      add\n      tag_117\n      swap1\n      tag_118\n      jump\t// in\n    tag_117:\n      mload(0x40)\n      dup1\n      swap2\n      sub\n      swap1\n      revert\n    tag_116:\n        /* \"contracts/MarketPlace.sol\":1008:1013  _shop */\n      dup1\n        /* \"contracts/MarketPlace.sol\":994:1013  msg.sender == _shop */\n      0xffffffffffffffffffffffffffffffffffffffff\n      and\n        /* \"contracts/MarketPlace.sol\":994:1004  msg.sender */\n      caller\n        /* \"contracts/MarketPlace.sol\":994:1013  msg.sender == _shop */\n      0xffffffffffffffffffffffffffffffffffffffff\n      and\n      eq\n        /* \"contracts/MarketPlace.sol\":986:1092  require(msg.sender == _shop, unicode\"Магазин не соответсвует отправителю\") */\n      tag_119\n      jumpi\n      mload(0x40)\n      0x08c379a000000000000000000000000000000000000000000000000000000000\n      dup2\n      mstore\n      0x04\n      add\n      tag_120\n      swap1\n      tag_121\n      jump\t// in\n    tag_120:\n      mload(0x40)\n      dup1\n      swap2\n      sub\n      swap1\n      revert\n    tag_119:\n        /* \"contracts/MarketPlace.sol\":2648:2667  Product memory item */\n      0x00\n        /* \"contracts/MarketPlace.sol\":2670:2712  Product(_inStock, _price, _name, _expDate) */\n      mload(0x40)\n      dup1\n      0x80\n      add\n      0x40\n      mstore\n      dup1\n        /* \"contracts/MarketPlace.sol\":2678:2686  _inStock */\n      dup10\n        /* \"contracts/MarketPlace.sol\":2670:2712  Product(_inStock, _price, _name, _expDate) */\n      dup2\n      mstore\n      0x20\n      add\n        /* \"contracts/MarketPlace.sol\":2688:2694  _price */\n      dup9\n        /* \"contracts/MarketPlace.sol\":2670:2712  Product(_inStock, _price, _name, _expDate) */\n      dup2\n      mstore\n      0x20\n      add\n        /* \"contracts/MarketPlace.sol\":2696:2701  _name */\n      dup8\n      dup8\n        /* \"contracts/MarketPlace.sol\":2670:2712  Product(_inStock, _price, _name, _expDate) */\n      dup1\n      dup1\n      0x1f\n      add\n      0x20\n      dup1\n      swap2\n      div\n      mul\n      0x20\n      add\n      mload(0x40)\n      swap1\n      dup2\n      add\n      0x40\n      mstore\n      dup1\n      swap4\n      swap3\n      swap2\n      swap1\n      dup2\n      dup2\n      mstore\n      0x20\n      add\n      dup4\n      dup4\n      dup1\n      dup3\n      dup5\n      calldatacopy\n      0x00\n      dup2\n      dup5\n      add\n      mstore\n      not(0x1f)\n      0x1f\n      dup3\n      add\n      and\n      swap1\n      pop\n      dup1\n      dup4\n      add\n      swap3\n      pop\n      pop\n      pop\n      pop\n      pop\n      pop\n      pop\n      dup2\n      mstore\n      0x20\n      add\n        /* \"contracts/MarketPlace.sol\":2703:2711  _expDate */\n      dup6\n        /* \"contracts/MarketPlace.sol\":2670:2712  Product(_inStock, _price, _name, _expDate) */\n      dup2\n      mstore\n      pop\n        /* \"contracts/MarketPlace.sol\":2648:2712  Product memory item = Product(_inStock, _price, _name, _expDate) */\n      swap1\n      pop\n        /* \"contracts/MarketPlace.sol\":2722:2734  userProducts */\n      0x03\n        /* \"contracts/MarketPlace.sol\":2722:2741  userProducts[_shop] */\n      0x00\n        /* \"contracts/MarketPlace.sol\":2735:2740  _shop */\n      dup11\n        /* \"contracts/MarketPlace.sol\":2722:2741  userProducts[_shop] */\n      0xffffffffffffffffffffffffffffffffffffffff\n      and\n      0xffffffffffffffffffffffffffffffffffffffff\n      and\n      dup2\n      mstore\n      0x20\n      add\n      swap1\n      dup2\n      mstore\n      0x20\n      add\n      0x00\n      keccak256\n        /* \"contracts/MarketPlace.sol\":2747:2751  item */\n      dup2\n        /* \"contracts/MarketPlace.sol\":2722:2752  userProducts[_shop].push(item) */\n      swap1\n      dup1\n      0x01\n      dup2\n      sload\n      add\n      dup1\n      dup3\n      sstore\n      dup1\n      swap2\n      pop\n      pop\n      0x01\n      swap1\n      sub\n      swap1\n      0x00\n      mstore\n      keccak256(0x00, 0x20)\n      swap1\n      0x04\n      mul\n      add\n      0x00\n      swap1\n      swap2\n      swap1\n      swap2\n      swap1\n      swap2\n      pop\n      0x00\n      dup3\n      add\n      mload\n      dup2\n      0x00\n      add\n      sstore\n      0x20\n      dup3\n      add\n      mload\n      dup2\n      0x01\n      add\n      sstore\n      0x40\n      dup3\n      add\n      mload\n      dup2\n      0x02\n      add\n      swap1\n      dup2\n      tag_124\n      swap2\n      swap1\n      tag_125\n      jump\t// in\n    tag_124:\n      pop\n      0x60\n      dup3\n      add\n      mload\n      dup2\n      0x03\n      add\n      sstore\n      pop\n      pop\n        /* \"contracts/MarketPlace.sol\":2638:2759  {... */\n      pop\n        /* \"contracts/MarketPlace.sol\":2498:2759  function addItems(address _shop, uint _inStock, uint _price, string calldata _name, uint _expDate) public AccessControl(Role.Market, _shop) {... */\n      pop\n      pop\n      pop\n      pop\n      pop\n      pop\n      pop\n      pop\n      jump\t// out\n        /* \"contracts/MarketPlace.sol\":674:723  mapping(address => Product[]) public userProducts */\n    tag_32:\n      mstore(0x20, 0x03)\n      dup2\n      0x00\n      mstore\n      keccak256(0x00, 0x40)\n      dup2\n      dup2\n      sload\n      dup2\n      lt\n      tag_126\n      jumpi\n      0x00\n      dup1\n      revert\n    tag_126:\n      swap1\n      0x00\n      mstore\n      keccak256(0x00, 0x20)\n      swap1\n      0x04\n      mul\n      add\n      0x00\n      swap2\n      pop\n      swap2\n      pop\n      pop\n      dup1\n      0x00\n      add\n      sload\n      swap1\n      dup1\n      0x01\n      add\n      sload\n      swap1\n      dup1\n      0x02\n      add\n      dup1\n      sload\n      tag_128\n      swap1\n      tag_129\n      jump\t// in\n    tag_128:\n      dup1\n      0x1f\n      add\n      0x20\n      dup1\n      swap2\n      div\n      mul\n      0x20\n      add\n      mload(0x40)\n      swap1\n      dup2\n      add\n      0x40\n      mstore\n      dup1\n      swap3\n      swap2\n      swap1\n      dup2\n      dup2\n      mstore\n      0x20\n      add\n      dup3\n      dup1\n      sload\n      tag_130\n      swap1\n      tag_129\n      jump\t// in\n    tag_130:\n      dup1\n      iszero\n      tag_131\n      jumpi\n      dup1\n      0x1f\n      lt\n      tag_132\n      jumpi\n      0x0100\n      dup1\n      dup4\n      sload\n      div\n      mul\n      dup4\n      mstore\n      swap2\n      0x20\n      add\n      swap2\n      jump(tag_131)\n    tag_132:\n      dup3\n      add\n      swap2\n      swap1\n      0x00\n      mstore\n      keccak256(0x00, 0x20)\n      swap1\n    tag_133:\n      dup2\n      sload\n      dup2\n      mstore\n      swap1\n      0x01\n      add\n      swap1\n      0x20\n      add\n      dup1\n      dup4\n      gt\n      tag_133\n      jumpi\n      dup3\n      swap1\n      sub\n      0x1f\n      and\n      dup3\n      add\n      swap2\n    tag_131:\n      pop\n      pop\n      pop\n      pop\n      pop\n      swap1\n      dup1\n      0x03\n      add\n      sload\n      swap1\n      pop\n      dup5\n      jump\t// out\n        /* \"contracts/MarketPlace.sol\":2305:2395  function makeSupplier() public {... */\n    tag_37:\n        /* \"contracts/MarketPlace.sol\":2366:2388  User(Role.Supplier, 0) */\n      mload(0x40)\n      dup1\n      0x40\n      add\n      0x40\n      mstore\n      dup1\n        /* \"contracts/MarketPlace.sol\":2371:2384  Role.Supplier */\n      0x02\n        /* \"contracts/MarketPlace.sol\":2366:2388  User(Role.Supplier, 0) */\n      dup1\n      dup2\n      gt\n      iszero\n      tag_135\n      jumpi\n      tag_136\n      tag_113\n      jump\t// in\n    tag_136:\n    tag_135:\n      dup2\n      mstore\n      0x20\n      add\n        /* \"contracts/MarketPlace.sol\":2386:2387  0 */\n      0x00\n        /* \"contracts/MarketPlace.sol\":2366:2388  User(Role.Supplier, 0) */\n      dup2\n      mstore\n      pop\n        /* \"contracts/MarketPlace.sol\":2346:2351  users */\n      0x02\n        /* \"contracts/MarketPlace.sol\":2346:2363  users[msg.sender] */\n      0x00\n        /* \"contracts/MarketPlace.sol\":2352:2362  msg.sender */\n      caller\n        /* \"contracts/MarketPlace.sol\":2346:2363  users[msg.sender] */\n      0xffffffffffffffffffffffffffffffffffffffff\n      and\n      0xffffffffffffffffffffffffffffffffffffffff\n      and\n      dup2\n      mstore\n      0x20\n      add\n      swap1\n      dup2\n      mstore\n      0x20\n      add\n      0x00\n      keccak256\n        /* \"contracts/MarketPlace.sol\":2346:2388  users[msg.sender] = User(Role.Supplier, 0) */\n      0x00\n      dup3\n      add\n      mload\n      dup2\n      0x00\n      add\n      exp(0x0100, 0x00)\n      dup2\n      sload\n      dup2\n      0xff\n      mul\n      not\n      and\n      swap1\n      dup4\n      0x02\n      dup2\n      gt\n      iszero\n      tag_137\n      jumpi\n      tag_138\n      tag_113\n      jump\t// in\n    tag_138:\n    tag_137:\n      mul\n      or\n      swap1\n      sstore\n      pop\n      0x20\n      dup3\n      add\n      mload\n      dup2\n      0x01\n      add\n      sstore\n      swap1\n      pop\n      pop\n        /* \"contracts/MarketPlace.sol\":2305:2395  function makeSupplier() public {... */\n      jump\t// out\n        /* \"contracts/MarketPlace.sol\":4867:5470  function refund(address _shop, uint _productId) public {... */\n    tag_41:\n        /* \"contracts/MarketPlace.sol\":4932:4944  uint userExp */\n      0x00\n        /* \"contracts/MarketPlace.sol\":4947:4959  userProducts */\n      0x03\n        /* \"contracts/MarketPlace.sol\":4947:4971  userProducts[msg.sender] */\n      0x00\n        /* \"contracts/MarketPlace.sol\":4960:4970  msg.sender */\n      caller\n        /* \"contracts/MarketPlace.sol\":4947:4971  userProducts[msg.sender] */\n      0xffffffffffffffffffffffffffffffffffffffff\n      and\n      0xffffffffffffffffffffffffffffffffffffffff\n      and\n      dup2\n      mstore\n      0x20\n      add\n      swap1\n      dup2\n      mstore\n      0x20\n      add\n      0x00\n      keccak256\n        /* \"contracts/MarketPlace.sol\":4972:4982  _productId */\n      dup3\n        /* \"contracts/MarketPlace.sol\":4947:4983  userProducts[msg.sender][_productId] */\n      dup2\n      sload\n      dup2\n      lt\n      tag_140\n      jumpi\n      tag_141\n      tag_142\n      jump\t// in\n    tag_141:\n    tag_140:\n      swap1\n      0x00\n      mstore\n      keccak256(0x00, 0x20)\n      swap1\n      0x04\n      mul\n      add\n        /* \"contracts/MarketPlace.sol\":4947:4991  userProducts[msg.sender][_productId].expDate */\n      0x03\n      add\n      sload\n        /* \"contracts/MarketPlace.sol\":4932:4991  uint userExp = userProducts[msg.sender][_productId].expDate */\n      swap1\n      pop\n        /* \"contracts/MarketPlace.sol\":5001:5013  uint shopExp */\n      0x00\n        /* \"contracts/MarketPlace.sol\":5016:5028  userProducts */\n      0x03\n        /* \"contracts/MarketPlace.sol\":5016:5035  userProducts[_shop] */\n      0x00\n        /* \"contracts/MarketPlace.sol\":5029:5034  _shop */\n      dup6\n        /* \"contracts/MarketPlace.sol\":5016:5035  userProducts[_shop] */\n      0xffffffffffffffffffffffffffffffffffffffff\n      and\n      0xffffffffffffffffffffffffffffffffffffffff\n      and\n      dup2\n      mstore\n      0x20\n      add\n      swap1\n      dup2\n      mstore\n      0x20\n      add\n      0x00\n      keccak256\n        /* \"contracts/MarketPlace.sol\":5036:5046  _productId */\n      dup4\n        /* \"contracts/MarketPlace.sol\":5016:5047  userProducts[_shop][_productId] */\n      dup2\n      sload\n      dup2\n      lt\n      tag_144\n      jumpi\n      tag_145\n      tag_142\n      jump\t// in\n    tag_145:\n    tag_144:\n      swap1\n      0x00\n      mstore\n      keccak256(0x00, 0x20)\n      swap1\n      0x04\n      mul\n      add\n        /* \"contracts/MarketPlace.sol\":5016:5055  userProducts[_shop][_productId].expDate */\n      0x03\n      add\n      sload\n        /* \"contracts/MarketPlace.sol\":5001:5055  uint shopExp = userProducts[_shop][_productId].expDate */\n      swap1\n      pop\n        /* \"contracts/MarketPlace.sol\":5083:5090  shopExp */\n      dup1\n        /* \"contracts/MarketPlace.sol\":5073:5080  userExp */\n      dup3\n        /* \"contracts/MarketPlace.sol\":5073:5090  userExp > shopExp */\n      gt\n        /* \"contracts/MarketPlace.sol\":5065:5091  require(userExp > shopExp) */\n      tag_147\n      jumpi\n      0x00\n      dup1\n      revert\n    tag_147:\n        /* \"contracts/MarketPlace.sol\":5101:5117  uint totalRefSum */\n      0x00\n        /* \"contracts/MarketPlace.sol\":5208:5215  1 ether */\n      0x0de0b6b3a7640000\n        /* \"contracts/MarketPlace.sol\":5168:5180  userProducts */\n      0x03\n        /* \"contracts/MarketPlace.sol\":5168:5187  userProducts[_shop] */\n      0x00\n        /* \"contracts/MarketPlace.sol\":5181:5186  _shop */\n      dup8\n        /* \"contracts/MarketPlace.sol\":5168:5187  userProducts[_shop] */\n      0xffffffffffffffffffffffffffffffffffffffff\n      and\n      0xffffffffffffffffffffffffffffffffffffffff\n      and\n      dup2\n      mstore\n      0x20\n      add\n      swap1\n      dup2\n      mstore\n      0x20\n      add\n      0x00\n      keccak256\n        /* \"contracts/MarketPlace.sol\":5188:5198  _productId */\n      dup6\n        /* \"contracts/MarketPlace.sol\":5168:5199  userProducts[_shop][_productId] */\n      dup2\n      sload\n      dup2\n      lt\n      tag_148\n      jumpi\n      tag_149\n      tag_142\n      jump\t// in\n    tag_149:\n    tag_148:\n      swap1\n      0x00\n      mstore\n      keccak256(0x00, 0x20)\n      swap1\n      0x04\n      mul\n      add\n        /* \"contracts/MarketPlace.sol\":5168:5205  userProducts[_shop][_productId].price */\n      0x01\n      add\n      sload\n        /* \"contracts/MarketPlace.sol\":5121:5133  userProducts */\n      0x03\n        /* \"contracts/MarketPlace.sol\":5121:5145  userProducts[msg.sender] */\n      0x00\n        /* \"contracts/MarketPlace.sol\":5134:5144  msg.sender */\n      caller\n        /* \"contracts/MarketPlace.sol\":5121:5145  userProducts[msg.sender] */\n      0xffffffffffffffffffffffffffffffffffffffff\n      and\n      0xffffffffffffffffffffffffffffffffffffffff\n      and\n      dup2\n      mstore\n      0x20\n      add\n      swap1\n      dup2\n      mstore\n      0x20\n      add\n      0x00\n      keccak256\n        /* \"contracts/MarketPlace.sol\":5146:5156  _productId */\n      dup7\n        /* \"contracts/MarketPlace.sol\":5121:5157  userProducts[msg.sender][_productId] */\n      dup2\n      sload\n      dup2\n      lt\n      tag_151\n      jumpi\n      tag_152\n      tag_142\n      jump\t// in\n    tag_152:\n    tag_151:\n      swap1\n      0x00\n      mstore\n      keccak256(0x00, 0x20)\n      swap1\n      0x04\n      mul\n      add\n        /* \"contracts/MarketPlace.sol\":5121:5165  userProducts[msg.sender][_productId].inStock */\n      0x00\n      add\n      sload\n        /* \"contracts/MarketPlace.sol\":5121:5205  userProducts[msg.sender][_productId].inStock * userProducts[_shop][_productId].price */\n      tag_154\n      swap2\n      swap1\n      tag_155\n      jump\t// in\n    tag_154:\n        /* \"contracts/MarketPlace.sol\":5121:5215  userProducts[msg.sender][_productId].inStock * userProducts[_shop][_productId].price * 1 ether */\n      tag_156\n      swap2\n      swap1\n      tag_155\n      jump\t// in\n    tag_156:\n        /* \"contracts/MarketPlace.sol\":5101:5215  uint totalRefSum =  userProducts[msg.sender][_productId].inStock * userProducts[_shop][_productId].price * 1 ether */\n      swap1\n      pop\n        /* \"contracts/MarketPlace.sol\":5268:5280  userProducts */\n      0x03\n        /* \"contracts/MarketPlace.sol\":5268:5292  userProducts[msg.sender] */\n      0x00\n        /* \"contracts/MarketPlace.sol\":5281:5291  msg.sender */\n      caller\n        /* \"contracts/MarketPlace.sol\":5268:5292  userProducts[msg.sender] */\n      0xffffffffffffffffffffffffffffffffffffffff\n      and\n      0xffffffffffffffffffffffffffffffffffffffff\n      and\n      dup2\n      mstore\n      0x20\n      add\n      swap1\n      dup2\n      mstore\n      0x20\n      add\n      0x00\n      keccak256\n        /* \"contracts/MarketPlace.sol\":5293:5303  _productId */\n      dup5\n        /* \"contracts/MarketPlace.sol\":5268:5304  userProducts[msg.sender][_productId] */\n      dup2\n      sload\n      dup2\n      lt\n      tag_157\n      jumpi\n      tag_158\n      tag_142\n      jump\t// in\n    tag_158:\n    tag_157:\n      swap1\n      0x00\n      mstore\n      keccak256(0x00, 0x20)\n      swap1\n      0x04\n      mul\n      add\n        /* \"contracts/MarketPlace.sol\":5268:5312  userProducts[msg.sender][_productId].inStock */\n      0x00\n      add\n      sload\n        /* \"contracts/MarketPlace.sol\":5225:5237  userProducts */\n      0x03\n        /* \"contracts/MarketPlace.sol\":5225:5244  userProducts[_shop] */\n      0x00\n        /* \"contracts/MarketPlace.sol\":5238:5243  _shop */\n      dup8\n        /* \"contracts/MarketPlace.sol\":5225:5244  userProducts[_shop] */\n      0xffffffffffffffffffffffffffffffffffffffff\n      and\n      0xffffffffffffffffffffffffffffffffffffffff\n      and\n      dup2\n      mstore\n      0x20\n      add\n      swap1\n      dup2\n      mstore\n      0x20\n      add\n      0x00\n      keccak256\n        /* \"contracts/MarketPlace.sol\":5245:5255  _productId */\n      dup6\n        /* \"contracts/MarketPlace.sol\":5225:5256  userProducts[_shop][_productId] */\n      dup2\n      sload\n      dup2\n      lt\n      tag_160\n      jumpi\n      tag_161\n      tag_142\n      jump\t// in\n    tag_161:\n    tag_160:\n      swap1\n      0x00\n      mstore\n      keccak256(0x00, 0x20)\n      swap1\n      0x04\n      mul\n      add\n        /* \"contracts/MarketPlace.sol\":5225:5264  userProducts[_shop][_productId].inStock */\n      0x00\n      add\n      0x00\n        /* \"contracts/MarketPlace.sol\":5225:5312  userProducts[_shop][_productId].inStock += userProducts[msg.sender][_productId].inStock */\n      dup3\n      dup3\n      sload\n      tag_163\n      swap2\n      swap1\n      tag_164\n      jump\t// in\n    tag_163:\n      swap3\n      pop\n      pop\n      dup2\n      swap1\n      sstore\n      pop\n        /* \"contracts/MarketPlace.sol\":5329:5341  userProducts */\n      0x03\n        /* \"contracts/MarketPlace.sol\":5329:5353  userProducts[msg.sender] */\n      0x00\n        /* \"contracts/MarketPlace.sol\":5342:5352  msg.sender */\n      caller\n        /* \"contracts/MarketPlace.sol\":5329:5353  userProducts[msg.sender] */\n      0xffffffffffffffffffffffffffffffffffffffff\n      and\n      0xffffffffffffffffffffffffffffffffffffffff\n      and\n      dup2\n      mstore\n      0x20\n      add\n      swap1\n      dup2\n      mstore\n      0x20\n      add\n      0x00\n      keccak256\n        /* \"contracts/MarketPlace.sol\":5354:5364  _productId */\n      dup5\n        /* \"contracts/MarketPlace.sol\":5329:5365  userProducts[msg.sender][_productId] */\n      dup2\n      sload\n      dup2\n      lt\n      tag_165\n      jumpi\n      tag_166\n      tag_142\n      jump\t// in\n    tag_166:\n    tag_165:\n      swap1\n      0x00\n      mstore\n      keccak256(0x00, 0x20)\n      swap1\n      0x04\n      mul\n      add\n      0x00\n        /* \"contracts/MarketPlace.sol\":5322:5365  delete userProducts[msg.sender][_productId] */\n      dup1\n      dup3\n      add\n      0x00\n      swap1\n      sstore\n      0x01\n      dup3\n      add\n      0x00\n      swap1\n      sstore\n      0x02\n      dup3\n      add\n      0x00\n      tag_168\n      swap2\n      swap1\n      tag_169\n      jump\t// in\n    tag_168:\n      0x03\n      dup3\n      add\n      0x00\n      swap1\n      sstore\n      pop\n      pop\n        /* \"contracts/MarketPlace.sol\":5399:5410  totalRefSum */\n      dup1\n        /* \"contracts/MarketPlace.sol\":5375:5380  users */\n      0x02\n        /* \"contracts/MarketPlace.sol\":5375:5387  users[_shop] */\n      0x00\n        /* \"contracts/MarketPlace.sol\":5381:5386  _shop */\n      dup8\n        /* \"contracts/MarketPlace.sol\":5375:5387  users[_shop] */\n      0xffffffffffffffffffffffffffffffffffffffff\n      and\n      0xffffffffffffffffffffffffffffffffffffffff\n      and\n      dup2\n      mstore\n      0x20\n      add\n      swap1\n      dup2\n      mstore\n      0x20\n      add\n      0x00\n      keccak256\n        /* \"contracts/MarketPlace.sol\":5375:5395  users[_shop].balance */\n      0x01\n      add\n      0x00\n        /* \"contracts/MarketPlace.sol\":5375:5410  users[_shop].balance -= totalRefSum */\n      dup3\n      dup3\n      sload\n      tag_170\n      swap2\n      swap1\n      tag_171\n      jump\t// in\n    tag_170:\n      swap3\n      pop\n      pop\n      dup2\n      swap1\n      sstore\n      pop\n        /* \"contracts/MarketPlace.sol\":5428:5438  msg.sender */\n      caller\n        /* \"contracts/MarketPlace.sol\":5420:5448  payable(msg.sender).transfer */\n      0xffffffffffffffffffffffffffffffffffffffff\n      and\n        /* \"contracts/MarketPlace.sol\":5420:5461  payable(msg.sender).transfer(totalRefSum) */\n      0x08fc\n        /* \"contracts/MarketPlace.sol\":5449:5460  totalRefSum */\n      dup3\n        /* \"contracts/MarketPlace.sol\":5420:5461  payable(msg.sender).transfer(totalRefSum) */\n      swap1\n      dup2\n      iszero\n      mul\n      swap1\n      mload(0x40)\n      0x00\n      mload(0x40)\n      dup1\n      dup4\n      sub\n      dup2\n      dup6\n      dup9\n      dup9\n      call\n      swap4\n      pop\n      pop\n      pop\n      pop\n      iszero\n      dup1\n      iszero\n      tag_173\n      jumpi\n      returndatasize\n      0x00\n      dup1\n      returndatacopy\n      revert(0x00, returndatasize)\n    tag_173:\n      pop\n        /* \"contracts/MarketPlace.sol\":4922:5470  {... */\n      pop\n      pop\n      pop\n        /* \"contracts/MarketPlace.sol\":4867:5470  function refund(address _shop, uint _productId) public {... */\n      pop\n      pop\n      jump\t// out\n        /* \"contracts/MarketPlace.sol\":270:293  Ticket[] public tickets */\n    tag_46:\n      0x00\n      dup2\n      dup2\n      sload\n      dup2\n      lt\n      tag_174\n      jumpi\n      0x00\n      dup1\n      revert\n    tag_174:\n      swap1\n      0x00\n      mstore\n      keccak256(0x00, 0x20)\n      add\n      0x00\n      swap2\n      pop\n      swap1\n      pop\n      dup1\n      0x00\n      add\n      0x00\n      swap1\n      sload\n      swap1\n      0x0100\n      exp\n      swap1\n      div\n      0xffffffffffffffffffffffffffffffffffffffff\n      and\n      swap1\n      dup1\n      0x00\n      add\n      0x14\n      swap1\n      sload\n      swap1\n      0x0100\n      exp\n      swap1\n      div\n      0xff\n      and\n      swap1\n      pop\n      dup3\n      jump\t// out\n        /* \"contracts/MarketPlace.sol\":1428:1620  function changeRole(Role _role) public{... */\n    tag_53:\n        /* \"contracts/MarketPlace.sol\":1574:1581  tickets */\n      0x00\n        /* \"contracts/MarketPlace.sol\":1587:1612  Ticket(msg.sender, _role) */\n      mload(0x40)\n      dup1\n      0x40\n      add\n      0x40\n      mstore\n      dup1\n        /* \"contracts/MarketPlace.sol\":1594:1604  msg.sender */\n      caller\n        /* \"contracts/MarketPlace.sol\":1587:1612  Ticket(msg.sender, _role) */\n      0xffffffffffffffffffffffffffffffffffffffff\n      and\n      dup2\n      mstore\n      0x20\n      add\n        /* \"contracts/MarketPlace.sol\":1606:1611  _role */\n      dup4\n        /* \"contracts/MarketPlace.sol\":1587:1612  Ticket(msg.sender, _role) */\n      0x02\n      dup2\n      gt\n      iszero\n      tag_177\n      jumpi\n      tag_178\n      tag_113\n      jump\t// in\n    tag_178:\n    tag_177:\n      dup2\n      mstore\n      pop\n        /* \"contracts/MarketPlace.sol\":1574:1613  tickets.push(Ticket(msg.sender, _role)) */\n      swap1\n      dup1\n      0x01\n      dup2\n      sload\n      add\n      dup1\n      dup3\n      sstore\n      dup1\n      swap2\n      pop\n      pop\n      0x01\n      swap1\n      sub\n      swap1\n      0x00\n      mstore\n      keccak256(0x00, 0x20)\n      add\n      0x00\n      swap1\n      swap2\n      swap1\n      swap2\n      swap1\n      swap2\n      pop\n      0x00\n      dup3\n      add\n      mload\n      dup2\n      0x00\n      add\n      exp(0x0100, 0x00)\n      dup2\n      sload\n      dup2\n      0xffffffffffffffffffffffffffffffffffffffff\n      mul\n      not\n      and\n      swap1\n      dup4\n      0xffffffffffffffffffffffffffffffffffffffff\n      and\n      mul\n      or\n      swap1\n      sstore\n      pop\n      0x20\n      dup3\n      add\n      mload\n      dup2\n      0x00\n      add\n      exp(0x0100, 0x14)\n      dup2\n      sload\n      dup2\n      0xff\n      mul\n      not\n      and\n      swap1\n      dup4\n      0x02\n      dup2\n      gt\n      iszero\n      tag_180\n      jumpi\n      tag_181\n      tag_113\n      jump\t// in\n    tag_181:\n    tag_180:\n      mul\n      or\n      swap1\n      sstore\n      pop\n      pop\n      pop\n        /* \"contracts/MarketPlace.sol\":1428:1620  function changeRole(Role _role) public{... */\n      pop\n      jump\t// out\n        /* \"contracts/MarketPlace.sol\":2401:2488  function makeMarket() public  {... */\n    tag_56:\n        /* \"contracts/MarketPlace.sol\":2461:2481  User(Role.Market, 0) */\n      mload(0x40)\n      dup1\n      0x40\n      add\n      0x40\n      mstore\n      dup1\n        /* \"contracts/MarketPlace.sol\":2466:2477  Role.Market */\n      0x01\n        /* \"contracts/MarketPlace.sol\":2461:2481  User(Role.Market, 0) */\n      0x02\n      dup2\n      gt\n      iszero\n      tag_183\n      jumpi\n      tag_184\n      tag_113\n      jump\t// in\n    tag_184:\n    tag_183:\n      dup2\n      mstore\n      0x20\n      add\n        /* \"contracts/MarketPlace.sol\":2479:2480  0 */\n      0x00\n        /* \"contracts/MarketPlace.sol\":2461:2481  User(Role.Market, 0) */\n      dup2\n      mstore\n      pop\n        /* \"contracts/MarketPlace.sol\":2441:2446  users */\n      0x02\n        /* \"contracts/MarketPlace.sol\":2441:2458  users[msg.sender] */\n      0x00\n        /* \"contracts/MarketPlace.sol\":2447:2457  msg.sender */\n      caller\n        /* \"contracts/MarketPlace.sol\":2441:2458  users[msg.sender] */\n      0xffffffffffffffffffffffffffffffffffffffff\n      and\n      0xffffffffffffffffffffffffffffffffffffffff\n      and\n      dup2\n      mstore\n      0x20\n      add\n      swap1\n      dup2\n      mstore\n      0x20\n      add\n      0x00\n      keccak256\n        /* \"contracts/MarketPlace.sol\":2441:2481  users[msg.sender] = User(Role.Market, 0) */\n      0x00\n      dup3\n      add\n      mload\n      dup2\n      0x00\n      add\n      exp(0x0100, 0x00)\n      dup2\n      sload\n      dup2\n      0xff\n      mul\n      not\n      and\n      swap1\n      dup4\n      0x02\n      dup2\n      gt\n      iszero\n      tag_185\n      jumpi\n      tag_186\n      tag_113\n      jump\t// in\n    tag_186:\n    tag_185:\n      mul\n      or\n      swap1\n      sstore\n      pop\n      0x20\n      dup3\n      add\n      mload\n      dup2\n      0x01\n      add\n      sstore\n      swap1\n      pop\n      pop\n        /* \"contracts/MarketPlace.sol\":2401:2488  function makeMarket() public  {... */\n      jump\t// out\n        /* \"contracts/MarketPlace.sol\":1204:1422  function approveChangeRole(uint _idTicket) public OnlyOwner{... */\n    tag_60:\n        /* \"contracts/MarketPlace.sol\":832:837  owner */\n      0x01\n      0x00\n      swap1\n      sload\n      swap1\n      0x0100\n      exp\n      swap1\n      div\n      0xffffffffffffffffffffffffffffffffffffffff\n      and\n        /* \"contracts/MarketPlace.sol\":818:837  msg.sender == owner */\n      0xffffffffffffffffffffffffffffffffffffffff\n      and\n        /* \"contracts/MarketPlace.sol\":818:828  msg.sender */\n      caller\n        /* \"contracts/MarketPlace.sol\":818:837  msg.sender == owner */\n      0xffffffffffffffffffffffffffffffffffffffff\n      and\n      eq\n        /* \"contracts/MarketPlace.sol\":810:838  require(msg.sender == owner) */\n      tag_188\n      jumpi\n      0x00\n      dup1\n      revert\n    tag_188:\n        /* \"contracts/MarketPlace.sol\":1273:1289  address userAddr */\n      0x00\n        /* \"contracts/MarketPlace.sol\":1292:1299  tickets */\n      dup1\n        /* \"contracts/MarketPlace.sol\":1300:1309  _idTicket */\n      dup3\n        /* \"contracts/MarketPlace.sol\":1292:1310  tickets[_idTicket] */\n      dup2\n      sload\n      dup2\n      lt\n      tag_190\n      jumpi\n      tag_191\n      tag_142\n      jump\t// in\n    tag_191:\n    tag_190:\n      swap1\n      0x00\n      mstore\n      keccak256(0x00, 0x20)\n      add\n        /* \"contracts/MarketPlace.sol\":1292:1319  tickets[_idTicket].userAddr */\n      0x00\n      add\n      0x00\n      swap1\n      sload\n      swap1\n      0x0100\n      exp\n      swap1\n      div\n      0xffffffffffffffffffffffffffffffffffffffff\n      and\n        /* \"contracts/MarketPlace.sol\":1273:1319  address userAddr = tickets[_idTicket].userAddr */\n      swap1\n      pop\n        /* \"contracts/MarketPlace.sol\":1329:1345  Role changedRole */\n      0x00\n        /* \"contracts/MarketPlace.sol\":1348:1355  tickets */\n      dup1\n        /* \"contracts/MarketPlace.sol\":1356:1365  _idTicket */\n      dup4\n        /* \"contracts/MarketPlace.sol\":1348:1366  tickets[_idTicket] */\n      dup2\n      sload\n      dup2\n      lt\n      tag_193\n      jumpi\n      tag_194\n      tag_142\n      jump\t// in\n    tag_194:\n    tag_193:\n      swap1\n      0x00\n      mstore\n      keccak256(0x00, 0x20)\n      add\n        /* \"contracts/MarketPlace.sol\":1348:1371  tickets[_idTicket].role */\n      0x00\n      add\n      0x14\n      swap1\n      sload\n      swap1\n      0x0100\n      exp\n      swap1\n      div\n      0xff\n      and\n        /* \"contracts/MarketPlace.sol\":1329:1371  Role changedRole = tickets[_idTicket].role */\n      swap1\n      pop\n        /* \"contracts/MarketPlace.sol\":1404:1415  changedRole */\n      dup1\n        /* \"contracts/MarketPlace.sol\":1381:1386  users */\n      0x02\n        /* \"contracts/MarketPlace.sol\":1381:1396  users[userAddr] */\n      0x00\n        /* \"contracts/MarketPlace.sol\":1387:1395  userAddr */\n      dup5\n        /* \"contracts/MarketPlace.sol\":1381:1396  users[userAddr] */\n      0xffffffffffffffffffffffffffffffffffffffff\n      and\n      0xffffffffffffffffffffffffffffffffffffffff\n      and\n      dup2\n      mstore\n      0x20\n      add\n      swap1\n      dup2\n      mstore\n      0x20\n      add\n      0x00\n      keccak256\n        /* \"contracts/MarketPlace.sol\":1381:1401  users[userAddr].role */\n      0x00\n      add\n      0x00\n        /* \"contracts/MarketPlace.sol\":1381:1415  users[userAddr].role = changedRole */\n      0x0100\n      exp\n      dup2\n      sload\n      dup2\n      0xff\n      mul\n      not\n      and\n      swap1\n      dup4\n      0x02\n      dup2\n      gt\n      iszero\n      tag_196\n      jumpi\n      tag_197\n      tag_113\n      jump\t// in\n    tag_197:\n    tag_196:\n      mul\n      or\n      swap1\n      sstore\n      pop\n        /* \"contracts/MarketPlace.sol\":1263:1422  {... */\n      pop\n      pop\n        /* \"contracts/MarketPlace.sol\":1204:1422  function approveChangeRole(uint _idTicket) public OnlyOwner{... */\n      pop\n      jump\t// out\n        /* \"contracts/MarketPlace.sol\":1626:1842  function randMod(uint _modulus) public view returns(uint)... */\n    tag_64:\n        /* \"contracts/MarketPlace.sol\":1678:1682  uint */\n      0x00\n        /* \"contracts/MarketPlace.sol\":1701:1715  uint randNonce */\n      dup1\n        /* \"contracts/MarketPlace.sol\":1725:1736  randNonce++ */\n      dup1\n      dup1\n      tag_199\n      swap1\n      tag_200\n      jump\t// in\n    tag_199:\n      swap2\n      pop\n      pop\n        /* \"contracts/MarketPlace.sol\":1827:1835  _modulus */\n      dup3\n        /* \"contracts/MarketPlace.sol\":1785:1800  block.timestamp */\n      timestamp\n        /* \"contracts/MarketPlace.sol\":1801:1811  msg.sender */\n      caller\n        /* \"contracts/MarketPlace.sol\":1812:1821  randNonce */\n      dup4\n        /* \"contracts/MarketPlace.sol\":1768:1822  abi.encodePacked(block.timestamp,msg.sender,randNonce) */\n      add(0x20, mload(0x40))\n      tag_201\n      swap4\n      swap3\n      swap2\n      swap1\n      tag_202\n      jump\t// in\n    tag_201:\n      mload(0x40)\n      0x20\n      dup2\n      dup4\n      sub\n      sub\n      dup2\n      mstore\n      swap1\n      0x40\n      mstore\n        /* \"contracts/MarketPlace.sol\":1758:1823  keccak256(abi.encodePacked(block.timestamp,msg.sender,randNonce)) */\n      dup1\n      mload\n      swap1\n      0x20\n      add\n      keccak256\n        /* \"contracts/MarketPlace.sol\":1753:1824  uint(keccak256(abi.encodePacked(block.timestamp,msg.sender,randNonce))) */\n      0x00\n      shr\n        /* \"contracts/MarketPlace.sol\":1753:1835  uint(keccak256(abi.encodePacked(block.timestamp,msg.sender,randNonce))) % _modulus */\n      tag_203\n      swap2\n      swap1\n      tag_204\n      jump\t// in\n    tag_203:\n        /* \"contracts/MarketPlace.sol\":1746:1835  return uint(keccak256(abi.encodePacked(block.timestamp,msg.sender,randNonce))) % _modulus */\n      swap2\n      pop\n      pop\n        /* \"contracts/MarketPlace.sol\":1626:1842  function randMod(uint _modulus) public view returns(uint)... */\n      swap2\n      swap1\n      pop\n      jump\t// out\n        /* \"contracts/MarketPlace.sol\":1999:2295  function addItemsSupplier(uint _inStock, uint _price, string calldata _name, uint _expDate, address _addressSupp) public AccessControl(Role.Supplier, _addressSupp) {... */\n    tag_71:\n        /* \"contracts/MarketPlace.sol\":2134:2147  Role.Supplier */\n      0x02\n        /* \"contracts/MarketPlace.sol\":2149:2161  _addressSupp */\n      dup2\n        /* \"contracts/MarketPlace.sol\":959:964  _role */\n      dup2\n        /* \"contracts/MarketPlace.sol\":933:964  users[msg.sender].role == _role */\n      0x02\n      dup2\n      gt\n      iszero\n      tag_206\n      jumpi\n      tag_207\n      tag_113\n      jump\t// in\n    tag_207:\n    tag_206:\n        /* \"contracts/MarketPlace.sol\":933:938  users */\n      0x02\n        /* \"contracts/MarketPlace.sol\":933:950  users[msg.sender] */\n      0x00\n        /* \"contracts/MarketPlace.sol\":939:949  msg.sender */\n      caller\n        /* \"contracts/MarketPlace.sol\":933:950  users[msg.sender] */\n      0xffffffffffffffffffffffffffffffffffffffff\n      and\n      0xffffffffffffffffffffffffffffffffffffffff\n      and\n      dup2\n      mstore\n      0x20\n      add\n      swap1\n      dup2\n      mstore\n      0x20\n      add\n      0x00\n      keccak256\n        /* \"contracts/MarketPlace.sol\":933:955  users[msg.sender].role */\n      0x00\n      add\n      0x00\n      swap1\n      sload\n      swap1\n      0x0100\n      exp\n      swap1\n      div\n      0xff\n      and\n        /* \"contracts/MarketPlace.sol\":933:964  users[msg.sender].role == _role */\n      0x02\n      dup2\n      gt\n      iszero\n      tag_208\n      jumpi\n      tag_209\n      tag_113\n      jump\t// in\n    tag_209:\n    tag_208:\n      eq\n        /* \"contracts/MarketPlace.sol\":925:976  require(users[msg.sender].role == _role, unicode\"\") */\n      tag_210\n      jumpi\n      mload(0x40)\n      0x08c379a000000000000000000000000000000000000000000000000000000000\n      dup2\n      mstore\n      0x04\n      add\n      tag_211\n      swap1\n      tag_118\n      jump\t// in\n    tag_211:\n      mload(0x40)\n      dup1\n      swap2\n      sub\n      swap1\n      revert\n    tag_210:\n        /* \"contracts/MarketPlace.sol\":1008:1013  _shop */\n      dup1\n        /* \"contracts/MarketPlace.sol\":994:1013  msg.sender == _shop */\n      0xffffffffffffffffffffffffffffffffffffffff\n      and\n        /* \"contracts/MarketPlace.sol\":994:1004  msg.sender */\n      caller\n        /* \"contracts/MarketPlace.sol\":994:1013  msg.sender == _shop */\n      0xffffffffffffffffffffffffffffffffffffffff\n      and\n      eq\n        /* \"contracts/MarketPlace.sol\":986:1092  require(msg.sender == _shop, unicode\"Магазин не соответсвует отправителю\") */\n      tag_212\n      jumpi\n      mload(0x40)\n      0x08c379a000000000000000000000000000000000000000000000000000000000\n      dup2\n      mstore\n      0x04\n      add\n      tag_213\n      swap1\n      tag_121\n      jump\t// in\n    tag_213:\n      mload(0x40)\n      dup1\n      swap2\n      sub\n      swap1\n      revert\n    tag_212:\n        /* \"contracts/MarketPlace.sol\":2173:2192  Product memory item */\n      0x00\n        /* \"contracts/MarketPlace.sol\":2195:2241  Product(_inStock, _price / 2, _name, _expDate) */\n      mload(0x40)\n      dup1\n      0x80\n      add\n      0x40\n      mstore\n      dup1\n        /* \"contracts/MarketPlace.sol\":2203:2211  _inStock */\n      dup11\n        /* \"contracts/MarketPlace.sol\":2195:2241  Product(_inStock, _price / 2, _name, _expDate) */\n      dup2\n      mstore\n      0x20\n      add\n        /* \"contracts/MarketPlace.sol\":2222:2223  2 */\n      0x02\n        /* \"contracts/MarketPlace.sol\":2213:2219  _price */\n      dup11\n        /* \"contracts/MarketPlace.sol\":2213:2223  _price / 2 */\n      tag_215\n      swap2\n      swap1\n      tag_216\n      jump\t// in\n    tag_215:\n        /* \"contracts/MarketPlace.sol\":2195:2241  Product(_inStock, _price / 2, _name, _expDate) */\n      dup2\n      mstore\n      0x20\n      add\n        /* \"contracts/MarketPlace.sol\":2225:2230  _name */\n      dup9\n      dup9\n        /* \"contracts/MarketPlace.sol\":2195:2241  Product(_inStock, _price / 2, _name, _expDate) */\n      dup1\n      dup1\n      0x1f\n      add\n      0x20\n      dup1\n      swap2\n      div\n      mul\n      0x20\n      add\n      mload(0x40)\n      swap1\n      dup2\n      add\n      0x40\n      mstore\n      dup1\n      swap4\n      swap3\n      swap2\n      swap1\n      dup2\n      dup2\n      mstore\n      0x20\n      add\n      dup4\n      dup4\n      dup1\n      dup3\n      dup5\n      calldatacopy\n      0x00\n      dup2\n      dup5\n      add\n      mstore\n      not(0x1f)\n      0x1f\n      dup3\n      add\n      and\n      swap1\n      pop\n      dup1\n      dup4\n      add\n      swap3\n      pop\n      pop\n      pop\n      pop\n      pop\n      pop\n      pop\n      dup2\n      mstore\n      0x20\n      add\n        /* \"contracts/MarketPlace.sol\":2232:2240  _expDate */\n      dup7\n        /* \"contracts/MarketPlace.sol\":2195:2241  Product(_inStock, _price / 2, _name, _expDate) */\n      dup2\n      mstore\n      pop\n        /* \"contracts/MarketPlace.sol\":2173:2241  Product memory item = Product(_inStock, _price / 2, _name, _expDate) */\n      swap1\n      pop\n        /* \"contracts/MarketPlace.sol\":2251:2263  userProducts */\n      0x03\n        /* \"contracts/MarketPlace.sol\":2251:2277  userProducts[_addressSupp] */\n      0x00\n        /* \"contracts/MarketPlace.sol\":2264:2276  _addressSupp */\n      dup6\n        /* \"contracts/MarketPlace.sol\":2251:2277  userProducts[_addressSupp] */\n      0xffffffffffffffffffffffffffffffffffffffff\n      and\n      0xffffffffffffffffffffffffffffffffffffffff\n      and\n      dup2\n      mstore\n      0x20\n      add\n      swap1\n      dup2\n      mstore\n      0x20\n      add\n      0x00\n      keccak256\n        /* \"contracts/MarketPlace.sol\":2283:2287  item */\n      dup2\n        /* \"contracts/MarketPlace.sol\":2251:2288  userProducts[_addressSupp].push(item) */\n      swap1\n      dup1\n      0x01\n      dup2\n      sload\n      add\n      dup1\n      dup3\n      sstore\n      dup1\n      swap2\n      pop\n      pop\n      0x01\n      swap1\n      sub\n      swap1\n      0x00\n      mstore\n      keccak256(0x00, 0x20)\n      swap1\n      0x04\n      mul\n      add\n      0x00\n      swap1\n      swap2\n      swap1\n      swap2\n      swap1\n      swap2\n      pop\n      0x00\n      dup3\n      add\n      mload\n      dup2\n      0x00\n      add\n      sstore\n      0x20\n      dup3\n      add\n      mload\n      dup2\n      0x01\n      add\n      sstore\n      0x40\n      dup3\n      add\n      mload\n      dup2\n      0x02\n      add\n      swap1\n      dup2\n      tag_218\n      swap2\n      swap1\n      tag_125\n      jump\t// in\n    tag_218:\n      pop\n      0x60\n      dup3\n      add\n      mload\n      dup2\n      0x03\n      add\n      sstore\n      pop\n      pop\n        /* \"contracts/MarketPlace.sol\":2163:2295  {... */\n      pop\n        /* \"contracts/MarketPlace.sol\":1999:2295  function addItemsSupplier(uint _inStock, uint _price, string calldata _name, uint _expDate, address _addressSupp) public AccessControl(Role.Supplier, _addressSupp) {... */\n      pop\n      pop\n      pop\n      pop\n      pop\n      pop\n      pop\n      pop\n      jump\t// out\n        /* \"contracts/MarketPlace.sol\":299:319  address public owner */\n    tag_74:\n      0x01\n      0x00\n      swap1\n      sload\n      swap1\n      0x0100\n      exp\n      swap1\n      div\n      0xffffffffffffffffffffffffffffffffffffffff\n      and\n      dup2\n      jump\t// out\n        /* \"contracts/MarketPlace.sol\":5476:7401  function purchase(address _shop, uint _amount, uint _id, string memory _ref ) public payable {... */\n    tag_80:\n        /* \"contracts/MarketPlace.sol\":5609:5618  Role.User */\n      0x00\n        /* \"contracts/MarketPlace.sol\":5583:5618  users[msg.sender].role == Role.User */\n      0x02\n      dup2\n      gt\n      iszero\n      tag_220\n      jumpi\n      tag_221\n      tag_113\n      jump\t// in\n    tag_221:\n    tag_220:\n        /* \"contracts/MarketPlace.sol\":5583:5588  users */\n      0x02\n        /* \"contracts/MarketPlace.sol\":5583:5600  users[msg.sender] */\n      0x00\n        /* \"contracts/MarketPlace.sol\":5589:5599  msg.sender */\n      caller\n        /* \"contracts/MarketPlace.sol\":5583:5600  users[msg.sender] */\n      0xffffffffffffffffffffffffffffffffffffffff\n      and\n      0xffffffffffffffffffffffffffffffffffffffff\n      and\n      dup2\n      mstore\n      0x20\n      add\n      swap1\n      dup2\n      mstore\n      0x20\n      add\n      0x00\n      keccak256\n        /* \"contracts/MarketPlace.sol\":5583:5605  users[msg.sender].role */\n      0x00\n      add\n      0x00\n      swap1\n      sload\n      swap1\n      0x0100\n      exp\n      swap1\n      div\n      0xff\n      and\n        /* \"contracts/MarketPlace.sol\":5583:5618  users[msg.sender].role == Role.User */\n      0x02\n      dup2\n      gt\n      iszero\n      tag_222\n      jumpi\n      tag_223\n      tag_113\n      jump\t// in\n    tag_223:\n    tag_222:\n      sub\n        /* \"contracts/MarketPlace.sol\":5579:5684  if (users[msg.sender].role == Role.User) {... */\n      tag_224\n      jumpi\n        /* \"contracts/MarketPlace.sol\":5654:5673  User( Role.User, 0) */\n      mload(0x40)\n      dup1\n      0x40\n      add\n      0x40\n      mstore\n      dup1\n        /* \"contracts/MarketPlace.sol\":5660:5669  Role.User */\n      0x00\n        /* \"contracts/MarketPlace.sol\":5654:5673  User( Role.User, 0) */\n      0x02\n      dup2\n      gt\n      iszero\n      tag_225\n      jumpi\n      tag_226\n      tag_113\n      jump\t// in\n    tag_226:\n    tag_225:\n      dup2\n      mstore\n      0x20\n      add\n        /* \"contracts/MarketPlace.sol\":5671:5672  0 */\n      0x00\n        /* \"contracts/MarketPlace.sol\":5654:5673  User( Role.User, 0) */\n      dup2\n      mstore\n      pop\n        /* \"contracts/MarketPlace.sol\":5634:5639  users */\n      0x02\n        /* \"contracts/MarketPlace.sol\":5634:5651  users[msg.sender] */\n      0x00\n        /* \"contracts/MarketPlace.sol\":5640:5650  msg.sender */\n      caller\n        /* \"contracts/MarketPlace.sol\":5634:5651  users[msg.sender] */\n      0xffffffffffffffffffffffffffffffffffffffff\n      and\n      0xffffffffffffffffffffffffffffffffffffffff\n      and\n      dup2\n      mstore\n      0x20\n      add\n      swap1\n      dup2\n      mstore\n      0x20\n      add\n      0x00\n      keccak256\n        /* \"contracts/MarketPlace.sol\":5634:5673  users[msg.sender] = User( Role.User, 0) */\n      0x00\n      dup3\n      add\n      mload\n      dup2\n      0x00\n      add\n      exp(0x0100, 0x00)\n      dup2\n      sload\n      dup2\n      0xff\n      mul\n      not\n      and\n      swap1\n      dup4\n      0x02\n      dup2\n      gt\n      iszero\n      tag_227\n      jumpi\n      tag_228\n      tag_113\n      jump\t// in\n    tag_228:\n    tag_227:\n      mul\n      or\n      swap1\n      sstore\n      pop\n      0x20\n      dup3\n      add\n      mload\n      dup2\n      0x01\n      add\n      sstore\n      swap1\n      pop\n      pop\n        /* \"contracts/MarketPlace.sol\":5579:5684  if (users[msg.sender].role == Role.User) {... */\n    tag_224:\n        /* \"contracts/MarketPlace.sol\":5720:5721  0 */\n      0x00\n        /* \"contracts/MarketPlace.sol\":5710:5717  _amount */\n      dup4\n        /* \"contracts/MarketPlace.sol\":5710:5721  _amount > 0 */\n      gt\n        /* \"contracts/MarketPlace.sol\":5702:5764  require(_amount > 0, \"Purchase amount must be greater than 0\") */\n      tag_229\n      jumpi\n      mload(0x40)\n      0x08c379a000000000000000000000000000000000000000000000000000000000\n      dup2\n      mstore\n      0x04\n      add\n      tag_230\n      swap1\n      tag_231\n      jump\t// in\n    tag_230:\n      mload(0x40)\n      dup1\n      swap2\n      sub\n      swap1\n      revert\n    tag_229:\n        /* \"contracts/MarketPlace.sol\":5788:5800  userProducts */\n      0x03\n        /* \"contracts/MarketPlace.sol\":5788:5807  userProducts[_shop] */\n      0x00\n        /* \"contracts/MarketPlace.sol\":5801:5806  _shop */\n      dup6\n        /* \"contracts/MarketPlace.sol\":5788:5807  userProducts[_shop] */\n      0xffffffffffffffffffffffffffffffffffffffff\n      and\n      0xffffffffffffffffffffffffffffffffffffffff\n      and\n      dup2\n      mstore\n      0x20\n      add\n      swap1\n      dup2\n      mstore\n      0x20\n      add\n      0x00\n      keccak256\n        /* \"contracts/MarketPlace.sol\":5788:5814  userProducts[_shop].length */\n      dup1\n      sload\n      swap1\n      pop\n        /* \"contracts/MarketPlace.sol\":5782:5785  _id */\n      dup3\n        /* \"contracts/MarketPlace.sol\":5782:5814  _id < userProducts[_shop].length */\n      lt\n        /* \"contracts/MarketPlace.sol\":5774:5837  require(_id < userProducts[_shop].length, \"Invalid product ID\") */\n      tag_232\n      jumpi\n      mload(0x40)\n      0x08c379a000000000000000000000000000000000000000000000000000000000\n      dup2\n      mstore\n      0x04\n      add\n      tag_233\n      swap1\n      tag_234\n      jump\t// in\n    tag_233:\n      mload(0x40)\n      dup1\n      swap2\n      sub\n      swap1\n      revert\n    tag_232:\n        /* \"contracts/MarketPlace.sol\":5866:5878  userProducts */\n      0x03\n        /* \"contracts/MarketPlace.sol\":5866:5885  userProducts[_shop] */\n      0x00\n        /* \"contracts/MarketPlace.sol\":5879:5884  _shop */\n      dup6\n        /* \"contracts/MarketPlace.sol\":5866:5885  userProducts[_shop] */\n      0xffffffffffffffffffffffffffffffffffffffff\n      and\n      0xffffffffffffffffffffffffffffffffffffffff\n      and\n      dup2\n      mstore\n      0x20\n      add\n      swap1\n      dup2\n      mstore\n      0x20\n      add\n      0x00\n      keccak256\n        /* \"contracts/MarketPlace.sol\":5886:5889  _id */\n      dup3\n        /* \"contracts/MarketPlace.sol\":5866:5890  userProducts[_shop][_id] */\n      dup2\n      sload\n      dup2\n      lt\n      tag_235\n      jumpi\n      tag_236\n      tag_142\n      jump\t// in\n    tag_236:\n    tag_235:\n      swap1\n      0x00\n      mstore\n      keccak256(0x00, 0x20)\n      swap1\n      0x04\n      mul\n      add\n        /* \"contracts/MarketPlace.sol\":5866:5898  userProducts[_shop][_id].inStock */\n      0x00\n      add\n      sload\n        /* \"contracts/MarketPlace.sol\":5855:5862  _amount */\n      dup4\n        /* \"contracts/MarketPlace.sol\":5855:5898  _amount <= userProducts[_shop][_id].inStock */\n      gt\n      iszero\n        /* \"contracts/MarketPlace.sol\":5847:5929  require(_amount <= userProducts[_shop][_id].inStock, \"Not enough stock available\") */\n      tag_238\n      jumpi\n      mload(0x40)\n      0x08c379a000000000000000000000000000000000000000000000000000000000\n      dup2\n      mstore\n      0x04\n      add\n      tag_239\n      swap1\n      tag_240\n      jump\t// in\n    tag_239:\n      mload(0x40)\n      dup1\n      swap2\n      sub\n      swap1\n      revert\n    tag_238:\n        /* \"contracts/MarketPlace.sol\":5940:5955  uint totalPrice */\n      0x00\n        /* \"contracts/MarketPlace.sol\":6001:6008  1 ether */\n      0x0de0b6b3a7640000\n        /* \"contracts/MarketPlace.sol\":5968:5980  userProducts */\n      0x03\n        /* \"contracts/MarketPlace.sol\":5968:5987  userProducts[_shop] */\n      0x00\n        /* \"contracts/MarketPlace.sol\":5981:5986  _shop */\n      dup8\n        /* \"contracts/MarketPlace.sol\":5968:5987  userProducts[_shop] */\n      0xffffffffffffffffffffffffffffffffffffffff\n      and\n      0xffffffffffffffffffffffffffffffffffffffff\n      and\n      dup2\n      mstore\n      0x20\n      add\n      swap1\n      dup2\n      mstore\n      0x20\n      add\n      0x00\n      keccak256\n        /* \"contracts/MarketPlace.sol\":5988:5991  _id */\n      dup5\n        /* \"contracts/MarketPlace.sol\":5968:5992  userProducts[_shop][_id] */\n      dup2\n      sload\n      dup2\n      lt\n      tag_241\n      jumpi\n      tag_242\n      tag_142\n      jump\t// in\n    tag_242:\n    tag_241:\n      swap1\n      0x00\n      mstore\n      keccak256(0x00, 0x20)\n      swap1\n      0x04\n      mul\n      add\n        /* \"contracts/MarketPlace.sol\":5968:5998  userProducts[_shop][_id].price */\n      0x01\n      add\n      sload\n        /* \"contracts/MarketPlace.sol\":5958:5965  _amount */\n      dup6\n        /* \"contracts/MarketPlace.sol\":5958:5998  _amount * userProducts[_shop][_id].price */\n      tag_244\n      swap2\n      swap1\n      tag_155\n      jump\t// in\n    tag_244:\n        /* \"contracts/MarketPlace.sol\":5958:6008  _amount * userProducts[_shop][_id].price * 1 ether */\n      tag_245\n      swap2\n      swap1\n      tag_155\n      jump\t// in\n    tag_245:\n        /* \"contracts/MarketPlace.sol\":5940:6008  uint totalPrice = _amount * userProducts[_shop][_id].price * 1 ether */\n      swap1\n      pop\n        /* \"contracts/MarketPlace.sol\":6042:6052  msg.sender */\n      caller\n        /* \"contracts/MarketPlace.sol\":6023:6052  referrals[_ref] == msg.sender */\n      0xffffffffffffffffffffffffffffffffffffffff\n      and\n        /* \"contracts/MarketPlace.sol\":6023:6032  referrals */\n      0x04\n        /* \"contracts/MarketPlace.sol\":6033:6037  _ref */\n      dup4\n        /* \"contracts/MarketPlace.sol\":6023:6038  referrals[_ref] */\n      mload(0x40)\n      tag_246\n      swap2\n      swap1\n      tag_247\n      jump\t// in\n    tag_246:\n      swap1\n      dup2\n      mstore\n      0x20\n      add\n      mload(0x40)\n      dup1\n      swap2\n      sub\n      swap1\n      keccak256\n      0x00\n      swap1\n      sload\n      swap1\n      0x0100\n      exp\n      swap1\n      div\n      0xffffffffffffffffffffffffffffffffffffffff\n      and\n        /* \"contracts/MarketPlace.sol\":6023:6052  referrals[_ref] == msg.sender */\n      0xffffffffffffffffffffffffffffffffffffffff\n      and\n      sub\n        /* \"contracts/MarketPlace.sol\":6019:6157  if (referrals[_ref] == msg.sender) {... */\n      tag_248\n      jumpi\n        /* \"contracts/MarketPlace.sol\":6100:6103  100 */\n      0x64\n        /* \"contracts/MarketPlace.sol\":6095:6097  90 */\n      0x5a\n        /* \"contracts/MarketPlace.sol\":6082:6092  totalPrice */\n      dup3\n        /* \"contracts/MarketPlace.sol\":6082:6097  totalPrice * 90 */\n      tag_249\n      swap2\n      swap1\n      tag_155\n      jump\t// in\n    tag_249:\n        /* \"contracts/MarketPlace.sol\":6082:6103  totalPrice * 90 / 100 */\n      tag_250\n      swap2\n      swap1\n      tag_216\n      jump\t// in\n    tag_250:\n        /* \"contracts/MarketPlace.sol\":6068:6104  totalPrice = (totalPrice * 90 / 100) */\n      swap1\n      pop\n        /* \"contracts/MarketPlace.sol\":6144:6145  0 */\n      0x00\n        /* \"contracts/MarketPlace.sol\":6118:6127  referrals */\n      0x04\n        /* \"contracts/MarketPlace.sol\":6128:6132  _ref */\n      dup4\n        /* \"contracts/MarketPlace.sol\":6118:6133  referrals[_ref] */\n      mload(0x40)\n      tag_251\n      swap2\n      swap1\n      tag_247\n      jump\t// in\n    tag_251:\n      swap1\n      dup2\n      mstore\n      0x20\n      add\n      mload(0x40)\n      dup1\n      swap2\n      sub\n      swap1\n      keccak256\n      0x00\n        /* \"contracts/MarketPlace.sol\":6118:6146  referrals[_ref] = address(0) */\n      0x0100\n      exp\n      dup2\n      sload\n      dup2\n      0xffffffffffffffffffffffffffffffffffffffff\n      mul\n      not\n      and\n      swap1\n      dup4\n      0xffffffffffffffffffffffffffffffffffffffff\n      and\n      mul\n      or\n      swap1\n      sstore\n      pop\n        /* \"contracts/MarketPlace.sol\":6019:6157  if (referrals[_ref] == msg.sender) {... */\n    tag_248:\n        /* \"contracts/MarketPlace.sol\":6187:6197  totalPrice */\n      dup1\n        /* \"contracts/MarketPlace.sol\":6174:6183  msg.value */\n      callvalue\n        /* \"contracts/MarketPlace.sol\":6174:6197  msg.value >= totalPrice */\n      lt\n      iszero\n        /* \"contracts/MarketPlace.sol\":6166:6225  require(msg.value >= totalPrice, \"Insufficient funds sent\") */\n      tag_252\n      jumpi\n      mload(0x40)\n      0x08c379a000000000000000000000000000000000000000000000000000000000\n      dup2\n      mstore\n      0x04\n      add\n      tag_253\n      swap1\n      tag_254\n      jump\t// in\n    tag_253:\n      mload(0x40)\n      dup1\n      swap2\n      sub\n      swap1\n      revert\n    tag_252:\n        /* \"contracts/MarketPlace.sol\":6326:6344  bool productExists */\n      0x00\n        /* \"contracts/MarketPlace.sol\":6367:6373  uint i */\n      dup1\n        /* \"contracts/MarketPlace.sol\":6362:6769  for (uint i = 0; i < userProducts[msg.sender].length; i++) {... */\n    tag_255:\n        /* \"contracts/MarketPlace.sol\":6383:6395  userProducts */\n      0x03\n        /* \"contracts/MarketPlace.sol\":6383:6407  userProducts[msg.sender] */\n      0x00\n        /* \"contracts/MarketPlace.sol\":6396:6406  msg.sender */\n      caller\n        /* \"contracts/MarketPlace.sol\":6383:6407  userProducts[msg.sender] */\n      0xffffffffffffffffffffffffffffffffffffffff\n      and\n      0xffffffffffffffffffffffffffffffffffffffff\n      and\n      dup2\n      mstore\n      0x20\n      add\n      swap1\n      dup2\n      mstore\n      0x20\n      add\n      0x00\n      keccak256\n        /* \"contracts/MarketPlace.sol\":6383:6414  userProducts[msg.sender].length */\n      dup1\n      sload\n      swap1\n      pop\n        /* \"contracts/MarketPlace.sol\":6379:6380  i */\n      dup2\n        /* \"contracts/MarketPlace.sol\":6379:6414  i < userProducts[msg.sender].length */\n      lt\n        /* \"contracts/MarketPlace.sol\":6362:6769  for (uint i = 0; i < userProducts[msg.sender].length; i++) {... */\n      iszero\n      tag_256\n      jumpi\n        /* \"contracts/MarketPlace.sol\":6509:6521  userProducts */\n      0x03\n        /* \"contracts/MarketPlace.sol\":6509:6528  userProducts[_shop] */\n      0x00\n        /* \"contracts/MarketPlace.sol\":6522:6527  _shop */\n      dup9\n        /* \"contracts/MarketPlace.sol\":6509:6528  userProducts[_shop] */\n      0xffffffffffffffffffffffffffffffffffffffff\n      and\n      0xffffffffffffffffffffffffffffffffffffffff\n      and\n      dup2\n      mstore\n      0x20\n      add\n      swap1\n      dup2\n      mstore\n      0x20\n      add\n      0x00\n      keccak256\n        /* \"contracts/MarketPlace.sol\":6529:6532  _id */\n      dup6\n        /* \"contracts/MarketPlace.sol\":6509:6533  userProducts[_shop][_id] */\n      dup2\n      sload\n      dup2\n      lt\n      tag_258\n      jumpi\n      tag_259\n      tag_142\n      jump\t// in\n    tag_259:\n    tag_258:\n      swap1\n      0x00\n      mstore\n      keccak256(0x00, 0x20)\n      swap1\n      0x04\n      mul\n      add\n        /* \"contracts/MarketPlace.sol\":6509:6538  userProducts[_shop][_id].name */\n      0x02\n      add\n        /* \"contracts/MarketPlace.sol\":6493:6540  keccak256(bytes(userProducts[_shop][_id].name)) */\n      mload(0x40)\n      tag_261\n      swap2\n      swap1\n      tag_262\n      jump\t// in\n    tag_261:\n      mload(0x40)\n      dup1\n      swap2\n      sub\n      swap1\n      keccak256\n        /* \"contracts/MarketPlace.sol\":6455:6467  userProducts */\n      0x03\n        /* \"contracts/MarketPlace.sol\":6455:6479  userProducts[msg.sender] */\n      0x00\n        /* \"contracts/MarketPlace.sol\":6468:6478  msg.sender */\n      caller\n        /* \"contracts/MarketPlace.sol\":6455:6479  userProducts[msg.sender] */\n      0xffffffffffffffffffffffffffffffffffffffff\n      and\n      0xffffffffffffffffffffffffffffffffffffffff\n      and\n      dup2\n      mstore\n      0x20\n      add\n      swap1\n      dup2\n      mstore\n      0x20\n      add\n      0x00\n      keccak256\n        /* \"contracts/MarketPlace.sol\":6480:6481  i */\n      dup3\n        /* \"contracts/MarketPlace.sol\":6455:6482  userProducts[msg.sender][i] */\n      dup2\n      sload\n      dup2\n      lt\n      tag_263\n      jumpi\n      tag_264\n      tag_142\n      jump\t// in\n    tag_264:\n    tag_263:\n      swap1\n      0x00\n      mstore\n      keccak256(0x00, 0x20)\n      swap1\n      0x04\n      mul\n      add\n        /* \"contracts/MarketPlace.sol\":6455:6487  userProducts[msg.sender][i].name */\n      0x02\n      add\n        /* \"contracts/MarketPlace.sol\":6439:6489  keccak256(bytes(userProducts[msg.sender][i].name)) */\n      mload(0x40)\n      tag_266\n      swap2\n      swap1\n      tag_262\n      jump\t// in\n    tag_266:\n      mload(0x40)\n      dup1\n      swap2\n      sub\n      swap1\n      keccak256\n        /* \"contracts/MarketPlace.sol\":6439:6540  keccak256(bytes(userProducts[msg.sender][i].name)) == keccak256(bytes(userProducts[_shop][_id].name)) */\n      sub\n        /* \"contracts/MarketPlace.sol\":6435:6759  if (keccak256(bytes(userProducts[msg.sender][i].name)) == keccak256(bytes(userProducts[_shop][_id].name))) {... */\n      tag_267\n      jumpi\n        /* \"contracts/MarketPlace.sol\":6599:6606  _amount */\n      dup6\n        /* \"contracts/MarketPlace.sol\":6560:6572  userProducts */\n      0x03\n        /* \"contracts/MarketPlace.sol\":6560:6584  userProducts[msg.sender] */\n      0x00\n        /* \"contracts/MarketPlace.sol\":6573:6583  msg.sender */\n      caller\n        /* \"contracts/MarketPlace.sol\":6560:6584  userProducts[msg.sender] */\n      0xffffffffffffffffffffffffffffffffffffffff\n      and\n      0xffffffffffffffffffffffffffffffffffffffff\n      and\n      dup2\n      mstore\n      0x20\n      add\n      swap1\n      dup2\n      mstore\n      0x20\n      add\n      0x00\n      keccak256\n        /* \"contracts/MarketPlace.sol\":6585:6586  i */\n      dup3\n        /* \"contracts/MarketPlace.sol\":6560:6587  userProducts[msg.sender][i] */\n      dup2\n      sload\n      dup2\n      lt\n      tag_268\n      jumpi\n      tag_269\n      tag_142\n      jump\t// in\n    tag_269:\n    tag_268:\n      swap1\n      0x00\n      mstore\n      keccak256(0x00, 0x20)\n      swap1\n      0x04\n      mul\n      add\n        /* \"contracts/MarketPlace.sol\":6560:6595  userProducts[msg.sender][i].inStock */\n      0x00\n      add\n      0x00\n        /* \"contracts/MarketPlace.sol\":6560:6606  userProducts[msg.sender][i].inStock += _amount */\n      dup3\n      dup3\n      sload\n      tag_271\n      swap2\n      swap1\n      tag_164\n      jump\t// in\n    tag_271:\n      swap3\n      pop\n      pop\n      dup2\n      swap1\n      sstore\n      pop\n        /* \"contracts/MarketPlace.sol\":6640:6644  true */\n      0x01\n        /* \"contracts/MarketPlace.sol\":6624:6644  productExists = true */\n      swap2\n      pop\n        /* \"contracts/MarketPlace.sol\":6662:6667  break */\n      jump(tag_256)\n        /* \"contracts/MarketPlace.sol\":6435:6759  if (keccak256(bytes(userProducts[msg.sender][i].name)) == keccak256(bytes(userProducts[_shop][_id].name))) {... */\n    tag_267:\n        /* \"contracts/MarketPlace.sol\":6416:6419  i++ */\n      dup1\n      dup1\n      tag_272\n      swap1\n      tag_200\n      jump\t// in\n    tag_272:\n      swap2\n      pop\n      pop\n        /* \"contracts/MarketPlace.sol\":6362:6769  for (uint i = 0; i < userProducts[msg.sender].length; i++) {... */\n      jump(tag_255)\n    tag_256:\n      pop\n        /* \"contracts/MarketPlace.sol\":6864:6877  productExists */\n      dup1\n        /* \"contracts/MarketPlace.sol\":6859:7144  if (!productExists) {... */\n      tag_273\n      jumpi\n        /* \"contracts/MarketPlace.sol\":6962:6984  Product memory newItem */\n      0x00\n        /* \"contracts/MarketPlace.sol\":6987:7081  Product(_amount, userProducts[_shop][_id].price, userProducts[_shop][_id].name, randMod(1000)) */\n      mload(0x40)\n      dup1\n      0x80\n      add\n      0x40\n      mstore\n      dup1\n        /* \"contracts/MarketPlace.sol\":6995:7002  _amount */\n      dup8\n        /* \"contracts/MarketPlace.sol\":6987:7081  Product(_amount, userProducts[_shop][_id].price, userProducts[_shop][_id].name, randMod(1000)) */\n      dup2\n      mstore\n      0x20\n      add\n        /* \"contracts/MarketPlace.sol\":7004:7016  userProducts */\n      0x03\n        /* \"contracts/MarketPlace.sol\":7004:7023  userProducts[_shop] */\n      0x00\n        /* \"contracts/MarketPlace.sol\":7017:7022  _shop */\n      dup11\n        /* \"contracts/MarketPlace.sol\":7004:7023  userProducts[_shop] */\n      0xffffffffffffffffffffffffffffffffffffffff\n      and\n      0xffffffffffffffffffffffffffffffffffffffff\n      and\n      dup2\n      mstore\n      0x20\n      add\n      swap1\n      dup2\n      mstore\n      0x20\n      add\n      0x00\n      keccak256\n        /* \"contracts/MarketPlace.sol\":7024:7027  _id */\n      dup8\n        /* \"contracts/MarketPlace.sol\":7004:7028  userProducts[_shop][_id] */\n      dup2\n      sload\n      dup2\n      lt\n      tag_274\n      jumpi\n      tag_275\n      tag_142\n      jump\t// in\n    tag_275:\n    tag_274:\n      swap1\n      0x00\n      mstore\n      keccak256(0x00, 0x20)\n      swap1\n      0x04\n      mul\n      add\n        /* \"contracts/MarketPlace.sol\":7004:7034  userProducts[_shop][_id].price */\n      0x01\n      add\n      sload\n        /* \"contracts/MarketPlace.sol\":6987:7081  Product(_amount, userProducts[_shop][_id].price, userProducts[_shop][_id].name, randMod(1000)) */\n      dup2\n      mstore\n      0x20\n      add\n        /* \"contracts/MarketPlace.sol\":7036:7048  userProducts */\n      0x03\n        /* \"contracts/MarketPlace.sol\":7036:7055  userProducts[_shop] */\n      0x00\n        /* \"contracts/MarketPlace.sol\":7049:7054  _shop */\n      dup11\n        /* \"contracts/MarketPlace.sol\":7036:7055  userProducts[_shop] */\n      0xffffffffffffffffffffffffffffffffffffffff\n      and\n      0xffffffffffffffffffffffffffffffffffffffff\n      and\n      dup2\n      mstore\n      0x20\n      add\n      swap1\n      dup2\n      mstore\n      0x20\n      add\n      0x00\n      keccak256\n        /* \"contracts/MarketPlace.sol\":7056:7059  _id */\n      dup8\n        /* \"contracts/MarketPlace.sol\":7036:7060  userProducts[_shop][_id] */\n      dup2\n      sload\n      dup2\n      lt\n      tag_277\n      jumpi\n      tag_278\n      tag_142\n      jump\t// in\n    tag_278:\n    tag_277:\n      swap1\n      0x00\n      mstore\n      keccak256(0x00, 0x20)\n      swap1\n      0x04\n      mul\n      add\n        /* \"contracts/MarketPlace.sol\":7036:7065  userProducts[_shop][_id].name */\n      0x02\n      add\n        /* \"contracts/MarketPlace.sol\":6987:7081  Product(_amount, userProducts[_shop][_id].price, userProducts[_shop][_id].name, randMod(1000)) */\n      dup1\n      sload\n      tag_280\n      swap1\n      tag_129\n      jump\t// in\n    tag_280:\n      dup1\n      0x1f\n      add\n      0x20\n      dup1\n      swap2\n      div\n      mul\n      0x20\n      add\n      mload(0x40)\n      swap1\n      dup2\n      add\n      0x40\n      mstore\n      dup1\n      swap3\n      swap2\n      swap1\n      dup2\n      dup2\n      mstore\n      0x20\n      add\n      dup3\n      dup1\n      sload\n      tag_281\n      swap1\n      tag_129\n      jump\t// in\n    tag_281:\n      dup1\n      iszero\n      tag_282\n      jumpi\n      dup1\n      0x1f\n      lt\n      tag_283\n      jumpi\n      0x0100\n      dup1\n      dup4\n      sload\n      div\n      mul\n      dup4\n      mstore\n      swap2\n      0x20\n      add\n      swap2\n      jump(tag_282)\n    tag_283:\n      dup3\n      add\n      swap2\n      swap1\n      0x00\n      mstore\n      keccak256(0x00, 0x20)\n      swap1\n    tag_284:\n      dup2\n      sload\n      dup2\n      mstore\n      swap1\n      0x01\n      add\n      swap1\n      0x20\n      add\n      dup1\n      dup4\n      gt\n      tag_284\n      jumpi\n      dup3\n      swap1\n      sub\n      0x1f\n      and\n      dup3\n      add\n      swap2\n    tag_282:\n      pop\n      pop\n      pop\n      pop\n      pop\n      dup2\n      mstore\n      0x20\n      add\n        /* \"contracts/MarketPlace.sol\":7067:7080  randMod(1000) */\n      tag_285\n        /* \"contracts/MarketPlace.sol\":7075:7079  1000 */\n      0x03e8\n        /* \"contracts/MarketPlace.sol\":7067:7074  randMod */\n      tag_64\n        /* \"contracts/MarketPlace.sol\":7067:7080  randMod(1000) */\n      jump\t// in\n    tag_285:\n        /* \"contracts/MarketPlace.sol\":6987:7081  Product(_amount, userProducts[_shop][_id].price, userProducts[_shop][_id].name, randMod(1000)) */\n      dup2\n      mstore\n      pop\n        /* \"contracts/MarketPlace.sol\":6962:7081  Product memory newItem = Product(_amount, userProducts[_shop][_id].price, userProducts[_shop][_id].name, randMod(1000)) */\n      swap1\n      pop\n        /* \"contracts/MarketPlace.sol\":7095:7107  userProducts */\n      0x03\n        /* \"contracts/MarketPlace.sol\":7095:7119  userProducts[msg.sender] */\n      0x00\n        /* \"contracts/MarketPlace.sol\":7108:7118  msg.sender */\n      caller\n        /* \"contracts/MarketPlace.sol\":7095:7119  userProducts[msg.sender] */\n      0xffffffffffffffffffffffffffffffffffffffff\n      and\n      0xffffffffffffffffffffffffffffffffffffffff\n      and\n      dup2\n      mstore\n      0x20\n      add\n      swap1\n      dup2\n      mstore\n      0x20\n      add\n      0x00\n      keccak256\n        /* \"contracts/MarketPlace.sol\":7125:7132  newItem */\n      dup2\n        /* \"contracts/MarketPlace.sol\":7095:7133  userProducts[msg.sender].push(newItem) */\n      swap1\n      dup1\n      0x01\n      dup2\n      sload\n      add\n      dup1\n      dup3\n      sstore\n      dup1\n      swap2\n      pop\n      pop\n      0x01\n      swap1\n      sub\n      swap1\n      0x00\n      mstore\n      keccak256(0x00, 0x20)\n      swap1\n      0x04\n      mul\n      add\n      0x00\n      swap1\n      swap2\n      swap1\n      swap2\n      swap1\n      swap2\n      pop\n      0x00\n      dup3\n      add\n      mload\n      dup2\n      0x00\n      add\n      sstore\n      0x20\n      dup3\n      add\n      mload\n      dup2\n      0x01\n      add\n      sstore\n      0x40\n      dup3\n      add\n      mload\n      dup2\n      0x02\n      add\n      swap1\n      dup2\n      tag_287\n      swap2\n      swap1\n      tag_125\n      jump\t// in\n    tag_287:\n      pop\n      0x60\n      dup3\n      add\n      mload\n      dup2\n      0x03\n      add\n      sstore\n      pop\n      pop\n        /* \"contracts/MarketPlace.sol\":6879:7144  {... */\n      pop\n        /* \"contracts/MarketPlace.sol\":6859:7144  if (!productExists) {... */\n    tag_273:\n        /* \"contracts/MarketPlace.sol\":7190:7197  _amount */\n      dup5\n        /* \"contracts/MarketPlace.sol\":7154:7166  userProducts */\n      0x03\n        /* \"contracts/MarketPlace.sol\":7154:7173  userProducts[_shop] */\n      0x00\n        /* \"contracts/MarketPlace.sol\":7167:7172  _shop */\n      dup9\n        /* \"contracts/MarketPlace.sol\":7154:7173  userProducts[_shop] */\n      0xffffffffffffffffffffffffffffffffffffffff\n      and\n      0xffffffffffffffffffffffffffffffffffffffff\n      and\n      dup2\n      mstore\n      0x20\n      add\n      swap1\n      dup2\n      mstore\n      0x20\n      add\n      0x00\n      keccak256\n        /* \"contracts/MarketPlace.sol\":7174:7177  _id */\n      dup6\n        /* \"contracts/MarketPlace.sol\":7154:7178  userProducts[_shop][_id] */\n      dup2\n      sload\n      dup2\n      lt\n      tag_288\n      jumpi\n      tag_289\n      tag_142\n      jump\t// in\n    tag_289:\n    tag_288:\n      swap1\n      0x00\n      mstore\n      keccak256(0x00, 0x20)\n      swap1\n      0x04\n      mul\n      add\n        /* \"contracts/MarketPlace.sol\":7154:7186  userProducts[_shop][_id].inStock */\n      0x00\n      add\n      0x00\n        /* \"contracts/MarketPlace.sol\":7154:7197  userProducts[_shop][_id].inStock -= _amount */\n      dup3\n      dup3\n      sload\n      tag_291\n      swap2\n      swap1\n      tag_171\n      jump\t// in\n    tag_291:\n      swap3\n      pop\n      pop\n      dup2\n      swap1\n      sstore\n      pop\n        /* \"contracts/MarketPlace.sol\":7224:7234  totalPrice */\n      dup2\n        /* \"contracts/MarketPlace.sol\":7212:7221  msg.value */\n      callvalue\n        /* \"contracts/MarketPlace.sol\":7212:7234  msg.value > totalPrice */\n      gt\n        /* \"contracts/MarketPlace.sol\":7208:7347  if (msg.value > totalPrice) {... */\n      iszero\n      tag_292\n      jumpi\n        /* \"contracts/MarketPlace.sol\":7250:7261  uint change */\n      0x00\n        /* \"contracts/MarketPlace.sol\":7276:7286  totalPrice */\n      dup3\n        /* \"contracts/MarketPlace.sol\":7264:7273  msg.value */\n      callvalue\n        /* \"contracts/MarketPlace.sol\":7264:7286  msg.value - totalPrice */\n      tag_293\n      swap2\n      swap1\n      tag_171\n      jump\t// in\n    tag_293:\n        /* \"contracts/MarketPlace.sol\":7250:7286  uint change = msg.value - totalPrice */\n      swap1\n      pop\n        /* \"contracts/MarketPlace.sol\":7308:7318  msg.sender */\n      caller\n        /* \"contracts/MarketPlace.sol\":7300:7328  payable(msg.sender).transfer */\n      0xffffffffffffffffffffffffffffffffffffffff\n      and\n        /* \"contracts/MarketPlace.sol\":7300:7336  payable(msg.sender).transfer(change) */\n      0x08fc\n        /* \"contracts/MarketPlace.sol\":7329:7335  change */\n      dup3\n        /* \"contracts/MarketPlace.sol\":7300:7336  payable(msg.sender).transfer(change) */\n      swap1\n      dup2\n      iszero\n      mul\n      swap1\n      mload(0x40)\n      0x00\n      mload(0x40)\n      dup1\n      dup4\n      sub\n      dup2\n      dup6\n      dup9\n      dup9\n      call\n      swap4\n      pop\n      pop\n      pop\n      pop\n      iszero\n      dup1\n      iszero\n      tag_295\n      jumpi\n      returndatasize\n      0x00\n      dup1\n      returndatacopy\n      revert(0x00, returndatasize)\n    tag_295:\n      pop\n        /* \"contracts/MarketPlace.sol\":7236:7347  {... */\n      pop\n        /* \"contracts/MarketPlace.sol\":7208:7347  if (msg.value > totalPrice) {... */\n    tag_292:\n        /* \"contracts/MarketPlace.sol\":7379:7389  totalPrice */\n      dup2\n        /* \"contracts/MarketPlace.sol\":7356:7361  users */\n      0x02\n        /* \"contracts/MarketPlace.sol\":7356:7368  users[_shop] */\n      0x00\n        /* \"contracts/MarketPlace.sol\":7362:7367  _shop */\n      dup9\n        /* \"contracts/MarketPlace.sol\":7356:7368  users[_shop] */\n      0xffffffffffffffffffffffffffffffffffffffff\n      and\n      0xffffffffffffffffffffffffffffffffffffffff\n      and\n      dup2\n      mstore\n      0x20\n      add\n      swap1\n      dup2\n      mstore\n      0x20\n      add\n      0x00\n      keccak256\n        /* \"contracts/MarketPlace.sol\":7356:7376  users[_shop].balance */\n      0x01\n      add\n        /* \"contracts/MarketPlace.sol\":7356:7389  users[_shop].balance = totalPrice */\n      dup2\n      swap1\n      sstore\n      pop\n        /* \"contracts/MarketPlace.sol\":5569:7401  {... */\n      pop\n      pop\n        /* \"contracts/MarketPlace.sol\":5476:7401  function purchase(address _shop, uint _amount, uint _id, string memory _ref ) public payable {... */\n      pop\n      pop\n      pop\n      pop\n      jump\t// out\n        /* \"contracts/MarketPlace.sol\":1848:1992  function genRef(string memory _nameRef, address _user) public {... */\n    tag_85:\n        /* \"contracts/MarketPlace.sol\":1942:1947  _user */\n      dup1\n        /* \"contracts/MarketPlace.sol\":1928:1947  msg.sender != _user */\n      0xffffffffffffffffffffffffffffffffffffffff\n      and\n        /* \"contracts/MarketPlace.sol\":1928:1938  msg.sender */\n      caller\n        /* \"contracts/MarketPlace.sol\":1928:1947  msg.sender != _user */\n      0xffffffffffffffffffffffffffffffffffffffff\n      and\n      sub\n        /* \"contracts/MarketPlace.sol\":1920:1948  require(msg.sender != _user) */\n      tag_297\n      jumpi\n      0x00\n      dup1\n      revert\n    tag_297:\n        /* \"contracts/MarketPlace.sol\":1980:1985  _user */\n      dup1\n        /* \"contracts/MarketPlace.sol\":1958:1967  referrals */\n      0x04\n        /* \"contracts/MarketPlace.sol\":1968:1976  _nameRef */\n      dup4\n        /* \"contracts/MarketPlace.sol\":1958:1977  referrals[_nameRef] */\n      mload(0x40)\n      tag_298\n      swap2\n      swap1\n      tag_247\n      jump\t// in\n    tag_298:\n      swap1\n      dup2\n      mstore\n      0x20\n      add\n      mload(0x40)\n      dup1\n      swap2\n      sub\n      swap1\n      keccak256\n      0x00\n        /* \"contracts/MarketPlace.sol\":1958:1985  referrals[_nameRef] = _user */\n      0x0100\n      exp\n      dup2\n      sload\n      dup2\n      0xffffffffffffffffffffffffffffffffffffffff\n      mul\n      not\n      and\n      swap1\n      dup4\n      0xffffffffffffffffffffffffffffffffffffffff\n      and\n      mul\n      or\n      swap1\n      sstore\n      pop\n        /* \"contracts/MarketPlace.sol\":1848:1992  function genRef(string memory _nameRef, address _user) public {... */\n      pop\n      pop\n      jump\t// out\n        /* \"contracts/MarketPlace.sol\":631:668  mapping(address => User) public users */\n    tag_90:\n      mstore(0x20, 0x02)\n      dup1\n      0x00\n      mstore\n      keccak256(0x00, 0x40)\n      0x00\n      swap2\n      pop\n      swap1\n      pop\n      dup1\n      0x00\n      add\n      0x00\n      swap1\n      sload\n      swap1\n      0x0100\n      exp\n      swap1\n      div\n      0xff\n      and\n      swap1\n      dup1\n      0x01\n      add\n      sload\n      swap1\n      pop\n      dup3\n      jump\t// out\n        /* \"contracts/MarketPlace.sol\":1116:1198  function makeUser() public {... */\n    tag_95:\n        /* \"contracts/MarketPlace.sol\":1173:1191  User(Role.User, 0) */\n      mload(0x40)\n      dup1\n      0x40\n      add\n      0x40\n      mstore\n      dup1\n        /* \"contracts/MarketPlace.sol\":1178:1187  Role.User */\n      0x00\n        /* \"contracts/MarketPlace.sol\":1173:1191  User(Role.User, 0) */\n      0x02\n      dup2\n      gt\n      iszero\n      tag_300\n      jumpi\n      tag_301\n      tag_113\n      jump\t// in\n    tag_301:\n    tag_300:\n      dup2\n      mstore\n      0x20\n      add\n        /* \"contracts/MarketPlace.sol\":1189:1190  0 */\n      0x00\n        /* \"contracts/MarketPlace.sol\":1173:1191  User(Role.User, 0) */\n      dup2\n      mstore\n      pop\n        /* \"contracts/MarketPlace.sol\":1153:1158  users */\n      0x02\n        /* \"contracts/MarketPlace.sol\":1153:1170  users[msg.sender] */\n      0x00\n        /* \"contracts/MarketPlace.sol\":1159:1169  msg.sender */\n      caller\n        /* \"contracts/MarketPlace.sol\":1153:1170  users[msg.sender] */\n      0xffffffffffffffffffffffffffffffffffffffff\n      and\n      0xffffffffffffffffffffffffffffffffffffffff\n      and\n      dup2\n      mstore\n      0x20\n      add\n      swap1\n      dup2\n      mstore\n      0x20\n      add\n      0x00\n      keccak256\n        /* \"contracts/MarketPlace.sol\":1153:1191  users[msg.sender] = User(Role.User, 0) */\n      0x00\n      dup3\n      add\n      mload\n      dup2\n      0x00\n      add\n      exp(0x0100, 0x00)\n      dup2\n      sload\n      dup2\n      0xff\n      mul\n      not\n      and\n      swap1\n      dup4\n      0x02\n      dup2\n      gt\n      iszero\n      tag_302\n      jumpi\n      tag_303\n      tag_113\n      jump\t// in\n    tag_303:\n    tag_302:\n      mul\n      or\n      swap1\n      sstore\n      pop\n      0x20\n      dup3\n      add\n      mload\n      dup2\n      0x01\n      add\n      sstore\n      swap1\n      pop\n      pop\n        /* \"contracts/MarketPlace.sol\":1116:1198  function makeUser() public {... */\n      jump\t// out\n        /* \"contracts/MarketPlace.sol\":729:772  mapping(string => address) public referrals */\n    tag_100:\n      0x04\n      dup2\n      dup1\n      mload\n      0x20\n      dup2\n      add\n      dup3\n      add\n      dup1\n      mload\n      dup5\n      dup3\n      mstore\n      0x20\n      dup4\n      add\n      0x20\n      dup6\n      add\n      keccak256\n      dup2\n      dup4\n      mstore\n      dup1\n      swap6\n      pop\n      pop\n      pop\n      pop\n      pop\n      pop\n      0x00\n      swap2\n      pop\n      sload\n      swap1\n      0x0100\n      exp\n      swap1\n      div\n      0xffffffffffffffffffffffffffffffffffffffff\n      and\n      dup2\n      jump\t// out\n        /* \"contracts/MarketPlace.sol\":7407:7544  function withdrawBal(address _shop) public {... */\n    tag_105:\n        /* \"contracts/MarketPlace.sol\":7460:7472  uint balance */\n      0x00\n        /* \"contracts/MarketPlace.sol\":7475:7480  users */\n      0x02\n        /* \"contracts/MarketPlace.sol\":7475:7487  users[_shop] */\n      0x00\n        /* \"contracts/MarketPlace.sol\":7481:7486  _shop */\n      dup4\n        /* \"contracts/MarketPlace.sol\":7475:7487  users[_shop] */\n      0xffffffffffffffffffffffffffffffffffffffff\n      and\n      0xffffffffffffffffffffffffffffffffffffffff\n      and\n      dup2\n      mstore\n      0x20\n      add\n      swap1\n      dup2\n      mstore\n      0x20\n      add\n      0x00\n      keccak256\n        /* \"contracts/MarketPlace.sol\":7475:7495  users[_shop].balance */\n      0x01\n      add\n      sload\n        /* \"contracts/MarketPlace.sol\":7460:7495  uint balance = users[_shop].balance */\n      swap1\n      pop\n        /* \"contracts/MarketPlace.sol\":7513:7518  _shop */\n      dup2\n        /* \"contracts/MarketPlace.sol\":7505:7528  payable(_shop).transfer */\n      0xffffffffffffffffffffffffffffffffffffffff\n      and\n        /* \"contracts/MarketPlace.sol\":7505:7537  payable(_shop).transfer(balance) */\n      0x08fc\n        /* \"contracts/MarketPlace.sol\":7529:7536  balance */\n      dup3\n        /* \"contracts/MarketPlace.sol\":7505:7537  payable(_shop).transfer(balance) */\n      swap1\n      dup2\n      iszero\n      mul\n      swap1\n      mload(0x40)\n      0x00\n      mload(0x40)\n      dup1\n      dup4\n      sub\n      dup2\n      dup6\n      dup9\n      dup9\n      call\n      swap4\n      pop\n      pop\n      pop\n      pop\n      iszero\n      dup1\n      iszero\n      tag_306\n      jumpi\n      returndatasize\n      0x00\n      dup1\n      returndatacopy\n      revert(0x00, returndatasize)\n    tag_306:\n      pop\n        /* \"contracts/MarketPlace.sol\":7450:7544  {... */\n      pop\n        /* \"contracts/MarketPlace.sol\":7407:7544  function withdrawBal(address _shop) public {... */\n      pop\n      jump\t// out\n        /* \"contracts/MarketPlace.sol\":2765:4861  function refillStore(address _shop, uint _productId, uint _amount, address _supplier) public payable AccessControl(Role.Market, _shop){... */\n    tag_109:\n        /* \"contracts/MarketPlace.sol\":2880:2891  Role.Market */\n      0x01\n        /* \"contracts/MarketPlace.sol\":2893:2898  _shop */\n      dup5\n        /* \"contracts/MarketPlace.sol\":959:964  _role */\n      dup2\n        /* \"contracts/MarketPlace.sol\":933:964  users[msg.sender].role == _role */\n      0x02\n      dup2\n      gt\n      iszero\n      tag_308\n      jumpi\n      tag_309\n      tag_113\n      jump\t// in\n    tag_309:\n    tag_308:\n        /* \"contracts/MarketPlace.sol\":933:938  users */\n      0x02\n        /* \"contracts/MarketPlace.sol\":933:950  users[msg.sender] */\n      0x00\n        /* \"contracts/MarketPlace.sol\":939:949  msg.sender */\n      caller\n        /* \"contracts/MarketPlace.sol\":933:950  users[msg.sender] */\n      0xffffffffffffffffffffffffffffffffffffffff\n      and\n      0xffffffffffffffffffffffffffffffffffffffff\n      and\n      dup2\n      mstore\n      0x20\n      add\n      swap1\n      dup2\n      mstore\n      0x20\n      add\n      0x00\n      keccak256\n        /* \"contracts/MarketPlace.sol\":933:955  users[msg.sender].role */\n      0x00\n      add\n      0x00\n      swap1\n      sload\n      swap1\n      0x0100\n      exp\n      swap1\n      div\n      0xff\n      and\n        /* \"contracts/MarketPlace.sol\":933:964  users[msg.sender].role == _role */\n      0x02\n      dup2\n      gt\n      iszero\n      tag_310\n      jumpi\n      tag_311\n      tag_113\n      jump\t// in\n    tag_311:\n    tag_310:\n      eq\n        /* \"contracts/MarketPlace.sol\":925:976  require(users[msg.sender].role == _role, unicode\"\") */\n      tag_312\n      jumpi\n      mload(0x40)\n      0x08c379a000000000000000000000000000000000000000000000000000000000\n      dup2\n      mstore\n      0x04\n      add\n      tag_313\n      swap1\n      tag_118\n      jump\t// in\n    tag_313:\n      mload(0x40)\n      dup1\n      swap2\n      sub\n      swap1\n      revert\n    tag_312:\n        /* \"contracts/MarketPlace.sol\":1008:1013  _shop */\n      dup1\n        /* \"contracts/MarketPlace.sol\":994:1013  msg.sender == _shop */\n      0xffffffffffffffffffffffffffffffffffffffff\n      and\n        /* \"contracts/MarketPlace.sol\":994:1004  msg.sender */\n      caller\n        /* \"contracts/MarketPlace.sol\":994:1013  msg.sender == _shop */\n      0xffffffffffffffffffffffffffffffffffffffff\n      and\n      eq\n        /* \"contracts/MarketPlace.sol\":986:1092  require(msg.sender == _shop, unicode\"Магазин не соответсвует отправителю\") */\n      tag_314\n      jumpi\n      mload(0x40)\n      0x08c379a000000000000000000000000000000000000000000000000000000000\n      dup2\n      mstore\n      0x04\n      add\n      tag_315\n      swap1\n      tag_121\n      jump\t// in\n    tag_315:\n      mload(0x40)\n      dup1\n      swap2\n      sub\n      swap1\n      revert\n    tag_314:\n        /* \"contracts/MarketPlace.sol\":2927:2928  0 */\n      0x00\n        /* \"contracts/MarketPlace.sol\":2917:2924  _amount */\n      dup5\n        /* \"contracts/MarketPlace.sol\":2917:2928  _amount > 0 */\n      gt\n        /* \"contracts/MarketPlace.sol\":2909:2971  require(_amount > 0, \"Purchase amount must be greater than 0\") */\n      tag_317\n      jumpi\n      mload(0x40)\n      0x08c379a000000000000000000000000000000000000000000000000000000000\n      dup2\n      mstore\n      0x04\n      add\n      tag_318\n      swap1\n      tag_231\n      jump\t// in\n    tag_318:\n      mload(0x40)\n      dup1\n      swap2\n      sub\n      swap1\n      revert\n    tag_317:\n        /* \"contracts/MarketPlace.sol\":3002:3014  userProducts */\n      0x03\n        /* \"contracts/MarketPlace.sol\":3002:3021  userProducts[_shop] */\n      0x00\n        /* \"contracts/MarketPlace.sol\":3015:3020  _shop */\n      dup8\n        /* \"contracts/MarketPlace.sol\":3002:3021  userProducts[_shop] */\n      0xffffffffffffffffffffffffffffffffffffffff\n      and\n      0xffffffffffffffffffffffffffffffffffffffff\n      and\n      dup2\n      mstore\n      0x20\n      add\n      swap1\n      dup2\n      mstore\n      0x20\n      add\n      0x00\n      keccak256\n        /* \"contracts/MarketPlace.sol\":3002:3028  userProducts[_shop].length */\n      dup1\n      sload\n      swap1\n      pop\n        /* \"contracts/MarketPlace.sol\":2989:2999  _productId */\n      dup6\n        /* \"contracts/MarketPlace.sol\":2989:3028  _productId < userProducts[_shop].length */\n      lt\n        /* \"contracts/MarketPlace.sol\":2981:3051  require(_productId < userProducts[_shop].length, \"Invalid product ID\") */\n      tag_319\n      jumpi\n      mload(0x40)\n      0x08c379a000000000000000000000000000000000000000000000000000000000\n      dup2\n      mstore\n      0x04\n      add\n      tag_320\n      swap1\n      tag_234\n      jump\t// in\n    tag_320:\n      mload(0x40)\n      dup1\n      swap2\n      sub\n      swap1\n      revert\n    tag_319:\n        /* \"contracts/MarketPlace.sol\":3062:3077  uint totalPrice */\n      0x00\n        /* \"contracts/MarketPlace.sol\":3087:3097  uint price */\n      dup1\n        /* \"contracts/MarketPlace.sol\":3107:3131  string memory targetName */\n      0x00\n        /* \"contracts/MarketPlace.sol\":3134:3146  userProducts */\n      0x03\n        /* \"contracts/MarketPlace.sol\":3134:3157  userProducts[_supplier] */\n      0x00\n        /* \"contracts/MarketPlace.sol\":3147:3156  _supplier */\n      dup8\n        /* \"contracts/MarketPlace.sol\":3134:3157  userProducts[_supplier] */\n      0xffffffffffffffffffffffffffffffffffffffff\n      and\n      0xffffffffffffffffffffffffffffffffffffffff\n      and\n      dup2\n      mstore\n      0x20\n      add\n      swap1\n      dup2\n      mstore\n      0x20\n      add\n      0x00\n      keccak256\n        /* \"contracts/MarketPlace.sol\":3158:3168  _productId */\n      dup9\n        /* \"contracts/MarketPlace.sol\":3134:3169  userProducts[_supplier][_productId] */\n      dup2\n      sload\n      dup2\n      lt\n      tag_321\n      jumpi\n      tag_322\n      tag_142\n      jump\t// in\n    tag_322:\n    tag_321:\n      swap1\n      0x00\n      mstore\n      keccak256(0x00, 0x20)\n      swap1\n      0x04\n      mul\n      add\n        /* \"contracts/MarketPlace.sol\":3134:3174  userProducts[_supplier][_productId].name */\n      0x02\n      add\n        /* \"contracts/MarketPlace.sol\":3107:3174  string memory targetName = userProducts[_supplier][_productId].name */\n      dup1\n      sload\n      tag_324\n      swap1\n      tag_129\n      jump\t// in\n    tag_324:\n      dup1\n      0x1f\n      add\n      0x20\n      dup1\n      swap2\n      div\n      mul\n      0x20\n      add\n      mload(0x40)\n      swap1\n      dup2\n      add\n      0x40\n      mstore\n      dup1\n      swap3\n      swap2\n      swap1\n      dup2\n      dup2\n      mstore\n      0x20\n      add\n      dup3\n      dup1\n      sload\n      tag_325\n      swap1\n      tag_129\n      jump\t// in\n    tag_325:\n      dup1\n      iszero\n      tag_326\n      jumpi\n      dup1\n      0x1f\n      lt\n      tag_327\n      jumpi\n      0x0100\n      dup1\n      dup4\n      sload\n      div\n      mul\n      dup4\n      mstore\n      swap2\n      0x20\n      add\n      swap2\n      jump(tag_326)\n    tag_327:\n      dup3\n      add\n      swap2\n      swap1\n      0x00\n      mstore\n      keccak256(0x00, 0x20)\n      swap1\n    tag_328:\n      dup2\n      sload\n      dup2\n      mstore\n      swap1\n      0x01\n      add\n      swap1\n      0x20\n      add\n      dup1\n      dup4\n      gt\n      tag_328\n      jumpi\n      dup3\n      swap1\n      sub\n      0x1f\n      and\n      dup3\n      add\n      swap2\n    tag_326:\n      pop\n      pop\n      pop\n      pop\n      pop\n      swap1\n      pop\n        /* \"contracts/MarketPlace.sol\":3189:3195  uint i */\n      0x00\n        /* \"contracts/MarketPlace.sol\":3185:4705  for(uint i = 0; i< userProducts[_supplier].length; i++){... */\n    tag_329:\n        /* \"contracts/MarketPlace.sol\":3204:3216  userProducts */\n      0x03\n        /* \"contracts/MarketPlace.sol\":3204:3227  userProducts[_supplier] */\n      0x00\n        /* \"contracts/MarketPlace.sol\":3217:3226  _supplier */\n      dup9\n        /* \"contracts/MarketPlace.sol\":3204:3227  userProducts[_supplier] */\n      0xffffffffffffffffffffffffffffffffffffffff\n      and\n      0xffffffffffffffffffffffffffffffffffffffff\n      and\n      dup2\n      mstore\n      0x20\n      add\n      swap1\n      dup2\n      mstore\n      0x20\n      add\n      0x00\n      keccak256\n        /* \"contracts/MarketPlace.sol\":3204:3234  userProducts[_supplier].length */\n      dup1\n      sload\n      swap1\n      pop\n        /* \"contracts/MarketPlace.sol\":3201:3202  i */\n      dup2\n        /* \"contracts/MarketPlace.sol\":3201:3234  i< userProducts[_supplier].length */\n      lt\n        /* \"contracts/MarketPlace.sol\":3185:4705  for(uint i = 0; i< userProducts[_supplier].length; i++){... */\n      iszero\n      tag_330\n      jumpi\n        /* \"contracts/MarketPlace.sol\":3306:3318  userProducts */\n      0x03\n        /* \"contracts/MarketPlace.sol\":3306:3325  userProducts[_shop] */\n      0x00\n        /* \"contracts/MarketPlace.sol\":3319:3324  _shop */\n      dup12\n        /* \"contracts/MarketPlace.sol\":3306:3325  userProducts[_shop] */\n      0xffffffffffffffffffffffffffffffffffffffff\n      and\n      0xffffffffffffffffffffffffffffffffffffffff\n      and\n      dup2\n      mstore\n      0x20\n      add\n      swap1\n      dup2\n      mstore\n      0x20\n      add\n      0x00\n      keccak256\n        /* \"contracts/MarketPlace.sol\":3326:3327  i */\n      dup2\n        /* \"contracts/MarketPlace.sol\":3306:3328  userProducts[_shop][i] */\n      dup2\n      sload\n      dup2\n      lt\n      tag_332\n      jumpi\n      tag_333\n      tag_142\n      jump\t// in\n    tag_333:\n    tag_332:\n      swap1\n      0x00\n      mstore\n      keccak256(0x00, 0x20)\n      swap1\n      0x04\n      mul\n      add\n        /* \"contracts/MarketPlace.sol\":3306:3333  userProducts[_shop][i].name */\n      0x02\n      add\n        /* \"contracts/MarketPlace.sol\":3290:3335  keccak256(bytes(userProducts[_shop][i].name)) */\n      mload(0x40)\n      tag_335\n      swap2\n      swap1\n      tag_262\n      jump\t// in\n    tag_335:\n      mload(0x40)\n      dup1\n      swap2\n      sub\n      swap1\n      keccak256\n        /* \"contracts/MarketPlace.sol\":3274:3284  targetName */\n      dup3\n        /* \"contracts/MarketPlace.sol\":3258:3286  keccak256(bytes(targetName)) */\n      dup1\n      mload\n      swap1\n      0x20\n      add\n      keccak256\n        /* \"contracts/MarketPlace.sol\":3258:3335  keccak256(bytes(targetName)) == keccak256(bytes(userProducts[_shop][i].name)) */\n      sub\n        /* \"contracts/MarketPlace.sol\":3254:4695  if (keccak256(bytes(targetName)) == keccak256(bytes(userProducts[_shop][i].name))){... */\n      tag_336\n      jumpi\n        /* \"contracts/MarketPlace.sol\":3362:3374  userProducts */\n      0x03\n        /* \"contracts/MarketPlace.sol\":3362:3385  userProducts[_supplier] */\n      0x00\n        /* \"contracts/MarketPlace.sol\":3375:3384  _supplier */\n      dup9\n        /* \"contracts/MarketPlace.sol\":3362:3385  userProducts[_supplier] */\n      0xffffffffffffffffffffffffffffffffffffffff\n      and\n      0xffffffffffffffffffffffffffffffffffffffff\n      and\n      dup2\n      mstore\n      0x20\n      add\n      swap1\n      dup2\n      mstore\n      0x20\n      add\n      0x00\n      keccak256\n        /* \"contracts/MarketPlace.sol\":3386:3387  i */\n      dup2\n        /* \"contracts/MarketPlace.sol\":3362:3388  userProducts[_supplier][i] */\n      dup2\n      sload\n      dup2\n      lt\n      tag_337\n      jumpi\n      tag_338\n      tag_142\n      jump\t// in\n    tag_338:\n    tag_337:\n      swap1\n      0x00\n      mstore\n      keccak256(0x00, 0x20)\n      swap1\n      0x04\n      mul\n      add\n        /* \"contracts/MarketPlace.sol\":3362:3394  userProducts[_supplier][i].price */\n      0x01\n      add\n      sload\n        /* \"contracts/MarketPlace.sol\":3354:3394  price = userProducts[_supplier][i].price */\n      swap3\n      pop\n        /* \"contracts/MarketPlace.sol\":3443:3450  1 ether */\n      0x0de0b6b3a7640000\n        /* \"contracts/MarketPlace.sol\":3433:3440  _amount */\n      dup9\n        /* \"contracts/MarketPlace.sol\":3425:3430  price */\n      dup5\n        /* \"contracts/MarketPlace.sol\":3425:3440  price * _amount */\n      tag_340\n      swap2\n      swap1\n      tag_155\n      jump\t// in\n    tag_340:\n        /* \"contracts/MarketPlace.sol\":3425:3450  price * _amount * 1 ether */\n      tag_341\n      swap2\n      swap1\n      tag_155\n      jump\t// in\n    tag_341:\n        /* \"contracts/MarketPlace.sol\":3412:3450  totalPrice = price * _amount * 1 ether */\n      swap4\n      pop\n        /* \"contracts/MarketPlace.sol\":3489:3499  totalPrice */\n      dup4\n        /* \"contracts/MarketPlace.sol\":3476:3485  msg.value */\n      callvalue\n        /* \"contracts/MarketPlace.sol\":3476:3499  msg.value >= totalPrice */\n      lt\n      iszero\n        /* \"contracts/MarketPlace.sol\":3468:3527  require(msg.value >= totalPrice, \"Insufficient funds sent\") */\n      tag_342\n      jumpi\n      mload(0x40)\n      0x08c379a000000000000000000000000000000000000000000000000000000000\n      dup2\n      mstore\n      0x04\n      add\n      tag_343\n      swap1\n      tag_254\n      jump\t// in\n    tag_343:\n      mload(0x40)\n      dup1\n      swap2\n      sub\n      swap1\n      revert\n    tag_342:\n        /* \"contracts/MarketPlace.sol\":3571:3589  bool productExists */\n      0x00\n        /* \"contracts/MarketPlace.sol\":3620:3626  uint j */\n      dup1\n        /* \"contracts/MarketPlace.sol\":3615:4066  for (uint j = 0; j < userProducts[_shop].length; j++) {... */\n    tag_344:\n        /* \"contracts/MarketPlace.sol\":3636:3648  userProducts */\n      0x03\n        /* \"contracts/MarketPlace.sol\":3636:3655  userProducts[_shop] */\n      0x00\n        /* \"contracts/MarketPlace.sol\":3649:3654  _shop */\n      dup14\n        /* \"contracts/MarketPlace.sol\":3636:3655  userProducts[_shop] */\n      0xffffffffffffffffffffffffffffffffffffffff\n      and\n      0xffffffffffffffffffffffffffffffffffffffff\n      and\n      dup2\n      mstore\n      0x20\n      add\n      swap1\n      dup2\n      mstore\n      0x20\n      add\n      0x00\n      keccak256\n        /* \"contracts/MarketPlace.sol\":3636:3662  userProducts[_shop].length */\n      dup1\n      sload\n      swap1\n      pop\n        /* \"contracts/MarketPlace.sol\":3632:3633  j */\n      dup2\n        /* \"contracts/MarketPlace.sol\":3632:3662  j < userProducts[_shop].length */\n      lt\n        /* \"contracts/MarketPlace.sol\":3615:4066  for (uint j = 0; j < userProducts[_shop].length; j++) {... */\n      iszero\n      tag_345\n      jumpi\n        /* \"contracts/MarketPlace.sol\":3760:3772  userProducts */\n      0x03\n        /* \"contracts/MarketPlace.sol\":3760:3783  userProducts[_supplier] */\n      0x00\n        /* \"contracts/MarketPlace.sol\":3773:3782  _supplier */\n      dup11\n        /* \"contracts/MarketPlace.sol\":3760:3783  userProducts[_supplier] */\n      0xffffffffffffffffffffffffffffffffffffffff\n      and\n      0xffffffffffffffffffffffffffffffffffffffff\n      and\n      dup2\n      mstore\n      0x20\n      add\n      swap1\n      dup2\n      mstore\n      0x20\n      add\n      0x00\n      keccak256\n        /* \"contracts/MarketPlace.sol\":3784:3794  _productId */\n      dup12\n        /* \"contracts/MarketPlace.sol\":3760:3795  userProducts[_supplier][_productId] */\n      dup2\n      sload\n      dup2\n      lt\n      tag_347\n      jumpi\n      tag_348\n      tag_142\n      jump\t// in\n    tag_348:\n    tag_347:\n      swap1\n      0x00\n      mstore\n      keccak256(0x00, 0x20)\n      swap1\n      0x04\n      mul\n      add\n        /* \"contracts/MarketPlace.sol\":3760:3800  userProducts[_supplier][_productId].name */\n      0x02\n      add\n        /* \"contracts/MarketPlace.sol\":3744:3802  keccak256(bytes(userProducts[_supplier][_productId].name)) */\n      mload(0x40)\n      tag_350\n      swap2\n      swap1\n      tag_262\n      jump\t// in\n    tag_350:\n      mload(0x40)\n      dup1\n      swap2\n      sub\n      swap1\n      keccak256\n        /* \"contracts/MarketPlace.sol\":3711:3723  userProducts */\n      0x03\n        /* \"contracts/MarketPlace.sol\":3711:3730  userProducts[_shop] */\n      0x00\n        /* \"contracts/MarketPlace.sol\":3724:3729  _shop */\n      dup15\n        /* \"contracts/MarketPlace.sol\":3711:3730  userProducts[_shop] */\n      0xffffffffffffffffffffffffffffffffffffffff\n      and\n      0xffffffffffffffffffffffffffffffffffffffff\n      and\n      dup2\n      mstore\n      0x20\n      add\n      swap1\n      dup2\n      mstore\n      0x20\n      add\n      0x00\n      keccak256\n        /* \"contracts/MarketPlace.sol\":3731:3732  j */\n      dup3\n        /* \"contracts/MarketPlace.sol\":3711:3733  userProducts[_shop][j] */\n      dup2\n      sload\n      dup2\n      lt\n      tag_351\n      jumpi\n      tag_352\n      tag_142\n      jump\t// in\n    tag_352:\n    tag_351:\n      swap1\n      0x00\n      mstore\n      keccak256(0x00, 0x20)\n      swap1\n      0x04\n      mul\n      add\n        /* \"contracts/MarketPlace.sol\":3711:3738  userProducts[_shop][j].name */\n      0x02\n      add\n        /* \"contracts/MarketPlace.sol\":3695:3740  keccak256(bytes(userProducts[_shop][j].name)) */\n      mload(0x40)\n      tag_354\n      swap2\n      swap1\n      tag_262\n      jump\t// in\n    tag_354:\n      mload(0x40)\n      dup1\n      swap2\n      sub\n      swap1\n      keccak256\n        /* \"contracts/MarketPlace.sol\":3695:3802  keccak256(bytes(userProducts[_shop][j].name)) == keccak256(bytes(userProducts[_supplier][_productId].name)) */\n      sub\n        /* \"contracts/MarketPlace.sol\":3691:4048  if (keccak256(bytes(userProducts[_shop][j].name)) == keccak256(bytes(userProducts[_supplier][_productId].name))) {... */\n      tag_355\n      jumpi\n        /* \"contracts/MarketPlace.sol\":3864:3871  _amount */\n      dup10\n        /* \"contracts/MarketPlace.sol\":3830:3842  userProducts */\n      0x03\n        /* \"contracts/MarketPlace.sol\":3830:3849  userProducts[_shop] */\n      0x00\n        /* \"contracts/MarketPlace.sol\":3843:3848  _shop */\n      dup15\n        /* \"contracts/MarketPlace.sol\":3830:3849  userProducts[_shop] */\n      0xffffffffffffffffffffffffffffffffffffffff\n      and\n      0xffffffffffffffffffffffffffffffffffffffff\n      and\n      dup2\n      mstore\n      0x20\n      add\n      swap1\n      dup2\n      mstore\n      0x20\n      add\n      0x00\n      keccak256\n        /* \"contracts/MarketPlace.sol\":3850:3851  i */\n      dup5\n        /* \"contracts/MarketPlace.sol\":3830:3852  userProducts[_shop][i] */\n      dup2\n      sload\n      dup2\n      lt\n      tag_356\n      jumpi\n      tag_357\n      tag_142\n      jump\t// in\n    tag_357:\n    tag_356:\n      swap1\n      0x00\n      mstore\n      keccak256(0x00, 0x20)\n      swap1\n      0x04\n      mul\n      add\n        /* \"contracts/MarketPlace.sol\":3830:3860  userProducts[_shop][i].inStock */\n      0x00\n      add\n      0x00\n        /* \"contracts/MarketPlace.sol\":3830:3871  userProducts[_shop][i].inStock += _amount */\n      dup3\n      dup3\n      sload\n      tag_359\n      swap2\n      swap1\n      tag_164\n      jump\t// in\n    tag_359:\n      swap3\n      pop\n      pop\n      dup2\n      swap1\n      sstore\n      pop\n        /* \"contracts/MarketPlace.sol\":3913:3917  true */\n      0x01\n        /* \"contracts/MarketPlace.sol\":3897:3917  productExists = true */\n      swap2\n      pop\n        /* \"contracts/MarketPlace.sol\":3943:3948  break */\n      jump(tag_345)\n        /* \"contracts/MarketPlace.sol\":3691:4048  if (keccak256(bytes(userProducts[_shop][j].name)) == keccak256(bytes(userProducts[_supplier][_productId].name))) {... */\n    tag_355:\n        /* \"contracts/MarketPlace.sol\":3664:3667  j++ */\n      dup1\n      dup1\n      tag_360\n      swap1\n      tag_200\n      jump\t// in\n    tag_360:\n      swap2\n      pop\n      pop\n        /* \"contracts/MarketPlace.sol\":3615:4066  for (uint j = 0; j < userProducts[_shop].length; j++) {... */\n      jump(tag_344)\n    tag_345:\n      pop\n        /* \"contracts/MarketPlace.sol\":4177:4190  productExists */\n      dup1\n        /* \"contracts/MarketPlace.sol\":4172:4541  if (!productExists) {... */\n      tag_361\n      jumpi\n        /* \"contracts/MarketPlace.sol\":4291:4313  Product memory newItem */\n      0x00\n        /* \"contracts/MarketPlace.sol\":4316:4462  Product(_amount, userProducts[_supplier][_productId].price, userProducts[_supplier][_productId].name, userProducts[_supplier][_productId].expDate) */\n      mload(0x40)\n      dup1\n      0x80\n      add\n      0x40\n      mstore\n      dup1\n        /* \"contracts/MarketPlace.sol\":4324:4331  _amount */\n      dup12\n        /* \"contracts/MarketPlace.sol\":4316:4462  Product(_amount, userProducts[_supplier][_productId].price, userProducts[_supplier][_productId].name, userProducts[_supplier][_productId].expDate) */\n      dup2\n      mstore\n      0x20\n      add\n        /* \"contracts/MarketPlace.sol\":4333:4345  userProducts */\n      0x03\n        /* \"contracts/MarketPlace.sol\":4333:4356  userProducts[_supplier] */\n      0x00\n        /* \"contracts/MarketPlace.sol\":4346:4355  _supplier */\n      dup13\n        /* \"contracts/MarketPlace.sol\":4333:4356  userProducts[_supplier] */\n      0xffffffffffffffffffffffffffffffffffffffff\n      and\n      0xffffffffffffffffffffffffffffffffffffffff\n      and\n      dup2\n      mstore\n      0x20\n      add\n      swap1\n      dup2\n      mstore\n      0x20\n      add\n      0x00\n      keccak256\n        /* \"contracts/MarketPlace.sol\":4357:4367  _productId */\n      dup14\n        /* \"contracts/MarketPlace.sol\":4333:4368  userProducts[_supplier][_productId] */\n      dup2\n      sload\n      dup2\n      lt\n      tag_362\n      jumpi\n      tag_363\n      tag_142\n      jump\t// in\n    tag_363:\n    tag_362:\n      swap1\n      0x00\n      mstore\n      keccak256(0x00, 0x20)\n      swap1\n      0x04\n      mul\n      add\n        /* \"contracts/MarketPlace.sol\":4333:4374  userProducts[_supplier][_productId].price */\n      0x01\n      add\n      sload\n        /* \"contracts/MarketPlace.sol\":4316:4462  Product(_amount, userProducts[_supplier][_productId].price, userProducts[_supplier][_productId].name, userProducts[_supplier][_productId].expDate) */\n      dup2\n      mstore\n      0x20\n      add\n        /* \"contracts/MarketPlace.sol\":4376:4388  userProducts */\n      0x03\n        /* \"contracts/MarketPlace.sol\":4376:4399  userProducts[_supplier] */\n      0x00\n        /* \"contracts/MarketPlace.sol\":4389:4398  _supplier */\n      dup13\n        /* \"contracts/MarketPlace.sol\":4376:4399  userProducts[_supplier] */\n      0xffffffffffffffffffffffffffffffffffffffff\n      and\n      0xffffffffffffffffffffffffffffffffffffffff\n      and\n      dup2\n      mstore\n      0x20\n      add\n      swap1\n      dup2\n      mstore\n      0x20\n      add\n      0x00\n      keccak256\n        /* \"contracts/MarketPlace.sol\":4400:4410  _productId */\n      dup14\n        /* \"contracts/MarketPlace.sol\":4376:4411  userProducts[_supplier][_productId] */\n      dup2\n      sload\n      dup2\n      lt\n      tag_365\n      jumpi\n      tag_366\n      tag_142\n      jump\t// in\n    tag_366:\n    tag_365:\n      swap1\n      0x00\n      mstore\n      keccak256(0x00, 0x20)\n      swap1\n      0x04\n      mul\n      add\n        /* \"contracts/MarketPlace.sol\":4376:4416  userProducts[_supplier][_productId].name */\n      0x02\n      add\n        /* \"contracts/MarketPlace.sol\":4316:4462  Product(_amount, userProducts[_supplier][_productId].price, userProducts[_supplier][_productId].name, userProducts[_supplier][_productId].expDate) */\n      dup1\n      sload\n      tag_368\n      swap1\n      tag_129\n      jump\t// in\n    tag_368:\n      dup1\n      0x1f\n      add\n      0x20\n      dup1\n      swap2\n      div\n      mul\n      0x20\n      add\n      mload(0x40)\n      swap1\n      dup2\n      add\n      0x40\n      mstore\n      dup1\n      swap3\n      swap2\n      swap1\n      dup2\n      dup2\n      mstore\n      0x20\n      add\n      dup3\n      dup1\n      sload\n      tag_369\n      swap1\n      tag_129\n      jump\t// in\n    tag_369:\n      dup1\n      iszero\n      tag_370\n      jumpi\n      dup1\n      0x1f\n      lt\n      tag_371\n      jumpi\n      0x0100\n      dup1\n      dup4\n      sload\n      div\n      mul\n      dup4\n      mstore\n      swap2\n      0x20\n      add\n      swap2\n      jump(tag_370)\n    tag_371:\n      dup3\n      add\n      swap2\n      swap1\n      0x00\n      mstore\n      keccak256(0x00, 0x20)\n      swap1\n    tag_372:\n      dup2\n      sload\n      dup2\n      mstore\n      swap1\n      0x01\n      add\n      swap1\n      0x20\n      add\n      dup1\n      dup4\n      gt\n      tag_372\n      jumpi\n      dup3\n      swap1\n      sub\n      0x1f\n      and\n      dup3\n      add\n      swap2\n    tag_370:\n      pop\n      pop\n      pop\n      pop\n      pop\n      dup2\n      mstore\n      0x20\n      add\n        /* \"contracts/MarketPlace.sol\":4418:4430  userProducts */\n      0x03\n        /* \"contracts/MarketPlace.sol\":4418:4441  userProducts[_supplier] */\n      0x00\n        /* \"contracts/MarketPlace.sol\":4431:4440  _supplier */\n      dup13\n        /* \"contracts/MarketPlace.sol\":4418:4441  userProducts[_supplier] */\n      0xffffffffffffffffffffffffffffffffffffffff\n      and\n      0xffffffffffffffffffffffffffffffffffffffff\n      and\n      dup2\n      mstore\n      0x20\n      add\n      swap1\n      dup2\n      mstore\n      0x20\n      add\n      0x00\n      keccak256\n        /* \"contracts/MarketPlace.sol\":4442:4452  _productId */\n      dup14\n        /* \"contracts/MarketPlace.sol\":4418:4453  userProducts[_supplier][_productId] */\n      dup2\n      sload\n      dup2\n      lt\n      tag_373\n      jumpi\n      tag_374\n      tag_142\n      jump\t// in\n    tag_374:\n    tag_373:\n      swap1\n      0x00\n      mstore\n      keccak256(0x00, 0x20)\n      swap1\n      0x04\n      mul\n      add\n        /* \"contracts/MarketPlace.sol\":4418:4461  userProducts[_supplier][_productId].expDate */\n      0x03\n      add\n      sload\n        /* \"contracts/MarketPlace.sol\":4316:4462  Product(_amount, userProducts[_supplier][_productId].price, userProducts[_supplier][_productId].name, userProducts[_supplier][_productId].expDate) */\n      dup2\n      mstore\n      pop\n        /* \"contracts/MarketPlace.sol\":4291:4462  Product memory newItem = Product(_amount, userProducts[_supplier][_productId].price, userProducts[_supplier][_productId].name, userProducts[_supplier][_productId].expDate) */\n      swap1\n      pop\n        /* \"contracts/MarketPlace.sol\":4484:4496  userProducts */\n      0x03\n        /* \"contracts/MarketPlace.sol\":4484:4508  userProducts[msg.sender] */\n      0x00\n        /* \"contracts/MarketPlace.sol\":4497:4507  msg.sender */\n      caller\n        /* \"contracts/MarketPlace.sol\":4484:4508  userProducts[msg.sender] */\n      0xffffffffffffffffffffffffffffffffffffffff\n      and\n      0xffffffffffffffffffffffffffffffffffffffff\n      and\n      dup2\n      mstore\n      0x20\n      add\n      swap1\n      dup2\n      mstore\n      0x20\n      add\n      0x00\n      keccak256\n        /* \"contracts/MarketPlace.sol\":4514:4521  newItem */\n      dup2\n        /* \"contracts/MarketPlace.sol\":4484:4522  userProducts[msg.sender].push(newItem) */\n      swap1\n      dup1\n      0x01\n      dup2\n      sload\n      add\n      dup1\n      dup3\n      sstore\n      dup1\n      swap2\n      pop\n      pop\n      0x01\n      swap1\n      sub\n      swap1\n      0x00\n      mstore\n      keccak256(0x00, 0x20)\n      swap1\n      0x04\n      mul\n      add\n      0x00\n      swap1\n      swap2\n      swap1\n      swap2\n      swap1\n      swap2\n      pop\n      0x00\n      dup3\n      add\n      mload\n      dup2\n      0x00\n      add\n      sstore\n      0x20\n      dup3\n      add\n      mload\n      dup2\n      0x01\n      add\n      sstore\n      0x40\n      dup3\n      add\n      mload\n      dup2\n      0x02\n      add\n      swap1\n      dup2\n      tag_377\n      swap2\n      swap1\n      tag_125\n      jump\t// in\n    tag_377:\n      pop\n      0x60\n      dup3\n      add\n      mload\n      dup2\n      0x03\n      add\n      sstore\n      pop\n      pop\n        /* \"contracts/MarketPlace.sol\":4192:4541  {... */\n      pop\n        /* \"contracts/MarketPlace.sol\":4172:4541  if (!productExists) {... */\n    tag_361:\n        /* \"contracts/MarketPlace.sol\":3336:4695  {... */\n      pop\n        /* \"contracts/MarketPlace.sol\":3254:4695  if (keccak256(bytes(targetName)) == keccak256(bytes(userProducts[_shop][i].name))){... */\n    tag_336:\n        /* \"contracts/MarketPlace.sol\":3236:3239  i++ */\n      dup1\n      dup1\n      tag_378\n      swap1\n      tag_200\n      jump\t// in\n    tag_378:\n      swap2\n      pop\n      pop\n        /* \"contracts/MarketPlace.sol\":3185:4705  for(uint i = 0; i< userProducts[_supplier].length; i++){... */\n      jump(tag_329)\n    tag_330:\n      pop\n        /* \"contracts/MarketPlace.sol\":4731:4741  totalPrice */\n      dup3\n        /* \"contracts/MarketPlace.sol\":4719:4728  msg.value */\n      callvalue\n        /* \"contracts/MarketPlace.sol\":4719:4741  msg.value > totalPrice */\n      gt\n        /* \"contracts/MarketPlace.sol\":4715:4854  if (msg.value > totalPrice) {... */\n      iszero\n      tag_379\n      jumpi\n        /* \"contracts/MarketPlace.sol\":4757:4768  uint change */\n      0x00\n        /* \"contracts/MarketPlace.sol\":4783:4793  totalPrice */\n      dup4\n        /* \"contracts/MarketPlace.sol\":4771:4780  msg.value */\n      callvalue\n        /* \"contracts/MarketPlace.sol\":4771:4793  msg.value - totalPrice */\n      tag_380\n      swap2\n      swap1\n      tag_171\n      jump\t// in\n    tag_380:\n        /* \"contracts/MarketPlace.sol\":4757:4793  uint change = msg.value - totalPrice */\n      swap1\n      pop\n        /* \"contracts/MarketPlace.sol\":4815:4825  msg.sender */\n      caller\n        /* \"contracts/MarketPlace.sol\":4807:4835  payable(msg.sender).transfer */\n      0xffffffffffffffffffffffffffffffffffffffff\n      and\n        /* \"contracts/MarketPlace.sol\":4807:4843  payable(msg.sender).transfer(change) */\n      0x08fc\n        /* \"contracts/MarketPlace.sol\":4836:4842  change */\n      dup3\n        /* \"contracts/MarketPlace.sol\":4807:4843  payable(msg.sender).transfer(change) */\n      swap1\n      dup2\n      iszero\n      mul\n      swap1\n      mload(0x40)\n      0x00\n      mload(0x40)\n      dup1\n      dup4\n      sub\n      dup2\n      dup6\n      dup9\n      dup9\n      call\n      swap4\n      pop\n      pop\n      pop\n      pop\n      iszero\n      dup1\n      iszero\n      tag_382\n      jumpi\n      returndatasize\n      0x00\n      dup1\n      returndatacopy\n      revert(0x00, returndatasize)\n    tag_382:\n      pop\n        /* \"contracts/MarketPlace.sol\":4743:4854  {... */\n      pop\n        /* \"contracts/MarketPlace.sol\":4715:4854  if (msg.value > totalPrice) {... */\n    tag_379:\n        /* \"contracts/MarketPlace.sol\":2899:4861  {... */\n      pop\n      pop\n      pop\n        /* \"contracts/MarketPlace.sol\":2765:4861  function refillStore(address _shop, uint _productId, uint _amount, address _supplier) public payable AccessControl(Role.Market, _shop){... */\n      pop\n      pop\n      pop\n      pop\n      pop\n      pop\n      jump\t// out\n    tag_169:\n      pop\n      dup1\n      sload\n      tag_383\n      swap1\n      tag_129\n      jump\t// in\n    tag_383:\n      0x00\n      dup3\n      sstore\n      dup1\n      0x1f\n      lt\n      tag_385\n      jumpi\n      pop\n      jump(tag_384)\n    tag_385:\n      0x1f\n      add\n      0x20\n      swap1\n      div\n      swap1\n      0x00\n      mstore\n      keccak256(0x00, 0x20)\n      swap1\n      dup2\n      add\n      swap1\n      tag_386\n      swap2\n      swap1\n      tag_387\n      jump\t// in\n    tag_386:\n    tag_384:\n      pop\n      jump\t// out\n    tag_387:\n    tag_388:\n      dup1\n      dup3\n      gt\n      iszero\n      tag_389\n      jumpi\n      0x00\n      dup2\n      0x00\n      swap1\n      sstore\n      pop\n      0x01\n      add\n      jump(tag_388)\n    tag_389:\n      pop\n      swap1\n      jump\t// out\n        /* \"#utility.yul\":7:82   */\n    tag_390:\n        /* \"#utility.yul\":40:46   */\n      0x00\n        /* \"#utility.yul\":73:75   */\n      0x40\n        /* \"#utility.yul\":67:76   */\n      mload\n        /* \"#utility.yul\":57:76   */\n      swap1\n      pop\n        /* \"#utility.yul\":7:82   */\n      swap1\n      jump\t// out\n        /* \"#utility.yul\":88:205   */\n    tag_391:\n        /* \"#utility.yul\":197:198   */\n      0x00\n        /* \"#utility.yul\":194:195   */\n      dup1\n        /* \"#utility.yul\":187:199   */\n      revert\n        /* \"#utility.yul\":211:328   */\n    tag_392:\n        /* \"#utility.yul\":320:321   */\n      0x00\n        /* \"#utility.yul\":317:318   */\n      dup1\n        /* \"#utility.yul\":310:322   */\n      revert\n        /* \"#utility.yul\":334:460   */\n    tag_393:\n        /* \"#utility.yul\":371:378   */\n      0x00\n        /* \"#utility.yul\":411:453   */\n      0xffffffffffffffffffffffffffffffffffffffff\n        /* \"#utility.yul\":404:409   */\n      dup3\n        /* \"#utility.yul\":400:454   */\n      and\n        /* \"#utility.yul\":389:454   */\n      swap1\n      pop\n        /* \"#utility.yul\":334:460   */\n      swap2\n      swap1\n      pop\n      jump\t// out\n        /* \"#utility.yul\":466:562   */\n    tag_394:\n        /* \"#utility.yul\":503:510   */\n      0x00\n        /* \"#utility.yul\":532:556   */\n      tag_472\n        /* \"#utility.yul\":550:555   */\n      dup3\n        /* \"#utility.yul\":532:556   */\n      tag_393\n      jump\t// in\n    tag_472:\n        /* \"#utility.yul\":521:556   */\n      swap1\n      pop\n        /* \"#utility.yul\":466:562   */\n      swap2\n      swap1\n      pop\n      jump\t// out\n        /* \"#utility.yul\":568:690   */\n    tag_395:\n        /* \"#utility.yul\":641:665   */\n      tag_474\n        /* \"#utility.yul\":659:664   */\n      dup2\n        /* \"#utility.yul\":641:665   */\n      tag_394\n      jump\t// in\n    tag_474:\n        /* \"#utility.yul\":634:639   */\n      dup2\n        /* \"#utility.yul\":631:666   */\n      eq\n        /* \"#utility.yul\":621:684   */\n      tag_475\n      jumpi\n        /* \"#utility.yul\":680:681   */\n      0x00\n        /* \"#utility.yul\":677:678   */\n      dup1\n        /* \"#utility.yul\":670:682   */\n      revert\n        /* \"#utility.yul\":621:684   */\n    tag_475:\n        /* \"#utility.yul\":568:690   */\n      pop\n      jump\t// out\n        /* \"#utility.yul\":696:835   */\n    tag_396:\n        /* \"#utility.yul\":742:747   */\n      0x00\n        /* \"#utility.yul\":780:786   */\n      dup2\n        /* \"#utility.yul\":767:787   */\n      calldataload\n        /* \"#utility.yul\":758:787   */\n      swap1\n      pop\n        /* \"#utility.yul\":796:829   */\n      tag_477\n        /* \"#utility.yul\":823:828   */\n      dup2\n        /* \"#utility.yul\":796:829   */\n      tag_395\n      jump\t// in\n    tag_477:\n        /* \"#utility.yul\":696:835   */\n      swap3\n      swap2\n      pop\n      pop\n      jump\t// out\n        /* \"#utility.yul\":841:918   */\n    tag_397:\n        /* \"#utility.yul\":878:885   */\n      0x00\n        /* \"#utility.yul\":907:912   */\n      dup2\n        /* \"#utility.yul\":896:912   */\n      swap1\n      pop\n        /* \"#utility.yul\":841:918   */\n      swap2\n      swap1\n      pop\n      jump\t// out\n        /* \"#utility.yul\":924:1046   */\n    tag_398:\n        /* \"#utility.yul\":997:1021   */\n      tag_480\n        /* \"#utility.yul\":1015:1020   */\n      dup2\n        /* \"#utility.yul\":997:1021   */\n      tag_397\n      jump\t// in\n    tag_480:\n        /* \"#utility.yul\":990:995   */\n      dup2\n        /* \"#utility.yul\":987:1022   */\n      eq\n        /* \"#utility.yul\":977:1040   */\n      tag_481\n      jumpi\n        /* \"#utility.yul\":1036:1037   */\n      0x00\n        /* \"#utility.yul\":1033:1034   */\n      dup1\n        /* \"#utility.yul\":1026:1038   */\n      revert\n        /* \"#utility.yul\":977:1040   */\n    tag_481:\n        /* \"#utility.yul\":924:1046   */\n      pop\n      jump\t// out\n        /* \"#utility.yul\":1052:1191   */\n    tag_399:\n        /* \"#utility.yul\":1098:1103   */\n      0x00\n        /* \"#utility.yul\":1136:1142   */\n      dup2\n        /* \"#utility.yul\":1123:1143   */\n      calldataload\n        /* \"#utility.yul\":1114:1143   */\n      swap1\n      pop\n        /* \"#utility.yul\":1152:1185   */\n      tag_483\n        /* \"#utility.yul\":1179:1184   */\n      dup2\n        /* \"#utility.yul\":1152:1185   */\n      tag_398\n      jump\t// in\n    tag_483:\n        /* \"#utility.yul\":1052:1191   */\n      swap3\n      swap2\n      pop\n      pop\n      jump\t// out\n        /* \"#utility.yul\":1197:1314   */\n    tag_400:\n        /* \"#utility.yul\":1306:1307   */\n      0x00\n        /* \"#utility.yul\":1303:1304   */\n      dup1\n        /* \"#utility.yul\":1296:1308   */\n      revert\n        /* \"#utility.yul\":1320:1437   */\n    tag_401:\n        /* \"#utility.yul\":1429:1430   */\n      0x00\n        /* \"#utility.yul\":1426:1427   */\n      dup1\n        /* \"#utility.yul\":1419:1431   */\n      revert\n        /* \"#utility.yul\":1443:1560   */\n    tag_402:\n        /* \"#utility.yul\":1552:1553   */\n      0x00\n        /* \"#utility.yul\":1549:1550   */\n      dup1\n        /* \"#utility.yul\":1542:1554   */\n      revert\n        /* \"#utility.yul\":1580:2133   */\n    tag_403:\n        /* \"#utility.yul\":1638:1646   */\n      0x00\n        /* \"#utility.yul\":1648:1654   */\n      dup1\n        /* \"#utility.yul\":1698:1701   */\n      dup4\n        /* \"#utility.yul\":1691:1695   */\n      0x1f\n        /* \"#utility.yul\":1683:1689   */\n      dup5\n        /* \"#utility.yul\":1679:1696   */\n      add\n        /* \"#utility.yul\":1675:1702   */\n      slt\n        /* \"#utility.yul\":1665:1787   */\n      tag_488\n      jumpi\n        /* \"#utility.yul\":1706:1785   */\n      tag_489\n      tag_400\n      jump\t// in\n    tag_489:\n        /* \"#utility.yul\":1665:1787   */\n    tag_488:\n        /* \"#utility.yul\":1819:1825   */\n      dup3\n        /* \"#utility.yul\":1806:1826   */\n      calldataload\n        /* \"#utility.yul\":1796:1826   */\n      swap1\n      pop\n        /* \"#utility.yul\":1849:1867   */\n      0xffffffffffffffff\n        /* \"#utility.yul\":1841:1847   */\n      dup2\n        /* \"#utility.yul\":1838:1868   */\n      gt\n        /* \"#utility.yul\":1835:1952   */\n      iszero\n      tag_490\n      jumpi\n        /* \"#utility.yul\":1871:1950   */\n      tag_491\n      tag_401\n      jump\t// in\n    tag_491:\n        /* \"#utility.yul\":1835:1952   */\n    tag_490:\n        /* \"#utility.yul\":1985:1989   */\n      0x20\n        /* \"#utility.yul\":1977:1983   */\n      dup4\n        /* \"#utility.yul\":1973:1990   */\n      add\n        /* \"#utility.yul\":1961:1990   */\n      swap2\n      pop\n        /* \"#utility.yul\":2039:2042   */\n      dup4\n        /* \"#utility.yul\":2031:2035   */\n      0x01\n        /* \"#utility.yul\":2023:2029   */\n      dup3\n        /* \"#utility.yul\":2019:2036   */\n      mul\n        /* \"#utility.yul\":2009:2017   */\n      dup4\n        /* \"#utility.yul\":2005:2037   */\n      add\n        /* \"#utility.yul\":2002:2043   */\n      gt\n        /* \"#utility.yul\":1999:2127   */\n      iszero\n      tag_492\n      jumpi\n        /* \"#utility.yul\":2046:2125   */\n      tag_493\n      tag_402\n      jump\t// in\n    tag_493:\n        /* \"#utility.yul\":1999:2127   */\n    tag_492:\n        /* \"#utility.yul\":1580:2133   */\n      swap3\n      pop\n      swap3\n      swap1\n      pop\n      jump\t// out\n        /* \"#utility.yul\":2139:3250   */\n    tag_26:\n        /* \"#utility.yul\":2246:2252   */\n      0x00\n        /* \"#utility.yul\":2254:2260   */\n      dup1\n        /* \"#utility.yul\":2262:2268   */\n      0x00\n        /* \"#utility.yul\":2270:2276   */\n      dup1\n        /* \"#utility.yul\":2278:2284   */\n      0x00\n        /* \"#utility.yul\":2286:2292   */\n      dup1\n        /* \"#utility.yul\":2335:2338   */\n      0xa0\n        /* \"#utility.yul\":2323:2332   */\n      dup8\n        /* \"#utility.yul\":2314:2321   */\n      dup10\n        /* \"#utility.yul\":2310:2333   */\n      sub\n        /* \"#utility.yul\":2306:2339   */\n      slt\n        /* \"#utility.yul\":2303:2423   */\n      iszero\n      tag_495\n      jumpi\n        /* \"#utility.yul\":2342:2421   */\n      tag_496\n      tag_391\n      jump\t// in\n    tag_496:\n        /* \"#utility.yul\":2303:2423   */\n    tag_495:\n        /* \"#utility.yul\":2462:2463   */\n      0x00\n        /* \"#utility.yul\":2487:2540   */\n      tag_497\n        /* \"#utility.yul\":2532:2539   */\n      dup10\n        /* \"#utility.yul\":2523:2529   */\n      dup3\n        /* \"#utility.yul\":2512:2521   */\n      dup11\n        /* \"#utility.yul\":2508:2530   */\n      add\n        /* \"#utility.yul\":2487:2540   */\n      tag_396\n      jump\t// in\n    tag_497:\n        /* \"#utility.yul\":2477:2540   */\n      swap7\n      pop\n        /* \"#utility.yul\":2433:2550   */\n      pop\n        /* \"#utility.yul\":2589:2591   */\n      0x20\n        /* \"#utility.yul\":2615:2668   */\n      tag_498\n        /* \"#utility.yul\":2660:2667   */\n      dup10\n        /* \"#utility.yul\":2651:2657   */\n      dup3\n        /* \"#utility.yul\":2640:2649   */\n      dup11\n        /* \"#utility.yul\":2636:2658   */\n      add\n        /* \"#utility.yul\":2615:2668   */\n      tag_399\n      jump\t// in\n    tag_498:\n        /* \"#utility.yul\":2605:2668   */\n      swap6\n      pop\n        /* \"#utility.yul\":2560:2678   */\n      pop\n        /* \"#utility.yul\":2717:2719   */\n      0x40\n        /* \"#utility.yul\":2743:2796   */\n      tag_499\n        /* \"#utility.yul\":2788:2795   */\n      dup10\n        /* \"#utility.yul\":2779:2785   */\n      dup3\n        /* \"#utility.yul\":2768:2777   */\n      dup11\n        /* \"#utility.yul\":2764:2786   */\n      add\n        /* \"#utility.yul\":2743:2796   */\n      tag_399\n      jump\t// in\n    tag_499:\n        /* \"#utility.yul\":2733:2796   */\n      swap5\n      pop\n        /* \"#utility.yul\":2688:2806   */\n      pop\n        /* \"#utility.yul\":2873:2875   */\n      0x60\n        /* \"#utility.yul\":2862:2871   */\n      dup8\n        /* \"#utility.yul\":2858:2876   */\n      add\n        /* \"#utility.yul\":2845:2877   */\n      calldataload\n        /* \"#utility.yul\":2904:2922   */\n      0xffffffffffffffff\n        /* \"#utility.yul\":2896:2902   */\n      dup2\n        /* \"#utility.yul\":2893:2923   */\n      gt\n        /* \"#utility.yul\":2890:3007   */\n      iszero\n      tag_500\n      jumpi\n        /* \"#utility.yul\":2926:3005   */\n      tag_501\n      tag_392\n      jump\t// in\n    tag_501:\n        /* \"#utility.yul\":2890:3007   */\n    tag_500:\n        /* \"#utility.yul\":3039:3104   */\n      tag_502\n        /* \"#utility.yul\":3096:3103   */\n      dup10\n        /* \"#utility.yul\":3087:3093   */\n      dup3\n        /* \"#utility.yul\":3076:3085   */\n      dup11\n        /* \"#utility.yul\":3072:3094   */\n      add\n        /* \"#utility.yul\":3039:3104   */\n      tag_403\n      jump\t// in\n    tag_502:\n        /* \"#utility.yul\":3021:3104   */\n      swap4\n      pop\n      swap4\n      pop\n        /* \"#utility.yul\":2816:3114   */\n      pop\n        /* \"#utility.yul\":3153:3156   */\n      0x80\n        /* \"#utility.yul\":3180:3233   */\n      tag_503\n        /* \"#utility.yul\":3225:3232   */\n      dup10\n        /* \"#utility.yul\":3216:3222   */\n      dup3\n        /* \"#utility.yul\":3205:3214   */\n      dup11\n        /* \"#utility.yul\":3201:3223   */\n      add\n        /* \"#utility.yul\":3180:3233   */\n      tag_399\n      jump\t// in\n    tag_503:\n        /* \"#utility.yul\":3170:3233   */\n      swap2\n      pop\n        /* \"#utility.yul\":3124:3243   */\n      pop\n        /* \"#utility.yul\":2139:3250   */\n      swap3\n      swap6\n      pop\n      swap3\n      swap6\n      pop\n      swap3\n      swap6\n      jump\t// out\n        /* \"#utility.yul\":3256:3730   */\n    tag_31:\n        /* \"#utility.yul\":3324:3330   */\n      0x00\n        /* \"#utility.yul\":3332:3338   */\n      dup1\n        /* \"#utility.yul\":3381:3383   */\n      0x40\n        /* \"#utility.yul\":3369:3378   */\n      dup4\n        /* \"#utility.yul\":3360:3367   */\n      dup6\n        /* \"#utility.yul\":3356:3379   */\n      sub\n        /* \"#utility.yul\":3352:3384   */\n      slt\n        /* \"#utility.yul\":3349:3468   */\n      iszero\n      tag_505\n      jumpi\n        /* \"#utility.yul\":3387:3466   */\n      tag_506\n      tag_391\n      jump\t// in\n    tag_506:\n        /* \"#utility.yul\":3349:3468   */\n    tag_505:\n        /* \"#utility.yul\":3507:3508   */\n      0x00\n        /* \"#utility.yul\":3532:3585   */\n      tag_507\n        /* \"#utility.yul\":3577:3584   */\n      dup6\n        /* \"#utility.yul\":3568:3574   */\n      dup3\n        /* \"#utility.yul\":3557:3566   */\n      dup7\n        /* \"#utility.yul\":3553:3575   */\n      add\n        /* \"#utility.yul\":3532:3585   */\n      tag_396\n      jump\t// in\n    tag_507:\n        /* \"#utility.yul\":3522:3585   */\n      swap3\n      pop\n        /* \"#utility.yul\":3478:3595   */\n      pop\n        /* \"#utility.yul\":3634:3636   */\n      0x20\n        /* \"#utility.yul\":3660:3713   */\n      tag_508\n        /* \"#utility.yul\":3705:3712   */\n      dup6\n        /* \"#utility.yul\":3696:3702   */\n      dup3\n        /* \"#utility.yul\":3685:3694   */\n      dup7\n        /* \"#utility.yul\":3681:3703   */\n      add\n        /* \"#utility.yul\":3660:3713   */\n      tag_399\n      jump\t// in\n    tag_508:\n        /* \"#utility.yul\":3650:3713   */\n      swap2\n      pop\n        /* \"#utility.yul\":3605:3723   */\n      pop\n        /* \"#utility.yul\":3256:3730   */\n      swap3\n      pop\n      swap3\n      swap1\n      pop\n      jump\t// out\n        /* \"#utility.yul\":3736:3854   */\n    tag_404:\n        /* \"#utility.yul\":3823:3847   */\n      tag_510\n        /* \"#utility.yul\":3841:3846   */\n      dup2\n        /* \"#utility.yul\":3823:3847   */\n      tag_397\n      jump\t// in\n    tag_510:\n        /* \"#utility.yul\":3818:3821   */\n      dup3\n        /* \"#utility.yul\":3811:3848   */\n      mstore\n        /* \"#utility.yul\":3736:3854   */\n      pop\n      pop\n      jump\t// out\n        /* \"#utility.yul\":3860:3959   */\n    tag_405:\n        /* \"#utility.yul\":3912:3918   */\n      0x00\n        /* \"#utility.yul\":3946:3951   */\n      dup2\n        /* \"#utility.yul\":3940:3952   */\n      mload\n        /* \"#utility.yul\":3930:3952   */\n      swap1\n      pop\n        /* \"#utility.yul\":3860:3959   */\n      swap2\n      swap1\n      pop\n      jump\t// out\n        /* \"#utility.yul\":3965:4134   */\n    tag_406:\n        /* \"#utility.yul\":4049:4060   */\n      0x00\n        /* \"#utility.yul\":4083:4089   */\n      dup3\n        /* \"#utility.yul\":4078:4081   */\n      dup3\n        /* \"#utility.yul\":4071:4090   */\n      mstore\n        /* \"#utility.yul\":4123:4127   */\n      0x20\n        /* \"#utility.yul\":4118:4121   */\n      dup3\n        /* \"#utility.yul\":4114:4128   */\n      add\n        /* \"#utility.yul\":4099:4128   */\n      swap1\n      pop\n        /* \"#utility.yul\":3965:4134   */\n      swap3\n      swap2\n      pop\n      pop\n      jump\t// out\n        /* \"#utility.yul\":4140:4386   */\n    tag_407:\n        /* \"#utility.yul\":4221:4222   */\n      0x00\n        /* \"#utility.yul\":4231:4344   */\n    tag_514:\n        /* \"#utility.yul\":4245:4251   */\n      dup4\n        /* \"#utility.yul\":4242:4243   */\n      dup2\n        /* \"#utility.yul\":4239:4252   */\n      lt\n        /* \"#utility.yul\":4231:4344   */\n      iszero\n      tag_516\n      jumpi\n        /* \"#utility.yul\":4330:4331   */\n      dup1\n        /* \"#utility.yul\":4325:4328   */\n      dup3\n        /* \"#utility.yul\":4321:4332   */\n      add\n        /* \"#utility.yul\":4315:4333   */\n      mload\n        /* \"#utility.yul\":4311:4312   */\n      dup2\n        /* \"#utility.yul\":4306:4309   */\n      dup5\n        /* \"#utility.yul\":4302:4313   */\n      add\n        /* \"#utility.yul\":4295:4334   */\n      mstore\n        /* \"#utility.yul\":4267:4269   */\n      0x20\n        /* \"#utility.yul\":4264:4265   */\n      dup2\n        /* \"#utility.yul\":4260:4270   */\n      add\n        /* \"#utility.yul\":4255:4270   */\n      swap1\n      pop\n        /* \"#utility.yul\":4231:4344   */\n      jump(tag_514)\n    tag_516:\n        /* \"#utility.yul\":4378:4379   */\n      0x00\n        /* \"#utility.yul\":4369:4375   */\n      dup5\n        /* \"#utility.yul\":4364:4367   */\n      dup5\n        /* \"#utility.yul\":4360:4376   */\n      add\n        /* \"#utility.yul\":4353:4380   */\n      mstore\n        /* \"#utility.yul\":4202:4386   */\n      pop\n        /* \"#utility.yul\":4140:4386   */\n      pop\n      pop\n      pop\n      jump\t// out\n        /* \"#utility.yul\":4392:4494   */\n    tag_408:\n        /* \"#utility.yul\":4433:4439   */\n      0x00\n        /* \"#utility.yul\":4484:4486   */\n      0x1f\n        /* \"#utility.yul\":4480:4487   */\n      not\n        /* \"#utility.yul\":4475:4477   */\n      0x1f\n        /* \"#utility.yul\":4468:4473   */\n      dup4\n        /* \"#utility.yul\":4464:4478   */\n      add\n        /* \"#utility.yul\":4460:4488   */\n      and\n        /* \"#utility.yul\":4450:4488   */\n      swap1\n      pop\n        /* \"#utility.yul\":4392:4494   */\n      swap2\n      swap1\n      pop\n      jump\t// out\n        /* \"#utility.yul\":4500:4877   */\n    tag_409:\n        /* \"#utility.yul\":4588:4591   */\n      0x00\n        /* \"#utility.yul\":4616:4655   */\n      tag_519\n        /* \"#utility.yul\":4649:4654   */\n      dup3\n        /* \"#utility.yul\":4616:4655   */\n      tag_405\n      jump\t// in\n    tag_519:\n        /* \"#utility.yul\":4671:4742   */\n      tag_520\n        /* \"#utility.yul\":4735:4741   */\n      dup2\n        /* \"#utility.yul\":4730:4733   */\n      dup6\n        /* \"#utility.yul\":4671:4742   */\n      tag_406\n      jump\t// in\n    tag_520:\n        /* \"#utility.yul\":4664:4742   */\n      swap4\n      pop\n        /* \"#utility.yul\":4751:4816   */\n      tag_521\n        /* \"#utility.yul\":4809:4815   */\n      dup2\n        /* \"#utility.yul\":4804:4807   */\n      dup6\n        /* \"#utility.yul\":4797:4801   */\n      0x20\n        /* \"#utility.yul\":4790:4795   */\n      dup7\n        /* \"#utility.yul\":4786:4802   */\n      add\n        /* \"#utility.yul\":4751:4816   */\n      tag_407\n      jump\t// in\n    tag_521:\n        /* \"#utility.yul\":4841:4870   */\n      tag_522\n        /* \"#utility.yul\":4863:4869   */\n      dup2\n        /* \"#utility.yul\":4841:4870   */\n      tag_408\n      jump\t// in\n    tag_522:\n        /* \"#utility.yul\":4836:4839   */\n      dup5\n        /* \"#utility.yul\":4832:4871   */\n      add\n        /* \"#utility.yul\":4825:4871   */\n      swap2\n      pop\n        /* \"#utility.yul\":4592:4877   */\n      pop\n        /* \"#utility.yul\":4500:4877   */\n      swap3\n      swap2\n      pop\n      pop\n      jump\t// out\n        /* \"#utility.yul\":4883:5527   */\n    tag_34:\n        /* \"#utility.yul\":5080:5084   */\n      0x00\n        /* \"#utility.yul\":5118:5121   */\n      0x80\n        /* \"#utility.yul\":5107:5116   */\n      dup3\n        /* \"#utility.yul\":5103:5122   */\n      add\n        /* \"#utility.yul\":5095:5122   */\n      swap1\n      pop\n        /* \"#utility.yul\":5132:5203   */\n      tag_524\n        /* \"#utility.yul\":5200:5201   */\n      0x00\n        /* \"#utility.yul\":5189:5198   */\n      dup4\n        /* \"#utility.yul\":5185:5202   */\n      add\n        /* \"#utility.yul\":5176:5182   */\n      dup8\n        /* \"#utility.yul\":5132:5203   */\n      tag_404\n      jump\t// in\n    tag_524:\n        /* \"#utility.yul\":5213:5285   */\n      tag_525\n        /* \"#utility.yul\":5281:5283   */\n      0x20\n        /* \"#utility.yul\":5270:5279   */\n      dup4\n        /* \"#utility.yul\":5266:5284   */\n      add\n        /* \"#utility.yul\":5257:5263   */\n      dup7\n        /* \"#utility.yul\":5213:5285   */\n      tag_404\n      jump\t// in\n    tag_525:\n        /* \"#utility.yul\":5332:5341   */\n      dup2\n        /* \"#utility.yul\":5326:5330   */\n      dup2\n        /* \"#utility.yul\":5322:5342   */\n      sub\n        /* \"#utility.yul\":5317:5319   */\n      0x40\n        /* \"#utility.yul\":5306:5315   */\n      dup4\n        /* \"#utility.yul\":5302:5320   */\n      add\n        /* \"#utility.yul\":5295:5343   */\n      mstore\n        /* \"#utility.yul\":5360:5438   */\n      tag_526\n        /* \"#utility.yul\":5433:5437   */\n      dup2\n        /* \"#utility.yul\":5424:5430   */\n      dup6\n        /* \"#utility.yul\":5360:5438   */\n      tag_409\n      jump\t// in\n    tag_526:\n        /* \"#utility.yul\":5352:5438   */\n      swap1\n      pop\n        /* \"#utility.yul\":5448:5520   */\n      tag_527\n        /* \"#utility.yul\":5516:5518   */\n      0x60\n        /* \"#utility.yul\":5505:5514   */\n      dup4\n        /* \"#utility.yul\":5501:5519   */\n      add\n        /* \"#utility.yul\":5492:5498   */\n      dup5\n        /* \"#utility.yul\":5448:5520   */\n      tag_404\n      jump\t// in\n    tag_527:\n        /* \"#utility.yul\":4883:5527   */\n      swap6\n      swap5\n      pop\n      pop\n      pop\n      pop\n      pop\n      jump\t// out\n        /* \"#utility.yul\":5533:5862   */\n    tag_45:\n        /* \"#utility.yul\":5592:5598   */\n      0x00\n        /* \"#utility.yul\":5641:5643   */\n      0x20\n        /* \"#utility.yul\":5629:5638   */\n      dup3\n        /* \"#utility.yul\":5620:5627   */\n      dup5\n        /* \"#utility.yul\":5616:5639   */\n      sub\n        /* \"#utility.yul\":5612:5644   */\n      slt\n        /* \"#utility.yul\":5609:5728   */\n      iszero\n      tag_529\n      jumpi\n        /* \"#utility.yul\":5647:5726   */\n      tag_530\n      tag_391\n      jump\t// in\n    tag_530:\n        /* \"#utility.yul\":5609:5728   */\n    tag_529:\n        /* \"#utility.yul\":5767:5768   */\n      0x00\n        /* \"#utility.yul\":5792:5845   */\n      tag_531\n        /* \"#utility.yul\":5837:5844   */\n      dup5\n        /* \"#utility.yul\":5828:5834   */\n      dup3\n        /* \"#utility.yul\":5817:5826   */\n      dup6\n        /* \"#utility.yul\":5813:5835   */\n      add\n        /* \"#utility.yul\":5792:5845   */\n      tag_399\n      jump\t// in\n    tag_531:\n        /* \"#utility.yul\":5782:5845   */\n      swap2\n      pop\n        /* \"#utility.yul\":5738:5855   */\n      pop\n        /* \"#utility.yul\":5533:5862   */\n      swap3\n      swap2\n      pop\n      pop\n      jump\t// out\n        /* \"#utility.yul\":5868:5986   */\n    tag_410:\n        /* \"#utility.yul\":5955:5979   */\n      tag_533\n        /* \"#utility.yul\":5973:5978   */\n      dup2\n        /* \"#utility.yul\":5955:5979   */\n      tag_394\n      jump\t// in\n    tag_533:\n        /* \"#utility.yul\":5950:5953   */\n      dup3\n        /* \"#utility.yul\":5943:5980   */\n      mstore\n        /* \"#utility.yul\":5868:5986   */\n      pop\n      pop\n      jump\t// out\n        /* \"#utility.yul\":5992:6172   */\n    tag_113:\n        /* \"#utility.yul\":6040:6117   */\n      0x4e487b7100000000000000000000000000000000000000000000000000000000\n        /* \"#utility.yul\":6037:6038   */\n      0x00\n        /* \"#utility.yul\":6030:6118   */\n      mstore\n        /* \"#utility.yul\":6137:6141   */\n      0x21\n        /* \"#utility.yul\":6134:6135   */\n      0x04\n        /* \"#utility.yul\":6127:6142   */\n      mstore\n        /* \"#utility.yul\":6161:6165   */\n      0x24\n        /* \"#utility.yul\":6158:6159   */\n      0x00\n        /* \"#utility.yul\":6151:6166   */\n      revert\n        /* \"#utility.yul\":6178:6289   */\n    tag_411:\n        /* \"#utility.yul\":6257:6258   */\n      0x03\n        /* \"#utility.yul\":6250:6255   */\n      dup2\n        /* \"#utility.yul\":6247:6259   */\n      lt\n        /* \"#utility.yul\":6237:6283   */\n      tag_536\n      jumpi\n        /* \"#utility.yul\":6263:6281   */\n      tag_537\n      tag_113\n      jump\t// in\n    tag_537:\n        /* \"#utility.yul\":6237:6283   */\n    tag_536:\n        /* \"#utility.yul\":6178:6289   */\n      pop\n      jump\t// out\n        /* \"#utility.yul\":6295:6418   */\n    tag_412:\n        /* \"#utility.yul\":6338:6345   */\n      0x00\n        /* \"#utility.yul\":6367:6372   */\n      dup2\n        /* \"#utility.yul\":6356:6372   */\n      swap1\n      pop\n        /* \"#utility.yul\":6373:6412   */\n      tag_539\n        /* \"#utility.yul\":6406:6411   */\n      dup3\n        /* \"#utility.yul\":6373:6412   */\n      tag_411\n      jump\t// in\n    tag_539:\n        /* \"#utility.yul\":6295:6418   */\n      swap2\n      swap1\n      pop\n      jump\t// out\n        /* \"#utility.yul\":6424:6547   */\n    tag_413:\n        /* \"#utility.yul\":6478:6487   */\n      0x00\n        /* \"#utility.yul\":6511:6541   */\n      tag_541\n        /* \"#utility.yul\":6535:6540   */\n      dup3\n        /* \"#utility.yul\":6511:6541   */\n      tag_412\n      jump\t// in\n    tag_541:\n        /* \"#utility.yul\":6498:6541   */\n      swap1\n      pop\n        /* \"#utility.yul\":6424:6547   */\n      swap2\n      swap1\n      pop\n      jump\t// out\n        /* \"#utility.yul\":6553:6692   */\n    tag_414:\n        /* \"#utility.yul\":6644:6685   */\n      tag_543\n        /* \"#utility.yul\":6679:6684   */\n      dup2\n        /* \"#utility.yul\":6644:6685   */\n      tag_413\n      jump\t// in\n    tag_543:\n        /* \"#utility.yul\":6639:6642   */\n      dup3\n        /* \"#utility.yul\":6632:6686   */\n      mstore\n        /* \"#utility.yul\":6553:6692   */\n      pop\n      pop\n      jump\t// out\n        /* \"#utility.yul\":6698:7038   */\n    tag_48:\n        /* \"#utility.yul\":6823:6827   */\n      0x00\n        /* \"#utility.yul\":6861:6863   */\n      0x40\n        /* \"#utility.yul\":6850:6859   */\n      dup3\n        /* \"#utility.yul\":6846:6864   */\n      add\n        /* \"#utility.yul\":6838:6864   */\n      swap1\n      pop\n        /* \"#utility.yul\":6874:6945   */\n      tag_545\n        /* \"#utility.yul\":6942:6943   */\n      0x00\n        /* \"#utility.yul\":6931:6940   */\n      dup4\n        /* \"#utility.yul\":6927:6944   */\n      add\n        /* \"#utility.yul\":6918:6924   */\n      dup6\n        /* \"#utility.yul\":6874:6945   */\n      tag_410\n      jump\t// in\n    tag_545:\n        /* \"#utility.yul\":6955:7031   */\n      tag_546\n        /* \"#utility.yul\":7027:7029   */\n      0x20\n        /* \"#utility.yul\":7016:7025   */\n      dup4\n        /* \"#utility.yul\":7012:7030   */\n      add\n        /* \"#utility.yul\":7003:7009   */\n      dup5\n        /* \"#utility.yul\":6955:7031   */\n      tag_414\n      jump\t// in\n    tag_546:\n        /* \"#utility.yul\":6698:7038   */\n      swap4\n      swap3\n      pop\n      pop\n      pop\n      jump\t// out\n        /* \"#utility.yul\":7044:7149   */\n    tag_415:\n        /* \"#utility.yul\":7123:7124   */\n      0x03\n        /* \"#utility.yul\":7116:7121   */\n      dup2\n        /* \"#utility.yul\":7113:7125   */\n      lt\n        /* \"#utility.yul\":7103:7143   */\n      tag_548\n      jumpi\n        /* \"#utility.yul\":7139:7140   */\n      0x00\n        /* \"#utility.yul\":7136:7137   */\n      dup1\n        /* \"#utility.yul\":7129:7141   */\n      revert\n        /* \"#utility.yul\":7103:7143   */\n    tag_548:\n        /* \"#utility.yul\":7044:7149   */\n      pop\n      jump\t// out\n        /* \"#utility.yul\":7155:7306   */\n    tag_416:\n        /* \"#utility.yul\":7207:7212   */\n      0x00\n        /* \"#utility.yul\":7245:7251   */\n      dup2\n        /* \"#utility.yul\":7232:7252   */\n      calldataload\n        /* \"#utility.yul\":7223:7252   */\n      swap1\n      pop\n        /* \"#utility.yul\":7261:7300   */\n      tag_550\n        /* \"#utility.yul\":7294:7299   */\n      dup2\n        /* \"#utility.yul\":7261:7300   */\n      tag_415\n      jump\t// in\n    tag_550:\n        /* \"#utility.yul\":7155:7306   */\n      swap3\n      swap2\n      pop\n      pop\n      jump\t// out\n        /* \"#utility.yul\":7312:7653   */\n    tag_52:\n        /* \"#utility.yul\":7377:7383   */\n      0x00\n        /* \"#utility.yul\":7426:7428   */\n      0x20\n        /* \"#utility.yul\":7414:7423   */\n      dup3\n        /* \"#utility.yul\":7405:7412   */\n      dup5\n        /* \"#utility.yul\":7401:7424   */\n      sub\n        /* \"#utility.yul\":7397:7429   */\n      slt\n        /* \"#utility.yul\":7394:7513   */\n      iszero\n      tag_552\n      jumpi\n        /* \"#utility.yul\":7432:7511   */\n      tag_553\n      tag_391\n      jump\t// in\n    tag_553:\n        /* \"#utility.yul\":7394:7513   */\n    tag_552:\n        /* \"#utility.yul\":7552:7553   */\n      0x00\n        /* \"#utility.yul\":7577:7636   */\n      tag_554\n        /* \"#utility.yul\":7628:7635   */\n      dup5\n        /* \"#utility.yul\":7619:7625   */\n      dup3\n        /* \"#utility.yul\":7608:7617   */\n      dup6\n        /* \"#utility.yul\":7604:7626   */\n      add\n        /* \"#utility.yul\":7577:7636   */\n      tag_416\n      jump\t// in\n    tag_554:\n        /* \"#utility.yul\":7567:7636   */\n      swap2\n      pop\n        /* \"#utility.yul\":7523:7646   */\n      pop\n        /* \"#utility.yul\":7312:7653   */\n      swap3\n      swap2\n      pop\n      pop\n      jump\t// out\n        /* \"#utility.yul\":7659:7881   */\n    tag_66:\n        /* \"#utility.yul\":7752:7756   */\n      0x00\n        /* \"#utility.yul\":7790:7792   */\n      0x20\n        /* \"#utility.yul\":7779:7788   */\n      dup3\n        /* \"#utility.yul\":7775:7793   */\n      add\n        /* \"#utility.yul\":7767:7793   */\n      swap1\n      pop\n        /* \"#utility.yul\":7803:7874   */\n      tag_556\n        /* \"#utility.yul\":7871:7872   */\n      0x00\n        /* \"#utility.yul\":7860:7869   */\n      dup4\n        /* \"#utility.yul\":7856:7873   */\n      add\n        /* \"#utility.yul\":7847:7853   */\n      dup5\n        /* \"#utility.yul\":7803:7874   */\n      tag_404\n      jump\t// in\n    tag_556:\n        /* \"#utility.yul\":7659:7881   */\n      swap3\n      swap2\n      pop\n      pop\n      jump\t// out\n        /* \"#utility.yul\":7887:8998   */\n    tag_70:\n        /* \"#utility.yul\":7994:8000   */\n      0x00\n        /* \"#utility.yul\":8002:8008   */\n      dup1\n        /* \"#utility.yul\":8010:8016   */\n      0x00\n        /* \"#utility.yul\":8018:8024   */\n      dup1\n        /* \"#utility.yul\":8026:8032   */\n      0x00\n        /* \"#utility.yul\":8034:8040   */\n      dup1\n        /* \"#utility.yul\":8083:8086   */\n      0xa0\n        /* \"#utility.yul\":8071:8080   */\n      dup8\n        /* \"#utility.yul\":8062:8069   */\n      dup10\n        /* \"#utility.yul\":8058:8081   */\n      sub\n        /* \"#utility.yul\":8054:8087   */\n      slt\n        /* \"#utility.yul\":8051:8171   */\n      iszero\n      tag_558\n      jumpi\n        /* \"#utility.yul\":8090:8169   */\n      tag_559\n      tag_391\n      jump\t// in\n    tag_559:\n        /* \"#utility.yul\":8051:8171   */\n    tag_558:\n        /* \"#utility.yul\":8210:8211   */\n      0x00\n        /* \"#utility.yul\":8235:8288   */\n      tag_560\n        /* \"#utility.yul\":8280:8287   */\n      dup10\n        /* \"#utility.yul\":8271:8277   */\n      dup3\n        /* \"#utility.yul\":8260:8269   */\n      dup11\n        /* \"#utility.yul\":8256:8278   */\n      add\n        /* \"#utility.yul\":8235:8288   */\n      tag_399\n      jump\t// in\n    tag_560:\n        /* \"#utility.yul\":8225:8288   */\n      swap7\n      pop\n        /* \"#utility.yul\":8181:8298   */\n      pop\n        /* \"#utility.yul\":8337:8339   */\n      0x20\n        /* \"#utility.yul\":8363:8416   */\n      tag_561\n        /* \"#utility.yul\":8408:8415   */\n      dup10\n        /* \"#utility.yul\":8399:8405   */\n      dup3\n        /* \"#utility.yul\":8388:8397   */\n      dup11\n        /* \"#utility.yul\":8384:8406   */\n      add\n        /* \"#utility.yul\":8363:8416   */\n      tag_399\n      jump\t// in\n    tag_561:\n        /* \"#utility.yul\":8353:8416   */\n      swap6\n      pop\n        /* \"#utility.yul\":8308:8426   */\n      pop\n        /* \"#utility.yul\":8493:8495   */\n      0x40\n        /* \"#utility.yul\":8482:8491   */\n      dup8\n        /* \"#utility.yul\":8478:8496   */\n      add\n        /* \"#utility.yul\":8465:8497   */\n      calldataload\n        /* \"#utility.yul\":8524:8542   */\n      0xffffffffffffffff\n        /* \"#utility.yul\":8516:8522   */\n      dup2\n        /* \"#utility.yul\":8513:8543   */\n      gt\n        /* \"#utility.yul\":8510:8627   */\n      iszero\n      tag_562\n      jumpi\n        /* \"#utility.yul\":8546:8625   */\n      tag_563\n      tag_392\n      jump\t// in\n    tag_563:\n        /* \"#utility.yul\":8510:8627   */\n    tag_562:\n        /* \"#utility.yul\":8659:8724   */\n      tag_564\n        /* \"#utility.yul\":8716:8723   */\n      dup10\n        /* \"#utility.yul\":8707:8713   */\n      dup3\n        /* \"#utility.yul\":8696:8705   */\n      dup11\n        /* \"#utility.yul\":8692:8714   */\n      add\n        /* \"#utility.yul\":8659:8724   */\n      tag_403\n      jump\t// in\n    tag_564:\n        /* \"#utility.yul\":8641:8724   */\n      swap5\n      pop\n      swap5\n      pop\n        /* \"#utility.yul\":8436:8734   */\n      pop\n        /* \"#utility.yul\":8773:8775   */\n      0x60\n        /* \"#utility.yul\":8799:8852   */\n      tag_565\n        /* \"#utility.yul\":8844:8851   */\n      dup10\n        /* \"#utility.yul\":8835:8841   */\n      dup3\n        /* \"#utility.yul\":8824:8833   */\n      dup11\n        /* \"#utility.yul\":8820:8842   */\n      add\n        /* \"#utility.yul\":8799:8852   */\n      tag_399\n      jump\t// in\n    tag_565:\n        /* \"#utility.yul\":8789:8852   */\n      swap3\n      pop\n        /* \"#utility.yul\":8744:8862   */\n      pop\n        /* \"#utility.yul\":8901:8904   */\n      0x80\n        /* \"#utility.yul\":8928:8981   */\n      tag_566\n        /* \"#utility.yul\":8973:8980   */\n      dup10\n        /* \"#utility.yul\":8964:8970   */\n      dup3\n        /* \"#utility.yul\":8953:8962   */\n      dup11\n        /* \"#utility.yul\":8949:8971   */\n      add\n        /* \"#utility.yul\":8928:8981   */\n      tag_396\n      jump\t// in\n    tag_566:\n        /* \"#utility.yul\":8918:8981   */\n      swap2\n      pop\n        /* \"#utility.yul\":8872:8991   */\n      pop\n        /* \"#utility.yul\":7887:8998   */\n      swap3\n      swap6\n      pop\n      swap3\n      swap6\n      pop\n      swap3\n      swap6\n      jump\t// out\n        /* \"#utility.yul\":9004:9226   */\n    tag_76:\n        /* \"#utility.yul\":9097:9101   */\n      0x00\n        /* \"#utility.yul\":9135:9137   */\n      0x20\n        /* \"#utility.yul\":9124:9133   */\n      dup3\n        /* \"#utility.yul\":9120:9138   */\n      add\n        /* \"#utility.yul\":9112:9138   */\n      swap1\n      pop\n        /* \"#utility.yul\":9148:9219   */\n      tag_568\n        /* \"#utility.yul\":9216:9217   */\n      0x00\n        /* \"#utility.yul\":9205:9214   */\n      dup4\n        /* \"#utility.yul\":9201:9218   */\n      add\n        /* \"#utility.yul\":9192:9198   */\n      dup5\n        /* \"#utility.yul\":9148:9219   */\n      tag_410\n      jump\t// in\n    tag_568:\n        /* \"#utility.yul\":9004:9226   */\n      swap3\n      swap2\n      pop\n      pop\n      jump\t// out\n        /* \"#utility.yul\":9232:9349   */\n    tag_417:\n        /* \"#utility.yul\":9341:9342   */\n      0x00\n        /* \"#utility.yul\":9338:9339   */\n      dup1\n        /* \"#utility.yul\":9331:9343   */\n      revert\n        /* \"#utility.yul\":9355:9535   */\n    tag_418:\n        /* \"#utility.yul\":9403:9480   */\n      0x4e487b7100000000000000000000000000000000000000000000000000000000\n        /* \"#utility.yul\":9400:9401   */\n      0x00\n        /* \"#utility.yul\":9393:9481   */\n      mstore\n        /* \"#utility.yul\":9500:9504   */\n      0x41\n        /* \"#utility.yul\":9497:9498   */\n      0x04\n        /* \"#utility.yul\":9490:9505   */\n      mstore\n        /* \"#utility.yul\":9524:9528   */\n      0x24\n        /* \"#utility.yul\":9521:9522   */\n      0x00\n        /* \"#utility.yul\":9514:9529   */\n      revert\n        /* \"#utility.yul\":9541:9822   */\n    tag_419:\n        /* \"#utility.yul\":9624:9651   */\n      tag_572\n        /* \"#utility.yul\":9646:9650   */\n      dup3\n        /* \"#utility.yul\":9624:9651   */\n      tag_408\n      jump\t// in\n    tag_572:\n        /* \"#utility.yul\":9616:9622   */\n      dup2\n        /* \"#utility.yul\":9612:9652   */\n      add\n        /* \"#utility.yul\":9754:9760   */\n      dup2\n        /* \"#utility.yul\":9742:9752   */\n      dup2\n        /* \"#utility.yul\":9739:9761   */\n      lt\n        /* \"#utility.yul\":9718:9736   */\n      0xffffffffffffffff\n        /* \"#utility.yul\":9706:9716   */\n      dup3\n        /* \"#utility.yul\":9703:9737   */\n      gt\n        /* \"#utility.yul\":9700:9762   */\n      or\n        /* \"#utility.yul\":9697:9785   */\n      iszero\n      tag_573\n      jumpi\n        /* \"#utility.yul\":9765:9783   */\n      tag_574\n      tag_418\n      jump\t// in\n    tag_574:\n        /* \"#utility.yul\":9697:9785   */\n    tag_573:\n        /* \"#utility.yul\":9805:9815   */\n      dup1\n        /* \"#utility.yul\":9801:9803   */\n      0x40\n        /* \"#utility.yul\":9794:9816   */\n      mstore\n        /* \"#utility.yul\":9584:9822   */\n      pop\n        /* \"#utility.yul\":9541:9822   */\n      pop\n      pop\n      jump\t// out\n        /* \"#utility.yul\":9828:9957   */\n    tag_420:\n        /* \"#utility.yul\":9862:9868   */\n      0x00\n        /* \"#utility.yul\":9889:9909   */\n      tag_576\n      tag_390\n      jump\t// in\n    tag_576:\n        /* \"#utility.yul\":9879:9909   */\n      swap1\n      pop\n        /* \"#utility.yul\":9918:9951   */\n      tag_577\n        /* \"#utility.yul\":9946:9950   */\n      dup3\n        /* \"#utility.yul\":9938:9944   */\n      dup3\n        /* \"#utility.yul\":9918:9951   */\n      tag_419\n      jump\t// in\n    tag_577:\n        /* \"#utility.yul\":9828:9957   */\n      swap2\n      swap1\n      pop\n      jump\t// out\n        /* \"#utility.yul\":9963:10271   */\n    tag_421:\n        /* \"#utility.yul\":10025:10029   */\n      0x00\n        /* \"#utility.yul\":10115:10133   */\n      0xffffffffffffffff\n        /* \"#utility.yul\":10107:10113   */\n      dup3\n        /* \"#utility.yul\":10104:10134   */\n      gt\n        /* \"#utility.yul\":10101:10157   */\n      iszero\n      tag_579\n      jumpi\n        /* \"#utility.yul\":10137:10155   */\n      tag_580\n      tag_418\n      jump\t// in\n    tag_580:\n        /* \"#utility.yul\":10101:10157   */\n    tag_579:\n        /* \"#utility.yul\":10175:10204   */\n      tag_581\n        /* \"#utility.yul\":10197:10203   */\n      dup3\n        /* \"#utility.yul\":10175:10204   */\n      tag_408\n      jump\t// in\n    tag_581:\n        /* \"#utility.yul\":10167:10204   */\n      swap1\n      pop\n        /* \"#utility.yul\":10259:10263   */\n      0x20\n        /* \"#utility.yul\":10253:10257   */\n      dup2\n        /* \"#utility.yul\":10249:10264   */\n      add\n        /* \"#utility.yul\":10241:10264   */\n      swap1\n      pop\n        /* \"#utility.yul\":9963:10271   */\n      swap2\n      swap1\n      pop\n      jump\t// out\n        /* \"#utility.yul\":10277:10423   */\n    tag_422:\n        /* \"#utility.yul\":10374:10380   */\n      dup3\n        /* \"#utility.yul\":10369:10372   */\n      dup2\n        /* \"#utility.yul\":10364:10367   */\n      dup4\n        /* \"#utility.yul\":10351:10381   */\n      calldatacopy\n        /* \"#utility.yul\":10415:10416   */\n      0x00\n        /* \"#utility.yul\":10406:10412   */\n      dup4\n        /* \"#utility.yul\":10401:10404   */\n      dup4\n        /* \"#utility.yul\":10397:10413   */\n      add\n        /* \"#utility.yul\":10390:10417   */\n      mstore\n        /* \"#utility.yul\":10277:10423   */\n      pop\n      pop\n      pop\n      jump\t// out\n        /* \"#utility.yul\":10429:10854   */\n    tag_423:\n        /* \"#utility.yul\":10507:10512   */\n      0x00\n        /* \"#utility.yul\":10532:10598   */\n      tag_584\n        /* \"#utility.yul\":10548:10597   */\n      tag_585\n        /* \"#utility.yul\":10590:10596   */\n      dup5\n        /* \"#utility.yul\":10548:10597   */\n      tag_421\n      jump\t// in\n    tag_585:\n        /* \"#utility.yul\":10532:10598   */\n      tag_420\n      jump\t// in\n    tag_584:\n        /* \"#utility.yul\":10523:10598   */\n      swap1\n      pop\n        /* \"#utility.yul\":10621:10627   */\n      dup3\n        /* \"#utility.yul\":10614:10619   */\n      dup2\n        /* \"#utility.yul\":10607:10628   */\n      mstore\n        /* \"#utility.yul\":10659:10663   */\n      0x20\n        /* \"#utility.yul\":10652:10657   */\n      dup2\n        /* \"#utility.yul\":10648:10664   */\n      add\n        /* \"#utility.yul\":10697:10700   */\n      dup5\n        /* \"#utility.yul\":10688:10694   */\n      dup5\n        /* \"#utility.yul\":10683:10686   */\n      dup5\n        /* \"#utility.yul\":10679:10695   */\n      add\n        /* \"#utility.yul\":10676:10701   */\n      gt\n        /* \"#utility.yul\":10673:10785   */\n      iszero\n      tag_586\n      jumpi\n        /* \"#utility.yul\":10704:10783   */\n      tag_587\n      tag_417\n      jump\t// in\n    tag_587:\n        /* \"#utility.yul\":10673:10785   */\n    tag_586:\n        /* \"#utility.yul\":10794:10848   */\n      tag_588\n        /* \"#utility.yul\":10841:10847   */\n      dup5\n        /* \"#utility.yul\":10836:10839   */\n      dup3\n        /* \"#utility.yul\":10831:10834   */\n      dup6\n        /* \"#utility.yul\":10794:10848   */\n      tag_422\n      jump\t// in\n    tag_588:\n        /* \"#utility.yul\":10513:10854   */\n      pop\n        /* \"#utility.yul\":10429:10854   */\n      swap4\n      swap3\n      pop\n      pop\n      pop\n      jump\t// out\n        /* \"#utility.yul\":10874:11214   */\n    tag_424:\n        /* \"#utility.yul\":10930:10935   */\n      0x00\n        /* \"#utility.yul\":10979:10982   */\n      dup3\n        /* \"#utility.yul\":10972:10976   */\n      0x1f\n        /* \"#utility.yul\":10964:10970   */\n      dup4\n        /* \"#utility.yul\":10960:10977   */\n      add\n        /* \"#utility.yul\":10956:10983   */\n      slt\n        /* \"#utility.yul\":10946:11068   */\n      tag_590\n      jumpi\n        /* \"#utility.yul\":10987:11066   */\n      tag_591\n      tag_400\n      jump\t// in\n    tag_591:\n        /* \"#utility.yul\":10946:11068   */\n    tag_590:\n        /* \"#utility.yul\":11104:11110   */\n      dup2\n        /* \"#utility.yul\":11091:11111   */\n      calldataload\n        /* \"#utility.yul\":11129:11208   */\n      tag_592\n        /* \"#utility.yul\":11204:11207   */\n      dup5\n        /* \"#utility.yul\":11196:11202   */\n      dup3\n        /* \"#utility.yul\":11189:11193   */\n      0x20\n        /* \"#utility.yul\":11181:11187   */\n      dup7\n        /* \"#utility.yul\":11177:11194   */\n      add\n        /* \"#utility.yul\":11129:11208   */\n      tag_423\n      jump\t// in\n    tag_592:\n        /* \"#utility.yul\":11120:11208   */\n      swap2\n      pop\n        /* \"#utility.yul\":10936:11214   */\n      pop\n        /* \"#utility.yul\":10874:11214   */\n      swap3\n      swap2\n      pop\n      pop\n      jump\t// out\n        /* \"#utility.yul\":11220:12165   */\n    tag_79:\n        /* \"#utility.yul\":11316:11322   */\n      0x00\n        /* \"#utility.yul\":11324:11330   */\n      dup1\n        /* \"#utility.yul\":11332:11338   */\n      0x00\n        /* \"#utility.yul\":11340:11346   */\n      dup1\n        /* \"#utility.yul\":11389:11392   */\n      0x80\n        /* \"#utility.yul\":11377:11386   */\n      dup6\n        /* \"#utility.yul\":11368:11375   */\n      dup8\n        /* \"#utility.yul\":11364:11387   */\n      sub\n        /* \"#utility.yul\":11360:11393   */\n      slt\n        /* \"#utility.yul\":11357:11477   */\n      iszero\n      tag_594\n      jumpi\n        /* \"#utility.yul\":11396:11475   */\n      tag_595\n      tag_391\n      jump\t// in\n    tag_595:\n        /* \"#utility.yul\":11357:11477   */\n    tag_594:\n        /* \"#utility.yul\":11516:11517   */\n      0x00\n        /* \"#utility.yul\":11541:11594   */\n      tag_596\n        /* \"#utility.yul\":11586:11593   */\n      dup8\n        /* \"#utility.yul\":11577:11583   */\n      dup3\n        /* \"#utility.yul\":11566:11575   */\n      dup9\n        /* \"#utility.yul\":11562:11584   */\n      add\n        /* \"#utility.yul\":11541:11594   */\n      tag_396\n      jump\t// in\n    tag_596:\n        /* \"#utility.yul\":11531:11594   */\n      swap5\n      pop\n        /* \"#utility.yul\":11487:11604   */\n      pop\n        /* \"#utility.yul\":11643:11645   */\n      0x20\n        /* \"#utility.yul\":11669:11722   */\n      tag_597\n        /* \"#utility.yul\":11714:11721   */\n      dup8\n        /* \"#utility.yul\":11705:11711   */\n      dup3\n        /* \"#utility.yul\":11694:11703   */\n      dup9\n        /* \"#utility.yul\":11690:11712   */\n      add\n        /* \"#utility.yul\":11669:11722   */\n      tag_399\n      jump\t// in\n    tag_597:\n        /* \"#utility.yul\":11659:11722   */\n      swap4\n      pop\n        /* \"#utility.yul\":11614:11732   */\n      pop\n        /* \"#utility.yul\":11771:11773   */\n      0x40\n        /* \"#utility.yul\":11797:11850   */\n      tag_598\n        /* \"#utility.yul\":11842:11849   */\n      dup8\n        /* \"#utility.yul\":11833:11839   */\n      dup3\n        /* \"#utility.yul\":11822:11831   */\n      dup9\n        /* \"#utility.yul\":11818:11840   */\n      add\n        /* \"#utility.yul\":11797:11850   */\n      tag_399\n      jump\t// in\n    tag_598:\n        /* \"#utility.yul\":11787:11850   */\n      swap3\n      pop\n        /* \"#utility.yul\":11742:11860   */\n      pop\n        /* \"#utility.yul\":11927:11929   */\n      0x60\n        /* \"#utility.yul\":11916:11925   */\n      dup6\n        /* \"#utility.yul\":11912:11930   */\n      add\n        /* \"#utility.yul\":11899:11931   */\n      calldataload\n        /* \"#utility.yul\":11958:11976   */\n      0xffffffffffffffff\n        /* \"#utility.yul\":11950:11956   */\n      dup2\n        /* \"#utility.yul\":11947:11977   */\n      gt\n        /* \"#utility.yul\":11944:12061   */\n      iszero\n      tag_599\n      jumpi\n        /* \"#utility.yul\":11980:12059   */\n      tag_600\n      tag_392\n      jump\t// in\n    tag_600:\n        /* \"#utility.yul\":11944:12061   */\n    tag_599:\n        /* \"#utility.yul\":12085:12148   */\n      tag_601\n        /* \"#utility.yul\":12140:12147   */\n      dup8\n        /* \"#utility.yul\":12131:12137   */\n      dup3\n        /* \"#utility.yul\":12120:12129   */\n      dup9\n        /* \"#utility.yul\":12116:12138   */\n      add\n        /* \"#utility.yul\":12085:12148   */\n      tag_424\n      jump\t// in\n    tag_601:\n        /* \"#utility.yul\":12075:12148   */\n      swap2\n      pop\n        /* \"#utility.yul\":11870:12158   */\n      pop\n        /* \"#utility.yul\":11220:12165   */\n      swap3\n      swap6\n      swap2\n      swap5\n      pop\n      swap3\n      pop\n      jump\t// out\n        /* \"#utility.yul\":12171:12825   */\n    tag_84:\n        /* \"#utility.yul\":12249:12255   */\n      0x00\n        /* \"#utility.yul\":12257:12263   */\n      dup1\n        /* \"#utility.yul\":12306:12308   */\n      0x40\n        /* \"#utility.yul\":12294:12303   */\n      dup4\n        /* \"#utility.yul\":12285:12292   */\n      dup6\n        /* \"#utility.yul\":12281:12304   */\n      sub\n        /* \"#utility.yul\":12277:12309   */\n      slt\n        /* \"#utility.yul\":12274:12393   */\n      iszero\n      tag_603\n      jumpi\n        /* \"#utility.yul\":12312:12391   */\n      tag_604\n      tag_391\n      jump\t// in\n    tag_604:\n        /* \"#utility.yul\":12274:12393   */\n    tag_603:\n        /* \"#utility.yul\":12460:12461   */\n      0x00\n        /* \"#utility.yul\":12449:12458   */\n      dup4\n        /* \"#utility.yul\":12445:12462   */\n      add\n        /* \"#utility.yul\":12432:12463   */\n      calldataload\n        /* \"#utility.yul\":12490:12508   */\n      0xffffffffffffffff\n        /* \"#utility.yul\":12482:12488   */\n      dup2\n        /* \"#utility.yul\":12479:12509   */\n      gt\n        /* \"#utility.yul\":12476:12593   */\n      iszero\n      tag_605\n      jumpi\n        /* \"#utility.yul\":12512:12591   */\n      tag_606\n      tag_392\n      jump\t// in\n    tag_606:\n        /* \"#utility.yul\":12476:12593   */\n    tag_605:\n        /* \"#utility.yul\":12617:12680   */\n      tag_607\n        /* \"#utility.yul\":12672:12679   */\n      dup6\n        /* \"#utility.yul\":12663:12669   */\n      dup3\n        /* \"#utility.yul\":12652:12661   */\n      dup7\n        /* \"#utility.yul\":12648:12670   */\n      add\n        /* \"#utility.yul\":12617:12680   */\n      tag_424\n      jump\t// in\n    tag_607:\n        /* \"#utility.yul\":12607:12680   */\n      swap3\n      pop\n        /* \"#utility.yul\":12403:12690   */\n      pop\n        /* \"#utility.yul\":12729:12731   */\n      0x20\n        /* \"#utility.yul\":12755:12808   */\n      tag_608\n        /* \"#utility.yul\":12800:12807   */\n      dup6\n        /* \"#utility.yul\":12791:12797   */\n      dup3\n        /* \"#utility.yul\":12780:12789   */\n      dup7\n        /* \"#utility.yul\":12776:12798   */\n      add\n        /* \"#utility.yul\":12755:12808   */\n      tag_396\n      jump\t// in\n    tag_608:\n        /* \"#utility.yul\":12745:12808   */\n      swap2\n      pop\n        /* \"#utility.yul\":12700:12818   */\n      pop\n        /* \"#utility.yul\":12171:12825   */\n      swap3\n      pop\n      swap3\n      swap1\n      pop\n      jump\t// out\n        /* \"#utility.yul\":12831:13160   */\n    tag_89:\n        /* \"#utility.yul\":12890:12896   */\n      0x00\n        /* \"#utility.yul\":12939:12941   */\n      0x20\n        /* \"#utility.yul\":12927:12936   */\n      dup3\n        /* \"#utility.yul\":12918:12925   */\n      dup5\n        /* \"#utility.yul\":12914:12937   */\n      sub\n        /* \"#utility.yul\":12910:12942   */\n      slt\n        /* \"#utility.yul\":12907:13026   */\n      iszero\n      tag_610\n      jumpi\n        /* \"#utility.yul\":12945:13024   */\n      tag_611\n      tag_391\n      jump\t// in\n    tag_611:\n        /* \"#utility.yul\":12907:13026   */\n    tag_610:\n        /* \"#utility.yul\":13065:13066   */\n      0x00\n        /* \"#utility.yul\":13090:13143   */\n      tag_612\n        /* \"#utility.yul\":13135:13142   */\n      dup5\n        /* \"#utility.yul\":13126:13132   */\n      dup3\n        /* \"#utility.yul\":13115:13124   */\n      dup6\n        /* \"#utility.yul\":13111:13133   */\n      add\n        /* \"#utility.yul\":13090:13143   */\n      tag_396\n      jump\t// in\n    tag_612:\n        /* \"#utility.yul\":13080:13143   */\n      swap2\n      pop\n        /* \"#utility.yul\":13036:13153   */\n      pop\n        /* \"#utility.yul\":12831:13160   */\n      swap3\n      swap2\n      pop\n      pop\n      jump\t// out\n        /* \"#utility.yul\":13166:13506   */\n    tag_92:\n        /* \"#utility.yul\":13291:13295   */\n      0x00\n        /* \"#utility.yul\":13329:13331   */\n      0x40\n        /* \"#utility.yul\":13318:13327   */\n      dup3\n        /* \"#utility.yul\":13314:13332   */\n      add\n        /* \"#utility.yul\":13306:13332   */\n      swap1\n      pop\n        /* \"#utility.yul\":13342:13417   */\n      tag_614\n        /* \"#utility.yul\":13414:13415   */\n      0x00\n        /* \"#utility.yul\":13403:13412   */\n      dup4\n        /* \"#utility.yul\":13399:13416   */\n      add\n        /* \"#utility.yul\":13390:13396   */\n      dup6\n        /* \"#utility.yul\":13342:13417   */\n      tag_414\n      jump\t// in\n    tag_614:\n        /* \"#utility.yul\":13427:13499   */\n      tag_615\n        /* \"#utility.yul\":13495:13497   */\n      0x20\n        /* \"#utility.yul\":13484:13493   */\n      dup4\n        /* \"#utility.yul\":13480:13498   */\n      add\n        /* \"#utility.yul\":13471:13477   */\n      dup5\n        /* \"#utility.yul\":13427:13499   */\n      tag_404\n      jump\t// in\n    tag_615:\n        /* \"#utility.yul\":13166:13506   */\n      swap4\n      swap3\n      pop\n      pop\n      pop\n      jump\t// out\n        /* \"#utility.yul\":13512:14021   */\n    tag_99:\n        /* \"#utility.yul\":13581:13587   */\n      0x00\n        /* \"#utility.yul\":13630:13632   */\n      0x20\n        /* \"#utility.yul\":13618:13627   */\n      dup3\n        /* \"#utility.yul\":13609:13616   */\n      dup5\n        /* \"#utility.yul\":13605:13628   */\n      sub\n        /* \"#utility.yul\":13601:13633   */\n      slt\n        /* \"#utility.yul\":13598:13717   */\n      iszero\n      tag_617\n      jumpi\n        /* \"#utility.yul\":13636:13715   */\n      tag_618\n      tag_391\n      jump\t// in\n    tag_618:\n        /* \"#utility.yul\":13598:13717   */\n    tag_617:\n        /* \"#utility.yul\":13784:13785   */\n      0x00\n        /* \"#utility.yul\":13773:13782   */\n      dup3\n        /* \"#utility.yul\":13769:13786   */\n      add\n        /* \"#utility.yul\":13756:13787   */\n      calldataload\n        /* \"#utility.yul\":13814:13832   */\n      0xffffffffffffffff\n        /* \"#utility.yul\":13806:13812   */\n      dup2\n        /* \"#utility.yul\":13803:13833   */\n      gt\n        /* \"#utility.yul\":13800:13917   */\n      iszero\n      tag_619\n      jumpi\n        /* \"#utility.yul\":13836:13915   */\n      tag_620\n      tag_392\n      jump\t// in\n    tag_620:\n        /* \"#utility.yul\":13800:13917   */\n    tag_619:\n        /* \"#utility.yul\":13941:14004   */\n      tag_621\n        /* \"#utility.yul\":13996:14003   */\n      dup5\n        /* \"#utility.yul\":13987:13993   */\n      dup3\n        /* \"#utility.yul\":13976:13985   */\n      dup6\n        /* \"#utility.yul\":13972:13994   */\n      add\n        /* \"#utility.yul\":13941:14004   */\n      tag_424\n      jump\t// in\n    tag_621:\n        /* \"#utility.yul\":13931:14004   */\n      swap2\n      pop\n        /* \"#utility.yul\":13727:14014   */\n      pop\n        /* \"#utility.yul\":13512:14021   */\n      swap3\n      swap2\n      pop\n      pop\n      jump\t// out\n        /* \"#utility.yul\":14027:14792   */\n    tag_108:\n        /* \"#utility.yul\":14113:14119   */\n      0x00\n        /* \"#utility.yul\":14121:14127   */\n      dup1\n        /* \"#utility.yul\":14129:14135   */\n      0x00\n        /* \"#utility.yul\":14137:14143   */\n      dup1\n        /* \"#utility.yul\":14186:14189   */\n      0x80\n        /* \"#utility.yul\":14174:14183   */\n      dup6\n        /* \"#utility.yul\":14165:14172   */\n      dup8\n        /* \"#utility.yul\":14161:14184   */\n      sub\n        /* \"#utility.yul\":14157:14190   */\n      slt\n        /* \"#utility.yul\":14154:14274   */\n      iszero\n      tag_623\n      jumpi\n        /* \"#utility.yul\":14193:14272   */\n      tag_624\n      tag_391\n      jump\t// in\n    tag_624:\n        /* \"#utility.yul\":14154:14274   */\n    tag_623:\n        /* \"#utility.yul\":14313:14314   */\n      0x00\n        /* \"#utility.yul\":14338:14391   */\n      tag_625\n        /* \"#utility.yul\":14383:14390   */\n      dup8\n        /* \"#utility.yul\":14374:14380   */\n      dup3\n        /* \"#utility.yul\":14363:14372   */\n      dup9\n        /* \"#utility.yul\":14359:14381   */\n      add\n        /* \"#utility.yul\":14338:14391   */\n      tag_396\n      jump\t// in\n    tag_625:\n        /* \"#utility.yul\":14328:14391   */\n      swap5\n      pop\n        /* \"#utility.yul\":14284:14401   */\n      pop\n        /* \"#utility.yul\":14440:14442   */\n      0x20\n        /* \"#utility.yul\":14466:14519   */\n      tag_626\n        /* \"#utility.yul\":14511:14518   */\n      dup8\n        /* \"#utility.yul\":14502:14508   */\n      dup3\n        /* \"#utility.yul\":14491:14500   */\n      dup9\n        /* \"#utility.yul\":14487:14509   */\n      add\n        /* \"#utility.yul\":14466:14519   */\n      tag_399\n      jump\t// in\n    tag_626:\n        /* \"#utility.yul\":14456:14519   */\n      swap4\n      pop\n        /* \"#utility.yul\":14411:14529   */\n      pop\n        /* \"#utility.yul\":14568:14570   */\n      0x40\n        /* \"#utility.yul\":14594:14647   */\n      tag_627\n        /* \"#utility.yul\":14639:14646   */\n      dup8\n        /* \"#utility.yul\":14630:14636   */\n      dup3\n        /* \"#utility.yul\":14619:14628   */\n      dup9\n        /* \"#utility.yul\":14615:14637   */\n      add\n        /* \"#utility.yul\":14594:14647   */\n      tag_399\n      jump\t// in\n    tag_627:\n        /* \"#utility.yul\":14584:14647   */\n      swap3\n      pop\n        /* \"#utility.yul\":14539:14657   */\n      pop\n        /* \"#utility.yul\":14696:14698   */\n      0x60\n        /* \"#utility.yul\":14722:14775   */\n      tag_628\n        /* \"#utility.yul\":14767:14774   */\n      dup8\n        /* \"#utility.yul\":14758:14764   */\n      dup3\n        /* \"#utility.yul\":14747:14756   */\n      dup9\n        /* \"#utility.yul\":14743:14765   */\n      add\n        /* \"#utility.yul\":14722:14775   */\n      tag_396\n      jump\t// in\n    tag_628:\n        /* \"#utility.yul\":14712:14775   */\n      swap2\n      pop\n        /* \"#utility.yul\":14667:14785   */\n      pop\n        /* \"#utility.yul\":14027:14792   */\n      swap3\n      swap6\n      swap2\n      swap5\n      pop\n      swap3\n      pop\n      jump\t// out\n        /* \"#utility.yul\":14798:14912   */\n    tag_425:\n      pop\n      jump\t// out\n        /* \"#utility.yul\":14918:15282   */\n    tag_426:\n        /* \"#utility.yul\":15060:15063   */\n      0x00\n        /* \"#utility.yul\":15081:15147   */\n      tag_631\n        /* \"#utility.yul\":15145:15146   */\n      0x00\n        /* \"#utility.yul\":15140:15143   */\n      dup4\n        /* \"#utility.yul\":15081:15147   */\n      tag_406\n      jump\t// in\n    tag_631:\n        /* \"#utility.yul\":15074:15147   */\n      swap2\n      pop\n        /* \"#utility.yul\":15156:15249   */\n      tag_632\n        /* \"#utility.yul\":15245:15248   */\n      dup3\n        /* \"#utility.yul\":15156:15249   */\n      tag_425\n      jump\t// in\n    tag_632:\n        /* \"#utility.yul\":15274:15275   */\n      0x00\n        /* \"#utility.yul\":15269:15272   */\n      dup3\n        /* \"#utility.yul\":15265:15276   */\n      add\n        /* \"#utility.yul\":15258:15276   */\n      swap1\n      pop\n        /* \"#utility.yul\":14918:15282   */\n      swap2\n      swap1\n      pop\n      jump\t// out\n        /* \"#utility.yul\":15288:15707   */\n    tag_118:\n        /* \"#utility.yul\":15454:15458   */\n      0x00\n        /* \"#utility.yul\":15492:15494   */\n      0x20\n        /* \"#utility.yul\":15481:15490   */\n      dup3\n        /* \"#utility.yul\":15477:15495   */\n      add\n        /* \"#utility.yul\":15469:15495   */\n      swap1\n      pop\n        /* \"#utility.yul\":15541:15550   */\n      dup2\n        /* \"#utility.yul\":15535:15539   */\n      dup2\n        /* \"#utility.yul\":15531:15551   */\n      sub\n        /* \"#utility.yul\":15527:15528   */\n      0x00\n        /* \"#utility.yul\":15516:15525   */\n      dup4\n        /* \"#utility.yul\":15512:15529   */\n      add\n        /* \"#utility.yul\":15505:15552   */\n      mstore\n        /* \"#utility.yul\":15569:15700   */\n      tag_634\n        /* \"#utility.yul\":15695:15699   */\n      dup2\n        /* \"#utility.yul\":15569:15700   */\n      tag_426\n      jump\t// in\n    tag_634:\n        /* \"#utility.yul\":15561:15700   */\n      swap1\n      pop\n        /* \"#utility.yul\":15288:15707   */\n      swap2\n      swap1\n      pop\n      jump\t// out\n        /* \"#utility.yul\":15713:16129   */\n    tag_427:\n        /* \"#utility.yul\":15853:15919   */\n      0xd09cd0b0d0b3d0b0d0b7d0b8d0bd20d0bdd0b520d181d0bed0bed182d0b2d0b5\n        /* \"#utility.yul\":15849:15850   */\n      0x00\n        /* \"#utility.yul\":15841:15847   */\n      dup3\n        /* \"#utility.yul\":15837:15851   */\n      add\n        /* \"#utility.yul\":15830:15920   */\n      mstore\n        /* \"#utility.yul\":15954:16020   */\n      0xd182d181d0b2d183d0b5d18220d0bed182d0bfd180d0b0d0b2d0b8d182d0b5d0\n        /* \"#utility.yul\":15949:15951   */\n      0x20\n        /* \"#utility.yul\":15941:15947   */\n      dup3\n        /* \"#utility.yul\":15937:15952   */\n      add\n        /* \"#utility.yul\":15930:16021   */\n      mstore\n        /* \"#utility.yul\":16055:16121   */\n      0xbbd18e0000000000000000000000000000000000000000000000000000000000\n        /* \"#utility.yul\":16050:16052   */\n      0x40\n        /* \"#utility.yul\":16042:16048   */\n      dup3\n        /* \"#utility.yul\":16038:16053   */\n      add\n        /* \"#utility.yul\":16031:16122   */\n      mstore\n        /* \"#utility.yul\":15713:16129   */\n      pop\n      jump\t// out\n        /* \"#utility.yul\":16135:16501   */\n    tag_428:\n        /* \"#utility.yul\":16277:16280   */\n      0x00\n        /* \"#utility.yul\":16298:16365   */\n      tag_637\n        /* \"#utility.yul\":16362:16364   */\n      0x43\n        /* \"#utility.yul\":16357:16360   */\n      dup4\n        /* \"#utility.yul\":16298:16365   */\n      tag_406\n      jump\t// in\n    tag_637:\n        /* \"#utility.yul\":16291:16365   */\n      swap2\n      pop\n        /* \"#utility.yul\":16374:16467   */\n      tag_638\n        /* \"#utility.yul\":16463:16466   */\n      dup3\n        /* \"#utility.yul\":16374:16467   */\n      tag_427\n      jump\t// in\n    tag_638:\n        /* \"#utility.yul\":16492:16494   */\n      0x60\n        /* \"#utility.yul\":16487:16490   */\n      dup3\n        /* \"#utility.yul\":16483:16495   */\n      add\n        /* \"#utility.yul\":16476:16495   */\n      swap1\n      pop\n        /* \"#utility.yul\":16135:16501   */\n      swap2\n      swap1\n      pop\n      jump\t// out\n        /* \"#utility.yul\":16507:16926   */\n    tag_121:\n        /* \"#utility.yul\":16673:16677   */\n      0x00\n        /* \"#utility.yul\":16711:16713   */\n      0x20\n        /* \"#utility.yul\":16700:16709   */\n      dup3\n        /* \"#utility.yul\":16696:16714   */\n      add\n        /* \"#utility.yul\":16688:16714   */\n      swap1\n      pop\n        /* \"#utility.yul\":16760:16769   */\n      dup2\n        /* \"#utility.yul\":16754:16758   */\n      dup2\n        /* \"#utility.yul\":16750:16770   */\n      sub\n        /* \"#utility.yul\":16746:16747   */\n      0x00\n        /* \"#utility.yul\":16735:16744   */\n      dup4\n        /* \"#utility.yul\":16731:16748   */\n      add\n        /* \"#utility.yul\":16724:16771   */\n      mstore\n        /* \"#utility.yul\":16788:16919   */\n      tag_640\n        /* \"#utility.yul\":16914:16918   */\n      dup2\n        /* \"#utility.yul\":16788:16919   */\n      tag_428\n      jump\t// in\n    tag_640:\n        /* \"#utility.yul\":16780:16919   */\n      swap1\n      pop\n        /* \"#utility.yul\":16507:16926   */\n      swap2\n      swap1\n      pop\n      jump\t// out\n        /* \"#utility.yul\":16932:17112   */\n    tag_429:\n        /* \"#utility.yul\":16980:17057   */\n      0x4e487b7100000000000000000000000000000000000000000000000000000000\n        /* \"#utility.yul\":16977:16978   */\n      0x00\n        /* \"#utility.yul\":16970:17058   */\n      mstore\n        /* \"#utility.yul\":17077:17081   */\n      0x22\n        /* \"#utility.yul\":17074:17075   */\n      0x04\n        /* \"#utility.yul\":17067:17082   */\n      mstore\n        /* \"#utility.yul\":17101:17105   */\n      0x24\n        /* \"#utility.yul\":17098:17099   */\n      0x00\n        /* \"#utility.yul\":17091:17106   */\n      revert\n        /* \"#utility.yul\":17118:17438   */\n    tag_129:\n        /* \"#utility.yul\":17162:17168   */\n      0x00\n        /* \"#utility.yul\":17199:17200   */\n      0x02\n        /* \"#utility.yul\":17193:17197   */\n      dup3\n        /* \"#utility.yul\":17189:17201   */\n      div\n        /* \"#utility.yul\":17179:17201   */\n      swap1\n      pop\n        /* \"#utility.yul\":17246:17247   */\n      0x01\n        /* \"#utility.yul\":17240:17244   */\n      dup3\n        /* \"#utility.yul\":17236:17248   */\n      and\n        /* \"#utility.yul\":17267:17285   */\n      dup1\n        /* \"#utility.yul\":17257:17338   */\n      tag_643\n      jumpi\n        /* \"#utility.yul\":17323:17327   */\n      0x7f\n        /* \"#utility.yul\":17315:17321   */\n      dup3\n        /* \"#utility.yul\":17311:17328   */\n      and\n        /* \"#utility.yul\":17301:17328   */\n      swap2\n      pop\n        /* \"#utility.yul\":17257:17338   */\n    tag_643:\n        /* \"#utility.yul\":17385:17387   */\n      0x20\n        /* \"#utility.yul\":17377:17383   */\n      dup3\n        /* \"#utility.yul\":17374:17388   */\n      lt\n        /* \"#utility.yul\":17354:17372   */\n      dup2\n        /* \"#utility.yul\":17351:17389   */\n      sub\n        /* \"#utility.yul\":17348:17432   */\n      tag_644\n      jumpi\n        /* \"#utility.yul\":17404:17422   */\n      tag_645\n      tag_429\n      jump\t// in\n    tag_645:\n        /* \"#utility.yul\":17348:17432   */\n    tag_644:\n        /* \"#utility.yul\":17169:17438   */\n      pop\n        /* \"#utility.yul\":17118:17438   */\n      swap2\n      swap1\n      pop\n      jump\t// out\n        /* \"#utility.yul\":17444:17585   */\n    tag_430:\n        /* \"#utility.yul\":17493:17497   */\n      0x00\n        /* \"#utility.yul\":17516:17519   */\n      dup2\n        /* \"#utility.yul\":17508:17519   */\n      swap1\n      pop\n        /* \"#utility.yul\":17539:17542   */\n      dup2\n        /* \"#utility.yul\":17536:17537   */\n      0x00\n        /* \"#utility.yul\":17529:17543   */\n      mstore\n        /* \"#utility.yul\":17573:17577   */\n      0x20\n        /* \"#utility.yul\":17570:17571   */\n      0x00\n        /* \"#utility.yul\":17560:17578   */\n      keccak256\n        /* \"#utility.yul\":17552:17578   */\n      swap1\n      pop\n        /* \"#utility.yul\":17444:17585   */\n      swap2\n      swap1\n      pop\n      jump\t// out\n        /* \"#utility.yul\":17591:17684   */\n    tag_431:\n        /* \"#utility.yul\":17628:17634   */\n      0x00\n        /* \"#utility.yul\":17675:17677   */\n      0x20\n        /* \"#utility.yul\":17670:17672   */\n      0x1f\n        /* \"#utility.yul\":17663:17668   */\n      dup4\n        /* \"#utility.yul\":17659:17673   */\n      add\n        /* \"#utility.yul\":17655:17678   */\n      div\n        /* \"#utility.yul\":17645:17678   */\n      swap1\n      pop\n        /* \"#utility.yul\":17591:17684   */\n      swap2\n      swap1\n      pop\n      jump\t// out\n        /* \"#utility.yul\":17690:17797   */\n    tag_432:\n        /* \"#utility.yul\":17734:17742   */\n      0x00\n        /* \"#utility.yul\":17784:17789   */\n      dup3\n        /* \"#utility.yul\":17778:17782   */\n      dup3\n        /* \"#utility.yul\":17774:17790   */\n      shl\n        /* \"#utility.yul\":17753:17790   */\n      swap1\n      pop\n        /* \"#utility.yul\":17690:17797   */\n      swap3\n      swap2\n      pop\n      pop\n      jump\t// out\n        /* \"#utility.yul\":17803:18196   */\n    tag_433:\n        /* \"#utility.yul\":17872:17878   */\n      0x00\n        /* \"#utility.yul\":17922:17923   */\n      0x08\n        /* \"#utility.yul\":17910:17920   */\n      dup4\n        /* \"#utility.yul\":17906:17924   */\n      mul\n        /* \"#utility.yul\":17945:18042   */\n      tag_650\n        /* \"#utility.yul\":17975:18041   */\n      0xffffffffffffffffffffffffffffffffffffffffffffffffffffffffffffffff\n        /* \"#utility.yul\":17964:17973   */\n      dup3\n        /* \"#utility.yul\":17945:18042   */\n      tag_432\n      jump\t// in\n    tag_650:\n        /* \"#utility.yul\":18063:18102   */\n      tag_651\n        /* \"#utility.yul\":18093:18101   */\n      dup7\n        /* \"#utility.yul\":18082:18091   */\n      dup4\n        /* \"#utility.yul\":18063:18102   */\n      tag_432\n      jump\t// in\n    tag_651:\n        /* \"#utility.yul\":18051:18102   */\n      swap6\n      pop\n        /* \"#utility.yul\":18135:18139   */\n      dup1\n        /* \"#utility.yul\":18131:18140   */\n      not\n        /* \"#utility.yul\":18124:18129   */\n      dup5\n        /* \"#utility.yul\":18120:18141   */\n      and\n        /* \"#utility.yul\":18111:18141   */\n      swap4\n      pop\n        /* \"#utility.yul\":18184:18188   */\n      dup1\n        /* \"#utility.yul\":18174:18182   */\n      dup7\n        /* \"#utility.yul\":18170:18189   */\n      and\n        /* \"#utility.yul\":18163:18168   */\n      dup5\n        /* \"#utility.yul\":18160:18190   */\n      or\n        /* \"#utility.yul\":18150:18190   */\n      swap3\n      pop\n        /* \"#utility.yul\":17879:18196   */\n      pop\n      pop\n        /* \"#utility.yul\":17803:18196   */\n      swap4\n      swap3\n      pop\n      pop\n      pop\n      jump\t// out\n        /* \"#utility.yul\":18202:18262   */\n    tag_434:\n        /* \"#utility.yul\":18230:18233   */\n      0x00\n        /* \"#utility.yul\":18251:18256   */\n      dup2\n        /* \"#utility.yul\":18244:18256   */\n      swap1\n      pop\n        /* \"#utility.yul\":18202:18262   */\n      swap2\n      swap1\n      pop\n      jump\t// out\n        /* \"#utility.yul\":18268:18410   */\n    tag_435:\n        /* \"#utility.yul\":18318:18327   */\n      0x00\n        /* \"#utility.yul\":18351:18404   */\n      tag_654\n        /* \"#utility.yul\":18369:18403   */\n      tag_655\n        /* \"#utility.yul\":18378:18402   */\n      tag_656\n        /* \"#utility.yul\":18396:18401   */\n      dup5\n        /* \"#utility.yul\":18378:18402   */\n      tag_397\n      jump\t// in\n    tag_656:\n        /* \"#utility.yul\":18369:18403   */\n      tag_434\n      jump\t// in\n    tag_655:\n        /* \"#utility.yul\":18351:18404   */\n      tag_397\n      jump\t// in\n    tag_654:\n        /* \"#utility.yul\":18338:18404   */\n      swap1\n      pop\n        /* \"#utility.yul\":18268:18410   */\n      swap2\n      swap1\n      pop\n      jump\t// out\n        /* \"#utility.yul\":18416:18491   */\n    tag_436:\n        /* \"#utility.yul\":18459:18462   */\n      0x00\n        /* \"#utility.yul\":18480:18485   */\n      dup2\n        /* \"#utility.yul\":18473:18485   */\n      swap1\n      pop\n        /* \"#utility.yul\":18416:18491   */\n      swap2\n      swap1\n      pop\n      jump\t// out\n        /* \"#utility.yul\":18497:18766   */\n    tag_437:\n        /* \"#utility.yul\":18607:18646   */\n      tag_659\n        /* \"#utility.yul\":18638:18645   */\n      dup4\n        /* \"#utility.yul\":18607:18646   */\n      tag_435\n      jump\t// in\n    tag_659:\n        /* \"#utility.yul\":18668:18759   */\n      tag_660\n        /* \"#utility.yul\":18717:18758   */\n      tag_661\n        /* \"#utility.yul\":18741:18757   */\n      dup3\n        /* \"#utility.yul\":18717:18758   */\n      tag_436\n      jump\t// in\n    tag_661:\n        /* \"#utility.yul\":18709:18715   */\n      dup5\n        /* \"#utility.yul\":18702:18706   */\n      dup5\n        /* \"#utility.yul\":18696:18707   */\n      sload\n        /* \"#utility.yul\":18668:18759   */\n      tag_433\n      jump\t// in\n    tag_660:\n        /* \"#utility.yul\":18662:18666   */\n      dup3\n        /* \"#utility.yul\":18655:18760   */\n      sstore\n        /* \"#utility.yul\":18573:18766   */\n      pop\n        /* \"#utility.yul\":18497:18766   */\n      pop\n      pop\n      pop\n      jump\t// out\n        /* \"#utility.yul\":18772:18845   */\n    tag_438:\n        /* \"#utility.yul\":18817:18820   */\n      0x00\n        /* \"#utility.yul\":18772:18845   */\n      swap1\n      jump\t// out\n        /* \"#utility.yul\":18851:19040   */\n    tag_439:\n        /* \"#utility.yul\":18928:18960   */\n      tag_664\n      tag_438\n      jump\t// in\n    tag_664:\n        /* \"#utility.yul\":18969:19034   */\n      tag_665\n        /* \"#utility.yul\":19027:19033   */\n      dup2\n        /* \"#utility.yul\":19019:19025   */\n      dup5\n        /* \"#utility.yul\":19013:19017   */\n      dup5\n        /* \"#utility.yul\":18969:19034   */\n      tag_437\n      jump\t// in\n    tag_665:\n        /* \"#utility.yul\":18904:19040   */\n      pop\n        /* \"#utility.yul\":18851:19040   */\n      pop\n      pop\n      jump\t// out\n        /* \"#utility.yul\":19046:19232   */\n    tag_440:\n        /* \"#utility.yul\":19106:19226   */\n    tag_667:\n        /* \"#utility.yul\":19123:19126   */\n      dup2\n        /* \"#utility.yul\":19116:19121   */\n      dup2\n        /* \"#utility.yul\":19113:19127   */\n      lt\n        /* \"#utility.yul\":19106:19226   */\n      iszero\n      tag_669\n      jumpi\n        /* \"#utility.yul\":19177:19216   */\n      tag_670\n        /* \"#utility.yul\":19214:19215   */\n      0x00\n        /* \"#utility.yul\":19207:19212   */\n      dup3\n        /* \"#utility.yul\":19177:19216   */\n      tag_439\n      jump\t// in\n    tag_670:\n        /* \"#utility.yul\":19150:19151   */\n      0x01\n        /* \"#utility.yul\":19143:19148   */\n      dup2\n        /* \"#utility.yul\":19139:19152   */\n      add\n        /* \"#utility.yul\":19130:19152   */\n      swap1\n      pop\n        /* \"#utility.yul\":19106:19226   */\n      jump(tag_667)\n    tag_669:\n        /* \"#utility.yul\":19046:19232   */\n      pop\n      pop\n      jump\t// out\n        /* \"#utility.yul\":19238:19781   */\n    tag_441:\n        /* \"#utility.yul\":19339:19341   */\n      0x1f\n        /* \"#utility.yul\":19334:19337   */\n      dup3\n        /* \"#utility.yul\":19331:19342   */\n      gt\n        /* \"#utility.yul\":19328:19774   */\n      iszero\n      tag_672\n      jumpi\n        /* \"#utility.yul\":19373:19411   */\n      tag_673\n        /* \"#utility.yul\":19405:19410   */\n      dup2\n        /* \"#utility.yul\":19373:19411   */\n      tag_430\n      jump\t// in\n    tag_673:\n        /* \"#utility.yul\":19457:19486   */\n      tag_674\n        /* \"#utility.yul\":19475:19485   */\n      dup5\n        /* \"#utility.yul\":19457:19486   */\n      tag_431\n      jump\t// in\n    tag_674:\n        /* \"#utility.yul\":19447:19455   */\n      dup2\n        /* \"#utility.yul\":19443:19487   */\n      add\n        /* \"#utility.yul\":19640:19642   */\n      0x20\n        /* \"#utility.yul\":19628:19638   */\n      dup6\n        /* \"#utility.yul\":19625:19643   */\n      lt\n        /* \"#utility.yul\":19622:19671   */\n      iszero\n      tag_675\n      jumpi\n        /* \"#utility.yul\":19661:19669   */\n      dup2\n        /* \"#utility.yul\":19646:19669   */\n      swap1\n      pop\n        /* \"#utility.yul\":19622:19671   */\n    tag_675:\n        /* \"#utility.yul\":19684:19764   */\n      tag_676\n        /* \"#utility.yul\":19740:19762   */\n      tag_677\n        /* \"#utility.yul\":19758:19761   */\n      dup6\n        /* \"#utility.yul\":19740:19762   */\n      tag_431\n      jump\t// in\n    tag_677:\n        /* \"#utility.yul\":19730:19738   */\n      dup4\n        /* \"#utility.yul\":19726:19763   */\n      add\n        /* \"#utility.yul\":19713:19724   */\n      dup3\n        /* \"#utility.yul\":19684:19764   */\n      tag_440\n      jump\t// in\n    tag_676:\n        /* \"#utility.yul\":19343:19774   */\n      pop\n      pop\n        /* \"#utility.yul\":19328:19774   */\n    tag_672:\n        /* \"#utility.yul\":19238:19781   */\n      pop\n      pop\n      pop\n      jump\t// out\n        /* \"#utility.yul\":19787:19904   */\n    tag_442:\n        /* \"#utility.yul\":19841:19849   */\n      0x00\n        /* \"#utility.yul\":19891:19896   */\n      dup3\n        /* \"#utility.yul\":19885:19889   */\n      dup3\n        /* \"#utility.yul\":19881:19897   */\n      shr\n        /* \"#utility.yul\":19860:19897   */\n      swap1\n      pop\n        /* \"#utility.yul\":19787:19904   */\n      swap3\n      swap2\n      pop\n      pop\n      jump\t// out\n        /* \"#utility.yul\":19910:20079   */\n    tag_443:\n        /* \"#utility.yul\":19954:19960   */\n      0x00\n        /* \"#utility.yul\":19987:20038   */\n      tag_680\n        /* \"#utility.yul\":20035:20036   */\n      0x00\n        /* \"#utility.yul\":20031:20037   */\n      not\n        /* \"#utility.yul\":20023:20028   */\n      dup5\n        /* \"#utility.yul\":20020:20021   */\n      0x08\n        /* \"#utility.yul\":20016:20029   */\n      mul\n        /* \"#utility.yul\":19987:20038   */\n      tag_442\n      jump\t// in\n    tag_680:\n        /* \"#utility.yul\":19983:20039   */\n      not\n        /* \"#utility.yul\":20068:20072   */\n      dup1\n        /* \"#utility.yul\":20062:20066   */\n      dup4\n        /* \"#utility.yul\":20058:20073   */\n      and\n        /* \"#utility.yul\":20048:20073   */\n      swap2\n      pop\n        /* \"#utility.yul\":19961:20079   */\n      pop\n        /* \"#utility.yul\":19910:20079   */\n      swap3\n      swap2\n      pop\n      pop\n      jump\t// out\n        /* \"#utility.yul\":20084:20379   */\n    tag_444:\n        /* \"#utility.yul\":20160:20164   */\n      0x00\n        /* \"#utility.yul\":20306:20335   */\n      tag_682\n        /* \"#utility.yul\":20331:20334   */\n      dup4\n        /* \"#utility.yul\":20325:20329   */\n      dup4\n        /* \"#utility.yul\":20306:20335   */\n      tag_443\n      jump\t// in\n    tag_682:\n        /* \"#utility.yul\":20298:20335   */\n      swap2\n      pop\n        /* \"#utility.yul\":20368:20371   */\n      dup3\n        /* \"#utility.yul\":20365:20366   */\n      0x02\n        /* \"#utility.yul\":20361:20372   */\n      mul\n        /* \"#utility.yul\":20355:20359   */\n      dup3\n        /* \"#utility.yul\":20352:20373   */\n      or\n        /* \"#utility.yul\":20344:20373   */\n      swap1\n      pop\n        /* \"#utility.yul\":20084:20379   */\n      swap3\n      swap2\n      pop\n      pop\n      jump\t// out\n        /* \"#utility.yul\":20384:21779   */\n    tag_125:\n        /* \"#utility.yul\":20501:20538   */\n      tag_684\n        /* \"#utility.yul\":20534:20537   */\n      dup3\n        /* \"#utility.yul\":20501:20538   */\n      tag_405\n      jump\t// in\n    tag_684:\n        /* \"#utility.yul\":20603:20621   */\n      0xffffffffffffffff\n        /* \"#utility.yul\":20595:20601   */\n      dup2\n        /* \"#utility.yul\":20592:20622   */\n      gt\n        /* \"#utility.yul\":20589:20645   */\n      iszero\n      tag_685\n      jumpi\n        /* \"#utility.yul\":20625:20643   */\n      tag_686\n      tag_418\n      jump\t// in\n    tag_686:\n        /* \"#utility.yul\":20589:20645   */\n    tag_685:\n        /* \"#utility.yul\":20669:20707   */\n      tag_687\n        /* \"#utility.yul\":20701:20705   */\n      dup3\n        /* \"#utility.yul\":20695:20706   */\n      sload\n        /* \"#utility.yul\":20669:20707   */\n      tag_129\n      jump\t// in\n    tag_687:\n        /* \"#utility.yul\":20754:20821   */\n      tag_688\n        /* \"#utility.yul\":20814:20820   */\n      dup3\n        /* \"#utility.yul\":20806:20812   */\n      dup3\n        /* \"#utility.yul\":20800:20804   */\n      dup6\n        /* \"#utility.yul\":20754:20821   */\n      tag_441\n      jump\t// in\n    tag_688:\n        /* \"#utility.yul\":20848:20849   */\n      0x00\n        /* \"#utility.yul\":20872:20876   */\n      0x20\n        /* \"#utility.yul\":20859:20876   */\n      swap1\n      pop\n        /* \"#utility.yul\":20904:20906   */\n      0x1f\n        /* \"#utility.yul\":20896:20902   */\n      dup4\n        /* \"#utility.yul\":20893:20907   */\n      gt\n        /* \"#utility.yul\":20921:20922   */\n      0x01\n        /* \"#utility.yul\":20916:21534   */\n      dup2\n      eq\n      tag_690\n      jumpi\n        /* \"#utility.yul\":21578:21579   */\n      0x00\n        /* \"#utility.yul\":21595:21601   */\n      dup5\n        /* \"#utility.yul\":21592:21669   */\n      iszero\n      tag_691\n      jumpi\n        /* \"#utility.yul\":21644:21653   */\n      dup3\n        /* \"#utility.yul\":21639:21642   */\n      dup8\n        /* \"#utility.yul\":21635:21654   */\n      add\n        /* \"#utility.yul\":21629:21655   */\n      mload\n        /* \"#utility.yul\":21620:21655   */\n      swap1\n      pop\n        /* \"#utility.yul\":21592:21669   */\n    tag_691:\n        /* \"#utility.yul\":21695:21762   */\n      tag_692\n        /* \"#utility.yul\":21755:21761   */\n      dup6\n        /* \"#utility.yul\":21748:21753   */\n      dup3\n        /* \"#utility.yul\":21695:21762   */\n      tag_444\n      jump\t// in\n    tag_692:\n        /* \"#utility.yul\":21689:21693   */\n      dup7\n        /* \"#utility.yul\":21682:21763   */\n      sstore\n        /* \"#utility.yul\":21551:21773   */\n      pop\n        /* \"#utility.yul\":20886:21773   */\n      jump(tag_689)\n        /* \"#utility.yul\":20916:21534   */\n    tag_690:\n        /* \"#utility.yul\":20968:20972   */\n      0x1f\n        /* \"#utility.yul\":20964:20973   */\n      not\n        /* \"#utility.yul\":20956:20962   */\n      dup5\n        /* \"#utility.yul\":20952:20974   */\n      and\n        /* \"#utility.yul\":21002:21039   */\n      tag_693\n        /* \"#utility.yul\":21034:21038   */\n      dup7\n        /* \"#utility.yul\":21002:21039   */\n      tag_430\n      jump\t// in\n    tag_693:\n        /* \"#utility.yul\":21061:21062   */\n      0x00\n        /* \"#utility.yul\":21075:21283   */\n    tag_694:\n        /* \"#utility.yul\":21089:21096   */\n      dup3\n        /* \"#utility.yul\":21086:21087   */\n      dup2\n        /* \"#utility.yul\":21083:21097   */\n      lt\n        /* \"#utility.yul\":21075:21283   */\n      iszero\n      tag_696\n      jumpi\n        /* \"#utility.yul\":21168:21177   */\n      dup5\n        /* \"#utility.yul\":21163:21166   */\n      dup10\n        /* \"#utility.yul\":21159:21178   */\n      add\n        /* \"#utility.yul\":21153:21179   */\n      mload\n        /* \"#utility.yul\":21145:21151   */\n      dup3\n        /* \"#utility.yul\":21138:21180   */\n      sstore\n        /* \"#utility.yul\":21219:21220   */\n      0x01\n        /* \"#utility.yul\":21211:21217   */\n      dup3\n        /* \"#utility.yul\":21207:21221   */\n      add\n        /* \"#utility.yul\":21197:21221   */\n      swap2\n      pop\n        /* \"#utility.yul\":21266:21268   */\n      0x20\n        /* \"#utility.yul\":21255:21264   */\n      dup6\n        /* \"#utility.yul\":21251:21269   */\n      add\n        /* \"#utility.yul\":21238:21269   */\n      swap5\n      pop\n        /* \"#utility.yul\":21112:21116   */\n      0x20\n        /* \"#utility.yul\":21109:21110   */\n      dup2\n        /* \"#utility.yul\":21105:21117   */\n      add\n        /* \"#utility.yul\":21100:21117   */\n      swap1\n      pop\n        /* \"#utility.yul\":21075:21283   */\n      jump(tag_694)\n    tag_696:\n        /* \"#utility.yul\":21311:21317   */\n      dup7\n        /* \"#utility.yul\":21302:21309   */\n      dup4\n        /* \"#utility.yul\":21299:21318   */\n      lt\n        /* \"#utility.yul\":21296:21475   */\n      iszero\n      tag_697\n      jumpi\n        /* \"#utility.yul\":21369:21378   */\n      dup5\n        /* \"#utility.yul\":21364:21367   */\n      dup10\n        /* \"#utility.yul\":21360:21379   */\n      add\n        /* \"#utility.yul\":21354:21380   */\n      mload\n        /* \"#utility.yul\":21412:21460   */\n      tag_698\n        /* \"#utility.yul\":21454:21458   */\n      0x1f\n        /* \"#utility.yul\":21446:21452   */\n      dup10\n        /* \"#utility.yul\":21442:21459   */\n      and\n        /* \"#utility.yul\":21431:21440   */\n      dup3\n        /* \"#utility.yul\":21412:21460   */\n      tag_443\n      jump\t// in\n    tag_698:\n        /* \"#utility.yul\":21404:21410   */\n      dup4\n        /* \"#utility.yul\":21397:21461   */\n      sstore\n        /* \"#utility.yul\":21319:21475   */\n      pop\n        /* \"#utility.yul\":21296:21475   */\n    tag_697:\n        /* \"#utility.yul\":21521:21522   */\n      0x01\n        /* \"#utility.yul\":21517:21518   */\n      0x02\n        /* \"#utility.yul\":21509:21515   */\n      dup9\n        /* \"#utility.yul\":21505:21519   */\n      mul\n        /* \"#utility.yul\":21501:21523   */\n      add\n        /* \"#utility.yul\":21495:21499   */\n      dup9\n        /* \"#utility.yul\":21488:21524   */\n      sstore\n        /* \"#utility.yul\":20923:21534   */\n      pop\n      pop\n      pop\n        /* \"#utility.yul\":20886:21773   */\n    tag_689:\n      pop\n        /* \"#utility.yul\":20476:21779   */\n      pop\n      pop\n      pop\n        /* \"#utility.yul\":20384:21779   */\n      pop\n      pop\n      jump\t// out\n        /* \"#utility.yul\":21785:21965   */\n    tag_142:\n        /* \"#utility.yul\":21833:21910   */\n      0x4e487b7100000000000000000000000000000000000000000000000000000000\n        /* \"#utility.yul\":21830:21831   */\n      0x00\n        /* \"#utility.yul\":21823:21911   */\n      mstore\n        /* \"#utility.yul\":21930:21934   */\n      0x32\n        /* \"#utility.yul\":21927:21928   */\n      0x04\n        /* \"#utility.yul\":21920:21935   */\n      mstore\n        /* \"#utility.yul\":21954:21958   */\n      0x24\n        /* \"#utility.yul\":21951:21952   */\n      0x00\n        /* \"#utility.yul\":21944:21959   */\n      revert\n        /* \"#utility.yul\":21971:22151   */\n    tag_445:\n        /* \"#utility.yul\":22019:22096   */\n      0x4e487b7100000000000000000000000000000000000000000000000000000000\n        /* \"#utility.yul\":22016:22017   */\n      0x00\n        /* \"#utility.yul\":22009:22097   */\n      mstore\n        /* \"#utility.yul\":22116:22120   */\n      0x11\n        /* \"#utility.yul\":22113:22114   */\n      0x04\n        /* \"#utility.yul\":22106:22121   */\n      mstore\n        /* \"#utility.yul\":22140:22144   */\n      0x24\n        /* \"#utility.yul\":22137:22138   */\n      0x00\n        /* \"#utility.yul\":22130:22145   */\n      revert\n        /* \"#utility.yul\":22157:22567   */\n    tag_155:\n        /* \"#utility.yul\":22197:22204   */\n      0x00\n        /* \"#utility.yul\":22220:22240   */\n      tag_702\n        /* \"#utility.yul\":22238:22239   */\n      dup3\n        /* \"#utility.yul\":22220:22240   */\n      tag_397\n      jump\t// in\n    tag_702:\n        /* \"#utility.yul\":22215:22240   */\n      swap2\n      pop\n        /* \"#utility.yul\":22254:22274   */\n      tag_703\n        /* \"#utility.yul\":22272:22273   */\n      dup4\n        /* \"#utility.yul\":22254:22274   */\n      tag_397\n      jump\t// in\n    tag_703:\n        /* \"#utility.yul\":22249:22274   */\n      swap3\n      pop\n        /* \"#utility.yul\":22309:22310   */\n      dup3\n        /* \"#utility.yul\":22306:22307   */\n      dup3\n        /* \"#utility.yul\":22302:22311   */\n      mul\n        /* \"#utility.yul\":22331:22361   */\n      tag_704\n        /* \"#utility.yul\":22349:22360   */\n      dup2\n        /* \"#utility.yul\":22331:22361   */\n      tag_397\n      jump\t// in\n    tag_704:\n        /* \"#utility.yul\":22320:22361   */\n      swap2\n      pop\n        /* \"#utility.yul\":22510:22511   */\n      dup3\n        /* \"#utility.yul\":22501:22508   */\n      dup3\n        /* \"#utility.yul\":22497:22512   */\n      div\n        /* \"#utility.yul\":22494:22495   */\n      dup5\n        /* \"#utility.yul\":22491:22513   */\n      eq\n        /* \"#utility.yul\":22471:22472   */\n      dup4\n        /* \"#utility.yul\":22464:22473   */\n      iszero\n        /* \"#utility.yul\":22444:22527   */\n      or\n        /* \"#utility.yul\":22421:22560   */\n      tag_705\n      jumpi\n        /* \"#utility.yul\":22540:22558   */\n      tag_706\n      tag_445\n      jump\t// in\n    tag_706:\n        /* \"#utility.yul\":22421:22560   */\n    tag_705:\n        /* \"#utility.yul\":22205:22567   */\n      pop\n        /* \"#utility.yul\":22157:22567   */\n      swap3\n      swap2\n      pop\n      pop\n      jump\t// out\n        /* \"#utility.yul\":22573:22764   */\n    tag_164:\n        /* \"#utility.yul\":22613:22616   */\n      0x00\n        /* \"#utility.yul\":22632:22652   */\n      tag_708\n        /* \"#utility.yul\":22650:22651   */\n      dup3\n        /* \"#utility.yul\":22632:22652   */\n      tag_397\n      jump\t// in\n    tag_708:\n        /* \"#utility.yul\":22627:22652   */\n      swap2\n      pop\n        /* \"#utility.yul\":22666:22686   */\n      tag_709\n        /* \"#utility.yul\":22684:22685   */\n      dup4\n        /* \"#utility.yul\":22666:22686   */\n      tag_397\n      jump\t// in\n    tag_709:\n        /* \"#utility.yul\":22661:22686   */\n      swap3\n      pop\n        /* \"#utility.yul\":22709:22710   */\n      dup3\n        /* \"#utility.yul\":22706:22707   */\n      dup3\n        /* \"#utility.yul\":22702:22711   */\n      add\n        /* \"#utility.yul\":22695:22711   */\n      swap1\n      pop\n        /* \"#utility.yul\":22730:22733   */\n      dup1\n        /* \"#utility.yul\":22727:22728   */\n      dup3\n        /* \"#utility.yul\":22724:22734   */\n      gt\n        /* \"#utility.yul\":22721:22757   */\n      iszero\n      tag_710\n      jumpi\n        /* \"#utility.yul\":22737:22755   */\n      tag_711\n      tag_445\n      jump\t// in\n    tag_711:\n        /* \"#utility.yul\":22721:22757   */\n    tag_710:\n        /* \"#utility.yul\":22573:22764   */\n      swap3\n      swap2\n      pop\n      pop\n      jump\t// out\n        /* \"#utility.yul\":22770:22964   */\n    tag_171:\n        /* \"#utility.yul\":22810:22814   */\n      0x00\n        /* \"#utility.yul\":22830:22850   */\n      tag_713\n        /* \"#utility.yul\":22848:22849   */\n      dup3\n        /* \"#utility.yul\":22830:22850   */\n      tag_397\n      jump\t// in\n    tag_713:\n        /* \"#utility.yul\":22825:22850   */\n      swap2\n      pop\n        /* \"#utility.yul\":22864:22884   */\n      tag_714\n        /* \"#utility.yul\":22882:22883   */\n      dup4\n        /* \"#utility.yul\":22864:22884   */\n      tag_397\n      jump\t// in\n    tag_714:\n        /* \"#utility.yul\":22859:22884   */\n      swap3\n      pop\n        /* \"#utility.yul\":22908:22909   */\n      dup3\n        /* \"#utility.yul\":22905:22906   */\n      dup3\n        /* \"#utility.yul\":22901:22910   */\n      sub\n        /* \"#utility.yul\":22893:22910   */\n      swap1\n      pop\n        /* \"#utility.yul\":22932:22933   */\n      dup2\n        /* \"#utility.yul\":22926:22930   */\n      dup2\n        /* \"#utility.yul\":22923:22934   */\n      gt\n        /* \"#utility.yul\":22920:22957   */\n      iszero\n      tag_715\n      jumpi\n        /* \"#utility.yul\":22937:22955   */\n      tag_716\n      tag_445\n      jump\t// in\n    tag_716:\n        /* \"#utility.yul\":22920:22957   */\n    tag_715:\n        /* \"#utility.yul\":22770:22964   */\n      swap3\n      swap2\n      pop\n      pop\n      jump\t// out\n        /* \"#utility.yul\":22970:23203   */\n    tag_200:\n        /* \"#utility.yul\":23009:23012   */\n      0x00\n        /* \"#utility.yul\":23032:23056   */\n      tag_718\n        /* \"#utility.yul\":23050:23055   */\n      dup3\n        /* \"#utility.yul\":23032:23056   */\n      tag_397\n      jump\t// in\n    tag_718:\n        /* \"#utility.yul\":23023:23056   */\n      swap2\n      pop\n        /* \"#utility.yul\":23078:23144   */\n      0xffffffffffffffffffffffffffffffffffffffffffffffffffffffffffffffff\n        /* \"#utility.yul\":23071:23076   */\n      dup3\n        /* \"#utility.yul\":23068:23145   */\n      sub\n        /* \"#utility.yul\":23065:23168   */\n      tag_719\n      jumpi\n        /* \"#utility.yul\":23148:23166   */\n      tag_720\n      tag_445\n      jump\t// in\n    tag_720:\n        /* \"#utility.yul\":23065:23168   */\n    tag_719:\n        /* \"#utility.yul\":23195:23196   */\n      0x01\n        /* \"#utility.yul\":23188:23193   */\n      dup3\n        /* \"#utility.yul\":23184:23197   */\n      add\n        /* \"#utility.yul\":23177:23197   */\n      swap1\n      pop\n        /* \"#utility.yul\":22970:23203   */\n      swap2\n      swap1\n      pop\n      jump\t// out\n        /* \"#utility.yul\":23209:23288   */\n    tag_446:\n        /* \"#utility.yul\":23248:23255   */\n      0x00\n        /* \"#utility.yul\":23277:23282   */\n      dup2\n        /* \"#utility.yul\":23266:23282   */\n      swap1\n      pop\n        /* \"#utility.yul\":23209:23288   */\n      swap2\n      swap1\n      pop\n      jump\t// out\n        /* \"#utility.yul\":23294:23451   */\n    tag_447:\n        /* \"#utility.yul\":23399:23444   */\n      tag_723\n        /* \"#utility.yul\":23419:23443   */\n      tag_724\n        /* \"#utility.yul\":23437:23442   */\n      dup3\n        /* \"#utility.yul\":23419:23443   */\n      tag_397\n      jump\t// in\n    tag_724:\n        /* \"#utility.yul\":23399:23444   */\n      tag_446\n      jump\t// in\n    tag_723:\n        /* \"#utility.yul\":23394:23397   */\n      dup3\n        /* \"#utility.yul\":23387:23445   */\n      mstore\n        /* \"#utility.yul\":23294:23451   */\n      pop\n      pop\n      jump\t// out\n        /* \"#utility.yul\":23457:23551   */\n    tag_448:\n        /* \"#utility.yul\":23490:23498   */\n      0x00\n        /* \"#utility.yul\":23538:23543   */\n      dup2\n        /* \"#utility.yul\":23534:23536   */\n      0x60\n        /* \"#utility.yul\":23530:23544   */\n      shl\n        /* \"#utility.yul\":23509:23544   */\n      swap1\n      pop\n        /* \"#utility.yul\":23457:23551   */\n      swap2\n      swap1\n      pop\n      jump\t// out\n        /* \"#utility.yul\":23557:23651   */\n    tag_449:\n        /* \"#utility.yul\":23596:23603   */\n      0x00\n        /* \"#utility.yul\":23625:23645   */\n      tag_727\n        /* \"#utility.yul\":23639:23644   */\n      dup3\n        /* \"#utility.yul\":23625:23645   */\n      tag_448\n      jump\t// in\n    tag_727:\n        /* \"#utility.yul\":23614:23645   */\n      swap1\n      pop\n        /* \"#utility.yul\":23557:23651   */\n      swap2\n      swap1\n      pop\n      jump\t// out\n        /* \"#utility.yul\":23657:23757   */\n    tag_450:\n        /* \"#utility.yul\":23696:23703   */\n      0x00\n        /* \"#utility.yul\":23725:23751   */\n      tag_729\n        /* \"#utility.yul\":23745:23750   */\n      dup3\n        /* \"#utility.yul\":23725:23751   */\n      tag_449\n      jump\t// in\n    tag_729:\n        /* \"#utility.yul\":23714:23751   */\n      swap1\n      pop\n        /* \"#utility.yul\":23657:23757   */\n      swap2\n      swap1\n      pop\n      jump\t// out\n        /* \"#utility.yul\":23763:23920   */\n    tag_451:\n        /* \"#utility.yul\":23868:23913   */\n      tag_731\n        /* \"#utility.yul\":23888:23912   */\n      tag_732\n        /* \"#utility.yul\":23906:23911   */\n      dup3\n        /* \"#utility.yul\":23888:23912   */\n      tag_394\n      jump\t// in\n    tag_732:\n        /* \"#utility.yul\":23868:23913   */\n      tag_450\n      jump\t// in\n    tag_731:\n        /* \"#utility.yul\":23863:23866   */\n      dup3\n        /* \"#utility.yul\":23856:23914   */\n      mstore\n        /* \"#utility.yul\":23763:23920   */\n      pop\n      pop\n      jump\t// out\n        /* \"#utility.yul\":23926:24464   */\n    tag_202:\n        /* \"#utility.yul\":24094:24097   */\n      0x00\n        /* \"#utility.yul\":24109:24184   */\n      tag_734\n        /* \"#utility.yul\":24180:24183   */\n      dup3\n        /* \"#utility.yul\":24171:24177   */\n      dup7\n        /* \"#utility.yul\":24109:24184   */\n      tag_447\n      jump\t// in\n    tag_734:\n        /* \"#utility.yul\":24209:24211   */\n      0x20\n        /* \"#utility.yul\":24204:24207   */\n      dup3\n        /* \"#utility.yul\":24200:24212   */\n      add\n        /* \"#utility.yul\":24193:24212   */\n      swap2\n      pop\n        /* \"#utility.yul\":24222:24297   */\n      tag_735\n        /* \"#utility.yul\":24293:24296   */\n      dup3\n        /* \"#utility.yul\":24284:24290   */\n      dup6\n        /* \"#utility.yul\":24222:24297   */\n      tag_451\n      jump\t// in\n    tag_735:\n        /* \"#utility.yul\":24322:24324   */\n      0x14\n        /* \"#utility.yul\":24317:24320   */\n      dup3\n        /* \"#utility.yul\":24313:24325   */\n      add\n        /* \"#utility.yul\":24306:24325   */\n      swap2\n      pop\n        /* \"#utility.yul\":24335:24410   */\n      tag_736\n        /* \"#utility.yul\":24406:24409   */\n      dup3\n        /* \"#utility.yul\":24397:24403   */\n      dup5\n        /* \"#utility.yul\":24335:24410   */\n      tag_447\n      jump\t// in\n    tag_736:\n        /* \"#utility.yul\":24435:24437   */\n      0x20\n        /* \"#utility.yul\":24430:24433   */\n      dup3\n        /* \"#utility.yul\":24426:24438   */\n      add\n        /* \"#utility.yul\":24419:24438   */\n      swap2\n      pop\n        /* \"#utility.yul\":24455:24458   */\n      dup2\n        /* \"#utility.yul\":24448:24458   */\n      swap1\n      pop\n        /* \"#utility.yul\":23926:24464   */\n      swap5\n      swap4\n      pop\n      pop\n      pop\n      pop\n      jump\t// out\n        /* \"#utility.yul\":24470:24650   */\n    tag_452:\n        /* \"#utility.yul\":24518:24595   */\n      0x4e487b7100000000000000000000000000000000000000000000000000000000\n        /* \"#utility.yul\":24515:24516   */\n      0x00\n        /* \"#utility.yul\":24508:24596   */\n      mstore\n        /* \"#utility.yul\":24615:24619   */\n      0x12\n        /* \"#utility.yul\":24612:24613   */\n      0x04\n        /* \"#utility.yul\":24605:24620   */\n      mstore\n        /* \"#utility.yul\":24639:24643   */\n      0x24\n        /* \"#utility.yul\":24636:24637   */\n      0x00\n        /* \"#utility.yul\":24629:24644   */\n      revert\n        /* \"#utility.yul\":24656:24832   */\n    tag_204:\n        /* \"#utility.yul\":24688:24689   */\n      0x00\n        /* \"#utility.yul\":24705:24725   */\n      tag_739\n        /* \"#utility.yul\":24723:24724   */\n      dup3\n        /* \"#utility.yul\":24705:24725   */\n      tag_397\n      jump\t// in\n    tag_739:\n        /* \"#utility.yul\":24700:24725   */\n      swap2\n      pop\n        /* \"#utility.yul\":24739:24759   */\n      tag_740\n        /* \"#utility.yul\":24757:24758   */\n      dup4\n        /* \"#utility.yul\":24739:24759   */\n      tag_397\n      jump\t// in\n    tag_740:\n        /* \"#utility.yul\":24734:24759   */\n      swap3\n      pop\n        /* \"#utility.yul\":24778:24779   */\n      dup3\n        /* \"#utility.yul\":24768:24803   */\n      tag_741\n      jumpi\n        /* \"#utility.yul\":24783:24801   */\n      tag_742\n      tag_452\n      jump\t// in\n    tag_742:\n        /* \"#utility.yul\":24768:24803   */\n    tag_741:\n        /* \"#utility.yul\":24824:24825   */\n      dup3\n        /* \"#utility.yul\":24821:24822   */\n      dup3\n        /* \"#utility.yul\":24817:24826   */\n      mod\n        /* \"#utility.yul\":24812:24826   */\n      swap1\n      pop\n        /* \"#utility.yul\":24656:24832   */\n      swap3\n      swap2\n      pop\n      pop\n      jump\t// out\n        /* \"#utility.yul\":24838:25023   */\n    tag_216:\n        /* \"#utility.yul\":24878:24879   */\n      0x00\n        /* \"#utility.yul\":24895:24915   */\n      tag_744\n        /* \"#utility.yul\":24913:24914   */\n      dup3\n        /* \"#utility.yul\":24895:24915   */\n      tag_397\n      jump\t// in\n    tag_744:\n        /* \"#utility.yul\":24890:24915   */\n      swap2\n      pop\n        /* \"#utility.yul\":24929:24949   */\n      tag_745\n        /* \"#utility.yul\":24947:24948   */\n      dup4\n        /* \"#utility.yul\":24929:24949   */\n      tag_397\n      jump\t// in\n    tag_745:\n        /* \"#utility.yul\":24924:24949   */\n      swap3\n      pop\n        /* \"#utility.yul\":24968:24969   */\n      dup3\n        /* \"#utility.yul\":24958:24993   */\n      tag_746\n      jumpi\n        /* \"#utility.yul\":24973:24991   */\n      tag_747\n      tag_452\n      jump\t// in\n    tag_747:\n        /* \"#utility.yul\":24958:24993   */\n    tag_746:\n        /* \"#utility.yul\":25015:25016   */\n      dup3\n        /* \"#utility.yul\":25012:25013   */\n      dup3\n        /* \"#utility.yul\":25008:25017   */\n      div\n        /* \"#utility.yul\":25003:25017   */\n      swap1\n      pop\n        /* \"#utility.yul\":24838:25023   */\n      swap3\n      swap2\n      pop\n      pop\n      jump\t// out\n        /* \"#utility.yul\":25029:25254   */\n    tag_453:\n        /* \"#utility.yul\":25169:25203   */\n      0x507572636861736520616d6f756e74206d757374206265206772656174657220\n        /* \"#utility.yul\":25165:25166   */\n      0x00\n        /* \"#utility.yul\":25157:25163   */\n      dup3\n        /* \"#utility.yul\":25153:25167   */\n      add\n        /* \"#utility.yul\":25146:25204   */\n      mstore\n        /* \"#utility.yul\":25238:25246   */\n      0x7468616e20300000000000000000000000000000000000000000000000000000\n        /* \"#utility.yul\":25233:25235   */\n      0x20\n        /* \"#utility.yul\":25225:25231   */\n      dup3\n        /* \"#utility.yul\":25221:25236   */\n      add\n        /* \"#utility.yul\":25214:25247   */\n      mstore\n        /* \"#utility.yul\":25029:25254   */\n      pop\n      jump\t// out\n        /* \"#utility.yul\":25260:25626   */\n    tag_454:\n        /* \"#utility.yul\":25402:25405   */\n      0x00\n        /* \"#utility.yul\":25423:25490   */\n      tag_750\n        /* \"#utility.yul\":25487:25489   */\n      0x26\n        /* \"#utility.yul\":25482:25485   */\n      dup4\n        /* \"#utility.yul\":25423:25490   */\n      tag_406\n      jump\t// in\n    tag_750:\n        /* \"#utility.yul\":25416:25490   */\n      swap2\n      pop\n        /* \"#utility.yul\":25499:25592   */\n      tag_751\n        /* \"#utility.yul\":25588:25591   */\n      dup3\n        /* \"#utility.yul\":25499:25592   */\n      tag_453\n      jump\t// in\n    tag_751:\n        /* \"#utility.yul\":25617:25619   */\n      0x40\n        /* \"#utility.yul\":25612:25615   */\n      dup3\n        /* \"#utility.yul\":25608:25620   */\n      add\n        /* \"#utility.yul\":25601:25620   */\n      swap1\n      pop\n        /* \"#utility.yul\":25260:25626   */\n      swap2\n      swap1\n      pop\n      jump\t// out\n        /* \"#utility.yul\":25632:26051   */\n    tag_231:\n        /* \"#utility.yul\":25798:25802   */\n      0x00\n        /* \"#utility.yul\":25836:25838   */\n      0x20\n        /* \"#utility.yul\":25825:25834   */\n      dup3\n        /* \"#utility.yul\":25821:25839   */\n      add\n        /* \"#utility.yul\":25813:25839   */\n      swap1\n      pop\n        /* \"#utility.yul\":25885:25894   */\n      dup2\n        /* \"#utility.yul\":25879:25883   */\n      dup2\n        /* \"#utility.yul\":25875:25895   */\n      sub\n        /* \"#utility.yul\":25871:25872   */\n      0x00\n        /* \"#utility.yul\":25860:25869   */\n      dup4\n        /* \"#utility.yul\":25856:25873   */\n      add\n        /* \"#utility.yul\":25849:25896   */\n      mstore\n        /* \"#utility.yul\":25913:26044   */\n      tag_753\n        /* \"#utility.yul\":26039:26043   */\n      dup2\n        /* \"#utility.yul\":25913:26044   */\n      tag_454\n      jump\t// in\n    tag_753:\n        /* \"#utility.yul\":25905:26044   */\n      swap1\n      pop\n        /* \"#utility.yul\":25632:26051   */\n      swap2\n      swap1\n      pop\n      jump\t// out\n        /* \"#utility.yul\":26057:26225   */\n    tag_455:\n        /* \"#utility.yul\":26197:26217   */\n      0x496e76616c69642070726f647563742049440000000000000000000000000000\n        /* \"#utility.yul\":26193:26194   */\n      0x00\n        /* \"#utility.yul\":26185:26191   */\n      dup3\n        /* \"#utility.yul\":26181:26195   */\n      add\n        /* \"#utility.yul\":26174:26218   */\n      mstore\n        /* \"#utility.yul\":26057:26225   */\n      pop\n      jump\t// out\n        /* \"#utility.yul\":26231:26597   */\n    tag_456:\n        /* \"#utility.yul\":26373:26376   */\n      0x00\n        /* \"#utility.yul\":26394:26461   */\n      tag_756\n        /* \"#utility.yul\":26458:26460   */\n      0x12\n        /* \"#utility.yul\":26453:26456   */\n      dup4\n        /* \"#utility.yul\":26394:26461   */\n      tag_406\n      jump\t// in\n    tag_756:\n        /* \"#utility.yul\":26387:26461   */\n      swap2\n      pop\n        /* \"#utility.yul\":26470:26563   */\n      tag_757\n        /* \"#utility.yul\":26559:26562   */\n      dup3\n        /* \"#utility.yul\":26470:26563   */\n      tag_455\n      jump\t// in\n    tag_757:\n        /* \"#utility.yul\":26588:26590   */\n      0x20\n        /* \"#utility.yul\":26583:26586   */\n      dup3\n        /* \"#utility.yul\":26579:26591   */\n      add\n        /* \"#utility.yul\":26572:26591   */\n      swap1\n      pop\n        /* \"#utility.yul\":26231:26597   */\n      swap2\n      swap1\n      pop\n      jump\t// out\n        /* \"#utility.yul\":26603:27022   */\n    tag_234:\n        /* \"#utility.yul\":26769:26773   */\n      0x00\n        /* \"#utility.yul\":26807:26809   */\n      0x20\n        /* \"#utility.yul\":26796:26805   */\n      dup3\n        /* \"#utility.yul\":26792:26810   */\n      add\n        /* \"#utility.yul\":26784:26810   */\n      swap1\n      pop\n        /* \"#utility.yul\":26856:26865   */\n      dup2\n        /* \"#utility.yul\":26850:26854   */\n      dup2\n        /* \"#utility.yul\":26846:26866   */\n      sub\n        /* \"#utility.yul\":26842:26843   */\n      0x00\n        /* \"#utility.yul\":26831:26840   */\n      dup4\n        /* \"#utility.yul\":26827:26844   */\n      add\n        /* \"#utility.yul\":26820:26867   */\n      mstore\n        /* \"#utility.yul\":26884:27015   */\n      tag_759\n        /* \"#utility.yul\":27010:27014   */\n      dup2\n        /* \"#utility.yul\":26884:27015   */\n      tag_456\n      jump\t// in\n    tag_759:\n        /* \"#utility.yul\":26876:27015   */\n      swap1\n      pop\n        /* \"#utility.yul\":26603:27022   */\n      swap2\n      swap1\n      pop\n      jump\t// out\n        /* \"#utility.yul\":27028:27204   */\n    tag_457:\n        /* \"#utility.yul\":27168:27196   */\n      0x4e6f7420656e6f7567682073746f636b20617661696c61626c65000000000000\n        /* \"#utility.yul\":27164:27165   */\n      0x00\n        /* \"#utility.yul\":27156:27162   */\n      dup3\n        /* \"#utility.yul\":27152:27166   */\n      add\n        /* \"#utility.yul\":27145:27197   */\n      mstore\n        /* \"#utility.yul\":27028:27204   */\n      pop\n      jump\t// out\n        /* \"#utility.yul\":27210:27576   */\n    tag_458:\n        /* \"#utility.yul\":27352:27355   */\n      0x00\n        /* \"#utility.yul\":27373:27440   */\n      tag_762\n        /* \"#utility.yul\":27437:27439   */\n      0x1a\n        /* \"#utility.yul\":27432:27435   */\n      dup4\n        /* \"#utility.yul\":27373:27440   */\n      tag_406\n      jump\t// in\n    tag_762:\n        /* \"#utility.yul\":27366:27440   */\n      swap2\n      pop\n        /* \"#utility.yul\":27449:27542   */\n      tag_763\n        /* \"#utility.yul\":27538:27541   */\n      dup3\n        /* \"#utility.yul\":27449:27542   */\n      tag_457\n      jump\t// in\n    tag_763:\n        /* \"#utility.yul\":27567:27569   */\n      0x20\n        /* \"#utility.yul\":27562:27565   */\n      dup3\n        /* \"#utility.yul\":27558:27570   */\n      add\n        /* \"#utility.yul\":27551:27570   */\n      swap1\n      pop\n        /* \"#utility.yul\":27210:27576   */\n      swap2\n      swap1\n      pop\n      jump\t// out\n        /* \"#utility.yul\":27582:28001   */\n    tag_240:\n        /* \"#utility.yul\":27748:27752   */\n      0x00\n        /* \"#utility.yul\":27786:27788   */\n      0x20\n        /* \"#utility.yul\":27775:27784   */\n      dup3\n        /* \"#utility.yul\":27771:27789   */\n      add\n        /* \"#utility.yul\":27763:27789   */\n      swap1\n      pop\n        /* \"#utility.yul\":27835:27844   */\n      dup2\n        /* \"#utility.yul\":27829:27833   */\n      dup2\n        /* \"#utility.yul\":27825:27845   */\n      sub\n        /* \"#utility.yul\":27821:27822   */\n      0x00\n        /* \"#utility.yul\":27810:27819   */\n      dup4\n        /* \"#utility.yul\":27806:27823   */\n      add\n        /* \"#utility.yul\":27799:27846   */\n      mstore\n        /* \"#utility.yul\":27863:27994   */\n      tag_765\n        /* \"#utility.yul\":27989:27993   */\n      dup2\n        /* \"#utility.yul\":27863:27994   */\n      tag_458\n      jump\t// in\n    tag_765:\n        /* \"#utility.yul\":27855:27994   */\n      swap1\n      pop\n        /* \"#utility.yul\":27582:28001   */\n      swap2\n      swap1\n      pop\n      jump\t// out\n        /* \"#utility.yul\":28007:28155   */\n    tag_459:\n        /* \"#utility.yul\":28109:28120   */\n      0x00\n        /* \"#utility.yul\":28146:28149   */\n      dup2\n        /* \"#utility.yul\":28131:28149   */\n      swap1\n      pop\n        /* \"#utility.yul\":28007:28155   */\n      swap3\n      swap2\n      pop\n      pop\n      jump\t// out\n        /* \"#utility.yul\":28161:28551   */\n    tag_460:\n        /* \"#utility.yul\":28267:28270   */\n      0x00\n        /* \"#utility.yul\":28295:28334   */\n      tag_768\n        /* \"#utility.yul\":28328:28333   */\n      dup3\n        /* \"#utility.yul\":28295:28334   */\n      tag_405\n      jump\t// in\n    tag_768:\n        /* \"#utility.yul\":28350:28439   */\n      tag_769\n        /* \"#utility.yul\":28432:28438   */\n      dup2\n        /* \"#utility.yul\":28427:28430   */\n      dup6\n        /* \"#utility.yul\":28350:28439   */\n      tag_459\n      jump\t// in\n    tag_769:\n        /* \"#utility.yul\":28343:28439   */\n      swap4\n      pop\n        /* \"#utility.yul\":28448:28513   */\n      tag_770\n        /* \"#utility.yul\":28506:28512   */\n      dup2\n        /* \"#utility.yul\":28501:28504   */\n      dup6\n        /* \"#utility.yul\":28494:28498   */\n      0x20\n        /* \"#utility.yul\":28487:28492   */\n      dup7\n        /* \"#utility.yul\":28483:28499   */\n      add\n        /* \"#utility.yul\":28448:28513   */\n      tag_407\n      jump\t// in\n    tag_770:\n        /* \"#utility.yul\":28538:28544   */\n      dup1\n        /* \"#utility.yul\":28533:28536   */\n      dup5\n        /* \"#utility.yul\":28529:28545   */\n      add\n        /* \"#utility.yul\":28522:28545   */\n      swap2\n      pop\n        /* \"#utility.yul\":28271:28551   */\n      pop\n        /* \"#utility.yul\":28161:28551   */\n      swap3\n      swap2\n      pop\n      pop\n      jump\t// out\n        /* \"#utility.yul\":28557:28832   */\n    tag_247:\n        /* \"#utility.yul\":28689:28692   */\n      0x00\n        /* \"#utility.yul\":28711:28806   */\n      tag_772\n        /* \"#utility.yul\":28802:28805   */\n      dup3\n        /* \"#utility.yul\":28793:28799   */\n      dup5\n        /* \"#utility.yul\":28711:28806   */\n      tag_460\n      jump\t// in\n    tag_772:\n        /* \"#utility.yul\":28704:28806   */\n      swap2\n      pop\n        /* \"#utility.yul\":28823:28826   */\n      dup2\n        /* \"#utility.yul\":28816:28826   */\n      swap1\n      pop\n        /* \"#utility.yul\":28557:28832   */\n      swap3\n      swap2\n      pop\n      pop\n      jump\t// out\n        /* \"#utility.yul\":28838:29011   */\n    tag_461:\n        /* \"#utility.yul\":28978:29003   */\n      0x496e73756666696369656e742066756e64732073656e74000000000000000000\n        /* \"#utility.yul\":28974:28975   */\n      0x00\n        /* \"#utility.yul\":28966:28972   */\n      dup3\n        /* \"#utility.yul\":28962:28976   */\n      add\n        /* \"#utility.yul\":28955:29004   */\n      mstore\n        /* \"#utility.yul\":28838:29011   */\n      pop\n      jump\t// out\n        /* \"#utility.yul\":29017:29383   */\n    tag_462:\n        /* \"#utility.yul\":29159:29162   */\n      0x00\n        /* \"#utility.yul\":29180:29247   */\n      tag_775\n        /* \"#utility.yul\":29244:29246   */\n      0x17\n        /* \"#utility.yul\":29239:29242   */\n      dup4\n        /* \"#utility.yul\":29180:29247   */\n      tag_406\n      jump\t// in\n    tag_775:\n        /* \"#utility.yul\":29173:29247   */\n      swap2\n      pop\n        /* \"#utility.yul\":29256:29349   */\n      tag_776\n        /* \"#utility.yul\":29345:29348   */\n      dup3\n        /* \"#utility.yul\":29256:29349   */\n      tag_461\n      jump\t// in\n    tag_776:\n        /* \"#utility.yul\":29374:29376   */\n      0x20\n        /* \"#utility.yul\":29369:29372   */\n      dup3\n        /* \"#utility.yul\":29365:29377   */\n      add\n        /* \"#utility.yul\":29358:29377   */\n      swap1\n      pop\n        /* \"#utility.yul\":29017:29383   */\n      swap2\n      swap1\n      pop\n      jump\t// out\n        /* \"#utility.yul\":29389:29808   */\n    tag_254:\n        /* \"#utility.yul\":29555:29559   */\n      0x00\n        /* \"#utility.yul\":29593:29595   */\n      0x20\n        /* \"#utility.yul\":29582:29591   */\n      dup3\n        /* \"#utility.yul\":29578:29596   */\n      add\n        /* \"#utility.yul\":29570:29596   */\n      swap1\n      pop\n        /* \"#utility.yul\":29642:29651   */\n      dup2\n        /* \"#utility.yul\":29636:29640   */\n      dup2\n        /* \"#utility.yul\":29632:29652   */\n      sub\n        /* \"#utility.yul\":29628:29629   */\n      0x00\n        /* \"#utility.yul\":29617:29626   */\n      dup4\n        /* \"#utility.yul\":29613:29630   */\n      add\n        /* \"#utility.yul\":29606:29653   */\n      mstore\n        /* \"#utility.yul\":29670:29801   */\n      tag_778\n        /* \"#utility.yul\":29796:29800   */\n      dup2\n        /* \"#utility.yul\":29670:29801   */\n      tag_462\n      jump\t// in\n    tag_778:\n        /* \"#utility.yul\":29662:29801   */\n      swap1\n      pop\n        /* \"#utility.yul\":29389:29808   */\n      swap2\n      swap1\n      pop\n      jump\t// out\n        /* \"#utility.yul\":29814:29961   */\n    tag_463:\n        /* \"#utility.yul\":29915:29926   */\n      0x00\n        /* \"#utility.yul\":29952:29955   */\n      dup2\n        /* \"#utility.yul\":29937:29955   */\n      swap1\n      pop\n        /* \"#utility.yul\":29814:29961   */\n      swap3\n      swap2\n      pop\n      pop\n      jump\t// out\n        /* \"#utility.yul\":29967:30111   */\n    tag_464:\n        /* \"#utility.yul\":30019:30023   */\n      0x00\n        /* \"#utility.yul\":30042:30045   */\n      dup2\n        /* \"#utility.yul\":30034:30045   */\n      swap1\n      pop\n        /* \"#utility.yul\":30065:30068   */\n      dup2\n        /* \"#utility.yul\":30062:30063   */\n      0x00\n        /* \"#utility.yul\":30055:30069   */\n      mstore\n        /* \"#utility.yul\":30099:30103   */\n      0x20\n        /* \"#utility.yul\":30096:30097   */\n      0x00\n        /* \"#utility.yul\":30086:30104   */\n      keccak256\n        /* \"#utility.yul\":30078:30104   */\n      swap1\n      pop\n        /* \"#utility.yul\":29967:30111   */\n      swap2\n      swap1\n      pop\n      jump\t// out\n        /* \"#utility.yul\":30139:31017   */\n    tag_465:\n        /* \"#utility.yul\":30244:30247   */\n      0x00\n        /* \"#utility.yul\":30281:30286   */\n      dup2\n        /* \"#utility.yul\":30275:30287   */\n      sload\n        /* \"#utility.yul\":30310:30346   */\n      tag_782\n        /* \"#utility.yul\":30336:30345   */\n      dup2\n        /* \"#utility.yul\":30310:30346   */\n      tag_129\n      jump\t// in\n    tag_782:\n        /* \"#utility.yul\":30362:30450   */\n      tag_783\n        /* \"#utility.yul\":30443:30449   */\n      dup2\n        /* \"#utility.yul\":30438:30441   */\n      dup7\n        /* \"#utility.yul\":30362:30450   */\n      tag_463\n      jump\t// in\n    tag_783:\n        /* \"#utility.yul\":30355:30450   */\n      swap5\n      pop\n        /* \"#utility.yul\":30481:30482   */\n      0x01\n        /* \"#utility.yul\":30470:30479   */\n      dup3\n        /* \"#utility.yul\":30466:30483   */\n      and\n        /* \"#utility.yul\":30497:30498   */\n      0x00\n        /* \"#utility.yul\":30492:30658   */\n      dup2\n      eq\n      tag_785\n      jumpi\n        /* \"#utility.yul\":30672:30673   */\n      0x01\n        /* \"#utility.yul\":30667:31011   */\n      dup2\n      eq\n      tag_786\n      jumpi\n        /* \"#utility.yul\":30459:31011   */\n      jump(tag_784)\n        /* \"#utility.yul\":30492:30658   */\n    tag_785:\n        /* \"#utility.yul\":30576:30580   */\n      0xff\n        /* \"#utility.yul\":30572:30581   */\n      not\n        /* \"#utility.yul\":30561:30570   */\n      dup4\n        /* \"#utility.yul\":30557:30582   */\n      and\n        /* \"#utility.yul\":30552:30555   */\n      dup7\n        /* \"#utility.yul\":30545:30583   */\n      mstore\n        /* \"#utility.yul\":30638:30644   */\n      dup2\n        /* \"#utility.yul\":30631:30645   */\n      iszero\n        /* \"#utility.yul\":30624:30646   */\n      iszero\n        /* \"#utility.yul\":30616:30622   */\n      dup3\n        /* \"#utility.yul\":30612:30647   */\n      mul\n        /* \"#utility.yul\":30607:30610   */\n      dup7\n        /* \"#utility.yul\":30603:30648   */\n      add\n        /* \"#utility.yul\":30596:30648   */\n      swap4\n      pop\n        /* \"#utility.yul\":30492:30658   */\n      jump(tag_784)\n        /* \"#utility.yul\":30667:31011   */\n    tag_786:\n        /* \"#utility.yul\":30734:30775   */\n      tag_787\n        /* \"#utility.yul\":30769:30774   */\n      dup6\n        /* \"#utility.yul\":30734:30775   */\n      tag_464\n      jump\t// in\n    tag_787:\n        /* \"#utility.yul\":30797:30798   */\n      0x00\n        /* \"#utility.yul\":30811:30965   */\n    tag_788:\n        /* \"#utility.yul\":30825:30831   */\n      dup4\n        /* \"#utility.yul\":30822:30823   */\n      dup2\n        /* \"#utility.yul\":30819:30832   */\n      lt\n        /* \"#utility.yul\":30811:30965   */\n      iszero\n      tag_790\n      jumpi\n        /* \"#utility.yul\":30899:30906   */\n      dup2\n        /* \"#utility.yul\":30893:30907   */\n      sload\n        /* \"#utility.yul\":30889:30890   */\n      dup2\n        /* \"#utility.yul\":30884:30887   */\n      dup10\n        /* \"#utility.yul\":30880:30891   */\n      add\n        /* \"#utility.yul\":30873:30908   */\n      mstore\n        /* \"#utility.yul\":30949:30950   */\n      0x01\n        /* \"#utility.yul\":30940:30947   */\n      dup3\n        /* \"#utility.yul\":30936:30951   */\n      add\n        /* \"#utility.yul\":30925:30951   */\n      swap2\n      pop\n        /* \"#utility.yul\":30847:30851   */\n      0x20\n        /* \"#utility.yul\":30844:30845   */\n      dup2\n        /* \"#utility.yul\":30840:30852   */\n      add\n        /* \"#utility.yul\":30835:30852   */\n      swap1\n      pop\n        /* \"#utility.yul\":30811:30965   */\n      jump(tag_788)\n    tag_790:\n        /* \"#utility.yul\":30994:31000   */\n      dup4\n        /* \"#utility.yul\":30989:30992   */\n      dup9\n        /* \"#utility.yul\":30985:31001   */\n      add\n        /* \"#utility.yul\":30978:31001   */\n      swap6\n      pop\n        /* \"#utility.yul\":30674:31011   */\n      pop\n      pop\n        /* \"#utility.yul\":30459:31011   */\n    tag_784:\n      pop\n        /* \"#utility.yul\":30248:31017   */\n      pop\n      pop\n        /* \"#utility.yul\":30139:31017   */\n      swap3\n      swap2\n      pop\n      pop\n      jump\t// out\n        /* \"#utility.yul\":31023:31296   */\n    tag_262:\n        /* \"#utility.yul\":31154:31157   */\n      0x00\n        /* \"#utility.yul\":31176:31270   */\n      tag_792\n        /* \"#utility.yul\":31266:31269   */\n      dup3\n        /* \"#utility.yul\":31257:31263   */\n      dup5\n        /* \"#utility.yul\":31176:31270   */\n      tag_465\n      jump\t// in\n    tag_792:\n        /* \"#utility.yul\":31169:31270   */\n      swap2\n      pop\n        /* \"#utility.yul\":31287:31290   */\n      dup2\n        /* \"#utility.yul\":31280:31290   */\n      swap1\n      pop\n        /* \"#utility.yul\":31023:31296   */\n      swap3\n      swap2\n      pop\n      pop\n      jump\t// out\n\n    auxdata: 0xa26469706673582212204902356758203346858da88e35d97de387f9af153db6ab3a23306c39d4864e5a64736f6c63430008120033\n}\n",
				"bytecode": {
					"linkReferences": {},
					"object": "608060405234801561001057600080fd5b5033600160006101000a81548173ffffffffffffffffffffffffffffffffffffffff021916908373ffffffffffffffffffffffffffffffffffffffff160217905550613823806100616000396000f3fe6080604052600436106101095760003560e01c8063861c2b6d11610095578063a87430ba11610064578063a87430ba14610334578063d18a524a14610372578063d55768dd14610389578063f67a2ad1146103c6578063fecd8f79146103ef57610109565b8063861c2b6d1461029b5780638da5cb5b146102c45780639f1cd587146102ef578063a1ba90b61461030b57610109565b806350b44712116100dc57806350b44712146101b757806355dea0b3146101f557806366d0dc671461021e5780636f76470814610235578063805553e81461025e57610109565b8063031941331461010e5780633d527883146101375780633dfe7dee14610177578063410085df1461018e575b600080fd5b34801561011a57600080fd5b50610135600480360381019061013091906127cf565b61040b565b005b34801561014357600080fd5b5061015e60048036038101906101599190612869565b610644565b60405161016e9493929190612948565b60405180910390f35b34801561018357600080fd5b5061018c610719565b005b34801561019a57600080fd5b506101b560048036038101906101b09190612869565b6107bf565b005b3480156101c357600080fd5b506101de60048036038101906101d99190612994565b610b8c565b6040516101ec929190612a47565b60405180910390f35b34801561020157600080fd5b5061021c60048036038101906102179190612a95565b610be9565b005b34801561022a57600080fd5b50610233610cc9565b005b34801561024157600080fd5b5061025c60048036038101906102579190612994565b610d70565b005b34801561026a57600080fd5b5061028560048036038101906102809190612994565b610eb0565b6040516102929190612ac2565b60405180910390f35b3480156102a757600080fd5b506102c260048036038101906102bd9190612add565b610f02565b005b3480156102d057600080fd5b506102d9611147565b6040516102e69190612b77565b60405180910390f35b61030960048036038101906103049190612cc2565b61116d565b005b34801561031757600080fd5b50610332600480360381019061032d9190612d45565b611ace565b005b34801561034057600080fd5b5061035b60048036038101906103569190612da1565b611b67565b604051610369929190612dce565b60405180910390f35b34801561037e57600080fd5b50610387611b98565b005b34801561039557600080fd5b506103b060048036038101906103ab9190612df7565b611c3f565b6040516103bd9190612b77565b60405180910390f35b3480156103d257600080fd5b506103ed60048036038101906103e89190612da1565b611c88565b005b61040960048036038101906104049190612e40565b611d1a565b005b600186816002811115610421576104206129d0565b5b600260003373ffffffffffffffffffffffffffffffffffffffff1673ffffffffffffffffffffffffffffffffffffffff16815260200190815260200160002060000160009054906101000a900460ff166002811115610483576104826129d0565b5b146104c3576040517f08c379a00000000000000000000000000000000000000000000000000000000081526004016104ba90612ecd565b60405180910390fd5b8073ffffffffffffffffffffffffffffffffffffffff163373ffffffffffffffffffffffffffffffffffffffff1614610531576040517f08c379a000000000000000000000000000000000000000000000000000000000815260040161052890612f85565b60405180910390fd5b6000604051806080016040528089815260200188815260200187878080601f016020809104026020016040519081016040528093929190818152602001838380828437600081840152601f19601f820116905080830192505050505050508152602001858152509050600360008a73ffffffffffffffffffffffffffffffffffffffff1673ffffffffffffffffffffffffffffffffffffffff1681526020019081526020016000208190806001815401808255809150506001900390600052602060002090600402016000909190919091506000820151816000015560208201518160010155604082015181600201908161062c91906131b1565b50606082015181600301555050505050505050505050565b6003602052816000526040600020818154811061066057600080fd5b90600052602060002090600402016000915091505080600001549080600101549080600201805461069090612fd4565b80601f01602080910402602001604051908101604052809291908181526020018280546106bc90612fd4565b80156107095780601f106106de57610100808354040283529160200191610709565b820191906000526020600020905b8154815290600101906020018083116106ec57829003601f168201915b5050505050908060030154905084565b6040518060400160405280600280811115610737576107366129d0565b5b81526020016000815250600260003373ffffffffffffffffffffffffffffffffffffffff1673ffffffffffffffffffffffffffffffffffffffff16815260200190815260200160002060008201518160000160006101000a81548160ff021916908360028111156107ab576107aa6129d0565b5b021790555060208201518160010155905050565b6000600360003373ffffffffffffffffffffffffffffffffffffffff1673ffffffffffffffffffffffffffffffffffffffff168152602001908152602001600020828154811061081257610811613283565b5b90600052602060002090600402016003015490506000600360008573ffffffffffffffffffffffffffffffffffffffff1673ffffffffffffffffffffffffffffffffffffffff168152602001908152602001600020838154811061087957610878613283565b5b906000526020600020906004020160030154905080821161089957600080fd5b6000670de0b6b3a7640000600360008773ffffffffffffffffffffffffffffffffffffffff1673ffffffffffffffffffffffffffffffffffffffff16815260200190815260200160002085815481106108f5576108f4613283565b5b906000526020600020906004020160010154600360003373ffffffffffffffffffffffffffffffffffffffff1673ffffffffffffffffffffffffffffffffffffffff168152602001908152602001600020868154811061095857610957613283565b5b90600052602060002090600402016000015461097491906132e1565b61097e91906132e1565b9050600360003373ffffffffffffffffffffffffffffffffffffffff1673ffffffffffffffffffffffffffffffffffffffff16815260200190815260200160002084815481106109d1576109d0613283565b5b906000526020600020906004020160000154600360008773ffffffffffffffffffffffffffffffffffffffff1673ffffffffffffffffffffffffffffffffffffffff1681526020019081526020016000208581548110610a3457610a33613283565b5b90600052602060002090600402016000016000828254610a549190613323565b92505081905550600360003373ffffffffffffffffffffffffffffffffffffffff1673ffffffffffffffffffffffffffffffffffffffff1681526020019081526020016000208481548110610aac57610aab613283565b5b90600052602060002090600402016000808201600090556001820160009055600282016000610adb9190612665565b6003820160009055505080600260008773ffffffffffffffffffffffffffffffffffffffff1673ffffffffffffffffffffffffffffffffffffffff1681526020019081526020016000206001016000828254610b379190613357565b925050819055503373ffffffffffffffffffffffffffffffffffffffff166108fc829081150290604051600060405180830381858888f19350505050158015610b84573d6000803e3d6000fd5b505050505050565b60008181548110610b9c57600080fd5b906000526020600020016000915090508060000160009054906101000a900473ffffffffffffffffffffffffffffffffffffffff16908060000160149054906101000a900460ff16905082565b600060405180604001604052803373ffffffffffffffffffffffffffffffffffffffff168152602001836002811115610c2557610c246129d0565b5b8152509080600181540180825580915050600190039060005260206000200160009091909190915060008201518160000160006101000a81548173ffffffffffffffffffffffffffffffffffffffff021916908373ffffffffffffffffffffffffffffffffffffffff16021790555060208201518160000160146101000a81548160ff02191690836002811115610cbf57610cbe6129d0565b5b0217905550505050565b604051806040016040528060016002811115610ce857610ce76129d0565b5b81526020016000815250600260003373ffffffffffffffffffffffffffffffffffffffff1673ffffffffffffffffffffffffffffffffffffffff16815260200190815260200160002060008201518160000160006101000a81548160ff02191690836002811115610d5c57610d5b6129d0565b5b021790555060208201518160010155905050565b600160009054906101000a900473ffffffffffffffffffffffffffffffffffffffff1673ffffffffffffffffffffffffffffffffffffffff163373ffffffffffffffffffffffffffffffffffffffff1614610dca57600080fd5b6000808281548110610ddf57610dde613283565b5b9060005260206000200160000160009054906101000a900473ffffffffffffffffffffffffffffffffffffffff1690506000808381548110610e2457610e23613283565b5b9060005260206000200160000160149054906101000a900460ff16905080600260008473ffffffffffffffffffffffffffffffffffffffff1673ffffffffffffffffffffffffffffffffffffffff16815260200190815260200160002060000160006101000a81548160ff02191690836002811115610ea657610ea56129d0565b5b0217905550505050565b6000808080610ebe9061338b565b91505082423383604051602001610ed79392919061343c565b6040516020818303038152906040528051906020012060001c610efa91906134a8565b915050919050565b600281816002811115610f1857610f176129d0565b5b600260003373ffffffffffffffffffffffffffffffffffffffff1673ffffffffffffffffffffffffffffffffffffffff16815260200190815260200160002060000160009054906101000a900460ff166002811115610f7a57610f796129d0565b5b14610fba576040517f08c379a0000000000000000000000000000000000000000000000000000000008152600401610fb190612ecd565b60405180910390fd5b8073ffffffffffffffffffffffffffffffffffffffff163373ffffffffffffffffffffffffffffffffffffffff1614611028576040517f08c379a000000000000000000000000000000000000000000000000000000000815260040161101f90612f85565b60405180910390fd5b600060405180608001604052808a815260200160028a61104891906134d9565b815260200188888080601f016020809104026020016040519081016040528093929190818152602001838380828437600081840152601f19601f820116905080830192505050505050508152602001868152509050600360008573ffffffffffffffffffffffffffffffffffffffff1673ffffffffffffffffffffffffffffffffffffffff1681526020019081526020016000208190806001815401808255809150506001900390600052602060002090600402016000909190919091506000820151816000015560208201518160010155604082015181600201908161112f91906131b1565b50606082015181600301555050505050505050505050565b600160009054906101000a900473ffffffffffffffffffffffffffffffffffffffff1681565b60006002811115611181576111806129d0565b5b600260003373ffffffffffffffffffffffffffffffffffffffff1673ffffffffffffffffffffffffffffffffffffffff16815260200190815260200160002060000160009054906101000a900460ff1660028111156111e3576111e26129d0565b5b0361128e57604051806040016040528060006002811115611207576112066129d0565b5b81526020016000815250600260003373ffffffffffffffffffffffffffffffffffffffff1673ffffffffffffffffffffffffffffffffffffffff16815260200190815260200160002060008201518160000160006101000a81548160ff0219169083600281111561127b5761127a6129d0565b5b0217905550602082015181600101559050505b600083116112d1576040517f08c379a00000000000000000000000000000000000000000000000000000000081526004016112c89061357c565b60405180910390fd5b600360008573ffffffffffffffffffffffffffffffffffffffff1673ffffffffffffffffffffffffffffffffffffffff168152602001908152602001600020805490508210611355576040517f08c379a000000000000000000000000000000000000000000000000000000000815260040161134c906135e8565b60405180910390fd5b600360008573ffffffffffffffffffffffffffffffffffffffff1673ffffffffffffffffffffffffffffffffffffffff16815260200190815260200160002082815481106113a6576113a5613283565b5b9060005260206000209060040201600001548311156113fa576040517f08c379a00000000000000000000000000000000000000000000000000000000081526004016113f190613654565b60405180910390fd5b6000670de0b6b3a7640000600360008773ffffffffffffffffffffffffffffffffffffffff1673ffffffffffffffffffffffffffffffffffffffff168152602001908152602001600020848154811061145657611455613283565b5b9060005260206000209060040201600101548561147391906132e1565b61147d91906132e1565b90503373ffffffffffffffffffffffffffffffffffffffff166004836040516114a691906136b0565b908152602001604051809103902060009054906101000a900473ffffffffffffffffffffffffffffffffffffffff1673ffffffffffffffffffffffffffffffffffffffff160361156a576064605a826114ff91906132e1565b61150991906134d9565b9050600060048360405161151d91906136b0565b908152602001604051809103902060006101000a81548173ffffffffffffffffffffffffffffffffffffffff021916908373ffffffffffffffffffffffffffffffffffffffff1602179055505b803410156115ad576040517f08c379a00000000000000000000000000000000000000000000000000000000081526004016115a490613713565b60405180910390fd5b6000805b600360003373ffffffffffffffffffffffffffffffffffffffff1673ffffffffffffffffffffffffffffffffffffffff1681526020019081526020016000208054905081101561178357600360008873ffffffffffffffffffffffffffffffffffffffff1673ffffffffffffffffffffffffffffffffffffffff168152602001908152602001600020858154811061164c5761164b613283565b5b906000526020600020906004020160020160405161166a91906137d6565b6040518091039020600360003373ffffffffffffffffffffffffffffffffffffffff1673ffffffffffffffffffffffffffffffffffffffff16815260200190815260200160002082815481106116c3576116c2613283565b5b90600052602060002090600402016002016040516116e191906137d6565b6040518091039020036117705785600360003373ffffffffffffffffffffffffffffffffffffffff1673ffffffffffffffffffffffffffffffffffffffff16815260200190815260200160002082815481106117405761173f613283565b5b906000526020600020906004020160000160008282546117609190613323565b9250508190555060019150611783565b808061177b9061338b565b9150506115b1565b50806119a55760006040518060800160405280878152602001600360008a73ffffffffffffffffffffffffffffffffffffffff1673ffffffffffffffffffffffffffffffffffffffff16815260200190815260200160002087815481106117ed576117ec613283565b5b9060005260206000209060040201600101548152602001600360008a73ffffffffffffffffffffffffffffffffffffffff1673ffffffffffffffffffffffffffffffffffffffff168152602001908152602001600020878154811061185557611854613283565b5b9060005260206000209060040201600201805461187190612fd4565b80601f016020809104026020016040519081016040528092919081815260200182805461189d90612fd4565b80156118ea5780601f106118bf576101008083540402835291602001916118ea565b820191906000526020600020905b8154815290600101906020018083116118cd57829003601f168201915b505050505081526020016118ff6103e8610eb0565b8152509050600360003373ffffffffffffffffffffffffffffffffffffffff1673ffffffffffffffffffffffffffffffffffffffff1681526020019081526020016000208190806001815401808255809150506001900390600052602060002090600402016000909190919091506000820151816000015560208201518160010155604082015181600201908161199691906131b1565b50606082015181600301555050505b84600360008873ffffffffffffffffffffffffffffffffffffffff1673ffffffffffffffffffffffffffffffffffffffff16815260200190815260200160002085815481106119f7576119f6613283565b5b90600052602060002090600402016000016000828254611a179190613357565b9250508190555081341115611a7f5760008234611a349190613357565b90503373ffffffffffffffffffffffffffffffffffffffff166108fc829081150290604051600060405180830381858888f19350505050158015611a7c573d6000803e3d6000fd5b50505b81600260008873ffffffffffffffffffffffffffffffffffffffff1673ffffffffffffffffffffffffffffffffffffffff16815260200190815260200160002060010181905550505050505050565b8073ffffffffffffffffffffffffffffffffffffffff163373ffffffffffffffffffffffffffffffffffffffff1603611b0657600080fd5b80600483604051611b1791906136b0565b908152602001604051809103902060006101000a81548173ffffffffffffffffffffffffffffffffffffffff021916908373ffffffffffffffffffffffffffffffffffffffff1602179055505050565b60026020528060005260406000206000915090508060000160009054906101000a900460ff16908060010154905082565b604051806040016040528060006002811115611bb757611bb66129d0565b5b81526020016000815250600260003373ffffffffffffffffffffffffffffffffffffffff1673ffffffffffffffffffffffffffffffffffffffff16815260200190815260200160002060008201518160000160006101000a81548160ff02191690836002811115611c2b57611c2a6129d0565b5b021790555060208201518160010155905050565b6004818051602081018201805184825260208301602085012081835280955050505050506000915054906101000a900473ffffffffffffffffffffffffffffffffffffffff1681565b6000600260008373ffffffffffffffffffffffffffffffffffffffff1673ffffffffffffffffffffffffffffffffffffffff1681526020019081526020016000206001015490508173ffffffffffffffffffffffffffffffffffffffff166108fc829081150290604051600060405180830381858888f19350505050158015611d15573d6000803e3d6000fd5b505050565b600184816002811115611d3057611d2f6129d0565b5b600260003373ffffffffffffffffffffffffffffffffffffffff1673ffffffffffffffffffffffffffffffffffffffff16815260200190815260200160002060000160009054906101000a900460ff166002811115611d9257611d916129d0565b5b14611dd2576040517f08c379a0000000000000000000000000000000000000000000000000000000008152600401611dc990612ecd565b60405180910390fd5b8073ffffffffffffffffffffffffffffffffffffffff163373ffffffffffffffffffffffffffffffffffffffff1614611e40576040517f08c379a0000000000000000000000000000000000000000000000000000000008152600401611e3790612f85565b60405180910390fd5b60008411611e83576040517f08c379a0000000000000000000000000000000000000000000000000000000008152600401611e7a9061357c565b60405180910390fd5b600360008773ffffffffffffffffffffffffffffffffffffffff1673ffffffffffffffffffffffffffffffffffffffff168152602001908152602001600020805490508510611f07576040517f08c379a0000000000000000000000000000000000000000000000000000000008152600401611efe906135e8565b60405180910390fd5b6000806000600360008773ffffffffffffffffffffffffffffffffffffffff1673ffffffffffffffffffffffffffffffffffffffff1681526020019081526020016000208881548110611f5d57611f5c613283565b5b90600052602060002090600402016002018054611f7990612fd4565b80601f0160208091040260200160405190810160405280929190818152602001828054611fa590612fd4565b8015611ff25780601f10611fc757610100808354040283529160200191611ff2565b820191906000526020600020905b815481529060010190602001808311611fd557829003601f168201915b5050505050905060005b600360008873ffffffffffffffffffffffffffffffffffffffff1673ffffffffffffffffffffffffffffffffffffffff168152602001908152602001600020805490508110156125f857600360008b73ffffffffffffffffffffffffffffffffffffffff1673ffffffffffffffffffffffffffffffffffffffff168152602001908152602001600020818154811061209757612096613283565b5b90600052602060002090600402016002016040516120b591906137d6565b60405180910390208280519060200120036125e557600360008873ffffffffffffffffffffffffffffffffffffffff1673ffffffffffffffffffffffffffffffffffffffff168152602001908152602001600020818154811061211b5761211a613283565b5b9060005260206000209060040201600101549250670de0b6b3a7640000888461214491906132e1565b61214e91906132e1565b935083341015612193576040517f08c379a000000000000000000000000000000000000000000000000000000000815260040161218a90613713565b60405180910390fd5b6000805b600360008d73ffffffffffffffffffffffffffffffffffffffff1673ffffffffffffffffffffffffffffffffffffffff1681526020019081526020016000208054905081101561236957600360008a73ffffffffffffffffffffffffffffffffffffffff1673ffffffffffffffffffffffffffffffffffffffff1681526020019081526020016000208b8154811061223257612231613283565b5b906000526020600020906004020160020160405161225091906137d6565b6040518091039020600360008e73ffffffffffffffffffffffffffffffffffffffff1673ffffffffffffffffffffffffffffffffffffffff16815260200190815260200160002082815481106122a9576122a8613283565b5b90600052602060002090600402016002016040516122c791906137d6565b6040518091039020036123565789600360008e73ffffffffffffffffffffffffffffffffffffffff1673ffffffffffffffffffffffffffffffffffffffff168152602001908152602001600020848154811061232657612325613283565b5b906000526020600020906004020160000160008282546123469190613323565b9250508190555060019150612369565b80806123619061338b565b915050612197565b50806125e357600060405180608001604052808b8152602001600360008c73ffffffffffffffffffffffffffffffffffffffff1673ffffffffffffffffffffffffffffffffffffffff1681526020019081526020016000208d815481106123d3576123d2613283565b5b9060005260206000209060040201600101548152602001600360008c73ffffffffffffffffffffffffffffffffffffffff1673ffffffffffffffffffffffffffffffffffffffff1681526020019081526020016000208d8154811061243b5761243a613283565b5b9060005260206000209060040201600201805461245790612fd4565b80601f016020809104026020016040519081016040528092919081815260200182805461248390612fd4565b80156124d05780601f106124a5576101008083540402835291602001916124d0565b820191906000526020600020905b8154815290600101906020018083116124b357829003601f168201915b50505050508152602001600360008c73ffffffffffffffffffffffffffffffffffffffff1673ffffffffffffffffffffffffffffffffffffffff1681526020019081526020016000208d8154811061252b5761252a613283565b5b9060005260206000209060040201600301548152509050600360003373ffffffffffffffffffffffffffffffffffffffff1673ffffffffffffffffffffffffffffffffffffffff168152602001908152602001600020819080600181540180825580915050600190039060005260206000209060040201600090919091909150600082015181600001556020820151816001015560408201518160020190816125d491906131b1565b50606082015181600301555050505b505b80806125f09061338b565b915050611ffc565b508234111561265a576000833461260f9190613357565b90503373ffffffffffffffffffffffffffffffffffffffff166108fc829081150290604051600060405180830381858888f19350505050158015612657573d6000803e3d6000fd5b50505b505050505050505050565b50805461267190612fd4565b6000825580601f1061268357506126a2565b601f0160209004906000526020600020908101906126a191906126a5565b5b50565b5b808211156126be5760008160009055506001016126a6565b5090565b6000604051905090565b600080fd5b600080fd5b600073ffffffffffffffffffffffffffffffffffffffff82169050919050565b6000612701826126d6565b9050919050565b612711816126f6565b811461271c57600080fd5b50565b60008135905061272e81612708565b92915050565b6000819050919050565b61274781612734565b811461275257600080fd5b50565b6000813590506127648161273e565b92915050565b600080fd5b600080fd5b600080fd5b60008083601f84011261278f5761278e61276a565b5b8235905067ffffffffffffffff8111156127ac576127ab61276f565b5b6020830191508360018202830111156127c8576127c7612774565b5b9250929050565b60008060008060008060a087890312156127ec576127eb6126cc565b5b60006127fa89828a0161271f565b965050602061280b89828a01612755565b955050604061281c89828a01612755565b945050606087013567ffffffffffffffff81111561283d5761283c6126d1565b5b61284989828a01612779565b9350935050608061285c89828a01612755565b9150509295509295509295565b600080604083850312156128805761287f6126cc565b5b600061288e8582860161271f565b925050602061289f85828601612755565b9150509250929050565b6128b281612734565b82525050565b600081519050919050565b600082825260208201905092915050565b60005b838110156128f25780820151818401526020810190506128d7565b60008484015250505050565b6000601f19601f8301169050919050565b600061291a826128b8565b61292481856128c3565b93506129348185602086016128d4565b61293d816128fe565b840191505092915050565b600060808201905061295d60008301876128a9565b61296a60208301866128a9565b818103604083015261297c818561290f565b905061298b60608301846128a9565b95945050505050565b6000602082840312156129aa576129a96126cc565b5b60006129b884828501612755565b91505092915050565b6129ca816126f6565b82525050565b7f4e487b7100000000000000000000000000000000000000000000000000000000600052602160045260246000fd5b60038110612a1057612a0f6129d0565b5b50565b6000819050612a21826129ff565b919050565b6000612a3182612a13565b9050919050565b612a4181612a26565b82525050565b6000604082019050612a5c60008301856129c1565b612a696020830184612a38565b9392505050565b60038110612a7d57600080fd5b50565b600081359050612a8f81612a70565b92915050565b600060208284031215612aab57612aaa6126cc565b5b6000612ab984828501612a80565b91505092915050565b6000602082019050612ad760008301846128a9565b92915050565b60008060008060008060a08789031215612afa57612af96126cc565b5b6000612b0889828a01612755565b9650506020612b1989828a01612755565b955050604087013567ffffffffffffffff811115612b3a57612b396126d1565b5b612b4689828a01612779565b94509450506060612b5989828a01612755565b9250506080612b6a89828a0161271f565b9150509295509295509295565b6000602082019050612b8c60008301846129c1565b92915050565b600080fd5b7f4e487b7100000000000000000000000000000000000000000000000000000000600052604160045260246000fd5b612bcf826128fe565b810181811067ffffffffffffffff82111715612bee57612bed612b97565b5b80604052505050565b6000612c016126c2565b9050612c0d8282612bc6565b919050565b600067ffffffffffffffff821115612c2d57612c2c612b97565b5b612c36826128fe565b9050602081019050919050565b82818337600083830152505050565b6000612c65612c6084612c12565b612bf7565b905082815260208101848484011115612c8157612c80612b92565b5b612c8c848285612c43565b509392505050565b600082601f830112612ca957612ca861276a565b5b8135612cb9848260208601612c52565b91505092915050565b60008060008060808587031215612cdc57612cdb6126cc565b5b6000612cea8782880161271f565b9450506020612cfb87828801612755565b9350506040612d0c87828801612755565b925050606085013567ffffffffffffffff811115612d2d57612d2c6126d1565b5b612d3987828801612c94565b91505092959194509250565b60008060408385031215612d5c57612d5b6126cc565b5b600083013567ffffffffffffffff811115612d7a57612d796126d1565b5b612d8685828601612c94565b9250506020612d978582860161271f565b9150509250929050565b600060208284031215612db757612db66126cc565b5b6000612dc58482850161271f565b91505092915050565b6000604082019050612de36000830185612a38565b612df060208301846128a9565b9392505050565b600060208284031215612e0d57612e0c6126cc565b5b600082013567ffffffffffffffff811115612e2b57612e2a6126d1565b5b612e3784828501612c94565b91505092915050565b60008060008060808587031215612e5a57612e596126cc565b5b6000612e688782880161271f565b9450506020612e7987828801612755565b9350506040612e8a87828801612755565b9250506060612e9b8782880161271f565b91505092959194509250565b50565b6000612eb76000836128c3565b9150612ec282612ea7565b600082019050919050565b60006020820190508181036000830152612ee681612eaa565b9050919050565b7fd09cd0b0d0b3d0b0d0b7d0b8d0bd20d0bdd0b520d181d0bed0bed182d0b2d0b560008201527fd182d181d0b2d183d0b5d18220d0bed182d0bfd180d0b0d0b2d0b8d182d0b5d060208201527fbbd18e0000000000000000000000000000000000000000000000000000000000604082015250565b6000612f6f6043836128c3565b9150612f7a82612eed565b606082019050919050565b60006020820190508181036000830152612f9e81612f62565b9050919050565b7f4e487b7100000000000000000000000000000000000000000000000000000000600052602260045260246000fd5b60006002820490506001821680612fec57607f821691505b602082108103612fff57612ffe612fa5565b5b50919050565b60008190508160005260206000209050919050565b60006020601f8301049050919050565b600082821b905092915050565b6000600883026130677fffffffffffffffffffffffffffffffffffffffffffffffffffffffffffffffff8261302a565b613071868361302a565b95508019841693508086168417925050509392505050565b6000819050919050565b60006130ae6130a96130a484612734565b613089565b612734565b9050919050565b6000819050919050565b6130c883613093565b6130dc6130d4826130b5565b848454613037565b825550505050565b600090565b6130f16130e4565b6130fc8184846130bf565b505050565b5b81811015613120576131156000826130e9565b600181019050613102565b5050565b601f8211156131655761313681613005565b61313f8461301a565b8101602085101561314e578190505b61316261315a8561301a565b830182613101565b50505b505050565b600082821c905092915050565b60006131886000198460080261316a565b1980831691505092915050565b60006131a18383613177565b9150826002028217905092915050565b6131ba826128b8565b67ffffffffffffffff8111156131d3576131d2612b97565b5b6131dd8254612fd4565b6131e8828285613124565b600060209050601f83116001811461321b5760008415613209578287015190505b6132138582613195565b86555061327b565b601f19841661322986613005565b60005b828110156132515784890151825560018201915060208501945060208101905061322c565b8683101561326e578489015161326a601f891682613177565b8355505b6001600288020188555050505b505050505050565b7f4e487b7100000000000000000000000000000000000000000000000000000000600052603260045260246000fd5b7f4e487b7100000000000000000000000000000000000000000000000000000000600052601160045260246000fd5b60006132ec82612734565b91506132f783612734565b925082820261330581612734565b9150828204841483151761331c5761331b6132b2565b5b5092915050565b600061332e82612734565b915061333983612734565b9250828201905080821115613351576133506132b2565b5b92915050565b600061336282612734565b915061336d83612734565b9250828203905081811115613385576133846132b2565b5b92915050565b600061339682612734565b91507fffffffffffffffffffffffffffffffffffffffffffffffffffffffffffffffff82036133c8576133c76132b2565b5b600182019050919050565b6000819050919050565b6133ee6133e982612734565b6133d3565b82525050565b60008160601b9050919050565b600061340c826133f4565b9050919050565b600061341e82613401565b9050919050565b613436613431826126f6565b613413565b82525050565b600061344882866133dd565b6020820191506134588285613425565b60148201915061346882846133dd565b602082019150819050949350505050565b7f4e487b7100000000000000000000000000000000000000000000000000000000600052601260045260246000fd5b60006134b382612734565b91506134be83612734565b9250826134ce576134cd613479565b5b828206905092915050565b60006134e482612734565b91506134ef83612734565b9250826134ff576134fe613479565b5b828204905092915050565b7f507572636861736520616d6f756e74206d75737420626520677265617465722060008201527f7468616e20300000000000000000000000000000000000000000000000000000602082015250565b60006135666026836128c3565b91506135718261350a565b604082019050919050565b6000602082019050818103600083015261359581613559565b9050919050565b7f496e76616c69642070726f647563742049440000000000000000000000000000600082015250565b60006135d26012836128c3565b91506135dd8261359c565b602082019050919050565b60006020820190508181036000830152613601816135c5565b9050919050565b7f4e6f7420656e6f7567682073746f636b20617661696c61626c65000000000000600082015250565b600061363e601a836128c3565b915061364982613608565b602082019050919050565b6000602082019050818103600083015261366d81613631565b9050919050565b600081905092915050565b600061368a826128b8565b6136948185613674565b93506136a48185602086016128d4565b80840191505092915050565b60006136bc828461367f565b915081905092915050565b7f496e73756666696369656e742066756e64732073656e74000000000000000000600082015250565b60006136fd6017836128c3565b9150613708826136c7565b602082019050919050565b6000602082019050818103600083015261372c816136f0565b9050919050565b600081905092915050565b60008190508160005260206000209050919050565b6000815461376081612fd4565b61376a8186613733565b94506001821660008114613785576001811461379a576137cd565b60ff19831686528115158202860193506137cd565b6137a38561373e565b60005b838110156137c5578154818901526001820191506020810190506137a6565b838801955050505b50505092915050565b60006137e28284613753565b91508190509291505056fea26469706673582212204902356758203346858da88e35d97de387f9af153db6ab3a23306c39d4864e5a64736f6c63430008120033",
					"opcodes": "PUSH1 0x80 PUSH1 0x40 MSTORE CALLVALUE DUP1 ISZERO PUSH2 0x10 JUMPI PUSH1 0x0 DUP1 REVERT JUMPDEST POP CALLER PUSH1 0x1 PUSH1 0x0 PUSH2 0x100 EXP DUP2 SLOAD DUP2 PUSH20 0xFFFFFFFFFFFFFFFFFFFFFFFFFFFFFFFFFFFFFFFF MUL NOT AND SWAP1 DUP4 PUSH20 0xFFFFFFFFFFFFFFFFFFFFFFFFFFFFFFFFFFFFFFFF AND MUL OR SWAP1 SSTORE POP PUSH2 0x3823 DUP1 PUSH2 0x61 PUSH1 0x0 CODECOPY PUSH1 0x0 RETURN INVALID PUSH1 0x80 PUSH1 0x40 MSTORE PUSH1 0x4 CALLDATASIZE LT PUSH2 0x109 JUMPI PUSH1 0x0 CALLDATALOAD PUSH1 0xE0 SHR DUP1 PUSH4 0x861C2B6D GT PUSH2 0x95 JUMPI DUP1 PUSH4 0xA87430BA GT PUSH2 0x64 JUMPI DUP1 PUSH4 0xA87430BA EQ PUSH2 0x334 JUMPI DUP1 PUSH4 0xD18A524A EQ PUSH2 0x372 JUMPI DUP1 PUSH4 0xD55768DD EQ PUSH2 0x389 JUMPI DUP1 PUSH4 0xF67A2AD1 EQ PUSH2 0x3C6 JUMPI DUP1 PUSH4 0xFECD8F79 EQ PUSH2 0x3EF JUMPI PUSH2 0x109 JUMP JUMPDEST DUP1 PUSH4 0x861C2B6D EQ PUSH2 0x29B JUMPI DUP1 PUSH4 0x8DA5CB5B EQ PUSH2 0x2C4 JUMPI DUP1 PUSH4 0x9F1CD587 EQ PUSH2 0x2EF JUMPI DUP1 PUSH4 0xA1BA90B6 EQ PUSH2 0x30B JUMPI PUSH2 0x109 JUMP JUMPDEST DUP1 PUSH4 0x50B44712 GT PUSH2 0xDC JUMPI DUP1 PUSH4 0x50B44712 EQ PUSH2 0x1B7 JUMPI DUP1 PUSH4 0x55DEA0B3 EQ PUSH2 0x1F5 JUMPI DUP1 PUSH4 0x66D0DC67 EQ PUSH2 0x21E JUMPI DUP1 PUSH4 0x6F764708 EQ PUSH2 0x235 JUMPI DUP1 PUSH4 0x805553E8 EQ PUSH2 0x25E JUMPI PUSH2 0x109 JUMP JUMPDEST DUP1 PUSH4 0x3194133 EQ PUSH2 0x10E JUMPI DUP1 PUSH4 0x3D527883 EQ PUSH2 0x137 JUMPI DUP1 PUSH4 0x3DFE7DEE EQ PUSH2 0x177 JUMPI DUP1 PUSH4 0x410085DF EQ PUSH2 0x18E JUMPI JUMPDEST PUSH1 0x0 DUP1 REVERT JUMPDEST CALLVALUE DUP1 ISZERO PUSH2 0x11A JUMPI PUSH1 0x0 DUP1 REVERT JUMPDEST POP PUSH2 0x135 PUSH1 0x4 DUP1 CALLDATASIZE SUB DUP2 ADD SWAP1 PUSH2 0x130 SWAP2 SWAP1 PUSH2 0x27CF JUMP JUMPDEST PUSH2 0x40B JUMP JUMPDEST STOP JUMPDEST CALLVALUE DUP1 ISZERO PUSH2 0x143 JUMPI PUSH1 0x0 DUP1 REVERT JUMPDEST POP PUSH2 0x15E PUSH1 0x4 DUP1 CALLDATASIZE SUB DUP2 ADD SWAP1 PUSH2 0x159 SWAP2 SWAP1 PUSH2 0x2869 JUMP JUMPDEST PUSH2 0x644 JUMP JUMPDEST PUSH1 0x40 MLOAD PUSH2 0x16E SWAP5 SWAP4 SWAP3 SWAP2 SWAP1 PUSH2 0x2948 JUMP JUMPDEST PUSH1 0x40 MLOAD DUP1 SWAP2 SUB SWAP1 RETURN JUMPDEST CALLVALUE DUP1 ISZERO PUSH2 0x183 JUMPI PUSH1 0x0 DUP1 REVERT JUMPDEST POP PUSH2 0x18C PUSH2 0x719 JUMP JUMPDEST STOP JUMPDEST CALLVALUE DUP1 ISZERO PUSH2 0x19A JUMPI PUSH1 0x0 DUP1 REVERT JUMPDEST POP PUSH2 0x1B5 PUSH1 0x4 DUP1 CALLDATASIZE SUB DUP2 ADD SWAP1 PUSH2 0x1B0 SWAP2 SWAP1 PUSH2 0x2869 JUMP JUMPDEST PUSH2 0x7BF JUMP JUMPDEST STOP JUMPDEST CALLVALUE DUP1 ISZERO PUSH2 0x1C3 JUMPI PUSH1 0x0 DUP1 REVERT JUMPDEST POP PUSH2 0x1DE PUSH1 0x4 DUP1 CALLDATASIZE SUB DUP2 ADD SWAP1 PUSH2 0x1D9 SWAP2 SWAP1 PUSH2 0x2994 JUMP JUMPDEST PUSH2 0xB8C JUMP JUMPDEST PUSH1 0x40 MLOAD PUSH2 0x1EC SWAP3 SWAP2 SWAP1 PUSH2 0x2A47 JUMP JUMPDEST PUSH1 0x40 MLOAD DUP1 SWAP2 SUB SWAP1 RETURN JUMPDEST CALLVALUE DUP1 ISZERO PUSH2 0x201 JUMPI PUSH1 0x0 DUP1 REVERT JUMPDEST POP PUSH2 0x21C PUSH1 0x4 DUP1 CALLDATASIZE SUB DUP2 ADD SWAP1 PUSH2 0x217 SWAP2 SWAP1 PUSH2 0x2A95 JUMP JUMPDEST PUSH2 0xBE9 JUMP JUMPDEST STOP JUMPDEST CALLVALUE DUP1 ISZERO PUSH2 0x22A JUMPI PUSH1 0x0 DUP1 REVERT JUMPDEST POP PUSH2 0x233 PUSH2 0xCC9 JUMP JUMPDEST STOP JUMPDEST CALLVALUE DUP1 ISZERO PUSH2 0x241 JUMPI PUSH1 0x0 DUP1 REVERT JUMPDEST POP PUSH2 0x25C PUSH1 0x4 DUP1 CALLDATASIZE SUB DUP2 ADD SWAP1 PUSH2 0x257 SWAP2 SWAP1 PUSH2 0x2994 JUMP JUMPDEST PUSH2 0xD70 JUMP JUMPDEST STOP JUMPDEST CALLVALUE DUP1 ISZERO PUSH2 0x26A JUMPI PUSH1 0x0 DUP1 REVERT JUMPDEST POP PUSH2 0x285 PUSH1 0x4 DUP1 CALLDATASIZE SUB DUP2 ADD SWAP1 PUSH2 0x280 SWAP2 SWAP1 PUSH2 0x2994 JUMP JUMPDEST PUSH2 0xEB0 JUMP JUMPDEST PUSH1 0x40 MLOAD PUSH2 0x292 SWAP2 SWAP1 PUSH2 0x2AC2 JUMP JUMPDEST PUSH1 0x40 MLOAD DUP1 SWAP2 SUB SWAP1 RETURN JUMPDEST CALLVALUE DUP1 ISZERO PUSH2 0x2A7 JUMPI PUSH1 0x0 DUP1 REVERT JUMPDEST POP PUSH2 0x2C2 PUSH1 0x4 DUP1 CALLDATASIZE SUB DUP2 ADD SWAP1 PUSH2 0x2BD SWAP2 SWAP1 PUSH2 0x2ADD JUMP JUMPDEST PUSH2 0xF02 JUMP JUMPDEST STOP JUMPDEST CALLVALUE DUP1 ISZERO PUSH2 0x2D0 JUMPI PUSH1 0x0 DUP1 REVERT JUMPDEST POP PUSH2 0x2D9 PUSH2 0x1147 JUMP JUMPDEST PUSH1 0x40 MLOAD PUSH2 0x2E6 SWAP2 SWAP1 PUSH2 0x2B77 JUMP JUMPDEST PUSH1 0x40 MLOAD DUP1 SWAP2 SUB SWAP1 RETURN JUMPDEST PUSH2 0x309 PUSH1 0x4 DUP1 CALLDATASIZE SUB DUP2 ADD SWAP1 PUSH2 0x304 SWAP2 SWAP1 PUSH2 0x2CC2 JUMP JUMPDEST PUSH2 0x116D JUMP JUMPDEST STOP JUMPDEST CALLVALUE DUP1 ISZERO PUSH2 0x317 JUMPI PUSH1 0x0 DUP1 REVERT JUMPDEST POP PUSH2 0x332 PUSH1 0x4 DUP1 CALLDATASIZE SUB DUP2 ADD SWAP1 PUSH2 0x32D SWAP2 SWAP1 PUSH2 0x2D45 JUMP JUMPDEST PUSH2 0x1ACE JUMP JUMPDEST STOP JUMPDEST CALLVALUE DUP1 ISZERO PUSH2 0x340 JUMPI PUSH1 0x0 DUP1 REVERT JUMPDEST POP PUSH2 0x35B PUSH1 0x4 DUP1 CALLDATASIZE SUB DUP2 ADD SWAP1 PUSH2 0x356 SWAP2 SWAP1 PUSH2 0x2DA1 JUMP JUMPDEST PUSH2 0x1B67 JUMP JUMPDEST PUSH1 0x40 MLOAD PUSH2 0x369 SWAP3 SWAP2 SWAP1 PUSH2 0x2DCE JUMP JUMPDEST PUSH1 0x40 MLOAD DUP1 SWAP2 SUB SWAP1 RETURN JUMPDEST CALLVALUE DUP1 ISZERO PUSH2 0x37E JUMPI PUSH1 0x0 DUP1 REVERT JUMPDEST POP PUSH2 0x387 PUSH2 0x1B98 JUMP JUMPDEST STOP JUMPDEST CALLVALUE DUP1 ISZERO PUSH2 0x395 JUMPI PUSH1 0x0 DUP1 REVERT JUMPDEST POP PUSH2 0x3B0 PUSH1 0x4 DUP1 CALLDATASIZE SUB DUP2 ADD SWAP1 PUSH2 0x3AB SWAP2 SWAP1 PUSH2 0x2DF7 JUMP JUMPDEST PUSH2 0x1C3F JUMP JUMPDEST PUSH1 0x40 MLOAD PUSH2 0x3BD SWAP2 SWAP1 PUSH2 0x2B77 JUMP JUMPDEST PUSH1 0x40 MLOAD DUP1 SWAP2 SUB SWAP1 RETURN JUMPDEST CALLVALUE DUP1 ISZERO PUSH2 0x3D2 JUMPI PUSH1 0x0 DUP1 REVERT JUMPDEST POP PUSH2 0x3ED PUSH1 0x4 DUP1 CALLDATASIZE SUB DUP2 ADD SWAP1 PUSH2 0x3E8 SWAP2 SWAP1 PUSH2 0x2DA1 JUMP JUMPDEST PUSH2 0x1C88 JUMP JUMPDEST STOP JUMPDEST PUSH2 0x409 PUSH1 0x4 DUP1 CALLDATASIZE SUB DUP2 ADD SWAP1 PUSH2 0x404 SWAP2 SWAP1 PUSH2 0x2E40 JUMP JUMPDEST PUSH2 0x1D1A JUMP JUMPDEST STOP JUMPDEST PUSH1 0x1 DUP7 DUP2 PUSH1 0x2 DUP2 GT ISZERO PUSH2 0x421 JUMPI PUSH2 0x420 PUSH2 0x29D0 JUMP JUMPDEST JUMPDEST PUSH1 0x2 PUSH1 0x0 CALLER PUSH20 0xFFFFFFFFFFFFFFFFFFFFFFFFFFFFFFFFFFFFFFFF AND PUSH20 0xFFFFFFFFFFFFFFFFFFFFFFFFFFFFFFFFFFFFFFFF AND DUP2 MSTORE PUSH1 0x20 ADD SWAP1 DUP2 MSTORE PUSH1 0x20 ADD PUSH1 0x0 KECCAK256 PUSH1 0x0 ADD PUSH1 0x0 SWAP1 SLOAD SWAP1 PUSH2 0x100 EXP SWAP1 DIV PUSH1 0xFF AND PUSH1 0x2 DUP2 GT ISZERO PUSH2 0x483 JUMPI PUSH2 0x482 PUSH2 0x29D0 JUMP JUMPDEST JUMPDEST EQ PUSH2 0x4C3 JUMPI PUSH1 0x40 MLOAD PUSH32 0x8C379A000000000000000000000000000000000000000000000000000000000 DUP2 MSTORE PUSH1 0x4 ADD PUSH2 0x4BA SWAP1 PUSH2 0x2ECD JUMP JUMPDEST PUSH1 0x40 MLOAD DUP1 SWAP2 SUB SWAP1 REVERT JUMPDEST DUP1 PUSH20 0xFFFFFFFFFFFFFFFFFFFFFFFFFFFFFFFFFFFFFFFF AND CALLER PUSH20 0xFFFFFFFFFFFFFFFFFFFFFFFFFFFFFFFFFFFFFFFF AND EQ PUSH2 0x531 JUMPI PUSH1 0x40 MLOAD PUSH32 0x8C379A000000000000000000000000000000000000000000000000000000000 DUP2 MSTORE PUSH1 0x4 ADD PUSH2 0x528 SWAP1 PUSH2 0x2F85 JUMP JUMPDEST PUSH1 0x40 MLOAD DUP1 SWAP2 SUB SWAP1 REVERT JUMPDEST PUSH1 0x0 PUSH1 0x40 MLOAD DUP1 PUSH1 0x80 ADD PUSH1 0x40 MSTORE DUP1 DUP10 DUP2 MSTORE PUSH1 0x20 ADD DUP9 DUP2 MSTORE PUSH1 0x20 ADD DUP8 DUP8 DUP1 DUP1 PUSH1 0x1F ADD PUSH1 0x20 DUP1 SWAP2 DIV MUL PUSH1 0x20 ADD PUSH1 0x40 MLOAD SWAP1 DUP2 ADD PUSH1 0x40 MSTORE DUP1 SWAP4 SWAP3 SWAP2 SWAP1 DUP2 DUP2 MSTORE PUSH1 0x20 ADD DUP4 DUP4 DUP1 DUP3 DUP5 CALLDATACOPY PUSH1 0x0 DUP2 DUP5 ADD MSTORE PUSH1 0x1F NOT PUSH1 0x1F DUP3 ADD AND SWAP1 POP DUP1 DUP4 ADD SWAP3 POP POP POP POP POP POP POP DUP2 MSTORE PUSH1 0x20 ADD DUP6 DUP2 MSTORE POP SWAP1 POP PUSH1 0x3 PUSH1 0x0 DUP11 PUSH20 0xFFFFFFFFFFFFFFFFFFFFFFFFFFFFFFFFFFFFFFFF AND PUSH20 0xFFFFFFFFFFFFFFFFFFFFFFFFFFFFFFFFFFFFFFFF AND DUP2 MSTORE PUSH1 0x20 ADD SWAP1 DUP2 MSTORE PUSH1 0x20 ADD PUSH1 0x0 KECCAK256 DUP2 SWAP1 DUP1 PUSH1 0x1 DUP2 SLOAD ADD DUP1 DUP3 SSTORE DUP1 SWAP2 POP POP PUSH1 0x1 SWAP1 SUB SWAP1 PUSH1 0x0 MSTORE PUSH1 0x20 PUSH1 0x0 KECCAK256 SWAP1 PUSH1 0x4 MUL ADD PUSH1 0x0 SWAP1 SWAP2 SWAP1 SWAP2 SWAP1 SWAP2 POP PUSH1 0x0 DUP3 ADD MLOAD DUP2 PUSH1 0x0 ADD SSTORE PUSH1 0x20 DUP3 ADD MLOAD DUP2 PUSH1 0x1 ADD SSTORE PUSH1 0x40 DUP3 ADD MLOAD DUP2 PUSH1 0x2 ADD SWAP1 DUP2 PUSH2 0x62C SWAP2 SWAP1 PUSH2 0x31B1 JUMP JUMPDEST POP PUSH1 0x60 DUP3 ADD MLOAD DUP2 PUSH1 0x3 ADD SSTORE POP POP POP POP POP POP POP POP POP POP POP JUMP JUMPDEST PUSH1 0x3 PUSH1 0x20 MSTORE DUP2 PUSH1 0x0 MSTORE PUSH1 0x40 PUSH1 0x0 KECCAK256 DUP2 DUP2 SLOAD DUP2 LT PUSH2 0x660 JUMPI PUSH1 0x0 DUP1 REVERT JUMPDEST SWAP1 PUSH1 0x0 MSTORE PUSH1 0x20 PUSH1 0x0 KECCAK256 SWAP1 PUSH1 0x4 MUL ADD PUSH1 0x0 SWAP2 POP SWAP2 POP POP DUP1 PUSH1 0x0 ADD SLOAD SWAP1 DUP1 PUSH1 0x1 ADD SLOAD SWAP1 DUP1 PUSH1 0x2 ADD DUP1 SLOAD PUSH2 0x690 SWAP1 PUSH2 0x2FD4 JUMP JUMPDEST DUP1 PUSH1 0x1F ADD PUSH1 0x20 DUP1 SWAP2 DIV MUL PUSH1 0x20 ADD PUSH1 0x40 MLOAD SWAP1 DUP2 ADD PUSH1 0x40 MSTORE DUP1 SWAP3 SWAP2 SWAP1 DUP2 DUP2 MSTORE PUSH1 0x20 ADD DUP3 DUP1 SLOAD PUSH2 0x6BC SWAP1 PUSH2 0x2FD4 JUMP JUMPDEST DUP1 ISZERO PUSH2 0x709 JUMPI DUP1 PUSH1 0x1F LT PUSH2 0x6DE JUMPI PUSH2 0x100 DUP1 DUP4 SLOAD DIV MUL DUP4 MSTORE SWAP2 PUSH1 0x20 ADD SWAP2 PUSH2 0x709 JUMP JUMPDEST DUP3 ADD SWAP2 SWAP1 PUSH1 0x0 MSTORE PUSH1 0x20 PUSH1 0x0 KECCAK256 SWAP1 JUMPDEST DUP2 SLOAD DUP2 MSTORE SWAP1 PUSH1 0x1 ADD SWAP1 PUSH1 0x20 ADD DUP1 DUP4 GT PUSH2 0x6EC JUMPI DUP3 SWAP1 SUB PUSH1 0x1F AND DUP3 ADD SWAP2 JUMPDEST POP POP POP POP POP SWAP1 DUP1 PUSH1 0x3 ADD SLOAD SWAP1 POP DUP5 JUMP JUMPDEST PUSH1 0x40 MLOAD DUP1 PUSH1 0x40 ADD PUSH1 0x40 MSTORE DUP1 PUSH1 0x2 DUP1 DUP2 GT ISZERO PUSH2 0x737 JUMPI PUSH2 0x736 PUSH2 0x29D0 JUMP JUMPDEST JUMPDEST DUP2 MSTORE PUSH1 0x20 ADD PUSH1 0x0 DUP2 MSTORE POP PUSH1 0x2 PUSH1 0x0 CALLER PUSH20 0xFFFFFFFFFFFFFFFFFFFFFFFFFFFFFFFFFFFFFFFF AND PUSH20 0xFFFFFFFFFFFFFFFFFFFFFFFFFFFFFFFFFFFFFFFF AND DUP2 MSTORE PUSH1 0x20 ADD SWAP1 DUP2 MSTORE PUSH1 0x20 ADD PUSH1 0x0 KECCAK256 PUSH1 0x0 DUP3 ADD MLOAD DUP2 PUSH1 0x0 ADD PUSH1 0x0 PUSH2 0x100 EXP DUP2 SLOAD DUP2 PUSH1 0xFF MUL NOT AND SWAP1 DUP4 PUSH1 0x2 DUP2 GT ISZERO PUSH2 0x7AB JUMPI PUSH2 0x7AA PUSH2 0x29D0 JUMP JUMPDEST JUMPDEST MUL OR SWAP1 SSTORE POP PUSH1 0x20 DUP3 ADD MLOAD DUP2 PUSH1 0x1 ADD SSTORE SWAP1 POP POP JUMP JUMPDEST PUSH1 0x0 PUSH1 0x3 PUSH1 0x0 CALLER PUSH20 0xFFFFFFFFFFFFFFFFFFFFFFFFFFFFFFFFFFFFFFFF AND PUSH20 0xFFFFFFFFFFFFFFFFFFFFFFFFFFFFFFFFFFFFFFFF AND DUP2 MSTORE PUSH1 0x20 ADD SWAP1 DUP2 MSTORE PUSH1 0x20 ADD PUSH1 0x0 KECCAK256 DUP3 DUP2 SLOAD DUP2 LT PUSH2 0x812 JUMPI PUSH2 0x811 PUSH2 0x3283 JUMP JUMPDEST JUMPDEST SWAP1 PUSH1 0x0 MSTORE PUSH1 0x20 PUSH1 0x0 KECCAK256 SWAP1 PUSH1 0x4 MUL ADD PUSH1 0x3 ADD SLOAD SWAP1 POP PUSH1 0x0 PUSH1 0x3 PUSH1 0x0 DUP6 PUSH20 0xFFFFFFFFFFFFFFFFFFFFFFFFFFFFFFFFFFFFFFFF AND PUSH20 0xFFFFFFFFFFFFFFFFFFFFFFFFFFFFFFFFFFFFFFFF AND DUP2 MSTORE PUSH1 0x20 ADD SWAP1 DUP2 MSTORE PUSH1 0x20 ADD PUSH1 0x0 KECCAK256 DUP4 DUP2 SLOAD DUP2 LT PUSH2 0x879 JUMPI PUSH2 0x878 PUSH2 0x3283 JUMP JUMPDEST JUMPDEST SWAP1 PUSH1 0x0 MSTORE PUSH1 0x20 PUSH1 0x0 KECCAK256 SWAP1 PUSH1 0x4 MUL ADD PUSH1 0x3 ADD SLOAD SWAP1 POP DUP1 DUP3 GT PUSH2 0x899 JUMPI PUSH1 0x0 DUP1 REVERT JUMPDEST PUSH1 0x0 PUSH8 0xDE0B6B3A7640000 PUSH1 0x3 PUSH1 0x0 DUP8 PUSH20 0xFFFFFFFFFFFFFFFFFFFFFFFFFFFFFFFFFFFFFFFF AND PUSH20 0xFFFFFFFFFFFFFFFFFFFFFFFFFFFFFFFFFFFFFFFF AND DUP2 MSTORE PUSH1 0x20 ADD SWAP1 DUP2 MSTORE PUSH1 0x20 ADD PUSH1 0x0 KECCAK256 DUP6 DUP2 SLOAD DUP2 LT PUSH2 0x8F5 JUMPI PUSH2 0x8F4 PUSH2 0x3283 JUMP JUMPDEST JUMPDEST SWAP1 PUSH1 0x0 MSTORE PUSH1 0x20 PUSH1 0x0 KECCAK256 SWAP1 PUSH1 0x4 MUL ADD PUSH1 0x1 ADD SLOAD PUSH1 0x3 PUSH1 0x0 CALLER PUSH20 0xFFFFFFFFFFFFFFFFFFFFFFFFFFFFFFFFFFFFFFFF AND PUSH20 0xFFFFFFFFFFFFFFFFFFFFFFFFFFFFFFFFFFFFFFFF AND DUP2 MSTORE PUSH1 0x20 ADD SWAP1 DUP2 MSTORE PUSH1 0x20 ADD PUSH1 0x0 KECCAK256 DUP7 DUP2 SLOAD DUP2 LT PUSH2 0x958 JUMPI PUSH2 0x957 PUSH2 0x3283 JUMP JUMPDEST JUMPDEST SWAP1 PUSH1 0x0 MSTORE PUSH1 0x20 PUSH1 0x0 KECCAK256 SWAP1 PUSH1 0x4 MUL ADD PUSH1 0x0 ADD SLOAD PUSH2 0x974 SWAP2 SWAP1 PUSH2 0x32E1 JUMP JUMPDEST PUSH2 0x97E SWAP2 SWAP1 PUSH2 0x32E1 JUMP JUMPDEST SWAP1 POP PUSH1 0x3 PUSH1 0x0 CALLER PUSH20 0xFFFFFFFFFFFFFFFFFFFFFFFFFFFFFFFFFFFFFFFF AND PUSH20 0xFFFFFFFFFFFFFFFFFFFFFFFFFFFFFFFFFFFFFFFF AND DUP2 MSTORE PUSH1 0x20 ADD SWAP1 DUP2 MSTORE PUSH1 0x20 ADD PUSH1 0x0 KECCAK256 DUP5 DUP2 SLOAD DUP2 LT PUSH2 0x9D1 JUMPI PUSH2 0x9D0 PUSH2 0x3283 JUMP JUMPDEST JUMPDEST SWAP1 PUSH1 0x0 MSTORE PUSH1 0x20 PUSH1 0x0 KECCAK256 SWAP1 PUSH1 0x4 MUL ADD PUSH1 0x0 ADD SLOAD PUSH1 0x3 PUSH1 0x0 DUP8 PUSH20 0xFFFFFFFFFFFFFFFFFFFFFFFFFFFFFFFFFFFFFFFF AND PUSH20 0xFFFFFFFFFFFFFFFFFFFFFFFFFFFFFFFFFFFFFFFF AND DUP2 MSTORE PUSH1 0x20 ADD SWAP1 DUP2 MSTORE PUSH1 0x20 ADD PUSH1 0x0 KECCAK256 DUP6 DUP2 SLOAD DUP2 LT PUSH2 0xA34 JUMPI PUSH2 0xA33 PUSH2 0x3283 JUMP JUMPDEST JUMPDEST SWAP1 PUSH1 0x0 MSTORE PUSH1 0x20 PUSH1 0x0 KECCAK256 SWAP1 PUSH1 0x4 MUL ADD PUSH1 0x0 ADD PUSH1 0x0 DUP3 DUP3 SLOAD PUSH2 0xA54 SWAP2 SWAP1 PUSH2 0x3323 JUMP JUMPDEST SWAP3 POP POP DUP2 SWAP1 SSTORE POP PUSH1 0x3 PUSH1 0x0 CALLER PUSH20 0xFFFFFFFFFFFFFFFFFFFFFFFFFFFFFFFFFFFFFFFF AND PUSH20 0xFFFFFFFFFFFFFFFFFFFFFFFFFFFFFFFFFFFFFFFF AND DUP2 MSTORE PUSH1 0x20 ADD SWAP1 DUP2 MSTORE PUSH1 0x20 ADD PUSH1 0x0 KECCAK256 DUP5 DUP2 SLOAD DUP2 LT PUSH2 0xAAC JUMPI PUSH2 0xAAB PUSH2 0x3283 JUMP JUMPDEST JUMPDEST SWAP1 PUSH1 0x0 MSTORE PUSH1 0x20 PUSH1 0x0 KECCAK256 SWAP1 PUSH1 0x4 MUL ADD PUSH1 0x0 DUP1 DUP3 ADD PUSH1 0x0 SWAP1 SSTORE PUSH1 0x1 DUP3 ADD PUSH1 0x0 SWAP1 SSTORE PUSH1 0x2 DUP3 ADD PUSH1 0x0 PUSH2 0xADB SWAP2 SWAP1 PUSH2 0x2665 JUMP JUMPDEST PUSH1 0x3 DUP3 ADD PUSH1 0x0 SWAP1 SSTORE POP POP DUP1 PUSH1 0x2 PUSH1 0x0 DUP8 PUSH20 0xFFFFFFFFFFFFFFFFFFFFFFFFFFFFFFFFFFFFFFFF AND PUSH20 0xFFFFFFFFFFFFFFFFFFFFFFFFFFFFFFFFFFFFFFFF AND DUP2 MSTORE PUSH1 0x20 ADD SWAP1 DUP2 MSTORE PUSH1 0x20 ADD PUSH1 0x0 KECCAK256 PUSH1 0x1 ADD PUSH1 0x0 DUP3 DUP3 SLOAD PUSH2 0xB37 SWAP2 SWAP1 PUSH2 0x3357 JUMP JUMPDEST SWAP3 POP POP DUP2 SWAP1 SSTORE POP CALLER PUSH20 0xFFFFFFFFFFFFFFFFFFFFFFFFFFFFFFFFFFFFFFFF AND PUSH2 0x8FC DUP3 SWAP1 DUP2 ISZERO MUL SWAP1 PUSH1 0x40 MLOAD PUSH1 0x0 PUSH1 0x40 MLOAD DUP1 DUP4 SUB DUP2 DUP6 DUP9 DUP9 CALL SWAP4 POP POP POP POP ISZERO DUP1 ISZERO PUSH2 0xB84 JUMPI RETURNDATASIZE PUSH1 0x0 DUP1 RETURNDATACOPY RETURNDATASIZE PUSH1 0x0 REVERT JUMPDEST POP POP POP POP POP POP JUMP JUMPDEST PUSH1 0x0 DUP2 DUP2 SLOAD DUP2 LT PUSH2 0xB9C JUMPI PUSH1 0x0 DUP1 REVERT JUMPDEST SWAP1 PUSH1 0x0 MSTORE PUSH1 0x20 PUSH1 0x0 KECCAK256 ADD PUSH1 0x0 SWAP2 POP SWAP1 POP DUP1 PUSH1 0x0 ADD PUSH1 0x0 SWAP1 SLOAD SWAP1 PUSH2 0x100 EXP SWAP1 DIV PUSH20 0xFFFFFFFFFFFFFFFFFFFFFFFFFFFFFFFFFFFFFFFF AND SWAP1 DUP1 PUSH1 0x0 ADD PUSH1 0x14 SWAP1 SLOAD SWAP1 PUSH2 0x100 EXP SWAP1 DIV PUSH1 0xFF AND SWAP1 POP DUP3 JUMP JUMPDEST PUSH1 0x0 PUSH1 0x40 MLOAD DUP1 PUSH1 0x40 ADD PUSH1 0x40 MSTORE DUP1 CALLER PUSH20 0xFFFFFFFFFFFFFFFFFFFFFFFFFFFFFFFFFFFFFFFF AND DUP2 MSTORE PUSH1 0x20 ADD DUP4 PUSH1 0x2 DUP2 GT ISZERO PUSH2 0xC25 JUMPI PUSH2 0xC24 PUSH2 0x29D0 JUMP JUMPDEST JUMPDEST DUP2 MSTORE POP SWAP1 DUP1 PUSH1 0x1 DUP2 SLOAD ADD DUP1 DUP3 SSTORE DUP1 SWAP2 POP POP PUSH1 0x1 SWAP1 SUB SWAP1 PUSH1 0x0 MSTORE PUSH1 0x20 PUSH1 0x0 KECCAK256 ADD PUSH1 0x0 SWAP1 SWAP2 SWAP1 SWAP2 SWAP1 SWAP2 POP PUSH1 0x0 DUP3 ADD MLOAD DUP2 PUSH1 0x0 ADD PUSH1 0x0 PUSH2 0x100 EXP DUP2 SLOAD DUP2 PUSH20 0xFFFFFFFFFFFFFFFFFFFFFFFFFFFFFFFFFFFFFFFF MUL NOT AND SWAP1 DUP4 PUSH20 0xFFFFFFFFFFFFFFFFFFFFFFFFFFFFFFFFFFFFFFFF AND MUL OR SWAP1 SSTORE POP PUSH1 0x20 DUP3 ADD MLOAD DUP2 PUSH1 0x0 ADD PUSH1 0x14 PUSH2 0x100 EXP DUP2 SLOAD DUP2 PUSH1 0xFF MUL NOT AND SWAP1 DUP4 PUSH1 0x2 DUP2 GT ISZERO PUSH2 0xCBF JUMPI PUSH2 0xCBE PUSH2 0x29D0 JUMP JUMPDEST JUMPDEST MUL OR SWAP1 SSTORE POP POP POP POP JUMP JUMPDEST PUSH1 0x40 MLOAD DUP1 PUSH1 0x40 ADD PUSH1 0x40 MSTORE DUP1 PUSH1 0x1 PUSH1 0x2 DUP2 GT ISZERO PUSH2 0xCE8 JUMPI PUSH2 0xCE7 PUSH2 0x29D0 JUMP JUMPDEST JUMPDEST DUP2 MSTORE PUSH1 0x20 ADD PUSH1 0x0 DUP2 MSTORE POP PUSH1 0x2 PUSH1 0x0 CALLER PUSH20 0xFFFFFFFFFFFFFFFFFFFFFFFFFFFFFFFFFFFFFFFF AND PUSH20 0xFFFFFFFFFFFFFFFFFFFFFFFFFFFFFFFFFFFFFFFF AND DUP2 MSTORE PUSH1 0x20 ADD SWAP1 DUP2 MSTORE PUSH1 0x20 ADD PUSH1 0x0 KECCAK256 PUSH1 0x0 DUP3 ADD MLOAD DUP2 PUSH1 0x0 ADD PUSH1 0x0 PUSH2 0x100 EXP DUP2 SLOAD DUP2 PUSH1 0xFF MUL NOT AND SWAP1 DUP4 PUSH1 0x2 DUP2 GT ISZERO PUSH2 0xD5C JUMPI PUSH2 0xD5B PUSH2 0x29D0 JUMP JUMPDEST JUMPDEST MUL OR SWAP1 SSTORE POP PUSH1 0x20 DUP3 ADD MLOAD DUP2 PUSH1 0x1 ADD SSTORE SWAP1 POP POP JUMP JUMPDEST PUSH1 0x1 PUSH1 0x0 SWAP1 SLOAD SWAP1 PUSH2 0x100 EXP SWAP1 DIV PUSH20 0xFFFFFFFFFFFFFFFFFFFFFFFFFFFFFFFFFFFFFFFF AND PUSH20 0xFFFFFFFFFFFFFFFFFFFFFFFFFFFFFFFFFFFFFFFF AND CALLER PUSH20 0xFFFFFFFFFFFFFFFFFFFFFFFFFFFFFFFFFFFFFFFF AND EQ PUSH2 0xDCA JUMPI PUSH1 0x0 DUP1 REVERT JUMPDEST PUSH1 0x0 DUP1 DUP3 DUP2 SLOAD DUP2 LT PUSH2 0xDDF JUMPI PUSH2 0xDDE PUSH2 0x3283 JUMP JUMPDEST JUMPDEST SWAP1 PUSH1 0x0 MSTORE PUSH1 0x20 PUSH1 0x0 KECCAK256 ADD PUSH1 0x0 ADD PUSH1 0x0 SWAP1 SLOAD SWAP1 PUSH2 0x100 EXP SWAP1 DIV PUSH20 0xFFFFFFFFFFFFFFFFFFFFFFFFFFFFFFFFFFFFFFFF AND SWAP1 POP PUSH1 0x0 DUP1 DUP4 DUP2 SLOAD DUP2 LT PUSH2 0xE24 JUMPI PUSH2 0xE23 PUSH2 0x3283 JUMP JUMPDEST JUMPDEST SWAP1 PUSH1 0x0 MSTORE PUSH1 0x20 PUSH1 0x0 KECCAK256 ADD PUSH1 0x0 ADD PUSH1 0x14 SWAP1 SLOAD SWAP1 PUSH2 0x100 EXP SWAP1 DIV PUSH1 0xFF AND SWAP1 POP DUP1 PUSH1 0x2 PUSH1 0x0 DUP5 PUSH20 0xFFFFFFFFFFFFFFFFFFFFFFFFFFFFFFFFFFFFFFFF AND PUSH20 0xFFFFFFFFFFFFFFFFFFFFFFFFFFFFFFFFFFFFFFFF AND DUP2 MSTORE PUSH1 0x20 ADD SWAP1 DUP2 MSTORE PUSH1 0x20 ADD PUSH1 0x0 KECCAK256 PUSH1 0x0 ADD PUSH1 0x0 PUSH2 0x100 EXP DUP2 SLOAD DUP2 PUSH1 0xFF MUL NOT AND SWAP1 DUP4 PUSH1 0x2 DUP2 GT ISZERO PUSH2 0xEA6 JUMPI PUSH2 0xEA5 PUSH2 0x29D0 JUMP JUMPDEST JUMPDEST MUL OR SWAP1 SSTORE POP POP POP POP JUMP JUMPDEST PUSH1 0x0 DUP1 DUP1 DUP1 PUSH2 0xEBE SWAP1 PUSH2 0x338B JUMP JUMPDEST SWAP2 POP POP DUP3 TIMESTAMP CALLER DUP4 PUSH1 0x40 MLOAD PUSH1 0x20 ADD PUSH2 0xED7 SWAP4 SWAP3 SWAP2 SWAP1 PUSH2 0x343C JUMP JUMPDEST PUSH1 0x40 MLOAD PUSH1 0x20 DUP2 DUP4 SUB SUB DUP2 MSTORE SWAP1 PUSH1 0x40 MSTORE DUP1 MLOAD SWAP1 PUSH1 0x20 ADD KECCAK256 PUSH1 0x0 SHR PUSH2 0xEFA SWAP2 SWAP1 PUSH2 0x34A8 JUMP JUMPDEST SWAP2 POP POP SWAP2 SWAP1 POP JUMP JUMPDEST PUSH1 0x2 DUP2 DUP2 PUSH1 0x2 DUP2 GT ISZERO PUSH2 0xF18 JUMPI PUSH2 0xF17 PUSH2 0x29D0 JUMP JUMPDEST JUMPDEST PUSH1 0x2 PUSH1 0x0 CALLER PUSH20 0xFFFFFFFFFFFFFFFFFFFFFFFFFFFFFFFFFFFFFFFF AND PUSH20 0xFFFFFFFFFFFFFFFFFFFFFFFFFFFFFFFFFFFFFFFF AND DUP2 MSTORE PUSH1 0x20 ADD SWAP1 DUP2 MSTORE PUSH1 0x20 ADD PUSH1 0x0 KECCAK256 PUSH1 0x0 ADD PUSH1 0x0 SWAP1 SLOAD SWAP1 PUSH2 0x100 EXP SWAP1 DIV PUSH1 0xFF AND PUSH1 0x2 DUP2 GT ISZERO PUSH2 0xF7A JUMPI PUSH2 0xF79 PUSH2 0x29D0 JUMP JUMPDEST JUMPDEST EQ PUSH2 0xFBA JUMPI PUSH1 0x40 MLOAD PUSH32 0x8C379A000000000000000000000000000000000000000000000000000000000 DUP2 MSTORE PUSH1 0x4 ADD PUSH2 0xFB1 SWAP1 PUSH2 0x2ECD JUMP JUMPDEST PUSH1 0x40 MLOAD DUP1 SWAP2 SUB SWAP1 REVERT JUMPDEST DUP1 PUSH20 0xFFFFFFFFFFFFFFFFFFFFFFFFFFFFFFFFFFFFFFFF AND CALLER PUSH20 0xFFFFFFFFFFFFFFFFFFFFFFFFFFFFFFFFFFFFFFFF AND EQ PUSH2 0x1028 JUMPI PUSH1 0x40 MLOAD PUSH32 0x8C379A000000000000000000000000000000000000000000000000000000000 DUP2 MSTORE PUSH1 0x4 ADD PUSH2 0x101F SWAP1 PUSH2 0x2F85 JUMP JUMPDEST PUSH1 0x40 MLOAD DUP1 SWAP2 SUB SWAP1 REVERT JUMPDEST PUSH1 0x0 PUSH1 0x40 MLOAD DUP1 PUSH1 0x80 ADD PUSH1 0x40 MSTORE DUP1 DUP11 DUP2 MSTORE PUSH1 0x20 ADD PUSH1 0x2 DUP11 PUSH2 0x1048 SWAP2 SWAP1 PUSH2 0x34D9 JUMP JUMPDEST DUP2 MSTORE PUSH1 0x20 ADD DUP9 DUP9 DUP1 DUP1 PUSH1 0x1F ADD PUSH1 0x20 DUP1 SWAP2 DIV MUL PUSH1 0x20 ADD PUSH1 0x40 MLOAD SWAP1 DUP2 ADD PUSH1 0x40 MSTORE DUP1 SWAP4 SWAP3 SWAP2 SWAP1 DUP2 DUP2 MSTORE PUSH1 0x20 ADD DUP4 DUP4 DUP1 DUP3 DUP5 CALLDATACOPY PUSH1 0x0 DUP2 DUP5 ADD MSTORE PUSH1 0x1F NOT PUSH1 0x1F DUP3 ADD AND SWAP1 POP DUP1 DUP4 ADD SWAP3 POP POP POP POP POP POP POP DUP2 MSTORE PUSH1 0x20 ADD DUP7 DUP2 MSTORE POP SWAP1 POP PUSH1 0x3 PUSH1 0x0 DUP6 PUSH20 0xFFFFFFFFFFFFFFFFFFFFFFFFFFFFFFFFFFFFFFFF AND PUSH20 0xFFFFFFFFFFFFFFFFFFFFFFFFFFFFFFFFFFFFFFFF AND DUP2 MSTORE PUSH1 0x20 ADD SWAP1 DUP2 MSTORE PUSH1 0x20 ADD PUSH1 0x0 KECCAK256 DUP2 SWAP1 DUP1 PUSH1 0x1 DUP2 SLOAD ADD DUP1 DUP3 SSTORE DUP1 SWAP2 POP POP PUSH1 0x1 SWAP1 SUB SWAP1 PUSH1 0x0 MSTORE PUSH1 0x20 PUSH1 0x0 KECCAK256 SWAP1 PUSH1 0x4 MUL ADD PUSH1 0x0 SWAP1 SWAP2 SWAP1 SWAP2 SWAP1 SWAP2 POP PUSH1 0x0 DUP3 ADD MLOAD DUP2 PUSH1 0x0 ADD SSTORE PUSH1 0x20 DUP3 ADD MLOAD DUP2 PUSH1 0x1 ADD SSTORE PUSH1 0x40 DUP3 ADD MLOAD DUP2 PUSH1 0x2 ADD SWAP1 DUP2 PUSH2 0x112F SWAP2 SWAP1 PUSH2 0x31B1 JUMP JUMPDEST POP PUSH1 0x60 DUP3 ADD MLOAD DUP2 PUSH1 0x3 ADD SSTORE POP POP POP POP POP POP POP POP POP POP POP JUMP JUMPDEST PUSH1 0x1 PUSH1 0x0 SWAP1 SLOAD SWAP1 PUSH2 0x100 EXP SWAP1 DIV PUSH20 0xFFFFFFFFFFFFFFFFFFFFFFFFFFFFFFFFFFFFFFFF AND DUP2 JUMP JUMPDEST PUSH1 0x0 PUSH1 0x2 DUP2 GT ISZERO PUSH2 0x1181 JUMPI PUSH2 0x1180 PUSH2 0x29D0 JUMP JUMPDEST JUMPDEST PUSH1 0x2 PUSH1 0x0 CALLER PUSH20 0xFFFFFFFFFFFFFFFFFFFFFFFFFFFFFFFFFFFFFFFF AND PUSH20 0xFFFFFFFFFFFFFFFFFFFFFFFFFFFFFFFFFFFFFFFF AND DUP2 MSTORE PUSH1 0x20 ADD SWAP1 DUP2 MSTORE PUSH1 0x20 ADD PUSH1 0x0 KECCAK256 PUSH1 0x0 ADD PUSH1 0x0 SWAP1 SLOAD SWAP1 PUSH2 0x100 EXP SWAP1 DIV PUSH1 0xFF AND PUSH1 0x2 DUP2 GT ISZERO PUSH2 0x11E3 JUMPI PUSH2 0x11E2 PUSH2 0x29D0 JUMP JUMPDEST JUMPDEST SUB PUSH2 0x128E JUMPI PUSH1 0x40 MLOAD DUP1 PUSH1 0x40 ADD PUSH1 0x40 MSTORE DUP1 PUSH1 0x0 PUSH1 0x2 DUP2 GT ISZERO PUSH2 0x1207 JUMPI PUSH2 0x1206 PUSH2 0x29D0 JUMP JUMPDEST JUMPDEST DUP2 MSTORE PUSH1 0x20 ADD PUSH1 0x0 DUP2 MSTORE POP PUSH1 0x2 PUSH1 0x0 CALLER PUSH20 0xFFFFFFFFFFFFFFFFFFFFFFFFFFFFFFFFFFFFFFFF AND PUSH20 0xFFFFFFFFFFFFFFFFFFFFFFFFFFFFFFFFFFFFFFFF AND DUP2 MSTORE PUSH1 0x20 ADD SWAP1 DUP2 MSTORE PUSH1 0x20 ADD PUSH1 0x0 KECCAK256 PUSH1 0x0 DUP3 ADD MLOAD DUP2 PUSH1 0x0 ADD PUSH1 0x0 PUSH2 0x100 EXP DUP2 SLOAD DUP2 PUSH1 0xFF MUL NOT AND SWAP1 DUP4 PUSH1 0x2 DUP2 GT ISZERO PUSH2 0x127B JUMPI PUSH2 0x127A PUSH2 0x29D0 JUMP JUMPDEST JUMPDEST MUL OR SWAP1 SSTORE POP PUSH1 0x20 DUP3 ADD MLOAD DUP2 PUSH1 0x1 ADD SSTORE SWAP1 POP POP JUMPDEST PUSH1 0x0 DUP4 GT PUSH2 0x12D1 JUMPI PUSH1 0x40 MLOAD PUSH32 0x8C379A000000000000000000000000000000000000000000000000000000000 DUP2 MSTORE PUSH1 0x4 ADD PUSH2 0x12C8 SWAP1 PUSH2 0x357C JUMP JUMPDEST PUSH1 0x40 MLOAD DUP1 SWAP2 SUB SWAP1 REVERT JUMPDEST PUSH1 0x3 PUSH1 0x0 DUP6 PUSH20 0xFFFFFFFFFFFFFFFFFFFFFFFFFFFFFFFFFFFFFFFF AND PUSH20 0xFFFFFFFFFFFFFFFFFFFFFFFFFFFFFFFFFFFFFFFF AND DUP2 MSTORE PUSH1 0x20 ADD SWAP1 DUP2 MSTORE PUSH1 0x20 ADD PUSH1 0x0 KECCAK256 DUP1 SLOAD SWAP1 POP DUP3 LT PUSH2 0x1355 JUMPI PUSH1 0x40 MLOAD PUSH32 0x8C379A000000000000000000000000000000000000000000000000000000000 DUP2 MSTORE PUSH1 0x4 ADD PUSH2 0x134C SWAP1 PUSH2 0x35E8 JUMP JUMPDEST PUSH1 0x40 MLOAD DUP1 SWAP2 SUB SWAP1 REVERT JUMPDEST PUSH1 0x3 PUSH1 0x0 DUP6 PUSH20 0xFFFFFFFFFFFFFFFFFFFFFFFFFFFFFFFFFFFFFFFF AND PUSH20 0xFFFFFFFFFFFFFFFFFFFFFFFFFFFFFFFFFFFFFFFF AND DUP2 MSTORE PUSH1 0x20 ADD SWAP1 DUP2 MSTORE PUSH1 0x20 ADD PUSH1 0x0 KECCAK256 DUP3 DUP2 SLOAD DUP2 LT PUSH2 0x13A6 JUMPI PUSH2 0x13A5 PUSH2 0x3283 JUMP JUMPDEST JUMPDEST SWAP1 PUSH1 0x0 MSTORE PUSH1 0x20 PUSH1 0x0 KECCAK256 SWAP1 PUSH1 0x4 MUL ADD PUSH1 0x0 ADD SLOAD DUP4 GT ISZERO PUSH2 0x13FA JUMPI PUSH1 0x40 MLOAD PUSH32 0x8C379A000000000000000000000000000000000000000000000000000000000 DUP2 MSTORE PUSH1 0x4 ADD PUSH2 0x13F1 SWAP1 PUSH2 0x3654 JUMP JUMPDEST PUSH1 0x40 MLOAD DUP1 SWAP2 SUB SWAP1 REVERT JUMPDEST PUSH1 0x0 PUSH8 0xDE0B6B3A7640000 PUSH1 0x3 PUSH1 0x0 DUP8 PUSH20 0xFFFFFFFFFFFFFFFFFFFFFFFFFFFFFFFFFFFFFFFF AND PUSH20 0xFFFFFFFFFFFFFFFFFFFFFFFFFFFFFFFFFFFFFFFF AND DUP2 MSTORE PUSH1 0x20 ADD SWAP1 DUP2 MSTORE PUSH1 0x20 ADD PUSH1 0x0 KECCAK256 DUP5 DUP2 SLOAD DUP2 LT PUSH2 0x1456 JUMPI PUSH2 0x1455 PUSH2 0x3283 JUMP JUMPDEST JUMPDEST SWAP1 PUSH1 0x0 MSTORE PUSH1 0x20 PUSH1 0x0 KECCAK256 SWAP1 PUSH1 0x4 MUL ADD PUSH1 0x1 ADD SLOAD DUP6 PUSH2 0x1473 SWAP2 SWAP1 PUSH2 0x32E1 JUMP JUMPDEST PUSH2 0x147D SWAP2 SWAP1 PUSH2 0x32E1 JUMP JUMPDEST SWAP1 POP CALLER PUSH20 0xFFFFFFFFFFFFFFFFFFFFFFFFFFFFFFFFFFFFFFFF AND PUSH1 0x4 DUP4 PUSH1 0x40 MLOAD PUSH2 0x14A6 SWAP2 SWAP1 PUSH2 0x36B0 JUMP JUMPDEST SWAP1 DUP2 MSTORE PUSH1 0x20 ADD PUSH1 0x40 MLOAD DUP1 SWAP2 SUB SWAP1 KECCAK256 PUSH1 0x0 SWAP1 SLOAD SWAP1 PUSH2 0x100 EXP SWAP1 DIV PUSH20 0xFFFFFFFFFFFFFFFFFFFFFFFFFFFFFFFFFFFFFFFF AND PUSH20 0xFFFFFFFFFFFFFFFFFFFFFFFFFFFFFFFFFFFFFFFF AND SUB PUSH2 0x156A JUMPI PUSH1 0x64 PUSH1 0x5A DUP3 PUSH2 0x14FF SWAP2 SWAP1 PUSH2 0x32E1 JUMP JUMPDEST PUSH2 0x1509 SWAP2 SWAP1 PUSH2 0x34D9 JUMP JUMPDEST SWAP1 POP PUSH1 0x0 PUSH1 0x4 DUP4 PUSH1 0x40 MLOAD PUSH2 0x151D SWAP2 SWAP1 PUSH2 0x36B0 JUMP JUMPDEST SWAP1 DUP2 MSTORE PUSH1 0x20 ADD PUSH1 0x40 MLOAD DUP1 SWAP2 SUB SWAP1 KECCAK256 PUSH1 0x0 PUSH2 0x100 EXP DUP2 SLOAD DUP2 PUSH20 0xFFFFFFFFFFFFFFFFFFFFFFFFFFFFFFFFFFFFFFFF MUL NOT AND SWAP1 DUP4 PUSH20 0xFFFFFFFFFFFFFFFFFFFFFFFFFFFFFFFFFFFFFFFF AND MUL OR SWAP1 SSTORE POP JUMPDEST DUP1 CALLVALUE LT ISZERO PUSH2 0x15AD JUMPI PUSH1 0x40 MLOAD PUSH32 0x8C379A000000000000000000000000000000000000000000000000000000000 DUP2 MSTORE PUSH1 0x4 ADD PUSH2 0x15A4 SWAP1 PUSH2 0x3713 JUMP JUMPDEST PUSH1 0x40 MLOAD DUP1 SWAP2 SUB SWAP1 REVERT JUMPDEST PUSH1 0x0 DUP1 JUMPDEST PUSH1 0x3 PUSH1 0x0 CALLER PUSH20 0xFFFFFFFFFFFFFFFFFFFFFFFFFFFFFFFFFFFFFFFF AND PUSH20 0xFFFFFFFFFFFFFFFFFFFFFFFFFFFFFFFFFFFFFFFF AND DUP2 MSTORE PUSH1 0x20 ADD SWAP1 DUP2 MSTORE PUSH1 0x20 ADD PUSH1 0x0 KECCAK256 DUP1 SLOAD SWAP1 POP DUP2 LT ISZERO PUSH2 0x1783 JUMPI PUSH1 0x3 PUSH1 0x0 DUP9 PUSH20 0xFFFFFFFFFFFFFFFFFFFFFFFFFFFFFFFFFFFFFFFF AND PUSH20 0xFFFFFFFFFFFFFFFFFFFFFFFFFFFFFFFFFFFFFFFF AND DUP2 MSTORE PUSH1 0x20 ADD SWAP1 DUP2 MSTORE PUSH1 0x20 ADD PUSH1 0x0 KECCAK256 DUP6 DUP2 SLOAD DUP2 LT PUSH2 0x164C JUMPI PUSH2 0x164B PUSH2 0x3283 JUMP JUMPDEST JUMPDEST SWAP1 PUSH1 0x0 MSTORE PUSH1 0x20 PUSH1 0x0 KECCAK256 SWAP1 PUSH1 0x4 MUL ADD PUSH1 0x2 ADD PUSH1 0x40 MLOAD PUSH2 0x166A SWAP2 SWAP1 PUSH2 0x37D6 JUMP JUMPDEST PUSH1 0x40 MLOAD DUP1 SWAP2 SUB SWAP1 KECCAK256 PUSH1 0x3 PUSH1 0x0 CALLER PUSH20 0xFFFFFFFFFFFFFFFFFFFFFFFFFFFFFFFFFFFFFFFF AND PUSH20 0xFFFFFFFFFFFFFFFFFFFFFFFFFFFFFFFFFFFFFFFF AND DUP2 MSTORE PUSH1 0x20 ADD SWAP1 DUP2 MSTORE PUSH1 0x20 ADD PUSH1 0x0 KECCAK256 DUP3 DUP2 SLOAD DUP2 LT PUSH2 0x16C3 JUMPI PUSH2 0x16C2 PUSH2 0x3283 JUMP JUMPDEST JUMPDEST SWAP1 PUSH1 0x0 MSTORE PUSH1 0x20 PUSH1 0x0 KECCAK256 SWAP1 PUSH1 0x4 MUL ADD PUSH1 0x2 ADD PUSH1 0x40 MLOAD PUSH2 0x16E1 SWAP2 SWAP1 PUSH2 0x37D6 JUMP JUMPDEST PUSH1 0x40 MLOAD DUP1 SWAP2 SUB SWAP1 KECCAK256 SUB PUSH2 0x1770 JUMPI DUP6 PUSH1 0x3 PUSH1 0x0 CALLER PUSH20 0xFFFFFFFFFFFFFFFFFFFFFFFFFFFFFFFFFFFFFFFF AND PUSH20 0xFFFFFFFFFFFFFFFFFFFFFFFFFFFFFFFFFFFFFFFF AND DUP2 MSTORE PUSH1 0x20 ADD SWAP1 DUP2 MSTORE PUSH1 0x20 ADD PUSH1 0x0 KECCAK256 DUP3 DUP2 SLOAD DUP2 LT PUSH2 0x1740 JUMPI PUSH2 0x173F PUSH2 0x3283 JUMP JUMPDEST JUMPDEST SWAP1 PUSH1 0x0 MSTORE PUSH1 0x20 PUSH1 0x0 KECCAK256 SWAP1 PUSH1 0x4 MUL ADD PUSH1 0x0 ADD PUSH1 0x0 DUP3 DUP3 SLOAD PUSH2 0x1760 SWAP2 SWAP1 PUSH2 0x3323 JUMP JUMPDEST SWAP3 POP POP DUP2 SWAP1 SSTORE POP PUSH1 0x1 SWAP2 POP PUSH2 0x1783 JUMP JUMPDEST DUP1 DUP1 PUSH2 0x177B SWAP1 PUSH2 0x338B JUMP JUMPDEST SWAP2 POP POP PUSH2 0x15B1 JUMP JUMPDEST POP DUP1 PUSH2 0x19A5 JUMPI PUSH1 0x0 PUSH1 0x40 MLOAD DUP1 PUSH1 0x80 ADD PUSH1 0x40 MSTORE DUP1 DUP8 DUP2 MSTORE PUSH1 0x20 ADD PUSH1 0x3 PUSH1 0x0 DUP11 PUSH20 0xFFFFFFFFFFFFFFFFFFFFFFFFFFFFFFFFFFFFFFFF AND PUSH20 0xFFFFFFFFFFFFFFFFFFFFFFFFFFFFFFFFFFFFFFFF AND DUP2 MSTORE PUSH1 0x20 ADD SWAP1 DUP2 MSTORE PUSH1 0x20 ADD PUSH1 0x0 KECCAK256 DUP8 DUP2 SLOAD DUP2 LT PUSH2 0x17ED JUMPI PUSH2 0x17EC PUSH2 0x3283 JUMP JUMPDEST JUMPDEST SWAP1 PUSH1 0x0 MSTORE PUSH1 0x20 PUSH1 0x0 KECCAK256 SWAP1 PUSH1 0x4 MUL ADD PUSH1 0x1 ADD SLOAD DUP2 MSTORE PUSH1 0x20 ADD PUSH1 0x3 PUSH1 0x0 DUP11 PUSH20 0xFFFFFFFFFFFFFFFFFFFFFFFFFFFFFFFFFFFFFFFF AND PUSH20 0xFFFFFFFFFFFFFFFFFFFFFFFFFFFFFFFFFFFFFFFF AND DUP2 MSTORE PUSH1 0x20 ADD SWAP1 DUP2 MSTORE PUSH1 0x20 ADD PUSH1 0x0 KECCAK256 DUP8 DUP2 SLOAD DUP2 LT PUSH2 0x1855 JUMPI PUSH2 0x1854 PUSH2 0x3283 JUMP JUMPDEST JUMPDEST SWAP1 PUSH1 0x0 MSTORE PUSH1 0x20 PUSH1 0x0 KECCAK256 SWAP1 PUSH1 0x4 MUL ADD PUSH1 0x2 ADD DUP1 SLOAD PUSH2 0x1871 SWAP1 PUSH2 0x2FD4 JUMP JUMPDEST DUP1 PUSH1 0x1F ADD PUSH1 0x20 DUP1 SWAP2 DIV MUL PUSH1 0x20 ADD PUSH1 0x40 MLOAD SWAP1 DUP2 ADD PUSH1 0x40 MSTORE DUP1 SWAP3 SWAP2 SWAP1 DUP2 DUP2 MSTORE PUSH1 0x20 ADD DUP3 DUP1 SLOAD PUSH2 0x189D SWAP1 PUSH2 0x2FD4 JUMP JUMPDEST DUP1 ISZERO PUSH2 0x18EA JUMPI DUP1 PUSH1 0x1F LT PUSH2 0x18BF JUMPI PUSH2 0x100 DUP1 DUP4 SLOAD DIV MUL DUP4 MSTORE SWAP2 PUSH1 0x20 ADD SWAP2 PUSH2 0x18EA JUMP JUMPDEST DUP3 ADD SWAP2 SWAP1 PUSH1 0x0 MSTORE PUSH1 0x20 PUSH1 0x0 KECCAK256 SWAP1 JUMPDEST DUP2 SLOAD DUP2 MSTORE SWAP1 PUSH1 0x1 ADD SWAP1 PUSH1 0x20 ADD DUP1 DUP4 GT PUSH2 0x18CD JUMPI DUP3 SWAP1 SUB PUSH1 0x1F AND DUP3 ADD SWAP2 JUMPDEST POP POP POP POP POP DUP2 MSTORE PUSH1 0x20 ADD PUSH2 0x18FF PUSH2 0x3E8 PUSH2 0xEB0 JUMP JUMPDEST DUP2 MSTORE POP SWAP1 POP PUSH1 0x3 PUSH1 0x0 CALLER PUSH20 0xFFFFFFFFFFFFFFFFFFFFFFFFFFFFFFFFFFFFFFFF AND PUSH20 0xFFFFFFFFFFFFFFFFFFFFFFFFFFFFFFFFFFFFFFFF AND DUP2 MSTORE PUSH1 0x20 ADD SWAP1 DUP2 MSTORE PUSH1 0x20 ADD PUSH1 0x0 KECCAK256 DUP2 SWAP1 DUP1 PUSH1 0x1 DUP2 SLOAD ADD DUP1 DUP3 SSTORE DUP1 SWAP2 POP POP PUSH1 0x1 SWAP1 SUB SWAP1 PUSH1 0x0 MSTORE PUSH1 0x20 PUSH1 0x0 KECCAK256 SWAP1 PUSH1 0x4 MUL ADD PUSH1 0x0 SWAP1 SWAP2 SWAP1 SWAP2 SWAP1 SWAP2 POP PUSH1 0x0 DUP3 ADD MLOAD DUP2 PUSH1 0x0 ADD SSTORE PUSH1 0x20 DUP3 ADD MLOAD DUP2 PUSH1 0x1 ADD SSTORE PUSH1 0x40 DUP3 ADD MLOAD DUP2 PUSH1 0x2 ADD SWAP1 DUP2 PUSH2 0x1996 SWAP2 SWAP1 PUSH2 0x31B1 JUMP JUMPDEST POP PUSH1 0x60 DUP3 ADD MLOAD DUP2 PUSH1 0x3 ADD SSTORE POP POP POP JUMPDEST DUP5 PUSH1 0x3 PUSH1 0x0 DUP9 PUSH20 0xFFFFFFFFFFFFFFFFFFFFFFFFFFFFFFFFFFFFFFFF AND PUSH20 0xFFFFFFFFFFFFFFFFFFFFFFFFFFFFFFFFFFFFFFFF AND DUP2 MSTORE PUSH1 0x20 ADD SWAP1 DUP2 MSTORE PUSH1 0x20 ADD PUSH1 0x0 KECCAK256 DUP6 DUP2 SLOAD DUP2 LT PUSH2 0x19F7 JUMPI PUSH2 0x19F6 PUSH2 0x3283 JUMP JUMPDEST JUMPDEST SWAP1 PUSH1 0x0 MSTORE PUSH1 0x20 PUSH1 0x0 KECCAK256 SWAP1 PUSH1 0x4 MUL ADD PUSH1 0x0 ADD PUSH1 0x0 DUP3 DUP3 SLOAD PUSH2 0x1A17 SWAP2 SWAP1 PUSH2 0x3357 JUMP JUMPDEST SWAP3 POP POP DUP2 SWAP1 SSTORE POP DUP2 CALLVALUE GT ISZERO PUSH2 0x1A7F JUMPI PUSH1 0x0 DUP3 CALLVALUE PUSH2 0x1A34 SWAP2 SWAP1 PUSH2 0x3357 JUMP JUMPDEST SWAP1 POP CALLER PUSH20 0xFFFFFFFFFFFFFFFFFFFFFFFFFFFFFFFFFFFFFFFF AND PUSH2 0x8FC DUP3 SWAP1 DUP2 ISZERO MUL SWAP1 PUSH1 0x40 MLOAD PUSH1 0x0 PUSH1 0x40 MLOAD DUP1 DUP4 SUB DUP2 DUP6 DUP9 DUP9 CALL SWAP4 POP POP POP POP ISZERO DUP1 ISZERO PUSH2 0x1A7C JUMPI RETURNDATASIZE PUSH1 0x0 DUP1 RETURNDATACOPY RETURNDATASIZE PUSH1 0x0 REVERT JUMPDEST POP POP JUMPDEST DUP2 PUSH1 0x2 PUSH1 0x0 DUP9 PUSH20 0xFFFFFFFFFFFFFFFFFFFFFFFFFFFFFFFFFFFFFFFF AND PUSH20 0xFFFFFFFFFFFFFFFFFFFFFFFFFFFFFFFFFFFFFFFF AND DUP2 MSTORE PUSH1 0x20 ADD SWAP1 DUP2 MSTORE PUSH1 0x20 ADD PUSH1 0x0 KECCAK256 PUSH1 0x1 ADD DUP2 SWAP1 SSTORE POP POP POP POP POP POP POP JUMP JUMPDEST DUP1 PUSH20 0xFFFFFFFFFFFFFFFFFFFFFFFFFFFFFFFFFFFFFFFF AND CALLER PUSH20 0xFFFFFFFFFFFFFFFFFFFFFFFFFFFFFFFFFFFFFFFF AND SUB PUSH2 0x1B06 JUMPI PUSH1 0x0 DUP1 REVERT JUMPDEST DUP1 PUSH1 0x4 DUP4 PUSH1 0x40 MLOAD PUSH2 0x1B17 SWAP2 SWAP1 PUSH2 0x36B0 JUMP JUMPDEST SWAP1 DUP2 MSTORE PUSH1 0x20 ADD PUSH1 0x40 MLOAD DUP1 SWAP2 SUB SWAP1 KECCAK256 PUSH1 0x0 PUSH2 0x100 EXP DUP2 SLOAD DUP2 PUSH20 0xFFFFFFFFFFFFFFFFFFFFFFFFFFFFFFFFFFFFFFFF MUL NOT AND SWAP1 DUP4 PUSH20 0xFFFFFFFFFFFFFFFFFFFFFFFFFFFFFFFFFFFFFFFF AND MUL OR SWAP1 SSTORE POP POP POP JUMP JUMPDEST PUSH1 0x2 PUSH1 0x20 MSTORE DUP1 PUSH1 0x0 MSTORE PUSH1 0x40 PUSH1 0x0 KECCAK256 PUSH1 0x0 SWAP2 POP SWAP1 POP DUP1 PUSH1 0x0 ADD PUSH1 0x0 SWAP1 SLOAD SWAP1 PUSH2 0x100 EXP SWAP1 DIV PUSH1 0xFF AND SWAP1 DUP1 PUSH1 0x1 ADD SLOAD SWAP1 POP DUP3 JUMP JUMPDEST PUSH1 0x40 MLOAD DUP1 PUSH1 0x40 ADD PUSH1 0x40 MSTORE DUP1 PUSH1 0x0 PUSH1 0x2 DUP2 GT ISZERO PUSH2 0x1BB7 JUMPI PUSH2 0x1BB6 PUSH2 0x29D0 JUMP JUMPDEST JUMPDEST DUP2 MSTORE PUSH1 0x20 ADD PUSH1 0x0 DUP2 MSTORE POP PUSH1 0x2 PUSH1 0x0 CALLER PUSH20 0xFFFFFFFFFFFFFFFFFFFFFFFFFFFFFFFFFFFFFFFF AND PUSH20 0xFFFFFFFFFFFFFFFFFFFFFFFFFFFFFFFFFFFFFFFF AND DUP2 MSTORE PUSH1 0x20 ADD SWAP1 DUP2 MSTORE PUSH1 0x20 ADD PUSH1 0x0 KECCAK256 PUSH1 0x0 DUP3 ADD MLOAD DUP2 PUSH1 0x0 ADD PUSH1 0x0 PUSH2 0x100 EXP DUP2 SLOAD DUP2 PUSH1 0xFF MUL NOT AND SWAP1 DUP4 PUSH1 0x2 DUP2 GT ISZERO PUSH2 0x1C2B JUMPI PUSH2 0x1C2A PUSH2 0x29D0 JUMP JUMPDEST JUMPDEST MUL OR SWAP1 SSTORE POP PUSH1 0x20 DUP3 ADD MLOAD DUP2 PUSH1 0x1 ADD SSTORE SWAP1 POP POP JUMP JUMPDEST PUSH1 0x4 DUP2 DUP1 MLOAD PUSH1 0x20 DUP2 ADD DUP3 ADD DUP1 MLOAD DUP5 DUP3 MSTORE PUSH1 0x20 DUP4 ADD PUSH1 0x20 DUP6 ADD KECCAK256 DUP2 DUP4 MSTORE DUP1 SWAP6 POP POP POP POP POP POP PUSH1 0x0 SWAP2 POP SLOAD SWAP1 PUSH2 0x100 EXP SWAP1 DIV PUSH20 0xFFFFFFFFFFFFFFFFFFFFFFFFFFFFFFFFFFFFFFFF AND DUP2 JUMP JUMPDEST PUSH1 0x0 PUSH1 0x2 PUSH1 0x0 DUP4 PUSH20 0xFFFFFFFFFFFFFFFFFFFFFFFFFFFFFFFFFFFFFFFF AND PUSH20 0xFFFFFFFFFFFFFFFFFFFFFFFFFFFFFFFFFFFFFFFF AND DUP2 MSTORE PUSH1 0x20 ADD SWAP1 DUP2 MSTORE PUSH1 0x20 ADD PUSH1 0x0 KECCAK256 PUSH1 0x1 ADD SLOAD SWAP1 POP DUP2 PUSH20 0xFFFFFFFFFFFFFFFFFFFFFFFFFFFFFFFFFFFFFFFF AND PUSH2 0x8FC DUP3 SWAP1 DUP2 ISZERO MUL SWAP1 PUSH1 0x40 MLOAD PUSH1 0x0 PUSH1 0x40 MLOAD DUP1 DUP4 SUB DUP2 DUP6 DUP9 DUP9 CALL SWAP4 POP POP POP POP ISZERO DUP1 ISZERO PUSH2 0x1D15 JUMPI RETURNDATASIZE PUSH1 0x0 DUP1 RETURNDATACOPY RETURNDATASIZE PUSH1 0x0 REVERT JUMPDEST POP POP POP JUMP JUMPDEST PUSH1 0x1 DUP5 DUP2 PUSH1 0x2 DUP2 GT ISZERO PUSH2 0x1D30 JUMPI PUSH2 0x1D2F PUSH2 0x29D0 JUMP JUMPDEST JUMPDEST PUSH1 0x2 PUSH1 0x0 CALLER PUSH20 0xFFFFFFFFFFFFFFFFFFFFFFFFFFFFFFFFFFFFFFFF AND PUSH20 0xFFFFFFFFFFFFFFFFFFFFFFFFFFFFFFFFFFFFFFFF AND DUP2 MSTORE PUSH1 0x20 ADD SWAP1 DUP2 MSTORE PUSH1 0x20 ADD PUSH1 0x0 KECCAK256 PUSH1 0x0 ADD PUSH1 0x0 SWAP1 SLOAD SWAP1 PUSH2 0x100 EXP SWAP1 DIV PUSH1 0xFF AND PUSH1 0x2 DUP2 GT ISZERO PUSH2 0x1D92 JUMPI PUSH2 0x1D91 PUSH2 0x29D0 JUMP JUMPDEST JUMPDEST EQ PUSH2 0x1DD2 JUMPI PUSH1 0x40 MLOAD PUSH32 0x8C379A000000000000000000000000000000000000000000000000000000000 DUP2 MSTORE PUSH1 0x4 ADD PUSH2 0x1DC9 SWAP1 PUSH2 0x2ECD JUMP JUMPDEST PUSH1 0x40 MLOAD DUP1 SWAP2 SUB SWAP1 REVERT JUMPDEST DUP1 PUSH20 0xFFFFFFFFFFFFFFFFFFFFFFFFFFFFFFFFFFFFFFFF AND CALLER PUSH20 0xFFFFFFFFFFFFFFFFFFFFFFFFFFFFFFFFFFFFFFFF AND EQ PUSH2 0x1E40 JUMPI PUSH1 0x40 MLOAD PUSH32 0x8C379A000000000000000000000000000000000000000000000000000000000 DUP2 MSTORE PUSH1 0x4 ADD PUSH2 0x1E37 SWAP1 PUSH2 0x2F85 JUMP JUMPDEST PUSH1 0x40 MLOAD DUP1 SWAP2 SUB SWAP1 REVERT JUMPDEST PUSH1 0x0 DUP5 GT PUSH2 0x1E83 JUMPI PUSH1 0x40 MLOAD PUSH32 0x8C379A000000000000000000000000000000000000000000000000000000000 DUP2 MSTORE PUSH1 0x4 ADD PUSH2 0x1E7A SWAP1 PUSH2 0x357C JUMP JUMPDEST PUSH1 0x40 MLOAD DUP1 SWAP2 SUB SWAP1 REVERT JUMPDEST PUSH1 0x3 PUSH1 0x0 DUP8 PUSH20 0xFFFFFFFFFFFFFFFFFFFFFFFFFFFFFFFFFFFFFFFF AND PUSH20 0xFFFFFFFFFFFFFFFFFFFFFFFFFFFFFFFFFFFFFFFF AND DUP2 MSTORE PUSH1 0x20 ADD SWAP1 DUP2 MSTORE PUSH1 0x20 ADD PUSH1 0x0 KECCAK256 DUP1 SLOAD SWAP1 POP DUP6 LT PUSH2 0x1F07 JUMPI PUSH1 0x40 MLOAD PUSH32 0x8C379A000000000000000000000000000000000000000000000000000000000 DUP2 MSTORE PUSH1 0x4 ADD PUSH2 0x1EFE SWAP1 PUSH2 0x35E8 JUMP JUMPDEST PUSH1 0x40 MLOAD DUP1 SWAP2 SUB SWAP1 REVERT JUMPDEST PUSH1 0x0 DUP1 PUSH1 0x0 PUSH1 0x3 PUSH1 0x0 DUP8 PUSH20 0xFFFFFFFFFFFFFFFFFFFFFFFFFFFFFFFFFFFFFFFF AND PUSH20 0xFFFFFFFFFFFFFFFFFFFFFFFFFFFFFFFFFFFFFFFF AND DUP2 MSTORE PUSH1 0x20 ADD SWAP1 DUP2 MSTORE PUSH1 0x20 ADD PUSH1 0x0 KECCAK256 DUP9 DUP2 SLOAD DUP2 LT PUSH2 0x1F5D JUMPI PUSH2 0x1F5C PUSH2 0x3283 JUMP JUMPDEST JUMPDEST SWAP1 PUSH1 0x0 MSTORE PUSH1 0x20 PUSH1 0x0 KECCAK256 SWAP1 PUSH1 0x4 MUL ADD PUSH1 0x2 ADD DUP1 SLOAD PUSH2 0x1F79 SWAP1 PUSH2 0x2FD4 JUMP JUMPDEST DUP1 PUSH1 0x1F ADD PUSH1 0x20 DUP1 SWAP2 DIV MUL PUSH1 0x20 ADD PUSH1 0x40 MLOAD SWAP1 DUP2 ADD PUSH1 0x40 MSTORE DUP1 SWAP3 SWAP2 SWAP1 DUP2 DUP2 MSTORE PUSH1 0x20 ADD DUP3 DUP1 SLOAD PUSH2 0x1FA5 SWAP1 PUSH2 0x2FD4 JUMP JUMPDEST DUP1 ISZERO PUSH2 0x1FF2 JUMPI DUP1 PUSH1 0x1F LT PUSH2 0x1FC7 JUMPI PUSH2 0x100 DUP1 DUP4 SLOAD DIV MUL DUP4 MSTORE SWAP2 PUSH1 0x20 ADD SWAP2 PUSH2 0x1FF2 JUMP JUMPDEST DUP3 ADD SWAP2 SWAP1 PUSH1 0x0 MSTORE PUSH1 0x20 PUSH1 0x0 KECCAK256 SWAP1 JUMPDEST DUP2 SLOAD DUP2 MSTORE SWAP1 PUSH1 0x1 ADD SWAP1 PUSH1 0x20 ADD DUP1 DUP4 GT PUSH2 0x1FD5 JUMPI DUP3 SWAP1 SUB PUSH1 0x1F AND DUP3 ADD SWAP2 JUMPDEST POP POP POP POP POP SWAP1 POP PUSH1 0x0 JUMPDEST PUSH1 0x3 PUSH1 0x0 DUP9 PUSH20 0xFFFFFFFFFFFFFFFFFFFFFFFFFFFFFFFFFFFFFFFF AND PUSH20 0xFFFFFFFFFFFFFFFFFFFFFFFFFFFFFFFFFFFFFFFF AND DUP2 MSTORE PUSH1 0x20 ADD SWAP1 DUP2 MSTORE PUSH1 0x20 ADD PUSH1 0x0 KECCAK256 DUP1 SLOAD SWAP1 POP DUP2 LT ISZERO PUSH2 0x25F8 JUMPI PUSH1 0x3 PUSH1 0x0 DUP12 PUSH20 0xFFFFFFFFFFFFFFFFFFFFFFFFFFFFFFFFFFFFFFFF AND PUSH20 0xFFFFFFFFFFFFFFFFFFFFFFFFFFFFFFFFFFFFFFFF AND DUP2 MSTORE PUSH1 0x20 ADD SWAP1 DUP2 MSTORE PUSH1 0x20 ADD PUSH1 0x0 KECCAK256 DUP2 DUP2 SLOAD DUP2 LT PUSH2 0x2097 JUMPI PUSH2 0x2096 PUSH2 0x3283 JUMP JUMPDEST JUMPDEST SWAP1 PUSH1 0x0 MSTORE PUSH1 0x20 PUSH1 0x0 KECCAK256 SWAP1 PUSH1 0x4 MUL ADD PUSH1 0x2 ADD PUSH1 0x40 MLOAD PUSH2 0x20B5 SWAP2 SWAP1 PUSH2 0x37D6 JUMP JUMPDEST PUSH1 0x40 MLOAD DUP1 SWAP2 SUB SWAP1 KECCAK256 DUP3 DUP1 MLOAD SWAP1 PUSH1 0x20 ADD KECCAK256 SUB PUSH2 0x25E5 JUMPI PUSH1 0x3 PUSH1 0x0 DUP9 PUSH20 0xFFFFFFFFFFFFFFFFFFFFFFFFFFFFFFFFFFFFFFFF AND PUSH20 0xFFFFFFFFFFFFFFFFFFFFFFFFFFFFFFFFFFFFFFFF AND DUP2 MSTORE PUSH1 0x20 ADD SWAP1 DUP2 MSTORE PUSH1 0x20 ADD PUSH1 0x0 KECCAK256 DUP2 DUP2 SLOAD DUP2 LT PUSH2 0x211B JUMPI PUSH2 0x211A PUSH2 0x3283 JUMP JUMPDEST JUMPDEST SWAP1 PUSH1 0x0 MSTORE PUSH1 0x20 PUSH1 0x0 KECCAK256 SWAP1 PUSH1 0x4 MUL ADD PUSH1 0x1 ADD SLOAD SWAP3 POP PUSH8 0xDE0B6B3A7640000 DUP9 DUP5 PUSH2 0x2144 SWAP2 SWAP1 PUSH2 0x32E1 JUMP JUMPDEST PUSH2 0x214E SWAP2 SWAP1 PUSH2 0x32E1 JUMP JUMPDEST SWAP4 POP DUP4 CALLVALUE LT ISZERO PUSH2 0x2193 JUMPI PUSH1 0x40 MLOAD PUSH32 0x8C379A000000000000000000000000000000000000000000000000000000000 DUP2 MSTORE PUSH1 0x4 ADD PUSH2 0x218A SWAP1 PUSH2 0x3713 JUMP JUMPDEST PUSH1 0x40 MLOAD DUP1 SWAP2 SUB SWAP1 REVERT JUMPDEST PUSH1 0x0 DUP1 JUMPDEST PUSH1 0x3 PUSH1 0x0 DUP14 PUSH20 0xFFFFFFFFFFFFFFFFFFFFFFFFFFFFFFFFFFFFFFFF AND PUSH20 0xFFFFFFFFFFFFFFFFFFFFFFFFFFFFFFFFFFFFFFFF AND DUP2 MSTORE PUSH1 0x20 ADD SWAP1 DUP2 MSTORE PUSH1 0x20 ADD PUSH1 0x0 KECCAK256 DUP1 SLOAD SWAP1 POP DUP2 LT ISZERO PUSH2 0x2369 JUMPI PUSH1 0x3 PUSH1 0x0 DUP11 PUSH20 0xFFFFFFFFFFFFFFFFFFFFFFFFFFFFFFFFFFFFFFFF AND PUSH20 0xFFFFFFFFFFFFFFFFFFFFFFFFFFFFFFFFFFFFFFFF AND DUP2 MSTORE PUSH1 0x20 ADD SWAP1 DUP2 MSTORE PUSH1 0x20 ADD PUSH1 0x0 KECCAK256 DUP12 DUP2 SLOAD DUP2 LT PUSH2 0x2232 JUMPI PUSH2 0x2231 PUSH2 0x3283 JUMP JUMPDEST JUMPDEST SWAP1 PUSH1 0x0 MSTORE PUSH1 0x20 PUSH1 0x0 KECCAK256 SWAP1 PUSH1 0x4 MUL ADD PUSH1 0x2 ADD PUSH1 0x40 MLOAD PUSH2 0x2250 SWAP2 SWAP1 PUSH2 0x37D6 JUMP JUMPDEST PUSH1 0x40 MLOAD DUP1 SWAP2 SUB SWAP1 KECCAK256 PUSH1 0x3 PUSH1 0x0 DUP15 PUSH20 0xFFFFFFFFFFFFFFFFFFFFFFFFFFFFFFFFFFFFFFFF AND PUSH20 0xFFFFFFFFFFFFFFFFFFFFFFFFFFFFFFFFFFFFFFFF AND DUP2 MSTORE PUSH1 0x20 ADD SWAP1 DUP2 MSTORE PUSH1 0x20 ADD PUSH1 0x0 KECCAK256 DUP3 DUP2 SLOAD DUP2 LT PUSH2 0x22A9 JUMPI PUSH2 0x22A8 PUSH2 0x3283 JUMP JUMPDEST JUMPDEST SWAP1 PUSH1 0x0 MSTORE PUSH1 0x20 PUSH1 0x0 KECCAK256 SWAP1 PUSH1 0x4 MUL ADD PUSH1 0x2 ADD PUSH1 0x40 MLOAD PUSH2 0x22C7 SWAP2 SWAP1 PUSH2 0x37D6 JUMP JUMPDEST PUSH1 0x40 MLOAD DUP1 SWAP2 SUB SWAP1 KECCAK256 SUB PUSH2 0x2356 JUMPI DUP10 PUSH1 0x3 PUSH1 0x0 DUP15 PUSH20 0xFFFFFFFFFFFFFFFFFFFFFFFFFFFFFFFFFFFFFFFF AND PUSH20 0xFFFFFFFFFFFFFFFFFFFFFFFFFFFFFFFFFFFFFFFF AND DUP2 MSTORE PUSH1 0x20 ADD SWAP1 DUP2 MSTORE PUSH1 0x20 ADD PUSH1 0x0 KECCAK256 DUP5 DUP2 SLOAD DUP2 LT PUSH2 0x2326 JUMPI PUSH2 0x2325 PUSH2 0x3283 JUMP JUMPDEST JUMPDEST SWAP1 PUSH1 0x0 MSTORE PUSH1 0x20 PUSH1 0x0 KECCAK256 SWAP1 PUSH1 0x4 MUL ADD PUSH1 0x0 ADD PUSH1 0x0 DUP3 DUP3 SLOAD PUSH2 0x2346 SWAP2 SWAP1 PUSH2 0x3323 JUMP JUMPDEST SWAP3 POP POP DUP2 SWAP1 SSTORE POP PUSH1 0x1 SWAP2 POP PUSH2 0x2369 JUMP JUMPDEST DUP1 DUP1 PUSH2 0x2361 SWAP1 PUSH2 0x338B JUMP JUMPDEST SWAP2 POP POP PUSH2 0x2197 JUMP JUMPDEST POP DUP1 PUSH2 0x25E3 JUMPI PUSH1 0x0 PUSH1 0x40 MLOAD DUP1 PUSH1 0x80 ADD PUSH1 0x40 MSTORE DUP1 DUP12 DUP2 MSTORE PUSH1 0x20 ADD PUSH1 0x3 PUSH1 0x0 DUP13 PUSH20 0xFFFFFFFFFFFFFFFFFFFFFFFFFFFFFFFFFFFFFFFF AND PUSH20 0xFFFFFFFFFFFFFFFFFFFFFFFFFFFFFFFFFFFFFFFF AND DUP2 MSTORE PUSH1 0x20 ADD SWAP1 DUP2 MSTORE PUSH1 0x20 ADD PUSH1 0x0 KECCAK256 DUP14 DUP2 SLOAD DUP2 LT PUSH2 0x23D3 JUMPI PUSH2 0x23D2 PUSH2 0x3283 JUMP JUMPDEST JUMPDEST SWAP1 PUSH1 0x0 MSTORE PUSH1 0x20 PUSH1 0x0 KECCAK256 SWAP1 PUSH1 0x4 MUL ADD PUSH1 0x1 ADD SLOAD DUP2 MSTORE PUSH1 0x20 ADD PUSH1 0x3 PUSH1 0x0 DUP13 PUSH20 0xFFFFFFFFFFFFFFFFFFFFFFFFFFFFFFFFFFFFFFFF AND PUSH20 0xFFFFFFFFFFFFFFFFFFFFFFFFFFFFFFFFFFFFFFFF AND DUP2 MSTORE PUSH1 0x20 ADD SWAP1 DUP2 MSTORE PUSH1 0x20 ADD PUSH1 0x0 KECCAK256 DUP14 DUP2 SLOAD DUP2 LT PUSH2 0x243B JUMPI PUSH2 0x243A PUSH2 0x3283 JUMP JUMPDEST JUMPDEST SWAP1 PUSH1 0x0 MSTORE PUSH1 0x20 PUSH1 0x0 KECCAK256 SWAP1 PUSH1 0x4 MUL ADD PUSH1 0x2 ADD DUP1 SLOAD PUSH2 0x2457 SWAP1 PUSH2 0x2FD4 JUMP JUMPDEST DUP1 PUSH1 0x1F ADD PUSH1 0x20 DUP1 SWAP2 DIV MUL PUSH1 0x20 ADD PUSH1 0x40 MLOAD SWAP1 DUP2 ADD PUSH1 0x40 MSTORE DUP1 SWAP3 SWAP2 SWAP1 DUP2 DUP2 MSTORE PUSH1 0x20 ADD DUP3 DUP1 SLOAD PUSH2 0x2483 SWAP1 PUSH2 0x2FD4 JUMP JUMPDEST DUP1 ISZERO PUSH2 0x24D0 JUMPI DUP1 PUSH1 0x1F LT PUSH2 0x24A5 JUMPI PUSH2 0x100 DUP1 DUP4 SLOAD DIV MUL DUP4 MSTORE SWAP2 PUSH1 0x20 ADD SWAP2 PUSH2 0x24D0 JUMP JUMPDEST DUP3 ADD SWAP2 SWAP1 PUSH1 0x0 MSTORE PUSH1 0x20 PUSH1 0x0 KECCAK256 SWAP1 JUMPDEST DUP2 SLOAD DUP2 MSTORE SWAP1 PUSH1 0x1 ADD SWAP1 PUSH1 0x20 ADD DUP1 DUP4 GT PUSH2 0x24B3 JUMPI DUP3 SWAP1 SUB PUSH1 0x1F AND DUP3 ADD SWAP2 JUMPDEST POP POP POP POP POP DUP2 MSTORE PUSH1 0x20 ADD PUSH1 0x3 PUSH1 0x0 DUP13 PUSH20 0xFFFFFFFFFFFFFFFFFFFFFFFFFFFFFFFFFFFFFFFF AND PUSH20 0xFFFFFFFFFFFFFFFFFFFFFFFFFFFFFFFFFFFFFFFF AND DUP2 MSTORE PUSH1 0x20 ADD SWAP1 DUP2 MSTORE PUSH1 0x20 ADD PUSH1 0x0 KECCAK256 DUP14 DUP2 SLOAD DUP2 LT PUSH2 0x252B JUMPI PUSH2 0x252A PUSH2 0x3283 JUMP JUMPDEST JUMPDEST SWAP1 PUSH1 0x0 MSTORE PUSH1 0x20 PUSH1 0x0 KECCAK256 SWAP1 PUSH1 0x4 MUL ADD PUSH1 0x3 ADD SLOAD DUP2 MSTORE POP SWAP1 POP PUSH1 0x3 PUSH1 0x0 CALLER PUSH20 0xFFFFFFFFFFFFFFFFFFFFFFFFFFFFFFFFFFFFFFFF AND PUSH20 0xFFFFFFFFFFFFFFFFFFFFFFFFFFFFFFFFFFFFFFFF AND DUP2 MSTORE PUSH1 0x20 ADD SWAP1 DUP2 MSTORE PUSH1 0x20 ADD PUSH1 0x0 KECCAK256 DUP2 SWAP1 DUP1 PUSH1 0x1 DUP2 SLOAD ADD DUP1 DUP3 SSTORE DUP1 SWAP2 POP POP PUSH1 0x1 SWAP1 SUB SWAP1 PUSH1 0x0 MSTORE PUSH1 0x20 PUSH1 0x0 KECCAK256 SWAP1 PUSH1 0x4 MUL ADD PUSH1 0x0 SWAP1 SWAP2 SWAP1 SWAP2 SWAP1 SWAP2 POP PUSH1 0x0 DUP3 ADD MLOAD DUP2 PUSH1 0x0 ADD SSTORE PUSH1 0x20 DUP3 ADD MLOAD DUP2 PUSH1 0x1 ADD SSTORE PUSH1 0x40 DUP3 ADD MLOAD DUP2 PUSH1 0x2 ADD SWAP1 DUP2 PUSH2 0x25D4 SWAP2 SWAP1 PUSH2 0x31B1 JUMP JUMPDEST POP PUSH1 0x60 DUP3 ADD MLOAD DUP2 PUSH1 0x3 ADD SSTORE POP POP POP JUMPDEST POP JUMPDEST DUP1 DUP1 PUSH2 0x25F0 SWAP1 PUSH2 0x338B JUMP JUMPDEST SWAP2 POP POP PUSH2 0x1FFC JUMP JUMPDEST POP DUP3 CALLVALUE GT ISZERO PUSH2 0x265A JUMPI PUSH1 0x0 DUP4 CALLVALUE PUSH2 0x260F SWAP2 SWAP1 PUSH2 0x3357 JUMP JUMPDEST SWAP1 POP CALLER PUSH20 0xFFFFFFFFFFFFFFFFFFFFFFFFFFFFFFFFFFFFFFFF AND PUSH2 0x8FC DUP3 SWAP1 DUP2 ISZERO MUL SWAP1 PUSH1 0x40 MLOAD PUSH1 0x0 PUSH1 0x40 MLOAD DUP1 DUP4 SUB DUP2 DUP6 DUP9 DUP9 CALL SWAP4 POP POP POP POP ISZERO DUP1 ISZERO PUSH2 0x2657 JUMPI RETURNDATASIZE PUSH1 0x0 DUP1 RETURNDATACOPY RETURNDATASIZE PUSH1 0x0 REVERT JUMPDEST POP POP JUMPDEST POP POP POP POP POP POP POP POP POP JUMP JUMPDEST POP DUP1 SLOAD PUSH2 0x2671 SWAP1 PUSH2 0x2FD4 JUMP JUMPDEST PUSH1 0x0 DUP3 SSTORE DUP1 PUSH1 0x1F LT PUSH2 0x2683 JUMPI POP PUSH2 0x26A2 JUMP JUMPDEST PUSH1 0x1F ADD PUSH1 0x20 SWAP1 DIV SWAP1 PUSH1 0x0 MSTORE PUSH1 0x20 PUSH1 0x0 KECCAK256 SWAP1 DUP2 ADD SWAP1 PUSH2 0x26A1 SWAP2 SWAP1 PUSH2 0x26A5 JUMP JUMPDEST JUMPDEST POP JUMP JUMPDEST JUMPDEST DUP1 DUP3 GT ISZERO PUSH2 0x26BE JUMPI PUSH1 0x0 DUP2 PUSH1 0x0 SWAP1 SSTORE POP PUSH1 0x1 ADD PUSH2 0x26A6 JUMP JUMPDEST POP SWAP1 JUMP JUMPDEST PUSH1 0x0 PUSH1 0x40 MLOAD SWAP1 POP SWAP1 JUMP JUMPDEST PUSH1 0x0 DUP1 REVERT JUMPDEST PUSH1 0x0 DUP1 REVERT JUMPDEST PUSH1 0x0 PUSH20 0xFFFFFFFFFFFFFFFFFFFFFFFFFFFFFFFFFFFFFFFF DUP3 AND SWAP1 POP SWAP2 SWAP1 POP JUMP JUMPDEST PUSH1 0x0 PUSH2 0x2701 DUP3 PUSH2 0x26D6 JUMP JUMPDEST SWAP1 POP SWAP2 SWAP1 POP JUMP JUMPDEST PUSH2 0x2711 DUP2 PUSH2 0x26F6 JUMP JUMPDEST DUP2 EQ PUSH2 0x271C JUMPI PUSH1 0x0 DUP1 REVERT JUMPDEST POP JUMP JUMPDEST PUSH1 0x0 DUP2 CALLDATALOAD SWAP1 POP PUSH2 0x272E DUP2 PUSH2 0x2708 JUMP JUMPDEST SWAP3 SWAP2 POP POP JUMP JUMPDEST PUSH1 0x0 DUP2 SWAP1 POP SWAP2 SWAP1 POP JUMP JUMPDEST PUSH2 0x2747 DUP2 PUSH2 0x2734 JUMP JUMPDEST DUP2 EQ PUSH2 0x2752 JUMPI PUSH1 0x0 DUP1 REVERT JUMPDEST POP JUMP JUMPDEST PUSH1 0x0 DUP2 CALLDATALOAD SWAP1 POP PUSH2 0x2764 DUP2 PUSH2 0x273E JUMP JUMPDEST SWAP3 SWAP2 POP POP JUMP JUMPDEST PUSH1 0x0 DUP1 REVERT JUMPDEST PUSH1 0x0 DUP1 REVERT JUMPDEST PUSH1 0x0 DUP1 REVERT JUMPDEST PUSH1 0x0 DUP1 DUP4 PUSH1 0x1F DUP5 ADD SLT PUSH2 0x278F JUMPI PUSH2 0x278E PUSH2 0x276A JUMP JUMPDEST JUMPDEST DUP3 CALLDATALOAD SWAP1 POP PUSH8 0xFFFFFFFFFFFFFFFF DUP2 GT ISZERO PUSH2 0x27AC JUMPI PUSH2 0x27AB PUSH2 0x276F JUMP JUMPDEST JUMPDEST PUSH1 0x20 DUP4 ADD SWAP2 POP DUP4 PUSH1 0x1 DUP3 MUL DUP4 ADD GT ISZERO PUSH2 0x27C8 JUMPI PUSH2 0x27C7 PUSH2 0x2774 JUMP JUMPDEST JUMPDEST SWAP3 POP SWAP3 SWAP1 POP JUMP JUMPDEST PUSH1 0x0 DUP1 PUSH1 0x0 DUP1 PUSH1 0x0 DUP1 PUSH1 0xA0 DUP8 DUP10 SUB SLT ISZERO PUSH2 0x27EC JUMPI PUSH2 0x27EB PUSH2 0x26CC JUMP JUMPDEST JUMPDEST PUSH1 0x0 PUSH2 0x27FA DUP10 DUP3 DUP11 ADD PUSH2 0x271F JUMP JUMPDEST SWAP7 POP POP PUSH1 0x20 PUSH2 0x280B DUP10 DUP3 DUP11 ADD PUSH2 0x2755 JUMP JUMPDEST SWAP6 POP POP PUSH1 0x40 PUSH2 0x281C DUP10 DUP3 DUP11 ADD PUSH2 0x2755 JUMP JUMPDEST SWAP5 POP POP PUSH1 0x60 DUP8 ADD CALLDATALOAD PUSH8 0xFFFFFFFFFFFFFFFF DUP2 GT ISZERO PUSH2 0x283D JUMPI PUSH2 0x283C PUSH2 0x26D1 JUMP JUMPDEST JUMPDEST PUSH2 0x2849 DUP10 DUP3 DUP11 ADD PUSH2 0x2779 JUMP JUMPDEST SWAP4 POP SWAP4 POP POP PUSH1 0x80 PUSH2 0x285C DUP10 DUP3 DUP11 ADD PUSH2 0x2755 JUMP JUMPDEST SWAP2 POP POP SWAP3 SWAP6 POP SWAP3 SWAP6 POP SWAP3 SWAP6 JUMP JUMPDEST PUSH1 0x0 DUP1 PUSH1 0x40 DUP4 DUP6 SUB SLT ISZERO PUSH2 0x2880 JUMPI PUSH2 0x287F PUSH2 0x26CC JUMP JUMPDEST JUMPDEST PUSH1 0x0 PUSH2 0x288E DUP6 DUP3 DUP7 ADD PUSH2 0x271F JUMP JUMPDEST SWAP3 POP POP PUSH1 0x20 PUSH2 0x289F DUP6 DUP3 DUP7 ADD PUSH2 0x2755 JUMP JUMPDEST SWAP2 POP POP SWAP3 POP SWAP3 SWAP1 POP JUMP JUMPDEST PUSH2 0x28B2 DUP2 PUSH2 0x2734 JUMP JUMPDEST DUP3 MSTORE POP POP JUMP JUMPDEST PUSH1 0x0 DUP2 MLOAD SWAP1 POP SWAP2 SWAP1 POP JUMP JUMPDEST PUSH1 0x0 DUP3 DUP3 MSTORE PUSH1 0x20 DUP3 ADD SWAP1 POP SWAP3 SWAP2 POP POP JUMP JUMPDEST PUSH1 0x0 JUMPDEST DUP4 DUP2 LT ISZERO PUSH2 0x28F2 JUMPI DUP1 DUP3 ADD MLOAD DUP2 DUP5 ADD MSTORE PUSH1 0x20 DUP2 ADD SWAP1 POP PUSH2 0x28D7 JUMP JUMPDEST PUSH1 0x0 DUP5 DUP5 ADD MSTORE POP POP POP POP JUMP JUMPDEST PUSH1 0x0 PUSH1 0x1F NOT PUSH1 0x1F DUP4 ADD AND SWAP1 POP SWAP2 SWAP1 POP JUMP JUMPDEST PUSH1 0x0 PUSH2 0x291A DUP3 PUSH2 0x28B8 JUMP JUMPDEST PUSH2 0x2924 DUP2 DUP6 PUSH2 0x28C3 JUMP JUMPDEST SWAP4 POP PUSH2 0x2934 DUP2 DUP6 PUSH1 0x20 DUP7 ADD PUSH2 0x28D4 JUMP JUMPDEST PUSH2 0x293D DUP2 PUSH2 0x28FE JUMP JUMPDEST DUP5 ADD SWAP2 POP POP SWAP3 SWAP2 POP POP JUMP JUMPDEST PUSH1 0x0 PUSH1 0x80 DUP3 ADD SWAP1 POP PUSH2 0x295D PUSH1 0x0 DUP4 ADD DUP8 PUSH2 0x28A9 JUMP JUMPDEST PUSH2 0x296A PUSH1 0x20 DUP4 ADD DUP7 PUSH2 0x28A9 JUMP JUMPDEST DUP2 DUP2 SUB PUSH1 0x40 DUP4 ADD MSTORE PUSH2 0x297C DUP2 DUP6 PUSH2 0x290F JUMP JUMPDEST SWAP1 POP PUSH2 0x298B PUSH1 0x60 DUP4 ADD DUP5 PUSH2 0x28A9 JUMP JUMPDEST SWAP6 SWAP5 POP POP POP POP POP JUMP JUMPDEST PUSH1 0x0 PUSH1 0x20 DUP3 DUP5 SUB SLT ISZERO PUSH2 0x29AA JUMPI PUSH2 0x29A9 PUSH2 0x26CC JUMP JUMPDEST JUMPDEST PUSH1 0x0 PUSH2 0x29B8 DUP5 DUP3 DUP6 ADD PUSH2 0x2755 JUMP JUMPDEST SWAP2 POP POP SWAP3 SWAP2 POP POP JUMP JUMPDEST PUSH2 0x29CA DUP2 PUSH2 0x26F6 JUMP JUMPDEST DUP3 MSTORE POP POP JUMP JUMPDEST PUSH32 0x4E487B7100000000000000000000000000000000000000000000000000000000 PUSH1 0x0 MSTORE PUSH1 0x21 PUSH1 0x4 MSTORE PUSH1 0x24 PUSH1 0x0 REVERT JUMPDEST PUSH1 0x3 DUP2 LT PUSH2 0x2A10 JUMPI PUSH2 0x2A0F PUSH2 0x29D0 JUMP JUMPDEST JUMPDEST POP JUMP JUMPDEST PUSH1 0x0 DUP2 SWAP1 POP PUSH2 0x2A21 DUP3 PUSH2 0x29FF JUMP JUMPDEST SWAP2 SWAP1 POP JUMP JUMPDEST PUSH1 0x0 PUSH2 0x2A31 DUP3 PUSH2 0x2A13 JUMP JUMPDEST SWAP1 POP SWAP2 SWAP1 POP JUMP JUMPDEST PUSH2 0x2A41 DUP2 PUSH2 0x2A26 JUMP JUMPDEST DUP3 MSTORE POP POP JUMP JUMPDEST PUSH1 0x0 PUSH1 0x40 DUP3 ADD SWAP1 POP PUSH2 0x2A5C PUSH1 0x0 DUP4 ADD DUP6 PUSH2 0x29C1 JUMP JUMPDEST PUSH2 0x2A69 PUSH1 0x20 DUP4 ADD DUP5 PUSH2 0x2A38 JUMP JUMPDEST SWAP4 SWAP3 POP POP POP JUMP JUMPDEST PUSH1 0x3 DUP2 LT PUSH2 0x2A7D JUMPI PUSH1 0x0 DUP1 REVERT JUMPDEST POP JUMP JUMPDEST PUSH1 0x0 DUP2 CALLDATALOAD SWAP1 POP PUSH2 0x2A8F DUP2 PUSH2 0x2A70 JUMP JUMPDEST SWAP3 SWAP2 POP POP JUMP JUMPDEST PUSH1 0x0 PUSH1 0x20 DUP3 DUP5 SUB SLT ISZERO PUSH2 0x2AAB JUMPI PUSH2 0x2AAA PUSH2 0x26CC JUMP JUMPDEST JUMPDEST PUSH1 0x0 PUSH2 0x2AB9 DUP5 DUP3 DUP6 ADD PUSH2 0x2A80 JUMP JUMPDEST SWAP2 POP POP SWAP3 SWAP2 POP POP JUMP JUMPDEST PUSH1 0x0 PUSH1 0x20 DUP3 ADD SWAP1 POP PUSH2 0x2AD7 PUSH1 0x0 DUP4 ADD DUP5 PUSH2 0x28A9 JUMP JUMPDEST SWAP3 SWAP2 POP POP JUMP JUMPDEST PUSH1 0x0 DUP1 PUSH1 0x0 DUP1 PUSH1 0x0 DUP1 PUSH1 0xA0 DUP8 DUP10 SUB SLT ISZERO PUSH2 0x2AFA JUMPI PUSH2 0x2AF9 PUSH2 0x26CC JUMP JUMPDEST JUMPDEST PUSH1 0x0 PUSH2 0x2B08 DUP10 DUP3 DUP11 ADD PUSH2 0x2755 JUMP JUMPDEST SWAP7 POP POP PUSH1 0x20 PUSH2 0x2B19 DUP10 DUP3 DUP11 ADD PUSH2 0x2755 JUMP JUMPDEST SWAP6 POP POP PUSH1 0x40 DUP8 ADD CALLDATALOAD PUSH8 0xFFFFFFFFFFFFFFFF DUP2 GT ISZERO PUSH2 0x2B3A JUMPI PUSH2 0x2B39 PUSH2 0x26D1 JUMP JUMPDEST JUMPDEST PUSH2 0x2B46 DUP10 DUP3 DUP11 ADD PUSH2 0x2779 JUMP JUMPDEST SWAP5 POP SWAP5 POP POP PUSH1 0x60 PUSH2 0x2B59 DUP10 DUP3 DUP11 ADD PUSH2 0x2755 JUMP JUMPDEST SWAP3 POP POP PUSH1 0x80 PUSH2 0x2B6A DUP10 DUP3 DUP11 ADD PUSH2 0x271F JUMP JUMPDEST SWAP2 POP POP SWAP3 SWAP6 POP SWAP3 SWAP6 POP SWAP3 SWAP6 JUMP JUMPDEST PUSH1 0x0 PUSH1 0x20 DUP3 ADD SWAP1 POP PUSH2 0x2B8C PUSH1 0x0 DUP4 ADD DUP5 PUSH2 0x29C1 JUMP JUMPDEST SWAP3 SWAP2 POP POP JUMP JUMPDEST PUSH1 0x0 DUP1 REVERT JUMPDEST PUSH32 0x4E487B7100000000000000000000000000000000000000000000000000000000 PUSH1 0x0 MSTORE PUSH1 0x41 PUSH1 0x4 MSTORE PUSH1 0x24 PUSH1 0x0 REVERT JUMPDEST PUSH2 0x2BCF DUP3 PUSH2 0x28FE JUMP JUMPDEST DUP2 ADD DUP2 DUP2 LT PUSH8 0xFFFFFFFFFFFFFFFF DUP3 GT OR ISZERO PUSH2 0x2BEE JUMPI PUSH2 0x2BED PUSH2 0x2B97 JUMP JUMPDEST JUMPDEST DUP1 PUSH1 0x40 MSTORE POP POP POP JUMP JUMPDEST PUSH1 0x0 PUSH2 0x2C01 PUSH2 0x26C2 JUMP JUMPDEST SWAP1 POP PUSH2 0x2C0D DUP3 DUP3 PUSH2 0x2BC6 JUMP JUMPDEST SWAP2 SWAP1 POP JUMP JUMPDEST PUSH1 0x0 PUSH8 0xFFFFFFFFFFFFFFFF DUP3 GT ISZERO PUSH2 0x2C2D JUMPI PUSH2 0x2C2C PUSH2 0x2B97 JUMP JUMPDEST JUMPDEST PUSH2 0x2C36 DUP3 PUSH2 0x28FE JUMP JUMPDEST SWAP1 POP PUSH1 0x20 DUP2 ADD SWAP1 POP SWAP2 SWAP1 POP JUMP JUMPDEST DUP3 DUP2 DUP4 CALLDATACOPY PUSH1 0x0 DUP4 DUP4 ADD MSTORE POP POP POP JUMP JUMPDEST PUSH1 0x0 PUSH2 0x2C65 PUSH2 0x2C60 DUP5 PUSH2 0x2C12 JUMP JUMPDEST PUSH2 0x2BF7 JUMP JUMPDEST SWAP1 POP DUP3 DUP2 MSTORE PUSH1 0x20 DUP2 ADD DUP5 DUP5 DUP5 ADD GT ISZERO PUSH2 0x2C81 JUMPI PUSH2 0x2C80 PUSH2 0x2B92 JUMP JUMPDEST JUMPDEST PUSH2 0x2C8C DUP5 DUP3 DUP6 PUSH2 0x2C43 JUMP JUMPDEST POP SWAP4 SWAP3 POP POP POP JUMP JUMPDEST PUSH1 0x0 DUP3 PUSH1 0x1F DUP4 ADD SLT PUSH2 0x2CA9 JUMPI PUSH2 0x2CA8 PUSH2 0x276A JUMP JUMPDEST JUMPDEST DUP2 CALLDATALOAD PUSH2 0x2CB9 DUP5 DUP3 PUSH1 0x20 DUP7 ADD PUSH2 0x2C52 JUMP JUMPDEST SWAP2 POP POP SWAP3 SWAP2 POP POP JUMP JUMPDEST PUSH1 0x0 DUP1 PUSH1 0x0 DUP1 PUSH1 0x80 DUP6 DUP8 SUB SLT ISZERO PUSH2 0x2CDC JUMPI PUSH2 0x2CDB PUSH2 0x26CC JUMP JUMPDEST JUMPDEST PUSH1 0x0 PUSH2 0x2CEA DUP8 DUP3 DUP9 ADD PUSH2 0x271F JUMP JUMPDEST SWAP5 POP POP PUSH1 0x20 PUSH2 0x2CFB DUP8 DUP3 DUP9 ADD PUSH2 0x2755 JUMP JUMPDEST SWAP4 POP POP PUSH1 0x40 PUSH2 0x2D0C DUP8 DUP3 DUP9 ADD PUSH2 0x2755 JUMP JUMPDEST SWAP3 POP POP PUSH1 0x60 DUP6 ADD CALLDATALOAD PUSH8 0xFFFFFFFFFFFFFFFF DUP2 GT ISZERO PUSH2 0x2D2D JUMPI PUSH2 0x2D2C PUSH2 0x26D1 JUMP JUMPDEST JUMPDEST PUSH2 0x2D39 DUP8 DUP3 DUP9 ADD PUSH2 0x2C94 JUMP JUMPDEST SWAP2 POP POP SWAP3 SWAP6 SWAP2 SWAP5 POP SWAP3 POP JUMP JUMPDEST PUSH1 0x0 DUP1 PUSH1 0x40 DUP4 DUP6 SUB SLT ISZERO PUSH2 0x2D5C JUMPI PUSH2 0x2D5B PUSH2 0x26CC JUMP JUMPDEST JUMPDEST PUSH1 0x0 DUP4 ADD CALLDATALOAD PUSH8 0xFFFFFFFFFFFFFFFF DUP2 GT ISZERO PUSH2 0x2D7A JUMPI PUSH2 0x2D79 PUSH2 0x26D1 JUMP JUMPDEST JUMPDEST PUSH2 0x2D86 DUP6 DUP3 DUP7 ADD PUSH2 0x2C94 JUMP JUMPDEST SWAP3 POP POP PUSH1 0x20 PUSH2 0x2D97 DUP6 DUP3 DUP7 ADD PUSH2 0x271F JUMP JUMPDEST SWAP2 POP POP SWAP3 POP SWAP3 SWAP1 POP JUMP JUMPDEST PUSH1 0x0 PUSH1 0x20 DUP3 DUP5 SUB SLT ISZERO PUSH2 0x2DB7 JUMPI PUSH2 0x2DB6 PUSH2 0x26CC JUMP JUMPDEST JUMPDEST PUSH1 0x0 PUSH2 0x2DC5 DUP5 DUP3 DUP6 ADD PUSH2 0x271F JUMP JUMPDEST SWAP2 POP POP SWAP3 SWAP2 POP POP JUMP JUMPDEST PUSH1 0x0 PUSH1 0x40 DUP3 ADD SWAP1 POP PUSH2 0x2DE3 PUSH1 0x0 DUP4 ADD DUP6 PUSH2 0x2A38 JUMP JUMPDEST PUSH2 0x2DF0 PUSH1 0x20 DUP4 ADD DUP5 PUSH2 0x28A9 JUMP JUMPDEST SWAP4 SWAP3 POP POP POP JUMP JUMPDEST PUSH1 0x0 PUSH1 0x20 DUP3 DUP5 SUB SLT ISZERO PUSH2 0x2E0D JUMPI PUSH2 0x2E0C PUSH2 0x26CC JUMP JUMPDEST JUMPDEST PUSH1 0x0 DUP3 ADD CALLDATALOAD PUSH8 0xFFFFFFFFFFFFFFFF DUP2 GT ISZERO PUSH2 0x2E2B JUMPI PUSH2 0x2E2A PUSH2 0x26D1 JUMP JUMPDEST JUMPDEST PUSH2 0x2E37 DUP5 DUP3 DUP6 ADD PUSH2 0x2C94 JUMP JUMPDEST SWAP2 POP POP SWAP3 SWAP2 POP POP JUMP JUMPDEST PUSH1 0x0 DUP1 PUSH1 0x0 DUP1 PUSH1 0x80 DUP6 DUP8 SUB SLT ISZERO PUSH2 0x2E5A JUMPI PUSH2 0x2E59 PUSH2 0x26CC JUMP JUMPDEST JUMPDEST PUSH1 0x0 PUSH2 0x2E68 DUP8 DUP3 DUP9 ADD PUSH2 0x271F JUMP JUMPDEST SWAP5 POP POP PUSH1 0x20 PUSH2 0x2E79 DUP8 DUP3 DUP9 ADD PUSH2 0x2755 JUMP JUMPDEST SWAP4 POP POP PUSH1 0x40 PUSH2 0x2E8A DUP8 DUP3 DUP9 ADD PUSH2 0x2755 JUMP JUMPDEST SWAP3 POP POP PUSH1 0x60 PUSH2 0x2E9B DUP8 DUP3 DUP9 ADD PUSH2 0x271F JUMP JUMPDEST SWAP2 POP POP SWAP3 SWAP6 SWAP2 SWAP5 POP SWAP3 POP JUMP JUMPDEST POP JUMP JUMPDEST PUSH1 0x0 PUSH2 0x2EB7 PUSH1 0x0 DUP4 PUSH2 0x28C3 JUMP JUMPDEST SWAP2 POP PUSH2 0x2EC2 DUP3 PUSH2 0x2EA7 JUMP JUMPDEST PUSH1 0x0 DUP3 ADD SWAP1 POP SWAP2 SWAP1 POP JUMP JUMPDEST PUSH1 0x0 PUSH1 0x20 DUP3 ADD SWAP1 POP DUP2 DUP2 SUB PUSH1 0x0 DUP4 ADD MSTORE PUSH2 0x2EE6 DUP2 PUSH2 0x2EAA JUMP JUMPDEST SWAP1 POP SWAP2 SWAP1 POP JUMP JUMPDEST PUSH32 0xD09CD0B0D0B3D0B0D0B7D0B8D0BD20D0BDD0B520D181D0BED0BED182D0B2D0B5 PUSH1 0x0 DUP3 ADD MSTORE PUSH32 0xD182D181D0B2D183D0B5D18220D0BED182D0BFD180D0B0D0B2D0B8D182D0B5D0 PUSH1 0x20 DUP3 ADD MSTORE PUSH32 0xBBD18E0000000000000000000000000000000000000000000000000000000000 PUSH1 0x40 DUP3 ADD MSTORE POP JUMP JUMPDEST PUSH1 0x0 PUSH2 0x2F6F PUSH1 0x43 DUP4 PUSH2 0x28C3 JUMP JUMPDEST SWAP2 POP PUSH2 0x2F7A DUP3 PUSH2 0x2EED JUMP JUMPDEST PUSH1 0x60 DUP3 ADD SWAP1 POP SWAP2 SWAP1 POP JUMP JUMPDEST PUSH1 0x0 PUSH1 0x20 DUP3 ADD SWAP1 POP DUP2 DUP2 SUB PUSH1 0x0 DUP4 ADD MSTORE PUSH2 0x2F9E DUP2 PUSH2 0x2F62 JUMP JUMPDEST SWAP1 POP SWAP2 SWAP1 POP JUMP JUMPDEST PUSH32 0x4E487B7100000000000000000000000000000000000000000000000000000000 PUSH1 0x0 MSTORE PUSH1 0x22 PUSH1 0x4 MSTORE PUSH1 0x24 PUSH1 0x0 REVERT JUMPDEST PUSH1 0x0 PUSH1 0x2 DUP3 DIV SWAP1 POP PUSH1 0x1 DUP3 AND DUP1 PUSH2 0x2FEC JUMPI PUSH1 0x7F DUP3 AND SWAP2 POP JUMPDEST PUSH1 0x20 DUP3 LT DUP2 SUB PUSH2 0x2FFF JUMPI PUSH2 0x2FFE PUSH2 0x2FA5 JUMP JUMPDEST JUMPDEST POP SWAP2 SWAP1 POP JUMP JUMPDEST PUSH1 0x0 DUP2 SWAP1 POP DUP2 PUSH1 0x0 MSTORE PUSH1 0x20 PUSH1 0x0 KECCAK256 SWAP1 POP SWAP2 SWAP1 POP JUMP JUMPDEST PUSH1 0x0 PUSH1 0x20 PUSH1 0x1F DUP4 ADD DIV SWAP1 POP SWAP2 SWAP1 POP JUMP JUMPDEST PUSH1 0x0 DUP3 DUP3 SHL SWAP1 POP SWAP3 SWAP2 POP POP JUMP JUMPDEST PUSH1 0x0 PUSH1 0x8 DUP4 MUL PUSH2 0x3067 PUSH32 0xFFFFFFFFFFFFFFFFFFFFFFFFFFFFFFFFFFFFFFFFFFFFFFFFFFFFFFFFFFFFFFFF DUP3 PUSH2 0x302A JUMP JUMPDEST PUSH2 0x3071 DUP7 DUP4 PUSH2 0x302A JUMP JUMPDEST SWAP6 POP DUP1 NOT DUP5 AND SWAP4 POP DUP1 DUP7 AND DUP5 OR SWAP3 POP POP POP SWAP4 SWAP3 POP POP POP JUMP JUMPDEST PUSH1 0x0 DUP2 SWAP1 POP SWAP2 SWAP1 POP JUMP JUMPDEST PUSH1 0x0 PUSH2 0x30AE PUSH2 0x30A9 PUSH2 0x30A4 DUP5 PUSH2 0x2734 JUMP JUMPDEST PUSH2 0x3089 JUMP JUMPDEST PUSH2 0x2734 JUMP JUMPDEST SWAP1 POP SWAP2 SWAP1 POP JUMP JUMPDEST PUSH1 0x0 DUP2 SWAP1 POP SWAP2 SWAP1 POP JUMP JUMPDEST PUSH2 0x30C8 DUP4 PUSH2 0x3093 JUMP JUMPDEST PUSH2 0x30DC PUSH2 0x30D4 DUP3 PUSH2 0x30B5 JUMP JUMPDEST DUP5 DUP5 SLOAD PUSH2 0x3037 JUMP JUMPDEST DUP3 SSTORE POP POP POP POP JUMP JUMPDEST PUSH1 0x0 SWAP1 JUMP JUMPDEST PUSH2 0x30F1 PUSH2 0x30E4 JUMP JUMPDEST PUSH2 0x30FC DUP2 DUP5 DUP5 PUSH2 0x30BF JUMP JUMPDEST POP POP POP JUMP JUMPDEST JUMPDEST DUP2 DUP2 LT ISZERO PUSH2 0x3120 JUMPI PUSH2 0x3115 PUSH1 0x0 DUP3 PUSH2 0x30E9 JUMP JUMPDEST PUSH1 0x1 DUP2 ADD SWAP1 POP PUSH2 0x3102 JUMP JUMPDEST POP POP JUMP JUMPDEST PUSH1 0x1F DUP3 GT ISZERO PUSH2 0x3165 JUMPI PUSH2 0x3136 DUP2 PUSH2 0x3005 JUMP JUMPDEST PUSH2 0x313F DUP5 PUSH2 0x301A JUMP JUMPDEST DUP2 ADD PUSH1 0x20 DUP6 LT ISZERO PUSH2 0x314E JUMPI DUP2 SWAP1 POP JUMPDEST PUSH2 0x3162 PUSH2 0x315A DUP6 PUSH2 0x301A JUMP JUMPDEST DUP4 ADD DUP3 PUSH2 0x3101 JUMP JUMPDEST POP POP JUMPDEST POP POP POP JUMP JUMPDEST PUSH1 0x0 DUP3 DUP3 SHR SWAP1 POP SWAP3 SWAP2 POP POP JUMP JUMPDEST PUSH1 0x0 PUSH2 0x3188 PUSH1 0x0 NOT DUP5 PUSH1 0x8 MUL PUSH2 0x316A JUMP JUMPDEST NOT DUP1 DUP4 AND SWAP2 POP POP SWAP3 SWAP2 POP POP JUMP JUMPDEST PUSH1 0x0 PUSH2 0x31A1 DUP4 DUP4 PUSH2 0x3177 JUMP JUMPDEST SWAP2 POP DUP3 PUSH1 0x2 MUL DUP3 OR SWAP1 POP SWAP3 SWAP2 POP POP JUMP JUMPDEST PUSH2 0x31BA DUP3 PUSH2 0x28B8 JUMP JUMPDEST PUSH8 0xFFFFFFFFFFFFFFFF DUP2 GT ISZERO PUSH2 0x31D3 JUMPI PUSH2 0x31D2 PUSH2 0x2B97 JUMP JUMPDEST JUMPDEST PUSH2 0x31DD DUP3 SLOAD PUSH2 0x2FD4 JUMP JUMPDEST PUSH2 0x31E8 DUP3 DUP3 DUP6 PUSH2 0x3124 JUMP JUMPDEST PUSH1 0x0 PUSH1 0x20 SWAP1 POP PUSH1 0x1F DUP4 GT PUSH1 0x1 DUP2 EQ PUSH2 0x321B JUMPI PUSH1 0x0 DUP5 ISZERO PUSH2 0x3209 JUMPI DUP3 DUP8 ADD MLOAD SWAP1 POP JUMPDEST PUSH2 0x3213 DUP6 DUP3 PUSH2 0x3195 JUMP JUMPDEST DUP7 SSTORE POP PUSH2 0x327B JUMP JUMPDEST PUSH1 0x1F NOT DUP5 AND PUSH2 0x3229 DUP7 PUSH2 0x3005 JUMP JUMPDEST PUSH1 0x0 JUMPDEST DUP3 DUP2 LT ISZERO PUSH2 0x3251 JUMPI DUP5 DUP10 ADD MLOAD DUP3 SSTORE PUSH1 0x1 DUP3 ADD SWAP2 POP PUSH1 0x20 DUP6 ADD SWAP5 POP PUSH1 0x20 DUP2 ADD SWAP1 POP PUSH2 0x322C JUMP JUMPDEST DUP7 DUP4 LT ISZERO PUSH2 0x326E JUMPI DUP5 DUP10 ADD MLOAD PUSH2 0x326A PUSH1 0x1F DUP10 AND DUP3 PUSH2 0x3177 JUMP JUMPDEST DUP4 SSTORE POP JUMPDEST PUSH1 0x1 PUSH1 0x2 DUP9 MUL ADD DUP9 SSTORE POP POP POP JUMPDEST POP POP POP POP POP POP JUMP JUMPDEST PUSH32 0x4E487B7100000000000000000000000000000000000000000000000000000000 PUSH1 0x0 MSTORE PUSH1 0x32 PUSH1 0x4 MSTORE PUSH1 0x24 PUSH1 0x0 REVERT JUMPDEST PUSH32 0x4E487B7100000000000000000000000000000000000000000000000000000000 PUSH1 0x0 MSTORE PUSH1 0x11 PUSH1 0x4 MSTORE PUSH1 0x24 PUSH1 0x0 REVERT JUMPDEST PUSH1 0x0 PUSH2 0x32EC DUP3 PUSH2 0x2734 JUMP JUMPDEST SWAP2 POP PUSH2 0x32F7 DUP4 PUSH2 0x2734 JUMP JUMPDEST SWAP3 POP DUP3 DUP3 MUL PUSH2 0x3305 DUP2 PUSH2 0x2734 JUMP JUMPDEST SWAP2 POP DUP3 DUP3 DIV DUP5 EQ DUP4 ISZERO OR PUSH2 0x331C JUMPI PUSH2 0x331B PUSH2 0x32B2 JUMP JUMPDEST JUMPDEST POP SWAP3 SWAP2 POP POP JUMP JUMPDEST PUSH1 0x0 PUSH2 0x332E DUP3 PUSH2 0x2734 JUMP JUMPDEST SWAP2 POP PUSH2 0x3339 DUP4 PUSH2 0x2734 JUMP JUMPDEST SWAP3 POP DUP3 DUP3 ADD SWAP1 POP DUP1 DUP3 GT ISZERO PUSH2 0x3351 JUMPI PUSH2 0x3350 PUSH2 0x32B2 JUMP JUMPDEST JUMPDEST SWAP3 SWAP2 POP POP JUMP JUMPDEST PUSH1 0x0 PUSH2 0x3362 DUP3 PUSH2 0x2734 JUMP JUMPDEST SWAP2 POP PUSH2 0x336D DUP4 PUSH2 0x2734 JUMP JUMPDEST SWAP3 POP DUP3 DUP3 SUB SWAP1 POP DUP2 DUP2 GT ISZERO PUSH2 0x3385 JUMPI PUSH2 0x3384 PUSH2 0x32B2 JUMP JUMPDEST JUMPDEST SWAP3 SWAP2 POP POP JUMP JUMPDEST PUSH1 0x0 PUSH2 0x3396 DUP3 PUSH2 0x2734 JUMP JUMPDEST SWAP2 POP PUSH32 0xFFFFFFFFFFFFFFFFFFFFFFFFFFFFFFFFFFFFFFFFFFFFFFFFFFFFFFFFFFFFFFFF DUP3 SUB PUSH2 0x33C8 JUMPI PUSH2 0x33C7 PUSH2 0x32B2 JUMP JUMPDEST JUMPDEST PUSH1 0x1 DUP3 ADD SWAP1 POP SWAP2 SWAP1 POP JUMP JUMPDEST PUSH1 0x0 DUP2 SWAP1 POP SWAP2 SWAP1 POP JUMP JUMPDEST PUSH2 0x33EE PUSH2 0x33E9 DUP3 PUSH2 0x2734 JUMP JUMPDEST PUSH2 0x33D3 JUMP JUMPDEST DUP3 MSTORE POP POP JUMP JUMPDEST PUSH1 0x0 DUP2 PUSH1 0x60 SHL SWAP1 POP SWAP2 SWAP1 POP JUMP JUMPDEST PUSH1 0x0 PUSH2 0x340C DUP3 PUSH2 0x33F4 JUMP JUMPDEST SWAP1 POP SWAP2 SWAP1 POP JUMP JUMPDEST PUSH1 0x0 PUSH2 0x341E DUP3 PUSH2 0x3401 JUMP JUMPDEST SWAP1 POP SWAP2 SWAP1 POP JUMP JUMPDEST PUSH2 0x3436 PUSH2 0x3431 DUP3 PUSH2 0x26F6 JUMP JUMPDEST PUSH2 0x3413 JUMP JUMPDEST DUP3 MSTORE POP POP JUMP JUMPDEST PUSH1 0x0 PUSH2 0x3448 DUP3 DUP7 PUSH2 0x33DD JUMP JUMPDEST PUSH1 0x20 DUP3 ADD SWAP2 POP PUSH2 0x3458 DUP3 DUP6 PUSH2 0x3425 JUMP JUMPDEST PUSH1 0x14 DUP3 ADD SWAP2 POP PUSH2 0x3468 DUP3 DUP5 PUSH2 0x33DD JUMP JUMPDEST PUSH1 0x20 DUP3 ADD SWAP2 POP DUP2 SWAP1 POP SWAP5 SWAP4 POP POP POP POP JUMP JUMPDEST PUSH32 0x4E487B7100000000000000000000000000000000000000000000000000000000 PUSH1 0x0 MSTORE PUSH1 0x12 PUSH1 0x4 MSTORE PUSH1 0x24 PUSH1 0x0 REVERT JUMPDEST PUSH1 0x0 PUSH2 0x34B3 DUP3 PUSH2 0x2734 JUMP JUMPDEST SWAP2 POP PUSH2 0x34BE DUP4 PUSH2 0x2734 JUMP JUMPDEST SWAP3 POP DUP3 PUSH2 0x34CE JUMPI PUSH2 0x34CD PUSH2 0x3479 JUMP JUMPDEST JUMPDEST DUP3 DUP3 MOD SWAP1 POP SWAP3 SWAP2 POP POP JUMP JUMPDEST PUSH1 0x0 PUSH2 0x34E4 DUP3 PUSH2 0x2734 JUMP JUMPDEST SWAP2 POP PUSH2 0x34EF DUP4 PUSH2 0x2734 JUMP JUMPDEST SWAP3 POP DUP3 PUSH2 0x34FF JUMPI PUSH2 0x34FE PUSH2 0x3479 JUMP JUMPDEST JUMPDEST DUP3 DUP3 DIV SWAP1 POP SWAP3 SWAP2 POP POP JUMP JUMPDEST PUSH32 0x507572636861736520616D6F756E74206D757374206265206772656174657220 PUSH1 0x0 DUP3 ADD MSTORE PUSH32 0x7468616E20300000000000000000000000000000000000000000000000000000 PUSH1 0x20 DUP3 ADD MSTORE POP JUMP JUMPDEST PUSH1 0x0 PUSH2 0x3566 PUSH1 0x26 DUP4 PUSH2 0x28C3 JUMP JUMPDEST SWAP2 POP PUSH2 0x3571 DUP3 PUSH2 0x350A JUMP JUMPDEST PUSH1 0x40 DUP3 ADD SWAP1 POP SWAP2 SWAP1 POP JUMP JUMPDEST PUSH1 0x0 PUSH1 0x20 DUP3 ADD SWAP1 POP DUP2 DUP2 SUB PUSH1 0x0 DUP4 ADD MSTORE PUSH2 0x3595 DUP2 PUSH2 0x3559 JUMP JUMPDEST SWAP1 POP SWAP2 SWAP1 POP JUMP JUMPDEST PUSH32 0x496E76616C69642070726F647563742049440000000000000000000000000000 PUSH1 0x0 DUP3 ADD MSTORE POP JUMP JUMPDEST PUSH1 0x0 PUSH2 0x35D2 PUSH1 0x12 DUP4 PUSH2 0x28C3 JUMP JUMPDEST SWAP2 POP PUSH2 0x35DD DUP3 PUSH2 0x359C JUMP JUMPDEST PUSH1 0x20 DUP3 ADD SWAP1 POP SWAP2 SWAP1 POP JUMP JUMPDEST PUSH1 0x0 PUSH1 0x20 DUP3 ADD SWAP1 POP DUP2 DUP2 SUB PUSH1 0x0 DUP4 ADD MSTORE PUSH2 0x3601 DUP2 PUSH2 0x35C5 JUMP JUMPDEST SWAP1 POP SWAP2 SWAP1 POP JUMP JUMPDEST PUSH32 0x4E6F7420656E6F7567682073746F636B20617661696C61626C65000000000000 PUSH1 0x0 DUP3 ADD MSTORE POP JUMP JUMPDEST PUSH1 0x0 PUSH2 0x363E PUSH1 0x1A DUP4 PUSH2 0x28C3 JUMP JUMPDEST SWAP2 POP PUSH2 0x3649 DUP3 PUSH2 0x3608 JUMP JUMPDEST PUSH1 0x20 DUP3 ADD SWAP1 POP SWAP2 SWAP1 POP JUMP JUMPDEST PUSH1 0x0 PUSH1 0x20 DUP3 ADD SWAP1 POP DUP2 DUP2 SUB PUSH1 0x0 DUP4 ADD MSTORE PUSH2 0x366D DUP2 PUSH2 0x3631 JUMP JUMPDEST SWAP1 POP SWAP2 SWAP1 POP JUMP JUMPDEST PUSH1 0x0 DUP2 SWAP1 POP SWAP3 SWAP2 POP POP JUMP JUMPDEST PUSH1 0x0 PUSH2 0x368A DUP3 PUSH2 0x28B8 JUMP JUMPDEST PUSH2 0x3694 DUP2 DUP6 PUSH2 0x3674 JUMP JUMPDEST SWAP4 POP PUSH2 0x36A4 DUP2 DUP6 PUSH1 0x20 DUP7 ADD PUSH2 0x28D4 JUMP JUMPDEST DUP1 DUP5 ADD SWAP2 POP POP SWAP3 SWAP2 POP POP JUMP JUMPDEST PUSH1 0x0 PUSH2 0x36BC DUP3 DUP5 PUSH2 0x367F JUMP JUMPDEST SWAP2 POP DUP2 SWAP1 POP SWAP3 SWAP2 POP POP JUMP JUMPDEST PUSH32 0x496E73756666696369656E742066756E64732073656E74000000000000000000 PUSH1 0x0 DUP3 ADD MSTORE POP JUMP JUMPDEST PUSH1 0x0 PUSH2 0x36FD PUSH1 0x17 DUP4 PUSH2 0x28C3 JUMP JUMPDEST SWAP2 POP PUSH2 0x3708 DUP3 PUSH2 0x36C7 JUMP JUMPDEST PUSH1 0x20 DUP3 ADD SWAP1 POP SWAP2 SWAP1 POP JUMP JUMPDEST PUSH1 0x0 PUSH1 0x20 DUP3 ADD SWAP1 POP DUP2 DUP2 SUB PUSH1 0x0 DUP4 ADD MSTORE PUSH2 0x372C DUP2 PUSH2 0x36F0 JUMP JUMPDEST SWAP1 POP SWAP2 SWAP1 POP JUMP JUMPDEST PUSH1 0x0 DUP2 SWAP1 POP SWAP3 SWAP2 POP POP JUMP JUMPDEST PUSH1 0x0 DUP2 SWAP1 POP DUP2 PUSH1 0x0 MSTORE PUSH1 0x20 PUSH1 0x0 KECCAK256 SWAP1 POP SWAP2 SWAP1 POP JUMP JUMPDEST PUSH1 0x0 DUP2 SLOAD PUSH2 0x3760 DUP2 PUSH2 0x2FD4 JUMP JUMPDEST PUSH2 0x376A DUP2 DUP7 PUSH2 0x3733 JUMP JUMPDEST SWAP5 POP PUSH1 0x1 DUP3 AND PUSH1 0x0 DUP2 EQ PUSH2 0x3785 JUMPI PUSH1 0x1 DUP2 EQ PUSH2 0x379A JUMPI PUSH2 0x37CD JUMP JUMPDEST PUSH1 0xFF NOT DUP4 AND DUP7 MSTORE DUP2 ISZERO ISZERO DUP3 MUL DUP7 ADD SWAP4 POP PUSH2 0x37CD JUMP JUMPDEST PUSH2 0x37A3 DUP6 PUSH2 0x373E JUMP JUMPDEST PUSH1 0x0 JUMPDEST DUP4 DUP2 LT ISZERO PUSH2 0x37C5 JUMPI DUP2 SLOAD DUP2 DUP10 ADD MSTORE PUSH1 0x1 DUP3 ADD SWAP2 POP PUSH1 0x20 DUP2 ADD SWAP1 POP PUSH2 0x37A6 JUMP JUMPDEST DUP4 DUP9 ADD SWAP6 POP POP POP JUMPDEST POP POP POP SWAP3 SWAP2 POP POP JUMP JUMPDEST PUSH1 0x0 PUSH2 0x37E2 DUP3 DUP5 PUSH2 0x3753 JUMP JUMPDEST SWAP2 POP DUP2 SWAP1 POP SWAP3 SWAP2 POP POP JUMP INVALID LOG2 PUSH5 0x6970667358 0x22 SLT KECCAK256 0x49 MUL CALLDATALOAD PUSH8 0x58203346858DA88E CALLDATALOAD 0xD9 PUSH30 0xE387F9AF153DB6AB3A23306C39D4864E5A64736F6C634300081200330000 "
				},
				"gasEstimates": {
					"creation": {
						"codeDepositCost": "2874200",
						"executionCost": "27412",
						"totalCost": "2901612"
					},
					"external": {
						"addItems(address,uint256,uint256,string,uint256)": "infinite",
						"addItemsSupplier(uint256,uint256,string,uint256,address)": "infinite",
						"approveChangeRole(uint256)": "35768",
						"changeRole(uint8)": "73456",
						"genRef(string,address)": "infinite",
						"makeMarket()": "29718",
						"makeSupplier()": "29719",
						"makeUser()": "29695",
						"owner()": "2559",
						"purchase(address,uint256,uint256,string)": "infinite",
						"randMod(uint256)": "infinite",
						"referrals(string)": "infinite",
						"refillStore(address,uint256,uint256,address)": "infinite",
						"refund(address,uint256)": "infinite",
						"tickets(uint256)": "7397",
						"userProducts(address,uint256)": "infinite",
						"users(address)": "5193",
						"withdrawBal(address)": "infinite"
					}
				},
				"methodIdentifiers": {
					"addItems(address,uint256,uint256,string,uint256)": "03194133",
					"addItemsSupplier(uint256,uint256,string,uint256,address)": "861c2b6d",
					"approveChangeRole(uint256)": "6f764708",
					"changeRole(uint8)": "55dea0b3",
					"genRef(string,address)": "a1ba90b6",
					"makeMarket()": "66d0dc67",
					"makeSupplier()": "3dfe7dee",
					"makeUser()": "d18a524a",
					"owner()": "8da5cb5b",
					"purchase(address,uint256,uint256,string)": "9f1cd587",
					"randMod(uint256)": "805553e8",
					"referrals(string)": "d55768dd",
					"refillStore(address,uint256,uint256,address)": "fecd8f79",
					"refund(address,uint256)": "410085df",
					"tickets(uint256)": "50b44712",
					"userProducts(address,uint256)": "3d527883",
					"users(address)": "a87430ba",
					"withdrawBal(address)": "f67a2ad1"
				}
			},
			"storageLayout": {
				"storage": [
					{
						"astId": 9,
						"contract": "contracts/MarketPlace.sol:MarketPlace",
						"label": "tickets",
						"offset": 0,
						"slot": "0",
						"type": "t_array(t_struct(Ticket)26_storage)dyn_storage"
					},
					{
						"astId": 11,
						"contract": "contracts/MarketPlace.sol:MarketPlace",
						"label": "owner",
						"offset": 0,
						"slot": "1",
						"type": "t_address"
					},
					{
						"astId": 46,
						"contract": "contracts/MarketPlace.sol:MarketPlace",
						"label": "users",
						"offset": 0,
						"slot": "2",
						"type": "t_mapping(t_address,t_struct(User)32_storage)"
					},
					{
						"astId": 52,
						"contract": "contracts/MarketPlace.sol:MarketPlace",
						"label": "userProducts",
						"offset": 0,
						"slot": "3",
						"type": "t_mapping(t_address,t_array(t_struct(Product)41_storage)dyn_storage)"
					},
					{
						"astId": 56,
						"contract": "contracts/MarketPlace.sol:MarketPlace",
						"label": "referrals",
						"offset": 0,
						"slot": "4",
						"type": "t_mapping(t_string_memory_ptr,t_address)"
					}
				],
				"types": {
					"t_address": {
						"encoding": "inplace",
						"label": "address",
						"numberOfBytes": "20"
					},
					"t_array(t_struct(Product)41_storage)dyn_storage": {
						"base": "t_struct(Product)41_storage",
						"encoding": "dynamic_array",
						"label": "struct MarketPlace.Product[]",
						"numberOfBytes": "32"
					},
					"t_array(t_struct(Ticket)26_storage)dyn_storage": {
						"base": "t_struct(Ticket)26_storage",
						"encoding": "dynamic_array",
						"label": "struct MarketPlace.Ticket[]",
						"numberOfBytes": "32"
					},
					"t_enum(Role)5": {
						"encoding": "inplace",
						"label": "enum MarketPlace.Role",
						"numberOfBytes": "1"
					},
					"t_mapping(t_address,t_array(t_struct(Product)41_storage)dyn_storage)": {
						"encoding": "mapping",
						"key": "t_address",
						"label": "mapping(address => struct MarketPlace.Product[])",
						"numberOfBytes": "32",
						"value": "t_array(t_struct(Product)41_storage)dyn_storage"
					},
					"t_mapping(t_address,t_struct(User)32_storage)": {
						"encoding": "mapping",
						"key": "t_address",
						"label": "mapping(address => struct MarketPlace.User)",
						"numberOfBytes": "32",
						"value": "t_struct(User)32_storage"
					},
					"t_mapping(t_string_memory_ptr,t_address)": {
						"encoding": "mapping",
						"key": "t_string_memory_ptr",
						"label": "mapping(string => address)",
						"numberOfBytes": "32",
						"value": "t_address"
					},
					"t_string_memory_ptr": {
						"encoding": "bytes",
						"label": "string",
						"numberOfBytes": "32"
					},
					"t_string_storage": {
						"encoding": "bytes",
						"label": "string",
						"numberOfBytes": "32"
					},
					"t_struct(Product)41_storage": {
						"encoding": "inplace",
						"label": "struct MarketPlace.Product",
						"members": [
							{
								"astId": 34,
								"contract": "contracts/MarketPlace.sol:MarketPlace",
								"label": "inStock",
								"offset": 0,
								"slot": "0",
								"type": "t_uint256"
							},
							{
								"astId": 36,
								"contract": "contracts/MarketPlace.sol:MarketPlace",
								"label": "price",
								"offset": 0,
								"slot": "1",
								"type": "t_uint256"
							},
							{
								"astId": 38,
								"contract": "contracts/MarketPlace.sol:MarketPlace",
								"label": "name",
								"offset": 0,
								"slot": "2",
								"type": "t_string_storage"
							},
							{
								"astId": 40,
								"contract": "contracts/MarketPlace.sol:MarketPlace",
								"label": "expDate",
								"offset": 0,
								"slot": "3",
								"type": "t_uint256"
							}
						],
						"numberOfBytes": "128"
					},
					"t_struct(Ticket)26_storage": {
						"encoding": "inplace",
						"label": "struct MarketPlace.Ticket",
						"members": [
							{
								"astId": 22,
								"contract": "contracts/MarketPlace.sol:MarketPlace",
								"label": "userAddr",
								"offset": 0,
								"slot": "0",
								"type": "t_address"
							},
							{
								"astId": 25,
								"contract": "contracts/MarketPlace.sol:MarketPlace",
								"label": "role",
								"offset": 20,
								"slot": "0",
								"type": "t_enum(Role)5"
							}
						],
						"numberOfBytes": "32"
					},
					"t_struct(User)32_storage": {
						"encoding": "inplace",
						"label": "struct MarketPlace.User",
						"members": [
							{
								"astId": 29,
								"contract": "contracts/MarketPlace.sol:MarketPlace",
								"label": "role",
								"offset": 0,
								"slot": "0",
								"type": "t_enum(Role)5"
							},
							{
								"astId": 31,
								"contract": "contracts/MarketPlace.sol:MarketPlace",
								"label": "balance",
								"offset": 0,
								"slot": "1",
								"type": "t_uint256"
							}
						],
						"numberOfBytes": "64"
					},
					"t_uint256": {
						"encoding": "inplace",
						"label": "uint256",
						"numberOfBytes": "32"
					}
				}
			},
			"userdoc": {
				"kind": "user",
				"methods": {},
				"version": 1
			}
		}
	}
}