{
	"contracts/MarketPlace.sol": {
		"MarketPlace": {
			"abi": [
				{
					"inputs": [],
					"stateMutability": "nonpayable",
					"type": "constructor"
				},
				{
					"inputs": [
						{
							"internalType": "address",
							"name": "_shop",
							"type": "address"
						},
						{
							"internalType": "uint256",
							"name": "_inStock",
							"type": "uint256"
						},
						{
							"internalType": "uint256",
							"name": "_price",
							"type": "uint256"
						},
						{
							"internalType": "string",
							"name": "_name",
							"type": "string"
						},
						{
							"internalType": "uint256",
							"name": "_expDate",
							"type": "uint256"
						}
					],
					"name": "addItems",
					"outputs": [],
					"stateMutability": "nonpayable",
					"type": "function"
				},
				{
					"inputs": [
						{
							"internalType": "uint256",
							"name": "_inStock",
							"type": "uint256"
						},
						{
							"internalType": "uint256",
							"name": "_price",
							"type": "uint256"
						},
						{
							"internalType": "string",
							"name": "_name",
							"type": "string"
						},
						{
							"internalType": "uint256",
							"name": "_expDate",
							"type": "uint256"
						},
						{
							"internalType": "address",
							"name": "_addressSupp",
							"type": "address"
						}
					],
					"name": "addItemsSupplier",
					"outputs": [],
					"stateMutability": "nonpayable",
					"type": "function"
				},
				{
					"inputs": [
						{
							"internalType": "uint256",
							"name": "_idTicket",
							"type": "uint256"
						}
					],
					"name": "approveChangeRole",
					"outputs": [],
					"stateMutability": "nonpayable",
					"type": "function"
				},
				{
					"inputs": [
						{
							"internalType": "enum MarketPlace.Role",
							"name": "_role",
							"type": "uint8"
						}
					],
					"name": "changeRole",
					"outputs": [],
					"stateMutability": "nonpayable",
					"type": "function"
				},
				{
					"inputs": [
						{
							"internalType": "string",
							"name": "_nameRef",
							"type": "string"
						},
						{
							"internalType": "address",
							"name": "_user",
							"type": "address"
						}
					],
					"name": "genRef",
					"outputs": [],
					"stateMutability": "nonpayable",
					"type": "function"
				},
				{
					"inputs": [],
					"name": "makeMarket",
					"outputs": [],
					"stateMutability": "nonpayable",
					"type": "function"
				},
				{
					"inputs": [],
					"name": "makeSupplier",
					"outputs": [],
					"stateMutability": "nonpayable",
					"type": "function"
				},
				{
					"inputs": [],
					"name": "makeUser",
					"outputs": [],
					"stateMutability": "nonpayable",
					"type": "function"
				},
				{
					"inputs": [],
					"name": "owner",
					"outputs": [
						{
							"internalType": "address",
							"name": "",
							"type": "address"
						}
					],
					"stateMutability": "view",
					"type": "function"
				},
				{
					"inputs": [
						{
							"internalType": "address",
							"name": "_shop",
							"type": "address"
						},
						{
							"internalType": "uint256",
							"name": "_amount",
							"type": "uint256"
						},
						{
							"internalType": "uint256",
							"name": "_id",
							"type": "uint256"
						},
						{
							"internalType": "string",
							"name": "_ref",
							"type": "string"
						}
					],
					"name": "purchase",
					"outputs": [],
					"stateMutability": "payable",
					"type": "function"
				},
				{
					"inputs": [
						{
							"internalType": "uint256",
							"name": "_modulus",
							"type": "uint256"
						}
					],
					"name": "randMod",
					"outputs": [
						{
							"internalType": "uint256",
							"name": "",
							"type": "uint256"
						}
					],
					"stateMutability": "view",
					"type": "function"
				},
				{
					"inputs": [
						{
							"internalType": "string",
							"name": "",
							"type": "string"
						}
					],
					"name": "referrals",
					"outputs": [
						{
							"internalType": "address",
							"name": "",
							"type": "address"
						}
					],
					"stateMutability": "view",
					"type": "function"
				},
				{
					"inputs": [
						{
							"internalType": "address",
							"name": "_shop",
							"type": "address"
						},
						{
							"internalType": "uint256",
							"name": "_productId",
							"type": "uint256"
						},
						{
							"internalType": "uint256",
							"name": "_amount",
							"type": "uint256"
						},
						{
							"internalType": "address",
							"name": "_supplier",
							"type": "address"
						}
					],
					"name": "refillStore",
					"outputs": [],
					"stateMutability": "payable",
					"type": "function"
				},
				{
					"inputs": [
						{
							"internalType": "address",
							"name": "_shop",
							"type": "address"
						},
						{
							"internalType": "uint256",
							"name": "_productId",
							"type": "uint256"
						}
					],
					"name": "refund",
					"outputs": [],
					"stateMutability": "nonpayable",
					"type": "function"
				},
				{
					"inputs": [
						{
							"internalType": "uint256",
							"name": "_productId",
							"type": "uint256"
						},
						{
							"internalType": "address",
							"name": "_supplier",
							"type": "address"
						}
					],
					"name": "showProductsSupl",
					"outputs": [
						{
							"internalType": "uint256",
							"name": "",
							"type": "uint256"
						}
					],
					"stateMutability": "view",
					"type": "function"
				},
				{
					"inputs": [
						{
							"internalType": "uint256",
							"name": "",
							"type": "uint256"
						}
					],
					"name": "tickets",
					"outputs": [
						{
							"internalType": "address",
							"name": "userAddr",
							"type": "address"
						},
						{
							"internalType": "enum MarketPlace.Role",
							"name": "role",
							"type": "uint8"
						}
					],
					"stateMutability": "view",
					"type": "function"
				},
				{
					"inputs": [
						{
							"internalType": "address",
							"name": "",
							"type": "address"
						},
						{
							"internalType": "uint256",
							"name": "",
							"type": "uint256"
						}
					],
					"name": "userProducts",
					"outputs": [
						{
							"internalType": "uint256",
							"name": "inStock",
							"type": "uint256"
						},
						{
							"internalType": "uint256",
							"name": "price",
							"type": "uint256"
						},
						{
							"internalType": "string",
							"name": "name",
							"type": "string"
						},
						{
							"internalType": "uint256",
							"name": "expDate",
							"type": "uint256"
						}
					],
					"stateMutability": "view",
					"type": "function"
				},
				{
					"inputs": [
						{
							"internalType": "address",
							"name": "",
							"type": "address"
						}
					],
					"name": "users",
					"outputs": [
						{
							"internalType": "enum MarketPlace.Role",
							"name": "role",
							"type": "uint8"
						},
						{
							"internalType": "uint256",
							"name": "balance",
							"type": "uint256"
						}
					],
					"stateMutability": "view",
					"type": "function"
				},
				{
					"inputs": [
						{
							"internalType": "address",
							"name": "_shop",
							"type": "address"
						}
					],
					"name": "withdrawBal",
					"outputs": [],
					"stateMutability": "nonpayable",
					"type": "function"
				}
			],
			"devdoc": {
				"kind": "dev",
				"methods": {},
				"version": 1
			},
			"evm": {
				"assembly": "    /* \"contracts/MarketPlace.sol\":59:6388  contract MarketPlace {... */\n  mstore(0x40, 0x80)\n    /* \"contracts/MarketPlace.sol\":183:231  constructor(){... */\n  callvalue\n  dup1\n  iszero\n  tag_1\n  jumpi\n  0x00\n  dup1\n  revert\ntag_1:\n  pop\n    /* \"contracts/MarketPlace.sol\":214:224  msg.sender */\n  caller\n    /* \"contracts/MarketPlace.sol\":206:211  owner */\n  0x01\n  0x00\n    /* \"contracts/MarketPlace.sol\":206:224  owner = msg.sender */\n  0x0100\n  exp\n  dup2\n  sload\n  dup2\n  0xffffffffffffffffffffffffffffffffffffffff\n  mul\n  not\n  and\n  swap1\n  dup4\n  0xffffffffffffffffffffffffffffffffffffffff\n  and\n  mul\n  or\n  swap1\n  sstore\n  pop\n    /* \"contracts/MarketPlace.sol\":59:6388  contract MarketPlace {... */\n  dataSize(sub_0)\n  dup1\n  dataOffset(sub_0)\n  0x00\n  codecopy\n  0x00\n  return\nstop\n\nsub_0: assembly {\n        /* \"contracts/MarketPlace.sol\":59:6388  contract MarketPlace {... */\n      mstore(0x40, 0x80)\n      jumpi(tag_1, lt(calldatasize, 0x04))\n      shr(0xe0, calldataload(0x00))\n      dup1\n      0x805553e8\n      gt\n      tag_21\n      jumpi\n      dup1\n      0xa87430ba\n      gt\n      tag_22\n      jumpi\n      dup1\n      0xa87430ba\n      eq\n      tag_16\n      jumpi\n      dup1\n      0xd18a524a\n      eq\n      tag_17\n      jumpi\n      dup1\n      0xd55768dd\n      eq\n      tag_18\n      jumpi\n      dup1\n      0xf67a2ad1\n      eq\n      tag_19\n      jumpi\n      dup1\n      0xfecd8f79\n      eq\n      tag_20\n      jumpi\n      jump(tag_1)\n    tag_22:\n      dup1\n      0x805553e8\n      eq\n      tag_11\n      jumpi\n      dup1\n      0x861c2b6d\n      eq\n      tag_12\n      jumpi\n      dup1\n      0x8da5cb5b\n      eq\n      tag_13\n      jumpi\n      dup1\n      0x9f1cd587\n      eq\n      tag_14\n      jumpi\n      dup1\n      0xa1ba90b6\n      eq\n      tag_15\n      jumpi\n      jump(tag_1)\n    tag_21:\n      dup1\n      0x50b44712\n      gt\n      tag_23\n      jumpi\n      dup1\n      0x50b44712\n      eq\n      tag_6\n      jumpi\n      dup1\n      0x55dea0b3\n      eq\n      tag_7\n      jumpi\n      dup1\n      0x5cd58a90\n      eq\n      tag_8\n      jumpi\n      dup1\n      0x66d0dc67\n      eq\n      tag_9\n      jumpi\n      dup1\n      0x6f764708\n      eq\n      tag_10\n      jumpi\n      jump(tag_1)\n    tag_23:\n      dup1\n      0x03194133\n      eq\n      tag_2\n      jumpi\n      dup1\n      0x3d527883\n      eq\n      tag_3\n      jumpi\n      dup1\n      0x3dfe7dee\n      eq\n      tag_4\n      jumpi\n      dup1\n      0x410085df\n      eq\n      tag_5\n      jumpi\n    tag_1:\n      0x00\n      dup1\n      revert\n        /* \"contracts/MarketPlace.sol\":2257:2518  function addItems(address _shop, uint _inStock, uint _price, string calldata _name, uint _expDate) public AccessControl(Role.Market, _shop) {... */\n    tag_2:\n      callvalue\n      dup1\n      iszero\n      tag_24\n      jumpi\n      0x00\n      dup1\n      revert\n    tag_24:\n      pop\n      tag_25\n      0x04\n      dup1\n      calldatasize\n      sub\n      dup2\n      add\n      swap1\n      tag_26\n      swap2\n      swap1\n      tag_27\n      jump\t// in\n    tag_26:\n      tag_28\n      jump\t// in\n    tag_25:\n      stop\n        /* \"contracts/MarketPlace.sol\":531:580  mapping(address => Product[]) public userProducts */\n    tag_3:\n      callvalue\n      dup1\n      iszero\n      tag_29\n      jumpi\n      0x00\n      dup1\n      revert\n    tag_29:\n      pop\n      tag_30\n      0x04\n      dup1\n      calldatasize\n      sub\n      dup2\n      add\n      swap1\n      tag_31\n      swap2\n      swap1\n      tag_32\n      jump\t// in\n    tag_31:\n      tag_33\n      jump\t// in\n    tag_30:\n      mload(0x40)\n      tag_34\n      swap5\n      swap4\n      swap3\n      swap2\n      swap1\n      tag_35\n      jump\t// in\n    tag_34:\n      mload(0x40)\n      dup1\n      swap2\n      sub\n      swap1\n      return\n        /* \"contracts/MarketPlace.sol\":2064:2154  function makeSupplier() public {... */\n    tag_4:\n      callvalue\n      dup1\n      iszero\n      tag_36\n      jumpi\n      0x00\n      dup1\n      revert\n    tag_36:\n      pop\n      tag_37\n      tag_38\n      jump\t// in\n    tag_37:\n      stop\n        /* \"contracts/MarketPlace.sol\":4025:4628  function refund(address _shop, uint _productId) public {... */\n    tag_5:\n      callvalue\n      dup1\n      iszero\n      tag_39\n      jumpi\n      0x00\n      dup1\n      revert\n    tag_39:\n      pop\n      tag_40\n      0x04\n      dup1\n      calldatasize\n      sub\n      dup2\n      add\n      swap1\n      tag_41\n      swap2\n      swap1\n      tag_32\n      jump\t// in\n    tag_41:\n      tag_42\n      jump\t// in\n    tag_40:\n      stop\n        /* \"contracts/MarketPlace.sol\":127:150  Ticket[] public tickets */\n    tag_6:\n      callvalue\n      dup1\n      iszero\n      tag_43\n      jumpi\n      0x00\n      dup1\n      revert\n    tag_43:\n      pop\n      tag_44\n      0x04\n      dup1\n      calldatasize\n      sub\n      dup2\n      add\n      swap1\n      tag_45\n      swap2\n      swap1\n      tag_46\n      jump\t// in\n    tag_45:\n      tag_47\n      jump\t// in\n    tag_44:\n      mload(0x40)\n      tag_48\n      swap3\n      swap2\n      swap1\n      tag_49\n      jump\t// in\n    tag_48:\n      mload(0x40)\n      dup1\n      swap2\n      sub\n      swap1\n      return\n        /* \"contracts/MarketPlace.sol\":1285:1379  function changeRole(Role _role) public{... */\n    tag_7:\n      callvalue\n      dup1\n      iszero\n      tag_50\n      jumpi\n      0x00\n      dup1\n      revert\n    tag_50:\n      pop\n      tag_51\n      0x04\n      dup1\n      calldatasize\n      sub\n      dup2\n      add\n      swap1\n      tag_52\n      swap2\n      swap1\n      tag_53\n      jump\t// in\n    tag_52:\n      tag_54\n      jump\t// in\n    tag_51:\n      stop\n        /* \"contracts/MarketPlace.sol\":2524:2679  function showProductsSupl(uint _productId, address _supplier) public view returns(uint) {... */\n    tag_8:\n      callvalue\n      dup1\n      iszero\n      tag_55\n      jumpi\n      0x00\n      dup1\n      revert\n    tag_55:\n      pop\n      tag_56\n      0x04\n      dup1\n      calldatasize\n      sub\n      dup2\n      add\n      swap1\n      tag_57\n      swap2\n      swap1\n      tag_58\n      jump\t// in\n    tag_57:\n      tag_59\n      jump\t// in\n    tag_56:\n      mload(0x40)\n      tag_60\n      swap2\n      swap1\n      tag_61\n      jump\t// in\n    tag_60:\n      mload(0x40)\n      dup1\n      swap2\n      sub\n      swap1\n      return\n        /* \"contracts/MarketPlace.sol\":2160:2247  function makeMarket() public  {... */\n    tag_9:\n      callvalue\n      dup1\n      iszero\n      tag_62\n      jumpi\n      0x00\n      dup1\n      revert\n    tag_62:\n      pop\n      tag_63\n      tag_64\n      jump\t// in\n    tag_63:\n      stop\n        /* \"contracts/MarketPlace.sol\":1061:1279  function approveChangeRole(uint _idTicket) public OnlyOwner{... */\n    tag_10:\n      callvalue\n      dup1\n      iszero\n      tag_65\n      jumpi\n      0x00\n      dup1\n      revert\n    tag_65:\n      pop\n      tag_66\n      0x04\n      dup1\n      calldatasize\n      sub\n      dup2\n      add\n      swap1\n      tag_67\n      swap2\n      swap1\n      tag_46\n      jump\t// in\n    tag_67:\n      tag_68\n      jump\t// in\n    tag_66:\n      stop\n        /* \"contracts/MarketPlace.sol\":1385:1601  function randMod(uint _modulus) public view returns(uint)... */\n    tag_11:\n      callvalue\n      dup1\n      iszero\n      tag_69\n      jumpi\n      0x00\n      dup1\n      revert\n    tag_69:\n      pop\n      tag_70\n      0x04\n      dup1\n      calldatasize\n      sub\n      dup2\n      add\n      swap1\n      tag_71\n      swap2\n      swap1\n      tag_46\n      jump\t// in\n    tag_71:\n      tag_72\n      jump\t// in\n    tag_70:\n      mload(0x40)\n      tag_73\n      swap2\n      swap1\n      tag_61\n      jump\t// in\n    tag_73:\n      mload(0x40)\n      dup1\n      swap2\n      sub\n      swap1\n      return\n        /* \"contracts/MarketPlace.sol\":1758:2054  function addItemsSupplier(uint _inStock, uint _price, string calldata _name, uint _expDate, address _addressSupp) public AccessControl(Role.Supplier, _addressSupp) {... */\n    tag_12:\n      callvalue\n      dup1\n      iszero\n      tag_74\n      jumpi\n      0x00\n      dup1\n      revert\n    tag_74:\n      pop\n      tag_75\n      0x04\n      dup1\n      calldatasize\n      sub\n      dup2\n      add\n      swap1\n      tag_76\n      swap2\n      swap1\n      tag_77\n      jump\t// in\n    tag_76:\n      tag_78\n      jump\t// in\n    tag_75:\n      stop\n        /* \"contracts/MarketPlace.sol\":156:176  address public owner */\n    tag_13:\n      callvalue\n      dup1\n      iszero\n      tag_79\n      jumpi\n      0x00\n      dup1\n      revert\n    tag_79:\n      pop\n      tag_80\n      tag_81\n      jump\t// in\n    tag_80:\n      mload(0x40)\n      tag_82\n      swap2\n      swap1\n      tag_83\n      jump\t// in\n    tag_82:\n      mload(0x40)\n      dup1\n      swap2\n      sub\n      swap1\n      return\n        /* \"contracts/MarketPlace.sol\":4634:6243  function purchase(address _shop, uint _amount, uint _id, string memory _ref ) public payable {... */\n    tag_14:\n      tag_84\n      0x04\n      dup1\n      calldatasize\n      sub\n      dup2\n      add\n      swap1\n      tag_85\n      swap2\n      swap1\n      tag_86\n      jump\t// in\n    tag_85:\n      tag_87\n      jump\t// in\n    tag_84:\n      stop\n        /* \"contracts/MarketPlace.sol\":1607:1751  function genRef(string memory _nameRef, address _user) public {... */\n    tag_15:\n      callvalue\n      dup1\n      iszero\n      tag_88\n      jumpi\n      0x00\n      dup1\n      revert\n    tag_88:\n      pop\n      tag_89\n      0x04\n      dup1\n      calldatasize\n      sub\n      dup2\n      add\n      swap1\n      tag_90\n      swap2\n      swap1\n      tag_91\n      jump\t// in\n    tag_90:\n      tag_92\n      jump\t// in\n    tag_89:\n      stop\n        /* \"contracts/MarketPlace.sol\":488:525  mapping(address => User) public users */\n    tag_16:\n      callvalue\n      dup1\n      iszero\n      tag_93\n      jumpi\n      0x00\n      dup1\n      revert\n    tag_93:\n      pop\n      tag_94\n      0x04\n      dup1\n      calldatasize\n      sub\n      dup2\n      add\n      swap1\n      tag_95\n      swap2\n      swap1\n      tag_96\n      jump\t// in\n    tag_95:\n      tag_97\n      jump\t// in\n    tag_94:\n      mload(0x40)\n      tag_98\n      swap3\n      swap2\n      swap1\n      tag_99\n      jump\t// in\n    tag_98:\n      mload(0x40)\n      dup1\n      swap2\n      sub\n      swap1\n      return\n        /* \"contracts/MarketPlace.sol\":973:1055  function makeUser() public {... */\n    tag_17:\n      callvalue\n      dup1\n      iszero\n      tag_100\n      jumpi\n      0x00\n      dup1\n      revert\n    tag_100:\n      pop\n      tag_101\n      tag_102\n      jump\t// in\n    tag_101:\n      stop\n        /* \"contracts/MarketPlace.sol\":586:629  mapping(string => address) public referrals */\n    tag_18:\n      callvalue\n      dup1\n      iszero\n      tag_103\n      jumpi\n      0x00\n      dup1\n      revert\n    tag_103:\n      pop\n      tag_104\n      0x04\n      dup1\n      calldatasize\n      sub\n      dup2\n      add\n      swap1\n      tag_105\n      swap2\n      swap1\n      tag_106\n      jump\t// in\n    tag_105:\n      tag_107\n      jump\t// in\n    tag_104:\n      mload(0x40)\n      tag_108\n      swap2\n      swap1\n      tag_83\n      jump\t// in\n    tag_108:\n      mload(0x40)\n      dup1\n      swap2\n      sub\n      swap1\n      return\n        /* \"contracts/MarketPlace.sol\":6249:6386  function withdrawBal(address _shop) public {... */\n    tag_19:\n      callvalue\n      dup1\n      iszero\n      tag_109\n      jumpi\n      0x00\n      dup1\n      revert\n    tag_109:\n      pop\n      tag_110\n      0x04\n      dup1\n      calldatasize\n      sub\n      dup2\n      add\n      swap1\n      tag_111\n      swap2\n      swap1\n      tag_96\n      jump\t// in\n    tag_111:\n      tag_112\n      jump\t// in\n    tag_110:\n      stop\n        /* \"contracts/MarketPlace.sol\":2685:4019  function refillStore(address _shop, uint _productId, uint _amount, address _supplier) public payable AccessControl(Role.Market, _shop){... */\n    tag_20:\n      tag_113\n      0x04\n      dup1\n      calldatasize\n      sub\n      dup2\n      add\n      swap1\n      tag_114\n      swap2\n      swap1\n      tag_115\n      jump\t// in\n    tag_114:\n      tag_116\n      jump\t// in\n    tag_113:\n      stop\n        /* \"contracts/MarketPlace.sol\":2257:2518  function addItems(address _shop, uint _inStock, uint _price, string calldata _name, uint _expDate) public AccessControl(Role.Market, _shop) {... */\n    tag_28:\n        /* \"contracts/MarketPlace.sol\":2377:2388  Role.Market */\n      0x01\n        /* \"contracts/MarketPlace.sol\":2390:2395  _shop */\n      dup7\n        /* \"contracts/MarketPlace.sol\":816:821  _role */\n      dup2\n        /* \"contracts/MarketPlace.sol\":790:821  users[msg.sender].role == _role */\n      0x02\n      dup2\n      gt\n      iszero\n      tag_118\n      jumpi\n      tag_119\n      tag_120\n      jump\t// in\n    tag_119:\n    tag_118:\n        /* \"contracts/MarketPlace.sol\":790:795  users */\n      0x02\n        /* \"contracts/MarketPlace.sol\":790:807  users[msg.sender] */\n      0x00\n        /* \"contracts/MarketPlace.sol\":796:806  msg.sender */\n      caller\n        /* \"contracts/MarketPlace.sol\":790:807  users[msg.sender] */\n      0xffffffffffffffffffffffffffffffffffffffff\n      and\n      0xffffffffffffffffffffffffffffffffffffffff\n      and\n      dup2\n      mstore\n      0x20\n      add\n      swap1\n      dup2\n      mstore\n      0x20\n      add\n      0x00\n      keccak256\n        /* \"contracts/MarketPlace.sol\":790:812  users[msg.sender].role */\n      0x00\n      add\n      0x00\n      swap1\n      sload\n      swap1\n      0x0100\n      exp\n      swap1\n      div\n      0xff\n      and\n        /* \"contracts/MarketPlace.sol\":790:821  users[msg.sender].role == _role */\n      0x02\n      dup2\n      gt\n      iszero\n      tag_121\n      jumpi\n      tag_122\n      tag_120\n      jump\t// in\n    tag_122:\n    tag_121:\n      eq\n        /* \"contracts/MarketPlace.sol\":782:833  require(users[msg.sender].role == _role, unicode\"\") */\n      tag_123\n      jumpi\n      mload(0x40)\n      0x08c379a000000000000000000000000000000000000000000000000000000000\n      dup2\n      mstore\n      0x04\n      add\n      tag_124\n      swap1\n      tag_125\n      jump\t// in\n    tag_124:\n      mload(0x40)\n      dup1\n      swap2\n      sub\n      swap1\n      revert\n    tag_123:\n        /* \"contracts/MarketPlace.sol\":865:870  _shop */\n      dup1\n        /* \"contracts/MarketPlace.sol\":851:870  msg.sender == _shop */\n      0xffffffffffffffffffffffffffffffffffffffff\n      and\n        /* \"contracts/MarketPlace.sol\":851:861  msg.sender */\n      caller\n        /* \"contracts/MarketPlace.sol\":851:870  msg.sender == _shop */\n      0xffffffffffffffffffffffffffffffffffffffff\n      and\n      eq\n        /* \"contracts/MarketPlace.sol\":843:949  require(msg.sender == _shop, unicode\"Магазин не соответсвует отправителю\") */\n      tag_126\n      jumpi\n      mload(0x40)\n      0x08c379a000000000000000000000000000000000000000000000000000000000\n      dup2\n      mstore\n      0x04\n      add\n      tag_127\n      swap1\n      tag_128\n      jump\t// in\n    tag_127:\n      mload(0x40)\n      dup1\n      swap2\n      sub\n      swap1\n      revert\n    tag_126:\n        /* \"contracts/MarketPlace.sol\":2407:2426  Product memory item */\n      0x00\n        /* \"contracts/MarketPlace.sol\":2429:2471  Product(_inStock, _price, _name, _expDate) */\n      mload(0x40)\n      dup1\n      0x80\n      add\n      0x40\n      mstore\n      dup1\n        /* \"contracts/MarketPlace.sol\":2437:2445  _inStock */\n      dup10\n        /* \"contracts/MarketPlace.sol\":2429:2471  Product(_inStock, _price, _name, _expDate) */\n      dup2\n      mstore\n      0x20\n      add\n        /* \"contracts/MarketPlace.sol\":2447:2453  _price */\n      dup9\n        /* \"contracts/MarketPlace.sol\":2429:2471  Product(_inStock, _price, _name, _expDate) */\n      dup2\n      mstore\n      0x20\n      add\n        /* \"contracts/MarketPlace.sol\":2455:2460  _name */\n      dup8\n      dup8\n        /* \"contracts/MarketPlace.sol\":2429:2471  Product(_inStock, _price, _name, _expDate) */\n      dup1\n      dup1\n      0x1f\n      add\n      0x20\n      dup1\n      swap2\n      div\n      mul\n      0x20\n      add\n      mload(0x40)\n      swap1\n      dup2\n      add\n      0x40\n      mstore\n      dup1\n      swap4\n      swap3\n      swap2\n      swap1\n      dup2\n      dup2\n      mstore\n      0x20\n      add\n      dup4\n      dup4\n      dup1\n      dup3\n      dup5\n      calldatacopy\n      0x00\n      dup2\n      dup5\n      add\n      mstore\n      not(0x1f)\n      0x1f\n      dup3\n      add\n      and\n      swap1\n      pop\n      dup1\n      dup4\n      add\n      swap3\n      pop\n      pop\n      pop\n      pop\n      pop\n      pop\n      pop\n      dup2\n      mstore\n      0x20\n      add\n        /* \"contracts/MarketPlace.sol\":2462:2470  _expDate */\n      dup6\n        /* \"contracts/MarketPlace.sol\":2429:2471  Product(_inStock, _price, _name, _expDate) */\n      dup2\n      mstore\n      pop\n        /* \"contracts/MarketPlace.sol\":2407:2471  Product memory item = Product(_inStock, _price, _name, _expDate) */\n      swap1\n      pop\n        /* \"contracts/MarketPlace.sol\":2481:2493  userProducts */\n      0x03\n        /* \"contracts/MarketPlace.sol\":2481:2500  userProducts[_shop] */\n      0x00\n        /* \"contracts/MarketPlace.sol\":2494:2499  _shop */\n      dup11\n        /* \"contracts/MarketPlace.sol\":2481:2500  userProducts[_shop] */\n      0xffffffffffffffffffffffffffffffffffffffff\n      and\n      0xffffffffffffffffffffffffffffffffffffffff\n      and\n      dup2\n      mstore\n      0x20\n      add\n      swap1\n      dup2\n      mstore\n      0x20\n      add\n      0x00\n      keccak256\n        /* \"contracts/MarketPlace.sol\":2506:2510  item */\n      dup2\n        /* \"contracts/MarketPlace.sol\":2481:2511  userProducts[_shop].push(item) */\n      swap1\n      dup1\n      0x01\n      dup2\n      sload\n      add\n      dup1\n      dup3\n      sstore\n      dup1\n      swap2\n      pop\n      pop\n      0x01\n      swap1\n      sub\n      swap1\n      0x00\n      mstore\n      keccak256(0x00, 0x20)\n      swap1\n      0x04\n      mul\n      add\n      0x00\n      swap1\n      swap2\n      swap1\n      swap2\n      swap1\n      swap2\n      pop\n      0x00\n      dup3\n      add\n      mload\n      dup2\n      0x00\n      add\n      sstore\n      0x20\n      dup3\n      add\n      mload\n      dup2\n      0x01\n      add\n      sstore\n      0x40\n      dup3\n      add\n      mload\n      dup2\n      0x02\n      add\n      swap1\n      dup2\n      tag_131\n      swap2\n      swap1\n      tag_132\n      jump\t// in\n    tag_131:\n      pop\n      0x60\n      dup3\n      add\n      mload\n      dup2\n      0x03\n      add\n      sstore\n      pop\n      pop\n        /* \"contracts/MarketPlace.sol\":2397:2518  {... */\n      pop\n        /* \"contracts/MarketPlace.sol\":2257:2518  function addItems(address _shop, uint _inStock, uint _price, string calldata _name, uint _expDate) public AccessControl(Role.Market, _shop) {... */\n      pop\n      pop\n      pop\n      pop\n      pop\n      pop\n      pop\n      pop\n      jump\t// out\n        /* \"contracts/MarketPlace.sol\":531:580  mapping(address => Product[]) public userProducts */\n    tag_33:\n      mstore(0x20, 0x03)\n      dup2\n      0x00\n      mstore\n      keccak256(0x00, 0x40)\n      dup2\n      dup2\n      sload\n      dup2\n      lt\n      tag_133\n      jumpi\n      0x00\n      dup1\n      revert\n    tag_133:\n      swap1\n      0x00\n      mstore\n      keccak256(0x00, 0x20)\n      swap1\n      0x04\n      mul\n      add\n      0x00\n      swap2\n      pop\n      swap2\n      pop\n      pop\n      dup1\n      0x00\n      add\n      sload\n      swap1\n      dup1\n      0x01\n      add\n      sload\n      swap1\n      dup1\n      0x02\n      add\n      dup1\n      sload\n      tag_135\n      swap1\n      tag_136\n      jump\t// in\n    tag_135:\n      dup1\n      0x1f\n      add\n      0x20\n      dup1\n      swap2\n      div\n      mul\n      0x20\n      add\n      mload(0x40)\n      swap1\n      dup2\n      add\n      0x40\n      mstore\n      dup1\n      swap3\n      swap2\n      swap1\n      dup2\n      dup2\n      mstore\n      0x20\n      add\n      dup3\n      dup1\n      sload\n      tag_137\n      swap1\n      tag_136\n      jump\t// in\n    tag_137:\n      dup1\n      iszero\n      tag_138\n      jumpi\n      dup1\n      0x1f\n      lt\n      tag_139\n      jumpi\n      0x0100\n      dup1\n      dup4\n      sload\n      div\n      mul\n      dup4\n      mstore\n      swap2\n      0x20\n      add\n      swap2\n      jump(tag_138)\n    tag_139:\n      dup3\n      add\n      swap2\n      swap1\n      0x00\n      mstore\n      keccak256(0x00, 0x20)\n      swap1\n    tag_140:\n      dup2\n      sload\n      dup2\n      mstore\n      swap1\n      0x01\n      add\n      swap1\n      0x20\n      add\n      dup1\n      dup4\n      gt\n      tag_140\n      jumpi\n      dup3\n      swap1\n      sub\n      0x1f\n      and\n      dup3\n      add\n      swap2\n    tag_138:\n      pop\n      pop\n      pop\n      pop\n      pop\n      swap1\n      dup1\n      0x03\n      add\n      sload\n      swap1\n      pop\n      dup5\n      jump\t// out\n        /* \"contracts/MarketPlace.sol\":2064:2154  function makeSupplier() public {... */\n    tag_38:\n        /* \"contracts/MarketPlace.sol\":2125:2147  User(Role.Supplier, 0) */\n      mload(0x40)\n      dup1\n      0x40\n      add\n      0x40\n      mstore\n      dup1\n        /* \"contracts/MarketPlace.sol\":2130:2143  Role.Supplier */\n      0x02\n        /* \"contracts/MarketPlace.sol\":2125:2147  User(Role.Supplier, 0) */\n      dup1\n      dup2\n      gt\n      iszero\n      tag_142\n      jumpi\n      tag_143\n      tag_120\n      jump\t// in\n    tag_143:\n    tag_142:\n      dup2\n      mstore\n      0x20\n      add\n        /* \"contracts/MarketPlace.sol\":2145:2146  0 */\n      0x00\n        /* \"contracts/MarketPlace.sol\":2125:2147  User(Role.Supplier, 0) */\n      dup2\n      mstore\n      pop\n        /* \"contracts/MarketPlace.sol\":2105:2110  users */\n      0x02\n        /* \"contracts/MarketPlace.sol\":2105:2122  users[msg.sender] */\n      0x00\n        /* \"contracts/MarketPlace.sol\":2111:2121  msg.sender */\n      caller\n        /* \"contracts/MarketPlace.sol\":2105:2122  users[msg.sender] */\n      0xffffffffffffffffffffffffffffffffffffffff\n      and\n      0xffffffffffffffffffffffffffffffffffffffff\n      and\n      dup2\n      mstore\n      0x20\n      add\n      swap1\n      dup2\n      mstore\n      0x20\n      add\n      0x00\n      keccak256\n        /* \"contracts/MarketPlace.sol\":2105:2147  users[msg.sender] = User(Role.Supplier, 0) */\n      0x00\n      dup3\n      add\n      mload\n      dup2\n      0x00\n      add\n      exp(0x0100, 0x00)\n      dup2\n      sload\n      dup2\n      0xff\n      mul\n      not\n      and\n      swap1\n      dup4\n      0x02\n      dup2\n      gt\n      iszero\n      tag_144\n      jumpi\n      tag_145\n      tag_120\n      jump\t// in\n    tag_145:\n    tag_144:\n      mul\n      or\n      swap1\n      sstore\n      pop\n      0x20\n      dup3\n      add\n      mload\n      dup2\n      0x01\n      add\n      sstore\n      swap1\n      pop\n      pop\n        /* \"contracts/MarketPlace.sol\":2064:2154  function makeSupplier() public {... */\n      jump\t// out\n        /* \"contracts/MarketPlace.sol\":4025:4628  function refund(address _shop, uint _productId) public {... */\n    tag_42:\n        /* \"contracts/MarketPlace.sol\":4090:4102  uint userExp */\n      0x00\n        /* \"contracts/MarketPlace.sol\":4105:4117  userProducts */\n      0x03\n        /* \"contracts/MarketPlace.sol\":4105:4129  userProducts[msg.sender] */\n      0x00\n        /* \"contracts/MarketPlace.sol\":4118:4128  msg.sender */\n      caller\n        /* \"contracts/MarketPlace.sol\":4105:4129  userProducts[msg.sender] */\n      0xffffffffffffffffffffffffffffffffffffffff\n      and\n      0xffffffffffffffffffffffffffffffffffffffff\n      and\n      dup2\n      mstore\n      0x20\n      add\n      swap1\n      dup2\n      mstore\n      0x20\n      add\n      0x00\n      keccak256\n        /* \"contracts/MarketPlace.sol\":4130:4140  _productId */\n      dup3\n        /* \"contracts/MarketPlace.sol\":4105:4141  userProducts[msg.sender][_productId] */\n      dup2\n      sload\n      dup2\n      lt\n      tag_147\n      jumpi\n      tag_148\n      tag_149\n      jump\t// in\n    tag_148:\n    tag_147:\n      swap1\n      0x00\n      mstore\n      keccak256(0x00, 0x20)\n      swap1\n      0x04\n      mul\n      add\n        /* \"contracts/MarketPlace.sol\":4105:4149  userProducts[msg.sender][_productId].expDate */\n      0x03\n      add\n      sload\n        /* \"contracts/MarketPlace.sol\":4090:4149  uint userExp = userProducts[msg.sender][_productId].expDate */\n      swap1\n      pop\n        /* \"contracts/MarketPlace.sol\":4159:4171  uint shopExp */\n      0x00\n        /* \"contracts/MarketPlace.sol\":4174:4186  userProducts */\n      0x03\n        /* \"contracts/MarketPlace.sol\":4174:4193  userProducts[_shop] */\n      0x00\n        /* \"contracts/MarketPlace.sol\":4187:4192  _shop */\n      dup6\n        /* \"contracts/MarketPlace.sol\":4174:4193  userProducts[_shop] */\n      0xffffffffffffffffffffffffffffffffffffffff\n      and\n      0xffffffffffffffffffffffffffffffffffffffff\n      and\n      dup2\n      mstore\n      0x20\n      add\n      swap1\n      dup2\n      mstore\n      0x20\n      add\n      0x00\n      keccak256\n        /* \"contracts/MarketPlace.sol\":4194:4204  _productId */\n      dup4\n        /* \"contracts/MarketPlace.sol\":4174:4205  userProducts[_shop][_productId] */\n      dup2\n      sload\n      dup2\n      lt\n      tag_151\n      jumpi\n      tag_152\n      tag_149\n      jump\t// in\n    tag_152:\n    tag_151:\n      swap1\n      0x00\n      mstore\n      keccak256(0x00, 0x20)\n      swap1\n      0x04\n      mul\n      add\n        /* \"contracts/MarketPlace.sol\":4174:4213  userProducts[_shop][_productId].expDate */\n      0x03\n      add\n      sload\n        /* \"contracts/MarketPlace.sol\":4159:4213  uint shopExp = userProducts[_shop][_productId].expDate */\n      swap1\n      pop\n        /* \"contracts/MarketPlace.sol\":4241:4248  shopExp */\n      dup1\n        /* \"contracts/MarketPlace.sol\":4231:4238  userExp */\n      dup3\n        /* \"contracts/MarketPlace.sol\":4231:4248  userExp > shopExp */\n      gt\n        /* \"contracts/MarketPlace.sol\":4223:4249  require(userExp > shopExp) */\n      tag_154\n      jumpi\n      0x00\n      dup1\n      revert\n    tag_154:\n        /* \"contracts/MarketPlace.sol\":4259:4275  uint totalRefSum */\n      0x00\n        /* \"contracts/MarketPlace.sol\":4366:4373  1 ether */\n      0x0de0b6b3a7640000\n        /* \"contracts/MarketPlace.sol\":4326:4338  userProducts */\n      0x03\n        /* \"contracts/MarketPlace.sol\":4326:4345  userProducts[_shop] */\n      0x00\n        /* \"contracts/MarketPlace.sol\":4339:4344  _shop */\n      dup8\n        /* \"contracts/MarketPlace.sol\":4326:4345  userProducts[_shop] */\n      0xffffffffffffffffffffffffffffffffffffffff\n      and\n      0xffffffffffffffffffffffffffffffffffffffff\n      and\n      dup2\n      mstore\n      0x20\n      add\n      swap1\n      dup2\n      mstore\n      0x20\n      add\n      0x00\n      keccak256\n        /* \"contracts/MarketPlace.sol\":4346:4356  _productId */\n      dup6\n        /* \"contracts/MarketPlace.sol\":4326:4357  userProducts[_shop][_productId] */\n      dup2\n      sload\n      dup2\n      lt\n      tag_155\n      jumpi\n      tag_156\n      tag_149\n      jump\t// in\n    tag_156:\n    tag_155:\n      swap1\n      0x00\n      mstore\n      keccak256(0x00, 0x20)\n      swap1\n      0x04\n      mul\n      add\n        /* \"contracts/MarketPlace.sol\":4326:4363  userProducts[_shop][_productId].price */\n      0x01\n      add\n      sload\n        /* \"contracts/MarketPlace.sol\":4279:4291  userProducts */\n      0x03\n        /* \"contracts/MarketPlace.sol\":4279:4303  userProducts[msg.sender] */\n      0x00\n        /* \"contracts/MarketPlace.sol\":4292:4302  msg.sender */\n      caller\n        /* \"contracts/MarketPlace.sol\":4279:4303  userProducts[msg.sender] */\n      0xffffffffffffffffffffffffffffffffffffffff\n      and\n      0xffffffffffffffffffffffffffffffffffffffff\n      and\n      dup2\n      mstore\n      0x20\n      add\n      swap1\n      dup2\n      mstore\n      0x20\n      add\n      0x00\n      keccak256\n        /* \"contracts/MarketPlace.sol\":4304:4314  _productId */\n      dup7\n        /* \"contracts/MarketPlace.sol\":4279:4315  userProducts[msg.sender][_productId] */\n      dup2\n      sload\n      dup2\n      lt\n      tag_158\n      jumpi\n      tag_159\n      tag_149\n      jump\t// in\n    tag_159:\n    tag_158:\n      swap1\n      0x00\n      mstore\n      keccak256(0x00, 0x20)\n      swap1\n      0x04\n      mul\n      add\n        /* \"contracts/MarketPlace.sol\":4279:4323  userProducts[msg.sender][_productId].inStock */\n      0x00\n      add\n      sload\n        /* \"contracts/MarketPlace.sol\":4279:4363  userProducts[msg.sender][_productId].inStock * userProducts[_shop][_productId].price */\n      tag_161\n      swap2\n      swap1\n      tag_162\n      jump\t// in\n    tag_161:\n        /* \"contracts/MarketPlace.sol\":4279:4373  userProducts[msg.sender][_productId].inStock * userProducts[_shop][_productId].price * 1 ether */\n      tag_163\n      swap2\n      swap1\n      tag_162\n      jump\t// in\n    tag_163:\n        /* \"contracts/MarketPlace.sol\":4259:4373  uint totalRefSum =  userProducts[msg.sender][_productId].inStock * userProducts[_shop][_productId].price * 1 ether */\n      swap1\n      pop\n        /* \"contracts/MarketPlace.sol\":4426:4438  userProducts */\n      0x03\n        /* \"contracts/MarketPlace.sol\":4426:4450  userProducts[msg.sender] */\n      0x00\n        /* \"contracts/MarketPlace.sol\":4439:4449  msg.sender */\n      caller\n        /* \"contracts/MarketPlace.sol\":4426:4450  userProducts[msg.sender] */\n      0xffffffffffffffffffffffffffffffffffffffff\n      and\n      0xffffffffffffffffffffffffffffffffffffffff\n      and\n      dup2\n      mstore\n      0x20\n      add\n      swap1\n      dup2\n      mstore\n      0x20\n      add\n      0x00\n      keccak256\n        /* \"contracts/MarketPlace.sol\":4451:4461  _productId */\n      dup5\n        /* \"contracts/MarketPlace.sol\":4426:4462  userProducts[msg.sender][_productId] */\n      dup2\n      sload\n      dup2\n      lt\n      tag_164\n      jumpi\n      tag_165\n      tag_149\n      jump\t// in\n    tag_165:\n    tag_164:\n      swap1\n      0x00\n      mstore\n      keccak256(0x00, 0x20)\n      swap1\n      0x04\n      mul\n      add\n        /* \"contracts/MarketPlace.sol\":4426:4470  userProducts[msg.sender][_productId].inStock */\n      0x00\n      add\n      sload\n        /* \"contracts/MarketPlace.sol\":4383:4395  userProducts */\n      0x03\n        /* \"contracts/MarketPlace.sol\":4383:4402  userProducts[_shop] */\n      0x00\n        /* \"contracts/MarketPlace.sol\":4396:4401  _shop */\n      dup8\n        /* \"contracts/MarketPlace.sol\":4383:4402  userProducts[_shop] */\n      0xffffffffffffffffffffffffffffffffffffffff\n      and\n      0xffffffffffffffffffffffffffffffffffffffff\n      and\n      dup2\n      mstore\n      0x20\n      add\n      swap1\n      dup2\n      mstore\n      0x20\n      add\n      0x00\n      keccak256\n        /* \"contracts/MarketPlace.sol\":4403:4413  _productId */\n      dup6\n        /* \"contracts/MarketPlace.sol\":4383:4414  userProducts[_shop][_productId] */\n      dup2\n      sload\n      dup2\n      lt\n      tag_167\n      jumpi\n      tag_168\n      tag_149\n      jump\t// in\n    tag_168:\n    tag_167:\n      swap1\n      0x00\n      mstore\n      keccak256(0x00, 0x20)\n      swap1\n      0x04\n      mul\n      add\n        /* \"contracts/MarketPlace.sol\":4383:4422  userProducts[_shop][_productId].inStock */\n      0x00\n      add\n      0x00\n        /* \"contracts/MarketPlace.sol\":4383:4470  userProducts[_shop][_productId].inStock += userProducts[msg.sender][_productId].inStock */\n      dup3\n      dup3\n      sload\n      tag_170\n      swap2\n      swap1\n      tag_171\n      jump\t// in\n    tag_170:\n      swap3\n      pop\n      pop\n      dup2\n      swap1\n      sstore\n      pop\n        /* \"contracts/MarketPlace.sol\":4487:4499  userProducts */\n      0x03\n        /* \"contracts/MarketPlace.sol\":4487:4511  userProducts[msg.sender] */\n      0x00\n        /* \"contracts/MarketPlace.sol\":4500:4510  msg.sender */\n      caller\n        /* \"contracts/MarketPlace.sol\":4487:4511  userProducts[msg.sender] */\n      0xffffffffffffffffffffffffffffffffffffffff\n      and\n      0xffffffffffffffffffffffffffffffffffffffff\n      and\n      dup2\n      mstore\n      0x20\n      add\n      swap1\n      dup2\n      mstore\n      0x20\n      add\n      0x00\n      keccak256\n        /* \"contracts/MarketPlace.sol\":4512:4522  _productId */\n      dup5\n        /* \"contracts/MarketPlace.sol\":4487:4523  userProducts[msg.sender][_productId] */\n      dup2\n      sload\n      dup2\n      lt\n      tag_172\n      jumpi\n      tag_173\n      tag_149\n      jump\t// in\n    tag_173:\n    tag_172:\n      swap1\n      0x00\n      mstore\n      keccak256(0x00, 0x20)\n      swap1\n      0x04\n      mul\n      add\n      0x00\n        /* \"contracts/MarketPlace.sol\":4480:4523  delete userProducts[msg.sender][_productId] */\n      dup1\n      dup3\n      add\n      0x00\n      swap1\n      sstore\n      0x01\n      dup3\n      add\n      0x00\n      swap1\n      sstore\n      0x02\n      dup3\n      add\n      0x00\n      tag_175\n      swap2\n      swap1\n      tag_176\n      jump\t// in\n    tag_175:\n      0x03\n      dup3\n      add\n      0x00\n      swap1\n      sstore\n      pop\n      pop\n        /* \"contracts/MarketPlace.sol\":4557:4568  totalRefSum */\n      dup1\n        /* \"contracts/MarketPlace.sol\":4533:4538  users */\n      0x02\n        /* \"contracts/MarketPlace.sol\":4533:4545  users[_shop] */\n      0x00\n        /* \"contracts/MarketPlace.sol\":4539:4544  _shop */\n      dup8\n        /* \"contracts/MarketPlace.sol\":4533:4545  users[_shop] */\n      0xffffffffffffffffffffffffffffffffffffffff\n      and\n      0xffffffffffffffffffffffffffffffffffffffff\n      and\n      dup2\n      mstore\n      0x20\n      add\n      swap1\n      dup2\n      mstore\n      0x20\n      add\n      0x00\n      keccak256\n        /* \"contracts/MarketPlace.sol\":4533:4553  users[_shop].balance */\n      0x01\n      add\n      0x00\n        /* \"contracts/MarketPlace.sol\":4533:4568  users[_shop].balance -= totalRefSum */\n      dup3\n      dup3\n      sload\n      tag_177\n      swap2\n      swap1\n      tag_178\n      jump\t// in\n    tag_177:\n      swap3\n      pop\n      pop\n      dup2\n      swap1\n      sstore\n      pop\n        /* \"contracts/MarketPlace.sol\":4586:4596  msg.sender */\n      caller\n        /* \"contracts/MarketPlace.sol\":4578:4606  payable(msg.sender).transfer */\n      0xffffffffffffffffffffffffffffffffffffffff\n      and\n        /* \"contracts/MarketPlace.sol\":4578:4619  payable(msg.sender).transfer(totalRefSum) */\n      0x08fc\n        /* \"contracts/MarketPlace.sol\":4607:4618  totalRefSum */\n      dup3\n        /* \"contracts/MarketPlace.sol\":4578:4619  payable(msg.sender).transfer(totalRefSum) */\n      swap1\n      dup2\n      iszero\n      mul\n      swap1\n      mload(0x40)\n      0x00\n      mload(0x40)\n      dup1\n      dup4\n      sub\n      dup2\n      dup6\n      dup9\n      dup9\n      call\n      swap4\n      pop\n      pop\n      pop\n      pop\n      iszero\n      dup1\n      iszero\n      tag_180\n      jumpi\n      returndatasize\n      0x00\n      dup1\n      returndatacopy\n      revert(0x00, returndatasize)\n    tag_180:\n      pop\n        /* \"contracts/MarketPlace.sol\":4080:4628  {... */\n      pop\n      pop\n      pop\n        /* \"contracts/MarketPlace.sol\":4025:4628  function refund(address _shop, uint _productId) public {... */\n      pop\n      pop\n      jump\t// out\n        /* \"contracts/MarketPlace.sol\":127:150  Ticket[] public tickets */\n    tag_47:\n      0x00\n      dup2\n      dup2\n      sload\n      dup2\n      lt\n      tag_181\n      jumpi\n      0x00\n      dup1\n      revert\n    tag_181:\n      swap1\n      0x00\n      mstore\n      keccak256(0x00, 0x20)\n      add\n      0x00\n      swap2\n      pop\n      swap1\n      pop\n      dup1\n      0x00\n      add\n      0x00\n      swap1\n      sload\n      swap1\n      0x0100\n      exp\n      swap1\n      div\n      0xffffffffffffffffffffffffffffffffffffffff\n      and\n      swap1\n      dup1\n      0x00\n      add\n      0x14\n      swap1\n      sload\n      swap1\n      0x0100\n      exp\n      swap1\n      div\n      0xff\n      and\n      swap1\n      pop\n      dup3\n      jump\t// out\n        /* \"contracts/MarketPlace.sol\":1285:1379  function changeRole(Role _role) public{... */\n    tag_54:\n        /* \"contracts/MarketPlace.sol\":1333:1340  tickets */\n      0x00\n        /* \"contracts/MarketPlace.sol\":1346:1371  Ticket(msg.sender, _role) */\n      mload(0x40)\n      dup1\n      0x40\n      add\n      0x40\n      mstore\n      dup1\n        /* \"contracts/MarketPlace.sol\":1353:1363  msg.sender */\n      caller\n        /* \"contracts/MarketPlace.sol\":1346:1371  Ticket(msg.sender, _role) */\n      0xffffffffffffffffffffffffffffffffffffffff\n      and\n      dup2\n      mstore\n      0x20\n      add\n        /* \"contracts/MarketPlace.sol\":1365:1370  _role */\n      dup4\n        /* \"contracts/MarketPlace.sol\":1346:1371  Ticket(msg.sender, _role) */\n      0x02\n      dup2\n      gt\n      iszero\n      tag_184\n      jumpi\n      tag_185\n      tag_120\n      jump\t// in\n    tag_185:\n    tag_184:\n      dup2\n      mstore\n      pop\n        /* \"contracts/MarketPlace.sol\":1333:1372  tickets.push(Ticket(msg.sender, _role)) */\n      swap1\n      dup1\n      0x01\n      dup2\n      sload\n      add\n      dup1\n      dup3\n      sstore\n      dup1\n      swap2\n      pop\n      pop\n      0x01\n      swap1\n      sub\n      swap1\n      0x00\n      mstore\n      keccak256(0x00, 0x20)\n      add\n      0x00\n      swap1\n      swap2\n      swap1\n      swap2\n      swap1\n      swap2\n      pop\n      0x00\n      dup3\n      add\n      mload\n      dup2\n      0x00\n      add\n      exp(0x0100, 0x00)\n      dup2\n      sload\n      dup2\n      0xffffffffffffffffffffffffffffffffffffffff\n      mul\n      not\n      and\n      swap1\n      dup4\n      0xffffffffffffffffffffffffffffffffffffffff\n      and\n      mul\n      or\n      swap1\n      sstore\n      pop\n      0x20\n      dup3\n      add\n      mload\n      dup2\n      0x00\n      add\n      exp(0x0100, 0x14)\n      dup2\n      sload\n      dup2\n      0xff\n      mul\n      not\n      and\n      swap1\n      dup4\n      0x02\n      dup2\n      gt\n      iszero\n      tag_187\n      jumpi\n      tag_188\n      tag_120\n      jump\t// in\n    tag_188:\n    tag_187:\n      mul\n      or\n      swap1\n      sstore\n      pop\n      pop\n      pop\n        /* \"contracts/MarketPlace.sol\":1285:1379  function changeRole(Role _role) public{... */\n      pop\n      jump\t// out\n        /* \"contracts/MarketPlace.sol\":2524:2679  function showProductsSupl(uint _productId, address _supplier) public view returns(uint) {... */\n    tag_59:\n        /* \"contracts/MarketPlace.sol\":2606:2610  uint */\n      0x00\n        /* \"contracts/MarketPlace.sol\":2629:2641  userProducts */\n      0x03\n        /* \"contracts/MarketPlace.sol\":2629:2652  userProducts[_supplier] */\n      0x00\n        /* \"contracts/MarketPlace.sol\":2642:2651  _supplier */\n      dup4\n        /* \"contracts/MarketPlace.sol\":2629:2652  userProducts[_supplier] */\n      0xffffffffffffffffffffffffffffffffffffffff\n      and\n      0xffffffffffffffffffffffffffffffffffffffff\n      and\n      dup2\n      mstore\n      0x20\n      add\n      swap1\n      dup2\n      mstore\n      0x20\n      add\n      0x00\n      keccak256\n        /* \"contracts/MarketPlace.sol\":2653:2663  _productId */\n      dup4\n        /* \"contracts/MarketPlace.sol\":2629:2664  userProducts[_supplier][_productId] */\n      dup2\n      sload\n      dup2\n      lt\n      tag_190\n      jumpi\n      tag_191\n      tag_149\n      jump\t// in\n    tag_191:\n    tag_190:\n      swap1\n      0x00\n      mstore\n      keccak256(0x00, 0x20)\n      swap1\n      0x04\n      mul\n      add\n        /* \"contracts/MarketPlace.sol\":2629:2672  userProducts[_supplier][_productId].inStock */\n      0x00\n      add\n      sload\n        /* \"contracts/MarketPlace.sol\":2622:2672  return userProducts[_supplier][_productId].inStock */\n      swap1\n      pop\n        /* \"contracts/MarketPlace.sol\":2524:2679  function showProductsSupl(uint _productId, address _supplier) public view returns(uint) {... */\n      swap3\n      swap2\n      pop\n      pop\n      jump\t// out\n        /* \"contracts/MarketPlace.sol\":2160:2247  function makeMarket() public  {... */\n    tag_64:\n        /* \"contracts/MarketPlace.sol\":2220:2240  User(Role.Market, 0) */\n      mload(0x40)\n      dup1\n      0x40\n      add\n      0x40\n      mstore\n      dup1\n        /* \"contracts/MarketPlace.sol\":2225:2236  Role.Market */\n      0x01\n        /* \"contracts/MarketPlace.sol\":2220:2240  User(Role.Market, 0) */\n      0x02\n      dup2\n      gt\n      iszero\n      tag_194\n      jumpi\n      tag_195\n      tag_120\n      jump\t// in\n    tag_195:\n    tag_194:\n      dup2\n      mstore\n      0x20\n      add\n        /* \"contracts/MarketPlace.sol\":2238:2239  0 */\n      0x00\n        /* \"contracts/MarketPlace.sol\":2220:2240  User(Role.Market, 0) */\n      dup2\n      mstore\n      pop\n        /* \"contracts/MarketPlace.sol\":2200:2205  users */\n      0x02\n        /* \"contracts/MarketPlace.sol\":2200:2217  users[msg.sender] */\n      0x00\n        /* \"contracts/MarketPlace.sol\":2206:2216  msg.sender */\n      caller\n        /* \"contracts/MarketPlace.sol\":2200:2217  users[msg.sender] */\n      0xffffffffffffffffffffffffffffffffffffffff\n      and\n      0xffffffffffffffffffffffffffffffffffffffff\n      and\n      dup2\n      mstore\n      0x20\n      add\n      swap1\n      dup2\n      mstore\n      0x20\n      add\n      0x00\n      keccak256\n        /* \"contracts/MarketPlace.sol\":2200:2240  users[msg.sender] = User(Role.Market, 0) */\n      0x00\n      dup3\n      add\n      mload\n      dup2\n      0x00\n      add\n      exp(0x0100, 0x00)\n      dup2\n      sload\n      dup2\n      0xff\n      mul\n      not\n      and\n      swap1\n      dup4\n      0x02\n      dup2\n      gt\n      iszero\n      tag_196\n      jumpi\n      tag_197\n      tag_120\n      jump\t// in\n    tag_197:\n    tag_196:\n      mul\n      or\n      swap1\n      sstore\n      pop\n      0x20\n      dup3\n      add\n      mload\n      dup2\n      0x01\n      add\n      sstore\n      swap1\n      pop\n      pop\n        /* \"contracts/MarketPlace.sol\":2160:2247  function makeMarket() public  {... */\n      jump\t// out\n        /* \"contracts/MarketPlace.sol\":1061:1279  function approveChangeRole(uint _idTicket) public OnlyOwner{... */\n    tag_68:\n        /* \"contracts/MarketPlace.sol\":689:694  owner */\n      0x01\n      0x00\n      swap1\n      sload\n      swap1\n      0x0100\n      exp\n      swap1\n      div\n      0xffffffffffffffffffffffffffffffffffffffff\n      and\n        /* \"contracts/MarketPlace.sol\":675:694  msg.sender == owner */\n      0xffffffffffffffffffffffffffffffffffffffff\n      and\n        /* \"contracts/MarketPlace.sol\":675:685  msg.sender */\n      caller\n        /* \"contracts/MarketPlace.sol\":675:694  msg.sender == owner */\n      0xffffffffffffffffffffffffffffffffffffffff\n      and\n      eq\n        /* \"contracts/MarketPlace.sol\":667:695  require(msg.sender == owner) */\n      tag_199\n      jumpi\n      0x00\n      dup1\n      revert\n    tag_199:\n        /* \"contracts/MarketPlace.sol\":1130:1146  address userAddr */\n      0x00\n        /* \"contracts/MarketPlace.sol\":1149:1156  tickets */\n      dup1\n        /* \"contracts/MarketPlace.sol\":1157:1166  _idTicket */\n      dup3\n        /* \"contracts/MarketPlace.sol\":1149:1167  tickets[_idTicket] */\n      dup2\n      sload\n      dup2\n      lt\n      tag_201\n      jumpi\n      tag_202\n      tag_149\n      jump\t// in\n    tag_202:\n    tag_201:\n      swap1\n      0x00\n      mstore\n      keccak256(0x00, 0x20)\n      add\n        /* \"contracts/MarketPlace.sol\":1149:1176  tickets[_idTicket].userAddr */\n      0x00\n      add\n      0x00\n      swap1\n      sload\n      swap1\n      0x0100\n      exp\n      swap1\n      div\n      0xffffffffffffffffffffffffffffffffffffffff\n      and\n        /* \"contracts/MarketPlace.sol\":1130:1176  address userAddr = tickets[_idTicket].userAddr */\n      swap1\n      pop\n        /* \"contracts/MarketPlace.sol\":1186:1202  Role changedRole */\n      0x00\n        /* \"contracts/MarketPlace.sol\":1205:1212  tickets */\n      dup1\n        /* \"contracts/MarketPlace.sol\":1213:1222  _idTicket */\n      dup4\n        /* \"contracts/MarketPlace.sol\":1205:1223  tickets[_idTicket] */\n      dup2\n      sload\n      dup2\n      lt\n      tag_204\n      jumpi\n      tag_205\n      tag_149\n      jump\t// in\n    tag_205:\n    tag_204:\n      swap1\n      0x00\n      mstore\n      keccak256(0x00, 0x20)\n      add\n        /* \"contracts/MarketPlace.sol\":1205:1228  tickets[_idTicket].role */\n      0x00\n      add\n      0x14\n      swap1\n      sload\n      swap1\n      0x0100\n      exp\n      swap1\n      div\n      0xff\n      and\n        /* \"contracts/MarketPlace.sol\":1186:1228  Role changedRole = tickets[_idTicket].role */\n      swap1\n      pop\n        /* \"contracts/MarketPlace.sol\":1261:1272  changedRole */\n      dup1\n        /* \"contracts/MarketPlace.sol\":1238:1243  users */\n      0x02\n        /* \"contracts/MarketPlace.sol\":1238:1253  users[userAddr] */\n      0x00\n        /* \"contracts/MarketPlace.sol\":1244:1252  userAddr */\n      dup5\n        /* \"contracts/MarketPlace.sol\":1238:1253  users[userAddr] */\n      0xffffffffffffffffffffffffffffffffffffffff\n      and\n      0xffffffffffffffffffffffffffffffffffffffff\n      and\n      dup2\n      mstore\n      0x20\n      add\n      swap1\n      dup2\n      mstore\n      0x20\n      add\n      0x00\n      keccak256\n        /* \"contracts/MarketPlace.sol\":1238:1258  users[userAddr].role */\n      0x00\n      add\n      0x00\n        /* \"contracts/MarketPlace.sol\":1238:1272  users[userAddr].role = changedRole */\n      0x0100\n      exp\n      dup2\n      sload\n      dup2\n      0xff\n      mul\n      not\n      and\n      swap1\n      dup4\n      0x02\n      dup2\n      gt\n      iszero\n      tag_207\n      jumpi\n      tag_208\n      tag_120\n      jump\t// in\n    tag_208:\n    tag_207:\n      mul\n      or\n      swap1\n      sstore\n      pop\n        /* \"contracts/MarketPlace.sol\":1120:1279  {... */\n      pop\n      pop\n        /* \"contracts/MarketPlace.sol\":1061:1279  function approveChangeRole(uint _idTicket) public OnlyOwner{... */\n      pop\n      jump\t// out\n        /* \"contracts/MarketPlace.sol\":1385:1601  function randMod(uint _modulus) public view returns(uint)... */\n    tag_72:\n        /* \"contracts/MarketPlace.sol\":1437:1441  uint */\n      0x00\n        /* \"contracts/MarketPlace.sol\":1460:1474  uint randNonce */\n      dup1\n        /* \"contracts/MarketPlace.sol\":1484:1495  randNonce++ */\n      dup1\n      dup1\n      tag_210\n      swap1\n      tag_211\n      jump\t// in\n    tag_210:\n      swap2\n      pop\n      pop\n        /* \"contracts/MarketPlace.sol\":1586:1594  _modulus */\n      dup3\n        /* \"contracts/MarketPlace.sol\":1544:1559  block.timestamp */\n      timestamp\n        /* \"contracts/MarketPlace.sol\":1560:1570  msg.sender */\n      caller\n        /* \"contracts/MarketPlace.sol\":1571:1580  randNonce */\n      dup4\n        /* \"contracts/MarketPlace.sol\":1527:1581  abi.encodePacked(block.timestamp,msg.sender,randNonce) */\n      add(0x20, mload(0x40))\n      tag_212\n      swap4\n      swap3\n      swap2\n      swap1\n      tag_213\n      jump\t// in\n    tag_212:\n      mload(0x40)\n      0x20\n      dup2\n      dup4\n      sub\n      sub\n      dup2\n      mstore\n      swap1\n      0x40\n      mstore\n        /* \"contracts/MarketPlace.sol\":1517:1582  keccak256(abi.encodePacked(block.timestamp,msg.sender,randNonce)) */\n      dup1\n      mload\n      swap1\n      0x20\n      add\n      keccak256\n        /* \"contracts/MarketPlace.sol\":1512:1583  uint(keccak256(abi.encodePacked(block.timestamp,msg.sender,randNonce))) */\n      0x00\n      shr\n        /* \"contracts/MarketPlace.sol\":1512:1594  uint(keccak256(abi.encodePacked(block.timestamp,msg.sender,randNonce))) % _modulus */\n      tag_214\n      swap2\n      swap1\n      tag_215\n      jump\t// in\n    tag_214:\n        /* \"contracts/MarketPlace.sol\":1505:1594  return uint(keccak256(abi.encodePacked(block.timestamp,msg.sender,randNonce))) % _modulus */\n      swap2\n      pop\n      pop\n        /* \"contracts/MarketPlace.sol\":1385:1601  function randMod(uint _modulus) public view returns(uint)... */\n      swap2\n      swap1\n      pop\n      jump\t// out\n        /* \"contracts/MarketPlace.sol\":1758:2054  function addItemsSupplier(uint _inStock, uint _price, string calldata _name, uint _expDate, address _addressSupp) public AccessControl(Role.Supplier, _addressSupp) {... */\n    tag_78:\n        /* \"contracts/MarketPlace.sol\":1893:1906  Role.Supplier */\n      0x02\n        /* \"contracts/MarketPlace.sol\":1908:1920  _addressSupp */\n      dup2\n        /* \"contracts/MarketPlace.sol\":816:821  _role */\n      dup2\n        /* \"contracts/MarketPlace.sol\":790:821  users[msg.sender].role == _role */\n      0x02\n      dup2\n      gt\n      iszero\n      tag_217\n      jumpi\n      tag_218\n      tag_120\n      jump\t// in\n    tag_218:\n    tag_217:\n        /* \"contracts/MarketPlace.sol\":790:795  users */\n      0x02\n        /* \"contracts/MarketPlace.sol\":790:807  users[msg.sender] */\n      0x00\n        /* \"contracts/MarketPlace.sol\":796:806  msg.sender */\n      caller\n        /* \"contracts/MarketPlace.sol\":790:807  users[msg.sender] */\n      0xffffffffffffffffffffffffffffffffffffffff\n      and\n      0xffffffffffffffffffffffffffffffffffffffff\n      and\n      dup2\n      mstore\n      0x20\n      add\n      swap1\n      dup2\n      mstore\n      0x20\n      add\n      0x00\n      keccak256\n        /* \"contracts/MarketPlace.sol\":790:812  users[msg.sender].role */\n      0x00\n      add\n      0x00\n      swap1\n      sload\n      swap1\n      0x0100\n      exp\n      swap1\n      div\n      0xff\n      and\n        /* \"contracts/MarketPlace.sol\":790:821  users[msg.sender].role == _role */\n      0x02\n      dup2\n      gt\n      iszero\n      tag_219\n      jumpi\n      tag_220\n      tag_120\n      jump\t// in\n    tag_220:\n    tag_219:\n      eq\n        /* \"contracts/MarketPlace.sol\":782:833  require(users[msg.sender].role == _role, unicode\"\") */\n      tag_221\n      jumpi\n      mload(0x40)\n      0x08c379a000000000000000000000000000000000000000000000000000000000\n      dup2\n      mstore\n      0x04\n      add\n      tag_222\n      swap1\n      tag_125\n      jump\t// in\n    tag_222:\n      mload(0x40)\n      dup1\n      swap2\n      sub\n      swap1\n      revert\n    tag_221:\n        /* \"contracts/MarketPlace.sol\":865:870  _shop */\n      dup1\n        /* \"contracts/MarketPlace.sol\":851:870  msg.sender == _shop */\n      0xffffffffffffffffffffffffffffffffffffffff\n      and\n        /* \"contracts/MarketPlace.sol\":851:861  msg.sender */\n      caller\n        /* \"contracts/MarketPlace.sol\":851:870  msg.sender == _shop */\n      0xffffffffffffffffffffffffffffffffffffffff\n      and\n      eq\n        /* \"contracts/MarketPlace.sol\":843:949  require(msg.sender == _shop, unicode\"Магазин не соответсвует отправителю\") */\n      tag_223\n      jumpi\n      mload(0x40)\n      0x08c379a000000000000000000000000000000000000000000000000000000000\n      dup2\n      mstore\n      0x04\n      add\n      tag_224\n      swap1\n      tag_128\n      jump\t// in\n    tag_224:\n      mload(0x40)\n      dup1\n      swap2\n      sub\n      swap1\n      revert\n    tag_223:\n        /* \"contracts/MarketPlace.sol\":1932:1951  Product memory item */\n      0x00\n        /* \"contracts/MarketPlace.sol\":1954:2000  Product(_inStock, _price / 2, _name, _expDate) */\n      mload(0x40)\n      dup1\n      0x80\n      add\n      0x40\n      mstore\n      dup1\n        /* \"contracts/MarketPlace.sol\":1962:1970  _inStock */\n      dup11\n        /* \"contracts/MarketPlace.sol\":1954:2000  Product(_inStock, _price / 2, _name, _expDate) */\n      dup2\n      mstore\n      0x20\n      add\n        /* \"contracts/MarketPlace.sol\":1981:1982  2 */\n      0x02\n        /* \"contracts/MarketPlace.sol\":1972:1978  _price */\n      dup11\n        /* \"contracts/MarketPlace.sol\":1972:1982  _price / 2 */\n      tag_226\n      swap2\n      swap1\n      tag_227\n      jump\t// in\n    tag_226:\n        /* \"contracts/MarketPlace.sol\":1954:2000  Product(_inStock, _price / 2, _name, _expDate) */\n      dup2\n      mstore\n      0x20\n      add\n        /* \"contracts/MarketPlace.sol\":1984:1989  _name */\n      dup9\n      dup9\n        /* \"contracts/MarketPlace.sol\":1954:2000  Product(_inStock, _price / 2, _name, _expDate) */\n      dup1\n      dup1\n      0x1f\n      add\n      0x20\n      dup1\n      swap2\n      div\n      mul\n      0x20\n      add\n      mload(0x40)\n      swap1\n      dup2\n      add\n      0x40\n      mstore\n      dup1\n      swap4\n      swap3\n      swap2\n      swap1\n      dup2\n      dup2\n      mstore\n      0x20\n      add\n      dup4\n      dup4\n      dup1\n      dup3\n      dup5\n      calldatacopy\n      0x00\n      dup2\n      dup5\n      add\n      mstore\n      not(0x1f)\n      0x1f\n      dup3\n      add\n      and\n      swap1\n      pop\n      dup1\n      dup4\n      add\n      swap3\n      pop\n      pop\n      pop\n      pop\n      pop\n      pop\n      pop\n      dup2\n      mstore\n      0x20\n      add\n        /* \"contracts/MarketPlace.sol\":1991:1999  _expDate */\n      dup7\n        /* \"contracts/MarketPlace.sol\":1954:2000  Product(_inStock, _price / 2, _name, _expDate) */\n      dup2\n      mstore\n      pop\n        /* \"contracts/MarketPlace.sol\":1932:2000  Product memory item = Product(_inStock, _price / 2, _name, _expDate) */\n      swap1\n      pop\n        /* \"contracts/MarketPlace.sol\":2010:2022  userProducts */\n      0x03\n        /* \"contracts/MarketPlace.sol\":2010:2036  userProducts[_addressSupp] */\n      0x00\n        /* \"contracts/MarketPlace.sol\":2023:2035  _addressSupp */\n      dup6\n        /* \"contracts/MarketPlace.sol\":2010:2036  userProducts[_addressSupp] */\n      0xffffffffffffffffffffffffffffffffffffffff\n      and\n      0xffffffffffffffffffffffffffffffffffffffff\n      and\n      dup2\n      mstore\n      0x20\n      add\n      swap1\n      dup2\n      mstore\n      0x20\n      add\n      0x00\n      keccak256\n        /* \"contracts/MarketPlace.sol\":2042:2046  item */\n      dup2\n        /* \"contracts/MarketPlace.sol\":2010:2047  userProducts[_addressSupp].push(item) */\n      swap1\n      dup1\n      0x01\n      dup2\n      sload\n      add\n      dup1\n      dup3\n      sstore\n      dup1\n      swap2\n      pop\n      pop\n      0x01\n      swap1\n      sub\n      swap1\n      0x00\n      mstore\n      keccak256(0x00, 0x20)\n      swap1\n      0x04\n      mul\n      add\n      0x00\n      swap1\n      swap2\n      swap1\n      swap2\n      swap1\n      swap2\n      pop\n      0x00\n      dup3\n      add\n      mload\n      dup2\n      0x00\n      add\n      sstore\n      0x20\n      dup3\n      add\n      mload\n      dup2\n      0x01\n      add\n      sstore\n      0x40\n      dup3\n      add\n      mload\n      dup2\n      0x02\n      add\n      swap1\n      dup2\n      tag_229\n      swap2\n      swap1\n      tag_132\n      jump\t// in\n    tag_229:\n      pop\n      0x60\n      dup3\n      add\n      mload\n      dup2\n      0x03\n      add\n      sstore\n      pop\n      pop\n        /* \"contracts/MarketPlace.sol\":1922:2054  {... */\n      pop\n        /* \"contracts/MarketPlace.sol\":1758:2054  function addItemsSupplier(uint _inStock, uint _price, string calldata _name, uint _expDate, address _addressSupp) public AccessControl(Role.Supplier, _addressSupp) {... */\n      pop\n      pop\n      pop\n      pop\n      pop\n      pop\n      pop\n      pop\n      jump\t// out\n        /* \"contracts/MarketPlace.sol\":156:176  address public owner */\n    tag_81:\n      0x01\n      0x00\n      swap1\n      sload\n      swap1\n      0x0100\n      exp\n      swap1\n      div\n      0xffffffffffffffffffffffffffffffffffffffff\n      and\n      dup2\n      jump\t// out\n        /* \"contracts/MarketPlace.sol\":4634:6243  function purchase(address _shop, uint _amount, uint _id, string memory _ref ) public payable {... */\n    tag_87:\n        /* \"contracts/MarketPlace.sol\":4767:4776  Role.User */\n      0x00\n        /* \"contracts/MarketPlace.sol\":4741:4776  users[msg.sender].role == Role.User */\n      0x02\n      dup2\n      gt\n      iszero\n      tag_231\n      jumpi\n      tag_232\n      tag_120\n      jump\t// in\n    tag_232:\n    tag_231:\n        /* \"contracts/MarketPlace.sol\":4741:4746  users */\n      0x02\n        /* \"contracts/MarketPlace.sol\":4741:4758  users[msg.sender] */\n      0x00\n        /* \"contracts/MarketPlace.sol\":4747:4757  msg.sender */\n      caller\n        /* \"contracts/MarketPlace.sol\":4741:4758  users[msg.sender] */\n      0xffffffffffffffffffffffffffffffffffffffff\n      and\n      0xffffffffffffffffffffffffffffffffffffffff\n      and\n      dup2\n      mstore\n      0x20\n      add\n      swap1\n      dup2\n      mstore\n      0x20\n      add\n      0x00\n      keccak256\n        /* \"contracts/MarketPlace.sol\":4741:4763  users[msg.sender].role */\n      0x00\n      add\n      0x00\n      swap1\n      sload\n      swap1\n      0x0100\n      exp\n      swap1\n      div\n      0xff\n      and\n        /* \"contracts/MarketPlace.sol\":4741:4776  users[msg.sender].role == Role.User */\n      0x02\n      dup2\n      gt\n      iszero\n      tag_233\n      jumpi\n      tag_234\n      tag_120\n      jump\t// in\n    tag_234:\n    tag_233:\n      sub\n        /* \"contracts/MarketPlace.sol\":4737:4842  if (users[msg.sender].role == Role.User) {... */\n      tag_235\n      jumpi\n        /* \"contracts/MarketPlace.sol\":4812:4831  User( Role.User, 0) */\n      mload(0x40)\n      dup1\n      0x40\n      add\n      0x40\n      mstore\n      dup1\n        /* \"contracts/MarketPlace.sol\":4818:4827  Role.User */\n      0x00\n        /* \"contracts/MarketPlace.sol\":4812:4831  User( Role.User, 0) */\n      0x02\n      dup2\n      gt\n      iszero\n      tag_236\n      jumpi\n      tag_237\n      tag_120\n      jump\t// in\n    tag_237:\n    tag_236:\n      dup2\n      mstore\n      0x20\n      add\n        /* \"contracts/MarketPlace.sol\":4829:4830  0 */\n      0x00\n        /* \"contracts/MarketPlace.sol\":4812:4831  User( Role.User, 0) */\n      dup2\n      mstore\n      pop\n        /* \"contracts/MarketPlace.sol\":4792:4797  users */\n      0x02\n        /* \"contracts/MarketPlace.sol\":4792:4809  users[msg.sender] */\n      0x00\n        /* \"contracts/MarketPlace.sol\":4798:4808  msg.sender */\n      caller\n        /* \"contracts/MarketPlace.sol\":4792:4809  users[msg.sender] */\n      0xffffffffffffffffffffffffffffffffffffffff\n      and\n      0xffffffffffffffffffffffffffffffffffffffff\n      and\n      dup2\n      mstore\n      0x20\n      add\n      swap1\n      dup2\n      mstore\n      0x20\n      add\n      0x00\n      keccak256\n        /* \"contracts/MarketPlace.sol\":4792:4831  users[msg.sender] = User( Role.User, 0) */\n      0x00\n      dup3\n      add\n      mload\n      dup2\n      0x00\n      add\n      exp(0x0100, 0x00)\n      dup2\n      sload\n      dup2\n      0xff\n      mul\n      not\n      and\n      swap1\n      dup4\n      0x02\n      dup2\n      gt\n      iszero\n      tag_238\n      jumpi\n      tag_239\n      tag_120\n      jump\t// in\n    tag_239:\n    tag_238:\n      mul\n      or\n      swap1\n      sstore\n      pop\n      0x20\n      dup3\n      add\n      mload\n      dup2\n      0x01\n      add\n      sstore\n      swap1\n      pop\n      pop\n        /* \"contracts/MarketPlace.sol\":4737:4842  if (users[msg.sender].role == Role.User) {... */\n    tag_235:\n        /* \"contracts/MarketPlace.sol\":4878:4879  0 */\n      0x00\n        /* \"contracts/MarketPlace.sol\":4868:4875  _amount */\n      dup4\n        /* \"contracts/MarketPlace.sol\":4868:4879  _amount > 0 */\n      gt\n        /* \"contracts/MarketPlace.sol\":4860:4922  require(_amount > 0, \"Purchase amount must be greater than 0\") */\n      tag_240\n      jumpi\n      mload(0x40)\n      0x08c379a000000000000000000000000000000000000000000000000000000000\n      dup2\n      mstore\n      0x04\n      add\n      tag_241\n      swap1\n      tag_242\n      jump\t// in\n    tag_241:\n      mload(0x40)\n      dup1\n      swap2\n      sub\n      swap1\n      revert\n    tag_240:\n        /* \"contracts/MarketPlace.sol\":4946:4958  userProducts */\n      0x03\n        /* \"contracts/MarketPlace.sol\":4946:4965  userProducts[_shop] */\n      0x00\n        /* \"contracts/MarketPlace.sol\":4959:4964  _shop */\n      dup6\n        /* \"contracts/MarketPlace.sol\":4946:4965  userProducts[_shop] */\n      0xffffffffffffffffffffffffffffffffffffffff\n      and\n      0xffffffffffffffffffffffffffffffffffffffff\n      and\n      dup2\n      mstore\n      0x20\n      add\n      swap1\n      dup2\n      mstore\n      0x20\n      add\n      0x00\n      keccak256\n        /* \"contracts/MarketPlace.sol\":4946:4972  userProducts[_shop].length */\n      dup1\n      sload\n      swap1\n      pop\n        /* \"contracts/MarketPlace.sol\":4940:4943  _id */\n      dup3\n        /* \"contracts/MarketPlace.sol\":4940:4972  _id < userProducts[_shop].length */\n      lt\n        /* \"contracts/MarketPlace.sol\":4932:4995  require(_id < userProducts[_shop].length, \"Invalid product ID\") */\n      tag_243\n      jumpi\n      mload(0x40)\n      0x08c379a000000000000000000000000000000000000000000000000000000000\n      dup2\n      mstore\n      0x04\n      add\n      tag_244\n      swap1\n      tag_245\n      jump\t// in\n    tag_244:\n      mload(0x40)\n      dup1\n      swap2\n      sub\n      swap1\n      revert\n    tag_243:\n        /* \"contracts/MarketPlace.sol\":5024:5036  userProducts */\n      0x03\n        /* \"contracts/MarketPlace.sol\":5024:5043  userProducts[_shop] */\n      0x00\n        /* \"contracts/MarketPlace.sol\":5037:5042  _shop */\n      dup6\n        /* \"contracts/MarketPlace.sol\":5024:5043  userProducts[_shop] */\n      0xffffffffffffffffffffffffffffffffffffffff\n      and\n      0xffffffffffffffffffffffffffffffffffffffff\n      and\n      dup2\n      mstore\n      0x20\n      add\n      swap1\n      dup2\n      mstore\n      0x20\n      add\n      0x00\n      keccak256\n        /* \"contracts/MarketPlace.sol\":5044:5047  _id */\n      dup3\n        /* \"contracts/MarketPlace.sol\":5024:5048  userProducts[_shop][_id] */\n      dup2\n      sload\n      dup2\n      lt\n      tag_246\n      jumpi\n      tag_247\n      tag_149\n      jump\t// in\n    tag_247:\n    tag_246:\n      swap1\n      0x00\n      mstore\n      keccak256(0x00, 0x20)\n      swap1\n      0x04\n      mul\n      add\n        /* \"contracts/MarketPlace.sol\":5024:5056  userProducts[_shop][_id].inStock */\n      0x00\n      add\n      sload\n        /* \"contracts/MarketPlace.sol\":5013:5020  _amount */\n      dup4\n        /* \"contracts/MarketPlace.sol\":5013:5056  _amount <= userProducts[_shop][_id].inStock */\n      gt\n      iszero\n        /* \"contracts/MarketPlace.sol\":5005:5087  require(_amount <= userProducts[_shop][_id].inStock, \"Not enough stock available\") */\n      tag_249\n      jumpi\n      mload(0x40)\n      0x08c379a000000000000000000000000000000000000000000000000000000000\n      dup2\n      mstore\n      0x04\n      add\n      tag_250\n      swap1\n      tag_251\n      jump\t// in\n    tag_250:\n      mload(0x40)\n      dup1\n      swap2\n      sub\n      swap1\n      revert\n    tag_249:\n        /* \"contracts/MarketPlace.sol\":5098:5113  uint totalPrice */\n      0x00\n        /* \"contracts/MarketPlace.sol\":5159:5166  1 ether */\n      0x0de0b6b3a7640000\n        /* \"contracts/MarketPlace.sol\":5126:5138  userProducts */\n      0x03\n        /* \"contracts/MarketPlace.sol\":5126:5145  userProducts[_shop] */\n      0x00\n        /* \"contracts/MarketPlace.sol\":5139:5144  _shop */\n      dup8\n        /* \"contracts/MarketPlace.sol\":5126:5145  userProducts[_shop] */\n      0xffffffffffffffffffffffffffffffffffffffff\n      and\n      0xffffffffffffffffffffffffffffffffffffffff\n      and\n      dup2\n      mstore\n      0x20\n      add\n      swap1\n      dup2\n      mstore\n      0x20\n      add\n      0x00\n      keccak256\n        /* \"contracts/MarketPlace.sol\":5146:5149  _id */\n      dup5\n        /* \"contracts/MarketPlace.sol\":5126:5150  userProducts[_shop][_id] */\n      dup2\n      sload\n      dup2\n      lt\n      tag_252\n      jumpi\n      tag_253\n      tag_149\n      jump\t// in\n    tag_253:\n    tag_252:\n      swap1\n      0x00\n      mstore\n      keccak256(0x00, 0x20)\n      swap1\n      0x04\n      mul\n      add\n        /* \"contracts/MarketPlace.sol\":5126:5156  userProducts[_shop][_id].price */\n      0x01\n      add\n      sload\n        /* \"contracts/MarketPlace.sol\":5116:5123  _amount */\n      dup6\n        /* \"contracts/MarketPlace.sol\":5116:5156  _amount * userProducts[_shop][_id].price */\n      tag_255\n      swap2\n      swap1\n      tag_162\n      jump\t// in\n    tag_255:\n        /* \"contracts/MarketPlace.sol\":5116:5166  _amount * userProducts[_shop][_id].price * 1 ether */\n      tag_256\n      swap2\n      swap1\n      tag_162\n      jump\t// in\n    tag_256:\n        /* \"contracts/MarketPlace.sol\":5098:5166  uint totalPrice = _amount * userProducts[_shop][_id].price * 1 ether */\n      swap1\n      pop\n        /* \"contracts/MarketPlace.sol\":5200:5210  msg.sender */\n      caller\n        /* \"contracts/MarketPlace.sol\":5181:5210  referrals[_ref] == msg.sender */\n      0xffffffffffffffffffffffffffffffffffffffff\n      and\n        /* \"contracts/MarketPlace.sol\":5181:5190  referrals */\n      0x04\n        /* \"contracts/MarketPlace.sol\":5191:5195  _ref */\n      dup4\n        /* \"contracts/MarketPlace.sol\":5181:5196  referrals[_ref] */\n      mload(0x40)\n      tag_257\n      swap2\n      swap1\n      tag_258\n      jump\t// in\n    tag_257:\n      swap1\n      dup2\n      mstore\n      0x20\n      add\n      mload(0x40)\n      dup1\n      swap2\n      sub\n      swap1\n      keccak256\n      0x00\n      swap1\n      sload\n      swap1\n      0x0100\n      exp\n      swap1\n      div\n      0xffffffffffffffffffffffffffffffffffffffff\n      and\n        /* \"contracts/MarketPlace.sol\":5181:5210  referrals[_ref] == msg.sender */\n      0xffffffffffffffffffffffffffffffffffffffff\n      and\n      sub\n        /* \"contracts/MarketPlace.sol\":5177:5315  if (referrals[_ref] == msg.sender) {... */\n      tag_259\n      jumpi\n        /* \"contracts/MarketPlace.sol\":5258:5261  100 */\n      0x64\n        /* \"contracts/MarketPlace.sol\":5253:5255  90 */\n      0x5a\n        /* \"contracts/MarketPlace.sol\":5240:5250  totalPrice */\n      dup3\n        /* \"contracts/MarketPlace.sol\":5240:5255  totalPrice * 90 */\n      tag_260\n      swap2\n      swap1\n      tag_162\n      jump\t// in\n    tag_260:\n        /* \"contracts/MarketPlace.sol\":5240:5261  totalPrice * 90 / 100 */\n      tag_261\n      swap2\n      swap1\n      tag_227\n      jump\t// in\n    tag_261:\n        /* \"contracts/MarketPlace.sol\":5226:5262  totalPrice = (totalPrice * 90 / 100) */\n      swap1\n      pop\n        /* \"contracts/MarketPlace.sol\":5302:5303  0 */\n      0x00\n        /* \"contracts/MarketPlace.sol\":5276:5285  referrals */\n      0x04\n        /* \"contracts/MarketPlace.sol\":5286:5290  _ref */\n      dup4\n        /* \"contracts/MarketPlace.sol\":5276:5291  referrals[_ref] */\n      mload(0x40)\n      tag_262\n      swap2\n      swap1\n      tag_258\n      jump\t// in\n    tag_262:\n      swap1\n      dup2\n      mstore\n      0x20\n      add\n      mload(0x40)\n      dup1\n      swap2\n      sub\n      swap1\n      keccak256\n      0x00\n        /* \"contracts/MarketPlace.sol\":5276:5304  referrals[_ref] = address(0) */\n      0x0100\n      exp\n      dup2\n      sload\n      dup2\n      0xffffffffffffffffffffffffffffffffffffffff\n      mul\n      not\n      and\n      swap1\n      dup4\n      0xffffffffffffffffffffffffffffffffffffffff\n      and\n      mul\n      or\n      swap1\n      sstore\n      pop\n        /* \"contracts/MarketPlace.sol\":5177:5315  if (referrals[_ref] == msg.sender) {... */\n    tag_259:\n        /* \"contracts/MarketPlace.sol\":5345:5355  totalPrice */\n      dup1\n        /* \"contracts/MarketPlace.sol\":5332:5341  msg.value */\n      callvalue\n        /* \"contracts/MarketPlace.sol\":5332:5355  msg.value >= totalPrice */\n      lt\n      iszero\n        /* \"contracts/MarketPlace.sol\":5324:5383  require(msg.value >= totalPrice, \"Insufficient funds sent\") */\n      tag_263\n      jumpi\n      mload(0x40)\n      0x08c379a000000000000000000000000000000000000000000000000000000000\n      dup2\n      mstore\n      0x04\n      add\n      tag_264\n      swap1\n      tag_265\n      jump\t// in\n    tag_264:\n      mload(0x40)\n      dup1\n      swap2\n      sub\n      swap1\n      revert\n    tag_263:\n        /* \"contracts/MarketPlace.sol\":5393:5411  bool productExists */\n      0x00\n        /* \"contracts/MarketPlace.sol\":5434:5440  uint i */\n      dup1\n        /* \"contracts/MarketPlace.sol\":5429:5760  for (uint i = 0; i < userProducts[msg.sender].length; i++) {... */\n    tag_266:\n        /* \"contracts/MarketPlace.sol\":5450:5462  userProducts */\n      0x03\n        /* \"contracts/MarketPlace.sol\":5450:5474  userProducts[msg.sender] */\n      0x00\n        /* \"contracts/MarketPlace.sol\":5463:5473  msg.sender */\n      caller\n        /* \"contracts/MarketPlace.sol\":5450:5474  userProducts[msg.sender] */\n      0xffffffffffffffffffffffffffffffffffffffff\n      and\n      0xffffffffffffffffffffffffffffffffffffffff\n      and\n      dup2\n      mstore\n      0x20\n      add\n      swap1\n      dup2\n      mstore\n      0x20\n      add\n      0x00\n      keccak256\n        /* \"contracts/MarketPlace.sol\":5450:5481  userProducts[msg.sender].length */\n      dup1\n      sload\n      swap1\n      pop\n        /* \"contracts/MarketPlace.sol\":5446:5447  i */\n      dup2\n        /* \"contracts/MarketPlace.sol\":5446:5481  i < userProducts[msg.sender].length */\n      lt\n        /* \"contracts/MarketPlace.sol\":5429:5760  for (uint i = 0; i < userProducts[msg.sender].length; i++) {... */\n      iszero\n      tag_267\n      jumpi\n        /* \"contracts/MarketPlace.sol\":5576:5588  userProducts */\n      0x03\n        /* \"contracts/MarketPlace.sol\":5576:5595  userProducts[_shop] */\n      0x00\n        /* \"contracts/MarketPlace.sol\":5589:5594  _shop */\n      dup9\n        /* \"contracts/MarketPlace.sol\":5576:5595  userProducts[_shop] */\n      0xffffffffffffffffffffffffffffffffffffffff\n      and\n      0xffffffffffffffffffffffffffffffffffffffff\n      and\n      dup2\n      mstore\n      0x20\n      add\n      swap1\n      dup2\n      mstore\n      0x20\n      add\n      0x00\n      keccak256\n        /* \"contracts/MarketPlace.sol\":5596:5599  _id */\n      dup6\n        /* \"contracts/MarketPlace.sol\":5576:5600  userProducts[_shop][_id] */\n      dup2\n      sload\n      dup2\n      lt\n      tag_269\n      jumpi\n      tag_270\n      tag_149\n      jump\t// in\n    tag_270:\n    tag_269:\n      swap1\n      0x00\n      mstore\n      keccak256(0x00, 0x20)\n      swap1\n      0x04\n      mul\n      add\n        /* \"contracts/MarketPlace.sol\":5576:5605  userProducts[_shop][_id].name */\n      0x02\n      add\n        /* \"contracts/MarketPlace.sol\":5560:5607  keccak256(bytes(userProducts[_shop][_id].name)) */\n      mload(0x40)\n      tag_272\n      swap2\n      swap1\n      tag_273\n      jump\t// in\n    tag_272:\n      mload(0x40)\n      dup1\n      swap2\n      sub\n      swap1\n      keccak256\n        /* \"contracts/MarketPlace.sol\":5522:5534  userProducts */\n      0x03\n        /* \"contracts/MarketPlace.sol\":5522:5546  userProducts[msg.sender] */\n      0x00\n        /* \"contracts/MarketPlace.sol\":5535:5545  msg.sender */\n      caller\n        /* \"contracts/MarketPlace.sol\":5522:5546  userProducts[msg.sender] */\n      0xffffffffffffffffffffffffffffffffffffffff\n      and\n      0xffffffffffffffffffffffffffffffffffffffff\n      and\n      dup2\n      mstore\n      0x20\n      add\n      swap1\n      dup2\n      mstore\n      0x20\n      add\n      0x00\n      keccak256\n        /* \"contracts/MarketPlace.sol\":5547:5548  i */\n      dup3\n        /* \"contracts/MarketPlace.sol\":5522:5549  userProducts[msg.sender][i] */\n      dup2\n      sload\n      dup2\n      lt\n      tag_274\n      jumpi\n      tag_275\n      tag_149\n      jump\t// in\n    tag_275:\n    tag_274:\n      swap1\n      0x00\n      mstore\n      keccak256(0x00, 0x20)\n      swap1\n      0x04\n      mul\n      add\n        /* \"contracts/MarketPlace.sol\":5522:5554  userProducts[msg.sender][i].name */\n      0x02\n      add\n        /* \"contracts/MarketPlace.sol\":5506:5556  keccak256(bytes(userProducts[msg.sender][i].name)) */\n      mload(0x40)\n      tag_277\n      swap2\n      swap1\n      tag_273\n      jump\t// in\n    tag_277:\n      mload(0x40)\n      dup1\n      swap2\n      sub\n      swap1\n      keccak256\n        /* \"contracts/MarketPlace.sol\":5506:5607  keccak256(bytes(userProducts[msg.sender][i].name)) == keccak256(bytes(userProducts[_shop][_id].name)) */\n      sub\n        /* \"contracts/MarketPlace.sol\":5502:5750  if (keccak256(bytes(userProducts[msg.sender][i].name)) == keccak256(bytes(userProducts[_shop][_id].name))) {... */\n      tag_278\n      jumpi\n        /* \"contracts/MarketPlace.sol\":5666:5673  _amount */\n      dup6\n        /* \"contracts/MarketPlace.sol\":5627:5639  userProducts */\n      0x03\n        /* \"contracts/MarketPlace.sol\":5627:5651  userProducts[msg.sender] */\n      0x00\n        /* \"contracts/MarketPlace.sol\":5640:5650  msg.sender */\n      caller\n        /* \"contracts/MarketPlace.sol\":5627:5651  userProducts[msg.sender] */\n      0xffffffffffffffffffffffffffffffffffffffff\n      and\n      0xffffffffffffffffffffffffffffffffffffffff\n      and\n      dup2\n      mstore\n      0x20\n      add\n      swap1\n      dup2\n      mstore\n      0x20\n      add\n      0x00\n      keccak256\n        /* \"contracts/MarketPlace.sol\":5652:5653  i */\n      dup3\n        /* \"contracts/MarketPlace.sol\":5627:5654  userProducts[msg.sender][i] */\n      dup2\n      sload\n      dup2\n      lt\n      tag_279\n      jumpi\n      tag_280\n      tag_149\n      jump\t// in\n    tag_280:\n    tag_279:\n      swap1\n      0x00\n      mstore\n      keccak256(0x00, 0x20)\n      swap1\n      0x04\n      mul\n      add\n        /* \"contracts/MarketPlace.sol\":5627:5662  userProducts[msg.sender][i].inStock */\n      0x00\n      add\n      0x00\n        /* \"contracts/MarketPlace.sol\":5627:5673  userProducts[msg.sender][i].inStock += _amount */\n      dup3\n      dup3\n      sload\n      tag_282\n      swap2\n      swap1\n      tag_171\n      jump\t// in\n    tag_282:\n      swap3\n      pop\n      pop\n      dup2\n      swap1\n      sstore\n      pop\n        /* \"contracts/MarketPlace.sol\":5707:5711  true */\n      0x01\n        /* \"contracts/MarketPlace.sol\":5691:5711  productExists = true */\n      swap2\n      pop\n        /* \"contracts/MarketPlace.sol\":5729:5734  break */\n      jump(tag_267)\n        /* \"contracts/MarketPlace.sol\":5502:5750  if (keccak256(bytes(userProducts[msg.sender][i].name)) == keccak256(bytes(userProducts[_shop][_id].name))) {... */\n    tag_278:\n        /* \"contracts/MarketPlace.sol\":5483:5486  i++ */\n      dup1\n      dup1\n      tag_283\n      swap1\n      tag_211\n      jump\t// in\n    tag_283:\n      swap2\n      pop\n      pop\n        /* \"contracts/MarketPlace.sol\":5429:5760  for (uint i = 0; i < userProducts[msg.sender].length; i++) {... */\n      jump(tag_266)\n    tag_267:\n      pop\n        /* \"contracts/MarketPlace.sol\":5775:5788  productExists */\n      dup1\n        /* \"contracts/MarketPlace.sol\":5770:5986  if (!productExists) {... */\n      tag_284\n      jumpi\n        /* \"contracts/MarketPlace.sol\":5804:5826  Product memory newItem */\n      0x00\n        /* \"contracts/MarketPlace.sol\":5829:5923  Product(_amount, userProducts[_shop][_id].price, userProducts[_shop][_id].name, randMod(1000)) */\n      mload(0x40)\n      dup1\n      0x80\n      add\n      0x40\n      mstore\n      dup1\n        /* \"contracts/MarketPlace.sol\":5837:5844  _amount */\n      dup8\n        /* \"contracts/MarketPlace.sol\":5829:5923  Product(_amount, userProducts[_shop][_id].price, userProducts[_shop][_id].name, randMod(1000)) */\n      dup2\n      mstore\n      0x20\n      add\n        /* \"contracts/MarketPlace.sol\":5846:5858  userProducts */\n      0x03\n        /* \"contracts/MarketPlace.sol\":5846:5865  userProducts[_shop] */\n      0x00\n        /* \"contracts/MarketPlace.sol\":5859:5864  _shop */\n      dup11\n        /* \"contracts/MarketPlace.sol\":5846:5865  userProducts[_shop] */\n      0xffffffffffffffffffffffffffffffffffffffff\n      and\n      0xffffffffffffffffffffffffffffffffffffffff\n      and\n      dup2\n      mstore\n      0x20\n      add\n      swap1\n      dup2\n      mstore\n      0x20\n      add\n      0x00\n      keccak256\n        /* \"contracts/MarketPlace.sol\":5866:5869  _id */\n      dup8\n        /* \"contracts/MarketPlace.sol\":5846:5870  userProducts[_shop][_id] */\n      dup2\n      sload\n      dup2\n      lt\n      tag_285\n      jumpi\n      tag_286\n      tag_149\n      jump\t// in\n    tag_286:\n    tag_285:\n      swap1\n      0x00\n      mstore\n      keccak256(0x00, 0x20)\n      swap1\n      0x04\n      mul\n      add\n        /* \"contracts/MarketPlace.sol\":5846:5876  userProducts[_shop][_id].price */\n      0x01\n      add\n      sload\n        /* \"contracts/MarketPlace.sol\":5829:5923  Product(_amount, userProducts[_shop][_id].price, userProducts[_shop][_id].name, randMod(1000)) */\n      dup2\n      mstore\n      0x20\n      add\n        /* \"contracts/MarketPlace.sol\":5878:5890  userProducts */\n      0x03\n        /* \"contracts/MarketPlace.sol\":5878:5897  userProducts[_shop] */\n      0x00\n        /* \"contracts/MarketPlace.sol\":5891:5896  _shop */\n      dup11\n        /* \"contracts/MarketPlace.sol\":5878:5897  userProducts[_shop] */\n      0xffffffffffffffffffffffffffffffffffffffff\n      and\n      0xffffffffffffffffffffffffffffffffffffffff\n      and\n      dup2\n      mstore\n      0x20\n      add\n      swap1\n      dup2\n      mstore\n      0x20\n      add\n      0x00\n      keccak256\n        /* \"contracts/MarketPlace.sol\":5898:5901  _id */\n      dup8\n        /* \"contracts/MarketPlace.sol\":5878:5902  userProducts[_shop][_id] */\n      dup2\n      sload\n      dup2\n      lt\n      tag_288\n      jumpi\n      tag_289\n      tag_149\n      jump\t// in\n    tag_289:\n    tag_288:\n      swap1\n      0x00\n      mstore\n      keccak256(0x00, 0x20)\n      swap1\n      0x04\n      mul\n      add\n        /* \"contracts/MarketPlace.sol\":5878:5907  userProducts[_shop][_id].name */\n      0x02\n      add\n        /* \"contracts/MarketPlace.sol\":5829:5923  Product(_amount, userProducts[_shop][_id].price, userProducts[_shop][_id].name, randMod(1000)) */\n      dup1\n      sload\n      tag_291\n      swap1\n      tag_136\n      jump\t// in\n    tag_291:\n      dup1\n      0x1f\n      add\n      0x20\n      dup1\n      swap2\n      div\n      mul\n      0x20\n      add\n      mload(0x40)\n      swap1\n      dup2\n      add\n      0x40\n      mstore\n      dup1\n      swap3\n      swap2\n      swap1\n      dup2\n      dup2\n      mstore\n      0x20\n      add\n      dup3\n      dup1\n      sload\n      tag_292\n      swap1\n      tag_136\n      jump\t// in\n    tag_292:\n      dup1\n      iszero\n      tag_293\n      jumpi\n      dup1\n      0x1f\n      lt\n      tag_294\n      jumpi\n      0x0100\n      dup1\n      dup4\n      sload\n      div\n      mul\n      dup4\n      mstore\n      swap2\n      0x20\n      add\n      swap2\n      jump(tag_293)\n    tag_294:\n      dup3\n      add\n      swap2\n      swap1\n      0x00\n      mstore\n      keccak256(0x00, 0x20)\n      swap1\n    tag_295:\n      dup2\n      sload\n      dup2\n      mstore\n      swap1\n      0x01\n      add\n      swap1\n      0x20\n      add\n      dup1\n      dup4\n      gt\n      tag_295\n      jumpi\n      dup3\n      swap1\n      sub\n      0x1f\n      and\n      dup3\n      add\n      swap2\n    tag_293:\n      pop\n      pop\n      pop\n      pop\n      pop\n      dup2\n      mstore\n      0x20\n      add\n        /* \"contracts/MarketPlace.sol\":5909:5922  randMod(1000) */\n      tag_296\n        /* \"contracts/MarketPlace.sol\":5917:5921  1000 */\n      0x03e8\n        /* \"contracts/MarketPlace.sol\":5909:5916  randMod */\n      tag_72\n        /* \"contracts/MarketPlace.sol\":5909:5922  randMod(1000) */\n      jump\t// in\n    tag_296:\n        /* \"contracts/MarketPlace.sol\":5829:5923  Product(_amount, userProducts[_shop][_id].price, userProducts[_shop][_id].name, randMod(1000)) */\n      dup2\n      mstore\n      pop\n        /* \"contracts/MarketPlace.sol\":5804:5923  Product memory newItem = Product(_amount, userProducts[_shop][_id].price, userProducts[_shop][_id].name, randMod(1000)) */\n      swap1\n      pop\n        /* \"contracts/MarketPlace.sol\":5937:5949  userProducts */\n      0x03\n        /* \"contracts/MarketPlace.sol\":5937:5961  userProducts[msg.sender] */\n      0x00\n        /* \"contracts/MarketPlace.sol\":5950:5960  msg.sender */\n      caller\n        /* \"contracts/MarketPlace.sol\":5937:5961  userProducts[msg.sender] */\n      0xffffffffffffffffffffffffffffffffffffffff\n      and\n      0xffffffffffffffffffffffffffffffffffffffff\n      and\n      dup2\n      mstore\n      0x20\n      add\n      swap1\n      dup2\n      mstore\n      0x20\n      add\n      0x00\n      keccak256\n        /* \"contracts/MarketPlace.sol\":5967:5974  newItem */\n      dup2\n        /* \"contracts/MarketPlace.sol\":5937:5975  userProducts[msg.sender].push(newItem) */\n      swap1\n      dup1\n      0x01\n      dup2\n      sload\n      add\n      dup1\n      dup3\n      sstore\n      dup1\n      swap2\n      pop\n      pop\n      0x01\n      swap1\n      sub\n      swap1\n      0x00\n      mstore\n      keccak256(0x00, 0x20)\n      swap1\n      0x04\n      mul\n      add\n      0x00\n      swap1\n      swap2\n      swap1\n      swap2\n      swap1\n      swap2\n      pop\n      0x00\n      dup3\n      add\n      mload\n      dup2\n      0x00\n      add\n      sstore\n      0x20\n      dup3\n      add\n      mload\n      dup2\n      0x01\n      add\n      sstore\n      0x40\n      dup3\n      add\n      mload\n      dup2\n      0x02\n      add\n      swap1\n      dup2\n      tag_298\n      swap2\n      swap1\n      tag_132\n      jump\t// in\n    tag_298:\n      pop\n      0x60\n      dup3\n      add\n      mload\n      dup2\n      0x03\n      add\n      sstore\n      pop\n      pop\n        /* \"contracts/MarketPlace.sol\":5790:5986  {... */\n      pop\n        /* \"contracts/MarketPlace.sol\":5770:5986  if (!productExists) {... */\n    tag_284:\n        /* \"contracts/MarketPlace.sol\":6032:6039  _amount */\n      dup5\n        /* \"contracts/MarketPlace.sol\":5996:6008  userProducts */\n      0x03\n        /* \"contracts/MarketPlace.sol\":5996:6015  userProducts[_shop] */\n      0x00\n        /* \"contracts/MarketPlace.sol\":6009:6014  _shop */\n      dup9\n        /* \"contracts/MarketPlace.sol\":5996:6015  userProducts[_shop] */\n      0xffffffffffffffffffffffffffffffffffffffff\n      and\n      0xffffffffffffffffffffffffffffffffffffffff\n      and\n      dup2\n      mstore\n      0x20\n      add\n      swap1\n      dup2\n      mstore\n      0x20\n      add\n      0x00\n      keccak256\n        /* \"contracts/MarketPlace.sol\":6016:6019  _id */\n      dup6\n        /* \"contracts/MarketPlace.sol\":5996:6020  userProducts[_shop][_id] */\n      dup2\n      sload\n      dup2\n      lt\n      tag_299\n      jumpi\n      tag_300\n      tag_149\n      jump\t// in\n    tag_300:\n    tag_299:\n      swap1\n      0x00\n      mstore\n      keccak256(0x00, 0x20)\n      swap1\n      0x04\n      mul\n      add\n        /* \"contracts/MarketPlace.sol\":5996:6028  userProducts[_shop][_id].inStock */\n      0x00\n      add\n      0x00\n        /* \"contracts/MarketPlace.sol\":5996:6039  userProducts[_shop][_id].inStock -= _amount */\n      dup3\n      dup3\n      sload\n      tag_302\n      swap2\n      swap1\n      tag_178\n      jump\t// in\n    tag_302:\n      swap3\n      pop\n      pop\n      dup2\n      swap1\n      sstore\n      pop\n        /* \"contracts/MarketPlace.sol\":6066:6076  totalPrice */\n      dup2\n        /* \"contracts/MarketPlace.sol\":6054:6063  msg.value */\n      callvalue\n        /* \"contracts/MarketPlace.sol\":6054:6076  msg.value > totalPrice */\n      gt\n        /* \"contracts/MarketPlace.sol\":6050:6189  if (msg.value > totalPrice) {... */\n      iszero\n      tag_303\n      jumpi\n        /* \"contracts/MarketPlace.sol\":6092:6103  uint change */\n      0x00\n        /* \"contracts/MarketPlace.sol\":6118:6128  totalPrice */\n      dup3\n        /* \"contracts/MarketPlace.sol\":6106:6115  msg.value */\n      callvalue\n        /* \"contracts/MarketPlace.sol\":6106:6128  msg.value - totalPrice */\n      tag_304\n      swap2\n      swap1\n      tag_178\n      jump\t// in\n    tag_304:\n        /* \"contracts/MarketPlace.sol\":6092:6128  uint change = msg.value - totalPrice */\n      swap1\n      pop\n        /* \"contracts/MarketPlace.sol\":6150:6160  msg.sender */\n      caller\n        /* \"contracts/MarketPlace.sol\":6142:6170  payable(msg.sender).transfer */\n      0xffffffffffffffffffffffffffffffffffffffff\n      and\n        /* \"contracts/MarketPlace.sol\":6142:6178  payable(msg.sender).transfer(change) */\n      0x08fc\n        /* \"contracts/MarketPlace.sol\":6171:6177  change */\n      dup3\n        /* \"contracts/MarketPlace.sol\":6142:6178  payable(msg.sender).transfer(change) */\n      swap1\n      dup2\n      iszero\n      mul\n      swap1\n      mload(0x40)\n      0x00\n      mload(0x40)\n      dup1\n      dup4\n      sub\n      dup2\n      dup6\n      dup9\n      dup9\n      call\n      swap4\n      pop\n      pop\n      pop\n      pop\n      iszero\n      dup1\n      iszero\n      tag_306\n      jumpi\n      returndatasize\n      0x00\n      dup1\n      returndatacopy\n      revert(0x00, returndatasize)\n    tag_306:\n      pop\n        /* \"contracts/MarketPlace.sol\":6078:6189  {... */\n      pop\n        /* \"contracts/MarketPlace.sol\":6050:6189  if (msg.value > totalPrice) {... */\n    tag_303:\n        /* \"contracts/MarketPlace.sol\":6221:6231  totalPrice */\n      dup2\n        /* \"contracts/MarketPlace.sol\":6198:6203  users */\n      0x02\n        /* \"contracts/MarketPlace.sol\":6198:6210  users[_shop] */\n      0x00\n        /* \"contracts/MarketPlace.sol\":6204:6209  _shop */\n      dup9\n        /* \"contracts/MarketPlace.sol\":6198:6210  users[_shop] */\n      0xffffffffffffffffffffffffffffffffffffffff\n      and\n      0xffffffffffffffffffffffffffffffffffffffff\n      and\n      dup2\n      mstore\n      0x20\n      add\n      swap1\n      dup2\n      mstore\n      0x20\n      add\n      0x00\n      keccak256\n        /* \"contracts/MarketPlace.sol\":6198:6218  users[_shop].balance */\n      0x01\n      add\n        /* \"contracts/MarketPlace.sol\":6198:6231  users[_shop].balance = totalPrice */\n      dup2\n      swap1\n      sstore\n      pop\n        /* \"contracts/MarketPlace.sol\":4727:6243  {... */\n      pop\n      pop\n        /* \"contracts/MarketPlace.sol\":4634:6243  function purchase(address _shop, uint _amount, uint _id, string memory _ref ) public payable {... */\n      pop\n      pop\n      pop\n      pop\n      jump\t// out\n        /* \"contracts/MarketPlace.sol\":1607:1751  function genRef(string memory _nameRef, address _user) public {... */\n    tag_92:\n        /* \"contracts/MarketPlace.sol\":1701:1706  _user */\n      dup1\n        /* \"contracts/MarketPlace.sol\":1687:1706  msg.sender != _user */\n      0xffffffffffffffffffffffffffffffffffffffff\n      and\n        /* \"contracts/MarketPlace.sol\":1687:1697  msg.sender */\n      caller\n        /* \"contracts/MarketPlace.sol\":1687:1706  msg.sender != _user */\n      0xffffffffffffffffffffffffffffffffffffffff\n      and\n      sub\n        /* \"contracts/MarketPlace.sol\":1679:1707  require(msg.sender != _user) */\n      tag_308\n      jumpi\n      0x00\n      dup1\n      revert\n    tag_308:\n        /* \"contracts/MarketPlace.sol\":1739:1744  _user */\n      dup1\n        /* \"contracts/MarketPlace.sol\":1717:1726  referrals */\n      0x04\n        /* \"contracts/MarketPlace.sol\":1727:1735  _nameRef */\n      dup4\n        /* \"contracts/MarketPlace.sol\":1717:1736  referrals[_nameRef] */\n      mload(0x40)\n      tag_309\n      swap2\n      swap1\n      tag_258\n      jump\t// in\n    tag_309:\n      swap1\n      dup2\n      mstore\n      0x20\n      add\n      mload(0x40)\n      dup1\n      swap2\n      sub\n      swap1\n      keccak256\n      0x00\n        /* \"contracts/MarketPlace.sol\":1717:1744  referrals[_nameRef] = _user */\n      0x0100\n      exp\n      dup2\n      sload\n      dup2\n      0xffffffffffffffffffffffffffffffffffffffff\n      mul\n      not\n      and\n      swap1\n      dup4\n      0xffffffffffffffffffffffffffffffffffffffff\n      and\n      mul\n      or\n      swap1\n      sstore\n      pop\n        /* \"contracts/MarketPlace.sol\":1607:1751  function genRef(string memory _nameRef, address _user) public {... */\n      pop\n      pop\n      jump\t// out\n        /* \"contracts/MarketPlace.sol\":488:525  mapping(address => User) public users */\n    tag_97:\n      mstore(0x20, 0x02)\n      dup1\n      0x00\n      mstore\n      keccak256(0x00, 0x40)\n      0x00\n      swap2\n      pop\n      swap1\n      pop\n      dup1\n      0x00\n      add\n      0x00\n      swap1\n      sload\n      swap1\n      0x0100\n      exp\n      swap1\n      div\n      0xff\n      and\n      swap1\n      dup1\n      0x01\n      add\n      sload\n      swap1\n      pop\n      dup3\n      jump\t// out\n        /* \"contracts/MarketPlace.sol\":973:1055  function makeUser() public {... */\n    tag_102:\n        /* \"contracts/MarketPlace.sol\":1030:1048  User(Role.User, 0) */\n      mload(0x40)\n      dup1\n      0x40\n      add\n      0x40\n      mstore\n      dup1\n        /* \"contracts/MarketPlace.sol\":1035:1044  Role.User */\n      0x00\n        /* \"contracts/MarketPlace.sol\":1030:1048  User(Role.User, 0) */\n      0x02\n      dup2\n      gt\n      iszero\n      tag_311\n      jumpi\n      tag_312\n      tag_120\n      jump\t// in\n    tag_312:\n    tag_311:\n      dup2\n      mstore\n      0x20\n      add\n        /* \"contracts/MarketPlace.sol\":1046:1047  0 */\n      0x00\n        /* \"contracts/MarketPlace.sol\":1030:1048  User(Role.User, 0) */\n      dup2\n      mstore\n      pop\n        /* \"contracts/MarketPlace.sol\":1010:1015  users */\n      0x02\n        /* \"contracts/MarketPlace.sol\":1010:1027  users[msg.sender] */\n      0x00\n        /* \"contracts/MarketPlace.sol\":1016:1026  msg.sender */\n      caller\n        /* \"contracts/MarketPlace.sol\":1010:1027  users[msg.sender] */\n      0xffffffffffffffffffffffffffffffffffffffff\n      and\n      0xffffffffffffffffffffffffffffffffffffffff\n      and\n      dup2\n      mstore\n      0x20\n      add\n      swap1\n      dup2\n      mstore\n      0x20\n      add\n      0x00\n      keccak256\n        /* \"contracts/MarketPlace.sol\":1010:1048  users[msg.sender] = User(Role.User, 0) */\n      0x00\n      dup3\n      add\n      mload\n      dup2\n      0x00\n      add\n      exp(0x0100, 0x00)\n      dup2\n      sload\n      dup2\n      0xff\n      mul\n      not\n      and\n      swap1\n      dup4\n      0x02\n      dup2\n      gt\n      iszero\n      tag_313\n      jumpi\n      tag_314\n      tag_120\n      jump\t// in\n    tag_314:\n    tag_313:\n      mul\n      or\n      swap1\n      sstore\n      pop\n      0x20\n      dup3\n      add\n      mload\n      dup2\n      0x01\n      add\n      sstore\n      swap1\n      pop\n      pop\n        /* \"contracts/MarketPlace.sol\":973:1055  function makeUser() public {... */\n      jump\t// out\n        /* \"contracts/MarketPlace.sol\":586:629  mapping(string => address) public referrals */\n    tag_107:\n      0x04\n      dup2\n      dup1\n      mload\n      0x20\n      dup2\n      add\n      dup3\n      add\n      dup1\n      mload\n      dup5\n      dup3\n      mstore\n      0x20\n      dup4\n      add\n      0x20\n      dup6\n      add\n      keccak256\n      dup2\n      dup4\n      mstore\n      dup1\n      swap6\n      pop\n      pop\n      pop\n      pop\n      pop\n      pop\n      0x00\n      swap2\n      pop\n      sload\n      swap1\n      0x0100\n      exp\n      swap1\n      div\n      0xffffffffffffffffffffffffffffffffffffffff\n      and\n      dup2\n      jump\t// out\n        /* \"contracts/MarketPlace.sol\":6249:6386  function withdrawBal(address _shop) public {... */\n    tag_112:\n        /* \"contracts/MarketPlace.sol\":6302:6314  uint balance */\n      0x00\n        /* \"contracts/MarketPlace.sol\":6317:6322  users */\n      0x02\n        /* \"contracts/MarketPlace.sol\":6317:6329  users[_shop] */\n      0x00\n        /* \"contracts/MarketPlace.sol\":6323:6328  _shop */\n      dup4\n        /* \"contracts/MarketPlace.sol\":6317:6329  users[_shop] */\n      0xffffffffffffffffffffffffffffffffffffffff\n      and\n      0xffffffffffffffffffffffffffffffffffffffff\n      and\n      dup2\n      mstore\n      0x20\n      add\n      swap1\n      dup2\n      mstore\n      0x20\n      add\n      0x00\n      keccak256\n        /* \"contracts/MarketPlace.sol\":6317:6337  users[_shop].balance */\n      0x01\n      add\n      sload\n        /* \"contracts/MarketPlace.sol\":6302:6337  uint balance = users[_shop].balance */\n      swap1\n      pop\n        /* \"contracts/MarketPlace.sol\":6355:6360  _shop */\n      dup2\n        /* \"contracts/MarketPlace.sol\":6347:6370  payable(_shop).transfer */\n      0xffffffffffffffffffffffffffffffffffffffff\n      and\n        /* \"contracts/MarketPlace.sol\":6347:6379  payable(_shop).transfer(balance) */\n      0x08fc\n        /* \"contracts/MarketPlace.sol\":6371:6378  balance */\n      dup3\n        /* \"contracts/MarketPlace.sol\":6347:6379  payable(_shop).transfer(balance) */\n      swap1\n      dup2\n      iszero\n      mul\n      swap1\n      mload(0x40)\n      0x00\n      mload(0x40)\n      dup1\n      dup4\n      sub\n      dup2\n      dup6\n      dup9\n      dup9\n      call\n      swap4\n      pop\n      pop\n      pop\n      pop\n      iszero\n      dup1\n      iszero\n      tag_317\n      jumpi\n      returndatasize\n      0x00\n      dup1\n      returndatacopy\n      revert(0x00, returndatasize)\n    tag_317:\n      pop\n        /* \"contracts/MarketPlace.sol\":6292:6386  {... */\n      pop\n        /* \"contracts/MarketPlace.sol\":6249:6386  function withdrawBal(address _shop) public {... */\n      pop\n      jump\t// out\n        /* \"contracts/MarketPlace.sol\":2685:4019  function refillStore(address _shop, uint _productId, uint _amount, address _supplier) public payable AccessControl(Role.Market, _shop){... */\n    tag_116:\n        /* \"contracts/MarketPlace.sol\":2800:2811  Role.Market */\n      0x01\n        /* \"contracts/MarketPlace.sol\":2813:2818  _shop */\n      dup5\n        /* \"contracts/MarketPlace.sol\":816:821  _role */\n      dup2\n        /* \"contracts/MarketPlace.sol\":790:821  users[msg.sender].role == _role */\n      0x02\n      dup2\n      gt\n      iszero\n      tag_319\n      jumpi\n      tag_320\n      tag_120\n      jump\t// in\n    tag_320:\n    tag_319:\n        /* \"contracts/MarketPlace.sol\":790:795  users */\n      0x02\n        /* \"contracts/MarketPlace.sol\":790:807  users[msg.sender] */\n      0x00\n        /* \"contracts/MarketPlace.sol\":796:806  msg.sender */\n      caller\n        /* \"contracts/MarketPlace.sol\":790:807  users[msg.sender] */\n      0xffffffffffffffffffffffffffffffffffffffff\n      and\n      0xffffffffffffffffffffffffffffffffffffffff\n      and\n      dup2\n      mstore\n      0x20\n      add\n      swap1\n      dup2\n      mstore\n      0x20\n      add\n      0x00\n      keccak256\n        /* \"contracts/MarketPlace.sol\":790:812  users[msg.sender].role */\n      0x00\n      add\n      0x00\n      swap1\n      sload\n      swap1\n      0x0100\n      exp\n      swap1\n      div\n      0xff\n      and\n        /* \"contracts/MarketPlace.sol\":790:821  users[msg.sender].role == _role */\n      0x02\n      dup2\n      gt\n      iszero\n      tag_321\n      jumpi\n      tag_322\n      tag_120\n      jump\t// in\n    tag_322:\n    tag_321:\n      eq\n        /* \"contracts/MarketPlace.sol\":782:833  require(users[msg.sender].role == _role, unicode\"\") */\n      tag_323\n      jumpi\n      mload(0x40)\n      0x08c379a000000000000000000000000000000000000000000000000000000000\n      dup2\n      mstore\n      0x04\n      add\n      tag_324\n      swap1\n      tag_125\n      jump\t// in\n    tag_324:\n      mload(0x40)\n      dup1\n      swap2\n      sub\n      swap1\n      revert\n    tag_323:\n        /* \"contracts/MarketPlace.sol\":865:870  _shop */\n      dup1\n        /* \"contracts/MarketPlace.sol\":851:870  msg.sender == _shop */\n      0xffffffffffffffffffffffffffffffffffffffff\n      and\n        /* \"contracts/MarketPlace.sol\":851:861  msg.sender */\n      caller\n        /* \"contracts/MarketPlace.sol\":851:870  msg.sender == _shop */\n      0xffffffffffffffffffffffffffffffffffffffff\n      and\n      eq\n        /* \"contracts/MarketPlace.sol\":843:949  require(msg.sender == _shop, unicode\"Магазин не соответсвует отправителю\") */\n      tag_325\n      jumpi\n      mload(0x40)\n      0x08c379a000000000000000000000000000000000000000000000000000000000\n      dup2\n      mstore\n      0x04\n      add\n      tag_326\n      swap1\n      tag_128\n      jump\t// in\n    tag_326:\n      mload(0x40)\n      dup1\n      swap2\n      sub\n      swap1\n      revert\n    tag_325:\n        /* \"contracts/MarketPlace.sol\":2847:2848  0 */\n      0x00\n        /* \"contracts/MarketPlace.sol\":2837:2844  _amount */\n      dup5\n        /* \"contracts/MarketPlace.sol\":2837:2848  _amount > 0 */\n      gt\n        /* \"contracts/MarketPlace.sol\":2829:2891  require(_amount > 0, \"Purchase amount must be greater than 0\") */\n      tag_328\n      jumpi\n      mload(0x40)\n      0x08c379a000000000000000000000000000000000000000000000000000000000\n      dup2\n      mstore\n      0x04\n      add\n      tag_329\n      swap1\n      tag_242\n      jump\t// in\n    tag_329:\n      mload(0x40)\n      dup1\n      swap2\n      sub\n      swap1\n      revert\n    tag_328:\n        /* \"contracts/MarketPlace.sol\":2922:2934  userProducts */\n      0x03\n        /* \"contracts/MarketPlace.sol\":2922:2945  userProducts[_supplier] */\n      0x00\n        /* \"contracts/MarketPlace.sol\":2935:2944  _supplier */\n      dup5\n        /* \"contracts/MarketPlace.sol\":2922:2945  userProducts[_supplier] */\n      0xffffffffffffffffffffffffffffffffffffffff\n      and\n      0xffffffffffffffffffffffffffffffffffffffff\n      and\n      dup2\n      mstore\n      0x20\n      add\n      swap1\n      dup2\n      mstore\n      0x20\n      add\n      0x00\n      keccak256\n        /* \"contracts/MarketPlace.sol\":2922:2952  userProducts[_supplier].length */\n      dup1\n      sload\n      swap1\n      pop\n        /* \"contracts/MarketPlace.sol\":2909:2919  _productId */\n      dup6\n        /* \"contracts/MarketPlace.sol\":2909:2952  _productId < userProducts[_supplier].length */\n      lt\n        /* \"contracts/MarketPlace.sol\":2901:2975  require(_productId < userProducts[_supplier].length, \"Invalid product ID\") */\n      tag_330\n      jumpi\n      mload(0x40)\n      0x08c379a000000000000000000000000000000000000000000000000000000000\n      dup2\n      mstore\n      0x04\n      add\n      tag_331\n      swap1\n      tag_245\n      jump\t// in\n    tag_331:\n      mload(0x40)\n      dup1\n      swap2\n      sub\n      swap1\n      revert\n    tag_330:\n        /* \"contracts/MarketPlace.sol\":2986:2996  uint price */\n      0x00\n        /* \"contracts/MarketPlace.sol\":2999:3011  userProducts */\n      0x03\n        /* \"contracts/MarketPlace.sol\":2999:3022  userProducts[_supplier] */\n      0x00\n        /* \"contracts/MarketPlace.sol\":3012:3021  _supplier */\n      dup6\n        /* \"contracts/MarketPlace.sol\":2999:3022  userProducts[_supplier] */\n      0xffffffffffffffffffffffffffffffffffffffff\n      and\n      0xffffffffffffffffffffffffffffffffffffffff\n      and\n      dup2\n      mstore\n      0x20\n      add\n      swap1\n      dup2\n      mstore\n      0x20\n      add\n      0x00\n      keccak256\n        /* \"contracts/MarketPlace.sol\":3023:3033  _productId */\n      dup7\n        /* \"contracts/MarketPlace.sol\":2999:3034  userProducts[_supplier][_productId] */\n      dup2\n      sload\n      dup2\n      lt\n      tag_332\n      jumpi\n      tag_333\n      tag_149\n      jump\t// in\n    tag_333:\n    tag_332:\n      swap1\n      0x00\n      mstore\n      keccak256(0x00, 0x20)\n      swap1\n      0x04\n      mul\n      add\n        /* \"contracts/MarketPlace.sol\":2999:3040  userProducts[_supplier][_productId].price */\n      0x01\n      add\n      sload\n        /* \"contracts/MarketPlace.sol\":2986:3040  uint price = userProducts[_supplier][_productId].price */\n      swap1\n      pop\n        /* \"contracts/MarketPlace.sol\":3050:3065  uint totalPrice */\n      0x00\n        /* \"contracts/MarketPlace.sol\":3086:3093  1 ether */\n      0x0de0b6b3a7640000\n        /* \"contracts/MarketPlace.sol\":3076:3083  _amount */\n      dup7\n        /* \"contracts/MarketPlace.sol\":3068:3073  price */\n      dup4\n        /* \"contracts/MarketPlace.sol\":3068:3083  price * _amount */\n      tag_335\n      swap2\n      swap1\n      tag_162\n      jump\t// in\n    tag_335:\n        /* \"contracts/MarketPlace.sol\":3068:3093  price * _amount * 1 ether */\n      tag_336\n      swap2\n      swap1\n      tag_162\n      jump\t// in\n    tag_336:\n        /* \"contracts/MarketPlace.sol\":3050:3093  uint totalPrice = price * _amount * 1 ether */\n      swap1\n      pop\n        /* \"contracts/MarketPlace.sol\":3125:3135  totalPrice */\n      dup1\n        /* \"contracts/MarketPlace.sol\":3112:3121  msg.value */\n      callvalue\n        /* \"contracts/MarketPlace.sol\":3112:3135  msg.value >= totalPrice */\n      lt\n      iszero\n        /* \"contracts/MarketPlace.sol\":3104:3163  require(msg.value >= totalPrice, \"Insufficient funds sent\") */\n      tag_337\n      jumpi\n      mload(0x40)\n      0x08c379a000000000000000000000000000000000000000000000000000000000\n      dup2\n      mstore\n      0x04\n      add\n      tag_338\n      swap1\n      tag_265\n      jump\t// in\n    tag_338:\n      mload(0x40)\n      dup1\n      swap2\n      sub\n      swap1\n      revert\n    tag_337:\n        /* \"contracts/MarketPlace.sol\":3173:3185  uint expDate */\n      0x00\n        /* \"contracts/MarketPlace.sol\":3188:3200  userProducts */\n      0x03\n        /* \"contracts/MarketPlace.sol\":3188:3211  userProducts[_supplier] */\n      0x00\n        /* \"contracts/MarketPlace.sol\":3201:3210  _supplier */\n      dup8\n        /* \"contracts/MarketPlace.sol\":3188:3211  userProducts[_supplier] */\n      0xffffffffffffffffffffffffffffffffffffffff\n      and\n      0xffffffffffffffffffffffffffffffffffffffff\n      and\n      dup2\n      mstore\n      0x20\n      add\n      swap1\n      dup2\n      mstore\n      0x20\n      add\n      0x00\n      keccak256\n        /* \"contracts/MarketPlace.sol\":3212:3222  _productId */\n      dup9\n        /* \"contracts/MarketPlace.sol\":3188:3223  userProducts[_supplier][_productId] */\n      dup2\n      sload\n      dup2\n      lt\n      tag_339\n      jumpi\n      tag_340\n      tag_149\n      jump\t// in\n    tag_340:\n    tag_339:\n      swap1\n      0x00\n      mstore\n      keccak256(0x00, 0x20)\n      swap1\n      0x04\n      mul\n      add\n        /* \"contracts/MarketPlace.sol\":3188:3231  userProducts[_supplier][_productId].expDate */\n      0x03\n      add\n      sload\n        /* \"contracts/MarketPlace.sol\":3173:3231  uint expDate = userProducts[_supplier][_productId].expDate */\n      swap1\n      pop\n        /* \"contracts/MarketPlace.sol\":3242:3266  string memory targetName */\n      0x00\n        /* \"contracts/MarketPlace.sol\":3269:3281  userProducts */\n      0x03\n        /* \"contracts/MarketPlace.sol\":3269:3292  userProducts[_supplier] */\n      0x00\n        /* \"contracts/MarketPlace.sol\":3282:3291  _supplier */\n      dup9\n        /* \"contracts/MarketPlace.sol\":3269:3292  userProducts[_supplier] */\n      0xffffffffffffffffffffffffffffffffffffffff\n      and\n      0xffffffffffffffffffffffffffffffffffffffff\n      and\n      dup2\n      mstore\n      0x20\n      add\n      swap1\n      dup2\n      mstore\n      0x20\n      add\n      0x00\n      keccak256\n        /* \"contracts/MarketPlace.sol\":3293:3303  _productId */\n      dup10\n        /* \"contracts/MarketPlace.sol\":3269:3304  userProducts[_supplier][_productId] */\n      dup2\n      sload\n      dup2\n      lt\n      tag_342\n      jumpi\n      tag_343\n      tag_149\n      jump\t// in\n    tag_343:\n    tag_342:\n      swap1\n      0x00\n      mstore\n      keccak256(0x00, 0x20)\n      swap1\n      0x04\n      mul\n      add\n        /* \"contracts/MarketPlace.sol\":3269:3309  userProducts[_supplier][_productId].name */\n      0x02\n      add\n        /* \"contracts/MarketPlace.sol\":3242:3309  string memory targetName = userProducts[_supplier][_productId].name */\n      dup1\n      sload\n      tag_345\n      swap1\n      tag_136\n      jump\t// in\n    tag_345:\n      dup1\n      0x1f\n      add\n      0x20\n      dup1\n      swap2\n      div\n      mul\n      0x20\n      add\n      mload(0x40)\n      swap1\n      dup2\n      add\n      0x40\n      mstore\n      dup1\n      swap3\n      swap2\n      swap1\n      dup2\n      dup2\n      mstore\n      0x20\n      add\n      dup3\n      dup1\n      sload\n      tag_346\n      swap1\n      tag_136\n      jump\t// in\n    tag_346:\n      dup1\n      iszero\n      tag_347\n      jumpi\n      dup1\n      0x1f\n      lt\n      tag_348\n      jumpi\n      0x0100\n      dup1\n      dup4\n      sload\n      div\n      mul\n      dup4\n      mstore\n      swap2\n      0x20\n      add\n      swap2\n      jump(tag_347)\n    tag_348:\n      dup3\n      add\n      swap2\n      swap1\n      0x00\n      mstore\n      keccak256(0x00, 0x20)\n      swap1\n    tag_349:\n      dup2\n      sload\n      dup2\n      mstore\n      swap1\n      0x01\n      add\n      swap1\n      0x20\n      add\n      dup1\n      dup4\n      gt\n      tag_349\n      jumpi\n      dup3\n      swap1\n      sub\n      0x1f\n      and\n      dup3\n      add\n      swap2\n    tag_347:\n      pop\n      pop\n      pop\n      pop\n      pop\n      swap1\n      pop\n        /* \"contracts/MarketPlace.sol\":3319:3337  bool productExists */\n      0x00\n        /* \"contracts/MarketPlace.sol\":3360:3366  uint i */\n      dup1\n        /* \"contracts/MarketPlace.sol\":3356:3628  for(uint i = 0; i< userProducts[_shop].length; i++){... */\n    tag_350:\n        /* \"contracts/MarketPlace.sol\":3375:3387  userProducts */\n      0x03\n        /* \"contracts/MarketPlace.sol\":3375:3394  userProducts[_shop] */\n      0x00\n        /* \"contracts/MarketPlace.sol\":3388:3393  _shop */\n      dup14\n        /* \"contracts/MarketPlace.sol\":3375:3394  userProducts[_shop] */\n      0xffffffffffffffffffffffffffffffffffffffff\n      and\n      0xffffffffffffffffffffffffffffffffffffffff\n      and\n      dup2\n      mstore\n      0x20\n      add\n      swap1\n      dup2\n      mstore\n      0x20\n      add\n      0x00\n      keccak256\n        /* \"contracts/MarketPlace.sol\":3375:3401  userProducts[_shop].length */\n      dup1\n      sload\n      swap1\n      pop\n        /* \"contracts/MarketPlace.sol\":3372:3373  i */\n      dup2\n        /* \"contracts/MarketPlace.sol\":3372:3401  i< userProducts[_shop].length */\n      lt\n        /* \"contracts/MarketPlace.sol\":3356:3628  for(uint i = 0; i< userProducts[_shop].length; i++){... */\n      iszero\n      tag_351\n      jumpi\n        /* \"contracts/MarketPlace.sol\":3473:3485  userProducts */\n      0x03\n        /* \"contracts/MarketPlace.sol\":3473:3492  userProducts[_shop] */\n      0x00\n        /* \"contracts/MarketPlace.sol\":3486:3491  _shop */\n      dup14\n        /* \"contracts/MarketPlace.sol\":3473:3492  userProducts[_shop] */\n      0xffffffffffffffffffffffffffffffffffffffff\n      and\n      0xffffffffffffffffffffffffffffffffffffffff\n      and\n      dup2\n      mstore\n      0x20\n      add\n      swap1\n      dup2\n      mstore\n      0x20\n      add\n      0x00\n      keccak256\n        /* \"contracts/MarketPlace.sol\":3493:3494  i */\n      dup2\n        /* \"contracts/MarketPlace.sol\":3473:3495  userProducts[_shop][i] */\n      dup2\n      sload\n      dup2\n      lt\n      tag_353\n      jumpi\n      tag_354\n      tag_149\n      jump\t// in\n    tag_354:\n    tag_353:\n      swap1\n      0x00\n      mstore\n      keccak256(0x00, 0x20)\n      swap1\n      0x04\n      mul\n      add\n        /* \"contracts/MarketPlace.sol\":3473:3500  userProducts[_shop][i].name */\n      0x02\n      add\n        /* \"contracts/MarketPlace.sol\":3457:3502  keccak256(bytes(userProducts[_shop][i].name)) */\n      mload(0x40)\n      tag_356\n      swap2\n      swap1\n      tag_273\n      jump\t// in\n    tag_356:\n      mload(0x40)\n      dup1\n      swap2\n      sub\n      swap1\n      keccak256\n        /* \"contracts/MarketPlace.sol\":3441:3451  targetName */\n      dup4\n        /* \"contracts/MarketPlace.sol\":3425:3453  keccak256(bytes(targetName)) */\n      dup1\n      mload\n      swap1\n      0x20\n      add\n      keccak256\n        /* \"contracts/MarketPlace.sol\":3425:3502  keccak256(bytes(targetName)) == keccak256(bytes(userProducts[_shop][i].name)) */\n      sub\n        /* \"contracts/MarketPlace.sol\":3421:3618  if (keccak256(bytes(targetName)) == keccak256(bytes(userProducts[_shop][i].name))){... */\n      tag_357\n      jumpi\n        /* \"contracts/MarketPlace.sol\":3555:3562  _amount */\n      dup10\n        /* \"contracts/MarketPlace.sol\":3521:3533  userProducts */\n      0x03\n        /* \"contracts/MarketPlace.sol\":3521:3540  userProducts[_shop] */\n      0x00\n        /* \"contracts/MarketPlace.sol\":3534:3539  _shop */\n      dup15\n        /* \"contracts/MarketPlace.sol\":3521:3540  userProducts[_shop] */\n      0xffffffffffffffffffffffffffffffffffffffff\n      and\n      0xffffffffffffffffffffffffffffffffffffffff\n      and\n      dup2\n      mstore\n      0x20\n      add\n      swap1\n      dup2\n      mstore\n      0x20\n      add\n      0x00\n      keccak256\n        /* \"contracts/MarketPlace.sol\":3541:3542  i */\n      dup3\n        /* \"contracts/MarketPlace.sol\":3521:3543  userProducts[_shop][i] */\n      dup2\n      sload\n      dup2\n      lt\n      tag_358\n      jumpi\n      tag_359\n      tag_149\n      jump\t// in\n    tag_359:\n    tag_358:\n      swap1\n      0x00\n      mstore\n      keccak256(0x00, 0x20)\n      swap1\n      0x04\n      mul\n      add\n        /* \"contracts/MarketPlace.sol\":3521:3551  userProducts[_shop][i].inStock */\n      0x00\n      add\n      0x00\n        /* \"contracts/MarketPlace.sol\":3521:3562  userProducts[_shop][i].inStock += _amount */\n      dup3\n      dup3\n      sload\n      tag_361\n      swap2\n      swap1\n      tag_171\n      jump\t// in\n    tag_361:\n      swap3\n      pop\n      pop\n      dup2\n      swap1\n      sstore\n      pop\n        /* \"contracts/MarketPlace.sol\":3596:3600  true */\n      0x01\n        /* \"contracts/MarketPlace.sol\":3580:3600  productExists = true */\n      swap2\n      pop\n        /* \"contracts/MarketPlace.sol\":3421:3618  if (keccak256(bytes(targetName)) == keccak256(bytes(userProducts[_shop][i].name))){... */\n    tag_357:\n        /* \"contracts/MarketPlace.sol\":3403:3406  i++ */\n      dup1\n      dup1\n      tag_362\n      swap1\n      tag_211\n      jump\t// in\n    tag_362:\n      swap2\n      pop\n      pop\n        /* \"contracts/MarketPlace.sol\":3356:3628  for(uint i = 0; i< userProducts[_shop].length; i++){... */\n      jump(tag_350)\n    tag_351:\n      pop\n        /* \"contracts/MarketPlace.sol\":3643:3656  productExists */\n      dup1\n        /* \"contracts/MarketPlace.sol\":3638:3798  if (!productExists){... */\n      tag_363\n      jumpi\n        /* \"contracts/MarketPlace.sol\":3671:3693  Product memory newItem */\n      0x00\n        /* \"contracts/MarketPlace.sol\":3696:3740  Product(_amount, price, targetName, expDate) */\n      mload(0x40)\n      dup1\n      0x80\n      add\n      0x40\n      mstore\n      dup1\n        /* \"contracts/MarketPlace.sol\":3704:3711  _amount */\n      dup12\n        /* \"contracts/MarketPlace.sol\":3696:3740  Product(_amount, price, targetName, expDate) */\n      dup2\n      mstore\n      0x20\n      add\n        /* \"contracts/MarketPlace.sol\":3713:3718  price */\n      dup8\n        /* \"contracts/MarketPlace.sol\":3696:3740  Product(_amount, price, targetName, expDate) */\n      dup2\n      mstore\n      0x20\n      add\n        /* \"contracts/MarketPlace.sol\":3720:3730  targetName */\n      dup5\n        /* \"contracts/MarketPlace.sol\":3696:3740  Product(_amount, price, targetName, expDate) */\n      dup2\n      mstore\n      0x20\n      add\n        /* \"contracts/MarketPlace.sol\":3732:3739  expDate */\n      dup6\n        /* \"contracts/MarketPlace.sol\":3696:3740  Product(_amount, price, targetName, expDate) */\n      dup2\n      mstore\n      pop\n        /* \"contracts/MarketPlace.sol\":3671:3740  Product memory newItem = Product(_amount, price, targetName, expDate) */\n      swap1\n      pop\n        /* \"contracts/MarketPlace.sol\":3754:3766  userProducts */\n      0x03\n        /* \"contracts/MarketPlace.sol\":3754:3773  userProducts[_shop] */\n      0x00\n        /* \"contracts/MarketPlace.sol\":3767:3772  _shop */\n      dup14\n        /* \"contracts/MarketPlace.sol\":3754:3773  userProducts[_shop] */\n      0xffffffffffffffffffffffffffffffffffffffff\n      and\n      0xffffffffffffffffffffffffffffffffffffffff\n      and\n      dup2\n      mstore\n      0x20\n      add\n      swap1\n      dup2\n      mstore\n      0x20\n      add\n      0x00\n      keccak256\n        /* \"contracts/MarketPlace.sol\":3779:3786  newItem */\n      dup2\n        /* \"contracts/MarketPlace.sol\":3754:3787  userProducts[_shop].push(newItem) */\n      swap1\n      dup1\n      0x01\n      dup2\n      sload\n      add\n      dup1\n      dup3\n      sstore\n      dup1\n      swap2\n      pop\n      pop\n      0x01\n      swap1\n      sub\n      swap1\n      0x00\n      mstore\n      keccak256(0x00, 0x20)\n      swap1\n      0x04\n      mul\n      add\n      0x00\n      swap1\n      swap2\n      swap1\n      swap2\n      swap1\n      swap2\n      pop\n      0x00\n      dup3\n      add\n      mload\n      dup2\n      0x00\n      add\n      sstore\n      0x20\n      dup3\n      add\n      mload\n      dup2\n      0x01\n      add\n      sstore\n      0x40\n      dup3\n      add\n      mload\n      dup2\n      0x02\n      add\n      swap1\n      dup2\n      tag_365\n      swap2\n      swap1\n      tag_132\n      jump\t// in\n    tag_365:\n      pop\n      0x60\n      dup3\n      add\n      mload\n      dup2\n      0x03\n      add\n      sstore\n      pop\n      pop\n        /* \"contracts/MarketPlace.sol\":3657:3798  {... */\n      pop\n        /* \"contracts/MarketPlace.sol\":3638:3798  if (!productExists){... */\n    tag_363:\n        /* \"contracts/MarketPlace.sol\":3855:3862  _amount */\n      dup9\n        /* \"contracts/MarketPlace.sol\":3808:3820  userProducts */\n      0x03\n        /* \"contracts/MarketPlace.sol\":3808:3831  userProducts[_supplier] */\n      0x00\n        /* \"contracts/MarketPlace.sol\":3821:3830  _supplier */\n      dup11\n        /* \"contracts/MarketPlace.sol\":3808:3831  userProducts[_supplier] */\n      0xffffffffffffffffffffffffffffffffffffffff\n      and\n      0xffffffffffffffffffffffffffffffffffffffff\n      and\n      dup2\n      mstore\n      0x20\n      add\n      swap1\n      dup2\n      mstore\n      0x20\n      add\n      0x00\n      keccak256\n        /* \"contracts/MarketPlace.sol\":3832:3842  _productId */\n      dup12\n        /* \"contracts/MarketPlace.sol\":3808:3843  userProducts[_supplier][_productId] */\n      dup2\n      sload\n      dup2\n      lt\n      tag_366\n      jumpi\n      tag_367\n      tag_149\n      jump\t// in\n    tag_367:\n    tag_366:\n      swap1\n      0x00\n      mstore\n      keccak256(0x00, 0x20)\n      swap1\n      0x04\n      mul\n      add\n        /* \"contracts/MarketPlace.sol\":3808:3851  userProducts[_supplier][_productId].inStock */\n      0x00\n      add\n      0x00\n        /* \"contracts/MarketPlace.sol\":3808:3862  userProducts[_supplier][_productId].inStock -= _amount */\n      dup3\n      dup3\n      sload\n      tag_369\n      swap2\n      swap1\n      tag_178\n      jump\t// in\n    tag_369:\n      swap3\n      pop\n      pop\n      dup2\n      swap1\n      sstore\n      pop\n        /* \"contracts/MarketPlace.sol\":3889:3899  totalPrice */\n      dup4\n        /* \"contracts/MarketPlace.sol\":3877:3886  msg.value */\n      callvalue\n        /* \"contracts/MarketPlace.sol\":3877:3899  msg.value > totalPrice */\n      gt\n        /* \"contracts/MarketPlace.sol\":3873:4012  if (msg.value > totalPrice) {... */\n      iszero\n      tag_370\n      jumpi\n        /* \"contracts/MarketPlace.sol\":3915:3926  uint change */\n      0x00\n        /* \"contracts/MarketPlace.sol\":3941:3951  totalPrice */\n      dup5\n        /* \"contracts/MarketPlace.sol\":3929:3938  msg.value */\n      callvalue\n        /* \"contracts/MarketPlace.sol\":3929:3951  msg.value - totalPrice */\n      tag_371\n      swap2\n      swap1\n      tag_178\n      jump\t// in\n    tag_371:\n        /* \"contracts/MarketPlace.sol\":3915:3951  uint change = msg.value - totalPrice */\n      swap1\n      pop\n        /* \"contracts/MarketPlace.sol\":3973:3983  msg.sender */\n      caller\n        /* \"contracts/MarketPlace.sol\":3965:3993  payable(msg.sender).transfer */\n      0xffffffffffffffffffffffffffffffffffffffff\n      and\n        /* \"contracts/MarketPlace.sol\":3965:4001  payable(msg.sender).transfer(change) */\n      0x08fc\n        /* \"contracts/MarketPlace.sol\":3994:4000  change */\n      dup3\n        /* \"contracts/MarketPlace.sol\":3965:4001  payable(msg.sender).transfer(change) */\n      swap1\n      dup2\n      iszero\n      mul\n      swap1\n      mload(0x40)\n      0x00\n      mload(0x40)\n      dup1\n      dup4\n      sub\n      dup2\n      dup6\n      dup9\n      dup9\n      call\n      swap4\n      pop\n      pop\n      pop\n      pop\n      iszero\n      dup1\n      iszero\n      tag_373\n      jumpi\n      returndatasize\n      0x00\n      dup1\n      returndatacopy\n      revert(0x00, returndatasize)\n    tag_373:\n      pop\n        /* \"contracts/MarketPlace.sol\":3901:4012  {... */\n      pop\n        /* \"contracts/MarketPlace.sol\":3873:4012  if (msg.value > totalPrice) {... */\n    tag_370:\n        /* \"contracts/MarketPlace.sol\":2819:4019  {... */\n      pop\n      pop\n      pop\n      pop\n      pop\n        /* \"contracts/MarketPlace.sol\":2685:4019  function refillStore(address _shop, uint _productId, uint _amount, address _supplier) public payable AccessControl(Role.Market, _shop){... */\n      pop\n      pop\n      pop\n      pop\n      pop\n      pop\n      jump\t// out\n    tag_176:\n      pop\n      dup1\n      sload\n      tag_374\n      swap1\n      tag_136\n      jump\t// in\n    tag_374:\n      0x00\n      dup3\n      sstore\n      dup1\n      0x1f\n      lt\n      tag_376\n      jumpi\n      pop\n      jump(tag_375)\n    tag_376:\n      0x1f\n      add\n      0x20\n      swap1\n      div\n      swap1\n      0x00\n      mstore\n      keccak256(0x00, 0x20)\n      swap1\n      dup2\n      add\n      swap1\n      tag_377\n      swap2\n      swap1\n      tag_378\n      jump\t// in\n    tag_377:\n    tag_375:\n      pop\n      jump\t// out\n    tag_378:\n    tag_379:\n      dup1\n      dup3\n      gt\n      iszero\n      tag_380\n      jumpi\n      0x00\n      dup2\n      0x00\n      swap1\n      sstore\n      pop\n      0x01\n      add\n      jump(tag_379)\n    tag_380:\n      pop\n      swap1\n      jump\t// out\n        /* \"#utility.yul\":7:82   */\n    tag_381:\n        /* \"#utility.yul\":40:46   */\n      0x00\n        /* \"#utility.yul\":73:75   */\n      0x40\n        /* \"#utility.yul\":67:76   */\n      mload\n        /* \"#utility.yul\":57:76   */\n      swap1\n      pop\n        /* \"#utility.yul\":7:82   */\n      swap1\n      jump\t// out\n        /* \"#utility.yul\":88:205   */\n    tag_382:\n        /* \"#utility.yul\":197:198   */\n      0x00\n        /* \"#utility.yul\":194:195   */\n      dup1\n        /* \"#utility.yul\":187:199   */\n      revert\n        /* \"#utility.yul\":211:328   */\n    tag_383:\n        /* \"#utility.yul\":320:321   */\n      0x00\n        /* \"#utility.yul\":317:318   */\n      dup1\n        /* \"#utility.yul\":310:322   */\n      revert\n        /* \"#utility.yul\":334:460   */\n    tag_384:\n        /* \"#utility.yul\":371:378   */\n      0x00\n        /* \"#utility.yul\":411:453   */\n      0xffffffffffffffffffffffffffffffffffffffff\n        /* \"#utility.yul\":404:409   */\n      dup3\n        /* \"#utility.yul\":400:454   */\n      and\n        /* \"#utility.yul\":389:454   */\n      swap1\n      pop\n        /* \"#utility.yul\":334:460   */\n      swap2\n      swap1\n      pop\n      jump\t// out\n        /* \"#utility.yul\":466:562   */\n    tag_385:\n        /* \"#utility.yul\":503:510   */\n      0x00\n        /* \"#utility.yul\":532:556   */\n      tag_463\n        /* \"#utility.yul\":550:555   */\n      dup3\n        /* \"#utility.yul\":532:556   */\n      tag_384\n      jump\t// in\n    tag_463:\n        /* \"#utility.yul\":521:556   */\n      swap1\n      pop\n        /* \"#utility.yul\":466:562   */\n      swap2\n      swap1\n      pop\n      jump\t// out\n        /* \"#utility.yul\":568:690   */\n    tag_386:\n        /* \"#utility.yul\":641:665   */\n      tag_465\n        /* \"#utility.yul\":659:664   */\n      dup2\n        /* \"#utility.yul\":641:665   */\n      tag_385\n      jump\t// in\n    tag_465:\n        /* \"#utility.yul\":634:639   */\n      dup2\n        /* \"#utility.yul\":631:666   */\n      eq\n        /* \"#utility.yul\":621:684   */\n      tag_466\n      jumpi\n        /* \"#utility.yul\":680:681   */\n      0x00\n        /* \"#utility.yul\":677:678   */\n      dup1\n        /* \"#utility.yul\":670:682   */\n      revert\n        /* \"#utility.yul\":621:684   */\n    tag_466:\n        /* \"#utility.yul\":568:690   */\n      pop\n      jump\t// out\n        /* \"#utility.yul\":696:835   */\n    tag_387:\n        /* \"#utility.yul\":742:747   */\n      0x00\n        /* \"#utility.yul\":780:786   */\n      dup2\n        /* \"#utility.yul\":767:787   */\n      calldataload\n        /* \"#utility.yul\":758:787   */\n      swap1\n      pop\n        /* \"#utility.yul\":796:829   */\n      tag_468\n        /* \"#utility.yul\":823:828   */\n      dup2\n        /* \"#utility.yul\":796:829   */\n      tag_386\n      jump\t// in\n    tag_468:\n        /* \"#utility.yul\":696:835   */\n      swap3\n      swap2\n      pop\n      pop\n      jump\t// out\n        /* \"#utility.yul\":841:918   */\n    tag_388:\n        /* \"#utility.yul\":878:885   */\n      0x00\n        /* \"#utility.yul\":907:912   */\n      dup2\n        /* \"#utility.yul\":896:912   */\n      swap1\n      pop\n        /* \"#utility.yul\":841:918   */\n      swap2\n      swap1\n      pop\n      jump\t// out\n        /* \"#utility.yul\":924:1046   */\n    tag_389:\n        /* \"#utility.yul\":997:1021   */\n      tag_471\n        /* \"#utility.yul\":1015:1020   */\n      dup2\n        /* \"#utility.yul\":997:1021   */\n      tag_388\n      jump\t// in\n    tag_471:\n        /* \"#utility.yul\":990:995   */\n      dup2\n        /* \"#utility.yul\":987:1022   */\n      eq\n        /* \"#utility.yul\":977:1040   */\n      tag_472\n      jumpi\n        /* \"#utility.yul\":1036:1037   */\n      0x00\n        /* \"#utility.yul\":1033:1034   */\n      dup1\n        /* \"#utility.yul\":1026:1038   */\n      revert\n        /* \"#utility.yul\":977:1040   */\n    tag_472:\n        /* \"#utility.yul\":924:1046   */\n      pop\n      jump\t// out\n        /* \"#utility.yul\":1052:1191   */\n    tag_390:\n        /* \"#utility.yul\":1098:1103   */\n      0x00\n        /* \"#utility.yul\":1136:1142   */\n      dup2\n        /* \"#utility.yul\":1123:1143   */\n      calldataload\n        /* \"#utility.yul\":1114:1143   */\n      swap1\n      pop\n        /* \"#utility.yul\":1152:1185   */\n      tag_474\n        /* \"#utility.yul\":1179:1184   */\n      dup2\n        /* \"#utility.yul\":1152:1185   */\n      tag_389\n      jump\t// in\n    tag_474:\n        /* \"#utility.yul\":1052:1191   */\n      swap3\n      swap2\n      pop\n      pop\n      jump\t// out\n        /* \"#utility.yul\":1197:1314   */\n    tag_391:\n        /* \"#utility.yul\":1306:1307   */\n      0x00\n        /* \"#utility.yul\":1303:1304   */\n      dup1\n        /* \"#utility.yul\":1296:1308   */\n      revert\n        /* \"#utility.yul\":1320:1437   */\n    tag_392:\n        /* \"#utility.yul\":1429:1430   */\n      0x00\n        /* \"#utility.yul\":1426:1427   */\n      dup1\n        /* \"#utility.yul\":1419:1431   */\n      revert\n        /* \"#utility.yul\":1443:1560   */\n    tag_393:\n        /* \"#utility.yul\":1552:1553   */\n      0x00\n        /* \"#utility.yul\":1549:1550   */\n      dup1\n        /* \"#utility.yul\":1542:1554   */\n      revert\n        /* \"#utility.yul\":1580:2133   */\n    tag_394:\n        /* \"#utility.yul\":1638:1646   */\n      0x00\n        /* \"#utility.yul\":1648:1654   */\n      dup1\n        /* \"#utility.yul\":1698:1701   */\n      dup4\n        /* \"#utility.yul\":1691:1695   */\n      0x1f\n        /* \"#utility.yul\":1683:1689   */\n      dup5\n        /* \"#utility.yul\":1679:1696   */\n      add\n        /* \"#utility.yul\":1675:1702   */\n      slt\n        /* \"#utility.yul\":1665:1787   */\n      tag_479\n      jumpi\n        /* \"#utility.yul\":1706:1785   */\n      tag_480\n      tag_391\n      jump\t// in\n    tag_480:\n        /* \"#utility.yul\":1665:1787   */\n    tag_479:\n        /* \"#utility.yul\":1819:1825   */\n      dup3\n        /* \"#utility.yul\":1806:1826   */\n      calldataload\n        /* \"#utility.yul\":1796:1826   */\n      swap1\n      pop\n        /* \"#utility.yul\":1849:1867   */\n      0xffffffffffffffff\n        /* \"#utility.yul\":1841:1847   */\n      dup2\n        /* \"#utility.yul\":1838:1868   */\n      gt\n        /* \"#utility.yul\":1835:1952   */\n      iszero\n      tag_481\n      jumpi\n        /* \"#utility.yul\":1871:1950   */\n      tag_482\n      tag_392\n      jump\t// in\n    tag_482:\n        /* \"#utility.yul\":1835:1952   */\n    tag_481:\n        /* \"#utility.yul\":1985:1989   */\n      0x20\n        /* \"#utility.yul\":1977:1983   */\n      dup4\n        /* \"#utility.yul\":1973:1990   */\n      add\n        /* \"#utility.yul\":1961:1990   */\n      swap2\n      pop\n        /* \"#utility.yul\":2039:2042   */\n      dup4\n        /* \"#utility.yul\":2031:2035   */\n      0x01\n        /* \"#utility.yul\":2023:2029   */\n      dup3\n        /* \"#utility.yul\":2019:2036   */\n      mul\n        /* \"#utility.yul\":2009:2017   */\n      dup4\n        /* \"#utility.yul\":2005:2037   */\n      add\n        /* \"#utility.yul\":2002:2043   */\n      gt\n        /* \"#utility.yul\":1999:2127   */\n      iszero\n      tag_483\n      jumpi\n        /* \"#utility.yul\":2046:2125   */\n      tag_484\n      tag_393\n      jump\t// in\n    tag_484:\n        /* \"#utility.yul\":1999:2127   */\n    tag_483:\n        /* \"#utility.yul\":1580:2133   */\n      swap3\n      pop\n      swap3\n      swap1\n      pop\n      jump\t// out\n        /* \"#utility.yul\":2139:3250   */\n    tag_27:\n        /* \"#utility.yul\":2246:2252   */\n      0x00\n        /* \"#utility.yul\":2254:2260   */\n      dup1\n        /* \"#utility.yul\":2262:2268   */\n      0x00\n        /* \"#utility.yul\":2270:2276   */\n      dup1\n        /* \"#utility.yul\":2278:2284   */\n      0x00\n        /* \"#utility.yul\":2286:2292   */\n      dup1\n        /* \"#utility.yul\":2335:2338   */\n      0xa0\n        /* \"#utility.yul\":2323:2332   */\n      dup8\n        /* \"#utility.yul\":2314:2321   */\n      dup10\n        /* \"#utility.yul\":2310:2333   */\n      sub\n        /* \"#utility.yul\":2306:2339   */\n      slt\n        /* \"#utility.yul\":2303:2423   */\n      iszero\n      tag_486\n      jumpi\n        /* \"#utility.yul\":2342:2421   */\n      tag_487\n      tag_382\n      jump\t// in\n    tag_487:\n        /* \"#utility.yul\":2303:2423   */\n    tag_486:\n        /* \"#utility.yul\":2462:2463   */\n      0x00\n        /* \"#utility.yul\":2487:2540   */\n      tag_488\n        /* \"#utility.yul\":2532:2539   */\n      dup10\n        /* \"#utility.yul\":2523:2529   */\n      dup3\n        /* \"#utility.yul\":2512:2521   */\n      dup11\n        /* \"#utility.yul\":2508:2530   */\n      add\n        /* \"#utility.yul\":2487:2540   */\n      tag_387\n      jump\t// in\n    tag_488:\n        /* \"#utility.yul\":2477:2540   */\n      swap7\n      pop\n        /* \"#utility.yul\":2433:2550   */\n      pop\n        /* \"#utility.yul\":2589:2591   */\n      0x20\n        /* \"#utility.yul\":2615:2668   */\n      tag_489\n        /* \"#utility.yul\":2660:2667   */\n      dup10\n        /* \"#utility.yul\":2651:2657   */\n      dup3\n        /* \"#utility.yul\":2640:2649   */\n      dup11\n        /* \"#utility.yul\":2636:2658   */\n      add\n        /* \"#utility.yul\":2615:2668   */\n      tag_390\n      jump\t// in\n    tag_489:\n        /* \"#utility.yul\":2605:2668   */\n      swap6\n      pop\n        /* \"#utility.yul\":2560:2678   */\n      pop\n        /* \"#utility.yul\":2717:2719   */\n      0x40\n        /* \"#utility.yul\":2743:2796   */\n      tag_490\n        /* \"#utility.yul\":2788:2795   */\n      dup10\n        /* \"#utility.yul\":2779:2785   */\n      dup3\n        /* \"#utility.yul\":2768:2777   */\n      dup11\n        /* \"#utility.yul\":2764:2786   */\n      add\n        /* \"#utility.yul\":2743:2796   */\n      tag_390\n      jump\t// in\n    tag_490:\n        /* \"#utility.yul\":2733:2796   */\n      swap5\n      pop\n        /* \"#utility.yul\":2688:2806   */\n      pop\n        /* \"#utility.yul\":2873:2875   */\n      0x60\n        /* \"#utility.yul\":2862:2871   */\n      dup8\n        /* \"#utility.yul\":2858:2876   */\n      add\n        /* \"#utility.yul\":2845:2877   */\n      calldataload\n        /* \"#utility.yul\":2904:2922   */\n      0xffffffffffffffff\n        /* \"#utility.yul\":2896:2902   */\n      dup2\n        /* \"#utility.yul\":2893:2923   */\n      gt\n        /* \"#utility.yul\":2890:3007   */\n      iszero\n      tag_491\n      jumpi\n        /* \"#utility.yul\":2926:3005   */\n      tag_492\n      tag_383\n      jump\t// in\n    tag_492:\n        /* \"#utility.yul\":2890:3007   */\n    tag_491:\n        /* \"#utility.yul\":3039:3104   */\n      tag_493\n        /* \"#utility.yul\":3096:3103   */\n      dup10\n        /* \"#utility.yul\":3087:3093   */\n      dup3\n        /* \"#utility.yul\":3076:3085   */\n      dup11\n        /* \"#utility.yul\":3072:3094   */\n      add\n        /* \"#utility.yul\":3039:3104   */\n      tag_394\n      jump\t// in\n    tag_493:\n        /* \"#utility.yul\":3021:3104   */\n      swap4\n      pop\n      swap4\n      pop\n        /* \"#utility.yul\":2816:3114   */\n      pop\n        /* \"#utility.yul\":3153:3156   */\n      0x80\n        /* \"#utility.yul\":3180:3233   */\n      tag_494\n        /* \"#utility.yul\":3225:3232   */\n      dup10\n        /* \"#utility.yul\":3216:3222   */\n      dup3\n        /* \"#utility.yul\":3205:3214   */\n      dup11\n        /* \"#utility.yul\":3201:3223   */\n      add\n        /* \"#utility.yul\":3180:3233   */\n      tag_390\n      jump\t// in\n    tag_494:\n        /* \"#utility.yul\":3170:3233   */\n      swap2\n      pop\n        /* \"#utility.yul\":3124:3243   */\n      pop\n        /* \"#utility.yul\":2139:3250   */\n      swap3\n      swap6\n      pop\n      swap3\n      swap6\n      pop\n      swap3\n      swap6\n      jump\t// out\n        /* \"#utility.yul\":3256:3730   */\n    tag_32:\n        /* \"#utility.yul\":3324:3330   */\n      0x00\n        /* \"#utility.yul\":3332:3338   */\n      dup1\n        /* \"#utility.yul\":3381:3383   */\n      0x40\n        /* \"#utility.yul\":3369:3378   */\n      dup4\n        /* \"#utility.yul\":3360:3367   */\n      dup6\n        /* \"#utility.yul\":3356:3379   */\n      sub\n        /* \"#utility.yul\":3352:3384   */\n      slt\n        /* \"#utility.yul\":3349:3468   */\n      iszero\n      tag_496\n      jumpi\n        /* \"#utility.yul\":3387:3466   */\n      tag_497\n      tag_382\n      jump\t// in\n    tag_497:\n        /* \"#utility.yul\":3349:3468   */\n    tag_496:\n        /* \"#utility.yul\":3507:3508   */\n      0x00\n        /* \"#utility.yul\":3532:3585   */\n      tag_498\n        /* \"#utility.yul\":3577:3584   */\n      dup6\n        /* \"#utility.yul\":3568:3574   */\n      dup3\n        /* \"#utility.yul\":3557:3566   */\n      dup7\n        /* \"#utility.yul\":3553:3575   */\n      add\n        /* \"#utility.yul\":3532:3585   */\n      tag_387\n      jump\t// in\n    tag_498:\n        /* \"#utility.yul\":3522:3585   */\n      swap3\n      pop\n        /* \"#utility.yul\":3478:3595   */\n      pop\n        /* \"#utility.yul\":3634:3636   */\n      0x20\n        /* \"#utility.yul\":3660:3713   */\n      tag_499\n        /* \"#utility.yul\":3705:3712   */\n      dup6\n        /* \"#utility.yul\":3696:3702   */\n      dup3\n        /* \"#utility.yul\":3685:3694   */\n      dup7\n        /* \"#utility.yul\":3681:3703   */\n      add\n        /* \"#utility.yul\":3660:3713   */\n      tag_390\n      jump\t// in\n    tag_499:\n        /* \"#utility.yul\":3650:3713   */\n      swap2\n      pop\n        /* \"#utility.yul\":3605:3723   */\n      pop\n        /* \"#utility.yul\":3256:3730   */\n      swap3\n      pop\n      swap3\n      swap1\n      pop\n      jump\t// out\n        /* \"#utility.yul\":3736:3854   */\n    tag_395:\n        /* \"#utility.yul\":3823:3847   */\n      tag_501\n        /* \"#utility.yul\":3841:3846   */\n      dup2\n        /* \"#utility.yul\":3823:3847   */\n      tag_388\n      jump\t// in\n    tag_501:\n        /* \"#utility.yul\":3818:3821   */\n      dup3\n        /* \"#utility.yul\":3811:3848   */\n      mstore\n        /* \"#utility.yul\":3736:3854   */\n      pop\n      pop\n      jump\t// out\n        /* \"#utility.yul\":3860:3959   */\n    tag_396:\n        /* \"#utility.yul\":3912:3918   */\n      0x00\n        /* \"#utility.yul\":3946:3951   */\n      dup2\n        /* \"#utility.yul\":3940:3952   */\n      mload\n        /* \"#utility.yul\":3930:3952   */\n      swap1\n      pop\n        /* \"#utility.yul\":3860:3959   */\n      swap2\n      swap1\n      pop\n      jump\t// out\n        /* \"#utility.yul\":3965:4134   */\n    tag_397:\n        /* \"#utility.yul\":4049:4060   */\n      0x00\n        /* \"#utility.yul\":4083:4089   */\n      dup3\n        /* \"#utility.yul\":4078:4081   */\n      dup3\n        /* \"#utility.yul\":4071:4090   */\n      mstore\n        /* \"#utility.yul\":4123:4127   */\n      0x20\n        /* \"#utility.yul\":4118:4121   */\n      dup3\n        /* \"#utility.yul\":4114:4128   */\n      add\n        /* \"#utility.yul\":4099:4128   */\n      swap1\n      pop\n        /* \"#utility.yul\":3965:4134   */\n      swap3\n      swap2\n      pop\n      pop\n      jump\t// out\n        /* \"#utility.yul\":4140:4386   */\n    tag_398:\n        /* \"#utility.yul\":4221:4222   */\n      0x00\n        /* \"#utility.yul\":4231:4344   */\n    tag_505:\n        /* \"#utility.yul\":4245:4251   */\n      dup4\n        /* \"#utility.yul\":4242:4243   */\n      dup2\n        /* \"#utility.yul\":4239:4252   */\n      lt\n        /* \"#utility.yul\":4231:4344   */\n      iszero\n      tag_507\n      jumpi\n        /* \"#utility.yul\":4330:4331   */\n      dup1\n        /* \"#utility.yul\":4325:4328   */\n      dup3\n        /* \"#utility.yul\":4321:4332   */\n      add\n        /* \"#utility.yul\":4315:4333   */\n      mload\n        /* \"#utility.yul\":4311:4312   */\n      dup2\n        /* \"#utility.yul\":4306:4309   */\n      dup5\n        /* \"#utility.yul\":4302:4313   */\n      add\n        /* \"#utility.yul\":4295:4334   */\n      mstore\n        /* \"#utility.yul\":4267:4269   */\n      0x20\n        /* \"#utility.yul\":4264:4265   */\n      dup2\n        /* \"#utility.yul\":4260:4270   */\n      add\n        /* \"#utility.yul\":4255:4270   */\n      swap1\n      pop\n        /* \"#utility.yul\":4231:4344   */\n      jump(tag_505)\n    tag_507:\n        /* \"#utility.yul\":4378:4379   */\n      0x00\n        /* \"#utility.yul\":4369:4375   */\n      dup5\n        /* \"#utility.yul\":4364:4367   */\n      dup5\n        /* \"#utility.yul\":4360:4376   */\n      add\n        /* \"#utility.yul\":4353:4380   */\n      mstore\n        /* \"#utility.yul\":4202:4386   */\n      pop\n        /* \"#utility.yul\":4140:4386   */\n      pop\n      pop\n      pop\n      jump\t// out\n        /* \"#utility.yul\":4392:4494   */\n    tag_399:\n        /* \"#utility.yul\":4433:4439   */\n      0x00\n        /* \"#utility.yul\":4484:4486   */\n      0x1f\n        /* \"#utility.yul\":4480:4487   */\n      not\n        /* \"#utility.yul\":4475:4477   */\n      0x1f\n        /* \"#utility.yul\":4468:4473   */\n      dup4\n        /* \"#utility.yul\":4464:4478   */\n      add\n        /* \"#utility.yul\":4460:4488   */\n      and\n        /* \"#utility.yul\":4450:4488   */\n      swap1\n      pop\n        /* \"#utility.yul\":4392:4494   */\n      swap2\n      swap1\n      pop\n      jump\t// out\n        /* \"#utility.yul\":4500:4877   */\n    tag_400:\n        /* \"#utility.yul\":4588:4591   */\n      0x00\n        /* \"#utility.yul\":4616:4655   */\n      tag_510\n        /* \"#utility.yul\":4649:4654   */\n      dup3\n        /* \"#utility.yul\":4616:4655   */\n      tag_396\n      jump\t// in\n    tag_510:\n        /* \"#utility.yul\":4671:4742   */\n      tag_511\n        /* \"#utility.yul\":4735:4741   */\n      dup2\n        /* \"#utility.yul\":4730:4733   */\n      dup6\n        /* \"#utility.yul\":4671:4742   */\n      tag_397\n      jump\t// in\n    tag_511:\n        /* \"#utility.yul\":4664:4742   */\n      swap4\n      pop\n        /* \"#utility.yul\":4751:4816   */\n      tag_512\n        /* \"#utility.yul\":4809:4815   */\n      dup2\n        /* \"#utility.yul\":4804:4807   */\n      dup6\n        /* \"#utility.yul\":4797:4801   */\n      0x20\n        /* \"#utility.yul\":4790:4795   */\n      dup7\n        /* \"#utility.yul\":4786:4802   */\n      add\n        /* \"#utility.yul\":4751:4816   */\n      tag_398\n      jump\t// in\n    tag_512:\n        /* \"#utility.yul\":4841:4870   */\n      tag_513\n        /* \"#utility.yul\":4863:4869   */\n      dup2\n        /* \"#utility.yul\":4841:4870   */\n      tag_399\n      jump\t// in\n    tag_513:\n        /* \"#utility.yul\":4836:4839   */\n      dup5\n        /* \"#utility.yul\":4832:4871   */\n      add\n        /* \"#utility.yul\":4825:4871   */\n      swap2\n      pop\n        /* \"#utility.yul\":4592:4877   */\n      pop\n        /* \"#utility.yul\":4500:4877   */\n      swap3\n      swap2\n      pop\n      pop\n      jump\t// out\n        /* \"#utility.yul\":4883:5527   */\n    tag_35:\n        /* \"#utility.yul\":5080:5084   */\n      0x00\n        /* \"#utility.yul\":5118:5121   */\n      0x80\n        /* \"#utility.yul\":5107:5116   */\n      dup3\n        /* \"#utility.yul\":5103:5122   */\n      add\n        /* \"#utility.yul\":5095:5122   */\n      swap1\n      pop\n        /* \"#utility.yul\":5132:5203   */\n      tag_515\n        /* \"#utility.yul\":5200:5201   */\n      0x00\n        /* \"#utility.yul\":5189:5198   */\n      dup4\n        /* \"#utility.yul\":5185:5202   */\n      add\n        /* \"#utility.yul\":5176:5182   */\n      dup8\n        /* \"#utility.yul\":5132:5203   */\n      tag_395\n      jump\t// in\n    tag_515:\n        /* \"#utility.yul\":5213:5285   */\n      tag_516\n        /* \"#utility.yul\":5281:5283   */\n      0x20\n        /* \"#utility.yul\":5270:5279   */\n      dup4\n        /* \"#utility.yul\":5266:5284   */\n      add\n        /* \"#utility.yul\":5257:5263   */\n      dup7\n        /* \"#utility.yul\":5213:5285   */\n      tag_395\n      jump\t// in\n    tag_516:\n        /* \"#utility.yul\":5332:5341   */\n      dup2\n        /* \"#utility.yul\":5326:5330   */\n      dup2\n        /* \"#utility.yul\":5322:5342   */\n      sub\n        /* \"#utility.yul\":5317:5319   */\n      0x40\n        /* \"#utility.yul\":5306:5315   */\n      dup4\n        /* \"#utility.yul\":5302:5320   */\n      add\n        /* \"#utility.yul\":5295:5343   */\n      mstore\n        /* \"#utility.yul\":5360:5438   */\n      tag_517\n        /* \"#utility.yul\":5433:5437   */\n      dup2\n        /* \"#utility.yul\":5424:5430   */\n      dup6\n        /* \"#utility.yul\":5360:5438   */\n      tag_400\n      jump\t// in\n    tag_517:\n        /* \"#utility.yul\":5352:5438   */\n      swap1\n      pop\n        /* \"#utility.yul\":5448:5520   */\n      tag_518\n        /* \"#utility.yul\":5516:5518   */\n      0x60\n        /* \"#utility.yul\":5505:5514   */\n      dup4\n        /* \"#utility.yul\":5501:5519   */\n      add\n        /* \"#utility.yul\":5492:5498   */\n      dup5\n        /* \"#utility.yul\":5448:5520   */\n      tag_395\n      jump\t// in\n    tag_518:\n        /* \"#utility.yul\":4883:5527   */\n      swap6\n      swap5\n      pop\n      pop\n      pop\n      pop\n      pop\n      jump\t// out\n        /* \"#utility.yul\":5533:5862   */\n    tag_46:\n        /* \"#utility.yul\":5592:5598   */\n      0x00\n        /* \"#utility.yul\":5641:5643   */\n      0x20\n        /* \"#utility.yul\":5629:5638   */\n      dup3\n        /* \"#utility.yul\":5620:5627   */\n      dup5\n        /* \"#utility.yul\":5616:5639   */\n      sub\n        /* \"#utility.yul\":5612:5644   */\n      slt\n        /* \"#utility.yul\":5609:5728   */\n      iszero\n      tag_520\n      jumpi\n        /* \"#utility.yul\":5647:5726   */\n      tag_521\n      tag_382\n      jump\t// in\n    tag_521:\n        /* \"#utility.yul\":5609:5728   */\n    tag_520:\n        /* \"#utility.yul\":5767:5768   */\n      0x00\n        /* \"#utility.yul\":5792:5845   */\n      tag_522\n        /* \"#utility.yul\":5837:5844   */\n      dup5\n        /* \"#utility.yul\":5828:5834   */\n      dup3\n        /* \"#utility.yul\":5817:5826   */\n      dup6\n        /* \"#utility.yul\":5813:5835   */\n      add\n        /* \"#utility.yul\":5792:5845   */\n      tag_390\n      jump\t// in\n    tag_522:\n        /* \"#utility.yul\":5782:5845   */\n      swap2\n      pop\n        /* \"#utility.yul\":5738:5855   */\n      pop\n        /* \"#utility.yul\":5533:5862   */\n      swap3\n      swap2\n      pop\n      pop\n      jump\t// out\n        /* \"#utility.yul\":5868:5986   */\n    tag_401:\n        /* \"#utility.yul\":5955:5979   */\n      tag_524\n        /* \"#utility.yul\":5973:5978   */\n      dup2\n        /* \"#utility.yul\":5955:5979   */\n      tag_385\n      jump\t// in\n    tag_524:\n        /* \"#utility.yul\":5950:5953   */\n      dup3\n        /* \"#utility.yul\":5943:5980   */\n      mstore\n        /* \"#utility.yul\":5868:5986   */\n      pop\n      pop\n      jump\t// out\n        /* \"#utility.yul\":5992:6172   */\n    tag_120:\n        /* \"#utility.yul\":6040:6117   */\n      0x4e487b7100000000000000000000000000000000000000000000000000000000\n        /* \"#utility.yul\":6037:6038   */\n      0x00\n        /* \"#utility.yul\":6030:6118   */\n      mstore\n        /* \"#utility.yul\":6137:6141   */\n      0x21\n        /* \"#utility.yul\":6134:6135   */\n      0x04\n        /* \"#utility.yul\":6127:6142   */\n      mstore\n        /* \"#utility.yul\":6161:6165   */\n      0x24\n        /* \"#utility.yul\":6158:6159   */\n      0x00\n        /* \"#utility.yul\":6151:6166   */\n      revert\n        /* \"#utility.yul\":6178:6289   */\n    tag_402:\n        /* \"#utility.yul\":6257:6258   */\n      0x03\n        /* \"#utility.yul\":6250:6255   */\n      dup2\n        /* \"#utility.yul\":6247:6259   */\n      lt\n        /* \"#utility.yul\":6237:6283   */\n      tag_527\n      jumpi\n        /* \"#utility.yul\":6263:6281   */\n      tag_528\n      tag_120\n      jump\t// in\n    tag_528:\n        /* \"#utility.yul\":6237:6283   */\n    tag_527:\n        /* \"#utility.yul\":6178:6289   */\n      pop\n      jump\t// out\n        /* \"#utility.yul\":6295:6418   */\n    tag_403:\n        /* \"#utility.yul\":6338:6345   */\n      0x00\n        /* \"#utility.yul\":6367:6372   */\n      dup2\n        /* \"#utility.yul\":6356:6372   */\n      swap1\n      pop\n        /* \"#utility.yul\":6373:6412   */\n      tag_530\n        /* \"#utility.yul\":6406:6411   */\n      dup3\n        /* \"#utility.yul\":6373:6412   */\n      tag_402\n      jump\t// in\n    tag_530:\n        /* \"#utility.yul\":6295:6418   */\n      swap2\n      swap1\n      pop\n      jump\t// out\n        /* \"#utility.yul\":6424:6547   */\n    tag_404:\n        /* \"#utility.yul\":6478:6487   */\n      0x00\n        /* \"#utility.yul\":6511:6541   */\n      tag_532\n        /* \"#utility.yul\":6535:6540   */\n      dup3\n        /* \"#utility.yul\":6511:6541   */\n      tag_403\n      jump\t// in\n    tag_532:\n        /* \"#utility.yul\":6498:6541   */\n      swap1\n      pop\n        /* \"#utility.yul\":6424:6547   */\n      swap2\n      swap1\n      pop\n      jump\t// out\n        /* \"#utility.yul\":6553:6692   */\n    tag_405:\n        /* \"#utility.yul\":6644:6685   */\n      tag_534\n        /* \"#utility.yul\":6679:6684   */\n      dup2\n        /* \"#utility.yul\":6644:6685   */\n      tag_404\n      jump\t// in\n    tag_534:\n        /* \"#utility.yul\":6639:6642   */\n      dup3\n        /* \"#utility.yul\":6632:6686   */\n      mstore\n        /* \"#utility.yul\":6553:6692   */\n      pop\n      pop\n      jump\t// out\n        /* \"#utility.yul\":6698:7038   */\n    tag_49:\n        /* \"#utility.yul\":6823:6827   */\n      0x00\n        /* \"#utility.yul\":6861:6863   */\n      0x40\n        /* \"#utility.yul\":6850:6859   */\n      dup3\n        /* \"#utility.yul\":6846:6864   */\n      add\n        /* \"#utility.yul\":6838:6864   */\n      swap1\n      pop\n        /* \"#utility.yul\":6874:6945   */\n      tag_536\n        /* \"#utility.yul\":6942:6943   */\n      0x00\n        /* \"#utility.yul\":6931:6940   */\n      dup4\n        /* \"#utility.yul\":6927:6944   */\n      add\n        /* \"#utility.yul\":6918:6924   */\n      dup6\n        /* \"#utility.yul\":6874:6945   */\n      tag_401\n      jump\t// in\n    tag_536:\n        /* \"#utility.yul\":6955:7031   */\n      tag_537\n        /* \"#utility.yul\":7027:7029   */\n      0x20\n        /* \"#utility.yul\":7016:7025   */\n      dup4\n        /* \"#utility.yul\":7012:7030   */\n      add\n        /* \"#utility.yul\":7003:7009   */\n      dup5\n        /* \"#utility.yul\":6955:7031   */\n      tag_405\n      jump\t// in\n    tag_537:\n        /* \"#utility.yul\":6698:7038   */\n      swap4\n      swap3\n      pop\n      pop\n      pop\n      jump\t// out\n        /* \"#utility.yul\":7044:7149   */\n    tag_406:\n        /* \"#utility.yul\":7123:7124   */\n      0x03\n        /* \"#utility.yul\":7116:7121   */\n      dup2\n        /* \"#utility.yul\":7113:7125   */\n      lt\n        /* \"#utility.yul\":7103:7143   */\n      tag_539\n      jumpi\n        /* \"#utility.yul\":7139:7140   */\n      0x00\n        /* \"#utility.yul\":7136:7137   */\n      dup1\n        /* \"#utility.yul\":7129:7141   */\n      revert\n        /* \"#utility.yul\":7103:7143   */\n    tag_539:\n        /* \"#utility.yul\":7044:7149   */\n      pop\n      jump\t// out\n        /* \"#utility.yul\":7155:7306   */\n    tag_407:\n        /* \"#utility.yul\":7207:7212   */\n      0x00\n        /* \"#utility.yul\":7245:7251   */\n      dup2\n        /* \"#utility.yul\":7232:7252   */\n      calldataload\n        /* \"#utility.yul\":7223:7252   */\n      swap1\n      pop\n        /* \"#utility.yul\":7261:7300   */\n      tag_541\n        /* \"#utility.yul\":7294:7299   */\n      dup2\n        /* \"#utility.yul\":7261:7300   */\n      tag_406\n      jump\t// in\n    tag_541:\n        /* \"#utility.yul\":7155:7306   */\n      swap3\n      swap2\n      pop\n      pop\n      jump\t// out\n        /* \"#utility.yul\":7312:7653   */\n    tag_53:\n        /* \"#utility.yul\":7377:7383   */\n      0x00\n        /* \"#utility.yul\":7426:7428   */\n      0x20\n        /* \"#utility.yul\":7414:7423   */\n      dup3\n        /* \"#utility.yul\":7405:7412   */\n      dup5\n        /* \"#utility.yul\":7401:7424   */\n      sub\n        /* \"#utility.yul\":7397:7429   */\n      slt\n        /* \"#utility.yul\":7394:7513   */\n      iszero\n      tag_543\n      jumpi\n        /* \"#utility.yul\":7432:7511   */\n      tag_544\n      tag_382\n      jump\t// in\n    tag_544:\n        /* \"#utility.yul\":7394:7513   */\n    tag_543:\n        /* \"#utility.yul\":7552:7553   */\n      0x00\n        /* \"#utility.yul\":7577:7636   */\n      tag_545\n        /* \"#utility.yul\":7628:7635   */\n      dup5\n        /* \"#utility.yul\":7619:7625   */\n      dup3\n        /* \"#utility.yul\":7608:7617   */\n      dup6\n        /* \"#utility.yul\":7604:7626   */\n      add\n        /* \"#utility.yul\":7577:7636   */\n      tag_407\n      jump\t// in\n    tag_545:\n        /* \"#utility.yul\":7567:7636   */\n      swap2\n      pop\n        /* \"#utility.yul\":7523:7646   */\n      pop\n        /* \"#utility.yul\":7312:7653   */\n      swap3\n      swap2\n      pop\n      pop\n      jump\t// out\n        /* \"#utility.yul\":7659:8133   */\n    tag_58:\n        /* \"#utility.yul\":7727:7733   */\n      0x00\n        /* \"#utility.yul\":7735:7741   */\n      dup1\n        /* \"#utility.yul\":7784:7786   */\n      0x40\n        /* \"#utility.yul\":7772:7781   */\n      dup4\n        /* \"#utility.yul\":7763:7770   */\n      dup6\n        /* \"#utility.yul\":7759:7782   */\n      sub\n        /* \"#utility.yul\":7755:7787   */\n      slt\n        /* \"#utility.yul\":7752:7871   */\n      iszero\n      tag_547\n      jumpi\n        /* \"#utility.yul\":7790:7869   */\n      tag_548\n      tag_382\n      jump\t// in\n    tag_548:\n        /* \"#utility.yul\":7752:7871   */\n    tag_547:\n        /* \"#utility.yul\":7910:7911   */\n      0x00\n        /* \"#utility.yul\":7935:7988   */\n      tag_549\n        /* \"#utility.yul\":7980:7987   */\n      dup6\n        /* \"#utility.yul\":7971:7977   */\n      dup3\n        /* \"#utility.yul\":7960:7969   */\n      dup7\n        /* \"#utility.yul\":7956:7978   */\n      add\n        /* \"#utility.yul\":7935:7988   */\n      tag_390\n      jump\t// in\n    tag_549:\n        /* \"#utility.yul\":7925:7988   */\n      swap3\n      pop\n        /* \"#utility.yul\":7881:7998   */\n      pop\n        /* \"#utility.yul\":8037:8039   */\n      0x20\n        /* \"#utility.yul\":8063:8116   */\n      tag_550\n        /* \"#utility.yul\":8108:8115   */\n      dup6\n        /* \"#utility.yul\":8099:8105   */\n      dup3\n        /* \"#utility.yul\":8088:8097   */\n      dup7\n        /* \"#utility.yul\":8084:8106   */\n      add\n        /* \"#utility.yul\":8063:8116   */\n      tag_387\n      jump\t// in\n    tag_550:\n        /* \"#utility.yul\":8053:8116   */\n      swap2\n      pop\n        /* \"#utility.yul\":8008:8126   */\n      pop\n        /* \"#utility.yul\":7659:8133   */\n      swap3\n      pop\n      swap3\n      swap1\n      pop\n      jump\t// out\n        /* \"#utility.yul\":8139:8361   */\n    tag_61:\n        /* \"#utility.yul\":8232:8236   */\n      0x00\n        /* \"#utility.yul\":8270:8272   */\n      0x20\n        /* \"#utility.yul\":8259:8268   */\n      dup3\n        /* \"#utility.yul\":8255:8273   */\n      add\n        /* \"#utility.yul\":8247:8273   */\n      swap1\n      pop\n        /* \"#utility.yul\":8283:8354   */\n      tag_552\n        /* \"#utility.yul\":8351:8352   */\n      0x00\n        /* \"#utility.yul\":8340:8349   */\n      dup4\n        /* \"#utility.yul\":8336:8353   */\n      add\n        /* \"#utility.yul\":8327:8333   */\n      dup5\n        /* \"#utility.yul\":8283:8354   */\n      tag_395\n      jump\t// in\n    tag_552:\n        /* \"#utility.yul\":8139:8361   */\n      swap3\n      swap2\n      pop\n      pop\n      jump\t// out\n        /* \"#utility.yul\":8367:9478   */\n    tag_77:\n        /* \"#utility.yul\":8474:8480   */\n      0x00\n        /* \"#utility.yul\":8482:8488   */\n      dup1\n        /* \"#utility.yul\":8490:8496   */\n      0x00\n        /* \"#utility.yul\":8498:8504   */\n      dup1\n        /* \"#utility.yul\":8506:8512   */\n      0x00\n        /* \"#utility.yul\":8514:8520   */\n      dup1\n        /* \"#utility.yul\":8563:8566   */\n      0xa0\n        /* \"#utility.yul\":8551:8560   */\n      dup8\n        /* \"#utility.yul\":8542:8549   */\n      dup10\n        /* \"#utility.yul\":8538:8561   */\n      sub\n        /* \"#utility.yul\":8534:8567   */\n      slt\n        /* \"#utility.yul\":8531:8651   */\n      iszero\n      tag_554\n      jumpi\n        /* \"#utility.yul\":8570:8649   */\n      tag_555\n      tag_382\n      jump\t// in\n    tag_555:\n        /* \"#utility.yul\":8531:8651   */\n    tag_554:\n        /* \"#utility.yul\":8690:8691   */\n      0x00\n        /* \"#utility.yul\":8715:8768   */\n      tag_556\n        /* \"#utility.yul\":8760:8767   */\n      dup10\n        /* \"#utility.yul\":8751:8757   */\n      dup3\n        /* \"#utility.yul\":8740:8749   */\n      dup11\n        /* \"#utility.yul\":8736:8758   */\n      add\n        /* \"#utility.yul\":8715:8768   */\n      tag_390\n      jump\t// in\n    tag_556:\n        /* \"#utility.yul\":8705:8768   */\n      swap7\n      pop\n        /* \"#utility.yul\":8661:8778   */\n      pop\n        /* \"#utility.yul\":8817:8819   */\n      0x20\n        /* \"#utility.yul\":8843:8896   */\n      tag_557\n        /* \"#utility.yul\":8888:8895   */\n      dup10\n        /* \"#utility.yul\":8879:8885   */\n      dup3\n        /* \"#utility.yul\":8868:8877   */\n      dup11\n        /* \"#utility.yul\":8864:8886   */\n      add\n        /* \"#utility.yul\":8843:8896   */\n      tag_390\n      jump\t// in\n    tag_557:\n        /* \"#utility.yul\":8833:8896   */\n      swap6\n      pop\n        /* \"#utility.yul\":8788:8906   */\n      pop\n        /* \"#utility.yul\":8973:8975   */\n      0x40\n        /* \"#utility.yul\":8962:8971   */\n      dup8\n        /* \"#utility.yul\":8958:8976   */\n      add\n        /* \"#utility.yul\":8945:8977   */\n      calldataload\n        /* \"#utility.yul\":9004:9022   */\n      0xffffffffffffffff\n        /* \"#utility.yul\":8996:9002   */\n      dup2\n        /* \"#utility.yul\":8993:9023   */\n      gt\n        /* \"#utility.yul\":8990:9107   */\n      iszero\n      tag_558\n      jumpi\n        /* \"#utility.yul\":9026:9105   */\n      tag_559\n      tag_383\n      jump\t// in\n    tag_559:\n        /* \"#utility.yul\":8990:9107   */\n    tag_558:\n        /* \"#utility.yul\":9139:9204   */\n      tag_560\n        /* \"#utility.yul\":9196:9203   */\n      dup10\n        /* \"#utility.yul\":9187:9193   */\n      dup3\n        /* \"#utility.yul\":9176:9185   */\n      dup11\n        /* \"#utility.yul\":9172:9194   */\n      add\n        /* \"#utility.yul\":9139:9204   */\n      tag_394\n      jump\t// in\n    tag_560:\n        /* \"#utility.yul\":9121:9204   */\n      swap5\n      pop\n      swap5\n      pop\n        /* \"#utility.yul\":8916:9214   */\n      pop\n        /* \"#utility.yul\":9253:9255   */\n      0x60\n        /* \"#utility.yul\":9279:9332   */\n      tag_561\n        /* \"#utility.yul\":9324:9331   */\n      dup10\n        /* \"#utility.yul\":9315:9321   */\n      dup3\n        /* \"#utility.yul\":9304:9313   */\n      dup11\n        /* \"#utility.yul\":9300:9322   */\n      add\n        /* \"#utility.yul\":9279:9332   */\n      tag_390\n      jump\t// in\n    tag_561:\n        /* \"#utility.yul\":9269:9332   */\n      swap3\n      pop\n        /* \"#utility.yul\":9224:9342   */\n      pop\n        /* \"#utility.yul\":9381:9384   */\n      0x80\n        /* \"#utility.yul\":9408:9461   */\n      tag_562\n        /* \"#utility.yul\":9453:9460   */\n      dup10\n        /* \"#utility.yul\":9444:9450   */\n      dup3\n        /* \"#utility.yul\":9433:9442   */\n      dup11\n        /* \"#utility.yul\":9429:9451   */\n      add\n        /* \"#utility.yul\":9408:9461   */\n      tag_387\n      jump\t// in\n    tag_562:\n        /* \"#utility.yul\":9398:9461   */\n      swap2\n      pop\n        /* \"#utility.yul\":9352:9471   */\n      pop\n        /* \"#utility.yul\":8367:9478   */\n      swap3\n      swap6\n      pop\n      swap3\n      swap6\n      pop\n      swap3\n      swap6\n      jump\t// out\n        /* \"#utility.yul\":9484:9706   */\n    tag_83:\n        /* \"#utility.yul\":9577:9581   */\n      0x00\n        /* \"#utility.yul\":9615:9617   */\n      0x20\n        /* \"#utility.yul\":9604:9613   */\n      dup3\n        /* \"#utility.yul\":9600:9618   */\n      add\n        /* \"#utility.yul\":9592:9618   */\n      swap1\n      pop\n        /* \"#utility.yul\":9628:9699   */\n      tag_564\n        /* \"#utility.yul\":9696:9697   */\n      0x00\n        /* \"#utility.yul\":9685:9694   */\n      dup4\n        /* \"#utility.yul\":9681:9698   */\n      add\n        /* \"#utility.yul\":9672:9678   */\n      dup5\n        /* \"#utility.yul\":9628:9699   */\n      tag_401\n      jump\t// in\n    tag_564:\n        /* \"#utility.yul\":9484:9706   */\n      swap3\n      swap2\n      pop\n      pop\n      jump\t// out\n        /* \"#utility.yul\":9712:9829   */\n    tag_408:\n        /* \"#utility.yul\":9821:9822   */\n      0x00\n        /* \"#utility.yul\":9818:9819   */\n      dup1\n        /* \"#utility.yul\":9811:9823   */\n      revert\n        /* \"#utility.yul\":9835:10015   */\n    tag_409:\n        /* \"#utility.yul\":9883:9960   */\n      0x4e487b7100000000000000000000000000000000000000000000000000000000\n        /* \"#utility.yul\":9880:9881   */\n      0x00\n        /* \"#utility.yul\":9873:9961   */\n      mstore\n        /* \"#utility.yul\":9980:9984   */\n      0x41\n        /* \"#utility.yul\":9977:9978   */\n      0x04\n        /* \"#utility.yul\":9970:9985   */\n      mstore\n        /* \"#utility.yul\":10004:10008   */\n      0x24\n        /* \"#utility.yul\":10001:10002   */\n      0x00\n        /* \"#utility.yul\":9994:10009   */\n      revert\n        /* \"#utility.yul\":10021:10302   */\n    tag_410:\n        /* \"#utility.yul\":10104:10131   */\n      tag_568\n        /* \"#utility.yul\":10126:10130   */\n      dup3\n        /* \"#utility.yul\":10104:10131   */\n      tag_399\n      jump\t// in\n    tag_568:\n        /* \"#utility.yul\":10096:10102   */\n      dup2\n        /* \"#utility.yul\":10092:10132   */\n      add\n        /* \"#utility.yul\":10234:10240   */\n      dup2\n        /* \"#utility.yul\":10222:10232   */\n      dup2\n        /* \"#utility.yul\":10219:10241   */\n      lt\n        /* \"#utility.yul\":10198:10216   */\n      0xffffffffffffffff\n        /* \"#utility.yul\":10186:10196   */\n      dup3\n        /* \"#utility.yul\":10183:10217   */\n      gt\n        /* \"#utility.yul\":10180:10242   */\n      or\n        /* \"#utility.yul\":10177:10265   */\n      iszero\n      tag_569\n      jumpi\n        /* \"#utility.yul\":10245:10263   */\n      tag_570\n      tag_409\n      jump\t// in\n    tag_570:\n        /* \"#utility.yul\":10177:10265   */\n    tag_569:\n        /* \"#utility.yul\":10285:10295   */\n      dup1\n        /* \"#utility.yul\":10281:10283   */\n      0x40\n        /* \"#utility.yul\":10274:10296   */\n      mstore\n        /* \"#utility.yul\":10064:10302   */\n      pop\n        /* \"#utility.yul\":10021:10302   */\n      pop\n      pop\n      jump\t// out\n        /* \"#utility.yul\":10308:10437   */\n    tag_411:\n        /* \"#utility.yul\":10342:10348   */\n      0x00\n        /* \"#utility.yul\":10369:10389   */\n      tag_572\n      tag_381\n      jump\t// in\n    tag_572:\n        /* \"#utility.yul\":10359:10389   */\n      swap1\n      pop\n        /* \"#utility.yul\":10398:10431   */\n      tag_573\n        /* \"#utility.yul\":10426:10430   */\n      dup3\n        /* \"#utility.yul\":10418:10424   */\n      dup3\n        /* \"#utility.yul\":10398:10431   */\n      tag_410\n      jump\t// in\n    tag_573:\n        /* \"#utility.yul\":10308:10437   */\n      swap2\n      swap1\n      pop\n      jump\t// out\n        /* \"#utility.yul\":10443:10751   */\n    tag_412:\n        /* \"#utility.yul\":10505:10509   */\n      0x00\n        /* \"#utility.yul\":10595:10613   */\n      0xffffffffffffffff\n        /* \"#utility.yul\":10587:10593   */\n      dup3\n        /* \"#utility.yul\":10584:10614   */\n      gt\n        /* \"#utility.yul\":10581:10637   */\n      iszero\n      tag_575\n      jumpi\n        /* \"#utility.yul\":10617:10635   */\n      tag_576\n      tag_409\n      jump\t// in\n    tag_576:\n        /* \"#utility.yul\":10581:10637   */\n    tag_575:\n        /* \"#utility.yul\":10655:10684   */\n      tag_577\n        /* \"#utility.yul\":10677:10683   */\n      dup3\n        /* \"#utility.yul\":10655:10684   */\n      tag_399\n      jump\t// in\n    tag_577:\n        /* \"#utility.yul\":10647:10684   */\n      swap1\n      pop\n        /* \"#utility.yul\":10739:10743   */\n      0x20\n        /* \"#utility.yul\":10733:10737   */\n      dup2\n        /* \"#utility.yul\":10729:10744   */\n      add\n        /* \"#utility.yul\":10721:10744   */\n      swap1\n      pop\n        /* \"#utility.yul\":10443:10751   */\n      swap2\n      swap1\n      pop\n      jump\t// out\n        /* \"#utility.yul\":10757:10903   */\n    tag_413:\n        /* \"#utility.yul\":10854:10860   */\n      dup3\n        /* \"#utility.yul\":10849:10852   */\n      dup2\n        /* \"#utility.yul\":10844:10847   */\n      dup4\n        /* \"#utility.yul\":10831:10861   */\n      calldatacopy\n        /* \"#utility.yul\":10895:10896   */\n      0x00\n        /* \"#utility.yul\":10886:10892   */\n      dup4\n        /* \"#utility.yul\":10881:10884   */\n      dup4\n        /* \"#utility.yul\":10877:10893   */\n      add\n        /* \"#utility.yul\":10870:10897   */\n      mstore\n        /* \"#utility.yul\":10757:10903   */\n      pop\n      pop\n      pop\n      jump\t// out\n        /* \"#utility.yul\":10909:11334   */\n    tag_414:\n        /* \"#utility.yul\":10987:10992   */\n      0x00\n        /* \"#utility.yul\":11012:11078   */\n      tag_580\n        /* \"#utility.yul\":11028:11077   */\n      tag_581\n        /* \"#utility.yul\":11070:11076   */\n      dup5\n        /* \"#utility.yul\":11028:11077   */\n      tag_412\n      jump\t// in\n    tag_581:\n        /* \"#utility.yul\":11012:11078   */\n      tag_411\n      jump\t// in\n    tag_580:\n        /* \"#utility.yul\":11003:11078   */\n      swap1\n      pop\n        /* \"#utility.yul\":11101:11107   */\n      dup3\n        /* \"#utility.yul\":11094:11099   */\n      dup2\n        /* \"#utility.yul\":11087:11108   */\n      mstore\n        /* \"#utility.yul\":11139:11143   */\n      0x20\n        /* \"#utility.yul\":11132:11137   */\n      dup2\n        /* \"#utility.yul\":11128:11144   */\n      add\n        /* \"#utility.yul\":11177:11180   */\n      dup5\n        /* \"#utility.yul\":11168:11174   */\n      dup5\n        /* \"#utility.yul\":11163:11166   */\n      dup5\n        /* \"#utility.yul\":11159:11175   */\n      add\n        /* \"#utility.yul\":11156:11181   */\n      gt\n        /* \"#utility.yul\":11153:11265   */\n      iszero\n      tag_582\n      jumpi\n        /* \"#utility.yul\":11184:11263   */\n      tag_583\n      tag_408\n      jump\t// in\n    tag_583:\n        /* \"#utility.yul\":11153:11265   */\n    tag_582:\n        /* \"#utility.yul\":11274:11328   */\n      tag_584\n        /* \"#utility.yul\":11321:11327   */\n      dup5\n        /* \"#utility.yul\":11316:11319   */\n      dup3\n        /* \"#utility.yul\":11311:11314   */\n      dup6\n        /* \"#utility.yul\":11274:11328   */\n      tag_413\n      jump\t// in\n    tag_584:\n        /* \"#utility.yul\":10993:11334   */\n      pop\n        /* \"#utility.yul\":10909:11334   */\n      swap4\n      swap3\n      pop\n      pop\n      pop\n      jump\t// out\n        /* \"#utility.yul\":11354:11694   */\n    tag_415:\n        /* \"#utility.yul\":11410:11415   */\n      0x00\n        /* \"#utility.yul\":11459:11462   */\n      dup3\n        /* \"#utility.yul\":11452:11456   */\n      0x1f\n        /* \"#utility.yul\":11444:11450   */\n      dup4\n        /* \"#utility.yul\":11440:11457   */\n      add\n        /* \"#utility.yul\":11436:11463   */\n      slt\n        /* \"#utility.yul\":11426:11548   */\n      tag_586\n      jumpi\n        /* \"#utility.yul\":11467:11546   */\n      tag_587\n      tag_391\n      jump\t// in\n    tag_587:\n        /* \"#utility.yul\":11426:11548   */\n    tag_586:\n        /* \"#utility.yul\":11584:11590   */\n      dup2\n        /* \"#utility.yul\":11571:11591   */\n      calldataload\n        /* \"#utility.yul\":11609:11688   */\n      tag_588\n        /* \"#utility.yul\":11684:11687   */\n      dup5\n        /* \"#utility.yul\":11676:11682   */\n      dup3\n        /* \"#utility.yul\":11669:11673   */\n      0x20\n        /* \"#utility.yul\":11661:11667   */\n      dup7\n        /* \"#utility.yul\":11657:11674   */\n      add\n        /* \"#utility.yul\":11609:11688   */\n      tag_414\n      jump\t// in\n    tag_588:\n        /* \"#utility.yul\":11600:11688   */\n      swap2\n      pop\n        /* \"#utility.yul\":11416:11694   */\n      pop\n        /* \"#utility.yul\":11354:11694   */\n      swap3\n      swap2\n      pop\n      pop\n      jump\t// out\n        /* \"#utility.yul\":11700:12645   */\n    tag_86:\n        /* \"#utility.yul\":11796:11802   */\n      0x00\n        /* \"#utility.yul\":11804:11810   */\n      dup1\n        /* \"#utility.yul\":11812:11818   */\n      0x00\n        /* \"#utility.yul\":11820:11826   */\n      dup1\n        /* \"#utility.yul\":11869:11872   */\n      0x80\n        /* \"#utility.yul\":11857:11866   */\n      dup6\n        /* \"#utility.yul\":11848:11855   */\n      dup8\n        /* \"#utility.yul\":11844:11867   */\n      sub\n        /* \"#utility.yul\":11840:11873   */\n      slt\n        /* \"#utility.yul\":11837:11957   */\n      iszero\n      tag_590\n      jumpi\n        /* \"#utility.yul\":11876:11955   */\n      tag_591\n      tag_382\n      jump\t// in\n    tag_591:\n        /* \"#utility.yul\":11837:11957   */\n    tag_590:\n        /* \"#utility.yul\":11996:11997   */\n      0x00\n        /* \"#utility.yul\":12021:12074   */\n      tag_592\n        /* \"#utility.yul\":12066:12073   */\n      dup8\n        /* \"#utility.yul\":12057:12063   */\n      dup3\n        /* \"#utility.yul\":12046:12055   */\n      dup9\n        /* \"#utility.yul\":12042:12064   */\n      add\n        /* \"#utility.yul\":12021:12074   */\n      tag_387\n      jump\t// in\n    tag_592:\n        /* \"#utility.yul\":12011:12074   */\n      swap5\n      pop\n        /* \"#utility.yul\":11967:12084   */\n      pop\n        /* \"#utility.yul\":12123:12125   */\n      0x20\n        /* \"#utility.yul\":12149:12202   */\n      tag_593\n        /* \"#utility.yul\":12194:12201   */\n      dup8\n        /* \"#utility.yul\":12185:12191   */\n      dup3\n        /* \"#utility.yul\":12174:12183   */\n      dup9\n        /* \"#utility.yul\":12170:12192   */\n      add\n        /* \"#utility.yul\":12149:12202   */\n      tag_390\n      jump\t// in\n    tag_593:\n        /* \"#utility.yul\":12139:12202   */\n      swap4\n      pop\n        /* \"#utility.yul\":12094:12212   */\n      pop\n        /* \"#utility.yul\":12251:12253   */\n      0x40\n        /* \"#utility.yul\":12277:12330   */\n      tag_594\n        /* \"#utility.yul\":12322:12329   */\n      dup8\n        /* \"#utility.yul\":12313:12319   */\n      dup3\n        /* \"#utility.yul\":12302:12311   */\n      dup9\n        /* \"#utility.yul\":12298:12320   */\n      add\n        /* \"#utility.yul\":12277:12330   */\n      tag_390\n      jump\t// in\n    tag_594:\n        /* \"#utility.yul\":12267:12330   */\n      swap3\n      pop\n        /* \"#utility.yul\":12222:12340   */\n      pop\n        /* \"#utility.yul\":12407:12409   */\n      0x60\n        /* \"#utility.yul\":12396:12405   */\n      dup6\n        /* \"#utility.yul\":12392:12410   */\n      add\n        /* \"#utility.yul\":12379:12411   */\n      calldataload\n        /* \"#utility.yul\":12438:12456   */\n      0xffffffffffffffff\n        /* \"#utility.yul\":12430:12436   */\n      dup2\n        /* \"#utility.yul\":12427:12457   */\n      gt\n        /* \"#utility.yul\":12424:12541   */\n      iszero\n      tag_595\n      jumpi\n        /* \"#utility.yul\":12460:12539   */\n      tag_596\n      tag_383\n      jump\t// in\n    tag_596:\n        /* \"#utility.yul\":12424:12541   */\n    tag_595:\n        /* \"#utility.yul\":12565:12628   */\n      tag_597\n        /* \"#utility.yul\":12620:12627   */\n      dup8\n        /* \"#utility.yul\":12611:12617   */\n      dup3\n        /* \"#utility.yul\":12600:12609   */\n      dup9\n        /* \"#utility.yul\":12596:12618   */\n      add\n        /* \"#utility.yul\":12565:12628   */\n      tag_415\n      jump\t// in\n    tag_597:\n        /* \"#utility.yul\":12555:12628   */\n      swap2\n      pop\n        /* \"#utility.yul\":12350:12638   */\n      pop\n        /* \"#utility.yul\":11700:12645   */\n      swap3\n      swap6\n      swap2\n      swap5\n      pop\n      swap3\n      pop\n      jump\t// out\n        /* \"#utility.yul\":12651:13305   */\n    tag_91:\n        /* \"#utility.yul\":12729:12735   */\n      0x00\n        /* \"#utility.yul\":12737:12743   */\n      dup1\n        /* \"#utility.yul\":12786:12788   */\n      0x40\n        /* \"#utility.yul\":12774:12783   */\n      dup4\n        /* \"#utility.yul\":12765:12772   */\n      dup6\n        /* \"#utility.yul\":12761:12784   */\n      sub\n        /* \"#utility.yul\":12757:12789   */\n      slt\n        /* \"#utility.yul\":12754:12873   */\n      iszero\n      tag_599\n      jumpi\n        /* \"#utility.yul\":12792:12871   */\n      tag_600\n      tag_382\n      jump\t// in\n    tag_600:\n        /* \"#utility.yul\":12754:12873   */\n    tag_599:\n        /* \"#utility.yul\":12940:12941   */\n      0x00\n        /* \"#utility.yul\":12929:12938   */\n      dup4\n        /* \"#utility.yul\":12925:12942   */\n      add\n        /* \"#utility.yul\":12912:12943   */\n      calldataload\n        /* \"#utility.yul\":12970:12988   */\n      0xffffffffffffffff\n        /* \"#utility.yul\":12962:12968   */\n      dup2\n        /* \"#utility.yul\":12959:12989   */\n      gt\n        /* \"#utility.yul\":12956:13073   */\n      iszero\n      tag_601\n      jumpi\n        /* \"#utility.yul\":12992:13071   */\n      tag_602\n      tag_383\n      jump\t// in\n    tag_602:\n        /* \"#utility.yul\":12956:13073   */\n    tag_601:\n        /* \"#utility.yul\":13097:13160   */\n      tag_603\n        /* \"#utility.yul\":13152:13159   */\n      dup6\n        /* \"#utility.yul\":13143:13149   */\n      dup3\n        /* \"#utility.yul\":13132:13141   */\n      dup7\n        /* \"#utility.yul\":13128:13150   */\n      add\n        /* \"#utility.yul\":13097:13160   */\n      tag_415\n      jump\t// in\n    tag_603:\n        /* \"#utility.yul\":13087:13160   */\n      swap3\n      pop\n        /* \"#utility.yul\":12883:13170   */\n      pop\n        /* \"#utility.yul\":13209:13211   */\n      0x20\n        /* \"#utility.yul\":13235:13288   */\n      tag_604\n        /* \"#utility.yul\":13280:13287   */\n      dup6\n        /* \"#utility.yul\":13271:13277   */\n      dup3\n        /* \"#utility.yul\":13260:13269   */\n      dup7\n        /* \"#utility.yul\":13256:13278   */\n      add\n        /* \"#utility.yul\":13235:13288   */\n      tag_387\n      jump\t// in\n    tag_604:\n        /* \"#utility.yul\":13225:13288   */\n      swap2\n      pop\n        /* \"#utility.yul\":13180:13298   */\n      pop\n        /* \"#utility.yul\":12651:13305   */\n      swap3\n      pop\n      swap3\n      swap1\n      pop\n      jump\t// out\n        /* \"#utility.yul\":13311:13640   */\n    tag_96:\n        /* \"#utility.yul\":13370:13376   */\n      0x00\n        /* \"#utility.yul\":13419:13421   */\n      0x20\n        /* \"#utility.yul\":13407:13416   */\n      dup3\n        /* \"#utility.yul\":13398:13405   */\n      dup5\n        /* \"#utility.yul\":13394:13417   */\n      sub\n        /* \"#utility.yul\":13390:13422   */\n      slt\n        /* \"#utility.yul\":13387:13506   */\n      iszero\n      tag_606\n      jumpi\n        /* \"#utility.yul\":13425:13504   */\n      tag_607\n      tag_382\n      jump\t// in\n    tag_607:\n        /* \"#utility.yul\":13387:13506   */\n    tag_606:\n        /* \"#utility.yul\":13545:13546   */\n      0x00\n        /* \"#utility.yul\":13570:13623   */\n      tag_608\n        /* \"#utility.yul\":13615:13622   */\n      dup5\n        /* \"#utility.yul\":13606:13612   */\n      dup3\n        /* \"#utility.yul\":13595:13604   */\n      dup6\n        /* \"#utility.yul\":13591:13613   */\n      add\n        /* \"#utility.yul\":13570:13623   */\n      tag_387\n      jump\t// in\n    tag_608:\n        /* \"#utility.yul\":13560:13623   */\n      swap2\n      pop\n        /* \"#utility.yul\":13516:13633   */\n      pop\n        /* \"#utility.yul\":13311:13640   */\n      swap3\n      swap2\n      pop\n      pop\n      jump\t// out\n        /* \"#utility.yul\":13646:13986   */\n    tag_99:\n        /* \"#utility.yul\":13771:13775   */\n      0x00\n        /* \"#utility.yul\":13809:13811   */\n      0x40\n        /* \"#utility.yul\":13798:13807   */\n      dup3\n        /* \"#utility.yul\":13794:13812   */\n      add\n        /* \"#utility.yul\":13786:13812   */\n      swap1\n      pop\n        /* \"#utility.yul\":13822:13897   */\n      tag_610\n        /* \"#utility.yul\":13894:13895   */\n      0x00\n        /* \"#utility.yul\":13883:13892   */\n      dup4\n        /* \"#utility.yul\":13879:13896   */\n      add\n        /* \"#utility.yul\":13870:13876   */\n      dup6\n        /* \"#utility.yul\":13822:13897   */\n      tag_405\n      jump\t// in\n    tag_610:\n        /* \"#utility.yul\":13907:13979   */\n      tag_611\n        /* \"#utility.yul\":13975:13977   */\n      0x20\n        /* \"#utility.yul\":13964:13973   */\n      dup4\n        /* \"#utility.yul\":13960:13978   */\n      add\n        /* \"#utility.yul\":13951:13957   */\n      dup5\n        /* \"#utility.yul\":13907:13979   */\n      tag_395\n      jump\t// in\n    tag_611:\n        /* \"#utility.yul\":13646:13986   */\n      swap4\n      swap3\n      pop\n      pop\n      pop\n      jump\t// out\n        /* \"#utility.yul\":13992:14501   */\n    tag_106:\n        /* \"#utility.yul\":14061:14067   */\n      0x00\n        /* \"#utility.yul\":14110:14112   */\n      0x20\n        /* \"#utility.yul\":14098:14107   */\n      dup3\n        /* \"#utility.yul\":14089:14096   */\n      dup5\n        /* \"#utility.yul\":14085:14108   */\n      sub\n        /* \"#utility.yul\":14081:14113   */\n      slt\n        /* \"#utility.yul\":14078:14197   */\n      iszero\n      tag_613\n      jumpi\n        /* \"#utility.yul\":14116:14195   */\n      tag_614\n      tag_382\n      jump\t// in\n    tag_614:\n        /* \"#utility.yul\":14078:14197   */\n    tag_613:\n        /* \"#utility.yul\":14264:14265   */\n      0x00\n        /* \"#utility.yul\":14253:14262   */\n      dup3\n        /* \"#utility.yul\":14249:14266   */\n      add\n        /* \"#utility.yul\":14236:14267   */\n      calldataload\n        /* \"#utility.yul\":14294:14312   */\n      0xffffffffffffffff\n        /* \"#utility.yul\":14286:14292   */\n      dup2\n        /* \"#utility.yul\":14283:14313   */\n      gt\n        /* \"#utility.yul\":14280:14397   */\n      iszero\n      tag_615\n      jumpi\n        /* \"#utility.yul\":14316:14395   */\n      tag_616\n      tag_383\n      jump\t// in\n    tag_616:\n        /* \"#utility.yul\":14280:14397   */\n    tag_615:\n        /* \"#utility.yul\":14421:14484   */\n      tag_617\n        /* \"#utility.yul\":14476:14483   */\n      dup5\n        /* \"#utility.yul\":14467:14473   */\n      dup3\n        /* \"#utility.yul\":14456:14465   */\n      dup6\n        /* \"#utility.yul\":14452:14474   */\n      add\n        /* \"#utility.yul\":14421:14484   */\n      tag_415\n      jump\t// in\n    tag_617:\n        /* \"#utility.yul\":14411:14484   */\n      swap2\n      pop\n        /* \"#utility.yul\":14207:14494   */\n      pop\n        /* \"#utility.yul\":13992:14501   */\n      swap3\n      swap2\n      pop\n      pop\n      jump\t// out\n        /* \"#utility.yul\":14507:15272   */\n    tag_115:\n        /* \"#utility.yul\":14593:14599   */\n      0x00\n        /* \"#utility.yul\":14601:14607   */\n      dup1\n        /* \"#utility.yul\":14609:14615   */\n      0x00\n        /* \"#utility.yul\":14617:14623   */\n      dup1\n        /* \"#utility.yul\":14666:14669   */\n      0x80\n        /* \"#utility.yul\":14654:14663   */\n      dup6\n        /* \"#utility.yul\":14645:14652   */\n      dup8\n        /* \"#utility.yul\":14641:14664   */\n      sub\n        /* \"#utility.yul\":14637:14670   */\n      slt\n        /* \"#utility.yul\":14634:14754   */\n      iszero\n      tag_619\n      jumpi\n        /* \"#utility.yul\":14673:14752   */\n      tag_620\n      tag_382\n      jump\t// in\n    tag_620:\n        /* \"#utility.yul\":14634:14754   */\n    tag_619:\n        /* \"#utility.yul\":14793:14794   */\n      0x00\n        /* \"#utility.yul\":14818:14871   */\n      tag_621\n        /* \"#utility.yul\":14863:14870   */\n      dup8\n        /* \"#utility.yul\":14854:14860   */\n      dup3\n        /* \"#utility.yul\":14843:14852   */\n      dup9\n        /* \"#utility.yul\":14839:14861   */\n      add\n        /* \"#utility.yul\":14818:14871   */\n      tag_387\n      jump\t// in\n    tag_621:\n        /* \"#utility.yul\":14808:14871   */\n      swap5\n      pop\n        /* \"#utility.yul\":14764:14881   */\n      pop\n        /* \"#utility.yul\":14920:14922   */\n      0x20\n        /* \"#utility.yul\":14946:14999   */\n      tag_622\n        /* \"#utility.yul\":14991:14998   */\n      dup8\n        /* \"#utility.yul\":14982:14988   */\n      dup3\n        /* \"#utility.yul\":14971:14980   */\n      dup9\n        /* \"#utility.yul\":14967:14989   */\n      add\n        /* \"#utility.yul\":14946:14999   */\n      tag_390\n      jump\t// in\n    tag_622:\n        /* \"#utility.yul\":14936:14999   */\n      swap4\n      pop\n        /* \"#utility.yul\":14891:15009   */\n      pop\n        /* \"#utility.yul\":15048:15050   */\n      0x40\n        /* \"#utility.yul\":15074:15127   */\n      tag_623\n        /* \"#utility.yul\":15119:15126   */\n      dup8\n        /* \"#utility.yul\":15110:15116   */\n      dup3\n        /* \"#utility.yul\":15099:15108   */\n      dup9\n        /* \"#utility.yul\":15095:15117   */\n      add\n        /* \"#utility.yul\":15074:15127   */\n      tag_390\n      jump\t// in\n    tag_623:\n        /* \"#utility.yul\":15064:15127   */\n      swap3\n      pop\n        /* \"#utility.yul\":15019:15137   */\n      pop\n        /* \"#utility.yul\":15176:15178   */\n      0x60\n        /* \"#utility.yul\":15202:15255   */\n      tag_624\n        /* \"#utility.yul\":15247:15254   */\n      dup8\n        /* \"#utility.yul\":15238:15244   */\n      dup3\n        /* \"#utility.yul\":15227:15236   */\n      dup9\n        /* \"#utility.yul\":15223:15245   */\n      add\n        /* \"#utility.yul\":15202:15255   */\n      tag_387\n      jump\t// in\n    tag_624:\n        /* \"#utility.yul\":15192:15255   */\n      swap2\n      pop\n        /* \"#utility.yul\":15147:15265   */\n      pop\n        /* \"#utility.yul\":14507:15272   */\n      swap3\n      swap6\n      swap2\n      swap5\n      pop\n      swap3\n      pop\n      jump\t// out\n        /* \"#utility.yul\":15278:15392   */\n    tag_416:\n      pop\n      jump\t// out\n        /* \"#utility.yul\":15398:15762   */\n    tag_417:\n        /* \"#utility.yul\":15540:15543   */\n      0x00\n        /* \"#utility.yul\":15561:15627   */\n      tag_627\n        /* \"#utility.yul\":15625:15626   */\n      0x00\n        /* \"#utility.yul\":15620:15623   */\n      dup4\n        /* \"#utility.yul\":15561:15627   */\n      tag_397\n      jump\t// in\n    tag_627:\n        /* \"#utility.yul\":15554:15627   */\n      swap2\n      pop\n        /* \"#utility.yul\":15636:15729   */\n      tag_628\n        /* \"#utility.yul\":15725:15728   */\n      dup3\n        /* \"#utility.yul\":15636:15729   */\n      tag_416\n      jump\t// in\n    tag_628:\n        /* \"#utility.yul\":15754:15755   */\n      0x00\n        /* \"#utility.yul\":15749:15752   */\n      dup3\n        /* \"#utility.yul\":15745:15756   */\n      add\n        /* \"#utility.yul\":15738:15756   */\n      swap1\n      pop\n        /* \"#utility.yul\":15398:15762   */\n      swap2\n      swap1\n      pop\n      jump\t// out\n        /* \"#utility.yul\":15768:16187   */\n    tag_125:\n        /* \"#utility.yul\":15934:15938   */\n      0x00\n        /* \"#utility.yul\":15972:15974   */\n      0x20\n        /* \"#utility.yul\":15961:15970   */\n      dup3\n        /* \"#utility.yul\":15957:15975   */\n      add\n        /* \"#utility.yul\":15949:15975   */\n      swap1\n      pop\n        /* \"#utility.yul\":16021:16030   */\n      dup2\n        /* \"#utility.yul\":16015:16019   */\n      dup2\n        /* \"#utility.yul\":16011:16031   */\n      sub\n        /* \"#utility.yul\":16007:16008   */\n      0x00\n        /* \"#utility.yul\":15996:16005   */\n      dup4\n        /* \"#utility.yul\":15992:16009   */\n      add\n        /* \"#utility.yul\":15985:16032   */\n      mstore\n        /* \"#utility.yul\":16049:16180   */\n      tag_630\n        /* \"#utility.yul\":16175:16179   */\n      dup2\n        /* \"#utility.yul\":16049:16180   */\n      tag_417\n      jump\t// in\n    tag_630:\n        /* \"#utility.yul\":16041:16180   */\n      swap1\n      pop\n        /* \"#utility.yul\":15768:16187   */\n      swap2\n      swap1\n      pop\n      jump\t// out\n        /* \"#utility.yul\":16193:16609   */\n    tag_418:\n        /* \"#utility.yul\":16333:16399   */\n      0xd09cd0b0d0b3d0b0d0b7d0b8d0bd20d0bdd0b520d181d0bed0bed182d0b2d0b5\n        /* \"#utility.yul\":16329:16330   */\n      0x00\n        /* \"#utility.yul\":16321:16327   */\n      dup3\n        /* \"#utility.yul\":16317:16331   */\n      add\n        /* \"#utility.yul\":16310:16400   */\n      mstore\n        /* \"#utility.yul\":16434:16500   */\n      0xd182d181d0b2d183d0b5d18220d0bed182d0bfd180d0b0d0b2d0b8d182d0b5d0\n        /* \"#utility.yul\":16429:16431   */\n      0x20\n        /* \"#utility.yul\":16421:16427   */\n      dup3\n        /* \"#utility.yul\":16417:16432   */\n      add\n        /* \"#utility.yul\":16410:16501   */\n      mstore\n        /* \"#utility.yul\":16535:16601   */\n      0xbbd18e0000000000000000000000000000000000000000000000000000000000\n        /* \"#utility.yul\":16530:16532   */\n      0x40\n        /* \"#utility.yul\":16522:16528   */\n      dup3\n        /* \"#utility.yul\":16518:16533   */\n      add\n        /* \"#utility.yul\":16511:16602   */\n      mstore\n        /* \"#utility.yul\":16193:16609   */\n      pop\n      jump\t// out\n        /* \"#utility.yul\":16615:16981   */\n    tag_419:\n        /* \"#utility.yul\":16757:16760   */\n      0x00\n        /* \"#utility.yul\":16778:16845   */\n      tag_633\n        /* \"#utility.yul\":16842:16844   */\n      0x43\n        /* \"#utility.yul\":16837:16840   */\n      dup4\n        /* \"#utility.yul\":16778:16845   */\n      tag_397\n      jump\t// in\n    tag_633:\n        /* \"#utility.yul\":16771:16845   */\n      swap2\n      pop\n        /* \"#utility.yul\":16854:16947   */\n      tag_634\n        /* \"#utility.yul\":16943:16946   */\n      dup3\n        /* \"#utility.yul\":16854:16947   */\n      tag_418\n      jump\t// in\n    tag_634:\n        /* \"#utility.yul\":16972:16974   */\n      0x60\n        /* \"#utility.yul\":16967:16970   */\n      dup3\n        /* \"#utility.yul\":16963:16975   */\n      add\n        /* \"#utility.yul\":16956:16975   */\n      swap1\n      pop\n        /* \"#utility.yul\":16615:16981   */\n      swap2\n      swap1\n      pop\n      jump\t// out\n        /* \"#utility.yul\":16987:17406   */\n    tag_128:\n        /* \"#utility.yul\":17153:17157   */\n      0x00\n        /* \"#utility.yul\":17191:17193   */\n      0x20\n        /* \"#utility.yul\":17180:17189   */\n      dup3\n        /* \"#utility.yul\":17176:17194   */\n      add\n        /* \"#utility.yul\":17168:17194   */\n      swap1\n      pop\n        /* \"#utility.yul\":17240:17249   */\n      dup2\n        /* \"#utility.yul\":17234:17238   */\n      dup2\n        /* \"#utility.yul\":17230:17250   */\n      sub\n        /* \"#utility.yul\":17226:17227   */\n      0x00\n        /* \"#utility.yul\":17215:17224   */\n      dup4\n        /* \"#utility.yul\":17211:17228   */\n      add\n        /* \"#utility.yul\":17204:17251   */\n      mstore\n        /* \"#utility.yul\":17268:17399   */\n      tag_636\n        /* \"#utility.yul\":17394:17398   */\n      dup2\n        /* \"#utility.yul\":17268:17399   */\n      tag_419\n      jump\t// in\n    tag_636:\n        /* \"#utility.yul\":17260:17399   */\n      swap1\n      pop\n        /* \"#utility.yul\":16987:17406   */\n      swap2\n      swap1\n      pop\n      jump\t// out\n        /* \"#utility.yul\":17412:17592   */\n    tag_420:\n        /* \"#utility.yul\":17460:17537   */\n      0x4e487b7100000000000000000000000000000000000000000000000000000000\n        /* \"#utility.yul\":17457:17458   */\n      0x00\n        /* \"#utility.yul\":17450:17538   */\n      mstore\n        /* \"#utility.yul\":17557:17561   */\n      0x22\n        /* \"#utility.yul\":17554:17555   */\n      0x04\n        /* \"#utility.yul\":17547:17562   */\n      mstore\n        /* \"#utility.yul\":17581:17585   */\n      0x24\n        /* \"#utility.yul\":17578:17579   */\n      0x00\n        /* \"#utility.yul\":17571:17586   */\n      revert\n        /* \"#utility.yul\":17598:17918   */\n    tag_136:\n        /* \"#utility.yul\":17642:17648   */\n      0x00\n        /* \"#utility.yul\":17679:17680   */\n      0x02\n        /* \"#utility.yul\":17673:17677   */\n      dup3\n        /* \"#utility.yul\":17669:17681   */\n      div\n        /* \"#utility.yul\":17659:17681   */\n      swap1\n      pop\n        /* \"#utility.yul\":17726:17727   */\n      0x01\n        /* \"#utility.yul\":17720:17724   */\n      dup3\n        /* \"#utility.yul\":17716:17728   */\n      and\n        /* \"#utility.yul\":17747:17765   */\n      dup1\n        /* \"#utility.yul\":17737:17818   */\n      tag_639\n      jumpi\n        /* \"#utility.yul\":17803:17807   */\n      0x7f\n        /* \"#utility.yul\":17795:17801   */\n      dup3\n        /* \"#utility.yul\":17791:17808   */\n      and\n        /* \"#utility.yul\":17781:17808   */\n      swap2\n      pop\n        /* \"#utility.yul\":17737:17818   */\n    tag_639:\n        /* \"#utility.yul\":17865:17867   */\n      0x20\n        /* \"#utility.yul\":17857:17863   */\n      dup3\n        /* \"#utility.yul\":17854:17868   */\n      lt\n        /* \"#utility.yul\":17834:17852   */\n      dup2\n        /* \"#utility.yul\":17831:17869   */\n      sub\n        /* \"#utility.yul\":17828:17912   */\n      tag_640\n      jumpi\n        /* \"#utility.yul\":17884:17902   */\n      tag_641\n      tag_420\n      jump\t// in\n    tag_641:\n        /* \"#utility.yul\":17828:17912   */\n    tag_640:\n        /* \"#utility.yul\":17649:17918   */\n      pop\n        /* \"#utility.yul\":17598:17918   */\n      swap2\n      swap1\n      pop\n      jump\t// out\n        /* \"#utility.yul\":17924:18065   */\n    tag_421:\n        /* \"#utility.yul\":17973:17977   */\n      0x00\n        /* \"#utility.yul\":17996:17999   */\n      dup2\n        /* \"#utility.yul\":17988:17999   */\n      swap1\n      pop\n        /* \"#utility.yul\":18019:18022   */\n      dup2\n        /* \"#utility.yul\":18016:18017   */\n      0x00\n        /* \"#utility.yul\":18009:18023   */\n      mstore\n        /* \"#utility.yul\":18053:18057   */\n      0x20\n        /* \"#utility.yul\":18050:18051   */\n      0x00\n        /* \"#utility.yul\":18040:18058   */\n      keccak256\n        /* \"#utility.yul\":18032:18058   */\n      swap1\n      pop\n        /* \"#utility.yul\":17924:18065   */\n      swap2\n      swap1\n      pop\n      jump\t// out\n        /* \"#utility.yul\":18071:18164   */\n    tag_422:\n        /* \"#utility.yul\":18108:18114   */\n      0x00\n        /* \"#utility.yul\":18155:18157   */\n      0x20\n        /* \"#utility.yul\":18150:18152   */\n      0x1f\n        /* \"#utility.yul\":18143:18148   */\n      dup4\n        /* \"#utility.yul\":18139:18153   */\n      add\n        /* \"#utility.yul\":18135:18158   */\n      div\n        /* \"#utility.yul\":18125:18158   */\n      swap1\n      pop\n        /* \"#utility.yul\":18071:18164   */\n      swap2\n      swap1\n      pop\n      jump\t// out\n        /* \"#utility.yul\":18170:18277   */\n    tag_423:\n        /* \"#utility.yul\":18214:18222   */\n      0x00\n        /* \"#utility.yul\":18264:18269   */\n      dup3\n        /* \"#utility.yul\":18258:18262   */\n      dup3\n        /* \"#utility.yul\":18254:18270   */\n      shl\n        /* \"#utility.yul\":18233:18270   */\n      swap1\n      pop\n        /* \"#utility.yul\":18170:18277   */\n      swap3\n      swap2\n      pop\n      pop\n      jump\t// out\n        /* \"#utility.yul\":18283:18676   */\n    tag_424:\n        /* \"#utility.yul\":18352:18358   */\n      0x00\n        /* \"#utility.yul\":18402:18403   */\n      0x08\n        /* \"#utility.yul\":18390:18400   */\n      dup4\n        /* \"#utility.yul\":18386:18404   */\n      mul\n        /* \"#utility.yul\":18425:18522   */\n      tag_646\n        /* \"#utility.yul\":18455:18521   */\n      0xffffffffffffffffffffffffffffffffffffffffffffffffffffffffffffffff\n        /* \"#utility.yul\":18444:18453   */\n      dup3\n        /* \"#utility.yul\":18425:18522   */\n      tag_423\n      jump\t// in\n    tag_646:\n        /* \"#utility.yul\":18543:18582   */\n      tag_647\n        /* \"#utility.yul\":18573:18581   */\n      dup7\n        /* \"#utility.yul\":18562:18571   */\n      dup4\n        /* \"#utility.yul\":18543:18582   */\n      tag_423\n      jump\t// in\n    tag_647:\n        /* \"#utility.yul\":18531:18582   */\n      swap6\n      pop\n        /* \"#utility.yul\":18615:18619   */\n      dup1\n        /* \"#utility.yul\":18611:18620   */\n      not\n        /* \"#utility.yul\":18604:18609   */\n      dup5\n        /* \"#utility.yul\":18600:18621   */\n      and\n        /* \"#utility.yul\":18591:18621   */\n      swap4\n      pop\n        /* \"#utility.yul\":18664:18668   */\n      dup1\n        /* \"#utility.yul\":18654:18662   */\n      dup7\n        /* \"#utility.yul\":18650:18669   */\n      and\n        /* \"#utility.yul\":18643:18648   */\n      dup5\n        /* \"#utility.yul\":18640:18670   */\n      or\n        /* \"#utility.yul\":18630:18670   */\n      swap3\n      pop\n        /* \"#utility.yul\":18359:18676   */\n      pop\n      pop\n        /* \"#utility.yul\":18283:18676   */\n      swap4\n      swap3\n      pop\n      pop\n      pop\n      jump\t// out\n        /* \"#utility.yul\":18682:18742   */\n    tag_425:\n        /* \"#utility.yul\":18710:18713   */\n      0x00\n        /* \"#utility.yul\":18731:18736   */\n      dup2\n        /* \"#utility.yul\":18724:18736   */\n      swap1\n      pop\n        /* \"#utility.yul\":18682:18742   */\n      swap2\n      swap1\n      pop\n      jump\t// out\n        /* \"#utility.yul\":18748:18890   */\n    tag_426:\n        /* \"#utility.yul\":18798:18807   */\n      0x00\n        /* \"#utility.yul\":18831:18884   */\n      tag_650\n        /* \"#utility.yul\":18849:18883   */\n      tag_651\n        /* \"#utility.yul\":18858:18882   */\n      tag_652\n        /* \"#utility.yul\":18876:18881   */\n      dup5\n        /* \"#utility.yul\":18858:18882   */\n      tag_388\n      jump\t// in\n    tag_652:\n        /* \"#utility.yul\":18849:18883   */\n      tag_425\n      jump\t// in\n    tag_651:\n        /* \"#utility.yul\":18831:18884   */\n      tag_388\n      jump\t// in\n    tag_650:\n        /* \"#utility.yul\":18818:18884   */\n      swap1\n      pop\n        /* \"#utility.yul\":18748:18890   */\n      swap2\n      swap1\n      pop\n      jump\t// out\n        /* \"#utility.yul\":18896:18971   */\n    tag_427:\n        /* \"#utility.yul\":18939:18942   */\n      0x00\n        /* \"#utility.yul\":18960:18965   */\n      dup2\n        /* \"#utility.yul\":18953:18965   */\n      swap1\n      pop\n        /* \"#utility.yul\":18896:18971   */\n      swap2\n      swap1\n      pop\n      jump\t// out\n        /* \"#utility.yul\":18977:19246   */\n    tag_428:\n        /* \"#utility.yul\":19087:19126   */\n      tag_655\n        /* \"#utility.yul\":19118:19125   */\n      dup4\n        /* \"#utility.yul\":19087:19126   */\n      tag_426\n      jump\t// in\n    tag_655:\n        /* \"#utility.yul\":19148:19239   */\n      tag_656\n        /* \"#utility.yul\":19197:19238   */\n      tag_657\n        /* \"#utility.yul\":19221:19237   */\n      dup3\n        /* \"#utility.yul\":19197:19238   */\n      tag_427\n      jump\t// in\n    tag_657:\n        /* \"#utility.yul\":19189:19195   */\n      dup5\n        /* \"#utility.yul\":19182:19186   */\n      dup5\n        /* \"#utility.yul\":19176:19187   */\n      sload\n        /* \"#utility.yul\":19148:19239   */\n      tag_424\n      jump\t// in\n    tag_656:\n        /* \"#utility.yul\":19142:19146   */\n      dup3\n        /* \"#utility.yul\":19135:19240   */\n      sstore\n        /* \"#utility.yul\":19053:19246   */\n      pop\n        /* \"#utility.yul\":18977:19246   */\n      pop\n      pop\n      pop\n      jump\t// out\n        /* \"#utility.yul\":19252:19325   */\n    tag_429:\n        /* \"#utility.yul\":19297:19300   */\n      0x00\n        /* \"#utility.yul\":19252:19325   */\n      swap1\n      jump\t// out\n        /* \"#utility.yul\":19331:19520   */\n    tag_430:\n        /* \"#utility.yul\":19408:19440   */\n      tag_660\n      tag_429\n      jump\t// in\n    tag_660:\n        /* \"#utility.yul\":19449:19514   */\n      tag_661\n        /* \"#utility.yul\":19507:19513   */\n      dup2\n        /* \"#utility.yul\":19499:19505   */\n      dup5\n        /* \"#utility.yul\":19493:19497   */\n      dup5\n        /* \"#utility.yul\":19449:19514   */\n      tag_428\n      jump\t// in\n    tag_661:\n        /* \"#utility.yul\":19384:19520   */\n      pop\n        /* \"#utility.yul\":19331:19520   */\n      pop\n      pop\n      jump\t// out\n        /* \"#utility.yul\":19526:19712   */\n    tag_431:\n        /* \"#utility.yul\":19586:19706   */\n    tag_663:\n        /* \"#utility.yul\":19603:19606   */\n      dup2\n        /* \"#utility.yul\":19596:19601   */\n      dup2\n        /* \"#utility.yul\":19593:19607   */\n      lt\n        /* \"#utility.yul\":19586:19706   */\n      iszero\n      tag_665\n      jumpi\n        /* \"#utility.yul\":19657:19696   */\n      tag_666\n        /* \"#utility.yul\":19694:19695   */\n      0x00\n        /* \"#utility.yul\":19687:19692   */\n      dup3\n        /* \"#utility.yul\":19657:19696   */\n      tag_430\n      jump\t// in\n    tag_666:\n        /* \"#utility.yul\":19630:19631   */\n      0x01\n        /* \"#utility.yul\":19623:19628   */\n      dup2\n        /* \"#utility.yul\":19619:19632   */\n      add\n        /* \"#utility.yul\":19610:19632   */\n      swap1\n      pop\n        /* \"#utility.yul\":19586:19706   */\n      jump(tag_663)\n    tag_665:\n        /* \"#utility.yul\":19526:19712   */\n      pop\n      pop\n      jump\t// out\n        /* \"#utility.yul\":19718:20261   */\n    tag_432:\n        /* \"#utility.yul\":19819:19821   */\n      0x1f\n        /* \"#utility.yul\":19814:19817   */\n      dup3\n        /* \"#utility.yul\":19811:19822   */\n      gt\n        /* \"#utility.yul\":19808:20254   */\n      iszero\n      tag_668\n      jumpi\n        /* \"#utility.yul\":19853:19891   */\n      tag_669\n        /* \"#utility.yul\":19885:19890   */\n      dup2\n        /* \"#utility.yul\":19853:19891   */\n      tag_421\n      jump\t// in\n    tag_669:\n        /* \"#utility.yul\":19937:19966   */\n      tag_670\n        /* \"#utility.yul\":19955:19965   */\n      dup5\n        /* \"#utility.yul\":19937:19966   */\n      tag_422\n      jump\t// in\n    tag_670:\n        /* \"#utility.yul\":19927:19935   */\n      dup2\n        /* \"#utility.yul\":19923:19967   */\n      add\n        /* \"#utility.yul\":20120:20122   */\n      0x20\n        /* \"#utility.yul\":20108:20118   */\n      dup6\n        /* \"#utility.yul\":20105:20123   */\n      lt\n        /* \"#utility.yul\":20102:20151   */\n      iszero\n      tag_671\n      jumpi\n        /* \"#utility.yul\":20141:20149   */\n      dup2\n        /* \"#utility.yul\":20126:20149   */\n      swap1\n      pop\n        /* \"#utility.yul\":20102:20151   */\n    tag_671:\n        /* \"#utility.yul\":20164:20244   */\n      tag_672\n        /* \"#utility.yul\":20220:20242   */\n      tag_673\n        /* \"#utility.yul\":20238:20241   */\n      dup6\n        /* \"#utility.yul\":20220:20242   */\n      tag_422\n      jump\t// in\n    tag_673:\n        /* \"#utility.yul\":20210:20218   */\n      dup4\n        /* \"#utility.yul\":20206:20243   */\n      add\n        /* \"#utility.yul\":20193:20204   */\n      dup3\n        /* \"#utility.yul\":20164:20244   */\n      tag_431\n      jump\t// in\n    tag_672:\n        /* \"#utility.yul\":19823:20254   */\n      pop\n      pop\n        /* \"#utility.yul\":19808:20254   */\n    tag_668:\n        /* \"#utility.yul\":19718:20261   */\n      pop\n      pop\n      pop\n      jump\t// out\n        /* \"#utility.yul\":20267:20384   */\n    tag_433:\n        /* \"#utility.yul\":20321:20329   */\n      0x00\n        /* \"#utility.yul\":20371:20376   */\n      dup3\n        /* \"#utility.yul\":20365:20369   */\n      dup3\n        /* \"#utility.yul\":20361:20377   */\n      shr\n        /* \"#utility.yul\":20340:20377   */\n      swap1\n      pop\n        /* \"#utility.yul\":20267:20384   */\n      swap3\n      swap2\n      pop\n      pop\n      jump\t// out\n        /* \"#utility.yul\":20390:20559   */\n    tag_434:\n        /* \"#utility.yul\":20434:20440   */\n      0x00\n        /* \"#utility.yul\":20467:20518   */\n      tag_676\n        /* \"#utility.yul\":20515:20516   */\n      0x00\n        /* \"#utility.yul\":20511:20517   */\n      not\n        /* \"#utility.yul\":20503:20508   */\n      dup5\n        /* \"#utility.yul\":20500:20501   */\n      0x08\n        /* \"#utility.yul\":20496:20509   */\n      mul\n        /* \"#utility.yul\":20467:20518   */\n      tag_433\n      jump\t// in\n    tag_676:\n        /* \"#utility.yul\":20463:20519   */\n      not\n        /* \"#utility.yul\":20548:20552   */\n      dup1\n        /* \"#utility.yul\":20542:20546   */\n      dup4\n        /* \"#utility.yul\":20538:20553   */\n      and\n        /* \"#utility.yul\":20528:20553   */\n      swap2\n      pop\n        /* \"#utility.yul\":20441:20559   */\n      pop\n        /* \"#utility.yul\":20390:20559   */\n      swap3\n      swap2\n      pop\n      pop\n      jump\t// out\n        /* \"#utility.yul\":20564:20859   */\n    tag_435:\n        /* \"#utility.yul\":20640:20644   */\n      0x00\n        /* \"#utility.yul\":20786:20815   */\n      tag_678\n        /* \"#utility.yul\":20811:20814   */\n      dup4\n        /* \"#utility.yul\":20805:20809   */\n      dup4\n        /* \"#utility.yul\":20786:20815   */\n      tag_434\n      jump\t// in\n    tag_678:\n        /* \"#utility.yul\":20778:20815   */\n      swap2\n      pop\n        /* \"#utility.yul\":20848:20851   */\n      dup3\n        /* \"#utility.yul\":20845:20846   */\n      0x02\n        /* \"#utility.yul\":20841:20852   */\n      mul\n        /* \"#utility.yul\":20835:20839   */\n      dup3\n        /* \"#utility.yul\":20832:20853   */\n      or\n        /* \"#utility.yul\":20824:20853   */\n      swap1\n      pop\n        /* \"#utility.yul\":20564:20859   */\n      swap3\n      swap2\n      pop\n      pop\n      jump\t// out\n        /* \"#utility.yul\":20864:22259   */\n    tag_132:\n        /* \"#utility.yul\":20981:21018   */\n      tag_680\n        /* \"#utility.yul\":21014:21017   */\n      dup3\n        /* \"#utility.yul\":20981:21018   */\n      tag_396\n      jump\t// in\n    tag_680:\n        /* \"#utility.yul\":21083:21101   */\n      0xffffffffffffffff\n        /* \"#utility.yul\":21075:21081   */\n      dup2\n        /* \"#utility.yul\":21072:21102   */\n      gt\n        /* \"#utility.yul\":21069:21125   */\n      iszero\n      tag_681\n      jumpi\n        /* \"#utility.yul\":21105:21123   */\n      tag_682\n      tag_409\n      jump\t// in\n    tag_682:\n        /* \"#utility.yul\":21069:21125   */\n    tag_681:\n        /* \"#utility.yul\":21149:21187   */\n      tag_683\n        /* \"#utility.yul\":21181:21185   */\n      dup3\n        /* \"#utility.yul\":21175:21186   */\n      sload\n        /* \"#utility.yul\":21149:21187   */\n      tag_136\n      jump\t// in\n    tag_683:\n        /* \"#utility.yul\":21234:21301   */\n      tag_684\n        /* \"#utility.yul\":21294:21300   */\n      dup3\n        /* \"#utility.yul\":21286:21292   */\n      dup3\n        /* \"#utility.yul\":21280:21284   */\n      dup6\n        /* \"#utility.yul\":21234:21301   */\n      tag_432\n      jump\t// in\n    tag_684:\n        /* \"#utility.yul\":21328:21329   */\n      0x00\n        /* \"#utility.yul\":21352:21356   */\n      0x20\n        /* \"#utility.yul\":21339:21356   */\n      swap1\n      pop\n        /* \"#utility.yul\":21384:21386   */\n      0x1f\n        /* \"#utility.yul\":21376:21382   */\n      dup4\n        /* \"#utility.yul\":21373:21387   */\n      gt\n        /* \"#utility.yul\":21401:21402   */\n      0x01\n        /* \"#utility.yul\":21396:22014   */\n      dup2\n      eq\n      tag_686\n      jumpi\n        /* \"#utility.yul\":22058:22059   */\n      0x00\n        /* \"#utility.yul\":22075:22081   */\n      dup5\n        /* \"#utility.yul\":22072:22149   */\n      iszero\n      tag_687\n      jumpi\n        /* \"#utility.yul\":22124:22133   */\n      dup3\n        /* \"#utility.yul\":22119:22122   */\n      dup8\n        /* \"#utility.yul\":22115:22134   */\n      add\n        /* \"#utility.yul\":22109:22135   */\n      mload\n        /* \"#utility.yul\":22100:22135   */\n      swap1\n      pop\n        /* \"#utility.yul\":22072:22149   */\n    tag_687:\n        /* \"#utility.yul\":22175:22242   */\n      tag_688\n        /* \"#utility.yul\":22235:22241   */\n      dup6\n        /* \"#utility.yul\":22228:22233   */\n      dup3\n        /* \"#utility.yul\":22175:22242   */\n      tag_435\n      jump\t// in\n    tag_688:\n        /* \"#utility.yul\":22169:22173   */\n      dup7\n        /* \"#utility.yul\":22162:22243   */\n      sstore\n        /* \"#utility.yul\":22031:22253   */\n      pop\n        /* \"#utility.yul\":21366:22253   */\n      jump(tag_685)\n        /* \"#utility.yul\":21396:22014   */\n    tag_686:\n        /* \"#utility.yul\":21448:21452   */\n      0x1f\n        /* \"#utility.yul\":21444:21453   */\n      not\n        /* \"#utility.yul\":21436:21442   */\n      dup5\n        /* \"#utility.yul\":21432:21454   */\n      and\n        /* \"#utility.yul\":21482:21519   */\n      tag_689\n        /* \"#utility.yul\":21514:21518   */\n      dup7\n        /* \"#utility.yul\":21482:21519   */\n      tag_421\n      jump\t// in\n    tag_689:\n        /* \"#utility.yul\":21541:21542   */\n      0x00\n        /* \"#utility.yul\":21555:21763   */\n    tag_690:\n        /* \"#utility.yul\":21569:21576   */\n      dup3\n        /* \"#utility.yul\":21566:21567   */\n      dup2\n        /* \"#utility.yul\":21563:21577   */\n      lt\n        /* \"#utility.yul\":21555:21763   */\n      iszero\n      tag_692\n      jumpi\n        /* \"#utility.yul\":21648:21657   */\n      dup5\n        /* \"#utility.yul\":21643:21646   */\n      dup10\n        /* \"#utility.yul\":21639:21658   */\n      add\n        /* \"#utility.yul\":21633:21659   */\n      mload\n        /* \"#utility.yul\":21625:21631   */\n      dup3\n        /* \"#utility.yul\":21618:21660   */\n      sstore\n        /* \"#utility.yul\":21699:21700   */\n      0x01\n        /* \"#utility.yul\":21691:21697   */\n      dup3\n        /* \"#utility.yul\":21687:21701   */\n      add\n        /* \"#utility.yul\":21677:21701   */\n      swap2\n      pop\n        /* \"#utility.yul\":21746:21748   */\n      0x20\n        /* \"#utility.yul\":21735:21744   */\n      dup6\n        /* \"#utility.yul\":21731:21749   */\n      add\n        /* \"#utility.yul\":21718:21749   */\n      swap5\n      pop\n        /* \"#utility.yul\":21592:21596   */\n      0x20\n        /* \"#utility.yul\":21589:21590   */\n      dup2\n        /* \"#utility.yul\":21585:21597   */\n      add\n        /* \"#utility.yul\":21580:21597   */\n      swap1\n      pop\n        /* \"#utility.yul\":21555:21763   */\n      jump(tag_690)\n    tag_692:\n        /* \"#utility.yul\":21791:21797   */\n      dup7\n        /* \"#utility.yul\":21782:21789   */\n      dup4\n        /* \"#utility.yul\":21779:21798   */\n      lt\n        /* \"#utility.yul\":21776:21955   */\n      iszero\n      tag_693\n      jumpi\n        /* \"#utility.yul\":21849:21858   */\n      dup5\n        /* \"#utility.yul\":21844:21847   */\n      dup10\n        /* \"#utility.yul\":21840:21859   */\n      add\n        /* \"#utility.yul\":21834:21860   */\n      mload\n        /* \"#utility.yul\":21892:21940   */\n      tag_694\n        /* \"#utility.yul\":21934:21938   */\n      0x1f\n        /* \"#utility.yul\":21926:21932   */\n      dup10\n        /* \"#utility.yul\":21922:21939   */\n      and\n        /* \"#utility.yul\":21911:21920   */\n      dup3\n        /* \"#utility.yul\":21892:21940   */\n      tag_434\n      jump\t// in\n    tag_694:\n        /* \"#utility.yul\":21884:21890   */\n      dup4\n        /* \"#utility.yul\":21877:21941   */\n      sstore\n        /* \"#utility.yul\":21799:21955   */\n      pop\n        /* \"#utility.yul\":21776:21955   */\n    tag_693:\n        /* \"#utility.yul\":22001:22002   */\n      0x01\n        /* \"#utility.yul\":21997:21998   */\n      0x02\n        /* \"#utility.yul\":21989:21995   */\n      dup9\n        /* \"#utility.yul\":21985:21999   */\n      mul\n        /* \"#utility.yul\":21981:22003   */\n      add\n        /* \"#utility.yul\":21975:21979   */\n      dup9\n        /* \"#utility.yul\":21968:22004   */\n      sstore\n        /* \"#utility.yul\":21403:22014   */\n      pop\n      pop\n      pop\n        /* \"#utility.yul\":21366:22253   */\n    tag_685:\n      pop\n        /* \"#utility.yul\":20956:22259   */\n      pop\n      pop\n      pop\n        /* \"#utility.yul\":20864:22259   */\n      pop\n      pop\n      jump\t// out\n        /* \"#utility.yul\":22265:22445   */\n    tag_149:\n        /* \"#utility.yul\":22313:22390   */\n      0x4e487b7100000000000000000000000000000000000000000000000000000000\n        /* \"#utility.yul\":22310:22311   */\n      0x00\n        /* \"#utility.yul\":22303:22391   */\n      mstore\n        /* \"#utility.yul\":22410:22414   */\n      0x32\n        /* \"#utility.yul\":22407:22408   */\n      0x04\n        /* \"#utility.yul\":22400:22415   */\n      mstore\n        /* \"#utility.yul\":22434:22438   */\n      0x24\n        /* \"#utility.yul\":22431:22432   */\n      0x00\n        /* \"#utility.yul\":22424:22439   */\n      revert\n        /* \"#utility.yul\":22451:22631   */\n    tag_436:\n        /* \"#utility.yul\":22499:22576   */\n      0x4e487b7100000000000000000000000000000000000000000000000000000000\n        /* \"#utility.yul\":22496:22497   */\n      0x00\n        /* \"#utility.yul\":22489:22577   */\n      mstore\n        /* \"#utility.yul\":22596:22600   */\n      0x11\n        /* \"#utility.yul\":22593:22594   */\n      0x04\n        /* \"#utility.yul\":22586:22601   */\n      mstore\n        /* \"#utility.yul\":22620:22624   */\n      0x24\n        /* \"#utility.yul\":22617:22618   */\n      0x00\n        /* \"#utility.yul\":22610:22625   */\n      revert\n        /* \"#utility.yul\":22637:23047   */\n    tag_162:\n        /* \"#utility.yul\":22677:22684   */\n      0x00\n        /* \"#utility.yul\":22700:22720   */\n      tag_698\n        /* \"#utility.yul\":22718:22719   */\n      dup3\n        /* \"#utility.yul\":22700:22720   */\n      tag_388\n      jump\t// in\n    tag_698:\n        /* \"#utility.yul\":22695:22720   */\n      swap2\n      pop\n        /* \"#utility.yul\":22734:22754   */\n      tag_699\n        /* \"#utility.yul\":22752:22753   */\n      dup4\n        /* \"#utility.yul\":22734:22754   */\n      tag_388\n      jump\t// in\n    tag_699:\n        /* \"#utility.yul\":22729:22754   */\n      swap3\n      pop\n        /* \"#utility.yul\":22789:22790   */\n      dup3\n        /* \"#utility.yul\":22786:22787   */\n      dup3\n        /* \"#utility.yul\":22782:22791   */\n      mul\n        /* \"#utility.yul\":22811:22841   */\n      tag_700\n        /* \"#utility.yul\":22829:22840   */\n      dup2\n        /* \"#utility.yul\":22811:22841   */\n      tag_388\n      jump\t// in\n    tag_700:\n        /* \"#utility.yul\":22800:22841   */\n      swap2\n      pop\n        /* \"#utility.yul\":22990:22991   */\n      dup3\n        /* \"#utility.yul\":22981:22988   */\n      dup3\n        /* \"#utility.yul\":22977:22992   */\n      div\n        /* \"#utility.yul\":22974:22975   */\n      dup5\n        /* \"#utility.yul\":22971:22993   */\n      eq\n        /* \"#utility.yul\":22951:22952   */\n      dup4\n        /* \"#utility.yul\":22944:22953   */\n      iszero\n        /* \"#utility.yul\":22924:23007   */\n      or\n        /* \"#utility.yul\":22901:23040   */\n      tag_701\n      jumpi\n        /* \"#utility.yul\":23020:23038   */\n      tag_702\n      tag_436\n      jump\t// in\n    tag_702:\n        /* \"#utility.yul\":22901:23040   */\n    tag_701:\n        /* \"#utility.yul\":22685:23047   */\n      pop\n        /* \"#utility.yul\":22637:23047   */\n      swap3\n      swap2\n      pop\n      pop\n      jump\t// out\n        /* \"#utility.yul\":23053:23244   */\n    tag_171:\n        /* \"#utility.yul\":23093:23096   */\n      0x00\n        /* \"#utility.yul\":23112:23132   */\n      tag_704\n        /* \"#utility.yul\":23130:23131   */\n      dup3\n        /* \"#utility.yul\":23112:23132   */\n      tag_388\n      jump\t// in\n    tag_704:\n        /* \"#utility.yul\":23107:23132   */\n      swap2\n      pop\n        /* \"#utility.yul\":23146:23166   */\n      tag_705\n        /* \"#utility.yul\":23164:23165   */\n      dup4\n        /* \"#utility.yul\":23146:23166   */\n      tag_388\n      jump\t// in\n    tag_705:\n        /* \"#utility.yul\":23141:23166   */\n      swap3\n      pop\n        /* \"#utility.yul\":23189:23190   */\n      dup3\n        /* \"#utility.yul\":23186:23187   */\n      dup3\n        /* \"#utility.yul\":23182:23191   */\n      add\n        /* \"#utility.yul\":23175:23191   */\n      swap1\n      pop\n        /* \"#utility.yul\":23210:23213   */\n      dup1\n        /* \"#utility.yul\":23207:23208   */\n      dup3\n        /* \"#utility.yul\":23204:23214   */\n      gt\n        /* \"#utility.yul\":23201:23237   */\n      iszero\n      tag_706\n      jumpi\n        /* \"#utility.yul\":23217:23235   */\n      tag_707\n      tag_436\n      jump\t// in\n    tag_707:\n        /* \"#utility.yul\":23201:23237   */\n    tag_706:\n        /* \"#utility.yul\":23053:23244   */\n      swap3\n      swap2\n      pop\n      pop\n      jump\t// out\n        /* \"#utility.yul\":23250:23444   */\n    tag_178:\n        /* \"#utility.yul\":23290:23294   */\n      0x00\n        /* \"#utility.yul\":23310:23330   */\n      tag_709\n        /* \"#utility.yul\":23328:23329   */\n      dup3\n        /* \"#utility.yul\":23310:23330   */\n      tag_388\n      jump\t// in\n    tag_709:\n        /* \"#utility.yul\":23305:23330   */\n      swap2\n      pop\n        /* \"#utility.yul\":23344:23364   */\n      tag_710\n        /* \"#utility.yul\":23362:23363   */\n      dup4\n        /* \"#utility.yul\":23344:23364   */\n      tag_388\n      jump\t// in\n    tag_710:\n        /* \"#utility.yul\":23339:23364   */\n      swap3\n      pop\n        /* \"#utility.yul\":23388:23389   */\n      dup3\n        /* \"#utility.yul\":23385:23386   */\n      dup3\n        /* \"#utility.yul\":23381:23390   */\n      sub\n        /* \"#utility.yul\":23373:23390   */\n      swap1\n      pop\n        /* \"#utility.yul\":23412:23413   */\n      dup2\n        /* \"#utility.yul\":23406:23410   */\n      dup2\n        /* \"#utility.yul\":23403:23414   */\n      gt\n        /* \"#utility.yul\":23400:23437   */\n      iszero\n      tag_711\n      jumpi\n        /* \"#utility.yul\":23417:23435   */\n      tag_712\n      tag_436\n      jump\t// in\n    tag_712:\n        /* \"#utility.yul\":23400:23437   */\n    tag_711:\n        /* \"#utility.yul\":23250:23444   */\n      swap3\n      swap2\n      pop\n      pop\n      jump\t// out\n        /* \"#utility.yul\":23450:23683   */\n    tag_211:\n        /* \"#utility.yul\":23489:23492   */\n      0x00\n        /* \"#utility.yul\":23512:23536   */\n      tag_714\n        /* \"#utility.yul\":23530:23535   */\n      dup3\n        /* \"#utility.yul\":23512:23536   */\n      tag_388\n      jump\t// in\n    tag_714:\n        /* \"#utility.yul\":23503:23536   */\n      swap2\n      pop\n        /* \"#utility.yul\":23558:23624   */\n      0xffffffffffffffffffffffffffffffffffffffffffffffffffffffffffffffff\n        /* \"#utility.yul\":23551:23556   */\n      dup3\n        /* \"#utility.yul\":23548:23625   */\n      sub\n        /* \"#utility.yul\":23545:23648   */\n      tag_715\n      jumpi\n        /* \"#utility.yul\":23628:23646   */\n      tag_716\n      tag_436\n      jump\t// in\n    tag_716:\n        /* \"#utility.yul\":23545:23648   */\n    tag_715:\n        /* \"#utility.yul\":23675:23676   */\n      0x01\n        /* \"#utility.yul\":23668:23673   */\n      dup3\n        /* \"#utility.yul\":23664:23677   */\n      add\n        /* \"#utility.yul\":23657:23677   */\n      swap1\n      pop\n        /* \"#utility.yul\":23450:23683   */\n      swap2\n      swap1\n      pop\n      jump\t// out\n        /* \"#utility.yul\":23689:23768   */\n    tag_437:\n        /* \"#utility.yul\":23728:23735   */\n      0x00\n        /* \"#utility.yul\":23757:23762   */\n      dup2\n        /* \"#utility.yul\":23746:23762   */\n      swap1\n      pop\n        /* \"#utility.yul\":23689:23768   */\n      swap2\n      swap1\n      pop\n      jump\t// out\n        /* \"#utility.yul\":23774:23931   */\n    tag_438:\n        /* \"#utility.yul\":23879:23924   */\n      tag_719\n        /* \"#utility.yul\":23899:23923   */\n      tag_720\n        /* \"#utility.yul\":23917:23922   */\n      dup3\n        /* \"#utility.yul\":23899:23923   */\n      tag_388\n      jump\t// in\n    tag_720:\n        /* \"#utility.yul\":23879:23924   */\n      tag_437\n      jump\t// in\n    tag_719:\n        /* \"#utility.yul\":23874:23877   */\n      dup3\n        /* \"#utility.yul\":23867:23925   */\n      mstore\n        /* \"#utility.yul\":23774:23931   */\n      pop\n      pop\n      jump\t// out\n        /* \"#utility.yul\":23937:24031   */\n    tag_439:\n        /* \"#utility.yul\":23970:23978   */\n      0x00\n        /* \"#utility.yul\":24018:24023   */\n      dup2\n        /* \"#utility.yul\":24014:24016   */\n      0x60\n        /* \"#utility.yul\":24010:24024   */\n      shl\n        /* \"#utility.yul\":23989:24024   */\n      swap1\n      pop\n        /* \"#utility.yul\":23937:24031   */\n      swap2\n      swap1\n      pop\n      jump\t// out\n        /* \"#utility.yul\":24037:24131   */\n    tag_440:\n        /* \"#utility.yul\":24076:24083   */\n      0x00\n        /* \"#utility.yul\":24105:24125   */\n      tag_723\n        /* \"#utility.yul\":24119:24124   */\n      dup3\n        /* \"#utility.yul\":24105:24125   */\n      tag_439\n      jump\t// in\n    tag_723:\n        /* \"#utility.yul\":24094:24125   */\n      swap1\n      pop\n        /* \"#utility.yul\":24037:24131   */\n      swap2\n      swap1\n      pop\n      jump\t// out\n        /* \"#utility.yul\":24137:24237   */\n    tag_441:\n        /* \"#utility.yul\":24176:24183   */\n      0x00\n        /* \"#utility.yul\":24205:24231   */\n      tag_725\n        /* \"#utility.yul\":24225:24230   */\n      dup3\n        /* \"#utility.yul\":24205:24231   */\n      tag_440\n      jump\t// in\n    tag_725:\n        /* \"#utility.yul\":24194:24231   */\n      swap1\n      pop\n        /* \"#utility.yul\":24137:24237   */\n      swap2\n      swap1\n      pop\n      jump\t// out\n        /* \"#utility.yul\":24243:24400   */\n    tag_442:\n        /* \"#utility.yul\":24348:24393   */\n      tag_727\n        /* \"#utility.yul\":24368:24392   */\n      tag_728\n        /* \"#utility.yul\":24386:24391   */\n      dup3\n        /* \"#utility.yul\":24368:24392   */\n      tag_385\n      jump\t// in\n    tag_728:\n        /* \"#utility.yul\":24348:24393   */\n      tag_441\n      jump\t// in\n    tag_727:\n        /* \"#utility.yul\":24343:24346   */\n      dup3\n        /* \"#utility.yul\":24336:24394   */\n      mstore\n        /* \"#utility.yul\":24243:24400   */\n      pop\n      pop\n      jump\t// out\n        /* \"#utility.yul\":24406:24944   */\n    tag_213:\n        /* \"#utility.yul\":24574:24577   */\n      0x00\n        /* \"#utility.yul\":24589:24664   */\n      tag_730\n        /* \"#utility.yul\":24660:24663   */\n      dup3\n        /* \"#utility.yul\":24651:24657   */\n      dup7\n        /* \"#utility.yul\":24589:24664   */\n      tag_438\n      jump\t// in\n    tag_730:\n        /* \"#utility.yul\":24689:24691   */\n      0x20\n        /* \"#utility.yul\":24684:24687   */\n      dup3\n        /* \"#utility.yul\":24680:24692   */\n      add\n        /* \"#utility.yul\":24673:24692   */\n      swap2\n      pop\n        /* \"#utility.yul\":24702:24777   */\n      tag_731\n        /* \"#utility.yul\":24773:24776   */\n      dup3\n        /* \"#utility.yul\":24764:24770   */\n      dup6\n        /* \"#utility.yul\":24702:24777   */\n      tag_442\n      jump\t// in\n    tag_731:\n        /* \"#utility.yul\":24802:24804   */\n      0x14\n        /* \"#utility.yul\":24797:24800   */\n      dup3\n        /* \"#utility.yul\":24793:24805   */\n      add\n        /* \"#utility.yul\":24786:24805   */\n      swap2\n      pop\n        /* \"#utility.yul\":24815:24890   */\n      tag_732\n        /* \"#utility.yul\":24886:24889   */\n      dup3\n        /* \"#utility.yul\":24877:24883   */\n      dup5\n        /* \"#utility.yul\":24815:24890   */\n      tag_438\n      jump\t// in\n    tag_732:\n        /* \"#utility.yul\":24915:24917   */\n      0x20\n        /* \"#utility.yul\":24910:24913   */\n      dup3\n        /* \"#utility.yul\":24906:24918   */\n      add\n        /* \"#utility.yul\":24899:24918   */\n      swap2\n      pop\n        /* \"#utility.yul\":24935:24938   */\n      dup2\n        /* \"#utility.yul\":24928:24938   */\n      swap1\n      pop\n        /* \"#utility.yul\":24406:24944   */\n      swap5\n      swap4\n      pop\n      pop\n      pop\n      pop\n      jump\t// out\n        /* \"#utility.yul\":24950:25130   */\n    tag_443:\n        /* \"#utility.yul\":24998:25075   */\n      0x4e487b7100000000000000000000000000000000000000000000000000000000\n        /* \"#utility.yul\":24995:24996   */\n      0x00\n        /* \"#utility.yul\":24988:25076   */\n      mstore\n        /* \"#utility.yul\":25095:25099   */\n      0x12\n        /* \"#utility.yul\":25092:25093   */\n      0x04\n        /* \"#utility.yul\":25085:25100   */\n      mstore\n        /* \"#utility.yul\":25119:25123   */\n      0x24\n        /* \"#utility.yul\":25116:25117   */\n      0x00\n        /* \"#utility.yul\":25109:25124   */\n      revert\n        /* \"#utility.yul\":25136:25312   */\n    tag_215:\n        /* \"#utility.yul\":25168:25169   */\n      0x00\n        /* \"#utility.yul\":25185:25205   */\n      tag_735\n        /* \"#utility.yul\":25203:25204   */\n      dup3\n        /* \"#utility.yul\":25185:25205   */\n      tag_388\n      jump\t// in\n    tag_735:\n        /* \"#utility.yul\":25180:25205   */\n      swap2\n      pop\n        /* \"#utility.yul\":25219:25239   */\n      tag_736\n        /* \"#utility.yul\":25237:25238   */\n      dup4\n        /* \"#utility.yul\":25219:25239   */\n      tag_388\n      jump\t// in\n    tag_736:\n        /* \"#utility.yul\":25214:25239   */\n      swap3\n      pop\n        /* \"#utility.yul\":25258:25259   */\n      dup3\n        /* \"#utility.yul\":25248:25283   */\n      tag_737\n      jumpi\n        /* \"#utility.yul\":25263:25281   */\n      tag_738\n      tag_443\n      jump\t// in\n    tag_738:\n        /* \"#utility.yul\":25248:25283   */\n    tag_737:\n        /* \"#utility.yul\":25304:25305   */\n      dup3\n        /* \"#utility.yul\":25301:25302   */\n      dup3\n        /* \"#utility.yul\":25297:25306   */\n      mod\n        /* \"#utility.yul\":25292:25306   */\n      swap1\n      pop\n        /* \"#utility.yul\":25136:25312   */\n      swap3\n      swap2\n      pop\n      pop\n      jump\t// out\n        /* \"#utility.yul\":25318:25503   */\n    tag_227:\n        /* \"#utility.yul\":25358:25359   */\n      0x00\n        /* \"#utility.yul\":25375:25395   */\n      tag_740\n        /* \"#utility.yul\":25393:25394   */\n      dup3\n        /* \"#utility.yul\":25375:25395   */\n      tag_388\n      jump\t// in\n    tag_740:\n        /* \"#utility.yul\":25370:25395   */\n      swap2\n      pop\n        /* \"#utility.yul\":25409:25429   */\n      tag_741\n        /* \"#utility.yul\":25427:25428   */\n      dup4\n        /* \"#utility.yul\":25409:25429   */\n      tag_388\n      jump\t// in\n    tag_741:\n        /* \"#utility.yul\":25404:25429   */\n      swap3\n      pop\n        /* \"#utility.yul\":25448:25449   */\n      dup3\n        /* \"#utility.yul\":25438:25473   */\n      tag_742\n      jumpi\n        /* \"#utility.yul\":25453:25471   */\n      tag_743\n      tag_443\n      jump\t// in\n    tag_743:\n        /* \"#utility.yul\":25438:25473   */\n    tag_742:\n        /* \"#utility.yul\":25495:25496   */\n      dup3\n        /* \"#utility.yul\":25492:25493   */\n      dup3\n        /* \"#utility.yul\":25488:25497   */\n      div\n        /* \"#utility.yul\":25483:25497   */\n      swap1\n      pop\n        /* \"#utility.yul\":25318:25503   */\n      swap3\n      swap2\n      pop\n      pop\n      jump\t// out\n        /* \"#utility.yul\":25509:25734   */\n    tag_444:\n        /* \"#utility.yul\":25649:25683   */\n      0x507572636861736520616d6f756e74206d757374206265206772656174657220\n        /* \"#utility.yul\":25645:25646   */\n      0x00\n        /* \"#utility.yul\":25637:25643   */\n      dup3\n        /* \"#utility.yul\":25633:25647   */\n      add\n        /* \"#utility.yul\":25626:25684   */\n      mstore\n        /* \"#utility.yul\":25718:25726   */\n      0x7468616e20300000000000000000000000000000000000000000000000000000\n        /* \"#utility.yul\":25713:25715   */\n      0x20\n        /* \"#utility.yul\":25705:25711   */\n      dup3\n        /* \"#utility.yul\":25701:25716   */\n      add\n        /* \"#utility.yul\":25694:25727   */\n      mstore\n        /* \"#utility.yul\":25509:25734   */\n      pop\n      jump\t// out\n        /* \"#utility.yul\":25740:26106   */\n    tag_445:\n        /* \"#utility.yul\":25882:25885   */\n      0x00\n        /* \"#utility.yul\":25903:25970   */\n      tag_746\n        /* \"#utility.yul\":25967:25969   */\n      0x26\n        /* \"#utility.yul\":25962:25965   */\n      dup4\n        /* \"#utility.yul\":25903:25970   */\n      tag_397\n      jump\t// in\n    tag_746:\n        /* \"#utility.yul\":25896:25970   */\n      swap2\n      pop\n        /* \"#utility.yul\":25979:26072   */\n      tag_747\n        /* \"#utility.yul\":26068:26071   */\n      dup3\n        /* \"#utility.yul\":25979:26072   */\n      tag_444\n      jump\t// in\n    tag_747:\n        /* \"#utility.yul\":26097:26099   */\n      0x40\n        /* \"#utility.yul\":26092:26095   */\n      dup3\n        /* \"#utility.yul\":26088:26100   */\n      add\n        /* \"#utility.yul\":26081:26100   */\n      swap1\n      pop\n        /* \"#utility.yul\":25740:26106   */\n      swap2\n      swap1\n      pop\n      jump\t// out\n        /* \"#utility.yul\":26112:26531   */\n    tag_242:\n        /* \"#utility.yul\":26278:26282   */\n      0x00\n        /* \"#utility.yul\":26316:26318   */\n      0x20\n        /* \"#utility.yul\":26305:26314   */\n      dup3\n        /* \"#utility.yul\":26301:26319   */\n      add\n        /* \"#utility.yul\":26293:26319   */\n      swap1\n      pop\n        /* \"#utility.yul\":26365:26374   */\n      dup2\n        /* \"#utility.yul\":26359:26363   */\n      dup2\n        /* \"#utility.yul\":26355:26375   */\n      sub\n        /* \"#utility.yul\":26351:26352   */\n      0x00\n        /* \"#utility.yul\":26340:26349   */\n      dup4\n        /* \"#utility.yul\":26336:26353   */\n      add\n        /* \"#utility.yul\":26329:26376   */\n      mstore\n        /* \"#utility.yul\":26393:26524   */\n      tag_749\n        /* \"#utility.yul\":26519:26523   */\n      dup2\n        /* \"#utility.yul\":26393:26524   */\n      tag_445\n      jump\t// in\n    tag_749:\n        /* \"#utility.yul\":26385:26524   */\n      swap1\n      pop\n        /* \"#utility.yul\":26112:26531   */\n      swap2\n      swap1\n      pop\n      jump\t// out\n        /* \"#utility.yul\":26537:26705   */\n    tag_446:\n        /* \"#utility.yul\":26677:26697   */\n      0x496e76616c69642070726f647563742049440000000000000000000000000000\n        /* \"#utility.yul\":26673:26674   */\n      0x00\n        /* \"#utility.yul\":26665:26671   */\n      dup3\n        /* \"#utility.yul\":26661:26675   */\n      add\n        /* \"#utility.yul\":26654:26698   */\n      mstore\n        /* \"#utility.yul\":26537:26705   */\n      pop\n      jump\t// out\n        /* \"#utility.yul\":26711:27077   */\n    tag_447:\n        /* \"#utility.yul\":26853:26856   */\n      0x00\n        /* \"#utility.yul\":26874:26941   */\n      tag_752\n        /* \"#utility.yul\":26938:26940   */\n      0x12\n        /* \"#utility.yul\":26933:26936   */\n      dup4\n        /* \"#utility.yul\":26874:26941   */\n      tag_397\n      jump\t// in\n    tag_752:\n        /* \"#utility.yul\":26867:26941   */\n      swap2\n      pop\n        /* \"#utility.yul\":26950:27043   */\n      tag_753\n        /* \"#utility.yul\":27039:27042   */\n      dup3\n        /* \"#utility.yul\":26950:27043   */\n      tag_446\n      jump\t// in\n    tag_753:\n        /* \"#utility.yul\":27068:27070   */\n      0x20\n        /* \"#utility.yul\":27063:27066   */\n      dup3\n        /* \"#utility.yul\":27059:27071   */\n      add\n        /* \"#utility.yul\":27052:27071   */\n      swap1\n      pop\n        /* \"#utility.yul\":26711:27077   */\n      swap2\n      swap1\n      pop\n      jump\t// out\n        /* \"#utility.yul\":27083:27502   */\n    tag_245:\n        /* \"#utility.yul\":27249:27253   */\n      0x00\n        /* \"#utility.yul\":27287:27289   */\n      0x20\n        /* \"#utility.yul\":27276:27285   */\n      dup3\n        /* \"#utility.yul\":27272:27290   */\n      add\n        /* \"#utility.yul\":27264:27290   */\n      swap1\n      pop\n        /* \"#utility.yul\":27336:27345   */\n      dup2\n        /* \"#utility.yul\":27330:27334   */\n      dup2\n        /* \"#utility.yul\":27326:27346   */\n      sub\n        /* \"#utility.yul\":27322:27323   */\n      0x00\n        /* \"#utility.yul\":27311:27320   */\n      dup4\n        /* \"#utility.yul\":27307:27324   */\n      add\n        /* \"#utility.yul\":27300:27347   */\n      mstore\n        /* \"#utility.yul\":27364:27495   */\n      tag_755\n        /* \"#utility.yul\":27490:27494   */\n      dup2\n        /* \"#utility.yul\":27364:27495   */\n      tag_447\n      jump\t// in\n    tag_755:\n        /* \"#utility.yul\":27356:27495   */\n      swap1\n      pop\n        /* \"#utility.yul\":27083:27502   */\n      swap2\n      swap1\n      pop\n      jump\t// out\n        /* \"#utility.yul\":27508:27684   */\n    tag_448:\n        /* \"#utility.yul\":27648:27676   */\n      0x4e6f7420656e6f7567682073746f636b20617661696c61626c65000000000000\n        /* \"#utility.yul\":27644:27645   */\n      0x00\n        /* \"#utility.yul\":27636:27642   */\n      dup3\n        /* \"#utility.yul\":27632:27646   */\n      add\n        /* \"#utility.yul\":27625:27677   */\n      mstore\n        /* \"#utility.yul\":27508:27684   */\n      pop\n      jump\t// out\n        /* \"#utility.yul\":27690:28056   */\n    tag_449:\n        /* \"#utility.yul\":27832:27835   */\n      0x00\n        /* \"#utility.yul\":27853:27920   */\n      tag_758\n        /* \"#utility.yul\":27917:27919   */\n      0x1a\n        /* \"#utility.yul\":27912:27915   */\n      dup4\n        /* \"#utility.yul\":27853:27920   */\n      tag_397\n      jump\t// in\n    tag_758:\n        /* \"#utility.yul\":27846:27920   */\n      swap2\n      pop\n        /* \"#utility.yul\":27929:28022   */\n      tag_759\n        /* \"#utility.yul\":28018:28021   */\n      dup3\n        /* \"#utility.yul\":27929:28022   */\n      tag_448\n      jump\t// in\n    tag_759:\n        /* \"#utility.yul\":28047:28049   */\n      0x20\n        /* \"#utility.yul\":28042:28045   */\n      dup3\n        /* \"#utility.yul\":28038:28050   */\n      add\n        /* \"#utility.yul\":28031:28050   */\n      swap1\n      pop\n        /* \"#utility.yul\":27690:28056   */\n      swap2\n      swap1\n      pop\n      jump\t// out\n        /* \"#utility.yul\":28062:28481   */\n    tag_251:\n        /* \"#utility.yul\":28228:28232   */\n      0x00\n        /* \"#utility.yul\":28266:28268   */\n      0x20\n        /* \"#utility.yul\":28255:28264   */\n      dup3\n        /* \"#utility.yul\":28251:28269   */\n      add\n        /* \"#utility.yul\":28243:28269   */\n      swap1\n      pop\n        /* \"#utility.yul\":28315:28324   */\n      dup2\n        /* \"#utility.yul\":28309:28313   */\n      dup2\n        /* \"#utility.yul\":28305:28325   */\n      sub\n        /* \"#utility.yul\":28301:28302   */\n      0x00\n        /* \"#utility.yul\":28290:28299   */\n      dup4\n        /* \"#utility.yul\":28286:28303   */\n      add\n        /* \"#utility.yul\":28279:28326   */\n      mstore\n        /* \"#utility.yul\":28343:28474   */\n      tag_761\n        /* \"#utility.yul\":28469:28473   */\n      dup2\n        /* \"#utility.yul\":28343:28474   */\n      tag_449\n      jump\t// in\n    tag_761:\n        /* \"#utility.yul\":28335:28474   */\n      swap1\n      pop\n        /* \"#utility.yul\":28062:28481   */\n      swap2\n      swap1\n      pop\n      jump\t// out\n        /* \"#utility.yul\":28487:28635   */\n    tag_450:\n        /* \"#utility.yul\":28589:28600   */\n      0x00\n        /* \"#utility.yul\":28626:28629   */\n      dup2\n        /* \"#utility.yul\":28611:28629   */\n      swap1\n      pop\n        /* \"#utility.yul\":28487:28635   */\n      swap3\n      swap2\n      pop\n      pop\n      jump\t// out\n        /* \"#utility.yul\":28641:29031   */\n    tag_451:\n        /* \"#utility.yul\":28747:28750   */\n      0x00\n        /* \"#utility.yul\":28775:28814   */\n      tag_764\n        /* \"#utility.yul\":28808:28813   */\n      dup3\n        /* \"#utility.yul\":28775:28814   */\n      tag_396\n      jump\t// in\n    tag_764:\n        /* \"#utility.yul\":28830:28919   */\n      tag_765\n        /* \"#utility.yul\":28912:28918   */\n      dup2\n        /* \"#utility.yul\":28907:28910   */\n      dup6\n        /* \"#utility.yul\":28830:28919   */\n      tag_450\n      jump\t// in\n    tag_765:\n        /* \"#utility.yul\":28823:28919   */\n      swap4\n      pop\n        /* \"#utility.yul\":28928:28993   */\n      tag_766\n        /* \"#utility.yul\":28986:28992   */\n      dup2\n        /* \"#utility.yul\":28981:28984   */\n      dup6\n        /* \"#utility.yul\":28974:28978   */\n      0x20\n        /* \"#utility.yul\":28967:28972   */\n      dup7\n        /* \"#utility.yul\":28963:28979   */\n      add\n        /* \"#utility.yul\":28928:28993   */\n      tag_398\n      jump\t// in\n    tag_766:\n        /* \"#utility.yul\":29018:29024   */\n      dup1\n        /* \"#utility.yul\":29013:29016   */\n      dup5\n        /* \"#utility.yul\":29009:29025   */\n      add\n        /* \"#utility.yul\":29002:29025   */\n      swap2\n      pop\n        /* \"#utility.yul\":28751:29031   */\n      pop\n        /* \"#utility.yul\":28641:29031   */\n      swap3\n      swap2\n      pop\n      pop\n      jump\t// out\n        /* \"#utility.yul\":29037:29312   */\n    tag_258:\n        /* \"#utility.yul\":29169:29172   */\n      0x00\n        /* \"#utility.yul\":29191:29286   */\n      tag_768\n        /* \"#utility.yul\":29282:29285   */\n      dup3\n        /* \"#utility.yul\":29273:29279   */\n      dup5\n        /* \"#utility.yul\":29191:29286   */\n      tag_451\n      jump\t// in\n    tag_768:\n        /* \"#utility.yul\":29184:29286   */\n      swap2\n      pop\n        /* \"#utility.yul\":29303:29306   */\n      dup2\n        /* \"#utility.yul\":29296:29306   */\n      swap1\n      pop\n        /* \"#utility.yul\":29037:29312   */\n      swap3\n      swap2\n      pop\n      pop\n      jump\t// out\n        /* \"#utility.yul\":29318:29491   */\n    tag_452:\n        /* \"#utility.yul\":29458:29483   */\n      0x496e73756666696369656e742066756e64732073656e74000000000000000000\n        /* \"#utility.yul\":29454:29455   */\n      0x00\n        /* \"#utility.yul\":29446:29452   */\n      dup3\n        /* \"#utility.yul\":29442:29456   */\n      add\n        /* \"#utility.yul\":29435:29484   */\n      mstore\n        /* \"#utility.yul\":29318:29491   */\n      pop\n      jump\t// out\n        /* \"#utility.yul\":29497:29863   */\n    tag_453:\n        /* \"#utility.yul\":29639:29642   */\n      0x00\n        /* \"#utility.yul\":29660:29727   */\n      tag_771\n        /* \"#utility.yul\":29724:29726   */\n      0x17\n        /* \"#utility.yul\":29719:29722   */\n      dup4\n        /* \"#utility.yul\":29660:29727   */\n      tag_397\n      jump\t// in\n    tag_771:\n        /* \"#utility.yul\":29653:29727   */\n      swap2\n      pop\n        /* \"#utility.yul\":29736:29829   */\n      tag_772\n        /* \"#utility.yul\":29825:29828   */\n      dup3\n        /* \"#utility.yul\":29736:29829   */\n      tag_452\n      jump\t// in\n    tag_772:\n        /* \"#utility.yul\":29854:29856   */\n      0x20\n        /* \"#utility.yul\":29849:29852   */\n      dup3\n        /* \"#utility.yul\":29845:29857   */\n      add\n        /* \"#utility.yul\":29838:29857   */\n      swap1\n      pop\n        /* \"#utility.yul\":29497:29863   */\n      swap2\n      swap1\n      pop\n      jump\t// out\n        /* \"#utility.yul\":29869:30288   */\n    tag_265:\n        /* \"#utility.yul\":30035:30039   */\n      0x00\n        /* \"#utility.yul\":30073:30075   */\n      0x20\n        /* \"#utility.yul\":30062:30071   */\n      dup3\n        /* \"#utility.yul\":30058:30076   */\n      add\n        /* \"#utility.yul\":30050:30076   */\n      swap1\n      pop\n        /* \"#utility.yul\":30122:30131   */\n      dup2\n        /* \"#utility.yul\":30116:30120   */\n      dup2\n        /* \"#utility.yul\":30112:30132   */\n      sub\n        /* \"#utility.yul\":30108:30109   */\n      0x00\n        /* \"#utility.yul\":30097:30106   */\n      dup4\n        /* \"#utility.yul\":30093:30110   */\n      add\n        /* \"#utility.yul\":30086:30133   */\n      mstore\n        /* \"#utility.yul\":30150:30281   */\n      tag_774\n        /* \"#utility.yul\":30276:30280   */\n      dup2\n        /* \"#utility.yul\":30150:30281   */\n      tag_453\n      jump\t// in\n    tag_774:\n        /* \"#utility.yul\":30142:30281   */\n      swap1\n      pop\n        /* \"#utility.yul\":29869:30288   */\n      swap2\n      swap1\n      pop\n      jump\t// out\n        /* \"#utility.yul\":30294:30441   */\n    tag_454:\n        /* \"#utility.yul\":30395:30406   */\n      0x00\n        /* \"#utility.yul\":30432:30435   */\n      dup2\n        /* \"#utility.yul\":30417:30435   */\n      swap1\n      pop\n        /* \"#utility.yul\":30294:30441   */\n      swap3\n      swap2\n      pop\n      pop\n      jump\t// out\n        /* \"#utility.yul\":30447:30591   */\n    tag_455:\n        /* \"#utility.yul\":30499:30503   */\n      0x00\n        /* \"#utility.yul\":30522:30525   */\n      dup2\n        /* \"#utility.yul\":30514:30525   */\n      swap1\n      pop\n        /* \"#utility.yul\":30545:30548   */\n      dup2\n        /* \"#utility.yul\":30542:30543   */\n      0x00\n        /* \"#utility.yul\":30535:30549   */\n      mstore\n        /* \"#utility.yul\":30579:30583   */\n      0x20\n        /* \"#utility.yul\":30576:30577   */\n      0x00\n        /* \"#utility.yul\":30566:30584   */\n      keccak256\n        /* \"#utility.yul\":30558:30584   */\n      swap1\n      pop\n        /* \"#utility.yul\":30447:30591   */\n      swap2\n      swap1\n      pop\n      jump\t// out\n        /* \"#utility.yul\":30619:31497   */\n    tag_456:\n        /* \"#utility.yul\":30724:30727   */\n      0x00\n        /* \"#utility.yul\":30761:30766   */\n      dup2\n        /* \"#utility.yul\":30755:30767   */\n      sload\n        /* \"#utility.yul\":30790:30826   */\n      tag_778\n        /* \"#utility.yul\":30816:30825   */\n      dup2\n        /* \"#utility.yul\":30790:30826   */\n      tag_136\n      jump\t// in\n    tag_778:\n        /* \"#utility.yul\":30842:30930   */\n      tag_779\n        /* \"#utility.yul\":30923:30929   */\n      dup2\n        /* \"#utility.yul\":30918:30921   */\n      dup7\n        /* \"#utility.yul\":30842:30930   */\n      tag_454\n      jump\t// in\n    tag_779:\n        /* \"#utility.yul\":30835:30930   */\n      swap5\n      pop\n        /* \"#utility.yul\":30961:30962   */\n      0x01\n        /* \"#utility.yul\":30950:30959   */\n      dup3\n        /* \"#utility.yul\":30946:30963   */\n      and\n        /* \"#utility.yul\":30977:30978   */\n      0x00\n        /* \"#utility.yul\":30972:31138   */\n      dup2\n      eq\n      tag_781\n      jumpi\n        /* \"#utility.yul\":31152:31153   */\n      0x01\n        /* \"#utility.yul\":31147:31491   */\n      dup2\n      eq\n      tag_782\n      jumpi\n        /* \"#utility.yul\":30939:31491   */\n      jump(tag_780)\n        /* \"#utility.yul\":30972:31138   */\n    tag_781:\n        /* \"#utility.yul\":31056:31060   */\n      0xff\n        /* \"#utility.yul\":31052:31061   */\n      not\n        /* \"#utility.yul\":31041:31050   */\n      dup4\n        /* \"#utility.yul\":31037:31062   */\n      and\n        /* \"#utility.yul\":31032:31035   */\n      dup7\n        /* \"#utility.yul\":31025:31063   */\n      mstore\n        /* \"#utility.yul\":31118:31124   */\n      dup2\n        /* \"#utility.yul\":31111:31125   */\n      iszero\n        /* \"#utility.yul\":31104:31126   */\n      iszero\n        /* \"#utility.yul\":31096:31102   */\n      dup3\n        /* \"#utility.yul\":31092:31127   */\n      mul\n        /* \"#utility.yul\":31087:31090   */\n      dup7\n        /* \"#utility.yul\":31083:31128   */\n      add\n        /* \"#utility.yul\":31076:31128   */\n      swap4\n      pop\n        /* \"#utility.yul\":30972:31138   */\n      jump(tag_780)\n        /* \"#utility.yul\":31147:31491   */\n    tag_782:\n        /* \"#utility.yul\":31214:31255   */\n      tag_783\n        /* \"#utility.yul\":31249:31254   */\n      dup6\n        /* \"#utility.yul\":31214:31255   */\n      tag_455\n      jump\t// in\n    tag_783:\n        /* \"#utility.yul\":31277:31278   */\n      0x00\n        /* \"#utility.yul\":31291:31445   */\n    tag_784:\n        /* \"#utility.yul\":31305:31311   */\n      dup4\n        /* \"#utility.yul\":31302:31303   */\n      dup2\n        /* \"#utility.yul\":31299:31312   */\n      lt\n        /* \"#utility.yul\":31291:31445   */\n      iszero\n      tag_786\n      jumpi\n        /* \"#utility.yul\":31379:31386   */\n      dup2\n        /* \"#utility.yul\":31373:31387   */\n      sload\n        /* \"#utility.yul\":31369:31370   */\n      dup2\n        /* \"#utility.yul\":31364:31367   */\n      dup10\n        /* \"#utility.yul\":31360:31371   */\n      add\n        /* \"#utility.yul\":31353:31388   */\n      mstore\n        /* \"#utility.yul\":31429:31430   */\n      0x01\n        /* \"#utility.yul\":31420:31427   */\n      dup3\n        /* \"#utility.yul\":31416:31431   */\n      add\n        /* \"#utility.yul\":31405:31431   */\n      swap2\n      pop\n        /* \"#utility.yul\":31327:31331   */\n      0x20\n        /* \"#utility.yul\":31324:31325   */\n      dup2\n        /* \"#utility.yul\":31320:31332   */\n      add\n        /* \"#utility.yul\":31315:31332   */\n      swap1\n      pop\n        /* \"#utility.yul\":31291:31445   */\n      jump(tag_784)\n    tag_786:\n        /* \"#utility.yul\":31474:31480   */\n      dup4\n        /* \"#utility.yul\":31469:31472   */\n      dup9\n        /* \"#utility.yul\":31465:31481   */\n      add\n        /* \"#utility.yul\":31458:31481   */\n      swap6\n      pop\n        /* \"#utility.yul\":31154:31491   */\n      pop\n      pop\n        /* \"#utility.yul\":30939:31491   */\n    tag_780:\n      pop\n        /* \"#utility.yul\":30728:31497   */\n      pop\n      pop\n        /* \"#utility.yul\":30619:31497   */\n      swap3\n      swap2\n      pop\n      pop\n      jump\t// out\n        /* \"#utility.yul\":31503:31776   */\n    tag_273:\n        /* \"#utility.yul\":31634:31637   */\n      0x00\n        /* \"#utility.yul\":31656:31750   */\n      tag_788\n        /* \"#utility.yul\":31746:31749   */\n      dup3\n        /* \"#utility.yul\":31737:31743   */\n      dup5\n        /* \"#utility.yul\":31656:31750   */\n      tag_456\n      jump\t// in\n    tag_788:\n        /* \"#utility.yul\":31649:31750   */\n      swap2\n      pop\n        /* \"#utility.yul\":31767:31770   */\n      dup2\n        /* \"#utility.yul\":31760:31770   */\n      swap1\n      pop\n        /* \"#utility.yul\":31503:31776   */\n      swap3\n      swap2\n      pop\n      pop\n      jump\t// out\n\n    auxdata: 0xa26469706673582212203c3ef7421e2fe3619a3a9c5c602d633097dfde11d58963ac0254d50a39aef59b64736f6c63430008120033\n}\n",
				"bytecode": {
					"linkReferences": {},
					"object": "608060405234801561001057600080fd5b5033600160006101000a81548173ffffffffffffffffffffffffffffffffffffffff021916908373ffffffffffffffffffffffffffffffffffffffff1602179055506136f3806100616000396000f3fe6080604052600436106101145760003560e01c8063805553e8116100a0578063a87430ba11610064578063a87430ba1461037c578063d18a524a146103ba578063d55768dd146103d1578063f67a2ad11461040e578063fecd8f791461043757610114565b8063805553e8146102a6578063861c2b6d146102e35780638da5cb5b1461030c5780639f1cd58714610337578063a1ba90b61461035357610114565b806350b44712116100e757806350b44712146101c257806355dea0b3146102005780635cd58a901461022957806366d0dc67146102665780636f7647081461027d57610114565b806303194133146101195780633d527883146101425780633dfe7dee14610182578063410085df14610199575b600080fd5b34801561012557600080fd5b50610140600480360381019061013b919061265f565b610453565b005b34801561014e57600080fd5b50610169600480360381019061016491906126f9565b61068c565b60405161017994939291906127d8565b60405180910390f35b34801561018e57600080fd5b50610197610761565b005b3480156101a557600080fd5b506101c060048036038101906101bb91906126f9565b610807565b005b3480156101ce57600080fd5b506101e960048036038101906101e49190612824565b610bd4565b6040516101f79291906128d7565b60405180910390f35b34801561020c57600080fd5b5061022760048036038101906102229190612925565b610c31565b005b34801561023557600080fd5b50610250600480360381019061024b9190612952565b610d11565b60405161025d9190612992565b60405180910390f35b34801561027257600080fd5b5061027b610d7e565b005b34801561028957600080fd5b506102a4600480360381019061029f9190612824565b610e25565b005b3480156102b257600080fd5b506102cd60048036038101906102c89190612824565b610f65565b6040516102da9190612992565b60405180910390f35b3480156102ef57600080fd5b5061030a600480360381019061030591906129ad565b610fb7565b005b34801561031857600080fd5b506103216111fc565b60405161032e9190612a47565b60405180910390f35b610351600480360381019061034c9190612b92565b611222565b005b34801561035f57600080fd5b5061037a60048036038101906103759190612c15565b611b83565b005b34801561038857600080fd5b506103a3600480360381019061039e9190612c71565b611c1c565b6040516103b1929190612c9e565b60405180910390f35b3480156103c657600080fd5b506103cf611c4d565b005b3480156103dd57600080fd5b506103f860048036038101906103f39190612cc7565b611cf4565b6040516104059190612a47565b60405180910390f35b34801561041a57600080fd5b5061043560048036038101906104309190612c71565b611d3d565b005b610451600480360381019061044c9190612d10565b611dcf565b005b60018681600281111561046957610468612860565b5b600260003373ffffffffffffffffffffffffffffffffffffffff1673ffffffffffffffffffffffffffffffffffffffff16815260200190815260200160002060000160009054906101000a900460ff1660028111156104cb576104ca612860565b5b1461050b576040517f08c379a000000000000000000000000000000000000000000000000000000000815260040161050290612d9d565b60405180910390fd5b8073ffffffffffffffffffffffffffffffffffffffff163373ffffffffffffffffffffffffffffffffffffffff1614610579576040517f08c379a000000000000000000000000000000000000000000000000000000000815260040161057090612e55565b60405180910390fd5b6000604051806080016040528089815260200188815260200187878080601f016020809104026020016040519081016040528093929190818152602001838380828437600081840152601f19601f820116905080830192505050505050508152602001858152509050600360008a73ffffffffffffffffffffffffffffffffffffffff1673ffffffffffffffffffffffffffffffffffffffff168152602001908152602001600020819080600181540180825580915050600190039060005260206000209060040201600090919091909150600082015181600001556020820151816001015560408201518160020190816106749190613081565b50606082015181600301555050505050505050505050565b600360205281600052604060002081815481106106a857600080fd5b9060005260206000209060040201600091509150508060000154908060010154908060020180546106d890612ea4565b80601f016020809104026020016040519081016040528092919081815260200182805461070490612ea4565b80156107515780601f1061072657610100808354040283529160200191610751565b820191906000526020600020905b81548152906001019060200180831161073457829003601f168201915b5050505050908060030154905084565b604051806040016040528060028081111561077f5761077e612860565b5b81526020016000815250600260003373ffffffffffffffffffffffffffffffffffffffff1673ffffffffffffffffffffffffffffffffffffffff16815260200190815260200160002060008201518160000160006101000a81548160ff021916908360028111156107f3576107f2612860565b5b021790555060208201518160010155905050565b6000600360003373ffffffffffffffffffffffffffffffffffffffff1673ffffffffffffffffffffffffffffffffffffffff168152602001908152602001600020828154811061085a57610859613153565b5b90600052602060002090600402016003015490506000600360008573ffffffffffffffffffffffffffffffffffffffff1673ffffffffffffffffffffffffffffffffffffffff16815260200190815260200160002083815481106108c1576108c0613153565b5b90600052602060002090600402016003015490508082116108e157600080fd5b6000670de0b6b3a7640000600360008773ffffffffffffffffffffffffffffffffffffffff1673ffffffffffffffffffffffffffffffffffffffff168152602001908152602001600020858154811061093d5761093c613153565b5b906000526020600020906004020160010154600360003373ffffffffffffffffffffffffffffffffffffffff1673ffffffffffffffffffffffffffffffffffffffff16815260200190815260200160002086815481106109a05761099f613153565b5b9060005260206000209060040201600001546109bc91906131b1565b6109c691906131b1565b9050600360003373ffffffffffffffffffffffffffffffffffffffff1673ffffffffffffffffffffffffffffffffffffffff1681526020019081526020016000208481548110610a1957610a18613153565b5b906000526020600020906004020160000154600360008773ffffffffffffffffffffffffffffffffffffffff1673ffffffffffffffffffffffffffffffffffffffff1681526020019081526020016000208581548110610a7c57610a7b613153565b5b90600052602060002090600402016000016000828254610a9c91906131f3565b92505081905550600360003373ffffffffffffffffffffffffffffffffffffffff1673ffffffffffffffffffffffffffffffffffffffff1681526020019081526020016000208481548110610af457610af3613153565b5b90600052602060002090600402016000808201600090556001820160009055600282016000610b2391906124f5565b6003820160009055505080600260008773ffffffffffffffffffffffffffffffffffffffff1673ffffffffffffffffffffffffffffffffffffffff1681526020019081526020016000206001016000828254610b7f9190613227565b925050819055503373ffffffffffffffffffffffffffffffffffffffff166108fc829081150290604051600060405180830381858888f19350505050158015610bcc573d6000803e3d6000fd5b505050505050565b60008181548110610be457600080fd5b906000526020600020016000915090508060000160009054906101000a900473ffffffffffffffffffffffffffffffffffffffff16908060000160149054906101000a900460ff16905082565b600060405180604001604052803373ffffffffffffffffffffffffffffffffffffffff168152602001836002811115610c6d57610c6c612860565b5b8152509080600181540180825580915050600190039060005260206000200160009091909190915060008201518160000160006101000a81548173ffffffffffffffffffffffffffffffffffffffff021916908373ffffffffffffffffffffffffffffffffffffffff16021790555060208201518160000160146101000a81548160ff02191690836002811115610d0757610d06612860565b5b0217905550505050565b6000600360008373ffffffffffffffffffffffffffffffffffffffff1673ffffffffffffffffffffffffffffffffffffffff1681526020019081526020016000208381548110610d6457610d63613153565b5b906000526020600020906004020160000154905092915050565b604051806040016040528060016002811115610d9d57610d9c612860565b5b81526020016000815250600260003373ffffffffffffffffffffffffffffffffffffffff1673ffffffffffffffffffffffffffffffffffffffff16815260200190815260200160002060008201518160000160006101000a81548160ff02191690836002811115610e1157610e10612860565b5b021790555060208201518160010155905050565b600160009054906101000a900473ffffffffffffffffffffffffffffffffffffffff1673ffffffffffffffffffffffffffffffffffffffff163373ffffffffffffffffffffffffffffffffffffffff1614610e7f57600080fd5b6000808281548110610e9457610e93613153565b5b9060005260206000200160000160009054906101000a900473ffffffffffffffffffffffffffffffffffffffff1690506000808381548110610ed957610ed8613153565b5b9060005260206000200160000160149054906101000a900460ff16905080600260008473ffffffffffffffffffffffffffffffffffffffff1673ffffffffffffffffffffffffffffffffffffffff16815260200190815260200160002060000160006101000a81548160ff02191690836002811115610f5b57610f5a612860565b5b0217905550505050565b6000808080610f739061325b565b91505082423383604051602001610f8c9392919061330c565b6040516020818303038152906040528051906020012060001c610faf9190613378565b915050919050565b600281816002811115610fcd57610fcc612860565b5b600260003373ffffffffffffffffffffffffffffffffffffffff1673ffffffffffffffffffffffffffffffffffffffff16815260200190815260200160002060000160009054906101000a900460ff16600281111561102f5761102e612860565b5b1461106f576040517f08c379a000000000000000000000000000000000000000000000000000000000815260040161106690612d9d565b60405180910390fd5b8073ffffffffffffffffffffffffffffffffffffffff163373ffffffffffffffffffffffffffffffffffffffff16146110dd576040517f08c379a00000000000000000000000000000000000000000000000000000000081526004016110d490612e55565b60405180910390fd5b600060405180608001604052808a815260200160028a6110fd91906133a9565b815260200188888080601f016020809104026020016040519081016040528093929190818152602001838380828437600081840152601f19601f820116905080830192505050505050508152602001868152509050600360008573ffffffffffffffffffffffffffffffffffffffff1673ffffffffffffffffffffffffffffffffffffffff168152602001908152602001600020819080600181540180825580915050600190039060005260206000209060040201600090919091909150600082015181600001556020820151816001015560408201518160020190816111e49190613081565b50606082015181600301555050505050505050505050565b600160009054906101000a900473ffffffffffffffffffffffffffffffffffffffff1681565b6000600281111561123657611235612860565b5b600260003373ffffffffffffffffffffffffffffffffffffffff1673ffffffffffffffffffffffffffffffffffffffff16815260200190815260200160002060000160009054906101000a900460ff16600281111561129857611297612860565b5b03611343576040518060400160405280600060028111156112bc576112bb612860565b5b81526020016000815250600260003373ffffffffffffffffffffffffffffffffffffffff1673ffffffffffffffffffffffffffffffffffffffff16815260200190815260200160002060008201518160000160006101000a81548160ff021916908360028111156113305761132f612860565b5b0217905550602082015181600101559050505b60008311611386576040517f08c379a000000000000000000000000000000000000000000000000000000000815260040161137d9061344c565b60405180910390fd5b600360008573ffffffffffffffffffffffffffffffffffffffff1673ffffffffffffffffffffffffffffffffffffffff16815260200190815260200160002080549050821061140a576040517f08c379a0000000000000000000000000000000000000000000000000000000008152600401611401906134b8565b60405180910390fd5b600360008573ffffffffffffffffffffffffffffffffffffffff1673ffffffffffffffffffffffffffffffffffffffff168152602001908152602001600020828154811061145b5761145a613153565b5b9060005260206000209060040201600001548311156114af576040517f08c379a00000000000000000000000000000000000000000000000000000000081526004016114a690613524565b60405180910390fd5b6000670de0b6b3a7640000600360008773ffffffffffffffffffffffffffffffffffffffff1673ffffffffffffffffffffffffffffffffffffffff168152602001908152602001600020848154811061150b5761150a613153565b5b9060005260206000209060040201600101548561152891906131b1565b61153291906131b1565b90503373ffffffffffffffffffffffffffffffffffffffff1660048360405161155b9190613580565b908152602001604051809103902060009054906101000a900473ffffffffffffffffffffffffffffffffffffffff1673ffffffffffffffffffffffffffffffffffffffff160361161f576064605a826115b491906131b1565b6115be91906133a9565b905060006004836040516115d29190613580565b908152602001604051809103902060006101000a81548173ffffffffffffffffffffffffffffffffffffffff021916908373ffffffffffffffffffffffffffffffffffffffff1602179055505b80341015611662576040517f08c379a0000000000000000000000000000000000000000000000000000000008152600401611659906135e3565b60405180910390fd5b6000805b600360003373ffffffffffffffffffffffffffffffffffffffff1673ffffffffffffffffffffffffffffffffffffffff1681526020019081526020016000208054905081101561183857600360008873ffffffffffffffffffffffffffffffffffffffff1673ffffffffffffffffffffffffffffffffffffffff168152602001908152602001600020858154811061170157611700613153565b5b906000526020600020906004020160020160405161171f91906136a6565b6040518091039020600360003373ffffffffffffffffffffffffffffffffffffffff1673ffffffffffffffffffffffffffffffffffffffff168152602001908152602001600020828154811061177857611777613153565b5b906000526020600020906004020160020160405161179691906136a6565b6040518091039020036118255785600360003373ffffffffffffffffffffffffffffffffffffffff1673ffffffffffffffffffffffffffffffffffffffff16815260200190815260200160002082815481106117f5576117f4613153565b5b9060005260206000209060040201600001600082825461181591906131f3565b9250508190555060019150611838565b80806118309061325b565b915050611666565b5080611a5a5760006040518060800160405280878152602001600360008a73ffffffffffffffffffffffffffffffffffffffff1673ffffffffffffffffffffffffffffffffffffffff16815260200190815260200160002087815481106118a2576118a1613153565b5b9060005260206000209060040201600101548152602001600360008a73ffffffffffffffffffffffffffffffffffffffff1673ffffffffffffffffffffffffffffffffffffffff168152602001908152602001600020878154811061190a57611909613153565b5b9060005260206000209060040201600201805461192690612ea4565b80601f016020809104026020016040519081016040528092919081815260200182805461195290612ea4565b801561199f5780601f106119745761010080835404028352916020019161199f565b820191906000526020600020905b81548152906001019060200180831161198257829003601f168201915b505050505081526020016119b46103e8610f65565b8152509050600360003373ffffffffffffffffffffffffffffffffffffffff1673ffffffffffffffffffffffffffffffffffffffff16815260200190815260200160002081908060018154018082558091505060019003906000526020600020906004020160009091909190915060008201518160000155602082015181600101556040820151816002019081611a4b9190613081565b50606082015181600301555050505b84600360008873ffffffffffffffffffffffffffffffffffffffff1673ffffffffffffffffffffffffffffffffffffffff1681526020019081526020016000208581548110611aac57611aab613153565b5b90600052602060002090600402016000016000828254611acc9190613227565b9250508190555081341115611b345760008234611ae99190613227565b90503373ffffffffffffffffffffffffffffffffffffffff166108fc829081150290604051600060405180830381858888f19350505050158015611b31573d6000803e3d6000fd5b50505b81600260008873ffffffffffffffffffffffffffffffffffffffff1673ffffffffffffffffffffffffffffffffffffffff16815260200190815260200160002060010181905550505050505050565b8073ffffffffffffffffffffffffffffffffffffffff163373ffffffffffffffffffffffffffffffffffffffff1603611bbb57600080fd5b80600483604051611bcc9190613580565b908152602001604051809103902060006101000a81548173ffffffffffffffffffffffffffffffffffffffff021916908373ffffffffffffffffffffffffffffffffffffffff1602179055505050565b60026020528060005260406000206000915090508060000160009054906101000a900460ff16908060010154905082565b604051806040016040528060006002811115611c6c57611c6b612860565b5b81526020016000815250600260003373ffffffffffffffffffffffffffffffffffffffff1673ffffffffffffffffffffffffffffffffffffffff16815260200190815260200160002060008201518160000160006101000a81548160ff02191690836002811115611ce057611cdf612860565b5b021790555060208201518160010155905050565b6004818051602081018201805184825260208301602085012081835280955050505050506000915054906101000a900473ffffffffffffffffffffffffffffffffffffffff1681565b6000600260008373ffffffffffffffffffffffffffffffffffffffff1673ffffffffffffffffffffffffffffffffffffffff1681526020019081526020016000206001015490508173ffffffffffffffffffffffffffffffffffffffff166108fc829081150290604051600060405180830381858888f19350505050158015611dca573d6000803e3d6000fd5b505050565b600184816002811115611de557611de4612860565b5b600260003373ffffffffffffffffffffffffffffffffffffffff1673ffffffffffffffffffffffffffffffffffffffff16815260200190815260200160002060000160009054906101000a900460ff166002811115611e4757611e46612860565b5b14611e87576040517f08c379a0000000000000000000000000000000000000000000000000000000008152600401611e7e90612d9d565b60405180910390fd5b8073ffffffffffffffffffffffffffffffffffffffff163373ffffffffffffffffffffffffffffffffffffffff1614611ef5576040517f08c379a0000000000000000000000000000000000000000000000000000000008152600401611eec90612e55565b60405180910390fd5b60008411611f38576040517f08c379a0000000000000000000000000000000000000000000000000000000008152600401611f2f9061344c565b60405180910390fd5b600360008473ffffffffffffffffffffffffffffffffffffffff1673ffffffffffffffffffffffffffffffffffffffff168152602001908152602001600020805490508510611fbc576040517f08c379a0000000000000000000000000000000000000000000000000000000008152600401611fb3906134b8565b60405180910390fd5b6000600360008573ffffffffffffffffffffffffffffffffffffffff1673ffffffffffffffffffffffffffffffffffffffff168152602001908152602001600020868154811061200f5761200e613153565b5b90600052602060002090600402016001015490506000670de0b6b3a7640000868361203a91906131b1565b61204491906131b1565b905080341015612089576040517f08c379a0000000000000000000000000000000000000000000000000000000008152600401612080906135e3565b60405180910390fd5b6000600360008773ffffffffffffffffffffffffffffffffffffffff1673ffffffffffffffffffffffffffffffffffffffff16815260200190815260200160002088815481106120dc576120db613153565b5b90600052602060002090600402016003015490506000600360008873ffffffffffffffffffffffffffffffffffffffff1673ffffffffffffffffffffffffffffffffffffffff168152602001908152602001600020898154811061214357612142613153565b5b9060005260206000209060040201600201805461215f90612ea4565b80601f016020809104026020016040519081016040528092919081815260200182805461218b90612ea4565b80156121d85780601f106121ad576101008083540402835291602001916121d8565b820191906000526020600020905b8154815290600101906020018083116121bb57829003601f168201915b505050505090506000805b600360008d73ffffffffffffffffffffffffffffffffffffffff1673ffffffffffffffffffffffffffffffffffffffff1681526020019081526020016000208054905081101561234257600360008d73ffffffffffffffffffffffffffffffffffffffff1673ffffffffffffffffffffffffffffffffffffffff168152602001908152602001600020818154811061227e5761227d613153565b5b906000526020600020906004020160020160405161229c91906136a6565b604051809103902083805190602001200361232f5789600360008e73ffffffffffffffffffffffffffffffffffffffff1673ffffffffffffffffffffffffffffffffffffffff168152602001908152602001600020828154811061230357612302613153565b5b9060005260206000209060040201600001600082825461232391906131f3565b92505081905550600191505b808061233a9061325b565b9150506121e3565b508061240e57600060405180608001604052808b8152602001878152602001848152602001858152509050600360008d73ffffffffffffffffffffffffffffffffffffffff1673ffffffffffffffffffffffffffffffffffffffff168152602001908152602001600020819080600181540180825580915050600190039060005260206000209060040201600090919091909150600082015181600001556020820151816001015560408201518160020190816123ff9190613081565b50606082015181600301555050505b88600360008a73ffffffffffffffffffffffffffffffffffffffff1673ffffffffffffffffffffffffffffffffffffffff1681526020019081526020016000208b815481106124605761245f613153565b5b906000526020600020906004020160000160008282546124809190613227565b92505081905550833411156124e8576000843461249d9190613227565b90503373ffffffffffffffffffffffffffffffffffffffff166108fc829081150290604051600060405180830381858888f193505050501580156124e5573d6000803e3d6000fd5b50505b5050505050505050505050565b50805461250190612ea4565b6000825580601f106125135750612532565b601f0160209004906000526020600020908101906125319190612535565b5b50565b5b8082111561254e576000816000905550600101612536565b5090565b6000604051905090565b600080fd5b600080fd5b600073ffffffffffffffffffffffffffffffffffffffff82169050919050565b600061259182612566565b9050919050565b6125a181612586565b81146125ac57600080fd5b50565b6000813590506125be81612598565b92915050565b6000819050919050565b6125d7816125c4565b81146125e257600080fd5b50565b6000813590506125f4816125ce565b92915050565b600080fd5b600080fd5b600080fd5b60008083601f84011261261f5761261e6125fa565b5b8235905067ffffffffffffffff81111561263c5761263b6125ff565b5b60208301915083600182028301111561265857612657612604565b5b9250929050565b60008060008060008060a0878903121561267c5761267b61255c565b5b600061268a89828a016125af565b965050602061269b89828a016125e5565b95505060406126ac89828a016125e5565b945050606087013567ffffffffffffffff8111156126cd576126cc612561565b5b6126d989828a01612609565b935093505060806126ec89828a016125e5565b9150509295509295509295565b600080604083850312156127105761270f61255c565b5b600061271e858286016125af565b925050602061272f858286016125e5565b9150509250929050565b612742816125c4565b82525050565b600081519050919050565b600082825260208201905092915050565b60005b83811015612782578082015181840152602081019050612767565b60008484015250505050565b6000601f19601f8301169050919050565b60006127aa82612748565b6127b48185612753565b93506127c4818560208601612764565b6127cd8161278e565b840191505092915050565b60006080820190506127ed6000830187612739565b6127fa6020830186612739565b818103604083015261280c818561279f565b905061281b6060830184612739565b95945050505050565b60006020828403121561283a5761283961255c565b5b6000612848848285016125e5565b91505092915050565b61285a81612586565b82525050565b7f4e487b7100000000000000000000000000000000000000000000000000000000600052602160045260246000fd5b600381106128a05761289f612860565b5b50565b60008190506128b18261288f565b919050565b60006128c1826128a3565b9050919050565b6128d1816128b6565b82525050565b60006040820190506128ec6000830185612851565b6128f960208301846128c8565b9392505050565b6003811061290d57600080fd5b50565b60008135905061291f81612900565b92915050565b60006020828403121561293b5761293a61255c565b5b600061294984828501612910565b91505092915050565b600080604083850312156129695761296861255c565b5b6000612977858286016125e5565b9250506020612988858286016125af565b9150509250929050565b60006020820190506129a76000830184612739565b92915050565b60008060008060008060a087890312156129ca576129c961255c565b5b60006129d889828a016125e5565b96505060206129e989828a016125e5565b955050604087013567ffffffffffffffff811115612a0a57612a09612561565b5b612a1689828a01612609565b94509450506060612a2989828a016125e5565b9250506080612a3a89828a016125af565b9150509295509295509295565b6000602082019050612a5c6000830184612851565b92915050565b600080fd5b7f4e487b7100000000000000000000000000000000000000000000000000000000600052604160045260246000fd5b612a9f8261278e565b810181811067ffffffffffffffff82111715612abe57612abd612a67565b5b80604052505050565b6000612ad1612552565b9050612add8282612a96565b919050565b600067ffffffffffffffff821115612afd57612afc612a67565b5b612b068261278e565b9050602081019050919050565b82818337600083830152505050565b6000612b35612b3084612ae2565b612ac7565b905082815260208101848484011115612b5157612b50612a62565b5b612b5c848285612b13565b509392505050565b600082601f830112612b7957612b786125fa565b5b8135612b89848260208601612b22565b91505092915050565b60008060008060808587031215612bac57612bab61255c565b5b6000612bba878288016125af565b9450506020612bcb878288016125e5565b9350506040612bdc878288016125e5565b925050606085013567ffffffffffffffff811115612bfd57612bfc612561565b5b612c0987828801612b64565b91505092959194509250565b60008060408385031215612c2c57612c2b61255c565b5b600083013567ffffffffffffffff811115612c4a57612c49612561565b5b612c5685828601612b64565b9250506020612c67858286016125af565b9150509250929050565b600060208284031215612c8757612c8661255c565b5b6000612c95848285016125af565b91505092915050565b6000604082019050612cb360008301856128c8565b612cc06020830184612739565b9392505050565b600060208284031215612cdd57612cdc61255c565b5b600082013567ffffffffffffffff811115612cfb57612cfa612561565b5b612d0784828501612b64565b91505092915050565b60008060008060808587031215612d2a57612d2961255c565b5b6000612d38878288016125af565b9450506020612d49878288016125e5565b9350506040612d5a878288016125e5565b9250506060612d6b878288016125af565b91505092959194509250565b50565b6000612d87600083612753565b9150612d9282612d77565b600082019050919050565b60006020820190508181036000830152612db681612d7a565b9050919050565b7fd09cd0b0d0b3d0b0d0b7d0b8d0bd20d0bdd0b520d181d0bed0bed182d0b2d0b560008201527fd182d181d0b2d183d0b5d18220d0bed182d0bfd180d0b0d0b2d0b8d182d0b5d060208201527fbbd18e0000000000000000000000000000000000000000000000000000000000604082015250565b6000612e3f604383612753565b9150612e4a82612dbd565b606082019050919050565b60006020820190508181036000830152612e6e81612e32565b9050919050565b7f4e487b7100000000000000000000000000000000000000000000000000000000600052602260045260246000fd5b60006002820490506001821680612ebc57607f821691505b602082108103612ecf57612ece612e75565b5b50919050565b60008190508160005260206000209050919050565b60006020601f8301049050919050565b600082821b905092915050565b600060088302612f377fffffffffffffffffffffffffffffffffffffffffffffffffffffffffffffffff82612efa565b612f418683612efa565b95508019841693508086168417925050509392505050565b6000819050919050565b6000612f7e612f79612f74846125c4565b612f59565b6125c4565b9050919050565b6000819050919050565b612f9883612f63565b612fac612fa482612f85565b848454612f07565b825550505050565b600090565b612fc1612fb4565b612fcc818484612f8f565b505050565b5b81811015612ff057612fe5600082612fb9565b600181019050612fd2565b5050565b601f8211156130355761300681612ed5565b61300f84612eea565b8101602085101561301e578190505b61303261302a85612eea565b830182612fd1565b50505b505050565b600082821c905092915050565b60006130586000198460080261303a565b1980831691505092915050565b60006130718383613047565b9150826002028217905092915050565b61308a82612748565b67ffffffffffffffff8111156130a3576130a2612a67565b5b6130ad8254612ea4565b6130b8828285612ff4565b600060209050601f8311600181146130eb57600084156130d9578287015190505b6130e38582613065565b86555061314b565b601f1984166130f986612ed5565b60005b82811015613121578489015182556001820191506020850194506020810190506130fc565b8683101561313e578489015161313a601f891682613047565b8355505b6001600288020188555050505b505050505050565b7f4e487b7100000000000000000000000000000000000000000000000000000000600052603260045260246000fd5b7f4e487b7100000000000000000000000000000000000000000000000000000000600052601160045260246000fd5b60006131bc826125c4565b91506131c7836125c4565b92508282026131d5816125c4565b915082820484148315176131ec576131eb613182565b5b5092915050565b60006131fe826125c4565b9150613209836125c4565b925082820190508082111561322157613220613182565b5b92915050565b6000613232826125c4565b915061323d836125c4565b925082820390508181111561325557613254613182565b5b92915050565b6000613266826125c4565b91507fffffffffffffffffffffffffffffffffffffffffffffffffffffffffffffffff820361329857613297613182565b5b600182019050919050565b6000819050919050565b6132be6132b9826125c4565b6132a3565b82525050565b60008160601b9050919050565b60006132dc826132c4565b9050919050565b60006132ee826132d1565b9050919050565b61330661330182612586565b6132e3565b82525050565b600061331882866132ad565b60208201915061332882856132f5565b60148201915061333882846132ad565b602082019150819050949350505050565b7f4e487b7100000000000000000000000000000000000000000000000000000000600052601260045260246000fd5b6000613383826125c4565b915061338e836125c4565b92508261339e5761339d613349565b5b828206905092915050565b60006133b4826125c4565b91506133bf836125c4565b9250826133cf576133ce613349565b5b828204905092915050565b7f507572636861736520616d6f756e74206d75737420626520677265617465722060008201527f7468616e20300000000000000000000000000000000000000000000000000000602082015250565b6000613436602683612753565b9150613441826133da565b604082019050919050565b6000602082019050818103600083015261346581613429565b9050919050565b7f496e76616c69642070726f647563742049440000000000000000000000000000600082015250565b60006134a2601283612753565b91506134ad8261346c565b602082019050919050565b600060208201905081810360008301526134d181613495565b9050919050565b7f4e6f7420656e6f7567682073746f636b20617661696c61626c65000000000000600082015250565b600061350e601a83612753565b9150613519826134d8565b602082019050919050565b6000602082019050818103600083015261353d81613501565b9050919050565b600081905092915050565b600061355a82612748565b6135648185613544565b9350613574818560208601612764565b80840191505092915050565b600061358c828461354f565b915081905092915050565b7f496e73756666696369656e742066756e64732073656e74000000000000000000600082015250565b60006135cd601783612753565b91506135d882613597565b602082019050919050565b600060208201905081810360008301526135fc816135c0565b9050919050565b600081905092915050565b60008190508160005260206000209050919050565b6000815461363081612ea4565b61363a8186613603565b94506001821660008114613655576001811461366a5761369d565b60ff198316865281151582028601935061369d565b6136738561360e565b60005b8381101561369557815481890152600182019150602081019050613676565b838801955050505b50505092915050565b60006136b28284613623565b91508190509291505056fea26469706673582212203c3ef7421e2fe3619a3a9c5c602d633097dfde11d58963ac0254d50a39aef59b64736f6c63430008120033",
					"opcodes": "PUSH1 0x80 PUSH1 0x40 MSTORE CALLVALUE DUP1 ISZERO PUSH2 0x10 JUMPI PUSH1 0x0 DUP1 REVERT JUMPDEST POP CALLER PUSH1 0x1 PUSH1 0x0 PUSH2 0x100 EXP DUP2 SLOAD DUP2 PUSH20 0xFFFFFFFFFFFFFFFFFFFFFFFFFFFFFFFFFFFFFFFF MUL NOT AND SWAP1 DUP4 PUSH20 0xFFFFFFFFFFFFFFFFFFFFFFFFFFFFFFFFFFFFFFFF AND MUL OR SWAP1 SSTORE POP PUSH2 0x36F3 DUP1 PUSH2 0x61 PUSH1 0x0 CODECOPY PUSH1 0x0 RETURN INVALID PUSH1 0x80 PUSH1 0x40 MSTORE PUSH1 0x4 CALLDATASIZE LT PUSH2 0x114 JUMPI PUSH1 0x0 CALLDATALOAD PUSH1 0xE0 SHR DUP1 PUSH4 0x805553E8 GT PUSH2 0xA0 JUMPI DUP1 PUSH4 0xA87430BA GT PUSH2 0x64 JUMPI DUP1 PUSH4 0xA87430BA EQ PUSH2 0x37C JUMPI DUP1 PUSH4 0xD18A524A EQ PUSH2 0x3BA JUMPI DUP1 PUSH4 0xD55768DD EQ PUSH2 0x3D1 JUMPI DUP1 PUSH4 0xF67A2AD1 EQ PUSH2 0x40E JUMPI DUP1 PUSH4 0xFECD8F79 EQ PUSH2 0x437 JUMPI PUSH2 0x114 JUMP JUMPDEST DUP1 PUSH4 0x805553E8 EQ PUSH2 0x2A6 JUMPI DUP1 PUSH4 0x861C2B6D EQ PUSH2 0x2E3 JUMPI DUP1 PUSH4 0x8DA5CB5B EQ PUSH2 0x30C JUMPI DUP1 PUSH4 0x9F1CD587 EQ PUSH2 0x337 JUMPI DUP1 PUSH4 0xA1BA90B6 EQ PUSH2 0x353 JUMPI PUSH2 0x114 JUMP JUMPDEST DUP1 PUSH4 0x50B44712 GT PUSH2 0xE7 JUMPI DUP1 PUSH4 0x50B44712 EQ PUSH2 0x1C2 JUMPI DUP1 PUSH4 0x55DEA0B3 EQ PUSH2 0x200 JUMPI DUP1 PUSH4 0x5CD58A90 EQ PUSH2 0x229 JUMPI DUP1 PUSH4 0x66D0DC67 EQ PUSH2 0x266 JUMPI DUP1 PUSH4 0x6F764708 EQ PUSH2 0x27D JUMPI PUSH2 0x114 JUMP JUMPDEST DUP1 PUSH4 0x3194133 EQ PUSH2 0x119 JUMPI DUP1 PUSH4 0x3D527883 EQ PUSH2 0x142 JUMPI DUP1 PUSH4 0x3DFE7DEE EQ PUSH2 0x182 JUMPI DUP1 PUSH4 0x410085DF EQ PUSH2 0x199 JUMPI JUMPDEST PUSH1 0x0 DUP1 REVERT JUMPDEST CALLVALUE DUP1 ISZERO PUSH2 0x125 JUMPI PUSH1 0x0 DUP1 REVERT JUMPDEST POP PUSH2 0x140 PUSH1 0x4 DUP1 CALLDATASIZE SUB DUP2 ADD SWAP1 PUSH2 0x13B SWAP2 SWAP1 PUSH2 0x265F JUMP JUMPDEST PUSH2 0x453 JUMP JUMPDEST STOP JUMPDEST CALLVALUE DUP1 ISZERO PUSH2 0x14E JUMPI PUSH1 0x0 DUP1 REVERT JUMPDEST POP PUSH2 0x169 PUSH1 0x4 DUP1 CALLDATASIZE SUB DUP2 ADD SWAP1 PUSH2 0x164 SWAP2 SWAP1 PUSH2 0x26F9 JUMP JUMPDEST PUSH2 0x68C JUMP JUMPDEST PUSH1 0x40 MLOAD PUSH2 0x179 SWAP5 SWAP4 SWAP3 SWAP2 SWAP1 PUSH2 0x27D8 JUMP JUMPDEST PUSH1 0x40 MLOAD DUP1 SWAP2 SUB SWAP1 RETURN JUMPDEST CALLVALUE DUP1 ISZERO PUSH2 0x18E JUMPI PUSH1 0x0 DUP1 REVERT JUMPDEST POP PUSH2 0x197 PUSH2 0x761 JUMP JUMPDEST STOP JUMPDEST CALLVALUE DUP1 ISZERO PUSH2 0x1A5 JUMPI PUSH1 0x0 DUP1 REVERT JUMPDEST POP PUSH2 0x1C0 PUSH1 0x4 DUP1 CALLDATASIZE SUB DUP2 ADD SWAP1 PUSH2 0x1BB SWAP2 SWAP1 PUSH2 0x26F9 JUMP JUMPDEST PUSH2 0x807 JUMP JUMPDEST STOP JUMPDEST CALLVALUE DUP1 ISZERO PUSH2 0x1CE JUMPI PUSH1 0x0 DUP1 REVERT JUMPDEST POP PUSH2 0x1E9 PUSH1 0x4 DUP1 CALLDATASIZE SUB DUP2 ADD SWAP1 PUSH2 0x1E4 SWAP2 SWAP1 PUSH2 0x2824 JUMP JUMPDEST PUSH2 0xBD4 JUMP JUMPDEST PUSH1 0x40 MLOAD PUSH2 0x1F7 SWAP3 SWAP2 SWAP1 PUSH2 0x28D7 JUMP JUMPDEST PUSH1 0x40 MLOAD DUP1 SWAP2 SUB SWAP1 RETURN JUMPDEST CALLVALUE DUP1 ISZERO PUSH2 0x20C JUMPI PUSH1 0x0 DUP1 REVERT JUMPDEST POP PUSH2 0x227 PUSH1 0x4 DUP1 CALLDATASIZE SUB DUP2 ADD SWAP1 PUSH2 0x222 SWAP2 SWAP1 PUSH2 0x2925 JUMP JUMPDEST PUSH2 0xC31 JUMP JUMPDEST STOP JUMPDEST CALLVALUE DUP1 ISZERO PUSH2 0x235 JUMPI PUSH1 0x0 DUP1 REVERT JUMPDEST POP PUSH2 0x250 PUSH1 0x4 DUP1 CALLDATASIZE SUB DUP2 ADD SWAP1 PUSH2 0x24B SWAP2 SWAP1 PUSH2 0x2952 JUMP JUMPDEST PUSH2 0xD11 JUMP JUMPDEST PUSH1 0x40 MLOAD PUSH2 0x25D SWAP2 SWAP1 PUSH2 0x2992 JUMP JUMPDEST PUSH1 0x40 MLOAD DUP1 SWAP2 SUB SWAP1 RETURN JUMPDEST CALLVALUE DUP1 ISZERO PUSH2 0x272 JUMPI PUSH1 0x0 DUP1 REVERT JUMPDEST POP PUSH2 0x27B PUSH2 0xD7E JUMP JUMPDEST STOP JUMPDEST CALLVALUE DUP1 ISZERO PUSH2 0x289 JUMPI PUSH1 0x0 DUP1 REVERT JUMPDEST POP PUSH2 0x2A4 PUSH1 0x4 DUP1 CALLDATASIZE SUB DUP2 ADD SWAP1 PUSH2 0x29F SWAP2 SWAP1 PUSH2 0x2824 JUMP JUMPDEST PUSH2 0xE25 JUMP JUMPDEST STOP JUMPDEST CALLVALUE DUP1 ISZERO PUSH2 0x2B2 JUMPI PUSH1 0x0 DUP1 REVERT JUMPDEST POP PUSH2 0x2CD PUSH1 0x4 DUP1 CALLDATASIZE SUB DUP2 ADD SWAP1 PUSH2 0x2C8 SWAP2 SWAP1 PUSH2 0x2824 JUMP JUMPDEST PUSH2 0xF65 JUMP JUMPDEST PUSH1 0x40 MLOAD PUSH2 0x2DA SWAP2 SWAP1 PUSH2 0x2992 JUMP JUMPDEST PUSH1 0x40 MLOAD DUP1 SWAP2 SUB SWAP1 RETURN JUMPDEST CALLVALUE DUP1 ISZERO PUSH2 0x2EF JUMPI PUSH1 0x0 DUP1 REVERT JUMPDEST POP PUSH2 0x30A PUSH1 0x4 DUP1 CALLDATASIZE SUB DUP2 ADD SWAP1 PUSH2 0x305 SWAP2 SWAP1 PUSH2 0x29AD JUMP JUMPDEST PUSH2 0xFB7 JUMP JUMPDEST STOP JUMPDEST CALLVALUE DUP1 ISZERO PUSH2 0x318 JUMPI PUSH1 0x0 DUP1 REVERT JUMPDEST POP PUSH2 0x321 PUSH2 0x11FC JUMP JUMPDEST PUSH1 0x40 MLOAD PUSH2 0x32E SWAP2 SWAP1 PUSH2 0x2A47 JUMP JUMPDEST PUSH1 0x40 MLOAD DUP1 SWAP2 SUB SWAP1 RETURN JUMPDEST PUSH2 0x351 PUSH1 0x4 DUP1 CALLDATASIZE SUB DUP2 ADD SWAP1 PUSH2 0x34C SWAP2 SWAP1 PUSH2 0x2B92 JUMP JUMPDEST PUSH2 0x1222 JUMP JUMPDEST STOP JUMPDEST CALLVALUE DUP1 ISZERO PUSH2 0x35F JUMPI PUSH1 0x0 DUP1 REVERT JUMPDEST POP PUSH2 0x37A PUSH1 0x4 DUP1 CALLDATASIZE SUB DUP2 ADD SWAP1 PUSH2 0x375 SWAP2 SWAP1 PUSH2 0x2C15 JUMP JUMPDEST PUSH2 0x1B83 JUMP JUMPDEST STOP JUMPDEST CALLVALUE DUP1 ISZERO PUSH2 0x388 JUMPI PUSH1 0x0 DUP1 REVERT JUMPDEST POP PUSH2 0x3A3 PUSH1 0x4 DUP1 CALLDATASIZE SUB DUP2 ADD SWAP1 PUSH2 0x39E SWAP2 SWAP1 PUSH2 0x2C71 JUMP JUMPDEST PUSH2 0x1C1C JUMP JUMPDEST PUSH1 0x40 MLOAD PUSH2 0x3B1 SWAP3 SWAP2 SWAP1 PUSH2 0x2C9E JUMP JUMPDEST PUSH1 0x40 MLOAD DUP1 SWAP2 SUB SWAP1 RETURN JUMPDEST CALLVALUE DUP1 ISZERO PUSH2 0x3C6 JUMPI PUSH1 0x0 DUP1 REVERT JUMPDEST POP PUSH2 0x3CF PUSH2 0x1C4D JUMP JUMPDEST STOP JUMPDEST CALLVALUE DUP1 ISZERO PUSH2 0x3DD JUMPI PUSH1 0x0 DUP1 REVERT JUMPDEST POP PUSH2 0x3F8 PUSH1 0x4 DUP1 CALLDATASIZE SUB DUP2 ADD SWAP1 PUSH2 0x3F3 SWAP2 SWAP1 PUSH2 0x2CC7 JUMP JUMPDEST PUSH2 0x1CF4 JUMP JUMPDEST PUSH1 0x40 MLOAD PUSH2 0x405 SWAP2 SWAP1 PUSH2 0x2A47 JUMP JUMPDEST PUSH1 0x40 MLOAD DUP1 SWAP2 SUB SWAP1 RETURN JUMPDEST CALLVALUE DUP1 ISZERO PUSH2 0x41A JUMPI PUSH1 0x0 DUP1 REVERT JUMPDEST POP PUSH2 0x435 PUSH1 0x4 DUP1 CALLDATASIZE SUB DUP2 ADD SWAP1 PUSH2 0x430 SWAP2 SWAP1 PUSH2 0x2C71 JUMP JUMPDEST PUSH2 0x1D3D JUMP JUMPDEST STOP JUMPDEST PUSH2 0x451 PUSH1 0x4 DUP1 CALLDATASIZE SUB DUP2 ADD SWAP1 PUSH2 0x44C SWAP2 SWAP1 PUSH2 0x2D10 JUMP JUMPDEST PUSH2 0x1DCF JUMP JUMPDEST STOP JUMPDEST PUSH1 0x1 DUP7 DUP2 PUSH1 0x2 DUP2 GT ISZERO PUSH2 0x469 JUMPI PUSH2 0x468 PUSH2 0x2860 JUMP JUMPDEST JUMPDEST PUSH1 0x2 PUSH1 0x0 CALLER PUSH20 0xFFFFFFFFFFFFFFFFFFFFFFFFFFFFFFFFFFFFFFFF AND PUSH20 0xFFFFFFFFFFFFFFFFFFFFFFFFFFFFFFFFFFFFFFFF AND DUP2 MSTORE PUSH1 0x20 ADD SWAP1 DUP2 MSTORE PUSH1 0x20 ADD PUSH1 0x0 KECCAK256 PUSH1 0x0 ADD PUSH1 0x0 SWAP1 SLOAD SWAP1 PUSH2 0x100 EXP SWAP1 DIV PUSH1 0xFF AND PUSH1 0x2 DUP2 GT ISZERO PUSH2 0x4CB JUMPI PUSH2 0x4CA PUSH2 0x2860 JUMP JUMPDEST JUMPDEST EQ PUSH2 0x50B JUMPI PUSH1 0x40 MLOAD PUSH32 0x8C379A000000000000000000000000000000000000000000000000000000000 DUP2 MSTORE PUSH1 0x4 ADD PUSH2 0x502 SWAP1 PUSH2 0x2D9D JUMP JUMPDEST PUSH1 0x40 MLOAD DUP1 SWAP2 SUB SWAP1 REVERT JUMPDEST DUP1 PUSH20 0xFFFFFFFFFFFFFFFFFFFFFFFFFFFFFFFFFFFFFFFF AND CALLER PUSH20 0xFFFFFFFFFFFFFFFFFFFFFFFFFFFFFFFFFFFFFFFF AND EQ PUSH2 0x579 JUMPI PUSH1 0x40 MLOAD PUSH32 0x8C379A000000000000000000000000000000000000000000000000000000000 DUP2 MSTORE PUSH1 0x4 ADD PUSH2 0x570 SWAP1 PUSH2 0x2E55 JUMP JUMPDEST PUSH1 0x40 MLOAD DUP1 SWAP2 SUB SWAP1 REVERT JUMPDEST PUSH1 0x0 PUSH1 0x40 MLOAD DUP1 PUSH1 0x80 ADD PUSH1 0x40 MSTORE DUP1 DUP10 DUP2 MSTORE PUSH1 0x20 ADD DUP9 DUP2 MSTORE PUSH1 0x20 ADD DUP8 DUP8 DUP1 DUP1 PUSH1 0x1F ADD PUSH1 0x20 DUP1 SWAP2 DIV MUL PUSH1 0x20 ADD PUSH1 0x40 MLOAD SWAP1 DUP2 ADD PUSH1 0x40 MSTORE DUP1 SWAP4 SWAP3 SWAP2 SWAP1 DUP2 DUP2 MSTORE PUSH1 0x20 ADD DUP4 DUP4 DUP1 DUP3 DUP5 CALLDATACOPY PUSH1 0x0 DUP2 DUP5 ADD MSTORE PUSH1 0x1F NOT PUSH1 0x1F DUP3 ADD AND SWAP1 POP DUP1 DUP4 ADD SWAP3 POP POP POP POP POP POP POP DUP2 MSTORE PUSH1 0x20 ADD DUP6 DUP2 MSTORE POP SWAP1 POP PUSH1 0x3 PUSH1 0x0 DUP11 PUSH20 0xFFFFFFFFFFFFFFFFFFFFFFFFFFFFFFFFFFFFFFFF AND PUSH20 0xFFFFFFFFFFFFFFFFFFFFFFFFFFFFFFFFFFFFFFFF AND DUP2 MSTORE PUSH1 0x20 ADD SWAP1 DUP2 MSTORE PUSH1 0x20 ADD PUSH1 0x0 KECCAK256 DUP2 SWAP1 DUP1 PUSH1 0x1 DUP2 SLOAD ADD DUP1 DUP3 SSTORE DUP1 SWAP2 POP POP PUSH1 0x1 SWAP1 SUB SWAP1 PUSH1 0x0 MSTORE PUSH1 0x20 PUSH1 0x0 KECCAK256 SWAP1 PUSH1 0x4 MUL ADD PUSH1 0x0 SWAP1 SWAP2 SWAP1 SWAP2 SWAP1 SWAP2 POP PUSH1 0x0 DUP3 ADD MLOAD DUP2 PUSH1 0x0 ADD SSTORE PUSH1 0x20 DUP3 ADD MLOAD DUP2 PUSH1 0x1 ADD SSTORE PUSH1 0x40 DUP3 ADD MLOAD DUP2 PUSH1 0x2 ADD SWAP1 DUP2 PUSH2 0x674 SWAP2 SWAP1 PUSH2 0x3081 JUMP JUMPDEST POP PUSH1 0x60 DUP3 ADD MLOAD DUP2 PUSH1 0x3 ADD SSTORE POP POP POP POP POP POP POP POP POP POP POP JUMP JUMPDEST PUSH1 0x3 PUSH1 0x20 MSTORE DUP2 PUSH1 0x0 MSTORE PUSH1 0x40 PUSH1 0x0 KECCAK256 DUP2 DUP2 SLOAD DUP2 LT PUSH2 0x6A8 JUMPI PUSH1 0x0 DUP1 REVERT JUMPDEST SWAP1 PUSH1 0x0 MSTORE PUSH1 0x20 PUSH1 0x0 KECCAK256 SWAP1 PUSH1 0x4 MUL ADD PUSH1 0x0 SWAP2 POP SWAP2 POP POP DUP1 PUSH1 0x0 ADD SLOAD SWAP1 DUP1 PUSH1 0x1 ADD SLOAD SWAP1 DUP1 PUSH1 0x2 ADD DUP1 SLOAD PUSH2 0x6D8 SWAP1 PUSH2 0x2EA4 JUMP JUMPDEST DUP1 PUSH1 0x1F ADD PUSH1 0x20 DUP1 SWAP2 DIV MUL PUSH1 0x20 ADD PUSH1 0x40 MLOAD SWAP1 DUP2 ADD PUSH1 0x40 MSTORE DUP1 SWAP3 SWAP2 SWAP1 DUP2 DUP2 MSTORE PUSH1 0x20 ADD DUP3 DUP1 SLOAD PUSH2 0x704 SWAP1 PUSH2 0x2EA4 JUMP JUMPDEST DUP1 ISZERO PUSH2 0x751 JUMPI DUP1 PUSH1 0x1F LT PUSH2 0x726 JUMPI PUSH2 0x100 DUP1 DUP4 SLOAD DIV MUL DUP4 MSTORE SWAP2 PUSH1 0x20 ADD SWAP2 PUSH2 0x751 JUMP JUMPDEST DUP3 ADD SWAP2 SWAP1 PUSH1 0x0 MSTORE PUSH1 0x20 PUSH1 0x0 KECCAK256 SWAP1 JUMPDEST DUP2 SLOAD DUP2 MSTORE SWAP1 PUSH1 0x1 ADD SWAP1 PUSH1 0x20 ADD DUP1 DUP4 GT PUSH2 0x734 JUMPI DUP3 SWAP1 SUB PUSH1 0x1F AND DUP3 ADD SWAP2 JUMPDEST POP POP POP POP POP SWAP1 DUP1 PUSH1 0x3 ADD SLOAD SWAP1 POP DUP5 JUMP JUMPDEST PUSH1 0x40 MLOAD DUP1 PUSH1 0x40 ADD PUSH1 0x40 MSTORE DUP1 PUSH1 0x2 DUP1 DUP2 GT ISZERO PUSH2 0x77F JUMPI PUSH2 0x77E PUSH2 0x2860 JUMP JUMPDEST JUMPDEST DUP2 MSTORE PUSH1 0x20 ADD PUSH1 0x0 DUP2 MSTORE POP PUSH1 0x2 PUSH1 0x0 CALLER PUSH20 0xFFFFFFFFFFFFFFFFFFFFFFFFFFFFFFFFFFFFFFFF AND PUSH20 0xFFFFFFFFFFFFFFFFFFFFFFFFFFFFFFFFFFFFFFFF AND DUP2 MSTORE PUSH1 0x20 ADD SWAP1 DUP2 MSTORE PUSH1 0x20 ADD PUSH1 0x0 KECCAK256 PUSH1 0x0 DUP3 ADD MLOAD DUP2 PUSH1 0x0 ADD PUSH1 0x0 PUSH2 0x100 EXP DUP2 SLOAD DUP2 PUSH1 0xFF MUL NOT AND SWAP1 DUP4 PUSH1 0x2 DUP2 GT ISZERO PUSH2 0x7F3 JUMPI PUSH2 0x7F2 PUSH2 0x2860 JUMP JUMPDEST JUMPDEST MUL OR SWAP1 SSTORE POP PUSH1 0x20 DUP3 ADD MLOAD DUP2 PUSH1 0x1 ADD SSTORE SWAP1 POP POP JUMP JUMPDEST PUSH1 0x0 PUSH1 0x3 PUSH1 0x0 CALLER PUSH20 0xFFFFFFFFFFFFFFFFFFFFFFFFFFFFFFFFFFFFFFFF AND PUSH20 0xFFFFFFFFFFFFFFFFFFFFFFFFFFFFFFFFFFFFFFFF AND DUP2 MSTORE PUSH1 0x20 ADD SWAP1 DUP2 MSTORE PUSH1 0x20 ADD PUSH1 0x0 KECCAK256 DUP3 DUP2 SLOAD DUP2 LT PUSH2 0x85A JUMPI PUSH2 0x859 PUSH2 0x3153 JUMP JUMPDEST JUMPDEST SWAP1 PUSH1 0x0 MSTORE PUSH1 0x20 PUSH1 0x0 KECCAK256 SWAP1 PUSH1 0x4 MUL ADD PUSH1 0x3 ADD SLOAD SWAP1 POP PUSH1 0x0 PUSH1 0x3 PUSH1 0x0 DUP6 PUSH20 0xFFFFFFFFFFFFFFFFFFFFFFFFFFFFFFFFFFFFFFFF AND PUSH20 0xFFFFFFFFFFFFFFFFFFFFFFFFFFFFFFFFFFFFFFFF AND DUP2 MSTORE PUSH1 0x20 ADD SWAP1 DUP2 MSTORE PUSH1 0x20 ADD PUSH1 0x0 KECCAK256 DUP4 DUP2 SLOAD DUP2 LT PUSH2 0x8C1 JUMPI PUSH2 0x8C0 PUSH2 0x3153 JUMP JUMPDEST JUMPDEST SWAP1 PUSH1 0x0 MSTORE PUSH1 0x20 PUSH1 0x0 KECCAK256 SWAP1 PUSH1 0x4 MUL ADD PUSH1 0x3 ADD SLOAD SWAP1 POP DUP1 DUP3 GT PUSH2 0x8E1 JUMPI PUSH1 0x0 DUP1 REVERT JUMPDEST PUSH1 0x0 PUSH8 0xDE0B6B3A7640000 PUSH1 0x3 PUSH1 0x0 DUP8 PUSH20 0xFFFFFFFFFFFFFFFFFFFFFFFFFFFFFFFFFFFFFFFF AND PUSH20 0xFFFFFFFFFFFFFFFFFFFFFFFFFFFFFFFFFFFFFFFF AND DUP2 MSTORE PUSH1 0x20 ADD SWAP1 DUP2 MSTORE PUSH1 0x20 ADD PUSH1 0x0 KECCAK256 DUP6 DUP2 SLOAD DUP2 LT PUSH2 0x93D JUMPI PUSH2 0x93C PUSH2 0x3153 JUMP JUMPDEST JUMPDEST SWAP1 PUSH1 0x0 MSTORE PUSH1 0x20 PUSH1 0x0 KECCAK256 SWAP1 PUSH1 0x4 MUL ADD PUSH1 0x1 ADD SLOAD PUSH1 0x3 PUSH1 0x0 CALLER PUSH20 0xFFFFFFFFFFFFFFFFFFFFFFFFFFFFFFFFFFFFFFFF AND PUSH20 0xFFFFFFFFFFFFFFFFFFFFFFFFFFFFFFFFFFFFFFFF AND DUP2 MSTORE PUSH1 0x20 ADD SWAP1 DUP2 MSTORE PUSH1 0x20 ADD PUSH1 0x0 KECCAK256 DUP7 DUP2 SLOAD DUP2 LT PUSH2 0x9A0 JUMPI PUSH2 0x99F PUSH2 0x3153 JUMP JUMPDEST JUMPDEST SWAP1 PUSH1 0x0 MSTORE PUSH1 0x20 PUSH1 0x0 KECCAK256 SWAP1 PUSH1 0x4 MUL ADD PUSH1 0x0 ADD SLOAD PUSH2 0x9BC SWAP2 SWAP1 PUSH2 0x31B1 JUMP JUMPDEST PUSH2 0x9C6 SWAP2 SWAP1 PUSH2 0x31B1 JUMP JUMPDEST SWAP1 POP PUSH1 0x3 PUSH1 0x0 CALLER PUSH20 0xFFFFFFFFFFFFFFFFFFFFFFFFFFFFFFFFFFFFFFFF AND PUSH20 0xFFFFFFFFFFFFFFFFFFFFFFFFFFFFFFFFFFFFFFFF AND DUP2 MSTORE PUSH1 0x20 ADD SWAP1 DUP2 MSTORE PUSH1 0x20 ADD PUSH1 0x0 KECCAK256 DUP5 DUP2 SLOAD DUP2 LT PUSH2 0xA19 JUMPI PUSH2 0xA18 PUSH2 0x3153 JUMP JUMPDEST JUMPDEST SWAP1 PUSH1 0x0 MSTORE PUSH1 0x20 PUSH1 0x0 KECCAK256 SWAP1 PUSH1 0x4 MUL ADD PUSH1 0x0 ADD SLOAD PUSH1 0x3 PUSH1 0x0 DUP8 PUSH20 0xFFFFFFFFFFFFFFFFFFFFFFFFFFFFFFFFFFFFFFFF AND PUSH20 0xFFFFFFFFFFFFFFFFFFFFFFFFFFFFFFFFFFFFFFFF AND DUP2 MSTORE PUSH1 0x20 ADD SWAP1 DUP2 MSTORE PUSH1 0x20 ADD PUSH1 0x0 KECCAK256 DUP6 DUP2 SLOAD DUP2 LT PUSH2 0xA7C JUMPI PUSH2 0xA7B PUSH2 0x3153 JUMP JUMPDEST JUMPDEST SWAP1 PUSH1 0x0 MSTORE PUSH1 0x20 PUSH1 0x0 KECCAK256 SWAP1 PUSH1 0x4 MUL ADD PUSH1 0x0 ADD PUSH1 0x0 DUP3 DUP3 SLOAD PUSH2 0xA9C SWAP2 SWAP1 PUSH2 0x31F3 JUMP JUMPDEST SWAP3 POP POP DUP2 SWAP1 SSTORE POP PUSH1 0x3 PUSH1 0x0 CALLER PUSH20 0xFFFFFFFFFFFFFFFFFFFFFFFFFFFFFFFFFFFFFFFF AND PUSH20 0xFFFFFFFFFFFFFFFFFFFFFFFFFFFFFFFFFFFFFFFF AND DUP2 MSTORE PUSH1 0x20 ADD SWAP1 DUP2 MSTORE PUSH1 0x20 ADD PUSH1 0x0 KECCAK256 DUP5 DUP2 SLOAD DUP2 LT PUSH2 0xAF4 JUMPI PUSH2 0xAF3 PUSH2 0x3153 JUMP JUMPDEST JUMPDEST SWAP1 PUSH1 0x0 MSTORE PUSH1 0x20 PUSH1 0x0 KECCAK256 SWAP1 PUSH1 0x4 MUL ADD PUSH1 0x0 DUP1 DUP3 ADD PUSH1 0x0 SWAP1 SSTORE PUSH1 0x1 DUP3 ADD PUSH1 0x0 SWAP1 SSTORE PUSH1 0x2 DUP3 ADD PUSH1 0x0 PUSH2 0xB23 SWAP2 SWAP1 PUSH2 0x24F5 JUMP JUMPDEST PUSH1 0x3 DUP3 ADD PUSH1 0x0 SWAP1 SSTORE POP POP DUP1 PUSH1 0x2 PUSH1 0x0 DUP8 PUSH20 0xFFFFFFFFFFFFFFFFFFFFFFFFFFFFFFFFFFFFFFFF AND PUSH20 0xFFFFFFFFFFFFFFFFFFFFFFFFFFFFFFFFFFFFFFFF AND DUP2 MSTORE PUSH1 0x20 ADD SWAP1 DUP2 MSTORE PUSH1 0x20 ADD PUSH1 0x0 KECCAK256 PUSH1 0x1 ADD PUSH1 0x0 DUP3 DUP3 SLOAD PUSH2 0xB7F SWAP2 SWAP1 PUSH2 0x3227 JUMP JUMPDEST SWAP3 POP POP DUP2 SWAP1 SSTORE POP CALLER PUSH20 0xFFFFFFFFFFFFFFFFFFFFFFFFFFFFFFFFFFFFFFFF AND PUSH2 0x8FC DUP3 SWAP1 DUP2 ISZERO MUL SWAP1 PUSH1 0x40 MLOAD PUSH1 0x0 PUSH1 0x40 MLOAD DUP1 DUP4 SUB DUP2 DUP6 DUP9 DUP9 CALL SWAP4 POP POP POP POP ISZERO DUP1 ISZERO PUSH2 0xBCC JUMPI RETURNDATASIZE PUSH1 0x0 DUP1 RETURNDATACOPY RETURNDATASIZE PUSH1 0x0 REVERT JUMPDEST POP POP POP POP POP POP JUMP JUMPDEST PUSH1 0x0 DUP2 DUP2 SLOAD DUP2 LT PUSH2 0xBE4 JUMPI PUSH1 0x0 DUP1 REVERT JUMPDEST SWAP1 PUSH1 0x0 MSTORE PUSH1 0x20 PUSH1 0x0 KECCAK256 ADD PUSH1 0x0 SWAP2 POP SWAP1 POP DUP1 PUSH1 0x0 ADD PUSH1 0x0 SWAP1 SLOAD SWAP1 PUSH2 0x100 EXP SWAP1 DIV PUSH20 0xFFFFFFFFFFFFFFFFFFFFFFFFFFFFFFFFFFFFFFFF AND SWAP1 DUP1 PUSH1 0x0 ADD PUSH1 0x14 SWAP1 SLOAD SWAP1 PUSH2 0x100 EXP SWAP1 DIV PUSH1 0xFF AND SWAP1 POP DUP3 JUMP JUMPDEST PUSH1 0x0 PUSH1 0x40 MLOAD DUP1 PUSH1 0x40 ADD PUSH1 0x40 MSTORE DUP1 CALLER PUSH20 0xFFFFFFFFFFFFFFFFFFFFFFFFFFFFFFFFFFFFFFFF AND DUP2 MSTORE PUSH1 0x20 ADD DUP4 PUSH1 0x2 DUP2 GT ISZERO PUSH2 0xC6D JUMPI PUSH2 0xC6C PUSH2 0x2860 JUMP JUMPDEST JUMPDEST DUP2 MSTORE POP SWAP1 DUP1 PUSH1 0x1 DUP2 SLOAD ADD DUP1 DUP3 SSTORE DUP1 SWAP2 POP POP PUSH1 0x1 SWAP1 SUB SWAP1 PUSH1 0x0 MSTORE PUSH1 0x20 PUSH1 0x0 KECCAK256 ADD PUSH1 0x0 SWAP1 SWAP2 SWAP1 SWAP2 SWAP1 SWAP2 POP PUSH1 0x0 DUP3 ADD MLOAD DUP2 PUSH1 0x0 ADD PUSH1 0x0 PUSH2 0x100 EXP DUP2 SLOAD DUP2 PUSH20 0xFFFFFFFFFFFFFFFFFFFFFFFFFFFFFFFFFFFFFFFF MUL NOT AND SWAP1 DUP4 PUSH20 0xFFFFFFFFFFFFFFFFFFFFFFFFFFFFFFFFFFFFFFFF AND MUL OR SWAP1 SSTORE POP PUSH1 0x20 DUP3 ADD MLOAD DUP2 PUSH1 0x0 ADD PUSH1 0x14 PUSH2 0x100 EXP DUP2 SLOAD DUP2 PUSH1 0xFF MUL NOT AND SWAP1 DUP4 PUSH1 0x2 DUP2 GT ISZERO PUSH2 0xD07 JUMPI PUSH2 0xD06 PUSH2 0x2860 JUMP JUMPDEST JUMPDEST MUL OR SWAP1 SSTORE POP POP POP POP JUMP JUMPDEST PUSH1 0x0 PUSH1 0x3 PUSH1 0x0 DUP4 PUSH20 0xFFFFFFFFFFFFFFFFFFFFFFFFFFFFFFFFFFFFFFFF AND PUSH20 0xFFFFFFFFFFFFFFFFFFFFFFFFFFFFFFFFFFFFFFFF AND DUP2 MSTORE PUSH1 0x20 ADD SWAP1 DUP2 MSTORE PUSH1 0x20 ADD PUSH1 0x0 KECCAK256 DUP4 DUP2 SLOAD DUP2 LT PUSH2 0xD64 JUMPI PUSH2 0xD63 PUSH2 0x3153 JUMP JUMPDEST JUMPDEST SWAP1 PUSH1 0x0 MSTORE PUSH1 0x20 PUSH1 0x0 KECCAK256 SWAP1 PUSH1 0x4 MUL ADD PUSH1 0x0 ADD SLOAD SWAP1 POP SWAP3 SWAP2 POP POP JUMP JUMPDEST PUSH1 0x40 MLOAD DUP1 PUSH1 0x40 ADD PUSH1 0x40 MSTORE DUP1 PUSH1 0x1 PUSH1 0x2 DUP2 GT ISZERO PUSH2 0xD9D JUMPI PUSH2 0xD9C PUSH2 0x2860 JUMP JUMPDEST JUMPDEST DUP2 MSTORE PUSH1 0x20 ADD PUSH1 0x0 DUP2 MSTORE POP PUSH1 0x2 PUSH1 0x0 CALLER PUSH20 0xFFFFFFFFFFFFFFFFFFFFFFFFFFFFFFFFFFFFFFFF AND PUSH20 0xFFFFFFFFFFFFFFFFFFFFFFFFFFFFFFFFFFFFFFFF AND DUP2 MSTORE PUSH1 0x20 ADD SWAP1 DUP2 MSTORE PUSH1 0x20 ADD PUSH1 0x0 KECCAK256 PUSH1 0x0 DUP3 ADD MLOAD DUP2 PUSH1 0x0 ADD PUSH1 0x0 PUSH2 0x100 EXP DUP2 SLOAD DUP2 PUSH1 0xFF MUL NOT AND SWAP1 DUP4 PUSH1 0x2 DUP2 GT ISZERO PUSH2 0xE11 JUMPI PUSH2 0xE10 PUSH2 0x2860 JUMP JUMPDEST JUMPDEST MUL OR SWAP1 SSTORE POP PUSH1 0x20 DUP3 ADD MLOAD DUP2 PUSH1 0x1 ADD SSTORE SWAP1 POP POP JUMP JUMPDEST PUSH1 0x1 PUSH1 0x0 SWAP1 SLOAD SWAP1 PUSH2 0x100 EXP SWAP1 DIV PUSH20 0xFFFFFFFFFFFFFFFFFFFFFFFFFFFFFFFFFFFFFFFF AND PUSH20 0xFFFFFFFFFFFFFFFFFFFFFFFFFFFFFFFFFFFFFFFF AND CALLER PUSH20 0xFFFFFFFFFFFFFFFFFFFFFFFFFFFFFFFFFFFFFFFF AND EQ PUSH2 0xE7F JUMPI PUSH1 0x0 DUP1 REVERT JUMPDEST PUSH1 0x0 DUP1 DUP3 DUP2 SLOAD DUP2 LT PUSH2 0xE94 JUMPI PUSH2 0xE93 PUSH2 0x3153 JUMP JUMPDEST JUMPDEST SWAP1 PUSH1 0x0 MSTORE PUSH1 0x20 PUSH1 0x0 KECCAK256 ADD PUSH1 0x0 ADD PUSH1 0x0 SWAP1 SLOAD SWAP1 PUSH2 0x100 EXP SWAP1 DIV PUSH20 0xFFFFFFFFFFFFFFFFFFFFFFFFFFFFFFFFFFFFFFFF AND SWAP1 POP PUSH1 0x0 DUP1 DUP4 DUP2 SLOAD DUP2 LT PUSH2 0xED9 JUMPI PUSH2 0xED8 PUSH2 0x3153 JUMP JUMPDEST JUMPDEST SWAP1 PUSH1 0x0 MSTORE PUSH1 0x20 PUSH1 0x0 KECCAK256 ADD PUSH1 0x0 ADD PUSH1 0x14 SWAP1 SLOAD SWAP1 PUSH2 0x100 EXP SWAP1 DIV PUSH1 0xFF AND SWAP1 POP DUP1 PUSH1 0x2 PUSH1 0x0 DUP5 PUSH20 0xFFFFFFFFFFFFFFFFFFFFFFFFFFFFFFFFFFFFFFFF AND PUSH20 0xFFFFFFFFFFFFFFFFFFFFFFFFFFFFFFFFFFFFFFFF AND DUP2 MSTORE PUSH1 0x20 ADD SWAP1 DUP2 MSTORE PUSH1 0x20 ADD PUSH1 0x0 KECCAK256 PUSH1 0x0 ADD PUSH1 0x0 PUSH2 0x100 EXP DUP2 SLOAD DUP2 PUSH1 0xFF MUL NOT AND SWAP1 DUP4 PUSH1 0x2 DUP2 GT ISZERO PUSH2 0xF5B JUMPI PUSH2 0xF5A PUSH2 0x2860 JUMP JUMPDEST JUMPDEST MUL OR SWAP1 SSTORE POP POP POP POP JUMP JUMPDEST PUSH1 0x0 DUP1 DUP1 DUP1 PUSH2 0xF73 SWAP1 PUSH2 0x325B JUMP JUMPDEST SWAP2 POP POP DUP3 TIMESTAMP CALLER DUP4 PUSH1 0x40 MLOAD PUSH1 0x20 ADD PUSH2 0xF8C SWAP4 SWAP3 SWAP2 SWAP1 PUSH2 0x330C JUMP JUMPDEST PUSH1 0x40 MLOAD PUSH1 0x20 DUP2 DUP4 SUB SUB DUP2 MSTORE SWAP1 PUSH1 0x40 MSTORE DUP1 MLOAD SWAP1 PUSH1 0x20 ADD KECCAK256 PUSH1 0x0 SHR PUSH2 0xFAF SWAP2 SWAP1 PUSH2 0x3378 JUMP JUMPDEST SWAP2 POP POP SWAP2 SWAP1 POP JUMP JUMPDEST PUSH1 0x2 DUP2 DUP2 PUSH1 0x2 DUP2 GT ISZERO PUSH2 0xFCD JUMPI PUSH2 0xFCC PUSH2 0x2860 JUMP JUMPDEST JUMPDEST PUSH1 0x2 PUSH1 0x0 CALLER PUSH20 0xFFFFFFFFFFFFFFFFFFFFFFFFFFFFFFFFFFFFFFFF AND PUSH20 0xFFFFFFFFFFFFFFFFFFFFFFFFFFFFFFFFFFFFFFFF AND DUP2 MSTORE PUSH1 0x20 ADD SWAP1 DUP2 MSTORE PUSH1 0x20 ADD PUSH1 0x0 KECCAK256 PUSH1 0x0 ADD PUSH1 0x0 SWAP1 SLOAD SWAP1 PUSH2 0x100 EXP SWAP1 DIV PUSH1 0xFF AND PUSH1 0x2 DUP2 GT ISZERO PUSH2 0x102F JUMPI PUSH2 0x102E PUSH2 0x2860 JUMP JUMPDEST JUMPDEST EQ PUSH2 0x106F JUMPI PUSH1 0x40 MLOAD PUSH32 0x8C379A000000000000000000000000000000000000000000000000000000000 DUP2 MSTORE PUSH1 0x4 ADD PUSH2 0x1066 SWAP1 PUSH2 0x2D9D JUMP JUMPDEST PUSH1 0x40 MLOAD DUP1 SWAP2 SUB SWAP1 REVERT JUMPDEST DUP1 PUSH20 0xFFFFFFFFFFFFFFFFFFFFFFFFFFFFFFFFFFFFFFFF AND CALLER PUSH20 0xFFFFFFFFFFFFFFFFFFFFFFFFFFFFFFFFFFFFFFFF AND EQ PUSH2 0x10DD JUMPI PUSH1 0x40 MLOAD PUSH32 0x8C379A000000000000000000000000000000000000000000000000000000000 DUP2 MSTORE PUSH1 0x4 ADD PUSH2 0x10D4 SWAP1 PUSH2 0x2E55 JUMP JUMPDEST PUSH1 0x40 MLOAD DUP1 SWAP2 SUB SWAP1 REVERT JUMPDEST PUSH1 0x0 PUSH1 0x40 MLOAD DUP1 PUSH1 0x80 ADD PUSH1 0x40 MSTORE DUP1 DUP11 DUP2 MSTORE PUSH1 0x20 ADD PUSH1 0x2 DUP11 PUSH2 0x10FD SWAP2 SWAP1 PUSH2 0x33A9 JUMP JUMPDEST DUP2 MSTORE PUSH1 0x20 ADD DUP9 DUP9 DUP1 DUP1 PUSH1 0x1F ADD PUSH1 0x20 DUP1 SWAP2 DIV MUL PUSH1 0x20 ADD PUSH1 0x40 MLOAD SWAP1 DUP2 ADD PUSH1 0x40 MSTORE DUP1 SWAP4 SWAP3 SWAP2 SWAP1 DUP2 DUP2 MSTORE PUSH1 0x20 ADD DUP4 DUP4 DUP1 DUP3 DUP5 CALLDATACOPY PUSH1 0x0 DUP2 DUP5 ADD MSTORE PUSH1 0x1F NOT PUSH1 0x1F DUP3 ADD AND SWAP1 POP DUP1 DUP4 ADD SWAP3 POP POP POP POP POP POP POP DUP2 MSTORE PUSH1 0x20 ADD DUP7 DUP2 MSTORE POP SWAP1 POP PUSH1 0x3 PUSH1 0x0 DUP6 PUSH20 0xFFFFFFFFFFFFFFFFFFFFFFFFFFFFFFFFFFFFFFFF AND PUSH20 0xFFFFFFFFFFFFFFFFFFFFFFFFFFFFFFFFFFFFFFFF AND DUP2 MSTORE PUSH1 0x20 ADD SWAP1 DUP2 MSTORE PUSH1 0x20 ADD PUSH1 0x0 KECCAK256 DUP2 SWAP1 DUP1 PUSH1 0x1 DUP2 SLOAD ADD DUP1 DUP3 SSTORE DUP1 SWAP2 POP POP PUSH1 0x1 SWAP1 SUB SWAP1 PUSH1 0x0 MSTORE PUSH1 0x20 PUSH1 0x0 KECCAK256 SWAP1 PUSH1 0x4 MUL ADD PUSH1 0x0 SWAP1 SWAP2 SWAP1 SWAP2 SWAP1 SWAP2 POP PUSH1 0x0 DUP3 ADD MLOAD DUP2 PUSH1 0x0 ADD SSTORE PUSH1 0x20 DUP3 ADD MLOAD DUP2 PUSH1 0x1 ADD SSTORE PUSH1 0x40 DUP3 ADD MLOAD DUP2 PUSH1 0x2 ADD SWAP1 DUP2 PUSH2 0x11E4 SWAP2 SWAP1 PUSH2 0x3081 JUMP JUMPDEST POP PUSH1 0x60 DUP3 ADD MLOAD DUP2 PUSH1 0x3 ADD SSTORE POP POP POP POP POP POP POP POP POP POP POP JUMP JUMPDEST PUSH1 0x1 PUSH1 0x0 SWAP1 SLOAD SWAP1 PUSH2 0x100 EXP SWAP1 DIV PUSH20 0xFFFFFFFFFFFFFFFFFFFFFFFFFFFFFFFFFFFFFFFF AND DUP2 JUMP JUMPDEST PUSH1 0x0 PUSH1 0x2 DUP2 GT ISZERO PUSH2 0x1236 JUMPI PUSH2 0x1235 PUSH2 0x2860 JUMP JUMPDEST JUMPDEST PUSH1 0x2 PUSH1 0x0 CALLER PUSH20 0xFFFFFFFFFFFFFFFFFFFFFFFFFFFFFFFFFFFFFFFF AND PUSH20 0xFFFFFFFFFFFFFFFFFFFFFFFFFFFFFFFFFFFFFFFF AND DUP2 MSTORE PUSH1 0x20 ADD SWAP1 DUP2 MSTORE PUSH1 0x20 ADD PUSH1 0x0 KECCAK256 PUSH1 0x0 ADD PUSH1 0x0 SWAP1 SLOAD SWAP1 PUSH2 0x100 EXP SWAP1 DIV PUSH1 0xFF AND PUSH1 0x2 DUP2 GT ISZERO PUSH2 0x1298 JUMPI PUSH2 0x1297 PUSH2 0x2860 JUMP JUMPDEST JUMPDEST SUB PUSH2 0x1343 JUMPI PUSH1 0x40 MLOAD DUP1 PUSH1 0x40 ADD PUSH1 0x40 MSTORE DUP1 PUSH1 0x0 PUSH1 0x2 DUP2 GT ISZERO PUSH2 0x12BC JUMPI PUSH2 0x12BB PUSH2 0x2860 JUMP JUMPDEST JUMPDEST DUP2 MSTORE PUSH1 0x20 ADD PUSH1 0x0 DUP2 MSTORE POP PUSH1 0x2 PUSH1 0x0 CALLER PUSH20 0xFFFFFFFFFFFFFFFFFFFFFFFFFFFFFFFFFFFFFFFF AND PUSH20 0xFFFFFFFFFFFFFFFFFFFFFFFFFFFFFFFFFFFFFFFF AND DUP2 MSTORE PUSH1 0x20 ADD SWAP1 DUP2 MSTORE PUSH1 0x20 ADD PUSH1 0x0 KECCAK256 PUSH1 0x0 DUP3 ADD MLOAD DUP2 PUSH1 0x0 ADD PUSH1 0x0 PUSH2 0x100 EXP DUP2 SLOAD DUP2 PUSH1 0xFF MUL NOT AND SWAP1 DUP4 PUSH1 0x2 DUP2 GT ISZERO PUSH2 0x1330 JUMPI PUSH2 0x132F PUSH2 0x2860 JUMP JUMPDEST JUMPDEST MUL OR SWAP1 SSTORE POP PUSH1 0x20 DUP3 ADD MLOAD DUP2 PUSH1 0x1 ADD SSTORE SWAP1 POP POP JUMPDEST PUSH1 0x0 DUP4 GT PUSH2 0x1386 JUMPI PUSH1 0x40 MLOAD PUSH32 0x8C379A000000000000000000000000000000000000000000000000000000000 DUP2 MSTORE PUSH1 0x4 ADD PUSH2 0x137D SWAP1 PUSH2 0x344C JUMP JUMPDEST PUSH1 0x40 MLOAD DUP1 SWAP2 SUB SWAP1 REVERT JUMPDEST PUSH1 0x3 PUSH1 0x0 DUP6 PUSH20 0xFFFFFFFFFFFFFFFFFFFFFFFFFFFFFFFFFFFFFFFF AND PUSH20 0xFFFFFFFFFFFFFFFFFFFFFFFFFFFFFFFFFFFFFFFF AND DUP2 MSTORE PUSH1 0x20 ADD SWAP1 DUP2 MSTORE PUSH1 0x20 ADD PUSH1 0x0 KECCAK256 DUP1 SLOAD SWAP1 POP DUP3 LT PUSH2 0x140A JUMPI PUSH1 0x40 MLOAD PUSH32 0x8C379A000000000000000000000000000000000000000000000000000000000 DUP2 MSTORE PUSH1 0x4 ADD PUSH2 0x1401 SWAP1 PUSH2 0x34B8 JUMP JUMPDEST PUSH1 0x40 MLOAD DUP1 SWAP2 SUB SWAP1 REVERT JUMPDEST PUSH1 0x3 PUSH1 0x0 DUP6 PUSH20 0xFFFFFFFFFFFFFFFFFFFFFFFFFFFFFFFFFFFFFFFF AND PUSH20 0xFFFFFFFFFFFFFFFFFFFFFFFFFFFFFFFFFFFFFFFF AND DUP2 MSTORE PUSH1 0x20 ADD SWAP1 DUP2 MSTORE PUSH1 0x20 ADD PUSH1 0x0 KECCAK256 DUP3 DUP2 SLOAD DUP2 LT PUSH2 0x145B JUMPI PUSH2 0x145A PUSH2 0x3153 JUMP JUMPDEST JUMPDEST SWAP1 PUSH1 0x0 MSTORE PUSH1 0x20 PUSH1 0x0 KECCAK256 SWAP1 PUSH1 0x4 MUL ADD PUSH1 0x0 ADD SLOAD DUP4 GT ISZERO PUSH2 0x14AF JUMPI PUSH1 0x40 MLOAD PUSH32 0x8C379A000000000000000000000000000000000000000000000000000000000 DUP2 MSTORE PUSH1 0x4 ADD PUSH2 0x14A6 SWAP1 PUSH2 0x3524 JUMP JUMPDEST PUSH1 0x40 MLOAD DUP1 SWAP2 SUB SWAP1 REVERT JUMPDEST PUSH1 0x0 PUSH8 0xDE0B6B3A7640000 PUSH1 0x3 PUSH1 0x0 DUP8 PUSH20 0xFFFFFFFFFFFFFFFFFFFFFFFFFFFFFFFFFFFFFFFF AND PUSH20 0xFFFFFFFFFFFFFFFFFFFFFFFFFFFFFFFFFFFFFFFF AND DUP2 MSTORE PUSH1 0x20 ADD SWAP1 DUP2 MSTORE PUSH1 0x20 ADD PUSH1 0x0 KECCAK256 DUP5 DUP2 SLOAD DUP2 LT PUSH2 0x150B JUMPI PUSH2 0x150A PUSH2 0x3153 JUMP JUMPDEST JUMPDEST SWAP1 PUSH1 0x0 MSTORE PUSH1 0x20 PUSH1 0x0 KECCAK256 SWAP1 PUSH1 0x4 MUL ADD PUSH1 0x1 ADD SLOAD DUP6 PUSH2 0x1528 SWAP2 SWAP1 PUSH2 0x31B1 JUMP JUMPDEST PUSH2 0x1532 SWAP2 SWAP1 PUSH2 0x31B1 JUMP JUMPDEST SWAP1 POP CALLER PUSH20 0xFFFFFFFFFFFFFFFFFFFFFFFFFFFFFFFFFFFFFFFF AND PUSH1 0x4 DUP4 PUSH1 0x40 MLOAD PUSH2 0x155B SWAP2 SWAP1 PUSH2 0x3580 JUMP JUMPDEST SWAP1 DUP2 MSTORE PUSH1 0x20 ADD PUSH1 0x40 MLOAD DUP1 SWAP2 SUB SWAP1 KECCAK256 PUSH1 0x0 SWAP1 SLOAD SWAP1 PUSH2 0x100 EXP SWAP1 DIV PUSH20 0xFFFFFFFFFFFFFFFFFFFFFFFFFFFFFFFFFFFFFFFF AND PUSH20 0xFFFFFFFFFFFFFFFFFFFFFFFFFFFFFFFFFFFFFFFF AND SUB PUSH2 0x161F JUMPI PUSH1 0x64 PUSH1 0x5A DUP3 PUSH2 0x15B4 SWAP2 SWAP1 PUSH2 0x31B1 JUMP JUMPDEST PUSH2 0x15BE SWAP2 SWAP1 PUSH2 0x33A9 JUMP JUMPDEST SWAP1 POP PUSH1 0x0 PUSH1 0x4 DUP4 PUSH1 0x40 MLOAD PUSH2 0x15D2 SWAP2 SWAP1 PUSH2 0x3580 JUMP JUMPDEST SWAP1 DUP2 MSTORE PUSH1 0x20 ADD PUSH1 0x40 MLOAD DUP1 SWAP2 SUB SWAP1 KECCAK256 PUSH1 0x0 PUSH2 0x100 EXP DUP2 SLOAD DUP2 PUSH20 0xFFFFFFFFFFFFFFFFFFFFFFFFFFFFFFFFFFFFFFFF MUL NOT AND SWAP1 DUP4 PUSH20 0xFFFFFFFFFFFFFFFFFFFFFFFFFFFFFFFFFFFFFFFF AND MUL OR SWAP1 SSTORE POP JUMPDEST DUP1 CALLVALUE LT ISZERO PUSH2 0x1662 JUMPI PUSH1 0x40 MLOAD PUSH32 0x8C379A000000000000000000000000000000000000000000000000000000000 DUP2 MSTORE PUSH1 0x4 ADD PUSH2 0x1659 SWAP1 PUSH2 0x35E3 JUMP JUMPDEST PUSH1 0x40 MLOAD DUP1 SWAP2 SUB SWAP1 REVERT JUMPDEST PUSH1 0x0 DUP1 JUMPDEST PUSH1 0x3 PUSH1 0x0 CALLER PUSH20 0xFFFFFFFFFFFFFFFFFFFFFFFFFFFFFFFFFFFFFFFF AND PUSH20 0xFFFFFFFFFFFFFFFFFFFFFFFFFFFFFFFFFFFFFFFF AND DUP2 MSTORE PUSH1 0x20 ADD SWAP1 DUP2 MSTORE PUSH1 0x20 ADD PUSH1 0x0 KECCAK256 DUP1 SLOAD SWAP1 POP DUP2 LT ISZERO PUSH2 0x1838 JUMPI PUSH1 0x3 PUSH1 0x0 DUP9 PUSH20 0xFFFFFFFFFFFFFFFFFFFFFFFFFFFFFFFFFFFFFFFF AND PUSH20 0xFFFFFFFFFFFFFFFFFFFFFFFFFFFFFFFFFFFFFFFF AND DUP2 MSTORE PUSH1 0x20 ADD SWAP1 DUP2 MSTORE PUSH1 0x20 ADD PUSH1 0x0 KECCAK256 DUP6 DUP2 SLOAD DUP2 LT PUSH2 0x1701 JUMPI PUSH2 0x1700 PUSH2 0x3153 JUMP JUMPDEST JUMPDEST SWAP1 PUSH1 0x0 MSTORE PUSH1 0x20 PUSH1 0x0 KECCAK256 SWAP1 PUSH1 0x4 MUL ADD PUSH1 0x2 ADD PUSH1 0x40 MLOAD PUSH2 0x171F SWAP2 SWAP1 PUSH2 0x36A6 JUMP JUMPDEST PUSH1 0x40 MLOAD DUP1 SWAP2 SUB SWAP1 KECCAK256 PUSH1 0x3 PUSH1 0x0 CALLER PUSH20 0xFFFFFFFFFFFFFFFFFFFFFFFFFFFFFFFFFFFFFFFF AND PUSH20 0xFFFFFFFFFFFFFFFFFFFFFFFFFFFFFFFFFFFFFFFF AND DUP2 MSTORE PUSH1 0x20 ADD SWAP1 DUP2 MSTORE PUSH1 0x20 ADD PUSH1 0x0 KECCAK256 DUP3 DUP2 SLOAD DUP2 LT PUSH2 0x1778 JUMPI PUSH2 0x1777 PUSH2 0x3153 JUMP JUMPDEST JUMPDEST SWAP1 PUSH1 0x0 MSTORE PUSH1 0x20 PUSH1 0x0 KECCAK256 SWAP1 PUSH1 0x4 MUL ADD PUSH1 0x2 ADD PUSH1 0x40 MLOAD PUSH2 0x1796 SWAP2 SWAP1 PUSH2 0x36A6 JUMP JUMPDEST PUSH1 0x40 MLOAD DUP1 SWAP2 SUB SWAP1 KECCAK256 SUB PUSH2 0x1825 JUMPI DUP6 PUSH1 0x3 PUSH1 0x0 CALLER PUSH20 0xFFFFFFFFFFFFFFFFFFFFFFFFFFFFFFFFFFFFFFFF AND PUSH20 0xFFFFFFFFFFFFFFFFFFFFFFFFFFFFFFFFFFFFFFFF AND DUP2 MSTORE PUSH1 0x20 ADD SWAP1 DUP2 MSTORE PUSH1 0x20 ADD PUSH1 0x0 KECCAK256 DUP3 DUP2 SLOAD DUP2 LT PUSH2 0x17F5 JUMPI PUSH2 0x17F4 PUSH2 0x3153 JUMP JUMPDEST JUMPDEST SWAP1 PUSH1 0x0 MSTORE PUSH1 0x20 PUSH1 0x0 KECCAK256 SWAP1 PUSH1 0x4 MUL ADD PUSH1 0x0 ADD PUSH1 0x0 DUP3 DUP3 SLOAD PUSH2 0x1815 SWAP2 SWAP1 PUSH2 0x31F3 JUMP JUMPDEST SWAP3 POP POP DUP2 SWAP1 SSTORE POP PUSH1 0x1 SWAP2 POP PUSH2 0x1838 JUMP JUMPDEST DUP1 DUP1 PUSH2 0x1830 SWAP1 PUSH2 0x325B JUMP JUMPDEST SWAP2 POP POP PUSH2 0x1666 JUMP JUMPDEST POP DUP1 PUSH2 0x1A5A JUMPI PUSH1 0x0 PUSH1 0x40 MLOAD DUP1 PUSH1 0x80 ADD PUSH1 0x40 MSTORE DUP1 DUP8 DUP2 MSTORE PUSH1 0x20 ADD PUSH1 0x3 PUSH1 0x0 DUP11 PUSH20 0xFFFFFFFFFFFFFFFFFFFFFFFFFFFFFFFFFFFFFFFF AND PUSH20 0xFFFFFFFFFFFFFFFFFFFFFFFFFFFFFFFFFFFFFFFF AND DUP2 MSTORE PUSH1 0x20 ADD SWAP1 DUP2 MSTORE PUSH1 0x20 ADD PUSH1 0x0 KECCAK256 DUP8 DUP2 SLOAD DUP2 LT PUSH2 0x18A2 JUMPI PUSH2 0x18A1 PUSH2 0x3153 JUMP JUMPDEST JUMPDEST SWAP1 PUSH1 0x0 MSTORE PUSH1 0x20 PUSH1 0x0 KECCAK256 SWAP1 PUSH1 0x4 MUL ADD PUSH1 0x1 ADD SLOAD DUP2 MSTORE PUSH1 0x20 ADD PUSH1 0x3 PUSH1 0x0 DUP11 PUSH20 0xFFFFFFFFFFFFFFFFFFFFFFFFFFFFFFFFFFFFFFFF AND PUSH20 0xFFFFFFFFFFFFFFFFFFFFFFFFFFFFFFFFFFFFFFFF AND DUP2 MSTORE PUSH1 0x20 ADD SWAP1 DUP2 MSTORE PUSH1 0x20 ADD PUSH1 0x0 KECCAK256 DUP8 DUP2 SLOAD DUP2 LT PUSH2 0x190A JUMPI PUSH2 0x1909 PUSH2 0x3153 JUMP JUMPDEST JUMPDEST SWAP1 PUSH1 0x0 MSTORE PUSH1 0x20 PUSH1 0x0 KECCAK256 SWAP1 PUSH1 0x4 MUL ADD PUSH1 0x2 ADD DUP1 SLOAD PUSH2 0x1926 SWAP1 PUSH2 0x2EA4 JUMP JUMPDEST DUP1 PUSH1 0x1F ADD PUSH1 0x20 DUP1 SWAP2 DIV MUL PUSH1 0x20 ADD PUSH1 0x40 MLOAD SWAP1 DUP2 ADD PUSH1 0x40 MSTORE DUP1 SWAP3 SWAP2 SWAP1 DUP2 DUP2 MSTORE PUSH1 0x20 ADD DUP3 DUP1 SLOAD PUSH2 0x1952 SWAP1 PUSH2 0x2EA4 JUMP JUMPDEST DUP1 ISZERO PUSH2 0x199F JUMPI DUP1 PUSH1 0x1F LT PUSH2 0x1974 JUMPI PUSH2 0x100 DUP1 DUP4 SLOAD DIV MUL DUP4 MSTORE SWAP2 PUSH1 0x20 ADD SWAP2 PUSH2 0x199F JUMP JUMPDEST DUP3 ADD SWAP2 SWAP1 PUSH1 0x0 MSTORE PUSH1 0x20 PUSH1 0x0 KECCAK256 SWAP1 JUMPDEST DUP2 SLOAD DUP2 MSTORE SWAP1 PUSH1 0x1 ADD SWAP1 PUSH1 0x20 ADD DUP1 DUP4 GT PUSH2 0x1982 JUMPI DUP3 SWAP1 SUB PUSH1 0x1F AND DUP3 ADD SWAP2 JUMPDEST POP POP POP POP POP DUP2 MSTORE PUSH1 0x20 ADD PUSH2 0x19B4 PUSH2 0x3E8 PUSH2 0xF65 JUMP JUMPDEST DUP2 MSTORE POP SWAP1 POP PUSH1 0x3 PUSH1 0x0 CALLER PUSH20 0xFFFFFFFFFFFFFFFFFFFFFFFFFFFFFFFFFFFFFFFF AND PUSH20 0xFFFFFFFFFFFFFFFFFFFFFFFFFFFFFFFFFFFFFFFF AND DUP2 MSTORE PUSH1 0x20 ADD SWAP1 DUP2 MSTORE PUSH1 0x20 ADD PUSH1 0x0 KECCAK256 DUP2 SWAP1 DUP1 PUSH1 0x1 DUP2 SLOAD ADD DUP1 DUP3 SSTORE DUP1 SWAP2 POP POP PUSH1 0x1 SWAP1 SUB SWAP1 PUSH1 0x0 MSTORE PUSH1 0x20 PUSH1 0x0 KECCAK256 SWAP1 PUSH1 0x4 MUL ADD PUSH1 0x0 SWAP1 SWAP2 SWAP1 SWAP2 SWAP1 SWAP2 POP PUSH1 0x0 DUP3 ADD MLOAD DUP2 PUSH1 0x0 ADD SSTORE PUSH1 0x20 DUP3 ADD MLOAD DUP2 PUSH1 0x1 ADD SSTORE PUSH1 0x40 DUP3 ADD MLOAD DUP2 PUSH1 0x2 ADD SWAP1 DUP2 PUSH2 0x1A4B SWAP2 SWAP1 PUSH2 0x3081 JUMP JUMPDEST POP PUSH1 0x60 DUP3 ADD MLOAD DUP2 PUSH1 0x3 ADD SSTORE POP POP POP JUMPDEST DUP5 PUSH1 0x3 PUSH1 0x0 DUP9 PUSH20 0xFFFFFFFFFFFFFFFFFFFFFFFFFFFFFFFFFFFFFFFF AND PUSH20 0xFFFFFFFFFFFFFFFFFFFFFFFFFFFFFFFFFFFFFFFF AND DUP2 MSTORE PUSH1 0x20 ADD SWAP1 DUP2 MSTORE PUSH1 0x20 ADD PUSH1 0x0 KECCAK256 DUP6 DUP2 SLOAD DUP2 LT PUSH2 0x1AAC JUMPI PUSH2 0x1AAB PUSH2 0x3153 JUMP JUMPDEST JUMPDEST SWAP1 PUSH1 0x0 MSTORE PUSH1 0x20 PUSH1 0x0 KECCAK256 SWAP1 PUSH1 0x4 MUL ADD PUSH1 0x0 ADD PUSH1 0x0 DUP3 DUP3 SLOAD PUSH2 0x1ACC SWAP2 SWAP1 PUSH2 0x3227 JUMP JUMPDEST SWAP3 POP POP DUP2 SWAP1 SSTORE POP DUP2 CALLVALUE GT ISZERO PUSH2 0x1B34 JUMPI PUSH1 0x0 DUP3 CALLVALUE PUSH2 0x1AE9 SWAP2 SWAP1 PUSH2 0x3227 JUMP JUMPDEST SWAP1 POP CALLER PUSH20 0xFFFFFFFFFFFFFFFFFFFFFFFFFFFFFFFFFFFFFFFF AND PUSH2 0x8FC DUP3 SWAP1 DUP2 ISZERO MUL SWAP1 PUSH1 0x40 MLOAD PUSH1 0x0 PUSH1 0x40 MLOAD DUP1 DUP4 SUB DUP2 DUP6 DUP9 DUP9 CALL SWAP4 POP POP POP POP ISZERO DUP1 ISZERO PUSH2 0x1B31 JUMPI RETURNDATASIZE PUSH1 0x0 DUP1 RETURNDATACOPY RETURNDATASIZE PUSH1 0x0 REVERT JUMPDEST POP POP JUMPDEST DUP2 PUSH1 0x2 PUSH1 0x0 DUP9 PUSH20 0xFFFFFFFFFFFFFFFFFFFFFFFFFFFFFFFFFFFFFFFF AND PUSH20 0xFFFFFFFFFFFFFFFFFFFFFFFFFFFFFFFFFFFFFFFF AND DUP2 MSTORE PUSH1 0x20 ADD SWAP1 DUP2 MSTORE PUSH1 0x20 ADD PUSH1 0x0 KECCAK256 PUSH1 0x1 ADD DUP2 SWAP1 SSTORE POP POP POP POP POP POP POP JUMP JUMPDEST DUP1 PUSH20 0xFFFFFFFFFFFFFFFFFFFFFFFFFFFFFFFFFFFFFFFF AND CALLER PUSH20 0xFFFFFFFFFFFFFFFFFFFFFFFFFFFFFFFFFFFFFFFF AND SUB PUSH2 0x1BBB JUMPI PUSH1 0x0 DUP1 REVERT JUMPDEST DUP1 PUSH1 0x4 DUP4 PUSH1 0x40 MLOAD PUSH2 0x1BCC SWAP2 SWAP1 PUSH2 0x3580 JUMP JUMPDEST SWAP1 DUP2 MSTORE PUSH1 0x20 ADD PUSH1 0x40 MLOAD DUP1 SWAP2 SUB SWAP1 KECCAK256 PUSH1 0x0 PUSH2 0x100 EXP DUP2 SLOAD DUP2 PUSH20 0xFFFFFFFFFFFFFFFFFFFFFFFFFFFFFFFFFFFFFFFF MUL NOT AND SWAP1 DUP4 PUSH20 0xFFFFFFFFFFFFFFFFFFFFFFFFFFFFFFFFFFFFFFFF AND MUL OR SWAP1 SSTORE POP POP POP JUMP JUMPDEST PUSH1 0x2 PUSH1 0x20 MSTORE DUP1 PUSH1 0x0 MSTORE PUSH1 0x40 PUSH1 0x0 KECCAK256 PUSH1 0x0 SWAP2 POP SWAP1 POP DUP1 PUSH1 0x0 ADD PUSH1 0x0 SWAP1 SLOAD SWAP1 PUSH2 0x100 EXP SWAP1 DIV PUSH1 0xFF AND SWAP1 DUP1 PUSH1 0x1 ADD SLOAD SWAP1 POP DUP3 JUMP JUMPDEST PUSH1 0x40 MLOAD DUP1 PUSH1 0x40 ADD PUSH1 0x40 MSTORE DUP1 PUSH1 0x0 PUSH1 0x2 DUP2 GT ISZERO PUSH2 0x1C6C JUMPI PUSH2 0x1C6B PUSH2 0x2860 JUMP JUMPDEST JUMPDEST DUP2 MSTORE PUSH1 0x20 ADD PUSH1 0x0 DUP2 MSTORE POP PUSH1 0x2 PUSH1 0x0 CALLER PUSH20 0xFFFFFFFFFFFFFFFFFFFFFFFFFFFFFFFFFFFFFFFF AND PUSH20 0xFFFFFFFFFFFFFFFFFFFFFFFFFFFFFFFFFFFFFFFF AND DUP2 MSTORE PUSH1 0x20 ADD SWAP1 DUP2 MSTORE PUSH1 0x20 ADD PUSH1 0x0 KECCAK256 PUSH1 0x0 DUP3 ADD MLOAD DUP2 PUSH1 0x0 ADD PUSH1 0x0 PUSH2 0x100 EXP DUP2 SLOAD DUP2 PUSH1 0xFF MUL NOT AND SWAP1 DUP4 PUSH1 0x2 DUP2 GT ISZERO PUSH2 0x1CE0 JUMPI PUSH2 0x1CDF PUSH2 0x2860 JUMP JUMPDEST JUMPDEST MUL OR SWAP1 SSTORE POP PUSH1 0x20 DUP3 ADD MLOAD DUP2 PUSH1 0x1 ADD SSTORE SWAP1 POP POP JUMP JUMPDEST PUSH1 0x4 DUP2 DUP1 MLOAD PUSH1 0x20 DUP2 ADD DUP3 ADD DUP1 MLOAD DUP5 DUP3 MSTORE PUSH1 0x20 DUP4 ADD PUSH1 0x20 DUP6 ADD KECCAK256 DUP2 DUP4 MSTORE DUP1 SWAP6 POP POP POP POP POP POP PUSH1 0x0 SWAP2 POP SLOAD SWAP1 PUSH2 0x100 EXP SWAP1 DIV PUSH20 0xFFFFFFFFFFFFFFFFFFFFFFFFFFFFFFFFFFFFFFFF AND DUP2 JUMP JUMPDEST PUSH1 0x0 PUSH1 0x2 PUSH1 0x0 DUP4 PUSH20 0xFFFFFFFFFFFFFFFFFFFFFFFFFFFFFFFFFFFFFFFF AND PUSH20 0xFFFFFFFFFFFFFFFFFFFFFFFFFFFFFFFFFFFFFFFF AND DUP2 MSTORE PUSH1 0x20 ADD SWAP1 DUP2 MSTORE PUSH1 0x20 ADD PUSH1 0x0 KECCAK256 PUSH1 0x1 ADD SLOAD SWAP1 POP DUP2 PUSH20 0xFFFFFFFFFFFFFFFFFFFFFFFFFFFFFFFFFFFFFFFF AND PUSH2 0x8FC DUP3 SWAP1 DUP2 ISZERO MUL SWAP1 PUSH1 0x40 MLOAD PUSH1 0x0 PUSH1 0x40 MLOAD DUP1 DUP4 SUB DUP2 DUP6 DUP9 DUP9 CALL SWAP4 POP POP POP POP ISZERO DUP1 ISZERO PUSH2 0x1DCA JUMPI RETURNDATASIZE PUSH1 0x0 DUP1 RETURNDATACOPY RETURNDATASIZE PUSH1 0x0 REVERT JUMPDEST POP POP POP JUMP JUMPDEST PUSH1 0x1 DUP5 DUP2 PUSH1 0x2 DUP2 GT ISZERO PUSH2 0x1DE5 JUMPI PUSH2 0x1DE4 PUSH2 0x2860 JUMP JUMPDEST JUMPDEST PUSH1 0x2 PUSH1 0x0 CALLER PUSH20 0xFFFFFFFFFFFFFFFFFFFFFFFFFFFFFFFFFFFFFFFF AND PUSH20 0xFFFFFFFFFFFFFFFFFFFFFFFFFFFFFFFFFFFFFFFF AND DUP2 MSTORE PUSH1 0x20 ADD SWAP1 DUP2 MSTORE PUSH1 0x20 ADD PUSH1 0x0 KECCAK256 PUSH1 0x0 ADD PUSH1 0x0 SWAP1 SLOAD SWAP1 PUSH2 0x100 EXP SWAP1 DIV PUSH1 0xFF AND PUSH1 0x2 DUP2 GT ISZERO PUSH2 0x1E47 JUMPI PUSH2 0x1E46 PUSH2 0x2860 JUMP JUMPDEST JUMPDEST EQ PUSH2 0x1E87 JUMPI PUSH1 0x40 MLOAD PUSH32 0x8C379A000000000000000000000000000000000000000000000000000000000 DUP2 MSTORE PUSH1 0x4 ADD PUSH2 0x1E7E SWAP1 PUSH2 0x2D9D JUMP JUMPDEST PUSH1 0x40 MLOAD DUP1 SWAP2 SUB SWAP1 REVERT JUMPDEST DUP1 PUSH20 0xFFFFFFFFFFFFFFFFFFFFFFFFFFFFFFFFFFFFFFFF AND CALLER PUSH20 0xFFFFFFFFFFFFFFFFFFFFFFFFFFFFFFFFFFFFFFFF AND EQ PUSH2 0x1EF5 JUMPI PUSH1 0x40 MLOAD PUSH32 0x8C379A000000000000000000000000000000000000000000000000000000000 DUP2 MSTORE PUSH1 0x4 ADD PUSH2 0x1EEC SWAP1 PUSH2 0x2E55 JUMP JUMPDEST PUSH1 0x40 MLOAD DUP1 SWAP2 SUB SWAP1 REVERT JUMPDEST PUSH1 0x0 DUP5 GT PUSH2 0x1F38 JUMPI PUSH1 0x40 MLOAD PUSH32 0x8C379A000000000000000000000000000000000000000000000000000000000 DUP2 MSTORE PUSH1 0x4 ADD PUSH2 0x1F2F SWAP1 PUSH2 0x344C JUMP JUMPDEST PUSH1 0x40 MLOAD DUP1 SWAP2 SUB SWAP1 REVERT JUMPDEST PUSH1 0x3 PUSH1 0x0 DUP5 PUSH20 0xFFFFFFFFFFFFFFFFFFFFFFFFFFFFFFFFFFFFFFFF AND PUSH20 0xFFFFFFFFFFFFFFFFFFFFFFFFFFFFFFFFFFFFFFFF AND DUP2 MSTORE PUSH1 0x20 ADD SWAP1 DUP2 MSTORE PUSH1 0x20 ADD PUSH1 0x0 KECCAK256 DUP1 SLOAD SWAP1 POP DUP6 LT PUSH2 0x1FBC JUMPI PUSH1 0x40 MLOAD PUSH32 0x8C379A000000000000000000000000000000000000000000000000000000000 DUP2 MSTORE PUSH1 0x4 ADD PUSH2 0x1FB3 SWAP1 PUSH2 0x34B8 JUMP JUMPDEST PUSH1 0x40 MLOAD DUP1 SWAP2 SUB SWAP1 REVERT JUMPDEST PUSH1 0x0 PUSH1 0x3 PUSH1 0x0 DUP6 PUSH20 0xFFFFFFFFFFFFFFFFFFFFFFFFFFFFFFFFFFFFFFFF AND PUSH20 0xFFFFFFFFFFFFFFFFFFFFFFFFFFFFFFFFFFFFFFFF AND DUP2 MSTORE PUSH1 0x20 ADD SWAP1 DUP2 MSTORE PUSH1 0x20 ADD PUSH1 0x0 KECCAK256 DUP7 DUP2 SLOAD DUP2 LT PUSH2 0x200F JUMPI PUSH2 0x200E PUSH2 0x3153 JUMP JUMPDEST JUMPDEST SWAP1 PUSH1 0x0 MSTORE PUSH1 0x20 PUSH1 0x0 KECCAK256 SWAP1 PUSH1 0x4 MUL ADD PUSH1 0x1 ADD SLOAD SWAP1 POP PUSH1 0x0 PUSH8 0xDE0B6B3A7640000 DUP7 DUP4 PUSH2 0x203A SWAP2 SWAP1 PUSH2 0x31B1 JUMP JUMPDEST PUSH2 0x2044 SWAP2 SWAP1 PUSH2 0x31B1 JUMP JUMPDEST SWAP1 POP DUP1 CALLVALUE LT ISZERO PUSH2 0x2089 JUMPI PUSH1 0x40 MLOAD PUSH32 0x8C379A000000000000000000000000000000000000000000000000000000000 DUP2 MSTORE PUSH1 0x4 ADD PUSH2 0x2080 SWAP1 PUSH2 0x35E3 JUMP JUMPDEST PUSH1 0x40 MLOAD DUP1 SWAP2 SUB SWAP1 REVERT JUMPDEST PUSH1 0x0 PUSH1 0x3 PUSH1 0x0 DUP8 PUSH20 0xFFFFFFFFFFFFFFFFFFFFFFFFFFFFFFFFFFFFFFFF AND PUSH20 0xFFFFFFFFFFFFFFFFFFFFFFFFFFFFFFFFFFFFFFFF AND DUP2 MSTORE PUSH1 0x20 ADD SWAP1 DUP2 MSTORE PUSH1 0x20 ADD PUSH1 0x0 KECCAK256 DUP9 DUP2 SLOAD DUP2 LT PUSH2 0x20DC JUMPI PUSH2 0x20DB PUSH2 0x3153 JUMP JUMPDEST JUMPDEST SWAP1 PUSH1 0x0 MSTORE PUSH1 0x20 PUSH1 0x0 KECCAK256 SWAP1 PUSH1 0x4 MUL ADD PUSH1 0x3 ADD SLOAD SWAP1 POP PUSH1 0x0 PUSH1 0x3 PUSH1 0x0 DUP9 PUSH20 0xFFFFFFFFFFFFFFFFFFFFFFFFFFFFFFFFFFFFFFFF AND PUSH20 0xFFFFFFFFFFFFFFFFFFFFFFFFFFFFFFFFFFFFFFFF AND DUP2 MSTORE PUSH1 0x20 ADD SWAP1 DUP2 MSTORE PUSH1 0x20 ADD PUSH1 0x0 KECCAK256 DUP10 DUP2 SLOAD DUP2 LT PUSH2 0x2143 JUMPI PUSH2 0x2142 PUSH2 0x3153 JUMP JUMPDEST JUMPDEST SWAP1 PUSH1 0x0 MSTORE PUSH1 0x20 PUSH1 0x0 KECCAK256 SWAP1 PUSH1 0x4 MUL ADD PUSH1 0x2 ADD DUP1 SLOAD PUSH2 0x215F SWAP1 PUSH2 0x2EA4 JUMP JUMPDEST DUP1 PUSH1 0x1F ADD PUSH1 0x20 DUP1 SWAP2 DIV MUL PUSH1 0x20 ADD PUSH1 0x40 MLOAD SWAP1 DUP2 ADD PUSH1 0x40 MSTORE DUP1 SWAP3 SWAP2 SWAP1 DUP2 DUP2 MSTORE PUSH1 0x20 ADD DUP3 DUP1 SLOAD PUSH2 0x218B SWAP1 PUSH2 0x2EA4 JUMP JUMPDEST DUP1 ISZERO PUSH2 0x21D8 JUMPI DUP1 PUSH1 0x1F LT PUSH2 0x21AD JUMPI PUSH2 0x100 DUP1 DUP4 SLOAD DIV MUL DUP4 MSTORE SWAP2 PUSH1 0x20 ADD SWAP2 PUSH2 0x21D8 JUMP JUMPDEST DUP3 ADD SWAP2 SWAP1 PUSH1 0x0 MSTORE PUSH1 0x20 PUSH1 0x0 KECCAK256 SWAP1 JUMPDEST DUP2 SLOAD DUP2 MSTORE SWAP1 PUSH1 0x1 ADD SWAP1 PUSH1 0x20 ADD DUP1 DUP4 GT PUSH2 0x21BB JUMPI DUP3 SWAP1 SUB PUSH1 0x1F AND DUP3 ADD SWAP2 JUMPDEST POP POP POP POP POP SWAP1 POP PUSH1 0x0 DUP1 JUMPDEST PUSH1 0x3 PUSH1 0x0 DUP14 PUSH20 0xFFFFFFFFFFFFFFFFFFFFFFFFFFFFFFFFFFFFFFFF AND PUSH20 0xFFFFFFFFFFFFFFFFFFFFFFFFFFFFFFFFFFFFFFFF AND DUP2 MSTORE PUSH1 0x20 ADD SWAP1 DUP2 MSTORE PUSH1 0x20 ADD PUSH1 0x0 KECCAK256 DUP1 SLOAD SWAP1 POP DUP2 LT ISZERO PUSH2 0x2342 JUMPI PUSH1 0x3 PUSH1 0x0 DUP14 PUSH20 0xFFFFFFFFFFFFFFFFFFFFFFFFFFFFFFFFFFFFFFFF AND PUSH20 0xFFFFFFFFFFFFFFFFFFFFFFFFFFFFFFFFFFFFFFFF AND DUP2 MSTORE PUSH1 0x20 ADD SWAP1 DUP2 MSTORE PUSH1 0x20 ADD PUSH1 0x0 KECCAK256 DUP2 DUP2 SLOAD DUP2 LT PUSH2 0x227E JUMPI PUSH2 0x227D PUSH2 0x3153 JUMP JUMPDEST JUMPDEST SWAP1 PUSH1 0x0 MSTORE PUSH1 0x20 PUSH1 0x0 KECCAK256 SWAP1 PUSH1 0x4 MUL ADD PUSH1 0x2 ADD PUSH1 0x40 MLOAD PUSH2 0x229C SWAP2 SWAP1 PUSH2 0x36A6 JUMP JUMPDEST PUSH1 0x40 MLOAD DUP1 SWAP2 SUB SWAP1 KECCAK256 DUP4 DUP1 MLOAD SWAP1 PUSH1 0x20 ADD KECCAK256 SUB PUSH2 0x232F JUMPI DUP10 PUSH1 0x3 PUSH1 0x0 DUP15 PUSH20 0xFFFFFFFFFFFFFFFFFFFFFFFFFFFFFFFFFFFFFFFF AND PUSH20 0xFFFFFFFFFFFFFFFFFFFFFFFFFFFFFFFFFFFFFFFF AND DUP2 MSTORE PUSH1 0x20 ADD SWAP1 DUP2 MSTORE PUSH1 0x20 ADD PUSH1 0x0 KECCAK256 DUP3 DUP2 SLOAD DUP2 LT PUSH2 0x2303 JUMPI PUSH2 0x2302 PUSH2 0x3153 JUMP JUMPDEST JUMPDEST SWAP1 PUSH1 0x0 MSTORE PUSH1 0x20 PUSH1 0x0 KECCAK256 SWAP1 PUSH1 0x4 MUL ADD PUSH1 0x0 ADD PUSH1 0x0 DUP3 DUP3 SLOAD PUSH2 0x2323 SWAP2 SWAP1 PUSH2 0x31F3 JUMP JUMPDEST SWAP3 POP POP DUP2 SWAP1 SSTORE POP PUSH1 0x1 SWAP2 POP JUMPDEST DUP1 DUP1 PUSH2 0x233A SWAP1 PUSH2 0x325B JUMP JUMPDEST SWAP2 POP POP PUSH2 0x21E3 JUMP JUMPDEST POP DUP1 PUSH2 0x240E JUMPI PUSH1 0x0 PUSH1 0x40 MLOAD DUP1 PUSH1 0x80 ADD PUSH1 0x40 MSTORE DUP1 DUP12 DUP2 MSTORE PUSH1 0x20 ADD DUP8 DUP2 MSTORE PUSH1 0x20 ADD DUP5 DUP2 MSTORE PUSH1 0x20 ADD DUP6 DUP2 MSTORE POP SWAP1 POP PUSH1 0x3 PUSH1 0x0 DUP14 PUSH20 0xFFFFFFFFFFFFFFFFFFFFFFFFFFFFFFFFFFFFFFFF AND PUSH20 0xFFFFFFFFFFFFFFFFFFFFFFFFFFFFFFFFFFFFFFFF AND DUP2 MSTORE PUSH1 0x20 ADD SWAP1 DUP2 MSTORE PUSH1 0x20 ADD PUSH1 0x0 KECCAK256 DUP2 SWAP1 DUP1 PUSH1 0x1 DUP2 SLOAD ADD DUP1 DUP3 SSTORE DUP1 SWAP2 POP POP PUSH1 0x1 SWAP1 SUB SWAP1 PUSH1 0x0 MSTORE PUSH1 0x20 PUSH1 0x0 KECCAK256 SWAP1 PUSH1 0x4 MUL ADD PUSH1 0x0 SWAP1 SWAP2 SWAP1 SWAP2 SWAP1 SWAP2 POP PUSH1 0x0 DUP3 ADD MLOAD DUP2 PUSH1 0x0 ADD SSTORE PUSH1 0x20 DUP3 ADD MLOAD DUP2 PUSH1 0x1 ADD SSTORE PUSH1 0x40 DUP3 ADD MLOAD DUP2 PUSH1 0x2 ADD SWAP1 DUP2 PUSH2 0x23FF SWAP2 SWAP1 PUSH2 0x3081 JUMP JUMPDEST POP PUSH1 0x60 DUP3 ADD MLOAD DUP2 PUSH1 0x3 ADD SSTORE POP POP POP JUMPDEST DUP9 PUSH1 0x3 PUSH1 0x0 DUP11 PUSH20 0xFFFFFFFFFFFFFFFFFFFFFFFFFFFFFFFFFFFFFFFF AND PUSH20 0xFFFFFFFFFFFFFFFFFFFFFFFFFFFFFFFFFFFFFFFF AND DUP2 MSTORE PUSH1 0x20 ADD SWAP1 DUP2 MSTORE PUSH1 0x20 ADD PUSH1 0x0 KECCAK256 DUP12 DUP2 SLOAD DUP2 LT PUSH2 0x2460 JUMPI PUSH2 0x245F PUSH2 0x3153 JUMP JUMPDEST JUMPDEST SWAP1 PUSH1 0x0 MSTORE PUSH1 0x20 PUSH1 0x0 KECCAK256 SWAP1 PUSH1 0x4 MUL ADD PUSH1 0x0 ADD PUSH1 0x0 DUP3 DUP3 SLOAD PUSH2 0x2480 SWAP2 SWAP1 PUSH2 0x3227 JUMP JUMPDEST SWAP3 POP POP DUP2 SWAP1 SSTORE POP DUP4 CALLVALUE GT ISZERO PUSH2 0x24E8 JUMPI PUSH1 0x0 DUP5 CALLVALUE PUSH2 0x249D SWAP2 SWAP1 PUSH2 0x3227 JUMP JUMPDEST SWAP1 POP CALLER PUSH20 0xFFFFFFFFFFFFFFFFFFFFFFFFFFFFFFFFFFFFFFFF AND PUSH2 0x8FC DUP3 SWAP1 DUP2 ISZERO MUL SWAP1 PUSH1 0x40 MLOAD PUSH1 0x0 PUSH1 0x40 MLOAD DUP1 DUP4 SUB DUP2 DUP6 DUP9 DUP9 CALL SWAP4 POP POP POP POP ISZERO DUP1 ISZERO PUSH2 0x24E5 JUMPI RETURNDATASIZE PUSH1 0x0 DUP1 RETURNDATACOPY RETURNDATASIZE PUSH1 0x0 REVERT JUMPDEST POP POP JUMPDEST POP POP POP POP POP POP POP POP POP POP POP JUMP JUMPDEST POP DUP1 SLOAD PUSH2 0x2501 SWAP1 PUSH2 0x2EA4 JUMP JUMPDEST PUSH1 0x0 DUP3 SSTORE DUP1 PUSH1 0x1F LT PUSH2 0x2513 JUMPI POP PUSH2 0x2532 JUMP JUMPDEST PUSH1 0x1F ADD PUSH1 0x20 SWAP1 DIV SWAP1 PUSH1 0x0 MSTORE PUSH1 0x20 PUSH1 0x0 KECCAK256 SWAP1 DUP2 ADD SWAP1 PUSH2 0x2531 SWAP2 SWAP1 PUSH2 0x2535 JUMP JUMPDEST JUMPDEST POP JUMP JUMPDEST JUMPDEST DUP1 DUP3 GT ISZERO PUSH2 0x254E JUMPI PUSH1 0x0 DUP2 PUSH1 0x0 SWAP1 SSTORE POP PUSH1 0x1 ADD PUSH2 0x2536 JUMP JUMPDEST POP SWAP1 JUMP JUMPDEST PUSH1 0x0 PUSH1 0x40 MLOAD SWAP1 POP SWAP1 JUMP JUMPDEST PUSH1 0x0 DUP1 REVERT JUMPDEST PUSH1 0x0 DUP1 REVERT JUMPDEST PUSH1 0x0 PUSH20 0xFFFFFFFFFFFFFFFFFFFFFFFFFFFFFFFFFFFFFFFF DUP3 AND SWAP1 POP SWAP2 SWAP1 POP JUMP JUMPDEST PUSH1 0x0 PUSH2 0x2591 DUP3 PUSH2 0x2566 JUMP JUMPDEST SWAP1 POP SWAP2 SWAP1 POP JUMP JUMPDEST PUSH2 0x25A1 DUP2 PUSH2 0x2586 JUMP JUMPDEST DUP2 EQ PUSH2 0x25AC JUMPI PUSH1 0x0 DUP1 REVERT JUMPDEST POP JUMP JUMPDEST PUSH1 0x0 DUP2 CALLDATALOAD SWAP1 POP PUSH2 0x25BE DUP2 PUSH2 0x2598 JUMP JUMPDEST SWAP3 SWAP2 POP POP JUMP JUMPDEST PUSH1 0x0 DUP2 SWAP1 POP SWAP2 SWAP1 POP JUMP JUMPDEST PUSH2 0x25D7 DUP2 PUSH2 0x25C4 JUMP JUMPDEST DUP2 EQ PUSH2 0x25E2 JUMPI PUSH1 0x0 DUP1 REVERT JUMPDEST POP JUMP JUMPDEST PUSH1 0x0 DUP2 CALLDATALOAD SWAP1 POP PUSH2 0x25F4 DUP2 PUSH2 0x25CE JUMP JUMPDEST SWAP3 SWAP2 POP POP JUMP JUMPDEST PUSH1 0x0 DUP1 REVERT JUMPDEST PUSH1 0x0 DUP1 REVERT JUMPDEST PUSH1 0x0 DUP1 REVERT JUMPDEST PUSH1 0x0 DUP1 DUP4 PUSH1 0x1F DUP5 ADD SLT PUSH2 0x261F JUMPI PUSH2 0x261E PUSH2 0x25FA JUMP JUMPDEST JUMPDEST DUP3 CALLDATALOAD SWAP1 POP PUSH8 0xFFFFFFFFFFFFFFFF DUP2 GT ISZERO PUSH2 0x263C JUMPI PUSH2 0x263B PUSH2 0x25FF JUMP JUMPDEST JUMPDEST PUSH1 0x20 DUP4 ADD SWAP2 POP DUP4 PUSH1 0x1 DUP3 MUL DUP4 ADD GT ISZERO PUSH2 0x2658 JUMPI PUSH2 0x2657 PUSH2 0x2604 JUMP JUMPDEST JUMPDEST SWAP3 POP SWAP3 SWAP1 POP JUMP JUMPDEST PUSH1 0x0 DUP1 PUSH1 0x0 DUP1 PUSH1 0x0 DUP1 PUSH1 0xA0 DUP8 DUP10 SUB SLT ISZERO PUSH2 0x267C JUMPI PUSH2 0x267B PUSH2 0x255C JUMP JUMPDEST JUMPDEST PUSH1 0x0 PUSH2 0x268A DUP10 DUP3 DUP11 ADD PUSH2 0x25AF JUMP JUMPDEST SWAP7 POP POP PUSH1 0x20 PUSH2 0x269B DUP10 DUP3 DUP11 ADD PUSH2 0x25E5 JUMP JUMPDEST SWAP6 POP POP PUSH1 0x40 PUSH2 0x26AC DUP10 DUP3 DUP11 ADD PUSH2 0x25E5 JUMP JUMPDEST SWAP5 POP POP PUSH1 0x60 DUP8 ADD CALLDATALOAD PUSH8 0xFFFFFFFFFFFFFFFF DUP2 GT ISZERO PUSH2 0x26CD JUMPI PUSH2 0x26CC PUSH2 0x2561 JUMP JUMPDEST JUMPDEST PUSH2 0x26D9 DUP10 DUP3 DUP11 ADD PUSH2 0x2609 JUMP JUMPDEST SWAP4 POP SWAP4 POP POP PUSH1 0x80 PUSH2 0x26EC DUP10 DUP3 DUP11 ADD PUSH2 0x25E5 JUMP JUMPDEST SWAP2 POP POP SWAP3 SWAP6 POP SWAP3 SWAP6 POP SWAP3 SWAP6 JUMP JUMPDEST PUSH1 0x0 DUP1 PUSH1 0x40 DUP4 DUP6 SUB SLT ISZERO PUSH2 0x2710 JUMPI PUSH2 0x270F PUSH2 0x255C JUMP JUMPDEST JUMPDEST PUSH1 0x0 PUSH2 0x271E DUP6 DUP3 DUP7 ADD PUSH2 0x25AF JUMP JUMPDEST SWAP3 POP POP PUSH1 0x20 PUSH2 0x272F DUP6 DUP3 DUP7 ADD PUSH2 0x25E5 JUMP JUMPDEST SWAP2 POP POP SWAP3 POP SWAP3 SWAP1 POP JUMP JUMPDEST PUSH2 0x2742 DUP2 PUSH2 0x25C4 JUMP JUMPDEST DUP3 MSTORE POP POP JUMP JUMPDEST PUSH1 0x0 DUP2 MLOAD SWAP1 POP SWAP2 SWAP1 POP JUMP JUMPDEST PUSH1 0x0 DUP3 DUP3 MSTORE PUSH1 0x20 DUP3 ADD SWAP1 POP SWAP3 SWAP2 POP POP JUMP JUMPDEST PUSH1 0x0 JUMPDEST DUP4 DUP2 LT ISZERO PUSH2 0x2782 JUMPI DUP1 DUP3 ADD MLOAD DUP2 DUP5 ADD MSTORE PUSH1 0x20 DUP2 ADD SWAP1 POP PUSH2 0x2767 JUMP JUMPDEST PUSH1 0x0 DUP5 DUP5 ADD MSTORE POP POP POP POP JUMP JUMPDEST PUSH1 0x0 PUSH1 0x1F NOT PUSH1 0x1F DUP4 ADD AND SWAP1 POP SWAP2 SWAP1 POP JUMP JUMPDEST PUSH1 0x0 PUSH2 0x27AA DUP3 PUSH2 0x2748 JUMP JUMPDEST PUSH2 0x27B4 DUP2 DUP6 PUSH2 0x2753 JUMP JUMPDEST SWAP4 POP PUSH2 0x27C4 DUP2 DUP6 PUSH1 0x20 DUP7 ADD PUSH2 0x2764 JUMP JUMPDEST PUSH2 0x27CD DUP2 PUSH2 0x278E JUMP JUMPDEST DUP5 ADD SWAP2 POP POP SWAP3 SWAP2 POP POP JUMP JUMPDEST PUSH1 0x0 PUSH1 0x80 DUP3 ADD SWAP1 POP PUSH2 0x27ED PUSH1 0x0 DUP4 ADD DUP8 PUSH2 0x2739 JUMP JUMPDEST PUSH2 0x27FA PUSH1 0x20 DUP4 ADD DUP7 PUSH2 0x2739 JUMP JUMPDEST DUP2 DUP2 SUB PUSH1 0x40 DUP4 ADD MSTORE PUSH2 0x280C DUP2 DUP6 PUSH2 0x279F JUMP JUMPDEST SWAP1 POP PUSH2 0x281B PUSH1 0x60 DUP4 ADD DUP5 PUSH2 0x2739 JUMP JUMPDEST SWAP6 SWAP5 POP POP POP POP POP JUMP JUMPDEST PUSH1 0x0 PUSH1 0x20 DUP3 DUP5 SUB SLT ISZERO PUSH2 0x283A JUMPI PUSH2 0x2839 PUSH2 0x255C JUMP JUMPDEST JUMPDEST PUSH1 0x0 PUSH2 0x2848 DUP5 DUP3 DUP6 ADD PUSH2 0x25E5 JUMP JUMPDEST SWAP2 POP POP SWAP3 SWAP2 POP POP JUMP JUMPDEST PUSH2 0x285A DUP2 PUSH2 0x2586 JUMP JUMPDEST DUP3 MSTORE POP POP JUMP JUMPDEST PUSH32 0x4E487B7100000000000000000000000000000000000000000000000000000000 PUSH1 0x0 MSTORE PUSH1 0x21 PUSH1 0x4 MSTORE PUSH1 0x24 PUSH1 0x0 REVERT JUMPDEST PUSH1 0x3 DUP2 LT PUSH2 0x28A0 JUMPI PUSH2 0x289F PUSH2 0x2860 JUMP JUMPDEST JUMPDEST POP JUMP JUMPDEST PUSH1 0x0 DUP2 SWAP1 POP PUSH2 0x28B1 DUP3 PUSH2 0x288F JUMP JUMPDEST SWAP2 SWAP1 POP JUMP JUMPDEST PUSH1 0x0 PUSH2 0x28C1 DUP3 PUSH2 0x28A3 JUMP JUMPDEST SWAP1 POP SWAP2 SWAP1 POP JUMP JUMPDEST PUSH2 0x28D1 DUP2 PUSH2 0x28B6 JUMP JUMPDEST DUP3 MSTORE POP POP JUMP JUMPDEST PUSH1 0x0 PUSH1 0x40 DUP3 ADD SWAP1 POP PUSH2 0x28EC PUSH1 0x0 DUP4 ADD DUP6 PUSH2 0x2851 JUMP JUMPDEST PUSH2 0x28F9 PUSH1 0x20 DUP4 ADD DUP5 PUSH2 0x28C8 JUMP JUMPDEST SWAP4 SWAP3 POP POP POP JUMP JUMPDEST PUSH1 0x3 DUP2 LT PUSH2 0x290D JUMPI PUSH1 0x0 DUP1 REVERT JUMPDEST POP JUMP JUMPDEST PUSH1 0x0 DUP2 CALLDATALOAD SWAP1 POP PUSH2 0x291F DUP2 PUSH2 0x2900 JUMP JUMPDEST SWAP3 SWAP2 POP POP JUMP JUMPDEST PUSH1 0x0 PUSH1 0x20 DUP3 DUP5 SUB SLT ISZERO PUSH2 0x293B JUMPI PUSH2 0x293A PUSH2 0x255C JUMP JUMPDEST JUMPDEST PUSH1 0x0 PUSH2 0x2949 DUP5 DUP3 DUP6 ADD PUSH2 0x2910 JUMP JUMPDEST SWAP2 POP POP SWAP3 SWAP2 POP POP JUMP JUMPDEST PUSH1 0x0 DUP1 PUSH1 0x40 DUP4 DUP6 SUB SLT ISZERO PUSH2 0x2969 JUMPI PUSH2 0x2968 PUSH2 0x255C JUMP JUMPDEST JUMPDEST PUSH1 0x0 PUSH2 0x2977 DUP6 DUP3 DUP7 ADD PUSH2 0x25E5 JUMP JUMPDEST SWAP3 POP POP PUSH1 0x20 PUSH2 0x2988 DUP6 DUP3 DUP7 ADD PUSH2 0x25AF JUMP JUMPDEST SWAP2 POP POP SWAP3 POP SWAP3 SWAP1 POP JUMP JUMPDEST PUSH1 0x0 PUSH1 0x20 DUP3 ADD SWAP1 POP PUSH2 0x29A7 PUSH1 0x0 DUP4 ADD DUP5 PUSH2 0x2739 JUMP JUMPDEST SWAP3 SWAP2 POP POP JUMP JUMPDEST PUSH1 0x0 DUP1 PUSH1 0x0 DUP1 PUSH1 0x0 DUP1 PUSH1 0xA0 DUP8 DUP10 SUB SLT ISZERO PUSH2 0x29CA JUMPI PUSH2 0x29C9 PUSH2 0x255C JUMP JUMPDEST JUMPDEST PUSH1 0x0 PUSH2 0x29D8 DUP10 DUP3 DUP11 ADD PUSH2 0x25E5 JUMP JUMPDEST SWAP7 POP POP PUSH1 0x20 PUSH2 0x29E9 DUP10 DUP3 DUP11 ADD PUSH2 0x25E5 JUMP JUMPDEST SWAP6 POP POP PUSH1 0x40 DUP8 ADD CALLDATALOAD PUSH8 0xFFFFFFFFFFFFFFFF DUP2 GT ISZERO PUSH2 0x2A0A JUMPI PUSH2 0x2A09 PUSH2 0x2561 JUMP JUMPDEST JUMPDEST PUSH2 0x2A16 DUP10 DUP3 DUP11 ADD PUSH2 0x2609 JUMP JUMPDEST SWAP5 POP SWAP5 POP POP PUSH1 0x60 PUSH2 0x2A29 DUP10 DUP3 DUP11 ADD PUSH2 0x25E5 JUMP JUMPDEST SWAP3 POP POP PUSH1 0x80 PUSH2 0x2A3A DUP10 DUP3 DUP11 ADD PUSH2 0x25AF JUMP JUMPDEST SWAP2 POP POP SWAP3 SWAP6 POP SWAP3 SWAP6 POP SWAP3 SWAP6 JUMP JUMPDEST PUSH1 0x0 PUSH1 0x20 DUP3 ADD SWAP1 POP PUSH2 0x2A5C PUSH1 0x0 DUP4 ADD DUP5 PUSH2 0x2851 JUMP JUMPDEST SWAP3 SWAP2 POP POP JUMP JUMPDEST PUSH1 0x0 DUP1 REVERT JUMPDEST PUSH32 0x4E487B7100000000000000000000000000000000000000000000000000000000 PUSH1 0x0 MSTORE PUSH1 0x41 PUSH1 0x4 MSTORE PUSH1 0x24 PUSH1 0x0 REVERT JUMPDEST PUSH2 0x2A9F DUP3 PUSH2 0x278E JUMP JUMPDEST DUP2 ADD DUP2 DUP2 LT PUSH8 0xFFFFFFFFFFFFFFFF DUP3 GT OR ISZERO PUSH2 0x2ABE JUMPI PUSH2 0x2ABD PUSH2 0x2A67 JUMP JUMPDEST JUMPDEST DUP1 PUSH1 0x40 MSTORE POP POP POP JUMP JUMPDEST PUSH1 0x0 PUSH2 0x2AD1 PUSH2 0x2552 JUMP JUMPDEST SWAP1 POP PUSH2 0x2ADD DUP3 DUP3 PUSH2 0x2A96 JUMP JUMPDEST SWAP2 SWAP1 POP JUMP JUMPDEST PUSH1 0x0 PUSH8 0xFFFFFFFFFFFFFFFF DUP3 GT ISZERO PUSH2 0x2AFD JUMPI PUSH2 0x2AFC PUSH2 0x2A67 JUMP JUMPDEST JUMPDEST PUSH2 0x2B06 DUP3 PUSH2 0x278E JUMP JUMPDEST SWAP1 POP PUSH1 0x20 DUP2 ADD SWAP1 POP SWAP2 SWAP1 POP JUMP JUMPDEST DUP3 DUP2 DUP4 CALLDATACOPY PUSH1 0x0 DUP4 DUP4 ADD MSTORE POP POP POP JUMP JUMPDEST PUSH1 0x0 PUSH2 0x2B35 PUSH2 0x2B30 DUP5 PUSH2 0x2AE2 JUMP JUMPDEST PUSH2 0x2AC7 JUMP JUMPDEST SWAP1 POP DUP3 DUP2 MSTORE PUSH1 0x20 DUP2 ADD DUP5 DUP5 DUP5 ADD GT ISZERO PUSH2 0x2B51 JUMPI PUSH2 0x2B50 PUSH2 0x2A62 JUMP JUMPDEST JUMPDEST PUSH2 0x2B5C DUP5 DUP3 DUP6 PUSH2 0x2B13 JUMP JUMPDEST POP SWAP4 SWAP3 POP POP POP JUMP JUMPDEST PUSH1 0x0 DUP3 PUSH1 0x1F DUP4 ADD SLT PUSH2 0x2B79 JUMPI PUSH2 0x2B78 PUSH2 0x25FA JUMP JUMPDEST JUMPDEST DUP2 CALLDATALOAD PUSH2 0x2B89 DUP5 DUP3 PUSH1 0x20 DUP7 ADD PUSH2 0x2B22 JUMP JUMPDEST SWAP2 POP POP SWAP3 SWAP2 POP POP JUMP JUMPDEST PUSH1 0x0 DUP1 PUSH1 0x0 DUP1 PUSH1 0x80 DUP6 DUP8 SUB SLT ISZERO PUSH2 0x2BAC JUMPI PUSH2 0x2BAB PUSH2 0x255C JUMP JUMPDEST JUMPDEST PUSH1 0x0 PUSH2 0x2BBA DUP8 DUP3 DUP9 ADD PUSH2 0x25AF JUMP JUMPDEST SWAP5 POP POP PUSH1 0x20 PUSH2 0x2BCB DUP8 DUP3 DUP9 ADD PUSH2 0x25E5 JUMP JUMPDEST SWAP4 POP POP PUSH1 0x40 PUSH2 0x2BDC DUP8 DUP3 DUP9 ADD PUSH2 0x25E5 JUMP JUMPDEST SWAP3 POP POP PUSH1 0x60 DUP6 ADD CALLDATALOAD PUSH8 0xFFFFFFFFFFFFFFFF DUP2 GT ISZERO PUSH2 0x2BFD JUMPI PUSH2 0x2BFC PUSH2 0x2561 JUMP JUMPDEST JUMPDEST PUSH2 0x2C09 DUP8 DUP3 DUP9 ADD PUSH2 0x2B64 JUMP JUMPDEST SWAP2 POP POP SWAP3 SWAP6 SWAP2 SWAP5 POP SWAP3 POP JUMP JUMPDEST PUSH1 0x0 DUP1 PUSH1 0x40 DUP4 DUP6 SUB SLT ISZERO PUSH2 0x2C2C JUMPI PUSH2 0x2C2B PUSH2 0x255C JUMP JUMPDEST JUMPDEST PUSH1 0x0 DUP4 ADD CALLDATALOAD PUSH8 0xFFFFFFFFFFFFFFFF DUP2 GT ISZERO PUSH2 0x2C4A JUMPI PUSH2 0x2C49 PUSH2 0x2561 JUMP JUMPDEST JUMPDEST PUSH2 0x2C56 DUP6 DUP3 DUP7 ADD PUSH2 0x2B64 JUMP JUMPDEST SWAP3 POP POP PUSH1 0x20 PUSH2 0x2C67 DUP6 DUP3 DUP7 ADD PUSH2 0x25AF JUMP JUMPDEST SWAP2 POP POP SWAP3 POP SWAP3 SWAP1 POP JUMP JUMPDEST PUSH1 0x0 PUSH1 0x20 DUP3 DUP5 SUB SLT ISZERO PUSH2 0x2C87 JUMPI PUSH2 0x2C86 PUSH2 0x255C JUMP JUMPDEST JUMPDEST PUSH1 0x0 PUSH2 0x2C95 DUP5 DUP3 DUP6 ADD PUSH2 0x25AF JUMP JUMPDEST SWAP2 POP POP SWAP3 SWAP2 POP POP JUMP JUMPDEST PUSH1 0x0 PUSH1 0x40 DUP3 ADD SWAP1 POP PUSH2 0x2CB3 PUSH1 0x0 DUP4 ADD DUP6 PUSH2 0x28C8 JUMP JUMPDEST PUSH2 0x2CC0 PUSH1 0x20 DUP4 ADD DUP5 PUSH2 0x2739 JUMP JUMPDEST SWAP4 SWAP3 POP POP POP JUMP JUMPDEST PUSH1 0x0 PUSH1 0x20 DUP3 DUP5 SUB SLT ISZERO PUSH2 0x2CDD JUMPI PUSH2 0x2CDC PUSH2 0x255C JUMP JUMPDEST JUMPDEST PUSH1 0x0 DUP3 ADD CALLDATALOAD PUSH8 0xFFFFFFFFFFFFFFFF DUP2 GT ISZERO PUSH2 0x2CFB JUMPI PUSH2 0x2CFA PUSH2 0x2561 JUMP JUMPDEST JUMPDEST PUSH2 0x2D07 DUP5 DUP3 DUP6 ADD PUSH2 0x2B64 JUMP JUMPDEST SWAP2 POP POP SWAP3 SWAP2 POP POP JUMP JUMPDEST PUSH1 0x0 DUP1 PUSH1 0x0 DUP1 PUSH1 0x80 DUP6 DUP8 SUB SLT ISZERO PUSH2 0x2D2A JUMPI PUSH2 0x2D29 PUSH2 0x255C JUMP JUMPDEST JUMPDEST PUSH1 0x0 PUSH2 0x2D38 DUP8 DUP3 DUP9 ADD PUSH2 0x25AF JUMP JUMPDEST SWAP5 POP POP PUSH1 0x20 PUSH2 0x2D49 DUP8 DUP3 DUP9 ADD PUSH2 0x25E5 JUMP JUMPDEST SWAP4 POP POP PUSH1 0x40 PUSH2 0x2D5A DUP8 DUP3 DUP9 ADD PUSH2 0x25E5 JUMP JUMPDEST SWAP3 POP POP PUSH1 0x60 PUSH2 0x2D6B DUP8 DUP3 DUP9 ADD PUSH2 0x25AF JUMP JUMPDEST SWAP2 POP POP SWAP3 SWAP6 SWAP2 SWAP5 POP SWAP3 POP JUMP JUMPDEST POP JUMP JUMPDEST PUSH1 0x0 PUSH2 0x2D87 PUSH1 0x0 DUP4 PUSH2 0x2753 JUMP JUMPDEST SWAP2 POP PUSH2 0x2D92 DUP3 PUSH2 0x2D77 JUMP JUMPDEST PUSH1 0x0 DUP3 ADD SWAP1 POP SWAP2 SWAP1 POP JUMP JUMPDEST PUSH1 0x0 PUSH1 0x20 DUP3 ADD SWAP1 POP DUP2 DUP2 SUB PUSH1 0x0 DUP4 ADD MSTORE PUSH2 0x2DB6 DUP2 PUSH2 0x2D7A JUMP JUMPDEST SWAP1 POP SWAP2 SWAP1 POP JUMP JUMPDEST PUSH32 0xD09CD0B0D0B3D0B0D0B7D0B8D0BD20D0BDD0B520D181D0BED0BED182D0B2D0B5 PUSH1 0x0 DUP3 ADD MSTORE PUSH32 0xD182D181D0B2D183D0B5D18220D0BED182D0BFD180D0B0D0B2D0B8D182D0B5D0 PUSH1 0x20 DUP3 ADD MSTORE PUSH32 0xBBD18E0000000000000000000000000000000000000000000000000000000000 PUSH1 0x40 DUP3 ADD MSTORE POP JUMP JUMPDEST PUSH1 0x0 PUSH2 0x2E3F PUSH1 0x43 DUP4 PUSH2 0x2753 JUMP JUMPDEST SWAP2 POP PUSH2 0x2E4A DUP3 PUSH2 0x2DBD JUMP JUMPDEST PUSH1 0x60 DUP3 ADD SWAP1 POP SWAP2 SWAP1 POP JUMP JUMPDEST PUSH1 0x0 PUSH1 0x20 DUP3 ADD SWAP1 POP DUP2 DUP2 SUB PUSH1 0x0 DUP4 ADD MSTORE PUSH2 0x2E6E DUP2 PUSH2 0x2E32 JUMP JUMPDEST SWAP1 POP SWAP2 SWAP1 POP JUMP JUMPDEST PUSH32 0x4E487B7100000000000000000000000000000000000000000000000000000000 PUSH1 0x0 MSTORE PUSH1 0x22 PUSH1 0x4 MSTORE PUSH1 0x24 PUSH1 0x0 REVERT JUMPDEST PUSH1 0x0 PUSH1 0x2 DUP3 DIV SWAP1 POP PUSH1 0x1 DUP3 AND DUP1 PUSH2 0x2EBC JUMPI PUSH1 0x7F DUP3 AND SWAP2 POP JUMPDEST PUSH1 0x20 DUP3 LT DUP2 SUB PUSH2 0x2ECF JUMPI PUSH2 0x2ECE PUSH2 0x2E75 JUMP JUMPDEST JUMPDEST POP SWAP2 SWAP1 POP JUMP JUMPDEST PUSH1 0x0 DUP2 SWAP1 POP DUP2 PUSH1 0x0 MSTORE PUSH1 0x20 PUSH1 0x0 KECCAK256 SWAP1 POP SWAP2 SWAP1 POP JUMP JUMPDEST PUSH1 0x0 PUSH1 0x20 PUSH1 0x1F DUP4 ADD DIV SWAP1 POP SWAP2 SWAP1 POP JUMP JUMPDEST PUSH1 0x0 DUP3 DUP3 SHL SWAP1 POP SWAP3 SWAP2 POP POP JUMP JUMPDEST PUSH1 0x0 PUSH1 0x8 DUP4 MUL PUSH2 0x2F37 PUSH32 0xFFFFFFFFFFFFFFFFFFFFFFFFFFFFFFFFFFFFFFFFFFFFFFFFFFFFFFFFFFFFFFFF DUP3 PUSH2 0x2EFA JUMP JUMPDEST PUSH2 0x2F41 DUP7 DUP4 PUSH2 0x2EFA JUMP JUMPDEST SWAP6 POP DUP1 NOT DUP5 AND SWAP4 POP DUP1 DUP7 AND DUP5 OR SWAP3 POP POP POP SWAP4 SWAP3 POP POP POP JUMP JUMPDEST PUSH1 0x0 DUP2 SWAP1 POP SWAP2 SWAP1 POP JUMP JUMPDEST PUSH1 0x0 PUSH2 0x2F7E PUSH2 0x2F79 PUSH2 0x2F74 DUP5 PUSH2 0x25C4 JUMP JUMPDEST PUSH2 0x2F59 JUMP JUMPDEST PUSH2 0x25C4 JUMP JUMPDEST SWAP1 POP SWAP2 SWAP1 POP JUMP JUMPDEST PUSH1 0x0 DUP2 SWAP1 POP SWAP2 SWAP1 POP JUMP JUMPDEST PUSH2 0x2F98 DUP4 PUSH2 0x2F63 JUMP JUMPDEST PUSH2 0x2FAC PUSH2 0x2FA4 DUP3 PUSH2 0x2F85 JUMP JUMPDEST DUP5 DUP5 SLOAD PUSH2 0x2F07 JUMP JUMPDEST DUP3 SSTORE POP POP POP POP JUMP JUMPDEST PUSH1 0x0 SWAP1 JUMP JUMPDEST PUSH2 0x2FC1 PUSH2 0x2FB4 JUMP JUMPDEST PUSH2 0x2FCC DUP2 DUP5 DUP5 PUSH2 0x2F8F JUMP JUMPDEST POP POP POP JUMP JUMPDEST JUMPDEST DUP2 DUP2 LT ISZERO PUSH2 0x2FF0 JUMPI PUSH2 0x2FE5 PUSH1 0x0 DUP3 PUSH2 0x2FB9 JUMP JUMPDEST PUSH1 0x1 DUP2 ADD SWAP1 POP PUSH2 0x2FD2 JUMP JUMPDEST POP POP JUMP JUMPDEST PUSH1 0x1F DUP3 GT ISZERO PUSH2 0x3035 JUMPI PUSH2 0x3006 DUP2 PUSH2 0x2ED5 JUMP JUMPDEST PUSH2 0x300F DUP5 PUSH2 0x2EEA JUMP JUMPDEST DUP2 ADD PUSH1 0x20 DUP6 LT ISZERO PUSH2 0x301E JUMPI DUP2 SWAP1 POP JUMPDEST PUSH2 0x3032 PUSH2 0x302A DUP6 PUSH2 0x2EEA JUMP JUMPDEST DUP4 ADD DUP3 PUSH2 0x2FD1 JUMP JUMPDEST POP POP JUMPDEST POP POP POP JUMP JUMPDEST PUSH1 0x0 DUP3 DUP3 SHR SWAP1 POP SWAP3 SWAP2 POP POP JUMP JUMPDEST PUSH1 0x0 PUSH2 0x3058 PUSH1 0x0 NOT DUP5 PUSH1 0x8 MUL PUSH2 0x303A JUMP JUMPDEST NOT DUP1 DUP4 AND SWAP2 POP POP SWAP3 SWAP2 POP POP JUMP JUMPDEST PUSH1 0x0 PUSH2 0x3071 DUP4 DUP4 PUSH2 0x3047 JUMP JUMPDEST SWAP2 POP DUP3 PUSH1 0x2 MUL DUP3 OR SWAP1 POP SWAP3 SWAP2 POP POP JUMP JUMPDEST PUSH2 0x308A DUP3 PUSH2 0x2748 JUMP JUMPDEST PUSH8 0xFFFFFFFFFFFFFFFF DUP2 GT ISZERO PUSH2 0x30A3 JUMPI PUSH2 0x30A2 PUSH2 0x2A67 JUMP JUMPDEST JUMPDEST PUSH2 0x30AD DUP3 SLOAD PUSH2 0x2EA4 JUMP JUMPDEST PUSH2 0x30B8 DUP3 DUP3 DUP6 PUSH2 0x2FF4 JUMP JUMPDEST PUSH1 0x0 PUSH1 0x20 SWAP1 POP PUSH1 0x1F DUP4 GT PUSH1 0x1 DUP2 EQ PUSH2 0x30EB JUMPI PUSH1 0x0 DUP5 ISZERO PUSH2 0x30D9 JUMPI DUP3 DUP8 ADD MLOAD SWAP1 POP JUMPDEST PUSH2 0x30E3 DUP6 DUP3 PUSH2 0x3065 JUMP JUMPDEST DUP7 SSTORE POP PUSH2 0x314B JUMP JUMPDEST PUSH1 0x1F NOT DUP5 AND PUSH2 0x30F9 DUP7 PUSH2 0x2ED5 JUMP JUMPDEST PUSH1 0x0 JUMPDEST DUP3 DUP2 LT ISZERO PUSH2 0x3121 JUMPI DUP5 DUP10 ADD MLOAD DUP3 SSTORE PUSH1 0x1 DUP3 ADD SWAP2 POP PUSH1 0x20 DUP6 ADD SWAP5 POP PUSH1 0x20 DUP2 ADD SWAP1 POP PUSH2 0x30FC JUMP JUMPDEST DUP7 DUP4 LT ISZERO PUSH2 0x313E JUMPI DUP5 DUP10 ADD MLOAD PUSH2 0x313A PUSH1 0x1F DUP10 AND DUP3 PUSH2 0x3047 JUMP JUMPDEST DUP4 SSTORE POP JUMPDEST PUSH1 0x1 PUSH1 0x2 DUP9 MUL ADD DUP9 SSTORE POP POP POP JUMPDEST POP POP POP POP POP POP JUMP JUMPDEST PUSH32 0x4E487B7100000000000000000000000000000000000000000000000000000000 PUSH1 0x0 MSTORE PUSH1 0x32 PUSH1 0x4 MSTORE PUSH1 0x24 PUSH1 0x0 REVERT JUMPDEST PUSH32 0x4E487B7100000000000000000000000000000000000000000000000000000000 PUSH1 0x0 MSTORE PUSH1 0x11 PUSH1 0x4 MSTORE PUSH1 0x24 PUSH1 0x0 REVERT JUMPDEST PUSH1 0x0 PUSH2 0x31BC DUP3 PUSH2 0x25C4 JUMP JUMPDEST SWAP2 POP PUSH2 0x31C7 DUP4 PUSH2 0x25C4 JUMP JUMPDEST SWAP3 POP DUP3 DUP3 MUL PUSH2 0x31D5 DUP2 PUSH2 0x25C4 JUMP JUMPDEST SWAP2 POP DUP3 DUP3 DIV DUP5 EQ DUP4 ISZERO OR PUSH2 0x31EC JUMPI PUSH2 0x31EB PUSH2 0x3182 JUMP JUMPDEST JUMPDEST POP SWAP3 SWAP2 POP POP JUMP JUMPDEST PUSH1 0x0 PUSH2 0x31FE DUP3 PUSH2 0x25C4 JUMP JUMPDEST SWAP2 POP PUSH2 0x3209 DUP4 PUSH2 0x25C4 JUMP JUMPDEST SWAP3 POP DUP3 DUP3 ADD SWAP1 POP DUP1 DUP3 GT ISZERO PUSH2 0x3221 JUMPI PUSH2 0x3220 PUSH2 0x3182 JUMP JUMPDEST JUMPDEST SWAP3 SWAP2 POP POP JUMP JUMPDEST PUSH1 0x0 PUSH2 0x3232 DUP3 PUSH2 0x25C4 JUMP JUMPDEST SWAP2 POP PUSH2 0x323D DUP4 PUSH2 0x25C4 JUMP JUMPDEST SWAP3 POP DUP3 DUP3 SUB SWAP1 POP DUP2 DUP2 GT ISZERO PUSH2 0x3255 JUMPI PUSH2 0x3254 PUSH2 0x3182 JUMP JUMPDEST JUMPDEST SWAP3 SWAP2 POP POP JUMP JUMPDEST PUSH1 0x0 PUSH2 0x3266 DUP3 PUSH2 0x25C4 JUMP JUMPDEST SWAP2 POP PUSH32 0xFFFFFFFFFFFFFFFFFFFFFFFFFFFFFFFFFFFFFFFFFFFFFFFFFFFFFFFFFFFFFFFF DUP3 SUB PUSH2 0x3298 JUMPI PUSH2 0x3297 PUSH2 0x3182 JUMP JUMPDEST JUMPDEST PUSH1 0x1 DUP3 ADD SWAP1 POP SWAP2 SWAP1 POP JUMP JUMPDEST PUSH1 0x0 DUP2 SWAP1 POP SWAP2 SWAP1 POP JUMP JUMPDEST PUSH2 0x32BE PUSH2 0x32B9 DUP3 PUSH2 0x25C4 JUMP JUMPDEST PUSH2 0x32A3 JUMP JUMPDEST DUP3 MSTORE POP POP JUMP JUMPDEST PUSH1 0x0 DUP2 PUSH1 0x60 SHL SWAP1 POP SWAP2 SWAP1 POP JUMP JUMPDEST PUSH1 0x0 PUSH2 0x32DC DUP3 PUSH2 0x32C4 JUMP JUMPDEST SWAP1 POP SWAP2 SWAP1 POP JUMP JUMPDEST PUSH1 0x0 PUSH2 0x32EE DUP3 PUSH2 0x32D1 JUMP JUMPDEST SWAP1 POP SWAP2 SWAP1 POP JUMP JUMPDEST PUSH2 0x3306 PUSH2 0x3301 DUP3 PUSH2 0x2586 JUMP JUMPDEST PUSH2 0x32E3 JUMP JUMPDEST DUP3 MSTORE POP POP JUMP JUMPDEST PUSH1 0x0 PUSH2 0x3318 DUP3 DUP7 PUSH2 0x32AD JUMP JUMPDEST PUSH1 0x20 DUP3 ADD SWAP2 POP PUSH2 0x3328 DUP3 DUP6 PUSH2 0x32F5 JUMP JUMPDEST PUSH1 0x14 DUP3 ADD SWAP2 POP PUSH2 0x3338 DUP3 DUP5 PUSH2 0x32AD JUMP JUMPDEST PUSH1 0x20 DUP3 ADD SWAP2 POP DUP2 SWAP1 POP SWAP5 SWAP4 POP POP POP POP JUMP JUMPDEST PUSH32 0x4E487B7100000000000000000000000000000000000000000000000000000000 PUSH1 0x0 MSTORE PUSH1 0x12 PUSH1 0x4 MSTORE PUSH1 0x24 PUSH1 0x0 REVERT JUMPDEST PUSH1 0x0 PUSH2 0x3383 DUP3 PUSH2 0x25C4 JUMP JUMPDEST SWAP2 POP PUSH2 0x338E DUP4 PUSH2 0x25C4 JUMP JUMPDEST SWAP3 POP DUP3 PUSH2 0x339E JUMPI PUSH2 0x339D PUSH2 0x3349 JUMP JUMPDEST JUMPDEST DUP3 DUP3 MOD SWAP1 POP SWAP3 SWAP2 POP POP JUMP JUMPDEST PUSH1 0x0 PUSH2 0x33B4 DUP3 PUSH2 0x25C4 JUMP JUMPDEST SWAP2 POP PUSH2 0x33BF DUP4 PUSH2 0x25C4 JUMP JUMPDEST SWAP3 POP DUP3 PUSH2 0x33CF JUMPI PUSH2 0x33CE PUSH2 0x3349 JUMP JUMPDEST JUMPDEST DUP3 DUP3 DIV SWAP1 POP SWAP3 SWAP2 POP POP JUMP JUMPDEST PUSH32 0x507572636861736520616D6F756E74206D757374206265206772656174657220 PUSH1 0x0 DUP3 ADD MSTORE PUSH32 0x7468616E20300000000000000000000000000000000000000000000000000000 PUSH1 0x20 DUP3 ADD MSTORE POP JUMP JUMPDEST PUSH1 0x0 PUSH2 0x3436 PUSH1 0x26 DUP4 PUSH2 0x2753 JUMP JUMPDEST SWAP2 POP PUSH2 0x3441 DUP3 PUSH2 0x33DA JUMP JUMPDEST PUSH1 0x40 DUP3 ADD SWAP1 POP SWAP2 SWAP1 POP JUMP JUMPDEST PUSH1 0x0 PUSH1 0x20 DUP3 ADD SWAP1 POP DUP2 DUP2 SUB PUSH1 0x0 DUP4 ADD MSTORE PUSH2 0x3465 DUP2 PUSH2 0x3429 JUMP JUMPDEST SWAP1 POP SWAP2 SWAP1 POP JUMP JUMPDEST PUSH32 0x496E76616C69642070726F647563742049440000000000000000000000000000 PUSH1 0x0 DUP3 ADD MSTORE POP JUMP JUMPDEST PUSH1 0x0 PUSH2 0x34A2 PUSH1 0x12 DUP4 PUSH2 0x2753 JUMP JUMPDEST SWAP2 POP PUSH2 0x34AD DUP3 PUSH2 0x346C JUMP JUMPDEST PUSH1 0x20 DUP3 ADD SWAP1 POP SWAP2 SWAP1 POP JUMP JUMPDEST PUSH1 0x0 PUSH1 0x20 DUP3 ADD SWAP1 POP DUP2 DUP2 SUB PUSH1 0x0 DUP4 ADD MSTORE PUSH2 0x34D1 DUP2 PUSH2 0x3495 JUMP JUMPDEST SWAP1 POP SWAP2 SWAP1 POP JUMP JUMPDEST PUSH32 0x4E6F7420656E6F7567682073746F636B20617661696C61626C65000000000000 PUSH1 0x0 DUP3 ADD MSTORE POP JUMP JUMPDEST PUSH1 0x0 PUSH2 0x350E PUSH1 0x1A DUP4 PUSH2 0x2753 JUMP JUMPDEST SWAP2 POP PUSH2 0x3519 DUP3 PUSH2 0x34D8 JUMP JUMPDEST PUSH1 0x20 DUP3 ADD SWAP1 POP SWAP2 SWAP1 POP JUMP JUMPDEST PUSH1 0x0 PUSH1 0x20 DUP3 ADD SWAP1 POP DUP2 DUP2 SUB PUSH1 0x0 DUP4 ADD MSTORE PUSH2 0x353D DUP2 PUSH2 0x3501 JUMP JUMPDEST SWAP1 POP SWAP2 SWAP1 POP JUMP JUMPDEST PUSH1 0x0 DUP2 SWAP1 POP SWAP3 SWAP2 POP POP JUMP JUMPDEST PUSH1 0x0 PUSH2 0x355A DUP3 PUSH2 0x2748 JUMP JUMPDEST PUSH2 0x3564 DUP2 DUP6 PUSH2 0x3544 JUMP JUMPDEST SWAP4 POP PUSH2 0x3574 DUP2 DUP6 PUSH1 0x20 DUP7 ADD PUSH2 0x2764 JUMP JUMPDEST DUP1 DUP5 ADD SWAP2 POP POP SWAP3 SWAP2 POP POP JUMP JUMPDEST PUSH1 0x0 PUSH2 0x358C DUP3 DUP5 PUSH2 0x354F JUMP JUMPDEST SWAP2 POP DUP2 SWAP1 POP SWAP3 SWAP2 POP POP JUMP JUMPDEST PUSH32 0x496E73756666696369656E742066756E64732073656E74000000000000000000 PUSH1 0x0 DUP3 ADD MSTORE POP JUMP JUMPDEST PUSH1 0x0 PUSH2 0x35CD PUSH1 0x17 DUP4 PUSH2 0x2753 JUMP JUMPDEST SWAP2 POP PUSH2 0x35D8 DUP3 PUSH2 0x3597 JUMP JUMPDEST PUSH1 0x20 DUP3 ADD SWAP1 POP SWAP2 SWAP1 POP JUMP JUMPDEST PUSH1 0x0 PUSH1 0x20 DUP3 ADD SWAP1 POP DUP2 DUP2 SUB PUSH1 0x0 DUP4 ADD MSTORE PUSH2 0x35FC DUP2 PUSH2 0x35C0 JUMP JUMPDEST SWAP1 POP SWAP2 SWAP1 POP JUMP JUMPDEST PUSH1 0x0 DUP2 SWAP1 POP SWAP3 SWAP2 POP POP JUMP JUMPDEST PUSH1 0x0 DUP2 SWAP1 POP DUP2 PUSH1 0x0 MSTORE PUSH1 0x20 PUSH1 0x0 KECCAK256 SWAP1 POP SWAP2 SWAP1 POP JUMP JUMPDEST PUSH1 0x0 DUP2 SLOAD PUSH2 0x3630 DUP2 PUSH2 0x2EA4 JUMP JUMPDEST PUSH2 0x363A DUP2 DUP7 PUSH2 0x3603 JUMP JUMPDEST SWAP5 POP PUSH1 0x1 DUP3 AND PUSH1 0x0 DUP2 EQ PUSH2 0x3655 JUMPI PUSH1 0x1 DUP2 EQ PUSH2 0x366A JUMPI PUSH2 0x369D JUMP JUMPDEST PUSH1 0xFF NOT DUP4 AND DUP7 MSTORE DUP2 ISZERO ISZERO DUP3 MUL DUP7 ADD SWAP4 POP PUSH2 0x369D JUMP JUMPDEST PUSH2 0x3673 DUP6 PUSH2 0x360E JUMP JUMPDEST PUSH1 0x0 JUMPDEST DUP4 DUP2 LT ISZERO PUSH2 0x3695 JUMPI DUP2 SLOAD DUP2 DUP10 ADD MSTORE PUSH1 0x1 DUP3 ADD SWAP2 POP PUSH1 0x20 DUP2 ADD SWAP1 POP PUSH2 0x3676 JUMP JUMPDEST DUP4 DUP9 ADD SWAP6 POP POP POP JUMPDEST POP POP POP SWAP3 SWAP2 POP POP JUMP JUMPDEST PUSH1 0x0 PUSH2 0x36B2 DUP3 DUP5 PUSH2 0x3623 JUMP JUMPDEST SWAP2 POP DUP2 SWAP1 POP SWAP3 SWAP2 POP POP JUMP INVALID LOG2 PUSH5 0x6970667358 0x22 SLT KECCAK256 EXTCODECOPY RETURNDATACOPY 0xF7 TIMESTAMP 0x1E 0x2F 0xE3 PUSH2 0x9A3A SWAP13 0x5C PUSH1 0x2D PUSH4 0x3097DFDE GT 0xD5 DUP10 PUSH4 0xAC0254D5 EXP CODECOPY 0xAE CREATE2 SWAP12 PUSH5 0x736F6C6343 STOP ADDMOD SLT STOP CALLER "
				},
				"gasEstimates": {
					"creation": {
						"codeDepositCost": "2813400",
						"executionCost": "27335",
						"totalCost": "2840735"
					},
					"external": {
						"addItems(address,uint256,uint256,string,uint256)": "infinite",
						"addItemsSupplier(uint256,uint256,string,uint256,address)": "infinite",
						"approveChangeRole(uint256)": "35790",
						"changeRole(uint8)": "73456",
						"genRef(string,address)": "infinite",
						"makeMarket()": "29740",
						"makeSupplier()": "29719",
						"makeUser()": "29695",
						"owner()": "2581",
						"purchase(address,uint256,uint256,string)": "infinite",
						"randMod(uint256)": "infinite",
						"referrals(string)": "infinite",
						"refillStore(address,uint256,uint256,address)": "infinite",
						"refund(address,uint256)": "infinite",
						"showProductsSupl(uint256,address)": "infinite",
						"tickets(uint256)": "7397",
						"userProducts(address,uint256)": "infinite",
						"users(address)": "5193",
						"withdrawBal(address)": "infinite"
					}
				},
				"methodIdentifiers": {
					"addItems(address,uint256,uint256,string,uint256)": "03194133",
					"addItemsSupplier(uint256,uint256,string,uint256,address)": "861c2b6d",
					"approveChangeRole(uint256)": "6f764708",
					"changeRole(uint8)": "55dea0b3",
					"genRef(string,address)": "a1ba90b6",
					"makeMarket()": "66d0dc67",
					"makeSupplier()": "3dfe7dee",
					"makeUser()": "d18a524a",
					"owner()": "8da5cb5b",
					"purchase(address,uint256,uint256,string)": "9f1cd587",
					"randMod(uint256)": "805553e8",
					"referrals(string)": "d55768dd",
					"refillStore(address,uint256,uint256,address)": "fecd8f79",
					"refund(address,uint256)": "410085df",
					"showProductsSupl(uint256,address)": "5cd58a90",
					"tickets(uint256)": "50b44712",
					"userProducts(address,uint256)": "3d527883",
					"users(address)": "a87430ba",
					"withdrawBal(address)": "f67a2ad1"
				}
			},
			"storageLayout": {
				"storage": [
					{
						"astId": 9,
						"contract": "contracts/MarketPlace.sol:MarketPlace",
						"label": "tickets",
						"offset": 0,
						"slot": "0",
						"type": "t_array(t_struct(Ticket)26_storage)dyn_storage"
					},
					{
						"astId": 11,
						"contract": "contracts/MarketPlace.sol:MarketPlace",
						"label": "owner",
						"offset": 0,
						"slot": "1",
						"type": "t_address"
					},
					{
						"astId": 46,
						"contract": "contracts/MarketPlace.sol:MarketPlace",
						"label": "users",
						"offset": 0,
						"slot": "2",
						"type": "t_mapping(t_address,t_struct(User)32_storage)"
					},
					{
						"astId": 52,
						"contract": "contracts/MarketPlace.sol:MarketPlace",
						"label": "userProducts",
						"offset": 0,
						"slot": "3",
						"type": "t_mapping(t_address,t_array(t_struct(Product)41_storage)dyn_storage)"
					},
					{
						"astId": 56,
						"contract": "contracts/MarketPlace.sol:MarketPlace",
						"label": "referrals",
						"offset": 0,
						"slot": "4",
						"type": "t_mapping(t_string_memory_ptr,t_address)"
					}
				],
				"types": {
					"t_address": {
						"encoding": "inplace",
						"label": "address",
						"numberOfBytes": "20"
					},
					"t_array(t_struct(Product)41_storage)dyn_storage": {
						"base": "t_struct(Product)41_storage",
						"encoding": "dynamic_array",
						"label": "struct MarketPlace.Product[]",
						"numberOfBytes": "32"
					},
					"t_array(t_struct(Ticket)26_storage)dyn_storage": {
						"base": "t_struct(Ticket)26_storage",
						"encoding": "dynamic_array",
						"label": "struct MarketPlace.Ticket[]",
						"numberOfBytes": "32"
					},
					"t_enum(Role)5": {
						"encoding": "inplace",
						"label": "enum MarketPlace.Role",
						"numberOfBytes": "1"
					},
					"t_mapping(t_address,t_array(t_struct(Product)41_storage)dyn_storage)": {
						"encoding": "mapping",
						"key": "t_address",
						"label": "mapping(address => struct MarketPlace.Product[])",
						"numberOfBytes": "32",
						"value": "t_array(t_struct(Product)41_storage)dyn_storage"
					},
					"t_mapping(t_address,t_struct(User)32_storage)": {
						"encoding": "mapping",
						"key": "t_address",
						"label": "mapping(address => struct MarketPlace.User)",
						"numberOfBytes": "32",
						"value": "t_struct(User)32_storage"
					},
					"t_mapping(t_string_memory_ptr,t_address)": {
						"encoding": "mapping",
						"key": "t_string_memory_ptr",
						"label": "mapping(string => address)",
						"numberOfBytes": "32",
						"value": "t_address"
					},
					"t_string_memory_ptr": {
						"encoding": "bytes",
						"label": "string",
						"numberOfBytes": "32"
					},
					"t_string_storage": {
						"encoding": "bytes",
						"label": "string",
						"numberOfBytes": "32"
					},
					"t_struct(Product)41_storage": {
						"encoding": "inplace",
						"label": "struct MarketPlace.Product",
						"members": [
							{
								"astId": 34,
								"contract": "contracts/MarketPlace.sol:MarketPlace",
								"label": "inStock",
								"offset": 0,
								"slot": "0",
								"type": "t_uint256"
							},
							{
								"astId": 36,
								"contract": "contracts/MarketPlace.sol:MarketPlace",
								"label": "price",
								"offset": 0,
								"slot": "1",
								"type": "t_uint256"
							},
							{
								"astId": 38,
								"contract": "contracts/MarketPlace.sol:MarketPlace",
								"label": "name",
								"offset": 0,
								"slot": "2",
								"type": "t_string_storage"
							},
							{
								"astId": 40,
								"contract": "contracts/MarketPlace.sol:MarketPlace",
								"label": "expDate",
								"offset": 0,
								"slot": "3",
								"type": "t_uint256"
							}
						],
						"numberOfBytes": "128"
					},
					"t_struct(Ticket)26_storage": {
						"encoding": "inplace",
						"label": "struct MarketPlace.Ticket",
						"members": [
							{
								"astId": 22,
								"contract": "contracts/MarketPlace.sol:MarketPlace",
								"label": "userAddr",
								"offset": 0,
								"slot": "0",
								"type": "t_address"
							},
							{
								"astId": 25,
								"contract": "contracts/MarketPlace.sol:MarketPlace",
								"label": "role",
								"offset": 20,
								"slot": "0",
								"type": "t_enum(Role)5"
							}
						],
						"numberOfBytes": "32"
					},
					"t_struct(User)32_storage": {
						"encoding": "inplace",
						"label": "struct MarketPlace.User",
						"members": [
							{
								"astId": 29,
								"contract": "contracts/MarketPlace.sol:MarketPlace",
								"label": "role",
								"offset": 0,
								"slot": "0",
								"type": "t_enum(Role)5"
							},
							{
								"astId": 31,
								"contract": "contracts/MarketPlace.sol:MarketPlace",
								"label": "balance",
								"offset": 0,
								"slot": "1",
								"type": "t_uint256"
							}
						],
						"numberOfBytes": "64"
					},
					"t_uint256": {
						"encoding": "inplace",
						"label": "uint256",
						"numberOfBytes": "32"
					}
				}
			},
			"userdoc": {
				"kind": "user",
				"methods": {},
				"version": 1
			}
		}
	}
}