{
	"contracts/edits.sol": {
		"MarketPlace": {
			"abi": [
				{
					"inputs": [],
					"stateMutability": "nonpayable",
					"type": "constructor"
				},
				{
					"inputs": [
						{
							"internalType": "bool",
							"name": "_status",
							"type": "bool"
						},
						{
							"internalType": "uint256",
							"name": "_deliveryId",
							"type": "uint256"
						}
					],
					"name": "acceptDelivery",
					"outputs": [],
					"stateMutability": "payable",
					"type": "function"
				},
				{
					"inputs": [
						{
							"internalType": "uint256",
							"name": "_inStock",
							"type": "uint256"
						},
						{
							"internalType": "uint256",
							"name": "_price",
							"type": "uint256"
						},
						{
							"internalType": "string",
							"name": "_name",
							"type": "string"
						},
						{
							"internalType": "uint256",
							"name": "_expDate",
							"type": "uint256"
						}
					],
					"name": "addItemsMarket",
					"outputs": [],
					"stateMutability": "nonpayable",
					"type": "function"
				},
				{
					"inputs": [
						{
							"internalType": "uint256",
							"name": "_inStock",
							"type": "uint256"
						},
						{
							"internalType": "uint256",
							"name": "_price",
							"type": "uint256"
						},
						{
							"internalType": "string",
							"name": "_name",
							"type": "string"
						},
						{
							"internalType": "uint256",
							"name": "_expDate",
							"type": "uint256"
						},
						{
							"internalType": "address",
							"name": "_addressSupp",
							"type": "address"
						}
					],
					"name": "addItemsSupplier",
					"outputs": [],
					"stateMutability": "nonpayable",
					"type": "function"
				},
				{
					"inputs": [
						{
							"internalType": "uint256",
							"name": "_idTicket",
							"type": "uint256"
						}
					],
					"name": "approveChangeRole",
					"outputs": [],
					"stateMutability": "nonpayable",
					"type": "function"
				},
				{
					"inputs": [
						{
							"internalType": "bool",
							"name": "_status",
							"type": "bool"
						},
						{
							"internalType": "uint256",
							"name": "_deliveryId",
							"type": "uint256"
						}
					],
					"name": "approveDelivery",
					"outputs": [],
					"stateMutability": "nonpayable",
					"type": "function"
				},
				{
					"inputs": [
						{
							"internalType": "enum MarketPlace.Role",
							"name": "_role",
							"type": "uint8"
						}
					],
					"name": "changeRole",
					"outputs": [],
					"stateMutability": "nonpayable",
					"type": "function"
				},
				{
					"inputs": [
						{
							"internalType": "uint256",
							"name": "",
							"type": "uint256"
						}
					],
					"name": "deliveryOrders",
					"outputs": [
						{
							"internalType": "address",
							"name": "userAddr",
							"type": "address"
						},
						{
							"internalType": "address",
							"name": "shop",
							"type": "address"
						},
						{
							"internalType": "enum MarketPlace.Status",
							"name": "status",
							"type": "uint8"
						},
						{
							"internalType": "string",
							"name": "trackNumber",
							"type": "string"
						},
						{
							"internalType": "uint256",
							"name": "productId",
							"type": "uint256"
						},
						{
							"internalType": "uint256",
							"name": "amount",
							"type": "uint256"
						}
					],
					"stateMutability": "view",
					"type": "function"
				},
				{
					"inputs": [
						{
							"internalType": "string",
							"name": "_nameRef",
							"type": "string"
						},
						{
							"internalType": "address",
							"name": "_user",
							"type": "address"
						}
					],
					"name": "genRef",
					"outputs": [],
					"stateMutability": "nonpayable",
					"type": "function"
				},
				{
					"inputs": [
						{
							"internalType": "address",
							"name": "_shop",
							"type": "address"
						},
						{
							"internalType": "uint256",
							"name": "_productId",
							"type": "uint256"
						},
						{
							"internalType": "uint256",
							"name": "_amount",
							"type": "uint256"
						}
					],
					"name": "makeDelivery",
					"outputs": [],
					"stateMutability": "nonpayable",
					"type": "function"
				},
				{
					"inputs": [],
					"name": "makeMarket",
					"outputs": [],
					"stateMutability": "nonpayable",
					"type": "function"
				},
				{
					"inputs": [],
					"name": "makeSupplier",
					"outputs": [],
					"stateMutability": "nonpayable",
					"type": "function"
				},
				{
					"inputs": [],
					"name": "makeUser",
					"outputs": [],
					"stateMutability": "nonpayable",
					"type": "function"
				},
				{
					"inputs": [
						{
							"internalType": "address",
							"name": "",
							"type": "address"
						},
						{
							"internalType": "uint256",
							"name": "",
							"type": "uint256"
						}
					],
					"name": "marketProducts",
					"outputs": [
						{
							"internalType": "address",
							"name": "userAddress",
							"type": "address"
						},
						{
							"internalType": "uint256",
							"name": "inStock",
							"type": "uint256"
						},
						{
							"internalType": "uint256",
							"name": "price",
							"type": "uint256"
						},
						{
							"internalType": "string",
							"name": "name",
							"type": "string"
						},
						{
							"internalType": "uint256",
							"name": "expDate",
							"type": "uint256"
						}
					],
					"stateMutability": "view",
					"type": "function"
				},
				{
					"inputs": [],
					"name": "owner",
					"outputs": [
						{
							"internalType": "address",
							"name": "",
							"type": "address"
						}
					],
					"stateMutability": "view",
					"type": "function"
				},
				{
					"inputs": [
						{
							"internalType": "address",
							"name": "_shop",
							"type": "address"
						},
						{
							"internalType": "uint256",
							"name": "_amount",
							"type": "uint256"
						},
						{
							"internalType": "uint256",
							"name": "_id",
							"type": "uint256"
						},
						{
							"internalType": "string",
							"name": "_ref",
							"type": "string"
						}
					],
					"name": "purchase",
					"outputs": [],
					"stateMutability": "payable",
					"type": "function"
				},
				{
					"inputs": [
						{
							"internalType": "uint256",
							"name": "_modulus",
							"type": "uint256"
						}
					],
					"name": "randMod",
					"outputs": [
						{
							"internalType": "uint256",
							"name": "",
							"type": "uint256"
						}
					],
					"stateMutability": "view",
					"type": "function"
				},
				{
					"inputs": [
						{
							"internalType": "string",
							"name": "",
							"type": "string"
						}
					],
					"name": "referrals",
					"outputs": [
						{
							"internalType": "address",
							"name": "",
							"type": "address"
						}
					],
					"stateMutability": "view",
					"type": "function"
				},
				{
					"inputs": [
						{
							"internalType": "address",
							"name": "_shop",
							"type": "address"
						},
						{
							"internalType": "uint256",
							"name": "_productId",
							"type": "uint256"
						},
						{
							"internalType": "uint256",
							"name": "_amount",
							"type": "uint256"
						},
						{
							"internalType": "address",
							"name": "_supplier",
							"type": "address"
						}
					],
					"name": "refillStore",
					"outputs": [],
					"stateMutability": "payable",
					"type": "function"
				},
				{
					"inputs": [
						{
							"internalType": "address",
							"name": "_shop",
							"type": "address"
						},
						{
							"internalType": "uint256",
							"name": "_productId",
							"type": "uint256"
						}
					],
					"name": "refund",
					"outputs": [],
					"stateMutability": "nonpayable",
					"type": "function"
				},
				{
					"inputs": [
						{
							"internalType": "address",
							"name": "",
							"type": "address"
						},
						{
							"internalType": "uint256",
							"name": "",
							"type": "uint256"
						}
					],
					"name": "supplierProducts",
					"outputs": [
						{
							"internalType": "address",
							"name": "userAddress",
							"type": "address"
						},
						{
							"internalType": "uint256",
							"name": "inStock",
							"type": "uint256"
						},
						{
							"internalType": "uint256",
							"name": "price",
							"type": "uint256"
						},
						{
							"internalType": "string",
							"name": "name",
							"type": "string"
						},
						{
							"internalType": "uint256",
							"name": "expDate",
							"type": "uint256"
						}
					],
					"stateMutability": "view",
					"type": "function"
				},
				{
					"inputs": [
						{
							"internalType": "uint256",
							"name": "",
							"type": "uint256"
						}
					],
					"name": "tickets",
					"outputs": [
						{
							"internalType": "address",
							"name": "userAddr",
							"type": "address"
						},
						{
							"internalType": "enum MarketPlace.Role",
							"name": "role",
							"type": "uint8"
						}
					],
					"stateMutability": "view",
					"type": "function"
				},
				{
					"inputs": [
						{
							"internalType": "string",
							"name": "input",
							"type": "string"
						}
					],
					"name": "toUpper",
					"outputs": [
						{
							"internalType": "string",
							"name": "",
							"type": "string"
						}
					],
					"stateMutability": "pure",
					"type": "function"
				},
				{
					"inputs": [
						{
							"internalType": "address",
							"name": "",
							"type": "address"
						},
						{
							"internalType": "uint256",
							"name": "",
							"type": "uint256"
						}
					],
					"name": "userProducts",
					"outputs": [
						{
							"internalType": "address",
							"name": "userAddress",
							"type": "address"
						},
						{
							"internalType": "uint256",
							"name": "inStock",
							"type": "uint256"
						},
						{
							"internalType": "uint256",
							"name": "price",
							"type": "uint256"
						},
						{
							"internalType": "string",
							"name": "name",
							"type": "string"
						},
						{
							"internalType": "uint256",
							"name": "expDate",
							"type": "uint256"
						}
					],
					"stateMutability": "view",
					"type": "function"
				},
				{
					"inputs": [
						{
							"internalType": "address",
							"name": "",
							"type": "address"
						}
					],
					"name": "users",
					"outputs": [
						{
							"internalType": "enum MarketPlace.Role",
							"name": "role",
							"type": "uint8"
						},
						{
							"internalType": "uint256",
							"name": "balance",
							"type": "uint256"
						}
					],
					"stateMutability": "view",
					"type": "function"
				},
				{
					"inputs": [],
					"name": "withdrawBal",
					"outputs": [],
					"stateMutability": "nonpayable",
					"type": "function"
				}
			],
			"devdoc": {
				"kind": "dev",
				"methods": {},
				"version": 1
			},
			"evm": {
				"assembly": "    /* \"contracts/edits.sol\":60:8760  contract MarketPlace {... */\n  mstore(0x40, 0x80)\n    /* \"contracts/edits.sol\":538:587  constructor() {... */\n  callvalue\n  dup1\n  iszero\n  tag_1\n  jumpi\n  0x00\n  dup1\n  revert\ntag_1:\n  pop\n    /* \"contracts/edits.sol\":570:580  msg.sender */\n  caller\n    /* \"contracts/edits.sol\":562:567  owner */\n  0x01\n  0x00\n    /* \"contracts/edits.sol\":562:580  owner = msg.sender */\n  0x0100\n  exp\n  dup2\n  sload\n  dup2\n  0xffffffffffffffffffffffffffffffffffffffff\n  mul\n  not\n  and\n  swap1\n  dup4\n  0xffffffffffffffffffffffffffffffffffffffff\n  and\n  mul\n  or\n  swap1\n  sstore\n  pop\n    /* \"contracts/edits.sol\":60:8760  contract MarketPlace {... */\n  dataSize(sub_0)\n  dup1\n  dataOffset(sub_0)\n  0x00\n  codecopy\n  0x00\n  return\nstop\n\nsub_0: assembly {\n        /* \"contracts/edits.sol\":60:8760  contract MarketPlace {... */\n      mstore(0x40, 0x80)\n      jumpi(tag_1, lt(calldatasize, 0x04))\n      shr(0xe0, calldataload(0x00))\n      dup1\n      0x7555bf10\n      gt\n      tag_27\n      jumpi\n      dup1\n      0xa1ba90b6\n      gt\n      tag_28\n      jumpi\n      dup1\n      0xd55768dd\n      gt\n      tag_29\n      jumpi\n      dup1\n      0xd55768dd\n      eq\n      tag_23\n      jumpi\n      dup1\n      0xda76af31\n      eq\n      tag_24\n      jumpi\n      dup1\n      0xf6364cc1\n      eq\n      tag_25\n      jumpi\n      dup1\n      0xfecd8f79\n      eq\n      tag_26\n      jumpi\n      jump(tag_1)\n    tag_29:\n      dup1\n      0xa1ba90b6\n      eq\n      tag_20\n      jumpi\n      dup1\n      0xa87430ba\n      eq\n      tag_21\n      jumpi\n      dup1\n      0xd18a524a\n      eq\n      tag_22\n      jumpi\n      jump(tag_1)\n    tag_28:\n      dup1\n      0x7555bf10\n      eq\n      tag_14\n      jumpi\n      dup1\n      0x7eb33a58\n      eq\n      tag_15\n      jumpi\n      dup1\n      0x805553e8\n      eq\n      tag_16\n      jumpi\n      dup1\n      0x861c2b6d\n      eq\n      tag_17\n      jumpi\n      dup1\n      0x8da5cb5b\n      eq\n      tag_18\n      jumpi\n      dup1\n      0x9f1cd587\n      eq\n      tag_19\n      jumpi\n      jump(tag_1)\n    tag_27:\n      dup1\n      0x4f424547\n      gt\n      tag_30\n      jumpi\n      dup1\n      0x4f424547\n      eq\n      tag_8\n      jumpi\n      dup1\n      0x50b44712\n      eq\n      tag_9\n      jumpi\n      dup1\n      0x55dea0b3\n      eq\n      tag_10\n      jumpi\n      dup1\n      0x62dd748c\n      eq\n      tag_11\n      jumpi\n      dup1\n      0x66d0dc67\n      eq\n      tag_12\n      jumpi\n      dup1\n      0x6f764708\n      eq\n      tag_13\n      jumpi\n      jump(tag_1)\n    tag_30:\n      dup1\n      0x8de16a\n      eq\n      tag_2\n      jumpi\n      dup1\n      0x1cc11721\n      eq\n      tag_3\n      jumpi\n      dup1\n      0x27b90b1b\n      eq\n      tag_4\n      jumpi\n      dup1\n      0x3d527883\n      eq\n      tag_5\n      jumpi\n      dup1\n      0x3dfe7dee\n      eq\n      tag_6\n      jumpi\n      dup1\n      0x410085df\n      eq\n      tag_7\n      jumpi\n    tag_1:\n      0x00\n      dup1\n      revert\n        /* \"contracts/edits.sol\":4578:4842  function addItemsMarket(uint _inStock, uint _price, string calldata _name, uint _expDate) public AccessControl(Role.Market) {... */\n    tag_2:\n      callvalue\n      dup1\n      iszero\n      tag_31\n      jumpi\n      0x00\n      dup1\n      revert\n    tag_31:\n      pop\n      tag_32\n      0x04\n      dup1\n      calldatasize\n      sub\n      dup2\n      add\n      swap1\n      tag_33\n      swap2\n      swap1\n      tag_34\n      jump\t// in\n    tag_33:\n      tag_35\n      jump\t// in\n    tag_32:\n      stop\n        /* \"contracts/edits.sol\":494:531  DeliveryOrder[] public deliveryOrders */\n    tag_3:\n      callvalue\n      dup1\n      iszero\n      tag_36\n      jumpi\n      0x00\n      dup1\n      revert\n    tag_36:\n      pop\n      tag_37\n      0x04\n      dup1\n      calldatasize\n      sub\n      dup2\n      add\n      swap1\n      tag_38\n      swap2\n      swap1\n      tag_39\n      jump\t// in\n    tag_38:\n      tag_40\n      jump\t// in\n    tag_37:\n      mload(0x40)\n      tag_41\n      swap7\n      swap6\n      swap5\n      swap4\n      swap3\n      swap2\n      swap1\n      tag_42\n      jump\t// in\n    tag_41:\n      mload(0x40)\n      dup1\n      swap2\n      sub\n      swap1\n      return\n        /* \"contracts/edits.sol\":1207:1260  mapping(address => Product[]) public supplierProducts */\n    tag_4:\n      callvalue\n      dup1\n      iszero\n      tag_43\n      jumpi\n      0x00\n      dup1\n      revert\n    tag_43:\n      pop\n      tag_44\n      0x04\n      dup1\n      calldatasize\n      sub\n      dup2\n      add\n      swap1\n      tag_45\n      swap2\n      swap1\n      tag_46\n      jump\t// in\n    tag_45:\n      tag_47\n      jump\t// in\n    tag_44:\n      mload(0x40)\n      tag_48\n      swap6\n      swap5\n      swap4\n      swap3\n      swap2\n      swap1\n      tag_49\n      jump\t// in\n    tag_48:\n      mload(0x40)\n      dup1\n      swap2\n      sub\n      swap1\n      return\n        /* \"contracts/edits.sol\":1095:1144  mapping(address => Product[]) public userProducts */\n    tag_5:\n      callvalue\n      dup1\n      iszero\n      tag_50\n      jumpi\n      0x00\n      dup1\n      revert\n    tag_50:\n      pop\n      tag_51\n      0x04\n      dup1\n      calldatasize\n      sub\n      dup2\n      add\n      swap1\n      tag_52\n      swap2\n      swap1\n      tag_46\n      jump\t// in\n    tag_52:\n      tag_53\n      jump\t// in\n    tag_51:\n      mload(0x40)\n      tag_54\n      swap6\n      swap5\n      swap4\n      swap3\n      swap2\n      swap1\n      tag_49\n      jump\t// in\n    tag_54:\n      mload(0x40)\n      dup1\n      swap2\n      sub\n      swap1\n      return\n        /* \"contracts/edits.sol\":1643:1733  function makeSupplier() public {... */\n    tag_6:\n      callvalue\n      dup1\n      iszero\n      tag_55\n      jumpi\n      0x00\n      dup1\n      revert\n    tag_55:\n      pop\n      tag_56\n      tag_57\n      jump\t// in\n    tag_56:\n      stop\n        /* \"contracts/edits.sol\":6240:6903  function refund(address _shop, uint _productId) public {... */\n    tag_7:\n      callvalue\n      dup1\n      iszero\n      tag_58\n      jumpi\n      0x00\n      dup1\n      revert\n    tag_58:\n      pop\n      tag_59\n      0x04\n      dup1\n      calldatasize\n      sub\n      dup2\n      add\n      swap1\n      tag_60\n      swap2\n      swap1\n      tag_46\n      jump\t// in\n    tag_60:\n      tag_61\n      jump\t// in\n    tag_59:\n      stop\n        /* \"contracts/edits.sol\":1150:1201  mapping(address => Product[]) public marketProducts */\n    tag_8:\n      callvalue\n      dup1\n      iszero\n      tag_62\n      jumpi\n      0x00\n      dup1\n      revert\n    tag_62:\n      pop\n      tag_63\n      0x04\n      dup1\n      calldatasize\n      sub\n      dup2\n      add\n      swap1\n      tag_64\n      swap2\n      swap1\n      tag_46\n      jump\t// in\n    tag_64:\n      tag_65\n      jump\t// in\n    tag_63:\n      mload(0x40)\n      tag_66\n      swap6\n      swap5\n      swap4\n      swap3\n      swap2\n      swap1\n      tag_49\n      jump\t// in\n    tag_66:\n      mload(0x40)\n      dup1\n      swap2\n      sub\n      swap1\n      return\n        /* \"contracts/edits.sol\":439:462  Ticket[] public tickets */\n    tag_9:\n      callvalue\n      dup1\n      iszero\n      tag_67\n      jumpi\n      0x00\n      dup1\n      revert\n    tag_67:\n      pop\n      tag_68\n      0x04\n      dup1\n      calldatasize\n      sub\n      dup2\n      add\n      swap1\n      tag_69\n      swap2\n      swap1\n      tag_39\n      jump\t// in\n    tag_69:\n      tag_70\n      jump\t// in\n    tag_68:\n      mload(0x40)\n      tag_71\n      swap3\n      swap2\n      swap1\n      tag_72\n      jump\t// in\n    tag_71:\n      mload(0x40)\n      dup1\n      swap2\n      sub\n      swap1\n      return\n        /* \"contracts/edits.sol\":2057:2152  function changeRole(Role _role) public {... */\n    tag_10:\n      callvalue\n      dup1\n      iszero\n      tag_73\n      jumpi\n      0x00\n      dup1\n      revert\n    tag_73:\n      pop\n      tag_74\n      0x04\n      dup1\n      calldatasize\n      sub\n      dup2\n      add\n      swap1\n      tag_75\n      swap2\n      swap1\n      tag_76\n      jump\t// in\n    tag_75:\n      tag_77\n      jump\t// in\n    tag_74:\n      stop\n        /* \"contracts/edits.sol\":2376:2766  function toUpper(string memory input) public pure returns (string memory) {... */\n    tag_11:\n      callvalue\n      dup1\n      iszero\n      tag_78\n      jumpi\n      0x00\n      dup1\n      revert\n    tag_78:\n      pop\n      tag_79\n      0x04\n      dup1\n      calldatasize\n      sub\n      dup2\n      add\n      swap1\n      tag_80\n      swap2\n      swap1\n      tag_81\n      jump\t// in\n    tag_80:\n      tag_82\n      jump\t// in\n    tag_79:\n      mload(0x40)\n      tag_83\n      swap2\n      swap1\n      tag_84\n      jump\t// in\n    tag_83:\n      mload(0x40)\n      dup1\n      swap2\n      sub\n      swap1\n      return\n        /* \"contracts/edits.sol\":1739:1826  function makeMarket() public  {... */\n    tag_12:\n      callvalue\n      dup1\n      iszero\n      tag_85\n      jumpi\n      0x00\n      dup1\n      revert\n    tag_85:\n      pop\n      tag_86\n      tag_87\n      jump\t// in\n    tag_86:\n      stop\n        /* \"contracts/edits.sol\":1832:2051  function approveChangeRole(uint _idTicket) public OnlyOwner {... */\n    tag_13:\n      callvalue\n      dup1\n      iszero\n      tag_88\n      jumpi\n      0x00\n      dup1\n      revert\n    tag_88:\n      pop\n      tag_89\n      0x04\n      dup1\n      calldatasize\n      sub\n      dup2\n      add\n      swap1\n      tag_90\n      swap2\n      swap1\n      tag_39\n      jump\t// in\n    tag_90:\n      tag_91\n      jump\t// in\n    tag_89:\n      stop\n        /* \"contracts/edits.sol\":2940:3530  function makeDelivery(address _shop, uint _productId, uint _amount) public {... */\n    tag_14:\n      callvalue\n      dup1\n      iszero\n      tag_92\n      jumpi\n      0x00\n      dup1\n      revert\n    tag_92:\n      pop\n      tag_93\n      0x04\n      dup1\n      calldatasize\n      sub\n      dup2\n      add\n      swap1\n      tag_94\n      swap2\n      swap1\n      tag_95\n      jump\t// in\n    tag_94:\n      tag_96\n      jump\t// in\n    tag_93:\n      stop\n        /* \"contracts/edits.sol\":3536:3826  function approveDelivery(bool _status, uint _deliveryId) public AccessControl(Role.Market) {... */\n    tag_15:\n      callvalue\n      dup1\n      iszero\n      tag_97\n      jumpi\n      0x00\n      dup1\n      revert\n    tag_97:\n      pop\n      tag_98\n      0x04\n      dup1\n      calldatasize\n      sub\n      dup2\n      add\n      swap1\n      tag_99\n      swap2\n      swap1\n      tag_100\n      jump\t// in\n    tag_99:\n      tag_101\n      jump\t// in\n    tag_98:\n      stop\n        /* \"contracts/edits.sol\":2158:2370  function randMod(uint _modulus) public view returns(uint) {   ... */\n    tag_16:\n      callvalue\n      dup1\n      iszero\n      tag_102\n      jumpi\n      0x00\n      dup1\n      revert\n    tag_102:\n      pop\n      tag_103\n      0x04\n      dup1\n      calldatasize\n      sub\n      dup2\n      add\n      swap1\n      tag_104\n      swap2\n      swap1\n      tag_39\n      jump\t// in\n    tag_104:\n      tag_105\n      jump\t// in\n    tag_103:\n      mload(0x40)\n      tag_106\n      swap2\n      swap1\n      tag_107\n      jump\t// in\n    tag_106:\n      mload(0x40)\n      dup1\n      swap2\n      sub\n      swap1\n      return\n        /* \"contracts/edits.sol\":4272:4572  function addItemsSupplier(uint _inStock, uint _price, string calldata _name, uint _expDate, address _addressSupp) public AccessControl(Role.Supplier) {... */\n    tag_17:\n      callvalue\n      dup1\n      iszero\n      tag_108\n      jumpi\n      0x00\n      dup1\n      revert\n    tag_108:\n      pop\n      tag_109\n      0x04\n      dup1\n      calldatasize\n      sub\n      dup2\n      add\n      swap1\n      tag_110\n      swap2\n      swap1\n      tag_111\n      jump\t// in\n    tag_110:\n      tag_112\n      jump\t// in\n    tag_109:\n      stop\n        /* \"contracts/edits.sol\":468:488  address public owner */\n    tag_18:\n      callvalue\n      dup1\n      iszero\n      tag_113\n      jumpi\n      0x00\n      dup1\n      revert\n    tag_113:\n      pop\n      tag_114\n      tag_115\n      jump\t// in\n    tag_114:\n      mload(0x40)\n      tag_116\n      swap2\n      swap1\n      tag_117\n      jump\t// in\n    tag_116:\n      mload(0x40)\n      dup1\n      swap2\n      sub\n      swap1\n      return\n        /* \"contracts/edits.sol\":6909:8512  function purchase(address _shop, uint _amount, uint _id, string memory _ref ) public payable {... */\n    tag_19:\n      tag_118\n      0x04\n      dup1\n      calldatasize\n      sub\n      dup2\n      add\n      swap1\n      tag_119\n      swap2\n      swap1\n      tag_120\n      jump\t// in\n    tag_119:\n      tag_121\n      jump\t// in\n    tag_118:\n      stop\n        /* \"contracts/edits.sol\":2772:2933  function genRef(string memory _nameRef, address _user) public {... */\n    tag_20:\n      callvalue\n      dup1\n      iszero\n      tag_122\n      jumpi\n      0x00\n      dup1\n      revert\n    tag_122:\n      pop\n      tag_123\n      0x04\n      dup1\n      calldatasize\n      sub\n      dup2\n      add\n      swap1\n      tag_124\n      swap2\n      swap1\n      tag_125\n      jump\t// in\n    tag_124:\n      tag_126\n      jump\t// in\n    tag_123:\n      stop\n        /* \"contracts/edits.sol\":1052:1089  mapping(address => User) public users */\n    tag_21:\n      callvalue\n      dup1\n      iszero\n      tag_127\n      jumpi\n      0x00\n      dup1\n      revert\n    tag_127:\n      pop\n      tag_128\n      0x04\n      dup1\n      calldatasize\n      sub\n      dup2\n      add\n      swap1\n      tag_129\n      swap2\n      swap1\n      tag_130\n      jump\t// in\n    tag_129:\n      tag_131\n      jump\t// in\n    tag_128:\n      mload(0x40)\n      tag_132\n      swap3\n      swap2\n      swap1\n      tag_133\n      jump\t// in\n    tag_132:\n      mload(0x40)\n      dup1\n      swap2\n      sub\n      swap1\n      return\n        /* \"contracts/edits.sol\":1555:1637  function makeUser() public {... */\n    tag_22:\n      callvalue\n      dup1\n      iszero\n      tag_134\n      jumpi\n      0x00\n      dup1\n      revert\n    tag_134:\n      pop\n      tag_135\n      tag_136\n      jump\t// in\n    tag_135:\n      stop\n        /* \"contracts/edits.sol\":1266:1309  mapping(string => address) public referrals */\n    tag_23:\n      callvalue\n      dup1\n      iszero\n      tag_137\n      jumpi\n      0x00\n      dup1\n      revert\n    tag_137:\n      pop\n      tag_138\n      0x04\n      dup1\n      calldatasize\n      sub\n      dup2\n      add\n      swap1\n      tag_139\n      swap2\n      swap1\n      tag_81\n      jump\t// in\n    tag_139:\n      tag_140\n      jump\t// in\n    tag_138:\n      mload(0x40)\n      tag_141\n      swap2\n      swap1\n      tag_117\n      jump\t// in\n    tag_141:\n      mload(0x40)\n      dup1\n      swap2\n      sub\n      swap1\n      return\n        /* \"contracts/edits.sol\":3832:4266  function acceptDelivery(bool _status, uint _deliveryId) public payable AccessControl(Role.User) { // status -> solution... */\n    tag_24:\n      tag_142\n      0x04\n      dup1\n      calldatasize\n      sub\n      dup2\n      add\n      swap1\n      tag_143\n      swap2\n      swap1\n      tag_100\n      jump\t// in\n    tag_143:\n      tag_144\n      jump\t// in\n    tag_142:\n      stop\n        /* \"contracts/edits.sol\":8518:8758  function withdrawBal() public AccessControl(Role.Market) { // поставь модификатор и убери параметр... */\n    tag_25:\n      callvalue\n      dup1\n      iszero\n      tag_145\n      jumpi\n      0x00\n      dup1\n      revert\n    tag_145:\n      pop\n      tag_146\n      tag_147\n      jump\t// in\n    tag_146:\n      stop\n        /* \"contracts/edits.sol\":4853:6232  function refillStore(address _shop, uint _productId, uint _amount, address _supplier) public payable AccessControl(Role.Market) {... */\n    tag_26:\n      tag_148\n      0x04\n      dup1\n      calldatasize\n      sub\n      dup2\n      add\n      swap1\n      tag_149\n      swap2\n      swap1\n      tag_150\n      jump\t// in\n    tag_149:\n      tag_151\n      jump\t// in\n    tag_148:\n      stop\n        /* \"contracts/edits.sol\":4578:4842  function addItemsMarket(uint _inStock, uint _price, string calldata _name, uint _expDate) public AccessControl(Role.Market) {... */\n    tag_35:\n        /* \"contracts/edits.sol\":4689:4700  Role.Market */\n      0x01\n        /* \"contracts/edits.sol\":1485:1490  _role */\n      dup1\n        /* \"contracts/edits.sol\":1459:1490  users[msg.sender].role == _role */\n      0x02\n      dup2\n      gt\n      iszero\n      tag_153\n      jumpi\n      tag_154\n      tag_155\n      jump\t// in\n    tag_154:\n    tag_153:\n        /* \"contracts/edits.sol\":1459:1464  users */\n      0x03\n        /* \"contracts/edits.sol\":1459:1476  users[msg.sender] */\n      0x00\n        /* \"contracts/edits.sol\":1465:1475  msg.sender */\n      caller\n        /* \"contracts/edits.sol\":1459:1476  users[msg.sender] */\n      0xffffffffffffffffffffffffffffffffffffffff\n      and\n      0xffffffffffffffffffffffffffffffffffffffff\n      and\n      dup2\n      mstore\n      0x20\n      add\n      swap1\n      dup2\n      mstore\n      0x20\n      add\n      0x00\n      keccak256\n        /* \"contracts/edits.sol\":1459:1481  users[msg.sender].role */\n      0x00\n      add\n      0x00\n      swap1\n      sload\n      swap1\n      0x0100\n      exp\n      swap1\n      div\n      0xff\n      and\n        /* \"contracts/edits.sol\":1459:1490  users[msg.sender].role == _role */\n      0x02\n      dup2\n      gt\n      iszero\n      tag_156\n      jumpi\n      tag_157\n      tag_155\n      jump\t// in\n    tag_157:\n    tag_156:\n      eq\n        /* \"contracts/edits.sol\":1451:1531  require(users[msg.sender].role == _role, \"Your role does not allow this change\") */\n      tag_158\n      jumpi\n      mload(0x40)\n      0x08c379a000000000000000000000000000000000000000000000000000000000\n      dup2\n      mstore\n      0x04\n      add\n      tag_159\n      swap1\n      tag_160\n      jump\t// in\n    tag_159:\n      mload(0x40)\n      dup1\n      swap2\n      sub\n      swap1\n      revert\n    tag_158:\n        /* \"contracts/edits.sol\":4712:4731  Product memory item */\n      0x00\n        /* \"contracts/edits.sol\":4734:4788  Product(msg.sender, _inStock, _price, _name, _expDate) */\n      mload(0x40)\n      dup1\n      0xa0\n      add\n      0x40\n      mstore\n      dup1\n        /* \"contracts/edits.sol\":4742:4752  msg.sender */\n      caller\n        /* \"contracts/edits.sol\":4734:4788  Product(msg.sender, _inStock, _price, _name, _expDate) */\n      0xffffffffffffffffffffffffffffffffffffffff\n      and\n      dup2\n      mstore\n      0x20\n      add\n        /* \"contracts/edits.sol\":4754:4762  _inStock */\n      dup9\n        /* \"contracts/edits.sol\":4734:4788  Product(msg.sender, _inStock, _price, _name, _expDate) */\n      dup2\n      mstore\n      0x20\n      add\n        /* \"contracts/edits.sol\":4764:4770  _price */\n      dup8\n        /* \"contracts/edits.sol\":4734:4788  Product(msg.sender, _inStock, _price, _name, _expDate) */\n      dup2\n      mstore\n      0x20\n      add\n        /* \"contracts/edits.sol\":4772:4777  _name */\n      dup7\n      dup7\n        /* \"contracts/edits.sol\":4734:4788  Product(msg.sender, _inStock, _price, _name, _expDate) */\n      dup1\n      dup1\n      0x1f\n      add\n      0x20\n      dup1\n      swap2\n      div\n      mul\n      0x20\n      add\n      mload(0x40)\n      swap1\n      dup2\n      add\n      0x40\n      mstore\n      dup1\n      swap4\n      swap3\n      swap2\n      swap1\n      dup2\n      dup2\n      mstore\n      0x20\n      add\n      dup4\n      dup4\n      dup1\n      dup3\n      dup5\n      calldatacopy\n      0x00\n      dup2\n      dup5\n      add\n      mstore\n      not(0x1f)\n      0x1f\n      dup3\n      add\n      and\n      swap1\n      pop\n      dup1\n      dup4\n      add\n      swap3\n      pop\n      pop\n      pop\n      pop\n      pop\n      pop\n      pop\n      dup2\n      mstore\n      0x20\n      add\n        /* \"contracts/edits.sol\":4779:4787  _expDate */\n      dup5\n        /* \"contracts/edits.sol\":4734:4788  Product(msg.sender, _inStock, _price, _name, _expDate) */\n      dup2\n      mstore\n      pop\n        /* \"contracts/edits.sol\":4712:4788  Product memory item = Product(msg.sender, _inStock, _price, _name, _expDate) */\n      swap1\n      pop\n        /* \"contracts/edits.sol\":4798:4812  marketProducts */\n      0x05\n        /* \"contracts/edits.sol\":4798:4824  marketProducts[msg.sender] */\n      0x00\n        /* \"contracts/edits.sol\":4813:4823  msg.sender */\n      caller\n        /* \"contracts/edits.sol\":4798:4824  marketProducts[msg.sender] */\n      0xffffffffffffffffffffffffffffffffffffffff\n      and\n      0xffffffffffffffffffffffffffffffffffffffff\n      and\n      dup2\n      mstore\n      0x20\n      add\n      swap1\n      dup2\n      mstore\n      0x20\n      add\n      0x00\n      keccak256\n        /* \"contracts/edits.sol\":4830:4834  item */\n      dup2\n        /* \"contracts/edits.sol\":4798:4835  marketProducts[msg.sender].push(item) */\n      swap1\n      dup1\n      0x01\n      dup2\n      sload\n      add\n      dup1\n      dup3\n      sstore\n      dup1\n      swap2\n      pop\n      pop\n      0x01\n      swap1\n      sub\n      swap1\n      0x00\n      mstore\n      keccak256(0x00, 0x20)\n      swap1\n      0x05\n      mul\n      add\n      0x00\n      swap1\n      swap2\n      swap1\n      swap2\n      swap1\n      swap2\n      pop\n      0x00\n      dup3\n      add\n      mload\n      dup2\n      0x00\n      add\n      exp(0x0100, 0x00)\n      dup2\n      sload\n      dup2\n      0xffffffffffffffffffffffffffffffffffffffff\n      mul\n      not\n      and\n      swap1\n      dup4\n      0xffffffffffffffffffffffffffffffffffffffff\n      and\n      mul\n      or\n      swap1\n      sstore\n      pop\n      0x20\n      dup3\n      add\n      mload\n      dup2\n      0x01\n      add\n      sstore\n      0x40\n      dup3\n      add\n      mload\n      dup2\n      0x02\n      add\n      sstore\n      0x60\n      dup3\n      add\n      mload\n      dup2\n      0x03\n      add\n      swap1\n      dup2\n      tag_163\n      swap2\n      swap1\n      tag_164\n      jump\t// in\n    tag_163:\n      pop\n      0x80\n      dup3\n      add\n      mload\n      dup2\n      0x04\n      add\n      sstore\n      pop\n      pop\n        /* \"contracts/edits.sol\":4702:4842  {... */\n      pop\n        /* \"contracts/edits.sol\":4578:4842  function addItemsMarket(uint _inStock, uint _price, string calldata _name, uint _expDate) public AccessControl(Role.Market) {... */\n      pop\n      pop\n      pop\n      pop\n      pop\n      pop\n      jump\t// out\n        /* \"contracts/edits.sol\":494:531  DeliveryOrder[] public deliveryOrders */\n    tag_40:\n      0x02\n      dup2\n      dup2\n      sload\n      dup2\n      lt\n      tag_165\n      jumpi\n      0x00\n      dup1\n      revert\n    tag_165:\n      swap1\n      0x00\n      mstore\n      keccak256(0x00, 0x20)\n      swap1\n      0x05\n      mul\n      add\n      0x00\n      swap2\n      pop\n      swap1\n      pop\n      dup1\n      0x00\n      add\n      0x00\n      swap1\n      sload\n      swap1\n      0x0100\n      exp\n      swap1\n      div\n      0xffffffffffffffffffffffffffffffffffffffff\n      and\n      swap1\n      dup1\n      0x01\n      add\n      0x00\n      swap1\n      sload\n      swap1\n      0x0100\n      exp\n      swap1\n      div\n      0xffffffffffffffffffffffffffffffffffffffff\n      and\n      swap1\n      dup1\n      0x01\n      add\n      0x14\n      swap1\n      sload\n      swap1\n      0x0100\n      exp\n      swap1\n      div\n      0xff\n      and\n      swap1\n      dup1\n      0x02\n      add\n      dup1\n      sload\n      tag_167\n      swap1\n      tag_168\n      jump\t// in\n    tag_167:\n      dup1\n      0x1f\n      add\n      0x20\n      dup1\n      swap2\n      div\n      mul\n      0x20\n      add\n      mload(0x40)\n      swap1\n      dup2\n      add\n      0x40\n      mstore\n      dup1\n      swap3\n      swap2\n      swap1\n      dup2\n      dup2\n      mstore\n      0x20\n      add\n      dup3\n      dup1\n      sload\n      tag_169\n      swap1\n      tag_168\n      jump\t// in\n    tag_169:\n      dup1\n      iszero\n      tag_170\n      jumpi\n      dup1\n      0x1f\n      lt\n      tag_171\n      jumpi\n      0x0100\n      dup1\n      dup4\n      sload\n      div\n      mul\n      dup4\n      mstore\n      swap2\n      0x20\n      add\n      swap2\n      jump(tag_170)\n    tag_171:\n      dup3\n      add\n      swap2\n      swap1\n      0x00\n      mstore\n      keccak256(0x00, 0x20)\n      swap1\n    tag_172:\n      dup2\n      sload\n      dup2\n      mstore\n      swap1\n      0x01\n      add\n      swap1\n      0x20\n      add\n      dup1\n      dup4\n      gt\n      tag_172\n      jumpi\n      dup3\n      swap1\n      sub\n      0x1f\n      and\n      dup3\n      add\n      swap2\n    tag_170:\n      pop\n      pop\n      pop\n      pop\n      pop\n      swap1\n      dup1\n      0x03\n      add\n      sload\n      swap1\n      dup1\n      0x04\n      add\n      sload\n      swap1\n      pop\n      dup7\n      jump\t// out\n        /* \"contracts/edits.sol\":1207:1260  mapping(address => Product[]) public supplierProducts */\n    tag_47:\n      mstore(0x20, 0x06)\n      dup2\n      0x00\n      mstore\n      keccak256(0x00, 0x40)\n      dup2\n      dup2\n      sload\n      dup2\n      lt\n      tag_173\n      jumpi\n      0x00\n      dup1\n      revert\n    tag_173:\n      swap1\n      0x00\n      mstore\n      keccak256(0x00, 0x20)\n      swap1\n      0x05\n      mul\n      add\n      0x00\n      swap2\n      pop\n      swap2\n      pop\n      pop\n      dup1\n      0x00\n      add\n      0x00\n      swap1\n      sload\n      swap1\n      0x0100\n      exp\n      swap1\n      div\n      0xffffffffffffffffffffffffffffffffffffffff\n      and\n      swap1\n      dup1\n      0x01\n      add\n      sload\n      swap1\n      dup1\n      0x02\n      add\n      sload\n      swap1\n      dup1\n      0x03\n      add\n      dup1\n      sload\n      tag_175\n      swap1\n      tag_168\n      jump\t// in\n    tag_175:\n      dup1\n      0x1f\n      add\n      0x20\n      dup1\n      swap2\n      div\n      mul\n      0x20\n      add\n      mload(0x40)\n      swap1\n      dup2\n      add\n      0x40\n      mstore\n      dup1\n      swap3\n      swap2\n      swap1\n      dup2\n      dup2\n      mstore\n      0x20\n      add\n      dup3\n      dup1\n      sload\n      tag_176\n      swap1\n      tag_168\n      jump\t// in\n    tag_176:\n      dup1\n      iszero\n      tag_177\n      jumpi\n      dup1\n      0x1f\n      lt\n      tag_178\n      jumpi\n      0x0100\n      dup1\n      dup4\n      sload\n      div\n      mul\n      dup4\n      mstore\n      swap2\n      0x20\n      add\n      swap2\n      jump(tag_177)\n    tag_178:\n      dup3\n      add\n      swap2\n      swap1\n      0x00\n      mstore\n      keccak256(0x00, 0x20)\n      swap1\n    tag_179:\n      dup2\n      sload\n      dup2\n      mstore\n      swap1\n      0x01\n      add\n      swap1\n      0x20\n      add\n      dup1\n      dup4\n      gt\n      tag_179\n      jumpi\n      dup3\n      swap1\n      sub\n      0x1f\n      and\n      dup3\n      add\n      swap2\n    tag_177:\n      pop\n      pop\n      pop\n      pop\n      pop\n      swap1\n      dup1\n      0x04\n      add\n      sload\n      swap1\n      pop\n      dup6\n      jump\t// out\n        /* \"contracts/edits.sol\":1095:1144  mapping(address => Product[]) public userProducts */\n    tag_53:\n      mstore(0x20, 0x04)\n      dup2\n      0x00\n      mstore\n      keccak256(0x00, 0x40)\n      dup2\n      dup2\n      sload\n      dup2\n      lt\n      tag_180\n      jumpi\n      0x00\n      dup1\n      revert\n    tag_180:\n      swap1\n      0x00\n      mstore\n      keccak256(0x00, 0x20)\n      swap1\n      0x05\n      mul\n      add\n      0x00\n      swap2\n      pop\n      swap2\n      pop\n      pop\n      dup1\n      0x00\n      add\n      0x00\n      swap1\n      sload\n      swap1\n      0x0100\n      exp\n      swap1\n      div\n      0xffffffffffffffffffffffffffffffffffffffff\n      and\n      swap1\n      dup1\n      0x01\n      add\n      sload\n      swap1\n      dup1\n      0x02\n      add\n      sload\n      swap1\n      dup1\n      0x03\n      add\n      dup1\n      sload\n      tag_182\n      swap1\n      tag_168\n      jump\t// in\n    tag_182:\n      dup1\n      0x1f\n      add\n      0x20\n      dup1\n      swap2\n      div\n      mul\n      0x20\n      add\n      mload(0x40)\n      swap1\n      dup2\n      add\n      0x40\n      mstore\n      dup1\n      swap3\n      swap2\n      swap1\n      dup2\n      dup2\n      mstore\n      0x20\n      add\n      dup3\n      dup1\n      sload\n      tag_183\n      swap1\n      tag_168\n      jump\t// in\n    tag_183:\n      dup1\n      iszero\n      tag_184\n      jumpi\n      dup1\n      0x1f\n      lt\n      tag_185\n      jumpi\n      0x0100\n      dup1\n      dup4\n      sload\n      div\n      mul\n      dup4\n      mstore\n      swap2\n      0x20\n      add\n      swap2\n      jump(tag_184)\n    tag_185:\n      dup3\n      add\n      swap2\n      swap1\n      0x00\n      mstore\n      keccak256(0x00, 0x20)\n      swap1\n    tag_186:\n      dup2\n      sload\n      dup2\n      mstore\n      swap1\n      0x01\n      add\n      swap1\n      0x20\n      add\n      dup1\n      dup4\n      gt\n      tag_186\n      jumpi\n      dup3\n      swap1\n      sub\n      0x1f\n      and\n      dup3\n      add\n      swap2\n    tag_184:\n      pop\n      pop\n      pop\n      pop\n      pop\n      swap1\n      dup1\n      0x04\n      add\n      sload\n      swap1\n      pop\n      dup6\n      jump\t// out\n        /* \"contracts/edits.sol\":1643:1733  function makeSupplier() public {... */\n    tag_57:\n        /* \"contracts/edits.sol\":1704:1726  User(Role.Supplier, 0) */\n      mload(0x40)\n      dup1\n      0x40\n      add\n      0x40\n      mstore\n      dup1\n        /* \"contracts/edits.sol\":1709:1722  Role.Supplier */\n      0x02\n        /* \"contracts/edits.sol\":1704:1726  User(Role.Supplier, 0) */\n      dup1\n      dup2\n      gt\n      iszero\n      tag_188\n      jumpi\n      tag_189\n      tag_155\n      jump\t// in\n    tag_189:\n    tag_188:\n      dup2\n      mstore\n      0x20\n      add\n        /* \"contracts/edits.sol\":1724:1725  0 */\n      0x00\n        /* \"contracts/edits.sol\":1704:1726  User(Role.Supplier, 0) */\n      dup2\n      mstore\n      pop\n        /* \"contracts/edits.sol\":1684:1689  users */\n      0x03\n        /* \"contracts/edits.sol\":1684:1701  users[msg.sender] */\n      0x00\n        /* \"contracts/edits.sol\":1690:1700  msg.sender */\n      caller\n        /* \"contracts/edits.sol\":1684:1701  users[msg.sender] */\n      0xffffffffffffffffffffffffffffffffffffffff\n      and\n      0xffffffffffffffffffffffffffffffffffffffff\n      and\n      dup2\n      mstore\n      0x20\n      add\n      swap1\n      dup2\n      mstore\n      0x20\n      add\n      0x00\n      keccak256\n        /* \"contracts/edits.sol\":1684:1726  users[msg.sender] = User(Role.Supplier, 0) */\n      0x00\n      dup3\n      add\n      mload\n      dup2\n      0x00\n      add\n      exp(0x0100, 0x00)\n      dup2\n      sload\n      dup2\n      0xff\n      mul\n      not\n      and\n      swap1\n      dup4\n      0x02\n      dup2\n      gt\n      iszero\n      tag_190\n      jumpi\n      tag_191\n      tag_155\n      jump\t// in\n    tag_191:\n    tag_190:\n      mul\n      or\n      swap1\n      sstore\n      pop\n      0x20\n      dup3\n      add\n      mload\n      dup2\n      0x01\n      add\n      sstore\n      swap1\n      pop\n      pop\n        /* \"contracts/edits.sol\":1643:1733  function makeSupplier() public {... */\n      jump\t// out\n        /* \"contracts/edits.sol\":6240:6903  function refund(address _shop, uint _productId) public {... */\n    tag_61:\n        /* \"contracts/edits.sol\":6360:6374  marketProducts */\n      0x05\n        /* \"contracts/edits.sol\":6360:6381  marketProducts[_shop] */\n      0x00\n        /* \"contracts/edits.sol\":6375:6380  _shop */\n      dup4\n        /* \"contracts/edits.sol\":6360:6381  marketProducts[_shop] */\n      0xffffffffffffffffffffffffffffffffffffffff\n      and\n      0xffffffffffffffffffffffffffffffffffffffff\n      and\n      dup2\n      mstore\n      0x20\n      add\n      swap1\n      dup2\n      mstore\n      0x20\n      add\n      0x00\n      keccak256\n        /* \"contracts/edits.sol\":6382:6392  _productId */\n      dup2\n        /* \"contracts/edits.sol\":6360:6393  marketProducts[_shop][_productId] */\n      dup2\n      sload\n      dup2\n      lt\n      tag_193\n      jumpi\n      tag_194\n      tag_195\n      jump\t// in\n    tag_194:\n    tag_193:\n      swap1\n      0x00\n      mstore\n      keccak256(0x00, 0x20)\n      swap1\n      0x05\n      mul\n      add\n        /* \"contracts/edits.sol\":6360:6401  marketProducts[_shop][_productId].expDate */\n      0x04\n      add\n      sload\n        /* \"contracts/edits.sol\":6313:6325  userProducts */\n      0x04\n        /* \"contracts/edits.sol\":6313:6337  userProducts[msg.sender] */\n      0x00\n        /* \"contracts/edits.sol\":6326:6336  msg.sender */\n      caller\n        /* \"contracts/edits.sol\":6313:6337  userProducts[msg.sender] */\n      0xffffffffffffffffffffffffffffffffffffffff\n      and\n      0xffffffffffffffffffffffffffffffffffffffff\n      and\n      dup2\n      mstore\n      0x20\n      add\n      swap1\n      dup2\n      mstore\n      0x20\n      add\n      0x00\n      keccak256\n        /* \"contracts/edits.sol\":6338:6348  _productId */\n      dup3\n        /* \"contracts/edits.sol\":6313:6349  userProducts[msg.sender][_productId] */\n      dup2\n      sload\n      dup2\n      lt\n      tag_197\n      jumpi\n      tag_198\n      tag_195\n      jump\t// in\n    tag_198:\n    tag_197:\n      swap1\n      0x00\n      mstore\n      keccak256(0x00, 0x20)\n      swap1\n      0x05\n      mul\n      add\n        /* \"contracts/edits.sol\":6313:6357  userProducts[msg.sender][_productId].expDate */\n      0x04\n      add\n      sload\n        /* \"contracts/edits.sol\":6313:6401  userProducts[msg.sender][_productId].expDate > marketProducts[_shop][_productId].expDate */\n      gt\n        /* \"contracts/edits.sol\":6305:6402  require(userProducts[msg.sender][_productId].expDate > marketProducts[_shop][_productId].expDate) */\n      tag_200\n      jumpi\n      0x00\n      dup1\n      revert\n    tag_200:\n        /* \"contracts/edits.sol\":6412:6428  uint totalRefSum */\n      0x00\n        /* \"contracts/edits.sol\":6479:6493  marketProducts */\n      0x05\n        /* \"contracts/edits.sol\":6479:6500  marketProducts[_shop] */\n      0x00\n        /* \"contracts/edits.sol\":6494:6499  _shop */\n      dup5\n        /* \"contracts/edits.sol\":6479:6500  marketProducts[_shop] */\n      0xffffffffffffffffffffffffffffffffffffffff\n      and\n      0xffffffffffffffffffffffffffffffffffffffff\n      and\n      dup2\n      mstore\n      0x20\n      add\n      swap1\n      dup2\n      mstore\n      0x20\n      add\n      0x00\n      keccak256\n        /* \"contracts/edits.sol\":6501:6511  _productId */\n      dup3\n        /* \"contracts/edits.sol\":6479:6512  marketProducts[_shop][_productId] */\n      dup2\n      sload\n      dup2\n      lt\n      tag_201\n      jumpi\n      tag_202\n      tag_195\n      jump\t// in\n    tag_202:\n    tag_201:\n      swap1\n      0x00\n      mstore\n      keccak256(0x00, 0x20)\n      swap1\n      0x05\n      mul\n      add\n        /* \"contracts/edits.sol\":6479:6518  marketProducts[_shop][_productId].price */\n      0x02\n      add\n      sload\n        /* \"contracts/edits.sol\":6432:6444  userProducts */\n      0x04\n        /* \"contracts/edits.sol\":6432:6456  userProducts[msg.sender] */\n      0x00\n        /* \"contracts/edits.sol\":6445:6455  msg.sender */\n      caller\n        /* \"contracts/edits.sol\":6432:6456  userProducts[msg.sender] */\n      0xffffffffffffffffffffffffffffffffffffffff\n      and\n      0xffffffffffffffffffffffffffffffffffffffff\n      and\n      dup2\n      mstore\n      0x20\n      add\n      swap1\n      dup2\n      mstore\n      0x20\n      add\n      0x00\n      keccak256\n        /* \"contracts/edits.sol\":6457:6467  _productId */\n      dup4\n        /* \"contracts/edits.sol\":6432:6468  userProducts[msg.sender][_productId] */\n      dup2\n      sload\n      dup2\n      lt\n      tag_204\n      jumpi\n      tag_205\n      tag_195\n      jump\t// in\n    tag_205:\n    tag_204:\n      swap1\n      0x00\n      mstore\n      keccak256(0x00, 0x20)\n      swap1\n      0x05\n      mul\n      add\n        /* \"contracts/edits.sol\":6432:6476  userProducts[msg.sender][_productId].inStock */\n      0x01\n      add\n      sload\n        /* \"contracts/edits.sol\":6432:6518  userProducts[msg.sender][_productId].inStock * marketProducts[_shop][_productId].price */\n      tag_207\n      swap2\n      swap1\n      tag_208\n      jump\t// in\n    tag_207:\n        /* \"contracts/edits.sol\":6412:6518  uint totalRefSum =  userProducts[msg.sender][_productId].inStock * marketProducts[_shop][_productId].price */\n      swap1\n      pop\n        /* \"contracts/edits.sol\":6573:6585  userProducts */\n      0x04\n        /* \"contracts/edits.sol\":6573:6597  userProducts[msg.sender] */\n      0x00\n        /* \"contracts/edits.sol\":6586:6596  msg.sender */\n      caller\n        /* \"contracts/edits.sol\":6573:6597  userProducts[msg.sender] */\n      0xffffffffffffffffffffffffffffffffffffffff\n      and\n      0xffffffffffffffffffffffffffffffffffffffff\n      and\n      dup2\n      mstore\n      0x20\n      add\n      swap1\n      dup2\n      mstore\n      0x20\n      add\n      0x00\n      keccak256\n        /* \"contracts/edits.sol\":6598:6608  _productId */\n      dup3\n        /* \"contracts/edits.sol\":6573:6609  userProducts[msg.sender][_productId] */\n      dup2\n      sload\n      dup2\n      lt\n      tag_209\n      jumpi\n      tag_210\n      tag_195\n      jump\t// in\n    tag_210:\n    tag_209:\n      swap1\n      0x00\n      mstore\n      keccak256(0x00, 0x20)\n      swap1\n      0x05\n      mul\n      add\n        /* \"contracts/edits.sol\":6573:6617  userProducts[msg.sender][_productId].inStock */\n      0x01\n      add\n      sload\n        /* \"contracts/edits.sol\":6528:6542  marketProducts */\n      0x05\n        /* \"contracts/edits.sol\":6528:6549  marketProducts[_shop] */\n      0x00\n        /* \"contracts/edits.sol\":6543:6548  _shop */\n      dup6\n        /* \"contracts/edits.sol\":6528:6549  marketProducts[_shop] */\n      0xffffffffffffffffffffffffffffffffffffffff\n      and\n      0xffffffffffffffffffffffffffffffffffffffff\n      and\n      dup2\n      mstore\n      0x20\n      add\n      swap1\n      dup2\n      mstore\n      0x20\n      add\n      0x00\n      keccak256\n        /* \"contracts/edits.sol\":6550:6560  _productId */\n      dup4\n        /* \"contracts/edits.sol\":6528:6561  marketProducts[_shop][_productId] */\n      dup2\n      sload\n      dup2\n      lt\n      tag_212\n      jumpi\n      tag_213\n      tag_195\n      jump\t// in\n    tag_213:\n    tag_212:\n      swap1\n      0x00\n      mstore\n      keccak256(0x00, 0x20)\n      swap1\n      0x05\n      mul\n      add\n        /* \"contracts/edits.sol\":6528:6569  marketProducts[_shop][_productId].inStock */\n      0x01\n      add\n      0x00\n        /* \"contracts/edits.sol\":6528:6617  marketProducts[_shop][_productId].inStock += userProducts[msg.sender][_productId].inStock */\n      dup3\n      dup3\n      sload\n      tag_215\n      swap2\n      swap1\n      tag_216\n      jump\t// in\n    tag_215:\n      swap3\n      pop\n      pop\n      dup2\n      swap1\n      sstore\n      pop\n        /* \"contracts/edits.sol\":6634:6646  userProducts */\n      0x04\n        /* \"contracts/edits.sol\":6634:6658  userProducts[msg.sender] */\n      0x00\n        /* \"contracts/edits.sol\":6647:6657  msg.sender */\n      caller\n        /* \"contracts/edits.sol\":6634:6658  userProducts[msg.sender] */\n      0xffffffffffffffffffffffffffffffffffffffff\n      and\n      0xffffffffffffffffffffffffffffffffffffffff\n      and\n      dup2\n      mstore\n      0x20\n      add\n      swap1\n      dup2\n      mstore\n      0x20\n      add\n      0x00\n      keccak256\n        /* \"contracts/edits.sol\":6659:6669  _productId */\n      dup3\n        /* \"contracts/edits.sol\":6634:6670  userProducts[msg.sender][_productId] */\n      dup2\n      sload\n      dup2\n      lt\n      tag_217\n      jumpi\n      tag_218\n      tag_195\n      jump\t// in\n    tag_218:\n    tag_217:\n      swap1\n      0x00\n      mstore\n      keccak256(0x00, 0x20)\n      swap1\n      0x05\n      mul\n      add\n      0x00\n        /* \"contracts/edits.sol\":6627:6670  delete userProducts[msg.sender][_productId] */\n      dup1\n      dup3\n      add\n      exp(0x0100, 0x00)\n      dup2\n      sload\n      swap1\n      0xffffffffffffffffffffffffffffffffffffffff\n      mul\n      not\n      and\n      swap1\n      sstore\n      0x01\n      dup3\n      add\n      0x00\n      swap1\n      sstore\n      0x02\n      dup3\n      add\n      0x00\n      swap1\n      sstore\n      0x03\n      dup3\n      add\n      0x00\n      tag_220\n      swap2\n      swap1\n      tag_221\n      jump\t// in\n    tag_220:\n      0x04\n      dup3\n      add\n      0x00\n      swap1\n      sstore\n      pop\n      pop\n        /* \"contracts/edits.sol\":6704:6715  totalRefSum */\n      dup1\n        /* \"contracts/edits.sol\":6680:6685  users */\n      0x03\n        /* \"contracts/edits.sol\":6680:6692  users[_shop] */\n      0x00\n        /* \"contracts/edits.sol\":6686:6691  _shop */\n      dup6\n        /* \"contracts/edits.sol\":6680:6692  users[_shop] */\n      0xffffffffffffffffffffffffffffffffffffffff\n      and\n      0xffffffffffffffffffffffffffffffffffffffff\n      and\n      dup2\n      mstore\n      0x20\n      add\n      swap1\n      dup2\n      mstore\n      0x20\n      add\n      0x00\n      keccak256\n        /* \"contracts/edits.sol\":6680:6700  users[_shop].balance */\n      0x01\n      add\n      0x00\n        /* \"contracts/edits.sol\":6680:6715  users[_shop].balance -= totalRefSum */\n      dup3\n      dup3\n      sload\n      tag_222\n      swap2\n      swap1\n      tag_223\n      jump\t// in\n    tag_222:\n      swap3\n      pop\n      pop\n      dup2\n      swap1\n      sstore\n      pop\n        /* \"contracts/edits.sol\":6863:6873  msg.sender */\n      caller\n        /* \"contracts/edits.sol\":6855:6883  payable(msg.sender).transfer */\n      0xffffffffffffffffffffffffffffffffffffffff\n      and\n        /* \"contracts/edits.sol\":6855:6896  payable(msg.sender).transfer(totalRefSum) */\n      0x08fc\n        /* \"contracts/edits.sol\":6884:6895  totalRefSum */\n      dup3\n        /* \"contracts/edits.sol\":6855:6896  payable(msg.sender).transfer(totalRefSum) */\n      swap1\n      dup2\n      iszero\n      mul\n      swap1\n      mload(0x40)\n      0x00\n      mload(0x40)\n      dup1\n      dup4\n      sub\n      dup2\n      dup6\n      dup9\n      dup9\n      call\n      swap4\n      pop\n      pop\n      pop\n      pop\n      iszero\n      dup1\n      iszero\n      tag_225\n      jumpi\n      returndatasize\n      0x00\n      dup1\n      returndatacopy\n      revert(0x00, returndatasize)\n    tag_225:\n      pop\n        /* \"contracts/edits.sol\":6295:6903  {... */\n      pop\n        /* \"contracts/edits.sol\":6240:6903  function refund(address _shop, uint _productId) public {... */\n      pop\n      pop\n      jump\t// out\n        /* \"contracts/edits.sol\":1150:1201  mapping(address => Product[]) public marketProducts */\n    tag_65:\n      mstore(0x20, 0x05)\n      dup2\n      0x00\n      mstore\n      keccak256(0x00, 0x40)\n      dup2\n      dup2\n      sload\n      dup2\n      lt\n      tag_226\n      jumpi\n      0x00\n      dup1\n      revert\n    tag_226:\n      swap1\n      0x00\n      mstore\n      keccak256(0x00, 0x20)\n      swap1\n      0x05\n      mul\n      add\n      0x00\n      swap2\n      pop\n      swap2\n      pop\n      pop\n      dup1\n      0x00\n      add\n      0x00\n      swap1\n      sload\n      swap1\n      0x0100\n      exp\n      swap1\n      div\n      0xffffffffffffffffffffffffffffffffffffffff\n      and\n      swap1\n      dup1\n      0x01\n      add\n      sload\n      swap1\n      dup1\n      0x02\n      add\n      sload\n      swap1\n      dup1\n      0x03\n      add\n      dup1\n      sload\n      tag_228\n      swap1\n      tag_168\n      jump\t// in\n    tag_228:\n      dup1\n      0x1f\n      add\n      0x20\n      dup1\n      swap2\n      div\n      mul\n      0x20\n      add\n      mload(0x40)\n      swap1\n      dup2\n      add\n      0x40\n      mstore\n      dup1\n      swap3\n      swap2\n      swap1\n      dup2\n      dup2\n      mstore\n      0x20\n      add\n      dup3\n      dup1\n      sload\n      tag_229\n      swap1\n      tag_168\n      jump\t// in\n    tag_229:\n      dup1\n      iszero\n      tag_230\n      jumpi\n      dup1\n      0x1f\n      lt\n      tag_231\n      jumpi\n      0x0100\n      dup1\n      dup4\n      sload\n      div\n      mul\n      dup4\n      mstore\n      swap2\n      0x20\n      add\n      swap2\n      jump(tag_230)\n    tag_231:\n      dup3\n      add\n      swap2\n      swap1\n      0x00\n      mstore\n      keccak256(0x00, 0x20)\n      swap1\n    tag_232:\n      dup2\n      sload\n      dup2\n      mstore\n      swap1\n      0x01\n      add\n      swap1\n      0x20\n      add\n      dup1\n      dup4\n      gt\n      tag_232\n      jumpi\n      dup3\n      swap1\n      sub\n      0x1f\n      and\n      dup3\n      add\n      swap2\n    tag_230:\n      pop\n      pop\n      pop\n      pop\n      pop\n      swap1\n      dup1\n      0x04\n      add\n      sload\n      swap1\n      pop\n      dup6\n      jump\t// out\n        /* \"contracts/edits.sol\":439:462  Ticket[] public tickets */\n    tag_70:\n      0x00\n      dup2\n      dup2\n      sload\n      dup2\n      lt\n      tag_233\n      jumpi\n      0x00\n      dup1\n      revert\n    tag_233:\n      swap1\n      0x00\n      mstore\n      keccak256(0x00, 0x20)\n      add\n      0x00\n      swap2\n      pop\n      swap1\n      pop\n      dup1\n      0x00\n      add\n      0x00\n      swap1\n      sload\n      swap1\n      0x0100\n      exp\n      swap1\n      div\n      0xffffffffffffffffffffffffffffffffffffffff\n      and\n      swap1\n      dup1\n      0x00\n      add\n      0x14\n      swap1\n      sload\n      swap1\n      0x0100\n      exp\n      swap1\n      div\n      0xff\n      and\n      swap1\n      pop\n      dup3\n      jump\t// out\n        /* \"contracts/edits.sol\":2057:2152  function changeRole(Role _role) public {... */\n    tag_77:\n        /* \"contracts/edits.sol\":2106:2113  tickets */\n      0x00\n        /* \"contracts/edits.sol\":2119:2144  Ticket(msg.sender, _role) */\n      mload(0x40)\n      dup1\n      0x40\n      add\n      0x40\n      mstore\n      dup1\n        /* \"contracts/edits.sol\":2126:2136  msg.sender */\n      caller\n        /* \"contracts/edits.sol\":2119:2144  Ticket(msg.sender, _role) */\n      0xffffffffffffffffffffffffffffffffffffffff\n      and\n      dup2\n      mstore\n      0x20\n      add\n        /* \"contracts/edits.sol\":2138:2143  _role */\n      dup4\n        /* \"contracts/edits.sol\":2119:2144  Ticket(msg.sender, _role) */\n      0x02\n      dup2\n      gt\n      iszero\n      tag_236\n      jumpi\n      tag_237\n      tag_155\n      jump\t// in\n    tag_237:\n    tag_236:\n      dup2\n      mstore\n      pop\n        /* \"contracts/edits.sol\":2106:2145  tickets.push(Ticket(msg.sender, _role)) */\n      swap1\n      dup1\n      0x01\n      dup2\n      sload\n      add\n      dup1\n      dup3\n      sstore\n      dup1\n      swap2\n      pop\n      pop\n      0x01\n      swap1\n      sub\n      swap1\n      0x00\n      mstore\n      keccak256(0x00, 0x20)\n      add\n      0x00\n      swap1\n      swap2\n      swap1\n      swap2\n      swap1\n      swap2\n      pop\n      0x00\n      dup3\n      add\n      mload\n      dup2\n      0x00\n      add\n      exp(0x0100, 0x00)\n      dup2\n      sload\n      dup2\n      0xffffffffffffffffffffffffffffffffffffffff\n      mul\n      not\n      and\n      swap1\n      dup4\n      0xffffffffffffffffffffffffffffffffffffffff\n      and\n      mul\n      or\n      swap1\n      sstore\n      pop\n      0x20\n      dup3\n      add\n      mload\n      dup2\n      0x00\n      add\n      exp(0x0100, 0x14)\n      dup2\n      sload\n      dup2\n      0xff\n      mul\n      not\n      and\n      swap1\n      dup4\n      0x02\n      dup2\n      gt\n      iszero\n      tag_239\n      jumpi\n      tag_240\n      tag_155\n      jump\t// in\n    tag_240:\n    tag_239:\n      mul\n      or\n      swap1\n      sstore\n      pop\n      pop\n      pop\n        /* \"contracts/edits.sol\":2057:2152  function changeRole(Role _role) public {... */\n      pop\n      jump\t// out\n        /* \"contracts/edits.sol\":2376:2766  function toUpper(string memory input) public pure returns (string memory) {... */\n    tag_82:\n        /* \"contracts/edits.sol\":2435:2448  string memory */\n      0x60\n        /* \"contracts/edits.sol\":2460:2483  bytes memory inputBytes */\n      0x00\n        /* \"contracts/edits.sol\":2492:2497  input */\n      dup3\n        /* \"contracts/edits.sol\":2460:2498  bytes memory inputBytes = bytes(input) */\n      swap1\n      pop\n        /* \"contracts/edits.sol\":2513:2522  uint256 i */\n      0x00\n        /* \"contracts/edits.sol\":2508:2725  for (uint256 i = 0; i < inputBytes.length; i++) {... */\n    tag_242:\n        /* \"contracts/edits.sol\":2532:2542  inputBytes */\n      dup2\n        /* \"contracts/edits.sol\":2532:2549  inputBytes.length */\n      mload\n        /* \"contracts/edits.sol\":2528:2529  i */\n      dup2\n        /* \"contracts/edits.sol\":2528:2549  i < inputBytes.length */\n      lt\n        /* \"contracts/edits.sol\":2508:2725  for (uint256 i = 0; i < inputBytes.length; i++) {... */\n      iszero\n      tag_243\n      jumpi\n        /* \"contracts/edits.sol\":2598:2600  97 */\n      0x61\n        /* \"contracts/edits.sol\":2580:2590  inputBytes */\n      dup3\n        /* \"contracts/edits.sol\":2591:2592  i */\n      dup3\n        /* \"contracts/edits.sol\":2580:2593  inputBytes[i] */\n      dup2\n      mload\n      dup2\n      lt\n      tag_245\n      jumpi\n      tag_246\n      tag_195\n      jump\t// in\n    tag_246:\n    tag_245:\n      0x20\n      add\n      add\n      mload\n      0xf8\n      shr\n      0xf8\n      shl\n        /* \"contracts/edits.sol\":2574:2594  uint8(inputBytes[i]) */\n      0xf8\n      shr\n        /* \"contracts/edits.sol\":2574:2600  uint8(inputBytes[i]) >= 97 */\n      0xff\n      and\n      lt\n      iszero\n        /* \"contracts/edits.sol\":2574:2631  uint8(inputBytes[i]) >= 97 && uint8(inputBytes[i]) <= 122 */\n      dup1\n      iszero\n      tag_247\n      jumpi\n      pop\n        /* \"contracts/edits.sol\":2628:2631  122 */\n      0x7a\n        /* \"contracts/edits.sol\":2610:2620  inputBytes */\n      dup3\n        /* \"contracts/edits.sol\":2621:2622  i */\n      dup3\n        /* \"contracts/edits.sol\":2610:2623  inputBytes[i] */\n      dup2\n      mload\n      dup2\n      lt\n      tag_248\n      jumpi\n      tag_249\n      tag_195\n      jump\t// in\n    tag_249:\n    tag_248:\n      0x20\n      add\n      add\n      mload\n      0xf8\n      shr\n      0xf8\n      shl\n        /* \"contracts/edits.sol\":2604:2624  uint8(inputBytes[i]) */\n      0xf8\n      shr\n        /* \"contracts/edits.sol\":2604:2631  uint8(inputBytes[i]) <= 122 */\n      0xff\n      and\n      gt\n      iszero\n        /* \"contracts/edits.sol\":2574:2631  uint8(inputBytes[i]) >= 97 && uint8(inputBytes[i]) <= 122 */\n    tag_247:\n        /* \"contracts/edits.sol\":2570:2715  if (uint8(inputBytes[i]) >= 97 && uint8(inputBytes[i]) <= 122) {... */\n      iszero\n      tag_250\n      jumpi\n        /* \"contracts/edits.sol\":2697:2699  32 */\n      0x20\n        /* \"contracts/edits.sol\":2680:2690  inputBytes */\n      dup3\n        /* \"contracts/edits.sol\":2691:2692  i */\n      dup3\n        /* \"contracts/edits.sol\":2680:2693  inputBytes[i] */\n      dup2\n      mload\n      dup2\n      lt\n      tag_251\n      jumpi\n      tag_252\n      tag_195\n      jump\t// in\n    tag_252:\n    tag_251:\n      0x20\n      add\n      add\n      mload\n      0xf8\n      shr\n      0xf8\n      shl\n        /* \"contracts/edits.sol\":2674:2694  uint8(inputBytes[i]) */\n      0xf8\n      shr\n        /* \"contracts/edits.sol\":2674:2699  uint8(inputBytes[i]) - 32 */\n      tag_253\n      swap2\n      swap1\n      tag_254\n      jump\t// in\n    tag_253:\n        /* \"contracts/edits.sol\":2667:2700  bytes1(uint8(inputBytes[i]) - 32) */\n      0xf8\n      shl\n        /* \"contracts/edits.sol\":2651:2661  inputBytes */\n      dup3\n        /* \"contracts/edits.sol\":2662:2663  i */\n      dup3\n        /* \"contracts/edits.sol\":2651:2664  inputBytes[i] */\n      dup2\n      mload\n      dup2\n      lt\n      tag_255\n      jumpi\n      tag_256\n      tag_195\n      jump\t// in\n    tag_256:\n    tag_255:\n      0x20\n      add\n      add\n        /* \"contracts/edits.sol\":2651:2700  inputBytes[i] = bytes1(uint8(inputBytes[i]) - 32) */\n      swap1\n      not(0xffffffffffffffffffffffffffffffffffffffffffffffffffffffffffffff)\n      and\n      swap1\n      dup2\n      0x00\n      byte\n      swap1\n      mstore8\n      pop\n        /* \"contracts/edits.sol\":2570:2715  if (uint8(inputBytes[i]) >= 97 && uint8(inputBytes[i]) <= 122) {... */\n    tag_250:\n        /* \"contracts/edits.sol\":2551:2554  i++ */\n      dup1\n      dup1\n      tag_257\n      swap1\n      tag_258\n      jump\t// in\n    tag_257:\n      swap2\n      pop\n      pop\n        /* \"contracts/edits.sol\":2508:2725  for (uint256 i = 0; i < inputBytes.length; i++) {... */\n      jump(tag_242)\n    tag_243:\n      pop\n        /* \"contracts/edits.sol\":2748:2758  inputBytes */\n      dup1\n        /* \"contracts/edits.sol\":2734:2759  return string(inputBytes) */\n      swap2\n      pop\n      pop\n        /* \"contracts/edits.sol\":2376:2766  function toUpper(string memory input) public pure returns (string memory) {... */\n      swap2\n      swap1\n      pop\n      jump\t// out\n        /* \"contracts/edits.sol\":1739:1826  function makeMarket() public  {... */\n    tag_87:\n        /* \"contracts/edits.sol\":1799:1819  User(Role.Market, 0) */\n      mload(0x40)\n      dup1\n      0x40\n      add\n      0x40\n      mstore\n      dup1\n        /* \"contracts/edits.sol\":1804:1815  Role.Market */\n      0x01\n        /* \"contracts/edits.sol\":1799:1819  User(Role.Market, 0) */\n      0x02\n      dup2\n      gt\n      iszero\n      tag_260\n      jumpi\n      tag_261\n      tag_155\n      jump\t// in\n    tag_261:\n    tag_260:\n      dup2\n      mstore\n      0x20\n      add\n        /* \"contracts/edits.sol\":1817:1818  0 */\n      0x00\n        /* \"contracts/edits.sol\":1799:1819  User(Role.Market, 0) */\n      dup2\n      mstore\n      pop\n        /* \"contracts/edits.sol\":1779:1784  users */\n      0x03\n        /* \"contracts/edits.sol\":1779:1796  users[msg.sender] */\n      0x00\n        /* \"contracts/edits.sol\":1785:1795  msg.sender */\n      caller\n        /* \"contracts/edits.sol\":1779:1796  users[msg.sender] */\n      0xffffffffffffffffffffffffffffffffffffffff\n      and\n      0xffffffffffffffffffffffffffffffffffffffff\n      and\n      dup2\n      mstore\n      0x20\n      add\n      swap1\n      dup2\n      mstore\n      0x20\n      add\n      0x00\n      keccak256\n        /* \"contracts/edits.sol\":1779:1819  users[msg.sender] = User(Role.Market, 0) */\n      0x00\n      dup3\n      add\n      mload\n      dup2\n      0x00\n      add\n      exp(0x0100, 0x00)\n      dup2\n      sload\n      dup2\n      0xff\n      mul\n      not\n      and\n      swap1\n      dup4\n      0x02\n      dup2\n      gt\n      iszero\n      tag_262\n      jumpi\n      tag_263\n      tag_155\n      jump\t// in\n    tag_263:\n    tag_262:\n      mul\n      or\n      swap1\n      sstore\n      pop\n      0x20\n      dup3\n      add\n      mload\n      dup2\n      0x01\n      add\n      sstore\n      swap1\n      pop\n      pop\n        /* \"contracts/edits.sol\":1739:1826  function makeMarket() public  {... */\n      jump\t// out\n        /* \"contracts/edits.sol\":1832:2051  function approveChangeRole(uint _idTicket) public OnlyOwner {... */\n    tag_91:\n        /* \"contracts/edits.sol\":1373:1378  owner */\n      0x01\n      0x00\n      swap1\n      sload\n      swap1\n      0x0100\n      exp\n      swap1\n      div\n      0xffffffffffffffffffffffffffffffffffffffff\n      and\n        /* \"contracts/edits.sol\":1359:1378  msg.sender == owner */\n      0xffffffffffffffffffffffffffffffffffffffff\n      and\n        /* \"contracts/edits.sol\":1359:1369  msg.sender */\n      caller\n        /* \"contracts/edits.sol\":1359:1378  msg.sender == owner */\n      0xffffffffffffffffffffffffffffffffffffffff\n      and\n      eq\n        /* \"contracts/edits.sol\":1351:1379  require(msg.sender == owner) */\n      tag_265\n      jumpi\n      0x00\n      dup1\n      revert\n    tag_265:\n        /* \"contracts/edits.sol\":1902:1918  address userAddr */\n      0x00\n        /* \"contracts/edits.sol\":1921:1928  tickets */\n      dup1\n        /* \"contracts/edits.sol\":1929:1938  _idTicket */\n      dup3\n        /* \"contracts/edits.sol\":1921:1939  tickets[_idTicket] */\n      dup2\n      sload\n      dup2\n      lt\n      tag_267\n      jumpi\n      tag_268\n      tag_195\n      jump\t// in\n    tag_268:\n    tag_267:\n      swap1\n      0x00\n      mstore\n      keccak256(0x00, 0x20)\n      add\n        /* \"contracts/edits.sol\":1921:1948  tickets[_idTicket].userAddr */\n      0x00\n      add\n      0x00\n      swap1\n      sload\n      swap1\n      0x0100\n      exp\n      swap1\n      div\n      0xffffffffffffffffffffffffffffffffffffffff\n      and\n        /* \"contracts/edits.sol\":1902:1948  address userAddr = tickets[_idTicket].userAddr */\n      swap1\n      pop\n        /* \"contracts/edits.sol\":1958:1974  Role changedRole */\n      0x00\n        /* \"contracts/edits.sol\":1977:1984  tickets */\n      dup1\n        /* \"contracts/edits.sol\":1985:1994  _idTicket */\n      dup4\n        /* \"contracts/edits.sol\":1977:1995  tickets[_idTicket] */\n      dup2\n      sload\n      dup2\n      lt\n      tag_270\n      jumpi\n      tag_271\n      tag_195\n      jump\t// in\n    tag_271:\n    tag_270:\n      swap1\n      0x00\n      mstore\n      keccak256(0x00, 0x20)\n      add\n        /* \"contracts/edits.sol\":1977:2000  tickets[_idTicket].role */\n      0x00\n      add\n      0x14\n      swap1\n      sload\n      swap1\n      0x0100\n      exp\n      swap1\n      div\n      0xff\n      and\n        /* \"contracts/edits.sol\":1958:2000  Role changedRole = tickets[_idTicket].role */\n      swap1\n      pop\n        /* \"contracts/edits.sol\":2033:2044  changedRole */\n      dup1\n        /* \"contracts/edits.sol\":2010:2015  users */\n      0x03\n        /* \"contracts/edits.sol\":2010:2025  users[userAddr] */\n      0x00\n        /* \"contracts/edits.sol\":2016:2024  userAddr */\n      dup5\n        /* \"contracts/edits.sol\":2010:2025  users[userAddr] */\n      0xffffffffffffffffffffffffffffffffffffffff\n      and\n      0xffffffffffffffffffffffffffffffffffffffff\n      and\n      dup2\n      mstore\n      0x20\n      add\n      swap1\n      dup2\n      mstore\n      0x20\n      add\n      0x00\n      keccak256\n        /* \"contracts/edits.sol\":2010:2030  users[userAddr].role */\n      0x00\n      add\n      0x00\n        /* \"contracts/edits.sol\":2010:2044  users[userAddr].role = changedRole */\n      0x0100\n      exp\n      dup2\n      sload\n      dup2\n      0xff\n      mul\n      not\n      and\n      swap1\n      dup4\n      0x02\n      dup2\n      gt\n      iszero\n      tag_273\n      jumpi\n      tag_274\n      tag_155\n      jump\t// in\n    tag_274:\n    tag_273:\n      mul\n      or\n      swap1\n      sstore\n      pop\n        /* \"contracts/edits.sol\":1892:2051  {... */\n      pop\n      pop\n        /* \"contracts/edits.sol\":1832:2051  function approveChangeRole(uint _idTicket) public OnlyOwner {... */\n      pop\n      jump\t// out\n        /* \"contracts/edits.sol\":2940:3530  function makeDelivery(address _shop, uint _productId, uint _amount) public {... */\n    tag_96:\n        /* \"contracts/edits.sol\":3043:3044  0 */\n      0x00\n        /* \"contracts/edits.sol\":3033:3040  _amount */\n      dup2\n        /* \"contracts/edits.sol\":3033:3044  _amount > 0 */\n      gt\n        /* \"contracts/edits.sol\":3025:3087  require(_amount > 0, \"Purchase amount must be greater than 0\") */\n      tag_276\n      jumpi\n      mload(0x40)\n      0x08c379a000000000000000000000000000000000000000000000000000000000\n      dup2\n      mstore\n      0x04\n      add\n      tag_277\n      swap1\n      tag_278\n      jump\t// in\n    tag_277:\n      mload(0x40)\n      dup1\n      swap2\n      sub\n      swap1\n      revert\n    tag_276:\n        /* \"contracts/edits.sol\":3118:3132  marketProducts */\n      0x05\n        /* \"contracts/edits.sol\":3118:3139  marketProducts[_shop] */\n      0x00\n        /* \"contracts/edits.sol\":3133:3138  _shop */\n      dup5\n        /* \"contracts/edits.sol\":3118:3139  marketProducts[_shop] */\n      0xffffffffffffffffffffffffffffffffffffffff\n      and\n      0xffffffffffffffffffffffffffffffffffffffff\n      and\n      dup2\n      mstore\n      0x20\n      add\n      swap1\n      dup2\n      mstore\n      0x20\n      add\n      0x00\n      keccak256\n        /* \"contracts/edits.sol\":3118:3146  marketProducts[_shop].length */\n      dup1\n      sload\n      swap1\n      pop\n        /* \"contracts/edits.sol\":3105:3115  _productId */\n      dup3\n        /* \"contracts/edits.sol\":3105:3146  _productId < marketProducts[_shop].length */\n      lt\n        /* \"contracts/edits.sol\":3097:3169  require(_productId < marketProducts[_shop].length, \"Invalid product ID\") */\n      tag_279\n      jumpi\n      mload(0x40)\n      0x08c379a000000000000000000000000000000000000000000000000000000000\n      dup2\n      mstore\n      0x04\n      add\n      tag_280\n      swap1\n      tag_281\n      jump\t// in\n    tag_280:\n      mload(0x40)\n      dup1\n      swap2\n      sub\n      swap1\n      revert\n    tag_279:\n        /* \"contracts/edits.sol\":3179:3204  string memory productName */\n      0x00\n        /* \"contracts/edits.sol\":3207:3221  marketProducts */\n      0x05\n        /* \"contracts/edits.sol\":3207:3228  marketProducts[_shop] */\n      0x00\n        /* \"contracts/edits.sol\":3222:3227  _shop */\n      dup6\n        /* \"contracts/edits.sol\":3207:3228  marketProducts[_shop] */\n      0xffffffffffffffffffffffffffffffffffffffff\n      and\n      0xffffffffffffffffffffffffffffffffffffffff\n      and\n      dup2\n      mstore\n      0x20\n      add\n      swap1\n      dup2\n      mstore\n      0x20\n      add\n      0x00\n      keccak256\n        /* \"contracts/edits.sol\":3229:3239  _productId */\n      dup4\n        /* \"contracts/edits.sol\":3207:3240  marketProducts[_shop][_productId] */\n      dup2\n      sload\n      dup2\n      lt\n      tag_282\n      jumpi\n      tag_283\n      tag_195\n      jump\t// in\n    tag_283:\n    tag_282:\n      swap1\n      0x00\n      mstore\n      keccak256(0x00, 0x20)\n      swap1\n      0x05\n      mul\n      add\n        /* \"contracts/edits.sol\":3207:3245  marketProducts[_shop][_productId].name */\n      0x03\n      add\n        /* \"contracts/edits.sol\":3179:3245  string memory productName = marketProducts[_shop][_productId].name */\n      dup1\n      sload\n      tag_285\n      swap1\n      tag_168\n      jump\t// in\n    tag_285:\n      dup1\n      0x1f\n      add\n      0x20\n      dup1\n      swap2\n      div\n      mul\n      0x20\n      add\n      mload(0x40)\n      swap1\n      dup2\n      add\n      0x40\n      mstore\n      dup1\n      swap3\n      swap2\n      swap1\n      dup2\n      dup2\n      mstore\n      0x20\n      add\n      dup3\n      dup1\n      sload\n      tag_286\n      swap1\n      tag_168\n      jump\t// in\n    tag_286:\n      dup1\n      iszero\n      tag_287\n      jumpi\n      dup1\n      0x1f\n      lt\n      tag_288\n      jumpi\n      0x0100\n      dup1\n      dup4\n      sload\n      div\n      mul\n      dup4\n      mstore\n      swap2\n      0x20\n      add\n      swap2\n      jump(tag_287)\n    tag_288:\n      dup3\n      add\n      swap2\n      swap1\n      0x00\n      mstore\n      keccak256(0x00, 0x20)\n      swap1\n    tag_289:\n      dup2\n      sload\n      dup2\n      mstore\n      swap1\n      0x01\n      add\n      swap1\n      0x20\n      add\n      dup1\n      dup4\n      gt\n      tag_289\n      jumpi\n      dup3\n      swap1\n      sub\n      0x1f\n      and\n      dup3\n      add\n      swap2\n    tag_287:\n      pop\n      pop\n      pop\n      pop\n      pop\n      swap1\n      pop\n        /* \"contracts/edits.sol\":3255:3280  string memory trackNumber */\n      0x00\n        /* \"contracts/edits.sol\":3302:3313  productName */\n      dup2\n        /* \"contracts/edits.sol\":3283:3319  string.concat(\"AA\",productName,\"BB\") */\n      add(0x20, mload(0x40))\n      tag_290\n      swap2\n      swap1\n      tag_291\n      jump\t// in\n    tag_290:\n      mload(0x40)\n      0x20\n      dup2\n      dup4\n      sub\n      sub\n      dup2\n      mstore\n      swap1\n      0x40\n      mstore\n        /* \"contracts/edits.sol\":3255:3319  string memory trackNumber = string.concat(\"AA\",productName,\"BB\") */\n      swap1\n      pop\n        /* \"contracts/edits.sol\":3343:3363  toUpper(trackNumber) */\n      tag_292\n        /* \"contracts/edits.sol\":3351:3362  trackNumber */\n      dup2\n        /* \"contracts/edits.sol\":3343:3350  toUpper */\n      tag_82\n        /* \"contracts/edits.sol\":3343:3363  toUpper(trackNumber) */\n      jump\t// in\n    tag_292:\n        /* \"contracts/edits.sol\":3329:3363  trackNumber = toUpper(trackNumber) */\n      swap1\n      pop\n        /* \"contracts/edits.sol\":3373:3399  DeliveryOrder memory order */\n      0x00\n        /* \"contracts/edits.sol\":3402:3487  DeliveryOrder(msg.sender, _shop, Status.Prepairing, trackNumber, _productId, _amount) */\n      mload(0x40)\n      dup1\n      0xc0\n      add\n      0x40\n      mstore\n      dup1\n        /* \"contracts/edits.sol\":3416:3426  msg.sender */\n      caller\n        /* \"contracts/edits.sol\":3402:3487  DeliveryOrder(msg.sender, _shop, Status.Prepairing, trackNumber, _productId, _amount) */\n      0xffffffffffffffffffffffffffffffffffffffff\n      and\n      dup2\n      mstore\n      0x20\n      add\n        /* \"contracts/edits.sol\":3428:3433  _shop */\n      dup8\n        /* \"contracts/edits.sol\":3402:3487  DeliveryOrder(msg.sender, _shop, Status.Prepairing, trackNumber, _productId, _amount) */\n      0xffffffffffffffffffffffffffffffffffffffff\n      and\n      dup2\n      mstore\n      0x20\n      add\n        /* \"contracts/edits.sol\":3435:3452  Status.Prepairing */\n      0x01\n        /* \"contracts/edits.sol\":3402:3487  DeliveryOrder(msg.sender, _shop, Status.Prepairing, trackNumber, _productId, _amount) */\n      0x03\n      dup2\n      gt\n      iszero\n      tag_293\n      jumpi\n      tag_294\n      tag_155\n      jump\t// in\n    tag_294:\n    tag_293:\n      dup2\n      mstore\n      0x20\n      add\n        /* \"contracts/edits.sol\":3454:3465  trackNumber */\n      dup4\n        /* \"contracts/edits.sol\":3402:3487  DeliveryOrder(msg.sender, _shop, Status.Prepairing, trackNumber, _productId, _amount) */\n      dup2\n      mstore\n      0x20\n      add\n        /* \"contracts/edits.sol\":3467:3477  _productId */\n      dup7\n        /* \"contracts/edits.sol\":3402:3487  DeliveryOrder(msg.sender, _shop, Status.Prepairing, trackNumber, _productId, _amount) */\n      dup2\n      mstore\n      0x20\n      add\n        /* \"contracts/edits.sol\":3479:3486  _amount */\n      dup6\n        /* \"contracts/edits.sol\":3402:3487  DeliveryOrder(msg.sender, _shop, Status.Prepairing, trackNumber, _productId, _amount) */\n      dup2\n      mstore\n      pop\n        /* \"contracts/edits.sol\":3373:3487  DeliveryOrder memory order = DeliveryOrder(msg.sender, _shop, Status.Prepairing, trackNumber, _productId, _amount) */\n      swap1\n      pop\n        /* \"contracts/edits.sol\":3497:3511  deliveryOrders */\n      0x02\n        /* \"contracts/edits.sol\":3517:3522  order */\n      dup2\n        /* \"contracts/edits.sol\":3497:3523  deliveryOrders.push(order) */\n      swap1\n      dup1\n      0x01\n      dup2\n      sload\n      add\n      dup1\n      dup3\n      sstore\n      dup1\n      swap2\n      pop\n      pop\n      0x01\n      swap1\n      sub\n      swap1\n      0x00\n      mstore\n      keccak256(0x00, 0x20)\n      swap1\n      0x05\n      mul\n      add\n      0x00\n      swap1\n      swap2\n      swap1\n      swap2\n      swap1\n      swap2\n      pop\n      0x00\n      dup3\n      add\n      mload\n      dup2\n      0x00\n      add\n      exp(0x0100, 0x00)\n      dup2\n      sload\n      dup2\n      0xffffffffffffffffffffffffffffffffffffffff\n      mul\n      not\n      and\n      swap1\n      dup4\n      0xffffffffffffffffffffffffffffffffffffffff\n      and\n      mul\n      or\n      swap1\n      sstore\n      pop\n      0x20\n      dup3\n      add\n      mload\n      dup2\n      0x01\n      add\n      exp(0x0100, 0x00)\n      dup2\n      sload\n      dup2\n      0xffffffffffffffffffffffffffffffffffffffff\n      mul\n      not\n      and\n      swap1\n      dup4\n      0xffffffffffffffffffffffffffffffffffffffff\n      and\n      mul\n      or\n      swap1\n      sstore\n      pop\n      0x40\n      dup3\n      add\n      mload\n      dup2\n      0x01\n      add\n      exp(0x0100, 0x14)\n      dup2\n      sload\n      dup2\n      0xff\n      mul\n      not\n      and\n      swap1\n      dup4\n      0x03\n      dup2\n      gt\n      iszero\n      tag_296\n      jumpi\n      tag_297\n      tag_155\n      jump\t// in\n    tag_297:\n    tag_296:\n      mul\n      or\n      swap1\n      sstore\n      pop\n      0x60\n      dup3\n      add\n      mload\n      dup2\n      0x02\n      add\n      swap1\n      dup2\n      tag_298\n      swap2\n      swap1\n      tag_164\n      jump\t// in\n    tag_298:\n      pop\n      0x80\n      dup3\n      add\n      mload\n      dup2\n      0x03\n      add\n      sstore\n      0xa0\n      dup3\n      add\n      mload\n      dup2\n      0x04\n      add\n      sstore\n      pop\n      pop\n        /* \"contracts/edits.sol\":3015:3530  {... */\n      pop\n      pop\n      pop\n        /* \"contracts/edits.sol\":2940:3530  function makeDelivery(address _shop, uint _productId, uint _amount) public {... */\n      pop\n      pop\n      pop\n      jump\t// out\n        /* \"contracts/edits.sol\":3536:3826  function approveDelivery(bool _status, uint _deliveryId) public AccessControl(Role.Market) {... */\n    tag_101:\n        /* \"contracts/edits.sol\":3614:3625  Role.Market */\n      0x01\n        /* \"contracts/edits.sol\":1485:1490  _role */\n      dup1\n        /* \"contracts/edits.sol\":1459:1490  users[msg.sender].role == _role */\n      0x02\n      dup2\n      gt\n      iszero\n      tag_300\n      jumpi\n      tag_301\n      tag_155\n      jump\t// in\n    tag_301:\n    tag_300:\n        /* \"contracts/edits.sol\":1459:1464  users */\n      0x03\n        /* \"contracts/edits.sol\":1459:1476  users[msg.sender] */\n      0x00\n        /* \"contracts/edits.sol\":1465:1475  msg.sender */\n      caller\n        /* \"contracts/edits.sol\":1459:1476  users[msg.sender] */\n      0xffffffffffffffffffffffffffffffffffffffff\n      and\n      0xffffffffffffffffffffffffffffffffffffffff\n      and\n      dup2\n      mstore\n      0x20\n      add\n      swap1\n      dup2\n      mstore\n      0x20\n      add\n      0x00\n      keccak256\n        /* \"contracts/edits.sol\":1459:1481  users[msg.sender].role */\n      0x00\n      add\n      0x00\n      swap1\n      sload\n      swap1\n      0x0100\n      exp\n      swap1\n      div\n      0xff\n      and\n        /* \"contracts/edits.sol\":1459:1490  users[msg.sender].role == _role */\n      0x02\n      dup2\n      gt\n      iszero\n      tag_302\n      jumpi\n      tag_303\n      tag_155\n      jump\t// in\n    tag_303:\n    tag_302:\n      eq\n        /* \"contracts/edits.sol\":1451:1531  require(users[msg.sender].role == _role, \"Your role does not allow this change\") */\n      tag_304\n      jumpi\n      mload(0x40)\n      0x08c379a000000000000000000000000000000000000000000000000000000000\n      dup2\n      mstore\n      0x04\n      add\n      tag_305\n      swap1\n      tag_160\n      jump\t// in\n    tag_305:\n      mload(0x40)\n      dup1\n      swap2\n      sub\n      swap1\n      revert\n    tag_304:\n        /* \"contracts/edits.sol\":3641:3648  _status */\n      dup3\n        /* \"contracts/edits.sol\":3637:3820  if (_status) {... */\n      iszero\n      tag_307\n      jumpi\n        /* \"contracts/edits.sol\":3701:3718  Status.Prepairing */\n      0x01\n        /* \"contracts/edits.sol\":3664:3678  deliveryOrders */\n      0x02\n        /* \"contracts/edits.sol\":3679:3690  _deliveryId */\n      dup4\n        /* \"contracts/edits.sol\":3664:3691  deliveryOrders[_deliveryId] */\n      dup2\n      sload\n      dup2\n      lt\n      tag_308\n      jumpi\n      tag_309\n      tag_195\n      jump\t// in\n    tag_309:\n    tag_308:\n      swap1\n      0x00\n      mstore\n      keccak256(0x00, 0x20)\n      swap1\n      0x05\n      mul\n      add\n        /* \"contracts/edits.sol\":3664:3698  deliveryOrders[_deliveryId].status */\n      0x01\n      add\n      0x14\n        /* \"contracts/edits.sol\":3664:3718  deliveryOrders[_deliveryId].status = Status.Prepairing */\n      0x0100\n      exp\n      dup2\n      sload\n      dup2\n      0xff\n      mul\n      not\n      and\n      swap1\n      dup4\n      0x03\n      dup2\n      gt\n      iszero\n      tag_311\n      jumpi\n      tag_312\n      tag_155\n      jump\t// in\n    tag_312:\n    tag_311:\n      mul\n      or\n      swap1\n      sstore\n      pop\n        /* \"contracts/edits.sol\":3637:3820  if (_status) {... */\n      jump(tag_313)\n    tag_307:\n        /* \"contracts/edits.sol\":3794:3809  Status.Canceled */\n      0x02\n        /* \"contracts/edits.sol\":3757:3771  deliveryOrders */\n      dup1\n        /* \"contracts/edits.sol\":3772:3783  _deliveryId */\n      dup4\n        /* \"contracts/edits.sol\":3757:3784  deliveryOrders[_deliveryId] */\n      dup2\n      sload\n      dup2\n      lt\n      tag_314\n      jumpi\n      tag_315\n      tag_195\n      jump\t// in\n    tag_315:\n    tag_314:\n      swap1\n      0x00\n      mstore\n      keccak256(0x00, 0x20)\n      swap1\n      0x05\n      mul\n      add\n        /* \"contracts/edits.sol\":3757:3791  deliveryOrders[_deliveryId].status */\n      0x01\n      add\n      0x14\n        /* \"contracts/edits.sol\":3757:3809  deliveryOrders[_deliveryId].status = Status.Canceled */\n      0x0100\n      exp\n      dup2\n      sload\n      dup2\n      0xff\n      mul\n      not\n      and\n      swap1\n      dup4\n      0x03\n      dup2\n      gt\n      iszero\n      tag_317\n      jumpi\n      tag_318\n      tag_155\n      jump\t// in\n    tag_318:\n    tag_317:\n      mul\n      or\n      swap1\n      sstore\n      pop\n        /* \"contracts/edits.sol\":3637:3820  if (_status) {... */\n    tag_313:\n        /* \"contracts/edits.sol\":3536:3826  function approveDelivery(bool _status, uint _deliveryId) public AccessControl(Role.Market) {... */\n      pop\n      pop\n      pop\n      jump\t// out\n        /* \"contracts/edits.sol\":2158:2370  function randMod(uint _modulus) public view returns(uint) {   ... */\n    tag_105:\n        /* \"contracts/edits.sol\":2210:2214  uint */\n      0x00\n        /* \"contracts/edits.sol\":2229:2243  uint randNonce */\n      dup1\n        /* \"contracts/edits.sol\":2253:2264  randNonce++ */\n      dup1\n      dup1\n      tag_320\n      swap1\n      tag_258\n      jump\t// in\n    tag_320:\n      swap2\n      pop\n      pop\n        /* \"contracts/edits.sol\":2355:2363  _modulus */\n      dup3\n        /* \"contracts/edits.sol\":2313:2328  block.timestamp */\n      timestamp\n        /* \"contracts/edits.sol\":2329:2339  msg.sender */\n      caller\n        /* \"contracts/edits.sol\":2340:2349  randNonce */\n      dup4\n        /* \"contracts/edits.sol\":2296:2350  abi.encodePacked(block.timestamp,msg.sender,randNonce) */\n      add(0x20, mload(0x40))\n      tag_321\n      swap4\n      swap3\n      swap2\n      swap1\n      tag_322\n      jump\t// in\n    tag_321:\n      mload(0x40)\n      0x20\n      dup2\n      dup4\n      sub\n      sub\n      dup2\n      mstore\n      swap1\n      0x40\n      mstore\n        /* \"contracts/edits.sol\":2286:2351  keccak256(abi.encodePacked(block.timestamp,msg.sender,randNonce)) */\n      dup1\n      mload\n      swap1\n      0x20\n      add\n      keccak256\n        /* \"contracts/edits.sol\":2281:2352  uint(keccak256(abi.encodePacked(block.timestamp,msg.sender,randNonce))) */\n      0x00\n      shr\n        /* \"contracts/edits.sol\":2281:2363  uint(keccak256(abi.encodePacked(block.timestamp,msg.sender,randNonce))) % _modulus */\n      tag_323\n      swap2\n      swap1\n      tag_324\n      jump\t// in\n    tag_323:\n        /* \"contracts/edits.sol\":2274:2363  return uint(keccak256(abi.encodePacked(block.timestamp,msg.sender,randNonce))) % _modulus */\n      swap2\n      pop\n      pop\n        /* \"contracts/edits.sol\":2158:2370  function randMod(uint _modulus) public view returns(uint) {   ... */\n      swap2\n      swap1\n      pop\n      jump\t// out\n        /* \"contracts/edits.sol\":4272:4572  function addItemsSupplier(uint _inStock, uint _price, string calldata _name, uint _expDate, address _addressSupp) public AccessControl(Role.Supplier) {... */\n    tag_112:\n        /* \"contracts/edits.sol\":4407:4420  Role.Supplier */\n      0x02\n        /* \"contracts/edits.sol\":1485:1490  _role */\n      dup1\n        /* \"contracts/edits.sol\":1459:1490  users[msg.sender].role == _role */\n      0x02\n      dup2\n      gt\n      iszero\n      tag_326\n      jumpi\n      tag_327\n      tag_155\n      jump\t// in\n    tag_327:\n    tag_326:\n        /* \"contracts/edits.sol\":1459:1464  users */\n      0x03\n        /* \"contracts/edits.sol\":1459:1476  users[msg.sender] */\n      0x00\n        /* \"contracts/edits.sol\":1465:1475  msg.sender */\n      caller\n        /* \"contracts/edits.sol\":1459:1476  users[msg.sender] */\n      0xffffffffffffffffffffffffffffffffffffffff\n      and\n      0xffffffffffffffffffffffffffffffffffffffff\n      and\n      dup2\n      mstore\n      0x20\n      add\n      swap1\n      dup2\n      mstore\n      0x20\n      add\n      0x00\n      keccak256\n        /* \"contracts/edits.sol\":1459:1481  users[msg.sender].role */\n      0x00\n      add\n      0x00\n      swap1\n      sload\n      swap1\n      0x0100\n      exp\n      swap1\n      div\n      0xff\n      and\n        /* \"contracts/edits.sol\":1459:1490  users[msg.sender].role == _role */\n      0x02\n      dup2\n      gt\n      iszero\n      tag_328\n      jumpi\n      tag_329\n      tag_155\n      jump\t// in\n    tag_329:\n    tag_328:\n      eq\n        /* \"contracts/edits.sol\":1451:1531  require(users[msg.sender].role == _role, \"Your role does not allow this change\") */\n      tag_330\n      jumpi\n      mload(0x40)\n      0x08c379a000000000000000000000000000000000000000000000000000000000\n      dup2\n      mstore\n      0x04\n      add\n      tag_331\n      swap1\n      tag_160\n      jump\t// in\n    tag_331:\n      mload(0x40)\n      dup1\n      swap2\n      sub\n      swap1\n      revert\n    tag_330:\n        /* \"contracts/edits.sol\":4432:4451  Product memory item */\n      0x00\n        /* \"contracts/edits.sol\":4454:4514  Product(_addressSupp, _inStock, _price / 2, _name, _expDate) */\n      mload(0x40)\n      dup1\n      0xa0\n      add\n      0x40\n      mstore\n      dup1\n        /* \"contracts/edits.sol\":4462:4474  _addressSupp */\n      dup5\n        /* \"contracts/edits.sol\":4454:4514  Product(_addressSupp, _inStock, _price / 2, _name, _expDate) */\n      0xffffffffffffffffffffffffffffffffffffffff\n      and\n      dup2\n      mstore\n      0x20\n      add\n        /* \"contracts/edits.sol\":4476:4484  _inStock */\n      dup10\n        /* \"contracts/edits.sol\":4454:4514  Product(_addressSupp, _inStock, _price / 2, _name, _expDate) */\n      dup2\n      mstore\n      0x20\n      add\n        /* \"contracts/edits.sol\":4495:4496  2 */\n      0x02\n        /* \"contracts/edits.sol\":4486:4492  _price */\n      dup10\n        /* \"contracts/edits.sol\":4486:4496  _price / 2 */\n      tag_333\n      swap2\n      swap1\n      tag_334\n      jump\t// in\n    tag_333:\n        /* \"contracts/edits.sol\":4454:4514  Product(_addressSupp, _inStock, _price / 2, _name, _expDate) */\n      dup2\n      mstore\n      0x20\n      add\n        /* \"contracts/edits.sol\":4498:4503  _name */\n      dup8\n      dup8\n        /* \"contracts/edits.sol\":4454:4514  Product(_addressSupp, _inStock, _price / 2, _name, _expDate) */\n      dup1\n      dup1\n      0x1f\n      add\n      0x20\n      dup1\n      swap2\n      div\n      mul\n      0x20\n      add\n      mload(0x40)\n      swap1\n      dup2\n      add\n      0x40\n      mstore\n      dup1\n      swap4\n      swap3\n      swap2\n      swap1\n      dup2\n      dup2\n      mstore\n      0x20\n      add\n      dup4\n      dup4\n      dup1\n      dup3\n      dup5\n      calldatacopy\n      0x00\n      dup2\n      dup5\n      add\n      mstore\n      not(0x1f)\n      0x1f\n      dup3\n      add\n      and\n      swap1\n      pop\n      dup1\n      dup4\n      add\n      swap3\n      pop\n      pop\n      pop\n      pop\n      pop\n      pop\n      pop\n      dup2\n      mstore\n      0x20\n      add\n        /* \"contracts/edits.sol\":4505:4513  _expDate */\n      dup6\n        /* \"contracts/edits.sol\":4454:4514  Product(_addressSupp, _inStock, _price / 2, _name, _expDate) */\n      dup2\n      mstore\n      pop\n        /* \"contracts/edits.sol\":4432:4514  Product memory item = Product(_addressSupp, _inStock, _price / 2, _name, _expDate) */\n      swap1\n      pop\n        /* \"contracts/edits.sol\":4524:4540  supplierProducts */\n      0x06\n        /* \"contracts/edits.sol\":4524:4554  supplierProducts[_addressSupp] */\n      0x00\n        /* \"contracts/edits.sol\":4541:4553  _addressSupp */\n      dup5\n        /* \"contracts/edits.sol\":4524:4554  supplierProducts[_addressSupp] */\n      0xffffffffffffffffffffffffffffffffffffffff\n      and\n      0xffffffffffffffffffffffffffffffffffffffff\n      and\n      dup2\n      mstore\n      0x20\n      add\n      swap1\n      dup2\n      mstore\n      0x20\n      add\n      0x00\n      keccak256\n        /* \"contracts/edits.sol\":4560:4564  item */\n      dup2\n        /* \"contracts/edits.sol\":4524:4565  supplierProducts[_addressSupp].push(item) */\n      swap1\n      dup1\n      0x01\n      dup2\n      sload\n      add\n      dup1\n      dup3\n      sstore\n      dup1\n      swap2\n      pop\n      pop\n      0x01\n      swap1\n      sub\n      swap1\n      0x00\n      mstore\n      keccak256(0x00, 0x20)\n      swap1\n      0x05\n      mul\n      add\n      0x00\n      swap1\n      swap2\n      swap1\n      swap2\n      swap1\n      swap2\n      pop\n      0x00\n      dup3\n      add\n      mload\n      dup2\n      0x00\n      add\n      exp(0x0100, 0x00)\n      dup2\n      sload\n      dup2\n      0xffffffffffffffffffffffffffffffffffffffff\n      mul\n      not\n      and\n      swap1\n      dup4\n      0xffffffffffffffffffffffffffffffffffffffff\n      and\n      mul\n      or\n      swap1\n      sstore\n      pop\n      0x20\n      dup3\n      add\n      mload\n      dup2\n      0x01\n      add\n      sstore\n      0x40\n      dup3\n      add\n      mload\n      dup2\n      0x02\n      add\n      sstore\n      0x60\n      dup3\n      add\n      mload\n      dup2\n      0x03\n      add\n      swap1\n      dup2\n      tag_336\n      swap2\n      swap1\n      tag_164\n      jump\t// in\n    tag_336:\n      pop\n      0x80\n      dup3\n      add\n      mload\n      dup2\n      0x04\n      add\n      sstore\n      pop\n      pop\n        /* \"contracts/edits.sol\":4422:4572  {... */\n      pop\n        /* \"contracts/edits.sol\":4272:4572  function addItemsSupplier(uint _inStock, uint _price, string calldata _name, uint _expDate, address _addressSupp) public AccessControl(Role.Supplier) {... */\n      pop\n      pop\n      pop\n      pop\n      pop\n      pop\n      pop\n      jump\t// out\n        /* \"contracts/edits.sol\":468:488  address public owner */\n    tag_115:\n      0x01\n      0x00\n      swap1\n      sload\n      swap1\n      0x0100\n      exp\n      swap1\n      div\n      0xffffffffffffffffffffffffffffffffffffffff\n      and\n      dup2\n      jump\t// out\n        /* \"contracts/edits.sol\":6909:8512  function purchase(address _shop, uint _amount, uint _id, string memory _ref ) public payable {... */\n    tag_121:\n        /* \"contracts/edits.sol\":7042:7051  Role.User */\n      0x00\n        /* \"contracts/edits.sol\":7016:7051  users[msg.sender].role == Role.User */\n      0x02\n      dup2\n      gt\n      iszero\n      tag_338\n      jumpi\n      tag_339\n      tag_155\n      jump\t// in\n    tag_339:\n    tag_338:\n        /* \"contracts/edits.sol\":7016:7021  users */\n      0x03\n        /* \"contracts/edits.sol\":7016:7033  users[msg.sender] */\n      0x00\n        /* \"contracts/edits.sol\":7022:7032  msg.sender */\n      caller\n        /* \"contracts/edits.sol\":7016:7033  users[msg.sender] */\n      0xffffffffffffffffffffffffffffffffffffffff\n      and\n      0xffffffffffffffffffffffffffffffffffffffff\n      and\n      dup2\n      mstore\n      0x20\n      add\n      swap1\n      dup2\n      mstore\n      0x20\n      add\n      0x00\n      keccak256\n        /* \"contracts/edits.sol\":7016:7038  users[msg.sender].role */\n      0x00\n      add\n      0x00\n      swap1\n      sload\n      swap1\n      0x0100\n      exp\n      swap1\n      div\n      0xff\n      and\n        /* \"contracts/edits.sol\":7016:7051  users[msg.sender].role == Role.User */\n      0x02\n      dup2\n      gt\n      iszero\n      tag_340\n      jumpi\n      tag_341\n      tag_155\n      jump\t// in\n    tag_341:\n    tag_340:\n      sub\n        /* \"contracts/edits.sol\":7012:7117  if (users[msg.sender].role == Role.User) {... */\n      tag_342\n      jumpi\n        /* \"contracts/edits.sol\":7087:7106  User( Role.User, 0) */\n      mload(0x40)\n      dup1\n      0x40\n      add\n      0x40\n      mstore\n      dup1\n        /* \"contracts/edits.sol\":7093:7102  Role.User */\n      0x00\n        /* \"contracts/edits.sol\":7087:7106  User( Role.User, 0) */\n      0x02\n      dup2\n      gt\n      iszero\n      tag_343\n      jumpi\n      tag_344\n      tag_155\n      jump\t// in\n    tag_344:\n    tag_343:\n      dup2\n      mstore\n      0x20\n      add\n        /* \"contracts/edits.sol\":7104:7105  0 */\n      0x00\n        /* \"contracts/edits.sol\":7087:7106  User( Role.User, 0) */\n      dup2\n      mstore\n      pop\n        /* \"contracts/edits.sol\":7067:7072  users */\n      0x03\n        /* \"contracts/edits.sol\":7067:7084  users[msg.sender] */\n      0x00\n        /* \"contracts/edits.sol\":7073:7083  msg.sender */\n      caller\n        /* \"contracts/edits.sol\":7067:7084  users[msg.sender] */\n      0xffffffffffffffffffffffffffffffffffffffff\n      and\n      0xffffffffffffffffffffffffffffffffffffffff\n      and\n      dup2\n      mstore\n      0x20\n      add\n      swap1\n      dup2\n      mstore\n      0x20\n      add\n      0x00\n      keccak256\n        /* \"contracts/edits.sol\":7067:7106  users[msg.sender] = User( Role.User, 0) */\n      0x00\n      dup3\n      add\n      mload\n      dup2\n      0x00\n      add\n      exp(0x0100, 0x00)\n      dup2\n      sload\n      dup2\n      0xff\n      mul\n      not\n      and\n      swap1\n      dup4\n      0x02\n      dup2\n      gt\n      iszero\n      tag_345\n      jumpi\n      tag_346\n      tag_155\n      jump\t// in\n    tag_346:\n    tag_345:\n      mul\n      or\n      swap1\n      sstore\n      pop\n      0x20\n      dup3\n      add\n      mload\n      dup2\n      0x01\n      add\n      sstore\n      swap1\n      pop\n      pop\n        /* \"contracts/edits.sol\":7012:7117  if (users[msg.sender].role == Role.User) {... */\n    tag_342:\n        /* \"contracts/edits.sol\":7153:7154  0 */\n      0x00\n        /* \"contracts/edits.sol\":7143:7150  _amount */\n      dup4\n        /* \"contracts/edits.sol\":7143:7154  _amount > 0 */\n      gt\n        /* \"contracts/edits.sol\":7135:7197  require(_amount > 0, \"Purchase amount must be greater than 0\") */\n      tag_347\n      jumpi\n      mload(0x40)\n      0x08c379a000000000000000000000000000000000000000000000000000000000\n      dup2\n      mstore\n      0x04\n      add\n      tag_348\n      swap1\n      tag_278\n      jump\t// in\n    tag_348:\n      mload(0x40)\n      dup1\n      swap2\n      sub\n      swap1\n      revert\n    tag_347:\n        /* \"contracts/edits.sol\":7221:7235  marketProducts */\n      0x05\n        /* \"contracts/edits.sol\":7221:7242  marketProducts[_shop] */\n      0x00\n        /* \"contracts/edits.sol\":7236:7241  _shop */\n      dup6\n        /* \"contracts/edits.sol\":7221:7242  marketProducts[_shop] */\n      0xffffffffffffffffffffffffffffffffffffffff\n      and\n      0xffffffffffffffffffffffffffffffffffffffff\n      and\n      dup2\n      mstore\n      0x20\n      add\n      swap1\n      dup2\n      mstore\n      0x20\n      add\n      0x00\n      keccak256\n        /* \"contracts/edits.sol\":7221:7249  marketProducts[_shop].length */\n      dup1\n      sload\n      swap1\n      pop\n        /* \"contracts/edits.sol\":7215:7218  _id */\n      dup3\n        /* \"contracts/edits.sol\":7215:7249  _id < marketProducts[_shop].length */\n      lt\n        /* \"contracts/edits.sol\":7207:7272  require(_id < marketProducts[_shop].length, \"Invalid product ID\") */\n      tag_349\n      jumpi\n      mload(0x40)\n      0x08c379a000000000000000000000000000000000000000000000000000000000\n      dup2\n      mstore\n      0x04\n      add\n      tag_350\n      swap1\n      tag_281\n      jump\t// in\n    tag_350:\n      mload(0x40)\n      dup1\n      swap2\n      sub\n      swap1\n      revert\n    tag_349:\n        /* \"contracts/edits.sol\":7301:7315  marketProducts */\n      0x05\n        /* \"contracts/edits.sol\":7301:7322  marketProducts[_shop] */\n      0x00\n        /* \"contracts/edits.sol\":7316:7321  _shop */\n      dup6\n        /* \"contracts/edits.sol\":7301:7322  marketProducts[_shop] */\n      0xffffffffffffffffffffffffffffffffffffffff\n      and\n      0xffffffffffffffffffffffffffffffffffffffff\n      and\n      dup2\n      mstore\n      0x20\n      add\n      swap1\n      dup2\n      mstore\n      0x20\n      add\n      0x00\n      keccak256\n        /* \"contracts/edits.sol\":7323:7326  _id */\n      dup3\n        /* \"contracts/edits.sol\":7301:7327  marketProducts[_shop][_id] */\n      dup2\n      sload\n      dup2\n      lt\n      tag_351\n      jumpi\n      tag_352\n      tag_195\n      jump\t// in\n    tag_352:\n    tag_351:\n      swap1\n      0x00\n      mstore\n      keccak256(0x00, 0x20)\n      swap1\n      0x05\n      mul\n      add\n        /* \"contracts/edits.sol\":7301:7335  marketProducts[_shop][_id].inStock */\n      0x01\n      add\n      sload\n        /* \"contracts/edits.sol\":7290:7297  _amount */\n      dup4\n        /* \"contracts/edits.sol\":7290:7335  _amount <= marketProducts[_shop][_id].inStock */\n      gt\n      iszero\n        /* \"contracts/edits.sol\":7282:7366  require(_amount <= marketProducts[_shop][_id].inStock, \"Not enough stock available\") */\n      tag_354\n      jumpi\n      mload(0x40)\n      0x08c379a000000000000000000000000000000000000000000000000000000000\n      dup2\n      mstore\n      0x04\n      add\n      tag_355\n      swap1\n      tag_356\n      jump\t// in\n    tag_355:\n      mload(0x40)\n      dup1\n      swap2\n      sub\n      swap1\n      revert\n    tag_354:\n        /* \"contracts/edits.sol\":7377:7392  uint totalPrice */\n      0x00\n        /* \"contracts/edits.sol\":7405:7419  marketProducts */\n      0x05\n        /* \"contracts/edits.sol\":7405:7426  marketProducts[_shop] */\n      0x00\n        /* \"contracts/edits.sol\":7420:7425  _shop */\n      dup7\n        /* \"contracts/edits.sol\":7405:7426  marketProducts[_shop] */\n      0xffffffffffffffffffffffffffffffffffffffff\n      and\n      0xffffffffffffffffffffffffffffffffffffffff\n      and\n      dup2\n      mstore\n      0x20\n      add\n      swap1\n      dup2\n      mstore\n      0x20\n      add\n      0x00\n      keccak256\n        /* \"contracts/edits.sol\":7427:7430  _id */\n      dup4\n        /* \"contracts/edits.sol\":7405:7431  marketProducts[_shop][_id] */\n      dup2\n      sload\n      dup2\n      lt\n      tag_357\n      jumpi\n      tag_358\n      tag_195\n      jump\t// in\n    tag_358:\n    tag_357:\n      swap1\n      0x00\n      mstore\n      keccak256(0x00, 0x20)\n      swap1\n      0x05\n      mul\n      add\n        /* \"contracts/edits.sol\":7405:7437  marketProducts[_shop][_id].price */\n      0x02\n      add\n      sload\n        /* \"contracts/edits.sol\":7395:7402  _amount */\n      dup5\n        /* \"contracts/edits.sol\":7395:7437  _amount * marketProducts[_shop][_id].price */\n      tag_360\n      swap2\n      swap1\n      tag_208\n      jump\t// in\n    tag_360:\n        /* \"contracts/edits.sol\":7377:7437  uint totalPrice = _amount * marketProducts[_shop][_id].price */\n      swap1\n      pop\n        /* \"contracts/edits.sol\":7471:7481  msg.sender */\n      caller\n        /* \"contracts/edits.sol\":7452:7481  referrals[_ref] == msg.sender */\n      0xffffffffffffffffffffffffffffffffffffffff\n      and\n        /* \"contracts/edits.sol\":7452:7461  referrals */\n      0x07\n        /* \"contracts/edits.sol\":7462:7466  _ref */\n      dup4\n        /* \"contracts/edits.sol\":7452:7467  referrals[_ref] */\n      mload(0x40)\n      tag_361\n      swap2\n      swap1\n      tag_362\n      jump\t// in\n    tag_361:\n      swap1\n      dup2\n      mstore\n      0x20\n      add\n      mload(0x40)\n      dup1\n      swap2\n      sub\n      swap1\n      keccak256\n      0x00\n      swap1\n      sload\n      swap1\n      0x0100\n      exp\n      swap1\n      div\n      0xffffffffffffffffffffffffffffffffffffffff\n      and\n        /* \"contracts/edits.sol\":7452:7481  referrals[_ref] == msg.sender */\n      0xffffffffffffffffffffffffffffffffffffffff\n      and\n      sub\n        /* \"contracts/edits.sol\":7448:7586  if (referrals[_ref] == msg.sender) {... */\n      tag_363\n      jumpi\n        /* \"contracts/edits.sol\":7529:7532  100 */\n      0x64\n        /* \"contracts/edits.sol\":7524:7526  90 */\n      0x5a\n        /* \"contracts/edits.sol\":7511:7521  totalPrice */\n      dup3\n        /* \"contracts/edits.sol\":7511:7526  totalPrice * 90 */\n      tag_364\n      swap2\n      swap1\n      tag_208\n      jump\t// in\n    tag_364:\n        /* \"contracts/edits.sol\":7511:7532  totalPrice * 90 / 100 */\n      tag_365\n      swap2\n      swap1\n      tag_334\n      jump\t// in\n    tag_365:\n        /* \"contracts/edits.sol\":7497:7533  totalPrice = (totalPrice * 90 / 100) */\n      swap1\n      pop\n        /* \"contracts/edits.sol\":7573:7574  0 */\n      0x00\n        /* \"contracts/edits.sol\":7547:7556  referrals */\n      0x07\n        /* \"contracts/edits.sol\":7557:7561  _ref */\n      dup4\n        /* \"contracts/edits.sol\":7547:7562  referrals[_ref] */\n      mload(0x40)\n      tag_366\n      swap2\n      swap1\n      tag_362\n      jump\t// in\n    tag_366:\n      swap1\n      dup2\n      mstore\n      0x20\n      add\n      mload(0x40)\n      dup1\n      swap2\n      sub\n      swap1\n      keccak256\n      0x00\n        /* \"contracts/edits.sol\":7547:7575  referrals[_ref] = address(0) */\n      0x0100\n      exp\n      dup2\n      sload\n      dup2\n      0xffffffffffffffffffffffffffffffffffffffff\n      mul\n      not\n      and\n      swap1\n      dup4\n      0xffffffffffffffffffffffffffffffffffffffff\n      and\n      mul\n      or\n      swap1\n      sstore\n      pop\n        /* \"contracts/edits.sol\":7448:7586  if (referrals[_ref] == msg.sender) {... */\n    tag_363:\n        /* \"contracts/edits.sol\":7617:7627  totalPrice */\n      dup1\n        /* \"contracts/edits.sol\":7604:7613  msg.value */\n      callvalue\n        /* \"contracts/edits.sol\":7604:7627  msg.value >= totalPrice */\n      lt\n      iszero\n        /* \"contracts/edits.sol\":7596:7655  require(msg.value >= totalPrice, \"Insufficient funds sent\") */\n      tag_367\n      jumpi\n      mload(0x40)\n      0x08c379a000000000000000000000000000000000000000000000000000000000\n      dup2\n      mstore\n      0x04\n      add\n      tag_368\n      swap1\n      tag_369\n      jump\t// in\n    tag_368:\n      mload(0x40)\n      dup1\n      swap2\n      sub\n      swap1\n      revert\n    tag_367:\n        /* \"contracts/edits.sol\":7665:7683  bool productExists */\n      0x00\n        /* \"contracts/edits.sol\":7707:7713  uint i */\n      dup1\n        /* \"contracts/edits.sol\":7702:8033  for (uint i = 0; i < userProducts[msg.sender].length; i++) {... */\n    tag_370:\n        /* \"contracts/edits.sol\":7723:7735  userProducts */\n      0x04\n        /* \"contracts/edits.sol\":7723:7747  userProducts[msg.sender] */\n      0x00\n        /* \"contracts/edits.sol\":7736:7746  msg.sender */\n      caller\n        /* \"contracts/edits.sol\":7723:7747  userProducts[msg.sender] */\n      0xffffffffffffffffffffffffffffffffffffffff\n      and\n      0xffffffffffffffffffffffffffffffffffffffff\n      and\n      dup2\n      mstore\n      0x20\n      add\n      swap1\n      dup2\n      mstore\n      0x20\n      add\n      0x00\n      keccak256\n        /* \"contracts/edits.sol\":7723:7754  userProducts[msg.sender].length */\n      dup1\n      sload\n      swap1\n      pop\n        /* \"contracts/edits.sol\":7719:7720  i */\n      dup2\n        /* \"contracts/edits.sol\":7719:7754  i < userProducts[msg.sender].length */\n      lt\n        /* \"contracts/edits.sol\":7702:8033  for (uint i = 0; i < userProducts[msg.sender].length; i++) {... */\n      iszero\n      tag_371\n      jumpi\n        /* \"contracts/edits.sol\":7849:7861  userProducts */\n      0x04\n        /* \"contracts/edits.sol\":7849:7868  userProducts[_shop] */\n      0x00\n        /* \"contracts/edits.sol\":7862:7867  _shop */\n      dup9\n        /* \"contracts/edits.sol\":7849:7868  userProducts[_shop] */\n      0xffffffffffffffffffffffffffffffffffffffff\n      and\n      0xffffffffffffffffffffffffffffffffffffffff\n      and\n      dup2\n      mstore\n      0x20\n      add\n      swap1\n      dup2\n      mstore\n      0x20\n      add\n      0x00\n      keccak256\n        /* \"contracts/edits.sol\":7869:7872  _id */\n      dup6\n        /* \"contracts/edits.sol\":7849:7873  userProducts[_shop][_id] */\n      dup2\n      sload\n      dup2\n      lt\n      tag_373\n      jumpi\n      tag_374\n      tag_195\n      jump\t// in\n    tag_374:\n    tag_373:\n      swap1\n      0x00\n      mstore\n      keccak256(0x00, 0x20)\n      swap1\n      0x05\n      mul\n      add\n        /* \"contracts/edits.sol\":7849:7878  userProducts[_shop][_id].name */\n      0x03\n      add\n        /* \"contracts/edits.sol\":7833:7880  keccak256(bytes(userProducts[_shop][_id].name)) */\n      mload(0x40)\n      tag_376\n      swap2\n      swap1\n      tag_377\n      jump\t// in\n    tag_376:\n      mload(0x40)\n      dup1\n      swap2\n      sub\n      swap1\n      keccak256\n        /* \"contracts/edits.sol\":7795:7807  userProducts */\n      0x04\n        /* \"contracts/edits.sol\":7795:7819  userProducts[msg.sender] */\n      0x00\n        /* \"contracts/edits.sol\":7808:7818  msg.sender */\n      caller\n        /* \"contracts/edits.sol\":7795:7819  userProducts[msg.sender] */\n      0xffffffffffffffffffffffffffffffffffffffff\n      and\n      0xffffffffffffffffffffffffffffffffffffffff\n      and\n      dup2\n      mstore\n      0x20\n      add\n      swap1\n      dup2\n      mstore\n      0x20\n      add\n      0x00\n      keccak256\n        /* \"contracts/edits.sol\":7820:7821  i */\n      dup3\n        /* \"contracts/edits.sol\":7795:7822  userProducts[msg.sender][i] */\n      dup2\n      sload\n      dup2\n      lt\n      tag_378\n      jumpi\n      tag_379\n      tag_195\n      jump\t// in\n    tag_379:\n    tag_378:\n      swap1\n      0x00\n      mstore\n      keccak256(0x00, 0x20)\n      swap1\n      0x05\n      mul\n      add\n        /* \"contracts/edits.sol\":7795:7827  userProducts[msg.sender][i].name */\n      0x03\n      add\n        /* \"contracts/edits.sol\":7779:7829  keccak256(bytes(userProducts[msg.sender][i].name)) */\n      mload(0x40)\n      tag_381\n      swap2\n      swap1\n      tag_377\n      jump\t// in\n    tag_381:\n      mload(0x40)\n      dup1\n      swap2\n      sub\n      swap1\n      keccak256\n        /* \"contracts/edits.sol\":7779:7880  keccak256(bytes(userProducts[msg.sender][i].name)) == keccak256(bytes(userProducts[_shop][_id].name)) */\n      sub\n        /* \"contracts/edits.sol\":7775:8023  if (keccak256(bytes(userProducts[msg.sender][i].name)) == keccak256(bytes(userProducts[_shop][_id].name))) {... */\n      tag_382\n      jumpi\n        /* \"contracts/edits.sol\":7939:7946  _amount */\n      dup6\n        /* \"contracts/edits.sol\":7900:7912  userProducts */\n      0x04\n        /* \"contracts/edits.sol\":7900:7924  userProducts[msg.sender] */\n      0x00\n        /* \"contracts/edits.sol\":7913:7923  msg.sender */\n      caller\n        /* \"contracts/edits.sol\":7900:7924  userProducts[msg.sender] */\n      0xffffffffffffffffffffffffffffffffffffffff\n      and\n      0xffffffffffffffffffffffffffffffffffffffff\n      and\n      dup2\n      mstore\n      0x20\n      add\n      swap1\n      dup2\n      mstore\n      0x20\n      add\n      0x00\n      keccak256\n        /* \"contracts/edits.sol\":7925:7926  i */\n      dup3\n        /* \"contracts/edits.sol\":7900:7927  userProducts[msg.sender][i] */\n      dup2\n      sload\n      dup2\n      lt\n      tag_383\n      jumpi\n      tag_384\n      tag_195\n      jump\t// in\n    tag_384:\n    tag_383:\n      swap1\n      0x00\n      mstore\n      keccak256(0x00, 0x20)\n      swap1\n      0x05\n      mul\n      add\n        /* \"contracts/edits.sol\":7900:7935  userProducts[msg.sender][i].inStock */\n      0x01\n      add\n      0x00\n        /* \"contracts/edits.sol\":7900:7946  userProducts[msg.sender][i].inStock += _amount */\n      dup3\n      dup3\n      sload\n      tag_386\n      swap2\n      swap1\n      tag_216\n      jump\t// in\n    tag_386:\n      swap3\n      pop\n      pop\n      dup2\n      swap1\n      sstore\n      pop\n        /* \"contracts/edits.sol\":7980:7984  true */\n      0x01\n        /* \"contracts/edits.sol\":7964:7984  productExists = true */\n      swap2\n      pop\n        /* \"contracts/edits.sol\":8002:8007  break */\n      jump(tag_371)\n        /* \"contracts/edits.sol\":7775:8023  if (keccak256(bytes(userProducts[msg.sender][i].name)) == keccak256(bytes(userProducts[_shop][_id].name))) {... */\n    tag_382:\n        /* \"contracts/edits.sol\":7756:7759  i++ */\n      dup1\n      dup1\n      tag_387\n      swap1\n      tag_258\n      jump\t// in\n    tag_387:\n      swap2\n      pop\n      pop\n        /* \"contracts/edits.sol\":7702:8033  for (uint i = 0; i < userProducts[msg.sender].length; i++) {... */\n      jump(tag_370)\n    tag_371:\n      pop\n        /* \"contracts/edits.sol\":8048:8061  productExists */\n      dup1\n        /* \"contracts/edits.sol\":8043:8275  if (!productExists) {... */\n      tag_388\n      jumpi\n        /* \"contracts/edits.sol\":8077:8099  Product memory newItem */\n      0x00\n        /* \"contracts/edits.sol\":8102:8212  Product(msg.sender, _amount, marketProducts[_shop][_id].price, marketProducts[_shop][_id].name, randMod(1000)) */\n      mload(0x40)\n      dup1\n      0xa0\n      add\n      0x40\n      mstore\n      dup1\n        /* \"contracts/edits.sol\":8110:8120  msg.sender */\n      caller\n        /* \"contracts/edits.sol\":8102:8212  Product(msg.sender, _amount, marketProducts[_shop][_id].price, marketProducts[_shop][_id].name, randMod(1000)) */\n      0xffffffffffffffffffffffffffffffffffffffff\n      and\n      dup2\n      mstore\n      0x20\n      add\n        /* \"contracts/edits.sol\":8122:8129  _amount */\n      dup8\n        /* \"contracts/edits.sol\":8102:8212  Product(msg.sender, _amount, marketProducts[_shop][_id].price, marketProducts[_shop][_id].name, randMod(1000)) */\n      dup2\n      mstore\n      0x20\n      add\n        /* \"contracts/edits.sol\":8131:8145  marketProducts */\n      0x05\n        /* \"contracts/edits.sol\":8131:8152  marketProducts[_shop] */\n      0x00\n        /* \"contracts/edits.sol\":8146:8151  _shop */\n      dup11\n        /* \"contracts/edits.sol\":8131:8152  marketProducts[_shop] */\n      0xffffffffffffffffffffffffffffffffffffffff\n      and\n      0xffffffffffffffffffffffffffffffffffffffff\n      and\n      dup2\n      mstore\n      0x20\n      add\n      swap1\n      dup2\n      mstore\n      0x20\n      add\n      0x00\n      keccak256\n        /* \"contracts/edits.sol\":8153:8156  _id */\n      dup8\n        /* \"contracts/edits.sol\":8131:8157  marketProducts[_shop][_id] */\n      dup2\n      sload\n      dup2\n      lt\n      tag_389\n      jumpi\n      tag_390\n      tag_195\n      jump\t// in\n    tag_390:\n    tag_389:\n      swap1\n      0x00\n      mstore\n      keccak256(0x00, 0x20)\n      swap1\n      0x05\n      mul\n      add\n        /* \"contracts/edits.sol\":8131:8163  marketProducts[_shop][_id].price */\n      0x02\n      add\n      sload\n        /* \"contracts/edits.sol\":8102:8212  Product(msg.sender, _amount, marketProducts[_shop][_id].price, marketProducts[_shop][_id].name, randMod(1000)) */\n      dup2\n      mstore\n      0x20\n      add\n        /* \"contracts/edits.sol\":8165:8179  marketProducts */\n      0x05\n        /* \"contracts/edits.sol\":8165:8186  marketProducts[_shop] */\n      0x00\n        /* \"contracts/edits.sol\":8180:8185  _shop */\n      dup11\n        /* \"contracts/edits.sol\":8165:8186  marketProducts[_shop] */\n      0xffffffffffffffffffffffffffffffffffffffff\n      and\n      0xffffffffffffffffffffffffffffffffffffffff\n      and\n      dup2\n      mstore\n      0x20\n      add\n      swap1\n      dup2\n      mstore\n      0x20\n      add\n      0x00\n      keccak256\n        /* \"contracts/edits.sol\":8187:8190  _id */\n      dup8\n        /* \"contracts/edits.sol\":8165:8191  marketProducts[_shop][_id] */\n      dup2\n      sload\n      dup2\n      lt\n      tag_392\n      jumpi\n      tag_393\n      tag_195\n      jump\t// in\n    tag_393:\n    tag_392:\n      swap1\n      0x00\n      mstore\n      keccak256(0x00, 0x20)\n      swap1\n      0x05\n      mul\n      add\n        /* \"contracts/edits.sol\":8165:8196  marketProducts[_shop][_id].name */\n      0x03\n      add\n        /* \"contracts/edits.sol\":8102:8212  Product(msg.sender, _amount, marketProducts[_shop][_id].price, marketProducts[_shop][_id].name, randMod(1000)) */\n      dup1\n      sload\n      tag_395\n      swap1\n      tag_168\n      jump\t// in\n    tag_395:\n      dup1\n      0x1f\n      add\n      0x20\n      dup1\n      swap2\n      div\n      mul\n      0x20\n      add\n      mload(0x40)\n      swap1\n      dup2\n      add\n      0x40\n      mstore\n      dup1\n      swap3\n      swap2\n      swap1\n      dup2\n      dup2\n      mstore\n      0x20\n      add\n      dup3\n      dup1\n      sload\n      tag_396\n      swap1\n      tag_168\n      jump\t// in\n    tag_396:\n      dup1\n      iszero\n      tag_397\n      jumpi\n      dup1\n      0x1f\n      lt\n      tag_398\n      jumpi\n      0x0100\n      dup1\n      dup4\n      sload\n      div\n      mul\n      dup4\n      mstore\n      swap2\n      0x20\n      add\n      swap2\n      jump(tag_397)\n    tag_398:\n      dup3\n      add\n      swap2\n      swap1\n      0x00\n      mstore\n      keccak256(0x00, 0x20)\n      swap1\n    tag_399:\n      dup2\n      sload\n      dup2\n      mstore\n      swap1\n      0x01\n      add\n      swap1\n      0x20\n      add\n      dup1\n      dup4\n      gt\n      tag_399\n      jumpi\n      dup3\n      swap1\n      sub\n      0x1f\n      and\n      dup3\n      add\n      swap2\n    tag_397:\n      pop\n      pop\n      pop\n      pop\n      pop\n      dup2\n      mstore\n      0x20\n      add\n        /* \"contracts/edits.sol\":8198:8211  randMod(1000) */\n      tag_400\n        /* \"contracts/edits.sol\":8206:8210  1000 */\n      0x03e8\n        /* \"contracts/edits.sol\":8198:8205  randMod */\n      tag_105\n        /* \"contracts/edits.sol\":8198:8211  randMod(1000) */\n      jump\t// in\n    tag_400:\n        /* \"contracts/edits.sol\":8102:8212  Product(msg.sender, _amount, marketProducts[_shop][_id].price, marketProducts[_shop][_id].name, randMod(1000)) */\n      dup2\n      mstore\n      pop\n        /* \"contracts/edits.sol\":8077:8212  Product memory newItem = Product(msg.sender, _amount, marketProducts[_shop][_id].price, marketProducts[_shop][_id].name, randMod(1000)) */\n      swap1\n      pop\n        /* \"contracts/edits.sol\":8226:8238  userProducts */\n      0x04\n        /* \"contracts/edits.sol\":8226:8250  userProducts[msg.sender] */\n      0x00\n        /* \"contracts/edits.sol\":8239:8249  msg.sender */\n      caller\n        /* \"contracts/edits.sol\":8226:8250  userProducts[msg.sender] */\n      0xffffffffffffffffffffffffffffffffffffffff\n      and\n      0xffffffffffffffffffffffffffffffffffffffff\n      and\n      dup2\n      mstore\n      0x20\n      add\n      swap1\n      dup2\n      mstore\n      0x20\n      add\n      0x00\n      keccak256\n        /* \"contracts/edits.sol\":8256:8263  newItem */\n      dup2\n        /* \"contracts/edits.sol\":8226:8264  userProducts[msg.sender].push(newItem) */\n      swap1\n      dup1\n      0x01\n      dup2\n      sload\n      add\n      dup1\n      dup3\n      sstore\n      dup1\n      swap2\n      pop\n      pop\n      0x01\n      swap1\n      sub\n      swap1\n      0x00\n      mstore\n      keccak256(0x00, 0x20)\n      swap1\n      0x05\n      mul\n      add\n      0x00\n      swap1\n      swap2\n      swap1\n      swap2\n      swap1\n      swap2\n      pop\n      0x00\n      dup3\n      add\n      mload\n      dup2\n      0x00\n      add\n      exp(0x0100, 0x00)\n      dup2\n      sload\n      dup2\n      0xffffffffffffffffffffffffffffffffffffffff\n      mul\n      not\n      and\n      swap1\n      dup4\n      0xffffffffffffffffffffffffffffffffffffffff\n      and\n      mul\n      or\n      swap1\n      sstore\n      pop\n      0x20\n      dup3\n      add\n      mload\n      dup2\n      0x01\n      add\n      sstore\n      0x40\n      dup3\n      add\n      mload\n      dup2\n      0x02\n      add\n      sstore\n      0x60\n      dup3\n      add\n      mload\n      dup2\n      0x03\n      add\n      swap1\n      dup2\n      tag_402\n      swap2\n      swap1\n      tag_164\n      jump\t// in\n    tag_402:\n      pop\n      0x80\n      dup3\n      add\n      mload\n      dup2\n      0x04\n      add\n      sstore\n      pop\n      pop\n        /* \"contracts/edits.sol\":8063:8275  {... */\n      pop\n        /* \"contracts/edits.sol\":8043:8275  if (!productExists) {... */\n    tag_388:\n        /* \"contracts/edits.sol\":8323:8330  _amount */\n      dup5\n        /* \"contracts/edits.sol\":8285:8299  marketProducts */\n      0x05\n        /* \"contracts/edits.sol\":8285:8306  marketProducts[_shop] */\n      0x00\n        /* \"contracts/edits.sol\":8300:8305  _shop */\n      dup9\n        /* \"contracts/edits.sol\":8285:8306  marketProducts[_shop] */\n      0xffffffffffffffffffffffffffffffffffffffff\n      and\n      0xffffffffffffffffffffffffffffffffffffffff\n      and\n      dup2\n      mstore\n      0x20\n      add\n      swap1\n      dup2\n      mstore\n      0x20\n      add\n      0x00\n      keccak256\n        /* \"contracts/edits.sol\":8307:8310  _id */\n      dup6\n        /* \"contracts/edits.sol\":8285:8311  marketProducts[_shop][_id] */\n      dup2\n      sload\n      dup2\n      lt\n      tag_403\n      jumpi\n      tag_404\n      tag_195\n      jump\t// in\n    tag_404:\n    tag_403:\n      swap1\n      0x00\n      mstore\n      keccak256(0x00, 0x20)\n      swap1\n      0x05\n      mul\n      add\n        /* \"contracts/edits.sol\":8285:8319  marketProducts[_shop][_id].inStock */\n      0x01\n      add\n      0x00\n        /* \"contracts/edits.sol\":8285:8330  marketProducts[_shop][_id].inStock -= _amount */\n      dup3\n      dup3\n      sload\n      tag_406\n      swap2\n      swap1\n      tag_223\n      jump\t// in\n    tag_406:\n      swap3\n      pop\n      pop\n      dup2\n      swap1\n      sstore\n      pop\n        /* \"contracts/edits.sol\":8364:8374  totalPrice */\n      dup2\n        /* \"contracts/edits.sol\":8340:8345  users */\n      0x03\n        /* \"contracts/edits.sol\":8340:8352  users[_shop] */\n      0x00\n        /* \"contracts/edits.sol\":8346:8351  _shop */\n      dup9\n        /* \"contracts/edits.sol\":8340:8352  users[_shop] */\n      0xffffffffffffffffffffffffffffffffffffffff\n      and\n      0xffffffffffffffffffffffffffffffffffffffff\n      and\n      dup2\n      mstore\n      0x20\n      add\n      swap1\n      dup2\n      mstore\n      0x20\n      add\n      0x00\n      keccak256\n        /* \"contracts/edits.sol\":8340:8360  users[_shop].balance */\n      0x01\n      add\n      0x00\n        /* \"contracts/edits.sol\":8340:8374  users[_shop].balance += totalPrice */\n      dup3\n      dup3\n      sload\n      tag_407\n      swap2\n      swap1\n      tag_216\n      jump\t// in\n    tag_407:\n      swap3\n      pop\n      pop\n      dup2\n      swap1\n      sstore\n      pop\n        /* \"contracts/edits.sol\":8401:8411  totalPrice */\n      dup2\n        /* \"contracts/edits.sol\":8389:8398  msg.value */\n      callvalue\n        /* \"contracts/edits.sol\":8389:8411  msg.value > totalPrice */\n      gt\n        /* \"contracts/edits.sol\":8385:8506  if (msg.value > totalPrice) {... */\n      iszero\n      tag_408\n      jumpi\n        /* \"contracts/edits.sol\":8435:8445  msg.sender */\n      caller\n        /* \"contracts/edits.sol\":8427:8455  payable(msg.sender).transfer */\n      0xffffffffffffffffffffffffffffffffffffffff\n      and\n        /* \"contracts/edits.sol\":8427:8479  payable(msg.sender).transfer(msg.value - totalPrice) */\n      0x08fc\n        /* \"contracts/edits.sol\":8468:8478  totalPrice */\n      dup4\n        /* \"contracts/edits.sol\":8456:8465  msg.value */\n      callvalue\n        /* \"contracts/edits.sol\":8456:8478  msg.value - totalPrice */\n      tag_409\n      swap2\n      swap1\n      tag_223\n      jump\t// in\n    tag_409:\n        /* \"contracts/edits.sol\":8427:8479  payable(msg.sender).transfer(msg.value - totalPrice) */\n      swap1\n      dup2\n      iszero\n      mul\n      swap1\n      mload(0x40)\n      0x00\n      mload(0x40)\n      dup1\n      dup4\n      sub\n      dup2\n      dup6\n      dup9\n      dup9\n      call\n      swap4\n      pop\n      pop\n      pop\n      pop\n      iszero\n      dup1\n      iszero\n      tag_411\n      jumpi\n      returndatasize\n      0x00\n      dup1\n      returndatacopy\n      revert(0x00, returndatasize)\n    tag_411:\n      pop\n        /* \"contracts/edits.sol\":8385:8506  if (msg.value > totalPrice) {... */\n    tag_408:\n        /* \"contracts/edits.sol\":7002:8512  {... */\n      pop\n      pop\n        /* \"contracts/edits.sol\":6909:8512  function purchase(address _shop, uint _amount, uint _id, string memory _ref ) public payable {... */\n      pop\n      pop\n      pop\n      pop\n      jump\t// out\n        /* \"contracts/edits.sol\":2772:2933  function genRef(string memory _nameRef, address _user) public {... */\n    tag_126:\n        /* \"contracts/edits.sol\":2866:2871  _user */\n      dup1\n        /* \"contracts/edits.sol\":2852:2871  msg.sender != _user */\n      0xffffffffffffffffffffffffffffffffffffffff\n      and\n        /* \"contracts/edits.sol\":2852:2862  msg.sender */\n      caller\n        /* \"contracts/edits.sol\":2852:2871  msg.sender != _user */\n      0xffffffffffffffffffffffffffffffffffffffff\n      and\n      sub\n        /* \"contracts/edits.sol\":2844:2872  require(msg.sender != _user) */\n      tag_413\n      jumpi\n      0x00\n      dup1\n      revert\n    tag_413:\n        /* \"contracts/edits.sol\":2921:2926  _user */\n      dup1\n        /* \"contracts/edits.sol\":2899:2908  referrals */\n      0x07\n        /* \"contracts/edits.sol\":2909:2917  _nameRef */\n      dup4\n        /* \"contracts/edits.sol\":2899:2918  referrals[_nameRef] */\n      mload(0x40)\n      tag_414\n      swap2\n      swap1\n      tag_362\n      jump\t// in\n    tag_414:\n      swap1\n      dup2\n      mstore\n      0x20\n      add\n      mload(0x40)\n      dup1\n      swap2\n      sub\n      swap1\n      keccak256\n      0x00\n        /* \"contracts/edits.sol\":2899:2926  referrals[_nameRef] = _user */\n      0x0100\n      exp\n      dup2\n      sload\n      dup2\n      0xffffffffffffffffffffffffffffffffffffffff\n      mul\n      not\n      and\n      swap1\n      dup4\n      0xffffffffffffffffffffffffffffffffffffffff\n      and\n      mul\n      or\n      swap1\n      sstore\n      pop\n        /* \"contracts/edits.sol\":2772:2933  function genRef(string memory _nameRef, address _user) public {... */\n      pop\n      pop\n      jump\t// out\n        /* \"contracts/edits.sol\":1052:1089  mapping(address => User) public users */\n    tag_131:\n      mstore(0x20, 0x03)\n      dup1\n      0x00\n      mstore\n      keccak256(0x00, 0x40)\n      0x00\n      swap2\n      pop\n      swap1\n      pop\n      dup1\n      0x00\n      add\n      0x00\n      swap1\n      sload\n      swap1\n      0x0100\n      exp\n      swap1\n      div\n      0xff\n      and\n      swap1\n      dup1\n      0x01\n      add\n      sload\n      swap1\n      pop\n      dup3\n      jump\t// out\n        /* \"contracts/edits.sol\":1555:1637  function makeUser() public {... */\n    tag_136:\n        /* \"contracts/edits.sol\":1612:1630  User(Role.User, 0) */\n      mload(0x40)\n      dup1\n      0x40\n      add\n      0x40\n      mstore\n      dup1\n        /* \"contracts/edits.sol\":1617:1626  Role.User */\n      0x00\n        /* \"contracts/edits.sol\":1612:1630  User(Role.User, 0) */\n      0x02\n      dup2\n      gt\n      iszero\n      tag_416\n      jumpi\n      tag_417\n      tag_155\n      jump\t// in\n    tag_417:\n    tag_416:\n      dup2\n      mstore\n      0x20\n      add\n        /* \"contracts/edits.sol\":1628:1629  0 */\n      0x00\n        /* \"contracts/edits.sol\":1612:1630  User(Role.User, 0) */\n      dup2\n      mstore\n      pop\n        /* \"contracts/edits.sol\":1592:1597  users */\n      0x03\n        /* \"contracts/edits.sol\":1592:1609  users[msg.sender] */\n      0x00\n        /* \"contracts/edits.sol\":1598:1608  msg.sender */\n      caller\n        /* \"contracts/edits.sol\":1592:1609  users[msg.sender] */\n      0xffffffffffffffffffffffffffffffffffffffff\n      and\n      0xffffffffffffffffffffffffffffffffffffffff\n      and\n      dup2\n      mstore\n      0x20\n      add\n      swap1\n      dup2\n      mstore\n      0x20\n      add\n      0x00\n      keccak256\n        /* \"contracts/edits.sol\":1592:1630  users[msg.sender] = User(Role.User, 0) */\n      0x00\n      dup3\n      add\n      mload\n      dup2\n      0x00\n      add\n      exp(0x0100, 0x00)\n      dup2\n      sload\n      dup2\n      0xff\n      mul\n      not\n      and\n      swap1\n      dup4\n      0x02\n      dup2\n      gt\n      iszero\n      tag_418\n      jumpi\n      tag_419\n      tag_155\n      jump\t// in\n    tag_419:\n    tag_418:\n      mul\n      or\n      swap1\n      sstore\n      pop\n      0x20\n      dup3\n      add\n      mload\n      dup2\n      0x01\n      add\n      sstore\n      swap1\n      pop\n      pop\n        /* \"contracts/edits.sol\":1555:1637  function makeUser() public {... */\n      jump\t// out\n        /* \"contracts/edits.sol\":1266:1309  mapping(string => address) public referrals */\n    tag_140:\n      0x07\n      dup2\n      dup1\n      mload\n      0x20\n      dup2\n      add\n      dup3\n      add\n      dup1\n      mload\n      dup5\n      dup3\n      mstore\n      0x20\n      dup4\n      add\n      0x20\n      dup6\n      add\n      keccak256\n      dup2\n      dup4\n      mstore\n      dup1\n      swap6\n      pop\n      pop\n      pop\n      pop\n      pop\n      pop\n      0x00\n      swap2\n      pop\n      sload\n      swap1\n      0x0100\n      exp\n      swap1\n      div\n      0xffffffffffffffffffffffffffffffffffffffff\n      and\n      dup2\n      jump\t// out\n        /* \"contracts/edits.sol\":3832:4266  function acceptDelivery(bool _status, uint _deliveryId) public payable AccessControl(Role.User) { // status -> solution... */\n    tag_144:\n        /* \"contracts/edits.sol\":3917:3926  Role.User */\n      0x00\n        /* \"contracts/edits.sol\":1485:1490  _role */\n      dup1\n        /* \"contracts/edits.sol\":1459:1490  users[msg.sender].role == _role */\n      0x02\n      dup2\n      gt\n      iszero\n      tag_421\n      jumpi\n      tag_422\n      tag_155\n      jump\t// in\n    tag_422:\n    tag_421:\n        /* \"contracts/edits.sol\":1459:1464  users */\n      0x03\n        /* \"contracts/edits.sol\":1459:1476  users[msg.sender] */\n      0x00\n        /* \"contracts/edits.sol\":1465:1475  msg.sender */\n      caller\n        /* \"contracts/edits.sol\":1459:1476  users[msg.sender] */\n      0xffffffffffffffffffffffffffffffffffffffff\n      and\n      0xffffffffffffffffffffffffffffffffffffffff\n      and\n      dup2\n      mstore\n      0x20\n      add\n      swap1\n      dup2\n      mstore\n      0x20\n      add\n      0x00\n      keccak256\n        /* \"contracts/edits.sol\":1459:1481  users[msg.sender].role */\n      0x00\n      add\n      0x00\n      swap1\n      sload\n      swap1\n      0x0100\n      exp\n      swap1\n      div\n      0xff\n      and\n        /* \"contracts/edits.sol\":1459:1490  users[msg.sender].role == _role */\n      0x02\n      dup2\n      gt\n      iszero\n      tag_423\n      jumpi\n      tag_424\n      tag_155\n      jump\t// in\n    tag_424:\n    tag_423:\n      eq\n        /* \"contracts/edits.sol\":1451:1531  require(users[msg.sender].role == _role, \"Your role does not allow this change\") */\n      tag_425\n      jumpi\n      mload(0x40)\n      0x08c379a000000000000000000000000000000000000000000000000000000000\n      dup2\n      mstore\n      0x04\n      add\n      tag_426\n      swap1\n      tag_160\n      jump\t// in\n    tag_426:\n      mload(0x40)\n      dup1\n      swap2\n      sub\n      swap1\n      revert\n    tag_425:\n        /* \"contracts/edits.sol\":4006:4023  Status.Prepairing */\n      0x01\n        /* \"contracts/edits.sol\":3968:4023  deliveryOrders[_deliveryId].status == Status.Prepairing */\n      0x03\n      dup2\n      gt\n      iszero\n      tag_428\n      jumpi\n      tag_429\n      tag_155\n      jump\t// in\n    tag_429:\n    tag_428:\n        /* \"contracts/edits.sol\":3968:3982  deliveryOrders */\n      0x02\n        /* \"contracts/edits.sol\":3983:3994  _deliveryId */\n      dup4\n        /* \"contracts/edits.sol\":3968:3995  deliveryOrders[_deliveryId] */\n      dup2\n      sload\n      dup2\n      lt\n      tag_430\n      jumpi\n      tag_431\n      tag_195\n      jump\t// in\n    tag_431:\n    tag_430:\n      swap1\n      0x00\n      mstore\n      keccak256(0x00, 0x20)\n      swap1\n      0x05\n      mul\n      add\n        /* \"contracts/edits.sol\":3968:4002  deliveryOrders[_deliveryId].status */\n      0x01\n      add\n      0x14\n      swap1\n      sload\n      swap1\n      0x0100\n      exp\n      swap1\n      div\n      0xff\n      and\n        /* \"contracts/edits.sol\":3968:4023  deliveryOrders[_deliveryId].status == Status.Prepairing */\n      0x03\n      dup2\n      gt\n      iszero\n      tag_433\n      jumpi\n      tag_434\n      tag_155\n      jump\t// in\n    tag_434:\n    tag_433:\n      eq\n        /* \"contracts/edits.sol\":3960:4024  require(deliveryOrders[_deliveryId].status == Status.Prepairing) */\n      tag_435\n      jumpi\n      0x00\n      dup1\n      revert\n    tag_435:\n        /* \"contracts/edits.sol\":4038:4045  _status */\n      dup3\n        /* \"contracts/edits.sol\":4034:4260  if (_status) { ... */\n      iszero\n      tag_436\n      jumpi\n        /* \"contracts/edits.sol\":4062:4157  purchase(deliveryOrders[_deliveryId].shop, deliveryOrders[_deliveryId].amount, _deliveryId, \"\") */\n      tag_437\n        /* \"contracts/edits.sol\":4071:4085  deliveryOrders */\n      0x02\n        /* \"contracts/edits.sol\":4086:4097  _deliveryId */\n      dup4\n        /* \"contracts/edits.sol\":4071:4098  deliveryOrders[_deliveryId] */\n      dup2\n      sload\n      dup2\n      lt\n      tag_438\n      jumpi\n      tag_439\n      tag_195\n      jump\t// in\n    tag_439:\n    tag_438:\n      swap1\n      0x00\n      mstore\n      keccak256(0x00, 0x20)\n      swap1\n      0x05\n      mul\n      add\n        /* \"contracts/edits.sol\":4071:4103  deliveryOrders[_deliveryId].shop */\n      0x01\n      add\n      0x00\n      swap1\n      sload\n      swap1\n      0x0100\n      exp\n      swap1\n      div\n      0xffffffffffffffffffffffffffffffffffffffff\n      and\n        /* \"contracts/edits.sol\":4105:4119  deliveryOrders */\n      0x02\n        /* \"contracts/edits.sol\":4120:4131  _deliveryId */\n      dup5\n        /* \"contracts/edits.sol\":4105:4132  deliveryOrders[_deliveryId] */\n      dup2\n      sload\n      dup2\n      lt\n      tag_441\n      jumpi\n      tag_442\n      tag_195\n      jump\t// in\n    tag_442:\n    tag_441:\n      swap1\n      0x00\n      mstore\n      keccak256(0x00, 0x20)\n      swap1\n      0x05\n      mul\n      add\n        /* \"contracts/edits.sol\":4105:4139  deliveryOrders[_deliveryId].amount */\n      0x04\n      add\n      sload\n        /* \"contracts/edits.sol\":4141:4152  _deliveryId */\n      dup5\n        /* \"contracts/edits.sol\":4062:4157  purchase(deliveryOrders[_deliveryId].shop, deliveryOrders[_deliveryId].amount, _deliveryId, \"\") */\n      mload(0x40)\n      dup1\n      0x20\n      add\n      0x40\n      mstore\n      dup1\n      0x00\n      dup2\n      mstore\n      pop\n        /* \"contracts/edits.sol\":4062:4070  purchase */\n      tag_121\n        /* \"contracts/edits.sol\":4062:4157  purchase(deliveryOrders[_deliveryId].shop, deliveryOrders[_deliveryId].amount, _deliveryId, \"\") */\n      jump\t// in\n    tag_437:\n        /* \"contracts/edits.sol\":4034:4260  if (_status) { ... */\n      jump(tag_444)\n    tag_436:\n        /* \"contracts/edits.sol\":4234:4249  Status.Canceled */\n      0x02\n        /* \"contracts/edits.sol\":4196:4249  deliveryOrders[_deliveryId].status == Status.Canceled */\n      0x03\n      dup2\n      gt\n      iszero\n      tag_445\n      jumpi\n      tag_446\n      tag_155\n      jump\t// in\n    tag_446:\n    tag_445:\n        /* \"contracts/edits.sol\":4196:4210  deliveryOrders */\n      0x02\n        /* \"contracts/edits.sol\":4211:4222  _deliveryId */\n      dup4\n        /* \"contracts/edits.sol\":4196:4223  deliveryOrders[_deliveryId] */\n      dup2\n      sload\n      dup2\n      lt\n      tag_447\n      jumpi\n      tag_448\n      tag_195\n      jump\t// in\n    tag_448:\n    tag_447:\n      swap1\n      0x00\n      mstore\n      keccak256(0x00, 0x20)\n      swap1\n      0x05\n      mul\n      add\n        /* \"contracts/edits.sol\":4196:4230  deliveryOrders[_deliveryId].status */\n      0x01\n      add\n      0x14\n      swap1\n      sload\n      swap1\n      0x0100\n      exp\n      swap1\n      div\n      0xff\n      and\n        /* \"contracts/edits.sol\":4196:4249  deliveryOrders[_deliveryId].status == Status.Canceled */\n      0x03\n      dup2\n      gt\n      iszero\n      tag_450\n      jumpi\n      tag_451\n      tag_155\n      jump\t// in\n    tag_451:\n    tag_450:\n      pop\n      pop\n        /* \"contracts/edits.sol\":4034:4260  if (_status) { ... */\n    tag_444:\n        /* \"contracts/edits.sol\":3832:4266  function acceptDelivery(bool _status, uint _deliveryId) public payable AccessControl(Role.User) { // status -> solution... */\n      pop\n      pop\n      pop\n      jump\t// out\n        /* \"contracts/edits.sol\":8518:8758  function withdrawBal() public AccessControl(Role.Market) { // поставь модификатор и убери параметр... */\n    tag_147:\n        /* \"contracts/edits.sol\":8562:8573  Role.Market */\n      0x01\n        /* \"contracts/edits.sol\":1485:1490  _role */\n      dup1\n        /* \"contracts/edits.sol\":1459:1490  users[msg.sender].role == _role */\n      0x02\n      dup2\n      gt\n      iszero\n      tag_453\n      jumpi\n      tag_454\n      tag_155\n      jump\t// in\n    tag_454:\n    tag_453:\n        /* \"contracts/edits.sol\":1459:1464  users */\n      0x03\n        /* \"contracts/edits.sol\":1459:1476  users[msg.sender] */\n      0x00\n        /* \"contracts/edits.sol\":1465:1475  msg.sender */\n      caller\n        /* \"contracts/edits.sol\":1459:1476  users[msg.sender] */\n      0xffffffffffffffffffffffffffffffffffffffff\n      and\n      0xffffffffffffffffffffffffffffffffffffffff\n      and\n      dup2\n      mstore\n      0x20\n      add\n      swap1\n      dup2\n      mstore\n      0x20\n      add\n      0x00\n      keccak256\n        /* \"contracts/edits.sol\":1459:1481  users[msg.sender].role */\n      0x00\n      add\n      0x00\n      swap1\n      sload\n      swap1\n      0x0100\n      exp\n      swap1\n      div\n      0xff\n      and\n        /* \"contracts/edits.sol\":1459:1490  users[msg.sender].role == _role */\n      0x02\n      dup2\n      gt\n      iszero\n      tag_455\n      jumpi\n      tag_456\n      tag_155\n      jump\t// in\n    tag_456:\n    tag_455:\n      eq\n        /* \"contracts/edits.sol\":1451:1531  require(users[msg.sender].role == _role, \"Your role does not allow this change\") */\n      tag_457\n      jumpi\n      mload(0x40)\n      0x08c379a000000000000000000000000000000000000000000000000000000000\n      dup2\n      mstore\n      0x04\n      add\n      tag_458\n      swap1\n      tag_160\n      jump\t// in\n    tag_458:\n      mload(0x40)\n      dup1\n      swap2\n      sub\n      swap1\n      revert\n    tag_457:\n        /* \"contracts/edits.sol\":8665:8675  msg.sender */\n      caller\n        /* \"contracts/edits.sol\":8657:8685  payable(msg.sender).transfer */\n      0xffffffffffffffffffffffffffffffffffffffff\n      and\n        /* \"contracts/edits.sol\":8657:8712  payable(msg.sender).transfer(users[msg.sender].balance) */\n      0x08fc\n        /* \"contracts/edits.sol\":8686:8691  users */\n      0x03\n        /* \"contracts/edits.sol\":8686:8703  users[msg.sender] */\n      0x00\n        /* \"contracts/edits.sol\":8692:8702  msg.sender */\n      caller\n        /* \"contracts/edits.sol\":8686:8703  users[msg.sender] */\n      0xffffffffffffffffffffffffffffffffffffffff\n      and\n      0xffffffffffffffffffffffffffffffffffffffff\n      and\n      dup2\n      mstore\n      0x20\n      add\n      swap1\n      dup2\n      mstore\n      0x20\n      add\n      0x00\n      keccak256\n        /* \"contracts/edits.sol\":8686:8711  users[msg.sender].balance */\n      0x01\n      add\n      sload\n        /* \"contracts/edits.sol\":8657:8712  payable(msg.sender).transfer(users[msg.sender].balance) */\n      swap1\n      dup2\n      iszero\n      mul\n      swap1\n      mload(0x40)\n      0x00\n      mload(0x40)\n      dup1\n      dup4\n      sub\n      dup2\n      dup6\n      dup9\n      dup9\n      call\n      swap4\n      pop\n      pop\n      pop\n      pop\n      iszero\n      dup1\n      iszero\n      tag_461\n      jumpi\n      returndatasize\n      0x00\n      dup1\n      returndatacopy\n      revert(0x00, returndatasize)\n    tag_461:\n      pop\n        /* \"contracts/edits.sol\":8750:8751  0 */\n      0x00\n        /* \"contracts/edits.sol\":8722:8727  users */\n      0x03\n        /* \"contracts/edits.sol\":8722:8739  users[msg.sender] */\n      0x00\n        /* \"contracts/edits.sol\":8728:8738  msg.sender */\n      caller\n        /* \"contracts/edits.sol\":8722:8739  users[msg.sender] */\n      0xffffffffffffffffffffffffffffffffffffffff\n      and\n      0xffffffffffffffffffffffffffffffffffffffff\n      and\n      dup2\n      mstore\n      0x20\n      add\n      swap1\n      dup2\n      mstore\n      0x20\n      add\n      0x00\n      keccak256\n        /* \"contracts/edits.sol\":8722:8747  users[msg.sender].balance */\n      0x01\n      add\n        /* \"contracts/edits.sol\":8722:8751  users[msg.sender].balance = 0 */\n      dup2\n      swap1\n      sstore\n      pop\n        /* \"contracts/edits.sol\":8518:8758  function withdrawBal() public AccessControl(Role.Market) { // поставь модификатор и убери параметр... */\n      pop\n      jump\t// out\n        /* \"contracts/edits.sol\":4853:6232  function refillStore(address _shop, uint _productId, uint _amount, address _supplier) public payable AccessControl(Role.Market) {... */\n    tag_151:\n        /* \"contracts/edits.sol\":4968:4979  Role.Market */\n      0x01\n        /* \"contracts/edits.sol\":1485:1490  _role */\n      dup1\n        /* \"contracts/edits.sol\":1459:1490  users[msg.sender].role == _role */\n      0x02\n      dup2\n      gt\n      iszero\n      tag_463\n      jumpi\n      tag_464\n      tag_155\n      jump\t// in\n    tag_464:\n    tag_463:\n        /* \"contracts/edits.sol\":1459:1464  users */\n      0x03\n        /* \"contracts/edits.sol\":1459:1476  users[msg.sender] */\n      0x00\n        /* \"contracts/edits.sol\":1465:1475  msg.sender */\n      caller\n        /* \"contracts/edits.sol\":1459:1476  users[msg.sender] */\n      0xffffffffffffffffffffffffffffffffffffffff\n      and\n      0xffffffffffffffffffffffffffffffffffffffff\n      and\n      dup2\n      mstore\n      0x20\n      add\n      swap1\n      dup2\n      mstore\n      0x20\n      add\n      0x00\n      keccak256\n        /* \"contracts/edits.sol\":1459:1481  users[msg.sender].role */\n      0x00\n      add\n      0x00\n      swap1\n      sload\n      swap1\n      0x0100\n      exp\n      swap1\n      div\n      0xff\n      and\n        /* \"contracts/edits.sol\":1459:1490  users[msg.sender].role == _role */\n      0x02\n      dup2\n      gt\n      iszero\n      tag_465\n      jumpi\n      tag_466\n      tag_155\n      jump\t// in\n    tag_466:\n    tag_465:\n      eq\n        /* \"contracts/edits.sol\":1451:1531  require(users[msg.sender].role == _role, \"Your role does not allow this change\") */\n      tag_467\n      jumpi\n      mload(0x40)\n      0x08c379a000000000000000000000000000000000000000000000000000000000\n      dup2\n      mstore\n      0x04\n      add\n      tag_468\n      swap1\n      tag_160\n      jump\t// in\n    tag_468:\n      mload(0x40)\n      dup1\n      swap2\n      sub\n      swap1\n      revert\n    tag_467:\n        /* \"contracts/edits.sol\":5009:5010  0 */\n      0x00\n        /* \"contracts/edits.sol\":4999:5006  _amount */\n      dup4\n        /* \"contracts/edits.sol\":4999:5010  _amount > 0 */\n      gt\n        /* \"contracts/edits.sol\":4991:5053  require(_amount > 0, \"Purchase amount must be greater than 0\") */\n      tag_470\n      jumpi\n      mload(0x40)\n      0x08c379a000000000000000000000000000000000000000000000000000000000\n      dup2\n      mstore\n      0x04\n      add\n      tag_471\n      swap1\n      tag_278\n      jump\t// in\n    tag_471:\n      mload(0x40)\n      dup1\n      swap2\n      sub\n      swap1\n      revert\n    tag_470:\n        /* \"contracts/edits.sol\":5084:5100  supplierProducts */\n      0x06\n        /* \"contracts/edits.sol\":5084:5111  supplierProducts[_supplier] */\n      0x00\n        /* \"contracts/edits.sol\":5101:5110  _supplier */\n      dup4\n        /* \"contracts/edits.sol\":5084:5111  supplierProducts[_supplier] */\n      0xffffffffffffffffffffffffffffffffffffffff\n      and\n      0xffffffffffffffffffffffffffffffffffffffff\n      and\n      dup2\n      mstore\n      0x20\n      add\n      swap1\n      dup2\n      mstore\n      0x20\n      add\n      0x00\n      keccak256\n        /* \"contracts/edits.sol\":5084:5118  supplierProducts[_supplier].length */\n      dup1\n      sload\n      swap1\n      pop\n        /* \"contracts/edits.sol\":5071:5081  _productId */\n      dup5\n        /* \"contracts/edits.sol\":5071:5118  _productId < supplierProducts[_supplier].length */\n      lt\n        /* \"contracts/edits.sol\":5063:5141  require(_productId < supplierProducts[_supplier].length, \"Invalid product ID\") */\n      tag_472\n      jumpi\n      mload(0x40)\n      0x08c379a000000000000000000000000000000000000000000000000000000000\n      dup2\n      mstore\n      0x04\n      add\n      tag_473\n      swap1\n      tag_281\n      jump\t// in\n    tag_473:\n      mload(0x40)\n      dup1\n      swap2\n      sub\n      swap1\n      revert\n    tag_472:\n        /* \"contracts/edits.sol\":5151:5161  uint price */\n      0x00\n        /* \"contracts/edits.sol\":5164:5180  supplierProducts */\n      0x06\n        /* \"contracts/edits.sol\":5164:5191  supplierProducts[_supplier] */\n      0x00\n        /* \"contracts/edits.sol\":5181:5190  _supplier */\n      dup5\n        /* \"contracts/edits.sol\":5164:5191  supplierProducts[_supplier] */\n      0xffffffffffffffffffffffffffffffffffffffff\n      and\n      0xffffffffffffffffffffffffffffffffffffffff\n      and\n      dup2\n      mstore\n      0x20\n      add\n      swap1\n      dup2\n      mstore\n      0x20\n      add\n      0x00\n      keccak256\n        /* \"contracts/edits.sol\":5192:5202  _productId */\n      dup6\n        /* \"contracts/edits.sol\":5164:5203  supplierProducts[_supplier][_productId] */\n      dup2\n      sload\n      dup2\n      lt\n      tag_474\n      jumpi\n      tag_475\n      tag_195\n      jump\t// in\n    tag_475:\n    tag_474:\n      swap1\n      0x00\n      mstore\n      keccak256(0x00, 0x20)\n      swap1\n      0x05\n      mul\n      add\n        /* \"contracts/edits.sol\":5164:5209  supplierProducts[_supplier][_productId].price */\n      0x02\n      add\n      sload\n        /* \"contracts/edits.sol\":5151:5209  uint price = supplierProducts[_supplier][_productId].price */\n      swap1\n      pop\n        /* \"contracts/edits.sol\":5219:5234  uint totalPrice */\n      0x00\n        /* \"contracts/edits.sol\":5245:5252  _amount */\n      dup5\n        /* \"contracts/edits.sol\":5237:5242  price */\n      dup3\n        /* \"contracts/edits.sol\":5237:5252  price * _amount */\n      tag_477\n      swap2\n      swap1\n      tag_208\n      jump\t// in\n    tag_477:\n        /* \"contracts/edits.sol\":5219:5252  uint totalPrice = price * _amount */\n      swap1\n      pop\n        /* \"contracts/edits.sol\":5312:5322  totalPrice */\n      dup1\n        /* \"contracts/edits.sol\":5299:5308  msg.value */\n      callvalue\n        /* \"contracts/edits.sol\":5299:5322  msg.value >= totalPrice */\n      lt\n      iszero\n        /* \"contracts/edits.sol\":5291:5350  require(msg.value >= totalPrice, \"Insufficient funds sent\") */\n      tag_478\n      jumpi\n      mload(0x40)\n      0x08c379a000000000000000000000000000000000000000000000000000000000\n      dup2\n      mstore\n      0x04\n      add\n      tag_479\n      swap1\n      tag_369\n      jump\t// in\n    tag_479:\n      mload(0x40)\n      dup1\n      swap2\n      sub\n      swap1\n      revert\n    tag_478:\n        /* \"contracts/edits.sol\":5360:5384  string memory targetName */\n      0x00\n        /* \"contracts/edits.sol\":5387:5403  supplierProducts */\n      0x06\n        /* \"contracts/edits.sol\":5387:5414  supplierProducts[_supplier] */\n      0x00\n        /* \"contracts/edits.sol\":5404:5413  _supplier */\n      dup7\n        /* \"contracts/edits.sol\":5387:5414  supplierProducts[_supplier] */\n      0xffffffffffffffffffffffffffffffffffffffff\n      and\n      0xffffffffffffffffffffffffffffffffffffffff\n      and\n      dup2\n      mstore\n      0x20\n      add\n      swap1\n      dup2\n      mstore\n      0x20\n      add\n      0x00\n      keccak256\n        /* \"contracts/edits.sol\":5415:5425  _productId */\n      dup8\n        /* \"contracts/edits.sol\":5387:5426  supplierProducts[_supplier][_productId] */\n      dup2\n      sload\n      dup2\n      lt\n      tag_480\n      jumpi\n      tag_481\n      tag_195\n      jump\t// in\n    tag_481:\n    tag_480:\n      swap1\n      0x00\n      mstore\n      keccak256(0x00, 0x20)\n      swap1\n      0x05\n      mul\n      add\n        /* \"contracts/edits.sol\":5387:5431  supplierProducts[_supplier][_productId].name */\n      0x03\n      add\n        /* \"contracts/edits.sol\":5360:5431  string memory targetName = supplierProducts[_supplier][_productId].name */\n      dup1\n      sload\n      tag_483\n      swap1\n      tag_168\n      jump\t// in\n    tag_483:\n      dup1\n      0x1f\n      add\n      0x20\n      dup1\n      swap2\n      div\n      mul\n      0x20\n      add\n      mload(0x40)\n      swap1\n      dup2\n      add\n      0x40\n      mstore\n      dup1\n      swap3\n      swap2\n      swap1\n      dup2\n      dup2\n      mstore\n      0x20\n      add\n      dup3\n      dup1\n      sload\n      tag_484\n      swap1\n      tag_168\n      jump\t// in\n    tag_484:\n      dup1\n      iszero\n      tag_485\n      jumpi\n      dup1\n      0x1f\n      lt\n      tag_486\n      jumpi\n      0x0100\n      dup1\n      dup4\n      sload\n      div\n      mul\n      dup4\n      mstore\n      swap2\n      0x20\n      add\n      swap2\n      jump(tag_485)\n    tag_486:\n      dup3\n      add\n      swap2\n      swap1\n      0x00\n      mstore\n      keccak256(0x00, 0x20)\n      swap1\n    tag_487:\n      dup2\n      sload\n      dup2\n      mstore\n      swap1\n      0x01\n      add\n      swap1\n      0x20\n      add\n      dup1\n      dup4\n      gt\n      tag_487\n      jumpi\n      dup3\n      swap1\n      sub\n      0x1f\n      and\n      dup3\n      add\n      swap2\n    tag_485:\n      pop\n      pop\n      pop\n      pop\n      pop\n      swap1\n      pop\n        /* \"contracts/edits.sol\":5441:5459  bool productExists */\n      0x00\n        /* \"contracts/edits.sol\":5482:5488  uint i */\n      dup1\n        /* \"contracts/edits.sol\":5478:5802  for(uint i = 0; i< marketProducts[_shop].length; i++){... */\n    tag_488:\n        /* \"contracts/edits.sol\":5497:5511  marketProducts */\n      0x05\n        /* \"contracts/edits.sol\":5497:5518  marketProducts[_shop] */\n      0x00\n        /* \"contracts/edits.sol\":5512:5517  _shop */\n      dup12\n        /* \"contracts/edits.sol\":5497:5518  marketProducts[_shop] */\n      0xffffffffffffffffffffffffffffffffffffffff\n      and\n      0xffffffffffffffffffffffffffffffffffffffff\n      and\n      dup2\n      mstore\n      0x20\n      add\n      swap1\n      dup2\n      mstore\n      0x20\n      add\n      0x00\n      keccak256\n        /* \"contracts/edits.sol\":5497:5525  marketProducts[_shop].length */\n      dup1\n      sload\n      swap1\n      pop\n        /* \"contracts/edits.sol\":5494:5495  i */\n      dup2\n        /* \"contracts/edits.sol\":5494:5525  i< marketProducts[_shop].length */\n      lt\n        /* \"contracts/edits.sol\":5478:5802  for(uint i = 0; i< marketProducts[_shop].length; i++){... */\n      iszero\n      tag_489\n      jumpi\n        /* \"contracts/edits.sol\":5597:5611  marketProducts */\n      0x05\n        /* \"contracts/edits.sol\":5597:5618  marketProducts[_shop] */\n      0x00\n        /* \"contracts/edits.sol\":5612:5617  _shop */\n      dup12\n        /* \"contracts/edits.sol\":5597:5618  marketProducts[_shop] */\n      0xffffffffffffffffffffffffffffffffffffffff\n      and\n      0xffffffffffffffffffffffffffffffffffffffff\n      and\n      dup2\n      mstore\n      0x20\n      add\n      swap1\n      dup2\n      mstore\n      0x20\n      add\n      0x00\n      keccak256\n        /* \"contracts/edits.sol\":5619:5620  i */\n      dup2\n        /* \"contracts/edits.sol\":5597:5621  marketProducts[_shop][i] */\n      dup2\n      sload\n      dup2\n      lt\n      tag_491\n      jumpi\n      tag_492\n      tag_195\n      jump\t// in\n    tag_492:\n    tag_491:\n      swap1\n      0x00\n      mstore\n      keccak256(0x00, 0x20)\n      swap1\n      0x05\n      mul\n      add\n        /* \"contracts/edits.sol\":5597:5626  marketProducts[_shop][i].name */\n      0x03\n      add\n        /* \"contracts/edits.sol\":5581:5628  keccak256(bytes(marketProducts[_shop][i].name)) */\n      mload(0x40)\n      tag_494\n      swap2\n      swap1\n      tag_377\n      jump\t// in\n    tag_494:\n      mload(0x40)\n      dup1\n      swap2\n      sub\n      swap1\n      keccak256\n        /* \"contracts/edits.sol\":5565:5575  targetName */\n      dup4\n        /* \"contracts/edits.sol\":5549:5577  keccak256(bytes(targetName)) */\n      dup1\n      mload\n      swap1\n      0x20\n      add\n      keccak256\n        /* \"contracts/edits.sol\":5549:5628  keccak256(bytes(targetName)) == keccak256(bytes(marketProducts[_shop][i].name)) */\n      sub\n        /* \"contracts/edits.sol\":5545:5792  if (keccak256(bytes(targetName)) == keccak256(bytes(marketProducts[_shop][i].name))){ // bytes -> abi.encode... */\n      tag_495\n      jumpi\n        /* \"contracts/edits.sol\":5706:5713  _amount */\n      dup8\n        /* \"contracts/edits.sol\":5670:5684  marketProducts */\n      0x05\n        /* \"contracts/edits.sol\":5670:5691  marketProducts[_shop] */\n      0x00\n        /* \"contracts/edits.sol\":5685:5690  _shop */\n      dup13\n        /* \"contracts/edits.sol\":5670:5691  marketProducts[_shop] */\n      0xffffffffffffffffffffffffffffffffffffffff\n      and\n      0xffffffffffffffffffffffffffffffffffffffff\n      and\n      dup2\n      mstore\n      0x20\n      add\n      swap1\n      dup2\n      mstore\n      0x20\n      add\n      0x00\n      keccak256\n        /* \"contracts/edits.sol\":5692:5693  i */\n      dup3\n        /* \"contracts/edits.sol\":5670:5694  marketProducts[_shop][i] */\n      dup2\n      sload\n      dup2\n      lt\n      tag_496\n      jumpi\n      tag_497\n      tag_195\n      jump\t// in\n    tag_497:\n    tag_496:\n      swap1\n      0x00\n      mstore\n      keccak256(0x00, 0x20)\n      swap1\n      0x05\n      mul\n      add\n        /* \"contracts/edits.sol\":5670:5702  marketProducts[_shop][i].inStock */\n      0x01\n      add\n      0x00\n        /* \"contracts/edits.sol\":5670:5713  marketProducts[_shop][i].inStock += _amount */\n      dup3\n      dup3\n      sload\n      tag_499\n      swap2\n      swap1\n      tag_216\n      jump\t// in\n    tag_499:\n      swap3\n      pop\n      pop\n      dup2\n      swap1\n      sstore\n      pop\n        /* \"contracts/edits.sol\":5747:5751  true */\n      0x01\n        /* \"contracts/edits.sol\":5731:5751  productExists = true */\n      swap2\n      pop\n        /* \"contracts/edits.sol\":5769:5774  break */\n      jump(tag_489)\n        /* \"contracts/edits.sol\":5545:5792  if (keccak256(bytes(targetName)) == keccak256(bytes(marketProducts[_shop][i].name))){ // bytes -> abi.encode... */\n    tag_495:\n        /* \"contracts/edits.sol\":5527:5530  i++ */\n      dup1\n      dup1\n      tag_500\n      swap1\n      tag_258\n      jump\t// in\n    tag_500:\n      swap2\n      pop\n      pop\n        /* \"contracts/edits.sol\":5478:5802  for(uint i = 0; i< marketProducts[_shop].length; i++){... */\n      jump(tag_488)\n    tag_489:\n      pop\n        /* \"contracts/edits.sol\":5817:5830  productExists */\n      dup1\n        /* \"contracts/edits.sol\":5812:6025  if (!productExists){... */\n      tag_501\n      jumpi\n        /* \"contracts/edits.sol\":5845:5867  Product memory newItem */\n      0x00\n        /* \"contracts/edits.sol\":5870:5965  Product(_supplier, _amount, price, targetName, supplierProducts[_supplier][_productId].expDate) */\n      mload(0x40)\n      dup1\n      0xa0\n      add\n      0x40\n      mstore\n      dup1\n        /* \"contracts/edits.sol\":5878:5887  _supplier */\n      dup9\n        /* \"contracts/edits.sol\":5870:5965  Product(_supplier, _amount, price, targetName, supplierProducts[_supplier][_productId].expDate) */\n      0xffffffffffffffffffffffffffffffffffffffff\n      and\n      dup2\n      mstore\n      0x20\n      add\n        /* \"contracts/edits.sol\":5889:5896  _amount */\n      dup10\n        /* \"contracts/edits.sol\":5870:5965  Product(_supplier, _amount, price, targetName, supplierProducts[_supplier][_productId].expDate) */\n      dup2\n      mstore\n      0x20\n      add\n        /* \"contracts/edits.sol\":5898:5903  price */\n      dup7\n        /* \"contracts/edits.sol\":5870:5965  Product(_supplier, _amount, price, targetName, supplierProducts[_supplier][_productId].expDate) */\n      dup2\n      mstore\n      0x20\n      add\n        /* \"contracts/edits.sol\":5905:5915  targetName */\n      dup5\n        /* \"contracts/edits.sol\":5870:5965  Product(_supplier, _amount, price, targetName, supplierProducts[_supplier][_productId].expDate) */\n      dup2\n      mstore\n      0x20\n      add\n        /* \"contracts/edits.sol\":5917:5933  supplierProducts */\n      0x06\n        /* \"contracts/edits.sol\":5917:5944  supplierProducts[_supplier] */\n      0x00\n        /* \"contracts/edits.sol\":5934:5943  _supplier */\n      dup11\n        /* \"contracts/edits.sol\":5917:5944  supplierProducts[_supplier] */\n      0xffffffffffffffffffffffffffffffffffffffff\n      and\n      0xffffffffffffffffffffffffffffffffffffffff\n      and\n      dup2\n      mstore\n      0x20\n      add\n      swap1\n      dup2\n      mstore\n      0x20\n      add\n      0x00\n      keccak256\n        /* \"contracts/edits.sol\":5945:5955  _productId */\n      dup12\n        /* \"contracts/edits.sol\":5917:5956  supplierProducts[_supplier][_productId] */\n      dup2\n      sload\n      dup2\n      lt\n      tag_502\n      jumpi\n      tag_503\n      tag_195\n      jump\t// in\n    tag_503:\n    tag_502:\n      swap1\n      0x00\n      mstore\n      keccak256(0x00, 0x20)\n      swap1\n      0x05\n      mul\n      add\n        /* \"contracts/edits.sol\":5917:5964  supplierProducts[_supplier][_productId].expDate */\n      0x04\n      add\n      sload\n        /* \"contracts/edits.sol\":5870:5965  Product(_supplier, _amount, price, targetName, supplierProducts[_supplier][_productId].expDate) */\n      dup2\n      mstore\n      pop\n        /* \"contracts/edits.sol\":5845:5965  Product memory newItem = Product(_supplier, _amount, price, targetName, supplierProducts[_supplier][_productId].expDate) */\n      swap1\n      pop\n        /* \"contracts/edits.sol\":5979:5993  marketProducts */\n      0x05\n        /* \"contracts/edits.sol\":5979:6000  marketProducts[_shop] */\n      0x00\n        /* \"contracts/edits.sol\":5994:5999  _shop */\n      dup12\n        /* \"contracts/edits.sol\":5979:6000  marketProducts[_shop] */\n      0xffffffffffffffffffffffffffffffffffffffff\n      and\n      0xffffffffffffffffffffffffffffffffffffffff\n      and\n      dup2\n      mstore\n      0x20\n      add\n      swap1\n      dup2\n      mstore\n      0x20\n      add\n      0x00\n      keccak256\n        /* \"contracts/edits.sol\":6006:6013  newItem */\n      dup2\n        /* \"contracts/edits.sol\":5979:6014  marketProducts[_shop].push(newItem) */\n      swap1\n      dup1\n      0x01\n      dup2\n      sload\n      add\n      dup1\n      dup3\n      sstore\n      dup1\n      swap2\n      pop\n      pop\n      0x01\n      swap1\n      sub\n      swap1\n      0x00\n      mstore\n      keccak256(0x00, 0x20)\n      swap1\n      0x05\n      mul\n      add\n      0x00\n      swap1\n      swap2\n      swap1\n      swap2\n      swap1\n      swap2\n      pop\n      0x00\n      dup3\n      add\n      mload\n      dup2\n      0x00\n      add\n      exp(0x0100, 0x00)\n      dup2\n      sload\n      dup2\n      0xffffffffffffffffffffffffffffffffffffffff\n      mul\n      not\n      and\n      swap1\n      dup4\n      0xffffffffffffffffffffffffffffffffffffffff\n      and\n      mul\n      or\n      swap1\n      sstore\n      pop\n      0x20\n      dup3\n      add\n      mload\n      dup2\n      0x01\n      add\n      sstore\n      0x40\n      dup3\n      add\n      mload\n      dup2\n      0x02\n      add\n      sstore\n      0x60\n      dup3\n      add\n      mload\n      dup2\n      0x03\n      add\n      swap1\n      dup2\n      tag_506\n      swap2\n      swap1\n      tag_164\n      jump\t// in\n    tag_506:\n      pop\n      0x80\n      dup3\n      add\n      mload\n      dup2\n      0x04\n      add\n      sstore\n      pop\n      pop\n        /* \"contracts/edits.sol\":5831:6025  {... */\n      pop\n        /* \"contracts/edits.sol\":5812:6025  if (!productExists){... */\n    tag_501:\n        /* \"contracts/edits.sol\":6086:6093  _amount */\n      dup7\n        /* \"contracts/edits.sol\":6035:6051  supplierProducts */\n      0x06\n        /* \"contracts/edits.sol\":6035:6062  supplierProducts[_supplier] */\n      0x00\n        /* \"contracts/edits.sol\":6052:6061  _supplier */\n      dup9\n        /* \"contracts/edits.sol\":6035:6062  supplierProducts[_supplier] */\n      0xffffffffffffffffffffffffffffffffffffffff\n      and\n      0xffffffffffffffffffffffffffffffffffffffff\n      and\n      dup2\n      mstore\n      0x20\n      add\n      swap1\n      dup2\n      mstore\n      0x20\n      add\n      0x00\n      keccak256\n        /* \"contracts/edits.sol\":6063:6073  _productId */\n      dup10\n        /* \"contracts/edits.sol\":6035:6074  supplierProducts[_supplier][_productId] */\n      dup2\n      sload\n      dup2\n      lt\n      tag_507\n      jumpi\n      tag_508\n      tag_195\n      jump\t// in\n    tag_508:\n    tag_507:\n      swap1\n      0x00\n      mstore\n      keccak256(0x00, 0x20)\n      swap1\n      0x05\n      mul\n      add\n        /* \"contracts/edits.sol\":6035:6082  supplierProducts[_supplier][_productId].inStock */\n      0x01\n      add\n      0x00\n        /* \"contracts/edits.sol\":6035:6093  supplierProducts[_supplier][_productId].inStock -= _amount */\n      dup3\n      dup3\n      sload\n      tag_510\n      swap2\n      swap1\n      tag_223\n      jump\t// in\n    tag_510:\n      swap3\n      pop\n      pop\n      dup2\n      swap1\n      sstore\n      pop\n        /* \"contracts/edits.sol\":6120:6130  totalPrice */\n      dup3\n        /* \"contracts/edits.sol\":6108:6117  msg.value */\n      callvalue\n        /* \"contracts/edits.sol\":6108:6130  msg.value > totalPrice */\n      gt\n        /* \"contracts/edits.sol\":6104:6225  if (msg.value > totalPrice) {... */\n      iszero\n      tag_511\n      jumpi\n        /* \"contracts/edits.sol\":6154:6164  msg.sender */\n      caller\n        /* \"contracts/edits.sol\":6146:6174  payable(msg.sender).transfer */\n      0xffffffffffffffffffffffffffffffffffffffff\n      and\n        /* \"contracts/edits.sol\":6146:6198  payable(msg.sender).transfer(msg.value - totalPrice) */\n      0x08fc\n        /* \"contracts/edits.sol\":6187:6197  totalPrice */\n      dup5\n        /* \"contracts/edits.sol\":6175:6184  msg.value */\n      callvalue\n        /* \"contracts/edits.sol\":6175:6197  msg.value - totalPrice */\n      tag_512\n      swap2\n      swap1\n      tag_223\n      jump\t// in\n    tag_512:\n        /* \"contracts/edits.sol\":6146:6198  payable(msg.sender).transfer(msg.value - totalPrice) */\n      swap1\n      dup2\n      iszero\n      mul\n      swap1\n      mload(0x40)\n      0x00\n      mload(0x40)\n      dup1\n      dup4\n      sub\n      dup2\n      dup6\n      dup9\n      dup9\n      call\n      swap4\n      pop\n      pop\n      pop\n      pop\n      iszero\n      dup1\n      iszero\n      tag_514\n      jumpi\n      returndatasize\n      0x00\n      dup1\n      returndatacopy\n      revert(0x00, returndatasize)\n    tag_514:\n      pop\n        /* \"contracts/edits.sol\":6104:6225  if (msg.value > totalPrice) {... */\n    tag_511:\n        /* \"contracts/edits.sol\":4981:6232  {... */\n      pop\n      pop\n      pop\n      pop\n        /* \"contracts/edits.sol\":4853:6232  function refillStore(address _shop, uint _productId, uint _amount, address _supplier) public payable AccessControl(Role.Market) {... */\n      pop\n      pop\n      pop\n      pop\n      pop\n      jump\t// out\n    tag_221:\n      pop\n      dup1\n      sload\n      tag_515\n      swap1\n      tag_168\n      jump\t// in\n    tag_515:\n      0x00\n      dup3\n      sstore\n      dup1\n      0x1f\n      lt\n      tag_517\n      jumpi\n      pop\n      jump(tag_516)\n    tag_517:\n      0x1f\n      add\n      0x20\n      swap1\n      div\n      swap1\n      0x00\n      mstore\n      keccak256(0x00, 0x20)\n      swap1\n      dup2\n      add\n      swap1\n      tag_518\n      swap2\n      swap1\n      tag_519\n      jump\t// in\n    tag_518:\n    tag_516:\n      pop\n      jump\t// out\n    tag_519:\n    tag_520:\n      dup1\n      dup3\n      gt\n      iszero\n      tag_521\n      jumpi\n      0x00\n      dup2\n      0x00\n      swap1\n      sstore\n      pop\n      0x01\n      add\n      jump(tag_520)\n    tag_521:\n      pop\n      swap1\n      jump\t// out\n        /* \"#utility.yul\":7:82   */\n    tag_522:\n        /* \"#utility.yul\":40:46   */\n      0x00\n        /* \"#utility.yul\":73:75   */\n      0x40\n        /* \"#utility.yul\":67:76   */\n      mload\n        /* \"#utility.yul\":57:76   */\n      swap1\n      pop\n        /* \"#utility.yul\":7:82   */\n      swap1\n      jump\t// out\n        /* \"#utility.yul\":88:205   */\n    tag_523:\n        /* \"#utility.yul\":197:198   */\n      0x00\n        /* \"#utility.yul\":194:195   */\n      dup1\n        /* \"#utility.yul\":187:199   */\n      revert\n        /* \"#utility.yul\":211:328   */\n    tag_524:\n        /* \"#utility.yul\":320:321   */\n      0x00\n        /* \"#utility.yul\":317:318   */\n      dup1\n        /* \"#utility.yul\":310:322   */\n      revert\n        /* \"#utility.yul\":334:411   */\n    tag_525:\n        /* \"#utility.yul\":371:378   */\n      0x00\n        /* \"#utility.yul\":400:405   */\n      dup2\n        /* \"#utility.yul\":389:405   */\n      swap1\n      pop\n        /* \"#utility.yul\":334:411   */\n      swap2\n      swap1\n      pop\n      jump\t// out\n        /* \"#utility.yul\":417:539   */\n    tag_526:\n        /* \"#utility.yul\":490:514   */\n      tag_612\n        /* \"#utility.yul\":508:513   */\n      dup2\n        /* \"#utility.yul\":490:514   */\n      tag_525\n      jump\t// in\n    tag_612:\n        /* \"#utility.yul\":483:488   */\n      dup2\n        /* \"#utility.yul\":480:515   */\n      eq\n        /* \"#utility.yul\":470:533   */\n      tag_613\n      jumpi\n        /* \"#utility.yul\":529:530   */\n      0x00\n        /* \"#utility.yul\":526:527   */\n      dup1\n        /* \"#utility.yul\":519:531   */\n      revert\n        /* \"#utility.yul\":470:533   */\n    tag_613:\n        /* \"#utility.yul\":417:539   */\n      pop\n      jump\t// out\n        /* \"#utility.yul\":545:684   */\n    tag_527:\n        /* \"#utility.yul\":591:596   */\n      0x00\n        /* \"#utility.yul\":629:635   */\n      dup2\n        /* \"#utility.yul\":616:636   */\n      calldataload\n        /* \"#utility.yul\":607:636   */\n      swap1\n      pop\n        /* \"#utility.yul\":645:678   */\n      tag_615\n        /* \"#utility.yul\":672:677   */\n      dup2\n        /* \"#utility.yul\":645:678   */\n      tag_526\n      jump\t// in\n    tag_615:\n        /* \"#utility.yul\":545:684   */\n      swap3\n      swap2\n      pop\n      pop\n      jump\t// out\n        /* \"#utility.yul\":690:807   */\n    tag_528:\n        /* \"#utility.yul\":799:800   */\n      0x00\n        /* \"#utility.yul\":796:797   */\n      dup1\n        /* \"#utility.yul\":789:801   */\n      revert\n        /* \"#utility.yul\":813:930   */\n    tag_529:\n        /* \"#utility.yul\":922:923   */\n      0x00\n        /* \"#utility.yul\":919:920   */\n      dup1\n        /* \"#utility.yul\":912:924   */\n      revert\n        /* \"#utility.yul\":936:1053   */\n    tag_530:\n        /* \"#utility.yul\":1045:1046   */\n      0x00\n        /* \"#utility.yul\":1042:1043   */\n      dup1\n        /* \"#utility.yul\":1035:1047   */\n      revert\n        /* \"#utility.yul\":1073:1626   */\n    tag_531:\n        /* \"#utility.yul\":1131:1139   */\n      0x00\n        /* \"#utility.yul\":1141:1147   */\n      dup1\n        /* \"#utility.yul\":1191:1194   */\n      dup4\n        /* \"#utility.yul\":1184:1188   */\n      0x1f\n        /* \"#utility.yul\":1176:1182   */\n      dup5\n        /* \"#utility.yul\":1172:1189   */\n      add\n        /* \"#utility.yul\":1168:1195   */\n      slt\n        /* \"#utility.yul\":1158:1280   */\n      tag_620\n      jumpi\n        /* \"#utility.yul\":1199:1278   */\n      tag_621\n      tag_528\n      jump\t// in\n    tag_621:\n        /* \"#utility.yul\":1158:1280   */\n    tag_620:\n        /* \"#utility.yul\":1312:1318   */\n      dup3\n        /* \"#utility.yul\":1299:1319   */\n      calldataload\n        /* \"#utility.yul\":1289:1319   */\n      swap1\n      pop\n        /* \"#utility.yul\":1342:1360   */\n      0xffffffffffffffff\n        /* \"#utility.yul\":1334:1340   */\n      dup2\n        /* \"#utility.yul\":1331:1361   */\n      gt\n        /* \"#utility.yul\":1328:1445   */\n      iszero\n      tag_622\n      jumpi\n        /* \"#utility.yul\":1364:1443   */\n      tag_623\n      tag_529\n      jump\t// in\n    tag_623:\n        /* \"#utility.yul\":1328:1445   */\n    tag_622:\n        /* \"#utility.yul\":1478:1482   */\n      0x20\n        /* \"#utility.yul\":1470:1476   */\n      dup4\n        /* \"#utility.yul\":1466:1483   */\n      add\n        /* \"#utility.yul\":1454:1483   */\n      swap2\n      pop\n        /* \"#utility.yul\":1532:1535   */\n      dup4\n        /* \"#utility.yul\":1524:1528   */\n      0x01\n        /* \"#utility.yul\":1516:1522   */\n      dup3\n        /* \"#utility.yul\":1512:1529   */\n      mul\n        /* \"#utility.yul\":1502:1510   */\n      dup4\n        /* \"#utility.yul\":1498:1530   */\n      add\n        /* \"#utility.yul\":1495:1536   */\n      gt\n        /* \"#utility.yul\":1492:1620   */\n      iszero\n      tag_624\n      jumpi\n        /* \"#utility.yul\":1539:1618   */\n      tag_625\n      tag_530\n      jump\t// in\n    tag_625:\n        /* \"#utility.yul\":1492:1620   */\n    tag_624:\n        /* \"#utility.yul\":1073:1626   */\n      swap3\n      pop\n      swap3\n      swap1\n      pop\n      jump\t// out\n        /* \"#utility.yul\":1632:2597   */\n    tag_34:\n        /* \"#utility.yul\":1730:1736   */\n      0x00\n        /* \"#utility.yul\":1738:1744   */\n      dup1\n        /* \"#utility.yul\":1746:1752   */\n      0x00\n        /* \"#utility.yul\":1754:1760   */\n      dup1\n        /* \"#utility.yul\":1762:1768   */\n      0x00\n        /* \"#utility.yul\":1811:1814   */\n      0x80\n        /* \"#utility.yul\":1799:1808   */\n      dup7\n        /* \"#utility.yul\":1790:1797   */\n      dup9\n        /* \"#utility.yul\":1786:1809   */\n      sub\n        /* \"#utility.yul\":1782:1815   */\n      slt\n        /* \"#utility.yul\":1779:1899   */\n      iszero\n      tag_627\n      jumpi\n        /* \"#utility.yul\":1818:1897   */\n      tag_628\n      tag_523\n      jump\t// in\n    tag_628:\n        /* \"#utility.yul\":1779:1899   */\n    tag_627:\n        /* \"#utility.yul\":1938:1939   */\n      0x00\n        /* \"#utility.yul\":1963:2016   */\n      tag_629\n        /* \"#utility.yul\":2008:2015   */\n      dup9\n        /* \"#utility.yul\":1999:2005   */\n      dup3\n        /* \"#utility.yul\":1988:1997   */\n      dup10\n        /* \"#utility.yul\":1984:2006   */\n      add\n        /* \"#utility.yul\":1963:2016   */\n      tag_527\n      jump\t// in\n    tag_629:\n        /* \"#utility.yul\":1953:2016   */\n      swap6\n      pop\n        /* \"#utility.yul\":1909:2026   */\n      pop\n        /* \"#utility.yul\":2065:2067   */\n      0x20\n        /* \"#utility.yul\":2091:2144   */\n      tag_630\n        /* \"#utility.yul\":2136:2143   */\n      dup9\n        /* \"#utility.yul\":2127:2133   */\n      dup3\n        /* \"#utility.yul\":2116:2125   */\n      dup10\n        /* \"#utility.yul\":2112:2134   */\n      add\n        /* \"#utility.yul\":2091:2144   */\n      tag_527\n      jump\t// in\n    tag_630:\n        /* \"#utility.yul\":2081:2144   */\n      swap5\n      pop\n        /* \"#utility.yul\":2036:2154   */\n      pop\n        /* \"#utility.yul\":2221:2223   */\n      0x40\n        /* \"#utility.yul\":2210:2219   */\n      dup7\n        /* \"#utility.yul\":2206:2224   */\n      add\n        /* \"#utility.yul\":2193:2225   */\n      calldataload\n        /* \"#utility.yul\":2252:2270   */\n      0xffffffffffffffff\n        /* \"#utility.yul\":2244:2250   */\n      dup2\n        /* \"#utility.yul\":2241:2271   */\n      gt\n        /* \"#utility.yul\":2238:2355   */\n      iszero\n      tag_631\n      jumpi\n        /* \"#utility.yul\":2274:2353   */\n      tag_632\n      tag_524\n      jump\t// in\n    tag_632:\n        /* \"#utility.yul\":2238:2355   */\n    tag_631:\n        /* \"#utility.yul\":2387:2452   */\n      tag_633\n        /* \"#utility.yul\":2444:2451   */\n      dup9\n        /* \"#utility.yul\":2435:2441   */\n      dup3\n        /* \"#utility.yul\":2424:2433   */\n      dup10\n        /* \"#utility.yul\":2420:2442   */\n      add\n        /* \"#utility.yul\":2387:2452   */\n      tag_531\n      jump\t// in\n    tag_633:\n        /* \"#utility.yul\":2369:2452   */\n      swap4\n      pop\n      swap4\n      pop\n        /* \"#utility.yul\":2164:2462   */\n      pop\n        /* \"#utility.yul\":2501:2503   */\n      0x60\n        /* \"#utility.yul\":2527:2580   */\n      tag_634\n        /* \"#utility.yul\":2572:2579   */\n      dup9\n        /* \"#utility.yul\":2563:2569   */\n      dup3\n        /* \"#utility.yul\":2552:2561   */\n      dup10\n        /* \"#utility.yul\":2548:2570   */\n      add\n        /* \"#utility.yul\":2527:2580   */\n      tag_527\n      jump\t// in\n    tag_634:\n        /* \"#utility.yul\":2517:2580   */\n      swap2\n      pop\n        /* \"#utility.yul\":2472:2590   */\n      pop\n        /* \"#utility.yul\":1632:2597   */\n      swap3\n      swap6\n      pop\n      swap3\n      swap6\n      swap1\n      swap4\n      pop\n      jump\t// out\n        /* \"#utility.yul\":2603:2932   */\n    tag_39:\n        /* \"#utility.yul\":2662:2668   */\n      0x00\n        /* \"#utility.yul\":2711:2713   */\n      0x20\n        /* \"#utility.yul\":2699:2708   */\n      dup3\n        /* \"#utility.yul\":2690:2697   */\n      dup5\n        /* \"#utility.yul\":2686:2709   */\n      sub\n        /* \"#utility.yul\":2682:2714   */\n      slt\n        /* \"#utility.yul\":2679:2798   */\n      iszero\n      tag_636\n      jumpi\n        /* \"#utility.yul\":2717:2796   */\n      tag_637\n      tag_523\n      jump\t// in\n    tag_637:\n        /* \"#utility.yul\":2679:2798   */\n    tag_636:\n        /* \"#utility.yul\":2837:2838   */\n      0x00\n        /* \"#utility.yul\":2862:2915   */\n      tag_638\n        /* \"#utility.yul\":2907:2914   */\n      dup5\n        /* \"#utility.yul\":2898:2904   */\n      dup3\n        /* \"#utility.yul\":2887:2896   */\n      dup6\n        /* \"#utility.yul\":2883:2905   */\n      add\n        /* \"#utility.yul\":2862:2915   */\n      tag_527\n      jump\t// in\n    tag_638:\n        /* \"#utility.yul\":2852:2915   */\n      swap2\n      pop\n        /* \"#utility.yul\":2808:2925   */\n      pop\n        /* \"#utility.yul\":2603:2932   */\n      swap3\n      swap2\n      pop\n      pop\n      jump\t// out\n        /* \"#utility.yul\":2938:3064   */\n    tag_532:\n        /* \"#utility.yul\":2975:2982   */\n      0x00\n        /* \"#utility.yul\":3015:3057   */\n      0xffffffffffffffffffffffffffffffffffffffff\n        /* \"#utility.yul\":3008:3013   */\n      dup3\n        /* \"#utility.yul\":3004:3058   */\n      and\n        /* \"#utility.yul\":2993:3058   */\n      swap1\n      pop\n        /* \"#utility.yul\":2938:3064   */\n      swap2\n      swap1\n      pop\n      jump\t// out\n        /* \"#utility.yul\":3070:3166   */\n    tag_533:\n        /* \"#utility.yul\":3107:3114   */\n      0x00\n        /* \"#utility.yul\":3136:3160   */\n      tag_641\n        /* \"#utility.yul\":3154:3159   */\n      dup3\n        /* \"#utility.yul\":3136:3160   */\n      tag_532\n      jump\t// in\n    tag_641:\n        /* \"#utility.yul\":3125:3160   */\n      swap1\n      pop\n        /* \"#utility.yul\":3070:3166   */\n      swap2\n      swap1\n      pop\n      jump\t// out\n        /* \"#utility.yul\":3172:3290   */\n    tag_534:\n        /* \"#utility.yul\":3259:3283   */\n      tag_643\n        /* \"#utility.yul\":3277:3282   */\n      dup2\n        /* \"#utility.yul\":3259:3283   */\n      tag_533\n      jump\t// in\n    tag_643:\n        /* \"#utility.yul\":3254:3257   */\n      dup3\n        /* \"#utility.yul\":3247:3284   */\n      mstore\n        /* \"#utility.yul\":3172:3290   */\n      pop\n      pop\n      jump\t// out\n        /* \"#utility.yul\":3296:3476   */\n    tag_155:\n        /* \"#utility.yul\":3344:3421   */\n      0x4e487b7100000000000000000000000000000000000000000000000000000000\n        /* \"#utility.yul\":3341:3342   */\n      0x00\n        /* \"#utility.yul\":3334:3422   */\n      mstore\n        /* \"#utility.yul\":3441:3445   */\n      0x21\n        /* \"#utility.yul\":3438:3439   */\n      0x04\n        /* \"#utility.yul\":3431:3446   */\n      mstore\n        /* \"#utility.yul\":3465:3469   */\n      0x24\n        /* \"#utility.yul\":3462:3463   */\n      0x00\n        /* \"#utility.yul\":3455:3470   */\n      revert\n        /* \"#utility.yul\":3482:3596   */\n    tag_535:\n        /* \"#utility.yul\":3564:3565   */\n      0x04\n        /* \"#utility.yul\":3557:3562   */\n      dup2\n        /* \"#utility.yul\":3554:3566   */\n      lt\n        /* \"#utility.yul\":3544:3590   */\n      tag_646\n      jumpi\n        /* \"#utility.yul\":3570:3588   */\n      tag_647\n      tag_155\n      jump\t// in\n    tag_647:\n        /* \"#utility.yul\":3544:3590   */\n    tag_646:\n        /* \"#utility.yul\":3482:3596   */\n      pop\n      jump\t// out\n        /* \"#utility.yul\":3602:3731   */\n    tag_536:\n        /* \"#utility.yul\":3648:3655   */\n      0x00\n        /* \"#utility.yul\":3677:3682   */\n      dup2\n        /* \"#utility.yul\":3666:3682   */\n      swap1\n      pop\n        /* \"#utility.yul\":3683:3725   */\n      tag_649\n        /* \"#utility.yul\":3719:3724   */\n      dup3\n        /* \"#utility.yul\":3683:3725   */\n      tag_535\n      jump\t// in\n    tag_649:\n        /* \"#utility.yul\":3602:3731   */\n      swap2\n      swap1\n      pop\n      jump\t// out\n        /* \"#utility.yul\":3737:3866   */\n    tag_537:\n        /* \"#utility.yul\":3794:3803   */\n      0x00\n        /* \"#utility.yul\":3827:3860   */\n      tag_651\n        /* \"#utility.yul\":3854:3859   */\n      dup3\n        /* \"#utility.yul\":3827:3860   */\n      tag_536\n      jump\t// in\n    tag_651:\n        /* \"#utility.yul\":3814:3860   */\n      swap1\n      pop\n        /* \"#utility.yul\":3737:3866   */\n      swap2\n      swap1\n      pop\n      jump\t// out\n        /* \"#utility.yul\":3872:4017   */\n    tag_538:\n        /* \"#utility.yul\":3966:4010   */\n      tag_653\n        /* \"#utility.yul\":4004:4009   */\n      dup2\n        /* \"#utility.yul\":3966:4010   */\n      tag_537\n      jump\t// in\n    tag_653:\n        /* \"#utility.yul\":3961:3964   */\n      dup3\n        /* \"#utility.yul\":3954:4011   */\n      mstore\n        /* \"#utility.yul\":3872:4017   */\n      pop\n      pop\n      jump\t// out\n        /* \"#utility.yul\":4023:4122   */\n    tag_539:\n        /* \"#utility.yul\":4075:4081   */\n      0x00\n        /* \"#utility.yul\":4109:4114   */\n      dup2\n        /* \"#utility.yul\":4103:4115   */\n      mload\n        /* \"#utility.yul\":4093:4115   */\n      swap1\n      pop\n        /* \"#utility.yul\":4023:4122   */\n      swap2\n      swap1\n      pop\n      jump\t// out\n        /* \"#utility.yul\":4128:4297   */\n    tag_540:\n        /* \"#utility.yul\":4212:4223   */\n      0x00\n        /* \"#utility.yul\":4246:4252   */\n      dup3\n        /* \"#utility.yul\":4241:4244   */\n      dup3\n        /* \"#utility.yul\":4234:4253   */\n      mstore\n        /* \"#utility.yul\":4286:4290   */\n      0x20\n        /* \"#utility.yul\":4281:4284   */\n      dup3\n        /* \"#utility.yul\":4277:4291   */\n      add\n        /* \"#utility.yul\":4262:4291   */\n      swap1\n      pop\n        /* \"#utility.yul\":4128:4297   */\n      swap3\n      swap2\n      pop\n      pop\n      jump\t// out\n        /* \"#utility.yul\":4303:4549   */\n    tag_541:\n        /* \"#utility.yul\":4384:4385   */\n      0x00\n        /* \"#utility.yul\":4394:4507   */\n    tag_657:\n        /* \"#utility.yul\":4408:4414   */\n      dup4\n        /* \"#utility.yul\":4405:4406   */\n      dup2\n        /* \"#utility.yul\":4402:4415   */\n      lt\n        /* \"#utility.yul\":4394:4507   */\n      iszero\n      tag_659\n      jumpi\n        /* \"#utility.yul\":4493:4494   */\n      dup1\n        /* \"#utility.yul\":4488:4491   */\n      dup3\n        /* \"#utility.yul\":4484:4495   */\n      add\n        /* \"#utility.yul\":4478:4496   */\n      mload\n        /* \"#utility.yul\":4474:4475   */\n      dup2\n        /* \"#utility.yul\":4469:4472   */\n      dup5\n        /* \"#utility.yul\":4465:4476   */\n      add\n        /* \"#utility.yul\":4458:4497   */\n      mstore\n        /* \"#utility.yul\":4430:4432   */\n      0x20\n        /* \"#utility.yul\":4427:4428   */\n      dup2\n        /* \"#utility.yul\":4423:4433   */\n      add\n        /* \"#utility.yul\":4418:4433   */\n      swap1\n      pop\n        /* \"#utility.yul\":4394:4507   */\n      jump(tag_657)\n    tag_659:\n        /* \"#utility.yul\":4541:4542   */\n      0x00\n        /* \"#utility.yul\":4532:4538   */\n      dup5\n        /* \"#utility.yul\":4527:4530   */\n      dup5\n        /* \"#utility.yul\":4523:4539   */\n      add\n        /* \"#utility.yul\":4516:4543   */\n      mstore\n        /* \"#utility.yul\":4365:4549   */\n      pop\n        /* \"#utility.yul\":4303:4549   */\n      pop\n      pop\n      pop\n      jump\t// out\n        /* \"#utility.yul\":4555:4657   */\n    tag_542:\n        /* \"#utility.yul\":4596:4602   */\n      0x00\n        /* \"#utility.yul\":4647:4649   */\n      0x1f\n        /* \"#utility.yul\":4643:4650   */\n      not\n        /* \"#utility.yul\":4638:4640   */\n      0x1f\n        /* \"#utility.yul\":4631:4636   */\n      dup4\n        /* \"#utility.yul\":4627:4641   */\n      add\n        /* \"#utility.yul\":4623:4651   */\n      and\n        /* \"#utility.yul\":4613:4651   */\n      swap1\n      pop\n        /* \"#utility.yul\":4555:4657   */\n      swap2\n      swap1\n      pop\n      jump\t// out\n        /* \"#utility.yul\":4663:5040   */\n    tag_543:\n        /* \"#utility.yul\":4751:4754   */\n      0x00\n        /* \"#utility.yul\":4779:4818   */\n      tag_662\n        /* \"#utility.yul\":4812:4817   */\n      dup3\n        /* \"#utility.yul\":4779:4818   */\n      tag_539\n      jump\t// in\n    tag_662:\n        /* \"#utility.yul\":4834:4905   */\n      tag_663\n        /* \"#utility.yul\":4898:4904   */\n      dup2\n        /* \"#utility.yul\":4893:4896   */\n      dup6\n        /* \"#utility.yul\":4834:4905   */\n      tag_540\n      jump\t// in\n    tag_663:\n        /* \"#utility.yul\":4827:4905   */\n      swap4\n      pop\n        /* \"#utility.yul\":4914:4979   */\n      tag_664\n        /* \"#utility.yul\":4972:4978   */\n      dup2\n        /* \"#utility.yul\":4967:4970   */\n      dup6\n        /* \"#utility.yul\":4960:4964   */\n      0x20\n        /* \"#utility.yul\":4953:4958   */\n      dup7\n        /* \"#utility.yul\":4949:4965   */\n      add\n        /* \"#utility.yul\":4914:4979   */\n      tag_541\n      jump\t// in\n    tag_664:\n        /* \"#utility.yul\":5004:5033   */\n      tag_665\n        /* \"#utility.yul\":5026:5032   */\n      dup2\n        /* \"#utility.yul\":5004:5033   */\n      tag_542\n      jump\t// in\n    tag_665:\n        /* \"#utility.yul\":4999:5002   */\n      dup5\n        /* \"#utility.yul\":4995:5034   */\n      add\n        /* \"#utility.yul\":4988:5034   */\n      swap2\n      pop\n        /* \"#utility.yul\":4755:5040   */\n      pop\n        /* \"#utility.yul\":4663:5040   */\n      swap3\n      swap2\n      pop\n      pop\n      jump\t// out\n        /* \"#utility.yul\":5046:5164   */\n    tag_544:\n        /* \"#utility.yul\":5133:5157   */\n      tag_667\n        /* \"#utility.yul\":5151:5156   */\n      dup2\n        /* \"#utility.yul\":5133:5157   */\n      tag_525\n      jump\t// in\n    tag_667:\n        /* \"#utility.yul\":5128:5131   */\n      dup3\n        /* \"#utility.yul\":5121:5158   */\n      mstore\n        /* \"#utility.yul\":5046:5164   */\n      pop\n      pop\n      jump\t// out\n        /* \"#utility.yul\":5170:6050   */\n    tag_42:\n        /* \"#utility.yul\":5430:5434   */\n      0x00\n        /* \"#utility.yul\":5468:5471   */\n      0xc0\n        /* \"#utility.yul\":5457:5466   */\n      dup3\n        /* \"#utility.yul\":5453:5472   */\n      add\n        /* \"#utility.yul\":5445:5472   */\n      swap1\n      pop\n        /* \"#utility.yul\":5482:5553   */\n      tag_669\n        /* \"#utility.yul\":5550:5551   */\n      0x00\n        /* \"#utility.yul\":5539:5548   */\n      dup4\n        /* \"#utility.yul\":5535:5552   */\n      add\n        /* \"#utility.yul\":5526:5532   */\n      dup10\n        /* \"#utility.yul\":5482:5553   */\n      tag_534\n      jump\t// in\n    tag_669:\n        /* \"#utility.yul\":5563:5635   */\n      tag_670\n        /* \"#utility.yul\":5631:5633   */\n      0x20\n        /* \"#utility.yul\":5620:5629   */\n      dup4\n        /* \"#utility.yul\":5616:5634   */\n      add\n        /* \"#utility.yul\":5607:5613   */\n      dup9\n        /* \"#utility.yul\":5563:5635   */\n      tag_534\n      jump\t// in\n    tag_670:\n        /* \"#utility.yul\":5645:5724   */\n      tag_671\n        /* \"#utility.yul\":5720:5722   */\n      0x40\n        /* \"#utility.yul\":5709:5718   */\n      dup4\n        /* \"#utility.yul\":5705:5723   */\n      add\n        /* \"#utility.yul\":5696:5702   */\n      dup8\n        /* \"#utility.yul\":5645:5724   */\n      tag_538\n      jump\t// in\n    tag_671:\n        /* \"#utility.yul\":5771:5780   */\n      dup2\n        /* \"#utility.yul\":5765:5769   */\n      dup2\n        /* \"#utility.yul\":5761:5781   */\n      sub\n        /* \"#utility.yul\":5756:5758   */\n      0x60\n        /* \"#utility.yul\":5745:5754   */\n      dup4\n        /* \"#utility.yul\":5741:5759   */\n      add\n        /* \"#utility.yul\":5734:5782   */\n      mstore\n        /* \"#utility.yul\":5799:5877   */\n      tag_672\n        /* \"#utility.yul\":5872:5876   */\n      dup2\n        /* \"#utility.yul\":5863:5869   */\n      dup7\n        /* \"#utility.yul\":5799:5877   */\n      tag_543\n      jump\t// in\n    tag_672:\n        /* \"#utility.yul\":5791:5877   */\n      swap1\n      pop\n        /* \"#utility.yul\":5887:5960   */\n      tag_673\n        /* \"#utility.yul\":5955:5958   */\n      0x80\n        /* \"#utility.yul\":5944:5953   */\n      dup4\n        /* \"#utility.yul\":5940:5959   */\n      add\n        /* \"#utility.yul\":5931:5937   */\n      dup6\n        /* \"#utility.yul\":5887:5960   */\n      tag_544\n      jump\t// in\n    tag_673:\n        /* \"#utility.yul\":5970:6043   */\n      tag_674\n        /* \"#utility.yul\":6038:6041   */\n      0xa0\n        /* \"#utility.yul\":6027:6036   */\n      dup4\n        /* \"#utility.yul\":6023:6042   */\n      add\n        /* \"#utility.yul\":6014:6020   */\n      dup5\n        /* \"#utility.yul\":5970:6043   */\n      tag_544\n      jump\t// in\n    tag_674:\n        /* \"#utility.yul\":5170:6050   */\n      swap8\n      swap7\n      pop\n      pop\n      pop\n      pop\n      pop\n      pop\n      pop\n      jump\t// out\n        /* \"#utility.yul\":6056:6178   */\n    tag_545:\n        /* \"#utility.yul\":6129:6153   */\n      tag_676\n        /* \"#utility.yul\":6147:6152   */\n      dup2\n        /* \"#utility.yul\":6129:6153   */\n      tag_533\n      jump\t// in\n    tag_676:\n        /* \"#utility.yul\":6122:6127   */\n      dup2\n        /* \"#utility.yul\":6119:6154   */\n      eq\n        /* \"#utility.yul\":6109:6172   */\n      tag_677\n      jumpi\n        /* \"#utility.yul\":6168:6169   */\n      0x00\n        /* \"#utility.yul\":6165:6166   */\n      dup1\n        /* \"#utility.yul\":6158:6170   */\n      revert\n        /* \"#utility.yul\":6109:6172   */\n    tag_677:\n        /* \"#utility.yul\":6056:6178   */\n      pop\n      jump\t// out\n        /* \"#utility.yul\":6184:6323   */\n    tag_546:\n        /* \"#utility.yul\":6230:6235   */\n      0x00\n        /* \"#utility.yul\":6268:6274   */\n      dup2\n        /* \"#utility.yul\":6255:6275   */\n      calldataload\n        /* \"#utility.yul\":6246:6275   */\n      swap1\n      pop\n        /* \"#utility.yul\":6284:6317   */\n      tag_679\n        /* \"#utility.yul\":6311:6316   */\n      dup2\n        /* \"#utility.yul\":6284:6317   */\n      tag_545\n      jump\t// in\n    tag_679:\n        /* \"#utility.yul\":6184:6323   */\n      swap3\n      swap2\n      pop\n      pop\n      jump\t// out\n        /* \"#utility.yul\":6329:6803   */\n    tag_46:\n        /* \"#utility.yul\":6397:6403   */\n      0x00\n        /* \"#utility.yul\":6405:6411   */\n      dup1\n        /* \"#utility.yul\":6454:6456   */\n      0x40\n        /* \"#utility.yul\":6442:6451   */\n      dup4\n        /* \"#utility.yul\":6433:6440   */\n      dup6\n        /* \"#utility.yul\":6429:6452   */\n      sub\n        /* \"#utility.yul\":6425:6457   */\n      slt\n        /* \"#utility.yul\":6422:6541   */\n      iszero\n      tag_681\n      jumpi\n        /* \"#utility.yul\":6460:6539   */\n      tag_682\n      tag_523\n      jump\t// in\n    tag_682:\n        /* \"#utility.yul\":6422:6541   */\n    tag_681:\n        /* \"#utility.yul\":6580:6581   */\n      0x00\n        /* \"#utility.yul\":6605:6658   */\n      tag_683\n        /* \"#utility.yul\":6650:6657   */\n      dup6\n        /* \"#utility.yul\":6641:6647   */\n      dup3\n        /* \"#utility.yul\":6630:6639   */\n      dup7\n        /* \"#utility.yul\":6626:6648   */\n      add\n        /* \"#utility.yul\":6605:6658   */\n      tag_546\n      jump\t// in\n    tag_683:\n        /* \"#utility.yul\":6595:6658   */\n      swap3\n      pop\n        /* \"#utility.yul\":6551:6668   */\n      pop\n        /* \"#utility.yul\":6707:6709   */\n      0x20\n        /* \"#utility.yul\":6733:6786   */\n      tag_684\n        /* \"#utility.yul\":6778:6785   */\n      dup6\n        /* \"#utility.yul\":6769:6775   */\n      dup3\n        /* \"#utility.yul\":6758:6767   */\n      dup7\n        /* \"#utility.yul\":6754:6776   */\n      add\n        /* \"#utility.yul\":6733:6786   */\n      tag_527\n      jump\t// in\n    tag_684:\n        /* \"#utility.yul\":6723:6786   */\n      swap2\n      pop\n        /* \"#utility.yul\":6678:6796   */\n      pop\n        /* \"#utility.yul\":6329:6803   */\n      swap3\n      pop\n      swap3\n      swap1\n      pop\n      jump\t// out\n        /* \"#utility.yul\":6809:7564   */\n    tag_49:\n        /* \"#utility.yul\":7034:7038   */\n      0x00\n        /* \"#utility.yul\":7072:7075   */\n      0xa0\n        /* \"#utility.yul\":7061:7070   */\n      dup3\n        /* \"#utility.yul\":7057:7076   */\n      add\n        /* \"#utility.yul\":7049:7076   */\n      swap1\n      pop\n        /* \"#utility.yul\":7086:7157   */\n      tag_686\n        /* \"#utility.yul\":7154:7155   */\n      0x00\n        /* \"#utility.yul\":7143:7152   */\n      dup4\n        /* \"#utility.yul\":7139:7156   */\n      add\n        /* \"#utility.yul\":7130:7136   */\n      dup9\n        /* \"#utility.yul\":7086:7157   */\n      tag_534\n      jump\t// in\n    tag_686:\n        /* \"#utility.yul\":7167:7239   */\n      tag_687\n        /* \"#utility.yul\":7235:7237   */\n      0x20\n        /* \"#utility.yul\":7224:7233   */\n      dup4\n        /* \"#utility.yul\":7220:7238   */\n      add\n        /* \"#utility.yul\":7211:7217   */\n      dup8\n        /* \"#utility.yul\":7167:7239   */\n      tag_544\n      jump\t// in\n    tag_687:\n        /* \"#utility.yul\":7249:7321   */\n      tag_688\n        /* \"#utility.yul\":7317:7319   */\n      0x40\n        /* \"#utility.yul\":7306:7315   */\n      dup4\n        /* \"#utility.yul\":7302:7320   */\n      add\n        /* \"#utility.yul\":7293:7299   */\n      dup7\n        /* \"#utility.yul\":7249:7321   */\n      tag_544\n      jump\t// in\n    tag_688:\n        /* \"#utility.yul\":7368:7377   */\n      dup2\n        /* \"#utility.yul\":7362:7366   */\n      dup2\n        /* \"#utility.yul\":7358:7378   */\n      sub\n        /* \"#utility.yul\":7353:7355   */\n      0x60\n        /* \"#utility.yul\":7342:7351   */\n      dup4\n        /* \"#utility.yul\":7338:7356   */\n      add\n        /* \"#utility.yul\":7331:7379   */\n      mstore\n        /* \"#utility.yul\":7396:7474   */\n      tag_689\n        /* \"#utility.yul\":7469:7473   */\n      dup2\n        /* \"#utility.yul\":7460:7466   */\n      dup6\n        /* \"#utility.yul\":7396:7474   */\n      tag_543\n      jump\t// in\n    tag_689:\n        /* \"#utility.yul\":7388:7474   */\n      swap1\n      pop\n        /* \"#utility.yul\":7484:7557   */\n      tag_690\n        /* \"#utility.yul\":7552:7555   */\n      0x80\n        /* \"#utility.yul\":7541:7550   */\n      dup4\n        /* \"#utility.yul\":7537:7556   */\n      add\n        /* \"#utility.yul\":7528:7534   */\n      dup5\n        /* \"#utility.yul\":7484:7557   */\n      tag_544\n      jump\t// in\n    tag_690:\n        /* \"#utility.yul\":6809:7564   */\n      swap7\n      swap6\n      pop\n      pop\n      pop\n      pop\n      pop\n      pop\n      jump\t// out\n        /* \"#utility.yul\":7570:7681   */\n    tag_547:\n        /* \"#utility.yul\":7649:7650   */\n      0x03\n        /* \"#utility.yul\":7642:7647   */\n      dup2\n        /* \"#utility.yul\":7639:7651   */\n      lt\n        /* \"#utility.yul\":7629:7675   */\n      tag_692\n      jumpi\n        /* \"#utility.yul\":7655:7673   */\n      tag_693\n      tag_155\n      jump\t// in\n    tag_693:\n        /* \"#utility.yul\":7629:7675   */\n    tag_692:\n        /* \"#utility.yul\":7570:7681   */\n      pop\n      jump\t// out\n        /* \"#utility.yul\":7687:7810   */\n    tag_548:\n        /* \"#utility.yul\":7730:7737   */\n      0x00\n        /* \"#utility.yul\":7759:7764   */\n      dup2\n        /* \"#utility.yul\":7748:7764   */\n      swap1\n      pop\n        /* \"#utility.yul\":7765:7804   */\n      tag_695\n        /* \"#utility.yul\":7798:7803   */\n      dup3\n        /* \"#utility.yul\":7765:7804   */\n      tag_547\n      jump\t// in\n    tag_695:\n        /* \"#utility.yul\":7687:7810   */\n      swap2\n      swap1\n      pop\n      jump\t// out\n        /* \"#utility.yul\":7816:7939   */\n    tag_549:\n        /* \"#utility.yul\":7870:7879   */\n      0x00\n        /* \"#utility.yul\":7903:7933   */\n      tag_697\n        /* \"#utility.yul\":7927:7932   */\n      dup3\n        /* \"#utility.yul\":7903:7933   */\n      tag_548\n      jump\t// in\n    tag_697:\n        /* \"#utility.yul\":7890:7933   */\n      swap1\n      pop\n        /* \"#utility.yul\":7816:7939   */\n      swap2\n      swap1\n      pop\n      jump\t// out\n        /* \"#utility.yul\":7945:8084   */\n    tag_550:\n        /* \"#utility.yul\":8036:8077   */\n      tag_699\n        /* \"#utility.yul\":8071:8076   */\n      dup2\n        /* \"#utility.yul\":8036:8077   */\n      tag_549\n      jump\t// in\n    tag_699:\n        /* \"#utility.yul\":8031:8034   */\n      dup3\n        /* \"#utility.yul\":8024:8078   */\n      mstore\n        /* \"#utility.yul\":7945:8084   */\n      pop\n      pop\n      jump\t// out\n        /* \"#utility.yul\":8090:8430   */\n    tag_72:\n        /* \"#utility.yul\":8215:8219   */\n      0x00\n        /* \"#utility.yul\":8253:8255   */\n      0x40\n        /* \"#utility.yul\":8242:8251   */\n      dup3\n        /* \"#utility.yul\":8238:8256   */\n      add\n        /* \"#utility.yul\":8230:8256   */\n      swap1\n      pop\n        /* \"#utility.yul\":8266:8337   */\n      tag_701\n        /* \"#utility.yul\":8334:8335   */\n      0x00\n        /* \"#utility.yul\":8323:8332   */\n      dup4\n        /* \"#utility.yul\":8319:8336   */\n      add\n        /* \"#utility.yul\":8310:8316   */\n      dup6\n        /* \"#utility.yul\":8266:8337   */\n      tag_534\n      jump\t// in\n    tag_701:\n        /* \"#utility.yul\":8347:8423   */\n      tag_702\n        /* \"#utility.yul\":8419:8421   */\n      0x20\n        /* \"#utility.yul\":8408:8417   */\n      dup4\n        /* \"#utility.yul\":8404:8422   */\n      add\n        /* \"#utility.yul\":8395:8401   */\n      dup5\n        /* \"#utility.yul\":8347:8423   */\n      tag_550\n      jump\t// in\n    tag_702:\n        /* \"#utility.yul\":8090:8430   */\n      swap4\n      swap3\n      pop\n      pop\n      pop\n      jump\t// out\n        /* \"#utility.yul\":8436:8541   */\n    tag_551:\n        /* \"#utility.yul\":8515:8516   */\n      0x03\n        /* \"#utility.yul\":8508:8513   */\n      dup2\n        /* \"#utility.yul\":8505:8517   */\n      lt\n        /* \"#utility.yul\":8495:8535   */\n      tag_704\n      jumpi\n        /* \"#utility.yul\":8531:8532   */\n      0x00\n        /* \"#utility.yul\":8528:8529   */\n      dup1\n        /* \"#utility.yul\":8521:8533   */\n      revert\n        /* \"#utility.yul\":8495:8535   */\n    tag_704:\n        /* \"#utility.yul\":8436:8541   */\n      pop\n      jump\t// out\n        /* \"#utility.yul\":8547:8698   */\n    tag_552:\n        /* \"#utility.yul\":8599:8604   */\n      0x00\n        /* \"#utility.yul\":8637:8643   */\n      dup2\n        /* \"#utility.yul\":8624:8644   */\n      calldataload\n        /* \"#utility.yul\":8615:8644   */\n      swap1\n      pop\n        /* \"#utility.yul\":8653:8692   */\n      tag_706\n        /* \"#utility.yul\":8686:8691   */\n      dup2\n        /* \"#utility.yul\":8653:8692   */\n      tag_551\n      jump\t// in\n    tag_706:\n        /* \"#utility.yul\":8547:8698   */\n      swap3\n      swap2\n      pop\n      pop\n      jump\t// out\n        /* \"#utility.yul\":8704:9045   */\n    tag_76:\n        /* \"#utility.yul\":8769:8775   */\n      0x00\n        /* \"#utility.yul\":8818:8820   */\n      0x20\n        /* \"#utility.yul\":8806:8815   */\n      dup3\n        /* \"#utility.yul\":8797:8804   */\n      dup5\n        /* \"#utility.yul\":8793:8816   */\n      sub\n        /* \"#utility.yul\":8789:8821   */\n      slt\n        /* \"#utility.yul\":8786:8905   */\n      iszero\n      tag_708\n      jumpi\n        /* \"#utility.yul\":8824:8903   */\n      tag_709\n      tag_523\n      jump\t// in\n    tag_709:\n        /* \"#utility.yul\":8786:8905   */\n    tag_708:\n        /* \"#utility.yul\":8944:8945   */\n      0x00\n        /* \"#utility.yul\":8969:9028   */\n      tag_710\n        /* \"#utility.yul\":9020:9027   */\n      dup5\n        /* \"#utility.yul\":9011:9017   */\n      dup3\n        /* \"#utility.yul\":9000:9009   */\n      dup6\n        /* \"#utility.yul\":8996:9018   */\n      add\n        /* \"#utility.yul\":8969:9028   */\n      tag_552\n      jump\t// in\n    tag_710:\n        /* \"#utility.yul\":8959:9028   */\n      swap2\n      pop\n        /* \"#utility.yul\":8915:9038   */\n      pop\n        /* \"#utility.yul\":8704:9045   */\n      swap3\n      swap2\n      pop\n      pop\n      jump\t// out\n        /* \"#utility.yul\":9051:9168   */\n    tag_553:\n        /* \"#utility.yul\":9160:9161   */\n      0x00\n        /* \"#utility.yul\":9157:9158   */\n      dup1\n        /* \"#utility.yul\":9150:9162   */\n      revert\n        /* \"#utility.yul\":9174:9354   */\n    tag_554:\n        /* \"#utility.yul\":9222:9299   */\n      0x4e487b7100000000000000000000000000000000000000000000000000000000\n        /* \"#utility.yul\":9219:9220   */\n      0x00\n        /* \"#utility.yul\":9212:9300   */\n      mstore\n        /* \"#utility.yul\":9319:9323   */\n      0x41\n        /* \"#utility.yul\":9316:9317   */\n      0x04\n        /* \"#utility.yul\":9309:9324   */\n      mstore\n        /* \"#utility.yul\":9343:9347   */\n      0x24\n        /* \"#utility.yul\":9340:9341   */\n      0x00\n        /* \"#utility.yul\":9333:9348   */\n      revert\n        /* \"#utility.yul\":9360:9641   */\n    tag_555:\n        /* \"#utility.yul\":9443:9470   */\n      tag_714\n        /* \"#utility.yul\":9465:9469   */\n      dup3\n        /* \"#utility.yul\":9443:9470   */\n      tag_542\n      jump\t// in\n    tag_714:\n        /* \"#utility.yul\":9435:9441   */\n      dup2\n        /* \"#utility.yul\":9431:9471   */\n      add\n        /* \"#utility.yul\":9573:9579   */\n      dup2\n        /* \"#utility.yul\":9561:9571   */\n      dup2\n        /* \"#utility.yul\":9558:9580   */\n      lt\n        /* \"#utility.yul\":9537:9555   */\n      0xffffffffffffffff\n        /* \"#utility.yul\":9525:9535   */\n      dup3\n        /* \"#utility.yul\":9522:9556   */\n      gt\n        /* \"#utility.yul\":9519:9581   */\n      or\n        /* \"#utility.yul\":9516:9604   */\n      iszero\n      tag_715\n      jumpi\n        /* \"#utility.yul\":9584:9602   */\n      tag_716\n      tag_554\n      jump\t// in\n    tag_716:\n        /* \"#utility.yul\":9516:9604   */\n    tag_715:\n        /* \"#utility.yul\":9624:9634   */\n      dup1\n        /* \"#utility.yul\":9620:9622   */\n      0x40\n        /* \"#utility.yul\":9613:9635   */\n      mstore\n        /* \"#utility.yul\":9403:9641   */\n      pop\n        /* \"#utility.yul\":9360:9641   */\n      pop\n      pop\n      jump\t// out\n        /* \"#utility.yul\":9647:9776   */\n    tag_556:\n        /* \"#utility.yul\":9681:9687   */\n      0x00\n        /* \"#utility.yul\":9708:9728   */\n      tag_718\n      tag_522\n      jump\t// in\n    tag_718:\n        /* \"#utility.yul\":9698:9728   */\n      swap1\n      pop\n        /* \"#utility.yul\":9737:9770   */\n      tag_719\n        /* \"#utility.yul\":9765:9769   */\n      dup3\n        /* \"#utility.yul\":9757:9763   */\n      dup3\n        /* \"#utility.yul\":9737:9770   */\n      tag_555\n      jump\t// in\n    tag_719:\n        /* \"#utility.yul\":9647:9776   */\n      swap2\n      swap1\n      pop\n      jump\t// out\n        /* \"#utility.yul\":9782:10090   */\n    tag_557:\n        /* \"#utility.yul\":9844:9848   */\n      0x00\n        /* \"#utility.yul\":9934:9952   */\n      0xffffffffffffffff\n        /* \"#utility.yul\":9926:9932   */\n      dup3\n        /* \"#utility.yul\":9923:9953   */\n      gt\n        /* \"#utility.yul\":9920:9976   */\n      iszero\n      tag_721\n      jumpi\n        /* \"#utility.yul\":9956:9974   */\n      tag_722\n      tag_554\n      jump\t// in\n    tag_722:\n        /* \"#utility.yul\":9920:9976   */\n    tag_721:\n        /* \"#utility.yul\":9994:10023   */\n      tag_723\n        /* \"#utility.yul\":10016:10022   */\n      dup3\n        /* \"#utility.yul\":9994:10023   */\n      tag_542\n      jump\t// in\n    tag_723:\n        /* \"#utility.yul\":9986:10023   */\n      swap1\n      pop\n        /* \"#utility.yul\":10078:10082   */\n      0x20\n        /* \"#utility.yul\":10072:10076   */\n      dup2\n        /* \"#utility.yul\":10068:10083   */\n      add\n        /* \"#utility.yul\":10060:10083   */\n      swap1\n      pop\n        /* \"#utility.yul\":9782:10090   */\n      swap2\n      swap1\n      pop\n      jump\t// out\n        /* \"#utility.yul\":10096:10242   */\n    tag_558:\n        /* \"#utility.yul\":10193:10199   */\n      dup3\n        /* \"#utility.yul\":10188:10191   */\n      dup2\n        /* \"#utility.yul\":10183:10186   */\n      dup4\n        /* \"#utility.yul\":10170:10200   */\n      calldatacopy\n        /* \"#utility.yul\":10234:10235   */\n      0x00\n        /* \"#utility.yul\":10225:10231   */\n      dup4\n        /* \"#utility.yul\":10220:10223   */\n      dup4\n        /* \"#utility.yul\":10216:10232   */\n      add\n        /* \"#utility.yul\":10209:10236   */\n      mstore\n        /* \"#utility.yul\":10096:10242   */\n      pop\n      pop\n      pop\n      jump\t// out\n        /* \"#utility.yul\":10248:10673   */\n    tag_559:\n        /* \"#utility.yul\":10326:10331   */\n      0x00\n        /* \"#utility.yul\":10351:10417   */\n      tag_726\n        /* \"#utility.yul\":10367:10416   */\n      tag_727\n        /* \"#utility.yul\":10409:10415   */\n      dup5\n        /* \"#utility.yul\":10367:10416   */\n      tag_557\n      jump\t// in\n    tag_727:\n        /* \"#utility.yul\":10351:10417   */\n      tag_556\n      jump\t// in\n    tag_726:\n        /* \"#utility.yul\":10342:10417   */\n      swap1\n      pop\n        /* \"#utility.yul\":10440:10446   */\n      dup3\n        /* \"#utility.yul\":10433:10438   */\n      dup2\n        /* \"#utility.yul\":10426:10447   */\n      mstore\n        /* \"#utility.yul\":10478:10482   */\n      0x20\n        /* \"#utility.yul\":10471:10476   */\n      dup2\n        /* \"#utility.yul\":10467:10483   */\n      add\n        /* \"#utility.yul\":10516:10519   */\n      dup5\n        /* \"#utility.yul\":10507:10513   */\n      dup5\n        /* \"#utility.yul\":10502:10505   */\n      dup5\n        /* \"#utility.yul\":10498:10514   */\n      add\n        /* \"#utility.yul\":10495:10520   */\n      gt\n        /* \"#utility.yul\":10492:10604   */\n      iszero\n      tag_728\n      jumpi\n        /* \"#utility.yul\":10523:10602   */\n      tag_729\n      tag_553\n      jump\t// in\n    tag_729:\n        /* \"#utility.yul\":10492:10604   */\n    tag_728:\n        /* \"#utility.yul\":10613:10667   */\n      tag_730\n        /* \"#utility.yul\":10660:10666   */\n      dup5\n        /* \"#utility.yul\":10655:10658   */\n      dup3\n        /* \"#utility.yul\":10650:10653   */\n      dup6\n        /* \"#utility.yul\":10613:10667   */\n      tag_558\n      jump\t// in\n    tag_730:\n        /* \"#utility.yul\":10332:10673   */\n      pop\n        /* \"#utility.yul\":10248:10673   */\n      swap4\n      swap3\n      pop\n      pop\n      pop\n      jump\t// out\n        /* \"#utility.yul\":10693:11033   */\n    tag_560:\n        /* \"#utility.yul\":10749:10754   */\n      0x00\n        /* \"#utility.yul\":10798:10801   */\n      dup3\n        /* \"#utility.yul\":10791:10795   */\n      0x1f\n        /* \"#utility.yul\":10783:10789   */\n      dup4\n        /* \"#utility.yul\":10779:10796   */\n      add\n        /* \"#utility.yul\":10775:10802   */\n      slt\n        /* \"#utility.yul\":10765:10887   */\n      tag_732\n      jumpi\n        /* \"#utility.yul\":10806:10885   */\n      tag_733\n      tag_528\n      jump\t// in\n    tag_733:\n        /* \"#utility.yul\":10765:10887   */\n    tag_732:\n        /* \"#utility.yul\":10923:10929   */\n      dup2\n        /* \"#utility.yul\":10910:10930   */\n      calldataload\n        /* \"#utility.yul\":10948:11027   */\n      tag_734\n        /* \"#utility.yul\":11023:11026   */\n      dup5\n        /* \"#utility.yul\":11015:11021   */\n      dup3\n        /* \"#utility.yul\":11008:11012   */\n      0x20\n        /* \"#utility.yul\":11000:11006   */\n      dup7\n        /* \"#utility.yul\":10996:11013   */\n      add\n        /* \"#utility.yul\":10948:11027   */\n      tag_559\n      jump\t// in\n    tag_734:\n        /* \"#utility.yul\":10939:11027   */\n      swap2\n      pop\n        /* \"#utility.yul\":10755:11033   */\n      pop\n        /* \"#utility.yul\":10693:11033   */\n      swap3\n      swap2\n      pop\n      pop\n      jump\t// out\n        /* \"#utility.yul\":11039:11548   */\n    tag_81:\n        /* \"#utility.yul\":11108:11114   */\n      0x00\n        /* \"#utility.yul\":11157:11159   */\n      0x20\n        /* \"#utility.yul\":11145:11154   */\n      dup3\n        /* \"#utility.yul\":11136:11143   */\n      dup5\n        /* \"#utility.yul\":11132:11155   */\n      sub\n        /* \"#utility.yul\":11128:11160   */\n      slt\n        /* \"#utility.yul\":11125:11244   */\n      iszero\n      tag_736\n      jumpi\n        /* \"#utility.yul\":11163:11242   */\n      tag_737\n      tag_523\n      jump\t// in\n    tag_737:\n        /* \"#utility.yul\":11125:11244   */\n    tag_736:\n        /* \"#utility.yul\":11311:11312   */\n      0x00\n        /* \"#utility.yul\":11300:11309   */\n      dup3\n        /* \"#utility.yul\":11296:11313   */\n      add\n        /* \"#utility.yul\":11283:11314   */\n      calldataload\n        /* \"#utility.yul\":11341:11359   */\n      0xffffffffffffffff\n        /* \"#utility.yul\":11333:11339   */\n      dup2\n        /* \"#utility.yul\":11330:11360   */\n      gt\n        /* \"#utility.yul\":11327:11444   */\n      iszero\n      tag_738\n      jumpi\n        /* \"#utility.yul\":11363:11442   */\n      tag_739\n      tag_524\n      jump\t// in\n    tag_739:\n        /* \"#utility.yul\":11327:11444   */\n    tag_738:\n        /* \"#utility.yul\":11468:11531   */\n      tag_740\n        /* \"#utility.yul\":11523:11530   */\n      dup5\n        /* \"#utility.yul\":11514:11520   */\n      dup3\n        /* \"#utility.yul\":11503:11512   */\n      dup6\n        /* \"#utility.yul\":11499:11521   */\n      add\n        /* \"#utility.yul\":11468:11531   */\n      tag_560\n      jump\t// in\n    tag_740:\n        /* \"#utility.yul\":11458:11531   */\n      swap2\n      pop\n        /* \"#utility.yul\":11254:11541   */\n      pop\n        /* \"#utility.yul\":11039:11548   */\n      swap3\n      swap2\n      pop\n      pop\n      jump\t// out\n        /* \"#utility.yul\":11554:11867   */\n    tag_84:\n        /* \"#utility.yul\":11667:11671   */\n      0x00\n        /* \"#utility.yul\":11705:11707   */\n      0x20\n        /* \"#utility.yul\":11694:11703   */\n      dup3\n        /* \"#utility.yul\":11690:11708   */\n      add\n        /* \"#utility.yul\":11682:11708   */\n      swap1\n      pop\n        /* \"#utility.yul\":11754:11763   */\n      dup2\n        /* \"#utility.yul\":11748:11752   */\n      dup2\n        /* \"#utility.yul\":11744:11764   */\n      sub\n        /* \"#utility.yul\":11740:11741   */\n      0x00\n        /* \"#utility.yul\":11729:11738   */\n      dup4\n        /* \"#utility.yul\":11725:11742   */\n      add\n        /* \"#utility.yul\":11718:11765   */\n      mstore\n        /* \"#utility.yul\":11782:11860   */\n      tag_742\n        /* \"#utility.yul\":11855:11859   */\n      dup2\n        /* \"#utility.yul\":11846:11852   */\n      dup5\n        /* \"#utility.yul\":11782:11860   */\n      tag_543\n      jump\t// in\n    tag_742:\n        /* \"#utility.yul\":11774:11860   */\n      swap1\n      pop\n        /* \"#utility.yul\":11554:11867   */\n      swap3\n      swap2\n      pop\n      pop\n      jump\t// out\n        /* \"#utility.yul\":11873:12492   */\n    tag_95:\n        /* \"#utility.yul\":11950:11956   */\n      0x00\n        /* \"#utility.yul\":11958:11964   */\n      dup1\n        /* \"#utility.yul\":11966:11972   */\n      0x00\n        /* \"#utility.yul\":12015:12017   */\n      0x60\n        /* \"#utility.yul\":12003:12012   */\n      dup5\n        /* \"#utility.yul\":11994:12001   */\n      dup7\n        /* \"#utility.yul\":11990:12013   */\n      sub\n        /* \"#utility.yul\":11986:12018   */\n      slt\n        /* \"#utility.yul\":11983:12102   */\n      iszero\n      tag_744\n      jumpi\n        /* \"#utility.yul\":12021:12100   */\n      tag_745\n      tag_523\n      jump\t// in\n    tag_745:\n        /* \"#utility.yul\":11983:12102   */\n    tag_744:\n        /* \"#utility.yul\":12141:12142   */\n      0x00\n        /* \"#utility.yul\":12166:12219   */\n      tag_746\n        /* \"#utility.yul\":12211:12218   */\n      dup7\n        /* \"#utility.yul\":12202:12208   */\n      dup3\n        /* \"#utility.yul\":12191:12200   */\n      dup8\n        /* \"#utility.yul\":12187:12209   */\n      add\n        /* \"#utility.yul\":12166:12219   */\n      tag_546\n      jump\t// in\n    tag_746:\n        /* \"#utility.yul\":12156:12219   */\n      swap4\n      pop\n        /* \"#utility.yul\":12112:12229   */\n      pop\n        /* \"#utility.yul\":12268:12270   */\n      0x20\n        /* \"#utility.yul\":12294:12347   */\n      tag_747\n        /* \"#utility.yul\":12339:12346   */\n      dup7\n        /* \"#utility.yul\":12330:12336   */\n      dup3\n        /* \"#utility.yul\":12319:12328   */\n      dup8\n        /* \"#utility.yul\":12315:12337   */\n      add\n        /* \"#utility.yul\":12294:12347   */\n      tag_527\n      jump\t// in\n    tag_747:\n        /* \"#utility.yul\":12284:12347   */\n      swap3\n      pop\n        /* \"#utility.yul\":12239:12357   */\n      pop\n        /* \"#utility.yul\":12396:12398   */\n      0x40\n        /* \"#utility.yul\":12422:12475   */\n      tag_748\n        /* \"#utility.yul\":12467:12474   */\n      dup7\n        /* \"#utility.yul\":12458:12464   */\n      dup3\n        /* \"#utility.yul\":12447:12456   */\n      dup8\n        /* \"#utility.yul\":12443:12465   */\n      add\n        /* \"#utility.yul\":12422:12475   */\n      tag_527\n      jump\t// in\n    tag_748:\n        /* \"#utility.yul\":12412:12475   */\n      swap2\n      pop\n        /* \"#utility.yul\":12367:12485   */\n      pop\n        /* \"#utility.yul\":11873:12492   */\n      swap3\n      pop\n      swap3\n      pop\n      swap3\n      jump\t// out\n        /* \"#utility.yul\":12498:12588   */\n    tag_561:\n        /* \"#utility.yul\":12532:12539   */\n      0x00\n        /* \"#utility.yul\":12575:12580   */\n      dup2\n        /* \"#utility.yul\":12568:12581   */\n      iszero\n        /* \"#utility.yul\":12561:12582   */\n      iszero\n        /* \"#utility.yul\":12550:12582   */\n      swap1\n      pop\n        /* \"#utility.yul\":12498:12588   */\n      swap2\n      swap1\n      pop\n      jump\t// out\n        /* \"#utility.yul\":12594:12710   */\n    tag_562:\n        /* \"#utility.yul\":12664:12685   */\n      tag_751\n        /* \"#utility.yul\":12679:12684   */\n      dup2\n        /* \"#utility.yul\":12664:12685   */\n      tag_561\n      jump\t// in\n    tag_751:\n        /* \"#utility.yul\":12657:12662   */\n      dup2\n        /* \"#utility.yul\":12654:12686   */\n      eq\n        /* \"#utility.yul\":12644:12704   */\n      tag_752\n      jumpi\n        /* \"#utility.yul\":12700:12701   */\n      0x00\n        /* \"#utility.yul\":12697:12698   */\n      dup1\n        /* \"#utility.yul\":12690:12702   */\n      revert\n        /* \"#utility.yul\":12644:12704   */\n    tag_752:\n        /* \"#utility.yul\":12594:12710   */\n      pop\n      jump\t// out\n        /* \"#utility.yul\":12716:12849   */\n    tag_563:\n        /* \"#utility.yul\":12759:12764   */\n      0x00\n        /* \"#utility.yul\":12797:12803   */\n      dup2\n        /* \"#utility.yul\":12784:12804   */\n      calldataload\n        /* \"#utility.yul\":12775:12804   */\n      swap1\n      pop\n        /* \"#utility.yul\":12813:12843   */\n      tag_754\n        /* \"#utility.yul\":12837:12842   */\n      dup2\n        /* \"#utility.yul\":12813:12843   */\n      tag_562\n      jump\t// in\n    tag_754:\n        /* \"#utility.yul\":12716:12849   */\n      swap3\n      swap2\n      pop\n      pop\n      jump\t// out\n        /* \"#utility.yul\":12855:13323   */\n    tag_100:\n        /* \"#utility.yul\":12920:12926   */\n      0x00\n        /* \"#utility.yul\":12928:12934   */\n      dup1\n        /* \"#utility.yul\":12977:12979   */\n      0x40\n        /* \"#utility.yul\":12965:12974   */\n      dup4\n        /* \"#utility.yul\":12956:12963   */\n      dup6\n        /* \"#utility.yul\":12952:12975   */\n      sub\n        /* \"#utility.yul\":12948:12980   */\n      slt\n        /* \"#utility.yul\":12945:13064   */\n      iszero\n      tag_756\n      jumpi\n        /* \"#utility.yul\":12983:13062   */\n      tag_757\n      tag_523\n      jump\t// in\n    tag_757:\n        /* \"#utility.yul\":12945:13064   */\n    tag_756:\n        /* \"#utility.yul\":13103:13104   */\n      0x00\n        /* \"#utility.yul\":13128:13178   */\n      tag_758\n        /* \"#utility.yul\":13170:13177   */\n      dup6\n        /* \"#utility.yul\":13161:13167   */\n      dup3\n        /* \"#utility.yul\":13150:13159   */\n      dup7\n        /* \"#utility.yul\":13146:13168   */\n      add\n        /* \"#utility.yul\":13128:13178   */\n      tag_563\n      jump\t// in\n    tag_758:\n        /* \"#utility.yul\":13118:13178   */\n      swap3\n      pop\n        /* \"#utility.yul\":13074:13188   */\n      pop\n        /* \"#utility.yul\":13227:13229   */\n      0x20\n        /* \"#utility.yul\":13253:13306   */\n      tag_759\n        /* \"#utility.yul\":13298:13305   */\n      dup6\n        /* \"#utility.yul\":13289:13295   */\n      dup3\n        /* \"#utility.yul\":13278:13287   */\n      dup7\n        /* \"#utility.yul\":13274:13296   */\n      add\n        /* \"#utility.yul\":13253:13306   */\n      tag_527\n      jump\t// in\n    tag_759:\n        /* \"#utility.yul\":13243:13306   */\n      swap2\n      pop\n        /* \"#utility.yul\":13198:13316   */\n      pop\n        /* \"#utility.yul\":12855:13323   */\n      swap3\n      pop\n      swap3\n      swap1\n      pop\n      jump\t// out\n        /* \"#utility.yul\":13329:13551   */\n    tag_107:\n        /* \"#utility.yul\":13422:13426   */\n      0x00\n        /* \"#utility.yul\":13460:13462   */\n      0x20\n        /* \"#utility.yul\":13449:13458   */\n      dup3\n        /* \"#utility.yul\":13445:13463   */\n      add\n        /* \"#utility.yul\":13437:13463   */\n      swap1\n      pop\n        /* \"#utility.yul\":13473:13544   */\n      tag_761\n        /* \"#utility.yul\":13541:13542   */\n      0x00\n        /* \"#utility.yul\":13530:13539   */\n      dup4\n        /* \"#utility.yul\":13526:13543   */\n      add\n        /* \"#utility.yul\":13517:13523   */\n      dup5\n        /* \"#utility.yul\":13473:13544   */\n      tag_544\n      jump\t// in\n    tag_761:\n        /* \"#utility.yul\":13329:13551   */\n      swap3\n      swap2\n      pop\n      pop\n      jump\t// out\n        /* \"#utility.yul\":13557:14668   */\n    tag_111:\n        /* \"#utility.yul\":13664:13670   */\n      0x00\n        /* \"#utility.yul\":13672:13678   */\n      dup1\n        /* \"#utility.yul\":13680:13686   */\n      0x00\n        /* \"#utility.yul\":13688:13694   */\n      dup1\n        /* \"#utility.yul\":13696:13702   */\n      0x00\n        /* \"#utility.yul\":13704:13710   */\n      dup1\n        /* \"#utility.yul\":13753:13756   */\n      0xa0\n        /* \"#utility.yul\":13741:13750   */\n      dup8\n        /* \"#utility.yul\":13732:13739   */\n      dup10\n        /* \"#utility.yul\":13728:13751   */\n      sub\n        /* \"#utility.yul\":13724:13757   */\n      slt\n        /* \"#utility.yul\":13721:13841   */\n      iszero\n      tag_763\n      jumpi\n        /* \"#utility.yul\":13760:13839   */\n      tag_764\n      tag_523\n      jump\t// in\n    tag_764:\n        /* \"#utility.yul\":13721:13841   */\n    tag_763:\n        /* \"#utility.yul\":13880:13881   */\n      0x00\n        /* \"#utility.yul\":13905:13958   */\n      tag_765\n        /* \"#utility.yul\":13950:13957   */\n      dup10\n        /* \"#utility.yul\":13941:13947   */\n      dup3\n        /* \"#utility.yul\":13930:13939   */\n      dup11\n        /* \"#utility.yul\":13926:13948   */\n      add\n        /* \"#utility.yul\":13905:13958   */\n      tag_527\n      jump\t// in\n    tag_765:\n        /* \"#utility.yul\":13895:13958   */\n      swap7\n      pop\n        /* \"#utility.yul\":13851:13968   */\n      pop\n        /* \"#utility.yul\":14007:14009   */\n      0x20\n        /* \"#utility.yul\":14033:14086   */\n      tag_766\n        /* \"#utility.yul\":14078:14085   */\n      dup10\n        /* \"#utility.yul\":14069:14075   */\n      dup3\n        /* \"#utility.yul\":14058:14067   */\n      dup11\n        /* \"#utility.yul\":14054:14076   */\n      add\n        /* \"#utility.yul\":14033:14086   */\n      tag_527\n      jump\t// in\n    tag_766:\n        /* \"#utility.yul\":14023:14086   */\n      swap6\n      pop\n        /* \"#utility.yul\":13978:14096   */\n      pop\n        /* \"#utility.yul\":14163:14165   */\n      0x40\n        /* \"#utility.yul\":14152:14161   */\n      dup8\n        /* \"#utility.yul\":14148:14166   */\n      add\n        /* \"#utility.yul\":14135:14167   */\n      calldataload\n        /* \"#utility.yul\":14194:14212   */\n      0xffffffffffffffff\n        /* \"#utility.yul\":14186:14192   */\n      dup2\n        /* \"#utility.yul\":14183:14213   */\n      gt\n        /* \"#utility.yul\":14180:14297   */\n      iszero\n      tag_767\n      jumpi\n        /* \"#utility.yul\":14216:14295   */\n      tag_768\n      tag_524\n      jump\t// in\n    tag_768:\n        /* \"#utility.yul\":14180:14297   */\n    tag_767:\n        /* \"#utility.yul\":14329:14394   */\n      tag_769\n        /* \"#utility.yul\":14386:14393   */\n      dup10\n        /* \"#utility.yul\":14377:14383   */\n      dup3\n        /* \"#utility.yul\":14366:14375   */\n      dup11\n        /* \"#utility.yul\":14362:14384   */\n      add\n        /* \"#utility.yul\":14329:14394   */\n      tag_531\n      jump\t// in\n    tag_769:\n        /* \"#utility.yul\":14311:14394   */\n      swap5\n      pop\n      swap5\n      pop\n        /* \"#utility.yul\":14106:14404   */\n      pop\n        /* \"#utility.yul\":14443:14445   */\n      0x60\n        /* \"#utility.yul\":14469:14522   */\n      tag_770\n        /* \"#utility.yul\":14514:14521   */\n      dup10\n        /* \"#utility.yul\":14505:14511   */\n      dup3\n        /* \"#utility.yul\":14494:14503   */\n      dup11\n        /* \"#utility.yul\":14490:14512   */\n      add\n        /* \"#utility.yul\":14469:14522   */\n      tag_527\n      jump\t// in\n    tag_770:\n        /* \"#utility.yul\":14459:14522   */\n      swap3\n      pop\n        /* \"#utility.yul\":14414:14532   */\n      pop\n        /* \"#utility.yul\":14571:14574   */\n      0x80\n        /* \"#utility.yul\":14598:14651   */\n      tag_771\n        /* \"#utility.yul\":14643:14650   */\n      dup10\n        /* \"#utility.yul\":14634:14640   */\n      dup3\n        /* \"#utility.yul\":14623:14632   */\n      dup11\n        /* \"#utility.yul\":14619:14641   */\n      add\n        /* \"#utility.yul\":14598:14651   */\n      tag_546\n      jump\t// in\n    tag_771:\n        /* \"#utility.yul\":14588:14651   */\n      swap2\n      pop\n        /* \"#utility.yul\":14542:14661   */\n      pop\n        /* \"#utility.yul\":13557:14668   */\n      swap3\n      swap6\n      pop\n      swap3\n      swap6\n      pop\n      swap3\n      swap6\n      jump\t// out\n        /* \"#utility.yul\":14674:14896   */\n    tag_117:\n        /* \"#utility.yul\":14767:14771   */\n      0x00\n        /* \"#utility.yul\":14805:14807   */\n      0x20\n        /* \"#utility.yul\":14794:14803   */\n      dup3\n        /* \"#utility.yul\":14790:14808   */\n      add\n        /* \"#utility.yul\":14782:14808   */\n      swap1\n      pop\n        /* \"#utility.yul\":14818:14889   */\n      tag_773\n        /* \"#utility.yul\":14886:14887   */\n      0x00\n        /* \"#utility.yul\":14875:14884   */\n      dup4\n        /* \"#utility.yul\":14871:14888   */\n      add\n        /* \"#utility.yul\":14862:14868   */\n      dup5\n        /* \"#utility.yul\":14818:14889   */\n      tag_534\n      jump\t// in\n    tag_773:\n        /* \"#utility.yul\":14674:14896   */\n      swap3\n      swap2\n      pop\n      pop\n      jump\t// out\n        /* \"#utility.yul\":14902:15847   */\n    tag_120:\n        /* \"#utility.yul\":14998:15004   */\n      0x00\n        /* \"#utility.yul\":15006:15012   */\n      dup1\n        /* \"#utility.yul\":15014:15020   */\n      0x00\n        /* \"#utility.yul\":15022:15028   */\n      dup1\n        /* \"#utility.yul\":15071:15074   */\n      0x80\n        /* \"#utility.yul\":15059:15068   */\n      dup6\n        /* \"#utility.yul\":15050:15057   */\n      dup8\n        /* \"#utility.yul\":15046:15069   */\n      sub\n        /* \"#utility.yul\":15042:15075   */\n      slt\n        /* \"#utility.yul\":15039:15159   */\n      iszero\n      tag_775\n      jumpi\n        /* \"#utility.yul\":15078:15157   */\n      tag_776\n      tag_523\n      jump\t// in\n    tag_776:\n        /* \"#utility.yul\":15039:15159   */\n    tag_775:\n        /* \"#utility.yul\":15198:15199   */\n      0x00\n        /* \"#utility.yul\":15223:15276   */\n      tag_777\n        /* \"#utility.yul\":15268:15275   */\n      dup8\n        /* \"#utility.yul\":15259:15265   */\n      dup3\n        /* \"#utility.yul\":15248:15257   */\n      dup9\n        /* \"#utility.yul\":15244:15266   */\n      add\n        /* \"#utility.yul\":15223:15276   */\n      tag_546\n      jump\t// in\n    tag_777:\n        /* \"#utility.yul\":15213:15276   */\n      swap5\n      pop\n        /* \"#utility.yul\":15169:15286   */\n      pop\n        /* \"#utility.yul\":15325:15327   */\n      0x20\n        /* \"#utility.yul\":15351:15404   */\n      tag_778\n        /* \"#utility.yul\":15396:15403   */\n      dup8\n        /* \"#utility.yul\":15387:15393   */\n      dup3\n        /* \"#utility.yul\":15376:15385   */\n      dup9\n        /* \"#utility.yul\":15372:15394   */\n      add\n        /* \"#utility.yul\":15351:15404   */\n      tag_527\n      jump\t// in\n    tag_778:\n        /* \"#utility.yul\":15341:15404   */\n      swap4\n      pop\n        /* \"#utility.yul\":15296:15414   */\n      pop\n        /* \"#utility.yul\":15453:15455   */\n      0x40\n        /* \"#utility.yul\":15479:15532   */\n      tag_779\n        /* \"#utility.yul\":15524:15531   */\n      dup8\n        /* \"#utility.yul\":15515:15521   */\n      dup3\n        /* \"#utility.yul\":15504:15513   */\n      dup9\n        /* \"#utility.yul\":15500:15522   */\n      add\n        /* \"#utility.yul\":15479:15532   */\n      tag_527\n      jump\t// in\n    tag_779:\n        /* \"#utility.yul\":15469:15532   */\n      swap3\n      pop\n        /* \"#utility.yul\":15424:15542   */\n      pop\n        /* \"#utility.yul\":15609:15611   */\n      0x60\n        /* \"#utility.yul\":15598:15607   */\n      dup6\n        /* \"#utility.yul\":15594:15612   */\n      add\n        /* \"#utility.yul\":15581:15613   */\n      calldataload\n        /* \"#utility.yul\":15640:15658   */\n      0xffffffffffffffff\n        /* \"#utility.yul\":15632:15638   */\n      dup2\n        /* \"#utility.yul\":15629:15659   */\n      gt\n        /* \"#utility.yul\":15626:15743   */\n      iszero\n      tag_780\n      jumpi\n        /* \"#utility.yul\":15662:15741   */\n      tag_781\n      tag_524\n      jump\t// in\n    tag_781:\n        /* \"#utility.yul\":15626:15743   */\n    tag_780:\n        /* \"#utility.yul\":15767:15830   */\n      tag_782\n        /* \"#utility.yul\":15822:15829   */\n      dup8\n        /* \"#utility.yul\":15813:15819   */\n      dup3\n        /* \"#utility.yul\":15802:15811   */\n      dup9\n        /* \"#utility.yul\":15798:15820   */\n      add\n        /* \"#utility.yul\":15767:15830   */\n      tag_560\n      jump\t// in\n    tag_782:\n        /* \"#utility.yul\":15757:15830   */\n      swap2\n      pop\n        /* \"#utility.yul\":15552:15840   */\n      pop\n        /* \"#utility.yul\":14902:15847   */\n      swap3\n      swap6\n      swap2\n      swap5\n      pop\n      swap3\n      pop\n      jump\t// out\n        /* \"#utility.yul\":15853:16507   */\n    tag_125:\n        /* \"#utility.yul\":15931:15937   */\n      0x00\n        /* \"#utility.yul\":15939:15945   */\n      dup1\n        /* \"#utility.yul\":15988:15990   */\n      0x40\n        /* \"#utility.yul\":15976:15985   */\n      dup4\n        /* \"#utility.yul\":15967:15974   */\n      dup6\n        /* \"#utility.yul\":15963:15986   */\n      sub\n        /* \"#utility.yul\":15959:15991   */\n      slt\n        /* \"#utility.yul\":15956:16075   */\n      iszero\n      tag_784\n      jumpi\n        /* \"#utility.yul\":15994:16073   */\n      tag_785\n      tag_523\n      jump\t// in\n    tag_785:\n        /* \"#utility.yul\":15956:16075   */\n    tag_784:\n        /* \"#utility.yul\":16142:16143   */\n      0x00\n        /* \"#utility.yul\":16131:16140   */\n      dup4\n        /* \"#utility.yul\":16127:16144   */\n      add\n        /* \"#utility.yul\":16114:16145   */\n      calldataload\n        /* \"#utility.yul\":16172:16190   */\n      0xffffffffffffffff\n        /* \"#utility.yul\":16164:16170   */\n      dup2\n        /* \"#utility.yul\":16161:16191   */\n      gt\n        /* \"#utility.yul\":16158:16275   */\n      iszero\n      tag_786\n      jumpi\n        /* \"#utility.yul\":16194:16273   */\n      tag_787\n      tag_524\n      jump\t// in\n    tag_787:\n        /* \"#utility.yul\":16158:16275   */\n    tag_786:\n        /* \"#utility.yul\":16299:16362   */\n      tag_788\n        /* \"#utility.yul\":16354:16361   */\n      dup6\n        /* \"#utility.yul\":16345:16351   */\n      dup3\n        /* \"#utility.yul\":16334:16343   */\n      dup7\n        /* \"#utility.yul\":16330:16352   */\n      add\n        /* \"#utility.yul\":16299:16362   */\n      tag_560\n      jump\t// in\n    tag_788:\n        /* \"#utility.yul\":16289:16362   */\n      swap3\n      pop\n        /* \"#utility.yul\":16085:16372   */\n      pop\n        /* \"#utility.yul\":16411:16413   */\n      0x20\n        /* \"#utility.yul\":16437:16490   */\n      tag_789\n        /* \"#utility.yul\":16482:16489   */\n      dup6\n        /* \"#utility.yul\":16473:16479   */\n      dup3\n        /* \"#utility.yul\":16462:16471   */\n      dup7\n        /* \"#utility.yul\":16458:16480   */\n      add\n        /* \"#utility.yul\":16437:16490   */\n      tag_546\n      jump\t// in\n    tag_789:\n        /* \"#utility.yul\":16427:16490   */\n      swap2\n      pop\n        /* \"#utility.yul\":16382:16500   */\n      pop\n        /* \"#utility.yul\":15853:16507   */\n      swap3\n      pop\n      swap3\n      swap1\n      pop\n      jump\t// out\n        /* \"#utility.yul\":16513:16842   */\n    tag_130:\n        /* \"#utility.yul\":16572:16578   */\n      0x00\n        /* \"#utility.yul\":16621:16623   */\n      0x20\n        /* \"#utility.yul\":16609:16618   */\n      dup3\n        /* \"#utility.yul\":16600:16607   */\n      dup5\n        /* \"#utility.yul\":16596:16619   */\n      sub\n        /* \"#utility.yul\":16592:16624   */\n      slt\n        /* \"#utility.yul\":16589:16708   */\n      iszero\n      tag_791\n      jumpi\n        /* \"#utility.yul\":16627:16706   */\n      tag_792\n      tag_523\n      jump\t// in\n    tag_792:\n        /* \"#utility.yul\":16589:16708   */\n    tag_791:\n        /* \"#utility.yul\":16747:16748   */\n      0x00\n        /* \"#utility.yul\":16772:16825   */\n      tag_793\n        /* \"#utility.yul\":16817:16824   */\n      dup5\n        /* \"#utility.yul\":16808:16814   */\n      dup3\n        /* \"#utility.yul\":16797:16806   */\n      dup6\n        /* \"#utility.yul\":16793:16815   */\n      add\n        /* \"#utility.yul\":16772:16825   */\n      tag_546\n      jump\t// in\n    tag_793:\n        /* \"#utility.yul\":16762:16825   */\n      swap2\n      pop\n        /* \"#utility.yul\":16718:16835   */\n      pop\n        /* \"#utility.yul\":16513:16842   */\n      swap3\n      swap2\n      pop\n      pop\n      jump\t// out\n        /* \"#utility.yul\":16848:17188   */\n    tag_133:\n        /* \"#utility.yul\":16973:16977   */\n      0x00\n        /* \"#utility.yul\":17011:17013   */\n      0x40\n        /* \"#utility.yul\":17000:17009   */\n      dup3\n        /* \"#utility.yul\":16996:17014   */\n      add\n        /* \"#utility.yul\":16988:17014   */\n      swap1\n      pop\n        /* \"#utility.yul\":17024:17099   */\n      tag_795\n        /* \"#utility.yul\":17096:17097   */\n      0x00\n        /* \"#utility.yul\":17085:17094   */\n      dup4\n        /* \"#utility.yul\":17081:17098   */\n      add\n        /* \"#utility.yul\":17072:17078   */\n      dup6\n        /* \"#utility.yul\":17024:17099   */\n      tag_550\n      jump\t// in\n    tag_795:\n        /* \"#utility.yul\":17109:17181   */\n      tag_796\n        /* \"#utility.yul\":17177:17179   */\n      0x20\n        /* \"#utility.yul\":17166:17175   */\n      dup4\n        /* \"#utility.yul\":17162:17180   */\n      add\n        /* \"#utility.yul\":17153:17159   */\n      dup5\n        /* \"#utility.yul\":17109:17181   */\n      tag_544\n      jump\t// in\n    tag_796:\n        /* \"#utility.yul\":16848:17188   */\n      swap4\n      swap3\n      pop\n      pop\n      pop\n      jump\t// out\n        /* \"#utility.yul\":17194:17959   */\n    tag_150:\n        /* \"#utility.yul\":17280:17286   */\n      0x00\n        /* \"#utility.yul\":17288:17294   */\n      dup1\n        /* \"#utility.yul\":17296:17302   */\n      0x00\n        /* \"#utility.yul\":17304:17310   */\n      dup1\n        /* \"#utility.yul\":17353:17356   */\n      0x80\n        /* \"#utility.yul\":17341:17350   */\n      dup6\n        /* \"#utility.yul\":17332:17339   */\n      dup8\n        /* \"#utility.yul\":17328:17351   */\n      sub\n        /* \"#utility.yul\":17324:17357   */\n      slt\n        /* \"#utility.yul\":17321:17441   */\n      iszero\n      tag_798\n      jumpi\n        /* \"#utility.yul\":17360:17439   */\n      tag_799\n      tag_523\n      jump\t// in\n    tag_799:\n        /* \"#utility.yul\":17321:17441   */\n    tag_798:\n        /* \"#utility.yul\":17480:17481   */\n      0x00\n        /* \"#utility.yul\":17505:17558   */\n      tag_800\n        /* \"#utility.yul\":17550:17557   */\n      dup8\n        /* \"#utility.yul\":17541:17547   */\n      dup3\n        /* \"#utility.yul\":17530:17539   */\n      dup9\n        /* \"#utility.yul\":17526:17548   */\n      add\n        /* \"#utility.yul\":17505:17558   */\n      tag_546\n      jump\t// in\n    tag_800:\n        /* \"#utility.yul\":17495:17558   */\n      swap5\n      pop\n        /* \"#utility.yul\":17451:17568   */\n      pop\n        /* \"#utility.yul\":17607:17609   */\n      0x20\n        /* \"#utility.yul\":17633:17686   */\n      tag_801\n        /* \"#utility.yul\":17678:17685   */\n      dup8\n        /* \"#utility.yul\":17669:17675   */\n      dup3\n        /* \"#utility.yul\":17658:17667   */\n      dup9\n        /* \"#utility.yul\":17654:17676   */\n      add\n        /* \"#utility.yul\":17633:17686   */\n      tag_527\n      jump\t// in\n    tag_801:\n        /* \"#utility.yul\":17623:17686   */\n      swap4\n      pop\n        /* \"#utility.yul\":17578:17696   */\n      pop\n        /* \"#utility.yul\":17735:17737   */\n      0x40\n        /* \"#utility.yul\":17761:17814   */\n      tag_802\n        /* \"#utility.yul\":17806:17813   */\n      dup8\n        /* \"#utility.yul\":17797:17803   */\n      dup3\n        /* \"#utility.yul\":17786:17795   */\n      dup9\n        /* \"#utility.yul\":17782:17804   */\n      add\n        /* \"#utility.yul\":17761:17814   */\n      tag_527\n      jump\t// in\n    tag_802:\n        /* \"#utility.yul\":17751:17814   */\n      swap3\n      pop\n        /* \"#utility.yul\":17706:17824   */\n      pop\n        /* \"#utility.yul\":17863:17865   */\n      0x60\n        /* \"#utility.yul\":17889:17942   */\n      tag_803\n        /* \"#utility.yul\":17934:17941   */\n      dup8\n        /* \"#utility.yul\":17925:17931   */\n      dup3\n        /* \"#utility.yul\":17914:17923   */\n      dup9\n        /* \"#utility.yul\":17910:17932   */\n      add\n        /* \"#utility.yul\":17889:17942   */\n      tag_546\n      jump\t// in\n    tag_803:\n        /* \"#utility.yul\":17879:17942   */\n      swap2\n      pop\n        /* \"#utility.yul\":17834:17952   */\n      pop\n        /* \"#utility.yul\":17194:17959   */\n      swap3\n      swap6\n      swap2\n      swap5\n      pop\n      swap3\n      pop\n      jump\t// out\n        /* \"#utility.yul\":17965:18188   */\n    tag_564:\n        /* \"#utility.yul\":18105:18139   */\n      0x596f757220726f6c6520646f6573206e6f7420616c6c6f772074686973206368\n        /* \"#utility.yul\":18101:18102   */\n      0x00\n        /* \"#utility.yul\":18093:18099   */\n      dup3\n        /* \"#utility.yul\":18089:18103   */\n      add\n        /* \"#utility.yul\":18082:18140   */\n      mstore\n        /* \"#utility.yul\":18174:18180   */\n      0x616e676500000000000000000000000000000000000000000000000000000000\n        /* \"#utility.yul\":18169:18171   */\n      0x20\n        /* \"#utility.yul\":18161:18167   */\n      dup3\n        /* \"#utility.yul\":18157:18172   */\n      add\n        /* \"#utility.yul\":18150:18181   */\n      mstore\n        /* \"#utility.yul\":17965:18188   */\n      pop\n      jump\t// out\n        /* \"#utility.yul\":18194:18560   */\n    tag_565:\n        /* \"#utility.yul\":18336:18339   */\n      0x00\n        /* \"#utility.yul\":18357:18424   */\n      tag_806\n        /* \"#utility.yul\":18421:18423   */\n      0x24\n        /* \"#utility.yul\":18416:18419   */\n      dup4\n        /* \"#utility.yul\":18357:18424   */\n      tag_540\n      jump\t// in\n    tag_806:\n        /* \"#utility.yul\":18350:18424   */\n      swap2\n      pop\n        /* \"#utility.yul\":18433:18526   */\n      tag_807\n        /* \"#utility.yul\":18522:18525   */\n      dup3\n        /* \"#utility.yul\":18433:18526   */\n      tag_564\n      jump\t// in\n    tag_807:\n        /* \"#utility.yul\":18551:18553   */\n      0x40\n        /* \"#utility.yul\":18546:18549   */\n      dup3\n        /* \"#utility.yul\":18542:18554   */\n      add\n        /* \"#utility.yul\":18535:18554   */\n      swap1\n      pop\n        /* \"#utility.yul\":18194:18560   */\n      swap2\n      swap1\n      pop\n      jump\t// out\n        /* \"#utility.yul\":18566:18985   */\n    tag_160:\n        /* \"#utility.yul\":18732:18736   */\n      0x00\n        /* \"#utility.yul\":18770:18772   */\n      0x20\n        /* \"#utility.yul\":18759:18768   */\n      dup3\n        /* \"#utility.yul\":18755:18773   */\n      add\n        /* \"#utility.yul\":18747:18773   */\n      swap1\n      pop\n        /* \"#utility.yul\":18819:18828   */\n      dup2\n        /* \"#utility.yul\":18813:18817   */\n      dup2\n        /* \"#utility.yul\":18809:18829   */\n      sub\n        /* \"#utility.yul\":18805:18806   */\n      0x00\n        /* \"#utility.yul\":18794:18803   */\n      dup4\n        /* \"#utility.yul\":18790:18807   */\n      add\n        /* \"#utility.yul\":18783:18830   */\n      mstore\n        /* \"#utility.yul\":18847:18978   */\n      tag_809\n        /* \"#utility.yul\":18973:18977   */\n      dup2\n        /* \"#utility.yul\":18847:18978   */\n      tag_565\n      jump\t// in\n    tag_809:\n        /* \"#utility.yul\":18839:18978   */\n      swap1\n      pop\n        /* \"#utility.yul\":18566:18985   */\n      swap2\n      swap1\n      pop\n      jump\t// out\n        /* \"#utility.yul\":18991:19171   */\n    tag_566:\n        /* \"#utility.yul\":19039:19116   */\n      0x4e487b7100000000000000000000000000000000000000000000000000000000\n        /* \"#utility.yul\":19036:19037   */\n      0x00\n        /* \"#utility.yul\":19029:19117   */\n      mstore\n        /* \"#utility.yul\":19136:19140   */\n      0x22\n        /* \"#utility.yul\":19133:19134   */\n      0x04\n        /* \"#utility.yul\":19126:19141   */\n      mstore\n        /* \"#utility.yul\":19160:19164   */\n      0x24\n        /* \"#utility.yul\":19157:19158   */\n      0x00\n        /* \"#utility.yul\":19150:19165   */\n      revert\n        /* \"#utility.yul\":19177:19497   */\n    tag_168:\n        /* \"#utility.yul\":19221:19227   */\n      0x00\n        /* \"#utility.yul\":19258:19259   */\n      0x02\n        /* \"#utility.yul\":19252:19256   */\n      dup3\n        /* \"#utility.yul\":19248:19260   */\n      div\n        /* \"#utility.yul\":19238:19260   */\n      swap1\n      pop\n        /* \"#utility.yul\":19305:19306   */\n      0x01\n        /* \"#utility.yul\":19299:19303   */\n      dup3\n        /* \"#utility.yul\":19295:19307   */\n      and\n        /* \"#utility.yul\":19326:19344   */\n      dup1\n        /* \"#utility.yul\":19316:19397   */\n      tag_812\n      jumpi\n        /* \"#utility.yul\":19382:19386   */\n      0x7f\n        /* \"#utility.yul\":19374:19380   */\n      dup3\n        /* \"#utility.yul\":19370:19387   */\n      and\n        /* \"#utility.yul\":19360:19387   */\n      swap2\n      pop\n        /* \"#utility.yul\":19316:19397   */\n    tag_812:\n        /* \"#utility.yul\":19444:19446   */\n      0x20\n        /* \"#utility.yul\":19436:19442   */\n      dup3\n        /* \"#utility.yul\":19433:19447   */\n      lt\n        /* \"#utility.yul\":19413:19431   */\n      dup2\n        /* \"#utility.yul\":19410:19448   */\n      sub\n        /* \"#utility.yul\":19407:19491   */\n      tag_813\n      jumpi\n        /* \"#utility.yul\":19463:19481   */\n      tag_814\n      tag_566\n      jump\t// in\n    tag_814:\n        /* \"#utility.yul\":19407:19491   */\n    tag_813:\n        /* \"#utility.yul\":19228:19497   */\n      pop\n        /* \"#utility.yul\":19177:19497   */\n      swap2\n      swap1\n      pop\n      jump\t// out\n        /* \"#utility.yul\":19503:19644   */\n    tag_567:\n        /* \"#utility.yul\":19552:19556   */\n      0x00\n        /* \"#utility.yul\":19575:19578   */\n      dup2\n        /* \"#utility.yul\":19567:19578   */\n      swap1\n      pop\n        /* \"#utility.yul\":19598:19601   */\n      dup2\n        /* \"#utility.yul\":19595:19596   */\n      0x00\n        /* \"#utility.yul\":19588:19602   */\n      mstore\n        /* \"#utility.yul\":19632:19636   */\n      0x20\n        /* \"#utility.yul\":19629:19630   */\n      0x00\n        /* \"#utility.yul\":19619:19637   */\n      keccak256\n        /* \"#utility.yul\":19611:19637   */\n      swap1\n      pop\n        /* \"#utility.yul\":19503:19644   */\n      swap2\n      swap1\n      pop\n      jump\t// out\n        /* \"#utility.yul\":19650:19743   */\n    tag_568:\n        /* \"#utility.yul\":19687:19693   */\n      0x00\n        /* \"#utility.yul\":19734:19736   */\n      0x20\n        /* \"#utility.yul\":19729:19731   */\n      0x1f\n        /* \"#utility.yul\":19722:19727   */\n      dup4\n        /* \"#utility.yul\":19718:19732   */\n      add\n        /* \"#utility.yul\":19714:19737   */\n      div\n        /* \"#utility.yul\":19704:19737   */\n      swap1\n      pop\n        /* \"#utility.yul\":19650:19743   */\n      swap2\n      swap1\n      pop\n      jump\t// out\n        /* \"#utility.yul\":19749:19856   */\n    tag_569:\n        /* \"#utility.yul\":19793:19801   */\n      0x00\n        /* \"#utility.yul\":19843:19848   */\n      dup3\n        /* \"#utility.yul\":19837:19841   */\n      dup3\n        /* \"#utility.yul\":19833:19849   */\n      shl\n        /* \"#utility.yul\":19812:19849   */\n      swap1\n      pop\n        /* \"#utility.yul\":19749:19856   */\n      swap3\n      swap2\n      pop\n      pop\n      jump\t// out\n        /* \"#utility.yul\":19862:20255   */\n    tag_570:\n        /* \"#utility.yul\":19931:19937   */\n      0x00\n        /* \"#utility.yul\":19981:19982   */\n      0x08\n        /* \"#utility.yul\":19969:19979   */\n      dup4\n        /* \"#utility.yul\":19965:19983   */\n      mul\n        /* \"#utility.yul\":20004:20101   */\n      tag_819\n        /* \"#utility.yul\":20034:20100   */\n      0xffffffffffffffffffffffffffffffffffffffffffffffffffffffffffffffff\n        /* \"#utility.yul\":20023:20032   */\n      dup3\n        /* \"#utility.yul\":20004:20101   */\n      tag_569\n      jump\t// in\n    tag_819:\n        /* \"#utility.yul\":20122:20161   */\n      tag_820\n        /* \"#utility.yul\":20152:20160   */\n      dup7\n        /* \"#utility.yul\":20141:20150   */\n      dup4\n        /* \"#utility.yul\":20122:20161   */\n      tag_569\n      jump\t// in\n    tag_820:\n        /* \"#utility.yul\":20110:20161   */\n      swap6\n      pop\n        /* \"#utility.yul\":20194:20198   */\n      dup1\n        /* \"#utility.yul\":20190:20199   */\n      not\n        /* \"#utility.yul\":20183:20188   */\n      dup5\n        /* \"#utility.yul\":20179:20200   */\n      and\n        /* \"#utility.yul\":20170:20200   */\n      swap4\n      pop\n        /* \"#utility.yul\":20243:20247   */\n      dup1\n        /* \"#utility.yul\":20233:20241   */\n      dup7\n        /* \"#utility.yul\":20229:20248   */\n      and\n        /* \"#utility.yul\":20222:20227   */\n      dup5\n        /* \"#utility.yul\":20219:20249   */\n      or\n        /* \"#utility.yul\":20209:20249   */\n      swap3\n      pop\n        /* \"#utility.yul\":19938:20255   */\n      pop\n      pop\n        /* \"#utility.yul\":19862:20255   */\n      swap4\n      swap3\n      pop\n      pop\n      pop\n      jump\t// out\n        /* \"#utility.yul\":20261:20321   */\n    tag_571:\n        /* \"#utility.yul\":20289:20292   */\n      0x00\n        /* \"#utility.yul\":20310:20315   */\n      dup2\n        /* \"#utility.yul\":20303:20315   */\n      swap1\n      pop\n        /* \"#utility.yul\":20261:20321   */\n      swap2\n      swap1\n      pop\n      jump\t// out\n        /* \"#utility.yul\":20327:20469   */\n    tag_572:\n        /* \"#utility.yul\":20377:20386   */\n      0x00\n        /* \"#utility.yul\":20410:20463   */\n      tag_823\n        /* \"#utility.yul\":20428:20462   */\n      tag_824\n        /* \"#utility.yul\":20437:20461   */\n      tag_825\n        /* \"#utility.yul\":20455:20460   */\n      dup5\n        /* \"#utility.yul\":20437:20461   */\n      tag_525\n      jump\t// in\n    tag_825:\n        /* \"#utility.yul\":20428:20462   */\n      tag_571\n      jump\t// in\n    tag_824:\n        /* \"#utility.yul\":20410:20463   */\n      tag_525\n      jump\t// in\n    tag_823:\n        /* \"#utility.yul\":20397:20463   */\n      swap1\n      pop\n        /* \"#utility.yul\":20327:20469   */\n      swap2\n      swap1\n      pop\n      jump\t// out\n        /* \"#utility.yul\":20475:20550   */\n    tag_573:\n        /* \"#utility.yul\":20518:20521   */\n      0x00\n        /* \"#utility.yul\":20539:20544   */\n      dup2\n        /* \"#utility.yul\":20532:20544   */\n      swap1\n      pop\n        /* \"#utility.yul\":20475:20550   */\n      swap2\n      swap1\n      pop\n      jump\t// out\n        /* \"#utility.yul\":20556:20825   */\n    tag_574:\n        /* \"#utility.yul\":20666:20705   */\n      tag_828\n        /* \"#utility.yul\":20697:20704   */\n      dup4\n        /* \"#utility.yul\":20666:20705   */\n      tag_572\n      jump\t// in\n    tag_828:\n        /* \"#utility.yul\":20727:20818   */\n      tag_829\n        /* \"#utility.yul\":20776:20817   */\n      tag_830\n        /* \"#utility.yul\":20800:20816   */\n      dup3\n        /* \"#utility.yul\":20776:20817   */\n      tag_573\n      jump\t// in\n    tag_830:\n        /* \"#utility.yul\":20768:20774   */\n      dup5\n        /* \"#utility.yul\":20761:20765   */\n      dup5\n        /* \"#utility.yul\":20755:20766   */\n      sload\n        /* \"#utility.yul\":20727:20818   */\n      tag_570\n      jump\t// in\n    tag_829:\n        /* \"#utility.yul\":20721:20725   */\n      dup3\n        /* \"#utility.yul\":20714:20819   */\n      sstore\n        /* \"#utility.yul\":20632:20825   */\n      pop\n        /* \"#utility.yul\":20556:20825   */\n      pop\n      pop\n      pop\n      jump\t// out\n        /* \"#utility.yul\":20831:20904   */\n    tag_575:\n        /* \"#utility.yul\":20876:20879   */\n      0x00\n        /* \"#utility.yul\":20831:20904   */\n      swap1\n      jump\t// out\n        /* \"#utility.yul\":20910:21099   */\n    tag_576:\n        /* \"#utility.yul\":20987:21019   */\n      tag_833\n      tag_575\n      jump\t// in\n    tag_833:\n        /* \"#utility.yul\":21028:21093   */\n      tag_834\n        /* \"#utility.yul\":21086:21092   */\n      dup2\n        /* \"#utility.yul\":21078:21084   */\n      dup5\n        /* \"#utility.yul\":21072:21076   */\n      dup5\n        /* \"#utility.yul\":21028:21093   */\n      tag_574\n      jump\t// in\n    tag_834:\n        /* \"#utility.yul\":20963:21099   */\n      pop\n        /* \"#utility.yul\":20910:21099   */\n      pop\n      pop\n      jump\t// out\n        /* \"#utility.yul\":21105:21291   */\n    tag_577:\n        /* \"#utility.yul\":21165:21285   */\n    tag_836:\n        /* \"#utility.yul\":21182:21185   */\n      dup2\n        /* \"#utility.yul\":21175:21180   */\n      dup2\n        /* \"#utility.yul\":21172:21186   */\n      lt\n        /* \"#utility.yul\":21165:21285   */\n      iszero\n      tag_838\n      jumpi\n        /* \"#utility.yul\":21236:21275   */\n      tag_839\n        /* \"#utility.yul\":21273:21274   */\n      0x00\n        /* \"#utility.yul\":21266:21271   */\n      dup3\n        /* \"#utility.yul\":21236:21275   */\n      tag_576\n      jump\t// in\n    tag_839:\n        /* \"#utility.yul\":21209:21210   */\n      0x01\n        /* \"#utility.yul\":21202:21207   */\n      dup2\n        /* \"#utility.yul\":21198:21211   */\n      add\n        /* \"#utility.yul\":21189:21211   */\n      swap1\n      pop\n        /* \"#utility.yul\":21165:21285   */\n      jump(tag_836)\n    tag_838:\n        /* \"#utility.yul\":21105:21291   */\n      pop\n      pop\n      jump\t// out\n        /* \"#utility.yul\":21297:21840   */\n    tag_578:\n        /* \"#utility.yul\":21398:21400   */\n      0x1f\n        /* \"#utility.yul\":21393:21396   */\n      dup3\n        /* \"#utility.yul\":21390:21401   */\n      gt\n        /* \"#utility.yul\":21387:21833   */\n      iszero\n      tag_841\n      jumpi\n        /* \"#utility.yul\":21432:21470   */\n      tag_842\n        /* \"#utility.yul\":21464:21469   */\n      dup2\n        /* \"#utility.yul\":21432:21470   */\n      tag_567\n      jump\t// in\n    tag_842:\n        /* \"#utility.yul\":21516:21545   */\n      tag_843\n        /* \"#utility.yul\":21534:21544   */\n      dup5\n        /* \"#utility.yul\":21516:21545   */\n      tag_568\n      jump\t// in\n    tag_843:\n        /* \"#utility.yul\":21506:21514   */\n      dup2\n        /* \"#utility.yul\":21502:21546   */\n      add\n        /* \"#utility.yul\":21699:21701   */\n      0x20\n        /* \"#utility.yul\":21687:21697   */\n      dup6\n        /* \"#utility.yul\":21684:21702   */\n      lt\n        /* \"#utility.yul\":21681:21730   */\n      iszero\n      tag_844\n      jumpi\n        /* \"#utility.yul\":21720:21728   */\n      dup2\n        /* \"#utility.yul\":21705:21728   */\n      swap1\n      pop\n        /* \"#utility.yul\":21681:21730   */\n    tag_844:\n        /* \"#utility.yul\":21743:21823   */\n      tag_845\n        /* \"#utility.yul\":21799:21821   */\n      tag_846\n        /* \"#utility.yul\":21817:21820   */\n      dup6\n        /* \"#utility.yul\":21799:21821   */\n      tag_568\n      jump\t// in\n    tag_846:\n        /* \"#utility.yul\":21789:21797   */\n      dup4\n        /* \"#utility.yul\":21785:21822   */\n      add\n        /* \"#utility.yul\":21772:21783   */\n      dup3\n        /* \"#utility.yul\":21743:21823   */\n      tag_577\n      jump\t// in\n    tag_845:\n        /* \"#utility.yul\":21402:21833   */\n      pop\n      pop\n        /* \"#utility.yul\":21387:21833   */\n    tag_841:\n        /* \"#utility.yul\":21297:21840   */\n      pop\n      pop\n      pop\n      jump\t// out\n        /* \"#utility.yul\":21846:21963   */\n    tag_579:\n        /* \"#utility.yul\":21900:21908   */\n      0x00\n        /* \"#utility.yul\":21950:21955   */\n      dup3\n        /* \"#utility.yul\":21944:21948   */\n      dup3\n        /* \"#utility.yul\":21940:21956   */\n      shr\n        /* \"#utility.yul\":21919:21956   */\n      swap1\n      pop\n        /* \"#utility.yul\":21846:21963   */\n      swap3\n      swap2\n      pop\n      pop\n      jump\t// out\n        /* \"#utility.yul\":21969:22138   */\n    tag_580:\n        /* \"#utility.yul\":22013:22019   */\n      0x00\n        /* \"#utility.yul\":22046:22097   */\n      tag_849\n        /* \"#utility.yul\":22094:22095   */\n      0x00\n        /* \"#utility.yul\":22090:22096   */\n      not\n        /* \"#utility.yul\":22082:22087   */\n      dup5\n        /* \"#utility.yul\":22079:22080   */\n      0x08\n        /* \"#utility.yul\":22075:22088   */\n      mul\n        /* \"#utility.yul\":22046:22097   */\n      tag_579\n      jump\t// in\n    tag_849:\n        /* \"#utility.yul\":22042:22098   */\n      not\n        /* \"#utility.yul\":22127:22131   */\n      dup1\n        /* \"#utility.yul\":22121:22125   */\n      dup4\n        /* \"#utility.yul\":22117:22132   */\n      and\n        /* \"#utility.yul\":22107:22132   */\n      swap2\n      pop\n        /* \"#utility.yul\":22020:22138   */\n      pop\n        /* \"#utility.yul\":21969:22138   */\n      swap3\n      swap2\n      pop\n      pop\n      jump\t// out\n        /* \"#utility.yul\":22143:22438   */\n    tag_581:\n        /* \"#utility.yul\":22219:22223   */\n      0x00\n        /* \"#utility.yul\":22365:22394   */\n      tag_851\n        /* \"#utility.yul\":22390:22393   */\n      dup4\n        /* \"#utility.yul\":22384:22388   */\n      dup4\n        /* \"#utility.yul\":22365:22394   */\n      tag_580\n      jump\t// in\n    tag_851:\n        /* \"#utility.yul\":22357:22394   */\n      swap2\n      pop\n        /* \"#utility.yul\":22427:22430   */\n      dup3\n        /* \"#utility.yul\":22424:22425   */\n      0x02\n        /* \"#utility.yul\":22420:22431   */\n      mul\n        /* \"#utility.yul\":22414:22418   */\n      dup3\n        /* \"#utility.yul\":22411:22432   */\n      or\n        /* \"#utility.yul\":22403:22432   */\n      swap1\n      pop\n        /* \"#utility.yul\":22143:22438   */\n      swap3\n      swap2\n      pop\n      pop\n      jump\t// out\n        /* \"#utility.yul\":22443:23838   */\n    tag_164:\n        /* \"#utility.yul\":22560:22597   */\n      tag_853\n        /* \"#utility.yul\":22593:22596   */\n      dup3\n        /* \"#utility.yul\":22560:22597   */\n      tag_539\n      jump\t// in\n    tag_853:\n        /* \"#utility.yul\":22662:22680   */\n      0xffffffffffffffff\n        /* \"#utility.yul\":22654:22660   */\n      dup2\n        /* \"#utility.yul\":22651:22681   */\n      gt\n        /* \"#utility.yul\":22648:22704   */\n      iszero\n      tag_854\n      jumpi\n        /* \"#utility.yul\":22684:22702   */\n      tag_855\n      tag_554\n      jump\t// in\n    tag_855:\n        /* \"#utility.yul\":22648:22704   */\n    tag_854:\n        /* \"#utility.yul\":22728:22766   */\n      tag_856\n        /* \"#utility.yul\":22760:22764   */\n      dup3\n        /* \"#utility.yul\":22754:22765   */\n      sload\n        /* \"#utility.yul\":22728:22766   */\n      tag_168\n      jump\t// in\n    tag_856:\n        /* \"#utility.yul\":22813:22880   */\n      tag_857\n        /* \"#utility.yul\":22873:22879   */\n      dup3\n        /* \"#utility.yul\":22865:22871   */\n      dup3\n        /* \"#utility.yul\":22859:22863   */\n      dup6\n        /* \"#utility.yul\":22813:22880   */\n      tag_578\n      jump\t// in\n    tag_857:\n        /* \"#utility.yul\":22907:22908   */\n      0x00\n        /* \"#utility.yul\":22931:22935   */\n      0x20\n        /* \"#utility.yul\":22918:22935   */\n      swap1\n      pop\n        /* \"#utility.yul\":22963:22965   */\n      0x1f\n        /* \"#utility.yul\":22955:22961   */\n      dup4\n        /* \"#utility.yul\":22952:22966   */\n      gt\n        /* \"#utility.yul\":22980:22981   */\n      0x01\n        /* \"#utility.yul\":22975:23593   */\n      dup2\n      eq\n      tag_859\n      jumpi\n        /* \"#utility.yul\":23637:23638   */\n      0x00\n        /* \"#utility.yul\":23654:23660   */\n      dup5\n        /* \"#utility.yul\":23651:23728   */\n      iszero\n      tag_860\n      jumpi\n        /* \"#utility.yul\":23703:23712   */\n      dup3\n        /* \"#utility.yul\":23698:23701   */\n      dup8\n        /* \"#utility.yul\":23694:23713   */\n      add\n        /* \"#utility.yul\":23688:23714   */\n      mload\n        /* \"#utility.yul\":23679:23714   */\n      swap1\n      pop\n        /* \"#utility.yul\":23651:23728   */\n    tag_860:\n        /* \"#utility.yul\":23754:23821   */\n      tag_861\n        /* \"#utility.yul\":23814:23820   */\n      dup6\n        /* \"#utility.yul\":23807:23812   */\n      dup3\n        /* \"#utility.yul\":23754:23821   */\n      tag_581\n      jump\t// in\n    tag_861:\n        /* \"#utility.yul\":23748:23752   */\n      dup7\n        /* \"#utility.yul\":23741:23822   */\n      sstore\n        /* \"#utility.yul\":23610:23832   */\n      pop\n        /* \"#utility.yul\":22945:23832   */\n      jump(tag_858)\n        /* \"#utility.yul\":22975:23593   */\n    tag_859:\n        /* \"#utility.yul\":23027:23031   */\n      0x1f\n        /* \"#utility.yul\":23023:23032   */\n      not\n        /* \"#utility.yul\":23015:23021   */\n      dup5\n        /* \"#utility.yul\":23011:23033   */\n      and\n        /* \"#utility.yul\":23061:23098   */\n      tag_862\n        /* \"#utility.yul\":23093:23097   */\n      dup7\n        /* \"#utility.yul\":23061:23098   */\n      tag_567\n      jump\t// in\n    tag_862:\n        /* \"#utility.yul\":23120:23121   */\n      0x00\n        /* \"#utility.yul\":23134:23342   */\n    tag_863:\n        /* \"#utility.yul\":23148:23155   */\n      dup3\n        /* \"#utility.yul\":23145:23146   */\n      dup2\n        /* \"#utility.yul\":23142:23156   */\n      lt\n        /* \"#utility.yul\":23134:23342   */\n      iszero\n      tag_865\n      jumpi\n        /* \"#utility.yul\":23227:23236   */\n      dup5\n        /* \"#utility.yul\":23222:23225   */\n      dup10\n        /* \"#utility.yul\":23218:23237   */\n      add\n        /* \"#utility.yul\":23212:23238   */\n      mload\n        /* \"#utility.yul\":23204:23210   */\n      dup3\n        /* \"#utility.yul\":23197:23239   */\n      sstore\n        /* \"#utility.yul\":23278:23279   */\n      0x01\n        /* \"#utility.yul\":23270:23276   */\n      dup3\n        /* \"#utility.yul\":23266:23280   */\n      add\n        /* \"#utility.yul\":23256:23280   */\n      swap2\n      pop\n        /* \"#utility.yul\":23325:23327   */\n      0x20\n        /* \"#utility.yul\":23314:23323   */\n      dup6\n        /* \"#utility.yul\":23310:23328   */\n      add\n        /* \"#utility.yul\":23297:23328   */\n      swap5\n      pop\n        /* \"#utility.yul\":23171:23175   */\n      0x20\n        /* \"#utility.yul\":23168:23169   */\n      dup2\n        /* \"#utility.yul\":23164:23176   */\n      add\n        /* \"#utility.yul\":23159:23176   */\n      swap1\n      pop\n        /* \"#utility.yul\":23134:23342   */\n      jump(tag_863)\n    tag_865:\n        /* \"#utility.yul\":23370:23376   */\n      dup7\n        /* \"#utility.yul\":23361:23368   */\n      dup4\n        /* \"#utility.yul\":23358:23377   */\n      lt\n        /* \"#utility.yul\":23355:23534   */\n      iszero\n      tag_866\n      jumpi\n        /* \"#utility.yul\":23428:23437   */\n      dup5\n        /* \"#utility.yul\":23423:23426   */\n      dup10\n        /* \"#utility.yul\":23419:23438   */\n      add\n        /* \"#utility.yul\":23413:23439   */\n      mload\n        /* \"#utility.yul\":23471:23519   */\n      tag_867\n        /* \"#utility.yul\":23513:23517   */\n      0x1f\n        /* \"#utility.yul\":23505:23511   */\n      dup10\n        /* \"#utility.yul\":23501:23518   */\n      and\n        /* \"#utility.yul\":23490:23499   */\n      dup3\n        /* \"#utility.yul\":23471:23519   */\n      tag_580\n      jump\t// in\n    tag_867:\n        /* \"#utility.yul\":23463:23469   */\n      dup4\n        /* \"#utility.yul\":23456:23520   */\n      sstore\n        /* \"#utility.yul\":23378:23534   */\n      pop\n        /* \"#utility.yul\":23355:23534   */\n    tag_866:\n        /* \"#utility.yul\":23580:23581   */\n      0x01\n        /* \"#utility.yul\":23576:23577   */\n      0x02\n        /* \"#utility.yul\":23568:23574   */\n      dup9\n        /* \"#utility.yul\":23564:23578   */\n      mul\n        /* \"#utility.yul\":23560:23582   */\n      add\n        /* \"#utility.yul\":23554:23558   */\n      dup9\n        /* \"#utility.yul\":23547:23583   */\n      sstore\n        /* \"#utility.yul\":22982:23593   */\n      pop\n      pop\n      pop\n        /* \"#utility.yul\":22945:23832   */\n    tag_858:\n      pop\n        /* \"#utility.yul\":22535:23838   */\n      pop\n      pop\n      pop\n        /* \"#utility.yul\":22443:23838   */\n      pop\n      pop\n      jump\t// out\n        /* \"#utility.yul\":23844:24024   */\n    tag_195:\n        /* \"#utility.yul\":23892:23969   */\n      0x4e487b7100000000000000000000000000000000000000000000000000000000\n        /* \"#utility.yul\":23889:23890   */\n      0x00\n        /* \"#utility.yul\":23882:23970   */\n      mstore\n        /* \"#utility.yul\":23989:23993   */\n      0x32\n        /* \"#utility.yul\":23986:23987   */\n      0x04\n        /* \"#utility.yul\":23979:23994   */\n      mstore\n        /* \"#utility.yul\":24013:24017   */\n      0x24\n        /* \"#utility.yul\":24010:24011   */\n      0x00\n        /* \"#utility.yul\":24003:24018   */\n      revert\n        /* \"#utility.yul\":24030:24210   */\n    tag_582:\n        /* \"#utility.yul\":24078:24155   */\n      0x4e487b7100000000000000000000000000000000000000000000000000000000\n        /* \"#utility.yul\":24075:24076   */\n      0x00\n        /* \"#utility.yul\":24068:24156   */\n      mstore\n        /* \"#utility.yul\":24175:24179   */\n      0x11\n        /* \"#utility.yul\":24172:24173   */\n      0x04\n        /* \"#utility.yul\":24165:24180   */\n      mstore\n        /* \"#utility.yul\":24199:24203   */\n      0x24\n        /* \"#utility.yul\":24196:24197   */\n      0x00\n        /* \"#utility.yul\":24189:24204   */\n      revert\n        /* \"#utility.yul\":24216:24626   */\n    tag_208:\n        /* \"#utility.yul\":24256:24263   */\n      0x00\n        /* \"#utility.yul\":24279:24299   */\n      tag_871\n        /* \"#utility.yul\":24297:24298   */\n      dup3\n        /* \"#utility.yul\":24279:24299   */\n      tag_525\n      jump\t// in\n    tag_871:\n        /* \"#utility.yul\":24274:24299   */\n      swap2\n      pop\n        /* \"#utility.yul\":24313:24333   */\n      tag_872\n        /* \"#utility.yul\":24331:24332   */\n      dup4\n        /* \"#utility.yul\":24313:24333   */\n      tag_525\n      jump\t// in\n    tag_872:\n        /* \"#utility.yul\":24308:24333   */\n      swap3\n      pop\n        /* \"#utility.yul\":24368:24369   */\n      dup3\n        /* \"#utility.yul\":24365:24366   */\n      dup3\n        /* \"#utility.yul\":24361:24370   */\n      mul\n        /* \"#utility.yul\":24390:24420   */\n      tag_873\n        /* \"#utility.yul\":24408:24419   */\n      dup2\n        /* \"#utility.yul\":24390:24420   */\n      tag_525\n      jump\t// in\n    tag_873:\n        /* \"#utility.yul\":24379:24420   */\n      swap2\n      pop\n        /* \"#utility.yul\":24569:24570   */\n      dup3\n        /* \"#utility.yul\":24560:24567   */\n      dup3\n        /* \"#utility.yul\":24556:24571   */\n      div\n        /* \"#utility.yul\":24553:24554   */\n      dup5\n        /* \"#utility.yul\":24550:24572   */\n      eq\n        /* \"#utility.yul\":24530:24531   */\n      dup4\n        /* \"#utility.yul\":24523:24532   */\n      iszero\n        /* \"#utility.yul\":24503:24586   */\n      or\n        /* \"#utility.yul\":24480:24619   */\n      tag_874\n      jumpi\n        /* \"#utility.yul\":24599:24617   */\n      tag_875\n      tag_582\n      jump\t// in\n    tag_875:\n        /* \"#utility.yul\":24480:24619   */\n    tag_874:\n        /* \"#utility.yul\":24264:24626   */\n      pop\n        /* \"#utility.yul\":24216:24626   */\n      swap3\n      swap2\n      pop\n      pop\n      jump\t// out\n        /* \"#utility.yul\":24632:24823   */\n    tag_216:\n        /* \"#utility.yul\":24672:24675   */\n      0x00\n        /* \"#utility.yul\":24691:24711   */\n      tag_877\n        /* \"#utility.yul\":24709:24710   */\n      dup3\n        /* \"#utility.yul\":24691:24711   */\n      tag_525\n      jump\t// in\n    tag_877:\n        /* \"#utility.yul\":24686:24711   */\n      swap2\n      pop\n        /* \"#utility.yul\":24725:24745   */\n      tag_878\n        /* \"#utility.yul\":24743:24744   */\n      dup4\n        /* \"#utility.yul\":24725:24745   */\n      tag_525\n      jump\t// in\n    tag_878:\n        /* \"#utility.yul\":24720:24745   */\n      swap3\n      pop\n        /* \"#utility.yul\":24768:24769   */\n      dup3\n        /* \"#utility.yul\":24765:24766   */\n      dup3\n        /* \"#utility.yul\":24761:24770   */\n      add\n        /* \"#utility.yul\":24754:24770   */\n      swap1\n      pop\n        /* \"#utility.yul\":24789:24792   */\n      dup1\n        /* \"#utility.yul\":24786:24787   */\n      dup3\n        /* \"#utility.yul\":24783:24793   */\n      gt\n        /* \"#utility.yul\":24780:24816   */\n      iszero\n      tag_879\n      jumpi\n        /* \"#utility.yul\":24796:24814   */\n      tag_880\n      tag_582\n      jump\t// in\n    tag_880:\n        /* \"#utility.yul\":24780:24816   */\n    tag_879:\n        /* \"#utility.yul\":24632:24823   */\n      swap3\n      swap2\n      pop\n      pop\n      jump\t// out\n        /* \"#utility.yul\":24829:25023   */\n    tag_223:\n        /* \"#utility.yul\":24869:24873   */\n      0x00\n        /* \"#utility.yul\":24889:24909   */\n      tag_882\n        /* \"#utility.yul\":24907:24908   */\n      dup3\n        /* \"#utility.yul\":24889:24909   */\n      tag_525\n      jump\t// in\n    tag_882:\n        /* \"#utility.yul\":24884:24909   */\n      swap2\n      pop\n        /* \"#utility.yul\":24923:24943   */\n      tag_883\n        /* \"#utility.yul\":24941:24942   */\n      dup4\n        /* \"#utility.yul\":24923:24943   */\n      tag_525\n      jump\t// in\n    tag_883:\n        /* \"#utility.yul\":24918:24943   */\n      swap3\n      pop\n        /* \"#utility.yul\":24967:24968   */\n      dup3\n        /* \"#utility.yul\":24964:24965   */\n      dup3\n        /* \"#utility.yul\":24960:24969   */\n      sub\n        /* \"#utility.yul\":24952:24969   */\n      swap1\n      pop\n        /* \"#utility.yul\":24991:24992   */\n      dup2\n        /* \"#utility.yul\":24985:24989   */\n      dup2\n        /* \"#utility.yul\":24982:24993   */\n      gt\n        /* \"#utility.yul\":24979:25016   */\n      iszero\n      tag_884\n      jumpi\n        /* \"#utility.yul\":24996:25014   */\n      tag_885\n      tag_582\n      jump\t// in\n    tag_885:\n        /* \"#utility.yul\":24979:25016   */\n    tag_884:\n        /* \"#utility.yul\":24829:25023   */\n      swap3\n      swap2\n      pop\n      pop\n      jump\t// out\n        /* \"#utility.yul\":25029:25115   */\n    tag_583:\n        /* \"#utility.yul\":25064:25071   */\n      0x00\n        /* \"#utility.yul\":25104:25108   */\n      0xff\n        /* \"#utility.yul\":25097:25102   */\n      dup3\n        /* \"#utility.yul\":25093:25109   */\n      and\n        /* \"#utility.yul\":25082:25109   */\n      swap1\n      pop\n        /* \"#utility.yul\":25029:25115   */\n      swap2\n      swap1\n      pop\n      jump\t// out\n        /* \"#utility.yul\":25121:25312   */\n    tag_254:\n        /* \"#utility.yul\":25159:25163   */\n      0x00\n        /* \"#utility.yul\":25179:25197   */\n      tag_888\n        /* \"#utility.yul\":25195:25196   */\n      dup3\n        /* \"#utility.yul\":25179:25197   */\n      tag_583\n      jump\t// in\n    tag_888:\n        /* \"#utility.yul\":25174:25197   */\n      swap2\n      pop\n        /* \"#utility.yul\":25211:25229   */\n      tag_889\n        /* \"#utility.yul\":25227:25228   */\n      dup4\n        /* \"#utility.yul\":25211:25229   */\n      tag_583\n      jump\t// in\n    tag_889:\n        /* \"#utility.yul\":25206:25229   */\n      swap3\n      pop\n        /* \"#utility.yul\":25253:25254   */\n      dup3\n        /* \"#utility.yul\":25250:25251   */\n      dup3\n        /* \"#utility.yul\":25246:25255   */\n      sub\n        /* \"#utility.yul\":25238:25255   */\n      swap1\n      pop\n        /* \"#utility.yul\":25277:25281   */\n      0xff\n        /* \"#utility.yul\":25271:25275   */\n      dup2\n        /* \"#utility.yul\":25268:25282   */\n      gt\n        /* \"#utility.yul\":25265:25305   */\n      iszero\n      tag_890\n      jumpi\n        /* \"#utility.yul\":25285:25303   */\n      tag_891\n      tag_582\n      jump\t// in\n    tag_891:\n        /* \"#utility.yul\":25265:25305   */\n    tag_890:\n        /* \"#utility.yul\":25121:25312   */\n      swap3\n      swap2\n      pop\n      pop\n      jump\t// out\n        /* \"#utility.yul\":25318:25551   */\n    tag_258:\n        /* \"#utility.yul\":25357:25360   */\n      0x00\n        /* \"#utility.yul\":25380:25404   */\n      tag_893\n        /* \"#utility.yul\":25398:25403   */\n      dup3\n        /* \"#utility.yul\":25380:25404   */\n      tag_525\n      jump\t// in\n    tag_893:\n        /* \"#utility.yul\":25371:25404   */\n      swap2\n      pop\n        /* \"#utility.yul\":25426:25492   */\n      0xffffffffffffffffffffffffffffffffffffffffffffffffffffffffffffffff\n        /* \"#utility.yul\":25419:25424   */\n      dup3\n        /* \"#utility.yul\":25416:25493   */\n      sub\n        /* \"#utility.yul\":25413:25516   */\n      tag_894\n      jumpi\n        /* \"#utility.yul\":25496:25514   */\n      tag_895\n      tag_582\n      jump\t// in\n    tag_895:\n        /* \"#utility.yul\":25413:25516   */\n    tag_894:\n        /* \"#utility.yul\":25543:25544   */\n      0x01\n        /* \"#utility.yul\":25536:25541   */\n      dup3\n        /* \"#utility.yul\":25532:25545   */\n      add\n        /* \"#utility.yul\":25525:25545   */\n      swap1\n      pop\n        /* \"#utility.yul\":25318:25551   */\n      swap2\n      swap1\n      pop\n      jump\t// out\n        /* \"#utility.yul\":25557:25782   */\n    tag_584:\n        /* \"#utility.yul\":25697:25731   */\n      0x507572636861736520616d6f756e74206d757374206265206772656174657220\n        /* \"#utility.yul\":25693:25694   */\n      0x00\n        /* \"#utility.yul\":25685:25691   */\n      dup3\n        /* \"#utility.yul\":25681:25695   */\n      add\n        /* \"#utility.yul\":25674:25732   */\n      mstore\n        /* \"#utility.yul\":25766:25774   */\n      0x7468616e20300000000000000000000000000000000000000000000000000000\n        /* \"#utility.yul\":25761:25763   */\n      0x20\n        /* \"#utility.yul\":25753:25759   */\n      dup3\n        /* \"#utility.yul\":25749:25764   */\n      add\n        /* \"#utility.yul\":25742:25775   */\n      mstore\n        /* \"#utility.yul\":25557:25782   */\n      pop\n      jump\t// out\n        /* \"#utility.yul\":25788:26154   */\n    tag_585:\n        /* \"#utility.yul\":25930:25933   */\n      0x00\n        /* \"#utility.yul\":25951:26018   */\n      tag_898\n        /* \"#utility.yul\":26015:26017   */\n      0x26\n        /* \"#utility.yul\":26010:26013   */\n      dup4\n        /* \"#utility.yul\":25951:26018   */\n      tag_540\n      jump\t// in\n    tag_898:\n        /* \"#utility.yul\":25944:26018   */\n      swap2\n      pop\n        /* \"#utility.yul\":26027:26120   */\n      tag_899\n        /* \"#utility.yul\":26116:26119   */\n      dup3\n        /* \"#utility.yul\":26027:26120   */\n      tag_584\n      jump\t// in\n    tag_899:\n        /* \"#utility.yul\":26145:26147   */\n      0x40\n        /* \"#utility.yul\":26140:26143   */\n      dup3\n        /* \"#utility.yul\":26136:26148   */\n      add\n        /* \"#utility.yul\":26129:26148   */\n      swap1\n      pop\n        /* \"#utility.yul\":25788:26154   */\n      swap2\n      swap1\n      pop\n      jump\t// out\n        /* \"#utility.yul\":26160:26579   */\n    tag_278:\n        /* \"#utility.yul\":26326:26330   */\n      0x00\n        /* \"#utility.yul\":26364:26366   */\n      0x20\n        /* \"#utility.yul\":26353:26362   */\n      dup3\n        /* \"#utility.yul\":26349:26367   */\n      add\n        /* \"#utility.yul\":26341:26367   */\n      swap1\n      pop\n        /* \"#utility.yul\":26413:26422   */\n      dup2\n        /* \"#utility.yul\":26407:26411   */\n      dup2\n        /* \"#utility.yul\":26403:26423   */\n      sub\n        /* \"#utility.yul\":26399:26400   */\n      0x00\n        /* \"#utility.yul\":26388:26397   */\n      dup4\n        /* \"#utility.yul\":26384:26401   */\n      add\n        /* \"#utility.yul\":26377:26424   */\n      mstore\n        /* \"#utility.yul\":26441:26572   */\n      tag_901\n        /* \"#utility.yul\":26567:26571   */\n      dup2\n        /* \"#utility.yul\":26441:26572   */\n      tag_585\n      jump\t// in\n    tag_901:\n        /* \"#utility.yul\":26433:26572   */\n      swap1\n      pop\n        /* \"#utility.yul\":26160:26579   */\n      swap2\n      swap1\n      pop\n      jump\t// out\n        /* \"#utility.yul\":26585:26753   */\n    tag_586:\n        /* \"#utility.yul\":26725:26745   */\n      0x496e76616c69642070726f647563742049440000000000000000000000000000\n        /* \"#utility.yul\":26721:26722   */\n      0x00\n        /* \"#utility.yul\":26713:26719   */\n      dup3\n        /* \"#utility.yul\":26709:26723   */\n      add\n        /* \"#utility.yul\":26702:26746   */\n      mstore\n        /* \"#utility.yul\":26585:26753   */\n      pop\n      jump\t// out\n        /* \"#utility.yul\":26759:27125   */\n    tag_587:\n        /* \"#utility.yul\":26901:26904   */\n      0x00\n        /* \"#utility.yul\":26922:26989   */\n      tag_904\n        /* \"#utility.yul\":26986:26988   */\n      0x12\n        /* \"#utility.yul\":26981:26984   */\n      dup4\n        /* \"#utility.yul\":26922:26989   */\n      tag_540\n      jump\t// in\n    tag_904:\n        /* \"#utility.yul\":26915:26989   */\n      swap2\n      pop\n        /* \"#utility.yul\":26998:27091   */\n      tag_905\n        /* \"#utility.yul\":27087:27090   */\n      dup3\n        /* \"#utility.yul\":26998:27091   */\n      tag_586\n      jump\t// in\n    tag_905:\n        /* \"#utility.yul\":27116:27118   */\n      0x20\n        /* \"#utility.yul\":27111:27114   */\n      dup3\n        /* \"#utility.yul\":27107:27119   */\n      add\n        /* \"#utility.yul\":27100:27119   */\n      swap1\n      pop\n        /* \"#utility.yul\":26759:27125   */\n      swap2\n      swap1\n      pop\n      jump\t// out\n        /* \"#utility.yul\":27131:27550   */\n    tag_281:\n        /* \"#utility.yul\":27297:27301   */\n      0x00\n        /* \"#utility.yul\":27335:27337   */\n      0x20\n        /* \"#utility.yul\":27324:27333   */\n      dup3\n        /* \"#utility.yul\":27320:27338   */\n      add\n        /* \"#utility.yul\":27312:27338   */\n      swap1\n      pop\n        /* \"#utility.yul\":27384:27393   */\n      dup2\n        /* \"#utility.yul\":27378:27382   */\n      dup2\n        /* \"#utility.yul\":27374:27394   */\n      sub\n        /* \"#utility.yul\":27370:27371   */\n      0x00\n        /* \"#utility.yul\":27359:27368   */\n      dup4\n        /* \"#utility.yul\":27355:27372   */\n      add\n        /* \"#utility.yul\":27348:27395   */\n      mstore\n        /* \"#utility.yul\":27412:27543   */\n      tag_907\n        /* \"#utility.yul\":27538:27542   */\n      dup2\n        /* \"#utility.yul\":27412:27543   */\n      tag_587\n      jump\t// in\n    tag_907:\n        /* \"#utility.yul\":27404:27543   */\n      swap1\n      pop\n        /* \"#utility.yul\":27131:27550   */\n      swap2\n      swap1\n      pop\n      jump\t// out\n        /* \"#utility.yul\":27556:27735   */\n    tag_588:\n        /* \"#utility.yul\":27724:27728   */\n      0x4141000000000000000000000000000000000000000000000000000000000000\n        /* \"#utility.yul\":27719:27722   */\n      dup2\n        /* \"#utility.yul\":27712:27729   */\n      mstore\n        /* \"#utility.yul\":27556:27735   */\n      pop\n      jump\t// out\n        /* \"#utility.yul\":27741:27889   */\n    tag_589:\n        /* \"#utility.yul\":27843:27854   */\n      0x00\n        /* \"#utility.yul\":27880:27883   */\n      dup2\n        /* \"#utility.yul\":27865:27883   */\n      swap1\n      pop\n        /* \"#utility.yul\":27741:27889   */\n      swap3\n      swap2\n      pop\n      pop\n      jump\t// out\n        /* \"#utility.yul\":27895:28285   */\n    tag_590:\n        /* \"#utility.yul\":28001:28004   */\n      0x00\n        /* \"#utility.yul\":28029:28068   */\n      tag_911\n        /* \"#utility.yul\":28062:28067   */\n      dup3\n        /* \"#utility.yul\":28029:28068   */\n      tag_539\n      jump\t// in\n    tag_911:\n        /* \"#utility.yul\":28084:28173   */\n      tag_912\n        /* \"#utility.yul\":28166:28172   */\n      dup2\n        /* \"#utility.yul\":28161:28164   */\n      dup6\n        /* \"#utility.yul\":28084:28173   */\n      tag_589\n      jump\t// in\n    tag_912:\n        /* \"#utility.yul\":28077:28173   */\n      swap4\n      pop\n        /* \"#utility.yul\":28182:28247   */\n      tag_913\n        /* \"#utility.yul\":28240:28246   */\n      dup2\n        /* \"#utility.yul\":28235:28238   */\n      dup6\n        /* \"#utility.yul\":28228:28232   */\n      0x20\n        /* \"#utility.yul\":28221:28226   */\n      dup7\n        /* \"#utility.yul\":28217:28233   */\n      add\n        /* \"#utility.yul\":28182:28247   */\n      tag_541\n      jump\t// in\n    tag_913:\n        /* \"#utility.yul\":28272:28278   */\n      dup1\n        /* \"#utility.yul\":28267:28270   */\n      dup5\n        /* \"#utility.yul\":28263:28279   */\n      add\n        /* \"#utility.yul\":28256:28279   */\n      swap2\n      pop\n        /* \"#utility.yul\":28005:28285   */\n      pop\n        /* \"#utility.yul\":27895:28285   */\n      swap3\n      swap2\n      pop\n      pop\n      jump\t// out\n        /* \"#utility.yul\":28291:28470   */\n    tag_591:\n        /* \"#utility.yul\":28459:28463   */\n      0x4242000000000000000000000000000000000000000000000000000000000000\n        /* \"#utility.yul\":28454:28457   */\n      dup2\n        /* \"#utility.yul\":28447:28464   */\n      mstore\n        /* \"#utility.yul\":28291:28470   */\n      pop\n      jump\t// out\n        /* \"#utility.yul\":28476:29279   */\n    tag_291:\n        /* \"#utility.yul\":28788:28791   */\n      0x00\n        /* \"#utility.yul\":28803:28940   */\n      tag_916\n        /* \"#utility.yul\":28936:28939   */\n      dup3\n        /* \"#utility.yul\":28803:28940   */\n      tag_588\n      jump\t// in\n    tag_916:\n        /* \"#utility.yul\":28965:28966   */\n      0x02\n        /* \"#utility.yul\":28960:28963   */\n      dup3\n        /* \"#utility.yul\":28956:28967   */\n      add\n        /* \"#utility.yul\":28949:28967   */\n      swap2\n      pop\n        /* \"#utility.yul\":28984:29079   */\n      tag_917\n        /* \"#utility.yul\":29075:29078   */\n      dup3\n        /* \"#utility.yul\":29066:29072   */\n      dup5\n        /* \"#utility.yul\":28984:29079   */\n      tag_590\n      jump\t// in\n    tag_917:\n        /* \"#utility.yul\":28977:29079   */\n      swap2\n      pop\n        /* \"#utility.yul\":29089:29226   */\n      tag_918\n        /* \"#utility.yul\":29222:29225   */\n      dup3\n        /* \"#utility.yul\":29089:29226   */\n      tag_591\n      jump\t// in\n    tag_918:\n        /* \"#utility.yul\":29251:29252   */\n      0x02\n        /* \"#utility.yul\":29246:29249   */\n      dup3\n        /* \"#utility.yul\":29242:29253   */\n      add\n        /* \"#utility.yul\":29235:29253   */\n      swap2\n      pop\n        /* \"#utility.yul\":29270:29273   */\n      dup2\n        /* \"#utility.yul\":29263:29273   */\n      swap1\n      pop\n        /* \"#utility.yul\":28476:29279   */\n      swap3\n      swap2\n      pop\n      pop\n      jump\t// out\n        /* \"#utility.yul\":29285:29364   */\n    tag_592:\n        /* \"#utility.yul\":29324:29331   */\n      0x00\n        /* \"#utility.yul\":29353:29358   */\n      dup2\n        /* \"#utility.yul\":29342:29358   */\n      swap1\n      pop\n        /* \"#utility.yul\":29285:29364   */\n      swap2\n      swap1\n      pop\n      jump\t// out\n        /* \"#utility.yul\":29370:29527   */\n    tag_593:\n        /* \"#utility.yul\":29475:29520   */\n      tag_921\n        /* \"#utility.yul\":29495:29519   */\n      tag_922\n        /* \"#utility.yul\":29513:29518   */\n      dup3\n        /* \"#utility.yul\":29495:29519   */\n      tag_525\n      jump\t// in\n    tag_922:\n        /* \"#utility.yul\":29475:29520   */\n      tag_592\n      jump\t// in\n    tag_921:\n        /* \"#utility.yul\":29470:29473   */\n      dup3\n        /* \"#utility.yul\":29463:29521   */\n      mstore\n        /* \"#utility.yul\":29370:29527   */\n      pop\n      pop\n      jump\t// out\n        /* \"#utility.yul\":29533:29627   */\n    tag_594:\n        /* \"#utility.yul\":29566:29574   */\n      0x00\n        /* \"#utility.yul\":29614:29619   */\n      dup2\n        /* \"#utility.yul\":29610:29612   */\n      0x60\n        /* \"#utility.yul\":29606:29620   */\n      shl\n        /* \"#utility.yul\":29585:29620   */\n      swap1\n      pop\n        /* \"#utility.yul\":29533:29627   */\n      swap2\n      swap1\n      pop\n      jump\t// out\n        /* \"#utility.yul\":29633:29727   */\n    tag_595:\n        /* \"#utility.yul\":29672:29679   */\n      0x00\n        /* \"#utility.yul\":29701:29721   */\n      tag_925\n        /* \"#utility.yul\":29715:29720   */\n      dup3\n        /* \"#utility.yul\":29701:29721   */\n      tag_594\n      jump\t// in\n    tag_925:\n        /* \"#utility.yul\":29690:29721   */\n      swap1\n      pop\n        /* \"#utility.yul\":29633:29727   */\n      swap2\n      swap1\n      pop\n      jump\t// out\n        /* \"#utility.yul\":29733:29833   */\n    tag_596:\n        /* \"#utility.yul\":29772:29779   */\n      0x00\n        /* \"#utility.yul\":29801:29827   */\n      tag_927\n        /* \"#utility.yul\":29821:29826   */\n      dup3\n        /* \"#utility.yul\":29801:29827   */\n      tag_595\n      jump\t// in\n    tag_927:\n        /* \"#utility.yul\":29790:29827   */\n      swap1\n      pop\n        /* \"#utility.yul\":29733:29833   */\n      swap2\n      swap1\n      pop\n      jump\t// out\n        /* \"#utility.yul\":29839:29996   */\n    tag_597:\n        /* \"#utility.yul\":29944:29989   */\n      tag_929\n        /* \"#utility.yul\":29964:29988   */\n      tag_930\n        /* \"#utility.yul\":29982:29987   */\n      dup3\n        /* \"#utility.yul\":29964:29988   */\n      tag_533\n      jump\t// in\n    tag_930:\n        /* \"#utility.yul\":29944:29989   */\n      tag_596\n      jump\t// in\n    tag_929:\n        /* \"#utility.yul\":29939:29942   */\n      dup3\n        /* \"#utility.yul\":29932:29990   */\n      mstore\n        /* \"#utility.yul\":29839:29996   */\n      pop\n      pop\n      jump\t// out\n        /* \"#utility.yul\":30002:30540   */\n    tag_322:\n        /* \"#utility.yul\":30170:30173   */\n      0x00\n        /* \"#utility.yul\":30185:30260   */\n      tag_932\n        /* \"#utility.yul\":30256:30259   */\n      dup3\n        /* \"#utility.yul\":30247:30253   */\n      dup7\n        /* \"#utility.yul\":30185:30260   */\n      tag_593\n      jump\t// in\n    tag_932:\n        /* \"#utility.yul\":30285:30287   */\n      0x20\n        /* \"#utility.yul\":30280:30283   */\n      dup3\n        /* \"#utility.yul\":30276:30288   */\n      add\n        /* \"#utility.yul\":30269:30288   */\n      swap2\n      pop\n        /* \"#utility.yul\":30298:30373   */\n      tag_933\n        /* \"#utility.yul\":30369:30372   */\n      dup3\n        /* \"#utility.yul\":30360:30366   */\n      dup6\n        /* \"#utility.yul\":30298:30373   */\n      tag_597\n      jump\t// in\n    tag_933:\n        /* \"#utility.yul\":30398:30400   */\n      0x14\n        /* \"#utility.yul\":30393:30396   */\n      dup3\n        /* \"#utility.yul\":30389:30401   */\n      add\n        /* \"#utility.yul\":30382:30401   */\n      swap2\n      pop\n        /* \"#utility.yul\":30411:30486   */\n      tag_934\n        /* \"#utility.yul\":30482:30485   */\n      dup3\n        /* \"#utility.yul\":30473:30479   */\n      dup5\n        /* \"#utility.yul\":30411:30486   */\n      tag_593\n      jump\t// in\n    tag_934:\n        /* \"#utility.yul\":30511:30513   */\n      0x20\n        /* \"#utility.yul\":30506:30509   */\n      dup3\n        /* \"#utility.yul\":30502:30514   */\n      add\n        /* \"#utility.yul\":30495:30514   */\n      swap2\n      pop\n        /* \"#utility.yul\":30531:30534   */\n      dup2\n        /* \"#utility.yul\":30524:30534   */\n      swap1\n      pop\n        /* \"#utility.yul\":30002:30540   */\n      swap5\n      swap4\n      pop\n      pop\n      pop\n      pop\n      jump\t// out\n        /* \"#utility.yul\":30546:30726   */\n    tag_598:\n        /* \"#utility.yul\":30594:30671   */\n      0x4e487b7100000000000000000000000000000000000000000000000000000000\n        /* \"#utility.yul\":30591:30592   */\n      0x00\n        /* \"#utility.yul\":30584:30672   */\n      mstore\n        /* \"#utility.yul\":30691:30695   */\n      0x12\n        /* \"#utility.yul\":30688:30689   */\n      0x04\n        /* \"#utility.yul\":30681:30696   */\n      mstore\n        /* \"#utility.yul\":30715:30719   */\n      0x24\n        /* \"#utility.yul\":30712:30713   */\n      0x00\n        /* \"#utility.yul\":30705:30720   */\n      revert\n        /* \"#utility.yul\":30732:30908   */\n    tag_324:\n        /* \"#utility.yul\":30764:30765   */\n      0x00\n        /* \"#utility.yul\":30781:30801   */\n      tag_937\n        /* \"#utility.yul\":30799:30800   */\n      dup3\n        /* \"#utility.yul\":30781:30801   */\n      tag_525\n      jump\t// in\n    tag_937:\n        /* \"#utility.yul\":30776:30801   */\n      swap2\n      pop\n        /* \"#utility.yul\":30815:30835   */\n      tag_938\n        /* \"#utility.yul\":30833:30834   */\n      dup4\n        /* \"#utility.yul\":30815:30835   */\n      tag_525\n      jump\t// in\n    tag_938:\n        /* \"#utility.yul\":30810:30835   */\n      swap3\n      pop\n        /* \"#utility.yul\":30854:30855   */\n      dup3\n        /* \"#utility.yul\":30844:30879   */\n      tag_939\n      jumpi\n        /* \"#utility.yul\":30859:30877   */\n      tag_940\n      tag_598\n      jump\t// in\n    tag_940:\n        /* \"#utility.yul\":30844:30879   */\n    tag_939:\n        /* \"#utility.yul\":30900:30901   */\n      dup3\n        /* \"#utility.yul\":30897:30898   */\n      dup3\n        /* \"#utility.yul\":30893:30902   */\n      mod\n        /* \"#utility.yul\":30888:30902   */\n      swap1\n      pop\n        /* \"#utility.yul\":30732:30908   */\n      swap3\n      swap2\n      pop\n      pop\n      jump\t// out\n        /* \"#utility.yul\":30914:31099   */\n    tag_334:\n        /* \"#utility.yul\":30954:30955   */\n      0x00\n        /* \"#utility.yul\":30971:30991   */\n      tag_942\n        /* \"#utility.yul\":30989:30990   */\n      dup3\n        /* \"#utility.yul\":30971:30991   */\n      tag_525\n      jump\t// in\n    tag_942:\n        /* \"#utility.yul\":30966:30991   */\n      swap2\n      pop\n        /* \"#utility.yul\":31005:31025   */\n      tag_943\n        /* \"#utility.yul\":31023:31024   */\n      dup4\n        /* \"#utility.yul\":31005:31025   */\n      tag_525\n      jump\t// in\n    tag_943:\n        /* \"#utility.yul\":31000:31025   */\n      swap3\n      pop\n        /* \"#utility.yul\":31044:31045   */\n      dup3\n        /* \"#utility.yul\":31034:31069   */\n      tag_944\n      jumpi\n        /* \"#utility.yul\":31049:31067   */\n      tag_945\n      tag_598\n      jump\t// in\n    tag_945:\n        /* \"#utility.yul\":31034:31069   */\n    tag_944:\n        /* \"#utility.yul\":31091:31092   */\n      dup3\n        /* \"#utility.yul\":31088:31089   */\n      dup3\n        /* \"#utility.yul\":31084:31093   */\n      div\n        /* \"#utility.yul\":31079:31093   */\n      swap1\n      pop\n        /* \"#utility.yul\":30914:31099   */\n      swap3\n      swap2\n      pop\n      pop\n      jump\t// out\n        /* \"#utility.yul\":31105:31281   */\n    tag_599:\n        /* \"#utility.yul\":31245:31273   */\n      0x4e6f7420656e6f7567682073746f636b20617661696c61626c65000000000000\n        /* \"#utility.yul\":31241:31242   */\n      0x00\n        /* \"#utility.yul\":31233:31239   */\n      dup3\n        /* \"#utility.yul\":31229:31243   */\n      add\n        /* \"#utility.yul\":31222:31274   */\n      mstore\n        /* \"#utility.yul\":31105:31281   */\n      pop\n      jump\t// out\n        /* \"#utility.yul\":31287:31653   */\n    tag_600:\n        /* \"#utility.yul\":31429:31432   */\n      0x00\n        /* \"#utility.yul\":31450:31517   */\n      tag_948\n        /* \"#utility.yul\":31514:31516   */\n      0x1a\n        /* \"#utility.yul\":31509:31512   */\n      dup4\n        /* \"#utility.yul\":31450:31517   */\n      tag_540\n      jump\t// in\n    tag_948:\n        /* \"#utility.yul\":31443:31517   */\n      swap2\n      pop\n        /* \"#utility.yul\":31526:31619   */\n      tag_949\n        /* \"#utility.yul\":31615:31618   */\n      dup3\n        /* \"#utility.yul\":31526:31619   */\n      tag_599\n      jump\t// in\n    tag_949:\n        /* \"#utility.yul\":31644:31646   */\n      0x20\n        /* \"#utility.yul\":31639:31642   */\n      dup3\n        /* \"#utility.yul\":31635:31647   */\n      add\n        /* \"#utility.yul\":31628:31647   */\n      swap1\n      pop\n        /* \"#utility.yul\":31287:31653   */\n      swap2\n      swap1\n      pop\n      jump\t// out\n        /* \"#utility.yul\":31659:32078   */\n    tag_356:\n        /* \"#utility.yul\":31825:31829   */\n      0x00\n        /* \"#utility.yul\":31863:31865   */\n      0x20\n        /* \"#utility.yul\":31852:31861   */\n      dup3\n        /* \"#utility.yul\":31848:31866   */\n      add\n        /* \"#utility.yul\":31840:31866   */\n      swap1\n      pop\n        /* \"#utility.yul\":31912:31921   */\n      dup2\n        /* \"#utility.yul\":31906:31910   */\n      dup2\n        /* \"#utility.yul\":31902:31922   */\n      sub\n        /* \"#utility.yul\":31898:31899   */\n      0x00\n        /* \"#utility.yul\":31887:31896   */\n      dup4\n        /* \"#utility.yul\":31883:31900   */\n      add\n        /* \"#utility.yul\":31876:31923   */\n      mstore\n        /* \"#utility.yul\":31940:32071   */\n      tag_951\n        /* \"#utility.yul\":32066:32070   */\n      dup2\n        /* \"#utility.yul\":31940:32071   */\n      tag_600\n      jump\t// in\n    tag_951:\n        /* \"#utility.yul\":31932:32071   */\n      swap1\n      pop\n        /* \"#utility.yul\":31659:32078   */\n      swap2\n      swap1\n      pop\n      jump\t// out\n        /* \"#utility.yul\":32084:32359   */\n    tag_362:\n        /* \"#utility.yul\":32216:32219   */\n      0x00\n        /* \"#utility.yul\":32238:32333   */\n      tag_953\n        /* \"#utility.yul\":32329:32332   */\n      dup3\n        /* \"#utility.yul\":32320:32326   */\n      dup5\n        /* \"#utility.yul\":32238:32333   */\n      tag_590\n      jump\t// in\n    tag_953:\n        /* \"#utility.yul\":32231:32333   */\n      swap2\n      pop\n        /* \"#utility.yul\":32350:32353   */\n      dup2\n        /* \"#utility.yul\":32343:32353   */\n      swap1\n      pop\n        /* \"#utility.yul\":32084:32359   */\n      swap3\n      swap2\n      pop\n      pop\n      jump\t// out\n        /* \"#utility.yul\":32365:32538   */\n    tag_601:\n        /* \"#utility.yul\":32505:32530   */\n      0x496e73756666696369656e742066756e64732073656e74000000000000000000\n        /* \"#utility.yul\":32501:32502   */\n      0x00\n        /* \"#utility.yul\":32493:32499   */\n      dup3\n        /* \"#utility.yul\":32489:32503   */\n      add\n        /* \"#utility.yul\":32482:32531   */\n      mstore\n        /* \"#utility.yul\":32365:32538   */\n      pop\n      jump\t// out\n        /* \"#utility.yul\":32544:32910   */\n    tag_602:\n        /* \"#utility.yul\":32686:32689   */\n      0x00\n        /* \"#utility.yul\":32707:32774   */\n      tag_956\n        /* \"#utility.yul\":32771:32773   */\n      0x17\n        /* \"#utility.yul\":32766:32769   */\n      dup4\n        /* \"#utility.yul\":32707:32774   */\n      tag_540\n      jump\t// in\n    tag_956:\n        /* \"#utility.yul\":32700:32774   */\n      swap2\n      pop\n        /* \"#utility.yul\":32783:32876   */\n      tag_957\n        /* \"#utility.yul\":32872:32875   */\n      dup3\n        /* \"#utility.yul\":32783:32876   */\n      tag_601\n      jump\t// in\n    tag_957:\n        /* \"#utility.yul\":32901:32903   */\n      0x20\n        /* \"#utility.yul\":32896:32899   */\n      dup3\n        /* \"#utility.yul\":32892:32904   */\n      add\n        /* \"#utility.yul\":32885:32904   */\n      swap1\n      pop\n        /* \"#utility.yul\":32544:32910   */\n      swap2\n      swap1\n      pop\n      jump\t// out\n        /* \"#utility.yul\":32916:33335   */\n    tag_369:\n        /* \"#utility.yul\":33082:33086   */\n      0x00\n        /* \"#utility.yul\":33120:33122   */\n      0x20\n        /* \"#utility.yul\":33109:33118   */\n      dup3\n        /* \"#utility.yul\":33105:33123   */\n      add\n        /* \"#utility.yul\":33097:33123   */\n      swap1\n      pop\n        /* \"#utility.yul\":33169:33178   */\n      dup2\n        /* \"#utility.yul\":33163:33167   */\n      dup2\n        /* \"#utility.yul\":33159:33179   */\n      sub\n        /* \"#utility.yul\":33155:33156   */\n      0x00\n        /* \"#utility.yul\":33144:33153   */\n      dup4\n        /* \"#utility.yul\":33140:33157   */\n      add\n        /* \"#utility.yul\":33133:33180   */\n      mstore\n        /* \"#utility.yul\":33197:33328   */\n      tag_959\n        /* \"#utility.yul\":33323:33327   */\n      dup2\n        /* \"#utility.yul\":33197:33328   */\n      tag_602\n      jump\t// in\n    tag_959:\n        /* \"#utility.yul\":33189:33328   */\n      swap1\n      pop\n        /* \"#utility.yul\":32916:33335   */\n      swap2\n      swap1\n      pop\n      jump\t// out\n        /* \"#utility.yul\":33341:33488   */\n    tag_603:\n        /* \"#utility.yul\":33442:33453   */\n      0x00\n        /* \"#utility.yul\":33479:33482   */\n      dup2\n        /* \"#utility.yul\":33464:33482   */\n      swap1\n      pop\n        /* \"#utility.yul\":33341:33488   */\n      swap3\n      swap2\n      pop\n      pop\n      jump\t// out\n        /* \"#utility.yul\":33494:33638   */\n    tag_604:\n        /* \"#utility.yul\":33546:33550   */\n      0x00\n        /* \"#utility.yul\":33569:33572   */\n      dup2\n        /* \"#utility.yul\":33561:33572   */\n      swap1\n      pop\n        /* \"#utility.yul\":33592:33595   */\n      dup2\n        /* \"#utility.yul\":33589:33590   */\n      0x00\n        /* \"#utility.yul\":33582:33596   */\n      mstore\n        /* \"#utility.yul\":33626:33630   */\n      0x20\n        /* \"#utility.yul\":33623:33624   */\n      0x00\n        /* \"#utility.yul\":33613:33631   */\n      keccak256\n        /* \"#utility.yul\":33605:33631   */\n      swap1\n      pop\n        /* \"#utility.yul\":33494:33638   */\n      swap2\n      swap1\n      pop\n      jump\t// out\n        /* \"#utility.yul\":33666:34544   */\n    tag_605:\n        /* \"#utility.yul\":33771:33774   */\n      0x00\n        /* \"#utility.yul\":33808:33813   */\n      dup2\n        /* \"#utility.yul\":33802:33814   */\n      sload\n        /* \"#utility.yul\":33837:33873   */\n      tag_963\n        /* \"#utility.yul\":33863:33872   */\n      dup2\n        /* \"#utility.yul\":33837:33873   */\n      tag_168\n      jump\t// in\n    tag_963:\n        /* \"#utility.yul\":33889:33977   */\n      tag_964\n        /* \"#utility.yul\":33970:33976   */\n      dup2\n        /* \"#utility.yul\":33965:33968   */\n      dup7\n        /* \"#utility.yul\":33889:33977   */\n      tag_603\n      jump\t// in\n    tag_964:\n        /* \"#utility.yul\":33882:33977   */\n      swap5\n      pop\n        /* \"#utility.yul\":34008:34009   */\n      0x01\n        /* \"#utility.yul\":33997:34006   */\n      dup3\n        /* \"#utility.yul\":33993:34010   */\n      and\n        /* \"#utility.yul\":34024:34025   */\n      0x00\n        /* \"#utility.yul\":34019:34185   */\n      dup2\n      eq\n      tag_966\n      jumpi\n        /* \"#utility.yul\":34199:34200   */\n      0x01\n        /* \"#utility.yul\":34194:34538   */\n      dup2\n      eq\n      tag_967\n      jumpi\n        /* \"#utility.yul\":33986:34538   */\n      jump(tag_965)\n        /* \"#utility.yul\":34019:34185   */\n    tag_966:\n        /* \"#utility.yul\":34103:34107   */\n      0xff\n        /* \"#utility.yul\":34099:34108   */\n      not\n        /* \"#utility.yul\":34088:34097   */\n      dup4\n        /* \"#utility.yul\":34084:34109   */\n      and\n        /* \"#utility.yul\":34079:34082   */\n      dup7\n        /* \"#utility.yul\":34072:34110   */\n      mstore\n        /* \"#utility.yul\":34165:34171   */\n      dup2\n        /* \"#utility.yul\":34158:34172   */\n      iszero\n        /* \"#utility.yul\":34151:34173   */\n      iszero\n        /* \"#utility.yul\":34143:34149   */\n      dup3\n        /* \"#utility.yul\":34139:34174   */\n      mul\n        /* \"#utility.yul\":34134:34137   */\n      dup7\n        /* \"#utility.yul\":34130:34175   */\n      add\n        /* \"#utility.yul\":34123:34175   */\n      swap4\n      pop\n        /* \"#utility.yul\":34019:34185   */\n      jump(tag_965)\n        /* \"#utility.yul\":34194:34538   */\n    tag_967:\n        /* \"#utility.yul\":34261:34302   */\n      tag_968\n        /* \"#utility.yul\":34296:34301   */\n      dup6\n        /* \"#utility.yul\":34261:34302   */\n      tag_604\n      jump\t// in\n    tag_968:\n        /* \"#utility.yul\":34324:34325   */\n      0x00\n        /* \"#utility.yul\":34338:34492   */\n    tag_969:\n        /* \"#utility.yul\":34352:34358   */\n      dup4\n        /* \"#utility.yul\":34349:34350   */\n      dup2\n        /* \"#utility.yul\":34346:34359   */\n      lt\n        /* \"#utility.yul\":34338:34492   */\n      iszero\n      tag_971\n      jumpi\n        /* \"#utility.yul\":34426:34433   */\n      dup2\n        /* \"#utility.yul\":34420:34434   */\n      sload\n        /* \"#utility.yul\":34416:34417   */\n      dup2\n        /* \"#utility.yul\":34411:34414   */\n      dup10\n        /* \"#utility.yul\":34407:34418   */\n      add\n        /* \"#utility.yul\":34400:34435   */\n      mstore\n        /* \"#utility.yul\":34476:34477   */\n      0x01\n        /* \"#utility.yul\":34467:34474   */\n      dup3\n        /* \"#utility.yul\":34463:34478   */\n      add\n        /* \"#utility.yul\":34452:34478   */\n      swap2\n      pop\n        /* \"#utility.yul\":34374:34378   */\n      0x20\n        /* \"#utility.yul\":34371:34372   */\n      dup2\n        /* \"#utility.yul\":34367:34379   */\n      add\n        /* \"#utility.yul\":34362:34379   */\n      swap1\n      pop\n        /* \"#utility.yul\":34338:34492   */\n      jump(tag_969)\n    tag_971:\n        /* \"#utility.yul\":34521:34527   */\n      dup4\n        /* \"#utility.yul\":34516:34519   */\n      dup9\n        /* \"#utility.yul\":34512:34528   */\n      add\n        /* \"#utility.yul\":34505:34528   */\n      swap6\n      pop\n        /* \"#utility.yul\":34201:34538   */\n      pop\n      pop\n        /* \"#utility.yul\":33986:34538   */\n    tag_965:\n      pop\n        /* \"#utility.yul\":33775:34544   */\n      pop\n      pop\n        /* \"#utility.yul\":33666:34544   */\n      swap3\n      swap2\n      pop\n      pop\n      jump\t// out\n        /* \"#utility.yul\":34550:34823   */\n    tag_377:\n        /* \"#utility.yul\":34681:34684   */\n      0x00\n        /* \"#utility.yul\":34703:34797   */\n      tag_973\n        /* \"#utility.yul\":34793:34796   */\n      dup3\n        /* \"#utility.yul\":34784:34790   */\n      dup5\n        /* \"#utility.yul\":34703:34797   */\n      tag_605\n      jump\t// in\n    tag_973:\n        /* \"#utility.yul\":34696:34797   */\n      swap2\n      pop\n        /* \"#utility.yul\":34814:34817   */\n      dup2\n        /* \"#utility.yul\":34807:34817   */\n      swap1\n      pop\n        /* \"#utility.yul\":34550:34823   */\n      swap3\n      swap2\n      pop\n      pop\n      jump\t// out\n\n    auxdata: 0xa264697066735822122001130b19b7840930afeb4c1795195583ae995b72901dab53b0c768666d1a0aaf64736f6c63430008150033\n}\n",
				"bytecode": {
					"linkReferences": {},
					"object": "608060405234801561000f575f80fd5b503360015f6101000a81548173ffffffffffffffffffffffffffffffffffffffff021916908373ffffffffffffffffffffffffffffffffffffffff1602179055506143c48061005d5f395ff3fe608060405260043610610164575f3560e01c80637555bf10116100d0578063a1ba90b611610089578063d55768dd11610063578063d55768dd14610523578063da76af311461055f578063f6364cc11461057b578063fecd8f791461059157610164565b8063a1ba90b6146104a8578063a87430ba146104d0578063d18a524a1461050d57610164565b80637555bf10146103ae5780637eb33a58146103d6578063805553e8146103fe578063861c2b6d1461043a5780638da5cb5b146104625780639f1cd5871461048c57610164565b80634f424547116101225780634f4245471461028f57806350b44712146102cf57806355dea0b31461030c57806362dd748c1461033457806366d0dc67146103705780636f7647081461038657610164565b80628de16a146101685780631cc117211461019057806327b90b1b146101d15780633d527883146102115780633dfe7dee14610251578063410085df14610267575b5f80fd5b348015610173575f80fd5b5061018e600480360381019061018991906131b4565b6105ad565b005b34801561019b575f80fd5b506101b660048036038101906101b19190613238565b6107ca565b6040516101c8969594939291906133ae565b60405180910390f35b3480156101dc575f80fd5b506101f760048036038101906101f2919061343e565b6108e2565b60405161020895949392919061347c565b60405180910390f35b34801561021c575f80fd5b506102376004803603810190610232919061343e565b6109d3565b60405161024895949392919061347c565b60405180910390f35b34801561025c575f80fd5b50610265610ac4565b005b348015610272575f80fd5b5061028d6004803603810190610288919061343e565b610b64565b005b34801561029a575f80fd5b506102b560048036038101906102b0919061343e565b610f0e565b6040516102c695949392919061347c565b60405180910390f35b3480156102da575f80fd5b506102f560048036038101906102f09190613238565b610fff565b60405161030392919061351a565b60405180910390f35b348015610317575f80fd5b50610332600480360381019061032d9190613564565b611054565b005b34801561033f575f80fd5b5061035a600480360381019061035591906136b7565b61112c565b60405161036791906136fe565b60405180910390f35b34801561037b575f80fd5b50610384611229565b005b348015610391575f80fd5b506103ac60048036038101906103a79190613238565b6112ca565b005b3480156103b9575f80fd5b506103d460048036038101906103cf919061371e565b6113fb565b005b3480156103e1575f80fd5b506103fc60048036038101906103f791906137a3565b61175b565b005b348015610409575f80fd5b50610424600480360381019061041f9190613238565b6118b6565b60405161043191906137e1565b60405180910390f35b348015610445575f80fd5b50610460600480360381019061045b91906137fa565b611906565b005b34801561046d575f80fd5b50610476611b30565b6040516104839190613890565b60405180910390f35b6104a660048036038101906104a191906138a9565b611b55565b005b3480156104b3575f80fd5b506104ce60048036038101906104c99190613929565b6124c9565b005b3480156104db575f80fd5b506104f660048036038101906104f19190613983565b612560565b6040516105049291906139ae565b60405180910390f35b348015610518575f80fd5b5061052161258c565b005b34801561052e575f80fd5b50610549600480360381019061054491906136b7565b61262c565b6040516105569190613890565b60405180910390f35b610579600480360381019061057491906137a3565b612674565b005b348015610586575f80fd5b5061058f61286f565b005b6105ab60048036038101906105a691906139d5565b6129ee565b005b60018060028111156105c2576105c16132a2565b5b60035f3373ffffffffffffffffffffffffffffffffffffffff1673ffffffffffffffffffffffffffffffffffffffff1681526020019081526020015f205f015f9054906101000a900460ff1660028111156106205761061f6132a2565b5b14610660576040517f08c379a000000000000000000000000000000000000000000000000000000000815260040161065790613aa9565b60405180910390fd5b5f6040518060a001604052803373ffffffffffffffffffffffffffffffffffffffff16815260200188815260200187815260200186868080601f0160208091040260200160405190810160405280939291908181526020018383808284375f81840152601f19601f82011690508083019250505050505050815260200184815250905060055f3373ffffffffffffffffffffffffffffffffffffffff1673ffffffffffffffffffffffffffffffffffffffff1681526020019081526020015f2081908060018154018082558091505060019003905f5260205f2090600502015f909190919091505f820151815f015f6101000a81548173ffffffffffffffffffffffffffffffffffffffff021916908373ffffffffffffffffffffffffffffffffffffffff160217905550602082015181600101556040820151816002015560608201518160030190816107b49190613cc1565b5060808201518160040155505050505050505050565b600281815481106107d9575f80fd5b905f5260205f2090600502015f91509050805f015f9054906101000a900473ffffffffffffffffffffffffffffffffffffffff1690806001015f9054906101000a900473ffffffffffffffffffffffffffffffffffffffff16908060010160149054906101000a900460ff169080600201805461085590613af4565b80601f016020809104026020016040519081016040528092919081815260200182805461088190613af4565b80156108cc5780601f106108a3576101008083540402835291602001916108cc565b820191905f5260205f20905b8154815290600101906020018083116108af57829003601f168201915b5050505050908060030154908060040154905086565b6006602052815f5260405f2081815481106108fb575f80fd5b905f5260205f2090600502015f9150915050805f015f9054906101000a900473ffffffffffffffffffffffffffffffffffffffff169080600101549080600201549080600301805461094c90613af4565b80601f016020809104026020016040519081016040528092919081815260200182805461097890613af4565b80156109c35780601f1061099a576101008083540402835291602001916109c3565b820191905f5260205f20905b8154815290600101906020018083116109a657829003601f168201915b5050505050908060040154905085565b6004602052815f5260405f2081815481106109ec575f80fd5b905f5260205f2090600502015f9150915050805f015f9054906101000a900473ffffffffffffffffffffffffffffffffffffffff1690806001015490806002015490806003018054610a3d90613af4565b80601f0160208091040260200160405190810160405280929190818152602001828054610a6990613af4565b8015610ab45780601f10610a8b57610100808354040283529160200191610ab4565b820191905f5260205f20905b815481529060010190602001808311610a9757829003601f168201915b5050505050908060040154905085565b6040518060400160405280600280811115610ae257610ae16132a2565b5b81526020015f81525060035f3373ffffffffffffffffffffffffffffffffffffffff1673ffffffffffffffffffffffffffffffffffffffff1681526020019081526020015f205f820151815f015f6101000a81548160ff02191690836002811115610b5057610b4f6132a2565b5b021790555060208201518160010155905050565b60055f8373ffffffffffffffffffffffffffffffffffffffff1673ffffffffffffffffffffffffffffffffffffffff1681526020019081526020015f208181548110610bb357610bb2613d90565b5b905f5260205f2090600502016004015460045f3373ffffffffffffffffffffffffffffffffffffffff1673ffffffffffffffffffffffffffffffffffffffff1681526020019081526020015f208281548110610c1257610c11613d90565b5b905f5260205f2090600502016004015411610c2b575f80fd5b5f60055f8473ffffffffffffffffffffffffffffffffffffffff1673ffffffffffffffffffffffffffffffffffffffff1681526020019081526020015f208281548110610c7b57610c7a613d90565b5b905f5260205f2090600502016002015460045f3373ffffffffffffffffffffffffffffffffffffffff1673ffffffffffffffffffffffffffffffffffffffff1681526020019081526020015f208381548110610cda57610cd9613d90565b5b905f5260205f20906005020160010154610cf49190613dea565b905060045f3373ffffffffffffffffffffffffffffffffffffffff1673ffffffffffffffffffffffffffffffffffffffff1681526020019081526020015f208281548110610d4557610d44613d90565b5b905f5260205f2090600502016001015460055f8573ffffffffffffffffffffffffffffffffffffffff1673ffffffffffffffffffffffffffffffffffffffff1681526020019081526020015f208381548110610da457610da3613d90565b5b905f5260205f2090600502016001015f828254610dc19190613e2b565b9250508190555060045f3373ffffffffffffffffffffffffffffffffffffffff1673ffffffffffffffffffffffffffffffffffffffff1681526020019081526020015f208281548110610e1757610e16613d90565b5b905f5260205f2090600502015f8082015f6101000a81549073ffffffffffffffffffffffffffffffffffffffff0219169055600182015f9055600282015f9055600382015f610e6691906130b7565b600482015f905550508060035f8573ffffffffffffffffffffffffffffffffffffffff1673ffffffffffffffffffffffffffffffffffffffff1681526020019081526020015f206001015f828254610ebe9190613e5e565b925050819055503373ffffffffffffffffffffffffffffffffffffffff166108fc8290811502906040515f60405180830381858888f19350505050158015610f08573d5f803e3d5ffd5b50505050565b6005602052815f5260405f208181548110610f27575f80fd5b905f5260205f2090600502015f9150915050805f015f9054906101000a900473ffffffffffffffffffffffffffffffffffffffff1690806001015490806002015490806003018054610f7890613af4565b80601f0160208091040260200160405190810160405280929190818152602001828054610fa490613af4565b8015610fef5780601f10610fc657610100808354040283529160200191610fef565b820191905f5260205f20905b815481529060010190602001808311610fd257829003601f168201915b5050505050908060040154905085565b5f818154811061100d575f80fd5b905f5260205f20015f91509050805f015f9054906101000a900473ffffffffffffffffffffffffffffffffffffffff1690805f0160149054906101000a900460ff16905082565b5f60405180604001604052803373ffffffffffffffffffffffffffffffffffffffff16815260200183600281111561108f5761108e6132a2565b5b815250908060018154018082558091505060019003905f5260205f20015f909190919091505f820151815f015f6101000a81548173ffffffffffffffffffffffffffffffffffffffff021916908373ffffffffffffffffffffffffffffffffffffffff1602179055506020820151815f0160146101000a81548160ff02191690836002811115611122576111216132a2565b5b0217905550505050565b60605f8290505f5b815181101561121f57606182828151811061115257611151613d90565b5b602001015160f81c60f81b60f81c60ff16101580156111955750607a82828151811061118157611180613d90565b5b602001015160f81c60f81b60f81c60ff1611155b1561120c5760208282815181106111af576111ae613d90565b5b602001015160f81c60f81b60f81c6111c79190613e9d565b60f81b8282815181106111dd576111dc613d90565b5b60200101907effffffffffffffffffffffffffffffffffffffffffffffffffffffffffffff191690815f1a9053505b808061121790613ed1565b915050611134565b5080915050919050565b604051806040016040528060016002811115611248576112476132a2565b5b81526020015f81525060035f3373ffffffffffffffffffffffffffffffffffffffff1673ffffffffffffffffffffffffffffffffffffffff1681526020019081526020015f205f820151815f015f6101000a81548160ff021916908360028111156112b6576112b56132a2565b5b021790555060208201518160010155905050565b60015f9054906101000a900473ffffffffffffffffffffffffffffffffffffffff1673ffffffffffffffffffffffffffffffffffffffff163373ffffffffffffffffffffffffffffffffffffffff1614611322575f80fd5b5f80828154811061133657611335613d90565b5b905f5260205f20015f015f9054906101000a900473ffffffffffffffffffffffffffffffffffffffff1690505f80838154811061137657611375613d90565b5b905f5260205f20015f0160149054906101000a900460ff1690508060035f8473ffffffffffffffffffffffffffffffffffffffff1673ffffffffffffffffffffffffffffffffffffffff1681526020019081526020015f205f015f6101000a81548160ff021916908360028111156113f1576113f06132a2565b5b0217905550505050565b5f811161143d576040517f08c379a000000000000000000000000000000000000000000000000000000000815260040161143490613f88565b60405180910390fd5b60055f8473ffffffffffffffffffffffffffffffffffffffff1673ffffffffffffffffffffffffffffffffffffffff1681526020019081526020015f208054905082106114bf576040517f08c379a00000000000000000000000000000000000000000000000000000000081526004016114b690613ff0565b60405180910390fd5b5f60055f8573ffffffffffffffffffffffffffffffffffffffff1673ffffffffffffffffffffffffffffffffffffffff1681526020019081526020015f20838154811061150f5761150e613d90565b5b905f5260205f209060050201600301805461152990613af4565b80601f016020809104026020016040519081016040528092919081815260200182805461155590613af4565b80156115a05780601f10611577576101008083540402835291602001916115a0565b820191905f5260205f20905b81548152906001019060200180831161158357829003601f168201915b505050505090505f816040516020016115b99190614094565b60405160208183030381529060405290506115d38161112c565b90505f6040518060c001604052803373ffffffffffffffffffffffffffffffffffffffff1681526020018773ffffffffffffffffffffffffffffffffffffffff1681526020016001600381111561162d5761162c6132a2565b5b8152602001838152602001868152602001858152509050600281908060018154018082558091505060019003905f5260205f2090600502015f909190919091505f820151815f015f6101000a81548173ffffffffffffffffffffffffffffffffffffffff021916908373ffffffffffffffffffffffffffffffffffffffff1602179055506020820151816001015f6101000a81548173ffffffffffffffffffffffffffffffffffffffff021916908373ffffffffffffffffffffffffffffffffffffffff16021790555060408201518160010160146101000a81548160ff02191690836003811115611722576117216132a2565b5b0217905550606082015181600201908161173c9190613cc1565b506080820151816003015560a082015181600401555050505050505050565b60018060028111156117705761176f6132a2565b5b60035f3373ffffffffffffffffffffffffffffffffffffffff1673ffffffffffffffffffffffffffffffffffffffff1681526020019081526020015f205f015f9054906101000a900460ff1660028111156117ce576117cd6132a2565b5b1461180e576040517f08c379a000000000000000000000000000000000000000000000000000000000815260040161180590613aa9565b60405180910390fd5b82156118655760016002838154811061182a57611829613d90565b5b905f5260205f20906005020160010160146101000a81548160ff0219169083600381111561185b5761185a6132a2565b5b02179055506118b1565b600280838154811061187a57611879613d90565b5b905f5260205f20906005020160010160146101000a81548160ff021916908360038111156118ab576118aa6132a2565b5b02179055505b505050565b5f8080806118c390613ed1565b915050824233836040516020016118dc9392919061412d565b604051602081830303815290604052805190602001205f1c6118fe9190614196565b915050919050565b600280600281111561191b5761191a6132a2565b5b60035f3373ffffffffffffffffffffffffffffffffffffffff1673ffffffffffffffffffffffffffffffffffffffff1681526020019081526020015f205f015f9054906101000a900460ff166002811115611979576119786132a2565b5b146119b9576040517f08c379a00000000000000000000000000000000000000000000000000000000081526004016119b090613aa9565b60405180910390fd5b5f6040518060a001604052808473ffffffffffffffffffffffffffffffffffffffff1681526020018981526020016002896119f491906141c6565b815260200187878080601f0160208091040260200160405190810160405280939291908181526020018383808284375f81840152601f19601f82011690508083019250505050505050815260200185815250905060065f8473ffffffffffffffffffffffffffffffffffffffff1673ffffffffffffffffffffffffffffffffffffffff1681526020019081526020015f2081908060018154018082558091505060019003905f5260205f2090600502015f909190919091505f820151815f015f6101000a81548173ffffffffffffffffffffffffffffffffffffffff021916908373ffffffffffffffffffffffffffffffffffffffff16021790555060208201518160010155604082015181600201556060820151816003019081611b199190613cc1565b506080820151816004015550505050505050505050565b60015f9054906101000a900473ffffffffffffffffffffffffffffffffffffffff1681565b5f6002811115611b6857611b676132a2565b5b60035f3373ffffffffffffffffffffffffffffffffffffffff1673ffffffffffffffffffffffffffffffffffffffff1681526020019081526020015f205f015f9054906101000a900460ff166002811115611bc657611bc56132a2565b5b03611c6a5760405180604001604052805f6002811115611be957611be86132a2565b5b81526020015f81525060035f3373ffffffffffffffffffffffffffffffffffffffff1673ffffffffffffffffffffffffffffffffffffffff1681526020019081526020015f205f820151815f015f6101000a81548160ff02191690836002811115611c5757611c566132a2565b5b0217905550602082015181600101559050505b5f8311611cac576040517f08c379a0000000000000000000000000000000000000000000000000000000008152600401611ca390613f88565b60405180910390fd5b60055f8573ffffffffffffffffffffffffffffffffffffffff1673ffffffffffffffffffffffffffffffffffffffff1681526020019081526020015f20805490508210611d2e576040517f08c379a0000000000000000000000000000000000000000000000000000000008152600401611d2590613ff0565b60405180910390fd5b60055f8573ffffffffffffffffffffffffffffffffffffffff1673ffffffffffffffffffffffffffffffffffffffff1681526020019081526020015f208281548110611d7d57611d7c613d90565b5b905f5260205f20906005020160010154831115611dcf576040517f08c379a0000000000000000000000000000000000000000000000000000000008152600401611dc690614240565b60405180910390fd5b5f60055f8673ffffffffffffffffffffffffffffffffffffffff1673ffffffffffffffffffffffffffffffffffffffff1681526020019081526020015f208381548110611e1f57611e1e613d90565b5b905f5260205f2090600502016002015484611e3a9190613dea565b90503373ffffffffffffffffffffffffffffffffffffffff16600783604051611e63919061425e565b90815260200160405180910390205f9054906101000a900473ffffffffffffffffffffffffffffffffffffffff1673ffffffffffffffffffffffffffffffffffffffff1603611f24576064605a82611ebb9190613dea565b611ec591906141c6565b90505f600783604051611ed8919061425e565b90815260200160405180910390205f6101000a81548173ffffffffffffffffffffffffffffffffffffffff021916908373ffffffffffffffffffffffffffffffffffffffff1602179055505b80341015611f67576040517f08c379a0000000000000000000000000000000000000000000000000000000008152600401611f5e906142be565b60405180910390fd5b5f805b60045f3373ffffffffffffffffffffffffffffffffffffffff1673ffffffffffffffffffffffffffffffffffffffff1681526020019081526020015f208054905081101561212d5760045f8873ffffffffffffffffffffffffffffffffffffffff1673ffffffffffffffffffffffffffffffffffffffff1681526020019081526020015f20858154811061200157612000613d90565b5b905f5260205f20906005020160030160405161201d9190614378565b604051809103902060045f3373ffffffffffffffffffffffffffffffffffffffff1673ffffffffffffffffffffffffffffffffffffffff1681526020019081526020015f20828154811061207457612073613d90565b5b905f5260205f2090600502016003016040516120909190614378565b60405180910390200361211a578560045f3373ffffffffffffffffffffffffffffffffffffffff1673ffffffffffffffffffffffffffffffffffffffff1681526020019081526020015f2082815481106120ed576120ec613d90565b5b905f5260205f2090600502016001015f82825461210a9190613e2b565b925050819055506001915061212d565b808061212590613ed1565b915050611f6a565b508061239f575f6040518060a001604052803373ffffffffffffffffffffffffffffffffffffffff16815260200187815260200160055f8a73ffffffffffffffffffffffffffffffffffffffff1673ffffffffffffffffffffffffffffffffffffffff1681526020019081526020015f2087815481106121b0576121af613d90565b5b905f5260205f20906005020160020154815260200160055f8a73ffffffffffffffffffffffffffffffffffffffff1673ffffffffffffffffffffffffffffffffffffffff1681526020019081526020015f20878154811061221457612213613d90565b5b905f5260205f209060050201600301805461222e90613af4565b80601f016020809104026020016040519081016040528092919081815260200182805461225a90613af4565b80156122a55780601f1061227c576101008083540402835291602001916122a5565b820191905f5260205f20905b81548152906001019060200180831161228857829003601f168201915b505050505081526020016122ba6103e86118b6565b815250905060045f3373ffffffffffffffffffffffffffffffffffffffff1673ffffffffffffffffffffffffffffffffffffffff1681526020019081526020015f2081908060018154018082558091505060019003905f5260205f2090600502015f909190919091505f820151815f015f6101000a81548173ffffffffffffffffffffffffffffffffffffffff021916908373ffffffffffffffffffffffffffffffffffffffff160217905550602082015181600101556040820151816002015560608201518160030190816123909190613cc1565b50608082015181600401555050505b8460055f8873ffffffffffffffffffffffffffffffffffffffff1673ffffffffffffffffffffffffffffffffffffffff1681526020019081526020015f2085815481106123ef576123ee613d90565b5b905f5260205f2090600502016001015f82825461240c9190613e5e565b925050819055508160035f8873ffffffffffffffffffffffffffffffffffffffff1673ffffffffffffffffffffffffffffffffffffffff1681526020019081526020015f206001015f8282546124629190613e2b565b92505081905550813411156124c1573373ffffffffffffffffffffffffffffffffffffffff166108fc83346124979190613e5e565b90811502906040515f60405180830381858888f193505050501580156124bf573d5f803e3d5ffd5b505b505050505050565b8073ffffffffffffffffffffffffffffffffffffffff163373ffffffffffffffffffffffffffffffffffffffff1603612500575f80fd5b80600783604051612511919061425e565b90815260200160405180910390205f6101000a81548173ffffffffffffffffffffffffffffffffffffffff021916908373ffffffffffffffffffffffffffffffffffffffff1602179055505050565b6003602052805f5260405f205f91509050805f015f9054906101000a900460ff16908060010154905082565b60405180604001604052805f60028111156125aa576125a96132a2565b5b81526020015f81525060035f3373ffffffffffffffffffffffffffffffffffffffff1673ffffffffffffffffffffffffffffffffffffffff1681526020019081526020015f205f820151815f015f6101000a81548160ff02191690836002811115612618576126176132a2565b5b021790555060208201518160010155905050565b6007818051602081018201805184825260208301602085012081835280955050505050505f915054906101000a900473ffffffffffffffffffffffffffffffffffffffff1681565b5f806002811115612688576126876132a2565b5b60035f3373ffffffffffffffffffffffffffffffffffffffff1673ffffffffffffffffffffffffffffffffffffffff1681526020019081526020015f205f015f9054906101000a900460ff1660028111156126e6576126e56132a2565b5b14612726576040517f08c379a000000000000000000000000000000000000000000000000000000000815260040161271d90613aa9565b60405180910390fd5b6001600381111561273a576127396132a2565b5b6002838154811061274e5761274d613d90565b5b905f5260205f20906005020160010160149054906101000a900460ff16600381111561277d5761277c6132a2565b5b14612786575f80fd5b82156128105761280b600283815481106127a3576127a2613d90565b5b905f5260205f2090600502016001015f9054906101000a900473ffffffffffffffffffffffffffffffffffffffff16600284815481106127e6576127e5613d90565b5b905f5260205f209060050201600401548460405180602001604052805f815250611b55565b61286a565b60026003811115612824576128236132a2565b5b6002838154811061283857612837613d90565b5b905f5260205f20906005020160010160149054906101000a900460ff166003811115612867576128666132a2565b5b50505b505050565b6001806002811115612884576128836132a2565b5b60035f3373ffffffffffffffffffffffffffffffffffffffff1673ffffffffffffffffffffffffffffffffffffffff1681526020019081526020015f205f015f9054906101000a900460ff1660028111156128e2576128e16132a2565b5b14612922576040517f08c379a000000000000000000000000000000000000000000000000000000000815260040161291990613aa9565b60405180910390fd5b3373ffffffffffffffffffffffffffffffffffffffff166108fc60035f3373ffffffffffffffffffffffffffffffffffffffff1673ffffffffffffffffffffffffffffffffffffffff1681526020019081526020015f206001015490811502906040515f60405180830381858888f193505050501580156129a5573d5f803e3d5ffd5b505f60035f3373ffffffffffffffffffffffffffffffffffffffff1673ffffffffffffffffffffffffffffffffffffffff1681526020019081526020015f206001018190555050565b6001806002811115612a0357612a026132a2565b5b60035f3373ffffffffffffffffffffffffffffffffffffffff1673ffffffffffffffffffffffffffffffffffffffff1681526020019081526020015f205f015f9054906101000a900460ff166002811115612a6157612a606132a2565b5b14612aa1576040517f08c379a0000000000000000000000000000000000000000000000000000000008152600401612a9890613aa9565b60405180910390fd5b5f8311612ae3576040517f08c379a0000000000000000000000000000000000000000000000000000000008152600401612ada90613f88565b60405180910390fd5b60065f8373ffffffffffffffffffffffffffffffffffffffff1673ffffffffffffffffffffffffffffffffffffffff1681526020019081526020015f20805490508410612b65576040517f08c379a0000000000000000000000000000000000000000000000000000000008152600401612b5c90613ff0565b60405180910390fd5b5f60065f8473ffffffffffffffffffffffffffffffffffffffff1673ffffffffffffffffffffffffffffffffffffffff1681526020019081526020015f208581548110612bb557612bb4613d90565b5b905f5260205f2090600502016002015490505f8482612bd49190613dea565b905080341015612c19576040517f08c379a0000000000000000000000000000000000000000000000000000000008152600401612c10906142be565b60405180910390fd5b5f60065f8673ffffffffffffffffffffffffffffffffffffffff1673ffffffffffffffffffffffffffffffffffffffff1681526020019081526020015f208781548110612c6957612c68613d90565b5b905f5260205f2090600502016003018054612c8390613af4565b80601f0160208091040260200160405190810160405280929190818152602001828054612caf90613af4565b8015612cfa5780601f10612cd157610100808354040283529160200191612cfa565b820191905f5260205f20905b815481529060010190602001808311612cdd57829003601f168201915b505050505090505f805b60055f8b73ffffffffffffffffffffffffffffffffffffffff1673ffffffffffffffffffffffffffffffffffffffff1681526020019081526020015f2080549050811015612e5c5760055f8b73ffffffffffffffffffffffffffffffffffffffff1673ffffffffffffffffffffffffffffffffffffffff1681526020019081526020015f208181548110612d9b57612d9a613d90565b5b905f5260205f209060050201600301604051612db79190614378565b6040518091039020838051906020012003612e49578760055f8c73ffffffffffffffffffffffffffffffffffffffff1673ffffffffffffffffffffffffffffffffffffffff1681526020019081526020015f208281548110612e1c57612e1b613d90565b5b905f5260205f2090600502016001015f828254612e399190613e2b565b9250508190555060019150612e5c565b8080612e5490613ed1565b915050612d04565b5080612fe0575f6040518060a001604052808873ffffffffffffffffffffffffffffffffffffffff16815260200189815260200186815260200184815260200160065f8a73ffffffffffffffffffffffffffffffffffffffff1673ffffffffffffffffffffffffffffffffffffffff1681526020019081526020015f208b81548110612eeb57612eea613d90565b5b905f5260205f20906005020160040154815250905060055f8b73ffffffffffffffffffffffffffffffffffffffff1673ffffffffffffffffffffffffffffffffffffffff1681526020019081526020015f2081908060018154018082558091505060019003905f5260205f2090600502015f909190919091505f820151815f015f6101000a81548173ffffffffffffffffffffffffffffffffffffffff021916908373ffffffffffffffffffffffffffffffffffffffff16021790555060208201518160010155604082015181600201556060820151816003019081612fd19190613cc1565b50608082015181600401555050505b8660065f8873ffffffffffffffffffffffffffffffffffffffff1673ffffffffffffffffffffffffffffffffffffffff1681526020019081526020015f2089815481106130305761302f613d90565b5b905f5260205f2090600502016001015f82825461304d9190613e5e565b92505081905550823411156130ac573373ffffffffffffffffffffffffffffffffffffffff166108fc84346130829190613e5e565b90811502906040515f60405180830381858888f193505050501580156130aa573d5f803e3d5ffd5b505b505050505050505050565b5080546130c390613af4565b5f825580601f106130d457506130f1565b601f0160209004905f5260205f20908101906130f091906130f4565b5b50565b5b8082111561310b575f815f9055506001016130f5565b5090565b5f604051905090565b5f80fd5b5f80fd5b5f819050919050565b61313281613120565b811461313c575f80fd5b50565b5f8135905061314d81613129565b92915050565b5f80fd5b5f80fd5b5f80fd5b5f8083601f84011261317457613173613153565b5b8235905067ffffffffffffffff81111561319157613190613157565b5b6020830191508360018202830111156131ad576131ac61315b565b5b9250929050565b5f805f805f608086880312156131cd576131cc613118565b5b5f6131da8882890161313f565b95505060206131eb8882890161313f565b945050604086013567ffffffffffffffff81111561320c5761320b61311c565b5b6132188882890161315f565b9350935050606061322b8882890161313f565b9150509295509295909350565b5f6020828403121561324d5761324c613118565b5b5f61325a8482850161313f565b91505092915050565b5f73ffffffffffffffffffffffffffffffffffffffff82169050919050565b5f61328c82613263565b9050919050565b61329c81613282565b82525050565b7f4e487b71000000000000000000000000000000000000000000000000000000005f52602160045260245ffd5b600481106132e0576132df6132a2565b5b50565b5f8190506132f0826132cf565b919050565b5f6132ff826132e3565b9050919050565b61330f816132f5565b82525050565b5f81519050919050565b5f82825260208201905092915050565b5f5b8381101561334c578082015181840152602081019050613331565b5f8484015250505050565b5f601f19601f8301169050919050565b5f61337182613315565b61337b818561331f565b935061338b81856020860161332f565b61339481613357565b840191505092915050565b6133a881613120565b82525050565b5f60c0820190506133c15f830189613293565b6133ce6020830188613293565b6133db6040830187613306565b81810360608301526133ed8186613367565b90506133fc608083018561339f565b61340960a083018461339f565b979650505050505050565b61341d81613282565b8114613427575f80fd5b50565b5f8135905061343881613414565b92915050565b5f806040838503121561345457613453613118565b5b5f6134618582860161342a565b92505060206134728582860161313f565b9150509250929050565b5f60a08201905061348f5f830188613293565b61349c602083018761339f565b6134a9604083018661339f565b81810360608301526134bb8185613367565b90506134ca608083018461339f565b9695505050505050565b600381106134e5576134e46132a2565b5b50565b5f8190506134f5826134d4565b919050565b5f613504826134e8565b9050919050565b613514816134fa565b82525050565b5f60408201905061352d5f830185613293565b61353a602083018461350b565b9392505050565b6003811061354d575f80fd5b50565b5f8135905061355e81613541565b92915050565b5f6020828403121561357957613578613118565b5b5f61358684828501613550565b91505092915050565b5f80fd5b7f4e487b71000000000000000000000000000000000000000000000000000000005f52604160045260245ffd5b6135c982613357565b810181811067ffffffffffffffff821117156135e8576135e7613593565b5b80604052505050565b5f6135fa61310f565b905061360682826135c0565b919050565b5f67ffffffffffffffff82111561362557613624613593565b5b61362e82613357565b9050602081019050919050565b828183375f83830152505050565b5f61365b6136568461360b565b6135f1565b9050828152602081018484840111156136775761367661358f565b5b61368284828561363b565b509392505050565b5f82601f83011261369e5761369d613153565b5b81356136ae848260208601613649565b91505092915050565b5f602082840312156136cc576136cb613118565b5b5f82013567ffffffffffffffff8111156136e9576136e861311c565b5b6136f58482850161368a565b91505092915050565b5f6020820190508181035f8301526137168184613367565b905092915050565b5f805f6060848603121561373557613734613118565b5b5f6137428682870161342a565b93505060206137538682870161313f565b92505060406137648682870161313f565b9150509250925092565b5f8115159050919050565b6137828161376e565b811461378c575f80fd5b50565b5f8135905061379d81613779565b92915050565b5f80604083850312156137b9576137b8613118565b5b5f6137c68582860161378f565b92505060206137d78582860161313f565b9150509250929050565b5f6020820190506137f45f83018461339f565b92915050565b5f805f805f8060a0878903121561381457613813613118565b5b5f61382189828a0161313f565b965050602061383289828a0161313f565b955050604087013567ffffffffffffffff8111156138535761385261311c565b5b61385f89828a0161315f565b9450945050606061387289828a0161313f565b925050608061388389828a0161342a565b9150509295509295509295565b5f6020820190506138a35f830184613293565b92915050565b5f805f80608085870312156138c1576138c0613118565b5b5f6138ce8782880161342a565b94505060206138df8782880161313f565b93505060406138f08782880161313f565b925050606085013567ffffffffffffffff8111156139115761391061311c565b5b61391d8782880161368a565b91505092959194509250565b5f806040838503121561393f5761393e613118565b5b5f83013567ffffffffffffffff81111561395c5761395b61311c565b5b6139688582860161368a565b92505060206139798582860161342a565b9150509250929050565b5f6020828403121561399857613997613118565b5b5f6139a58482850161342a565b91505092915050565b5f6040820190506139c15f83018561350b565b6139ce602083018461339f565b9392505050565b5f805f80608085870312156139ed576139ec613118565b5b5f6139fa8782880161342a565b9450506020613a0b8782880161313f565b9350506040613a1c8782880161313f565b9250506060613a2d8782880161342a565b91505092959194509250565b7f596f757220726f6c6520646f6573206e6f7420616c6c6f7720746869732063685f8201527f616e676500000000000000000000000000000000000000000000000000000000602082015250565b5f613a9360248361331f565b9150613a9e82613a39565b604082019050919050565b5f6020820190508181035f830152613ac081613a87565b9050919050565b7f4e487b71000000000000000000000000000000000000000000000000000000005f52602260045260245ffd5b5f6002820490506001821680613b0b57607f821691505b602082108103613b1e57613b1d613ac7565b5b50919050565b5f819050815f5260205f209050919050565b5f6020601f8301049050919050565b5f82821b905092915050565b5f60088302613b807fffffffffffffffffffffffffffffffffffffffffffffffffffffffffffffffff82613b45565b613b8a8683613b45565b95508019841693508086168417925050509392505050565b5f819050919050565b5f613bc5613bc0613bbb84613120565b613ba2565b613120565b9050919050565b5f819050919050565b613bde83613bab565b613bf2613bea82613bcc565b848454613b51565b825550505050565b5f90565b613c06613bfa565b613c11818484613bd5565b505050565b5b81811015613c3457613c295f82613bfe565b600181019050613c17565b5050565b601f821115613c7957613c4a81613b24565b613c5384613b36565b81016020851015613c62578190505b613c76613c6e85613b36565b830182613c16565b50505b505050565b5f82821c905092915050565b5f613c995f1984600802613c7e565b1980831691505092915050565b5f613cb18383613c8a565b9150826002028217905092915050565b613cca82613315565b67ffffffffffffffff811115613ce357613ce2613593565b5b613ced8254613af4565b613cf8828285613c38565b5f60209050601f831160018114613d29575f8415613d17578287015190505b613d218582613ca6565b865550613d88565b601f198416613d3786613b24565b5f5b82811015613d5e57848901518255600182019150602085019450602081019050613d39565b86831015613d7b5784890151613d77601f891682613c8a565b8355505b6001600288020188555050505b505050505050565b7f4e487b71000000000000000000000000000000000000000000000000000000005f52603260045260245ffd5b7f4e487b71000000000000000000000000000000000000000000000000000000005f52601160045260245ffd5b5f613df482613120565b9150613dff83613120565b9250828202613e0d81613120565b91508282048414831517613e2457613e23613dbd565b5b5092915050565b5f613e3582613120565b9150613e4083613120565b9250828201905080821115613e5857613e57613dbd565b5b92915050565b5f613e6882613120565b9150613e7383613120565b9250828203905081811115613e8b57613e8a613dbd565b5b92915050565b5f60ff82169050919050565b5f613ea782613e91565b9150613eb283613e91565b9250828203905060ff811115613ecb57613eca613dbd565b5b92915050565b5f613edb82613120565b91507fffffffffffffffffffffffffffffffffffffffffffffffffffffffffffffffff8203613f0d57613f0c613dbd565b5b600182019050919050565b7f507572636861736520616d6f756e74206d7573742062652067726561746572205f8201527f7468616e20300000000000000000000000000000000000000000000000000000602082015250565b5f613f7260268361331f565b9150613f7d82613f18565b604082019050919050565b5f6020820190508181035f830152613f9f81613f66565b9050919050565b7f496e76616c69642070726f6475637420494400000000000000000000000000005f82015250565b5f613fda60128361331f565b9150613fe582613fa6565b602082019050919050565b5f6020820190508181035f83015261400781613fce565b9050919050565b7f4141000000000000000000000000000000000000000000000000000000000000815250565b5f81905092915050565b5f61404882613315565b6140528185614034565b935061406281856020860161332f565b80840191505092915050565b7f4242000000000000000000000000000000000000000000000000000000000000815250565b5f61409e8261400e565b6002820191506140ae828461403e565b91506140b98261406e565b60028201915081905092915050565b5f819050919050565b6140e26140dd82613120565b6140c8565b82525050565b5f8160601b9050919050565b5f6140fe826140e8565b9050919050565b5f61410f826140f4565b9050919050565b61412761412282613282565b614105565b82525050565b5f61413882866140d1565b6020820191506141488285614116565b60148201915061415882846140d1565b602082019150819050949350505050565b7f4e487b71000000000000000000000000000000000000000000000000000000005f52601260045260245ffd5b5f6141a082613120565b91506141ab83613120565b9250826141bb576141ba614169565b5b828206905092915050565b5f6141d082613120565b91506141db83613120565b9250826141eb576141ea614169565b5b828204905092915050565b7f4e6f7420656e6f7567682073746f636b20617661696c61626c650000000000005f82015250565b5f61422a601a8361331f565b9150614235826141f6565b602082019050919050565b5f6020820190508181035f8301526142578161421e565b9050919050565b5f614269828461403e565b915081905092915050565b7f496e73756666696369656e742066756e64732073656e740000000000000000005f82015250565b5f6142a860178361331f565b91506142b382614274565b602082019050919050565b5f6020820190508181035f8301526142d58161429c565b9050919050565b5f81905092915050565b5f819050815f5260205f209050919050565b5f815461430481613af4565b61430e81866142dc565b9450600182165f8114614328576001811461433d5761436f565b60ff198316865281151582028601935061436f565b614346856142e6565b5f5b8381101561436757815481890152600182019150602081019050614348565b838801955050505b50505092915050565b5f61438382846142f8565b91508190509291505056fea264697066735822122001130b19b7840930afeb4c1795195583ae995b72901dab53b0c768666d1a0aaf64736f6c63430008150033",
					"opcodes": "PUSH1 0x80 PUSH1 0x40 MSTORE CALLVALUE DUP1 ISZERO PUSH2 0xF JUMPI PUSH0 DUP1 REVERT JUMPDEST POP CALLER PUSH1 0x1 PUSH0 PUSH2 0x100 EXP DUP2 SLOAD DUP2 PUSH20 0xFFFFFFFFFFFFFFFFFFFFFFFFFFFFFFFFFFFFFFFF MUL NOT AND SWAP1 DUP4 PUSH20 0xFFFFFFFFFFFFFFFFFFFFFFFFFFFFFFFFFFFFFFFF AND MUL OR SWAP1 SSTORE POP PUSH2 0x43C4 DUP1 PUSH2 0x5D PUSH0 CODECOPY PUSH0 RETURN INVALID PUSH1 0x80 PUSH1 0x40 MSTORE PUSH1 0x4 CALLDATASIZE LT PUSH2 0x164 JUMPI PUSH0 CALLDATALOAD PUSH1 0xE0 SHR DUP1 PUSH4 0x7555BF10 GT PUSH2 0xD0 JUMPI DUP1 PUSH4 0xA1BA90B6 GT PUSH2 0x89 JUMPI DUP1 PUSH4 0xD55768DD GT PUSH2 0x63 JUMPI DUP1 PUSH4 0xD55768DD EQ PUSH2 0x523 JUMPI DUP1 PUSH4 0xDA76AF31 EQ PUSH2 0x55F JUMPI DUP1 PUSH4 0xF6364CC1 EQ PUSH2 0x57B JUMPI DUP1 PUSH4 0xFECD8F79 EQ PUSH2 0x591 JUMPI PUSH2 0x164 JUMP JUMPDEST DUP1 PUSH4 0xA1BA90B6 EQ PUSH2 0x4A8 JUMPI DUP1 PUSH4 0xA87430BA EQ PUSH2 0x4D0 JUMPI DUP1 PUSH4 0xD18A524A EQ PUSH2 0x50D JUMPI PUSH2 0x164 JUMP JUMPDEST DUP1 PUSH4 0x7555BF10 EQ PUSH2 0x3AE JUMPI DUP1 PUSH4 0x7EB33A58 EQ PUSH2 0x3D6 JUMPI DUP1 PUSH4 0x805553E8 EQ PUSH2 0x3FE JUMPI DUP1 PUSH4 0x861C2B6D EQ PUSH2 0x43A JUMPI DUP1 PUSH4 0x8DA5CB5B EQ PUSH2 0x462 JUMPI DUP1 PUSH4 0x9F1CD587 EQ PUSH2 0x48C JUMPI PUSH2 0x164 JUMP JUMPDEST DUP1 PUSH4 0x4F424547 GT PUSH2 0x122 JUMPI DUP1 PUSH4 0x4F424547 EQ PUSH2 0x28F JUMPI DUP1 PUSH4 0x50B44712 EQ PUSH2 0x2CF JUMPI DUP1 PUSH4 0x55DEA0B3 EQ PUSH2 0x30C JUMPI DUP1 PUSH4 0x62DD748C EQ PUSH2 0x334 JUMPI DUP1 PUSH4 0x66D0DC67 EQ PUSH2 0x370 JUMPI DUP1 PUSH4 0x6F764708 EQ PUSH2 0x386 JUMPI PUSH2 0x164 JUMP JUMPDEST DUP1 PUSH3 0x8DE16A EQ PUSH2 0x168 JUMPI DUP1 PUSH4 0x1CC11721 EQ PUSH2 0x190 JUMPI DUP1 PUSH4 0x27B90B1B EQ PUSH2 0x1D1 JUMPI DUP1 PUSH4 0x3D527883 EQ PUSH2 0x211 JUMPI DUP1 PUSH4 0x3DFE7DEE EQ PUSH2 0x251 JUMPI DUP1 PUSH4 0x410085DF EQ PUSH2 0x267 JUMPI JUMPDEST PUSH0 DUP1 REVERT JUMPDEST CALLVALUE DUP1 ISZERO PUSH2 0x173 JUMPI PUSH0 DUP1 REVERT JUMPDEST POP PUSH2 0x18E PUSH1 0x4 DUP1 CALLDATASIZE SUB DUP2 ADD SWAP1 PUSH2 0x189 SWAP2 SWAP1 PUSH2 0x31B4 JUMP JUMPDEST PUSH2 0x5AD JUMP JUMPDEST STOP JUMPDEST CALLVALUE DUP1 ISZERO PUSH2 0x19B JUMPI PUSH0 DUP1 REVERT JUMPDEST POP PUSH2 0x1B6 PUSH1 0x4 DUP1 CALLDATASIZE SUB DUP2 ADD SWAP1 PUSH2 0x1B1 SWAP2 SWAP1 PUSH2 0x3238 JUMP JUMPDEST PUSH2 0x7CA JUMP JUMPDEST PUSH1 0x40 MLOAD PUSH2 0x1C8 SWAP7 SWAP6 SWAP5 SWAP4 SWAP3 SWAP2 SWAP1 PUSH2 0x33AE JUMP JUMPDEST PUSH1 0x40 MLOAD DUP1 SWAP2 SUB SWAP1 RETURN JUMPDEST CALLVALUE DUP1 ISZERO PUSH2 0x1DC JUMPI PUSH0 DUP1 REVERT JUMPDEST POP PUSH2 0x1F7 PUSH1 0x4 DUP1 CALLDATASIZE SUB DUP2 ADD SWAP1 PUSH2 0x1F2 SWAP2 SWAP1 PUSH2 0x343E JUMP JUMPDEST PUSH2 0x8E2 JUMP JUMPDEST PUSH1 0x40 MLOAD PUSH2 0x208 SWAP6 SWAP5 SWAP4 SWAP3 SWAP2 SWAP1 PUSH2 0x347C JUMP JUMPDEST PUSH1 0x40 MLOAD DUP1 SWAP2 SUB SWAP1 RETURN JUMPDEST CALLVALUE DUP1 ISZERO PUSH2 0x21C JUMPI PUSH0 DUP1 REVERT JUMPDEST POP PUSH2 0x237 PUSH1 0x4 DUP1 CALLDATASIZE SUB DUP2 ADD SWAP1 PUSH2 0x232 SWAP2 SWAP1 PUSH2 0x343E JUMP JUMPDEST PUSH2 0x9D3 JUMP JUMPDEST PUSH1 0x40 MLOAD PUSH2 0x248 SWAP6 SWAP5 SWAP4 SWAP3 SWAP2 SWAP1 PUSH2 0x347C JUMP JUMPDEST PUSH1 0x40 MLOAD DUP1 SWAP2 SUB SWAP1 RETURN JUMPDEST CALLVALUE DUP1 ISZERO PUSH2 0x25C JUMPI PUSH0 DUP1 REVERT JUMPDEST POP PUSH2 0x265 PUSH2 0xAC4 JUMP JUMPDEST STOP JUMPDEST CALLVALUE DUP1 ISZERO PUSH2 0x272 JUMPI PUSH0 DUP1 REVERT JUMPDEST POP PUSH2 0x28D PUSH1 0x4 DUP1 CALLDATASIZE SUB DUP2 ADD SWAP1 PUSH2 0x288 SWAP2 SWAP1 PUSH2 0x343E JUMP JUMPDEST PUSH2 0xB64 JUMP JUMPDEST STOP JUMPDEST CALLVALUE DUP1 ISZERO PUSH2 0x29A JUMPI PUSH0 DUP1 REVERT JUMPDEST POP PUSH2 0x2B5 PUSH1 0x4 DUP1 CALLDATASIZE SUB DUP2 ADD SWAP1 PUSH2 0x2B0 SWAP2 SWAP1 PUSH2 0x343E JUMP JUMPDEST PUSH2 0xF0E JUMP JUMPDEST PUSH1 0x40 MLOAD PUSH2 0x2C6 SWAP6 SWAP5 SWAP4 SWAP3 SWAP2 SWAP1 PUSH2 0x347C JUMP JUMPDEST PUSH1 0x40 MLOAD DUP1 SWAP2 SUB SWAP1 RETURN JUMPDEST CALLVALUE DUP1 ISZERO PUSH2 0x2DA JUMPI PUSH0 DUP1 REVERT JUMPDEST POP PUSH2 0x2F5 PUSH1 0x4 DUP1 CALLDATASIZE SUB DUP2 ADD SWAP1 PUSH2 0x2F0 SWAP2 SWAP1 PUSH2 0x3238 JUMP JUMPDEST PUSH2 0xFFF JUMP JUMPDEST PUSH1 0x40 MLOAD PUSH2 0x303 SWAP3 SWAP2 SWAP1 PUSH2 0x351A JUMP JUMPDEST PUSH1 0x40 MLOAD DUP1 SWAP2 SUB SWAP1 RETURN JUMPDEST CALLVALUE DUP1 ISZERO PUSH2 0x317 JUMPI PUSH0 DUP1 REVERT JUMPDEST POP PUSH2 0x332 PUSH1 0x4 DUP1 CALLDATASIZE SUB DUP2 ADD SWAP1 PUSH2 0x32D SWAP2 SWAP1 PUSH2 0x3564 JUMP JUMPDEST PUSH2 0x1054 JUMP JUMPDEST STOP JUMPDEST CALLVALUE DUP1 ISZERO PUSH2 0x33F JUMPI PUSH0 DUP1 REVERT JUMPDEST POP PUSH2 0x35A PUSH1 0x4 DUP1 CALLDATASIZE SUB DUP2 ADD SWAP1 PUSH2 0x355 SWAP2 SWAP1 PUSH2 0x36B7 JUMP JUMPDEST PUSH2 0x112C JUMP JUMPDEST PUSH1 0x40 MLOAD PUSH2 0x367 SWAP2 SWAP1 PUSH2 0x36FE JUMP JUMPDEST PUSH1 0x40 MLOAD DUP1 SWAP2 SUB SWAP1 RETURN JUMPDEST CALLVALUE DUP1 ISZERO PUSH2 0x37B JUMPI PUSH0 DUP1 REVERT JUMPDEST POP PUSH2 0x384 PUSH2 0x1229 JUMP JUMPDEST STOP JUMPDEST CALLVALUE DUP1 ISZERO PUSH2 0x391 JUMPI PUSH0 DUP1 REVERT JUMPDEST POP PUSH2 0x3AC PUSH1 0x4 DUP1 CALLDATASIZE SUB DUP2 ADD SWAP1 PUSH2 0x3A7 SWAP2 SWAP1 PUSH2 0x3238 JUMP JUMPDEST PUSH2 0x12CA JUMP JUMPDEST STOP JUMPDEST CALLVALUE DUP1 ISZERO PUSH2 0x3B9 JUMPI PUSH0 DUP1 REVERT JUMPDEST POP PUSH2 0x3D4 PUSH1 0x4 DUP1 CALLDATASIZE SUB DUP2 ADD SWAP1 PUSH2 0x3CF SWAP2 SWAP1 PUSH2 0x371E JUMP JUMPDEST PUSH2 0x13FB JUMP JUMPDEST STOP JUMPDEST CALLVALUE DUP1 ISZERO PUSH2 0x3E1 JUMPI PUSH0 DUP1 REVERT JUMPDEST POP PUSH2 0x3FC PUSH1 0x4 DUP1 CALLDATASIZE SUB DUP2 ADD SWAP1 PUSH2 0x3F7 SWAP2 SWAP1 PUSH2 0x37A3 JUMP JUMPDEST PUSH2 0x175B JUMP JUMPDEST STOP JUMPDEST CALLVALUE DUP1 ISZERO PUSH2 0x409 JUMPI PUSH0 DUP1 REVERT JUMPDEST POP PUSH2 0x424 PUSH1 0x4 DUP1 CALLDATASIZE SUB DUP2 ADD SWAP1 PUSH2 0x41F SWAP2 SWAP1 PUSH2 0x3238 JUMP JUMPDEST PUSH2 0x18B6 JUMP JUMPDEST PUSH1 0x40 MLOAD PUSH2 0x431 SWAP2 SWAP1 PUSH2 0x37E1 JUMP JUMPDEST PUSH1 0x40 MLOAD DUP1 SWAP2 SUB SWAP1 RETURN JUMPDEST CALLVALUE DUP1 ISZERO PUSH2 0x445 JUMPI PUSH0 DUP1 REVERT JUMPDEST POP PUSH2 0x460 PUSH1 0x4 DUP1 CALLDATASIZE SUB DUP2 ADD SWAP1 PUSH2 0x45B SWAP2 SWAP1 PUSH2 0x37FA JUMP JUMPDEST PUSH2 0x1906 JUMP JUMPDEST STOP JUMPDEST CALLVALUE DUP1 ISZERO PUSH2 0x46D JUMPI PUSH0 DUP1 REVERT JUMPDEST POP PUSH2 0x476 PUSH2 0x1B30 JUMP JUMPDEST PUSH1 0x40 MLOAD PUSH2 0x483 SWAP2 SWAP1 PUSH2 0x3890 JUMP JUMPDEST PUSH1 0x40 MLOAD DUP1 SWAP2 SUB SWAP1 RETURN JUMPDEST PUSH2 0x4A6 PUSH1 0x4 DUP1 CALLDATASIZE SUB DUP2 ADD SWAP1 PUSH2 0x4A1 SWAP2 SWAP1 PUSH2 0x38A9 JUMP JUMPDEST PUSH2 0x1B55 JUMP JUMPDEST STOP JUMPDEST CALLVALUE DUP1 ISZERO PUSH2 0x4B3 JUMPI PUSH0 DUP1 REVERT JUMPDEST POP PUSH2 0x4CE PUSH1 0x4 DUP1 CALLDATASIZE SUB DUP2 ADD SWAP1 PUSH2 0x4C9 SWAP2 SWAP1 PUSH2 0x3929 JUMP JUMPDEST PUSH2 0x24C9 JUMP JUMPDEST STOP JUMPDEST CALLVALUE DUP1 ISZERO PUSH2 0x4DB JUMPI PUSH0 DUP1 REVERT JUMPDEST POP PUSH2 0x4F6 PUSH1 0x4 DUP1 CALLDATASIZE SUB DUP2 ADD SWAP1 PUSH2 0x4F1 SWAP2 SWAP1 PUSH2 0x3983 JUMP JUMPDEST PUSH2 0x2560 JUMP JUMPDEST PUSH1 0x40 MLOAD PUSH2 0x504 SWAP3 SWAP2 SWAP1 PUSH2 0x39AE JUMP JUMPDEST PUSH1 0x40 MLOAD DUP1 SWAP2 SUB SWAP1 RETURN JUMPDEST CALLVALUE DUP1 ISZERO PUSH2 0x518 JUMPI PUSH0 DUP1 REVERT JUMPDEST POP PUSH2 0x521 PUSH2 0x258C JUMP JUMPDEST STOP JUMPDEST CALLVALUE DUP1 ISZERO PUSH2 0x52E JUMPI PUSH0 DUP1 REVERT JUMPDEST POP PUSH2 0x549 PUSH1 0x4 DUP1 CALLDATASIZE SUB DUP2 ADD SWAP1 PUSH2 0x544 SWAP2 SWAP1 PUSH2 0x36B7 JUMP JUMPDEST PUSH2 0x262C JUMP JUMPDEST PUSH1 0x40 MLOAD PUSH2 0x556 SWAP2 SWAP1 PUSH2 0x3890 JUMP JUMPDEST PUSH1 0x40 MLOAD DUP1 SWAP2 SUB SWAP1 RETURN JUMPDEST PUSH2 0x579 PUSH1 0x4 DUP1 CALLDATASIZE SUB DUP2 ADD SWAP1 PUSH2 0x574 SWAP2 SWAP1 PUSH2 0x37A3 JUMP JUMPDEST PUSH2 0x2674 JUMP JUMPDEST STOP JUMPDEST CALLVALUE DUP1 ISZERO PUSH2 0x586 JUMPI PUSH0 DUP1 REVERT JUMPDEST POP PUSH2 0x58F PUSH2 0x286F JUMP JUMPDEST STOP JUMPDEST PUSH2 0x5AB PUSH1 0x4 DUP1 CALLDATASIZE SUB DUP2 ADD SWAP1 PUSH2 0x5A6 SWAP2 SWAP1 PUSH2 0x39D5 JUMP JUMPDEST PUSH2 0x29EE JUMP JUMPDEST STOP JUMPDEST PUSH1 0x1 DUP1 PUSH1 0x2 DUP2 GT ISZERO PUSH2 0x5C2 JUMPI PUSH2 0x5C1 PUSH2 0x32A2 JUMP JUMPDEST JUMPDEST PUSH1 0x3 PUSH0 CALLER PUSH20 0xFFFFFFFFFFFFFFFFFFFFFFFFFFFFFFFFFFFFFFFF AND PUSH20 0xFFFFFFFFFFFFFFFFFFFFFFFFFFFFFFFFFFFFFFFF AND DUP2 MSTORE PUSH1 0x20 ADD SWAP1 DUP2 MSTORE PUSH1 0x20 ADD PUSH0 KECCAK256 PUSH0 ADD PUSH0 SWAP1 SLOAD SWAP1 PUSH2 0x100 EXP SWAP1 DIV PUSH1 0xFF AND PUSH1 0x2 DUP2 GT ISZERO PUSH2 0x620 JUMPI PUSH2 0x61F PUSH2 0x32A2 JUMP JUMPDEST JUMPDEST EQ PUSH2 0x660 JUMPI PUSH1 0x40 MLOAD PUSH32 0x8C379A000000000000000000000000000000000000000000000000000000000 DUP2 MSTORE PUSH1 0x4 ADD PUSH2 0x657 SWAP1 PUSH2 0x3AA9 JUMP JUMPDEST PUSH1 0x40 MLOAD DUP1 SWAP2 SUB SWAP1 REVERT JUMPDEST PUSH0 PUSH1 0x40 MLOAD DUP1 PUSH1 0xA0 ADD PUSH1 0x40 MSTORE DUP1 CALLER PUSH20 0xFFFFFFFFFFFFFFFFFFFFFFFFFFFFFFFFFFFFFFFF AND DUP2 MSTORE PUSH1 0x20 ADD DUP9 DUP2 MSTORE PUSH1 0x20 ADD DUP8 DUP2 MSTORE PUSH1 0x20 ADD DUP7 DUP7 DUP1 DUP1 PUSH1 0x1F ADD PUSH1 0x20 DUP1 SWAP2 DIV MUL PUSH1 0x20 ADD PUSH1 0x40 MLOAD SWAP1 DUP2 ADD PUSH1 0x40 MSTORE DUP1 SWAP4 SWAP3 SWAP2 SWAP1 DUP2 DUP2 MSTORE PUSH1 0x20 ADD DUP4 DUP4 DUP1 DUP3 DUP5 CALLDATACOPY PUSH0 DUP2 DUP5 ADD MSTORE PUSH1 0x1F NOT PUSH1 0x1F DUP3 ADD AND SWAP1 POP DUP1 DUP4 ADD SWAP3 POP POP POP POP POP POP POP DUP2 MSTORE PUSH1 0x20 ADD DUP5 DUP2 MSTORE POP SWAP1 POP PUSH1 0x5 PUSH0 CALLER PUSH20 0xFFFFFFFFFFFFFFFFFFFFFFFFFFFFFFFFFFFFFFFF AND PUSH20 0xFFFFFFFFFFFFFFFFFFFFFFFFFFFFFFFFFFFFFFFF AND DUP2 MSTORE PUSH1 0x20 ADD SWAP1 DUP2 MSTORE PUSH1 0x20 ADD PUSH0 KECCAK256 DUP2 SWAP1 DUP1 PUSH1 0x1 DUP2 SLOAD ADD DUP1 DUP3 SSTORE DUP1 SWAP2 POP POP PUSH1 0x1 SWAP1 SUB SWAP1 PUSH0 MSTORE PUSH1 0x20 PUSH0 KECCAK256 SWAP1 PUSH1 0x5 MUL ADD PUSH0 SWAP1 SWAP2 SWAP1 SWAP2 SWAP1 SWAP2 POP PUSH0 DUP3 ADD MLOAD DUP2 PUSH0 ADD PUSH0 PUSH2 0x100 EXP DUP2 SLOAD DUP2 PUSH20 0xFFFFFFFFFFFFFFFFFFFFFFFFFFFFFFFFFFFFFFFF MUL NOT AND SWAP1 DUP4 PUSH20 0xFFFFFFFFFFFFFFFFFFFFFFFFFFFFFFFFFFFFFFFF AND MUL OR SWAP1 SSTORE POP PUSH1 0x20 DUP3 ADD MLOAD DUP2 PUSH1 0x1 ADD SSTORE PUSH1 0x40 DUP3 ADD MLOAD DUP2 PUSH1 0x2 ADD SSTORE PUSH1 0x60 DUP3 ADD MLOAD DUP2 PUSH1 0x3 ADD SWAP1 DUP2 PUSH2 0x7B4 SWAP2 SWAP1 PUSH2 0x3CC1 JUMP JUMPDEST POP PUSH1 0x80 DUP3 ADD MLOAD DUP2 PUSH1 0x4 ADD SSTORE POP POP POP POP POP POP POP POP POP JUMP JUMPDEST PUSH1 0x2 DUP2 DUP2 SLOAD DUP2 LT PUSH2 0x7D9 JUMPI PUSH0 DUP1 REVERT JUMPDEST SWAP1 PUSH0 MSTORE PUSH1 0x20 PUSH0 KECCAK256 SWAP1 PUSH1 0x5 MUL ADD PUSH0 SWAP2 POP SWAP1 POP DUP1 PUSH0 ADD PUSH0 SWAP1 SLOAD SWAP1 PUSH2 0x100 EXP SWAP1 DIV PUSH20 0xFFFFFFFFFFFFFFFFFFFFFFFFFFFFFFFFFFFFFFFF AND SWAP1 DUP1 PUSH1 0x1 ADD PUSH0 SWAP1 SLOAD SWAP1 PUSH2 0x100 EXP SWAP1 DIV PUSH20 0xFFFFFFFFFFFFFFFFFFFFFFFFFFFFFFFFFFFFFFFF AND SWAP1 DUP1 PUSH1 0x1 ADD PUSH1 0x14 SWAP1 SLOAD SWAP1 PUSH2 0x100 EXP SWAP1 DIV PUSH1 0xFF AND SWAP1 DUP1 PUSH1 0x2 ADD DUP1 SLOAD PUSH2 0x855 SWAP1 PUSH2 0x3AF4 JUMP JUMPDEST DUP1 PUSH1 0x1F ADD PUSH1 0x20 DUP1 SWAP2 DIV MUL PUSH1 0x20 ADD PUSH1 0x40 MLOAD SWAP1 DUP2 ADD PUSH1 0x40 MSTORE DUP1 SWAP3 SWAP2 SWAP1 DUP2 DUP2 MSTORE PUSH1 0x20 ADD DUP3 DUP1 SLOAD PUSH2 0x881 SWAP1 PUSH2 0x3AF4 JUMP JUMPDEST DUP1 ISZERO PUSH2 0x8CC JUMPI DUP1 PUSH1 0x1F LT PUSH2 0x8A3 JUMPI PUSH2 0x100 DUP1 DUP4 SLOAD DIV MUL DUP4 MSTORE SWAP2 PUSH1 0x20 ADD SWAP2 PUSH2 0x8CC JUMP JUMPDEST DUP3 ADD SWAP2 SWAP1 PUSH0 MSTORE PUSH1 0x20 PUSH0 KECCAK256 SWAP1 JUMPDEST DUP2 SLOAD DUP2 MSTORE SWAP1 PUSH1 0x1 ADD SWAP1 PUSH1 0x20 ADD DUP1 DUP4 GT PUSH2 0x8AF JUMPI DUP3 SWAP1 SUB PUSH1 0x1F AND DUP3 ADD SWAP2 JUMPDEST POP POP POP POP POP SWAP1 DUP1 PUSH1 0x3 ADD SLOAD SWAP1 DUP1 PUSH1 0x4 ADD SLOAD SWAP1 POP DUP7 JUMP JUMPDEST PUSH1 0x6 PUSH1 0x20 MSTORE DUP2 PUSH0 MSTORE PUSH1 0x40 PUSH0 KECCAK256 DUP2 DUP2 SLOAD DUP2 LT PUSH2 0x8FB JUMPI PUSH0 DUP1 REVERT JUMPDEST SWAP1 PUSH0 MSTORE PUSH1 0x20 PUSH0 KECCAK256 SWAP1 PUSH1 0x5 MUL ADD PUSH0 SWAP2 POP SWAP2 POP POP DUP1 PUSH0 ADD PUSH0 SWAP1 SLOAD SWAP1 PUSH2 0x100 EXP SWAP1 DIV PUSH20 0xFFFFFFFFFFFFFFFFFFFFFFFFFFFFFFFFFFFFFFFF AND SWAP1 DUP1 PUSH1 0x1 ADD SLOAD SWAP1 DUP1 PUSH1 0x2 ADD SLOAD SWAP1 DUP1 PUSH1 0x3 ADD DUP1 SLOAD PUSH2 0x94C SWAP1 PUSH2 0x3AF4 JUMP JUMPDEST DUP1 PUSH1 0x1F ADD PUSH1 0x20 DUP1 SWAP2 DIV MUL PUSH1 0x20 ADD PUSH1 0x40 MLOAD SWAP1 DUP2 ADD PUSH1 0x40 MSTORE DUP1 SWAP3 SWAP2 SWAP1 DUP2 DUP2 MSTORE PUSH1 0x20 ADD DUP3 DUP1 SLOAD PUSH2 0x978 SWAP1 PUSH2 0x3AF4 JUMP JUMPDEST DUP1 ISZERO PUSH2 0x9C3 JUMPI DUP1 PUSH1 0x1F LT PUSH2 0x99A JUMPI PUSH2 0x100 DUP1 DUP4 SLOAD DIV MUL DUP4 MSTORE SWAP2 PUSH1 0x20 ADD SWAP2 PUSH2 0x9C3 JUMP JUMPDEST DUP3 ADD SWAP2 SWAP1 PUSH0 MSTORE PUSH1 0x20 PUSH0 KECCAK256 SWAP1 JUMPDEST DUP2 SLOAD DUP2 MSTORE SWAP1 PUSH1 0x1 ADD SWAP1 PUSH1 0x20 ADD DUP1 DUP4 GT PUSH2 0x9A6 JUMPI DUP3 SWAP1 SUB PUSH1 0x1F AND DUP3 ADD SWAP2 JUMPDEST POP POP POP POP POP SWAP1 DUP1 PUSH1 0x4 ADD SLOAD SWAP1 POP DUP6 JUMP JUMPDEST PUSH1 0x4 PUSH1 0x20 MSTORE DUP2 PUSH0 MSTORE PUSH1 0x40 PUSH0 KECCAK256 DUP2 DUP2 SLOAD DUP2 LT PUSH2 0x9EC JUMPI PUSH0 DUP1 REVERT JUMPDEST SWAP1 PUSH0 MSTORE PUSH1 0x20 PUSH0 KECCAK256 SWAP1 PUSH1 0x5 MUL ADD PUSH0 SWAP2 POP SWAP2 POP POP DUP1 PUSH0 ADD PUSH0 SWAP1 SLOAD SWAP1 PUSH2 0x100 EXP SWAP1 DIV PUSH20 0xFFFFFFFFFFFFFFFFFFFFFFFFFFFFFFFFFFFFFFFF AND SWAP1 DUP1 PUSH1 0x1 ADD SLOAD SWAP1 DUP1 PUSH1 0x2 ADD SLOAD SWAP1 DUP1 PUSH1 0x3 ADD DUP1 SLOAD PUSH2 0xA3D SWAP1 PUSH2 0x3AF4 JUMP JUMPDEST DUP1 PUSH1 0x1F ADD PUSH1 0x20 DUP1 SWAP2 DIV MUL PUSH1 0x20 ADD PUSH1 0x40 MLOAD SWAP1 DUP2 ADD PUSH1 0x40 MSTORE DUP1 SWAP3 SWAP2 SWAP1 DUP2 DUP2 MSTORE PUSH1 0x20 ADD DUP3 DUP1 SLOAD PUSH2 0xA69 SWAP1 PUSH2 0x3AF4 JUMP JUMPDEST DUP1 ISZERO PUSH2 0xAB4 JUMPI DUP1 PUSH1 0x1F LT PUSH2 0xA8B JUMPI PUSH2 0x100 DUP1 DUP4 SLOAD DIV MUL DUP4 MSTORE SWAP2 PUSH1 0x20 ADD SWAP2 PUSH2 0xAB4 JUMP JUMPDEST DUP3 ADD SWAP2 SWAP1 PUSH0 MSTORE PUSH1 0x20 PUSH0 KECCAK256 SWAP1 JUMPDEST DUP2 SLOAD DUP2 MSTORE SWAP1 PUSH1 0x1 ADD SWAP1 PUSH1 0x20 ADD DUP1 DUP4 GT PUSH2 0xA97 JUMPI DUP3 SWAP1 SUB PUSH1 0x1F AND DUP3 ADD SWAP2 JUMPDEST POP POP POP POP POP SWAP1 DUP1 PUSH1 0x4 ADD SLOAD SWAP1 POP DUP6 JUMP JUMPDEST PUSH1 0x40 MLOAD DUP1 PUSH1 0x40 ADD PUSH1 0x40 MSTORE DUP1 PUSH1 0x2 DUP1 DUP2 GT ISZERO PUSH2 0xAE2 JUMPI PUSH2 0xAE1 PUSH2 0x32A2 JUMP JUMPDEST JUMPDEST DUP2 MSTORE PUSH1 0x20 ADD PUSH0 DUP2 MSTORE POP PUSH1 0x3 PUSH0 CALLER PUSH20 0xFFFFFFFFFFFFFFFFFFFFFFFFFFFFFFFFFFFFFFFF AND PUSH20 0xFFFFFFFFFFFFFFFFFFFFFFFFFFFFFFFFFFFFFFFF AND DUP2 MSTORE PUSH1 0x20 ADD SWAP1 DUP2 MSTORE PUSH1 0x20 ADD PUSH0 KECCAK256 PUSH0 DUP3 ADD MLOAD DUP2 PUSH0 ADD PUSH0 PUSH2 0x100 EXP DUP2 SLOAD DUP2 PUSH1 0xFF MUL NOT AND SWAP1 DUP4 PUSH1 0x2 DUP2 GT ISZERO PUSH2 0xB50 JUMPI PUSH2 0xB4F PUSH2 0x32A2 JUMP JUMPDEST JUMPDEST MUL OR SWAP1 SSTORE POP PUSH1 0x20 DUP3 ADD MLOAD DUP2 PUSH1 0x1 ADD SSTORE SWAP1 POP POP JUMP JUMPDEST PUSH1 0x5 PUSH0 DUP4 PUSH20 0xFFFFFFFFFFFFFFFFFFFFFFFFFFFFFFFFFFFFFFFF AND PUSH20 0xFFFFFFFFFFFFFFFFFFFFFFFFFFFFFFFFFFFFFFFF AND DUP2 MSTORE PUSH1 0x20 ADD SWAP1 DUP2 MSTORE PUSH1 0x20 ADD PUSH0 KECCAK256 DUP2 DUP2 SLOAD DUP2 LT PUSH2 0xBB3 JUMPI PUSH2 0xBB2 PUSH2 0x3D90 JUMP JUMPDEST JUMPDEST SWAP1 PUSH0 MSTORE PUSH1 0x20 PUSH0 KECCAK256 SWAP1 PUSH1 0x5 MUL ADD PUSH1 0x4 ADD SLOAD PUSH1 0x4 PUSH0 CALLER PUSH20 0xFFFFFFFFFFFFFFFFFFFFFFFFFFFFFFFFFFFFFFFF AND PUSH20 0xFFFFFFFFFFFFFFFFFFFFFFFFFFFFFFFFFFFFFFFF AND DUP2 MSTORE PUSH1 0x20 ADD SWAP1 DUP2 MSTORE PUSH1 0x20 ADD PUSH0 KECCAK256 DUP3 DUP2 SLOAD DUP2 LT PUSH2 0xC12 JUMPI PUSH2 0xC11 PUSH2 0x3D90 JUMP JUMPDEST JUMPDEST SWAP1 PUSH0 MSTORE PUSH1 0x20 PUSH0 KECCAK256 SWAP1 PUSH1 0x5 MUL ADD PUSH1 0x4 ADD SLOAD GT PUSH2 0xC2B JUMPI PUSH0 DUP1 REVERT JUMPDEST PUSH0 PUSH1 0x5 PUSH0 DUP5 PUSH20 0xFFFFFFFFFFFFFFFFFFFFFFFFFFFFFFFFFFFFFFFF AND PUSH20 0xFFFFFFFFFFFFFFFFFFFFFFFFFFFFFFFFFFFFFFFF AND DUP2 MSTORE PUSH1 0x20 ADD SWAP1 DUP2 MSTORE PUSH1 0x20 ADD PUSH0 KECCAK256 DUP3 DUP2 SLOAD DUP2 LT PUSH2 0xC7B JUMPI PUSH2 0xC7A PUSH2 0x3D90 JUMP JUMPDEST JUMPDEST SWAP1 PUSH0 MSTORE PUSH1 0x20 PUSH0 KECCAK256 SWAP1 PUSH1 0x5 MUL ADD PUSH1 0x2 ADD SLOAD PUSH1 0x4 PUSH0 CALLER PUSH20 0xFFFFFFFFFFFFFFFFFFFFFFFFFFFFFFFFFFFFFFFF AND PUSH20 0xFFFFFFFFFFFFFFFFFFFFFFFFFFFFFFFFFFFFFFFF AND DUP2 MSTORE PUSH1 0x20 ADD SWAP1 DUP2 MSTORE PUSH1 0x20 ADD PUSH0 KECCAK256 DUP4 DUP2 SLOAD DUP2 LT PUSH2 0xCDA JUMPI PUSH2 0xCD9 PUSH2 0x3D90 JUMP JUMPDEST JUMPDEST SWAP1 PUSH0 MSTORE PUSH1 0x20 PUSH0 KECCAK256 SWAP1 PUSH1 0x5 MUL ADD PUSH1 0x1 ADD SLOAD PUSH2 0xCF4 SWAP2 SWAP1 PUSH2 0x3DEA JUMP JUMPDEST SWAP1 POP PUSH1 0x4 PUSH0 CALLER PUSH20 0xFFFFFFFFFFFFFFFFFFFFFFFFFFFFFFFFFFFFFFFF AND PUSH20 0xFFFFFFFFFFFFFFFFFFFFFFFFFFFFFFFFFFFFFFFF AND DUP2 MSTORE PUSH1 0x20 ADD SWAP1 DUP2 MSTORE PUSH1 0x20 ADD PUSH0 KECCAK256 DUP3 DUP2 SLOAD DUP2 LT PUSH2 0xD45 JUMPI PUSH2 0xD44 PUSH2 0x3D90 JUMP JUMPDEST JUMPDEST SWAP1 PUSH0 MSTORE PUSH1 0x20 PUSH0 KECCAK256 SWAP1 PUSH1 0x5 MUL ADD PUSH1 0x1 ADD SLOAD PUSH1 0x5 PUSH0 DUP6 PUSH20 0xFFFFFFFFFFFFFFFFFFFFFFFFFFFFFFFFFFFFFFFF AND PUSH20 0xFFFFFFFFFFFFFFFFFFFFFFFFFFFFFFFFFFFFFFFF AND DUP2 MSTORE PUSH1 0x20 ADD SWAP1 DUP2 MSTORE PUSH1 0x20 ADD PUSH0 KECCAK256 DUP4 DUP2 SLOAD DUP2 LT PUSH2 0xDA4 JUMPI PUSH2 0xDA3 PUSH2 0x3D90 JUMP JUMPDEST JUMPDEST SWAP1 PUSH0 MSTORE PUSH1 0x20 PUSH0 KECCAK256 SWAP1 PUSH1 0x5 MUL ADD PUSH1 0x1 ADD PUSH0 DUP3 DUP3 SLOAD PUSH2 0xDC1 SWAP2 SWAP1 PUSH2 0x3E2B JUMP JUMPDEST SWAP3 POP POP DUP2 SWAP1 SSTORE POP PUSH1 0x4 PUSH0 CALLER PUSH20 0xFFFFFFFFFFFFFFFFFFFFFFFFFFFFFFFFFFFFFFFF AND PUSH20 0xFFFFFFFFFFFFFFFFFFFFFFFFFFFFFFFFFFFFFFFF AND DUP2 MSTORE PUSH1 0x20 ADD SWAP1 DUP2 MSTORE PUSH1 0x20 ADD PUSH0 KECCAK256 DUP3 DUP2 SLOAD DUP2 LT PUSH2 0xE17 JUMPI PUSH2 0xE16 PUSH2 0x3D90 JUMP JUMPDEST JUMPDEST SWAP1 PUSH0 MSTORE PUSH1 0x20 PUSH0 KECCAK256 SWAP1 PUSH1 0x5 MUL ADD PUSH0 DUP1 DUP3 ADD PUSH0 PUSH2 0x100 EXP DUP2 SLOAD SWAP1 PUSH20 0xFFFFFFFFFFFFFFFFFFFFFFFFFFFFFFFFFFFFFFFF MUL NOT AND SWAP1 SSTORE PUSH1 0x1 DUP3 ADD PUSH0 SWAP1 SSTORE PUSH1 0x2 DUP3 ADD PUSH0 SWAP1 SSTORE PUSH1 0x3 DUP3 ADD PUSH0 PUSH2 0xE66 SWAP2 SWAP1 PUSH2 0x30B7 JUMP JUMPDEST PUSH1 0x4 DUP3 ADD PUSH0 SWAP1 SSTORE POP POP DUP1 PUSH1 0x3 PUSH0 DUP6 PUSH20 0xFFFFFFFFFFFFFFFFFFFFFFFFFFFFFFFFFFFFFFFF AND PUSH20 0xFFFFFFFFFFFFFFFFFFFFFFFFFFFFFFFFFFFFFFFF AND DUP2 MSTORE PUSH1 0x20 ADD SWAP1 DUP2 MSTORE PUSH1 0x20 ADD PUSH0 KECCAK256 PUSH1 0x1 ADD PUSH0 DUP3 DUP3 SLOAD PUSH2 0xEBE SWAP2 SWAP1 PUSH2 0x3E5E JUMP JUMPDEST SWAP3 POP POP DUP2 SWAP1 SSTORE POP CALLER PUSH20 0xFFFFFFFFFFFFFFFFFFFFFFFFFFFFFFFFFFFFFFFF AND PUSH2 0x8FC DUP3 SWAP1 DUP2 ISZERO MUL SWAP1 PUSH1 0x40 MLOAD PUSH0 PUSH1 0x40 MLOAD DUP1 DUP4 SUB DUP2 DUP6 DUP9 DUP9 CALL SWAP4 POP POP POP POP ISZERO DUP1 ISZERO PUSH2 0xF08 JUMPI RETURNDATASIZE PUSH0 DUP1 RETURNDATACOPY RETURNDATASIZE PUSH0 REVERT JUMPDEST POP POP POP POP JUMP JUMPDEST PUSH1 0x5 PUSH1 0x20 MSTORE DUP2 PUSH0 MSTORE PUSH1 0x40 PUSH0 KECCAK256 DUP2 DUP2 SLOAD DUP2 LT PUSH2 0xF27 JUMPI PUSH0 DUP1 REVERT JUMPDEST SWAP1 PUSH0 MSTORE PUSH1 0x20 PUSH0 KECCAK256 SWAP1 PUSH1 0x5 MUL ADD PUSH0 SWAP2 POP SWAP2 POP POP DUP1 PUSH0 ADD PUSH0 SWAP1 SLOAD SWAP1 PUSH2 0x100 EXP SWAP1 DIV PUSH20 0xFFFFFFFFFFFFFFFFFFFFFFFFFFFFFFFFFFFFFFFF AND SWAP1 DUP1 PUSH1 0x1 ADD SLOAD SWAP1 DUP1 PUSH1 0x2 ADD SLOAD SWAP1 DUP1 PUSH1 0x3 ADD DUP1 SLOAD PUSH2 0xF78 SWAP1 PUSH2 0x3AF4 JUMP JUMPDEST DUP1 PUSH1 0x1F ADD PUSH1 0x20 DUP1 SWAP2 DIV MUL PUSH1 0x20 ADD PUSH1 0x40 MLOAD SWAP1 DUP2 ADD PUSH1 0x40 MSTORE DUP1 SWAP3 SWAP2 SWAP1 DUP2 DUP2 MSTORE PUSH1 0x20 ADD DUP3 DUP1 SLOAD PUSH2 0xFA4 SWAP1 PUSH2 0x3AF4 JUMP JUMPDEST DUP1 ISZERO PUSH2 0xFEF JUMPI DUP1 PUSH1 0x1F LT PUSH2 0xFC6 JUMPI PUSH2 0x100 DUP1 DUP4 SLOAD DIV MUL DUP4 MSTORE SWAP2 PUSH1 0x20 ADD SWAP2 PUSH2 0xFEF JUMP JUMPDEST DUP3 ADD SWAP2 SWAP1 PUSH0 MSTORE PUSH1 0x20 PUSH0 KECCAK256 SWAP1 JUMPDEST DUP2 SLOAD DUP2 MSTORE SWAP1 PUSH1 0x1 ADD SWAP1 PUSH1 0x20 ADD DUP1 DUP4 GT PUSH2 0xFD2 JUMPI DUP3 SWAP1 SUB PUSH1 0x1F AND DUP3 ADD SWAP2 JUMPDEST POP POP POP POP POP SWAP1 DUP1 PUSH1 0x4 ADD SLOAD SWAP1 POP DUP6 JUMP JUMPDEST PUSH0 DUP2 DUP2 SLOAD DUP2 LT PUSH2 0x100D JUMPI PUSH0 DUP1 REVERT JUMPDEST SWAP1 PUSH0 MSTORE PUSH1 0x20 PUSH0 KECCAK256 ADD PUSH0 SWAP2 POP SWAP1 POP DUP1 PUSH0 ADD PUSH0 SWAP1 SLOAD SWAP1 PUSH2 0x100 EXP SWAP1 DIV PUSH20 0xFFFFFFFFFFFFFFFFFFFFFFFFFFFFFFFFFFFFFFFF AND SWAP1 DUP1 PUSH0 ADD PUSH1 0x14 SWAP1 SLOAD SWAP1 PUSH2 0x100 EXP SWAP1 DIV PUSH1 0xFF AND SWAP1 POP DUP3 JUMP JUMPDEST PUSH0 PUSH1 0x40 MLOAD DUP1 PUSH1 0x40 ADD PUSH1 0x40 MSTORE DUP1 CALLER PUSH20 0xFFFFFFFFFFFFFFFFFFFFFFFFFFFFFFFFFFFFFFFF AND DUP2 MSTORE PUSH1 0x20 ADD DUP4 PUSH1 0x2 DUP2 GT ISZERO PUSH2 0x108F JUMPI PUSH2 0x108E PUSH2 0x32A2 JUMP JUMPDEST JUMPDEST DUP2 MSTORE POP SWAP1 DUP1 PUSH1 0x1 DUP2 SLOAD ADD DUP1 DUP3 SSTORE DUP1 SWAP2 POP POP PUSH1 0x1 SWAP1 SUB SWAP1 PUSH0 MSTORE PUSH1 0x20 PUSH0 KECCAK256 ADD PUSH0 SWAP1 SWAP2 SWAP1 SWAP2 SWAP1 SWAP2 POP PUSH0 DUP3 ADD MLOAD DUP2 PUSH0 ADD PUSH0 PUSH2 0x100 EXP DUP2 SLOAD DUP2 PUSH20 0xFFFFFFFFFFFFFFFFFFFFFFFFFFFFFFFFFFFFFFFF MUL NOT AND SWAP1 DUP4 PUSH20 0xFFFFFFFFFFFFFFFFFFFFFFFFFFFFFFFFFFFFFFFF AND MUL OR SWAP1 SSTORE POP PUSH1 0x20 DUP3 ADD MLOAD DUP2 PUSH0 ADD PUSH1 0x14 PUSH2 0x100 EXP DUP2 SLOAD DUP2 PUSH1 0xFF MUL NOT AND SWAP1 DUP4 PUSH1 0x2 DUP2 GT ISZERO PUSH2 0x1122 JUMPI PUSH2 0x1121 PUSH2 0x32A2 JUMP JUMPDEST JUMPDEST MUL OR SWAP1 SSTORE POP POP POP POP JUMP JUMPDEST PUSH1 0x60 PUSH0 DUP3 SWAP1 POP PUSH0 JUMPDEST DUP2 MLOAD DUP2 LT ISZERO PUSH2 0x121F JUMPI PUSH1 0x61 DUP3 DUP3 DUP2 MLOAD DUP2 LT PUSH2 0x1152 JUMPI PUSH2 0x1151 PUSH2 0x3D90 JUMP JUMPDEST JUMPDEST PUSH1 0x20 ADD ADD MLOAD PUSH1 0xF8 SHR PUSH1 0xF8 SHL PUSH1 0xF8 SHR PUSH1 0xFF AND LT ISZERO DUP1 ISZERO PUSH2 0x1195 JUMPI POP PUSH1 0x7A DUP3 DUP3 DUP2 MLOAD DUP2 LT PUSH2 0x1181 JUMPI PUSH2 0x1180 PUSH2 0x3D90 JUMP JUMPDEST JUMPDEST PUSH1 0x20 ADD ADD MLOAD PUSH1 0xF8 SHR PUSH1 0xF8 SHL PUSH1 0xF8 SHR PUSH1 0xFF AND GT ISZERO JUMPDEST ISZERO PUSH2 0x120C JUMPI PUSH1 0x20 DUP3 DUP3 DUP2 MLOAD DUP2 LT PUSH2 0x11AF JUMPI PUSH2 0x11AE PUSH2 0x3D90 JUMP JUMPDEST JUMPDEST PUSH1 0x20 ADD ADD MLOAD PUSH1 0xF8 SHR PUSH1 0xF8 SHL PUSH1 0xF8 SHR PUSH2 0x11C7 SWAP2 SWAP1 PUSH2 0x3E9D JUMP JUMPDEST PUSH1 0xF8 SHL DUP3 DUP3 DUP2 MLOAD DUP2 LT PUSH2 0x11DD JUMPI PUSH2 0x11DC PUSH2 0x3D90 JUMP JUMPDEST JUMPDEST PUSH1 0x20 ADD ADD SWAP1 PUSH31 0xFFFFFFFFFFFFFFFFFFFFFFFFFFFFFFFFFFFFFFFFFFFFFFFFFFFFFFFFFFFFFF NOT AND SWAP1 DUP2 PUSH0 BYTE SWAP1 MSTORE8 POP JUMPDEST DUP1 DUP1 PUSH2 0x1217 SWAP1 PUSH2 0x3ED1 JUMP JUMPDEST SWAP2 POP POP PUSH2 0x1134 JUMP JUMPDEST POP DUP1 SWAP2 POP POP SWAP2 SWAP1 POP JUMP JUMPDEST PUSH1 0x40 MLOAD DUP1 PUSH1 0x40 ADD PUSH1 0x40 MSTORE DUP1 PUSH1 0x1 PUSH1 0x2 DUP2 GT ISZERO PUSH2 0x1248 JUMPI PUSH2 0x1247 PUSH2 0x32A2 JUMP JUMPDEST JUMPDEST DUP2 MSTORE PUSH1 0x20 ADD PUSH0 DUP2 MSTORE POP PUSH1 0x3 PUSH0 CALLER PUSH20 0xFFFFFFFFFFFFFFFFFFFFFFFFFFFFFFFFFFFFFFFF AND PUSH20 0xFFFFFFFFFFFFFFFFFFFFFFFFFFFFFFFFFFFFFFFF AND DUP2 MSTORE PUSH1 0x20 ADD SWAP1 DUP2 MSTORE PUSH1 0x20 ADD PUSH0 KECCAK256 PUSH0 DUP3 ADD MLOAD DUP2 PUSH0 ADD PUSH0 PUSH2 0x100 EXP DUP2 SLOAD DUP2 PUSH1 0xFF MUL NOT AND SWAP1 DUP4 PUSH1 0x2 DUP2 GT ISZERO PUSH2 0x12B6 JUMPI PUSH2 0x12B5 PUSH2 0x32A2 JUMP JUMPDEST JUMPDEST MUL OR SWAP1 SSTORE POP PUSH1 0x20 DUP3 ADD MLOAD DUP2 PUSH1 0x1 ADD SSTORE SWAP1 POP POP JUMP JUMPDEST PUSH1 0x1 PUSH0 SWAP1 SLOAD SWAP1 PUSH2 0x100 EXP SWAP1 DIV PUSH20 0xFFFFFFFFFFFFFFFFFFFFFFFFFFFFFFFFFFFFFFFF AND PUSH20 0xFFFFFFFFFFFFFFFFFFFFFFFFFFFFFFFFFFFFFFFF AND CALLER PUSH20 0xFFFFFFFFFFFFFFFFFFFFFFFFFFFFFFFFFFFFFFFF AND EQ PUSH2 0x1322 JUMPI PUSH0 DUP1 REVERT JUMPDEST PUSH0 DUP1 DUP3 DUP2 SLOAD DUP2 LT PUSH2 0x1336 JUMPI PUSH2 0x1335 PUSH2 0x3D90 JUMP JUMPDEST JUMPDEST SWAP1 PUSH0 MSTORE PUSH1 0x20 PUSH0 KECCAK256 ADD PUSH0 ADD PUSH0 SWAP1 SLOAD SWAP1 PUSH2 0x100 EXP SWAP1 DIV PUSH20 0xFFFFFFFFFFFFFFFFFFFFFFFFFFFFFFFFFFFFFFFF AND SWAP1 POP PUSH0 DUP1 DUP4 DUP2 SLOAD DUP2 LT PUSH2 0x1376 JUMPI PUSH2 0x1375 PUSH2 0x3D90 JUMP JUMPDEST JUMPDEST SWAP1 PUSH0 MSTORE PUSH1 0x20 PUSH0 KECCAK256 ADD PUSH0 ADD PUSH1 0x14 SWAP1 SLOAD SWAP1 PUSH2 0x100 EXP SWAP1 DIV PUSH1 0xFF AND SWAP1 POP DUP1 PUSH1 0x3 PUSH0 DUP5 PUSH20 0xFFFFFFFFFFFFFFFFFFFFFFFFFFFFFFFFFFFFFFFF AND PUSH20 0xFFFFFFFFFFFFFFFFFFFFFFFFFFFFFFFFFFFFFFFF AND DUP2 MSTORE PUSH1 0x20 ADD SWAP1 DUP2 MSTORE PUSH1 0x20 ADD PUSH0 KECCAK256 PUSH0 ADD PUSH0 PUSH2 0x100 EXP DUP2 SLOAD DUP2 PUSH1 0xFF MUL NOT AND SWAP1 DUP4 PUSH1 0x2 DUP2 GT ISZERO PUSH2 0x13F1 JUMPI PUSH2 0x13F0 PUSH2 0x32A2 JUMP JUMPDEST JUMPDEST MUL OR SWAP1 SSTORE POP POP POP POP JUMP JUMPDEST PUSH0 DUP2 GT PUSH2 0x143D JUMPI PUSH1 0x40 MLOAD PUSH32 0x8C379A000000000000000000000000000000000000000000000000000000000 DUP2 MSTORE PUSH1 0x4 ADD PUSH2 0x1434 SWAP1 PUSH2 0x3F88 JUMP JUMPDEST PUSH1 0x40 MLOAD DUP1 SWAP2 SUB SWAP1 REVERT JUMPDEST PUSH1 0x5 PUSH0 DUP5 PUSH20 0xFFFFFFFFFFFFFFFFFFFFFFFFFFFFFFFFFFFFFFFF AND PUSH20 0xFFFFFFFFFFFFFFFFFFFFFFFFFFFFFFFFFFFFFFFF AND DUP2 MSTORE PUSH1 0x20 ADD SWAP1 DUP2 MSTORE PUSH1 0x20 ADD PUSH0 KECCAK256 DUP1 SLOAD SWAP1 POP DUP3 LT PUSH2 0x14BF JUMPI PUSH1 0x40 MLOAD PUSH32 0x8C379A000000000000000000000000000000000000000000000000000000000 DUP2 MSTORE PUSH1 0x4 ADD PUSH2 0x14B6 SWAP1 PUSH2 0x3FF0 JUMP JUMPDEST PUSH1 0x40 MLOAD DUP1 SWAP2 SUB SWAP1 REVERT JUMPDEST PUSH0 PUSH1 0x5 PUSH0 DUP6 PUSH20 0xFFFFFFFFFFFFFFFFFFFFFFFFFFFFFFFFFFFFFFFF AND PUSH20 0xFFFFFFFFFFFFFFFFFFFFFFFFFFFFFFFFFFFFFFFF AND DUP2 MSTORE PUSH1 0x20 ADD SWAP1 DUP2 MSTORE PUSH1 0x20 ADD PUSH0 KECCAK256 DUP4 DUP2 SLOAD DUP2 LT PUSH2 0x150F JUMPI PUSH2 0x150E PUSH2 0x3D90 JUMP JUMPDEST JUMPDEST SWAP1 PUSH0 MSTORE PUSH1 0x20 PUSH0 KECCAK256 SWAP1 PUSH1 0x5 MUL ADD PUSH1 0x3 ADD DUP1 SLOAD PUSH2 0x1529 SWAP1 PUSH2 0x3AF4 JUMP JUMPDEST DUP1 PUSH1 0x1F ADD PUSH1 0x20 DUP1 SWAP2 DIV MUL PUSH1 0x20 ADD PUSH1 0x40 MLOAD SWAP1 DUP2 ADD PUSH1 0x40 MSTORE DUP1 SWAP3 SWAP2 SWAP1 DUP2 DUP2 MSTORE PUSH1 0x20 ADD DUP3 DUP1 SLOAD PUSH2 0x1555 SWAP1 PUSH2 0x3AF4 JUMP JUMPDEST DUP1 ISZERO PUSH2 0x15A0 JUMPI DUP1 PUSH1 0x1F LT PUSH2 0x1577 JUMPI PUSH2 0x100 DUP1 DUP4 SLOAD DIV MUL DUP4 MSTORE SWAP2 PUSH1 0x20 ADD SWAP2 PUSH2 0x15A0 JUMP JUMPDEST DUP3 ADD SWAP2 SWAP1 PUSH0 MSTORE PUSH1 0x20 PUSH0 KECCAK256 SWAP1 JUMPDEST DUP2 SLOAD DUP2 MSTORE SWAP1 PUSH1 0x1 ADD SWAP1 PUSH1 0x20 ADD DUP1 DUP4 GT PUSH2 0x1583 JUMPI DUP3 SWAP1 SUB PUSH1 0x1F AND DUP3 ADD SWAP2 JUMPDEST POP POP POP POP POP SWAP1 POP PUSH0 DUP2 PUSH1 0x40 MLOAD PUSH1 0x20 ADD PUSH2 0x15B9 SWAP2 SWAP1 PUSH2 0x4094 JUMP JUMPDEST PUSH1 0x40 MLOAD PUSH1 0x20 DUP2 DUP4 SUB SUB DUP2 MSTORE SWAP1 PUSH1 0x40 MSTORE SWAP1 POP PUSH2 0x15D3 DUP2 PUSH2 0x112C JUMP JUMPDEST SWAP1 POP PUSH0 PUSH1 0x40 MLOAD DUP1 PUSH1 0xC0 ADD PUSH1 0x40 MSTORE DUP1 CALLER PUSH20 0xFFFFFFFFFFFFFFFFFFFFFFFFFFFFFFFFFFFFFFFF AND DUP2 MSTORE PUSH1 0x20 ADD DUP8 PUSH20 0xFFFFFFFFFFFFFFFFFFFFFFFFFFFFFFFFFFFFFFFF AND DUP2 MSTORE PUSH1 0x20 ADD PUSH1 0x1 PUSH1 0x3 DUP2 GT ISZERO PUSH2 0x162D JUMPI PUSH2 0x162C PUSH2 0x32A2 JUMP JUMPDEST JUMPDEST DUP2 MSTORE PUSH1 0x20 ADD DUP4 DUP2 MSTORE PUSH1 0x20 ADD DUP7 DUP2 MSTORE PUSH1 0x20 ADD DUP6 DUP2 MSTORE POP SWAP1 POP PUSH1 0x2 DUP2 SWAP1 DUP1 PUSH1 0x1 DUP2 SLOAD ADD DUP1 DUP3 SSTORE DUP1 SWAP2 POP POP PUSH1 0x1 SWAP1 SUB SWAP1 PUSH0 MSTORE PUSH1 0x20 PUSH0 KECCAK256 SWAP1 PUSH1 0x5 MUL ADD PUSH0 SWAP1 SWAP2 SWAP1 SWAP2 SWAP1 SWAP2 POP PUSH0 DUP3 ADD MLOAD DUP2 PUSH0 ADD PUSH0 PUSH2 0x100 EXP DUP2 SLOAD DUP2 PUSH20 0xFFFFFFFFFFFFFFFFFFFFFFFFFFFFFFFFFFFFFFFF MUL NOT AND SWAP1 DUP4 PUSH20 0xFFFFFFFFFFFFFFFFFFFFFFFFFFFFFFFFFFFFFFFF AND MUL OR SWAP1 SSTORE POP PUSH1 0x20 DUP3 ADD MLOAD DUP2 PUSH1 0x1 ADD PUSH0 PUSH2 0x100 EXP DUP2 SLOAD DUP2 PUSH20 0xFFFFFFFFFFFFFFFFFFFFFFFFFFFFFFFFFFFFFFFF MUL NOT AND SWAP1 DUP4 PUSH20 0xFFFFFFFFFFFFFFFFFFFFFFFFFFFFFFFFFFFFFFFF AND MUL OR SWAP1 SSTORE POP PUSH1 0x40 DUP3 ADD MLOAD DUP2 PUSH1 0x1 ADD PUSH1 0x14 PUSH2 0x100 EXP DUP2 SLOAD DUP2 PUSH1 0xFF MUL NOT AND SWAP1 DUP4 PUSH1 0x3 DUP2 GT ISZERO PUSH2 0x1722 JUMPI PUSH2 0x1721 PUSH2 0x32A2 JUMP JUMPDEST JUMPDEST MUL OR SWAP1 SSTORE POP PUSH1 0x60 DUP3 ADD MLOAD DUP2 PUSH1 0x2 ADD SWAP1 DUP2 PUSH2 0x173C SWAP2 SWAP1 PUSH2 0x3CC1 JUMP JUMPDEST POP PUSH1 0x80 DUP3 ADD MLOAD DUP2 PUSH1 0x3 ADD SSTORE PUSH1 0xA0 DUP3 ADD MLOAD DUP2 PUSH1 0x4 ADD SSTORE POP POP POP POP POP POP POP POP JUMP JUMPDEST PUSH1 0x1 DUP1 PUSH1 0x2 DUP2 GT ISZERO PUSH2 0x1770 JUMPI PUSH2 0x176F PUSH2 0x32A2 JUMP JUMPDEST JUMPDEST PUSH1 0x3 PUSH0 CALLER PUSH20 0xFFFFFFFFFFFFFFFFFFFFFFFFFFFFFFFFFFFFFFFF AND PUSH20 0xFFFFFFFFFFFFFFFFFFFFFFFFFFFFFFFFFFFFFFFF AND DUP2 MSTORE PUSH1 0x20 ADD SWAP1 DUP2 MSTORE PUSH1 0x20 ADD PUSH0 KECCAK256 PUSH0 ADD PUSH0 SWAP1 SLOAD SWAP1 PUSH2 0x100 EXP SWAP1 DIV PUSH1 0xFF AND PUSH1 0x2 DUP2 GT ISZERO PUSH2 0x17CE JUMPI PUSH2 0x17CD PUSH2 0x32A2 JUMP JUMPDEST JUMPDEST EQ PUSH2 0x180E JUMPI PUSH1 0x40 MLOAD PUSH32 0x8C379A000000000000000000000000000000000000000000000000000000000 DUP2 MSTORE PUSH1 0x4 ADD PUSH2 0x1805 SWAP1 PUSH2 0x3AA9 JUMP JUMPDEST PUSH1 0x40 MLOAD DUP1 SWAP2 SUB SWAP1 REVERT JUMPDEST DUP3 ISZERO PUSH2 0x1865 JUMPI PUSH1 0x1 PUSH1 0x2 DUP4 DUP2 SLOAD DUP2 LT PUSH2 0x182A JUMPI PUSH2 0x1829 PUSH2 0x3D90 JUMP JUMPDEST JUMPDEST SWAP1 PUSH0 MSTORE PUSH1 0x20 PUSH0 KECCAK256 SWAP1 PUSH1 0x5 MUL ADD PUSH1 0x1 ADD PUSH1 0x14 PUSH2 0x100 EXP DUP2 SLOAD DUP2 PUSH1 0xFF MUL NOT AND SWAP1 DUP4 PUSH1 0x3 DUP2 GT ISZERO PUSH2 0x185B JUMPI PUSH2 0x185A PUSH2 0x32A2 JUMP JUMPDEST JUMPDEST MUL OR SWAP1 SSTORE POP PUSH2 0x18B1 JUMP JUMPDEST PUSH1 0x2 DUP1 DUP4 DUP2 SLOAD DUP2 LT PUSH2 0x187A JUMPI PUSH2 0x1879 PUSH2 0x3D90 JUMP JUMPDEST JUMPDEST SWAP1 PUSH0 MSTORE PUSH1 0x20 PUSH0 KECCAK256 SWAP1 PUSH1 0x5 MUL ADD PUSH1 0x1 ADD PUSH1 0x14 PUSH2 0x100 EXP DUP2 SLOAD DUP2 PUSH1 0xFF MUL NOT AND SWAP1 DUP4 PUSH1 0x3 DUP2 GT ISZERO PUSH2 0x18AB JUMPI PUSH2 0x18AA PUSH2 0x32A2 JUMP JUMPDEST JUMPDEST MUL OR SWAP1 SSTORE POP JUMPDEST POP POP POP JUMP JUMPDEST PUSH0 DUP1 DUP1 DUP1 PUSH2 0x18C3 SWAP1 PUSH2 0x3ED1 JUMP JUMPDEST SWAP2 POP POP DUP3 TIMESTAMP CALLER DUP4 PUSH1 0x40 MLOAD PUSH1 0x20 ADD PUSH2 0x18DC SWAP4 SWAP3 SWAP2 SWAP1 PUSH2 0x412D JUMP JUMPDEST PUSH1 0x40 MLOAD PUSH1 0x20 DUP2 DUP4 SUB SUB DUP2 MSTORE SWAP1 PUSH1 0x40 MSTORE DUP1 MLOAD SWAP1 PUSH1 0x20 ADD KECCAK256 PUSH0 SHR PUSH2 0x18FE SWAP2 SWAP1 PUSH2 0x4196 JUMP JUMPDEST SWAP2 POP POP SWAP2 SWAP1 POP JUMP JUMPDEST PUSH1 0x2 DUP1 PUSH1 0x2 DUP2 GT ISZERO PUSH2 0x191B JUMPI PUSH2 0x191A PUSH2 0x32A2 JUMP JUMPDEST JUMPDEST PUSH1 0x3 PUSH0 CALLER PUSH20 0xFFFFFFFFFFFFFFFFFFFFFFFFFFFFFFFFFFFFFFFF AND PUSH20 0xFFFFFFFFFFFFFFFFFFFFFFFFFFFFFFFFFFFFFFFF AND DUP2 MSTORE PUSH1 0x20 ADD SWAP1 DUP2 MSTORE PUSH1 0x20 ADD PUSH0 KECCAK256 PUSH0 ADD PUSH0 SWAP1 SLOAD SWAP1 PUSH2 0x100 EXP SWAP1 DIV PUSH1 0xFF AND PUSH1 0x2 DUP2 GT ISZERO PUSH2 0x1979 JUMPI PUSH2 0x1978 PUSH2 0x32A2 JUMP JUMPDEST JUMPDEST EQ PUSH2 0x19B9 JUMPI PUSH1 0x40 MLOAD PUSH32 0x8C379A000000000000000000000000000000000000000000000000000000000 DUP2 MSTORE PUSH1 0x4 ADD PUSH2 0x19B0 SWAP1 PUSH2 0x3AA9 JUMP JUMPDEST PUSH1 0x40 MLOAD DUP1 SWAP2 SUB SWAP1 REVERT JUMPDEST PUSH0 PUSH1 0x40 MLOAD DUP1 PUSH1 0xA0 ADD PUSH1 0x40 MSTORE DUP1 DUP5 PUSH20 0xFFFFFFFFFFFFFFFFFFFFFFFFFFFFFFFFFFFFFFFF AND DUP2 MSTORE PUSH1 0x20 ADD DUP10 DUP2 MSTORE PUSH1 0x20 ADD PUSH1 0x2 DUP10 PUSH2 0x19F4 SWAP2 SWAP1 PUSH2 0x41C6 JUMP JUMPDEST DUP2 MSTORE PUSH1 0x20 ADD DUP8 DUP8 DUP1 DUP1 PUSH1 0x1F ADD PUSH1 0x20 DUP1 SWAP2 DIV MUL PUSH1 0x20 ADD PUSH1 0x40 MLOAD SWAP1 DUP2 ADD PUSH1 0x40 MSTORE DUP1 SWAP4 SWAP3 SWAP2 SWAP1 DUP2 DUP2 MSTORE PUSH1 0x20 ADD DUP4 DUP4 DUP1 DUP3 DUP5 CALLDATACOPY PUSH0 DUP2 DUP5 ADD MSTORE PUSH1 0x1F NOT PUSH1 0x1F DUP3 ADD AND SWAP1 POP DUP1 DUP4 ADD SWAP3 POP POP POP POP POP POP POP DUP2 MSTORE PUSH1 0x20 ADD DUP6 DUP2 MSTORE POP SWAP1 POP PUSH1 0x6 PUSH0 DUP5 PUSH20 0xFFFFFFFFFFFFFFFFFFFFFFFFFFFFFFFFFFFFFFFF AND PUSH20 0xFFFFFFFFFFFFFFFFFFFFFFFFFFFFFFFFFFFFFFFF AND DUP2 MSTORE PUSH1 0x20 ADD SWAP1 DUP2 MSTORE PUSH1 0x20 ADD PUSH0 KECCAK256 DUP2 SWAP1 DUP1 PUSH1 0x1 DUP2 SLOAD ADD DUP1 DUP3 SSTORE DUP1 SWAP2 POP POP PUSH1 0x1 SWAP1 SUB SWAP1 PUSH0 MSTORE PUSH1 0x20 PUSH0 KECCAK256 SWAP1 PUSH1 0x5 MUL ADD PUSH0 SWAP1 SWAP2 SWAP1 SWAP2 SWAP1 SWAP2 POP PUSH0 DUP3 ADD MLOAD DUP2 PUSH0 ADD PUSH0 PUSH2 0x100 EXP DUP2 SLOAD DUP2 PUSH20 0xFFFFFFFFFFFFFFFFFFFFFFFFFFFFFFFFFFFFFFFF MUL NOT AND SWAP1 DUP4 PUSH20 0xFFFFFFFFFFFFFFFFFFFFFFFFFFFFFFFFFFFFFFFF AND MUL OR SWAP1 SSTORE POP PUSH1 0x20 DUP3 ADD MLOAD DUP2 PUSH1 0x1 ADD SSTORE PUSH1 0x40 DUP3 ADD MLOAD DUP2 PUSH1 0x2 ADD SSTORE PUSH1 0x60 DUP3 ADD MLOAD DUP2 PUSH1 0x3 ADD SWAP1 DUP2 PUSH2 0x1B19 SWAP2 SWAP1 PUSH2 0x3CC1 JUMP JUMPDEST POP PUSH1 0x80 DUP3 ADD MLOAD DUP2 PUSH1 0x4 ADD SSTORE POP POP POP POP POP POP POP POP POP POP JUMP JUMPDEST PUSH1 0x1 PUSH0 SWAP1 SLOAD SWAP1 PUSH2 0x100 EXP SWAP1 DIV PUSH20 0xFFFFFFFFFFFFFFFFFFFFFFFFFFFFFFFFFFFFFFFF AND DUP2 JUMP JUMPDEST PUSH0 PUSH1 0x2 DUP2 GT ISZERO PUSH2 0x1B68 JUMPI PUSH2 0x1B67 PUSH2 0x32A2 JUMP JUMPDEST JUMPDEST PUSH1 0x3 PUSH0 CALLER PUSH20 0xFFFFFFFFFFFFFFFFFFFFFFFFFFFFFFFFFFFFFFFF AND PUSH20 0xFFFFFFFFFFFFFFFFFFFFFFFFFFFFFFFFFFFFFFFF AND DUP2 MSTORE PUSH1 0x20 ADD SWAP1 DUP2 MSTORE PUSH1 0x20 ADD PUSH0 KECCAK256 PUSH0 ADD PUSH0 SWAP1 SLOAD SWAP1 PUSH2 0x100 EXP SWAP1 DIV PUSH1 0xFF AND PUSH1 0x2 DUP2 GT ISZERO PUSH2 0x1BC6 JUMPI PUSH2 0x1BC5 PUSH2 0x32A2 JUMP JUMPDEST JUMPDEST SUB PUSH2 0x1C6A JUMPI PUSH1 0x40 MLOAD DUP1 PUSH1 0x40 ADD PUSH1 0x40 MSTORE DUP1 PUSH0 PUSH1 0x2 DUP2 GT ISZERO PUSH2 0x1BE9 JUMPI PUSH2 0x1BE8 PUSH2 0x32A2 JUMP JUMPDEST JUMPDEST DUP2 MSTORE PUSH1 0x20 ADD PUSH0 DUP2 MSTORE POP PUSH1 0x3 PUSH0 CALLER PUSH20 0xFFFFFFFFFFFFFFFFFFFFFFFFFFFFFFFFFFFFFFFF AND PUSH20 0xFFFFFFFFFFFFFFFFFFFFFFFFFFFFFFFFFFFFFFFF AND DUP2 MSTORE PUSH1 0x20 ADD SWAP1 DUP2 MSTORE PUSH1 0x20 ADD PUSH0 KECCAK256 PUSH0 DUP3 ADD MLOAD DUP2 PUSH0 ADD PUSH0 PUSH2 0x100 EXP DUP2 SLOAD DUP2 PUSH1 0xFF MUL NOT AND SWAP1 DUP4 PUSH1 0x2 DUP2 GT ISZERO PUSH2 0x1C57 JUMPI PUSH2 0x1C56 PUSH2 0x32A2 JUMP JUMPDEST JUMPDEST MUL OR SWAP1 SSTORE POP PUSH1 0x20 DUP3 ADD MLOAD DUP2 PUSH1 0x1 ADD SSTORE SWAP1 POP POP JUMPDEST PUSH0 DUP4 GT PUSH2 0x1CAC JUMPI PUSH1 0x40 MLOAD PUSH32 0x8C379A000000000000000000000000000000000000000000000000000000000 DUP2 MSTORE PUSH1 0x4 ADD PUSH2 0x1CA3 SWAP1 PUSH2 0x3F88 JUMP JUMPDEST PUSH1 0x40 MLOAD DUP1 SWAP2 SUB SWAP1 REVERT JUMPDEST PUSH1 0x5 PUSH0 DUP6 PUSH20 0xFFFFFFFFFFFFFFFFFFFFFFFFFFFFFFFFFFFFFFFF AND PUSH20 0xFFFFFFFFFFFFFFFFFFFFFFFFFFFFFFFFFFFFFFFF AND DUP2 MSTORE PUSH1 0x20 ADD SWAP1 DUP2 MSTORE PUSH1 0x20 ADD PUSH0 KECCAK256 DUP1 SLOAD SWAP1 POP DUP3 LT PUSH2 0x1D2E JUMPI PUSH1 0x40 MLOAD PUSH32 0x8C379A000000000000000000000000000000000000000000000000000000000 DUP2 MSTORE PUSH1 0x4 ADD PUSH2 0x1D25 SWAP1 PUSH2 0x3FF0 JUMP JUMPDEST PUSH1 0x40 MLOAD DUP1 SWAP2 SUB SWAP1 REVERT JUMPDEST PUSH1 0x5 PUSH0 DUP6 PUSH20 0xFFFFFFFFFFFFFFFFFFFFFFFFFFFFFFFFFFFFFFFF AND PUSH20 0xFFFFFFFFFFFFFFFFFFFFFFFFFFFFFFFFFFFFFFFF AND DUP2 MSTORE PUSH1 0x20 ADD SWAP1 DUP2 MSTORE PUSH1 0x20 ADD PUSH0 KECCAK256 DUP3 DUP2 SLOAD DUP2 LT PUSH2 0x1D7D JUMPI PUSH2 0x1D7C PUSH2 0x3D90 JUMP JUMPDEST JUMPDEST SWAP1 PUSH0 MSTORE PUSH1 0x20 PUSH0 KECCAK256 SWAP1 PUSH1 0x5 MUL ADD PUSH1 0x1 ADD SLOAD DUP4 GT ISZERO PUSH2 0x1DCF JUMPI PUSH1 0x40 MLOAD PUSH32 0x8C379A000000000000000000000000000000000000000000000000000000000 DUP2 MSTORE PUSH1 0x4 ADD PUSH2 0x1DC6 SWAP1 PUSH2 0x4240 JUMP JUMPDEST PUSH1 0x40 MLOAD DUP1 SWAP2 SUB SWAP1 REVERT JUMPDEST PUSH0 PUSH1 0x5 PUSH0 DUP7 PUSH20 0xFFFFFFFFFFFFFFFFFFFFFFFFFFFFFFFFFFFFFFFF AND PUSH20 0xFFFFFFFFFFFFFFFFFFFFFFFFFFFFFFFFFFFFFFFF AND DUP2 MSTORE PUSH1 0x20 ADD SWAP1 DUP2 MSTORE PUSH1 0x20 ADD PUSH0 KECCAK256 DUP4 DUP2 SLOAD DUP2 LT PUSH2 0x1E1F JUMPI PUSH2 0x1E1E PUSH2 0x3D90 JUMP JUMPDEST JUMPDEST SWAP1 PUSH0 MSTORE PUSH1 0x20 PUSH0 KECCAK256 SWAP1 PUSH1 0x5 MUL ADD PUSH1 0x2 ADD SLOAD DUP5 PUSH2 0x1E3A SWAP2 SWAP1 PUSH2 0x3DEA JUMP JUMPDEST SWAP1 POP CALLER PUSH20 0xFFFFFFFFFFFFFFFFFFFFFFFFFFFFFFFFFFFFFFFF AND PUSH1 0x7 DUP4 PUSH1 0x40 MLOAD PUSH2 0x1E63 SWAP2 SWAP1 PUSH2 0x425E JUMP JUMPDEST SWAP1 DUP2 MSTORE PUSH1 0x20 ADD PUSH1 0x40 MLOAD DUP1 SWAP2 SUB SWAP1 KECCAK256 PUSH0 SWAP1 SLOAD SWAP1 PUSH2 0x100 EXP SWAP1 DIV PUSH20 0xFFFFFFFFFFFFFFFFFFFFFFFFFFFFFFFFFFFFFFFF AND PUSH20 0xFFFFFFFFFFFFFFFFFFFFFFFFFFFFFFFFFFFFFFFF AND SUB PUSH2 0x1F24 JUMPI PUSH1 0x64 PUSH1 0x5A DUP3 PUSH2 0x1EBB SWAP2 SWAP1 PUSH2 0x3DEA JUMP JUMPDEST PUSH2 0x1EC5 SWAP2 SWAP1 PUSH2 0x41C6 JUMP JUMPDEST SWAP1 POP PUSH0 PUSH1 0x7 DUP4 PUSH1 0x40 MLOAD PUSH2 0x1ED8 SWAP2 SWAP1 PUSH2 0x425E JUMP JUMPDEST SWAP1 DUP2 MSTORE PUSH1 0x20 ADD PUSH1 0x40 MLOAD DUP1 SWAP2 SUB SWAP1 KECCAK256 PUSH0 PUSH2 0x100 EXP DUP2 SLOAD DUP2 PUSH20 0xFFFFFFFFFFFFFFFFFFFFFFFFFFFFFFFFFFFFFFFF MUL NOT AND SWAP1 DUP4 PUSH20 0xFFFFFFFFFFFFFFFFFFFFFFFFFFFFFFFFFFFFFFFF AND MUL OR SWAP1 SSTORE POP JUMPDEST DUP1 CALLVALUE LT ISZERO PUSH2 0x1F67 JUMPI PUSH1 0x40 MLOAD PUSH32 0x8C379A000000000000000000000000000000000000000000000000000000000 DUP2 MSTORE PUSH1 0x4 ADD PUSH2 0x1F5E SWAP1 PUSH2 0x42BE JUMP JUMPDEST PUSH1 0x40 MLOAD DUP1 SWAP2 SUB SWAP1 REVERT JUMPDEST PUSH0 DUP1 JUMPDEST PUSH1 0x4 PUSH0 CALLER PUSH20 0xFFFFFFFFFFFFFFFFFFFFFFFFFFFFFFFFFFFFFFFF AND PUSH20 0xFFFFFFFFFFFFFFFFFFFFFFFFFFFFFFFFFFFFFFFF AND DUP2 MSTORE PUSH1 0x20 ADD SWAP1 DUP2 MSTORE PUSH1 0x20 ADD PUSH0 KECCAK256 DUP1 SLOAD SWAP1 POP DUP2 LT ISZERO PUSH2 0x212D JUMPI PUSH1 0x4 PUSH0 DUP9 PUSH20 0xFFFFFFFFFFFFFFFFFFFFFFFFFFFFFFFFFFFFFFFF AND PUSH20 0xFFFFFFFFFFFFFFFFFFFFFFFFFFFFFFFFFFFFFFFF AND DUP2 MSTORE PUSH1 0x20 ADD SWAP1 DUP2 MSTORE PUSH1 0x20 ADD PUSH0 KECCAK256 DUP6 DUP2 SLOAD DUP2 LT PUSH2 0x2001 JUMPI PUSH2 0x2000 PUSH2 0x3D90 JUMP JUMPDEST JUMPDEST SWAP1 PUSH0 MSTORE PUSH1 0x20 PUSH0 KECCAK256 SWAP1 PUSH1 0x5 MUL ADD PUSH1 0x3 ADD PUSH1 0x40 MLOAD PUSH2 0x201D SWAP2 SWAP1 PUSH2 0x4378 JUMP JUMPDEST PUSH1 0x40 MLOAD DUP1 SWAP2 SUB SWAP1 KECCAK256 PUSH1 0x4 PUSH0 CALLER PUSH20 0xFFFFFFFFFFFFFFFFFFFFFFFFFFFFFFFFFFFFFFFF AND PUSH20 0xFFFFFFFFFFFFFFFFFFFFFFFFFFFFFFFFFFFFFFFF AND DUP2 MSTORE PUSH1 0x20 ADD SWAP1 DUP2 MSTORE PUSH1 0x20 ADD PUSH0 KECCAK256 DUP3 DUP2 SLOAD DUP2 LT PUSH2 0x2074 JUMPI PUSH2 0x2073 PUSH2 0x3D90 JUMP JUMPDEST JUMPDEST SWAP1 PUSH0 MSTORE PUSH1 0x20 PUSH0 KECCAK256 SWAP1 PUSH1 0x5 MUL ADD PUSH1 0x3 ADD PUSH1 0x40 MLOAD PUSH2 0x2090 SWAP2 SWAP1 PUSH2 0x4378 JUMP JUMPDEST PUSH1 0x40 MLOAD DUP1 SWAP2 SUB SWAP1 KECCAK256 SUB PUSH2 0x211A JUMPI DUP6 PUSH1 0x4 PUSH0 CALLER PUSH20 0xFFFFFFFFFFFFFFFFFFFFFFFFFFFFFFFFFFFFFFFF AND PUSH20 0xFFFFFFFFFFFFFFFFFFFFFFFFFFFFFFFFFFFFFFFF AND DUP2 MSTORE PUSH1 0x20 ADD SWAP1 DUP2 MSTORE PUSH1 0x20 ADD PUSH0 KECCAK256 DUP3 DUP2 SLOAD DUP2 LT PUSH2 0x20ED JUMPI PUSH2 0x20EC PUSH2 0x3D90 JUMP JUMPDEST JUMPDEST SWAP1 PUSH0 MSTORE PUSH1 0x20 PUSH0 KECCAK256 SWAP1 PUSH1 0x5 MUL ADD PUSH1 0x1 ADD PUSH0 DUP3 DUP3 SLOAD PUSH2 0x210A SWAP2 SWAP1 PUSH2 0x3E2B JUMP JUMPDEST SWAP3 POP POP DUP2 SWAP1 SSTORE POP PUSH1 0x1 SWAP2 POP PUSH2 0x212D JUMP JUMPDEST DUP1 DUP1 PUSH2 0x2125 SWAP1 PUSH2 0x3ED1 JUMP JUMPDEST SWAP2 POP POP PUSH2 0x1F6A JUMP JUMPDEST POP DUP1 PUSH2 0x239F JUMPI PUSH0 PUSH1 0x40 MLOAD DUP1 PUSH1 0xA0 ADD PUSH1 0x40 MSTORE DUP1 CALLER PUSH20 0xFFFFFFFFFFFFFFFFFFFFFFFFFFFFFFFFFFFFFFFF AND DUP2 MSTORE PUSH1 0x20 ADD DUP8 DUP2 MSTORE PUSH1 0x20 ADD PUSH1 0x5 PUSH0 DUP11 PUSH20 0xFFFFFFFFFFFFFFFFFFFFFFFFFFFFFFFFFFFFFFFF AND PUSH20 0xFFFFFFFFFFFFFFFFFFFFFFFFFFFFFFFFFFFFFFFF AND DUP2 MSTORE PUSH1 0x20 ADD SWAP1 DUP2 MSTORE PUSH1 0x20 ADD PUSH0 KECCAK256 DUP8 DUP2 SLOAD DUP2 LT PUSH2 0x21B0 JUMPI PUSH2 0x21AF PUSH2 0x3D90 JUMP JUMPDEST JUMPDEST SWAP1 PUSH0 MSTORE PUSH1 0x20 PUSH0 KECCAK256 SWAP1 PUSH1 0x5 MUL ADD PUSH1 0x2 ADD SLOAD DUP2 MSTORE PUSH1 0x20 ADD PUSH1 0x5 PUSH0 DUP11 PUSH20 0xFFFFFFFFFFFFFFFFFFFFFFFFFFFFFFFFFFFFFFFF AND PUSH20 0xFFFFFFFFFFFFFFFFFFFFFFFFFFFFFFFFFFFFFFFF AND DUP2 MSTORE PUSH1 0x20 ADD SWAP1 DUP2 MSTORE PUSH1 0x20 ADD PUSH0 KECCAK256 DUP8 DUP2 SLOAD DUP2 LT PUSH2 0x2214 JUMPI PUSH2 0x2213 PUSH2 0x3D90 JUMP JUMPDEST JUMPDEST SWAP1 PUSH0 MSTORE PUSH1 0x20 PUSH0 KECCAK256 SWAP1 PUSH1 0x5 MUL ADD PUSH1 0x3 ADD DUP1 SLOAD PUSH2 0x222E SWAP1 PUSH2 0x3AF4 JUMP JUMPDEST DUP1 PUSH1 0x1F ADD PUSH1 0x20 DUP1 SWAP2 DIV MUL PUSH1 0x20 ADD PUSH1 0x40 MLOAD SWAP1 DUP2 ADD PUSH1 0x40 MSTORE DUP1 SWAP3 SWAP2 SWAP1 DUP2 DUP2 MSTORE PUSH1 0x20 ADD DUP3 DUP1 SLOAD PUSH2 0x225A SWAP1 PUSH2 0x3AF4 JUMP JUMPDEST DUP1 ISZERO PUSH2 0x22A5 JUMPI DUP1 PUSH1 0x1F LT PUSH2 0x227C JUMPI PUSH2 0x100 DUP1 DUP4 SLOAD DIV MUL DUP4 MSTORE SWAP2 PUSH1 0x20 ADD SWAP2 PUSH2 0x22A5 JUMP JUMPDEST DUP3 ADD SWAP2 SWAP1 PUSH0 MSTORE PUSH1 0x20 PUSH0 KECCAK256 SWAP1 JUMPDEST DUP2 SLOAD DUP2 MSTORE SWAP1 PUSH1 0x1 ADD SWAP1 PUSH1 0x20 ADD DUP1 DUP4 GT PUSH2 0x2288 JUMPI DUP3 SWAP1 SUB PUSH1 0x1F AND DUP3 ADD SWAP2 JUMPDEST POP POP POP POP POP DUP2 MSTORE PUSH1 0x20 ADD PUSH2 0x22BA PUSH2 0x3E8 PUSH2 0x18B6 JUMP JUMPDEST DUP2 MSTORE POP SWAP1 POP PUSH1 0x4 PUSH0 CALLER PUSH20 0xFFFFFFFFFFFFFFFFFFFFFFFFFFFFFFFFFFFFFFFF AND PUSH20 0xFFFFFFFFFFFFFFFFFFFFFFFFFFFFFFFFFFFFFFFF AND DUP2 MSTORE PUSH1 0x20 ADD SWAP1 DUP2 MSTORE PUSH1 0x20 ADD PUSH0 KECCAK256 DUP2 SWAP1 DUP1 PUSH1 0x1 DUP2 SLOAD ADD DUP1 DUP3 SSTORE DUP1 SWAP2 POP POP PUSH1 0x1 SWAP1 SUB SWAP1 PUSH0 MSTORE PUSH1 0x20 PUSH0 KECCAK256 SWAP1 PUSH1 0x5 MUL ADD PUSH0 SWAP1 SWAP2 SWAP1 SWAP2 SWAP1 SWAP2 POP PUSH0 DUP3 ADD MLOAD DUP2 PUSH0 ADD PUSH0 PUSH2 0x100 EXP DUP2 SLOAD DUP2 PUSH20 0xFFFFFFFFFFFFFFFFFFFFFFFFFFFFFFFFFFFFFFFF MUL NOT AND SWAP1 DUP4 PUSH20 0xFFFFFFFFFFFFFFFFFFFFFFFFFFFFFFFFFFFFFFFF AND MUL OR SWAP1 SSTORE POP PUSH1 0x20 DUP3 ADD MLOAD DUP2 PUSH1 0x1 ADD SSTORE PUSH1 0x40 DUP3 ADD MLOAD DUP2 PUSH1 0x2 ADD SSTORE PUSH1 0x60 DUP3 ADD MLOAD DUP2 PUSH1 0x3 ADD SWAP1 DUP2 PUSH2 0x2390 SWAP2 SWAP1 PUSH2 0x3CC1 JUMP JUMPDEST POP PUSH1 0x80 DUP3 ADD MLOAD DUP2 PUSH1 0x4 ADD SSTORE POP POP POP JUMPDEST DUP5 PUSH1 0x5 PUSH0 DUP9 PUSH20 0xFFFFFFFFFFFFFFFFFFFFFFFFFFFFFFFFFFFFFFFF AND PUSH20 0xFFFFFFFFFFFFFFFFFFFFFFFFFFFFFFFFFFFFFFFF AND DUP2 MSTORE PUSH1 0x20 ADD SWAP1 DUP2 MSTORE PUSH1 0x20 ADD PUSH0 KECCAK256 DUP6 DUP2 SLOAD DUP2 LT PUSH2 0x23EF JUMPI PUSH2 0x23EE PUSH2 0x3D90 JUMP JUMPDEST JUMPDEST SWAP1 PUSH0 MSTORE PUSH1 0x20 PUSH0 KECCAK256 SWAP1 PUSH1 0x5 MUL ADD PUSH1 0x1 ADD PUSH0 DUP3 DUP3 SLOAD PUSH2 0x240C SWAP2 SWAP1 PUSH2 0x3E5E JUMP JUMPDEST SWAP3 POP POP DUP2 SWAP1 SSTORE POP DUP2 PUSH1 0x3 PUSH0 DUP9 PUSH20 0xFFFFFFFFFFFFFFFFFFFFFFFFFFFFFFFFFFFFFFFF AND PUSH20 0xFFFFFFFFFFFFFFFFFFFFFFFFFFFFFFFFFFFFFFFF AND DUP2 MSTORE PUSH1 0x20 ADD SWAP1 DUP2 MSTORE PUSH1 0x20 ADD PUSH0 KECCAK256 PUSH1 0x1 ADD PUSH0 DUP3 DUP3 SLOAD PUSH2 0x2462 SWAP2 SWAP1 PUSH2 0x3E2B JUMP JUMPDEST SWAP3 POP POP DUP2 SWAP1 SSTORE POP DUP2 CALLVALUE GT ISZERO PUSH2 0x24C1 JUMPI CALLER PUSH20 0xFFFFFFFFFFFFFFFFFFFFFFFFFFFFFFFFFFFFFFFF AND PUSH2 0x8FC DUP4 CALLVALUE PUSH2 0x2497 SWAP2 SWAP1 PUSH2 0x3E5E JUMP JUMPDEST SWAP1 DUP2 ISZERO MUL SWAP1 PUSH1 0x40 MLOAD PUSH0 PUSH1 0x40 MLOAD DUP1 DUP4 SUB DUP2 DUP6 DUP9 DUP9 CALL SWAP4 POP POP POP POP ISZERO DUP1 ISZERO PUSH2 0x24BF JUMPI RETURNDATASIZE PUSH0 DUP1 RETURNDATACOPY RETURNDATASIZE PUSH0 REVERT JUMPDEST POP JUMPDEST POP POP POP POP POP POP JUMP JUMPDEST DUP1 PUSH20 0xFFFFFFFFFFFFFFFFFFFFFFFFFFFFFFFFFFFFFFFF AND CALLER PUSH20 0xFFFFFFFFFFFFFFFFFFFFFFFFFFFFFFFFFFFFFFFF AND SUB PUSH2 0x2500 JUMPI PUSH0 DUP1 REVERT JUMPDEST DUP1 PUSH1 0x7 DUP4 PUSH1 0x40 MLOAD PUSH2 0x2511 SWAP2 SWAP1 PUSH2 0x425E JUMP JUMPDEST SWAP1 DUP2 MSTORE PUSH1 0x20 ADD PUSH1 0x40 MLOAD DUP1 SWAP2 SUB SWAP1 KECCAK256 PUSH0 PUSH2 0x100 EXP DUP2 SLOAD DUP2 PUSH20 0xFFFFFFFFFFFFFFFFFFFFFFFFFFFFFFFFFFFFFFFF MUL NOT AND SWAP1 DUP4 PUSH20 0xFFFFFFFFFFFFFFFFFFFFFFFFFFFFFFFFFFFFFFFF AND MUL OR SWAP1 SSTORE POP POP POP JUMP JUMPDEST PUSH1 0x3 PUSH1 0x20 MSTORE DUP1 PUSH0 MSTORE PUSH1 0x40 PUSH0 KECCAK256 PUSH0 SWAP2 POP SWAP1 POP DUP1 PUSH0 ADD PUSH0 SWAP1 SLOAD SWAP1 PUSH2 0x100 EXP SWAP1 DIV PUSH1 0xFF AND SWAP1 DUP1 PUSH1 0x1 ADD SLOAD SWAP1 POP DUP3 JUMP JUMPDEST PUSH1 0x40 MLOAD DUP1 PUSH1 0x40 ADD PUSH1 0x40 MSTORE DUP1 PUSH0 PUSH1 0x2 DUP2 GT ISZERO PUSH2 0x25AA JUMPI PUSH2 0x25A9 PUSH2 0x32A2 JUMP JUMPDEST JUMPDEST DUP2 MSTORE PUSH1 0x20 ADD PUSH0 DUP2 MSTORE POP PUSH1 0x3 PUSH0 CALLER PUSH20 0xFFFFFFFFFFFFFFFFFFFFFFFFFFFFFFFFFFFFFFFF AND PUSH20 0xFFFFFFFFFFFFFFFFFFFFFFFFFFFFFFFFFFFFFFFF AND DUP2 MSTORE PUSH1 0x20 ADD SWAP1 DUP2 MSTORE PUSH1 0x20 ADD PUSH0 KECCAK256 PUSH0 DUP3 ADD MLOAD DUP2 PUSH0 ADD PUSH0 PUSH2 0x100 EXP DUP2 SLOAD DUP2 PUSH1 0xFF MUL NOT AND SWAP1 DUP4 PUSH1 0x2 DUP2 GT ISZERO PUSH2 0x2618 JUMPI PUSH2 0x2617 PUSH2 0x32A2 JUMP JUMPDEST JUMPDEST MUL OR SWAP1 SSTORE POP PUSH1 0x20 DUP3 ADD MLOAD DUP2 PUSH1 0x1 ADD SSTORE SWAP1 POP POP JUMP JUMPDEST PUSH1 0x7 DUP2 DUP1 MLOAD PUSH1 0x20 DUP2 ADD DUP3 ADD DUP1 MLOAD DUP5 DUP3 MSTORE PUSH1 0x20 DUP4 ADD PUSH1 0x20 DUP6 ADD KECCAK256 DUP2 DUP4 MSTORE DUP1 SWAP6 POP POP POP POP POP POP PUSH0 SWAP2 POP SLOAD SWAP1 PUSH2 0x100 EXP SWAP1 DIV PUSH20 0xFFFFFFFFFFFFFFFFFFFFFFFFFFFFFFFFFFFFFFFF AND DUP2 JUMP JUMPDEST PUSH0 DUP1 PUSH1 0x2 DUP2 GT ISZERO PUSH2 0x2688 JUMPI PUSH2 0x2687 PUSH2 0x32A2 JUMP JUMPDEST JUMPDEST PUSH1 0x3 PUSH0 CALLER PUSH20 0xFFFFFFFFFFFFFFFFFFFFFFFFFFFFFFFFFFFFFFFF AND PUSH20 0xFFFFFFFFFFFFFFFFFFFFFFFFFFFFFFFFFFFFFFFF AND DUP2 MSTORE PUSH1 0x20 ADD SWAP1 DUP2 MSTORE PUSH1 0x20 ADD PUSH0 KECCAK256 PUSH0 ADD PUSH0 SWAP1 SLOAD SWAP1 PUSH2 0x100 EXP SWAP1 DIV PUSH1 0xFF AND PUSH1 0x2 DUP2 GT ISZERO PUSH2 0x26E6 JUMPI PUSH2 0x26E5 PUSH2 0x32A2 JUMP JUMPDEST JUMPDEST EQ PUSH2 0x2726 JUMPI PUSH1 0x40 MLOAD PUSH32 0x8C379A000000000000000000000000000000000000000000000000000000000 DUP2 MSTORE PUSH1 0x4 ADD PUSH2 0x271D SWAP1 PUSH2 0x3AA9 JUMP JUMPDEST PUSH1 0x40 MLOAD DUP1 SWAP2 SUB SWAP1 REVERT JUMPDEST PUSH1 0x1 PUSH1 0x3 DUP2 GT ISZERO PUSH2 0x273A JUMPI PUSH2 0x2739 PUSH2 0x32A2 JUMP JUMPDEST JUMPDEST PUSH1 0x2 DUP4 DUP2 SLOAD DUP2 LT PUSH2 0x274E JUMPI PUSH2 0x274D PUSH2 0x3D90 JUMP JUMPDEST JUMPDEST SWAP1 PUSH0 MSTORE PUSH1 0x20 PUSH0 KECCAK256 SWAP1 PUSH1 0x5 MUL ADD PUSH1 0x1 ADD PUSH1 0x14 SWAP1 SLOAD SWAP1 PUSH2 0x100 EXP SWAP1 DIV PUSH1 0xFF AND PUSH1 0x3 DUP2 GT ISZERO PUSH2 0x277D JUMPI PUSH2 0x277C PUSH2 0x32A2 JUMP JUMPDEST JUMPDEST EQ PUSH2 0x2786 JUMPI PUSH0 DUP1 REVERT JUMPDEST DUP3 ISZERO PUSH2 0x2810 JUMPI PUSH2 0x280B PUSH1 0x2 DUP4 DUP2 SLOAD DUP2 LT PUSH2 0x27A3 JUMPI PUSH2 0x27A2 PUSH2 0x3D90 JUMP JUMPDEST JUMPDEST SWAP1 PUSH0 MSTORE PUSH1 0x20 PUSH0 KECCAK256 SWAP1 PUSH1 0x5 MUL ADD PUSH1 0x1 ADD PUSH0 SWAP1 SLOAD SWAP1 PUSH2 0x100 EXP SWAP1 DIV PUSH20 0xFFFFFFFFFFFFFFFFFFFFFFFFFFFFFFFFFFFFFFFF AND PUSH1 0x2 DUP5 DUP2 SLOAD DUP2 LT PUSH2 0x27E6 JUMPI PUSH2 0x27E5 PUSH2 0x3D90 JUMP JUMPDEST JUMPDEST SWAP1 PUSH0 MSTORE PUSH1 0x20 PUSH0 KECCAK256 SWAP1 PUSH1 0x5 MUL ADD PUSH1 0x4 ADD SLOAD DUP5 PUSH1 0x40 MLOAD DUP1 PUSH1 0x20 ADD PUSH1 0x40 MSTORE DUP1 PUSH0 DUP2 MSTORE POP PUSH2 0x1B55 JUMP JUMPDEST PUSH2 0x286A JUMP JUMPDEST PUSH1 0x2 PUSH1 0x3 DUP2 GT ISZERO PUSH2 0x2824 JUMPI PUSH2 0x2823 PUSH2 0x32A2 JUMP JUMPDEST JUMPDEST PUSH1 0x2 DUP4 DUP2 SLOAD DUP2 LT PUSH2 0x2838 JUMPI PUSH2 0x2837 PUSH2 0x3D90 JUMP JUMPDEST JUMPDEST SWAP1 PUSH0 MSTORE PUSH1 0x20 PUSH0 KECCAK256 SWAP1 PUSH1 0x5 MUL ADD PUSH1 0x1 ADD PUSH1 0x14 SWAP1 SLOAD SWAP1 PUSH2 0x100 EXP SWAP1 DIV PUSH1 0xFF AND PUSH1 0x3 DUP2 GT ISZERO PUSH2 0x2867 JUMPI PUSH2 0x2866 PUSH2 0x32A2 JUMP JUMPDEST JUMPDEST POP POP JUMPDEST POP POP POP JUMP JUMPDEST PUSH1 0x1 DUP1 PUSH1 0x2 DUP2 GT ISZERO PUSH2 0x2884 JUMPI PUSH2 0x2883 PUSH2 0x32A2 JUMP JUMPDEST JUMPDEST PUSH1 0x3 PUSH0 CALLER PUSH20 0xFFFFFFFFFFFFFFFFFFFFFFFFFFFFFFFFFFFFFFFF AND PUSH20 0xFFFFFFFFFFFFFFFFFFFFFFFFFFFFFFFFFFFFFFFF AND DUP2 MSTORE PUSH1 0x20 ADD SWAP1 DUP2 MSTORE PUSH1 0x20 ADD PUSH0 KECCAK256 PUSH0 ADD PUSH0 SWAP1 SLOAD SWAP1 PUSH2 0x100 EXP SWAP1 DIV PUSH1 0xFF AND PUSH1 0x2 DUP2 GT ISZERO PUSH2 0x28E2 JUMPI PUSH2 0x28E1 PUSH2 0x32A2 JUMP JUMPDEST JUMPDEST EQ PUSH2 0x2922 JUMPI PUSH1 0x40 MLOAD PUSH32 0x8C379A000000000000000000000000000000000000000000000000000000000 DUP2 MSTORE PUSH1 0x4 ADD PUSH2 0x2919 SWAP1 PUSH2 0x3AA9 JUMP JUMPDEST PUSH1 0x40 MLOAD DUP1 SWAP2 SUB SWAP1 REVERT JUMPDEST CALLER PUSH20 0xFFFFFFFFFFFFFFFFFFFFFFFFFFFFFFFFFFFFFFFF AND PUSH2 0x8FC PUSH1 0x3 PUSH0 CALLER PUSH20 0xFFFFFFFFFFFFFFFFFFFFFFFFFFFFFFFFFFFFFFFF AND PUSH20 0xFFFFFFFFFFFFFFFFFFFFFFFFFFFFFFFFFFFFFFFF AND DUP2 MSTORE PUSH1 0x20 ADD SWAP1 DUP2 MSTORE PUSH1 0x20 ADD PUSH0 KECCAK256 PUSH1 0x1 ADD SLOAD SWAP1 DUP2 ISZERO MUL SWAP1 PUSH1 0x40 MLOAD PUSH0 PUSH1 0x40 MLOAD DUP1 DUP4 SUB DUP2 DUP6 DUP9 DUP9 CALL SWAP4 POP POP POP POP ISZERO DUP1 ISZERO PUSH2 0x29A5 JUMPI RETURNDATASIZE PUSH0 DUP1 RETURNDATACOPY RETURNDATASIZE PUSH0 REVERT JUMPDEST POP PUSH0 PUSH1 0x3 PUSH0 CALLER PUSH20 0xFFFFFFFFFFFFFFFFFFFFFFFFFFFFFFFFFFFFFFFF AND PUSH20 0xFFFFFFFFFFFFFFFFFFFFFFFFFFFFFFFFFFFFFFFF AND DUP2 MSTORE PUSH1 0x20 ADD SWAP1 DUP2 MSTORE PUSH1 0x20 ADD PUSH0 KECCAK256 PUSH1 0x1 ADD DUP2 SWAP1 SSTORE POP POP JUMP JUMPDEST PUSH1 0x1 DUP1 PUSH1 0x2 DUP2 GT ISZERO PUSH2 0x2A03 JUMPI PUSH2 0x2A02 PUSH2 0x32A2 JUMP JUMPDEST JUMPDEST PUSH1 0x3 PUSH0 CALLER PUSH20 0xFFFFFFFFFFFFFFFFFFFFFFFFFFFFFFFFFFFFFFFF AND PUSH20 0xFFFFFFFFFFFFFFFFFFFFFFFFFFFFFFFFFFFFFFFF AND DUP2 MSTORE PUSH1 0x20 ADD SWAP1 DUP2 MSTORE PUSH1 0x20 ADD PUSH0 KECCAK256 PUSH0 ADD PUSH0 SWAP1 SLOAD SWAP1 PUSH2 0x100 EXP SWAP1 DIV PUSH1 0xFF AND PUSH1 0x2 DUP2 GT ISZERO PUSH2 0x2A61 JUMPI PUSH2 0x2A60 PUSH2 0x32A2 JUMP JUMPDEST JUMPDEST EQ PUSH2 0x2AA1 JUMPI PUSH1 0x40 MLOAD PUSH32 0x8C379A000000000000000000000000000000000000000000000000000000000 DUP2 MSTORE PUSH1 0x4 ADD PUSH2 0x2A98 SWAP1 PUSH2 0x3AA9 JUMP JUMPDEST PUSH1 0x40 MLOAD DUP1 SWAP2 SUB SWAP1 REVERT JUMPDEST PUSH0 DUP4 GT PUSH2 0x2AE3 JUMPI PUSH1 0x40 MLOAD PUSH32 0x8C379A000000000000000000000000000000000000000000000000000000000 DUP2 MSTORE PUSH1 0x4 ADD PUSH2 0x2ADA SWAP1 PUSH2 0x3F88 JUMP JUMPDEST PUSH1 0x40 MLOAD DUP1 SWAP2 SUB SWAP1 REVERT JUMPDEST PUSH1 0x6 PUSH0 DUP4 PUSH20 0xFFFFFFFFFFFFFFFFFFFFFFFFFFFFFFFFFFFFFFFF AND PUSH20 0xFFFFFFFFFFFFFFFFFFFFFFFFFFFFFFFFFFFFFFFF AND DUP2 MSTORE PUSH1 0x20 ADD SWAP1 DUP2 MSTORE PUSH1 0x20 ADD PUSH0 KECCAK256 DUP1 SLOAD SWAP1 POP DUP5 LT PUSH2 0x2B65 JUMPI PUSH1 0x40 MLOAD PUSH32 0x8C379A000000000000000000000000000000000000000000000000000000000 DUP2 MSTORE PUSH1 0x4 ADD PUSH2 0x2B5C SWAP1 PUSH2 0x3FF0 JUMP JUMPDEST PUSH1 0x40 MLOAD DUP1 SWAP2 SUB SWAP1 REVERT JUMPDEST PUSH0 PUSH1 0x6 PUSH0 DUP5 PUSH20 0xFFFFFFFFFFFFFFFFFFFFFFFFFFFFFFFFFFFFFFFF AND PUSH20 0xFFFFFFFFFFFFFFFFFFFFFFFFFFFFFFFFFFFFFFFF AND DUP2 MSTORE PUSH1 0x20 ADD SWAP1 DUP2 MSTORE PUSH1 0x20 ADD PUSH0 KECCAK256 DUP6 DUP2 SLOAD DUP2 LT PUSH2 0x2BB5 JUMPI PUSH2 0x2BB4 PUSH2 0x3D90 JUMP JUMPDEST JUMPDEST SWAP1 PUSH0 MSTORE PUSH1 0x20 PUSH0 KECCAK256 SWAP1 PUSH1 0x5 MUL ADD PUSH1 0x2 ADD SLOAD SWAP1 POP PUSH0 DUP5 DUP3 PUSH2 0x2BD4 SWAP2 SWAP1 PUSH2 0x3DEA JUMP JUMPDEST SWAP1 POP DUP1 CALLVALUE LT ISZERO PUSH2 0x2C19 JUMPI PUSH1 0x40 MLOAD PUSH32 0x8C379A000000000000000000000000000000000000000000000000000000000 DUP2 MSTORE PUSH1 0x4 ADD PUSH2 0x2C10 SWAP1 PUSH2 0x42BE JUMP JUMPDEST PUSH1 0x40 MLOAD DUP1 SWAP2 SUB SWAP1 REVERT JUMPDEST PUSH0 PUSH1 0x6 PUSH0 DUP7 PUSH20 0xFFFFFFFFFFFFFFFFFFFFFFFFFFFFFFFFFFFFFFFF AND PUSH20 0xFFFFFFFFFFFFFFFFFFFFFFFFFFFFFFFFFFFFFFFF AND DUP2 MSTORE PUSH1 0x20 ADD SWAP1 DUP2 MSTORE PUSH1 0x20 ADD PUSH0 KECCAK256 DUP8 DUP2 SLOAD DUP2 LT PUSH2 0x2C69 JUMPI PUSH2 0x2C68 PUSH2 0x3D90 JUMP JUMPDEST JUMPDEST SWAP1 PUSH0 MSTORE PUSH1 0x20 PUSH0 KECCAK256 SWAP1 PUSH1 0x5 MUL ADD PUSH1 0x3 ADD DUP1 SLOAD PUSH2 0x2C83 SWAP1 PUSH2 0x3AF4 JUMP JUMPDEST DUP1 PUSH1 0x1F ADD PUSH1 0x20 DUP1 SWAP2 DIV MUL PUSH1 0x20 ADD PUSH1 0x40 MLOAD SWAP1 DUP2 ADD PUSH1 0x40 MSTORE DUP1 SWAP3 SWAP2 SWAP1 DUP2 DUP2 MSTORE PUSH1 0x20 ADD DUP3 DUP1 SLOAD PUSH2 0x2CAF SWAP1 PUSH2 0x3AF4 JUMP JUMPDEST DUP1 ISZERO PUSH2 0x2CFA JUMPI DUP1 PUSH1 0x1F LT PUSH2 0x2CD1 JUMPI PUSH2 0x100 DUP1 DUP4 SLOAD DIV MUL DUP4 MSTORE SWAP2 PUSH1 0x20 ADD SWAP2 PUSH2 0x2CFA JUMP JUMPDEST DUP3 ADD SWAP2 SWAP1 PUSH0 MSTORE PUSH1 0x20 PUSH0 KECCAK256 SWAP1 JUMPDEST DUP2 SLOAD DUP2 MSTORE SWAP1 PUSH1 0x1 ADD SWAP1 PUSH1 0x20 ADD DUP1 DUP4 GT PUSH2 0x2CDD JUMPI DUP3 SWAP1 SUB PUSH1 0x1F AND DUP3 ADD SWAP2 JUMPDEST POP POP POP POP POP SWAP1 POP PUSH0 DUP1 JUMPDEST PUSH1 0x5 PUSH0 DUP12 PUSH20 0xFFFFFFFFFFFFFFFFFFFFFFFFFFFFFFFFFFFFFFFF AND PUSH20 0xFFFFFFFFFFFFFFFFFFFFFFFFFFFFFFFFFFFFFFFF AND DUP2 MSTORE PUSH1 0x20 ADD SWAP1 DUP2 MSTORE PUSH1 0x20 ADD PUSH0 KECCAK256 DUP1 SLOAD SWAP1 POP DUP2 LT ISZERO PUSH2 0x2E5C JUMPI PUSH1 0x5 PUSH0 DUP12 PUSH20 0xFFFFFFFFFFFFFFFFFFFFFFFFFFFFFFFFFFFFFFFF AND PUSH20 0xFFFFFFFFFFFFFFFFFFFFFFFFFFFFFFFFFFFFFFFF AND DUP2 MSTORE PUSH1 0x20 ADD SWAP1 DUP2 MSTORE PUSH1 0x20 ADD PUSH0 KECCAK256 DUP2 DUP2 SLOAD DUP2 LT PUSH2 0x2D9B JUMPI PUSH2 0x2D9A PUSH2 0x3D90 JUMP JUMPDEST JUMPDEST SWAP1 PUSH0 MSTORE PUSH1 0x20 PUSH0 KECCAK256 SWAP1 PUSH1 0x5 MUL ADD PUSH1 0x3 ADD PUSH1 0x40 MLOAD PUSH2 0x2DB7 SWAP2 SWAP1 PUSH2 0x4378 JUMP JUMPDEST PUSH1 0x40 MLOAD DUP1 SWAP2 SUB SWAP1 KECCAK256 DUP4 DUP1 MLOAD SWAP1 PUSH1 0x20 ADD KECCAK256 SUB PUSH2 0x2E49 JUMPI DUP8 PUSH1 0x5 PUSH0 DUP13 PUSH20 0xFFFFFFFFFFFFFFFFFFFFFFFFFFFFFFFFFFFFFFFF AND PUSH20 0xFFFFFFFFFFFFFFFFFFFFFFFFFFFFFFFFFFFFFFFF AND DUP2 MSTORE PUSH1 0x20 ADD SWAP1 DUP2 MSTORE PUSH1 0x20 ADD PUSH0 KECCAK256 DUP3 DUP2 SLOAD DUP2 LT PUSH2 0x2E1C JUMPI PUSH2 0x2E1B PUSH2 0x3D90 JUMP JUMPDEST JUMPDEST SWAP1 PUSH0 MSTORE PUSH1 0x20 PUSH0 KECCAK256 SWAP1 PUSH1 0x5 MUL ADD PUSH1 0x1 ADD PUSH0 DUP3 DUP3 SLOAD PUSH2 0x2E39 SWAP2 SWAP1 PUSH2 0x3E2B JUMP JUMPDEST SWAP3 POP POP DUP2 SWAP1 SSTORE POP PUSH1 0x1 SWAP2 POP PUSH2 0x2E5C JUMP JUMPDEST DUP1 DUP1 PUSH2 0x2E54 SWAP1 PUSH2 0x3ED1 JUMP JUMPDEST SWAP2 POP POP PUSH2 0x2D04 JUMP JUMPDEST POP DUP1 PUSH2 0x2FE0 JUMPI PUSH0 PUSH1 0x40 MLOAD DUP1 PUSH1 0xA0 ADD PUSH1 0x40 MSTORE DUP1 DUP9 PUSH20 0xFFFFFFFFFFFFFFFFFFFFFFFFFFFFFFFFFFFFFFFF AND DUP2 MSTORE PUSH1 0x20 ADD DUP10 DUP2 MSTORE PUSH1 0x20 ADD DUP7 DUP2 MSTORE PUSH1 0x20 ADD DUP5 DUP2 MSTORE PUSH1 0x20 ADD PUSH1 0x6 PUSH0 DUP11 PUSH20 0xFFFFFFFFFFFFFFFFFFFFFFFFFFFFFFFFFFFFFFFF AND PUSH20 0xFFFFFFFFFFFFFFFFFFFFFFFFFFFFFFFFFFFFFFFF AND DUP2 MSTORE PUSH1 0x20 ADD SWAP1 DUP2 MSTORE PUSH1 0x20 ADD PUSH0 KECCAK256 DUP12 DUP2 SLOAD DUP2 LT PUSH2 0x2EEB JUMPI PUSH2 0x2EEA PUSH2 0x3D90 JUMP JUMPDEST JUMPDEST SWAP1 PUSH0 MSTORE PUSH1 0x20 PUSH0 KECCAK256 SWAP1 PUSH1 0x5 MUL ADD PUSH1 0x4 ADD SLOAD DUP2 MSTORE POP SWAP1 POP PUSH1 0x5 PUSH0 DUP12 PUSH20 0xFFFFFFFFFFFFFFFFFFFFFFFFFFFFFFFFFFFFFFFF AND PUSH20 0xFFFFFFFFFFFFFFFFFFFFFFFFFFFFFFFFFFFFFFFF AND DUP2 MSTORE PUSH1 0x20 ADD SWAP1 DUP2 MSTORE PUSH1 0x20 ADD PUSH0 KECCAK256 DUP2 SWAP1 DUP1 PUSH1 0x1 DUP2 SLOAD ADD DUP1 DUP3 SSTORE DUP1 SWAP2 POP POP PUSH1 0x1 SWAP1 SUB SWAP1 PUSH0 MSTORE PUSH1 0x20 PUSH0 KECCAK256 SWAP1 PUSH1 0x5 MUL ADD PUSH0 SWAP1 SWAP2 SWAP1 SWAP2 SWAP1 SWAP2 POP PUSH0 DUP3 ADD MLOAD DUP2 PUSH0 ADD PUSH0 PUSH2 0x100 EXP DUP2 SLOAD DUP2 PUSH20 0xFFFFFFFFFFFFFFFFFFFFFFFFFFFFFFFFFFFFFFFF MUL NOT AND SWAP1 DUP4 PUSH20 0xFFFFFFFFFFFFFFFFFFFFFFFFFFFFFFFFFFFFFFFF AND MUL OR SWAP1 SSTORE POP PUSH1 0x20 DUP3 ADD MLOAD DUP2 PUSH1 0x1 ADD SSTORE PUSH1 0x40 DUP3 ADD MLOAD DUP2 PUSH1 0x2 ADD SSTORE PUSH1 0x60 DUP3 ADD MLOAD DUP2 PUSH1 0x3 ADD SWAP1 DUP2 PUSH2 0x2FD1 SWAP2 SWAP1 PUSH2 0x3CC1 JUMP JUMPDEST POP PUSH1 0x80 DUP3 ADD MLOAD DUP2 PUSH1 0x4 ADD SSTORE POP POP POP JUMPDEST DUP7 PUSH1 0x6 PUSH0 DUP9 PUSH20 0xFFFFFFFFFFFFFFFFFFFFFFFFFFFFFFFFFFFFFFFF AND PUSH20 0xFFFFFFFFFFFFFFFFFFFFFFFFFFFFFFFFFFFFFFFF AND DUP2 MSTORE PUSH1 0x20 ADD SWAP1 DUP2 MSTORE PUSH1 0x20 ADD PUSH0 KECCAK256 DUP10 DUP2 SLOAD DUP2 LT PUSH2 0x3030 JUMPI PUSH2 0x302F PUSH2 0x3D90 JUMP JUMPDEST JUMPDEST SWAP1 PUSH0 MSTORE PUSH1 0x20 PUSH0 KECCAK256 SWAP1 PUSH1 0x5 MUL ADD PUSH1 0x1 ADD PUSH0 DUP3 DUP3 SLOAD PUSH2 0x304D SWAP2 SWAP1 PUSH2 0x3E5E JUMP JUMPDEST SWAP3 POP POP DUP2 SWAP1 SSTORE POP DUP3 CALLVALUE GT ISZERO PUSH2 0x30AC JUMPI CALLER PUSH20 0xFFFFFFFFFFFFFFFFFFFFFFFFFFFFFFFFFFFFFFFF AND PUSH2 0x8FC DUP5 CALLVALUE PUSH2 0x3082 SWAP2 SWAP1 PUSH2 0x3E5E JUMP JUMPDEST SWAP1 DUP2 ISZERO MUL SWAP1 PUSH1 0x40 MLOAD PUSH0 PUSH1 0x40 MLOAD DUP1 DUP4 SUB DUP2 DUP6 DUP9 DUP9 CALL SWAP4 POP POP POP POP ISZERO DUP1 ISZERO PUSH2 0x30AA JUMPI RETURNDATASIZE PUSH0 DUP1 RETURNDATACOPY RETURNDATASIZE PUSH0 REVERT JUMPDEST POP JUMPDEST POP POP POP POP POP POP POP POP POP JUMP JUMPDEST POP DUP1 SLOAD PUSH2 0x30C3 SWAP1 PUSH2 0x3AF4 JUMP JUMPDEST PUSH0 DUP3 SSTORE DUP1 PUSH1 0x1F LT PUSH2 0x30D4 JUMPI POP PUSH2 0x30F1 JUMP JUMPDEST PUSH1 0x1F ADD PUSH1 0x20 SWAP1 DIV SWAP1 PUSH0 MSTORE PUSH1 0x20 PUSH0 KECCAK256 SWAP1 DUP2 ADD SWAP1 PUSH2 0x30F0 SWAP2 SWAP1 PUSH2 0x30F4 JUMP JUMPDEST JUMPDEST POP JUMP JUMPDEST JUMPDEST DUP1 DUP3 GT ISZERO PUSH2 0x310B JUMPI PUSH0 DUP2 PUSH0 SWAP1 SSTORE POP PUSH1 0x1 ADD PUSH2 0x30F5 JUMP JUMPDEST POP SWAP1 JUMP JUMPDEST PUSH0 PUSH1 0x40 MLOAD SWAP1 POP SWAP1 JUMP JUMPDEST PUSH0 DUP1 REVERT JUMPDEST PUSH0 DUP1 REVERT JUMPDEST PUSH0 DUP2 SWAP1 POP SWAP2 SWAP1 POP JUMP JUMPDEST PUSH2 0x3132 DUP2 PUSH2 0x3120 JUMP JUMPDEST DUP2 EQ PUSH2 0x313C JUMPI PUSH0 DUP1 REVERT JUMPDEST POP JUMP JUMPDEST PUSH0 DUP2 CALLDATALOAD SWAP1 POP PUSH2 0x314D DUP2 PUSH2 0x3129 JUMP JUMPDEST SWAP3 SWAP2 POP POP JUMP JUMPDEST PUSH0 DUP1 REVERT JUMPDEST PUSH0 DUP1 REVERT JUMPDEST PUSH0 DUP1 REVERT JUMPDEST PUSH0 DUP1 DUP4 PUSH1 0x1F DUP5 ADD SLT PUSH2 0x3174 JUMPI PUSH2 0x3173 PUSH2 0x3153 JUMP JUMPDEST JUMPDEST DUP3 CALLDATALOAD SWAP1 POP PUSH8 0xFFFFFFFFFFFFFFFF DUP2 GT ISZERO PUSH2 0x3191 JUMPI PUSH2 0x3190 PUSH2 0x3157 JUMP JUMPDEST JUMPDEST PUSH1 0x20 DUP4 ADD SWAP2 POP DUP4 PUSH1 0x1 DUP3 MUL DUP4 ADD GT ISZERO PUSH2 0x31AD JUMPI PUSH2 0x31AC PUSH2 0x315B JUMP JUMPDEST JUMPDEST SWAP3 POP SWAP3 SWAP1 POP JUMP JUMPDEST PUSH0 DUP1 PUSH0 DUP1 PUSH0 PUSH1 0x80 DUP7 DUP9 SUB SLT ISZERO PUSH2 0x31CD JUMPI PUSH2 0x31CC PUSH2 0x3118 JUMP JUMPDEST JUMPDEST PUSH0 PUSH2 0x31DA DUP9 DUP3 DUP10 ADD PUSH2 0x313F JUMP JUMPDEST SWAP6 POP POP PUSH1 0x20 PUSH2 0x31EB DUP9 DUP3 DUP10 ADD PUSH2 0x313F JUMP JUMPDEST SWAP5 POP POP PUSH1 0x40 DUP7 ADD CALLDATALOAD PUSH8 0xFFFFFFFFFFFFFFFF DUP2 GT ISZERO PUSH2 0x320C JUMPI PUSH2 0x320B PUSH2 0x311C JUMP JUMPDEST JUMPDEST PUSH2 0x3218 DUP9 DUP3 DUP10 ADD PUSH2 0x315F JUMP JUMPDEST SWAP4 POP SWAP4 POP POP PUSH1 0x60 PUSH2 0x322B DUP9 DUP3 DUP10 ADD PUSH2 0x313F JUMP JUMPDEST SWAP2 POP POP SWAP3 SWAP6 POP SWAP3 SWAP6 SWAP1 SWAP4 POP JUMP JUMPDEST PUSH0 PUSH1 0x20 DUP3 DUP5 SUB SLT ISZERO PUSH2 0x324D JUMPI PUSH2 0x324C PUSH2 0x3118 JUMP JUMPDEST JUMPDEST PUSH0 PUSH2 0x325A DUP5 DUP3 DUP6 ADD PUSH2 0x313F JUMP JUMPDEST SWAP2 POP POP SWAP3 SWAP2 POP POP JUMP JUMPDEST PUSH0 PUSH20 0xFFFFFFFFFFFFFFFFFFFFFFFFFFFFFFFFFFFFFFFF DUP3 AND SWAP1 POP SWAP2 SWAP1 POP JUMP JUMPDEST PUSH0 PUSH2 0x328C DUP3 PUSH2 0x3263 JUMP JUMPDEST SWAP1 POP SWAP2 SWAP1 POP JUMP JUMPDEST PUSH2 0x329C DUP2 PUSH2 0x3282 JUMP JUMPDEST DUP3 MSTORE POP POP JUMP JUMPDEST PUSH32 0x4E487B7100000000000000000000000000000000000000000000000000000000 PUSH0 MSTORE PUSH1 0x21 PUSH1 0x4 MSTORE PUSH1 0x24 PUSH0 REVERT JUMPDEST PUSH1 0x4 DUP2 LT PUSH2 0x32E0 JUMPI PUSH2 0x32DF PUSH2 0x32A2 JUMP JUMPDEST JUMPDEST POP JUMP JUMPDEST PUSH0 DUP2 SWAP1 POP PUSH2 0x32F0 DUP3 PUSH2 0x32CF JUMP JUMPDEST SWAP2 SWAP1 POP JUMP JUMPDEST PUSH0 PUSH2 0x32FF DUP3 PUSH2 0x32E3 JUMP JUMPDEST SWAP1 POP SWAP2 SWAP1 POP JUMP JUMPDEST PUSH2 0x330F DUP2 PUSH2 0x32F5 JUMP JUMPDEST DUP3 MSTORE POP POP JUMP JUMPDEST PUSH0 DUP2 MLOAD SWAP1 POP SWAP2 SWAP1 POP JUMP JUMPDEST PUSH0 DUP3 DUP3 MSTORE PUSH1 0x20 DUP3 ADD SWAP1 POP SWAP3 SWAP2 POP POP JUMP JUMPDEST PUSH0 JUMPDEST DUP4 DUP2 LT ISZERO PUSH2 0x334C JUMPI DUP1 DUP3 ADD MLOAD DUP2 DUP5 ADD MSTORE PUSH1 0x20 DUP2 ADD SWAP1 POP PUSH2 0x3331 JUMP JUMPDEST PUSH0 DUP5 DUP5 ADD MSTORE POP POP POP POP JUMP JUMPDEST PUSH0 PUSH1 0x1F NOT PUSH1 0x1F DUP4 ADD AND SWAP1 POP SWAP2 SWAP1 POP JUMP JUMPDEST PUSH0 PUSH2 0x3371 DUP3 PUSH2 0x3315 JUMP JUMPDEST PUSH2 0x337B DUP2 DUP6 PUSH2 0x331F JUMP JUMPDEST SWAP4 POP PUSH2 0x338B DUP2 DUP6 PUSH1 0x20 DUP7 ADD PUSH2 0x332F JUMP JUMPDEST PUSH2 0x3394 DUP2 PUSH2 0x3357 JUMP JUMPDEST DUP5 ADD SWAP2 POP POP SWAP3 SWAP2 POP POP JUMP JUMPDEST PUSH2 0x33A8 DUP2 PUSH2 0x3120 JUMP JUMPDEST DUP3 MSTORE POP POP JUMP JUMPDEST PUSH0 PUSH1 0xC0 DUP3 ADD SWAP1 POP PUSH2 0x33C1 PUSH0 DUP4 ADD DUP10 PUSH2 0x3293 JUMP JUMPDEST PUSH2 0x33CE PUSH1 0x20 DUP4 ADD DUP9 PUSH2 0x3293 JUMP JUMPDEST PUSH2 0x33DB PUSH1 0x40 DUP4 ADD DUP8 PUSH2 0x3306 JUMP JUMPDEST DUP2 DUP2 SUB PUSH1 0x60 DUP4 ADD MSTORE PUSH2 0x33ED DUP2 DUP7 PUSH2 0x3367 JUMP JUMPDEST SWAP1 POP PUSH2 0x33FC PUSH1 0x80 DUP4 ADD DUP6 PUSH2 0x339F JUMP JUMPDEST PUSH2 0x3409 PUSH1 0xA0 DUP4 ADD DUP5 PUSH2 0x339F JUMP JUMPDEST SWAP8 SWAP7 POP POP POP POP POP POP POP JUMP JUMPDEST PUSH2 0x341D DUP2 PUSH2 0x3282 JUMP JUMPDEST DUP2 EQ PUSH2 0x3427 JUMPI PUSH0 DUP1 REVERT JUMPDEST POP JUMP JUMPDEST PUSH0 DUP2 CALLDATALOAD SWAP1 POP PUSH2 0x3438 DUP2 PUSH2 0x3414 JUMP JUMPDEST SWAP3 SWAP2 POP POP JUMP JUMPDEST PUSH0 DUP1 PUSH1 0x40 DUP4 DUP6 SUB SLT ISZERO PUSH2 0x3454 JUMPI PUSH2 0x3453 PUSH2 0x3118 JUMP JUMPDEST JUMPDEST PUSH0 PUSH2 0x3461 DUP6 DUP3 DUP7 ADD PUSH2 0x342A JUMP JUMPDEST SWAP3 POP POP PUSH1 0x20 PUSH2 0x3472 DUP6 DUP3 DUP7 ADD PUSH2 0x313F JUMP JUMPDEST SWAP2 POP POP SWAP3 POP SWAP3 SWAP1 POP JUMP JUMPDEST PUSH0 PUSH1 0xA0 DUP3 ADD SWAP1 POP PUSH2 0x348F PUSH0 DUP4 ADD DUP9 PUSH2 0x3293 JUMP JUMPDEST PUSH2 0x349C PUSH1 0x20 DUP4 ADD DUP8 PUSH2 0x339F JUMP JUMPDEST PUSH2 0x34A9 PUSH1 0x40 DUP4 ADD DUP7 PUSH2 0x339F JUMP JUMPDEST DUP2 DUP2 SUB PUSH1 0x60 DUP4 ADD MSTORE PUSH2 0x34BB DUP2 DUP6 PUSH2 0x3367 JUMP JUMPDEST SWAP1 POP PUSH2 0x34CA PUSH1 0x80 DUP4 ADD DUP5 PUSH2 0x339F JUMP JUMPDEST SWAP7 SWAP6 POP POP POP POP POP POP JUMP JUMPDEST PUSH1 0x3 DUP2 LT PUSH2 0x34E5 JUMPI PUSH2 0x34E4 PUSH2 0x32A2 JUMP JUMPDEST JUMPDEST POP JUMP JUMPDEST PUSH0 DUP2 SWAP1 POP PUSH2 0x34F5 DUP3 PUSH2 0x34D4 JUMP JUMPDEST SWAP2 SWAP1 POP JUMP JUMPDEST PUSH0 PUSH2 0x3504 DUP3 PUSH2 0x34E8 JUMP JUMPDEST SWAP1 POP SWAP2 SWAP1 POP JUMP JUMPDEST PUSH2 0x3514 DUP2 PUSH2 0x34FA JUMP JUMPDEST DUP3 MSTORE POP POP JUMP JUMPDEST PUSH0 PUSH1 0x40 DUP3 ADD SWAP1 POP PUSH2 0x352D PUSH0 DUP4 ADD DUP6 PUSH2 0x3293 JUMP JUMPDEST PUSH2 0x353A PUSH1 0x20 DUP4 ADD DUP5 PUSH2 0x350B JUMP JUMPDEST SWAP4 SWAP3 POP POP POP JUMP JUMPDEST PUSH1 0x3 DUP2 LT PUSH2 0x354D JUMPI PUSH0 DUP1 REVERT JUMPDEST POP JUMP JUMPDEST PUSH0 DUP2 CALLDATALOAD SWAP1 POP PUSH2 0x355E DUP2 PUSH2 0x3541 JUMP JUMPDEST SWAP3 SWAP2 POP POP JUMP JUMPDEST PUSH0 PUSH1 0x20 DUP3 DUP5 SUB SLT ISZERO PUSH2 0x3579 JUMPI PUSH2 0x3578 PUSH2 0x3118 JUMP JUMPDEST JUMPDEST PUSH0 PUSH2 0x3586 DUP5 DUP3 DUP6 ADD PUSH2 0x3550 JUMP JUMPDEST SWAP2 POP POP SWAP3 SWAP2 POP POP JUMP JUMPDEST PUSH0 DUP1 REVERT JUMPDEST PUSH32 0x4E487B7100000000000000000000000000000000000000000000000000000000 PUSH0 MSTORE PUSH1 0x41 PUSH1 0x4 MSTORE PUSH1 0x24 PUSH0 REVERT JUMPDEST PUSH2 0x35C9 DUP3 PUSH2 0x3357 JUMP JUMPDEST DUP2 ADD DUP2 DUP2 LT PUSH8 0xFFFFFFFFFFFFFFFF DUP3 GT OR ISZERO PUSH2 0x35E8 JUMPI PUSH2 0x35E7 PUSH2 0x3593 JUMP JUMPDEST JUMPDEST DUP1 PUSH1 0x40 MSTORE POP POP POP JUMP JUMPDEST PUSH0 PUSH2 0x35FA PUSH2 0x310F JUMP JUMPDEST SWAP1 POP PUSH2 0x3606 DUP3 DUP3 PUSH2 0x35C0 JUMP JUMPDEST SWAP2 SWAP1 POP JUMP JUMPDEST PUSH0 PUSH8 0xFFFFFFFFFFFFFFFF DUP3 GT ISZERO PUSH2 0x3625 JUMPI PUSH2 0x3624 PUSH2 0x3593 JUMP JUMPDEST JUMPDEST PUSH2 0x362E DUP3 PUSH2 0x3357 JUMP JUMPDEST SWAP1 POP PUSH1 0x20 DUP2 ADD SWAP1 POP SWAP2 SWAP1 POP JUMP JUMPDEST DUP3 DUP2 DUP4 CALLDATACOPY PUSH0 DUP4 DUP4 ADD MSTORE POP POP POP JUMP JUMPDEST PUSH0 PUSH2 0x365B PUSH2 0x3656 DUP5 PUSH2 0x360B JUMP JUMPDEST PUSH2 0x35F1 JUMP JUMPDEST SWAP1 POP DUP3 DUP2 MSTORE PUSH1 0x20 DUP2 ADD DUP5 DUP5 DUP5 ADD GT ISZERO PUSH2 0x3677 JUMPI PUSH2 0x3676 PUSH2 0x358F JUMP JUMPDEST JUMPDEST PUSH2 0x3682 DUP5 DUP3 DUP6 PUSH2 0x363B JUMP JUMPDEST POP SWAP4 SWAP3 POP POP POP JUMP JUMPDEST PUSH0 DUP3 PUSH1 0x1F DUP4 ADD SLT PUSH2 0x369E JUMPI PUSH2 0x369D PUSH2 0x3153 JUMP JUMPDEST JUMPDEST DUP2 CALLDATALOAD PUSH2 0x36AE DUP5 DUP3 PUSH1 0x20 DUP7 ADD PUSH2 0x3649 JUMP JUMPDEST SWAP2 POP POP SWAP3 SWAP2 POP POP JUMP JUMPDEST PUSH0 PUSH1 0x20 DUP3 DUP5 SUB SLT ISZERO PUSH2 0x36CC JUMPI PUSH2 0x36CB PUSH2 0x3118 JUMP JUMPDEST JUMPDEST PUSH0 DUP3 ADD CALLDATALOAD PUSH8 0xFFFFFFFFFFFFFFFF DUP2 GT ISZERO PUSH2 0x36E9 JUMPI PUSH2 0x36E8 PUSH2 0x311C JUMP JUMPDEST JUMPDEST PUSH2 0x36F5 DUP5 DUP3 DUP6 ADD PUSH2 0x368A JUMP JUMPDEST SWAP2 POP POP SWAP3 SWAP2 POP POP JUMP JUMPDEST PUSH0 PUSH1 0x20 DUP3 ADD SWAP1 POP DUP2 DUP2 SUB PUSH0 DUP4 ADD MSTORE PUSH2 0x3716 DUP2 DUP5 PUSH2 0x3367 JUMP JUMPDEST SWAP1 POP SWAP3 SWAP2 POP POP JUMP JUMPDEST PUSH0 DUP1 PUSH0 PUSH1 0x60 DUP5 DUP7 SUB SLT ISZERO PUSH2 0x3735 JUMPI PUSH2 0x3734 PUSH2 0x3118 JUMP JUMPDEST JUMPDEST PUSH0 PUSH2 0x3742 DUP7 DUP3 DUP8 ADD PUSH2 0x342A JUMP JUMPDEST SWAP4 POP POP PUSH1 0x20 PUSH2 0x3753 DUP7 DUP3 DUP8 ADD PUSH2 0x313F JUMP JUMPDEST SWAP3 POP POP PUSH1 0x40 PUSH2 0x3764 DUP7 DUP3 DUP8 ADD PUSH2 0x313F JUMP JUMPDEST SWAP2 POP POP SWAP3 POP SWAP3 POP SWAP3 JUMP JUMPDEST PUSH0 DUP2 ISZERO ISZERO SWAP1 POP SWAP2 SWAP1 POP JUMP JUMPDEST PUSH2 0x3782 DUP2 PUSH2 0x376E JUMP JUMPDEST DUP2 EQ PUSH2 0x378C JUMPI PUSH0 DUP1 REVERT JUMPDEST POP JUMP JUMPDEST PUSH0 DUP2 CALLDATALOAD SWAP1 POP PUSH2 0x379D DUP2 PUSH2 0x3779 JUMP JUMPDEST SWAP3 SWAP2 POP POP JUMP JUMPDEST PUSH0 DUP1 PUSH1 0x40 DUP4 DUP6 SUB SLT ISZERO PUSH2 0x37B9 JUMPI PUSH2 0x37B8 PUSH2 0x3118 JUMP JUMPDEST JUMPDEST PUSH0 PUSH2 0x37C6 DUP6 DUP3 DUP7 ADD PUSH2 0x378F JUMP JUMPDEST SWAP3 POP POP PUSH1 0x20 PUSH2 0x37D7 DUP6 DUP3 DUP7 ADD PUSH2 0x313F JUMP JUMPDEST SWAP2 POP POP SWAP3 POP SWAP3 SWAP1 POP JUMP JUMPDEST PUSH0 PUSH1 0x20 DUP3 ADD SWAP1 POP PUSH2 0x37F4 PUSH0 DUP4 ADD DUP5 PUSH2 0x339F JUMP JUMPDEST SWAP3 SWAP2 POP POP JUMP JUMPDEST PUSH0 DUP1 PUSH0 DUP1 PUSH0 DUP1 PUSH1 0xA0 DUP8 DUP10 SUB SLT ISZERO PUSH2 0x3814 JUMPI PUSH2 0x3813 PUSH2 0x3118 JUMP JUMPDEST JUMPDEST PUSH0 PUSH2 0x3821 DUP10 DUP3 DUP11 ADD PUSH2 0x313F JUMP JUMPDEST SWAP7 POP POP PUSH1 0x20 PUSH2 0x3832 DUP10 DUP3 DUP11 ADD PUSH2 0x313F JUMP JUMPDEST SWAP6 POP POP PUSH1 0x40 DUP8 ADD CALLDATALOAD PUSH8 0xFFFFFFFFFFFFFFFF DUP2 GT ISZERO PUSH2 0x3853 JUMPI PUSH2 0x3852 PUSH2 0x311C JUMP JUMPDEST JUMPDEST PUSH2 0x385F DUP10 DUP3 DUP11 ADD PUSH2 0x315F JUMP JUMPDEST SWAP5 POP SWAP5 POP POP PUSH1 0x60 PUSH2 0x3872 DUP10 DUP3 DUP11 ADD PUSH2 0x313F JUMP JUMPDEST SWAP3 POP POP PUSH1 0x80 PUSH2 0x3883 DUP10 DUP3 DUP11 ADD PUSH2 0x342A JUMP JUMPDEST SWAP2 POP POP SWAP3 SWAP6 POP SWAP3 SWAP6 POP SWAP3 SWAP6 JUMP JUMPDEST PUSH0 PUSH1 0x20 DUP3 ADD SWAP1 POP PUSH2 0x38A3 PUSH0 DUP4 ADD DUP5 PUSH2 0x3293 JUMP JUMPDEST SWAP3 SWAP2 POP POP JUMP JUMPDEST PUSH0 DUP1 PUSH0 DUP1 PUSH1 0x80 DUP6 DUP8 SUB SLT ISZERO PUSH2 0x38C1 JUMPI PUSH2 0x38C0 PUSH2 0x3118 JUMP JUMPDEST JUMPDEST PUSH0 PUSH2 0x38CE DUP8 DUP3 DUP9 ADD PUSH2 0x342A JUMP JUMPDEST SWAP5 POP POP PUSH1 0x20 PUSH2 0x38DF DUP8 DUP3 DUP9 ADD PUSH2 0x313F JUMP JUMPDEST SWAP4 POP POP PUSH1 0x40 PUSH2 0x38F0 DUP8 DUP3 DUP9 ADD PUSH2 0x313F JUMP JUMPDEST SWAP3 POP POP PUSH1 0x60 DUP6 ADD CALLDATALOAD PUSH8 0xFFFFFFFFFFFFFFFF DUP2 GT ISZERO PUSH2 0x3911 JUMPI PUSH2 0x3910 PUSH2 0x311C JUMP JUMPDEST JUMPDEST PUSH2 0x391D DUP8 DUP3 DUP9 ADD PUSH2 0x368A JUMP JUMPDEST SWAP2 POP POP SWAP3 SWAP6 SWAP2 SWAP5 POP SWAP3 POP JUMP JUMPDEST PUSH0 DUP1 PUSH1 0x40 DUP4 DUP6 SUB SLT ISZERO PUSH2 0x393F JUMPI PUSH2 0x393E PUSH2 0x3118 JUMP JUMPDEST JUMPDEST PUSH0 DUP4 ADD CALLDATALOAD PUSH8 0xFFFFFFFFFFFFFFFF DUP2 GT ISZERO PUSH2 0x395C JUMPI PUSH2 0x395B PUSH2 0x311C JUMP JUMPDEST JUMPDEST PUSH2 0x3968 DUP6 DUP3 DUP7 ADD PUSH2 0x368A JUMP JUMPDEST SWAP3 POP POP PUSH1 0x20 PUSH2 0x3979 DUP6 DUP3 DUP7 ADD PUSH2 0x342A JUMP JUMPDEST SWAP2 POP POP SWAP3 POP SWAP3 SWAP1 POP JUMP JUMPDEST PUSH0 PUSH1 0x20 DUP3 DUP5 SUB SLT ISZERO PUSH2 0x3998 JUMPI PUSH2 0x3997 PUSH2 0x3118 JUMP JUMPDEST JUMPDEST PUSH0 PUSH2 0x39A5 DUP5 DUP3 DUP6 ADD PUSH2 0x342A JUMP JUMPDEST SWAP2 POP POP SWAP3 SWAP2 POP POP JUMP JUMPDEST PUSH0 PUSH1 0x40 DUP3 ADD SWAP1 POP PUSH2 0x39C1 PUSH0 DUP4 ADD DUP6 PUSH2 0x350B JUMP JUMPDEST PUSH2 0x39CE PUSH1 0x20 DUP4 ADD DUP5 PUSH2 0x339F JUMP JUMPDEST SWAP4 SWAP3 POP POP POP JUMP JUMPDEST PUSH0 DUP1 PUSH0 DUP1 PUSH1 0x80 DUP6 DUP8 SUB SLT ISZERO PUSH2 0x39ED JUMPI PUSH2 0x39EC PUSH2 0x3118 JUMP JUMPDEST JUMPDEST PUSH0 PUSH2 0x39FA DUP8 DUP3 DUP9 ADD PUSH2 0x342A JUMP JUMPDEST SWAP5 POP POP PUSH1 0x20 PUSH2 0x3A0B DUP8 DUP3 DUP9 ADD PUSH2 0x313F JUMP JUMPDEST SWAP4 POP POP PUSH1 0x40 PUSH2 0x3A1C DUP8 DUP3 DUP9 ADD PUSH2 0x313F JUMP JUMPDEST SWAP3 POP POP PUSH1 0x60 PUSH2 0x3A2D DUP8 DUP3 DUP9 ADD PUSH2 0x342A JUMP JUMPDEST SWAP2 POP POP SWAP3 SWAP6 SWAP2 SWAP5 POP SWAP3 POP JUMP JUMPDEST PUSH32 0x596F757220726F6C6520646F6573206E6F7420616C6C6F772074686973206368 PUSH0 DUP3 ADD MSTORE PUSH32 0x616E676500000000000000000000000000000000000000000000000000000000 PUSH1 0x20 DUP3 ADD MSTORE POP JUMP JUMPDEST PUSH0 PUSH2 0x3A93 PUSH1 0x24 DUP4 PUSH2 0x331F JUMP JUMPDEST SWAP2 POP PUSH2 0x3A9E DUP3 PUSH2 0x3A39 JUMP JUMPDEST PUSH1 0x40 DUP3 ADD SWAP1 POP SWAP2 SWAP1 POP JUMP JUMPDEST PUSH0 PUSH1 0x20 DUP3 ADD SWAP1 POP DUP2 DUP2 SUB PUSH0 DUP4 ADD MSTORE PUSH2 0x3AC0 DUP2 PUSH2 0x3A87 JUMP JUMPDEST SWAP1 POP SWAP2 SWAP1 POP JUMP JUMPDEST PUSH32 0x4E487B7100000000000000000000000000000000000000000000000000000000 PUSH0 MSTORE PUSH1 0x22 PUSH1 0x4 MSTORE PUSH1 0x24 PUSH0 REVERT JUMPDEST PUSH0 PUSH1 0x2 DUP3 DIV SWAP1 POP PUSH1 0x1 DUP3 AND DUP1 PUSH2 0x3B0B JUMPI PUSH1 0x7F DUP3 AND SWAP2 POP JUMPDEST PUSH1 0x20 DUP3 LT DUP2 SUB PUSH2 0x3B1E JUMPI PUSH2 0x3B1D PUSH2 0x3AC7 JUMP JUMPDEST JUMPDEST POP SWAP2 SWAP1 POP JUMP JUMPDEST PUSH0 DUP2 SWAP1 POP DUP2 PUSH0 MSTORE PUSH1 0x20 PUSH0 KECCAK256 SWAP1 POP SWAP2 SWAP1 POP JUMP JUMPDEST PUSH0 PUSH1 0x20 PUSH1 0x1F DUP4 ADD DIV SWAP1 POP SWAP2 SWAP1 POP JUMP JUMPDEST PUSH0 DUP3 DUP3 SHL SWAP1 POP SWAP3 SWAP2 POP POP JUMP JUMPDEST PUSH0 PUSH1 0x8 DUP4 MUL PUSH2 0x3B80 PUSH32 0xFFFFFFFFFFFFFFFFFFFFFFFFFFFFFFFFFFFFFFFFFFFFFFFFFFFFFFFFFFFFFFFF DUP3 PUSH2 0x3B45 JUMP JUMPDEST PUSH2 0x3B8A DUP7 DUP4 PUSH2 0x3B45 JUMP JUMPDEST SWAP6 POP DUP1 NOT DUP5 AND SWAP4 POP DUP1 DUP7 AND DUP5 OR SWAP3 POP POP POP SWAP4 SWAP3 POP POP POP JUMP JUMPDEST PUSH0 DUP2 SWAP1 POP SWAP2 SWAP1 POP JUMP JUMPDEST PUSH0 PUSH2 0x3BC5 PUSH2 0x3BC0 PUSH2 0x3BBB DUP5 PUSH2 0x3120 JUMP JUMPDEST PUSH2 0x3BA2 JUMP JUMPDEST PUSH2 0x3120 JUMP JUMPDEST SWAP1 POP SWAP2 SWAP1 POP JUMP JUMPDEST PUSH0 DUP2 SWAP1 POP SWAP2 SWAP1 POP JUMP JUMPDEST PUSH2 0x3BDE DUP4 PUSH2 0x3BAB JUMP JUMPDEST PUSH2 0x3BF2 PUSH2 0x3BEA DUP3 PUSH2 0x3BCC JUMP JUMPDEST DUP5 DUP5 SLOAD PUSH2 0x3B51 JUMP JUMPDEST DUP3 SSTORE POP POP POP POP JUMP JUMPDEST PUSH0 SWAP1 JUMP JUMPDEST PUSH2 0x3C06 PUSH2 0x3BFA JUMP JUMPDEST PUSH2 0x3C11 DUP2 DUP5 DUP5 PUSH2 0x3BD5 JUMP JUMPDEST POP POP POP JUMP JUMPDEST JUMPDEST DUP2 DUP2 LT ISZERO PUSH2 0x3C34 JUMPI PUSH2 0x3C29 PUSH0 DUP3 PUSH2 0x3BFE JUMP JUMPDEST PUSH1 0x1 DUP2 ADD SWAP1 POP PUSH2 0x3C17 JUMP JUMPDEST POP POP JUMP JUMPDEST PUSH1 0x1F DUP3 GT ISZERO PUSH2 0x3C79 JUMPI PUSH2 0x3C4A DUP2 PUSH2 0x3B24 JUMP JUMPDEST PUSH2 0x3C53 DUP5 PUSH2 0x3B36 JUMP JUMPDEST DUP2 ADD PUSH1 0x20 DUP6 LT ISZERO PUSH2 0x3C62 JUMPI DUP2 SWAP1 POP JUMPDEST PUSH2 0x3C76 PUSH2 0x3C6E DUP6 PUSH2 0x3B36 JUMP JUMPDEST DUP4 ADD DUP3 PUSH2 0x3C16 JUMP JUMPDEST POP POP JUMPDEST POP POP POP JUMP JUMPDEST PUSH0 DUP3 DUP3 SHR SWAP1 POP SWAP3 SWAP2 POP POP JUMP JUMPDEST PUSH0 PUSH2 0x3C99 PUSH0 NOT DUP5 PUSH1 0x8 MUL PUSH2 0x3C7E JUMP JUMPDEST NOT DUP1 DUP4 AND SWAP2 POP POP SWAP3 SWAP2 POP POP JUMP JUMPDEST PUSH0 PUSH2 0x3CB1 DUP4 DUP4 PUSH2 0x3C8A JUMP JUMPDEST SWAP2 POP DUP3 PUSH1 0x2 MUL DUP3 OR SWAP1 POP SWAP3 SWAP2 POP POP JUMP JUMPDEST PUSH2 0x3CCA DUP3 PUSH2 0x3315 JUMP JUMPDEST PUSH8 0xFFFFFFFFFFFFFFFF DUP2 GT ISZERO PUSH2 0x3CE3 JUMPI PUSH2 0x3CE2 PUSH2 0x3593 JUMP JUMPDEST JUMPDEST PUSH2 0x3CED DUP3 SLOAD PUSH2 0x3AF4 JUMP JUMPDEST PUSH2 0x3CF8 DUP3 DUP3 DUP6 PUSH2 0x3C38 JUMP JUMPDEST PUSH0 PUSH1 0x20 SWAP1 POP PUSH1 0x1F DUP4 GT PUSH1 0x1 DUP2 EQ PUSH2 0x3D29 JUMPI PUSH0 DUP5 ISZERO PUSH2 0x3D17 JUMPI DUP3 DUP8 ADD MLOAD SWAP1 POP JUMPDEST PUSH2 0x3D21 DUP6 DUP3 PUSH2 0x3CA6 JUMP JUMPDEST DUP7 SSTORE POP PUSH2 0x3D88 JUMP JUMPDEST PUSH1 0x1F NOT DUP5 AND PUSH2 0x3D37 DUP7 PUSH2 0x3B24 JUMP JUMPDEST PUSH0 JUMPDEST DUP3 DUP2 LT ISZERO PUSH2 0x3D5E JUMPI DUP5 DUP10 ADD MLOAD DUP3 SSTORE PUSH1 0x1 DUP3 ADD SWAP2 POP PUSH1 0x20 DUP6 ADD SWAP5 POP PUSH1 0x20 DUP2 ADD SWAP1 POP PUSH2 0x3D39 JUMP JUMPDEST DUP7 DUP4 LT ISZERO PUSH2 0x3D7B JUMPI DUP5 DUP10 ADD MLOAD PUSH2 0x3D77 PUSH1 0x1F DUP10 AND DUP3 PUSH2 0x3C8A JUMP JUMPDEST DUP4 SSTORE POP JUMPDEST PUSH1 0x1 PUSH1 0x2 DUP9 MUL ADD DUP9 SSTORE POP POP POP JUMPDEST POP POP POP POP POP POP JUMP JUMPDEST PUSH32 0x4E487B7100000000000000000000000000000000000000000000000000000000 PUSH0 MSTORE PUSH1 0x32 PUSH1 0x4 MSTORE PUSH1 0x24 PUSH0 REVERT JUMPDEST PUSH32 0x4E487B7100000000000000000000000000000000000000000000000000000000 PUSH0 MSTORE PUSH1 0x11 PUSH1 0x4 MSTORE PUSH1 0x24 PUSH0 REVERT JUMPDEST PUSH0 PUSH2 0x3DF4 DUP3 PUSH2 0x3120 JUMP JUMPDEST SWAP2 POP PUSH2 0x3DFF DUP4 PUSH2 0x3120 JUMP JUMPDEST SWAP3 POP DUP3 DUP3 MUL PUSH2 0x3E0D DUP2 PUSH2 0x3120 JUMP JUMPDEST SWAP2 POP DUP3 DUP3 DIV DUP5 EQ DUP4 ISZERO OR PUSH2 0x3E24 JUMPI PUSH2 0x3E23 PUSH2 0x3DBD JUMP JUMPDEST JUMPDEST POP SWAP3 SWAP2 POP POP JUMP JUMPDEST PUSH0 PUSH2 0x3E35 DUP3 PUSH2 0x3120 JUMP JUMPDEST SWAP2 POP PUSH2 0x3E40 DUP4 PUSH2 0x3120 JUMP JUMPDEST SWAP3 POP DUP3 DUP3 ADD SWAP1 POP DUP1 DUP3 GT ISZERO PUSH2 0x3E58 JUMPI PUSH2 0x3E57 PUSH2 0x3DBD JUMP JUMPDEST JUMPDEST SWAP3 SWAP2 POP POP JUMP JUMPDEST PUSH0 PUSH2 0x3E68 DUP3 PUSH2 0x3120 JUMP JUMPDEST SWAP2 POP PUSH2 0x3E73 DUP4 PUSH2 0x3120 JUMP JUMPDEST SWAP3 POP DUP3 DUP3 SUB SWAP1 POP DUP2 DUP2 GT ISZERO PUSH2 0x3E8B JUMPI PUSH2 0x3E8A PUSH2 0x3DBD JUMP JUMPDEST JUMPDEST SWAP3 SWAP2 POP POP JUMP JUMPDEST PUSH0 PUSH1 0xFF DUP3 AND SWAP1 POP SWAP2 SWAP1 POP JUMP JUMPDEST PUSH0 PUSH2 0x3EA7 DUP3 PUSH2 0x3E91 JUMP JUMPDEST SWAP2 POP PUSH2 0x3EB2 DUP4 PUSH2 0x3E91 JUMP JUMPDEST SWAP3 POP DUP3 DUP3 SUB SWAP1 POP PUSH1 0xFF DUP2 GT ISZERO PUSH2 0x3ECB JUMPI PUSH2 0x3ECA PUSH2 0x3DBD JUMP JUMPDEST JUMPDEST SWAP3 SWAP2 POP POP JUMP JUMPDEST PUSH0 PUSH2 0x3EDB DUP3 PUSH2 0x3120 JUMP JUMPDEST SWAP2 POP PUSH32 0xFFFFFFFFFFFFFFFFFFFFFFFFFFFFFFFFFFFFFFFFFFFFFFFFFFFFFFFFFFFFFFFF DUP3 SUB PUSH2 0x3F0D JUMPI PUSH2 0x3F0C PUSH2 0x3DBD JUMP JUMPDEST JUMPDEST PUSH1 0x1 DUP3 ADD SWAP1 POP SWAP2 SWAP1 POP JUMP JUMPDEST PUSH32 0x507572636861736520616D6F756E74206D757374206265206772656174657220 PUSH0 DUP3 ADD MSTORE PUSH32 0x7468616E20300000000000000000000000000000000000000000000000000000 PUSH1 0x20 DUP3 ADD MSTORE POP JUMP JUMPDEST PUSH0 PUSH2 0x3F72 PUSH1 0x26 DUP4 PUSH2 0x331F JUMP JUMPDEST SWAP2 POP PUSH2 0x3F7D DUP3 PUSH2 0x3F18 JUMP JUMPDEST PUSH1 0x40 DUP3 ADD SWAP1 POP SWAP2 SWAP1 POP JUMP JUMPDEST PUSH0 PUSH1 0x20 DUP3 ADD SWAP1 POP DUP2 DUP2 SUB PUSH0 DUP4 ADD MSTORE PUSH2 0x3F9F DUP2 PUSH2 0x3F66 JUMP JUMPDEST SWAP1 POP SWAP2 SWAP1 POP JUMP JUMPDEST PUSH32 0x496E76616C69642070726F647563742049440000000000000000000000000000 PUSH0 DUP3 ADD MSTORE POP JUMP JUMPDEST PUSH0 PUSH2 0x3FDA PUSH1 0x12 DUP4 PUSH2 0x331F JUMP JUMPDEST SWAP2 POP PUSH2 0x3FE5 DUP3 PUSH2 0x3FA6 JUMP JUMPDEST PUSH1 0x20 DUP3 ADD SWAP1 POP SWAP2 SWAP1 POP JUMP JUMPDEST PUSH0 PUSH1 0x20 DUP3 ADD SWAP1 POP DUP2 DUP2 SUB PUSH0 DUP4 ADD MSTORE PUSH2 0x4007 DUP2 PUSH2 0x3FCE JUMP JUMPDEST SWAP1 POP SWAP2 SWAP1 POP JUMP JUMPDEST PUSH32 0x4141000000000000000000000000000000000000000000000000000000000000 DUP2 MSTORE POP JUMP JUMPDEST PUSH0 DUP2 SWAP1 POP SWAP3 SWAP2 POP POP JUMP JUMPDEST PUSH0 PUSH2 0x4048 DUP3 PUSH2 0x3315 JUMP JUMPDEST PUSH2 0x4052 DUP2 DUP6 PUSH2 0x4034 JUMP JUMPDEST SWAP4 POP PUSH2 0x4062 DUP2 DUP6 PUSH1 0x20 DUP7 ADD PUSH2 0x332F JUMP JUMPDEST DUP1 DUP5 ADD SWAP2 POP POP SWAP3 SWAP2 POP POP JUMP JUMPDEST PUSH32 0x4242000000000000000000000000000000000000000000000000000000000000 DUP2 MSTORE POP JUMP JUMPDEST PUSH0 PUSH2 0x409E DUP3 PUSH2 0x400E JUMP JUMPDEST PUSH1 0x2 DUP3 ADD SWAP2 POP PUSH2 0x40AE DUP3 DUP5 PUSH2 0x403E JUMP JUMPDEST SWAP2 POP PUSH2 0x40B9 DUP3 PUSH2 0x406E JUMP JUMPDEST PUSH1 0x2 DUP3 ADD SWAP2 POP DUP2 SWAP1 POP SWAP3 SWAP2 POP POP JUMP JUMPDEST PUSH0 DUP2 SWAP1 POP SWAP2 SWAP1 POP JUMP JUMPDEST PUSH2 0x40E2 PUSH2 0x40DD DUP3 PUSH2 0x3120 JUMP JUMPDEST PUSH2 0x40C8 JUMP JUMPDEST DUP3 MSTORE POP POP JUMP JUMPDEST PUSH0 DUP2 PUSH1 0x60 SHL SWAP1 POP SWAP2 SWAP1 POP JUMP JUMPDEST PUSH0 PUSH2 0x40FE DUP3 PUSH2 0x40E8 JUMP JUMPDEST SWAP1 POP SWAP2 SWAP1 POP JUMP JUMPDEST PUSH0 PUSH2 0x410F DUP3 PUSH2 0x40F4 JUMP JUMPDEST SWAP1 POP SWAP2 SWAP1 POP JUMP JUMPDEST PUSH2 0x4127 PUSH2 0x4122 DUP3 PUSH2 0x3282 JUMP JUMPDEST PUSH2 0x4105 JUMP JUMPDEST DUP3 MSTORE POP POP JUMP JUMPDEST PUSH0 PUSH2 0x4138 DUP3 DUP7 PUSH2 0x40D1 JUMP JUMPDEST PUSH1 0x20 DUP3 ADD SWAP2 POP PUSH2 0x4148 DUP3 DUP6 PUSH2 0x4116 JUMP JUMPDEST PUSH1 0x14 DUP3 ADD SWAP2 POP PUSH2 0x4158 DUP3 DUP5 PUSH2 0x40D1 JUMP JUMPDEST PUSH1 0x20 DUP3 ADD SWAP2 POP DUP2 SWAP1 POP SWAP5 SWAP4 POP POP POP POP JUMP JUMPDEST PUSH32 0x4E487B7100000000000000000000000000000000000000000000000000000000 PUSH0 MSTORE PUSH1 0x12 PUSH1 0x4 MSTORE PUSH1 0x24 PUSH0 REVERT JUMPDEST PUSH0 PUSH2 0x41A0 DUP3 PUSH2 0x3120 JUMP JUMPDEST SWAP2 POP PUSH2 0x41AB DUP4 PUSH2 0x3120 JUMP JUMPDEST SWAP3 POP DUP3 PUSH2 0x41BB JUMPI PUSH2 0x41BA PUSH2 0x4169 JUMP JUMPDEST JUMPDEST DUP3 DUP3 MOD SWAP1 POP SWAP3 SWAP2 POP POP JUMP JUMPDEST PUSH0 PUSH2 0x41D0 DUP3 PUSH2 0x3120 JUMP JUMPDEST SWAP2 POP PUSH2 0x41DB DUP4 PUSH2 0x3120 JUMP JUMPDEST SWAP3 POP DUP3 PUSH2 0x41EB JUMPI PUSH2 0x41EA PUSH2 0x4169 JUMP JUMPDEST JUMPDEST DUP3 DUP3 DIV SWAP1 POP SWAP3 SWAP2 POP POP JUMP JUMPDEST PUSH32 0x4E6F7420656E6F7567682073746F636B20617661696C61626C65000000000000 PUSH0 DUP3 ADD MSTORE POP JUMP JUMPDEST PUSH0 PUSH2 0x422A PUSH1 0x1A DUP4 PUSH2 0x331F JUMP JUMPDEST SWAP2 POP PUSH2 0x4235 DUP3 PUSH2 0x41F6 JUMP JUMPDEST PUSH1 0x20 DUP3 ADD SWAP1 POP SWAP2 SWAP1 POP JUMP JUMPDEST PUSH0 PUSH1 0x20 DUP3 ADD SWAP1 POP DUP2 DUP2 SUB PUSH0 DUP4 ADD MSTORE PUSH2 0x4257 DUP2 PUSH2 0x421E JUMP JUMPDEST SWAP1 POP SWAP2 SWAP1 POP JUMP JUMPDEST PUSH0 PUSH2 0x4269 DUP3 DUP5 PUSH2 0x403E JUMP JUMPDEST SWAP2 POP DUP2 SWAP1 POP SWAP3 SWAP2 POP POP JUMP JUMPDEST PUSH32 0x496E73756666696369656E742066756E64732073656E74000000000000000000 PUSH0 DUP3 ADD MSTORE POP JUMP JUMPDEST PUSH0 PUSH2 0x42A8 PUSH1 0x17 DUP4 PUSH2 0x331F JUMP JUMPDEST SWAP2 POP PUSH2 0x42B3 DUP3 PUSH2 0x4274 JUMP JUMPDEST PUSH1 0x20 DUP3 ADD SWAP1 POP SWAP2 SWAP1 POP JUMP JUMPDEST PUSH0 PUSH1 0x20 DUP3 ADD SWAP1 POP DUP2 DUP2 SUB PUSH0 DUP4 ADD MSTORE PUSH2 0x42D5 DUP2 PUSH2 0x429C JUMP JUMPDEST SWAP1 POP SWAP2 SWAP1 POP JUMP JUMPDEST PUSH0 DUP2 SWAP1 POP SWAP3 SWAP2 POP POP JUMP JUMPDEST PUSH0 DUP2 SWAP1 POP DUP2 PUSH0 MSTORE PUSH1 0x20 PUSH0 KECCAK256 SWAP1 POP SWAP2 SWAP1 POP JUMP JUMPDEST PUSH0 DUP2 SLOAD PUSH2 0x4304 DUP2 PUSH2 0x3AF4 JUMP JUMPDEST PUSH2 0x430E DUP2 DUP7 PUSH2 0x42DC JUMP JUMPDEST SWAP5 POP PUSH1 0x1 DUP3 AND PUSH0 DUP2 EQ PUSH2 0x4328 JUMPI PUSH1 0x1 DUP2 EQ PUSH2 0x433D JUMPI PUSH2 0x436F JUMP JUMPDEST PUSH1 0xFF NOT DUP4 AND DUP7 MSTORE DUP2 ISZERO ISZERO DUP3 MUL DUP7 ADD SWAP4 POP PUSH2 0x436F JUMP JUMPDEST PUSH2 0x4346 DUP6 PUSH2 0x42E6 JUMP JUMPDEST PUSH0 JUMPDEST DUP4 DUP2 LT ISZERO PUSH2 0x4367 JUMPI DUP2 SLOAD DUP2 DUP10 ADD MSTORE PUSH1 0x1 DUP3 ADD SWAP2 POP PUSH1 0x20 DUP2 ADD SWAP1 POP PUSH2 0x4348 JUMP JUMPDEST DUP4 DUP9 ADD SWAP6 POP POP POP JUMPDEST POP POP POP SWAP3 SWAP2 POP POP JUMP JUMPDEST PUSH0 PUSH2 0x4383 DUP3 DUP5 PUSH2 0x42F8 JUMP JUMPDEST SWAP2 POP DUP2 SWAP1 POP SWAP3 SWAP2 POP POP JUMP INVALID LOG2 PUSH5 0x6970667358 0x22 SLT KECCAK256 ADD SGT SIGNEXTEND NOT 0xB7 DUP5 MULMOD ADDRESS 0xAF 0xEB 0x4C OR SWAP6 NOT SSTORE DUP4 0xAE SWAP10 JUMPDEST PUSH19 0x901DAB53B0C768666D1A0AAF64736F6C634300 ADDMOD ISZERO STOP CALLER "
				},
				"gasEstimates": {
					"creation": {
						"codeDepositCost": "3469600",
						"executionCost": "28147",
						"totalCost": "3497747"
					},
					"external": {
						"acceptDelivery(bool,uint256)": "infinite",
						"addItemsMarket(uint256,uint256,string,uint256)": "infinite",
						"addItemsSupplier(uint256,uint256,string,uint256,address)": "infinite",
						"approveChangeRole(uint256)": "35793",
						"approveDelivery(bool,uint256)": "29493",
						"changeRole(uint8)": "73466",
						"deliveryOrders(uint256)": "infinite",
						"genRef(string,address)": "infinite",
						"makeDelivery(address,uint256,uint256)": "infinite",
						"makeMarket()": "29755",
						"makeSupplier()": "29756",
						"makeUser()": "29732",
						"marketProducts(address,uint256)": "infinite",
						"owner()": "2619",
						"purchase(address,uint256,uint256,string)": "infinite",
						"randMod(uint256)": "infinite",
						"referrals(string)": "infinite",
						"refillStore(address,uint256,uint256,address)": "infinite",
						"refund(address,uint256)": "infinite",
						"supplierProducts(address,uint256)": "infinite",
						"tickets(uint256)": "7401",
						"toUpper(string)": "infinite",
						"userProducts(address,uint256)": "infinite",
						"users(address)": "5222",
						"withdrawBal()": "infinite"
					}
				},
				"methodIdentifiers": {
					"acceptDelivery(bool,uint256)": "da76af31",
					"addItemsMarket(uint256,uint256,string,uint256)": "008de16a",
					"addItemsSupplier(uint256,uint256,string,uint256,address)": "861c2b6d",
					"approveChangeRole(uint256)": "6f764708",
					"approveDelivery(bool,uint256)": "7eb33a58",
					"changeRole(uint8)": "55dea0b3",
					"deliveryOrders(uint256)": "1cc11721",
					"genRef(string,address)": "a1ba90b6",
					"makeDelivery(address,uint256,uint256)": "7555bf10",
					"makeMarket()": "66d0dc67",
					"makeSupplier()": "3dfe7dee",
					"makeUser()": "d18a524a",
					"marketProducts(address,uint256)": "4f424547",
					"owner()": "8da5cb5b",
					"purchase(address,uint256,uint256,string)": "9f1cd587",
					"randMod(uint256)": "805553e8",
					"referrals(string)": "d55768dd",
					"refillStore(address,uint256,uint256,address)": "fecd8f79",
					"refund(address,uint256)": "410085df",
					"supplierProducts(address,uint256)": "27b90b1b",
					"tickets(uint256)": "50b44712",
					"toUpper(string)": "62dd748c",
					"userProducts(address,uint256)": "3d527883",
					"users(address)": "a87430ba",
					"withdrawBal()": "f6364cc1"
				}
			},
			"storageLayout": {
				"storage": [
					{
						"astId": 14,
						"contract": "contracts/edits.sol:MarketPlace",
						"label": "tickets",
						"offset": 0,
						"slot": "0",
						"type": "t_array(t_struct(Ticket)49_storage)dyn_storage"
					},
					{
						"astId": 16,
						"contract": "contracts/edits.sol:MarketPlace",
						"label": "owner",
						"offset": 0,
						"slot": "1",
						"type": "t_address"
					},
					{
						"astId": 20,
						"contract": "contracts/edits.sol:MarketPlace",
						"label": "deliveryOrders",
						"offset": 0,
						"slot": "2",
						"type": "t_array(t_struct(DeliveryOrder)43_storage)dyn_storage"
					},
					{
						"astId": 71,
						"contract": "contracts/edits.sol:MarketPlace",
						"label": "users",
						"offset": 0,
						"slot": "3",
						"type": "t_mapping(t_address,t_struct(User)55_storage)"
					},
					{
						"astId": 77,
						"contract": "contracts/edits.sol:MarketPlace",
						"label": "userProducts",
						"offset": 0,
						"slot": "4",
						"type": "t_mapping(t_address,t_array(t_struct(Product)66_storage)dyn_storage)"
					},
					{
						"astId": 83,
						"contract": "contracts/edits.sol:MarketPlace",
						"label": "marketProducts",
						"offset": 0,
						"slot": "5",
						"type": "t_mapping(t_address,t_array(t_struct(Product)66_storage)dyn_storage)"
					},
					{
						"astId": 89,
						"contract": "contracts/edits.sol:MarketPlace",
						"label": "supplierProducts",
						"offset": 0,
						"slot": "6",
						"type": "t_mapping(t_address,t_array(t_struct(Product)66_storage)dyn_storage)"
					},
					{
						"astId": 93,
						"contract": "contracts/edits.sol:MarketPlace",
						"label": "referrals",
						"offset": 0,
						"slot": "7",
						"type": "t_mapping(t_string_memory_ptr,t_address)"
					}
				],
				"types": {
					"t_address": {
						"encoding": "inplace",
						"label": "address",
						"numberOfBytes": "20"
					},
					"t_array(t_struct(DeliveryOrder)43_storage)dyn_storage": {
						"base": "t_struct(DeliveryOrder)43_storage",
						"encoding": "dynamic_array",
						"label": "struct MarketPlace.DeliveryOrder[]",
						"numberOfBytes": "32"
					},
					"t_array(t_struct(Product)66_storage)dyn_storage": {
						"base": "t_struct(Product)66_storage",
						"encoding": "dynamic_array",
						"label": "struct MarketPlace.Product[]",
						"numberOfBytes": "32"
					},
					"t_array(t_struct(Ticket)49_storage)dyn_storage": {
						"base": "t_struct(Ticket)49_storage",
						"encoding": "dynamic_array",
						"label": "struct MarketPlace.Ticket[]",
						"numberOfBytes": "32"
					},
					"t_enum(Role)5": {
						"encoding": "inplace",
						"label": "enum MarketPlace.Role",
						"numberOfBytes": "1"
					},
					"t_enum(Status)10": {
						"encoding": "inplace",
						"label": "enum MarketPlace.Status",
						"numberOfBytes": "1"
					},
					"t_mapping(t_address,t_array(t_struct(Product)66_storage)dyn_storage)": {
						"encoding": "mapping",
						"key": "t_address",
						"label": "mapping(address => struct MarketPlace.Product[])",
						"numberOfBytes": "32",
						"value": "t_array(t_struct(Product)66_storage)dyn_storage"
					},
					"t_mapping(t_address,t_struct(User)55_storage)": {
						"encoding": "mapping",
						"key": "t_address",
						"label": "mapping(address => struct MarketPlace.User)",
						"numberOfBytes": "32",
						"value": "t_struct(User)55_storage"
					},
					"t_mapping(t_string_memory_ptr,t_address)": {
						"encoding": "mapping",
						"key": "t_string_memory_ptr",
						"label": "mapping(string => address)",
						"numberOfBytes": "32",
						"value": "t_address"
					},
					"t_string_memory_ptr": {
						"encoding": "bytes",
						"label": "string",
						"numberOfBytes": "32"
					},
					"t_string_storage": {
						"encoding": "bytes",
						"label": "string",
						"numberOfBytes": "32"
					},
					"t_struct(DeliveryOrder)43_storage": {
						"encoding": "inplace",
						"label": "struct MarketPlace.DeliveryOrder",
						"members": [
							{
								"astId": 31,
								"contract": "contracts/edits.sol:MarketPlace",
								"label": "userAddr",
								"offset": 0,
								"slot": "0",
								"type": "t_address"
							},
							{
								"astId": 33,
								"contract": "contracts/edits.sol:MarketPlace",
								"label": "shop",
								"offset": 0,
								"slot": "1",
								"type": "t_address"
							},
							{
								"astId": 36,
								"contract": "contracts/edits.sol:MarketPlace",
								"label": "status",
								"offset": 20,
								"slot": "1",
								"type": "t_enum(Status)10"
							},
							{
								"astId": 38,
								"contract": "contracts/edits.sol:MarketPlace",
								"label": "trackNumber",
								"offset": 0,
								"slot": "2",
								"type": "t_string_storage"
							},
							{
								"astId": 40,
								"contract": "contracts/edits.sol:MarketPlace",
								"label": "productId",
								"offset": 0,
								"slot": "3",
								"type": "t_uint256"
							},
							{
								"astId": 42,
								"contract": "contracts/edits.sol:MarketPlace",
								"label": "amount",
								"offset": 0,
								"slot": "4",
								"type": "t_uint256"
							}
						],
						"numberOfBytes": "160"
					},
					"t_struct(Product)66_storage": {
						"encoding": "inplace",
						"label": "struct MarketPlace.Product",
						"members": [
							{
								"astId": 57,
								"contract": "contracts/edits.sol:MarketPlace",
								"label": "userAddress",
								"offset": 0,
								"slot": "0",
								"type": "t_address"
							},
							{
								"astId": 59,
								"contract": "contracts/edits.sol:MarketPlace",
								"label": "inStock",
								"offset": 0,
								"slot": "1",
								"type": "t_uint256"
							},
							{
								"astId": 61,
								"contract": "contracts/edits.sol:MarketPlace",
								"label": "price",
								"offset": 0,
								"slot": "2",
								"type": "t_uint256"
							},
							{
								"astId": 63,
								"contract": "contracts/edits.sol:MarketPlace",
								"label": "name",
								"offset": 0,
								"slot": "3",
								"type": "t_string_storage"
							},
							{
								"astId": 65,
								"contract": "contracts/edits.sol:MarketPlace",
								"label": "expDate",
								"offset": 0,
								"slot": "4",
								"type": "t_uint256"
							}
						],
						"numberOfBytes": "160"
					},
					"t_struct(Ticket)49_storage": {
						"encoding": "inplace",
						"label": "struct MarketPlace.Ticket",
						"members": [
							{
								"astId": 45,
								"contract": "contracts/edits.sol:MarketPlace",
								"label": "userAddr",
								"offset": 0,
								"slot": "0",
								"type": "t_address"
							},
							{
								"astId": 48,
								"contract": "contracts/edits.sol:MarketPlace",
								"label": "role",
								"offset": 20,
								"slot": "0",
								"type": "t_enum(Role)5"
							}
						],
						"numberOfBytes": "32"
					},
					"t_struct(User)55_storage": {
						"encoding": "inplace",
						"label": "struct MarketPlace.User",
						"members": [
							{
								"astId": 52,
								"contract": "contracts/edits.sol:MarketPlace",
								"label": "role",
								"offset": 0,
								"slot": "0",
								"type": "t_enum(Role)5"
							},
							{
								"astId": 54,
								"contract": "contracts/edits.sol:MarketPlace",
								"label": "balance",
								"offset": 0,
								"slot": "1",
								"type": "t_uint256"
							}
						],
						"numberOfBytes": "64"
					},
					"t_uint256": {
						"encoding": "inplace",
						"label": "uint256",
						"numberOfBytes": "32"
					}
				}
			},
			"userdoc": {
				"kind": "user",
				"methods": {},
				"version": 1
			}
		}
	}
}