{
	"contracts/MarketPlace.sol": {
		"MarketPlace": {
			"abi": [
				{
					"inputs": [
						{
							"internalType": "uint256",
							"name": "_breadPrice",
							"type": "uint256"
						},
						{
							"internalType": "uint256",
							"name": "_breadInStock",
							"type": "uint256"
						}
					],
					"stateMutability": "nonpayable",
					"type": "constructor"
				},
				{
					"inputs": [],
					"name": "breadInStock",
					"outputs": [
						{
							"internalType": "uint256",
							"name": "",
							"type": "uint256"
						}
					],
					"stateMutability": "view",
					"type": "function"
				},
				{
					"inputs": [],
					"name": "breadPrice",
					"outputs": [
						{
							"internalType": "uint256",
							"name": "",
							"type": "uint256"
						}
					],
					"stateMutability": "view",
					"type": "function"
				},
				{
					"inputs": [],
					"name": "owner",
					"outputs": [
						{
							"internalType": "address",
							"name": "",
							"type": "address"
						}
					],
					"stateMutability": "view",
					"type": "function"
				},
				{
					"inputs": [
						{
							"internalType": "uint256",
							"name": "_amount",
							"type": "uint256"
						}
					],
					"name": "purchaseBread",
					"outputs": [],
					"stateMutability": "payable",
					"type": "function"
				},
				{
					"inputs": [
						{
							"internalType": "uint256",
							"name": "_breadPrice",
							"type": "uint256"
						}
					],
					"name": "setBreadPrice",
					"outputs": [],
					"stateMutability": "nonpayable",
					"type": "function"
				},
				{
					"inputs": [],
					"name": "showBreads",
					"outputs": [
						{
							"internalType": "uint256",
							"name": "",
							"type": "uint256"
						}
					],
					"stateMutability": "view",
					"type": "function"
				}
			],
			"devdoc": {
				"kind": "dev",
				"methods": {},
				"version": 1
			},
			"evm": {
				"assembly": "    /* \"contracts/MarketPlace.sol\":57:1130  contract MarketPlace{... */\n  mstore(0x40, 0x80)\n    /* \"contracts/MarketPlace.sol\":214:380  constructor(uint _breadPrice, uint _breadInStock){... */\n  callvalue\n  dup1\n  iszero\n  tag_1\n  jumpi\n  0x00\n  dup1\n  revert\ntag_1:\n  pop\n  mload(0x40)\n  sub(codesize, bytecodeSize)\n  dup1\n  bytecodeSize\n  dup4\n  codecopy\n  dup2\n  dup2\n  add\n  0x40\n  mstore\n  dup2\n  add\n  swap1\n  tag_2\n  swap2\n  swap1\n  tag_3\n  jump\t// in\ntag_2:\n    /* \"contracts/MarketPlace.sol\":281:291  msg.sender */\n  caller\n    /* \"contracts/MarketPlace.sol\":273:278  owner */\n  0x00\n  dup1\n    /* \"contracts/MarketPlace.sol\":273:291  owner = msg.sender */\n  0x0100\n  exp\n  dup2\n  sload\n  dup2\n  0xffffffffffffffffffffffffffffffffffffffff\n  mul\n  not\n  and\n  swap1\n  dup4\n  0xffffffffffffffffffffffffffffffffffffffff\n  and\n  mul\n  or\n  swap1\n  sstore\n  pop\n    /* \"contracts/MarketPlace.sol\":328:335  1 ether */\n  0x0de0b6b3a7640000\n    /* \"contracts/MarketPlace.sol\":314:325  _breadPrice */\n  dup3\n    /* \"contracts/MarketPlace.sol\":314:335  _breadPrice * 1 ether */\n  tag_6\n  swap2\n  swap1\n  tag_7\n  jump\t// in\ntag_6:\n    /* \"contracts/MarketPlace.sol\":301:311  breadPrice */\n  0x01\n    /* \"contracts/MarketPlace.sol\":301:335  breadPrice = _breadPrice * 1 ether */\n  dup2\n  swap1\n  sstore\n  pop\n    /* \"contracts/MarketPlace.sol\":360:373  _breadInStock */\n  dup1\n    /* \"contracts/MarketPlace.sol\":345:357  breadInStock */\n  0x02\n    /* \"contracts/MarketPlace.sol\":345:373  breadInStock = _breadInStock */\n  dup2\n  swap1\n  sstore\n  pop\n    /* \"contracts/MarketPlace.sol\":214:380  constructor(uint _breadPrice, uint _breadInStock){... */\n  pop\n  pop\n    /* \"contracts/MarketPlace.sol\":57:1130  contract MarketPlace{... */\n  jump(tag_8)\n    /* \"#utility.yul\":88:205   */\ntag_10:\n    /* \"#utility.yul\":197:198   */\n  0x00\n    /* \"#utility.yul\":194:195   */\n  dup1\n    /* \"#utility.yul\":187:199   */\n  revert\n    /* \"#utility.yul\":334:411   */\ntag_12:\n    /* \"#utility.yul\":371:378   */\n  0x00\n    /* \"#utility.yul\":400:405   */\n  dup2\n    /* \"#utility.yul\":389:405   */\n  swap1\n  pop\n    /* \"#utility.yul\":334:411   */\n  swap2\n  swap1\n  pop\n  jump\t// out\n    /* \"#utility.yul\":417:539   */\ntag_13:\n    /* \"#utility.yul\":490:514   */\n  tag_22\n    /* \"#utility.yul\":508:513   */\n  dup2\n    /* \"#utility.yul\":490:514   */\n  tag_12\n  jump\t// in\ntag_22:\n    /* \"#utility.yul\":483:488   */\n  dup2\n    /* \"#utility.yul\":480:515   */\n  eq\n    /* \"#utility.yul\":470:533   */\n  tag_23\n  jumpi\n    /* \"#utility.yul\":529:530   */\n  0x00\n    /* \"#utility.yul\":526:527   */\n  dup1\n    /* \"#utility.yul\":519:531   */\n  revert\n    /* \"#utility.yul\":470:533   */\ntag_23:\n    /* \"#utility.yul\":417:539   */\n  pop\n  jump\t// out\n    /* \"#utility.yul\":545:688   */\ntag_14:\n    /* \"#utility.yul\":602:607   */\n  0x00\n    /* \"#utility.yul\":633:639   */\n  dup2\n    /* \"#utility.yul\":627:640   */\n  mload\n    /* \"#utility.yul\":618:640   */\n  swap1\n  pop\n    /* \"#utility.yul\":649:682   */\n  tag_25\n    /* \"#utility.yul\":676:681   */\n  dup2\n    /* \"#utility.yul\":649:682   */\n  tag_13\n  jump\t// in\ntag_25:\n    /* \"#utility.yul\":545:688   */\n  swap3\n  swap2\n  pop\n  pop\n  jump\t// out\n    /* \"#utility.yul\":694:1201   */\ntag_3:\n    /* \"#utility.yul\":773:779   */\n  0x00\n    /* \"#utility.yul\":781:787   */\n  dup1\n    /* \"#utility.yul\":830:832   */\n  0x40\n    /* \"#utility.yul\":818:827   */\n  dup4\n    /* \"#utility.yul\":809:816   */\n  dup6\n    /* \"#utility.yul\":805:828   */\n  sub\n    /* \"#utility.yul\":801:833   */\n  slt\n    /* \"#utility.yul\":798:917   */\n  iszero\n  tag_27\n  jumpi\n    /* \"#utility.yul\":836:915   */\n  tag_28\n  tag_10\n  jump\t// in\ntag_28:\n    /* \"#utility.yul\":798:917   */\ntag_27:\n    /* \"#utility.yul\":956:957   */\n  0x00\n    /* \"#utility.yul\":981:1045   */\n  tag_29\n    /* \"#utility.yul\":1037:1044   */\n  dup6\n    /* \"#utility.yul\":1028:1034   */\n  dup3\n    /* \"#utility.yul\":1017:1026   */\n  dup7\n    /* \"#utility.yul\":1013:1035   */\n  add\n    /* \"#utility.yul\":981:1045   */\n  tag_14\n  jump\t// in\ntag_29:\n    /* \"#utility.yul\":971:1045   */\n  swap3\n  pop\n    /* \"#utility.yul\":927:1055   */\n  pop\n    /* \"#utility.yul\":1094:1096   */\n  0x20\n    /* \"#utility.yul\":1120:1184   */\n  tag_30\n    /* \"#utility.yul\":1176:1183   */\n  dup6\n    /* \"#utility.yul\":1167:1173   */\n  dup3\n    /* \"#utility.yul\":1156:1165   */\n  dup7\n    /* \"#utility.yul\":1152:1174   */\n  add\n    /* \"#utility.yul\":1120:1184   */\n  tag_14\n  jump\t// in\ntag_30:\n    /* \"#utility.yul\":1110:1184   */\n  swap2\n  pop\n    /* \"#utility.yul\":1065:1194   */\n  pop\n    /* \"#utility.yul\":694:1201   */\n  swap3\n  pop\n  swap3\n  swap1\n  pop\n  jump\t// out\n    /* \"#utility.yul\":1207:1387   */\ntag_15:\n    /* \"#utility.yul\":1255:1332   */\n  0x4e487b7100000000000000000000000000000000000000000000000000000000\n    /* \"#utility.yul\":1252:1253   */\n  0x00\n    /* \"#utility.yul\":1245:1333   */\n  mstore\n    /* \"#utility.yul\":1352:1356   */\n  0x11\n    /* \"#utility.yul\":1349:1350   */\n  0x04\n    /* \"#utility.yul\":1342:1357   */\n  mstore\n    /* \"#utility.yul\":1376:1380   */\n  0x24\n    /* \"#utility.yul\":1373:1374   */\n  0x00\n    /* \"#utility.yul\":1366:1381   */\n  revert\n    /* \"#utility.yul\":1393:1803   */\ntag_7:\n    /* \"#utility.yul\":1433:1440   */\n  0x00\n    /* \"#utility.yul\":1456:1476   */\n  tag_33\n    /* \"#utility.yul\":1474:1475   */\n  dup3\n    /* \"#utility.yul\":1456:1476   */\n  tag_12\n  jump\t// in\ntag_33:\n    /* \"#utility.yul\":1451:1476   */\n  swap2\n  pop\n    /* \"#utility.yul\":1490:1510   */\n  tag_34\n    /* \"#utility.yul\":1508:1509   */\n  dup4\n    /* \"#utility.yul\":1490:1510   */\n  tag_12\n  jump\t// in\ntag_34:\n    /* \"#utility.yul\":1485:1510   */\n  swap3\n  pop\n    /* \"#utility.yul\":1545:1546   */\n  dup3\n    /* \"#utility.yul\":1542:1543   */\n  dup3\n    /* \"#utility.yul\":1538:1547   */\n  mul\n    /* \"#utility.yul\":1567:1597   */\n  tag_35\n    /* \"#utility.yul\":1585:1596   */\n  dup2\n    /* \"#utility.yul\":1567:1597   */\n  tag_12\n  jump\t// in\ntag_35:\n    /* \"#utility.yul\":1556:1597   */\n  swap2\n  pop\n    /* \"#utility.yul\":1746:1747   */\n  dup3\n    /* \"#utility.yul\":1737:1744   */\n  dup3\n    /* \"#utility.yul\":1733:1748   */\n  div\n    /* \"#utility.yul\":1730:1731   */\n  dup5\n    /* \"#utility.yul\":1727:1749   */\n  eq\n    /* \"#utility.yul\":1707:1708   */\n  dup4\n    /* \"#utility.yul\":1700:1709   */\n  iszero\n    /* \"#utility.yul\":1680:1763   */\n  or\n    /* \"#utility.yul\":1657:1796   */\n  tag_36\n  jumpi\n    /* \"#utility.yul\":1776:1794   */\n  tag_37\n  tag_15\n  jump\t// in\ntag_37:\n    /* \"#utility.yul\":1657:1796   */\ntag_36:\n    /* \"#utility.yul\":1441:1803   */\n  pop\n    /* \"#utility.yul\":1393:1803   */\n  swap3\n  swap2\n  pop\n  pop\n  jump\t// out\n    /* \"contracts/MarketPlace.sol\":57:1130  contract MarketPlace{... */\ntag_8:\n  dataSize(sub_0)\n  dup1\n  dataOffset(sub_0)\n  0x00\n  codecopy\n  0x00\n  return\nstop\n\nsub_0: assembly {\n        /* \"contracts/MarketPlace.sol\":57:1130  contract MarketPlace{... */\n      mstore(0x40, 0x80)\n      jumpi(tag_1, lt(calldatasize, 0x04))\n      shr(0xe0, calldataload(0x00))\n      dup1\n      0x07e2632f\n      eq\n      tag_2\n      jumpi\n      dup1\n      0x0f63081a\n      eq\n      tag_3\n      jumpi\n      dup1\n      0x4085ed7d\n      eq\n      tag_4\n      jumpi\n      dup1\n      0x799cad39\n      eq\n      tag_5\n      jumpi\n      dup1\n      0x86395b58\n      eq\n      tag_6\n      jumpi\n      dup1\n      0x8da5cb5b\n      eq\n      tag_7\n      jumpi\n    tag_1:\n      0x00\n      dup1\n      revert\n        /* \"contracts/MarketPlace.sol\":492:1019  function purchaseBread(uint _amount) public payable {... */\n    tag_2:\n      tag_8\n      0x04\n      dup1\n      calldatasize\n      sub\n      dup2\n      add\n      swap1\n      tag_9\n      swap2\n      swap1\n      tag_10\n      jump\t// in\n    tag_9:\n      tag_11\n      jump\t// in\n    tag_8:\n      stop\n        /* \"contracts/MarketPlace.sol\":386:486  function setBreadPrice (uint _breadPrice) public {... */\n    tag_3:\n      callvalue\n      dup1\n      iszero\n      tag_12\n      jumpi\n      0x00\n      dup1\n      revert\n    tag_12:\n      pop\n      tag_13\n      0x04\n      dup1\n      calldatasize\n      sub\n      dup2\n      add\n      swap1\n      tag_14\n      swap2\n      swap1\n      tag_10\n      jump\t// in\n    tag_14:\n      tag_15\n      jump\t// in\n    tag_13:\n      stop\n        /* \"contracts/MarketPlace.sol\":137:161  uint public breadInStock */\n    tag_4:\n      callvalue\n      dup1\n      iszero\n      tag_16\n      jumpi\n      0x00\n      dup1\n      revert\n    tag_16:\n      pop\n      tag_17\n      tag_18\n      jump\t// in\n    tag_17:\n      mload(0x40)\n      tag_19\n      swap2\n      swap1\n      tag_20\n      jump\t// in\n    tag_19:\n      mload(0x40)\n      dup1\n      swap2\n      sub\n      swap1\n      return\n        /* \"contracts/MarketPlace.sol\":1025:1122  function showBreads() public view returns(uint){... */\n    tag_5:\n      callvalue\n      dup1\n      iszero\n      tag_21\n      jumpi\n      0x00\n      dup1\n      revert\n    tag_21:\n      pop\n      tag_22\n      tag_23\n      jump\t// in\n    tag_22:\n      mload(0x40)\n      tag_24\n      swap2\n      swap1\n      tag_20\n      jump\t// in\n    tag_24:\n      mload(0x40)\n      dup1\n      swap2\n      sub\n      swap1\n      return\n        /* \"contracts/MarketPlace.sol\":109:131  uint public breadPrice */\n    tag_6:\n      callvalue\n      dup1\n      iszero\n      tag_25\n      jumpi\n      0x00\n      dup1\n      revert\n    tag_25:\n      pop\n      tag_26\n      tag_27\n      jump\t// in\n    tag_26:\n      mload(0x40)\n      tag_28\n      swap2\n      swap1\n      tag_20\n      jump\t// in\n    tag_28:\n      mload(0x40)\n      dup1\n      swap2\n      sub\n      swap1\n      return\n        /* \"contracts/MarketPlace.sol\":83:103  address public owner */\n    tag_7:\n      callvalue\n      dup1\n      iszero\n      tag_29\n      jumpi\n      0x00\n      dup1\n      revert\n    tag_29:\n      pop\n      tag_30\n      tag_31\n      jump\t// in\n    tag_30:\n      mload(0x40)\n      tag_32\n      swap2\n      swap1\n      tag_33\n      jump\t// in\n    tag_32:\n      mload(0x40)\n      dup1\n      swap2\n      sub\n      swap1\n      return\n        /* \"contracts/MarketPlace.sol\":492:1019  function purchaseBread(uint _amount) public payable {... */\n    tag_11:\n        /* \"contracts/MarketPlace.sol\":573:585  breadInStock */\n      sload(0x02)\n        /* \"contracts/MarketPlace.sol\":562:569  _amount */\n      dup2\n        /* \"contracts/MarketPlace.sol\":562:585  _amount <= breadInStock */\n      gt\n      iszero\n        /* \"contracts/MarketPlace.sol\":554:586  require(_amount <= breadInStock) */\n      tag_35\n      jumpi\n      0x00\n      dup1\n      revert\n    tag_35:\n        /* \"contracts/MarketPlace.sol\":613:614  0 */\n      0x00\n        /* \"contracts/MarketPlace.sol\":604:611  _amount */\n      dup2\n        /* \"contracts/MarketPlace.sol\":604:614  _amount >0 */\n      gt\n        /* \"contracts/MarketPlace.sol\":596:615  require(_amount >0) */\n      tag_36\n      jumpi\n      0x00\n      dup1\n      revert\n    tag_36:\n        /* \"contracts/MarketPlace.sol\":625:640  uint totalPrice */\n      0x00\n        /* \"contracts/MarketPlace.sol\":653:663  breadPrice */\n      sload(0x01)\n        /* \"contracts/MarketPlace.sol\":643:650  _amount */\n      dup3\n        /* \"contracts/MarketPlace.sol\":643:663  _amount * breadPrice */\n      tag_37\n      swap2\n      swap1\n      tag_38\n      jump\t// in\n    tag_37:\n        /* \"contracts/MarketPlace.sol\":625:663  uint totalPrice = _amount * breadPrice */\n      swap1\n      pop\n        /* \"contracts/MarketPlace.sol\":694:704  totalPrice */\n      dup1\n        /* \"contracts/MarketPlace.sol\":681:690  msg.value */\n      callvalue\n        /* \"contracts/MarketPlace.sol\":681:704  msg.value >= totalPrice */\n      lt\n      iszero\n        /* \"contracts/MarketPlace.sol\":673:705  require(msg.value >= totalPrice) */\n      tag_39\n      jumpi\n      0x00\n      dup1\n      revert\n    tag_39:\n        /* \"contracts/MarketPlace.sol\":715:727  breadInStock */\n      0x02\n      0x00\n        /* \"contracts/MarketPlace.sol\":715:730  breadInStock -- */\n      dup2\n      sload\n      dup1\n      swap3\n      swap2\n      swap1\n      tag_40\n      swap1\n      tag_41\n      jump\t// in\n    tag_40:\n      swap2\n      swap1\n      pop\n      sstore\n      pop\n        /* \"contracts/MarketPlace.sol\":769:776  _amount */\n      dup2\n        /* \"contracts/MarketPlace.sol\":740:754  customerBreads */\n      0x03\n        /* \"contracts/MarketPlace.sol\":740:766  customerBreads[msg.sender] */\n      0x00\n        /* \"contracts/MarketPlace.sol\":755:765  msg.sender */\n      caller\n        /* \"contracts/MarketPlace.sol\":740:766  customerBreads[msg.sender] */\n      0xffffffffffffffffffffffffffffffffffffffff\n      and\n      0xffffffffffffffffffffffffffffffffffffffff\n      and\n      dup2\n      mstore\n      0x20\n      add\n      swap1\n      dup2\n      mstore\n      0x20\n      add\n      0x00\n      keccak256\n      0x00\n        /* \"contracts/MarketPlace.sol\":740:776  customerBreads[msg.sender]+= _amount */\n      dup3\n      dup3\n      sload\n      tag_42\n      swap2\n      swap1\n      tag_43\n      jump\t// in\n    tag_42:\n      swap3\n      pop\n      pop\n      dup2\n      swap1\n      sstore\n      pop\n        /* \"contracts/MarketPlace.sol\":802:812  totalPrice */\n      dup1\n        /* \"contracts/MarketPlace.sol\":790:799  msg.value */\n      callvalue\n        /* \"contracts/MarketPlace.sol\":790:812  msg.value > totalPrice */\n      gt\n        /* \"contracts/MarketPlace.sol\":787:923  if(msg.value > totalPrice){... */\n      iszero\n      tag_44\n      jumpi\n        /* \"contracts/MarketPlace.sol\":826:837  uint change */\n      0x00\n        /* \"contracts/MarketPlace.sol\":852:862  totalPrice */\n      dup2\n        /* \"contracts/MarketPlace.sol\":840:849  msg.value */\n      callvalue\n        /* \"contracts/MarketPlace.sol\":840:862  msg.value - totalPrice */\n      tag_45\n      swap2\n      swap1\n      tag_46\n      jump\t// in\n    tag_45:\n        /* \"contracts/MarketPlace.sol\":826:862  uint change = msg.value - totalPrice */\n      swap1\n      pop\n        /* \"contracts/MarketPlace.sol\":884:894  msg.sender */\n      caller\n        /* \"contracts/MarketPlace.sol\":875:904  payable (msg.sender).transfer */\n      0xffffffffffffffffffffffffffffffffffffffff\n      and\n        /* \"contracts/MarketPlace.sol\":875:912  payable (msg.sender).transfer(change) */\n      0x08fc\n        /* \"contracts/MarketPlace.sol\":905:911  change */\n      dup3\n        /* \"contracts/MarketPlace.sol\":875:912  payable (msg.sender).transfer(change) */\n      swap1\n      dup2\n      iszero\n      mul\n      swap1\n      mload(0x40)\n      0x00\n      mload(0x40)\n      dup1\n      dup4\n      sub\n      dup2\n      dup6\n      dup9\n      dup9\n      call\n      swap4\n      pop\n      pop\n      pop\n      pop\n      iszero\n      dup1\n      iszero\n      tag_48\n      jumpi\n      returndatasize\n      0x00\n      dup1\n      returndatacopy\n      revert(0x00, returndatasize)\n    tag_48:\n      pop\n        /* \"contracts/MarketPlace.sol\":813:923  {... */\n      pop\n        /* \"contracts/MarketPlace.sol\":787:923  if(msg.value > totalPrice){... */\n    tag_44:\n        /* \"contracts/MarketPlace.sol\":933:945  uint balance */\n      0x00\n        /* \"contracts/MarketPlace.sol\":948:969  address(this).balance */\n      selfbalance\n        /* \"contracts/MarketPlace.sol\":933:969  uint balance = address(this).balance */\n      swap1\n      pop\n        /* \"contracts/MarketPlace.sol\":987:992  owner */\n      0x00\n      dup1\n      sload\n      swap1\n      0x0100\n      exp\n      swap1\n      div\n      0xffffffffffffffffffffffffffffffffffffffff\n      and\n        /* \"contracts/MarketPlace.sol\":979:1002  payable(owner).transfer */\n      0xffffffffffffffffffffffffffffffffffffffff\n      and\n        /* \"contracts/MarketPlace.sol\":979:1011  payable(owner).transfer(balance) */\n      0x08fc\n        /* \"contracts/MarketPlace.sol\":1003:1010  balance */\n      dup3\n        /* \"contracts/MarketPlace.sol\":979:1011  payable(owner).transfer(balance) */\n      swap1\n      dup2\n      iszero\n      mul\n      swap1\n      mload(0x40)\n      0x00\n      mload(0x40)\n      dup1\n      dup4\n      sub\n      dup2\n      dup6\n      dup9\n      dup9\n      call\n      swap4\n      pop\n      pop\n      pop\n      pop\n      iszero\n      dup1\n      iszero\n      tag_50\n      jumpi\n      returndatasize\n      0x00\n      dup1\n      returndatacopy\n      revert(0x00, returndatasize)\n    tag_50:\n      pop\n        /* \"contracts/MarketPlace.sol\":544:1019  {... */\n      pop\n      pop\n        /* \"contracts/MarketPlace.sol\":492:1019  function purchaseBread(uint _amount) public payable {... */\n      pop\n      jump\t// out\n        /* \"contracts/MarketPlace.sol\":386:486  function setBreadPrice (uint _breadPrice) public {... */\n    tag_15:\n        /* \"contracts/MarketPlace.sol\":472:479  1 ether */\n      0x0de0b6b3a7640000\n        /* \"contracts/MarketPlace.sol\":458:469  _breadPrice */\n      dup2\n        /* \"contracts/MarketPlace.sol\":458:479  _breadPrice * 1 ether */\n      tag_52\n      swap2\n      swap1\n      tag_38\n      jump\t// in\n    tag_52:\n        /* \"contracts/MarketPlace.sol\":445:455  breadPrice */\n      0x01\n        /* \"contracts/MarketPlace.sol\":445:479  breadPrice = _breadPrice * 1 ether */\n      dup2\n      swap1\n      sstore\n      pop\n        /* \"contracts/MarketPlace.sol\":386:486  function setBreadPrice (uint _breadPrice) public {... */\n      pop\n      jump\t// out\n        /* \"contracts/MarketPlace.sol\":137:161  uint public breadInStock */\n    tag_18:\n      sload(0x02)\n      dup2\n      jump\t// out\n        /* \"contracts/MarketPlace.sol\":1025:1122  function showBreads() public view returns(uint){... */\n    tag_23:\n        /* \"contracts/MarketPlace.sol\":1067:1071  uint */\n      0x00\n        /* \"contracts/MarketPlace.sol\":1089:1103  customerBreads */\n      0x03\n        /* \"contracts/MarketPlace.sol\":1089:1115  customerBreads[msg.sender] */\n      0x00\n        /* \"contracts/MarketPlace.sol\":1104:1114  msg.sender */\n      caller\n        /* \"contracts/MarketPlace.sol\":1089:1115  customerBreads[msg.sender] */\n      0xffffffffffffffffffffffffffffffffffffffff\n      and\n      0xffffffffffffffffffffffffffffffffffffffff\n      and\n      dup2\n      mstore\n      0x20\n      add\n      swap1\n      dup2\n      mstore\n      0x20\n      add\n      0x00\n      keccak256\n      sload\n        /* \"contracts/MarketPlace.sol\":1082:1115  return customerBreads[msg.sender] */\n      swap1\n      pop\n        /* \"contracts/MarketPlace.sol\":1025:1122  function showBreads() public view returns(uint){... */\n      swap1\n      jump\t// out\n        /* \"contracts/MarketPlace.sol\":109:131  uint public breadPrice */\n    tag_27:\n      sload(0x01)\n      dup2\n      jump\t// out\n        /* \"contracts/MarketPlace.sol\":83:103  address public owner */\n    tag_31:\n      0x00\n      dup1\n      sload\n      swap1\n      0x0100\n      exp\n      swap1\n      div\n      0xffffffffffffffffffffffffffffffffffffffff\n      and\n      dup2\n      jump\t// out\n        /* \"#utility.yul\":88:205   */\n    tag_55:\n        /* \"#utility.yul\":197:198   */\n      0x00\n        /* \"#utility.yul\":194:195   */\n      dup1\n        /* \"#utility.yul\":187:199   */\n      revert\n        /* \"#utility.yul\":334:411   */\n    tag_57:\n        /* \"#utility.yul\":371:378   */\n      0x00\n        /* \"#utility.yul\":400:405   */\n      dup2\n        /* \"#utility.yul\":389:405   */\n      swap1\n      pop\n        /* \"#utility.yul\":334:411   */\n      swap2\n      swap1\n      pop\n      jump\t// out\n        /* \"#utility.yul\":417:539   */\n    tag_58:\n        /* \"#utility.yul\":490:514   */\n      tag_71\n        /* \"#utility.yul\":508:513   */\n      dup2\n        /* \"#utility.yul\":490:514   */\n      tag_57\n      jump\t// in\n    tag_71:\n        /* \"#utility.yul\":483:488   */\n      dup2\n        /* \"#utility.yul\":480:515   */\n      eq\n        /* \"#utility.yul\":470:533   */\n      tag_72\n      jumpi\n        /* \"#utility.yul\":529:530   */\n      0x00\n        /* \"#utility.yul\":526:527   */\n      dup1\n        /* \"#utility.yul\":519:531   */\n      revert\n        /* \"#utility.yul\":470:533   */\n    tag_72:\n        /* \"#utility.yul\":417:539   */\n      pop\n      jump\t// out\n        /* \"#utility.yul\":545:684   */\n    tag_59:\n        /* \"#utility.yul\":591:596   */\n      0x00\n        /* \"#utility.yul\":629:635   */\n      dup2\n        /* \"#utility.yul\":616:636   */\n      calldataload\n        /* \"#utility.yul\":607:636   */\n      swap1\n      pop\n        /* \"#utility.yul\":645:678   */\n      tag_74\n        /* \"#utility.yul\":672:677   */\n      dup2\n        /* \"#utility.yul\":645:678   */\n      tag_58\n      jump\t// in\n    tag_74:\n        /* \"#utility.yul\":545:684   */\n      swap3\n      swap2\n      pop\n      pop\n      jump\t// out\n        /* \"#utility.yul\":690:1019   */\n    tag_10:\n        /* \"#utility.yul\":749:755   */\n      0x00\n        /* \"#utility.yul\":798:800   */\n      0x20\n        /* \"#utility.yul\":786:795   */\n      dup3\n        /* \"#utility.yul\":777:784   */\n      dup5\n        /* \"#utility.yul\":773:796   */\n      sub\n        /* \"#utility.yul\":769:801   */\n      slt\n        /* \"#utility.yul\":766:885   */\n      iszero\n      tag_76\n      jumpi\n        /* \"#utility.yul\":804:883   */\n      tag_77\n      tag_55\n      jump\t// in\n    tag_77:\n        /* \"#utility.yul\":766:885   */\n    tag_76:\n        /* \"#utility.yul\":924:925   */\n      0x00\n        /* \"#utility.yul\":949:1002   */\n      tag_78\n        /* \"#utility.yul\":994:1001   */\n      dup5\n        /* \"#utility.yul\":985:991   */\n      dup3\n        /* \"#utility.yul\":974:983   */\n      dup6\n        /* \"#utility.yul\":970:992   */\n      add\n        /* \"#utility.yul\":949:1002   */\n      tag_59\n      jump\t// in\n    tag_78:\n        /* \"#utility.yul\":939:1002   */\n      swap2\n      pop\n        /* \"#utility.yul\":895:1012   */\n      pop\n        /* \"#utility.yul\":690:1019   */\n      swap3\n      swap2\n      pop\n      pop\n      jump\t// out\n        /* \"#utility.yul\":1025:1143   */\n    tag_60:\n        /* \"#utility.yul\":1112:1136   */\n      tag_80\n        /* \"#utility.yul\":1130:1135   */\n      dup2\n        /* \"#utility.yul\":1112:1136   */\n      tag_57\n      jump\t// in\n    tag_80:\n        /* \"#utility.yul\":1107:1110   */\n      dup3\n        /* \"#utility.yul\":1100:1137   */\n      mstore\n        /* \"#utility.yul\":1025:1143   */\n      pop\n      pop\n      jump\t// out\n        /* \"#utility.yul\":1149:1371   */\n    tag_20:\n        /* \"#utility.yul\":1242:1246   */\n      0x00\n        /* \"#utility.yul\":1280:1282   */\n      0x20\n        /* \"#utility.yul\":1269:1278   */\n      dup3\n        /* \"#utility.yul\":1265:1283   */\n      add\n        /* \"#utility.yul\":1257:1283   */\n      swap1\n      pop\n        /* \"#utility.yul\":1293:1364   */\n      tag_82\n        /* \"#utility.yul\":1361:1362   */\n      0x00\n        /* \"#utility.yul\":1350:1359   */\n      dup4\n        /* \"#utility.yul\":1346:1363   */\n      add\n        /* \"#utility.yul\":1337:1343   */\n      dup5\n        /* \"#utility.yul\":1293:1364   */\n      tag_60\n      jump\t// in\n    tag_82:\n        /* \"#utility.yul\":1149:1371   */\n      swap3\n      swap2\n      pop\n      pop\n      jump\t// out\n        /* \"#utility.yul\":1377:1503   */\n    tag_61:\n        /* \"#utility.yul\":1414:1421   */\n      0x00\n        /* \"#utility.yul\":1454:1496   */\n      0xffffffffffffffffffffffffffffffffffffffff\n        /* \"#utility.yul\":1447:1452   */\n      dup3\n        /* \"#utility.yul\":1443:1497   */\n      and\n        /* \"#utility.yul\":1432:1497   */\n      swap1\n      pop\n        /* \"#utility.yul\":1377:1503   */\n      swap2\n      swap1\n      pop\n      jump\t// out\n        /* \"#utility.yul\":1509:1605   */\n    tag_62:\n        /* \"#utility.yul\":1546:1553   */\n      0x00\n        /* \"#utility.yul\":1575:1599   */\n      tag_85\n        /* \"#utility.yul\":1593:1598   */\n      dup3\n        /* \"#utility.yul\":1575:1599   */\n      tag_61\n      jump\t// in\n    tag_85:\n        /* \"#utility.yul\":1564:1599   */\n      swap1\n      pop\n        /* \"#utility.yul\":1509:1605   */\n      swap2\n      swap1\n      pop\n      jump\t// out\n        /* \"#utility.yul\":1611:1729   */\n    tag_63:\n        /* \"#utility.yul\":1698:1722   */\n      tag_87\n        /* \"#utility.yul\":1716:1721   */\n      dup2\n        /* \"#utility.yul\":1698:1722   */\n      tag_62\n      jump\t// in\n    tag_87:\n        /* \"#utility.yul\":1693:1696   */\n      dup3\n        /* \"#utility.yul\":1686:1723   */\n      mstore\n        /* \"#utility.yul\":1611:1729   */\n      pop\n      pop\n      jump\t// out\n        /* \"#utility.yul\":1735:1957   */\n    tag_33:\n        /* \"#utility.yul\":1828:1832   */\n      0x00\n        /* \"#utility.yul\":1866:1868   */\n      0x20\n        /* \"#utility.yul\":1855:1864   */\n      dup3\n        /* \"#utility.yul\":1851:1869   */\n      add\n        /* \"#utility.yul\":1843:1869   */\n      swap1\n      pop\n        /* \"#utility.yul\":1879:1950   */\n      tag_89\n        /* \"#utility.yul\":1947:1948   */\n      0x00\n        /* \"#utility.yul\":1936:1945   */\n      dup4\n        /* \"#utility.yul\":1932:1949   */\n      add\n        /* \"#utility.yul\":1923:1929   */\n      dup5\n        /* \"#utility.yul\":1879:1950   */\n      tag_63\n      jump\t// in\n    tag_89:\n        /* \"#utility.yul\":1735:1957   */\n      swap3\n      swap2\n      pop\n      pop\n      jump\t// out\n        /* \"#utility.yul\":1963:2143   */\n    tag_64:\n        /* \"#utility.yul\":2011:2088   */\n      0x4e487b7100000000000000000000000000000000000000000000000000000000\n        /* \"#utility.yul\":2008:2009   */\n      0x00\n        /* \"#utility.yul\":2001:2089   */\n      mstore\n        /* \"#utility.yul\":2108:2112   */\n      0x11\n        /* \"#utility.yul\":2105:2106   */\n      0x04\n        /* \"#utility.yul\":2098:2113   */\n      mstore\n        /* \"#utility.yul\":2132:2136   */\n      0x24\n        /* \"#utility.yul\":2129:2130   */\n      0x00\n        /* \"#utility.yul\":2122:2137   */\n      revert\n        /* \"#utility.yul\":2149:2559   */\n    tag_38:\n        /* \"#utility.yul\":2189:2196   */\n      0x00\n        /* \"#utility.yul\":2212:2232   */\n      tag_92\n        /* \"#utility.yul\":2230:2231   */\n      dup3\n        /* \"#utility.yul\":2212:2232   */\n      tag_57\n      jump\t// in\n    tag_92:\n        /* \"#utility.yul\":2207:2232   */\n      swap2\n      pop\n        /* \"#utility.yul\":2246:2266   */\n      tag_93\n        /* \"#utility.yul\":2264:2265   */\n      dup4\n        /* \"#utility.yul\":2246:2266   */\n      tag_57\n      jump\t// in\n    tag_93:\n        /* \"#utility.yul\":2241:2266   */\n      swap3\n      pop\n        /* \"#utility.yul\":2301:2302   */\n      dup3\n        /* \"#utility.yul\":2298:2299   */\n      dup3\n        /* \"#utility.yul\":2294:2303   */\n      mul\n        /* \"#utility.yul\":2323:2353   */\n      tag_94\n        /* \"#utility.yul\":2341:2352   */\n      dup2\n        /* \"#utility.yul\":2323:2353   */\n      tag_57\n      jump\t// in\n    tag_94:\n        /* \"#utility.yul\":2312:2353   */\n      swap2\n      pop\n        /* \"#utility.yul\":2502:2503   */\n      dup3\n        /* \"#utility.yul\":2493:2500   */\n      dup3\n        /* \"#utility.yul\":2489:2504   */\n      div\n        /* \"#utility.yul\":2486:2487   */\n      dup5\n        /* \"#utility.yul\":2483:2505   */\n      eq\n        /* \"#utility.yul\":2463:2464   */\n      dup4\n        /* \"#utility.yul\":2456:2465   */\n      iszero\n        /* \"#utility.yul\":2436:2519   */\n      or\n        /* \"#utility.yul\":2413:2552   */\n      tag_95\n      jumpi\n        /* \"#utility.yul\":2532:2550   */\n      tag_96\n      tag_64\n      jump\t// in\n    tag_96:\n        /* \"#utility.yul\":2413:2552   */\n    tag_95:\n        /* \"#utility.yul\":2197:2559   */\n      pop\n        /* \"#utility.yul\":2149:2559   */\n      swap3\n      swap2\n      pop\n      pop\n      jump\t// out\n        /* \"#utility.yul\":2565:2736   */\n    tag_41:\n        /* \"#utility.yul\":2604:2607   */\n      0x00\n        /* \"#utility.yul\":2627:2651   */\n      tag_98\n        /* \"#utility.yul\":2645:2650   */\n      dup3\n        /* \"#utility.yul\":2627:2651   */\n      tag_57\n      jump\t// in\n    tag_98:\n        /* \"#utility.yul\":2618:2651   */\n      swap2\n      pop\n        /* \"#utility.yul\":2673:2677   */\n      0x00\n        /* \"#utility.yul\":2666:2671   */\n      dup3\n        /* \"#utility.yul\":2663:2678   */\n      sub\n        /* \"#utility.yul\":2660:2701   */\n      tag_99\n      jumpi\n        /* \"#utility.yul\":2681:2699   */\n      tag_100\n      tag_64\n      jump\t// in\n    tag_100:\n        /* \"#utility.yul\":2660:2701   */\n    tag_99:\n        /* \"#utility.yul\":2728:2729   */\n      0x01\n        /* \"#utility.yul\":2721:2726   */\n      dup3\n        /* \"#utility.yul\":2717:2730   */\n      sub\n        /* \"#utility.yul\":2710:2730   */\n      swap1\n      pop\n        /* \"#utility.yul\":2565:2736   */\n      swap2\n      swap1\n      pop\n      jump\t// out\n        /* \"#utility.yul\":2742:2933   */\n    tag_43:\n        /* \"#utility.yul\":2782:2785   */\n      0x00\n        /* \"#utility.yul\":2801:2821   */\n      tag_102\n        /* \"#utility.yul\":2819:2820   */\n      dup3\n        /* \"#utility.yul\":2801:2821   */\n      tag_57\n      jump\t// in\n    tag_102:\n        /* \"#utility.yul\":2796:2821   */\n      swap2\n      pop\n        /* \"#utility.yul\":2835:2855   */\n      tag_103\n        /* \"#utility.yul\":2853:2854   */\n      dup4\n        /* \"#utility.yul\":2835:2855   */\n      tag_57\n      jump\t// in\n    tag_103:\n        /* \"#utility.yul\":2830:2855   */\n      swap3\n      pop\n        /* \"#utility.yul\":2878:2879   */\n      dup3\n        /* \"#utility.yul\":2875:2876   */\n      dup3\n        /* \"#utility.yul\":2871:2880   */\n      add\n        /* \"#utility.yul\":2864:2880   */\n      swap1\n      pop\n        /* \"#utility.yul\":2899:2902   */\n      dup1\n        /* \"#utility.yul\":2896:2897   */\n      dup3\n        /* \"#utility.yul\":2893:2903   */\n      gt\n        /* \"#utility.yul\":2890:2926   */\n      iszero\n      tag_104\n      jumpi\n        /* \"#utility.yul\":2906:2924   */\n      tag_105\n      tag_64\n      jump\t// in\n    tag_105:\n        /* \"#utility.yul\":2890:2926   */\n    tag_104:\n        /* \"#utility.yul\":2742:2933   */\n      swap3\n      swap2\n      pop\n      pop\n      jump\t// out\n        /* \"#utility.yul\":2939:3133   */\n    tag_46:\n        /* \"#utility.yul\":2979:2983   */\n      0x00\n        /* \"#utility.yul\":2999:3019   */\n      tag_107\n        /* \"#utility.yul\":3017:3018   */\n      dup3\n        /* \"#utility.yul\":2999:3019   */\n      tag_57\n      jump\t// in\n    tag_107:\n        /* \"#utility.yul\":2994:3019   */\n      swap2\n      pop\n        /* \"#utility.yul\":3033:3053   */\n      tag_108\n        /* \"#utility.yul\":3051:3052   */\n      dup4\n        /* \"#utility.yul\":3033:3053   */\n      tag_57\n      jump\t// in\n    tag_108:\n        /* \"#utility.yul\":3028:3053   */\n      swap3\n      pop\n        /* \"#utility.yul\":3077:3078   */\n      dup3\n        /* \"#utility.yul\":3074:3075   */\n      dup3\n        /* \"#utility.yul\":3070:3079   */\n      sub\n        /* \"#utility.yul\":3062:3079   */\n      swap1\n      pop\n        /* \"#utility.yul\":3101:3102   */\n      dup2\n        /* \"#utility.yul\":3095:3099   */\n      dup2\n        /* \"#utility.yul\":3092:3103   */\n      gt\n        /* \"#utility.yul\":3089:3126   */\n      iszero\n      tag_109\n      jumpi\n        /* \"#utility.yul\":3106:3124   */\n      tag_110\n      tag_64\n      jump\t// in\n    tag_110:\n        /* \"#utility.yul\":3089:3126   */\n    tag_109:\n        /* \"#utility.yul\":2939:3133   */\n      swap3\n      swap2\n      pop\n      pop\n      jump\t// out\n\n    auxdata: 0xa2646970667358221220cc765fd83e75a06c0a9f2100f4fc469165dcb2e6dcdc7f9707f1f5c0a781bac964736f6c63430008120033\n}\n",
				"bytecode": {
					"linkReferences": {},
					"object": "608060405234801561001057600080fd5b50604051610715380380610715833981810160405281019061003291906100d5565b336000806101000a81548173ffffffffffffffffffffffffffffffffffffffff021916908373ffffffffffffffffffffffffffffffffffffffff160217905550670de0b6b3a7640000826100869190610144565b600181905550806002819055505050610186565b600080fd5b6000819050919050565b6100b28161009f565b81146100bd57600080fd5b50565b6000815190506100cf816100a9565b92915050565b600080604083850312156100ec576100eb61009a565b5b60006100fa858286016100c0565b925050602061010b858286016100c0565b9150509250929050565b7f4e487b7100000000000000000000000000000000000000000000000000000000600052601160045260246000fd5b600061014f8261009f565b915061015a8361009f565b92508282026101688161009f565b9150828204841483151761017f5761017e610115565b5b5092915050565b610580806101956000396000f3fe6080604052600436106100555760003560e01c806307e2632f1461005a5780630f63081a146100765780634085ed7d1461009f578063799cad39146100ca57806386395b58146100f55780638da5cb5b14610120575b600080fd5b610074600480360381019061006f9190610395565b61014b565b005b34801561008257600080fd5b5061009d60048036038101906100989190610395565b6102c6565b005b3480156100ab57600080fd5b506100b46102e3565b6040516100c191906103d1565b60405180910390f35b3480156100d657600080fd5b506100df6102e9565b6040516100ec91906103d1565b60405180910390f35b34801561010157600080fd5b5061010a610330565b60405161011791906103d1565b60405180910390f35b34801561012c57600080fd5b50610135610336565b604051610142919061042d565b60405180910390f35b60025481111561015a57600080fd5b6000811161016757600080fd5b6000600154826101779190610477565b90508034101561018657600080fd5b60026000815480929190610199906104b9565b919050555081600360003373ffffffffffffffffffffffffffffffffffffffff1673ffffffffffffffffffffffffffffffffffffffff16815260200190815260200160002060008282546101ed91906104e2565b9250508190555080341115610255576000813461020a9190610516565b90503373ffffffffffffffffffffffffffffffffffffffff166108fc829081150290604051600060405180830381858888f19350505050158015610252573d6000803e3d6000fd5b50505b600047905060008054906101000a900473ffffffffffffffffffffffffffffffffffffffff1673ffffffffffffffffffffffffffffffffffffffff166108fc829081150290604051600060405180830381858888f193505050501580156102c0573d6000803e3d6000fd5b50505050565b670de0b6b3a7640000816102da9190610477565b60018190555050565b60025481565b6000600360003373ffffffffffffffffffffffffffffffffffffffff1673ffffffffffffffffffffffffffffffffffffffff16815260200190815260200160002054905090565b60015481565b60008054906101000a900473ffffffffffffffffffffffffffffffffffffffff1681565b600080fd5b6000819050919050565b6103728161035f565b811461037d57600080fd5b50565b60008135905061038f81610369565b92915050565b6000602082840312156103ab576103aa61035a565b5b60006103b984828501610380565b91505092915050565b6103cb8161035f565b82525050565b60006020820190506103e660008301846103c2565b92915050565b600073ffffffffffffffffffffffffffffffffffffffff82169050919050565b6000610417826103ec565b9050919050565b6104278161040c565b82525050565b6000602082019050610442600083018461041e565b92915050565b7f4e487b7100000000000000000000000000000000000000000000000000000000600052601160045260246000fd5b60006104828261035f565b915061048d8361035f565b925082820261049b8161035f565b915082820484148315176104b2576104b1610448565b5b5092915050565b60006104c48261035f565b9150600082036104d7576104d6610448565b5b600182039050919050565b60006104ed8261035f565b91506104f88361035f565b92508282019050808211156105105761050f610448565b5b92915050565b60006105218261035f565b915061052c8361035f565b925082820390508181111561054457610543610448565b5b9291505056fea2646970667358221220cc765fd83e75a06c0a9f2100f4fc469165dcb2e6dcdc7f9707f1f5c0a781bac964736f6c63430008120033",
					"opcodes": "PUSH1 0x80 PUSH1 0x40 MSTORE CALLVALUE DUP1 ISZERO PUSH2 0x10 JUMPI PUSH1 0x0 DUP1 REVERT JUMPDEST POP PUSH1 0x40 MLOAD PUSH2 0x715 CODESIZE SUB DUP1 PUSH2 0x715 DUP4 CODECOPY DUP2 DUP2 ADD PUSH1 0x40 MSTORE DUP2 ADD SWAP1 PUSH2 0x32 SWAP2 SWAP1 PUSH2 0xD5 JUMP JUMPDEST CALLER PUSH1 0x0 DUP1 PUSH2 0x100 EXP DUP2 SLOAD DUP2 PUSH20 0xFFFFFFFFFFFFFFFFFFFFFFFFFFFFFFFFFFFFFFFF MUL NOT AND SWAP1 DUP4 PUSH20 0xFFFFFFFFFFFFFFFFFFFFFFFFFFFFFFFFFFFFFFFF AND MUL OR SWAP1 SSTORE POP PUSH8 0xDE0B6B3A7640000 DUP3 PUSH2 0x86 SWAP2 SWAP1 PUSH2 0x144 JUMP JUMPDEST PUSH1 0x1 DUP2 SWAP1 SSTORE POP DUP1 PUSH1 0x2 DUP2 SWAP1 SSTORE POP POP POP PUSH2 0x186 JUMP JUMPDEST PUSH1 0x0 DUP1 REVERT JUMPDEST PUSH1 0x0 DUP2 SWAP1 POP SWAP2 SWAP1 POP JUMP JUMPDEST PUSH2 0xB2 DUP2 PUSH2 0x9F JUMP JUMPDEST DUP2 EQ PUSH2 0xBD JUMPI PUSH1 0x0 DUP1 REVERT JUMPDEST POP JUMP JUMPDEST PUSH1 0x0 DUP2 MLOAD SWAP1 POP PUSH2 0xCF DUP2 PUSH2 0xA9 JUMP JUMPDEST SWAP3 SWAP2 POP POP JUMP JUMPDEST PUSH1 0x0 DUP1 PUSH1 0x40 DUP4 DUP6 SUB SLT ISZERO PUSH2 0xEC JUMPI PUSH2 0xEB PUSH2 0x9A JUMP JUMPDEST JUMPDEST PUSH1 0x0 PUSH2 0xFA DUP6 DUP3 DUP7 ADD PUSH2 0xC0 JUMP JUMPDEST SWAP3 POP POP PUSH1 0x20 PUSH2 0x10B DUP6 DUP3 DUP7 ADD PUSH2 0xC0 JUMP JUMPDEST SWAP2 POP POP SWAP3 POP SWAP3 SWAP1 POP JUMP JUMPDEST PUSH32 0x4E487B7100000000000000000000000000000000000000000000000000000000 PUSH1 0x0 MSTORE PUSH1 0x11 PUSH1 0x4 MSTORE PUSH1 0x24 PUSH1 0x0 REVERT JUMPDEST PUSH1 0x0 PUSH2 0x14F DUP3 PUSH2 0x9F JUMP JUMPDEST SWAP2 POP PUSH2 0x15A DUP4 PUSH2 0x9F JUMP JUMPDEST SWAP3 POP DUP3 DUP3 MUL PUSH2 0x168 DUP2 PUSH2 0x9F JUMP JUMPDEST SWAP2 POP DUP3 DUP3 DIV DUP5 EQ DUP4 ISZERO OR PUSH2 0x17F JUMPI PUSH2 0x17E PUSH2 0x115 JUMP JUMPDEST JUMPDEST POP SWAP3 SWAP2 POP POP JUMP JUMPDEST PUSH2 0x580 DUP1 PUSH2 0x195 PUSH1 0x0 CODECOPY PUSH1 0x0 RETURN INVALID PUSH1 0x80 PUSH1 0x40 MSTORE PUSH1 0x4 CALLDATASIZE LT PUSH2 0x55 JUMPI PUSH1 0x0 CALLDATALOAD PUSH1 0xE0 SHR DUP1 PUSH4 0x7E2632F EQ PUSH2 0x5A JUMPI DUP1 PUSH4 0xF63081A EQ PUSH2 0x76 JUMPI DUP1 PUSH4 0x4085ED7D EQ PUSH2 0x9F JUMPI DUP1 PUSH4 0x799CAD39 EQ PUSH2 0xCA JUMPI DUP1 PUSH4 0x86395B58 EQ PUSH2 0xF5 JUMPI DUP1 PUSH4 0x8DA5CB5B EQ PUSH2 0x120 JUMPI JUMPDEST PUSH1 0x0 DUP1 REVERT JUMPDEST PUSH2 0x74 PUSH1 0x4 DUP1 CALLDATASIZE SUB DUP2 ADD SWAP1 PUSH2 0x6F SWAP2 SWAP1 PUSH2 0x395 JUMP JUMPDEST PUSH2 0x14B JUMP JUMPDEST STOP JUMPDEST CALLVALUE DUP1 ISZERO PUSH2 0x82 JUMPI PUSH1 0x0 DUP1 REVERT JUMPDEST POP PUSH2 0x9D PUSH1 0x4 DUP1 CALLDATASIZE SUB DUP2 ADD SWAP1 PUSH2 0x98 SWAP2 SWAP1 PUSH2 0x395 JUMP JUMPDEST PUSH2 0x2C6 JUMP JUMPDEST STOP JUMPDEST CALLVALUE DUP1 ISZERO PUSH2 0xAB JUMPI PUSH1 0x0 DUP1 REVERT JUMPDEST POP PUSH2 0xB4 PUSH2 0x2E3 JUMP JUMPDEST PUSH1 0x40 MLOAD PUSH2 0xC1 SWAP2 SWAP1 PUSH2 0x3D1 JUMP JUMPDEST PUSH1 0x40 MLOAD DUP1 SWAP2 SUB SWAP1 RETURN JUMPDEST CALLVALUE DUP1 ISZERO PUSH2 0xD6 JUMPI PUSH1 0x0 DUP1 REVERT JUMPDEST POP PUSH2 0xDF PUSH2 0x2E9 JUMP JUMPDEST PUSH1 0x40 MLOAD PUSH2 0xEC SWAP2 SWAP1 PUSH2 0x3D1 JUMP JUMPDEST PUSH1 0x40 MLOAD DUP1 SWAP2 SUB SWAP1 RETURN JUMPDEST CALLVALUE DUP1 ISZERO PUSH2 0x101 JUMPI PUSH1 0x0 DUP1 REVERT JUMPDEST POP PUSH2 0x10A PUSH2 0x330 JUMP JUMPDEST PUSH1 0x40 MLOAD PUSH2 0x117 SWAP2 SWAP1 PUSH2 0x3D1 JUMP JUMPDEST PUSH1 0x40 MLOAD DUP1 SWAP2 SUB SWAP1 RETURN JUMPDEST CALLVALUE DUP1 ISZERO PUSH2 0x12C JUMPI PUSH1 0x0 DUP1 REVERT JUMPDEST POP PUSH2 0x135 PUSH2 0x336 JUMP JUMPDEST PUSH1 0x40 MLOAD PUSH2 0x142 SWAP2 SWAP1 PUSH2 0x42D JUMP JUMPDEST PUSH1 0x40 MLOAD DUP1 SWAP2 SUB SWAP1 RETURN JUMPDEST PUSH1 0x2 SLOAD DUP2 GT ISZERO PUSH2 0x15A JUMPI PUSH1 0x0 DUP1 REVERT JUMPDEST PUSH1 0x0 DUP2 GT PUSH2 0x167 JUMPI PUSH1 0x0 DUP1 REVERT JUMPDEST PUSH1 0x0 PUSH1 0x1 SLOAD DUP3 PUSH2 0x177 SWAP2 SWAP1 PUSH2 0x477 JUMP JUMPDEST SWAP1 POP DUP1 CALLVALUE LT ISZERO PUSH2 0x186 JUMPI PUSH1 0x0 DUP1 REVERT JUMPDEST PUSH1 0x2 PUSH1 0x0 DUP2 SLOAD DUP1 SWAP3 SWAP2 SWAP1 PUSH2 0x199 SWAP1 PUSH2 0x4B9 JUMP JUMPDEST SWAP2 SWAP1 POP SSTORE POP DUP2 PUSH1 0x3 PUSH1 0x0 CALLER PUSH20 0xFFFFFFFFFFFFFFFFFFFFFFFFFFFFFFFFFFFFFFFF AND PUSH20 0xFFFFFFFFFFFFFFFFFFFFFFFFFFFFFFFFFFFFFFFF AND DUP2 MSTORE PUSH1 0x20 ADD SWAP1 DUP2 MSTORE PUSH1 0x20 ADD PUSH1 0x0 KECCAK256 PUSH1 0x0 DUP3 DUP3 SLOAD PUSH2 0x1ED SWAP2 SWAP1 PUSH2 0x4E2 JUMP JUMPDEST SWAP3 POP POP DUP2 SWAP1 SSTORE POP DUP1 CALLVALUE GT ISZERO PUSH2 0x255 JUMPI PUSH1 0x0 DUP2 CALLVALUE PUSH2 0x20A SWAP2 SWAP1 PUSH2 0x516 JUMP JUMPDEST SWAP1 POP CALLER PUSH20 0xFFFFFFFFFFFFFFFFFFFFFFFFFFFFFFFFFFFFFFFF AND PUSH2 0x8FC DUP3 SWAP1 DUP2 ISZERO MUL SWAP1 PUSH1 0x40 MLOAD PUSH1 0x0 PUSH1 0x40 MLOAD DUP1 DUP4 SUB DUP2 DUP6 DUP9 DUP9 CALL SWAP4 POP POP POP POP ISZERO DUP1 ISZERO PUSH2 0x252 JUMPI RETURNDATASIZE PUSH1 0x0 DUP1 RETURNDATACOPY RETURNDATASIZE PUSH1 0x0 REVERT JUMPDEST POP POP JUMPDEST PUSH1 0x0 SELFBALANCE SWAP1 POP PUSH1 0x0 DUP1 SLOAD SWAP1 PUSH2 0x100 EXP SWAP1 DIV PUSH20 0xFFFFFFFFFFFFFFFFFFFFFFFFFFFFFFFFFFFFFFFF AND PUSH20 0xFFFFFFFFFFFFFFFFFFFFFFFFFFFFFFFFFFFFFFFF AND PUSH2 0x8FC DUP3 SWAP1 DUP2 ISZERO MUL SWAP1 PUSH1 0x40 MLOAD PUSH1 0x0 PUSH1 0x40 MLOAD DUP1 DUP4 SUB DUP2 DUP6 DUP9 DUP9 CALL SWAP4 POP POP POP POP ISZERO DUP1 ISZERO PUSH2 0x2C0 JUMPI RETURNDATASIZE PUSH1 0x0 DUP1 RETURNDATACOPY RETURNDATASIZE PUSH1 0x0 REVERT JUMPDEST POP POP POP POP JUMP JUMPDEST PUSH8 0xDE0B6B3A7640000 DUP2 PUSH2 0x2DA SWAP2 SWAP1 PUSH2 0x477 JUMP JUMPDEST PUSH1 0x1 DUP2 SWAP1 SSTORE POP POP JUMP JUMPDEST PUSH1 0x2 SLOAD DUP2 JUMP JUMPDEST PUSH1 0x0 PUSH1 0x3 PUSH1 0x0 CALLER PUSH20 0xFFFFFFFFFFFFFFFFFFFFFFFFFFFFFFFFFFFFFFFF AND PUSH20 0xFFFFFFFFFFFFFFFFFFFFFFFFFFFFFFFFFFFFFFFF AND DUP2 MSTORE PUSH1 0x20 ADD SWAP1 DUP2 MSTORE PUSH1 0x20 ADD PUSH1 0x0 KECCAK256 SLOAD SWAP1 POP SWAP1 JUMP JUMPDEST PUSH1 0x1 SLOAD DUP2 JUMP JUMPDEST PUSH1 0x0 DUP1 SLOAD SWAP1 PUSH2 0x100 EXP SWAP1 DIV PUSH20 0xFFFFFFFFFFFFFFFFFFFFFFFFFFFFFFFFFFFFFFFF AND DUP2 JUMP JUMPDEST PUSH1 0x0 DUP1 REVERT JUMPDEST PUSH1 0x0 DUP2 SWAP1 POP SWAP2 SWAP1 POP JUMP JUMPDEST PUSH2 0x372 DUP2 PUSH2 0x35F JUMP JUMPDEST DUP2 EQ PUSH2 0x37D JUMPI PUSH1 0x0 DUP1 REVERT JUMPDEST POP JUMP JUMPDEST PUSH1 0x0 DUP2 CALLDATALOAD SWAP1 POP PUSH2 0x38F DUP2 PUSH2 0x369 JUMP JUMPDEST SWAP3 SWAP2 POP POP JUMP JUMPDEST PUSH1 0x0 PUSH1 0x20 DUP3 DUP5 SUB SLT ISZERO PUSH2 0x3AB JUMPI PUSH2 0x3AA PUSH2 0x35A JUMP JUMPDEST JUMPDEST PUSH1 0x0 PUSH2 0x3B9 DUP5 DUP3 DUP6 ADD PUSH2 0x380 JUMP JUMPDEST SWAP2 POP POP SWAP3 SWAP2 POP POP JUMP JUMPDEST PUSH2 0x3CB DUP2 PUSH2 0x35F JUMP JUMPDEST DUP3 MSTORE POP POP JUMP JUMPDEST PUSH1 0x0 PUSH1 0x20 DUP3 ADD SWAP1 POP PUSH2 0x3E6 PUSH1 0x0 DUP4 ADD DUP5 PUSH2 0x3C2 JUMP JUMPDEST SWAP3 SWAP2 POP POP JUMP JUMPDEST PUSH1 0x0 PUSH20 0xFFFFFFFFFFFFFFFFFFFFFFFFFFFFFFFFFFFFFFFF DUP3 AND SWAP1 POP SWAP2 SWAP1 POP JUMP JUMPDEST PUSH1 0x0 PUSH2 0x417 DUP3 PUSH2 0x3EC JUMP JUMPDEST SWAP1 POP SWAP2 SWAP1 POP JUMP JUMPDEST PUSH2 0x427 DUP2 PUSH2 0x40C JUMP JUMPDEST DUP3 MSTORE POP POP JUMP JUMPDEST PUSH1 0x0 PUSH1 0x20 DUP3 ADD SWAP1 POP PUSH2 0x442 PUSH1 0x0 DUP4 ADD DUP5 PUSH2 0x41E JUMP JUMPDEST SWAP3 SWAP2 POP POP JUMP JUMPDEST PUSH32 0x4E487B7100000000000000000000000000000000000000000000000000000000 PUSH1 0x0 MSTORE PUSH1 0x11 PUSH1 0x4 MSTORE PUSH1 0x24 PUSH1 0x0 REVERT JUMPDEST PUSH1 0x0 PUSH2 0x482 DUP3 PUSH2 0x35F JUMP JUMPDEST SWAP2 POP PUSH2 0x48D DUP4 PUSH2 0x35F JUMP JUMPDEST SWAP3 POP DUP3 DUP3 MUL PUSH2 0x49B DUP2 PUSH2 0x35F JUMP JUMPDEST SWAP2 POP DUP3 DUP3 DIV DUP5 EQ DUP4 ISZERO OR PUSH2 0x4B2 JUMPI PUSH2 0x4B1 PUSH2 0x448 JUMP JUMPDEST JUMPDEST POP SWAP3 SWAP2 POP POP JUMP JUMPDEST PUSH1 0x0 PUSH2 0x4C4 DUP3 PUSH2 0x35F JUMP JUMPDEST SWAP2 POP PUSH1 0x0 DUP3 SUB PUSH2 0x4D7 JUMPI PUSH2 0x4D6 PUSH2 0x448 JUMP JUMPDEST JUMPDEST PUSH1 0x1 DUP3 SUB SWAP1 POP SWAP2 SWAP1 POP JUMP JUMPDEST PUSH1 0x0 PUSH2 0x4ED DUP3 PUSH2 0x35F JUMP JUMPDEST SWAP2 POP PUSH2 0x4F8 DUP4 PUSH2 0x35F JUMP JUMPDEST SWAP3 POP DUP3 DUP3 ADD SWAP1 POP DUP1 DUP3 GT ISZERO PUSH2 0x510 JUMPI PUSH2 0x50F PUSH2 0x448 JUMP JUMPDEST JUMPDEST SWAP3 SWAP2 POP POP JUMP JUMPDEST PUSH1 0x0 PUSH2 0x521 DUP3 PUSH2 0x35F JUMP JUMPDEST SWAP2 POP PUSH2 0x52C DUP4 PUSH2 0x35F JUMP JUMPDEST SWAP3 POP DUP3 DUP3 SUB SWAP1 POP DUP2 DUP2 GT ISZERO PUSH2 0x544 JUMPI PUSH2 0x543 PUSH2 0x448 JUMP JUMPDEST JUMPDEST SWAP3 SWAP2 POP POP JUMP INVALID LOG2 PUSH5 0x6970667358 0x22 SLT KECCAK256 0xCC PUSH23 0x5FD83E75A06C0A9F2100F4FC469165DCB2E6DCDC7F9707 CALL CREATE2 0xC0 0xA7 DUP2 0xBA 0xC9 PUSH5 0x736F6C6343 STOP ADDMOD SLT STOP CALLER "
				},
				"gasEstimates": {
					"creation": {
						"codeDepositCost": "281600",
						"executionCost": "infinite",
						"totalCost": "infinite"
					},
					"external": {
						"breadInStock()": "2451",
						"breadPrice()": "2495",
						"owner()": "2599",
						"purchaseBread(uint256)": "infinite",
						"setBreadPrice(uint256)": "infinite",
						"showBreads()": "2570"
					}
				},
				"methodIdentifiers": {
					"breadInStock()": "4085ed7d",
					"breadPrice()": "86395b58",
					"owner()": "8da5cb5b",
					"purchaseBread(uint256)": "07e2632f",
					"setBreadPrice(uint256)": "0f63081a",
					"showBreads()": "799cad39"
				}
			},
			"storageLayout": {
				"storage": [
					{
						"astId": 3,
						"contract": "contracts/MarketPlace.sol:MarketPlace",
						"label": "owner",
						"offset": 0,
						"slot": "0",
						"type": "t_address"
					},
					{
						"astId": 5,
						"contract": "contracts/MarketPlace.sol:MarketPlace",
						"label": "breadPrice",
						"offset": 0,
						"slot": "1",
						"type": "t_uint256"
					},
					{
						"astId": 7,
						"contract": "contracts/MarketPlace.sol:MarketPlace",
						"label": "breadInStock",
						"offset": 0,
						"slot": "2",
						"type": "t_uint256"
					},
					{
						"astId": 11,
						"contract": "contracts/MarketPlace.sol:MarketPlace",
						"label": "customerBreads",
						"offset": 0,
						"slot": "3",
						"type": "t_mapping(t_address,t_uint256)"
					}
				],
				"types": {
					"t_address": {
						"encoding": "inplace",
						"label": "address",
						"numberOfBytes": "20"
					},
					"t_mapping(t_address,t_uint256)": {
						"encoding": "mapping",
						"key": "t_address",
						"label": "mapping(address => uint256)",
						"numberOfBytes": "32",
						"value": "t_uint256"
					},
					"t_uint256": {
						"encoding": "inplace",
						"label": "uint256",
						"numberOfBytes": "32"
					}
				}
			},
			"userdoc": {
				"kind": "user",
				"methods": {},
				"version": 1
			}
		}
	}
}