{
	"contracts/Test.sol": {
		"MarketPlace": {
			"abi": [
				{
					"inputs": [],
					"stateMutability": "nonpayable",
					"type": "constructor"
				},
				{
					"inputs": [
						{
							"internalType": "uint256",
							"name": "_inStock",
							"type": "uint256"
						},
						{
							"internalType": "uint256",
							"name": "_price",
							"type": "uint256"
						},
						{
							"internalType": "string",
							"name": "_name",
							"type": "string"
						},
						{
							"internalType": "uint256",
							"name": "_expDate",
							"type": "uint256"
						}
					],
					"name": "addItemsMarket",
					"outputs": [],
					"stateMutability": "nonpayable",
					"type": "function"
				},
				{
					"inputs": [
						{
							"internalType": "uint256",
							"name": "_inStock",
							"type": "uint256"
						},
						{
							"internalType": "uint256",
							"name": "_price",
							"type": "uint256"
						},
						{
							"internalType": "string",
							"name": "_name",
							"type": "string"
						},
						{
							"internalType": "uint256",
							"name": "_expDate",
							"type": "uint256"
						},
						{
							"internalType": "address",
							"name": "_addressSupp",
							"type": "address"
						}
					],
					"name": "addItemsSupplier",
					"outputs": [],
					"stateMutability": "nonpayable",
					"type": "function"
				},
				{
					"inputs": [
						{
							"internalType": "uint256",
							"name": "_idTicket",
							"type": "uint256"
						}
					],
					"name": "approveChangeRole",
					"outputs": [],
					"stateMutability": "nonpayable",
					"type": "function"
				},
				{
					"inputs": [
						{
							"internalType": "enum MarketPlace.Role",
							"name": "_role",
							"type": "uint8"
						}
					],
					"name": "changeRole",
					"outputs": [],
					"stateMutability": "nonpayable",
					"type": "function"
				},
				{
					"inputs": [
						{
							"internalType": "string",
							"name": "_nameRef",
							"type": "string"
						},
						{
							"internalType": "address",
							"name": "_user",
							"type": "address"
						}
					],
					"name": "genRef",
					"outputs": [],
					"stateMutability": "nonpayable",
					"type": "function"
				},
				{
					"inputs": [
						{
							"internalType": "address",
							"name": "_shop",
							"type": "address"
						},
						{
							"internalType": "uint256",
							"name": "_productId",
							"type": "uint256"
						},
						{
							"internalType": "uint256",
							"name": "_amount",
							"type": "uint256"
						}
					],
					"name": "makeDelivery",
					"outputs": [],
					"stateMutability": "nonpayable",
					"type": "function"
				},
				{
					"inputs": [],
					"name": "makeMarket",
					"outputs": [],
					"stateMutability": "nonpayable",
					"type": "function"
				},
				{
					"inputs": [],
					"name": "makeSupplier",
					"outputs": [],
					"stateMutability": "nonpayable",
					"type": "function"
				},
				{
					"inputs": [],
					"name": "makeUser",
					"outputs": [],
					"stateMutability": "nonpayable",
					"type": "function"
				},
				{
					"inputs": [
						{
							"internalType": "address",
							"name": "",
							"type": "address"
						},
						{
							"internalType": "uint256",
							"name": "",
							"type": "uint256"
						}
					],
					"name": "marketProducts",
					"outputs": [
						{
							"internalType": "address",
							"name": "userAddress",
							"type": "address"
						},
						{
							"internalType": "uint256",
							"name": "inStock",
							"type": "uint256"
						},
						{
							"internalType": "uint256",
							"name": "price",
							"type": "uint256"
						},
						{
							"internalType": "string",
							"name": "name",
							"type": "string"
						},
						{
							"internalType": "uint256",
							"name": "expDate",
							"type": "uint256"
						}
					],
					"stateMutability": "view",
					"type": "function"
				},
				{
					"inputs": [],
					"name": "owner",
					"outputs": [
						{
							"internalType": "address",
							"name": "",
							"type": "address"
						}
					],
					"stateMutability": "view",
					"type": "function"
				},
				{
					"inputs": [
						{
							"internalType": "address",
							"name": "_shop",
							"type": "address"
						},
						{
							"internalType": "uint256",
							"name": "_amount",
							"type": "uint256"
						},
						{
							"internalType": "uint256",
							"name": "_id",
							"type": "uint256"
						},
						{
							"internalType": "string",
							"name": "_ref",
							"type": "string"
						}
					],
					"name": "purchase",
					"outputs": [],
					"stateMutability": "payable",
					"type": "function"
				},
				{
					"inputs": [
						{
							"internalType": "uint256",
							"name": "_modulus",
							"type": "uint256"
						}
					],
					"name": "randMod",
					"outputs": [
						{
							"internalType": "uint256",
							"name": "",
							"type": "uint256"
						}
					],
					"stateMutability": "view",
					"type": "function"
				},
				{
					"inputs": [
						{
							"internalType": "string",
							"name": "",
							"type": "string"
						}
					],
					"name": "referrals",
					"outputs": [
						{
							"internalType": "address",
							"name": "",
							"type": "address"
						}
					],
					"stateMutability": "view",
					"type": "function"
				},
				{
					"inputs": [
						{
							"internalType": "address",
							"name": "_shop",
							"type": "address"
						},
						{
							"internalType": "uint256",
							"name": "_productId",
							"type": "uint256"
						},
						{
							"internalType": "uint256",
							"name": "_amount",
							"type": "uint256"
						},
						{
							"internalType": "address",
							"name": "_supplier",
							"type": "address"
						}
					],
					"name": "refillStore",
					"outputs": [],
					"stateMutability": "payable",
					"type": "function"
				},
				{
					"inputs": [
						{
							"internalType": "address",
							"name": "_shop",
							"type": "address"
						},
						{
							"internalType": "uint256",
							"name": "_productId",
							"type": "uint256"
						}
					],
					"name": "refund",
					"outputs": [],
					"stateMutability": "nonpayable",
					"type": "function"
				},
				{
					"inputs": [
						{
							"internalType": "address",
							"name": "",
							"type": "address"
						},
						{
							"internalType": "uint256",
							"name": "",
							"type": "uint256"
						}
					],
					"name": "supplierProducts",
					"outputs": [
						{
							"internalType": "address",
							"name": "userAddress",
							"type": "address"
						},
						{
							"internalType": "uint256",
							"name": "inStock",
							"type": "uint256"
						},
						{
							"internalType": "uint256",
							"name": "price",
							"type": "uint256"
						},
						{
							"internalType": "string",
							"name": "name",
							"type": "string"
						},
						{
							"internalType": "uint256",
							"name": "expDate",
							"type": "uint256"
						}
					],
					"stateMutability": "view",
					"type": "function"
				},
				{
					"inputs": [
						{
							"internalType": "uint256",
							"name": "",
							"type": "uint256"
						}
					],
					"name": "tickets",
					"outputs": [
						{
							"internalType": "address",
							"name": "userAddr",
							"type": "address"
						},
						{
							"internalType": "enum MarketPlace.Role",
							"name": "role",
							"type": "uint8"
						}
					],
					"stateMutability": "view",
					"type": "function"
				},
				{
					"inputs": [
						{
							"internalType": "string",
							"name": "input",
							"type": "string"
						}
					],
					"name": "toUpper",
					"outputs": [
						{
							"internalType": "string",
							"name": "",
							"type": "string"
						}
					],
					"stateMutability": "pure",
					"type": "function"
				},
				{
					"inputs": [
						{
							"internalType": "address",
							"name": "",
							"type": "address"
						},
						{
							"internalType": "uint256",
							"name": "",
							"type": "uint256"
						}
					],
					"name": "userProducts",
					"outputs": [
						{
							"internalType": "address",
							"name": "userAddress",
							"type": "address"
						},
						{
							"internalType": "uint256",
							"name": "inStock",
							"type": "uint256"
						},
						{
							"internalType": "uint256",
							"name": "price",
							"type": "uint256"
						},
						{
							"internalType": "string",
							"name": "name",
							"type": "string"
						},
						{
							"internalType": "uint256",
							"name": "expDate",
							"type": "uint256"
						}
					],
					"stateMutability": "view",
					"type": "function"
				},
				{
					"inputs": [
						{
							"internalType": "address",
							"name": "",
							"type": "address"
						}
					],
					"name": "users",
					"outputs": [
						{
							"internalType": "enum MarketPlace.Role",
							"name": "role",
							"type": "uint8"
						},
						{
							"internalType": "uint256",
							"name": "balance",
							"type": "uint256"
						}
					],
					"stateMutability": "view",
					"type": "function"
				},
				{
					"inputs": [
						{
							"internalType": "address",
							"name": "_shop",
							"type": "address"
						}
					],
					"name": "withdrawBal",
					"outputs": [],
					"stateMutability": "nonpayable",
					"type": "function"
				}
			],
			"devdoc": {
				"kind": "dev",
				"methods": {},
				"version": 1
			},
			"evm": {
				"assembly": "    /* \"contracts/Test.sol\":60:8141  contract MarketPlace {... */\n  mstore(0x40, 0x80)\n    /* \"contracts/Test.sol\":249:298  constructor() {... */\n  callvalue\n  dup1\n  iszero\n  tag_1\n  jumpi\n  0x00\n  dup1\n  revert\ntag_1:\n  pop\n    /* \"contracts/Test.sol\":281:291  msg.sender */\n  caller\n    /* \"contracts/Test.sol\":273:278  owner */\n  0x01\n  0x00\n    /* \"contracts/Test.sol\":273:291  owner = msg.sender */\n  0x0100\n  exp\n  dup2\n  sload\n  dup2\n  0xffffffffffffffffffffffffffffffffffffffff\n  mul\n  not\n  and\n  swap1\n  dup4\n  0xffffffffffffffffffffffffffffffffffffffff\n  and\n  mul\n  or\n  swap1\n  sstore\n  pop\n    /* \"contracts/Test.sol\":60:8141  contract MarketPlace {... */\n  dataSize(sub_0)\n  dup1\n  dataOffset(sub_0)\n  0x00\n  codecopy\n  0x00\n  return\nstop\n\nsub_0: assembly {\n        /* \"contracts/Test.sol\":60:8141  contract MarketPlace {... */\n      mstore(0x40, 0x80)\n      jumpi(tag_1, lt(calldatasize, 0x04))\n      shr(0xe0, calldataload(0x00))\n      dup1\n      0x7555bf10\n      gt\n      tag_24\n      jumpi\n      dup1\n      0xa1ba90b6\n      gt\n      tag_25\n      jumpi\n      dup1\n      0xa1ba90b6\n      eq\n      tag_18\n      jumpi\n      dup1\n      0xa87430ba\n      eq\n      tag_19\n      jumpi\n      dup1\n      0xd18a524a\n      eq\n      tag_20\n      jumpi\n      dup1\n      0xd55768dd\n      eq\n      tag_21\n      jumpi\n      dup1\n      0xf67a2ad1\n      eq\n      tag_22\n      jumpi\n      dup1\n      0xfecd8f79\n      eq\n      tag_23\n      jumpi\n      jump(tag_1)\n    tag_25:\n      dup1\n      0x7555bf10\n      eq\n      tag_13\n      jumpi\n      dup1\n      0x805553e8\n      eq\n      tag_14\n      jumpi\n      dup1\n      0x861c2b6d\n      eq\n      tag_15\n      jumpi\n      dup1\n      0x8da5cb5b\n      eq\n      tag_16\n      jumpi\n      dup1\n      0x9f1cd587\n      eq\n      tag_17\n      jumpi\n      jump(tag_1)\n    tag_24:\n      dup1\n      0x4f424547\n      gt\n      tag_26\n      jumpi\n      dup1\n      0x4f424547\n      eq\n      tag_7\n      jumpi\n      dup1\n      0x50b44712\n      eq\n      tag_8\n      jumpi\n      dup1\n      0x55dea0b3\n      eq\n      tag_9\n      jumpi\n      dup1\n      0x62dd748c\n      eq\n      tag_10\n      jumpi\n      dup1\n      0x66d0dc67\n      eq\n      tag_11\n      jumpi\n      dup1\n      0x6f764708\n      eq\n      tag_12\n      jumpi\n      jump(tag_1)\n    tag_26:\n      dup1\n      0x8de16a\n      eq\n      tag_2\n      jumpi\n      dup1\n      0x27b90b1b\n      eq\n      tag_3\n      jumpi\n      dup1\n      0x3d527883\n      eq\n      tag_4\n      jumpi\n      dup1\n      0x3dfe7dee\n      eq\n      tag_5\n      jumpi\n      dup1\n      0x410085df\n      eq\n      tag_6\n      jumpi\n    tag_1:\n      0x00\n      dup1\n      revert\n        /* \"contracts/Test.sol\":4297:4538  function addItemsMarket(uint _inStock, uint _price, string calldata _name, uint _expDate) public {... */\n    tag_2:\n      callvalue\n      dup1\n      iszero\n      tag_27\n      jumpi\n      0x00\n      dup1\n      revert\n    tag_27:\n      pop\n      tag_28\n      0x04\n      dup1\n      calldatasize\n      sub\n      dup2\n      add\n      swap1\n      tag_29\n      swap2\n      swap1\n      tag_30\n      jump\t// in\n    tag_29:\n      tag_31\n      jump\t// in\n    tag_28:\n      stop\n        /* \"contracts/Test.sol\":1007:1060  mapping(address => Product[]) public supplierProducts */\n    tag_3:\n      callvalue\n      dup1\n      iszero\n      tag_32\n      jumpi\n      0x00\n      dup1\n      revert\n    tag_32:\n      pop\n      tag_33\n      0x04\n      dup1\n      calldatasize\n      sub\n      dup2\n      add\n      swap1\n      tag_34\n      swap2\n      swap1\n      tag_35\n      jump\t// in\n    tag_34:\n      tag_36\n      jump\t// in\n    tag_33:\n      mload(0x40)\n      tag_37\n      swap6\n      swap5\n      swap4\n      swap3\n      swap2\n      swap1\n      tag_38\n      jump\t// in\n    tag_37:\n      mload(0x40)\n      dup1\n      swap2\n      sub\n      swap1\n      return\n        /* \"contracts/Test.sol\":895:944  mapping(address => Product[]) public userProducts */\n    tag_4:\n      callvalue\n      dup1\n      iszero\n      tag_39\n      jumpi\n      0x00\n      dup1\n      revert\n    tag_39:\n      pop\n      tag_40\n      0x04\n      dup1\n      calldatasize\n      sub\n      dup2\n      add\n      swap1\n      tag_41\n      swap2\n      swap1\n      tag_35\n      jump\t// in\n    tag_41:\n      tag_42\n      jump\t// in\n    tag_40:\n      mload(0x40)\n      tag_43\n      swap6\n      swap5\n      swap4\n      swap3\n      swap2\n      swap1\n      tag_38\n      jump\t// in\n    tag_43:\n      mload(0x40)\n      dup1\n      swap2\n      sub\n      swap1\n      return\n        /* \"contracts/Test.sol\":1839:1929  function makeSupplier() public {... */\n    tag_5:\n      callvalue\n      dup1\n      iszero\n      tag_44\n      jumpi\n      0x00\n      dup1\n      revert\n    tag_44:\n      pop\n      tag_45\n      tag_46\n      jump\t// in\n    tag_45:\n      stop\n        /* \"contracts/Test.sol\":5883:6426  function refund(address _shop, uint _productId) public {... */\n    tag_6:\n      callvalue\n      dup1\n      iszero\n      tag_47\n      jumpi\n      0x00\n      dup1\n      revert\n    tag_47:\n      pop\n      tag_48\n      0x04\n      dup1\n      calldatasize\n      sub\n      dup2\n      add\n      swap1\n      tag_49\n      swap2\n      swap1\n      tag_35\n      jump\t// in\n    tag_49:\n      tag_50\n      jump\t// in\n    tag_48:\n      stop\n        /* \"contracts/Test.sol\":950:1001  mapping(address => Product[]) public marketProducts */\n    tag_7:\n      callvalue\n      dup1\n      iszero\n      tag_51\n      jumpi\n      0x00\n      dup1\n      revert\n    tag_51:\n      pop\n      tag_52\n      0x04\n      dup1\n      calldatasize\n      sub\n      dup2\n      add\n      swap1\n      tag_53\n      swap2\n      swap1\n      tag_35\n      jump\t// in\n    tag_53:\n      tag_54\n      jump\t// in\n    tag_52:\n      mload(0x40)\n      tag_55\n      swap6\n      swap5\n      swap4\n      swap3\n      swap2\n      swap1\n      tag_38\n      jump\t// in\n    tag_55:\n      mload(0x40)\n      dup1\n      swap2\n      sub\n      swap1\n      return\n        /* \"contracts/Test.sol\":193:216  Ticket[] public tickets */\n    tag_8:\n      callvalue\n      dup1\n      iszero\n      tag_56\n      jumpi\n      0x00\n      dup1\n      revert\n    tag_56:\n      pop\n      tag_57\n      0x04\n      dup1\n      calldatasize\n      sub\n      dup2\n      add\n      swap1\n      tag_58\n      swap2\n      swap1\n      tag_59\n      jump\t// in\n    tag_58:\n      tag_60\n      jump\t// in\n    tag_57:\n      mload(0x40)\n      tag_61\n      swap3\n      swap2\n      swap1\n      tag_62\n      jump\t// in\n    tag_61:\n      mload(0x40)\n      dup1\n      swap2\n      sub\n      swap1\n      return\n        /* \"contracts/Test.sol\":2324:2419  function changeRole(Role _role) public {... */\n    tag_9:\n      callvalue\n      dup1\n      iszero\n      tag_63\n      jumpi\n      0x00\n      dup1\n      revert\n    tag_63:\n      pop\n      tag_64\n      0x04\n      dup1\n      calldatasize\n      sub\n      dup2\n      add\n      swap1\n      tag_65\n      swap2\n      swap1\n      tag_66\n      jump\t// in\n    tag_65:\n      tag_67\n      jump\t// in\n    tag_64:\n      stop\n        /* \"contracts/Test.sol\":2643:3219  function toUpper(string memory input) public pure returns (string memory) {... */\n    tag_10:\n      callvalue\n      dup1\n      iszero\n      tag_68\n      jumpi\n      0x00\n      dup1\n      revert\n    tag_68:\n      pop\n      tag_69\n      0x04\n      dup1\n      calldatasize\n      sub\n      dup2\n      add\n      swap1\n      tag_70\n      swap2\n      swap1\n      tag_71\n      jump\t// in\n    tag_70:\n      tag_72\n      jump\t// in\n    tag_69:\n      mload(0x40)\n      tag_73\n      swap2\n      swap1\n      tag_74\n      jump\t// in\n    tag_73:\n      mload(0x40)\n      dup1\n      swap2\n      sub\n      swap1\n      return\n        /* \"contracts/Test.sol\":1935:2022  function makeMarket() public  {... */\n    tag_11:\n      callvalue\n      dup1\n      iszero\n      tag_75\n      jumpi\n      0x00\n      dup1\n      revert\n    tag_75:\n      pop\n      tag_76\n      tag_77\n      jump\t// in\n    tag_76:\n      stop\n        /* \"contracts/Test.sol\":2028:2318  function approveChangeRole(uint _idTicket) public OnlyOwner {... */\n    tag_12:\n      callvalue\n      dup1\n      iszero\n      tag_78\n      jumpi\n      0x00\n      dup1\n      revert\n    tag_78:\n      pop\n      tag_79\n      0x04\n      dup1\n      calldatasize\n      sub\n      dup2\n      add\n      swap1\n      tag_80\n      swap2\n      swap1\n      tag_59\n      jump\t// in\n    tag_80:\n      tag_81\n      jump\t// in\n    tag_79:\n      stop\n        /* \"contracts/Test.sol\":3376:3971  function makeDelivery(address _shop, uint _productId, uint _amount) public {... */\n    tag_13:\n      callvalue\n      dup1\n      iszero\n      tag_82\n      jumpi\n      0x00\n      dup1\n      revert\n    tag_82:\n      pop\n      tag_83\n      0x04\n      dup1\n      calldatasize\n      sub\n      dup2\n      add\n      swap1\n      tag_84\n      swap2\n      swap1\n      tag_85\n      jump\t// in\n    tag_84:\n      tag_86\n      jump\t// in\n    tag_83:\n      stop\n        /* \"contracts/Test.sol\":2425:2637  function randMod(uint _modulus) public view returns(uint) {   ... */\n    tag_14:\n      callvalue\n      dup1\n      iszero\n      tag_87\n      jumpi\n      0x00\n      dup1\n      revert\n    tag_87:\n      pop\n      tag_88\n      0x04\n      dup1\n      calldatasize\n      sub\n      dup2\n      add\n      swap1\n      tag_89\n      swap2\n      swap1\n      tag_59\n      jump\t// in\n    tag_89:\n      tag_90\n      jump\t// in\n    tag_88:\n      mload(0x40)\n      tag_91\n      swap2\n      swap1\n      tag_92\n      jump\t// in\n    tag_91:\n      mload(0x40)\n      dup1\n      swap2\n      sub\n      swap1\n      return\n        /* \"contracts/Test.sol\":3977:4291  function addItemsSupplier(uint _inStock, uint _price, string calldata _name, uint _expDate, address _addressSupp) public AccessControl(Role.Supplier, _addressSupp) {... */\n    tag_15:\n      callvalue\n      dup1\n      iszero\n      tag_93\n      jumpi\n      0x00\n      dup1\n      revert\n    tag_93:\n      pop\n      tag_94\n      0x04\n      dup1\n      calldatasize\n      sub\n      dup2\n      add\n      swap1\n      tag_95\n      swap2\n      swap1\n      tag_96\n      jump\t// in\n    tag_95:\n      tag_97\n      jump\t// in\n    tag_94:\n      stop\n        /* \"contracts/Test.sol\":222:242  address public owner */\n    tag_16:\n      callvalue\n      dup1\n      iszero\n      tag_98\n      jumpi\n      0x00\n      dup1\n      revert\n    tag_98:\n      pop\n      tag_99\n      tag_100\n      jump\t// in\n    tag_99:\n      mload(0x40)\n      tag_101\n      swap2\n      swap1\n      tag_102\n      jump\t// in\n    tag_101:\n      mload(0x40)\n      dup1\n      swap2\n      sub\n      swap1\n      return\n        /* \"contracts/Test.sol\":6432:8028  function purchase(address _shop, uint _amount, uint _id, string memory _ref ) public payable {... */\n    tag_17:\n      tag_103\n      0x04\n      dup1\n      calldatasize\n      sub\n      dup2\n      add\n      swap1\n      tag_104\n      swap2\n      swap1\n      tag_105\n      jump\t// in\n    tag_104:\n      tag_106\n      jump\t// in\n    tag_103:\n      stop\n        /* \"contracts/Test.sol\":3225:3369  function genRef(string memory _nameRef, address _user) public {... */\n    tag_18:\n      callvalue\n      dup1\n      iszero\n      tag_107\n      jumpi\n      0x00\n      dup1\n      revert\n    tag_107:\n      pop\n      tag_108\n      0x04\n      dup1\n      calldatasize\n      sub\n      dup2\n      add\n      swap1\n      tag_109\n      swap2\n      swap1\n      tag_110\n      jump\t// in\n    tag_109:\n      tag_111\n      jump\t// in\n    tag_108:\n      stop\n        /* \"contracts/Test.sol\":852:889  mapping(address => User) public users */\n    tag_19:\n      callvalue\n      dup1\n      iszero\n      tag_112\n      jumpi\n      0x00\n      dup1\n      revert\n    tag_112:\n      pop\n      tag_113\n      0x04\n      dup1\n      calldatasize\n      sub\n      dup2\n      add\n      swap1\n      tag_114\n      swap2\n      swap1\n      tag_115\n      jump\t// in\n    tag_114:\n      tag_116\n      jump\t// in\n    tag_113:\n      mload(0x40)\n      tag_117\n      swap3\n      swap2\n      swap1\n      tag_118\n      jump\t// in\n    tag_117:\n      mload(0x40)\n      dup1\n      swap2\n      sub\n      swap1\n      return\n        /* \"contracts/Test.sol\":1751:1833  function makeUser() public {... */\n    tag_20:\n      callvalue\n      dup1\n      iszero\n      tag_119\n      jumpi\n      0x00\n      dup1\n      revert\n    tag_119:\n      pop\n      tag_120\n      tag_121\n      jump\t// in\n    tag_120:\n      stop\n        /* \"contracts/Test.sol\":1066:1109  mapping(string => address) public referrals */\n    tag_21:\n      callvalue\n      dup1\n      iszero\n      tag_122\n      jumpi\n      0x00\n      dup1\n      revert\n    tag_122:\n      pop\n      tag_123\n      0x04\n      dup1\n      calldatasize\n      sub\n      dup2\n      add\n      swap1\n      tag_124\n      swap2\n      swap1\n      tag_71\n      jump\t// in\n    tag_124:\n      tag_125\n      jump\t// in\n    tag_123:\n      mload(0x40)\n      tag_126\n      swap2\n      swap1\n      tag_102\n      jump\t// in\n    tag_126:\n      mload(0x40)\n      dup1\n      swap2\n      sub\n      swap1\n      return\n        /* \"contracts/Test.sol\":8034:8139  function withdrawBal(address _shop) public {... */\n    tag_22:\n      callvalue\n      dup1\n      iszero\n      tag_127\n      jumpi\n      0x00\n      dup1\n      revert\n    tag_127:\n      pop\n      tag_128\n      0x04\n      dup1\n      calldatasize\n      sub\n      dup2\n      add\n      swap1\n      tag_129\n      swap2\n      swap1\n      tag_115\n      jump\t// in\n    tag_129:\n      tag_130\n      jump\t// in\n    tag_128:\n      stop\n        /* \"contracts/Test.sol\":4549:5877  function refillStore(address _shop, uint _productId, uint _amount, address _supplier) public payable AccessControl(Role.Market, _shop) {... */\n    tag_23:\n      tag_131\n      0x04\n      dup1\n      calldatasize\n      sub\n      dup2\n      add\n      swap1\n      tag_132\n      swap2\n      swap1\n      tag_133\n      jump\t// in\n    tag_132:\n      tag_134\n      jump\t// in\n    tag_131:\n      stop\n        /* \"contracts/Test.sol\":4297:4538  function addItemsMarket(uint _inStock, uint _price, string calldata _name, uint _expDate) public {... */\n    tag_31:\n        /* \"contracts/Test.sol\":4404:4423  Product memory item */\n      0x00\n        /* \"contracts/Test.sol\":4426:4484  Product(msg.sender, _inStock, _price / 2, _name, _expDate) */\n      mload(0x40)\n      dup1\n      0xa0\n      add\n      0x40\n      mstore\n      dup1\n        /* \"contracts/Test.sol\":4434:4444  msg.sender */\n      caller\n        /* \"contracts/Test.sol\":4426:4484  Product(msg.sender, _inStock, _price / 2, _name, _expDate) */\n      0xffffffffffffffffffffffffffffffffffffffff\n      and\n      dup2\n      mstore\n      0x20\n      add\n        /* \"contracts/Test.sol\":4446:4454  _inStock */\n      dup8\n        /* \"contracts/Test.sol\":4426:4484  Product(msg.sender, _inStock, _price / 2, _name, _expDate) */\n      dup2\n      mstore\n      0x20\n      add\n        /* \"contracts/Test.sol\":4465:4466  2 */\n      0x02\n        /* \"contracts/Test.sol\":4456:4462  _price */\n      dup8\n        /* \"contracts/Test.sol\":4456:4466  _price / 2 */\n      tag_136\n      swap2\n      swap1\n      tag_137\n      jump\t// in\n    tag_136:\n        /* \"contracts/Test.sol\":4426:4484  Product(msg.sender, _inStock, _price / 2, _name, _expDate) */\n      dup2\n      mstore\n      0x20\n      add\n        /* \"contracts/Test.sol\":4468:4473  _name */\n      dup6\n      dup6\n        /* \"contracts/Test.sol\":4426:4484  Product(msg.sender, _inStock, _price / 2, _name, _expDate) */\n      dup1\n      dup1\n      0x1f\n      add\n      0x20\n      dup1\n      swap2\n      div\n      mul\n      0x20\n      add\n      mload(0x40)\n      swap1\n      dup2\n      add\n      0x40\n      mstore\n      dup1\n      swap4\n      swap3\n      swap2\n      swap1\n      dup2\n      dup2\n      mstore\n      0x20\n      add\n      dup4\n      dup4\n      dup1\n      dup3\n      dup5\n      calldatacopy\n      0x00\n      dup2\n      dup5\n      add\n      mstore\n      not(0x1f)\n      0x1f\n      dup3\n      add\n      and\n      swap1\n      pop\n      dup1\n      dup4\n      add\n      swap3\n      pop\n      pop\n      pop\n      pop\n      pop\n      pop\n      pop\n      dup2\n      mstore\n      0x20\n      add\n        /* \"contracts/Test.sol\":4475:4483  _expDate */\n      dup4\n        /* \"contracts/Test.sol\":4426:4484  Product(msg.sender, _inStock, _price / 2, _name, _expDate) */\n      dup2\n      mstore\n      pop\n        /* \"contracts/Test.sol\":4404:4484  Product memory item = Product(msg.sender, _inStock, _price / 2, _name, _expDate) */\n      swap1\n      pop\n        /* \"contracts/Test.sol\":4494:4508  marketProducts */\n      0x04\n        /* \"contracts/Test.sol\":4494:4520  marketProducts[msg.sender] */\n      0x00\n        /* \"contracts/Test.sol\":4509:4519  msg.sender */\n      caller\n        /* \"contracts/Test.sol\":4494:4520  marketProducts[msg.sender] */\n      0xffffffffffffffffffffffffffffffffffffffff\n      and\n      0xffffffffffffffffffffffffffffffffffffffff\n      and\n      dup2\n      mstore\n      0x20\n      add\n      swap1\n      dup2\n      mstore\n      0x20\n      add\n      0x00\n      keccak256\n        /* \"contracts/Test.sol\":4526:4530  item */\n      dup2\n        /* \"contracts/Test.sol\":4494:4531  marketProducts[msg.sender].push(item) */\n      swap1\n      dup1\n      0x01\n      dup2\n      sload\n      add\n      dup1\n      dup3\n      sstore\n      dup1\n      swap2\n      pop\n      pop\n      0x01\n      swap1\n      sub\n      swap1\n      0x00\n      mstore\n      keccak256(0x00, 0x20)\n      swap1\n      0x05\n      mul\n      add\n      0x00\n      swap1\n      swap2\n      swap1\n      swap2\n      swap1\n      swap2\n      pop\n      0x00\n      dup3\n      add\n      mload\n      dup2\n      0x00\n      add\n      exp(0x0100, 0x00)\n      dup2\n      sload\n      dup2\n      0xffffffffffffffffffffffffffffffffffffffff\n      mul\n      not\n      and\n      swap1\n      dup4\n      0xffffffffffffffffffffffffffffffffffffffff\n      and\n      mul\n      or\n      swap1\n      sstore\n      pop\n      0x20\n      dup3\n      add\n      mload\n      dup2\n      0x01\n      add\n      sstore\n      0x40\n      dup3\n      add\n      mload\n      dup2\n      0x02\n      add\n      sstore\n      0x60\n      dup3\n      add\n      mload\n      dup2\n      0x03\n      add\n      swap1\n      dup2\n      tag_139\n      swap2\n      swap1\n      tag_140\n      jump\t// in\n    tag_139:\n      pop\n      0x80\n      dup3\n      add\n      mload\n      dup2\n      0x04\n      add\n      sstore\n      pop\n      pop\n        /* \"contracts/Test.sol\":4394:4538  {... */\n      pop\n        /* \"contracts/Test.sol\":4297:4538  function addItemsMarket(uint _inStock, uint _price, string calldata _name, uint _expDate) public {... */\n      pop\n      pop\n      pop\n      pop\n      pop\n      jump\t// out\n        /* \"contracts/Test.sol\":1007:1060  mapping(address => Product[]) public supplierProducts */\n    tag_36:\n      mstore(0x20, 0x05)\n      dup2\n      0x00\n      mstore\n      keccak256(0x00, 0x40)\n      dup2\n      dup2\n      sload\n      dup2\n      lt\n      tag_141\n      jumpi\n      0x00\n      dup1\n      revert\n    tag_141:\n      swap1\n      0x00\n      mstore\n      keccak256(0x00, 0x20)\n      swap1\n      0x05\n      mul\n      add\n      0x00\n      swap2\n      pop\n      swap2\n      pop\n      pop\n      dup1\n      0x00\n      add\n      0x00\n      swap1\n      sload\n      swap1\n      0x0100\n      exp\n      swap1\n      div\n      0xffffffffffffffffffffffffffffffffffffffff\n      and\n      swap1\n      dup1\n      0x01\n      add\n      sload\n      swap1\n      dup1\n      0x02\n      add\n      sload\n      swap1\n      dup1\n      0x03\n      add\n      dup1\n      sload\n      tag_143\n      swap1\n      tag_144\n      jump\t// in\n    tag_143:\n      dup1\n      0x1f\n      add\n      0x20\n      dup1\n      swap2\n      div\n      mul\n      0x20\n      add\n      mload(0x40)\n      swap1\n      dup2\n      add\n      0x40\n      mstore\n      dup1\n      swap3\n      swap2\n      swap1\n      dup2\n      dup2\n      mstore\n      0x20\n      add\n      dup3\n      dup1\n      sload\n      tag_145\n      swap1\n      tag_144\n      jump\t// in\n    tag_145:\n      dup1\n      iszero\n      tag_146\n      jumpi\n      dup1\n      0x1f\n      lt\n      tag_147\n      jumpi\n      0x0100\n      dup1\n      dup4\n      sload\n      div\n      mul\n      dup4\n      mstore\n      swap2\n      0x20\n      add\n      swap2\n      jump(tag_146)\n    tag_147:\n      dup3\n      add\n      swap2\n      swap1\n      0x00\n      mstore\n      keccak256(0x00, 0x20)\n      swap1\n    tag_148:\n      dup2\n      sload\n      dup2\n      mstore\n      swap1\n      0x01\n      add\n      swap1\n      0x20\n      add\n      dup1\n      dup4\n      gt\n      tag_148\n      jumpi\n      dup3\n      swap1\n      sub\n      0x1f\n      and\n      dup3\n      add\n      swap2\n    tag_146:\n      pop\n      pop\n      pop\n      pop\n      pop\n      swap1\n      dup1\n      0x04\n      add\n      sload\n      swap1\n      pop\n      dup6\n      jump\t// out\n        /* \"contracts/Test.sol\":895:944  mapping(address => Product[]) public userProducts */\n    tag_42:\n      mstore(0x20, 0x03)\n      dup2\n      0x00\n      mstore\n      keccak256(0x00, 0x40)\n      dup2\n      dup2\n      sload\n      dup2\n      lt\n      tag_149\n      jumpi\n      0x00\n      dup1\n      revert\n    tag_149:\n      swap1\n      0x00\n      mstore\n      keccak256(0x00, 0x20)\n      swap1\n      0x05\n      mul\n      add\n      0x00\n      swap2\n      pop\n      swap2\n      pop\n      pop\n      dup1\n      0x00\n      add\n      0x00\n      swap1\n      sload\n      swap1\n      0x0100\n      exp\n      swap1\n      div\n      0xffffffffffffffffffffffffffffffffffffffff\n      and\n      swap1\n      dup1\n      0x01\n      add\n      sload\n      swap1\n      dup1\n      0x02\n      add\n      sload\n      swap1\n      dup1\n      0x03\n      add\n      dup1\n      sload\n      tag_151\n      swap1\n      tag_144\n      jump\t// in\n    tag_151:\n      dup1\n      0x1f\n      add\n      0x20\n      dup1\n      swap2\n      div\n      mul\n      0x20\n      add\n      mload(0x40)\n      swap1\n      dup2\n      add\n      0x40\n      mstore\n      dup1\n      swap3\n      swap2\n      swap1\n      dup2\n      dup2\n      mstore\n      0x20\n      add\n      dup3\n      dup1\n      sload\n      tag_152\n      swap1\n      tag_144\n      jump\t// in\n    tag_152:\n      dup1\n      iszero\n      tag_153\n      jumpi\n      dup1\n      0x1f\n      lt\n      tag_154\n      jumpi\n      0x0100\n      dup1\n      dup4\n      sload\n      div\n      mul\n      dup4\n      mstore\n      swap2\n      0x20\n      add\n      swap2\n      jump(tag_153)\n    tag_154:\n      dup3\n      add\n      swap2\n      swap1\n      0x00\n      mstore\n      keccak256(0x00, 0x20)\n      swap1\n    tag_155:\n      dup2\n      sload\n      dup2\n      mstore\n      swap1\n      0x01\n      add\n      swap1\n      0x20\n      add\n      dup1\n      dup4\n      gt\n      tag_155\n      jumpi\n      dup3\n      swap1\n      sub\n      0x1f\n      and\n      dup3\n      add\n      swap2\n    tag_153:\n      pop\n      pop\n      pop\n      pop\n      pop\n      swap1\n      dup1\n      0x04\n      add\n      sload\n      swap1\n      pop\n      dup6\n      jump\t// out\n        /* \"contracts/Test.sol\":1839:1929  function makeSupplier() public {... */\n    tag_46:\n        /* \"contracts/Test.sol\":1900:1922  User(Role.Supplier, 0) */\n      mload(0x40)\n      dup1\n      0x40\n      add\n      0x40\n      mstore\n      dup1\n        /* \"contracts/Test.sol\":1905:1918  Role.Supplier */\n      0x02\n        /* \"contracts/Test.sol\":1900:1922  User(Role.Supplier, 0) */\n      dup1\n      dup2\n      gt\n      iszero\n      tag_157\n      jumpi\n      tag_158\n      tag_159\n      jump\t// in\n    tag_158:\n    tag_157:\n      dup2\n      mstore\n      0x20\n      add\n        /* \"contracts/Test.sol\":1920:1921  0 */\n      0x00\n        /* \"contracts/Test.sol\":1900:1922  User(Role.Supplier, 0) */\n      dup2\n      mstore\n      pop\n        /* \"contracts/Test.sol\":1880:1885  users */\n      0x02\n        /* \"contracts/Test.sol\":1880:1897  users[msg.sender] */\n      0x00\n        /* \"contracts/Test.sol\":1886:1896  msg.sender */\n      caller\n        /* \"contracts/Test.sol\":1880:1897  users[msg.sender] */\n      0xffffffffffffffffffffffffffffffffffffffff\n      and\n      0xffffffffffffffffffffffffffffffffffffffff\n      and\n      dup2\n      mstore\n      0x20\n      add\n      swap1\n      dup2\n      mstore\n      0x20\n      add\n      0x00\n      keccak256\n        /* \"contracts/Test.sol\":1880:1922  users[msg.sender] = User(Role.Supplier, 0) */\n      0x00\n      dup3\n      add\n      mload\n      dup2\n      0x00\n      add\n      exp(0x0100, 0x00)\n      dup2\n      sload\n      dup2\n      0xff\n      mul\n      not\n      and\n      swap1\n      dup4\n      0x02\n      dup2\n      gt\n      iszero\n      tag_160\n      jumpi\n      tag_161\n      tag_159\n      jump\t// in\n    tag_161:\n    tag_160:\n      mul\n      or\n      swap1\n      sstore\n      pop\n      0x20\n      dup3\n      add\n      mload\n      dup2\n      0x01\n      add\n      sstore\n      swap1\n      pop\n      pop\n        /* \"contracts/Test.sol\":1839:1929  function makeSupplier() public {... */\n      jump\t// out\n        /* \"contracts/Test.sol\":5883:6426  function refund(address _shop, uint _productId) public {... */\n    tag_50:\n        /* \"contracts/Test.sol\":6003:6017  marketProducts */\n      0x04\n        /* \"contracts/Test.sol\":6003:6024  marketProducts[_shop] */\n      0x00\n        /* \"contracts/Test.sol\":6018:6023  _shop */\n      dup4\n        /* \"contracts/Test.sol\":6003:6024  marketProducts[_shop] */\n      0xffffffffffffffffffffffffffffffffffffffff\n      and\n      0xffffffffffffffffffffffffffffffffffffffff\n      and\n      dup2\n      mstore\n      0x20\n      add\n      swap1\n      dup2\n      mstore\n      0x20\n      add\n      0x00\n      keccak256\n        /* \"contracts/Test.sol\":6025:6035  _productId */\n      dup2\n        /* \"contracts/Test.sol\":6003:6036  marketProducts[_shop][_productId] */\n      dup2\n      sload\n      dup2\n      lt\n      tag_163\n      jumpi\n      tag_164\n      tag_165\n      jump\t// in\n    tag_164:\n    tag_163:\n      swap1\n      0x00\n      mstore\n      keccak256(0x00, 0x20)\n      swap1\n      0x05\n      mul\n      add\n        /* \"contracts/Test.sol\":6003:6044  marketProducts[_shop][_productId].expDate */\n      0x04\n      add\n      sload\n        /* \"contracts/Test.sol\":5956:5968  userProducts */\n      0x03\n        /* \"contracts/Test.sol\":5956:5980  userProducts[msg.sender] */\n      0x00\n        /* \"contracts/Test.sol\":5969:5979  msg.sender */\n      caller\n        /* \"contracts/Test.sol\":5956:5980  userProducts[msg.sender] */\n      0xffffffffffffffffffffffffffffffffffffffff\n      and\n      0xffffffffffffffffffffffffffffffffffffffff\n      and\n      dup2\n      mstore\n      0x20\n      add\n      swap1\n      dup2\n      mstore\n      0x20\n      add\n      0x00\n      keccak256\n        /* \"contracts/Test.sol\":5981:5991  _productId */\n      dup3\n        /* \"contracts/Test.sol\":5956:5992  userProducts[msg.sender][_productId] */\n      dup2\n      sload\n      dup2\n      lt\n      tag_167\n      jumpi\n      tag_168\n      tag_165\n      jump\t// in\n    tag_168:\n    tag_167:\n      swap1\n      0x00\n      mstore\n      keccak256(0x00, 0x20)\n      swap1\n      0x05\n      mul\n      add\n        /* \"contracts/Test.sol\":5956:6000  userProducts[msg.sender][_productId].expDate */\n      0x04\n      add\n      sload\n        /* \"contracts/Test.sol\":5956:6044  userProducts[msg.sender][_productId].expDate > marketProducts[_shop][_productId].expDate */\n      gt\n        /* \"contracts/Test.sol\":5948:6045  require(userProducts[msg.sender][_productId].expDate > marketProducts[_shop][_productId].expDate) */\n      tag_170\n      jumpi\n      0x00\n      dup1\n      revert\n    tag_170:\n        /* \"contracts/Test.sol\":6055:6071  uint totalRefSum */\n      0x00\n        /* \"contracts/Test.sol\":6164:6171  1 ether */\n      0x0de0b6b3a7640000\n        /* \"contracts/Test.sol\":6122:6136  marketProducts */\n      0x04\n        /* \"contracts/Test.sol\":6122:6143  marketProducts[_shop] */\n      0x00\n        /* \"contracts/Test.sol\":6137:6142  _shop */\n      dup6\n        /* \"contracts/Test.sol\":6122:6143  marketProducts[_shop] */\n      0xffffffffffffffffffffffffffffffffffffffff\n      and\n      0xffffffffffffffffffffffffffffffffffffffff\n      and\n      dup2\n      mstore\n      0x20\n      add\n      swap1\n      dup2\n      mstore\n      0x20\n      add\n      0x00\n      keccak256\n        /* \"contracts/Test.sol\":6144:6154  _productId */\n      dup4\n        /* \"contracts/Test.sol\":6122:6155  marketProducts[_shop][_productId] */\n      dup2\n      sload\n      dup2\n      lt\n      tag_171\n      jumpi\n      tag_172\n      tag_165\n      jump\t// in\n    tag_172:\n    tag_171:\n      swap1\n      0x00\n      mstore\n      keccak256(0x00, 0x20)\n      swap1\n      0x05\n      mul\n      add\n        /* \"contracts/Test.sol\":6122:6161  marketProducts[_shop][_productId].price */\n      0x02\n      add\n      sload\n        /* \"contracts/Test.sol\":6075:6087  userProducts */\n      0x03\n        /* \"contracts/Test.sol\":6075:6099  userProducts[msg.sender] */\n      0x00\n        /* \"contracts/Test.sol\":6088:6098  msg.sender */\n      caller\n        /* \"contracts/Test.sol\":6075:6099  userProducts[msg.sender] */\n      0xffffffffffffffffffffffffffffffffffffffff\n      and\n      0xffffffffffffffffffffffffffffffffffffffff\n      and\n      dup2\n      mstore\n      0x20\n      add\n      swap1\n      dup2\n      mstore\n      0x20\n      add\n      0x00\n      keccak256\n        /* \"contracts/Test.sol\":6100:6110  _productId */\n      dup5\n        /* \"contracts/Test.sol\":6075:6111  userProducts[msg.sender][_productId] */\n      dup2\n      sload\n      dup2\n      lt\n      tag_174\n      jumpi\n      tag_175\n      tag_165\n      jump\t// in\n    tag_175:\n    tag_174:\n      swap1\n      0x00\n      mstore\n      keccak256(0x00, 0x20)\n      swap1\n      0x05\n      mul\n      add\n        /* \"contracts/Test.sol\":6075:6119  userProducts[msg.sender][_productId].inStock */\n      0x01\n      add\n      sload\n        /* \"contracts/Test.sol\":6075:6161  userProducts[msg.sender][_productId].inStock * marketProducts[_shop][_productId].price */\n      tag_177\n      swap2\n      swap1\n      tag_178\n      jump\t// in\n    tag_177:\n        /* \"contracts/Test.sol\":6075:6171  userProducts[msg.sender][_productId].inStock * marketProducts[_shop][_productId].price * 1 ether */\n      tag_179\n      swap2\n      swap1\n      tag_178\n      jump\t// in\n    tag_179:\n        /* \"contracts/Test.sol\":6055:6171  uint totalRefSum =  userProducts[msg.sender][_productId].inStock * marketProducts[_shop][_productId].price * 1 ether */\n      swap1\n      pop\n        /* \"contracts/Test.sol\":6226:6238  userProducts */\n      0x03\n        /* \"contracts/Test.sol\":6226:6250  userProducts[msg.sender] */\n      0x00\n        /* \"contracts/Test.sol\":6239:6249  msg.sender */\n      caller\n        /* \"contracts/Test.sol\":6226:6250  userProducts[msg.sender] */\n      0xffffffffffffffffffffffffffffffffffffffff\n      and\n      0xffffffffffffffffffffffffffffffffffffffff\n      and\n      dup2\n      mstore\n      0x20\n      add\n      swap1\n      dup2\n      mstore\n      0x20\n      add\n      0x00\n      keccak256\n        /* \"contracts/Test.sol\":6251:6261  _productId */\n      dup3\n        /* \"contracts/Test.sol\":6226:6262  userProducts[msg.sender][_productId] */\n      dup2\n      sload\n      dup2\n      lt\n      tag_180\n      jumpi\n      tag_181\n      tag_165\n      jump\t// in\n    tag_181:\n    tag_180:\n      swap1\n      0x00\n      mstore\n      keccak256(0x00, 0x20)\n      swap1\n      0x05\n      mul\n      add\n        /* \"contracts/Test.sol\":6226:6270  userProducts[msg.sender][_productId].inStock */\n      0x01\n      add\n      sload\n        /* \"contracts/Test.sol\":6181:6195  marketProducts */\n      0x04\n        /* \"contracts/Test.sol\":6181:6202  marketProducts[_shop] */\n      0x00\n        /* \"contracts/Test.sol\":6196:6201  _shop */\n      dup6\n        /* \"contracts/Test.sol\":6181:6202  marketProducts[_shop] */\n      0xffffffffffffffffffffffffffffffffffffffff\n      and\n      0xffffffffffffffffffffffffffffffffffffffff\n      and\n      dup2\n      mstore\n      0x20\n      add\n      swap1\n      dup2\n      mstore\n      0x20\n      add\n      0x00\n      keccak256\n        /* \"contracts/Test.sol\":6203:6213  _productId */\n      dup4\n        /* \"contracts/Test.sol\":6181:6214  marketProducts[_shop][_productId] */\n      dup2\n      sload\n      dup2\n      lt\n      tag_183\n      jumpi\n      tag_184\n      tag_165\n      jump\t// in\n    tag_184:\n    tag_183:\n      swap1\n      0x00\n      mstore\n      keccak256(0x00, 0x20)\n      swap1\n      0x05\n      mul\n      add\n        /* \"contracts/Test.sol\":6181:6222  marketProducts[_shop][_productId].inStock */\n      0x01\n      add\n      0x00\n        /* \"contracts/Test.sol\":6181:6270  marketProducts[_shop][_productId].inStock += userProducts[msg.sender][_productId].inStock */\n      dup3\n      dup3\n      sload\n      tag_186\n      swap2\n      swap1\n      tag_187\n      jump\t// in\n    tag_186:\n      swap3\n      pop\n      pop\n      dup2\n      swap1\n      sstore\n      pop\n        /* \"contracts/Test.sol\":6287:6299  userProducts */\n      0x03\n        /* \"contracts/Test.sol\":6287:6311  userProducts[msg.sender] */\n      0x00\n        /* \"contracts/Test.sol\":6300:6310  msg.sender */\n      caller\n        /* \"contracts/Test.sol\":6287:6311  userProducts[msg.sender] */\n      0xffffffffffffffffffffffffffffffffffffffff\n      and\n      0xffffffffffffffffffffffffffffffffffffffff\n      and\n      dup2\n      mstore\n      0x20\n      add\n      swap1\n      dup2\n      mstore\n      0x20\n      add\n      0x00\n      keccak256\n        /* \"contracts/Test.sol\":6312:6322  _productId */\n      dup3\n        /* \"contracts/Test.sol\":6287:6323  userProducts[msg.sender][_productId] */\n      dup2\n      sload\n      dup2\n      lt\n      tag_188\n      jumpi\n      tag_189\n      tag_165\n      jump\t// in\n    tag_189:\n    tag_188:\n      swap1\n      0x00\n      mstore\n      keccak256(0x00, 0x20)\n      swap1\n      0x05\n      mul\n      add\n      0x00\n        /* \"contracts/Test.sol\":6280:6323  delete userProducts[msg.sender][_productId] */\n      dup1\n      dup3\n      add\n      exp(0x0100, 0x00)\n      dup2\n      sload\n      swap1\n      0xffffffffffffffffffffffffffffffffffffffff\n      mul\n      not\n      and\n      swap1\n      sstore\n      0x01\n      dup3\n      add\n      0x00\n      swap1\n      sstore\n      0x02\n      dup3\n      add\n      0x00\n      swap1\n      sstore\n      0x03\n      dup3\n      add\n      0x00\n      tag_191\n      swap2\n      swap1\n      tag_192\n      jump\t// in\n    tag_191:\n      0x04\n      dup3\n      add\n      0x00\n      swap1\n      sstore\n      pop\n      pop\n        /* \"contracts/Test.sol\":6357:6368  totalRefSum */\n      dup1\n        /* \"contracts/Test.sol\":6333:6338  users */\n      0x02\n        /* \"contracts/Test.sol\":6333:6345  users[_shop] */\n      0x00\n        /* \"contracts/Test.sol\":6339:6344  _shop */\n      dup6\n        /* \"contracts/Test.sol\":6333:6345  users[_shop] */\n      0xffffffffffffffffffffffffffffffffffffffff\n      and\n      0xffffffffffffffffffffffffffffffffffffffff\n      and\n      dup2\n      mstore\n      0x20\n      add\n      swap1\n      dup2\n      mstore\n      0x20\n      add\n      0x00\n      keccak256\n        /* \"contracts/Test.sol\":6333:6353  users[_shop].balance */\n      0x01\n      add\n      0x00\n        /* \"contracts/Test.sol\":6333:6368  users[_shop].balance -= totalRefSum */\n      dup3\n      dup3\n      sload\n      tag_193\n      swap2\n      swap1\n      tag_194\n      jump\t// in\n    tag_193:\n      swap3\n      pop\n      pop\n      dup2\n      swap1\n      sstore\n      pop\n        /* \"contracts/Test.sol\":6386:6396  msg.sender */\n      caller\n        /* \"contracts/Test.sol\":6378:6406  payable(msg.sender).transfer */\n      0xffffffffffffffffffffffffffffffffffffffff\n      and\n        /* \"contracts/Test.sol\":6378:6419  payable(msg.sender).transfer(totalRefSum) */\n      0x08fc\n        /* \"contracts/Test.sol\":6407:6418  totalRefSum */\n      dup3\n        /* \"contracts/Test.sol\":6378:6419  payable(msg.sender).transfer(totalRefSum) */\n      swap1\n      dup2\n      iszero\n      mul\n      swap1\n      mload(0x40)\n      0x00\n      mload(0x40)\n      dup1\n      dup4\n      sub\n      dup2\n      dup6\n      dup9\n      dup9\n      call\n      swap4\n      pop\n      pop\n      pop\n      pop\n      iszero\n      dup1\n      iszero\n      tag_196\n      jumpi\n      returndatasize\n      0x00\n      dup1\n      returndatacopy\n      revert(0x00, returndatasize)\n    tag_196:\n      pop\n        /* \"contracts/Test.sol\":5938:6426  {... */\n      pop\n        /* \"contracts/Test.sol\":5883:6426  function refund(address _shop, uint _productId) public {... */\n      pop\n      pop\n      jump\t// out\n        /* \"contracts/Test.sol\":950:1001  mapping(address => Product[]) public marketProducts */\n    tag_54:\n      mstore(0x20, 0x04)\n      dup2\n      0x00\n      mstore\n      keccak256(0x00, 0x40)\n      dup2\n      dup2\n      sload\n      dup2\n      lt\n      tag_197\n      jumpi\n      0x00\n      dup1\n      revert\n    tag_197:\n      swap1\n      0x00\n      mstore\n      keccak256(0x00, 0x20)\n      swap1\n      0x05\n      mul\n      add\n      0x00\n      swap2\n      pop\n      swap2\n      pop\n      pop\n      dup1\n      0x00\n      add\n      0x00\n      swap1\n      sload\n      swap1\n      0x0100\n      exp\n      swap1\n      div\n      0xffffffffffffffffffffffffffffffffffffffff\n      and\n      swap1\n      dup1\n      0x01\n      add\n      sload\n      swap1\n      dup1\n      0x02\n      add\n      sload\n      swap1\n      dup1\n      0x03\n      add\n      dup1\n      sload\n      tag_199\n      swap1\n      tag_144\n      jump\t// in\n    tag_199:\n      dup1\n      0x1f\n      add\n      0x20\n      dup1\n      swap2\n      div\n      mul\n      0x20\n      add\n      mload(0x40)\n      swap1\n      dup2\n      add\n      0x40\n      mstore\n      dup1\n      swap3\n      swap2\n      swap1\n      dup2\n      dup2\n      mstore\n      0x20\n      add\n      dup3\n      dup1\n      sload\n      tag_200\n      swap1\n      tag_144\n      jump\t// in\n    tag_200:\n      dup1\n      iszero\n      tag_201\n      jumpi\n      dup1\n      0x1f\n      lt\n      tag_202\n      jumpi\n      0x0100\n      dup1\n      dup4\n      sload\n      div\n      mul\n      dup4\n      mstore\n      swap2\n      0x20\n      add\n      swap2\n      jump(tag_201)\n    tag_202:\n      dup3\n      add\n      swap2\n      swap1\n      0x00\n      mstore\n      keccak256(0x00, 0x20)\n      swap1\n    tag_203:\n      dup2\n      sload\n      dup2\n      mstore\n      swap1\n      0x01\n      add\n      swap1\n      0x20\n      add\n      dup1\n      dup4\n      gt\n      tag_203\n      jumpi\n      dup3\n      swap1\n      sub\n      0x1f\n      and\n      dup3\n      add\n      swap2\n    tag_201:\n      pop\n      pop\n      pop\n      pop\n      pop\n      swap1\n      dup1\n      0x04\n      add\n      sload\n      swap1\n      pop\n      dup6\n      jump\t// out\n        /* \"contracts/Test.sol\":193:216  Ticket[] public tickets */\n    tag_60:\n      0x00\n      dup2\n      dup2\n      sload\n      dup2\n      lt\n      tag_204\n      jumpi\n      0x00\n      dup1\n      revert\n    tag_204:\n      swap1\n      0x00\n      mstore\n      keccak256(0x00, 0x20)\n      add\n      0x00\n      swap2\n      pop\n      swap1\n      pop\n      dup1\n      0x00\n      add\n      0x00\n      swap1\n      sload\n      swap1\n      0x0100\n      exp\n      swap1\n      div\n      0xffffffffffffffffffffffffffffffffffffffff\n      and\n      swap1\n      dup1\n      0x00\n      add\n      0x14\n      swap1\n      sload\n      swap1\n      0x0100\n      exp\n      swap1\n      div\n      0xff\n      and\n      swap1\n      pop\n      dup3\n      jump\t// out\n        /* \"contracts/Test.sol\":2324:2419  function changeRole(Role _role) public {... */\n    tag_67:\n        /* \"contracts/Test.sol\":2373:2380  tickets */\n      0x00\n        /* \"contracts/Test.sol\":2386:2411  Ticket(msg.sender, _role) */\n      mload(0x40)\n      dup1\n      0x40\n      add\n      0x40\n      mstore\n      dup1\n        /* \"contracts/Test.sol\":2393:2403  msg.sender */\n      caller\n        /* \"contracts/Test.sol\":2386:2411  Ticket(msg.sender, _role) */\n      0xffffffffffffffffffffffffffffffffffffffff\n      and\n      dup2\n      mstore\n      0x20\n      add\n        /* \"contracts/Test.sol\":2405:2410  _role */\n      dup4\n        /* \"contracts/Test.sol\":2386:2411  Ticket(msg.sender, _role) */\n      0x02\n      dup2\n      gt\n      iszero\n      tag_207\n      jumpi\n      tag_208\n      tag_159\n      jump\t// in\n    tag_208:\n    tag_207:\n      dup2\n      mstore\n      pop\n        /* \"contracts/Test.sol\":2373:2412  tickets.push(Ticket(msg.sender, _role)) */\n      swap1\n      dup1\n      0x01\n      dup2\n      sload\n      add\n      dup1\n      dup3\n      sstore\n      dup1\n      swap2\n      pop\n      pop\n      0x01\n      swap1\n      sub\n      swap1\n      0x00\n      mstore\n      keccak256(0x00, 0x20)\n      add\n      0x00\n      swap1\n      swap2\n      swap1\n      swap2\n      swap1\n      swap2\n      pop\n      0x00\n      dup3\n      add\n      mload\n      dup2\n      0x00\n      add\n      exp(0x0100, 0x00)\n      dup2\n      sload\n      dup2\n      0xffffffffffffffffffffffffffffffffffffffff\n      mul\n      not\n      and\n      swap1\n      dup4\n      0xffffffffffffffffffffffffffffffffffffffff\n      and\n      mul\n      or\n      swap1\n      sstore\n      pop\n      0x20\n      dup3\n      add\n      mload\n      dup2\n      0x00\n      add\n      exp(0x0100, 0x14)\n      dup2\n      sload\n      dup2\n      0xff\n      mul\n      not\n      and\n      swap1\n      dup4\n      0x02\n      dup2\n      gt\n      iszero\n      tag_210\n      jumpi\n      tag_211\n      tag_159\n      jump\t// in\n    tag_211:\n    tag_210:\n      mul\n      or\n      swap1\n      sstore\n      pop\n      pop\n      pop\n        /* \"contracts/Test.sol\":2324:2419  function changeRole(Role _role) public {... */\n      pop\n      jump\t// out\n        /* \"contracts/Test.sol\":2643:3219  function toUpper(string memory input) public pure returns (string memory) {... */\n    tag_72:\n        /* \"contracts/Test.sol\":2702:2715  string memory */\n      0x60\n        /* \"contracts/Test.sol\":2727:2750  bytes memory inputBytes */\n      0x00\n        /* \"contracts/Test.sol\":2759:2764  input */\n      dup3\n        /* \"contracts/Test.sol\":2727:2765  bytes memory inputBytes = bytes(input) */\n      swap1\n      pop\n        /* \"contracts/Test.sol\":2780:2789  uint256 i */\n      0x00\n        /* \"contracts/Test.sol\":2775:3178  for (uint256 i = 0; i < inputBytes.length; i++) {... */\n    tag_213:\n        /* \"contracts/Test.sol\":2799:2809  inputBytes */\n      dup2\n        /* \"contracts/Test.sol\":2799:2816  inputBytes.length */\n      mload\n        /* \"contracts/Test.sol\":2795:2796  i */\n      dup2\n        /* \"contracts/Test.sol\":2795:2816  i < inputBytes.length */\n      lt\n        /* \"contracts/Test.sol\":2775:3178  for (uint256 i = 0; i < inputBytes.length; i++) {... */\n      iszero\n      tag_214\n      jumpi\n        /* \"contracts/Test.sol\":2950:2952  97 */\n      0x61\n        /* \"contracts/Test.sol\":2932:2942  inputBytes */\n      dup3\n        /* \"contracts/Test.sol\":2943:2944  i */\n      dup3\n        /* \"contracts/Test.sol\":2932:2945  inputBytes[i] */\n      dup2\n      mload\n      dup2\n      lt\n      tag_216\n      jumpi\n      tag_217\n      tag_165\n      jump\t// in\n    tag_217:\n    tag_216:\n      0x20\n      add\n      add\n      mload\n      0xf8\n      shr\n      0xf8\n      shl\n        /* \"contracts/Test.sol\":2926:2946  uint8(inputBytes[i]) */\n      0xf8\n      shr\n        /* \"contracts/Test.sol\":2926:2952  uint8(inputBytes[i]) >= 97 */\n      0xff\n      and\n      lt\n      iszero\n        /* \"contracts/Test.sol\":2926:2983  uint8(inputBytes[i]) >= 97 && uint8(inputBytes[i]) <= 122 */\n      dup1\n      iszero\n      tag_218\n      jumpi\n      pop\n        /* \"contracts/Test.sol\":2980:2983  122 */\n      0x7a\n        /* \"contracts/Test.sol\":2962:2972  inputBytes */\n      dup3\n        /* \"contracts/Test.sol\":2973:2974  i */\n      dup3\n        /* \"contracts/Test.sol\":2962:2975  inputBytes[i] */\n      dup2\n      mload\n      dup2\n      lt\n      tag_219\n      jumpi\n      tag_220\n      tag_165\n      jump\t// in\n    tag_220:\n    tag_219:\n      0x20\n      add\n      add\n      mload\n      0xf8\n      shr\n      0xf8\n      shl\n        /* \"contracts/Test.sol\":2956:2976  uint8(inputBytes[i]) */\n      0xf8\n      shr\n        /* \"contracts/Test.sol\":2956:2983  uint8(inputBytes[i]) <= 122 */\n      0xff\n      and\n      gt\n      iszero\n        /* \"contracts/Test.sol\":2926:2983  uint8(inputBytes[i]) >= 97 && uint8(inputBytes[i]) <= 122 */\n    tag_218:\n        /* \"contracts/Test.sol\":2922:3168  if (uint8(inputBytes[i]) >= 97 && uint8(inputBytes[i]) <= 122) {... */\n      iszero\n      tag_221\n      jumpi\n        /* \"contracts/Test.sol\":3150:3152  32 */\n      0x20\n        /* \"contracts/Test.sol\":3133:3143  inputBytes */\n      dup3\n        /* \"contracts/Test.sol\":3144:3145  i */\n      dup3\n        /* \"contracts/Test.sol\":3133:3146  inputBytes[i] */\n      dup2\n      mload\n      dup2\n      lt\n      tag_222\n      jumpi\n      tag_223\n      tag_165\n      jump\t// in\n    tag_223:\n    tag_222:\n      0x20\n      add\n      add\n      mload\n      0xf8\n      shr\n      0xf8\n      shl\n        /* \"contracts/Test.sol\":3127:3147  uint8(inputBytes[i]) */\n      0xf8\n      shr\n        /* \"contracts/Test.sol\":3127:3152  uint8(inputBytes[i]) - 32 */\n      tag_224\n      swap2\n      swap1\n      tag_225\n      jump\t// in\n    tag_224:\n        /* \"contracts/Test.sol\":3120:3153  bytes1(uint8(inputBytes[i]) - 32) */\n      0xf8\n      shl\n        /* \"contracts/Test.sol\":3104:3114  inputBytes */\n      dup3\n        /* \"contracts/Test.sol\":3115:3116  i */\n      dup3\n        /* \"contracts/Test.sol\":3104:3117  inputBytes[i] */\n      dup2\n      mload\n      dup2\n      lt\n      tag_226\n      jumpi\n      tag_227\n      tag_165\n      jump\t// in\n    tag_227:\n    tag_226:\n      0x20\n      add\n      add\n        /* \"contracts/Test.sol\":3104:3153  inputBytes[i] = bytes1(uint8(inputBytes[i]) - 32) */\n      swap1\n      not(0xffffffffffffffffffffffffffffffffffffffffffffffffffffffffffffff)\n      and\n      swap1\n      dup2\n      0x00\n      byte\n      swap1\n      mstore8\n      pop\n        /* \"contracts/Test.sol\":2922:3168  if (uint8(inputBytes[i]) >= 97 && uint8(inputBytes[i]) <= 122) {... */\n    tag_221:\n        /* \"contracts/Test.sol\":2818:2821  i++ */\n      dup1\n      dup1\n      tag_228\n      swap1\n      tag_229\n      jump\t// in\n    tag_228:\n      swap2\n      pop\n      pop\n        /* \"contracts/Test.sol\":2775:3178  for (uint256 i = 0; i < inputBytes.length; i++) {... */\n      jump(tag_213)\n    tag_214:\n      pop\n        /* \"contracts/Test.sol\":3201:3211  inputBytes */\n      dup1\n        /* \"contracts/Test.sol\":3187:3212  return string(inputBytes) */\n      swap2\n      pop\n      pop\n        /* \"contracts/Test.sol\":2643:3219  function toUpper(string memory input) public pure returns (string memory) {... */\n      swap2\n      swap1\n      pop\n      jump\t// out\n        /* \"contracts/Test.sol\":1935:2022  function makeMarket() public  {... */\n    tag_77:\n        /* \"contracts/Test.sol\":1995:2015  User(Role.Market, 0) */\n      mload(0x40)\n      dup1\n      0x40\n      add\n      0x40\n      mstore\n      dup1\n        /* \"contracts/Test.sol\":2000:2011  Role.Market */\n      0x01\n        /* \"contracts/Test.sol\":1995:2015  User(Role.Market, 0) */\n      0x02\n      dup2\n      gt\n      iszero\n      tag_231\n      jumpi\n      tag_232\n      tag_159\n      jump\t// in\n    tag_232:\n    tag_231:\n      dup2\n      mstore\n      0x20\n      add\n        /* \"contracts/Test.sol\":2013:2014  0 */\n      0x00\n        /* \"contracts/Test.sol\":1995:2015  User(Role.Market, 0) */\n      dup2\n      mstore\n      pop\n        /* \"contracts/Test.sol\":1975:1980  users */\n      0x02\n        /* \"contracts/Test.sol\":1975:1992  users[msg.sender] */\n      0x00\n        /* \"contracts/Test.sol\":1981:1991  msg.sender */\n      caller\n        /* \"contracts/Test.sol\":1975:1992  users[msg.sender] */\n      0xffffffffffffffffffffffffffffffffffffffff\n      and\n      0xffffffffffffffffffffffffffffffffffffffff\n      and\n      dup2\n      mstore\n      0x20\n      add\n      swap1\n      dup2\n      mstore\n      0x20\n      add\n      0x00\n      keccak256\n        /* \"contracts/Test.sol\":1975:2015  users[msg.sender] = User(Role.Market, 0) */\n      0x00\n      dup3\n      add\n      mload\n      dup2\n      0x00\n      add\n      exp(0x0100, 0x00)\n      dup2\n      sload\n      dup2\n      0xff\n      mul\n      not\n      and\n      swap1\n      dup4\n      0x02\n      dup2\n      gt\n      iszero\n      tag_233\n      jumpi\n      tag_234\n      tag_159\n      jump\t// in\n    tag_234:\n    tag_233:\n      mul\n      or\n      swap1\n      sstore\n      pop\n      0x20\n      dup3\n      add\n      mload\n      dup2\n      0x01\n      add\n      sstore\n      swap1\n      pop\n      pop\n        /* \"contracts/Test.sol\":1935:2022  function makeMarket() public  {... */\n      jump\t// out\n        /* \"contracts/Test.sol\":2028:2318  function approveChangeRole(uint _idTicket) public OnlyOwner {... */\n    tag_81:\n        /* \"contracts/Test.sol\":1225:1230  owner */\n      0x01\n      0x00\n      swap1\n      sload\n      swap1\n      0x0100\n      exp\n      swap1\n      div\n      0xffffffffffffffffffffffffffffffffffffffff\n      and\n        /* \"contracts/Test.sol\":1211:1230  msg.sender == owner */\n      0xffffffffffffffffffffffffffffffffffffffff\n      and\n        /* \"contracts/Test.sol\":1211:1221  msg.sender */\n      caller\n        /* \"contracts/Test.sol\":1211:1230  msg.sender == owner */\n      0xffffffffffffffffffffffffffffffffffffffff\n      and\n      eq\n        /* \"contracts/Test.sol\":1203:1231  require(msg.sender == owner) */\n      tag_236\n      jumpi\n      0x00\n      dup1\n      revert\n    tag_236:\n        /* \"contracts/Test.sol\":2098:2114  address userAddr */\n      0x00\n        /* \"contracts/Test.sol\":2117:2124  tickets */\n      dup1\n        /* \"contracts/Test.sol\":2125:2134  _idTicket */\n      dup3\n        /* \"contracts/Test.sol\":2117:2135  tickets[_idTicket] */\n      dup2\n      sload\n      dup2\n      lt\n      tag_238\n      jumpi\n      tag_239\n      tag_165\n      jump\t// in\n    tag_239:\n    tag_238:\n      swap1\n      0x00\n      mstore\n      keccak256(0x00, 0x20)\n      add\n        /* \"contracts/Test.sol\":2117:2144  tickets[_idTicket].userAddr */\n      0x00\n      add\n      0x00\n      swap1\n      sload\n      swap1\n      0x0100\n      exp\n      swap1\n      div\n      0xffffffffffffffffffffffffffffffffffffffff\n      and\n        /* \"contracts/Test.sol\":2098:2144  address userAddr = tickets[_idTicket].userAddr */\n      swap1\n      pop\n        /* \"contracts/Test.sol\":2154:2170  Role changedRole */\n      0x00\n        /* \"contracts/Test.sol\":2173:2180  tickets */\n      dup1\n        /* \"contracts/Test.sol\":2181:2190  _idTicket */\n      dup4\n        /* \"contracts/Test.sol\":2173:2191  tickets[_idTicket] */\n      dup2\n      sload\n      dup2\n      lt\n      tag_241\n      jumpi\n      tag_242\n      tag_165\n      jump\t// in\n    tag_242:\n    tag_241:\n      swap1\n      0x00\n      mstore\n      keccak256(0x00, 0x20)\n      add\n        /* \"contracts/Test.sol\":2173:2196  tickets[_idTicket].role */\n      0x00\n      add\n      0x14\n      swap1\n      sload\n      swap1\n      0x0100\n      exp\n      swap1\n      div\n      0xff\n      and\n        /* \"contracts/Test.sol\":2154:2196  Role changedRole = tickets[_idTicket].role */\n      swap1\n      pop\n        /* \"contracts/Test.sol\":2229:2240  changedRole */\n      dup1\n        /* \"contracts/Test.sol\":2206:2211  users */\n      0x02\n        /* \"contracts/Test.sol\":2206:2221  users[userAddr] */\n      0x00\n        /* \"contracts/Test.sol\":2212:2220  userAddr */\n      dup5\n        /* \"contracts/Test.sol\":2206:2221  users[userAddr] */\n      0xffffffffffffffffffffffffffffffffffffffff\n      and\n      0xffffffffffffffffffffffffffffffffffffffff\n      and\n      dup2\n      mstore\n      0x20\n      add\n      swap1\n      dup2\n      mstore\n      0x20\n      add\n      0x00\n      keccak256\n        /* \"contracts/Test.sol\":2206:2226  users[userAddr].role */\n      0x00\n      add\n      0x00\n        /* \"contracts/Test.sol\":2206:2240  users[userAddr].role = changedRole */\n      0x0100\n      exp\n      dup2\n      sload\n      dup2\n      0xff\n      mul\n      not\n      and\n      swap1\n      dup4\n      0x02\n      dup2\n      gt\n      iszero\n      tag_244\n      jumpi\n      tag_245\n      tag_159\n      jump\t// in\n    tag_245:\n    tag_244:\n      mul\n      or\n      swap1\n      sstore\n      pop\n        /* \"contracts/Test.sol\":2088:2318  {... */\n      pop\n      pop\n        /* \"contracts/Test.sol\":2028:2318  function approveChangeRole(uint _idTicket) public OnlyOwner {... */\n      pop\n      jump\t// out\n        /* \"contracts/Test.sol\":3376:3971  function makeDelivery(address _shop, uint _productId, uint _amount) public {... */\n    tag_86:\n        /* \"contracts/Test.sol\":3479:3480  0 */\n      0x00\n        /* \"contracts/Test.sol\":3469:3476  _amount */\n      dup2\n        /* \"contracts/Test.sol\":3469:3480  _amount > 0 */\n      gt\n        /* \"contracts/Test.sol\":3461:3523  require(_amount > 0, \"Purchase amount must be greater than 0\") */\n      tag_247\n      jumpi\n      mload(0x40)\n      0x08c379a000000000000000000000000000000000000000000000000000000000\n      dup2\n      mstore\n      0x04\n      add\n      tag_248\n      swap1\n      tag_249\n      jump\t// in\n    tag_248:\n      mload(0x40)\n      dup1\n      swap2\n      sub\n      swap1\n      revert\n    tag_247:\n        /* \"contracts/Test.sol\":3554:3568  marketProducts */\n      0x04\n        /* \"contracts/Test.sol\":3554:3575  marketProducts[_shop] */\n      0x00\n        /* \"contracts/Test.sol\":3569:3574  _shop */\n      dup5\n        /* \"contracts/Test.sol\":3554:3575  marketProducts[_shop] */\n      0xffffffffffffffffffffffffffffffffffffffff\n      and\n      0xffffffffffffffffffffffffffffffffffffffff\n      and\n      dup2\n      mstore\n      0x20\n      add\n      swap1\n      dup2\n      mstore\n      0x20\n      add\n      0x00\n      keccak256\n        /* \"contracts/Test.sol\":3554:3582  marketProducts[_shop].length */\n      dup1\n      sload\n      swap1\n      pop\n        /* \"contracts/Test.sol\":3541:3551  _productId */\n      dup3\n        /* \"contracts/Test.sol\":3541:3582  _productId < marketProducts[_shop].length */\n      lt\n        /* \"contracts/Test.sol\":3533:3605  require(_productId < marketProducts[_shop].length, \"Invalid product ID\") */\n      tag_250\n      jumpi\n      mload(0x40)\n      0x08c379a000000000000000000000000000000000000000000000000000000000\n      dup2\n      mstore\n      0x04\n      add\n      tag_251\n      swap1\n      tag_252\n      jump\t// in\n    tag_251:\n      mload(0x40)\n      dup1\n      swap2\n      sub\n      swap1\n      revert\n    tag_250:\n        /* \"contracts/Test.sol\":3615:3640  string memory productName */\n      0x00\n        /* \"contracts/Test.sol\":3643:3657  marketProducts */\n      0x04\n        /* \"contracts/Test.sol\":3643:3664  marketProducts[_shop] */\n      0x00\n        /* \"contracts/Test.sol\":3658:3663  _shop */\n      dup6\n        /* \"contracts/Test.sol\":3643:3664  marketProducts[_shop] */\n      0xffffffffffffffffffffffffffffffffffffffff\n      and\n      0xffffffffffffffffffffffffffffffffffffffff\n      and\n      dup2\n      mstore\n      0x20\n      add\n      swap1\n      dup2\n      mstore\n      0x20\n      add\n      0x00\n      keccak256\n        /* \"contracts/Test.sol\":3665:3675  _productId */\n      dup4\n        /* \"contracts/Test.sol\":3643:3676  marketProducts[_shop][_productId] */\n      dup2\n      sload\n      dup2\n      lt\n      tag_253\n      jumpi\n      tag_254\n      tag_165\n      jump\t// in\n    tag_254:\n    tag_253:\n      swap1\n      0x00\n      mstore\n      keccak256(0x00, 0x20)\n      swap1\n      0x05\n      mul\n      add\n        /* \"contracts/Test.sol\":3643:3681  marketProducts[_shop][_productId].name */\n      0x03\n      add\n        /* \"contracts/Test.sol\":3615:3681  string memory productName = marketProducts[_shop][_productId].name */\n      dup1\n      sload\n      tag_256\n      swap1\n      tag_144\n      jump\t// in\n    tag_256:\n      dup1\n      0x1f\n      add\n      0x20\n      dup1\n      swap2\n      div\n      mul\n      0x20\n      add\n      mload(0x40)\n      swap1\n      dup2\n      add\n      0x40\n      mstore\n      dup1\n      swap3\n      swap2\n      swap1\n      dup2\n      dup2\n      mstore\n      0x20\n      add\n      dup3\n      dup1\n      sload\n      tag_257\n      swap1\n      tag_144\n      jump\t// in\n    tag_257:\n      dup1\n      iszero\n      tag_258\n      jumpi\n      dup1\n      0x1f\n      lt\n      tag_259\n      jumpi\n      0x0100\n      dup1\n      dup4\n      sload\n      div\n      mul\n      dup4\n      mstore\n      swap2\n      0x20\n      add\n      swap2\n      jump(tag_258)\n    tag_259:\n      dup3\n      add\n      swap2\n      swap1\n      0x00\n      mstore\n      keccak256(0x00, 0x20)\n      swap1\n    tag_260:\n      dup2\n      sload\n      dup2\n      mstore\n      swap1\n      0x01\n      add\n      swap1\n      0x20\n      add\n      dup1\n      dup4\n      gt\n      tag_260\n      jumpi\n      dup3\n      swap1\n      sub\n      0x1f\n      and\n      dup3\n      add\n      swap2\n    tag_258:\n      pop\n      pop\n      pop\n      pop\n      pop\n      swap1\n      pop\n        /* \"contracts/Test.sol\":3691:3716  string memory trackNumber */\n      0x00\n        /* \"contracts/Test.sol\":3738:3749  productName */\n      dup2\n        /* \"contracts/Test.sol\":3719:3755  string.concat(\"AA\",productName,\"BB\") */\n      add(0x20, mload(0x40))\n      tag_261\n      swap2\n      swap1\n      tag_262\n      jump\t// in\n    tag_261:\n      mload(0x40)\n      0x20\n      dup2\n      dup4\n      sub\n      sub\n      dup2\n      mstore\n      swap1\n      0x40\n      mstore\n        /* \"contracts/Test.sol\":3691:3755  string memory trackNumber = string.concat(\"AA\",productName,\"BB\") */\n      swap1\n      pop\n        /* \"contracts/Test.sol\":3779:3799  toUpper(trackNumber) */\n      tag_263\n        /* \"contracts/Test.sol\":3787:3798  trackNumber */\n      dup2\n        /* \"contracts/Test.sol\":3779:3786  toUpper */\n      tag_72\n        /* \"contracts/Test.sol\":3779:3799  toUpper(trackNumber) */\n      jump\t// in\n    tag_263:\n        /* \"contracts/Test.sol\":3765:3799  trackNumber = toUpper(trackNumber) */\n      swap1\n      pop\n        /* \"contracts/Test.sol\":3809:3835  DeliveryOrder memory order */\n      0x00\n        /* \"contracts/Test.sol\":3838:3916  DeliveryOrder(msg.sender, Status.Prepairing, trackNumber, _productId, _amount) */\n      mload(0x40)\n      dup1\n      0xa0\n      add\n      0x40\n      mstore\n      dup1\n        /* \"contracts/Test.sol\":3852:3862  msg.sender */\n      caller\n        /* \"contracts/Test.sol\":3838:3916  DeliveryOrder(msg.sender, Status.Prepairing, trackNumber, _productId, _amount) */\n      0xffffffffffffffffffffffffffffffffffffffff\n      and\n      dup2\n      mstore\n      0x20\n      add\n        /* \"contracts/Test.sol\":3864:3881  Status.Prepairing */\n      0x01\n        /* \"contracts/Test.sol\":3838:3916  DeliveryOrder(msg.sender, Status.Prepairing, trackNumber, _productId, _amount) */\n      0x03\n      dup2\n      gt\n      iszero\n      tag_264\n      jumpi\n      tag_265\n      tag_159\n      jump\t// in\n    tag_265:\n    tag_264:\n      dup2\n      mstore\n      0x20\n      add\n        /* \"contracts/Test.sol\":3883:3894  trackNumber */\n      dup4\n        /* \"contracts/Test.sol\":3838:3916  DeliveryOrder(msg.sender, Status.Prepairing, trackNumber, _productId, _amount) */\n      dup2\n      mstore\n      0x20\n      add\n        /* \"contracts/Test.sol\":3896:3906  _productId */\n      dup7\n        /* \"contracts/Test.sol\":3838:3916  DeliveryOrder(msg.sender, Status.Prepairing, trackNumber, _productId, _amount) */\n      dup2\n      mstore\n      0x20\n      add\n        /* \"contracts/Test.sol\":3908:3915  _amount */\n      dup6\n        /* \"contracts/Test.sol\":3838:3916  DeliveryOrder(msg.sender, Status.Prepairing, trackNumber, _productId, _amount) */\n      dup2\n      mstore\n      pop\n        /* \"contracts/Test.sol\":3809:3916  DeliveryOrder memory order = DeliveryOrder(msg.sender, Status.Prepairing, trackNumber, _productId, _amount) */\n      swap1\n      pop\n        /* \"contracts/Test.sol\":3926:3940  deliveryOrders */\n      0x07\n        /* \"contracts/Test.sol\":3926:3952  deliveryOrders[msg.sender] */\n      0x00\n        /* \"contracts/Test.sol\":3941:3951  msg.sender */\n      caller\n        /* \"contracts/Test.sol\":3926:3952  deliveryOrders[msg.sender] */\n      0xffffffffffffffffffffffffffffffffffffffff\n      and\n      0xffffffffffffffffffffffffffffffffffffffff\n      and\n      dup2\n      mstore\n      0x20\n      add\n      swap1\n      dup2\n      mstore\n      0x20\n      add\n      0x00\n      keccak256\n        /* \"contracts/Test.sol\":3958:3963  order */\n      dup2\n        /* \"contracts/Test.sol\":3926:3964  deliveryOrders[msg.sender].push(order) */\n      swap1\n      dup1\n      0x01\n      dup2\n      sload\n      add\n      dup1\n      dup3\n      sstore\n      dup1\n      swap2\n      pop\n      pop\n      0x01\n      swap1\n      sub\n      swap1\n      0x00\n      mstore\n      keccak256(0x00, 0x20)\n      swap1\n      0x04\n      mul\n      add\n      0x00\n      swap1\n      swap2\n      swap1\n      swap2\n      swap1\n      swap2\n      pop\n      0x00\n      dup3\n      add\n      mload\n      dup2\n      0x00\n      add\n      exp(0x0100, 0x00)\n      dup2\n      sload\n      dup2\n      0xffffffffffffffffffffffffffffffffffffffff\n      mul\n      not\n      and\n      swap1\n      dup4\n      0xffffffffffffffffffffffffffffffffffffffff\n      and\n      mul\n      or\n      swap1\n      sstore\n      pop\n      0x20\n      dup3\n      add\n      mload\n      dup2\n      0x00\n      add\n      exp(0x0100, 0x14)\n      dup2\n      sload\n      dup2\n      0xff\n      mul\n      not\n      and\n      swap1\n      dup4\n      0x03\n      dup2\n      gt\n      iszero\n      tag_267\n      jumpi\n      tag_268\n      tag_159\n      jump\t// in\n    tag_268:\n    tag_267:\n      mul\n      or\n      swap1\n      sstore\n      pop\n      0x40\n      dup3\n      add\n      mload\n      dup2\n      0x01\n      add\n      swap1\n      dup2\n      tag_269\n      swap2\n      swap1\n      tag_140\n      jump\t// in\n    tag_269:\n      pop\n      0x60\n      dup3\n      add\n      mload\n      dup2\n      0x02\n      add\n      sstore\n      0x80\n      dup3\n      add\n      mload\n      dup2\n      0x03\n      add\n      sstore\n      pop\n      pop\n        /* \"contracts/Test.sol\":3451:3971  {... */\n      pop\n      pop\n      pop\n        /* \"contracts/Test.sol\":3376:3971  function makeDelivery(address _shop, uint _productId, uint _amount) public {... */\n      pop\n      pop\n      pop\n      jump\t// out\n        /* \"contracts/Test.sol\":2425:2637  function randMod(uint _modulus) public view returns(uint) {   ... */\n    tag_90:\n        /* \"contracts/Test.sol\":2477:2481  uint */\n      0x00\n        /* \"contracts/Test.sol\":2496:2510  uint randNonce */\n      dup1\n        /* \"contracts/Test.sol\":2520:2531  randNonce++ */\n      dup1\n      dup1\n      tag_271\n      swap1\n      tag_229\n      jump\t// in\n    tag_271:\n      swap2\n      pop\n      pop\n        /* \"contracts/Test.sol\":2622:2630  _modulus */\n      dup3\n        /* \"contracts/Test.sol\":2580:2595  block.timestamp */\n      timestamp\n        /* \"contracts/Test.sol\":2596:2606  msg.sender */\n      caller\n        /* \"contracts/Test.sol\":2607:2616  randNonce */\n      dup4\n        /* \"contracts/Test.sol\":2563:2617  abi.encodePacked(block.timestamp,msg.sender,randNonce) */\n      add(0x20, mload(0x40))\n      tag_272\n      swap4\n      swap3\n      swap2\n      swap1\n      tag_273\n      jump\t// in\n    tag_272:\n      mload(0x40)\n      0x20\n      dup2\n      dup4\n      sub\n      sub\n      dup2\n      mstore\n      swap1\n      0x40\n      mstore\n        /* \"contracts/Test.sol\":2553:2618  keccak256(abi.encodePacked(block.timestamp,msg.sender,randNonce)) */\n      dup1\n      mload\n      swap1\n      0x20\n      add\n      keccak256\n        /* \"contracts/Test.sol\":2548:2619  uint(keccak256(abi.encodePacked(block.timestamp,msg.sender,randNonce))) */\n      0x00\n      shr\n        /* \"contracts/Test.sol\":2548:2630  uint(keccak256(abi.encodePacked(block.timestamp,msg.sender,randNonce))) % _modulus */\n      tag_274\n      swap2\n      swap1\n      tag_275\n      jump\t// in\n    tag_274:\n        /* \"contracts/Test.sol\":2541:2630  return uint(keccak256(abi.encodePacked(block.timestamp,msg.sender,randNonce))) % _modulus */\n      swap2\n      pop\n      pop\n        /* \"contracts/Test.sol\":2425:2637  function randMod(uint _modulus) public view returns(uint) {   ... */\n      swap2\n      swap1\n      pop\n      jump\t// out\n        /* \"contracts/Test.sol\":3977:4291  function addItemsSupplier(uint _inStock, uint _price, string calldata _name, uint _expDate, address _addressSupp) public AccessControl(Role.Supplier, _addressSupp) {... */\n    tag_97:\n        /* \"contracts/Test.sol\":4112:4125  Role.Supplier */\n      0x02\n        /* \"contracts/Test.sol\":4127:4139  _addressSupp */\n      dup2\n        /* \"contracts/Test.sol\":1352:1357  _role */\n      dup2\n        /* \"contracts/Test.sol\":1326:1357  users[msg.sender].role == _role */\n      0x02\n      dup2\n      gt\n      iszero\n      tag_277\n      jumpi\n      tag_278\n      tag_159\n      jump\t// in\n    tag_278:\n    tag_277:\n        /* \"contracts/Test.sol\":1326:1331  users */\n      0x02\n        /* \"contracts/Test.sol\":1326:1343  users[msg.sender] */\n      0x00\n        /* \"contracts/Test.sol\":1332:1342  msg.sender */\n      caller\n        /* \"contracts/Test.sol\":1326:1343  users[msg.sender] */\n      0xffffffffffffffffffffffffffffffffffffffff\n      and\n      0xffffffffffffffffffffffffffffffffffffffff\n      and\n      dup2\n      mstore\n      0x20\n      add\n      swap1\n      dup2\n      mstore\n      0x20\n      add\n      0x00\n      keccak256\n        /* \"contracts/Test.sol\":1326:1348  users[msg.sender].role */\n      0x00\n      add\n      0x00\n      swap1\n      sload\n      swap1\n      0x0100\n      exp\n      swap1\n      div\n      0xff\n      and\n        /* \"contracts/Test.sol\":1326:1357  users[msg.sender].role == _role */\n      0x02\n      dup2\n      gt\n      iszero\n      tag_279\n      jumpi\n      tag_280\n      tag_159\n      jump\t// in\n    tag_280:\n    tag_279:\n      eq\n        /* \"contracts/Test.sol\":1318:1434  require(users[msg.sender].role == _role, unicode\"Ваша роль не позволяет это изменять\") */\n      tag_281\n      jumpi\n      mload(0x40)\n      0x08c379a000000000000000000000000000000000000000000000000000000000\n      dup2\n      mstore\n      0x04\n      add\n      tag_282\n      swap1\n      tag_283\n      jump\t// in\n    tag_282:\n      mload(0x40)\n      dup1\n      swap2\n      sub\n      swap1\n      revert\n    tag_281:\n        /* \"contracts/Test.sol\":1466:1471  _shop */\n      dup1\n        /* \"contracts/Test.sol\":1452:1471  msg.sender == _shop */\n      0xffffffffffffffffffffffffffffffffffffffff\n      and\n        /* \"contracts/Test.sol\":1452:1462  msg.sender */\n      caller\n        /* \"contracts/Test.sol\":1452:1471  msg.sender == _shop */\n      0xffffffffffffffffffffffffffffffffffffffff\n      and\n      eq\n        /* \"contracts/Test.sol\":1444:1550  require(msg.sender == _shop, unicode\"Магазин не соответсвует отправителю\") */\n      tag_284\n      jumpi\n      mload(0x40)\n      0x08c379a000000000000000000000000000000000000000000000000000000000\n      dup2\n      mstore\n      0x04\n      add\n      tag_285\n      swap1\n      tag_286\n      jump\t// in\n    tag_285:\n      mload(0x40)\n      dup1\n      swap2\n      sub\n      swap1\n      revert\n    tag_284:\n        /* \"contracts/Test.sol\":4151:4170  Product memory item */\n      0x00\n        /* \"contracts/Test.sol\":4173:4233  Product(_addressSupp, _inStock, _price / 2, _name, _expDate) */\n      mload(0x40)\n      dup1\n      0xa0\n      add\n      0x40\n      mstore\n      dup1\n        /* \"contracts/Test.sol\":4181:4193  _addressSupp */\n      dup6\n        /* \"contracts/Test.sol\":4173:4233  Product(_addressSupp, _inStock, _price / 2, _name, _expDate) */\n      0xffffffffffffffffffffffffffffffffffffffff\n      and\n      dup2\n      mstore\n      0x20\n      add\n        /* \"contracts/Test.sol\":4195:4203  _inStock */\n      dup11\n        /* \"contracts/Test.sol\":4173:4233  Product(_addressSupp, _inStock, _price / 2, _name, _expDate) */\n      dup2\n      mstore\n      0x20\n      add\n        /* \"contracts/Test.sol\":4214:4215  2 */\n      0x02\n        /* \"contracts/Test.sol\":4205:4211  _price */\n      dup11\n        /* \"contracts/Test.sol\":4205:4215  _price / 2 */\n      tag_288\n      swap2\n      swap1\n      tag_137\n      jump\t// in\n    tag_288:\n        /* \"contracts/Test.sol\":4173:4233  Product(_addressSupp, _inStock, _price / 2, _name, _expDate) */\n      dup2\n      mstore\n      0x20\n      add\n        /* \"contracts/Test.sol\":4217:4222  _name */\n      dup9\n      dup9\n        /* \"contracts/Test.sol\":4173:4233  Product(_addressSupp, _inStock, _price / 2, _name, _expDate) */\n      dup1\n      dup1\n      0x1f\n      add\n      0x20\n      dup1\n      swap2\n      div\n      mul\n      0x20\n      add\n      mload(0x40)\n      swap1\n      dup2\n      add\n      0x40\n      mstore\n      dup1\n      swap4\n      swap3\n      swap2\n      swap1\n      dup2\n      dup2\n      mstore\n      0x20\n      add\n      dup4\n      dup4\n      dup1\n      dup3\n      dup5\n      calldatacopy\n      0x00\n      dup2\n      dup5\n      add\n      mstore\n      not(0x1f)\n      0x1f\n      dup3\n      add\n      and\n      swap1\n      pop\n      dup1\n      dup4\n      add\n      swap3\n      pop\n      pop\n      pop\n      pop\n      pop\n      pop\n      pop\n      dup2\n      mstore\n      0x20\n      add\n        /* \"contracts/Test.sol\":4224:4232  _expDate */\n      dup7\n        /* \"contracts/Test.sol\":4173:4233  Product(_addressSupp, _inStock, _price / 2, _name, _expDate) */\n      dup2\n      mstore\n      pop\n        /* \"contracts/Test.sol\":4151:4233  Product memory item = Product(_addressSupp, _inStock, _price / 2, _name, _expDate) */\n      swap1\n      pop\n        /* \"contracts/Test.sol\":4243:4259  supplierProducts */\n      0x05\n        /* \"contracts/Test.sol\":4243:4273  supplierProducts[_addressSupp] */\n      0x00\n        /* \"contracts/Test.sol\":4260:4272  _addressSupp */\n      dup6\n        /* \"contracts/Test.sol\":4243:4273  supplierProducts[_addressSupp] */\n      0xffffffffffffffffffffffffffffffffffffffff\n      and\n      0xffffffffffffffffffffffffffffffffffffffff\n      and\n      dup2\n      mstore\n      0x20\n      add\n      swap1\n      dup2\n      mstore\n      0x20\n      add\n      0x00\n      keccak256\n        /* \"contracts/Test.sol\":4279:4283  item */\n      dup2\n        /* \"contracts/Test.sol\":4243:4284  supplierProducts[_addressSupp].push(item) */\n      swap1\n      dup1\n      0x01\n      dup2\n      sload\n      add\n      dup1\n      dup3\n      sstore\n      dup1\n      swap2\n      pop\n      pop\n      0x01\n      swap1\n      sub\n      swap1\n      0x00\n      mstore\n      keccak256(0x00, 0x20)\n      swap1\n      0x05\n      mul\n      add\n      0x00\n      swap1\n      swap2\n      swap1\n      swap2\n      swap1\n      swap2\n      pop\n      0x00\n      dup3\n      add\n      mload\n      dup2\n      0x00\n      add\n      exp(0x0100, 0x00)\n      dup2\n      sload\n      dup2\n      0xffffffffffffffffffffffffffffffffffffffff\n      mul\n      not\n      and\n      swap1\n      dup4\n      0xffffffffffffffffffffffffffffffffffffffff\n      and\n      mul\n      or\n      swap1\n      sstore\n      pop\n      0x20\n      dup3\n      add\n      mload\n      dup2\n      0x01\n      add\n      sstore\n      0x40\n      dup3\n      add\n      mload\n      dup2\n      0x02\n      add\n      sstore\n      0x60\n      dup3\n      add\n      mload\n      dup2\n      0x03\n      add\n      swap1\n      dup2\n      tag_290\n      swap2\n      swap1\n      tag_140\n      jump\t// in\n    tag_290:\n      pop\n      0x80\n      dup3\n      add\n      mload\n      dup2\n      0x04\n      add\n      sstore\n      pop\n      pop\n        /* \"contracts/Test.sol\":4141:4291  {... */\n      pop\n        /* \"contracts/Test.sol\":3977:4291  function addItemsSupplier(uint _inStock, uint _price, string calldata _name, uint _expDate, address _addressSupp) public AccessControl(Role.Supplier, _addressSupp) {... */\n      pop\n      pop\n      pop\n      pop\n      pop\n      pop\n      pop\n      pop\n      jump\t// out\n        /* \"contracts/Test.sol\":222:242  address public owner */\n    tag_100:\n      0x01\n      0x00\n      swap1\n      sload\n      swap1\n      0x0100\n      exp\n      swap1\n      div\n      0xffffffffffffffffffffffffffffffffffffffff\n      and\n      dup2\n      jump\t// out\n        /* \"contracts/Test.sol\":6432:8028  function purchase(address _shop, uint _amount, uint _id, string memory _ref ) public payable {... */\n    tag_106:\n        /* \"contracts/Test.sol\":6565:6574  Role.User */\n      0x00\n        /* \"contracts/Test.sol\":6539:6574  users[msg.sender].role == Role.User */\n      0x02\n      dup2\n      gt\n      iszero\n      tag_292\n      jumpi\n      tag_293\n      tag_159\n      jump\t// in\n    tag_293:\n    tag_292:\n        /* \"contracts/Test.sol\":6539:6544  users */\n      0x02\n        /* \"contracts/Test.sol\":6539:6556  users[msg.sender] */\n      0x00\n        /* \"contracts/Test.sol\":6545:6555  msg.sender */\n      caller\n        /* \"contracts/Test.sol\":6539:6556  users[msg.sender] */\n      0xffffffffffffffffffffffffffffffffffffffff\n      and\n      0xffffffffffffffffffffffffffffffffffffffff\n      and\n      dup2\n      mstore\n      0x20\n      add\n      swap1\n      dup2\n      mstore\n      0x20\n      add\n      0x00\n      keccak256\n        /* \"contracts/Test.sol\":6539:6561  users[msg.sender].role */\n      0x00\n      add\n      0x00\n      swap1\n      sload\n      swap1\n      0x0100\n      exp\n      swap1\n      div\n      0xff\n      and\n        /* \"contracts/Test.sol\":6539:6574  users[msg.sender].role == Role.User */\n      0x02\n      dup2\n      gt\n      iszero\n      tag_294\n      jumpi\n      tag_295\n      tag_159\n      jump\t// in\n    tag_295:\n    tag_294:\n      sub\n        /* \"contracts/Test.sol\":6535:6640  if (users[msg.sender].role == Role.User) {... */\n      tag_296\n      jumpi\n        /* \"contracts/Test.sol\":6610:6629  User( Role.User, 0) */\n      mload(0x40)\n      dup1\n      0x40\n      add\n      0x40\n      mstore\n      dup1\n        /* \"contracts/Test.sol\":6616:6625  Role.User */\n      0x00\n        /* \"contracts/Test.sol\":6610:6629  User( Role.User, 0) */\n      0x02\n      dup2\n      gt\n      iszero\n      tag_297\n      jumpi\n      tag_298\n      tag_159\n      jump\t// in\n    tag_298:\n    tag_297:\n      dup2\n      mstore\n      0x20\n      add\n        /* \"contracts/Test.sol\":6627:6628  0 */\n      0x00\n        /* \"contracts/Test.sol\":6610:6629  User( Role.User, 0) */\n      dup2\n      mstore\n      pop\n        /* \"contracts/Test.sol\":6590:6595  users */\n      0x02\n        /* \"contracts/Test.sol\":6590:6607  users[msg.sender] */\n      0x00\n        /* \"contracts/Test.sol\":6596:6606  msg.sender */\n      caller\n        /* \"contracts/Test.sol\":6590:6607  users[msg.sender] */\n      0xffffffffffffffffffffffffffffffffffffffff\n      and\n      0xffffffffffffffffffffffffffffffffffffffff\n      and\n      dup2\n      mstore\n      0x20\n      add\n      swap1\n      dup2\n      mstore\n      0x20\n      add\n      0x00\n      keccak256\n        /* \"contracts/Test.sol\":6590:6629  users[msg.sender] = User( Role.User, 0) */\n      0x00\n      dup3\n      add\n      mload\n      dup2\n      0x00\n      add\n      exp(0x0100, 0x00)\n      dup2\n      sload\n      dup2\n      0xff\n      mul\n      not\n      and\n      swap1\n      dup4\n      0x02\n      dup2\n      gt\n      iszero\n      tag_299\n      jumpi\n      tag_300\n      tag_159\n      jump\t// in\n    tag_300:\n    tag_299:\n      mul\n      or\n      swap1\n      sstore\n      pop\n      0x20\n      dup3\n      add\n      mload\n      dup2\n      0x01\n      add\n      sstore\n      swap1\n      pop\n      pop\n        /* \"contracts/Test.sol\":6535:6640  if (users[msg.sender].role == Role.User) {... */\n    tag_296:\n        /* \"contracts/Test.sol\":6676:6677  0 */\n      0x00\n        /* \"contracts/Test.sol\":6666:6673  _amount */\n      dup4\n        /* \"contracts/Test.sol\":6666:6677  _amount > 0 */\n      gt\n        /* \"contracts/Test.sol\":6658:6720  require(_amount > 0, \"Purchase amount must be greater than 0\") */\n      tag_301\n      jumpi\n      mload(0x40)\n      0x08c379a000000000000000000000000000000000000000000000000000000000\n      dup2\n      mstore\n      0x04\n      add\n      tag_302\n      swap1\n      tag_249\n      jump\t// in\n    tag_302:\n      mload(0x40)\n      dup1\n      swap2\n      sub\n      swap1\n      revert\n    tag_301:\n        /* \"contracts/Test.sol\":6744:6758  marketProducts */\n      0x04\n        /* \"contracts/Test.sol\":6744:6765  marketProducts[_shop] */\n      0x00\n        /* \"contracts/Test.sol\":6759:6764  _shop */\n      dup6\n        /* \"contracts/Test.sol\":6744:6765  marketProducts[_shop] */\n      0xffffffffffffffffffffffffffffffffffffffff\n      and\n      0xffffffffffffffffffffffffffffffffffffffff\n      and\n      dup2\n      mstore\n      0x20\n      add\n      swap1\n      dup2\n      mstore\n      0x20\n      add\n      0x00\n      keccak256\n        /* \"contracts/Test.sol\":6744:6772  marketProducts[_shop].length */\n      dup1\n      sload\n      swap1\n      pop\n        /* \"contracts/Test.sol\":6738:6741  _id */\n      dup3\n        /* \"contracts/Test.sol\":6738:6772  _id < marketProducts[_shop].length */\n      lt\n        /* \"contracts/Test.sol\":6730:6795  require(_id < marketProducts[_shop].length, \"Invalid product ID\") */\n      tag_303\n      jumpi\n      mload(0x40)\n      0x08c379a000000000000000000000000000000000000000000000000000000000\n      dup2\n      mstore\n      0x04\n      add\n      tag_304\n      swap1\n      tag_252\n      jump\t// in\n    tag_304:\n      mload(0x40)\n      dup1\n      swap2\n      sub\n      swap1\n      revert\n    tag_303:\n        /* \"contracts/Test.sol\":6824:6838  marketProducts */\n      0x04\n        /* \"contracts/Test.sol\":6824:6845  marketProducts[_shop] */\n      0x00\n        /* \"contracts/Test.sol\":6839:6844  _shop */\n      dup6\n        /* \"contracts/Test.sol\":6824:6845  marketProducts[_shop] */\n      0xffffffffffffffffffffffffffffffffffffffff\n      and\n      0xffffffffffffffffffffffffffffffffffffffff\n      and\n      dup2\n      mstore\n      0x20\n      add\n      swap1\n      dup2\n      mstore\n      0x20\n      add\n      0x00\n      keccak256\n        /* \"contracts/Test.sol\":6846:6849  _id */\n      dup3\n        /* \"contracts/Test.sol\":6824:6850  marketProducts[_shop][_id] */\n      dup2\n      sload\n      dup2\n      lt\n      tag_305\n      jumpi\n      tag_306\n      tag_165\n      jump\t// in\n    tag_306:\n    tag_305:\n      swap1\n      0x00\n      mstore\n      keccak256(0x00, 0x20)\n      swap1\n      0x05\n      mul\n      add\n        /* \"contracts/Test.sol\":6824:6858  marketProducts[_shop][_id].inStock */\n      0x01\n      add\n      sload\n        /* \"contracts/Test.sol\":6813:6820  _amount */\n      dup4\n        /* \"contracts/Test.sol\":6813:6858  _amount <= marketProducts[_shop][_id].inStock */\n      gt\n      iszero\n        /* \"contracts/Test.sol\":6805:6889  require(_amount <= marketProducts[_shop][_id].inStock, \"Not enough stock available\") */\n      tag_308\n      jumpi\n      mload(0x40)\n      0x08c379a000000000000000000000000000000000000000000000000000000000\n      dup2\n      mstore\n      0x04\n      add\n      tag_309\n      swap1\n      tag_310\n      jump\t// in\n    tag_309:\n      mload(0x40)\n      dup1\n      swap2\n      sub\n      swap1\n      revert\n    tag_308:\n        /* \"contracts/Test.sol\":6900:6915  uint totalPrice */\n      0x00\n        /* \"contracts/Test.sol\":6963:6970  1 ether */\n      0x0de0b6b3a7640000\n        /* \"contracts/Test.sol\":6928:6942  marketProducts */\n      0x04\n        /* \"contracts/Test.sol\":6928:6949  marketProducts[_shop] */\n      0x00\n        /* \"contracts/Test.sol\":6943:6948  _shop */\n      dup8\n        /* \"contracts/Test.sol\":6928:6949  marketProducts[_shop] */\n      0xffffffffffffffffffffffffffffffffffffffff\n      and\n      0xffffffffffffffffffffffffffffffffffffffff\n      and\n      dup2\n      mstore\n      0x20\n      add\n      swap1\n      dup2\n      mstore\n      0x20\n      add\n      0x00\n      keccak256\n        /* \"contracts/Test.sol\":6950:6953  _id */\n      dup5\n        /* \"contracts/Test.sol\":6928:6954  marketProducts[_shop][_id] */\n      dup2\n      sload\n      dup2\n      lt\n      tag_311\n      jumpi\n      tag_312\n      tag_165\n      jump\t// in\n    tag_312:\n    tag_311:\n      swap1\n      0x00\n      mstore\n      keccak256(0x00, 0x20)\n      swap1\n      0x05\n      mul\n      add\n        /* \"contracts/Test.sol\":6928:6960  marketProducts[_shop][_id].price */\n      0x02\n      add\n      sload\n        /* \"contracts/Test.sol\":6918:6925  _amount */\n      dup6\n        /* \"contracts/Test.sol\":6918:6960  _amount * marketProducts[_shop][_id].price */\n      tag_314\n      swap2\n      swap1\n      tag_178\n      jump\t// in\n    tag_314:\n        /* \"contracts/Test.sol\":6918:6970  _amount * marketProducts[_shop][_id].price * 1 ether */\n      tag_315\n      swap2\n      swap1\n      tag_178\n      jump\t// in\n    tag_315:\n        /* \"contracts/Test.sol\":6900:6970  uint totalPrice = _amount * marketProducts[_shop][_id].price * 1 ether */\n      swap1\n      pop\n        /* \"contracts/Test.sol\":7004:7014  msg.sender */\n      caller\n        /* \"contracts/Test.sol\":6985:7014  referrals[_ref] == msg.sender */\n      0xffffffffffffffffffffffffffffffffffffffff\n      and\n        /* \"contracts/Test.sol\":6985:6994  referrals */\n      0x06\n        /* \"contracts/Test.sol\":6995:6999  _ref */\n      dup4\n        /* \"contracts/Test.sol\":6985:7000  referrals[_ref] */\n      mload(0x40)\n      tag_316\n      swap2\n      swap1\n      tag_317\n      jump\t// in\n    tag_316:\n      swap1\n      dup2\n      mstore\n      0x20\n      add\n      mload(0x40)\n      dup1\n      swap2\n      sub\n      swap1\n      keccak256\n      0x00\n      swap1\n      sload\n      swap1\n      0x0100\n      exp\n      swap1\n      div\n      0xffffffffffffffffffffffffffffffffffffffff\n      and\n        /* \"contracts/Test.sol\":6985:7014  referrals[_ref] == msg.sender */\n      0xffffffffffffffffffffffffffffffffffffffff\n      and\n      sub\n        /* \"contracts/Test.sol\":6981:7119  if (referrals[_ref] == msg.sender) {... */\n      tag_318\n      jumpi\n        /* \"contracts/Test.sol\":7062:7065  100 */\n      0x64\n        /* \"contracts/Test.sol\":7057:7059  90 */\n      0x5a\n        /* \"contracts/Test.sol\":7044:7054  totalPrice */\n      dup3\n        /* \"contracts/Test.sol\":7044:7059  totalPrice * 90 */\n      tag_319\n      swap2\n      swap1\n      tag_178\n      jump\t// in\n    tag_319:\n        /* \"contracts/Test.sol\":7044:7065  totalPrice * 90 / 100 */\n      tag_320\n      swap2\n      swap1\n      tag_137\n      jump\t// in\n    tag_320:\n        /* \"contracts/Test.sol\":7030:7066  totalPrice = (totalPrice * 90 / 100) */\n      swap1\n      pop\n        /* \"contracts/Test.sol\":7106:7107  0 */\n      0x00\n        /* \"contracts/Test.sol\":7080:7089  referrals */\n      0x06\n        /* \"contracts/Test.sol\":7090:7094  _ref */\n      dup4\n        /* \"contracts/Test.sol\":7080:7095  referrals[_ref] */\n      mload(0x40)\n      tag_321\n      swap2\n      swap1\n      tag_317\n      jump\t// in\n    tag_321:\n      swap1\n      dup2\n      mstore\n      0x20\n      add\n      mload(0x40)\n      dup1\n      swap2\n      sub\n      swap1\n      keccak256\n      0x00\n        /* \"contracts/Test.sol\":7080:7108  referrals[_ref] = address(0) */\n      0x0100\n      exp\n      dup2\n      sload\n      dup2\n      0xffffffffffffffffffffffffffffffffffffffff\n      mul\n      not\n      and\n      swap1\n      dup4\n      0xffffffffffffffffffffffffffffffffffffffff\n      and\n      mul\n      or\n      swap1\n      sstore\n      pop\n        /* \"contracts/Test.sol\":6981:7119  if (referrals[_ref] == msg.sender) {... */\n    tag_318:\n        /* \"contracts/Test.sol\":7150:7160  totalPrice */\n      dup1\n        /* \"contracts/Test.sol\":7137:7146  msg.value */\n      callvalue\n        /* \"contracts/Test.sol\":7137:7160  msg.value >= totalPrice */\n      lt\n      iszero\n        /* \"contracts/Test.sol\":7129:7188  require(msg.value >= totalPrice, \"Insufficient funds sent\") */\n      tag_322\n      jumpi\n      mload(0x40)\n      0x08c379a000000000000000000000000000000000000000000000000000000000\n      dup2\n      mstore\n      0x04\n      add\n      tag_323\n      swap1\n      tag_324\n      jump\t// in\n    tag_323:\n      mload(0x40)\n      dup1\n      swap2\n      sub\n      swap1\n      revert\n    tag_322:\n        /* \"contracts/Test.sol\":7198:7216  bool productExists */\n      0x00\n        /* \"contracts/Test.sol\":7240:7246  uint i */\n      dup1\n        /* \"contracts/Test.sol\":7235:7566  for (uint i = 0; i < userProducts[msg.sender].length; i++) {... */\n    tag_325:\n        /* \"contracts/Test.sol\":7256:7268  userProducts */\n      0x03\n        /* \"contracts/Test.sol\":7256:7280  userProducts[msg.sender] */\n      0x00\n        /* \"contracts/Test.sol\":7269:7279  msg.sender */\n      caller\n        /* \"contracts/Test.sol\":7256:7280  userProducts[msg.sender] */\n      0xffffffffffffffffffffffffffffffffffffffff\n      and\n      0xffffffffffffffffffffffffffffffffffffffff\n      and\n      dup2\n      mstore\n      0x20\n      add\n      swap1\n      dup2\n      mstore\n      0x20\n      add\n      0x00\n      keccak256\n        /* \"contracts/Test.sol\":7256:7287  userProducts[msg.sender].length */\n      dup1\n      sload\n      swap1\n      pop\n        /* \"contracts/Test.sol\":7252:7253  i */\n      dup2\n        /* \"contracts/Test.sol\":7252:7287  i < userProducts[msg.sender].length */\n      lt\n        /* \"contracts/Test.sol\":7235:7566  for (uint i = 0; i < userProducts[msg.sender].length; i++) {... */\n      iszero\n      tag_326\n      jumpi\n        /* \"contracts/Test.sol\":7382:7394  userProducts */\n      0x03\n        /* \"contracts/Test.sol\":7382:7401  userProducts[_shop] */\n      0x00\n        /* \"contracts/Test.sol\":7395:7400  _shop */\n      dup9\n        /* \"contracts/Test.sol\":7382:7401  userProducts[_shop] */\n      0xffffffffffffffffffffffffffffffffffffffff\n      and\n      0xffffffffffffffffffffffffffffffffffffffff\n      and\n      dup2\n      mstore\n      0x20\n      add\n      swap1\n      dup2\n      mstore\n      0x20\n      add\n      0x00\n      keccak256\n        /* \"contracts/Test.sol\":7402:7405  _id */\n      dup6\n        /* \"contracts/Test.sol\":7382:7406  userProducts[_shop][_id] */\n      dup2\n      sload\n      dup2\n      lt\n      tag_328\n      jumpi\n      tag_329\n      tag_165\n      jump\t// in\n    tag_329:\n    tag_328:\n      swap1\n      0x00\n      mstore\n      keccak256(0x00, 0x20)\n      swap1\n      0x05\n      mul\n      add\n        /* \"contracts/Test.sol\":7382:7411  userProducts[_shop][_id].name */\n      0x03\n      add\n        /* \"contracts/Test.sol\":7366:7413  keccak256(bytes(userProducts[_shop][_id].name)) */\n      mload(0x40)\n      tag_331\n      swap2\n      swap1\n      tag_332\n      jump\t// in\n    tag_331:\n      mload(0x40)\n      dup1\n      swap2\n      sub\n      swap1\n      keccak256\n        /* \"contracts/Test.sol\":7328:7340  userProducts */\n      0x03\n        /* \"contracts/Test.sol\":7328:7352  userProducts[msg.sender] */\n      0x00\n        /* \"contracts/Test.sol\":7341:7351  msg.sender */\n      caller\n        /* \"contracts/Test.sol\":7328:7352  userProducts[msg.sender] */\n      0xffffffffffffffffffffffffffffffffffffffff\n      and\n      0xffffffffffffffffffffffffffffffffffffffff\n      and\n      dup2\n      mstore\n      0x20\n      add\n      swap1\n      dup2\n      mstore\n      0x20\n      add\n      0x00\n      keccak256\n        /* \"contracts/Test.sol\":7353:7354  i */\n      dup3\n        /* \"contracts/Test.sol\":7328:7355  userProducts[msg.sender][i] */\n      dup2\n      sload\n      dup2\n      lt\n      tag_333\n      jumpi\n      tag_334\n      tag_165\n      jump\t// in\n    tag_334:\n    tag_333:\n      swap1\n      0x00\n      mstore\n      keccak256(0x00, 0x20)\n      swap1\n      0x05\n      mul\n      add\n        /* \"contracts/Test.sol\":7328:7360  userProducts[msg.sender][i].name */\n      0x03\n      add\n        /* \"contracts/Test.sol\":7312:7362  keccak256(bytes(userProducts[msg.sender][i].name)) */\n      mload(0x40)\n      tag_336\n      swap2\n      swap1\n      tag_332\n      jump\t// in\n    tag_336:\n      mload(0x40)\n      dup1\n      swap2\n      sub\n      swap1\n      keccak256\n        /* \"contracts/Test.sol\":7312:7413  keccak256(bytes(userProducts[msg.sender][i].name)) == keccak256(bytes(userProducts[_shop][_id].name)) */\n      sub\n        /* \"contracts/Test.sol\":7308:7556  if (keccak256(bytes(userProducts[msg.sender][i].name)) == keccak256(bytes(userProducts[_shop][_id].name))) {... */\n      tag_337\n      jumpi\n        /* \"contracts/Test.sol\":7472:7479  _amount */\n      dup6\n        /* \"contracts/Test.sol\":7433:7445  userProducts */\n      0x03\n        /* \"contracts/Test.sol\":7433:7457  userProducts[msg.sender] */\n      0x00\n        /* \"contracts/Test.sol\":7446:7456  msg.sender */\n      caller\n        /* \"contracts/Test.sol\":7433:7457  userProducts[msg.sender] */\n      0xffffffffffffffffffffffffffffffffffffffff\n      and\n      0xffffffffffffffffffffffffffffffffffffffff\n      and\n      dup2\n      mstore\n      0x20\n      add\n      swap1\n      dup2\n      mstore\n      0x20\n      add\n      0x00\n      keccak256\n        /* \"contracts/Test.sol\":7458:7459  i */\n      dup3\n        /* \"contracts/Test.sol\":7433:7460  userProducts[msg.sender][i] */\n      dup2\n      sload\n      dup2\n      lt\n      tag_338\n      jumpi\n      tag_339\n      tag_165\n      jump\t// in\n    tag_339:\n    tag_338:\n      swap1\n      0x00\n      mstore\n      keccak256(0x00, 0x20)\n      swap1\n      0x05\n      mul\n      add\n        /* \"contracts/Test.sol\":7433:7468  userProducts[msg.sender][i].inStock */\n      0x01\n      add\n      0x00\n        /* \"contracts/Test.sol\":7433:7479  userProducts[msg.sender][i].inStock += _amount */\n      dup3\n      dup3\n      sload\n      tag_341\n      swap2\n      swap1\n      tag_187\n      jump\t// in\n    tag_341:\n      swap3\n      pop\n      pop\n      dup2\n      swap1\n      sstore\n      pop\n        /* \"contracts/Test.sol\":7513:7517  true */\n      0x01\n        /* \"contracts/Test.sol\":7497:7517  productExists = true */\n      swap2\n      pop\n        /* \"contracts/Test.sol\":7535:7540  break */\n      jump(tag_326)\n        /* \"contracts/Test.sol\":7308:7556  if (keccak256(bytes(userProducts[msg.sender][i].name)) == keccak256(bytes(userProducts[_shop][_id].name))) {... */\n    tag_337:\n        /* \"contracts/Test.sol\":7289:7292  i++ */\n      dup1\n      dup1\n      tag_342\n      swap1\n      tag_229\n      jump\t// in\n    tag_342:\n      swap2\n      pop\n      pop\n        /* \"contracts/Test.sol\":7235:7566  for (uint i = 0; i < userProducts[msg.sender].length; i++) {... */\n      jump(tag_325)\n    tag_326:\n      pop\n        /* \"contracts/Test.sol\":7581:7594  productExists */\n      dup1\n        /* \"contracts/Test.sol\":7576:7808  if (!productExists) {... */\n      tag_343\n      jumpi\n        /* \"contracts/Test.sol\":7610:7632  Product memory newItem */\n      0x00\n        /* \"contracts/Test.sol\":7635:7745  Product(msg.sender, _amount, marketProducts[_shop][_id].price, marketProducts[_shop][_id].name, randMod(1000)) */\n      mload(0x40)\n      dup1\n      0xa0\n      add\n      0x40\n      mstore\n      dup1\n        /* \"contracts/Test.sol\":7643:7653  msg.sender */\n      caller\n        /* \"contracts/Test.sol\":7635:7745  Product(msg.sender, _amount, marketProducts[_shop][_id].price, marketProducts[_shop][_id].name, randMod(1000)) */\n      0xffffffffffffffffffffffffffffffffffffffff\n      and\n      dup2\n      mstore\n      0x20\n      add\n        /* \"contracts/Test.sol\":7655:7662  _amount */\n      dup8\n        /* \"contracts/Test.sol\":7635:7745  Product(msg.sender, _amount, marketProducts[_shop][_id].price, marketProducts[_shop][_id].name, randMod(1000)) */\n      dup2\n      mstore\n      0x20\n      add\n        /* \"contracts/Test.sol\":7664:7678  marketProducts */\n      0x04\n        /* \"contracts/Test.sol\":7664:7685  marketProducts[_shop] */\n      0x00\n        /* \"contracts/Test.sol\":7679:7684  _shop */\n      dup11\n        /* \"contracts/Test.sol\":7664:7685  marketProducts[_shop] */\n      0xffffffffffffffffffffffffffffffffffffffff\n      and\n      0xffffffffffffffffffffffffffffffffffffffff\n      and\n      dup2\n      mstore\n      0x20\n      add\n      swap1\n      dup2\n      mstore\n      0x20\n      add\n      0x00\n      keccak256\n        /* \"contracts/Test.sol\":7686:7689  _id */\n      dup8\n        /* \"contracts/Test.sol\":7664:7690  marketProducts[_shop][_id] */\n      dup2\n      sload\n      dup2\n      lt\n      tag_344\n      jumpi\n      tag_345\n      tag_165\n      jump\t// in\n    tag_345:\n    tag_344:\n      swap1\n      0x00\n      mstore\n      keccak256(0x00, 0x20)\n      swap1\n      0x05\n      mul\n      add\n        /* \"contracts/Test.sol\":7664:7696  marketProducts[_shop][_id].price */\n      0x02\n      add\n      sload\n        /* \"contracts/Test.sol\":7635:7745  Product(msg.sender, _amount, marketProducts[_shop][_id].price, marketProducts[_shop][_id].name, randMod(1000)) */\n      dup2\n      mstore\n      0x20\n      add\n        /* \"contracts/Test.sol\":7698:7712  marketProducts */\n      0x04\n        /* \"contracts/Test.sol\":7698:7719  marketProducts[_shop] */\n      0x00\n        /* \"contracts/Test.sol\":7713:7718  _shop */\n      dup11\n        /* \"contracts/Test.sol\":7698:7719  marketProducts[_shop] */\n      0xffffffffffffffffffffffffffffffffffffffff\n      and\n      0xffffffffffffffffffffffffffffffffffffffff\n      and\n      dup2\n      mstore\n      0x20\n      add\n      swap1\n      dup2\n      mstore\n      0x20\n      add\n      0x00\n      keccak256\n        /* \"contracts/Test.sol\":7720:7723  _id */\n      dup8\n        /* \"contracts/Test.sol\":7698:7724  marketProducts[_shop][_id] */\n      dup2\n      sload\n      dup2\n      lt\n      tag_347\n      jumpi\n      tag_348\n      tag_165\n      jump\t// in\n    tag_348:\n    tag_347:\n      swap1\n      0x00\n      mstore\n      keccak256(0x00, 0x20)\n      swap1\n      0x05\n      mul\n      add\n        /* \"contracts/Test.sol\":7698:7729  marketProducts[_shop][_id].name */\n      0x03\n      add\n        /* \"contracts/Test.sol\":7635:7745  Product(msg.sender, _amount, marketProducts[_shop][_id].price, marketProducts[_shop][_id].name, randMod(1000)) */\n      dup1\n      sload\n      tag_350\n      swap1\n      tag_144\n      jump\t// in\n    tag_350:\n      dup1\n      0x1f\n      add\n      0x20\n      dup1\n      swap2\n      div\n      mul\n      0x20\n      add\n      mload(0x40)\n      swap1\n      dup2\n      add\n      0x40\n      mstore\n      dup1\n      swap3\n      swap2\n      swap1\n      dup2\n      dup2\n      mstore\n      0x20\n      add\n      dup3\n      dup1\n      sload\n      tag_351\n      swap1\n      tag_144\n      jump\t// in\n    tag_351:\n      dup1\n      iszero\n      tag_352\n      jumpi\n      dup1\n      0x1f\n      lt\n      tag_353\n      jumpi\n      0x0100\n      dup1\n      dup4\n      sload\n      div\n      mul\n      dup4\n      mstore\n      swap2\n      0x20\n      add\n      swap2\n      jump(tag_352)\n    tag_353:\n      dup3\n      add\n      swap2\n      swap1\n      0x00\n      mstore\n      keccak256(0x00, 0x20)\n      swap1\n    tag_354:\n      dup2\n      sload\n      dup2\n      mstore\n      swap1\n      0x01\n      add\n      swap1\n      0x20\n      add\n      dup1\n      dup4\n      gt\n      tag_354\n      jumpi\n      dup3\n      swap1\n      sub\n      0x1f\n      and\n      dup3\n      add\n      swap2\n    tag_352:\n      pop\n      pop\n      pop\n      pop\n      pop\n      dup2\n      mstore\n      0x20\n      add\n        /* \"contracts/Test.sol\":7731:7744  randMod(1000) */\n      tag_355\n        /* \"contracts/Test.sol\":7739:7743  1000 */\n      0x03e8\n        /* \"contracts/Test.sol\":7731:7738  randMod */\n      tag_90\n        /* \"contracts/Test.sol\":7731:7744  randMod(1000) */\n      jump\t// in\n    tag_355:\n        /* \"contracts/Test.sol\":7635:7745  Product(msg.sender, _amount, marketProducts[_shop][_id].price, marketProducts[_shop][_id].name, randMod(1000)) */\n      dup2\n      mstore\n      pop\n        /* \"contracts/Test.sol\":7610:7745  Product memory newItem = Product(msg.sender, _amount, marketProducts[_shop][_id].price, marketProducts[_shop][_id].name, randMod(1000)) */\n      swap1\n      pop\n        /* \"contracts/Test.sol\":7759:7771  userProducts */\n      0x03\n        /* \"contracts/Test.sol\":7759:7783  userProducts[msg.sender] */\n      0x00\n        /* \"contracts/Test.sol\":7772:7782  msg.sender */\n      caller\n        /* \"contracts/Test.sol\":7759:7783  userProducts[msg.sender] */\n      0xffffffffffffffffffffffffffffffffffffffff\n      and\n      0xffffffffffffffffffffffffffffffffffffffff\n      and\n      dup2\n      mstore\n      0x20\n      add\n      swap1\n      dup2\n      mstore\n      0x20\n      add\n      0x00\n      keccak256\n        /* \"contracts/Test.sol\":7789:7796  newItem */\n      dup2\n        /* \"contracts/Test.sol\":7759:7797  userProducts[msg.sender].push(newItem) */\n      swap1\n      dup1\n      0x01\n      dup2\n      sload\n      add\n      dup1\n      dup3\n      sstore\n      dup1\n      swap2\n      pop\n      pop\n      0x01\n      swap1\n      sub\n      swap1\n      0x00\n      mstore\n      keccak256(0x00, 0x20)\n      swap1\n      0x05\n      mul\n      add\n      0x00\n      swap1\n      swap2\n      swap1\n      swap2\n      swap1\n      swap2\n      pop\n      0x00\n      dup3\n      add\n      mload\n      dup2\n      0x00\n      add\n      exp(0x0100, 0x00)\n      dup2\n      sload\n      dup2\n      0xffffffffffffffffffffffffffffffffffffffff\n      mul\n      not\n      and\n      swap1\n      dup4\n      0xffffffffffffffffffffffffffffffffffffffff\n      and\n      mul\n      or\n      swap1\n      sstore\n      pop\n      0x20\n      dup3\n      add\n      mload\n      dup2\n      0x01\n      add\n      sstore\n      0x40\n      dup3\n      add\n      mload\n      dup2\n      0x02\n      add\n      sstore\n      0x60\n      dup3\n      add\n      mload\n      dup2\n      0x03\n      add\n      swap1\n      dup2\n      tag_357\n      swap2\n      swap1\n      tag_140\n      jump\t// in\n    tag_357:\n      pop\n      0x80\n      dup3\n      add\n      mload\n      dup2\n      0x04\n      add\n      sstore\n      pop\n      pop\n        /* \"contracts/Test.sol\":7596:7808  {... */\n      pop\n        /* \"contracts/Test.sol\":7576:7808  if (!productExists) {... */\n    tag_343:\n        /* \"contracts/Test.sol\":7856:7863  _amount */\n      dup5\n        /* \"contracts/Test.sol\":7818:7832  marketProducts */\n      0x04\n        /* \"contracts/Test.sol\":7818:7839  marketProducts[_shop] */\n      0x00\n        /* \"contracts/Test.sol\":7833:7838  _shop */\n      dup9\n        /* \"contracts/Test.sol\":7818:7839  marketProducts[_shop] */\n      0xffffffffffffffffffffffffffffffffffffffff\n      and\n      0xffffffffffffffffffffffffffffffffffffffff\n      and\n      dup2\n      mstore\n      0x20\n      add\n      swap1\n      dup2\n      mstore\n      0x20\n      add\n      0x00\n      keccak256\n        /* \"contracts/Test.sol\":7840:7843  _id */\n      dup6\n        /* \"contracts/Test.sol\":7818:7844  marketProducts[_shop][_id] */\n      dup2\n      sload\n      dup2\n      lt\n      tag_358\n      jumpi\n      tag_359\n      tag_165\n      jump\t// in\n    tag_359:\n    tag_358:\n      swap1\n      0x00\n      mstore\n      keccak256(0x00, 0x20)\n      swap1\n      0x05\n      mul\n      add\n        /* \"contracts/Test.sol\":7818:7852  marketProducts[_shop][_id].inStock */\n      0x01\n      add\n      0x00\n        /* \"contracts/Test.sol\":7818:7863  marketProducts[_shop][_id].inStock -= _amount */\n      dup3\n      dup3\n      sload\n      tag_361\n      swap2\n      swap1\n      tag_194\n      jump\t// in\n    tag_361:\n      swap3\n      pop\n      pop\n      dup2\n      swap1\n      sstore\n      pop\n        /* \"contracts/Test.sol\":7896:7906  totalPrice */\n      dup2\n        /* \"contracts/Test.sol\":7873:7878  users */\n      0x02\n        /* \"contracts/Test.sol\":7873:7885  users[_shop] */\n      0x00\n        /* \"contracts/Test.sol\":7879:7884  _shop */\n      dup9\n        /* \"contracts/Test.sol\":7873:7885  users[_shop] */\n      0xffffffffffffffffffffffffffffffffffffffff\n      and\n      0xffffffffffffffffffffffffffffffffffffffff\n      and\n      dup2\n      mstore\n      0x20\n      add\n      swap1\n      dup2\n      mstore\n      0x20\n      add\n      0x00\n      keccak256\n        /* \"contracts/Test.sol\":7873:7893  users[_shop].balance */\n      0x01\n      add\n        /* \"contracts/Test.sol\":7873:7906  users[_shop].balance = totalPrice */\n      dup2\n      swap1\n      sstore\n      pop\n        /* \"contracts/Test.sol\":7933:7943  totalPrice */\n      dup2\n        /* \"contracts/Test.sol\":7921:7930  msg.value */\n      callvalue\n        /* \"contracts/Test.sol\":7921:7943  msg.value > totalPrice */\n      gt\n        /* \"contracts/Test.sol\":7917:8022  if (msg.value > totalPrice) {... */\n      iszero\n      tag_362\n      jumpi\n        /* \"contracts/Test.sol\":7967:7977  msg.sender */\n      caller\n        /* \"contracts/Test.sol\":7959:7987  payable(msg.sender).transfer */\n      0xffffffffffffffffffffffffffffffffffffffff\n      and\n        /* \"contracts/Test.sol\":7959:8011  payable(msg.sender).transfer(msg.value - totalPrice) */\n      0x08fc\n        /* \"contracts/Test.sol\":8000:8010  totalPrice */\n      dup4\n        /* \"contracts/Test.sol\":7988:7997  msg.value */\n      callvalue\n        /* \"contracts/Test.sol\":7988:8010  msg.value - totalPrice */\n      tag_363\n      swap2\n      swap1\n      tag_194\n      jump\t// in\n    tag_363:\n        /* \"contracts/Test.sol\":7959:8011  payable(msg.sender).transfer(msg.value - totalPrice) */\n      swap1\n      dup2\n      iszero\n      mul\n      swap1\n      mload(0x40)\n      0x00\n      mload(0x40)\n      dup1\n      dup4\n      sub\n      dup2\n      dup6\n      dup9\n      dup9\n      call\n      swap4\n      pop\n      pop\n      pop\n      pop\n      iszero\n      dup1\n      iszero\n      tag_365\n      jumpi\n      returndatasize\n      0x00\n      dup1\n      returndatacopy\n      revert(0x00, returndatasize)\n    tag_365:\n      pop\n        /* \"contracts/Test.sol\":7917:8022  if (msg.value > totalPrice) {... */\n    tag_362:\n        /* \"contracts/Test.sol\":6525:8028  {... */\n      pop\n      pop\n        /* \"contracts/Test.sol\":6432:8028  function purchase(address _shop, uint _amount, uint _id, string memory _ref ) public payable {... */\n      pop\n      pop\n      pop\n      pop\n      jump\t// out\n        /* \"contracts/Test.sol\":3225:3369  function genRef(string memory _nameRef, address _user) public {... */\n    tag_111:\n        /* \"contracts/Test.sol\":3319:3324  _user */\n      dup1\n        /* \"contracts/Test.sol\":3305:3324  msg.sender != _user */\n      0xffffffffffffffffffffffffffffffffffffffff\n      and\n        /* \"contracts/Test.sol\":3305:3315  msg.sender */\n      caller\n        /* \"contracts/Test.sol\":3305:3324  msg.sender != _user */\n      0xffffffffffffffffffffffffffffffffffffffff\n      and\n      sub\n        /* \"contracts/Test.sol\":3297:3325  require(msg.sender != _user) */\n      tag_367\n      jumpi\n      0x00\n      dup1\n      revert\n    tag_367:\n        /* \"contracts/Test.sol\":3357:3362  _user */\n      dup1\n        /* \"contracts/Test.sol\":3335:3344  referrals */\n      0x06\n        /* \"contracts/Test.sol\":3345:3353  _nameRef */\n      dup4\n        /* \"contracts/Test.sol\":3335:3354  referrals[_nameRef] */\n      mload(0x40)\n      tag_368\n      swap2\n      swap1\n      tag_317\n      jump\t// in\n    tag_368:\n      swap1\n      dup2\n      mstore\n      0x20\n      add\n      mload(0x40)\n      dup1\n      swap2\n      sub\n      swap1\n      keccak256\n      0x00\n        /* \"contracts/Test.sol\":3335:3362  referrals[_nameRef] = _user */\n      0x0100\n      exp\n      dup2\n      sload\n      dup2\n      0xffffffffffffffffffffffffffffffffffffffff\n      mul\n      not\n      and\n      swap1\n      dup4\n      0xffffffffffffffffffffffffffffffffffffffff\n      and\n      mul\n      or\n      swap1\n      sstore\n      pop\n        /* \"contracts/Test.sol\":3225:3369  function genRef(string memory _nameRef, address _user) public {... */\n      pop\n      pop\n      jump\t// out\n        /* \"contracts/Test.sol\":852:889  mapping(address => User) public users */\n    tag_116:\n      mstore(0x20, 0x02)\n      dup1\n      0x00\n      mstore\n      keccak256(0x00, 0x40)\n      0x00\n      swap2\n      pop\n      swap1\n      pop\n      dup1\n      0x00\n      add\n      0x00\n      swap1\n      sload\n      swap1\n      0x0100\n      exp\n      swap1\n      div\n      0xff\n      and\n      swap1\n      dup1\n      0x01\n      add\n      sload\n      swap1\n      pop\n      dup3\n      jump\t// out\n        /* \"contracts/Test.sol\":1751:1833  function makeUser() public {... */\n    tag_121:\n        /* \"contracts/Test.sol\":1808:1826  User(Role.User, 0) */\n      mload(0x40)\n      dup1\n      0x40\n      add\n      0x40\n      mstore\n      dup1\n        /* \"contracts/Test.sol\":1813:1822  Role.User */\n      0x00\n        /* \"contracts/Test.sol\":1808:1826  User(Role.User, 0) */\n      0x02\n      dup2\n      gt\n      iszero\n      tag_370\n      jumpi\n      tag_371\n      tag_159\n      jump\t// in\n    tag_371:\n    tag_370:\n      dup2\n      mstore\n      0x20\n      add\n        /* \"contracts/Test.sol\":1824:1825  0 */\n      0x00\n        /* \"contracts/Test.sol\":1808:1826  User(Role.User, 0) */\n      dup2\n      mstore\n      pop\n        /* \"contracts/Test.sol\":1788:1793  users */\n      0x02\n        /* \"contracts/Test.sol\":1788:1805  users[msg.sender] */\n      0x00\n        /* \"contracts/Test.sol\":1794:1804  msg.sender */\n      caller\n        /* \"contracts/Test.sol\":1788:1805  users[msg.sender] */\n      0xffffffffffffffffffffffffffffffffffffffff\n      and\n      0xffffffffffffffffffffffffffffffffffffffff\n      and\n      dup2\n      mstore\n      0x20\n      add\n      swap1\n      dup2\n      mstore\n      0x20\n      add\n      0x00\n      keccak256\n        /* \"contracts/Test.sol\":1788:1826  users[msg.sender] = User(Role.User, 0) */\n      0x00\n      dup3\n      add\n      mload\n      dup2\n      0x00\n      add\n      exp(0x0100, 0x00)\n      dup2\n      sload\n      dup2\n      0xff\n      mul\n      not\n      and\n      swap1\n      dup4\n      0x02\n      dup2\n      gt\n      iszero\n      tag_372\n      jumpi\n      tag_373\n      tag_159\n      jump\t// in\n    tag_373:\n    tag_372:\n      mul\n      or\n      swap1\n      sstore\n      pop\n      0x20\n      dup3\n      add\n      mload\n      dup2\n      0x01\n      add\n      sstore\n      swap1\n      pop\n      pop\n        /* \"contracts/Test.sol\":1751:1833  function makeUser() public {... */\n      jump\t// out\n        /* \"contracts/Test.sol\":1066:1109  mapping(string => address) public referrals */\n    tag_125:\n      0x06\n      dup2\n      dup1\n      mload\n      0x20\n      dup2\n      add\n      dup3\n      add\n      dup1\n      mload\n      dup5\n      dup3\n      mstore\n      0x20\n      dup4\n      add\n      0x20\n      dup6\n      add\n      keccak256\n      dup2\n      dup4\n      mstore\n      dup1\n      swap6\n      pop\n      pop\n      pop\n      pop\n      pop\n      pop\n      0x00\n      swap2\n      pop\n      sload\n      swap1\n      0x0100\n      exp\n      swap1\n      div\n      0xffffffffffffffffffffffffffffffffffffffff\n      and\n      dup2\n      jump\t// out\n        /* \"contracts/Test.sol\":8034:8139  function withdrawBal(address _shop) public {... */\n    tag_130:\n        /* \"contracts/Test.sol\":8095:8100  _shop */\n      dup1\n        /* \"contracts/Test.sol\":8087:8110  payable(_shop).transfer */\n      0xffffffffffffffffffffffffffffffffffffffff\n      and\n        /* \"contracts/Test.sol\":8087:8132  payable(_shop).transfer(users[_shop].balance) */\n      0x08fc\n        /* \"contracts/Test.sol\":8111:8116  users */\n      0x02\n        /* \"contracts/Test.sol\":8111:8123  users[_shop] */\n      0x00\n        /* \"contracts/Test.sol\":8117:8122  _shop */\n      dup5\n        /* \"contracts/Test.sol\":8111:8123  users[_shop] */\n      0xffffffffffffffffffffffffffffffffffffffff\n      and\n      0xffffffffffffffffffffffffffffffffffffffff\n      and\n      dup2\n      mstore\n      0x20\n      add\n      swap1\n      dup2\n      mstore\n      0x20\n      add\n      0x00\n      keccak256\n        /* \"contracts/Test.sol\":8111:8131  users[_shop].balance */\n      0x01\n      add\n      sload\n        /* \"contracts/Test.sol\":8087:8132  payable(_shop).transfer(users[_shop].balance) */\n      swap1\n      dup2\n      iszero\n      mul\n      swap1\n      mload(0x40)\n      0x00\n      mload(0x40)\n      dup1\n      dup4\n      sub\n      dup2\n      dup6\n      dup9\n      dup9\n      call\n      swap4\n      pop\n      pop\n      pop\n      pop\n      iszero\n      dup1\n      iszero\n      tag_376\n      jumpi\n      returndatasize\n      0x00\n      dup1\n      returndatacopy\n      revert(0x00, returndatasize)\n    tag_376:\n      pop\n        /* \"contracts/Test.sol\":8034:8139  function withdrawBal(address _shop) public {... */\n      pop\n      jump\t// out\n        /* \"contracts/Test.sol\":4549:5877  function refillStore(address _shop, uint _productId, uint _amount, address _supplier) public payable AccessControl(Role.Market, _shop) {... */\n    tag_134:\n        /* \"contracts/Test.sol\":4664:4675  Role.Market */\n      0x01\n        /* \"contracts/Test.sol\":4677:4682  _shop */\n      dup5\n        /* \"contracts/Test.sol\":1352:1357  _role */\n      dup2\n        /* \"contracts/Test.sol\":1326:1357  users[msg.sender].role == _role */\n      0x02\n      dup2\n      gt\n      iszero\n      tag_378\n      jumpi\n      tag_379\n      tag_159\n      jump\t// in\n    tag_379:\n    tag_378:\n        /* \"contracts/Test.sol\":1326:1331  users */\n      0x02\n        /* \"contracts/Test.sol\":1326:1343  users[msg.sender] */\n      0x00\n        /* \"contracts/Test.sol\":1332:1342  msg.sender */\n      caller\n        /* \"contracts/Test.sol\":1326:1343  users[msg.sender] */\n      0xffffffffffffffffffffffffffffffffffffffff\n      and\n      0xffffffffffffffffffffffffffffffffffffffff\n      and\n      dup2\n      mstore\n      0x20\n      add\n      swap1\n      dup2\n      mstore\n      0x20\n      add\n      0x00\n      keccak256\n        /* \"contracts/Test.sol\":1326:1348  users[msg.sender].role */\n      0x00\n      add\n      0x00\n      swap1\n      sload\n      swap1\n      0x0100\n      exp\n      swap1\n      div\n      0xff\n      and\n        /* \"contracts/Test.sol\":1326:1357  users[msg.sender].role == _role */\n      0x02\n      dup2\n      gt\n      iszero\n      tag_380\n      jumpi\n      tag_381\n      tag_159\n      jump\t// in\n    tag_381:\n    tag_380:\n      eq\n        /* \"contracts/Test.sol\":1318:1434  require(users[msg.sender].role == _role, unicode\"Ваша роль не позволяет это изменять\") */\n      tag_382\n      jumpi\n      mload(0x40)\n      0x08c379a000000000000000000000000000000000000000000000000000000000\n      dup2\n      mstore\n      0x04\n      add\n      tag_383\n      swap1\n      tag_283\n      jump\t// in\n    tag_383:\n      mload(0x40)\n      dup1\n      swap2\n      sub\n      swap1\n      revert\n    tag_382:\n        /* \"contracts/Test.sol\":1466:1471  _shop */\n      dup1\n        /* \"contracts/Test.sol\":1452:1471  msg.sender == _shop */\n      0xffffffffffffffffffffffffffffffffffffffff\n      and\n        /* \"contracts/Test.sol\":1452:1462  msg.sender */\n      caller\n        /* \"contracts/Test.sol\":1452:1471  msg.sender == _shop */\n      0xffffffffffffffffffffffffffffffffffffffff\n      and\n      eq\n        /* \"contracts/Test.sol\":1444:1550  require(msg.sender == _shop, unicode\"Магазин не соответсвует отправителю\") */\n      tag_384\n      jumpi\n      mload(0x40)\n      0x08c379a000000000000000000000000000000000000000000000000000000000\n      dup2\n      mstore\n      0x04\n      add\n      tag_385\n      swap1\n      tag_286\n      jump\t// in\n    tag_385:\n      mload(0x40)\n      dup1\n      swap2\n      sub\n      swap1\n      revert\n    tag_384:\n        /* \"contracts/Test.sol\":4712:4713  0 */\n      0x00\n        /* \"contracts/Test.sol\":4702:4709  _amount */\n      dup5\n        /* \"contracts/Test.sol\":4702:4713  _amount > 0 */\n      gt\n        /* \"contracts/Test.sol\":4694:4756  require(_amount > 0, \"Purchase amount must be greater than 0\") */\n      tag_387\n      jumpi\n      mload(0x40)\n      0x08c379a000000000000000000000000000000000000000000000000000000000\n      dup2\n      mstore\n      0x04\n      add\n      tag_388\n      swap1\n      tag_249\n      jump\t// in\n    tag_388:\n      mload(0x40)\n      dup1\n      swap2\n      sub\n      swap1\n      revert\n    tag_387:\n        /* \"contracts/Test.sol\":4787:4803  supplierProducts */\n      0x05\n        /* \"contracts/Test.sol\":4787:4814  supplierProducts[_supplier] */\n      0x00\n        /* \"contracts/Test.sol\":4804:4813  _supplier */\n      dup5\n        /* \"contracts/Test.sol\":4787:4814  supplierProducts[_supplier] */\n      0xffffffffffffffffffffffffffffffffffffffff\n      and\n      0xffffffffffffffffffffffffffffffffffffffff\n      and\n      dup2\n      mstore\n      0x20\n      add\n      swap1\n      dup2\n      mstore\n      0x20\n      add\n      0x00\n      keccak256\n        /* \"contracts/Test.sol\":4787:4821  supplierProducts[_supplier].length */\n      dup1\n      sload\n      swap1\n      pop\n        /* \"contracts/Test.sol\":4774:4784  _productId */\n      dup6\n        /* \"contracts/Test.sol\":4774:4821  _productId < supplierProducts[_supplier].length */\n      lt\n        /* \"contracts/Test.sol\":4766:4844  require(_productId < supplierProducts[_supplier].length, \"Invalid product ID\") */\n      tag_389\n      jumpi\n      mload(0x40)\n      0x08c379a000000000000000000000000000000000000000000000000000000000\n      dup2\n      mstore\n      0x04\n      add\n      tag_390\n      swap1\n      tag_252\n      jump\t// in\n    tag_390:\n      mload(0x40)\n      dup1\n      swap2\n      sub\n      swap1\n      revert\n    tag_389:\n        /* \"contracts/Test.sol\":4854:4864  uint price */\n      0x00\n        /* \"contracts/Test.sol\":4867:4883  supplierProducts */\n      0x05\n        /* \"contracts/Test.sol\":4867:4894  supplierProducts[_supplier] */\n      0x00\n        /* \"contracts/Test.sol\":4884:4893  _supplier */\n      dup6\n        /* \"contracts/Test.sol\":4867:4894  supplierProducts[_supplier] */\n      0xffffffffffffffffffffffffffffffffffffffff\n      and\n      0xffffffffffffffffffffffffffffffffffffffff\n      and\n      dup2\n      mstore\n      0x20\n      add\n      swap1\n      dup2\n      mstore\n      0x20\n      add\n      0x00\n      keccak256\n        /* \"contracts/Test.sol\":4895:4905  _productId */\n      dup7\n        /* \"contracts/Test.sol\":4867:4906  supplierProducts[_supplier][_productId] */\n      dup2\n      sload\n      dup2\n      lt\n      tag_391\n      jumpi\n      tag_392\n      tag_165\n      jump\t// in\n    tag_392:\n    tag_391:\n      swap1\n      0x00\n      mstore\n      keccak256(0x00, 0x20)\n      swap1\n      0x05\n      mul\n      add\n        /* \"contracts/Test.sol\":4867:4912  supplierProducts[_supplier][_productId].price */\n      0x02\n      add\n      sload\n        /* \"contracts/Test.sol\":4854:4912  uint price = supplierProducts[_supplier][_productId].price */\n      swap1\n      pop\n        /* \"contracts/Test.sol\":4922:4937  uint totalPrice */\n      0x00\n        /* \"contracts/Test.sol\":4958:4965  1 ether */\n      0x0de0b6b3a7640000\n        /* \"contracts/Test.sol\":4948:4955  _amount */\n      dup7\n        /* \"contracts/Test.sol\":4940:4945  price */\n      dup4\n        /* \"contracts/Test.sol\":4940:4955  price * _amount */\n      tag_394\n      swap2\n      swap1\n      tag_178\n      jump\t// in\n    tag_394:\n        /* \"contracts/Test.sol\":4940:4965  price * _amount * 1 ether */\n      tag_395\n      swap2\n      swap1\n      tag_178\n      jump\t// in\n    tag_395:\n        /* \"contracts/Test.sol\":4922:4965  uint totalPrice = price * _amount * 1 ether */\n      swap1\n      pop\n        /* \"contracts/Test.sol\":4996:5006  totalPrice */\n      dup1\n        /* \"contracts/Test.sol\":4983:4992  msg.value */\n      callvalue\n        /* \"contracts/Test.sol\":4983:5006  msg.value >= totalPrice */\n      lt\n      iszero\n        /* \"contracts/Test.sol\":4975:5034  require(msg.value >= totalPrice, \"Insufficient funds sent\") */\n      tag_396\n      jumpi\n      mload(0x40)\n      0x08c379a000000000000000000000000000000000000000000000000000000000\n      dup2\n      mstore\n      0x04\n      add\n      tag_397\n      swap1\n      tag_324\n      jump\t// in\n    tag_397:\n      mload(0x40)\n      dup1\n      swap2\n      sub\n      swap1\n      revert\n    tag_396:\n        /* \"contracts/Test.sol\":5044:5068  string memory targetName */\n      0x00\n        /* \"contracts/Test.sol\":5071:5087  supplierProducts */\n      0x05\n        /* \"contracts/Test.sol\":5071:5098  supplierProducts[_supplier] */\n      0x00\n        /* \"contracts/Test.sol\":5088:5097  _supplier */\n      dup8\n        /* \"contracts/Test.sol\":5071:5098  supplierProducts[_supplier] */\n      0xffffffffffffffffffffffffffffffffffffffff\n      and\n      0xffffffffffffffffffffffffffffffffffffffff\n      and\n      dup2\n      mstore\n      0x20\n      add\n      swap1\n      dup2\n      mstore\n      0x20\n      add\n      0x00\n      keccak256\n        /* \"contracts/Test.sol\":5099:5109  _productId */\n      dup9\n        /* \"contracts/Test.sol\":5071:5110  supplierProducts[_supplier][_productId] */\n      dup2\n      sload\n      dup2\n      lt\n      tag_398\n      jumpi\n      tag_399\n      tag_165\n      jump\t// in\n    tag_399:\n    tag_398:\n      swap1\n      0x00\n      mstore\n      keccak256(0x00, 0x20)\n      swap1\n      0x05\n      mul\n      add\n        /* \"contracts/Test.sol\":5071:5115  supplierProducts[_supplier][_productId].name */\n      0x03\n      add\n        /* \"contracts/Test.sol\":5044:5115  string memory targetName = supplierProducts[_supplier][_productId].name */\n      dup1\n      sload\n      tag_401\n      swap1\n      tag_144\n      jump\t// in\n    tag_401:\n      dup1\n      0x1f\n      add\n      0x20\n      dup1\n      swap2\n      div\n      mul\n      0x20\n      add\n      mload(0x40)\n      swap1\n      dup2\n      add\n      0x40\n      mstore\n      dup1\n      swap3\n      swap2\n      swap1\n      dup2\n      dup2\n      mstore\n      0x20\n      add\n      dup3\n      dup1\n      sload\n      tag_402\n      swap1\n      tag_144\n      jump\t// in\n    tag_402:\n      dup1\n      iszero\n      tag_403\n      jumpi\n      dup1\n      0x1f\n      lt\n      tag_404\n      jumpi\n      0x0100\n      dup1\n      dup4\n      sload\n      div\n      mul\n      dup4\n      mstore\n      swap2\n      0x20\n      add\n      swap2\n      jump(tag_403)\n    tag_404:\n      dup3\n      add\n      swap2\n      swap1\n      0x00\n      mstore\n      keccak256(0x00, 0x20)\n      swap1\n    tag_405:\n      dup2\n      sload\n      dup2\n      mstore\n      swap1\n      0x01\n      add\n      swap1\n      0x20\n      add\n      dup1\n      dup4\n      gt\n      tag_405\n      jumpi\n      dup3\n      swap1\n      sub\n      0x1f\n      and\n      dup3\n      add\n      swap2\n    tag_403:\n      pop\n      pop\n      pop\n      pop\n      pop\n      swap1\n      pop\n        /* \"contracts/Test.sol\":5125:5143  bool productExists */\n      0x00\n        /* \"contracts/Test.sol\":5166:5172  uint i */\n      dup1\n        /* \"contracts/Test.sol\":5162:5463  for(uint i = 0; i< marketProducts[_shop].length; i++){... */\n    tag_406:\n        /* \"contracts/Test.sol\":5181:5195  marketProducts */\n      0x04\n        /* \"contracts/Test.sol\":5181:5202  marketProducts[_shop] */\n      0x00\n        /* \"contracts/Test.sol\":5196:5201  _shop */\n      dup13\n        /* \"contracts/Test.sol\":5181:5202  marketProducts[_shop] */\n      0xffffffffffffffffffffffffffffffffffffffff\n      and\n      0xffffffffffffffffffffffffffffffffffffffff\n      and\n      dup2\n      mstore\n      0x20\n      add\n      swap1\n      dup2\n      mstore\n      0x20\n      add\n      0x00\n      keccak256\n        /* \"contracts/Test.sol\":5181:5209  marketProducts[_shop].length */\n      dup1\n      sload\n      swap1\n      pop\n        /* \"contracts/Test.sol\":5178:5179  i */\n      dup2\n        /* \"contracts/Test.sol\":5178:5209  i< marketProducts[_shop].length */\n      lt\n        /* \"contracts/Test.sol\":5162:5463  for(uint i = 0; i< marketProducts[_shop].length; i++){... */\n      iszero\n      tag_407\n      jumpi\n        /* \"contracts/Test.sol\":5281:5295  marketProducts */\n      0x04\n        /* \"contracts/Test.sol\":5281:5302  marketProducts[_shop] */\n      0x00\n        /* \"contracts/Test.sol\":5296:5301  _shop */\n      dup13\n        /* \"contracts/Test.sol\":5281:5302  marketProducts[_shop] */\n      0xffffffffffffffffffffffffffffffffffffffff\n      and\n      0xffffffffffffffffffffffffffffffffffffffff\n      and\n      dup2\n      mstore\n      0x20\n      add\n      swap1\n      dup2\n      mstore\n      0x20\n      add\n      0x00\n      keccak256\n        /* \"contracts/Test.sol\":5303:5304  i */\n      dup2\n        /* \"contracts/Test.sol\":5281:5305  marketProducts[_shop][i] */\n      dup2\n      sload\n      dup2\n      lt\n      tag_409\n      jumpi\n      tag_410\n      tag_165\n      jump\t// in\n    tag_410:\n    tag_409:\n      swap1\n      0x00\n      mstore\n      keccak256(0x00, 0x20)\n      swap1\n      0x05\n      mul\n      add\n        /* \"contracts/Test.sol\":5281:5310  marketProducts[_shop][i].name */\n      0x03\n      add\n        /* \"contracts/Test.sol\":5265:5312  keccak256(bytes(marketProducts[_shop][i].name)) */\n      mload(0x40)\n      tag_412\n      swap2\n      swap1\n      tag_332\n      jump\t// in\n    tag_412:\n      mload(0x40)\n      dup1\n      swap2\n      sub\n      swap1\n      keccak256\n        /* \"contracts/Test.sol\":5249:5259  targetName */\n      dup4\n        /* \"contracts/Test.sol\":5233:5261  keccak256(bytes(targetName)) */\n      dup1\n      mload\n      swap1\n      0x20\n      add\n      keccak256\n        /* \"contracts/Test.sol\":5233:5312  keccak256(bytes(targetName)) == keccak256(bytes(marketProducts[_shop][i].name)) */\n      sub\n        /* \"contracts/Test.sol\":5229:5453  if (keccak256(bytes(targetName)) == keccak256(bytes(marketProducts[_shop][i].name))){... */\n      tag_413\n      jumpi\n        /* \"contracts/Test.sol\":5367:5374  _amount */\n      dup9\n        /* \"contracts/Test.sol\":5331:5345  marketProducts */\n      0x04\n        /* \"contracts/Test.sol\":5331:5352  marketProducts[_shop] */\n      0x00\n        /* \"contracts/Test.sol\":5346:5351  _shop */\n      dup14\n        /* \"contracts/Test.sol\":5331:5352  marketProducts[_shop] */\n      0xffffffffffffffffffffffffffffffffffffffff\n      and\n      0xffffffffffffffffffffffffffffffffffffffff\n      and\n      dup2\n      mstore\n      0x20\n      add\n      swap1\n      dup2\n      mstore\n      0x20\n      add\n      0x00\n      keccak256\n        /* \"contracts/Test.sol\":5353:5354  i */\n      dup3\n        /* \"contracts/Test.sol\":5331:5355  marketProducts[_shop][i] */\n      dup2\n      sload\n      dup2\n      lt\n      tag_414\n      jumpi\n      tag_415\n      tag_165\n      jump\t// in\n    tag_415:\n    tag_414:\n      swap1\n      0x00\n      mstore\n      keccak256(0x00, 0x20)\n      swap1\n      0x05\n      mul\n      add\n        /* \"contracts/Test.sol\":5331:5363  marketProducts[_shop][i].inStock */\n      0x01\n      add\n      0x00\n        /* \"contracts/Test.sol\":5331:5374  marketProducts[_shop][i].inStock += _amount */\n      dup3\n      dup3\n      sload\n      tag_417\n      swap2\n      swap1\n      tag_187\n      jump\t// in\n    tag_417:\n      swap3\n      pop\n      pop\n      dup2\n      swap1\n      sstore\n      pop\n        /* \"contracts/Test.sol\":5408:5412  true */\n      0x01\n        /* \"contracts/Test.sol\":5392:5412  productExists = true */\n      swap2\n      pop\n        /* \"contracts/Test.sol\":5430:5435  break */\n      jump(tag_407)\n        /* \"contracts/Test.sol\":5229:5453  if (keccak256(bytes(targetName)) == keccak256(bytes(marketProducts[_shop][i].name))){... */\n    tag_413:\n        /* \"contracts/Test.sol\":5211:5214  i++ */\n      dup1\n      dup1\n      tag_418\n      swap1\n      tag_229\n      jump\t// in\n    tag_418:\n      swap2\n      pop\n      pop\n        /* \"contracts/Test.sol\":5162:5463  for(uint i = 0; i< marketProducts[_shop].length; i++){... */\n      jump(tag_406)\n    tag_407:\n      pop\n        /* \"contracts/Test.sol\":5478:5491  productExists */\n      dup1\n        /* \"contracts/Test.sol\":5473:5686  if (!productExists){... */\n      tag_419\n      jumpi\n        /* \"contracts/Test.sol\":5506:5528  Product memory newItem */\n      0x00\n        /* \"contracts/Test.sol\":5531:5626  Product(_supplier, _amount, price, targetName, supplierProducts[_supplier][_productId].expDate) */\n      mload(0x40)\n      dup1\n      0xa0\n      add\n      0x40\n      mstore\n      dup1\n        /* \"contracts/Test.sol\":5539:5548  _supplier */\n      dup10\n        /* \"contracts/Test.sol\":5531:5626  Product(_supplier, _amount, price, targetName, supplierProducts[_supplier][_productId].expDate) */\n      0xffffffffffffffffffffffffffffffffffffffff\n      and\n      dup2\n      mstore\n      0x20\n      add\n        /* \"contracts/Test.sol\":5550:5557  _amount */\n      dup11\n        /* \"contracts/Test.sol\":5531:5626  Product(_supplier, _amount, price, targetName, supplierProducts[_supplier][_productId].expDate) */\n      dup2\n      mstore\n      0x20\n      add\n        /* \"contracts/Test.sol\":5559:5564  price */\n      dup7\n        /* \"contracts/Test.sol\":5531:5626  Product(_supplier, _amount, price, targetName, supplierProducts[_supplier][_productId].expDate) */\n      dup2\n      mstore\n      0x20\n      add\n        /* \"contracts/Test.sol\":5566:5576  targetName */\n      dup5\n        /* \"contracts/Test.sol\":5531:5626  Product(_supplier, _amount, price, targetName, supplierProducts[_supplier][_productId].expDate) */\n      dup2\n      mstore\n      0x20\n      add\n        /* \"contracts/Test.sol\":5578:5594  supplierProducts */\n      0x05\n        /* \"contracts/Test.sol\":5578:5605  supplierProducts[_supplier] */\n      0x00\n        /* \"contracts/Test.sol\":5595:5604  _supplier */\n      dup12\n        /* \"contracts/Test.sol\":5578:5605  supplierProducts[_supplier] */\n      0xffffffffffffffffffffffffffffffffffffffff\n      and\n      0xffffffffffffffffffffffffffffffffffffffff\n      and\n      dup2\n      mstore\n      0x20\n      add\n      swap1\n      dup2\n      mstore\n      0x20\n      add\n      0x00\n      keccak256\n        /* \"contracts/Test.sol\":5606:5616  _productId */\n      dup13\n        /* \"contracts/Test.sol\":5578:5617  supplierProducts[_supplier][_productId] */\n      dup2\n      sload\n      dup2\n      lt\n      tag_420\n      jumpi\n      tag_421\n      tag_165\n      jump\t// in\n    tag_421:\n    tag_420:\n      swap1\n      0x00\n      mstore\n      keccak256(0x00, 0x20)\n      swap1\n      0x05\n      mul\n      add\n        /* \"contracts/Test.sol\":5578:5625  supplierProducts[_supplier][_productId].expDate */\n      0x04\n      add\n      sload\n        /* \"contracts/Test.sol\":5531:5626  Product(_supplier, _amount, price, targetName, supplierProducts[_supplier][_productId].expDate) */\n      dup2\n      mstore\n      pop\n        /* \"contracts/Test.sol\":5506:5626  Product memory newItem = Product(_supplier, _amount, price, targetName, supplierProducts[_supplier][_productId].expDate) */\n      swap1\n      pop\n        /* \"contracts/Test.sol\":5640:5654  marketProducts */\n      0x04\n        /* \"contracts/Test.sol\":5640:5661  marketProducts[_shop] */\n      0x00\n        /* \"contracts/Test.sol\":5655:5660  _shop */\n      dup13\n        /* \"contracts/Test.sol\":5640:5661  marketProducts[_shop] */\n      0xffffffffffffffffffffffffffffffffffffffff\n      and\n      0xffffffffffffffffffffffffffffffffffffffff\n      and\n      dup2\n      mstore\n      0x20\n      add\n      swap1\n      dup2\n      mstore\n      0x20\n      add\n      0x00\n      keccak256\n        /* \"contracts/Test.sol\":5667:5674  newItem */\n      dup2\n        /* \"contracts/Test.sol\":5640:5675  marketProducts[_shop].push(newItem) */\n      swap1\n      dup1\n      0x01\n      dup2\n      sload\n      add\n      dup1\n      dup3\n      sstore\n      dup1\n      swap2\n      pop\n      pop\n      0x01\n      swap1\n      sub\n      swap1\n      0x00\n      mstore\n      keccak256(0x00, 0x20)\n      swap1\n      0x05\n      mul\n      add\n      0x00\n      swap1\n      swap2\n      swap1\n      swap2\n      swap1\n      swap2\n      pop\n      0x00\n      dup3\n      add\n      mload\n      dup2\n      0x00\n      add\n      exp(0x0100, 0x00)\n      dup2\n      sload\n      dup2\n      0xffffffffffffffffffffffffffffffffffffffff\n      mul\n      not\n      and\n      swap1\n      dup4\n      0xffffffffffffffffffffffffffffffffffffffff\n      and\n      mul\n      or\n      swap1\n      sstore\n      pop\n      0x20\n      dup3\n      add\n      mload\n      dup2\n      0x01\n      add\n      sstore\n      0x40\n      dup3\n      add\n      mload\n      dup2\n      0x02\n      add\n      sstore\n      0x60\n      dup3\n      add\n      mload\n      dup2\n      0x03\n      add\n      swap1\n      dup2\n      tag_424\n      swap2\n      swap1\n      tag_140\n      jump\t// in\n    tag_424:\n      pop\n      0x80\n      dup3\n      add\n      mload\n      dup2\n      0x04\n      add\n      sstore\n      pop\n      pop\n        /* \"contracts/Test.sol\":5492:5686  {... */\n      pop\n        /* \"contracts/Test.sol\":5473:5686  if (!productExists){... */\n    tag_419:\n        /* \"contracts/Test.sol\":5747:5754  _amount */\n      dup8\n        /* \"contracts/Test.sol\":5696:5712  supplierProducts */\n      0x05\n        /* \"contracts/Test.sol\":5696:5723  supplierProducts[_supplier] */\n      0x00\n        /* \"contracts/Test.sol\":5713:5722  _supplier */\n      dup10\n        /* \"contracts/Test.sol\":5696:5723  supplierProducts[_supplier] */\n      0xffffffffffffffffffffffffffffffffffffffff\n      and\n      0xffffffffffffffffffffffffffffffffffffffff\n      and\n      dup2\n      mstore\n      0x20\n      add\n      swap1\n      dup2\n      mstore\n      0x20\n      add\n      0x00\n      keccak256\n        /* \"contracts/Test.sol\":5724:5734  _productId */\n      dup11\n        /* \"contracts/Test.sol\":5696:5735  supplierProducts[_supplier][_productId] */\n      dup2\n      sload\n      dup2\n      lt\n      tag_425\n      jumpi\n      tag_426\n      tag_165\n      jump\t// in\n    tag_426:\n    tag_425:\n      swap1\n      0x00\n      mstore\n      keccak256(0x00, 0x20)\n      swap1\n      0x05\n      mul\n      add\n        /* \"contracts/Test.sol\":5696:5743  supplierProducts[_supplier][_productId].inStock */\n      0x01\n      add\n      0x00\n        /* \"contracts/Test.sol\":5696:5754  supplierProducts[_supplier][_productId].inStock -= _amount */\n      dup3\n      dup3\n      sload\n      tag_428\n      swap2\n      swap1\n      tag_194\n      jump\t// in\n    tag_428:\n      swap3\n      pop\n      pop\n      dup2\n      swap1\n      sstore\n      pop\n        /* \"contracts/Test.sol\":5781:5791  totalPrice */\n      dup3\n        /* \"contracts/Test.sol\":5769:5778  msg.value */\n      callvalue\n        /* \"contracts/Test.sol\":5769:5791  msg.value > totalPrice */\n      gt\n        /* \"contracts/Test.sol\":5765:5870  if (msg.value > totalPrice) {... */\n      iszero\n      tag_429\n      jumpi\n        /* \"contracts/Test.sol\":5815:5825  msg.sender */\n      caller\n        /* \"contracts/Test.sol\":5807:5835  payable(msg.sender).transfer */\n      0xffffffffffffffffffffffffffffffffffffffff\n      and\n        /* \"contracts/Test.sol\":5807:5859  payable(msg.sender).transfer(msg.value - totalPrice) */\n      0x08fc\n        /* \"contracts/Test.sol\":5848:5858  totalPrice */\n      dup5\n        /* \"contracts/Test.sol\":5836:5845  msg.value */\n      callvalue\n        /* \"contracts/Test.sol\":5836:5858  msg.value - totalPrice */\n      tag_430\n      swap2\n      swap1\n      tag_194\n      jump\t// in\n    tag_430:\n        /* \"contracts/Test.sol\":5807:5859  payable(msg.sender).transfer(msg.value - totalPrice) */\n      swap1\n      dup2\n      iszero\n      mul\n      swap1\n      mload(0x40)\n      0x00\n      mload(0x40)\n      dup1\n      dup4\n      sub\n      dup2\n      dup6\n      dup9\n      dup9\n      call\n      swap4\n      pop\n      pop\n      pop\n      pop\n      iszero\n      dup1\n      iszero\n      tag_432\n      jumpi\n      returndatasize\n      0x00\n      dup1\n      returndatacopy\n      revert(0x00, returndatasize)\n    tag_432:\n      pop\n        /* \"contracts/Test.sol\":5765:5870  if (msg.value > totalPrice) {... */\n    tag_429:\n        /* \"contracts/Test.sol\":4684:5877  {... */\n      pop\n      pop\n      pop\n      pop\n        /* \"contracts/Test.sol\":4549:5877  function refillStore(address _shop, uint _productId, uint _amount, address _supplier) public payable AccessControl(Role.Market, _shop) {... */\n      pop\n      pop\n      pop\n      pop\n      pop\n      pop\n      jump\t// out\n    tag_192:\n      pop\n      dup1\n      sload\n      tag_433\n      swap1\n      tag_144\n      jump\t// in\n    tag_433:\n      0x00\n      dup3\n      sstore\n      dup1\n      0x1f\n      lt\n      tag_435\n      jumpi\n      pop\n      jump(tag_434)\n    tag_435:\n      0x1f\n      add\n      0x20\n      swap1\n      div\n      swap1\n      0x00\n      mstore\n      keccak256(0x00, 0x20)\n      swap1\n      dup2\n      add\n      swap1\n      tag_436\n      swap2\n      swap1\n      tag_437\n      jump\t// in\n    tag_436:\n    tag_434:\n      pop\n      jump\t// out\n    tag_437:\n    tag_438:\n      dup1\n      dup3\n      gt\n      iszero\n      tag_439\n      jumpi\n      0x00\n      dup2\n      0x00\n      swap1\n      sstore\n      pop\n      0x01\n      add\n      jump(tag_438)\n    tag_439:\n      pop\n      swap1\n      jump\t// out\n        /* \"#utility.yul\":7:82   */\n    tag_440:\n        /* \"#utility.yul\":40:46   */\n      0x00\n        /* \"#utility.yul\":73:75   */\n      0x40\n        /* \"#utility.yul\":67:76   */\n      mload\n        /* \"#utility.yul\":57:76   */\n      swap1\n      pop\n        /* \"#utility.yul\":7:82   */\n      swap1\n      jump\t// out\n        /* \"#utility.yul\":88:205   */\n    tag_441:\n        /* \"#utility.yul\":197:198   */\n      0x00\n        /* \"#utility.yul\":194:195   */\n      dup1\n        /* \"#utility.yul\":187:199   */\n      revert\n        /* \"#utility.yul\":211:328   */\n    tag_442:\n        /* \"#utility.yul\":320:321   */\n      0x00\n        /* \"#utility.yul\":317:318   */\n      dup1\n        /* \"#utility.yul\":310:322   */\n      revert\n        /* \"#utility.yul\":334:411   */\n    tag_443:\n        /* \"#utility.yul\":371:378   */\n      0x00\n        /* \"#utility.yul\":400:405   */\n      dup2\n        /* \"#utility.yul\":389:405   */\n      swap1\n      pop\n        /* \"#utility.yul\":334:411   */\n      swap2\n      swap1\n      pop\n      jump\t// out\n        /* \"#utility.yul\":417:539   */\n    tag_444:\n        /* \"#utility.yul\":490:514   */\n      tag_525\n        /* \"#utility.yul\":508:513   */\n      dup2\n        /* \"#utility.yul\":490:514   */\n      tag_443\n      jump\t// in\n    tag_525:\n        /* \"#utility.yul\":483:488   */\n      dup2\n        /* \"#utility.yul\":480:515   */\n      eq\n        /* \"#utility.yul\":470:533   */\n      tag_526\n      jumpi\n        /* \"#utility.yul\":529:530   */\n      0x00\n        /* \"#utility.yul\":526:527   */\n      dup1\n        /* \"#utility.yul\":519:531   */\n      revert\n        /* \"#utility.yul\":470:533   */\n    tag_526:\n        /* \"#utility.yul\":417:539   */\n      pop\n      jump\t// out\n        /* \"#utility.yul\":545:684   */\n    tag_445:\n        /* \"#utility.yul\":591:596   */\n      0x00\n        /* \"#utility.yul\":629:635   */\n      dup2\n        /* \"#utility.yul\":616:636   */\n      calldataload\n        /* \"#utility.yul\":607:636   */\n      swap1\n      pop\n        /* \"#utility.yul\":645:678   */\n      tag_528\n        /* \"#utility.yul\":672:677   */\n      dup2\n        /* \"#utility.yul\":645:678   */\n      tag_444\n      jump\t// in\n    tag_528:\n        /* \"#utility.yul\":545:684   */\n      swap3\n      swap2\n      pop\n      pop\n      jump\t// out\n        /* \"#utility.yul\":690:807   */\n    tag_446:\n        /* \"#utility.yul\":799:800   */\n      0x00\n        /* \"#utility.yul\":796:797   */\n      dup1\n        /* \"#utility.yul\":789:801   */\n      revert\n        /* \"#utility.yul\":813:930   */\n    tag_447:\n        /* \"#utility.yul\":922:923   */\n      0x00\n        /* \"#utility.yul\":919:920   */\n      dup1\n        /* \"#utility.yul\":912:924   */\n      revert\n        /* \"#utility.yul\":936:1053   */\n    tag_448:\n        /* \"#utility.yul\":1045:1046   */\n      0x00\n        /* \"#utility.yul\":1042:1043   */\n      dup1\n        /* \"#utility.yul\":1035:1047   */\n      revert\n        /* \"#utility.yul\":1073:1626   */\n    tag_449:\n        /* \"#utility.yul\":1131:1139   */\n      0x00\n        /* \"#utility.yul\":1141:1147   */\n      dup1\n        /* \"#utility.yul\":1191:1194   */\n      dup4\n        /* \"#utility.yul\":1184:1188   */\n      0x1f\n        /* \"#utility.yul\":1176:1182   */\n      dup5\n        /* \"#utility.yul\":1172:1189   */\n      add\n        /* \"#utility.yul\":1168:1195   */\n      slt\n        /* \"#utility.yul\":1158:1280   */\n      tag_533\n      jumpi\n        /* \"#utility.yul\":1199:1278   */\n      tag_534\n      tag_446\n      jump\t// in\n    tag_534:\n        /* \"#utility.yul\":1158:1280   */\n    tag_533:\n        /* \"#utility.yul\":1312:1318   */\n      dup3\n        /* \"#utility.yul\":1299:1319   */\n      calldataload\n        /* \"#utility.yul\":1289:1319   */\n      swap1\n      pop\n        /* \"#utility.yul\":1342:1360   */\n      0xffffffffffffffff\n        /* \"#utility.yul\":1334:1340   */\n      dup2\n        /* \"#utility.yul\":1331:1361   */\n      gt\n        /* \"#utility.yul\":1328:1445   */\n      iszero\n      tag_535\n      jumpi\n        /* \"#utility.yul\":1364:1443   */\n      tag_536\n      tag_447\n      jump\t// in\n    tag_536:\n        /* \"#utility.yul\":1328:1445   */\n    tag_535:\n        /* \"#utility.yul\":1478:1482   */\n      0x20\n        /* \"#utility.yul\":1470:1476   */\n      dup4\n        /* \"#utility.yul\":1466:1483   */\n      add\n        /* \"#utility.yul\":1454:1483   */\n      swap2\n      pop\n        /* \"#utility.yul\":1532:1535   */\n      dup4\n        /* \"#utility.yul\":1524:1528   */\n      0x01\n        /* \"#utility.yul\":1516:1522   */\n      dup3\n        /* \"#utility.yul\":1512:1529   */\n      mul\n        /* \"#utility.yul\":1502:1510   */\n      dup4\n        /* \"#utility.yul\":1498:1530   */\n      add\n        /* \"#utility.yul\":1495:1536   */\n      gt\n        /* \"#utility.yul\":1492:1620   */\n      iszero\n      tag_537\n      jumpi\n        /* \"#utility.yul\":1539:1618   */\n      tag_538\n      tag_448\n      jump\t// in\n    tag_538:\n        /* \"#utility.yul\":1492:1620   */\n    tag_537:\n        /* \"#utility.yul\":1073:1626   */\n      swap3\n      pop\n      swap3\n      swap1\n      pop\n      jump\t// out\n        /* \"#utility.yul\":1632:2597   */\n    tag_30:\n        /* \"#utility.yul\":1730:1736   */\n      0x00\n        /* \"#utility.yul\":1738:1744   */\n      dup1\n        /* \"#utility.yul\":1746:1752   */\n      0x00\n        /* \"#utility.yul\":1754:1760   */\n      dup1\n        /* \"#utility.yul\":1762:1768   */\n      0x00\n        /* \"#utility.yul\":1811:1814   */\n      0x80\n        /* \"#utility.yul\":1799:1808   */\n      dup7\n        /* \"#utility.yul\":1790:1797   */\n      dup9\n        /* \"#utility.yul\":1786:1809   */\n      sub\n        /* \"#utility.yul\":1782:1815   */\n      slt\n        /* \"#utility.yul\":1779:1899   */\n      iszero\n      tag_540\n      jumpi\n        /* \"#utility.yul\":1818:1897   */\n      tag_541\n      tag_441\n      jump\t// in\n    tag_541:\n        /* \"#utility.yul\":1779:1899   */\n    tag_540:\n        /* \"#utility.yul\":1938:1939   */\n      0x00\n        /* \"#utility.yul\":1963:2016   */\n      tag_542\n        /* \"#utility.yul\":2008:2015   */\n      dup9\n        /* \"#utility.yul\":1999:2005   */\n      dup3\n        /* \"#utility.yul\":1988:1997   */\n      dup10\n        /* \"#utility.yul\":1984:2006   */\n      add\n        /* \"#utility.yul\":1963:2016   */\n      tag_445\n      jump\t// in\n    tag_542:\n        /* \"#utility.yul\":1953:2016   */\n      swap6\n      pop\n        /* \"#utility.yul\":1909:2026   */\n      pop\n        /* \"#utility.yul\":2065:2067   */\n      0x20\n        /* \"#utility.yul\":2091:2144   */\n      tag_543\n        /* \"#utility.yul\":2136:2143   */\n      dup9\n        /* \"#utility.yul\":2127:2133   */\n      dup3\n        /* \"#utility.yul\":2116:2125   */\n      dup10\n        /* \"#utility.yul\":2112:2134   */\n      add\n        /* \"#utility.yul\":2091:2144   */\n      tag_445\n      jump\t// in\n    tag_543:\n        /* \"#utility.yul\":2081:2144   */\n      swap5\n      pop\n        /* \"#utility.yul\":2036:2154   */\n      pop\n        /* \"#utility.yul\":2221:2223   */\n      0x40\n        /* \"#utility.yul\":2210:2219   */\n      dup7\n        /* \"#utility.yul\":2206:2224   */\n      add\n        /* \"#utility.yul\":2193:2225   */\n      calldataload\n        /* \"#utility.yul\":2252:2270   */\n      0xffffffffffffffff\n        /* \"#utility.yul\":2244:2250   */\n      dup2\n        /* \"#utility.yul\":2241:2271   */\n      gt\n        /* \"#utility.yul\":2238:2355   */\n      iszero\n      tag_544\n      jumpi\n        /* \"#utility.yul\":2274:2353   */\n      tag_545\n      tag_442\n      jump\t// in\n    tag_545:\n        /* \"#utility.yul\":2238:2355   */\n    tag_544:\n        /* \"#utility.yul\":2387:2452   */\n      tag_546\n        /* \"#utility.yul\":2444:2451   */\n      dup9\n        /* \"#utility.yul\":2435:2441   */\n      dup3\n        /* \"#utility.yul\":2424:2433   */\n      dup10\n        /* \"#utility.yul\":2420:2442   */\n      add\n        /* \"#utility.yul\":2387:2452   */\n      tag_449\n      jump\t// in\n    tag_546:\n        /* \"#utility.yul\":2369:2452   */\n      swap4\n      pop\n      swap4\n      pop\n        /* \"#utility.yul\":2164:2462   */\n      pop\n        /* \"#utility.yul\":2501:2503   */\n      0x60\n        /* \"#utility.yul\":2527:2580   */\n      tag_547\n        /* \"#utility.yul\":2572:2579   */\n      dup9\n        /* \"#utility.yul\":2563:2569   */\n      dup3\n        /* \"#utility.yul\":2552:2561   */\n      dup10\n        /* \"#utility.yul\":2548:2570   */\n      add\n        /* \"#utility.yul\":2527:2580   */\n      tag_445\n      jump\t// in\n    tag_547:\n        /* \"#utility.yul\":2517:2580   */\n      swap2\n      pop\n        /* \"#utility.yul\":2472:2590   */\n      pop\n        /* \"#utility.yul\":1632:2597   */\n      swap3\n      swap6\n      pop\n      swap3\n      swap6\n      swap1\n      swap4\n      pop\n      jump\t// out\n        /* \"#utility.yul\":2603:2729   */\n    tag_450:\n        /* \"#utility.yul\":2640:2647   */\n      0x00\n        /* \"#utility.yul\":2680:2722   */\n      0xffffffffffffffffffffffffffffffffffffffff\n        /* \"#utility.yul\":2673:2678   */\n      dup3\n        /* \"#utility.yul\":2669:2723   */\n      and\n        /* \"#utility.yul\":2658:2723   */\n      swap1\n      pop\n        /* \"#utility.yul\":2603:2729   */\n      swap2\n      swap1\n      pop\n      jump\t// out\n        /* \"#utility.yul\":2735:2831   */\n    tag_451:\n        /* \"#utility.yul\":2772:2779   */\n      0x00\n        /* \"#utility.yul\":2801:2825   */\n      tag_550\n        /* \"#utility.yul\":2819:2824   */\n      dup3\n        /* \"#utility.yul\":2801:2825   */\n      tag_450\n      jump\t// in\n    tag_550:\n        /* \"#utility.yul\":2790:2825   */\n      swap1\n      pop\n        /* \"#utility.yul\":2735:2831   */\n      swap2\n      swap1\n      pop\n      jump\t// out\n        /* \"#utility.yul\":2837:2959   */\n    tag_452:\n        /* \"#utility.yul\":2910:2934   */\n      tag_552\n        /* \"#utility.yul\":2928:2933   */\n      dup2\n        /* \"#utility.yul\":2910:2934   */\n      tag_451\n      jump\t// in\n    tag_552:\n        /* \"#utility.yul\":2903:2908   */\n      dup2\n        /* \"#utility.yul\":2900:2935   */\n      eq\n        /* \"#utility.yul\":2890:2953   */\n      tag_553\n      jumpi\n        /* \"#utility.yul\":2949:2950   */\n      0x00\n        /* \"#utility.yul\":2946:2947   */\n      dup1\n        /* \"#utility.yul\":2939:2951   */\n      revert\n        /* \"#utility.yul\":2890:2953   */\n    tag_553:\n        /* \"#utility.yul\":2837:2959   */\n      pop\n      jump\t// out\n        /* \"#utility.yul\":2965:3104   */\n    tag_453:\n        /* \"#utility.yul\":3011:3016   */\n      0x00\n        /* \"#utility.yul\":3049:3055   */\n      dup2\n        /* \"#utility.yul\":3036:3056   */\n      calldataload\n        /* \"#utility.yul\":3027:3056   */\n      swap1\n      pop\n        /* \"#utility.yul\":3065:3098   */\n      tag_555\n        /* \"#utility.yul\":3092:3097   */\n      dup2\n        /* \"#utility.yul\":3065:3098   */\n      tag_452\n      jump\t// in\n    tag_555:\n        /* \"#utility.yul\":2965:3104   */\n      swap3\n      swap2\n      pop\n      pop\n      jump\t// out\n        /* \"#utility.yul\":3110:3584   */\n    tag_35:\n        /* \"#utility.yul\":3178:3184   */\n      0x00\n        /* \"#utility.yul\":3186:3192   */\n      dup1\n        /* \"#utility.yul\":3235:3237   */\n      0x40\n        /* \"#utility.yul\":3223:3232   */\n      dup4\n        /* \"#utility.yul\":3214:3221   */\n      dup6\n        /* \"#utility.yul\":3210:3233   */\n      sub\n        /* \"#utility.yul\":3206:3238   */\n      slt\n        /* \"#utility.yul\":3203:3322   */\n      iszero\n      tag_557\n      jumpi\n        /* \"#utility.yul\":3241:3320   */\n      tag_558\n      tag_441\n      jump\t// in\n    tag_558:\n        /* \"#utility.yul\":3203:3322   */\n    tag_557:\n        /* \"#utility.yul\":3361:3362   */\n      0x00\n        /* \"#utility.yul\":3386:3439   */\n      tag_559\n        /* \"#utility.yul\":3431:3438   */\n      dup6\n        /* \"#utility.yul\":3422:3428   */\n      dup3\n        /* \"#utility.yul\":3411:3420   */\n      dup7\n        /* \"#utility.yul\":3407:3429   */\n      add\n        /* \"#utility.yul\":3386:3439   */\n      tag_453\n      jump\t// in\n    tag_559:\n        /* \"#utility.yul\":3376:3439   */\n      swap3\n      pop\n        /* \"#utility.yul\":3332:3449   */\n      pop\n        /* \"#utility.yul\":3488:3490   */\n      0x20\n        /* \"#utility.yul\":3514:3567   */\n      tag_560\n        /* \"#utility.yul\":3559:3566   */\n      dup6\n        /* \"#utility.yul\":3550:3556   */\n      dup3\n        /* \"#utility.yul\":3539:3548   */\n      dup7\n        /* \"#utility.yul\":3535:3557   */\n      add\n        /* \"#utility.yul\":3514:3567   */\n      tag_445\n      jump\t// in\n    tag_560:\n        /* \"#utility.yul\":3504:3567   */\n      swap2\n      pop\n        /* \"#utility.yul\":3459:3577   */\n      pop\n        /* \"#utility.yul\":3110:3584   */\n      swap3\n      pop\n      swap3\n      swap1\n      pop\n      jump\t// out\n        /* \"#utility.yul\":3590:3708   */\n    tag_454:\n        /* \"#utility.yul\":3677:3701   */\n      tag_562\n        /* \"#utility.yul\":3695:3700   */\n      dup2\n        /* \"#utility.yul\":3677:3701   */\n      tag_451\n      jump\t// in\n    tag_562:\n        /* \"#utility.yul\":3672:3675   */\n      dup3\n        /* \"#utility.yul\":3665:3702   */\n      mstore\n        /* \"#utility.yul\":3590:3708   */\n      pop\n      pop\n      jump\t// out\n        /* \"#utility.yul\":3714:3832   */\n    tag_455:\n        /* \"#utility.yul\":3801:3825   */\n      tag_564\n        /* \"#utility.yul\":3819:3824   */\n      dup2\n        /* \"#utility.yul\":3801:3825   */\n      tag_443\n      jump\t// in\n    tag_564:\n        /* \"#utility.yul\":3796:3799   */\n      dup3\n        /* \"#utility.yul\":3789:3826   */\n      mstore\n        /* \"#utility.yul\":3714:3832   */\n      pop\n      pop\n      jump\t// out\n        /* \"#utility.yul\":3838:3937   */\n    tag_456:\n        /* \"#utility.yul\":3890:3896   */\n      0x00\n        /* \"#utility.yul\":3924:3929   */\n      dup2\n        /* \"#utility.yul\":3918:3930   */\n      mload\n        /* \"#utility.yul\":3908:3930   */\n      swap1\n      pop\n        /* \"#utility.yul\":3838:3937   */\n      swap2\n      swap1\n      pop\n      jump\t// out\n        /* \"#utility.yul\":3943:4112   */\n    tag_457:\n        /* \"#utility.yul\":4027:4038   */\n      0x00\n        /* \"#utility.yul\":4061:4067   */\n      dup3\n        /* \"#utility.yul\":4056:4059   */\n      dup3\n        /* \"#utility.yul\":4049:4068   */\n      mstore\n        /* \"#utility.yul\":4101:4105   */\n      0x20\n        /* \"#utility.yul\":4096:4099   */\n      dup3\n        /* \"#utility.yul\":4092:4106   */\n      add\n        /* \"#utility.yul\":4077:4106   */\n      swap1\n      pop\n        /* \"#utility.yul\":3943:4112   */\n      swap3\n      swap2\n      pop\n      pop\n      jump\t// out\n        /* \"#utility.yul\":4118:4364   */\n    tag_458:\n        /* \"#utility.yul\":4199:4200   */\n      0x00\n        /* \"#utility.yul\":4209:4322   */\n    tag_568:\n        /* \"#utility.yul\":4223:4229   */\n      dup4\n        /* \"#utility.yul\":4220:4221   */\n      dup2\n        /* \"#utility.yul\":4217:4230   */\n      lt\n        /* \"#utility.yul\":4209:4322   */\n      iszero\n      tag_570\n      jumpi\n        /* \"#utility.yul\":4308:4309   */\n      dup1\n        /* \"#utility.yul\":4303:4306   */\n      dup3\n        /* \"#utility.yul\":4299:4310   */\n      add\n        /* \"#utility.yul\":4293:4311   */\n      mload\n        /* \"#utility.yul\":4289:4290   */\n      dup2\n        /* \"#utility.yul\":4284:4287   */\n      dup5\n        /* \"#utility.yul\":4280:4291   */\n      add\n        /* \"#utility.yul\":4273:4312   */\n      mstore\n        /* \"#utility.yul\":4245:4247   */\n      0x20\n        /* \"#utility.yul\":4242:4243   */\n      dup2\n        /* \"#utility.yul\":4238:4248   */\n      add\n        /* \"#utility.yul\":4233:4248   */\n      swap1\n      pop\n        /* \"#utility.yul\":4209:4322   */\n      jump(tag_568)\n    tag_570:\n        /* \"#utility.yul\":4356:4357   */\n      0x00\n        /* \"#utility.yul\":4347:4353   */\n      dup5\n        /* \"#utility.yul\":4342:4345   */\n      dup5\n        /* \"#utility.yul\":4338:4354   */\n      add\n        /* \"#utility.yul\":4331:4358   */\n      mstore\n        /* \"#utility.yul\":4180:4364   */\n      pop\n        /* \"#utility.yul\":4118:4364   */\n      pop\n      pop\n      pop\n      jump\t// out\n        /* \"#utility.yul\":4370:4472   */\n    tag_459:\n        /* \"#utility.yul\":4411:4417   */\n      0x00\n        /* \"#utility.yul\":4462:4464   */\n      0x1f\n        /* \"#utility.yul\":4458:4465   */\n      not\n        /* \"#utility.yul\":4453:4455   */\n      0x1f\n        /* \"#utility.yul\":4446:4451   */\n      dup4\n        /* \"#utility.yul\":4442:4456   */\n      add\n        /* \"#utility.yul\":4438:4466   */\n      and\n        /* \"#utility.yul\":4428:4466   */\n      swap1\n      pop\n        /* \"#utility.yul\":4370:4472   */\n      swap2\n      swap1\n      pop\n      jump\t// out\n        /* \"#utility.yul\":4478:4855   */\n    tag_460:\n        /* \"#utility.yul\":4566:4569   */\n      0x00\n        /* \"#utility.yul\":4594:4633   */\n      tag_573\n        /* \"#utility.yul\":4627:4632   */\n      dup3\n        /* \"#utility.yul\":4594:4633   */\n      tag_456\n      jump\t// in\n    tag_573:\n        /* \"#utility.yul\":4649:4720   */\n      tag_574\n        /* \"#utility.yul\":4713:4719   */\n      dup2\n        /* \"#utility.yul\":4708:4711   */\n      dup6\n        /* \"#utility.yul\":4649:4720   */\n      tag_457\n      jump\t// in\n    tag_574:\n        /* \"#utility.yul\":4642:4720   */\n      swap4\n      pop\n        /* \"#utility.yul\":4729:4794   */\n      tag_575\n        /* \"#utility.yul\":4787:4793   */\n      dup2\n        /* \"#utility.yul\":4782:4785   */\n      dup6\n        /* \"#utility.yul\":4775:4779   */\n      0x20\n        /* \"#utility.yul\":4768:4773   */\n      dup7\n        /* \"#utility.yul\":4764:4780   */\n      add\n        /* \"#utility.yul\":4729:4794   */\n      tag_458\n      jump\t// in\n    tag_575:\n        /* \"#utility.yul\":4819:4848   */\n      tag_576\n        /* \"#utility.yul\":4841:4847   */\n      dup2\n        /* \"#utility.yul\":4819:4848   */\n      tag_459\n      jump\t// in\n    tag_576:\n        /* \"#utility.yul\":4814:4817   */\n      dup5\n        /* \"#utility.yul\":4810:4849   */\n      add\n        /* \"#utility.yul\":4803:4849   */\n      swap2\n      pop\n        /* \"#utility.yul\":4570:4855   */\n      pop\n        /* \"#utility.yul\":4478:4855   */\n      swap3\n      swap2\n      pop\n      pop\n      jump\t// out\n        /* \"#utility.yul\":4861:5616   */\n    tag_38:\n        /* \"#utility.yul\":5086:5090   */\n      0x00\n        /* \"#utility.yul\":5124:5127   */\n      0xa0\n        /* \"#utility.yul\":5113:5122   */\n      dup3\n        /* \"#utility.yul\":5109:5128   */\n      add\n        /* \"#utility.yul\":5101:5128   */\n      swap1\n      pop\n        /* \"#utility.yul\":5138:5209   */\n      tag_578\n        /* \"#utility.yul\":5206:5207   */\n      0x00\n        /* \"#utility.yul\":5195:5204   */\n      dup4\n        /* \"#utility.yul\":5191:5208   */\n      add\n        /* \"#utility.yul\":5182:5188   */\n      dup9\n        /* \"#utility.yul\":5138:5209   */\n      tag_454\n      jump\t// in\n    tag_578:\n        /* \"#utility.yul\":5219:5291   */\n      tag_579\n        /* \"#utility.yul\":5287:5289   */\n      0x20\n        /* \"#utility.yul\":5276:5285   */\n      dup4\n        /* \"#utility.yul\":5272:5290   */\n      add\n        /* \"#utility.yul\":5263:5269   */\n      dup8\n        /* \"#utility.yul\":5219:5291   */\n      tag_455\n      jump\t// in\n    tag_579:\n        /* \"#utility.yul\":5301:5373   */\n      tag_580\n        /* \"#utility.yul\":5369:5371   */\n      0x40\n        /* \"#utility.yul\":5358:5367   */\n      dup4\n        /* \"#utility.yul\":5354:5372   */\n      add\n        /* \"#utility.yul\":5345:5351   */\n      dup7\n        /* \"#utility.yul\":5301:5373   */\n      tag_455\n      jump\t// in\n    tag_580:\n        /* \"#utility.yul\":5420:5429   */\n      dup2\n        /* \"#utility.yul\":5414:5418   */\n      dup2\n        /* \"#utility.yul\":5410:5430   */\n      sub\n        /* \"#utility.yul\":5405:5407   */\n      0x60\n        /* \"#utility.yul\":5394:5403   */\n      dup4\n        /* \"#utility.yul\":5390:5408   */\n      add\n        /* \"#utility.yul\":5383:5431   */\n      mstore\n        /* \"#utility.yul\":5448:5526   */\n      tag_581\n        /* \"#utility.yul\":5521:5525   */\n      dup2\n        /* \"#utility.yul\":5512:5518   */\n      dup6\n        /* \"#utility.yul\":5448:5526   */\n      tag_460\n      jump\t// in\n    tag_581:\n        /* \"#utility.yul\":5440:5526   */\n      swap1\n      pop\n        /* \"#utility.yul\":5536:5609   */\n      tag_582\n        /* \"#utility.yul\":5604:5607   */\n      0x80\n        /* \"#utility.yul\":5593:5602   */\n      dup4\n        /* \"#utility.yul\":5589:5608   */\n      add\n        /* \"#utility.yul\":5580:5586   */\n      dup5\n        /* \"#utility.yul\":5536:5609   */\n      tag_455\n      jump\t// in\n    tag_582:\n        /* \"#utility.yul\":4861:5616   */\n      swap7\n      swap6\n      pop\n      pop\n      pop\n      pop\n      pop\n      pop\n      jump\t// out\n        /* \"#utility.yul\":5622:5951   */\n    tag_59:\n        /* \"#utility.yul\":5681:5687   */\n      0x00\n        /* \"#utility.yul\":5730:5732   */\n      0x20\n        /* \"#utility.yul\":5718:5727   */\n      dup3\n        /* \"#utility.yul\":5709:5716   */\n      dup5\n        /* \"#utility.yul\":5705:5728   */\n      sub\n        /* \"#utility.yul\":5701:5733   */\n      slt\n        /* \"#utility.yul\":5698:5817   */\n      iszero\n      tag_584\n      jumpi\n        /* \"#utility.yul\":5736:5815   */\n      tag_585\n      tag_441\n      jump\t// in\n    tag_585:\n        /* \"#utility.yul\":5698:5817   */\n    tag_584:\n        /* \"#utility.yul\":5856:5857   */\n      0x00\n        /* \"#utility.yul\":5881:5934   */\n      tag_586\n        /* \"#utility.yul\":5926:5933   */\n      dup5\n        /* \"#utility.yul\":5917:5923   */\n      dup3\n        /* \"#utility.yul\":5906:5915   */\n      dup6\n        /* \"#utility.yul\":5902:5924   */\n      add\n        /* \"#utility.yul\":5881:5934   */\n      tag_445\n      jump\t// in\n    tag_586:\n        /* \"#utility.yul\":5871:5934   */\n      swap2\n      pop\n        /* \"#utility.yul\":5827:5944   */\n      pop\n        /* \"#utility.yul\":5622:5951   */\n      swap3\n      swap2\n      pop\n      pop\n      jump\t// out\n        /* \"#utility.yul\":5957:6137   */\n    tag_159:\n        /* \"#utility.yul\":6005:6082   */\n      0x4e487b7100000000000000000000000000000000000000000000000000000000\n        /* \"#utility.yul\":6002:6003   */\n      0x00\n        /* \"#utility.yul\":5995:6083   */\n      mstore\n        /* \"#utility.yul\":6102:6106   */\n      0x21\n        /* \"#utility.yul\":6099:6100   */\n      0x04\n        /* \"#utility.yul\":6092:6107   */\n      mstore\n        /* \"#utility.yul\":6126:6130   */\n      0x24\n        /* \"#utility.yul\":6123:6124   */\n      0x00\n        /* \"#utility.yul\":6116:6131   */\n      revert\n        /* \"#utility.yul\":6143:6254   */\n    tag_461:\n        /* \"#utility.yul\":6222:6223   */\n      0x03\n        /* \"#utility.yul\":6215:6220   */\n      dup2\n        /* \"#utility.yul\":6212:6224   */\n      lt\n        /* \"#utility.yul\":6202:6248   */\n      tag_589\n      jumpi\n        /* \"#utility.yul\":6228:6246   */\n      tag_590\n      tag_159\n      jump\t// in\n    tag_590:\n        /* \"#utility.yul\":6202:6248   */\n    tag_589:\n        /* \"#utility.yul\":6143:6254   */\n      pop\n      jump\t// out\n        /* \"#utility.yul\":6260:6383   */\n    tag_462:\n        /* \"#utility.yul\":6303:6310   */\n      0x00\n        /* \"#utility.yul\":6332:6337   */\n      dup2\n        /* \"#utility.yul\":6321:6337   */\n      swap1\n      pop\n        /* \"#utility.yul\":6338:6377   */\n      tag_592\n        /* \"#utility.yul\":6371:6376   */\n      dup3\n        /* \"#utility.yul\":6338:6377   */\n      tag_461\n      jump\t// in\n    tag_592:\n        /* \"#utility.yul\":6260:6383   */\n      swap2\n      swap1\n      pop\n      jump\t// out\n        /* \"#utility.yul\":6389:6512   */\n    tag_463:\n        /* \"#utility.yul\":6443:6452   */\n      0x00\n        /* \"#utility.yul\":6476:6506   */\n      tag_594\n        /* \"#utility.yul\":6500:6505   */\n      dup3\n        /* \"#utility.yul\":6476:6506   */\n      tag_462\n      jump\t// in\n    tag_594:\n        /* \"#utility.yul\":6463:6506   */\n      swap1\n      pop\n        /* \"#utility.yul\":6389:6512   */\n      swap2\n      swap1\n      pop\n      jump\t// out\n        /* \"#utility.yul\":6518:6657   */\n    tag_464:\n        /* \"#utility.yul\":6609:6650   */\n      tag_596\n        /* \"#utility.yul\":6644:6649   */\n      dup2\n        /* \"#utility.yul\":6609:6650   */\n      tag_463\n      jump\t// in\n    tag_596:\n        /* \"#utility.yul\":6604:6607   */\n      dup3\n        /* \"#utility.yul\":6597:6651   */\n      mstore\n        /* \"#utility.yul\":6518:6657   */\n      pop\n      pop\n      jump\t// out\n        /* \"#utility.yul\":6663:7003   */\n    tag_62:\n        /* \"#utility.yul\":6788:6792   */\n      0x00\n        /* \"#utility.yul\":6826:6828   */\n      0x40\n        /* \"#utility.yul\":6815:6824   */\n      dup3\n        /* \"#utility.yul\":6811:6829   */\n      add\n        /* \"#utility.yul\":6803:6829   */\n      swap1\n      pop\n        /* \"#utility.yul\":6839:6910   */\n      tag_598\n        /* \"#utility.yul\":6907:6908   */\n      0x00\n        /* \"#utility.yul\":6896:6905   */\n      dup4\n        /* \"#utility.yul\":6892:6909   */\n      add\n        /* \"#utility.yul\":6883:6889   */\n      dup6\n        /* \"#utility.yul\":6839:6910   */\n      tag_454\n      jump\t// in\n    tag_598:\n        /* \"#utility.yul\":6920:6996   */\n      tag_599\n        /* \"#utility.yul\":6992:6994   */\n      0x20\n        /* \"#utility.yul\":6981:6990   */\n      dup4\n        /* \"#utility.yul\":6977:6995   */\n      add\n        /* \"#utility.yul\":6968:6974   */\n      dup5\n        /* \"#utility.yul\":6920:6996   */\n      tag_464\n      jump\t// in\n    tag_599:\n        /* \"#utility.yul\":6663:7003   */\n      swap4\n      swap3\n      pop\n      pop\n      pop\n      jump\t// out\n        /* \"#utility.yul\":7009:7114   */\n    tag_465:\n        /* \"#utility.yul\":7088:7089   */\n      0x03\n        /* \"#utility.yul\":7081:7086   */\n      dup2\n        /* \"#utility.yul\":7078:7090   */\n      lt\n        /* \"#utility.yul\":7068:7108   */\n      tag_601\n      jumpi\n        /* \"#utility.yul\":7104:7105   */\n      0x00\n        /* \"#utility.yul\":7101:7102   */\n      dup1\n        /* \"#utility.yul\":7094:7106   */\n      revert\n        /* \"#utility.yul\":7068:7108   */\n    tag_601:\n        /* \"#utility.yul\":7009:7114   */\n      pop\n      jump\t// out\n        /* \"#utility.yul\":7120:7271   */\n    tag_466:\n        /* \"#utility.yul\":7172:7177   */\n      0x00\n        /* \"#utility.yul\":7210:7216   */\n      dup2\n        /* \"#utility.yul\":7197:7217   */\n      calldataload\n        /* \"#utility.yul\":7188:7217   */\n      swap1\n      pop\n        /* \"#utility.yul\":7226:7265   */\n      tag_603\n        /* \"#utility.yul\":7259:7264   */\n      dup2\n        /* \"#utility.yul\":7226:7265   */\n      tag_465\n      jump\t// in\n    tag_603:\n        /* \"#utility.yul\":7120:7271   */\n      swap3\n      swap2\n      pop\n      pop\n      jump\t// out\n        /* \"#utility.yul\":7277:7618   */\n    tag_66:\n        /* \"#utility.yul\":7342:7348   */\n      0x00\n        /* \"#utility.yul\":7391:7393   */\n      0x20\n        /* \"#utility.yul\":7379:7388   */\n      dup3\n        /* \"#utility.yul\":7370:7377   */\n      dup5\n        /* \"#utility.yul\":7366:7389   */\n      sub\n        /* \"#utility.yul\":7362:7394   */\n      slt\n        /* \"#utility.yul\":7359:7478   */\n      iszero\n      tag_605\n      jumpi\n        /* \"#utility.yul\":7397:7476   */\n      tag_606\n      tag_441\n      jump\t// in\n    tag_606:\n        /* \"#utility.yul\":7359:7478   */\n    tag_605:\n        /* \"#utility.yul\":7517:7518   */\n      0x00\n        /* \"#utility.yul\":7542:7601   */\n      tag_607\n        /* \"#utility.yul\":7593:7600   */\n      dup5\n        /* \"#utility.yul\":7584:7590   */\n      dup3\n        /* \"#utility.yul\":7573:7582   */\n      dup6\n        /* \"#utility.yul\":7569:7591   */\n      add\n        /* \"#utility.yul\":7542:7601   */\n      tag_466\n      jump\t// in\n    tag_607:\n        /* \"#utility.yul\":7532:7601   */\n      swap2\n      pop\n        /* \"#utility.yul\":7488:7611   */\n      pop\n        /* \"#utility.yul\":7277:7618   */\n      swap3\n      swap2\n      pop\n      pop\n      jump\t// out\n        /* \"#utility.yul\":7624:7741   */\n    tag_467:\n        /* \"#utility.yul\":7733:7734   */\n      0x00\n        /* \"#utility.yul\":7730:7731   */\n      dup1\n        /* \"#utility.yul\":7723:7735   */\n      revert\n        /* \"#utility.yul\":7747:7927   */\n    tag_468:\n        /* \"#utility.yul\":7795:7872   */\n      0x4e487b7100000000000000000000000000000000000000000000000000000000\n        /* \"#utility.yul\":7792:7793   */\n      0x00\n        /* \"#utility.yul\":7785:7873   */\n      mstore\n        /* \"#utility.yul\":7892:7896   */\n      0x41\n        /* \"#utility.yul\":7889:7890   */\n      0x04\n        /* \"#utility.yul\":7882:7897   */\n      mstore\n        /* \"#utility.yul\":7916:7920   */\n      0x24\n        /* \"#utility.yul\":7913:7914   */\n      0x00\n        /* \"#utility.yul\":7906:7921   */\n      revert\n        /* \"#utility.yul\":7933:8214   */\n    tag_469:\n        /* \"#utility.yul\":8016:8043   */\n      tag_611\n        /* \"#utility.yul\":8038:8042   */\n      dup3\n        /* \"#utility.yul\":8016:8043   */\n      tag_459\n      jump\t// in\n    tag_611:\n        /* \"#utility.yul\":8008:8014   */\n      dup2\n        /* \"#utility.yul\":8004:8044   */\n      add\n        /* \"#utility.yul\":8146:8152   */\n      dup2\n        /* \"#utility.yul\":8134:8144   */\n      dup2\n        /* \"#utility.yul\":8131:8153   */\n      lt\n        /* \"#utility.yul\":8110:8128   */\n      0xffffffffffffffff\n        /* \"#utility.yul\":8098:8108   */\n      dup3\n        /* \"#utility.yul\":8095:8129   */\n      gt\n        /* \"#utility.yul\":8092:8154   */\n      or\n        /* \"#utility.yul\":8089:8177   */\n      iszero\n      tag_612\n      jumpi\n        /* \"#utility.yul\":8157:8175   */\n      tag_613\n      tag_468\n      jump\t// in\n    tag_613:\n        /* \"#utility.yul\":8089:8177   */\n    tag_612:\n        /* \"#utility.yul\":8197:8207   */\n      dup1\n        /* \"#utility.yul\":8193:8195   */\n      0x40\n        /* \"#utility.yul\":8186:8208   */\n      mstore\n        /* \"#utility.yul\":7976:8214   */\n      pop\n        /* \"#utility.yul\":7933:8214   */\n      pop\n      pop\n      jump\t// out\n        /* \"#utility.yul\":8220:8349   */\n    tag_470:\n        /* \"#utility.yul\":8254:8260   */\n      0x00\n        /* \"#utility.yul\":8281:8301   */\n      tag_615\n      tag_440\n      jump\t// in\n    tag_615:\n        /* \"#utility.yul\":8271:8301   */\n      swap1\n      pop\n        /* \"#utility.yul\":8310:8343   */\n      tag_616\n        /* \"#utility.yul\":8338:8342   */\n      dup3\n        /* \"#utility.yul\":8330:8336   */\n      dup3\n        /* \"#utility.yul\":8310:8343   */\n      tag_469\n      jump\t// in\n    tag_616:\n        /* \"#utility.yul\":8220:8349   */\n      swap2\n      swap1\n      pop\n      jump\t// out\n        /* \"#utility.yul\":8355:8663   */\n    tag_471:\n        /* \"#utility.yul\":8417:8421   */\n      0x00\n        /* \"#utility.yul\":8507:8525   */\n      0xffffffffffffffff\n        /* \"#utility.yul\":8499:8505   */\n      dup3\n        /* \"#utility.yul\":8496:8526   */\n      gt\n        /* \"#utility.yul\":8493:8549   */\n      iszero\n      tag_618\n      jumpi\n        /* \"#utility.yul\":8529:8547   */\n      tag_619\n      tag_468\n      jump\t// in\n    tag_619:\n        /* \"#utility.yul\":8493:8549   */\n    tag_618:\n        /* \"#utility.yul\":8567:8596   */\n      tag_620\n        /* \"#utility.yul\":8589:8595   */\n      dup3\n        /* \"#utility.yul\":8567:8596   */\n      tag_459\n      jump\t// in\n    tag_620:\n        /* \"#utility.yul\":8559:8596   */\n      swap1\n      pop\n        /* \"#utility.yul\":8651:8655   */\n      0x20\n        /* \"#utility.yul\":8645:8649   */\n      dup2\n        /* \"#utility.yul\":8641:8656   */\n      add\n        /* \"#utility.yul\":8633:8656   */\n      swap1\n      pop\n        /* \"#utility.yul\":8355:8663   */\n      swap2\n      swap1\n      pop\n      jump\t// out\n        /* \"#utility.yul\":8669:8815   */\n    tag_472:\n        /* \"#utility.yul\":8766:8772   */\n      dup3\n        /* \"#utility.yul\":8761:8764   */\n      dup2\n        /* \"#utility.yul\":8756:8759   */\n      dup4\n        /* \"#utility.yul\":8743:8773   */\n      calldatacopy\n        /* \"#utility.yul\":8807:8808   */\n      0x00\n        /* \"#utility.yul\":8798:8804   */\n      dup4\n        /* \"#utility.yul\":8793:8796   */\n      dup4\n        /* \"#utility.yul\":8789:8805   */\n      add\n        /* \"#utility.yul\":8782:8809   */\n      mstore\n        /* \"#utility.yul\":8669:8815   */\n      pop\n      pop\n      pop\n      jump\t// out\n        /* \"#utility.yul\":8821:9246   */\n    tag_473:\n        /* \"#utility.yul\":8899:8904   */\n      0x00\n        /* \"#utility.yul\":8924:8990   */\n      tag_623\n        /* \"#utility.yul\":8940:8989   */\n      tag_624\n        /* \"#utility.yul\":8982:8988   */\n      dup5\n        /* \"#utility.yul\":8940:8989   */\n      tag_471\n      jump\t// in\n    tag_624:\n        /* \"#utility.yul\":8924:8990   */\n      tag_470\n      jump\t// in\n    tag_623:\n        /* \"#utility.yul\":8915:8990   */\n      swap1\n      pop\n        /* \"#utility.yul\":9013:9019   */\n      dup3\n        /* \"#utility.yul\":9006:9011   */\n      dup2\n        /* \"#utility.yul\":8999:9020   */\n      mstore\n        /* \"#utility.yul\":9051:9055   */\n      0x20\n        /* \"#utility.yul\":9044:9049   */\n      dup2\n        /* \"#utility.yul\":9040:9056   */\n      add\n        /* \"#utility.yul\":9089:9092   */\n      dup5\n        /* \"#utility.yul\":9080:9086   */\n      dup5\n        /* \"#utility.yul\":9075:9078   */\n      dup5\n        /* \"#utility.yul\":9071:9087   */\n      add\n        /* \"#utility.yul\":9068:9093   */\n      gt\n        /* \"#utility.yul\":9065:9177   */\n      iszero\n      tag_625\n      jumpi\n        /* \"#utility.yul\":9096:9175   */\n      tag_626\n      tag_467\n      jump\t// in\n    tag_626:\n        /* \"#utility.yul\":9065:9177   */\n    tag_625:\n        /* \"#utility.yul\":9186:9240   */\n      tag_627\n        /* \"#utility.yul\":9233:9239   */\n      dup5\n        /* \"#utility.yul\":9228:9231   */\n      dup3\n        /* \"#utility.yul\":9223:9226   */\n      dup6\n        /* \"#utility.yul\":9186:9240   */\n      tag_472\n      jump\t// in\n    tag_627:\n        /* \"#utility.yul\":8905:9246   */\n      pop\n        /* \"#utility.yul\":8821:9246   */\n      swap4\n      swap3\n      pop\n      pop\n      pop\n      jump\t// out\n        /* \"#utility.yul\":9266:9606   */\n    tag_474:\n        /* \"#utility.yul\":9322:9327   */\n      0x00\n        /* \"#utility.yul\":9371:9374   */\n      dup3\n        /* \"#utility.yul\":9364:9368   */\n      0x1f\n        /* \"#utility.yul\":9356:9362   */\n      dup4\n        /* \"#utility.yul\":9352:9369   */\n      add\n        /* \"#utility.yul\":9348:9375   */\n      slt\n        /* \"#utility.yul\":9338:9460   */\n      tag_629\n      jumpi\n        /* \"#utility.yul\":9379:9458   */\n      tag_630\n      tag_446\n      jump\t// in\n    tag_630:\n        /* \"#utility.yul\":9338:9460   */\n    tag_629:\n        /* \"#utility.yul\":9496:9502   */\n      dup2\n        /* \"#utility.yul\":9483:9503   */\n      calldataload\n        /* \"#utility.yul\":9521:9600   */\n      tag_631\n        /* \"#utility.yul\":9596:9599   */\n      dup5\n        /* \"#utility.yul\":9588:9594   */\n      dup3\n        /* \"#utility.yul\":9581:9585   */\n      0x20\n        /* \"#utility.yul\":9573:9579   */\n      dup7\n        /* \"#utility.yul\":9569:9586   */\n      add\n        /* \"#utility.yul\":9521:9600   */\n      tag_473\n      jump\t// in\n    tag_631:\n        /* \"#utility.yul\":9512:9600   */\n      swap2\n      pop\n        /* \"#utility.yul\":9328:9606   */\n      pop\n        /* \"#utility.yul\":9266:9606   */\n      swap3\n      swap2\n      pop\n      pop\n      jump\t// out\n        /* \"#utility.yul\":9612:10121   */\n    tag_71:\n        /* \"#utility.yul\":9681:9687   */\n      0x00\n        /* \"#utility.yul\":9730:9732   */\n      0x20\n        /* \"#utility.yul\":9718:9727   */\n      dup3\n        /* \"#utility.yul\":9709:9716   */\n      dup5\n        /* \"#utility.yul\":9705:9728   */\n      sub\n        /* \"#utility.yul\":9701:9733   */\n      slt\n        /* \"#utility.yul\":9698:9817   */\n      iszero\n      tag_633\n      jumpi\n        /* \"#utility.yul\":9736:9815   */\n      tag_634\n      tag_441\n      jump\t// in\n    tag_634:\n        /* \"#utility.yul\":9698:9817   */\n    tag_633:\n        /* \"#utility.yul\":9884:9885   */\n      0x00\n        /* \"#utility.yul\":9873:9882   */\n      dup3\n        /* \"#utility.yul\":9869:9886   */\n      add\n        /* \"#utility.yul\":9856:9887   */\n      calldataload\n        /* \"#utility.yul\":9914:9932   */\n      0xffffffffffffffff\n        /* \"#utility.yul\":9906:9912   */\n      dup2\n        /* \"#utility.yul\":9903:9933   */\n      gt\n        /* \"#utility.yul\":9900:10017   */\n      iszero\n      tag_635\n      jumpi\n        /* \"#utility.yul\":9936:10015   */\n      tag_636\n      tag_442\n      jump\t// in\n    tag_636:\n        /* \"#utility.yul\":9900:10017   */\n    tag_635:\n        /* \"#utility.yul\":10041:10104   */\n      tag_637\n        /* \"#utility.yul\":10096:10103   */\n      dup5\n        /* \"#utility.yul\":10087:10093   */\n      dup3\n        /* \"#utility.yul\":10076:10085   */\n      dup6\n        /* \"#utility.yul\":10072:10094   */\n      add\n        /* \"#utility.yul\":10041:10104   */\n      tag_474\n      jump\t// in\n    tag_637:\n        /* \"#utility.yul\":10031:10104   */\n      swap2\n      pop\n        /* \"#utility.yul\":9827:10114   */\n      pop\n        /* \"#utility.yul\":9612:10121   */\n      swap3\n      swap2\n      pop\n      pop\n      jump\t// out\n        /* \"#utility.yul\":10127:10440   */\n    tag_74:\n        /* \"#utility.yul\":10240:10244   */\n      0x00\n        /* \"#utility.yul\":10278:10280   */\n      0x20\n        /* \"#utility.yul\":10267:10276   */\n      dup3\n        /* \"#utility.yul\":10263:10281   */\n      add\n        /* \"#utility.yul\":10255:10281   */\n      swap1\n      pop\n        /* \"#utility.yul\":10327:10336   */\n      dup2\n        /* \"#utility.yul\":10321:10325   */\n      dup2\n        /* \"#utility.yul\":10317:10337   */\n      sub\n        /* \"#utility.yul\":10313:10314   */\n      0x00\n        /* \"#utility.yul\":10302:10311   */\n      dup4\n        /* \"#utility.yul\":10298:10315   */\n      add\n        /* \"#utility.yul\":10291:10338   */\n      mstore\n        /* \"#utility.yul\":10355:10433   */\n      tag_639\n        /* \"#utility.yul\":10428:10432   */\n      dup2\n        /* \"#utility.yul\":10419:10425   */\n      dup5\n        /* \"#utility.yul\":10355:10433   */\n      tag_460\n      jump\t// in\n    tag_639:\n        /* \"#utility.yul\":10347:10433   */\n      swap1\n      pop\n        /* \"#utility.yul\":10127:10440   */\n      swap3\n      swap2\n      pop\n      pop\n      jump\t// out\n        /* \"#utility.yul\":10446:11065   */\n    tag_85:\n        /* \"#utility.yul\":10523:10529   */\n      0x00\n        /* \"#utility.yul\":10531:10537   */\n      dup1\n        /* \"#utility.yul\":10539:10545   */\n      0x00\n        /* \"#utility.yul\":10588:10590   */\n      0x60\n        /* \"#utility.yul\":10576:10585   */\n      dup5\n        /* \"#utility.yul\":10567:10574   */\n      dup7\n        /* \"#utility.yul\":10563:10586   */\n      sub\n        /* \"#utility.yul\":10559:10591   */\n      slt\n        /* \"#utility.yul\":10556:10675   */\n      iszero\n      tag_641\n      jumpi\n        /* \"#utility.yul\":10594:10673   */\n      tag_642\n      tag_441\n      jump\t// in\n    tag_642:\n        /* \"#utility.yul\":10556:10675   */\n    tag_641:\n        /* \"#utility.yul\":10714:10715   */\n      0x00\n        /* \"#utility.yul\":10739:10792   */\n      tag_643\n        /* \"#utility.yul\":10784:10791   */\n      dup7\n        /* \"#utility.yul\":10775:10781   */\n      dup3\n        /* \"#utility.yul\":10764:10773   */\n      dup8\n        /* \"#utility.yul\":10760:10782   */\n      add\n        /* \"#utility.yul\":10739:10792   */\n      tag_453\n      jump\t// in\n    tag_643:\n        /* \"#utility.yul\":10729:10792   */\n      swap4\n      pop\n        /* \"#utility.yul\":10685:10802   */\n      pop\n        /* \"#utility.yul\":10841:10843   */\n      0x20\n        /* \"#utility.yul\":10867:10920   */\n      tag_644\n        /* \"#utility.yul\":10912:10919   */\n      dup7\n        /* \"#utility.yul\":10903:10909   */\n      dup3\n        /* \"#utility.yul\":10892:10901   */\n      dup8\n        /* \"#utility.yul\":10888:10910   */\n      add\n        /* \"#utility.yul\":10867:10920   */\n      tag_445\n      jump\t// in\n    tag_644:\n        /* \"#utility.yul\":10857:10920   */\n      swap3\n      pop\n        /* \"#utility.yul\":10812:10930   */\n      pop\n        /* \"#utility.yul\":10969:10971   */\n      0x40\n        /* \"#utility.yul\":10995:11048   */\n      tag_645\n        /* \"#utility.yul\":11040:11047   */\n      dup7\n        /* \"#utility.yul\":11031:11037   */\n      dup3\n        /* \"#utility.yul\":11020:11029   */\n      dup8\n        /* \"#utility.yul\":11016:11038   */\n      add\n        /* \"#utility.yul\":10995:11048   */\n      tag_445\n      jump\t// in\n    tag_645:\n        /* \"#utility.yul\":10985:11048   */\n      swap2\n      pop\n        /* \"#utility.yul\":10940:11058   */\n      pop\n        /* \"#utility.yul\":10446:11065   */\n      swap3\n      pop\n      swap3\n      pop\n      swap3\n      jump\t// out\n        /* \"#utility.yul\":11071:11293   */\n    tag_92:\n        /* \"#utility.yul\":11164:11168   */\n      0x00\n        /* \"#utility.yul\":11202:11204   */\n      0x20\n        /* \"#utility.yul\":11191:11200   */\n      dup3\n        /* \"#utility.yul\":11187:11205   */\n      add\n        /* \"#utility.yul\":11179:11205   */\n      swap1\n      pop\n        /* \"#utility.yul\":11215:11286   */\n      tag_647\n        /* \"#utility.yul\":11283:11284   */\n      0x00\n        /* \"#utility.yul\":11272:11281   */\n      dup4\n        /* \"#utility.yul\":11268:11285   */\n      add\n        /* \"#utility.yul\":11259:11265   */\n      dup5\n        /* \"#utility.yul\":11215:11286   */\n      tag_455\n      jump\t// in\n    tag_647:\n        /* \"#utility.yul\":11071:11293   */\n      swap3\n      swap2\n      pop\n      pop\n      jump\t// out\n        /* \"#utility.yul\":11299:12410   */\n    tag_96:\n        /* \"#utility.yul\":11406:11412   */\n      0x00\n        /* \"#utility.yul\":11414:11420   */\n      dup1\n        /* \"#utility.yul\":11422:11428   */\n      0x00\n        /* \"#utility.yul\":11430:11436   */\n      dup1\n        /* \"#utility.yul\":11438:11444   */\n      0x00\n        /* \"#utility.yul\":11446:11452   */\n      dup1\n        /* \"#utility.yul\":11495:11498   */\n      0xa0\n        /* \"#utility.yul\":11483:11492   */\n      dup8\n        /* \"#utility.yul\":11474:11481   */\n      dup10\n        /* \"#utility.yul\":11470:11493   */\n      sub\n        /* \"#utility.yul\":11466:11499   */\n      slt\n        /* \"#utility.yul\":11463:11583   */\n      iszero\n      tag_649\n      jumpi\n        /* \"#utility.yul\":11502:11581   */\n      tag_650\n      tag_441\n      jump\t// in\n    tag_650:\n        /* \"#utility.yul\":11463:11583   */\n    tag_649:\n        /* \"#utility.yul\":11622:11623   */\n      0x00\n        /* \"#utility.yul\":11647:11700   */\n      tag_651\n        /* \"#utility.yul\":11692:11699   */\n      dup10\n        /* \"#utility.yul\":11683:11689   */\n      dup3\n        /* \"#utility.yul\":11672:11681   */\n      dup11\n        /* \"#utility.yul\":11668:11690   */\n      add\n        /* \"#utility.yul\":11647:11700   */\n      tag_445\n      jump\t// in\n    tag_651:\n        /* \"#utility.yul\":11637:11700   */\n      swap7\n      pop\n        /* \"#utility.yul\":11593:11710   */\n      pop\n        /* \"#utility.yul\":11749:11751   */\n      0x20\n        /* \"#utility.yul\":11775:11828   */\n      tag_652\n        /* \"#utility.yul\":11820:11827   */\n      dup10\n        /* \"#utility.yul\":11811:11817   */\n      dup3\n        /* \"#utility.yul\":11800:11809   */\n      dup11\n        /* \"#utility.yul\":11796:11818   */\n      add\n        /* \"#utility.yul\":11775:11828   */\n      tag_445\n      jump\t// in\n    tag_652:\n        /* \"#utility.yul\":11765:11828   */\n      swap6\n      pop\n        /* \"#utility.yul\":11720:11838   */\n      pop\n        /* \"#utility.yul\":11905:11907   */\n      0x40\n        /* \"#utility.yul\":11894:11903   */\n      dup8\n        /* \"#utility.yul\":11890:11908   */\n      add\n        /* \"#utility.yul\":11877:11909   */\n      calldataload\n        /* \"#utility.yul\":11936:11954   */\n      0xffffffffffffffff\n        /* \"#utility.yul\":11928:11934   */\n      dup2\n        /* \"#utility.yul\":11925:11955   */\n      gt\n        /* \"#utility.yul\":11922:12039   */\n      iszero\n      tag_653\n      jumpi\n        /* \"#utility.yul\":11958:12037   */\n      tag_654\n      tag_442\n      jump\t// in\n    tag_654:\n        /* \"#utility.yul\":11922:12039   */\n    tag_653:\n        /* \"#utility.yul\":12071:12136   */\n      tag_655\n        /* \"#utility.yul\":12128:12135   */\n      dup10\n        /* \"#utility.yul\":12119:12125   */\n      dup3\n        /* \"#utility.yul\":12108:12117   */\n      dup11\n        /* \"#utility.yul\":12104:12126   */\n      add\n        /* \"#utility.yul\":12071:12136   */\n      tag_449\n      jump\t// in\n    tag_655:\n        /* \"#utility.yul\":12053:12136   */\n      swap5\n      pop\n      swap5\n      pop\n        /* \"#utility.yul\":11848:12146   */\n      pop\n        /* \"#utility.yul\":12185:12187   */\n      0x60\n        /* \"#utility.yul\":12211:12264   */\n      tag_656\n        /* \"#utility.yul\":12256:12263   */\n      dup10\n        /* \"#utility.yul\":12247:12253   */\n      dup3\n        /* \"#utility.yul\":12236:12245   */\n      dup11\n        /* \"#utility.yul\":12232:12254   */\n      add\n        /* \"#utility.yul\":12211:12264   */\n      tag_445\n      jump\t// in\n    tag_656:\n        /* \"#utility.yul\":12201:12264   */\n      swap3\n      pop\n        /* \"#utility.yul\":12156:12274   */\n      pop\n        /* \"#utility.yul\":12313:12316   */\n      0x80\n        /* \"#utility.yul\":12340:12393   */\n      tag_657\n        /* \"#utility.yul\":12385:12392   */\n      dup10\n        /* \"#utility.yul\":12376:12382   */\n      dup3\n        /* \"#utility.yul\":12365:12374   */\n      dup11\n        /* \"#utility.yul\":12361:12383   */\n      add\n        /* \"#utility.yul\":12340:12393   */\n      tag_453\n      jump\t// in\n    tag_657:\n        /* \"#utility.yul\":12330:12393   */\n      swap2\n      pop\n        /* \"#utility.yul\":12284:12403   */\n      pop\n        /* \"#utility.yul\":11299:12410   */\n      swap3\n      swap6\n      pop\n      swap3\n      swap6\n      pop\n      swap3\n      swap6\n      jump\t// out\n        /* \"#utility.yul\":12416:12638   */\n    tag_102:\n        /* \"#utility.yul\":12509:12513   */\n      0x00\n        /* \"#utility.yul\":12547:12549   */\n      0x20\n        /* \"#utility.yul\":12536:12545   */\n      dup3\n        /* \"#utility.yul\":12532:12550   */\n      add\n        /* \"#utility.yul\":12524:12550   */\n      swap1\n      pop\n        /* \"#utility.yul\":12560:12631   */\n      tag_659\n        /* \"#utility.yul\":12628:12629   */\n      0x00\n        /* \"#utility.yul\":12617:12626   */\n      dup4\n        /* \"#utility.yul\":12613:12630   */\n      add\n        /* \"#utility.yul\":12604:12610   */\n      dup5\n        /* \"#utility.yul\":12560:12631   */\n      tag_454\n      jump\t// in\n    tag_659:\n        /* \"#utility.yul\":12416:12638   */\n      swap3\n      swap2\n      pop\n      pop\n      jump\t// out\n        /* \"#utility.yul\":12644:13589   */\n    tag_105:\n        /* \"#utility.yul\":12740:12746   */\n      0x00\n        /* \"#utility.yul\":12748:12754   */\n      dup1\n        /* \"#utility.yul\":12756:12762   */\n      0x00\n        /* \"#utility.yul\":12764:12770   */\n      dup1\n        /* \"#utility.yul\":12813:12816   */\n      0x80\n        /* \"#utility.yul\":12801:12810   */\n      dup6\n        /* \"#utility.yul\":12792:12799   */\n      dup8\n        /* \"#utility.yul\":12788:12811   */\n      sub\n        /* \"#utility.yul\":12784:12817   */\n      slt\n        /* \"#utility.yul\":12781:12901   */\n      iszero\n      tag_661\n      jumpi\n        /* \"#utility.yul\":12820:12899   */\n      tag_662\n      tag_441\n      jump\t// in\n    tag_662:\n        /* \"#utility.yul\":12781:12901   */\n    tag_661:\n        /* \"#utility.yul\":12940:12941   */\n      0x00\n        /* \"#utility.yul\":12965:13018   */\n      tag_663\n        /* \"#utility.yul\":13010:13017   */\n      dup8\n        /* \"#utility.yul\":13001:13007   */\n      dup3\n        /* \"#utility.yul\":12990:12999   */\n      dup9\n        /* \"#utility.yul\":12986:13008   */\n      add\n        /* \"#utility.yul\":12965:13018   */\n      tag_453\n      jump\t// in\n    tag_663:\n        /* \"#utility.yul\":12955:13018   */\n      swap5\n      pop\n        /* \"#utility.yul\":12911:13028   */\n      pop\n        /* \"#utility.yul\":13067:13069   */\n      0x20\n        /* \"#utility.yul\":13093:13146   */\n      tag_664\n        /* \"#utility.yul\":13138:13145   */\n      dup8\n        /* \"#utility.yul\":13129:13135   */\n      dup3\n        /* \"#utility.yul\":13118:13127   */\n      dup9\n        /* \"#utility.yul\":13114:13136   */\n      add\n        /* \"#utility.yul\":13093:13146   */\n      tag_445\n      jump\t// in\n    tag_664:\n        /* \"#utility.yul\":13083:13146   */\n      swap4\n      pop\n        /* \"#utility.yul\":13038:13156   */\n      pop\n        /* \"#utility.yul\":13195:13197   */\n      0x40\n        /* \"#utility.yul\":13221:13274   */\n      tag_665\n        /* \"#utility.yul\":13266:13273   */\n      dup8\n        /* \"#utility.yul\":13257:13263   */\n      dup3\n        /* \"#utility.yul\":13246:13255   */\n      dup9\n        /* \"#utility.yul\":13242:13264   */\n      add\n        /* \"#utility.yul\":13221:13274   */\n      tag_445\n      jump\t// in\n    tag_665:\n        /* \"#utility.yul\":13211:13274   */\n      swap3\n      pop\n        /* \"#utility.yul\":13166:13284   */\n      pop\n        /* \"#utility.yul\":13351:13353   */\n      0x60\n        /* \"#utility.yul\":13340:13349   */\n      dup6\n        /* \"#utility.yul\":13336:13354   */\n      add\n        /* \"#utility.yul\":13323:13355   */\n      calldataload\n        /* \"#utility.yul\":13382:13400   */\n      0xffffffffffffffff\n        /* \"#utility.yul\":13374:13380   */\n      dup2\n        /* \"#utility.yul\":13371:13401   */\n      gt\n        /* \"#utility.yul\":13368:13485   */\n      iszero\n      tag_666\n      jumpi\n        /* \"#utility.yul\":13404:13483   */\n      tag_667\n      tag_442\n      jump\t// in\n    tag_667:\n        /* \"#utility.yul\":13368:13485   */\n    tag_666:\n        /* \"#utility.yul\":13509:13572   */\n      tag_668\n        /* \"#utility.yul\":13564:13571   */\n      dup8\n        /* \"#utility.yul\":13555:13561   */\n      dup3\n        /* \"#utility.yul\":13544:13553   */\n      dup9\n        /* \"#utility.yul\":13540:13562   */\n      add\n        /* \"#utility.yul\":13509:13572   */\n      tag_474\n      jump\t// in\n    tag_668:\n        /* \"#utility.yul\":13499:13572   */\n      swap2\n      pop\n        /* \"#utility.yul\":13294:13582   */\n      pop\n        /* \"#utility.yul\":12644:13589   */\n      swap3\n      swap6\n      swap2\n      swap5\n      pop\n      swap3\n      pop\n      jump\t// out\n        /* \"#utility.yul\":13595:14249   */\n    tag_110:\n        /* \"#utility.yul\":13673:13679   */\n      0x00\n        /* \"#utility.yul\":13681:13687   */\n      dup1\n        /* \"#utility.yul\":13730:13732   */\n      0x40\n        /* \"#utility.yul\":13718:13727   */\n      dup4\n        /* \"#utility.yul\":13709:13716   */\n      dup6\n        /* \"#utility.yul\":13705:13728   */\n      sub\n        /* \"#utility.yul\":13701:13733   */\n      slt\n        /* \"#utility.yul\":13698:13817   */\n      iszero\n      tag_670\n      jumpi\n        /* \"#utility.yul\":13736:13815   */\n      tag_671\n      tag_441\n      jump\t// in\n    tag_671:\n        /* \"#utility.yul\":13698:13817   */\n    tag_670:\n        /* \"#utility.yul\":13884:13885   */\n      0x00\n        /* \"#utility.yul\":13873:13882   */\n      dup4\n        /* \"#utility.yul\":13869:13886   */\n      add\n        /* \"#utility.yul\":13856:13887   */\n      calldataload\n        /* \"#utility.yul\":13914:13932   */\n      0xffffffffffffffff\n        /* \"#utility.yul\":13906:13912   */\n      dup2\n        /* \"#utility.yul\":13903:13933   */\n      gt\n        /* \"#utility.yul\":13900:14017   */\n      iszero\n      tag_672\n      jumpi\n        /* \"#utility.yul\":13936:14015   */\n      tag_673\n      tag_442\n      jump\t// in\n    tag_673:\n        /* \"#utility.yul\":13900:14017   */\n    tag_672:\n        /* \"#utility.yul\":14041:14104   */\n      tag_674\n        /* \"#utility.yul\":14096:14103   */\n      dup6\n        /* \"#utility.yul\":14087:14093   */\n      dup3\n        /* \"#utility.yul\":14076:14085   */\n      dup7\n        /* \"#utility.yul\":14072:14094   */\n      add\n        /* \"#utility.yul\":14041:14104   */\n      tag_474\n      jump\t// in\n    tag_674:\n        /* \"#utility.yul\":14031:14104   */\n      swap3\n      pop\n        /* \"#utility.yul\":13827:14114   */\n      pop\n        /* \"#utility.yul\":14153:14155   */\n      0x20\n        /* \"#utility.yul\":14179:14232   */\n      tag_675\n        /* \"#utility.yul\":14224:14231   */\n      dup6\n        /* \"#utility.yul\":14215:14221   */\n      dup3\n        /* \"#utility.yul\":14204:14213   */\n      dup7\n        /* \"#utility.yul\":14200:14222   */\n      add\n        /* \"#utility.yul\":14179:14232   */\n      tag_453\n      jump\t// in\n    tag_675:\n        /* \"#utility.yul\":14169:14232   */\n      swap2\n      pop\n        /* \"#utility.yul\":14124:14242   */\n      pop\n        /* \"#utility.yul\":13595:14249   */\n      swap3\n      pop\n      swap3\n      swap1\n      pop\n      jump\t// out\n        /* \"#utility.yul\":14255:14584   */\n    tag_115:\n        /* \"#utility.yul\":14314:14320   */\n      0x00\n        /* \"#utility.yul\":14363:14365   */\n      0x20\n        /* \"#utility.yul\":14351:14360   */\n      dup3\n        /* \"#utility.yul\":14342:14349   */\n      dup5\n        /* \"#utility.yul\":14338:14361   */\n      sub\n        /* \"#utility.yul\":14334:14366   */\n      slt\n        /* \"#utility.yul\":14331:14450   */\n      iszero\n      tag_677\n      jumpi\n        /* \"#utility.yul\":14369:14448   */\n      tag_678\n      tag_441\n      jump\t// in\n    tag_678:\n        /* \"#utility.yul\":14331:14450   */\n    tag_677:\n        /* \"#utility.yul\":14489:14490   */\n      0x00\n        /* \"#utility.yul\":14514:14567   */\n      tag_679\n        /* \"#utility.yul\":14559:14566   */\n      dup5\n        /* \"#utility.yul\":14550:14556   */\n      dup3\n        /* \"#utility.yul\":14539:14548   */\n      dup6\n        /* \"#utility.yul\":14535:14557   */\n      add\n        /* \"#utility.yul\":14514:14567   */\n      tag_453\n      jump\t// in\n    tag_679:\n        /* \"#utility.yul\":14504:14567   */\n      swap2\n      pop\n        /* \"#utility.yul\":14460:14577   */\n      pop\n        /* \"#utility.yul\":14255:14584   */\n      swap3\n      swap2\n      pop\n      pop\n      jump\t// out\n        /* \"#utility.yul\":14590:14930   */\n    tag_118:\n        /* \"#utility.yul\":14715:14719   */\n      0x00\n        /* \"#utility.yul\":14753:14755   */\n      0x40\n        /* \"#utility.yul\":14742:14751   */\n      dup3\n        /* \"#utility.yul\":14738:14756   */\n      add\n        /* \"#utility.yul\":14730:14756   */\n      swap1\n      pop\n        /* \"#utility.yul\":14766:14841   */\n      tag_681\n        /* \"#utility.yul\":14838:14839   */\n      0x00\n        /* \"#utility.yul\":14827:14836   */\n      dup4\n        /* \"#utility.yul\":14823:14840   */\n      add\n        /* \"#utility.yul\":14814:14820   */\n      dup6\n        /* \"#utility.yul\":14766:14841   */\n      tag_464\n      jump\t// in\n    tag_681:\n        /* \"#utility.yul\":14851:14923   */\n      tag_682\n        /* \"#utility.yul\":14919:14921   */\n      0x20\n        /* \"#utility.yul\":14908:14917   */\n      dup4\n        /* \"#utility.yul\":14904:14922   */\n      add\n        /* \"#utility.yul\":14895:14901   */\n      dup5\n        /* \"#utility.yul\":14851:14923   */\n      tag_455\n      jump\t// in\n    tag_682:\n        /* \"#utility.yul\":14590:14930   */\n      swap4\n      swap3\n      pop\n      pop\n      pop\n      jump\t// out\n        /* \"#utility.yul\":14936:15701   */\n    tag_133:\n        /* \"#utility.yul\":15022:15028   */\n      0x00\n        /* \"#utility.yul\":15030:15036   */\n      dup1\n        /* \"#utility.yul\":15038:15044   */\n      0x00\n        /* \"#utility.yul\":15046:15052   */\n      dup1\n        /* \"#utility.yul\":15095:15098   */\n      0x80\n        /* \"#utility.yul\":15083:15092   */\n      dup6\n        /* \"#utility.yul\":15074:15081   */\n      dup8\n        /* \"#utility.yul\":15070:15093   */\n      sub\n        /* \"#utility.yul\":15066:15099   */\n      slt\n        /* \"#utility.yul\":15063:15183   */\n      iszero\n      tag_684\n      jumpi\n        /* \"#utility.yul\":15102:15181   */\n      tag_685\n      tag_441\n      jump\t// in\n    tag_685:\n        /* \"#utility.yul\":15063:15183   */\n    tag_684:\n        /* \"#utility.yul\":15222:15223   */\n      0x00\n        /* \"#utility.yul\":15247:15300   */\n      tag_686\n        /* \"#utility.yul\":15292:15299   */\n      dup8\n        /* \"#utility.yul\":15283:15289   */\n      dup3\n        /* \"#utility.yul\":15272:15281   */\n      dup9\n        /* \"#utility.yul\":15268:15290   */\n      add\n        /* \"#utility.yul\":15247:15300   */\n      tag_453\n      jump\t// in\n    tag_686:\n        /* \"#utility.yul\":15237:15300   */\n      swap5\n      pop\n        /* \"#utility.yul\":15193:15310   */\n      pop\n        /* \"#utility.yul\":15349:15351   */\n      0x20\n        /* \"#utility.yul\":15375:15428   */\n      tag_687\n        /* \"#utility.yul\":15420:15427   */\n      dup8\n        /* \"#utility.yul\":15411:15417   */\n      dup3\n        /* \"#utility.yul\":15400:15409   */\n      dup9\n        /* \"#utility.yul\":15396:15418   */\n      add\n        /* \"#utility.yul\":15375:15428   */\n      tag_445\n      jump\t// in\n    tag_687:\n        /* \"#utility.yul\":15365:15428   */\n      swap4\n      pop\n        /* \"#utility.yul\":15320:15438   */\n      pop\n        /* \"#utility.yul\":15477:15479   */\n      0x40\n        /* \"#utility.yul\":15503:15556   */\n      tag_688\n        /* \"#utility.yul\":15548:15555   */\n      dup8\n        /* \"#utility.yul\":15539:15545   */\n      dup3\n        /* \"#utility.yul\":15528:15537   */\n      dup9\n        /* \"#utility.yul\":15524:15546   */\n      add\n        /* \"#utility.yul\":15503:15556   */\n      tag_445\n      jump\t// in\n    tag_688:\n        /* \"#utility.yul\":15493:15556   */\n      swap3\n      pop\n        /* \"#utility.yul\":15448:15566   */\n      pop\n        /* \"#utility.yul\":15605:15607   */\n      0x60\n        /* \"#utility.yul\":15631:15684   */\n      tag_689\n        /* \"#utility.yul\":15676:15683   */\n      dup8\n        /* \"#utility.yul\":15667:15673   */\n      dup3\n        /* \"#utility.yul\":15656:15665   */\n      dup9\n        /* \"#utility.yul\":15652:15674   */\n      add\n        /* \"#utility.yul\":15631:15684   */\n      tag_453\n      jump\t// in\n    tag_689:\n        /* \"#utility.yul\":15621:15684   */\n      swap2\n      pop\n        /* \"#utility.yul\":15576:15694   */\n      pop\n        /* \"#utility.yul\":14936:15701   */\n      swap3\n      swap6\n      swap2\n      swap5\n      pop\n      swap3\n      pop\n      jump\t// out\n        /* \"#utility.yul\":15707:15887   */\n    tag_475:\n        /* \"#utility.yul\":15755:15832   */\n      0x4e487b7100000000000000000000000000000000000000000000000000000000\n        /* \"#utility.yul\":15752:15753   */\n      0x00\n        /* \"#utility.yul\":15745:15833   */\n      mstore\n        /* \"#utility.yul\":15852:15856   */\n      0x12\n        /* \"#utility.yul\":15849:15850   */\n      0x04\n        /* \"#utility.yul\":15842:15857   */\n      mstore\n        /* \"#utility.yul\":15876:15880   */\n      0x24\n        /* \"#utility.yul\":15873:15874   */\n      0x00\n        /* \"#utility.yul\":15866:15881   */\n      revert\n        /* \"#utility.yul\":15893:16073   */\n    tag_476:\n        /* \"#utility.yul\":15941:16018   */\n      0x4e487b7100000000000000000000000000000000000000000000000000000000\n        /* \"#utility.yul\":15938:15939   */\n      0x00\n        /* \"#utility.yul\":15931:16019   */\n      mstore\n        /* \"#utility.yul\":16038:16042   */\n      0x11\n        /* \"#utility.yul\":16035:16036   */\n      0x04\n        /* \"#utility.yul\":16028:16043   */\n      mstore\n        /* \"#utility.yul\":16062:16066   */\n      0x24\n        /* \"#utility.yul\":16059:16060   */\n      0x00\n        /* \"#utility.yul\":16052:16067   */\n      revert\n        /* \"#utility.yul\":16079:16264   */\n    tag_137:\n        /* \"#utility.yul\":16119:16120   */\n      0x00\n        /* \"#utility.yul\":16136:16156   */\n      tag_693\n        /* \"#utility.yul\":16154:16155   */\n      dup3\n        /* \"#utility.yul\":16136:16156   */\n      tag_443\n      jump\t// in\n    tag_693:\n        /* \"#utility.yul\":16131:16156   */\n      swap2\n      pop\n        /* \"#utility.yul\":16170:16190   */\n      tag_694\n        /* \"#utility.yul\":16188:16189   */\n      dup4\n        /* \"#utility.yul\":16170:16190   */\n      tag_443\n      jump\t// in\n    tag_694:\n        /* \"#utility.yul\":16165:16190   */\n      swap3\n      pop\n        /* \"#utility.yul\":16209:16210   */\n      dup3\n        /* \"#utility.yul\":16199:16234   */\n      tag_695\n      jumpi\n        /* \"#utility.yul\":16214:16232   */\n      tag_696\n      tag_475\n      jump\t// in\n    tag_696:\n        /* \"#utility.yul\":16199:16234   */\n    tag_695:\n        /* \"#utility.yul\":16256:16257   */\n      dup3\n        /* \"#utility.yul\":16253:16254   */\n      dup3\n        /* \"#utility.yul\":16249:16258   */\n      div\n        /* \"#utility.yul\":16244:16258   */\n      swap1\n      pop\n        /* \"#utility.yul\":16079:16264   */\n      swap3\n      swap2\n      pop\n      pop\n      jump\t// out\n        /* \"#utility.yul\":16270:16450   */\n    tag_477:\n        /* \"#utility.yul\":16318:16395   */\n      0x4e487b7100000000000000000000000000000000000000000000000000000000\n        /* \"#utility.yul\":16315:16316   */\n      0x00\n        /* \"#utility.yul\":16308:16396   */\n      mstore\n        /* \"#utility.yul\":16415:16419   */\n      0x22\n        /* \"#utility.yul\":16412:16413   */\n      0x04\n        /* \"#utility.yul\":16405:16420   */\n      mstore\n        /* \"#utility.yul\":16439:16443   */\n      0x24\n        /* \"#utility.yul\":16436:16437   */\n      0x00\n        /* \"#utility.yul\":16429:16444   */\n      revert\n        /* \"#utility.yul\":16456:16776   */\n    tag_144:\n        /* \"#utility.yul\":16500:16506   */\n      0x00\n        /* \"#utility.yul\":16537:16538   */\n      0x02\n        /* \"#utility.yul\":16531:16535   */\n      dup3\n        /* \"#utility.yul\":16527:16539   */\n      div\n        /* \"#utility.yul\":16517:16539   */\n      swap1\n      pop\n        /* \"#utility.yul\":16584:16585   */\n      0x01\n        /* \"#utility.yul\":16578:16582   */\n      dup3\n        /* \"#utility.yul\":16574:16586   */\n      and\n        /* \"#utility.yul\":16605:16623   */\n      dup1\n        /* \"#utility.yul\":16595:16676   */\n      tag_699\n      jumpi\n        /* \"#utility.yul\":16661:16665   */\n      0x7f\n        /* \"#utility.yul\":16653:16659   */\n      dup3\n        /* \"#utility.yul\":16649:16666   */\n      and\n        /* \"#utility.yul\":16639:16666   */\n      swap2\n      pop\n        /* \"#utility.yul\":16595:16676   */\n    tag_699:\n        /* \"#utility.yul\":16723:16725   */\n      0x20\n        /* \"#utility.yul\":16715:16721   */\n      dup3\n        /* \"#utility.yul\":16712:16726   */\n      lt\n        /* \"#utility.yul\":16692:16710   */\n      dup2\n        /* \"#utility.yul\":16689:16727   */\n      sub\n        /* \"#utility.yul\":16686:16770   */\n      tag_700\n      jumpi\n        /* \"#utility.yul\":16742:16760   */\n      tag_701\n      tag_477\n      jump\t// in\n    tag_701:\n        /* \"#utility.yul\":16686:16770   */\n    tag_700:\n        /* \"#utility.yul\":16507:16776   */\n      pop\n        /* \"#utility.yul\":16456:16776   */\n      swap2\n      swap1\n      pop\n      jump\t// out\n        /* \"#utility.yul\":16782:16923   */\n    tag_478:\n        /* \"#utility.yul\":16831:16835   */\n      0x00\n        /* \"#utility.yul\":16854:16857   */\n      dup2\n        /* \"#utility.yul\":16846:16857   */\n      swap1\n      pop\n        /* \"#utility.yul\":16877:16880   */\n      dup2\n        /* \"#utility.yul\":16874:16875   */\n      0x00\n        /* \"#utility.yul\":16867:16881   */\n      mstore\n        /* \"#utility.yul\":16911:16915   */\n      0x20\n        /* \"#utility.yul\":16908:16909   */\n      0x00\n        /* \"#utility.yul\":16898:16916   */\n      keccak256\n        /* \"#utility.yul\":16890:16916   */\n      swap1\n      pop\n        /* \"#utility.yul\":16782:16923   */\n      swap2\n      swap1\n      pop\n      jump\t// out\n        /* \"#utility.yul\":16929:17022   */\n    tag_479:\n        /* \"#utility.yul\":16966:16972   */\n      0x00\n        /* \"#utility.yul\":17013:17015   */\n      0x20\n        /* \"#utility.yul\":17008:17010   */\n      0x1f\n        /* \"#utility.yul\":17001:17006   */\n      dup4\n        /* \"#utility.yul\":16997:17011   */\n      add\n        /* \"#utility.yul\":16993:17016   */\n      div\n        /* \"#utility.yul\":16983:17016   */\n      swap1\n      pop\n        /* \"#utility.yul\":16929:17022   */\n      swap2\n      swap1\n      pop\n      jump\t// out\n        /* \"#utility.yul\":17028:17135   */\n    tag_480:\n        /* \"#utility.yul\":17072:17080   */\n      0x00\n        /* \"#utility.yul\":17122:17127   */\n      dup3\n        /* \"#utility.yul\":17116:17120   */\n      dup3\n        /* \"#utility.yul\":17112:17128   */\n      shl\n        /* \"#utility.yul\":17091:17128   */\n      swap1\n      pop\n        /* \"#utility.yul\":17028:17135   */\n      swap3\n      swap2\n      pop\n      pop\n      jump\t// out\n        /* \"#utility.yul\":17141:17534   */\n    tag_481:\n        /* \"#utility.yul\":17210:17216   */\n      0x00\n        /* \"#utility.yul\":17260:17261   */\n      0x08\n        /* \"#utility.yul\":17248:17258   */\n      dup4\n        /* \"#utility.yul\":17244:17262   */\n      mul\n        /* \"#utility.yul\":17283:17380   */\n      tag_706\n        /* \"#utility.yul\":17313:17379   */\n      0xffffffffffffffffffffffffffffffffffffffffffffffffffffffffffffffff\n        /* \"#utility.yul\":17302:17311   */\n      dup3\n        /* \"#utility.yul\":17283:17380   */\n      tag_480\n      jump\t// in\n    tag_706:\n        /* \"#utility.yul\":17401:17440   */\n      tag_707\n        /* \"#utility.yul\":17431:17439   */\n      dup7\n        /* \"#utility.yul\":17420:17429   */\n      dup4\n        /* \"#utility.yul\":17401:17440   */\n      tag_480\n      jump\t// in\n    tag_707:\n        /* \"#utility.yul\":17389:17440   */\n      swap6\n      pop\n        /* \"#utility.yul\":17473:17477   */\n      dup1\n        /* \"#utility.yul\":17469:17478   */\n      not\n        /* \"#utility.yul\":17462:17467   */\n      dup5\n        /* \"#utility.yul\":17458:17479   */\n      and\n        /* \"#utility.yul\":17449:17479   */\n      swap4\n      pop\n        /* \"#utility.yul\":17522:17526   */\n      dup1\n        /* \"#utility.yul\":17512:17520   */\n      dup7\n        /* \"#utility.yul\":17508:17527   */\n      and\n        /* \"#utility.yul\":17501:17506   */\n      dup5\n        /* \"#utility.yul\":17498:17528   */\n      or\n        /* \"#utility.yul\":17488:17528   */\n      swap3\n      pop\n        /* \"#utility.yul\":17217:17534   */\n      pop\n      pop\n        /* \"#utility.yul\":17141:17534   */\n      swap4\n      swap3\n      pop\n      pop\n      pop\n      jump\t// out\n        /* \"#utility.yul\":17540:17600   */\n    tag_482:\n        /* \"#utility.yul\":17568:17571   */\n      0x00\n        /* \"#utility.yul\":17589:17594   */\n      dup2\n        /* \"#utility.yul\":17582:17594   */\n      swap1\n      pop\n        /* \"#utility.yul\":17540:17600   */\n      swap2\n      swap1\n      pop\n      jump\t// out\n        /* \"#utility.yul\":17606:17748   */\n    tag_483:\n        /* \"#utility.yul\":17656:17665   */\n      0x00\n        /* \"#utility.yul\":17689:17742   */\n      tag_710\n        /* \"#utility.yul\":17707:17741   */\n      tag_711\n        /* \"#utility.yul\":17716:17740   */\n      tag_712\n        /* \"#utility.yul\":17734:17739   */\n      dup5\n        /* \"#utility.yul\":17716:17740   */\n      tag_443\n      jump\t// in\n    tag_712:\n        /* \"#utility.yul\":17707:17741   */\n      tag_482\n      jump\t// in\n    tag_711:\n        /* \"#utility.yul\":17689:17742   */\n      tag_443\n      jump\t// in\n    tag_710:\n        /* \"#utility.yul\":17676:17742   */\n      swap1\n      pop\n        /* \"#utility.yul\":17606:17748   */\n      swap2\n      swap1\n      pop\n      jump\t// out\n        /* \"#utility.yul\":17754:17829   */\n    tag_484:\n        /* \"#utility.yul\":17797:17800   */\n      0x00\n        /* \"#utility.yul\":17818:17823   */\n      dup2\n        /* \"#utility.yul\":17811:17823   */\n      swap1\n      pop\n        /* \"#utility.yul\":17754:17829   */\n      swap2\n      swap1\n      pop\n      jump\t// out\n        /* \"#utility.yul\":17835:18104   */\n    tag_485:\n        /* \"#utility.yul\":17945:17984   */\n      tag_715\n        /* \"#utility.yul\":17976:17983   */\n      dup4\n        /* \"#utility.yul\":17945:17984   */\n      tag_483\n      jump\t// in\n    tag_715:\n        /* \"#utility.yul\":18006:18097   */\n      tag_716\n        /* \"#utility.yul\":18055:18096   */\n      tag_717\n        /* \"#utility.yul\":18079:18095   */\n      dup3\n        /* \"#utility.yul\":18055:18096   */\n      tag_484\n      jump\t// in\n    tag_717:\n        /* \"#utility.yul\":18047:18053   */\n      dup5\n        /* \"#utility.yul\":18040:18044   */\n      dup5\n        /* \"#utility.yul\":18034:18045   */\n      sload\n        /* \"#utility.yul\":18006:18097   */\n      tag_481\n      jump\t// in\n    tag_716:\n        /* \"#utility.yul\":18000:18004   */\n      dup3\n        /* \"#utility.yul\":17993:18098   */\n      sstore\n        /* \"#utility.yul\":17911:18104   */\n      pop\n        /* \"#utility.yul\":17835:18104   */\n      pop\n      pop\n      pop\n      jump\t// out\n        /* \"#utility.yul\":18110:18183   */\n    tag_486:\n        /* \"#utility.yul\":18155:18158   */\n      0x00\n        /* \"#utility.yul\":18110:18183   */\n      swap1\n      jump\t// out\n        /* \"#utility.yul\":18189:18378   */\n    tag_487:\n        /* \"#utility.yul\":18266:18298   */\n      tag_720\n      tag_486\n      jump\t// in\n    tag_720:\n        /* \"#utility.yul\":18307:18372   */\n      tag_721\n        /* \"#utility.yul\":18365:18371   */\n      dup2\n        /* \"#utility.yul\":18357:18363   */\n      dup5\n        /* \"#utility.yul\":18351:18355   */\n      dup5\n        /* \"#utility.yul\":18307:18372   */\n      tag_485\n      jump\t// in\n    tag_721:\n        /* \"#utility.yul\":18242:18378   */\n      pop\n        /* \"#utility.yul\":18189:18378   */\n      pop\n      pop\n      jump\t// out\n        /* \"#utility.yul\":18384:18570   */\n    tag_488:\n        /* \"#utility.yul\":18444:18564   */\n    tag_723:\n        /* \"#utility.yul\":18461:18464   */\n      dup2\n        /* \"#utility.yul\":18454:18459   */\n      dup2\n        /* \"#utility.yul\":18451:18465   */\n      lt\n        /* \"#utility.yul\":18444:18564   */\n      iszero\n      tag_725\n      jumpi\n        /* \"#utility.yul\":18515:18554   */\n      tag_726\n        /* \"#utility.yul\":18552:18553   */\n      0x00\n        /* \"#utility.yul\":18545:18550   */\n      dup3\n        /* \"#utility.yul\":18515:18554   */\n      tag_487\n      jump\t// in\n    tag_726:\n        /* \"#utility.yul\":18488:18489   */\n      0x01\n        /* \"#utility.yul\":18481:18486   */\n      dup2\n        /* \"#utility.yul\":18477:18490   */\n      add\n        /* \"#utility.yul\":18468:18490   */\n      swap1\n      pop\n        /* \"#utility.yul\":18444:18564   */\n      jump(tag_723)\n    tag_725:\n        /* \"#utility.yul\":18384:18570   */\n      pop\n      pop\n      jump\t// out\n        /* \"#utility.yul\":18576:19119   */\n    tag_489:\n        /* \"#utility.yul\":18677:18679   */\n      0x1f\n        /* \"#utility.yul\":18672:18675   */\n      dup3\n        /* \"#utility.yul\":18669:18680   */\n      gt\n        /* \"#utility.yul\":18666:19112   */\n      iszero\n      tag_728\n      jumpi\n        /* \"#utility.yul\":18711:18749   */\n      tag_729\n        /* \"#utility.yul\":18743:18748   */\n      dup2\n        /* \"#utility.yul\":18711:18749   */\n      tag_478\n      jump\t// in\n    tag_729:\n        /* \"#utility.yul\":18795:18824   */\n      tag_730\n        /* \"#utility.yul\":18813:18823   */\n      dup5\n        /* \"#utility.yul\":18795:18824   */\n      tag_479\n      jump\t// in\n    tag_730:\n        /* \"#utility.yul\":18785:18793   */\n      dup2\n        /* \"#utility.yul\":18781:18825   */\n      add\n        /* \"#utility.yul\":18978:18980   */\n      0x20\n        /* \"#utility.yul\":18966:18976   */\n      dup6\n        /* \"#utility.yul\":18963:18981   */\n      lt\n        /* \"#utility.yul\":18960:19009   */\n      iszero\n      tag_731\n      jumpi\n        /* \"#utility.yul\":18999:19007   */\n      dup2\n        /* \"#utility.yul\":18984:19007   */\n      swap1\n      pop\n        /* \"#utility.yul\":18960:19009   */\n    tag_731:\n        /* \"#utility.yul\":19022:19102   */\n      tag_732\n        /* \"#utility.yul\":19078:19100   */\n      tag_733\n        /* \"#utility.yul\":19096:19099   */\n      dup6\n        /* \"#utility.yul\":19078:19100   */\n      tag_479\n      jump\t// in\n    tag_733:\n        /* \"#utility.yul\":19068:19076   */\n      dup4\n        /* \"#utility.yul\":19064:19101   */\n      add\n        /* \"#utility.yul\":19051:19062   */\n      dup3\n        /* \"#utility.yul\":19022:19102   */\n      tag_488\n      jump\t// in\n    tag_732:\n        /* \"#utility.yul\":18681:19112   */\n      pop\n      pop\n        /* \"#utility.yul\":18666:19112   */\n    tag_728:\n        /* \"#utility.yul\":18576:19119   */\n      pop\n      pop\n      pop\n      jump\t// out\n        /* \"#utility.yul\":19125:19242   */\n    tag_490:\n        /* \"#utility.yul\":19179:19187   */\n      0x00\n        /* \"#utility.yul\":19229:19234   */\n      dup3\n        /* \"#utility.yul\":19223:19227   */\n      dup3\n        /* \"#utility.yul\":19219:19235   */\n      shr\n        /* \"#utility.yul\":19198:19235   */\n      swap1\n      pop\n        /* \"#utility.yul\":19125:19242   */\n      swap3\n      swap2\n      pop\n      pop\n      jump\t// out\n        /* \"#utility.yul\":19248:19417   */\n    tag_491:\n        /* \"#utility.yul\":19292:19298   */\n      0x00\n        /* \"#utility.yul\":19325:19376   */\n      tag_736\n        /* \"#utility.yul\":19373:19374   */\n      0x00\n        /* \"#utility.yul\":19369:19375   */\n      not\n        /* \"#utility.yul\":19361:19366   */\n      dup5\n        /* \"#utility.yul\":19358:19359   */\n      0x08\n        /* \"#utility.yul\":19354:19367   */\n      mul\n        /* \"#utility.yul\":19325:19376   */\n      tag_490\n      jump\t// in\n    tag_736:\n        /* \"#utility.yul\":19321:19377   */\n      not\n        /* \"#utility.yul\":19406:19410   */\n      dup1\n        /* \"#utility.yul\":19400:19404   */\n      dup4\n        /* \"#utility.yul\":19396:19411   */\n      and\n        /* \"#utility.yul\":19386:19411   */\n      swap2\n      pop\n        /* \"#utility.yul\":19299:19417   */\n      pop\n        /* \"#utility.yul\":19248:19417   */\n      swap3\n      swap2\n      pop\n      pop\n      jump\t// out\n        /* \"#utility.yul\":19422:19717   */\n    tag_492:\n        /* \"#utility.yul\":19498:19502   */\n      0x00\n        /* \"#utility.yul\":19644:19673   */\n      tag_738\n        /* \"#utility.yul\":19669:19672   */\n      dup4\n        /* \"#utility.yul\":19663:19667   */\n      dup4\n        /* \"#utility.yul\":19644:19673   */\n      tag_491\n      jump\t// in\n    tag_738:\n        /* \"#utility.yul\":19636:19673   */\n      swap2\n      pop\n        /* \"#utility.yul\":19706:19709   */\n      dup3\n        /* \"#utility.yul\":19703:19704   */\n      0x02\n        /* \"#utility.yul\":19699:19710   */\n      mul\n        /* \"#utility.yul\":19693:19697   */\n      dup3\n        /* \"#utility.yul\":19690:19711   */\n      or\n        /* \"#utility.yul\":19682:19711   */\n      swap1\n      pop\n        /* \"#utility.yul\":19422:19717   */\n      swap3\n      swap2\n      pop\n      pop\n      jump\t// out\n        /* \"#utility.yul\":19722:21117   */\n    tag_140:\n        /* \"#utility.yul\":19839:19876   */\n      tag_740\n        /* \"#utility.yul\":19872:19875   */\n      dup3\n        /* \"#utility.yul\":19839:19876   */\n      tag_456\n      jump\t// in\n    tag_740:\n        /* \"#utility.yul\":19941:19959   */\n      0xffffffffffffffff\n        /* \"#utility.yul\":19933:19939   */\n      dup2\n        /* \"#utility.yul\":19930:19960   */\n      gt\n        /* \"#utility.yul\":19927:19983   */\n      iszero\n      tag_741\n      jumpi\n        /* \"#utility.yul\":19963:19981   */\n      tag_742\n      tag_468\n      jump\t// in\n    tag_742:\n        /* \"#utility.yul\":19927:19983   */\n    tag_741:\n        /* \"#utility.yul\":20007:20045   */\n      tag_743\n        /* \"#utility.yul\":20039:20043   */\n      dup3\n        /* \"#utility.yul\":20033:20044   */\n      sload\n        /* \"#utility.yul\":20007:20045   */\n      tag_144\n      jump\t// in\n    tag_743:\n        /* \"#utility.yul\":20092:20159   */\n      tag_744\n        /* \"#utility.yul\":20152:20158   */\n      dup3\n        /* \"#utility.yul\":20144:20150   */\n      dup3\n        /* \"#utility.yul\":20138:20142   */\n      dup6\n        /* \"#utility.yul\":20092:20159   */\n      tag_489\n      jump\t// in\n    tag_744:\n        /* \"#utility.yul\":20186:20187   */\n      0x00\n        /* \"#utility.yul\":20210:20214   */\n      0x20\n        /* \"#utility.yul\":20197:20214   */\n      swap1\n      pop\n        /* \"#utility.yul\":20242:20244   */\n      0x1f\n        /* \"#utility.yul\":20234:20240   */\n      dup4\n        /* \"#utility.yul\":20231:20245   */\n      gt\n        /* \"#utility.yul\":20259:20260   */\n      0x01\n        /* \"#utility.yul\":20254:20872   */\n      dup2\n      eq\n      tag_746\n      jumpi\n        /* \"#utility.yul\":20916:20917   */\n      0x00\n        /* \"#utility.yul\":20933:20939   */\n      dup5\n        /* \"#utility.yul\":20930:21007   */\n      iszero\n      tag_747\n      jumpi\n        /* \"#utility.yul\":20982:20991   */\n      dup3\n        /* \"#utility.yul\":20977:20980   */\n      dup8\n        /* \"#utility.yul\":20973:20992   */\n      add\n        /* \"#utility.yul\":20967:20993   */\n      mload\n        /* \"#utility.yul\":20958:20993   */\n      swap1\n      pop\n        /* \"#utility.yul\":20930:21007   */\n    tag_747:\n        /* \"#utility.yul\":21033:21100   */\n      tag_748\n        /* \"#utility.yul\":21093:21099   */\n      dup6\n        /* \"#utility.yul\":21086:21091   */\n      dup3\n        /* \"#utility.yul\":21033:21100   */\n      tag_492\n      jump\t// in\n    tag_748:\n        /* \"#utility.yul\":21027:21031   */\n      dup7\n        /* \"#utility.yul\":21020:21101   */\n      sstore\n        /* \"#utility.yul\":20889:21111   */\n      pop\n        /* \"#utility.yul\":20224:21111   */\n      jump(tag_745)\n        /* \"#utility.yul\":20254:20872   */\n    tag_746:\n        /* \"#utility.yul\":20306:20310   */\n      0x1f\n        /* \"#utility.yul\":20302:20311   */\n      not\n        /* \"#utility.yul\":20294:20300   */\n      dup5\n        /* \"#utility.yul\":20290:20312   */\n      and\n        /* \"#utility.yul\":20340:20377   */\n      tag_749\n        /* \"#utility.yul\":20372:20376   */\n      dup7\n        /* \"#utility.yul\":20340:20377   */\n      tag_478\n      jump\t// in\n    tag_749:\n        /* \"#utility.yul\":20399:20400   */\n      0x00\n        /* \"#utility.yul\":20413:20621   */\n    tag_750:\n        /* \"#utility.yul\":20427:20434   */\n      dup3\n        /* \"#utility.yul\":20424:20425   */\n      dup2\n        /* \"#utility.yul\":20421:20435   */\n      lt\n        /* \"#utility.yul\":20413:20621   */\n      iszero\n      tag_752\n      jumpi\n        /* \"#utility.yul\":20506:20515   */\n      dup5\n        /* \"#utility.yul\":20501:20504   */\n      dup10\n        /* \"#utility.yul\":20497:20516   */\n      add\n        /* \"#utility.yul\":20491:20517   */\n      mload\n        /* \"#utility.yul\":20483:20489   */\n      dup3\n        /* \"#utility.yul\":20476:20518   */\n      sstore\n        /* \"#utility.yul\":20557:20558   */\n      0x01\n        /* \"#utility.yul\":20549:20555   */\n      dup3\n        /* \"#utility.yul\":20545:20559   */\n      add\n        /* \"#utility.yul\":20535:20559   */\n      swap2\n      pop\n        /* \"#utility.yul\":20604:20606   */\n      0x20\n        /* \"#utility.yul\":20593:20602   */\n      dup6\n        /* \"#utility.yul\":20589:20607   */\n      add\n        /* \"#utility.yul\":20576:20607   */\n      swap5\n      pop\n        /* \"#utility.yul\":20450:20454   */\n      0x20\n        /* \"#utility.yul\":20447:20448   */\n      dup2\n        /* \"#utility.yul\":20443:20455   */\n      add\n        /* \"#utility.yul\":20438:20455   */\n      swap1\n      pop\n        /* \"#utility.yul\":20413:20621   */\n      jump(tag_750)\n    tag_752:\n        /* \"#utility.yul\":20649:20655   */\n      dup7\n        /* \"#utility.yul\":20640:20647   */\n      dup4\n        /* \"#utility.yul\":20637:20656   */\n      lt\n        /* \"#utility.yul\":20634:20813   */\n      iszero\n      tag_753\n      jumpi\n        /* \"#utility.yul\":20707:20716   */\n      dup5\n        /* \"#utility.yul\":20702:20705   */\n      dup10\n        /* \"#utility.yul\":20698:20717   */\n      add\n        /* \"#utility.yul\":20692:20718   */\n      mload\n        /* \"#utility.yul\":20750:20798   */\n      tag_754\n        /* \"#utility.yul\":20792:20796   */\n      0x1f\n        /* \"#utility.yul\":20784:20790   */\n      dup10\n        /* \"#utility.yul\":20780:20797   */\n      and\n        /* \"#utility.yul\":20769:20778   */\n      dup3\n        /* \"#utility.yul\":20750:20798   */\n      tag_491\n      jump\t// in\n    tag_754:\n        /* \"#utility.yul\":20742:20748   */\n      dup4\n        /* \"#utility.yul\":20735:20799   */\n      sstore\n        /* \"#utility.yul\":20657:20813   */\n      pop\n        /* \"#utility.yul\":20634:20813   */\n    tag_753:\n        /* \"#utility.yul\":20859:20860   */\n      0x01\n        /* \"#utility.yul\":20855:20856   */\n      0x02\n        /* \"#utility.yul\":20847:20853   */\n      dup9\n        /* \"#utility.yul\":20843:20857   */\n      mul\n        /* \"#utility.yul\":20839:20861   */\n      add\n        /* \"#utility.yul\":20833:20837   */\n      dup9\n        /* \"#utility.yul\":20826:20862   */\n      sstore\n        /* \"#utility.yul\":20261:20872   */\n      pop\n      pop\n      pop\n        /* \"#utility.yul\":20224:21111   */\n    tag_745:\n      pop\n        /* \"#utility.yul\":19814:21117   */\n      pop\n      pop\n      pop\n        /* \"#utility.yul\":19722:21117   */\n      pop\n      pop\n      jump\t// out\n        /* \"#utility.yul\":21123:21303   */\n    tag_165:\n        /* \"#utility.yul\":21171:21248   */\n      0x4e487b7100000000000000000000000000000000000000000000000000000000\n        /* \"#utility.yul\":21168:21169   */\n      0x00\n        /* \"#utility.yul\":21161:21249   */\n      mstore\n        /* \"#utility.yul\":21268:21272   */\n      0x32\n        /* \"#utility.yul\":21265:21266   */\n      0x04\n        /* \"#utility.yul\":21258:21273   */\n      mstore\n        /* \"#utility.yul\":21292:21296   */\n      0x24\n        /* \"#utility.yul\":21289:21290   */\n      0x00\n        /* \"#utility.yul\":21282:21297   */\n      revert\n        /* \"#utility.yul\":21309:21719   */\n    tag_178:\n        /* \"#utility.yul\":21349:21356   */\n      0x00\n        /* \"#utility.yul\":21372:21392   */\n      tag_757\n        /* \"#utility.yul\":21390:21391   */\n      dup3\n        /* \"#utility.yul\":21372:21392   */\n      tag_443\n      jump\t// in\n    tag_757:\n        /* \"#utility.yul\":21367:21392   */\n      swap2\n      pop\n        /* \"#utility.yul\":21406:21426   */\n      tag_758\n        /* \"#utility.yul\":21424:21425   */\n      dup4\n        /* \"#utility.yul\":21406:21426   */\n      tag_443\n      jump\t// in\n    tag_758:\n        /* \"#utility.yul\":21401:21426   */\n      swap3\n      pop\n        /* \"#utility.yul\":21461:21462   */\n      dup3\n        /* \"#utility.yul\":21458:21459   */\n      dup3\n        /* \"#utility.yul\":21454:21463   */\n      mul\n        /* \"#utility.yul\":21483:21513   */\n      tag_759\n        /* \"#utility.yul\":21501:21512   */\n      dup2\n        /* \"#utility.yul\":21483:21513   */\n      tag_443\n      jump\t// in\n    tag_759:\n        /* \"#utility.yul\":21472:21513   */\n      swap2\n      pop\n        /* \"#utility.yul\":21662:21663   */\n      dup3\n        /* \"#utility.yul\":21653:21660   */\n      dup3\n        /* \"#utility.yul\":21649:21664   */\n      div\n        /* \"#utility.yul\":21646:21647   */\n      dup5\n        /* \"#utility.yul\":21643:21665   */\n      eq\n        /* \"#utility.yul\":21623:21624   */\n      dup4\n        /* \"#utility.yul\":21616:21625   */\n      iszero\n        /* \"#utility.yul\":21596:21679   */\n      or\n        /* \"#utility.yul\":21573:21712   */\n      tag_760\n      jumpi\n        /* \"#utility.yul\":21692:21710   */\n      tag_761\n      tag_476\n      jump\t// in\n    tag_761:\n        /* \"#utility.yul\":21573:21712   */\n    tag_760:\n        /* \"#utility.yul\":21357:21719   */\n      pop\n        /* \"#utility.yul\":21309:21719   */\n      swap3\n      swap2\n      pop\n      pop\n      jump\t// out\n        /* \"#utility.yul\":21725:21916   */\n    tag_187:\n        /* \"#utility.yul\":21765:21768   */\n      0x00\n        /* \"#utility.yul\":21784:21804   */\n      tag_763\n        /* \"#utility.yul\":21802:21803   */\n      dup3\n        /* \"#utility.yul\":21784:21804   */\n      tag_443\n      jump\t// in\n    tag_763:\n        /* \"#utility.yul\":21779:21804   */\n      swap2\n      pop\n        /* \"#utility.yul\":21818:21838   */\n      tag_764\n        /* \"#utility.yul\":21836:21837   */\n      dup4\n        /* \"#utility.yul\":21818:21838   */\n      tag_443\n      jump\t// in\n    tag_764:\n        /* \"#utility.yul\":21813:21838   */\n      swap3\n      pop\n        /* \"#utility.yul\":21861:21862   */\n      dup3\n        /* \"#utility.yul\":21858:21859   */\n      dup3\n        /* \"#utility.yul\":21854:21863   */\n      add\n        /* \"#utility.yul\":21847:21863   */\n      swap1\n      pop\n        /* \"#utility.yul\":21882:21885   */\n      dup1\n        /* \"#utility.yul\":21879:21880   */\n      dup3\n        /* \"#utility.yul\":21876:21886   */\n      gt\n        /* \"#utility.yul\":21873:21909   */\n      iszero\n      tag_765\n      jumpi\n        /* \"#utility.yul\":21889:21907   */\n      tag_766\n      tag_476\n      jump\t// in\n    tag_766:\n        /* \"#utility.yul\":21873:21909   */\n    tag_765:\n        /* \"#utility.yul\":21725:21916   */\n      swap3\n      swap2\n      pop\n      pop\n      jump\t// out\n        /* \"#utility.yul\":21922:22116   */\n    tag_194:\n        /* \"#utility.yul\":21962:21966   */\n      0x00\n        /* \"#utility.yul\":21982:22002   */\n      tag_768\n        /* \"#utility.yul\":22000:22001   */\n      dup3\n        /* \"#utility.yul\":21982:22002   */\n      tag_443\n      jump\t// in\n    tag_768:\n        /* \"#utility.yul\":21977:22002   */\n      swap2\n      pop\n        /* \"#utility.yul\":22016:22036   */\n      tag_769\n        /* \"#utility.yul\":22034:22035   */\n      dup4\n        /* \"#utility.yul\":22016:22036   */\n      tag_443\n      jump\t// in\n    tag_769:\n        /* \"#utility.yul\":22011:22036   */\n      swap3\n      pop\n        /* \"#utility.yul\":22060:22061   */\n      dup3\n        /* \"#utility.yul\":22057:22058   */\n      dup3\n        /* \"#utility.yul\":22053:22062   */\n      sub\n        /* \"#utility.yul\":22045:22062   */\n      swap1\n      pop\n        /* \"#utility.yul\":22084:22085   */\n      dup2\n        /* \"#utility.yul\":22078:22082   */\n      dup2\n        /* \"#utility.yul\":22075:22086   */\n      gt\n        /* \"#utility.yul\":22072:22109   */\n      iszero\n      tag_770\n      jumpi\n        /* \"#utility.yul\":22089:22107   */\n      tag_771\n      tag_476\n      jump\t// in\n    tag_771:\n        /* \"#utility.yul\":22072:22109   */\n    tag_770:\n        /* \"#utility.yul\":21922:22116   */\n      swap3\n      swap2\n      pop\n      pop\n      jump\t// out\n        /* \"#utility.yul\":22122:22208   */\n    tag_493:\n        /* \"#utility.yul\":22157:22164   */\n      0x00\n        /* \"#utility.yul\":22197:22201   */\n      0xff\n        /* \"#utility.yul\":22190:22195   */\n      dup3\n        /* \"#utility.yul\":22186:22202   */\n      and\n        /* \"#utility.yul\":22175:22202   */\n      swap1\n      pop\n        /* \"#utility.yul\":22122:22208   */\n      swap2\n      swap1\n      pop\n      jump\t// out\n        /* \"#utility.yul\":22214:22405   */\n    tag_225:\n        /* \"#utility.yul\":22252:22256   */\n      0x00\n        /* \"#utility.yul\":22272:22290   */\n      tag_774\n        /* \"#utility.yul\":22288:22289   */\n      dup3\n        /* \"#utility.yul\":22272:22290   */\n      tag_493\n      jump\t// in\n    tag_774:\n        /* \"#utility.yul\":22267:22290   */\n      swap2\n      pop\n        /* \"#utility.yul\":22304:22322   */\n      tag_775\n        /* \"#utility.yul\":22320:22321   */\n      dup4\n        /* \"#utility.yul\":22304:22322   */\n      tag_493\n      jump\t// in\n    tag_775:\n        /* \"#utility.yul\":22299:22322   */\n      swap3\n      pop\n        /* \"#utility.yul\":22346:22347   */\n      dup3\n        /* \"#utility.yul\":22343:22344   */\n      dup3\n        /* \"#utility.yul\":22339:22348   */\n      sub\n        /* \"#utility.yul\":22331:22348   */\n      swap1\n      pop\n        /* \"#utility.yul\":22370:22374   */\n      0xff\n        /* \"#utility.yul\":22364:22368   */\n      dup2\n        /* \"#utility.yul\":22361:22375   */\n      gt\n        /* \"#utility.yul\":22358:22398   */\n      iszero\n      tag_776\n      jumpi\n        /* \"#utility.yul\":22378:22396   */\n      tag_777\n      tag_476\n      jump\t// in\n    tag_777:\n        /* \"#utility.yul\":22358:22398   */\n    tag_776:\n        /* \"#utility.yul\":22214:22405   */\n      swap3\n      swap2\n      pop\n      pop\n      jump\t// out\n        /* \"#utility.yul\":22411:22644   */\n    tag_229:\n        /* \"#utility.yul\":22450:22453   */\n      0x00\n        /* \"#utility.yul\":22473:22497   */\n      tag_779\n        /* \"#utility.yul\":22491:22496   */\n      dup3\n        /* \"#utility.yul\":22473:22497   */\n      tag_443\n      jump\t// in\n    tag_779:\n        /* \"#utility.yul\":22464:22497   */\n      swap2\n      pop\n        /* \"#utility.yul\":22519:22585   */\n      0xffffffffffffffffffffffffffffffffffffffffffffffffffffffffffffffff\n        /* \"#utility.yul\":22512:22517   */\n      dup3\n        /* \"#utility.yul\":22509:22586   */\n      sub\n        /* \"#utility.yul\":22506:22609   */\n      tag_780\n      jumpi\n        /* \"#utility.yul\":22589:22607   */\n      tag_781\n      tag_476\n      jump\t// in\n    tag_781:\n        /* \"#utility.yul\":22506:22609   */\n    tag_780:\n        /* \"#utility.yul\":22636:22637   */\n      0x01\n        /* \"#utility.yul\":22629:22634   */\n      dup3\n        /* \"#utility.yul\":22625:22638   */\n      add\n        /* \"#utility.yul\":22618:22638   */\n      swap1\n      pop\n        /* \"#utility.yul\":22411:22644   */\n      swap2\n      swap1\n      pop\n      jump\t// out\n        /* \"#utility.yul\":22650:22875   */\n    tag_494:\n        /* \"#utility.yul\":22790:22824   */\n      0x507572636861736520616d6f756e74206d757374206265206772656174657220\n        /* \"#utility.yul\":22786:22787   */\n      0x00\n        /* \"#utility.yul\":22778:22784   */\n      dup3\n        /* \"#utility.yul\":22774:22788   */\n      add\n        /* \"#utility.yul\":22767:22825   */\n      mstore\n        /* \"#utility.yul\":22859:22867   */\n      0x7468616e20300000000000000000000000000000000000000000000000000000\n        /* \"#utility.yul\":22854:22856   */\n      0x20\n        /* \"#utility.yul\":22846:22852   */\n      dup3\n        /* \"#utility.yul\":22842:22857   */\n      add\n        /* \"#utility.yul\":22835:22868   */\n      mstore\n        /* \"#utility.yul\":22650:22875   */\n      pop\n      jump\t// out\n        /* \"#utility.yul\":22881:23247   */\n    tag_495:\n        /* \"#utility.yul\":23023:23026   */\n      0x00\n        /* \"#utility.yul\":23044:23111   */\n      tag_784\n        /* \"#utility.yul\":23108:23110   */\n      0x26\n        /* \"#utility.yul\":23103:23106   */\n      dup4\n        /* \"#utility.yul\":23044:23111   */\n      tag_457\n      jump\t// in\n    tag_784:\n        /* \"#utility.yul\":23037:23111   */\n      swap2\n      pop\n        /* \"#utility.yul\":23120:23213   */\n      tag_785\n        /* \"#utility.yul\":23209:23212   */\n      dup3\n        /* \"#utility.yul\":23120:23213   */\n      tag_494\n      jump\t// in\n    tag_785:\n        /* \"#utility.yul\":23238:23240   */\n      0x40\n        /* \"#utility.yul\":23233:23236   */\n      dup3\n        /* \"#utility.yul\":23229:23241   */\n      add\n        /* \"#utility.yul\":23222:23241   */\n      swap1\n      pop\n        /* \"#utility.yul\":22881:23247   */\n      swap2\n      swap1\n      pop\n      jump\t// out\n        /* \"#utility.yul\":23253:23672   */\n    tag_249:\n        /* \"#utility.yul\":23419:23423   */\n      0x00\n        /* \"#utility.yul\":23457:23459   */\n      0x20\n        /* \"#utility.yul\":23446:23455   */\n      dup3\n        /* \"#utility.yul\":23442:23460   */\n      add\n        /* \"#utility.yul\":23434:23460   */\n      swap1\n      pop\n        /* \"#utility.yul\":23506:23515   */\n      dup2\n        /* \"#utility.yul\":23500:23504   */\n      dup2\n        /* \"#utility.yul\":23496:23516   */\n      sub\n        /* \"#utility.yul\":23492:23493   */\n      0x00\n        /* \"#utility.yul\":23481:23490   */\n      dup4\n        /* \"#utility.yul\":23477:23494   */\n      add\n        /* \"#utility.yul\":23470:23517   */\n      mstore\n        /* \"#utility.yul\":23534:23665   */\n      tag_787\n        /* \"#utility.yul\":23660:23664   */\n      dup2\n        /* \"#utility.yul\":23534:23665   */\n      tag_495\n      jump\t// in\n    tag_787:\n        /* \"#utility.yul\":23526:23665   */\n      swap1\n      pop\n        /* \"#utility.yul\":23253:23672   */\n      swap2\n      swap1\n      pop\n      jump\t// out\n        /* \"#utility.yul\":23678:23846   */\n    tag_496:\n        /* \"#utility.yul\":23818:23838   */\n      0x496e76616c69642070726f647563742049440000000000000000000000000000\n        /* \"#utility.yul\":23814:23815   */\n      0x00\n        /* \"#utility.yul\":23806:23812   */\n      dup3\n        /* \"#utility.yul\":23802:23816   */\n      add\n        /* \"#utility.yul\":23795:23839   */\n      mstore\n        /* \"#utility.yul\":23678:23846   */\n      pop\n      jump\t// out\n        /* \"#utility.yul\":23852:24218   */\n    tag_497:\n        /* \"#utility.yul\":23994:23997   */\n      0x00\n        /* \"#utility.yul\":24015:24082   */\n      tag_790\n        /* \"#utility.yul\":24079:24081   */\n      0x12\n        /* \"#utility.yul\":24074:24077   */\n      dup4\n        /* \"#utility.yul\":24015:24082   */\n      tag_457\n      jump\t// in\n    tag_790:\n        /* \"#utility.yul\":24008:24082   */\n      swap2\n      pop\n        /* \"#utility.yul\":24091:24184   */\n      tag_791\n        /* \"#utility.yul\":24180:24183   */\n      dup3\n        /* \"#utility.yul\":24091:24184   */\n      tag_496\n      jump\t// in\n    tag_791:\n        /* \"#utility.yul\":24209:24211   */\n      0x20\n        /* \"#utility.yul\":24204:24207   */\n      dup3\n        /* \"#utility.yul\":24200:24212   */\n      add\n        /* \"#utility.yul\":24193:24212   */\n      swap1\n      pop\n        /* \"#utility.yul\":23852:24218   */\n      swap2\n      swap1\n      pop\n      jump\t// out\n        /* \"#utility.yul\":24224:24643   */\n    tag_252:\n        /* \"#utility.yul\":24390:24394   */\n      0x00\n        /* \"#utility.yul\":24428:24430   */\n      0x20\n        /* \"#utility.yul\":24417:24426   */\n      dup3\n        /* \"#utility.yul\":24413:24431   */\n      add\n        /* \"#utility.yul\":24405:24431   */\n      swap1\n      pop\n        /* \"#utility.yul\":24477:24486   */\n      dup2\n        /* \"#utility.yul\":24471:24475   */\n      dup2\n        /* \"#utility.yul\":24467:24487   */\n      sub\n        /* \"#utility.yul\":24463:24464   */\n      0x00\n        /* \"#utility.yul\":24452:24461   */\n      dup4\n        /* \"#utility.yul\":24448:24465   */\n      add\n        /* \"#utility.yul\":24441:24488   */\n      mstore\n        /* \"#utility.yul\":24505:24636   */\n      tag_793\n        /* \"#utility.yul\":24631:24635   */\n      dup2\n        /* \"#utility.yul\":24505:24636   */\n      tag_497\n      jump\t// in\n    tag_793:\n        /* \"#utility.yul\":24497:24636   */\n      swap1\n      pop\n        /* \"#utility.yul\":24224:24643   */\n      swap2\n      swap1\n      pop\n      jump\t// out\n        /* \"#utility.yul\":24649:24828   */\n    tag_498:\n        /* \"#utility.yul\":24817:24821   */\n      0x4141000000000000000000000000000000000000000000000000000000000000\n        /* \"#utility.yul\":24812:24815   */\n      dup2\n        /* \"#utility.yul\":24805:24822   */\n      mstore\n        /* \"#utility.yul\":24649:24828   */\n      pop\n      jump\t// out\n        /* \"#utility.yul\":24834:24982   */\n    tag_499:\n        /* \"#utility.yul\":24936:24947   */\n      0x00\n        /* \"#utility.yul\":24973:24976   */\n      dup2\n        /* \"#utility.yul\":24958:24976   */\n      swap1\n      pop\n        /* \"#utility.yul\":24834:24982   */\n      swap3\n      swap2\n      pop\n      pop\n      jump\t// out\n        /* \"#utility.yul\":24988:25378   */\n    tag_500:\n        /* \"#utility.yul\":25094:25097   */\n      0x00\n        /* \"#utility.yul\":25122:25161   */\n      tag_797\n        /* \"#utility.yul\":25155:25160   */\n      dup3\n        /* \"#utility.yul\":25122:25161   */\n      tag_456\n      jump\t// in\n    tag_797:\n        /* \"#utility.yul\":25177:25266   */\n      tag_798\n        /* \"#utility.yul\":25259:25265   */\n      dup2\n        /* \"#utility.yul\":25254:25257   */\n      dup6\n        /* \"#utility.yul\":25177:25266   */\n      tag_499\n      jump\t// in\n    tag_798:\n        /* \"#utility.yul\":25170:25266   */\n      swap4\n      pop\n        /* \"#utility.yul\":25275:25340   */\n      tag_799\n        /* \"#utility.yul\":25333:25339   */\n      dup2\n        /* \"#utility.yul\":25328:25331   */\n      dup6\n        /* \"#utility.yul\":25321:25325   */\n      0x20\n        /* \"#utility.yul\":25314:25319   */\n      dup7\n        /* \"#utility.yul\":25310:25326   */\n      add\n        /* \"#utility.yul\":25275:25340   */\n      tag_458\n      jump\t// in\n    tag_799:\n        /* \"#utility.yul\":25365:25371   */\n      dup1\n        /* \"#utility.yul\":25360:25363   */\n      dup5\n        /* \"#utility.yul\":25356:25372   */\n      add\n        /* \"#utility.yul\":25349:25372   */\n      swap2\n      pop\n        /* \"#utility.yul\":25098:25378   */\n      pop\n        /* \"#utility.yul\":24988:25378   */\n      swap3\n      swap2\n      pop\n      pop\n      jump\t// out\n        /* \"#utility.yul\":25384:25563   */\n    tag_501:\n        /* \"#utility.yul\":25552:25556   */\n      0x4242000000000000000000000000000000000000000000000000000000000000\n        /* \"#utility.yul\":25547:25550   */\n      dup2\n        /* \"#utility.yul\":25540:25557   */\n      mstore\n        /* \"#utility.yul\":25384:25563   */\n      pop\n      jump\t// out\n        /* \"#utility.yul\":25569:26372   */\n    tag_262:\n        /* \"#utility.yul\":25881:25884   */\n      0x00\n        /* \"#utility.yul\":25896:26033   */\n      tag_802\n        /* \"#utility.yul\":26029:26032   */\n      dup3\n        /* \"#utility.yul\":25896:26033   */\n      tag_498\n      jump\t// in\n    tag_802:\n        /* \"#utility.yul\":26058:26059   */\n      0x02\n        /* \"#utility.yul\":26053:26056   */\n      dup3\n        /* \"#utility.yul\":26049:26060   */\n      add\n        /* \"#utility.yul\":26042:26060   */\n      swap2\n      pop\n        /* \"#utility.yul\":26077:26172   */\n      tag_803\n        /* \"#utility.yul\":26168:26171   */\n      dup3\n        /* \"#utility.yul\":26159:26165   */\n      dup5\n        /* \"#utility.yul\":26077:26172   */\n      tag_500\n      jump\t// in\n    tag_803:\n        /* \"#utility.yul\":26070:26172   */\n      swap2\n      pop\n        /* \"#utility.yul\":26182:26319   */\n      tag_804\n        /* \"#utility.yul\":26315:26318   */\n      dup3\n        /* \"#utility.yul\":26182:26319   */\n      tag_501\n      jump\t// in\n    tag_804:\n        /* \"#utility.yul\":26344:26345   */\n      0x02\n        /* \"#utility.yul\":26339:26342   */\n      dup3\n        /* \"#utility.yul\":26335:26346   */\n      add\n        /* \"#utility.yul\":26328:26346   */\n      swap2\n      pop\n        /* \"#utility.yul\":26363:26366   */\n      dup2\n        /* \"#utility.yul\":26356:26366   */\n      swap1\n      pop\n        /* \"#utility.yul\":25569:26372   */\n      swap3\n      swap2\n      pop\n      pop\n      jump\t// out\n        /* \"#utility.yul\":26378:26457   */\n    tag_502:\n        /* \"#utility.yul\":26417:26424   */\n      0x00\n        /* \"#utility.yul\":26446:26451   */\n      dup2\n        /* \"#utility.yul\":26435:26451   */\n      swap1\n      pop\n        /* \"#utility.yul\":26378:26457   */\n      swap2\n      swap1\n      pop\n      jump\t// out\n        /* \"#utility.yul\":26463:26620   */\n    tag_503:\n        /* \"#utility.yul\":26568:26613   */\n      tag_807\n        /* \"#utility.yul\":26588:26612   */\n      tag_808\n        /* \"#utility.yul\":26606:26611   */\n      dup3\n        /* \"#utility.yul\":26588:26612   */\n      tag_443\n      jump\t// in\n    tag_808:\n        /* \"#utility.yul\":26568:26613   */\n      tag_502\n      jump\t// in\n    tag_807:\n        /* \"#utility.yul\":26563:26566   */\n      dup3\n        /* \"#utility.yul\":26556:26614   */\n      mstore\n        /* \"#utility.yul\":26463:26620   */\n      pop\n      pop\n      jump\t// out\n        /* \"#utility.yul\":26626:26720   */\n    tag_504:\n        /* \"#utility.yul\":26659:26667   */\n      0x00\n        /* \"#utility.yul\":26707:26712   */\n      dup2\n        /* \"#utility.yul\":26703:26705   */\n      0x60\n        /* \"#utility.yul\":26699:26713   */\n      shl\n        /* \"#utility.yul\":26678:26713   */\n      swap1\n      pop\n        /* \"#utility.yul\":26626:26720   */\n      swap2\n      swap1\n      pop\n      jump\t// out\n        /* \"#utility.yul\":26726:26820   */\n    tag_505:\n        /* \"#utility.yul\":26765:26772   */\n      0x00\n        /* \"#utility.yul\":26794:26814   */\n      tag_811\n        /* \"#utility.yul\":26808:26813   */\n      dup3\n        /* \"#utility.yul\":26794:26814   */\n      tag_504\n      jump\t// in\n    tag_811:\n        /* \"#utility.yul\":26783:26814   */\n      swap1\n      pop\n        /* \"#utility.yul\":26726:26820   */\n      swap2\n      swap1\n      pop\n      jump\t// out\n        /* \"#utility.yul\":26826:26926   */\n    tag_506:\n        /* \"#utility.yul\":26865:26872   */\n      0x00\n        /* \"#utility.yul\":26894:26920   */\n      tag_813\n        /* \"#utility.yul\":26914:26919   */\n      dup3\n        /* \"#utility.yul\":26894:26920   */\n      tag_505\n      jump\t// in\n    tag_813:\n        /* \"#utility.yul\":26883:26920   */\n      swap1\n      pop\n        /* \"#utility.yul\":26826:26926   */\n      swap2\n      swap1\n      pop\n      jump\t// out\n        /* \"#utility.yul\":26932:27089   */\n    tag_507:\n        /* \"#utility.yul\":27037:27082   */\n      tag_815\n        /* \"#utility.yul\":27057:27081   */\n      tag_816\n        /* \"#utility.yul\":27075:27080   */\n      dup3\n        /* \"#utility.yul\":27057:27081   */\n      tag_451\n      jump\t// in\n    tag_816:\n        /* \"#utility.yul\":27037:27082   */\n      tag_506\n      jump\t// in\n    tag_815:\n        /* \"#utility.yul\":27032:27035   */\n      dup3\n        /* \"#utility.yul\":27025:27083   */\n      mstore\n        /* \"#utility.yul\":26932:27089   */\n      pop\n      pop\n      jump\t// out\n        /* \"#utility.yul\":27095:27633   */\n    tag_273:\n        /* \"#utility.yul\":27263:27266   */\n      0x00\n        /* \"#utility.yul\":27278:27353   */\n      tag_818\n        /* \"#utility.yul\":27349:27352   */\n      dup3\n        /* \"#utility.yul\":27340:27346   */\n      dup7\n        /* \"#utility.yul\":27278:27353   */\n      tag_503\n      jump\t// in\n    tag_818:\n        /* \"#utility.yul\":27378:27380   */\n      0x20\n        /* \"#utility.yul\":27373:27376   */\n      dup3\n        /* \"#utility.yul\":27369:27381   */\n      add\n        /* \"#utility.yul\":27362:27381   */\n      swap2\n      pop\n        /* \"#utility.yul\":27391:27466   */\n      tag_819\n        /* \"#utility.yul\":27462:27465   */\n      dup3\n        /* \"#utility.yul\":27453:27459   */\n      dup6\n        /* \"#utility.yul\":27391:27466   */\n      tag_507\n      jump\t// in\n    tag_819:\n        /* \"#utility.yul\":27491:27493   */\n      0x14\n        /* \"#utility.yul\":27486:27489   */\n      dup3\n        /* \"#utility.yul\":27482:27494   */\n      add\n        /* \"#utility.yul\":27475:27494   */\n      swap2\n      pop\n        /* \"#utility.yul\":27504:27579   */\n      tag_820\n        /* \"#utility.yul\":27575:27578   */\n      dup3\n        /* \"#utility.yul\":27566:27572   */\n      dup5\n        /* \"#utility.yul\":27504:27579   */\n      tag_503\n      jump\t// in\n    tag_820:\n        /* \"#utility.yul\":27604:27606   */\n      0x20\n        /* \"#utility.yul\":27599:27602   */\n      dup3\n        /* \"#utility.yul\":27595:27607   */\n      add\n        /* \"#utility.yul\":27588:27607   */\n      swap2\n      pop\n        /* \"#utility.yul\":27624:27627   */\n      dup2\n        /* \"#utility.yul\":27617:27627   */\n      swap1\n      pop\n        /* \"#utility.yul\":27095:27633   */\n      swap5\n      swap4\n      pop\n      pop\n      pop\n      pop\n      jump\t// out\n        /* \"#utility.yul\":27639:27815   */\n    tag_275:\n        /* \"#utility.yul\":27671:27672   */\n      0x00\n        /* \"#utility.yul\":27688:27708   */\n      tag_822\n        /* \"#utility.yul\":27706:27707   */\n      dup3\n        /* \"#utility.yul\":27688:27708   */\n      tag_443\n      jump\t// in\n    tag_822:\n        /* \"#utility.yul\":27683:27708   */\n      swap2\n      pop\n        /* \"#utility.yul\":27722:27742   */\n      tag_823\n        /* \"#utility.yul\":27740:27741   */\n      dup4\n        /* \"#utility.yul\":27722:27742   */\n      tag_443\n      jump\t// in\n    tag_823:\n        /* \"#utility.yul\":27717:27742   */\n      swap3\n      pop\n        /* \"#utility.yul\":27761:27762   */\n      dup3\n        /* \"#utility.yul\":27751:27786   */\n      tag_824\n      jumpi\n        /* \"#utility.yul\":27766:27784   */\n      tag_825\n      tag_475\n      jump\t// in\n    tag_825:\n        /* \"#utility.yul\":27751:27786   */\n    tag_824:\n        /* \"#utility.yul\":27807:27808   */\n      dup3\n        /* \"#utility.yul\":27804:27805   */\n      dup3\n        /* \"#utility.yul\":27800:27809   */\n      mod\n        /* \"#utility.yul\":27795:27809   */\n      swap1\n      pop\n        /* \"#utility.yul\":27639:27815   */\n      swap3\n      swap2\n      pop\n      pop\n      jump\t// out\n        /* \"#utility.yul\":27821:28237   */\n    tag_508:\n        /* \"#utility.yul\":27961:28027   */\n      0xd092d0b0d188d0b020d180d0bed0bbd18c20d0bdd0b520d0bfd0bed0b7d0b2d0\n        /* \"#utility.yul\":27957:27958   */\n      0x00\n        /* \"#utility.yul\":27949:27955   */\n      dup3\n        /* \"#utility.yul\":27945:27959   */\n      add\n        /* \"#utility.yul\":27938:28028   */\n      mstore\n        /* \"#utility.yul\":28062:28128   */\n      0xbed0bbd18fd0b5d18220d18dd182d0be20d0b8d0b7d0bcd0b5d0bdd18fd182d1\n        /* \"#utility.yul\":28057:28059   */\n      0x20\n        /* \"#utility.yul\":28049:28055   */\n      dup3\n        /* \"#utility.yul\":28045:28060   */\n      add\n        /* \"#utility.yul\":28038:28129   */\n      mstore\n        /* \"#utility.yul\":28163:28229   */\n      0x8c00000000000000000000000000000000000000000000000000000000000000\n        /* \"#utility.yul\":28158:28160   */\n      0x40\n        /* \"#utility.yul\":28150:28156   */\n      dup3\n        /* \"#utility.yul\":28146:28161   */\n      add\n        /* \"#utility.yul\":28139:28230   */\n      mstore\n        /* \"#utility.yul\":27821:28237   */\n      pop\n      jump\t// out\n        /* \"#utility.yul\":28243:28609   */\n    tag_509:\n        /* \"#utility.yul\":28385:28388   */\n      0x00\n        /* \"#utility.yul\":28406:28473   */\n      tag_828\n        /* \"#utility.yul\":28470:28472   */\n      0x41\n        /* \"#utility.yul\":28465:28468   */\n      dup4\n        /* \"#utility.yul\":28406:28473   */\n      tag_457\n      jump\t// in\n    tag_828:\n        /* \"#utility.yul\":28399:28473   */\n      swap2\n      pop\n        /* \"#utility.yul\":28482:28575   */\n      tag_829\n        /* \"#utility.yul\":28571:28574   */\n      dup3\n        /* \"#utility.yul\":28482:28575   */\n      tag_508\n      jump\t// in\n    tag_829:\n        /* \"#utility.yul\":28600:28602   */\n      0x60\n        /* \"#utility.yul\":28595:28598   */\n      dup3\n        /* \"#utility.yul\":28591:28603   */\n      add\n        /* \"#utility.yul\":28584:28603   */\n      swap1\n      pop\n        /* \"#utility.yul\":28243:28609   */\n      swap2\n      swap1\n      pop\n      jump\t// out\n        /* \"#utility.yul\":28615:29034   */\n    tag_283:\n        /* \"#utility.yul\":28781:28785   */\n      0x00\n        /* \"#utility.yul\":28819:28821   */\n      0x20\n        /* \"#utility.yul\":28808:28817   */\n      dup3\n        /* \"#utility.yul\":28804:28822   */\n      add\n        /* \"#utility.yul\":28796:28822   */\n      swap1\n      pop\n        /* \"#utility.yul\":28868:28877   */\n      dup2\n        /* \"#utility.yul\":28862:28866   */\n      dup2\n        /* \"#utility.yul\":28858:28878   */\n      sub\n        /* \"#utility.yul\":28854:28855   */\n      0x00\n        /* \"#utility.yul\":28843:28852   */\n      dup4\n        /* \"#utility.yul\":28839:28856   */\n      add\n        /* \"#utility.yul\":28832:28879   */\n      mstore\n        /* \"#utility.yul\":28896:29027   */\n      tag_831\n        /* \"#utility.yul\":29022:29026   */\n      dup2\n        /* \"#utility.yul\":28896:29027   */\n      tag_509\n      jump\t// in\n    tag_831:\n        /* \"#utility.yul\":28888:29027   */\n      swap1\n      pop\n        /* \"#utility.yul\":28615:29034   */\n      swap2\n      swap1\n      pop\n      jump\t// out\n        /* \"#utility.yul\":29040:29456   */\n    tag_510:\n        /* \"#utility.yul\":29180:29246   */\n      0xd09cd0b0d0b3d0b0d0b7d0b8d0bd20d0bdd0b520d181d0bed0bed182d0b2d0b5\n        /* \"#utility.yul\":29176:29177   */\n      0x00\n        /* \"#utility.yul\":29168:29174   */\n      dup3\n        /* \"#utility.yul\":29164:29178   */\n      add\n        /* \"#utility.yul\":29157:29247   */\n      mstore\n        /* \"#utility.yul\":29281:29347   */\n      0xd182d181d0b2d183d0b5d18220d0bed182d0bfd180d0b0d0b2d0b8d182d0b5d0\n        /* \"#utility.yul\":29276:29278   */\n      0x20\n        /* \"#utility.yul\":29268:29274   */\n      dup3\n        /* \"#utility.yul\":29264:29279   */\n      add\n        /* \"#utility.yul\":29257:29348   */\n      mstore\n        /* \"#utility.yul\":29382:29448   */\n      0xbbd18e0000000000000000000000000000000000000000000000000000000000\n        /* \"#utility.yul\":29377:29379   */\n      0x40\n        /* \"#utility.yul\":29369:29375   */\n      dup3\n        /* \"#utility.yul\":29365:29380   */\n      add\n        /* \"#utility.yul\":29358:29449   */\n      mstore\n        /* \"#utility.yul\":29040:29456   */\n      pop\n      jump\t// out\n        /* \"#utility.yul\":29462:29828   */\n    tag_511:\n        /* \"#utility.yul\":29604:29607   */\n      0x00\n        /* \"#utility.yul\":29625:29692   */\n      tag_834\n        /* \"#utility.yul\":29689:29691   */\n      0x43\n        /* \"#utility.yul\":29684:29687   */\n      dup4\n        /* \"#utility.yul\":29625:29692   */\n      tag_457\n      jump\t// in\n    tag_834:\n        /* \"#utility.yul\":29618:29692   */\n      swap2\n      pop\n        /* \"#utility.yul\":29701:29794   */\n      tag_835\n        /* \"#utility.yul\":29790:29793   */\n      dup3\n        /* \"#utility.yul\":29701:29794   */\n      tag_510\n      jump\t// in\n    tag_835:\n        /* \"#utility.yul\":29819:29821   */\n      0x60\n        /* \"#utility.yul\":29814:29817   */\n      dup3\n        /* \"#utility.yul\":29810:29822   */\n      add\n        /* \"#utility.yul\":29803:29822   */\n      swap1\n      pop\n        /* \"#utility.yul\":29462:29828   */\n      swap2\n      swap1\n      pop\n      jump\t// out\n        /* \"#utility.yul\":29834:30253   */\n    tag_286:\n        /* \"#utility.yul\":30000:30004   */\n      0x00\n        /* \"#utility.yul\":30038:30040   */\n      0x20\n        /* \"#utility.yul\":30027:30036   */\n      dup3\n        /* \"#utility.yul\":30023:30041   */\n      add\n        /* \"#utility.yul\":30015:30041   */\n      swap1\n      pop\n        /* \"#utility.yul\":30087:30096   */\n      dup2\n        /* \"#utility.yul\":30081:30085   */\n      dup2\n        /* \"#utility.yul\":30077:30097   */\n      sub\n        /* \"#utility.yul\":30073:30074   */\n      0x00\n        /* \"#utility.yul\":30062:30071   */\n      dup4\n        /* \"#utility.yul\":30058:30075   */\n      add\n        /* \"#utility.yul\":30051:30098   */\n      mstore\n        /* \"#utility.yul\":30115:30246   */\n      tag_837\n        /* \"#utility.yul\":30241:30245   */\n      dup2\n        /* \"#utility.yul\":30115:30246   */\n      tag_511\n      jump\t// in\n    tag_837:\n        /* \"#utility.yul\":30107:30246   */\n      swap1\n      pop\n        /* \"#utility.yul\":29834:30253   */\n      swap2\n      swap1\n      pop\n      jump\t// out\n        /* \"#utility.yul\":30259:30435   */\n    tag_512:\n        /* \"#utility.yul\":30399:30427   */\n      0x4e6f7420656e6f7567682073746f636b20617661696c61626c65000000000000\n        /* \"#utility.yul\":30395:30396   */\n      0x00\n        /* \"#utility.yul\":30387:30393   */\n      dup3\n        /* \"#utility.yul\":30383:30397   */\n      add\n        /* \"#utility.yul\":30376:30428   */\n      mstore\n        /* \"#utility.yul\":30259:30435   */\n      pop\n      jump\t// out\n        /* \"#utility.yul\":30441:30807   */\n    tag_513:\n        /* \"#utility.yul\":30583:30586   */\n      0x00\n        /* \"#utility.yul\":30604:30671   */\n      tag_840\n        /* \"#utility.yul\":30668:30670   */\n      0x1a\n        /* \"#utility.yul\":30663:30666   */\n      dup4\n        /* \"#utility.yul\":30604:30671   */\n      tag_457\n      jump\t// in\n    tag_840:\n        /* \"#utility.yul\":30597:30671   */\n      swap2\n      pop\n        /* \"#utility.yul\":30680:30773   */\n      tag_841\n        /* \"#utility.yul\":30769:30772   */\n      dup3\n        /* \"#utility.yul\":30680:30773   */\n      tag_512\n      jump\t// in\n    tag_841:\n        /* \"#utility.yul\":30798:30800   */\n      0x20\n        /* \"#utility.yul\":30793:30796   */\n      dup3\n        /* \"#utility.yul\":30789:30801   */\n      add\n        /* \"#utility.yul\":30782:30801   */\n      swap1\n      pop\n        /* \"#utility.yul\":30441:30807   */\n      swap2\n      swap1\n      pop\n      jump\t// out\n        /* \"#utility.yul\":30813:31232   */\n    tag_310:\n        /* \"#utility.yul\":30979:30983   */\n      0x00\n        /* \"#utility.yul\":31017:31019   */\n      0x20\n        /* \"#utility.yul\":31006:31015   */\n      dup3\n        /* \"#utility.yul\":31002:31020   */\n      add\n        /* \"#utility.yul\":30994:31020   */\n      swap1\n      pop\n        /* \"#utility.yul\":31066:31075   */\n      dup2\n        /* \"#utility.yul\":31060:31064   */\n      dup2\n        /* \"#utility.yul\":31056:31076   */\n      sub\n        /* \"#utility.yul\":31052:31053   */\n      0x00\n        /* \"#utility.yul\":31041:31050   */\n      dup4\n        /* \"#utility.yul\":31037:31054   */\n      add\n        /* \"#utility.yul\":31030:31077   */\n      mstore\n        /* \"#utility.yul\":31094:31225   */\n      tag_843\n        /* \"#utility.yul\":31220:31224   */\n      dup2\n        /* \"#utility.yul\":31094:31225   */\n      tag_513\n      jump\t// in\n    tag_843:\n        /* \"#utility.yul\":31086:31225   */\n      swap1\n      pop\n        /* \"#utility.yul\":30813:31232   */\n      swap2\n      swap1\n      pop\n      jump\t// out\n        /* \"#utility.yul\":31238:31513   */\n    tag_317:\n        /* \"#utility.yul\":31370:31373   */\n      0x00\n        /* \"#utility.yul\":31392:31487   */\n      tag_845\n        /* \"#utility.yul\":31483:31486   */\n      dup3\n        /* \"#utility.yul\":31474:31480   */\n      dup5\n        /* \"#utility.yul\":31392:31487   */\n      tag_500\n      jump\t// in\n    tag_845:\n        /* \"#utility.yul\":31385:31487   */\n      swap2\n      pop\n        /* \"#utility.yul\":31504:31507   */\n      dup2\n        /* \"#utility.yul\":31497:31507   */\n      swap1\n      pop\n        /* \"#utility.yul\":31238:31513   */\n      swap3\n      swap2\n      pop\n      pop\n      jump\t// out\n        /* \"#utility.yul\":31519:31692   */\n    tag_514:\n        /* \"#utility.yul\":31659:31684   */\n      0x496e73756666696369656e742066756e64732073656e74000000000000000000\n        /* \"#utility.yul\":31655:31656   */\n      0x00\n        /* \"#utility.yul\":31647:31653   */\n      dup3\n        /* \"#utility.yul\":31643:31657   */\n      add\n        /* \"#utility.yul\":31636:31685   */\n      mstore\n        /* \"#utility.yul\":31519:31692   */\n      pop\n      jump\t// out\n        /* \"#utility.yul\":31698:32064   */\n    tag_515:\n        /* \"#utility.yul\":31840:31843   */\n      0x00\n        /* \"#utility.yul\":31861:31928   */\n      tag_848\n        /* \"#utility.yul\":31925:31927   */\n      0x17\n        /* \"#utility.yul\":31920:31923   */\n      dup4\n        /* \"#utility.yul\":31861:31928   */\n      tag_457\n      jump\t// in\n    tag_848:\n        /* \"#utility.yul\":31854:31928   */\n      swap2\n      pop\n        /* \"#utility.yul\":31937:32030   */\n      tag_849\n        /* \"#utility.yul\":32026:32029   */\n      dup3\n        /* \"#utility.yul\":31937:32030   */\n      tag_514\n      jump\t// in\n    tag_849:\n        /* \"#utility.yul\":32055:32057   */\n      0x20\n        /* \"#utility.yul\":32050:32053   */\n      dup3\n        /* \"#utility.yul\":32046:32058   */\n      add\n        /* \"#utility.yul\":32039:32058   */\n      swap1\n      pop\n        /* \"#utility.yul\":31698:32064   */\n      swap2\n      swap1\n      pop\n      jump\t// out\n        /* \"#utility.yul\":32070:32489   */\n    tag_324:\n        /* \"#utility.yul\":32236:32240   */\n      0x00\n        /* \"#utility.yul\":32274:32276   */\n      0x20\n        /* \"#utility.yul\":32263:32272   */\n      dup3\n        /* \"#utility.yul\":32259:32277   */\n      add\n        /* \"#utility.yul\":32251:32277   */\n      swap1\n      pop\n        /* \"#utility.yul\":32323:32332   */\n      dup2\n        /* \"#utility.yul\":32317:32321   */\n      dup2\n        /* \"#utility.yul\":32313:32333   */\n      sub\n        /* \"#utility.yul\":32309:32310   */\n      0x00\n        /* \"#utility.yul\":32298:32307   */\n      dup4\n        /* \"#utility.yul\":32294:32311   */\n      add\n        /* \"#utility.yul\":32287:32334   */\n      mstore\n        /* \"#utility.yul\":32351:32482   */\n      tag_851\n        /* \"#utility.yul\":32477:32481   */\n      dup2\n        /* \"#utility.yul\":32351:32482   */\n      tag_515\n      jump\t// in\n    tag_851:\n        /* \"#utility.yul\":32343:32482   */\n      swap1\n      pop\n        /* \"#utility.yul\":32070:32489   */\n      swap2\n      swap1\n      pop\n      jump\t// out\n        /* \"#utility.yul\":32495:32642   */\n    tag_516:\n        /* \"#utility.yul\":32596:32607   */\n      0x00\n        /* \"#utility.yul\":32633:32636   */\n      dup2\n        /* \"#utility.yul\":32618:32636   */\n      swap1\n      pop\n        /* \"#utility.yul\":32495:32642   */\n      swap3\n      swap2\n      pop\n      pop\n      jump\t// out\n        /* \"#utility.yul\":32648:32792   */\n    tag_517:\n        /* \"#utility.yul\":32700:32704   */\n      0x00\n        /* \"#utility.yul\":32723:32726   */\n      dup2\n        /* \"#utility.yul\":32715:32726   */\n      swap1\n      pop\n        /* \"#utility.yul\":32746:32749   */\n      dup2\n        /* \"#utility.yul\":32743:32744   */\n      0x00\n        /* \"#utility.yul\":32736:32750   */\n      mstore\n        /* \"#utility.yul\":32780:32784   */\n      0x20\n        /* \"#utility.yul\":32777:32778   */\n      0x00\n        /* \"#utility.yul\":32767:32785   */\n      keccak256\n        /* \"#utility.yul\":32759:32785   */\n      swap1\n      pop\n        /* \"#utility.yul\":32648:32792   */\n      swap2\n      swap1\n      pop\n      jump\t// out\n        /* \"#utility.yul\":32820:33698   */\n    tag_518:\n        /* \"#utility.yul\":32925:32928   */\n      0x00\n        /* \"#utility.yul\":32962:32967   */\n      dup2\n        /* \"#utility.yul\":32956:32968   */\n      sload\n        /* \"#utility.yul\":32991:33027   */\n      tag_855\n        /* \"#utility.yul\":33017:33026   */\n      dup2\n        /* \"#utility.yul\":32991:33027   */\n      tag_144\n      jump\t// in\n    tag_855:\n        /* \"#utility.yul\":33043:33131   */\n      tag_856\n        /* \"#utility.yul\":33124:33130   */\n      dup2\n        /* \"#utility.yul\":33119:33122   */\n      dup7\n        /* \"#utility.yul\":33043:33131   */\n      tag_516\n      jump\t// in\n    tag_856:\n        /* \"#utility.yul\":33036:33131   */\n      swap5\n      pop\n        /* \"#utility.yul\":33162:33163   */\n      0x01\n        /* \"#utility.yul\":33151:33160   */\n      dup3\n        /* \"#utility.yul\":33147:33164   */\n      and\n        /* \"#utility.yul\":33178:33179   */\n      0x00\n        /* \"#utility.yul\":33173:33339   */\n      dup2\n      eq\n      tag_858\n      jumpi\n        /* \"#utility.yul\":33353:33354   */\n      0x01\n        /* \"#utility.yul\":33348:33692   */\n      dup2\n      eq\n      tag_859\n      jumpi\n        /* \"#utility.yul\":33140:33692   */\n      jump(tag_857)\n        /* \"#utility.yul\":33173:33339   */\n    tag_858:\n        /* \"#utility.yul\":33257:33261   */\n      0xff\n        /* \"#utility.yul\":33253:33262   */\n      not\n        /* \"#utility.yul\":33242:33251   */\n      dup4\n        /* \"#utility.yul\":33238:33263   */\n      and\n        /* \"#utility.yul\":33233:33236   */\n      dup7\n        /* \"#utility.yul\":33226:33264   */\n      mstore\n        /* \"#utility.yul\":33319:33325   */\n      dup2\n        /* \"#utility.yul\":33312:33326   */\n      iszero\n        /* \"#utility.yul\":33305:33327   */\n      iszero\n        /* \"#utility.yul\":33297:33303   */\n      dup3\n        /* \"#utility.yul\":33293:33328   */\n      mul\n        /* \"#utility.yul\":33288:33291   */\n      dup7\n        /* \"#utility.yul\":33284:33329   */\n      add\n        /* \"#utility.yul\":33277:33329   */\n      swap4\n      pop\n        /* \"#utility.yul\":33173:33339   */\n      jump(tag_857)\n        /* \"#utility.yul\":33348:33692   */\n    tag_859:\n        /* \"#utility.yul\":33415:33456   */\n      tag_860\n        /* \"#utility.yul\":33450:33455   */\n      dup6\n        /* \"#utility.yul\":33415:33456   */\n      tag_517\n      jump\t// in\n    tag_860:\n        /* \"#utility.yul\":33478:33479   */\n      0x00\n        /* \"#utility.yul\":33492:33646   */\n    tag_861:\n        /* \"#utility.yul\":33506:33512   */\n      dup4\n        /* \"#utility.yul\":33503:33504   */\n      dup2\n        /* \"#utility.yul\":33500:33513   */\n      lt\n        /* \"#utility.yul\":33492:33646   */\n      iszero\n      tag_863\n      jumpi\n        /* \"#utility.yul\":33580:33587   */\n      dup2\n        /* \"#utility.yul\":33574:33588   */\n      sload\n        /* \"#utility.yul\":33570:33571   */\n      dup2\n        /* \"#utility.yul\":33565:33568   */\n      dup10\n        /* \"#utility.yul\":33561:33572   */\n      add\n        /* \"#utility.yul\":33554:33589   */\n      mstore\n        /* \"#utility.yul\":33630:33631   */\n      0x01\n        /* \"#utility.yul\":33621:33628   */\n      dup3\n        /* \"#utility.yul\":33617:33632   */\n      add\n        /* \"#utility.yul\":33606:33632   */\n      swap2\n      pop\n        /* \"#utility.yul\":33528:33532   */\n      0x20\n        /* \"#utility.yul\":33525:33526   */\n      dup2\n        /* \"#utility.yul\":33521:33533   */\n      add\n        /* \"#utility.yul\":33516:33533   */\n      swap1\n      pop\n        /* \"#utility.yul\":33492:33646   */\n      jump(tag_861)\n    tag_863:\n        /* \"#utility.yul\":33675:33681   */\n      dup4\n        /* \"#utility.yul\":33670:33673   */\n      dup9\n        /* \"#utility.yul\":33666:33682   */\n      add\n        /* \"#utility.yul\":33659:33682   */\n      swap6\n      pop\n        /* \"#utility.yul\":33355:33692   */\n      pop\n      pop\n        /* \"#utility.yul\":33140:33692   */\n    tag_857:\n      pop\n        /* \"#utility.yul\":32929:33698   */\n      pop\n      pop\n        /* \"#utility.yul\":32820:33698   */\n      swap3\n      swap2\n      pop\n      pop\n      jump\t// out\n        /* \"#utility.yul\":33704:33977   */\n    tag_332:\n        /* \"#utility.yul\":33835:33838   */\n      0x00\n        /* \"#utility.yul\":33857:33951   */\n      tag_865\n        /* \"#utility.yul\":33947:33950   */\n      dup3\n        /* \"#utility.yul\":33938:33944   */\n      dup5\n        /* \"#utility.yul\":33857:33951   */\n      tag_518\n      jump\t// in\n    tag_865:\n        /* \"#utility.yul\":33850:33951   */\n      swap2\n      pop\n        /* \"#utility.yul\":33968:33971   */\n      dup2\n        /* \"#utility.yul\":33961:33971   */\n      swap1\n      pop\n        /* \"#utility.yul\":33704:33977   */\n      swap3\n      swap2\n      pop\n      pop\n      jump\t// out\n\n    auxdata: 0xa2646970667358221220c00eea160cce7ef819d370507f85852b09b6aa1430e0258b16f879304d5af97b64736f6c63430008150033\n}\n",
				"bytecode": {
					"linkReferences": {},
					"object": "608060405234801561000f575f80fd5b503360015f6101000a81548173ffffffffffffffffffffffffffffffffffffffff021916908373ffffffffffffffffffffffffffffffffffffffff160217905550613dad8061005d5f395ff3fe608060405260043610610133575f3560e01c80637555bf10116100aa578063a1ba90b61161006e578063a1ba90b61461040e578063a87430ba14610436578063d18a524a14610473578063d55768dd14610489578063f67a2ad1146104c5578063fecd8f79146104ed57610133565b80637555bf101461033c578063805553e814610364578063861c2b6d146103a05780638da5cb5b146103c85780639f1cd587146103f257610133565b80634f424547116100fc5780634f4245471461021d57806350b447121461025d57806355dea0b31461029a57806362dd748c146102c257806366d0dc67146102fe5780636f7647081461031457610133565b80628de16a1461013757806327b90b1b1461015f5780633d5278831461019f5780633dfe7dee146101df578063410085df146101f5575b5f80fd5b348015610142575f80fd5b5061015d60048036038101906101589190612be2565b610509565b005b34801561016a575f80fd5b5061018560048036038101906101809190612cc0565b61067e565b604051610196959493929190612da6565b60405180910390f35b3480156101aa575f80fd5b506101c560048036038101906101c09190612cc0565b61076f565b6040516101d6959493929190612da6565b60405180910390f35b3480156101ea575f80fd5b506101f3610860565b005b348015610200575f80fd5b5061021b60048036038101906102169190612cc0565b610900565b005b348015610228575f80fd5b50610243600480360381019061023e9190612cc0565b610cbd565b604051610254959493929190612da6565b60405180910390f35b348015610268575f80fd5b50610283600480360381019061027e9190612dfe565b610dae565b604051610291929190612e9c565b60405180910390f35b3480156102a5575f80fd5b506102c060048036038101906102bb9190612ee6565b610e03565b005b3480156102cd575f80fd5b506102e860048036038101906102e39190613039565b610edb565b6040516102f59190613080565b60405180910390f35b348015610309575f80fd5b50610312610fd8565b005b34801561031f575f80fd5b5061033a60048036038101906103359190612dfe565b611079565b005b348015610347575f80fd5b50610362600480360381019061035d91906130a0565b6111aa565b005b34801561036f575f80fd5b5061038a60048036038101906103859190612dfe565b6114e2565b60405161039791906130f0565b60405180910390f35b3480156103ab575f80fd5b506103c660048036038101906103c19190613109565b611532565b005b3480156103d3575f80fd5b506103dc6117cc565b6040516103e9919061319f565b60405180910390f35b61040c600480360381019061040791906131b8565b6117f1565b005b348015610419575f80fd5b50610434600480360381019061042f9190613238565b612167565b005b348015610441575f80fd5b5061045c60048036038101906104579190613292565b6121fe565b60405161046a9291906132bd565b60405180910390f35b34801561047e575f80fd5b5061048761222a565b005b348015610494575f80fd5b506104af60048036038101906104aa9190613039565b6122ca565b6040516104bc919061319f565b60405180910390f35b3480156104d0575f80fd5b506104eb60048036038101906104e69190613292565b612312565b005b610507600480360381019061050291906132e4565b612399565b005b5f6040518060a001604052803373ffffffffffffffffffffffffffffffffffffffff16815260200187815260200160028761054491906133a2565b815260200185858080601f0160208091040260200160405190810160405280939291908181526020018383808284375f81840152601f19601f82011690508083019250505050505050815260200183815250905060045f3373ffffffffffffffffffffffffffffffffffffffff1673ffffffffffffffffffffffffffffffffffffffff1681526020019081526020015f2081908060018154018082558091505060019003905f5260205f2090600502015f909190919091505f820151815f015f6101000a81548173ffffffffffffffffffffffffffffffffffffffff021916908373ffffffffffffffffffffffffffffffffffffffff1602179055506020820151816001015560408201518160020155606082015181600301908161066991906135cc565b50608082015181600401555050505050505050565b6005602052815f5260405f208181548110610697575f80fd5b905f5260205f2090600502015f9150915050805f015f9054906101000a900473ffffffffffffffffffffffffffffffffffffffff16908060010154908060020154908060030180546106e8906133ff565b80601f0160208091040260200160405190810160405280929190818152602001828054610714906133ff565b801561075f5780601f106107365761010080835404028352916020019161075f565b820191905f5260205f20905b81548152906001019060200180831161074257829003601f168201915b5050505050908060040154905085565b6003602052815f5260405f208181548110610788575f80fd5b905f5260205f2090600502015f9150915050805f015f9054906101000a900473ffffffffffffffffffffffffffffffffffffffff16908060010154908060020154908060030180546107d9906133ff565b80601f0160208091040260200160405190810160405280929190818152602001828054610805906133ff565b80156108505780601f1061082757610100808354040283529160200191610850565b820191905f5260205f20905b81548152906001019060200180831161083357829003601f168201915b5050505050908060040154905085565b604051806040016040528060028081111561087e5761087d612e29565b5b81526020015f81525060025f3373ffffffffffffffffffffffffffffffffffffffff1673ffffffffffffffffffffffffffffffffffffffff1681526020019081526020015f205f820151815f015f6101000a81548160ff021916908360028111156108ec576108eb612e29565b5b021790555060208201518160010155905050565b60045f8373ffffffffffffffffffffffffffffffffffffffff1673ffffffffffffffffffffffffffffffffffffffff1681526020019081526020015f20818154811061094f5761094e61369b565b5b905f5260205f2090600502016004015460035f3373ffffffffffffffffffffffffffffffffffffffff1673ffffffffffffffffffffffffffffffffffffffff1681526020019081526020015f2082815481106109ae576109ad61369b565b5b905f5260205f20906005020160040154116109c7575f80fd5b5f670de0b6b3a764000060045f8573ffffffffffffffffffffffffffffffffffffffff1673ffffffffffffffffffffffffffffffffffffffff1681526020019081526020015f208381548110610a2057610a1f61369b565b5b905f5260205f2090600502016002015460035f3373ffffffffffffffffffffffffffffffffffffffff1673ffffffffffffffffffffffffffffffffffffffff1681526020019081526020015f208481548110610a7f57610a7e61369b565b5b905f5260205f20906005020160010154610a9991906136c8565b610aa391906136c8565b905060035f3373ffffffffffffffffffffffffffffffffffffffff1673ffffffffffffffffffffffffffffffffffffffff1681526020019081526020015f208281548110610af457610af361369b565b5b905f5260205f2090600502016001015460045f8573ffffffffffffffffffffffffffffffffffffffff1673ffffffffffffffffffffffffffffffffffffffff1681526020019081526020015f208381548110610b5357610b5261369b565b5b905f5260205f2090600502016001015f828254610b709190613709565b9250508190555060035f3373ffffffffffffffffffffffffffffffffffffffff1673ffffffffffffffffffffffffffffffffffffffff1681526020019081526020015f208281548110610bc657610bc561369b565b5b905f5260205f2090600502015f8082015f6101000a81549073ffffffffffffffffffffffffffffffffffffffff0219169055600182015f9055600282015f9055600382015f610c159190612ae5565b600482015f905550508060025f8573ffffffffffffffffffffffffffffffffffffffff1673ffffffffffffffffffffffffffffffffffffffff1681526020019081526020015f206001015f828254610c6d919061373c565b925050819055503373ffffffffffffffffffffffffffffffffffffffff166108fc8290811502906040515f60405180830381858888f19350505050158015610cb7573d5f803e3d5ffd5b50505050565b6004602052815f5260405f208181548110610cd6575f80fd5b905f5260205f2090600502015f9150915050805f015f9054906101000a900473ffffffffffffffffffffffffffffffffffffffff1690806001015490806002015490806003018054610d27906133ff565b80601f0160208091040260200160405190810160405280929190818152602001828054610d53906133ff565b8015610d9e5780601f10610d7557610100808354040283529160200191610d9e565b820191905f5260205f20905b815481529060010190602001808311610d8157829003601f168201915b5050505050908060040154905085565b5f8181548110610dbc575f80fd5b905f5260205f20015f91509050805f015f9054906101000a900473ffffffffffffffffffffffffffffffffffffffff1690805f0160149054906101000a900460ff16905082565b5f60405180604001604052803373ffffffffffffffffffffffffffffffffffffffff168152602001836002811115610e3e57610e3d612e29565b5b815250908060018154018082558091505060019003905f5260205f20015f909190919091505f820151815f015f6101000a81548173ffffffffffffffffffffffffffffffffffffffff021916908373ffffffffffffffffffffffffffffffffffffffff1602179055506020820151815f0160146101000a81548160ff02191690836002811115610ed157610ed0612e29565b5b0217905550505050565b60605f8290505f5b8151811015610fce576061828281518110610f0157610f0061369b565b5b602001015160f81c60f81b60f81c60ff1610158015610f445750607a828281518110610f3057610f2f61369b565b5b602001015160f81c60f81b60f81c60ff1611155b15610fbb576020828281518110610f5e57610f5d61369b565b5b602001015160f81c60f81b60f81c610f76919061377b565b60f81b828281518110610f8c57610f8b61369b565b5b60200101907effffffffffffffffffffffffffffffffffffffffffffffffffffffffffffff191690815f1a9053505b8080610fc6906137af565b915050610ee3565b5080915050919050565b604051806040016040528060016002811115610ff757610ff6612e29565b5b81526020015f81525060025f3373ffffffffffffffffffffffffffffffffffffffff1673ffffffffffffffffffffffffffffffffffffffff1681526020019081526020015f205f820151815f015f6101000a81548160ff0219169083600281111561106557611064612e29565b5b021790555060208201518160010155905050565b60015f9054906101000a900473ffffffffffffffffffffffffffffffffffffffff1673ffffffffffffffffffffffffffffffffffffffff163373ffffffffffffffffffffffffffffffffffffffff16146110d1575f80fd5b5f8082815481106110e5576110e461369b565b5b905f5260205f20015f015f9054906101000a900473ffffffffffffffffffffffffffffffffffffffff1690505f8083815481106111255761112461369b565b5b905f5260205f20015f0160149054906101000a900460ff1690508060025f8473ffffffffffffffffffffffffffffffffffffffff1673ffffffffffffffffffffffffffffffffffffffff1681526020019081526020015f205f015f6101000a81548160ff021916908360028111156111a05761119f612e29565b5b0217905550505050565b5f81116111ec576040517f08c379a00000000000000000000000000000000000000000000000000000000081526004016111e390613866565b60405180910390fd5b60045f8473ffffffffffffffffffffffffffffffffffffffff1673ffffffffffffffffffffffffffffffffffffffff1681526020019081526020015f2080549050821061126e576040517f08c379a0000000000000000000000000000000000000000000000000000000008152600401611265906138ce565b60405180910390fd5b5f60045f8573ffffffffffffffffffffffffffffffffffffffff1673ffffffffffffffffffffffffffffffffffffffff1681526020019081526020015f2083815481106112be576112bd61369b565b5b905f5260205f20906005020160030180546112d8906133ff565b80601f0160208091040260200160405190810160405280929190818152602001828054611304906133ff565b801561134f5780601f106113265761010080835404028352916020019161134f565b820191905f5260205f20905b81548152906001019060200180831161133257829003601f168201915b505050505090505f816040516020016113689190613972565b604051602081830303815290604052905061138281610edb565b90505f6040518060a001604052803373ffffffffffffffffffffffffffffffffffffffff168152602001600160038111156113c0576113bf612e29565b5b815260200183815260200186815260200185815250905060075f3373ffffffffffffffffffffffffffffffffffffffff1673ffffffffffffffffffffffffffffffffffffffff1681526020019081526020015f2081908060018154018082558091505060019003905f5260205f2090600402015f909190919091505f820151815f015f6101000a81548173ffffffffffffffffffffffffffffffffffffffff021916908373ffffffffffffffffffffffffffffffffffffffff1602179055506020820151815f0160146101000a81548160ff021916908360038111156114a9576114a8612e29565b5b021790555060408201518160010190816114c391906135cc565b5060608201518160020155608082015181600301555050505050505050565b5f8080806114ef906137af565b9150508242338360405160200161150893929190613a0b565b604051602081830303815290604052805190602001205f1c61152a9190613a47565b915050919050565b60028181600281111561154857611547612e29565b5b60025f3373ffffffffffffffffffffffffffffffffffffffff1673ffffffffffffffffffffffffffffffffffffffff1681526020019081526020015f205f015f9054906101000a900460ff1660028111156115a6576115a5612e29565b5b146115e6576040517f08c379a00000000000000000000000000000000000000000000000000000000081526004016115dd90613b0d565b60405180910390fd5b8073ffffffffffffffffffffffffffffffffffffffff163373ffffffffffffffffffffffffffffffffffffffff1614611654576040517f08c379a000000000000000000000000000000000000000000000000000000000815260040161164b90613bc1565b60405180910390fd5b5f6040518060a001604052808573ffffffffffffffffffffffffffffffffffffffff1681526020018a815260200160028a61168f91906133a2565b815260200188888080601f0160208091040260200160405190810160405280939291908181526020018383808284375f81840152601f19601f82011690508083019250505050505050815260200186815250905060055f8573ffffffffffffffffffffffffffffffffffffffff1673ffffffffffffffffffffffffffffffffffffffff1681526020019081526020015f2081908060018154018082558091505060019003905f5260205f2090600502015f909190919091505f820151815f015f6101000a81548173ffffffffffffffffffffffffffffffffffffffff021916908373ffffffffffffffffffffffffffffffffffffffff160217905550602082015181600101556040820151816002015560608201518160030190816117b491906135cc565b50608082015181600401555050505050505050505050565b60015f9054906101000a900473ffffffffffffffffffffffffffffffffffffffff1681565b5f600281111561180457611803612e29565b5b60025f3373ffffffffffffffffffffffffffffffffffffffff1673ffffffffffffffffffffffffffffffffffffffff1681526020019081526020015f205f015f9054906101000a900460ff16600281111561186257611861612e29565b5b036119065760405180604001604052805f600281111561188557611884612e29565b5b81526020015f81525060025f3373ffffffffffffffffffffffffffffffffffffffff1673ffffffffffffffffffffffffffffffffffffffff1681526020019081526020015f205f820151815f015f6101000a81548160ff021916908360028111156118f3576118f2612e29565b5b0217905550602082015181600101559050505b5f8311611948576040517f08c379a000000000000000000000000000000000000000000000000000000000815260040161193f90613866565b60405180910390fd5b60045f8573ffffffffffffffffffffffffffffffffffffffff1673ffffffffffffffffffffffffffffffffffffffff1681526020019081526020015f208054905082106119ca576040517f08c379a00000000000000000000000000000000000000000000000000000000081526004016119c1906138ce565b60405180910390fd5b60045f8573ffffffffffffffffffffffffffffffffffffffff1673ffffffffffffffffffffffffffffffffffffffff1681526020019081526020015f208281548110611a1957611a1861369b565b5b905f5260205f20906005020160010154831115611a6b576040517f08c379a0000000000000000000000000000000000000000000000000000000008152600401611a6290613c29565b60405180910390fd5b5f670de0b6b3a764000060045f8773ffffffffffffffffffffffffffffffffffffffff1673ffffffffffffffffffffffffffffffffffffffff1681526020019081526020015f208481548110611ac457611ac361369b565b5b905f5260205f2090600502016002015485611adf91906136c8565b611ae991906136c8565b90503373ffffffffffffffffffffffffffffffffffffffff16600683604051611b129190613c47565b90815260200160405180910390205f9054906101000a900473ffffffffffffffffffffffffffffffffffffffff1673ffffffffffffffffffffffffffffffffffffffff1603611bd3576064605a82611b6a91906136c8565b611b7491906133a2565b90505f600683604051611b879190613c47565b90815260200160405180910390205f6101000a81548173ffffffffffffffffffffffffffffffffffffffff021916908373ffffffffffffffffffffffffffffffffffffffff1602179055505b80341015611c16576040517f08c379a0000000000000000000000000000000000000000000000000000000008152600401611c0d90613ca7565b60405180910390fd5b5f805b60035f3373ffffffffffffffffffffffffffffffffffffffff1673ffffffffffffffffffffffffffffffffffffffff1681526020019081526020015f2080549050811015611ddc5760035f8873ffffffffffffffffffffffffffffffffffffffff1673ffffffffffffffffffffffffffffffffffffffff1681526020019081526020015f208581548110611cb057611caf61369b565b5b905f5260205f209060050201600301604051611ccc9190613d61565b604051809103902060035f3373ffffffffffffffffffffffffffffffffffffffff1673ffffffffffffffffffffffffffffffffffffffff1681526020019081526020015f208281548110611d2357611d2261369b565b5b905f5260205f209060050201600301604051611d3f9190613d61565b604051809103902003611dc9578560035f3373ffffffffffffffffffffffffffffffffffffffff1673ffffffffffffffffffffffffffffffffffffffff1681526020019081526020015f208281548110611d9c57611d9b61369b565b5b905f5260205f2090600502016001015f828254611db99190613709565b9250508190555060019150611ddc565b8080611dd4906137af565b915050611c19565b508061204e575f6040518060a001604052803373ffffffffffffffffffffffffffffffffffffffff16815260200187815260200160045f8a73ffffffffffffffffffffffffffffffffffffffff1673ffffffffffffffffffffffffffffffffffffffff1681526020019081526020015f208781548110611e5f57611e5e61369b565b5b905f5260205f20906005020160020154815260200160045f8a73ffffffffffffffffffffffffffffffffffffffff1673ffffffffffffffffffffffffffffffffffffffff1681526020019081526020015f208781548110611ec357611ec261369b565b5b905f5260205f2090600502016003018054611edd906133ff565b80601f0160208091040260200160405190810160405280929190818152602001828054611f09906133ff565b8015611f545780601f10611f2b57610100808354040283529160200191611f54565b820191905f5260205f20905b815481529060010190602001808311611f3757829003601f168201915b50505050508152602001611f696103e86114e2565b815250905060035f3373ffffffffffffffffffffffffffffffffffffffff1673ffffffffffffffffffffffffffffffffffffffff1681526020019081526020015f2081908060018154018082558091505060019003905f5260205f2090600502015f909190919091505f820151815f015f6101000a81548173ffffffffffffffffffffffffffffffffffffffff021916908373ffffffffffffffffffffffffffffffffffffffff1602179055506020820151816001015560408201518160020155606082015181600301908161203f91906135cc565b50608082015181600401555050505b8460045f8873ffffffffffffffffffffffffffffffffffffffff1673ffffffffffffffffffffffffffffffffffffffff1681526020019081526020015f20858154811061209e5761209d61369b565b5b905f5260205f2090600502016001015f8282546120bb919061373c565b925050819055508160025f8873ffffffffffffffffffffffffffffffffffffffff1673ffffffffffffffffffffffffffffffffffffffff1681526020019081526020015f20600101819055508134111561215f573373ffffffffffffffffffffffffffffffffffffffff166108fc8334612135919061373c565b90811502906040515f60405180830381858888f1935050505015801561215d573d5f803e3d5ffd5b505b505050505050565b8073ffffffffffffffffffffffffffffffffffffffff163373ffffffffffffffffffffffffffffffffffffffff160361219e575f80fd5b806006836040516121af9190613c47565b90815260200160405180910390205f6101000a81548173ffffffffffffffffffffffffffffffffffffffff021916908373ffffffffffffffffffffffffffffffffffffffff1602179055505050565b6002602052805f5260405f205f91509050805f015f9054906101000a900460ff16908060010154905082565b60405180604001604052805f600281111561224857612247612e29565b5b81526020015f81525060025f3373ffffffffffffffffffffffffffffffffffffffff1673ffffffffffffffffffffffffffffffffffffffff1681526020019081526020015f205f820151815f015f6101000a81548160ff021916908360028111156122b6576122b5612e29565b5b021790555060208201518160010155905050565b6006818051602081018201805184825260208301602085012081835280955050505050505f915054906101000a900473ffffffffffffffffffffffffffffffffffffffff1681565b8073ffffffffffffffffffffffffffffffffffffffff166108fc60025f8473ffffffffffffffffffffffffffffffffffffffff1673ffffffffffffffffffffffffffffffffffffffff1681526020019081526020015f206001015490811502906040515f60405180830381858888f19350505050158015612395573d5f803e3d5ffd5b5050565b6001848160028111156123af576123ae612e29565b5b60025f3373ffffffffffffffffffffffffffffffffffffffff1673ffffffffffffffffffffffffffffffffffffffff1681526020019081526020015f205f015f9054906101000a900460ff16600281111561240d5761240c612e29565b5b1461244d576040517f08c379a000000000000000000000000000000000000000000000000000000000815260040161244490613b0d565b60405180910390fd5b8073ffffffffffffffffffffffffffffffffffffffff163373ffffffffffffffffffffffffffffffffffffffff16146124bb576040517f08c379a00000000000000000000000000000000000000000000000000000000081526004016124b290613bc1565b60405180910390fd5b5f84116124fd576040517f08c379a00000000000000000000000000000000000000000000000000000000081526004016124f490613866565b60405180910390fd5b60055f8473ffffffffffffffffffffffffffffffffffffffff1673ffffffffffffffffffffffffffffffffffffffff1681526020019081526020015f2080549050851061257f576040517f08c379a0000000000000000000000000000000000000000000000000000000008152600401612576906138ce565b60405180910390fd5b5f60055f8573ffffffffffffffffffffffffffffffffffffffff1673ffffffffffffffffffffffffffffffffffffffff1681526020019081526020015f2086815481106125cf576125ce61369b565b5b905f5260205f2090600502016002015490505f670de0b6b3a764000086836125f791906136c8565b61260191906136c8565b905080341015612646576040517f08c379a000000000000000000000000000000000000000000000000000000000815260040161263d90613ca7565b60405180910390fd5b5f60055f8773ffffffffffffffffffffffffffffffffffffffff1673ffffffffffffffffffffffffffffffffffffffff1681526020019081526020015f2088815481106126965761269561369b565b5b905f5260205f20906005020160030180546126b0906133ff565b80601f01602080910402602001604051908101604052809291908181526020018280546126dc906133ff565b80156127275780601f106126fe57610100808354040283529160200191612727565b820191905f5260205f20905b81548152906001019060200180831161270a57829003601f168201915b505050505090505f805b60045f8c73ffffffffffffffffffffffffffffffffffffffff1673ffffffffffffffffffffffffffffffffffffffff1681526020019081526020015f20805490508110156128895760045f8c73ffffffffffffffffffffffffffffffffffffffff1673ffffffffffffffffffffffffffffffffffffffff1681526020019081526020015f2081815481106127c8576127c761369b565b5b905f5260205f2090600502016003016040516127e49190613d61565b6040518091039020838051906020012003612876578860045f8d73ffffffffffffffffffffffffffffffffffffffff1673ffffffffffffffffffffffffffffffffffffffff1681526020019081526020015f2082815481106128495761284861369b565b5b905f5260205f2090600502016001015f8282546128669190613709565b9250508190555060019150612889565b8080612881906137af565b915050612731565b5080612a0d575f6040518060a001604052808973ffffffffffffffffffffffffffffffffffffffff1681526020018a815260200186815260200184815260200160055f8b73ffffffffffffffffffffffffffffffffffffffff1673ffffffffffffffffffffffffffffffffffffffff1681526020019081526020015f208c815481106129185761291761369b565b5b905f5260205f20906005020160040154815250905060045f8c73ffffffffffffffffffffffffffffffffffffffff1673ffffffffffffffffffffffffffffffffffffffff1681526020019081526020015f2081908060018154018082558091505060019003905f5260205f2090600502015f909190919091505f820151815f015f6101000a81548173ffffffffffffffffffffffffffffffffffffffff021916908373ffffffffffffffffffffffffffffffffffffffff160217905550602082015181600101556040820151816002015560608201518160030190816129fe91906135cc565b50608082015181600401555050505b8760055f8973ffffffffffffffffffffffffffffffffffffffff1673ffffffffffffffffffffffffffffffffffffffff1681526020019081526020015f208a81548110612a5d57612a5c61369b565b5b905f5260205f2090600502016001015f828254612a7a919061373c565b9250508190555082341115612ad9573373ffffffffffffffffffffffffffffffffffffffff166108fc8434612aaf919061373c565b90811502906040515f60405180830381858888f19350505050158015612ad7573d5f803e3d5ffd5b505b50505050505050505050565b508054612af1906133ff565b5f825580601f10612b025750612b1f565b601f0160209004905f5260205f2090810190612b1e9190612b22565b5b50565b5b80821115612b39575f815f905550600101612b23565b5090565b5f604051905090565b5f80fd5b5f80fd5b5f819050919050565b612b6081612b4e565b8114612b6a575f80fd5b50565b5f81359050612b7b81612b57565b92915050565b5f80fd5b5f80fd5b5f80fd5b5f8083601f840112612ba257612ba1612b81565b5b8235905067ffffffffffffffff811115612bbf57612bbe612b85565b5b602083019150836001820283011115612bdb57612bda612b89565b5b9250929050565b5f805f805f60808688031215612bfb57612bfa612b46565b5b5f612c0888828901612b6d565b9550506020612c1988828901612b6d565b945050604086013567ffffffffffffffff811115612c3a57612c39612b4a565b5b612c4688828901612b8d565b93509350506060612c5988828901612b6d565b9150509295509295909350565b5f73ffffffffffffffffffffffffffffffffffffffff82169050919050565b5f612c8f82612c66565b9050919050565b612c9f81612c85565b8114612ca9575f80fd5b50565b5f81359050612cba81612c96565b92915050565b5f8060408385031215612cd657612cd5612b46565b5b5f612ce385828601612cac565b9250506020612cf485828601612b6d565b9150509250929050565b612d0781612c85565b82525050565b612d1681612b4e565b82525050565b5f81519050919050565b5f82825260208201905092915050565b5f5b83811015612d53578082015181840152602081019050612d38565b5f8484015250505050565b5f601f19601f8301169050919050565b5f612d7882612d1c565b612d828185612d26565b9350612d92818560208601612d36565b612d9b81612d5e565b840191505092915050565b5f60a082019050612db95f830188612cfe565b612dc66020830187612d0d565b612dd36040830186612d0d565b8181036060830152612de58185612d6e565b9050612df46080830184612d0d565b9695505050505050565b5f60208284031215612e1357612e12612b46565b5b5f612e2084828501612b6d565b91505092915050565b7f4e487b71000000000000000000000000000000000000000000000000000000005f52602160045260245ffd5b60038110612e6757612e66612e29565b5b50565b5f819050612e7782612e56565b919050565b5f612e8682612e6a565b9050919050565b612e9681612e7c565b82525050565b5f604082019050612eaf5f830185612cfe565b612ebc6020830184612e8d565b9392505050565b60038110612ecf575f80fd5b50565b5f81359050612ee081612ec3565b92915050565b5f60208284031215612efb57612efa612b46565b5b5f612f0884828501612ed2565b91505092915050565b5f80fd5b7f4e487b71000000000000000000000000000000000000000000000000000000005f52604160045260245ffd5b612f4b82612d5e565b810181811067ffffffffffffffff82111715612f6a57612f69612f15565b5b80604052505050565b5f612f7c612b3d565b9050612f888282612f42565b919050565b5f67ffffffffffffffff821115612fa757612fa6612f15565b5b612fb082612d5e565b9050602081019050919050565b828183375f83830152505050565b5f612fdd612fd884612f8d565b612f73565b905082815260208101848484011115612ff957612ff8612f11565b5b613004848285612fbd565b509392505050565b5f82601f8301126130205761301f612b81565b5b8135613030848260208601612fcb565b91505092915050565b5f6020828403121561304e5761304d612b46565b5b5f82013567ffffffffffffffff81111561306b5761306a612b4a565b5b6130778482850161300c565b91505092915050565b5f6020820190508181035f8301526130988184612d6e565b905092915050565b5f805f606084860312156130b7576130b6612b46565b5b5f6130c486828701612cac565b93505060206130d586828701612b6d565b92505060406130e686828701612b6d565b9150509250925092565b5f6020820190506131035f830184612d0d565b92915050565b5f805f805f8060a0878903121561312357613122612b46565b5b5f61313089828a01612b6d565b965050602061314189828a01612b6d565b955050604087013567ffffffffffffffff81111561316257613161612b4a565b5b61316e89828a01612b8d565b9450945050606061318189828a01612b6d565b925050608061319289828a01612cac565b9150509295509295509295565b5f6020820190506131b25f830184612cfe565b92915050565b5f805f80608085870312156131d0576131cf612b46565b5b5f6131dd87828801612cac565b94505060206131ee87828801612b6d565b93505060406131ff87828801612b6d565b925050606085013567ffffffffffffffff8111156132205761321f612b4a565b5b61322c8782880161300c565b91505092959194509250565b5f806040838503121561324e5761324d612b46565b5b5f83013567ffffffffffffffff81111561326b5761326a612b4a565b5b6132778582860161300c565b925050602061328885828601612cac565b9150509250929050565b5f602082840312156132a7576132a6612b46565b5b5f6132b484828501612cac565b91505092915050565b5f6040820190506132d05f830185612e8d565b6132dd6020830184612d0d565b9392505050565b5f805f80608085870312156132fc576132fb612b46565b5b5f61330987828801612cac565b945050602061331a87828801612b6d565b935050604061332b87828801612b6d565b925050606061333c87828801612cac565b91505092959194509250565b7f4e487b71000000000000000000000000000000000000000000000000000000005f52601260045260245ffd5b7f4e487b71000000000000000000000000000000000000000000000000000000005f52601160045260245ffd5b5f6133ac82612b4e565b91506133b783612b4e565b9250826133c7576133c6613348565b5b828204905092915050565b7f4e487b71000000000000000000000000000000000000000000000000000000005f52602260045260245ffd5b5f600282049050600182168061341657607f821691505b602082108103613429576134286133d2565b5b50919050565b5f819050815f5260205f209050919050565b5f6020601f8301049050919050565b5f82821b905092915050565b5f6008830261348b7fffffffffffffffffffffffffffffffffffffffffffffffffffffffffffffffff82613450565b6134958683613450565b95508019841693508086168417925050509392505050565b5f819050919050565b5f6134d06134cb6134c684612b4e565b6134ad565b612b4e565b9050919050565b5f819050919050565b6134e9836134b6565b6134fd6134f5826134d7565b84845461345c565b825550505050565b5f90565b613511613505565b61351c8184846134e0565b505050565b5b8181101561353f576135345f82613509565b600181019050613522565b5050565b601f821115613584576135558161342f565b61355e84613441565b8101602085101561356d578190505b61358161357985613441565b830182613521565b50505b505050565b5f82821c905092915050565b5f6135a45f1984600802613589565b1980831691505092915050565b5f6135bc8383613595565b9150826002028217905092915050565b6135d582612d1c565b67ffffffffffffffff8111156135ee576135ed612f15565b5b6135f882546133ff565b613603828285613543565b5f60209050601f831160018114613634575f8415613622578287015190505b61362c85826135b1565b865550613693565b601f1984166136428661342f565b5f5b8281101561366957848901518255600182019150602085019450602081019050613644565b868310156136865784890151613682601f891682613595565b8355505b6001600288020188555050505b505050505050565b7f4e487b71000000000000000000000000000000000000000000000000000000005f52603260045260245ffd5b5f6136d282612b4e565b91506136dd83612b4e565b92508282026136eb81612b4e565b9150828204841483151761370257613701613375565b5b5092915050565b5f61371382612b4e565b915061371e83612b4e565b925082820190508082111561373657613735613375565b5b92915050565b5f61374682612b4e565b915061375183612b4e565b925082820390508181111561376957613768613375565b5b92915050565b5f60ff82169050919050565b5f6137858261376f565b91506137908361376f565b9250828203905060ff8111156137a9576137a8613375565b5b92915050565b5f6137b982612b4e565b91507fffffffffffffffffffffffffffffffffffffffffffffffffffffffffffffffff82036137eb576137ea613375565b5b600182019050919050565b7f507572636861736520616d6f756e74206d7573742062652067726561746572205f8201527f7468616e20300000000000000000000000000000000000000000000000000000602082015250565b5f613850602683612d26565b915061385b826137f6565b604082019050919050565b5f6020820190508181035f83015261387d81613844565b9050919050565b7f496e76616c69642070726f6475637420494400000000000000000000000000005f82015250565b5f6138b8601283612d26565b91506138c382613884565b602082019050919050565b5f6020820190508181035f8301526138e5816138ac565b9050919050565b7f4141000000000000000000000000000000000000000000000000000000000000815250565b5f81905092915050565b5f61392682612d1c565b6139308185613912565b9350613940818560208601612d36565b80840191505092915050565b7f4242000000000000000000000000000000000000000000000000000000000000815250565b5f61397c826138ec565b60028201915061398c828461391c565b91506139978261394c565b60028201915081905092915050565b5f819050919050565b6139c06139bb82612b4e565b6139a6565b82525050565b5f8160601b9050919050565b5f6139dc826139c6565b9050919050565b5f6139ed826139d2565b9050919050565b613a05613a0082612c85565b6139e3565b82525050565b5f613a1682866139af565b602082019150613a2682856139f4565b601482019150613a3682846139af565b602082019150819050949350505050565b5f613a5182612b4e565b9150613a5c83612b4e565b925082613a6c57613a6b613348565b5b828206905092915050565b7fd092d0b0d188d0b020d180d0bed0bbd18c20d0bdd0b520d0bfd0bed0b7d0b2d05f8201527fbed0bbd18fd0b5d18220d18dd182d0be20d0b8d0b7d0bcd0b5d0bdd18fd182d160208201527f8c00000000000000000000000000000000000000000000000000000000000000604082015250565b5f613af7604183612d26565b9150613b0282613a77565b606082019050919050565b5f6020820190508181035f830152613b2481613aeb565b9050919050565b7fd09cd0b0d0b3d0b0d0b7d0b8d0bd20d0bdd0b520d181d0bed0bed182d0b2d0b55f8201527fd182d181d0b2d183d0b5d18220d0bed182d0bfd180d0b0d0b2d0b8d182d0b5d060208201527fbbd18e0000000000000000000000000000000000000000000000000000000000604082015250565b5f613bab604383612d26565b9150613bb682613b2b565b606082019050919050565b5f6020820190508181035f830152613bd881613b9f565b9050919050565b7f4e6f7420656e6f7567682073746f636b20617661696c61626c650000000000005f82015250565b5f613c13601a83612d26565b9150613c1e82613bdf565b602082019050919050565b5f6020820190508181035f830152613c4081613c07565b9050919050565b5f613c52828461391c565b915081905092915050565b7f496e73756666696369656e742066756e64732073656e740000000000000000005f82015250565b5f613c91601783612d26565b9150613c9c82613c5d565b602082019050919050565b5f6020820190508181035f830152613cbe81613c85565b9050919050565b5f81905092915050565b5f819050815f5260205f209050919050565b5f8154613ced816133ff565b613cf78186613cc5565b9450600182165f8114613d115760018114613d2657613d58565b60ff1983168652811515820286019350613d58565b613d2f85613ccf565b5f5b83811015613d5057815481890152600182019150602081019050613d31565b838801955050505b50505092915050565b5f613d6c8284613ce1565b91508190509291505056fea2646970667358221220c00eea160cce7ef819d370507f85852b09b6aa1430e0258b16f879304d5af97b64736f6c63430008150033",
					"opcodes": "PUSH1 0x80 PUSH1 0x40 MSTORE CALLVALUE DUP1 ISZERO PUSH2 0xF JUMPI PUSH0 DUP1 REVERT JUMPDEST POP CALLER PUSH1 0x1 PUSH0 PUSH2 0x100 EXP DUP2 SLOAD DUP2 PUSH20 0xFFFFFFFFFFFFFFFFFFFFFFFFFFFFFFFFFFFFFFFF MUL NOT AND SWAP1 DUP4 PUSH20 0xFFFFFFFFFFFFFFFFFFFFFFFFFFFFFFFFFFFFFFFF AND MUL OR SWAP1 SSTORE POP PUSH2 0x3DAD DUP1 PUSH2 0x5D PUSH0 CODECOPY PUSH0 RETURN INVALID PUSH1 0x80 PUSH1 0x40 MSTORE PUSH1 0x4 CALLDATASIZE LT PUSH2 0x133 JUMPI PUSH0 CALLDATALOAD PUSH1 0xE0 SHR DUP1 PUSH4 0x7555BF10 GT PUSH2 0xAA JUMPI DUP1 PUSH4 0xA1BA90B6 GT PUSH2 0x6E JUMPI DUP1 PUSH4 0xA1BA90B6 EQ PUSH2 0x40E JUMPI DUP1 PUSH4 0xA87430BA EQ PUSH2 0x436 JUMPI DUP1 PUSH4 0xD18A524A EQ PUSH2 0x473 JUMPI DUP1 PUSH4 0xD55768DD EQ PUSH2 0x489 JUMPI DUP1 PUSH4 0xF67A2AD1 EQ PUSH2 0x4C5 JUMPI DUP1 PUSH4 0xFECD8F79 EQ PUSH2 0x4ED JUMPI PUSH2 0x133 JUMP JUMPDEST DUP1 PUSH4 0x7555BF10 EQ PUSH2 0x33C JUMPI DUP1 PUSH4 0x805553E8 EQ PUSH2 0x364 JUMPI DUP1 PUSH4 0x861C2B6D EQ PUSH2 0x3A0 JUMPI DUP1 PUSH4 0x8DA5CB5B EQ PUSH2 0x3C8 JUMPI DUP1 PUSH4 0x9F1CD587 EQ PUSH2 0x3F2 JUMPI PUSH2 0x133 JUMP JUMPDEST DUP1 PUSH4 0x4F424547 GT PUSH2 0xFC JUMPI DUP1 PUSH4 0x4F424547 EQ PUSH2 0x21D JUMPI DUP1 PUSH4 0x50B44712 EQ PUSH2 0x25D JUMPI DUP1 PUSH4 0x55DEA0B3 EQ PUSH2 0x29A JUMPI DUP1 PUSH4 0x62DD748C EQ PUSH2 0x2C2 JUMPI DUP1 PUSH4 0x66D0DC67 EQ PUSH2 0x2FE JUMPI DUP1 PUSH4 0x6F764708 EQ PUSH2 0x314 JUMPI PUSH2 0x133 JUMP JUMPDEST DUP1 PUSH3 0x8DE16A EQ PUSH2 0x137 JUMPI DUP1 PUSH4 0x27B90B1B EQ PUSH2 0x15F JUMPI DUP1 PUSH4 0x3D527883 EQ PUSH2 0x19F JUMPI DUP1 PUSH4 0x3DFE7DEE EQ PUSH2 0x1DF JUMPI DUP1 PUSH4 0x410085DF EQ PUSH2 0x1F5 JUMPI JUMPDEST PUSH0 DUP1 REVERT JUMPDEST CALLVALUE DUP1 ISZERO PUSH2 0x142 JUMPI PUSH0 DUP1 REVERT JUMPDEST POP PUSH2 0x15D PUSH1 0x4 DUP1 CALLDATASIZE SUB DUP2 ADD SWAP1 PUSH2 0x158 SWAP2 SWAP1 PUSH2 0x2BE2 JUMP JUMPDEST PUSH2 0x509 JUMP JUMPDEST STOP JUMPDEST CALLVALUE DUP1 ISZERO PUSH2 0x16A JUMPI PUSH0 DUP1 REVERT JUMPDEST POP PUSH2 0x185 PUSH1 0x4 DUP1 CALLDATASIZE SUB DUP2 ADD SWAP1 PUSH2 0x180 SWAP2 SWAP1 PUSH2 0x2CC0 JUMP JUMPDEST PUSH2 0x67E JUMP JUMPDEST PUSH1 0x40 MLOAD PUSH2 0x196 SWAP6 SWAP5 SWAP4 SWAP3 SWAP2 SWAP1 PUSH2 0x2DA6 JUMP JUMPDEST PUSH1 0x40 MLOAD DUP1 SWAP2 SUB SWAP1 RETURN JUMPDEST CALLVALUE DUP1 ISZERO PUSH2 0x1AA JUMPI PUSH0 DUP1 REVERT JUMPDEST POP PUSH2 0x1C5 PUSH1 0x4 DUP1 CALLDATASIZE SUB DUP2 ADD SWAP1 PUSH2 0x1C0 SWAP2 SWAP1 PUSH2 0x2CC0 JUMP JUMPDEST PUSH2 0x76F JUMP JUMPDEST PUSH1 0x40 MLOAD PUSH2 0x1D6 SWAP6 SWAP5 SWAP4 SWAP3 SWAP2 SWAP1 PUSH2 0x2DA6 JUMP JUMPDEST PUSH1 0x40 MLOAD DUP1 SWAP2 SUB SWAP1 RETURN JUMPDEST CALLVALUE DUP1 ISZERO PUSH2 0x1EA JUMPI PUSH0 DUP1 REVERT JUMPDEST POP PUSH2 0x1F3 PUSH2 0x860 JUMP JUMPDEST STOP JUMPDEST CALLVALUE DUP1 ISZERO PUSH2 0x200 JUMPI PUSH0 DUP1 REVERT JUMPDEST POP PUSH2 0x21B PUSH1 0x4 DUP1 CALLDATASIZE SUB DUP2 ADD SWAP1 PUSH2 0x216 SWAP2 SWAP1 PUSH2 0x2CC0 JUMP JUMPDEST PUSH2 0x900 JUMP JUMPDEST STOP JUMPDEST CALLVALUE DUP1 ISZERO PUSH2 0x228 JUMPI PUSH0 DUP1 REVERT JUMPDEST POP PUSH2 0x243 PUSH1 0x4 DUP1 CALLDATASIZE SUB DUP2 ADD SWAP1 PUSH2 0x23E SWAP2 SWAP1 PUSH2 0x2CC0 JUMP JUMPDEST PUSH2 0xCBD JUMP JUMPDEST PUSH1 0x40 MLOAD PUSH2 0x254 SWAP6 SWAP5 SWAP4 SWAP3 SWAP2 SWAP1 PUSH2 0x2DA6 JUMP JUMPDEST PUSH1 0x40 MLOAD DUP1 SWAP2 SUB SWAP1 RETURN JUMPDEST CALLVALUE DUP1 ISZERO PUSH2 0x268 JUMPI PUSH0 DUP1 REVERT JUMPDEST POP PUSH2 0x283 PUSH1 0x4 DUP1 CALLDATASIZE SUB DUP2 ADD SWAP1 PUSH2 0x27E SWAP2 SWAP1 PUSH2 0x2DFE JUMP JUMPDEST PUSH2 0xDAE JUMP JUMPDEST PUSH1 0x40 MLOAD PUSH2 0x291 SWAP3 SWAP2 SWAP1 PUSH2 0x2E9C JUMP JUMPDEST PUSH1 0x40 MLOAD DUP1 SWAP2 SUB SWAP1 RETURN JUMPDEST CALLVALUE DUP1 ISZERO PUSH2 0x2A5 JUMPI PUSH0 DUP1 REVERT JUMPDEST POP PUSH2 0x2C0 PUSH1 0x4 DUP1 CALLDATASIZE SUB DUP2 ADD SWAP1 PUSH2 0x2BB SWAP2 SWAP1 PUSH2 0x2EE6 JUMP JUMPDEST PUSH2 0xE03 JUMP JUMPDEST STOP JUMPDEST CALLVALUE DUP1 ISZERO PUSH2 0x2CD JUMPI PUSH0 DUP1 REVERT JUMPDEST POP PUSH2 0x2E8 PUSH1 0x4 DUP1 CALLDATASIZE SUB DUP2 ADD SWAP1 PUSH2 0x2E3 SWAP2 SWAP1 PUSH2 0x3039 JUMP JUMPDEST PUSH2 0xEDB JUMP JUMPDEST PUSH1 0x40 MLOAD PUSH2 0x2F5 SWAP2 SWAP1 PUSH2 0x3080 JUMP JUMPDEST PUSH1 0x40 MLOAD DUP1 SWAP2 SUB SWAP1 RETURN JUMPDEST CALLVALUE DUP1 ISZERO PUSH2 0x309 JUMPI PUSH0 DUP1 REVERT JUMPDEST POP PUSH2 0x312 PUSH2 0xFD8 JUMP JUMPDEST STOP JUMPDEST CALLVALUE DUP1 ISZERO PUSH2 0x31F JUMPI PUSH0 DUP1 REVERT JUMPDEST POP PUSH2 0x33A PUSH1 0x4 DUP1 CALLDATASIZE SUB DUP2 ADD SWAP1 PUSH2 0x335 SWAP2 SWAP1 PUSH2 0x2DFE JUMP JUMPDEST PUSH2 0x1079 JUMP JUMPDEST STOP JUMPDEST CALLVALUE DUP1 ISZERO PUSH2 0x347 JUMPI PUSH0 DUP1 REVERT JUMPDEST POP PUSH2 0x362 PUSH1 0x4 DUP1 CALLDATASIZE SUB DUP2 ADD SWAP1 PUSH2 0x35D SWAP2 SWAP1 PUSH2 0x30A0 JUMP JUMPDEST PUSH2 0x11AA JUMP JUMPDEST STOP JUMPDEST CALLVALUE DUP1 ISZERO PUSH2 0x36F JUMPI PUSH0 DUP1 REVERT JUMPDEST POP PUSH2 0x38A PUSH1 0x4 DUP1 CALLDATASIZE SUB DUP2 ADD SWAP1 PUSH2 0x385 SWAP2 SWAP1 PUSH2 0x2DFE JUMP JUMPDEST PUSH2 0x14E2 JUMP JUMPDEST PUSH1 0x40 MLOAD PUSH2 0x397 SWAP2 SWAP1 PUSH2 0x30F0 JUMP JUMPDEST PUSH1 0x40 MLOAD DUP1 SWAP2 SUB SWAP1 RETURN JUMPDEST CALLVALUE DUP1 ISZERO PUSH2 0x3AB JUMPI PUSH0 DUP1 REVERT JUMPDEST POP PUSH2 0x3C6 PUSH1 0x4 DUP1 CALLDATASIZE SUB DUP2 ADD SWAP1 PUSH2 0x3C1 SWAP2 SWAP1 PUSH2 0x3109 JUMP JUMPDEST PUSH2 0x1532 JUMP JUMPDEST STOP JUMPDEST CALLVALUE DUP1 ISZERO PUSH2 0x3D3 JUMPI PUSH0 DUP1 REVERT JUMPDEST POP PUSH2 0x3DC PUSH2 0x17CC JUMP JUMPDEST PUSH1 0x40 MLOAD PUSH2 0x3E9 SWAP2 SWAP1 PUSH2 0x319F JUMP JUMPDEST PUSH1 0x40 MLOAD DUP1 SWAP2 SUB SWAP1 RETURN JUMPDEST PUSH2 0x40C PUSH1 0x4 DUP1 CALLDATASIZE SUB DUP2 ADD SWAP1 PUSH2 0x407 SWAP2 SWAP1 PUSH2 0x31B8 JUMP JUMPDEST PUSH2 0x17F1 JUMP JUMPDEST STOP JUMPDEST CALLVALUE DUP1 ISZERO PUSH2 0x419 JUMPI PUSH0 DUP1 REVERT JUMPDEST POP PUSH2 0x434 PUSH1 0x4 DUP1 CALLDATASIZE SUB DUP2 ADD SWAP1 PUSH2 0x42F SWAP2 SWAP1 PUSH2 0x3238 JUMP JUMPDEST PUSH2 0x2167 JUMP JUMPDEST STOP JUMPDEST CALLVALUE DUP1 ISZERO PUSH2 0x441 JUMPI PUSH0 DUP1 REVERT JUMPDEST POP PUSH2 0x45C PUSH1 0x4 DUP1 CALLDATASIZE SUB DUP2 ADD SWAP1 PUSH2 0x457 SWAP2 SWAP1 PUSH2 0x3292 JUMP JUMPDEST PUSH2 0x21FE JUMP JUMPDEST PUSH1 0x40 MLOAD PUSH2 0x46A SWAP3 SWAP2 SWAP1 PUSH2 0x32BD JUMP JUMPDEST PUSH1 0x40 MLOAD DUP1 SWAP2 SUB SWAP1 RETURN JUMPDEST CALLVALUE DUP1 ISZERO PUSH2 0x47E JUMPI PUSH0 DUP1 REVERT JUMPDEST POP PUSH2 0x487 PUSH2 0x222A JUMP JUMPDEST STOP JUMPDEST CALLVALUE DUP1 ISZERO PUSH2 0x494 JUMPI PUSH0 DUP1 REVERT JUMPDEST POP PUSH2 0x4AF PUSH1 0x4 DUP1 CALLDATASIZE SUB DUP2 ADD SWAP1 PUSH2 0x4AA SWAP2 SWAP1 PUSH2 0x3039 JUMP JUMPDEST PUSH2 0x22CA JUMP JUMPDEST PUSH1 0x40 MLOAD PUSH2 0x4BC SWAP2 SWAP1 PUSH2 0x319F JUMP JUMPDEST PUSH1 0x40 MLOAD DUP1 SWAP2 SUB SWAP1 RETURN JUMPDEST CALLVALUE DUP1 ISZERO PUSH2 0x4D0 JUMPI PUSH0 DUP1 REVERT JUMPDEST POP PUSH2 0x4EB PUSH1 0x4 DUP1 CALLDATASIZE SUB DUP2 ADD SWAP1 PUSH2 0x4E6 SWAP2 SWAP1 PUSH2 0x3292 JUMP JUMPDEST PUSH2 0x2312 JUMP JUMPDEST STOP JUMPDEST PUSH2 0x507 PUSH1 0x4 DUP1 CALLDATASIZE SUB DUP2 ADD SWAP1 PUSH2 0x502 SWAP2 SWAP1 PUSH2 0x32E4 JUMP JUMPDEST PUSH2 0x2399 JUMP JUMPDEST STOP JUMPDEST PUSH0 PUSH1 0x40 MLOAD DUP1 PUSH1 0xA0 ADD PUSH1 0x40 MSTORE DUP1 CALLER PUSH20 0xFFFFFFFFFFFFFFFFFFFFFFFFFFFFFFFFFFFFFFFF AND DUP2 MSTORE PUSH1 0x20 ADD DUP8 DUP2 MSTORE PUSH1 0x20 ADD PUSH1 0x2 DUP8 PUSH2 0x544 SWAP2 SWAP1 PUSH2 0x33A2 JUMP JUMPDEST DUP2 MSTORE PUSH1 0x20 ADD DUP6 DUP6 DUP1 DUP1 PUSH1 0x1F ADD PUSH1 0x20 DUP1 SWAP2 DIV MUL PUSH1 0x20 ADD PUSH1 0x40 MLOAD SWAP1 DUP2 ADD PUSH1 0x40 MSTORE DUP1 SWAP4 SWAP3 SWAP2 SWAP1 DUP2 DUP2 MSTORE PUSH1 0x20 ADD DUP4 DUP4 DUP1 DUP3 DUP5 CALLDATACOPY PUSH0 DUP2 DUP5 ADD MSTORE PUSH1 0x1F NOT PUSH1 0x1F DUP3 ADD AND SWAP1 POP DUP1 DUP4 ADD SWAP3 POP POP POP POP POP POP POP DUP2 MSTORE PUSH1 0x20 ADD DUP4 DUP2 MSTORE POP SWAP1 POP PUSH1 0x4 PUSH0 CALLER PUSH20 0xFFFFFFFFFFFFFFFFFFFFFFFFFFFFFFFFFFFFFFFF AND PUSH20 0xFFFFFFFFFFFFFFFFFFFFFFFFFFFFFFFFFFFFFFFF AND DUP2 MSTORE PUSH1 0x20 ADD SWAP1 DUP2 MSTORE PUSH1 0x20 ADD PUSH0 KECCAK256 DUP2 SWAP1 DUP1 PUSH1 0x1 DUP2 SLOAD ADD DUP1 DUP3 SSTORE DUP1 SWAP2 POP POP PUSH1 0x1 SWAP1 SUB SWAP1 PUSH0 MSTORE PUSH1 0x20 PUSH0 KECCAK256 SWAP1 PUSH1 0x5 MUL ADD PUSH0 SWAP1 SWAP2 SWAP1 SWAP2 SWAP1 SWAP2 POP PUSH0 DUP3 ADD MLOAD DUP2 PUSH0 ADD PUSH0 PUSH2 0x100 EXP DUP2 SLOAD DUP2 PUSH20 0xFFFFFFFFFFFFFFFFFFFFFFFFFFFFFFFFFFFFFFFF MUL NOT AND SWAP1 DUP4 PUSH20 0xFFFFFFFFFFFFFFFFFFFFFFFFFFFFFFFFFFFFFFFF AND MUL OR SWAP1 SSTORE POP PUSH1 0x20 DUP3 ADD MLOAD DUP2 PUSH1 0x1 ADD SSTORE PUSH1 0x40 DUP3 ADD MLOAD DUP2 PUSH1 0x2 ADD SSTORE PUSH1 0x60 DUP3 ADD MLOAD DUP2 PUSH1 0x3 ADD SWAP1 DUP2 PUSH2 0x669 SWAP2 SWAP1 PUSH2 0x35CC JUMP JUMPDEST POP PUSH1 0x80 DUP3 ADD MLOAD DUP2 PUSH1 0x4 ADD SSTORE POP POP POP POP POP POP POP POP JUMP JUMPDEST PUSH1 0x5 PUSH1 0x20 MSTORE DUP2 PUSH0 MSTORE PUSH1 0x40 PUSH0 KECCAK256 DUP2 DUP2 SLOAD DUP2 LT PUSH2 0x697 JUMPI PUSH0 DUP1 REVERT JUMPDEST SWAP1 PUSH0 MSTORE PUSH1 0x20 PUSH0 KECCAK256 SWAP1 PUSH1 0x5 MUL ADD PUSH0 SWAP2 POP SWAP2 POP POP DUP1 PUSH0 ADD PUSH0 SWAP1 SLOAD SWAP1 PUSH2 0x100 EXP SWAP1 DIV PUSH20 0xFFFFFFFFFFFFFFFFFFFFFFFFFFFFFFFFFFFFFFFF AND SWAP1 DUP1 PUSH1 0x1 ADD SLOAD SWAP1 DUP1 PUSH1 0x2 ADD SLOAD SWAP1 DUP1 PUSH1 0x3 ADD DUP1 SLOAD PUSH2 0x6E8 SWAP1 PUSH2 0x33FF JUMP JUMPDEST DUP1 PUSH1 0x1F ADD PUSH1 0x20 DUP1 SWAP2 DIV MUL PUSH1 0x20 ADD PUSH1 0x40 MLOAD SWAP1 DUP2 ADD PUSH1 0x40 MSTORE DUP1 SWAP3 SWAP2 SWAP1 DUP2 DUP2 MSTORE PUSH1 0x20 ADD DUP3 DUP1 SLOAD PUSH2 0x714 SWAP1 PUSH2 0x33FF JUMP JUMPDEST DUP1 ISZERO PUSH2 0x75F JUMPI DUP1 PUSH1 0x1F LT PUSH2 0x736 JUMPI PUSH2 0x100 DUP1 DUP4 SLOAD DIV MUL DUP4 MSTORE SWAP2 PUSH1 0x20 ADD SWAP2 PUSH2 0x75F JUMP JUMPDEST DUP3 ADD SWAP2 SWAP1 PUSH0 MSTORE PUSH1 0x20 PUSH0 KECCAK256 SWAP1 JUMPDEST DUP2 SLOAD DUP2 MSTORE SWAP1 PUSH1 0x1 ADD SWAP1 PUSH1 0x20 ADD DUP1 DUP4 GT PUSH2 0x742 JUMPI DUP3 SWAP1 SUB PUSH1 0x1F AND DUP3 ADD SWAP2 JUMPDEST POP POP POP POP POP SWAP1 DUP1 PUSH1 0x4 ADD SLOAD SWAP1 POP DUP6 JUMP JUMPDEST PUSH1 0x3 PUSH1 0x20 MSTORE DUP2 PUSH0 MSTORE PUSH1 0x40 PUSH0 KECCAK256 DUP2 DUP2 SLOAD DUP2 LT PUSH2 0x788 JUMPI PUSH0 DUP1 REVERT JUMPDEST SWAP1 PUSH0 MSTORE PUSH1 0x20 PUSH0 KECCAK256 SWAP1 PUSH1 0x5 MUL ADD PUSH0 SWAP2 POP SWAP2 POP POP DUP1 PUSH0 ADD PUSH0 SWAP1 SLOAD SWAP1 PUSH2 0x100 EXP SWAP1 DIV PUSH20 0xFFFFFFFFFFFFFFFFFFFFFFFFFFFFFFFFFFFFFFFF AND SWAP1 DUP1 PUSH1 0x1 ADD SLOAD SWAP1 DUP1 PUSH1 0x2 ADD SLOAD SWAP1 DUP1 PUSH1 0x3 ADD DUP1 SLOAD PUSH2 0x7D9 SWAP1 PUSH2 0x33FF JUMP JUMPDEST DUP1 PUSH1 0x1F ADD PUSH1 0x20 DUP1 SWAP2 DIV MUL PUSH1 0x20 ADD PUSH1 0x40 MLOAD SWAP1 DUP2 ADD PUSH1 0x40 MSTORE DUP1 SWAP3 SWAP2 SWAP1 DUP2 DUP2 MSTORE PUSH1 0x20 ADD DUP3 DUP1 SLOAD PUSH2 0x805 SWAP1 PUSH2 0x33FF JUMP JUMPDEST DUP1 ISZERO PUSH2 0x850 JUMPI DUP1 PUSH1 0x1F LT PUSH2 0x827 JUMPI PUSH2 0x100 DUP1 DUP4 SLOAD DIV MUL DUP4 MSTORE SWAP2 PUSH1 0x20 ADD SWAP2 PUSH2 0x850 JUMP JUMPDEST DUP3 ADD SWAP2 SWAP1 PUSH0 MSTORE PUSH1 0x20 PUSH0 KECCAK256 SWAP1 JUMPDEST DUP2 SLOAD DUP2 MSTORE SWAP1 PUSH1 0x1 ADD SWAP1 PUSH1 0x20 ADD DUP1 DUP4 GT PUSH2 0x833 JUMPI DUP3 SWAP1 SUB PUSH1 0x1F AND DUP3 ADD SWAP2 JUMPDEST POP POP POP POP POP SWAP1 DUP1 PUSH1 0x4 ADD SLOAD SWAP1 POP DUP6 JUMP JUMPDEST PUSH1 0x40 MLOAD DUP1 PUSH1 0x40 ADD PUSH1 0x40 MSTORE DUP1 PUSH1 0x2 DUP1 DUP2 GT ISZERO PUSH2 0x87E JUMPI PUSH2 0x87D PUSH2 0x2E29 JUMP JUMPDEST JUMPDEST DUP2 MSTORE PUSH1 0x20 ADD PUSH0 DUP2 MSTORE POP PUSH1 0x2 PUSH0 CALLER PUSH20 0xFFFFFFFFFFFFFFFFFFFFFFFFFFFFFFFFFFFFFFFF AND PUSH20 0xFFFFFFFFFFFFFFFFFFFFFFFFFFFFFFFFFFFFFFFF AND DUP2 MSTORE PUSH1 0x20 ADD SWAP1 DUP2 MSTORE PUSH1 0x20 ADD PUSH0 KECCAK256 PUSH0 DUP3 ADD MLOAD DUP2 PUSH0 ADD PUSH0 PUSH2 0x100 EXP DUP2 SLOAD DUP2 PUSH1 0xFF MUL NOT AND SWAP1 DUP4 PUSH1 0x2 DUP2 GT ISZERO PUSH2 0x8EC JUMPI PUSH2 0x8EB PUSH2 0x2E29 JUMP JUMPDEST JUMPDEST MUL OR SWAP1 SSTORE POP PUSH1 0x20 DUP3 ADD MLOAD DUP2 PUSH1 0x1 ADD SSTORE SWAP1 POP POP JUMP JUMPDEST PUSH1 0x4 PUSH0 DUP4 PUSH20 0xFFFFFFFFFFFFFFFFFFFFFFFFFFFFFFFFFFFFFFFF AND PUSH20 0xFFFFFFFFFFFFFFFFFFFFFFFFFFFFFFFFFFFFFFFF AND DUP2 MSTORE PUSH1 0x20 ADD SWAP1 DUP2 MSTORE PUSH1 0x20 ADD PUSH0 KECCAK256 DUP2 DUP2 SLOAD DUP2 LT PUSH2 0x94F JUMPI PUSH2 0x94E PUSH2 0x369B JUMP JUMPDEST JUMPDEST SWAP1 PUSH0 MSTORE PUSH1 0x20 PUSH0 KECCAK256 SWAP1 PUSH1 0x5 MUL ADD PUSH1 0x4 ADD SLOAD PUSH1 0x3 PUSH0 CALLER PUSH20 0xFFFFFFFFFFFFFFFFFFFFFFFFFFFFFFFFFFFFFFFF AND PUSH20 0xFFFFFFFFFFFFFFFFFFFFFFFFFFFFFFFFFFFFFFFF AND DUP2 MSTORE PUSH1 0x20 ADD SWAP1 DUP2 MSTORE PUSH1 0x20 ADD PUSH0 KECCAK256 DUP3 DUP2 SLOAD DUP2 LT PUSH2 0x9AE JUMPI PUSH2 0x9AD PUSH2 0x369B JUMP JUMPDEST JUMPDEST SWAP1 PUSH0 MSTORE PUSH1 0x20 PUSH0 KECCAK256 SWAP1 PUSH1 0x5 MUL ADD PUSH1 0x4 ADD SLOAD GT PUSH2 0x9C7 JUMPI PUSH0 DUP1 REVERT JUMPDEST PUSH0 PUSH8 0xDE0B6B3A7640000 PUSH1 0x4 PUSH0 DUP6 PUSH20 0xFFFFFFFFFFFFFFFFFFFFFFFFFFFFFFFFFFFFFFFF AND PUSH20 0xFFFFFFFFFFFFFFFFFFFFFFFFFFFFFFFFFFFFFFFF AND DUP2 MSTORE PUSH1 0x20 ADD SWAP1 DUP2 MSTORE PUSH1 0x20 ADD PUSH0 KECCAK256 DUP4 DUP2 SLOAD DUP2 LT PUSH2 0xA20 JUMPI PUSH2 0xA1F PUSH2 0x369B JUMP JUMPDEST JUMPDEST SWAP1 PUSH0 MSTORE PUSH1 0x20 PUSH0 KECCAK256 SWAP1 PUSH1 0x5 MUL ADD PUSH1 0x2 ADD SLOAD PUSH1 0x3 PUSH0 CALLER PUSH20 0xFFFFFFFFFFFFFFFFFFFFFFFFFFFFFFFFFFFFFFFF AND PUSH20 0xFFFFFFFFFFFFFFFFFFFFFFFFFFFFFFFFFFFFFFFF AND DUP2 MSTORE PUSH1 0x20 ADD SWAP1 DUP2 MSTORE PUSH1 0x20 ADD PUSH0 KECCAK256 DUP5 DUP2 SLOAD DUP2 LT PUSH2 0xA7F JUMPI PUSH2 0xA7E PUSH2 0x369B JUMP JUMPDEST JUMPDEST SWAP1 PUSH0 MSTORE PUSH1 0x20 PUSH0 KECCAK256 SWAP1 PUSH1 0x5 MUL ADD PUSH1 0x1 ADD SLOAD PUSH2 0xA99 SWAP2 SWAP1 PUSH2 0x36C8 JUMP JUMPDEST PUSH2 0xAA3 SWAP2 SWAP1 PUSH2 0x36C8 JUMP JUMPDEST SWAP1 POP PUSH1 0x3 PUSH0 CALLER PUSH20 0xFFFFFFFFFFFFFFFFFFFFFFFFFFFFFFFFFFFFFFFF AND PUSH20 0xFFFFFFFFFFFFFFFFFFFFFFFFFFFFFFFFFFFFFFFF AND DUP2 MSTORE PUSH1 0x20 ADD SWAP1 DUP2 MSTORE PUSH1 0x20 ADD PUSH0 KECCAK256 DUP3 DUP2 SLOAD DUP2 LT PUSH2 0xAF4 JUMPI PUSH2 0xAF3 PUSH2 0x369B JUMP JUMPDEST JUMPDEST SWAP1 PUSH0 MSTORE PUSH1 0x20 PUSH0 KECCAK256 SWAP1 PUSH1 0x5 MUL ADD PUSH1 0x1 ADD SLOAD PUSH1 0x4 PUSH0 DUP6 PUSH20 0xFFFFFFFFFFFFFFFFFFFFFFFFFFFFFFFFFFFFFFFF AND PUSH20 0xFFFFFFFFFFFFFFFFFFFFFFFFFFFFFFFFFFFFFFFF AND DUP2 MSTORE PUSH1 0x20 ADD SWAP1 DUP2 MSTORE PUSH1 0x20 ADD PUSH0 KECCAK256 DUP4 DUP2 SLOAD DUP2 LT PUSH2 0xB53 JUMPI PUSH2 0xB52 PUSH2 0x369B JUMP JUMPDEST JUMPDEST SWAP1 PUSH0 MSTORE PUSH1 0x20 PUSH0 KECCAK256 SWAP1 PUSH1 0x5 MUL ADD PUSH1 0x1 ADD PUSH0 DUP3 DUP3 SLOAD PUSH2 0xB70 SWAP2 SWAP1 PUSH2 0x3709 JUMP JUMPDEST SWAP3 POP POP DUP2 SWAP1 SSTORE POP PUSH1 0x3 PUSH0 CALLER PUSH20 0xFFFFFFFFFFFFFFFFFFFFFFFFFFFFFFFFFFFFFFFF AND PUSH20 0xFFFFFFFFFFFFFFFFFFFFFFFFFFFFFFFFFFFFFFFF AND DUP2 MSTORE PUSH1 0x20 ADD SWAP1 DUP2 MSTORE PUSH1 0x20 ADD PUSH0 KECCAK256 DUP3 DUP2 SLOAD DUP2 LT PUSH2 0xBC6 JUMPI PUSH2 0xBC5 PUSH2 0x369B JUMP JUMPDEST JUMPDEST SWAP1 PUSH0 MSTORE PUSH1 0x20 PUSH0 KECCAK256 SWAP1 PUSH1 0x5 MUL ADD PUSH0 DUP1 DUP3 ADD PUSH0 PUSH2 0x100 EXP DUP2 SLOAD SWAP1 PUSH20 0xFFFFFFFFFFFFFFFFFFFFFFFFFFFFFFFFFFFFFFFF MUL NOT AND SWAP1 SSTORE PUSH1 0x1 DUP3 ADD PUSH0 SWAP1 SSTORE PUSH1 0x2 DUP3 ADD PUSH0 SWAP1 SSTORE PUSH1 0x3 DUP3 ADD PUSH0 PUSH2 0xC15 SWAP2 SWAP1 PUSH2 0x2AE5 JUMP JUMPDEST PUSH1 0x4 DUP3 ADD PUSH0 SWAP1 SSTORE POP POP DUP1 PUSH1 0x2 PUSH0 DUP6 PUSH20 0xFFFFFFFFFFFFFFFFFFFFFFFFFFFFFFFFFFFFFFFF AND PUSH20 0xFFFFFFFFFFFFFFFFFFFFFFFFFFFFFFFFFFFFFFFF AND DUP2 MSTORE PUSH1 0x20 ADD SWAP1 DUP2 MSTORE PUSH1 0x20 ADD PUSH0 KECCAK256 PUSH1 0x1 ADD PUSH0 DUP3 DUP3 SLOAD PUSH2 0xC6D SWAP2 SWAP1 PUSH2 0x373C JUMP JUMPDEST SWAP3 POP POP DUP2 SWAP1 SSTORE POP CALLER PUSH20 0xFFFFFFFFFFFFFFFFFFFFFFFFFFFFFFFFFFFFFFFF AND PUSH2 0x8FC DUP3 SWAP1 DUP2 ISZERO MUL SWAP1 PUSH1 0x40 MLOAD PUSH0 PUSH1 0x40 MLOAD DUP1 DUP4 SUB DUP2 DUP6 DUP9 DUP9 CALL SWAP4 POP POP POP POP ISZERO DUP1 ISZERO PUSH2 0xCB7 JUMPI RETURNDATASIZE PUSH0 DUP1 RETURNDATACOPY RETURNDATASIZE PUSH0 REVERT JUMPDEST POP POP POP POP JUMP JUMPDEST PUSH1 0x4 PUSH1 0x20 MSTORE DUP2 PUSH0 MSTORE PUSH1 0x40 PUSH0 KECCAK256 DUP2 DUP2 SLOAD DUP2 LT PUSH2 0xCD6 JUMPI PUSH0 DUP1 REVERT JUMPDEST SWAP1 PUSH0 MSTORE PUSH1 0x20 PUSH0 KECCAK256 SWAP1 PUSH1 0x5 MUL ADD PUSH0 SWAP2 POP SWAP2 POP POP DUP1 PUSH0 ADD PUSH0 SWAP1 SLOAD SWAP1 PUSH2 0x100 EXP SWAP1 DIV PUSH20 0xFFFFFFFFFFFFFFFFFFFFFFFFFFFFFFFFFFFFFFFF AND SWAP1 DUP1 PUSH1 0x1 ADD SLOAD SWAP1 DUP1 PUSH1 0x2 ADD SLOAD SWAP1 DUP1 PUSH1 0x3 ADD DUP1 SLOAD PUSH2 0xD27 SWAP1 PUSH2 0x33FF JUMP JUMPDEST DUP1 PUSH1 0x1F ADD PUSH1 0x20 DUP1 SWAP2 DIV MUL PUSH1 0x20 ADD PUSH1 0x40 MLOAD SWAP1 DUP2 ADD PUSH1 0x40 MSTORE DUP1 SWAP3 SWAP2 SWAP1 DUP2 DUP2 MSTORE PUSH1 0x20 ADD DUP3 DUP1 SLOAD PUSH2 0xD53 SWAP1 PUSH2 0x33FF JUMP JUMPDEST DUP1 ISZERO PUSH2 0xD9E JUMPI DUP1 PUSH1 0x1F LT PUSH2 0xD75 JUMPI PUSH2 0x100 DUP1 DUP4 SLOAD DIV MUL DUP4 MSTORE SWAP2 PUSH1 0x20 ADD SWAP2 PUSH2 0xD9E JUMP JUMPDEST DUP3 ADD SWAP2 SWAP1 PUSH0 MSTORE PUSH1 0x20 PUSH0 KECCAK256 SWAP1 JUMPDEST DUP2 SLOAD DUP2 MSTORE SWAP1 PUSH1 0x1 ADD SWAP1 PUSH1 0x20 ADD DUP1 DUP4 GT PUSH2 0xD81 JUMPI DUP3 SWAP1 SUB PUSH1 0x1F AND DUP3 ADD SWAP2 JUMPDEST POP POP POP POP POP SWAP1 DUP1 PUSH1 0x4 ADD SLOAD SWAP1 POP DUP6 JUMP JUMPDEST PUSH0 DUP2 DUP2 SLOAD DUP2 LT PUSH2 0xDBC JUMPI PUSH0 DUP1 REVERT JUMPDEST SWAP1 PUSH0 MSTORE PUSH1 0x20 PUSH0 KECCAK256 ADD PUSH0 SWAP2 POP SWAP1 POP DUP1 PUSH0 ADD PUSH0 SWAP1 SLOAD SWAP1 PUSH2 0x100 EXP SWAP1 DIV PUSH20 0xFFFFFFFFFFFFFFFFFFFFFFFFFFFFFFFFFFFFFFFF AND SWAP1 DUP1 PUSH0 ADD PUSH1 0x14 SWAP1 SLOAD SWAP1 PUSH2 0x100 EXP SWAP1 DIV PUSH1 0xFF AND SWAP1 POP DUP3 JUMP JUMPDEST PUSH0 PUSH1 0x40 MLOAD DUP1 PUSH1 0x40 ADD PUSH1 0x40 MSTORE DUP1 CALLER PUSH20 0xFFFFFFFFFFFFFFFFFFFFFFFFFFFFFFFFFFFFFFFF AND DUP2 MSTORE PUSH1 0x20 ADD DUP4 PUSH1 0x2 DUP2 GT ISZERO PUSH2 0xE3E JUMPI PUSH2 0xE3D PUSH2 0x2E29 JUMP JUMPDEST JUMPDEST DUP2 MSTORE POP SWAP1 DUP1 PUSH1 0x1 DUP2 SLOAD ADD DUP1 DUP3 SSTORE DUP1 SWAP2 POP POP PUSH1 0x1 SWAP1 SUB SWAP1 PUSH0 MSTORE PUSH1 0x20 PUSH0 KECCAK256 ADD PUSH0 SWAP1 SWAP2 SWAP1 SWAP2 SWAP1 SWAP2 POP PUSH0 DUP3 ADD MLOAD DUP2 PUSH0 ADD PUSH0 PUSH2 0x100 EXP DUP2 SLOAD DUP2 PUSH20 0xFFFFFFFFFFFFFFFFFFFFFFFFFFFFFFFFFFFFFFFF MUL NOT AND SWAP1 DUP4 PUSH20 0xFFFFFFFFFFFFFFFFFFFFFFFFFFFFFFFFFFFFFFFF AND MUL OR SWAP1 SSTORE POP PUSH1 0x20 DUP3 ADD MLOAD DUP2 PUSH0 ADD PUSH1 0x14 PUSH2 0x100 EXP DUP2 SLOAD DUP2 PUSH1 0xFF MUL NOT AND SWAP1 DUP4 PUSH1 0x2 DUP2 GT ISZERO PUSH2 0xED1 JUMPI PUSH2 0xED0 PUSH2 0x2E29 JUMP JUMPDEST JUMPDEST MUL OR SWAP1 SSTORE POP POP POP POP JUMP JUMPDEST PUSH1 0x60 PUSH0 DUP3 SWAP1 POP PUSH0 JUMPDEST DUP2 MLOAD DUP2 LT ISZERO PUSH2 0xFCE JUMPI PUSH1 0x61 DUP3 DUP3 DUP2 MLOAD DUP2 LT PUSH2 0xF01 JUMPI PUSH2 0xF00 PUSH2 0x369B JUMP JUMPDEST JUMPDEST PUSH1 0x20 ADD ADD MLOAD PUSH1 0xF8 SHR PUSH1 0xF8 SHL PUSH1 0xF8 SHR PUSH1 0xFF AND LT ISZERO DUP1 ISZERO PUSH2 0xF44 JUMPI POP PUSH1 0x7A DUP3 DUP3 DUP2 MLOAD DUP2 LT PUSH2 0xF30 JUMPI PUSH2 0xF2F PUSH2 0x369B JUMP JUMPDEST JUMPDEST PUSH1 0x20 ADD ADD MLOAD PUSH1 0xF8 SHR PUSH1 0xF8 SHL PUSH1 0xF8 SHR PUSH1 0xFF AND GT ISZERO JUMPDEST ISZERO PUSH2 0xFBB JUMPI PUSH1 0x20 DUP3 DUP3 DUP2 MLOAD DUP2 LT PUSH2 0xF5E JUMPI PUSH2 0xF5D PUSH2 0x369B JUMP JUMPDEST JUMPDEST PUSH1 0x20 ADD ADD MLOAD PUSH1 0xF8 SHR PUSH1 0xF8 SHL PUSH1 0xF8 SHR PUSH2 0xF76 SWAP2 SWAP1 PUSH2 0x377B JUMP JUMPDEST PUSH1 0xF8 SHL DUP3 DUP3 DUP2 MLOAD DUP2 LT PUSH2 0xF8C JUMPI PUSH2 0xF8B PUSH2 0x369B JUMP JUMPDEST JUMPDEST PUSH1 0x20 ADD ADD SWAP1 PUSH31 0xFFFFFFFFFFFFFFFFFFFFFFFFFFFFFFFFFFFFFFFFFFFFFFFFFFFFFFFFFFFFFF NOT AND SWAP1 DUP2 PUSH0 BYTE SWAP1 MSTORE8 POP JUMPDEST DUP1 DUP1 PUSH2 0xFC6 SWAP1 PUSH2 0x37AF JUMP JUMPDEST SWAP2 POP POP PUSH2 0xEE3 JUMP JUMPDEST POP DUP1 SWAP2 POP POP SWAP2 SWAP1 POP JUMP JUMPDEST PUSH1 0x40 MLOAD DUP1 PUSH1 0x40 ADD PUSH1 0x40 MSTORE DUP1 PUSH1 0x1 PUSH1 0x2 DUP2 GT ISZERO PUSH2 0xFF7 JUMPI PUSH2 0xFF6 PUSH2 0x2E29 JUMP JUMPDEST JUMPDEST DUP2 MSTORE PUSH1 0x20 ADD PUSH0 DUP2 MSTORE POP PUSH1 0x2 PUSH0 CALLER PUSH20 0xFFFFFFFFFFFFFFFFFFFFFFFFFFFFFFFFFFFFFFFF AND PUSH20 0xFFFFFFFFFFFFFFFFFFFFFFFFFFFFFFFFFFFFFFFF AND DUP2 MSTORE PUSH1 0x20 ADD SWAP1 DUP2 MSTORE PUSH1 0x20 ADD PUSH0 KECCAK256 PUSH0 DUP3 ADD MLOAD DUP2 PUSH0 ADD PUSH0 PUSH2 0x100 EXP DUP2 SLOAD DUP2 PUSH1 0xFF MUL NOT AND SWAP1 DUP4 PUSH1 0x2 DUP2 GT ISZERO PUSH2 0x1065 JUMPI PUSH2 0x1064 PUSH2 0x2E29 JUMP JUMPDEST JUMPDEST MUL OR SWAP1 SSTORE POP PUSH1 0x20 DUP3 ADD MLOAD DUP2 PUSH1 0x1 ADD SSTORE SWAP1 POP POP JUMP JUMPDEST PUSH1 0x1 PUSH0 SWAP1 SLOAD SWAP1 PUSH2 0x100 EXP SWAP1 DIV PUSH20 0xFFFFFFFFFFFFFFFFFFFFFFFFFFFFFFFFFFFFFFFF AND PUSH20 0xFFFFFFFFFFFFFFFFFFFFFFFFFFFFFFFFFFFFFFFF AND CALLER PUSH20 0xFFFFFFFFFFFFFFFFFFFFFFFFFFFFFFFFFFFFFFFF AND EQ PUSH2 0x10D1 JUMPI PUSH0 DUP1 REVERT JUMPDEST PUSH0 DUP1 DUP3 DUP2 SLOAD DUP2 LT PUSH2 0x10E5 JUMPI PUSH2 0x10E4 PUSH2 0x369B JUMP JUMPDEST JUMPDEST SWAP1 PUSH0 MSTORE PUSH1 0x20 PUSH0 KECCAK256 ADD PUSH0 ADD PUSH0 SWAP1 SLOAD SWAP1 PUSH2 0x100 EXP SWAP1 DIV PUSH20 0xFFFFFFFFFFFFFFFFFFFFFFFFFFFFFFFFFFFFFFFF AND SWAP1 POP PUSH0 DUP1 DUP4 DUP2 SLOAD DUP2 LT PUSH2 0x1125 JUMPI PUSH2 0x1124 PUSH2 0x369B JUMP JUMPDEST JUMPDEST SWAP1 PUSH0 MSTORE PUSH1 0x20 PUSH0 KECCAK256 ADD PUSH0 ADD PUSH1 0x14 SWAP1 SLOAD SWAP1 PUSH2 0x100 EXP SWAP1 DIV PUSH1 0xFF AND SWAP1 POP DUP1 PUSH1 0x2 PUSH0 DUP5 PUSH20 0xFFFFFFFFFFFFFFFFFFFFFFFFFFFFFFFFFFFFFFFF AND PUSH20 0xFFFFFFFFFFFFFFFFFFFFFFFFFFFFFFFFFFFFFFFF AND DUP2 MSTORE PUSH1 0x20 ADD SWAP1 DUP2 MSTORE PUSH1 0x20 ADD PUSH0 KECCAK256 PUSH0 ADD PUSH0 PUSH2 0x100 EXP DUP2 SLOAD DUP2 PUSH1 0xFF MUL NOT AND SWAP1 DUP4 PUSH1 0x2 DUP2 GT ISZERO PUSH2 0x11A0 JUMPI PUSH2 0x119F PUSH2 0x2E29 JUMP JUMPDEST JUMPDEST MUL OR SWAP1 SSTORE POP POP POP POP JUMP JUMPDEST PUSH0 DUP2 GT PUSH2 0x11EC JUMPI PUSH1 0x40 MLOAD PUSH32 0x8C379A000000000000000000000000000000000000000000000000000000000 DUP2 MSTORE PUSH1 0x4 ADD PUSH2 0x11E3 SWAP1 PUSH2 0x3866 JUMP JUMPDEST PUSH1 0x40 MLOAD DUP1 SWAP2 SUB SWAP1 REVERT JUMPDEST PUSH1 0x4 PUSH0 DUP5 PUSH20 0xFFFFFFFFFFFFFFFFFFFFFFFFFFFFFFFFFFFFFFFF AND PUSH20 0xFFFFFFFFFFFFFFFFFFFFFFFFFFFFFFFFFFFFFFFF AND DUP2 MSTORE PUSH1 0x20 ADD SWAP1 DUP2 MSTORE PUSH1 0x20 ADD PUSH0 KECCAK256 DUP1 SLOAD SWAP1 POP DUP3 LT PUSH2 0x126E JUMPI PUSH1 0x40 MLOAD PUSH32 0x8C379A000000000000000000000000000000000000000000000000000000000 DUP2 MSTORE PUSH1 0x4 ADD PUSH2 0x1265 SWAP1 PUSH2 0x38CE JUMP JUMPDEST PUSH1 0x40 MLOAD DUP1 SWAP2 SUB SWAP1 REVERT JUMPDEST PUSH0 PUSH1 0x4 PUSH0 DUP6 PUSH20 0xFFFFFFFFFFFFFFFFFFFFFFFFFFFFFFFFFFFFFFFF AND PUSH20 0xFFFFFFFFFFFFFFFFFFFFFFFFFFFFFFFFFFFFFFFF AND DUP2 MSTORE PUSH1 0x20 ADD SWAP1 DUP2 MSTORE PUSH1 0x20 ADD PUSH0 KECCAK256 DUP4 DUP2 SLOAD DUP2 LT PUSH2 0x12BE JUMPI PUSH2 0x12BD PUSH2 0x369B JUMP JUMPDEST JUMPDEST SWAP1 PUSH0 MSTORE PUSH1 0x20 PUSH0 KECCAK256 SWAP1 PUSH1 0x5 MUL ADD PUSH1 0x3 ADD DUP1 SLOAD PUSH2 0x12D8 SWAP1 PUSH2 0x33FF JUMP JUMPDEST DUP1 PUSH1 0x1F ADD PUSH1 0x20 DUP1 SWAP2 DIV MUL PUSH1 0x20 ADD PUSH1 0x40 MLOAD SWAP1 DUP2 ADD PUSH1 0x40 MSTORE DUP1 SWAP3 SWAP2 SWAP1 DUP2 DUP2 MSTORE PUSH1 0x20 ADD DUP3 DUP1 SLOAD PUSH2 0x1304 SWAP1 PUSH2 0x33FF JUMP JUMPDEST DUP1 ISZERO PUSH2 0x134F JUMPI DUP1 PUSH1 0x1F LT PUSH2 0x1326 JUMPI PUSH2 0x100 DUP1 DUP4 SLOAD DIV MUL DUP4 MSTORE SWAP2 PUSH1 0x20 ADD SWAP2 PUSH2 0x134F JUMP JUMPDEST DUP3 ADD SWAP2 SWAP1 PUSH0 MSTORE PUSH1 0x20 PUSH0 KECCAK256 SWAP1 JUMPDEST DUP2 SLOAD DUP2 MSTORE SWAP1 PUSH1 0x1 ADD SWAP1 PUSH1 0x20 ADD DUP1 DUP4 GT PUSH2 0x1332 JUMPI DUP3 SWAP1 SUB PUSH1 0x1F AND DUP3 ADD SWAP2 JUMPDEST POP POP POP POP POP SWAP1 POP PUSH0 DUP2 PUSH1 0x40 MLOAD PUSH1 0x20 ADD PUSH2 0x1368 SWAP2 SWAP1 PUSH2 0x3972 JUMP JUMPDEST PUSH1 0x40 MLOAD PUSH1 0x20 DUP2 DUP4 SUB SUB DUP2 MSTORE SWAP1 PUSH1 0x40 MSTORE SWAP1 POP PUSH2 0x1382 DUP2 PUSH2 0xEDB JUMP JUMPDEST SWAP1 POP PUSH0 PUSH1 0x40 MLOAD DUP1 PUSH1 0xA0 ADD PUSH1 0x40 MSTORE DUP1 CALLER PUSH20 0xFFFFFFFFFFFFFFFFFFFFFFFFFFFFFFFFFFFFFFFF AND DUP2 MSTORE PUSH1 0x20 ADD PUSH1 0x1 PUSH1 0x3 DUP2 GT ISZERO PUSH2 0x13C0 JUMPI PUSH2 0x13BF PUSH2 0x2E29 JUMP JUMPDEST JUMPDEST DUP2 MSTORE PUSH1 0x20 ADD DUP4 DUP2 MSTORE PUSH1 0x20 ADD DUP7 DUP2 MSTORE PUSH1 0x20 ADD DUP6 DUP2 MSTORE POP SWAP1 POP PUSH1 0x7 PUSH0 CALLER PUSH20 0xFFFFFFFFFFFFFFFFFFFFFFFFFFFFFFFFFFFFFFFF AND PUSH20 0xFFFFFFFFFFFFFFFFFFFFFFFFFFFFFFFFFFFFFFFF AND DUP2 MSTORE PUSH1 0x20 ADD SWAP1 DUP2 MSTORE PUSH1 0x20 ADD PUSH0 KECCAK256 DUP2 SWAP1 DUP1 PUSH1 0x1 DUP2 SLOAD ADD DUP1 DUP3 SSTORE DUP1 SWAP2 POP POP PUSH1 0x1 SWAP1 SUB SWAP1 PUSH0 MSTORE PUSH1 0x20 PUSH0 KECCAK256 SWAP1 PUSH1 0x4 MUL ADD PUSH0 SWAP1 SWAP2 SWAP1 SWAP2 SWAP1 SWAP2 POP PUSH0 DUP3 ADD MLOAD DUP2 PUSH0 ADD PUSH0 PUSH2 0x100 EXP DUP2 SLOAD DUP2 PUSH20 0xFFFFFFFFFFFFFFFFFFFFFFFFFFFFFFFFFFFFFFFF MUL NOT AND SWAP1 DUP4 PUSH20 0xFFFFFFFFFFFFFFFFFFFFFFFFFFFFFFFFFFFFFFFF AND MUL OR SWAP1 SSTORE POP PUSH1 0x20 DUP3 ADD MLOAD DUP2 PUSH0 ADD PUSH1 0x14 PUSH2 0x100 EXP DUP2 SLOAD DUP2 PUSH1 0xFF MUL NOT AND SWAP1 DUP4 PUSH1 0x3 DUP2 GT ISZERO PUSH2 0x14A9 JUMPI PUSH2 0x14A8 PUSH2 0x2E29 JUMP JUMPDEST JUMPDEST MUL OR SWAP1 SSTORE POP PUSH1 0x40 DUP3 ADD MLOAD DUP2 PUSH1 0x1 ADD SWAP1 DUP2 PUSH2 0x14C3 SWAP2 SWAP1 PUSH2 0x35CC JUMP JUMPDEST POP PUSH1 0x60 DUP3 ADD MLOAD DUP2 PUSH1 0x2 ADD SSTORE PUSH1 0x80 DUP3 ADD MLOAD DUP2 PUSH1 0x3 ADD SSTORE POP POP POP POP POP POP POP POP JUMP JUMPDEST PUSH0 DUP1 DUP1 DUP1 PUSH2 0x14EF SWAP1 PUSH2 0x37AF JUMP JUMPDEST SWAP2 POP POP DUP3 TIMESTAMP CALLER DUP4 PUSH1 0x40 MLOAD PUSH1 0x20 ADD PUSH2 0x1508 SWAP4 SWAP3 SWAP2 SWAP1 PUSH2 0x3A0B JUMP JUMPDEST PUSH1 0x40 MLOAD PUSH1 0x20 DUP2 DUP4 SUB SUB DUP2 MSTORE SWAP1 PUSH1 0x40 MSTORE DUP1 MLOAD SWAP1 PUSH1 0x20 ADD KECCAK256 PUSH0 SHR PUSH2 0x152A SWAP2 SWAP1 PUSH2 0x3A47 JUMP JUMPDEST SWAP2 POP POP SWAP2 SWAP1 POP JUMP JUMPDEST PUSH1 0x2 DUP2 DUP2 PUSH1 0x2 DUP2 GT ISZERO PUSH2 0x1548 JUMPI PUSH2 0x1547 PUSH2 0x2E29 JUMP JUMPDEST JUMPDEST PUSH1 0x2 PUSH0 CALLER PUSH20 0xFFFFFFFFFFFFFFFFFFFFFFFFFFFFFFFFFFFFFFFF AND PUSH20 0xFFFFFFFFFFFFFFFFFFFFFFFFFFFFFFFFFFFFFFFF AND DUP2 MSTORE PUSH1 0x20 ADD SWAP1 DUP2 MSTORE PUSH1 0x20 ADD PUSH0 KECCAK256 PUSH0 ADD PUSH0 SWAP1 SLOAD SWAP1 PUSH2 0x100 EXP SWAP1 DIV PUSH1 0xFF AND PUSH1 0x2 DUP2 GT ISZERO PUSH2 0x15A6 JUMPI PUSH2 0x15A5 PUSH2 0x2E29 JUMP JUMPDEST JUMPDEST EQ PUSH2 0x15E6 JUMPI PUSH1 0x40 MLOAD PUSH32 0x8C379A000000000000000000000000000000000000000000000000000000000 DUP2 MSTORE PUSH1 0x4 ADD PUSH2 0x15DD SWAP1 PUSH2 0x3B0D JUMP JUMPDEST PUSH1 0x40 MLOAD DUP1 SWAP2 SUB SWAP1 REVERT JUMPDEST DUP1 PUSH20 0xFFFFFFFFFFFFFFFFFFFFFFFFFFFFFFFFFFFFFFFF AND CALLER PUSH20 0xFFFFFFFFFFFFFFFFFFFFFFFFFFFFFFFFFFFFFFFF AND EQ PUSH2 0x1654 JUMPI PUSH1 0x40 MLOAD PUSH32 0x8C379A000000000000000000000000000000000000000000000000000000000 DUP2 MSTORE PUSH1 0x4 ADD PUSH2 0x164B SWAP1 PUSH2 0x3BC1 JUMP JUMPDEST PUSH1 0x40 MLOAD DUP1 SWAP2 SUB SWAP1 REVERT JUMPDEST PUSH0 PUSH1 0x40 MLOAD DUP1 PUSH1 0xA0 ADD PUSH1 0x40 MSTORE DUP1 DUP6 PUSH20 0xFFFFFFFFFFFFFFFFFFFFFFFFFFFFFFFFFFFFFFFF AND DUP2 MSTORE PUSH1 0x20 ADD DUP11 DUP2 MSTORE PUSH1 0x20 ADD PUSH1 0x2 DUP11 PUSH2 0x168F SWAP2 SWAP1 PUSH2 0x33A2 JUMP JUMPDEST DUP2 MSTORE PUSH1 0x20 ADD DUP9 DUP9 DUP1 DUP1 PUSH1 0x1F ADD PUSH1 0x20 DUP1 SWAP2 DIV MUL PUSH1 0x20 ADD PUSH1 0x40 MLOAD SWAP1 DUP2 ADD PUSH1 0x40 MSTORE DUP1 SWAP4 SWAP3 SWAP2 SWAP1 DUP2 DUP2 MSTORE PUSH1 0x20 ADD DUP4 DUP4 DUP1 DUP3 DUP5 CALLDATACOPY PUSH0 DUP2 DUP5 ADD MSTORE PUSH1 0x1F NOT PUSH1 0x1F DUP3 ADD AND SWAP1 POP DUP1 DUP4 ADD SWAP3 POP POP POP POP POP POP POP DUP2 MSTORE PUSH1 0x20 ADD DUP7 DUP2 MSTORE POP SWAP1 POP PUSH1 0x5 PUSH0 DUP6 PUSH20 0xFFFFFFFFFFFFFFFFFFFFFFFFFFFFFFFFFFFFFFFF AND PUSH20 0xFFFFFFFFFFFFFFFFFFFFFFFFFFFFFFFFFFFFFFFF AND DUP2 MSTORE PUSH1 0x20 ADD SWAP1 DUP2 MSTORE PUSH1 0x20 ADD PUSH0 KECCAK256 DUP2 SWAP1 DUP1 PUSH1 0x1 DUP2 SLOAD ADD DUP1 DUP3 SSTORE DUP1 SWAP2 POP POP PUSH1 0x1 SWAP1 SUB SWAP1 PUSH0 MSTORE PUSH1 0x20 PUSH0 KECCAK256 SWAP1 PUSH1 0x5 MUL ADD PUSH0 SWAP1 SWAP2 SWAP1 SWAP2 SWAP1 SWAP2 POP PUSH0 DUP3 ADD MLOAD DUP2 PUSH0 ADD PUSH0 PUSH2 0x100 EXP DUP2 SLOAD DUP2 PUSH20 0xFFFFFFFFFFFFFFFFFFFFFFFFFFFFFFFFFFFFFFFF MUL NOT AND SWAP1 DUP4 PUSH20 0xFFFFFFFFFFFFFFFFFFFFFFFFFFFFFFFFFFFFFFFF AND MUL OR SWAP1 SSTORE POP PUSH1 0x20 DUP3 ADD MLOAD DUP2 PUSH1 0x1 ADD SSTORE PUSH1 0x40 DUP3 ADD MLOAD DUP2 PUSH1 0x2 ADD SSTORE PUSH1 0x60 DUP3 ADD MLOAD DUP2 PUSH1 0x3 ADD SWAP1 DUP2 PUSH2 0x17B4 SWAP2 SWAP1 PUSH2 0x35CC JUMP JUMPDEST POP PUSH1 0x80 DUP3 ADD MLOAD DUP2 PUSH1 0x4 ADD SSTORE POP POP POP POP POP POP POP POP POP POP POP JUMP JUMPDEST PUSH1 0x1 PUSH0 SWAP1 SLOAD SWAP1 PUSH2 0x100 EXP SWAP1 DIV PUSH20 0xFFFFFFFFFFFFFFFFFFFFFFFFFFFFFFFFFFFFFFFF AND DUP2 JUMP JUMPDEST PUSH0 PUSH1 0x2 DUP2 GT ISZERO PUSH2 0x1804 JUMPI PUSH2 0x1803 PUSH2 0x2E29 JUMP JUMPDEST JUMPDEST PUSH1 0x2 PUSH0 CALLER PUSH20 0xFFFFFFFFFFFFFFFFFFFFFFFFFFFFFFFFFFFFFFFF AND PUSH20 0xFFFFFFFFFFFFFFFFFFFFFFFFFFFFFFFFFFFFFFFF AND DUP2 MSTORE PUSH1 0x20 ADD SWAP1 DUP2 MSTORE PUSH1 0x20 ADD PUSH0 KECCAK256 PUSH0 ADD PUSH0 SWAP1 SLOAD SWAP1 PUSH2 0x100 EXP SWAP1 DIV PUSH1 0xFF AND PUSH1 0x2 DUP2 GT ISZERO PUSH2 0x1862 JUMPI PUSH2 0x1861 PUSH2 0x2E29 JUMP JUMPDEST JUMPDEST SUB PUSH2 0x1906 JUMPI PUSH1 0x40 MLOAD DUP1 PUSH1 0x40 ADD PUSH1 0x40 MSTORE DUP1 PUSH0 PUSH1 0x2 DUP2 GT ISZERO PUSH2 0x1885 JUMPI PUSH2 0x1884 PUSH2 0x2E29 JUMP JUMPDEST JUMPDEST DUP2 MSTORE PUSH1 0x20 ADD PUSH0 DUP2 MSTORE POP PUSH1 0x2 PUSH0 CALLER PUSH20 0xFFFFFFFFFFFFFFFFFFFFFFFFFFFFFFFFFFFFFFFF AND PUSH20 0xFFFFFFFFFFFFFFFFFFFFFFFFFFFFFFFFFFFFFFFF AND DUP2 MSTORE PUSH1 0x20 ADD SWAP1 DUP2 MSTORE PUSH1 0x20 ADD PUSH0 KECCAK256 PUSH0 DUP3 ADD MLOAD DUP2 PUSH0 ADD PUSH0 PUSH2 0x100 EXP DUP2 SLOAD DUP2 PUSH1 0xFF MUL NOT AND SWAP1 DUP4 PUSH1 0x2 DUP2 GT ISZERO PUSH2 0x18F3 JUMPI PUSH2 0x18F2 PUSH2 0x2E29 JUMP JUMPDEST JUMPDEST MUL OR SWAP1 SSTORE POP PUSH1 0x20 DUP3 ADD MLOAD DUP2 PUSH1 0x1 ADD SSTORE SWAP1 POP POP JUMPDEST PUSH0 DUP4 GT PUSH2 0x1948 JUMPI PUSH1 0x40 MLOAD PUSH32 0x8C379A000000000000000000000000000000000000000000000000000000000 DUP2 MSTORE PUSH1 0x4 ADD PUSH2 0x193F SWAP1 PUSH2 0x3866 JUMP JUMPDEST PUSH1 0x40 MLOAD DUP1 SWAP2 SUB SWAP1 REVERT JUMPDEST PUSH1 0x4 PUSH0 DUP6 PUSH20 0xFFFFFFFFFFFFFFFFFFFFFFFFFFFFFFFFFFFFFFFF AND PUSH20 0xFFFFFFFFFFFFFFFFFFFFFFFFFFFFFFFFFFFFFFFF AND DUP2 MSTORE PUSH1 0x20 ADD SWAP1 DUP2 MSTORE PUSH1 0x20 ADD PUSH0 KECCAK256 DUP1 SLOAD SWAP1 POP DUP3 LT PUSH2 0x19CA JUMPI PUSH1 0x40 MLOAD PUSH32 0x8C379A000000000000000000000000000000000000000000000000000000000 DUP2 MSTORE PUSH1 0x4 ADD PUSH2 0x19C1 SWAP1 PUSH2 0x38CE JUMP JUMPDEST PUSH1 0x40 MLOAD DUP1 SWAP2 SUB SWAP1 REVERT JUMPDEST PUSH1 0x4 PUSH0 DUP6 PUSH20 0xFFFFFFFFFFFFFFFFFFFFFFFFFFFFFFFFFFFFFFFF AND PUSH20 0xFFFFFFFFFFFFFFFFFFFFFFFFFFFFFFFFFFFFFFFF AND DUP2 MSTORE PUSH1 0x20 ADD SWAP1 DUP2 MSTORE PUSH1 0x20 ADD PUSH0 KECCAK256 DUP3 DUP2 SLOAD DUP2 LT PUSH2 0x1A19 JUMPI PUSH2 0x1A18 PUSH2 0x369B JUMP JUMPDEST JUMPDEST SWAP1 PUSH0 MSTORE PUSH1 0x20 PUSH0 KECCAK256 SWAP1 PUSH1 0x5 MUL ADD PUSH1 0x1 ADD SLOAD DUP4 GT ISZERO PUSH2 0x1A6B JUMPI PUSH1 0x40 MLOAD PUSH32 0x8C379A000000000000000000000000000000000000000000000000000000000 DUP2 MSTORE PUSH1 0x4 ADD PUSH2 0x1A62 SWAP1 PUSH2 0x3C29 JUMP JUMPDEST PUSH1 0x40 MLOAD DUP1 SWAP2 SUB SWAP1 REVERT JUMPDEST PUSH0 PUSH8 0xDE0B6B3A7640000 PUSH1 0x4 PUSH0 DUP8 PUSH20 0xFFFFFFFFFFFFFFFFFFFFFFFFFFFFFFFFFFFFFFFF AND PUSH20 0xFFFFFFFFFFFFFFFFFFFFFFFFFFFFFFFFFFFFFFFF AND DUP2 MSTORE PUSH1 0x20 ADD SWAP1 DUP2 MSTORE PUSH1 0x20 ADD PUSH0 KECCAK256 DUP5 DUP2 SLOAD DUP2 LT PUSH2 0x1AC4 JUMPI PUSH2 0x1AC3 PUSH2 0x369B JUMP JUMPDEST JUMPDEST SWAP1 PUSH0 MSTORE PUSH1 0x20 PUSH0 KECCAK256 SWAP1 PUSH1 0x5 MUL ADD PUSH1 0x2 ADD SLOAD DUP6 PUSH2 0x1ADF SWAP2 SWAP1 PUSH2 0x36C8 JUMP JUMPDEST PUSH2 0x1AE9 SWAP2 SWAP1 PUSH2 0x36C8 JUMP JUMPDEST SWAP1 POP CALLER PUSH20 0xFFFFFFFFFFFFFFFFFFFFFFFFFFFFFFFFFFFFFFFF AND PUSH1 0x6 DUP4 PUSH1 0x40 MLOAD PUSH2 0x1B12 SWAP2 SWAP1 PUSH2 0x3C47 JUMP JUMPDEST SWAP1 DUP2 MSTORE PUSH1 0x20 ADD PUSH1 0x40 MLOAD DUP1 SWAP2 SUB SWAP1 KECCAK256 PUSH0 SWAP1 SLOAD SWAP1 PUSH2 0x100 EXP SWAP1 DIV PUSH20 0xFFFFFFFFFFFFFFFFFFFFFFFFFFFFFFFFFFFFFFFF AND PUSH20 0xFFFFFFFFFFFFFFFFFFFFFFFFFFFFFFFFFFFFFFFF AND SUB PUSH2 0x1BD3 JUMPI PUSH1 0x64 PUSH1 0x5A DUP3 PUSH2 0x1B6A SWAP2 SWAP1 PUSH2 0x36C8 JUMP JUMPDEST PUSH2 0x1B74 SWAP2 SWAP1 PUSH2 0x33A2 JUMP JUMPDEST SWAP1 POP PUSH0 PUSH1 0x6 DUP4 PUSH1 0x40 MLOAD PUSH2 0x1B87 SWAP2 SWAP1 PUSH2 0x3C47 JUMP JUMPDEST SWAP1 DUP2 MSTORE PUSH1 0x20 ADD PUSH1 0x40 MLOAD DUP1 SWAP2 SUB SWAP1 KECCAK256 PUSH0 PUSH2 0x100 EXP DUP2 SLOAD DUP2 PUSH20 0xFFFFFFFFFFFFFFFFFFFFFFFFFFFFFFFFFFFFFFFF MUL NOT AND SWAP1 DUP4 PUSH20 0xFFFFFFFFFFFFFFFFFFFFFFFFFFFFFFFFFFFFFFFF AND MUL OR SWAP1 SSTORE POP JUMPDEST DUP1 CALLVALUE LT ISZERO PUSH2 0x1C16 JUMPI PUSH1 0x40 MLOAD PUSH32 0x8C379A000000000000000000000000000000000000000000000000000000000 DUP2 MSTORE PUSH1 0x4 ADD PUSH2 0x1C0D SWAP1 PUSH2 0x3CA7 JUMP JUMPDEST PUSH1 0x40 MLOAD DUP1 SWAP2 SUB SWAP1 REVERT JUMPDEST PUSH0 DUP1 JUMPDEST PUSH1 0x3 PUSH0 CALLER PUSH20 0xFFFFFFFFFFFFFFFFFFFFFFFFFFFFFFFFFFFFFFFF AND PUSH20 0xFFFFFFFFFFFFFFFFFFFFFFFFFFFFFFFFFFFFFFFF AND DUP2 MSTORE PUSH1 0x20 ADD SWAP1 DUP2 MSTORE PUSH1 0x20 ADD PUSH0 KECCAK256 DUP1 SLOAD SWAP1 POP DUP2 LT ISZERO PUSH2 0x1DDC JUMPI PUSH1 0x3 PUSH0 DUP9 PUSH20 0xFFFFFFFFFFFFFFFFFFFFFFFFFFFFFFFFFFFFFFFF AND PUSH20 0xFFFFFFFFFFFFFFFFFFFFFFFFFFFFFFFFFFFFFFFF AND DUP2 MSTORE PUSH1 0x20 ADD SWAP1 DUP2 MSTORE PUSH1 0x20 ADD PUSH0 KECCAK256 DUP6 DUP2 SLOAD DUP2 LT PUSH2 0x1CB0 JUMPI PUSH2 0x1CAF PUSH2 0x369B JUMP JUMPDEST JUMPDEST SWAP1 PUSH0 MSTORE PUSH1 0x20 PUSH0 KECCAK256 SWAP1 PUSH1 0x5 MUL ADD PUSH1 0x3 ADD PUSH1 0x40 MLOAD PUSH2 0x1CCC SWAP2 SWAP1 PUSH2 0x3D61 JUMP JUMPDEST PUSH1 0x40 MLOAD DUP1 SWAP2 SUB SWAP1 KECCAK256 PUSH1 0x3 PUSH0 CALLER PUSH20 0xFFFFFFFFFFFFFFFFFFFFFFFFFFFFFFFFFFFFFFFF AND PUSH20 0xFFFFFFFFFFFFFFFFFFFFFFFFFFFFFFFFFFFFFFFF AND DUP2 MSTORE PUSH1 0x20 ADD SWAP1 DUP2 MSTORE PUSH1 0x20 ADD PUSH0 KECCAK256 DUP3 DUP2 SLOAD DUP2 LT PUSH2 0x1D23 JUMPI PUSH2 0x1D22 PUSH2 0x369B JUMP JUMPDEST JUMPDEST SWAP1 PUSH0 MSTORE PUSH1 0x20 PUSH0 KECCAK256 SWAP1 PUSH1 0x5 MUL ADD PUSH1 0x3 ADD PUSH1 0x40 MLOAD PUSH2 0x1D3F SWAP2 SWAP1 PUSH2 0x3D61 JUMP JUMPDEST PUSH1 0x40 MLOAD DUP1 SWAP2 SUB SWAP1 KECCAK256 SUB PUSH2 0x1DC9 JUMPI DUP6 PUSH1 0x3 PUSH0 CALLER PUSH20 0xFFFFFFFFFFFFFFFFFFFFFFFFFFFFFFFFFFFFFFFF AND PUSH20 0xFFFFFFFFFFFFFFFFFFFFFFFFFFFFFFFFFFFFFFFF AND DUP2 MSTORE PUSH1 0x20 ADD SWAP1 DUP2 MSTORE PUSH1 0x20 ADD PUSH0 KECCAK256 DUP3 DUP2 SLOAD DUP2 LT PUSH2 0x1D9C JUMPI PUSH2 0x1D9B PUSH2 0x369B JUMP JUMPDEST JUMPDEST SWAP1 PUSH0 MSTORE PUSH1 0x20 PUSH0 KECCAK256 SWAP1 PUSH1 0x5 MUL ADD PUSH1 0x1 ADD PUSH0 DUP3 DUP3 SLOAD PUSH2 0x1DB9 SWAP2 SWAP1 PUSH2 0x3709 JUMP JUMPDEST SWAP3 POP POP DUP2 SWAP1 SSTORE POP PUSH1 0x1 SWAP2 POP PUSH2 0x1DDC JUMP JUMPDEST DUP1 DUP1 PUSH2 0x1DD4 SWAP1 PUSH2 0x37AF JUMP JUMPDEST SWAP2 POP POP PUSH2 0x1C19 JUMP JUMPDEST POP DUP1 PUSH2 0x204E JUMPI PUSH0 PUSH1 0x40 MLOAD DUP1 PUSH1 0xA0 ADD PUSH1 0x40 MSTORE DUP1 CALLER PUSH20 0xFFFFFFFFFFFFFFFFFFFFFFFFFFFFFFFFFFFFFFFF AND DUP2 MSTORE PUSH1 0x20 ADD DUP8 DUP2 MSTORE PUSH1 0x20 ADD PUSH1 0x4 PUSH0 DUP11 PUSH20 0xFFFFFFFFFFFFFFFFFFFFFFFFFFFFFFFFFFFFFFFF AND PUSH20 0xFFFFFFFFFFFFFFFFFFFFFFFFFFFFFFFFFFFFFFFF AND DUP2 MSTORE PUSH1 0x20 ADD SWAP1 DUP2 MSTORE PUSH1 0x20 ADD PUSH0 KECCAK256 DUP8 DUP2 SLOAD DUP2 LT PUSH2 0x1E5F JUMPI PUSH2 0x1E5E PUSH2 0x369B JUMP JUMPDEST JUMPDEST SWAP1 PUSH0 MSTORE PUSH1 0x20 PUSH0 KECCAK256 SWAP1 PUSH1 0x5 MUL ADD PUSH1 0x2 ADD SLOAD DUP2 MSTORE PUSH1 0x20 ADD PUSH1 0x4 PUSH0 DUP11 PUSH20 0xFFFFFFFFFFFFFFFFFFFFFFFFFFFFFFFFFFFFFFFF AND PUSH20 0xFFFFFFFFFFFFFFFFFFFFFFFFFFFFFFFFFFFFFFFF AND DUP2 MSTORE PUSH1 0x20 ADD SWAP1 DUP2 MSTORE PUSH1 0x20 ADD PUSH0 KECCAK256 DUP8 DUP2 SLOAD DUP2 LT PUSH2 0x1EC3 JUMPI PUSH2 0x1EC2 PUSH2 0x369B JUMP JUMPDEST JUMPDEST SWAP1 PUSH0 MSTORE PUSH1 0x20 PUSH0 KECCAK256 SWAP1 PUSH1 0x5 MUL ADD PUSH1 0x3 ADD DUP1 SLOAD PUSH2 0x1EDD SWAP1 PUSH2 0x33FF JUMP JUMPDEST DUP1 PUSH1 0x1F ADD PUSH1 0x20 DUP1 SWAP2 DIV MUL PUSH1 0x20 ADD PUSH1 0x40 MLOAD SWAP1 DUP2 ADD PUSH1 0x40 MSTORE DUP1 SWAP3 SWAP2 SWAP1 DUP2 DUP2 MSTORE PUSH1 0x20 ADD DUP3 DUP1 SLOAD PUSH2 0x1F09 SWAP1 PUSH2 0x33FF JUMP JUMPDEST DUP1 ISZERO PUSH2 0x1F54 JUMPI DUP1 PUSH1 0x1F LT PUSH2 0x1F2B JUMPI PUSH2 0x100 DUP1 DUP4 SLOAD DIV MUL DUP4 MSTORE SWAP2 PUSH1 0x20 ADD SWAP2 PUSH2 0x1F54 JUMP JUMPDEST DUP3 ADD SWAP2 SWAP1 PUSH0 MSTORE PUSH1 0x20 PUSH0 KECCAK256 SWAP1 JUMPDEST DUP2 SLOAD DUP2 MSTORE SWAP1 PUSH1 0x1 ADD SWAP1 PUSH1 0x20 ADD DUP1 DUP4 GT PUSH2 0x1F37 JUMPI DUP3 SWAP1 SUB PUSH1 0x1F AND DUP3 ADD SWAP2 JUMPDEST POP POP POP POP POP DUP2 MSTORE PUSH1 0x20 ADD PUSH2 0x1F69 PUSH2 0x3E8 PUSH2 0x14E2 JUMP JUMPDEST DUP2 MSTORE POP SWAP1 POP PUSH1 0x3 PUSH0 CALLER PUSH20 0xFFFFFFFFFFFFFFFFFFFFFFFFFFFFFFFFFFFFFFFF AND PUSH20 0xFFFFFFFFFFFFFFFFFFFFFFFFFFFFFFFFFFFFFFFF AND DUP2 MSTORE PUSH1 0x20 ADD SWAP1 DUP2 MSTORE PUSH1 0x20 ADD PUSH0 KECCAK256 DUP2 SWAP1 DUP1 PUSH1 0x1 DUP2 SLOAD ADD DUP1 DUP3 SSTORE DUP1 SWAP2 POP POP PUSH1 0x1 SWAP1 SUB SWAP1 PUSH0 MSTORE PUSH1 0x20 PUSH0 KECCAK256 SWAP1 PUSH1 0x5 MUL ADD PUSH0 SWAP1 SWAP2 SWAP1 SWAP2 SWAP1 SWAP2 POP PUSH0 DUP3 ADD MLOAD DUP2 PUSH0 ADD PUSH0 PUSH2 0x100 EXP DUP2 SLOAD DUP2 PUSH20 0xFFFFFFFFFFFFFFFFFFFFFFFFFFFFFFFFFFFFFFFF MUL NOT AND SWAP1 DUP4 PUSH20 0xFFFFFFFFFFFFFFFFFFFFFFFFFFFFFFFFFFFFFFFF AND MUL OR SWAP1 SSTORE POP PUSH1 0x20 DUP3 ADD MLOAD DUP2 PUSH1 0x1 ADD SSTORE PUSH1 0x40 DUP3 ADD MLOAD DUP2 PUSH1 0x2 ADD SSTORE PUSH1 0x60 DUP3 ADD MLOAD DUP2 PUSH1 0x3 ADD SWAP1 DUP2 PUSH2 0x203F SWAP2 SWAP1 PUSH2 0x35CC JUMP JUMPDEST POP PUSH1 0x80 DUP3 ADD MLOAD DUP2 PUSH1 0x4 ADD SSTORE POP POP POP JUMPDEST DUP5 PUSH1 0x4 PUSH0 DUP9 PUSH20 0xFFFFFFFFFFFFFFFFFFFFFFFFFFFFFFFFFFFFFFFF AND PUSH20 0xFFFFFFFFFFFFFFFFFFFFFFFFFFFFFFFFFFFFFFFF AND DUP2 MSTORE PUSH1 0x20 ADD SWAP1 DUP2 MSTORE PUSH1 0x20 ADD PUSH0 KECCAK256 DUP6 DUP2 SLOAD DUP2 LT PUSH2 0x209E JUMPI PUSH2 0x209D PUSH2 0x369B JUMP JUMPDEST JUMPDEST SWAP1 PUSH0 MSTORE PUSH1 0x20 PUSH0 KECCAK256 SWAP1 PUSH1 0x5 MUL ADD PUSH1 0x1 ADD PUSH0 DUP3 DUP3 SLOAD PUSH2 0x20BB SWAP2 SWAP1 PUSH2 0x373C JUMP JUMPDEST SWAP3 POP POP DUP2 SWAP1 SSTORE POP DUP2 PUSH1 0x2 PUSH0 DUP9 PUSH20 0xFFFFFFFFFFFFFFFFFFFFFFFFFFFFFFFFFFFFFFFF AND PUSH20 0xFFFFFFFFFFFFFFFFFFFFFFFFFFFFFFFFFFFFFFFF AND DUP2 MSTORE PUSH1 0x20 ADD SWAP1 DUP2 MSTORE PUSH1 0x20 ADD PUSH0 KECCAK256 PUSH1 0x1 ADD DUP2 SWAP1 SSTORE POP DUP2 CALLVALUE GT ISZERO PUSH2 0x215F JUMPI CALLER PUSH20 0xFFFFFFFFFFFFFFFFFFFFFFFFFFFFFFFFFFFFFFFF AND PUSH2 0x8FC DUP4 CALLVALUE PUSH2 0x2135 SWAP2 SWAP1 PUSH2 0x373C JUMP JUMPDEST SWAP1 DUP2 ISZERO MUL SWAP1 PUSH1 0x40 MLOAD PUSH0 PUSH1 0x40 MLOAD DUP1 DUP4 SUB DUP2 DUP6 DUP9 DUP9 CALL SWAP4 POP POP POP POP ISZERO DUP1 ISZERO PUSH2 0x215D JUMPI RETURNDATASIZE PUSH0 DUP1 RETURNDATACOPY RETURNDATASIZE PUSH0 REVERT JUMPDEST POP JUMPDEST POP POP POP POP POP POP JUMP JUMPDEST DUP1 PUSH20 0xFFFFFFFFFFFFFFFFFFFFFFFFFFFFFFFFFFFFFFFF AND CALLER PUSH20 0xFFFFFFFFFFFFFFFFFFFFFFFFFFFFFFFFFFFFFFFF AND SUB PUSH2 0x219E JUMPI PUSH0 DUP1 REVERT JUMPDEST DUP1 PUSH1 0x6 DUP4 PUSH1 0x40 MLOAD PUSH2 0x21AF SWAP2 SWAP1 PUSH2 0x3C47 JUMP JUMPDEST SWAP1 DUP2 MSTORE PUSH1 0x20 ADD PUSH1 0x40 MLOAD DUP1 SWAP2 SUB SWAP1 KECCAK256 PUSH0 PUSH2 0x100 EXP DUP2 SLOAD DUP2 PUSH20 0xFFFFFFFFFFFFFFFFFFFFFFFFFFFFFFFFFFFFFFFF MUL NOT AND SWAP1 DUP4 PUSH20 0xFFFFFFFFFFFFFFFFFFFFFFFFFFFFFFFFFFFFFFFF AND MUL OR SWAP1 SSTORE POP POP POP JUMP JUMPDEST PUSH1 0x2 PUSH1 0x20 MSTORE DUP1 PUSH0 MSTORE PUSH1 0x40 PUSH0 KECCAK256 PUSH0 SWAP2 POP SWAP1 POP DUP1 PUSH0 ADD PUSH0 SWAP1 SLOAD SWAP1 PUSH2 0x100 EXP SWAP1 DIV PUSH1 0xFF AND SWAP1 DUP1 PUSH1 0x1 ADD SLOAD SWAP1 POP DUP3 JUMP JUMPDEST PUSH1 0x40 MLOAD DUP1 PUSH1 0x40 ADD PUSH1 0x40 MSTORE DUP1 PUSH0 PUSH1 0x2 DUP2 GT ISZERO PUSH2 0x2248 JUMPI PUSH2 0x2247 PUSH2 0x2E29 JUMP JUMPDEST JUMPDEST DUP2 MSTORE PUSH1 0x20 ADD PUSH0 DUP2 MSTORE POP PUSH1 0x2 PUSH0 CALLER PUSH20 0xFFFFFFFFFFFFFFFFFFFFFFFFFFFFFFFFFFFFFFFF AND PUSH20 0xFFFFFFFFFFFFFFFFFFFFFFFFFFFFFFFFFFFFFFFF AND DUP2 MSTORE PUSH1 0x20 ADD SWAP1 DUP2 MSTORE PUSH1 0x20 ADD PUSH0 KECCAK256 PUSH0 DUP3 ADD MLOAD DUP2 PUSH0 ADD PUSH0 PUSH2 0x100 EXP DUP2 SLOAD DUP2 PUSH1 0xFF MUL NOT AND SWAP1 DUP4 PUSH1 0x2 DUP2 GT ISZERO PUSH2 0x22B6 JUMPI PUSH2 0x22B5 PUSH2 0x2E29 JUMP JUMPDEST JUMPDEST MUL OR SWAP1 SSTORE POP PUSH1 0x20 DUP3 ADD MLOAD DUP2 PUSH1 0x1 ADD SSTORE SWAP1 POP POP JUMP JUMPDEST PUSH1 0x6 DUP2 DUP1 MLOAD PUSH1 0x20 DUP2 ADD DUP3 ADD DUP1 MLOAD DUP5 DUP3 MSTORE PUSH1 0x20 DUP4 ADD PUSH1 0x20 DUP6 ADD KECCAK256 DUP2 DUP4 MSTORE DUP1 SWAP6 POP POP POP POP POP POP PUSH0 SWAP2 POP SLOAD SWAP1 PUSH2 0x100 EXP SWAP1 DIV PUSH20 0xFFFFFFFFFFFFFFFFFFFFFFFFFFFFFFFFFFFFFFFF AND DUP2 JUMP JUMPDEST DUP1 PUSH20 0xFFFFFFFFFFFFFFFFFFFFFFFFFFFFFFFFFFFFFFFF AND PUSH2 0x8FC PUSH1 0x2 PUSH0 DUP5 PUSH20 0xFFFFFFFFFFFFFFFFFFFFFFFFFFFFFFFFFFFFFFFF AND PUSH20 0xFFFFFFFFFFFFFFFFFFFFFFFFFFFFFFFFFFFFFFFF AND DUP2 MSTORE PUSH1 0x20 ADD SWAP1 DUP2 MSTORE PUSH1 0x20 ADD PUSH0 KECCAK256 PUSH1 0x1 ADD SLOAD SWAP1 DUP2 ISZERO MUL SWAP1 PUSH1 0x40 MLOAD PUSH0 PUSH1 0x40 MLOAD DUP1 DUP4 SUB DUP2 DUP6 DUP9 DUP9 CALL SWAP4 POP POP POP POP ISZERO DUP1 ISZERO PUSH2 0x2395 JUMPI RETURNDATASIZE PUSH0 DUP1 RETURNDATACOPY RETURNDATASIZE PUSH0 REVERT JUMPDEST POP POP JUMP JUMPDEST PUSH1 0x1 DUP5 DUP2 PUSH1 0x2 DUP2 GT ISZERO PUSH2 0x23AF JUMPI PUSH2 0x23AE PUSH2 0x2E29 JUMP JUMPDEST JUMPDEST PUSH1 0x2 PUSH0 CALLER PUSH20 0xFFFFFFFFFFFFFFFFFFFFFFFFFFFFFFFFFFFFFFFF AND PUSH20 0xFFFFFFFFFFFFFFFFFFFFFFFFFFFFFFFFFFFFFFFF AND DUP2 MSTORE PUSH1 0x20 ADD SWAP1 DUP2 MSTORE PUSH1 0x20 ADD PUSH0 KECCAK256 PUSH0 ADD PUSH0 SWAP1 SLOAD SWAP1 PUSH2 0x100 EXP SWAP1 DIV PUSH1 0xFF AND PUSH1 0x2 DUP2 GT ISZERO PUSH2 0x240D JUMPI PUSH2 0x240C PUSH2 0x2E29 JUMP JUMPDEST JUMPDEST EQ PUSH2 0x244D JUMPI PUSH1 0x40 MLOAD PUSH32 0x8C379A000000000000000000000000000000000000000000000000000000000 DUP2 MSTORE PUSH1 0x4 ADD PUSH2 0x2444 SWAP1 PUSH2 0x3B0D JUMP JUMPDEST PUSH1 0x40 MLOAD DUP1 SWAP2 SUB SWAP1 REVERT JUMPDEST DUP1 PUSH20 0xFFFFFFFFFFFFFFFFFFFFFFFFFFFFFFFFFFFFFFFF AND CALLER PUSH20 0xFFFFFFFFFFFFFFFFFFFFFFFFFFFFFFFFFFFFFFFF AND EQ PUSH2 0x24BB JUMPI PUSH1 0x40 MLOAD PUSH32 0x8C379A000000000000000000000000000000000000000000000000000000000 DUP2 MSTORE PUSH1 0x4 ADD PUSH2 0x24B2 SWAP1 PUSH2 0x3BC1 JUMP JUMPDEST PUSH1 0x40 MLOAD DUP1 SWAP2 SUB SWAP1 REVERT JUMPDEST PUSH0 DUP5 GT PUSH2 0x24FD JUMPI PUSH1 0x40 MLOAD PUSH32 0x8C379A000000000000000000000000000000000000000000000000000000000 DUP2 MSTORE PUSH1 0x4 ADD PUSH2 0x24F4 SWAP1 PUSH2 0x3866 JUMP JUMPDEST PUSH1 0x40 MLOAD DUP1 SWAP2 SUB SWAP1 REVERT JUMPDEST PUSH1 0x5 PUSH0 DUP5 PUSH20 0xFFFFFFFFFFFFFFFFFFFFFFFFFFFFFFFFFFFFFFFF AND PUSH20 0xFFFFFFFFFFFFFFFFFFFFFFFFFFFFFFFFFFFFFFFF AND DUP2 MSTORE PUSH1 0x20 ADD SWAP1 DUP2 MSTORE PUSH1 0x20 ADD PUSH0 KECCAK256 DUP1 SLOAD SWAP1 POP DUP6 LT PUSH2 0x257F JUMPI PUSH1 0x40 MLOAD PUSH32 0x8C379A000000000000000000000000000000000000000000000000000000000 DUP2 MSTORE PUSH1 0x4 ADD PUSH2 0x2576 SWAP1 PUSH2 0x38CE JUMP JUMPDEST PUSH1 0x40 MLOAD DUP1 SWAP2 SUB SWAP1 REVERT JUMPDEST PUSH0 PUSH1 0x5 PUSH0 DUP6 PUSH20 0xFFFFFFFFFFFFFFFFFFFFFFFFFFFFFFFFFFFFFFFF AND PUSH20 0xFFFFFFFFFFFFFFFFFFFFFFFFFFFFFFFFFFFFFFFF AND DUP2 MSTORE PUSH1 0x20 ADD SWAP1 DUP2 MSTORE PUSH1 0x20 ADD PUSH0 KECCAK256 DUP7 DUP2 SLOAD DUP2 LT PUSH2 0x25CF JUMPI PUSH2 0x25CE PUSH2 0x369B JUMP JUMPDEST JUMPDEST SWAP1 PUSH0 MSTORE PUSH1 0x20 PUSH0 KECCAK256 SWAP1 PUSH1 0x5 MUL ADD PUSH1 0x2 ADD SLOAD SWAP1 POP PUSH0 PUSH8 0xDE0B6B3A7640000 DUP7 DUP4 PUSH2 0x25F7 SWAP2 SWAP1 PUSH2 0x36C8 JUMP JUMPDEST PUSH2 0x2601 SWAP2 SWAP1 PUSH2 0x36C8 JUMP JUMPDEST SWAP1 POP DUP1 CALLVALUE LT ISZERO PUSH2 0x2646 JUMPI PUSH1 0x40 MLOAD PUSH32 0x8C379A000000000000000000000000000000000000000000000000000000000 DUP2 MSTORE PUSH1 0x4 ADD PUSH2 0x263D SWAP1 PUSH2 0x3CA7 JUMP JUMPDEST PUSH1 0x40 MLOAD DUP1 SWAP2 SUB SWAP1 REVERT JUMPDEST PUSH0 PUSH1 0x5 PUSH0 DUP8 PUSH20 0xFFFFFFFFFFFFFFFFFFFFFFFFFFFFFFFFFFFFFFFF AND PUSH20 0xFFFFFFFFFFFFFFFFFFFFFFFFFFFFFFFFFFFFFFFF AND DUP2 MSTORE PUSH1 0x20 ADD SWAP1 DUP2 MSTORE PUSH1 0x20 ADD PUSH0 KECCAK256 DUP9 DUP2 SLOAD DUP2 LT PUSH2 0x2696 JUMPI PUSH2 0x2695 PUSH2 0x369B JUMP JUMPDEST JUMPDEST SWAP1 PUSH0 MSTORE PUSH1 0x20 PUSH0 KECCAK256 SWAP1 PUSH1 0x5 MUL ADD PUSH1 0x3 ADD DUP1 SLOAD PUSH2 0x26B0 SWAP1 PUSH2 0x33FF JUMP JUMPDEST DUP1 PUSH1 0x1F ADD PUSH1 0x20 DUP1 SWAP2 DIV MUL PUSH1 0x20 ADD PUSH1 0x40 MLOAD SWAP1 DUP2 ADD PUSH1 0x40 MSTORE DUP1 SWAP3 SWAP2 SWAP1 DUP2 DUP2 MSTORE PUSH1 0x20 ADD DUP3 DUP1 SLOAD PUSH2 0x26DC SWAP1 PUSH2 0x33FF JUMP JUMPDEST DUP1 ISZERO PUSH2 0x2727 JUMPI DUP1 PUSH1 0x1F LT PUSH2 0x26FE JUMPI PUSH2 0x100 DUP1 DUP4 SLOAD DIV MUL DUP4 MSTORE SWAP2 PUSH1 0x20 ADD SWAP2 PUSH2 0x2727 JUMP JUMPDEST DUP3 ADD SWAP2 SWAP1 PUSH0 MSTORE PUSH1 0x20 PUSH0 KECCAK256 SWAP1 JUMPDEST DUP2 SLOAD DUP2 MSTORE SWAP1 PUSH1 0x1 ADD SWAP1 PUSH1 0x20 ADD DUP1 DUP4 GT PUSH2 0x270A JUMPI DUP3 SWAP1 SUB PUSH1 0x1F AND DUP3 ADD SWAP2 JUMPDEST POP POP POP POP POP SWAP1 POP PUSH0 DUP1 JUMPDEST PUSH1 0x4 PUSH0 DUP13 PUSH20 0xFFFFFFFFFFFFFFFFFFFFFFFFFFFFFFFFFFFFFFFF AND PUSH20 0xFFFFFFFFFFFFFFFFFFFFFFFFFFFFFFFFFFFFFFFF AND DUP2 MSTORE PUSH1 0x20 ADD SWAP1 DUP2 MSTORE PUSH1 0x20 ADD PUSH0 KECCAK256 DUP1 SLOAD SWAP1 POP DUP2 LT ISZERO PUSH2 0x2889 JUMPI PUSH1 0x4 PUSH0 DUP13 PUSH20 0xFFFFFFFFFFFFFFFFFFFFFFFFFFFFFFFFFFFFFFFF AND PUSH20 0xFFFFFFFFFFFFFFFFFFFFFFFFFFFFFFFFFFFFFFFF AND DUP2 MSTORE PUSH1 0x20 ADD SWAP1 DUP2 MSTORE PUSH1 0x20 ADD PUSH0 KECCAK256 DUP2 DUP2 SLOAD DUP2 LT PUSH2 0x27C8 JUMPI PUSH2 0x27C7 PUSH2 0x369B JUMP JUMPDEST JUMPDEST SWAP1 PUSH0 MSTORE PUSH1 0x20 PUSH0 KECCAK256 SWAP1 PUSH1 0x5 MUL ADD PUSH1 0x3 ADD PUSH1 0x40 MLOAD PUSH2 0x27E4 SWAP2 SWAP1 PUSH2 0x3D61 JUMP JUMPDEST PUSH1 0x40 MLOAD DUP1 SWAP2 SUB SWAP1 KECCAK256 DUP4 DUP1 MLOAD SWAP1 PUSH1 0x20 ADD KECCAK256 SUB PUSH2 0x2876 JUMPI DUP9 PUSH1 0x4 PUSH0 DUP14 PUSH20 0xFFFFFFFFFFFFFFFFFFFFFFFFFFFFFFFFFFFFFFFF AND PUSH20 0xFFFFFFFFFFFFFFFFFFFFFFFFFFFFFFFFFFFFFFFF AND DUP2 MSTORE PUSH1 0x20 ADD SWAP1 DUP2 MSTORE PUSH1 0x20 ADD PUSH0 KECCAK256 DUP3 DUP2 SLOAD DUP2 LT PUSH2 0x2849 JUMPI PUSH2 0x2848 PUSH2 0x369B JUMP JUMPDEST JUMPDEST SWAP1 PUSH0 MSTORE PUSH1 0x20 PUSH0 KECCAK256 SWAP1 PUSH1 0x5 MUL ADD PUSH1 0x1 ADD PUSH0 DUP3 DUP3 SLOAD PUSH2 0x2866 SWAP2 SWAP1 PUSH2 0x3709 JUMP JUMPDEST SWAP3 POP POP DUP2 SWAP1 SSTORE POP PUSH1 0x1 SWAP2 POP PUSH2 0x2889 JUMP JUMPDEST DUP1 DUP1 PUSH2 0x2881 SWAP1 PUSH2 0x37AF JUMP JUMPDEST SWAP2 POP POP PUSH2 0x2731 JUMP JUMPDEST POP DUP1 PUSH2 0x2A0D JUMPI PUSH0 PUSH1 0x40 MLOAD DUP1 PUSH1 0xA0 ADD PUSH1 0x40 MSTORE DUP1 DUP10 PUSH20 0xFFFFFFFFFFFFFFFFFFFFFFFFFFFFFFFFFFFFFFFF AND DUP2 MSTORE PUSH1 0x20 ADD DUP11 DUP2 MSTORE PUSH1 0x20 ADD DUP7 DUP2 MSTORE PUSH1 0x20 ADD DUP5 DUP2 MSTORE PUSH1 0x20 ADD PUSH1 0x5 PUSH0 DUP12 PUSH20 0xFFFFFFFFFFFFFFFFFFFFFFFFFFFFFFFFFFFFFFFF AND PUSH20 0xFFFFFFFFFFFFFFFFFFFFFFFFFFFFFFFFFFFFFFFF AND DUP2 MSTORE PUSH1 0x20 ADD SWAP1 DUP2 MSTORE PUSH1 0x20 ADD PUSH0 KECCAK256 DUP13 DUP2 SLOAD DUP2 LT PUSH2 0x2918 JUMPI PUSH2 0x2917 PUSH2 0x369B JUMP JUMPDEST JUMPDEST SWAP1 PUSH0 MSTORE PUSH1 0x20 PUSH0 KECCAK256 SWAP1 PUSH1 0x5 MUL ADD PUSH1 0x4 ADD SLOAD DUP2 MSTORE POP SWAP1 POP PUSH1 0x4 PUSH0 DUP13 PUSH20 0xFFFFFFFFFFFFFFFFFFFFFFFFFFFFFFFFFFFFFFFF AND PUSH20 0xFFFFFFFFFFFFFFFFFFFFFFFFFFFFFFFFFFFFFFFF AND DUP2 MSTORE PUSH1 0x20 ADD SWAP1 DUP2 MSTORE PUSH1 0x20 ADD PUSH0 KECCAK256 DUP2 SWAP1 DUP1 PUSH1 0x1 DUP2 SLOAD ADD DUP1 DUP3 SSTORE DUP1 SWAP2 POP POP PUSH1 0x1 SWAP1 SUB SWAP1 PUSH0 MSTORE PUSH1 0x20 PUSH0 KECCAK256 SWAP1 PUSH1 0x5 MUL ADD PUSH0 SWAP1 SWAP2 SWAP1 SWAP2 SWAP1 SWAP2 POP PUSH0 DUP3 ADD MLOAD DUP2 PUSH0 ADD PUSH0 PUSH2 0x100 EXP DUP2 SLOAD DUP2 PUSH20 0xFFFFFFFFFFFFFFFFFFFFFFFFFFFFFFFFFFFFFFFF MUL NOT AND SWAP1 DUP4 PUSH20 0xFFFFFFFFFFFFFFFFFFFFFFFFFFFFFFFFFFFFFFFF AND MUL OR SWAP1 SSTORE POP PUSH1 0x20 DUP3 ADD MLOAD DUP2 PUSH1 0x1 ADD SSTORE PUSH1 0x40 DUP3 ADD MLOAD DUP2 PUSH1 0x2 ADD SSTORE PUSH1 0x60 DUP3 ADD MLOAD DUP2 PUSH1 0x3 ADD SWAP1 DUP2 PUSH2 0x29FE SWAP2 SWAP1 PUSH2 0x35CC JUMP JUMPDEST POP PUSH1 0x80 DUP3 ADD MLOAD DUP2 PUSH1 0x4 ADD SSTORE POP POP POP JUMPDEST DUP8 PUSH1 0x5 PUSH0 DUP10 PUSH20 0xFFFFFFFFFFFFFFFFFFFFFFFFFFFFFFFFFFFFFFFF AND PUSH20 0xFFFFFFFFFFFFFFFFFFFFFFFFFFFFFFFFFFFFFFFF AND DUP2 MSTORE PUSH1 0x20 ADD SWAP1 DUP2 MSTORE PUSH1 0x20 ADD PUSH0 KECCAK256 DUP11 DUP2 SLOAD DUP2 LT PUSH2 0x2A5D JUMPI PUSH2 0x2A5C PUSH2 0x369B JUMP JUMPDEST JUMPDEST SWAP1 PUSH0 MSTORE PUSH1 0x20 PUSH0 KECCAK256 SWAP1 PUSH1 0x5 MUL ADD PUSH1 0x1 ADD PUSH0 DUP3 DUP3 SLOAD PUSH2 0x2A7A SWAP2 SWAP1 PUSH2 0x373C JUMP JUMPDEST SWAP3 POP POP DUP2 SWAP1 SSTORE POP DUP3 CALLVALUE GT ISZERO PUSH2 0x2AD9 JUMPI CALLER PUSH20 0xFFFFFFFFFFFFFFFFFFFFFFFFFFFFFFFFFFFFFFFF AND PUSH2 0x8FC DUP5 CALLVALUE PUSH2 0x2AAF SWAP2 SWAP1 PUSH2 0x373C JUMP JUMPDEST SWAP1 DUP2 ISZERO MUL SWAP1 PUSH1 0x40 MLOAD PUSH0 PUSH1 0x40 MLOAD DUP1 DUP4 SUB DUP2 DUP6 DUP9 DUP9 CALL SWAP4 POP POP POP POP ISZERO DUP1 ISZERO PUSH2 0x2AD7 JUMPI RETURNDATASIZE PUSH0 DUP1 RETURNDATACOPY RETURNDATASIZE PUSH0 REVERT JUMPDEST POP JUMPDEST POP POP POP POP POP POP POP POP POP POP JUMP JUMPDEST POP DUP1 SLOAD PUSH2 0x2AF1 SWAP1 PUSH2 0x33FF JUMP JUMPDEST PUSH0 DUP3 SSTORE DUP1 PUSH1 0x1F LT PUSH2 0x2B02 JUMPI POP PUSH2 0x2B1F JUMP JUMPDEST PUSH1 0x1F ADD PUSH1 0x20 SWAP1 DIV SWAP1 PUSH0 MSTORE PUSH1 0x20 PUSH0 KECCAK256 SWAP1 DUP2 ADD SWAP1 PUSH2 0x2B1E SWAP2 SWAP1 PUSH2 0x2B22 JUMP JUMPDEST JUMPDEST POP JUMP JUMPDEST JUMPDEST DUP1 DUP3 GT ISZERO PUSH2 0x2B39 JUMPI PUSH0 DUP2 PUSH0 SWAP1 SSTORE POP PUSH1 0x1 ADD PUSH2 0x2B23 JUMP JUMPDEST POP SWAP1 JUMP JUMPDEST PUSH0 PUSH1 0x40 MLOAD SWAP1 POP SWAP1 JUMP JUMPDEST PUSH0 DUP1 REVERT JUMPDEST PUSH0 DUP1 REVERT JUMPDEST PUSH0 DUP2 SWAP1 POP SWAP2 SWAP1 POP JUMP JUMPDEST PUSH2 0x2B60 DUP2 PUSH2 0x2B4E JUMP JUMPDEST DUP2 EQ PUSH2 0x2B6A JUMPI PUSH0 DUP1 REVERT JUMPDEST POP JUMP JUMPDEST PUSH0 DUP2 CALLDATALOAD SWAP1 POP PUSH2 0x2B7B DUP2 PUSH2 0x2B57 JUMP JUMPDEST SWAP3 SWAP2 POP POP JUMP JUMPDEST PUSH0 DUP1 REVERT JUMPDEST PUSH0 DUP1 REVERT JUMPDEST PUSH0 DUP1 REVERT JUMPDEST PUSH0 DUP1 DUP4 PUSH1 0x1F DUP5 ADD SLT PUSH2 0x2BA2 JUMPI PUSH2 0x2BA1 PUSH2 0x2B81 JUMP JUMPDEST JUMPDEST DUP3 CALLDATALOAD SWAP1 POP PUSH8 0xFFFFFFFFFFFFFFFF DUP2 GT ISZERO PUSH2 0x2BBF JUMPI PUSH2 0x2BBE PUSH2 0x2B85 JUMP JUMPDEST JUMPDEST PUSH1 0x20 DUP4 ADD SWAP2 POP DUP4 PUSH1 0x1 DUP3 MUL DUP4 ADD GT ISZERO PUSH2 0x2BDB JUMPI PUSH2 0x2BDA PUSH2 0x2B89 JUMP JUMPDEST JUMPDEST SWAP3 POP SWAP3 SWAP1 POP JUMP JUMPDEST PUSH0 DUP1 PUSH0 DUP1 PUSH0 PUSH1 0x80 DUP7 DUP9 SUB SLT ISZERO PUSH2 0x2BFB JUMPI PUSH2 0x2BFA PUSH2 0x2B46 JUMP JUMPDEST JUMPDEST PUSH0 PUSH2 0x2C08 DUP9 DUP3 DUP10 ADD PUSH2 0x2B6D JUMP JUMPDEST SWAP6 POP POP PUSH1 0x20 PUSH2 0x2C19 DUP9 DUP3 DUP10 ADD PUSH2 0x2B6D JUMP JUMPDEST SWAP5 POP POP PUSH1 0x40 DUP7 ADD CALLDATALOAD PUSH8 0xFFFFFFFFFFFFFFFF DUP2 GT ISZERO PUSH2 0x2C3A JUMPI PUSH2 0x2C39 PUSH2 0x2B4A JUMP JUMPDEST JUMPDEST PUSH2 0x2C46 DUP9 DUP3 DUP10 ADD PUSH2 0x2B8D JUMP JUMPDEST SWAP4 POP SWAP4 POP POP PUSH1 0x60 PUSH2 0x2C59 DUP9 DUP3 DUP10 ADD PUSH2 0x2B6D JUMP JUMPDEST SWAP2 POP POP SWAP3 SWAP6 POP SWAP3 SWAP6 SWAP1 SWAP4 POP JUMP JUMPDEST PUSH0 PUSH20 0xFFFFFFFFFFFFFFFFFFFFFFFFFFFFFFFFFFFFFFFF DUP3 AND SWAP1 POP SWAP2 SWAP1 POP JUMP JUMPDEST PUSH0 PUSH2 0x2C8F DUP3 PUSH2 0x2C66 JUMP JUMPDEST SWAP1 POP SWAP2 SWAP1 POP JUMP JUMPDEST PUSH2 0x2C9F DUP2 PUSH2 0x2C85 JUMP JUMPDEST DUP2 EQ PUSH2 0x2CA9 JUMPI PUSH0 DUP1 REVERT JUMPDEST POP JUMP JUMPDEST PUSH0 DUP2 CALLDATALOAD SWAP1 POP PUSH2 0x2CBA DUP2 PUSH2 0x2C96 JUMP JUMPDEST SWAP3 SWAP2 POP POP JUMP JUMPDEST PUSH0 DUP1 PUSH1 0x40 DUP4 DUP6 SUB SLT ISZERO PUSH2 0x2CD6 JUMPI PUSH2 0x2CD5 PUSH2 0x2B46 JUMP JUMPDEST JUMPDEST PUSH0 PUSH2 0x2CE3 DUP6 DUP3 DUP7 ADD PUSH2 0x2CAC JUMP JUMPDEST SWAP3 POP POP PUSH1 0x20 PUSH2 0x2CF4 DUP6 DUP3 DUP7 ADD PUSH2 0x2B6D JUMP JUMPDEST SWAP2 POP POP SWAP3 POP SWAP3 SWAP1 POP JUMP JUMPDEST PUSH2 0x2D07 DUP2 PUSH2 0x2C85 JUMP JUMPDEST DUP3 MSTORE POP POP JUMP JUMPDEST PUSH2 0x2D16 DUP2 PUSH2 0x2B4E JUMP JUMPDEST DUP3 MSTORE POP POP JUMP JUMPDEST PUSH0 DUP2 MLOAD SWAP1 POP SWAP2 SWAP1 POP JUMP JUMPDEST PUSH0 DUP3 DUP3 MSTORE PUSH1 0x20 DUP3 ADD SWAP1 POP SWAP3 SWAP2 POP POP JUMP JUMPDEST PUSH0 JUMPDEST DUP4 DUP2 LT ISZERO PUSH2 0x2D53 JUMPI DUP1 DUP3 ADD MLOAD DUP2 DUP5 ADD MSTORE PUSH1 0x20 DUP2 ADD SWAP1 POP PUSH2 0x2D38 JUMP JUMPDEST PUSH0 DUP5 DUP5 ADD MSTORE POP POP POP POP JUMP JUMPDEST PUSH0 PUSH1 0x1F NOT PUSH1 0x1F DUP4 ADD AND SWAP1 POP SWAP2 SWAP1 POP JUMP JUMPDEST PUSH0 PUSH2 0x2D78 DUP3 PUSH2 0x2D1C JUMP JUMPDEST PUSH2 0x2D82 DUP2 DUP6 PUSH2 0x2D26 JUMP JUMPDEST SWAP4 POP PUSH2 0x2D92 DUP2 DUP6 PUSH1 0x20 DUP7 ADD PUSH2 0x2D36 JUMP JUMPDEST PUSH2 0x2D9B DUP2 PUSH2 0x2D5E JUMP JUMPDEST DUP5 ADD SWAP2 POP POP SWAP3 SWAP2 POP POP JUMP JUMPDEST PUSH0 PUSH1 0xA0 DUP3 ADD SWAP1 POP PUSH2 0x2DB9 PUSH0 DUP4 ADD DUP9 PUSH2 0x2CFE JUMP JUMPDEST PUSH2 0x2DC6 PUSH1 0x20 DUP4 ADD DUP8 PUSH2 0x2D0D JUMP JUMPDEST PUSH2 0x2DD3 PUSH1 0x40 DUP4 ADD DUP7 PUSH2 0x2D0D JUMP JUMPDEST DUP2 DUP2 SUB PUSH1 0x60 DUP4 ADD MSTORE PUSH2 0x2DE5 DUP2 DUP6 PUSH2 0x2D6E JUMP JUMPDEST SWAP1 POP PUSH2 0x2DF4 PUSH1 0x80 DUP4 ADD DUP5 PUSH2 0x2D0D JUMP JUMPDEST SWAP7 SWAP6 POP POP POP POP POP POP JUMP JUMPDEST PUSH0 PUSH1 0x20 DUP3 DUP5 SUB SLT ISZERO PUSH2 0x2E13 JUMPI PUSH2 0x2E12 PUSH2 0x2B46 JUMP JUMPDEST JUMPDEST PUSH0 PUSH2 0x2E20 DUP5 DUP3 DUP6 ADD PUSH2 0x2B6D JUMP JUMPDEST SWAP2 POP POP SWAP3 SWAP2 POP POP JUMP JUMPDEST PUSH32 0x4E487B7100000000000000000000000000000000000000000000000000000000 PUSH0 MSTORE PUSH1 0x21 PUSH1 0x4 MSTORE PUSH1 0x24 PUSH0 REVERT JUMPDEST PUSH1 0x3 DUP2 LT PUSH2 0x2E67 JUMPI PUSH2 0x2E66 PUSH2 0x2E29 JUMP JUMPDEST JUMPDEST POP JUMP JUMPDEST PUSH0 DUP2 SWAP1 POP PUSH2 0x2E77 DUP3 PUSH2 0x2E56 JUMP JUMPDEST SWAP2 SWAP1 POP JUMP JUMPDEST PUSH0 PUSH2 0x2E86 DUP3 PUSH2 0x2E6A JUMP JUMPDEST SWAP1 POP SWAP2 SWAP1 POP JUMP JUMPDEST PUSH2 0x2E96 DUP2 PUSH2 0x2E7C JUMP JUMPDEST DUP3 MSTORE POP POP JUMP JUMPDEST PUSH0 PUSH1 0x40 DUP3 ADD SWAP1 POP PUSH2 0x2EAF PUSH0 DUP4 ADD DUP6 PUSH2 0x2CFE JUMP JUMPDEST PUSH2 0x2EBC PUSH1 0x20 DUP4 ADD DUP5 PUSH2 0x2E8D JUMP JUMPDEST SWAP4 SWAP3 POP POP POP JUMP JUMPDEST PUSH1 0x3 DUP2 LT PUSH2 0x2ECF JUMPI PUSH0 DUP1 REVERT JUMPDEST POP JUMP JUMPDEST PUSH0 DUP2 CALLDATALOAD SWAP1 POP PUSH2 0x2EE0 DUP2 PUSH2 0x2EC3 JUMP JUMPDEST SWAP3 SWAP2 POP POP JUMP JUMPDEST PUSH0 PUSH1 0x20 DUP3 DUP5 SUB SLT ISZERO PUSH2 0x2EFB JUMPI PUSH2 0x2EFA PUSH2 0x2B46 JUMP JUMPDEST JUMPDEST PUSH0 PUSH2 0x2F08 DUP5 DUP3 DUP6 ADD PUSH2 0x2ED2 JUMP JUMPDEST SWAP2 POP POP SWAP3 SWAP2 POP POP JUMP JUMPDEST PUSH0 DUP1 REVERT JUMPDEST PUSH32 0x4E487B7100000000000000000000000000000000000000000000000000000000 PUSH0 MSTORE PUSH1 0x41 PUSH1 0x4 MSTORE PUSH1 0x24 PUSH0 REVERT JUMPDEST PUSH2 0x2F4B DUP3 PUSH2 0x2D5E JUMP JUMPDEST DUP2 ADD DUP2 DUP2 LT PUSH8 0xFFFFFFFFFFFFFFFF DUP3 GT OR ISZERO PUSH2 0x2F6A JUMPI PUSH2 0x2F69 PUSH2 0x2F15 JUMP JUMPDEST JUMPDEST DUP1 PUSH1 0x40 MSTORE POP POP POP JUMP JUMPDEST PUSH0 PUSH2 0x2F7C PUSH2 0x2B3D JUMP JUMPDEST SWAP1 POP PUSH2 0x2F88 DUP3 DUP3 PUSH2 0x2F42 JUMP JUMPDEST SWAP2 SWAP1 POP JUMP JUMPDEST PUSH0 PUSH8 0xFFFFFFFFFFFFFFFF DUP3 GT ISZERO PUSH2 0x2FA7 JUMPI PUSH2 0x2FA6 PUSH2 0x2F15 JUMP JUMPDEST JUMPDEST PUSH2 0x2FB0 DUP3 PUSH2 0x2D5E JUMP JUMPDEST SWAP1 POP PUSH1 0x20 DUP2 ADD SWAP1 POP SWAP2 SWAP1 POP JUMP JUMPDEST DUP3 DUP2 DUP4 CALLDATACOPY PUSH0 DUP4 DUP4 ADD MSTORE POP POP POP JUMP JUMPDEST PUSH0 PUSH2 0x2FDD PUSH2 0x2FD8 DUP5 PUSH2 0x2F8D JUMP JUMPDEST PUSH2 0x2F73 JUMP JUMPDEST SWAP1 POP DUP3 DUP2 MSTORE PUSH1 0x20 DUP2 ADD DUP5 DUP5 DUP5 ADD GT ISZERO PUSH2 0x2FF9 JUMPI PUSH2 0x2FF8 PUSH2 0x2F11 JUMP JUMPDEST JUMPDEST PUSH2 0x3004 DUP5 DUP3 DUP6 PUSH2 0x2FBD JUMP JUMPDEST POP SWAP4 SWAP3 POP POP POP JUMP JUMPDEST PUSH0 DUP3 PUSH1 0x1F DUP4 ADD SLT PUSH2 0x3020 JUMPI PUSH2 0x301F PUSH2 0x2B81 JUMP JUMPDEST JUMPDEST DUP2 CALLDATALOAD PUSH2 0x3030 DUP5 DUP3 PUSH1 0x20 DUP7 ADD PUSH2 0x2FCB JUMP JUMPDEST SWAP2 POP POP SWAP3 SWAP2 POP POP JUMP JUMPDEST PUSH0 PUSH1 0x20 DUP3 DUP5 SUB SLT ISZERO PUSH2 0x304E JUMPI PUSH2 0x304D PUSH2 0x2B46 JUMP JUMPDEST JUMPDEST PUSH0 DUP3 ADD CALLDATALOAD PUSH8 0xFFFFFFFFFFFFFFFF DUP2 GT ISZERO PUSH2 0x306B JUMPI PUSH2 0x306A PUSH2 0x2B4A JUMP JUMPDEST JUMPDEST PUSH2 0x3077 DUP5 DUP3 DUP6 ADD PUSH2 0x300C JUMP JUMPDEST SWAP2 POP POP SWAP3 SWAP2 POP POP JUMP JUMPDEST PUSH0 PUSH1 0x20 DUP3 ADD SWAP1 POP DUP2 DUP2 SUB PUSH0 DUP4 ADD MSTORE PUSH2 0x3098 DUP2 DUP5 PUSH2 0x2D6E JUMP JUMPDEST SWAP1 POP SWAP3 SWAP2 POP POP JUMP JUMPDEST PUSH0 DUP1 PUSH0 PUSH1 0x60 DUP5 DUP7 SUB SLT ISZERO PUSH2 0x30B7 JUMPI PUSH2 0x30B6 PUSH2 0x2B46 JUMP JUMPDEST JUMPDEST PUSH0 PUSH2 0x30C4 DUP7 DUP3 DUP8 ADD PUSH2 0x2CAC JUMP JUMPDEST SWAP4 POP POP PUSH1 0x20 PUSH2 0x30D5 DUP7 DUP3 DUP8 ADD PUSH2 0x2B6D JUMP JUMPDEST SWAP3 POP POP PUSH1 0x40 PUSH2 0x30E6 DUP7 DUP3 DUP8 ADD PUSH2 0x2B6D JUMP JUMPDEST SWAP2 POP POP SWAP3 POP SWAP3 POP SWAP3 JUMP JUMPDEST PUSH0 PUSH1 0x20 DUP3 ADD SWAP1 POP PUSH2 0x3103 PUSH0 DUP4 ADD DUP5 PUSH2 0x2D0D JUMP JUMPDEST SWAP3 SWAP2 POP POP JUMP JUMPDEST PUSH0 DUP1 PUSH0 DUP1 PUSH0 DUP1 PUSH1 0xA0 DUP8 DUP10 SUB SLT ISZERO PUSH2 0x3123 JUMPI PUSH2 0x3122 PUSH2 0x2B46 JUMP JUMPDEST JUMPDEST PUSH0 PUSH2 0x3130 DUP10 DUP3 DUP11 ADD PUSH2 0x2B6D JUMP JUMPDEST SWAP7 POP POP PUSH1 0x20 PUSH2 0x3141 DUP10 DUP3 DUP11 ADD PUSH2 0x2B6D JUMP JUMPDEST SWAP6 POP POP PUSH1 0x40 DUP8 ADD CALLDATALOAD PUSH8 0xFFFFFFFFFFFFFFFF DUP2 GT ISZERO PUSH2 0x3162 JUMPI PUSH2 0x3161 PUSH2 0x2B4A JUMP JUMPDEST JUMPDEST PUSH2 0x316E DUP10 DUP3 DUP11 ADD PUSH2 0x2B8D JUMP JUMPDEST SWAP5 POP SWAP5 POP POP PUSH1 0x60 PUSH2 0x3181 DUP10 DUP3 DUP11 ADD PUSH2 0x2B6D JUMP JUMPDEST SWAP3 POP POP PUSH1 0x80 PUSH2 0x3192 DUP10 DUP3 DUP11 ADD PUSH2 0x2CAC JUMP JUMPDEST SWAP2 POP POP SWAP3 SWAP6 POP SWAP3 SWAP6 POP SWAP3 SWAP6 JUMP JUMPDEST PUSH0 PUSH1 0x20 DUP3 ADD SWAP1 POP PUSH2 0x31B2 PUSH0 DUP4 ADD DUP5 PUSH2 0x2CFE JUMP JUMPDEST SWAP3 SWAP2 POP POP JUMP JUMPDEST PUSH0 DUP1 PUSH0 DUP1 PUSH1 0x80 DUP6 DUP8 SUB SLT ISZERO PUSH2 0x31D0 JUMPI PUSH2 0x31CF PUSH2 0x2B46 JUMP JUMPDEST JUMPDEST PUSH0 PUSH2 0x31DD DUP8 DUP3 DUP9 ADD PUSH2 0x2CAC JUMP JUMPDEST SWAP5 POP POP PUSH1 0x20 PUSH2 0x31EE DUP8 DUP3 DUP9 ADD PUSH2 0x2B6D JUMP JUMPDEST SWAP4 POP POP PUSH1 0x40 PUSH2 0x31FF DUP8 DUP3 DUP9 ADD PUSH2 0x2B6D JUMP JUMPDEST SWAP3 POP POP PUSH1 0x60 DUP6 ADD CALLDATALOAD PUSH8 0xFFFFFFFFFFFFFFFF DUP2 GT ISZERO PUSH2 0x3220 JUMPI PUSH2 0x321F PUSH2 0x2B4A JUMP JUMPDEST JUMPDEST PUSH2 0x322C DUP8 DUP3 DUP9 ADD PUSH2 0x300C JUMP JUMPDEST SWAP2 POP POP SWAP3 SWAP6 SWAP2 SWAP5 POP SWAP3 POP JUMP JUMPDEST PUSH0 DUP1 PUSH1 0x40 DUP4 DUP6 SUB SLT ISZERO PUSH2 0x324E JUMPI PUSH2 0x324D PUSH2 0x2B46 JUMP JUMPDEST JUMPDEST PUSH0 DUP4 ADD CALLDATALOAD PUSH8 0xFFFFFFFFFFFFFFFF DUP2 GT ISZERO PUSH2 0x326B JUMPI PUSH2 0x326A PUSH2 0x2B4A JUMP JUMPDEST JUMPDEST PUSH2 0x3277 DUP6 DUP3 DUP7 ADD PUSH2 0x300C JUMP JUMPDEST SWAP3 POP POP PUSH1 0x20 PUSH2 0x3288 DUP6 DUP3 DUP7 ADD PUSH2 0x2CAC JUMP JUMPDEST SWAP2 POP POP SWAP3 POP SWAP3 SWAP1 POP JUMP JUMPDEST PUSH0 PUSH1 0x20 DUP3 DUP5 SUB SLT ISZERO PUSH2 0x32A7 JUMPI PUSH2 0x32A6 PUSH2 0x2B46 JUMP JUMPDEST JUMPDEST PUSH0 PUSH2 0x32B4 DUP5 DUP3 DUP6 ADD PUSH2 0x2CAC JUMP JUMPDEST SWAP2 POP POP SWAP3 SWAP2 POP POP JUMP JUMPDEST PUSH0 PUSH1 0x40 DUP3 ADD SWAP1 POP PUSH2 0x32D0 PUSH0 DUP4 ADD DUP6 PUSH2 0x2E8D JUMP JUMPDEST PUSH2 0x32DD PUSH1 0x20 DUP4 ADD DUP5 PUSH2 0x2D0D JUMP JUMPDEST SWAP4 SWAP3 POP POP POP JUMP JUMPDEST PUSH0 DUP1 PUSH0 DUP1 PUSH1 0x80 DUP6 DUP8 SUB SLT ISZERO PUSH2 0x32FC JUMPI PUSH2 0x32FB PUSH2 0x2B46 JUMP JUMPDEST JUMPDEST PUSH0 PUSH2 0x3309 DUP8 DUP3 DUP9 ADD PUSH2 0x2CAC JUMP JUMPDEST SWAP5 POP POP PUSH1 0x20 PUSH2 0x331A DUP8 DUP3 DUP9 ADD PUSH2 0x2B6D JUMP JUMPDEST SWAP4 POP POP PUSH1 0x40 PUSH2 0x332B DUP8 DUP3 DUP9 ADD PUSH2 0x2B6D JUMP JUMPDEST SWAP3 POP POP PUSH1 0x60 PUSH2 0x333C DUP8 DUP3 DUP9 ADD PUSH2 0x2CAC JUMP JUMPDEST SWAP2 POP POP SWAP3 SWAP6 SWAP2 SWAP5 POP SWAP3 POP JUMP JUMPDEST PUSH32 0x4E487B7100000000000000000000000000000000000000000000000000000000 PUSH0 MSTORE PUSH1 0x12 PUSH1 0x4 MSTORE PUSH1 0x24 PUSH0 REVERT JUMPDEST PUSH32 0x4E487B7100000000000000000000000000000000000000000000000000000000 PUSH0 MSTORE PUSH1 0x11 PUSH1 0x4 MSTORE PUSH1 0x24 PUSH0 REVERT JUMPDEST PUSH0 PUSH2 0x33AC DUP3 PUSH2 0x2B4E JUMP JUMPDEST SWAP2 POP PUSH2 0x33B7 DUP4 PUSH2 0x2B4E JUMP JUMPDEST SWAP3 POP DUP3 PUSH2 0x33C7 JUMPI PUSH2 0x33C6 PUSH2 0x3348 JUMP JUMPDEST JUMPDEST DUP3 DUP3 DIV SWAP1 POP SWAP3 SWAP2 POP POP JUMP JUMPDEST PUSH32 0x4E487B7100000000000000000000000000000000000000000000000000000000 PUSH0 MSTORE PUSH1 0x22 PUSH1 0x4 MSTORE PUSH1 0x24 PUSH0 REVERT JUMPDEST PUSH0 PUSH1 0x2 DUP3 DIV SWAP1 POP PUSH1 0x1 DUP3 AND DUP1 PUSH2 0x3416 JUMPI PUSH1 0x7F DUP3 AND SWAP2 POP JUMPDEST PUSH1 0x20 DUP3 LT DUP2 SUB PUSH2 0x3429 JUMPI PUSH2 0x3428 PUSH2 0x33D2 JUMP JUMPDEST JUMPDEST POP SWAP2 SWAP1 POP JUMP JUMPDEST PUSH0 DUP2 SWAP1 POP DUP2 PUSH0 MSTORE PUSH1 0x20 PUSH0 KECCAK256 SWAP1 POP SWAP2 SWAP1 POP JUMP JUMPDEST PUSH0 PUSH1 0x20 PUSH1 0x1F DUP4 ADD DIV SWAP1 POP SWAP2 SWAP1 POP JUMP JUMPDEST PUSH0 DUP3 DUP3 SHL SWAP1 POP SWAP3 SWAP2 POP POP JUMP JUMPDEST PUSH0 PUSH1 0x8 DUP4 MUL PUSH2 0x348B PUSH32 0xFFFFFFFFFFFFFFFFFFFFFFFFFFFFFFFFFFFFFFFFFFFFFFFFFFFFFFFFFFFFFFFF DUP3 PUSH2 0x3450 JUMP JUMPDEST PUSH2 0x3495 DUP7 DUP4 PUSH2 0x3450 JUMP JUMPDEST SWAP6 POP DUP1 NOT DUP5 AND SWAP4 POP DUP1 DUP7 AND DUP5 OR SWAP3 POP POP POP SWAP4 SWAP3 POP POP POP JUMP JUMPDEST PUSH0 DUP2 SWAP1 POP SWAP2 SWAP1 POP JUMP JUMPDEST PUSH0 PUSH2 0x34D0 PUSH2 0x34CB PUSH2 0x34C6 DUP5 PUSH2 0x2B4E JUMP JUMPDEST PUSH2 0x34AD JUMP JUMPDEST PUSH2 0x2B4E JUMP JUMPDEST SWAP1 POP SWAP2 SWAP1 POP JUMP JUMPDEST PUSH0 DUP2 SWAP1 POP SWAP2 SWAP1 POP JUMP JUMPDEST PUSH2 0x34E9 DUP4 PUSH2 0x34B6 JUMP JUMPDEST PUSH2 0x34FD PUSH2 0x34F5 DUP3 PUSH2 0x34D7 JUMP JUMPDEST DUP5 DUP5 SLOAD PUSH2 0x345C JUMP JUMPDEST DUP3 SSTORE POP POP POP POP JUMP JUMPDEST PUSH0 SWAP1 JUMP JUMPDEST PUSH2 0x3511 PUSH2 0x3505 JUMP JUMPDEST PUSH2 0x351C DUP2 DUP5 DUP5 PUSH2 0x34E0 JUMP JUMPDEST POP POP POP JUMP JUMPDEST JUMPDEST DUP2 DUP2 LT ISZERO PUSH2 0x353F JUMPI PUSH2 0x3534 PUSH0 DUP3 PUSH2 0x3509 JUMP JUMPDEST PUSH1 0x1 DUP2 ADD SWAP1 POP PUSH2 0x3522 JUMP JUMPDEST POP POP JUMP JUMPDEST PUSH1 0x1F DUP3 GT ISZERO PUSH2 0x3584 JUMPI PUSH2 0x3555 DUP2 PUSH2 0x342F JUMP JUMPDEST PUSH2 0x355E DUP5 PUSH2 0x3441 JUMP JUMPDEST DUP2 ADD PUSH1 0x20 DUP6 LT ISZERO PUSH2 0x356D JUMPI DUP2 SWAP1 POP JUMPDEST PUSH2 0x3581 PUSH2 0x3579 DUP6 PUSH2 0x3441 JUMP JUMPDEST DUP4 ADD DUP3 PUSH2 0x3521 JUMP JUMPDEST POP POP JUMPDEST POP POP POP JUMP JUMPDEST PUSH0 DUP3 DUP3 SHR SWAP1 POP SWAP3 SWAP2 POP POP JUMP JUMPDEST PUSH0 PUSH2 0x35A4 PUSH0 NOT DUP5 PUSH1 0x8 MUL PUSH2 0x3589 JUMP JUMPDEST NOT DUP1 DUP4 AND SWAP2 POP POP SWAP3 SWAP2 POP POP JUMP JUMPDEST PUSH0 PUSH2 0x35BC DUP4 DUP4 PUSH2 0x3595 JUMP JUMPDEST SWAP2 POP DUP3 PUSH1 0x2 MUL DUP3 OR SWAP1 POP SWAP3 SWAP2 POP POP JUMP JUMPDEST PUSH2 0x35D5 DUP3 PUSH2 0x2D1C JUMP JUMPDEST PUSH8 0xFFFFFFFFFFFFFFFF DUP2 GT ISZERO PUSH2 0x35EE JUMPI PUSH2 0x35ED PUSH2 0x2F15 JUMP JUMPDEST JUMPDEST PUSH2 0x35F8 DUP3 SLOAD PUSH2 0x33FF JUMP JUMPDEST PUSH2 0x3603 DUP3 DUP3 DUP6 PUSH2 0x3543 JUMP JUMPDEST PUSH0 PUSH1 0x20 SWAP1 POP PUSH1 0x1F DUP4 GT PUSH1 0x1 DUP2 EQ PUSH2 0x3634 JUMPI PUSH0 DUP5 ISZERO PUSH2 0x3622 JUMPI DUP3 DUP8 ADD MLOAD SWAP1 POP JUMPDEST PUSH2 0x362C DUP6 DUP3 PUSH2 0x35B1 JUMP JUMPDEST DUP7 SSTORE POP PUSH2 0x3693 JUMP JUMPDEST PUSH1 0x1F NOT DUP5 AND PUSH2 0x3642 DUP7 PUSH2 0x342F JUMP JUMPDEST PUSH0 JUMPDEST DUP3 DUP2 LT ISZERO PUSH2 0x3669 JUMPI DUP5 DUP10 ADD MLOAD DUP3 SSTORE PUSH1 0x1 DUP3 ADD SWAP2 POP PUSH1 0x20 DUP6 ADD SWAP5 POP PUSH1 0x20 DUP2 ADD SWAP1 POP PUSH2 0x3644 JUMP JUMPDEST DUP7 DUP4 LT ISZERO PUSH2 0x3686 JUMPI DUP5 DUP10 ADD MLOAD PUSH2 0x3682 PUSH1 0x1F DUP10 AND DUP3 PUSH2 0x3595 JUMP JUMPDEST DUP4 SSTORE POP JUMPDEST PUSH1 0x1 PUSH1 0x2 DUP9 MUL ADD DUP9 SSTORE POP POP POP JUMPDEST POP POP POP POP POP POP JUMP JUMPDEST PUSH32 0x4E487B7100000000000000000000000000000000000000000000000000000000 PUSH0 MSTORE PUSH1 0x32 PUSH1 0x4 MSTORE PUSH1 0x24 PUSH0 REVERT JUMPDEST PUSH0 PUSH2 0x36D2 DUP3 PUSH2 0x2B4E JUMP JUMPDEST SWAP2 POP PUSH2 0x36DD DUP4 PUSH2 0x2B4E JUMP JUMPDEST SWAP3 POP DUP3 DUP3 MUL PUSH2 0x36EB DUP2 PUSH2 0x2B4E JUMP JUMPDEST SWAP2 POP DUP3 DUP3 DIV DUP5 EQ DUP4 ISZERO OR PUSH2 0x3702 JUMPI PUSH2 0x3701 PUSH2 0x3375 JUMP JUMPDEST JUMPDEST POP SWAP3 SWAP2 POP POP JUMP JUMPDEST PUSH0 PUSH2 0x3713 DUP3 PUSH2 0x2B4E JUMP JUMPDEST SWAP2 POP PUSH2 0x371E DUP4 PUSH2 0x2B4E JUMP JUMPDEST SWAP3 POP DUP3 DUP3 ADD SWAP1 POP DUP1 DUP3 GT ISZERO PUSH2 0x3736 JUMPI PUSH2 0x3735 PUSH2 0x3375 JUMP JUMPDEST JUMPDEST SWAP3 SWAP2 POP POP JUMP JUMPDEST PUSH0 PUSH2 0x3746 DUP3 PUSH2 0x2B4E JUMP JUMPDEST SWAP2 POP PUSH2 0x3751 DUP4 PUSH2 0x2B4E JUMP JUMPDEST SWAP3 POP DUP3 DUP3 SUB SWAP1 POP DUP2 DUP2 GT ISZERO PUSH2 0x3769 JUMPI PUSH2 0x3768 PUSH2 0x3375 JUMP JUMPDEST JUMPDEST SWAP3 SWAP2 POP POP JUMP JUMPDEST PUSH0 PUSH1 0xFF DUP3 AND SWAP1 POP SWAP2 SWAP1 POP JUMP JUMPDEST PUSH0 PUSH2 0x3785 DUP3 PUSH2 0x376F JUMP JUMPDEST SWAP2 POP PUSH2 0x3790 DUP4 PUSH2 0x376F JUMP JUMPDEST SWAP3 POP DUP3 DUP3 SUB SWAP1 POP PUSH1 0xFF DUP2 GT ISZERO PUSH2 0x37A9 JUMPI PUSH2 0x37A8 PUSH2 0x3375 JUMP JUMPDEST JUMPDEST SWAP3 SWAP2 POP POP JUMP JUMPDEST PUSH0 PUSH2 0x37B9 DUP3 PUSH2 0x2B4E JUMP JUMPDEST SWAP2 POP PUSH32 0xFFFFFFFFFFFFFFFFFFFFFFFFFFFFFFFFFFFFFFFFFFFFFFFFFFFFFFFFFFFFFFFF DUP3 SUB PUSH2 0x37EB JUMPI PUSH2 0x37EA PUSH2 0x3375 JUMP JUMPDEST JUMPDEST PUSH1 0x1 DUP3 ADD SWAP1 POP SWAP2 SWAP1 POP JUMP JUMPDEST PUSH32 0x507572636861736520616D6F756E74206D757374206265206772656174657220 PUSH0 DUP3 ADD MSTORE PUSH32 0x7468616E20300000000000000000000000000000000000000000000000000000 PUSH1 0x20 DUP3 ADD MSTORE POP JUMP JUMPDEST PUSH0 PUSH2 0x3850 PUSH1 0x26 DUP4 PUSH2 0x2D26 JUMP JUMPDEST SWAP2 POP PUSH2 0x385B DUP3 PUSH2 0x37F6 JUMP JUMPDEST PUSH1 0x40 DUP3 ADD SWAP1 POP SWAP2 SWAP1 POP JUMP JUMPDEST PUSH0 PUSH1 0x20 DUP3 ADD SWAP1 POP DUP2 DUP2 SUB PUSH0 DUP4 ADD MSTORE PUSH2 0x387D DUP2 PUSH2 0x3844 JUMP JUMPDEST SWAP1 POP SWAP2 SWAP1 POP JUMP JUMPDEST PUSH32 0x496E76616C69642070726F647563742049440000000000000000000000000000 PUSH0 DUP3 ADD MSTORE POP JUMP JUMPDEST PUSH0 PUSH2 0x38B8 PUSH1 0x12 DUP4 PUSH2 0x2D26 JUMP JUMPDEST SWAP2 POP PUSH2 0x38C3 DUP3 PUSH2 0x3884 JUMP JUMPDEST PUSH1 0x20 DUP3 ADD SWAP1 POP SWAP2 SWAP1 POP JUMP JUMPDEST PUSH0 PUSH1 0x20 DUP3 ADD SWAP1 POP DUP2 DUP2 SUB PUSH0 DUP4 ADD MSTORE PUSH2 0x38E5 DUP2 PUSH2 0x38AC JUMP JUMPDEST SWAP1 POP SWAP2 SWAP1 POP JUMP JUMPDEST PUSH32 0x4141000000000000000000000000000000000000000000000000000000000000 DUP2 MSTORE POP JUMP JUMPDEST PUSH0 DUP2 SWAP1 POP SWAP3 SWAP2 POP POP JUMP JUMPDEST PUSH0 PUSH2 0x3926 DUP3 PUSH2 0x2D1C JUMP JUMPDEST PUSH2 0x3930 DUP2 DUP6 PUSH2 0x3912 JUMP JUMPDEST SWAP4 POP PUSH2 0x3940 DUP2 DUP6 PUSH1 0x20 DUP7 ADD PUSH2 0x2D36 JUMP JUMPDEST DUP1 DUP5 ADD SWAP2 POP POP SWAP3 SWAP2 POP POP JUMP JUMPDEST PUSH32 0x4242000000000000000000000000000000000000000000000000000000000000 DUP2 MSTORE POP JUMP JUMPDEST PUSH0 PUSH2 0x397C DUP3 PUSH2 0x38EC JUMP JUMPDEST PUSH1 0x2 DUP3 ADD SWAP2 POP PUSH2 0x398C DUP3 DUP5 PUSH2 0x391C JUMP JUMPDEST SWAP2 POP PUSH2 0x3997 DUP3 PUSH2 0x394C JUMP JUMPDEST PUSH1 0x2 DUP3 ADD SWAP2 POP DUP2 SWAP1 POP SWAP3 SWAP2 POP POP JUMP JUMPDEST PUSH0 DUP2 SWAP1 POP SWAP2 SWAP1 POP JUMP JUMPDEST PUSH2 0x39C0 PUSH2 0x39BB DUP3 PUSH2 0x2B4E JUMP JUMPDEST PUSH2 0x39A6 JUMP JUMPDEST DUP3 MSTORE POP POP JUMP JUMPDEST PUSH0 DUP2 PUSH1 0x60 SHL SWAP1 POP SWAP2 SWAP1 POP JUMP JUMPDEST PUSH0 PUSH2 0x39DC DUP3 PUSH2 0x39C6 JUMP JUMPDEST SWAP1 POP SWAP2 SWAP1 POP JUMP JUMPDEST PUSH0 PUSH2 0x39ED DUP3 PUSH2 0x39D2 JUMP JUMPDEST SWAP1 POP SWAP2 SWAP1 POP JUMP JUMPDEST PUSH2 0x3A05 PUSH2 0x3A00 DUP3 PUSH2 0x2C85 JUMP JUMPDEST PUSH2 0x39E3 JUMP JUMPDEST DUP3 MSTORE POP POP JUMP JUMPDEST PUSH0 PUSH2 0x3A16 DUP3 DUP7 PUSH2 0x39AF JUMP JUMPDEST PUSH1 0x20 DUP3 ADD SWAP2 POP PUSH2 0x3A26 DUP3 DUP6 PUSH2 0x39F4 JUMP JUMPDEST PUSH1 0x14 DUP3 ADD SWAP2 POP PUSH2 0x3A36 DUP3 DUP5 PUSH2 0x39AF JUMP JUMPDEST PUSH1 0x20 DUP3 ADD SWAP2 POP DUP2 SWAP1 POP SWAP5 SWAP4 POP POP POP POP JUMP JUMPDEST PUSH0 PUSH2 0x3A51 DUP3 PUSH2 0x2B4E JUMP JUMPDEST SWAP2 POP PUSH2 0x3A5C DUP4 PUSH2 0x2B4E JUMP JUMPDEST SWAP3 POP DUP3 PUSH2 0x3A6C JUMPI PUSH2 0x3A6B PUSH2 0x3348 JUMP JUMPDEST JUMPDEST DUP3 DUP3 MOD SWAP1 POP SWAP3 SWAP2 POP POP JUMP JUMPDEST PUSH32 0xD092D0B0D188D0B020D180D0BED0BBD18C20D0BDD0B520D0BFD0BED0B7D0B2D0 PUSH0 DUP3 ADD MSTORE PUSH32 0xBED0BBD18FD0B5D18220D18DD182D0BE20D0B8D0B7D0BCD0B5D0BDD18FD182D1 PUSH1 0x20 DUP3 ADD MSTORE PUSH32 0x8C00000000000000000000000000000000000000000000000000000000000000 PUSH1 0x40 DUP3 ADD MSTORE POP JUMP JUMPDEST PUSH0 PUSH2 0x3AF7 PUSH1 0x41 DUP4 PUSH2 0x2D26 JUMP JUMPDEST SWAP2 POP PUSH2 0x3B02 DUP3 PUSH2 0x3A77 JUMP JUMPDEST PUSH1 0x60 DUP3 ADD SWAP1 POP SWAP2 SWAP1 POP JUMP JUMPDEST PUSH0 PUSH1 0x20 DUP3 ADD SWAP1 POP DUP2 DUP2 SUB PUSH0 DUP4 ADD MSTORE PUSH2 0x3B24 DUP2 PUSH2 0x3AEB JUMP JUMPDEST SWAP1 POP SWAP2 SWAP1 POP JUMP JUMPDEST PUSH32 0xD09CD0B0D0B3D0B0D0B7D0B8D0BD20D0BDD0B520D181D0BED0BED182D0B2D0B5 PUSH0 DUP3 ADD MSTORE PUSH32 0xD182D181D0B2D183D0B5D18220D0BED182D0BFD180D0B0D0B2D0B8D182D0B5D0 PUSH1 0x20 DUP3 ADD MSTORE PUSH32 0xBBD18E0000000000000000000000000000000000000000000000000000000000 PUSH1 0x40 DUP3 ADD MSTORE POP JUMP JUMPDEST PUSH0 PUSH2 0x3BAB PUSH1 0x43 DUP4 PUSH2 0x2D26 JUMP JUMPDEST SWAP2 POP PUSH2 0x3BB6 DUP3 PUSH2 0x3B2B JUMP JUMPDEST PUSH1 0x60 DUP3 ADD SWAP1 POP SWAP2 SWAP1 POP JUMP JUMPDEST PUSH0 PUSH1 0x20 DUP3 ADD SWAP1 POP DUP2 DUP2 SUB PUSH0 DUP4 ADD MSTORE PUSH2 0x3BD8 DUP2 PUSH2 0x3B9F JUMP JUMPDEST SWAP1 POP SWAP2 SWAP1 POP JUMP JUMPDEST PUSH32 0x4E6F7420656E6F7567682073746F636B20617661696C61626C65000000000000 PUSH0 DUP3 ADD MSTORE POP JUMP JUMPDEST PUSH0 PUSH2 0x3C13 PUSH1 0x1A DUP4 PUSH2 0x2D26 JUMP JUMPDEST SWAP2 POP PUSH2 0x3C1E DUP3 PUSH2 0x3BDF JUMP JUMPDEST PUSH1 0x20 DUP3 ADD SWAP1 POP SWAP2 SWAP1 POP JUMP JUMPDEST PUSH0 PUSH1 0x20 DUP3 ADD SWAP1 POP DUP2 DUP2 SUB PUSH0 DUP4 ADD MSTORE PUSH2 0x3C40 DUP2 PUSH2 0x3C07 JUMP JUMPDEST SWAP1 POP SWAP2 SWAP1 POP JUMP JUMPDEST PUSH0 PUSH2 0x3C52 DUP3 DUP5 PUSH2 0x391C JUMP JUMPDEST SWAP2 POP DUP2 SWAP1 POP SWAP3 SWAP2 POP POP JUMP JUMPDEST PUSH32 0x496E73756666696369656E742066756E64732073656E74000000000000000000 PUSH0 DUP3 ADD MSTORE POP JUMP JUMPDEST PUSH0 PUSH2 0x3C91 PUSH1 0x17 DUP4 PUSH2 0x2D26 JUMP JUMPDEST SWAP2 POP PUSH2 0x3C9C DUP3 PUSH2 0x3C5D JUMP JUMPDEST PUSH1 0x20 DUP3 ADD SWAP1 POP SWAP2 SWAP1 POP JUMP JUMPDEST PUSH0 PUSH1 0x20 DUP3 ADD SWAP1 POP DUP2 DUP2 SUB PUSH0 DUP4 ADD MSTORE PUSH2 0x3CBE DUP2 PUSH2 0x3C85 JUMP JUMPDEST SWAP1 POP SWAP2 SWAP1 POP JUMP JUMPDEST PUSH0 DUP2 SWAP1 POP SWAP3 SWAP2 POP POP JUMP JUMPDEST PUSH0 DUP2 SWAP1 POP DUP2 PUSH0 MSTORE PUSH1 0x20 PUSH0 KECCAK256 SWAP1 POP SWAP2 SWAP1 POP JUMP JUMPDEST PUSH0 DUP2 SLOAD PUSH2 0x3CED DUP2 PUSH2 0x33FF JUMP JUMPDEST PUSH2 0x3CF7 DUP2 DUP7 PUSH2 0x3CC5 JUMP JUMPDEST SWAP5 POP PUSH1 0x1 DUP3 AND PUSH0 DUP2 EQ PUSH2 0x3D11 JUMPI PUSH1 0x1 DUP2 EQ PUSH2 0x3D26 JUMPI PUSH2 0x3D58 JUMP JUMPDEST PUSH1 0xFF NOT DUP4 AND DUP7 MSTORE DUP2 ISZERO ISZERO DUP3 MUL DUP7 ADD SWAP4 POP PUSH2 0x3D58 JUMP JUMPDEST PUSH2 0x3D2F DUP6 PUSH2 0x3CCF JUMP JUMPDEST PUSH0 JUMPDEST DUP4 DUP2 LT ISZERO PUSH2 0x3D50 JUMPI DUP2 SLOAD DUP2 DUP10 ADD MSTORE PUSH1 0x1 DUP3 ADD SWAP2 POP PUSH1 0x20 DUP2 ADD SWAP1 POP PUSH2 0x3D31 JUMP JUMPDEST DUP4 DUP9 ADD SWAP6 POP POP POP JUMPDEST POP POP POP SWAP3 SWAP2 POP POP JUMP JUMPDEST PUSH0 PUSH2 0x3D6C DUP3 DUP5 PUSH2 0x3CE1 JUMP JUMPDEST SWAP2 POP DUP2 SWAP1 POP SWAP3 SWAP2 POP POP JUMP INVALID LOG2 PUSH5 0x6970667358 0x22 SLT KECCAK256 0xC0 0xE 0xEA AND 0xC 0xCE PUSH31 0xF819D370507F85852B09B6AA1430E0258B16F879304D5AF97B64736F6C6343 STOP ADDMOD ISZERO STOP CALLER "
				},
				"gasEstimates": {
					"creation": {
						"codeDepositCost": "3157800",
						"executionCost": "27754",
						"totalCost": "3185554"
					},
					"external": {
						"addItemsMarket(uint256,uint256,string,uint256)": "infinite",
						"addItemsSupplier(uint256,uint256,string,uint256,address)": "infinite",
						"approveChangeRole(uint256)": "35793",
						"changeRole(uint8)": "73466",
						"genRef(string,address)": "infinite",
						"makeDelivery(address,uint256,uint256)": "infinite",
						"makeMarket()": "29755",
						"makeSupplier()": "29734",
						"makeUser()": "29709",
						"marketProducts(address,uint256)": "infinite",
						"owner()": "2597",
						"purchase(address,uint256,uint256,string)": "infinite",
						"randMod(uint256)": "infinite",
						"referrals(string)": "infinite",
						"refillStore(address,uint256,uint256,address)": "infinite",
						"refund(address,uint256)": "infinite",
						"supplierProducts(address,uint256)": "infinite",
						"tickets(uint256)": "7401",
						"toUpper(string)": "infinite",
						"userProducts(address,uint256)": "infinite",
						"users(address)": "5199",
						"withdrawBal(address)": "infinite"
					}
				},
				"methodIdentifiers": {
					"addItemsMarket(uint256,uint256,string,uint256)": "008de16a",
					"addItemsSupplier(uint256,uint256,string,uint256,address)": "861c2b6d",
					"approveChangeRole(uint256)": "6f764708",
					"changeRole(uint8)": "55dea0b3",
					"genRef(string,address)": "a1ba90b6",
					"makeDelivery(address,uint256,uint256)": "7555bf10",
					"makeMarket()": "66d0dc67",
					"makeSupplier()": "3dfe7dee",
					"makeUser()": "d18a524a",
					"marketProducts(address,uint256)": "4f424547",
					"owner()": "8da5cb5b",
					"purchase(address,uint256,uint256,string)": "9f1cd587",
					"randMod(uint256)": "805553e8",
					"referrals(string)": "d55768dd",
					"refillStore(address,uint256,uint256,address)": "fecd8f79",
					"refund(address,uint256)": "410085df",
					"supplierProducts(address,uint256)": "27b90b1b",
					"tickets(uint256)": "50b44712",
					"toUpper(string)": "62dd748c",
					"userProducts(address,uint256)": "3d527883",
					"users(address)": "a87430ba",
					"withdrawBal(address)": "f67a2ad1"
				}
			},
			"storageLayout": {
				"storage": [
					{
						"astId": 14,
						"contract": "contracts/Test.sol:MarketPlace",
						"label": "tickets",
						"offset": 0,
						"slot": "0",
						"type": "t_array(t_struct(Ticket)43_storage)dyn_storage"
					},
					{
						"astId": 16,
						"contract": "contracts/Test.sol:MarketPlace",
						"label": "owner",
						"offset": 0,
						"slot": "1",
						"type": "t_address"
					},
					{
						"astId": 65,
						"contract": "contracts/Test.sol:MarketPlace",
						"label": "users",
						"offset": 0,
						"slot": "2",
						"type": "t_mapping(t_address,t_struct(User)49_storage)"
					},
					{
						"astId": 71,
						"contract": "contracts/Test.sol:MarketPlace",
						"label": "userProducts",
						"offset": 0,
						"slot": "3",
						"type": "t_mapping(t_address,t_array(t_struct(Product)60_storage)dyn_storage)"
					},
					{
						"astId": 77,
						"contract": "contracts/Test.sol:MarketPlace",
						"label": "marketProducts",
						"offset": 0,
						"slot": "4",
						"type": "t_mapping(t_address,t_array(t_struct(Product)60_storage)dyn_storage)"
					},
					{
						"astId": 83,
						"contract": "contracts/Test.sol:MarketPlace",
						"label": "supplierProducts",
						"offset": 0,
						"slot": "5",
						"type": "t_mapping(t_address,t_array(t_struct(Product)60_storage)dyn_storage)"
					},
					{
						"astId": 87,
						"contract": "contracts/Test.sol:MarketPlace",
						"label": "referrals",
						"offset": 0,
						"slot": "6",
						"type": "t_mapping(t_string_memory_ptr,t_address)"
					},
					{
						"astId": 93,
						"contract": "contracts/Test.sol:MarketPlace",
						"label": "deliveryOrders",
						"offset": 0,
						"slot": "7",
						"type": "t_mapping(t_address,t_array(t_struct(DeliveryOrder)37_storage)dyn_storage)"
					}
				],
				"types": {
					"t_address": {
						"encoding": "inplace",
						"label": "address",
						"numberOfBytes": "20"
					},
					"t_array(t_struct(DeliveryOrder)37_storage)dyn_storage": {
						"base": "t_struct(DeliveryOrder)37_storage",
						"encoding": "dynamic_array",
						"label": "struct MarketPlace.DeliveryOrder[]",
						"numberOfBytes": "32"
					},
					"t_array(t_struct(Product)60_storage)dyn_storage": {
						"base": "t_struct(Product)60_storage",
						"encoding": "dynamic_array",
						"label": "struct MarketPlace.Product[]",
						"numberOfBytes": "32"
					},
					"t_array(t_struct(Ticket)43_storage)dyn_storage": {
						"base": "t_struct(Ticket)43_storage",
						"encoding": "dynamic_array",
						"label": "struct MarketPlace.Ticket[]",
						"numberOfBytes": "32"
					},
					"t_enum(Role)5": {
						"encoding": "inplace",
						"label": "enum MarketPlace.Role",
						"numberOfBytes": "1"
					},
					"t_enum(Status)10": {
						"encoding": "inplace",
						"label": "enum MarketPlace.Status",
						"numberOfBytes": "1"
					},
					"t_mapping(t_address,t_array(t_struct(DeliveryOrder)37_storage)dyn_storage)": {
						"encoding": "mapping",
						"key": "t_address",
						"label": "mapping(address => struct MarketPlace.DeliveryOrder[])",
						"numberOfBytes": "32",
						"value": "t_array(t_struct(DeliveryOrder)37_storage)dyn_storage"
					},
					"t_mapping(t_address,t_array(t_struct(Product)60_storage)dyn_storage)": {
						"encoding": "mapping",
						"key": "t_address",
						"label": "mapping(address => struct MarketPlace.Product[])",
						"numberOfBytes": "32",
						"value": "t_array(t_struct(Product)60_storage)dyn_storage"
					},
					"t_mapping(t_address,t_struct(User)49_storage)": {
						"encoding": "mapping",
						"key": "t_address",
						"label": "mapping(address => struct MarketPlace.User)",
						"numberOfBytes": "32",
						"value": "t_struct(User)49_storage"
					},
					"t_mapping(t_string_memory_ptr,t_address)": {
						"encoding": "mapping",
						"key": "t_string_memory_ptr",
						"label": "mapping(string => address)",
						"numberOfBytes": "32",
						"value": "t_address"
					},
					"t_string_memory_ptr": {
						"encoding": "bytes",
						"label": "string",
						"numberOfBytes": "32"
					},
					"t_string_storage": {
						"encoding": "bytes",
						"label": "string",
						"numberOfBytes": "32"
					},
					"t_struct(DeliveryOrder)37_storage": {
						"encoding": "inplace",
						"label": "struct MarketPlace.DeliveryOrder",
						"members": [
							{
								"astId": 27,
								"contract": "contracts/Test.sol:MarketPlace",
								"label": "userAddr",
								"offset": 0,
								"slot": "0",
								"type": "t_address"
							},
							{
								"astId": 30,
								"contract": "contracts/Test.sol:MarketPlace",
								"label": "status",
								"offset": 20,
								"slot": "0",
								"type": "t_enum(Status)10"
							},
							{
								"astId": 32,
								"contract": "contracts/Test.sol:MarketPlace",
								"label": "trackNumber",
								"offset": 0,
								"slot": "1",
								"type": "t_string_storage"
							},
							{
								"astId": 34,
								"contract": "contracts/Test.sol:MarketPlace",
								"label": "productId",
								"offset": 0,
								"slot": "2",
								"type": "t_uint256"
							},
							{
								"astId": 36,
								"contract": "contracts/Test.sol:MarketPlace",
								"label": "amount",
								"offset": 0,
								"slot": "3",
								"type": "t_uint256"
							}
						],
						"numberOfBytes": "128"
					},
					"t_struct(Product)60_storage": {
						"encoding": "inplace",
						"label": "struct MarketPlace.Product",
						"members": [
							{
								"astId": 51,
								"contract": "contracts/Test.sol:MarketPlace",
								"label": "userAddress",
								"offset": 0,
								"slot": "0",
								"type": "t_address"
							},
							{
								"astId": 53,
								"contract": "contracts/Test.sol:MarketPlace",
								"label": "inStock",
								"offset": 0,
								"slot": "1",
								"type": "t_uint256"
							},
							{
								"astId": 55,
								"contract": "contracts/Test.sol:MarketPlace",
								"label": "price",
								"offset": 0,
								"slot": "2",
								"type": "t_uint256"
							},
							{
								"astId": 57,
								"contract": "contracts/Test.sol:MarketPlace",
								"label": "name",
								"offset": 0,
								"slot": "3",
								"type": "t_string_storage"
							},
							{
								"astId": 59,
								"contract": "contracts/Test.sol:MarketPlace",
								"label": "expDate",
								"offset": 0,
								"slot": "4",
								"type": "t_uint256"
							}
						],
						"numberOfBytes": "160"
					},
					"t_struct(Ticket)43_storage": {
						"encoding": "inplace",
						"label": "struct MarketPlace.Ticket",
						"members": [
							{
								"astId": 39,
								"contract": "contracts/Test.sol:MarketPlace",
								"label": "userAddr",
								"offset": 0,
								"slot": "0",
								"type": "t_address"
							},
							{
								"astId": 42,
								"contract": "contracts/Test.sol:MarketPlace",
								"label": "role",
								"offset": 20,
								"slot": "0",
								"type": "t_enum(Role)5"
							}
						],
						"numberOfBytes": "32"
					},
					"t_struct(User)49_storage": {
						"encoding": "inplace",
						"label": "struct MarketPlace.User",
						"members": [
							{
								"astId": 46,
								"contract": "contracts/Test.sol:MarketPlace",
								"label": "role",
								"offset": 0,
								"slot": "0",
								"type": "t_enum(Role)5"
							},
							{
								"astId": 48,
								"contract": "contracts/Test.sol:MarketPlace",
								"label": "balance",
								"offset": 0,
								"slot": "1",
								"type": "t_uint256"
							}
						],
						"numberOfBytes": "64"
					},
					"t_uint256": {
						"encoding": "inplace",
						"label": "uint256",
						"numberOfBytes": "32"
					}
				}
			},
			"userdoc": {
				"kind": "user",
				"methods": {},
				"version": 1
			}
		}
	}
}