{
	"contracts/Test.sol": {
		"MarketPlace": {
			"abi": [
				{
					"inputs": [],
					"stateMutability": "nonpayable",
					"type": "constructor"
				},
				{
					"inputs": [
						{
							"internalType": "uint256",
							"name": "_inStock",
							"type": "uint256"
						},
						{
							"internalType": "uint256",
							"name": "_price",
							"type": "uint256"
						},
						{
							"internalType": "string",
							"name": "_name",
							"type": "string"
						},
						{
							"internalType": "uint256",
							"name": "_expDate",
							"type": "uint256"
						},
						{
							"internalType": "address",
							"name": "_addressSupp",
							"type": "address"
						}
					],
					"name": "addItemsSupplier",
					"outputs": [],
					"stateMutability": "nonpayable",
					"type": "function"
				},
				{
					"inputs": [
						{
							"internalType": "uint256",
							"name": "_idTicket",
							"type": "uint256"
						}
					],
					"name": "approveChangeRole",
					"outputs": [],
					"stateMutability": "nonpayable",
					"type": "function"
				},
				{
					"inputs": [
						{
							"internalType": "enum MarketPlace.Role",
							"name": "_role",
							"type": "uint8"
						}
					],
					"name": "changeRole",
					"outputs": [],
					"stateMutability": "nonpayable",
					"type": "function"
				},
				{
					"inputs": [
						{
							"internalType": "string",
							"name": "_nameRef",
							"type": "string"
						},
						{
							"internalType": "address",
							"name": "_user",
							"type": "address"
						}
					],
					"name": "genRef",
					"outputs": [],
					"stateMutability": "nonpayable",
					"type": "function"
				},
				{
					"inputs": [],
					"name": "makeMarket",
					"outputs": [],
					"stateMutability": "nonpayable",
					"type": "function"
				},
				{
					"inputs": [],
					"name": "makeSupplier",
					"outputs": [],
					"stateMutability": "nonpayable",
					"type": "function"
				},
				{
					"inputs": [],
					"name": "makeUser",
					"outputs": [],
					"stateMutability": "nonpayable",
					"type": "function"
				},
				{
					"inputs": [],
					"name": "owner",
					"outputs": [
						{
							"internalType": "address",
							"name": "",
							"type": "address"
						}
					],
					"stateMutability": "view",
					"type": "function"
				},
				{
					"inputs": [
						{
							"internalType": "address",
							"name": "",
							"type": "address"
						},
						{
							"internalType": "uint256",
							"name": "",
							"type": "uint256"
						}
					],
					"name": "productItems",
					"outputs": [
						{
							"internalType": "uint256",
							"name": "inStock",
							"type": "uint256"
						},
						{
							"internalType": "uint256",
							"name": "price",
							"type": "uint256"
						},
						{
							"internalType": "string",
							"name": "name",
							"type": "string"
						},
						{
							"internalType": "uint256",
							"name": "expDate",
							"type": "uint256"
						}
					],
					"stateMutability": "view",
					"type": "function"
				},
				{
					"inputs": [
						{
							"internalType": "address",
							"name": "_shop",
							"type": "address"
						},
						{
							"internalType": "uint256",
							"name": "_amount",
							"type": "uint256"
						},
						{
							"internalType": "uint256",
							"name": "_id",
							"type": "uint256"
						},
						{
							"internalType": "string",
							"name": "_ref",
							"type": "string"
						}
					],
					"name": "purchase",
					"outputs": [],
					"stateMutability": "payable",
					"type": "function"
				},
				{
					"inputs": [
						{
							"internalType": "uint256",
							"name": "_modulus",
							"type": "uint256"
						}
					],
					"name": "randMod",
					"outputs": [
						{
							"internalType": "uint256",
							"name": "",
							"type": "uint256"
						}
					],
					"stateMutability": "view",
					"type": "function"
				},
				{
					"inputs": [
						{
							"internalType": "string",
							"name": "",
							"type": "string"
						}
					],
					"name": "referrals",
					"outputs": [
						{
							"internalType": "address",
							"name": "",
							"type": "address"
						}
					],
					"stateMutability": "view",
					"type": "function"
				},
				{
					"inputs": [
						{
							"internalType": "address",
							"name": "_shop",
							"type": "address"
						},
						{
							"internalType": "uint256",
							"name": "_productId",
							"type": "uint256"
						},
						{
							"internalType": "uint256",
							"name": "_amount",
							"type": "uint256"
						},
						{
							"internalType": "address",
							"name": "_supplier",
							"type": "address"
						}
					],
					"name": "refillStore",
					"outputs": [],
					"stateMutability": "payable",
					"type": "function"
				},
				{
					"inputs": [
						{
							"internalType": "address",
							"name": "_shop",
							"type": "address"
						},
						{
							"internalType": "uint256",
							"name": "_productId",
							"type": "uint256"
						}
					],
					"name": "refund",
					"outputs": [],
					"stateMutability": "nonpayable",
					"type": "function"
				},
				{
					"inputs": [
						{
							"internalType": "uint256",
							"name": "",
							"type": "uint256"
						}
					],
					"name": "tickets",
					"outputs": [
						{
							"internalType": "address",
							"name": "userAddr",
							"type": "address"
						},
						{
							"internalType": "enum MarketPlace.Role",
							"name": "role",
							"type": "uint8"
						}
					],
					"stateMutability": "view",
					"type": "function"
				},
				{
					"inputs": [
						{
							"internalType": "address",
							"name": "",
							"type": "address"
						},
						{
							"internalType": "uint256",
							"name": "",
							"type": "uint256"
						}
					],
					"name": "userProducts",
					"outputs": [
						{
							"internalType": "uint256",
							"name": "inStock",
							"type": "uint256"
						},
						{
							"internalType": "uint256",
							"name": "price",
							"type": "uint256"
						},
						{
							"internalType": "string",
							"name": "name",
							"type": "string"
						},
						{
							"internalType": "uint256",
							"name": "expDate",
							"type": "uint256"
						}
					],
					"stateMutability": "view",
					"type": "function"
				},
				{
					"inputs": [
						{
							"internalType": "address",
							"name": "",
							"type": "address"
						}
					],
					"name": "users",
					"outputs": [
						{
							"internalType": "enum MarketPlace.Role",
							"name": "role",
							"type": "uint8"
						},
						{
							"internalType": "uint256",
							"name": "balance",
							"type": "uint256"
						}
					],
					"stateMutability": "view",
					"type": "function"
				},
				{
					"inputs": [
						{
							"internalType": "address",
							"name": "_shop",
							"type": "address"
						}
					],
					"name": "withdrawBal",
					"outputs": [],
					"stateMutability": "nonpayable",
					"type": "function"
				}
			],
			"devdoc": {
				"kind": "dev",
				"methods": {},
				"version": 1
			},
			"evm": {
				"assembly": "    /* \"contracts/Test.sol\":60:6353  contract MarketPlace {... */\n  mstore(0x40, 0x80)\n    /* \"contracts/Test.sol\":190:239  constructor() {... */\n  callvalue\n  dup1\n  iszero\n  tag_1\n  jumpi\n  0x00\n  dup1\n  revert\ntag_1:\n  pop\n    /* \"contracts/Test.sol\":222:232  msg.sender */\n  caller\n    /* \"contracts/Test.sol\":214:219  owner */\n  0x01\n  0x00\n    /* \"contracts/Test.sol\":214:232  owner = msg.sender */\n  0x0100\n  exp\n  dup2\n  sload\n  dup2\n  0xffffffffffffffffffffffffffffffffffffffff\n  mul\n  not\n  and\n  swap1\n  dup4\n  0xffffffffffffffffffffffffffffffffffffffff\n  and\n  mul\n  or\n  swap1\n  sstore\n  pop\n    /* \"contracts/Test.sol\":60:6353  contract MarketPlace {... */\n  dataSize(sub_0)\n  dup1\n  dataOffset(sub_0)\n  0x00\n  codecopy\n  0x00\n  return\nstop\n\nsub_0: assembly {\n        /* \"contracts/Test.sol\":60:6353  contract MarketPlace {... */\n      mstore(0x40, 0x80)\n      jumpi(tag_1, lt(calldatasize, 0x04))\n      shr(0xe0, calldataload(0x00))\n      dup1\n      0x861c2b6d\n      gt\n      tag_20\n      jumpi\n      dup1\n      0xa87430ba\n      gt\n      tag_21\n      jumpi\n      dup1\n      0xa87430ba\n      eq\n      tag_15\n      jumpi\n      dup1\n      0xd18a524a\n      eq\n      tag_16\n      jumpi\n      dup1\n      0xd55768dd\n      eq\n      tag_17\n      jumpi\n      dup1\n      0xf67a2ad1\n      eq\n      tag_18\n      jumpi\n      dup1\n      0xfecd8f79\n      eq\n      tag_19\n      jumpi\n      jump(tag_1)\n    tag_21:\n      dup1\n      0x861c2b6d\n      eq\n      tag_11\n      jumpi\n      dup1\n      0x8da5cb5b\n      eq\n      tag_12\n      jumpi\n      dup1\n      0x9f1cd587\n      eq\n      tag_13\n      jumpi\n      dup1\n      0xa1ba90b6\n      eq\n      tag_14\n      jumpi\n      jump(tag_1)\n    tag_20:\n      dup1\n      0x50b44712\n      gt\n      tag_22\n      jumpi\n      dup1\n      0x50b44712\n      eq\n      tag_6\n      jumpi\n      dup1\n      0x55dea0b3\n      eq\n      tag_7\n      jumpi\n      dup1\n      0x66d0dc67\n      eq\n      tag_8\n      jumpi\n      dup1\n      0x6f764708\n      eq\n      tag_9\n      jumpi\n      dup1\n      0x805553e8\n      eq\n      tag_10\n      jumpi\n      jump(tag_1)\n    tag_22:\n      dup1\n      0x0e345d83\n      eq\n      tag_2\n      jumpi\n      dup1\n      0x3d527883\n      eq\n      tag_3\n      jumpi\n      dup1\n      0x3dfe7dee\n      eq\n      tag_4\n      jumpi\n      dup1\n      0x410085df\n      eq\n      tag_5\n      jumpi\n    tag_1:\n      0x00\n      dup1\n      revert\n        /* \"contracts/Test.sol\":644:693  mapping(address => Product[]) public productItems */\n    tag_2:\n      callvalue\n      dup1\n      iszero\n      tag_23\n      jumpi\n      0x00\n      dup1\n      revert\n    tag_23:\n      pop\n      tag_24\n      0x04\n      dup1\n      calldatasize\n      sub\n      dup2\n      add\n      swap1\n      tag_25\n      swap2\n      swap1\n      tag_26\n      jump\t// in\n    tag_25:\n      tag_27\n      jump\t// in\n    tag_24:\n      mload(0x40)\n      tag_28\n      swap5\n      swap4\n      swap3\n      swap2\n      swap1\n      tag_29\n      jump\t// in\n    tag_28:\n      mload(0x40)\n      dup1\n      swap2\n      sub\n      swap1\n      return\n        /* \"contracts/Test.sol\":540:589  mapping(address => Product[]) public userProducts */\n    tag_3:\n      callvalue\n      dup1\n      iszero\n      tag_30\n      jumpi\n      0x00\n      dup1\n      revert\n    tag_30:\n      pop\n      tag_31\n      0x04\n      dup1\n      calldatasize\n      sub\n      dup2\n      add\n      swap1\n      tag_32\n      swap2\n      swap1\n      tag_26\n      jump\t// in\n    tag_32:\n      tag_33\n      jump\t// in\n    tag_31:\n      mload(0x40)\n      tag_34\n      swap5\n      swap4\n      swap3\n      swap2\n      swap1\n      tag_29\n      jump\t// in\n    tag_34:\n      mload(0x40)\n      dup1\n      swap2\n      sub\n      swap1\n      return\n        /* \"contracts/Test.sol\":1556:1646  function makeSupplier() public {... */\n    tag_4:\n      callvalue\n      dup1\n      iszero\n      tag_35\n      jumpi\n      0x00\n      dup1\n      revert\n    tag_35:\n      pop\n      tag_36\n      tag_37\n      jump\t// in\n    tag_36:\n      stop\n        /* \"contracts/Test.sol\":4125:4662  function refund(address _shop, uint _productId) public {... */\n    tag_5:\n      callvalue\n      dup1\n      iszero\n      tag_38\n      jumpi\n      0x00\n      dup1\n      revert\n    tag_38:\n      pop\n      tag_39\n      0x04\n      dup1\n      calldatasize\n      sub\n      dup2\n      add\n      swap1\n      tag_40\n      swap2\n      swap1\n      tag_26\n      jump\t// in\n    tag_40:\n      tag_41\n      jump\t// in\n    tag_39:\n      stop\n        /* \"contracts/Test.sol\":134:157  Ticket[] public tickets */\n    tag_6:\n      callvalue\n      dup1\n      iszero\n      tag_42\n      jumpi\n      0x00\n      dup1\n      revert\n    tag_42:\n      pop\n      tag_43\n      0x04\n      dup1\n      calldatasize\n      sub\n      dup2\n      add\n      swap1\n      tag_44\n      swap2\n      swap1\n      tag_45\n      jump\t// in\n    tag_44:\n      tag_46\n      jump\t// in\n    tag_43:\n      mload(0x40)\n      tag_47\n      swap3\n      swap2\n      swap1\n      tag_48\n      jump\t// in\n    tag_47:\n      mload(0x40)\n      dup1\n      swap2\n      sub\n      swap1\n      return\n        /* \"contracts/Test.sol\":2053:2148  function changeRole(Role _role) public {... */\n    tag_7:\n      callvalue\n      dup1\n      iszero\n      tag_49\n      jumpi\n      0x00\n      dup1\n      revert\n    tag_49:\n      pop\n      tag_50\n      0x04\n      dup1\n      calldatasize\n      sub\n      dup2\n      add\n      swap1\n      tag_51\n      swap2\n      swap1\n      tag_52\n      jump\t// in\n    tag_51:\n      tag_53\n      jump\t// in\n    tag_50:\n      stop\n        /* \"contracts/Test.sol\":1652:1739  function makeMarket() public  {... */\n    tag_8:\n      callvalue\n      dup1\n      iszero\n      tag_54\n      jumpi\n      0x00\n      dup1\n      revert\n    tag_54:\n      pop\n      tag_55\n      tag_56\n      jump\t// in\n    tag_55:\n      stop\n        /* \"contracts/Test.sol\":1745:2047  function approveChangeRole(uint _idTicket) public OnlyOwner {... */\n    tag_9:\n      callvalue\n      dup1\n      iszero\n      tag_57\n      jumpi\n      0x00\n      dup1\n      revert\n    tag_57:\n      pop\n      tag_58\n      0x04\n      dup1\n      calldatasize\n      sub\n      dup2\n      add\n      swap1\n      tag_59\n      swap2\n      swap1\n      tag_45\n      jump\t// in\n    tag_59:\n      tag_60\n      jump\t// in\n    tag_58:\n      stop\n        /* \"contracts/Test.sol\":2154:2366  function randMod(uint _modulus) public view returns(uint) {   ... */\n    tag_10:\n      callvalue\n      dup1\n      iszero\n      tag_61\n      jumpi\n      0x00\n      dup1\n      revert\n    tag_61:\n      pop\n      tag_62\n      0x04\n      dup1\n      calldatasize\n      sub\n      dup2\n      add\n      swap1\n      tag_63\n      swap2\n      swap1\n      tag_45\n      jump\t// in\n    tag_63:\n      tag_64\n      jump\t// in\n    tag_62:\n      mload(0x40)\n      tag_65\n      swap2\n      swap1\n      tag_66\n      jump\t// in\n    tag_65:\n      mload(0x40)\n      dup1\n      swap2\n      sub\n      swap1\n      return\n        /* \"contracts/Test.sol\":2523:2819  function addItemsSupplier(uint _inStock, uint _price, string calldata _name, uint _expDate, address _addressSupp) public AccessControl(Role.Supplier, _addressSupp) {... */\n    tag_11:\n      callvalue\n      dup1\n      iszero\n      tag_67\n      jumpi\n      0x00\n      dup1\n      revert\n    tag_67:\n      pop\n      tag_68\n      0x04\n      dup1\n      calldatasize\n      sub\n      dup2\n      add\n      swap1\n      tag_69\n      swap2\n      swap1\n      tag_70\n      jump\t// in\n    tag_69:\n      tag_71\n      jump\t// in\n    tag_68:\n      stop\n        /* \"contracts/Test.sol\":163:183  address public owner */\n    tag_12:\n      callvalue\n      dup1\n      iszero\n      tag_72\n      jumpi\n      0x00\n      dup1\n      revert\n    tag_72:\n      pop\n      tag_73\n      tag_74\n      jump\t// in\n    tag_73:\n      mload(0x40)\n      tag_75\n      swap2\n      swap1\n      tag_76\n      jump\t// in\n    tag_75:\n      mload(0x40)\n      dup1\n      swap2\n      sub\n      swap1\n      return\n        /* \"contracts/Test.sol\":4668:6240  function purchase(address _shop, uint _amount, uint _id, string memory _ref ) public payable {... */\n    tag_13:\n      tag_77\n      0x04\n      dup1\n      calldatasize\n      sub\n      dup2\n      add\n      swap1\n      tag_78\n      swap2\n      swap1\n      tag_79\n      jump\t// in\n    tag_78:\n      tag_80\n      jump\t// in\n    tag_77:\n      stop\n        /* \"contracts/Test.sol\":2372:2516  function genRef(string memory _nameRef, address _user) public {... */\n    tag_14:\n      callvalue\n      dup1\n      iszero\n      tag_81\n      jumpi\n      0x00\n      dup1\n      revert\n    tag_81:\n      pop\n      tag_82\n      0x04\n      dup1\n      calldatasize\n      sub\n      dup2\n      add\n      swap1\n      tag_83\n      swap2\n      swap1\n      tag_84\n      jump\t// in\n    tag_83:\n      tag_85\n      jump\t// in\n    tag_82:\n      stop\n        /* \"contracts/Test.sol\":497:534  mapping(address => User) public users */\n    tag_15:\n      callvalue\n      dup1\n      iszero\n      tag_86\n      jumpi\n      0x00\n      dup1\n      revert\n    tag_86:\n      pop\n      tag_87\n      0x04\n      dup1\n      calldatasize\n      sub\n      dup2\n      add\n      swap1\n      tag_88\n      swap2\n      swap1\n      tag_89\n      jump\t// in\n    tag_88:\n      tag_90\n      jump\t// in\n    tag_87:\n      mload(0x40)\n      tag_91\n      swap3\n      swap2\n      swap1\n      tag_92\n      jump\t// in\n    tag_91:\n      mload(0x40)\n      dup1\n      swap2\n      sub\n      swap1\n      return\n        /* \"contracts/Test.sol\":1279:1550  function makeUser() public {... */\n    tag_16:\n      callvalue\n      dup1\n      iszero\n      tag_93\n      jumpi\n      0x00\n      dup1\n      revert\n    tag_93:\n      pop\n      tag_94\n      tag_95\n      jump\t// in\n    tag_94:\n      stop\n        /* \"contracts/Test.sol\":595:638  mapping(string => address) public referrals */\n    tag_17:\n      callvalue\n      dup1\n      iszero\n      tag_96\n      jumpi\n      0x00\n      dup1\n      revert\n    tag_96:\n      pop\n      tag_97\n      0x04\n      dup1\n      calldatasize\n      sub\n      dup2\n      add\n      swap1\n      tag_98\n      swap2\n      swap1\n      tag_99\n      jump\t// in\n    tag_98:\n      tag_100\n      jump\t// in\n    tag_97:\n      mload(0x40)\n      tag_101\n      swap2\n      swap1\n      tag_76\n      jump\t// in\n    tag_101:\n      mload(0x40)\n      dup1\n      swap2\n      sub\n      swap1\n      return\n        /* \"contracts/Test.sol\":6246:6351  function withdrawBal(address _shop) public {... */\n    tag_18:\n      callvalue\n      dup1\n      iszero\n      tag_102\n      jumpi\n      0x00\n      dup1\n      revert\n    tag_102:\n      pop\n      tag_103\n      0x04\n      dup1\n      calldatasize\n      sub\n      dup2\n      add\n      swap1\n      tag_104\n      swap2\n      swap1\n      tag_89\n      jump\t// in\n    tag_104:\n      tag_105\n      jump\t// in\n    tag_103:\n      stop\n        /* \"contracts/Test.sol\":2830:4119  function refillStore(address _shop, uint _productId, uint _amount, address _supplier) public payable AccessControl(Role.Market, _shop) {... */\n    tag_19:\n      tag_106\n      0x04\n      dup1\n      calldatasize\n      sub\n      dup2\n      add\n      swap1\n      tag_107\n      swap2\n      swap1\n      tag_108\n      jump\t// in\n    tag_107:\n      tag_109\n      jump\t// in\n    tag_106:\n      stop\n        /* \"contracts/Test.sol\":644:693  mapping(address => Product[]) public productItems */\n    tag_27:\n      mstore(0x20, 0x05)\n      dup2\n      0x00\n      mstore\n      keccak256(0x00, 0x40)\n      dup2\n      dup2\n      sload\n      dup2\n      lt\n      tag_110\n      jumpi\n      0x00\n      dup1\n      revert\n    tag_110:\n      swap1\n      0x00\n      mstore\n      keccak256(0x00, 0x20)\n      swap1\n      0x04\n      mul\n      add\n      0x00\n      swap2\n      pop\n      swap2\n      pop\n      pop\n      dup1\n      0x00\n      add\n      sload\n      swap1\n      dup1\n      0x01\n      add\n      sload\n      swap1\n      dup1\n      0x02\n      add\n      dup1\n      sload\n      tag_112\n      swap1\n      tag_113\n      jump\t// in\n    tag_112:\n      dup1\n      0x1f\n      add\n      0x20\n      dup1\n      swap2\n      div\n      mul\n      0x20\n      add\n      mload(0x40)\n      swap1\n      dup2\n      add\n      0x40\n      mstore\n      dup1\n      swap3\n      swap2\n      swap1\n      dup2\n      dup2\n      mstore\n      0x20\n      add\n      dup3\n      dup1\n      sload\n      tag_114\n      swap1\n      tag_113\n      jump\t// in\n    tag_114:\n      dup1\n      iszero\n      tag_115\n      jumpi\n      dup1\n      0x1f\n      lt\n      tag_116\n      jumpi\n      0x0100\n      dup1\n      dup4\n      sload\n      div\n      mul\n      dup4\n      mstore\n      swap2\n      0x20\n      add\n      swap2\n      jump(tag_115)\n    tag_116:\n      dup3\n      add\n      swap2\n      swap1\n      0x00\n      mstore\n      keccak256(0x00, 0x20)\n      swap1\n    tag_117:\n      dup2\n      sload\n      dup2\n      mstore\n      swap1\n      0x01\n      add\n      swap1\n      0x20\n      add\n      dup1\n      dup4\n      gt\n      tag_117\n      jumpi\n      dup3\n      swap1\n      sub\n      0x1f\n      and\n      dup3\n      add\n      swap2\n    tag_115:\n      pop\n      pop\n      pop\n      pop\n      pop\n      swap1\n      dup1\n      0x03\n      add\n      sload\n      swap1\n      pop\n      dup5\n      jump\t// out\n        /* \"contracts/Test.sol\":540:589  mapping(address => Product[]) public userProducts */\n    tag_33:\n      mstore(0x20, 0x03)\n      dup2\n      0x00\n      mstore\n      keccak256(0x00, 0x40)\n      dup2\n      dup2\n      sload\n      dup2\n      lt\n      tag_118\n      jumpi\n      0x00\n      dup1\n      revert\n    tag_118:\n      swap1\n      0x00\n      mstore\n      keccak256(0x00, 0x20)\n      swap1\n      0x04\n      mul\n      add\n      0x00\n      swap2\n      pop\n      swap2\n      pop\n      pop\n      dup1\n      0x00\n      add\n      sload\n      swap1\n      dup1\n      0x01\n      add\n      sload\n      swap1\n      dup1\n      0x02\n      add\n      dup1\n      sload\n      tag_120\n      swap1\n      tag_113\n      jump\t// in\n    tag_120:\n      dup1\n      0x1f\n      add\n      0x20\n      dup1\n      swap2\n      div\n      mul\n      0x20\n      add\n      mload(0x40)\n      swap1\n      dup2\n      add\n      0x40\n      mstore\n      dup1\n      swap3\n      swap2\n      swap1\n      dup2\n      dup2\n      mstore\n      0x20\n      add\n      dup3\n      dup1\n      sload\n      tag_121\n      swap1\n      tag_113\n      jump\t// in\n    tag_121:\n      dup1\n      iszero\n      tag_122\n      jumpi\n      dup1\n      0x1f\n      lt\n      tag_123\n      jumpi\n      0x0100\n      dup1\n      dup4\n      sload\n      div\n      mul\n      dup4\n      mstore\n      swap2\n      0x20\n      add\n      swap2\n      jump(tag_122)\n    tag_123:\n      dup3\n      add\n      swap2\n      swap1\n      0x00\n      mstore\n      keccak256(0x00, 0x20)\n      swap1\n    tag_124:\n      dup2\n      sload\n      dup2\n      mstore\n      swap1\n      0x01\n      add\n      swap1\n      0x20\n      add\n      dup1\n      dup4\n      gt\n      tag_124\n      jumpi\n      dup3\n      swap1\n      sub\n      0x1f\n      and\n      dup3\n      add\n      swap2\n    tag_122:\n      pop\n      pop\n      pop\n      pop\n      pop\n      swap1\n      dup1\n      0x03\n      add\n      sload\n      swap1\n      pop\n      dup5\n      jump\t// out\n        /* \"contracts/Test.sol\":1556:1646  function makeSupplier() public {... */\n    tag_37:\n        /* \"contracts/Test.sol\":1617:1639  User(Role.Supplier, 0) */\n      mload(0x40)\n      dup1\n      0x40\n      add\n      0x40\n      mstore\n      dup1\n        /* \"contracts/Test.sol\":1622:1635  Role.Supplier */\n      0x02\n        /* \"contracts/Test.sol\":1617:1639  User(Role.Supplier, 0) */\n      dup1\n      dup2\n      gt\n      iszero\n      tag_126\n      jumpi\n      tag_127\n      tag_128\n      jump\t// in\n    tag_127:\n    tag_126:\n      dup2\n      mstore\n      0x20\n      add\n        /* \"contracts/Test.sol\":1637:1638  0 */\n      0x00\n        /* \"contracts/Test.sol\":1617:1639  User(Role.Supplier, 0) */\n      dup2\n      mstore\n      pop\n        /* \"contracts/Test.sol\":1597:1602  users */\n      0x02\n        /* \"contracts/Test.sol\":1597:1614  users[msg.sender] */\n      0x00\n        /* \"contracts/Test.sol\":1603:1613  msg.sender */\n      caller\n        /* \"contracts/Test.sol\":1597:1614  users[msg.sender] */\n      0xffffffffffffffffffffffffffffffffffffffff\n      and\n      0xffffffffffffffffffffffffffffffffffffffff\n      and\n      dup2\n      mstore\n      0x20\n      add\n      swap1\n      dup2\n      mstore\n      0x20\n      add\n      0x00\n      keccak256\n        /* \"contracts/Test.sol\":1597:1639  users[msg.sender] = User(Role.Supplier, 0) */\n      0x00\n      dup3\n      add\n      mload\n      dup2\n      0x00\n      add\n      exp(0x0100, 0x00)\n      dup2\n      sload\n      dup2\n      0xff\n      mul\n      not\n      and\n      swap1\n      dup4\n      0x02\n      dup2\n      gt\n      iszero\n      tag_129\n      jumpi\n      tag_130\n      tag_128\n      jump\t// in\n    tag_130:\n    tag_129:\n      mul\n      or\n      swap1\n      sstore\n      pop\n      0x20\n      dup3\n      add\n      mload\n      dup2\n      0x01\n      add\n      sstore\n      swap1\n      pop\n      pop\n        /* \"contracts/Test.sol\":1556:1646  function makeSupplier() public {... */\n      jump\t// out\n        /* \"contracts/Test.sol\":4125:4662  function refund(address _shop, uint _productId) public {... */\n    tag_41:\n        /* \"contracts/Test.sol\":4245:4257  userProducts */\n      0x03\n        /* \"contracts/Test.sol\":4245:4264  userProducts[_shop] */\n      0x00\n        /* \"contracts/Test.sol\":4258:4263  _shop */\n      dup4\n        /* \"contracts/Test.sol\":4245:4264  userProducts[_shop] */\n      0xffffffffffffffffffffffffffffffffffffffff\n      and\n      0xffffffffffffffffffffffffffffffffffffffff\n      and\n      dup2\n      mstore\n      0x20\n      add\n      swap1\n      dup2\n      mstore\n      0x20\n      add\n      0x00\n      keccak256\n        /* \"contracts/Test.sol\":4265:4275  _productId */\n      dup2\n        /* \"contracts/Test.sol\":4245:4276  userProducts[_shop][_productId] */\n      dup2\n      sload\n      dup2\n      lt\n      tag_132\n      jumpi\n      tag_133\n      tag_134\n      jump\t// in\n    tag_133:\n    tag_132:\n      swap1\n      0x00\n      mstore\n      keccak256(0x00, 0x20)\n      swap1\n      0x04\n      mul\n      add\n        /* \"contracts/Test.sol\":4245:4284  userProducts[_shop][_productId].expDate */\n      0x03\n      add\n      sload\n        /* \"contracts/Test.sol\":4198:4210  userProducts */\n      0x03\n        /* \"contracts/Test.sol\":4198:4222  userProducts[msg.sender] */\n      0x00\n        /* \"contracts/Test.sol\":4211:4221  msg.sender */\n      caller\n        /* \"contracts/Test.sol\":4198:4222  userProducts[msg.sender] */\n      0xffffffffffffffffffffffffffffffffffffffff\n      and\n      0xffffffffffffffffffffffffffffffffffffffff\n      and\n      dup2\n      mstore\n      0x20\n      add\n      swap1\n      dup2\n      mstore\n      0x20\n      add\n      0x00\n      keccak256\n        /* \"contracts/Test.sol\":4223:4233  _productId */\n      dup3\n        /* \"contracts/Test.sol\":4198:4234  userProducts[msg.sender][_productId] */\n      dup2\n      sload\n      dup2\n      lt\n      tag_136\n      jumpi\n      tag_137\n      tag_134\n      jump\t// in\n    tag_137:\n    tag_136:\n      swap1\n      0x00\n      mstore\n      keccak256(0x00, 0x20)\n      swap1\n      0x04\n      mul\n      add\n        /* \"contracts/Test.sol\":4198:4242  userProducts[msg.sender][_productId].expDate */\n      0x03\n      add\n      sload\n        /* \"contracts/Test.sol\":4198:4284  userProducts[msg.sender][_productId].expDate > userProducts[_shop][_productId].expDate */\n      gt\n        /* \"contracts/Test.sol\":4190:4285  require(userProducts[msg.sender][_productId].expDate > userProducts[_shop][_productId].expDate) */\n      tag_139\n      jumpi\n      0x00\n      dup1\n      revert\n    tag_139:\n        /* \"contracts/Test.sol\":4295:4311  uint totalRefSum */\n      0x00\n        /* \"contracts/Test.sol\":4402:4409  1 ether */\n      0x0de0b6b3a7640000\n        /* \"contracts/Test.sol\":4362:4374  userProducts */\n      0x03\n        /* \"contracts/Test.sol\":4362:4381  userProducts[_shop] */\n      0x00\n        /* \"contracts/Test.sol\":4375:4380  _shop */\n      dup6\n        /* \"contracts/Test.sol\":4362:4381  userProducts[_shop] */\n      0xffffffffffffffffffffffffffffffffffffffff\n      and\n      0xffffffffffffffffffffffffffffffffffffffff\n      and\n      dup2\n      mstore\n      0x20\n      add\n      swap1\n      dup2\n      mstore\n      0x20\n      add\n      0x00\n      keccak256\n        /* \"contracts/Test.sol\":4382:4392  _productId */\n      dup4\n        /* \"contracts/Test.sol\":4362:4393  userProducts[_shop][_productId] */\n      dup2\n      sload\n      dup2\n      lt\n      tag_140\n      jumpi\n      tag_141\n      tag_134\n      jump\t// in\n    tag_141:\n    tag_140:\n      swap1\n      0x00\n      mstore\n      keccak256(0x00, 0x20)\n      swap1\n      0x04\n      mul\n      add\n        /* \"contracts/Test.sol\":4362:4399  userProducts[_shop][_productId].price */\n      0x01\n      add\n      sload\n        /* \"contracts/Test.sol\":4315:4327  userProducts */\n      0x03\n        /* \"contracts/Test.sol\":4315:4339  userProducts[msg.sender] */\n      0x00\n        /* \"contracts/Test.sol\":4328:4338  msg.sender */\n      caller\n        /* \"contracts/Test.sol\":4315:4339  userProducts[msg.sender] */\n      0xffffffffffffffffffffffffffffffffffffffff\n      and\n      0xffffffffffffffffffffffffffffffffffffffff\n      and\n      dup2\n      mstore\n      0x20\n      add\n      swap1\n      dup2\n      mstore\n      0x20\n      add\n      0x00\n      keccak256\n        /* \"contracts/Test.sol\":4340:4350  _productId */\n      dup5\n        /* \"contracts/Test.sol\":4315:4351  userProducts[msg.sender][_productId] */\n      dup2\n      sload\n      dup2\n      lt\n      tag_143\n      jumpi\n      tag_144\n      tag_134\n      jump\t// in\n    tag_144:\n    tag_143:\n      swap1\n      0x00\n      mstore\n      keccak256(0x00, 0x20)\n      swap1\n      0x04\n      mul\n      add\n        /* \"contracts/Test.sol\":4315:4359  userProducts[msg.sender][_productId].inStock */\n      0x00\n      add\n      sload\n        /* \"contracts/Test.sol\":4315:4399  userProducts[msg.sender][_productId].inStock * userProducts[_shop][_productId].price */\n      tag_146\n      swap2\n      swap1\n      tag_147\n      jump\t// in\n    tag_146:\n        /* \"contracts/Test.sol\":4315:4409  userProducts[msg.sender][_productId].inStock * userProducts[_shop][_productId].price * 1 ether */\n      tag_148\n      swap2\n      swap1\n      tag_147\n      jump\t// in\n    tag_148:\n        /* \"contracts/Test.sol\":4295:4409  uint totalRefSum =  userProducts[msg.sender][_productId].inStock * userProducts[_shop][_productId].price * 1 ether */\n      swap1\n      pop\n        /* \"contracts/Test.sol\":4462:4474  userProducts */\n      0x03\n        /* \"contracts/Test.sol\":4462:4486  userProducts[msg.sender] */\n      0x00\n        /* \"contracts/Test.sol\":4475:4485  msg.sender */\n      caller\n        /* \"contracts/Test.sol\":4462:4486  userProducts[msg.sender] */\n      0xffffffffffffffffffffffffffffffffffffffff\n      and\n      0xffffffffffffffffffffffffffffffffffffffff\n      and\n      dup2\n      mstore\n      0x20\n      add\n      swap1\n      dup2\n      mstore\n      0x20\n      add\n      0x00\n      keccak256\n        /* \"contracts/Test.sol\":4487:4497  _productId */\n      dup3\n        /* \"contracts/Test.sol\":4462:4498  userProducts[msg.sender][_productId] */\n      dup2\n      sload\n      dup2\n      lt\n      tag_149\n      jumpi\n      tag_150\n      tag_134\n      jump\t// in\n    tag_150:\n    tag_149:\n      swap1\n      0x00\n      mstore\n      keccak256(0x00, 0x20)\n      swap1\n      0x04\n      mul\n      add\n        /* \"contracts/Test.sol\":4462:4506  userProducts[msg.sender][_productId].inStock */\n      0x00\n      add\n      sload\n        /* \"contracts/Test.sol\":4419:4431  userProducts */\n      0x03\n        /* \"contracts/Test.sol\":4419:4438  userProducts[_shop] */\n      0x00\n        /* \"contracts/Test.sol\":4432:4437  _shop */\n      dup6\n        /* \"contracts/Test.sol\":4419:4438  userProducts[_shop] */\n      0xffffffffffffffffffffffffffffffffffffffff\n      and\n      0xffffffffffffffffffffffffffffffffffffffff\n      and\n      dup2\n      mstore\n      0x20\n      add\n      swap1\n      dup2\n      mstore\n      0x20\n      add\n      0x00\n      keccak256\n        /* \"contracts/Test.sol\":4439:4449  _productId */\n      dup4\n        /* \"contracts/Test.sol\":4419:4450  userProducts[_shop][_productId] */\n      dup2\n      sload\n      dup2\n      lt\n      tag_152\n      jumpi\n      tag_153\n      tag_134\n      jump\t// in\n    tag_153:\n    tag_152:\n      swap1\n      0x00\n      mstore\n      keccak256(0x00, 0x20)\n      swap1\n      0x04\n      mul\n      add\n        /* \"contracts/Test.sol\":4419:4458  userProducts[_shop][_productId].inStock */\n      0x00\n      add\n      0x00\n        /* \"contracts/Test.sol\":4419:4506  userProducts[_shop][_productId].inStock += userProducts[msg.sender][_productId].inStock */\n      dup3\n      dup3\n      sload\n      tag_155\n      swap2\n      swap1\n      tag_156\n      jump\t// in\n    tag_155:\n      swap3\n      pop\n      pop\n      dup2\n      swap1\n      sstore\n      pop\n        /* \"contracts/Test.sol\":4523:4535  userProducts */\n      0x03\n        /* \"contracts/Test.sol\":4523:4547  userProducts[msg.sender] */\n      0x00\n        /* \"contracts/Test.sol\":4536:4546  msg.sender */\n      caller\n        /* \"contracts/Test.sol\":4523:4547  userProducts[msg.sender] */\n      0xffffffffffffffffffffffffffffffffffffffff\n      and\n      0xffffffffffffffffffffffffffffffffffffffff\n      and\n      dup2\n      mstore\n      0x20\n      add\n      swap1\n      dup2\n      mstore\n      0x20\n      add\n      0x00\n      keccak256\n        /* \"contracts/Test.sol\":4548:4558  _productId */\n      dup3\n        /* \"contracts/Test.sol\":4523:4559  userProducts[msg.sender][_productId] */\n      dup2\n      sload\n      dup2\n      lt\n      tag_157\n      jumpi\n      tag_158\n      tag_134\n      jump\t// in\n    tag_158:\n    tag_157:\n      swap1\n      0x00\n      mstore\n      keccak256(0x00, 0x20)\n      swap1\n      0x04\n      mul\n      add\n      0x00\n        /* \"contracts/Test.sol\":4516:4559  delete userProducts[msg.sender][_productId] */\n      dup1\n      dup3\n      add\n      0x00\n      swap1\n      sstore\n      0x01\n      dup3\n      add\n      0x00\n      swap1\n      sstore\n      0x02\n      dup3\n      add\n      0x00\n      tag_160\n      swap2\n      swap1\n      tag_161\n      jump\t// in\n    tag_160:\n      0x03\n      dup3\n      add\n      0x00\n      swap1\n      sstore\n      pop\n      pop\n        /* \"contracts/Test.sol\":4593:4604  totalRefSum */\n      dup1\n        /* \"contracts/Test.sol\":4569:4574  users */\n      0x02\n        /* \"contracts/Test.sol\":4569:4581  users[_shop] */\n      0x00\n        /* \"contracts/Test.sol\":4575:4580  _shop */\n      dup6\n        /* \"contracts/Test.sol\":4569:4581  users[_shop] */\n      0xffffffffffffffffffffffffffffffffffffffff\n      and\n      0xffffffffffffffffffffffffffffffffffffffff\n      and\n      dup2\n      mstore\n      0x20\n      add\n      swap1\n      dup2\n      mstore\n      0x20\n      add\n      0x00\n      keccak256\n        /* \"contracts/Test.sol\":4569:4589  users[_shop].balance */\n      0x01\n      add\n      0x00\n        /* \"contracts/Test.sol\":4569:4604  users[_shop].balance -= totalRefSum */\n      dup3\n      dup3\n      sload\n      tag_162\n      swap2\n      swap1\n      tag_163\n      jump\t// in\n    tag_162:\n      swap3\n      pop\n      pop\n      dup2\n      swap1\n      sstore\n      pop\n        /* \"contracts/Test.sol\":4622:4632  msg.sender */\n      caller\n        /* \"contracts/Test.sol\":4614:4642  payable(msg.sender).transfer */\n      0xffffffffffffffffffffffffffffffffffffffff\n      and\n        /* \"contracts/Test.sol\":4614:4655  payable(msg.sender).transfer(totalRefSum) */\n      0x08fc\n        /* \"contracts/Test.sol\":4643:4654  totalRefSum */\n      dup3\n        /* \"contracts/Test.sol\":4614:4655  payable(msg.sender).transfer(totalRefSum) */\n      swap1\n      dup2\n      iszero\n      mul\n      swap1\n      mload(0x40)\n      0x00\n      mload(0x40)\n      dup1\n      dup4\n      sub\n      dup2\n      dup6\n      dup9\n      dup9\n      call\n      swap4\n      pop\n      pop\n      pop\n      pop\n      iszero\n      dup1\n      iszero\n      tag_165\n      jumpi\n      returndatasize\n      0x00\n      dup1\n      returndatacopy\n      revert(0x00, returndatasize)\n    tag_165:\n      pop\n        /* \"contracts/Test.sol\":4180:4662  {... */\n      pop\n        /* \"contracts/Test.sol\":4125:4662  function refund(address _shop, uint _productId) public {... */\n      pop\n      pop\n      jump\t// out\n        /* \"contracts/Test.sol\":134:157  Ticket[] public tickets */\n    tag_46:\n      0x00\n      dup2\n      dup2\n      sload\n      dup2\n      lt\n      tag_166\n      jumpi\n      0x00\n      dup1\n      revert\n    tag_166:\n      swap1\n      0x00\n      mstore\n      keccak256(0x00, 0x20)\n      add\n      0x00\n      swap2\n      pop\n      swap1\n      pop\n      dup1\n      0x00\n      add\n      0x00\n      swap1\n      sload\n      swap1\n      0x0100\n      exp\n      swap1\n      div\n      0xffffffffffffffffffffffffffffffffffffffff\n      and\n      swap1\n      dup1\n      0x00\n      add\n      0x14\n      swap1\n      sload\n      swap1\n      0x0100\n      exp\n      swap1\n      div\n      0xff\n      and\n      swap1\n      pop\n      dup3\n      jump\t// out\n        /* \"contracts/Test.sol\":2053:2148  function changeRole(Role _role) public {... */\n    tag_53:\n        /* \"contracts/Test.sol\":2102:2109  tickets */\n      0x00\n        /* \"contracts/Test.sol\":2115:2140  Ticket(msg.sender, _role) */\n      mload(0x40)\n      dup1\n      0x40\n      add\n      0x40\n      mstore\n      dup1\n        /* \"contracts/Test.sol\":2122:2132  msg.sender */\n      caller\n        /* \"contracts/Test.sol\":2115:2140  Ticket(msg.sender, _role) */\n      0xffffffffffffffffffffffffffffffffffffffff\n      and\n      dup2\n      mstore\n      0x20\n      add\n        /* \"contracts/Test.sol\":2134:2139  _role */\n      dup4\n        /* \"contracts/Test.sol\":2115:2140  Ticket(msg.sender, _role) */\n      0x02\n      dup2\n      gt\n      iszero\n      tag_169\n      jumpi\n      tag_170\n      tag_128\n      jump\t// in\n    tag_170:\n    tag_169:\n      dup2\n      mstore\n      pop\n        /* \"contracts/Test.sol\":2102:2141  tickets.push(Ticket(msg.sender, _role)) */\n      swap1\n      dup1\n      0x01\n      dup2\n      sload\n      add\n      dup1\n      dup3\n      sstore\n      dup1\n      swap2\n      pop\n      pop\n      0x01\n      swap1\n      sub\n      swap1\n      0x00\n      mstore\n      keccak256(0x00, 0x20)\n      add\n      0x00\n      swap1\n      swap2\n      swap1\n      swap2\n      swap1\n      swap2\n      pop\n      0x00\n      dup3\n      add\n      mload\n      dup2\n      0x00\n      add\n      exp(0x0100, 0x00)\n      dup2\n      sload\n      dup2\n      0xffffffffffffffffffffffffffffffffffffffff\n      mul\n      not\n      and\n      swap1\n      dup4\n      0xffffffffffffffffffffffffffffffffffffffff\n      and\n      mul\n      or\n      swap1\n      sstore\n      pop\n      0x20\n      dup3\n      add\n      mload\n      dup2\n      0x00\n      add\n      exp(0x0100, 0x14)\n      dup2\n      sload\n      dup2\n      0xff\n      mul\n      not\n      and\n      swap1\n      dup4\n      0x02\n      dup2\n      gt\n      iszero\n      tag_172\n      jumpi\n      tag_173\n      tag_128\n      jump\t// in\n    tag_173:\n    tag_172:\n      mul\n      or\n      swap1\n      sstore\n      pop\n      pop\n      pop\n        /* \"contracts/Test.sol\":2053:2148  function changeRole(Role _role) public {... */\n      pop\n      jump\t// out\n        /* \"contracts/Test.sol\":1652:1739  function makeMarket() public  {... */\n    tag_56:\n        /* \"contracts/Test.sol\":1712:1732  User(Role.Market, 0) */\n      mload(0x40)\n      dup1\n      0x40\n      add\n      0x40\n      mstore\n      dup1\n        /* \"contracts/Test.sol\":1717:1728  Role.Market */\n      0x01\n        /* \"contracts/Test.sol\":1712:1732  User(Role.Market, 0) */\n      0x02\n      dup2\n      gt\n      iszero\n      tag_175\n      jumpi\n      tag_176\n      tag_128\n      jump\t// in\n    tag_176:\n    tag_175:\n      dup2\n      mstore\n      0x20\n      add\n        /* \"contracts/Test.sol\":1730:1731  0 */\n      0x00\n        /* \"contracts/Test.sol\":1712:1732  User(Role.Market, 0) */\n      dup2\n      mstore\n      pop\n        /* \"contracts/Test.sol\":1692:1697  users */\n      0x02\n        /* \"contracts/Test.sol\":1692:1709  users[msg.sender] */\n      0x00\n        /* \"contracts/Test.sol\":1698:1708  msg.sender */\n      caller\n        /* \"contracts/Test.sol\":1692:1709  users[msg.sender] */\n      0xffffffffffffffffffffffffffffffffffffffff\n      and\n      0xffffffffffffffffffffffffffffffffffffffff\n      and\n      dup2\n      mstore\n      0x20\n      add\n      swap1\n      dup2\n      mstore\n      0x20\n      add\n      0x00\n      keccak256\n        /* \"contracts/Test.sol\":1692:1732  users[msg.sender] = User(Role.Market, 0) */\n      0x00\n      dup3\n      add\n      mload\n      dup2\n      0x00\n      add\n      exp(0x0100, 0x00)\n      dup2\n      sload\n      dup2\n      0xff\n      mul\n      not\n      and\n      swap1\n      dup4\n      0x02\n      dup2\n      gt\n      iszero\n      tag_177\n      jumpi\n      tag_178\n      tag_128\n      jump\t// in\n    tag_178:\n    tag_177:\n      mul\n      or\n      swap1\n      sstore\n      pop\n      0x20\n      dup3\n      add\n      mload\n      dup2\n      0x01\n      add\n      sstore\n      swap1\n      pop\n      pop\n        /* \"contracts/Test.sol\":1652:1739  function makeMarket() public  {... */\n      jump\t// out\n        /* \"contracts/Test.sol\":1745:2047  function approveChangeRole(uint _idTicket) public OnlyOwner {... */\n    tag_60:\n        /* \"contracts/Test.sol\":753:758  owner */\n      0x01\n      0x00\n      swap1\n      sload\n      swap1\n      0x0100\n      exp\n      swap1\n      div\n      0xffffffffffffffffffffffffffffffffffffffff\n      and\n        /* \"contracts/Test.sol\":739:758  msg.sender == owner */\n      0xffffffffffffffffffffffffffffffffffffffff\n      and\n        /* \"contracts/Test.sol\":739:749  msg.sender */\n      caller\n        /* \"contracts/Test.sol\":739:758  msg.sender == owner */\n      0xffffffffffffffffffffffffffffffffffffffff\n      and\n      eq\n        /* \"contracts/Test.sol\":731:759  require(msg.sender == owner) */\n      tag_180\n      jumpi\n      0x00\n      dup1\n      revert\n    tag_180:\n        /* \"contracts/Test.sol\":1815:1831  address userAddr */\n      0x00\n        /* \"contracts/Test.sol\":1834:1841  tickets */\n      dup1\n        /* \"contracts/Test.sol\":1842:1851  _idTicket */\n      dup3\n        /* \"contracts/Test.sol\":1834:1852  tickets[_idTicket] */\n      dup2\n      sload\n      dup2\n      lt\n      tag_182\n      jumpi\n      tag_183\n      tag_134\n      jump\t// in\n    tag_183:\n    tag_182:\n      swap1\n      0x00\n      mstore\n      keccak256(0x00, 0x20)\n      add\n        /* \"contracts/Test.sol\":1834:1861  tickets[_idTicket].userAddr */\n      0x00\n      add\n      0x00\n      swap1\n      sload\n      swap1\n      0x0100\n      exp\n      swap1\n      div\n      0xffffffffffffffffffffffffffffffffffffffff\n      and\n        /* \"contracts/Test.sol\":1815:1861  address userAddr = tickets[_idTicket].userAddr */\n      swap1\n      pop\n        /* \"contracts/Test.sol\":1871:1887  Role changedRole */\n      0x00\n        /* \"contracts/Test.sol\":1890:1897  tickets */\n      dup1\n        /* \"contracts/Test.sol\":1898:1907  _idTicket */\n      dup4\n        /* \"contracts/Test.sol\":1890:1908  tickets[_idTicket] */\n      dup2\n      sload\n      dup2\n      lt\n      tag_185\n      jumpi\n      tag_186\n      tag_134\n      jump\t// in\n    tag_186:\n    tag_185:\n      swap1\n      0x00\n      mstore\n      keccak256(0x00, 0x20)\n      add\n        /* \"contracts/Test.sol\":1890:1913  tickets[_idTicket].role */\n      0x00\n      add\n      0x14\n      swap1\n      sload\n      swap1\n      0x0100\n      exp\n      swap1\n      div\n      0xff\n      and\n        /* \"contracts/Test.sol\":1871:1913  Role changedRole = tickets[_idTicket].role */\n      swap1\n      pop\n        /* \"contracts/Test.sol\":1946:1957  changedRole */\n      dup1\n        /* \"contracts/Test.sol\":1923:1928  users */\n      0x02\n        /* \"contracts/Test.sol\":1923:1938  users[userAddr] */\n      0x00\n        /* \"contracts/Test.sol\":1929:1937  userAddr */\n      dup5\n        /* \"contracts/Test.sol\":1923:1938  users[userAddr] */\n      0xffffffffffffffffffffffffffffffffffffffff\n      and\n      0xffffffffffffffffffffffffffffffffffffffff\n      and\n      dup2\n      mstore\n      0x20\n      add\n      swap1\n      dup2\n      mstore\n      0x20\n      add\n      0x00\n      keccak256\n        /* \"contracts/Test.sol\":1923:1943  users[userAddr].role */\n      0x00\n      add\n      0x00\n        /* \"contracts/Test.sol\":1923:1957  users[userAddr].role = changedRole */\n      0x0100\n      exp\n      dup2\n      sload\n      dup2\n      0xff\n      mul\n      not\n      and\n      swap1\n      dup4\n      0x02\n      dup2\n      gt\n      iszero\n      tag_188\n      jumpi\n      tag_189\n      tag_128\n      jump\t// in\n    tag_189:\n    tag_188:\n      mul\n      or\n      swap1\n      sstore\n      pop\n        /* \"contracts/Test.sol\":1997:2009  productItems */\n      0x05\n        /* \"contracts/Test.sol\":1997:2021  productItems[msg.sender] */\n      0x00\n        /* \"contracts/Test.sol\":2010:2020  msg.sender */\n      caller\n        /* \"contracts/Test.sol\":1997:2021  productItems[msg.sender] */\n      0xffffffffffffffffffffffffffffffffffffffff\n      and\n      0xffffffffffffffffffffffffffffffffffffffff\n      and\n      dup2\n      mstore\n      0x20\n      add\n      swap1\n      dup2\n      mstore\n      0x20\n      add\n      0x00\n      keccak256\n        /* \"contracts/Test.sol\":2027:2038  changedRole */\n      dup2\n        /* \"contracts/Test.sol\":2022:2039  uint(changedRole) */\n      0x02\n      dup2\n      gt\n      iszero\n      tag_190\n      jumpi\n      tag_191\n      tag_128\n      jump\t// in\n    tag_191:\n    tag_190:\n        /* \"contracts/Test.sol\":1997:2040  productItems[msg.sender][uint(changedRole)] */\n      dup2\n      sload\n      dup2\n      lt\n      tag_192\n      jumpi\n      tag_193\n      tag_134\n      jump\t// in\n    tag_193:\n    tag_192:\n      swap1\n      0x00\n      mstore\n      keccak256(0x00, 0x20)\n      swap1\n      0x04\n      mul\n      add\n        /* \"contracts/Test.sol\":1967:1979  userProducts */\n      0x03\n        /* \"contracts/Test.sol\":1967:1991  userProducts[msg.sender] */\n      0x00\n        /* \"contracts/Test.sol\":1980:1990  msg.sender */\n      caller\n        /* \"contracts/Test.sol\":1967:1991  userProducts[msg.sender] */\n      0xffffffffffffffffffffffffffffffffffffffff\n      and\n      0xffffffffffffffffffffffffffffffffffffffff\n      and\n      dup2\n      mstore\n      0x20\n      add\n      swap1\n      dup2\n      mstore\n      0x20\n      add\n      0x00\n      keccak256\n        /* \"contracts/Test.sol\":1992:1993  0 */\n      0x00\n        /* \"contracts/Test.sol\":1967:1994  userProducts[msg.sender][0] */\n      dup2\n      sload\n      dup2\n      lt\n      tag_195\n      jumpi\n      tag_196\n      tag_134\n      jump\t// in\n    tag_196:\n    tag_195:\n      swap1\n      0x00\n      mstore\n      keccak256(0x00, 0x20)\n      swap1\n      0x04\n      mul\n      add\n        /* \"contracts/Test.sol\":1967:2040  userProducts[msg.sender][0] = productItems[msg.sender][uint(changedRole)] */\n      0x00\n      dup3\n      add\n      sload\n      dup2\n      0x00\n      add\n      sstore\n      0x01\n      dup3\n      add\n      sload\n      dup2\n      0x01\n      add\n      sstore\n      0x02\n      dup3\n      add\n      dup2\n      0x02\n      add\n      swap1\n      dup2\n      tag_198\n      swap2\n      swap1\n      tag_199\n      jump\t// in\n    tag_198:\n      pop\n      0x03\n      dup3\n      add\n      sload\n      dup2\n      0x03\n      add\n      sstore\n      swap1\n      pop\n      pop\n        /* \"contracts/Test.sol\":1805:2047  {... */\n      pop\n      pop\n        /* \"contracts/Test.sol\":1745:2047  function approveChangeRole(uint _idTicket) public OnlyOwner {... */\n      pop\n      jump\t// out\n        /* \"contracts/Test.sol\":2154:2366  function randMod(uint _modulus) public view returns(uint) {   ... */\n    tag_64:\n        /* \"contracts/Test.sol\":2206:2210  uint */\n      0x00\n        /* \"contracts/Test.sol\":2225:2239  uint randNonce */\n      dup1\n        /* \"contracts/Test.sol\":2249:2260  randNonce++ */\n      dup1\n      dup1\n      tag_201\n      swap1\n      tag_202\n      jump\t// in\n    tag_201:\n      swap2\n      pop\n      pop\n        /* \"contracts/Test.sol\":2351:2359  _modulus */\n      dup3\n        /* \"contracts/Test.sol\":2309:2324  block.timestamp */\n      timestamp\n        /* \"contracts/Test.sol\":2325:2335  msg.sender */\n      caller\n        /* \"contracts/Test.sol\":2336:2345  randNonce */\n      dup4\n        /* \"contracts/Test.sol\":2292:2346  abi.encodePacked(block.timestamp,msg.sender,randNonce) */\n      add(0x20, mload(0x40))\n      tag_203\n      swap4\n      swap3\n      swap2\n      swap1\n      tag_204\n      jump\t// in\n    tag_203:\n      mload(0x40)\n      0x20\n      dup2\n      dup4\n      sub\n      sub\n      dup2\n      mstore\n      swap1\n      0x40\n      mstore\n        /* \"contracts/Test.sol\":2282:2347  keccak256(abi.encodePacked(block.timestamp,msg.sender,randNonce)) */\n      dup1\n      mload\n      swap1\n      0x20\n      add\n      keccak256\n        /* \"contracts/Test.sol\":2277:2348  uint(keccak256(abi.encodePacked(block.timestamp,msg.sender,randNonce))) */\n      0x00\n      shr\n        /* \"contracts/Test.sol\":2277:2359  uint(keccak256(abi.encodePacked(block.timestamp,msg.sender,randNonce))) % _modulus */\n      tag_205\n      swap2\n      swap1\n      tag_206\n      jump\t// in\n    tag_205:\n        /* \"contracts/Test.sol\":2270:2359  return uint(keccak256(abi.encodePacked(block.timestamp,msg.sender,randNonce))) % _modulus */\n      swap2\n      pop\n      pop\n        /* \"contracts/Test.sol\":2154:2366  function randMod(uint _modulus) public view returns(uint) {   ... */\n      swap2\n      swap1\n      pop\n      jump\t// out\n        /* \"contracts/Test.sol\":2523:2819  function addItemsSupplier(uint _inStock, uint _price, string calldata _name, uint _expDate, address _addressSupp) public AccessControl(Role.Supplier, _addressSupp) {... */\n    tag_71:\n        /* \"contracts/Test.sol\":2658:2671  Role.Supplier */\n      0x02\n        /* \"contracts/Test.sol\":2673:2685  _addressSupp */\n      dup2\n        /* \"contracts/Test.sol\":880:885  _role */\n      dup2\n        /* \"contracts/Test.sol\":854:885  users[msg.sender].role == _role */\n      0x02\n      dup2\n      gt\n      iszero\n      tag_208\n      jumpi\n      tag_209\n      tag_128\n      jump\t// in\n    tag_209:\n    tag_208:\n        /* \"contracts/Test.sol\":854:859  users */\n      0x02\n        /* \"contracts/Test.sol\":854:871  users[msg.sender] */\n      0x00\n        /* \"contracts/Test.sol\":860:870  msg.sender */\n      caller\n        /* \"contracts/Test.sol\":854:871  users[msg.sender] */\n      0xffffffffffffffffffffffffffffffffffffffff\n      and\n      0xffffffffffffffffffffffffffffffffffffffff\n      and\n      dup2\n      mstore\n      0x20\n      add\n      swap1\n      dup2\n      mstore\n      0x20\n      add\n      0x00\n      keccak256\n        /* \"contracts/Test.sol\":854:876  users[msg.sender].role */\n      0x00\n      add\n      0x00\n      swap1\n      sload\n      swap1\n      0x0100\n      exp\n      swap1\n      div\n      0xff\n      and\n        /* \"contracts/Test.sol\":854:885  users[msg.sender].role == _role */\n      0x02\n      dup2\n      gt\n      iszero\n      tag_210\n      jumpi\n      tag_211\n      tag_128\n      jump\t// in\n    tag_211:\n    tag_210:\n      eq\n        /* \"contracts/Test.sol\":846:962  require(users[msg.sender].role == _role, unicode\"Ваша роль не позволяет это изменять\") */\n      tag_212\n      jumpi\n      mload(0x40)\n      0x08c379a000000000000000000000000000000000000000000000000000000000\n      dup2\n      mstore\n      0x04\n      add\n      tag_213\n      swap1\n      tag_214\n      jump\t// in\n    tag_213:\n      mload(0x40)\n      dup1\n      swap2\n      sub\n      swap1\n      revert\n    tag_212:\n        /* \"contracts/Test.sol\":994:999  _shop */\n      dup1\n        /* \"contracts/Test.sol\":980:999  msg.sender == _shop */\n      0xffffffffffffffffffffffffffffffffffffffff\n      and\n        /* \"contracts/Test.sol\":980:990  msg.sender */\n      caller\n        /* \"contracts/Test.sol\":980:999  msg.sender == _shop */\n      0xffffffffffffffffffffffffffffffffffffffff\n      and\n      eq\n        /* \"contracts/Test.sol\":972:1078  require(msg.sender == _shop, unicode\"Магазин не соответсвует отправителю\") */\n      tag_215\n      jumpi\n      mload(0x40)\n      0x08c379a000000000000000000000000000000000000000000000000000000000\n      dup2\n      mstore\n      0x04\n      add\n      tag_216\n      swap1\n      tag_217\n      jump\t// in\n    tag_216:\n      mload(0x40)\n      dup1\n      swap2\n      sub\n      swap1\n      revert\n    tag_215:\n        /* \"contracts/Test.sol\":2697:2716  Product memory item */\n      0x00\n        /* \"contracts/Test.sol\":2719:2765  Product(_inStock, _price / 2, _name, _expDate) */\n      mload(0x40)\n      dup1\n      0x80\n      add\n      0x40\n      mstore\n      dup1\n        /* \"contracts/Test.sol\":2727:2735  _inStock */\n      dup11\n        /* \"contracts/Test.sol\":2719:2765  Product(_inStock, _price / 2, _name, _expDate) */\n      dup2\n      mstore\n      0x20\n      add\n        /* \"contracts/Test.sol\":2746:2747  2 */\n      0x02\n        /* \"contracts/Test.sol\":2737:2743  _price */\n      dup11\n        /* \"contracts/Test.sol\":2737:2747  _price / 2 */\n      tag_219\n      swap2\n      swap1\n      tag_220\n      jump\t// in\n    tag_219:\n        /* \"contracts/Test.sol\":2719:2765  Product(_inStock, _price / 2, _name, _expDate) */\n      dup2\n      mstore\n      0x20\n      add\n        /* \"contracts/Test.sol\":2749:2754  _name */\n      dup9\n      dup9\n        /* \"contracts/Test.sol\":2719:2765  Product(_inStock, _price / 2, _name, _expDate) */\n      dup1\n      dup1\n      0x1f\n      add\n      0x20\n      dup1\n      swap2\n      div\n      mul\n      0x20\n      add\n      mload(0x40)\n      swap1\n      dup2\n      add\n      0x40\n      mstore\n      dup1\n      swap4\n      swap3\n      swap2\n      swap1\n      dup2\n      dup2\n      mstore\n      0x20\n      add\n      dup4\n      dup4\n      dup1\n      dup3\n      dup5\n      calldatacopy\n      0x00\n      dup2\n      dup5\n      add\n      mstore\n      not(0x1f)\n      0x1f\n      dup3\n      add\n      and\n      swap1\n      pop\n      dup1\n      dup4\n      add\n      swap3\n      pop\n      pop\n      pop\n      pop\n      pop\n      pop\n      pop\n      dup2\n      mstore\n      0x20\n      add\n        /* \"contracts/Test.sol\":2756:2764  _expDate */\n      dup7\n        /* \"contracts/Test.sol\":2719:2765  Product(_inStock, _price / 2, _name, _expDate) */\n      dup2\n      mstore\n      pop\n        /* \"contracts/Test.sol\":2697:2765  Product memory item = Product(_inStock, _price / 2, _name, _expDate) */\n      swap1\n      pop\n        /* \"contracts/Test.sol\":2775:2787  userProducts */\n      0x03\n        /* \"contracts/Test.sol\":2775:2801  userProducts[_addressSupp] */\n      0x00\n        /* \"contracts/Test.sol\":2788:2800  _addressSupp */\n      dup6\n        /* \"contracts/Test.sol\":2775:2801  userProducts[_addressSupp] */\n      0xffffffffffffffffffffffffffffffffffffffff\n      and\n      0xffffffffffffffffffffffffffffffffffffffff\n      and\n      dup2\n      mstore\n      0x20\n      add\n      swap1\n      dup2\n      mstore\n      0x20\n      add\n      0x00\n      keccak256\n        /* \"contracts/Test.sol\":2807:2811  item */\n      dup2\n        /* \"contracts/Test.sol\":2775:2812  userProducts[_addressSupp].push(item) */\n      swap1\n      dup1\n      0x01\n      dup2\n      sload\n      add\n      dup1\n      dup3\n      sstore\n      dup1\n      swap2\n      pop\n      pop\n      0x01\n      swap1\n      sub\n      swap1\n      0x00\n      mstore\n      keccak256(0x00, 0x20)\n      swap1\n      0x04\n      mul\n      add\n      0x00\n      swap1\n      swap2\n      swap1\n      swap2\n      swap1\n      swap2\n      pop\n      0x00\n      dup3\n      add\n      mload\n      dup2\n      0x00\n      add\n      sstore\n      0x20\n      dup3\n      add\n      mload\n      dup2\n      0x01\n      add\n      sstore\n      0x40\n      dup3\n      add\n      mload\n      dup2\n      0x02\n      add\n      swap1\n      dup2\n      tag_222\n      swap2\n      swap1\n      tag_223\n      jump\t// in\n    tag_222:\n      pop\n      0x60\n      dup3\n      add\n      mload\n      dup2\n      0x03\n      add\n      sstore\n      pop\n      pop\n        /* \"contracts/Test.sol\":2687:2819  {... */\n      pop\n        /* \"contracts/Test.sol\":2523:2819  function addItemsSupplier(uint _inStock, uint _price, string calldata _name, uint _expDate, address _addressSupp) public AccessControl(Role.Supplier, _addressSupp) {... */\n      pop\n      pop\n      pop\n      pop\n      pop\n      pop\n      pop\n      pop\n      jump\t// out\n        /* \"contracts/Test.sol\":163:183  address public owner */\n    tag_74:\n      0x01\n      0x00\n      swap1\n      sload\n      swap1\n      0x0100\n      exp\n      swap1\n      div\n      0xffffffffffffffffffffffffffffffffffffffff\n      and\n      dup2\n      jump\t// out\n        /* \"contracts/Test.sol\":4668:6240  function purchase(address _shop, uint _amount, uint _id, string memory _ref ) public payable {... */\n    tag_80:\n        /* \"contracts/Test.sol\":4801:4810  Role.User */\n      0x00\n        /* \"contracts/Test.sol\":4775:4810  users[msg.sender].role == Role.User */\n      0x02\n      dup2\n      gt\n      iszero\n      tag_225\n      jumpi\n      tag_226\n      tag_128\n      jump\t// in\n    tag_226:\n    tag_225:\n        /* \"contracts/Test.sol\":4775:4780  users */\n      0x02\n        /* \"contracts/Test.sol\":4775:4792  users[msg.sender] */\n      0x00\n        /* \"contracts/Test.sol\":4781:4791  msg.sender */\n      caller\n        /* \"contracts/Test.sol\":4775:4792  users[msg.sender] */\n      0xffffffffffffffffffffffffffffffffffffffff\n      and\n      0xffffffffffffffffffffffffffffffffffffffff\n      and\n      dup2\n      mstore\n      0x20\n      add\n      swap1\n      dup2\n      mstore\n      0x20\n      add\n      0x00\n      keccak256\n        /* \"contracts/Test.sol\":4775:4797  users[msg.sender].role */\n      0x00\n      add\n      0x00\n      swap1\n      sload\n      swap1\n      0x0100\n      exp\n      swap1\n      div\n      0xff\n      and\n        /* \"contracts/Test.sol\":4775:4810  users[msg.sender].role == Role.User */\n      0x02\n      dup2\n      gt\n      iszero\n      tag_227\n      jumpi\n      tag_228\n      tag_128\n      jump\t// in\n    tag_228:\n    tag_227:\n      sub\n        /* \"contracts/Test.sol\":4771:4876  if (users[msg.sender].role == Role.User) {... */\n      tag_229\n      jumpi\n        /* \"contracts/Test.sol\":4846:4865  User( Role.User, 0) */\n      mload(0x40)\n      dup1\n      0x40\n      add\n      0x40\n      mstore\n      dup1\n        /* \"contracts/Test.sol\":4852:4861  Role.User */\n      0x00\n        /* \"contracts/Test.sol\":4846:4865  User( Role.User, 0) */\n      0x02\n      dup2\n      gt\n      iszero\n      tag_230\n      jumpi\n      tag_231\n      tag_128\n      jump\t// in\n    tag_231:\n    tag_230:\n      dup2\n      mstore\n      0x20\n      add\n        /* \"contracts/Test.sol\":4863:4864  0 */\n      0x00\n        /* \"contracts/Test.sol\":4846:4865  User( Role.User, 0) */\n      dup2\n      mstore\n      pop\n        /* \"contracts/Test.sol\":4826:4831  users */\n      0x02\n        /* \"contracts/Test.sol\":4826:4843  users[msg.sender] */\n      0x00\n        /* \"contracts/Test.sol\":4832:4842  msg.sender */\n      caller\n        /* \"contracts/Test.sol\":4826:4843  users[msg.sender] */\n      0xffffffffffffffffffffffffffffffffffffffff\n      and\n      0xffffffffffffffffffffffffffffffffffffffff\n      and\n      dup2\n      mstore\n      0x20\n      add\n      swap1\n      dup2\n      mstore\n      0x20\n      add\n      0x00\n      keccak256\n        /* \"contracts/Test.sol\":4826:4865  users[msg.sender] = User( Role.User, 0) */\n      0x00\n      dup3\n      add\n      mload\n      dup2\n      0x00\n      add\n      exp(0x0100, 0x00)\n      dup2\n      sload\n      dup2\n      0xff\n      mul\n      not\n      and\n      swap1\n      dup4\n      0x02\n      dup2\n      gt\n      iszero\n      tag_232\n      jumpi\n      tag_233\n      tag_128\n      jump\t// in\n    tag_233:\n    tag_232:\n      mul\n      or\n      swap1\n      sstore\n      pop\n      0x20\n      dup3\n      add\n      mload\n      dup2\n      0x01\n      add\n      sstore\n      swap1\n      pop\n      pop\n        /* \"contracts/Test.sol\":4771:4876  if (users[msg.sender].role == Role.User) {... */\n    tag_229:\n        /* \"contracts/Test.sol\":4912:4913  0 */\n      0x00\n        /* \"contracts/Test.sol\":4902:4909  _amount */\n      dup4\n        /* \"contracts/Test.sol\":4902:4913  _amount > 0 */\n      gt\n        /* \"contracts/Test.sol\":4894:4956  require(_amount > 0, \"Purchase amount must be greater than 0\") */\n      tag_234\n      jumpi\n      mload(0x40)\n      0x08c379a000000000000000000000000000000000000000000000000000000000\n      dup2\n      mstore\n      0x04\n      add\n      tag_235\n      swap1\n      tag_236\n      jump\t// in\n    tag_235:\n      mload(0x40)\n      dup1\n      swap2\n      sub\n      swap1\n      revert\n    tag_234:\n        /* \"contracts/Test.sol\":4980:4992  userProducts */\n      0x03\n        /* \"contracts/Test.sol\":4980:4999  userProducts[_shop] */\n      0x00\n        /* \"contracts/Test.sol\":4993:4998  _shop */\n      dup6\n        /* \"contracts/Test.sol\":4980:4999  userProducts[_shop] */\n      0xffffffffffffffffffffffffffffffffffffffff\n      and\n      0xffffffffffffffffffffffffffffffffffffffff\n      and\n      dup2\n      mstore\n      0x20\n      add\n      swap1\n      dup2\n      mstore\n      0x20\n      add\n      0x00\n      keccak256\n        /* \"contracts/Test.sol\":4980:5006  userProducts[_shop].length */\n      dup1\n      sload\n      swap1\n      pop\n        /* \"contracts/Test.sol\":4974:4977  _id */\n      dup3\n        /* \"contracts/Test.sol\":4974:5006  _id < userProducts[_shop].length */\n      lt\n        /* \"contracts/Test.sol\":4966:5029  require(_id < userProducts[_shop].length, \"Invalid product ID\") */\n      tag_237\n      jumpi\n      mload(0x40)\n      0x08c379a000000000000000000000000000000000000000000000000000000000\n      dup2\n      mstore\n      0x04\n      add\n      tag_238\n      swap1\n      tag_239\n      jump\t// in\n    tag_238:\n      mload(0x40)\n      dup1\n      swap2\n      sub\n      swap1\n      revert\n    tag_237:\n        /* \"contracts/Test.sol\":5058:5070  userProducts */\n      0x03\n        /* \"contracts/Test.sol\":5058:5077  userProducts[_shop] */\n      0x00\n        /* \"contracts/Test.sol\":5071:5076  _shop */\n      dup6\n        /* \"contracts/Test.sol\":5058:5077  userProducts[_shop] */\n      0xffffffffffffffffffffffffffffffffffffffff\n      and\n      0xffffffffffffffffffffffffffffffffffffffff\n      and\n      dup2\n      mstore\n      0x20\n      add\n      swap1\n      dup2\n      mstore\n      0x20\n      add\n      0x00\n      keccak256\n        /* \"contracts/Test.sol\":5078:5081  _id */\n      dup3\n        /* \"contracts/Test.sol\":5058:5082  userProducts[_shop][_id] */\n      dup2\n      sload\n      dup2\n      lt\n      tag_240\n      jumpi\n      tag_241\n      tag_134\n      jump\t// in\n    tag_241:\n    tag_240:\n      swap1\n      0x00\n      mstore\n      keccak256(0x00, 0x20)\n      swap1\n      0x04\n      mul\n      add\n        /* \"contracts/Test.sol\":5058:5090  userProducts[_shop][_id].inStock */\n      0x00\n      add\n      sload\n        /* \"contracts/Test.sol\":5047:5054  _amount */\n      dup4\n        /* \"contracts/Test.sol\":5047:5090  _amount <= userProducts[_shop][_id].inStock */\n      gt\n      iszero\n        /* \"contracts/Test.sol\":5039:5121  require(_amount <= userProducts[_shop][_id].inStock, \"Not enough stock available\") */\n      tag_243\n      jumpi\n      mload(0x40)\n      0x08c379a000000000000000000000000000000000000000000000000000000000\n      dup2\n      mstore\n      0x04\n      add\n      tag_244\n      swap1\n      tag_245\n      jump\t// in\n    tag_244:\n      mload(0x40)\n      dup1\n      swap2\n      sub\n      swap1\n      revert\n    tag_243:\n        /* \"contracts/Test.sol\":5132:5147  uint totalPrice */\n      0x00\n        /* \"contracts/Test.sol\":5193:5200  1 ether */\n      0x0de0b6b3a7640000\n        /* \"contracts/Test.sol\":5160:5172  userProducts */\n      0x03\n        /* \"contracts/Test.sol\":5160:5179  userProducts[_shop] */\n      0x00\n        /* \"contracts/Test.sol\":5173:5178  _shop */\n      dup8\n        /* \"contracts/Test.sol\":5160:5179  userProducts[_shop] */\n      0xffffffffffffffffffffffffffffffffffffffff\n      and\n      0xffffffffffffffffffffffffffffffffffffffff\n      and\n      dup2\n      mstore\n      0x20\n      add\n      swap1\n      dup2\n      mstore\n      0x20\n      add\n      0x00\n      keccak256\n        /* \"contracts/Test.sol\":5180:5183  _id */\n      dup5\n        /* \"contracts/Test.sol\":5160:5184  userProducts[_shop][_id] */\n      dup2\n      sload\n      dup2\n      lt\n      tag_246\n      jumpi\n      tag_247\n      tag_134\n      jump\t// in\n    tag_247:\n    tag_246:\n      swap1\n      0x00\n      mstore\n      keccak256(0x00, 0x20)\n      swap1\n      0x04\n      mul\n      add\n        /* \"contracts/Test.sol\":5160:5190  userProducts[_shop][_id].price */\n      0x01\n      add\n      sload\n        /* \"contracts/Test.sol\":5150:5157  _amount */\n      dup6\n        /* \"contracts/Test.sol\":5150:5190  _amount * userProducts[_shop][_id].price */\n      tag_249\n      swap2\n      swap1\n      tag_147\n      jump\t// in\n    tag_249:\n        /* \"contracts/Test.sol\":5150:5200  _amount * userProducts[_shop][_id].price * 1 ether */\n      tag_250\n      swap2\n      swap1\n      tag_147\n      jump\t// in\n    tag_250:\n        /* \"contracts/Test.sol\":5132:5200  uint totalPrice = _amount * userProducts[_shop][_id].price * 1 ether */\n      swap1\n      pop\n        /* \"contracts/Test.sol\":5234:5244  msg.sender */\n      caller\n        /* \"contracts/Test.sol\":5215:5244  referrals[_ref] == msg.sender */\n      0xffffffffffffffffffffffffffffffffffffffff\n      and\n        /* \"contracts/Test.sol\":5215:5224  referrals */\n      0x04\n        /* \"contracts/Test.sol\":5225:5229  _ref */\n      dup4\n        /* \"contracts/Test.sol\":5215:5230  referrals[_ref] */\n      mload(0x40)\n      tag_251\n      swap2\n      swap1\n      tag_252\n      jump\t// in\n    tag_251:\n      swap1\n      dup2\n      mstore\n      0x20\n      add\n      mload(0x40)\n      dup1\n      swap2\n      sub\n      swap1\n      keccak256\n      0x00\n      swap1\n      sload\n      swap1\n      0x0100\n      exp\n      swap1\n      div\n      0xffffffffffffffffffffffffffffffffffffffff\n      and\n        /* \"contracts/Test.sol\":5215:5244  referrals[_ref] == msg.sender */\n      0xffffffffffffffffffffffffffffffffffffffff\n      and\n      sub\n        /* \"contracts/Test.sol\":5211:5349  if (referrals[_ref] == msg.sender) {... */\n      tag_253\n      jumpi\n        /* \"contracts/Test.sol\":5292:5295  100 */\n      0x64\n        /* \"contracts/Test.sol\":5287:5289  90 */\n      0x5a\n        /* \"contracts/Test.sol\":5274:5284  totalPrice */\n      dup3\n        /* \"contracts/Test.sol\":5274:5289  totalPrice * 90 */\n      tag_254\n      swap2\n      swap1\n      tag_147\n      jump\t// in\n    tag_254:\n        /* \"contracts/Test.sol\":5274:5295  totalPrice * 90 / 100 */\n      tag_255\n      swap2\n      swap1\n      tag_220\n      jump\t// in\n    tag_255:\n        /* \"contracts/Test.sol\":5260:5296  totalPrice = (totalPrice * 90 / 100) */\n      swap1\n      pop\n        /* \"contracts/Test.sol\":5336:5337  0 */\n      0x00\n        /* \"contracts/Test.sol\":5310:5319  referrals */\n      0x04\n        /* \"contracts/Test.sol\":5320:5324  _ref */\n      dup4\n        /* \"contracts/Test.sol\":5310:5325  referrals[_ref] */\n      mload(0x40)\n      tag_256\n      swap2\n      swap1\n      tag_252\n      jump\t// in\n    tag_256:\n      swap1\n      dup2\n      mstore\n      0x20\n      add\n      mload(0x40)\n      dup1\n      swap2\n      sub\n      swap1\n      keccak256\n      0x00\n        /* \"contracts/Test.sol\":5310:5338  referrals[_ref] = address(0) */\n      0x0100\n      exp\n      dup2\n      sload\n      dup2\n      0xffffffffffffffffffffffffffffffffffffffff\n      mul\n      not\n      and\n      swap1\n      dup4\n      0xffffffffffffffffffffffffffffffffffffffff\n      and\n      mul\n      or\n      swap1\n      sstore\n      pop\n        /* \"contracts/Test.sol\":5211:5349  if (referrals[_ref] == msg.sender) {... */\n    tag_253:\n        /* \"contracts/Test.sol\":5380:5390  totalPrice */\n      dup1\n        /* \"contracts/Test.sol\":5367:5376  msg.value */\n      callvalue\n        /* \"contracts/Test.sol\":5367:5390  msg.value >= totalPrice */\n      lt\n      iszero\n        /* \"contracts/Test.sol\":5359:5418  require(msg.value >= totalPrice, \"Insufficient funds sent\") */\n      tag_257\n      jumpi\n      mload(0x40)\n      0x08c379a000000000000000000000000000000000000000000000000000000000\n      dup2\n      mstore\n      0x04\n      add\n      tag_258\n      swap1\n      tag_259\n      jump\t// in\n    tag_258:\n      mload(0x40)\n      dup1\n      swap2\n      sub\n      swap1\n      revert\n    tag_257:\n        /* \"contracts/Test.sol\":5428:5446  bool productExists */\n      0x00\n        /* \"contracts/Test.sol\":5470:5476  uint i */\n      dup1\n        /* \"contracts/Test.sol\":5465:5796  for (uint i = 0; i < userProducts[msg.sender].length; i++) {... */\n    tag_260:\n        /* \"contracts/Test.sol\":5486:5498  userProducts */\n      0x03\n        /* \"contracts/Test.sol\":5486:5510  userProducts[msg.sender] */\n      0x00\n        /* \"contracts/Test.sol\":5499:5509  msg.sender */\n      caller\n        /* \"contracts/Test.sol\":5486:5510  userProducts[msg.sender] */\n      0xffffffffffffffffffffffffffffffffffffffff\n      and\n      0xffffffffffffffffffffffffffffffffffffffff\n      and\n      dup2\n      mstore\n      0x20\n      add\n      swap1\n      dup2\n      mstore\n      0x20\n      add\n      0x00\n      keccak256\n        /* \"contracts/Test.sol\":5486:5517  userProducts[msg.sender].length */\n      dup1\n      sload\n      swap1\n      pop\n        /* \"contracts/Test.sol\":5482:5483  i */\n      dup2\n        /* \"contracts/Test.sol\":5482:5517  i < userProducts[msg.sender].length */\n      lt\n        /* \"contracts/Test.sol\":5465:5796  for (uint i = 0; i < userProducts[msg.sender].length; i++) {... */\n      iszero\n      tag_261\n      jumpi\n        /* \"contracts/Test.sol\":5612:5624  userProducts */\n      0x03\n        /* \"contracts/Test.sol\":5612:5631  userProducts[_shop] */\n      0x00\n        /* \"contracts/Test.sol\":5625:5630  _shop */\n      dup9\n        /* \"contracts/Test.sol\":5612:5631  userProducts[_shop] */\n      0xffffffffffffffffffffffffffffffffffffffff\n      and\n      0xffffffffffffffffffffffffffffffffffffffff\n      and\n      dup2\n      mstore\n      0x20\n      add\n      swap1\n      dup2\n      mstore\n      0x20\n      add\n      0x00\n      keccak256\n        /* \"contracts/Test.sol\":5632:5635  _id */\n      dup6\n        /* \"contracts/Test.sol\":5612:5636  userProducts[_shop][_id] */\n      dup2\n      sload\n      dup2\n      lt\n      tag_263\n      jumpi\n      tag_264\n      tag_134\n      jump\t// in\n    tag_264:\n    tag_263:\n      swap1\n      0x00\n      mstore\n      keccak256(0x00, 0x20)\n      swap1\n      0x04\n      mul\n      add\n        /* \"contracts/Test.sol\":5612:5641  userProducts[_shop][_id].name */\n      0x02\n      add\n        /* \"contracts/Test.sol\":5596:5643  keccak256(bytes(userProducts[_shop][_id].name)) */\n      mload(0x40)\n      tag_266\n      swap2\n      swap1\n      tag_267\n      jump\t// in\n    tag_266:\n      mload(0x40)\n      dup1\n      swap2\n      sub\n      swap1\n      keccak256\n        /* \"contracts/Test.sol\":5558:5570  userProducts */\n      0x03\n        /* \"contracts/Test.sol\":5558:5582  userProducts[msg.sender] */\n      0x00\n        /* \"contracts/Test.sol\":5571:5581  msg.sender */\n      caller\n        /* \"contracts/Test.sol\":5558:5582  userProducts[msg.sender] */\n      0xffffffffffffffffffffffffffffffffffffffff\n      and\n      0xffffffffffffffffffffffffffffffffffffffff\n      and\n      dup2\n      mstore\n      0x20\n      add\n      swap1\n      dup2\n      mstore\n      0x20\n      add\n      0x00\n      keccak256\n        /* \"contracts/Test.sol\":5583:5584  i */\n      dup3\n        /* \"contracts/Test.sol\":5558:5585  userProducts[msg.sender][i] */\n      dup2\n      sload\n      dup2\n      lt\n      tag_268\n      jumpi\n      tag_269\n      tag_134\n      jump\t// in\n    tag_269:\n    tag_268:\n      swap1\n      0x00\n      mstore\n      keccak256(0x00, 0x20)\n      swap1\n      0x04\n      mul\n      add\n        /* \"contracts/Test.sol\":5558:5590  userProducts[msg.sender][i].name */\n      0x02\n      add\n        /* \"contracts/Test.sol\":5542:5592  keccak256(bytes(userProducts[msg.sender][i].name)) */\n      mload(0x40)\n      tag_271\n      swap2\n      swap1\n      tag_267\n      jump\t// in\n    tag_271:\n      mload(0x40)\n      dup1\n      swap2\n      sub\n      swap1\n      keccak256\n        /* \"contracts/Test.sol\":5542:5643  keccak256(bytes(userProducts[msg.sender][i].name)) == keccak256(bytes(userProducts[_shop][_id].name)) */\n      sub\n        /* \"contracts/Test.sol\":5538:5786  if (keccak256(bytes(userProducts[msg.sender][i].name)) == keccak256(bytes(userProducts[_shop][_id].name))) {... */\n      tag_272\n      jumpi\n        /* \"contracts/Test.sol\":5702:5709  _amount */\n      dup6\n        /* \"contracts/Test.sol\":5663:5675  userProducts */\n      0x03\n        /* \"contracts/Test.sol\":5663:5687  userProducts[msg.sender] */\n      0x00\n        /* \"contracts/Test.sol\":5676:5686  msg.sender */\n      caller\n        /* \"contracts/Test.sol\":5663:5687  userProducts[msg.sender] */\n      0xffffffffffffffffffffffffffffffffffffffff\n      and\n      0xffffffffffffffffffffffffffffffffffffffff\n      and\n      dup2\n      mstore\n      0x20\n      add\n      swap1\n      dup2\n      mstore\n      0x20\n      add\n      0x00\n      keccak256\n        /* \"contracts/Test.sol\":5688:5689  i */\n      dup3\n        /* \"contracts/Test.sol\":5663:5690  userProducts[msg.sender][i] */\n      dup2\n      sload\n      dup2\n      lt\n      tag_273\n      jumpi\n      tag_274\n      tag_134\n      jump\t// in\n    tag_274:\n    tag_273:\n      swap1\n      0x00\n      mstore\n      keccak256(0x00, 0x20)\n      swap1\n      0x04\n      mul\n      add\n        /* \"contracts/Test.sol\":5663:5698  userProducts[msg.sender][i].inStock */\n      0x00\n      add\n      0x00\n        /* \"contracts/Test.sol\":5663:5709  userProducts[msg.sender][i].inStock += _amount */\n      dup3\n      dup3\n      sload\n      tag_276\n      swap2\n      swap1\n      tag_156\n      jump\t// in\n    tag_276:\n      swap3\n      pop\n      pop\n      dup2\n      swap1\n      sstore\n      pop\n        /* \"contracts/Test.sol\":5743:5747  true */\n      0x01\n        /* \"contracts/Test.sol\":5727:5747  productExists = true */\n      swap2\n      pop\n        /* \"contracts/Test.sol\":5765:5770  break */\n      jump(tag_261)\n        /* \"contracts/Test.sol\":5538:5786  if (keccak256(bytes(userProducts[msg.sender][i].name)) == keccak256(bytes(userProducts[_shop][_id].name))) {... */\n    tag_272:\n        /* \"contracts/Test.sol\":5519:5522  i++ */\n      dup1\n      dup1\n      tag_277\n      swap1\n      tag_202\n      jump\t// in\n    tag_277:\n      swap2\n      pop\n      pop\n        /* \"contracts/Test.sol\":5465:5796  for (uint i = 0; i < userProducts[msg.sender].length; i++) {... */\n      jump(tag_260)\n    tag_261:\n      pop\n        /* \"contracts/Test.sol\":5811:5824  productExists */\n      dup1\n        /* \"contracts/Test.sol\":5806:6022  if (!productExists) {... */\n      tag_278\n      jumpi\n        /* \"contracts/Test.sol\":5840:5862  Product memory newItem */\n      0x00\n        /* \"contracts/Test.sol\":5865:5959  Product(_amount, userProducts[_shop][_id].price, userProducts[_shop][_id].name, randMod(1000)) */\n      mload(0x40)\n      dup1\n      0x80\n      add\n      0x40\n      mstore\n      dup1\n        /* \"contracts/Test.sol\":5873:5880  _amount */\n      dup8\n        /* \"contracts/Test.sol\":5865:5959  Product(_amount, userProducts[_shop][_id].price, userProducts[_shop][_id].name, randMod(1000)) */\n      dup2\n      mstore\n      0x20\n      add\n        /* \"contracts/Test.sol\":5882:5894  userProducts */\n      0x03\n        /* \"contracts/Test.sol\":5882:5901  userProducts[_shop] */\n      0x00\n        /* \"contracts/Test.sol\":5895:5900  _shop */\n      dup11\n        /* \"contracts/Test.sol\":5882:5901  userProducts[_shop] */\n      0xffffffffffffffffffffffffffffffffffffffff\n      and\n      0xffffffffffffffffffffffffffffffffffffffff\n      and\n      dup2\n      mstore\n      0x20\n      add\n      swap1\n      dup2\n      mstore\n      0x20\n      add\n      0x00\n      keccak256\n        /* \"contracts/Test.sol\":5902:5905  _id */\n      dup8\n        /* \"contracts/Test.sol\":5882:5906  userProducts[_shop][_id] */\n      dup2\n      sload\n      dup2\n      lt\n      tag_279\n      jumpi\n      tag_280\n      tag_134\n      jump\t// in\n    tag_280:\n    tag_279:\n      swap1\n      0x00\n      mstore\n      keccak256(0x00, 0x20)\n      swap1\n      0x04\n      mul\n      add\n        /* \"contracts/Test.sol\":5882:5912  userProducts[_shop][_id].price */\n      0x01\n      add\n      sload\n        /* \"contracts/Test.sol\":5865:5959  Product(_amount, userProducts[_shop][_id].price, userProducts[_shop][_id].name, randMod(1000)) */\n      dup2\n      mstore\n      0x20\n      add\n        /* \"contracts/Test.sol\":5914:5926  userProducts */\n      0x03\n        /* \"contracts/Test.sol\":5914:5933  userProducts[_shop] */\n      0x00\n        /* \"contracts/Test.sol\":5927:5932  _shop */\n      dup11\n        /* \"contracts/Test.sol\":5914:5933  userProducts[_shop] */\n      0xffffffffffffffffffffffffffffffffffffffff\n      and\n      0xffffffffffffffffffffffffffffffffffffffff\n      and\n      dup2\n      mstore\n      0x20\n      add\n      swap1\n      dup2\n      mstore\n      0x20\n      add\n      0x00\n      keccak256\n        /* \"contracts/Test.sol\":5934:5937  _id */\n      dup8\n        /* \"contracts/Test.sol\":5914:5938  userProducts[_shop][_id] */\n      dup2\n      sload\n      dup2\n      lt\n      tag_282\n      jumpi\n      tag_283\n      tag_134\n      jump\t// in\n    tag_283:\n    tag_282:\n      swap1\n      0x00\n      mstore\n      keccak256(0x00, 0x20)\n      swap1\n      0x04\n      mul\n      add\n        /* \"contracts/Test.sol\":5914:5943  userProducts[_shop][_id].name */\n      0x02\n      add\n        /* \"contracts/Test.sol\":5865:5959  Product(_amount, userProducts[_shop][_id].price, userProducts[_shop][_id].name, randMod(1000)) */\n      dup1\n      sload\n      tag_285\n      swap1\n      tag_113\n      jump\t// in\n    tag_285:\n      dup1\n      0x1f\n      add\n      0x20\n      dup1\n      swap2\n      div\n      mul\n      0x20\n      add\n      mload(0x40)\n      swap1\n      dup2\n      add\n      0x40\n      mstore\n      dup1\n      swap3\n      swap2\n      swap1\n      dup2\n      dup2\n      mstore\n      0x20\n      add\n      dup3\n      dup1\n      sload\n      tag_286\n      swap1\n      tag_113\n      jump\t// in\n    tag_286:\n      dup1\n      iszero\n      tag_287\n      jumpi\n      dup1\n      0x1f\n      lt\n      tag_288\n      jumpi\n      0x0100\n      dup1\n      dup4\n      sload\n      div\n      mul\n      dup4\n      mstore\n      swap2\n      0x20\n      add\n      swap2\n      jump(tag_287)\n    tag_288:\n      dup3\n      add\n      swap2\n      swap1\n      0x00\n      mstore\n      keccak256(0x00, 0x20)\n      swap1\n    tag_289:\n      dup2\n      sload\n      dup2\n      mstore\n      swap1\n      0x01\n      add\n      swap1\n      0x20\n      add\n      dup1\n      dup4\n      gt\n      tag_289\n      jumpi\n      dup3\n      swap1\n      sub\n      0x1f\n      and\n      dup3\n      add\n      swap2\n    tag_287:\n      pop\n      pop\n      pop\n      pop\n      pop\n      dup2\n      mstore\n      0x20\n      add\n        /* \"contracts/Test.sol\":5945:5958  randMod(1000) */\n      tag_290\n        /* \"contracts/Test.sol\":5953:5957  1000 */\n      0x03e8\n        /* \"contracts/Test.sol\":5945:5952  randMod */\n      tag_64\n        /* \"contracts/Test.sol\":5945:5958  randMod(1000) */\n      jump\t// in\n    tag_290:\n        /* \"contracts/Test.sol\":5865:5959  Product(_amount, userProducts[_shop][_id].price, userProducts[_shop][_id].name, randMod(1000)) */\n      dup2\n      mstore\n      pop\n        /* \"contracts/Test.sol\":5840:5959  Product memory newItem = Product(_amount, userProducts[_shop][_id].price, userProducts[_shop][_id].name, randMod(1000)) */\n      swap1\n      pop\n        /* \"contracts/Test.sol\":5973:5985  userProducts */\n      0x03\n        /* \"contracts/Test.sol\":5973:5997  userProducts[msg.sender] */\n      0x00\n        /* \"contracts/Test.sol\":5986:5996  msg.sender */\n      caller\n        /* \"contracts/Test.sol\":5973:5997  userProducts[msg.sender] */\n      0xffffffffffffffffffffffffffffffffffffffff\n      and\n      0xffffffffffffffffffffffffffffffffffffffff\n      and\n      dup2\n      mstore\n      0x20\n      add\n      swap1\n      dup2\n      mstore\n      0x20\n      add\n      0x00\n      keccak256\n        /* \"contracts/Test.sol\":6003:6010  newItem */\n      dup2\n        /* \"contracts/Test.sol\":5973:6011  userProducts[msg.sender].push(newItem) */\n      swap1\n      dup1\n      0x01\n      dup2\n      sload\n      add\n      dup1\n      dup3\n      sstore\n      dup1\n      swap2\n      pop\n      pop\n      0x01\n      swap1\n      sub\n      swap1\n      0x00\n      mstore\n      keccak256(0x00, 0x20)\n      swap1\n      0x04\n      mul\n      add\n      0x00\n      swap1\n      swap2\n      swap1\n      swap2\n      swap1\n      swap2\n      pop\n      0x00\n      dup3\n      add\n      mload\n      dup2\n      0x00\n      add\n      sstore\n      0x20\n      dup3\n      add\n      mload\n      dup2\n      0x01\n      add\n      sstore\n      0x40\n      dup3\n      add\n      mload\n      dup2\n      0x02\n      add\n      swap1\n      dup2\n      tag_292\n      swap2\n      swap1\n      tag_223\n      jump\t// in\n    tag_292:\n      pop\n      0x60\n      dup3\n      add\n      mload\n      dup2\n      0x03\n      add\n      sstore\n      pop\n      pop\n        /* \"contracts/Test.sol\":5826:6022  {... */\n      pop\n        /* \"contracts/Test.sol\":5806:6022  if (!productExists) {... */\n    tag_278:\n        /* \"contracts/Test.sol\":6068:6075  _amount */\n      dup5\n        /* \"contracts/Test.sol\":6032:6044  userProducts */\n      0x03\n        /* \"contracts/Test.sol\":6032:6051  userProducts[_shop] */\n      0x00\n        /* \"contracts/Test.sol\":6045:6050  _shop */\n      dup9\n        /* \"contracts/Test.sol\":6032:6051  userProducts[_shop] */\n      0xffffffffffffffffffffffffffffffffffffffff\n      and\n      0xffffffffffffffffffffffffffffffffffffffff\n      and\n      dup2\n      mstore\n      0x20\n      add\n      swap1\n      dup2\n      mstore\n      0x20\n      add\n      0x00\n      keccak256\n        /* \"contracts/Test.sol\":6052:6055  _id */\n      dup6\n        /* \"contracts/Test.sol\":6032:6056  userProducts[_shop][_id] */\n      dup2\n      sload\n      dup2\n      lt\n      tag_293\n      jumpi\n      tag_294\n      tag_134\n      jump\t// in\n    tag_294:\n    tag_293:\n      swap1\n      0x00\n      mstore\n      keccak256(0x00, 0x20)\n      swap1\n      0x04\n      mul\n      add\n        /* \"contracts/Test.sol\":6032:6064  userProducts[_shop][_id].inStock */\n      0x00\n      add\n      0x00\n        /* \"contracts/Test.sol\":6032:6075  userProducts[_shop][_id].inStock -= _amount */\n      dup3\n      dup3\n      sload\n      tag_296\n      swap2\n      swap1\n      tag_163\n      jump\t// in\n    tag_296:\n      swap3\n      pop\n      pop\n      dup2\n      swap1\n      sstore\n      pop\n        /* \"contracts/Test.sol\":6108:6118  totalPrice */\n      dup2\n        /* \"contracts/Test.sol\":6085:6090  users */\n      0x02\n        /* \"contracts/Test.sol\":6085:6097  users[_shop] */\n      0x00\n        /* \"contracts/Test.sol\":6091:6096  _shop */\n      dup9\n        /* \"contracts/Test.sol\":6085:6097  users[_shop] */\n      0xffffffffffffffffffffffffffffffffffffffff\n      and\n      0xffffffffffffffffffffffffffffffffffffffff\n      and\n      dup2\n      mstore\n      0x20\n      add\n      swap1\n      dup2\n      mstore\n      0x20\n      add\n      0x00\n      keccak256\n        /* \"contracts/Test.sol\":6085:6105  users[_shop].balance */\n      0x01\n      add\n        /* \"contracts/Test.sol\":6085:6118  users[_shop].balance = totalPrice */\n      dup2\n      swap1\n      sstore\n      pop\n        /* \"contracts/Test.sol\":6145:6155  totalPrice */\n      dup2\n        /* \"contracts/Test.sol\":6133:6142  msg.value */\n      callvalue\n        /* \"contracts/Test.sol\":6133:6155  msg.value > totalPrice */\n      gt\n        /* \"contracts/Test.sol\":6129:6234  if (msg.value > totalPrice) {... */\n      iszero\n      tag_297\n      jumpi\n        /* \"contracts/Test.sol\":6179:6189  msg.sender */\n      caller\n        /* \"contracts/Test.sol\":6171:6199  payable(msg.sender).transfer */\n      0xffffffffffffffffffffffffffffffffffffffff\n      and\n        /* \"contracts/Test.sol\":6171:6223  payable(msg.sender).transfer(msg.value - totalPrice) */\n      0x08fc\n        /* \"contracts/Test.sol\":6212:6222  totalPrice */\n      dup4\n        /* \"contracts/Test.sol\":6200:6209  msg.value */\n      callvalue\n        /* \"contracts/Test.sol\":6200:6222  msg.value - totalPrice */\n      tag_298\n      swap2\n      swap1\n      tag_163\n      jump\t// in\n    tag_298:\n        /* \"contracts/Test.sol\":6171:6223  payable(msg.sender).transfer(msg.value - totalPrice) */\n      swap1\n      dup2\n      iszero\n      mul\n      swap1\n      mload(0x40)\n      0x00\n      mload(0x40)\n      dup1\n      dup4\n      sub\n      dup2\n      dup6\n      dup9\n      dup9\n      call\n      swap4\n      pop\n      pop\n      pop\n      pop\n      iszero\n      dup1\n      iszero\n      tag_300\n      jumpi\n      returndatasize\n      0x00\n      dup1\n      returndatacopy\n      revert(0x00, returndatasize)\n    tag_300:\n      pop\n        /* \"contracts/Test.sol\":6129:6234  if (msg.value > totalPrice) {... */\n    tag_297:\n        /* \"contracts/Test.sol\":4761:6240  {... */\n      pop\n      pop\n        /* \"contracts/Test.sol\":4668:6240  function purchase(address _shop, uint _amount, uint _id, string memory _ref ) public payable {... */\n      pop\n      pop\n      pop\n      pop\n      jump\t// out\n        /* \"contracts/Test.sol\":2372:2516  function genRef(string memory _nameRef, address _user) public {... */\n    tag_85:\n        /* \"contracts/Test.sol\":2466:2471  _user */\n      dup1\n        /* \"contracts/Test.sol\":2452:2471  msg.sender != _user */\n      0xffffffffffffffffffffffffffffffffffffffff\n      and\n        /* \"contracts/Test.sol\":2452:2462  msg.sender */\n      caller\n        /* \"contracts/Test.sol\":2452:2471  msg.sender != _user */\n      0xffffffffffffffffffffffffffffffffffffffff\n      and\n      sub\n        /* \"contracts/Test.sol\":2444:2472  require(msg.sender != _user) */\n      tag_302\n      jumpi\n      0x00\n      dup1\n      revert\n    tag_302:\n        /* \"contracts/Test.sol\":2504:2509  _user */\n      dup1\n        /* \"contracts/Test.sol\":2482:2491  referrals */\n      0x04\n        /* \"contracts/Test.sol\":2492:2500  _nameRef */\n      dup4\n        /* \"contracts/Test.sol\":2482:2501  referrals[_nameRef] */\n      mload(0x40)\n      tag_303\n      swap2\n      swap1\n      tag_252\n      jump\t// in\n    tag_303:\n      swap1\n      dup2\n      mstore\n      0x20\n      add\n      mload(0x40)\n      dup1\n      swap2\n      sub\n      swap1\n      keccak256\n      0x00\n        /* \"contracts/Test.sol\":2482:2509  referrals[_nameRef] = _user */\n      0x0100\n      exp\n      dup2\n      sload\n      dup2\n      0xffffffffffffffffffffffffffffffffffffffff\n      mul\n      not\n      and\n      swap1\n      dup4\n      0xffffffffffffffffffffffffffffffffffffffff\n      and\n      mul\n      or\n      swap1\n      sstore\n      pop\n        /* \"contracts/Test.sol\":2372:2516  function genRef(string memory _nameRef, address _user) public {... */\n      pop\n      pop\n      jump\t// out\n        /* \"contracts/Test.sol\":497:534  mapping(address => User) public users */\n    tag_90:\n      mstore(0x20, 0x02)\n      dup1\n      0x00\n      mstore\n      keccak256(0x00, 0x40)\n      0x00\n      swap2\n      pop\n      swap1\n      pop\n      dup1\n      0x00\n      add\n      0x00\n      swap1\n      sload\n      swap1\n      0x0100\n      exp\n      swap1\n      div\n      0xff\n      and\n      swap1\n      dup1\n      0x01\n      add\n      sload\n      swap1\n      pop\n      dup3\n      jump\t// out\n        /* \"contracts/Test.sol\":1279:1550  function makeUser() public {... */\n    tag_95:\n        /* \"contracts/Test.sol\":1336:1354  User(Role.User, 0) */\n      mload(0x40)\n      dup1\n      0x40\n      add\n      0x40\n      mstore\n      dup1\n        /* \"contracts/Test.sol\":1341:1350  Role.User */\n      0x00\n        /* \"contracts/Test.sol\":1336:1354  User(Role.User, 0) */\n      0x02\n      dup2\n      gt\n      iszero\n      tag_305\n      jumpi\n      tag_306\n      tag_128\n      jump\t// in\n    tag_306:\n    tag_305:\n      dup2\n      mstore\n      0x20\n      add\n        /* \"contracts/Test.sol\":1352:1353  0 */\n      0x00\n        /* \"contracts/Test.sol\":1336:1354  User(Role.User, 0) */\n      dup2\n      mstore\n      pop\n        /* \"contracts/Test.sol\":1316:1321  users */\n      0x02\n        /* \"contracts/Test.sol\":1316:1333  users[msg.sender] */\n      0x00\n        /* \"contracts/Test.sol\":1322:1332  msg.sender */\n      caller\n        /* \"contracts/Test.sol\":1316:1333  users[msg.sender] */\n      0xffffffffffffffffffffffffffffffffffffffff\n      and\n      0xffffffffffffffffffffffffffffffffffffffff\n      and\n      dup2\n      mstore\n      0x20\n      add\n      swap1\n      dup2\n      mstore\n      0x20\n      add\n      0x00\n      keccak256\n        /* \"contracts/Test.sol\":1316:1354  users[msg.sender] = User(Role.User, 0) */\n      0x00\n      dup3\n      add\n      mload\n      dup2\n      0x00\n      add\n      exp(0x0100, 0x00)\n      dup2\n      sload\n      dup2\n      0xff\n      mul\n      not\n      and\n      swap1\n      dup4\n      0x02\n      dup2\n      gt\n      iszero\n      tag_307\n      jumpi\n      tag_308\n      tag_128\n      jump\t// in\n    tag_308:\n    tag_307:\n      mul\n      or\n      swap1\n      sstore\n      pop\n      0x20\n      dup3\n      add\n      mload\n      dup2\n      0x01\n      add\n      sstore\n      swap1\n      pop\n      pop\n        /* \"contracts/Test.sol\":1364:1376  productItems */\n      0x05\n        /* \"contracts/Test.sol\":1364:1388  productItems[msg.sender] */\n      0x00\n        /* \"contracts/Test.sol\":1377:1387  msg.sender */\n      caller\n        /* \"contracts/Test.sol\":1364:1388  productItems[msg.sender] */\n      0xffffffffffffffffffffffffffffffffffffffff\n      and\n      0xffffffffffffffffffffffffffffffffffffffff\n      and\n      dup2\n      mstore\n      0x20\n      add\n      swap1\n      dup2\n      mstore\n      0x20\n      add\n      0x00\n      keccak256\n        /* \"contracts/Test.sol\":1394:1416  Product(13, 0, \" \", 0) */\n      mload(0x40)\n      dup1\n      0x80\n      add\n      0x40\n      mstore\n      dup1\n        /* \"contracts/Test.sol\":1402:1404  13 */\n      0x0d\n        /* \"contracts/Test.sol\":1394:1416  Product(13, 0, \" \", 0) */\n      dup2\n      mstore\n      0x20\n      add\n        /* \"contracts/Test.sol\":1406:1407  0 */\n      0x00\n        /* \"contracts/Test.sol\":1394:1416  Product(13, 0, \" \", 0) */\n      dup2\n      mstore\n      0x20\n      add\n      mload(0x40)\n      dup1\n      0x40\n      add\n      0x40\n      mstore\n      dup1\n      0x01\n      dup2\n      mstore\n      0x20\n      add\n      0x2000000000000000000000000000000000000000000000000000000000000000\n      dup2\n      mstore\n      pop\n      dup2\n      mstore\n      0x20\n      add\n        /* \"contracts/Test.sol\":1414:1415  0 */\n      0x00\n        /* \"contracts/Test.sol\":1394:1416  Product(13, 0, \" \", 0) */\n      dup2\n      mstore\n      pop\n        /* \"contracts/Test.sol\":1364:1417  productItems[msg.sender].push(Product(13, 0, \" \", 0)) */\n      swap1\n      dup1\n      0x01\n      dup2\n      sload\n      add\n      dup1\n      dup3\n      sstore\n      dup1\n      swap2\n      pop\n      pop\n      0x01\n      swap1\n      sub\n      swap1\n      0x00\n      mstore\n      keccak256(0x00, 0x20)\n      swap1\n      0x04\n      mul\n      add\n      0x00\n      swap1\n      swap2\n      swap1\n      swap2\n      swap1\n      swap2\n      pop\n      0x00\n      dup3\n      add\n      mload\n      dup2\n      0x00\n      add\n      sstore\n      0x20\n      dup3\n      add\n      mload\n      dup2\n      0x01\n      add\n      sstore\n      0x40\n      dup3\n      add\n      mload\n      dup2\n      0x02\n      add\n      swap1\n      dup2\n      tag_310\n      swap2\n      swap1\n      tag_223\n      jump\t// in\n    tag_310:\n      pop\n      0x60\n      dup3\n      add\n      mload\n      dup2\n      0x03\n      add\n      sstore\n      pop\n      pop\n        /* \"contracts/Test.sol\":1427:1439  productItems */\n      0x05\n        /* \"contracts/Test.sol\":1427:1451  productItems[msg.sender] */\n      0x00\n        /* \"contracts/Test.sol\":1440:1450  msg.sender */\n      caller\n        /* \"contracts/Test.sol\":1427:1451  productItems[msg.sender] */\n      0xffffffffffffffffffffffffffffffffffffffff\n      and\n      0xffffffffffffffffffffffffffffffffffffffff\n      and\n      dup2\n      mstore\n      0x20\n      add\n      swap1\n      dup2\n      mstore\n      0x20\n      add\n      0x00\n      keccak256\n        /* \"contracts/Test.sol\":1457:1479  Product(28, 0, \" \", 0) */\n      mload(0x40)\n      dup1\n      0x80\n      add\n      0x40\n      mstore\n      dup1\n        /* \"contracts/Test.sol\":1465:1467  28 */\n      0x1c\n        /* \"contracts/Test.sol\":1457:1479  Product(28, 0, \" \", 0) */\n      dup2\n      mstore\n      0x20\n      add\n        /* \"contracts/Test.sol\":1469:1470  0 */\n      0x00\n        /* \"contracts/Test.sol\":1457:1479  Product(28, 0, \" \", 0) */\n      dup2\n      mstore\n      0x20\n      add\n      mload(0x40)\n      dup1\n      0x40\n      add\n      0x40\n      mstore\n      dup1\n      0x01\n      dup2\n      mstore\n      0x20\n      add\n      0x2000000000000000000000000000000000000000000000000000000000000000\n      dup2\n      mstore\n      pop\n      dup2\n      mstore\n      0x20\n      add\n        /* \"contracts/Test.sol\":1477:1478  0 */\n      0x00\n        /* \"contracts/Test.sol\":1457:1479  Product(28, 0, \" \", 0) */\n      dup2\n      mstore\n      pop\n        /* \"contracts/Test.sol\":1427:1480  productItems[msg.sender].push(Product(28, 0, \" \", 0)) */\n      swap1\n      dup1\n      0x01\n      dup2\n      sload\n      add\n      dup1\n      dup3\n      sstore\n      dup1\n      swap2\n      pop\n      pop\n      0x01\n      swap1\n      sub\n      swap1\n      0x00\n      mstore\n      keccak256(0x00, 0x20)\n      swap1\n      0x04\n      mul\n      add\n      0x00\n      swap1\n      swap2\n      swap1\n      swap2\n      swap1\n      swap2\n      pop\n      0x00\n      dup3\n      add\n      mload\n      dup2\n      0x00\n      add\n      sstore\n      0x20\n      dup3\n      add\n      mload\n      dup2\n      0x01\n      add\n      sstore\n      0x40\n      dup3\n      add\n      mload\n      dup2\n      0x02\n      add\n      swap1\n      dup2\n      tag_312\n      swap2\n      swap1\n      tag_223\n      jump\t// in\n    tag_312:\n      pop\n      0x60\n      dup3\n      add\n      mload\n      dup2\n      0x03\n      add\n      sstore\n      pop\n      pop\n        /* \"contracts/Test.sol\":1490:1502  productItems */\n      0x05\n        /* \"contracts/Test.sol\":1490:1514  productItems[msg.sender] */\n      0x00\n        /* \"contracts/Test.sol\":1503:1513  msg.sender */\n      caller\n        /* \"contracts/Test.sol\":1490:1514  productItems[msg.sender] */\n      0xffffffffffffffffffffffffffffffffffffffff\n      and\n      0xffffffffffffffffffffffffffffffffffffffff\n      and\n      dup2\n      mstore\n      0x20\n      add\n      swap1\n      dup2\n      mstore\n      0x20\n      add\n      0x00\n      keccak256\n        /* \"contracts/Test.sol\":1520:1542  Product(52, 0, \" \", 0) */\n      mload(0x40)\n      dup1\n      0x80\n      add\n      0x40\n      mstore\n      dup1\n        /* \"contracts/Test.sol\":1528:1530  52 */\n      0x34\n        /* \"contracts/Test.sol\":1520:1542  Product(52, 0, \" \", 0) */\n      dup2\n      mstore\n      0x20\n      add\n        /* \"contracts/Test.sol\":1532:1533  0 */\n      0x00\n        /* \"contracts/Test.sol\":1520:1542  Product(52, 0, \" \", 0) */\n      dup2\n      mstore\n      0x20\n      add\n      mload(0x40)\n      dup1\n      0x40\n      add\n      0x40\n      mstore\n      dup1\n      0x01\n      dup2\n      mstore\n      0x20\n      add\n      0x2000000000000000000000000000000000000000000000000000000000000000\n      dup2\n      mstore\n      pop\n      dup2\n      mstore\n      0x20\n      add\n        /* \"contracts/Test.sol\":1540:1541  0 */\n      0x00\n        /* \"contracts/Test.sol\":1520:1542  Product(52, 0, \" \", 0) */\n      dup2\n      mstore\n      pop\n        /* \"contracts/Test.sol\":1490:1543  productItems[msg.sender].push(Product(52, 0, \" \", 0)) */\n      swap1\n      dup1\n      0x01\n      dup2\n      sload\n      add\n      dup1\n      dup3\n      sstore\n      dup1\n      swap2\n      pop\n      pop\n      0x01\n      swap1\n      sub\n      swap1\n      0x00\n      mstore\n      keccak256(0x00, 0x20)\n      swap1\n      0x04\n      mul\n      add\n      0x00\n      swap1\n      swap2\n      swap1\n      swap2\n      swap1\n      swap2\n      pop\n      0x00\n      dup3\n      add\n      mload\n      dup2\n      0x00\n      add\n      sstore\n      0x20\n      dup3\n      add\n      mload\n      dup2\n      0x01\n      add\n      sstore\n      0x40\n      dup3\n      add\n      mload\n      dup2\n      0x02\n      add\n      swap1\n      dup2\n      tag_314\n      swap2\n      swap1\n      tag_223\n      jump\t// in\n    tag_314:\n      pop\n      0x60\n      dup3\n      add\n      mload\n      dup2\n      0x03\n      add\n      sstore\n      pop\n      pop\n        /* \"contracts/Test.sol\":1279:1550  function makeUser() public {... */\n      jump\t// out\n        /* \"contracts/Test.sol\":595:638  mapping(string => address) public referrals */\n    tag_100:\n      0x04\n      dup2\n      dup1\n      mload\n      0x20\n      dup2\n      add\n      dup3\n      add\n      dup1\n      mload\n      dup5\n      dup3\n      mstore\n      0x20\n      dup4\n      add\n      0x20\n      dup6\n      add\n      keccak256\n      dup2\n      dup4\n      mstore\n      dup1\n      swap6\n      pop\n      pop\n      pop\n      pop\n      pop\n      pop\n      0x00\n      swap2\n      pop\n      sload\n      swap1\n      0x0100\n      exp\n      swap1\n      div\n      0xffffffffffffffffffffffffffffffffffffffff\n      and\n      dup2\n      jump\t// out\n        /* \"contracts/Test.sol\":6246:6351  function withdrawBal(address _shop) public {... */\n    tag_105:\n        /* \"contracts/Test.sol\":6307:6312  _shop */\n      dup1\n        /* \"contracts/Test.sol\":6299:6322  payable(_shop).transfer */\n      0xffffffffffffffffffffffffffffffffffffffff\n      and\n        /* \"contracts/Test.sol\":6299:6344  payable(_shop).transfer(users[_shop].balance) */\n      0x08fc\n        /* \"contracts/Test.sol\":6323:6328  users */\n      0x02\n        /* \"contracts/Test.sol\":6323:6335  users[_shop] */\n      0x00\n        /* \"contracts/Test.sol\":6329:6334  _shop */\n      dup5\n        /* \"contracts/Test.sol\":6323:6335  users[_shop] */\n      0xffffffffffffffffffffffffffffffffffffffff\n      and\n      0xffffffffffffffffffffffffffffffffffffffff\n      and\n      dup2\n      mstore\n      0x20\n      add\n      swap1\n      dup2\n      mstore\n      0x20\n      add\n      0x00\n      keccak256\n        /* \"contracts/Test.sol\":6323:6343  users[_shop].balance */\n      0x01\n      add\n      sload\n        /* \"contracts/Test.sol\":6299:6344  payable(_shop).transfer(users[_shop].balance) */\n      swap1\n      dup2\n      iszero\n      mul\n      swap1\n      mload(0x40)\n      0x00\n      mload(0x40)\n      dup1\n      dup4\n      sub\n      dup2\n      dup6\n      dup9\n      dup9\n      call\n      swap4\n      pop\n      pop\n      pop\n      pop\n      iszero\n      dup1\n      iszero\n      tag_317\n      jumpi\n      returndatasize\n      0x00\n      dup1\n      returndatacopy\n      revert(0x00, returndatasize)\n    tag_317:\n      pop\n        /* \"contracts/Test.sol\":6246:6351  function withdrawBal(address _shop) public {... */\n      pop\n      jump\t// out\n        /* \"contracts/Test.sol\":2830:4119  function refillStore(address _shop, uint _productId, uint _amount, address _supplier) public payable AccessControl(Role.Market, _shop) {... */\n    tag_109:\n        /* \"contracts/Test.sol\":2945:2956  Role.Market */\n      0x01\n        /* \"contracts/Test.sol\":2958:2963  _shop */\n      dup5\n        /* \"contracts/Test.sol\":880:885  _role */\n      dup2\n        /* \"contracts/Test.sol\":854:885  users[msg.sender].role == _role */\n      0x02\n      dup2\n      gt\n      iszero\n      tag_319\n      jumpi\n      tag_320\n      tag_128\n      jump\t// in\n    tag_320:\n    tag_319:\n        /* \"contracts/Test.sol\":854:859  users */\n      0x02\n        /* \"contracts/Test.sol\":854:871  users[msg.sender] */\n      0x00\n        /* \"contracts/Test.sol\":860:870  msg.sender */\n      caller\n        /* \"contracts/Test.sol\":854:871  users[msg.sender] */\n      0xffffffffffffffffffffffffffffffffffffffff\n      and\n      0xffffffffffffffffffffffffffffffffffffffff\n      and\n      dup2\n      mstore\n      0x20\n      add\n      swap1\n      dup2\n      mstore\n      0x20\n      add\n      0x00\n      keccak256\n        /* \"contracts/Test.sol\":854:876  users[msg.sender].role */\n      0x00\n      add\n      0x00\n      swap1\n      sload\n      swap1\n      0x0100\n      exp\n      swap1\n      div\n      0xff\n      and\n        /* \"contracts/Test.sol\":854:885  users[msg.sender].role == _role */\n      0x02\n      dup2\n      gt\n      iszero\n      tag_321\n      jumpi\n      tag_322\n      tag_128\n      jump\t// in\n    tag_322:\n    tag_321:\n      eq\n        /* \"contracts/Test.sol\":846:962  require(users[msg.sender].role == _role, unicode\"Ваша роль не позволяет это изменять\") */\n      tag_323\n      jumpi\n      mload(0x40)\n      0x08c379a000000000000000000000000000000000000000000000000000000000\n      dup2\n      mstore\n      0x04\n      add\n      tag_324\n      swap1\n      tag_214\n      jump\t// in\n    tag_324:\n      mload(0x40)\n      dup1\n      swap2\n      sub\n      swap1\n      revert\n    tag_323:\n        /* \"contracts/Test.sol\":994:999  _shop */\n      dup1\n        /* \"contracts/Test.sol\":980:999  msg.sender == _shop */\n      0xffffffffffffffffffffffffffffffffffffffff\n      and\n        /* \"contracts/Test.sol\":980:990  msg.sender */\n      caller\n        /* \"contracts/Test.sol\":980:999  msg.sender == _shop */\n      0xffffffffffffffffffffffffffffffffffffffff\n      and\n      eq\n        /* \"contracts/Test.sol\":972:1078  require(msg.sender == _shop, unicode\"Магазин не соответсвует отправителю\") */\n      tag_325\n      jumpi\n      mload(0x40)\n      0x08c379a000000000000000000000000000000000000000000000000000000000\n      dup2\n      mstore\n      0x04\n      add\n      tag_326\n      swap1\n      tag_217\n      jump\t// in\n    tag_326:\n      mload(0x40)\n      dup1\n      swap2\n      sub\n      swap1\n      revert\n    tag_325:\n        /* \"contracts/Test.sol\":2993:2994  0 */\n      0x00\n        /* \"contracts/Test.sol\":2983:2990  _amount */\n      dup5\n        /* \"contracts/Test.sol\":2983:2994  _amount > 0 */\n      gt\n        /* \"contracts/Test.sol\":2975:3037  require(_amount > 0, \"Purchase amount must be greater than 0\") */\n      tag_328\n      jumpi\n      mload(0x40)\n      0x08c379a000000000000000000000000000000000000000000000000000000000\n      dup2\n      mstore\n      0x04\n      add\n      tag_329\n      swap1\n      tag_236\n      jump\t// in\n    tag_329:\n      mload(0x40)\n      dup1\n      swap2\n      sub\n      swap1\n      revert\n    tag_328:\n        /* \"contracts/Test.sol\":3068:3080  userProducts */\n      0x03\n        /* \"contracts/Test.sol\":3068:3091  userProducts[_supplier] */\n      0x00\n        /* \"contracts/Test.sol\":3081:3090  _supplier */\n      dup5\n        /* \"contracts/Test.sol\":3068:3091  userProducts[_supplier] */\n      0xffffffffffffffffffffffffffffffffffffffff\n      and\n      0xffffffffffffffffffffffffffffffffffffffff\n      and\n      dup2\n      mstore\n      0x20\n      add\n      swap1\n      dup2\n      mstore\n      0x20\n      add\n      0x00\n      keccak256\n        /* \"contracts/Test.sol\":3068:3098  userProducts[_supplier].length */\n      dup1\n      sload\n      swap1\n      pop\n        /* \"contracts/Test.sol\":3055:3065  _productId */\n      dup6\n        /* \"contracts/Test.sol\":3055:3098  _productId < userProducts[_supplier].length */\n      lt\n        /* \"contracts/Test.sol\":3047:3121  require(_productId < userProducts[_supplier].length, \"Invalid product ID\") */\n      tag_330\n      jumpi\n      mload(0x40)\n      0x08c379a000000000000000000000000000000000000000000000000000000000\n      dup2\n      mstore\n      0x04\n      add\n      tag_331\n      swap1\n      tag_239\n      jump\t// in\n    tag_331:\n      mload(0x40)\n      dup1\n      swap2\n      sub\n      swap1\n      revert\n    tag_330:\n        /* \"contracts/Test.sol\":3131:3141  uint price */\n      0x00\n        /* \"contracts/Test.sol\":3144:3156  userProducts */\n      0x03\n        /* \"contracts/Test.sol\":3144:3167  userProducts[_supplier] */\n      0x00\n        /* \"contracts/Test.sol\":3157:3166  _supplier */\n      dup6\n        /* \"contracts/Test.sol\":3144:3167  userProducts[_supplier] */\n      0xffffffffffffffffffffffffffffffffffffffff\n      and\n      0xffffffffffffffffffffffffffffffffffffffff\n      and\n      dup2\n      mstore\n      0x20\n      add\n      swap1\n      dup2\n      mstore\n      0x20\n      add\n      0x00\n      keccak256\n        /* \"contracts/Test.sol\":3168:3178  _productId */\n      dup7\n        /* \"contracts/Test.sol\":3144:3179  userProducts[_supplier][_productId] */\n      dup2\n      sload\n      dup2\n      lt\n      tag_332\n      jumpi\n      tag_333\n      tag_134\n      jump\t// in\n    tag_333:\n    tag_332:\n      swap1\n      0x00\n      mstore\n      keccak256(0x00, 0x20)\n      swap1\n      0x04\n      mul\n      add\n        /* \"contracts/Test.sol\":3144:3185  userProducts[_supplier][_productId].price */\n      0x01\n      add\n      sload\n        /* \"contracts/Test.sol\":3131:3185  uint price = userProducts[_supplier][_productId].price */\n      swap1\n      pop\n        /* \"contracts/Test.sol\":3195:3210  uint totalPrice */\n      0x00\n        /* \"contracts/Test.sol\":3231:3238  1 ether */\n      0x0de0b6b3a7640000\n        /* \"contracts/Test.sol\":3221:3228  _amount */\n      dup7\n        /* \"contracts/Test.sol\":3213:3218  price */\n      dup4\n        /* \"contracts/Test.sol\":3213:3228  price * _amount */\n      tag_335\n      swap2\n      swap1\n      tag_147\n      jump\t// in\n    tag_335:\n        /* \"contracts/Test.sol\":3213:3238  price * _amount * 1 ether */\n      tag_336\n      swap2\n      swap1\n      tag_147\n      jump\t// in\n    tag_336:\n        /* \"contracts/Test.sol\":3195:3238  uint totalPrice = price * _amount * 1 ether */\n      swap1\n      pop\n        /* \"contracts/Test.sol\":3269:3279  totalPrice */\n      dup1\n        /* \"contracts/Test.sol\":3256:3265  msg.value */\n      callvalue\n        /* \"contracts/Test.sol\":3256:3279  msg.value >= totalPrice */\n      lt\n      iszero\n        /* \"contracts/Test.sol\":3248:3307  require(msg.value >= totalPrice, \"Insufficient funds sent\") */\n      tag_337\n      jumpi\n      mload(0x40)\n      0x08c379a000000000000000000000000000000000000000000000000000000000\n      dup2\n      mstore\n      0x04\n      add\n      tag_338\n      swap1\n      tag_259\n      jump\t// in\n    tag_338:\n      mload(0x40)\n      dup1\n      swap2\n      sub\n      swap1\n      revert\n    tag_337:\n        /* \"contracts/Test.sol\":3317:3341  string memory targetName */\n      0x00\n        /* \"contracts/Test.sol\":3344:3356  userProducts */\n      0x03\n        /* \"contracts/Test.sol\":3344:3367  userProducts[_supplier] */\n      0x00\n        /* \"contracts/Test.sol\":3357:3366  _supplier */\n      dup8\n        /* \"contracts/Test.sol\":3344:3367  userProducts[_supplier] */\n      0xffffffffffffffffffffffffffffffffffffffff\n      and\n      0xffffffffffffffffffffffffffffffffffffffff\n      and\n      dup2\n      mstore\n      0x20\n      add\n      swap1\n      dup2\n      mstore\n      0x20\n      add\n      0x00\n      keccak256\n        /* \"contracts/Test.sol\":3368:3378  _productId */\n      dup9\n        /* \"contracts/Test.sol\":3344:3379  userProducts[_supplier][_productId] */\n      dup2\n      sload\n      dup2\n      lt\n      tag_339\n      jumpi\n      tag_340\n      tag_134\n      jump\t// in\n    tag_340:\n    tag_339:\n      swap1\n      0x00\n      mstore\n      keccak256(0x00, 0x20)\n      swap1\n      0x04\n      mul\n      add\n        /* \"contracts/Test.sol\":3344:3384  userProducts[_supplier][_productId].name */\n      0x02\n      add\n        /* \"contracts/Test.sol\":3317:3384  string memory targetName = userProducts[_supplier][_productId].name */\n      dup1\n      sload\n      tag_342\n      swap1\n      tag_113\n      jump\t// in\n    tag_342:\n      dup1\n      0x1f\n      add\n      0x20\n      dup1\n      swap2\n      div\n      mul\n      0x20\n      add\n      mload(0x40)\n      swap1\n      dup2\n      add\n      0x40\n      mstore\n      dup1\n      swap3\n      swap2\n      swap1\n      dup2\n      dup2\n      mstore\n      0x20\n      add\n      dup3\n      dup1\n      sload\n      tag_343\n      swap1\n      tag_113\n      jump\t// in\n    tag_343:\n      dup1\n      iszero\n      tag_344\n      jumpi\n      dup1\n      0x1f\n      lt\n      tag_345\n      jumpi\n      0x0100\n      dup1\n      dup4\n      sload\n      div\n      mul\n      dup4\n      mstore\n      swap2\n      0x20\n      add\n      swap2\n      jump(tag_344)\n    tag_345:\n      dup3\n      add\n      swap2\n      swap1\n      0x00\n      mstore\n      keccak256(0x00, 0x20)\n      swap1\n    tag_346:\n      dup2\n      sload\n      dup2\n      mstore\n      swap1\n      0x01\n      add\n      swap1\n      0x20\n      add\n      dup1\n      dup4\n      gt\n      tag_346\n      jumpi\n      dup3\n      swap1\n      sub\n      0x1f\n      and\n      dup3\n      add\n      swap2\n    tag_344:\n      pop\n      pop\n      pop\n      pop\n      pop\n      swap1\n      pop\n        /* \"contracts/Test.sol\":3394:3412  bool productExists */\n      0x00\n        /* \"contracts/Test.sol\":3435:3441  uint i */\n      dup1\n        /* \"contracts/Test.sol\":3431:3726  for(uint i = 0; i< userProducts[_shop].length; i++){... */\n    tag_347:\n        /* \"contracts/Test.sol\":3450:3462  userProducts */\n      0x03\n        /* \"contracts/Test.sol\":3450:3469  userProducts[_shop] */\n      0x00\n        /* \"contracts/Test.sol\":3463:3468  _shop */\n      dup13\n        /* \"contracts/Test.sol\":3450:3469  userProducts[_shop] */\n      0xffffffffffffffffffffffffffffffffffffffff\n      and\n      0xffffffffffffffffffffffffffffffffffffffff\n      and\n      dup2\n      mstore\n      0x20\n      add\n      swap1\n      dup2\n      mstore\n      0x20\n      add\n      0x00\n      keccak256\n        /* \"contracts/Test.sol\":3450:3476  userProducts[_shop].length */\n      dup1\n      sload\n      swap1\n      pop\n        /* \"contracts/Test.sol\":3447:3448  i */\n      dup2\n        /* \"contracts/Test.sol\":3447:3476  i< userProducts[_shop].length */\n      lt\n        /* \"contracts/Test.sol\":3431:3726  for(uint i = 0; i< userProducts[_shop].length; i++){... */\n      iszero\n      tag_348\n      jumpi\n        /* \"contracts/Test.sol\":3548:3560  userProducts */\n      0x03\n        /* \"contracts/Test.sol\":3548:3567  userProducts[_shop] */\n      0x00\n        /* \"contracts/Test.sol\":3561:3566  _shop */\n      dup13\n        /* \"contracts/Test.sol\":3548:3567  userProducts[_shop] */\n      0xffffffffffffffffffffffffffffffffffffffff\n      and\n      0xffffffffffffffffffffffffffffffffffffffff\n      and\n      dup2\n      mstore\n      0x20\n      add\n      swap1\n      dup2\n      mstore\n      0x20\n      add\n      0x00\n      keccak256\n        /* \"contracts/Test.sol\":3568:3569  i */\n      dup2\n        /* \"contracts/Test.sol\":3548:3570  userProducts[_shop][i] */\n      dup2\n      sload\n      dup2\n      lt\n      tag_350\n      jumpi\n      tag_351\n      tag_134\n      jump\t// in\n    tag_351:\n    tag_350:\n      swap1\n      0x00\n      mstore\n      keccak256(0x00, 0x20)\n      swap1\n      0x04\n      mul\n      add\n        /* \"contracts/Test.sol\":3548:3575  userProducts[_shop][i].name */\n      0x02\n      add\n        /* \"contracts/Test.sol\":3532:3577  keccak256(bytes(userProducts[_shop][i].name)) */\n      mload(0x40)\n      tag_353\n      swap2\n      swap1\n      tag_267\n      jump\t// in\n    tag_353:\n      mload(0x40)\n      dup1\n      swap2\n      sub\n      swap1\n      keccak256\n        /* \"contracts/Test.sol\":3516:3526  targetName */\n      dup4\n        /* \"contracts/Test.sol\":3500:3528  keccak256(bytes(targetName)) */\n      dup1\n      mload\n      swap1\n      0x20\n      add\n      keccak256\n        /* \"contracts/Test.sol\":3500:3577  keccak256(bytes(targetName)) == keccak256(bytes(userProducts[_shop][i].name)) */\n      sub\n        /* \"contracts/Test.sol\":3496:3716  if (keccak256(bytes(targetName)) == keccak256(bytes(userProducts[_shop][i].name))){... */\n      tag_354\n      jumpi\n        /* \"contracts/Test.sol\":3630:3637  _amount */\n      dup9\n        /* \"contracts/Test.sol\":3596:3608  userProducts */\n      0x03\n        /* \"contracts/Test.sol\":3596:3615  userProducts[_shop] */\n      0x00\n        /* \"contracts/Test.sol\":3609:3614  _shop */\n      dup14\n        /* \"contracts/Test.sol\":3596:3615  userProducts[_shop] */\n      0xffffffffffffffffffffffffffffffffffffffff\n      and\n      0xffffffffffffffffffffffffffffffffffffffff\n      and\n      dup2\n      mstore\n      0x20\n      add\n      swap1\n      dup2\n      mstore\n      0x20\n      add\n      0x00\n      keccak256\n        /* \"contracts/Test.sol\":3616:3617  i */\n      dup3\n        /* \"contracts/Test.sol\":3596:3618  userProducts[_shop][i] */\n      dup2\n      sload\n      dup2\n      lt\n      tag_355\n      jumpi\n      tag_356\n      tag_134\n      jump\t// in\n    tag_356:\n    tag_355:\n      swap1\n      0x00\n      mstore\n      keccak256(0x00, 0x20)\n      swap1\n      0x04\n      mul\n      add\n        /* \"contracts/Test.sol\":3596:3626  userProducts[_shop][i].inStock */\n      0x00\n      add\n      0x00\n        /* \"contracts/Test.sol\":3596:3637  userProducts[_shop][i].inStock += _amount */\n      dup3\n      dup3\n      sload\n      tag_358\n      swap2\n      swap1\n      tag_156\n      jump\t// in\n    tag_358:\n      swap3\n      pop\n      pop\n      dup2\n      swap1\n      sstore\n      pop\n        /* \"contracts/Test.sol\":3671:3675  true */\n      0x01\n        /* \"contracts/Test.sol\":3655:3675  productExists = true */\n      swap2\n      pop\n        /* \"contracts/Test.sol\":3693:3698  break */\n      jump(tag_348)\n        /* \"contracts/Test.sol\":3496:3716  if (keccak256(bytes(targetName)) == keccak256(bytes(userProducts[_shop][i].name))){... */\n    tag_354:\n        /* \"contracts/Test.sol\":3478:3481  i++ */\n      dup1\n      dup1\n      tag_359\n      swap1\n      tag_202\n      jump\t// in\n    tag_359:\n      swap2\n      pop\n      pop\n        /* \"contracts/Test.sol\":3431:3726  for(uint i = 0; i< userProducts[_shop].length; i++){... */\n      jump(tag_347)\n    tag_348:\n      pop\n        /* \"contracts/Test.sol\":3741:3754  productExists */\n      dup1\n        /* \"contracts/Test.sol\":3736:3932  if (!productExists){... */\n      tag_360\n      jumpi\n        /* \"contracts/Test.sol\":3769:3791  Product memory newItem */\n      0x00\n        /* \"contracts/Test.sol\":3794:3874  Product(_amount, price, targetName, userProducts[_supplier][_productId].expDate) */\n      mload(0x40)\n      dup1\n      0x80\n      add\n      0x40\n      mstore\n      dup1\n        /* \"contracts/Test.sol\":3802:3809  _amount */\n      dup11\n        /* \"contracts/Test.sol\":3794:3874  Product(_amount, price, targetName, userProducts[_supplier][_productId].expDate) */\n      dup2\n      mstore\n      0x20\n      add\n        /* \"contracts/Test.sol\":3811:3816  price */\n      dup7\n        /* \"contracts/Test.sol\":3794:3874  Product(_amount, price, targetName, userProducts[_supplier][_productId].expDate) */\n      dup2\n      mstore\n      0x20\n      add\n        /* \"contracts/Test.sol\":3818:3828  targetName */\n      dup5\n        /* \"contracts/Test.sol\":3794:3874  Product(_amount, price, targetName, userProducts[_supplier][_productId].expDate) */\n      dup2\n      mstore\n      0x20\n      add\n        /* \"contracts/Test.sol\":3830:3842  userProducts */\n      0x03\n        /* \"contracts/Test.sol\":3830:3853  userProducts[_supplier] */\n      0x00\n        /* \"contracts/Test.sol\":3843:3852  _supplier */\n      dup12\n        /* \"contracts/Test.sol\":3830:3853  userProducts[_supplier] */\n      0xffffffffffffffffffffffffffffffffffffffff\n      and\n      0xffffffffffffffffffffffffffffffffffffffff\n      and\n      dup2\n      mstore\n      0x20\n      add\n      swap1\n      dup2\n      mstore\n      0x20\n      add\n      0x00\n      keccak256\n        /* \"contracts/Test.sol\":3854:3864  _productId */\n      dup13\n        /* \"contracts/Test.sol\":3830:3865  userProducts[_supplier][_productId] */\n      dup2\n      sload\n      dup2\n      lt\n      tag_361\n      jumpi\n      tag_362\n      tag_134\n      jump\t// in\n    tag_362:\n    tag_361:\n      swap1\n      0x00\n      mstore\n      keccak256(0x00, 0x20)\n      swap1\n      0x04\n      mul\n      add\n        /* \"contracts/Test.sol\":3830:3873  userProducts[_supplier][_productId].expDate */\n      0x03\n      add\n      sload\n        /* \"contracts/Test.sol\":3794:3874  Product(_amount, price, targetName, userProducts[_supplier][_productId].expDate) */\n      dup2\n      mstore\n      pop\n        /* \"contracts/Test.sol\":3769:3874  Product memory newItem = Product(_amount, price, targetName, userProducts[_supplier][_productId].expDate) */\n      swap1\n      pop\n        /* \"contracts/Test.sol\":3888:3900  userProducts */\n      0x03\n        /* \"contracts/Test.sol\":3888:3907  userProducts[_shop] */\n      0x00\n        /* \"contracts/Test.sol\":3901:3906  _shop */\n      dup13\n        /* \"contracts/Test.sol\":3888:3907  userProducts[_shop] */\n      0xffffffffffffffffffffffffffffffffffffffff\n      and\n      0xffffffffffffffffffffffffffffffffffffffff\n      and\n      dup2\n      mstore\n      0x20\n      add\n      swap1\n      dup2\n      mstore\n      0x20\n      add\n      0x00\n      keccak256\n        /* \"contracts/Test.sol\":3913:3920  newItem */\n      dup2\n        /* \"contracts/Test.sol\":3888:3921  userProducts[_shop].push(newItem) */\n      swap1\n      dup1\n      0x01\n      dup2\n      sload\n      add\n      dup1\n      dup3\n      sstore\n      dup1\n      swap2\n      pop\n      pop\n      0x01\n      swap1\n      sub\n      swap1\n      0x00\n      mstore\n      keccak256(0x00, 0x20)\n      swap1\n      0x04\n      mul\n      add\n      0x00\n      swap1\n      swap2\n      swap1\n      swap2\n      swap1\n      swap2\n      pop\n      0x00\n      dup3\n      add\n      mload\n      dup2\n      0x00\n      add\n      sstore\n      0x20\n      dup3\n      add\n      mload\n      dup2\n      0x01\n      add\n      sstore\n      0x40\n      dup3\n      add\n      mload\n      dup2\n      0x02\n      add\n      swap1\n      dup2\n      tag_365\n      swap2\n      swap1\n      tag_223\n      jump\t// in\n    tag_365:\n      pop\n      0x60\n      dup3\n      add\n      mload\n      dup2\n      0x03\n      add\n      sstore\n      pop\n      pop\n        /* \"contracts/Test.sol\":3755:3932  {... */\n      pop\n        /* \"contracts/Test.sol\":3736:3932  if (!productExists){... */\n    tag_360:\n        /* \"contracts/Test.sol\":3989:3996  _amount */\n      dup8\n        /* \"contracts/Test.sol\":3942:3954  userProducts */\n      0x03\n        /* \"contracts/Test.sol\":3942:3965  userProducts[_supplier] */\n      0x00\n        /* \"contracts/Test.sol\":3955:3964  _supplier */\n      dup10\n        /* \"contracts/Test.sol\":3942:3965  userProducts[_supplier] */\n      0xffffffffffffffffffffffffffffffffffffffff\n      and\n      0xffffffffffffffffffffffffffffffffffffffff\n      and\n      dup2\n      mstore\n      0x20\n      add\n      swap1\n      dup2\n      mstore\n      0x20\n      add\n      0x00\n      keccak256\n        /* \"contracts/Test.sol\":3966:3976  _productId */\n      dup11\n        /* \"contracts/Test.sol\":3942:3977  userProducts[_supplier][_productId] */\n      dup2\n      sload\n      dup2\n      lt\n      tag_366\n      jumpi\n      tag_367\n      tag_134\n      jump\t// in\n    tag_367:\n    tag_366:\n      swap1\n      0x00\n      mstore\n      keccak256(0x00, 0x20)\n      swap1\n      0x04\n      mul\n      add\n        /* \"contracts/Test.sol\":3942:3985  userProducts[_supplier][_productId].inStock */\n      0x00\n      add\n      0x00\n        /* \"contracts/Test.sol\":3942:3996  userProducts[_supplier][_productId].inStock -= _amount */\n      dup3\n      dup3\n      sload\n      tag_369\n      swap2\n      swap1\n      tag_163\n      jump\t// in\n    tag_369:\n      swap3\n      pop\n      pop\n      dup2\n      swap1\n      sstore\n      pop\n        /* \"contracts/Test.sol\":4023:4033  totalPrice */\n      dup3\n        /* \"contracts/Test.sol\":4011:4020  msg.value */\n      callvalue\n        /* \"contracts/Test.sol\":4011:4033  msg.value > totalPrice */\n      gt\n        /* \"contracts/Test.sol\":4007:4112  if (msg.value > totalPrice) {... */\n      iszero\n      tag_370\n      jumpi\n        /* \"contracts/Test.sol\":4057:4067  msg.sender */\n      caller\n        /* \"contracts/Test.sol\":4049:4077  payable(msg.sender).transfer */\n      0xffffffffffffffffffffffffffffffffffffffff\n      and\n        /* \"contracts/Test.sol\":4049:4101  payable(msg.sender).transfer(msg.value - totalPrice) */\n      0x08fc\n        /* \"contracts/Test.sol\":4090:4100  totalPrice */\n      dup5\n        /* \"contracts/Test.sol\":4078:4087  msg.value */\n      callvalue\n        /* \"contracts/Test.sol\":4078:4100  msg.value - totalPrice */\n      tag_371\n      swap2\n      swap1\n      tag_163\n      jump\t// in\n    tag_371:\n        /* \"contracts/Test.sol\":4049:4101  payable(msg.sender).transfer(msg.value - totalPrice) */\n      swap1\n      dup2\n      iszero\n      mul\n      swap1\n      mload(0x40)\n      0x00\n      mload(0x40)\n      dup1\n      dup4\n      sub\n      dup2\n      dup6\n      dup9\n      dup9\n      call\n      swap4\n      pop\n      pop\n      pop\n      pop\n      iszero\n      dup1\n      iszero\n      tag_373\n      jumpi\n      returndatasize\n      0x00\n      dup1\n      returndatacopy\n      revert(0x00, returndatasize)\n    tag_373:\n      pop\n        /* \"contracts/Test.sol\":4007:4112  if (msg.value > totalPrice) {... */\n    tag_370:\n        /* \"contracts/Test.sol\":2965:4119  {... */\n      pop\n      pop\n      pop\n      pop\n        /* \"contracts/Test.sol\":2830:4119  function refillStore(address _shop, uint _productId, uint _amount, address _supplier) public payable AccessControl(Role.Market, _shop) {... */\n      pop\n      pop\n      pop\n      pop\n      pop\n      pop\n      jump\t// out\n    tag_161:\n      pop\n      dup1\n      sload\n      tag_374\n      swap1\n      tag_113\n      jump\t// in\n    tag_374:\n      0x00\n      dup3\n      sstore\n      dup1\n      0x1f\n      lt\n      tag_376\n      jumpi\n      pop\n      jump(tag_375)\n    tag_376:\n      0x1f\n      add\n      0x20\n      swap1\n      div\n      swap1\n      0x00\n      mstore\n      keccak256(0x00, 0x20)\n      swap1\n      dup2\n      add\n      swap1\n      tag_377\n      swap2\n      swap1\n      tag_378\n      jump\t// in\n    tag_377:\n    tag_375:\n      pop\n      jump\t// out\n    tag_378:\n    tag_379:\n      dup1\n      dup3\n      gt\n      iszero\n      tag_380\n      jumpi\n      0x00\n      dup2\n      0x00\n      swap1\n      sstore\n      pop\n      0x01\n      add\n      jump(tag_379)\n    tag_380:\n      pop\n      swap1\n      jump\t// out\n        /* \"#utility.yul\":7:82   */\n    tag_381:\n        /* \"#utility.yul\":40:46   */\n      0x00\n        /* \"#utility.yul\":73:75   */\n      0x40\n        /* \"#utility.yul\":67:76   */\n      mload\n        /* \"#utility.yul\":57:76   */\n      swap1\n      pop\n        /* \"#utility.yul\":7:82   */\n      swap1\n      jump\t// out\n        /* \"#utility.yul\":88:205   */\n    tag_382:\n        /* \"#utility.yul\":197:198   */\n      0x00\n        /* \"#utility.yul\":194:195   */\n      dup1\n        /* \"#utility.yul\":187:199   */\n      revert\n        /* \"#utility.yul\":211:328   */\n    tag_383:\n        /* \"#utility.yul\":320:321   */\n      0x00\n        /* \"#utility.yul\":317:318   */\n      dup1\n        /* \"#utility.yul\":310:322   */\n      revert\n        /* \"#utility.yul\":334:460   */\n    tag_384:\n        /* \"#utility.yul\":371:378   */\n      0x00\n        /* \"#utility.yul\":411:453   */\n      0xffffffffffffffffffffffffffffffffffffffff\n        /* \"#utility.yul\":404:409   */\n      dup3\n        /* \"#utility.yul\":400:454   */\n      and\n        /* \"#utility.yul\":389:454   */\n      swap1\n      pop\n        /* \"#utility.yul\":334:460   */\n      swap2\n      swap1\n      pop\n      jump\t// out\n        /* \"#utility.yul\":466:562   */\n    tag_385:\n        /* \"#utility.yul\":503:510   */\n      0x00\n        /* \"#utility.yul\":532:556   */\n      tag_464\n        /* \"#utility.yul\":550:555   */\n      dup3\n        /* \"#utility.yul\":532:556   */\n      tag_384\n      jump\t// in\n    tag_464:\n        /* \"#utility.yul\":521:556   */\n      swap1\n      pop\n        /* \"#utility.yul\":466:562   */\n      swap2\n      swap1\n      pop\n      jump\t// out\n        /* \"#utility.yul\":568:690   */\n    tag_386:\n        /* \"#utility.yul\":641:665   */\n      tag_466\n        /* \"#utility.yul\":659:664   */\n      dup2\n        /* \"#utility.yul\":641:665   */\n      tag_385\n      jump\t// in\n    tag_466:\n        /* \"#utility.yul\":634:639   */\n      dup2\n        /* \"#utility.yul\":631:666   */\n      eq\n        /* \"#utility.yul\":621:684   */\n      tag_467\n      jumpi\n        /* \"#utility.yul\":680:681   */\n      0x00\n        /* \"#utility.yul\":677:678   */\n      dup1\n        /* \"#utility.yul\":670:682   */\n      revert\n        /* \"#utility.yul\":621:684   */\n    tag_467:\n        /* \"#utility.yul\":568:690   */\n      pop\n      jump\t// out\n        /* \"#utility.yul\":696:835   */\n    tag_387:\n        /* \"#utility.yul\":742:747   */\n      0x00\n        /* \"#utility.yul\":780:786   */\n      dup2\n        /* \"#utility.yul\":767:787   */\n      calldataload\n        /* \"#utility.yul\":758:787   */\n      swap1\n      pop\n        /* \"#utility.yul\":796:829   */\n      tag_469\n        /* \"#utility.yul\":823:828   */\n      dup2\n        /* \"#utility.yul\":796:829   */\n      tag_386\n      jump\t// in\n    tag_469:\n        /* \"#utility.yul\":696:835   */\n      swap3\n      swap2\n      pop\n      pop\n      jump\t// out\n        /* \"#utility.yul\":841:918   */\n    tag_388:\n        /* \"#utility.yul\":878:885   */\n      0x00\n        /* \"#utility.yul\":907:912   */\n      dup2\n        /* \"#utility.yul\":896:912   */\n      swap1\n      pop\n        /* \"#utility.yul\":841:918   */\n      swap2\n      swap1\n      pop\n      jump\t// out\n        /* \"#utility.yul\":924:1046   */\n    tag_389:\n        /* \"#utility.yul\":997:1021   */\n      tag_472\n        /* \"#utility.yul\":1015:1020   */\n      dup2\n        /* \"#utility.yul\":997:1021   */\n      tag_388\n      jump\t// in\n    tag_472:\n        /* \"#utility.yul\":990:995   */\n      dup2\n        /* \"#utility.yul\":987:1022   */\n      eq\n        /* \"#utility.yul\":977:1040   */\n      tag_473\n      jumpi\n        /* \"#utility.yul\":1036:1037   */\n      0x00\n        /* \"#utility.yul\":1033:1034   */\n      dup1\n        /* \"#utility.yul\":1026:1038   */\n      revert\n        /* \"#utility.yul\":977:1040   */\n    tag_473:\n        /* \"#utility.yul\":924:1046   */\n      pop\n      jump\t// out\n        /* \"#utility.yul\":1052:1191   */\n    tag_390:\n        /* \"#utility.yul\":1098:1103   */\n      0x00\n        /* \"#utility.yul\":1136:1142   */\n      dup2\n        /* \"#utility.yul\":1123:1143   */\n      calldataload\n        /* \"#utility.yul\":1114:1143   */\n      swap1\n      pop\n        /* \"#utility.yul\":1152:1185   */\n      tag_475\n        /* \"#utility.yul\":1179:1184   */\n      dup2\n        /* \"#utility.yul\":1152:1185   */\n      tag_389\n      jump\t// in\n    tag_475:\n        /* \"#utility.yul\":1052:1191   */\n      swap3\n      swap2\n      pop\n      pop\n      jump\t// out\n        /* \"#utility.yul\":1197:1671   */\n    tag_26:\n        /* \"#utility.yul\":1265:1271   */\n      0x00\n        /* \"#utility.yul\":1273:1279   */\n      dup1\n        /* \"#utility.yul\":1322:1324   */\n      0x40\n        /* \"#utility.yul\":1310:1319   */\n      dup4\n        /* \"#utility.yul\":1301:1308   */\n      dup6\n        /* \"#utility.yul\":1297:1320   */\n      sub\n        /* \"#utility.yul\":1293:1325   */\n      slt\n        /* \"#utility.yul\":1290:1409   */\n      iszero\n      tag_477\n      jumpi\n        /* \"#utility.yul\":1328:1407   */\n      tag_478\n      tag_382\n      jump\t// in\n    tag_478:\n        /* \"#utility.yul\":1290:1409   */\n    tag_477:\n        /* \"#utility.yul\":1448:1449   */\n      0x00\n        /* \"#utility.yul\":1473:1526   */\n      tag_479\n        /* \"#utility.yul\":1518:1525   */\n      dup6\n        /* \"#utility.yul\":1509:1515   */\n      dup3\n        /* \"#utility.yul\":1498:1507   */\n      dup7\n        /* \"#utility.yul\":1494:1516   */\n      add\n        /* \"#utility.yul\":1473:1526   */\n      tag_387\n      jump\t// in\n    tag_479:\n        /* \"#utility.yul\":1463:1526   */\n      swap3\n      pop\n        /* \"#utility.yul\":1419:1536   */\n      pop\n        /* \"#utility.yul\":1575:1577   */\n      0x20\n        /* \"#utility.yul\":1601:1654   */\n      tag_480\n        /* \"#utility.yul\":1646:1653   */\n      dup6\n        /* \"#utility.yul\":1637:1643   */\n      dup3\n        /* \"#utility.yul\":1626:1635   */\n      dup7\n        /* \"#utility.yul\":1622:1644   */\n      add\n        /* \"#utility.yul\":1601:1654   */\n      tag_390\n      jump\t// in\n    tag_480:\n        /* \"#utility.yul\":1591:1654   */\n      swap2\n      pop\n        /* \"#utility.yul\":1546:1664   */\n      pop\n        /* \"#utility.yul\":1197:1671   */\n      swap3\n      pop\n      swap3\n      swap1\n      pop\n      jump\t// out\n        /* \"#utility.yul\":1677:1795   */\n    tag_391:\n        /* \"#utility.yul\":1764:1788   */\n      tag_482\n        /* \"#utility.yul\":1782:1787   */\n      dup2\n        /* \"#utility.yul\":1764:1788   */\n      tag_388\n      jump\t// in\n    tag_482:\n        /* \"#utility.yul\":1759:1762   */\n      dup3\n        /* \"#utility.yul\":1752:1789   */\n      mstore\n        /* \"#utility.yul\":1677:1795   */\n      pop\n      pop\n      jump\t// out\n        /* \"#utility.yul\":1801:1900   */\n    tag_392:\n        /* \"#utility.yul\":1853:1859   */\n      0x00\n        /* \"#utility.yul\":1887:1892   */\n      dup2\n        /* \"#utility.yul\":1881:1893   */\n      mload\n        /* \"#utility.yul\":1871:1893   */\n      swap1\n      pop\n        /* \"#utility.yul\":1801:1900   */\n      swap2\n      swap1\n      pop\n      jump\t// out\n        /* \"#utility.yul\":1906:2075   */\n    tag_393:\n        /* \"#utility.yul\":1990:2001   */\n      0x00\n        /* \"#utility.yul\":2024:2030   */\n      dup3\n        /* \"#utility.yul\":2019:2022   */\n      dup3\n        /* \"#utility.yul\":2012:2031   */\n      mstore\n        /* \"#utility.yul\":2064:2068   */\n      0x20\n        /* \"#utility.yul\":2059:2062   */\n      dup3\n        /* \"#utility.yul\":2055:2069   */\n      add\n        /* \"#utility.yul\":2040:2069   */\n      swap1\n      pop\n        /* \"#utility.yul\":1906:2075   */\n      swap3\n      swap2\n      pop\n      pop\n      jump\t// out\n        /* \"#utility.yul\":2081:2327   */\n    tag_394:\n        /* \"#utility.yul\":2162:2163   */\n      0x00\n        /* \"#utility.yul\":2172:2285   */\n    tag_486:\n        /* \"#utility.yul\":2186:2192   */\n      dup4\n        /* \"#utility.yul\":2183:2184   */\n      dup2\n        /* \"#utility.yul\":2180:2193   */\n      lt\n        /* \"#utility.yul\":2172:2285   */\n      iszero\n      tag_488\n      jumpi\n        /* \"#utility.yul\":2271:2272   */\n      dup1\n        /* \"#utility.yul\":2266:2269   */\n      dup3\n        /* \"#utility.yul\":2262:2273   */\n      add\n        /* \"#utility.yul\":2256:2274   */\n      mload\n        /* \"#utility.yul\":2252:2253   */\n      dup2\n        /* \"#utility.yul\":2247:2250   */\n      dup5\n        /* \"#utility.yul\":2243:2254   */\n      add\n        /* \"#utility.yul\":2236:2275   */\n      mstore\n        /* \"#utility.yul\":2208:2210   */\n      0x20\n        /* \"#utility.yul\":2205:2206   */\n      dup2\n        /* \"#utility.yul\":2201:2211   */\n      add\n        /* \"#utility.yul\":2196:2211   */\n      swap1\n      pop\n        /* \"#utility.yul\":2172:2285   */\n      jump(tag_486)\n    tag_488:\n        /* \"#utility.yul\":2319:2320   */\n      0x00\n        /* \"#utility.yul\":2310:2316   */\n      dup5\n        /* \"#utility.yul\":2305:2308   */\n      dup5\n        /* \"#utility.yul\":2301:2317   */\n      add\n        /* \"#utility.yul\":2294:2321   */\n      mstore\n        /* \"#utility.yul\":2143:2327   */\n      pop\n        /* \"#utility.yul\":2081:2327   */\n      pop\n      pop\n      pop\n      jump\t// out\n        /* \"#utility.yul\":2333:2435   */\n    tag_395:\n        /* \"#utility.yul\":2374:2380   */\n      0x00\n        /* \"#utility.yul\":2425:2427   */\n      0x1f\n        /* \"#utility.yul\":2421:2428   */\n      not\n        /* \"#utility.yul\":2416:2418   */\n      0x1f\n        /* \"#utility.yul\":2409:2414   */\n      dup4\n        /* \"#utility.yul\":2405:2419   */\n      add\n        /* \"#utility.yul\":2401:2429   */\n      and\n        /* \"#utility.yul\":2391:2429   */\n      swap1\n      pop\n        /* \"#utility.yul\":2333:2435   */\n      swap2\n      swap1\n      pop\n      jump\t// out\n        /* \"#utility.yul\":2441:2818   */\n    tag_396:\n        /* \"#utility.yul\":2529:2532   */\n      0x00\n        /* \"#utility.yul\":2557:2596   */\n      tag_491\n        /* \"#utility.yul\":2590:2595   */\n      dup3\n        /* \"#utility.yul\":2557:2596   */\n      tag_392\n      jump\t// in\n    tag_491:\n        /* \"#utility.yul\":2612:2683   */\n      tag_492\n        /* \"#utility.yul\":2676:2682   */\n      dup2\n        /* \"#utility.yul\":2671:2674   */\n      dup6\n        /* \"#utility.yul\":2612:2683   */\n      tag_393\n      jump\t// in\n    tag_492:\n        /* \"#utility.yul\":2605:2683   */\n      swap4\n      pop\n        /* \"#utility.yul\":2692:2757   */\n      tag_493\n        /* \"#utility.yul\":2750:2756   */\n      dup2\n        /* \"#utility.yul\":2745:2748   */\n      dup6\n        /* \"#utility.yul\":2738:2742   */\n      0x20\n        /* \"#utility.yul\":2731:2736   */\n      dup7\n        /* \"#utility.yul\":2727:2743   */\n      add\n        /* \"#utility.yul\":2692:2757   */\n      tag_394\n      jump\t// in\n    tag_493:\n        /* \"#utility.yul\":2782:2811   */\n      tag_494\n        /* \"#utility.yul\":2804:2810   */\n      dup2\n        /* \"#utility.yul\":2782:2811   */\n      tag_395\n      jump\t// in\n    tag_494:\n        /* \"#utility.yul\":2777:2780   */\n      dup5\n        /* \"#utility.yul\":2773:2812   */\n      add\n        /* \"#utility.yul\":2766:2812   */\n      swap2\n      pop\n        /* \"#utility.yul\":2533:2818   */\n      pop\n        /* \"#utility.yul\":2441:2818   */\n      swap3\n      swap2\n      pop\n      pop\n      jump\t// out\n        /* \"#utility.yul\":2824:3468   */\n    tag_29:\n        /* \"#utility.yul\":3021:3025   */\n      0x00\n        /* \"#utility.yul\":3059:3062   */\n      0x80\n        /* \"#utility.yul\":3048:3057   */\n      dup3\n        /* \"#utility.yul\":3044:3063   */\n      add\n        /* \"#utility.yul\":3036:3063   */\n      swap1\n      pop\n        /* \"#utility.yul\":3073:3144   */\n      tag_496\n        /* \"#utility.yul\":3141:3142   */\n      0x00\n        /* \"#utility.yul\":3130:3139   */\n      dup4\n        /* \"#utility.yul\":3126:3143   */\n      add\n        /* \"#utility.yul\":3117:3123   */\n      dup8\n        /* \"#utility.yul\":3073:3144   */\n      tag_391\n      jump\t// in\n    tag_496:\n        /* \"#utility.yul\":3154:3226   */\n      tag_497\n        /* \"#utility.yul\":3222:3224   */\n      0x20\n        /* \"#utility.yul\":3211:3220   */\n      dup4\n        /* \"#utility.yul\":3207:3225   */\n      add\n        /* \"#utility.yul\":3198:3204   */\n      dup7\n        /* \"#utility.yul\":3154:3226   */\n      tag_391\n      jump\t// in\n    tag_497:\n        /* \"#utility.yul\":3273:3282   */\n      dup2\n        /* \"#utility.yul\":3267:3271   */\n      dup2\n        /* \"#utility.yul\":3263:3283   */\n      sub\n        /* \"#utility.yul\":3258:3260   */\n      0x40\n        /* \"#utility.yul\":3247:3256   */\n      dup4\n        /* \"#utility.yul\":3243:3261   */\n      add\n        /* \"#utility.yul\":3236:3284   */\n      mstore\n        /* \"#utility.yul\":3301:3379   */\n      tag_498\n        /* \"#utility.yul\":3374:3378   */\n      dup2\n        /* \"#utility.yul\":3365:3371   */\n      dup6\n        /* \"#utility.yul\":3301:3379   */\n      tag_396\n      jump\t// in\n    tag_498:\n        /* \"#utility.yul\":3293:3379   */\n      swap1\n      pop\n        /* \"#utility.yul\":3389:3461   */\n      tag_499\n        /* \"#utility.yul\":3457:3459   */\n      0x60\n        /* \"#utility.yul\":3446:3455   */\n      dup4\n        /* \"#utility.yul\":3442:3460   */\n      add\n        /* \"#utility.yul\":3433:3439   */\n      dup5\n        /* \"#utility.yul\":3389:3461   */\n      tag_391\n      jump\t// in\n    tag_499:\n        /* \"#utility.yul\":2824:3468   */\n      swap6\n      swap5\n      pop\n      pop\n      pop\n      pop\n      pop\n      jump\t// out\n        /* \"#utility.yul\":3474:3803   */\n    tag_45:\n        /* \"#utility.yul\":3533:3539   */\n      0x00\n        /* \"#utility.yul\":3582:3584   */\n      0x20\n        /* \"#utility.yul\":3570:3579   */\n      dup3\n        /* \"#utility.yul\":3561:3568   */\n      dup5\n        /* \"#utility.yul\":3557:3580   */\n      sub\n        /* \"#utility.yul\":3553:3585   */\n      slt\n        /* \"#utility.yul\":3550:3669   */\n      iszero\n      tag_501\n      jumpi\n        /* \"#utility.yul\":3588:3667   */\n      tag_502\n      tag_382\n      jump\t// in\n    tag_502:\n        /* \"#utility.yul\":3550:3669   */\n    tag_501:\n        /* \"#utility.yul\":3708:3709   */\n      0x00\n        /* \"#utility.yul\":3733:3786   */\n      tag_503\n        /* \"#utility.yul\":3778:3785   */\n      dup5\n        /* \"#utility.yul\":3769:3775   */\n      dup3\n        /* \"#utility.yul\":3758:3767   */\n      dup6\n        /* \"#utility.yul\":3754:3776   */\n      add\n        /* \"#utility.yul\":3733:3786   */\n      tag_390\n      jump\t// in\n    tag_503:\n        /* \"#utility.yul\":3723:3786   */\n      swap2\n      pop\n        /* \"#utility.yul\":3679:3796   */\n      pop\n        /* \"#utility.yul\":3474:3803   */\n      swap3\n      swap2\n      pop\n      pop\n      jump\t// out\n        /* \"#utility.yul\":3809:3927   */\n    tag_397:\n        /* \"#utility.yul\":3896:3920   */\n      tag_505\n        /* \"#utility.yul\":3914:3919   */\n      dup2\n        /* \"#utility.yul\":3896:3920   */\n      tag_385\n      jump\t// in\n    tag_505:\n        /* \"#utility.yul\":3891:3894   */\n      dup3\n        /* \"#utility.yul\":3884:3921   */\n      mstore\n        /* \"#utility.yul\":3809:3927   */\n      pop\n      pop\n      jump\t// out\n        /* \"#utility.yul\":3933:4113   */\n    tag_128:\n        /* \"#utility.yul\":3981:4058   */\n      0x4e487b7100000000000000000000000000000000000000000000000000000000\n        /* \"#utility.yul\":3978:3979   */\n      0x00\n        /* \"#utility.yul\":3971:4059   */\n      mstore\n        /* \"#utility.yul\":4078:4082   */\n      0x21\n        /* \"#utility.yul\":4075:4076   */\n      0x04\n        /* \"#utility.yul\":4068:4083   */\n      mstore\n        /* \"#utility.yul\":4102:4106   */\n      0x24\n        /* \"#utility.yul\":4099:4100   */\n      0x00\n        /* \"#utility.yul\":4092:4107   */\n      revert\n        /* \"#utility.yul\":4119:4230   */\n    tag_398:\n        /* \"#utility.yul\":4198:4199   */\n      0x03\n        /* \"#utility.yul\":4191:4196   */\n      dup2\n        /* \"#utility.yul\":4188:4200   */\n      lt\n        /* \"#utility.yul\":4178:4224   */\n      tag_508\n      jumpi\n        /* \"#utility.yul\":4204:4222   */\n      tag_509\n      tag_128\n      jump\t// in\n    tag_509:\n        /* \"#utility.yul\":4178:4224   */\n    tag_508:\n        /* \"#utility.yul\":4119:4230   */\n      pop\n      jump\t// out\n        /* \"#utility.yul\":4236:4359   */\n    tag_399:\n        /* \"#utility.yul\":4279:4286   */\n      0x00\n        /* \"#utility.yul\":4308:4313   */\n      dup2\n        /* \"#utility.yul\":4297:4313   */\n      swap1\n      pop\n        /* \"#utility.yul\":4314:4353   */\n      tag_511\n        /* \"#utility.yul\":4347:4352   */\n      dup3\n        /* \"#utility.yul\":4314:4353   */\n      tag_398\n      jump\t// in\n    tag_511:\n        /* \"#utility.yul\":4236:4359   */\n      swap2\n      swap1\n      pop\n      jump\t// out\n        /* \"#utility.yul\":4365:4488   */\n    tag_400:\n        /* \"#utility.yul\":4419:4428   */\n      0x00\n        /* \"#utility.yul\":4452:4482   */\n      tag_513\n        /* \"#utility.yul\":4476:4481   */\n      dup3\n        /* \"#utility.yul\":4452:4482   */\n      tag_399\n      jump\t// in\n    tag_513:\n        /* \"#utility.yul\":4439:4482   */\n      swap1\n      pop\n        /* \"#utility.yul\":4365:4488   */\n      swap2\n      swap1\n      pop\n      jump\t// out\n        /* \"#utility.yul\":4494:4633   */\n    tag_401:\n        /* \"#utility.yul\":4585:4626   */\n      tag_515\n        /* \"#utility.yul\":4620:4625   */\n      dup2\n        /* \"#utility.yul\":4585:4626   */\n      tag_400\n      jump\t// in\n    tag_515:\n        /* \"#utility.yul\":4580:4583   */\n      dup3\n        /* \"#utility.yul\":4573:4627   */\n      mstore\n        /* \"#utility.yul\":4494:4633   */\n      pop\n      pop\n      jump\t// out\n        /* \"#utility.yul\":4639:4979   */\n    tag_48:\n        /* \"#utility.yul\":4764:4768   */\n      0x00\n        /* \"#utility.yul\":4802:4804   */\n      0x40\n        /* \"#utility.yul\":4791:4800   */\n      dup3\n        /* \"#utility.yul\":4787:4805   */\n      add\n        /* \"#utility.yul\":4779:4805   */\n      swap1\n      pop\n        /* \"#utility.yul\":4815:4886   */\n      tag_517\n        /* \"#utility.yul\":4883:4884   */\n      0x00\n        /* \"#utility.yul\":4872:4881   */\n      dup4\n        /* \"#utility.yul\":4868:4885   */\n      add\n        /* \"#utility.yul\":4859:4865   */\n      dup6\n        /* \"#utility.yul\":4815:4886   */\n      tag_397\n      jump\t// in\n    tag_517:\n        /* \"#utility.yul\":4896:4972   */\n      tag_518\n        /* \"#utility.yul\":4968:4970   */\n      0x20\n        /* \"#utility.yul\":4957:4966   */\n      dup4\n        /* \"#utility.yul\":4953:4971   */\n      add\n        /* \"#utility.yul\":4944:4950   */\n      dup5\n        /* \"#utility.yul\":4896:4972   */\n      tag_401\n      jump\t// in\n    tag_518:\n        /* \"#utility.yul\":4639:4979   */\n      swap4\n      swap3\n      pop\n      pop\n      pop\n      jump\t// out\n        /* \"#utility.yul\":4985:5090   */\n    tag_402:\n        /* \"#utility.yul\":5064:5065   */\n      0x03\n        /* \"#utility.yul\":5057:5062   */\n      dup2\n        /* \"#utility.yul\":5054:5066   */\n      lt\n        /* \"#utility.yul\":5044:5084   */\n      tag_520\n      jumpi\n        /* \"#utility.yul\":5080:5081   */\n      0x00\n        /* \"#utility.yul\":5077:5078   */\n      dup1\n        /* \"#utility.yul\":5070:5082   */\n      revert\n        /* \"#utility.yul\":5044:5084   */\n    tag_520:\n        /* \"#utility.yul\":4985:5090   */\n      pop\n      jump\t// out\n        /* \"#utility.yul\":5096:5247   */\n    tag_403:\n        /* \"#utility.yul\":5148:5153   */\n      0x00\n        /* \"#utility.yul\":5186:5192   */\n      dup2\n        /* \"#utility.yul\":5173:5193   */\n      calldataload\n        /* \"#utility.yul\":5164:5193   */\n      swap1\n      pop\n        /* \"#utility.yul\":5202:5241   */\n      tag_522\n        /* \"#utility.yul\":5235:5240   */\n      dup2\n        /* \"#utility.yul\":5202:5241   */\n      tag_402\n      jump\t// in\n    tag_522:\n        /* \"#utility.yul\":5096:5247   */\n      swap3\n      swap2\n      pop\n      pop\n      jump\t// out\n        /* \"#utility.yul\":5253:5594   */\n    tag_52:\n        /* \"#utility.yul\":5318:5324   */\n      0x00\n        /* \"#utility.yul\":5367:5369   */\n      0x20\n        /* \"#utility.yul\":5355:5364   */\n      dup3\n        /* \"#utility.yul\":5346:5353   */\n      dup5\n        /* \"#utility.yul\":5342:5365   */\n      sub\n        /* \"#utility.yul\":5338:5370   */\n      slt\n        /* \"#utility.yul\":5335:5454   */\n      iszero\n      tag_524\n      jumpi\n        /* \"#utility.yul\":5373:5452   */\n      tag_525\n      tag_382\n      jump\t// in\n    tag_525:\n        /* \"#utility.yul\":5335:5454   */\n    tag_524:\n        /* \"#utility.yul\":5493:5494   */\n      0x00\n        /* \"#utility.yul\":5518:5577   */\n      tag_526\n        /* \"#utility.yul\":5569:5576   */\n      dup5\n        /* \"#utility.yul\":5560:5566   */\n      dup3\n        /* \"#utility.yul\":5549:5558   */\n      dup6\n        /* \"#utility.yul\":5545:5567   */\n      add\n        /* \"#utility.yul\":5518:5577   */\n      tag_403\n      jump\t// in\n    tag_526:\n        /* \"#utility.yul\":5508:5577   */\n      swap2\n      pop\n        /* \"#utility.yul\":5464:5587   */\n      pop\n        /* \"#utility.yul\":5253:5594   */\n      swap3\n      swap2\n      pop\n      pop\n      jump\t// out\n        /* \"#utility.yul\":5600:5822   */\n    tag_66:\n        /* \"#utility.yul\":5693:5697   */\n      0x00\n        /* \"#utility.yul\":5731:5733   */\n      0x20\n        /* \"#utility.yul\":5720:5729   */\n      dup3\n        /* \"#utility.yul\":5716:5734   */\n      add\n        /* \"#utility.yul\":5708:5734   */\n      swap1\n      pop\n        /* \"#utility.yul\":5744:5815   */\n      tag_528\n        /* \"#utility.yul\":5812:5813   */\n      0x00\n        /* \"#utility.yul\":5801:5810   */\n      dup4\n        /* \"#utility.yul\":5797:5814   */\n      add\n        /* \"#utility.yul\":5788:5794   */\n      dup5\n        /* \"#utility.yul\":5744:5815   */\n      tag_391\n      jump\t// in\n    tag_528:\n        /* \"#utility.yul\":5600:5822   */\n      swap3\n      swap2\n      pop\n      pop\n      jump\t// out\n        /* \"#utility.yul\":5828:5945   */\n    tag_404:\n        /* \"#utility.yul\":5937:5938   */\n      0x00\n        /* \"#utility.yul\":5934:5935   */\n      dup1\n        /* \"#utility.yul\":5927:5939   */\n      revert\n        /* \"#utility.yul\":5951:6068   */\n    tag_405:\n        /* \"#utility.yul\":6060:6061   */\n      0x00\n        /* \"#utility.yul\":6057:6058   */\n      dup1\n        /* \"#utility.yul\":6050:6062   */\n      revert\n        /* \"#utility.yul\":6074:6191   */\n    tag_406:\n        /* \"#utility.yul\":6183:6184   */\n      0x00\n        /* \"#utility.yul\":6180:6181   */\n      dup1\n        /* \"#utility.yul\":6173:6185   */\n      revert\n        /* \"#utility.yul\":6211:6764   */\n    tag_407:\n        /* \"#utility.yul\":6269:6277   */\n      0x00\n        /* \"#utility.yul\":6279:6285   */\n      dup1\n        /* \"#utility.yul\":6329:6332   */\n      dup4\n        /* \"#utility.yul\":6322:6326   */\n      0x1f\n        /* \"#utility.yul\":6314:6320   */\n      dup5\n        /* \"#utility.yul\":6310:6327   */\n      add\n        /* \"#utility.yul\":6306:6333   */\n      slt\n        /* \"#utility.yul\":6296:6418   */\n      tag_533\n      jumpi\n        /* \"#utility.yul\":6337:6416   */\n      tag_534\n      tag_404\n      jump\t// in\n    tag_534:\n        /* \"#utility.yul\":6296:6418   */\n    tag_533:\n        /* \"#utility.yul\":6450:6456   */\n      dup3\n        /* \"#utility.yul\":6437:6457   */\n      calldataload\n        /* \"#utility.yul\":6427:6457   */\n      swap1\n      pop\n        /* \"#utility.yul\":6480:6498   */\n      0xffffffffffffffff\n        /* \"#utility.yul\":6472:6478   */\n      dup2\n        /* \"#utility.yul\":6469:6499   */\n      gt\n        /* \"#utility.yul\":6466:6583   */\n      iszero\n      tag_535\n      jumpi\n        /* \"#utility.yul\":6502:6581   */\n      tag_536\n      tag_405\n      jump\t// in\n    tag_536:\n        /* \"#utility.yul\":6466:6583   */\n    tag_535:\n        /* \"#utility.yul\":6616:6620   */\n      0x20\n        /* \"#utility.yul\":6608:6614   */\n      dup4\n        /* \"#utility.yul\":6604:6621   */\n      add\n        /* \"#utility.yul\":6592:6621   */\n      swap2\n      pop\n        /* \"#utility.yul\":6670:6673   */\n      dup4\n        /* \"#utility.yul\":6662:6666   */\n      0x01\n        /* \"#utility.yul\":6654:6660   */\n      dup3\n        /* \"#utility.yul\":6650:6667   */\n      mul\n        /* \"#utility.yul\":6640:6648   */\n      dup4\n        /* \"#utility.yul\":6636:6668   */\n      add\n        /* \"#utility.yul\":6633:6674   */\n      gt\n        /* \"#utility.yul\":6630:6758   */\n      iszero\n      tag_537\n      jumpi\n        /* \"#utility.yul\":6677:6756   */\n      tag_538\n      tag_406\n      jump\t// in\n    tag_538:\n        /* \"#utility.yul\":6630:6758   */\n    tag_537:\n        /* \"#utility.yul\":6211:6764   */\n      swap3\n      pop\n      swap3\n      swap1\n      pop\n      jump\t// out\n        /* \"#utility.yul\":6770:7881   */\n    tag_70:\n        /* \"#utility.yul\":6877:6883   */\n      0x00\n        /* \"#utility.yul\":6885:6891   */\n      dup1\n        /* \"#utility.yul\":6893:6899   */\n      0x00\n        /* \"#utility.yul\":6901:6907   */\n      dup1\n        /* \"#utility.yul\":6909:6915   */\n      0x00\n        /* \"#utility.yul\":6917:6923   */\n      dup1\n        /* \"#utility.yul\":6966:6969   */\n      0xa0\n        /* \"#utility.yul\":6954:6963   */\n      dup8\n        /* \"#utility.yul\":6945:6952   */\n      dup10\n        /* \"#utility.yul\":6941:6964   */\n      sub\n        /* \"#utility.yul\":6937:6970   */\n      slt\n        /* \"#utility.yul\":6934:7054   */\n      iszero\n      tag_540\n      jumpi\n        /* \"#utility.yul\":6973:7052   */\n      tag_541\n      tag_382\n      jump\t// in\n    tag_541:\n        /* \"#utility.yul\":6934:7054   */\n    tag_540:\n        /* \"#utility.yul\":7093:7094   */\n      0x00\n        /* \"#utility.yul\":7118:7171   */\n      tag_542\n        /* \"#utility.yul\":7163:7170   */\n      dup10\n        /* \"#utility.yul\":7154:7160   */\n      dup3\n        /* \"#utility.yul\":7143:7152   */\n      dup11\n        /* \"#utility.yul\":7139:7161   */\n      add\n        /* \"#utility.yul\":7118:7171   */\n      tag_390\n      jump\t// in\n    tag_542:\n        /* \"#utility.yul\":7108:7171   */\n      swap7\n      pop\n        /* \"#utility.yul\":7064:7181   */\n      pop\n        /* \"#utility.yul\":7220:7222   */\n      0x20\n        /* \"#utility.yul\":7246:7299   */\n      tag_543\n        /* \"#utility.yul\":7291:7298   */\n      dup10\n        /* \"#utility.yul\":7282:7288   */\n      dup3\n        /* \"#utility.yul\":7271:7280   */\n      dup11\n        /* \"#utility.yul\":7267:7289   */\n      add\n        /* \"#utility.yul\":7246:7299   */\n      tag_390\n      jump\t// in\n    tag_543:\n        /* \"#utility.yul\":7236:7299   */\n      swap6\n      pop\n        /* \"#utility.yul\":7191:7309   */\n      pop\n        /* \"#utility.yul\":7376:7378   */\n      0x40\n        /* \"#utility.yul\":7365:7374   */\n      dup8\n        /* \"#utility.yul\":7361:7379   */\n      add\n        /* \"#utility.yul\":7348:7380   */\n      calldataload\n        /* \"#utility.yul\":7407:7425   */\n      0xffffffffffffffff\n        /* \"#utility.yul\":7399:7405   */\n      dup2\n        /* \"#utility.yul\":7396:7426   */\n      gt\n        /* \"#utility.yul\":7393:7510   */\n      iszero\n      tag_544\n      jumpi\n        /* \"#utility.yul\":7429:7508   */\n      tag_545\n      tag_383\n      jump\t// in\n    tag_545:\n        /* \"#utility.yul\":7393:7510   */\n    tag_544:\n        /* \"#utility.yul\":7542:7607   */\n      tag_546\n        /* \"#utility.yul\":7599:7606   */\n      dup10\n        /* \"#utility.yul\":7590:7596   */\n      dup3\n        /* \"#utility.yul\":7579:7588   */\n      dup11\n        /* \"#utility.yul\":7575:7597   */\n      add\n        /* \"#utility.yul\":7542:7607   */\n      tag_407\n      jump\t// in\n    tag_546:\n        /* \"#utility.yul\":7524:7607   */\n      swap5\n      pop\n      swap5\n      pop\n        /* \"#utility.yul\":7319:7617   */\n      pop\n        /* \"#utility.yul\":7656:7658   */\n      0x60\n        /* \"#utility.yul\":7682:7735   */\n      tag_547\n        /* \"#utility.yul\":7727:7734   */\n      dup10\n        /* \"#utility.yul\":7718:7724   */\n      dup3\n        /* \"#utility.yul\":7707:7716   */\n      dup11\n        /* \"#utility.yul\":7703:7725   */\n      add\n        /* \"#utility.yul\":7682:7735   */\n      tag_390\n      jump\t// in\n    tag_547:\n        /* \"#utility.yul\":7672:7735   */\n      swap3\n      pop\n        /* \"#utility.yul\":7627:7745   */\n      pop\n        /* \"#utility.yul\":7784:7787   */\n      0x80\n        /* \"#utility.yul\":7811:7864   */\n      tag_548\n        /* \"#utility.yul\":7856:7863   */\n      dup10\n        /* \"#utility.yul\":7847:7853   */\n      dup3\n        /* \"#utility.yul\":7836:7845   */\n      dup11\n        /* \"#utility.yul\":7832:7854   */\n      add\n        /* \"#utility.yul\":7811:7864   */\n      tag_387\n      jump\t// in\n    tag_548:\n        /* \"#utility.yul\":7801:7864   */\n      swap2\n      pop\n        /* \"#utility.yul\":7755:7874   */\n      pop\n        /* \"#utility.yul\":6770:7881   */\n      swap3\n      swap6\n      pop\n      swap3\n      swap6\n      pop\n      swap3\n      swap6\n      jump\t// out\n        /* \"#utility.yul\":7887:8109   */\n    tag_76:\n        /* \"#utility.yul\":7980:7984   */\n      0x00\n        /* \"#utility.yul\":8018:8020   */\n      0x20\n        /* \"#utility.yul\":8007:8016   */\n      dup3\n        /* \"#utility.yul\":8003:8021   */\n      add\n        /* \"#utility.yul\":7995:8021   */\n      swap1\n      pop\n        /* \"#utility.yul\":8031:8102   */\n      tag_550\n        /* \"#utility.yul\":8099:8100   */\n      0x00\n        /* \"#utility.yul\":8088:8097   */\n      dup4\n        /* \"#utility.yul\":8084:8101   */\n      add\n        /* \"#utility.yul\":8075:8081   */\n      dup5\n        /* \"#utility.yul\":8031:8102   */\n      tag_397\n      jump\t// in\n    tag_550:\n        /* \"#utility.yul\":7887:8109   */\n      swap3\n      swap2\n      pop\n      pop\n      jump\t// out\n        /* \"#utility.yul\":8115:8232   */\n    tag_408:\n        /* \"#utility.yul\":8224:8225   */\n      0x00\n        /* \"#utility.yul\":8221:8222   */\n      dup1\n        /* \"#utility.yul\":8214:8226   */\n      revert\n        /* \"#utility.yul\":8238:8418   */\n    tag_409:\n        /* \"#utility.yul\":8286:8363   */\n      0x4e487b7100000000000000000000000000000000000000000000000000000000\n        /* \"#utility.yul\":8283:8284   */\n      0x00\n        /* \"#utility.yul\":8276:8364   */\n      mstore\n        /* \"#utility.yul\":8383:8387   */\n      0x41\n        /* \"#utility.yul\":8380:8381   */\n      0x04\n        /* \"#utility.yul\":8373:8388   */\n      mstore\n        /* \"#utility.yul\":8407:8411   */\n      0x24\n        /* \"#utility.yul\":8404:8405   */\n      0x00\n        /* \"#utility.yul\":8397:8412   */\n      revert\n        /* \"#utility.yul\":8424:8705   */\n    tag_410:\n        /* \"#utility.yul\":8507:8534   */\n      tag_554\n        /* \"#utility.yul\":8529:8533   */\n      dup3\n        /* \"#utility.yul\":8507:8534   */\n      tag_395\n      jump\t// in\n    tag_554:\n        /* \"#utility.yul\":8499:8505   */\n      dup2\n        /* \"#utility.yul\":8495:8535   */\n      add\n        /* \"#utility.yul\":8637:8643   */\n      dup2\n        /* \"#utility.yul\":8625:8635   */\n      dup2\n        /* \"#utility.yul\":8622:8644   */\n      lt\n        /* \"#utility.yul\":8601:8619   */\n      0xffffffffffffffff\n        /* \"#utility.yul\":8589:8599   */\n      dup3\n        /* \"#utility.yul\":8586:8620   */\n      gt\n        /* \"#utility.yul\":8583:8645   */\n      or\n        /* \"#utility.yul\":8580:8668   */\n      iszero\n      tag_555\n      jumpi\n        /* \"#utility.yul\":8648:8666   */\n      tag_556\n      tag_409\n      jump\t// in\n    tag_556:\n        /* \"#utility.yul\":8580:8668   */\n    tag_555:\n        /* \"#utility.yul\":8688:8698   */\n      dup1\n        /* \"#utility.yul\":8684:8686   */\n      0x40\n        /* \"#utility.yul\":8677:8699   */\n      mstore\n        /* \"#utility.yul\":8467:8705   */\n      pop\n        /* \"#utility.yul\":8424:8705   */\n      pop\n      pop\n      jump\t// out\n        /* \"#utility.yul\":8711:8840   */\n    tag_411:\n        /* \"#utility.yul\":8745:8751   */\n      0x00\n        /* \"#utility.yul\":8772:8792   */\n      tag_558\n      tag_381\n      jump\t// in\n    tag_558:\n        /* \"#utility.yul\":8762:8792   */\n      swap1\n      pop\n        /* \"#utility.yul\":8801:8834   */\n      tag_559\n        /* \"#utility.yul\":8829:8833   */\n      dup3\n        /* \"#utility.yul\":8821:8827   */\n      dup3\n        /* \"#utility.yul\":8801:8834   */\n      tag_410\n      jump\t// in\n    tag_559:\n        /* \"#utility.yul\":8711:8840   */\n      swap2\n      swap1\n      pop\n      jump\t// out\n        /* \"#utility.yul\":8846:9154   */\n    tag_412:\n        /* \"#utility.yul\":8908:8912   */\n      0x00\n        /* \"#utility.yul\":8998:9016   */\n      0xffffffffffffffff\n        /* \"#utility.yul\":8990:8996   */\n      dup3\n        /* \"#utility.yul\":8987:9017   */\n      gt\n        /* \"#utility.yul\":8984:9040   */\n      iszero\n      tag_561\n      jumpi\n        /* \"#utility.yul\":9020:9038   */\n      tag_562\n      tag_409\n      jump\t// in\n    tag_562:\n        /* \"#utility.yul\":8984:9040   */\n    tag_561:\n        /* \"#utility.yul\":9058:9087   */\n      tag_563\n        /* \"#utility.yul\":9080:9086   */\n      dup3\n        /* \"#utility.yul\":9058:9087   */\n      tag_395\n      jump\t// in\n    tag_563:\n        /* \"#utility.yul\":9050:9087   */\n      swap1\n      pop\n        /* \"#utility.yul\":9142:9146   */\n      0x20\n        /* \"#utility.yul\":9136:9140   */\n      dup2\n        /* \"#utility.yul\":9132:9147   */\n      add\n        /* \"#utility.yul\":9124:9147   */\n      swap1\n      pop\n        /* \"#utility.yul\":8846:9154   */\n      swap2\n      swap1\n      pop\n      jump\t// out\n        /* \"#utility.yul\":9160:9306   */\n    tag_413:\n        /* \"#utility.yul\":9257:9263   */\n      dup3\n        /* \"#utility.yul\":9252:9255   */\n      dup2\n        /* \"#utility.yul\":9247:9250   */\n      dup4\n        /* \"#utility.yul\":9234:9264   */\n      calldatacopy\n        /* \"#utility.yul\":9298:9299   */\n      0x00\n        /* \"#utility.yul\":9289:9295   */\n      dup4\n        /* \"#utility.yul\":9284:9287   */\n      dup4\n        /* \"#utility.yul\":9280:9296   */\n      add\n        /* \"#utility.yul\":9273:9300   */\n      mstore\n        /* \"#utility.yul\":9160:9306   */\n      pop\n      pop\n      pop\n      jump\t// out\n        /* \"#utility.yul\":9312:9737   */\n    tag_414:\n        /* \"#utility.yul\":9390:9395   */\n      0x00\n        /* \"#utility.yul\":9415:9481   */\n      tag_566\n        /* \"#utility.yul\":9431:9480   */\n      tag_567\n        /* \"#utility.yul\":9473:9479   */\n      dup5\n        /* \"#utility.yul\":9431:9480   */\n      tag_412\n      jump\t// in\n    tag_567:\n        /* \"#utility.yul\":9415:9481   */\n      tag_411\n      jump\t// in\n    tag_566:\n        /* \"#utility.yul\":9406:9481   */\n      swap1\n      pop\n        /* \"#utility.yul\":9504:9510   */\n      dup3\n        /* \"#utility.yul\":9497:9502   */\n      dup2\n        /* \"#utility.yul\":9490:9511   */\n      mstore\n        /* \"#utility.yul\":9542:9546   */\n      0x20\n        /* \"#utility.yul\":9535:9540   */\n      dup2\n        /* \"#utility.yul\":9531:9547   */\n      add\n        /* \"#utility.yul\":9580:9583   */\n      dup5\n        /* \"#utility.yul\":9571:9577   */\n      dup5\n        /* \"#utility.yul\":9566:9569   */\n      dup5\n        /* \"#utility.yul\":9562:9578   */\n      add\n        /* \"#utility.yul\":9559:9584   */\n      gt\n        /* \"#utility.yul\":9556:9668   */\n      iszero\n      tag_568\n      jumpi\n        /* \"#utility.yul\":9587:9666   */\n      tag_569\n      tag_408\n      jump\t// in\n    tag_569:\n        /* \"#utility.yul\":9556:9668   */\n    tag_568:\n        /* \"#utility.yul\":9677:9731   */\n      tag_570\n        /* \"#utility.yul\":9724:9730   */\n      dup5\n        /* \"#utility.yul\":9719:9722   */\n      dup3\n        /* \"#utility.yul\":9714:9717   */\n      dup6\n        /* \"#utility.yul\":9677:9731   */\n      tag_413\n      jump\t// in\n    tag_570:\n        /* \"#utility.yul\":9396:9737   */\n      pop\n        /* \"#utility.yul\":9312:9737   */\n      swap4\n      swap3\n      pop\n      pop\n      pop\n      jump\t// out\n        /* \"#utility.yul\":9757:10097   */\n    tag_415:\n        /* \"#utility.yul\":9813:9818   */\n      0x00\n        /* \"#utility.yul\":9862:9865   */\n      dup3\n        /* \"#utility.yul\":9855:9859   */\n      0x1f\n        /* \"#utility.yul\":9847:9853   */\n      dup4\n        /* \"#utility.yul\":9843:9860   */\n      add\n        /* \"#utility.yul\":9839:9866   */\n      slt\n        /* \"#utility.yul\":9829:9951   */\n      tag_572\n      jumpi\n        /* \"#utility.yul\":9870:9949   */\n      tag_573\n      tag_404\n      jump\t// in\n    tag_573:\n        /* \"#utility.yul\":9829:9951   */\n    tag_572:\n        /* \"#utility.yul\":9987:9993   */\n      dup2\n        /* \"#utility.yul\":9974:9994   */\n      calldataload\n        /* \"#utility.yul\":10012:10091   */\n      tag_574\n        /* \"#utility.yul\":10087:10090   */\n      dup5\n        /* \"#utility.yul\":10079:10085   */\n      dup3\n        /* \"#utility.yul\":10072:10076   */\n      0x20\n        /* \"#utility.yul\":10064:10070   */\n      dup7\n        /* \"#utility.yul\":10060:10077   */\n      add\n        /* \"#utility.yul\":10012:10091   */\n      tag_414\n      jump\t// in\n    tag_574:\n        /* \"#utility.yul\":10003:10091   */\n      swap2\n      pop\n        /* \"#utility.yul\":9819:10097   */\n      pop\n        /* \"#utility.yul\":9757:10097   */\n      swap3\n      swap2\n      pop\n      pop\n      jump\t// out\n        /* \"#utility.yul\":10103:11048   */\n    tag_79:\n        /* \"#utility.yul\":10199:10205   */\n      0x00\n        /* \"#utility.yul\":10207:10213   */\n      dup1\n        /* \"#utility.yul\":10215:10221   */\n      0x00\n        /* \"#utility.yul\":10223:10229   */\n      dup1\n        /* \"#utility.yul\":10272:10275   */\n      0x80\n        /* \"#utility.yul\":10260:10269   */\n      dup6\n        /* \"#utility.yul\":10251:10258   */\n      dup8\n        /* \"#utility.yul\":10247:10270   */\n      sub\n        /* \"#utility.yul\":10243:10276   */\n      slt\n        /* \"#utility.yul\":10240:10360   */\n      iszero\n      tag_576\n      jumpi\n        /* \"#utility.yul\":10279:10358   */\n      tag_577\n      tag_382\n      jump\t// in\n    tag_577:\n        /* \"#utility.yul\":10240:10360   */\n    tag_576:\n        /* \"#utility.yul\":10399:10400   */\n      0x00\n        /* \"#utility.yul\":10424:10477   */\n      tag_578\n        /* \"#utility.yul\":10469:10476   */\n      dup8\n        /* \"#utility.yul\":10460:10466   */\n      dup3\n        /* \"#utility.yul\":10449:10458   */\n      dup9\n        /* \"#utility.yul\":10445:10467   */\n      add\n        /* \"#utility.yul\":10424:10477   */\n      tag_387\n      jump\t// in\n    tag_578:\n        /* \"#utility.yul\":10414:10477   */\n      swap5\n      pop\n        /* \"#utility.yul\":10370:10487   */\n      pop\n        /* \"#utility.yul\":10526:10528   */\n      0x20\n        /* \"#utility.yul\":10552:10605   */\n      tag_579\n        /* \"#utility.yul\":10597:10604   */\n      dup8\n        /* \"#utility.yul\":10588:10594   */\n      dup3\n        /* \"#utility.yul\":10577:10586   */\n      dup9\n        /* \"#utility.yul\":10573:10595   */\n      add\n        /* \"#utility.yul\":10552:10605   */\n      tag_390\n      jump\t// in\n    tag_579:\n        /* \"#utility.yul\":10542:10605   */\n      swap4\n      pop\n        /* \"#utility.yul\":10497:10615   */\n      pop\n        /* \"#utility.yul\":10654:10656   */\n      0x40\n        /* \"#utility.yul\":10680:10733   */\n      tag_580\n        /* \"#utility.yul\":10725:10732   */\n      dup8\n        /* \"#utility.yul\":10716:10722   */\n      dup3\n        /* \"#utility.yul\":10705:10714   */\n      dup9\n        /* \"#utility.yul\":10701:10723   */\n      add\n        /* \"#utility.yul\":10680:10733   */\n      tag_390\n      jump\t// in\n    tag_580:\n        /* \"#utility.yul\":10670:10733   */\n      swap3\n      pop\n        /* \"#utility.yul\":10625:10743   */\n      pop\n        /* \"#utility.yul\":10810:10812   */\n      0x60\n        /* \"#utility.yul\":10799:10808   */\n      dup6\n        /* \"#utility.yul\":10795:10813   */\n      add\n        /* \"#utility.yul\":10782:10814   */\n      calldataload\n        /* \"#utility.yul\":10841:10859   */\n      0xffffffffffffffff\n        /* \"#utility.yul\":10833:10839   */\n      dup2\n        /* \"#utility.yul\":10830:10860   */\n      gt\n        /* \"#utility.yul\":10827:10944   */\n      iszero\n      tag_581\n      jumpi\n        /* \"#utility.yul\":10863:10942   */\n      tag_582\n      tag_383\n      jump\t// in\n    tag_582:\n        /* \"#utility.yul\":10827:10944   */\n    tag_581:\n        /* \"#utility.yul\":10968:11031   */\n      tag_583\n        /* \"#utility.yul\":11023:11030   */\n      dup8\n        /* \"#utility.yul\":11014:11020   */\n      dup3\n        /* \"#utility.yul\":11003:11012   */\n      dup9\n        /* \"#utility.yul\":10999:11021   */\n      add\n        /* \"#utility.yul\":10968:11031   */\n      tag_415\n      jump\t// in\n    tag_583:\n        /* \"#utility.yul\":10958:11031   */\n      swap2\n      pop\n        /* \"#utility.yul\":10753:11041   */\n      pop\n        /* \"#utility.yul\":10103:11048   */\n      swap3\n      swap6\n      swap2\n      swap5\n      pop\n      swap3\n      pop\n      jump\t// out\n        /* \"#utility.yul\":11054:11708   */\n    tag_84:\n        /* \"#utility.yul\":11132:11138   */\n      0x00\n        /* \"#utility.yul\":11140:11146   */\n      dup1\n        /* \"#utility.yul\":11189:11191   */\n      0x40\n        /* \"#utility.yul\":11177:11186   */\n      dup4\n        /* \"#utility.yul\":11168:11175   */\n      dup6\n        /* \"#utility.yul\":11164:11187   */\n      sub\n        /* \"#utility.yul\":11160:11192   */\n      slt\n        /* \"#utility.yul\":11157:11276   */\n      iszero\n      tag_585\n      jumpi\n        /* \"#utility.yul\":11195:11274   */\n      tag_586\n      tag_382\n      jump\t// in\n    tag_586:\n        /* \"#utility.yul\":11157:11276   */\n    tag_585:\n        /* \"#utility.yul\":11343:11344   */\n      0x00\n        /* \"#utility.yul\":11332:11341   */\n      dup4\n        /* \"#utility.yul\":11328:11345   */\n      add\n        /* \"#utility.yul\":11315:11346   */\n      calldataload\n        /* \"#utility.yul\":11373:11391   */\n      0xffffffffffffffff\n        /* \"#utility.yul\":11365:11371   */\n      dup2\n        /* \"#utility.yul\":11362:11392   */\n      gt\n        /* \"#utility.yul\":11359:11476   */\n      iszero\n      tag_587\n      jumpi\n        /* \"#utility.yul\":11395:11474   */\n      tag_588\n      tag_383\n      jump\t// in\n    tag_588:\n        /* \"#utility.yul\":11359:11476   */\n    tag_587:\n        /* \"#utility.yul\":11500:11563   */\n      tag_589\n        /* \"#utility.yul\":11555:11562   */\n      dup6\n        /* \"#utility.yul\":11546:11552   */\n      dup3\n        /* \"#utility.yul\":11535:11544   */\n      dup7\n        /* \"#utility.yul\":11531:11553   */\n      add\n        /* \"#utility.yul\":11500:11563   */\n      tag_415\n      jump\t// in\n    tag_589:\n        /* \"#utility.yul\":11490:11563   */\n      swap3\n      pop\n        /* \"#utility.yul\":11286:11573   */\n      pop\n        /* \"#utility.yul\":11612:11614   */\n      0x20\n        /* \"#utility.yul\":11638:11691   */\n      tag_590\n        /* \"#utility.yul\":11683:11690   */\n      dup6\n        /* \"#utility.yul\":11674:11680   */\n      dup3\n        /* \"#utility.yul\":11663:11672   */\n      dup7\n        /* \"#utility.yul\":11659:11681   */\n      add\n        /* \"#utility.yul\":11638:11691   */\n      tag_387\n      jump\t// in\n    tag_590:\n        /* \"#utility.yul\":11628:11691   */\n      swap2\n      pop\n        /* \"#utility.yul\":11583:11701   */\n      pop\n        /* \"#utility.yul\":11054:11708   */\n      swap3\n      pop\n      swap3\n      swap1\n      pop\n      jump\t// out\n        /* \"#utility.yul\":11714:12043   */\n    tag_89:\n        /* \"#utility.yul\":11773:11779   */\n      0x00\n        /* \"#utility.yul\":11822:11824   */\n      0x20\n        /* \"#utility.yul\":11810:11819   */\n      dup3\n        /* \"#utility.yul\":11801:11808   */\n      dup5\n        /* \"#utility.yul\":11797:11820   */\n      sub\n        /* \"#utility.yul\":11793:11825   */\n      slt\n        /* \"#utility.yul\":11790:11909   */\n      iszero\n      tag_592\n      jumpi\n        /* \"#utility.yul\":11828:11907   */\n      tag_593\n      tag_382\n      jump\t// in\n    tag_593:\n        /* \"#utility.yul\":11790:11909   */\n    tag_592:\n        /* \"#utility.yul\":11948:11949   */\n      0x00\n        /* \"#utility.yul\":11973:12026   */\n      tag_594\n        /* \"#utility.yul\":12018:12025   */\n      dup5\n        /* \"#utility.yul\":12009:12015   */\n      dup3\n        /* \"#utility.yul\":11998:12007   */\n      dup6\n        /* \"#utility.yul\":11994:12016   */\n      add\n        /* \"#utility.yul\":11973:12026   */\n      tag_387\n      jump\t// in\n    tag_594:\n        /* \"#utility.yul\":11963:12026   */\n      swap2\n      pop\n        /* \"#utility.yul\":11919:12036   */\n      pop\n        /* \"#utility.yul\":11714:12043   */\n      swap3\n      swap2\n      pop\n      pop\n      jump\t// out\n        /* \"#utility.yul\":12049:12389   */\n    tag_92:\n        /* \"#utility.yul\":12174:12178   */\n      0x00\n        /* \"#utility.yul\":12212:12214   */\n      0x40\n        /* \"#utility.yul\":12201:12210   */\n      dup3\n        /* \"#utility.yul\":12197:12215   */\n      add\n        /* \"#utility.yul\":12189:12215   */\n      swap1\n      pop\n        /* \"#utility.yul\":12225:12300   */\n      tag_596\n        /* \"#utility.yul\":12297:12298   */\n      0x00\n        /* \"#utility.yul\":12286:12295   */\n      dup4\n        /* \"#utility.yul\":12282:12299   */\n      add\n        /* \"#utility.yul\":12273:12279   */\n      dup6\n        /* \"#utility.yul\":12225:12300   */\n      tag_401\n      jump\t// in\n    tag_596:\n        /* \"#utility.yul\":12310:12382   */\n      tag_597\n        /* \"#utility.yul\":12378:12380   */\n      0x20\n        /* \"#utility.yul\":12367:12376   */\n      dup4\n        /* \"#utility.yul\":12363:12381   */\n      add\n        /* \"#utility.yul\":12354:12360   */\n      dup5\n        /* \"#utility.yul\":12310:12382   */\n      tag_391\n      jump\t// in\n    tag_597:\n        /* \"#utility.yul\":12049:12389   */\n      swap4\n      swap3\n      pop\n      pop\n      pop\n      jump\t// out\n        /* \"#utility.yul\":12395:12904   */\n    tag_99:\n        /* \"#utility.yul\":12464:12470   */\n      0x00\n        /* \"#utility.yul\":12513:12515   */\n      0x20\n        /* \"#utility.yul\":12501:12510   */\n      dup3\n        /* \"#utility.yul\":12492:12499   */\n      dup5\n        /* \"#utility.yul\":12488:12511   */\n      sub\n        /* \"#utility.yul\":12484:12516   */\n      slt\n        /* \"#utility.yul\":12481:12600   */\n      iszero\n      tag_599\n      jumpi\n        /* \"#utility.yul\":12519:12598   */\n      tag_600\n      tag_382\n      jump\t// in\n    tag_600:\n        /* \"#utility.yul\":12481:12600   */\n    tag_599:\n        /* \"#utility.yul\":12667:12668   */\n      0x00\n        /* \"#utility.yul\":12656:12665   */\n      dup3\n        /* \"#utility.yul\":12652:12669   */\n      add\n        /* \"#utility.yul\":12639:12670   */\n      calldataload\n        /* \"#utility.yul\":12697:12715   */\n      0xffffffffffffffff\n        /* \"#utility.yul\":12689:12695   */\n      dup2\n        /* \"#utility.yul\":12686:12716   */\n      gt\n        /* \"#utility.yul\":12683:12800   */\n      iszero\n      tag_601\n      jumpi\n        /* \"#utility.yul\":12719:12798   */\n      tag_602\n      tag_383\n      jump\t// in\n    tag_602:\n        /* \"#utility.yul\":12683:12800   */\n    tag_601:\n        /* \"#utility.yul\":12824:12887   */\n      tag_603\n        /* \"#utility.yul\":12879:12886   */\n      dup5\n        /* \"#utility.yul\":12870:12876   */\n      dup3\n        /* \"#utility.yul\":12859:12868   */\n      dup6\n        /* \"#utility.yul\":12855:12877   */\n      add\n        /* \"#utility.yul\":12824:12887   */\n      tag_415\n      jump\t// in\n    tag_603:\n        /* \"#utility.yul\":12814:12887   */\n      swap2\n      pop\n        /* \"#utility.yul\":12610:12897   */\n      pop\n        /* \"#utility.yul\":12395:12904   */\n      swap3\n      swap2\n      pop\n      pop\n      jump\t// out\n        /* \"#utility.yul\":12910:13675   */\n    tag_108:\n        /* \"#utility.yul\":12996:13002   */\n      0x00\n        /* \"#utility.yul\":13004:13010   */\n      dup1\n        /* \"#utility.yul\":13012:13018   */\n      0x00\n        /* \"#utility.yul\":13020:13026   */\n      dup1\n        /* \"#utility.yul\":13069:13072   */\n      0x80\n        /* \"#utility.yul\":13057:13066   */\n      dup6\n        /* \"#utility.yul\":13048:13055   */\n      dup8\n        /* \"#utility.yul\":13044:13067   */\n      sub\n        /* \"#utility.yul\":13040:13073   */\n      slt\n        /* \"#utility.yul\":13037:13157   */\n      iszero\n      tag_605\n      jumpi\n        /* \"#utility.yul\":13076:13155   */\n      tag_606\n      tag_382\n      jump\t// in\n    tag_606:\n        /* \"#utility.yul\":13037:13157   */\n    tag_605:\n        /* \"#utility.yul\":13196:13197   */\n      0x00\n        /* \"#utility.yul\":13221:13274   */\n      tag_607\n        /* \"#utility.yul\":13266:13273   */\n      dup8\n        /* \"#utility.yul\":13257:13263   */\n      dup3\n        /* \"#utility.yul\":13246:13255   */\n      dup9\n        /* \"#utility.yul\":13242:13264   */\n      add\n        /* \"#utility.yul\":13221:13274   */\n      tag_387\n      jump\t// in\n    tag_607:\n        /* \"#utility.yul\":13211:13274   */\n      swap5\n      pop\n        /* \"#utility.yul\":13167:13284   */\n      pop\n        /* \"#utility.yul\":13323:13325   */\n      0x20\n        /* \"#utility.yul\":13349:13402   */\n      tag_608\n        /* \"#utility.yul\":13394:13401   */\n      dup8\n        /* \"#utility.yul\":13385:13391   */\n      dup3\n        /* \"#utility.yul\":13374:13383   */\n      dup9\n        /* \"#utility.yul\":13370:13392   */\n      add\n        /* \"#utility.yul\":13349:13402   */\n      tag_390\n      jump\t// in\n    tag_608:\n        /* \"#utility.yul\":13339:13402   */\n      swap4\n      pop\n        /* \"#utility.yul\":13294:13412   */\n      pop\n        /* \"#utility.yul\":13451:13453   */\n      0x40\n        /* \"#utility.yul\":13477:13530   */\n      tag_609\n        /* \"#utility.yul\":13522:13529   */\n      dup8\n        /* \"#utility.yul\":13513:13519   */\n      dup3\n        /* \"#utility.yul\":13502:13511   */\n      dup9\n        /* \"#utility.yul\":13498:13520   */\n      add\n        /* \"#utility.yul\":13477:13530   */\n      tag_390\n      jump\t// in\n    tag_609:\n        /* \"#utility.yul\":13467:13530   */\n      swap3\n      pop\n        /* \"#utility.yul\":13422:13540   */\n      pop\n        /* \"#utility.yul\":13579:13581   */\n      0x60\n        /* \"#utility.yul\":13605:13658   */\n      tag_610\n        /* \"#utility.yul\":13650:13657   */\n      dup8\n        /* \"#utility.yul\":13641:13647   */\n      dup3\n        /* \"#utility.yul\":13630:13639   */\n      dup9\n        /* \"#utility.yul\":13626:13648   */\n      add\n        /* \"#utility.yul\":13605:13658   */\n      tag_387\n      jump\t// in\n    tag_610:\n        /* \"#utility.yul\":13595:13658   */\n      swap2\n      pop\n        /* \"#utility.yul\":13550:13668   */\n      pop\n        /* \"#utility.yul\":12910:13675   */\n      swap3\n      swap6\n      swap2\n      swap5\n      pop\n      swap3\n      pop\n      jump\t// out\n        /* \"#utility.yul\":13681:13861   */\n    tag_416:\n        /* \"#utility.yul\":13729:13806   */\n      0x4e487b7100000000000000000000000000000000000000000000000000000000\n        /* \"#utility.yul\":13726:13727   */\n      0x00\n        /* \"#utility.yul\":13719:13807   */\n      mstore\n        /* \"#utility.yul\":13826:13830   */\n      0x22\n        /* \"#utility.yul\":13823:13824   */\n      0x04\n        /* \"#utility.yul\":13816:13831   */\n      mstore\n        /* \"#utility.yul\":13850:13854   */\n      0x24\n        /* \"#utility.yul\":13847:13848   */\n      0x00\n        /* \"#utility.yul\":13840:13855   */\n      revert\n        /* \"#utility.yul\":13867:14187   */\n    tag_113:\n        /* \"#utility.yul\":13911:13917   */\n      0x00\n        /* \"#utility.yul\":13948:13949   */\n      0x02\n        /* \"#utility.yul\":13942:13946   */\n      dup3\n        /* \"#utility.yul\":13938:13950   */\n      div\n        /* \"#utility.yul\":13928:13950   */\n      swap1\n      pop\n        /* \"#utility.yul\":13995:13996   */\n      0x01\n        /* \"#utility.yul\":13989:13993   */\n      dup3\n        /* \"#utility.yul\":13985:13997   */\n      and\n        /* \"#utility.yul\":14016:14034   */\n      dup1\n        /* \"#utility.yul\":14006:14087   */\n      tag_613\n      jumpi\n        /* \"#utility.yul\":14072:14076   */\n      0x7f\n        /* \"#utility.yul\":14064:14070   */\n      dup3\n        /* \"#utility.yul\":14060:14077   */\n      and\n        /* \"#utility.yul\":14050:14077   */\n      swap2\n      pop\n        /* \"#utility.yul\":14006:14087   */\n    tag_613:\n        /* \"#utility.yul\":14134:14136   */\n      0x20\n        /* \"#utility.yul\":14126:14132   */\n      dup3\n        /* \"#utility.yul\":14123:14137   */\n      lt\n        /* \"#utility.yul\":14103:14121   */\n      dup2\n        /* \"#utility.yul\":14100:14138   */\n      sub\n        /* \"#utility.yul\":14097:14181   */\n      tag_614\n      jumpi\n        /* \"#utility.yul\":14153:14171   */\n      tag_615\n      tag_416\n      jump\t// in\n    tag_615:\n        /* \"#utility.yul\":14097:14181   */\n    tag_614:\n        /* \"#utility.yul\":13918:14187   */\n      pop\n        /* \"#utility.yul\":13867:14187   */\n      swap2\n      swap1\n      pop\n      jump\t// out\n        /* \"#utility.yul\":14193:14373   */\n    tag_134:\n        /* \"#utility.yul\":14241:14318   */\n      0x4e487b7100000000000000000000000000000000000000000000000000000000\n        /* \"#utility.yul\":14238:14239   */\n      0x00\n        /* \"#utility.yul\":14231:14319   */\n      mstore\n        /* \"#utility.yul\":14338:14342   */\n      0x32\n        /* \"#utility.yul\":14335:14336   */\n      0x04\n        /* \"#utility.yul\":14328:14343   */\n      mstore\n        /* \"#utility.yul\":14362:14366   */\n      0x24\n        /* \"#utility.yul\":14359:14360   */\n      0x00\n        /* \"#utility.yul\":14352:14367   */\n      revert\n        /* \"#utility.yul\":14379:14559   */\n    tag_417:\n        /* \"#utility.yul\":14427:14504   */\n      0x4e487b7100000000000000000000000000000000000000000000000000000000\n        /* \"#utility.yul\":14424:14425   */\n      0x00\n        /* \"#utility.yul\":14417:14505   */\n      mstore\n        /* \"#utility.yul\":14524:14528   */\n      0x11\n        /* \"#utility.yul\":14521:14522   */\n      0x04\n        /* \"#utility.yul\":14514:14529   */\n      mstore\n        /* \"#utility.yul\":14548:14552   */\n      0x24\n        /* \"#utility.yul\":14545:14546   */\n      0x00\n        /* \"#utility.yul\":14538:14553   */\n      revert\n        /* \"#utility.yul\":14565:14975   */\n    tag_147:\n        /* \"#utility.yul\":14605:14612   */\n      0x00\n        /* \"#utility.yul\":14628:14648   */\n      tag_619\n        /* \"#utility.yul\":14646:14647   */\n      dup3\n        /* \"#utility.yul\":14628:14648   */\n      tag_388\n      jump\t// in\n    tag_619:\n        /* \"#utility.yul\":14623:14648   */\n      swap2\n      pop\n        /* \"#utility.yul\":14662:14682   */\n      tag_620\n        /* \"#utility.yul\":14680:14681   */\n      dup4\n        /* \"#utility.yul\":14662:14682   */\n      tag_388\n      jump\t// in\n    tag_620:\n        /* \"#utility.yul\":14657:14682   */\n      swap3\n      pop\n        /* \"#utility.yul\":14717:14718   */\n      dup3\n        /* \"#utility.yul\":14714:14715   */\n      dup3\n        /* \"#utility.yul\":14710:14719   */\n      mul\n        /* \"#utility.yul\":14739:14769   */\n      tag_621\n        /* \"#utility.yul\":14757:14768   */\n      dup2\n        /* \"#utility.yul\":14739:14769   */\n      tag_388\n      jump\t// in\n    tag_621:\n        /* \"#utility.yul\":14728:14769   */\n      swap2\n      pop\n        /* \"#utility.yul\":14918:14919   */\n      dup3\n        /* \"#utility.yul\":14909:14916   */\n      dup3\n        /* \"#utility.yul\":14905:14920   */\n      div\n        /* \"#utility.yul\":14902:14903   */\n      dup5\n        /* \"#utility.yul\":14899:14921   */\n      eq\n        /* \"#utility.yul\":14879:14880   */\n      dup4\n        /* \"#utility.yul\":14872:14881   */\n      iszero\n        /* \"#utility.yul\":14852:14935   */\n      or\n        /* \"#utility.yul\":14829:14968   */\n      tag_622\n      jumpi\n        /* \"#utility.yul\":14948:14966   */\n      tag_623\n      tag_417\n      jump\t// in\n    tag_623:\n        /* \"#utility.yul\":14829:14968   */\n    tag_622:\n        /* \"#utility.yul\":14613:14975   */\n      pop\n        /* \"#utility.yul\":14565:14975   */\n      swap3\n      swap2\n      pop\n      pop\n      jump\t// out\n        /* \"#utility.yul\":14981:15172   */\n    tag_156:\n        /* \"#utility.yul\":15021:15024   */\n      0x00\n        /* \"#utility.yul\":15040:15060   */\n      tag_625\n        /* \"#utility.yul\":15058:15059   */\n      dup3\n        /* \"#utility.yul\":15040:15060   */\n      tag_388\n      jump\t// in\n    tag_625:\n        /* \"#utility.yul\":15035:15060   */\n      swap2\n      pop\n        /* \"#utility.yul\":15074:15094   */\n      tag_626\n        /* \"#utility.yul\":15092:15093   */\n      dup4\n        /* \"#utility.yul\":15074:15094   */\n      tag_388\n      jump\t// in\n    tag_626:\n        /* \"#utility.yul\":15069:15094   */\n      swap3\n      pop\n        /* \"#utility.yul\":15117:15118   */\n      dup3\n        /* \"#utility.yul\":15114:15115   */\n      dup3\n        /* \"#utility.yul\":15110:15119   */\n      add\n        /* \"#utility.yul\":15103:15119   */\n      swap1\n      pop\n        /* \"#utility.yul\":15138:15141   */\n      dup1\n        /* \"#utility.yul\":15135:15136   */\n      dup3\n        /* \"#utility.yul\":15132:15142   */\n      gt\n        /* \"#utility.yul\":15129:15165   */\n      iszero\n      tag_627\n      jumpi\n        /* \"#utility.yul\":15145:15163   */\n      tag_628\n      tag_417\n      jump\t// in\n    tag_628:\n        /* \"#utility.yul\":15129:15165   */\n    tag_627:\n        /* \"#utility.yul\":14981:15172   */\n      swap3\n      swap2\n      pop\n      pop\n      jump\t// out\n        /* \"#utility.yul\":15178:15372   */\n    tag_163:\n        /* \"#utility.yul\":15218:15222   */\n      0x00\n        /* \"#utility.yul\":15238:15258   */\n      tag_630\n        /* \"#utility.yul\":15256:15257   */\n      dup3\n        /* \"#utility.yul\":15238:15258   */\n      tag_388\n      jump\t// in\n    tag_630:\n        /* \"#utility.yul\":15233:15258   */\n      swap2\n      pop\n        /* \"#utility.yul\":15272:15292   */\n      tag_631\n        /* \"#utility.yul\":15290:15291   */\n      dup4\n        /* \"#utility.yul\":15272:15292   */\n      tag_388\n      jump\t// in\n    tag_631:\n        /* \"#utility.yul\":15267:15292   */\n      swap3\n      pop\n        /* \"#utility.yul\":15316:15317   */\n      dup3\n        /* \"#utility.yul\":15313:15314   */\n      dup3\n        /* \"#utility.yul\":15309:15318   */\n      sub\n        /* \"#utility.yul\":15301:15318   */\n      swap1\n      pop\n        /* \"#utility.yul\":15340:15341   */\n      dup2\n        /* \"#utility.yul\":15334:15338   */\n      dup2\n        /* \"#utility.yul\":15331:15342   */\n      gt\n        /* \"#utility.yul\":15328:15365   */\n      iszero\n      tag_632\n      jumpi\n        /* \"#utility.yul\":15345:15363   */\n      tag_633\n      tag_417\n      jump\t// in\n    tag_633:\n        /* \"#utility.yul\":15328:15365   */\n    tag_632:\n        /* \"#utility.yul\":15178:15372   */\n      swap3\n      swap2\n      pop\n      pop\n      jump\t// out\n        /* \"#utility.yul\":15378:15527   */\n    tag_418:\n        /* \"#utility.yul\":15427:15433   */\n      0x00\n        /* \"#utility.yul\":15461:15466   */\n      dup2\n        /* \"#utility.yul\":15455:15467   */\n      sload\n        /* \"#utility.yul\":15445:15467   */\n      swap1\n      pop\n        /* \"#utility.yul\":15487:15520   */\n      tag_635\n        /* \"#utility.yul\":15513:15519   */\n      dup2\n        /* \"#utility.yul\":15487:15520   */\n      tag_113\n      jump\t// in\n    tag_635:\n        /* \"#utility.yul\":15477:15520   */\n      swap1\n      pop\n        /* \"#utility.yul\":15378:15527   */\n      swap2\n      swap1\n      pop\n      jump\t// out\n        /* \"#utility.yul\":15533:15674   */\n    tag_419:\n        /* \"#utility.yul\":15582:15586   */\n      0x00\n        /* \"#utility.yul\":15605:15608   */\n      dup2\n        /* \"#utility.yul\":15597:15608   */\n      swap1\n      pop\n        /* \"#utility.yul\":15628:15631   */\n      dup2\n        /* \"#utility.yul\":15625:15626   */\n      0x00\n        /* \"#utility.yul\":15618:15632   */\n      mstore\n        /* \"#utility.yul\":15662:15666   */\n      0x20\n        /* \"#utility.yul\":15659:15660   */\n      0x00\n        /* \"#utility.yul\":15649:15667   */\n      keccak256\n        /* \"#utility.yul\":15641:15667   */\n      swap1\n      pop\n        /* \"#utility.yul\":15533:15674   */\n      swap2\n      swap1\n      pop\n      jump\t// out\n        /* \"#utility.yul\":15680:15773   */\n    tag_420:\n        /* \"#utility.yul\":15717:15723   */\n      0x00\n        /* \"#utility.yul\":15764:15766   */\n      0x20\n        /* \"#utility.yul\":15759:15761   */\n      0x1f\n        /* \"#utility.yul\":15752:15757   */\n      dup4\n        /* \"#utility.yul\":15748:15762   */\n      add\n        /* \"#utility.yul\":15744:15767   */\n      div\n        /* \"#utility.yul\":15734:15767   */\n      swap1\n      pop\n        /* \"#utility.yul\":15680:15773   */\n      swap2\n      swap1\n      pop\n      jump\t// out\n        /* \"#utility.yul\":15779:15886   */\n    tag_421:\n        /* \"#utility.yul\":15823:15831   */\n      0x00\n        /* \"#utility.yul\":15873:15878   */\n      dup3\n        /* \"#utility.yul\":15867:15871   */\n      dup3\n        /* \"#utility.yul\":15863:15879   */\n      shl\n        /* \"#utility.yul\":15842:15879   */\n      swap1\n      pop\n        /* \"#utility.yul\":15779:15886   */\n      swap3\n      swap2\n      pop\n      pop\n      jump\t// out\n        /* \"#utility.yul\":15892:16285   */\n    tag_422:\n        /* \"#utility.yul\":15961:15967   */\n      0x00\n        /* \"#utility.yul\":16011:16012   */\n      0x08\n        /* \"#utility.yul\":15999:16009   */\n      dup4\n        /* \"#utility.yul\":15995:16013   */\n      mul\n        /* \"#utility.yul\":16034:16131   */\n      tag_640\n        /* \"#utility.yul\":16064:16130   */\n      0xffffffffffffffffffffffffffffffffffffffffffffffffffffffffffffffff\n        /* \"#utility.yul\":16053:16062   */\n      dup3\n        /* \"#utility.yul\":16034:16131   */\n      tag_421\n      jump\t// in\n    tag_640:\n        /* \"#utility.yul\":16152:16191   */\n      tag_641\n        /* \"#utility.yul\":16182:16190   */\n      dup7\n        /* \"#utility.yul\":16171:16180   */\n      dup4\n        /* \"#utility.yul\":16152:16191   */\n      tag_421\n      jump\t// in\n    tag_641:\n        /* \"#utility.yul\":16140:16191   */\n      swap6\n      pop\n        /* \"#utility.yul\":16224:16228   */\n      dup1\n        /* \"#utility.yul\":16220:16229   */\n      not\n        /* \"#utility.yul\":16213:16218   */\n      dup5\n        /* \"#utility.yul\":16209:16230   */\n      and\n        /* \"#utility.yul\":16200:16230   */\n      swap4\n      pop\n        /* \"#utility.yul\":16273:16277   */\n      dup1\n        /* \"#utility.yul\":16263:16271   */\n      dup7\n        /* \"#utility.yul\":16259:16278   */\n      and\n        /* \"#utility.yul\":16252:16257   */\n      dup5\n        /* \"#utility.yul\":16249:16279   */\n      or\n        /* \"#utility.yul\":16239:16279   */\n      swap3\n      pop\n        /* \"#utility.yul\":15968:16285   */\n      pop\n      pop\n        /* \"#utility.yul\":15892:16285   */\n      swap4\n      swap3\n      pop\n      pop\n      pop\n      jump\t// out\n        /* \"#utility.yul\":16291:16351   */\n    tag_423:\n        /* \"#utility.yul\":16319:16322   */\n      0x00\n        /* \"#utility.yul\":16340:16345   */\n      dup2\n        /* \"#utility.yul\":16333:16345   */\n      swap1\n      pop\n        /* \"#utility.yul\":16291:16351   */\n      swap2\n      swap1\n      pop\n      jump\t// out\n        /* \"#utility.yul\":16357:16499   */\n    tag_424:\n        /* \"#utility.yul\":16407:16416   */\n      0x00\n        /* \"#utility.yul\":16440:16493   */\n      tag_644\n        /* \"#utility.yul\":16458:16492   */\n      tag_645\n        /* \"#utility.yul\":16467:16491   */\n      tag_646\n        /* \"#utility.yul\":16485:16490   */\n      dup5\n        /* \"#utility.yul\":16467:16491   */\n      tag_388\n      jump\t// in\n    tag_646:\n        /* \"#utility.yul\":16458:16492   */\n      tag_423\n      jump\t// in\n    tag_645:\n        /* \"#utility.yul\":16440:16493   */\n      tag_388\n      jump\t// in\n    tag_644:\n        /* \"#utility.yul\":16427:16493   */\n      swap1\n      pop\n        /* \"#utility.yul\":16357:16499   */\n      swap2\n      swap1\n      pop\n      jump\t// out\n        /* \"#utility.yul\":16505:16580   */\n    tag_425:\n        /* \"#utility.yul\":16548:16551   */\n      0x00\n        /* \"#utility.yul\":16569:16574   */\n      dup2\n        /* \"#utility.yul\":16562:16574   */\n      swap1\n      pop\n        /* \"#utility.yul\":16505:16580   */\n      swap2\n      swap1\n      pop\n      jump\t// out\n        /* \"#utility.yul\":16586:16855   */\n    tag_426:\n        /* \"#utility.yul\":16696:16735   */\n      tag_649\n        /* \"#utility.yul\":16727:16734   */\n      dup4\n        /* \"#utility.yul\":16696:16735   */\n      tag_424\n      jump\t// in\n    tag_649:\n        /* \"#utility.yul\":16757:16848   */\n      tag_650\n        /* \"#utility.yul\":16806:16847   */\n      tag_651\n        /* \"#utility.yul\":16830:16846   */\n      dup3\n        /* \"#utility.yul\":16806:16847   */\n      tag_425\n      jump\t// in\n    tag_651:\n        /* \"#utility.yul\":16798:16804   */\n      dup5\n        /* \"#utility.yul\":16791:16795   */\n      dup5\n        /* \"#utility.yul\":16785:16796   */\n      sload\n        /* \"#utility.yul\":16757:16848   */\n      tag_422\n      jump\t// in\n    tag_650:\n        /* \"#utility.yul\":16751:16755   */\n      dup3\n        /* \"#utility.yul\":16744:16849   */\n      sstore\n        /* \"#utility.yul\":16662:16855   */\n      pop\n        /* \"#utility.yul\":16586:16855   */\n      pop\n      pop\n      pop\n      jump\t// out\n        /* \"#utility.yul\":16861:16934   */\n    tag_427:\n        /* \"#utility.yul\":16906:16909   */\n      0x00\n        /* \"#utility.yul\":16861:16934   */\n      swap1\n      jump\t// out\n        /* \"#utility.yul\":16940:17129   */\n    tag_428:\n        /* \"#utility.yul\":17017:17049   */\n      tag_654\n      tag_427\n      jump\t// in\n    tag_654:\n        /* \"#utility.yul\":17058:17123   */\n      tag_655\n        /* \"#utility.yul\":17116:17122   */\n      dup2\n        /* \"#utility.yul\":17108:17114   */\n      dup5\n        /* \"#utility.yul\":17102:17106   */\n      dup5\n        /* \"#utility.yul\":17058:17123   */\n      tag_426\n      jump\t// in\n    tag_655:\n        /* \"#utility.yul\":16993:17129   */\n      pop\n        /* \"#utility.yul\":16940:17129   */\n      pop\n      pop\n      jump\t// out\n        /* \"#utility.yul\":17135:17321   */\n    tag_429:\n        /* \"#utility.yul\":17195:17315   */\n    tag_657:\n        /* \"#utility.yul\":17212:17215   */\n      dup2\n        /* \"#utility.yul\":17205:17210   */\n      dup2\n        /* \"#utility.yul\":17202:17216   */\n      lt\n        /* \"#utility.yul\":17195:17315   */\n      iszero\n      tag_659\n      jumpi\n        /* \"#utility.yul\":17266:17305   */\n      tag_660\n        /* \"#utility.yul\":17303:17304   */\n      0x00\n        /* \"#utility.yul\":17296:17301   */\n      dup3\n        /* \"#utility.yul\":17266:17305   */\n      tag_428\n      jump\t// in\n    tag_660:\n        /* \"#utility.yul\":17239:17240   */\n      0x01\n        /* \"#utility.yul\":17232:17237   */\n      dup2\n        /* \"#utility.yul\":17228:17241   */\n      add\n        /* \"#utility.yul\":17219:17241   */\n      swap1\n      pop\n        /* \"#utility.yul\":17195:17315   */\n      jump(tag_657)\n    tag_659:\n        /* \"#utility.yul\":17135:17321   */\n      pop\n      pop\n      jump\t// out\n        /* \"#utility.yul\":17327:17870   */\n    tag_430:\n        /* \"#utility.yul\":17428:17430   */\n      0x1f\n        /* \"#utility.yul\":17423:17426   */\n      dup3\n        /* \"#utility.yul\":17420:17431   */\n      gt\n        /* \"#utility.yul\":17417:17863   */\n      iszero\n      tag_662\n      jumpi\n        /* \"#utility.yul\":17462:17500   */\n      tag_663\n        /* \"#utility.yul\":17494:17499   */\n      dup2\n        /* \"#utility.yul\":17462:17500   */\n      tag_419\n      jump\t// in\n    tag_663:\n        /* \"#utility.yul\":17546:17575   */\n      tag_664\n        /* \"#utility.yul\":17564:17574   */\n      dup5\n        /* \"#utility.yul\":17546:17575   */\n      tag_420\n      jump\t// in\n    tag_664:\n        /* \"#utility.yul\":17536:17544   */\n      dup2\n        /* \"#utility.yul\":17532:17576   */\n      add\n        /* \"#utility.yul\":17729:17731   */\n      0x20\n        /* \"#utility.yul\":17717:17727   */\n      dup6\n        /* \"#utility.yul\":17714:17732   */\n      lt\n        /* \"#utility.yul\":17711:17760   */\n      iszero\n      tag_665\n      jumpi\n        /* \"#utility.yul\":17750:17758   */\n      dup2\n        /* \"#utility.yul\":17735:17758   */\n      swap1\n      pop\n        /* \"#utility.yul\":17711:17760   */\n    tag_665:\n        /* \"#utility.yul\":17773:17853   */\n      tag_666\n        /* \"#utility.yul\":17829:17851   */\n      tag_667\n        /* \"#utility.yul\":17847:17850   */\n      dup6\n        /* \"#utility.yul\":17829:17851   */\n      tag_420\n      jump\t// in\n    tag_667:\n        /* \"#utility.yul\":17819:17827   */\n      dup4\n        /* \"#utility.yul\":17815:17852   */\n      add\n        /* \"#utility.yul\":17802:17813   */\n      dup3\n        /* \"#utility.yul\":17773:17853   */\n      tag_429\n      jump\t// in\n    tag_666:\n        /* \"#utility.yul\":17432:17863   */\n      pop\n      pop\n        /* \"#utility.yul\":17417:17863   */\n    tag_662:\n        /* \"#utility.yul\":17327:17870   */\n      pop\n      pop\n      pop\n      jump\t// out\n        /* \"#utility.yul\":17876:17993   */\n    tag_431:\n        /* \"#utility.yul\":17930:17938   */\n      0x00\n        /* \"#utility.yul\":17980:17985   */\n      dup3\n        /* \"#utility.yul\":17974:17978   */\n      dup3\n        /* \"#utility.yul\":17970:17986   */\n      shr\n        /* \"#utility.yul\":17949:17986   */\n      swap1\n      pop\n        /* \"#utility.yul\":17876:17993   */\n      swap3\n      swap2\n      pop\n      pop\n      jump\t// out\n        /* \"#utility.yul\":17999:18168   */\n    tag_432:\n        /* \"#utility.yul\":18043:18049   */\n      0x00\n        /* \"#utility.yul\":18076:18127   */\n      tag_670\n        /* \"#utility.yul\":18124:18125   */\n      0x00\n        /* \"#utility.yul\":18120:18126   */\n      not\n        /* \"#utility.yul\":18112:18117   */\n      dup5\n        /* \"#utility.yul\":18109:18110   */\n      0x08\n        /* \"#utility.yul\":18105:18118   */\n      mul\n        /* \"#utility.yul\":18076:18127   */\n      tag_431\n      jump\t// in\n    tag_670:\n        /* \"#utility.yul\":18072:18128   */\n      not\n        /* \"#utility.yul\":18157:18161   */\n      dup1\n        /* \"#utility.yul\":18151:18155   */\n      dup4\n        /* \"#utility.yul\":18147:18162   */\n      and\n        /* \"#utility.yul\":18137:18162   */\n      swap2\n      pop\n        /* \"#utility.yul\":18050:18168   */\n      pop\n        /* \"#utility.yul\":17999:18168   */\n      swap3\n      swap2\n      pop\n      pop\n      jump\t// out\n        /* \"#utility.yul\":18173:18468   */\n    tag_433:\n        /* \"#utility.yul\":18249:18253   */\n      0x00\n        /* \"#utility.yul\":18395:18424   */\n      tag_672\n        /* \"#utility.yul\":18420:18423   */\n      dup4\n        /* \"#utility.yul\":18414:18418   */\n      dup4\n        /* \"#utility.yul\":18395:18424   */\n      tag_432\n      jump\t// in\n    tag_672:\n        /* \"#utility.yul\":18387:18424   */\n      swap2\n      pop\n        /* \"#utility.yul\":18457:18460   */\n      dup3\n        /* \"#utility.yul\":18454:18455   */\n      0x02\n        /* \"#utility.yul\":18450:18461   */\n      mul\n        /* \"#utility.yul\":18444:18448   */\n      dup3\n        /* \"#utility.yul\":18441:18462   */\n      or\n        /* \"#utility.yul\":18433:18462   */\n      swap1\n      pop\n        /* \"#utility.yul\":18173:18468   */\n      swap3\n      swap2\n      pop\n      pop\n      jump\t// out\n        /* \"#utility.yul\":18473:19924   */\n    tag_199:\n        /* \"#utility.yul\":18584:18587   */\n      dup2\n        /* \"#utility.yul\":18578:18582   */\n      dup2\n        /* \"#utility.yul\":18575:18588   */\n      sub\n        /* \"#utility.yul\":18572:18598   */\n      tag_674\n      jumpi\n        /* \"#utility.yul\":18591:18596   */\n      pop\n      pop\n      jump(tag_673)\n        /* \"#utility.yul\":18572:18598   */\n    tag_674:\n        /* \"#utility.yul\":18622:18656   */\n      tag_675\n        /* \"#utility.yul\":18652:18655   */\n      dup3\n        /* \"#utility.yul\":18622:18656   */\n      tag_418\n      jump\t// in\n    tag_675:\n        /* \"#utility.yul\":18721:18739   */\n      0xffffffffffffffff\n        /* \"#utility.yul\":18713:18719   */\n      dup2\n        /* \"#utility.yul\":18710:18740   */\n      gt\n        /* \"#utility.yul\":18707:18763   */\n      iszero\n      tag_676\n      jumpi\n        /* \"#utility.yul\":18743:18761   */\n      tag_677\n      tag_409\n      jump\t// in\n    tag_677:\n        /* \"#utility.yul\":18707:18763   */\n    tag_676:\n        /* \"#utility.yul\":18787:18825   */\n      tag_678\n        /* \"#utility.yul\":18819:18823   */\n      dup3\n        /* \"#utility.yul\":18813:18824   */\n      sload\n        /* \"#utility.yul\":18787:18825   */\n      tag_113\n      jump\t// in\n    tag_678:\n        /* \"#utility.yul\":18872:18939   */\n      tag_679\n        /* \"#utility.yul\":18932:18938   */\n      dup3\n        /* \"#utility.yul\":18924:18930   */\n      dup3\n        /* \"#utility.yul\":18918:18922   */\n      dup6\n        /* \"#utility.yul\":18872:18939   */\n      tag_430\n      jump\t// in\n    tag_679:\n        /* \"#utility.yul\":18966:18967   */\n      0x00\n        /* \"#utility.yul\":18995:18997   */\n      0x1f\n        /* \"#utility.yul\":18987:18993   */\n      dup4\n        /* \"#utility.yul\":18984:18998   */\n      gt\n        /* \"#utility.yul\":19012:19013   */\n      0x01\n        /* \"#utility.yul\":19007:19679   */\n      dup2\n      eq\n      tag_681\n      jumpi\n        /* \"#utility.yul\":19723:19724   */\n      0x00\n        /* \"#utility.yul\":19740:19746   */\n      dup5\n        /* \"#utility.yul\":19737:19814   */\n      iszero\n      tag_682\n      jumpi\n        /* \"#utility.yul\":19789:19798   */\n      dup3\n        /* \"#utility.yul\":19784:19787   */\n      dup8\n        /* \"#utility.yul\":19780:19799   */\n      add\n        /* \"#utility.yul\":19774:19800   */\n      sload\n        /* \"#utility.yul\":19765:19800   */\n      swap1\n      pop\n        /* \"#utility.yul\":19737:19814   */\n    tag_682:\n        /* \"#utility.yul\":19840:19907   */\n      tag_683\n        /* \"#utility.yul\":19900:19906   */\n      dup6\n        /* \"#utility.yul\":19893:19898   */\n      dup3\n        /* \"#utility.yul\":19840:19907   */\n      tag_433\n      jump\t// in\n    tag_683:\n        /* \"#utility.yul\":19834:19838   */\n      dup7\n        /* \"#utility.yul\":19827:19908   */\n      sstore\n        /* \"#utility.yul\":19696:19918   */\n      pop\n        /* \"#utility.yul\":18977:19918   */\n      jump(tag_680)\n        /* \"#utility.yul\":19007:19679   */\n    tag_681:\n        /* \"#utility.yul\":19059:19063   */\n      0x1f\n        /* \"#utility.yul\":19055:19064   */\n      not\n        /* \"#utility.yul\":19047:19053   */\n      dup5\n        /* \"#utility.yul\":19043:19065   */\n      and\n        /* \"#utility.yul\":19085:19121   */\n      tag_684\n        /* \"#utility.yul\":19117:19120   */\n      dup8\n        /* \"#utility.yul\":19085:19121   */\n      tag_419\n      jump\t// in\n    tag_684:\n        /* \"#utility.yul\":19078:19121   */\n      swap7\n      pop\n        /* \"#utility.yul\":19148:19185   */\n      tag_685\n        /* \"#utility.yul\":19180:19184   */\n      dup7\n        /* \"#utility.yul\":19148:19185   */\n      tag_419\n      jump\t// in\n    tag_685:\n        /* \"#utility.yul\":19207:19208   */\n      0x00\n        /* \"#utility.yul\":19221:19428   */\n    tag_686:\n        /* \"#utility.yul\":19235:19242   */\n      dup3\n        /* \"#utility.yul\":19232:19233   */\n      dup2\n        /* \"#utility.yul\":19229:19243   */\n      lt\n        /* \"#utility.yul\":19221:19428   */\n      iszero\n      tag_688\n      jumpi\n        /* \"#utility.yul\":19314:19323   */\n      dup5\n        /* \"#utility.yul\":19309:19312   */\n      dup10\n        /* \"#utility.yul\":19305:19324   */\n      add\n        /* \"#utility.yul\":19299:19325   */\n      sload\n        /* \"#utility.yul\":19291:19297   */\n      dup3\n        /* \"#utility.yul\":19284:19326   */\n      sstore\n        /* \"#utility.yul\":19365:19366   */\n      0x01\n        /* \"#utility.yul\":19357:19363   */\n      dup3\n        /* \"#utility.yul\":19353:19367   */\n      add\n        /* \"#utility.yul\":19343:19367   */\n      swap2\n      pop\n        /* \"#utility.yul\":19412:19413   */\n      0x01\n        /* \"#utility.yul\":19401:19410   */\n      dup6\n        /* \"#utility.yul\":19397:19414   */\n      add\n        /* \"#utility.yul\":19384:19414   */\n      swap5\n      pop\n        /* \"#utility.yul\":19258:19262   */\n      0x20\n        /* \"#utility.yul\":19255:19256   */\n      dup2\n        /* \"#utility.yul\":19251:19263   */\n      add\n        /* \"#utility.yul\":19246:19263   */\n      swap1\n      pop\n        /* \"#utility.yul\":19221:19428   */\n      jump(tag_686)\n    tag_688:\n        /* \"#utility.yul\":19456:19462   */\n      dup7\n        /* \"#utility.yul\":19447:19454   */\n      dup4\n        /* \"#utility.yul\":19444:19463   */\n      lt\n        /* \"#utility.yul\":19441:19620   */\n      iszero\n      tag_689\n      jumpi\n        /* \"#utility.yul\":19514:19523   */\n      dup5\n        /* \"#utility.yul\":19509:19512   */\n      dup10\n        /* \"#utility.yul\":19505:19524   */\n      add\n        /* \"#utility.yul\":19499:19525   */\n      sload\n        /* \"#utility.yul\":19557:19605   */\n      tag_690\n        /* \"#utility.yul\":19599:19603   */\n      0x1f\n        /* \"#utility.yul\":19591:19597   */\n      dup10\n        /* \"#utility.yul\":19587:19604   */\n      and\n        /* \"#utility.yul\":19576:19585   */\n      dup3\n        /* \"#utility.yul\":19557:19605   */\n      tag_432\n      jump\t// in\n    tag_690:\n        /* \"#utility.yul\":19549:19555   */\n      dup4\n        /* \"#utility.yul\":19542:19606   */\n      sstore\n        /* \"#utility.yul\":19464:19620   */\n      pop\n        /* \"#utility.yul\":19441:19620   */\n    tag_689:\n        /* \"#utility.yul\":19666:19667   */\n      0x01\n        /* \"#utility.yul\":19662:19663   */\n      0x02\n        /* \"#utility.yul\":19654:19660   */\n      dup9\n        /* \"#utility.yul\":19650:19664   */\n      mul\n        /* \"#utility.yul\":19646:19668   */\n      add\n        /* \"#utility.yul\":19640:19644   */\n      dup9\n        /* \"#utility.yul\":19633:19669   */\n      sstore\n        /* \"#utility.yul\":19014:19679   */\n      pop\n      pop\n      pop\n        /* \"#utility.yul\":18977:19918   */\n    tag_680:\n      pop\n        /* \"#utility.yul\":18562:19924   */\n      pop\n      pop\n      pop\n        /* \"#utility.yul\":18473:19924   */\n      pop\n      pop\n    tag_673:\n      jump\t// out\n        /* \"#utility.yul\":19930:20163   */\n    tag_202:\n        /* \"#utility.yul\":19969:19972   */\n      0x00\n        /* \"#utility.yul\":19992:20016   */\n      tag_692\n        /* \"#utility.yul\":20010:20015   */\n      dup3\n        /* \"#utility.yul\":19992:20016   */\n      tag_388\n      jump\t// in\n    tag_692:\n        /* \"#utility.yul\":19983:20016   */\n      swap2\n      pop\n        /* \"#utility.yul\":20038:20104   */\n      0xffffffffffffffffffffffffffffffffffffffffffffffffffffffffffffffff\n        /* \"#utility.yul\":20031:20036   */\n      dup3\n        /* \"#utility.yul\":20028:20105   */\n      sub\n        /* \"#utility.yul\":20025:20128   */\n      tag_693\n      jumpi\n        /* \"#utility.yul\":20108:20126   */\n      tag_694\n      tag_417\n      jump\t// in\n    tag_694:\n        /* \"#utility.yul\":20025:20128   */\n    tag_693:\n        /* \"#utility.yul\":20155:20156   */\n      0x01\n        /* \"#utility.yul\":20148:20153   */\n      dup3\n        /* \"#utility.yul\":20144:20157   */\n      add\n        /* \"#utility.yul\":20137:20157   */\n      swap1\n      pop\n        /* \"#utility.yul\":19930:20163   */\n      swap2\n      swap1\n      pop\n      jump\t// out\n        /* \"#utility.yul\":20169:20248   */\n    tag_434:\n        /* \"#utility.yul\":20208:20215   */\n      0x00\n        /* \"#utility.yul\":20237:20242   */\n      dup2\n        /* \"#utility.yul\":20226:20242   */\n      swap1\n      pop\n        /* \"#utility.yul\":20169:20248   */\n      swap2\n      swap1\n      pop\n      jump\t// out\n        /* \"#utility.yul\":20254:20411   */\n    tag_435:\n        /* \"#utility.yul\":20359:20404   */\n      tag_697\n        /* \"#utility.yul\":20379:20403   */\n      tag_698\n        /* \"#utility.yul\":20397:20402   */\n      dup3\n        /* \"#utility.yul\":20379:20403   */\n      tag_388\n      jump\t// in\n    tag_698:\n        /* \"#utility.yul\":20359:20404   */\n      tag_434\n      jump\t// in\n    tag_697:\n        /* \"#utility.yul\":20354:20357   */\n      dup3\n        /* \"#utility.yul\":20347:20405   */\n      mstore\n        /* \"#utility.yul\":20254:20411   */\n      pop\n      pop\n      jump\t// out\n        /* \"#utility.yul\":20417:20511   */\n    tag_436:\n        /* \"#utility.yul\":20450:20458   */\n      0x00\n        /* \"#utility.yul\":20498:20503   */\n      dup2\n        /* \"#utility.yul\":20494:20496   */\n      0x60\n        /* \"#utility.yul\":20490:20504   */\n      shl\n        /* \"#utility.yul\":20469:20504   */\n      swap1\n      pop\n        /* \"#utility.yul\":20417:20511   */\n      swap2\n      swap1\n      pop\n      jump\t// out\n        /* \"#utility.yul\":20517:20611   */\n    tag_437:\n        /* \"#utility.yul\":20556:20563   */\n      0x00\n        /* \"#utility.yul\":20585:20605   */\n      tag_701\n        /* \"#utility.yul\":20599:20604   */\n      dup3\n        /* \"#utility.yul\":20585:20605   */\n      tag_436\n      jump\t// in\n    tag_701:\n        /* \"#utility.yul\":20574:20605   */\n      swap1\n      pop\n        /* \"#utility.yul\":20517:20611   */\n      swap2\n      swap1\n      pop\n      jump\t// out\n        /* \"#utility.yul\":20617:20717   */\n    tag_438:\n        /* \"#utility.yul\":20656:20663   */\n      0x00\n        /* \"#utility.yul\":20685:20711   */\n      tag_703\n        /* \"#utility.yul\":20705:20710   */\n      dup3\n        /* \"#utility.yul\":20685:20711   */\n      tag_437\n      jump\t// in\n    tag_703:\n        /* \"#utility.yul\":20674:20711   */\n      swap1\n      pop\n        /* \"#utility.yul\":20617:20717   */\n      swap2\n      swap1\n      pop\n      jump\t// out\n        /* \"#utility.yul\":20723:20880   */\n    tag_439:\n        /* \"#utility.yul\":20828:20873   */\n      tag_705\n        /* \"#utility.yul\":20848:20872   */\n      tag_706\n        /* \"#utility.yul\":20866:20871   */\n      dup3\n        /* \"#utility.yul\":20848:20872   */\n      tag_385\n      jump\t// in\n    tag_706:\n        /* \"#utility.yul\":20828:20873   */\n      tag_438\n      jump\t// in\n    tag_705:\n        /* \"#utility.yul\":20823:20826   */\n      dup3\n        /* \"#utility.yul\":20816:20874   */\n      mstore\n        /* \"#utility.yul\":20723:20880   */\n      pop\n      pop\n      jump\t// out\n        /* \"#utility.yul\":20886:21424   */\n    tag_204:\n        /* \"#utility.yul\":21054:21057   */\n      0x00\n        /* \"#utility.yul\":21069:21144   */\n      tag_708\n        /* \"#utility.yul\":21140:21143   */\n      dup3\n        /* \"#utility.yul\":21131:21137   */\n      dup7\n        /* \"#utility.yul\":21069:21144   */\n      tag_435\n      jump\t// in\n    tag_708:\n        /* \"#utility.yul\":21169:21171   */\n      0x20\n        /* \"#utility.yul\":21164:21167   */\n      dup3\n        /* \"#utility.yul\":21160:21172   */\n      add\n        /* \"#utility.yul\":21153:21172   */\n      swap2\n      pop\n        /* \"#utility.yul\":21182:21257   */\n      tag_709\n        /* \"#utility.yul\":21253:21256   */\n      dup3\n        /* \"#utility.yul\":21244:21250   */\n      dup6\n        /* \"#utility.yul\":21182:21257   */\n      tag_439\n      jump\t// in\n    tag_709:\n        /* \"#utility.yul\":21282:21284   */\n      0x14\n        /* \"#utility.yul\":21277:21280   */\n      dup3\n        /* \"#utility.yul\":21273:21285   */\n      add\n        /* \"#utility.yul\":21266:21285   */\n      swap2\n      pop\n        /* \"#utility.yul\":21295:21370   */\n      tag_710\n        /* \"#utility.yul\":21366:21369   */\n      dup3\n        /* \"#utility.yul\":21357:21363   */\n      dup5\n        /* \"#utility.yul\":21295:21370   */\n      tag_435\n      jump\t// in\n    tag_710:\n        /* \"#utility.yul\":21395:21397   */\n      0x20\n        /* \"#utility.yul\":21390:21393   */\n      dup3\n        /* \"#utility.yul\":21386:21398   */\n      add\n        /* \"#utility.yul\":21379:21398   */\n      swap2\n      pop\n        /* \"#utility.yul\":21415:21418   */\n      dup2\n        /* \"#utility.yul\":21408:21418   */\n      swap1\n      pop\n        /* \"#utility.yul\":20886:21424   */\n      swap5\n      swap4\n      pop\n      pop\n      pop\n      pop\n      jump\t// out\n        /* \"#utility.yul\":21430:21610   */\n    tag_440:\n        /* \"#utility.yul\":21478:21555   */\n      0x4e487b7100000000000000000000000000000000000000000000000000000000\n        /* \"#utility.yul\":21475:21476   */\n      0x00\n        /* \"#utility.yul\":21468:21556   */\n      mstore\n        /* \"#utility.yul\":21575:21579   */\n      0x12\n        /* \"#utility.yul\":21572:21573   */\n      0x04\n        /* \"#utility.yul\":21565:21580   */\n      mstore\n        /* \"#utility.yul\":21599:21603   */\n      0x24\n        /* \"#utility.yul\":21596:21597   */\n      0x00\n        /* \"#utility.yul\":21589:21604   */\n      revert\n        /* \"#utility.yul\":21616:21792   */\n    tag_206:\n        /* \"#utility.yul\":21648:21649   */\n      0x00\n        /* \"#utility.yul\":21665:21685   */\n      tag_713\n        /* \"#utility.yul\":21683:21684   */\n      dup3\n        /* \"#utility.yul\":21665:21685   */\n      tag_388\n      jump\t// in\n    tag_713:\n        /* \"#utility.yul\":21660:21685   */\n      swap2\n      pop\n        /* \"#utility.yul\":21699:21719   */\n      tag_714\n        /* \"#utility.yul\":21717:21718   */\n      dup4\n        /* \"#utility.yul\":21699:21719   */\n      tag_388\n      jump\t// in\n    tag_714:\n        /* \"#utility.yul\":21694:21719   */\n      swap3\n      pop\n        /* \"#utility.yul\":21738:21739   */\n      dup3\n        /* \"#utility.yul\":21728:21763   */\n      tag_715\n      jumpi\n        /* \"#utility.yul\":21743:21761   */\n      tag_716\n      tag_440\n      jump\t// in\n    tag_716:\n        /* \"#utility.yul\":21728:21763   */\n    tag_715:\n        /* \"#utility.yul\":21784:21785   */\n      dup3\n        /* \"#utility.yul\":21781:21782   */\n      dup3\n        /* \"#utility.yul\":21777:21786   */\n      mod\n        /* \"#utility.yul\":21772:21786   */\n      swap1\n      pop\n        /* \"#utility.yul\":21616:21792   */\n      swap3\n      swap2\n      pop\n      pop\n      jump\t// out\n        /* \"#utility.yul\":21798:22214   */\n    tag_441:\n        /* \"#utility.yul\":21938:22004   */\n      0xd092d0b0d188d0b020d180d0bed0bbd18c20d0bdd0b520d0bfd0bed0b7d0b2d0\n        /* \"#utility.yul\":21934:21935   */\n      0x00\n        /* \"#utility.yul\":21926:21932   */\n      dup3\n        /* \"#utility.yul\":21922:21936   */\n      add\n        /* \"#utility.yul\":21915:22005   */\n      mstore\n        /* \"#utility.yul\":22039:22105   */\n      0xbed0bbd18fd0b5d18220d18dd182d0be20d0b8d0b7d0bcd0b5d0bdd18fd182d1\n        /* \"#utility.yul\":22034:22036   */\n      0x20\n        /* \"#utility.yul\":22026:22032   */\n      dup3\n        /* \"#utility.yul\":22022:22037   */\n      add\n        /* \"#utility.yul\":22015:22106   */\n      mstore\n        /* \"#utility.yul\":22140:22206   */\n      0x8c00000000000000000000000000000000000000000000000000000000000000\n        /* \"#utility.yul\":22135:22137   */\n      0x40\n        /* \"#utility.yul\":22127:22133   */\n      dup3\n        /* \"#utility.yul\":22123:22138   */\n      add\n        /* \"#utility.yul\":22116:22207   */\n      mstore\n        /* \"#utility.yul\":21798:22214   */\n      pop\n      jump\t// out\n        /* \"#utility.yul\":22220:22586   */\n    tag_442:\n        /* \"#utility.yul\":22362:22365   */\n      0x00\n        /* \"#utility.yul\":22383:22450   */\n      tag_719\n        /* \"#utility.yul\":22447:22449   */\n      0x41\n        /* \"#utility.yul\":22442:22445   */\n      dup4\n        /* \"#utility.yul\":22383:22450   */\n      tag_393\n      jump\t// in\n    tag_719:\n        /* \"#utility.yul\":22376:22450   */\n      swap2\n      pop\n        /* \"#utility.yul\":22459:22552   */\n      tag_720\n        /* \"#utility.yul\":22548:22551   */\n      dup3\n        /* \"#utility.yul\":22459:22552   */\n      tag_441\n      jump\t// in\n    tag_720:\n        /* \"#utility.yul\":22577:22579   */\n      0x60\n        /* \"#utility.yul\":22572:22575   */\n      dup3\n        /* \"#utility.yul\":22568:22580   */\n      add\n        /* \"#utility.yul\":22561:22580   */\n      swap1\n      pop\n        /* \"#utility.yul\":22220:22586   */\n      swap2\n      swap1\n      pop\n      jump\t// out\n        /* \"#utility.yul\":22592:23011   */\n    tag_214:\n        /* \"#utility.yul\":22758:22762   */\n      0x00\n        /* \"#utility.yul\":22796:22798   */\n      0x20\n        /* \"#utility.yul\":22785:22794   */\n      dup3\n        /* \"#utility.yul\":22781:22799   */\n      add\n        /* \"#utility.yul\":22773:22799   */\n      swap1\n      pop\n        /* \"#utility.yul\":22845:22854   */\n      dup2\n        /* \"#utility.yul\":22839:22843   */\n      dup2\n        /* \"#utility.yul\":22835:22855   */\n      sub\n        /* \"#utility.yul\":22831:22832   */\n      0x00\n        /* \"#utility.yul\":22820:22829   */\n      dup4\n        /* \"#utility.yul\":22816:22833   */\n      add\n        /* \"#utility.yul\":22809:22856   */\n      mstore\n        /* \"#utility.yul\":22873:23004   */\n      tag_722\n        /* \"#utility.yul\":22999:23003   */\n      dup2\n        /* \"#utility.yul\":22873:23004   */\n      tag_442\n      jump\t// in\n    tag_722:\n        /* \"#utility.yul\":22865:23004   */\n      swap1\n      pop\n        /* \"#utility.yul\":22592:23011   */\n      swap2\n      swap1\n      pop\n      jump\t// out\n        /* \"#utility.yul\":23017:23433   */\n    tag_443:\n        /* \"#utility.yul\":23157:23223   */\n      0xd09cd0b0d0b3d0b0d0b7d0b8d0bd20d0bdd0b520d181d0bed0bed182d0b2d0b5\n        /* \"#utility.yul\":23153:23154   */\n      0x00\n        /* \"#utility.yul\":23145:23151   */\n      dup3\n        /* \"#utility.yul\":23141:23155   */\n      add\n        /* \"#utility.yul\":23134:23224   */\n      mstore\n        /* \"#utility.yul\":23258:23324   */\n      0xd182d181d0b2d183d0b5d18220d0bed182d0bfd180d0b0d0b2d0b8d182d0b5d0\n        /* \"#utility.yul\":23253:23255   */\n      0x20\n        /* \"#utility.yul\":23245:23251   */\n      dup3\n        /* \"#utility.yul\":23241:23256   */\n      add\n        /* \"#utility.yul\":23234:23325   */\n      mstore\n        /* \"#utility.yul\":23359:23425   */\n      0xbbd18e0000000000000000000000000000000000000000000000000000000000\n        /* \"#utility.yul\":23354:23356   */\n      0x40\n        /* \"#utility.yul\":23346:23352   */\n      dup3\n        /* \"#utility.yul\":23342:23357   */\n      add\n        /* \"#utility.yul\":23335:23426   */\n      mstore\n        /* \"#utility.yul\":23017:23433   */\n      pop\n      jump\t// out\n        /* \"#utility.yul\":23439:23805   */\n    tag_444:\n        /* \"#utility.yul\":23581:23584   */\n      0x00\n        /* \"#utility.yul\":23602:23669   */\n      tag_725\n        /* \"#utility.yul\":23666:23668   */\n      0x43\n        /* \"#utility.yul\":23661:23664   */\n      dup4\n        /* \"#utility.yul\":23602:23669   */\n      tag_393\n      jump\t// in\n    tag_725:\n        /* \"#utility.yul\":23595:23669   */\n      swap2\n      pop\n        /* \"#utility.yul\":23678:23771   */\n      tag_726\n        /* \"#utility.yul\":23767:23770   */\n      dup3\n        /* \"#utility.yul\":23678:23771   */\n      tag_443\n      jump\t// in\n    tag_726:\n        /* \"#utility.yul\":23796:23798   */\n      0x60\n        /* \"#utility.yul\":23791:23794   */\n      dup3\n        /* \"#utility.yul\":23787:23799   */\n      add\n        /* \"#utility.yul\":23780:23799   */\n      swap1\n      pop\n        /* \"#utility.yul\":23439:23805   */\n      swap2\n      swap1\n      pop\n      jump\t// out\n        /* \"#utility.yul\":23811:24230   */\n    tag_217:\n        /* \"#utility.yul\":23977:23981   */\n      0x00\n        /* \"#utility.yul\":24015:24017   */\n      0x20\n        /* \"#utility.yul\":24004:24013   */\n      dup3\n        /* \"#utility.yul\":24000:24018   */\n      add\n        /* \"#utility.yul\":23992:24018   */\n      swap1\n      pop\n        /* \"#utility.yul\":24064:24073   */\n      dup2\n        /* \"#utility.yul\":24058:24062   */\n      dup2\n        /* \"#utility.yul\":24054:24074   */\n      sub\n        /* \"#utility.yul\":24050:24051   */\n      0x00\n        /* \"#utility.yul\":24039:24048   */\n      dup4\n        /* \"#utility.yul\":24035:24052   */\n      add\n        /* \"#utility.yul\":24028:24075   */\n      mstore\n        /* \"#utility.yul\":24092:24223   */\n      tag_728\n        /* \"#utility.yul\":24218:24222   */\n      dup2\n        /* \"#utility.yul\":24092:24223   */\n      tag_444\n      jump\t// in\n    tag_728:\n        /* \"#utility.yul\":24084:24223   */\n      swap1\n      pop\n        /* \"#utility.yul\":23811:24230   */\n      swap2\n      swap1\n      pop\n      jump\t// out\n        /* \"#utility.yul\":24236:24421   */\n    tag_220:\n        /* \"#utility.yul\":24276:24277   */\n      0x00\n        /* \"#utility.yul\":24293:24313   */\n      tag_730\n        /* \"#utility.yul\":24311:24312   */\n      dup3\n        /* \"#utility.yul\":24293:24313   */\n      tag_388\n      jump\t// in\n    tag_730:\n        /* \"#utility.yul\":24288:24313   */\n      swap2\n      pop\n        /* \"#utility.yul\":24327:24347   */\n      tag_731\n        /* \"#utility.yul\":24345:24346   */\n      dup4\n        /* \"#utility.yul\":24327:24347   */\n      tag_388\n      jump\t// in\n    tag_731:\n        /* \"#utility.yul\":24322:24347   */\n      swap3\n      pop\n        /* \"#utility.yul\":24366:24367   */\n      dup3\n        /* \"#utility.yul\":24356:24391   */\n      tag_732\n      jumpi\n        /* \"#utility.yul\":24371:24389   */\n      tag_733\n      tag_440\n      jump\t// in\n    tag_733:\n        /* \"#utility.yul\":24356:24391   */\n    tag_732:\n        /* \"#utility.yul\":24413:24414   */\n      dup3\n        /* \"#utility.yul\":24410:24411   */\n      dup3\n        /* \"#utility.yul\":24406:24415   */\n      div\n        /* \"#utility.yul\":24401:24415   */\n      swap1\n      pop\n        /* \"#utility.yul\":24236:24421   */\n      swap3\n      swap2\n      pop\n      pop\n      jump\t// out\n        /* \"#utility.yul\":24427:25822   */\n    tag_223:\n        /* \"#utility.yul\":24544:24581   */\n      tag_735\n        /* \"#utility.yul\":24577:24580   */\n      dup3\n        /* \"#utility.yul\":24544:24581   */\n      tag_392\n      jump\t// in\n    tag_735:\n        /* \"#utility.yul\":24646:24664   */\n      0xffffffffffffffff\n        /* \"#utility.yul\":24638:24644   */\n      dup2\n        /* \"#utility.yul\":24635:24665   */\n      gt\n        /* \"#utility.yul\":24632:24688   */\n      iszero\n      tag_736\n      jumpi\n        /* \"#utility.yul\":24668:24686   */\n      tag_737\n      tag_409\n      jump\t// in\n    tag_737:\n        /* \"#utility.yul\":24632:24688   */\n    tag_736:\n        /* \"#utility.yul\":24712:24750   */\n      tag_738\n        /* \"#utility.yul\":24744:24748   */\n      dup3\n        /* \"#utility.yul\":24738:24749   */\n      sload\n        /* \"#utility.yul\":24712:24750   */\n      tag_113\n      jump\t// in\n    tag_738:\n        /* \"#utility.yul\":24797:24864   */\n      tag_739\n        /* \"#utility.yul\":24857:24863   */\n      dup3\n        /* \"#utility.yul\":24849:24855   */\n      dup3\n        /* \"#utility.yul\":24843:24847   */\n      dup6\n        /* \"#utility.yul\":24797:24864   */\n      tag_430\n      jump\t// in\n    tag_739:\n        /* \"#utility.yul\":24891:24892   */\n      0x00\n        /* \"#utility.yul\":24915:24919   */\n      0x20\n        /* \"#utility.yul\":24902:24919   */\n      swap1\n      pop\n        /* \"#utility.yul\":24947:24949   */\n      0x1f\n        /* \"#utility.yul\":24939:24945   */\n      dup4\n        /* \"#utility.yul\":24936:24950   */\n      gt\n        /* \"#utility.yul\":24964:24965   */\n      0x01\n        /* \"#utility.yul\":24959:25577   */\n      dup2\n      eq\n      tag_741\n      jumpi\n        /* \"#utility.yul\":25621:25622   */\n      0x00\n        /* \"#utility.yul\":25638:25644   */\n      dup5\n        /* \"#utility.yul\":25635:25712   */\n      iszero\n      tag_742\n      jumpi\n        /* \"#utility.yul\":25687:25696   */\n      dup3\n        /* \"#utility.yul\":25682:25685   */\n      dup8\n        /* \"#utility.yul\":25678:25697   */\n      add\n        /* \"#utility.yul\":25672:25698   */\n      mload\n        /* \"#utility.yul\":25663:25698   */\n      swap1\n      pop\n        /* \"#utility.yul\":25635:25712   */\n    tag_742:\n        /* \"#utility.yul\":25738:25805   */\n      tag_743\n        /* \"#utility.yul\":25798:25804   */\n      dup6\n        /* \"#utility.yul\":25791:25796   */\n      dup3\n        /* \"#utility.yul\":25738:25805   */\n      tag_433\n      jump\t// in\n    tag_743:\n        /* \"#utility.yul\":25732:25736   */\n      dup7\n        /* \"#utility.yul\":25725:25806   */\n      sstore\n        /* \"#utility.yul\":25594:25816   */\n      pop\n        /* \"#utility.yul\":24929:25816   */\n      jump(tag_740)\n        /* \"#utility.yul\":24959:25577   */\n    tag_741:\n        /* \"#utility.yul\":25011:25015   */\n      0x1f\n        /* \"#utility.yul\":25007:25016   */\n      not\n        /* \"#utility.yul\":24999:25005   */\n      dup5\n        /* \"#utility.yul\":24995:25017   */\n      and\n        /* \"#utility.yul\":25045:25082   */\n      tag_744\n        /* \"#utility.yul\":25077:25081   */\n      dup7\n        /* \"#utility.yul\":25045:25082   */\n      tag_419\n      jump\t// in\n    tag_744:\n        /* \"#utility.yul\":25104:25105   */\n      0x00\n        /* \"#utility.yul\":25118:25326   */\n    tag_745:\n        /* \"#utility.yul\":25132:25139   */\n      dup3\n        /* \"#utility.yul\":25129:25130   */\n      dup2\n        /* \"#utility.yul\":25126:25140   */\n      lt\n        /* \"#utility.yul\":25118:25326   */\n      iszero\n      tag_747\n      jumpi\n        /* \"#utility.yul\":25211:25220   */\n      dup5\n        /* \"#utility.yul\":25206:25209   */\n      dup10\n        /* \"#utility.yul\":25202:25221   */\n      add\n        /* \"#utility.yul\":25196:25222   */\n      mload\n        /* \"#utility.yul\":25188:25194   */\n      dup3\n        /* \"#utility.yul\":25181:25223   */\n      sstore\n        /* \"#utility.yul\":25262:25263   */\n      0x01\n        /* \"#utility.yul\":25254:25260   */\n      dup3\n        /* \"#utility.yul\":25250:25264   */\n      add\n        /* \"#utility.yul\":25240:25264   */\n      swap2\n      pop\n        /* \"#utility.yul\":25309:25311   */\n      0x20\n        /* \"#utility.yul\":25298:25307   */\n      dup6\n        /* \"#utility.yul\":25294:25312   */\n      add\n        /* \"#utility.yul\":25281:25312   */\n      swap5\n      pop\n        /* \"#utility.yul\":25155:25159   */\n      0x20\n        /* \"#utility.yul\":25152:25153   */\n      dup2\n        /* \"#utility.yul\":25148:25160   */\n      add\n        /* \"#utility.yul\":25143:25160   */\n      swap1\n      pop\n        /* \"#utility.yul\":25118:25326   */\n      jump(tag_745)\n    tag_747:\n        /* \"#utility.yul\":25354:25360   */\n      dup7\n        /* \"#utility.yul\":25345:25352   */\n      dup4\n        /* \"#utility.yul\":25342:25361   */\n      lt\n        /* \"#utility.yul\":25339:25518   */\n      iszero\n      tag_748\n      jumpi\n        /* \"#utility.yul\":25412:25421   */\n      dup5\n        /* \"#utility.yul\":25407:25410   */\n      dup10\n        /* \"#utility.yul\":25403:25422   */\n      add\n        /* \"#utility.yul\":25397:25423   */\n      mload\n        /* \"#utility.yul\":25455:25503   */\n      tag_749\n        /* \"#utility.yul\":25497:25501   */\n      0x1f\n        /* \"#utility.yul\":25489:25495   */\n      dup10\n        /* \"#utility.yul\":25485:25502   */\n      and\n        /* \"#utility.yul\":25474:25483   */\n      dup3\n        /* \"#utility.yul\":25455:25503   */\n      tag_432\n      jump\t// in\n    tag_749:\n        /* \"#utility.yul\":25447:25453   */\n      dup4\n        /* \"#utility.yul\":25440:25504   */\n      sstore\n        /* \"#utility.yul\":25362:25518   */\n      pop\n        /* \"#utility.yul\":25339:25518   */\n    tag_748:\n        /* \"#utility.yul\":25564:25565   */\n      0x01\n        /* \"#utility.yul\":25560:25561   */\n      0x02\n        /* \"#utility.yul\":25552:25558   */\n      dup9\n        /* \"#utility.yul\":25548:25562   */\n      mul\n        /* \"#utility.yul\":25544:25566   */\n      add\n        /* \"#utility.yul\":25538:25542   */\n      dup9\n        /* \"#utility.yul\":25531:25567   */\n      sstore\n        /* \"#utility.yul\":24966:25577   */\n      pop\n      pop\n      pop\n        /* \"#utility.yul\":24929:25816   */\n    tag_740:\n      pop\n        /* \"#utility.yul\":24519:25822   */\n      pop\n      pop\n      pop\n        /* \"#utility.yul\":24427:25822   */\n      pop\n      pop\n      jump\t// out\n        /* \"#utility.yul\":25828:26053   */\n    tag_445:\n        /* \"#utility.yul\":25968:26002   */\n      0x507572636861736520616d6f756e74206d757374206265206772656174657220\n        /* \"#utility.yul\":25964:25965   */\n      0x00\n        /* \"#utility.yul\":25956:25962   */\n      dup3\n        /* \"#utility.yul\":25952:25966   */\n      add\n        /* \"#utility.yul\":25945:26003   */\n      mstore\n        /* \"#utility.yul\":26037:26045   */\n      0x7468616e20300000000000000000000000000000000000000000000000000000\n        /* \"#utility.yul\":26032:26034   */\n      0x20\n        /* \"#utility.yul\":26024:26030   */\n      dup3\n        /* \"#utility.yul\":26020:26035   */\n      add\n        /* \"#utility.yul\":26013:26046   */\n      mstore\n        /* \"#utility.yul\":25828:26053   */\n      pop\n      jump\t// out\n        /* \"#utility.yul\":26059:26425   */\n    tag_446:\n        /* \"#utility.yul\":26201:26204   */\n      0x00\n        /* \"#utility.yul\":26222:26289   */\n      tag_752\n        /* \"#utility.yul\":26286:26288   */\n      0x26\n        /* \"#utility.yul\":26281:26284   */\n      dup4\n        /* \"#utility.yul\":26222:26289   */\n      tag_393\n      jump\t// in\n    tag_752:\n        /* \"#utility.yul\":26215:26289   */\n      swap2\n      pop\n        /* \"#utility.yul\":26298:26391   */\n      tag_753\n        /* \"#utility.yul\":26387:26390   */\n      dup3\n        /* \"#utility.yul\":26298:26391   */\n      tag_445\n      jump\t// in\n    tag_753:\n        /* \"#utility.yul\":26416:26418   */\n      0x40\n        /* \"#utility.yul\":26411:26414   */\n      dup3\n        /* \"#utility.yul\":26407:26419   */\n      add\n        /* \"#utility.yul\":26400:26419   */\n      swap1\n      pop\n        /* \"#utility.yul\":26059:26425   */\n      swap2\n      swap1\n      pop\n      jump\t// out\n        /* \"#utility.yul\":26431:26850   */\n    tag_236:\n        /* \"#utility.yul\":26597:26601   */\n      0x00\n        /* \"#utility.yul\":26635:26637   */\n      0x20\n        /* \"#utility.yul\":26624:26633   */\n      dup3\n        /* \"#utility.yul\":26620:26638   */\n      add\n        /* \"#utility.yul\":26612:26638   */\n      swap1\n      pop\n        /* \"#utility.yul\":26684:26693   */\n      dup2\n        /* \"#utility.yul\":26678:26682   */\n      dup2\n        /* \"#utility.yul\":26674:26694   */\n      sub\n        /* \"#utility.yul\":26670:26671   */\n      0x00\n        /* \"#utility.yul\":26659:26668   */\n      dup4\n        /* \"#utility.yul\":26655:26672   */\n      add\n        /* \"#utility.yul\":26648:26695   */\n      mstore\n        /* \"#utility.yul\":26712:26843   */\n      tag_755\n        /* \"#utility.yul\":26838:26842   */\n      dup2\n        /* \"#utility.yul\":26712:26843   */\n      tag_446\n      jump\t// in\n    tag_755:\n        /* \"#utility.yul\":26704:26843   */\n      swap1\n      pop\n        /* \"#utility.yul\":26431:26850   */\n      swap2\n      swap1\n      pop\n      jump\t// out\n        /* \"#utility.yul\":26856:27024   */\n    tag_447:\n        /* \"#utility.yul\":26996:27016   */\n      0x496e76616c69642070726f647563742049440000000000000000000000000000\n        /* \"#utility.yul\":26992:26993   */\n      0x00\n        /* \"#utility.yul\":26984:26990   */\n      dup3\n        /* \"#utility.yul\":26980:26994   */\n      add\n        /* \"#utility.yul\":26973:27017   */\n      mstore\n        /* \"#utility.yul\":26856:27024   */\n      pop\n      jump\t// out\n        /* \"#utility.yul\":27030:27396   */\n    tag_448:\n        /* \"#utility.yul\":27172:27175   */\n      0x00\n        /* \"#utility.yul\":27193:27260   */\n      tag_758\n        /* \"#utility.yul\":27257:27259   */\n      0x12\n        /* \"#utility.yul\":27252:27255   */\n      dup4\n        /* \"#utility.yul\":27193:27260   */\n      tag_393\n      jump\t// in\n    tag_758:\n        /* \"#utility.yul\":27186:27260   */\n      swap2\n      pop\n        /* \"#utility.yul\":27269:27362   */\n      tag_759\n        /* \"#utility.yul\":27358:27361   */\n      dup3\n        /* \"#utility.yul\":27269:27362   */\n      tag_447\n      jump\t// in\n    tag_759:\n        /* \"#utility.yul\":27387:27389   */\n      0x20\n        /* \"#utility.yul\":27382:27385   */\n      dup3\n        /* \"#utility.yul\":27378:27390   */\n      add\n        /* \"#utility.yul\":27371:27390   */\n      swap1\n      pop\n        /* \"#utility.yul\":27030:27396   */\n      swap2\n      swap1\n      pop\n      jump\t// out\n        /* \"#utility.yul\":27402:27821   */\n    tag_239:\n        /* \"#utility.yul\":27568:27572   */\n      0x00\n        /* \"#utility.yul\":27606:27608   */\n      0x20\n        /* \"#utility.yul\":27595:27604   */\n      dup3\n        /* \"#utility.yul\":27591:27609   */\n      add\n        /* \"#utility.yul\":27583:27609   */\n      swap1\n      pop\n        /* \"#utility.yul\":27655:27664   */\n      dup2\n        /* \"#utility.yul\":27649:27653   */\n      dup2\n        /* \"#utility.yul\":27645:27665   */\n      sub\n        /* \"#utility.yul\":27641:27642   */\n      0x00\n        /* \"#utility.yul\":27630:27639   */\n      dup4\n        /* \"#utility.yul\":27626:27643   */\n      add\n        /* \"#utility.yul\":27619:27666   */\n      mstore\n        /* \"#utility.yul\":27683:27814   */\n      tag_761\n        /* \"#utility.yul\":27809:27813   */\n      dup2\n        /* \"#utility.yul\":27683:27814   */\n      tag_448\n      jump\t// in\n    tag_761:\n        /* \"#utility.yul\":27675:27814   */\n      swap1\n      pop\n        /* \"#utility.yul\":27402:27821   */\n      swap2\n      swap1\n      pop\n      jump\t// out\n        /* \"#utility.yul\":27827:28003   */\n    tag_449:\n        /* \"#utility.yul\":27967:27995   */\n      0x4e6f7420656e6f7567682073746f636b20617661696c61626c65000000000000\n        /* \"#utility.yul\":27963:27964   */\n      0x00\n        /* \"#utility.yul\":27955:27961   */\n      dup3\n        /* \"#utility.yul\":27951:27965   */\n      add\n        /* \"#utility.yul\":27944:27996   */\n      mstore\n        /* \"#utility.yul\":27827:28003   */\n      pop\n      jump\t// out\n        /* \"#utility.yul\":28009:28375   */\n    tag_450:\n        /* \"#utility.yul\":28151:28154   */\n      0x00\n        /* \"#utility.yul\":28172:28239   */\n      tag_764\n        /* \"#utility.yul\":28236:28238   */\n      0x1a\n        /* \"#utility.yul\":28231:28234   */\n      dup4\n        /* \"#utility.yul\":28172:28239   */\n      tag_393\n      jump\t// in\n    tag_764:\n        /* \"#utility.yul\":28165:28239   */\n      swap2\n      pop\n        /* \"#utility.yul\":28248:28341   */\n      tag_765\n        /* \"#utility.yul\":28337:28340   */\n      dup3\n        /* \"#utility.yul\":28248:28341   */\n      tag_449\n      jump\t// in\n    tag_765:\n        /* \"#utility.yul\":28366:28368   */\n      0x20\n        /* \"#utility.yul\":28361:28364   */\n      dup3\n        /* \"#utility.yul\":28357:28369   */\n      add\n        /* \"#utility.yul\":28350:28369   */\n      swap1\n      pop\n        /* \"#utility.yul\":28009:28375   */\n      swap2\n      swap1\n      pop\n      jump\t// out\n        /* \"#utility.yul\":28381:28800   */\n    tag_245:\n        /* \"#utility.yul\":28547:28551   */\n      0x00\n        /* \"#utility.yul\":28585:28587   */\n      0x20\n        /* \"#utility.yul\":28574:28583   */\n      dup3\n        /* \"#utility.yul\":28570:28588   */\n      add\n        /* \"#utility.yul\":28562:28588   */\n      swap1\n      pop\n        /* \"#utility.yul\":28634:28643   */\n      dup2\n        /* \"#utility.yul\":28628:28632   */\n      dup2\n        /* \"#utility.yul\":28624:28644   */\n      sub\n        /* \"#utility.yul\":28620:28621   */\n      0x00\n        /* \"#utility.yul\":28609:28618   */\n      dup4\n        /* \"#utility.yul\":28605:28622   */\n      add\n        /* \"#utility.yul\":28598:28645   */\n      mstore\n        /* \"#utility.yul\":28662:28793   */\n      tag_767\n        /* \"#utility.yul\":28788:28792   */\n      dup2\n        /* \"#utility.yul\":28662:28793   */\n      tag_450\n      jump\t// in\n    tag_767:\n        /* \"#utility.yul\":28654:28793   */\n      swap1\n      pop\n        /* \"#utility.yul\":28381:28800   */\n      swap2\n      swap1\n      pop\n      jump\t// out\n        /* \"#utility.yul\":28806:28954   */\n    tag_451:\n        /* \"#utility.yul\":28908:28919   */\n      0x00\n        /* \"#utility.yul\":28945:28948   */\n      dup2\n        /* \"#utility.yul\":28930:28948   */\n      swap1\n      pop\n        /* \"#utility.yul\":28806:28954   */\n      swap3\n      swap2\n      pop\n      pop\n      jump\t// out\n        /* \"#utility.yul\":28960:29350   */\n    tag_452:\n        /* \"#utility.yul\":29066:29069   */\n      0x00\n        /* \"#utility.yul\":29094:29133   */\n      tag_770\n        /* \"#utility.yul\":29127:29132   */\n      dup3\n        /* \"#utility.yul\":29094:29133   */\n      tag_392\n      jump\t// in\n    tag_770:\n        /* \"#utility.yul\":29149:29238   */\n      tag_771\n        /* \"#utility.yul\":29231:29237   */\n      dup2\n        /* \"#utility.yul\":29226:29229   */\n      dup6\n        /* \"#utility.yul\":29149:29238   */\n      tag_451\n      jump\t// in\n    tag_771:\n        /* \"#utility.yul\":29142:29238   */\n      swap4\n      pop\n        /* \"#utility.yul\":29247:29312   */\n      tag_772\n        /* \"#utility.yul\":29305:29311   */\n      dup2\n        /* \"#utility.yul\":29300:29303   */\n      dup6\n        /* \"#utility.yul\":29293:29297   */\n      0x20\n        /* \"#utility.yul\":29286:29291   */\n      dup7\n        /* \"#utility.yul\":29282:29298   */\n      add\n        /* \"#utility.yul\":29247:29312   */\n      tag_394\n      jump\t// in\n    tag_772:\n        /* \"#utility.yul\":29337:29343   */\n      dup1\n        /* \"#utility.yul\":29332:29335   */\n      dup5\n        /* \"#utility.yul\":29328:29344   */\n      add\n        /* \"#utility.yul\":29321:29344   */\n      swap2\n      pop\n        /* \"#utility.yul\":29070:29350   */\n      pop\n        /* \"#utility.yul\":28960:29350   */\n      swap3\n      swap2\n      pop\n      pop\n      jump\t// out\n        /* \"#utility.yul\":29356:29631   */\n    tag_252:\n        /* \"#utility.yul\":29488:29491   */\n      0x00\n        /* \"#utility.yul\":29510:29605   */\n      tag_774\n        /* \"#utility.yul\":29601:29604   */\n      dup3\n        /* \"#utility.yul\":29592:29598   */\n      dup5\n        /* \"#utility.yul\":29510:29605   */\n      tag_452\n      jump\t// in\n    tag_774:\n        /* \"#utility.yul\":29503:29605   */\n      swap2\n      pop\n        /* \"#utility.yul\":29622:29625   */\n      dup2\n        /* \"#utility.yul\":29615:29625   */\n      swap1\n      pop\n        /* \"#utility.yul\":29356:29631   */\n      swap3\n      swap2\n      pop\n      pop\n      jump\t// out\n        /* \"#utility.yul\":29637:29810   */\n    tag_453:\n        /* \"#utility.yul\":29777:29802   */\n      0x496e73756666696369656e742066756e64732073656e74000000000000000000\n        /* \"#utility.yul\":29773:29774   */\n      0x00\n        /* \"#utility.yul\":29765:29771   */\n      dup3\n        /* \"#utility.yul\":29761:29775   */\n      add\n        /* \"#utility.yul\":29754:29803   */\n      mstore\n        /* \"#utility.yul\":29637:29810   */\n      pop\n      jump\t// out\n        /* \"#utility.yul\":29816:30182   */\n    tag_454:\n        /* \"#utility.yul\":29958:29961   */\n      0x00\n        /* \"#utility.yul\":29979:30046   */\n      tag_777\n        /* \"#utility.yul\":30043:30045   */\n      0x17\n        /* \"#utility.yul\":30038:30041   */\n      dup4\n        /* \"#utility.yul\":29979:30046   */\n      tag_393\n      jump\t// in\n    tag_777:\n        /* \"#utility.yul\":29972:30046   */\n      swap2\n      pop\n        /* \"#utility.yul\":30055:30148   */\n      tag_778\n        /* \"#utility.yul\":30144:30147   */\n      dup3\n        /* \"#utility.yul\":30055:30148   */\n      tag_453\n      jump\t// in\n    tag_778:\n        /* \"#utility.yul\":30173:30175   */\n      0x20\n        /* \"#utility.yul\":30168:30171   */\n      dup3\n        /* \"#utility.yul\":30164:30176   */\n      add\n        /* \"#utility.yul\":30157:30176   */\n      swap1\n      pop\n        /* \"#utility.yul\":29816:30182   */\n      swap2\n      swap1\n      pop\n      jump\t// out\n        /* \"#utility.yul\":30188:30607   */\n    tag_259:\n        /* \"#utility.yul\":30354:30358   */\n      0x00\n        /* \"#utility.yul\":30392:30394   */\n      0x20\n        /* \"#utility.yul\":30381:30390   */\n      dup3\n        /* \"#utility.yul\":30377:30395   */\n      add\n        /* \"#utility.yul\":30369:30395   */\n      swap1\n      pop\n        /* \"#utility.yul\":30441:30450   */\n      dup2\n        /* \"#utility.yul\":30435:30439   */\n      dup2\n        /* \"#utility.yul\":30431:30451   */\n      sub\n        /* \"#utility.yul\":30427:30428   */\n      0x00\n        /* \"#utility.yul\":30416:30425   */\n      dup4\n        /* \"#utility.yul\":30412:30429   */\n      add\n        /* \"#utility.yul\":30405:30452   */\n      mstore\n        /* \"#utility.yul\":30469:30600   */\n      tag_780\n        /* \"#utility.yul\":30595:30599   */\n      dup2\n        /* \"#utility.yul\":30469:30600   */\n      tag_454\n      jump\t// in\n    tag_780:\n        /* \"#utility.yul\":30461:30600   */\n      swap1\n      pop\n        /* \"#utility.yul\":30188:30607   */\n      swap2\n      swap1\n      pop\n      jump\t// out\n        /* \"#utility.yul\":30613:30760   */\n    tag_455:\n        /* \"#utility.yul\":30714:30725   */\n      0x00\n        /* \"#utility.yul\":30751:30754   */\n      dup2\n        /* \"#utility.yul\":30736:30754   */\n      swap1\n      pop\n        /* \"#utility.yul\":30613:30760   */\n      swap3\n      swap2\n      pop\n      pop\n      jump\t// out\n        /* \"#utility.yul\":30766:30910   */\n    tag_456:\n        /* \"#utility.yul\":30818:30822   */\n      0x00\n        /* \"#utility.yul\":30841:30844   */\n      dup2\n        /* \"#utility.yul\":30833:30844   */\n      swap1\n      pop\n        /* \"#utility.yul\":30864:30867   */\n      dup2\n        /* \"#utility.yul\":30861:30862   */\n      0x00\n        /* \"#utility.yul\":30854:30868   */\n      mstore\n        /* \"#utility.yul\":30898:30902   */\n      0x20\n        /* \"#utility.yul\":30895:30896   */\n      0x00\n        /* \"#utility.yul\":30885:30903   */\n      keccak256\n        /* \"#utility.yul\":30877:30903   */\n      swap1\n      pop\n        /* \"#utility.yul\":30766:30910   */\n      swap2\n      swap1\n      pop\n      jump\t// out\n        /* \"#utility.yul\":30938:31816   */\n    tag_457:\n        /* \"#utility.yul\":31043:31046   */\n      0x00\n        /* \"#utility.yul\":31080:31085   */\n      dup2\n        /* \"#utility.yul\":31074:31086   */\n      sload\n        /* \"#utility.yul\":31109:31145   */\n      tag_784\n        /* \"#utility.yul\":31135:31144   */\n      dup2\n        /* \"#utility.yul\":31109:31145   */\n      tag_113\n      jump\t// in\n    tag_784:\n        /* \"#utility.yul\":31161:31249   */\n      tag_785\n        /* \"#utility.yul\":31242:31248   */\n      dup2\n        /* \"#utility.yul\":31237:31240   */\n      dup7\n        /* \"#utility.yul\":31161:31249   */\n      tag_455\n      jump\t// in\n    tag_785:\n        /* \"#utility.yul\":31154:31249   */\n      swap5\n      pop\n        /* \"#utility.yul\":31280:31281   */\n      0x01\n        /* \"#utility.yul\":31269:31278   */\n      dup3\n        /* \"#utility.yul\":31265:31282   */\n      and\n        /* \"#utility.yul\":31296:31297   */\n      0x00\n        /* \"#utility.yul\":31291:31457   */\n      dup2\n      eq\n      tag_787\n      jumpi\n        /* \"#utility.yul\":31471:31472   */\n      0x01\n        /* \"#utility.yul\":31466:31810   */\n      dup2\n      eq\n      tag_788\n      jumpi\n        /* \"#utility.yul\":31258:31810   */\n      jump(tag_786)\n        /* \"#utility.yul\":31291:31457   */\n    tag_787:\n        /* \"#utility.yul\":31375:31379   */\n      0xff\n        /* \"#utility.yul\":31371:31380   */\n      not\n        /* \"#utility.yul\":31360:31369   */\n      dup4\n        /* \"#utility.yul\":31356:31381   */\n      and\n        /* \"#utility.yul\":31351:31354   */\n      dup7\n        /* \"#utility.yul\":31344:31382   */\n      mstore\n        /* \"#utility.yul\":31437:31443   */\n      dup2\n        /* \"#utility.yul\":31430:31444   */\n      iszero\n        /* \"#utility.yul\":31423:31445   */\n      iszero\n        /* \"#utility.yul\":31415:31421   */\n      dup3\n        /* \"#utility.yul\":31411:31446   */\n      mul\n        /* \"#utility.yul\":31406:31409   */\n      dup7\n        /* \"#utility.yul\":31402:31447   */\n      add\n        /* \"#utility.yul\":31395:31447   */\n      swap4\n      pop\n        /* \"#utility.yul\":31291:31457   */\n      jump(tag_786)\n        /* \"#utility.yul\":31466:31810   */\n    tag_788:\n        /* \"#utility.yul\":31533:31574   */\n      tag_789\n        /* \"#utility.yul\":31568:31573   */\n      dup6\n        /* \"#utility.yul\":31533:31574   */\n      tag_456\n      jump\t// in\n    tag_789:\n        /* \"#utility.yul\":31596:31597   */\n      0x00\n        /* \"#utility.yul\":31610:31764   */\n    tag_790:\n        /* \"#utility.yul\":31624:31630   */\n      dup4\n        /* \"#utility.yul\":31621:31622   */\n      dup2\n        /* \"#utility.yul\":31618:31631   */\n      lt\n        /* \"#utility.yul\":31610:31764   */\n      iszero\n      tag_792\n      jumpi\n        /* \"#utility.yul\":31698:31705   */\n      dup2\n        /* \"#utility.yul\":31692:31706   */\n      sload\n        /* \"#utility.yul\":31688:31689   */\n      dup2\n        /* \"#utility.yul\":31683:31686   */\n      dup10\n        /* \"#utility.yul\":31679:31690   */\n      add\n        /* \"#utility.yul\":31672:31707   */\n      mstore\n        /* \"#utility.yul\":31748:31749   */\n      0x01\n        /* \"#utility.yul\":31739:31746   */\n      dup3\n        /* \"#utility.yul\":31735:31750   */\n      add\n        /* \"#utility.yul\":31724:31750   */\n      swap2\n      pop\n        /* \"#utility.yul\":31646:31650   */\n      0x20\n        /* \"#utility.yul\":31643:31644   */\n      dup2\n        /* \"#utility.yul\":31639:31651   */\n      add\n        /* \"#utility.yul\":31634:31651   */\n      swap1\n      pop\n        /* \"#utility.yul\":31610:31764   */\n      jump(tag_790)\n    tag_792:\n        /* \"#utility.yul\":31793:31799   */\n      dup4\n        /* \"#utility.yul\":31788:31791   */\n      dup9\n        /* \"#utility.yul\":31784:31800   */\n      add\n        /* \"#utility.yul\":31777:31800   */\n      swap6\n      pop\n        /* \"#utility.yul\":31473:31810   */\n      pop\n      pop\n        /* \"#utility.yul\":31258:31810   */\n    tag_786:\n      pop\n        /* \"#utility.yul\":31047:31816   */\n      pop\n      pop\n        /* \"#utility.yul\":30938:31816   */\n      swap3\n      swap2\n      pop\n      pop\n      jump\t// out\n        /* \"#utility.yul\":31822:32095   */\n    tag_267:\n        /* \"#utility.yul\":31953:31956   */\n      0x00\n        /* \"#utility.yul\":31975:32069   */\n      tag_794\n        /* \"#utility.yul\":32065:32068   */\n      dup3\n        /* \"#utility.yul\":32056:32062   */\n      dup5\n        /* \"#utility.yul\":31975:32069   */\n      tag_457\n      jump\t// in\n    tag_794:\n        /* \"#utility.yul\":31968:32069   */\n      swap2\n      pop\n        /* \"#utility.yul\":32086:32089   */\n      dup2\n        /* \"#utility.yul\":32079:32089   */\n      swap1\n      pop\n        /* \"#utility.yul\":31822:32095   */\n      swap3\n      swap2\n      pop\n      pop\n      jump\t// out\n\n    auxdata: 0xa26469706673582212205cc3757757c1eeb6a3a55fa5e685d3b89d2f762b5472d2b98216da183d46203564736f6c63430008150033\n}\n",
				"bytecode": {
					"linkReferences": {},
					"object": "608060405234801561000f575f80fd5b503360015f6101000a81548173ffffffffffffffffffffffffffffffffffffffff021916908373ffffffffffffffffffffffffffffffffffffffff1602179055506137798061005d5f395ff3fe608060405260043610610108575f3560e01c8063861c2b6d11610094578063a87430ba11610063578063a87430ba1461033d578063d18a524a1461037a578063d55768dd14610390578063f67a2ad1146103cc578063fecd8f79146103f457610108565b8063861c2b6d146102a75780638da5cb5b146102cf5780639f1cd587146102f9578063a1ba90b61461031557610108565b806350b44712116100db57806350b44712146101c857806355dea0b31461020557806366d0dc671461022d5780636f76470814610243578063805553e81461026b57610108565b80630e345d831461010c5780633d5278831461014b5780633dfe7dee1461018a578063410085df146101a0575b5f80fd5b348015610117575f80fd5b50610132600480360381019061012d919061266f565b610410565b6040516101429493929190612746565b60405180910390f35b348015610156575f80fd5b50610171600480360381019061016c919061266f565b6104dc565b6040516101819493929190612746565b60405180910390f35b348015610195575f80fd5b5061019e6105a8565b005b3480156101ab575f80fd5b506101c660048036038101906101c1919061266f565b610648565b005b3480156101d3575f80fd5b506101ee60048036038101906101e99190612790565b6109dc565b6040516101fc92919061283d565b60405180910390f35b348015610210575f80fd5b5061022b60048036038101906102269190612887565b610a31565b005b348015610238575f80fd5b50610241610b09565b005b34801561024e575f80fd5b5061026960048036038101906102649190612790565b610baa565b005b348015610276575f80fd5b50610291600480360381019061028c9190612790565b610dd7565b60405161029e91906128b2565b60405180910390f35b3480156102b2575f80fd5b506102cd60048036038101906102c8919061292c565b610e27565b005b3480156102da575f80fd5b506102e361105f565b6040516102f091906129c2565b60405180910390f35b610313600480360381019061030e9190612b03565b611084565b005b348015610320575f80fd5b5061033b60048036038101906103369190612b83565b611995565b005b348015610348575f80fd5b50610363600480360381019061035e9190612bdd565b611a2c565b604051610371929190612c08565b60405180910390f35b348015610385575f80fd5b5061038e611a58565b005b34801561039b575f80fd5b506103b660048036038101906103b19190612c2f565b611dc2565b6040516103c391906129c2565b60405180910390f35b3480156103d7575f80fd5b506103f260048036038101906103ed9190612bdd565b611e0a565b005b61040e60048036038101906104099190612c76565b611e91565b005b6005602052815f5260405f208181548110610429575f80fd5b905f5260205f2090600402015f9150915050805f01549080600101549080600201805461045590612d07565b80601f016020809104026020016040519081016040528092919081815260200182805461048190612d07565b80156104cc5780601f106104a3576101008083540402835291602001916104cc565b820191905f5260205f20905b8154815290600101906020018083116104af57829003601f168201915b5050505050908060030154905084565b6003602052815f5260405f2081815481106104f5575f80fd5b905f5260205f2090600402015f9150915050805f01549080600101549080600201805461052190612d07565b80601f016020809104026020016040519081016040528092919081815260200182805461054d90612d07565b80156105985780601f1061056f57610100808354040283529160200191610598565b820191905f5260205f20905b81548152906001019060200180831161057b57829003601f168201915b5050505050908060030154905084565b60405180604001604052806002808111156105c6576105c56127ca565b5b81526020015f81525060025f3373ffffffffffffffffffffffffffffffffffffffff1673ffffffffffffffffffffffffffffffffffffffff1681526020019081526020015f205f820151815f015f6101000a81548160ff02191690836002811115610634576106336127ca565b5b021790555060208201518160010155905050565b60035f8373ffffffffffffffffffffffffffffffffffffffff1673ffffffffffffffffffffffffffffffffffffffff1681526020019081526020015f20818154811061069757610696612d37565b5b905f5260205f2090600402016003015460035f3373ffffffffffffffffffffffffffffffffffffffff1673ffffffffffffffffffffffffffffffffffffffff1681526020019081526020015f2082815481106106f6576106f5612d37565b5b905f5260205f209060040201600301541161070f575f80fd5b5f670de0b6b3a764000060035f8573ffffffffffffffffffffffffffffffffffffffff1673ffffffffffffffffffffffffffffffffffffffff1681526020019081526020015f20838154811061076857610767612d37565b5b905f5260205f2090600402016001015460035f3373ffffffffffffffffffffffffffffffffffffffff1673ffffffffffffffffffffffffffffffffffffffff1681526020019081526020015f2084815481106107c7576107c6612d37565b5b905f5260205f2090600402015f01546107e09190612d91565b6107ea9190612d91565b905060035f3373ffffffffffffffffffffffffffffffffffffffff1673ffffffffffffffffffffffffffffffffffffffff1681526020019081526020015f20828154811061083b5761083a612d37565b5b905f5260205f2090600402015f015460035f8573ffffffffffffffffffffffffffffffffffffffff1673ffffffffffffffffffffffffffffffffffffffff1681526020019081526020015f20838154811061089957610898612d37565b5b905f5260205f2090600402015f015f8282546108b59190612dd2565b9250508190555060035f3373ffffffffffffffffffffffffffffffffffffffff1673ffffffffffffffffffffffffffffffffffffffff1681526020019081526020015f20828154811061090b5761090a612d37565b5b905f5260205f2090600402015f8082015f9055600182015f9055600282015f6109349190612579565b600382015f905550508060025f8573ffffffffffffffffffffffffffffffffffffffff1673ffffffffffffffffffffffffffffffffffffffff1681526020019081526020015f206001015f82825461098c9190612e05565b925050819055503373ffffffffffffffffffffffffffffffffffffffff166108fc8290811502906040515f60405180830381858888f193505050501580156109d6573d5f803e3d5ffd5b50505050565b5f81815481106109ea575f80fd5b905f5260205f20015f91509050805f015f9054906101000a900473ffffffffffffffffffffffffffffffffffffffff1690805f0160149054906101000a900460ff16905082565b5f60405180604001604052803373ffffffffffffffffffffffffffffffffffffffff168152602001836002811115610a6c57610a6b6127ca565b5b815250908060018154018082558091505060019003905f5260205f20015f909190919091505f820151815f015f6101000a81548173ffffffffffffffffffffffffffffffffffffffff021916908373ffffffffffffffffffffffffffffffffffffffff1602179055506020820151815f0160146101000a81548160ff02191690836002811115610aff57610afe6127ca565b5b0217905550505050565b604051806040016040528060016002811115610b2857610b276127ca565b5b81526020015f81525060025f3373ffffffffffffffffffffffffffffffffffffffff1673ffffffffffffffffffffffffffffffffffffffff1681526020019081526020015f205f820151815f015f6101000a81548160ff02191690836002811115610b9657610b956127ca565b5b021790555060208201518160010155905050565b60015f9054906101000a900473ffffffffffffffffffffffffffffffffffffffff1673ffffffffffffffffffffffffffffffffffffffff163373ffffffffffffffffffffffffffffffffffffffff1614610c02575f80fd5b5f808281548110610c1657610c15612d37565b5b905f5260205f20015f015f9054906101000a900473ffffffffffffffffffffffffffffffffffffffff1690505f808381548110610c5657610c55612d37565b5b905f5260205f20015f0160149054906101000a900460ff1690508060025f8473ffffffffffffffffffffffffffffffffffffffff1673ffffffffffffffffffffffffffffffffffffffff1681526020019081526020015f205f015f6101000a81548160ff02191690836002811115610cd157610cd06127ca565b5b021790555060055f3373ffffffffffffffffffffffffffffffffffffffff1673ffffffffffffffffffffffffffffffffffffffff1681526020019081526020015f20816002811115610d2657610d256127ca565b5b81548110610d3757610d36612d37565b5b905f5260205f20906004020160035f3373ffffffffffffffffffffffffffffffffffffffff1673ffffffffffffffffffffffffffffffffffffffff1681526020019081526020015f205f81548110610d9257610d91612d37565b5b905f5260205f2090600402015f820154815f01556001820154816001015560028201816002019081610dc49190612fea565b5060038201548160030155905050505050565b5f808080610de4906130cf565b91505082423383604051602001610dfd9392919061317b565b604051602081830303815290604052805190602001205f1c610e1f91906131e4565b915050919050565b600281816002811115610e3d57610e3c6127ca565b5b60025f3373ffffffffffffffffffffffffffffffffffffffff1673ffffffffffffffffffffffffffffffffffffffff1681526020019081526020015f205f015f9054906101000a900460ff166002811115610e9b57610e9a6127ca565b5b14610edb576040517f08c379a0000000000000000000000000000000000000000000000000000000008152600401610ed2906132aa565b60405180910390fd5b8073ffffffffffffffffffffffffffffffffffffffff163373ffffffffffffffffffffffffffffffffffffffff1614610f49576040517f08c379a0000000000000000000000000000000000000000000000000000000008152600401610f409061335e565b60405180910390fd5b5f60405180608001604052808a815260200160028a610f68919061337c565b815260200188888080601f0160208091040260200160405190810160405280939291908181526020018383808284375f81840152601f19601f82011690508083019250505050505050815260200186815250905060035f8573ffffffffffffffffffffffffffffffffffffffff1673ffffffffffffffffffffffffffffffffffffffff1681526020019081526020015f2081908060018154018082558091505060019003905f5260205f2090600402015f909190919091505f820151815f015560208201518160010155604082015181600201908161104791906133ac565b50606082015181600301555050505050505050505050565b60015f9054906101000a900473ffffffffffffffffffffffffffffffffffffffff1681565b5f6002811115611097576110966127ca565b5b60025f3373ffffffffffffffffffffffffffffffffffffffff1673ffffffffffffffffffffffffffffffffffffffff1681526020019081526020015f205f015f9054906101000a900460ff1660028111156110f5576110f46127ca565b5b036111995760405180604001604052805f6002811115611118576111176127ca565b5b81526020015f81525060025f3373ffffffffffffffffffffffffffffffffffffffff1673ffffffffffffffffffffffffffffffffffffffff1681526020019081526020015f205f820151815f015f6101000a81548160ff02191690836002811115611186576111856127ca565b5b0217905550602082015181600101559050505b5f83116111db576040517f08c379a00000000000000000000000000000000000000000000000000000000081526004016111d2906134eb565b60405180910390fd5b60035f8573ffffffffffffffffffffffffffffffffffffffff1673ffffffffffffffffffffffffffffffffffffffff1681526020019081526020015f2080549050821061125d576040517f08c379a000000000000000000000000000000000000000000000000000000000815260040161125490613553565b60405180910390fd5b60035f8573ffffffffffffffffffffffffffffffffffffffff1673ffffffffffffffffffffffffffffffffffffffff1681526020019081526020015f2082815481106112ac576112ab612d37565b5b905f5260205f2090600402015f01548311156112fd576040517f08c379a00000000000000000000000000000000000000000000000000000000081526004016112f4906135bb565b60405180910390fd5b5f670de0b6b3a764000060035f8773ffffffffffffffffffffffffffffffffffffffff1673ffffffffffffffffffffffffffffffffffffffff1681526020019081526020015f20848154811061135657611355612d37565b5b905f5260205f20906004020160010154856113719190612d91565b61137b9190612d91565b90503373ffffffffffffffffffffffffffffffffffffffff166004836040516113a49190613613565b90815260200160405180910390205f9054906101000a900473ffffffffffffffffffffffffffffffffffffffff1673ffffffffffffffffffffffffffffffffffffffff1603611465576064605a826113fc9190612d91565b611406919061337c565b90505f6004836040516114199190613613565b90815260200160405180910390205f6101000a81548173ffffffffffffffffffffffffffffffffffffffff021916908373ffffffffffffffffffffffffffffffffffffffff1602179055505b803410156114a8576040517f08c379a000000000000000000000000000000000000000000000000000000000815260040161149f90613673565b60405180910390fd5b5f805b60035f3373ffffffffffffffffffffffffffffffffffffffff1673ffffffffffffffffffffffffffffffffffffffff1681526020019081526020015f208054905081101561166d5760035f8873ffffffffffffffffffffffffffffffffffffffff1673ffffffffffffffffffffffffffffffffffffffff1681526020019081526020015f20858154811061154257611541612d37565b5b905f5260205f20906004020160020160405161155e919061372d565b604051809103902060035f3373ffffffffffffffffffffffffffffffffffffffff1673ffffffffffffffffffffffffffffffffffffffff1681526020019081526020015f2082815481106115b5576115b4612d37565b5b905f5260205f2090600402016002016040516115d1919061372d565b60405180910390200361165a578560035f3373ffffffffffffffffffffffffffffffffffffffff1673ffffffffffffffffffffffffffffffffffffffff1681526020019081526020015f20828154811061162e5761162d612d37565b5b905f5260205f2090600402015f015f82825461164a9190612dd2565b925050819055506001915061166d565b8080611665906130cf565b9150506114ab565b508061187d575f604051806080016040528087815260200160035f8a73ffffffffffffffffffffffffffffffffffffffff1673ffffffffffffffffffffffffffffffffffffffff1681526020019081526020015f2087815481106116d4576116d3612d37565b5b905f5260205f20906004020160010154815260200160035f8a73ffffffffffffffffffffffffffffffffffffffff1673ffffffffffffffffffffffffffffffffffffffff1681526020019081526020015f20878154811061173857611737612d37565b5b905f5260205f209060040201600201805461175290612d07565b80601f016020809104026020016040519081016040528092919081815260200182805461177e90612d07565b80156117c95780601f106117a0576101008083540402835291602001916117c9565b820191905f5260205f20905b8154815290600101906020018083116117ac57829003601f168201915b505050505081526020016117de6103e8610dd7565b815250905060035f3373ffffffffffffffffffffffffffffffffffffffff1673ffffffffffffffffffffffffffffffffffffffff1681526020019081526020015f2081908060018154018082558091505060019003905f5260205f2090600402015f909190919091505f820151815f015560208201518160010155604082015181600201908161186e91906133ac565b50606082015181600301555050505b8460035f8873ffffffffffffffffffffffffffffffffffffffff1673ffffffffffffffffffffffffffffffffffffffff1681526020019081526020015f2085815481106118cd576118cc612d37565b5b905f5260205f2090600402015f015f8282546118e99190612e05565b925050819055508160025f8873ffffffffffffffffffffffffffffffffffffffff1673ffffffffffffffffffffffffffffffffffffffff1681526020019081526020015f20600101819055508134111561198d573373ffffffffffffffffffffffffffffffffffffffff166108fc83346119639190612e05565b90811502906040515f60405180830381858888f1935050505015801561198b573d5f803e3d5ffd5b505b505050505050565b8073ffffffffffffffffffffffffffffffffffffffff163373ffffffffffffffffffffffffffffffffffffffff16036119cc575f80fd5b806004836040516119dd9190613613565b90815260200160405180910390205f6101000a81548173ffffffffffffffffffffffffffffffffffffffff021916908373ffffffffffffffffffffffffffffffffffffffff1602179055505050565b6002602052805f5260405f205f91509050805f015f9054906101000a900460ff16908060010154905082565b60405180604001604052805f6002811115611a7657611a756127ca565b5b81526020015f81525060025f3373ffffffffffffffffffffffffffffffffffffffff1673ffffffffffffffffffffffffffffffffffffffff1681526020019081526020015f205f820151815f015f6101000a81548160ff02191690836002811115611ae457611ae36127ca565b5b02179055506020820151816001015590505060055f3373ffffffffffffffffffffffffffffffffffffffff1673ffffffffffffffffffffffffffffffffffffffff1681526020019081526020015f206040518060800160405280600d81526020015f81526020016040518060400160405280600181526020017f200000000000000000000000000000000000000000000000000000000000000081525081526020015f815250908060018154018082558091505060019003905f5260205f2090600402015f909190919091505f820151815f0155602082015181600101556040820151816002019081611bd791906133ac565b5060608201518160030155505060055f3373ffffffffffffffffffffffffffffffffffffffff1673ffffffffffffffffffffffffffffffffffffffff1681526020019081526020015f206040518060800160405280601c81526020015f81526020016040518060400160405280600181526020017f200000000000000000000000000000000000000000000000000000000000000081525081526020015f815250908060018154018082558091505060019003905f5260205f2090600402015f909190919091505f820151815f0155602082015181600101556040820151816002019081611cc591906133ac565b5060608201518160030155505060055f3373ffffffffffffffffffffffffffffffffffffffff1673ffffffffffffffffffffffffffffffffffffffff1681526020019081526020015f206040518060800160405280603481526020015f81526020016040518060400160405280600181526020017f200000000000000000000000000000000000000000000000000000000000000081525081526020015f815250908060018154018082558091505060019003905f5260205f2090600402015f909190919091505f820151815f0155602082015181600101556040820151816002019081611db391906133ac565b50606082015181600301555050565b6004818051602081018201805184825260208301602085012081835280955050505050505f915054906101000a900473ffffffffffffffffffffffffffffffffffffffff1681565b8073ffffffffffffffffffffffffffffffffffffffff166108fc60025f8473ffffffffffffffffffffffffffffffffffffffff1673ffffffffffffffffffffffffffffffffffffffff1681526020019081526020015f206001015490811502906040515f60405180830381858888f19350505050158015611e8d573d5f803e3d5ffd5b5050565b600184816002811115611ea757611ea66127ca565b5b60025f3373ffffffffffffffffffffffffffffffffffffffff1673ffffffffffffffffffffffffffffffffffffffff1681526020019081526020015f205f015f9054906101000a900460ff166002811115611f0557611f046127ca565b5b14611f45576040517f08c379a0000000000000000000000000000000000000000000000000000000008152600401611f3c906132aa565b60405180910390fd5b8073ffffffffffffffffffffffffffffffffffffffff163373ffffffffffffffffffffffffffffffffffffffff1614611fb3576040517f08c379a0000000000000000000000000000000000000000000000000000000008152600401611faa9061335e565b60405180910390fd5b5f8411611ff5576040517f08c379a0000000000000000000000000000000000000000000000000000000008152600401611fec906134eb565b60405180910390fd5b60035f8473ffffffffffffffffffffffffffffffffffffffff1673ffffffffffffffffffffffffffffffffffffffff1681526020019081526020015f20805490508510612077576040517f08c379a000000000000000000000000000000000000000000000000000000000815260040161206e90613553565b60405180910390fd5b5f60035f8573ffffffffffffffffffffffffffffffffffffffff1673ffffffffffffffffffffffffffffffffffffffff1681526020019081526020015f2086815481106120c7576120c6612d37565b5b905f5260205f2090600402016001015490505f670de0b6b3a764000086836120ef9190612d91565b6120f99190612d91565b90508034101561213e576040517f08c379a000000000000000000000000000000000000000000000000000000000815260040161213590613673565b60405180910390fd5b5f60035f8773ffffffffffffffffffffffffffffffffffffffff1673ffffffffffffffffffffffffffffffffffffffff1681526020019081526020015f20888154811061218e5761218d612d37565b5b905f5260205f20906004020160020180546121a890612d07565b80601f01602080910402602001604051908101604052809291908181526020018280546121d490612d07565b801561221f5780601f106121f65761010080835404028352916020019161221f565b820191905f5260205f20905b81548152906001019060200180831161220257829003601f168201915b505050505090505f805b60035f8c73ffffffffffffffffffffffffffffffffffffffff1673ffffffffffffffffffffffffffffffffffffffff1681526020019081526020015f20805490508110156123805760035f8c73ffffffffffffffffffffffffffffffffffffffff1673ffffffffffffffffffffffffffffffffffffffff1681526020019081526020015f2081815481106122c0576122bf612d37565b5b905f5260205f2090600402016002016040516122dc919061372d565b604051809103902083805190602001200361236d578860035f8d73ffffffffffffffffffffffffffffffffffffffff1673ffffffffffffffffffffffffffffffffffffffff1681526020019081526020015f20828154811061234157612340612d37565b5b905f5260205f2090600402015f015f82825461235d9190612dd2565b9250508190555060019150612380565b8080612378906130cf565b915050612229565b50806124a2575f60405180608001604052808a815260200186815260200184815260200160035f8b73ffffffffffffffffffffffffffffffffffffffff1673ffffffffffffffffffffffffffffffffffffffff1681526020019081526020015f208c815481106123f3576123f2612d37565b5b905f5260205f20906004020160030154815250905060035f8c73ffffffffffffffffffffffffffffffffffffffff1673ffffffffffffffffffffffffffffffffffffffff1681526020019081526020015f2081908060018154018082558091505060019003905f5260205f2090600402015f909190919091505f820151815f015560208201518160010155604082015181600201908161249391906133ac565b50606082015181600301555050505b8760035f8973ffffffffffffffffffffffffffffffffffffffff1673ffffffffffffffffffffffffffffffffffffffff1681526020019081526020015f208a815481106124f2576124f1612d37565b5b905f5260205f2090600402015f015f82825461250e9190612e05565b925050819055508234111561256d573373ffffffffffffffffffffffffffffffffffffffff166108fc84346125439190612e05565b90811502906040515f60405180830381858888f1935050505015801561256b573d5f803e3d5ffd5b505b50505050505050505050565b50805461258590612d07565b5f825580601f1061259657506125b3565b601f0160209004905f5260205f20908101906125b291906125b6565b5b50565b5b808211156125cd575f815f9055506001016125b7565b5090565b5f604051905090565b5f80fd5b5f80fd5b5f73ffffffffffffffffffffffffffffffffffffffff82169050919050565b5f61260b826125e2565b9050919050565b61261b81612601565b8114612625575f80fd5b50565b5f8135905061263681612612565b92915050565b5f819050919050565b61264e8161263c565b8114612658575f80fd5b50565b5f8135905061266981612645565b92915050565b5f8060408385031215612685576126846125da565b5b5f61269285828601612628565b92505060206126a38582860161265b565b9150509250929050565b6126b68161263c565b82525050565b5f81519050919050565b5f82825260208201905092915050565b5f5b838110156126f35780820151818401526020810190506126d8565b5f8484015250505050565b5f601f19601f8301169050919050565b5f612718826126bc565b61272281856126c6565b93506127328185602086016126d6565b61273b816126fe565b840191505092915050565b5f6080820190506127595f8301876126ad565b61276660208301866126ad565b8181036040830152612778818561270e565b905061278760608301846126ad565b95945050505050565b5f602082840312156127a5576127a46125da565b5b5f6127b28482850161265b565b91505092915050565b6127c481612601565b82525050565b7f4e487b71000000000000000000000000000000000000000000000000000000005f52602160045260245ffd5b60038110612808576128076127ca565b5b50565b5f819050612818826127f7565b919050565b5f6128278261280b565b9050919050565b6128378161281d565b82525050565b5f6040820190506128505f8301856127bb565b61285d602083018461282e565b9392505050565b60038110612870575f80fd5b50565b5f8135905061288181612864565b92915050565b5f6020828403121561289c5761289b6125da565b5b5f6128a984828501612873565b91505092915050565b5f6020820190506128c55f8301846126ad565b92915050565b5f80fd5b5f80fd5b5f80fd5b5f8083601f8401126128ec576128eb6128cb565b5b8235905067ffffffffffffffff811115612909576129086128cf565b5b602083019150836001820283011115612925576129246128d3565b5b9250929050565b5f805f805f8060a08789031215612946576129456125da565b5b5f61295389828a0161265b565b965050602061296489828a0161265b565b955050604087013567ffffffffffffffff811115612985576129846125de565b5b61299189828a016128d7565b945094505060606129a489828a0161265b565b92505060806129b589828a01612628565b9150509295509295509295565b5f6020820190506129d55f8301846127bb565b92915050565b5f80fd5b7f4e487b71000000000000000000000000000000000000000000000000000000005f52604160045260245ffd5b612a15826126fe565b810181811067ffffffffffffffff82111715612a3457612a336129df565b5b80604052505050565b5f612a466125d1565b9050612a528282612a0c565b919050565b5f67ffffffffffffffff821115612a7157612a706129df565b5b612a7a826126fe565b9050602081019050919050565b828183375f83830152505050565b5f612aa7612aa284612a57565b612a3d565b905082815260208101848484011115612ac357612ac26129db565b5b612ace848285612a87565b509392505050565b5f82601f830112612aea57612ae96128cb565b5b8135612afa848260208601612a95565b91505092915050565b5f805f8060808587031215612b1b57612b1a6125da565b5b5f612b2887828801612628565b9450506020612b398782880161265b565b9350506040612b4a8782880161265b565b925050606085013567ffffffffffffffff811115612b6b57612b6a6125de565b5b612b7787828801612ad6565b91505092959194509250565b5f8060408385031215612b9957612b986125da565b5b5f83013567ffffffffffffffff811115612bb657612bb56125de565b5b612bc285828601612ad6565b9250506020612bd385828601612628565b9150509250929050565b5f60208284031215612bf257612bf16125da565b5b5f612bff84828501612628565b91505092915050565b5f604082019050612c1b5f83018561282e565b612c2860208301846126ad565b9392505050565b5f60208284031215612c4457612c436125da565b5b5f82013567ffffffffffffffff811115612c6157612c606125de565b5b612c6d84828501612ad6565b91505092915050565b5f805f8060808587031215612c8e57612c8d6125da565b5b5f612c9b87828801612628565b9450506020612cac8782880161265b565b9350506040612cbd8782880161265b565b9250506060612cce87828801612628565b91505092959194509250565b7f4e487b71000000000000000000000000000000000000000000000000000000005f52602260045260245ffd5b5f6002820490506001821680612d1e57607f821691505b602082108103612d3157612d30612cda565b5b50919050565b7f4e487b71000000000000000000000000000000000000000000000000000000005f52603260045260245ffd5b7f4e487b71000000000000000000000000000000000000000000000000000000005f52601160045260245ffd5b5f612d9b8261263c565b9150612da68361263c565b9250828202612db48161263c565b91508282048414831517612dcb57612dca612d64565b5b5092915050565b5f612ddc8261263c565b9150612de78361263c565b9250828201905080821115612dff57612dfe612d64565b5b92915050565b5f612e0f8261263c565b9150612e1a8361263c565b9250828203905081811115612e3257612e31612d64565b5b92915050565b5f81549050612e4681612d07565b9050919050565b5f819050815f5260205f209050919050565b5f6020601f8301049050919050565b5f82821b905092915050565b5f60088302612ea97fffffffffffffffffffffffffffffffffffffffffffffffffffffffffffffffff82612e6e565b612eb38683612e6e565b95508019841693508086168417925050509392505050565b5f819050919050565b5f612eee612ee9612ee48461263c565b612ecb565b61263c565b9050919050565b5f819050919050565b612f0783612ed4565b612f1b612f1382612ef5565b848454612e7a565b825550505050565b5f90565b612f2f612f23565b612f3a818484612efe565b505050565b5b81811015612f5d57612f525f82612f27565b600181019050612f40565b5050565b601f821115612fa257612f7381612e4d565b612f7c84612e5f565b81016020851015612f8b578190505b612f9f612f9785612e5f565b830182612f3f565b50505b505050565b5f82821c905092915050565b5f612fc25f1984600802612fa7565b1980831691505092915050565b5f612fda8383612fb3565b9150826002028217905092915050565b818103612ff85750506130cd565b61300182612e38565b67ffffffffffffffff81111561301a576130196129df565b5b6130248254612d07565b61302f828285612f61565b5f601f83116001811461305c575f841561304a578287015490505b6130548582612fcf565b8655506130c6565b601f19841661306a87612e4d565b965061307586612e4d565b5f5b8281101561309c57848901548255600182019150600185019450602081019050613077565b868310156130b957848901546130b5601f891682612fb3565b8355505b6001600288020188555050505b5050505050505b565b5f6130d98261263c565b91507fffffffffffffffffffffffffffffffffffffffffffffffffffffffffffffffff820361310b5761310a612d64565b5b600182019050919050565b5f819050919050565b61313061312b8261263c565b613116565b82525050565b5f8160601b9050919050565b5f61314c82613136565b9050919050565b5f61315d82613142565b9050919050565b61317561317082612601565b613153565b82525050565b5f613186828661311f565b6020820191506131968285613164565b6014820191506131a6828461311f565b602082019150819050949350505050565b7f4e487b71000000000000000000000000000000000000000000000000000000005f52601260045260245ffd5b5f6131ee8261263c565b91506131f98361263c565b925082613209576132086131b7565b5b828206905092915050565b7fd092d0b0d188d0b020d180d0bed0bbd18c20d0bdd0b520d0bfd0bed0b7d0b2d05f8201527fbed0bbd18fd0b5d18220d18dd182d0be20d0b8d0b7d0bcd0b5d0bdd18fd182d160208201527f8c00000000000000000000000000000000000000000000000000000000000000604082015250565b5f6132946041836126c6565b915061329f82613214565b606082019050919050565b5f6020820190508181035f8301526132c181613288565b9050919050565b7fd09cd0b0d0b3d0b0d0b7d0b8d0bd20d0bdd0b520d181d0bed0bed182d0b2d0b55f8201527fd182d181d0b2d183d0b5d18220d0bed182d0bfd180d0b0d0b2d0b8d182d0b5d060208201527fbbd18e0000000000000000000000000000000000000000000000000000000000604082015250565b5f6133486043836126c6565b9150613353826132c8565b606082019050919050565b5f6020820190508181035f8301526133758161333c565b9050919050565b5f6133868261263c565b91506133918361263c565b9250826133a1576133a06131b7565b5b828204905092915050565b6133b5826126bc565b67ffffffffffffffff8111156133ce576133cd6129df565b5b6133d88254612d07565b6133e3828285612f61565b5f60209050601f831160018114613414575f8415613402578287015190505b61340c8582612fcf565b865550613473565b601f19841661342286612e4d565b5f5b8281101561344957848901518255600182019150602085019450602081019050613424565b868310156134665784890151613462601f891682612fb3565b8355505b6001600288020188555050505b505050505050565b7f507572636861736520616d6f756e74206d7573742062652067726561746572205f8201527f7468616e20300000000000000000000000000000000000000000000000000000602082015250565b5f6134d56026836126c6565b91506134e08261347b565b604082019050919050565b5f6020820190508181035f830152613502816134c9565b9050919050565b7f496e76616c69642070726f6475637420494400000000000000000000000000005f82015250565b5f61353d6012836126c6565b915061354882613509565b602082019050919050565b5f6020820190508181035f83015261356a81613531565b9050919050565b7f4e6f7420656e6f7567682073746f636b20617661696c61626c650000000000005f82015250565b5f6135a5601a836126c6565b91506135b082613571565b602082019050919050565b5f6020820190508181035f8301526135d281613599565b9050919050565b5f81905092915050565b5f6135ed826126bc565b6135f781856135d9565b93506136078185602086016126d6565b80840191505092915050565b5f61361e82846135e3565b915081905092915050565b7f496e73756666696369656e742066756e64732073656e740000000000000000005f82015250565b5f61365d6017836126c6565b915061366882613629565b602082019050919050565b5f6020820190508181035f83015261368a81613651565b9050919050565b5f81905092915050565b5f819050815f5260205f209050919050565b5f81546136b981612d07565b6136c38186613691565b9450600182165f81146136dd57600181146136f257613724565b60ff1983168652811515820286019350613724565b6136fb8561369b565b5f5b8381101561371c578154818901526001820191506020810190506136fd565b838801955050505b50505092915050565b5f61373882846136ad565b91508190509291505056fea26469706673582212205cc3757757c1eeb6a3a55fa5e685d3b89d2f762b5472d2b98216da183d46203564736f6c63430008150033",
					"opcodes": "PUSH1 0x80 PUSH1 0x40 MSTORE CALLVALUE DUP1 ISZERO PUSH2 0xF JUMPI PUSH0 DUP1 REVERT JUMPDEST POP CALLER PUSH1 0x1 PUSH0 PUSH2 0x100 EXP DUP2 SLOAD DUP2 PUSH20 0xFFFFFFFFFFFFFFFFFFFFFFFFFFFFFFFFFFFFFFFF MUL NOT AND SWAP1 DUP4 PUSH20 0xFFFFFFFFFFFFFFFFFFFFFFFFFFFFFFFFFFFFFFFF AND MUL OR SWAP1 SSTORE POP PUSH2 0x3779 DUP1 PUSH2 0x5D PUSH0 CODECOPY PUSH0 RETURN INVALID PUSH1 0x80 PUSH1 0x40 MSTORE PUSH1 0x4 CALLDATASIZE LT PUSH2 0x108 JUMPI PUSH0 CALLDATALOAD PUSH1 0xE0 SHR DUP1 PUSH4 0x861C2B6D GT PUSH2 0x94 JUMPI DUP1 PUSH4 0xA87430BA GT PUSH2 0x63 JUMPI DUP1 PUSH4 0xA87430BA EQ PUSH2 0x33D JUMPI DUP1 PUSH4 0xD18A524A EQ PUSH2 0x37A JUMPI DUP1 PUSH4 0xD55768DD EQ PUSH2 0x390 JUMPI DUP1 PUSH4 0xF67A2AD1 EQ PUSH2 0x3CC JUMPI DUP1 PUSH4 0xFECD8F79 EQ PUSH2 0x3F4 JUMPI PUSH2 0x108 JUMP JUMPDEST DUP1 PUSH4 0x861C2B6D EQ PUSH2 0x2A7 JUMPI DUP1 PUSH4 0x8DA5CB5B EQ PUSH2 0x2CF JUMPI DUP1 PUSH4 0x9F1CD587 EQ PUSH2 0x2F9 JUMPI DUP1 PUSH4 0xA1BA90B6 EQ PUSH2 0x315 JUMPI PUSH2 0x108 JUMP JUMPDEST DUP1 PUSH4 0x50B44712 GT PUSH2 0xDB JUMPI DUP1 PUSH4 0x50B44712 EQ PUSH2 0x1C8 JUMPI DUP1 PUSH4 0x55DEA0B3 EQ PUSH2 0x205 JUMPI DUP1 PUSH4 0x66D0DC67 EQ PUSH2 0x22D JUMPI DUP1 PUSH4 0x6F764708 EQ PUSH2 0x243 JUMPI DUP1 PUSH4 0x805553E8 EQ PUSH2 0x26B JUMPI PUSH2 0x108 JUMP JUMPDEST DUP1 PUSH4 0xE345D83 EQ PUSH2 0x10C JUMPI DUP1 PUSH4 0x3D527883 EQ PUSH2 0x14B JUMPI DUP1 PUSH4 0x3DFE7DEE EQ PUSH2 0x18A JUMPI DUP1 PUSH4 0x410085DF EQ PUSH2 0x1A0 JUMPI JUMPDEST PUSH0 DUP1 REVERT JUMPDEST CALLVALUE DUP1 ISZERO PUSH2 0x117 JUMPI PUSH0 DUP1 REVERT JUMPDEST POP PUSH2 0x132 PUSH1 0x4 DUP1 CALLDATASIZE SUB DUP2 ADD SWAP1 PUSH2 0x12D SWAP2 SWAP1 PUSH2 0x266F JUMP JUMPDEST PUSH2 0x410 JUMP JUMPDEST PUSH1 0x40 MLOAD PUSH2 0x142 SWAP5 SWAP4 SWAP3 SWAP2 SWAP1 PUSH2 0x2746 JUMP JUMPDEST PUSH1 0x40 MLOAD DUP1 SWAP2 SUB SWAP1 RETURN JUMPDEST CALLVALUE DUP1 ISZERO PUSH2 0x156 JUMPI PUSH0 DUP1 REVERT JUMPDEST POP PUSH2 0x171 PUSH1 0x4 DUP1 CALLDATASIZE SUB DUP2 ADD SWAP1 PUSH2 0x16C SWAP2 SWAP1 PUSH2 0x266F JUMP JUMPDEST PUSH2 0x4DC JUMP JUMPDEST PUSH1 0x40 MLOAD PUSH2 0x181 SWAP5 SWAP4 SWAP3 SWAP2 SWAP1 PUSH2 0x2746 JUMP JUMPDEST PUSH1 0x40 MLOAD DUP1 SWAP2 SUB SWAP1 RETURN JUMPDEST CALLVALUE DUP1 ISZERO PUSH2 0x195 JUMPI PUSH0 DUP1 REVERT JUMPDEST POP PUSH2 0x19E PUSH2 0x5A8 JUMP JUMPDEST STOP JUMPDEST CALLVALUE DUP1 ISZERO PUSH2 0x1AB JUMPI PUSH0 DUP1 REVERT JUMPDEST POP PUSH2 0x1C6 PUSH1 0x4 DUP1 CALLDATASIZE SUB DUP2 ADD SWAP1 PUSH2 0x1C1 SWAP2 SWAP1 PUSH2 0x266F JUMP JUMPDEST PUSH2 0x648 JUMP JUMPDEST STOP JUMPDEST CALLVALUE DUP1 ISZERO PUSH2 0x1D3 JUMPI PUSH0 DUP1 REVERT JUMPDEST POP PUSH2 0x1EE PUSH1 0x4 DUP1 CALLDATASIZE SUB DUP2 ADD SWAP1 PUSH2 0x1E9 SWAP2 SWAP1 PUSH2 0x2790 JUMP JUMPDEST PUSH2 0x9DC JUMP JUMPDEST PUSH1 0x40 MLOAD PUSH2 0x1FC SWAP3 SWAP2 SWAP1 PUSH2 0x283D JUMP JUMPDEST PUSH1 0x40 MLOAD DUP1 SWAP2 SUB SWAP1 RETURN JUMPDEST CALLVALUE DUP1 ISZERO PUSH2 0x210 JUMPI PUSH0 DUP1 REVERT JUMPDEST POP PUSH2 0x22B PUSH1 0x4 DUP1 CALLDATASIZE SUB DUP2 ADD SWAP1 PUSH2 0x226 SWAP2 SWAP1 PUSH2 0x2887 JUMP JUMPDEST PUSH2 0xA31 JUMP JUMPDEST STOP JUMPDEST CALLVALUE DUP1 ISZERO PUSH2 0x238 JUMPI PUSH0 DUP1 REVERT JUMPDEST POP PUSH2 0x241 PUSH2 0xB09 JUMP JUMPDEST STOP JUMPDEST CALLVALUE DUP1 ISZERO PUSH2 0x24E JUMPI PUSH0 DUP1 REVERT JUMPDEST POP PUSH2 0x269 PUSH1 0x4 DUP1 CALLDATASIZE SUB DUP2 ADD SWAP1 PUSH2 0x264 SWAP2 SWAP1 PUSH2 0x2790 JUMP JUMPDEST PUSH2 0xBAA JUMP JUMPDEST STOP JUMPDEST CALLVALUE DUP1 ISZERO PUSH2 0x276 JUMPI PUSH0 DUP1 REVERT JUMPDEST POP PUSH2 0x291 PUSH1 0x4 DUP1 CALLDATASIZE SUB DUP2 ADD SWAP1 PUSH2 0x28C SWAP2 SWAP1 PUSH2 0x2790 JUMP JUMPDEST PUSH2 0xDD7 JUMP JUMPDEST PUSH1 0x40 MLOAD PUSH2 0x29E SWAP2 SWAP1 PUSH2 0x28B2 JUMP JUMPDEST PUSH1 0x40 MLOAD DUP1 SWAP2 SUB SWAP1 RETURN JUMPDEST CALLVALUE DUP1 ISZERO PUSH2 0x2B2 JUMPI PUSH0 DUP1 REVERT JUMPDEST POP PUSH2 0x2CD PUSH1 0x4 DUP1 CALLDATASIZE SUB DUP2 ADD SWAP1 PUSH2 0x2C8 SWAP2 SWAP1 PUSH2 0x292C JUMP JUMPDEST PUSH2 0xE27 JUMP JUMPDEST STOP JUMPDEST CALLVALUE DUP1 ISZERO PUSH2 0x2DA JUMPI PUSH0 DUP1 REVERT JUMPDEST POP PUSH2 0x2E3 PUSH2 0x105F JUMP JUMPDEST PUSH1 0x40 MLOAD PUSH2 0x2F0 SWAP2 SWAP1 PUSH2 0x29C2 JUMP JUMPDEST PUSH1 0x40 MLOAD DUP1 SWAP2 SUB SWAP1 RETURN JUMPDEST PUSH2 0x313 PUSH1 0x4 DUP1 CALLDATASIZE SUB DUP2 ADD SWAP1 PUSH2 0x30E SWAP2 SWAP1 PUSH2 0x2B03 JUMP JUMPDEST PUSH2 0x1084 JUMP JUMPDEST STOP JUMPDEST CALLVALUE DUP1 ISZERO PUSH2 0x320 JUMPI PUSH0 DUP1 REVERT JUMPDEST POP PUSH2 0x33B PUSH1 0x4 DUP1 CALLDATASIZE SUB DUP2 ADD SWAP1 PUSH2 0x336 SWAP2 SWAP1 PUSH2 0x2B83 JUMP JUMPDEST PUSH2 0x1995 JUMP JUMPDEST STOP JUMPDEST CALLVALUE DUP1 ISZERO PUSH2 0x348 JUMPI PUSH0 DUP1 REVERT JUMPDEST POP PUSH2 0x363 PUSH1 0x4 DUP1 CALLDATASIZE SUB DUP2 ADD SWAP1 PUSH2 0x35E SWAP2 SWAP1 PUSH2 0x2BDD JUMP JUMPDEST PUSH2 0x1A2C JUMP JUMPDEST PUSH1 0x40 MLOAD PUSH2 0x371 SWAP3 SWAP2 SWAP1 PUSH2 0x2C08 JUMP JUMPDEST PUSH1 0x40 MLOAD DUP1 SWAP2 SUB SWAP1 RETURN JUMPDEST CALLVALUE DUP1 ISZERO PUSH2 0x385 JUMPI PUSH0 DUP1 REVERT JUMPDEST POP PUSH2 0x38E PUSH2 0x1A58 JUMP JUMPDEST STOP JUMPDEST CALLVALUE DUP1 ISZERO PUSH2 0x39B JUMPI PUSH0 DUP1 REVERT JUMPDEST POP PUSH2 0x3B6 PUSH1 0x4 DUP1 CALLDATASIZE SUB DUP2 ADD SWAP1 PUSH2 0x3B1 SWAP2 SWAP1 PUSH2 0x2C2F JUMP JUMPDEST PUSH2 0x1DC2 JUMP JUMPDEST PUSH1 0x40 MLOAD PUSH2 0x3C3 SWAP2 SWAP1 PUSH2 0x29C2 JUMP JUMPDEST PUSH1 0x40 MLOAD DUP1 SWAP2 SUB SWAP1 RETURN JUMPDEST CALLVALUE DUP1 ISZERO PUSH2 0x3D7 JUMPI PUSH0 DUP1 REVERT JUMPDEST POP PUSH2 0x3F2 PUSH1 0x4 DUP1 CALLDATASIZE SUB DUP2 ADD SWAP1 PUSH2 0x3ED SWAP2 SWAP1 PUSH2 0x2BDD JUMP JUMPDEST PUSH2 0x1E0A JUMP JUMPDEST STOP JUMPDEST PUSH2 0x40E PUSH1 0x4 DUP1 CALLDATASIZE SUB DUP2 ADD SWAP1 PUSH2 0x409 SWAP2 SWAP1 PUSH2 0x2C76 JUMP JUMPDEST PUSH2 0x1E91 JUMP JUMPDEST STOP JUMPDEST PUSH1 0x5 PUSH1 0x20 MSTORE DUP2 PUSH0 MSTORE PUSH1 0x40 PUSH0 KECCAK256 DUP2 DUP2 SLOAD DUP2 LT PUSH2 0x429 JUMPI PUSH0 DUP1 REVERT JUMPDEST SWAP1 PUSH0 MSTORE PUSH1 0x20 PUSH0 KECCAK256 SWAP1 PUSH1 0x4 MUL ADD PUSH0 SWAP2 POP SWAP2 POP POP DUP1 PUSH0 ADD SLOAD SWAP1 DUP1 PUSH1 0x1 ADD SLOAD SWAP1 DUP1 PUSH1 0x2 ADD DUP1 SLOAD PUSH2 0x455 SWAP1 PUSH2 0x2D07 JUMP JUMPDEST DUP1 PUSH1 0x1F ADD PUSH1 0x20 DUP1 SWAP2 DIV MUL PUSH1 0x20 ADD PUSH1 0x40 MLOAD SWAP1 DUP2 ADD PUSH1 0x40 MSTORE DUP1 SWAP3 SWAP2 SWAP1 DUP2 DUP2 MSTORE PUSH1 0x20 ADD DUP3 DUP1 SLOAD PUSH2 0x481 SWAP1 PUSH2 0x2D07 JUMP JUMPDEST DUP1 ISZERO PUSH2 0x4CC JUMPI DUP1 PUSH1 0x1F LT PUSH2 0x4A3 JUMPI PUSH2 0x100 DUP1 DUP4 SLOAD DIV MUL DUP4 MSTORE SWAP2 PUSH1 0x20 ADD SWAP2 PUSH2 0x4CC JUMP JUMPDEST DUP3 ADD SWAP2 SWAP1 PUSH0 MSTORE PUSH1 0x20 PUSH0 KECCAK256 SWAP1 JUMPDEST DUP2 SLOAD DUP2 MSTORE SWAP1 PUSH1 0x1 ADD SWAP1 PUSH1 0x20 ADD DUP1 DUP4 GT PUSH2 0x4AF JUMPI DUP3 SWAP1 SUB PUSH1 0x1F AND DUP3 ADD SWAP2 JUMPDEST POP POP POP POP POP SWAP1 DUP1 PUSH1 0x3 ADD SLOAD SWAP1 POP DUP5 JUMP JUMPDEST PUSH1 0x3 PUSH1 0x20 MSTORE DUP2 PUSH0 MSTORE PUSH1 0x40 PUSH0 KECCAK256 DUP2 DUP2 SLOAD DUP2 LT PUSH2 0x4F5 JUMPI PUSH0 DUP1 REVERT JUMPDEST SWAP1 PUSH0 MSTORE PUSH1 0x20 PUSH0 KECCAK256 SWAP1 PUSH1 0x4 MUL ADD PUSH0 SWAP2 POP SWAP2 POP POP DUP1 PUSH0 ADD SLOAD SWAP1 DUP1 PUSH1 0x1 ADD SLOAD SWAP1 DUP1 PUSH1 0x2 ADD DUP1 SLOAD PUSH2 0x521 SWAP1 PUSH2 0x2D07 JUMP JUMPDEST DUP1 PUSH1 0x1F ADD PUSH1 0x20 DUP1 SWAP2 DIV MUL PUSH1 0x20 ADD PUSH1 0x40 MLOAD SWAP1 DUP2 ADD PUSH1 0x40 MSTORE DUP1 SWAP3 SWAP2 SWAP1 DUP2 DUP2 MSTORE PUSH1 0x20 ADD DUP3 DUP1 SLOAD PUSH2 0x54D SWAP1 PUSH2 0x2D07 JUMP JUMPDEST DUP1 ISZERO PUSH2 0x598 JUMPI DUP1 PUSH1 0x1F LT PUSH2 0x56F JUMPI PUSH2 0x100 DUP1 DUP4 SLOAD DIV MUL DUP4 MSTORE SWAP2 PUSH1 0x20 ADD SWAP2 PUSH2 0x598 JUMP JUMPDEST DUP3 ADD SWAP2 SWAP1 PUSH0 MSTORE PUSH1 0x20 PUSH0 KECCAK256 SWAP1 JUMPDEST DUP2 SLOAD DUP2 MSTORE SWAP1 PUSH1 0x1 ADD SWAP1 PUSH1 0x20 ADD DUP1 DUP4 GT PUSH2 0x57B JUMPI DUP3 SWAP1 SUB PUSH1 0x1F AND DUP3 ADD SWAP2 JUMPDEST POP POP POP POP POP SWAP1 DUP1 PUSH1 0x3 ADD SLOAD SWAP1 POP DUP5 JUMP JUMPDEST PUSH1 0x40 MLOAD DUP1 PUSH1 0x40 ADD PUSH1 0x40 MSTORE DUP1 PUSH1 0x2 DUP1 DUP2 GT ISZERO PUSH2 0x5C6 JUMPI PUSH2 0x5C5 PUSH2 0x27CA JUMP JUMPDEST JUMPDEST DUP2 MSTORE PUSH1 0x20 ADD PUSH0 DUP2 MSTORE POP PUSH1 0x2 PUSH0 CALLER PUSH20 0xFFFFFFFFFFFFFFFFFFFFFFFFFFFFFFFFFFFFFFFF AND PUSH20 0xFFFFFFFFFFFFFFFFFFFFFFFFFFFFFFFFFFFFFFFF AND DUP2 MSTORE PUSH1 0x20 ADD SWAP1 DUP2 MSTORE PUSH1 0x20 ADD PUSH0 KECCAK256 PUSH0 DUP3 ADD MLOAD DUP2 PUSH0 ADD PUSH0 PUSH2 0x100 EXP DUP2 SLOAD DUP2 PUSH1 0xFF MUL NOT AND SWAP1 DUP4 PUSH1 0x2 DUP2 GT ISZERO PUSH2 0x634 JUMPI PUSH2 0x633 PUSH2 0x27CA JUMP JUMPDEST JUMPDEST MUL OR SWAP1 SSTORE POP PUSH1 0x20 DUP3 ADD MLOAD DUP2 PUSH1 0x1 ADD SSTORE SWAP1 POP POP JUMP JUMPDEST PUSH1 0x3 PUSH0 DUP4 PUSH20 0xFFFFFFFFFFFFFFFFFFFFFFFFFFFFFFFFFFFFFFFF AND PUSH20 0xFFFFFFFFFFFFFFFFFFFFFFFFFFFFFFFFFFFFFFFF AND DUP2 MSTORE PUSH1 0x20 ADD SWAP1 DUP2 MSTORE PUSH1 0x20 ADD PUSH0 KECCAK256 DUP2 DUP2 SLOAD DUP2 LT PUSH2 0x697 JUMPI PUSH2 0x696 PUSH2 0x2D37 JUMP JUMPDEST JUMPDEST SWAP1 PUSH0 MSTORE PUSH1 0x20 PUSH0 KECCAK256 SWAP1 PUSH1 0x4 MUL ADD PUSH1 0x3 ADD SLOAD PUSH1 0x3 PUSH0 CALLER PUSH20 0xFFFFFFFFFFFFFFFFFFFFFFFFFFFFFFFFFFFFFFFF AND PUSH20 0xFFFFFFFFFFFFFFFFFFFFFFFFFFFFFFFFFFFFFFFF AND DUP2 MSTORE PUSH1 0x20 ADD SWAP1 DUP2 MSTORE PUSH1 0x20 ADD PUSH0 KECCAK256 DUP3 DUP2 SLOAD DUP2 LT PUSH2 0x6F6 JUMPI PUSH2 0x6F5 PUSH2 0x2D37 JUMP JUMPDEST JUMPDEST SWAP1 PUSH0 MSTORE PUSH1 0x20 PUSH0 KECCAK256 SWAP1 PUSH1 0x4 MUL ADD PUSH1 0x3 ADD SLOAD GT PUSH2 0x70F JUMPI PUSH0 DUP1 REVERT JUMPDEST PUSH0 PUSH8 0xDE0B6B3A7640000 PUSH1 0x3 PUSH0 DUP6 PUSH20 0xFFFFFFFFFFFFFFFFFFFFFFFFFFFFFFFFFFFFFFFF AND PUSH20 0xFFFFFFFFFFFFFFFFFFFFFFFFFFFFFFFFFFFFFFFF AND DUP2 MSTORE PUSH1 0x20 ADD SWAP1 DUP2 MSTORE PUSH1 0x20 ADD PUSH0 KECCAK256 DUP4 DUP2 SLOAD DUP2 LT PUSH2 0x768 JUMPI PUSH2 0x767 PUSH2 0x2D37 JUMP JUMPDEST JUMPDEST SWAP1 PUSH0 MSTORE PUSH1 0x20 PUSH0 KECCAK256 SWAP1 PUSH1 0x4 MUL ADD PUSH1 0x1 ADD SLOAD PUSH1 0x3 PUSH0 CALLER PUSH20 0xFFFFFFFFFFFFFFFFFFFFFFFFFFFFFFFFFFFFFFFF AND PUSH20 0xFFFFFFFFFFFFFFFFFFFFFFFFFFFFFFFFFFFFFFFF AND DUP2 MSTORE PUSH1 0x20 ADD SWAP1 DUP2 MSTORE PUSH1 0x20 ADD PUSH0 KECCAK256 DUP5 DUP2 SLOAD DUP2 LT PUSH2 0x7C7 JUMPI PUSH2 0x7C6 PUSH2 0x2D37 JUMP JUMPDEST JUMPDEST SWAP1 PUSH0 MSTORE PUSH1 0x20 PUSH0 KECCAK256 SWAP1 PUSH1 0x4 MUL ADD PUSH0 ADD SLOAD PUSH2 0x7E0 SWAP2 SWAP1 PUSH2 0x2D91 JUMP JUMPDEST PUSH2 0x7EA SWAP2 SWAP1 PUSH2 0x2D91 JUMP JUMPDEST SWAP1 POP PUSH1 0x3 PUSH0 CALLER PUSH20 0xFFFFFFFFFFFFFFFFFFFFFFFFFFFFFFFFFFFFFFFF AND PUSH20 0xFFFFFFFFFFFFFFFFFFFFFFFFFFFFFFFFFFFFFFFF AND DUP2 MSTORE PUSH1 0x20 ADD SWAP1 DUP2 MSTORE PUSH1 0x20 ADD PUSH0 KECCAK256 DUP3 DUP2 SLOAD DUP2 LT PUSH2 0x83B JUMPI PUSH2 0x83A PUSH2 0x2D37 JUMP JUMPDEST JUMPDEST SWAP1 PUSH0 MSTORE PUSH1 0x20 PUSH0 KECCAK256 SWAP1 PUSH1 0x4 MUL ADD PUSH0 ADD SLOAD PUSH1 0x3 PUSH0 DUP6 PUSH20 0xFFFFFFFFFFFFFFFFFFFFFFFFFFFFFFFFFFFFFFFF AND PUSH20 0xFFFFFFFFFFFFFFFFFFFFFFFFFFFFFFFFFFFFFFFF AND DUP2 MSTORE PUSH1 0x20 ADD SWAP1 DUP2 MSTORE PUSH1 0x20 ADD PUSH0 KECCAK256 DUP4 DUP2 SLOAD DUP2 LT PUSH2 0x899 JUMPI PUSH2 0x898 PUSH2 0x2D37 JUMP JUMPDEST JUMPDEST SWAP1 PUSH0 MSTORE PUSH1 0x20 PUSH0 KECCAK256 SWAP1 PUSH1 0x4 MUL ADD PUSH0 ADD PUSH0 DUP3 DUP3 SLOAD PUSH2 0x8B5 SWAP2 SWAP1 PUSH2 0x2DD2 JUMP JUMPDEST SWAP3 POP POP DUP2 SWAP1 SSTORE POP PUSH1 0x3 PUSH0 CALLER PUSH20 0xFFFFFFFFFFFFFFFFFFFFFFFFFFFFFFFFFFFFFFFF AND PUSH20 0xFFFFFFFFFFFFFFFFFFFFFFFFFFFFFFFFFFFFFFFF AND DUP2 MSTORE PUSH1 0x20 ADD SWAP1 DUP2 MSTORE PUSH1 0x20 ADD PUSH0 KECCAK256 DUP3 DUP2 SLOAD DUP2 LT PUSH2 0x90B JUMPI PUSH2 0x90A PUSH2 0x2D37 JUMP JUMPDEST JUMPDEST SWAP1 PUSH0 MSTORE PUSH1 0x20 PUSH0 KECCAK256 SWAP1 PUSH1 0x4 MUL ADD PUSH0 DUP1 DUP3 ADD PUSH0 SWAP1 SSTORE PUSH1 0x1 DUP3 ADD PUSH0 SWAP1 SSTORE PUSH1 0x2 DUP3 ADD PUSH0 PUSH2 0x934 SWAP2 SWAP1 PUSH2 0x2579 JUMP JUMPDEST PUSH1 0x3 DUP3 ADD PUSH0 SWAP1 SSTORE POP POP DUP1 PUSH1 0x2 PUSH0 DUP6 PUSH20 0xFFFFFFFFFFFFFFFFFFFFFFFFFFFFFFFFFFFFFFFF AND PUSH20 0xFFFFFFFFFFFFFFFFFFFFFFFFFFFFFFFFFFFFFFFF AND DUP2 MSTORE PUSH1 0x20 ADD SWAP1 DUP2 MSTORE PUSH1 0x20 ADD PUSH0 KECCAK256 PUSH1 0x1 ADD PUSH0 DUP3 DUP3 SLOAD PUSH2 0x98C SWAP2 SWAP1 PUSH2 0x2E05 JUMP JUMPDEST SWAP3 POP POP DUP2 SWAP1 SSTORE POP CALLER PUSH20 0xFFFFFFFFFFFFFFFFFFFFFFFFFFFFFFFFFFFFFFFF AND PUSH2 0x8FC DUP3 SWAP1 DUP2 ISZERO MUL SWAP1 PUSH1 0x40 MLOAD PUSH0 PUSH1 0x40 MLOAD DUP1 DUP4 SUB DUP2 DUP6 DUP9 DUP9 CALL SWAP4 POP POP POP POP ISZERO DUP1 ISZERO PUSH2 0x9D6 JUMPI RETURNDATASIZE PUSH0 DUP1 RETURNDATACOPY RETURNDATASIZE PUSH0 REVERT JUMPDEST POP POP POP POP JUMP JUMPDEST PUSH0 DUP2 DUP2 SLOAD DUP2 LT PUSH2 0x9EA JUMPI PUSH0 DUP1 REVERT JUMPDEST SWAP1 PUSH0 MSTORE PUSH1 0x20 PUSH0 KECCAK256 ADD PUSH0 SWAP2 POP SWAP1 POP DUP1 PUSH0 ADD PUSH0 SWAP1 SLOAD SWAP1 PUSH2 0x100 EXP SWAP1 DIV PUSH20 0xFFFFFFFFFFFFFFFFFFFFFFFFFFFFFFFFFFFFFFFF AND SWAP1 DUP1 PUSH0 ADD PUSH1 0x14 SWAP1 SLOAD SWAP1 PUSH2 0x100 EXP SWAP1 DIV PUSH1 0xFF AND SWAP1 POP DUP3 JUMP JUMPDEST PUSH0 PUSH1 0x40 MLOAD DUP1 PUSH1 0x40 ADD PUSH1 0x40 MSTORE DUP1 CALLER PUSH20 0xFFFFFFFFFFFFFFFFFFFFFFFFFFFFFFFFFFFFFFFF AND DUP2 MSTORE PUSH1 0x20 ADD DUP4 PUSH1 0x2 DUP2 GT ISZERO PUSH2 0xA6C JUMPI PUSH2 0xA6B PUSH2 0x27CA JUMP JUMPDEST JUMPDEST DUP2 MSTORE POP SWAP1 DUP1 PUSH1 0x1 DUP2 SLOAD ADD DUP1 DUP3 SSTORE DUP1 SWAP2 POP POP PUSH1 0x1 SWAP1 SUB SWAP1 PUSH0 MSTORE PUSH1 0x20 PUSH0 KECCAK256 ADD PUSH0 SWAP1 SWAP2 SWAP1 SWAP2 SWAP1 SWAP2 POP PUSH0 DUP3 ADD MLOAD DUP2 PUSH0 ADD PUSH0 PUSH2 0x100 EXP DUP2 SLOAD DUP2 PUSH20 0xFFFFFFFFFFFFFFFFFFFFFFFFFFFFFFFFFFFFFFFF MUL NOT AND SWAP1 DUP4 PUSH20 0xFFFFFFFFFFFFFFFFFFFFFFFFFFFFFFFFFFFFFFFF AND MUL OR SWAP1 SSTORE POP PUSH1 0x20 DUP3 ADD MLOAD DUP2 PUSH0 ADD PUSH1 0x14 PUSH2 0x100 EXP DUP2 SLOAD DUP2 PUSH1 0xFF MUL NOT AND SWAP1 DUP4 PUSH1 0x2 DUP2 GT ISZERO PUSH2 0xAFF JUMPI PUSH2 0xAFE PUSH2 0x27CA JUMP JUMPDEST JUMPDEST MUL OR SWAP1 SSTORE POP POP POP POP JUMP JUMPDEST PUSH1 0x40 MLOAD DUP1 PUSH1 0x40 ADD PUSH1 0x40 MSTORE DUP1 PUSH1 0x1 PUSH1 0x2 DUP2 GT ISZERO PUSH2 0xB28 JUMPI PUSH2 0xB27 PUSH2 0x27CA JUMP JUMPDEST JUMPDEST DUP2 MSTORE PUSH1 0x20 ADD PUSH0 DUP2 MSTORE POP PUSH1 0x2 PUSH0 CALLER PUSH20 0xFFFFFFFFFFFFFFFFFFFFFFFFFFFFFFFFFFFFFFFF AND PUSH20 0xFFFFFFFFFFFFFFFFFFFFFFFFFFFFFFFFFFFFFFFF AND DUP2 MSTORE PUSH1 0x20 ADD SWAP1 DUP2 MSTORE PUSH1 0x20 ADD PUSH0 KECCAK256 PUSH0 DUP3 ADD MLOAD DUP2 PUSH0 ADD PUSH0 PUSH2 0x100 EXP DUP2 SLOAD DUP2 PUSH1 0xFF MUL NOT AND SWAP1 DUP4 PUSH1 0x2 DUP2 GT ISZERO PUSH2 0xB96 JUMPI PUSH2 0xB95 PUSH2 0x27CA JUMP JUMPDEST JUMPDEST MUL OR SWAP1 SSTORE POP PUSH1 0x20 DUP3 ADD MLOAD DUP2 PUSH1 0x1 ADD SSTORE SWAP1 POP POP JUMP JUMPDEST PUSH1 0x1 PUSH0 SWAP1 SLOAD SWAP1 PUSH2 0x100 EXP SWAP1 DIV PUSH20 0xFFFFFFFFFFFFFFFFFFFFFFFFFFFFFFFFFFFFFFFF AND PUSH20 0xFFFFFFFFFFFFFFFFFFFFFFFFFFFFFFFFFFFFFFFF AND CALLER PUSH20 0xFFFFFFFFFFFFFFFFFFFFFFFFFFFFFFFFFFFFFFFF AND EQ PUSH2 0xC02 JUMPI PUSH0 DUP1 REVERT JUMPDEST PUSH0 DUP1 DUP3 DUP2 SLOAD DUP2 LT PUSH2 0xC16 JUMPI PUSH2 0xC15 PUSH2 0x2D37 JUMP JUMPDEST JUMPDEST SWAP1 PUSH0 MSTORE PUSH1 0x20 PUSH0 KECCAK256 ADD PUSH0 ADD PUSH0 SWAP1 SLOAD SWAP1 PUSH2 0x100 EXP SWAP1 DIV PUSH20 0xFFFFFFFFFFFFFFFFFFFFFFFFFFFFFFFFFFFFFFFF AND SWAP1 POP PUSH0 DUP1 DUP4 DUP2 SLOAD DUP2 LT PUSH2 0xC56 JUMPI PUSH2 0xC55 PUSH2 0x2D37 JUMP JUMPDEST JUMPDEST SWAP1 PUSH0 MSTORE PUSH1 0x20 PUSH0 KECCAK256 ADD PUSH0 ADD PUSH1 0x14 SWAP1 SLOAD SWAP1 PUSH2 0x100 EXP SWAP1 DIV PUSH1 0xFF AND SWAP1 POP DUP1 PUSH1 0x2 PUSH0 DUP5 PUSH20 0xFFFFFFFFFFFFFFFFFFFFFFFFFFFFFFFFFFFFFFFF AND PUSH20 0xFFFFFFFFFFFFFFFFFFFFFFFFFFFFFFFFFFFFFFFF AND DUP2 MSTORE PUSH1 0x20 ADD SWAP1 DUP2 MSTORE PUSH1 0x20 ADD PUSH0 KECCAK256 PUSH0 ADD PUSH0 PUSH2 0x100 EXP DUP2 SLOAD DUP2 PUSH1 0xFF MUL NOT AND SWAP1 DUP4 PUSH1 0x2 DUP2 GT ISZERO PUSH2 0xCD1 JUMPI PUSH2 0xCD0 PUSH2 0x27CA JUMP JUMPDEST JUMPDEST MUL OR SWAP1 SSTORE POP PUSH1 0x5 PUSH0 CALLER PUSH20 0xFFFFFFFFFFFFFFFFFFFFFFFFFFFFFFFFFFFFFFFF AND PUSH20 0xFFFFFFFFFFFFFFFFFFFFFFFFFFFFFFFFFFFFFFFF AND DUP2 MSTORE PUSH1 0x20 ADD SWAP1 DUP2 MSTORE PUSH1 0x20 ADD PUSH0 KECCAK256 DUP2 PUSH1 0x2 DUP2 GT ISZERO PUSH2 0xD26 JUMPI PUSH2 0xD25 PUSH2 0x27CA JUMP JUMPDEST JUMPDEST DUP2 SLOAD DUP2 LT PUSH2 0xD37 JUMPI PUSH2 0xD36 PUSH2 0x2D37 JUMP JUMPDEST JUMPDEST SWAP1 PUSH0 MSTORE PUSH1 0x20 PUSH0 KECCAK256 SWAP1 PUSH1 0x4 MUL ADD PUSH1 0x3 PUSH0 CALLER PUSH20 0xFFFFFFFFFFFFFFFFFFFFFFFFFFFFFFFFFFFFFFFF AND PUSH20 0xFFFFFFFFFFFFFFFFFFFFFFFFFFFFFFFFFFFFFFFF AND DUP2 MSTORE PUSH1 0x20 ADD SWAP1 DUP2 MSTORE PUSH1 0x20 ADD PUSH0 KECCAK256 PUSH0 DUP2 SLOAD DUP2 LT PUSH2 0xD92 JUMPI PUSH2 0xD91 PUSH2 0x2D37 JUMP JUMPDEST JUMPDEST SWAP1 PUSH0 MSTORE PUSH1 0x20 PUSH0 KECCAK256 SWAP1 PUSH1 0x4 MUL ADD PUSH0 DUP3 ADD SLOAD DUP2 PUSH0 ADD SSTORE PUSH1 0x1 DUP3 ADD SLOAD DUP2 PUSH1 0x1 ADD SSTORE PUSH1 0x2 DUP3 ADD DUP2 PUSH1 0x2 ADD SWAP1 DUP2 PUSH2 0xDC4 SWAP2 SWAP1 PUSH2 0x2FEA JUMP JUMPDEST POP PUSH1 0x3 DUP3 ADD SLOAD DUP2 PUSH1 0x3 ADD SSTORE SWAP1 POP POP POP POP POP JUMP JUMPDEST PUSH0 DUP1 DUP1 DUP1 PUSH2 0xDE4 SWAP1 PUSH2 0x30CF JUMP JUMPDEST SWAP2 POP POP DUP3 TIMESTAMP CALLER DUP4 PUSH1 0x40 MLOAD PUSH1 0x20 ADD PUSH2 0xDFD SWAP4 SWAP3 SWAP2 SWAP1 PUSH2 0x317B JUMP JUMPDEST PUSH1 0x40 MLOAD PUSH1 0x20 DUP2 DUP4 SUB SUB DUP2 MSTORE SWAP1 PUSH1 0x40 MSTORE DUP1 MLOAD SWAP1 PUSH1 0x20 ADD KECCAK256 PUSH0 SHR PUSH2 0xE1F SWAP2 SWAP1 PUSH2 0x31E4 JUMP JUMPDEST SWAP2 POP POP SWAP2 SWAP1 POP JUMP JUMPDEST PUSH1 0x2 DUP2 DUP2 PUSH1 0x2 DUP2 GT ISZERO PUSH2 0xE3D JUMPI PUSH2 0xE3C PUSH2 0x27CA JUMP JUMPDEST JUMPDEST PUSH1 0x2 PUSH0 CALLER PUSH20 0xFFFFFFFFFFFFFFFFFFFFFFFFFFFFFFFFFFFFFFFF AND PUSH20 0xFFFFFFFFFFFFFFFFFFFFFFFFFFFFFFFFFFFFFFFF AND DUP2 MSTORE PUSH1 0x20 ADD SWAP1 DUP2 MSTORE PUSH1 0x20 ADD PUSH0 KECCAK256 PUSH0 ADD PUSH0 SWAP1 SLOAD SWAP1 PUSH2 0x100 EXP SWAP1 DIV PUSH1 0xFF AND PUSH1 0x2 DUP2 GT ISZERO PUSH2 0xE9B JUMPI PUSH2 0xE9A PUSH2 0x27CA JUMP JUMPDEST JUMPDEST EQ PUSH2 0xEDB JUMPI PUSH1 0x40 MLOAD PUSH32 0x8C379A000000000000000000000000000000000000000000000000000000000 DUP2 MSTORE PUSH1 0x4 ADD PUSH2 0xED2 SWAP1 PUSH2 0x32AA JUMP JUMPDEST PUSH1 0x40 MLOAD DUP1 SWAP2 SUB SWAP1 REVERT JUMPDEST DUP1 PUSH20 0xFFFFFFFFFFFFFFFFFFFFFFFFFFFFFFFFFFFFFFFF AND CALLER PUSH20 0xFFFFFFFFFFFFFFFFFFFFFFFFFFFFFFFFFFFFFFFF AND EQ PUSH2 0xF49 JUMPI PUSH1 0x40 MLOAD PUSH32 0x8C379A000000000000000000000000000000000000000000000000000000000 DUP2 MSTORE PUSH1 0x4 ADD PUSH2 0xF40 SWAP1 PUSH2 0x335E JUMP JUMPDEST PUSH1 0x40 MLOAD DUP1 SWAP2 SUB SWAP1 REVERT JUMPDEST PUSH0 PUSH1 0x40 MLOAD DUP1 PUSH1 0x80 ADD PUSH1 0x40 MSTORE DUP1 DUP11 DUP2 MSTORE PUSH1 0x20 ADD PUSH1 0x2 DUP11 PUSH2 0xF68 SWAP2 SWAP1 PUSH2 0x337C JUMP JUMPDEST DUP2 MSTORE PUSH1 0x20 ADD DUP9 DUP9 DUP1 DUP1 PUSH1 0x1F ADD PUSH1 0x20 DUP1 SWAP2 DIV MUL PUSH1 0x20 ADD PUSH1 0x40 MLOAD SWAP1 DUP2 ADD PUSH1 0x40 MSTORE DUP1 SWAP4 SWAP3 SWAP2 SWAP1 DUP2 DUP2 MSTORE PUSH1 0x20 ADD DUP4 DUP4 DUP1 DUP3 DUP5 CALLDATACOPY PUSH0 DUP2 DUP5 ADD MSTORE PUSH1 0x1F NOT PUSH1 0x1F DUP3 ADD AND SWAP1 POP DUP1 DUP4 ADD SWAP3 POP POP POP POP POP POP POP DUP2 MSTORE PUSH1 0x20 ADD DUP7 DUP2 MSTORE POP SWAP1 POP PUSH1 0x3 PUSH0 DUP6 PUSH20 0xFFFFFFFFFFFFFFFFFFFFFFFFFFFFFFFFFFFFFFFF AND PUSH20 0xFFFFFFFFFFFFFFFFFFFFFFFFFFFFFFFFFFFFFFFF AND DUP2 MSTORE PUSH1 0x20 ADD SWAP1 DUP2 MSTORE PUSH1 0x20 ADD PUSH0 KECCAK256 DUP2 SWAP1 DUP1 PUSH1 0x1 DUP2 SLOAD ADD DUP1 DUP3 SSTORE DUP1 SWAP2 POP POP PUSH1 0x1 SWAP1 SUB SWAP1 PUSH0 MSTORE PUSH1 0x20 PUSH0 KECCAK256 SWAP1 PUSH1 0x4 MUL ADD PUSH0 SWAP1 SWAP2 SWAP1 SWAP2 SWAP1 SWAP2 POP PUSH0 DUP3 ADD MLOAD DUP2 PUSH0 ADD SSTORE PUSH1 0x20 DUP3 ADD MLOAD DUP2 PUSH1 0x1 ADD SSTORE PUSH1 0x40 DUP3 ADD MLOAD DUP2 PUSH1 0x2 ADD SWAP1 DUP2 PUSH2 0x1047 SWAP2 SWAP1 PUSH2 0x33AC JUMP JUMPDEST POP PUSH1 0x60 DUP3 ADD MLOAD DUP2 PUSH1 0x3 ADD SSTORE POP POP POP POP POP POP POP POP POP POP POP JUMP JUMPDEST PUSH1 0x1 PUSH0 SWAP1 SLOAD SWAP1 PUSH2 0x100 EXP SWAP1 DIV PUSH20 0xFFFFFFFFFFFFFFFFFFFFFFFFFFFFFFFFFFFFFFFF AND DUP2 JUMP JUMPDEST PUSH0 PUSH1 0x2 DUP2 GT ISZERO PUSH2 0x1097 JUMPI PUSH2 0x1096 PUSH2 0x27CA JUMP JUMPDEST JUMPDEST PUSH1 0x2 PUSH0 CALLER PUSH20 0xFFFFFFFFFFFFFFFFFFFFFFFFFFFFFFFFFFFFFFFF AND PUSH20 0xFFFFFFFFFFFFFFFFFFFFFFFFFFFFFFFFFFFFFFFF AND DUP2 MSTORE PUSH1 0x20 ADD SWAP1 DUP2 MSTORE PUSH1 0x20 ADD PUSH0 KECCAK256 PUSH0 ADD PUSH0 SWAP1 SLOAD SWAP1 PUSH2 0x100 EXP SWAP1 DIV PUSH1 0xFF AND PUSH1 0x2 DUP2 GT ISZERO PUSH2 0x10F5 JUMPI PUSH2 0x10F4 PUSH2 0x27CA JUMP JUMPDEST JUMPDEST SUB PUSH2 0x1199 JUMPI PUSH1 0x40 MLOAD DUP1 PUSH1 0x40 ADD PUSH1 0x40 MSTORE DUP1 PUSH0 PUSH1 0x2 DUP2 GT ISZERO PUSH2 0x1118 JUMPI PUSH2 0x1117 PUSH2 0x27CA JUMP JUMPDEST JUMPDEST DUP2 MSTORE PUSH1 0x20 ADD PUSH0 DUP2 MSTORE POP PUSH1 0x2 PUSH0 CALLER PUSH20 0xFFFFFFFFFFFFFFFFFFFFFFFFFFFFFFFFFFFFFFFF AND PUSH20 0xFFFFFFFFFFFFFFFFFFFFFFFFFFFFFFFFFFFFFFFF AND DUP2 MSTORE PUSH1 0x20 ADD SWAP1 DUP2 MSTORE PUSH1 0x20 ADD PUSH0 KECCAK256 PUSH0 DUP3 ADD MLOAD DUP2 PUSH0 ADD PUSH0 PUSH2 0x100 EXP DUP2 SLOAD DUP2 PUSH1 0xFF MUL NOT AND SWAP1 DUP4 PUSH1 0x2 DUP2 GT ISZERO PUSH2 0x1186 JUMPI PUSH2 0x1185 PUSH2 0x27CA JUMP JUMPDEST JUMPDEST MUL OR SWAP1 SSTORE POP PUSH1 0x20 DUP3 ADD MLOAD DUP2 PUSH1 0x1 ADD SSTORE SWAP1 POP POP JUMPDEST PUSH0 DUP4 GT PUSH2 0x11DB JUMPI PUSH1 0x40 MLOAD PUSH32 0x8C379A000000000000000000000000000000000000000000000000000000000 DUP2 MSTORE PUSH1 0x4 ADD PUSH2 0x11D2 SWAP1 PUSH2 0x34EB JUMP JUMPDEST PUSH1 0x40 MLOAD DUP1 SWAP2 SUB SWAP1 REVERT JUMPDEST PUSH1 0x3 PUSH0 DUP6 PUSH20 0xFFFFFFFFFFFFFFFFFFFFFFFFFFFFFFFFFFFFFFFF AND PUSH20 0xFFFFFFFFFFFFFFFFFFFFFFFFFFFFFFFFFFFFFFFF AND DUP2 MSTORE PUSH1 0x20 ADD SWAP1 DUP2 MSTORE PUSH1 0x20 ADD PUSH0 KECCAK256 DUP1 SLOAD SWAP1 POP DUP3 LT PUSH2 0x125D JUMPI PUSH1 0x40 MLOAD PUSH32 0x8C379A000000000000000000000000000000000000000000000000000000000 DUP2 MSTORE PUSH1 0x4 ADD PUSH2 0x1254 SWAP1 PUSH2 0x3553 JUMP JUMPDEST PUSH1 0x40 MLOAD DUP1 SWAP2 SUB SWAP1 REVERT JUMPDEST PUSH1 0x3 PUSH0 DUP6 PUSH20 0xFFFFFFFFFFFFFFFFFFFFFFFFFFFFFFFFFFFFFFFF AND PUSH20 0xFFFFFFFFFFFFFFFFFFFFFFFFFFFFFFFFFFFFFFFF AND DUP2 MSTORE PUSH1 0x20 ADD SWAP1 DUP2 MSTORE PUSH1 0x20 ADD PUSH0 KECCAK256 DUP3 DUP2 SLOAD DUP2 LT PUSH2 0x12AC JUMPI PUSH2 0x12AB PUSH2 0x2D37 JUMP JUMPDEST JUMPDEST SWAP1 PUSH0 MSTORE PUSH1 0x20 PUSH0 KECCAK256 SWAP1 PUSH1 0x4 MUL ADD PUSH0 ADD SLOAD DUP4 GT ISZERO PUSH2 0x12FD JUMPI PUSH1 0x40 MLOAD PUSH32 0x8C379A000000000000000000000000000000000000000000000000000000000 DUP2 MSTORE PUSH1 0x4 ADD PUSH2 0x12F4 SWAP1 PUSH2 0x35BB JUMP JUMPDEST PUSH1 0x40 MLOAD DUP1 SWAP2 SUB SWAP1 REVERT JUMPDEST PUSH0 PUSH8 0xDE0B6B3A7640000 PUSH1 0x3 PUSH0 DUP8 PUSH20 0xFFFFFFFFFFFFFFFFFFFFFFFFFFFFFFFFFFFFFFFF AND PUSH20 0xFFFFFFFFFFFFFFFFFFFFFFFFFFFFFFFFFFFFFFFF AND DUP2 MSTORE PUSH1 0x20 ADD SWAP1 DUP2 MSTORE PUSH1 0x20 ADD PUSH0 KECCAK256 DUP5 DUP2 SLOAD DUP2 LT PUSH2 0x1356 JUMPI PUSH2 0x1355 PUSH2 0x2D37 JUMP JUMPDEST JUMPDEST SWAP1 PUSH0 MSTORE PUSH1 0x20 PUSH0 KECCAK256 SWAP1 PUSH1 0x4 MUL ADD PUSH1 0x1 ADD SLOAD DUP6 PUSH2 0x1371 SWAP2 SWAP1 PUSH2 0x2D91 JUMP JUMPDEST PUSH2 0x137B SWAP2 SWAP1 PUSH2 0x2D91 JUMP JUMPDEST SWAP1 POP CALLER PUSH20 0xFFFFFFFFFFFFFFFFFFFFFFFFFFFFFFFFFFFFFFFF AND PUSH1 0x4 DUP4 PUSH1 0x40 MLOAD PUSH2 0x13A4 SWAP2 SWAP1 PUSH2 0x3613 JUMP JUMPDEST SWAP1 DUP2 MSTORE PUSH1 0x20 ADD PUSH1 0x40 MLOAD DUP1 SWAP2 SUB SWAP1 KECCAK256 PUSH0 SWAP1 SLOAD SWAP1 PUSH2 0x100 EXP SWAP1 DIV PUSH20 0xFFFFFFFFFFFFFFFFFFFFFFFFFFFFFFFFFFFFFFFF AND PUSH20 0xFFFFFFFFFFFFFFFFFFFFFFFFFFFFFFFFFFFFFFFF AND SUB PUSH2 0x1465 JUMPI PUSH1 0x64 PUSH1 0x5A DUP3 PUSH2 0x13FC SWAP2 SWAP1 PUSH2 0x2D91 JUMP JUMPDEST PUSH2 0x1406 SWAP2 SWAP1 PUSH2 0x337C JUMP JUMPDEST SWAP1 POP PUSH0 PUSH1 0x4 DUP4 PUSH1 0x40 MLOAD PUSH2 0x1419 SWAP2 SWAP1 PUSH2 0x3613 JUMP JUMPDEST SWAP1 DUP2 MSTORE PUSH1 0x20 ADD PUSH1 0x40 MLOAD DUP1 SWAP2 SUB SWAP1 KECCAK256 PUSH0 PUSH2 0x100 EXP DUP2 SLOAD DUP2 PUSH20 0xFFFFFFFFFFFFFFFFFFFFFFFFFFFFFFFFFFFFFFFF MUL NOT AND SWAP1 DUP4 PUSH20 0xFFFFFFFFFFFFFFFFFFFFFFFFFFFFFFFFFFFFFFFF AND MUL OR SWAP1 SSTORE POP JUMPDEST DUP1 CALLVALUE LT ISZERO PUSH2 0x14A8 JUMPI PUSH1 0x40 MLOAD PUSH32 0x8C379A000000000000000000000000000000000000000000000000000000000 DUP2 MSTORE PUSH1 0x4 ADD PUSH2 0x149F SWAP1 PUSH2 0x3673 JUMP JUMPDEST PUSH1 0x40 MLOAD DUP1 SWAP2 SUB SWAP1 REVERT JUMPDEST PUSH0 DUP1 JUMPDEST PUSH1 0x3 PUSH0 CALLER PUSH20 0xFFFFFFFFFFFFFFFFFFFFFFFFFFFFFFFFFFFFFFFF AND PUSH20 0xFFFFFFFFFFFFFFFFFFFFFFFFFFFFFFFFFFFFFFFF AND DUP2 MSTORE PUSH1 0x20 ADD SWAP1 DUP2 MSTORE PUSH1 0x20 ADD PUSH0 KECCAK256 DUP1 SLOAD SWAP1 POP DUP2 LT ISZERO PUSH2 0x166D JUMPI PUSH1 0x3 PUSH0 DUP9 PUSH20 0xFFFFFFFFFFFFFFFFFFFFFFFFFFFFFFFFFFFFFFFF AND PUSH20 0xFFFFFFFFFFFFFFFFFFFFFFFFFFFFFFFFFFFFFFFF AND DUP2 MSTORE PUSH1 0x20 ADD SWAP1 DUP2 MSTORE PUSH1 0x20 ADD PUSH0 KECCAK256 DUP6 DUP2 SLOAD DUP2 LT PUSH2 0x1542 JUMPI PUSH2 0x1541 PUSH2 0x2D37 JUMP JUMPDEST JUMPDEST SWAP1 PUSH0 MSTORE PUSH1 0x20 PUSH0 KECCAK256 SWAP1 PUSH1 0x4 MUL ADD PUSH1 0x2 ADD PUSH1 0x40 MLOAD PUSH2 0x155E SWAP2 SWAP1 PUSH2 0x372D JUMP JUMPDEST PUSH1 0x40 MLOAD DUP1 SWAP2 SUB SWAP1 KECCAK256 PUSH1 0x3 PUSH0 CALLER PUSH20 0xFFFFFFFFFFFFFFFFFFFFFFFFFFFFFFFFFFFFFFFF AND PUSH20 0xFFFFFFFFFFFFFFFFFFFFFFFFFFFFFFFFFFFFFFFF AND DUP2 MSTORE PUSH1 0x20 ADD SWAP1 DUP2 MSTORE PUSH1 0x20 ADD PUSH0 KECCAK256 DUP3 DUP2 SLOAD DUP2 LT PUSH2 0x15B5 JUMPI PUSH2 0x15B4 PUSH2 0x2D37 JUMP JUMPDEST JUMPDEST SWAP1 PUSH0 MSTORE PUSH1 0x20 PUSH0 KECCAK256 SWAP1 PUSH1 0x4 MUL ADD PUSH1 0x2 ADD PUSH1 0x40 MLOAD PUSH2 0x15D1 SWAP2 SWAP1 PUSH2 0x372D JUMP JUMPDEST PUSH1 0x40 MLOAD DUP1 SWAP2 SUB SWAP1 KECCAK256 SUB PUSH2 0x165A JUMPI DUP6 PUSH1 0x3 PUSH0 CALLER PUSH20 0xFFFFFFFFFFFFFFFFFFFFFFFFFFFFFFFFFFFFFFFF AND PUSH20 0xFFFFFFFFFFFFFFFFFFFFFFFFFFFFFFFFFFFFFFFF AND DUP2 MSTORE PUSH1 0x20 ADD SWAP1 DUP2 MSTORE PUSH1 0x20 ADD PUSH0 KECCAK256 DUP3 DUP2 SLOAD DUP2 LT PUSH2 0x162E JUMPI PUSH2 0x162D PUSH2 0x2D37 JUMP JUMPDEST JUMPDEST SWAP1 PUSH0 MSTORE PUSH1 0x20 PUSH0 KECCAK256 SWAP1 PUSH1 0x4 MUL ADD PUSH0 ADD PUSH0 DUP3 DUP3 SLOAD PUSH2 0x164A SWAP2 SWAP1 PUSH2 0x2DD2 JUMP JUMPDEST SWAP3 POP POP DUP2 SWAP1 SSTORE POP PUSH1 0x1 SWAP2 POP PUSH2 0x166D JUMP JUMPDEST DUP1 DUP1 PUSH2 0x1665 SWAP1 PUSH2 0x30CF JUMP JUMPDEST SWAP2 POP POP PUSH2 0x14AB JUMP JUMPDEST POP DUP1 PUSH2 0x187D JUMPI PUSH0 PUSH1 0x40 MLOAD DUP1 PUSH1 0x80 ADD PUSH1 0x40 MSTORE DUP1 DUP8 DUP2 MSTORE PUSH1 0x20 ADD PUSH1 0x3 PUSH0 DUP11 PUSH20 0xFFFFFFFFFFFFFFFFFFFFFFFFFFFFFFFFFFFFFFFF AND PUSH20 0xFFFFFFFFFFFFFFFFFFFFFFFFFFFFFFFFFFFFFFFF AND DUP2 MSTORE PUSH1 0x20 ADD SWAP1 DUP2 MSTORE PUSH1 0x20 ADD PUSH0 KECCAK256 DUP8 DUP2 SLOAD DUP2 LT PUSH2 0x16D4 JUMPI PUSH2 0x16D3 PUSH2 0x2D37 JUMP JUMPDEST JUMPDEST SWAP1 PUSH0 MSTORE PUSH1 0x20 PUSH0 KECCAK256 SWAP1 PUSH1 0x4 MUL ADD PUSH1 0x1 ADD SLOAD DUP2 MSTORE PUSH1 0x20 ADD PUSH1 0x3 PUSH0 DUP11 PUSH20 0xFFFFFFFFFFFFFFFFFFFFFFFFFFFFFFFFFFFFFFFF AND PUSH20 0xFFFFFFFFFFFFFFFFFFFFFFFFFFFFFFFFFFFFFFFF AND DUP2 MSTORE PUSH1 0x20 ADD SWAP1 DUP2 MSTORE PUSH1 0x20 ADD PUSH0 KECCAK256 DUP8 DUP2 SLOAD DUP2 LT PUSH2 0x1738 JUMPI PUSH2 0x1737 PUSH2 0x2D37 JUMP JUMPDEST JUMPDEST SWAP1 PUSH0 MSTORE PUSH1 0x20 PUSH0 KECCAK256 SWAP1 PUSH1 0x4 MUL ADD PUSH1 0x2 ADD DUP1 SLOAD PUSH2 0x1752 SWAP1 PUSH2 0x2D07 JUMP JUMPDEST DUP1 PUSH1 0x1F ADD PUSH1 0x20 DUP1 SWAP2 DIV MUL PUSH1 0x20 ADD PUSH1 0x40 MLOAD SWAP1 DUP2 ADD PUSH1 0x40 MSTORE DUP1 SWAP3 SWAP2 SWAP1 DUP2 DUP2 MSTORE PUSH1 0x20 ADD DUP3 DUP1 SLOAD PUSH2 0x177E SWAP1 PUSH2 0x2D07 JUMP JUMPDEST DUP1 ISZERO PUSH2 0x17C9 JUMPI DUP1 PUSH1 0x1F LT PUSH2 0x17A0 JUMPI PUSH2 0x100 DUP1 DUP4 SLOAD DIV MUL DUP4 MSTORE SWAP2 PUSH1 0x20 ADD SWAP2 PUSH2 0x17C9 JUMP JUMPDEST DUP3 ADD SWAP2 SWAP1 PUSH0 MSTORE PUSH1 0x20 PUSH0 KECCAK256 SWAP1 JUMPDEST DUP2 SLOAD DUP2 MSTORE SWAP1 PUSH1 0x1 ADD SWAP1 PUSH1 0x20 ADD DUP1 DUP4 GT PUSH2 0x17AC JUMPI DUP3 SWAP1 SUB PUSH1 0x1F AND DUP3 ADD SWAP2 JUMPDEST POP POP POP POP POP DUP2 MSTORE PUSH1 0x20 ADD PUSH2 0x17DE PUSH2 0x3E8 PUSH2 0xDD7 JUMP JUMPDEST DUP2 MSTORE POP SWAP1 POP PUSH1 0x3 PUSH0 CALLER PUSH20 0xFFFFFFFFFFFFFFFFFFFFFFFFFFFFFFFFFFFFFFFF AND PUSH20 0xFFFFFFFFFFFFFFFFFFFFFFFFFFFFFFFFFFFFFFFF AND DUP2 MSTORE PUSH1 0x20 ADD SWAP1 DUP2 MSTORE PUSH1 0x20 ADD PUSH0 KECCAK256 DUP2 SWAP1 DUP1 PUSH1 0x1 DUP2 SLOAD ADD DUP1 DUP3 SSTORE DUP1 SWAP2 POP POP PUSH1 0x1 SWAP1 SUB SWAP1 PUSH0 MSTORE PUSH1 0x20 PUSH0 KECCAK256 SWAP1 PUSH1 0x4 MUL ADD PUSH0 SWAP1 SWAP2 SWAP1 SWAP2 SWAP1 SWAP2 POP PUSH0 DUP3 ADD MLOAD DUP2 PUSH0 ADD SSTORE PUSH1 0x20 DUP3 ADD MLOAD DUP2 PUSH1 0x1 ADD SSTORE PUSH1 0x40 DUP3 ADD MLOAD DUP2 PUSH1 0x2 ADD SWAP1 DUP2 PUSH2 0x186E SWAP2 SWAP1 PUSH2 0x33AC JUMP JUMPDEST POP PUSH1 0x60 DUP3 ADD MLOAD DUP2 PUSH1 0x3 ADD SSTORE POP POP POP JUMPDEST DUP5 PUSH1 0x3 PUSH0 DUP9 PUSH20 0xFFFFFFFFFFFFFFFFFFFFFFFFFFFFFFFFFFFFFFFF AND PUSH20 0xFFFFFFFFFFFFFFFFFFFFFFFFFFFFFFFFFFFFFFFF AND DUP2 MSTORE PUSH1 0x20 ADD SWAP1 DUP2 MSTORE PUSH1 0x20 ADD PUSH0 KECCAK256 DUP6 DUP2 SLOAD DUP2 LT PUSH2 0x18CD JUMPI PUSH2 0x18CC PUSH2 0x2D37 JUMP JUMPDEST JUMPDEST SWAP1 PUSH0 MSTORE PUSH1 0x20 PUSH0 KECCAK256 SWAP1 PUSH1 0x4 MUL ADD PUSH0 ADD PUSH0 DUP3 DUP3 SLOAD PUSH2 0x18E9 SWAP2 SWAP1 PUSH2 0x2E05 JUMP JUMPDEST SWAP3 POP POP DUP2 SWAP1 SSTORE POP DUP2 PUSH1 0x2 PUSH0 DUP9 PUSH20 0xFFFFFFFFFFFFFFFFFFFFFFFFFFFFFFFFFFFFFFFF AND PUSH20 0xFFFFFFFFFFFFFFFFFFFFFFFFFFFFFFFFFFFFFFFF AND DUP2 MSTORE PUSH1 0x20 ADD SWAP1 DUP2 MSTORE PUSH1 0x20 ADD PUSH0 KECCAK256 PUSH1 0x1 ADD DUP2 SWAP1 SSTORE POP DUP2 CALLVALUE GT ISZERO PUSH2 0x198D JUMPI CALLER PUSH20 0xFFFFFFFFFFFFFFFFFFFFFFFFFFFFFFFFFFFFFFFF AND PUSH2 0x8FC DUP4 CALLVALUE PUSH2 0x1963 SWAP2 SWAP1 PUSH2 0x2E05 JUMP JUMPDEST SWAP1 DUP2 ISZERO MUL SWAP1 PUSH1 0x40 MLOAD PUSH0 PUSH1 0x40 MLOAD DUP1 DUP4 SUB DUP2 DUP6 DUP9 DUP9 CALL SWAP4 POP POP POP POP ISZERO DUP1 ISZERO PUSH2 0x198B JUMPI RETURNDATASIZE PUSH0 DUP1 RETURNDATACOPY RETURNDATASIZE PUSH0 REVERT JUMPDEST POP JUMPDEST POP POP POP POP POP POP JUMP JUMPDEST DUP1 PUSH20 0xFFFFFFFFFFFFFFFFFFFFFFFFFFFFFFFFFFFFFFFF AND CALLER PUSH20 0xFFFFFFFFFFFFFFFFFFFFFFFFFFFFFFFFFFFFFFFF AND SUB PUSH2 0x19CC JUMPI PUSH0 DUP1 REVERT JUMPDEST DUP1 PUSH1 0x4 DUP4 PUSH1 0x40 MLOAD PUSH2 0x19DD SWAP2 SWAP1 PUSH2 0x3613 JUMP JUMPDEST SWAP1 DUP2 MSTORE PUSH1 0x20 ADD PUSH1 0x40 MLOAD DUP1 SWAP2 SUB SWAP1 KECCAK256 PUSH0 PUSH2 0x100 EXP DUP2 SLOAD DUP2 PUSH20 0xFFFFFFFFFFFFFFFFFFFFFFFFFFFFFFFFFFFFFFFF MUL NOT AND SWAP1 DUP4 PUSH20 0xFFFFFFFFFFFFFFFFFFFFFFFFFFFFFFFFFFFFFFFF AND MUL OR SWAP1 SSTORE POP POP POP JUMP JUMPDEST PUSH1 0x2 PUSH1 0x20 MSTORE DUP1 PUSH0 MSTORE PUSH1 0x40 PUSH0 KECCAK256 PUSH0 SWAP2 POP SWAP1 POP DUP1 PUSH0 ADD PUSH0 SWAP1 SLOAD SWAP1 PUSH2 0x100 EXP SWAP1 DIV PUSH1 0xFF AND SWAP1 DUP1 PUSH1 0x1 ADD SLOAD SWAP1 POP DUP3 JUMP JUMPDEST PUSH1 0x40 MLOAD DUP1 PUSH1 0x40 ADD PUSH1 0x40 MSTORE DUP1 PUSH0 PUSH1 0x2 DUP2 GT ISZERO PUSH2 0x1A76 JUMPI PUSH2 0x1A75 PUSH2 0x27CA JUMP JUMPDEST JUMPDEST DUP2 MSTORE PUSH1 0x20 ADD PUSH0 DUP2 MSTORE POP PUSH1 0x2 PUSH0 CALLER PUSH20 0xFFFFFFFFFFFFFFFFFFFFFFFFFFFFFFFFFFFFFFFF AND PUSH20 0xFFFFFFFFFFFFFFFFFFFFFFFFFFFFFFFFFFFFFFFF AND DUP2 MSTORE PUSH1 0x20 ADD SWAP1 DUP2 MSTORE PUSH1 0x20 ADD PUSH0 KECCAK256 PUSH0 DUP3 ADD MLOAD DUP2 PUSH0 ADD PUSH0 PUSH2 0x100 EXP DUP2 SLOAD DUP2 PUSH1 0xFF MUL NOT AND SWAP1 DUP4 PUSH1 0x2 DUP2 GT ISZERO PUSH2 0x1AE4 JUMPI PUSH2 0x1AE3 PUSH2 0x27CA JUMP JUMPDEST JUMPDEST MUL OR SWAP1 SSTORE POP PUSH1 0x20 DUP3 ADD MLOAD DUP2 PUSH1 0x1 ADD SSTORE SWAP1 POP POP PUSH1 0x5 PUSH0 CALLER PUSH20 0xFFFFFFFFFFFFFFFFFFFFFFFFFFFFFFFFFFFFFFFF AND PUSH20 0xFFFFFFFFFFFFFFFFFFFFFFFFFFFFFFFFFFFFFFFF AND DUP2 MSTORE PUSH1 0x20 ADD SWAP1 DUP2 MSTORE PUSH1 0x20 ADD PUSH0 KECCAK256 PUSH1 0x40 MLOAD DUP1 PUSH1 0x80 ADD PUSH1 0x40 MSTORE DUP1 PUSH1 0xD DUP2 MSTORE PUSH1 0x20 ADD PUSH0 DUP2 MSTORE PUSH1 0x20 ADD PUSH1 0x40 MLOAD DUP1 PUSH1 0x40 ADD PUSH1 0x40 MSTORE DUP1 PUSH1 0x1 DUP2 MSTORE PUSH1 0x20 ADD PUSH32 0x2000000000000000000000000000000000000000000000000000000000000000 DUP2 MSTORE POP DUP2 MSTORE PUSH1 0x20 ADD PUSH0 DUP2 MSTORE POP SWAP1 DUP1 PUSH1 0x1 DUP2 SLOAD ADD DUP1 DUP3 SSTORE DUP1 SWAP2 POP POP PUSH1 0x1 SWAP1 SUB SWAP1 PUSH0 MSTORE PUSH1 0x20 PUSH0 KECCAK256 SWAP1 PUSH1 0x4 MUL ADD PUSH0 SWAP1 SWAP2 SWAP1 SWAP2 SWAP1 SWAP2 POP PUSH0 DUP3 ADD MLOAD DUP2 PUSH0 ADD SSTORE PUSH1 0x20 DUP3 ADD MLOAD DUP2 PUSH1 0x1 ADD SSTORE PUSH1 0x40 DUP3 ADD MLOAD DUP2 PUSH1 0x2 ADD SWAP1 DUP2 PUSH2 0x1BD7 SWAP2 SWAP1 PUSH2 0x33AC JUMP JUMPDEST POP PUSH1 0x60 DUP3 ADD MLOAD DUP2 PUSH1 0x3 ADD SSTORE POP POP PUSH1 0x5 PUSH0 CALLER PUSH20 0xFFFFFFFFFFFFFFFFFFFFFFFFFFFFFFFFFFFFFFFF AND PUSH20 0xFFFFFFFFFFFFFFFFFFFFFFFFFFFFFFFFFFFFFFFF AND DUP2 MSTORE PUSH1 0x20 ADD SWAP1 DUP2 MSTORE PUSH1 0x20 ADD PUSH0 KECCAK256 PUSH1 0x40 MLOAD DUP1 PUSH1 0x80 ADD PUSH1 0x40 MSTORE DUP1 PUSH1 0x1C DUP2 MSTORE PUSH1 0x20 ADD PUSH0 DUP2 MSTORE PUSH1 0x20 ADD PUSH1 0x40 MLOAD DUP1 PUSH1 0x40 ADD PUSH1 0x40 MSTORE DUP1 PUSH1 0x1 DUP2 MSTORE PUSH1 0x20 ADD PUSH32 0x2000000000000000000000000000000000000000000000000000000000000000 DUP2 MSTORE POP DUP2 MSTORE PUSH1 0x20 ADD PUSH0 DUP2 MSTORE POP SWAP1 DUP1 PUSH1 0x1 DUP2 SLOAD ADD DUP1 DUP3 SSTORE DUP1 SWAP2 POP POP PUSH1 0x1 SWAP1 SUB SWAP1 PUSH0 MSTORE PUSH1 0x20 PUSH0 KECCAK256 SWAP1 PUSH1 0x4 MUL ADD PUSH0 SWAP1 SWAP2 SWAP1 SWAP2 SWAP1 SWAP2 POP PUSH0 DUP3 ADD MLOAD DUP2 PUSH0 ADD SSTORE PUSH1 0x20 DUP3 ADD MLOAD DUP2 PUSH1 0x1 ADD SSTORE PUSH1 0x40 DUP3 ADD MLOAD DUP2 PUSH1 0x2 ADD SWAP1 DUP2 PUSH2 0x1CC5 SWAP2 SWAP1 PUSH2 0x33AC JUMP JUMPDEST POP PUSH1 0x60 DUP3 ADD MLOAD DUP2 PUSH1 0x3 ADD SSTORE POP POP PUSH1 0x5 PUSH0 CALLER PUSH20 0xFFFFFFFFFFFFFFFFFFFFFFFFFFFFFFFFFFFFFFFF AND PUSH20 0xFFFFFFFFFFFFFFFFFFFFFFFFFFFFFFFFFFFFFFFF AND DUP2 MSTORE PUSH1 0x20 ADD SWAP1 DUP2 MSTORE PUSH1 0x20 ADD PUSH0 KECCAK256 PUSH1 0x40 MLOAD DUP1 PUSH1 0x80 ADD PUSH1 0x40 MSTORE DUP1 PUSH1 0x34 DUP2 MSTORE PUSH1 0x20 ADD PUSH0 DUP2 MSTORE PUSH1 0x20 ADD PUSH1 0x40 MLOAD DUP1 PUSH1 0x40 ADD PUSH1 0x40 MSTORE DUP1 PUSH1 0x1 DUP2 MSTORE PUSH1 0x20 ADD PUSH32 0x2000000000000000000000000000000000000000000000000000000000000000 DUP2 MSTORE POP DUP2 MSTORE PUSH1 0x20 ADD PUSH0 DUP2 MSTORE POP SWAP1 DUP1 PUSH1 0x1 DUP2 SLOAD ADD DUP1 DUP3 SSTORE DUP1 SWAP2 POP POP PUSH1 0x1 SWAP1 SUB SWAP1 PUSH0 MSTORE PUSH1 0x20 PUSH0 KECCAK256 SWAP1 PUSH1 0x4 MUL ADD PUSH0 SWAP1 SWAP2 SWAP1 SWAP2 SWAP1 SWAP2 POP PUSH0 DUP3 ADD MLOAD DUP2 PUSH0 ADD SSTORE PUSH1 0x20 DUP3 ADD MLOAD DUP2 PUSH1 0x1 ADD SSTORE PUSH1 0x40 DUP3 ADD MLOAD DUP2 PUSH1 0x2 ADD SWAP1 DUP2 PUSH2 0x1DB3 SWAP2 SWAP1 PUSH2 0x33AC JUMP JUMPDEST POP PUSH1 0x60 DUP3 ADD MLOAD DUP2 PUSH1 0x3 ADD SSTORE POP POP JUMP JUMPDEST PUSH1 0x4 DUP2 DUP1 MLOAD PUSH1 0x20 DUP2 ADD DUP3 ADD DUP1 MLOAD DUP5 DUP3 MSTORE PUSH1 0x20 DUP4 ADD PUSH1 0x20 DUP6 ADD KECCAK256 DUP2 DUP4 MSTORE DUP1 SWAP6 POP POP POP POP POP POP PUSH0 SWAP2 POP SLOAD SWAP1 PUSH2 0x100 EXP SWAP1 DIV PUSH20 0xFFFFFFFFFFFFFFFFFFFFFFFFFFFFFFFFFFFFFFFF AND DUP2 JUMP JUMPDEST DUP1 PUSH20 0xFFFFFFFFFFFFFFFFFFFFFFFFFFFFFFFFFFFFFFFF AND PUSH2 0x8FC PUSH1 0x2 PUSH0 DUP5 PUSH20 0xFFFFFFFFFFFFFFFFFFFFFFFFFFFFFFFFFFFFFFFF AND PUSH20 0xFFFFFFFFFFFFFFFFFFFFFFFFFFFFFFFFFFFFFFFF AND DUP2 MSTORE PUSH1 0x20 ADD SWAP1 DUP2 MSTORE PUSH1 0x20 ADD PUSH0 KECCAK256 PUSH1 0x1 ADD SLOAD SWAP1 DUP2 ISZERO MUL SWAP1 PUSH1 0x40 MLOAD PUSH0 PUSH1 0x40 MLOAD DUP1 DUP4 SUB DUP2 DUP6 DUP9 DUP9 CALL SWAP4 POP POP POP POP ISZERO DUP1 ISZERO PUSH2 0x1E8D JUMPI RETURNDATASIZE PUSH0 DUP1 RETURNDATACOPY RETURNDATASIZE PUSH0 REVERT JUMPDEST POP POP JUMP JUMPDEST PUSH1 0x1 DUP5 DUP2 PUSH1 0x2 DUP2 GT ISZERO PUSH2 0x1EA7 JUMPI PUSH2 0x1EA6 PUSH2 0x27CA JUMP JUMPDEST JUMPDEST PUSH1 0x2 PUSH0 CALLER PUSH20 0xFFFFFFFFFFFFFFFFFFFFFFFFFFFFFFFFFFFFFFFF AND PUSH20 0xFFFFFFFFFFFFFFFFFFFFFFFFFFFFFFFFFFFFFFFF AND DUP2 MSTORE PUSH1 0x20 ADD SWAP1 DUP2 MSTORE PUSH1 0x20 ADD PUSH0 KECCAK256 PUSH0 ADD PUSH0 SWAP1 SLOAD SWAP1 PUSH2 0x100 EXP SWAP1 DIV PUSH1 0xFF AND PUSH1 0x2 DUP2 GT ISZERO PUSH2 0x1F05 JUMPI PUSH2 0x1F04 PUSH2 0x27CA JUMP JUMPDEST JUMPDEST EQ PUSH2 0x1F45 JUMPI PUSH1 0x40 MLOAD PUSH32 0x8C379A000000000000000000000000000000000000000000000000000000000 DUP2 MSTORE PUSH1 0x4 ADD PUSH2 0x1F3C SWAP1 PUSH2 0x32AA JUMP JUMPDEST PUSH1 0x40 MLOAD DUP1 SWAP2 SUB SWAP1 REVERT JUMPDEST DUP1 PUSH20 0xFFFFFFFFFFFFFFFFFFFFFFFFFFFFFFFFFFFFFFFF AND CALLER PUSH20 0xFFFFFFFFFFFFFFFFFFFFFFFFFFFFFFFFFFFFFFFF AND EQ PUSH2 0x1FB3 JUMPI PUSH1 0x40 MLOAD PUSH32 0x8C379A000000000000000000000000000000000000000000000000000000000 DUP2 MSTORE PUSH1 0x4 ADD PUSH2 0x1FAA SWAP1 PUSH2 0x335E JUMP JUMPDEST PUSH1 0x40 MLOAD DUP1 SWAP2 SUB SWAP1 REVERT JUMPDEST PUSH0 DUP5 GT PUSH2 0x1FF5 JUMPI PUSH1 0x40 MLOAD PUSH32 0x8C379A000000000000000000000000000000000000000000000000000000000 DUP2 MSTORE PUSH1 0x4 ADD PUSH2 0x1FEC SWAP1 PUSH2 0x34EB JUMP JUMPDEST PUSH1 0x40 MLOAD DUP1 SWAP2 SUB SWAP1 REVERT JUMPDEST PUSH1 0x3 PUSH0 DUP5 PUSH20 0xFFFFFFFFFFFFFFFFFFFFFFFFFFFFFFFFFFFFFFFF AND PUSH20 0xFFFFFFFFFFFFFFFFFFFFFFFFFFFFFFFFFFFFFFFF AND DUP2 MSTORE PUSH1 0x20 ADD SWAP1 DUP2 MSTORE PUSH1 0x20 ADD PUSH0 KECCAK256 DUP1 SLOAD SWAP1 POP DUP6 LT PUSH2 0x2077 JUMPI PUSH1 0x40 MLOAD PUSH32 0x8C379A000000000000000000000000000000000000000000000000000000000 DUP2 MSTORE PUSH1 0x4 ADD PUSH2 0x206E SWAP1 PUSH2 0x3553 JUMP JUMPDEST PUSH1 0x40 MLOAD DUP1 SWAP2 SUB SWAP1 REVERT JUMPDEST PUSH0 PUSH1 0x3 PUSH0 DUP6 PUSH20 0xFFFFFFFFFFFFFFFFFFFFFFFFFFFFFFFFFFFFFFFF AND PUSH20 0xFFFFFFFFFFFFFFFFFFFFFFFFFFFFFFFFFFFFFFFF AND DUP2 MSTORE PUSH1 0x20 ADD SWAP1 DUP2 MSTORE PUSH1 0x20 ADD PUSH0 KECCAK256 DUP7 DUP2 SLOAD DUP2 LT PUSH2 0x20C7 JUMPI PUSH2 0x20C6 PUSH2 0x2D37 JUMP JUMPDEST JUMPDEST SWAP1 PUSH0 MSTORE PUSH1 0x20 PUSH0 KECCAK256 SWAP1 PUSH1 0x4 MUL ADD PUSH1 0x1 ADD SLOAD SWAP1 POP PUSH0 PUSH8 0xDE0B6B3A7640000 DUP7 DUP4 PUSH2 0x20EF SWAP2 SWAP1 PUSH2 0x2D91 JUMP JUMPDEST PUSH2 0x20F9 SWAP2 SWAP1 PUSH2 0x2D91 JUMP JUMPDEST SWAP1 POP DUP1 CALLVALUE LT ISZERO PUSH2 0x213E JUMPI PUSH1 0x40 MLOAD PUSH32 0x8C379A000000000000000000000000000000000000000000000000000000000 DUP2 MSTORE PUSH1 0x4 ADD PUSH2 0x2135 SWAP1 PUSH2 0x3673 JUMP JUMPDEST PUSH1 0x40 MLOAD DUP1 SWAP2 SUB SWAP1 REVERT JUMPDEST PUSH0 PUSH1 0x3 PUSH0 DUP8 PUSH20 0xFFFFFFFFFFFFFFFFFFFFFFFFFFFFFFFFFFFFFFFF AND PUSH20 0xFFFFFFFFFFFFFFFFFFFFFFFFFFFFFFFFFFFFFFFF AND DUP2 MSTORE PUSH1 0x20 ADD SWAP1 DUP2 MSTORE PUSH1 0x20 ADD PUSH0 KECCAK256 DUP9 DUP2 SLOAD DUP2 LT PUSH2 0x218E JUMPI PUSH2 0x218D PUSH2 0x2D37 JUMP JUMPDEST JUMPDEST SWAP1 PUSH0 MSTORE PUSH1 0x20 PUSH0 KECCAK256 SWAP1 PUSH1 0x4 MUL ADD PUSH1 0x2 ADD DUP1 SLOAD PUSH2 0x21A8 SWAP1 PUSH2 0x2D07 JUMP JUMPDEST DUP1 PUSH1 0x1F ADD PUSH1 0x20 DUP1 SWAP2 DIV MUL PUSH1 0x20 ADD PUSH1 0x40 MLOAD SWAP1 DUP2 ADD PUSH1 0x40 MSTORE DUP1 SWAP3 SWAP2 SWAP1 DUP2 DUP2 MSTORE PUSH1 0x20 ADD DUP3 DUP1 SLOAD PUSH2 0x21D4 SWAP1 PUSH2 0x2D07 JUMP JUMPDEST DUP1 ISZERO PUSH2 0x221F JUMPI DUP1 PUSH1 0x1F LT PUSH2 0x21F6 JUMPI PUSH2 0x100 DUP1 DUP4 SLOAD DIV MUL DUP4 MSTORE SWAP2 PUSH1 0x20 ADD SWAP2 PUSH2 0x221F JUMP JUMPDEST DUP3 ADD SWAP2 SWAP1 PUSH0 MSTORE PUSH1 0x20 PUSH0 KECCAK256 SWAP1 JUMPDEST DUP2 SLOAD DUP2 MSTORE SWAP1 PUSH1 0x1 ADD SWAP1 PUSH1 0x20 ADD DUP1 DUP4 GT PUSH2 0x2202 JUMPI DUP3 SWAP1 SUB PUSH1 0x1F AND DUP3 ADD SWAP2 JUMPDEST POP POP POP POP POP SWAP1 POP PUSH0 DUP1 JUMPDEST PUSH1 0x3 PUSH0 DUP13 PUSH20 0xFFFFFFFFFFFFFFFFFFFFFFFFFFFFFFFFFFFFFFFF AND PUSH20 0xFFFFFFFFFFFFFFFFFFFFFFFFFFFFFFFFFFFFFFFF AND DUP2 MSTORE PUSH1 0x20 ADD SWAP1 DUP2 MSTORE PUSH1 0x20 ADD PUSH0 KECCAK256 DUP1 SLOAD SWAP1 POP DUP2 LT ISZERO PUSH2 0x2380 JUMPI PUSH1 0x3 PUSH0 DUP13 PUSH20 0xFFFFFFFFFFFFFFFFFFFFFFFFFFFFFFFFFFFFFFFF AND PUSH20 0xFFFFFFFFFFFFFFFFFFFFFFFFFFFFFFFFFFFFFFFF AND DUP2 MSTORE PUSH1 0x20 ADD SWAP1 DUP2 MSTORE PUSH1 0x20 ADD PUSH0 KECCAK256 DUP2 DUP2 SLOAD DUP2 LT PUSH2 0x22C0 JUMPI PUSH2 0x22BF PUSH2 0x2D37 JUMP JUMPDEST JUMPDEST SWAP1 PUSH0 MSTORE PUSH1 0x20 PUSH0 KECCAK256 SWAP1 PUSH1 0x4 MUL ADD PUSH1 0x2 ADD PUSH1 0x40 MLOAD PUSH2 0x22DC SWAP2 SWAP1 PUSH2 0x372D JUMP JUMPDEST PUSH1 0x40 MLOAD DUP1 SWAP2 SUB SWAP1 KECCAK256 DUP4 DUP1 MLOAD SWAP1 PUSH1 0x20 ADD KECCAK256 SUB PUSH2 0x236D JUMPI DUP9 PUSH1 0x3 PUSH0 DUP14 PUSH20 0xFFFFFFFFFFFFFFFFFFFFFFFFFFFFFFFFFFFFFFFF AND PUSH20 0xFFFFFFFFFFFFFFFFFFFFFFFFFFFFFFFFFFFFFFFF AND DUP2 MSTORE PUSH1 0x20 ADD SWAP1 DUP2 MSTORE PUSH1 0x20 ADD PUSH0 KECCAK256 DUP3 DUP2 SLOAD DUP2 LT PUSH2 0x2341 JUMPI PUSH2 0x2340 PUSH2 0x2D37 JUMP JUMPDEST JUMPDEST SWAP1 PUSH0 MSTORE PUSH1 0x20 PUSH0 KECCAK256 SWAP1 PUSH1 0x4 MUL ADD PUSH0 ADD PUSH0 DUP3 DUP3 SLOAD PUSH2 0x235D SWAP2 SWAP1 PUSH2 0x2DD2 JUMP JUMPDEST SWAP3 POP POP DUP2 SWAP1 SSTORE POP PUSH1 0x1 SWAP2 POP PUSH2 0x2380 JUMP JUMPDEST DUP1 DUP1 PUSH2 0x2378 SWAP1 PUSH2 0x30CF JUMP JUMPDEST SWAP2 POP POP PUSH2 0x2229 JUMP JUMPDEST POP DUP1 PUSH2 0x24A2 JUMPI PUSH0 PUSH1 0x40 MLOAD DUP1 PUSH1 0x80 ADD PUSH1 0x40 MSTORE DUP1 DUP11 DUP2 MSTORE PUSH1 0x20 ADD DUP7 DUP2 MSTORE PUSH1 0x20 ADD DUP5 DUP2 MSTORE PUSH1 0x20 ADD PUSH1 0x3 PUSH0 DUP12 PUSH20 0xFFFFFFFFFFFFFFFFFFFFFFFFFFFFFFFFFFFFFFFF AND PUSH20 0xFFFFFFFFFFFFFFFFFFFFFFFFFFFFFFFFFFFFFFFF AND DUP2 MSTORE PUSH1 0x20 ADD SWAP1 DUP2 MSTORE PUSH1 0x20 ADD PUSH0 KECCAK256 DUP13 DUP2 SLOAD DUP2 LT PUSH2 0x23F3 JUMPI PUSH2 0x23F2 PUSH2 0x2D37 JUMP JUMPDEST JUMPDEST SWAP1 PUSH0 MSTORE PUSH1 0x20 PUSH0 KECCAK256 SWAP1 PUSH1 0x4 MUL ADD PUSH1 0x3 ADD SLOAD DUP2 MSTORE POP SWAP1 POP PUSH1 0x3 PUSH0 DUP13 PUSH20 0xFFFFFFFFFFFFFFFFFFFFFFFFFFFFFFFFFFFFFFFF AND PUSH20 0xFFFFFFFFFFFFFFFFFFFFFFFFFFFFFFFFFFFFFFFF AND DUP2 MSTORE PUSH1 0x20 ADD SWAP1 DUP2 MSTORE PUSH1 0x20 ADD PUSH0 KECCAK256 DUP2 SWAP1 DUP1 PUSH1 0x1 DUP2 SLOAD ADD DUP1 DUP3 SSTORE DUP1 SWAP2 POP POP PUSH1 0x1 SWAP1 SUB SWAP1 PUSH0 MSTORE PUSH1 0x20 PUSH0 KECCAK256 SWAP1 PUSH1 0x4 MUL ADD PUSH0 SWAP1 SWAP2 SWAP1 SWAP2 SWAP1 SWAP2 POP PUSH0 DUP3 ADD MLOAD DUP2 PUSH0 ADD SSTORE PUSH1 0x20 DUP3 ADD MLOAD DUP2 PUSH1 0x1 ADD SSTORE PUSH1 0x40 DUP3 ADD MLOAD DUP2 PUSH1 0x2 ADD SWAP1 DUP2 PUSH2 0x2493 SWAP2 SWAP1 PUSH2 0x33AC JUMP JUMPDEST POP PUSH1 0x60 DUP3 ADD MLOAD DUP2 PUSH1 0x3 ADD SSTORE POP POP POP JUMPDEST DUP8 PUSH1 0x3 PUSH0 DUP10 PUSH20 0xFFFFFFFFFFFFFFFFFFFFFFFFFFFFFFFFFFFFFFFF AND PUSH20 0xFFFFFFFFFFFFFFFFFFFFFFFFFFFFFFFFFFFFFFFF AND DUP2 MSTORE PUSH1 0x20 ADD SWAP1 DUP2 MSTORE PUSH1 0x20 ADD PUSH0 KECCAK256 DUP11 DUP2 SLOAD DUP2 LT PUSH2 0x24F2 JUMPI PUSH2 0x24F1 PUSH2 0x2D37 JUMP JUMPDEST JUMPDEST SWAP1 PUSH0 MSTORE PUSH1 0x20 PUSH0 KECCAK256 SWAP1 PUSH1 0x4 MUL ADD PUSH0 ADD PUSH0 DUP3 DUP3 SLOAD PUSH2 0x250E SWAP2 SWAP1 PUSH2 0x2E05 JUMP JUMPDEST SWAP3 POP POP DUP2 SWAP1 SSTORE POP DUP3 CALLVALUE GT ISZERO PUSH2 0x256D JUMPI CALLER PUSH20 0xFFFFFFFFFFFFFFFFFFFFFFFFFFFFFFFFFFFFFFFF AND PUSH2 0x8FC DUP5 CALLVALUE PUSH2 0x2543 SWAP2 SWAP1 PUSH2 0x2E05 JUMP JUMPDEST SWAP1 DUP2 ISZERO MUL SWAP1 PUSH1 0x40 MLOAD PUSH0 PUSH1 0x40 MLOAD DUP1 DUP4 SUB DUP2 DUP6 DUP9 DUP9 CALL SWAP4 POP POP POP POP ISZERO DUP1 ISZERO PUSH2 0x256B JUMPI RETURNDATASIZE PUSH0 DUP1 RETURNDATACOPY RETURNDATASIZE PUSH0 REVERT JUMPDEST POP JUMPDEST POP POP POP POP POP POP POP POP POP POP JUMP JUMPDEST POP DUP1 SLOAD PUSH2 0x2585 SWAP1 PUSH2 0x2D07 JUMP JUMPDEST PUSH0 DUP3 SSTORE DUP1 PUSH1 0x1F LT PUSH2 0x2596 JUMPI POP PUSH2 0x25B3 JUMP JUMPDEST PUSH1 0x1F ADD PUSH1 0x20 SWAP1 DIV SWAP1 PUSH0 MSTORE PUSH1 0x20 PUSH0 KECCAK256 SWAP1 DUP2 ADD SWAP1 PUSH2 0x25B2 SWAP2 SWAP1 PUSH2 0x25B6 JUMP JUMPDEST JUMPDEST POP JUMP JUMPDEST JUMPDEST DUP1 DUP3 GT ISZERO PUSH2 0x25CD JUMPI PUSH0 DUP2 PUSH0 SWAP1 SSTORE POP PUSH1 0x1 ADD PUSH2 0x25B7 JUMP JUMPDEST POP SWAP1 JUMP JUMPDEST PUSH0 PUSH1 0x40 MLOAD SWAP1 POP SWAP1 JUMP JUMPDEST PUSH0 DUP1 REVERT JUMPDEST PUSH0 DUP1 REVERT JUMPDEST PUSH0 PUSH20 0xFFFFFFFFFFFFFFFFFFFFFFFFFFFFFFFFFFFFFFFF DUP3 AND SWAP1 POP SWAP2 SWAP1 POP JUMP JUMPDEST PUSH0 PUSH2 0x260B DUP3 PUSH2 0x25E2 JUMP JUMPDEST SWAP1 POP SWAP2 SWAP1 POP JUMP JUMPDEST PUSH2 0x261B DUP2 PUSH2 0x2601 JUMP JUMPDEST DUP2 EQ PUSH2 0x2625 JUMPI PUSH0 DUP1 REVERT JUMPDEST POP JUMP JUMPDEST PUSH0 DUP2 CALLDATALOAD SWAP1 POP PUSH2 0x2636 DUP2 PUSH2 0x2612 JUMP JUMPDEST SWAP3 SWAP2 POP POP JUMP JUMPDEST PUSH0 DUP2 SWAP1 POP SWAP2 SWAP1 POP JUMP JUMPDEST PUSH2 0x264E DUP2 PUSH2 0x263C JUMP JUMPDEST DUP2 EQ PUSH2 0x2658 JUMPI PUSH0 DUP1 REVERT JUMPDEST POP JUMP JUMPDEST PUSH0 DUP2 CALLDATALOAD SWAP1 POP PUSH2 0x2669 DUP2 PUSH2 0x2645 JUMP JUMPDEST SWAP3 SWAP2 POP POP JUMP JUMPDEST PUSH0 DUP1 PUSH1 0x40 DUP4 DUP6 SUB SLT ISZERO PUSH2 0x2685 JUMPI PUSH2 0x2684 PUSH2 0x25DA JUMP JUMPDEST JUMPDEST PUSH0 PUSH2 0x2692 DUP6 DUP3 DUP7 ADD PUSH2 0x2628 JUMP JUMPDEST SWAP3 POP POP PUSH1 0x20 PUSH2 0x26A3 DUP6 DUP3 DUP7 ADD PUSH2 0x265B JUMP JUMPDEST SWAP2 POP POP SWAP3 POP SWAP3 SWAP1 POP JUMP JUMPDEST PUSH2 0x26B6 DUP2 PUSH2 0x263C JUMP JUMPDEST DUP3 MSTORE POP POP JUMP JUMPDEST PUSH0 DUP2 MLOAD SWAP1 POP SWAP2 SWAP1 POP JUMP JUMPDEST PUSH0 DUP3 DUP3 MSTORE PUSH1 0x20 DUP3 ADD SWAP1 POP SWAP3 SWAP2 POP POP JUMP JUMPDEST PUSH0 JUMPDEST DUP4 DUP2 LT ISZERO PUSH2 0x26F3 JUMPI DUP1 DUP3 ADD MLOAD DUP2 DUP5 ADD MSTORE PUSH1 0x20 DUP2 ADD SWAP1 POP PUSH2 0x26D8 JUMP JUMPDEST PUSH0 DUP5 DUP5 ADD MSTORE POP POP POP POP JUMP JUMPDEST PUSH0 PUSH1 0x1F NOT PUSH1 0x1F DUP4 ADD AND SWAP1 POP SWAP2 SWAP1 POP JUMP JUMPDEST PUSH0 PUSH2 0x2718 DUP3 PUSH2 0x26BC JUMP JUMPDEST PUSH2 0x2722 DUP2 DUP6 PUSH2 0x26C6 JUMP JUMPDEST SWAP4 POP PUSH2 0x2732 DUP2 DUP6 PUSH1 0x20 DUP7 ADD PUSH2 0x26D6 JUMP JUMPDEST PUSH2 0x273B DUP2 PUSH2 0x26FE JUMP JUMPDEST DUP5 ADD SWAP2 POP POP SWAP3 SWAP2 POP POP JUMP JUMPDEST PUSH0 PUSH1 0x80 DUP3 ADD SWAP1 POP PUSH2 0x2759 PUSH0 DUP4 ADD DUP8 PUSH2 0x26AD JUMP JUMPDEST PUSH2 0x2766 PUSH1 0x20 DUP4 ADD DUP7 PUSH2 0x26AD JUMP JUMPDEST DUP2 DUP2 SUB PUSH1 0x40 DUP4 ADD MSTORE PUSH2 0x2778 DUP2 DUP6 PUSH2 0x270E JUMP JUMPDEST SWAP1 POP PUSH2 0x2787 PUSH1 0x60 DUP4 ADD DUP5 PUSH2 0x26AD JUMP JUMPDEST SWAP6 SWAP5 POP POP POP POP POP JUMP JUMPDEST PUSH0 PUSH1 0x20 DUP3 DUP5 SUB SLT ISZERO PUSH2 0x27A5 JUMPI PUSH2 0x27A4 PUSH2 0x25DA JUMP JUMPDEST JUMPDEST PUSH0 PUSH2 0x27B2 DUP5 DUP3 DUP6 ADD PUSH2 0x265B JUMP JUMPDEST SWAP2 POP POP SWAP3 SWAP2 POP POP JUMP JUMPDEST PUSH2 0x27C4 DUP2 PUSH2 0x2601 JUMP JUMPDEST DUP3 MSTORE POP POP JUMP JUMPDEST PUSH32 0x4E487B7100000000000000000000000000000000000000000000000000000000 PUSH0 MSTORE PUSH1 0x21 PUSH1 0x4 MSTORE PUSH1 0x24 PUSH0 REVERT JUMPDEST PUSH1 0x3 DUP2 LT PUSH2 0x2808 JUMPI PUSH2 0x2807 PUSH2 0x27CA JUMP JUMPDEST JUMPDEST POP JUMP JUMPDEST PUSH0 DUP2 SWAP1 POP PUSH2 0x2818 DUP3 PUSH2 0x27F7 JUMP JUMPDEST SWAP2 SWAP1 POP JUMP JUMPDEST PUSH0 PUSH2 0x2827 DUP3 PUSH2 0x280B JUMP JUMPDEST SWAP1 POP SWAP2 SWAP1 POP JUMP JUMPDEST PUSH2 0x2837 DUP2 PUSH2 0x281D JUMP JUMPDEST DUP3 MSTORE POP POP JUMP JUMPDEST PUSH0 PUSH1 0x40 DUP3 ADD SWAP1 POP PUSH2 0x2850 PUSH0 DUP4 ADD DUP6 PUSH2 0x27BB JUMP JUMPDEST PUSH2 0x285D PUSH1 0x20 DUP4 ADD DUP5 PUSH2 0x282E JUMP JUMPDEST SWAP4 SWAP3 POP POP POP JUMP JUMPDEST PUSH1 0x3 DUP2 LT PUSH2 0x2870 JUMPI PUSH0 DUP1 REVERT JUMPDEST POP JUMP JUMPDEST PUSH0 DUP2 CALLDATALOAD SWAP1 POP PUSH2 0x2881 DUP2 PUSH2 0x2864 JUMP JUMPDEST SWAP3 SWAP2 POP POP JUMP JUMPDEST PUSH0 PUSH1 0x20 DUP3 DUP5 SUB SLT ISZERO PUSH2 0x289C JUMPI PUSH2 0x289B PUSH2 0x25DA JUMP JUMPDEST JUMPDEST PUSH0 PUSH2 0x28A9 DUP5 DUP3 DUP6 ADD PUSH2 0x2873 JUMP JUMPDEST SWAP2 POP POP SWAP3 SWAP2 POP POP JUMP JUMPDEST PUSH0 PUSH1 0x20 DUP3 ADD SWAP1 POP PUSH2 0x28C5 PUSH0 DUP4 ADD DUP5 PUSH2 0x26AD JUMP JUMPDEST SWAP3 SWAP2 POP POP JUMP JUMPDEST PUSH0 DUP1 REVERT JUMPDEST PUSH0 DUP1 REVERT JUMPDEST PUSH0 DUP1 REVERT JUMPDEST PUSH0 DUP1 DUP4 PUSH1 0x1F DUP5 ADD SLT PUSH2 0x28EC JUMPI PUSH2 0x28EB PUSH2 0x28CB JUMP JUMPDEST JUMPDEST DUP3 CALLDATALOAD SWAP1 POP PUSH8 0xFFFFFFFFFFFFFFFF DUP2 GT ISZERO PUSH2 0x2909 JUMPI PUSH2 0x2908 PUSH2 0x28CF JUMP JUMPDEST JUMPDEST PUSH1 0x20 DUP4 ADD SWAP2 POP DUP4 PUSH1 0x1 DUP3 MUL DUP4 ADD GT ISZERO PUSH2 0x2925 JUMPI PUSH2 0x2924 PUSH2 0x28D3 JUMP JUMPDEST JUMPDEST SWAP3 POP SWAP3 SWAP1 POP JUMP JUMPDEST PUSH0 DUP1 PUSH0 DUP1 PUSH0 DUP1 PUSH1 0xA0 DUP8 DUP10 SUB SLT ISZERO PUSH2 0x2946 JUMPI PUSH2 0x2945 PUSH2 0x25DA JUMP JUMPDEST JUMPDEST PUSH0 PUSH2 0x2953 DUP10 DUP3 DUP11 ADD PUSH2 0x265B JUMP JUMPDEST SWAP7 POP POP PUSH1 0x20 PUSH2 0x2964 DUP10 DUP3 DUP11 ADD PUSH2 0x265B JUMP JUMPDEST SWAP6 POP POP PUSH1 0x40 DUP8 ADD CALLDATALOAD PUSH8 0xFFFFFFFFFFFFFFFF DUP2 GT ISZERO PUSH2 0x2985 JUMPI PUSH2 0x2984 PUSH2 0x25DE JUMP JUMPDEST JUMPDEST PUSH2 0x2991 DUP10 DUP3 DUP11 ADD PUSH2 0x28D7 JUMP JUMPDEST SWAP5 POP SWAP5 POP POP PUSH1 0x60 PUSH2 0x29A4 DUP10 DUP3 DUP11 ADD PUSH2 0x265B JUMP JUMPDEST SWAP3 POP POP PUSH1 0x80 PUSH2 0x29B5 DUP10 DUP3 DUP11 ADD PUSH2 0x2628 JUMP JUMPDEST SWAP2 POP POP SWAP3 SWAP6 POP SWAP3 SWAP6 POP SWAP3 SWAP6 JUMP JUMPDEST PUSH0 PUSH1 0x20 DUP3 ADD SWAP1 POP PUSH2 0x29D5 PUSH0 DUP4 ADD DUP5 PUSH2 0x27BB JUMP JUMPDEST SWAP3 SWAP2 POP POP JUMP JUMPDEST PUSH0 DUP1 REVERT JUMPDEST PUSH32 0x4E487B7100000000000000000000000000000000000000000000000000000000 PUSH0 MSTORE PUSH1 0x41 PUSH1 0x4 MSTORE PUSH1 0x24 PUSH0 REVERT JUMPDEST PUSH2 0x2A15 DUP3 PUSH2 0x26FE JUMP JUMPDEST DUP2 ADD DUP2 DUP2 LT PUSH8 0xFFFFFFFFFFFFFFFF DUP3 GT OR ISZERO PUSH2 0x2A34 JUMPI PUSH2 0x2A33 PUSH2 0x29DF JUMP JUMPDEST JUMPDEST DUP1 PUSH1 0x40 MSTORE POP POP POP JUMP JUMPDEST PUSH0 PUSH2 0x2A46 PUSH2 0x25D1 JUMP JUMPDEST SWAP1 POP PUSH2 0x2A52 DUP3 DUP3 PUSH2 0x2A0C JUMP JUMPDEST SWAP2 SWAP1 POP JUMP JUMPDEST PUSH0 PUSH8 0xFFFFFFFFFFFFFFFF DUP3 GT ISZERO PUSH2 0x2A71 JUMPI PUSH2 0x2A70 PUSH2 0x29DF JUMP JUMPDEST JUMPDEST PUSH2 0x2A7A DUP3 PUSH2 0x26FE JUMP JUMPDEST SWAP1 POP PUSH1 0x20 DUP2 ADD SWAP1 POP SWAP2 SWAP1 POP JUMP JUMPDEST DUP3 DUP2 DUP4 CALLDATACOPY PUSH0 DUP4 DUP4 ADD MSTORE POP POP POP JUMP JUMPDEST PUSH0 PUSH2 0x2AA7 PUSH2 0x2AA2 DUP5 PUSH2 0x2A57 JUMP JUMPDEST PUSH2 0x2A3D JUMP JUMPDEST SWAP1 POP DUP3 DUP2 MSTORE PUSH1 0x20 DUP2 ADD DUP5 DUP5 DUP5 ADD GT ISZERO PUSH2 0x2AC3 JUMPI PUSH2 0x2AC2 PUSH2 0x29DB JUMP JUMPDEST JUMPDEST PUSH2 0x2ACE DUP5 DUP3 DUP6 PUSH2 0x2A87 JUMP JUMPDEST POP SWAP4 SWAP3 POP POP POP JUMP JUMPDEST PUSH0 DUP3 PUSH1 0x1F DUP4 ADD SLT PUSH2 0x2AEA JUMPI PUSH2 0x2AE9 PUSH2 0x28CB JUMP JUMPDEST JUMPDEST DUP2 CALLDATALOAD PUSH2 0x2AFA DUP5 DUP3 PUSH1 0x20 DUP7 ADD PUSH2 0x2A95 JUMP JUMPDEST SWAP2 POP POP SWAP3 SWAP2 POP POP JUMP JUMPDEST PUSH0 DUP1 PUSH0 DUP1 PUSH1 0x80 DUP6 DUP8 SUB SLT ISZERO PUSH2 0x2B1B JUMPI PUSH2 0x2B1A PUSH2 0x25DA JUMP JUMPDEST JUMPDEST PUSH0 PUSH2 0x2B28 DUP8 DUP3 DUP9 ADD PUSH2 0x2628 JUMP JUMPDEST SWAP5 POP POP PUSH1 0x20 PUSH2 0x2B39 DUP8 DUP3 DUP9 ADD PUSH2 0x265B JUMP JUMPDEST SWAP4 POP POP PUSH1 0x40 PUSH2 0x2B4A DUP8 DUP3 DUP9 ADD PUSH2 0x265B JUMP JUMPDEST SWAP3 POP POP PUSH1 0x60 DUP6 ADD CALLDATALOAD PUSH8 0xFFFFFFFFFFFFFFFF DUP2 GT ISZERO PUSH2 0x2B6B JUMPI PUSH2 0x2B6A PUSH2 0x25DE JUMP JUMPDEST JUMPDEST PUSH2 0x2B77 DUP8 DUP3 DUP9 ADD PUSH2 0x2AD6 JUMP JUMPDEST SWAP2 POP POP SWAP3 SWAP6 SWAP2 SWAP5 POP SWAP3 POP JUMP JUMPDEST PUSH0 DUP1 PUSH1 0x40 DUP4 DUP6 SUB SLT ISZERO PUSH2 0x2B99 JUMPI PUSH2 0x2B98 PUSH2 0x25DA JUMP JUMPDEST JUMPDEST PUSH0 DUP4 ADD CALLDATALOAD PUSH8 0xFFFFFFFFFFFFFFFF DUP2 GT ISZERO PUSH2 0x2BB6 JUMPI PUSH2 0x2BB5 PUSH2 0x25DE JUMP JUMPDEST JUMPDEST PUSH2 0x2BC2 DUP6 DUP3 DUP7 ADD PUSH2 0x2AD6 JUMP JUMPDEST SWAP3 POP POP PUSH1 0x20 PUSH2 0x2BD3 DUP6 DUP3 DUP7 ADD PUSH2 0x2628 JUMP JUMPDEST SWAP2 POP POP SWAP3 POP SWAP3 SWAP1 POP JUMP JUMPDEST PUSH0 PUSH1 0x20 DUP3 DUP5 SUB SLT ISZERO PUSH2 0x2BF2 JUMPI PUSH2 0x2BF1 PUSH2 0x25DA JUMP JUMPDEST JUMPDEST PUSH0 PUSH2 0x2BFF DUP5 DUP3 DUP6 ADD PUSH2 0x2628 JUMP JUMPDEST SWAP2 POP POP SWAP3 SWAP2 POP POP JUMP JUMPDEST PUSH0 PUSH1 0x40 DUP3 ADD SWAP1 POP PUSH2 0x2C1B PUSH0 DUP4 ADD DUP6 PUSH2 0x282E JUMP JUMPDEST PUSH2 0x2C28 PUSH1 0x20 DUP4 ADD DUP5 PUSH2 0x26AD JUMP JUMPDEST SWAP4 SWAP3 POP POP POP JUMP JUMPDEST PUSH0 PUSH1 0x20 DUP3 DUP5 SUB SLT ISZERO PUSH2 0x2C44 JUMPI PUSH2 0x2C43 PUSH2 0x25DA JUMP JUMPDEST JUMPDEST PUSH0 DUP3 ADD CALLDATALOAD PUSH8 0xFFFFFFFFFFFFFFFF DUP2 GT ISZERO PUSH2 0x2C61 JUMPI PUSH2 0x2C60 PUSH2 0x25DE JUMP JUMPDEST JUMPDEST PUSH2 0x2C6D DUP5 DUP3 DUP6 ADD PUSH2 0x2AD6 JUMP JUMPDEST SWAP2 POP POP SWAP3 SWAP2 POP POP JUMP JUMPDEST PUSH0 DUP1 PUSH0 DUP1 PUSH1 0x80 DUP6 DUP8 SUB SLT ISZERO PUSH2 0x2C8E JUMPI PUSH2 0x2C8D PUSH2 0x25DA JUMP JUMPDEST JUMPDEST PUSH0 PUSH2 0x2C9B DUP8 DUP3 DUP9 ADD PUSH2 0x2628 JUMP JUMPDEST SWAP5 POP POP PUSH1 0x20 PUSH2 0x2CAC DUP8 DUP3 DUP9 ADD PUSH2 0x265B JUMP JUMPDEST SWAP4 POP POP PUSH1 0x40 PUSH2 0x2CBD DUP8 DUP3 DUP9 ADD PUSH2 0x265B JUMP JUMPDEST SWAP3 POP POP PUSH1 0x60 PUSH2 0x2CCE DUP8 DUP3 DUP9 ADD PUSH2 0x2628 JUMP JUMPDEST SWAP2 POP POP SWAP3 SWAP6 SWAP2 SWAP5 POP SWAP3 POP JUMP JUMPDEST PUSH32 0x4E487B7100000000000000000000000000000000000000000000000000000000 PUSH0 MSTORE PUSH1 0x22 PUSH1 0x4 MSTORE PUSH1 0x24 PUSH0 REVERT JUMPDEST PUSH0 PUSH1 0x2 DUP3 DIV SWAP1 POP PUSH1 0x1 DUP3 AND DUP1 PUSH2 0x2D1E JUMPI PUSH1 0x7F DUP3 AND SWAP2 POP JUMPDEST PUSH1 0x20 DUP3 LT DUP2 SUB PUSH2 0x2D31 JUMPI PUSH2 0x2D30 PUSH2 0x2CDA JUMP JUMPDEST JUMPDEST POP SWAP2 SWAP1 POP JUMP JUMPDEST PUSH32 0x4E487B7100000000000000000000000000000000000000000000000000000000 PUSH0 MSTORE PUSH1 0x32 PUSH1 0x4 MSTORE PUSH1 0x24 PUSH0 REVERT JUMPDEST PUSH32 0x4E487B7100000000000000000000000000000000000000000000000000000000 PUSH0 MSTORE PUSH1 0x11 PUSH1 0x4 MSTORE PUSH1 0x24 PUSH0 REVERT JUMPDEST PUSH0 PUSH2 0x2D9B DUP3 PUSH2 0x263C JUMP JUMPDEST SWAP2 POP PUSH2 0x2DA6 DUP4 PUSH2 0x263C JUMP JUMPDEST SWAP3 POP DUP3 DUP3 MUL PUSH2 0x2DB4 DUP2 PUSH2 0x263C JUMP JUMPDEST SWAP2 POP DUP3 DUP3 DIV DUP5 EQ DUP4 ISZERO OR PUSH2 0x2DCB JUMPI PUSH2 0x2DCA PUSH2 0x2D64 JUMP JUMPDEST JUMPDEST POP SWAP3 SWAP2 POP POP JUMP JUMPDEST PUSH0 PUSH2 0x2DDC DUP3 PUSH2 0x263C JUMP JUMPDEST SWAP2 POP PUSH2 0x2DE7 DUP4 PUSH2 0x263C JUMP JUMPDEST SWAP3 POP DUP3 DUP3 ADD SWAP1 POP DUP1 DUP3 GT ISZERO PUSH2 0x2DFF JUMPI PUSH2 0x2DFE PUSH2 0x2D64 JUMP JUMPDEST JUMPDEST SWAP3 SWAP2 POP POP JUMP JUMPDEST PUSH0 PUSH2 0x2E0F DUP3 PUSH2 0x263C JUMP JUMPDEST SWAP2 POP PUSH2 0x2E1A DUP4 PUSH2 0x263C JUMP JUMPDEST SWAP3 POP DUP3 DUP3 SUB SWAP1 POP DUP2 DUP2 GT ISZERO PUSH2 0x2E32 JUMPI PUSH2 0x2E31 PUSH2 0x2D64 JUMP JUMPDEST JUMPDEST SWAP3 SWAP2 POP POP JUMP JUMPDEST PUSH0 DUP2 SLOAD SWAP1 POP PUSH2 0x2E46 DUP2 PUSH2 0x2D07 JUMP JUMPDEST SWAP1 POP SWAP2 SWAP1 POP JUMP JUMPDEST PUSH0 DUP2 SWAP1 POP DUP2 PUSH0 MSTORE PUSH1 0x20 PUSH0 KECCAK256 SWAP1 POP SWAP2 SWAP1 POP JUMP JUMPDEST PUSH0 PUSH1 0x20 PUSH1 0x1F DUP4 ADD DIV SWAP1 POP SWAP2 SWAP1 POP JUMP JUMPDEST PUSH0 DUP3 DUP3 SHL SWAP1 POP SWAP3 SWAP2 POP POP JUMP JUMPDEST PUSH0 PUSH1 0x8 DUP4 MUL PUSH2 0x2EA9 PUSH32 0xFFFFFFFFFFFFFFFFFFFFFFFFFFFFFFFFFFFFFFFFFFFFFFFFFFFFFFFFFFFFFFFF DUP3 PUSH2 0x2E6E JUMP JUMPDEST PUSH2 0x2EB3 DUP7 DUP4 PUSH2 0x2E6E JUMP JUMPDEST SWAP6 POP DUP1 NOT DUP5 AND SWAP4 POP DUP1 DUP7 AND DUP5 OR SWAP3 POP POP POP SWAP4 SWAP3 POP POP POP JUMP JUMPDEST PUSH0 DUP2 SWAP1 POP SWAP2 SWAP1 POP JUMP JUMPDEST PUSH0 PUSH2 0x2EEE PUSH2 0x2EE9 PUSH2 0x2EE4 DUP5 PUSH2 0x263C JUMP JUMPDEST PUSH2 0x2ECB JUMP JUMPDEST PUSH2 0x263C JUMP JUMPDEST SWAP1 POP SWAP2 SWAP1 POP JUMP JUMPDEST PUSH0 DUP2 SWAP1 POP SWAP2 SWAP1 POP JUMP JUMPDEST PUSH2 0x2F07 DUP4 PUSH2 0x2ED4 JUMP JUMPDEST PUSH2 0x2F1B PUSH2 0x2F13 DUP3 PUSH2 0x2EF5 JUMP JUMPDEST DUP5 DUP5 SLOAD PUSH2 0x2E7A JUMP JUMPDEST DUP3 SSTORE POP POP POP POP JUMP JUMPDEST PUSH0 SWAP1 JUMP JUMPDEST PUSH2 0x2F2F PUSH2 0x2F23 JUMP JUMPDEST PUSH2 0x2F3A DUP2 DUP5 DUP5 PUSH2 0x2EFE JUMP JUMPDEST POP POP POP JUMP JUMPDEST JUMPDEST DUP2 DUP2 LT ISZERO PUSH2 0x2F5D JUMPI PUSH2 0x2F52 PUSH0 DUP3 PUSH2 0x2F27 JUMP JUMPDEST PUSH1 0x1 DUP2 ADD SWAP1 POP PUSH2 0x2F40 JUMP JUMPDEST POP POP JUMP JUMPDEST PUSH1 0x1F DUP3 GT ISZERO PUSH2 0x2FA2 JUMPI PUSH2 0x2F73 DUP2 PUSH2 0x2E4D JUMP JUMPDEST PUSH2 0x2F7C DUP5 PUSH2 0x2E5F JUMP JUMPDEST DUP2 ADD PUSH1 0x20 DUP6 LT ISZERO PUSH2 0x2F8B JUMPI DUP2 SWAP1 POP JUMPDEST PUSH2 0x2F9F PUSH2 0x2F97 DUP6 PUSH2 0x2E5F JUMP JUMPDEST DUP4 ADD DUP3 PUSH2 0x2F3F JUMP JUMPDEST POP POP JUMPDEST POP POP POP JUMP JUMPDEST PUSH0 DUP3 DUP3 SHR SWAP1 POP SWAP3 SWAP2 POP POP JUMP JUMPDEST PUSH0 PUSH2 0x2FC2 PUSH0 NOT DUP5 PUSH1 0x8 MUL PUSH2 0x2FA7 JUMP JUMPDEST NOT DUP1 DUP4 AND SWAP2 POP POP SWAP3 SWAP2 POP POP JUMP JUMPDEST PUSH0 PUSH2 0x2FDA DUP4 DUP4 PUSH2 0x2FB3 JUMP JUMPDEST SWAP2 POP DUP3 PUSH1 0x2 MUL DUP3 OR SWAP1 POP SWAP3 SWAP2 POP POP JUMP JUMPDEST DUP2 DUP2 SUB PUSH2 0x2FF8 JUMPI POP POP PUSH2 0x30CD JUMP JUMPDEST PUSH2 0x3001 DUP3 PUSH2 0x2E38 JUMP JUMPDEST PUSH8 0xFFFFFFFFFFFFFFFF DUP2 GT ISZERO PUSH2 0x301A JUMPI PUSH2 0x3019 PUSH2 0x29DF JUMP JUMPDEST JUMPDEST PUSH2 0x3024 DUP3 SLOAD PUSH2 0x2D07 JUMP JUMPDEST PUSH2 0x302F DUP3 DUP3 DUP6 PUSH2 0x2F61 JUMP JUMPDEST PUSH0 PUSH1 0x1F DUP4 GT PUSH1 0x1 DUP2 EQ PUSH2 0x305C JUMPI PUSH0 DUP5 ISZERO PUSH2 0x304A JUMPI DUP3 DUP8 ADD SLOAD SWAP1 POP JUMPDEST PUSH2 0x3054 DUP6 DUP3 PUSH2 0x2FCF JUMP JUMPDEST DUP7 SSTORE POP PUSH2 0x30C6 JUMP JUMPDEST PUSH1 0x1F NOT DUP5 AND PUSH2 0x306A DUP8 PUSH2 0x2E4D JUMP JUMPDEST SWAP7 POP PUSH2 0x3075 DUP7 PUSH2 0x2E4D JUMP JUMPDEST PUSH0 JUMPDEST DUP3 DUP2 LT ISZERO PUSH2 0x309C JUMPI DUP5 DUP10 ADD SLOAD DUP3 SSTORE PUSH1 0x1 DUP3 ADD SWAP2 POP PUSH1 0x1 DUP6 ADD SWAP5 POP PUSH1 0x20 DUP2 ADD SWAP1 POP PUSH2 0x3077 JUMP JUMPDEST DUP7 DUP4 LT ISZERO PUSH2 0x30B9 JUMPI DUP5 DUP10 ADD SLOAD PUSH2 0x30B5 PUSH1 0x1F DUP10 AND DUP3 PUSH2 0x2FB3 JUMP JUMPDEST DUP4 SSTORE POP JUMPDEST PUSH1 0x1 PUSH1 0x2 DUP9 MUL ADD DUP9 SSTORE POP POP POP JUMPDEST POP POP POP POP POP POP JUMPDEST JUMP JUMPDEST PUSH0 PUSH2 0x30D9 DUP3 PUSH2 0x263C JUMP JUMPDEST SWAP2 POP PUSH32 0xFFFFFFFFFFFFFFFFFFFFFFFFFFFFFFFFFFFFFFFFFFFFFFFFFFFFFFFFFFFFFFFF DUP3 SUB PUSH2 0x310B JUMPI PUSH2 0x310A PUSH2 0x2D64 JUMP JUMPDEST JUMPDEST PUSH1 0x1 DUP3 ADD SWAP1 POP SWAP2 SWAP1 POP JUMP JUMPDEST PUSH0 DUP2 SWAP1 POP SWAP2 SWAP1 POP JUMP JUMPDEST PUSH2 0x3130 PUSH2 0x312B DUP3 PUSH2 0x263C JUMP JUMPDEST PUSH2 0x3116 JUMP JUMPDEST DUP3 MSTORE POP POP JUMP JUMPDEST PUSH0 DUP2 PUSH1 0x60 SHL SWAP1 POP SWAP2 SWAP1 POP JUMP JUMPDEST PUSH0 PUSH2 0x314C DUP3 PUSH2 0x3136 JUMP JUMPDEST SWAP1 POP SWAP2 SWAP1 POP JUMP JUMPDEST PUSH0 PUSH2 0x315D DUP3 PUSH2 0x3142 JUMP JUMPDEST SWAP1 POP SWAP2 SWAP1 POP JUMP JUMPDEST PUSH2 0x3175 PUSH2 0x3170 DUP3 PUSH2 0x2601 JUMP JUMPDEST PUSH2 0x3153 JUMP JUMPDEST DUP3 MSTORE POP POP JUMP JUMPDEST PUSH0 PUSH2 0x3186 DUP3 DUP7 PUSH2 0x311F JUMP JUMPDEST PUSH1 0x20 DUP3 ADD SWAP2 POP PUSH2 0x3196 DUP3 DUP6 PUSH2 0x3164 JUMP JUMPDEST PUSH1 0x14 DUP3 ADD SWAP2 POP PUSH2 0x31A6 DUP3 DUP5 PUSH2 0x311F JUMP JUMPDEST PUSH1 0x20 DUP3 ADD SWAP2 POP DUP2 SWAP1 POP SWAP5 SWAP4 POP POP POP POP JUMP JUMPDEST PUSH32 0x4E487B7100000000000000000000000000000000000000000000000000000000 PUSH0 MSTORE PUSH1 0x12 PUSH1 0x4 MSTORE PUSH1 0x24 PUSH0 REVERT JUMPDEST PUSH0 PUSH2 0x31EE DUP3 PUSH2 0x263C JUMP JUMPDEST SWAP2 POP PUSH2 0x31F9 DUP4 PUSH2 0x263C JUMP JUMPDEST SWAP3 POP DUP3 PUSH2 0x3209 JUMPI PUSH2 0x3208 PUSH2 0x31B7 JUMP JUMPDEST JUMPDEST DUP3 DUP3 MOD SWAP1 POP SWAP3 SWAP2 POP POP JUMP JUMPDEST PUSH32 0xD092D0B0D188D0B020D180D0BED0BBD18C20D0BDD0B520D0BFD0BED0B7D0B2D0 PUSH0 DUP3 ADD MSTORE PUSH32 0xBED0BBD18FD0B5D18220D18DD182D0BE20D0B8D0B7D0BCD0B5D0BDD18FD182D1 PUSH1 0x20 DUP3 ADD MSTORE PUSH32 0x8C00000000000000000000000000000000000000000000000000000000000000 PUSH1 0x40 DUP3 ADD MSTORE POP JUMP JUMPDEST PUSH0 PUSH2 0x3294 PUSH1 0x41 DUP4 PUSH2 0x26C6 JUMP JUMPDEST SWAP2 POP PUSH2 0x329F DUP3 PUSH2 0x3214 JUMP JUMPDEST PUSH1 0x60 DUP3 ADD SWAP1 POP SWAP2 SWAP1 POP JUMP JUMPDEST PUSH0 PUSH1 0x20 DUP3 ADD SWAP1 POP DUP2 DUP2 SUB PUSH0 DUP4 ADD MSTORE PUSH2 0x32C1 DUP2 PUSH2 0x3288 JUMP JUMPDEST SWAP1 POP SWAP2 SWAP1 POP JUMP JUMPDEST PUSH32 0xD09CD0B0D0B3D0B0D0B7D0B8D0BD20D0BDD0B520D181D0BED0BED182D0B2D0B5 PUSH0 DUP3 ADD MSTORE PUSH32 0xD182D181D0B2D183D0B5D18220D0BED182D0BFD180D0B0D0B2D0B8D182D0B5D0 PUSH1 0x20 DUP3 ADD MSTORE PUSH32 0xBBD18E0000000000000000000000000000000000000000000000000000000000 PUSH1 0x40 DUP3 ADD MSTORE POP JUMP JUMPDEST PUSH0 PUSH2 0x3348 PUSH1 0x43 DUP4 PUSH2 0x26C6 JUMP JUMPDEST SWAP2 POP PUSH2 0x3353 DUP3 PUSH2 0x32C8 JUMP JUMPDEST PUSH1 0x60 DUP3 ADD SWAP1 POP SWAP2 SWAP1 POP JUMP JUMPDEST PUSH0 PUSH1 0x20 DUP3 ADD SWAP1 POP DUP2 DUP2 SUB PUSH0 DUP4 ADD MSTORE PUSH2 0x3375 DUP2 PUSH2 0x333C JUMP JUMPDEST SWAP1 POP SWAP2 SWAP1 POP JUMP JUMPDEST PUSH0 PUSH2 0x3386 DUP3 PUSH2 0x263C JUMP JUMPDEST SWAP2 POP PUSH2 0x3391 DUP4 PUSH2 0x263C JUMP JUMPDEST SWAP3 POP DUP3 PUSH2 0x33A1 JUMPI PUSH2 0x33A0 PUSH2 0x31B7 JUMP JUMPDEST JUMPDEST DUP3 DUP3 DIV SWAP1 POP SWAP3 SWAP2 POP POP JUMP JUMPDEST PUSH2 0x33B5 DUP3 PUSH2 0x26BC JUMP JUMPDEST PUSH8 0xFFFFFFFFFFFFFFFF DUP2 GT ISZERO PUSH2 0x33CE JUMPI PUSH2 0x33CD PUSH2 0x29DF JUMP JUMPDEST JUMPDEST PUSH2 0x33D8 DUP3 SLOAD PUSH2 0x2D07 JUMP JUMPDEST PUSH2 0x33E3 DUP3 DUP3 DUP6 PUSH2 0x2F61 JUMP JUMPDEST PUSH0 PUSH1 0x20 SWAP1 POP PUSH1 0x1F DUP4 GT PUSH1 0x1 DUP2 EQ PUSH2 0x3414 JUMPI PUSH0 DUP5 ISZERO PUSH2 0x3402 JUMPI DUP3 DUP8 ADD MLOAD SWAP1 POP JUMPDEST PUSH2 0x340C DUP6 DUP3 PUSH2 0x2FCF JUMP JUMPDEST DUP7 SSTORE POP PUSH2 0x3473 JUMP JUMPDEST PUSH1 0x1F NOT DUP5 AND PUSH2 0x3422 DUP7 PUSH2 0x2E4D JUMP JUMPDEST PUSH0 JUMPDEST DUP3 DUP2 LT ISZERO PUSH2 0x3449 JUMPI DUP5 DUP10 ADD MLOAD DUP3 SSTORE PUSH1 0x1 DUP3 ADD SWAP2 POP PUSH1 0x20 DUP6 ADD SWAP5 POP PUSH1 0x20 DUP2 ADD SWAP1 POP PUSH2 0x3424 JUMP JUMPDEST DUP7 DUP4 LT ISZERO PUSH2 0x3466 JUMPI DUP5 DUP10 ADD MLOAD PUSH2 0x3462 PUSH1 0x1F DUP10 AND DUP3 PUSH2 0x2FB3 JUMP JUMPDEST DUP4 SSTORE POP JUMPDEST PUSH1 0x1 PUSH1 0x2 DUP9 MUL ADD DUP9 SSTORE POP POP POP JUMPDEST POP POP POP POP POP POP JUMP JUMPDEST PUSH32 0x507572636861736520616D6F756E74206D757374206265206772656174657220 PUSH0 DUP3 ADD MSTORE PUSH32 0x7468616E20300000000000000000000000000000000000000000000000000000 PUSH1 0x20 DUP3 ADD MSTORE POP JUMP JUMPDEST PUSH0 PUSH2 0x34D5 PUSH1 0x26 DUP4 PUSH2 0x26C6 JUMP JUMPDEST SWAP2 POP PUSH2 0x34E0 DUP3 PUSH2 0x347B JUMP JUMPDEST PUSH1 0x40 DUP3 ADD SWAP1 POP SWAP2 SWAP1 POP JUMP JUMPDEST PUSH0 PUSH1 0x20 DUP3 ADD SWAP1 POP DUP2 DUP2 SUB PUSH0 DUP4 ADD MSTORE PUSH2 0x3502 DUP2 PUSH2 0x34C9 JUMP JUMPDEST SWAP1 POP SWAP2 SWAP1 POP JUMP JUMPDEST PUSH32 0x496E76616C69642070726F647563742049440000000000000000000000000000 PUSH0 DUP3 ADD MSTORE POP JUMP JUMPDEST PUSH0 PUSH2 0x353D PUSH1 0x12 DUP4 PUSH2 0x26C6 JUMP JUMPDEST SWAP2 POP PUSH2 0x3548 DUP3 PUSH2 0x3509 JUMP JUMPDEST PUSH1 0x20 DUP3 ADD SWAP1 POP SWAP2 SWAP1 POP JUMP JUMPDEST PUSH0 PUSH1 0x20 DUP3 ADD SWAP1 POP DUP2 DUP2 SUB PUSH0 DUP4 ADD MSTORE PUSH2 0x356A DUP2 PUSH2 0x3531 JUMP JUMPDEST SWAP1 POP SWAP2 SWAP1 POP JUMP JUMPDEST PUSH32 0x4E6F7420656E6F7567682073746F636B20617661696C61626C65000000000000 PUSH0 DUP3 ADD MSTORE POP JUMP JUMPDEST PUSH0 PUSH2 0x35A5 PUSH1 0x1A DUP4 PUSH2 0x26C6 JUMP JUMPDEST SWAP2 POP PUSH2 0x35B0 DUP3 PUSH2 0x3571 JUMP JUMPDEST PUSH1 0x20 DUP3 ADD SWAP1 POP SWAP2 SWAP1 POP JUMP JUMPDEST PUSH0 PUSH1 0x20 DUP3 ADD SWAP1 POP DUP2 DUP2 SUB PUSH0 DUP4 ADD MSTORE PUSH2 0x35D2 DUP2 PUSH2 0x3599 JUMP JUMPDEST SWAP1 POP SWAP2 SWAP1 POP JUMP JUMPDEST PUSH0 DUP2 SWAP1 POP SWAP3 SWAP2 POP POP JUMP JUMPDEST PUSH0 PUSH2 0x35ED DUP3 PUSH2 0x26BC JUMP JUMPDEST PUSH2 0x35F7 DUP2 DUP6 PUSH2 0x35D9 JUMP JUMPDEST SWAP4 POP PUSH2 0x3607 DUP2 DUP6 PUSH1 0x20 DUP7 ADD PUSH2 0x26D6 JUMP JUMPDEST DUP1 DUP5 ADD SWAP2 POP POP SWAP3 SWAP2 POP POP JUMP JUMPDEST PUSH0 PUSH2 0x361E DUP3 DUP5 PUSH2 0x35E3 JUMP JUMPDEST SWAP2 POP DUP2 SWAP1 POP SWAP3 SWAP2 POP POP JUMP JUMPDEST PUSH32 0x496E73756666696369656E742066756E64732073656E74000000000000000000 PUSH0 DUP3 ADD MSTORE POP JUMP JUMPDEST PUSH0 PUSH2 0x365D PUSH1 0x17 DUP4 PUSH2 0x26C6 JUMP JUMPDEST SWAP2 POP PUSH2 0x3668 DUP3 PUSH2 0x3629 JUMP JUMPDEST PUSH1 0x20 DUP3 ADD SWAP1 POP SWAP2 SWAP1 POP JUMP JUMPDEST PUSH0 PUSH1 0x20 DUP3 ADD SWAP1 POP DUP2 DUP2 SUB PUSH0 DUP4 ADD MSTORE PUSH2 0x368A DUP2 PUSH2 0x3651 JUMP JUMPDEST SWAP1 POP SWAP2 SWAP1 POP JUMP JUMPDEST PUSH0 DUP2 SWAP1 POP SWAP3 SWAP2 POP POP JUMP JUMPDEST PUSH0 DUP2 SWAP1 POP DUP2 PUSH0 MSTORE PUSH1 0x20 PUSH0 KECCAK256 SWAP1 POP SWAP2 SWAP1 POP JUMP JUMPDEST PUSH0 DUP2 SLOAD PUSH2 0x36B9 DUP2 PUSH2 0x2D07 JUMP JUMPDEST PUSH2 0x36C3 DUP2 DUP7 PUSH2 0x3691 JUMP JUMPDEST SWAP5 POP PUSH1 0x1 DUP3 AND PUSH0 DUP2 EQ PUSH2 0x36DD JUMPI PUSH1 0x1 DUP2 EQ PUSH2 0x36F2 JUMPI PUSH2 0x3724 JUMP JUMPDEST PUSH1 0xFF NOT DUP4 AND DUP7 MSTORE DUP2 ISZERO ISZERO DUP3 MUL DUP7 ADD SWAP4 POP PUSH2 0x3724 JUMP JUMPDEST PUSH2 0x36FB DUP6 PUSH2 0x369B JUMP JUMPDEST PUSH0 JUMPDEST DUP4 DUP2 LT ISZERO PUSH2 0x371C JUMPI DUP2 SLOAD DUP2 DUP10 ADD MSTORE PUSH1 0x1 DUP3 ADD SWAP2 POP PUSH1 0x20 DUP2 ADD SWAP1 POP PUSH2 0x36FD JUMP JUMPDEST DUP4 DUP9 ADD SWAP6 POP POP POP JUMPDEST POP POP POP SWAP3 SWAP2 POP POP JUMP JUMPDEST PUSH0 PUSH2 0x3738 DUP3 DUP5 PUSH2 0x36AD JUMP JUMPDEST SWAP2 POP DUP2 SWAP1 POP SWAP3 SWAP2 POP POP JUMP INVALID LOG2 PUSH5 0x6970667358 0x22 SLT KECCAK256 0x5C 0xC3 PUSH22 0x7757C1EEB6A3A55FA5E685D3B89D2F762B5472D2B982 AND 0xDA XOR RETURNDATASIZE CHAINID KECCAK256 CALLDATALOAD PUSH5 0x736F6C6343 STOP ADDMOD ISZERO STOP CALLER "
				},
				"gasEstimates": {
					"creation": {
						"codeDepositCost": "2840200",
						"executionCost": "27363",
						"totalCost": "2867563"
					},
					"external": {
						"addItemsSupplier(uint256,uint256,string,uint256,address)": "infinite",
						"approveChangeRole(uint256)": "infinite",
						"changeRole(uint8)": "73444",
						"genRef(string,address)": "infinite",
						"makeMarket()": "29711",
						"makeSupplier()": "29712",
						"makeUser()": "infinite",
						"owner()": "2553",
						"productItems(address,uint256)": "infinite",
						"purchase(address,uint256,uint256,string)": "infinite",
						"randMod(uint256)": "infinite",
						"referrals(string)": "infinite",
						"refillStore(address,uint256,uint256,address)": "infinite",
						"refund(address,uint256)": "infinite",
						"tickets(uint256)": "7379",
						"userProducts(address,uint256)": "infinite",
						"users(address)": "5177",
						"withdrawBal(address)": "infinite"
					}
				},
				"methodIdentifiers": {
					"addItemsSupplier(uint256,uint256,string,uint256,address)": "861c2b6d",
					"approveChangeRole(uint256)": "6f764708",
					"changeRole(uint8)": "55dea0b3",
					"genRef(string,address)": "a1ba90b6",
					"makeMarket()": "66d0dc67",
					"makeSupplier()": "3dfe7dee",
					"makeUser()": "d18a524a",
					"owner()": "8da5cb5b",
					"productItems(address,uint256)": "0e345d83",
					"purchase(address,uint256,uint256,string)": "9f1cd587",
					"randMod(uint256)": "805553e8",
					"referrals(string)": "d55768dd",
					"refillStore(address,uint256,uint256,address)": "fecd8f79",
					"refund(address,uint256)": "410085df",
					"tickets(uint256)": "50b44712",
					"userProducts(address,uint256)": "3d527883",
					"users(address)": "a87430ba",
					"withdrawBal(address)": "f67a2ad1"
				}
			},
			"storageLayout": {
				"storage": [
					{
						"astId": 9,
						"contract": "contracts/Test.sol:MarketPlace",
						"label": "tickets",
						"offset": 0,
						"slot": "0",
						"type": "t_array(t_struct(Ticket)26_storage)dyn_storage"
					},
					{
						"astId": 11,
						"contract": "contracts/Test.sol:MarketPlace",
						"label": "owner",
						"offset": 0,
						"slot": "1",
						"type": "t_address"
					},
					{
						"astId": 46,
						"contract": "contracts/Test.sol:MarketPlace",
						"label": "users",
						"offset": 0,
						"slot": "2",
						"type": "t_mapping(t_address,t_struct(User)32_storage)"
					},
					{
						"astId": 52,
						"contract": "contracts/Test.sol:MarketPlace",
						"label": "userProducts",
						"offset": 0,
						"slot": "3",
						"type": "t_mapping(t_address,t_array(t_struct(Product)41_storage)dyn_storage)"
					},
					{
						"astId": 56,
						"contract": "contracts/Test.sol:MarketPlace",
						"label": "referrals",
						"offset": 0,
						"slot": "4",
						"type": "t_mapping(t_string_memory_ptr,t_address)"
					},
					{
						"astId": 62,
						"contract": "contracts/Test.sol:MarketPlace",
						"label": "productItems",
						"offset": 0,
						"slot": "5",
						"type": "t_mapping(t_address,t_array(t_struct(Product)41_storage)dyn_storage)"
					}
				],
				"types": {
					"t_address": {
						"encoding": "inplace",
						"label": "address",
						"numberOfBytes": "20"
					},
					"t_array(t_struct(Product)41_storage)dyn_storage": {
						"base": "t_struct(Product)41_storage",
						"encoding": "dynamic_array",
						"label": "struct MarketPlace.Product[]",
						"numberOfBytes": "32"
					},
					"t_array(t_struct(Ticket)26_storage)dyn_storage": {
						"base": "t_struct(Ticket)26_storage",
						"encoding": "dynamic_array",
						"label": "struct MarketPlace.Ticket[]",
						"numberOfBytes": "32"
					},
					"t_enum(Role)5": {
						"encoding": "inplace",
						"label": "enum MarketPlace.Role",
						"numberOfBytes": "1"
					},
					"t_mapping(t_address,t_array(t_struct(Product)41_storage)dyn_storage)": {
						"encoding": "mapping",
						"key": "t_address",
						"label": "mapping(address => struct MarketPlace.Product[])",
						"numberOfBytes": "32",
						"value": "t_array(t_struct(Product)41_storage)dyn_storage"
					},
					"t_mapping(t_address,t_struct(User)32_storage)": {
						"encoding": "mapping",
						"key": "t_address",
						"label": "mapping(address => struct MarketPlace.User)",
						"numberOfBytes": "32",
						"value": "t_struct(User)32_storage"
					},
					"t_mapping(t_string_memory_ptr,t_address)": {
						"encoding": "mapping",
						"key": "t_string_memory_ptr",
						"label": "mapping(string => address)",
						"numberOfBytes": "32",
						"value": "t_address"
					},
					"t_string_memory_ptr": {
						"encoding": "bytes",
						"label": "string",
						"numberOfBytes": "32"
					},
					"t_string_storage": {
						"encoding": "bytes",
						"label": "string",
						"numberOfBytes": "32"
					},
					"t_struct(Product)41_storage": {
						"encoding": "inplace",
						"label": "struct MarketPlace.Product",
						"members": [
							{
								"astId": 34,
								"contract": "contracts/Test.sol:MarketPlace",
								"label": "inStock",
								"offset": 0,
								"slot": "0",
								"type": "t_uint256"
							},
							{
								"astId": 36,
								"contract": "contracts/Test.sol:MarketPlace",
								"label": "price",
								"offset": 0,
								"slot": "1",
								"type": "t_uint256"
							},
							{
								"astId": 38,
								"contract": "contracts/Test.sol:MarketPlace",
								"label": "name",
								"offset": 0,
								"slot": "2",
								"type": "t_string_storage"
							},
							{
								"astId": 40,
								"contract": "contracts/Test.sol:MarketPlace",
								"label": "expDate",
								"offset": 0,
								"slot": "3",
								"type": "t_uint256"
							}
						],
						"numberOfBytes": "128"
					},
					"t_struct(Ticket)26_storage": {
						"encoding": "inplace",
						"label": "struct MarketPlace.Ticket",
						"members": [
							{
								"astId": 22,
								"contract": "contracts/Test.sol:MarketPlace",
								"label": "userAddr",
								"offset": 0,
								"slot": "0",
								"type": "t_address"
							},
							{
								"astId": 25,
								"contract": "contracts/Test.sol:MarketPlace",
								"label": "role",
								"offset": 20,
								"slot": "0",
								"type": "t_enum(Role)5"
							}
						],
						"numberOfBytes": "32"
					},
					"t_struct(User)32_storage": {
						"encoding": "inplace",
						"label": "struct MarketPlace.User",
						"members": [
							{
								"astId": 29,
								"contract": "contracts/Test.sol:MarketPlace",
								"label": "role",
								"offset": 0,
								"slot": "0",
								"type": "t_enum(Role)5"
							},
							{
								"astId": 31,
								"contract": "contracts/Test.sol:MarketPlace",
								"label": "balance",
								"offset": 0,
								"slot": "1",
								"type": "t_uint256"
							}
						],
						"numberOfBytes": "64"
					},
					"t_uint256": {
						"encoding": "inplace",
						"label": "uint256",
						"numberOfBytes": "32"
					}
				}
			},
			"userdoc": {
				"kind": "user",
				"methods": {},
				"version": 1
			}
		}
	}
}