{
	"contracts/MarketPlace.sol": {
		"MarketPlace": {
			"abi": [
				{
					"inputs": [],
					"stateMutability": "nonpayable",
					"type": "constructor"
				},
				{
					"inputs": [
						{
							"internalType": "bool",
							"name": "_status",
							"type": "bool"
						},
						{
							"internalType": "uint256",
							"name": "_deliveryId",
							"type": "uint256"
						}
					],
					"name": "acceptDelivery",
					"outputs": [],
					"stateMutability": "payable",
					"type": "function"
				},
				{
					"inputs": [
						{
							"internalType": "uint256",
							"name": "_inStock",
							"type": "uint256"
						},
						{
							"internalType": "uint256",
							"name": "_price",
							"type": "uint256"
						},
						{
							"internalType": "string",
							"name": "_name",
							"type": "string"
						},
						{
							"internalType": "uint256",
							"name": "_expDate",
							"type": "uint256"
						}
					],
					"name": "addItemsMarket",
					"outputs": [],
					"stateMutability": "nonpayable",
					"type": "function"
				},
				{
					"inputs": [
						{
							"internalType": "uint256",
							"name": "_inStock",
							"type": "uint256"
						},
						{
							"internalType": "uint256",
							"name": "_price",
							"type": "uint256"
						},
						{
							"internalType": "string",
							"name": "_name",
							"type": "string"
						},
						{
							"internalType": "uint256",
							"name": "_expDate",
							"type": "uint256"
						},
						{
							"internalType": "address",
							"name": "_addressSupp",
							"type": "address"
						}
					],
					"name": "addItemsSupplier",
					"outputs": [],
					"stateMutability": "nonpayable",
					"type": "function"
				},
				{
					"inputs": [
						{
							"internalType": "uint256",
							"name": "_idTicket",
							"type": "uint256"
						}
					],
					"name": "approveChangeRole",
					"outputs": [],
					"stateMutability": "nonpayable",
					"type": "function"
				},
				{
					"inputs": [
						{
							"internalType": "bool",
							"name": "_status",
							"type": "bool"
						},
						{
							"internalType": "uint256",
							"name": "_deliveryId",
							"type": "uint256"
						}
					],
					"name": "approveDelivery",
					"outputs": [],
					"stateMutability": "nonpayable",
					"type": "function"
				},
				{
					"inputs": [
						{
							"internalType": "enum MarketPlace.Role",
							"name": "_role",
							"type": "uint8"
						}
					],
					"name": "changeRole",
					"outputs": [],
					"stateMutability": "nonpayable",
					"type": "function"
				},
				{
					"inputs": [
						{
							"internalType": "uint256",
							"name": "",
							"type": "uint256"
						}
					],
					"name": "deliveryOrders",
					"outputs": [
						{
							"internalType": "address",
							"name": "userAddr",
							"type": "address"
						},
						{
							"internalType": "address",
							"name": "shop",
							"type": "address"
						},
						{
							"internalType": "enum MarketPlace.Status",
							"name": "status",
							"type": "uint8"
						},
						{
							"internalType": "string",
							"name": "trackNumber",
							"type": "string"
						},
						{
							"internalType": "uint256",
							"name": "productId",
							"type": "uint256"
						},
						{
							"internalType": "uint256",
							"name": "amount",
							"type": "uint256"
						}
					],
					"stateMutability": "view",
					"type": "function"
				},
				{
					"inputs": [
						{
							"internalType": "string",
							"name": "_nameRef",
							"type": "string"
						},
						{
							"internalType": "address",
							"name": "_user",
							"type": "address"
						}
					],
					"name": "genRef",
					"outputs": [],
					"stateMutability": "nonpayable",
					"type": "function"
				},
				{
					"inputs": [
						{
							"internalType": "address",
							"name": "_shop",
							"type": "address"
						},
						{
							"internalType": "uint256",
							"name": "_productId",
							"type": "uint256"
						},
						{
							"internalType": "uint256",
							"name": "_amount",
							"type": "uint256"
						}
					],
					"name": "makeDelivery",
					"outputs": [],
					"stateMutability": "nonpayable",
					"type": "function"
				},
				{
					"inputs": [],
					"name": "makeMarket",
					"outputs": [],
					"stateMutability": "nonpayable",
					"type": "function"
				},
				{
					"inputs": [],
					"name": "makeSupplier",
					"outputs": [],
					"stateMutability": "nonpayable",
					"type": "function"
				},
				{
					"inputs": [],
					"name": "makeUser",
					"outputs": [],
					"stateMutability": "nonpayable",
					"type": "function"
				},
				{
					"inputs": [
						{
							"internalType": "address",
							"name": "",
							"type": "address"
						},
						{
							"internalType": "uint256",
							"name": "",
							"type": "uint256"
						}
					],
					"name": "marketProducts",
					"outputs": [
						{
							"internalType": "address",
							"name": "userAddress",
							"type": "address"
						},
						{
							"internalType": "uint256",
							"name": "inStock",
							"type": "uint256"
						},
						{
							"internalType": "uint256",
							"name": "price",
							"type": "uint256"
						},
						{
							"internalType": "string",
							"name": "name",
							"type": "string"
						},
						{
							"internalType": "uint256",
							"name": "expDate",
							"type": "uint256"
						}
					],
					"stateMutability": "view",
					"type": "function"
				},
				{
					"inputs": [],
					"name": "owner",
					"outputs": [
						{
							"internalType": "address",
							"name": "",
							"type": "address"
						}
					],
					"stateMutability": "view",
					"type": "function"
				},
				{
					"inputs": [
						{
							"internalType": "address",
							"name": "_shop",
							"type": "address"
						},
						{
							"internalType": "uint256",
							"name": "_amount",
							"type": "uint256"
						},
						{
							"internalType": "uint256",
							"name": "_id",
							"type": "uint256"
						},
						{
							"internalType": "string",
							"name": "_ref",
							"type": "string"
						}
					],
					"name": "purchase",
					"outputs": [],
					"stateMutability": "payable",
					"type": "function"
				},
				{
					"inputs": [
						{
							"internalType": "uint256",
							"name": "_modulus",
							"type": "uint256"
						}
					],
					"name": "randMod",
					"outputs": [
						{
							"internalType": "uint256",
							"name": "",
							"type": "uint256"
						}
					],
					"stateMutability": "view",
					"type": "function"
				},
				{
					"inputs": [
						{
							"internalType": "string",
							"name": "",
							"type": "string"
						}
					],
					"name": "referrals",
					"outputs": [
						{
							"internalType": "address",
							"name": "",
							"type": "address"
						}
					],
					"stateMutability": "view",
					"type": "function"
				},
				{
					"inputs": [
						{
							"internalType": "address",
							"name": "_shop",
							"type": "address"
						},
						{
							"internalType": "uint256",
							"name": "_productId",
							"type": "uint256"
						},
						{
							"internalType": "uint256",
							"name": "_amount",
							"type": "uint256"
						},
						{
							"internalType": "address",
							"name": "_supplier",
							"type": "address"
						}
					],
					"name": "refillStore",
					"outputs": [],
					"stateMutability": "payable",
					"type": "function"
				},
				{
					"inputs": [
						{
							"internalType": "address",
							"name": "_shop",
							"type": "address"
						},
						{
							"internalType": "uint256",
							"name": "_productId",
							"type": "uint256"
						}
					],
					"name": "refund",
					"outputs": [],
					"stateMutability": "nonpayable",
					"type": "function"
				},
				{
					"inputs": [
						{
							"internalType": "address",
							"name": "",
							"type": "address"
						},
						{
							"internalType": "uint256",
							"name": "",
							"type": "uint256"
						}
					],
					"name": "supplierProducts",
					"outputs": [
						{
							"internalType": "address",
							"name": "userAddress",
							"type": "address"
						},
						{
							"internalType": "uint256",
							"name": "inStock",
							"type": "uint256"
						},
						{
							"internalType": "uint256",
							"name": "price",
							"type": "uint256"
						},
						{
							"internalType": "string",
							"name": "name",
							"type": "string"
						},
						{
							"internalType": "uint256",
							"name": "expDate",
							"type": "uint256"
						}
					],
					"stateMutability": "view",
					"type": "function"
				},
				{
					"inputs": [
						{
							"internalType": "uint256",
							"name": "",
							"type": "uint256"
						}
					],
					"name": "tickets",
					"outputs": [
						{
							"internalType": "address",
							"name": "userAddr",
							"type": "address"
						},
						{
							"internalType": "enum MarketPlace.Role",
							"name": "role",
							"type": "uint8"
						}
					],
					"stateMutability": "view",
					"type": "function"
				},
				{
					"inputs": [
						{
							"internalType": "string",
							"name": "input",
							"type": "string"
						}
					],
					"name": "toUpper",
					"outputs": [
						{
							"internalType": "string",
							"name": "",
							"type": "string"
						}
					],
					"stateMutability": "pure",
					"type": "function"
				},
				{
					"inputs": [
						{
							"internalType": "address",
							"name": "",
							"type": "address"
						},
						{
							"internalType": "uint256",
							"name": "",
							"type": "uint256"
						}
					],
					"name": "userProducts",
					"outputs": [
						{
							"internalType": "address",
							"name": "userAddress",
							"type": "address"
						},
						{
							"internalType": "uint256",
							"name": "inStock",
							"type": "uint256"
						},
						{
							"internalType": "uint256",
							"name": "price",
							"type": "uint256"
						},
						{
							"internalType": "string",
							"name": "name",
							"type": "string"
						},
						{
							"internalType": "uint256",
							"name": "expDate",
							"type": "uint256"
						}
					],
					"stateMutability": "view",
					"type": "function"
				},
				{
					"inputs": [
						{
							"internalType": "address",
							"name": "",
							"type": "address"
						}
					],
					"name": "users",
					"outputs": [
						{
							"internalType": "enum MarketPlace.Role",
							"name": "role",
							"type": "uint8"
						},
						{
							"internalType": "uint256",
							"name": "balance",
							"type": "uint256"
						}
					],
					"stateMutability": "view",
					"type": "function"
				},
				{
					"inputs": [
						{
							"internalType": "address",
							"name": "_shop",
							"type": "address"
						}
					],
					"name": "withdrawBal",
					"outputs": [],
					"stateMutability": "nonpayable",
					"type": "function"
				}
			],
			"devdoc": {
				"kind": "dev",
				"methods": {},
				"version": 1
			},
			"evm": {
				"assembly": "    /* \"contracts/MarketPlace.sol\":60:8339  contract MarketPlace {... */\n  mstore(0x40, 0x80)\n    /* \"contracts/MarketPlace.sol\":292:341  constructor() {... */\n  callvalue\n  dup1\n  iszero\n  tag_1\n  jumpi\n  0x00\n  dup1\n  revert\ntag_1:\n  pop\n    /* \"contracts/MarketPlace.sol\":324:334  msg.sender */\n  caller\n    /* \"contracts/MarketPlace.sol\":316:321  owner */\n  0x01\n  0x00\n    /* \"contracts/MarketPlace.sol\":316:334  owner = msg.sender */\n  0x0100\n  exp\n  dup2\n  sload\n  dup2\n  0xffffffffffffffffffffffffffffffffffffffff\n  mul\n  not\n  and\n  swap1\n  dup4\n  0xffffffffffffffffffffffffffffffffffffffff\n  and\n  mul\n  or\n  swap1\n  sstore\n  pop\n    /* \"contracts/MarketPlace.sol\":60:8339  contract MarketPlace {... */\n  dataSize(sub_0)\n  dup1\n  dataOffset(sub_0)\n  0x00\n  codecopy\n  0x00\n  return\nstop\n\nsub_0: assembly {\n        /* \"contracts/MarketPlace.sol\":60:8339  contract MarketPlace {... */\n      mstore(0x40, 0x80)\n      jumpi(tag_1, lt(calldatasize, 0x04))\n      shr(0xe0, calldataload(0x00))\n      dup1\n      0x7555bf10\n      gt\n      tag_27\n      jumpi\n      dup1\n      0xa1ba90b6\n      gt\n      tag_28\n      jumpi\n      dup1\n      0xd55768dd\n      gt\n      tag_29\n      jumpi\n      dup1\n      0xd55768dd\n      eq\n      tag_23\n      jumpi\n      dup1\n      0xda76af31\n      eq\n      tag_24\n      jumpi\n      dup1\n      0xf67a2ad1\n      eq\n      tag_25\n      jumpi\n      dup1\n      0xfecd8f79\n      eq\n      tag_26\n      jumpi\n      jump(tag_1)\n    tag_29:\n      dup1\n      0xa1ba90b6\n      eq\n      tag_20\n      jumpi\n      dup1\n      0xa87430ba\n      eq\n      tag_21\n      jumpi\n      dup1\n      0xd18a524a\n      eq\n      tag_22\n      jumpi\n      jump(tag_1)\n    tag_28:\n      dup1\n      0x7555bf10\n      eq\n      tag_14\n      jumpi\n      dup1\n      0x7eb33a58\n      eq\n      tag_15\n      jumpi\n      dup1\n      0x805553e8\n      eq\n      tag_16\n      jumpi\n      dup1\n      0x861c2b6d\n      eq\n      tag_17\n      jumpi\n      dup1\n      0x8da5cb5b\n      eq\n      tag_18\n      jumpi\n      dup1\n      0x9f1cd587\n      eq\n      tag_19\n      jumpi\n      jump(tag_1)\n    tag_27:\n      dup1\n      0x4f424547\n      gt\n      tag_30\n      jumpi\n      dup1\n      0x4f424547\n      eq\n      tag_8\n      jumpi\n      dup1\n      0x50b44712\n      eq\n      tag_9\n      jumpi\n      dup1\n      0x55dea0b3\n      eq\n      tag_10\n      jumpi\n      dup1\n      0x62dd748c\n      eq\n      tag_11\n      jumpi\n      dup1\n      0x66d0dc67\n      eq\n      tag_12\n      jumpi\n      dup1\n      0x6f764708\n      eq\n      tag_13\n      jumpi\n      jump(tag_1)\n    tag_30:\n      dup1\n      0x8de16a\n      eq\n      tag_2\n      jumpi\n      dup1\n      0x1cc11721\n      eq\n      tag_3\n      jumpi\n      dup1\n      0x27b90b1b\n      eq\n      tag_4\n      jumpi\n      dup1\n      0x3d527883\n      eq\n      tag_5\n      jumpi\n      dup1\n      0x3dfe7dee\n      eq\n      tag_6\n      jumpi\n      dup1\n      0x410085df\n      eq\n      tag_7\n      jumpi\n    tag_1:\n      0x00\n      dup1\n      revert\n        /* \"contracts/MarketPlace.sol\":4459:4735  function addItemsMarket(uint _inStock, uint _price, string calldata _name, uint _expDate) public AccessControl(Role.Market, msg.sender) {... */\n    tag_2:\n      callvalue\n      dup1\n      iszero\n      tag_31\n      jumpi\n      0x00\n      dup1\n      revert\n    tag_31:\n      pop\n      tag_32\n      0x04\n      dup1\n      calldatasize\n      sub\n      dup2\n      add\n      swap1\n      tag_33\n      swap2\n      swap1\n      tag_34\n      jump\t// in\n    tag_33:\n      tag_35\n      jump\t// in\n    tag_32:\n      stop\n        /* \"contracts/MarketPlace.sol\":248:285  DeliveryOrder[] public deliveryOrders */\n    tag_3:\n      callvalue\n      dup1\n      iszero\n      tag_36\n      jumpi\n      0x00\n      dup1\n      revert\n    tag_36:\n      pop\n      tag_37\n      0x04\n      dup1\n      calldatasize\n      sub\n      dup2\n      add\n      swap1\n      tag_38\n      swap2\n      swap1\n      tag_39\n      jump\t// in\n    tag_38:\n      tag_40\n      jump\t// in\n    tag_37:\n      mload(0x40)\n      tag_41\n      swap7\n      swap6\n      swap5\n      swap4\n      swap3\n      swap2\n      swap1\n      tag_42\n      jump\t// in\n    tag_41:\n      mload(0x40)\n      dup1\n      swap2\n      sub\n      swap1\n      return\n        /* \"contracts/MarketPlace.sol\":961:1014  mapping(address => Product[]) public supplierProducts */\n    tag_4:\n      callvalue\n      dup1\n      iszero\n      tag_43\n      jumpi\n      0x00\n      dup1\n      revert\n    tag_43:\n      pop\n      tag_44\n      0x04\n      dup1\n      calldatasize\n      sub\n      dup2\n      add\n      swap1\n      tag_45\n      swap2\n      swap1\n      tag_46\n      jump\t// in\n    tag_45:\n      tag_47\n      jump\t// in\n    tag_44:\n      mload(0x40)\n      tag_48\n      swap6\n      swap5\n      swap4\n      swap3\n      swap2\n      swap1\n      tag_49\n      jump\t// in\n    tag_48:\n      mload(0x40)\n      dup1\n      swap2\n      sub\n      swap1\n      return\n        /* \"contracts/MarketPlace.sol\":849:898  mapping(address => Product[]) public userProducts */\n    tag_5:\n      callvalue\n      dup1\n      iszero\n      tag_50\n      jumpi\n      0x00\n      dup1\n      revert\n    tag_50:\n      pop\n      tag_51\n      0x04\n      dup1\n      calldatasize\n      sub\n      dup2\n      add\n      swap1\n      tag_52\n      swap2\n      swap1\n      tag_46\n      jump\t// in\n    tag_52:\n      tag_53\n      jump\t// in\n    tag_51:\n      mload(0x40)\n      tag_54\n      swap6\n      swap5\n      swap4\n      swap3\n      swap2\n      swap1\n      tag_49\n      jump\t// in\n    tag_54:\n      mload(0x40)\n      dup1\n      swap2\n      sub\n      swap1\n      return\n        /* \"contracts/MarketPlace.sol\":1488:1578  function makeSupplier() public {... */\n    tag_6:\n      callvalue\n      dup1\n      iszero\n      tag_55\n      jumpi\n      0x00\n      dup1\n      revert\n    tag_55:\n      pop\n      tag_56\n      tag_57\n      jump\t// in\n    tag_56:\n      stop\n        /* \"contracts/MarketPlace.sol\":6080:6623  function refund(address _shop, uint _productId) public {... */\n    tag_7:\n      callvalue\n      dup1\n      iszero\n      tag_58\n      jumpi\n      0x00\n      dup1\n      revert\n    tag_58:\n      pop\n      tag_59\n      0x04\n      dup1\n      calldatasize\n      sub\n      dup2\n      add\n      swap1\n      tag_60\n      swap2\n      swap1\n      tag_46\n      jump\t// in\n    tag_60:\n      tag_61\n      jump\t// in\n    tag_59:\n      stop\n        /* \"contracts/MarketPlace.sol\":904:955  mapping(address => Product[]) public marketProducts */\n    tag_8:\n      callvalue\n      dup1\n      iszero\n      tag_62\n      jumpi\n      0x00\n      dup1\n      revert\n    tag_62:\n      pop\n      tag_63\n      0x04\n      dup1\n      calldatasize\n      sub\n      dup2\n      add\n      swap1\n      tag_64\n      swap2\n      swap1\n      tag_46\n      jump\t// in\n    tag_64:\n      tag_65\n      jump\t// in\n    tag_63:\n      mload(0x40)\n      tag_66\n      swap6\n      swap5\n      swap4\n      swap3\n      swap2\n      swap1\n      tag_49\n      jump\t// in\n    tag_66:\n      mload(0x40)\n      dup1\n      swap2\n      sub\n      swap1\n      return\n        /* \"contracts/MarketPlace.sol\":193:216  Ticket[] public tickets */\n    tag_9:\n      callvalue\n      dup1\n      iszero\n      tag_67\n      jumpi\n      0x00\n      dup1\n      revert\n    tag_67:\n      pop\n      tag_68\n      0x04\n      dup1\n      calldatasize\n      sub\n      dup2\n      add\n      swap1\n      tag_69\n      swap2\n      swap1\n      tag_39\n      jump\t// in\n    tag_69:\n      tag_70\n      jump\t// in\n    tag_68:\n      mload(0x40)\n      tag_71\n      swap3\n      swap2\n      swap1\n      tag_72\n      jump\t// in\n    tag_71:\n      mload(0x40)\n      dup1\n      swap2\n      sub\n      swap1\n      return\n        /* \"contracts/MarketPlace.sol\":1902:1997  function changeRole(Role _role) public {... */\n    tag_10:\n      callvalue\n      dup1\n      iszero\n      tag_73\n      jumpi\n      0x00\n      dup1\n      revert\n    tag_73:\n      pop\n      tag_74\n      0x04\n      dup1\n      calldatasize\n      sub\n      dup2\n      add\n      swap1\n      tag_75\n      swap2\n      swap1\n      tag_76\n      jump\t// in\n    tag_75:\n      tag_77\n      jump\t// in\n    tag_74:\n      stop\n        /* \"contracts/MarketPlace.sol\":2221:2611  function toUpper(string memory input) public pure returns (string memory) {... */\n    tag_11:\n      callvalue\n      dup1\n      iszero\n      tag_78\n      jumpi\n      0x00\n      dup1\n      revert\n    tag_78:\n      pop\n      tag_79\n      0x04\n      dup1\n      calldatasize\n      sub\n      dup2\n      add\n      swap1\n      tag_80\n      swap2\n      swap1\n      tag_81\n      jump\t// in\n    tag_80:\n      tag_82\n      jump\t// in\n    tag_79:\n      mload(0x40)\n      tag_83\n      swap2\n      swap1\n      tag_84\n      jump\t// in\n    tag_83:\n      mload(0x40)\n      dup1\n      swap2\n      sub\n      swap1\n      return\n        /* \"contracts/MarketPlace.sol\":1584:1671  function makeMarket() public  {... */\n    tag_12:\n      callvalue\n      dup1\n      iszero\n      tag_85\n      jumpi\n      0x00\n      dup1\n      revert\n    tag_85:\n      pop\n      tag_86\n      tag_87\n      jump\t// in\n    tag_86:\n      stop\n        /* \"contracts/MarketPlace.sol\":1677:1896  function approveChangeRole(uint _idTicket) public OnlyOwner {... */\n    tag_13:\n      callvalue\n      dup1\n      iszero\n      tag_88\n      jumpi\n      0x00\n      dup1\n      revert\n    tag_88:\n      pop\n      tag_89\n      0x04\n      dup1\n      calldatasize\n      sub\n      dup2\n      add\n      swap1\n      tag_90\n      swap2\n      swap1\n      tag_39\n      jump\t// in\n    tag_90:\n      tag_91\n      jump\t// in\n    tag_89:\n      stop\n        /* \"contracts/MarketPlace.sol\":2768:3395  function makeDelivery(address _shop, uint _productId, uint _amount) public AccessControl(Role.User, msg.sender) {... */\n    tag_14:\n      callvalue\n      dup1\n      iszero\n      tag_92\n      jumpi\n      0x00\n      dup1\n      revert\n    tag_92:\n      pop\n      tag_93\n      0x04\n      dup1\n      calldatasize\n      sub\n      dup2\n      add\n      swap1\n      tag_94\n      swap2\n      swap1\n      tag_95\n      jump\t// in\n    tag_94:\n      tag_96\n      jump\t// in\n    tag_93:\n      stop\n        /* \"contracts/MarketPlace.sol\":3401:3703  function approveDelivery(bool _status, uint _deliveryId) public AccessControl(Role.Market, msg.sender) {... */\n    tag_15:\n      callvalue\n      dup1\n      iszero\n      tag_97\n      jumpi\n      0x00\n      dup1\n      revert\n    tag_97:\n      pop\n      tag_98\n      0x04\n      dup1\n      calldatasize\n      sub\n      dup2\n      add\n      swap1\n      tag_99\n      swap2\n      swap1\n      tag_100\n      jump\t// in\n    tag_99:\n      tag_101\n      jump\t// in\n    tag_98:\n      stop\n        /* \"contracts/MarketPlace.sol\":2003:2215  function randMod(uint _modulus) public view returns(uint) {   ... */\n    tag_16:\n      callvalue\n      dup1\n      iszero\n      tag_102\n      jumpi\n      0x00\n      dup1\n      revert\n    tag_102:\n      pop\n      tag_103\n      0x04\n      dup1\n      calldatasize\n      sub\n      dup2\n      add\n      swap1\n      tag_104\n      swap2\n      swap1\n      tag_39\n      jump\t// in\n    tag_104:\n      tag_105\n      jump\t// in\n    tag_103:\n      mload(0x40)\n      tag_106\n      swap2\n      swap1\n      tag_107\n      jump\t// in\n    tag_106:\n      mload(0x40)\n      dup1\n      swap2\n      sub\n      swap1\n      return\n        /* \"contracts/MarketPlace.sol\":4139:4453  function addItemsSupplier(uint _inStock, uint _price, string calldata _name, uint _expDate, address _addressSupp) public AccessControl(Role.Supplier, _addressSupp) {... */\n    tag_17:\n      callvalue\n      dup1\n      iszero\n      tag_108\n      jumpi\n      0x00\n      dup1\n      revert\n    tag_108:\n      pop\n      tag_109\n      0x04\n      dup1\n      calldatasize\n      sub\n      dup2\n      add\n      swap1\n      tag_110\n      swap2\n      swap1\n      tag_111\n      jump\t// in\n    tag_110:\n      tag_112\n      jump\t// in\n    tag_109:\n      stop\n        /* \"contracts/MarketPlace.sol\":222:242  address public owner */\n    tag_18:\n      callvalue\n      dup1\n      iszero\n      tag_113\n      jumpi\n      0x00\n      dup1\n      revert\n    tag_113:\n      pop\n      tag_114\n      tag_115\n      jump\t// in\n    tag_114:\n      mload(0x40)\n      tag_116\n      swap2\n      swap1\n      tag_117\n      jump\t// in\n    tag_116:\n      mload(0x40)\n      dup1\n      swap2\n      sub\n      swap1\n      return\n        /* \"contracts/MarketPlace.sol\":6629:8226  function purchase(address _shop, uint _amount, uint _id, string memory _ref ) public payable {... */\n    tag_19:\n      tag_118\n      0x04\n      dup1\n      calldatasize\n      sub\n      dup2\n      add\n      swap1\n      tag_119\n      swap2\n      swap1\n      tag_120\n      jump\t// in\n    tag_119:\n      tag_121\n      jump\t// in\n    tag_118:\n      stop\n        /* \"contracts/MarketPlace.sol\":2617:2761  function genRef(string memory _nameRef, address _user) public {... */\n    tag_20:\n      callvalue\n      dup1\n      iszero\n      tag_122\n      jumpi\n      0x00\n      dup1\n      revert\n    tag_122:\n      pop\n      tag_123\n      0x04\n      dup1\n      calldatasize\n      sub\n      dup2\n      add\n      swap1\n      tag_124\n      swap2\n      swap1\n      tag_125\n      jump\t// in\n    tag_124:\n      tag_126\n      jump\t// in\n    tag_123:\n      stop\n        /* \"contracts/MarketPlace.sol\":806:843  mapping(address => User) public users */\n    tag_21:\n      callvalue\n      dup1\n      iszero\n      tag_127\n      jumpi\n      0x00\n      dup1\n      revert\n    tag_127:\n      pop\n      tag_128\n      0x04\n      dup1\n      calldatasize\n      sub\n      dup2\n      add\n      swap1\n      tag_129\n      swap2\n      swap1\n      tag_130\n      jump\t// in\n    tag_129:\n      tag_131\n      jump\t// in\n    tag_128:\n      mload(0x40)\n      tag_132\n      swap3\n      swap2\n      swap1\n      tag_133\n      jump\t// in\n    tag_132:\n      mload(0x40)\n      dup1\n      swap2\n      sub\n      swap1\n      return\n        /* \"contracts/MarketPlace.sol\":1400:1482  function makeUser() public {... */\n    tag_22:\n      callvalue\n      dup1\n      iszero\n      tag_134\n      jumpi\n      0x00\n      dup1\n      revert\n    tag_134:\n      pop\n      tag_135\n      tag_136\n      jump\t// in\n    tag_135:\n      stop\n        /* \"contracts/MarketPlace.sol\":1020:1063  mapping(string => address) public referrals */\n    tag_23:\n      callvalue\n      dup1\n      iszero\n      tag_137\n      jumpi\n      0x00\n      dup1\n      revert\n    tag_137:\n      pop\n      tag_138\n      0x04\n      dup1\n      calldatasize\n      sub\n      dup2\n      add\n      swap1\n      tag_139\n      swap2\n      swap1\n      tag_81\n      jump\t// in\n    tag_139:\n      tag_140\n      jump\t// in\n    tag_138:\n      mload(0x40)\n      tag_141\n      swap2\n      swap1\n      tag_117\n      jump\t// in\n    tag_141:\n      mload(0x40)\n      dup1\n      swap2\n      sub\n      swap1\n      return\n        /* \"contracts/MarketPlace.sol\":3709:4133  function acceptDelivery(bool _status, uint _deliveryId) public payable AccessControl(Role.User, msg.sender) {... */\n    tag_24:\n      tag_142\n      0x04\n      dup1\n      calldatasize\n      sub\n      dup2\n      add\n      swap1\n      tag_143\n      swap2\n      swap1\n      tag_100\n      jump\t// in\n    tag_143:\n      tag_144\n      jump\t// in\n    tag_142:\n      stop\n        /* \"contracts/MarketPlace.sol\":8232:8337  function withdrawBal(address _shop) public {... */\n    tag_25:\n      callvalue\n      dup1\n      iszero\n      tag_145\n      jumpi\n      0x00\n      dup1\n      revert\n    tag_145:\n      pop\n      tag_146\n      0x04\n      dup1\n      calldatasize\n      sub\n      dup2\n      add\n      swap1\n      tag_147\n      swap2\n      swap1\n      tag_130\n      jump\t// in\n    tag_147:\n      tag_148\n      jump\t// in\n    tag_146:\n      stop\n        /* \"contracts/MarketPlace.sol\":4746:6074  function refillStore(address _shop, uint _productId, uint _amount, address _supplier) public payable AccessControl(Role.Market, _shop) {... */\n    tag_26:\n      tag_149\n      0x04\n      dup1\n      calldatasize\n      sub\n      dup2\n      add\n      swap1\n      tag_150\n      swap2\n      swap1\n      tag_151\n      jump\t// in\n    tag_150:\n      tag_152\n      jump\t// in\n    tag_149:\n      stop\n        /* \"contracts/MarketPlace.sol\":4459:4735  function addItemsMarket(uint _inStock, uint _price, string calldata _name, uint _expDate) public AccessControl(Role.Market, msg.sender) {... */\n    tag_35:\n        /* \"contracts/MarketPlace.sol\":4570:4581  Role.Market */\n      0x01\n        /* \"contracts/MarketPlace.sol\":4583:4593  msg.sender */\n      caller\n        /* \"contracts/MarketPlace.sol\":1254:1259  _role */\n      dup2\n        /* \"contracts/MarketPlace.sol\":1228:1259  users[msg.sender].role == _role */\n      0x02\n      dup2\n      gt\n      iszero\n      tag_154\n      jumpi\n      tag_155\n      tag_156\n      jump\t// in\n    tag_155:\n    tag_154:\n        /* \"contracts/MarketPlace.sol\":1228:1233  users */\n      0x03\n        /* \"contracts/MarketPlace.sol\":1228:1245  users[msg.sender] */\n      0x00\n        /* \"contracts/MarketPlace.sol\":1234:1244  msg.sender */\n      caller\n        /* \"contracts/MarketPlace.sol\":1228:1245  users[msg.sender] */\n      0xffffffffffffffffffffffffffffffffffffffff\n      and\n      0xffffffffffffffffffffffffffffffffffffffff\n      and\n      dup2\n      mstore\n      0x20\n      add\n      swap1\n      dup2\n      mstore\n      0x20\n      add\n      0x00\n      keccak256\n        /* \"contracts/MarketPlace.sol\":1228:1250  users[msg.sender].role */\n      0x00\n      add\n      0x00\n      swap1\n      sload\n      swap1\n      0x0100\n      exp\n      swap1\n      div\n      0xff\n      and\n        /* \"contracts/MarketPlace.sol\":1228:1259  users[msg.sender].role == _role */\n      0x02\n      dup2\n      gt\n      iszero\n      tag_157\n      jumpi\n      tag_158\n      tag_156\n      jump\t// in\n    tag_158:\n    tag_157:\n      eq\n        /* \"contracts/MarketPlace.sol\":1220:1300  require(users[msg.sender].role == _role, \"Your role does not allow this change\") */\n      tag_159\n      jumpi\n      mload(0x40)\n      0x08c379a000000000000000000000000000000000000000000000000000000000\n      dup2\n      mstore\n      0x04\n      add\n      tag_160\n      swap1\n      tag_161\n      jump\t// in\n    tag_160:\n      mload(0x40)\n      dup1\n      swap2\n      sub\n      swap1\n      revert\n    tag_159:\n        /* \"contracts/MarketPlace.sol\":1332:1337  _shop */\n      dup1\n        /* \"contracts/MarketPlace.sol\":1318:1337  msg.sender == _shop */\n      0xffffffffffffffffffffffffffffffffffffffff\n      and\n        /* \"contracts/MarketPlace.sol\":1318:1328  msg.sender */\n      caller\n        /* \"contracts/MarketPlace.sol\":1318:1337  msg.sender == _shop */\n      0xffffffffffffffffffffffffffffffffffffffff\n      and\n      eq\n        /* \"contracts/MarketPlace.sol\":1310:1376  require(msg.sender == _shop, \"The shop does not match the sender\") */\n      tag_162\n      jumpi\n      mload(0x40)\n      0x08c379a000000000000000000000000000000000000000000000000000000000\n      dup2\n      mstore\n      0x04\n      add\n      tag_163\n      swap1\n      tag_164\n      jump\t// in\n    tag_163:\n      mload(0x40)\n      dup1\n      swap2\n      sub\n      swap1\n      revert\n    tag_162:\n        /* \"contracts/MarketPlace.sol\":4605:4624  Product memory item */\n      0x00\n        /* \"contracts/MarketPlace.sol\":4627:4681  Product(msg.sender, _inStock, _price, _name, _expDate) */\n      mload(0x40)\n      dup1\n      0xa0\n      add\n      0x40\n      mstore\n      dup1\n        /* \"contracts/MarketPlace.sol\":4635:4645  msg.sender */\n      caller\n        /* \"contracts/MarketPlace.sol\":4627:4681  Product(msg.sender, _inStock, _price, _name, _expDate) */\n      0xffffffffffffffffffffffffffffffffffffffff\n      and\n      dup2\n      mstore\n      0x20\n      add\n        /* \"contracts/MarketPlace.sol\":4647:4655  _inStock */\n      dup10\n        /* \"contracts/MarketPlace.sol\":4627:4681  Product(msg.sender, _inStock, _price, _name, _expDate) */\n      dup2\n      mstore\n      0x20\n      add\n        /* \"contracts/MarketPlace.sol\":4657:4663  _price */\n      dup9\n        /* \"contracts/MarketPlace.sol\":4627:4681  Product(msg.sender, _inStock, _price, _name, _expDate) */\n      dup2\n      mstore\n      0x20\n      add\n        /* \"contracts/MarketPlace.sol\":4665:4670  _name */\n      dup8\n      dup8\n        /* \"contracts/MarketPlace.sol\":4627:4681  Product(msg.sender, _inStock, _price, _name, _expDate) */\n      dup1\n      dup1\n      0x1f\n      add\n      0x20\n      dup1\n      swap2\n      div\n      mul\n      0x20\n      add\n      mload(0x40)\n      swap1\n      dup2\n      add\n      0x40\n      mstore\n      dup1\n      swap4\n      swap3\n      swap2\n      swap1\n      dup2\n      dup2\n      mstore\n      0x20\n      add\n      dup4\n      dup4\n      dup1\n      dup3\n      dup5\n      calldatacopy\n      0x00\n      dup2\n      dup5\n      add\n      mstore\n      not(0x1f)\n      0x1f\n      dup3\n      add\n      and\n      swap1\n      pop\n      dup1\n      dup4\n      add\n      swap3\n      pop\n      pop\n      pop\n      pop\n      pop\n      pop\n      pop\n      dup2\n      mstore\n      0x20\n      add\n        /* \"contracts/MarketPlace.sol\":4672:4680  _expDate */\n      dup6\n        /* \"contracts/MarketPlace.sol\":4627:4681  Product(msg.sender, _inStock, _price, _name, _expDate) */\n      dup2\n      mstore\n      pop\n        /* \"contracts/MarketPlace.sol\":4605:4681  Product memory item = Product(msg.sender, _inStock, _price, _name, _expDate) */\n      swap1\n      pop\n        /* \"contracts/MarketPlace.sol\":4691:4705  marketProducts */\n      0x05\n        /* \"contracts/MarketPlace.sol\":4691:4717  marketProducts[msg.sender] */\n      0x00\n        /* \"contracts/MarketPlace.sol\":4706:4716  msg.sender */\n      caller\n        /* \"contracts/MarketPlace.sol\":4691:4717  marketProducts[msg.sender] */\n      0xffffffffffffffffffffffffffffffffffffffff\n      and\n      0xffffffffffffffffffffffffffffffffffffffff\n      and\n      dup2\n      mstore\n      0x20\n      add\n      swap1\n      dup2\n      mstore\n      0x20\n      add\n      0x00\n      keccak256\n        /* \"contracts/MarketPlace.sol\":4723:4727  item */\n      dup2\n        /* \"contracts/MarketPlace.sol\":4691:4728  marketProducts[msg.sender].push(item) */\n      swap1\n      dup1\n      0x01\n      dup2\n      sload\n      add\n      dup1\n      dup3\n      sstore\n      dup1\n      swap2\n      pop\n      pop\n      0x01\n      swap1\n      sub\n      swap1\n      0x00\n      mstore\n      keccak256(0x00, 0x20)\n      swap1\n      0x05\n      mul\n      add\n      0x00\n      swap1\n      swap2\n      swap1\n      swap2\n      swap1\n      swap2\n      pop\n      0x00\n      dup3\n      add\n      mload\n      dup2\n      0x00\n      add\n      exp(0x0100, 0x00)\n      dup2\n      sload\n      dup2\n      0xffffffffffffffffffffffffffffffffffffffff\n      mul\n      not\n      and\n      swap1\n      dup4\n      0xffffffffffffffffffffffffffffffffffffffff\n      and\n      mul\n      or\n      swap1\n      sstore\n      pop\n      0x20\n      dup3\n      add\n      mload\n      dup2\n      0x01\n      add\n      sstore\n      0x40\n      dup3\n      add\n      mload\n      dup2\n      0x02\n      add\n      sstore\n      0x60\n      dup3\n      add\n      mload\n      dup2\n      0x03\n      add\n      swap1\n      dup2\n      tag_167\n      swap2\n      swap1\n      tag_168\n      jump\t// in\n    tag_167:\n      pop\n      0x80\n      dup3\n      add\n      mload\n      dup2\n      0x04\n      add\n      sstore\n      pop\n      pop\n        /* \"contracts/MarketPlace.sol\":4595:4735  {... */\n      pop\n        /* \"contracts/MarketPlace.sol\":4459:4735  function addItemsMarket(uint _inStock, uint _price, string calldata _name, uint _expDate) public AccessControl(Role.Market, msg.sender) {... */\n      pop\n      pop\n      pop\n      pop\n      pop\n      pop\n      pop\n      jump\t// out\n        /* \"contracts/MarketPlace.sol\":248:285  DeliveryOrder[] public deliveryOrders */\n    tag_40:\n      0x02\n      dup2\n      dup2\n      sload\n      dup2\n      lt\n      tag_169\n      jumpi\n      0x00\n      dup1\n      revert\n    tag_169:\n      swap1\n      0x00\n      mstore\n      keccak256(0x00, 0x20)\n      swap1\n      0x05\n      mul\n      add\n      0x00\n      swap2\n      pop\n      swap1\n      pop\n      dup1\n      0x00\n      add\n      0x00\n      swap1\n      sload\n      swap1\n      0x0100\n      exp\n      swap1\n      div\n      0xffffffffffffffffffffffffffffffffffffffff\n      and\n      swap1\n      dup1\n      0x01\n      add\n      0x00\n      swap1\n      sload\n      swap1\n      0x0100\n      exp\n      swap1\n      div\n      0xffffffffffffffffffffffffffffffffffffffff\n      and\n      swap1\n      dup1\n      0x01\n      add\n      0x14\n      swap1\n      sload\n      swap1\n      0x0100\n      exp\n      swap1\n      div\n      0xff\n      and\n      swap1\n      dup1\n      0x02\n      add\n      dup1\n      sload\n      tag_171\n      swap1\n      tag_172\n      jump\t// in\n    tag_171:\n      dup1\n      0x1f\n      add\n      0x20\n      dup1\n      swap2\n      div\n      mul\n      0x20\n      add\n      mload(0x40)\n      swap1\n      dup2\n      add\n      0x40\n      mstore\n      dup1\n      swap3\n      swap2\n      swap1\n      dup2\n      dup2\n      mstore\n      0x20\n      add\n      dup3\n      dup1\n      sload\n      tag_173\n      swap1\n      tag_172\n      jump\t// in\n    tag_173:\n      dup1\n      iszero\n      tag_174\n      jumpi\n      dup1\n      0x1f\n      lt\n      tag_175\n      jumpi\n      0x0100\n      dup1\n      dup4\n      sload\n      div\n      mul\n      dup4\n      mstore\n      swap2\n      0x20\n      add\n      swap2\n      jump(tag_174)\n    tag_175:\n      dup3\n      add\n      swap2\n      swap1\n      0x00\n      mstore\n      keccak256(0x00, 0x20)\n      swap1\n    tag_176:\n      dup2\n      sload\n      dup2\n      mstore\n      swap1\n      0x01\n      add\n      swap1\n      0x20\n      add\n      dup1\n      dup4\n      gt\n      tag_176\n      jumpi\n      dup3\n      swap1\n      sub\n      0x1f\n      and\n      dup3\n      add\n      swap2\n    tag_174:\n      pop\n      pop\n      pop\n      pop\n      pop\n      swap1\n      dup1\n      0x03\n      add\n      sload\n      swap1\n      dup1\n      0x04\n      add\n      sload\n      swap1\n      pop\n      dup7\n      jump\t// out\n        /* \"contracts/MarketPlace.sol\":961:1014  mapping(address => Product[]) public supplierProducts */\n    tag_47:\n      mstore(0x20, 0x06)\n      dup2\n      0x00\n      mstore\n      keccak256(0x00, 0x40)\n      dup2\n      dup2\n      sload\n      dup2\n      lt\n      tag_177\n      jumpi\n      0x00\n      dup1\n      revert\n    tag_177:\n      swap1\n      0x00\n      mstore\n      keccak256(0x00, 0x20)\n      swap1\n      0x05\n      mul\n      add\n      0x00\n      swap2\n      pop\n      swap2\n      pop\n      pop\n      dup1\n      0x00\n      add\n      0x00\n      swap1\n      sload\n      swap1\n      0x0100\n      exp\n      swap1\n      div\n      0xffffffffffffffffffffffffffffffffffffffff\n      and\n      swap1\n      dup1\n      0x01\n      add\n      sload\n      swap1\n      dup1\n      0x02\n      add\n      sload\n      swap1\n      dup1\n      0x03\n      add\n      dup1\n      sload\n      tag_179\n      swap1\n      tag_172\n      jump\t// in\n    tag_179:\n      dup1\n      0x1f\n      add\n      0x20\n      dup1\n      swap2\n      div\n      mul\n      0x20\n      add\n      mload(0x40)\n      swap1\n      dup2\n      add\n      0x40\n      mstore\n      dup1\n      swap3\n      swap2\n      swap1\n      dup2\n      dup2\n      mstore\n      0x20\n      add\n      dup3\n      dup1\n      sload\n      tag_180\n      swap1\n      tag_172\n      jump\t// in\n    tag_180:\n      dup1\n      iszero\n      tag_181\n      jumpi\n      dup1\n      0x1f\n      lt\n      tag_182\n      jumpi\n      0x0100\n      dup1\n      dup4\n      sload\n      div\n      mul\n      dup4\n      mstore\n      swap2\n      0x20\n      add\n      swap2\n      jump(tag_181)\n    tag_182:\n      dup3\n      add\n      swap2\n      swap1\n      0x00\n      mstore\n      keccak256(0x00, 0x20)\n      swap1\n    tag_183:\n      dup2\n      sload\n      dup2\n      mstore\n      swap1\n      0x01\n      add\n      swap1\n      0x20\n      add\n      dup1\n      dup4\n      gt\n      tag_183\n      jumpi\n      dup3\n      swap1\n      sub\n      0x1f\n      and\n      dup3\n      add\n      swap2\n    tag_181:\n      pop\n      pop\n      pop\n      pop\n      pop\n      swap1\n      dup1\n      0x04\n      add\n      sload\n      swap1\n      pop\n      dup6\n      jump\t// out\n        /* \"contracts/MarketPlace.sol\":849:898  mapping(address => Product[]) public userProducts */\n    tag_53:\n      mstore(0x20, 0x04)\n      dup2\n      0x00\n      mstore\n      keccak256(0x00, 0x40)\n      dup2\n      dup2\n      sload\n      dup2\n      lt\n      tag_184\n      jumpi\n      0x00\n      dup1\n      revert\n    tag_184:\n      swap1\n      0x00\n      mstore\n      keccak256(0x00, 0x20)\n      swap1\n      0x05\n      mul\n      add\n      0x00\n      swap2\n      pop\n      swap2\n      pop\n      pop\n      dup1\n      0x00\n      add\n      0x00\n      swap1\n      sload\n      swap1\n      0x0100\n      exp\n      swap1\n      div\n      0xffffffffffffffffffffffffffffffffffffffff\n      and\n      swap1\n      dup1\n      0x01\n      add\n      sload\n      swap1\n      dup1\n      0x02\n      add\n      sload\n      swap1\n      dup1\n      0x03\n      add\n      dup1\n      sload\n      tag_186\n      swap1\n      tag_172\n      jump\t// in\n    tag_186:\n      dup1\n      0x1f\n      add\n      0x20\n      dup1\n      swap2\n      div\n      mul\n      0x20\n      add\n      mload(0x40)\n      swap1\n      dup2\n      add\n      0x40\n      mstore\n      dup1\n      swap3\n      swap2\n      swap1\n      dup2\n      dup2\n      mstore\n      0x20\n      add\n      dup3\n      dup1\n      sload\n      tag_187\n      swap1\n      tag_172\n      jump\t// in\n    tag_187:\n      dup1\n      iszero\n      tag_188\n      jumpi\n      dup1\n      0x1f\n      lt\n      tag_189\n      jumpi\n      0x0100\n      dup1\n      dup4\n      sload\n      div\n      mul\n      dup4\n      mstore\n      swap2\n      0x20\n      add\n      swap2\n      jump(tag_188)\n    tag_189:\n      dup3\n      add\n      swap2\n      swap1\n      0x00\n      mstore\n      keccak256(0x00, 0x20)\n      swap1\n    tag_190:\n      dup2\n      sload\n      dup2\n      mstore\n      swap1\n      0x01\n      add\n      swap1\n      0x20\n      add\n      dup1\n      dup4\n      gt\n      tag_190\n      jumpi\n      dup3\n      swap1\n      sub\n      0x1f\n      and\n      dup3\n      add\n      swap2\n    tag_188:\n      pop\n      pop\n      pop\n      pop\n      pop\n      swap1\n      dup1\n      0x04\n      add\n      sload\n      swap1\n      pop\n      dup6\n      jump\t// out\n        /* \"contracts/MarketPlace.sol\":1488:1578  function makeSupplier() public {... */\n    tag_57:\n        /* \"contracts/MarketPlace.sol\":1549:1571  User(Role.Supplier, 0) */\n      mload(0x40)\n      dup1\n      0x40\n      add\n      0x40\n      mstore\n      dup1\n        /* \"contracts/MarketPlace.sol\":1554:1567  Role.Supplier */\n      0x02\n        /* \"contracts/MarketPlace.sol\":1549:1571  User(Role.Supplier, 0) */\n      dup1\n      dup2\n      gt\n      iszero\n      tag_192\n      jumpi\n      tag_193\n      tag_156\n      jump\t// in\n    tag_193:\n    tag_192:\n      dup2\n      mstore\n      0x20\n      add\n        /* \"contracts/MarketPlace.sol\":1569:1570  0 */\n      0x00\n        /* \"contracts/MarketPlace.sol\":1549:1571  User(Role.Supplier, 0) */\n      dup2\n      mstore\n      pop\n        /* \"contracts/MarketPlace.sol\":1529:1534  users */\n      0x03\n        /* \"contracts/MarketPlace.sol\":1529:1546  users[msg.sender] */\n      0x00\n        /* \"contracts/MarketPlace.sol\":1535:1545  msg.sender */\n      caller\n        /* \"contracts/MarketPlace.sol\":1529:1546  users[msg.sender] */\n      0xffffffffffffffffffffffffffffffffffffffff\n      and\n      0xffffffffffffffffffffffffffffffffffffffff\n      and\n      dup2\n      mstore\n      0x20\n      add\n      swap1\n      dup2\n      mstore\n      0x20\n      add\n      0x00\n      keccak256\n        /* \"contracts/MarketPlace.sol\":1529:1571  users[msg.sender] = User(Role.Supplier, 0) */\n      0x00\n      dup3\n      add\n      mload\n      dup2\n      0x00\n      add\n      exp(0x0100, 0x00)\n      dup2\n      sload\n      dup2\n      0xff\n      mul\n      not\n      and\n      swap1\n      dup4\n      0x02\n      dup2\n      gt\n      iszero\n      tag_194\n      jumpi\n      tag_195\n      tag_156\n      jump\t// in\n    tag_195:\n    tag_194:\n      mul\n      or\n      swap1\n      sstore\n      pop\n      0x20\n      dup3\n      add\n      mload\n      dup2\n      0x01\n      add\n      sstore\n      swap1\n      pop\n      pop\n        /* \"contracts/MarketPlace.sol\":1488:1578  function makeSupplier() public {... */\n      jump\t// out\n        /* \"contracts/MarketPlace.sol\":6080:6623  function refund(address _shop, uint _productId) public {... */\n    tag_61:\n        /* \"contracts/MarketPlace.sol\":6200:6214  marketProducts */\n      0x05\n        /* \"contracts/MarketPlace.sol\":6200:6221  marketProducts[_shop] */\n      0x00\n        /* \"contracts/MarketPlace.sol\":6215:6220  _shop */\n      dup4\n        /* \"contracts/MarketPlace.sol\":6200:6221  marketProducts[_shop] */\n      0xffffffffffffffffffffffffffffffffffffffff\n      and\n      0xffffffffffffffffffffffffffffffffffffffff\n      and\n      dup2\n      mstore\n      0x20\n      add\n      swap1\n      dup2\n      mstore\n      0x20\n      add\n      0x00\n      keccak256\n        /* \"contracts/MarketPlace.sol\":6222:6232  _productId */\n      dup2\n        /* \"contracts/MarketPlace.sol\":6200:6233  marketProducts[_shop][_productId] */\n      dup2\n      sload\n      dup2\n      lt\n      tag_197\n      jumpi\n      tag_198\n      tag_199\n      jump\t// in\n    tag_198:\n    tag_197:\n      swap1\n      0x00\n      mstore\n      keccak256(0x00, 0x20)\n      swap1\n      0x05\n      mul\n      add\n        /* \"contracts/MarketPlace.sol\":6200:6241  marketProducts[_shop][_productId].expDate */\n      0x04\n      add\n      sload\n        /* \"contracts/MarketPlace.sol\":6153:6165  userProducts */\n      0x04\n        /* \"contracts/MarketPlace.sol\":6153:6177  userProducts[msg.sender] */\n      0x00\n        /* \"contracts/MarketPlace.sol\":6166:6176  msg.sender */\n      caller\n        /* \"contracts/MarketPlace.sol\":6153:6177  userProducts[msg.sender] */\n      0xffffffffffffffffffffffffffffffffffffffff\n      and\n      0xffffffffffffffffffffffffffffffffffffffff\n      and\n      dup2\n      mstore\n      0x20\n      add\n      swap1\n      dup2\n      mstore\n      0x20\n      add\n      0x00\n      keccak256\n        /* \"contracts/MarketPlace.sol\":6178:6188  _productId */\n      dup3\n        /* \"contracts/MarketPlace.sol\":6153:6189  userProducts[msg.sender][_productId] */\n      dup2\n      sload\n      dup2\n      lt\n      tag_201\n      jumpi\n      tag_202\n      tag_199\n      jump\t// in\n    tag_202:\n    tag_201:\n      swap1\n      0x00\n      mstore\n      keccak256(0x00, 0x20)\n      swap1\n      0x05\n      mul\n      add\n        /* \"contracts/MarketPlace.sol\":6153:6197  userProducts[msg.sender][_productId].expDate */\n      0x04\n      add\n      sload\n        /* \"contracts/MarketPlace.sol\":6153:6241  userProducts[msg.sender][_productId].expDate > marketProducts[_shop][_productId].expDate */\n      gt\n        /* \"contracts/MarketPlace.sol\":6145:6242  require(userProducts[msg.sender][_productId].expDate > marketProducts[_shop][_productId].expDate) */\n      tag_204\n      jumpi\n      0x00\n      dup1\n      revert\n    tag_204:\n        /* \"contracts/MarketPlace.sol\":6252:6268  uint totalRefSum */\n      0x00\n        /* \"contracts/MarketPlace.sol\":6361:6368  1 ether */\n      0x0de0b6b3a7640000\n        /* \"contracts/MarketPlace.sol\":6319:6333  marketProducts */\n      0x05\n        /* \"contracts/MarketPlace.sol\":6319:6340  marketProducts[_shop] */\n      0x00\n        /* \"contracts/MarketPlace.sol\":6334:6339  _shop */\n      dup6\n        /* \"contracts/MarketPlace.sol\":6319:6340  marketProducts[_shop] */\n      0xffffffffffffffffffffffffffffffffffffffff\n      and\n      0xffffffffffffffffffffffffffffffffffffffff\n      and\n      dup2\n      mstore\n      0x20\n      add\n      swap1\n      dup2\n      mstore\n      0x20\n      add\n      0x00\n      keccak256\n        /* \"contracts/MarketPlace.sol\":6341:6351  _productId */\n      dup4\n        /* \"contracts/MarketPlace.sol\":6319:6352  marketProducts[_shop][_productId] */\n      dup2\n      sload\n      dup2\n      lt\n      tag_205\n      jumpi\n      tag_206\n      tag_199\n      jump\t// in\n    tag_206:\n    tag_205:\n      swap1\n      0x00\n      mstore\n      keccak256(0x00, 0x20)\n      swap1\n      0x05\n      mul\n      add\n        /* \"contracts/MarketPlace.sol\":6319:6358  marketProducts[_shop][_productId].price */\n      0x02\n      add\n      sload\n        /* \"contracts/MarketPlace.sol\":6272:6284  userProducts */\n      0x04\n        /* \"contracts/MarketPlace.sol\":6272:6296  userProducts[msg.sender] */\n      0x00\n        /* \"contracts/MarketPlace.sol\":6285:6295  msg.sender */\n      caller\n        /* \"contracts/MarketPlace.sol\":6272:6296  userProducts[msg.sender] */\n      0xffffffffffffffffffffffffffffffffffffffff\n      and\n      0xffffffffffffffffffffffffffffffffffffffff\n      and\n      dup2\n      mstore\n      0x20\n      add\n      swap1\n      dup2\n      mstore\n      0x20\n      add\n      0x00\n      keccak256\n        /* \"contracts/MarketPlace.sol\":6297:6307  _productId */\n      dup5\n        /* \"contracts/MarketPlace.sol\":6272:6308  userProducts[msg.sender][_productId] */\n      dup2\n      sload\n      dup2\n      lt\n      tag_208\n      jumpi\n      tag_209\n      tag_199\n      jump\t// in\n    tag_209:\n    tag_208:\n      swap1\n      0x00\n      mstore\n      keccak256(0x00, 0x20)\n      swap1\n      0x05\n      mul\n      add\n        /* \"contracts/MarketPlace.sol\":6272:6316  userProducts[msg.sender][_productId].inStock */\n      0x01\n      add\n      sload\n        /* \"contracts/MarketPlace.sol\":6272:6358  userProducts[msg.sender][_productId].inStock * marketProducts[_shop][_productId].price */\n      tag_211\n      swap2\n      swap1\n      tag_212\n      jump\t// in\n    tag_211:\n        /* \"contracts/MarketPlace.sol\":6272:6368  userProducts[msg.sender][_productId].inStock * marketProducts[_shop][_productId].price * 1 ether */\n      tag_213\n      swap2\n      swap1\n      tag_212\n      jump\t// in\n    tag_213:\n        /* \"contracts/MarketPlace.sol\":6252:6368  uint totalRefSum =  userProducts[msg.sender][_productId].inStock * marketProducts[_shop][_productId].price * 1 ether */\n      swap1\n      pop\n        /* \"contracts/MarketPlace.sol\":6423:6435  userProducts */\n      0x04\n        /* \"contracts/MarketPlace.sol\":6423:6447  userProducts[msg.sender] */\n      0x00\n        /* \"contracts/MarketPlace.sol\":6436:6446  msg.sender */\n      caller\n        /* \"contracts/MarketPlace.sol\":6423:6447  userProducts[msg.sender] */\n      0xffffffffffffffffffffffffffffffffffffffff\n      and\n      0xffffffffffffffffffffffffffffffffffffffff\n      and\n      dup2\n      mstore\n      0x20\n      add\n      swap1\n      dup2\n      mstore\n      0x20\n      add\n      0x00\n      keccak256\n        /* \"contracts/MarketPlace.sol\":6448:6458  _productId */\n      dup3\n        /* \"contracts/MarketPlace.sol\":6423:6459  userProducts[msg.sender][_productId] */\n      dup2\n      sload\n      dup2\n      lt\n      tag_214\n      jumpi\n      tag_215\n      tag_199\n      jump\t// in\n    tag_215:\n    tag_214:\n      swap1\n      0x00\n      mstore\n      keccak256(0x00, 0x20)\n      swap1\n      0x05\n      mul\n      add\n        /* \"contracts/MarketPlace.sol\":6423:6467  userProducts[msg.sender][_productId].inStock */\n      0x01\n      add\n      sload\n        /* \"contracts/MarketPlace.sol\":6378:6392  marketProducts */\n      0x05\n        /* \"contracts/MarketPlace.sol\":6378:6399  marketProducts[_shop] */\n      0x00\n        /* \"contracts/MarketPlace.sol\":6393:6398  _shop */\n      dup6\n        /* \"contracts/MarketPlace.sol\":6378:6399  marketProducts[_shop] */\n      0xffffffffffffffffffffffffffffffffffffffff\n      and\n      0xffffffffffffffffffffffffffffffffffffffff\n      and\n      dup2\n      mstore\n      0x20\n      add\n      swap1\n      dup2\n      mstore\n      0x20\n      add\n      0x00\n      keccak256\n        /* \"contracts/MarketPlace.sol\":6400:6410  _productId */\n      dup4\n        /* \"contracts/MarketPlace.sol\":6378:6411  marketProducts[_shop][_productId] */\n      dup2\n      sload\n      dup2\n      lt\n      tag_217\n      jumpi\n      tag_218\n      tag_199\n      jump\t// in\n    tag_218:\n    tag_217:\n      swap1\n      0x00\n      mstore\n      keccak256(0x00, 0x20)\n      swap1\n      0x05\n      mul\n      add\n        /* \"contracts/MarketPlace.sol\":6378:6419  marketProducts[_shop][_productId].inStock */\n      0x01\n      add\n      0x00\n        /* \"contracts/MarketPlace.sol\":6378:6467  marketProducts[_shop][_productId].inStock += userProducts[msg.sender][_productId].inStock */\n      dup3\n      dup3\n      sload\n      tag_220\n      swap2\n      swap1\n      tag_221\n      jump\t// in\n    tag_220:\n      swap3\n      pop\n      pop\n      dup2\n      swap1\n      sstore\n      pop\n        /* \"contracts/MarketPlace.sol\":6484:6496  userProducts */\n      0x04\n        /* \"contracts/MarketPlace.sol\":6484:6508  userProducts[msg.sender] */\n      0x00\n        /* \"contracts/MarketPlace.sol\":6497:6507  msg.sender */\n      caller\n        /* \"contracts/MarketPlace.sol\":6484:6508  userProducts[msg.sender] */\n      0xffffffffffffffffffffffffffffffffffffffff\n      and\n      0xffffffffffffffffffffffffffffffffffffffff\n      and\n      dup2\n      mstore\n      0x20\n      add\n      swap1\n      dup2\n      mstore\n      0x20\n      add\n      0x00\n      keccak256\n        /* \"contracts/MarketPlace.sol\":6509:6519  _productId */\n      dup3\n        /* \"contracts/MarketPlace.sol\":6484:6520  userProducts[msg.sender][_productId] */\n      dup2\n      sload\n      dup2\n      lt\n      tag_222\n      jumpi\n      tag_223\n      tag_199\n      jump\t// in\n    tag_223:\n    tag_222:\n      swap1\n      0x00\n      mstore\n      keccak256(0x00, 0x20)\n      swap1\n      0x05\n      mul\n      add\n      0x00\n        /* \"contracts/MarketPlace.sol\":6477:6520  delete userProducts[msg.sender][_productId] */\n      dup1\n      dup3\n      add\n      exp(0x0100, 0x00)\n      dup2\n      sload\n      swap1\n      0xffffffffffffffffffffffffffffffffffffffff\n      mul\n      not\n      and\n      swap1\n      sstore\n      0x01\n      dup3\n      add\n      0x00\n      swap1\n      sstore\n      0x02\n      dup3\n      add\n      0x00\n      swap1\n      sstore\n      0x03\n      dup3\n      add\n      0x00\n      tag_225\n      swap2\n      swap1\n      tag_226\n      jump\t// in\n    tag_225:\n      0x04\n      dup3\n      add\n      0x00\n      swap1\n      sstore\n      pop\n      pop\n        /* \"contracts/MarketPlace.sol\":6554:6565  totalRefSum */\n      dup1\n        /* \"contracts/MarketPlace.sol\":6530:6535  users */\n      0x03\n        /* \"contracts/MarketPlace.sol\":6530:6542  users[_shop] */\n      0x00\n        /* \"contracts/MarketPlace.sol\":6536:6541  _shop */\n      dup6\n        /* \"contracts/MarketPlace.sol\":6530:6542  users[_shop] */\n      0xffffffffffffffffffffffffffffffffffffffff\n      and\n      0xffffffffffffffffffffffffffffffffffffffff\n      and\n      dup2\n      mstore\n      0x20\n      add\n      swap1\n      dup2\n      mstore\n      0x20\n      add\n      0x00\n      keccak256\n        /* \"contracts/MarketPlace.sol\":6530:6550  users[_shop].balance */\n      0x01\n      add\n      0x00\n        /* \"contracts/MarketPlace.sol\":6530:6565  users[_shop].balance -= totalRefSum */\n      dup3\n      dup3\n      sload\n      tag_227\n      swap2\n      swap1\n      tag_228\n      jump\t// in\n    tag_227:\n      swap3\n      pop\n      pop\n      dup2\n      swap1\n      sstore\n      pop\n        /* \"contracts/MarketPlace.sol\":6583:6593  msg.sender */\n      caller\n        /* \"contracts/MarketPlace.sol\":6575:6603  payable(msg.sender).transfer */\n      0xffffffffffffffffffffffffffffffffffffffff\n      and\n        /* \"contracts/MarketPlace.sol\":6575:6616  payable(msg.sender).transfer(totalRefSum) */\n      0x08fc\n        /* \"contracts/MarketPlace.sol\":6604:6615  totalRefSum */\n      dup3\n        /* \"contracts/MarketPlace.sol\":6575:6616  payable(msg.sender).transfer(totalRefSum) */\n      swap1\n      dup2\n      iszero\n      mul\n      swap1\n      mload(0x40)\n      0x00\n      mload(0x40)\n      dup1\n      dup4\n      sub\n      dup2\n      dup6\n      dup9\n      dup9\n      call\n      swap4\n      pop\n      pop\n      pop\n      pop\n      iszero\n      dup1\n      iszero\n      tag_230\n      jumpi\n      returndatasize\n      0x00\n      dup1\n      returndatacopy\n      revert(0x00, returndatasize)\n    tag_230:\n      pop\n        /* \"contracts/MarketPlace.sol\":6135:6623  {... */\n      pop\n        /* \"contracts/MarketPlace.sol\":6080:6623  function refund(address _shop, uint _productId) public {... */\n      pop\n      pop\n      jump\t// out\n        /* \"contracts/MarketPlace.sol\":904:955  mapping(address => Product[]) public marketProducts */\n    tag_65:\n      mstore(0x20, 0x05)\n      dup2\n      0x00\n      mstore\n      keccak256(0x00, 0x40)\n      dup2\n      dup2\n      sload\n      dup2\n      lt\n      tag_231\n      jumpi\n      0x00\n      dup1\n      revert\n    tag_231:\n      swap1\n      0x00\n      mstore\n      keccak256(0x00, 0x20)\n      swap1\n      0x05\n      mul\n      add\n      0x00\n      swap2\n      pop\n      swap2\n      pop\n      pop\n      dup1\n      0x00\n      add\n      0x00\n      swap1\n      sload\n      swap1\n      0x0100\n      exp\n      swap1\n      div\n      0xffffffffffffffffffffffffffffffffffffffff\n      and\n      swap1\n      dup1\n      0x01\n      add\n      sload\n      swap1\n      dup1\n      0x02\n      add\n      sload\n      swap1\n      dup1\n      0x03\n      add\n      dup1\n      sload\n      tag_233\n      swap1\n      tag_172\n      jump\t// in\n    tag_233:\n      dup1\n      0x1f\n      add\n      0x20\n      dup1\n      swap2\n      div\n      mul\n      0x20\n      add\n      mload(0x40)\n      swap1\n      dup2\n      add\n      0x40\n      mstore\n      dup1\n      swap3\n      swap2\n      swap1\n      dup2\n      dup2\n      mstore\n      0x20\n      add\n      dup3\n      dup1\n      sload\n      tag_234\n      swap1\n      tag_172\n      jump\t// in\n    tag_234:\n      dup1\n      iszero\n      tag_235\n      jumpi\n      dup1\n      0x1f\n      lt\n      tag_236\n      jumpi\n      0x0100\n      dup1\n      dup4\n      sload\n      div\n      mul\n      dup4\n      mstore\n      swap2\n      0x20\n      add\n      swap2\n      jump(tag_235)\n    tag_236:\n      dup3\n      add\n      swap2\n      swap1\n      0x00\n      mstore\n      keccak256(0x00, 0x20)\n      swap1\n    tag_237:\n      dup2\n      sload\n      dup2\n      mstore\n      swap1\n      0x01\n      add\n      swap1\n      0x20\n      add\n      dup1\n      dup4\n      gt\n      tag_237\n      jumpi\n      dup3\n      swap1\n      sub\n      0x1f\n      and\n      dup3\n      add\n      swap2\n    tag_235:\n      pop\n      pop\n      pop\n      pop\n      pop\n      swap1\n      dup1\n      0x04\n      add\n      sload\n      swap1\n      pop\n      dup6\n      jump\t// out\n        /* \"contracts/MarketPlace.sol\":193:216  Ticket[] public tickets */\n    tag_70:\n      0x00\n      dup2\n      dup2\n      sload\n      dup2\n      lt\n      tag_238\n      jumpi\n      0x00\n      dup1\n      revert\n    tag_238:\n      swap1\n      0x00\n      mstore\n      keccak256(0x00, 0x20)\n      add\n      0x00\n      swap2\n      pop\n      swap1\n      pop\n      dup1\n      0x00\n      add\n      0x00\n      swap1\n      sload\n      swap1\n      0x0100\n      exp\n      swap1\n      div\n      0xffffffffffffffffffffffffffffffffffffffff\n      and\n      swap1\n      dup1\n      0x00\n      add\n      0x14\n      swap1\n      sload\n      swap1\n      0x0100\n      exp\n      swap1\n      div\n      0xff\n      and\n      swap1\n      pop\n      dup3\n      jump\t// out\n        /* \"contracts/MarketPlace.sol\":1902:1997  function changeRole(Role _role) public {... */\n    tag_77:\n        /* \"contracts/MarketPlace.sol\":1951:1958  tickets */\n      0x00\n        /* \"contracts/MarketPlace.sol\":1964:1989  Ticket(msg.sender, _role) */\n      mload(0x40)\n      dup1\n      0x40\n      add\n      0x40\n      mstore\n      dup1\n        /* \"contracts/MarketPlace.sol\":1971:1981  msg.sender */\n      caller\n        /* \"contracts/MarketPlace.sol\":1964:1989  Ticket(msg.sender, _role) */\n      0xffffffffffffffffffffffffffffffffffffffff\n      and\n      dup2\n      mstore\n      0x20\n      add\n        /* \"contracts/MarketPlace.sol\":1983:1988  _role */\n      dup4\n        /* \"contracts/MarketPlace.sol\":1964:1989  Ticket(msg.sender, _role) */\n      0x02\n      dup2\n      gt\n      iszero\n      tag_241\n      jumpi\n      tag_242\n      tag_156\n      jump\t// in\n    tag_242:\n    tag_241:\n      dup2\n      mstore\n      pop\n        /* \"contracts/MarketPlace.sol\":1951:1990  tickets.push(Ticket(msg.sender, _role)) */\n      swap1\n      dup1\n      0x01\n      dup2\n      sload\n      add\n      dup1\n      dup3\n      sstore\n      dup1\n      swap2\n      pop\n      pop\n      0x01\n      swap1\n      sub\n      swap1\n      0x00\n      mstore\n      keccak256(0x00, 0x20)\n      add\n      0x00\n      swap1\n      swap2\n      swap1\n      swap2\n      swap1\n      swap2\n      pop\n      0x00\n      dup3\n      add\n      mload\n      dup2\n      0x00\n      add\n      exp(0x0100, 0x00)\n      dup2\n      sload\n      dup2\n      0xffffffffffffffffffffffffffffffffffffffff\n      mul\n      not\n      and\n      swap1\n      dup4\n      0xffffffffffffffffffffffffffffffffffffffff\n      and\n      mul\n      or\n      swap1\n      sstore\n      pop\n      0x20\n      dup3\n      add\n      mload\n      dup2\n      0x00\n      add\n      exp(0x0100, 0x14)\n      dup2\n      sload\n      dup2\n      0xff\n      mul\n      not\n      and\n      swap1\n      dup4\n      0x02\n      dup2\n      gt\n      iszero\n      tag_244\n      jumpi\n      tag_245\n      tag_156\n      jump\t// in\n    tag_245:\n    tag_244:\n      mul\n      or\n      swap1\n      sstore\n      pop\n      pop\n      pop\n        /* \"contracts/MarketPlace.sol\":1902:1997  function changeRole(Role _role) public {... */\n      pop\n      jump\t// out\n        /* \"contracts/MarketPlace.sol\":2221:2611  function toUpper(string memory input) public pure returns (string memory) {... */\n    tag_82:\n        /* \"contracts/MarketPlace.sol\":2280:2293  string memory */\n      0x60\n        /* \"contracts/MarketPlace.sol\":2305:2328  bytes memory inputBytes */\n      0x00\n        /* \"contracts/MarketPlace.sol\":2337:2342  input */\n      dup3\n        /* \"contracts/MarketPlace.sol\":2305:2343  bytes memory inputBytes = bytes(input) */\n      swap1\n      pop\n        /* \"contracts/MarketPlace.sol\":2358:2367  uint256 i */\n      0x00\n        /* \"contracts/MarketPlace.sol\":2353:2570  for (uint256 i = 0; i < inputBytes.length; i++) {... */\n    tag_247:\n        /* \"contracts/MarketPlace.sol\":2377:2387  inputBytes */\n      dup2\n        /* \"contracts/MarketPlace.sol\":2377:2394  inputBytes.length */\n      mload\n        /* \"contracts/MarketPlace.sol\":2373:2374  i */\n      dup2\n        /* \"contracts/MarketPlace.sol\":2373:2394  i < inputBytes.length */\n      lt\n        /* \"contracts/MarketPlace.sol\":2353:2570  for (uint256 i = 0; i < inputBytes.length; i++) {... */\n      iszero\n      tag_248\n      jumpi\n        /* \"contracts/MarketPlace.sol\":2443:2445  97 */\n      0x61\n        /* \"contracts/MarketPlace.sol\":2425:2435  inputBytes */\n      dup3\n        /* \"contracts/MarketPlace.sol\":2436:2437  i */\n      dup3\n        /* \"contracts/MarketPlace.sol\":2425:2438  inputBytes[i] */\n      dup2\n      mload\n      dup2\n      lt\n      tag_250\n      jumpi\n      tag_251\n      tag_199\n      jump\t// in\n    tag_251:\n    tag_250:\n      0x20\n      add\n      add\n      mload\n      0xf8\n      shr\n      0xf8\n      shl\n        /* \"contracts/MarketPlace.sol\":2419:2439  uint8(inputBytes[i]) */\n      0xf8\n      shr\n        /* \"contracts/MarketPlace.sol\":2419:2445  uint8(inputBytes[i]) >= 97 */\n      0xff\n      and\n      lt\n      iszero\n        /* \"contracts/MarketPlace.sol\":2419:2476  uint8(inputBytes[i]) >= 97 && uint8(inputBytes[i]) <= 122 */\n      dup1\n      iszero\n      tag_252\n      jumpi\n      pop\n        /* \"contracts/MarketPlace.sol\":2473:2476  122 */\n      0x7a\n        /* \"contracts/MarketPlace.sol\":2455:2465  inputBytes */\n      dup3\n        /* \"contracts/MarketPlace.sol\":2466:2467  i */\n      dup3\n        /* \"contracts/MarketPlace.sol\":2455:2468  inputBytes[i] */\n      dup2\n      mload\n      dup2\n      lt\n      tag_253\n      jumpi\n      tag_254\n      tag_199\n      jump\t// in\n    tag_254:\n    tag_253:\n      0x20\n      add\n      add\n      mload\n      0xf8\n      shr\n      0xf8\n      shl\n        /* \"contracts/MarketPlace.sol\":2449:2469  uint8(inputBytes[i]) */\n      0xf8\n      shr\n        /* \"contracts/MarketPlace.sol\":2449:2476  uint8(inputBytes[i]) <= 122 */\n      0xff\n      and\n      gt\n      iszero\n        /* \"contracts/MarketPlace.sol\":2419:2476  uint8(inputBytes[i]) >= 97 && uint8(inputBytes[i]) <= 122 */\n    tag_252:\n        /* \"contracts/MarketPlace.sol\":2415:2560  if (uint8(inputBytes[i]) >= 97 && uint8(inputBytes[i]) <= 122) {... */\n      iszero\n      tag_255\n      jumpi\n        /* \"contracts/MarketPlace.sol\":2542:2544  32 */\n      0x20\n        /* \"contracts/MarketPlace.sol\":2525:2535  inputBytes */\n      dup3\n        /* \"contracts/MarketPlace.sol\":2536:2537  i */\n      dup3\n        /* \"contracts/MarketPlace.sol\":2525:2538  inputBytes[i] */\n      dup2\n      mload\n      dup2\n      lt\n      tag_256\n      jumpi\n      tag_257\n      tag_199\n      jump\t// in\n    tag_257:\n    tag_256:\n      0x20\n      add\n      add\n      mload\n      0xf8\n      shr\n      0xf8\n      shl\n        /* \"contracts/MarketPlace.sol\":2519:2539  uint8(inputBytes[i]) */\n      0xf8\n      shr\n        /* \"contracts/MarketPlace.sol\":2519:2544  uint8(inputBytes[i]) - 32 */\n      tag_258\n      swap2\n      swap1\n      tag_259\n      jump\t// in\n    tag_258:\n        /* \"contracts/MarketPlace.sol\":2512:2545  bytes1(uint8(inputBytes[i]) - 32) */\n      0xf8\n      shl\n        /* \"contracts/MarketPlace.sol\":2496:2506  inputBytes */\n      dup3\n        /* \"contracts/MarketPlace.sol\":2507:2508  i */\n      dup3\n        /* \"contracts/MarketPlace.sol\":2496:2509  inputBytes[i] */\n      dup2\n      mload\n      dup2\n      lt\n      tag_260\n      jumpi\n      tag_261\n      tag_199\n      jump\t// in\n    tag_261:\n    tag_260:\n      0x20\n      add\n      add\n        /* \"contracts/MarketPlace.sol\":2496:2545  inputBytes[i] = bytes1(uint8(inputBytes[i]) - 32) */\n      swap1\n      not(0xffffffffffffffffffffffffffffffffffffffffffffffffffffffffffffff)\n      and\n      swap1\n      dup2\n      0x00\n      byte\n      swap1\n      mstore8\n      pop\n        /* \"contracts/MarketPlace.sol\":2415:2560  if (uint8(inputBytes[i]) >= 97 && uint8(inputBytes[i]) <= 122) {... */\n    tag_255:\n        /* \"contracts/MarketPlace.sol\":2396:2399  i++ */\n      dup1\n      dup1\n      tag_262\n      swap1\n      tag_263\n      jump\t// in\n    tag_262:\n      swap2\n      pop\n      pop\n        /* \"contracts/MarketPlace.sol\":2353:2570  for (uint256 i = 0; i < inputBytes.length; i++) {... */\n      jump(tag_247)\n    tag_248:\n      pop\n        /* \"contracts/MarketPlace.sol\":2593:2603  inputBytes */\n      dup1\n        /* \"contracts/MarketPlace.sol\":2579:2604  return string(inputBytes) */\n      swap2\n      pop\n      pop\n        /* \"contracts/MarketPlace.sol\":2221:2611  function toUpper(string memory input) public pure returns (string memory) {... */\n      swap2\n      swap1\n      pop\n      jump\t// out\n        /* \"contracts/MarketPlace.sol\":1584:1671  function makeMarket() public  {... */\n    tag_87:\n        /* \"contracts/MarketPlace.sol\":1644:1664  User(Role.Market, 0) */\n      mload(0x40)\n      dup1\n      0x40\n      add\n      0x40\n      mstore\n      dup1\n        /* \"contracts/MarketPlace.sol\":1649:1660  Role.Market */\n      0x01\n        /* \"contracts/MarketPlace.sol\":1644:1664  User(Role.Market, 0) */\n      0x02\n      dup2\n      gt\n      iszero\n      tag_265\n      jumpi\n      tag_266\n      tag_156\n      jump\t// in\n    tag_266:\n    tag_265:\n      dup2\n      mstore\n      0x20\n      add\n        /* \"contracts/MarketPlace.sol\":1662:1663  0 */\n      0x00\n        /* \"contracts/MarketPlace.sol\":1644:1664  User(Role.Market, 0) */\n      dup2\n      mstore\n      pop\n        /* \"contracts/MarketPlace.sol\":1624:1629  users */\n      0x03\n        /* \"contracts/MarketPlace.sol\":1624:1641  users[msg.sender] */\n      0x00\n        /* \"contracts/MarketPlace.sol\":1630:1640  msg.sender */\n      caller\n        /* \"contracts/MarketPlace.sol\":1624:1641  users[msg.sender] */\n      0xffffffffffffffffffffffffffffffffffffffff\n      and\n      0xffffffffffffffffffffffffffffffffffffffff\n      and\n      dup2\n      mstore\n      0x20\n      add\n      swap1\n      dup2\n      mstore\n      0x20\n      add\n      0x00\n      keccak256\n        /* \"contracts/MarketPlace.sol\":1624:1664  users[msg.sender] = User(Role.Market, 0) */\n      0x00\n      dup3\n      add\n      mload\n      dup2\n      0x00\n      add\n      exp(0x0100, 0x00)\n      dup2\n      sload\n      dup2\n      0xff\n      mul\n      not\n      and\n      swap1\n      dup4\n      0x02\n      dup2\n      gt\n      iszero\n      tag_267\n      jumpi\n      tag_268\n      tag_156\n      jump\t// in\n    tag_268:\n    tag_267:\n      mul\n      or\n      swap1\n      sstore\n      pop\n      0x20\n      dup3\n      add\n      mload\n      dup2\n      0x01\n      add\n      sstore\n      swap1\n      pop\n      pop\n        /* \"contracts/MarketPlace.sol\":1584:1671  function makeMarket() public  {... */\n      jump\t// out\n        /* \"contracts/MarketPlace.sol\":1677:1896  function approveChangeRole(uint _idTicket) public OnlyOwner {... */\n    tag_91:\n        /* \"contracts/MarketPlace.sol\":1127:1132  owner */\n      0x01\n      0x00\n      swap1\n      sload\n      swap1\n      0x0100\n      exp\n      swap1\n      div\n      0xffffffffffffffffffffffffffffffffffffffff\n      and\n        /* \"contracts/MarketPlace.sol\":1113:1132  msg.sender == owner */\n      0xffffffffffffffffffffffffffffffffffffffff\n      and\n        /* \"contracts/MarketPlace.sol\":1113:1123  msg.sender */\n      caller\n        /* \"contracts/MarketPlace.sol\":1113:1132  msg.sender == owner */\n      0xffffffffffffffffffffffffffffffffffffffff\n      and\n      eq\n        /* \"contracts/MarketPlace.sol\":1105:1133  require(msg.sender == owner) */\n      tag_270\n      jumpi\n      0x00\n      dup1\n      revert\n    tag_270:\n        /* \"contracts/MarketPlace.sol\":1747:1763  address userAddr */\n      0x00\n        /* \"contracts/MarketPlace.sol\":1766:1773  tickets */\n      dup1\n        /* \"contracts/MarketPlace.sol\":1774:1783  _idTicket */\n      dup3\n        /* \"contracts/MarketPlace.sol\":1766:1784  tickets[_idTicket] */\n      dup2\n      sload\n      dup2\n      lt\n      tag_272\n      jumpi\n      tag_273\n      tag_199\n      jump\t// in\n    tag_273:\n    tag_272:\n      swap1\n      0x00\n      mstore\n      keccak256(0x00, 0x20)\n      add\n        /* \"contracts/MarketPlace.sol\":1766:1793  tickets[_idTicket].userAddr */\n      0x00\n      add\n      0x00\n      swap1\n      sload\n      swap1\n      0x0100\n      exp\n      swap1\n      div\n      0xffffffffffffffffffffffffffffffffffffffff\n      and\n        /* \"contracts/MarketPlace.sol\":1747:1793  address userAddr = tickets[_idTicket].userAddr */\n      swap1\n      pop\n        /* \"contracts/MarketPlace.sol\":1803:1819  Role changedRole */\n      0x00\n        /* \"contracts/MarketPlace.sol\":1822:1829  tickets */\n      dup1\n        /* \"contracts/MarketPlace.sol\":1830:1839  _idTicket */\n      dup4\n        /* \"contracts/MarketPlace.sol\":1822:1840  tickets[_idTicket] */\n      dup2\n      sload\n      dup2\n      lt\n      tag_275\n      jumpi\n      tag_276\n      tag_199\n      jump\t// in\n    tag_276:\n    tag_275:\n      swap1\n      0x00\n      mstore\n      keccak256(0x00, 0x20)\n      add\n        /* \"contracts/MarketPlace.sol\":1822:1845  tickets[_idTicket].role */\n      0x00\n      add\n      0x14\n      swap1\n      sload\n      swap1\n      0x0100\n      exp\n      swap1\n      div\n      0xff\n      and\n        /* \"contracts/MarketPlace.sol\":1803:1845  Role changedRole = tickets[_idTicket].role */\n      swap1\n      pop\n        /* \"contracts/MarketPlace.sol\":1878:1889  changedRole */\n      dup1\n        /* \"contracts/MarketPlace.sol\":1855:1860  users */\n      0x03\n        /* \"contracts/MarketPlace.sol\":1855:1870  users[userAddr] */\n      0x00\n        /* \"contracts/MarketPlace.sol\":1861:1869  userAddr */\n      dup5\n        /* \"contracts/MarketPlace.sol\":1855:1870  users[userAddr] */\n      0xffffffffffffffffffffffffffffffffffffffff\n      and\n      0xffffffffffffffffffffffffffffffffffffffff\n      and\n      dup2\n      mstore\n      0x20\n      add\n      swap1\n      dup2\n      mstore\n      0x20\n      add\n      0x00\n      keccak256\n        /* \"contracts/MarketPlace.sol\":1855:1875  users[userAddr].role */\n      0x00\n      add\n      0x00\n        /* \"contracts/MarketPlace.sol\":1855:1889  users[userAddr].role = changedRole */\n      0x0100\n      exp\n      dup2\n      sload\n      dup2\n      0xff\n      mul\n      not\n      and\n      swap1\n      dup4\n      0x02\n      dup2\n      gt\n      iszero\n      tag_278\n      jumpi\n      tag_279\n      tag_156\n      jump\t// in\n    tag_279:\n    tag_278:\n      mul\n      or\n      swap1\n      sstore\n      pop\n        /* \"contracts/MarketPlace.sol\":1737:1896  {... */\n      pop\n      pop\n        /* \"contracts/MarketPlace.sol\":1677:1896  function approveChangeRole(uint _idTicket) public OnlyOwner {... */\n      pop\n      jump\t// out\n        /* \"contracts/MarketPlace.sol\":2768:3395  function makeDelivery(address _shop, uint _productId, uint _amount) public AccessControl(Role.User, msg.sender) {... */\n    tag_96:\n        /* \"contracts/MarketPlace.sol\":2857:2866  Role.User */\n      0x00\n        /* \"contracts/MarketPlace.sol\":2868:2878  msg.sender */\n      caller\n        /* \"contracts/MarketPlace.sol\":1254:1259  _role */\n      dup2\n        /* \"contracts/MarketPlace.sol\":1228:1259  users[msg.sender].role == _role */\n      0x02\n      dup2\n      gt\n      iszero\n      tag_281\n      jumpi\n      tag_282\n      tag_156\n      jump\t// in\n    tag_282:\n    tag_281:\n        /* \"contracts/MarketPlace.sol\":1228:1233  users */\n      0x03\n        /* \"contracts/MarketPlace.sol\":1228:1245  users[msg.sender] */\n      0x00\n        /* \"contracts/MarketPlace.sol\":1234:1244  msg.sender */\n      caller\n        /* \"contracts/MarketPlace.sol\":1228:1245  users[msg.sender] */\n      0xffffffffffffffffffffffffffffffffffffffff\n      and\n      0xffffffffffffffffffffffffffffffffffffffff\n      and\n      dup2\n      mstore\n      0x20\n      add\n      swap1\n      dup2\n      mstore\n      0x20\n      add\n      0x00\n      keccak256\n        /* \"contracts/MarketPlace.sol\":1228:1250  users[msg.sender].role */\n      0x00\n      add\n      0x00\n      swap1\n      sload\n      swap1\n      0x0100\n      exp\n      swap1\n      div\n      0xff\n      and\n        /* \"contracts/MarketPlace.sol\":1228:1259  users[msg.sender].role == _role */\n      0x02\n      dup2\n      gt\n      iszero\n      tag_283\n      jumpi\n      tag_284\n      tag_156\n      jump\t// in\n    tag_284:\n    tag_283:\n      eq\n        /* \"contracts/MarketPlace.sol\":1220:1300  require(users[msg.sender].role == _role, \"Your role does not allow this change\") */\n      tag_285\n      jumpi\n      mload(0x40)\n      0x08c379a000000000000000000000000000000000000000000000000000000000\n      dup2\n      mstore\n      0x04\n      add\n      tag_286\n      swap1\n      tag_161\n      jump\t// in\n    tag_286:\n      mload(0x40)\n      dup1\n      swap2\n      sub\n      swap1\n      revert\n    tag_285:\n        /* \"contracts/MarketPlace.sol\":1332:1337  _shop */\n      dup1\n        /* \"contracts/MarketPlace.sol\":1318:1337  msg.sender == _shop */\n      0xffffffffffffffffffffffffffffffffffffffff\n      and\n        /* \"contracts/MarketPlace.sol\":1318:1328  msg.sender */\n      caller\n        /* \"contracts/MarketPlace.sol\":1318:1337  msg.sender == _shop */\n      0xffffffffffffffffffffffffffffffffffffffff\n      and\n      eq\n        /* \"contracts/MarketPlace.sol\":1310:1376  require(msg.sender == _shop, \"The shop does not match the sender\") */\n      tag_287\n      jumpi\n      mload(0x40)\n      0x08c379a000000000000000000000000000000000000000000000000000000000\n      dup2\n      mstore\n      0x04\n      add\n      tag_288\n      swap1\n      tag_164\n      jump\t// in\n    tag_288:\n      mload(0x40)\n      dup1\n      swap2\n      sub\n      swap1\n      revert\n    tag_287:\n        /* \"contracts/MarketPlace.sol\":2908:2909  0 */\n      0x00\n        /* \"contracts/MarketPlace.sol\":2898:2905  _amount */\n      dup4\n        /* \"contracts/MarketPlace.sol\":2898:2909  _amount > 0 */\n      gt\n        /* \"contracts/MarketPlace.sol\":2890:2952  require(_amount > 0, \"Purchase amount must be greater than 0\") */\n      tag_290\n      jumpi\n      mload(0x40)\n      0x08c379a000000000000000000000000000000000000000000000000000000000\n      dup2\n      mstore\n      0x04\n      add\n      tag_291\n      swap1\n      tag_292\n      jump\t// in\n    tag_291:\n      mload(0x40)\n      dup1\n      swap2\n      sub\n      swap1\n      revert\n    tag_290:\n        /* \"contracts/MarketPlace.sol\":2983:2997  marketProducts */\n      0x05\n        /* \"contracts/MarketPlace.sol\":2983:3004  marketProducts[_shop] */\n      0x00\n        /* \"contracts/MarketPlace.sol\":2998:3003  _shop */\n      dup7\n        /* \"contracts/MarketPlace.sol\":2983:3004  marketProducts[_shop] */\n      0xffffffffffffffffffffffffffffffffffffffff\n      and\n      0xffffffffffffffffffffffffffffffffffffffff\n      and\n      dup2\n      mstore\n      0x20\n      add\n      swap1\n      dup2\n      mstore\n      0x20\n      add\n      0x00\n      keccak256\n        /* \"contracts/MarketPlace.sol\":2983:3011  marketProducts[_shop].length */\n      dup1\n      sload\n      swap1\n      pop\n        /* \"contracts/MarketPlace.sol\":2970:2980  _productId */\n      dup5\n        /* \"contracts/MarketPlace.sol\":2970:3011  _productId < marketProducts[_shop].length */\n      lt\n        /* \"contracts/MarketPlace.sol\":2962:3034  require(_productId < marketProducts[_shop].length, \"Invalid product ID\") */\n      tag_293\n      jumpi\n      mload(0x40)\n      0x08c379a000000000000000000000000000000000000000000000000000000000\n      dup2\n      mstore\n      0x04\n      add\n      tag_294\n      swap1\n      tag_295\n      jump\t// in\n    tag_294:\n      mload(0x40)\n      dup1\n      swap2\n      sub\n      swap1\n      revert\n    tag_293:\n        /* \"contracts/MarketPlace.sol\":3044:3069  string memory productName */\n      0x00\n        /* \"contracts/MarketPlace.sol\":3072:3086  marketProducts */\n      0x05\n        /* \"contracts/MarketPlace.sol\":3072:3093  marketProducts[_shop] */\n      0x00\n        /* \"contracts/MarketPlace.sol\":3087:3092  _shop */\n      dup8\n        /* \"contracts/MarketPlace.sol\":3072:3093  marketProducts[_shop] */\n      0xffffffffffffffffffffffffffffffffffffffff\n      and\n      0xffffffffffffffffffffffffffffffffffffffff\n      and\n      dup2\n      mstore\n      0x20\n      add\n      swap1\n      dup2\n      mstore\n      0x20\n      add\n      0x00\n      keccak256\n        /* \"contracts/MarketPlace.sol\":3094:3104  _productId */\n      dup6\n        /* \"contracts/MarketPlace.sol\":3072:3105  marketProducts[_shop][_productId] */\n      dup2\n      sload\n      dup2\n      lt\n      tag_296\n      jumpi\n      tag_297\n      tag_199\n      jump\t// in\n    tag_297:\n    tag_296:\n      swap1\n      0x00\n      mstore\n      keccak256(0x00, 0x20)\n      swap1\n      0x05\n      mul\n      add\n        /* \"contracts/MarketPlace.sol\":3072:3110  marketProducts[_shop][_productId].name */\n      0x03\n      add\n        /* \"contracts/MarketPlace.sol\":3044:3110  string memory productName = marketProducts[_shop][_productId].name */\n      dup1\n      sload\n      tag_299\n      swap1\n      tag_172\n      jump\t// in\n    tag_299:\n      dup1\n      0x1f\n      add\n      0x20\n      dup1\n      swap2\n      div\n      mul\n      0x20\n      add\n      mload(0x40)\n      swap1\n      dup2\n      add\n      0x40\n      mstore\n      dup1\n      swap3\n      swap2\n      swap1\n      dup2\n      dup2\n      mstore\n      0x20\n      add\n      dup3\n      dup1\n      sload\n      tag_300\n      swap1\n      tag_172\n      jump\t// in\n    tag_300:\n      dup1\n      iszero\n      tag_301\n      jumpi\n      dup1\n      0x1f\n      lt\n      tag_302\n      jumpi\n      0x0100\n      dup1\n      dup4\n      sload\n      div\n      mul\n      dup4\n      mstore\n      swap2\n      0x20\n      add\n      swap2\n      jump(tag_301)\n    tag_302:\n      dup3\n      add\n      swap2\n      swap1\n      0x00\n      mstore\n      keccak256(0x00, 0x20)\n      swap1\n    tag_303:\n      dup2\n      sload\n      dup2\n      mstore\n      swap1\n      0x01\n      add\n      swap1\n      0x20\n      add\n      dup1\n      dup4\n      gt\n      tag_303\n      jumpi\n      dup3\n      swap1\n      sub\n      0x1f\n      and\n      dup3\n      add\n      swap2\n    tag_301:\n      pop\n      pop\n      pop\n      pop\n      pop\n      swap1\n      pop\n        /* \"contracts/MarketPlace.sol\":3120:3145  string memory trackNumber */\n      0x00\n        /* \"contracts/MarketPlace.sol\":3167:3178  productName */\n      dup2\n        /* \"contracts/MarketPlace.sol\":3148:3184  string.concat(\"AA\",productName,\"BB\") */\n      add(0x20, mload(0x40))\n      tag_304\n      swap2\n      swap1\n      tag_305\n      jump\t// in\n    tag_304:\n      mload(0x40)\n      0x20\n      dup2\n      dup4\n      sub\n      sub\n      dup2\n      mstore\n      swap1\n      0x40\n      mstore\n        /* \"contracts/MarketPlace.sol\":3120:3184  string memory trackNumber = string.concat(\"AA\",productName,\"BB\") */\n      swap1\n      pop\n        /* \"contracts/MarketPlace.sol\":3208:3228  toUpper(trackNumber) */\n      tag_306\n        /* \"contracts/MarketPlace.sol\":3216:3227  trackNumber */\n      dup2\n        /* \"contracts/MarketPlace.sol\":3208:3215  toUpper */\n      tag_82\n        /* \"contracts/MarketPlace.sol\":3208:3228  toUpper(trackNumber) */\n      jump\t// in\n    tag_306:\n        /* \"contracts/MarketPlace.sol\":3194:3228  trackNumber = toUpper(trackNumber) */\n      swap1\n      pop\n        /* \"contracts/MarketPlace.sol\":3238:3264  DeliveryOrder memory order */\n      0x00\n        /* \"contracts/MarketPlace.sol\":3267:3352  DeliveryOrder(msg.sender, _shop, Status.Prepairing, trackNumber, _productId, _amount) */\n      mload(0x40)\n      dup1\n      0xc0\n      add\n      0x40\n      mstore\n      dup1\n        /* \"contracts/MarketPlace.sol\":3281:3291  msg.sender */\n      caller\n        /* \"contracts/MarketPlace.sol\":3267:3352  DeliveryOrder(msg.sender, _shop, Status.Prepairing, trackNumber, _productId, _amount) */\n      0xffffffffffffffffffffffffffffffffffffffff\n      and\n      dup2\n      mstore\n      0x20\n      add\n        /* \"contracts/MarketPlace.sol\":3293:3298  _shop */\n      dup10\n        /* \"contracts/MarketPlace.sol\":3267:3352  DeliveryOrder(msg.sender, _shop, Status.Prepairing, trackNumber, _productId, _amount) */\n      0xffffffffffffffffffffffffffffffffffffffff\n      and\n      dup2\n      mstore\n      0x20\n      add\n        /* \"contracts/MarketPlace.sol\":3300:3317  Status.Prepairing */\n      0x01\n        /* \"contracts/MarketPlace.sol\":3267:3352  DeliveryOrder(msg.sender, _shop, Status.Prepairing, trackNumber, _productId, _amount) */\n      0x03\n      dup2\n      gt\n      iszero\n      tag_307\n      jumpi\n      tag_308\n      tag_156\n      jump\t// in\n    tag_308:\n    tag_307:\n      dup2\n      mstore\n      0x20\n      add\n        /* \"contracts/MarketPlace.sol\":3319:3330  trackNumber */\n      dup4\n        /* \"contracts/MarketPlace.sol\":3267:3352  DeliveryOrder(msg.sender, _shop, Status.Prepairing, trackNumber, _productId, _amount) */\n      dup2\n      mstore\n      0x20\n      add\n        /* \"contracts/MarketPlace.sol\":3332:3342  _productId */\n      dup9\n        /* \"contracts/MarketPlace.sol\":3267:3352  DeliveryOrder(msg.sender, _shop, Status.Prepairing, trackNumber, _productId, _amount) */\n      dup2\n      mstore\n      0x20\n      add\n        /* \"contracts/MarketPlace.sol\":3344:3351  _amount */\n      dup8\n        /* \"contracts/MarketPlace.sol\":3267:3352  DeliveryOrder(msg.sender, _shop, Status.Prepairing, trackNumber, _productId, _amount) */\n      dup2\n      mstore\n      pop\n        /* \"contracts/MarketPlace.sol\":3238:3352  DeliveryOrder memory order = DeliveryOrder(msg.sender, _shop, Status.Prepairing, trackNumber, _productId, _amount) */\n      swap1\n      pop\n        /* \"contracts/MarketPlace.sol\":3362:3376  deliveryOrders */\n      0x02\n        /* \"contracts/MarketPlace.sol\":3382:3387  order */\n      dup2\n        /* \"contracts/MarketPlace.sol\":3362:3388  deliveryOrders.push(order) */\n      swap1\n      dup1\n      0x01\n      dup2\n      sload\n      add\n      dup1\n      dup3\n      sstore\n      dup1\n      swap2\n      pop\n      pop\n      0x01\n      swap1\n      sub\n      swap1\n      0x00\n      mstore\n      keccak256(0x00, 0x20)\n      swap1\n      0x05\n      mul\n      add\n      0x00\n      swap1\n      swap2\n      swap1\n      swap2\n      swap1\n      swap2\n      pop\n      0x00\n      dup3\n      add\n      mload\n      dup2\n      0x00\n      add\n      exp(0x0100, 0x00)\n      dup2\n      sload\n      dup2\n      0xffffffffffffffffffffffffffffffffffffffff\n      mul\n      not\n      and\n      swap1\n      dup4\n      0xffffffffffffffffffffffffffffffffffffffff\n      and\n      mul\n      or\n      swap1\n      sstore\n      pop\n      0x20\n      dup3\n      add\n      mload\n      dup2\n      0x01\n      add\n      exp(0x0100, 0x00)\n      dup2\n      sload\n      dup2\n      0xffffffffffffffffffffffffffffffffffffffff\n      mul\n      not\n      and\n      swap1\n      dup4\n      0xffffffffffffffffffffffffffffffffffffffff\n      and\n      mul\n      or\n      swap1\n      sstore\n      pop\n      0x40\n      dup3\n      add\n      mload\n      dup2\n      0x01\n      add\n      exp(0x0100, 0x14)\n      dup2\n      sload\n      dup2\n      0xff\n      mul\n      not\n      and\n      swap1\n      dup4\n      0x03\n      dup2\n      gt\n      iszero\n      tag_310\n      jumpi\n      tag_311\n      tag_156\n      jump\t// in\n    tag_311:\n    tag_310:\n      mul\n      or\n      swap1\n      sstore\n      pop\n      0x60\n      dup3\n      add\n      mload\n      dup2\n      0x02\n      add\n      swap1\n      dup2\n      tag_312\n      swap2\n      swap1\n      tag_168\n      jump\t// in\n    tag_312:\n      pop\n      0x80\n      dup3\n      add\n      mload\n      dup2\n      0x03\n      add\n      sstore\n      0xa0\n      dup3\n      add\n      mload\n      dup2\n      0x04\n      add\n      sstore\n      pop\n      pop\n        /* \"contracts/MarketPlace.sol\":2880:3395  {... */\n      pop\n      pop\n      pop\n        /* \"contracts/MarketPlace.sol\":2768:3395  function makeDelivery(address _shop, uint _productId, uint _amount) public AccessControl(Role.User, msg.sender) {... */\n      pop\n      pop\n      pop\n      pop\n      pop\n      jump\t// out\n        /* \"contracts/MarketPlace.sol\":3401:3703  function approveDelivery(bool _status, uint _deliveryId) public AccessControl(Role.Market, msg.sender) {... */\n    tag_101:\n        /* \"contracts/MarketPlace.sol\":3479:3490  Role.Market */\n      0x01\n        /* \"contracts/MarketPlace.sol\":3492:3502  msg.sender */\n      caller\n        /* \"contracts/MarketPlace.sol\":1254:1259  _role */\n      dup2\n        /* \"contracts/MarketPlace.sol\":1228:1259  users[msg.sender].role == _role */\n      0x02\n      dup2\n      gt\n      iszero\n      tag_314\n      jumpi\n      tag_315\n      tag_156\n      jump\t// in\n    tag_315:\n    tag_314:\n        /* \"contracts/MarketPlace.sol\":1228:1233  users */\n      0x03\n        /* \"contracts/MarketPlace.sol\":1228:1245  users[msg.sender] */\n      0x00\n        /* \"contracts/MarketPlace.sol\":1234:1244  msg.sender */\n      caller\n        /* \"contracts/MarketPlace.sol\":1228:1245  users[msg.sender] */\n      0xffffffffffffffffffffffffffffffffffffffff\n      and\n      0xffffffffffffffffffffffffffffffffffffffff\n      and\n      dup2\n      mstore\n      0x20\n      add\n      swap1\n      dup2\n      mstore\n      0x20\n      add\n      0x00\n      keccak256\n        /* \"contracts/MarketPlace.sol\":1228:1250  users[msg.sender].role */\n      0x00\n      add\n      0x00\n      swap1\n      sload\n      swap1\n      0x0100\n      exp\n      swap1\n      div\n      0xff\n      and\n        /* \"contracts/MarketPlace.sol\":1228:1259  users[msg.sender].role == _role */\n      0x02\n      dup2\n      gt\n      iszero\n      tag_316\n      jumpi\n      tag_317\n      tag_156\n      jump\t// in\n    tag_317:\n    tag_316:\n      eq\n        /* \"contracts/MarketPlace.sol\":1220:1300  require(users[msg.sender].role == _role, \"Your role does not allow this change\") */\n      tag_318\n      jumpi\n      mload(0x40)\n      0x08c379a000000000000000000000000000000000000000000000000000000000\n      dup2\n      mstore\n      0x04\n      add\n      tag_319\n      swap1\n      tag_161\n      jump\t// in\n    tag_319:\n      mload(0x40)\n      dup1\n      swap2\n      sub\n      swap1\n      revert\n    tag_318:\n        /* \"contracts/MarketPlace.sol\":1332:1337  _shop */\n      dup1\n        /* \"contracts/MarketPlace.sol\":1318:1337  msg.sender == _shop */\n      0xffffffffffffffffffffffffffffffffffffffff\n      and\n        /* \"contracts/MarketPlace.sol\":1318:1328  msg.sender */\n      caller\n        /* \"contracts/MarketPlace.sol\":1318:1337  msg.sender == _shop */\n      0xffffffffffffffffffffffffffffffffffffffff\n      and\n      eq\n        /* \"contracts/MarketPlace.sol\":1310:1376  require(msg.sender == _shop, \"The shop does not match the sender\") */\n      tag_320\n      jumpi\n      mload(0x40)\n      0x08c379a000000000000000000000000000000000000000000000000000000000\n      dup2\n      mstore\n      0x04\n      add\n      tag_321\n      swap1\n      tag_164\n      jump\t// in\n    tag_321:\n      mload(0x40)\n      dup1\n      swap2\n      sub\n      swap1\n      revert\n    tag_320:\n        /* \"contracts/MarketPlace.sol\":3518:3525  _status */\n      dup4\n        /* \"contracts/MarketPlace.sol\":3514:3697  if (_status) {... */\n      iszero\n      tag_323\n      jumpi\n        /* \"contracts/MarketPlace.sol\":3578:3595  Status.Prepairing */\n      0x01\n        /* \"contracts/MarketPlace.sol\":3541:3555  deliveryOrders */\n      0x02\n        /* \"contracts/MarketPlace.sol\":3556:3567  _deliveryId */\n      dup5\n        /* \"contracts/MarketPlace.sol\":3541:3568  deliveryOrders[_deliveryId] */\n      dup2\n      sload\n      dup2\n      lt\n      tag_324\n      jumpi\n      tag_325\n      tag_199\n      jump\t// in\n    tag_325:\n    tag_324:\n      swap1\n      0x00\n      mstore\n      keccak256(0x00, 0x20)\n      swap1\n      0x05\n      mul\n      add\n        /* \"contracts/MarketPlace.sol\":3541:3575  deliveryOrders[_deliveryId].status */\n      0x01\n      add\n      0x14\n        /* \"contracts/MarketPlace.sol\":3541:3595  deliveryOrders[_deliveryId].status = Status.Prepairing */\n      0x0100\n      exp\n      dup2\n      sload\n      dup2\n      0xff\n      mul\n      not\n      and\n      swap1\n      dup4\n      0x03\n      dup2\n      gt\n      iszero\n      tag_327\n      jumpi\n      tag_328\n      tag_156\n      jump\t// in\n    tag_328:\n    tag_327:\n      mul\n      or\n      swap1\n      sstore\n      pop\n        /* \"contracts/MarketPlace.sol\":3514:3697  if (_status) {... */\n      jump(tag_329)\n    tag_323:\n        /* \"contracts/MarketPlace.sol\":3671:3686  Status.Canceled */\n      0x02\n        /* \"contracts/MarketPlace.sol\":3634:3648  deliveryOrders */\n      dup1\n        /* \"contracts/MarketPlace.sol\":3649:3660  _deliveryId */\n      dup5\n        /* \"contracts/MarketPlace.sol\":3634:3661  deliveryOrders[_deliveryId] */\n      dup2\n      sload\n      dup2\n      lt\n      tag_330\n      jumpi\n      tag_331\n      tag_199\n      jump\t// in\n    tag_331:\n    tag_330:\n      swap1\n      0x00\n      mstore\n      keccak256(0x00, 0x20)\n      swap1\n      0x05\n      mul\n      add\n        /* \"contracts/MarketPlace.sol\":3634:3668  deliveryOrders[_deliveryId].status */\n      0x01\n      add\n      0x14\n        /* \"contracts/MarketPlace.sol\":3634:3686  deliveryOrders[_deliveryId].status = Status.Canceled */\n      0x0100\n      exp\n      dup2\n      sload\n      dup2\n      0xff\n      mul\n      not\n      and\n      swap1\n      dup4\n      0x03\n      dup2\n      gt\n      iszero\n      tag_333\n      jumpi\n      tag_334\n      tag_156\n      jump\t// in\n    tag_334:\n    tag_333:\n      mul\n      or\n      swap1\n      sstore\n      pop\n        /* \"contracts/MarketPlace.sol\":3514:3697  if (_status) {... */\n    tag_329:\n        /* \"contracts/MarketPlace.sol\":3401:3703  function approveDelivery(bool _status, uint _deliveryId) public AccessControl(Role.Market, msg.sender) {... */\n      pop\n      pop\n      pop\n      pop\n      jump\t// out\n        /* \"contracts/MarketPlace.sol\":2003:2215  function randMod(uint _modulus) public view returns(uint) {   ... */\n    tag_105:\n        /* \"contracts/MarketPlace.sol\":2055:2059  uint */\n      0x00\n        /* \"contracts/MarketPlace.sol\":2074:2088  uint randNonce */\n      dup1\n        /* \"contracts/MarketPlace.sol\":2098:2109  randNonce++ */\n      dup1\n      dup1\n      tag_336\n      swap1\n      tag_263\n      jump\t// in\n    tag_336:\n      swap2\n      pop\n      pop\n        /* \"contracts/MarketPlace.sol\":2200:2208  _modulus */\n      dup3\n        /* \"contracts/MarketPlace.sol\":2158:2173  block.timestamp */\n      timestamp\n        /* \"contracts/MarketPlace.sol\":2174:2184  msg.sender */\n      caller\n        /* \"contracts/MarketPlace.sol\":2185:2194  randNonce */\n      dup4\n        /* \"contracts/MarketPlace.sol\":2141:2195  abi.encodePacked(block.timestamp,msg.sender,randNonce) */\n      add(0x20, mload(0x40))\n      tag_337\n      swap4\n      swap3\n      swap2\n      swap1\n      tag_338\n      jump\t// in\n    tag_337:\n      mload(0x40)\n      0x20\n      dup2\n      dup4\n      sub\n      sub\n      dup2\n      mstore\n      swap1\n      0x40\n      mstore\n        /* \"contracts/MarketPlace.sol\":2131:2196  keccak256(abi.encodePacked(block.timestamp,msg.sender,randNonce)) */\n      dup1\n      mload\n      swap1\n      0x20\n      add\n      keccak256\n        /* \"contracts/MarketPlace.sol\":2126:2197  uint(keccak256(abi.encodePacked(block.timestamp,msg.sender,randNonce))) */\n      0x00\n      shr\n        /* \"contracts/MarketPlace.sol\":2126:2208  uint(keccak256(abi.encodePacked(block.timestamp,msg.sender,randNonce))) % _modulus */\n      tag_339\n      swap2\n      swap1\n      tag_340\n      jump\t// in\n    tag_339:\n        /* \"contracts/MarketPlace.sol\":2119:2208  return uint(keccak256(abi.encodePacked(block.timestamp,msg.sender,randNonce))) % _modulus */\n      swap2\n      pop\n      pop\n        /* \"contracts/MarketPlace.sol\":2003:2215  function randMod(uint _modulus) public view returns(uint) {   ... */\n      swap2\n      swap1\n      pop\n      jump\t// out\n        /* \"contracts/MarketPlace.sol\":4139:4453  function addItemsSupplier(uint _inStock, uint _price, string calldata _name, uint _expDate, address _addressSupp) public AccessControl(Role.Supplier, _addressSupp) {... */\n    tag_112:\n        /* \"contracts/MarketPlace.sol\":4274:4287  Role.Supplier */\n      0x02\n        /* \"contracts/MarketPlace.sol\":4289:4301  _addressSupp */\n      dup2\n        /* \"contracts/MarketPlace.sol\":1254:1259  _role */\n      dup2\n        /* \"contracts/MarketPlace.sol\":1228:1259  users[msg.sender].role == _role */\n      0x02\n      dup2\n      gt\n      iszero\n      tag_342\n      jumpi\n      tag_343\n      tag_156\n      jump\t// in\n    tag_343:\n    tag_342:\n        /* \"contracts/MarketPlace.sol\":1228:1233  users */\n      0x03\n        /* \"contracts/MarketPlace.sol\":1228:1245  users[msg.sender] */\n      0x00\n        /* \"contracts/MarketPlace.sol\":1234:1244  msg.sender */\n      caller\n        /* \"contracts/MarketPlace.sol\":1228:1245  users[msg.sender] */\n      0xffffffffffffffffffffffffffffffffffffffff\n      and\n      0xffffffffffffffffffffffffffffffffffffffff\n      and\n      dup2\n      mstore\n      0x20\n      add\n      swap1\n      dup2\n      mstore\n      0x20\n      add\n      0x00\n      keccak256\n        /* \"contracts/MarketPlace.sol\":1228:1250  users[msg.sender].role */\n      0x00\n      add\n      0x00\n      swap1\n      sload\n      swap1\n      0x0100\n      exp\n      swap1\n      div\n      0xff\n      and\n        /* \"contracts/MarketPlace.sol\":1228:1259  users[msg.sender].role == _role */\n      0x02\n      dup2\n      gt\n      iszero\n      tag_344\n      jumpi\n      tag_345\n      tag_156\n      jump\t// in\n    tag_345:\n    tag_344:\n      eq\n        /* \"contracts/MarketPlace.sol\":1220:1300  require(users[msg.sender].role == _role, \"Your role does not allow this change\") */\n      tag_346\n      jumpi\n      mload(0x40)\n      0x08c379a000000000000000000000000000000000000000000000000000000000\n      dup2\n      mstore\n      0x04\n      add\n      tag_347\n      swap1\n      tag_161\n      jump\t// in\n    tag_347:\n      mload(0x40)\n      dup1\n      swap2\n      sub\n      swap1\n      revert\n    tag_346:\n        /* \"contracts/MarketPlace.sol\":1332:1337  _shop */\n      dup1\n        /* \"contracts/MarketPlace.sol\":1318:1337  msg.sender == _shop */\n      0xffffffffffffffffffffffffffffffffffffffff\n      and\n        /* \"contracts/MarketPlace.sol\":1318:1328  msg.sender */\n      caller\n        /* \"contracts/MarketPlace.sol\":1318:1337  msg.sender == _shop */\n      0xffffffffffffffffffffffffffffffffffffffff\n      and\n      eq\n        /* \"contracts/MarketPlace.sol\":1310:1376  require(msg.sender == _shop, \"The shop does not match the sender\") */\n      tag_348\n      jumpi\n      mload(0x40)\n      0x08c379a000000000000000000000000000000000000000000000000000000000\n      dup2\n      mstore\n      0x04\n      add\n      tag_349\n      swap1\n      tag_164\n      jump\t// in\n    tag_349:\n      mload(0x40)\n      dup1\n      swap2\n      sub\n      swap1\n      revert\n    tag_348:\n        /* \"contracts/MarketPlace.sol\":4313:4332  Product memory item */\n      0x00\n        /* \"contracts/MarketPlace.sol\":4335:4395  Product(_addressSupp, _inStock, _price / 2, _name, _expDate) */\n      mload(0x40)\n      dup1\n      0xa0\n      add\n      0x40\n      mstore\n      dup1\n        /* \"contracts/MarketPlace.sol\":4343:4355  _addressSupp */\n      dup6\n        /* \"contracts/MarketPlace.sol\":4335:4395  Product(_addressSupp, _inStock, _price / 2, _name, _expDate) */\n      0xffffffffffffffffffffffffffffffffffffffff\n      and\n      dup2\n      mstore\n      0x20\n      add\n        /* \"contracts/MarketPlace.sol\":4357:4365  _inStock */\n      dup11\n        /* \"contracts/MarketPlace.sol\":4335:4395  Product(_addressSupp, _inStock, _price / 2, _name, _expDate) */\n      dup2\n      mstore\n      0x20\n      add\n        /* \"contracts/MarketPlace.sol\":4376:4377  2 */\n      0x02\n        /* \"contracts/MarketPlace.sol\":4367:4373  _price */\n      dup11\n        /* \"contracts/MarketPlace.sol\":4367:4377  _price / 2 */\n      tag_351\n      swap2\n      swap1\n      tag_352\n      jump\t// in\n    tag_351:\n        /* \"contracts/MarketPlace.sol\":4335:4395  Product(_addressSupp, _inStock, _price / 2, _name, _expDate) */\n      dup2\n      mstore\n      0x20\n      add\n        /* \"contracts/MarketPlace.sol\":4379:4384  _name */\n      dup9\n      dup9\n        /* \"contracts/MarketPlace.sol\":4335:4395  Product(_addressSupp, _inStock, _price / 2, _name, _expDate) */\n      dup1\n      dup1\n      0x1f\n      add\n      0x20\n      dup1\n      swap2\n      div\n      mul\n      0x20\n      add\n      mload(0x40)\n      swap1\n      dup2\n      add\n      0x40\n      mstore\n      dup1\n      swap4\n      swap3\n      swap2\n      swap1\n      dup2\n      dup2\n      mstore\n      0x20\n      add\n      dup4\n      dup4\n      dup1\n      dup3\n      dup5\n      calldatacopy\n      0x00\n      dup2\n      dup5\n      add\n      mstore\n      not(0x1f)\n      0x1f\n      dup3\n      add\n      and\n      swap1\n      pop\n      dup1\n      dup4\n      add\n      swap3\n      pop\n      pop\n      pop\n      pop\n      pop\n      pop\n      pop\n      dup2\n      mstore\n      0x20\n      add\n        /* \"contracts/MarketPlace.sol\":4386:4394  _expDate */\n      dup7\n        /* \"contracts/MarketPlace.sol\":4335:4395  Product(_addressSupp, _inStock, _price / 2, _name, _expDate) */\n      dup2\n      mstore\n      pop\n        /* \"contracts/MarketPlace.sol\":4313:4395  Product memory item = Product(_addressSupp, _inStock, _price / 2, _name, _expDate) */\n      swap1\n      pop\n        /* \"contracts/MarketPlace.sol\":4405:4421  supplierProducts */\n      0x06\n        /* \"contracts/MarketPlace.sol\":4405:4435  supplierProducts[_addressSupp] */\n      0x00\n        /* \"contracts/MarketPlace.sol\":4422:4434  _addressSupp */\n      dup6\n        /* \"contracts/MarketPlace.sol\":4405:4435  supplierProducts[_addressSupp] */\n      0xffffffffffffffffffffffffffffffffffffffff\n      and\n      0xffffffffffffffffffffffffffffffffffffffff\n      and\n      dup2\n      mstore\n      0x20\n      add\n      swap1\n      dup2\n      mstore\n      0x20\n      add\n      0x00\n      keccak256\n        /* \"contracts/MarketPlace.sol\":4441:4445  item */\n      dup2\n        /* \"contracts/MarketPlace.sol\":4405:4446  supplierProducts[_addressSupp].push(item) */\n      swap1\n      dup1\n      0x01\n      dup2\n      sload\n      add\n      dup1\n      dup3\n      sstore\n      dup1\n      swap2\n      pop\n      pop\n      0x01\n      swap1\n      sub\n      swap1\n      0x00\n      mstore\n      keccak256(0x00, 0x20)\n      swap1\n      0x05\n      mul\n      add\n      0x00\n      swap1\n      swap2\n      swap1\n      swap2\n      swap1\n      swap2\n      pop\n      0x00\n      dup3\n      add\n      mload\n      dup2\n      0x00\n      add\n      exp(0x0100, 0x00)\n      dup2\n      sload\n      dup2\n      0xffffffffffffffffffffffffffffffffffffffff\n      mul\n      not\n      and\n      swap1\n      dup4\n      0xffffffffffffffffffffffffffffffffffffffff\n      and\n      mul\n      or\n      swap1\n      sstore\n      pop\n      0x20\n      dup3\n      add\n      mload\n      dup2\n      0x01\n      add\n      sstore\n      0x40\n      dup3\n      add\n      mload\n      dup2\n      0x02\n      add\n      sstore\n      0x60\n      dup3\n      add\n      mload\n      dup2\n      0x03\n      add\n      swap1\n      dup2\n      tag_354\n      swap2\n      swap1\n      tag_168\n      jump\t// in\n    tag_354:\n      pop\n      0x80\n      dup3\n      add\n      mload\n      dup2\n      0x04\n      add\n      sstore\n      pop\n      pop\n        /* \"contracts/MarketPlace.sol\":4303:4453  {... */\n      pop\n        /* \"contracts/MarketPlace.sol\":4139:4453  function addItemsSupplier(uint _inStock, uint _price, string calldata _name, uint _expDate, address _addressSupp) public AccessControl(Role.Supplier, _addressSupp) {... */\n      pop\n      pop\n      pop\n      pop\n      pop\n      pop\n      pop\n      pop\n      jump\t// out\n        /* \"contracts/MarketPlace.sol\":222:242  address public owner */\n    tag_115:\n      0x01\n      0x00\n      swap1\n      sload\n      swap1\n      0x0100\n      exp\n      swap1\n      div\n      0xffffffffffffffffffffffffffffffffffffffff\n      and\n      dup2\n      jump\t// out\n        /* \"contracts/MarketPlace.sol\":6629:8226  function purchase(address _shop, uint _amount, uint _id, string memory _ref ) public payable {... */\n    tag_121:\n        /* \"contracts/MarketPlace.sol\":6762:6771  Role.User */\n      0x00\n        /* \"contracts/MarketPlace.sol\":6736:6771  users[msg.sender].role == Role.User */\n      0x02\n      dup2\n      gt\n      iszero\n      tag_356\n      jumpi\n      tag_357\n      tag_156\n      jump\t// in\n    tag_357:\n    tag_356:\n        /* \"contracts/MarketPlace.sol\":6736:6741  users */\n      0x03\n        /* \"contracts/MarketPlace.sol\":6736:6753  users[msg.sender] */\n      0x00\n        /* \"contracts/MarketPlace.sol\":6742:6752  msg.sender */\n      caller\n        /* \"contracts/MarketPlace.sol\":6736:6753  users[msg.sender] */\n      0xffffffffffffffffffffffffffffffffffffffff\n      and\n      0xffffffffffffffffffffffffffffffffffffffff\n      and\n      dup2\n      mstore\n      0x20\n      add\n      swap1\n      dup2\n      mstore\n      0x20\n      add\n      0x00\n      keccak256\n        /* \"contracts/MarketPlace.sol\":6736:6758  users[msg.sender].role */\n      0x00\n      add\n      0x00\n      swap1\n      sload\n      swap1\n      0x0100\n      exp\n      swap1\n      div\n      0xff\n      and\n        /* \"contracts/MarketPlace.sol\":6736:6771  users[msg.sender].role == Role.User */\n      0x02\n      dup2\n      gt\n      iszero\n      tag_358\n      jumpi\n      tag_359\n      tag_156\n      jump\t// in\n    tag_359:\n    tag_358:\n      sub\n        /* \"contracts/MarketPlace.sol\":6732:6837  if (users[msg.sender].role == Role.User) {... */\n      tag_360\n      jumpi\n        /* \"contracts/MarketPlace.sol\":6807:6826  User( Role.User, 0) */\n      mload(0x40)\n      dup1\n      0x40\n      add\n      0x40\n      mstore\n      dup1\n        /* \"contracts/MarketPlace.sol\":6813:6822  Role.User */\n      0x00\n        /* \"contracts/MarketPlace.sol\":6807:6826  User( Role.User, 0) */\n      0x02\n      dup2\n      gt\n      iszero\n      tag_361\n      jumpi\n      tag_362\n      tag_156\n      jump\t// in\n    tag_362:\n    tag_361:\n      dup2\n      mstore\n      0x20\n      add\n        /* \"contracts/MarketPlace.sol\":6824:6825  0 */\n      0x00\n        /* \"contracts/MarketPlace.sol\":6807:6826  User( Role.User, 0) */\n      dup2\n      mstore\n      pop\n        /* \"contracts/MarketPlace.sol\":6787:6792  users */\n      0x03\n        /* \"contracts/MarketPlace.sol\":6787:6804  users[msg.sender] */\n      0x00\n        /* \"contracts/MarketPlace.sol\":6793:6803  msg.sender */\n      caller\n        /* \"contracts/MarketPlace.sol\":6787:6804  users[msg.sender] */\n      0xffffffffffffffffffffffffffffffffffffffff\n      and\n      0xffffffffffffffffffffffffffffffffffffffff\n      and\n      dup2\n      mstore\n      0x20\n      add\n      swap1\n      dup2\n      mstore\n      0x20\n      add\n      0x00\n      keccak256\n        /* \"contracts/MarketPlace.sol\":6787:6826  users[msg.sender] = User( Role.User, 0) */\n      0x00\n      dup3\n      add\n      mload\n      dup2\n      0x00\n      add\n      exp(0x0100, 0x00)\n      dup2\n      sload\n      dup2\n      0xff\n      mul\n      not\n      and\n      swap1\n      dup4\n      0x02\n      dup2\n      gt\n      iszero\n      tag_363\n      jumpi\n      tag_364\n      tag_156\n      jump\t// in\n    tag_364:\n    tag_363:\n      mul\n      or\n      swap1\n      sstore\n      pop\n      0x20\n      dup3\n      add\n      mload\n      dup2\n      0x01\n      add\n      sstore\n      swap1\n      pop\n      pop\n        /* \"contracts/MarketPlace.sol\":6732:6837  if (users[msg.sender].role == Role.User) {... */\n    tag_360:\n        /* \"contracts/MarketPlace.sol\":6873:6874  0 */\n      0x00\n        /* \"contracts/MarketPlace.sol\":6863:6870  _amount */\n      dup4\n        /* \"contracts/MarketPlace.sol\":6863:6874  _amount > 0 */\n      gt\n        /* \"contracts/MarketPlace.sol\":6855:6917  require(_amount > 0, \"Purchase amount must be greater than 0\") */\n      tag_365\n      jumpi\n      mload(0x40)\n      0x08c379a000000000000000000000000000000000000000000000000000000000\n      dup2\n      mstore\n      0x04\n      add\n      tag_366\n      swap1\n      tag_292\n      jump\t// in\n    tag_366:\n      mload(0x40)\n      dup1\n      swap2\n      sub\n      swap1\n      revert\n    tag_365:\n        /* \"contracts/MarketPlace.sol\":6941:6955  marketProducts */\n      0x05\n        /* \"contracts/MarketPlace.sol\":6941:6962  marketProducts[_shop] */\n      0x00\n        /* \"contracts/MarketPlace.sol\":6956:6961  _shop */\n      dup6\n        /* \"contracts/MarketPlace.sol\":6941:6962  marketProducts[_shop] */\n      0xffffffffffffffffffffffffffffffffffffffff\n      and\n      0xffffffffffffffffffffffffffffffffffffffff\n      and\n      dup2\n      mstore\n      0x20\n      add\n      swap1\n      dup2\n      mstore\n      0x20\n      add\n      0x00\n      keccak256\n        /* \"contracts/MarketPlace.sol\":6941:6969  marketProducts[_shop].length */\n      dup1\n      sload\n      swap1\n      pop\n        /* \"contracts/MarketPlace.sol\":6935:6938  _id */\n      dup3\n        /* \"contracts/MarketPlace.sol\":6935:6969  _id < marketProducts[_shop].length */\n      lt\n        /* \"contracts/MarketPlace.sol\":6927:6992  require(_id < marketProducts[_shop].length, \"Invalid product ID\") */\n      tag_367\n      jumpi\n      mload(0x40)\n      0x08c379a000000000000000000000000000000000000000000000000000000000\n      dup2\n      mstore\n      0x04\n      add\n      tag_368\n      swap1\n      tag_295\n      jump\t// in\n    tag_368:\n      mload(0x40)\n      dup1\n      swap2\n      sub\n      swap1\n      revert\n    tag_367:\n        /* \"contracts/MarketPlace.sol\":7021:7035  marketProducts */\n      0x05\n        /* \"contracts/MarketPlace.sol\":7021:7042  marketProducts[_shop] */\n      0x00\n        /* \"contracts/MarketPlace.sol\":7036:7041  _shop */\n      dup6\n        /* \"contracts/MarketPlace.sol\":7021:7042  marketProducts[_shop] */\n      0xffffffffffffffffffffffffffffffffffffffff\n      and\n      0xffffffffffffffffffffffffffffffffffffffff\n      and\n      dup2\n      mstore\n      0x20\n      add\n      swap1\n      dup2\n      mstore\n      0x20\n      add\n      0x00\n      keccak256\n        /* \"contracts/MarketPlace.sol\":7043:7046  _id */\n      dup3\n        /* \"contracts/MarketPlace.sol\":7021:7047  marketProducts[_shop][_id] */\n      dup2\n      sload\n      dup2\n      lt\n      tag_369\n      jumpi\n      tag_370\n      tag_199\n      jump\t// in\n    tag_370:\n    tag_369:\n      swap1\n      0x00\n      mstore\n      keccak256(0x00, 0x20)\n      swap1\n      0x05\n      mul\n      add\n        /* \"contracts/MarketPlace.sol\":7021:7055  marketProducts[_shop][_id].inStock */\n      0x01\n      add\n      sload\n        /* \"contracts/MarketPlace.sol\":7010:7017  _amount */\n      dup4\n        /* \"contracts/MarketPlace.sol\":7010:7055  _amount <= marketProducts[_shop][_id].inStock */\n      gt\n      iszero\n        /* \"contracts/MarketPlace.sol\":7002:7086  require(_amount <= marketProducts[_shop][_id].inStock, \"Not enough stock available\") */\n      tag_372\n      jumpi\n      mload(0x40)\n      0x08c379a000000000000000000000000000000000000000000000000000000000\n      dup2\n      mstore\n      0x04\n      add\n      tag_373\n      swap1\n      tag_374\n      jump\t// in\n    tag_373:\n      mload(0x40)\n      dup1\n      swap2\n      sub\n      swap1\n      revert\n    tag_372:\n        /* \"contracts/MarketPlace.sol\":7097:7112  uint totalPrice */\n      0x00\n        /* \"contracts/MarketPlace.sol\":7160:7167  1 ether */\n      0x0de0b6b3a7640000\n        /* \"contracts/MarketPlace.sol\":7125:7139  marketProducts */\n      0x05\n        /* \"contracts/MarketPlace.sol\":7125:7146  marketProducts[_shop] */\n      0x00\n        /* \"contracts/MarketPlace.sol\":7140:7145  _shop */\n      dup8\n        /* \"contracts/MarketPlace.sol\":7125:7146  marketProducts[_shop] */\n      0xffffffffffffffffffffffffffffffffffffffff\n      and\n      0xffffffffffffffffffffffffffffffffffffffff\n      and\n      dup2\n      mstore\n      0x20\n      add\n      swap1\n      dup2\n      mstore\n      0x20\n      add\n      0x00\n      keccak256\n        /* \"contracts/MarketPlace.sol\":7147:7150  _id */\n      dup5\n        /* \"contracts/MarketPlace.sol\":7125:7151  marketProducts[_shop][_id] */\n      dup2\n      sload\n      dup2\n      lt\n      tag_375\n      jumpi\n      tag_376\n      tag_199\n      jump\t// in\n    tag_376:\n    tag_375:\n      swap1\n      0x00\n      mstore\n      keccak256(0x00, 0x20)\n      swap1\n      0x05\n      mul\n      add\n        /* \"contracts/MarketPlace.sol\":7125:7157  marketProducts[_shop][_id].price */\n      0x02\n      add\n      sload\n        /* \"contracts/MarketPlace.sol\":7115:7122  _amount */\n      dup6\n        /* \"contracts/MarketPlace.sol\":7115:7157  _amount * marketProducts[_shop][_id].price */\n      tag_378\n      swap2\n      swap1\n      tag_212\n      jump\t// in\n    tag_378:\n        /* \"contracts/MarketPlace.sol\":7115:7167  _amount * marketProducts[_shop][_id].price * 1 ether */\n      tag_379\n      swap2\n      swap1\n      tag_212\n      jump\t// in\n    tag_379:\n        /* \"contracts/MarketPlace.sol\":7097:7167  uint totalPrice = _amount * marketProducts[_shop][_id].price * 1 ether */\n      swap1\n      pop\n        /* \"contracts/MarketPlace.sol\":7201:7211  msg.sender */\n      caller\n        /* \"contracts/MarketPlace.sol\":7182:7211  referrals[_ref] == msg.sender */\n      0xffffffffffffffffffffffffffffffffffffffff\n      and\n        /* \"contracts/MarketPlace.sol\":7182:7191  referrals */\n      0x07\n        /* \"contracts/MarketPlace.sol\":7192:7196  _ref */\n      dup4\n        /* \"contracts/MarketPlace.sol\":7182:7197  referrals[_ref] */\n      mload(0x40)\n      tag_380\n      swap2\n      swap1\n      tag_381\n      jump\t// in\n    tag_380:\n      swap1\n      dup2\n      mstore\n      0x20\n      add\n      mload(0x40)\n      dup1\n      swap2\n      sub\n      swap1\n      keccak256\n      0x00\n      swap1\n      sload\n      swap1\n      0x0100\n      exp\n      swap1\n      div\n      0xffffffffffffffffffffffffffffffffffffffff\n      and\n        /* \"contracts/MarketPlace.sol\":7182:7211  referrals[_ref] == msg.sender */\n      0xffffffffffffffffffffffffffffffffffffffff\n      and\n      sub\n        /* \"contracts/MarketPlace.sol\":7178:7316  if (referrals[_ref] == msg.sender) {... */\n      tag_382\n      jumpi\n        /* \"contracts/MarketPlace.sol\":7259:7262  100 */\n      0x64\n        /* \"contracts/MarketPlace.sol\":7254:7256  90 */\n      0x5a\n        /* \"contracts/MarketPlace.sol\":7241:7251  totalPrice */\n      dup3\n        /* \"contracts/MarketPlace.sol\":7241:7256  totalPrice * 90 */\n      tag_383\n      swap2\n      swap1\n      tag_212\n      jump\t// in\n    tag_383:\n        /* \"contracts/MarketPlace.sol\":7241:7262  totalPrice * 90 / 100 */\n      tag_384\n      swap2\n      swap1\n      tag_352\n      jump\t// in\n    tag_384:\n        /* \"contracts/MarketPlace.sol\":7227:7263  totalPrice = (totalPrice * 90 / 100) */\n      swap1\n      pop\n        /* \"contracts/MarketPlace.sol\":7303:7304  0 */\n      0x00\n        /* \"contracts/MarketPlace.sol\":7277:7286  referrals */\n      0x07\n        /* \"contracts/MarketPlace.sol\":7287:7291  _ref */\n      dup4\n        /* \"contracts/MarketPlace.sol\":7277:7292  referrals[_ref] */\n      mload(0x40)\n      tag_385\n      swap2\n      swap1\n      tag_381\n      jump\t// in\n    tag_385:\n      swap1\n      dup2\n      mstore\n      0x20\n      add\n      mload(0x40)\n      dup1\n      swap2\n      sub\n      swap1\n      keccak256\n      0x00\n        /* \"contracts/MarketPlace.sol\":7277:7305  referrals[_ref] = address(0) */\n      0x0100\n      exp\n      dup2\n      sload\n      dup2\n      0xffffffffffffffffffffffffffffffffffffffff\n      mul\n      not\n      and\n      swap1\n      dup4\n      0xffffffffffffffffffffffffffffffffffffffff\n      and\n      mul\n      or\n      swap1\n      sstore\n      pop\n        /* \"contracts/MarketPlace.sol\":7178:7316  if (referrals[_ref] == msg.sender) {... */\n    tag_382:\n        /* \"contracts/MarketPlace.sol\":7347:7357  totalPrice */\n      dup1\n        /* \"contracts/MarketPlace.sol\":7334:7343  msg.value */\n      callvalue\n        /* \"contracts/MarketPlace.sol\":7334:7357  msg.value >= totalPrice */\n      lt\n      iszero\n        /* \"contracts/MarketPlace.sol\":7326:7385  require(msg.value >= totalPrice, \"Insufficient funds sent\") */\n      tag_386\n      jumpi\n      mload(0x40)\n      0x08c379a000000000000000000000000000000000000000000000000000000000\n      dup2\n      mstore\n      0x04\n      add\n      tag_387\n      swap1\n      tag_388\n      jump\t// in\n    tag_387:\n      mload(0x40)\n      dup1\n      swap2\n      sub\n      swap1\n      revert\n    tag_386:\n        /* \"contracts/MarketPlace.sol\":7395:7413  bool productExists */\n      0x00\n        /* \"contracts/MarketPlace.sol\":7437:7443  uint i */\n      dup1\n        /* \"contracts/MarketPlace.sol\":7432:7763  for (uint i = 0; i < userProducts[msg.sender].length; i++) {... */\n    tag_389:\n        /* \"contracts/MarketPlace.sol\":7453:7465  userProducts */\n      0x04\n        /* \"contracts/MarketPlace.sol\":7453:7477  userProducts[msg.sender] */\n      0x00\n        /* \"contracts/MarketPlace.sol\":7466:7476  msg.sender */\n      caller\n        /* \"contracts/MarketPlace.sol\":7453:7477  userProducts[msg.sender] */\n      0xffffffffffffffffffffffffffffffffffffffff\n      and\n      0xffffffffffffffffffffffffffffffffffffffff\n      and\n      dup2\n      mstore\n      0x20\n      add\n      swap1\n      dup2\n      mstore\n      0x20\n      add\n      0x00\n      keccak256\n        /* \"contracts/MarketPlace.sol\":7453:7484  userProducts[msg.sender].length */\n      dup1\n      sload\n      swap1\n      pop\n        /* \"contracts/MarketPlace.sol\":7449:7450  i */\n      dup2\n        /* \"contracts/MarketPlace.sol\":7449:7484  i < userProducts[msg.sender].length */\n      lt\n        /* \"contracts/MarketPlace.sol\":7432:7763  for (uint i = 0; i < userProducts[msg.sender].length; i++) {... */\n      iszero\n      tag_390\n      jumpi\n        /* \"contracts/MarketPlace.sol\":7579:7591  userProducts */\n      0x04\n        /* \"contracts/MarketPlace.sol\":7579:7598  userProducts[_shop] */\n      0x00\n        /* \"contracts/MarketPlace.sol\":7592:7597  _shop */\n      dup9\n        /* \"contracts/MarketPlace.sol\":7579:7598  userProducts[_shop] */\n      0xffffffffffffffffffffffffffffffffffffffff\n      and\n      0xffffffffffffffffffffffffffffffffffffffff\n      and\n      dup2\n      mstore\n      0x20\n      add\n      swap1\n      dup2\n      mstore\n      0x20\n      add\n      0x00\n      keccak256\n        /* \"contracts/MarketPlace.sol\":7599:7602  _id */\n      dup6\n        /* \"contracts/MarketPlace.sol\":7579:7603  userProducts[_shop][_id] */\n      dup2\n      sload\n      dup2\n      lt\n      tag_392\n      jumpi\n      tag_393\n      tag_199\n      jump\t// in\n    tag_393:\n    tag_392:\n      swap1\n      0x00\n      mstore\n      keccak256(0x00, 0x20)\n      swap1\n      0x05\n      mul\n      add\n        /* \"contracts/MarketPlace.sol\":7579:7608  userProducts[_shop][_id].name */\n      0x03\n      add\n        /* \"contracts/MarketPlace.sol\":7563:7610  keccak256(bytes(userProducts[_shop][_id].name)) */\n      mload(0x40)\n      tag_395\n      swap2\n      swap1\n      tag_396\n      jump\t// in\n    tag_395:\n      mload(0x40)\n      dup1\n      swap2\n      sub\n      swap1\n      keccak256\n        /* \"contracts/MarketPlace.sol\":7525:7537  userProducts */\n      0x04\n        /* \"contracts/MarketPlace.sol\":7525:7549  userProducts[msg.sender] */\n      0x00\n        /* \"contracts/MarketPlace.sol\":7538:7548  msg.sender */\n      caller\n        /* \"contracts/MarketPlace.sol\":7525:7549  userProducts[msg.sender] */\n      0xffffffffffffffffffffffffffffffffffffffff\n      and\n      0xffffffffffffffffffffffffffffffffffffffff\n      and\n      dup2\n      mstore\n      0x20\n      add\n      swap1\n      dup2\n      mstore\n      0x20\n      add\n      0x00\n      keccak256\n        /* \"contracts/MarketPlace.sol\":7550:7551  i */\n      dup3\n        /* \"contracts/MarketPlace.sol\":7525:7552  userProducts[msg.sender][i] */\n      dup2\n      sload\n      dup2\n      lt\n      tag_397\n      jumpi\n      tag_398\n      tag_199\n      jump\t// in\n    tag_398:\n    tag_397:\n      swap1\n      0x00\n      mstore\n      keccak256(0x00, 0x20)\n      swap1\n      0x05\n      mul\n      add\n        /* \"contracts/MarketPlace.sol\":7525:7557  userProducts[msg.sender][i].name */\n      0x03\n      add\n        /* \"contracts/MarketPlace.sol\":7509:7559  keccak256(bytes(userProducts[msg.sender][i].name)) */\n      mload(0x40)\n      tag_400\n      swap2\n      swap1\n      tag_396\n      jump\t// in\n    tag_400:\n      mload(0x40)\n      dup1\n      swap2\n      sub\n      swap1\n      keccak256\n        /* \"contracts/MarketPlace.sol\":7509:7610  keccak256(bytes(userProducts[msg.sender][i].name)) == keccak256(bytes(userProducts[_shop][_id].name)) */\n      sub\n        /* \"contracts/MarketPlace.sol\":7505:7753  if (keccak256(bytes(userProducts[msg.sender][i].name)) == keccak256(bytes(userProducts[_shop][_id].name))) {... */\n      tag_401\n      jumpi\n        /* \"contracts/MarketPlace.sol\":7669:7676  _amount */\n      dup6\n        /* \"contracts/MarketPlace.sol\":7630:7642  userProducts */\n      0x04\n        /* \"contracts/MarketPlace.sol\":7630:7654  userProducts[msg.sender] */\n      0x00\n        /* \"contracts/MarketPlace.sol\":7643:7653  msg.sender */\n      caller\n        /* \"contracts/MarketPlace.sol\":7630:7654  userProducts[msg.sender] */\n      0xffffffffffffffffffffffffffffffffffffffff\n      and\n      0xffffffffffffffffffffffffffffffffffffffff\n      and\n      dup2\n      mstore\n      0x20\n      add\n      swap1\n      dup2\n      mstore\n      0x20\n      add\n      0x00\n      keccak256\n        /* \"contracts/MarketPlace.sol\":7655:7656  i */\n      dup3\n        /* \"contracts/MarketPlace.sol\":7630:7657  userProducts[msg.sender][i] */\n      dup2\n      sload\n      dup2\n      lt\n      tag_402\n      jumpi\n      tag_403\n      tag_199\n      jump\t// in\n    tag_403:\n    tag_402:\n      swap1\n      0x00\n      mstore\n      keccak256(0x00, 0x20)\n      swap1\n      0x05\n      mul\n      add\n        /* \"contracts/MarketPlace.sol\":7630:7665  userProducts[msg.sender][i].inStock */\n      0x01\n      add\n      0x00\n        /* \"contracts/MarketPlace.sol\":7630:7676  userProducts[msg.sender][i].inStock += _amount */\n      dup3\n      dup3\n      sload\n      tag_405\n      swap2\n      swap1\n      tag_221\n      jump\t// in\n    tag_405:\n      swap3\n      pop\n      pop\n      dup2\n      swap1\n      sstore\n      pop\n        /* \"contracts/MarketPlace.sol\":7710:7714  true */\n      0x01\n        /* \"contracts/MarketPlace.sol\":7694:7714  productExists = true */\n      swap2\n      pop\n        /* \"contracts/MarketPlace.sol\":7732:7737  break */\n      jump(tag_390)\n        /* \"contracts/MarketPlace.sol\":7505:7753  if (keccak256(bytes(userProducts[msg.sender][i].name)) == keccak256(bytes(userProducts[_shop][_id].name))) {... */\n    tag_401:\n        /* \"contracts/MarketPlace.sol\":7486:7489  i++ */\n      dup1\n      dup1\n      tag_406\n      swap1\n      tag_263\n      jump\t// in\n    tag_406:\n      swap2\n      pop\n      pop\n        /* \"contracts/MarketPlace.sol\":7432:7763  for (uint i = 0; i < userProducts[msg.sender].length; i++) {... */\n      jump(tag_389)\n    tag_390:\n      pop\n        /* \"contracts/MarketPlace.sol\":7778:7791  productExists */\n      dup1\n        /* \"contracts/MarketPlace.sol\":7773:8005  if (!productExists) {... */\n      tag_407\n      jumpi\n        /* \"contracts/MarketPlace.sol\":7807:7829  Product memory newItem */\n      0x00\n        /* \"contracts/MarketPlace.sol\":7832:7942  Product(msg.sender, _amount, marketProducts[_shop][_id].price, marketProducts[_shop][_id].name, randMod(1000)) */\n      mload(0x40)\n      dup1\n      0xa0\n      add\n      0x40\n      mstore\n      dup1\n        /* \"contracts/MarketPlace.sol\":7840:7850  msg.sender */\n      caller\n        /* \"contracts/MarketPlace.sol\":7832:7942  Product(msg.sender, _amount, marketProducts[_shop][_id].price, marketProducts[_shop][_id].name, randMod(1000)) */\n      0xffffffffffffffffffffffffffffffffffffffff\n      and\n      dup2\n      mstore\n      0x20\n      add\n        /* \"contracts/MarketPlace.sol\":7852:7859  _amount */\n      dup8\n        /* \"contracts/MarketPlace.sol\":7832:7942  Product(msg.sender, _amount, marketProducts[_shop][_id].price, marketProducts[_shop][_id].name, randMod(1000)) */\n      dup2\n      mstore\n      0x20\n      add\n        /* \"contracts/MarketPlace.sol\":7861:7875  marketProducts */\n      0x05\n        /* \"contracts/MarketPlace.sol\":7861:7882  marketProducts[_shop] */\n      0x00\n        /* \"contracts/MarketPlace.sol\":7876:7881  _shop */\n      dup11\n        /* \"contracts/MarketPlace.sol\":7861:7882  marketProducts[_shop] */\n      0xffffffffffffffffffffffffffffffffffffffff\n      and\n      0xffffffffffffffffffffffffffffffffffffffff\n      and\n      dup2\n      mstore\n      0x20\n      add\n      swap1\n      dup2\n      mstore\n      0x20\n      add\n      0x00\n      keccak256\n        /* \"contracts/MarketPlace.sol\":7883:7886  _id */\n      dup8\n        /* \"contracts/MarketPlace.sol\":7861:7887  marketProducts[_shop][_id] */\n      dup2\n      sload\n      dup2\n      lt\n      tag_408\n      jumpi\n      tag_409\n      tag_199\n      jump\t// in\n    tag_409:\n    tag_408:\n      swap1\n      0x00\n      mstore\n      keccak256(0x00, 0x20)\n      swap1\n      0x05\n      mul\n      add\n        /* \"contracts/MarketPlace.sol\":7861:7893  marketProducts[_shop][_id].price */\n      0x02\n      add\n      sload\n        /* \"contracts/MarketPlace.sol\":7832:7942  Product(msg.sender, _amount, marketProducts[_shop][_id].price, marketProducts[_shop][_id].name, randMod(1000)) */\n      dup2\n      mstore\n      0x20\n      add\n        /* \"contracts/MarketPlace.sol\":7895:7909  marketProducts */\n      0x05\n        /* \"contracts/MarketPlace.sol\":7895:7916  marketProducts[_shop] */\n      0x00\n        /* \"contracts/MarketPlace.sol\":7910:7915  _shop */\n      dup11\n        /* \"contracts/MarketPlace.sol\":7895:7916  marketProducts[_shop] */\n      0xffffffffffffffffffffffffffffffffffffffff\n      and\n      0xffffffffffffffffffffffffffffffffffffffff\n      and\n      dup2\n      mstore\n      0x20\n      add\n      swap1\n      dup2\n      mstore\n      0x20\n      add\n      0x00\n      keccak256\n        /* \"contracts/MarketPlace.sol\":7917:7920  _id */\n      dup8\n        /* \"contracts/MarketPlace.sol\":7895:7921  marketProducts[_shop][_id] */\n      dup2\n      sload\n      dup2\n      lt\n      tag_411\n      jumpi\n      tag_412\n      tag_199\n      jump\t// in\n    tag_412:\n    tag_411:\n      swap1\n      0x00\n      mstore\n      keccak256(0x00, 0x20)\n      swap1\n      0x05\n      mul\n      add\n        /* \"contracts/MarketPlace.sol\":7895:7926  marketProducts[_shop][_id].name */\n      0x03\n      add\n        /* \"contracts/MarketPlace.sol\":7832:7942  Product(msg.sender, _amount, marketProducts[_shop][_id].price, marketProducts[_shop][_id].name, randMod(1000)) */\n      dup1\n      sload\n      tag_414\n      swap1\n      tag_172\n      jump\t// in\n    tag_414:\n      dup1\n      0x1f\n      add\n      0x20\n      dup1\n      swap2\n      div\n      mul\n      0x20\n      add\n      mload(0x40)\n      swap1\n      dup2\n      add\n      0x40\n      mstore\n      dup1\n      swap3\n      swap2\n      swap1\n      dup2\n      dup2\n      mstore\n      0x20\n      add\n      dup3\n      dup1\n      sload\n      tag_415\n      swap1\n      tag_172\n      jump\t// in\n    tag_415:\n      dup1\n      iszero\n      tag_416\n      jumpi\n      dup1\n      0x1f\n      lt\n      tag_417\n      jumpi\n      0x0100\n      dup1\n      dup4\n      sload\n      div\n      mul\n      dup4\n      mstore\n      swap2\n      0x20\n      add\n      swap2\n      jump(tag_416)\n    tag_417:\n      dup3\n      add\n      swap2\n      swap1\n      0x00\n      mstore\n      keccak256(0x00, 0x20)\n      swap1\n    tag_418:\n      dup2\n      sload\n      dup2\n      mstore\n      swap1\n      0x01\n      add\n      swap1\n      0x20\n      add\n      dup1\n      dup4\n      gt\n      tag_418\n      jumpi\n      dup3\n      swap1\n      sub\n      0x1f\n      and\n      dup3\n      add\n      swap2\n    tag_416:\n      pop\n      pop\n      pop\n      pop\n      pop\n      dup2\n      mstore\n      0x20\n      add\n        /* \"contracts/MarketPlace.sol\":7928:7941  randMod(1000) */\n      tag_419\n        /* \"contracts/MarketPlace.sol\":7936:7940  1000 */\n      0x03e8\n        /* \"contracts/MarketPlace.sol\":7928:7935  randMod */\n      tag_105\n        /* \"contracts/MarketPlace.sol\":7928:7941  randMod(1000) */\n      jump\t// in\n    tag_419:\n        /* \"contracts/MarketPlace.sol\":7832:7942  Product(msg.sender, _amount, marketProducts[_shop][_id].price, marketProducts[_shop][_id].name, randMod(1000)) */\n      dup2\n      mstore\n      pop\n        /* \"contracts/MarketPlace.sol\":7807:7942  Product memory newItem = Product(msg.sender, _amount, marketProducts[_shop][_id].price, marketProducts[_shop][_id].name, randMod(1000)) */\n      swap1\n      pop\n        /* \"contracts/MarketPlace.sol\":7956:7968  userProducts */\n      0x04\n        /* \"contracts/MarketPlace.sol\":7956:7980  userProducts[msg.sender] */\n      0x00\n        /* \"contracts/MarketPlace.sol\":7969:7979  msg.sender */\n      caller\n        /* \"contracts/MarketPlace.sol\":7956:7980  userProducts[msg.sender] */\n      0xffffffffffffffffffffffffffffffffffffffff\n      and\n      0xffffffffffffffffffffffffffffffffffffffff\n      and\n      dup2\n      mstore\n      0x20\n      add\n      swap1\n      dup2\n      mstore\n      0x20\n      add\n      0x00\n      keccak256\n        /* \"contracts/MarketPlace.sol\":7986:7993  newItem */\n      dup2\n        /* \"contracts/MarketPlace.sol\":7956:7994  userProducts[msg.sender].push(newItem) */\n      swap1\n      dup1\n      0x01\n      dup2\n      sload\n      add\n      dup1\n      dup3\n      sstore\n      dup1\n      swap2\n      pop\n      pop\n      0x01\n      swap1\n      sub\n      swap1\n      0x00\n      mstore\n      keccak256(0x00, 0x20)\n      swap1\n      0x05\n      mul\n      add\n      0x00\n      swap1\n      swap2\n      swap1\n      swap2\n      swap1\n      swap2\n      pop\n      0x00\n      dup3\n      add\n      mload\n      dup2\n      0x00\n      add\n      exp(0x0100, 0x00)\n      dup2\n      sload\n      dup2\n      0xffffffffffffffffffffffffffffffffffffffff\n      mul\n      not\n      and\n      swap1\n      dup4\n      0xffffffffffffffffffffffffffffffffffffffff\n      and\n      mul\n      or\n      swap1\n      sstore\n      pop\n      0x20\n      dup3\n      add\n      mload\n      dup2\n      0x01\n      add\n      sstore\n      0x40\n      dup3\n      add\n      mload\n      dup2\n      0x02\n      add\n      sstore\n      0x60\n      dup3\n      add\n      mload\n      dup2\n      0x03\n      add\n      swap1\n      dup2\n      tag_421\n      swap2\n      swap1\n      tag_168\n      jump\t// in\n    tag_421:\n      pop\n      0x80\n      dup3\n      add\n      mload\n      dup2\n      0x04\n      add\n      sstore\n      pop\n      pop\n        /* \"contracts/MarketPlace.sol\":7793:8005  {... */\n      pop\n        /* \"contracts/MarketPlace.sol\":7773:8005  if (!productExists) {... */\n    tag_407:\n        /* \"contracts/MarketPlace.sol\":8053:8060  _amount */\n      dup5\n        /* \"contracts/MarketPlace.sol\":8015:8029  marketProducts */\n      0x05\n        /* \"contracts/MarketPlace.sol\":8015:8036  marketProducts[_shop] */\n      0x00\n        /* \"contracts/MarketPlace.sol\":8030:8035  _shop */\n      dup9\n        /* \"contracts/MarketPlace.sol\":8015:8036  marketProducts[_shop] */\n      0xffffffffffffffffffffffffffffffffffffffff\n      and\n      0xffffffffffffffffffffffffffffffffffffffff\n      and\n      dup2\n      mstore\n      0x20\n      add\n      swap1\n      dup2\n      mstore\n      0x20\n      add\n      0x00\n      keccak256\n        /* \"contracts/MarketPlace.sol\":8037:8040  _id */\n      dup6\n        /* \"contracts/MarketPlace.sol\":8015:8041  marketProducts[_shop][_id] */\n      dup2\n      sload\n      dup2\n      lt\n      tag_422\n      jumpi\n      tag_423\n      tag_199\n      jump\t// in\n    tag_423:\n    tag_422:\n      swap1\n      0x00\n      mstore\n      keccak256(0x00, 0x20)\n      swap1\n      0x05\n      mul\n      add\n        /* \"contracts/MarketPlace.sol\":8015:8049  marketProducts[_shop][_id].inStock */\n      0x01\n      add\n      0x00\n        /* \"contracts/MarketPlace.sol\":8015:8060  marketProducts[_shop][_id].inStock -= _amount */\n      dup3\n      dup3\n      sload\n      tag_425\n      swap2\n      swap1\n      tag_228\n      jump\t// in\n    tag_425:\n      swap3\n      pop\n      pop\n      dup2\n      swap1\n      sstore\n      pop\n        /* \"contracts/MarketPlace.sol\":8094:8104  totalPrice */\n      dup2\n        /* \"contracts/MarketPlace.sol\":8070:8075  users */\n      0x03\n        /* \"contracts/MarketPlace.sol\":8070:8082  users[_shop] */\n      0x00\n        /* \"contracts/MarketPlace.sol\":8076:8081  _shop */\n      dup9\n        /* \"contracts/MarketPlace.sol\":8070:8082  users[_shop] */\n      0xffffffffffffffffffffffffffffffffffffffff\n      and\n      0xffffffffffffffffffffffffffffffffffffffff\n      and\n      dup2\n      mstore\n      0x20\n      add\n      swap1\n      dup2\n      mstore\n      0x20\n      add\n      0x00\n      keccak256\n        /* \"contracts/MarketPlace.sol\":8070:8090  users[_shop].balance */\n      0x01\n      add\n      0x00\n        /* \"contracts/MarketPlace.sol\":8070:8104  users[_shop].balance += totalPrice */\n      dup3\n      dup3\n      sload\n      tag_426\n      swap2\n      swap1\n      tag_221\n      jump\t// in\n    tag_426:\n      swap3\n      pop\n      pop\n      dup2\n      swap1\n      sstore\n      pop\n        /* \"contracts/MarketPlace.sol\":8131:8141  totalPrice */\n      dup2\n        /* \"contracts/MarketPlace.sol\":8119:8128  msg.value */\n      callvalue\n        /* \"contracts/MarketPlace.sol\":8119:8141  msg.value > totalPrice */\n      gt\n        /* \"contracts/MarketPlace.sol\":8115:8220  if (msg.value > totalPrice) {... */\n      iszero\n      tag_427\n      jumpi\n        /* \"contracts/MarketPlace.sol\":8165:8175  msg.sender */\n      caller\n        /* \"contracts/MarketPlace.sol\":8157:8185  payable(msg.sender).transfer */\n      0xffffffffffffffffffffffffffffffffffffffff\n      and\n        /* \"contracts/MarketPlace.sol\":8157:8209  payable(msg.sender).transfer(msg.value - totalPrice) */\n      0x08fc\n        /* \"contracts/MarketPlace.sol\":8198:8208  totalPrice */\n      dup4\n        /* \"contracts/MarketPlace.sol\":8186:8195  msg.value */\n      callvalue\n        /* \"contracts/MarketPlace.sol\":8186:8208  msg.value - totalPrice */\n      tag_428\n      swap2\n      swap1\n      tag_228\n      jump\t// in\n    tag_428:\n        /* \"contracts/MarketPlace.sol\":8157:8209  payable(msg.sender).transfer(msg.value - totalPrice) */\n      swap1\n      dup2\n      iszero\n      mul\n      swap1\n      mload(0x40)\n      0x00\n      mload(0x40)\n      dup1\n      dup4\n      sub\n      dup2\n      dup6\n      dup9\n      dup9\n      call\n      swap4\n      pop\n      pop\n      pop\n      pop\n      iszero\n      dup1\n      iszero\n      tag_430\n      jumpi\n      returndatasize\n      0x00\n      dup1\n      returndatacopy\n      revert(0x00, returndatasize)\n    tag_430:\n      pop\n        /* \"contracts/MarketPlace.sol\":8115:8220  if (msg.value > totalPrice) {... */\n    tag_427:\n        /* \"contracts/MarketPlace.sol\":6722:8226  {... */\n      pop\n      pop\n        /* \"contracts/MarketPlace.sol\":6629:8226  function purchase(address _shop, uint _amount, uint _id, string memory _ref ) public payable {... */\n      pop\n      pop\n      pop\n      pop\n      jump\t// out\n        /* \"contracts/MarketPlace.sol\":2617:2761  function genRef(string memory _nameRef, address _user) public {... */\n    tag_126:\n        /* \"contracts/MarketPlace.sol\":2711:2716  _user */\n      dup1\n        /* \"contracts/MarketPlace.sol\":2697:2716  msg.sender != _user */\n      0xffffffffffffffffffffffffffffffffffffffff\n      and\n        /* \"contracts/MarketPlace.sol\":2697:2707  msg.sender */\n      caller\n        /* \"contracts/MarketPlace.sol\":2697:2716  msg.sender != _user */\n      0xffffffffffffffffffffffffffffffffffffffff\n      and\n      sub\n        /* \"contracts/MarketPlace.sol\":2689:2717  require(msg.sender != _user) */\n      tag_432\n      jumpi\n      0x00\n      dup1\n      revert\n    tag_432:\n        /* \"contracts/MarketPlace.sol\":2749:2754  _user */\n      dup1\n        /* \"contracts/MarketPlace.sol\":2727:2736  referrals */\n      0x07\n        /* \"contracts/MarketPlace.sol\":2737:2745  _nameRef */\n      dup4\n        /* \"contracts/MarketPlace.sol\":2727:2746  referrals[_nameRef] */\n      mload(0x40)\n      tag_433\n      swap2\n      swap1\n      tag_381\n      jump\t// in\n    tag_433:\n      swap1\n      dup2\n      mstore\n      0x20\n      add\n      mload(0x40)\n      dup1\n      swap2\n      sub\n      swap1\n      keccak256\n      0x00\n        /* \"contracts/MarketPlace.sol\":2727:2754  referrals[_nameRef] = _user */\n      0x0100\n      exp\n      dup2\n      sload\n      dup2\n      0xffffffffffffffffffffffffffffffffffffffff\n      mul\n      not\n      and\n      swap1\n      dup4\n      0xffffffffffffffffffffffffffffffffffffffff\n      and\n      mul\n      or\n      swap1\n      sstore\n      pop\n        /* \"contracts/MarketPlace.sol\":2617:2761  function genRef(string memory _nameRef, address _user) public {... */\n      pop\n      pop\n      jump\t// out\n        /* \"contracts/MarketPlace.sol\":806:843  mapping(address => User) public users */\n    tag_131:\n      mstore(0x20, 0x03)\n      dup1\n      0x00\n      mstore\n      keccak256(0x00, 0x40)\n      0x00\n      swap2\n      pop\n      swap1\n      pop\n      dup1\n      0x00\n      add\n      0x00\n      swap1\n      sload\n      swap1\n      0x0100\n      exp\n      swap1\n      div\n      0xff\n      and\n      swap1\n      dup1\n      0x01\n      add\n      sload\n      swap1\n      pop\n      dup3\n      jump\t// out\n        /* \"contracts/MarketPlace.sol\":1400:1482  function makeUser() public {... */\n    tag_136:\n        /* \"contracts/MarketPlace.sol\":1457:1475  User(Role.User, 0) */\n      mload(0x40)\n      dup1\n      0x40\n      add\n      0x40\n      mstore\n      dup1\n        /* \"contracts/MarketPlace.sol\":1462:1471  Role.User */\n      0x00\n        /* \"contracts/MarketPlace.sol\":1457:1475  User(Role.User, 0) */\n      0x02\n      dup2\n      gt\n      iszero\n      tag_435\n      jumpi\n      tag_436\n      tag_156\n      jump\t// in\n    tag_436:\n    tag_435:\n      dup2\n      mstore\n      0x20\n      add\n        /* \"contracts/MarketPlace.sol\":1473:1474  0 */\n      0x00\n        /* \"contracts/MarketPlace.sol\":1457:1475  User(Role.User, 0) */\n      dup2\n      mstore\n      pop\n        /* \"contracts/MarketPlace.sol\":1437:1442  users */\n      0x03\n        /* \"contracts/MarketPlace.sol\":1437:1454  users[msg.sender] */\n      0x00\n        /* \"contracts/MarketPlace.sol\":1443:1453  msg.sender */\n      caller\n        /* \"contracts/MarketPlace.sol\":1437:1454  users[msg.sender] */\n      0xffffffffffffffffffffffffffffffffffffffff\n      and\n      0xffffffffffffffffffffffffffffffffffffffff\n      and\n      dup2\n      mstore\n      0x20\n      add\n      swap1\n      dup2\n      mstore\n      0x20\n      add\n      0x00\n      keccak256\n        /* \"contracts/MarketPlace.sol\":1437:1475  users[msg.sender] = User(Role.User, 0) */\n      0x00\n      dup3\n      add\n      mload\n      dup2\n      0x00\n      add\n      exp(0x0100, 0x00)\n      dup2\n      sload\n      dup2\n      0xff\n      mul\n      not\n      and\n      swap1\n      dup4\n      0x02\n      dup2\n      gt\n      iszero\n      tag_437\n      jumpi\n      tag_438\n      tag_156\n      jump\t// in\n    tag_438:\n    tag_437:\n      mul\n      or\n      swap1\n      sstore\n      pop\n      0x20\n      dup3\n      add\n      mload\n      dup2\n      0x01\n      add\n      sstore\n      swap1\n      pop\n      pop\n        /* \"contracts/MarketPlace.sol\":1400:1482  function makeUser() public {... */\n      jump\t// out\n        /* \"contracts/MarketPlace.sol\":1020:1063  mapping(string => address) public referrals */\n    tag_140:\n      0x07\n      dup2\n      dup1\n      mload\n      0x20\n      dup2\n      add\n      dup3\n      add\n      dup1\n      mload\n      dup5\n      dup3\n      mstore\n      0x20\n      dup4\n      add\n      0x20\n      dup6\n      add\n      keccak256\n      dup2\n      dup4\n      mstore\n      dup1\n      swap6\n      pop\n      pop\n      pop\n      pop\n      pop\n      pop\n      0x00\n      swap2\n      pop\n      sload\n      swap1\n      0x0100\n      exp\n      swap1\n      div\n      0xffffffffffffffffffffffffffffffffffffffff\n      and\n      dup2\n      jump\t// out\n        /* \"contracts/MarketPlace.sol\":3709:4133  function acceptDelivery(bool _status, uint _deliveryId) public payable AccessControl(Role.User, msg.sender) {... */\n    tag_144:\n        /* \"contracts/MarketPlace.sol\":3794:3803  Role.User */\n      0x00\n        /* \"contracts/MarketPlace.sol\":3805:3815  msg.sender */\n      caller\n        /* \"contracts/MarketPlace.sol\":1254:1259  _role */\n      dup2\n        /* \"contracts/MarketPlace.sol\":1228:1259  users[msg.sender].role == _role */\n      0x02\n      dup2\n      gt\n      iszero\n      tag_440\n      jumpi\n      tag_441\n      tag_156\n      jump\t// in\n    tag_441:\n    tag_440:\n        /* \"contracts/MarketPlace.sol\":1228:1233  users */\n      0x03\n        /* \"contracts/MarketPlace.sol\":1228:1245  users[msg.sender] */\n      0x00\n        /* \"contracts/MarketPlace.sol\":1234:1244  msg.sender */\n      caller\n        /* \"contracts/MarketPlace.sol\":1228:1245  users[msg.sender] */\n      0xffffffffffffffffffffffffffffffffffffffff\n      and\n      0xffffffffffffffffffffffffffffffffffffffff\n      and\n      dup2\n      mstore\n      0x20\n      add\n      swap1\n      dup2\n      mstore\n      0x20\n      add\n      0x00\n      keccak256\n        /* \"contracts/MarketPlace.sol\":1228:1250  users[msg.sender].role */\n      0x00\n      add\n      0x00\n      swap1\n      sload\n      swap1\n      0x0100\n      exp\n      swap1\n      div\n      0xff\n      and\n        /* \"contracts/MarketPlace.sol\":1228:1259  users[msg.sender].role == _role */\n      0x02\n      dup2\n      gt\n      iszero\n      tag_442\n      jumpi\n      tag_443\n      tag_156\n      jump\t// in\n    tag_443:\n    tag_442:\n      eq\n        /* \"contracts/MarketPlace.sol\":1220:1300  require(users[msg.sender].role == _role, \"Your role does not allow this change\") */\n      tag_444\n      jumpi\n      mload(0x40)\n      0x08c379a000000000000000000000000000000000000000000000000000000000\n      dup2\n      mstore\n      0x04\n      add\n      tag_445\n      swap1\n      tag_161\n      jump\t// in\n    tag_445:\n      mload(0x40)\n      dup1\n      swap2\n      sub\n      swap1\n      revert\n    tag_444:\n        /* \"contracts/MarketPlace.sol\":1332:1337  _shop */\n      dup1\n        /* \"contracts/MarketPlace.sol\":1318:1337  msg.sender == _shop */\n      0xffffffffffffffffffffffffffffffffffffffff\n      and\n        /* \"contracts/MarketPlace.sol\":1318:1328  msg.sender */\n      caller\n        /* \"contracts/MarketPlace.sol\":1318:1337  msg.sender == _shop */\n      0xffffffffffffffffffffffffffffffffffffffff\n      and\n      eq\n        /* \"contracts/MarketPlace.sol\":1310:1376  require(msg.sender == _shop, \"The shop does not match the sender\") */\n      tag_446\n      jumpi\n      mload(0x40)\n      0x08c379a000000000000000000000000000000000000000000000000000000000\n      dup2\n      mstore\n      0x04\n      add\n      tag_447\n      swap1\n      tag_164\n      jump\t// in\n    tag_447:\n      mload(0x40)\n      dup1\n      swap2\n      sub\n      swap1\n      revert\n    tag_446:\n        /* \"contracts/MarketPlace.sol\":3873:3890  Status.Prepairing */\n      0x01\n        /* \"contracts/MarketPlace.sol\":3835:3890  deliveryOrders[_deliveryId].status == Status.Prepairing */\n      0x03\n      dup2\n      gt\n      iszero\n      tag_449\n      jumpi\n      tag_450\n      tag_156\n      jump\t// in\n    tag_450:\n    tag_449:\n        /* \"contracts/MarketPlace.sol\":3835:3849  deliveryOrders */\n      0x02\n        /* \"contracts/MarketPlace.sol\":3850:3861  _deliveryId */\n      dup5\n        /* \"contracts/MarketPlace.sol\":3835:3862  deliveryOrders[_deliveryId] */\n      dup2\n      sload\n      dup2\n      lt\n      tag_451\n      jumpi\n      tag_452\n      tag_199\n      jump\t// in\n    tag_452:\n    tag_451:\n      swap1\n      0x00\n      mstore\n      keccak256(0x00, 0x20)\n      swap1\n      0x05\n      mul\n      add\n        /* \"contracts/MarketPlace.sol\":3835:3869  deliveryOrders[_deliveryId].status */\n      0x01\n      add\n      0x14\n      swap1\n      sload\n      swap1\n      0x0100\n      exp\n      swap1\n      div\n      0xff\n      and\n        /* \"contracts/MarketPlace.sol\":3835:3890  deliveryOrders[_deliveryId].status == Status.Prepairing */\n      0x03\n      dup2\n      gt\n      iszero\n      tag_454\n      jumpi\n      tag_455\n      tag_156\n      jump\t// in\n    tag_455:\n    tag_454:\n      eq\n        /* \"contracts/MarketPlace.sol\":3827:3891  require(deliveryOrders[_deliveryId].status == Status.Prepairing) */\n      tag_456\n      jumpi\n      0x00\n      dup1\n      revert\n    tag_456:\n        /* \"contracts/MarketPlace.sol\":3905:3912  _status */\n      dup4\n        /* \"contracts/MarketPlace.sol\":3901:4127  if (_status) { ... */\n      iszero\n      tag_457\n      jumpi\n        /* \"contracts/MarketPlace.sol\":3929:4024  purchase(deliveryOrders[_deliveryId].shop, deliveryOrders[_deliveryId].amount, _deliveryId, \"\") */\n      tag_458\n        /* \"contracts/MarketPlace.sol\":3938:3952  deliveryOrders */\n      0x02\n        /* \"contracts/MarketPlace.sol\":3953:3964  _deliveryId */\n      dup5\n        /* \"contracts/MarketPlace.sol\":3938:3965  deliveryOrders[_deliveryId] */\n      dup2\n      sload\n      dup2\n      lt\n      tag_459\n      jumpi\n      tag_460\n      tag_199\n      jump\t// in\n    tag_460:\n    tag_459:\n      swap1\n      0x00\n      mstore\n      keccak256(0x00, 0x20)\n      swap1\n      0x05\n      mul\n      add\n        /* \"contracts/MarketPlace.sol\":3938:3970  deliveryOrders[_deliveryId].shop */\n      0x01\n      add\n      0x00\n      swap1\n      sload\n      swap1\n      0x0100\n      exp\n      swap1\n      div\n      0xffffffffffffffffffffffffffffffffffffffff\n      and\n        /* \"contracts/MarketPlace.sol\":3972:3986  deliveryOrders */\n      0x02\n        /* \"contracts/MarketPlace.sol\":3987:3998  _deliveryId */\n      dup6\n        /* \"contracts/MarketPlace.sol\":3972:3999  deliveryOrders[_deliveryId] */\n      dup2\n      sload\n      dup2\n      lt\n      tag_462\n      jumpi\n      tag_463\n      tag_199\n      jump\t// in\n    tag_463:\n    tag_462:\n      swap1\n      0x00\n      mstore\n      keccak256(0x00, 0x20)\n      swap1\n      0x05\n      mul\n      add\n        /* \"contracts/MarketPlace.sol\":3972:4006  deliveryOrders[_deliveryId].amount */\n      0x04\n      add\n      sload\n        /* \"contracts/MarketPlace.sol\":4008:4019  _deliveryId */\n      dup6\n        /* \"contracts/MarketPlace.sol\":3929:4024  purchase(deliveryOrders[_deliveryId].shop, deliveryOrders[_deliveryId].amount, _deliveryId, \"\") */\n      mload(0x40)\n      dup1\n      0x20\n      add\n      0x40\n      mstore\n      dup1\n      0x00\n      dup2\n      mstore\n      pop\n        /* \"contracts/MarketPlace.sol\":3929:3937  purchase */\n      tag_121\n        /* \"contracts/MarketPlace.sol\":3929:4024  purchase(deliveryOrders[_deliveryId].shop, deliveryOrders[_deliveryId].amount, _deliveryId, \"\") */\n      jump\t// in\n    tag_458:\n        /* \"contracts/MarketPlace.sol\":3901:4127  if (_status) { ... */\n      jump(tag_465)\n    tag_457:\n        /* \"contracts/MarketPlace.sol\":4101:4116  Status.Canceled */\n      0x02\n        /* \"contracts/MarketPlace.sol\":4063:4116  deliveryOrders[_deliveryId].status == Status.Canceled */\n      0x03\n      dup2\n      gt\n      iszero\n      tag_466\n      jumpi\n      tag_467\n      tag_156\n      jump\t// in\n    tag_467:\n    tag_466:\n        /* \"contracts/MarketPlace.sol\":4063:4077  deliveryOrders */\n      0x02\n        /* \"contracts/MarketPlace.sol\":4078:4089  _deliveryId */\n      dup5\n        /* \"contracts/MarketPlace.sol\":4063:4090  deliveryOrders[_deliveryId] */\n      dup2\n      sload\n      dup2\n      lt\n      tag_468\n      jumpi\n      tag_469\n      tag_199\n      jump\t// in\n    tag_469:\n    tag_468:\n      swap1\n      0x00\n      mstore\n      keccak256(0x00, 0x20)\n      swap1\n      0x05\n      mul\n      add\n        /* \"contracts/MarketPlace.sol\":4063:4097  deliveryOrders[_deliveryId].status */\n      0x01\n      add\n      0x14\n      swap1\n      sload\n      swap1\n      0x0100\n      exp\n      swap1\n      div\n      0xff\n      and\n        /* \"contracts/MarketPlace.sol\":4063:4116  deliveryOrders[_deliveryId].status == Status.Canceled */\n      0x03\n      dup2\n      gt\n      iszero\n      tag_471\n      jumpi\n      tag_472\n      tag_156\n      jump\t// in\n    tag_472:\n    tag_471:\n      pop\n      pop\n        /* \"contracts/MarketPlace.sol\":3901:4127  if (_status) { ... */\n    tag_465:\n        /* \"contracts/MarketPlace.sol\":3709:4133  function acceptDelivery(bool _status, uint _deliveryId) public payable AccessControl(Role.User, msg.sender) {... */\n      pop\n      pop\n      pop\n      pop\n      jump\t// out\n        /* \"contracts/MarketPlace.sol\":8232:8337  function withdrawBal(address _shop) public {... */\n    tag_148:\n        /* \"contracts/MarketPlace.sol\":8293:8298  _shop */\n      dup1\n        /* \"contracts/MarketPlace.sol\":8285:8308  payable(_shop).transfer */\n      0xffffffffffffffffffffffffffffffffffffffff\n      and\n        /* \"contracts/MarketPlace.sol\":8285:8330  payable(_shop).transfer(users[_shop].balance) */\n      0x08fc\n        /* \"contracts/MarketPlace.sol\":8309:8314  users */\n      0x03\n        /* \"contracts/MarketPlace.sol\":8309:8321  users[_shop] */\n      0x00\n        /* \"contracts/MarketPlace.sol\":8315:8320  _shop */\n      dup5\n        /* \"contracts/MarketPlace.sol\":8309:8321  users[_shop] */\n      0xffffffffffffffffffffffffffffffffffffffff\n      and\n      0xffffffffffffffffffffffffffffffffffffffff\n      and\n      dup2\n      mstore\n      0x20\n      add\n      swap1\n      dup2\n      mstore\n      0x20\n      add\n      0x00\n      keccak256\n        /* \"contracts/MarketPlace.sol\":8309:8329  users[_shop].balance */\n      0x01\n      add\n      sload\n        /* \"contracts/MarketPlace.sol\":8285:8330  payable(_shop).transfer(users[_shop].balance) */\n      swap1\n      dup2\n      iszero\n      mul\n      swap1\n      mload(0x40)\n      0x00\n      mload(0x40)\n      dup1\n      dup4\n      sub\n      dup2\n      dup6\n      dup9\n      dup9\n      call\n      swap4\n      pop\n      pop\n      pop\n      pop\n      iszero\n      dup1\n      iszero\n      tag_475\n      jumpi\n      returndatasize\n      0x00\n      dup1\n      returndatacopy\n      revert(0x00, returndatasize)\n    tag_475:\n      pop\n        /* \"contracts/MarketPlace.sol\":8232:8337  function withdrawBal(address _shop) public {... */\n      pop\n      jump\t// out\n        /* \"contracts/MarketPlace.sol\":4746:6074  function refillStore(address _shop, uint _productId, uint _amount, address _supplier) public payable AccessControl(Role.Market, _shop) {... */\n    tag_152:\n        /* \"contracts/MarketPlace.sol\":4861:4872  Role.Market */\n      0x01\n        /* \"contracts/MarketPlace.sol\":4874:4879  _shop */\n      dup5\n        /* \"contracts/MarketPlace.sol\":1254:1259  _role */\n      dup2\n        /* \"contracts/MarketPlace.sol\":1228:1259  users[msg.sender].role == _role */\n      0x02\n      dup2\n      gt\n      iszero\n      tag_477\n      jumpi\n      tag_478\n      tag_156\n      jump\t// in\n    tag_478:\n    tag_477:\n        /* \"contracts/MarketPlace.sol\":1228:1233  users */\n      0x03\n        /* \"contracts/MarketPlace.sol\":1228:1245  users[msg.sender] */\n      0x00\n        /* \"contracts/MarketPlace.sol\":1234:1244  msg.sender */\n      caller\n        /* \"contracts/MarketPlace.sol\":1228:1245  users[msg.sender] */\n      0xffffffffffffffffffffffffffffffffffffffff\n      and\n      0xffffffffffffffffffffffffffffffffffffffff\n      and\n      dup2\n      mstore\n      0x20\n      add\n      swap1\n      dup2\n      mstore\n      0x20\n      add\n      0x00\n      keccak256\n        /* \"contracts/MarketPlace.sol\":1228:1250  users[msg.sender].role */\n      0x00\n      add\n      0x00\n      swap1\n      sload\n      swap1\n      0x0100\n      exp\n      swap1\n      div\n      0xff\n      and\n        /* \"contracts/MarketPlace.sol\":1228:1259  users[msg.sender].role == _role */\n      0x02\n      dup2\n      gt\n      iszero\n      tag_479\n      jumpi\n      tag_480\n      tag_156\n      jump\t// in\n    tag_480:\n    tag_479:\n      eq\n        /* \"contracts/MarketPlace.sol\":1220:1300  require(users[msg.sender].role == _role, \"Your role does not allow this change\") */\n      tag_481\n      jumpi\n      mload(0x40)\n      0x08c379a000000000000000000000000000000000000000000000000000000000\n      dup2\n      mstore\n      0x04\n      add\n      tag_482\n      swap1\n      tag_161\n      jump\t// in\n    tag_482:\n      mload(0x40)\n      dup1\n      swap2\n      sub\n      swap1\n      revert\n    tag_481:\n        /* \"contracts/MarketPlace.sol\":1332:1337  _shop */\n      dup1\n        /* \"contracts/MarketPlace.sol\":1318:1337  msg.sender == _shop */\n      0xffffffffffffffffffffffffffffffffffffffff\n      and\n        /* \"contracts/MarketPlace.sol\":1318:1328  msg.sender */\n      caller\n        /* \"contracts/MarketPlace.sol\":1318:1337  msg.sender == _shop */\n      0xffffffffffffffffffffffffffffffffffffffff\n      and\n      eq\n        /* \"contracts/MarketPlace.sol\":1310:1376  require(msg.sender == _shop, \"The shop does not match the sender\") */\n      tag_483\n      jumpi\n      mload(0x40)\n      0x08c379a000000000000000000000000000000000000000000000000000000000\n      dup2\n      mstore\n      0x04\n      add\n      tag_484\n      swap1\n      tag_164\n      jump\t// in\n    tag_484:\n      mload(0x40)\n      dup1\n      swap2\n      sub\n      swap1\n      revert\n    tag_483:\n        /* \"contracts/MarketPlace.sol\":4909:4910  0 */\n      0x00\n        /* \"contracts/MarketPlace.sol\":4899:4906  _amount */\n      dup5\n        /* \"contracts/MarketPlace.sol\":4899:4910  _amount > 0 */\n      gt\n        /* \"contracts/MarketPlace.sol\":4891:4953  require(_amount > 0, \"Purchase amount must be greater than 0\") */\n      tag_486\n      jumpi\n      mload(0x40)\n      0x08c379a000000000000000000000000000000000000000000000000000000000\n      dup2\n      mstore\n      0x04\n      add\n      tag_487\n      swap1\n      tag_292\n      jump\t// in\n    tag_487:\n      mload(0x40)\n      dup1\n      swap2\n      sub\n      swap1\n      revert\n    tag_486:\n        /* \"contracts/MarketPlace.sol\":4984:5000  supplierProducts */\n      0x06\n        /* \"contracts/MarketPlace.sol\":4984:5011  supplierProducts[_supplier] */\n      0x00\n        /* \"contracts/MarketPlace.sol\":5001:5010  _supplier */\n      dup5\n        /* \"contracts/MarketPlace.sol\":4984:5011  supplierProducts[_supplier] */\n      0xffffffffffffffffffffffffffffffffffffffff\n      and\n      0xffffffffffffffffffffffffffffffffffffffff\n      and\n      dup2\n      mstore\n      0x20\n      add\n      swap1\n      dup2\n      mstore\n      0x20\n      add\n      0x00\n      keccak256\n        /* \"contracts/MarketPlace.sol\":4984:5018  supplierProducts[_supplier].length */\n      dup1\n      sload\n      swap1\n      pop\n        /* \"contracts/MarketPlace.sol\":4971:4981  _productId */\n      dup6\n        /* \"contracts/MarketPlace.sol\":4971:5018  _productId < supplierProducts[_supplier].length */\n      lt\n        /* \"contracts/MarketPlace.sol\":4963:5041  require(_productId < supplierProducts[_supplier].length, \"Invalid product ID\") */\n      tag_488\n      jumpi\n      mload(0x40)\n      0x08c379a000000000000000000000000000000000000000000000000000000000\n      dup2\n      mstore\n      0x04\n      add\n      tag_489\n      swap1\n      tag_295\n      jump\t// in\n    tag_489:\n      mload(0x40)\n      dup1\n      swap2\n      sub\n      swap1\n      revert\n    tag_488:\n        /* \"contracts/MarketPlace.sol\":5051:5061  uint price */\n      0x00\n        /* \"contracts/MarketPlace.sol\":5064:5080  supplierProducts */\n      0x06\n        /* \"contracts/MarketPlace.sol\":5064:5091  supplierProducts[_supplier] */\n      0x00\n        /* \"contracts/MarketPlace.sol\":5081:5090  _supplier */\n      dup6\n        /* \"contracts/MarketPlace.sol\":5064:5091  supplierProducts[_supplier] */\n      0xffffffffffffffffffffffffffffffffffffffff\n      and\n      0xffffffffffffffffffffffffffffffffffffffff\n      and\n      dup2\n      mstore\n      0x20\n      add\n      swap1\n      dup2\n      mstore\n      0x20\n      add\n      0x00\n      keccak256\n        /* \"contracts/MarketPlace.sol\":5092:5102  _productId */\n      dup7\n        /* \"contracts/MarketPlace.sol\":5064:5103  supplierProducts[_supplier][_productId] */\n      dup2\n      sload\n      dup2\n      lt\n      tag_490\n      jumpi\n      tag_491\n      tag_199\n      jump\t// in\n    tag_491:\n    tag_490:\n      swap1\n      0x00\n      mstore\n      keccak256(0x00, 0x20)\n      swap1\n      0x05\n      mul\n      add\n        /* \"contracts/MarketPlace.sol\":5064:5109  supplierProducts[_supplier][_productId].price */\n      0x02\n      add\n      sload\n        /* \"contracts/MarketPlace.sol\":5051:5109  uint price = supplierProducts[_supplier][_productId].price */\n      swap1\n      pop\n        /* \"contracts/MarketPlace.sol\":5119:5134  uint totalPrice */\n      0x00\n        /* \"contracts/MarketPlace.sol\":5155:5162  1 ether */\n      0x0de0b6b3a7640000\n        /* \"contracts/MarketPlace.sol\":5145:5152  _amount */\n      dup7\n        /* \"contracts/MarketPlace.sol\":5137:5142  price */\n      dup4\n        /* \"contracts/MarketPlace.sol\":5137:5152  price * _amount */\n      tag_493\n      swap2\n      swap1\n      tag_212\n      jump\t// in\n    tag_493:\n        /* \"contracts/MarketPlace.sol\":5137:5162  price * _amount * 1 ether */\n      tag_494\n      swap2\n      swap1\n      tag_212\n      jump\t// in\n    tag_494:\n        /* \"contracts/MarketPlace.sol\":5119:5162  uint totalPrice = price * _amount * 1 ether */\n      swap1\n      pop\n        /* \"contracts/MarketPlace.sol\":5193:5203  totalPrice */\n      dup1\n        /* \"contracts/MarketPlace.sol\":5180:5189  msg.value */\n      callvalue\n        /* \"contracts/MarketPlace.sol\":5180:5203  msg.value >= totalPrice */\n      lt\n      iszero\n        /* \"contracts/MarketPlace.sol\":5172:5231  require(msg.value >= totalPrice, \"Insufficient funds sent\") */\n      tag_495\n      jumpi\n      mload(0x40)\n      0x08c379a000000000000000000000000000000000000000000000000000000000\n      dup2\n      mstore\n      0x04\n      add\n      tag_496\n      swap1\n      tag_388\n      jump\t// in\n    tag_496:\n      mload(0x40)\n      dup1\n      swap2\n      sub\n      swap1\n      revert\n    tag_495:\n        /* \"contracts/MarketPlace.sol\":5241:5265  string memory targetName */\n      0x00\n        /* \"contracts/MarketPlace.sol\":5268:5284  supplierProducts */\n      0x06\n        /* \"contracts/MarketPlace.sol\":5268:5295  supplierProducts[_supplier] */\n      0x00\n        /* \"contracts/MarketPlace.sol\":5285:5294  _supplier */\n      dup8\n        /* \"contracts/MarketPlace.sol\":5268:5295  supplierProducts[_supplier] */\n      0xffffffffffffffffffffffffffffffffffffffff\n      and\n      0xffffffffffffffffffffffffffffffffffffffff\n      and\n      dup2\n      mstore\n      0x20\n      add\n      swap1\n      dup2\n      mstore\n      0x20\n      add\n      0x00\n      keccak256\n        /* \"contracts/MarketPlace.sol\":5296:5306  _productId */\n      dup9\n        /* \"contracts/MarketPlace.sol\":5268:5307  supplierProducts[_supplier][_productId] */\n      dup2\n      sload\n      dup2\n      lt\n      tag_497\n      jumpi\n      tag_498\n      tag_199\n      jump\t// in\n    tag_498:\n    tag_497:\n      swap1\n      0x00\n      mstore\n      keccak256(0x00, 0x20)\n      swap1\n      0x05\n      mul\n      add\n        /* \"contracts/MarketPlace.sol\":5268:5312  supplierProducts[_supplier][_productId].name */\n      0x03\n      add\n        /* \"contracts/MarketPlace.sol\":5241:5312  string memory targetName = supplierProducts[_supplier][_productId].name */\n      dup1\n      sload\n      tag_500\n      swap1\n      tag_172\n      jump\t// in\n    tag_500:\n      dup1\n      0x1f\n      add\n      0x20\n      dup1\n      swap2\n      div\n      mul\n      0x20\n      add\n      mload(0x40)\n      swap1\n      dup2\n      add\n      0x40\n      mstore\n      dup1\n      swap3\n      swap2\n      swap1\n      dup2\n      dup2\n      mstore\n      0x20\n      add\n      dup3\n      dup1\n      sload\n      tag_501\n      swap1\n      tag_172\n      jump\t// in\n    tag_501:\n      dup1\n      iszero\n      tag_502\n      jumpi\n      dup1\n      0x1f\n      lt\n      tag_503\n      jumpi\n      0x0100\n      dup1\n      dup4\n      sload\n      div\n      mul\n      dup4\n      mstore\n      swap2\n      0x20\n      add\n      swap2\n      jump(tag_502)\n    tag_503:\n      dup3\n      add\n      swap2\n      swap1\n      0x00\n      mstore\n      keccak256(0x00, 0x20)\n      swap1\n    tag_504:\n      dup2\n      sload\n      dup2\n      mstore\n      swap1\n      0x01\n      add\n      swap1\n      0x20\n      add\n      dup1\n      dup4\n      gt\n      tag_504\n      jumpi\n      dup3\n      swap1\n      sub\n      0x1f\n      and\n      dup3\n      add\n      swap2\n    tag_502:\n      pop\n      pop\n      pop\n      pop\n      pop\n      swap1\n      pop\n        /* \"contracts/MarketPlace.sol\":5322:5340  bool productExists */\n      0x00\n        /* \"contracts/MarketPlace.sol\":5363:5369  uint i */\n      dup1\n        /* \"contracts/MarketPlace.sol\":5359:5660  for(uint i = 0; i< marketProducts[_shop].length; i++){... */\n    tag_505:\n        /* \"contracts/MarketPlace.sol\":5378:5392  marketProducts */\n      0x05\n        /* \"contracts/MarketPlace.sol\":5378:5399  marketProducts[_shop] */\n      0x00\n        /* \"contracts/MarketPlace.sol\":5393:5398  _shop */\n      dup13\n        /* \"contracts/MarketPlace.sol\":5378:5399  marketProducts[_shop] */\n      0xffffffffffffffffffffffffffffffffffffffff\n      and\n      0xffffffffffffffffffffffffffffffffffffffff\n      and\n      dup2\n      mstore\n      0x20\n      add\n      swap1\n      dup2\n      mstore\n      0x20\n      add\n      0x00\n      keccak256\n        /* \"contracts/MarketPlace.sol\":5378:5406  marketProducts[_shop].length */\n      dup1\n      sload\n      swap1\n      pop\n        /* \"contracts/MarketPlace.sol\":5375:5376  i */\n      dup2\n        /* \"contracts/MarketPlace.sol\":5375:5406  i< marketProducts[_shop].length */\n      lt\n        /* \"contracts/MarketPlace.sol\":5359:5660  for(uint i = 0; i< marketProducts[_shop].length; i++){... */\n      iszero\n      tag_506\n      jumpi\n        /* \"contracts/MarketPlace.sol\":5478:5492  marketProducts */\n      0x05\n        /* \"contracts/MarketPlace.sol\":5478:5499  marketProducts[_shop] */\n      0x00\n        /* \"contracts/MarketPlace.sol\":5493:5498  _shop */\n      dup13\n        /* \"contracts/MarketPlace.sol\":5478:5499  marketProducts[_shop] */\n      0xffffffffffffffffffffffffffffffffffffffff\n      and\n      0xffffffffffffffffffffffffffffffffffffffff\n      and\n      dup2\n      mstore\n      0x20\n      add\n      swap1\n      dup2\n      mstore\n      0x20\n      add\n      0x00\n      keccak256\n        /* \"contracts/MarketPlace.sol\":5500:5501  i */\n      dup2\n        /* \"contracts/MarketPlace.sol\":5478:5502  marketProducts[_shop][i] */\n      dup2\n      sload\n      dup2\n      lt\n      tag_508\n      jumpi\n      tag_509\n      tag_199\n      jump\t// in\n    tag_509:\n    tag_508:\n      swap1\n      0x00\n      mstore\n      keccak256(0x00, 0x20)\n      swap1\n      0x05\n      mul\n      add\n        /* \"contracts/MarketPlace.sol\":5478:5507  marketProducts[_shop][i].name */\n      0x03\n      add\n        /* \"contracts/MarketPlace.sol\":5462:5509  keccak256(bytes(marketProducts[_shop][i].name)) */\n      mload(0x40)\n      tag_511\n      swap2\n      swap1\n      tag_396\n      jump\t// in\n    tag_511:\n      mload(0x40)\n      dup1\n      swap2\n      sub\n      swap1\n      keccak256\n        /* \"contracts/MarketPlace.sol\":5446:5456  targetName */\n      dup4\n        /* \"contracts/MarketPlace.sol\":5430:5458  keccak256(bytes(targetName)) */\n      dup1\n      mload\n      swap1\n      0x20\n      add\n      keccak256\n        /* \"contracts/MarketPlace.sol\":5430:5509  keccak256(bytes(targetName)) == keccak256(bytes(marketProducts[_shop][i].name)) */\n      sub\n        /* \"contracts/MarketPlace.sol\":5426:5650  if (keccak256(bytes(targetName)) == keccak256(bytes(marketProducts[_shop][i].name))){... */\n      tag_512\n      jumpi\n        /* \"contracts/MarketPlace.sol\":5564:5571  _amount */\n      dup9\n        /* \"contracts/MarketPlace.sol\":5528:5542  marketProducts */\n      0x05\n        /* \"contracts/MarketPlace.sol\":5528:5549  marketProducts[_shop] */\n      0x00\n        /* \"contracts/MarketPlace.sol\":5543:5548  _shop */\n      dup14\n        /* \"contracts/MarketPlace.sol\":5528:5549  marketProducts[_shop] */\n      0xffffffffffffffffffffffffffffffffffffffff\n      and\n      0xffffffffffffffffffffffffffffffffffffffff\n      and\n      dup2\n      mstore\n      0x20\n      add\n      swap1\n      dup2\n      mstore\n      0x20\n      add\n      0x00\n      keccak256\n        /* \"contracts/MarketPlace.sol\":5550:5551  i */\n      dup3\n        /* \"contracts/MarketPlace.sol\":5528:5552  marketProducts[_shop][i] */\n      dup2\n      sload\n      dup2\n      lt\n      tag_513\n      jumpi\n      tag_514\n      tag_199\n      jump\t// in\n    tag_514:\n    tag_513:\n      swap1\n      0x00\n      mstore\n      keccak256(0x00, 0x20)\n      swap1\n      0x05\n      mul\n      add\n        /* \"contracts/MarketPlace.sol\":5528:5560  marketProducts[_shop][i].inStock */\n      0x01\n      add\n      0x00\n        /* \"contracts/MarketPlace.sol\":5528:5571  marketProducts[_shop][i].inStock += _amount */\n      dup3\n      dup3\n      sload\n      tag_516\n      swap2\n      swap1\n      tag_221\n      jump\t// in\n    tag_516:\n      swap3\n      pop\n      pop\n      dup2\n      swap1\n      sstore\n      pop\n        /* \"contracts/MarketPlace.sol\":5605:5609  true */\n      0x01\n        /* \"contracts/MarketPlace.sol\":5589:5609  productExists = true */\n      swap2\n      pop\n        /* \"contracts/MarketPlace.sol\":5627:5632  break */\n      jump(tag_506)\n        /* \"contracts/MarketPlace.sol\":5426:5650  if (keccak256(bytes(targetName)) == keccak256(bytes(marketProducts[_shop][i].name))){... */\n    tag_512:\n        /* \"contracts/MarketPlace.sol\":5408:5411  i++ */\n      dup1\n      dup1\n      tag_517\n      swap1\n      tag_263\n      jump\t// in\n    tag_517:\n      swap2\n      pop\n      pop\n        /* \"contracts/MarketPlace.sol\":5359:5660  for(uint i = 0; i< marketProducts[_shop].length; i++){... */\n      jump(tag_505)\n    tag_506:\n      pop\n        /* \"contracts/MarketPlace.sol\":5675:5688  productExists */\n      dup1\n        /* \"contracts/MarketPlace.sol\":5670:5883  if (!productExists){... */\n      tag_518\n      jumpi\n        /* \"contracts/MarketPlace.sol\":5703:5725  Product memory newItem */\n      0x00\n        /* \"contracts/MarketPlace.sol\":5728:5823  Product(_supplier, _amount, price, targetName, supplierProducts[_supplier][_productId].expDate) */\n      mload(0x40)\n      dup1\n      0xa0\n      add\n      0x40\n      mstore\n      dup1\n        /* \"contracts/MarketPlace.sol\":5736:5745  _supplier */\n      dup10\n        /* \"contracts/MarketPlace.sol\":5728:5823  Product(_supplier, _amount, price, targetName, supplierProducts[_supplier][_productId].expDate) */\n      0xffffffffffffffffffffffffffffffffffffffff\n      and\n      dup2\n      mstore\n      0x20\n      add\n        /* \"contracts/MarketPlace.sol\":5747:5754  _amount */\n      dup11\n        /* \"contracts/MarketPlace.sol\":5728:5823  Product(_supplier, _amount, price, targetName, supplierProducts[_supplier][_productId].expDate) */\n      dup2\n      mstore\n      0x20\n      add\n        /* \"contracts/MarketPlace.sol\":5756:5761  price */\n      dup7\n        /* \"contracts/MarketPlace.sol\":5728:5823  Product(_supplier, _amount, price, targetName, supplierProducts[_supplier][_productId].expDate) */\n      dup2\n      mstore\n      0x20\n      add\n        /* \"contracts/MarketPlace.sol\":5763:5773  targetName */\n      dup5\n        /* \"contracts/MarketPlace.sol\":5728:5823  Product(_supplier, _amount, price, targetName, supplierProducts[_supplier][_productId].expDate) */\n      dup2\n      mstore\n      0x20\n      add\n        /* \"contracts/MarketPlace.sol\":5775:5791  supplierProducts */\n      0x06\n        /* \"contracts/MarketPlace.sol\":5775:5802  supplierProducts[_supplier] */\n      0x00\n        /* \"contracts/MarketPlace.sol\":5792:5801  _supplier */\n      dup12\n        /* \"contracts/MarketPlace.sol\":5775:5802  supplierProducts[_supplier] */\n      0xffffffffffffffffffffffffffffffffffffffff\n      and\n      0xffffffffffffffffffffffffffffffffffffffff\n      and\n      dup2\n      mstore\n      0x20\n      add\n      swap1\n      dup2\n      mstore\n      0x20\n      add\n      0x00\n      keccak256\n        /* \"contracts/MarketPlace.sol\":5803:5813  _productId */\n      dup13\n        /* \"contracts/MarketPlace.sol\":5775:5814  supplierProducts[_supplier][_productId] */\n      dup2\n      sload\n      dup2\n      lt\n      tag_519\n      jumpi\n      tag_520\n      tag_199\n      jump\t// in\n    tag_520:\n    tag_519:\n      swap1\n      0x00\n      mstore\n      keccak256(0x00, 0x20)\n      swap1\n      0x05\n      mul\n      add\n        /* \"contracts/MarketPlace.sol\":5775:5822  supplierProducts[_supplier][_productId].expDate */\n      0x04\n      add\n      sload\n        /* \"contracts/MarketPlace.sol\":5728:5823  Product(_supplier, _amount, price, targetName, supplierProducts[_supplier][_productId].expDate) */\n      dup2\n      mstore\n      pop\n        /* \"contracts/MarketPlace.sol\":5703:5823  Product memory newItem = Product(_supplier, _amount, price, targetName, supplierProducts[_supplier][_productId].expDate) */\n      swap1\n      pop\n        /* \"contracts/MarketPlace.sol\":5837:5851  marketProducts */\n      0x05\n        /* \"contracts/MarketPlace.sol\":5837:5858  marketProducts[_shop] */\n      0x00\n        /* \"contracts/MarketPlace.sol\":5852:5857  _shop */\n      dup13\n        /* \"contracts/MarketPlace.sol\":5837:5858  marketProducts[_shop] */\n      0xffffffffffffffffffffffffffffffffffffffff\n      and\n      0xffffffffffffffffffffffffffffffffffffffff\n      and\n      dup2\n      mstore\n      0x20\n      add\n      swap1\n      dup2\n      mstore\n      0x20\n      add\n      0x00\n      keccak256\n        /* \"contracts/MarketPlace.sol\":5864:5871  newItem */\n      dup2\n        /* \"contracts/MarketPlace.sol\":5837:5872  marketProducts[_shop].push(newItem) */\n      swap1\n      dup1\n      0x01\n      dup2\n      sload\n      add\n      dup1\n      dup3\n      sstore\n      dup1\n      swap2\n      pop\n      pop\n      0x01\n      swap1\n      sub\n      swap1\n      0x00\n      mstore\n      keccak256(0x00, 0x20)\n      swap1\n      0x05\n      mul\n      add\n      0x00\n      swap1\n      swap2\n      swap1\n      swap2\n      swap1\n      swap2\n      pop\n      0x00\n      dup3\n      add\n      mload\n      dup2\n      0x00\n      add\n      exp(0x0100, 0x00)\n      dup2\n      sload\n      dup2\n      0xffffffffffffffffffffffffffffffffffffffff\n      mul\n      not\n      and\n      swap1\n      dup4\n      0xffffffffffffffffffffffffffffffffffffffff\n      and\n      mul\n      or\n      swap1\n      sstore\n      pop\n      0x20\n      dup3\n      add\n      mload\n      dup2\n      0x01\n      add\n      sstore\n      0x40\n      dup3\n      add\n      mload\n      dup2\n      0x02\n      add\n      sstore\n      0x60\n      dup3\n      add\n      mload\n      dup2\n      0x03\n      add\n      swap1\n      dup2\n      tag_523\n      swap2\n      swap1\n      tag_168\n      jump\t// in\n    tag_523:\n      pop\n      0x80\n      dup3\n      add\n      mload\n      dup2\n      0x04\n      add\n      sstore\n      pop\n      pop\n        /* \"contracts/MarketPlace.sol\":5689:5883  {... */\n      pop\n        /* \"contracts/MarketPlace.sol\":5670:5883  if (!productExists){... */\n    tag_518:\n        /* \"contracts/MarketPlace.sol\":5944:5951  _amount */\n      dup8\n        /* \"contracts/MarketPlace.sol\":5893:5909  supplierProducts */\n      0x06\n        /* \"contracts/MarketPlace.sol\":5893:5920  supplierProducts[_supplier] */\n      0x00\n        /* \"contracts/MarketPlace.sol\":5910:5919  _supplier */\n      dup10\n        /* \"contracts/MarketPlace.sol\":5893:5920  supplierProducts[_supplier] */\n      0xffffffffffffffffffffffffffffffffffffffff\n      and\n      0xffffffffffffffffffffffffffffffffffffffff\n      and\n      dup2\n      mstore\n      0x20\n      add\n      swap1\n      dup2\n      mstore\n      0x20\n      add\n      0x00\n      keccak256\n        /* \"contracts/MarketPlace.sol\":5921:5931  _productId */\n      dup11\n        /* \"contracts/MarketPlace.sol\":5893:5932  supplierProducts[_supplier][_productId] */\n      dup2\n      sload\n      dup2\n      lt\n      tag_524\n      jumpi\n      tag_525\n      tag_199\n      jump\t// in\n    tag_525:\n    tag_524:\n      swap1\n      0x00\n      mstore\n      keccak256(0x00, 0x20)\n      swap1\n      0x05\n      mul\n      add\n        /* \"contracts/MarketPlace.sol\":5893:5940  supplierProducts[_supplier][_productId].inStock */\n      0x01\n      add\n      0x00\n        /* \"contracts/MarketPlace.sol\":5893:5951  supplierProducts[_supplier][_productId].inStock -= _amount */\n      dup3\n      dup3\n      sload\n      tag_527\n      swap2\n      swap1\n      tag_228\n      jump\t// in\n    tag_527:\n      swap3\n      pop\n      pop\n      dup2\n      swap1\n      sstore\n      pop\n        /* \"contracts/MarketPlace.sol\":5978:5988  totalPrice */\n      dup3\n        /* \"contracts/MarketPlace.sol\":5966:5975  msg.value */\n      callvalue\n        /* \"contracts/MarketPlace.sol\":5966:5988  msg.value > totalPrice */\n      gt\n        /* \"contracts/MarketPlace.sol\":5962:6067  if (msg.value > totalPrice) {... */\n      iszero\n      tag_528\n      jumpi\n        /* \"contracts/MarketPlace.sol\":6012:6022  msg.sender */\n      caller\n        /* \"contracts/MarketPlace.sol\":6004:6032  payable(msg.sender).transfer */\n      0xffffffffffffffffffffffffffffffffffffffff\n      and\n        /* \"contracts/MarketPlace.sol\":6004:6056  payable(msg.sender).transfer(msg.value - totalPrice) */\n      0x08fc\n        /* \"contracts/MarketPlace.sol\":6045:6055  totalPrice */\n      dup5\n        /* \"contracts/MarketPlace.sol\":6033:6042  msg.value */\n      callvalue\n        /* \"contracts/MarketPlace.sol\":6033:6055  msg.value - totalPrice */\n      tag_529\n      swap2\n      swap1\n      tag_228\n      jump\t// in\n    tag_529:\n        /* \"contracts/MarketPlace.sol\":6004:6056  payable(msg.sender).transfer(msg.value - totalPrice) */\n      swap1\n      dup2\n      iszero\n      mul\n      swap1\n      mload(0x40)\n      0x00\n      mload(0x40)\n      dup1\n      dup4\n      sub\n      dup2\n      dup6\n      dup9\n      dup9\n      call\n      swap4\n      pop\n      pop\n      pop\n      pop\n      iszero\n      dup1\n      iszero\n      tag_531\n      jumpi\n      returndatasize\n      0x00\n      dup1\n      returndatacopy\n      revert(0x00, returndatasize)\n    tag_531:\n      pop\n        /* \"contracts/MarketPlace.sol\":5962:6067  if (msg.value > totalPrice) {... */\n    tag_528:\n        /* \"contracts/MarketPlace.sol\":4881:6074  {... */\n      pop\n      pop\n      pop\n      pop\n        /* \"contracts/MarketPlace.sol\":4746:6074  function refillStore(address _shop, uint _productId, uint _amount, address _supplier) public payable AccessControl(Role.Market, _shop) {... */\n      pop\n      pop\n      pop\n      pop\n      pop\n      pop\n      jump\t// out\n    tag_226:\n      pop\n      dup1\n      sload\n      tag_532\n      swap1\n      tag_172\n      jump\t// in\n    tag_532:\n      0x00\n      dup3\n      sstore\n      dup1\n      0x1f\n      lt\n      tag_534\n      jumpi\n      pop\n      jump(tag_533)\n    tag_534:\n      0x1f\n      add\n      0x20\n      swap1\n      div\n      swap1\n      0x00\n      mstore\n      keccak256(0x00, 0x20)\n      swap1\n      dup2\n      add\n      swap1\n      tag_535\n      swap2\n      swap1\n      tag_536\n      jump\t// in\n    tag_535:\n    tag_533:\n      pop\n      jump\t// out\n    tag_536:\n    tag_537:\n      dup1\n      dup3\n      gt\n      iszero\n      tag_538\n      jumpi\n      0x00\n      dup2\n      0x00\n      swap1\n      sstore\n      pop\n      0x01\n      add\n      jump(tag_537)\n    tag_538:\n      pop\n      swap1\n      jump\t// out\n        /* \"#utility.yul\":7:82   */\n    tag_539:\n        /* \"#utility.yul\":40:46   */\n      0x00\n        /* \"#utility.yul\":73:75   */\n      0x40\n        /* \"#utility.yul\":67:76   */\n      mload\n        /* \"#utility.yul\":57:76   */\n      swap1\n      pop\n        /* \"#utility.yul\":7:82   */\n      swap1\n      jump\t// out\n        /* \"#utility.yul\":88:205   */\n    tag_540:\n        /* \"#utility.yul\":197:198   */\n      0x00\n        /* \"#utility.yul\":194:195   */\n      dup1\n        /* \"#utility.yul\":187:199   */\n      revert\n        /* \"#utility.yul\":211:328   */\n    tag_541:\n        /* \"#utility.yul\":320:321   */\n      0x00\n        /* \"#utility.yul\":317:318   */\n      dup1\n        /* \"#utility.yul\":310:322   */\n      revert\n        /* \"#utility.yul\":334:411   */\n    tag_542:\n        /* \"#utility.yul\":371:378   */\n      0x00\n        /* \"#utility.yul\":400:405   */\n      dup2\n        /* \"#utility.yul\":389:405   */\n      swap1\n      pop\n        /* \"#utility.yul\":334:411   */\n      swap2\n      swap1\n      pop\n      jump\t// out\n        /* \"#utility.yul\":417:539   */\n    tag_543:\n        /* \"#utility.yul\":490:514   */\n      tag_631\n        /* \"#utility.yul\":508:513   */\n      dup2\n        /* \"#utility.yul\":490:514   */\n      tag_542\n      jump\t// in\n    tag_631:\n        /* \"#utility.yul\":483:488   */\n      dup2\n        /* \"#utility.yul\":480:515   */\n      eq\n        /* \"#utility.yul\":470:533   */\n      tag_632\n      jumpi\n        /* \"#utility.yul\":529:530   */\n      0x00\n        /* \"#utility.yul\":526:527   */\n      dup1\n        /* \"#utility.yul\":519:531   */\n      revert\n        /* \"#utility.yul\":470:533   */\n    tag_632:\n        /* \"#utility.yul\":417:539   */\n      pop\n      jump\t// out\n        /* \"#utility.yul\":545:684   */\n    tag_544:\n        /* \"#utility.yul\":591:596   */\n      0x00\n        /* \"#utility.yul\":629:635   */\n      dup2\n        /* \"#utility.yul\":616:636   */\n      calldataload\n        /* \"#utility.yul\":607:636   */\n      swap1\n      pop\n        /* \"#utility.yul\":645:678   */\n      tag_634\n        /* \"#utility.yul\":672:677   */\n      dup2\n        /* \"#utility.yul\":645:678   */\n      tag_543\n      jump\t// in\n    tag_634:\n        /* \"#utility.yul\":545:684   */\n      swap3\n      swap2\n      pop\n      pop\n      jump\t// out\n        /* \"#utility.yul\":690:807   */\n    tag_545:\n        /* \"#utility.yul\":799:800   */\n      0x00\n        /* \"#utility.yul\":796:797   */\n      dup1\n        /* \"#utility.yul\":789:801   */\n      revert\n        /* \"#utility.yul\":813:930   */\n    tag_546:\n        /* \"#utility.yul\":922:923   */\n      0x00\n        /* \"#utility.yul\":919:920   */\n      dup1\n        /* \"#utility.yul\":912:924   */\n      revert\n        /* \"#utility.yul\":936:1053   */\n    tag_547:\n        /* \"#utility.yul\":1045:1046   */\n      0x00\n        /* \"#utility.yul\":1042:1043   */\n      dup1\n        /* \"#utility.yul\":1035:1047   */\n      revert\n        /* \"#utility.yul\":1073:1626   */\n    tag_548:\n        /* \"#utility.yul\":1131:1139   */\n      0x00\n        /* \"#utility.yul\":1141:1147   */\n      dup1\n        /* \"#utility.yul\":1191:1194   */\n      dup4\n        /* \"#utility.yul\":1184:1188   */\n      0x1f\n        /* \"#utility.yul\":1176:1182   */\n      dup5\n        /* \"#utility.yul\":1172:1189   */\n      add\n        /* \"#utility.yul\":1168:1195   */\n      slt\n        /* \"#utility.yul\":1158:1280   */\n      tag_639\n      jumpi\n        /* \"#utility.yul\":1199:1278   */\n      tag_640\n      tag_545\n      jump\t// in\n    tag_640:\n        /* \"#utility.yul\":1158:1280   */\n    tag_639:\n        /* \"#utility.yul\":1312:1318   */\n      dup3\n        /* \"#utility.yul\":1299:1319   */\n      calldataload\n        /* \"#utility.yul\":1289:1319   */\n      swap1\n      pop\n        /* \"#utility.yul\":1342:1360   */\n      0xffffffffffffffff\n        /* \"#utility.yul\":1334:1340   */\n      dup2\n        /* \"#utility.yul\":1331:1361   */\n      gt\n        /* \"#utility.yul\":1328:1445   */\n      iszero\n      tag_641\n      jumpi\n        /* \"#utility.yul\":1364:1443   */\n      tag_642\n      tag_546\n      jump\t// in\n    tag_642:\n        /* \"#utility.yul\":1328:1445   */\n    tag_641:\n        /* \"#utility.yul\":1478:1482   */\n      0x20\n        /* \"#utility.yul\":1470:1476   */\n      dup4\n        /* \"#utility.yul\":1466:1483   */\n      add\n        /* \"#utility.yul\":1454:1483   */\n      swap2\n      pop\n        /* \"#utility.yul\":1532:1535   */\n      dup4\n        /* \"#utility.yul\":1524:1528   */\n      0x01\n        /* \"#utility.yul\":1516:1522   */\n      dup3\n        /* \"#utility.yul\":1512:1529   */\n      mul\n        /* \"#utility.yul\":1502:1510   */\n      dup4\n        /* \"#utility.yul\":1498:1530   */\n      add\n        /* \"#utility.yul\":1495:1536   */\n      gt\n        /* \"#utility.yul\":1492:1620   */\n      iszero\n      tag_643\n      jumpi\n        /* \"#utility.yul\":1539:1618   */\n      tag_644\n      tag_547\n      jump\t// in\n    tag_644:\n        /* \"#utility.yul\":1492:1620   */\n    tag_643:\n        /* \"#utility.yul\":1073:1626   */\n      swap3\n      pop\n      swap3\n      swap1\n      pop\n      jump\t// out\n        /* \"#utility.yul\":1632:2597   */\n    tag_34:\n        /* \"#utility.yul\":1730:1736   */\n      0x00\n        /* \"#utility.yul\":1738:1744   */\n      dup1\n        /* \"#utility.yul\":1746:1752   */\n      0x00\n        /* \"#utility.yul\":1754:1760   */\n      dup1\n        /* \"#utility.yul\":1762:1768   */\n      0x00\n        /* \"#utility.yul\":1811:1814   */\n      0x80\n        /* \"#utility.yul\":1799:1808   */\n      dup7\n        /* \"#utility.yul\":1790:1797   */\n      dup9\n        /* \"#utility.yul\":1786:1809   */\n      sub\n        /* \"#utility.yul\":1782:1815   */\n      slt\n        /* \"#utility.yul\":1779:1899   */\n      iszero\n      tag_646\n      jumpi\n        /* \"#utility.yul\":1818:1897   */\n      tag_647\n      tag_540\n      jump\t// in\n    tag_647:\n        /* \"#utility.yul\":1779:1899   */\n    tag_646:\n        /* \"#utility.yul\":1938:1939   */\n      0x00\n        /* \"#utility.yul\":1963:2016   */\n      tag_648\n        /* \"#utility.yul\":2008:2015   */\n      dup9\n        /* \"#utility.yul\":1999:2005   */\n      dup3\n        /* \"#utility.yul\":1988:1997   */\n      dup10\n        /* \"#utility.yul\":1984:2006   */\n      add\n        /* \"#utility.yul\":1963:2016   */\n      tag_544\n      jump\t// in\n    tag_648:\n        /* \"#utility.yul\":1953:2016   */\n      swap6\n      pop\n        /* \"#utility.yul\":1909:2026   */\n      pop\n        /* \"#utility.yul\":2065:2067   */\n      0x20\n        /* \"#utility.yul\":2091:2144   */\n      tag_649\n        /* \"#utility.yul\":2136:2143   */\n      dup9\n        /* \"#utility.yul\":2127:2133   */\n      dup3\n        /* \"#utility.yul\":2116:2125   */\n      dup10\n        /* \"#utility.yul\":2112:2134   */\n      add\n        /* \"#utility.yul\":2091:2144   */\n      tag_544\n      jump\t// in\n    tag_649:\n        /* \"#utility.yul\":2081:2144   */\n      swap5\n      pop\n        /* \"#utility.yul\":2036:2154   */\n      pop\n        /* \"#utility.yul\":2221:2223   */\n      0x40\n        /* \"#utility.yul\":2210:2219   */\n      dup7\n        /* \"#utility.yul\":2206:2224   */\n      add\n        /* \"#utility.yul\":2193:2225   */\n      calldataload\n        /* \"#utility.yul\":2252:2270   */\n      0xffffffffffffffff\n        /* \"#utility.yul\":2244:2250   */\n      dup2\n        /* \"#utility.yul\":2241:2271   */\n      gt\n        /* \"#utility.yul\":2238:2355   */\n      iszero\n      tag_650\n      jumpi\n        /* \"#utility.yul\":2274:2353   */\n      tag_651\n      tag_541\n      jump\t// in\n    tag_651:\n        /* \"#utility.yul\":2238:2355   */\n    tag_650:\n        /* \"#utility.yul\":2387:2452   */\n      tag_652\n        /* \"#utility.yul\":2444:2451   */\n      dup9\n        /* \"#utility.yul\":2435:2441   */\n      dup3\n        /* \"#utility.yul\":2424:2433   */\n      dup10\n        /* \"#utility.yul\":2420:2442   */\n      add\n        /* \"#utility.yul\":2387:2452   */\n      tag_548\n      jump\t// in\n    tag_652:\n        /* \"#utility.yul\":2369:2452   */\n      swap4\n      pop\n      swap4\n      pop\n        /* \"#utility.yul\":2164:2462   */\n      pop\n        /* \"#utility.yul\":2501:2503   */\n      0x60\n        /* \"#utility.yul\":2527:2580   */\n      tag_653\n        /* \"#utility.yul\":2572:2579   */\n      dup9\n        /* \"#utility.yul\":2563:2569   */\n      dup3\n        /* \"#utility.yul\":2552:2561   */\n      dup10\n        /* \"#utility.yul\":2548:2570   */\n      add\n        /* \"#utility.yul\":2527:2580   */\n      tag_544\n      jump\t// in\n    tag_653:\n        /* \"#utility.yul\":2517:2580   */\n      swap2\n      pop\n        /* \"#utility.yul\":2472:2590   */\n      pop\n        /* \"#utility.yul\":1632:2597   */\n      swap3\n      swap6\n      pop\n      swap3\n      swap6\n      swap1\n      swap4\n      pop\n      jump\t// out\n        /* \"#utility.yul\":2603:2932   */\n    tag_39:\n        /* \"#utility.yul\":2662:2668   */\n      0x00\n        /* \"#utility.yul\":2711:2713   */\n      0x20\n        /* \"#utility.yul\":2699:2708   */\n      dup3\n        /* \"#utility.yul\":2690:2697   */\n      dup5\n        /* \"#utility.yul\":2686:2709   */\n      sub\n        /* \"#utility.yul\":2682:2714   */\n      slt\n        /* \"#utility.yul\":2679:2798   */\n      iszero\n      tag_655\n      jumpi\n        /* \"#utility.yul\":2717:2796   */\n      tag_656\n      tag_540\n      jump\t// in\n    tag_656:\n        /* \"#utility.yul\":2679:2798   */\n    tag_655:\n        /* \"#utility.yul\":2837:2838   */\n      0x00\n        /* \"#utility.yul\":2862:2915   */\n      tag_657\n        /* \"#utility.yul\":2907:2914   */\n      dup5\n        /* \"#utility.yul\":2898:2904   */\n      dup3\n        /* \"#utility.yul\":2887:2896   */\n      dup6\n        /* \"#utility.yul\":2883:2905   */\n      add\n        /* \"#utility.yul\":2862:2915   */\n      tag_544\n      jump\t// in\n    tag_657:\n        /* \"#utility.yul\":2852:2915   */\n      swap2\n      pop\n        /* \"#utility.yul\":2808:2925   */\n      pop\n        /* \"#utility.yul\":2603:2932   */\n      swap3\n      swap2\n      pop\n      pop\n      jump\t// out\n        /* \"#utility.yul\":2938:3064   */\n    tag_549:\n        /* \"#utility.yul\":2975:2982   */\n      0x00\n        /* \"#utility.yul\":3015:3057   */\n      0xffffffffffffffffffffffffffffffffffffffff\n        /* \"#utility.yul\":3008:3013   */\n      dup3\n        /* \"#utility.yul\":3004:3058   */\n      and\n        /* \"#utility.yul\":2993:3058   */\n      swap1\n      pop\n        /* \"#utility.yul\":2938:3064   */\n      swap2\n      swap1\n      pop\n      jump\t// out\n        /* \"#utility.yul\":3070:3166   */\n    tag_550:\n        /* \"#utility.yul\":3107:3114   */\n      0x00\n        /* \"#utility.yul\":3136:3160   */\n      tag_660\n        /* \"#utility.yul\":3154:3159   */\n      dup3\n        /* \"#utility.yul\":3136:3160   */\n      tag_549\n      jump\t// in\n    tag_660:\n        /* \"#utility.yul\":3125:3160   */\n      swap1\n      pop\n        /* \"#utility.yul\":3070:3166   */\n      swap2\n      swap1\n      pop\n      jump\t// out\n        /* \"#utility.yul\":3172:3290   */\n    tag_551:\n        /* \"#utility.yul\":3259:3283   */\n      tag_662\n        /* \"#utility.yul\":3277:3282   */\n      dup2\n        /* \"#utility.yul\":3259:3283   */\n      tag_550\n      jump\t// in\n    tag_662:\n        /* \"#utility.yul\":3254:3257   */\n      dup3\n        /* \"#utility.yul\":3247:3284   */\n      mstore\n        /* \"#utility.yul\":3172:3290   */\n      pop\n      pop\n      jump\t// out\n        /* \"#utility.yul\":3296:3476   */\n    tag_156:\n        /* \"#utility.yul\":3344:3421   */\n      0x4e487b7100000000000000000000000000000000000000000000000000000000\n        /* \"#utility.yul\":3341:3342   */\n      0x00\n        /* \"#utility.yul\":3334:3422   */\n      mstore\n        /* \"#utility.yul\":3441:3445   */\n      0x21\n        /* \"#utility.yul\":3438:3439   */\n      0x04\n        /* \"#utility.yul\":3431:3446   */\n      mstore\n        /* \"#utility.yul\":3465:3469   */\n      0x24\n        /* \"#utility.yul\":3462:3463   */\n      0x00\n        /* \"#utility.yul\":3455:3470   */\n      revert\n        /* \"#utility.yul\":3482:3596   */\n    tag_552:\n        /* \"#utility.yul\":3564:3565   */\n      0x04\n        /* \"#utility.yul\":3557:3562   */\n      dup2\n        /* \"#utility.yul\":3554:3566   */\n      lt\n        /* \"#utility.yul\":3544:3590   */\n      tag_665\n      jumpi\n        /* \"#utility.yul\":3570:3588   */\n      tag_666\n      tag_156\n      jump\t// in\n    tag_666:\n        /* \"#utility.yul\":3544:3590   */\n    tag_665:\n        /* \"#utility.yul\":3482:3596   */\n      pop\n      jump\t// out\n        /* \"#utility.yul\":3602:3731   */\n    tag_553:\n        /* \"#utility.yul\":3648:3655   */\n      0x00\n        /* \"#utility.yul\":3677:3682   */\n      dup2\n        /* \"#utility.yul\":3666:3682   */\n      swap1\n      pop\n        /* \"#utility.yul\":3683:3725   */\n      tag_668\n        /* \"#utility.yul\":3719:3724   */\n      dup3\n        /* \"#utility.yul\":3683:3725   */\n      tag_552\n      jump\t// in\n    tag_668:\n        /* \"#utility.yul\":3602:3731   */\n      swap2\n      swap1\n      pop\n      jump\t// out\n        /* \"#utility.yul\":3737:3866   */\n    tag_554:\n        /* \"#utility.yul\":3794:3803   */\n      0x00\n        /* \"#utility.yul\":3827:3860   */\n      tag_670\n        /* \"#utility.yul\":3854:3859   */\n      dup3\n        /* \"#utility.yul\":3827:3860   */\n      tag_553\n      jump\t// in\n    tag_670:\n        /* \"#utility.yul\":3814:3860   */\n      swap1\n      pop\n        /* \"#utility.yul\":3737:3866   */\n      swap2\n      swap1\n      pop\n      jump\t// out\n        /* \"#utility.yul\":3872:4017   */\n    tag_555:\n        /* \"#utility.yul\":3966:4010   */\n      tag_672\n        /* \"#utility.yul\":4004:4009   */\n      dup2\n        /* \"#utility.yul\":3966:4010   */\n      tag_554\n      jump\t// in\n    tag_672:\n        /* \"#utility.yul\":3961:3964   */\n      dup3\n        /* \"#utility.yul\":3954:4011   */\n      mstore\n        /* \"#utility.yul\":3872:4017   */\n      pop\n      pop\n      jump\t// out\n        /* \"#utility.yul\":4023:4122   */\n    tag_556:\n        /* \"#utility.yul\":4075:4081   */\n      0x00\n        /* \"#utility.yul\":4109:4114   */\n      dup2\n        /* \"#utility.yul\":4103:4115   */\n      mload\n        /* \"#utility.yul\":4093:4115   */\n      swap1\n      pop\n        /* \"#utility.yul\":4023:4122   */\n      swap2\n      swap1\n      pop\n      jump\t// out\n        /* \"#utility.yul\":4128:4297   */\n    tag_557:\n        /* \"#utility.yul\":4212:4223   */\n      0x00\n        /* \"#utility.yul\":4246:4252   */\n      dup3\n        /* \"#utility.yul\":4241:4244   */\n      dup3\n        /* \"#utility.yul\":4234:4253   */\n      mstore\n        /* \"#utility.yul\":4286:4290   */\n      0x20\n        /* \"#utility.yul\":4281:4284   */\n      dup3\n        /* \"#utility.yul\":4277:4291   */\n      add\n        /* \"#utility.yul\":4262:4291   */\n      swap1\n      pop\n        /* \"#utility.yul\":4128:4297   */\n      swap3\n      swap2\n      pop\n      pop\n      jump\t// out\n        /* \"#utility.yul\":4303:4549   */\n    tag_558:\n        /* \"#utility.yul\":4384:4385   */\n      0x00\n        /* \"#utility.yul\":4394:4507   */\n    tag_676:\n        /* \"#utility.yul\":4408:4414   */\n      dup4\n        /* \"#utility.yul\":4405:4406   */\n      dup2\n        /* \"#utility.yul\":4402:4415   */\n      lt\n        /* \"#utility.yul\":4394:4507   */\n      iszero\n      tag_678\n      jumpi\n        /* \"#utility.yul\":4493:4494   */\n      dup1\n        /* \"#utility.yul\":4488:4491   */\n      dup3\n        /* \"#utility.yul\":4484:4495   */\n      add\n        /* \"#utility.yul\":4478:4496   */\n      mload\n        /* \"#utility.yul\":4474:4475   */\n      dup2\n        /* \"#utility.yul\":4469:4472   */\n      dup5\n        /* \"#utility.yul\":4465:4476   */\n      add\n        /* \"#utility.yul\":4458:4497   */\n      mstore\n        /* \"#utility.yul\":4430:4432   */\n      0x20\n        /* \"#utility.yul\":4427:4428   */\n      dup2\n        /* \"#utility.yul\":4423:4433   */\n      add\n        /* \"#utility.yul\":4418:4433   */\n      swap1\n      pop\n        /* \"#utility.yul\":4394:4507   */\n      jump(tag_676)\n    tag_678:\n        /* \"#utility.yul\":4541:4542   */\n      0x00\n        /* \"#utility.yul\":4532:4538   */\n      dup5\n        /* \"#utility.yul\":4527:4530   */\n      dup5\n        /* \"#utility.yul\":4523:4539   */\n      add\n        /* \"#utility.yul\":4516:4543   */\n      mstore\n        /* \"#utility.yul\":4365:4549   */\n      pop\n        /* \"#utility.yul\":4303:4549   */\n      pop\n      pop\n      pop\n      jump\t// out\n        /* \"#utility.yul\":4555:4657   */\n    tag_559:\n        /* \"#utility.yul\":4596:4602   */\n      0x00\n        /* \"#utility.yul\":4647:4649   */\n      0x1f\n        /* \"#utility.yul\":4643:4650   */\n      not\n        /* \"#utility.yul\":4638:4640   */\n      0x1f\n        /* \"#utility.yul\":4631:4636   */\n      dup4\n        /* \"#utility.yul\":4627:4641   */\n      add\n        /* \"#utility.yul\":4623:4651   */\n      and\n        /* \"#utility.yul\":4613:4651   */\n      swap1\n      pop\n        /* \"#utility.yul\":4555:4657   */\n      swap2\n      swap1\n      pop\n      jump\t// out\n        /* \"#utility.yul\":4663:5040   */\n    tag_560:\n        /* \"#utility.yul\":4751:4754   */\n      0x00\n        /* \"#utility.yul\":4779:4818   */\n      tag_681\n        /* \"#utility.yul\":4812:4817   */\n      dup3\n        /* \"#utility.yul\":4779:4818   */\n      tag_556\n      jump\t// in\n    tag_681:\n        /* \"#utility.yul\":4834:4905   */\n      tag_682\n        /* \"#utility.yul\":4898:4904   */\n      dup2\n        /* \"#utility.yul\":4893:4896   */\n      dup6\n        /* \"#utility.yul\":4834:4905   */\n      tag_557\n      jump\t// in\n    tag_682:\n        /* \"#utility.yul\":4827:4905   */\n      swap4\n      pop\n        /* \"#utility.yul\":4914:4979   */\n      tag_683\n        /* \"#utility.yul\":4972:4978   */\n      dup2\n        /* \"#utility.yul\":4967:4970   */\n      dup6\n        /* \"#utility.yul\":4960:4964   */\n      0x20\n        /* \"#utility.yul\":4953:4958   */\n      dup7\n        /* \"#utility.yul\":4949:4965   */\n      add\n        /* \"#utility.yul\":4914:4979   */\n      tag_558\n      jump\t// in\n    tag_683:\n        /* \"#utility.yul\":5004:5033   */\n      tag_684\n        /* \"#utility.yul\":5026:5032   */\n      dup2\n        /* \"#utility.yul\":5004:5033   */\n      tag_559\n      jump\t// in\n    tag_684:\n        /* \"#utility.yul\":4999:5002   */\n      dup5\n        /* \"#utility.yul\":4995:5034   */\n      add\n        /* \"#utility.yul\":4988:5034   */\n      swap2\n      pop\n        /* \"#utility.yul\":4755:5040   */\n      pop\n        /* \"#utility.yul\":4663:5040   */\n      swap3\n      swap2\n      pop\n      pop\n      jump\t// out\n        /* \"#utility.yul\":5046:5164   */\n    tag_561:\n        /* \"#utility.yul\":5133:5157   */\n      tag_686\n        /* \"#utility.yul\":5151:5156   */\n      dup2\n        /* \"#utility.yul\":5133:5157   */\n      tag_542\n      jump\t// in\n    tag_686:\n        /* \"#utility.yul\":5128:5131   */\n      dup3\n        /* \"#utility.yul\":5121:5158   */\n      mstore\n        /* \"#utility.yul\":5046:5164   */\n      pop\n      pop\n      jump\t// out\n        /* \"#utility.yul\":5170:6050   */\n    tag_42:\n        /* \"#utility.yul\":5430:5434   */\n      0x00\n        /* \"#utility.yul\":5468:5471   */\n      0xc0\n        /* \"#utility.yul\":5457:5466   */\n      dup3\n        /* \"#utility.yul\":5453:5472   */\n      add\n        /* \"#utility.yul\":5445:5472   */\n      swap1\n      pop\n        /* \"#utility.yul\":5482:5553   */\n      tag_688\n        /* \"#utility.yul\":5550:5551   */\n      0x00\n        /* \"#utility.yul\":5539:5548   */\n      dup4\n        /* \"#utility.yul\":5535:5552   */\n      add\n        /* \"#utility.yul\":5526:5532   */\n      dup10\n        /* \"#utility.yul\":5482:5553   */\n      tag_551\n      jump\t// in\n    tag_688:\n        /* \"#utility.yul\":5563:5635   */\n      tag_689\n        /* \"#utility.yul\":5631:5633   */\n      0x20\n        /* \"#utility.yul\":5620:5629   */\n      dup4\n        /* \"#utility.yul\":5616:5634   */\n      add\n        /* \"#utility.yul\":5607:5613   */\n      dup9\n        /* \"#utility.yul\":5563:5635   */\n      tag_551\n      jump\t// in\n    tag_689:\n        /* \"#utility.yul\":5645:5724   */\n      tag_690\n        /* \"#utility.yul\":5720:5722   */\n      0x40\n        /* \"#utility.yul\":5709:5718   */\n      dup4\n        /* \"#utility.yul\":5705:5723   */\n      add\n        /* \"#utility.yul\":5696:5702   */\n      dup8\n        /* \"#utility.yul\":5645:5724   */\n      tag_555\n      jump\t// in\n    tag_690:\n        /* \"#utility.yul\":5771:5780   */\n      dup2\n        /* \"#utility.yul\":5765:5769   */\n      dup2\n        /* \"#utility.yul\":5761:5781   */\n      sub\n        /* \"#utility.yul\":5756:5758   */\n      0x60\n        /* \"#utility.yul\":5745:5754   */\n      dup4\n        /* \"#utility.yul\":5741:5759   */\n      add\n        /* \"#utility.yul\":5734:5782   */\n      mstore\n        /* \"#utility.yul\":5799:5877   */\n      tag_691\n        /* \"#utility.yul\":5872:5876   */\n      dup2\n        /* \"#utility.yul\":5863:5869   */\n      dup7\n        /* \"#utility.yul\":5799:5877   */\n      tag_560\n      jump\t// in\n    tag_691:\n        /* \"#utility.yul\":5791:5877   */\n      swap1\n      pop\n        /* \"#utility.yul\":5887:5960   */\n      tag_692\n        /* \"#utility.yul\":5955:5958   */\n      0x80\n        /* \"#utility.yul\":5944:5953   */\n      dup4\n        /* \"#utility.yul\":5940:5959   */\n      add\n        /* \"#utility.yul\":5931:5937   */\n      dup6\n        /* \"#utility.yul\":5887:5960   */\n      tag_561\n      jump\t// in\n    tag_692:\n        /* \"#utility.yul\":5970:6043   */\n      tag_693\n        /* \"#utility.yul\":6038:6041   */\n      0xa0\n        /* \"#utility.yul\":6027:6036   */\n      dup4\n        /* \"#utility.yul\":6023:6042   */\n      add\n        /* \"#utility.yul\":6014:6020   */\n      dup5\n        /* \"#utility.yul\":5970:6043   */\n      tag_561\n      jump\t// in\n    tag_693:\n        /* \"#utility.yul\":5170:6050   */\n      swap8\n      swap7\n      pop\n      pop\n      pop\n      pop\n      pop\n      pop\n      pop\n      jump\t// out\n        /* \"#utility.yul\":6056:6178   */\n    tag_562:\n        /* \"#utility.yul\":6129:6153   */\n      tag_695\n        /* \"#utility.yul\":6147:6152   */\n      dup2\n        /* \"#utility.yul\":6129:6153   */\n      tag_550\n      jump\t// in\n    tag_695:\n        /* \"#utility.yul\":6122:6127   */\n      dup2\n        /* \"#utility.yul\":6119:6154   */\n      eq\n        /* \"#utility.yul\":6109:6172   */\n      tag_696\n      jumpi\n        /* \"#utility.yul\":6168:6169   */\n      0x00\n        /* \"#utility.yul\":6165:6166   */\n      dup1\n        /* \"#utility.yul\":6158:6170   */\n      revert\n        /* \"#utility.yul\":6109:6172   */\n    tag_696:\n        /* \"#utility.yul\":6056:6178   */\n      pop\n      jump\t// out\n        /* \"#utility.yul\":6184:6323   */\n    tag_563:\n        /* \"#utility.yul\":6230:6235   */\n      0x00\n        /* \"#utility.yul\":6268:6274   */\n      dup2\n        /* \"#utility.yul\":6255:6275   */\n      calldataload\n        /* \"#utility.yul\":6246:6275   */\n      swap1\n      pop\n        /* \"#utility.yul\":6284:6317   */\n      tag_698\n        /* \"#utility.yul\":6311:6316   */\n      dup2\n        /* \"#utility.yul\":6284:6317   */\n      tag_562\n      jump\t// in\n    tag_698:\n        /* \"#utility.yul\":6184:6323   */\n      swap3\n      swap2\n      pop\n      pop\n      jump\t// out\n        /* \"#utility.yul\":6329:6803   */\n    tag_46:\n        /* \"#utility.yul\":6397:6403   */\n      0x00\n        /* \"#utility.yul\":6405:6411   */\n      dup1\n        /* \"#utility.yul\":6454:6456   */\n      0x40\n        /* \"#utility.yul\":6442:6451   */\n      dup4\n        /* \"#utility.yul\":6433:6440   */\n      dup6\n        /* \"#utility.yul\":6429:6452   */\n      sub\n        /* \"#utility.yul\":6425:6457   */\n      slt\n        /* \"#utility.yul\":6422:6541   */\n      iszero\n      tag_700\n      jumpi\n        /* \"#utility.yul\":6460:6539   */\n      tag_701\n      tag_540\n      jump\t// in\n    tag_701:\n        /* \"#utility.yul\":6422:6541   */\n    tag_700:\n        /* \"#utility.yul\":6580:6581   */\n      0x00\n        /* \"#utility.yul\":6605:6658   */\n      tag_702\n        /* \"#utility.yul\":6650:6657   */\n      dup6\n        /* \"#utility.yul\":6641:6647   */\n      dup3\n        /* \"#utility.yul\":6630:6639   */\n      dup7\n        /* \"#utility.yul\":6626:6648   */\n      add\n        /* \"#utility.yul\":6605:6658   */\n      tag_563\n      jump\t// in\n    tag_702:\n        /* \"#utility.yul\":6595:6658   */\n      swap3\n      pop\n        /* \"#utility.yul\":6551:6668   */\n      pop\n        /* \"#utility.yul\":6707:6709   */\n      0x20\n        /* \"#utility.yul\":6733:6786   */\n      tag_703\n        /* \"#utility.yul\":6778:6785   */\n      dup6\n        /* \"#utility.yul\":6769:6775   */\n      dup3\n        /* \"#utility.yul\":6758:6767   */\n      dup7\n        /* \"#utility.yul\":6754:6776   */\n      add\n        /* \"#utility.yul\":6733:6786   */\n      tag_544\n      jump\t// in\n    tag_703:\n        /* \"#utility.yul\":6723:6786   */\n      swap2\n      pop\n        /* \"#utility.yul\":6678:6796   */\n      pop\n        /* \"#utility.yul\":6329:6803   */\n      swap3\n      pop\n      swap3\n      swap1\n      pop\n      jump\t// out\n        /* \"#utility.yul\":6809:7564   */\n    tag_49:\n        /* \"#utility.yul\":7034:7038   */\n      0x00\n        /* \"#utility.yul\":7072:7075   */\n      0xa0\n        /* \"#utility.yul\":7061:7070   */\n      dup3\n        /* \"#utility.yul\":7057:7076   */\n      add\n        /* \"#utility.yul\":7049:7076   */\n      swap1\n      pop\n        /* \"#utility.yul\":7086:7157   */\n      tag_705\n        /* \"#utility.yul\":7154:7155   */\n      0x00\n        /* \"#utility.yul\":7143:7152   */\n      dup4\n        /* \"#utility.yul\":7139:7156   */\n      add\n        /* \"#utility.yul\":7130:7136   */\n      dup9\n        /* \"#utility.yul\":7086:7157   */\n      tag_551\n      jump\t// in\n    tag_705:\n        /* \"#utility.yul\":7167:7239   */\n      tag_706\n        /* \"#utility.yul\":7235:7237   */\n      0x20\n        /* \"#utility.yul\":7224:7233   */\n      dup4\n        /* \"#utility.yul\":7220:7238   */\n      add\n        /* \"#utility.yul\":7211:7217   */\n      dup8\n        /* \"#utility.yul\":7167:7239   */\n      tag_561\n      jump\t// in\n    tag_706:\n        /* \"#utility.yul\":7249:7321   */\n      tag_707\n        /* \"#utility.yul\":7317:7319   */\n      0x40\n        /* \"#utility.yul\":7306:7315   */\n      dup4\n        /* \"#utility.yul\":7302:7320   */\n      add\n        /* \"#utility.yul\":7293:7299   */\n      dup7\n        /* \"#utility.yul\":7249:7321   */\n      tag_561\n      jump\t// in\n    tag_707:\n        /* \"#utility.yul\":7368:7377   */\n      dup2\n        /* \"#utility.yul\":7362:7366   */\n      dup2\n        /* \"#utility.yul\":7358:7378   */\n      sub\n        /* \"#utility.yul\":7353:7355   */\n      0x60\n        /* \"#utility.yul\":7342:7351   */\n      dup4\n        /* \"#utility.yul\":7338:7356   */\n      add\n        /* \"#utility.yul\":7331:7379   */\n      mstore\n        /* \"#utility.yul\":7396:7474   */\n      tag_708\n        /* \"#utility.yul\":7469:7473   */\n      dup2\n        /* \"#utility.yul\":7460:7466   */\n      dup6\n        /* \"#utility.yul\":7396:7474   */\n      tag_560\n      jump\t// in\n    tag_708:\n        /* \"#utility.yul\":7388:7474   */\n      swap1\n      pop\n        /* \"#utility.yul\":7484:7557   */\n      tag_709\n        /* \"#utility.yul\":7552:7555   */\n      0x80\n        /* \"#utility.yul\":7541:7550   */\n      dup4\n        /* \"#utility.yul\":7537:7556   */\n      add\n        /* \"#utility.yul\":7528:7534   */\n      dup5\n        /* \"#utility.yul\":7484:7557   */\n      tag_561\n      jump\t// in\n    tag_709:\n        /* \"#utility.yul\":6809:7564   */\n      swap7\n      swap6\n      pop\n      pop\n      pop\n      pop\n      pop\n      pop\n      jump\t// out\n        /* \"#utility.yul\":7570:7681   */\n    tag_564:\n        /* \"#utility.yul\":7649:7650   */\n      0x03\n        /* \"#utility.yul\":7642:7647   */\n      dup2\n        /* \"#utility.yul\":7639:7651   */\n      lt\n        /* \"#utility.yul\":7629:7675   */\n      tag_711\n      jumpi\n        /* \"#utility.yul\":7655:7673   */\n      tag_712\n      tag_156\n      jump\t// in\n    tag_712:\n        /* \"#utility.yul\":7629:7675   */\n    tag_711:\n        /* \"#utility.yul\":7570:7681   */\n      pop\n      jump\t// out\n        /* \"#utility.yul\":7687:7810   */\n    tag_565:\n        /* \"#utility.yul\":7730:7737   */\n      0x00\n        /* \"#utility.yul\":7759:7764   */\n      dup2\n        /* \"#utility.yul\":7748:7764   */\n      swap1\n      pop\n        /* \"#utility.yul\":7765:7804   */\n      tag_714\n        /* \"#utility.yul\":7798:7803   */\n      dup3\n        /* \"#utility.yul\":7765:7804   */\n      tag_564\n      jump\t// in\n    tag_714:\n        /* \"#utility.yul\":7687:7810   */\n      swap2\n      swap1\n      pop\n      jump\t// out\n        /* \"#utility.yul\":7816:7939   */\n    tag_566:\n        /* \"#utility.yul\":7870:7879   */\n      0x00\n        /* \"#utility.yul\":7903:7933   */\n      tag_716\n        /* \"#utility.yul\":7927:7932   */\n      dup3\n        /* \"#utility.yul\":7903:7933   */\n      tag_565\n      jump\t// in\n    tag_716:\n        /* \"#utility.yul\":7890:7933   */\n      swap1\n      pop\n        /* \"#utility.yul\":7816:7939   */\n      swap2\n      swap1\n      pop\n      jump\t// out\n        /* \"#utility.yul\":7945:8084   */\n    tag_567:\n        /* \"#utility.yul\":8036:8077   */\n      tag_718\n        /* \"#utility.yul\":8071:8076   */\n      dup2\n        /* \"#utility.yul\":8036:8077   */\n      tag_566\n      jump\t// in\n    tag_718:\n        /* \"#utility.yul\":8031:8034   */\n      dup3\n        /* \"#utility.yul\":8024:8078   */\n      mstore\n        /* \"#utility.yul\":7945:8084   */\n      pop\n      pop\n      jump\t// out\n        /* \"#utility.yul\":8090:8430   */\n    tag_72:\n        /* \"#utility.yul\":8215:8219   */\n      0x00\n        /* \"#utility.yul\":8253:8255   */\n      0x40\n        /* \"#utility.yul\":8242:8251   */\n      dup3\n        /* \"#utility.yul\":8238:8256   */\n      add\n        /* \"#utility.yul\":8230:8256   */\n      swap1\n      pop\n        /* \"#utility.yul\":8266:8337   */\n      tag_720\n        /* \"#utility.yul\":8334:8335   */\n      0x00\n        /* \"#utility.yul\":8323:8332   */\n      dup4\n        /* \"#utility.yul\":8319:8336   */\n      add\n        /* \"#utility.yul\":8310:8316   */\n      dup6\n        /* \"#utility.yul\":8266:8337   */\n      tag_551\n      jump\t// in\n    tag_720:\n        /* \"#utility.yul\":8347:8423   */\n      tag_721\n        /* \"#utility.yul\":8419:8421   */\n      0x20\n        /* \"#utility.yul\":8408:8417   */\n      dup4\n        /* \"#utility.yul\":8404:8422   */\n      add\n        /* \"#utility.yul\":8395:8401   */\n      dup5\n        /* \"#utility.yul\":8347:8423   */\n      tag_567\n      jump\t// in\n    tag_721:\n        /* \"#utility.yul\":8090:8430   */\n      swap4\n      swap3\n      pop\n      pop\n      pop\n      jump\t// out\n        /* \"#utility.yul\":8436:8541   */\n    tag_568:\n        /* \"#utility.yul\":8515:8516   */\n      0x03\n        /* \"#utility.yul\":8508:8513   */\n      dup2\n        /* \"#utility.yul\":8505:8517   */\n      lt\n        /* \"#utility.yul\":8495:8535   */\n      tag_723\n      jumpi\n        /* \"#utility.yul\":8531:8532   */\n      0x00\n        /* \"#utility.yul\":8528:8529   */\n      dup1\n        /* \"#utility.yul\":8521:8533   */\n      revert\n        /* \"#utility.yul\":8495:8535   */\n    tag_723:\n        /* \"#utility.yul\":8436:8541   */\n      pop\n      jump\t// out\n        /* \"#utility.yul\":8547:8698   */\n    tag_569:\n        /* \"#utility.yul\":8599:8604   */\n      0x00\n        /* \"#utility.yul\":8637:8643   */\n      dup2\n        /* \"#utility.yul\":8624:8644   */\n      calldataload\n        /* \"#utility.yul\":8615:8644   */\n      swap1\n      pop\n        /* \"#utility.yul\":8653:8692   */\n      tag_725\n        /* \"#utility.yul\":8686:8691   */\n      dup2\n        /* \"#utility.yul\":8653:8692   */\n      tag_568\n      jump\t// in\n    tag_725:\n        /* \"#utility.yul\":8547:8698   */\n      swap3\n      swap2\n      pop\n      pop\n      jump\t// out\n        /* \"#utility.yul\":8704:9045   */\n    tag_76:\n        /* \"#utility.yul\":8769:8775   */\n      0x00\n        /* \"#utility.yul\":8818:8820   */\n      0x20\n        /* \"#utility.yul\":8806:8815   */\n      dup3\n        /* \"#utility.yul\":8797:8804   */\n      dup5\n        /* \"#utility.yul\":8793:8816   */\n      sub\n        /* \"#utility.yul\":8789:8821   */\n      slt\n        /* \"#utility.yul\":8786:8905   */\n      iszero\n      tag_727\n      jumpi\n        /* \"#utility.yul\":8824:8903   */\n      tag_728\n      tag_540\n      jump\t// in\n    tag_728:\n        /* \"#utility.yul\":8786:8905   */\n    tag_727:\n        /* \"#utility.yul\":8944:8945   */\n      0x00\n        /* \"#utility.yul\":8969:9028   */\n      tag_729\n        /* \"#utility.yul\":9020:9027   */\n      dup5\n        /* \"#utility.yul\":9011:9017   */\n      dup3\n        /* \"#utility.yul\":9000:9009   */\n      dup6\n        /* \"#utility.yul\":8996:9018   */\n      add\n        /* \"#utility.yul\":8969:9028   */\n      tag_569\n      jump\t// in\n    tag_729:\n        /* \"#utility.yul\":8959:9028   */\n      swap2\n      pop\n        /* \"#utility.yul\":8915:9038   */\n      pop\n        /* \"#utility.yul\":8704:9045   */\n      swap3\n      swap2\n      pop\n      pop\n      jump\t// out\n        /* \"#utility.yul\":9051:9168   */\n    tag_570:\n        /* \"#utility.yul\":9160:9161   */\n      0x00\n        /* \"#utility.yul\":9157:9158   */\n      dup1\n        /* \"#utility.yul\":9150:9162   */\n      revert\n        /* \"#utility.yul\":9174:9354   */\n    tag_571:\n        /* \"#utility.yul\":9222:9299   */\n      0x4e487b7100000000000000000000000000000000000000000000000000000000\n        /* \"#utility.yul\":9219:9220   */\n      0x00\n        /* \"#utility.yul\":9212:9300   */\n      mstore\n        /* \"#utility.yul\":9319:9323   */\n      0x41\n        /* \"#utility.yul\":9316:9317   */\n      0x04\n        /* \"#utility.yul\":9309:9324   */\n      mstore\n        /* \"#utility.yul\":9343:9347   */\n      0x24\n        /* \"#utility.yul\":9340:9341   */\n      0x00\n        /* \"#utility.yul\":9333:9348   */\n      revert\n        /* \"#utility.yul\":9360:9641   */\n    tag_572:\n        /* \"#utility.yul\":9443:9470   */\n      tag_733\n        /* \"#utility.yul\":9465:9469   */\n      dup3\n        /* \"#utility.yul\":9443:9470   */\n      tag_559\n      jump\t// in\n    tag_733:\n        /* \"#utility.yul\":9435:9441   */\n      dup2\n        /* \"#utility.yul\":9431:9471   */\n      add\n        /* \"#utility.yul\":9573:9579   */\n      dup2\n        /* \"#utility.yul\":9561:9571   */\n      dup2\n        /* \"#utility.yul\":9558:9580   */\n      lt\n        /* \"#utility.yul\":9537:9555   */\n      0xffffffffffffffff\n        /* \"#utility.yul\":9525:9535   */\n      dup3\n        /* \"#utility.yul\":9522:9556   */\n      gt\n        /* \"#utility.yul\":9519:9581   */\n      or\n        /* \"#utility.yul\":9516:9604   */\n      iszero\n      tag_734\n      jumpi\n        /* \"#utility.yul\":9584:9602   */\n      tag_735\n      tag_571\n      jump\t// in\n    tag_735:\n        /* \"#utility.yul\":9516:9604   */\n    tag_734:\n        /* \"#utility.yul\":9624:9634   */\n      dup1\n        /* \"#utility.yul\":9620:9622   */\n      0x40\n        /* \"#utility.yul\":9613:9635   */\n      mstore\n        /* \"#utility.yul\":9403:9641   */\n      pop\n        /* \"#utility.yul\":9360:9641   */\n      pop\n      pop\n      jump\t// out\n        /* \"#utility.yul\":9647:9776   */\n    tag_573:\n        /* \"#utility.yul\":9681:9687   */\n      0x00\n        /* \"#utility.yul\":9708:9728   */\n      tag_737\n      tag_539\n      jump\t// in\n    tag_737:\n        /* \"#utility.yul\":9698:9728   */\n      swap1\n      pop\n        /* \"#utility.yul\":9737:9770   */\n      tag_738\n        /* \"#utility.yul\":9765:9769   */\n      dup3\n        /* \"#utility.yul\":9757:9763   */\n      dup3\n        /* \"#utility.yul\":9737:9770   */\n      tag_572\n      jump\t// in\n    tag_738:\n        /* \"#utility.yul\":9647:9776   */\n      swap2\n      swap1\n      pop\n      jump\t// out\n        /* \"#utility.yul\":9782:10090   */\n    tag_574:\n        /* \"#utility.yul\":9844:9848   */\n      0x00\n        /* \"#utility.yul\":9934:9952   */\n      0xffffffffffffffff\n        /* \"#utility.yul\":9926:9932   */\n      dup3\n        /* \"#utility.yul\":9923:9953   */\n      gt\n        /* \"#utility.yul\":9920:9976   */\n      iszero\n      tag_740\n      jumpi\n        /* \"#utility.yul\":9956:9974   */\n      tag_741\n      tag_571\n      jump\t// in\n    tag_741:\n        /* \"#utility.yul\":9920:9976   */\n    tag_740:\n        /* \"#utility.yul\":9994:10023   */\n      tag_742\n        /* \"#utility.yul\":10016:10022   */\n      dup3\n        /* \"#utility.yul\":9994:10023   */\n      tag_559\n      jump\t// in\n    tag_742:\n        /* \"#utility.yul\":9986:10023   */\n      swap1\n      pop\n        /* \"#utility.yul\":10078:10082   */\n      0x20\n        /* \"#utility.yul\":10072:10076   */\n      dup2\n        /* \"#utility.yul\":10068:10083   */\n      add\n        /* \"#utility.yul\":10060:10083   */\n      swap1\n      pop\n        /* \"#utility.yul\":9782:10090   */\n      swap2\n      swap1\n      pop\n      jump\t// out\n        /* \"#utility.yul\":10096:10242   */\n    tag_575:\n        /* \"#utility.yul\":10193:10199   */\n      dup3\n        /* \"#utility.yul\":10188:10191   */\n      dup2\n        /* \"#utility.yul\":10183:10186   */\n      dup4\n        /* \"#utility.yul\":10170:10200   */\n      calldatacopy\n        /* \"#utility.yul\":10234:10235   */\n      0x00\n        /* \"#utility.yul\":10225:10231   */\n      dup4\n        /* \"#utility.yul\":10220:10223   */\n      dup4\n        /* \"#utility.yul\":10216:10232   */\n      add\n        /* \"#utility.yul\":10209:10236   */\n      mstore\n        /* \"#utility.yul\":10096:10242   */\n      pop\n      pop\n      pop\n      jump\t// out\n        /* \"#utility.yul\":10248:10673   */\n    tag_576:\n        /* \"#utility.yul\":10326:10331   */\n      0x00\n        /* \"#utility.yul\":10351:10417   */\n      tag_745\n        /* \"#utility.yul\":10367:10416   */\n      tag_746\n        /* \"#utility.yul\":10409:10415   */\n      dup5\n        /* \"#utility.yul\":10367:10416   */\n      tag_574\n      jump\t// in\n    tag_746:\n        /* \"#utility.yul\":10351:10417   */\n      tag_573\n      jump\t// in\n    tag_745:\n        /* \"#utility.yul\":10342:10417   */\n      swap1\n      pop\n        /* \"#utility.yul\":10440:10446   */\n      dup3\n        /* \"#utility.yul\":10433:10438   */\n      dup2\n        /* \"#utility.yul\":10426:10447   */\n      mstore\n        /* \"#utility.yul\":10478:10482   */\n      0x20\n        /* \"#utility.yul\":10471:10476   */\n      dup2\n        /* \"#utility.yul\":10467:10483   */\n      add\n        /* \"#utility.yul\":10516:10519   */\n      dup5\n        /* \"#utility.yul\":10507:10513   */\n      dup5\n        /* \"#utility.yul\":10502:10505   */\n      dup5\n        /* \"#utility.yul\":10498:10514   */\n      add\n        /* \"#utility.yul\":10495:10520   */\n      gt\n        /* \"#utility.yul\":10492:10604   */\n      iszero\n      tag_747\n      jumpi\n        /* \"#utility.yul\":10523:10602   */\n      tag_748\n      tag_570\n      jump\t// in\n    tag_748:\n        /* \"#utility.yul\":10492:10604   */\n    tag_747:\n        /* \"#utility.yul\":10613:10667   */\n      tag_749\n        /* \"#utility.yul\":10660:10666   */\n      dup5\n        /* \"#utility.yul\":10655:10658   */\n      dup3\n        /* \"#utility.yul\":10650:10653   */\n      dup6\n        /* \"#utility.yul\":10613:10667   */\n      tag_575\n      jump\t// in\n    tag_749:\n        /* \"#utility.yul\":10332:10673   */\n      pop\n        /* \"#utility.yul\":10248:10673   */\n      swap4\n      swap3\n      pop\n      pop\n      pop\n      jump\t// out\n        /* \"#utility.yul\":10693:11033   */\n    tag_577:\n        /* \"#utility.yul\":10749:10754   */\n      0x00\n        /* \"#utility.yul\":10798:10801   */\n      dup3\n        /* \"#utility.yul\":10791:10795   */\n      0x1f\n        /* \"#utility.yul\":10783:10789   */\n      dup4\n        /* \"#utility.yul\":10779:10796   */\n      add\n        /* \"#utility.yul\":10775:10802   */\n      slt\n        /* \"#utility.yul\":10765:10887   */\n      tag_751\n      jumpi\n        /* \"#utility.yul\":10806:10885   */\n      tag_752\n      tag_545\n      jump\t// in\n    tag_752:\n        /* \"#utility.yul\":10765:10887   */\n    tag_751:\n        /* \"#utility.yul\":10923:10929   */\n      dup2\n        /* \"#utility.yul\":10910:10930   */\n      calldataload\n        /* \"#utility.yul\":10948:11027   */\n      tag_753\n        /* \"#utility.yul\":11023:11026   */\n      dup5\n        /* \"#utility.yul\":11015:11021   */\n      dup3\n        /* \"#utility.yul\":11008:11012   */\n      0x20\n        /* \"#utility.yul\":11000:11006   */\n      dup7\n        /* \"#utility.yul\":10996:11013   */\n      add\n        /* \"#utility.yul\":10948:11027   */\n      tag_576\n      jump\t// in\n    tag_753:\n        /* \"#utility.yul\":10939:11027   */\n      swap2\n      pop\n        /* \"#utility.yul\":10755:11033   */\n      pop\n        /* \"#utility.yul\":10693:11033   */\n      swap3\n      swap2\n      pop\n      pop\n      jump\t// out\n        /* \"#utility.yul\":11039:11548   */\n    tag_81:\n        /* \"#utility.yul\":11108:11114   */\n      0x00\n        /* \"#utility.yul\":11157:11159   */\n      0x20\n        /* \"#utility.yul\":11145:11154   */\n      dup3\n        /* \"#utility.yul\":11136:11143   */\n      dup5\n        /* \"#utility.yul\":11132:11155   */\n      sub\n        /* \"#utility.yul\":11128:11160   */\n      slt\n        /* \"#utility.yul\":11125:11244   */\n      iszero\n      tag_755\n      jumpi\n        /* \"#utility.yul\":11163:11242   */\n      tag_756\n      tag_540\n      jump\t// in\n    tag_756:\n        /* \"#utility.yul\":11125:11244   */\n    tag_755:\n        /* \"#utility.yul\":11311:11312   */\n      0x00\n        /* \"#utility.yul\":11300:11309   */\n      dup3\n        /* \"#utility.yul\":11296:11313   */\n      add\n        /* \"#utility.yul\":11283:11314   */\n      calldataload\n        /* \"#utility.yul\":11341:11359   */\n      0xffffffffffffffff\n        /* \"#utility.yul\":11333:11339   */\n      dup2\n        /* \"#utility.yul\":11330:11360   */\n      gt\n        /* \"#utility.yul\":11327:11444   */\n      iszero\n      tag_757\n      jumpi\n        /* \"#utility.yul\":11363:11442   */\n      tag_758\n      tag_541\n      jump\t// in\n    tag_758:\n        /* \"#utility.yul\":11327:11444   */\n    tag_757:\n        /* \"#utility.yul\":11468:11531   */\n      tag_759\n        /* \"#utility.yul\":11523:11530   */\n      dup5\n        /* \"#utility.yul\":11514:11520   */\n      dup3\n        /* \"#utility.yul\":11503:11512   */\n      dup6\n        /* \"#utility.yul\":11499:11521   */\n      add\n        /* \"#utility.yul\":11468:11531   */\n      tag_577\n      jump\t// in\n    tag_759:\n        /* \"#utility.yul\":11458:11531   */\n      swap2\n      pop\n        /* \"#utility.yul\":11254:11541   */\n      pop\n        /* \"#utility.yul\":11039:11548   */\n      swap3\n      swap2\n      pop\n      pop\n      jump\t// out\n        /* \"#utility.yul\":11554:11867   */\n    tag_84:\n        /* \"#utility.yul\":11667:11671   */\n      0x00\n        /* \"#utility.yul\":11705:11707   */\n      0x20\n        /* \"#utility.yul\":11694:11703   */\n      dup3\n        /* \"#utility.yul\":11690:11708   */\n      add\n        /* \"#utility.yul\":11682:11708   */\n      swap1\n      pop\n        /* \"#utility.yul\":11754:11763   */\n      dup2\n        /* \"#utility.yul\":11748:11752   */\n      dup2\n        /* \"#utility.yul\":11744:11764   */\n      sub\n        /* \"#utility.yul\":11740:11741   */\n      0x00\n        /* \"#utility.yul\":11729:11738   */\n      dup4\n        /* \"#utility.yul\":11725:11742   */\n      add\n        /* \"#utility.yul\":11718:11765   */\n      mstore\n        /* \"#utility.yul\":11782:11860   */\n      tag_761\n        /* \"#utility.yul\":11855:11859   */\n      dup2\n        /* \"#utility.yul\":11846:11852   */\n      dup5\n        /* \"#utility.yul\":11782:11860   */\n      tag_560\n      jump\t// in\n    tag_761:\n        /* \"#utility.yul\":11774:11860   */\n      swap1\n      pop\n        /* \"#utility.yul\":11554:11867   */\n      swap3\n      swap2\n      pop\n      pop\n      jump\t// out\n        /* \"#utility.yul\":11873:12492   */\n    tag_95:\n        /* \"#utility.yul\":11950:11956   */\n      0x00\n        /* \"#utility.yul\":11958:11964   */\n      dup1\n        /* \"#utility.yul\":11966:11972   */\n      0x00\n        /* \"#utility.yul\":12015:12017   */\n      0x60\n        /* \"#utility.yul\":12003:12012   */\n      dup5\n        /* \"#utility.yul\":11994:12001   */\n      dup7\n        /* \"#utility.yul\":11990:12013   */\n      sub\n        /* \"#utility.yul\":11986:12018   */\n      slt\n        /* \"#utility.yul\":11983:12102   */\n      iszero\n      tag_763\n      jumpi\n        /* \"#utility.yul\":12021:12100   */\n      tag_764\n      tag_540\n      jump\t// in\n    tag_764:\n        /* \"#utility.yul\":11983:12102   */\n    tag_763:\n        /* \"#utility.yul\":12141:12142   */\n      0x00\n        /* \"#utility.yul\":12166:12219   */\n      tag_765\n        /* \"#utility.yul\":12211:12218   */\n      dup7\n        /* \"#utility.yul\":12202:12208   */\n      dup3\n        /* \"#utility.yul\":12191:12200   */\n      dup8\n        /* \"#utility.yul\":12187:12209   */\n      add\n        /* \"#utility.yul\":12166:12219   */\n      tag_563\n      jump\t// in\n    tag_765:\n        /* \"#utility.yul\":12156:12219   */\n      swap4\n      pop\n        /* \"#utility.yul\":12112:12229   */\n      pop\n        /* \"#utility.yul\":12268:12270   */\n      0x20\n        /* \"#utility.yul\":12294:12347   */\n      tag_766\n        /* \"#utility.yul\":12339:12346   */\n      dup7\n        /* \"#utility.yul\":12330:12336   */\n      dup3\n        /* \"#utility.yul\":12319:12328   */\n      dup8\n        /* \"#utility.yul\":12315:12337   */\n      add\n        /* \"#utility.yul\":12294:12347   */\n      tag_544\n      jump\t// in\n    tag_766:\n        /* \"#utility.yul\":12284:12347   */\n      swap3\n      pop\n        /* \"#utility.yul\":12239:12357   */\n      pop\n        /* \"#utility.yul\":12396:12398   */\n      0x40\n        /* \"#utility.yul\":12422:12475   */\n      tag_767\n        /* \"#utility.yul\":12467:12474   */\n      dup7\n        /* \"#utility.yul\":12458:12464   */\n      dup3\n        /* \"#utility.yul\":12447:12456   */\n      dup8\n        /* \"#utility.yul\":12443:12465   */\n      add\n        /* \"#utility.yul\":12422:12475   */\n      tag_544\n      jump\t// in\n    tag_767:\n        /* \"#utility.yul\":12412:12475   */\n      swap2\n      pop\n        /* \"#utility.yul\":12367:12485   */\n      pop\n        /* \"#utility.yul\":11873:12492   */\n      swap3\n      pop\n      swap3\n      pop\n      swap3\n      jump\t// out\n        /* \"#utility.yul\":12498:12588   */\n    tag_578:\n        /* \"#utility.yul\":12532:12539   */\n      0x00\n        /* \"#utility.yul\":12575:12580   */\n      dup2\n        /* \"#utility.yul\":12568:12581   */\n      iszero\n        /* \"#utility.yul\":12561:12582   */\n      iszero\n        /* \"#utility.yul\":12550:12582   */\n      swap1\n      pop\n        /* \"#utility.yul\":12498:12588   */\n      swap2\n      swap1\n      pop\n      jump\t// out\n        /* \"#utility.yul\":12594:12710   */\n    tag_579:\n        /* \"#utility.yul\":12664:12685   */\n      tag_770\n        /* \"#utility.yul\":12679:12684   */\n      dup2\n        /* \"#utility.yul\":12664:12685   */\n      tag_578\n      jump\t// in\n    tag_770:\n        /* \"#utility.yul\":12657:12662   */\n      dup2\n        /* \"#utility.yul\":12654:12686   */\n      eq\n        /* \"#utility.yul\":12644:12704   */\n      tag_771\n      jumpi\n        /* \"#utility.yul\":12700:12701   */\n      0x00\n        /* \"#utility.yul\":12697:12698   */\n      dup1\n        /* \"#utility.yul\":12690:12702   */\n      revert\n        /* \"#utility.yul\":12644:12704   */\n    tag_771:\n        /* \"#utility.yul\":12594:12710   */\n      pop\n      jump\t// out\n        /* \"#utility.yul\":12716:12849   */\n    tag_580:\n        /* \"#utility.yul\":12759:12764   */\n      0x00\n        /* \"#utility.yul\":12797:12803   */\n      dup2\n        /* \"#utility.yul\":12784:12804   */\n      calldataload\n        /* \"#utility.yul\":12775:12804   */\n      swap1\n      pop\n        /* \"#utility.yul\":12813:12843   */\n      tag_773\n        /* \"#utility.yul\":12837:12842   */\n      dup2\n        /* \"#utility.yul\":12813:12843   */\n      tag_579\n      jump\t// in\n    tag_773:\n        /* \"#utility.yul\":12716:12849   */\n      swap3\n      swap2\n      pop\n      pop\n      jump\t// out\n        /* \"#utility.yul\":12855:13323   */\n    tag_100:\n        /* \"#utility.yul\":12920:12926   */\n      0x00\n        /* \"#utility.yul\":12928:12934   */\n      dup1\n        /* \"#utility.yul\":12977:12979   */\n      0x40\n        /* \"#utility.yul\":12965:12974   */\n      dup4\n        /* \"#utility.yul\":12956:12963   */\n      dup6\n        /* \"#utility.yul\":12952:12975   */\n      sub\n        /* \"#utility.yul\":12948:12980   */\n      slt\n        /* \"#utility.yul\":12945:13064   */\n      iszero\n      tag_775\n      jumpi\n        /* \"#utility.yul\":12983:13062   */\n      tag_776\n      tag_540\n      jump\t// in\n    tag_776:\n        /* \"#utility.yul\":12945:13064   */\n    tag_775:\n        /* \"#utility.yul\":13103:13104   */\n      0x00\n        /* \"#utility.yul\":13128:13178   */\n      tag_777\n        /* \"#utility.yul\":13170:13177   */\n      dup6\n        /* \"#utility.yul\":13161:13167   */\n      dup3\n        /* \"#utility.yul\":13150:13159   */\n      dup7\n        /* \"#utility.yul\":13146:13168   */\n      add\n        /* \"#utility.yul\":13128:13178   */\n      tag_580\n      jump\t// in\n    tag_777:\n        /* \"#utility.yul\":13118:13178   */\n      swap3\n      pop\n        /* \"#utility.yul\":13074:13188   */\n      pop\n        /* \"#utility.yul\":13227:13229   */\n      0x20\n        /* \"#utility.yul\":13253:13306   */\n      tag_778\n        /* \"#utility.yul\":13298:13305   */\n      dup6\n        /* \"#utility.yul\":13289:13295   */\n      dup3\n        /* \"#utility.yul\":13278:13287   */\n      dup7\n        /* \"#utility.yul\":13274:13296   */\n      add\n        /* \"#utility.yul\":13253:13306   */\n      tag_544\n      jump\t// in\n    tag_778:\n        /* \"#utility.yul\":13243:13306   */\n      swap2\n      pop\n        /* \"#utility.yul\":13198:13316   */\n      pop\n        /* \"#utility.yul\":12855:13323   */\n      swap3\n      pop\n      swap3\n      swap1\n      pop\n      jump\t// out\n        /* \"#utility.yul\":13329:13551   */\n    tag_107:\n        /* \"#utility.yul\":13422:13426   */\n      0x00\n        /* \"#utility.yul\":13460:13462   */\n      0x20\n        /* \"#utility.yul\":13449:13458   */\n      dup3\n        /* \"#utility.yul\":13445:13463   */\n      add\n        /* \"#utility.yul\":13437:13463   */\n      swap1\n      pop\n        /* \"#utility.yul\":13473:13544   */\n      tag_780\n        /* \"#utility.yul\":13541:13542   */\n      0x00\n        /* \"#utility.yul\":13530:13539   */\n      dup4\n        /* \"#utility.yul\":13526:13543   */\n      add\n        /* \"#utility.yul\":13517:13523   */\n      dup5\n        /* \"#utility.yul\":13473:13544   */\n      tag_561\n      jump\t// in\n    tag_780:\n        /* \"#utility.yul\":13329:13551   */\n      swap3\n      swap2\n      pop\n      pop\n      jump\t// out\n        /* \"#utility.yul\":13557:14668   */\n    tag_111:\n        /* \"#utility.yul\":13664:13670   */\n      0x00\n        /* \"#utility.yul\":13672:13678   */\n      dup1\n        /* \"#utility.yul\":13680:13686   */\n      0x00\n        /* \"#utility.yul\":13688:13694   */\n      dup1\n        /* \"#utility.yul\":13696:13702   */\n      0x00\n        /* \"#utility.yul\":13704:13710   */\n      dup1\n        /* \"#utility.yul\":13753:13756   */\n      0xa0\n        /* \"#utility.yul\":13741:13750   */\n      dup8\n        /* \"#utility.yul\":13732:13739   */\n      dup10\n        /* \"#utility.yul\":13728:13751   */\n      sub\n        /* \"#utility.yul\":13724:13757   */\n      slt\n        /* \"#utility.yul\":13721:13841   */\n      iszero\n      tag_782\n      jumpi\n        /* \"#utility.yul\":13760:13839   */\n      tag_783\n      tag_540\n      jump\t// in\n    tag_783:\n        /* \"#utility.yul\":13721:13841   */\n    tag_782:\n        /* \"#utility.yul\":13880:13881   */\n      0x00\n        /* \"#utility.yul\":13905:13958   */\n      tag_784\n        /* \"#utility.yul\":13950:13957   */\n      dup10\n        /* \"#utility.yul\":13941:13947   */\n      dup3\n        /* \"#utility.yul\":13930:13939   */\n      dup11\n        /* \"#utility.yul\":13926:13948   */\n      add\n        /* \"#utility.yul\":13905:13958   */\n      tag_544\n      jump\t// in\n    tag_784:\n        /* \"#utility.yul\":13895:13958   */\n      swap7\n      pop\n        /* \"#utility.yul\":13851:13968   */\n      pop\n        /* \"#utility.yul\":14007:14009   */\n      0x20\n        /* \"#utility.yul\":14033:14086   */\n      tag_785\n        /* \"#utility.yul\":14078:14085   */\n      dup10\n        /* \"#utility.yul\":14069:14075   */\n      dup3\n        /* \"#utility.yul\":14058:14067   */\n      dup11\n        /* \"#utility.yul\":14054:14076   */\n      add\n        /* \"#utility.yul\":14033:14086   */\n      tag_544\n      jump\t// in\n    tag_785:\n        /* \"#utility.yul\":14023:14086   */\n      swap6\n      pop\n        /* \"#utility.yul\":13978:14096   */\n      pop\n        /* \"#utility.yul\":14163:14165   */\n      0x40\n        /* \"#utility.yul\":14152:14161   */\n      dup8\n        /* \"#utility.yul\":14148:14166   */\n      add\n        /* \"#utility.yul\":14135:14167   */\n      calldataload\n        /* \"#utility.yul\":14194:14212   */\n      0xffffffffffffffff\n        /* \"#utility.yul\":14186:14192   */\n      dup2\n        /* \"#utility.yul\":14183:14213   */\n      gt\n        /* \"#utility.yul\":14180:14297   */\n      iszero\n      tag_786\n      jumpi\n        /* \"#utility.yul\":14216:14295   */\n      tag_787\n      tag_541\n      jump\t// in\n    tag_787:\n        /* \"#utility.yul\":14180:14297   */\n    tag_786:\n        /* \"#utility.yul\":14329:14394   */\n      tag_788\n        /* \"#utility.yul\":14386:14393   */\n      dup10\n        /* \"#utility.yul\":14377:14383   */\n      dup3\n        /* \"#utility.yul\":14366:14375   */\n      dup11\n        /* \"#utility.yul\":14362:14384   */\n      add\n        /* \"#utility.yul\":14329:14394   */\n      tag_548\n      jump\t// in\n    tag_788:\n        /* \"#utility.yul\":14311:14394   */\n      swap5\n      pop\n      swap5\n      pop\n        /* \"#utility.yul\":14106:14404   */\n      pop\n        /* \"#utility.yul\":14443:14445   */\n      0x60\n        /* \"#utility.yul\":14469:14522   */\n      tag_789\n        /* \"#utility.yul\":14514:14521   */\n      dup10\n        /* \"#utility.yul\":14505:14511   */\n      dup3\n        /* \"#utility.yul\":14494:14503   */\n      dup11\n        /* \"#utility.yul\":14490:14512   */\n      add\n        /* \"#utility.yul\":14469:14522   */\n      tag_544\n      jump\t// in\n    tag_789:\n        /* \"#utility.yul\":14459:14522   */\n      swap3\n      pop\n        /* \"#utility.yul\":14414:14532   */\n      pop\n        /* \"#utility.yul\":14571:14574   */\n      0x80\n        /* \"#utility.yul\":14598:14651   */\n      tag_790\n        /* \"#utility.yul\":14643:14650   */\n      dup10\n        /* \"#utility.yul\":14634:14640   */\n      dup3\n        /* \"#utility.yul\":14623:14632   */\n      dup11\n        /* \"#utility.yul\":14619:14641   */\n      add\n        /* \"#utility.yul\":14598:14651   */\n      tag_563\n      jump\t// in\n    tag_790:\n        /* \"#utility.yul\":14588:14651   */\n      swap2\n      pop\n        /* \"#utility.yul\":14542:14661   */\n      pop\n        /* \"#utility.yul\":13557:14668   */\n      swap3\n      swap6\n      pop\n      swap3\n      swap6\n      pop\n      swap3\n      swap6\n      jump\t// out\n        /* \"#utility.yul\":14674:14896   */\n    tag_117:\n        /* \"#utility.yul\":14767:14771   */\n      0x00\n        /* \"#utility.yul\":14805:14807   */\n      0x20\n        /* \"#utility.yul\":14794:14803   */\n      dup3\n        /* \"#utility.yul\":14790:14808   */\n      add\n        /* \"#utility.yul\":14782:14808   */\n      swap1\n      pop\n        /* \"#utility.yul\":14818:14889   */\n      tag_792\n        /* \"#utility.yul\":14886:14887   */\n      0x00\n        /* \"#utility.yul\":14875:14884   */\n      dup4\n        /* \"#utility.yul\":14871:14888   */\n      add\n        /* \"#utility.yul\":14862:14868   */\n      dup5\n        /* \"#utility.yul\":14818:14889   */\n      tag_551\n      jump\t// in\n    tag_792:\n        /* \"#utility.yul\":14674:14896   */\n      swap3\n      swap2\n      pop\n      pop\n      jump\t// out\n        /* \"#utility.yul\":14902:15847   */\n    tag_120:\n        /* \"#utility.yul\":14998:15004   */\n      0x00\n        /* \"#utility.yul\":15006:15012   */\n      dup1\n        /* \"#utility.yul\":15014:15020   */\n      0x00\n        /* \"#utility.yul\":15022:15028   */\n      dup1\n        /* \"#utility.yul\":15071:15074   */\n      0x80\n        /* \"#utility.yul\":15059:15068   */\n      dup6\n        /* \"#utility.yul\":15050:15057   */\n      dup8\n        /* \"#utility.yul\":15046:15069   */\n      sub\n        /* \"#utility.yul\":15042:15075   */\n      slt\n        /* \"#utility.yul\":15039:15159   */\n      iszero\n      tag_794\n      jumpi\n        /* \"#utility.yul\":15078:15157   */\n      tag_795\n      tag_540\n      jump\t// in\n    tag_795:\n        /* \"#utility.yul\":15039:15159   */\n    tag_794:\n        /* \"#utility.yul\":15198:15199   */\n      0x00\n        /* \"#utility.yul\":15223:15276   */\n      tag_796\n        /* \"#utility.yul\":15268:15275   */\n      dup8\n        /* \"#utility.yul\":15259:15265   */\n      dup3\n        /* \"#utility.yul\":15248:15257   */\n      dup9\n        /* \"#utility.yul\":15244:15266   */\n      add\n        /* \"#utility.yul\":15223:15276   */\n      tag_563\n      jump\t// in\n    tag_796:\n        /* \"#utility.yul\":15213:15276   */\n      swap5\n      pop\n        /* \"#utility.yul\":15169:15286   */\n      pop\n        /* \"#utility.yul\":15325:15327   */\n      0x20\n        /* \"#utility.yul\":15351:15404   */\n      tag_797\n        /* \"#utility.yul\":15396:15403   */\n      dup8\n        /* \"#utility.yul\":15387:15393   */\n      dup3\n        /* \"#utility.yul\":15376:15385   */\n      dup9\n        /* \"#utility.yul\":15372:15394   */\n      add\n        /* \"#utility.yul\":15351:15404   */\n      tag_544\n      jump\t// in\n    tag_797:\n        /* \"#utility.yul\":15341:15404   */\n      swap4\n      pop\n        /* \"#utility.yul\":15296:15414   */\n      pop\n        /* \"#utility.yul\":15453:15455   */\n      0x40\n        /* \"#utility.yul\":15479:15532   */\n      tag_798\n        /* \"#utility.yul\":15524:15531   */\n      dup8\n        /* \"#utility.yul\":15515:15521   */\n      dup3\n        /* \"#utility.yul\":15504:15513   */\n      dup9\n        /* \"#utility.yul\":15500:15522   */\n      add\n        /* \"#utility.yul\":15479:15532   */\n      tag_544\n      jump\t// in\n    tag_798:\n        /* \"#utility.yul\":15469:15532   */\n      swap3\n      pop\n        /* \"#utility.yul\":15424:15542   */\n      pop\n        /* \"#utility.yul\":15609:15611   */\n      0x60\n        /* \"#utility.yul\":15598:15607   */\n      dup6\n        /* \"#utility.yul\":15594:15612   */\n      add\n        /* \"#utility.yul\":15581:15613   */\n      calldataload\n        /* \"#utility.yul\":15640:15658   */\n      0xffffffffffffffff\n        /* \"#utility.yul\":15632:15638   */\n      dup2\n        /* \"#utility.yul\":15629:15659   */\n      gt\n        /* \"#utility.yul\":15626:15743   */\n      iszero\n      tag_799\n      jumpi\n        /* \"#utility.yul\":15662:15741   */\n      tag_800\n      tag_541\n      jump\t// in\n    tag_800:\n        /* \"#utility.yul\":15626:15743   */\n    tag_799:\n        /* \"#utility.yul\":15767:15830   */\n      tag_801\n        /* \"#utility.yul\":15822:15829   */\n      dup8\n        /* \"#utility.yul\":15813:15819   */\n      dup3\n        /* \"#utility.yul\":15802:15811   */\n      dup9\n        /* \"#utility.yul\":15798:15820   */\n      add\n        /* \"#utility.yul\":15767:15830   */\n      tag_577\n      jump\t// in\n    tag_801:\n        /* \"#utility.yul\":15757:15830   */\n      swap2\n      pop\n        /* \"#utility.yul\":15552:15840   */\n      pop\n        /* \"#utility.yul\":14902:15847   */\n      swap3\n      swap6\n      swap2\n      swap5\n      pop\n      swap3\n      pop\n      jump\t// out\n        /* \"#utility.yul\":15853:16507   */\n    tag_125:\n        /* \"#utility.yul\":15931:15937   */\n      0x00\n        /* \"#utility.yul\":15939:15945   */\n      dup1\n        /* \"#utility.yul\":15988:15990   */\n      0x40\n        /* \"#utility.yul\":15976:15985   */\n      dup4\n        /* \"#utility.yul\":15967:15974   */\n      dup6\n        /* \"#utility.yul\":15963:15986   */\n      sub\n        /* \"#utility.yul\":15959:15991   */\n      slt\n        /* \"#utility.yul\":15956:16075   */\n      iszero\n      tag_803\n      jumpi\n        /* \"#utility.yul\":15994:16073   */\n      tag_804\n      tag_540\n      jump\t// in\n    tag_804:\n        /* \"#utility.yul\":15956:16075   */\n    tag_803:\n        /* \"#utility.yul\":16142:16143   */\n      0x00\n        /* \"#utility.yul\":16131:16140   */\n      dup4\n        /* \"#utility.yul\":16127:16144   */\n      add\n        /* \"#utility.yul\":16114:16145   */\n      calldataload\n        /* \"#utility.yul\":16172:16190   */\n      0xffffffffffffffff\n        /* \"#utility.yul\":16164:16170   */\n      dup2\n        /* \"#utility.yul\":16161:16191   */\n      gt\n        /* \"#utility.yul\":16158:16275   */\n      iszero\n      tag_805\n      jumpi\n        /* \"#utility.yul\":16194:16273   */\n      tag_806\n      tag_541\n      jump\t// in\n    tag_806:\n        /* \"#utility.yul\":16158:16275   */\n    tag_805:\n        /* \"#utility.yul\":16299:16362   */\n      tag_807\n        /* \"#utility.yul\":16354:16361   */\n      dup6\n        /* \"#utility.yul\":16345:16351   */\n      dup3\n        /* \"#utility.yul\":16334:16343   */\n      dup7\n        /* \"#utility.yul\":16330:16352   */\n      add\n        /* \"#utility.yul\":16299:16362   */\n      tag_577\n      jump\t// in\n    tag_807:\n        /* \"#utility.yul\":16289:16362   */\n      swap3\n      pop\n        /* \"#utility.yul\":16085:16372   */\n      pop\n        /* \"#utility.yul\":16411:16413   */\n      0x20\n        /* \"#utility.yul\":16437:16490   */\n      tag_808\n        /* \"#utility.yul\":16482:16489   */\n      dup6\n        /* \"#utility.yul\":16473:16479   */\n      dup3\n        /* \"#utility.yul\":16462:16471   */\n      dup7\n        /* \"#utility.yul\":16458:16480   */\n      add\n        /* \"#utility.yul\":16437:16490   */\n      tag_563\n      jump\t// in\n    tag_808:\n        /* \"#utility.yul\":16427:16490   */\n      swap2\n      pop\n        /* \"#utility.yul\":16382:16500   */\n      pop\n        /* \"#utility.yul\":15853:16507   */\n      swap3\n      pop\n      swap3\n      swap1\n      pop\n      jump\t// out\n        /* \"#utility.yul\":16513:16842   */\n    tag_130:\n        /* \"#utility.yul\":16572:16578   */\n      0x00\n        /* \"#utility.yul\":16621:16623   */\n      0x20\n        /* \"#utility.yul\":16609:16618   */\n      dup3\n        /* \"#utility.yul\":16600:16607   */\n      dup5\n        /* \"#utility.yul\":16596:16619   */\n      sub\n        /* \"#utility.yul\":16592:16624   */\n      slt\n        /* \"#utility.yul\":16589:16708   */\n      iszero\n      tag_810\n      jumpi\n        /* \"#utility.yul\":16627:16706   */\n      tag_811\n      tag_540\n      jump\t// in\n    tag_811:\n        /* \"#utility.yul\":16589:16708   */\n    tag_810:\n        /* \"#utility.yul\":16747:16748   */\n      0x00\n        /* \"#utility.yul\":16772:16825   */\n      tag_812\n        /* \"#utility.yul\":16817:16824   */\n      dup5\n        /* \"#utility.yul\":16808:16814   */\n      dup3\n        /* \"#utility.yul\":16797:16806   */\n      dup6\n        /* \"#utility.yul\":16793:16815   */\n      add\n        /* \"#utility.yul\":16772:16825   */\n      tag_563\n      jump\t// in\n    tag_812:\n        /* \"#utility.yul\":16762:16825   */\n      swap2\n      pop\n        /* \"#utility.yul\":16718:16835   */\n      pop\n        /* \"#utility.yul\":16513:16842   */\n      swap3\n      swap2\n      pop\n      pop\n      jump\t// out\n        /* \"#utility.yul\":16848:17188   */\n    tag_133:\n        /* \"#utility.yul\":16973:16977   */\n      0x00\n        /* \"#utility.yul\":17011:17013   */\n      0x40\n        /* \"#utility.yul\":17000:17009   */\n      dup3\n        /* \"#utility.yul\":16996:17014   */\n      add\n        /* \"#utility.yul\":16988:17014   */\n      swap1\n      pop\n        /* \"#utility.yul\":17024:17099   */\n      tag_814\n        /* \"#utility.yul\":17096:17097   */\n      0x00\n        /* \"#utility.yul\":17085:17094   */\n      dup4\n        /* \"#utility.yul\":17081:17098   */\n      add\n        /* \"#utility.yul\":17072:17078   */\n      dup6\n        /* \"#utility.yul\":17024:17099   */\n      tag_567\n      jump\t// in\n    tag_814:\n        /* \"#utility.yul\":17109:17181   */\n      tag_815\n        /* \"#utility.yul\":17177:17179   */\n      0x20\n        /* \"#utility.yul\":17166:17175   */\n      dup4\n        /* \"#utility.yul\":17162:17180   */\n      add\n        /* \"#utility.yul\":17153:17159   */\n      dup5\n        /* \"#utility.yul\":17109:17181   */\n      tag_561\n      jump\t// in\n    tag_815:\n        /* \"#utility.yul\":16848:17188   */\n      swap4\n      swap3\n      pop\n      pop\n      pop\n      jump\t// out\n        /* \"#utility.yul\":17194:17959   */\n    tag_151:\n        /* \"#utility.yul\":17280:17286   */\n      0x00\n        /* \"#utility.yul\":17288:17294   */\n      dup1\n        /* \"#utility.yul\":17296:17302   */\n      0x00\n        /* \"#utility.yul\":17304:17310   */\n      dup1\n        /* \"#utility.yul\":17353:17356   */\n      0x80\n        /* \"#utility.yul\":17341:17350   */\n      dup6\n        /* \"#utility.yul\":17332:17339   */\n      dup8\n        /* \"#utility.yul\":17328:17351   */\n      sub\n        /* \"#utility.yul\":17324:17357   */\n      slt\n        /* \"#utility.yul\":17321:17441   */\n      iszero\n      tag_817\n      jumpi\n        /* \"#utility.yul\":17360:17439   */\n      tag_818\n      tag_540\n      jump\t// in\n    tag_818:\n        /* \"#utility.yul\":17321:17441   */\n    tag_817:\n        /* \"#utility.yul\":17480:17481   */\n      0x00\n        /* \"#utility.yul\":17505:17558   */\n      tag_819\n        /* \"#utility.yul\":17550:17557   */\n      dup8\n        /* \"#utility.yul\":17541:17547   */\n      dup3\n        /* \"#utility.yul\":17530:17539   */\n      dup9\n        /* \"#utility.yul\":17526:17548   */\n      add\n        /* \"#utility.yul\":17505:17558   */\n      tag_563\n      jump\t// in\n    tag_819:\n        /* \"#utility.yul\":17495:17558   */\n      swap5\n      pop\n        /* \"#utility.yul\":17451:17568   */\n      pop\n        /* \"#utility.yul\":17607:17609   */\n      0x20\n        /* \"#utility.yul\":17633:17686   */\n      tag_820\n        /* \"#utility.yul\":17678:17685   */\n      dup8\n        /* \"#utility.yul\":17669:17675   */\n      dup3\n        /* \"#utility.yul\":17658:17667   */\n      dup9\n        /* \"#utility.yul\":17654:17676   */\n      add\n        /* \"#utility.yul\":17633:17686   */\n      tag_544\n      jump\t// in\n    tag_820:\n        /* \"#utility.yul\":17623:17686   */\n      swap4\n      pop\n        /* \"#utility.yul\":17578:17696   */\n      pop\n        /* \"#utility.yul\":17735:17737   */\n      0x40\n        /* \"#utility.yul\":17761:17814   */\n      tag_821\n        /* \"#utility.yul\":17806:17813   */\n      dup8\n        /* \"#utility.yul\":17797:17803   */\n      dup3\n        /* \"#utility.yul\":17786:17795   */\n      dup9\n        /* \"#utility.yul\":17782:17804   */\n      add\n        /* \"#utility.yul\":17761:17814   */\n      tag_544\n      jump\t// in\n    tag_821:\n        /* \"#utility.yul\":17751:17814   */\n      swap3\n      pop\n        /* \"#utility.yul\":17706:17824   */\n      pop\n        /* \"#utility.yul\":17863:17865   */\n      0x60\n        /* \"#utility.yul\":17889:17942   */\n      tag_822\n        /* \"#utility.yul\":17934:17941   */\n      dup8\n        /* \"#utility.yul\":17925:17931   */\n      dup3\n        /* \"#utility.yul\":17914:17923   */\n      dup9\n        /* \"#utility.yul\":17910:17932   */\n      add\n        /* \"#utility.yul\":17889:17942   */\n      tag_563\n      jump\t// in\n    tag_822:\n        /* \"#utility.yul\":17879:17942   */\n      swap2\n      pop\n        /* \"#utility.yul\":17834:17952   */\n      pop\n        /* \"#utility.yul\":17194:17959   */\n      swap3\n      swap6\n      swap2\n      swap5\n      pop\n      swap3\n      pop\n      jump\t// out\n        /* \"#utility.yul\":17965:18188   */\n    tag_581:\n        /* \"#utility.yul\":18105:18139   */\n      0x596f757220726f6c6520646f6573206e6f7420616c6c6f772074686973206368\n        /* \"#utility.yul\":18101:18102   */\n      0x00\n        /* \"#utility.yul\":18093:18099   */\n      dup3\n        /* \"#utility.yul\":18089:18103   */\n      add\n        /* \"#utility.yul\":18082:18140   */\n      mstore\n        /* \"#utility.yul\":18174:18180   */\n      0x616e676500000000000000000000000000000000000000000000000000000000\n        /* \"#utility.yul\":18169:18171   */\n      0x20\n        /* \"#utility.yul\":18161:18167   */\n      dup3\n        /* \"#utility.yul\":18157:18172   */\n      add\n        /* \"#utility.yul\":18150:18181   */\n      mstore\n        /* \"#utility.yul\":17965:18188   */\n      pop\n      jump\t// out\n        /* \"#utility.yul\":18194:18560   */\n    tag_582:\n        /* \"#utility.yul\":18336:18339   */\n      0x00\n        /* \"#utility.yul\":18357:18424   */\n      tag_825\n        /* \"#utility.yul\":18421:18423   */\n      0x24\n        /* \"#utility.yul\":18416:18419   */\n      dup4\n        /* \"#utility.yul\":18357:18424   */\n      tag_557\n      jump\t// in\n    tag_825:\n        /* \"#utility.yul\":18350:18424   */\n      swap2\n      pop\n        /* \"#utility.yul\":18433:18526   */\n      tag_826\n        /* \"#utility.yul\":18522:18525   */\n      dup3\n        /* \"#utility.yul\":18433:18526   */\n      tag_581\n      jump\t// in\n    tag_826:\n        /* \"#utility.yul\":18551:18553   */\n      0x40\n        /* \"#utility.yul\":18546:18549   */\n      dup3\n        /* \"#utility.yul\":18542:18554   */\n      add\n        /* \"#utility.yul\":18535:18554   */\n      swap1\n      pop\n        /* \"#utility.yul\":18194:18560   */\n      swap2\n      swap1\n      pop\n      jump\t// out\n        /* \"#utility.yul\":18566:18985   */\n    tag_161:\n        /* \"#utility.yul\":18732:18736   */\n      0x00\n        /* \"#utility.yul\":18770:18772   */\n      0x20\n        /* \"#utility.yul\":18759:18768   */\n      dup3\n        /* \"#utility.yul\":18755:18773   */\n      add\n        /* \"#utility.yul\":18747:18773   */\n      swap1\n      pop\n        /* \"#utility.yul\":18819:18828   */\n      dup2\n        /* \"#utility.yul\":18813:18817   */\n      dup2\n        /* \"#utility.yul\":18809:18829   */\n      sub\n        /* \"#utility.yul\":18805:18806   */\n      0x00\n        /* \"#utility.yul\":18794:18803   */\n      dup4\n        /* \"#utility.yul\":18790:18807   */\n      add\n        /* \"#utility.yul\":18783:18830   */\n      mstore\n        /* \"#utility.yul\":18847:18978   */\n      tag_828\n        /* \"#utility.yul\":18973:18977   */\n      dup2\n        /* \"#utility.yul\":18847:18978   */\n      tag_582\n      jump\t// in\n    tag_828:\n        /* \"#utility.yul\":18839:18978   */\n      swap1\n      pop\n        /* \"#utility.yul\":18566:18985   */\n      swap2\n      swap1\n      pop\n      jump\t// out\n        /* \"#utility.yul\":18991:19212   */\n    tag_583:\n        /* \"#utility.yul\":19131:19165   */\n      0x5468652073686f7020646f6573206e6f74206d61746368207468652073656e64\n        /* \"#utility.yul\":19127:19128   */\n      0x00\n        /* \"#utility.yul\":19119:19125   */\n      dup3\n        /* \"#utility.yul\":19115:19129   */\n      add\n        /* \"#utility.yul\":19108:19166   */\n      mstore\n        /* \"#utility.yul\":19200:19204   */\n      0x6572000000000000000000000000000000000000000000000000000000000000\n        /* \"#utility.yul\":19195:19197   */\n      0x20\n        /* \"#utility.yul\":19187:19193   */\n      dup3\n        /* \"#utility.yul\":19183:19198   */\n      add\n        /* \"#utility.yul\":19176:19205   */\n      mstore\n        /* \"#utility.yul\":18991:19212   */\n      pop\n      jump\t// out\n        /* \"#utility.yul\":19218:19584   */\n    tag_584:\n        /* \"#utility.yul\":19360:19363   */\n      0x00\n        /* \"#utility.yul\":19381:19448   */\n      tag_831\n        /* \"#utility.yul\":19445:19447   */\n      0x22\n        /* \"#utility.yul\":19440:19443   */\n      dup4\n        /* \"#utility.yul\":19381:19448   */\n      tag_557\n      jump\t// in\n    tag_831:\n        /* \"#utility.yul\":19374:19448   */\n      swap2\n      pop\n        /* \"#utility.yul\":19457:19550   */\n      tag_832\n        /* \"#utility.yul\":19546:19549   */\n      dup3\n        /* \"#utility.yul\":19457:19550   */\n      tag_583\n      jump\t// in\n    tag_832:\n        /* \"#utility.yul\":19575:19577   */\n      0x40\n        /* \"#utility.yul\":19570:19573   */\n      dup3\n        /* \"#utility.yul\":19566:19578   */\n      add\n        /* \"#utility.yul\":19559:19578   */\n      swap1\n      pop\n        /* \"#utility.yul\":19218:19584   */\n      swap2\n      swap1\n      pop\n      jump\t// out\n        /* \"#utility.yul\":19590:20009   */\n    tag_164:\n        /* \"#utility.yul\":19756:19760   */\n      0x00\n        /* \"#utility.yul\":19794:19796   */\n      0x20\n        /* \"#utility.yul\":19783:19792   */\n      dup3\n        /* \"#utility.yul\":19779:19797   */\n      add\n        /* \"#utility.yul\":19771:19797   */\n      swap1\n      pop\n        /* \"#utility.yul\":19843:19852   */\n      dup2\n        /* \"#utility.yul\":19837:19841   */\n      dup2\n        /* \"#utility.yul\":19833:19853   */\n      sub\n        /* \"#utility.yul\":19829:19830   */\n      0x00\n        /* \"#utility.yul\":19818:19827   */\n      dup4\n        /* \"#utility.yul\":19814:19831   */\n      add\n        /* \"#utility.yul\":19807:19854   */\n      mstore\n        /* \"#utility.yul\":19871:20002   */\n      tag_834\n        /* \"#utility.yul\":19997:20001   */\n      dup2\n        /* \"#utility.yul\":19871:20002   */\n      tag_584\n      jump\t// in\n    tag_834:\n        /* \"#utility.yul\":19863:20002   */\n      swap1\n      pop\n        /* \"#utility.yul\":19590:20009   */\n      swap2\n      swap1\n      pop\n      jump\t// out\n        /* \"#utility.yul\":20015:20195   */\n    tag_585:\n        /* \"#utility.yul\":20063:20140   */\n      0x4e487b7100000000000000000000000000000000000000000000000000000000\n        /* \"#utility.yul\":20060:20061   */\n      0x00\n        /* \"#utility.yul\":20053:20141   */\n      mstore\n        /* \"#utility.yul\":20160:20164   */\n      0x22\n        /* \"#utility.yul\":20157:20158   */\n      0x04\n        /* \"#utility.yul\":20150:20165   */\n      mstore\n        /* \"#utility.yul\":20184:20188   */\n      0x24\n        /* \"#utility.yul\":20181:20182   */\n      0x00\n        /* \"#utility.yul\":20174:20189   */\n      revert\n        /* \"#utility.yul\":20201:20521   */\n    tag_172:\n        /* \"#utility.yul\":20245:20251   */\n      0x00\n        /* \"#utility.yul\":20282:20283   */\n      0x02\n        /* \"#utility.yul\":20276:20280   */\n      dup3\n        /* \"#utility.yul\":20272:20284   */\n      div\n        /* \"#utility.yul\":20262:20284   */\n      swap1\n      pop\n        /* \"#utility.yul\":20329:20330   */\n      0x01\n        /* \"#utility.yul\":20323:20327   */\n      dup3\n        /* \"#utility.yul\":20319:20331   */\n      and\n        /* \"#utility.yul\":20350:20368   */\n      dup1\n        /* \"#utility.yul\":20340:20421   */\n      tag_837\n      jumpi\n        /* \"#utility.yul\":20406:20410   */\n      0x7f\n        /* \"#utility.yul\":20398:20404   */\n      dup3\n        /* \"#utility.yul\":20394:20411   */\n      and\n        /* \"#utility.yul\":20384:20411   */\n      swap2\n      pop\n        /* \"#utility.yul\":20340:20421   */\n    tag_837:\n        /* \"#utility.yul\":20468:20470   */\n      0x20\n        /* \"#utility.yul\":20460:20466   */\n      dup3\n        /* \"#utility.yul\":20457:20471   */\n      lt\n        /* \"#utility.yul\":20437:20455   */\n      dup2\n        /* \"#utility.yul\":20434:20472   */\n      sub\n        /* \"#utility.yul\":20431:20515   */\n      tag_838\n      jumpi\n        /* \"#utility.yul\":20487:20505   */\n      tag_839\n      tag_585\n      jump\t// in\n    tag_839:\n        /* \"#utility.yul\":20431:20515   */\n    tag_838:\n        /* \"#utility.yul\":20252:20521   */\n      pop\n        /* \"#utility.yul\":20201:20521   */\n      swap2\n      swap1\n      pop\n      jump\t// out\n        /* \"#utility.yul\":20527:20668   */\n    tag_586:\n        /* \"#utility.yul\":20576:20580   */\n      0x00\n        /* \"#utility.yul\":20599:20602   */\n      dup2\n        /* \"#utility.yul\":20591:20602   */\n      swap1\n      pop\n        /* \"#utility.yul\":20622:20625   */\n      dup2\n        /* \"#utility.yul\":20619:20620   */\n      0x00\n        /* \"#utility.yul\":20612:20626   */\n      mstore\n        /* \"#utility.yul\":20656:20660   */\n      0x20\n        /* \"#utility.yul\":20653:20654   */\n      0x00\n        /* \"#utility.yul\":20643:20661   */\n      keccak256\n        /* \"#utility.yul\":20635:20661   */\n      swap1\n      pop\n        /* \"#utility.yul\":20527:20668   */\n      swap2\n      swap1\n      pop\n      jump\t// out\n        /* \"#utility.yul\":20674:20767   */\n    tag_587:\n        /* \"#utility.yul\":20711:20717   */\n      0x00\n        /* \"#utility.yul\":20758:20760   */\n      0x20\n        /* \"#utility.yul\":20753:20755   */\n      0x1f\n        /* \"#utility.yul\":20746:20751   */\n      dup4\n        /* \"#utility.yul\":20742:20756   */\n      add\n        /* \"#utility.yul\":20738:20761   */\n      div\n        /* \"#utility.yul\":20728:20761   */\n      swap1\n      pop\n        /* \"#utility.yul\":20674:20767   */\n      swap2\n      swap1\n      pop\n      jump\t// out\n        /* \"#utility.yul\":20773:20880   */\n    tag_588:\n        /* \"#utility.yul\":20817:20825   */\n      0x00\n        /* \"#utility.yul\":20867:20872   */\n      dup3\n        /* \"#utility.yul\":20861:20865   */\n      dup3\n        /* \"#utility.yul\":20857:20873   */\n      shl\n        /* \"#utility.yul\":20836:20873   */\n      swap1\n      pop\n        /* \"#utility.yul\":20773:20880   */\n      swap3\n      swap2\n      pop\n      pop\n      jump\t// out\n        /* \"#utility.yul\":20886:21279   */\n    tag_589:\n        /* \"#utility.yul\":20955:20961   */\n      0x00\n        /* \"#utility.yul\":21005:21006   */\n      0x08\n        /* \"#utility.yul\":20993:21003   */\n      dup4\n        /* \"#utility.yul\":20989:21007   */\n      mul\n        /* \"#utility.yul\":21028:21125   */\n      tag_844\n        /* \"#utility.yul\":21058:21124   */\n      0xffffffffffffffffffffffffffffffffffffffffffffffffffffffffffffffff\n        /* \"#utility.yul\":21047:21056   */\n      dup3\n        /* \"#utility.yul\":21028:21125   */\n      tag_588\n      jump\t// in\n    tag_844:\n        /* \"#utility.yul\":21146:21185   */\n      tag_845\n        /* \"#utility.yul\":21176:21184   */\n      dup7\n        /* \"#utility.yul\":21165:21174   */\n      dup4\n        /* \"#utility.yul\":21146:21185   */\n      tag_588\n      jump\t// in\n    tag_845:\n        /* \"#utility.yul\":21134:21185   */\n      swap6\n      pop\n        /* \"#utility.yul\":21218:21222   */\n      dup1\n        /* \"#utility.yul\":21214:21223   */\n      not\n        /* \"#utility.yul\":21207:21212   */\n      dup5\n        /* \"#utility.yul\":21203:21224   */\n      and\n        /* \"#utility.yul\":21194:21224   */\n      swap4\n      pop\n        /* \"#utility.yul\":21267:21271   */\n      dup1\n        /* \"#utility.yul\":21257:21265   */\n      dup7\n        /* \"#utility.yul\":21253:21272   */\n      and\n        /* \"#utility.yul\":21246:21251   */\n      dup5\n        /* \"#utility.yul\":21243:21273   */\n      or\n        /* \"#utility.yul\":21233:21273   */\n      swap3\n      pop\n        /* \"#utility.yul\":20962:21279   */\n      pop\n      pop\n        /* \"#utility.yul\":20886:21279   */\n      swap4\n      swap3\n      pop\n      pop\n      pop\n      jump\t// out\n        /* \"#utility.yul\":21285:21345   */\n    tag_590:\n        /* \"#utility.yul\":21313:21316   */\n      0x00\n        /* \"#utility.yul\":21334:21339   */\n      dup2\n        /* \"#utility.yul\":21327:21339   */\n      swap1\n      pop\n        /* \"#utility.yul\":21285:21345   */\n      swap2\n      swap1\n      pop\n      jump\t// out\n        /* \"#utility.yul\":21351:21493   */\n    tag_591:\n        /* \"#utility.yul\":21401:21410   */\n      0x00\n        /* \"#utility.yul\":21434:21487   */\n      tag_848\n        /* \"#utility.yul\":21452:21486   */\n      tag_849\n        /* \"#utility.yul\":21461:21485   */\n      tag_850\n        /* \"#utility.yul\":21479:21484   */\n      dup5\n        /* \"#utility.yul\":21461:21485   */\n      tag_542\n      jump\t// in\n    tag_850:\n        /* \"#utility.yul\":21452:21486   */\n      tag_590\n      jump\t// in\n    tag_849:\n        /* \"#utility.yul\":21434:21487   */\n      tag_542\n      jump\t// in\n    tag_848:\n        /* \"#utility.yul\":21421:21487   */\n      swap1\n      pop\n        /* \"#utility.yul\":21351:21493   */\n      swap2\n      swap1\n      pop\n      jump\t// out\n        /* \"#utility.yul\":21499:21574   */\n    tag_592:\n        /* \"#utility.yul\":21542:21545   */\n      0x00\n        /* \"#utility.yul\":21563:21568   */\n      dup2\n        /* \"#utility.yul\":21556:21568   */\n      swap1\n      pop\n        /* \"#utility.yul\":21499:21574   */\n      swap2\n      swap1\n      pop\n      jump\t// out\n        /* \"#utility.yul\":21580:21849   */\n    tag_593:\n        /* \"#utility.yul\":21690:21729   */\n      tag_853\n        /* \"#utility.yul\":21721:21728   */\n      dup4\n        /* \"#utility.yul\":21690:21729   */\n      tag_591\n      jump\t// in\n    tag_853:\n        /* \"#utility.yul\":21751:21842   */\n      tag_854\n        /* \"#utility.yul\":21800:21841   */\n      tag_855\n        /* \"#utility.yul\":21824:21840   */\n      dup3\n        /* \"#utility.yul\":21800:21841   */\n      tag_592\n      jump\t// in\n    tag_855:\n        /* \"#utility.yul\":21792:21798   */\n      dup5\n        /* \"#utility.yul\":21785:21789   */\n      dup5\n        /* \"#utility.yul\":21779:21790   */\n      sload\n        /* \"#utility.yul\":21751:21842   */\n      tag_589\n      jump\t// in\n    tag_854:\n        /* \"#utility.yul\":21745:21749   */\n      dup3\n        /* \"#utility.yul\":21738:21843   */\n      sstore\n        /* \"#utility.yul\":21656:21849   */\n      pop\n        /* \"#utility.yul\":21580:21849   */\n      pop\n      pop\n      pop\n      jump\t// out\n        /* \"#utility.yul\":21855:21928   */\n    tag_594:\n        /* \"#utility.yul\":21900:21903   */\n      0x00\n        /* \"#utility.yul\":21855:21928   */\n      swap1\n      jump\t// out\n        /* \"#utility.yul\":21934:22123   */\n    tag_595:\n        /* \"#utility.yul\":22011:22043   */\n      tag_858\n      tag_594\n      jump\t// in\n    tag_858:\n        /* \"#utility.yul\":22052:22117   */\n      tag_859\n        /* \"#utility.yul\":22110:22116   */\n      dup2\n        /* \"#utility.yul\":22102:22108   */\n      dup5\n        /* \"#utility.yul\":22096:22100   */\n      dup5\n        /* \"#utility.yul\":22052:22117   */\n      tag_593\n      jump\t// in\n    tag_859:\n        /* \"#utility.yul\":21987:22123   */\n      pop\n        /* \"#utility.yul\":21934:22123   */\n      pop\n      pop\n      jump\t// out\n        /* \"#utility.yul\":22129:22315   */\n    tag_596:\n        /* \"#utility.yul\":22189:22309   */\n    tag_861:\n        /* \"#utility.yul\":22206:22209   */\n      dup2\n        /* \"#utility.yul\":22199:22204   */\n      dup2\n        /* \"#utility.yul\":22196:22210   */\n      lt\n        /* \"#utility.yul\":22189:22309   */\n      iszero\n      tag_863\n      jumpi\n        /* \"#utility.yul\":22260:22299   */\n      tag_864\n        /* \"#utility.yul\":22297:22298   */\n      0x00\n        /* \"#utility.yul\":22290:22295   */\n      dup3\n        /* \"#utility.yul\":22260:22299   */\n      tag_595\n      jump\t// in\n    tag_864:\n        /* \"#utility.yul\":22233:22234   */\n      0x01\n        /* \"#utility.yul\":22226:22231   */\n      dup2\n        /* \"#utility.yul\":22222:22235   */\n      add\n        /* \"#utility.yul\":22213:22235   */\n      swap1\n      pop\n        /* \"#utility.yul\":22189:22309   */\n      jump(tag_861)\n    tag_863:\n        /* \"#utility.yul\":22129:22315   */\n      pop\n      pop\n      jump\t// out\n        /* \"#utility.yul\":22321:22864   */\n    tag_597:\n        /* \"#utility.yul\":22422:22424   */\n      0x1f\n        /* \"#utility.yul\":22417:22420   */\n      dup3\n        /* \"#utility.yul\":22414:22425   */\n      gt\n        /* \"#utility.yul\":22411:22857   */\n      iszero\n      tag_866\n      jumpi\n        /* \"#utility.yul\":22456:22494   */\n      tag_867\n        /* \"#utility.yul\":22488:22493   */\n      dup2\n        /* \"#utility.yul\":22456:22494   */\n      tag_586\n      jump\t// in\n    tag_867:\n        /* \"#utility.yul\":22540:22569   */\n      tag_868\n        /* \"#utility.yul\":22558:22568   */\n      dup5\n        /* \"#utility.yul\":22540:22569   */\n      tag_587\n      jump\t// in\n    tag_868:\n        /* \"#utility.yul\":22530:22538   */\n      dup2\n        /* \"#utility.yul\":22526:22570   */\n      add\n        /* \"#utility.yul\":22723:22725   */\n      0x20\n        /* \"#utility.yul\":22711:22721   */\n      dup6\n        /* \"#utility.yul\":22708:22726   */\n      lt\n        /* \"#utility.yul\":22705:22754   */\n      iszero\n      tag_869\n      jumpi\n        /* \"#utility.yul\":22744:22752   */\n      dup2\n        /* \"#utility.yul\":22729:22752   */\n      swap1\n      pop\n        /* \"#utility.yul\":22705:22754   */\n    tag_869:\n        /* \"#utility.yul\":22767:22847   */\n      tag_870\n        /* \"#utility.yul\":22823:22845   */\n      tag_871\n        /* \"#utility.yul\":22841:22844   */\n      dup6\n        /* \"#utility.yul\":22823:22845   */\n      tag_587\n      jump\t// in\n    tag_871:\n        /* \"#utility.yul\":22813:22821   */\n      dup4\n        /* \"#utility.yul\":22809:22846   */\n      add\n        /* \"#utility.yul\":22796:22807   */\n      dup3\n        /* \"#utility.yul\":22767:22847   */\n      tag_596\n      jump\t// in\n    tag_870:\n        /* \"#utility.yul\":22426:22857   */\n      pop\n      pop\n        /* \"#utility.yul\":22411:22857   */\n    tag_866:\n        /* \"#utility.yul\":22321:22864   */\n      pop\n      pop\n      pop\n      jump\t// out\n        /* \"#utility.yul\":22870:22987   */\n    tag_598:\n        /* \"#utility.yul\":22924:22932   */\n      0x00\n        /* \"#utility.yul\":22974:22979   */\n      dup3\n        /* \"#utility.yul\":22968:22972   */\n      dup3\n        /* \"#utility.yul\":22964:22980   */\n      shr\n        /* \"#utility.yul\":22943:22980   */\n      swap1\n      pop\n        /* \"#utility.yul\":22870:22987   */\n      swap3\n      swap2\n      pop\n      pop\n      jump\t// out\n        /* \"#utility.yul\":22993:23162   */\n    tag_599:\n        /* \"#utility.yul\":23037:23043   */\n      0x00\n        /* \"#utility.yul\":23070:23121   */\n      tag_874\n        /* \"#utility.yul\":23118:23119   */\n      0x00\n        /* \"#utility.yul\":23114:23120   */\n      not\n        /* \"#utility.yul\":23106:23111   */\n      dup5\n        /* \"#utility.yul\":23103:23104   */\n      0x08\n        /* \"#utility.yul\":23099:23112   */\n      mul\n        /* \"#utility.yul\":23070:23121   */\n      tag_598\n      jump\t// in\n    tag_874:\n        /* \"#utility.yul\":23066:23122   */\n      not\n        /* \"#utility.yul\":23151:23155   */\n      dup1\n        /* \"#utility.yul\":23145:23149   */\n      dup4\n        /* \"#utility.yul\":23141:23156   */\n      and\n        /* \"#utility.yul\":23131:23156   */\n      swap2\n      pop\n        /* \"#utility.yul\":23044:23162   */\n      pop\n        /* \"#utility.yul\":22993:23162   */\n      swap3\n      swap2\n      pop\n      pop\n      jump\t// out\n        /* \"#utility.yul\":23167:23462   */\n    tag_600:\n        /* \"#utility.yul\":23243:23247   */\n      0x00\n        /* \"#utility.yul\":23389:23418   */\n      tag_876\n        /* \"#utility.yul\":23414:23417   */\n      dup4\n        /* \"#utility.yul\":23408:23412   */\n      dup4\n        /* \"#utility.yul\":23389:23418   */\n      tag_599\n      jump\t// in\n    tag_876:\n        /* \"#utility.yul\":23381:23418   */\n      swap2\n      pop\n        /* \"#utility.yul\":23451:23454   */\n      dup3\n        /* \"#utility.yul\":23448:23449   */\n      0x02\n        /* \"#utility.yul\":23444:23455   */\n      mul\n        /* \"#utility.yul\":23438:23442   */\n      dup3\n        /* \"#utility.yul\":23435:23456   */\n      or\n        /* \"#utility.yul\":23427:23456   */\n      swap1\n      pop\n        /* \"#utility.yul\":23167:23462   */\n      swap3\n      swap2\n      pop\n      pop\n      jump\t// out\n        /* \"#utility.yul\":23467:24862   */\n    tag_168:\n        /* \"#utility.yul\":23584:23621   */\n      tag_878\n        /* \"#utility.yul\":23617:23620   */\n      dup3\n        /* \"#utility.yul\":23584:23621   */\n      tag_556\n      jump\t// in\n    tag_878:\n        /* \"#utility.yul\":23686:23704   */\n      0xffffffffffffffff\n        /* \"#utility.yul\":23678:23684   */\n      dup2\n        /* \"#utility.yul\":23675:23705   */\n      gt\n        /* \"#utility.yul\":23672:23728   */\n      iszero\n      tag_879\n      jumpi\n        /* \"#utility.yul\":23708:23726   */\n      tag_880\n      tag_571\n      jump\t// in\n    tag_880:\n        /* \"#utility.yul\":23672:23728   */\n    tag_879:\n        /* \"#utility.yul\":23752:23790   */\n      tag_881\n        /* \"#utility.yul\":23784:23788   */\n      dup3\n        /* \"#utility.yul\":23778:23789   */\n      sload\n        /* \"#utility.yul\":23752:23790   */\n      tag_172\n      jump\t// in\n    tag_881:\n        /* \"#utility.yul\":23837:23904   */\n      tag_882\n        /* \"#utility.yul\":23897:23903   */\n      dup3\n        /* \"#utility.yul\":23889:23895   */\n      dup3\n        /* \"#utility.yul\":23883:23887   */\n      dup6\n        /* \"#utility.yul\":23837:23904   */\n      tag_597\n      jump\t// in\n    tag_882:\n        /* \"#utility.yul\":23931:23932   */\n      0x00\n        /* \"#utility.yul\":23955:23959   */\n      0x20\n        /* \"#utility.yul\":23942:23959   */\n      swap1\n      pop\n        /* \"#utility.yul\":23987:23989   */\n      0x1f\n        /* \"#utility.yul\":23979:23985   */\n      dup4\n        /* \"#utility.yul\":23976:23990   */\n      gt\n        /* \"#utility.yul\":24004:24005   */\n      0x01\n        /* \"#utility.yul\":23999:24617   */\n      dup2\n      eq\n      tag_884\n      jumpi\n        /* \"#utility.yul\":24661:24662   */\n      0x00\n        /* \"#utility.yul\":24678:24684   */\n      dup5\n        /* \"#utility.yul\":24675:24752   */\n      iszero\n      tag_885\n      jumpi\n        /* \"#utility.yul\":24727:24736   */\n      dup3\n        /* \"#utility.yul\":24722:24725   */\n      dup8\n        /* \"#utility.yul\":24718:24737   */\n      add\n        /* \"#utility.yul\":24712:24738   */\n      mload\n        /* \"#utility.yul\":24703:24738   */\n      swap1\n      pop\n        /* \"#utility.yul\":24675:24752   */\n    tag_885:\n        /* \"#utility.yul\":24778:24845   */\n      tag_886\n        /* \"#utility.yul\":24838:24844   */\n      dup6\n        /* \"#utility.yul\":24831:24836   */\n      dup3\n        /* \"#utility.yul\":24778:24845   */\n      tag_600\n      jump\t// in\n    tag_886:\n        /* \"#utility.yul\":24772:24776   */\n      dup7\n        /* \"#utility.yul\":24765:24846   */\n      sstore\n        /* \"#utility.yul\":24634:24856   */\n      pop\n        /* \"#utility.yul\":23969:24856   */\n      jump(tag_883)\n        /* \"#utility.yul\":23999:24617   */\n    tag_884:\n        /* \"#utility.yul\":24051:24055   */\n      0x1f\n        /* \"#utility.yul\":24047:24056   */\n      not\n        /* \"#utility.yul\":24039:24045   */\n      dup5\n        /* \"#utility.yul\":24035:24057   */\n      and\n        /* \"#utility.yul\":24085:24122   */\n      tag_887\n        /* \"#utility.yul\":24117:24121   */\n      dup7\n        /* \"#utility.yul\":24085:24122   */\n      tag_586\n      jump\t// in\n    tag_887:\n        /* \"#utility.yul\":24144:24145   */\n      0x00\n        /* \"#utility.yul\":24158:24366   */\n    tag_888:\n        /* \"#utility.yul\":24172:24179   */\n      dup3\n        /* \"#utility.yul\":24169:24170   */\n      dup2\n        /* \"#utility.yul\":24166:24180   */\n      lt\n        /* \"#utility.yul\":24158:24366   */\n      iszero\n      tag_890\n      jumpi\n        /* \"#utility.yul\":24251:24260   */\n      dup5\n        /* \"#utility.yul\":24246:24249   */\n      dup10\n        /* \"#utility.yul\":24242:24261   */\n      add\n        /* \"#utility.yul\":24236:24262   */\n      mload\n        /* \"#utility.yul\":24228:24234   */\n      dup3\n        /* \"#utility.yul\":24221:24263   */\n      sstore\n        /* \"#utility.yul\":24302:24303   */\n      0x01\n        /* \"#utility.yul\":24294:24300   */\n      dup3\n        /* \"#utility.yul\":24290:24304   */\n      add\n        /* \"#utility.yul\":24280:24304   */\n      swap2\n      pop\n        /* \"#utility.yul\":24349:24351   */\n      0x20\n        /* \"#utility.yul\":24338:24347   */\n      dup6\n        /* \"#utility.yul\":24334:24352   */\n      add\n        /* \"#utility.yul\":24321:24352   */\n      swap5\n      pop\n        /* \"#utility.yul\":24195:24199   */\n      0x20\n        /* \"#utility.yul\":24192:24193   */\n      dup2\n        /* \"#utility.yul\":24188:24200   */\n      add\n        /* \"#utility.yul\":24183:24200   */\n      swap1\n      pop\n        /* \"#utility.yul\":24158:24366   */\n      jump(tag_888)\n    tag_890:\n        /* \"#utility.yul\":24394:24400   */\n      dup7\n        /* \"#utility.yul\":24385:24392   */\n      dup4\n        /* \"#utility.yul\":24382:24401   */\n      lt\n        /* \"#utility.yul\":24379:24558   */\n      iszero\n      tag_891\n      jumpi\n        /* \"#utility.yul\":24452:24461   */\n      dup5\n        /* \"#utility.yul\":24447:24450   */\n      dup10\n        /* \"#utility.yul\":24443:24462   */\n      add\n        /* \"#utility.yul\":24437:24463   */\n      mload\n        /* \"#utility.yul\":24495:24543   */\n      tag_892\n        /* \"#utility.yul\":24537:24541   */\n      0x1f\n        /* \"#utility.yul\":24529:24535   */\n      dup10\n        /* \"#utility.yul\":24525:24542   */\n      and\n        /* \"#utility.yul\":24514:24523   */\n      dup3\n        /* \"#utility.yul\":24495:24543   */\n      tag_599\n      jump\t// in\n    tag_892:\n        /* \"#utility.yul\":24487:24493   */\n      dup4\n        /* \"#utility.yul\":24480:24544   */\n      sstore\n        /* \"#utility.yul\":24402:24558   */\n      pop\n        /* \"#utility.yul\":24379:24558   */\n    tag_891:\n        /* \"#utility.yul\":24604:24605   */\n      0x01\n        /* \"#utility.yul\":24600:24601   */\n      0x02\n        /* \"#utility.yul\":24592:24598   */\n      dup9\n        /* \"#utility.yul\":24588:24602   */\n      mul\n        /* \"#utility.yul\":24584:24606   */\n      add\n        /* \"#utility.yul\":24578:24582   */\n      dup9\n        /* \"#utility.yul\":24571:24607   */\n      sstore\n        /* \"#utility.yul\":24006:24617   */\n      pop\n      pop\n      pop\n        /* \"#utility.yul\":23969:24856   */\n    tag_883:\n      pop\n        /* \"#utility.yul\":23559:24862   */\n      pop\n      pop\n      pop\n        /* \"#utility.yul\":23467:24862   */\n      pop\n      pop\n      jump\t// out\n        /* \"#utility.yul\":24868:25048   */\n    tag_199:\n        /* \"#utility.yul\":24916:24993   */\n      0x4e487b7100000000000000000000000000000000000000000000000000000000\n        /* \"#utility.yul\":24913:24914   */\n      0x00\n        /* \"#utility.yul\":24906:24994   */\n      mstore\n        /* \"#utility.yul\":25013:25017   */\n      0x32\n        /* \"#utility.yul\":25010:25011   */\n      0x04\n        /* \"#utility.yul\":25003:25018   */\n      mstore\n        /* \"#utility.yul\":25037:25041   */\n      0x24\n        /* \"#utility.yul\":25034:25035   */\n      0x00\n        /* \"#utility.yul\":25027:25042   */\n      revert\n        /* \"#utility.yul\":25054:25234   */\n    tag_601:\n        /* \"#utility.yul\":25102:25179   */\n      0x4e487b7100000000000000000000000000000000000000000000000000000000\n        /* \"#utility.yul\":25099:25100   */\n      0x00\n        /* \"#utility.yul\":25092:25180   */\n      mstore\n        /* \"#utility.yul\":25199:25203   */\n      0x11\n        /* \"#utility.yul\":25196:25197   */\n      0x04\n        /* \"#utility.yul\":25189:25204   */\n      mstore\n        /* \"#utility.yul\":25223:25227   */\n      0x24\n        /* \"#utility.yul\":25220:25221   */\n      0x00\n        /* \"#utility.yul\":25213:25228   */\n      revert\n        /* \"#utility.yul\":25240:25650   */\n    tag_212:\n        /* \"#utility.yul\":25280:25287   */\n      0x00\n        /* \"#utility.yul\":25303:25323   */\n      tag_896\n        /* \"#utility.yul\":25321:25322   */\n      dup3\n        /* \"#utility.yul\":25303:25323   */\n      tag_542\n      jump\t// in\n    tag_896:\n        /* \"#utility.yul\":25298:25323   */\n      swap2\n      pop\n        /* \"#utility.yul\":25337:25357   */\n      tag_897\n        /* \"#utility.yul\":25355:25356   */\n      dup4\n        /* \"#utility.yul\":25337:25357   */\n      tag_542\n      jump\t// in\n    tag_897:\n        /* \"#utility.yul\":25332:25357   */\n      swap3\n      pop\n        /* \"#utility.yul\":25392:25393   */\n      dup3\n        /* \"#utility.yul\":25389:25390   */\n      dup3\n        /* \"#utility.yul\":25385:25394   */\n      mul\n        /* \"#utility.yul\":25414:25444   */\n      tag_898\n        /* \"#utility.yul\":25432:25443   */\n      dup2\n        /* \"#utility.yul\":25414:25444   */\n      tag_542\n      jump\t// in\n    tag_898:\n        /* \"#utility.yul\":25403:25444   */\n      swap2\n      pop\n        /* \"#utility.yul\":25593:25594   */\n      dup3\n        /* \"#utility.yul\":25584:25591   */\n      dup3\n        /* \"#utility.yul\":25580:25595   */\n      div\n        /* \"#utility.yul\":25577:25578   */\n      dup5\n        /* \"#utility.yul\":25574:25596   */\n      eq\n        /* \"#utility.yul\":25554:25555   */\n      dup4\n        /* \"#utility.yul\":25547:25556   */\n      iszero\n        /* \"#utility.yul\":25527:25610   */\n      or\n        /* \"#utility.yul\":25504:25643   */\n      tag_899\n      jumpi\n        /* \"#utility.yul\":25623:25641   */\n      tag_900\n      tag_601\n      jump\t// in\n    tag_900:\n        /* \"#utility.yul\":25504:25643   */\n    tag_899:\n        /* \"#utility.yul\":25288:25650   */\n      pop\n        /* \"#utility.yul\":25240:25650   */\n      swap3\n      swap2\n      pop\n      pop\n      jump\t// out\n        /* \"#utility.yul\":25656:25847   */\n    tag_221:\n        /* \"#utility.yul\":25696:25699   */\n      0x00\n        /* \"#utility.yul\":25715:25735   */\n      tag_902\n        /* \"#utility.yul\":25733:25734   */\n      dup3\n        /* \"#utility.yul\":25715:25735   */\n      tag_542\n      jump\t// in\n    tag_902:\n        /* \"#utility.yul\":25710:25735   */\n      swap2\n      pop\n        /* \"#utility.yul\":25749:25769   */\n      tag_903\n        /* \"#utility.yul\":25767:25768   */\n      dup4\n        /* \"#utility.yul\":25749:25769   */\n      tag_542\n      jump\t// in\n    tag_903:\n        /* \"#utility.yul\":25744:25769   */\n      swap3\n      pop\n        /* \"#utility.yul\":25792:25793   */\n      dup3\n        /* \"#utility.yul\":25789:25790   */\n      dup3\n        /* \"#utility.yul\":25785:25794   */\n      add\n        /* \"#utility.yul\":25778:25794   */\n      swap1\n      pop\n        /* \"#utility.yul\":25813:25816   */\n      dup1\n        /* \"#utility.yul\":25810:25811   */\n      dup3\n        /* \"#utility.yul\":25807:25817   */\n      gt\n        /* \"#utility.yul\":25804:25840   */\n      iszero\n      tag_904\n      jumpi\n        /* \"#utility.yul\":25820:25838   */\n      tag_905\n      tag_601\n      jump\t// in\n    tag_905:\n        /* \"#utility.yul\":25804:25840   */\n    tag_904:\n        /* \"#utility.yul\":25656:25847   */\n      swap3\n      swap2\n      pop\n      pop\n      jump\t// out\n        /* \"#utility.yul\":25853:26047   */\n    tag_228:\n        /* \"#utility.yul\":25893:25897   */\n      0x00\n        /* \"#utility.yul\":25913:25933   */\n      tag_907\n        /* \"#utility.yul\":25931:25932   */\n      dup3\n        /* \"#utility.yul\":25913:25933   */\n      tag_542\n      jump\t// in\n    tag_907:\n        /* \"#utility.yul\":25908:25933   */\n      swap2\n      pop\n        /* \"#utility.yul\":25947:25967   */\n      tag_908\n        /* \"#utility.yul\":25965:25966   */\n      dup4\n        /* \"#utility.yul\":25947:25967   */\n      tag_542\n      jump\t// in\n    tag_908:\n        /* \"#utility.yul\":25942:25967   */\n      swap3\n      pop\n        /* \"#utility.yul\":25991:25992   */\n      dup3\n        /* \"#utility.yul\":25988:25989   */\n      dup3\n        /* \"#utility.yul\":25984:25993   */\n      sub\n        /* \"#utility.yul\":25976:25993   */\n      swap1\n      pop\n        /* \"#utility.yul\":26015:26016   */\n      dup2\n        /* \"#utility.yul\":26009:26013   */\n      dup2\n        /* \"#utility.yul\":26006:26017   */\n      gt\n        /* \"#utility.yul\":26003:26040   */\n      iszero\n      tag_909\n      jumpi\n        /* \"#utility.yul\":26020:26038   */\n      tag_910\n      tag_601\n      jump\t// in\n    tag_910:\n        /* \"#utility.yul\":26003:26040   */\n    tag_909:\n        /* \"#utility.yul\":25853:26047   */\n      swap3\n      swap2\n      pop\n      pop\n      jump\t// out\n        /* \"#utility.yul\":26053:26139   */\n    tag_602:\n        /* \"#utility.yul\":26088:26095   */\n      0x00\n        /* \"#utility.yul\":26128:26132   */\n      0xff\n        /* \"#utility.yul\":26121:26126   */\n      dup3\n        /* \"#utility.yul\":26117:26133   */\n      and\n        /* \"#utility.yul\":26106:26133   */\n      swap1\n      pop\n        /* \"#utility.yul\":26053:26139   */\n      swap2\n      swap1\n      pop\n      jump\t// out\n        /* \"#utility.yul\":26145:26336   */\n    tag_259:\n        /* \"#utility.yul\":26183:26187   */\n      0x00\n        /* \"#utility.yul\":26203:26221   */\n      tag_913\n        /* \"#utility.yul\":26219:26220   */\n      dup3\n        /* \"#utility.yul\":26203:26221   */\n      tag_602\n      jump\t// in\n    tag_913:\n        /* \"#utility.yul\":26198:26221   */\n      swap2\n      pop\n        /* \"#utility.yul\":26235:26253   */\n      tag_914\n        /* \"#utility.yul\":26251:26252   */\n      dup4\n        /* \"#utility.yul\":26235:26253   */\n      tag_602\n      jump\t// in\n    tag_914:\n        /* \"#utility.yul\":26230:26253   */\n      swap3\n      pop\n        /* \"#utility.yul\":26277:26278   */\n      dup3\n        /* \"#utility.yul\":26274:26275   */\n      dup3\n        /* \"#utility.yul\":26270:26279   */\n      sub\n        /* \"#utility.yul\":26262:26279   */\n      swap1\n      pop\n        /* \"#utility.yul\":26301:26305   */\n      0xff\n        /* \"#utility.yul\":26295:26299   */\n      dup2\n        /* \"#utility.yul\":26292:26306   */\n      gt\n        /* \"#utility.yul\":26289:26329   */\n      iszero\n      tag_915\n      jumpi\n        /* \"#utility.yul\":26309:26327   */\n      tag_916\n      tag_601\n      jump\t// in\n    tag_916:\n        /* \"#utility.yul\":26289:26329   */\n    tag_915:\n        /* \"#utility.yul\":26145:26336   */\n      swap3\n      swap2\n      pop\n      pop\n      jump\t// out\n        /* \"#utility.yul\":26342:26575   */\n    tag_263:\n        /* \"#utility.yul\":26381:26384   */\n      0x00\n        /* \"#utility.yul\":26404:26428   */\n      tag_918\n        /* \"#utility.yul\":26422:26427   */\n      dup3\n        /* \"#utility.yul\":26404:26428   */\n      tag_542\n      jump\t// in\n    tag_918:\n        /* \"#utility.yul\":26395:26428   */\n      swap2\n      pop\n        /* \"#utility.yul\":26450:26516   */\n      0xffffffffffffffffffffffffffffffffffffffffffffffffffffffffffffffff\n        /* \"#utility.yul\":26443:26448   */\n      dup3\n        /* \"#utility.yul\":26440:26517   */\n      sub\n        /* \"#utility.yul\":26437:26540   */\n      tag_919\n      jumpi\n        /* \"#utility.yul\":26520:26538   */\n      tag_920\n      tag_601\n      jump\t// in\n    tag_920:\n        /* \"#utility.yul\":26437:26540   */\n    tag_919:\n        /* \"#utility.yul\":26567:26568   */\n      0x01\n        /* \"#utility.yul\":26560:26565   */\n      dup3\n        /* \"#utility.yul\":26556:26569   */\n      add\n        /* \"#utility.yul\":26549:26569   */\n      swap1\n      pop\n        /* \"#utility.yul\":26342:26575   */\n      swap2\n      swap1\n      pop\n      jump\t// out\n        /* \"#utility.yul\":26581:26806   */\n    tag_603:\n        /* \"#utility.yul\":26721:26755   */\n      0x507572636861736520616d6f756e74206d757374206265206772656174657220\n        /* \"#utility.yul\":26717:26718   */\n      0x00\n        /* \"#utility.yul\":26709:26715   */\n      dup3\n        /* \"#utility.yul\":26705:26719   */\n      add\n        /* \"#utility.yul\":26698:26756   */\n      mstore\n        /* \"#utility.yul\":26790:26798   */\n      0x7468616e20300000000000000000000000000000000000000000000000000000\n        /* \"#utility.yul\":26785:26787   */\n      0x20\n        /* \"#utility.yul\":26777:26783   */\n      dup3\n        /* \"#utility.yul\":26773:26788   */\n      add\n        /* \"#utility.yul\":26766:26799   */\n      mstore\n        /* \"#utility.yul\":26581:26806   */\n      pop\n      jump\t// out\n        /* \"#utility.yul\":26812:27178   */\n    tag_604:\n        /* \"#utility.yul\":26954:26957   */\n      0x00\n        /* \"#utility.yul\":26975:27042   */\n      tag_923\n        /* \"#utility.yul\":27039:27041   */\n      0x26\n        /* \"#utility.yul\":27034:27037   */\n      dup4\n        /* \"#utility.yul\":26975:27042   */\n      tag_557\n      jump\t// in\n    tag_923:\n        /* \"#utility.yul\":26968:27042   */\n      swap2\n      pop\n        /* \"#utility.yul\":27051:27144   */\n      tag_924\n        /* \"#utility.yul\":27140:27143   */\n      dup3\n        /* \"#utility.yul\":27051:27144   */\n      tag_603\n      jump\t// in\n    tag_924:\n        /* \"#utility.yul\":27169:27171   */\n      0x40\n        /* \"#utility.yul\":27164:27167   */\n      dup3\n        /* \"#utility.yul\":27160:27172   */\n      add\n        /* \"#utility.yul\":27153:27172   */\n      swap1\n      pop\n        /* \"#utility.yul\":26812:27178   */\n      swap2\n      swap1\n      pop\n      jump\t// out\n        /* \"#utility.yul\":27184:27603   */\n    tag_292:\n        /* \"#utility.yul\":27350:27354   */\n      0x00\n        /* \"#utility.yul\":27388:27390   */\n      0x20\n        /* \"#utility.yul\":27377:27386   */\n      dup3\n        /* \"#utility.yul\":27373:27391   */\n      add\n        /* \"#utility.yul\":27365:27391   */\n      swap1\n      pop\n        /* \"#utility.yul\":27437:27446   */\n      dup2\n        /* \"#utility.yul\":27431:27435   */\n      dup2\n        /* \"#utility.yul\":27427:27447   */\n      sub\n        /* \"#utility.yul\":27423:27424   */\n      0x00\n        /* \"#utility.yul\":27412:27421   */\n      dup4\n        /* \"#utility.yul\":27408:27425   */\n      add\n        /* \"#utility.yul\":27401:27448   */\n      mstore\n        /* \"#utility.yul\":27465:27596   */\n      tag_926\n        /* \"#utility.yul\":27591:27595   */\n      dup2\n        /* \"#utility.yul\":27465:27596   */\n      tag_604\n      jump\t// in\n    tag_926:\n        /* \"#utility.yul\":27457:27596   */\n      swap1\n      pop\n        /* \"#utility.yul\":27184:27603   */\n      swap2\n      swap1\n      pop\n      jump\t// out\n        /* \"#utility.yul\":27609:27777   */\n    tag_605:\n        /* \"#utility.yul\":27749:27769   */\n      0x496e76616c69642070726f647563742049440000000000000000000000000000\n        /* \"#utility.yul\":27745:27746   */\n      0x00\n        /* \"#utility.yul\":27737:27743   */\n      dup3\n        /* \"#utility.yul\":27733:27747   */\n      add\n        /* \"#utility.yul\":27726:27770   */\n      mstore\n        /* \"#utility.yul\":27609:27777   */\n      pop\n      jump\t// out\n        /* \"#utility.yul\":27783:28149   */\n    tag_606:\n        /* \"#utility.yul\":27925:27928   */\n      0x00\n        /* \"#utility.yul\":27946:28013   */\n      tag_929\n        /* \"#utility.yul\":28010:28012   */\n      0x12\n        /* \"#utility.yul\":28005:28008   */\n      dup4\n        /* \"#utility.yul\":27946:28013   */\n      tag_557\n      jump\t// in\n    tag_929:\n        /* \"#utility.yul\":27939:28013   */\n      swap2\n      pop\n        /* \"#utility.yul\":28022:28115   */\n      tag_930\n        /* \"#utility.yul\":28111:28114   */\n      dup3\n        /* \"#utility.yul\":28022:28115   */\n      tag_605\n      jump\t// in\n    tag_930:\n        /* \"#utility.yul\":28140:28142   */\n      0x20\n        /* \"#utility.yul\":28135:28138   */\n      dup3\n        /* \"#utility.yul\":28131:28143   */\n      add\n        /* \"#utility.yul\":28124:28143   */\n      swap1\n      pop\n        /* \"#utility.yul\":27783:28149   */\n      swap2\n      swap1\n      pop\n      jump\t// out\n        /* \"#utility.yul\":28155:28574   */\n    tag_295:\n        /* \"#utility.yul\":28321:28325   */\n      0x00\n        /* \"#utility.yul\":28359:28361   */\n      0x20\n        /* \"#utility.yul\":28348:28357   */\n      dup3\n        /* \"#utility.yul\":28344:28362   */\n      add\n        /* \"#utility.yul\":28336:28362   */\n      swap1\n      pop\n        /* \"#utility.yul\":28408:28417   */\n      dup2\n        /* \"#utility.yul\":28402:28406   */\n      dup2\n        /* \"#utility.yul\":28398:28418   */\n      sub\n        /* \"#utility.yul\":28394:28395   */\n      0x00\n        /* \"#utility.yul\":28383:28392   */\n      dup4\n        /* \"#utility.yul\":28379:28396   */\n      add\n        /* \"#utility.yul\":28372:28419   */\n      mstore\n        /* \"#utility.yul\":28436:28567   */\n      tag_932\n        /* \"#utility.yul\":28562:28566   */\n      dup2\n        /* \"#utility.yul\":28436:28567   */\n      tag_606\n      jump\t// in\n    tag_932:\n        /* \"#utility.yul\":28428:28567   */\n      swap1\n      pop\n        /* \"#utility.yul\":28155:28574   */\n      swap2\n      swap1\n      pop\n      jump\t// out\n        /* \"#utility.yul\":28580:28759   */\n    tag_607:\n        /* \"#utility.yul\":28748:28752   */\n      0x4141000000000000000000000000000000000000000000000000000000000000\n        /* \"#utility.yul\":28743:28746   */\n      dup2\n        /* \"#utility.yul\":28736:28753   */\n      mstore\n        /* \"#utility.yul\":28580:28759   */\n      pop\n      jump\t// out\n        /* \"#utility.yul\":28765:28913   */\n    tag_608:\n        /* \"#utility.yul\":28867:28878   */\n      0x00\n        /* \"#utility.yul\":28904:28907   */\n      dup2\n        /* \"#utility.yul\":28889:28907   */\n      swap1\n      pop\n        /* \"#utility.yul\":28765:28913   */\n      swap3\n      swap2\n      pop\n      pop\n      jump\t// out\n        /* \"#utility.yul\":28919:29309   */\n    tag_609:\n        /* \"#utility.yul\":29025:29028   */\n      0x00\n        /* \"#utility.yul\":29053:29092   */\n      tag_936\n        /* \"#utility.yul\":29086:29091   */\n      dup3\n        /* \"#utility.yul\":29053:29092   */\n      tag_556\n      jump\t// in\n    tag_936:\n        /* \"#utility.yul\":29108:29197   */\n      tag_937\n        /* \"#utility.yul\":29190:29196   */\n      dup2\n        /* \"#utility.yul\":29185:29188   */\n      dup6\n        /* \"#utility.yul\":29108:29197   */\n      tag_608\n      jump\t// in\n    tag_937:\n        /* \"#utility.yul\":29101:29197   */\n      swap4\n      pop\n        /* \"#utility.yul\":29206:29271   */\n      tag_938\n        /* \"#utility.yul\":29264:29270   */\n      dup2\n        /* \"#utility.yul\":29259:29262   */\n      dup6\n        /* \"#utility.yul\":29252:29256   */\n      0x20\n        /* \"#utility.yul\":29245:29250   */\n      dup7\n        /* \"#utility.yul\":29241:29257   */\n      add\n        /* \"#utility.yul\":29206:29271   */\n      tag_558\n      jump\t// in\n    tag_938:\n        /* \"#utility.yul\":29296:29302   */\n      dup1\n        /* \"#utility.yul\":29291:29294   */\n      dup5\n        /* \"#utility.yul\":29287:29303   */\n      add\n        /* \"#utility.yul\":29280:29303   */\n      swap2\n      pop\n        /* \"#utility.yul\":29029:29309   */\n      pop\n        /* \"#utility.yul\":28919:29309   */\n      swap3\n      swap2\n      pop\n      pop\n      jump\t// out\n        /* \"#utility.yul\":29315:29494   */\n    tag_610:\n        /* \"#utility.yul\":29483:29487   */\n      0x4242000000000000000000000000000000000000000000000000000000000000\n        /* \"#utility.yul\":29478:29481   */\n      dup2\n        /* \"#utility.yul\":29471:29488   */\n      mstore\n        /* \"#utility.yul\":29315:29494   */\n      pop\n      jump\t// out\n        /* \"#utility.yul\":29500:30303   */\n    tag_305:\n        /* \"#utility.yul\":29812:29815   */\n      0x00\n        /* \"#utility.yul\":29827:29964   */\n      tag_941\n        /* \"#utility.yul\":29960:29963   */\n      dup3\n        /* \"#utility.yul\":29827:29964   */\n      tag_607\n      jump\t// in\n    tag_941:\n        /* \"#utility.yul\":29989:29990   */\n      0x02\n        /* \"#utility.yul\":29984:29987   */\n      dup3\n        /* \"#utility.yul\":29980:29991   */\n      add\n        /* \"#utility.yul\":29973:29991   */\n      swap2\n      pop\n        /* \"#utility.yul\":30008:30103   */\n      tag_942\n        /* \"#utility.yul\":30099:30102   */\n      dup3\n        /* \"#utility.yul\":30090:30096   */\n      dup5\n        /* \"#utility.yul\":30008:30103   */\n      tag_609\n      jump\t// in\n    tag_942:\n        /* \"#utility.yul\":30001:30103   */\n      swap2\n      pop\n        /* \"#utility.yul\":30113:30250   */\n      tag_943\n        /* \"#utility.yul\":30246:30249   */\n      dup3\n        /* \"#utility.yul\":30113:30250   */\n      tag_610\n      jump\t// in\n    tag_943:\n        /* \"#utility.yul\":30275:30276   */\n      0x02\n        /* \"#utility.yul\":30270:30273   */\n      dup3\n        /* \"#utility.yul\":30266:30277   */\n      add\n        /* \"#utility.yul\":30259:30277   */\n      swap2\n      pop\n        /* \"#utility.yul\":30294:30297   */\n      dup2\n        /* \"#utility.yul\":30287:30297   */\n      swap1\n      pop\n        /* \"#utility.yul\":29500:30303   */\n      swap3\n      swap2\n      pop\n      pop\n      jump\t// out\n        /* \"#utility.yul\":30309:30388   */\n    tag_611:\n        /* \"#utility.yul\":30348:30355   */\n      0x00\n        /* \"#utility.yul\":30377:30382   */\n      dup2\n        /* \"#utility.yul\":30366:30382   */\n      swap1\n      pop\n        /* \"#utility.yul\":30309:30388   */\n      swap2\n      swap1\n      pop\n      jump\t// out\n        /* \"#utility.yul\":30394:30551   */\n    tag_612:\n        /* \"#utility.yul\":30499:30544   */\n      tag_946\n        /* \"#utility.yul\":30519:30543   */\n      tag_947\n        /* \"#utility.yul\":30537:30542   */\n      dup3\n        /* \"#utility.yul\":30519:30543   */\n      tag_542\n      jump\t// in\n    tag_947:\n        /* \"#utility.yul\":30499:30544   */\n      tag_611\n      jump\t// in\n    tag_946:\n        /* \"#utility.yul\":30494:30497   */\n      dup3\n        /* \"#utility.yul\":30487:30545   */\n      mstore\n        /* \"#utility.yul\":30394:30551   */\n      pop\n      pop\n      jump\t// out\n        /* \"#utility.yul\":30557:30651   */\n    tag_613:\n        /* \"#utility.yul\":30590:30598   */\n      0x00\n        /* \"#utility.yul\":30638:30643   */\n      dup2\n        /* \"#utility.yul\":30634:30636   */\n      0x60\n        /* \"#utility.yul\":30630:30644   */\n      shl\n        /* \"#utility.yul\":30609:30644   */\n      swap1\n      pop\n        /* \"#utility.yul\":30557:30651   */\n      swap2\n      swap1\n      pop\n      jump\t// out\n        /* \"#utility.yul\":30657:30751   */\n    tag_614:\n        /* \"#utility.yul\":30696:30703   */\n      0x00\n        /* \"#utility.yul\":30725:30745   */\n      tag_950\n        /* \"#utility.yul\":30739:30744   */\n      dup3\n        /* \"#utility.yul\":30725:30745   */\n      tag_613\n      jump\t// in\n    tag_950:\n        /* \"#utility.yul\":30714:30745   */\n      swap1\n      pop\n        /* \"#utility.yul\":30657:30751   */\n      swap2\n      swap1\n      pop\n      jump\t// out\n        /* \"#utility.yul\":30757:30857   */\n    tag_615:\n        /* \"#utility.yul\":30796:30803   */\n      0x00\n        /* \"#utility.yul\":30825:30851   */\n      tag_952\n        /* \"#utility.yul\":30845:30850   */\n      dup3\n        /* \"#utility.yul\":30825:30851   */\n      tag_614\n      jump\t// in\n    tag_952:\n        /* \"#utility.yul\":30814:30851   */\n      swap1\n      pop\n        /* \"#utility.yul\":30757:30857   */\n      swap2\n      swap1\n      pop\n      jump\t// out\n        /* \"#utility.yul\":30863:31020   */\n    tag_616:\n        /* \"#utility.yul\":30968:31013   */\n      tag_954\n        /* \"#utility.yul\":30988:31012   */\n      tag_955\n        /* \"#utility.yul\":31006:31011   */\n      dup3\n        /* \"#utility.yul\":30988:31012   */\n      tag_550\n      jump\t// in\n    tag_955:\n        /* \"#utility.yul\":30968:31013   */\n      tag_615\n      jump\t// in\n    tag_954:\n        /* \"#utility.yul\":30963:30966   */\n      dup3\n        /* \"#utility.yul\":30956:31014   */\n      mstore\n        /* \"#utility.yul\":30863:31020   */\n      pop\n      pop\n      jump\t// out\n        /* \"#utility.yul\":31026:31564   */\n    tag_338:\n        /* \"#utility.yul\":31194:31197   */\n      0x00\n        /* \"#utility.yul\":31209:31284   */\n      tag_957\n        /* \"#utility.yul\":31280:31283   */\n      dup3\n        /* \"#utility.yul\":31271:31277   */\n      dup7\n        /* \"#utility.yul\":31209:31284   */\n      tag_612\n      jump\t// in\n    tag_957:\n        /* \"#utility.yul\":31309:31311   */\n      0x20\n        /* \"#utility.yul\":31304:31307   */\n      dup3\n        /* \"#utility.yul\":31300:31312   */\n      add\n        /* \"#utility.yul\":31293:31312   */\n      swap2\n      pop\n        /* \"#utility.yul\":31322:31397   */\n      tag_958\n        /* \"#utility.yul\":31393:31396   */\n      dup3\n        /* \"#utility.yul\":31384:31390   */\n      dup6\n        /* \"#utility.yul\":31322:31397   */\n      tag_616\n      jump\t// in\n    tag_958:\n        /* \"#utility.yul\":31422:31424   */\n      0x14\n        /* \"#utility.yul\":31417:31420   */\n      dup3\n        /* \"#utility.yul\":31413:31425   */\n      add\n        /* \"#utility.yul\":31406:31425   */\n      swap2\n      pop\n        /* \"#utility.yul\":31435:31510   */\n      tag_959\n        /* \"#utility.yul\":31506:31509   */\n      dup3\n        /* \"#utility.yul\":31497:31503   */\n      dup5\n        /* \"#utility.yul\":31435:31510   */\n      tag_612\n      jump\t// in\n    tag_959:\n        /* \"#utility.yul\":31535:31537   */\n      0x20\n        /* \"#utility.yul\":31530:31533   */\n      dup3\n        /* \"#utility.yul\":31526:31538   */\n      add\n        /* \"#utility.yul\":31519:31538   */\n      swap2\n      pop\n        /* \"#utility.yul\":31555:31558   */\n      dup2\n        /* \"#utility.yul\":31548:31558   */\n      swap1\n      pop\n        /* \"#utility.yul\":31026:31564   */\n      swap5\n      swap4\n      pop\n      pop\n      pop\n      pop\n      jump\t// out\n        /* \"#utility.yul\":31570:31750   */\n    tag_617:\n        /* \"#utility.yul\":31618:31695   */\n      0x4e487b7100000000000000000000000000000000000000000000000000000000\n        /* \"#utility.yul\":31615:31616   */\n      0x00\n        /* \"#utility.yul\":31608:31696   */\n      mstore\n        /* \"#utility.yul\":31715:31719   */\n      0x12\n        /* \"#utility.yul\":31712:31713   */\n      0x04\n        /* \"#utility.yul\":31705:31720   */\n      mstore\n        /* \"#utility.yul\":31739:31743   */\n      0x24\n        /* \"#utility.yul\":31736:31737   */\n      0x00\n        /* \"#utility.yul\":31729:31744   */\n      revert\n        /* \"#utility.yul\":31756:31932   */\n    tag_340:\n        /* \"#utility.yul\":31788:31789   */\n      0x00\n        /* \"#utility.yul\":31805:31825   */\n      tag_962\n        /* \"#utility.yul\":31823:31824   */\n      dup3\n        /* \"#utility.yul\":31805:31825   */\n      tag_542\n      jump\t// in\n    tag_962:\n        /* \"#utility.yul\":31800:31825   */\n      swap2\n      pop\n        /* \"#utility.yul\":31839:31859   */\n      tag_963\n        /* \"#utility.yul\":31857:31858   */\n      dup4\n        /* \"#utility.yul\":31839:31859   */\n      tag_542\n      jump\t// in\n    tag_963:\n        /* \"#utility.yul\":31834:31859   */\n      swap3\n      pop\n        /* \"#utility.yul\":31878:31879   */\n      dup3\n        /* \"#utility.yul\":31868:31903   */\n      tag_964\n      jumpi\n        /* \"#utility.yul\":31883:31901   */\n      tag_965\n      tag_617\n      jump\t// in\n    tag_965:\n        /* \"#utility.yul\":31868:31903   */\n    tag_964:\n        /* \"#utility.yul\":31924:31925   */\n      dup3\n        /* \"#utility.yul\":31921:31922   */\n      dup3\n        /* \"#utility.yul\":31917:31926   */\n      mod\n        /* \"#utility.yul\":31912:31926   */\n      swap1\n      pop\n        /* \"#utility.yul\":31756:31932   */\n      swap3\n      swap2\n      pop\n      pop\n      jump\t// out\n        /* \"#utility.yul\":31938:32123   */\n    tag_352:\n        /* \"#utility.yul\":31978:31979   */\n      0x00\n        /* \"#utility.yul\":31995:32015   */\n      tag_967\n        /* \"#utility.yul\":32013:32014   */\n      dup3\n        /* \"#utility.yul\":31995:32015   */\n      tag_542\n      jump\t// in\n    tag_967:\n        /* \"#utility.yul\":31990:32015   */\n      swap2\n      pop\n        /* \"#utility.yul\":32029:32049   */\n      tag_968\n        /* \"#utility.yul\":32047:32048   */\n      dup4\n        /* \"#utility.yul\":32029:32049   */\n      tag_542\n      jump\t// in\n    tag_968:\n        /* \"#utility.yul\":32024:32049   */\n      swap3\n      pop\n        /* \"#utility.yul\":32068:32069   */\n      dup3\n        /* \"#utility.yul\":32058:32093   */\n      tag_969\n      jumpi\n        /* \"#utility.yul\":32073:32091   */\n      tag_970\n      tag_617\n      jump\t// in\n    tag_970:\n        /* \"#utility.yul\":32058:32093   */\n    tag_969:\n        /* \"#utility.yul\":32115:32116   */\n      dup3\n        /* \"#utility.yul\":32112:32113   */\n      dup3\n        /* \"#utility.yul\":32108:32117   */\n      div\n        /* \"#utility.yul\":32103:32117   */\n      swap1\n      pop\n        /* \"#utility.yul\":31938:32123   */\n      swap3\n      swap2\n      pop\n      pop\n      jump\t// out\n        /* \"#utility.yul\":32129:32305   */\n    tag_618:\n        /* \"#utility.yul\":32269:32297   */\n      0x4e6f7420656e6f7567682073746f636b20617661696c61626c65000000000000\n        /* \"#utility.yul\":32265:32266   */\n      0x00\n        /* \"#utility.yul\":32257:32263   */\n      dup3\n        /* \"#utility.yul\":32253:32267   */\n      add\n        /* \"#utility.yul\":32246:32298   */\n      mstore\n        /* \"#utility.yul\":32129:32305   */\n      pop\n      jump\t// out\n        /* \"#utility.yul\":32311:32677   */\n    tag_619:\n        /* \"#utility.yul\":32453:32456   */\n      0x00\n        /* \"#utility.yul\":32474:32541   */\n      tag_973\n        /* \"#utility.yul\":32538:32540   */\n      0x1a\n        /* \"#utility.yul\":32533:32536   */\n      dup4\n        /* \"#utility.yul\":32474:32541   */\n      tag_557\n      jump\t// in\n    tag_973:\n        /* \"#utility.yul\":32467:32541   */\n      swap2\n      pop\n        /* \"#utility.yul\":32550:32643   */\n      tag_974\n        /* \"#utility.yul\":32639:32642   */\n      dup3\n        /* \"#utility.yul\":32550:32643   */\n      tag_618\n      jump\t// in\n    tag_974:\n        /* \"#utility.yul\":32668:32670   */\n      0x20\n        /* \"#utility.yul\":32663:32666   */\n      dup3\n        /* \"#utility.yul\":32659:32671   */\n      add\n        /* \"#utility.yul\":32652:32671   */\n      swap1\n      pop\n        /* \"#utility.yul\":32311:32677   */\n      swap2\n      swap1\n      pop\n      jump\t// out\n        /* \"#utility.yul\":32683:33102   */\n    tag_374:\n        /* \"#utility.yul\":32849:32853   */\n      0x00\n        /* \"#utility.yul\":32887:32889   */\n      0x20\n        /* \"#utility.yul\":32876:32885   */\n      dup3\n        /* \"#utility.yul\":32872:32890   */\n      add\n        /* \"#utility.yul\":32864:32890   */\n      swap1\n      pop\n        /* \"#utility.yul\":32936:32945   */\n      dup2\n        /* \"#utility.yul\":32930:32934   */\n      dup2\n        /* \"#utility.yul\":32926:32946   */\n      sub\n        /* \"#utility.yul\":32922:32923   */\n      0x00\n        /* \"#utility.yul\":32911:32920   */\n      dup4\n        /* \"#utility.yul\":32907:32924   */\n      add\n        /* \"#utility.yul\":32900:32947   */\n      mstore\n        /* \"#utility.yul\":32964:33095   */\n      tag_976\n        /* \"#utility.yul\":33090:33094   */\n      dup2\n        /* \"#utility.yul\":32964:33095   */\n      tag_619\n      jump\t// in\n    tag_976:\n        /* \"#utility.yul\":32956:33095   */\n      swap1\n      pop\n        /* \"#utility.yul\":32683:33102   */\n      swap2\n      swap1\n      pop\n      jump\t// out\n        /* \"#utility.yul\":33108:33383   */\n    tag_381:\n        /* \"#utility.yul\":33240:33243   */\n      0x00\n        /* \"#utility.yul\":33262:33357   */\n      tag_978\n        /* \"#utility.yul\":33353:33356   */\n      dup3\n        /* \"#utility.yul\":33344:33350   */\n      dup5\n        /* \"#utility.yul\":33262:33357   */\n      tag_609\n      jump\t// in\n    tag_978:\n        /* \"#utility.yul\":33255:33357   */\n      swap2\n      pop\n        /* \"#utility.yul\":33374:33377   */\n      dup2\n        /* \"#utility.yul\":33367:33377   */\n      swap1\n      pop\n        /* \"#utility.yul\":33108:33383   */\n      swap3\n      swap2\n      pop\n      pop\n      jump\t// out\n        /* \"#utility.yul\":33389:33562   */\n    tag_620:\n        /* \"#utility.yul\":33529:33554   */\n      0x496e73756666696369656e742066756e64732073656e74000000000000000000\n        /* \"#utility.yul\":33525:33526   */\n      0x00\n        /* \"#utility.yul\":33517:33523   */\n      dup3\n        /* \"#utility.yul\":33513:33527   */\n      add\n        /* \"#utility.yul\":33506:33555   */\n      mstore\n        /* \"#utility.yul\":33389:33562   */\n      pop\n      jump\t// out\n        /* \"#utility.yul\":33568:33934   */\n    tag_621:\n        /* \"#utility.yul\":33710:33713   */\n      0x00\n        /* \"#utility.yul\":33731:33798   */\n      tag_981\n        /* \"#utility.yul\":33795:33797   */\n      0x17\n        /* \"#utility.yul\":33790:33793   */\n      dup4\n        /* \"#utility.yul\":33731:33798   */\n      tag_557\n      jump\t// in\n    tag_981:\n        /* \"#utility.yul\":33724:33798   */\n      swap2\n      pop\n        /* \"#utility.yul\":33807:33900   */\n      tag_982\n        /* \"#utility.yul\":33896:33899   */\n      dup3\n        /* \"#utility.yul\":33807:33900   */\n      tag_620\n      jump\t// in\n    tag_982:\n        /* \"#utility.yul\":33925:33927   */\n      0x20\n        /* \"#utility.yul\":33920:33923   */\n      dup3\n        /* \"#utility.yul\":33916:33928   */\n      add\n        /* \"#utility.yul\":33909:33928   */\n      swap1\n      pop\n        /* \"#utility.yul\":33568:33934   */\n      swap2\n      swap1\n      pop\n      jump\t// out\n        /* \"#utility.yul\":33940:34359   */\n    tag_388:\n        /* \"#utility.yul\":34106:34110   */\n      0x00\n        /* \"#utility.yul\":34144:34146   */\n      0x20\n        /* \"#utility.yul\":34133:34142   */\n      dup3\n        /* \"#utility.yul\":34129:34147   */\n      add\n        /* \"#utility.yul\":34121:34147   */\n      swap1\n      pop\n        /* \"#utility.yul\":34193:34202   */\n      dup2\n        /* \"#utility.yul\":34187:34191   */\n      dup2\n        /* \"#utility.yul\":34183:34203   */\n      sub\n        /* \"#utility.yul\":34179:34180   */\n      0x00\n        /* \"#utility.yul\":34168:34177   */\n      dup4\n        /* \"#utility.yul\":34164:34181   */\n      add\n        /* \"#utility.yul\":34157:34204   */\n      mstore\n        /* \"#utility.yul\":34221:34352   */\n      tag_984\n        /* \"#utility.yul\":34347:34351   */\n      dup2\n        /* \"#utility.yul\":34221:34352   */\n      tag_621\n      jump\t// in\n    tag_984:\n        /* \"#utility.yul\":34213:34352   */\n      swap1\n      pop\n        /* \"#utility.yul\":33940:34359   */\n      swap2\n      swap1\n      pop\n      jump\t// out\n        /* \"#utility.yul\":34365:34512   */\n    tag_622:\n        /* \"#utility.yul\":34466:34477   */\n      0x00\n        /* \"#utility.yul\":34503:34506   */\n      dup2\n        /* \"#utility.yul\":34488:34506   */\n      swap1\n      pop\n        /* \"#utility.yul\":34365:34512   */\n      swap3\n      swap2\n      pop\n      pop\n      jump\t// out\n        /* \"#utility.yul\":34518:34662   */\n    tag_623:\n        /* \"#utility.yul\":34570:34574   */\n      0x00\n        /* \"#utility.yul\":34593:34596   */\n      dup2\n        /* \"#utility.yul\":34585:34596   */\n      swap1\n      pop\n        /* \"#utility.yul\":34616:34619   */\n      dup2\n        /* \"#utility.yul\":34613:34614   */\n      0x00\n        /* \"#utility.yul\":34606:34620   */\n      mstore\n        /* \"#utility.yul\":34650:34654   */\n      0x20\n        /* \"#utility.yul\":34647:34648   */\n      0x00\n        /* \"#utility.yul\":34637:34655   */\n      keccak256\n        /* \"#utility.yul\":34629:34655   */\n      swap1\n      pop\n        /* \"#utility.yul\":34518:34662   */\n      swap2\n      swap1\n      pop\n      jump\t// out\n        /* \"#utility.yul\":34690:35568   */\n    tag_624:\n        /* \"#utility.yul\":34795:34798   */\n      0x00\n        /* \"#utility.yul\":34832:34837   */\n      dup2\n        /* \"#utility.yul\":34826:34838   */\n      sload\n        /* \"#utility.yul\":34861:34897   */\n      tag_988\n        /* \"#utility.yul\":34887:34896   */\n      dup2\n        /* \"#utility.yul\":34861:34897   */\n      tag_172\n      jump\t// in\n    tag_988:\n        /* \"#utility.yul\":34913:35001   */\n      tag_989\n        /* \"#utility.yul\":34994:35000   */\n      dup2\n        /* \"#utility.yul\":34989:34992   */\n      dup7\n        /* \"#utility.yul\":34913:35001   */\n      tag_622\n      jump\t// in\n    tag_989:\n        /* \"#utility.yul\":34906:35001   */\n      swap5\n      pop\n        /* \"#utility.yul\":35032:35033   */\n      0x01\n        /* \"#utility.yul\":35021:35030   */\n      dup3\n        /* \"#utility.yul\":35017:35034   */\n      and\n        /* \"#utility.yul\":35048:35049   */\n      0x00\n        /* \"#utility.yul\":35043:35209   */\n      dup2\n      eq\n      tag_991\n      jumpi\n        /* \"#utility.yul\":35223:35224   */\n      0x01\n        /* \"#utility.yul\":35218:35562   */\n      dup2\n      eq\n      tag_992\n      jumpi\n        /* \"#utility.yul\":35010:35562   */\n      jump(tag_990)\n        /* \"#utility.yul\":35043:35209   */\n    tag_991:\n        /* \"#utility.yul\":35127:35131   */\n      0xff\n        /* \"#utility.yul\":35123:35132   */\n      not\n        /* \"#utility.yul\":35112:35121   */\n      dup4\n        /* \"#utility.yul\":35108:35133   */\n      and\n        /* \"#utility.yul\":35103:35106   */\n      dup7\n        /* \"#utility.yul\":35096:35134   */\n      mstore\n        /* \"#utility.yul\":35189:35195   */\n      dup2\n        /* \"#utility.yul\":35182:35196   */\n      iszero\n        /* \"#utility.yul\":35175:35197   */\n      iszero\n        /* \"#utility.yul\":35167:35173   */\n      dup3\n        /* \"#utility.yul\":35163:35198   */\n      mul\n        /* \"#utility.yul\":35158:35161   */\n      dup7\n        /* \"#utility.yul\":35154:35199   */\n      add\n        /* \"#utility.yul\":35147:35199   */\n      swap4\n      pop\n        /* \"#utility.yul\":35043:35209   */\n      jump(tag_990)\n        /* \"#utility.yul\":35218:35562   */\n    tag_992:\n        /* \"#utility.yul\":35285:35326   */\n      tag_993\n        /* \"#utility.yul\":35320:35325   */\n      dup6\n        /* \"#utility.yul\":35285:35326   */\n      tag_623\n      jump\t// in\n    tag_993:\n        /* \"#utility.yul\":35348:35349   */\n      0x00\n        /* \"#utility.yul\":35362:35516   */\n    tag_994:\n        /* \"#utility.yul\":35376:35382   */\n      dup4\n        /* \"#utility.yul\":35373:35374   */\n      dup2\n        /* \"#utility.yul\":35370:35383   */\n      lt\n        /* \"#utility.yul\":35362:35516   */\n      iszero\n      tag_996\n      jumpi\n        /* \"#utility.yul\":35450:35457   */\n      dup2\n        /* \"#utility.yul\":35444:35458   */\n      sload\n        /* \"#utility.yul\":35440:35441   */\n      dup2\n        /* \"#utility.yul\":35435:35438   */\n      dup10\n        /* \"#utility.yul\":35431:35442   */\n      add\n        /* \"#utility.yul\":35424:35459   */\n      mstore\n        /* \"#utility.yul\":35500:35501   */\n      0x01\n        /* \"#utility.yul\":35491:35498   */\n      dup3\n        /* \"#utility.yul\":35487:35502   */\n      add\n        /* \"#utility.yul\":35476:35502   */\n      swap2\n      pop\n        /* \"#utility.yul\":35398:35402   */\n      0x20\n        /* \"#utility.yul\":35395:35396   */\n      dup2\n        /* \"#utility.yul\":35391:35403   */\n      add\n        /* \"#utility.yul\":35386:35403   */\n      swap1\n      pop\n        /* \"#utility.yul\":35362:35516   */\n      jump(tag_994)\n    tag_996:\n        /* \"#utility.yul\":35545:35551   */\n      dup4\n        /* \"#utility.yul\":35540:35543   */\n      dup9\n        /* \"#utility.yul\":35536:35552   */\n      add\n        /* \"#utility.yul\":35529:35552   */\n      swap6\n      pop\n        /* \"#utility.yul\":35225:35562   */\n      pop\n      pop\n        /* \"#utility.yul\":35010:35562   */\n    tag_990:\n      pop\n        /* \"#utility.yul\":34799:35568   */\n      pop\n      pop\n        /* \"#utility.yul\":34690:35568   */\n      swap3\n      swap2\n      pop\n      pop\n      jump\t// out\n        /* \"#utility.yul\":35574:35847   */\n    tag_396:\n        /* \"#utility.yul\":35705:35708   */\n      0x00\n        /* \"#utility.yul\":35727:35821   */\n      tag_998\n        /* \"#utility.yul\":35817:35820   */\n      dup3\n        /* \"#utility.yul\":35808:35814   */\n      dup5\n        /* \"#utility.yul\":35727:35821   */\n      tag_624\n      jump\t// in\n    tag_998:\n        /* \"#utility.yul\":35720:35821   */\n      swap2\n      pop\n        /* \"#utility.yul\":35838:35841   */\n      dup2\n        /* \"#utility.yul\":35831:35841   */\n      swap1\n      pop\n        /* \"#utility.yul\":35574:35847   */\n      swap3\n      swap2\n      pop\n      pop\n      jump\t// out\n\n    auxdata: 0xa26469706673582212202336fca8dbcf5aa847be338a0d0f5b14d6bc9f39bc0f11e91bb85f9c986c450764736f6c63430008150033\n}\n",
				"bytecode": {
					"linkReferences": {},
					"object": "608060405234801561000f575f80fd5b503360015f6101000a81548173ffffffffffffffffffffffffffffffffffffffff021916908373ffffffffffffffffffffffffffffffffffffffff1602179055506146f88061005d5f395ff3fe608060405260043610610164575f3560e01c80637555bf10116100d0578063a1ba90b611610089578063d55768dd11610063578063d55768dd14610523578063da76af311461055f578063f67a2ad11461057b578063fecd8f79146105a357610164565b8063a1ba90b6146104a8578063a87430ba146104d0578063d18a524a1461050d57610164565b80637555bf10146103ae5780637eb33a58146103d6578063805553e8146103fe578063861c2b6d1461043a5780638da5cb5b146104625780639f1cd5871461048c57610164565b80634f424547116101225780634f4245471461028f57806350b44712146102cf57806355dea0b31461030c57806362dd748c1461033457806366d0dc67146103705780636f7647081461038657610164565b80628de16a146101685780631cc117211461019057806327b90b1b146101d15780633d527883146102115780633dfe7dee14610251578063410085df14610267575b5f80fd5b348015610173575f80fd5b5061018e6004803603810190610189919061345a565b6105bf565b005b34801561019b575f80fd5b506101b660048036038101906101b191906134de565b61084c565b6040516101c896959493929190613654565b60405180910390f35b3480156101dc575f80fd5b506101f760048036038101906101f291906136e4565b610964565b604051610208959493929190613722565b60405180910390f35b34801561021c575f80fd5b50610237600480360381019061023291906136e4565b610a55565b604051610248959493929190613722565b60405180910390f35b34801561025c575f80fd5b50610265610b46565b005b348015610272575f80fd5b5061028d600480360381019061028891906136e4565b610be6565b005b34801561029a575f80fd5b506102b560048036038101906102b091906136e4565b610fa3565b6040516102c6959493929190613722565b60405180910390f35b3480156102da575f80fd5b506102f560048036038101906102f091906134de565b611094565b6040516103039291906137c0565b60405180910390f35b348015610317575f80fd5b50610332600480360381019061032d919061380a565b6110e9565b005b34801561033f575f80fd5b5061035a6004803603810190610355919061395d565b6111c1565b60405161036791906139a4565b60405180910390f35b34801561037b575f80fd5b506103846112be565b005b348015610391575f80fd5b506103ac60048036038101906103a791906134de565b61135f565b005b3480156103b9575f80fd5b506103d460048036038101906103cf91906139c4565b611490565b005b3480156103e1575f80fd5b506103fc60048036038101906103f79190613a49565b611913565b005b348015610409575f80fd5b50610424600480360381019061041f91906134de565b611ade565b6040516104319190613a87565b60405180910390f35b348015610445575f80fd5b50610460600480360381019061045b9190613aa0565b611b2e565b005b34801561046d575f80fd5b50610476611dc8565b6040516104839190613b36565b60405180910390f35b6104a660048036038101906104a19190613b4f565b611ded565b005b3480156104b3575f80fd5b506104ce60048036038101906104c99190613bcf565b612774565b005b3480156104db575f80fd5b506104f660048036038101906104f19190613c29565b61280b565b604051610504929190613c54565b60405180910390f35b348015610518575f80fd5b50610521612837565b005b34801561052e575f80fd5b506105496004803603810190610544919061395d565b6128d7565b6040516105569190613b36565b60405180910390f35b61057960048036038101906105749190613a49565b61291f565b005b348015610586575f80fd5b506105a1600480360381019061059c9190613c29565b612b8a565b005b6105bd60048036038101906105b89190613c7b565b612c11565b005b6001338160028111156105d5576105d4613548565b5b60035f3373ffffffffffffffffffffffffffffffffffffffff1673ffffffffffffffffffffffffffffffffffffffff1681526020019081526020015f205f015f9054906101000a900460ff16600281111561063357610632613548565b5b14610673576040517f08c379a000000000000000000000000000000000000000000000000000000000815260040161066a90613d4f565b60405180910390fd5b8073ffffffffffffffffffffffffffffffffffffffff163373ffffffffffffffffffffffffffffffffffffffff16146106e1576040517f08c379a00000000000000000000000000000000000000000000000000000000081526004016106d890613ddd565b60405180910390fd5b5f6040518060a001604052803373ffffffffffffffffffffffffffffffffffffffff16815260200189815260200188815260200187878080601f0160208091040260200160405190810160405280939291908181526020018383808284375f81840152601f19601f82011690508083019250505050505050815260200185815250905060055f3373ffffffffffffffffffffffffffffffffffffffff1673ffffffffffffffffffffffffffffffffffffffff1681526020019081526020015f2081908060018154018082558091505060019003905f5260205f2090600502015f909190919091505f820151815f015f6101000a81548173ffffffffffffffffffffffffffffffffffffffff021916908373ffffffffffffffffffffffffffffffffffffffff160217905550602082015181600101556040820151816002015560608201518160030190816108359190613ff5565b506080820151816004015550505050505050505050565b6002818154811061085b575f80fd5b905f5260205f2090600502015f91509050805f015f9054906101000a900473ffffffffffffffffffffffffffffffffffffffff1690806001015f9054906101000a900473ffffffffffffffffffffffffffffffffffffffff16908060010160149054906101000a900460ff16908060020180546108d790613e28565b80601f016020809104026020016040519081016040528092919081815260200182805461090390613e28565b801561094e5780601f106109255761010080835404028352916020019161094e565b820191905f5260205f20905b81548152906001019060200180831161093157829003601f168201915b5050505050908060030154908060040154905086565b6006602052815f5260405f20818154811061097d575f80fd5b905f5260205f2090600502015f9150915050805f015f9054906101000a900473ffffffffffffffffffffffffffffffffffffffff16908060010154908060020154908060030180546109ce90613e28565b80601f01602080910402602001604051908101604052809291908181526020018280546109fa90613e28565b8015610a455780601f10610a1c57610100808354040283529160200191610a45565b820191905f5260205f20905b815481529060010190602001808311610a2857829003601f168201915b5050505050908060040154905085565b6004602052815f5260405f208181548110610a6e575f80fd5b905f5260205f2090600502015f9150915050805f015f9054906101000a900473ffffffffffffffffffffffffffffffffffffffff1690806001015490806002015490806003018054610abf90613e28565b80601f0160208091040260200160405190810160405280929190818152602001828054610aeb90613e28565b8015610b365780601f10610b0d57610100808354040283529160200191610b36565b820191905f5260205f20905b815481529060010190602001808311610b1957829003601f168201915b5050505050908060040154905085565b6040518060400160405280600280811115610b6457610b63613548565b5b81526020015f81525060035f3373ffffffffffffffffffffffffffffffffffffffff1673ffffffffffffffffffffffffffffffffffffffff1681526020019081526020015f205f820151815f015f6101000a81548160ff02191690836002811115610bd257610bd1613548565b5b021790555060208201518160010155905050565b60055f8373ffffffffffffffffffffffffffffffffffffffff1673ffffffffffffffffffffffffffffffffffffffff1681526020019081526020015f208181548110610c3557610c346140c4565b5b905f5260205f2090600502016004015460045f3373ffffffffffffffffffffffffffffffffffffffff1673ffffffffffffffffffffffffffffffffffffffff1681526020019081526020015f208281548110610c9457610c936140c4565b5b905f5260205f2090600502016004015411610cad575f80fd5b5f670de0b6b3a764000060055f8573ffffffffffffffffffffffffffffffffffffffff1673ffffffffffffffffffffffffffffffffffffffff1681526020019081526020015f208381548110610d0657610d056140c4565b5b905f5260205f2090600502016002015460045f3373ffffffffffffffffffffffffffffffffffffffff1673ffffffffffffffffffffffffffffffffffffffff1681526020019081526020015f208481548110610d6557610d646140c4565b5b905f5260205f20906005020160010154610d7f919061411e565b610d89919061411e565b905060045f3373ffffffffffffffffffffffffffffffffffffffff1673ffffffffffffffffffffffffffffffffffffffff1681526020019081526020015f208281548110610dda57610dd96140c4565b5b905f5260205f2090600502016001015460055f8573ffffffffffffffffffffffffffffffffffffffff1673ffffffffffffffffffffffffffffffffffffffff1681526020019081526020015f208381548110610e3957610e386140c4565b5b905f5260205f2090600502016001015f828254610e56919061415f565b9250508190555060045f3373ffffffffffffffffffffffffffffffffffffffff1673ffffffffffffffffffffffffffffffffffffffff1681526020019081526020015f208281548110610eac57610eab6140c4565b5b905f5260205f2090600502015f8082015f6101000a81549073ffffffffffffffffffffffffffffffffffffffff0219169055600182015f9055600282015f9055600382015f610efb919061335d565b600482015f905550508060035f8573ffffffffffffffffffffffffffffffffffffffff1673ffffffffffffffffffffffffffffffffffffffff1681526020019081526020015f206001015f828254610f539190614192565b925050819055503373ffffffffffffffffffffffffffffffffffffffff166108fc8290811502906040515f60405180830381858888f19350505050158015610f9d573d5f803e3d5ffd5b50505050565b6005602052815f5260405f208181548110610fbc575f80fd5b905f5260205f2090600502015f9150915050805f015f9054906101000a900473ffffffffffffffffffffffffffffffffffffffff169080600101549080600201549080600301805461100d90613e28565b80601f016020809104026020016040519081016040528092919081815260200182805461103990613e28565b80156110845780601f1061105b57610100808354040283529160200191611084565b820191905f5260205f20905b81548152906001019060200180831161106757829003601f168201915b5050505050908060040154905085565b5f81815481106110a2575f80fd5b905f5260205f20015f91509050805f015f9054906101000a900473ffffffffffffffffffffffffffffffffffffffff1690805f0160149054906101000a900460ff16905082565b5f60405180604001604052803373ffffffffffffffffffffffffffffffffffffffff16815260200183600281111561112457611123613548565b5b815250908060018154018082558091505060019003905f5260205f20015f909190919091505f820151815f015f6101000a81548173ffffffffffffffffffffffffffffffffffffffff021916908373ffffffffffffffffffffffffffffffffffffffff1602179055506020820151815f0160146101000a81548160ff021916908360028111156111b7576111b6613548565b5b0217905550505050565b60605f8290505f5b81518110156112b45760618282815181106111e7576111e66140c4565b5b602001015160f81c60f81b60f81c60ff161015801561122a5750607a828281518110611216576112156140c4565b5b602001015160f81c60f81b60f81c60ff1611155b156112a1576020828281518110611244576112436140c4565b5b602001015160f81c60f81b60f81c61125c91906141d1565b60f81b828281518110611272576112716140c4565b5b60200101907effffffffffffffffffffffffffffffffffffffffffffffffffffffffffffff191690815f1a9053505b80806112ac90614205565b9150506111c9565b5080915050919050565b6040518060400160405280600160028111156112dd576112dc613548565b5b81526020015f81525060035f3373ffffffffffffffffffffffffffffffffffffffff1673ffffffffffffffffffffffffffffffffffffffff1681526020019081526020015f205f820151815f015f6101000a81548160ff0219169083600281111561134b5761134a613548565b5b021790555060208201518160010155905050565b60015f9054906101000a900473ffffffffffffffffffffffffffffffffffffffff1673ffffffffffffffffffffffffffffffffffffffff163373ffffffffffffffffffffffffffffffffffffffff16146113b7575f80fd5b5f8082815481106113cb576113ca6140c4565b5b905f5260205f20015f015f9054906101000a900473ffffffffffffffffffffffffffffffffffffffff1690505f80838154811061140b5761140a6140c4565b5b905f5260205f20015f0160149054906101000a900460ff1690508060035f8473ffffffffffffffffffffffffffffffffffffffff1673ffffffffffffffffffffffffffffffffffffffff1681526020019081526020015f205f015f6101000a81548160ff0219169083600281111561148657611485613548565b5b0217905550505050565b5f338160028111156114a5576114a4613548565b5b60035f3373ffffffffffffffffffffffffffffffffffffffff1673ffffffffffffffffffffffffffffffffffffffff1681526020019081526020015f205f015f9054906101000a900460ff16600281111561150357611502613548565b5b14611543576040517f08c379a000000000000000000000000000000000000000000000000000000000815260040161153a90613d4f565b60405180910390fd5b8073ffffffffffffffffffffffffffffffffffffffff163373ffffffffffffffffffffffffffffffffffffffff16146115b1576040517f08c379a00000000000000000000000000000000000000000000000000000000081526004016115a890613ddd565b60405180910390fd5b5f83116115f3576040517f08c379a00000000000000000000000000000000000000000000000000000000081526004016115ea906142bc565b60405180910390fd5b60055f8673ffffffffffffffffffffffffffffffffffffffff1673ffffffffffffffffffffffffffffffffffffffff1681526020019081526020015f20805490508410611675576040517f08c379a000000000000000000000000000000000000000000000000000000000815260040161166c90614324565b60405180910390fd5b5f60055f8773ffffffffffffffffffffffffffffffffffffffff1673ffffffffffffffffffffffffffffffffffffffff1681526020019081526020015f2085815481106116c5576116c46140c4565b5b905f5260205f20906005020160030180546116df90613e28565b80601f016020809104026020016040519081016040528092919081815260200182805461170b90613e28565b80156117565780601f1061172d57610100808354040283529160200191611756565b820191905f5260205f20905b81548152906001019060200180831161173957829003601f168201915b505050505090505f8160405160200161176f91906143c8565b6040516020818303038152906040529050611789816111c1565b90505f6040518060c001604052803373ffffffffffffffffffffffffffffffffffffffff1681526020018973ffffffffffffffffffffffffffffffffffffffff168152602001600160038111156117e3576117e2613548565b5b8152602001838152602001888152602001878152509050600281908060018154018082558091505060019003905f5260205f2090600502015f909190919091505f820151815f015f6101000a81548173ffffffffffffffffffffffffffffffffffffffff021916908373ffffffffffffffffffffffffffffffffffffffff1602179055506020820151816001015f6101000a81548173ffffffffffffffffffffffffffffffffffffffff021916908373ffffffffffffffffffffffffffffffffffffffff16021790555060408201518160010160146101000a81548160ff021916908360038111156118d8576118d7613548565b5b021790555060608201518160020190816118f29190613ff5565b506080820151816003015560a0820151816004015550505050505050505050565b60013381600281111561192957611928613548565b5b60035f3373ffffffffffffffffffffffffffffffffffffffff1673ffffffffffffffffffffffffffffffffffffffff1681526020019081526020015f205f015f9054906101000a900460ff16600281111561198757611986613548565b5b146119c7576040517f08c379a00000000000000000000000000000000000000000000000000000000081526004016119be90613d4f565b60405180910390fd5b8073ffffffffffffffffffffffffffffffffffffffff163373ffffffffffffffffffffffffffffffffffffffff1614611a35576040517f08c379a0000000000000000000000000000000000000000000000000000000008152600401611a2c90613ddd565b60405180910390fd5b8315611a8c57600160028481548110611a5157611a506140c4565b5b905f5260205f20906005020160010160146101000a81548160ff02191690836003811115611a8257611a81613548565b5b0217905550611ad8565b6002808481548110611aa157611aa06140c4565b5b905f5260205f20906005020160010160146101000a81548160ff02191690836003811115611ad257611ad1613548565b5b02179055505b50505050565b5f808080611aeb90614205565b91505082423383604051602001611b0493929190614461565b604051602081830303815290604052805190602001205f1c611b2691906144ca565b915050919050565b600281816002811115611b4457611b43613548565b5b60035f3373ffffffffffffffffffffffffffffffffffffffff1673ffffffffffffffffffffffffffffffffffffffff1681526020019081526020015f205f015f9054906101000a900460ff166002811115611ba257611ba1613548565b5b14611be2576040517f08c379a0000000000000000000000000000000000000000000000000000000008152600401611bd990613d4f565b60405180910390fd5b8073ffffffffffffffffffffffffffffffffffffffff163373ffffffffffffffffffffffffffffffffffffffff1614611c50576040517f08c379a0000000000000000000000000000000000000000000000000000000008152600401611c4790613ddd565b60405180910390fd5b5f6040518060a001604052808573ffffffffffffffffffffffffffffffffffffffff1681526020018a815260200160028a611c8b91906144fa565b815260200188888080601f0160208091040260200160405190810160405280939291908181526020018383808284375f81840152601f19601f82011690508083019250505050505050815260200186815250905060065f8573ffffffffffffffffffffffffffffffffffffffff1673ffffffffffffffffffffffffffffffffffffffff1681526020019081526020015f2081908060018154018082558091505060019003905f5260205f2090600502015f909190919091505f820151815f015f6101000a81548173ffffffffffffffffffffffffffffffffffffffff021916908373ffffffffffffffffffffffffffffffffffffffff16021790555060208201518160010155604082015181600201556060820151816003019081611db09190613ff5565b50608082015181600401555050505050505050505050565b60015f9054906101000a900473ffffffffffffffffffffffffffffffffffffffff1681565b5f6002811115611e0057611dff613548565b5b60035f3373ffffffffffffffffffffffffffffffffffffffff1673ffffffffffffffffffffffffffffffffffffffff1681526020019081526020015f205f015f9054906101000a900460ff166002811115611e5e57611e5d613548565b5b03611f025760405180604001604052805f6002811115611e8157611e80613548565b5b81526020015f81525060035f3373ffffffffffffffffffffffffffffffffffffffff1673ffffffffffffffffffffffffffffffffffffffff1681526020019081526020015f205f820151815f015f6101000a81548160ff02191690836002811115611eef57611eee613548565b5b0217905550602082015181600101559050505b5f8311611f44576040517f08c379a0000000000000000000000000000000000000000000000000000000008152600401611f3b906142bc565b60405180910390fd5b60055f8573ffffffffffffffffffffffffffffffffffffffff1673ffffffffffffffffffffffffffffffffffffffff1681526020019081526020015f20805490508210611fc6576040517f08c379a0000000000000000000000000000000000000000000000000000000008152600401611fbd90614324565b60405180910390fd5b60055f8573ffffffffffffffffffffffffffffffffffffffff1673ffffffffffffffffffffffffffffffffffffffff1681526020019081526020015f208281548110612015576120146140c4565b5b905f5260205f20906005020160010154831115612067576040517f08c379a000000000000000000000000000000000000000000000000000000000815260040161205e90614574565b60405180910390fd5b5f670de0b6b3a764000060055f8773ffffffffffffffffffffffffffffffffffffffff1673ffffffffffffffffffffffffffffffffffffffff1681526020019081526020015f2084815481106120c0576120bf6140c4565b5b905f5260205f20906005020160020154856120db919061411e565b6120e5919061411e565b90503373ffffffffffffffffffffffffffffffffffffffff1660078360405161210e9190614592565b90815260200160405180910390205f9054906101000a900473ffffffffffffffffffffffffffffffffffffffff1673ffffffffffffffffffffffffffffffffffffffff16036121cf576064605a82612166919061411e565b61217091906144fa565b90505f6007836040516121839190614592565b90815260200160405180910390205f6101000a81548173ffffffffffffffffffffffffffffffffffffffff021916908373ffffffffffffffffffffffffffffffffffffffff1602179055505b80341015612212576040517f08c379a0000000000000000000000000000000000000000000000000000000008152600401612209906145f2565b60405180910390fd5b5f805b60045f3373ffffffffffffffffffffffffffffffffffffffff1673ffffffffffffffffffffffffffffffffffffffff1681526020019081526020015f20805490508110156123d85760045f8873ffffffffffffffffffffffffffffffffffffffff1673ffffffffffffffffffffffffffffffffffffffff1681526020019081526020015f2085815481106122ac576122ab6140c4565b5b905f5260205f2090600502016003016040516122c891906146ac565b604051809103902060045f3373ffffffffffffffffffffffffffffffffffffffff1673ffffffffffffffffffffffffffffffffffffffff1681526020019081526020015f20828154811061231f5761231e6140c4565b5b905f5260205f20906005020160030160405161233b91906146ac565b6040518091039020036123c5578560045f3373ffffffffffffffffffffffffffffffffffffffff1673ffffffffffffffffffffffffffffffffffffffff1681526020019081526020015f208281548110612398576123976140c4565b5b905f5260205f2090600502016001015f8282546123b5919061415f565b92505081905550600191506123d8565b80806123d090614205565b915050612215565b508061264a575f6040518060a001604052803373ffffffffffffffffffffffffffffffffffffffff16815260200187815260200160055f8a73ffffffffffffffffffffffffffffffffffffffff1673ffffffffffffffffffffffffffffffffffffffff1681526020019081526020015f20878154811061245b5761245a6140c4565b5b905f5260205f20906005020160020154815260200160055f8a73ffffffffffffffffffffffffffffffffffffffff1673ffffffffffffffffffffffffffffffffffffffff1681526020019081526020015f2087815481106124bf576124be6140c4565b5b905f5260205f20906005020160030180546124d990613e28565b80601f016020809104026020016040519081016040528092919081815260200182805461250590613e28565b80156125505780601f1061252757610100808354040283529160200191612550565b820191905f5260205f20905b81548152906001019060200180831161253357829003601f168201915b505050505081526020016125656103e8611ade565b815250905060045f3373ffffffffffffffffffffffffffffffffffffffff1673ffffffffffffffffffffffffffffffffffffffff1681526020019081526020015f2081908060018154018082558091505060019003905f5260205f2090600502015f909190919091505f820151815f015f6101000a81548173ffffffffffffffffffffffffffffffffffffffff021916908373ffffffffffffffffffffffffffffffffffffffff1602179055506020820151816001015560408201518160020155606082015181600301908161263b9190613ff5565b50608082015181600401555050505b8460055f8873ffffffffffffffffffffffffffffffffffffffff1673ffffffffffffffffffffffffffffffffffffffff1681526020019081526020015f20858154811061269a576126996140c4565b5b905f5260205f2090600502016001015f8282546126b79190614192565b925050819055508160035f8873ffffffffffffffffffffffffffffffffffffffff1673ffffffffffffffffffffffffffffffffffffffff1681526020019081526020015f206001015f82825461270d919061415f565b925050819055508134111561276c573373ffffffffffffffffffffffffffffffffffffffff166108fc83346127429190614192565b90811502906040515f60405180830381858888f1935050505015801561276a573d5f803e3d5ffd5b505b505050505050565b8073ffffffffffffffffffffffffffffffffffffffff163373ffffffffffffffffffffffffffffffffffffffff16036127ab575f80fd5b806007836040516127bc9190614592565b90815260200160405180910390205f6101000a81548173ffffffffffffffffffffffffffffffffffffffff021916908373ffffffffffffffffffffffffffffffffffffffff1602179055505050565b6003602052805f5260405f205f91509050805f015f9054906101000a900460ff16908060010154905082565b60405180604001604052805f600281111561285557612854613548565b5b81526020015f81525060035f3373ffffffffffffffffffffffffffffffffffffffff1673ffffffffffffffffffffffffffffffffffffffff1681526020019081526020015f205f820151815f015f6101000a81548160ff021916908360028111156128c3576128c2613548565b5b021790555060208201518160010155905050565b6007818051602081018201805184825260208301602085012081835280955050505050505f915054906101000a900473ffffffffffffffffffffffffffffffffffffffff1681565b5f3381600281111561293457612933613548565b5b60035f3373ffffffffffffffffffffffffffffffffffffffff1673ffffffffffffffffffffffffffffffffffffffff1681526020019081526020015f205f015f9054906101000a900460ff16600281111561299257612991613548565b5b146129d2576040517f08c379a00000000000000000000000000000000000000000000000000000000081526004016129c990613d4f565b60405180910390fd5b8073ffffffffffffffffffffffffffffffffffffffff163373ffffffffffffffffffffffffffffffffffffffff1614612a40576040517f08c379a0000000000000000000000000000000000000000000000000000000008152600401612a3790613ddd565b60405180910390fd5b60016003811115612a5457612a53613548565b5b60028481548110612a6857612a676140c4565b5b905f5260205f20906005020160010160149054906101000a900460ff166003811115612a9757612a96613548565b5b14612aa0575f80fd5b8315612b2a57612b2560028481548110612abd57612abc6140c4565b5b905f5260205f2090600502016001015f9054906101000a900473ffffffffffffffffffffffffffffffffffffffff1660028581548110612b0057612aff6140c4565b5b905f5260205f209060050201600401548560405180602001604052805f815250611ded565b612b84565b60026003811115612b3e57612b3d613548565b5b60028481548110612b5257612b516140c4565b5b905f5260205f20906005020160010160149054906101000a900460ff166003811115612b8157612b80613548565b5b50505b50505050565b8073ffffffffffffffffffffffffffffffffffffffff166108fc60035f8473ffffffffffffffffffffffffffffffffffffffff1673ffffffffffffffffffffffffffffffffffffffff1681526020019081526020015f206001015490811502906040515f60405180830381858888f19350505050158015612c0d573d5f803e3d5ffd5b5050565b600184816002811115612c2757612c26613548565b5b60035f3373ffffffffffffffffffffffffffffffffffffffff1673ffffffffffffffffffffffffffffffffffffffff1681526020019081526020015f205f015f9054906101000a900460ff166002811115612c8557612c84613548565b5b14612cc5576040517f08c379a0000000000000000000000000000000000000000000000000000000008152600401612cbc90613d4f565b60405180910390fd5b8073ffffffffffffffffffffffffffffffffffffffff163373ffffffffffffffffffffffffffffffffffffffff1614612d33576040517f08c379a0000000000000000000000000000000000000000000000000000000008152600401612d2a90613ddd565b60405180910390fd5b5f8411612d75576040517f08c379a0000000000000000000000000000000000000000000000000000000008152600401612d6c906142bc565b60405180910390fd5b60065f8473ffffffffffffffffffffffffffffffffffffffff1673ffffffffffffffffffffffffffffffffffffffff1681526020019081526020015f20805490508510612df7576040517f08c379a0000000000000000000000000000000000000000000000000000000008152600401612dee90614324565b60405180910390fd5b5f60065f8573ffffffffffffffffffffffffffffffffffffffff1673ffffffffffffffffffffffffffffffffffffffff1681526020019081526020015f208681548110612e4757612e466140c4565b5b905f5260205f2090600502016002015490505f670de0b6b3a76400008683612e6f919061411e565b612e79919061411e565b905080341015612ebe576040517f08c379a0000000000000000000000000000000000000000000000000000000008152600401612eb5906145f2565b60405180910390fd5b5f60065f8773ffffffffffffffffffffffffffffffffffffffff1673ffffffffffffffffffffffffffffffffffffffff1681526020019081526020015f208881548110612f0e57612f0d6140c4565b5b905f5260205f2090600502016003018054612f2890613e28565b80601f0160208091040260200160405190810160405280929190818152602001828054612f5490613e28565b8015612f9f5780601f10612f7657610100808354040283529160200191612f9f565b820191905f5260205f20905b815481529060010190602001808311612f8257829003601f168201915b505050505090505f805b60055f8c73ffffffffffffffffffffffffffffffffffffffff1673ffffffffffffffffffffffffffffffffffffffff1681526020019081526020015f20805490508110156131015760055f8c73ffffffffffffffffffffffffffffffffffffffff1673ffffffffffffffffffffffffffffffffffffffff1681526020019081526020015f2081815481106130405761303f6140c4565b5b905f5260205f20906005020160030160405161305c91906146ac565b60405180910390208380519060200120036130ee578860055f8d73ffffffffffffffffffffffffffffffffffffffff1673ffffffffffffffffffffffffffffffffffffffff1681526020019081526020015f2082815481106130c1576130c06140c4565b5b905f5260205f2090600502016001015f8282546130de919061415f565b9250508190555060019150613101565b80806130f990614205565b915050612fa9565b5080613285575f6040518060a001604052808973ffffffffffffffffffffffffffffffffffffffff1681526020018a815260200186815260200184815260200160065f8b73ffffffffffffffffffffffffffffffffffffffff1673ffffffffffffffffffffffffffffffffffffffff1681526020019081526020015f208c815481106131905761318f6140c4565b5b905f5260205f20906005020160040154815250905060055f8c73ffffffffffffffffffffffffffffffffffffffff1673ffffffffffffffffffffffffffffffffffffffff1681526020019081526020015f2081908060018154018082558091505060019003905f5260205f2090600502015f909190919091505f820151815f015f6101000a81548173ffffffffffffffffffffffffffffffffffffffff021916908373ffffffffffffffffffffffffffffffffffffffff160217905550602082015181600101556040820151816002015560608201518160030190816132769190613ff5565b50608082015181600401555050505b8760065f8973ffffffffffffffffffffffffffffffffffffffff1673ffffffffffffffffffffffffffffffffffffffff1681526020019081526020015f208a815481106132d5576132d46140c4565b5b905f5260205f2090600502016001015f8282546132f29190614192565b9250508190555082341115613351573373ffffffffffffffffffffffffffffffffffffffff166108fc84346133279190614192565b90811502906040515f60405180830381858888f1935050505015801561334f573d5f803e3d5ffd5b505b50505050505050505050565b50805461336990613e28565b5f825580601f1061337a5750613397565b601f0160209004905f5260205f2090810190613396919061339a565b5b50565b5b808211156133b1575f815f90555060010161339b565b5090565b5f604051905090565b5f80fd5b5f80fd5b5f819050919050565b6133d8816133c6565b81146133e2575f80fd5b50565b5f813590506133f3816133cf565b92915050565b5f80fd5b5f80fd5b5f80fd5b5f8083601f84011261341a576134196133f9565b5b8235905067ffffffffffffffff811115613437576134366133fd565b5b60208301915083600182028301111561345357613452613401565b5b9250929050565b5f805f805f60808688031215613473576134726133be565b5b5f613480888289016133e5565b9550506020613491888289016133e5565b945050604086013567ffffffffffffffff8111156134b2576134b16133c2565b5b6134be88828901613405565b935093505060606134d1888289016133e5565b9150509295509295909350565b5f602082840312156134f3576134f26133be565b5b5f613500848285016133e5565b91505092915050565b5f73ffffffffffffffffffffffffffffffffffffffff82169050919050565b5f61353282613509565b9050919050565b61354281613528565b82525050565b7f4e487b71000000000000000000000000000000000000000000000000000000005f52602160045260245ffd5b6004811061358657613585613548565b5b50565b5f81905061359682613575565b919050565b5f6135a582613589565b9050919050565b6135b58161359b565b82525050565b5f81519050919050565b5f82825260208201905092915050565b5f5b838110156135f25780820151818401526020810190506135d7565b5f8484015250505050565b5f601f19601f8301169050919050565b5f613617826135bb565b61362181856135c5565b93506136318185602086016135d5565b61363a816135fd565b840191505092915050565b61364e816133c6565b82525050565b5f60c0820190506136675f830189613539565b6136746020830188613539565b61368160408301876135ac565b8181036060830152613693818661360d565b90506136a26080830185613645565b6136af60a0830184613645565b979650505050505050565b6136c381613528565b81146136cd575f80fd5b50565b5f813590506136de816136ba565b92915050565b5f80604083850312156136fa576136f96133be565b5b5f613707858286016136d0565b9250506020613718858286016133e5565b9150509250929050565b5f60a0820190506137355f830188613539565b6137426020830187613645565b61374f6040830186613645565b8181036060830152613761818561360d565b90506137706080830184613645565b9695505050505050565b6003811061378b5761378a613548565b5b50565b5f81905061379b8261377a565b919050565b5f6137aa8261378e565b9050919050565b6137ba816137a0565b82525050565b5f6040820190506137d35f830185613539565b6137e060208301846137b1565b9392505050565b600381106137f3575f80fd5b50565b5f81359050613804816137e7565b92915050565b5f6020828403121561381f5761381e6133be565b5b5f61382c848285016137f6565b91505092915050565b5f80fd5b7f4e487b71000000000000000000000000000000000000000000000000000000005f52604160045260245ffd5b61386f826135fd565b810181811067ffffffffffffffff8211171561388e5761388d613839565b5b80604052505050565b5f6138a06133b5565b90506138ac8282613866565b919050565b5f67ffffffffffffffff8211156138cb576138ca613839565b5b6138d4826135fd565b9050602081019050919050565b828183375f83830152505050565b5f6139016138fc846138b1565b613897565b90508281526020810184848401111561391d5761391c613835565b5b6139288482856138e1565b509392505050565b5f82601f830112613944576139436133f9565b5b81356139548482602086016138ef565b91505092915050565b5f60208284031215613972576139716133be565b5b5f82013567ffffffffffffffff81111561398f5761398e6133c2565b5b61399b84828501613930565b91505092915050565b5f6020820190508181035f8301526139bc818461360d565b905092915050565b5f805f606084860312156139db576139da6133be565b5b5f6139e8868287016136d0565b93505060206139f9868287016133e5565b9250506040613a0a868287016133e5565b9150509250925092565b5f8115159050919050565b613a2881613a14565b8114613a32575f80fd5b50565b5f81359050613a4381613a1f565b92915050565b5f8060408385031215613a5f57613a5e6133be565b5b5f613a6c85828601613a35565b9250506020613a7d858286016133e5565b9150509250929050565b5f602082019050613a9a5f830184613645565b92915050565b5f805f805f8060a08789031215613aba57613ab96133be565b5b5f613ac789828a016133e5565b9650506020613ad889828a016133e5565b955050604087013567ffffffffffffffff811115613af957613af86133c2565b5b613b0589828a01613405565b94509450506060613b1889828a016133e5565b9250506080613b2989828a016136d0565b9150509295509295509295565b5f602082019050613b495f830184613539565b92915050565b5f805f8060808587031215613b6757613b666133be565b5b5f613b74878288016136d0565b9450506020613b85878288016133e5565b9350506040613b96878288016133e5565b925050606085013567ffffffffffffffff811115613bb757613bb66133c2565b5b613bc387828801613930565b91505092959194509250565b5f8060408385031215613be557613be46133be565b5b5f83013567ffffffffffffffff811115613c0257613c016133c2565b5b613c0e85828601613930565b9250506020613c1f858286016136d0565b9150509250929050565b5f60208284031215613c3e57613c3d6133be565b5b5f613c4b848285016136d0565b91505092915050565b5f604082019050613c675f8301856137b1565b613c746020830184613645565b9392505050565b5f805f8060808587031215613c9357613c926133be565b5b5f613ca0878288016136d0565b9450506020613cb1878288016133e5565b9350506040613cc2878288016133e5565b9250506060613cd3878288016136d0565b91505092959194509250565b7f596f757220726f6c6520646f6573206e6f7420616c6c6f7720746869732063685f8201527f616e676500000000000000000000000000000000000000000000000000000000602082015250565b5f613d396024836135c5565b9150613d4482613cdf565b604082019050919050565b5f6020820190508181035f830152613d6681613d2d565b9050919050565b7f5468652073686f7020646f6573206e6f74206d61746368207468652073656e645f8201527f6572000000000000000000000000000000000000000000000000000000000000602082015250565b5f613dc76022836135c5565b9150613dd282613d6d565b604082019050919050565b5f6020820190508181035f830152613df481613dbb565b9050919050565b7f4e487b71000000000000000000000000000000000000000000000000000000005f52602260045260245ffd5b5f6002820490506001821680613e3f57607f821691505b602082108103613e5257613e51613dfb565b5b50919050565b5f819050815f5260205f209050919050565b5f6020601f8301049050919050565b5f82821b905092915050565b5f60088302613eb47fffffffffffffffffffffffffffffffffffffffffffffffffffffffffffffffff82613e79565b613ebe8683613e79565b95508019841693508086168417925050509392505050565b5f819050919050565b5f613ef9613ef4613eef846133c6565b613ed6565b6133c6565b9050919050565b5f819050919050565b613f1283613edf565b613f26613f1e82613f00565b848454613e85565b825550505050565b5f90565b613f3a613f2e565b613f45818484613f09565b505050565b5b81811015613f6857613f5d5f82613f32565b600181019050613f4b565b5050565b601f821115613fad57613f7e81613e58565b613f8784613e6a565b81016020851015613f96578190505b613faa613fa285613e6a565b830182613f4a565b50505b505050565b5f82821c905092915050565b5f613fcd5f1984600802613fb2565b1980831691505092915050565b5f613fe58383613fbe565b9150826002028217905092915050565b613ffe826135bb565b67ffffffffffffffff81111561401757614016613839565b5b6140218254613e28565b61402c828285613f6c565b5f60209050601f83116001811461405d575f841561404b578287015190505b6140558582613fda565b8655506140bc565b601f19841661406b86613e58565b5f5b828110156140925784890151825560018201915060208501945060208101905061406d565b868310156140af57848901516140ab601f891682613fbe565b8355505b6001600288020188555050505b505050505050565b7f4e487b71000000000000000000000000000000000000000000000000000000005f52603260045260245ffd5b7f4e487b71000000000000000000000000000000000000000000000000000000005f52601160045260245ffd5b5f614128826133c6565b9150614133836133c6565b9250828202614141816133c6565b91508282048414831517614158576141576140f1565b5b5092915050565b5f614169826133c6565b9150614174836133c6565b925082820190508082111561418c5761418b6140f1565b5b92915050565b5f61419c826133c6565b91506141a7836133c6565b92508282039050818111156141bf576141be6140f1565b5b92915050565b5f60ff82169050919050565b5f6141db826141c5565b91506141e6836141c5565b9250828203905060ff8111156141ff576141fe6140f1565b5b92915050565b5f61420f826133c6565b91507fffffffffffffffffffffffffffffffffffffffffffffffffffffffffffffffff8203614241576142406140f1565b5b600182019050919050565b7f507572636861736520616d6f756e74206d7573742062652067726561746572205f8201527f7468616e20300000000000000000000000000000000000000000000000000000602082015250565b5f6142a66026836135c5565b91506142b18261424c565b604082019050919050565b5f6020820190508181035f8301526142d38161429a565b9050919050565b7f496e76616c69642070726f6475637420494400000000000000000000000000005f82015250565b5f61430e6012836135c5565b9150614319826142da565b602082019050919050565b5f6020820190508181035f83015261433b81614302565b9050919050565b7f4141000000000000000000000000000000000000000000000000000000000000815250565b5f81905092915050565b5f61437c826135bb565b6143868185614368565b93506143968185602086016135d5565b80840191505092915050565b7f4242000000000000000000000000000000000000000000000000000000000000815250565b5f6143d282614342565b6002820191506143e28284614372565b91506143ed826143a2565b60028201915081905092915050565b5f819050919050565b614416614411826133c6565b6143fc565b82525050565b5f8160601b9050919050565b5f6144328261441c565b9050919050565b5f61444382614428565b9050919050565b61445b61445682613528565b614439565b82525050565b5f61446c8286614405565b60208201915061447c828561444a565b60148201915061448c8284614405565b602082019150819050949350505050565b7f4e487b71000000000000000000000000000000000000000000000000000000005f52601260045260245ffd5b5f6144d4826133c6565b91506144df836133c6565b9250826144ef576144ee61449d565b5b828206905092915050565b5f614504826133c6565b915061450f836133c6565b92508261451f5761451e61449d565b5b828204905092915050565b7f4e6f7420656e6f7567682073746f636b20617661696c61626c650000000000005f82015250565b5f61455e601a836135c5565b91506145698261452a565b602082019050919050565b5f6020820190508181035f83015261458b81614552565b9050919050565b5f61459d8284614372565b915081905092915050565b7f496e73756666696369656e742066756e64732073656e740000000000000000005f82015250565b5f6145dc6017836135c5565b91506145e7826145a8565b602082019050919050565b5f6020820190508181035f830152614609816145d0565b9050919050565b5f81905092915050565b5f819050815f5260205f209050919050565b5f815461463881613e28565b6146428186614610565b9450600182165f811461465c5760018114614671576146a3565b60ff19831686528115158202860193506146a3565b61467a8561461a565b5f5b8381101561469b5781548189015260018201915060208101905061467c565b838801955050505b50505092915050565b5f6146b7828461462c565b91508190509291505056fea26469706673582212202336fca8dbcf5aa847be338a0d0f5b14d6bc9f39bc0f11e91bb85f9c986c450764736f6c63430008150033",
					"opcodes": "PUSH1 0x80 PUSH1 0x40 MSTORE CALLVALUE DUP1 ISZERO PUSH2 0xF JUMPI PUSH0 DUP1 REVERT JUMPDEST POP CALLER PUSH1 0x1 PUSH0 PUSH2 0x100 EXP DUP2 SLOAD DUP2 PUSH20 0xFFFFFFFFFFFFFFFFFFFFFFFFFFFFFFFFFFFFFFFF MUL NOT AND SWAP1 DUP4 PUSH20 0xFFFFFFFFFFFFFFFFFFFFFFFFFFFFFFFFFFFFFFFF AND MUL OR SWAP1 SSTORE POP PUSH2 0x46F8 DUP1 PUSH2 0x5D PUSH0 CODECOPY PUSH0 RETURN INVALID PUSH1 0x80 PUSH1 0x40 MSTORE PUSH1 0x4 CALLDATASIZE LT PUSH2 0x164 JUMPI PUSH0 CALLDATALOAD PUSH1 0xE0 SHR DUP1 PUSH4 0x7555BF10 GT PUSH2 0xD0 JUMPI DUP1 PUSH4 0xA1BA90B6 GT PUSH2 0x89 JUMPI DUP1 PUSH4 0xD55768DD GT PUSH2 0x63 JUMPI DUP1 PUSH4 0xD55768DD EQ PUSH2 0x523 JUMPI DUP1 PUSH4 0xDA76AF31 EQ PUSH2 0x55F JUMPI DUP1 PUSH4 0xF67A2AD1 EQ PUSH2 0x57B JUMPI DUP1 PUSH4 0xFECD8F79 EQ PUSH2 0x5A3 JUMPI PUSH2 0x164 JUMP JUMPDEST DUP1 PUSH4 0xA1BA90B6 EQ PUSH2 0x4A8 JUMPI DUP1 PUSH4 0xA87430BA EQ PUSH2 0x4D0 JUMPI DUP1 PUSH4 0xD18A524A EQ PUSH2 0x50D JUMPI PUSH2 0x164 JUMP JUMPDEST DUP1 PUSH4 0x7555BF10 EQ PUSH2 0x3AE JUMPI DUP1 PUSH4 0x7EB33A58 EQ PUSH2 0x3D6 JUMPI DUP1 PUSH4 0x805553E8 EQ PUSH2 0x3FE JUMPI DUP1 PUSH4 0x861C2B6D EQ PUSH2 0x43A JUMPI DUP1 PUSH4 0x8DA5CB5B EQ PUSH2 0x462 JUMPI DUP1 PUSH4 0x9F1CD587 EQ PUSH2 0x48C JUMPI PUSH2 0x164 JUMP JUMPDEST DUP1 PUSH4 0x4F424547 GT PUSH2 0x122 JUMPI DUP1 PUSH4 0x4F424547 EQ PUSH2 0x28F JUMPI DUP1 PUSH4 0x50B44712 EQ PUSH2 0x2CF JUMPI DUP1 PUSH4 0x55DEA0B3 EQ PUSH2 0x30C JUMPI DUP1 PUSH4 0x62DD748C EQ PUSH2 0x334 JUMPI DUP1 PUSH4 0x66D0DC67 EQ PUSH2 0x370 JUMPI DUP1 PUSH4 0x6F764708 EQ PUSH2 0x386 JUMPI PUSH2 0x164 JUMP JUMPDEST DUP1 PUSH3 0x8DE16A EQ PUSH2 0x168 JUMPI DUP1 PUSH4 0x1CC11721 EQ PUSH2 0x190 JUMPI DUP1 PUSH4 0x27B90B1B EQ PUSH2 0x1D1 JUMPI DUP1 PUSH4 0x3D527883 EQ PUSH2 0x211 JUMPI DUP1 PUSH4 0x3DFE7DEE EQ PUSH2 0x251 JUMPI DUP1 PUSH4 0x410085DF EQ PUSH2 0x267 JUMPI JUMPDEST PUSH0 DUP1 REVERT JUMPDEST CALLVALUE DUP1 ISZERO PUSH2 0x173 JUMPI PUSH0 DUP1 REVERT JUMPDEST POP PUSH2 0x18E PUSH1 0x4 DUP1 CALLDATASIZE SUB DUP2 ADD SWAP1 PUSH2 0x189 SWAP2 SWAP1 PUSH2 0x345A JUMP JUMPDEST PUSH2 0x5BF JUMP JUMPDEST STOP JUMPDEST CALLVALUE DUP1 ISZERO PUSH2 0x19B JUMPI PUSH0 DUP1 REVERT JUMPDEST POP PUSH2 0x1B6 PUSH1 0x4 DUP1 CALLDATASIZE SUB DUP2 ADD SWAP1 PUSH2 0x1B1 SWAP2 SWAP1 PUSH2 0x34DE JUMP JUMPDEST PUSH2 0x84C JUMP JUMPDEST PUSH1 0x40 MLOAD PUSH2 0x1C8 SWAP7 SWAP6 SWAP5 SWAP4 SWAP3 SWAP2 SWAP1 PUSH2 0x3654 JUMP JUMPDEST PUSH1 0x40 MLOAD DUP1 SWAP2 SUB SWAP1 RETURN JUMPDEST CALLVALUE DUP1 ISZERO PUSH2 0x1DC JUMPI PUSH0 DUP1 REVERT JUMPDEST POP PUSH2 0x1F7 PUSH1 0x4 DUP1 CALLDATASIZE SUB DUP2 ADD SWAP1 PUSH2 0x1F2 SWAP2 SWAP1 PUSH2 0x36E4 JUMP JUMPDEST PUSH2 0x964 JUMP JUMPDEST PUSH1 0x40 MLOAD PUSH2 0x208 SWAP6 SWAP5 SWAP4 SWAP3 SWAP2 SWAP1 PUSH2 0x3722 JUMP JUMPDEST PUSH1 0x40 MLOAD DUP1 SWAP2 SUB SWAP1 RETURN JUMPDEST CALLVALUE DUP1 ISZERO PUSH2 0x21C JUMPI PUSH0 DUP1 REVERT JUMPDEST POP PUSH2 0x237 PUSH1 0x4 DUP1 CALLDATASIZE SUB DUP2 ADD SWAP1 PUSH2 0x232 SWAP2 SWAP1 PUSH2 0x36E4 JUMP JUMPDEST PUSH2 0xA55 JUMP JUMPDEST PUSH1 0x40 MLOAD PUSH2 0x248 SWAP6 SWAP5 SWAP4 SWAP3 SWAP2 SWAP1 PUSH2 0x3722 JUMP JUMPDEST PUSH1 0x40 MLOAD DUP1 SWAP2 SUB SWAP1 RETURN JUMPDEST CALLVALUE DUP1 ISZERO PUSH2 0x25C JUMPI PUSH0 DUP1 REVERT JUMPDEST POP PUSH2 0x265 PUSH2 0xB46 JUMP JUMPDEST STOP JUMPDEST CALLVALUE DUP1 ISZERO PUSH2 0x272 JUMPI PUSH0 DUP1 REVERT JUMPDEST POP PUSH2 0x28D PUSH1 0x4 DUP1 CALLDATASIZE SUB DUP2 ADD SWAP1 PUSH2 0x288 SWAP2 SWAP1 PUSH2 0x36E4 JUMP JUMPDEST PUSH2 0xBE6 JUMP JUMPDEST STOP JUMPDEST CALLVALUE DUP1 ISZERO PUSH2 0x29A JUMPI PUSH0 DUP1 REVERT JUMPDEST POP PUSH2 0x2B5 PUSH1 0x4 DUP1 CALLDATASIZE SUB DUP2 ADD SWAP1 PUSH2 0x2B0 SWAP2 SWAP1 PUSH2 0x36E4 JUMP JUMPDEST PUSH2 0xFA3 JUMP JUMPDEST PUSH1 0x40 MLOAD PUSH2 0x2C6 SWAP6 SWAP5 SWAP4 SWAP3 SWAP2 SWAP1 PUSH2 0x3722 JUMP JUMPDEST PUSH1 0x40 MLOAD DUP1 SWAP2 SUB SWAP1 RETURN JUMPDEST CALLVALUE DUP1 ISZERO PUSH2 0x2DA JUMPI PUSH0 DUP1 REVERT JUMPDEST POP PUSH2 0x2F5 PUSH1 0x4 DUP1 CALLDATASIZE SUB DUP2 ADD SWAP1 PUSH2 0x2F0 SWAP2 SWAP1 PUSH2 0x34DE JUMP JUMPDEST PUSH2 0x1094 JUMP JUMPDEST PUSH1 0x40 MLOAD PUSH2 0x303 SWAP3 SWAP2 SWAP1 PUSH2 0x37C0 JUMP JUMPDEST PUSH1 0x40 MLOAD DUP1 SWAP2 SUB SWAP1 RETURN JUMPDEST CALLVALUE DUP1 ISZERO PUSH2 0x317 JUMPI PUSH0 DUP1 REVERT JUMPDEST POP PUSH2 0x332 PUSH1 0x4 DUP1 CALLDATASIZE SUB DUP2 ADD SWAP1 PUSH2 0x32D SWAP2 SWAP1 PUSH2 0x380A JUMP JUMPDEST PUSH2 0x10E9 JUMP JUMPDEST STOP JUMPDEST CALLVALUE DUP1 ISZERO PUSH2 0x33F JUMPI PUSH0 DUP1 REVERT JUMPDEST POP PUSH2 0x35A PUSH1 0x4 DUP1 CALLDATASIZE SUB DUP2 ADD SWAP1 PUSH2 0x355 SWAP2 SWAP1 PUSH2 0x395D JUMP JUMPDEST PUSH2 0x11C1 JUMP JUMPDEST PUSH1 0x40 MLOAD PUSH2 0x367 SWAP2 SWAP1 PUSH2 0x39A4 JUMP JUMPDEST PUSH1 0x40 MLOAD DUP1 SWAP2 SUB SWAP1 RETURN JUMPDEST CALLVALUE DUP1 ISZERO PUSH2 0x37B JUMPI PUSH0 DUP1 REVERT JUMPDEST POP PUSH2 0x384 PUSH2 0x12BE JUMP JUMPDEST STOP JUMPDEST CALLVALUE DUP1 ISZERO PUSH2 0x391 JUMPI PUSH0 DUP1 REVERT JUMPDEST POP PUSH2 0x3AC PUSH1 0x4 DUP1 CALLDATASIZE SUB DUP2 ADD SWAP1 PUSH2 0x3A7 SWAP2 SWAP1 PUSH2 0x34DE JUMP JUMPDEST PUSH2 0x135F JUMP JUMPDEST STOP JUMPDEST CALLVALUE DUP1 ISZERO PUSH2 0x3B9 JUMPI PUSH0 DUP1 REVERT JUMPDEST POP PUSH2 0x3D4 PUSH1 0x4 DUP1 CALLDATASIZE SUB DUP2 ADD SWAP1 PUSH2 0x3CF SWAP2 SWAP1 PUSH2 0x39C4 JUMP JUMPDEST PUSH2 0x1490 JUMP JUMPDEST STOP JUMPDEST CALLVALUE DUP1 ISZERO PUSH2 0x3E1 JUMPI PUSH0 DUP1 REVERT JUMPDEST POP PUSH2 0x3FC PUSH1 0x4 DUP1 CALLDATASIZE SUB DUP2 ADD SWAP1 PUSH2 0x3F7 SWAP2 SWAP1 PUSH2 0x3A49 JUMP JUMPDEST PUSH2 0x1913 JUMP JUMPDEST STOP JUMPDEST CALLVALUE DUP1 ISZERO PUSH2 0x409 JUMPI PUSH0 DUP1 REVERT JUMPDEST POP PUSH2 0x424 PUSH1 0x4 DUP1 CALLDATASIZE SUB DUP2 ADD SWAP1 PUSH2 0x41F SWAP2 SWAP1 PUSH2 0x34DE JUMP JUMPDEST PUSH2 0x1ADE JUMP JUMPDEST PUSH1 0x40 MLOAD PUSH2 0x431 SWAP2 SWAP1 PUSH2 0x3A87 JUMP JUMPDEST PUSH1 0x40 MLOAD DUP1 SWAP2 SUB SWAP1 RETURN JUMPDEST CALLVALUE DUP1 ISZERO PUSH2 0x445 JUMPI PUSH0 DUP1 REVERT JUMPDEST POP PUSH2 0x460 PUSH1 0x4 DUP1 CALLDATASIZE SUB DUP2 ADD SWAP1 PUSH2 0x45B SWAP2 SWAP1 PUSH2 0x3AA0 JUMP JUMPDEST PUSH2 0x1B2E JUMP JUMPDEST STOP JUMPDEST CALLVALUE DUP1 ISZERO PUSH2 0x46D JUMPI PUSH0 DUP1 REVERT JUMPDEST POP PUSH2 0x476 PUSH2 0x1DC8 JUMP JUMPDEST PUSH1 0x40 MLOAD PUSH2 0x483 SWAP2 SWAP1 PUSH2 0x3B36 JUMP JUMPDEST PUSH1 0x40 MLOAD DUP1 SWAP2 SUB SWAP1 RETURN JUMPDEST PUSH2 0x4A6 PUSH1 0x4 DUP1 CALLDATASIZE SUB DUP2 ADD SWAP1 PUSH2 0x4A1 SWAP2 SWAP1 PUSH2 0x3B4F JUMP JUMPDEST PUSH2 0x1DED JUMP JUMPDEST STOP JUMPDEST CALLVALUE DUP1 ISZERO PUSH2 0x4B3 JUMPI PUSH0 DUP1 REVERT JUMPDEST POP PUSH2 0x4CE PUSH1 0x4 DUP1 CALLDATASIZE SUB DUP2 ADD SWAP1 PUSH2 0x4C9 SWAP2 SWAP1 PUSH2 0x3BCF JUMP JUMPDEST PUSH2 0x2774 JUMP JUMPDEST STOP JUMPDEST CALLVALUE DUP1 ISZERO PUSH2 0x4DB JUMPI PUSH0 DUP1 REVERT JUMPDEST POP PUSH2 0x4F6 PUSH1 0x4 DUP1 CALLDATASIZE SUB DUP2 ADD SWAP1 PUSH2 0x4F1 SWAP2 SWAP1 PUSH2 0x3C29 JUMP JUMPDEST PUSH2 0x280B JUMP JUMPDEST PUSH1 0x40 MLOAD PUSH2 0x504 SWAP3 SWAP2 SWAP1 PUSH2 0x3C54 JUMP JUMPDEST PUSH1 0x40 MLOAD DUP1 SWAP2 SUB SWAP1 RETURN JUMPDEST CALLVALUE DUP1 ISZERO PUSH2 0x518 JUMPI PUSH0 DUP1 REVERT JUMPDEST POP PUSH2 0x521 PUSH2 0x2837 JUMP JUMPDEST STOP JUMPDEST CALLVALUE DUP1 ISZERO PUSH2 0x52E JUMPI PUSH0 DUP1 REVERT JUMPDEST POP PUSH2 0x549 PUSH1 0x4 DUP1 CALLDATASIZE SUB DUP2 ADD SWAP1 PUSH2 0x544 SWAP2 SWAP1 PUSH2 0x395D JUMP JUMPDEST PUSH2 0x28D7 JUMP JUMPDEST PUSH1 0x40 MLOAD PUSH2 0x556 SWAP2 SWAP1 PUSH2 0x3B36 JUMP JUMPDEST PUSH1 0x40 MLOAD DUP1 SWAP2 SUB SWAP1 RETURN JUMPDEST PUSH2 0x579 PUSH1 0x4 DUP1 CALLDATASIZE SUB DUP2 ADD SWAP1 PUSH2 0x574 SWAP2 SWAP1 PUSH2 0x3A49 JUMP JUMPDEST PUSH2 0x291F JUMP JUMPDEST STOP JUMPDEST CALLVALUE DUP1 ISZERO PUSH2 0x586 JUMPI PUSH0 DUP1 REVERT JUMPDEST POP PUSH2 0x5A1 PUSH1 0x4 DUP1 CALLDATASIZE SUB DUP2 ADD SWAP1 PUSH2 0x59C SWAP2 SWAP1 PUSH2 0x3C29 JUMP JUMPDEST PUSH2 0x2B8A JUMP JUMPDEST STOP JUMPDEST PUSH2 0x5BD PUSH1 0x4 DUP1 CALLDATASIZE SUB DUP2 ADD SWAP1 PUSH2 0x5B8 SWAP2 SWAP1 PUSH2 0x3C7B JUMP JUMPDEST PUSH2 0x2C11 JUMP JUMPDEST STOP JUMPDEST PUSH1 0x1 CALLER DUP2 PUSH1 0x2 DUP2 GT ISZERO PUSH2 0x5D5 JUMPI PUSH2 0x5D4 PUSH2 0x3548 JUMP JUMPDEST JUMPDEST PUSH1 0x3 PUSH0 CALLER PUSH20 0xFFFFFFFFFFFFFFFFFFFFFFFFFFFFFFFFFFFFFFFF AND PUSH20 0xFFFFFFFFFFFFFFFFFFFFFFFFFFFFFFFFFFFFFFFF AND DUP2 MSTORE PUSH1 0x20 ADD SWAP1 DUP2 MSTORE PUSH1 0x20 ADD PUSH0 KECCAK256 PUSH0 ADD PUSH0 SWAP1 SLOAD SWAP1 PUSH2 0x100 EXP SWAP1 DIV PUSH1 0xFF AND PUSH1 0x2 DUP2 GT ISZERO PUSH2 0x633 JUMPI PUSH2 0x632 PUSH2 0x3548 JUMP JUMPDEST JUMPDEST EQ PUSH2 0x673 JUMPI PUSH1 0x40 MLOAD PUSH32 0x8C379A000000000000000000000000000000000000000000000000000000000 DUP2 MSTORE PUSH1 0x4 ADD PUSH2 0x66A SWAP1 PUSH2 0x3D4F JUMP JUMPDEST PUSH1 0x40 MLOAD DUP1 SWAP2 SUB SWAP1 REVERT JUMPDEST DUP1 PUSH20 0xFFFFFFFFFFFFFFFFFFFFFFFFFFFFFFFFFFFFFFFF AND CALLER PUSH20 0xFFFFFFFFFFFFFFFFFFFFFFFFFFFFFFFFFFFFFFFF AND EQ PUSH2 0x6E1 JUMPI PUSH1 0x40 MLOAD PUSH32 0x8C379A000000000000000000000000000000000000000000000000000000000 DUP2 MSTORE PUSH1 0x4 ADD PUSH2 0x6D8 SWAP1 PUSH2 0x3DDD JUMP JUMPDEST PUSH1 0x40 MLOAD DUP1 SWAP2 SUB SWAP1 REVERT JUMPDEST PUSH0 PUSH1 0x40 MLOAD DUP1 PUSH1 0xA0 ADD PUSH1 0x40 MSTORE DUP1 CALLER PUSH20 0xFFFFFFFFFFFFFFFFFFFFFFFFFFFFFFFFFFFFFFFF AND DUP2 MSTORE PUSH1 0x20 ADD DUP10 DUP2 MSTORE PUSH1 0x20 ADD DUP9 DUP2 MSTORE PUSH1 0x20 ADD DUP8 DUP8 DUP1 DUP1 PUSH1 0x1F ADD PUSH1 0x20 DUP1 SWAP2 DIV MUL PUSH1 0x20 ADD PUSH1 0x40 MLOAD SWAP1 DUP2 ADD PUSH1 0x40 MSTORE DUP1 SWAP4 SWAP3 SWAP2 SWAP1 DUP2 DUP2 MSTORE PUSH1 0x20 ADD DUP4 DUP4 DUP1 DUP3 DUP5 CALLDATACOPY PUSH0 DUP2 DUP5 ADD MSTORE PUSH1 0x1F NOT PUSH1 0x1F DUP3 ADD AND SWAP1 POP DUP1 DUP4 ADD SWAP3 POP POP POP POP POP POP POP DUP2 MSTORE PUSH1 0x20 ADD DUP6 DUP2 MSTORE POP SWAP1 POP PUSH1 0x5 PUSH0 CALLER PUSH20 0xFFFFFFFFFFFFFFFFFFFFFFFFFFFFFFFFFFFFFFFF AND PUSH20 0xFFFFFFFFFFFFFFFFFFFFFFFFFFFFFFFFFFFFFFFF AND DUP2 MSTORE PUSH1 0x20 ADD SWAP1 DUP2 MSTORE PUSH1 0x20 ADD PUSH0 KECCAK256 DUP2 SWAP1 DUP1 PUSH1 0x1 DUP2 SLOAD ADD DUP1 DUP3 SSTORE DUP1 SWAP2 POP POP PUSH1 0x1 SWAP1 SUB SWAP1 PUSH0 MSTORE PUSH1 0x20 PUSH0 KECCAK256 SWAP1 PUSH1 0x5 MUL ADD PUSH0 SWAP1 SWAP2 SWAP1 SWAP2 SWAP1 SWAP2 POP PUSH0 DUP3 ADD MLOAD DUP2 PUSH0 ADD PUSH0 PUSH2 0x100 EXP DUP2 SLOAD DUP2 PUSH20 0xFFFFFFFFFFFFFFFFFFFFFFFFFFFFFFFFFFFFFFFF MUL NOT AND SWAP1 DUP4 PUSH20 0xFFFFFFFFFFFFFFFFFFFFFFFFFFFFFFFFFFFFFFFF AND MUL OR SWAP1 SSTORE POP PUSH1 0x20 DUP3 ADD MLOAD DUP2 PUSH1 0x1 ADD SSTORE PUSH1 0x40 DUP3 ADD MLOAD DUP2 PUSH1 0x2 ADD SSTORE PUSH1 0x60 DUP3 ADD MLOAD DUP2 PUSH1 0x3 ADD SWAP1 DUP2 PUSH2 0x835 SWAP2 SWAP1 PUSH2 0x3FF5 JUMP JUMPDEST POP PUSH1 0x80 DUP3 ADD MLOAD DUP2 PUSH1 0x4 ADD SSTORE POP POP POP POP POP POP POP POP POP POP JUMP JUMPDEST PUSH1 0x2 DUP2 DUP2 SLOAD DUP2 LT PUSH2 0x85B JUMPI PUSH0 DUP1 REVERT JUMPDEST SWAP1 PUSH0 MSTORE PUSH1 0x20 PUSH0 KECCAK256 SWAP1 PUSH1 0x5 MUL ADD PUSH0 SWAP2 POP SWAP1 POP DUP1 PUSH0 ADD PUSH0 SWAP1 SLOAD SWAP1 PUSH2 0x100 EXP SWAP1 DIV PUSH20 0xFFFFFFFFFFFFFFFFFFFFFFFFFFFFFFFFFFFFFFFF AND SWAP1 DUP1 PUSH1 0x1 ADD PUSH0 SWAP1 SLOAD SWAP1 PUSH2 0x100 EXP SWAP1 DIV PUSH20 0xFFFFFFFFFFFFFFFFFFFFFFFFFFFFFFFFFFFFFFFF AND SWAP1 DUP1 PUSH1 0x1 ADD PUSH1 0x14 SWAP1 SLOAD SWAP1 PUSH2 0x100 EXP SWAP1 DIV PUSH1 0xFF AND SWAP1 DUP1 PUSH1 0x2 ADD DUP1 SLOAD PUSH2 0x8D7 SWAP1 PUSH2 0x3E28 JUMP JUMPDEST DUP1 PUSH1 0x1F ADD PUSH1 0x20 DUP1 SWAP2 DIV MUL PUSH1 0x20 ADD PUSH1 0x40 MLOAD SWAP1 DUP2 ADD PUSH1 0x40 MSTORE DUP1 SWAP3 SWAP2 SWAP1 DUP2 DUP2 MSTORE PUSH1 0x20 ADD DUP3 DUP1 SLOAD PUSH2 0x903 SWAP1 PUSH2 0x3E28 JUMP JUMPDEST DUP1 ISZERO PUSH2 0x94E JUMPI DUP1 PUSH1 0x1F LT PUSH2 0x925 JUMPI PUSH2 0x100 DUP1 DUP4 SLOAD DIV MUL DUP4 MSTORE SWAP2 PUSH1 0x20 ADD SWAP2 PUSH2 0x94E JUMP JUMPDEST DUP3 ADD SWAP2 SWAP1 PUSH0 MSTORE PUSH1 0x20 PUSH0 KECCAK256 SWAP1 JUMPDEST DUP2 SLOAD DUP2 MSTORE SWAP1 PUSH1 0x1 ADD SWAP1 PUSH1 0x20 ADD DUP1 DUP4 GT PUSH2 0x931 JUMPI DUP3 SWAP1 SUB PUSH1 0x1F AND DUP3 ADD SWAP2 JUMPDEST POP POP POP POP POP SWAP1 DUP1 PUSH1 0x3 ADD SLOAD SWAP1 DUP1 PUSH1 0x4 ADD SLOAD SWAP1 POP DUP7 JUMP JUMPDEST PUSH1 0x6 PUSH1 0x20 MSTORE DUP2 PUSH0 MSTORE PUSH1 0x40 PUSH0 KECCAK256 DUP2 DUP2 SLOAD DUP2 LT PUSH2 0x97D JUMPI PUSH0 DUP1 REVERT JUMPDEST SWAP1 PUSH0 MSTORE PUSH1 0x20 PUSH0 KECCAK256 SWAP1 PUSH1 0x5 MUL ADD PUSH0 SWAP2 POP SWAP2 POP POP DUP1 PUSH0 ADD PUSH0 SWAP1 SLOAD SWAP1 PUSH2 0x100 EXP SWAP1 DIV PUSH20 0xFFFFFFFFFFFFFFFFFFFFFFFFFFFFFFFFFFFFFFFF AND SWAP1 DUP1 PUSH1 0x1 ADD SLOAD SWAP1 DUP1 PUSH1 0x2 ADD SLOAD SWAP1 DUP1 PUSH1 0x3 ADD DUP1 SLOAD PUSH2 0x9CE SWAP1 PUSH2 0x3E28 JUMP JUMPDEST DUP1 PUSH1 0x1F ADD PUSH1 0x20 DUP1 SWAP2 DIV MUL PUSH1 0x20 ADD PUSH1 0x40 MLOAD SWAP1 DUP2 ADD PUSH1 0x40 MSTORE DUP1 SWAP3 SWAP2 SWAP1 DUP2 DUP2 MSTORE PUSH1 0x20 ADD DUP3 DUP1 SLOAD PUSH2 0x9FA SWAP1 PUSH2 0x3E28 JUMP JUMPDEST DUP1 ISZERO PUSH2 0xA45 JUMPI DUP1 PUSH1 0x1F LT PUSH2 0xA1C JUMPI PUSH2 0x100 DUP1 DUP4 SLOAD DIV MUL DUP4 MSTORE SWAP2 PUSH1 0x20 ADD SWAP2 PUSH2 0xA45 JUMP JUMPDEST DUP3 ADD SWAP2 SWAP1 PUSH0 MSTORE PUSH1 0x20 PUSH0 KECCAK256 SWAP1 JUMPDEST DUP2 SLOAD DUP2 MSTORE SWAP1 PUSH1 0x1 ADD SWAP1 PUSH1 0x20 ADD DUP1 DUP4 GT PUSH2 0xA28 JUMPI DUP3 SWAP1 SUB PUSH1 0x1F AND DUP3 ADD SWAP2 JUMPDEST POP POP POP POP POP SWAP1 DUP1 PUSH1 0x4 ADD SLOAD SWAP1 POP DUP6 JUMP JUMPDEST PUSH1 0x4 PUSH1 0x20 MSTORE DUP2 PUSH0 MSTORE PUSH1 0x40 PUSH0 KECCAK256 DUP2 DUP2 SLOAD DUP2 LT PUSH2 0xA6E JUMPI PUSH0 DUP1 REVERT JUMPDEST SWAP1 PUSH0 MSTORE PUSH1 0x20 PUSH0 KECCAK256 SWAP1 PUSH1 0x5 MUL ADD PUSH0 SWAP2 POP SWAP2 POP POP DUP1 PUSH0 ADD PUSH0 SWAP1 SLOAD SWAP1 PUSH2 0x100 EXP SWAP1 DIV PUSH20 0xFFFFFFFFFFFFFFFFFFFFFFFFFFFFFFFFFFFFFFFF AND SWAP1 DUP1 PUSH1 0x1 ADD SLOAD SWAP1 DUP1 PUSH1 0x2 ADD SLOAD SWAP1 DUP1 PUSH1 0x3 ADD DUP1 SLOAD PUSH2 0xABF SWAP1 PUSH2 0x3E28 JUMP JUMPDEST DUP1 PUSH1 0x1F ADD PUSH1 0x20 DUP1 SWAP2 DIV MUL PUSH1 0x20 ADD PUSH1 0x40 MLOAD SWAP1 DUP2 ADD PUSH1 0x40 MSTORE DUP1 SWAP3 SWAP2 SWAP1 DUP2 DUP2 MSTORE PUSH1 0x20 ADD DUP3 DUP1 SLOAD PUSH2 0xAEB SWAP1 PUSH2 0x3E28 JUMP JUMPDEST DUP1 ISZERO PUSH2 0xB36 JUMPI DUP1 PUSH1 0x1F LT PUSH2 0xB0D JUMPI PUSH2 0x100 DUP1 DUP4 SLOAD DIV MUL DUP4 MSTORE SWAP2 PUSH1 0x20 ADD SWAP2 PUSH2 0xB36 JUMP JUMPDEST DUP3 ADD SWAP2 SWAP1 PUSH0 MSTORE PUSH1 0x20 PUSH0 KECCAK256 SWAP1 JUMPDEST DUP2 SLOAD DUP2 MSTORE SWAP1 PUSH1 0x1 ADD SWAP1 PUSH1 0x20 ADD DUP1 DUP4 GT PUSH2 0xB19 JUMPI DUP3 SWAP1 SUB PUSH1 0x1F AND DUP3 ADD SWAP2 JUMPDEST POP POP POP POP POP SWAP1 DUP1 PUSH1 0x4 ADD SLOAD SWAP1 POP DUP6 JUMP JUMPDEST PUSH1 0x40 MLOAD DUP1 PUSH1 0x40 ADD PUSH1 0x40 MSTORE DUP1 PUSH1 0x2 DUP1 DUP2 GT ISZERO PUSH2 0xB64 JUMPI PUSH2 0xB63 PUSH2 0x3548 JUMP JUMPDEST JUMPDEST DUP2 MSTORE PUSH1 0x20 ADD PUSH0 DUP2 MSTORE POP PUSH1 0x3 PUSH0 CALLER PUSH20 0xFFFFFFFFFFFFFFFFFFFFFFFFFFFFFFFFFFFFFFFF AND PUSH20 0xFFFFFFFFFFFFFFFFFFFFFFFFFFFFFFFFFFFFFFFF AND DUP2 MSTORE PUSH1 0x20 ADD SWAP1 DUP2 MSTORE PUSH1 0x20 ADD PUSH0 KECCAK256 PUSH0 DUP3 ADD MLOAD DUP2 PUSH0 ADD PUSH0 PUSH2 0x100 EXP DUP2 SLOAD DUP2 PUSH1 0xFF MUL NOT AND SWAP1 DUP4 PUSH1 0x2 DUP2 GT ISZERO PUSH2 0xBD2 JUMPI PUSH2 0xBD1 PUSH2 0x3548 JUMP JUMPDEST JUMPDEST MUL OR SWAP1 SSTORE POP PUSH1 0x20 DUP3 ADD MLOAD DUP2 PUSH1 0x1 ADD SSTORE SWAP1 POP POP JUMP JUMPDEST PUSH1 0x5 PUSH0 DUP4 PUSH20 0xFFFFFFFFFFFFFFFFFFFFFFFFFFFFFFFFFFFFFFFF AND PUSH20 0xFFFFFFFFFFFFFFFFFFFFFFFFFFFFFFFFFFFFFFFF AND DUP2 MSTORE PUSH1 0x20 ADD SWAP1 DUP2 MSTORE PUSH1 0x20 ADD PUSH0 KECCAK256 DUP2 DUP2 SLOAD DUP2 LT PUSH2 0xC35 JUMPI PUSH2 0xC34 PUSH2 0x40C4 JUMP JUMPDEST JUMPDEST SWAP1 PUSH0 MSTORE PUSH1 0x20 PUSH0 KECCAK256 SWAP1 PUSH1 0x5 MUL ADD PUSH1 0x4 ADD SLOAD PUSH1 0x4 PUSH0 CALLER PUSH20 0xFFFFFFFFFFFFFFFFFFFFFFFFFFFFFFFFFFFFFFFF AND PUSH20 0xFFFFFFFFFFFFFFFFFFFFFFFFFFFFFFFFFFFFFFFF AND DUP2 MSTORE PUSH1 0x20 ADD SWAP1 DUP2 MSTORE PUSH1 0x20 ADD PUSH0 KECCAK256 DUP3 DUP2 SLOAD DUP2 LT PUSH2 0xC94 JUMPI PUSH2 0xC93 PUSH2 0x40C4 JUMP JUMPDEST JUMPDEST SWAP1 PUSH0 MSTORE PUSH1 0x20 PUSH0 KECCAK256 SWAP1 PUSH1 0x5 MUL ADD PUSH1 0x4 ADD SLOAD GT PUSH2 0xCAD JUMPI PUSH0 DUP1 REVERT JUMPDEST PUSH0 PUSH8 0xDE0B6B3A7640000 PUSH1 0x5 PUSH0 DUP6 PUSH20 0xFFFFFFFFFFFFFFFFFFFFFFFFFFFFFFFFFFFFFFFF AND PUSH20 0xFFFFFFFFFFFFFFFFFFFFFFFFFFFFFFFFFFFFFFFF AND DUP2 MSTORE PUSH1 0x20 ADD SWAP1 DUP2 MSTORE PUSH1 0x20 ADD PUSH0 KECCAK256 DUP4 DUP2 SLOAD DUP2 LT PUSH2 0xD06 JUMPI PUSH2 0xD05 PUSH2 0x40C4 JUMP JUMPDEST JUMPDEST SWAP1 PUSH0 MSTORE PUSH1 0x20 PUSH0 KECCAK256 SWAP1 PUSH1 0x5 MUL ADD PUSH1 0x2 ADD SLOAD PUSH1 0x4 PUSH0 CALLER PUSH20 0xFFFFFFFFFFFFFFFFFFFFFFFFFFFFFFFFFFFFFFFF AND PUSH20 0xFFFFFFFFFFFFFFFFFFFFFFFFFFFFFFFFFFFFFFFF AND DUP2 MSTORE PUSH1 0x20 ADD SWAP1 DUP2 MSTORE PUSH1 0x20 ADD PUSH0 KECCAK256 DUP5 DUP2 SLOAD DUP2 LT PUSH2 0xD65 JUMPI PUSH2 0xD64 PUSH2 0x40C4 JUMP JUMPDEST JUMPDEST SWAP1 PUSH0 MSTORE PUSH1 0x20 PUSH0 KECCAK256 SWAP1 PUSH1 0x5 MUL ADD PUSH1 0x1 ADD SLOAD PUSH2 0xD7F SWAP2 SWAP1 PUSH2 0x411E JUMP JUMPDEST PUSH2 0xD89 SWAP2 SWAP1 PUSH2 0x411E JUMP JUMPDEST SWAP1 POP PUSH1 0x4 PUSH0 CALLER PUSH20 0xFFFFFFFFFFFFFFFFFFFFFFFFFFFFFFFFFFFFFFFF AND PUSH20 0xFFFFFFFFFFFFFFFFFFFFFFFFFFFFFFFFFFFFFFFF AND DUP2 MSTORE PUSH1 0x20 ADD SWAP1 DUP2 MSTORE PUSH1 0x20 ADD PUSH0 KECCAK256 DUP3 DUP2 SLOAD DUP2 LT PUSH2 0xDDA JUMPI PUSH2 0xDD9 PUSH2 0x40C4 JUMP JUMPDEST JUMPDEST SWAP1 PUSH0 MSTORE PUSH1 0x20 PUSH0 KECCAK256 SWAP1 PUSH1 0x5 MUL ADD PUSH1 0x1 ADD SLOAD PUSH1 0x5 PUSH0 DUP6 PUSH20 0xFFFFFFFFFFFFFFFFFFFFFFFFFFFFFFFFFFFFFFFF AND PUSH20 0xFFFFFFFFFFFFFFFFFFFFFFFFFFFFFFFFFFFFFFFF AND DUP2 MSTORE PUSH1 0x20 ADD SWAP1 DUP2 MSTORE PUSH1 0x20 ADD PUSH0 KECCAK256 DUP4 DUP2 SLOAD DUP2 LT PUSH2 0xE39 JUMPI PUSH2 0xE38 PUSH2 0x40C4 JUMP JUMPDEST JUMPDEST SWAP1 PUSH0 MSTORE PUSH1 0x20 PUSH0 KECCAK256 SWAP1 PUSH1 0x5 MUL ADD PUSH1 0x1 ADD PUSH0 DUP3 DUP3 SLOAD PUSH2 0xE56 SWAP2 SWAP1 PUSH2 0x415F JUMP JUMPDEST SWAP3 POP POP DUP2 SWAP1 SSTORE POP PUSH1 0x4 PUSH0 CALLER PUSH20 0xFFFFFFFFFFFFFFFFFFFFFFFFFFFFFFFFFFFFFFFF AND PUSH20 0xFFFFFFFFFFFFFFFFFFFFFFFFFFFFFFFFFFFFFFFF AND DUP2 MSTORE PUSH1 0x20 ADD SWAP1 DUP2 MSTORE PUSH1 0x20 ADD PUSH0 KECCAK256 DUP3 DUP2 SLOAD DUP2 LT PUSH2 0xEAC JUMPI PUSH2 0xEAB PUSH2 0x40C4 JUMP JUMPDEST JUMPDEST SWAP1 PUSH0 MSTORE PUSH1 0x20 PUSH0 KECCAK256 SWAP1 PUSH1 0x5 MUL ADD PUSH0 DUP1 DUP3 ADD PUSH0 PUSH2 0x100 EXP DUP2 SLOAD SWAP1 PUSH20 0xFFFFFFFFFFFFFFFFFFFFFFFFFFFFFFFFFFFFFFFF MUL NOT AND SWAP1 SSTORE PUSH1 0x1 DUP3 ADD PUSH0 SWAP1 SSTORE PUSH1 0x2 DUP3 ADD PUSH0 SWAP1 SSTORE PUSH1 0x3 DUP3 ADD PUSH0 PUSH2 0xEFB SWAP2 SWAP1 PUSH2 0x335D JUMP JUMPDEST PUSH1 0x4 DUP3 ADD PUSH0 SWAP1 SSTORE POP POP DUP1 PUSH1 0x3 PUSH0 DUP6 PUSH20 0xFFFFFFFFFFFFFFFFFFFFFFFFFFFFFFFFFFFFFFFF AND PUSH20 0xFFFFFFFFFFFFFFFFFFFFFFFFFFFFFFFFFFFFFFFF AND DUP2 MSTORE PUSH1 0x20 ADD SWAP1 DUP2 MSTORE PUSH1 0x20 ADD PUSH0 KECCAK256 PUSH1 0x1 ADD PUSH0 DUP3 DUP3 SLOAD PUSH2 0xF53 SWAP2 SWAP1 PUSH2 0x4192 JUMP JUMPDEST SWAP3 POP POP DUP2 SWAP1 SSTORE POP CALLER PUSH20 0xFFFFFFFFFFFFFFFFFFFFFFFFFFFFFFFFFFFFFFFF AND PUSH2 0x8FC DUP3 SWAP1 DUP2 ISZERO MUL SWAP1 PUSH1 0x40 MLOAD PUSH0 PUSH1 0x40 MLOAD DUP1 DUP4 SUB DUP2 DUP6 DUP9 DUP9 CALL SWAP4 POP POP POP POP ISZERO DUP1 ISZERO PUSH2 0xF9D JUMPI RETURNDATASIZE PUSH0 DUP1 RETURNDATACOPY RETURNDATASIZE PUSH0 REVERT JUMPDEST POP POP POP POP JUMP JUMPDEST PUSH1 0x5 PUSH1 0x20 MSTORE DUP2 PUSH0 MSTORE PUSH1 0x40 PUSH0 KECCAK256 DUP2 DUP2 SLOAD DUP2 LT PUSH2 0xFBC JUMPI PUSH0 DUP1 REVERT JUMPDEST SWAP1 PUSH0 MSTORE PUSH1 0x20 PUSH0 KECCAK256 SWAP1 PUSH1 0x5 MUL ADD PUSH0 SWAP2 POP SWAP2 POP POP DUP1 PUSH0 ADD PUSH0 SWAP1 SLOAD SWAP1 PUSH2 0x100 EXP SWAP1 DIV PUSH20 0xFFFFFFFFFFFFFFFFFFFFFFFFFFFFFFFFFFFFFFFF AND SWAP1 DUP1 PUSH1 0x1 ADD SLOAD SWAP1 DUP1 PUSH1 0x2 ADD SLOAD SWAP1 DUP1 PUSH1 0x3 ADD DUP1 SLOAD PUSH2 0x100D SWAP1 PUSH2 0x3E28 JUMP JUMPDEST DUP1 PUSH1 0x1F ADD PUSH1 0x20 DUP1 SWAP2 DIV MUL PUSH1 0x20 ADD PUSH1 0x40 MLOAD SWAP1 DUP2 ADD PUSH1 0x40 MSTORE DUP1 SWAP3 SWAP2 SWAP1 DUP2 DUP2 MSTORE PUSH1 0x20 ADD DUP3 DUP1 SLOAD PUSH2 0x1039 SWAP1 PUSH2 0x3E28 JUMP JUMPDEST DUP1 ISZERO PUSH2 0x1084 JUMPI DUP1 PUSH1 0x1F LT PUSH2 0x105B JUMPI PUSH2 0x100 DUP1 DUP4 SLOAD DIV MUL DUP4 MSTORE SWAP2 PUSH1 0x20 ADD SWAP2 PUSH2 0x1084 JUMP JUMPDEST DUP3 ADD SWAP2 SWAP1 PUSH0 MSTORE PUSH1 0x20 PUSH0 KECCAK256 SWAP1 JUMPDEST DUP2 SLOAD DUP2 MSTORE SWAP1 PUSH1 0x1 ADD SWAP1 PUSH1 0x20 ADD DUP1 DUP4 GT PUSH2 0x1067 JUMPI DUP3 SWAP1 SUB PUSH1 0x1F AND DUP3 ADD SWAP2 JUMPDEST POP POP POP POP POP SWAP1 DUP1 PUSH1 0x4 ADD SLOAD SWAP1 POP DUP6 JUMP JUMPDEST PUSH0 DUP2 DUP2 SLOAD DUP2 LT PUSH2 0x10A2 JUMPI PUSH0 DUP1 REVERT JUMPDEST SWAP1 PUSH0 MSTORE PUSH1 0x20 PUSH0 KECCAK256 ADD PUSH0 SWAP2 POP SWAP1 POP DUP1 PUSH0 ADD PUSH0 SWAP1 SLOAD SWAP1 PUSH2 0x100 EXP SWAP1 DIV PUSH20 0xFFFFFFFFFFFFFFFFFFFFFFFFFFFFFFFFFFFFFFFF AND SWAP1 DUP1 PUSH0 ADD PUSH1 0x14 SWAP1 SLOAD SWAP1 PUSH2 0x100 EXP SWAP1 DIV PUSH1 0xFF AND SWAP1 POP DUP3 JUMP JUMPDEST PUSH0 PUSH1 0x40 MLOAD DUP1 PUSH1 0x40 ADD PUSH1 0x40 MSTORE DUP1 CALLER PUSH20 0xFFFFFFFFFFFFFFFFFFFFFFFFFFFFFFFFFFFFFFFF AND DUP2 MSTORE PUSH1 0x20 ADD DUP4 PUSH1 0x2 DUP2 GT ISZERO PUSH2 0x1124 JUMPI PUSH2 0x1123 PUSH2 0x3548 JUMP JUMPDEST JUMPDEST DUP2 MSTORE POP SWAP1 DUP1 PUSH1 0x1 DUP2 SLOAD ADD DUP1 DUP3 SSTORE DUP1 SWAP2 POP POP PUSH1 0x1 SWAP1 SUB SWAP1 PUSH0 MSTORE PUSH1 0x20 PUSH0 KECCAK256 ADD PUSH0 SWAP1 SWAP2 SWAP1 SWAP2 SWAP1 SWAP2 POP PUSH0 DUP3 ADD MLOAD DUP2 PUSH0 ADD PUSH0 PUSH2 0x100 EXP DUP2 SLOAD DUP2 PUSH20 0xFFFFFFFFFFFFFFFFFFFFFFFFFFFFFFFFFFFFFFFF MUL NOT AND SWAP1 DUP4 PUSH20 0xFFFFFFFFFFFFFFFFFFFFFFFFFFFFFFFFFFFFFFFF AND MUL OR SWAP1 SSTORE POP PUSH1 0x20 DUP3 ADD MLOAD DUP2 PUSH0 ADD PUSH1 0x14 PUSH2 0x100 EXP DUP2 SLOAD DUP2 PUSH1 0xFF MUL NOT AND SWAP1 DUP4 PUSH1 0x2 DUP2 GT ISZERO PUSH2 0x11B7 JUMPI PUSH2 0x11B6 PUSH2 0x3548 JUMP JUMPDEST JUMPDEST MUL OR SWAP1 SSTORE POP POP POP POP JUMP JUMPDEST PUSH1 0x60 PUSH0 DUP3 SWAP1 POP PUSH0 JUMPDEST DUP2 MLOAD DUP2 LT ISZERO PUSH2 0x12B4 JUMPI PUSH1 0x61 DUP3 DUP3 DUP2 MLOAD DUP2 LT PUSH2 0x11E7 JUMPI PUSH2 0x11E6 PUSH2 0x40C4 JUMP JUMPDEST JUMPDEST PUSH1 0x20 ADD ADD MLOAD PUSH1 0xF8 SHR PUSH1 0xF8 SHL PUSH1 0xF8 SHR PUSH1 0xFF AND LT ISZERO DUP1 ISZERO PUSH2 0x122A JUMPI POP PUSH1 0x7A DUP3 DUP3 DUP2 MLOAD DUP2 LT PUSH2 0x1216 JUMPI PUSH2 0x1215 PUSH2 0x40C4 JUMP JUMPDEST JUMPDEST PUSH1 0x20 ADD ADD MLOAD PUSH1 0xF8 SHR PUSH1 0xF8 SHL PUSH1 0xF8 SHR PUSH1 0xFF AND GT ISZERO JUMPDEST ISZERO PUSH2 0x12A1 JUMPI PUSH1 0x20 DUP3 DUP3 DUP2 MLOAD DUP2 LT PUSH2 0x1244 JUMPI PUSH2 0x1243 PUSH2 0x40C4 JUMP JUMPDEST JUMPDEST PUSH1 0x20 ADD ADD MLOAD PUSH1 0xF8 SHR PUSH1 0xF8 SHL PUSH1 0xF8 SHR PUSH2 0x125C SWAP2 SWAP1 PUSH2 0x41D1 JUMP JUMPDEST PUSH1 0xF8 SHL DUP3 DUP3 DUP2 MLOAD DUP2 LT PUSH2 0x1272 JUMPI PUSH2 0x1271 PUSH2 0x40C4 JUMP JUMPDEST JUMPDEST PUSH1 0x20 ADD ADD SWAP1 PUSH31 0xFFFFFFFFFFFFFFFFFFFFFFFFFFFFFFFFFFFFFFFFFFFFFFFFFFFFFFFFFFFFFF NOT AND SWAP1 DUP2 PUSH0 BYTE SWAP1 MSTORE8 POP JUMPDEST DUP1 DUP1 PUSH2 0x12AC SWAP1 PUSH2 0x4205 JUMP JUMPDEST SWAP2 POP POP PUSH2 0x11C9 JUMP JUMPDEST POP DUP1 SWAP2 POP POP SWAP2 SWAP1 POP JUMP JUMPDEST PUSH1 0x40 MLOAD DUP1 PUSH1 0x40 ADD PUSH1 0x40 MSTORE DUP1 PUSH1 0x1 PUSH1 0x2 DUP2 GT ISZERO PUSH2 0x12DD JUMPI PUSH2 0x12DC PUSH2 0x3548 JUMP JUMPDEST JUMPDEST DUP2 MSTORE PUSH1 0x20 ADD PUSH0 DUP2 MSTORE POP PUSH1 0x3 PUSH0 CALLER PUSH20 0xFFFFFFFFFFFFFFFFFFFFFFFFFFFFFFFFFFFFFFFF AND PUSH20 0xFFFFFFFFFFFFFFFFFFFFFFFFFFFFFFFFFFFFFFFF AND DUP2 MSTORE PUSH1 0x20 ADD SWAP1 DUP2 MSTORE PUSH1 0x20 ADD PUSH0 KECCAK256 PUSH0 DUP3 ADD MLOAD DUP2 PUSH0 ADD PUSH0 PUSH2 0x100 EXP DUP2 SLOAD DUP2 PUSH1 0xFF MUL NOT AND SWAP1 DUP4 PUSH1 0x2 DUP2 GT ISZERO PUSH2 0x134B JUMPI PUSH2 0x134A PUSH2 0x3548 JUMP JUMPDEST JUMPDEST MUL OR SWAP1 SSTORE POP PUSH1 0x20 DUP3 ADD MLOAD DUP2 PUSH1 0x1 ADD SSTORE SWAP1 POP POP JUMP JUMPDEST PUSH1 0x1 PUSH0 SWAP1 SLOAD SWAP1 PUSH2 0x100 EXP SWAP1 DIV PUSH20 0xFFFFFFFFFFFFFFFFFFFFFFFFFFFFFFFFFFFFFFFF AND PUSH20 0xFFFFFFFFFFFFFFFFFFFFFFFFFFFFFFFFFFFFFFFF AND CALLER PUSH20 0xFFFFFFFFFFFFFFFFFFFFFFFFFFFFFFFFFFFFFFFF AND EQ PUSH2 0x13B7 JUMPI PUSH0 DUP1 REVERT JUMPDEST PUSH0 DUP1 DUP3 DUP2 SLOAD DUP2 LT PUSH2 0x13CB JUMPI PUSH2 0x13CA PUSH2 0x40C4 JUMP JUMPDEST JUMPDEST SWAP1 PUSH0 MSTORE PUSH1 0x20 PUSH0 KECCAK256 ADD PUSH0 ADD PUSH0 SWAP1 SLOAD SWAP1 PUSH2 0x100 EXP SWAP1 DIV PUSH20 0xFFFFFFFFFFFFFFFFFFFFFFFFFFFFFFFFFFFFFFFF AND SWAP1 POP PUSH0 DUP1 DUP4 DUP2 SLOAD DUP2 LT PUSH2 0x140B JUMPI PUSH2 0x140A PUSH2 0x40C4 JUMP JUMPDEST JUMPDEST SWAP1 PUSH0 MSTORE PUSH1 0x20 PUSH0 KECCAK256 ADD PUSH0 ADD PUSH1 0x14 SWAP1 SLOAD SWAP1 PUSH2 0x100 EXP SWAP1 DIV PUSH1 0xFF AND SWAP1 POP DUP1 PUSH1 0x3 PUSH0 DUP5 PUSH20 0xFFFFFFFFFFFFFFFFFFFFFFFFFFFFFFFFFFFFFFFF AND PUSH20 0xFFFFFFFFFFFFFFFFFFFFFFFFFFFFFFFFFFFFFFFF AND DUP2 MSTORE PUSH1 0x20 ADD SWAP1 DUP2 MSTORE PUSH1 0x20 ADD PUSH0 KECCAK256 PUSH0 ADD PUSH0 PUSH2 0x100 EXP DUP2 SLOAD DUP2 PUSH1 0xFF MUL NOT AND SWAP1 DUP4 PUSH1 0x2 DUP2 GT ISZERO PUSH2 0x1486 JUMPI PUSH2 0x1485 PUSH2 0x3548 JUMP JUMPDEST JUMPDEST MUL OR SWAP1 SSTORE POP POP POP POP JUMP JUMPDEST PUSH0 CALLER DUP2 PUSH1 0x2 DUP2 GT ISZERO PUSH2 0x14A5 JUMPI PUSH2 0x14A4 PUSH2 0x3548 JUMP JUMPDEST JUMPDEST PUSH1 0x3 PUSH0 CALLER PUSH20 0xFFFFFFFFFFFFFFFFFFFFFFFFFFFFFFFFFFFFFFFF AND PUSH20 0xFFFFFFFFFFFFFFFFFFFFFFFFFFFFFFFFFFFFFFFF AND DUP2 MSTORE PUSH1 0x20 ADD SWAP1 DUP2 MSTORE PUSH1 0x20 ADD PUSH0 KECCAK256 PUSH0 ADD PUSH0 SWAP1 SLOAD SWAP1 PUSH2 0x100 EXP SWAP1 DIV PUSH1 0xFF AND PUSH1 0x2 DUP2 GT ISZERO PUSH2 0x1503 JUMPI PUSH2 0x1502 PUSH2 0x3548 JUMP JUMPDEST JUMPDEST EQ PUSH2 0x1543 JUMPI PUSH1 0x40 MLOAD PUSH32 0x8C379A000000000000000000000000000000000000000000000000000000000 DUP2 MSTORE PUSH1 0x4 ADD PUSH2 0x153A SWAP1 PUSH2 0x3D4F JUMP JUMPDEST PUSH1 0x40 MLOAD DUP1 SWAP2 SUB SWAP1 REVERT JUMPDEST DUP1 PUSH20 0xFFFFFFFFFFFFFFFFFFFFFFFFFFFFFFFFFFFFFFFF AND CALLER PUSH20 0xFFFFFFFFFFFFFFFFFFFFFFFFFFFFFFFFFFFFFFFF AND EQ PUSH2 0x15B1 JUMPI PUSH1 0x40 MLOAD PUSH32 0x8C379A000000000000000000000000000000000000000000000000000000000 DUP2 MSTORE PUSH1 0x4 ADD PUSH2 0x15A8 SWAP1 PUSH2 0x3DDD JUMP JUMPDEST PUSH1 0x40 MLOAD DUP1 SWAP2 SUB SWAP1 REVERT JUMPDEST PUSH0 DUP4 GT PUSH2 0x15F3 JUMPI PUSH1 0x40 MLOAD PUSH32 0x8C379A000000000000000000000000000000000000000000000000000000000 DUP2 MSTORE PUSH1 0x4 ADD PUSH2 0x15EA SWAP1 PUSH2 0x42BC JUMP JUMPDEST PUSH1 0x40 MLOAD DUP1 SWAP2 SUB SWAP1 REVERT JUMPDEST PUSH1 0x5 PUSH0 DUP7 PUSH20 0xFFFFFFFFFFFFFFFFFFFFFFFFFFFFFFFFFFFFFFFF AND PUSH20 0xFFFFFFFFFFFFFFFFFFFFFFFFFFFFFFFFFFFFFFFF AND DUP2 MSTORE PUSH1 0x20 ADD SWAP1 DUP2 MSTORE PUSH1 0x20 ADD PUSH0 KECCAK256 DUP1 SLOAD SWAP1 POP DUP5 LT PUSH2 0x1675 JUMPI PUSH1 0x40 MLOAD PUSH32 0x8C379A000000000000000000000000000000000000000000000000000000000 DUP2 MSTORE PUSH1 0x4 ADD PUSH2 0x166C SWAP1 PUSH2 0x4324 JUMP JUMPDEST PUSH1 0x40 MLOAD DUP1 SWAP2 SUB SWAP1 REVERT JUMPDEST PUSH0 PUSH1 0x5 PUSH0 DUP8 PUSH20 0xFFFFFFFFFFFFFFFFFFFFFFFFFFFFFFFFFFFFFFFF AND PUSH20 0xFFFFFFFFFFFFFFFFFFFFFFFFFFFFFFFFFFFFFFFF AND DUP2 MSTORE PUSH1 0x20 ADD SWAP1 DUP2 MSTORE PUSH1 0x20 ADD PUSH0 KECCAK256 DUP6 DUP2 SLOAD DUP2 LT PUSH2 0x16C5 JUMPI PUSH2 0x16C4 PUSH2 0x40C4 JUMP JUMPDEST JUMPDEST SWAP1 PUSH0 MSTORE PUSH1 0x20 PUSH0 KECCAK256 SWAP1 PUSH1 0x5 MUL ADD PUSH1 0x3 ADD DUP1 SLOAD PUSH2 0x16DF SWAP1 PUSH2 0x3E28 JUMP JUMPDEST DUP1 PUSH1 0x1F ADD PUSH1 0x20 DUP1 SWAP2 DIV MUL PUSH1 0x20 ADD PUSH1 0x40 MLOAD SWAP1 DUP2 ADD PUSH1 0x40 MSTORE DUP1 SWAP3 SWAP2 SWAP1 DUP2 DUP2 MSTORE PUSH1 0x20 ADD DUP3 DUP1 SLOAD PUSH2 0x170B SWAP1 PUSH2 0x3E28 JUMP JUMPDEST DUP1 ISZERO PUSH2 0x1756 JUMPI DUP1 PUSH1 0x1F LT PUSH2 0x172D JUMPI PUSH2 0x100 DUP1 DUP4 SLOAD DIV MUL DUP4 MSTORE SWAP2 PUSH1 0x20 ADD SWAP2 PUSH2 0x1756 JUMP JUMPDEST DUP3 ADD SWAP2 SWAP1 PUSH0 MSTORE PUSH1 0x20 PUSH0 KECCAK256 SWAP1 JUMPDEST DUP2 SLOAD DUP2 MSTORE SWAP1 PUSH1 0x1 ADD SWAP1 PUSH1 0x20 ADD DUP1 DUP4 GT PUSH2 0x1739 JUMPI DUP3 SWAP1 SUB PUSH1 0x1F AND DUP3 ADD SWAP2 JUMPDEST POP POP POP POP POP SWAP1 POP PUSH0 DUP2 PUSH1 0x40 MLOAD PUSH1 0x20 ADD PUSH2 0x176F SWAP2 SWAP1 PUSH2 0x43C8 JUMP JUMPDEST PUSH1 0x40 MLOAD PUSH1 0x20 DUP2 DUP4 SUB SUB DUP2 MSTORE SWAP1 PUSH1 0x40 MSTORE SWAP1 POP PUSH2 0x1789 DUP2 PUSH2 0x11C1 JUMP JUMPDEST SWAP1 POP PUSH0 PUSH1 0x40 MLOAD DUP1 PUSH1 0xC0 ADD PUSH1 0x40 MSTORE DUP1 CALLER PUSH20 0xFFFFFFFFFFFFFFFFFFFFFFFFFFFFFFFFFFFFFFFF AND DUP2 MSTORE PUSH1 0x20 ADD DUP10 PUSH20 0xFFFFFFFFFFFFFFFFFFFFFFFFFFFFFFFFFFFFFFFF AND DUP2 MSTORE PUSH1 0x20 ADD PUSH1 0x1 PUSH1 0x3 DUP2 GT ISZERO PUSH2 0x17E3 JUMPI PUSH2 0x17E2 PUSH2 0x3548 JUMP JUMPDEST JUMPDEST DUP2 MSTORE PUSH1 0x20 ADD DUP4 DUP2 MSTORE PUSH1 0x20 ADD DUP9 DUP2 MSTORE PUSH1 0x20 ADD DUP8 DUP2 MSTORE POP SWAP1 POP PUSH1 0x2 DUP2 SWAP1 DUP1 PUSH1 0x1 DUP2 SLOAD ADD DUP1 DUP3 SSTORE DUP1 SWAP2 POP POP PUSH1 0x1 SWAP1 SUB SWAP1 PUSH0 MSTORE PUSH1 0x20 PUSH0 KECCAK256 SWAP1 PUSH1 0x5 MUL ADD PUSH0 SWAP1 SWAP2 SWAP1 SWAP2 SWAP1 SWAP2 POP PUSH0 DUP3 ADD MLOAD DUP2 PUSH0 ADD PUSH0 PUSH2 0x100 EXP DUP2 SLOAD DUP2 PUSH20 0xFFFFFFFFFFFFFFFFFFFFFFFFFFFFFFFFFFFFFFFF MUL NOT AND SWAP1 DUP4 PUSH20 0xFFFFFFFFFFFFFFFFFFFFFFFFFFFFFFFFFFFFFFFF AND MUL OR SWAP1 SSTORE POP PUSH1 0x20 DUP3 ADD MLOAD DUP2 PUSH1 0x1 ADD PUSH0 PUSH2 0x100 EXP DUP2 SLOAD DUP2 PUSH20 0xFFFFFFFFFFFFFFFFFFFFFFFFFFFFFFFFFFFFFFFF MUL NOT AND SWAP1 DUP4 PUSH20 0xFFFFFFFFFFFFFFFFFFFFFFFFFFFFFFFFFFFFFFFF AND MUL OR SWAP1 SSTORE POP PUSH1 0x40 DUP3 ADD MLOAD DUP2 PUSH1 0x1 ADD PUSH1 0x14 PUSH2 0x100 EXP DUP2 SLOAD DUP2 PUSH1 0xFF MUL NOT AND SWAP1 DUP4 PUSH1 0x3 DUP2 GT ISZERO PUSH2 0x18D8 JUMPI PUSH2 0x18D7 PUSH2 0x3548 JUMP JUMPDEST JUMPDEST MUL OR SWAP1 SSTORE POP PUSH1 0x60 DUP3 ADD MLOAD DUP2 PUSH1 0x2 ADD SWAP1 DUP2 PUSH2 0x18F2 SWAP2 SWAP1 PUSH2 0x3FF5 JUMP JUMPDEST POP PUSH1 0x80 DUP3 ADD MLOAD DUP2 PUSH1 0x3 ADD SSTORE PUSH1 0xA0 DUP3 ADD MLOAD DUP2 PUSH1 0x4 ADD SSTORE POP POP POP POP POP POP POP POP POP POP JUMP JUMPDEST PUSH1 0x1 CALLER DUP2 PUSH1 0x2 DUP2 GT ISZERO PUSH2 0x1929 JUMPI PUSH2 0x1928 PUSH2 0x3548 JUMP JUMPDEST JUMPDEST PUSH1 0x3 PUSH0 CALLER PUSH20 0xFFFFFFFFFFFFFFFFFFFFFFFFFFFFFFFFFFFFFFFF AND PUSH20 0xFFFFFFFFFFFFFFFFFFFFFFFFFFFFFFFFFFFFFFFF AND DUP2 MSTORE PUSH1 0x20 ADD SWAP1 DUP2 MSTORE PUSH1 0x20 ADD PUSH0 KECCAK256 PUSH0 ADD PUSH0 SWAP1 SLOAD SWAP1 PUSH2 0x100 EXP SWAP1 DIV PUSH1 0xFF AND PUSH1 0x2 DUP2 GT ISZERO PUSH2 0x1987 JUMPI PUSH2 0x1986 PUSH2 0x3548 JUMP JUMPDEST JUMPDEST EQ PUSH2 0x19C7 JUMPI PUSH1 0x40 MLOAD PUSH32 0x8C379A000000000000000000000000000000000000000000000000000000000 DUP2 MSTORE PUSH1 0x4 ADD PUSH2 0x19BE SWAP1 PUSH2 0x3D4F JUMP JUMPDEST PUSH1 0x40 MLOAD DUP1 SWAP2 SUB SWAP1 REVERT JUMPDEST DUP1 PUSH20 0xFFFFFFFFFFFFFFFFFFFFFFFFFFFFFFFFFFFFFFFF AND CALLER PUSH20 0xFFFFFFFFFFFFFFFFFFFFFFFFFFFFFFFFFFFFFFFF AND EQ PUSH2 0x1A35 JUMPI PUSH1 0x40 MLOAD PUSH32 0x8C379A000000000000000000000000000000000000000000000000000000000 DUP2 MSTORE PUSH1 0x4 ADD PUSH2 0x1A2C SWAP1 PUSH2 0x3DDD JUMP JUMPDEST PUSH1 0x40 MLOAD DUP1 SWAP2 SUB SWAP1 REVERT JUMPDEST DUP4 ISZERO PUSH2 0x1A8C JUMPI PUSH1 0x1 PUSH1 0x2 DUP5 DUP2 SLOAD DUP2 LT PUSH2 0x1A51 JUMPI PUSH2 0x1A50 PUSH2 0x40C4 JUMP JUMPDEST JUMPDEST SWAP1 PUSH0 MSTORE PUSH1 0x20 PUSH0 KECCAK256 SWAP1 PUSH1 0x5 MUL ADD PUSH1 0x1 ADD PUSH1 0x14 PUSH2 0x100 EXP DUP2 SLOAD DUP2 PUSH1 0xFF MUL NOT AND SWAP1 DUP4 PUSH1 0x3 DUP2 GT ISZERO PUSH2 0x1A82 JUMPI PUSH2 0x1A81 PUSH2 0x3548 JUMP JUMPDEST JUMPDEST MUL OR SWAP1 SSTORE POP PUSH2 0x1AD8 JUMP JUMPDEST PUSH1 0x2 DUP1 DUP5 DUP2 SLOAD DUP2 LT PUSH2 0x1AA1 JUMPI PUSH2 0x1AA0 PUSH2 0x40C4 JUMP JUMPDEST JUMPDEST SWAP1 PUSH0 MSTORE PUSH1 0x20 PUSH0 KECCAK256 SWAP1 PUSH1 0x5 MUL ADD PUSH1 0x1 ADD PUSH1 0x14 PUSH2 0x100 EXP DUP2 SLOAD DUP2 PUSH1 0xFF MUL NOT AND SWAP1 DUP4 PUSH1 0x3 DUP2 GT ISZERO PUSH2 0x1AD2 JUMPI PUSH2 0x1AD1 PUSH2 0x3548 JUMP JUMPDEST JUMPDEST MUL OR SWAP1 SSTORE POP JUMPDEST POP POP POP POP JUMP JUMPDEST PUSH0 DUP1 DUP1 DUP1 PUSH2 0x1AEB SWAP1 PUSH2 0x4205 JUMP JUMPDEST SWAP2 POP POP DUP3 TIMESTAMP CALLER DUP4 PUSH1 0x40 MLOAD PUSH1 0x20 ADD PUSH2 0x1B04 SWAP4 SWAP3 SWAP2 SWAP1 PUSH2 0x4461 JUMP JUMPDEST PUSH1 0x40 MLOAD PUSH1 0x20 DUP2 DUP4 SUB SUB DUP2 MSTORE SWAP1 PUSH1 0x40 MSTORE DUP1 MLOAD SWAP1 PUSH1 0x20 ADD KECCAK256 PUSH0 SHR PUSH2 0x1B26 SWAP2 SWAP1 PUSH2 0x44CA JUMP JUMPDEST SWAP2 POP POP SWAP2 SWAP1 POP JUMP JUMPDEST PUSH1 0x2 DUP2 DUP2 PUSH1 0x2 DUP2 GT ISZERO PUSH2 0x1B44 JUMPI PUSH2 0x1B43 PUSH2 0x3548 JUMP JUMPDEST JUMPDEST PUSH1 0x3 PUSH0 CALLER PUSH20 0xFFFFFFFFFFFFFFFFFFFFFFFFFFFFFFFFFFFFFFFF AND PUSH20 0xFFFFFFFFFFFFFFFFFFFFFFFFFFFFFFFFFFFFFFFF AND DUP2 MSTORE PUSH1 0x20 ADD SWAP1 DUP2 MSTORE PUSH1 0x20 ADD PUSH0 KECCAK256 PUSH0 ADD PUSH0 SWAP1 SLOAD SWAP1 PUSH2 0x100 EXP SWAP1 DIV PUSH1 0xFF AND PUSH1 0x2 DUP2 GT ISZERO PUSH2 0x1BA2 JUMPI PUSH2 0x1BA1 PUSH2 0x3548 JUMP JUMPDEST JUMPDEST EQ PUSH2 0x1BE2 JUMPI PUSH1 0x40 MLOAD PUSH32 0x8C379A000000000000000000000000000000000000000000000000000000000 DUP2 MSTORE PUSH1 0x4 ADD PUSH2 0x1BD9 SWAP1 PUSH2 0x3D4F JUMP JUMPDEST PUSH1 0x40 MLOAD DUP1 SWAP2 SUB SWAP1 REVERT JUMPDEST DUP1 PUSH20 0xFFFFFFFFFFFFFFFFFFFFFFFFFFFFFFFFFFFFFFFF AND CALLER PUSH20 0xFFFFFFFFFFFFFFFFFFFFFFFFFFFFFFFFFFFFFFFF AND EQ PUSH2 0x1C50 JUMPI PUSH1 0x40 MLOAD PUSH32 0x8C379A000000000000000000000000000000000000000000000000000000000 DUP2 MSTORE PUSH1 0x4 ADD PUSH2 0x1C47 SWAP1 PUSH2 0x3DDD JUMP JUMPDEST PUSH1 0x40 MLOAD DUP1 SWAP2 SUB SWAP1 REVERT JUMPDEST PUSH0 PUSH1 0x40 MLOAD DUP1 PUSH1 0xA0 ADD PUSH1 0x40 MSTORE DUP1 DUP6 PUSH20 0xFFFFFFFFFFFFFFFFFFFFFFFFFFFFFFFFFFFFFFFF AND DUP2 MSTORE PUSH1 0x20 ADD DUP11 DUP2 MSTORE PUSH1 0x20 ADD PUSH1 0x2 DUP11 PUSH2 0x1C8B SWAP2 SWAP1 PUSH2 0x44FA JUMP JUMPDEST DUP2 MSTORE PUSH1 0x20 ADD DUP9 DUP9 DUP1 DUP1 PUSH1 0x1F ADD PUSH1 0x20 DUP1 SWAP2 DIV MUL PUSH1 0x20 ADD PUSH1 0x40 MLOAD SWAP1 DUP2 ADD PUSH1 0x40 MSTORE DUP1 SWAP4 SWAP3 SWAP2 SWAP1 DUP2 DUP2 MSTORE PUSH1 0x20 ADD DUP4 DUP4 DUP1 DUP3 DUP5 CALLDATACOPY PUSH0 DUP2 DUP5 ADD MSTORE PUSH1 0x1F NOT PUSH1 0x1F DUP3 ADD AND SWAP1 POP DUP1 DUP4 ADD SWAP3 POP POP POP POP POP POP POP DUP2 MSTORE PUSH1 0x20 ADD DUP7 DUP2 MSTORE POP SWAP1 POP PUSH1 0x6 PUSH0 DUP6 PUSH20 0xFFFFFFFFFFFFFFFFFFFFFFFFFFFFFFFFFFFFFFFF AND PUSH20 0xFFFFFFFFFFFFFFFFFFFFFFFFFFFFFFFFFFFFFFFF AND DUP2 MSTORE PUSH1 0x20 ADD SWAP1 DUP2 MSTORE PUSH1 0x20 ADD PUSH0 KECCAK256 DUP2 SWAP1 DUP1 PUSH1 0x1 DUP2 SLOAD ADD DUP1 DUP3 SSTORE DUP1 SWAP2 POP POP PUSH1 0x1 SWAP1 SUB SWAP1 PUSH0 MSTORE PUSH1 0x20 PUSH0 KECCAK256 SWAP1 PUSH1 0x5 MUL ADD PUSH0 SWAP1 SWAP2 SWAP1 SWAP2 SWAP1 SWAP2 POP PUSH0 DUP3 ADD MLOAD DUP2 PUSH0 ADD PUSH0 PUSH2 0x100 EXP DUP2 SLOAD DUP2 PUSH20 0xFFFFFFFFFFFFFFFFFFFFFFFFFFFFFFFFFFFFFFFF MUL NOT AND SWAP1 DUP4 PUSH20 0xFFFFFFFFFFFFFFFFFFFFFFFFFFFFFFFFFFFFFFFF AND MUL OR SWAP1 SSTORE POP PUSH1 0x20 DUP3 ADD MLOAD DUP2 PUSH1 0x1 ADD SSTORE PUSH1 0x40 DUP3 ADD MLOAD DUP2 PUSH1 0x2 ADD SSTORE PUSH1 0x60 DUP3 ADD MLOAD DUP2 PUSH1 0x3 ADD SWAP1 DUP2 PUSH2 0x1DB0 SWAP2 SWAP1 PUSH2 0x3FF5 JUMP JUMPDEST POP PUSH1 0x80 DUP3 ADD MLOAD DUP2 PUSH1 0x4 ADD SSTORE POP POP POP POP POP POP POP POP POP POP POP JUMP JUMPDEST PUSH1 0x1 PUSH0 SWAP1 SLOAD SWAP1 PUSH2 0x100 EXP SWAP1 DIV PUSH20 0xFFFFFFFFFFFFFFFFFFFFFFFFFFFFFFFFFFFFFFFF AND DUP2 JUMP JUMPDEST PUSH0 PUSH1 0x2 DUP2 GT ISZERO PUSH2 0x1E00 JUMPI PUSH2 0x1DFF PUSH2 0x3548 JUMP JUMPDEST JUMPDEST PUSH1 0x3 PUSH0 CALLER PUSH20 0xFFFFFFFFFFFFFFFFFFFFFFFFFFFFFFFFFFFFFFFF AND PUSH20 0xFFFFFFFFFFFFFFFFFFFFFFFFFFFFFFFFFFFFFFFF AND DUP2 MSTORE PUSH1 0x20 ADD SWAP1 DUP2 MSTORE PUSH1 0x20 ADD PUSH0 KECCAK256 PUSH0 ADD PUSH0 SWAP1 SLOAD SWAP1 PUSH2 0x100 EXP SWAP1 DIV PUSH1 0xFF AND PUSH1 0x2 DUP2 GT ISZERO PUSH2 0x1E5E JUMPI PUSH2 0x1E5D PUSH2 0x3548 JUMP JUMPDEST JUMPDEST SUB PUSH2 0x1F02 JUMPI PUSH1 0x40 MLOAD DUP1 PUSH1 0x40 ADD PUSH1 0x40 MSTORE DUP1 PUSH0 PUSH1 0x2 DUP2 GT ISZERO PUSH2 0x1E81 JUMPI PUSH2 0x1E80 PUSH2 0x3548 JUMP JUMPDEST JUMPDEST DUP2 MSTORE PUSH1 0x20 ADD PUSH0 DUP2 MSTORE POP PUSH1 0x3 PUSH0 CALLER PUSH20 0xFFFFFFFFFFFFFFFFFFFFFFFFFFFFFFFFFFFFFFFF AND PUSH20 0xFFFFFFFFFFFFFFFFFFFFFFFFFFFFFFFFFFFFFFFF AND DUP2 MSTORE PUSH1 0x20 ADD SWAP1 DUP2 MSTORE PUSH1 0x20 ADD PUSH0 KECCAK256 PUSH0 DUP3 ADD MLOAD DUP2 PUSH0 ADD PUSH0 PUSH2 0x100 EXP DUP2 SLOAD DUP2 PUSH1 0xFF MUL NOT AND SWAP1 DUP4 PUSH1 0x2 DUP2 GT ISZERO PUSH2 0x1EEF JUMPI PUSH2 0x1EEE PUSH2 0x3548 JUMP JUMPDEST JUMPDEST MUL OR SWAP1 SSTORE POP PUSH1 0x20 DUP3 ADD MLOAD DUP2 PUSH1 0x1 ADD SSTORE SWAP1 POP POP JUMPDEST PUSH0 DUP4 GT PUSH2 0x1F44 JUMPI PUSH1 0x40 MLOAD PUSH32 0x8C379A000000000000000000000000000000000000000000000000000000000 DUP2 MSTORE PUSH1 0x4 ADD PUSH2 0x1F3B SWAP1 PUSH2 0x42BC JUMP JUMPDEST PUSH1 0x40 MLOAD DUP1 SWAP2 SUB SWAP1 REVERT JUMPDEST PUSH1 0x5 PUSH0 DUP6 PUSH20 0xFFFFFFFFFFFFFFFFFFFFFFFFFFFFFFFFFFFFFFFF AND PUSH20 0xFFFFFFFFFFFFFFFFFFFFFFFFFFFFFFFFFFFFFFFF AND DUP2 MSTORE PUSH1 0x20 ADD SWAP1 DUP2 MSTORE PUSH1 0x20 ADD PUSH0 KECCAK256 DUP1 SLOAD SWAP1 POP DUP3 LT PUSH2 0x1FC6 JUMPI PUSH1 0x40 MLOAD PUSH32 0x8C379A000000000000000000000000000000000000000000000000000000000 DUP2 MSTORE PUSH1 0x4 ADD PUSH2 0x1FBD SWAP1 PUSH2 0x4324 JUMP JUMPDEST PUSH1 0x40 MLOAD DUP1 SWAP2 SUB SWAP1 REVERT JUMPDEST PUSH1 0x5 PUSH0 DUP6 PUSH20 0xFFFFFFFFFFFFFFFFFFFFFFFFFFFFFFFFFFFFFFFF AND PUSH20 0xFFFFFFFFFFFFFFFFFFFFFFFFFFFFFFFFFFFFFFFF AND DUP2 MSTORE PUSH1 0x20 ADD SWAP1 DUP2 MSTORE PUSH1 0x20 ADD PUSH0 KECCAK256 DUP3 DUP2 SLOAD DUP2 LT PUSH2 0x2015 JUMPI PUSH2 0x2014 PUSH2 0x40C4 JUMP JUMPDEST JUMPDEST SWAP1 PUSH0 MSTORE PUSH1 0x20 PUSH0 KECCAK256 SWAP1 PUSH1 0x5 MUL ADD PUSH1 0x1 ADD SLOAD DUP4 GT ISZERO PUSH2 0x2067 JUMPI PUSH1 0x40 MLOAD PUSH32 0x8C379A000000000000000000000000000000000000000000000000000000000 DUP2 MSTORE PUSH1 0x4 ADD PUSH2 0x205E SWAP1 PUSH2 0x4574 JUMP JUMPDEST PUSH1 0x40 MLOAD DUP1 SWAP2 SUB SWAP1 REVERT JUMPDEST PUSH0 PUSH8 0xDE0B6B3A7640000 PUSH1 0x5 PUSH0 DUP8 PUSH20 0xFFFFFFFFFFFFFFFFFFFFFFFFFFFFFFFFFFFFFFFF AND PUSH20 0xFFFFFFFFFFFFFFFFFFFFFFFFFFFFFFFFFFFFFFFF AND DUP2 MSTORE PUSH1 0x20 ADD SWAP1 DUP2 MSTORE PUSH1 0x20 ADD PUSH0 KECCAK256 DUP5 DUP2 SLOAD DUP2 LT PUSH2 0x20C0 JUMPI PUSH2 0x20BF PUSH2 0x40C4 JUMP JUMPDEST JUMPDEST SWAP1 PUSH0 MSTORE PUSH1 0x20 PUSH0 KECCAK256 SWAP1 PUSH1 0x5 MUL ADD PUSH1 0x2 ADD SLOAD DUP6 PUSH2 0x20DB SWAP2 SWAP1 PUSH2 0x411E JUMP JUMPDEST PUSH2 0x20E5 SWAP2 SWAP1 PUSH2 0x411E JUMP JUMPDEST SWAP1 POP CALLER PUSH20 0xFFFFFFFFFFFFFFFFFFFFFFFFFFFFFFFFFFFFFFFF AND PUSH1 0x7 DUP4 PUSH1 0x40 MLOAD PUSH2 0x210E SWAP2 SWAP1 PUSH2 0x4592 JUMP JUMPDEST SWAP1 DUP2 MSTORE PUSH1 0x20 ADD PUSH1 0x40 MLOAD DUP1 SWAP2 SUB SWAP1 KECCAK256 PUSH0 SWAP1 SLOAD SWAP1 PUSH2 0x100 EXP SWAP1 DIV PUSH20 0xFFFFFFFFFFFFFFFFFFFFFFFFFFFFFFFFFFFFFFFF AND PUSH20 0xFFFFFFFFFFFFFFFFFFFFFFFFFFFFFFFFFFFFFFFF AND SUB PUSH2 0x21CF JUMPI PUSH1 0x64 PUSH1 0x5A DUP3 PUSH2 0x2166 SWAP2 SWAP1 PUSH2 0x411E JUMP JUMPDEST PUSH2 0x2170 SWAP2 SWAP1 PUSH2 0x44FA JUMP JUMPDEST SWAP1 POP PUSH0 PUSH1 0x7 DUP4 PUSH1 0x40 MLOAD PUSH2 0x2183 SWAP2 SWAP1 PUSH2 0x4592 JUMP JUMPDEST SWAP1 DUP2 MSTORE PUSH1 0x20 ADD PUSH1 0x40 MLOAD DUP1 SWAP2 SUB SWAP1 KECCAK256 PUSH0 PUSH2 0x100 EXP DUP2 SLOAD DUP2 PUSH20 0xFFFFFFFFFFFFFFFFFFFFFFFFFFFFFFFFFFFFFFFF MUL NOT AND SWAP1 DUP4 PUSH20 0xFFFFFFFFFFFFFFFFFFFFFFFFFFFFFFFFFFFFFFFF AND MUL OR SWAP1 SSTORE POP JUMPDEST DUP1 CALLVALUE LT ISZERO PUSH2 0x2212 JUMPI PUSH1 0x40 MLOAD PUSH32 0x8C379A000000000000000000000000000000000000000000000000000000000 DUP2 MSTORE PUSH1 0x4 ADD PUSH2 0x2209 SWAP1 PUSH2 0x45F2 JUMP JUMPDEST PUSH1 0x40 MLOAD DUP1 SWAP2 SUB SWAP1 REVERT JUMPDEST PUSH0 DUP1 JUMPDEST PUSH1 0x4 PUSH0 CALLER PUSH20 0xFFFFFFFFFFFFFFFFFFFFFFFFFFFFFFFFFFFFFFFF AND PUSH20 0xFFFFFFFFFFFFFFFFFFFFFFFFFFFFFFFFFFFFFFFF AND DUP2 MSTORE PUSH1 0x20 ADD SWAP1 DUP2 MSTORE PUSH1 0x20 ADD PUSH0 KECCAK256 DUP1 SLOAD SWAP1 POP DUP2 LT ISZERO PUSH2 0x23D8 JUMPI PUSH1 0x4 PUSH0 DUP9 PUSH20 0xFFFFFFFFFFFFFFFFFFFFFFFFFFFFFFFFFFFFFFFF AND PUSH20 0xFFFFFFFFFFFFFFFFFFFFFFFFFFFFFFFFFFFFFFFF AND DUP2 MSTORE PUSH1 0x20 ADD SWAP1 DUP2 MSTORE PUSH1 0x20 ADD PUSH0 KECCAK256 DUP6 DUP2 SLOAD DUP2 LT PUSH2 0x22AC JUMPI PUSH2 0x22AB PUSH2 0x40C4 JUMP JUMPDEST JUMPDEST SWAP1 PUSH0 MSTORE PUSH1 0x20 PUSH0 KECCAK256 SWAP1 PUSH1 0x5 MUL ADD PUSH1 0x3 ADD PUSH1 0x40 MLOAD PUSH2 0x22C8 SWAP2 SWAP1 PUSH2 0x46AC JUMP JUMPDEST PUSH1 0x40 MLOAD DUP1 SWAP2 SUB SWAP1 KECCAK256 PUSH1 0x4 PUSH0 CALLER PUSH20 0xFFFFFFFFFFFFFFFFFFFFFFFFFFFFFFFFFFFFFFFF AND PUSH20 0xFFFFFFFFFFFFFFFFFFFFFFFFFFFFFFFFFFFFFFFF AND DUP2 MSTORE PUSH1 0x20 ADD SWAP1 DUP2 MSTORE PUSH1 0x20 ADD PUSH0 KECCAK256 DUP3 DUP2 SLOAD DUP2 LT PUSH2 0x231F JUMPI PUSH2 0x231E PUSH2 0x40C4 JUMP JUMPDEST JUMPDEST SWAP1 PUSH0 MSTORE PUSH1 0x20 PUSH0 KECCAK256 SWAP1 PUSH1 0x5 MUL ADD PUSH1 0x3 ADD PUSH1 0x40 MLOAD PUSH2 0x233B SWAP2 SWAP1 PUSH2 0x46AC JUMP JUMPDEST PUSH1 0x40 MLOAD DUP1 SWAP2 SUB SWAP1 KECCAK256 SUB PUSH2 0x23C5 JUMPI DUP6 PUSH1 0x4 PUSH0 CALLER PUSH20 0xFFFFFFFFFFFFFFFFFFFFFFFFFFFFFFFFFFFFFFFF AND PUSH20 0xFFFFFFFFFFFFFFFFFFFFFFFFFFFFFFFFFFFFFFFF AND DUP2 MSTORE PUSH1 0x20 ADD SWAP1 DUP2 MSTORE PUSH1 0x20 ADD PUSH0 KECCAK256 DUP3 DUP2 SLOAD DUP2 LT PUSH2 0x2398 JUMPI PUSH2 0x2397 PUSH2 0x40C4 JUMP JUMPDEST JUMPDEST SWAP1 PUSH0 MSTORE PUSH1 0x20 PUSH0 KECCAK256 SWAP1 PUSH1 0x5 MUL ADD PUSH1 0x1 ADD PUSH0 DUP3 DUP3 SLOAD PUSH2 0x23B5 SWAP2 SWAP1 PUSH2 0x415F JUMP JUMPDEST SWAP3 POP POP DUP2 SWAP1 SSTORE POP PUSH1 0x1 SWAP2 POP PUSH2 0x23D8 JUMP JUMPDEST DUP1 DUP1 PUSH2 0x23D0 SWAP1 PUSH2 0x4205 JUMP JUMPDEST SWAP2 POP POP PUSH2 0x2215 JUMP JUMPDEST POP DUP1 PUSH2 0x264A JUMPI PUSH0 PUSH1 0x40 MLOAD DUP1 PUSH1 0xA0 ADD PUSH1 0x40 MSTORE DUP1 CALLER PUSH20 0xFFFFFFFFFFFFFFFFFFFFFFFFFFFFFFFFFFFFFFFF AND DUP2 MSTORE PUSH1 0x20 ADD DUP8 DUP2 MSTORE PUSH1 0x20 ADD PUSH1 0x5 PUSH0 DUP11 PUSH20 0xFFFFFFFFFFFFFFFFFFFFFFFFFFFFFFFFFFFFFFFF AND PUSH20 0xFFFFFFFFFFFFFFFFFFFFFFFFFFFFFFFFFFFFFFFF AND DUP2 MSTORE PUSH1 0x20 ADD SWAP1 DUP2 MSTORE PUSH1 0x20 ADD PUSH0 KECCAK256 DUP8 DUP2 SLOAD DUP2 LT PUSH2 0x245B JUMPI PUSH2 0x245A PUSH2 0x40C4 JUMP JUMPDEST JUMPDEST SWAP1 PUSH0 MSTORE PUSH1 0x20 PUSH0 KECCAK256 SWAP1 PUSH1 0x5 MUL ADD PUSH1 0x2 ADD SLOAD DUP2 MSTORE PUSH1 0x20 ADD PUSH1 0x5 PUSH0 DUP11 PUSH20 0xFFFFFFFFFFFFFFFFFFFFFFFFFFFFFFFFFFFFFFFF AND PUSH20 0xFFFFFFFFFFFFFFFFFFFFFFFFFFFFFFFFFFFFFFFF AND DUP2 MSTORE PUSH1 0x20 ADD SWAP1 DUP2 MSTORE PUSH1 0x20 ADD PUSH0 KECCAK256 DUP8 DUP2 SLOAD DUP2 LT PUSH2 0x24BF JUMPI PUSH2 0x24BE PUSH2 0x40C4 JUMP JUMPDEST JUMPDEST SWAP1 PUSH0 MSTORE PUSH1 0x20 PUSH0 KECCAK256 SWAP1 PUSH1 0x5 MUL ADD PUSH1 0x3 ADD DUP1 SLOAD PUSH2 0x24D9 SWAP1 PUSH2 0x3E28 JUMP JUMPDEST DUP1 PUSH1 0x1F ADD PUSH1 0x20 DUP1 SWAP2 DIV MUL PUSH1 0x20 ADD PUSH1 0x40 MLOAD SWAP1 DUP2 ADD PUSH1 0x40 MSTORE DUP1 SWAP3 SWAP2 SWAP1 DUP2 DUP2 MSTORE PUSH1 0x20 ADD DUP3 DUP1 SLOAD PUSH2 0x2505 SWAP1 PUSH2 0x3E28 JUMP JUMPDEST DUP1 ISZERO PUSH2 0x2550 JUMPI DUP1 PUSH1 0x1F LT PUSH2 0x2527 JUMPI PUSH2 0x100 DUP1 DUP4 SLOAD DIV MUL DUP4 MSTORE SWAP2 PUSH1 0x20 ADD SWAP2 PUSH2 0x2550 JUMP JUMPDEST DUP3 ADD SWAP2 SWAP1 PUSH0 MSTORE PUSH1 0x20 PUSH0 KECCAK256 SWAP1 JUMPDEST DUP2 SLOAD DUP2 MSTORE SWAP1 PUSH1 0x1 ADD SWAP1 PUSH1 0x20 ADD DUP1 DUP4 GT PUSH2 0x2533 JUMPI DUP3 SWAP1 SUB PUSH1 0x1F AND DUP3 ADD SWAP2 JUMPDEST POP POP POP POP POP DUP2 MSTORE PUSH1 0x20 ADD PUSH2 0x2565 PUSH2 0x3E8 PUSH2 0x1ADE JUMP JUMPDEST DUP2 MSTORE POP SWAP1 POP PUSH1 0x4 PUSH0 CALLER PUSH20 0xFFFFFFFFFFFFFFFFFFFFFFFFFFFFFFFFFFFFFFFF AND PUSH20 0xFFFFFFFFFFFFFFFFFFFFFFFFFFFFFFFFFFFFFFFF AND DUP2 MSTORE PUSH1 0x20 ADD SWAP1 DUP2 MSTORE PUSH1 0x20 ADD PUSH0 KECCAK256 DUP2 SWAP1 DUP1 PUSH1 0x1 DUP2 SLOAD ADD DUP1 DUP3 SSTORE DUP1 SWAP2 POP POP PUSH1 0x1 SWAP1 SUB SWAP1 PUSH0 MSTORE PUSH1 0x20 PUSH0 KECCAK256 SWAP1 PUSH1 0x5 MUL ADD PUSH0 SWAP1 SWAP2 SWAP1 SWAP2 SWAP1 SWAP2 POP PUSH0 DUP3 ADD MLOAD DUP2 PUSH0 ADD PUSH0 PUSH2 0x100 EXP DUP2 SLOAD DUP2 PUSH20 0xFFFFFFFFFFFFFFFFFFFFFFFFFFFFFFFFFFFFFFFF MUL NOT AND SWAP1 DUP4 PUSH20 0xFFFFFFFFFFFFFFFFFFFFFFFFFFFFFFFFFFFFFFFF AND MUL OR SWAP1 SSTORE POP PUSH1 0x20 DUP3 ADD MLOAD DUP2 PUSH1 0x1 ADD SSTORE PUSH1 0x40 DUP3 ADD MLOAD DUP2 PUSH1 0x2 ADD SSTORE PUSH1 0x60 DUP3 ADD MLOAD DUP2 PUSH1 0x3 ADD SWAP1 DUP2 PUSH2 0x263B SWAP2 SWAP1 PUSH2 0x3FF5 JUMP JUMPDEST POP PUSH1 0x80 DUP3 ADD MLOAD DUP2 PUSH1 0x4 ADD SSTORE POP POP POP JUMPDEST DUP5 PUSH1 0x5 PUSH0 DUP9 PUSH20 0xFFFFFFFFFFFFFFFFFFFFFFFFFFFFFFFFFFFFFFFF AND PUSH20 0xFFFFFFFFFFFFFFFFFFFFFFFFFFFFFFFFFFFFFFFF AND DUP2 MSTORE PUSH1 0x20 ADD SWAP1 DUP2 MSTORE PUSH1 0x20 ADD PUSH0 KECCAK256 DUP6 DUP2 SLOAD DUP2 LT PUSH2 0x269A JUMPI PUSH2 0x2699 PUSH2 0x40C4 JUMP JUMPDEST JUMPDEST SWAP1 PUSH0 MSTORE PUSH1 0x20 PUSH0 KECCAK256 SWAP1 PUSH1 0x5 MUL ADD PUSH1 0x1 ADD PUSH0 DUP3 DUP3 SLOAD PUSH2 0x26B7 SWAP2 SWAP1 PUSH2 0x4192 JUMP JUMPDEST SWAP3 POP POP DUP2 SWAP1 SSTORE POP DUP2 PUSH1 0x3 PUSH0 DUP9 PUSH20 0xFFFFFFFFFFFFFFFFFFFFFFFFFFFFFFFFFFFFFFFF AND PUSH20 0xFFFFFFFFFFFFFFFFFFFFFFFFFFFFFFFFFFFFFFFF AND DUP2 MSTORE PUSH1 0x20 ADD SWAP1 DUP2 MSTORE PUSH1 0x20 ADD PUSH0 KECCAK256 PUSH1 0x1 ADD PUSH0 DUP3 DUP3 SLOAD PUSH2 0x270D SWAP2 SWAP1 PUSH2 0x415F JUMP JUMPDEST SWAP3 POP POP DUP2 SWAP1 SSTORE POP DUP2 CALLVALUE GT ISZERO PUSH2 0x276C JUMPI CALLER PUSH20 0xFFFFFFFFFFFFFFFFFFFFFFFFFFFFFFFFFFFFFFFF AND PUSH2 0x8FC DUP4 CALLVALUE PUSH2 0x2742 SWAP2 SWAP1 PUSH2 0x4192 JUMP JUMPDEST SWAP1 DUP2 ISZERO MUL SWAP1 PUSH1 0x40 MLOAD PUSH0 PUSH1 0x40 MLOAD DUP1 DUP4 SUB DUP2 DUP6 DUP9 DUP9 CALL SWAP4 POP POP POP POP ISZERO DUP1 ISZERO PUSH2 0x276A JUMPI RETURNDATASIZE PUSH0 DUP1 RETURNDATACOPY RETURNDATASIZE PUSH0 REVERT JUMPDEST POP JUMPDEST POP POP POP POP POP POP JUMP JUMPDEST DUP1 PUSH20 0xFFFFFFFFFFFFFFFFFFFFFFFFFFFFFFFFFFFFFFFF AND CALLER PUSH20 0xFFFFFFFFFFFFFFFFFFFFFFFFFFFFFFFFFFFFFFFF AND SUB PUSH2 0x27AB JUMPI PUSH0 DUP1 REVERT JUMPDEST DUP1 PUSH1 0x7 DUP4 PUSH1 0x40 MLOAD PUSH2 0x27BC SWAP2 SWAP1 PUSH2 0x4592 JUMP JUMPDEST SWAP1 DUP2 MSTORE PUSH1 0x20 ADD PUSH1 0x40 MLOAD DUP1 SWAP2 SUB SWAP1 KECCAK256 PUSH0 PUSH2 0x100 EXP DUP2 SLOAD DUP2 PUSH20 0xFFFFFFFFFFFFFFFFFFFFFFFFFFFFFFFFFFFFFFFF MUL NOT AND SWAP1 DUP4 PUSH20 0xFFFFFFFFFFFFFFFFFFFFFFFFFFFFFFFFFFFFFFFF AND MUL OR SWAP1 SSTORE POP POP POP JUMP JUMPDEST PUSH1 0x3 PUSH1 0x20 MSTORE DUP1 PUSH0 MSTORE PUSH1 0x40 PUSH0 KECCAK256 PUSH0 SWAP2 POP SWAP1 POP DUP1 PUSH0 ADD PUSH0 SWAP1 SLOAD SWAP1 PUSH2 0x100 EXP SWAP1 DIV PUSH1 0xFF AND SWAP1 DUP1 PUSH1 0x1 ADD SLOAD SWAP1 POP DUP3 JUMP JUMPDEST PUSH1 0x40 MLOAD DUP1 PUSH1 0x40 ADD PUSH1 0x40 MSTORE DUP1 PUSH0 PUSH1 0x2 DUP2 GT ISZERO PUSH2 0x2855 JUMPI PUSH2 0x2854 PUSH2 0x3548 JUMP JUMPDEST JUMPDEST DUP2 MSTORE PUSH1 0x20 ADD PUSH0 DUP2 MSTORE POP PUSH1 0x3 PUSH0 CALLER PUSH20 0xFFFFFFFFFFFFFFFFFFFFFFFFFFFFFFFFFFFFFFFF AND PUSH20 0xFFFFFFFFFFFFFFFFFFFFFFFFFFFFFFFFFFFFFFFF AND DUP2 MSTORE PUSH1 0x20 ADD SWAP1 DUP2 MSTORE PUSH1 0x20 ADD PUSH0 KECCAK256 PUSH0 DUP3 ADD MLOAD DUP2 PUSH0 ADD PUSH0 PUSH2 0x100 EXP DUP2 SLOAD DUP2 PUSH1 0xFF MUL NOT AND SWAP1 DUP4 PUSH1 0x2 DUP2 GT ISZERO PUSH2 0x28C3 JUMPI PUSH2 0x28C2 PUSH2 0x3548 JUMP JUMPDEST JUMPDEST MUL OR SWAP1 SSTORE POP PUSH1 0x20 DUP3 ADD MLOAD DUP2 PUSH1 0x1 ADD SSTORE SWAP1 POP POP JUMP JUMPDEST PUSH1 0x7 DUP2 DUP1 MLOAD PUSH1 0x20 DUP2 ADD DUP3 ADD DUP1 MLOAD DUP5 DUP3 MSTORE PUSH1 0x20 DUP4 ADD PUSH1 0x20 DUP6 ADD KECCAK256 DUP2 DUP4 MSTORE DUP1 SWAP6 POP POP POP POP POP POP PUSH0 SWAP2 POP SLOAD SWAP1 PUSH2 0x100 EXP SWAP1 DIV PUSH20 0xFFFFFFFFFFFFFFFFFFFFFFFFFFFFFFFFFFFFFFFF AND DUP2 JUMP JUMPDEST PUSH0 CALLER DUP2 PUSH1 0x2 DUP2 GT ISZERO PUSH2 0x2934 JUMPI PUSH2 0x2933 PUSH2 0x3548 JUMP JUMPDEST JUMPDEST PUSH1 0x3 PUSH0 CALLER PUSH20 0xFFFFFFFFFFFFFFFFFFFFFFFFFFFFFFFFFFFFFFFF AND PUSH20 0xFFFFFFFFFFFFFFFFFFFFFFFFFFFFFFFFFFFFFFFF AND DUP2 MSTORE PUSH1 0x20 ADD SWAP1 DUP2 MSTORE PUSH1 0x20 ADD PUSH0 KECCAK256 PUSH0 ADD PUSH0 SWAP1 SLOAD SWAP1 PUSH2 0x100 EXP SWAP1 DIV PUSH1 0xFF AND PUSH1 0x2 DUP2 GT ISZERO PUSH2 0x2992 JUMPI PUSH2 0x2991 PUSH2 0x3548 JUMP JUMPDEST JUMPDEST EQ PUSH2 0x29D2 JUMPI PUSH1 0x40 MLOAD PUSH32 0x8C379A000000000000000000000000000000000000000000000000000000000 DUP2 MSTORE PUSH1 0x4 ADD PUSH2 0x29C9 SWAP1 PUSH2 0x3D4F JUMP JUMPDEST PUSH1 0x40 MLOAD DUP1 SWAP2 SUB SWAP1 REVERT JUMPDEST DUP1 PUSH20 0xFFFFFFFFFFFFFFFFFFFFFFFFFFFFFFFFFFFFFFFF AND CALLER PUSH20 0xFFFFFFFFFFFFFFFFFFFFFFFFFFFFFFFFFFFFFFFF AND EQ PUSH2 0x2A40 JUMPI PUSH1 0x40 MLOAD PUSH32 0x8C379A000000000000000000000000000000000000000000000000000000000 DUP2 MSTORE PUSH1 0x4 ADD PUSH2 0x2A37 SWAP1 PUSH2 0x3DDD JUMP JUMPDEST PUSH1 0x40 MLOAD DUP1 SWAP2 SUB SWAP1 REVERT JUMPDEST PUSH1 0x1 PUSH1 0x3 DUP2 GT ISZERO PUSH2 0x2A54 JUMPI PUSH2 0x2A53 PUSH2 0x3548 JUMP JUMPDEST JUMPDEST PUSH1 0x2 DUP5 DUP2 SLOAD DUP2 LT PUSH2 0x2A68 JUMPI PUSH2 0x2A67 PUSH2 0x40C4 JUMP JUMPDEST JUMPDEST SWAP1 PUSH0 MSTORE PUSH1 0x20 PUSH0 KECCAK256 SWAP1 PUSH1 0x5 MUL ADD PUSH1 0x1 ADD PUSH1 0x14 SWAP1 SLOAD SWAP1 PUSH2 0x100 EXP SWAP1 DIV PUSH1 0xFF AND PUSH1 0x3 DUP2 GT ISZERO PUSH2 0x2A97 JUMPI PUSH2 0x2A96 PUSH2 0x3548 JUMP JUMPDEST JUMPDEST EQ PUSH2 0x2AA0 JUMPI PUSH0 DUP1 REVERT JUMPDEST DUP4 ISZERO PUSH2 0x2B2A JUMPI PUSH2 0x2B25 PUSH1 0x2 DUP5 DUP2 SLOAD DUP2 LT PUSH2 0x2ABD JUMPI PUSH2 0x2ABC PUSH2 0x40C4 JUMP JUMPDEST JUMPDEST SWAP1 PUSH0 MSTORE PUSH1 0x20 PUSH0 KECCAK256 SWAP1 PUSH1 0x5 MUL ADD PUSH1 0x1 ADD PUSH0 SWAP1 SLOAD SWAP1 PUSH2 0x100 EXP SWAP1 DIV PUSH20 0xFFFFFFFFFFFFFFFFFFFFFFFFFFFFFFFFFFFFFFFF AND PUSH1 0x2 DUP6 DUP2 SLOAD DUP2 LT PUSH2 0x2B00 JUMPI PUSH2 0x2AFF PUSH2 0x40C4 JUMP JUMPDEST JUMPDEST SWAP1 PUSH0 MSTORE PUSH1 0x20 PUSH0 KECCAK256 SWAP1 PUSH1 0x5 MUL ADD PUSH1 0x4 ADD SLOAD DUP6 PUSH1 0x40 MLOAD DUP1 PUSH1 0x20 ADD PUSH1 0x40 MSTORE DUP1 PUSH0 DUP2 MSTORE POP PUSH2 0x1DED JUMP JUMPDEST PUSH2 0x2B84 JUMP JUMPDEST PUSH1 0x2 PUSH1 0x3 DUP2 GT ISZERO PUSH2 0x2B3E JUMPI PUSH2 0x2B3D PUSH2 0x3548 JUMP JUMPDEST JUMPDEST PUSH1 0x2 DUP5 DUP2 SLOAD DUP2 LT PUSH2 0x2B52 JUMPI PUSH2 0x2B51 PUSH2 0x40C4 JUMP JUMPDEST JUMPDEST SWAP1 PUSH0 MSTORE PUSH1 0x20 PUSH0 KECCAK256 SWAP1 PUSH1 0x5 MUL ADD PUSH1 0x1 ADD PUSH1 0x14 SWAP1 SLOAD SWAP1 PUSH2 0x100 EXP SWAP1 DIV PUSH1 0xFF AND PUSH1 0x3 DUP2 GT ISZERO PUSH2 0x2B81 JUMPI PUSH2 0x2B80 PUSH2 0x3548 JUMP JUMPDEST JUMPDEST POP POP JUMPDEST POP POP POP POP JUMP JUMPDEST DUP1 PUSH20 0xFFFFFFFFFFFFFFFFFFFFFFFFFFFFFFFFFFFFFFFF AND PUSH2 0x8FC PUSH1 0x3 PUSH0 DUP5 PUSH20 0xFFFFFFFFFFFFFFFFFFFFFFFFFFFFFFFFFFFFFFFF AND PUSH20 0xFFFFFFFFFFFFFFFFFFFFFFFFFFFFFFFFFFFFFFFF AND DUP2 MSTORE PUSH1 0x20 ADD SWAP1 DUP2 MSTORE PUSH1 0x20 ADD PUSH0 KECCAK256 PUSH1 0x1 ADD SLOAD SWAP1 DUP2 ISZERO MUL SWAP1 PUSH1 0x40 MLOAD PUSH0 PUSH1 0x40 MLOAD DUP1 DUP4 SUB DUP2 DUP6 DUP9 DUP9 CALL SWAP4 POP POP POP POP ISZERO DUP1 ISZERO PUSH2 0x2C0D JUMPI RETURNDATASIZE PUSH0 DUP1 RETURNDATACOPY RETURNDATASIZE PUSH0 REVERT JUMPDEST POP POP JUMP JUMPDEST PUSH1 0x1 DUP5 DUP2 PUSH1 0x2 DUP2 GT ISZERO PUSH2 0x2C27 JUMPI PUSH2 0x2C26 PUSH2 0x3548 JUMP JUMPDEST JUMPDEST PUSH1 0x3 PUSH0 CALLER PUSH20 0xFFFFFFFFFFFFFFFFFFFFFFFFFFFFFFFFFFFFFFFF AND PUSH20 0xFFFFFFFFFFFFFFFFFFFFFFFFFFFFFFFFFFFFFFFF AND DUP2 MSTORE PUSH1 0x20 ADD SWAP1 DUP2 MSTORE PUSH1 0x20 ADD PUSH0 KECCAK256 PUSH0 ADD PUSH0 SWAP1 SLOAD SWAP1 PUSH2 0x100 EXP SWAP1 DIV PUSH1 0xFF AND PUSH1 0x2 DUP2 GT ISZERO PUSH2 0x2C85 JUMPI PUSH2 0x2C84 PUSH2 0x3548 JUMP JUMPDEST JUMPDEST EQ PUSH2 0x2CC5 JUMPI PUSH1 0x40 MLOAD PUSH32 0x8C379A000000000000000000000000000000000000000000000000000000000 DUP2 MSTORE PUSH1 0x4 ADD PUSH2 0x2CBC SWAP1 PUSH2 0x3D4F JUMP JUMPDEST PUSH1 0x40 MLOAD DUP1 SWAP2 SUB SWAP1 REVERT JUMPDEST DUP1 PUSH20 0xFFFFFFFFFFFFFFFFFFFFFFFFFFFFFFFFFFFFFFFF AND CALLER PUSH20 0xFFFFFFFFFFFFFFFFFFFFFFFFFFFFFFFFFFFFFFFF AND EQ PUSH2 0x2D33 JUMPI PUSH1 0x40 MLOAD PUSH32 0x8C379A000000000000000000000000000000000000000000000000000000000 DUP2 MSTORE PUSH1 0x4 ADD PUSH2 0x2D2A SWAP1 PUSH2 0x3DDD JUMP JUMPDEST PUSH1 0x40 MLOAD DUP1 SWAP2 SUB SWAP1 REVERT JUMPDEST PUSH0 DUP5 GT PUSH2 0x2D75 JUMPI PUSH1 0x40 MLOAD PUSH32 0x8C379A000000000000000000000000000000000000000000000000000000000 DUP2 MSTORE PUSH1 0x4 ADD PUSH2 0x2D6C SWAP1 PUSH2 0x42BC JUMP JUMPDEST PUSH1 0x40 MLOAD DUP1 SWAP2 SUB SWAP1 REVERT JUMPDEST PUSH1 0x6 PUSH0 DUP5 PUSH20 0xFFFFFFFFFFFFFFFFFFFFFFFFFFFFFFFFFFFFFFFF AND PUSH20 0xFFFFFFFFFFFFFFFFFFFFFFFFFFFFFFFFFFFFFFFF AND DUP2 MSTORE PUSH1 0x20 ADD SWAP1 DUP2 MSTORE PUSH1 0x20 ADD PUSH0 KECCAK256 DUP1 SLOAD SWAP1 POP DUP6 LT PUSH2 0x2DF7 JUMPI PUSH1 0x40 MLOAD PUSH32 0x8C379A000000000000000000000000000000000000000000000000000000000 DUP2 MSTORE PUSH1 0x4 ADD PUSH2 0x2DEE SWAP1 PUSH2 0x4324 JUMP JUMPDEST PUSH1 0x40 MLOAD DUP1 SWAP2 SUB SWAP1 REVERT JUMPDEST PUSH0 PUSH1 0x6 PUSH0 DUP6 PUSH20 0xFFFFFFFFFFFFFFFFFFFFFFFFFFFFFFFFFFFFFFFF AND PUSH20 0xFFFFFFFFFFFFFFFFFFFFFFFFFFFFFFFFFFFFFFFF AND DUP2 MSTORE PUSH1 0x20 ADD SWAP1 DUP2 MSTORE PUSH1 0x20 ADD PUSH0 KECCAK256 DUP7 DUP2 SLOAD DUP2 LT PUSH2 0x2E47 JUMPI PUSH2 0x2E46 PUSH2 0x40C4 JUMP JUMPDEST JUMPDEST SWAP1 PUSH0 MSTORE PUSH1 0x20 PUSH0 KECCAK256 SWAP1 PUSH1 0x5 MUL ADD PUSH1 0x2 ADD SLOAD SWAP1 POP PUSH0 PUSH8 0xDE0B6B3A7640000 DUP7 DUP4 PUSH2 0x2E6F SWAP2 SWAP1 PUSH2 0x411E JUMP JUMPDEST PUSH2 0x2E79 SWAP2 SWAP1 PUSH2 0x411E JUMP JUMPDEST SWAP1 POP DUP1 CALLVALUE LT ISZERO PUSH2 0x2EBE JUMPI PUSH1 0x40 MLOAD PUSH32 0x8C379A000000000000000000000000000000000000000000000000000000000 DUP2 MSTORE PUSH1 0x4 ADD PUSH2 0x2EB5 SWAP1 PUSH2 0x45F2 JUMP JUMPDEST PUSH1 0x40 MLOAD DUP1 SWAP2 SUB SWAP1 REVERT JUMPDEST PUSH0 PUSH1 0x6 PUSH0 DUP8 PUSH20 0xFFFFFFFFFFFFFFFFFFFFFFFFFFFFFFFFFFFFFFFF AND PUSH20 0xFFFFFFFFFFFFFFFFFFFFFFFFFFFFFFFFFFFFFFFF AND DUP2 MSTORE PUSH1 0x20 ADD SWAP1 DUP2 MSTORE PUSH1 0x20 ADD PUSH0 KECCAK256 DUP9 DUP2 SLOAD DUP2 LT PUSH2 0x2F0E JUMPI PUSH2 0x2F0D PUSH2 0x40C4 JUMP JUMPDEST JUMPDEST SWAP1 PUSH0 MSTORE PUSH1 0x20 PUSH0 KECCAK256 SWAP1 PUSH1 0x5 MUL ADD PUSH1 0x3 ADD DUP1 SLOAD PUSH2 0x2F28 SWAP1 PUSH2 0x3E28 JUMP JUMPDEST DUP1 PUSH1 0x1F ADD PUSH1 0x20 DUP1 SWAP2 DIV MUL PUSH1 0x20 ADD PUSH1 0x40 MLOAD SWAP1 DUP2 ADD PUSH1 0x40 MSTORE DUP1 SWAP3 SWAP2 SWAP1 DUP2 DUP2 MSTORE PUSH1 0x20 ADD DUP3 DUP1 SLOAD PUSH2 0x2F54 SWAP1 PUSH2 0x3E28 JUMP JUMPDEST DUP1 ISZERO PUSH2 0x2F9F JUMPI DUP1 PUSH1 0x1F LT PUSH2 0x2F76 JUMPI PUSH2 0x100 DUP1 DUP4 SLOAD DIV MUL DUP4 MSTORE SWAP2 PUSH1 0x20 ADD SWAP2 PUSH2 0x2F9F JUMP JUMPDEST DUP3 ADD SWAP2 SWAP1 PUSH0 MSTORE PUSH1 0x20 PUSH0 KECCAK256 SWAP1 JUMPDEST DUP2 SLOAD DUP2 MSTORE SWAP1 PUSH1 0x1 ADD SWAP1 PUSH1 0x20 ADD DUP1 DUP4 GT PUSH2 0x2F82 JUMPI DUP3 SWAP1 SUB PUSH1 0x1F AND DUP3 ADD SWAP2 JUMPDEST POP POP POP POP POP SWAP1 POP PUSH0 DUP1 JUMPDEST PUSH1 0x5 PUSH0 DUP13 PUSH20 0xFFFFFFFFFFFFFFFFFFFFFFFFFFFFFFFFFFFFFFFF AND PUSH20 0xFFFFFFFFFFFFFFFFFFFFFFFFFFFFFFFFFFFFFFFF AND DUP2 MSTORE PUSH1 0x20 ADD SWAP1 DUP2 MSTORE PUSH1 0x20 ADD PUSH0 KECCAK256 DUP1 SLOAD SWAP1 POP DUP2 LT ISZERO PUSH2 0x3101 JUMPI PUSH1 0x5 PUSH0 DUP13 PUSH20 0xFFFFFFFFFFFFFFFFFFFFFFFFFFFFFFFFFFFFFFFF AND PUSH20 0xFFFFFFFFFFFFFFFFFFFFFFFFFFFFFFFFFFFFFFFF AND DUP2 MSTORE PUSH1 0x20 ADD SWAP1 DUP2 MSTORE PUSH1 0x20 ADD PUSH0 KECCAK256 DUP2 DUP2 SLOAD DUP2 LT PUSH2 0x3040 JUMPI PUSH2 0x303F PUSH2 0x40C4 JUMP JUMPDEST JUMPDEST SWAP1 PUSH0 MSTORE PUSH1 0x20 PUSH0 KECCAK256 SWAP1 PUSH1 0x5 MUL ADD PUSH1 0x3 ADD PUSH1 0x40 MLOAD PUSH2 0x305C SWAP2 SWAP1 PUSH2 0x46AC JUMP JUMPDEST PUSH1 0x40 MLOAD DUP1 SWAP2 SUB SWAP1 KECCAK256 DUP4 DUP1 MLOAD SWAP1 PUSH1 0x20 ADD KECCAK256 SUB PUSH2 0x30EE JUMPI DUP9 PUSH1 0x5 PUSH0 DUP14 PUSH20 0xFFFFFFFFFFFFFFFFFFFFFFFFFFFFFFFFFFFFFFFF AND PUSH20 0xFFFFFFFFFFFFFFFFFFFFFFFFFFFFFFFFFFFFFFFF AND DUP2 MSTORE PUSH1 0x20 ADD SWAP1 DUP2 MSTORE PUSH1 0x20 ADD PUSH0 KECCAK256 DUP3 DUP2 SLOAD DUP2 LT PUSH2 0x30C1 JUMPI PUSH2 0x30C0 PUSH2 0x40C4 JUMP JUMPDEST JUMPDEST SWAP1 PUSH0 MSTORE PUSH1 0x20 PUSH0 KECCAK256 SWAP1 PUSH1 0x5 MUL ADD PUSH1 0x1 ADD PUSH0 DUP3 DUP3 SLOAD PUSH2 0x30DE SWAP2 SWAP1 PUSH2 0x415F JUMP JUMPDEST SWAP3 POP POP DUP2 SWAP1 SSTORE POP PUSH1 0x1 SWAP2 POP PUSH2 0x3101 JUMP JUMPDEST DUP1 DUP1 PUSH2 0x30F9 SWAP1 PUSH2 0x4205 JUMP JUMPDEST SWAP2 POP POP PUSH2 0x2FA9 JUMP JUMPDEST POP DUP1 PUSH2 0x3285 JUMPI PUSH0 PUSH1 0x40 MLOAD DUP1 PUSH1 0xA0 ADD PUSH1 0x40 MSTORE DUP1 DUP10 PUSH20 0xFFFFFFFFFFFFFFFFFFFFFFFFFFFFFFFFFFFFFFFF AND DUP2 MSTORE PUSH1 0x20 ADD DUP11 DUP2 MSTORE PUSH1 0x20 ADD DUP7 DUP2 MSTORE PUSH1 0x20 ADD DUP5 DUP2 MSTORE PUSH1 0x20 ADD PUSH1 0x6 PUSH0 DUP12 PUSH20 0xFFFFFFFFFFFFFFFFFFFFFFFFFFFFFFFFFFFFFFFF AND PUSH20 0xFFFFFFFFFFFFFFFFFFFFFFFFFFFFFFFFFFFFFFFF AND DUP2 MSTORE PUSH1 0x20 ADD SWAP1 DUP2 MSTORE PUSH1 0x20 ADD PUSH0 KECCAK256 DUP13 DUP2 SLOAD DUP2 LT PUSH2 0x3190 JUMPI PUSH2 0x318F PUSH2 0x40C4 JUMP JUMPDEST JUMPDEST SWAP1 PUSH0 MSTORE PUSH1 0x20 PUSH0 KECCAK256 SWAP1 PUSH1 0x5 MUL ADD PUSH1 0x4 ADD SLOAD DUP2 MSTORE POP SWAP1 POP PUSH1 0x5 PUSH0 DUP13 PUSH20 0xFFFFFFFFFFFFFFFFFFFFFFFFFFFFFFFFFFFFFFFF AND PUSH20 0xFFFFFFFFFFFFFFFFFFFFFFFFFFFFFFFFFFFFFFFF AND DUP2 MSTORE PUSH1 0x20 ADD SWAP1 DUP2 MSTORE PUSH1 0x20 ADD PUSH0 KECCAK256 DUP2 SWAP1 DUP1 PUSH1 0x1 DUP2 SLOAD ADD DUP1 DUP3 SSTORE DUP1 SWAP2 POP POP PUSH1 0x1 SWAP1 SUB SWAP1 PUSH0 MSTORE PUSH1 0x20 PUSH0 KECCAK256 SWAP1 PUSH1 0x5 MUL ADD PUSH0 SWAP1 SWAP2 SWAP1 SWAP2 SWAP1 SWAP2 POP PUSH0 DUP3 ADD MLOAD DUP2 PUSH0 ADD PUSH0 PUSH2 0x100 EXP DUP2 SLOAD DUP2 PUSH20 0xFFFFFFFFFFFFFFFFFFFFFFFFFFFFFFFFFFFFFFFF MUL NOT AND SWAP1 DUP4 PUSH20 0xFFFFFFFFFFFFFFFFFFFFFFFFFFFFFFFFFFFFFFFF AND MUL OR SWAP1 SSTORE POP PUSH1 0x20 DUP3 ADD MLOAD DUP2 PUSH1 0x1 ADD SSTORE PUSH1 0x40 DUP3 ADD MLOAD DUP2 PUSH1 0x2 ADD SSTORE PUSH1 0x60 DUP3 ADD MLOAD DUP2 PUSH1 0x3 ADD SWAP1 DUP2 PUSH2 0x3276 SWAP2 SWAP1 PUSH2 0x3FF5 JUMP JUMPDEST POP PUSH1 0x80 DUP3 ADD MLOAD DUP2 PUSH1 0x4 ADD SSTORE POP POP POP JUMPDEST DUP8 PUSH1 0x6 PUSH0 DUP10 PUSH20 0xFFFFFFFFFFFFFFFFFFFFFFFFFFFFFFFFFFFFFFFF AND PUSH20 0xFFFFFFFFFFFFFFFFFFFFFFFFFFFFFFFFFFFFFFFF AND DUP2 MSTORE PUSH1 0x20 ADD SWAP1 DUP2 MSTORE PUSH1 0x20 ADD PUSH0 KECCAK256 DUP11 DUP2 SLOAD DUP2 LT PUSH2 0x32D5 JUMPI PUSH2 0x32D4 PUSH2 0x40C4 JUMP JUMPDEST JUMPDEST SWAP1 PUSH0 MSTORE PUSH1 0x20 PUSH0 KECCAK256 SWAP1 PUSH1 0x5 MUL ADD PUSH1 0x1 ADD PUSH0 DUP3 DUP3 SLOAD PUSH2 0x32F2 SWAP2 SWAP1 PUSH2 0x4192 JUMP JUMPDEST SWAP3 POP POP DUP2 SWAP1 SSTORE POP DUP3 CALLVALUE GT ISZERO PUSH2 0x3351 JUMPI CALLER PUSH20 0xFFFFFFFFFFFFFFFFFFFFFFFFFFFFFFFFFFFFFFFF AND PUSH2 0x8FC DUP5 CALLVALUE PUSH2 0x3327 SWAP2 SWAP1 PUSH2 0x4192 JUMP JUMPDEST SWAP1 DUP2 ISZERO MUL SWAP1 PUSH1 0x40 MLOAD PUSH0 PUSH1 0x40 MLOAD DUP1 DUP4 SUB DUP2 DUP6 DUP9 DUP9 CALL SWAP4 POP POP POP POP ISZERO DUP1 ISZERO PUSH2 0x334F JUMPI RETURNDATASIZE PUSH0 DUP1 RETURNDATACOPY RETURNDATASIZE PUSH0 REVERT JUMPDEST POP JUMPDEST POP POP POP POP POP POP POP POP POP POP JUMP JUMPDEST POP DUP1 SLOAD PUSH2 0x3369 SWAP1 PUSH2 0x3E28 JUMP JUMPDEST PUSH0 DUP3 SSTORE DUP1 PUSH1 0x1F LT PUSH2 0x337A JUMPI POP PUSH2 0x3397 JUMP JUMPDEST PUSH1 0x1F ADD PUSH1 0x20 SWAP1 DIV SWAP1 PUSH0 MSTORE PUSH1 0x20 PUSH0 KECCAK256 SWAP1 DUP2 ADD SWAP1 PUSH2 0x3396 SWAP2 SWAP1 PUSH2 0x339A JUMP JUMPDEST JUMPDEST POP JUMP JUMPDEST JUMPDEST DUP1 DUP3 GT ISZERO PUSH2 0x33B1 JUMPI PUSH0 DUP2 PUSH0 SWAP1 SSTORE POP PUSH1 0x1 ADD PUSH2 0x339B JUMP JUMPDEST POP SWAP1 JUMP JUMPDEST PUSH0 PUSH1 0x40 MLOAD SWAP1 POP SWAP1 JUMP JUMPDEST PUSH0 DUP1 REVERT JUMPDEST PUSH0 DUP1 REVERT JUMPDEST PUSH0 DUP2 SWAP1 POP SWAP2 SWAP1 POP JUMP JUMPDEST PUSH2 0x33D8 DUP2 PUSH2 0x33C6 JUMP JUMPDEST DUP2 EQ PUSH2 0x33E2 JUMPI PUSH0 DUP1 REVERT JUMPDEST POP JUMP JUMPDEST PUSH0 DUP2 CALLDATALOAD SWAP1 POP PUSH2 0x33F3 DUP2 PUSH2 0x33CF JUMP JUMPDEST SWAP3 SWAP2 POP POP JUMP JUMPDEST PUSH0 DUP1 REVERT JUMPDEST PUSH0 DUP1 REVERT JUMPDEST PUSH0 DUP1 REVERT JUMPDEST PUSH0 DUP1 DUP4 PUSH1 0x1F DUP5 ADD SLT PUSH2 0x341A JUMPI PUSH2 0x3419 PUSH2 0x33F9 JUMP JUMPDEST JUMPDEST DUP3 CALLDATALOAD SWAP1 POP PUSH8 0xFFFFFFFFFFFFFFFF DUP2 GT ISZERO PUSH2 0x3437 JUMPI PUSH2 0x3436 PUSH2 0x33FD JUMP JUMPDEST JUMPDEST PUSH1 0x20 DUP4 ADD SWAP2 POP DUP4 PUSH1 0x1 DUP3 MUL DUP4 ADD GT ISZERO PUSH2 0x3453 JUMPI PUSH2 0x3452 PUSH2 0x3401 JUMP JUMPDEST JUMPDEST SWAP3 POP SWAP3 SWAP1 POP JUMP JUMPDEST PUSH0 DUP1 PUSH0 DUP1 PUSH0 PUSH1 0x80 DUP7 DUP9 SUB SLT ISZERO PUSH2 0x3473 JUMPI PUSH2 0x3472 PUSH2 0x33BE JUMP JUMPDEST JUMPDEST PUSH0 PUSH2 0x3480 DUP9 DUP3 DUP10 ADD PUSH2 0x33E5 JUMP JUMPDEST SWAP6 POP POP PUSH1 0x20 PUSH2 0x3491 DUP9 DUP3 DUP10 ADD PUSH2 0x33E5 JUMP JUMPDEST SWAP5 POP POP PUSH1 0x40 DUP7 ADD CALLDATALOAD PUSH8 0xFFFFFFFFFFFFFFFF DUP2 GT ISZERO PUSH2 0x34B2 JUMPI PUSH2 0x34B1 PUSH2 0x33C2 JUMP JUMPDEST JUMPDEST PUSH2 0x34BE DUP9 DUP3 DUP10 ADD PUSH2 0x3405 JUMP JUMPDEST SWAP4 POP SWAP4 POP POP PUSH1 0x60 PUSH2 0x34D1 DUP9 DUP3 DUP10 ADD PUSH2 0x33E5 JUMP JUMPDEST SWAP2 POP POP SWAP3 SWAP6 POP SWAP3 SWAP6 SWAP1 SWAP4 POP JUMP JUMPDEST PUSH0 PUSH1 0x20 DUP3 DUP5 SUB SLT ISZERO PUSH2 0x34F3 JUMPI PUSH2 0x34F2 PUSH2 0x33BE JUMP JUMPDEST JUMPDEST PUSH0 PUSH2 0x3500 DUP5 DUP3 DUP6 ADD PUSH2 0x33E5 JUMP JUMPDEST SWAP2 POP POP SWAP3 SWAP2 POP POP JUMP JUMPDEST PUSH0 PUSH20 0xFFFFFFFFFFFFFFFFFFFFFFFFFFFFFFFFFFFFFFFF DUP3 AND SWAP1 POP SWAP2 SWAP1 POP JUMP JUMPDEST PUSH0 PUSH2 0x3532 DUP3 PUSH2 0x3509 JUMP JUMPDEST SWAP1 POP SWAP2 SWAP1 POP JUMP JUMPDEST PUSH2 0x3542 DUP2 PUSH2 0x3528 JUMP JUMPDEST DUP3 MSTORE POP POP JUMP JUMPDEST PUSH32 0x4E487B7100000000000000000000000000000000000000000000000000000000 PUSH0 MSTORE PUSH1 0x21 PUSH1 0x4 MSTORE PUSH1 0x24 PUSH0 REVERT JUMPDEST PUSH1 0x4 DUP2 LT PUSH2 0x3586 JUMPI PUSH2 0x3585 PUSH2 0x3548 JUMP JUMPDEST JUMPDEST POP JUMP JUMPDEST PUSH0 DUP2 SWAP1 POP PUSH2 0x3596 DUP3 PUSH2 0x3575 JUMP JUMPDEST SWAP2 SWAP1 POP JUMP JUMPDEST PUSH0 PUSH2 0x35A5 DUP3 PUSH2 0x3589 JUMP JUMPDEST SWAP1 POP SWAP2 SWAP1 POP JUMP JUMPDEST PUSH2 0x35B5 DUP2 PUSH2 0x359B JUMP JUMPDEST DUP3 MSTORE POP POP JUMP JUMPDEST PUSH0 DUP2 MLOAD SWAP1 POP SWAP2 SWAP1 POP JUMP JUMPDEST PUSH0 DUP3 DUP3 MSTORE PUSH1 0x20 DUP3 ADD SWAP1 POP SWAP3 SWAP2 POP POP JUMP JUMPDEST PUSH0 JUMPDEST DUP4 DUP2 LT ISZERO PUSH2 0x35F2 JUMPI DUP1 DUP3 ADD MLOAD DUP2 DUP5 ADD MSTORE PUSH1 0x20 DUP2 ADD SWAP1 POP PUSH2 0x35D7 JUMP JUMPDEST PUSH0 DUP5 DUP5 ADD MSTORE POP POP POP POP JUMP JUMPDEST PUSH0 PUSH1 0x1F NOT PUSH1 0x1F DUP4 ADD AND SWAP1 POP SWAP2 SWAP1 POP JUMP JUMPDEST PUSH0 PUSH2 0x3617 DUP3 PUSH2 0x35BB JUMP JUMPDEST PUSH2 0x3621 DUP2 DUP6 PUSH2 0x35C5 JUMP JUMPDEST SWAP4 POP PUSH2 0x3631 DUP2 DUP6 PUSH1 0x20 DUP7 ADD PUSH2 0x35D5 JUMP JUMPDEST PUSH2 0x363A DUP2 PUSH2 0x35FD JUMP JUMPDEST DUP5 ADD SWAP2 POP POP SWAP3 SWAP2 POP POP JUMP JUMPDEST PUSH2 0x364E DUP2 PUSH2 0x33C6 JUMP JUMPDEST DUP3 MSTORE POP POP JUMP JUMPDEST PUSH0 PUSH1 0xC0 DUP3 ADD SWAP1 POP PUSH2 0x3667 PUSH0 DUP4 ADD DUP10 PUSH2 0x3539 JUMP JUMPDEST PUSH2 0x3674 PUSH1 0x20 DUP4 ADD DUP9 PUSH2 0x3539 JUMP JUMPDEST PUSH2 0x3681 PUSH1 0x40 DUP4 ADD DUP8 PUSH2 0x35AC JUMP JUMPDEST DUP2 DUP2 SUB PUSH1 0x60 DUP4 ADD MSTORE PUSH2 0x3693 DUP2 DUP7 PUSH2 0x360D JUMP JUMPDEST SWAP1 POP PUSH2 0x36A2 PUSH1 0x80 DUP4 ADD DUP6 PUSH2 0x3645 JUMP JUMPDEST PUSH2 0x36AF PUSH1 0xA0 DUP4 ADD DUP5 PUSH2 0x3645 JUMP JUMPDEST SWAP8 SWAP7 POP POP POP POP POP POP POP JUMP JUMPDEST PUSH2 0x36C3 DUP2 PUSH2 0x3528 JUMP JUMPDEST DUP2 EQ PUSH2 0x36CD JUMPI PUSH0 DUP1 REVERT JUMPDEST POP JUMP JUMPDEST PUSH0 DUP2 CALLDATALOAD SWAP1 POP PUSH2 0x36DE DUP2 PUSH2 0x36BA JUMP JUMPDEST SWAP3 SWAP2 POP POP JUMP JUMPDEST PUSH0 DUP1 PUSH1 0x40 DUP4 DUP6 SUB SLT ISZERO PUSH2 0x36FA JUMPI PUSH2 0x36F9 PUSH2 0x33BE JUMP JUMPDEST JUMPDEST PUSH0 PUSH2 0x3707 DUP6 DUP3 DUP7 ADD PUSH2 0x36D0 JUMP JUMPDEST SWAP3 POP POP PUSH1 0x20 PUSH2 0x3718 DUP6 DUP3 DUP7 ADD PUSH2 0x33E5 JUMP JUMPDEST SWAP2 POP POP SWAP3 POP SWAP3 SWAP1 POP JUMP JUMPDEST PUSH0 PUSH1 0xA0 DUP3 ADD SWAP1 POP PUSH2 0x3735 PUSH0 DUP4 ADD DUP9 PUSH2 0x3539 JUMP JUMPDEST PUSH2 0x3742 PUSH1 0x20 DUP4 ADD DUP8 PUSH2 0x3645 JUMP JUMPDEST PUSH2 0x374F PUSH1 0x40 DUP4 ADD DUP7 PUSH2 0x3645 JUMP JUMPDEST DUP2 DUP2 SUB PUSH1 0x60 DUP4 ADD MSTORE PUSH2 0x3761 DUP2 DUP6 PUSH2 0x360D JUMP JUMPDEST SWAP1 POP PUSH2 0x3770 PUSH1 0x80 DUP4 ADD DUP5 PUSH2 0x3645 JUMP JUMPDEST SWAP7 SWAP6 POP POP POP POP POP POP JUMP JUMPDEST PUSH1 0x3 DUP2 LT PUSH2 0x378B JUMPI PUSH2 0x378A PUSH2 0x3548 JUMP JUMPDEST JUMPDEST POP JUMP JUMPDEST PUSH0 DUP2 SWAP1 POP PUSH2 0x379B DUP3 PUSH2 0x377A JUMP JUMPDEST SWAP2 SWAP1 POP JUMP JUMPDEST PUSH0 PUSH2 0x37AA DUP3 PUSH2 0x378E JUMP JUMPDEST SWAP1 POP SWAP2 SWAP1 POP JUMP JUMPDEST PUSH2 0x37BA DUP2 PUSH2 0x37A0 JUMP JUMPDEST DUP3 MSTORE POP POP JUMP JUMPDEST PUSH0 PUSH1 0x40 DUP3 ADD SWAP1 POP PUSH2 0x37D3 PUSH0 DUP4 ADD DUP6 PUSH2 0x3539 JUMP JUMPDEST PUSH2 0x37E0 PUSH1 0x20 DUP4 ADD DUP5 PUSH2 0x37B1 JUMP JUMPDEST SWAP4 SWAP3 POP POP POP JUMP JUMPDEST PUSH1 0x3 DUP2 LT PUSH2 0x37F3 JUMPI PUSH0 DUP1 REVERT JUMPDEST POP JUMP JUMPDEST PUSH0 DUP2 CALLDATALOAD SWAP1 POP PUSH2 0x3804 DUP2 PUSH2 0x37E7 JUMP JUMPDEST SWAP3 SWAP2 POP POP JUMP JUMPDEST PUSH0 PUSH1 0x20 DUP3 DUP5 SUB SLT ISZERO PUSH2 0x381F JUMPI PUSH2 0x381E PUSH2 0x33BE JUMP JUMPDEST JUMPDEST PUSH0 PUSH2 0x382C DUP5 DUP3 DUP6 ADD PUSH2 0x37F6 JUMP JUMPDEST SWAP2 POP POP SWAP3 SWAP2 POP POP JUMP JUMPDEST PUSH0 DUP1 REVERT JUMPDEST PUSH32 0x4E487B7100000000000000000000000000000000000000000000000000000000 PUSH0 MSTORE PUSH1 0x41 PUSH1 0x4 MSTORE PUSH1 0x24 PUSH0 REVERT JUMPDEST PUSH2 0x386F DUP3 PUSH2 0x35FD JUMP JUMPDEST DUP2 ADD DUP2 DUP2 LT PUSH8 0xFFFFFFFFFFFFFFFF DUP3 GT OR ISZERO PUSH2 0x388E JUMPI PUSH2 0x388D PUSH2 0x3839 JUMP JUMPDEST JUMPDEST DUP1 PUSH1 0x40 MSTORE POP POP POP JUMP JUMPDEST PUSH0 PUSH2 0x38A0 PUSH2 0x33B5 JUMP JUMPDEST SWAP1 POP PUSH2 0x38AC DUP3 DUP3 PUSH2 0x3866 JUMP JUMPDEST SWAP2 SWAP1 POP JUMP JUMPDEST PUSH0 PUSH8 0xFFFFFFFFFFFFFFFF DUP3 GT ISZERO PUSH2 0x38CB JUMPI PUSH2 0x38CA PUSH2 0x3839 JUMP JUMPDEST JUMPDEST PUSH2 0x38D4 DUP3 PUSH2 0x35FD JUMP JUMPDEST SWAP1 POP PUSH1 0x20 DUP2 ADD SWAP1 POP SWAP2 SWAP1 POP JUMP JUMPDEST DUP3 DUP2 DUP4 CALLDATACOPY PUSH0 DUP4 DUP4 ADD MSTORE POP POP POP JUMP JUMPDEST PUSH0 PUSH2 0x3901 PUSH2 0x38FC DUP5 PUSH2 0x38B1 JUMP JUMPDEST PUSH2 0x3897 JUMP JUMPDEST SWAP1 POP DUP3 DUP2 MSTORE PUSH1 0x20 DUP2 ADD DUP5 DUP5 DUP5 ADD GT ISZERO PUSH2 0x391D JUMPI PUSH2 0x391C PUSH2 0x3835 JUMP JUMPDEST JUMPDEST PUSH2 0x3928 DUP5 DUP3 DUP6 PUSH2 0x38E1 JUMP JUMPDEST POP SWAP4 SWAP3 POP POP POP JUMP JUMPDEST PUSH0 DUP3 PUSH1 0x1F DUP4 ADD SLT PUSH2 0x3944 JUMPI PUSH2 0x3943 PUSH2 0x33F9 JUMP JUMPDEST JUMPDEST DUP2 CALLDATALOAD PUSH2 0x3954 DUP5 DUP3 PUSH1 0x20 DUP7 ADD PUSH2 0x38EF JUMP JUMPDEST SWAP2 POP POP SWAP3 SWAP2 POP POP JUMP JUMPDEST PUSH0 PUSH1 0x20 DUP3 DUP5 SUB SLT ISZERO PUSH2 0x3972 JUMPI PUSH2 0x3971 PUSH2 0x33BE JUMP JUMPDEST JUMPDEST PUSH0 DUP3 ADD CALLDATALOAD PUSH8 0xFFFFFFFFFFFFFFFF DUP2 GT ISZERO PUSH2 0x398F JUMPI PUSH2 0x398E PUSH2 0x33C2 JUMP JUMPDEST JUMPDEST PUSH2 0x399B DUP5 DUP3 DUP6 ADD PUSH2 0x3930 JUMP JUMPDEST SWAP2 POP POP SWAP3 SWAP2 POP POP JUMP JUMPDEST PUSH0 PUSH1 0x20 DUP3 ADD SWAP1 POP DUP2 DUP2 SUB PUSH0 DUP4 ADD MSTORE PUSH2 0x39BC DUP2 DUP5 PUSH2 0x360D JUMP JUMPDEST SWAP1 POP SWAP3 SWAP2 POP POP JUMP JUMPDEST PUSH0 DUP1 PUSH0 PUSH1 0x60 DUP5 DUP7 SUB SLT ISZERO PUSH2 0x39DB JUMPI PUSH2 0x39DA PUSH2 0x33BE JUMP JUMPDEST JUMPDEST PUSH0 PUSH2 0x39E8 DUP7 DUP3 DUP8 ADD PUSH2 0x36D0 JUMP JUMPDEST SWAP4 POP POP PUSH1 0x20 PUSH2 0x39F9 DUP7 DUP3 DUP8 ADD PUSH2 0x33E5 JUMP JUMPDEST SWAP3 POP POP PUSH1 0x40 PUSH2 0x3A0A DUP7 DUP3 DUP8 ADD PUSH2 0x33E5 JUMP JUMPDEST SWAP2 POP POP SWAP3 POP SWAP3 POP SWAP3 JUMP JUMPDEST PUSH0 DUP2 ISZERO ISZERO SWAP1 POP SWAP2 SWAP1 POP JUMP JUMPDEST PUSH2 0x3A28 DUP2 PUSH2 0x3A14 JUMP JUMPDEST DUP2 EQ PUSH2 0x3A32 JUMPI PUSH0 DUP1 REVERT JUMPDEST POP JUMP JUMPDEST PUSH0 DUP2 CALLDATALOAD SWAP1 POP PUSH2 0x3A43 DUP2 PUSH2 0x3A1F JUMP JUMPDEST SWAP3 SWAP2 POP POP JUMP JUMPDEST PUSH0 DUP1 PUSH1 0x40 DUP4 DUP6 SUB SLT ISZERO PUSH2 0x3A5F JUMPI PUSH2 0x3A5E PUSH2 0x33BE JUMP JUMPDEST JUMPDEST PUSH0 PUSH2 0x3A6C DUP6 DUP3 DUP7 ADD PUSH2 0x3A35 JUMP JUMPDEST SWAP3 POP POP PUSH1 0x20 PUSH2 0x3A7D DUP6 DUP3 DUP7 ADD PUSH2 0x33E5 JUMP JUMPDEST SWAP2 POP POP SWAP3 POP SWAP3 SWAP1 POP JUMP JUMPDEST PUSH0 PUSH1 0x20 DUP3 ADD SWAP1 POP PUSH2 0x3A9A PUSH0 DUP4 ADD DUP5 PUSH2 0x3645 JUMP JUMPDEST SWAP3 SWAP2 POP POP JUMP JUMPDEST PUSH0 DUP1 PUSH0 DUP1 PUSH0 DUP1 PUSH1 0xA0 DUP8 DUP10 SUB SLT ISZERO PUSH2 0x3ABA JUMPI PUSH2 0x3AB9 PUSH2 0x33BE JUMP JUMPDEST JUMPDEST PUSH0 PUSH2 0x3AC7 DUP10 DUP3 DUP11 ADD PUSH2 0x33E5 JUMP JUMPDEST SWAP7 POP POP PUSH1 0x20 PUSH2 0x3AD8 DUP10 DUP3 DUP11 ADD PUSH2 0x33E5 JUMP JUMPDEST SWAP6 POP POP PUSH1 0x40 DUP8 ADD CALLDATALOAD PUSH8 0xFFFFFFFFFFFFFFFF DUP2 GT ISZERO PUSH2 0x3AF9 JUMPI PUSH2 0x3AF8 PUSH2 0x33C2 JUMP JUMPDEST JUMPDEST PUSH2 0x3B05 DUP10 DUP3 DUP11 ADD PUSH2 0x3405 JUMP JUMPDEST SWAP5 POP SWAP5 POP POP PUSH1 0x60 PUSH2 0x3B18 DUP10 DUP3 DUP11 ADD PUSH2 0x33E5 JUMP JUMPDEST SWAP3 POP POP PUSH1 0x80 PUSH2 0x3B29 DUP10 DUP3 DUP11 ADD PUSH2 0x36D0 JUMP JUMPDEST SWAP2 POP POP SWAP3 SWAP6 POP SWAP3 SWAP6 POP SWAP3 SWAP6 JUMP JUMPDEST PUSH0 PUSH1 0x20 DUP3 ADD SWAP1 POP PUSH2 0x3B49 PUSH0 DUP4 ADD DUP5 PUSH2 0x3539 JUMP JUMPDEST SWAP3 SWAP2 POP POP JUMP JUMPDEST PUSH0 DUP1 PUSH0 DUP1 PUSH1 0x80 DUP6 DUP8 SUB SLT ISZERO PUSH2 0x3B67 JUMPI PUSH2 0x3B66 PUSH2 0x33BE JUMP JUMPDEST JUMPDEST PUSH0 PUSH2 0x3B74 DUP8 DUP3 DUP9 ADD PUSH2 0x36D0 JUMP JUMPDEST SWAP5 POP POP PUSH1 0x20 PUSH2 0x3B85 DUP8 DUP3 DUP9 ADD PUSH2 0x33E5 JUMP JUMPDEST SWAP4 POP POP PUSH1 0x40 PUSH2 0x3B96 DUP8 DUP3 DUP9 ADD PUSH2 0x33E5 JUMP JUMPDEST SWAP3 POP POP PUSH1 0x60 DUP6 ADD CALLDATALOAD PUSH8 0xFFFFFFFFFFFFFFFF DUP2 GT ISZERO PUSH2 0x3BB7 JUMPI PUSH2 0x3BB6 PUSH2 0x33C2 JUMP JUMPDEST JUMPDEST PUSH2 0x3BC3 DUP8 DUP3 DUP9 ADD PUSH2 0x3930 JUMP JUMPDEST SWAP2 POP POP SWAP3 SWAP6 SWAP2 SWAP5 POP SWAP3 POP JUMP JUMPDEST PUSH0 DUP1 PUSH1 0x40 DUP4 DUP6 SUB SLT ISZERO PUSH2 0x3BE5 JUMPI PUSH2 0x3BE4 PUSH2 0x33BE JUMP JUMPDEST JUMPDEST PUSH0 DUP4 ADD CALLDATALOAD PUSH8 0xFFFFFFFFFFFFFFFF DUP2 GT ISZERO PUSH2 0x3C02 JUMPI PUSH2 0x3C01 PUSH2 0x33C2 JUMP JUMPDEST JUMPDEST PUSH2 0x3C0E DUP6 DUP3 DUP7 ADD PUSH2 0x3930 JUMP JUMPDEST SWAP3 POP POP PUSH1 0x20 PUSH2 0x3C1F DUP6 DUP3 DUP7 ADD PUSH2 0x36D0 JUMP JUMPDEST SWAP2 POP POP SWAP3 POP SWAP3 SWAP1 POP JUMP JUMPDEST PUSH0 PUSH1 0x20 DUP3 DUP5 SUB SLT ISZERO PUSH2 0x3C3E JUMPI PUSH2 0x3C3D PUSH2 0x33BE JUMP JUMPDEST JUMPDEST PUSH0 PUSH2 0x3C4B DUP5 DUP3 DUP6 ADD PUSH2 0x36D0 JUMP JUMPDEST SWAP2 POP POP SWAP3 SWAP2 POP POP JUMP JUMPDEST PUSH0 PUSH1 0x40 DUP3 ADD SWAP1 POP PUSH2 0x3C67 PUSH0 DUP4 ADD DUP6 PUSH2 0x37B1 JUMP JUMPDEST PUSH2 0x3C74 PUSH1 0x20 DUP4 ADD DUP5 PUSH2 0x3645 JUMP JUMPDEST SWAP4 SWAP3 POP POP POP JUMP JUMPDEST PUSH0 DUP1 PUSH0 DUP1 PUSH1 0x80 DUP6 DUP8 SUB SLT ISZERO PUSH2 0x3C93 JUMPI PUSH2 0x3C92 PUSH2 0x33BE JUMP JUMPDEST JUMPDEST PUSH0 PUSH2 0x3CA0 DUP8 DUP3 DUP9 ADD PUSH2 0x36D0 JUMP JUMPDEST SWAP5 POP POP PUSH1 0x20 PUSH2 0x3CB1 DUP8 DUP3 DUP9 ADD PUSH2 0x33E5 JUMP JUMPDEST SWAP4 POP POP PUSH1 0x40 PUSH2 0x3CC2 DUP8 DUP3 DUP9 ADD PUSH2 0x33E5 JUMP JUMPDEST SWAP3 POP POP PUSH1 0x60 PUSH2 0x3CD3 DUP8 DUP3 DUP9 ADD PUSH2 0x36D0 JUMP JUMPDEST SWAP2 POP POP SWAP3 SWAP6 SWAP2 SWAP5 POP SWAP3 POP JUMP JUMPDEST PUSH32 0x596F757220726F6C6520646F6573206E6F7420616C6C6F772074686973206368 PUSH0 DUP3 ADD MSTORE PUSH32 0x616E676500000000000000000000000000000000000000000000000000000000 PUSH1 0x20 DUP3 ADD MSTORE POP JUMP JUMPDEST PUSH0 PUSH2 0x3D39 PUSH1 0x24 DUP4 PUSH2 0x35C5 JUMP JUMPDEST SWAP2 POP PUSH2 0x3D44 DUP3 PUSH2 0x3CDF JUMP JUMPDEST PUSH1 0x40 DUP3 ADD SWAP1 POP SWAP2 SWAP1 POP JUMP JUMPDEST PUSH0 PUSH1 0x20 DUP3 ADD SWAP1 POP DUP2 DUP2 SUB PUSH0 DUP4 ADD MSTORE PUSH2 0x3D66 DUP2 PUSH2 0x3D2D JUMP JUMPDEST SWAP1 POP SWAP2 SWAP1 POP JUMP JUMPDEST PUSH32 0x5468652073686F7020646F6573206E6F74206D61746368207468652073656E64 PUSH0 DUP3 ADD MSTORE PUSH32 0x6572000000000000000000000000000000000000000000000000000000000000 PUSH1 0x20 DUP3 ADD MSTORE POP JUMP JUMPDEST PUSH0 PUSH2 0x3DC7 PUSH1 0x22 DUP4 PUSH2 0x35C5 JUMP JUMPDEST SWAP2 POP PUSH2 0x3DD2 DUP3 PUSH2 0x3D6D JUMP JUMPDEST PUSH1 0x40 DUP3 ADD SWAP1 POP SWAP2 SWAP1 POP JUMP JUMPDEST PUSH0 PUSH1 0x20 DUP3 ADD SWAP1 POP DUP2 DUP2 SUB PUSH0 DUP4 ADD MSTORE PUSH2 0x3DF4 DUP2 PUSH2 0x3DBB JUMP JUMPDEST SWAP1 POP SWAP2 SWAP1 POP JUMP JUMPDEST PUSH32 0x4E487B7100000000000000000000000000000000000000000000000000000000 PUSH0 MSTORE PUSH1 0x22 PUSH1 0x4 MSTORE PUSH1 0x24 PUSH0 REVERT JUMPDEST PUSH0 PUSH1 0x2 DUP3 DIV SWAP1 POP PUSH1 0x1 DUP3 AND DUP1 PUSH2 0x3E3F JUMPI PUSH1 0x7F DUP3 AND SWAP2 POP JUMPDEST PUSH1 0x20 DUP3 LT DUP2 SUB PUSH2 0x3E52 JUMPI PUSH2 0x3E51 PUSH2 0x3DFB JUMP JUMPDEST JUMPDEST POP SWAP2 SWAP1 POP JUMP JUMPDEST PUSH0 DUP2 SWAP1 POP DUP2 PUSH0 MSTORE PUSH1 0x20 PUSH0 KECCAK256 SWAP1 POP SWAP2 SWAP1 POP JUMP JUMPDEST PUSH0 PUSH1 0x20 PUSH1 0x1F DUP4 ADD DIV SWAP1 POP SWAP2 SWAP1 POP JUMP JUMPDEST PUSH0 DUP3 DUP3 SHL SWAP1 POP SWAP3 SWAP2 POP POP JUMP JUMPDEST PUSH0 PUSH1 0x8 DUP4 MUL PUSH2 0x3EB4 PUSH32 0xFFFFFFFFFFFFFFFFFFFFFFFFFFFFFFFFFFFFFFFFFFFFFFFFFFFFFFFFFFFFFFFF DUP3 PUSH2 0x3E79 JUMP JUMPDEST PUSH2 0x3EBE DUP7 DUP4 PUSH2 0x3E79 JUMP JUMPDEST SWAP6 POP DUP1 NOT DUP5 AND SWAP4 POP DUP1 DUP7 AND DUP5 OR SWAP3 POP POP POP SWAP4 SWAP3 POP POP POP JUMP JUMPDEST PUSH0 DUP2 SWAP1 POP SWAP2 SWAP1 POP JUMP JUMPDEST PUSH0 PUSH2 0x3EF9 PUSH2 0x3EF4 PUSH2 0x3EEF DUP5 PUSH2 0x33C6 JUMP JUMPDEST PUSH2 0x3ED6 JUMP JUMPDEST PUSH2 0x33C6 JUMP JUMPDEST SWAP1 POP SWAP2 SWAP1 POP JUMP JUMPDEST PUSH0 DUP2 SWAP1 POP SWAP2 SWAP1 POP JUMP JUMPDEST PUSH2 0x3F12 DUP4 PUSH2 0x3EDF JUMP JUMPDEST PUSH2 0x3F26 PUSH2 0x3F1E DUP3 PUSH2 0x3F00 JUMP JUMPDEST DUP5 DUP5 SLOAD PUSH2 0x3E85 JUMP JUMPDEST DUP3 SSTORE POP POP POP POP JUMP JUMPDEST PUSH0 SWAP1 JUMP JUMPDEST PUSH2 0x3F3A PUSH2 0x3F2E JUMP JUMPDEST PUSH2 0x3F45 DUP2 DUP5 DUP5 PUSH2 0x3F09 JUMP JUMPDEST POP POP POP JUMP JUMPDEST JUMPDEST DUP2 DUP2 LT ISZERO PUSH2 0x3F68 JUMPI PUSH2 0x3F5D PUSH0 DUP3 PUSH2 0x3F32 JUMP JUMPDEST PUSH1 0x1 DUP2 ADD SWAP1 POP PUSH2 0x3F4B JUMP JUMPDEST POP POP JUMP JUMPDEST PUSH1 0x1F DUP3 GT ISZERO PUSH2 0x3FAD JUMPI PUSH2 0x3F7E DUP2 PUSH2 0x3E58 JUMP JUMPDEST PUSH2 0x3F87 DUP5 PUSH2 0x3E6A JUMP JUMPDEST DUP2 ADD PUSH1 0x20 DUP6 LT ISZERO PUSH2 0x3F96 JUMPI DUP2 SWAP1 POP JUMPDEST PUSH2 0x3FAA PUSH2 0x3FA2 DUP6 PUSH2 0x3E6A JUMP JUMPDEST DUP4 ADD DUP3 PUSH2 0x3F4A JUMP JUMPDEST POP POP JUMPDEST POP POP POP JUMP JUMPDEST PUSH0 DUP3 DUP3 SHR SWAP1 POP SWAP3 SWAP2 POP POP JUMP JUMPDEST PUSH0 PUSH2 0x3FCD PUSH0 NOT DUP5 PUSH1 0x8 MUL PUSH2 0x3FB2 JUMP JUMPDEST NOT DUP1 DUP4 AND SWAP2 POP POP SWAP3 SWAP2 POP POP JUMP JUMPDEST PUSH0 PUSH2 0x3FE5 DUP4 DUP4 PUSH2 0x3FBE JUMP JUMPDEST SWAP2 POP DUP3 PUSH1 0x2 MUL DUP3 OR SWAP1 POP SWAP3 SWAP2 POP POP JUMP JUMPDEST PUSH2 0x3FFE DUP3 PUSH2 0x35BB JUMP JUMPDEST PUSH8 0xFFFFFFFFFFFFFFFF DUP2 GT ISZERO PUSH2 0x4017 JUMPI PUSH2 0x4016 PUSH2 0x3839 JUMP JUMPDEST JUMPDEST PUSH2 0x4021 DUP3 SLOAD PUSH2 0x3E28 JUMP JUMPDEST PUSH2 0x402C DUP3 DUP3 DUP6 PUSH2 0x3F6C JUMP JUMPDEST PUSH0 PUSH1 0x20 SWAP1 POP PUSH1 0x1F DUP4 GT PUSH1 0x1 DUP2 EQ PUSH2 0x405D JUMPI PUSH0 DUP5 ISZERO PUSH2 0x404B JUMPI DUP3 DUP8 ADD MLOAD SWAP1 POP JUMPDEST PUSH2 0x4055 DUP6 DUP3 PUSH2 0x3FDA JUMP JUMPDEST DUP7 SSTORE POP PUSH2 0x40BC JUMP JUMPDEST PUSH1 0x1F NOT DUP5 AND PUSH2 0x406B DUP7 PUSH2 0x3E58 JUMP JUMPDEST PUSH0 JUMPDEST DUP3 DUP2 LT ISZERO PUSH2 0x4092 JUMPI DUP5 DUP10 ADD MLOAD DUP3 SSTORE PUSH1 0x1 DUP3 ADD SWAP2 POP PUSH1 0x20 DUP6 ADD SWAP5 POP PUSH1 0x20 DUP2 ADD SWAP1 POP PUSH2 0x406D JUMP JUMPDEST DUP7 DUP4 LT ISZERO PUSH2 0x40AF JUMPI DUP5 DUP10 ADD MLOAD PUSH2 0x40AB PUSH1 0x1F DUP10 AND DUP3 PUSH2 0x3FBE JUMP JUMPDEST DUP4 SSTORE POP JUMPDEST PUSH1 0x1 PUSH1 0x2 DUP9 MUL ADD DUP9 SSTORE POP POP POP JUMPDEST POP POP POP POP POP POP JUMP JUMPDEST PUSH32 0x4E487B7100000000000000000000000000000000000000000000000000000000 PUSH0 MSTORE PUSH1 0x32 PUSH1 0x4 MSTORE PUSH1 0x24 PUSH0 REVERT JUMPDEST PUSH32 0x4E487B7100000000000000000000000000000000000000000000000000000000 PUSH0 MSTORE PUSH1 0x11 PUSH1 0x4 MSTORE PUSH1 0x24 PUSH0 REVERT JUMPDEST PUSH0 PUSH2 0x4128 DUP3 PUSH2 0x33C6 JUMP JUMPDEST SWAP2 POP PUSH2 0x4133 DUP4 PUSH2 0x33C6 JUMP JUMPDEST SWAP3 POP DUP3 DUP3 MUL PUSH2 0x4141 DUP2 PUSH2 0x33C6 JUMP JUMPDEST SWAP2 POP DUP3 DUP3 DIV DUP5 EQ DUP4 ISZERO OR PUSH2 0x4158 JUMPI PUSH2 0x4157 PUSH2 0x40F1 JUMP JUMPDEST JUMPDEST POP SWAP3 SWAP2 POP POP JUMP JUMPDEST PUSH0 PUSH2 0x4169 DUP3 PUSH2 0x33C6 JUMP JUMPDEST SWAP2 POP PUSH2 0x4174 DUP4 PUSH2 0x33C6 JUMP JUMPDEST SWAP3 POP DUP3 DUP3 ADD SWAP1 POP DUP1 DUP3 GT ISZERO PUSH2 0x418C JUMPI PUSH2 0x418B PUSH2 0x40F1 JUMP JUMPDEST JUMPDEST SWAP3 SWAP2 POP POP JUMP JUMPDEST PUSH0 PUSH2 0x419C DUP3 PUSH2 0x33C6 JUMP JUMPDEST SWAP2 POP PUSH2 0x41A7 DUP4 PUSH2 0x33C6 JUMP JUMPDEST SWAP3 POP DUP3 DUP3 SUB SWAP1 POP DUP2 DUP2 GT ISZERO PUSH2 0x41BF JUMPI PUSH2 0x41BE PUSH2 0x40F1 JUMP JUMPDEST JUMPDEST SWAP3 SWAP2 POP POP JUMP JUMPDEST PUSH0 PUSH1 0xFF DUP3 AND SWAP1 POP SWAP2 SWAP1 POP JUMP JUMPDEST PUSH0 PUSH2 0x41DB DUP3 PUSH2 0x41C5 JUMP JUMPDEST SWAP2 POP PUSH2 0x41E6 DUP4 PUSH2 0x41C5 JUMP JUMPDEST SWAP3 POP DUP3 DUP3 SUB SWAP1 POP PUSH1 0xFF DUP2 GT ISZERO PUSH2 0x41FF JUMPI PUSH2 0x41FE PUSH2 0x40F1 JUMP JUMPDEST JUMPDEST SWAP3 SWAP2 POP POP JUMP JUMPDEST PUSH0 PUSH2 0x420F DUP3 PUSH2 0x33C6 JUMP JUMPDEST SWAP2 POP PUSH32 0xFFFFFFFFFFFFFFFFFFFFFFFFFFFFFFFFFFFFFFFFFFFFFFFFFFFFFFFFFFFFFFFF DUP3 SUB PUSH2 0x4241 JUMPI PUSH2 0x4240 PUSH2 0x40F1 JUMP JUMPDEST JUMPDEST PUSH1 0x1 DUP3 ADD SWAP1 POP SWAP2 SWAP1 POP JUMP JUMPDEST PUSH32 0x507572636861736520616D6F756E74206D757374206265206772656174657220 PUSH0 DUP3 ADD MSTORE PUSH32 0x7468616E20300000000000000000000000000000000000000000000000000000 PUSH1 0x20 DUP3 ADD MSTORE POP JUMP JUMPDEST PUSH0 PUSH2 0x42A6 PUSH1 0x26 DUP4 PUSH2 0x35C5 JUMP JUMPDEST SWAP2 POP PUSH2 0x42B1 DUP3 PUSH2 0x424C JUMP JUMPDEST PUSH1 0x40 DUP3 ADD SWAP1 POP SWAP2 SWAP1 POP JUMP JUMPDEST PUSH0 PUSH1 0x20 DUP3 ADD SWAP1 POP DUP2 DUP2 SUB PUSH0 DUP4 ADD MSTORE PUSH2 0x42D3 DUP2 PUSH2 0x429A JUMP JUMPDEST SWAP1 POP SWAP2 SWAP1 POP JUMP JUMPDEST PUSH32 0x496E76616C69642070726F647563742049440000000000000000000000000000 PUSH0 DUP3 ADD MSTORE POP JUMP JUMPDEST PUSH0 PUSH2 0x430E PUSH1 0x12 DUP4 PUSH2 0x35C5 JUMP JUMPDEST SWAP2 POP PUSH2 0x4319 DUP3 PUSH2 0x42DA JUMP JUMPDEST PUSH1 0x20 DUP3 ADD SWAP1 POP SWAP2 SWAP1 POP JUMP JUMPDEST PUSH0 PUSH1 0x20 DUP3 ADD SWAP1 POP DUP2 DUP2 SUB PUSH0 DUP4 ADD MSTORE PUSH2 0x433B DUP2 PUSH2 0x4302 JUMP JUMPDEST SWAP1 POP SWAP2 SWAP1 POP JUMP JUMPDEST PUSH32 0x4141000000000000000000000000000000000000000000000000000000000000 DUP2 MSTORE POP JUMP JUMPDEST PUSH0 DUP2 SWAP1 POP SWAP3 SWAP2 POP POP JUMP JUMPDEST PUSH0 PUSH2 0x437C DUP3 PUSH2 0x35BB JUMP JUMPDEST PUSH2 0x4386 DUP2 DUP6 PUSH2 0x4368 JUMP JUMPDEST SWAP4 POP PUSH2 0x4396 DUP2 DUP6 PUSH1 0x20 DUP7 ADD PUSH2 0x35D5 JUMP JUMPDEST DUP1 DUP5 ADD SWAP2 POP POP SWAP3 SWAP2 POP POP JUMP JUMPDEST PUSH32 0x4242000000000000000000000000000000000000000000000000000000000000 DUP2 MSTORE POP JUMP JUMPDEST PUSH0 PUSH2 0x43D2 DUP3 PUSH2 0x4342 JUMP JUMPDEST PUSH1 0x2 DUP3 ADD SWAP2 POP PUSH2 0x43E2 DUP3 DUP5 PUSH2 0x4372 JUMP JUMPDEST SWAP2 POP PUSH2 0x43ED DUP3 PUSH2 0x43A2 JUMP JUMPDEST PUSH1 0x2 DUP3 ADD SWAP2 POP DUP2 SWAP1 POP SWAP3 SWAP2 POP POP JUMP JUMPDEST PUSH0 DUP2 SWAP1 POP SWAP2 SWAP1 POP JUMP JUMPDEST PUSH2 0x4416 PUSH2 0x4411 DUP3 PUSH2 0x33C6 JUMP JUMPDEST PUSH2 0x43FC JUMP JUMPDEST DUP3 MSTORE POP POP JUMP JUMPDEST PUSH0 DUP2 PUSH1 0x60 SHL SWAP1 POP SWAP2 SWAP1 POP JUMP JUMPDEST PUSH0 PUSH2 0x4432 DUP3 PUSH2 0x441C JUMP JUMPDEST SWAP1 POP SWAP2 SWAP1 POP JUMP JUMPDEST PUSH0 PUSH2 0x4443 DUP3 PUSH2 0x4428 JUMP JUMPDEST SWAP1 POP SWAP2 SWAP1 POP JUMP JUMPDEST PUSH2 0x445B PUSH2 0x4456 DUP3 PUSH2 0x3528 JUMP JUMPDEST PUSH2 0x4439 JUMP JUMPDEST DUP3 MSTORE POP POP JUMP JUMPDEST PUSH0 PUSH2 0x446C DUP3 DUP7 PUSH2 0x4405 JUMP JUMPDEST PUSH1 0x20 DUP3 ADD SWAP2 POP PUSH2 0x447C DUP3 DUP6 PUSH2 0x444A JUMP JUMPDEST PUSH1 0x14 DUP3 ADD SWAP2 POP PUSH2 0x448C DUP3 DUP5 PUSH2 0x4405 JUMP JUMPDEST PUSH1 0x20 DUP3 ADD SWAP2 POP DUP2 SWAP1 POP SWAP5 SWAP4 POP POP POP POP JUMP JUMPDEST PUSH32 0x4E487B7100000000000000000000000000000000000000000000000000000000 PUSH0 MSTORE PUSH1 0x12 PUSH1 0x4 MSTORE PUSH1 0x24 PUSH0 REVERT JUMPDEST PUSH0 PUSH2 0x44D4 DUP3 PUSH2 0x33C6 JUMP JUMPDEST SWAP2 POP PUSH2 0x44DF DUP4 PUSH2 0x33C6 JUMP JUMPDEST SWAP3 POP DUP3 PUSH2 0x44EF JUMPI PUSH2 0x44EE PUSH2 0x449D JUMP JUMPDEST JUMPDEST DUP3 DUP3 MOD SWAP1 POP SWAP3 SWAP2 POP POP JUMP JUMPDEST PUSH0 PUSH2 0x4504 DUP3 PUSH2 0x33C6 JUMP JUMPDEST SWAP2 POP PUSH2 0x450F DUP4 PUSH2 0x33C6 JUMP JUMPDEST SWAP3 POP DUP3 PUSH2 0x451F JUMPI PUSH2 0x451E PUSH2 0x449D JUMP JUMPDEST JUMPDEST DUP3 DUP3 DIV SWAP1 POP SWAP3 SWAP2 POP POP JUMP JUMPDEST PUSH32 0x4E6F7420656E6F7567682073746F636B20617661696C61626C65000000000000 PUSH0 DUP3 ADD MSTORE POP JUMP JUMPDEST PUSH0 PUSH2 0x455E PUSH1 0x1A DUP4 PUSH2 0x35C5 JUMP JUMPDEST SWAP2 POP PUSH2 0x4569 DUP3 PUSH2 0x452A JUMP JUMPDEST PUSH1 0x20 DUP3 ADD SWAP1 POP SWAP2 SWAP1 POP JUMP JUMPDEST PUSH0 PUSH1 0x20 DUP3 ADD SWAP1 POP DUP2 DUP2 SUB PUSH0 DUP4 ADD MSTORE PUSH2 0x458B DUP2 PUSH2 0x4552 JUMP JUMPDEST SWAP1 POP SWAP2 SWAP1 POP JUMP JUMPDEST PUSH0 PUSH2 0x459D DUP3 DUP5 PUSH2 0x4372 JUMP JUMPDEST SWAP2 POP DUP2 SWAP1 POP SWAP3 SWAP2 POP POP JUMP JUMPDEST PUSH32 0x496E73756666696369656E742066756E64732073656E74000000000000000000 PUSH0 DUP3 ADD MSTORE POP JUMP JUMPDEST PUSH0 PUSH2 0x45DC PUSH1 0x17 DUP4 PUSH2 0x35C5 JUMP JUMPDEST SWAP2 POP PUSH2 0x45E7 DUP3 PUSH2 0x45A8 JUMP JUMPDEST PUSH1 0x20 DUP3 ADD SWAP1 POP SWAP2 SWAP1 POP JUMP JUMPDEST PUSH0 PUSH1 0x20 DUP3 ADD SWAP1 POP DUP2 DUP2 SUB PUSH0 DUP4 ADD MSTORE PUSH2 0x4609 DUP2 PUSH2 0x45D0 JUMP JUMPDEST SWAP1 POP SWAP2 SWAP1 POP JUMP JUMPDEST PUSH0 DUP2 SWAP1 POP SWAP3 SWAP2 POP POP JUMP JUMPDEST PUSH0 DUP2 SWAP1 POP DUP2 PUSH0 MSTORE PUSH1 0x20 PUSH0 KECCAK256 SWAP1 POP SWAP2 SWAP1 POP JUMP JUMPDEST PUSH0 DUP2 SLOAD PUSH2 0x4638 DUP2 PUSH2 0x3E28 JUMP JUMPDEST PUSH2 0x4642 DUP2 DUP7 PUSH2 0x4610 JUMP JUMPDEST SWAP5 POP PUSH1 0x1 DUP3 AND PUSH0 DUP2 EQ PUSH2 0x465C JUMPI PUSH1 0x1 DUP2 EQ PUSH2 0x4671 JUMPI PUSH2 0x46A3 JUMP JUMPDEST PUSH1 0xFF NOT DUP4 AND DUP7 MSTORE DUP2 ISZERO ISZERO DUP3 MUL DUP7 ADD SWAP4 POP PUSH2 0x46A3 JUMP JUMPDEST PUSH2 0x467A DUP6 PUSH2 0x461A JUMP JUMPDEST PUSH0 JUMPDEST DUP4 DUP2 LT ISZERO PUSH2 0x469B JUMPI DUP2 SLOAD DUP2 DUP10 ADD MSTORE PUSH1 0x1 DUP3 ADD SWAP2 POP PUSH1 0x20 DUP2 ADD SWAP1 POP PUSH2 0x467C JUMP JUMPDEST DUP4 DUP9 ADD SWAP6 POP POP POP JUMPDEST POP POP POP SWAP3 SWAP2 POP POP JUMP JUMPDEST PUSH0 PUSH2 0x46B7 DUP3 DUP5 PUSH2 0x462C JUMP JUMPDEST SWAP2 POP DUP2 SWAP1 POP SWAP3 SWAP2 POP POP JUMP INVALID LOG2 PUSH5 0x6970667358 0x22 SLT KECCAK256 0x23 CALLDATASIZE 0xFC 0xA8 0xDB 0xCF GAS 0xA8 SELFBALANCE 0xBE CALLER DUP11 0xD 0xF JUMPDEST EQ 0xD6 0xBC SWAP16 CODECOPY 0xBC 0xF GT 0xE9 SHL 0xB8 PUSH0 SWAP13 SWAP9 PUSH13 0x450764736F6C63430008150033 "
				},
				"gasEstimates": {
					"creation": {
						"codeDepositCost": "3633600",
						"executionCost": "28352",
						"totalCost": "3661952"
					},
					"external": {
						"acceptDelivery(bool,uint256)": "infinite",
						"addItemsMarket(uint256,uint256,string,uint256)": "infinite",
						"addItemsSupplier(uint256,uint256,string,uint256,address)": "infinite",
						"approveChangeRole(uint256)": "35793",
						"approveDelivery(bool,uint256)": "29531",
						"changeRole(uint8)": "73466",
						"deliveryOrders(uint256)": "infinite",
						"genRef(string,address)": "infinite",
						"makeDelivery(address,uint256,uint256)": "infinite",
						"makeMarket()": "29755",
						"makeSupplier()": "29756",
						"makeUser()": "29732",
						"marketProducts(address,uint256)": "infinite",
						"owner()": "2619",
						"purchase(address,uint256,uint256,string)": "infinite",
						"randMod(uint256)": "infinite",
						"referrals(string)": "infinite",
						"refillStore(address,uint256,uint256,address)": "infinite",
						"refund(address,uint256)": "infinite",
						"supplierProducts(address,uint256)": "infinite",
						"tickets(uint256)": "7401",
						"toUpper(string)": "infinite",
						"userProducts(address,uint256)": "infinite",
						"users(address)": "5222",
						"withdrawBal(address)": "infinite"
					}
				},
				"methodIdentifiers": {
					"acceptDelivery(bool,uint256)": "da76af31",
					"addItemsMarket(uint256,uint256,string,uint256)": "008de16a",
					"addItemsSupplier(uint256,uint256,string,uint256,address)": "861c2b6d",
					"approveChangeRole(uint256)": "6f764708",
					"approveDelivery(bool,uint256)": "7eb33a58",
					"changeRole(uint8)": "55dea0b3",
					"deliveryOrders(uint256)": "1cc11721",
					"genRef(string,address)": "a1ba90b6",
					"makeDelivery(address,uint256,uint256)": "7555bf10",
					"makeMarket()": "66d0dc67",
					"makeSupplier()": "3dfe7dee",
					"makeUser()": "d18a524a",
					"marketProducts(address,uint256)": "4f424547",
					"owner()": "8da5cb5b",
					"purchase(address,uint256,uint256,string)": "9f1cd587",
					"randMod(uint256)": "805553e8",
					"referrals(string)": "d55768dd",
					"refillStore(address,uint256,uint256,address)": "fecd8f79",
					"refund(address,uint256)": "410085df",
					"supplierProducts(address,uint256)": "27b90b1b",
					"tickets(uint256)": "50b44712",
					"toUpper(string)": "62dd748c",
					"userProducts(address,uint256)": "3d527883",
					"users(address)": "a87430ba",
					"withdrawBal(address)": "f67a2ad1"
				}
			},
			"storageLayout": {
				"storage": [
					{
						"astId": 14,
						"contract": "contracts/MarketPlace.sol:MarketPlace",
						"label": "tickets",
						"offset": 0,
						"slot": "0",
						"type": "t_array(t_struct(Ticket)49_storage)dyn_storage"
					},
					{
						"astId": 16,
						"contract": "contracts/MarketPlace.sol:MarketPlace",
						"label": "owner",
						"offset": 0,
						"slot": "1",
						"type": "t_address"
					},
					{
						"astId": 20,
						"contract": "contracts/MarketPlace.sol:MarketPlace",
						"label": "deliveryOrders",
						"offset": 0,
						"slot": "2",
						"type": "t_array(t_struct(DeliveryOrder)43_storage)dyn_storage"
					},
					{
						"astId": 71,
						"contract": "contracts/MarketPlace.sol:MarketPlace",
						"label": "users",
						"offset": 0,
						"slot": "3",
						"type": "t_mapping(t_address,t_struct(User)55_storage)"
					},
					{
						"astId": 77,
						"contract": "contracts/MarketPlace.sol:MarketPlace",
						"label": "userProducts",
						"offset": 0,
						"slot": "4",
						"type": "t_mapping(t_address,t_array(t_struct(Product)66_storage)dyn_storage)"
					},
					{
						"astId": 83,
						"contract": "contracts/MarketPlace.sol:MarketPlace",
						"label": "marketProducts",
						"offset": 0,
						"slot": "5",
						"type": "t_mapping(t_address,t_array(t_struct(Product)66_storage)dyn_storage)"
					},
					{
						"astId": 89,
						"contract": "contracts/MarketPlace.sol:MarketPlace",
						"label": "supplierProducts",
						"offset": 0,
						"slot": "6",
						"type": "t_mapping(t_address,t_array(t_struct(Product)66_storage)dyn_storage)"
					},
					{
						"astId": 93,
						"contract": "contracts/MarketPlace.sol:MarketPlace",
						"label": "referrals",
						"offset": 0,
						"slot": "7",
						"type": "t_mapping(t_string_memory_ptr,t_address)"
					}
				],
				"types": {
					"t_address": {
						"encoding": "inplace",
						"label": "address",
						"numberOfBytes": "20"
					},
					"t_array(t_struct(DeliveryOrder)43_storage)dyn_storage": {
						"base": "t_struct(DeliveryOrder)43_storage",
						"encoding": "dynamic_array",
						"label": "struct MarketPlace.DeliveryOrder[]",
						"numberOfBytes": "32"
					},
					"t_array(t_struct(Product)66_storage)dyn_storage": {
						"base": "t_struct(Product)66_storage",
						"encoding": "dynamic_array",
						"label": "struct MarketPlace.Product[]",
						"numberOfBytes": "32"
					},
					"t_array(t_struct(Ticket)49_storage)dyn_storage": {
						"base": "t_struct(Ticket)49_storage",
						"encoding": "dynamic_array",
						"label": "struct MarketPlace.Ticket[]",
						"numberOfBytes": "32"
					},
					"t_enum(Role)5": {
						"encoding": "inplace",
						"label": "enum MarketPlace.Role",
						"numberOfBytes": "1"
					},
					"t_enum(Status)10": {
						"encoding": "inplace",
						"label": "enum MarketPlace.Status",
						"numberOfBytes": "1"
					},
					"t_mapping(t_address,t_array(t_struct(Product)66_storage)dyn_storage)": {
						"encoding": "mapping",
						"key": "t_address",
						"label": "mapping(address => struct MarketPlace.Product[])",
						"numberOfBytes": "32",
						"value": "t_array(t_struct(Product)66_storage)dyn_storage"
					},
					"t_mapping(t_address,t_struct(User)55_storage)": {
						"encoding": "mapping",
						"key": "t_address",
						"label": "mapping(address => struct MarketPlace.User)",
						"numberOfBytes": "32",
						"value": "t_struct(User)55_storage"
					},
					"t_mapping(t_string_memory_ptr,t_address)": {
						"encoding": "mapping",
						"key": "t_string_memory_ptr",
						"label": "mapping(string => address)",
						"numberOfBytes": "32",
						"value": "t_address"
					},
					"t_string_memory_ptr": {
						"encoding": "bytes",
						"label": "string",
						"numberOfBytes": "32"
					},
					"t_string_storage": {
						"encoding": "bytes",
						"label": "string",
						"numberOfBytes": "32"
					},
					"t_struct(DeliveryOrder)43_storage": {
						"encoding": "inplace",
						"label": "struct MarketPlace.DeliveryOrder",
						"members": [
							{
								"astId": 31,
								"contract": "contracts/MarketPlace.sol:MarketPlace",
								"label": "userAddr",
								"offset": 0,
								"slot": "0",
								"type": "t_address"
							},
							{
								"astId": 33,
								"contract": "contracts/MarketPlace.sol:MarketPlace",
								"label": "shop",
								"offset": 0,
								"slot": "1",
								"type": "t_address"
							},
							{
								"astId": 36,
								"contract": "contracts/MarketPlace.sol:MarketPlace",
								"label": "status",
								"offset": 20,
								"slot": "1",
								"type": "t_enum(Status)10"
							},
							{
								"astId": 38,
								"contract": "contracts/MarketPlace.sol:MarketPlace",
								"label": "trackNumber",
								"offset": 0,
								"slot": "2",
								"type": "t_string_storage"
							},
							{
								"astId": 40,
								"contract": "contracts/MarketPlace.sol:MarketPlace",
								"label": "productId",
								"offset": 0,
								"slot": "3",
								"type": "t_uint256"
							},
							{
								"astId": 42,
								"contract": "contracts/MarketPlace.sol:MarketPlace",
								"label": "amount",
								"offset": 0,
								"slot": "4",
								"type": "t_uint256"
							}
						],
						"numberOfBytes": "160"
					},
					"t_struct(Product)66_storage": {
						"encoding": "inplace",
						"label": "struct MarketPlace.Product",
						"members": [
							{
								"astId": 57,
								"contract": "contracts/MarketPlace.sol:MarketPlace",
								"label": "userAddress",
								"offset": 0,
								"slot": "0",
								"type": "t_address"
							},
							{
								"astId": 59,
								"contract": "contracts/MarketPlace.sol:MarketPlace",
								"label": "inStock",
								"offset": 0,
								"slot": "1",
								"type": "t_uint256"
							},
							{
								"astId": 61,
								"contract": "contracts/MarketPlace.sol:MarketPlace",
								"label": "price",
								"offset": 0,
								"slot": "2",
								"type": "t_uint256"
							},
							{
								"astId": 63,
								"contract": "contracts/MarketPlace.sol:MarketPlace",
								"label": "name",
								"offset": 0,
								"slot": "3",
								"type": "t_string_storage"
							},
							{
								"astId": 65,
								"contract": "contracts/MarketPlace.sol:MarketPlace",
								"label": "expDate",
								"offset": 0,
								"slot": "4",
								"type": "t_uint256"
							}
						],
						"numberOfBytes": "160"
					},
					"t_struct(Ticket)49_storage": {
						"encoding": "inplace",
						"label": "struct MarketPlace.Ticket",
						"members": [
							{
								"astId": 45,
								"contract": "contracts/MarketPlace.sol:MarketPlace",
								"label": "userAddr",
								"offset": 0,
								"slot": "0",
								"type": "t_address"
							},
							{
								"astId": 48,
								"contract": "contracts/MarketPlace.sol:MarketPlace",
								"label": "role",
								"offset": 20,
								"slot": "0",
								"type": "t_enum(Role)5"
							}
						],
						"numberOfBytes": "32"
					},
					"t_struct(User)55_storage": {
						"encoding": "inplace",
						"label": "struct MarketPlace.User",
						"members": [
							{
								"astId": 52,
								"contract": "contracts/MarketPlace.sol:MarketPlace",
								"label": "role",
								"offset": 0,
								"slot": "0",
								"type": "t_enum(Role)5"
							},
							{
								"astId": 54,
								"contract": "contracts/MarketPlace.sol:MarketPlace",
								"label": "balance",
								"offset": 0,
								"slot": "1",
								"type": "t_uint256"
							}
						],
						"numberOfBytes": "64"
					},
					"t_uint256": {
						"encoding": "inplace",
						"label": "uint256",
						"numberOfBytes": "32"
					}
				}
			},
			"userdoc": {
				"kind": "user",
				"methods": {},
				"version": 1
			}
		}
	}
}