{
	"contracts/MarketPlace.sol": {
		"MarketPlace": {
			"abi": [
				{
					"inputs": [
						{
							"internalType": "address",
							"name": "_shop",
							"type": "address"
						},
						{
							"internalType": "uint256",
							"name": "_inStock",
							"type": "uint256"
						},
						{
							"internalType": "uint256",
							"name": "_price",
							"type": "uint256"
						},
						{
							"internalType": "string",
							"name": "_name",
							"type": "string"
						},
						{
							"internalType": "uint256",
							"name": "_expDate",
							"type": "uint256"
						}
					],
					"name": "addItems",
					"outputs": [],
					"stateMutability": "nonpayable",
					"type": "function"
				},
				{
					"inputs": [
						{
							"internalType": "uint256",
							"name": "_inStock",
							"type": "uint256"
						},
						{
							"internalType": "uint256",
							"name": "_price",
							"type": "uint256"
						},
						{
							"internalType": "string",
							"name": "_name",
							"type": "string"
						},
						{
							"internalType": "uint256",
							"name": "_expDate",
							"type": "uint256"
						}
					],
					"name": "addItemsSupplier",
					"outputs": [],
					"stateMutability": "nonpayable",
					"type": "function"
				},
				{
					"inputs": [],
					"name": "makeMarket",
					"outputs": [],
					"stateMutability": "nonpayable",
					"type": "function"
				},
				{
					"inputs": [],
					"name": "owner",
					"outputs": [
						{
							"internalType": "address",
							"name": "",
							"type": "address"
						}
					],
					"stateMutability": "view",
					"type": "function"
				},
				{
					"inputs": [
						{
							"internalType": "address",
							"name": "_shop",
							"type": "address"
						},
						{
							"internalType": "uint256",
							"name": "_amount",
							"type": "uint256"
						},
						{
							"internalType": "uint256",
							"name": "_id",
							"type": "uint256"
						}
					],
					"name": "purchase",
					"outputs": [],
					"stateMutability": "payable",
					"type": "function"
				},
				{
					"inputs": [
						{
							"internalType": "uint256",
							"name": "_modulus",
							"type": "uint256"
						}
					],
					"name": "randMod",
					"outputs": [
						{
							"internalType": "uint256",
							"name": "",
							"type": "uint256"
						}
					],
					"stateMutability": "view",
					"type": "function"
				},
				{
					"inputs": [
						{
							"internalType": "address",
							"name": "_shop",
							"type": "address"
						},
						{
							"internalType": "uint256",
							"name": "_productId",
							"type": "uint256"
						},
						{
							"internalType": "uint256",
							"name": "_amount",
							"type": "uint256"
						}
					],
					"name": "refillStore",
					"outputs": [],
					"stateMutability": "payable",
					"type": "function"
				},
				{
					"inputs": [
						{
							"internalType": "address",
							"name": "_shop",
							"type": "address"
						},
						{
							"internalType": "uint256",
							"name": "_productId",
							"type": "uint256"
						}
					],
					"name": "refund",
					"outputs": [],
					"stateMutability": "nonpayable",
					"type": "function"
				},
				{
					"inputs": [],
					"name": "supplier",
					"outputs": [
						{
							"internalType": "address",
							"name": "",
							"type": "address"
						}
					],
					"stateMutability": "view",
					"type": "function"
				},
				{
					"inputs": [
						{
							"internalType": "address",
							"name": "",
							"type": "address"
						},
						{
							"internalType": "uint256",
							"name": "",
							"type": "uint256"
						}
					],
					"name": "userProducts",
					"outputs": [
						{
							"internalType": "uint256",
							"name": "inStock",
							"type": "uint256"
						},
						{
							"internalType": "uint256",
							"name": "price",
							"type": "uint256"
						},
						{
							"internalType": "string",
							"name": "name",
							"type": "string"
						},
						{
							"internalType": "uint256",
							"name": "expDate",
							"type": "uint256"
						}
					],
					"stateMutability": "view",
					"type": "function"
				},
				{
					"inputs": [
						{
							"internalType": "address",
							"name": "",
							"type": "address"
						}
					],
					"name": "users",
					"outputs": [
						{
							"internalType": "enum MarketPlace.Role",
							"name": "role",
							"type": "uint8"
						},
						{
							"internalType": "uint256",
							"name": "balance",
							"type": "uint256"
						}
					],
					"stateMutability": "view",
					"type": "function"
				},
				{
					"inputs": [
						{
							"internalType": "address",
							"name": "_shop",
							"type": "address"
						}
					],
					"name": "withdrawBal",
					"outputs": [],
					"stateMutability": "nonpayable",
					"type": "function"
				}
			],
			"devdoc": {
				"kind": "dev",
				"methods": {},
				"version": 1
			},
			"evm": {
				"assembly": "    /* \"contracts/MarketPlace.sol\":270:5401  contract MarketPlace {... */\n  mstore(0x40, 0x80)\n  callvalue\n  dup1\n  iszero\n  tag_1\n  jumpi\n  0x00\n  dup1\n  revert\ntag_1:\n  pop\n  dataSize(sub_0)\n  dup1\n  dataOffset(sub_0)\n  0x00\n  codecopy\n  0x00\n  return\nstop\n\nsub_0: assembly {\n        /* \"contracts/MarketPlace.sol\":270:5401  contract MarketPlace {... */\n      mstore(0x40, 0x80)\n      jumpi(tag_1, lt(calldatasize, 0x04))\n      shr(0xe0, calldataload(0x00))\n      dup1\n      0x66d0dc67\n      gt\n      tag_14\n      jumpi\n      dup1\n      0x66d0dc67\n      eq\n      tag_8\n      jumpi\n      dup1\n      0x805553e8\n      eq\n      tag_9\n      jumpi\n      dup1\n      0x8da5cb5b\n      eq\n      tag_10\n      jumpi\n      dup1\n      0x98968f15\n      eq\n      tag_11\n      jumpi\n      dup1\n      0xa87430ba\n      eq\n      tag_12\n      jumpi\n      dup1\n      0xf67a2ad1\n      eq\n      tag_13\n      jumpi\n      jump(tag_1)\n    tag_14:\n      dup1\n      0x03194133\n      eq\n      tag_2\n      jumpi\n      dup1\n      0x05103ede\n      eq\n      tag_3\n      jumpi\n      dup1\n      0x33af9f8b\n      eq\n      tag_4\n      jumpi\n      dup1\n      0x36da4468\n      eq\n      tag_5\n      jumpi\n      dup1\n      0x3d527883\n      eq\n      tag_6\n      jumpi\n      dup1\n      0x410085df\n      eq\n      tag_7\n      jumpi\n    tag_1:\n      0x00\n      dup1\n      revert\n        /* \"contracts/MarketPlace.sol\":1566:1827  function addItems(address _shop, uint _inStock, uint _price, string calldata _name, uint _expDate) public AccessControl(Role.Market, _shop) {... */\n    tag_2:\n      callvalue\n      dup1\n      iszero\n      tag_15\n      jumpi\n      0x00\n      dup1\n      revert\n    tag_15:\n      pop\n      tag_16\n      0x04\n      dup1\n      calldatasize\n      sub\n      dup2\n      add\n      swap1\n      tag_17\n      swap2\n      swap1\n      tag_18\n      jump\t// in\n    tag_17:\n      tag_19\n      jump\t// in\n    tag_16:\n      stop\n        /* \"contracts/MarketPlace.sol\":1833:2885  function refillStore(address _shop, uint _productId, uint _amount) public payable AccessControl(Role.Market, _shop){... */\n    tag_3:\n      tag_20\n      0x04\n      dup1\n      calldatasize\n      sub\n      dup2\n      add\n      swap1\n      tag_21\n      swap2\n      swap1\n      tag_22\n      jump\t// in\n    tag_21:\n      tag_23\n      jump\t// in\n    tag_20:\n      stop\n        /* \"contracts/MarketPlace.sol\":1149:1458  function addItemsSupplier(uint _inStock, uint _price, string calldata _name, uint _expDate) public{... */\n    tag_4:\n      callvalue\n      dup1\n      iszero\n      tag_24\n      jumpi\n      0x00\n      dup1\n      revert\n    tag_24:\n      pop\n      tag_25\n      0x04\n      dup1\n      calldatasize\n      sub\n      dup2\n      add\n      swap1\n      tag_26\n      swap2\n      swap1\n      tag_27\n      jump\t// in\n    tag_26:\n      tag_28\n      jump\t// in\n    tag_25:\n      stop\n        /* \"contracts/MarketPlace.sol\":323:346  address public supplier */\n    tag_5:\n      callvalue\n      dup1\n      iszero\n      tag_29\n      jumpi\n      0x00\n      dup1\n      revert\n    tag_29:\n      pop\n      tag_30\n      tag_31\n      jump\t// in\n    tag_30:\n      mload(0x40)\n      tag_32\n      swap2\n      swap1\n      tag_33\n      jump\t// in\n    tag_32:\n      mload(0x40)\n      dup1\n      swap2\n      sub\n      swap1\n      return\n        /* \"contracts/MarketPlace.sol\":616:665  mapping(address => Product[]) public userProducts */\n    tag_6:\n      callvalue\n      dup1\n      iszero\n      tag_34\n      jumpi\n      0x00\n      dup1\n      revert\n    tag_34:\n      pop\n      tag_35\n      0x04\n      dup1\n      calldatasize\n      sub\n      dup2\n      add\n      swap1\n      tag_36\n      swap2\n      swap1\n      tag_37\n      jump\t// in\n    tag_36:\n      tag_38\n      jump\t// in\n    tag_35:\n      mload(0x40)\n      tag_39\n      swap5\n      swap4\n      swap3\n      swap2\n      swap1\n      tag_40\n      jump\t// in\n    tag_39:\n      mload(0x40)\n      dup1\n      swap2\n      sub\n      swap1\n      return\n        /* \"contracts/MarketPlace.sol\":2891:3494  function refund(address _shop, uint _productId) public {... */\n    tag_7:\n      callvalue\n      dup1\n      iszero\n      tag_41\n      jumpi\n      0x00\n      dup1\n      revert\n    tag_41:\n      pop\n      tag_42\n      0x04\n      dup1\n      calldatasize\n      sub\n      dup2\n      add\n      swap1\n      tag_43\n      swap2\n      swap1\n      tag_37\n      jump\t// in\n    tag_43:\n      tag_44\n      jump\t// in\n    tag_42:\n      stop\n        /* \"contracts/MarketPlace.sol\":1469:1556  function makeMarket() public  {... */\n    tag_8:\n      callvalue\n      dup1\n      iszero\n      tag_45\n      jumpi\n      0x00\n      dup1\n      revert\n    tag_45:\n      pop\n      tag_46\n      tag_47\n      jump\t// in\n    tag_46:\n      stop\n        /* \"contracts/MarketPlace.sol\":927:1143  function randMod(uint _modulus) public view returns(uint)... */\n    tag_9:\n      callvalue\n      dup1\n      iszero\n      tag_48\n      jumpi\n      0x00\n      dup1\n      revert\n    tag_48:\n      pop\n      tag_49\n      0x04\n      dup1\n      calldatasize\n      sub\n      dup2\n      add\n      swap1\n      tag_50\n      swap2\n      swap1\n      tag_51\n      jump\t// in\n    tag_50:\n      tag_52\n      jump\t// in\n    tag_49:\n      mload(0x40)\n      tag_53\n      swap2\n      swap1\n      tag_54\n      jump\t// in\n    tag_53:\n      mload(0x40)\n      dup1\n      swap2\n      sub\n      swap1\n      return\n        /* \"contracts/MarketPlace.sol\":297:317  address public owner */\n    tag_10:\n      callvalue\n      dup1\n      iszero\n      tag_55\n      jumpi\n      0x00\n      dup1\n      revert\n    tag_55:\n      pop\n      tag_56\n      tag_57\n      jump\t// in\n    tag_56:\n      mload(0x40)\n      tag_58\n      swap2\n      swap1\n      tag_33\n      jump\t// in\n    tag_58:\n      mload(0x40)\n      dup1\n      swap2\n      sub\n      swap1\n      return\n        /* \"contracts/MarketPlace.sol\":3500:5256  function purchase(address _shop, uint _amount, uint _id) public payable {... */\n    tag_11:\n      tag_59\n      0x04\n      dup1\n      calldatasize\n      sub\n      dup2\n      add\n      swap1\n      tag_60\n      swap2\n      swap1\n      tag_22\n      jump\t// in\n    tag_60:\n      tag_61\n      jump\t// in\n    tag_59:\n      stop\n        /* \"contracts/MarketPlace.sol\":573:610  mapping(address => User) public users */\n    tag_12:\n      callvalue\n      dup1\n      iszero\n      tag_62\n      jumpi\n      0x00\n      dup1\n      revert\n    tag_62:\n      pop\n      tag_63\n      0x04\n      dup1\n      calldatasize\n      sub\n      dup2\n      add\n      swap1\n      tag_64\n      swap2\n      swap1\n      tag_65\n      jump\t// in\n    tag_64:\n      tag_66\n      jump\t// in\n    tag_63:\n      mload(0x40)\n      tag_67\n      swap3\n      swap2\n      swap1\n      tag_68\n      jump\t// in\n    tag_67:\n      mload(0x40)\n      dup1\n      swap2\n      sub\n      swap1\n      return\n        /* \"contracts/MarketPlace.sol\":5262:5399  function withdrawBal(address _shop) public {... */\n    tag_13:\n      callvalue\n      dup1\n      iszero\n      tag_69\n      jumpi\n      0x00\n      dup1\n      revert\n    tag_69:\n      pop\n      tag_70\n      0x04\n      dup1\n      calldatasize\n      sub\n      dup2\n      add\n      swap1\n      tag_71\n      swap2\n      swap1\n      tag_65\n      jump\t// in\n    tag_71:\n      tag_72\n      jump\t// in\n    tag_70:\n      stop\n        /* \"contracts/MarketPlace.sol\":1566:1827  function addItems(address _shop, uint _inStock, uint _price, string calldata _name, uint _expDate) public AccessControl(Role.Market, _shop) {... */\n    tag_19:\n        /* \"contracts/MarketPlace.sol\":1686:1697  Role.Market */\n      0x01\n        /* \"contracts/MarketPlace.sol\":1699:1704  _shop */\n      dup7\n        /* \"contracts/MarketPlace.sol\":770:775  _role */\n      dup2\n        /* \"contracts/MarketPlace.sol\":744:775  users[msg.sender].role == _role */\n      0x02\n      dup2\n      gt\n      iszero\n      tag_74\n      jumpi\n      tag_75\n      tag_76\n      jump\t// in\n    tag_75:\n    tag_74:\n        /* \"contracts/MarketPlace.sol\":744:749  users */\n      0x02\n        /* \"contracts/MarketPlace.sol\":744:761  users[msg.sender] */\n      0x00\n        /* \"contracts/MarketPlace.sol\":750:760  msg.sender */\n      caller\n        /* \"contracts/MarketPlace.sol\":744:761  users[msg.sender] */\n      0xffffffffffffffffffffffffffffffffffffffff\n      and\n      0xffffffffffffffffffffffffffffffffffffffff\n      and\n      dup2\n      mstore\n      0x20\n      add\n      swap1\n      dup2\n      mstore\n      0x20\n      add\n      0x00\n      keccak256\n        /* \"contracts/MarketPlace.sol\":744:766  users[msg.sender].role */\n      0x00\n      add\n      0x00\n      swap1\n      sload\n      swap1\n      0x0100\n      exp\n      swap1\n      div\n      0xff\n      and\n        /* \"contracts/MarketPlace.sol\":744:775  users[msg.sender].role == _role */\n      0x02\n      dup2\n      gt\n      iszero\n      tag_77\n      jumpi\n      tag_78\n      tag_76\n      jump\t// in\n    tag_78:\n    tag_77:\n      eq\n        /* \"contracts/MarketPlace.sol\":736:787  require(users[msg.sender].role == _role, unicode\"\") */\n      tag_79\n      jumpi\n      mload(0x40)\n      0x08c379a000000000000000000000000000000000000000000000000000000000\n      dup2\n      mstore\n      0x04\n      add\n      tag_80\n      swap1\n      tag_81\n      jump\t// in\n    tag_80:\n      mload(0x40)\n      dup1\n      swap2\n      sub\n      swap1\n      revert\n    tag_79:\n        /* \"contracts/MarketPlace.sol\":819:824  _shop */\n      dup1\n        /* \"contracts/MarketPlace.sol\":805:824  msg.sender == _shop */\n      0xffffffffffffffffffffffffffffffffffffffff\n      and\n        /* \"contracts/MarketPlace.sol\":805:815  msg.sender */\n      caller\n        /* \"contracts/MarketPlace.sol\":805:824  msg.sender == _shop */\n      0xffffffffffffffffffffffffffffffffffffffff\n      and\n      eq\n        /* \"contracts/MarketPlace.sol\":797:903  require(msg.sender == _shop, unicode\"Магазин не соответсвует отправителю\") */\n      tag_82\n      jumpi\n      mload(0x40)\n      0x08c379a000000000000000000000000000000000000000000000000000000000\n      dup2\n      mstore\n      0x04\n      add\n      tag_83\n      swap1\n      tag_84\n      jump\t// in\n    tag_83:\n      mload(0x40)\n      dup1\n      swap2\n      sub\n      swap1\n      revert\n    tag_82:\n        /* \"contracts/MarketPlace.sol\":1716:1735  Product memory item */\n      0x00\n        /* \"contracts/MarketPlace.sol\":1738:1780  Product(_inStock, _price, _name, _expDate) */\n      mload(0x40)\n      dup1\n      0x80\n      add\n      0x40\n      mstore\n      dup1\n        /* \"contracts/MarketPlace.sol\":1746:1754  _inStock */\n      dup10\n        /* \"contracts/MarketPlace.sol\":1738:1780  Product(_inStock, _price, _name, _expDate) */\n      dup2\n      mstore\n      0x20\n      add\n        /* \"contracts/MarketPlace.sol\":1756:1762  _price */\n      dup9\n        /* \"contracts/MarketPlace.sol\":1738:1780  Product(_inStock, _price, _name, _expDate) */\n      dup2\n      mstore\n      0x20\n      add\n        /* \"contracts/MarketPlace.sol\":1764:1769  _name */\n      dup8\n      dup8\n        /* \"contracts/MarketPlace.sol\":1738:1780  Product(_inStock, _price, _name, _expDate) */\n      dup1\n      dup1\n      0x1f\n      add\n      0x20\n      dup1\n      swap2\n      div\n      mul\n      0x20\n      add\n      mload(0x40)\n      swap1\n      dup2\n      add\n      0x40\n      mstore\n      dup1\n      swap4\n      swap3\n      swap2\n      swap1\n      dup2\n      dup2\n      mstore\n      0x20\n      add\n      dup4\n      dup4\n      dup1\n      dup3\n      dup5\n      calldatacopy\n      0x00\n      dup2\n      dup5\n      add\n      mstore\n      not(0x1f)\n      0x1f\n      dup3\n      add\n      and\n      swap1\n      pop\n      dup1\n      dup4\n      add\n      swap3\n      pop\n      pop\n      pop\n      pop\n      pop\n      pop\n      pop\n      dup2\n      mstore\n      0x20\n      add\n        /* \"contracts/MarketPlace.sol\":1771:1779  _expDate */\n      dup6\n        /* \"contracts/MarketPlace.sol\":1738:1780  Product(_inStock, _price, _name, _expDate) */\n      dup2\n      mstore\n      pop\n        /* \"contracts/MarketPlace.sol\":1716:1780  Product memory item = Product(_inStock, _price, _name, _expDate) */\n      swap1\n      pop\n        /* \"contracts/MarketPlace.sol\":1790:1802  userProducts */\n      0x03\n        /* \"contracts/MarketPlace.sol\":1790:1809  userProducts[_shop] */\n      0x00\n        /* \"contracts/MarketPlace.sol\":1803:1808  _shop */\n      dup11\n        /* \"contracts/MarketPlace.sol\":1790:1809  userProducts[_shop] */\n      0xffffffffffffffffffffffffffffffffffffffff\n      and\n      0xffffffffffffffffffffffffffffffffffffffff\n      and\n      dup2\n      mstore\n      0x20\n      add\n      swap1\n      dup2\n      mstore\n      0x20\n      add\n      0x00\n      keccak256\n        /* \"contracts/MarketPlace.sol\":1815:1819  item */\n      dup2\n        /* \"contracts/MarketPlace.sol\":1790:1820  userProducts[_shop].push(item) */\n      swap1\n      dup1\n      0x01\n      dup2\n      sload\n      add\n      dup1\n      dup3\n      sstore\n      dup1\n      swap2\n      pop\n      pop\n      0x01\n      swap1\n      sub\n      swap1\n      0x00\n      mstore\n      keccak256(0x00, 0x20)\n      swap1\n      0x04\n      mul\n      add\n      0x00\n      swap1\n      swap2\n      swap1\n      swap2\n      swap1\n      swap2\n      pop\n      0x00\n      dup3\n      add\n      mload\n      dup2\n      0x00\n      add\n      sstore\n      0x20\n      dup3\n      add\n      mload\n      dup2\n      0x01\n      add\n      sstore\n      0x40\n      dup3\n      add\n      mload\n      dup2\n      0x02\n      add\n      swap1\n      dup2\n      tag_87\n      swap2\n      swap1\n      tag_88\n      jump\t// in\n    tag_87:\n      pop\n      0x60\n      dup3\n      add\n      mload\n      dup2\n      0x03\n      add\n      sstore\n      pop\n      pop\n        /* \"contracts/MarketPlace.sol\":1706:1827  {... */\n      pop\n        /* \"contracts/MarketPlace.sol\":1566:1827  function addItems(address _shop, uint _inStock, uint _price, string calldata _name, uint _expDate) public AccessControl(Role.Market, _shop) {... */\n      pop\n      pop\n      pop\n      pop\n      pop\n      pop\n      pop\n      pop\n      jump\t// out\n        /* \"contracts/MarketPlace.sol\":1833:2885  function refillStore(address _shop, uint _productId, uint _amount) public payable AccessControl(Role.Market, _shop){... */\n    tag_23:\n        /* \"contracts/MarketPlace.sol\":1929:1940  Role.Market */\n      0x01\n        /* \"contracts/MarketPlace.sol\":1942:1947  _shop */\n      dup4\n        /* \"contracts/MarketPlace.sol\":770:775  _role */\n      dup2\n        /* \"contracts/MarketPlace.sol\":744:775  users[msg.sender].role == _role */\n      0x02\n      dup2\n      gt\n      iszero\n      tag_90\n      jumpi\n      tag_91\n      tag_76\n      jump\t// in\n    tag_91:\n    tag_90:\n        /* \"contracts/MarketPlace.sol\":744:749  users */\n      0x02\n        /* \"contracts/MarketPlace.sol\":744:761  users[msg.sender] */\n      0x00\n        /* \"contracts/MarketPlace.sol\":750:760  msg.sender */\n      caller\n        /* \"contracts/MarketPlace.sol\":744:761  users[msg.sender] */\n      0xffffffffffffffffffffffffffffffffffffffff\n      and\n      0xffffffffffffffffffffffffffffffffffffffff\n      and\n      dup2\n      mstore\n      0x20\n      add\n      swap1\n      dup2\n      mstore\n      0x20\n      add\n      0x00\n      keccak256\n        /* \"contracts/MarketPlace.sol\":744:766  users[msg.sender].role */\n      0x00\n      add\n      0x00\n      swap1\n      sload\n      swap1\n      0x0100\n      exp\n      swap1\n      div\n      0xff\n      and\n        /* \"contracts/MarketPlace.sol\":744:775  users[msg.sender].role == _role */\n      0x02\n      dup2\n      gt\n      iszero\n      tag_92\n      jumpi\n      tag_93\n      tag_76\n      jump\t// in\n    tag_93:\n    tag_92:\n      eq\n        /* \"contracts/MarketPlace.sol\":736:787  require(users[msg.sender].role == _role, unicode\"\") */\n      tag_94\n      jumpi\n      mload(0x40)\n      0x08c379a000000000000000000000000000000000000000000000000000000000\n      dup2\n      mstore\n      0x04\n      add\n      tag_95\n      swap1\n      tag_81\n      jump\t// in\n    tag_95:\n      mload(0x40)\n      dup1\n      swap2\n      sub\n      swap1\n      revert\n    tag_94:\n        /* \"contracts/MarketPlace.sol\":819:824  _shop */\n      dup1\n        /* \"contracts/MarketPlace.sol\":805:824  msg.sender == _shop */\n      0xffffffffffffffffffffffffffffffffffffffff\n      and\n        /* \"contracts/MarketPlace.sol\":805:815  msg.sender */\n      caller\n        /* \"contracts/MarketPlace.sol\":805:824  msg.sender == _shop */\n      0xffffffffffffffffffffffffffffffffffffffff\n      and\n      eq\n        /* \"contracts/MarketPlace.sol\":797:903  require(msg.sender == _shop, unicode\"Магазин не соответсвует отправителю\") */\n      tag_96\n      jumpi\n      mload(0x40)\n      0x08c379a000000000000000000000000000000000000000000000000000000000\n      dup2\n      mstore\n      0x04\n      add\n      tag_97\n      swap1\n      tag_84\n      jump\t// in\n    tag_97:\n      mload(0x40)\n      dup1\n      swap2\n      sub\n      swap1\n      revert\n    tag_96:\n        /* \"contracts/MarketPlace.sol\":1976:1977  0 */\n      0x00\n        /* \"contracts/MarketPlace.sol\":1966:1973  _amount */\n      dup4\n        /* \"contracts/MarketPlace.sol\":1966:1977  _amount > 0 */\n      gt\n        /* \"contracts/MarketPlace.sol\":1958:2020  require(_amount > 0, \"Purchase amount must be greater than 0\") */\n      tag_99\n      jumpi\n      mload(0x40)\n      0x08c379a000000000000000000000000000000000000000000000000000000000\n      dup2\n      mstore\n      0x04\n      add\n      tag_100\n      swap1\n      tag_101\n      jump\t// in\n    tag_100:\n      mload(0x40)\n      dup1\n      swap2\n      sub\n      swap1\n      revert\n    tag_99:\n        /* \"contracts/MarketPlace.sol\":2051:2063  userProducts */\n      0x03\n        /* \"contracts/MarketPlace.sol\":2051:2070  userProducts[_shop] */\n      0x00\n        /* \"contracts/MarketPlace.sol\":2064:2069  _shop */\n      dup7\n        /* \"contracts/MarketPlace.sol\":2051:2070  userProducts[_shop] */\n      0xffffffffffffffffffffffffffffffffffffffff\n      and\n      0xffffffffffffffffffffffffffffffffffffffff\n      and\n      dup2\n      mstore\n      0x20\n      add\n      swap1\n      dup2\n      mstore\n      0x20\n      add\n      0x00\n      keccak256\n        /* \"contracts/MarketPlace.sol\":2051:2077  userProducts[_shop].length */\n      dup1\n      sload\n      swap1\n      pop\n        /* \"contracts/MarketPlace.sol\":2038:2048  _productId */\n      dup5\n        /* \"contracts/MarketPlace.sol\":2038:2077  _productId < userProducts[_shop].length */\n      lt\n        /* \"contracts/MarketPlace.sol\":2030:2100  require(_productId < userProducts[_shop].length, \"Invalid product ID\") */\n      tag_102\n      jumpi\n      mload(0x40)\n      0x08c379a000000000000000000000000000000000000000000000000000000000\n      dup2\n      mstore\n      0x04\n      add\n      tag_103\n      swap1\n      tag_104\n      jump\t// in\n    tag_103:\n      mload(0x40)\n      dup1\n      swap2\n      sub\n      swap1\n      revert\n    tag_102:\n        /* \"contracts/MarketPlace.sol\":2111:2126  uint totalPrice */\n      0x00\n        /* \"contracts/MarketPlace.sol\":2136:2146  uint price */\n      dup1\n        /* \"contracts/MarketPlace.sol\":2156:2180  string memory targetName */\n      0x00\n        /* \"contracts/MarketPlace.sol\":2183:2195  userProducts */\n      0x03\n        /* \"contracts/MarketPlace.sol\":2183:2202  userProducts[_shop] */\n      0x00\n        /* \"contracts/MarketPlace.sol\":2196:2201  _shop */\n      dup10\n        /* \"contracts/MarketPlace.sol\":2183:2202  userProducts[_shop] */\n      0xffffffffffffffffffffffffffffffffffffffff\n      and\n      0xffffffffffffffffffffffffffffffffffffffff\n      and\n      dup2\n      mstore\n      0x20\n      add\n      swap1\n      dup2\n      mstore\n      0x20\n      add\n      0x00\n      keccak256\n        /* \"contracts/MarketPlace.sol\":2203:2213  _productId */\n      dup8\n        /* \"contracts/MarketPlace.sol\":2183:2214  userProducts[_shop][_productId] */\n      dup2\n      sload\n      dup2\n      lt\n      tag_105\n      jumpi\n      tag_106\n      tag_107\n      jump\t// in\n    tag_106:\n    tag_105:\n      swap1\n      0x00\n      mstore\n      keccak256(0x00, 0x20)\n      swap1\n      0x04\n      mul\n      add\n        /* \"contracts/MarketPlace.sol\":2183:2219  userProducts[_shop][_productId].name */\n      0x02\n      add\n        /* \"contracts/MarketPlace.sol\":2156:2219  string memory targetName = userProducts[_shop][_productId].name */\n      dup1\n      sload\n      tag_109\n      swap1\n      tag_110\n      jump\t// in\n    tag_109:\n      dup1\n      0x1f\n      add\n      0x20\n      dup1\n      swap2\n      div\n      mul\n      0x20\n      add\n      mload(0x40)\n      swap1\n      dup2\n      add\n      0x40\n      mstore\n      dup1\n      swap3\n      swap2\n      swap1\n      dup2\n      dup2\n      mstore\n      0x20\n      add\n      dup3\n      dup1\n      sload\n      tag_111\n      swap1\n      tag_110\n      jump\t// in\n    tag_111:\n      dup1\n      iszero\n      tag_112\n      jumpi\n      dup1\n      0x1f\n      lt\n      tag_113\n      jumpi\n      0x0100\n      dup1\n      dup4\n      sload\n      div\n      mul\n      dup4\n      mstore\n      swap2\n      0x20\n      add\n      swap2\n      jump(tag_112)\n    tag_113:\n      dup3\n      add\n      swap2\n      swap1\n      0x00\n      mstore\n      keccak256(0x00, 0x20)\n      swap1\n    tag_114:\n      dup2\n      sload\n      dup2\n      mstore\n      swap1\n      0x01\n      add\n      swap1\n      0x20\n      add\n      dup1\n      dup4\n      gt\n      tag_114\n      jumpi\n      dup3\n      swap1\n      sub\n      0x1f\n      and\n      dup3\n      add\n      swap2\n    tag_112:\n      pop\n      pop\n      pop\n      pop\n      pop\n      swap1\n      pop\n        /* \"contracts/MarketPlace.sol\":2234:2240  uint i */\n      0x00\n        /* \"contracts/MarketPlace.sol\":2230:2729  for(uint i = 0; i< userProducts[supplier].length; i++){... */\n    tag_115:\n        /* \"contracts/MarketPlace.sol\":2249:2261  userProducts */\n      0x03\n        /* \"contracts/MarketPlace.sol\":2249:2271  userProducts[supplier] */\n      0x00\n        /* \"contracts/MarketPlace.sol\":2262:2270  supplier */\n      0x01\n      0x00\n      swap1\n      sload\n      swap1\n      0x0100\n      exp\n      swap1\n      div\n      0xffffffffffffffffffffffffffffffffffffffff\n      and\n        /* \"contracts/MarketPlace.sol\":2249:2271  userProducts[supplier] */\n      0xffffffffffffffffffffffffffffffffffffffff\n      and\n      0xffffffffffffffffffffffffffffffffffffffff\n      and\n      dup2\n      mstore\n      0x20\n      add\n      swap1\n      dup2\n      mstore\n      0x20\n      add\n      0x00\n      keccak256\n        /* \"contracts/MarketPlace.sol\":2249:2278  userProducts[supplier].length */\n      dup1\n      sload\n      swap1\n      pop\n        /* \"contracts/MarketPlace.sol\":2246:2247  i */\n      dup2\n        /* \"contracts/MarketPlace.sol\":2246:2278  i< userProducts[supplier].length */\n      lt\n        /* \"contracts/MarketPlace.sol\":2230:2729  for(uint i = 0; i< userProducts[supplier].length; i++){... */\n      iszero\n      tag_116\n      jumpi\n        /* \"contracts/MarketPlace.sol\":2350:2362  userProducts */\n      0x03\n        /* \"contracts/MarketPlace.sol\":2350:2372  userProducts[supplier] */\n      0x00\n        /* \"contracts/MarketPlace.sol\":2363:2371  supplier */\n      0x01\n      0x00\n      swap1\n      sload\n      swap1\n      0x0100\n      exp\n      swap1\n      div\n      0xffffffffffffffffffffffffffffffffffffffff\n      and\n        /* \"contracts/MarketPlace.sol\":2350:2372  userProducts[supplier] */\n      0xffffffffffffffffffffffffffffffffffffffff\n      and\n      0xffffffffffffffffffffffffffffffffffffffff\n      and\n      dup2\n      mstore\n      0x20\n      add\n      swap1\n      dup2\n      mstore\n      0x20\n      add\n      0x00\n      keccak256\n        /* \"contracts/MarketPlace.sol\":2373:2374  i */\n      dup2\n        /* \"contracts/MarketPlace.sol\":2350:2375  userProducts[supplier][i] */\n      dup2\n      sload\n      dup2\n      lt\n      tag_118\n      jumpi\n      tag_119\n      tag_107\n      jump\t// in\n    tag_119:\n    tag_118:\n      swap1\n      0x00\n      mstore\n      keccak256(0x00, 0x20)\n      swap1\n      0x04\n      mul\n      add\n        /* \"contracts/MarketPlace.sol\":2350:2380  userProducts[supplier][i].name */\n      0x02\n      add\n        /* \"contracts/MarketPlace.sol\":2334:2382  keccak256(bytes(userProducts[supplier][i].name)) */\n      mload(0x40)\n      tag_121\n      swap2\n      swap1\n      tag_122\n      jump\t// in\n    tag_121:\n      mload(0x40)\n      dup1\n      swap2\n      sub\n      swap1\n      keccak256\n        /* \"contracts/MarketPlace.sol\":2318:2328  targetName */\n      dup3\n        /* \"contracts/MarketPlace.sol\":2302:2330  keccak256(bytes(targetName)) */\n      dup1\n      mload\n      swap1\n      0x20\n      add\n      keccak256\n        /* \"contracts/MarketPlace.sol\":2302:2382  keccak256(bytes(targetName)) == keccak256(bytes(userProducts[supplier][i].name)) */\n      sub\n        /* \"contracts/MarketPlace.sol\":2298:2719  if (keccak256(bytes(targetName)) == keccak256(bytes(userProducts[supplier][i].name))){... */\n      tag_123\n      jumpi\n        /* \"contracts/MarketPlace.sol\":2409:2421  userProducts */\n      0x03\n        /* \"contracts/MarketPlace.sol\":2409:2431  userProducts[supplier] */\n      0x00\n        /* \"contracts/MarketPlace.sol\":2422:2430  supplier */\n      0x01\n      0x00\n      swap1\n      sload\n      swap1\n      0x0100\n      exp\n      swap1\n      div\n      0xffffffffffffffffffffffffffffffffffffffff\n      and\n        /* \"contracts/MarketPlace.sol\":2409:2431  userProducts[supplier] */\n      0xffffffffffffffffffffffffffffffffffffffff\n      and\n      0xffffffffffffffffffffffffffffffffffffffff\n      and\n      dup2\n      mstore\n      0x20\n      add\n      swap1\n      dup2\n      mstore\n      0x20\n      add\n      0x00\n      keccak256\n        /* \"contracts/MarketPlace.sol\":2432:2433  i */\n      dup2\n        /* \"contracts/MarketPlace.sol\":2409:2434  userProducts[supplier][i] */\n      dup2\n      sload\n      dup2\n      lt\n      tag_124\n      jumpi\n      tag_125\n      tag_107\n      jump\t// in\n    tag_125:\n    tag_124:\n      swap1\n      0x00\n      mstore\n      keccak256(0x00, 0x20)\n      swap1\n      0x04\n      mul\n      add\n        /* \"contracts/MarketPlace.sol\":2409:2440  userProducts[supplier][i].price */\n      0x01\n      add\n      sload\n        /* \"contracts/MarketPlace.sol\":2401:2440  price = userProducts[supplier][i].price */\n      swap3\n      pop\n        /* \"contracts/MarketPlace.sol\":2489:2496  1 ether */\n      0x0de0b6b3a7640000\n        /* \"contracts/MarketPlace.sol\":2479:2486  _amount */\n      dup8\n        /* \"contracts/MarketPlace.sol\":2471:2476  price */\n      dup5\n        /* \"contracts/MarketPlace.sol\":2471:2486  price * _amount */\n      tag_127\n      swap2\n      swap1\n      tag_128\n      jump\t// in\n    tag_127:\n        /* \"contracts/MarketPlace.sol\":2471:2496  price * _amount * 1 ether */\n      tag_129\n      swap2\n      swap1\n      tag_128\n      jump\t// in\n    tag_129:\n        /* \"contracts/MarketPlace.sol\":2458:2496  totalPrice = price * _amount * 1 ether */\n      swap4\n      pop\n        /* \"contracts/MarketPlace.sol\":2535:2545  totalPrice */\n      dup4\n        /* \"contracts/MarketPlace.sol\":2522:2531  msg.value */\n      callvalue\n        /* \"contracts/MarketPlace.sol\":2522:2545  msg.value >= totalPrice */\n      lt\n      iszero\n        /* \"contracts/MarketPlace.sol\":2514:2573  require(msg.value >= totalPrice, \"Insufficient funds sent\") */\n      tag_130\n      jumpi\n      mload(0x40)\n      0x08c379a000000000000000000000000000000000000000000000000000000000\n      dup2\n      mstore\n      0x04\n      add\n      tag_131\n      swap1\n      tag_132\n      jump\t// in\n    tag_131:\n      mload(0x40)\n      dup1\n      swap2\n      sub\n      swap1\n      revert\n    tag_130:\n        /* \"contracts/MarketPlace.sol\":2626:2633  _amount */\n      dup7\n        /* \"contracts/MarketPlace.sol\":2591:2603  userProducts */\n      0x03\n        /* \"contracts/MarketPlace.sol\":2591:2613  userProducts[supplier] */\n      0x00\n        /* \"contracts/MarketPlace.sol\":2604:2612  supplier */\n      0x01\n      0x00\n      swap1\n      sload\n      swap1\n      0x0100\n      exp\n      swap1\n      div\n      0xffffffffffffffffffffffffffffffffffffffff\n      and\n        /* \"contracts/MarketPlace.sol\":2591:2613  userProducts[supplier] */\n      0xffffffffffffffffffffffffffffffffffffffff\n      and\n      0xffffffffffffffffffffffffffffffffffffffff\n      and\n      dup2\n      mstore\n      0x20\n      add\n      swap1\n      dup2\n      mstore\n      0x20\n      add\n      0x00\n      keccak256\n        /* \"contracts/MarketPlace.sol\":2614:2615  i */\n      dup3\n        /* \"contracts/MarketPlace.sol\":2591:2616  userProducts[supplier][i] */\n      dup2\n      sload\n      dup2\n      lt\n      tag_133\n      jumpi\n      tag_134\n      tag_107\n      jump\t// in\n    tag_134:\n    tag_133:\n      swap1\n      0x00\n      mstore\n      keccak256(0x00, 0x20)\n      swap1\n      0x04\n      mul\n      add\n        /* \"contracts/MarketPlace.sol\":2591:2624  userProducts[supplier][i].inStock */\n      0x00\n      add\n      0x00\n        /* \"contracts/MarketPlace.sol\":2591:2633  userProducts[supplier][i].inStock-=_amount */\n      dup3\n      dup3\n      sload\n      tag_136\n      swap2\n      swap1\n      tag_137\n      jump\t// in\n    tag_136:\n      swap3\n      pop\n      pop\n      dup2\n      swap1\n      sstore\n      pop\n        /* \"contracts/MarketPlace.sol\":2694:2701  _amount */\n      dup7\n        /* \"contracts/MarketPlace.sol\":2651:2663  userProducts */\n      0x03\n        /* \"contracts/MarketPlace.sol\":2651:2670  userProducts[_shop] */\n      0x00\n        /* \"contracts/MarketPlace.sol\":2664:2669  _shop */\n      dup12\n        /* \"contracts/MarketPlace.sol\":2651:2670  userProducts[_shop] */\n      0xffffffffffffffffffffffffffffffffffffffff\n      and\n      0xffffffffffffffffffffffffffffffffffffffff\n      and\n      dup2\n      mstore\n      0x20\n      add\n      swap1\n      dup2\n      mstore\n      0x20\n      add\n      0x00\n      keccak256\n        /* \"contracts/MarketPlace.sol\":2671:2681  _productId */\n      dup10\n        /* \"contracts/MarketPlace.sol\":2651:2682  userProducts[_shop][_productId] */\n      dup2\n      sload\n      dup2\n      lt\n      tag_138\n      jumpi\n      tag_139\n      tag_107\n      jump\t// in\n    tag_139:\n    tag_138:\n      swap1\n      0x00\n      mstore\n      keccak256(0x00, 0x20)\n      swap1\n      0x04\n      mul\n      add\n        /* \"contracts/MarketPlace.sol\":2651:2690  userProducts[_shop][_productId].inStock */\n      0x00\n      add\n      0x00\n        /* \"contracts/MarketPlace.sol\":2651:2701  userProducts[_shop][_productId].inStock += _amount */\n      dup3\n      dup3\n      sload\n      tag_141\n      swap2\n      swap1\n      tag_142\n      jump\t// in\n    tag_141:\n      swap3\n      pop\n      pop\n      dup2\n      swap1\n      sstore\n      pop\n        /* \"contracts/MarketPlace.sol\":2298:2719  if (keccak256(bytes(targetName)) == keccak256(bytes(userProducts[supplier][i].name))){... */\n    tag_123:\n        /* \"contracts/MarketPlace.sol\":2280:2283  i++ */\n      dup1\n      dup1\n      tag_143\n      swap1\n      tag_144\n      jump\t// in\n    tag_143:\n      swap2\n      pop\n      pop\n        /* \"contracts/MarketPlace.sol\":2230:2729  for(uint i = 0; i< userProducts[supplier].length; i++){... */\n      jump(tag_115)\n    tag_116:\n      pop\n        /* \"contracts/MarketPlace.sol\":2755:2765  totalPrice */\n      dup3\n        /* \"contracts/MarketPlace.sol\":2743:2752  msg.value */\n      callvalue\n        /* \"contracts/MarketPlace.sol\":2743:2765  msg.value > totalPrice */\n      gt\n        /* \"contracts/MarketPlace.sol\":2739:2878  if (msg.value > totalPrice) {... */\n      iszero\n      tag_145\n      jumpi\n        /* \"contracts/MarketPlace.sol\":2781:2792  uint change */\n      0x00\n        /* \"contracts/MarketPlace.sol\":2807:2817  totalPrice */\n      dup4\n        /* \"contracts/MarketPlace.sol\":2795:2804  msg.value */\n      callvalue\n        /* \"contracts/MarketPlace.sol\":2795:2817  msg.value - totalPrice */\n      tag_146\n      swap2\n      swap1\n      tag_137\n      jump\t// in\n    tag_146:\n        /* \"contracts/MarketPlace.sol\":2781:2817  uint change = msg.value - totalPrice */\n      swap1\n      pop\n        /* \"contracts/MarketPlace.sol\":2839:2849  msg.sender */\n      caller\n        /* \"contracts/MarketPlace.sol\":2831:2859  payable(msg.sender).transfer */\n      0xffffffffffffffffffffffffffffffffffffffff\n      and\n        /* \"contracts/MarketPlace.sol\":2831:2867  payable(msg.sender).transfer(change) */\n      0x08fc\n        /* \"contracts/MarketPlace.sol\":2860:2866  change */\n      dup3\n        /* \"contracts/MarketPlace.sol\":2831:2867  payable(msg.sender).transfer(change) */\n      swap1\n      dup2\n      iszero\n      mul\n      swap1\n      mload(0x40)\n      0x00\n      mload(0x40)\n      dup1\n      dup4\n      sub\n      dup2\n      dup6\n      dup9\n      dup9\n      call\n      swap4\n      pop\n      pop\n      pop\n      pop\n      iszero\n      dup1\n      iszero\n      tag_148\n      jumpi\n      returndatasize\n      0x00\n      dup1\n      returndatacopy\n      revert(0x00, returndatasize)\n    tag_148:\n      pop\n        /* \"contracts/MarketPlace.sol\":2767:2878  {... */\n      pop\n        /* \"contracts/MarketPlace.sol\":2739:2878  if (msg.value > totalPrice) {... */\n    tag_145:\n        /* \"contracts/MarketPlace.sol\":1948:2885  {... */\n      pop\n      pop\n      pop\n        /* \"contracts/MarketPlace.sol\":1833:2885  function refillStore(address _shop, uint _productId, uint _amount) public payable AccessControl(Role.Market, _shop){... */\n      pop\n      pop\n      pop\n      pop\n      pop\n      jump\t// out\n        /* \"contracts/MarketPlace.sol\":1149:1458  function addItemsSupplier(uint _inStock, uint _price, string calldata _name, uint _expDate) public{... */\n    tag_28:\n        /* \"contracts/MarketPlace.sol\":1268:1278  msg.sender */\n      caller\n        /* \"contracts/MarketPlace.sol\":1257:1265  supplier */\n      0x01\n      0x00\n        /* \"contracts/MarketPlace.sol\":1257:1278  supplier = msg.sender */\n      0x0100\n      exp\n      dup2\n      sload\n      dup2\n      0xffffffffffffffffffffffffffffffffffffffff\n      mul\n      not\n      and\n      swap1\n      dup4\n      0xffffffffffffffffffffffffffffffffffffffff\n      and\n      mul\n      or\n      swap1\n      sstore\n      pop\n        /* \"contracts/MarketPlace.sol\":1306:1328  User(Role.Supplier, 0) */\n      mload(0x40)\n      dup1\n      0x40\n      add\n      0x40\n      mstore\n      dup1\n        /* \"contracts/MarketPlace.sol\":1311:1324  Role.Supplier */\n      0x02\n        /* \"contracts/MarketPlace.sol\":1306:1328  User(Role.Supplier, 0) */\n      dup1\n      dup2\n      gt\n      iszero\n      tag_150\n      jumpi\n      tag_151\n      tag_76\n      jump\t// in\n    tag_151:\n    tag_150:\n      dup2\n      mstore\n      0x20\n      add\n        /* \"contracts/MarketPlace.sol\":1326:1327  0 */\n      0x00\n        /* \"contracts/MarketPlace.sol\":1306:1328  User(Role.Supplier, 0) */\n      dup2\n      mstore\n      pop\n        /* \"contracts/MarketPlace.sol\":1288:1293  users */\n      0x02\n        /* \"contracts/MarketPlace.sol\":1288:1303  users[supplier] */\n      0x00\n        /* \"contracts/MarketPlace.sol\":1294:1302  supplier */\n      0x01\n      0x00\n      swap1\n      sload\n      swap1\n      0x0100\n      exp\n      swap1\n      div\n      0xffffffffffffffffffffffffffffffffffffffff\n      and\n        /* \"contracts/MarketPlace.sol\":1288:1303  users[supplier] */\n      0xffffffffffffffffffffffffffffffffffffffff\n      and\n      0xffffffffffffffffffffffffffffffffffffffff\n      and\n      dup2\n      mstore\n      0x20\n      add\n      swap1\n      dup2\n      mstore\n      0x20\n      add\n      0x00\n      keccak256\n        /* \"contracts/MarketPlace.sol\":1288:1328  users[supplier] = User(Role.Supplier, 0) */\n      0x00\n      dup3\n      add\n      mload\n      dup2\n      0x00\n      add\n      exp(0x0100, 0x00)\n      dup2\n      sload\n      dup2\n      0xff\n      mul\n      not\n      and\n      swap1\n      dup4\n      0x02\n      dup2\n      gt\n      iszero\n      tag_152\n      jumpi\n      tag_153\n      tag_76\n      jump\t// in\n    tag_153:\n    tag_152:\n      mul\n      or\n      swap1\n      sstore\n      pop\n      0x20\n      dup3\n      add\n      mload\n      dup2\n      0x01\n      add\n      sstore\n      swap1\n      pop\n      pop\n        /* \"contracts/MarketPlace.sol\":1338:1357  Product memory item */\n      0x00\n        /* \"contracts/MarketPlace.sol\":1360:1406  Product(_inStock, _price / 2, _name, _expDate) */\n      mload(0x40)\n      dup1\n      0x80\n      add\n      0x40\n      mstore\n      dup1\n        /* \"contracts/MarketPlace.sol\":1368:1376  _inStock */\n      dup8\n        /* \"contracts/MarketPlace.sol\":1360:1406  Product(_inStock, _price / 2, _name, _expDate) */\n      dup2\n      mstore\n      0x20\n      add\n        /* \"contracts/MarketPlace.sol\":1387:1388  2 */\n      0x02\n        /* \"contracts/MarketPlace.sol\":1378:1384  _price */\n      dup8\n        /* \"contracts/MarketPlace.sol\":1378:1388  _price / 2 */\n      tag_154\n      swap2\n      swap1\n      tag_155\n      jump\t// in\n    tag_154:\n        /* \"contracts/MarketPlace.sol\":1360:1406  Product(_inStock, _price / 2, _name, _expDate) */\n      dup2\n      mstore\n      0x20\n      add\n        /* \"contracts/MarketPlace.sol\":1390:1395  _name */\n      dup6\n      dup6\n        /* \"contracts/MarketPlace.sol\":1360:1406  Product(_inStock, _price / 2, _name, _expDate) */\n      dup1\n      dup1\n      0x1f\n      add\n      0x20\n      dup1\n      swap2\n      div\n      mul\n      0x20\n      add\n      mload(0x40)\n      swap1\n      dup2\n      add\n      0x40\n      mstore\n      dup1\n      swap4\n      swap3\n      swap2\n      swap1\n      dup2\n      dup2\n      mstore\n      0x20\n      add\n      dup4\n      dup4\n      dup1\n      dup3\n      dup5\n      calldatacopy\n      0x00\n      dup2\n      dup5\n      add\n      mstore\n      not(0x1f)\n      0x1f\n      dup3\n      add\n      and\n      swap1\n      pop\n      dup1\n      dup4\n      add\n      swap3\n      pop\n      pop\n      pop\n      pop\n      pop\n      pop\n      pop\n      dup2\n      mstore\n      0x20\n      add\n        /* \"contracts/MarketPlace.sol\":1397:1405  _expDate */\n      dup4\n        /* \"contracts/MarketPlace.sol\":1360:1406  Product(_inStock, _price / 2, _name, _expDate) */\n      dup2\n      mstore\n      pop\n        /* \"contracts/MarketPlace.sol\":1338:1406  Product memory item = Product(_inStock, _price / 2, _name, _expDate) */\n      swap1\n      pop\n        /* \"contracts/MarketPlace.sol\":1416:1428  userProducts */\n      0x03\n        /* \"contracts/MarketPlace.sol\":1416:1440  userProducts[msg.sender] */\n      0x00\n        /* \"contracts/MarketPlace.sol\":1429:1439  msg.sender */\n      caller\n        /* \"contracts/MarketPlace.sol\":1416:1440  userProducts[msg.sender] */\n      0xffffffffffffffffffffffffffffffffffffffff\n      and\n      0xffffffffffffffffffffffffffffffffffffffff\n      and\n      dup2\n      mstore\n      0x20\n      add\n      swap1\n      dup2\n      mstore\n      0x20\n      add\n      0x00\n      keccak256\n        /* \"contracts/MarketPlace.sol\":1446:1450  item */\n      dup2\n        /* \"contracts/MarketPlace.sol\":1416:1451  userProducts[msg.sender].push(item) */\n      swap1\n      dup1\n      0x01\n      dup2\n      sload\n      add\n      dup1\n      dup3\n      sstore\n      dup1\n      swap2\n      pop\n      pop\n      0x01\n      swap1\n      sub\n      swap1\n      0x00\n      mstore\n      keccak256(0x00, 0x20)\n      swap1\n      0x04\n      mul\n      add\n      0x00\n      swap1\n      swap2\n      swap1\n      swap2\n      swap1\n      swap2\n      pop\n      0x00\n      dup3\n      add\n      mload\n      dup2\n      0x00\n      add\n      sstore\n      0x20\n      dup3\n      add\n      mload\n      dup2\n      0x01\n      add\n      sstore\n      0x40\n      dup3\n      add\n      mload\n      dup2\n      0x02\n      add\n      swap1\n      dup2\n      tag_157\n      swap2\n      swap1\n      tag_88\n      jump\t// in\n    tag_157:\n      pop\n      0x60\n      dup3\n      add\n      mload\n      dup2\n      0x03\n      add\n      sstore\n      pop\n      pop\n        /* \"contracts/MarketPlace.sol\":1247:1458  {... */\n      pop\n        /* \"contracts/MarketPlace.sol\":1149:1458  function addItemsSupplier(uint _inStock, uint _price, string calldata _name, uint _expDate) public{... */\n      pop\n      pop\n      pop\n      pop\n      pop\n      jump\t// out\n        /* \"contracts/MarketPlace.sol\":323:346  address public supplier */\n    tag_31:\n      0x01\n      0x00\n      swap1\n      sload\n      swap1\n      0x0100\n      exp\n      swap1\n      div\n      0xffffffffffffffffffffffffffffffffffffffff\n      and\n      dup2\n      jump\t// out\n        /* \"contracts/MarketPlace.sol\":616:665  mapping(address => Product[]) public userProducts */\n    tag_38:\n      mstore(0x20, 0x03)\n      dup2\n      0x00\n      mstore\n      keccak256(0x00, 0x40)\n      dup2\n      dup2\n      sload\n      dup2\n      lt\n      tag_158\n      jumpi\n      0x00\n      dup1\n      revert\n    tag_158:\n      swap1\n      0x00\n      mstore\n      keccak256(0x00, 0x20)\n      swap1\n      0x04\n      mul\n      add\n      0x00\n      swap2\n      pop\n      swap2\n      pop\n      pop\n      dup1\n      0x00\n      add\n      sload\n      swap1\n      dup1\n      0x01\n      add\n      sload\n      swap1\n      dup1\n      0x02\n      add\n      dup1\n      sload\n      tag_160\n      swap1\n      tag_110\n      jump\t// in\n    tag_160:\n      dup1\n      0x1f\n      add\n      0x20\n      dup1\n      swap2\n      div\n      mul\n      0x20\n      add\n      mload(0x40)\n      swap1\n      dup2\n      add\n      0x40\n      mstore\n      dup1\n      swap3\n      swap2\n      swap1\n      dup2\n      dup2\n      mstore\n      0x20\n      add\n      dup3\n      dup1\n      sload\n      tag_161\n      swap1\n      tag_110\n      jump\t// in\n    tag_161:\n      dup1\n      iszero\n      tag_162\n      jumpi\n      dup1\n      0x1f\n      lt\n      tag_163\n      jumpi\n      0x0100\n      dup1\n      dup4\n      sload\n      div\n      mul\n      dup4\n      mstore\n      swap2\n      0x20\n      add\n      swap2\n      jump(tag_162)\n    tag_163:\n      dup3\n      add\n      swap2\n      swap1\n      0x00\n      mstore\n      keccak256(0x00, 0x20)\n      swap1\n    tag_164:\n      dup2\n      sload\n      dup2\n      mstore\n      swap1\n      0x01\n      add\n      swap1\n      0x20\n      add\n      dup1\n      dup4\n      gt\n      tag_164\n      jumpi\n      dup3\n      swap1\n      sub\n      0x1f\n      and\n      dup3\n      add\n      swap2\n    tag_162:\n      pop\n      pop\n      pop\n      pop\n      pop\n      swap1\n      dup1\n      0x03\n      add\n      sload\n      swap1\n      pop\n      dup5\n      jump\t// out\n        /* \"contracts/MarketPlace.sol\":2891:3494  function refund(address _shop, uint _productId) public {... */\n    tag_44:\n        /* \"contracts/MarketPlace.sol\":2956:2968  uint userExp */\n      0x00\n        /* \"contracts/MarketPlace.sol\":2971:2983  userProducts */\n      0x03\n        /* \"contracts/MarketPlace.sol\":2971:2995  userProducts[msg.sender] */\n      0x00\n        /* \"contracts/MarketPlace.sol\":2984:2994  msg.sender */\n      caller\n        /* \"contracts/MarketPlace.sol\":2971:2995  userProducts[msg.sender] */\n      0xffffffffffffffffffffffffffffffffffffffff\n      and\n      0xffffffffffffffffffffffffffffffffffffffff\n      and\n      dup2\n      mstore\n      0x20\n      add\n      swap1\n      dup2\n      mstore\n      0x20\n      add\n      0x00\n      keccak256\n        /* \"contracts/MarketPlace.sol\":2996:3006  _productId */\n      dup3\n        /* \"contracts/MarketPlace.sol\":2971:3007  userProducts[msg.sender][_productId] */\n      dup2\n      sload\n      dup2\n      lt\n      tag_166\n      jumpi\n      tag_167\n      tag_107\n      jump\t// in\n    tag_167:\n    tag_166:\n      swap1\n      0x00\n      mstore\n      keccak256(0x00, 0x20)\n      swap1\n      0x04\n      mul\n      add\n        /* \"contracts/MarketPlace.sol\":2971:3015  userProducts[msg.sender][_productId].expDate */\n      0x03\n      add\n      sload\n        /* \"contracts/MarketPlace.sol\":2956:3015  uint userExp = userProducts[msg.sender][_productId].expDate */\n      swap1\n      pop\n        /* \"contracts/MarketPlace.sol\":3025:3037  uint shopExp */\n      0x00\n        /* \"contracts/MarketPlace.sol\":3040:3052  userProducts */\n      0x03\n        /* \"contracts/MarketPlace.sol\":3040:3059  userProducts[_shop] */\n      0x00\n        /* \"contracts/MarketPlace.sol\":3053:3058  _shop */\n      dup6\n        /* \"contracts/MarketPlace.sol\":3040:3059  userProducts[_shop] */\n      0xffffffffffffffffffffffffffffffffffffffff\n      and\n      0xffffffffffffffffffffffffffffffffffffffff\n      and\n      dup2\n      mstore\n      0x20\n      add\n      swap1\n      dup2\n      mstore\n      0x20\n      add\n      0x00\n      keccak256\n        /* \"contracts/MarketPlace.sol\":3060:3070  _productId */\n      dup4\n        /* \"contracts/MarketPlace.sol\":3040:3071  userProducts[_shop][_productId] */\n      dup2\n      sload\n      dup2\n      lt\n      tag_169\n      jumpi\n      tag_170\n      tag_107\n      jump\t// in\n    tag_170:\n    tag_169:\n      swap1\n      0x00\n      mstore\n      keccak256(0x00, 0x20)\n      swap1\n      0x04\n      mul\n      add\n        /* \"contracts/MarketPlace.sol\":3040:3079  userProducts[_shop][_productId].expDate */\n      0x03\n      add\n      sload\n        /* \"contracts/MarketPlace.sol\":3025:3079  uint shopExp = userProducts[_shop][_productId].expDate */\n      swap1\n      pop\n        /* \"contracts/MarketPlace.sol\":3107:3114  shopExp */\n      dup1\n        /* \"contracts/MarketPlace.sol\":3097:3104  userExp */\n      dup3\n        /* \"contracts/MarketPlace.sol\":3097:3114  userExp > shopExp */\n      gt\n        /* \"contracts/MarketPlace.sol\":3089:3115  require(userExp > shopExp) */\n      tag_172\n      jumpi\n      0x00\n      dup1\n      revert\n    tag_172:\n        /* \"contracts/MarketPlace.sol\":3125:3141  uint totalRefSum */\n      0x00\n        /* \"contracts/MarketPlace.sol\":3232:3239  1 ether */\n      0x0de0b6b3a7640000\n        /* \"contracts/MarketPlace.sol\":3192:3204  userProducts */\n      0x03\n        /* \"contracts/MarketPlace.sol\":3192:3211  userProducts[_shop] */\n      0x00\n        /* \"contracts/MarketPlace.sol\":3205:3210  _shop */\n      dup8\n        /* \"contracts/MarketPlace.sol\":3192:3211  userProducts[_shop] */\n      0xffffffffffffffffffffffffffffffffffffffff\n      and\n      0xffffffffffffffffffffffffffffffffffffffff\n      and\n      dup2\n      mstore\n      0x20\n      add\n      swap1\n      dup2\n      mstore\n      0x20\n      add\n      0x00\n      keccak256\n        /* \"contracts/MarketPlace.sol\":3212:3222  _productId */\n      dup6\n        /* \"contracts/MarketPlace.sol\":3192:3223  userProducts[_shop][_productId] */\n      dup2\n      sload\n      dup2\n      lt\n      tag_173\n      jumpi\n      tag_174\n      tag_107\n      jump\t// in\n    tag_174:\n    tag_173:\n      swap1\n      0x00\n      mstore\n      keccak256(0x00, 0x20)\n      swap1\n      0x04\n      mul\n      add\n        /* \"contracts/MarketPlace.sol\":3192:3229  userProducts[_shop][_productId].price */\n      0x01\n      add\n      sload\n        /* \"contracts/MarketPlace.sol\":3145:3157  userProducts */\n      0x03\n        /* \"contracts/MarketPlace.sol\":3145:3169  userProducts[msg.sender] */\n      0x00\n        /* \"contracts/MarketPlace.sol\":3158:3168  msg.sender */\n      caller\n        /* \"contracts/MarketPlace.sol\":3145:3169  userProducts[msg.sender] */\n      0xffffffffffffffffffffffffffffffffffffffff\n      and\n      0xffffffffffffffffffffffffffffffffffffffff\n      and\n      dup2\n      mstore\n      0x20\n      add\n      swap1\n      dup2\n      mstore\n      0x20\n      add\n      0x00\n      keccak256\n        /* \"contracts/MarketPlace.sol\":3170:3180  _productId */\n      dup7\n        /* \"contracts/MarketPlace.sol\":3145:3181  userProducts[msg.sender][_productId] */\n      dup2\n      sload\n      dup2\n      lt\n      tag_176\n      jumpi\n      tag_177\n      tag_107\n      jump\t// in\n    tag_177:\n    tag_176:\n      swap1\n      0x00\n      mstore\n      keccak256(0x00, 0x20)\n      swap1\n      0x04\n      mul\n      add\n        /* \"contracts/MarketPlace.sol\":3145:3189  userProducts[msg.sender][_productId].inStock */\n      0x00\n      add\n      sload\n        /* \"contracts/MarketPlace.sol\":3145:3229  userProducts[msg.sender][_productId].inStock * userProducts[_shop][_productId].price */\n      tag_179\n      swap2\n      swap1\n      tag_128\n      jump\t// in\n    tag_179:\n        /* \"contracts/MarketPlace.sol\":3145:3239  userProducts[msg.sender][_productId].inStock * userProducts[_shop][_productId].price * 1 ether */\n      tag_180\n      swap2\n      swap1\n      tag_128\n      jump\t// in\n    tag_180:\n        /* \"contracts/MarketPlace.sol\":3125:3239  uint totalRefSum =  userProducts[msg.sender][_productId].inStock * userProducts[_shop][_productId].price * 1 ether */\n      swap1\n      pop\n        /* \"contracts/MarketPlace.sol\":3292:3304  userProducts */\n      0x03\n        /* \"contracts/MarketPlace.sol\":3292:3316  userProducts[msg.sender] */\n      0x00\n        /* \"contracts/MarketPlace.sol\":3305:3315  msg.sender */\n      caller\n        /* \"contracts/MarketPlace.sol\":3292:3316  userProducts[msg.sender] */\n      0xffffffffffffffffffffffffffffffffffffffff\n      and\n      0xffffffffffffffffffffffffffffffffffffffff\n      and\n      dup2\n      mstore\n      0x20\n      add\n      swap1\n      dup2\n      mstore\n      0x20\n      add\n      0x00\n      keccak256\n        /* \"contracts/MarketPlace.sol\":3317:3327  _productId */\n      dup5\n        /* \"contracts/MarketPlace.sol\":3292:3328  userProducts[msg.sender][_productId] */\n      dup2\n      sload\n      dup2\n      lt\n      tag_181\n      jumpi\n      tag_182\n      tag_107\n      jump\t// in\n    tag_182:\n    tag_181:\n      swap1\n      0x00\n      mstore\n      keccak256(0x00, 0x20)\n      swap1\n      0x04\n      mul\n      add\n        /* \"contracts/MarketPlace.sol\":3292:3336  userProducts[msg.sender][_productId].inStock */\n      0x00\n      add\n      sload\n        /* \"contracts/MarketPlace.sol\":3249:3261  userProducts */\n      0x03\n        /* \"contracts/MarketPlace.sol\":3249:3268  userProducts[_shop] */\n      0x00\n        /* \"contracts/MarketPlace.sol\":3262:3267  _shop */\n      dup8\n        /* \"contracts/MarketPlace.sol\":3249:3268  userProducts[_shop] */\n      0xffffffffffffffffffffffffffffffffffffffff\n      and\n      0xffffffffffffffffffffffffffffffffffffffff\n      and\n      dup2\n      mstore\n      0x20\n      add\n      swap1\n      dup2\n      mstore\n      0x20\n      add\n      0x00\n      keccak256\n        /* \"contracts/MarketPlace.sol\":3269:3279  _productId */\n      dup6\n        /* \"contracts/MarketPlace.sol\":3249:3280  userProducts[_shop][_productId] */\n      dup2\n      sload\n      dup2\n      lt\n      tag_184\n      jumpi\n      tag_185\n      tag_107\n      jump\t// in\n    tag_185:\n    tag_184:\n      swap1\n      0x00\n      mstore\n      keccak256(0x00, 0x20)\n      swap1\n      0x04\n      mul\n      add\n        /* \"contracts/MarketPlace.sol\":3249:3288  userProducts[_shop][_productId].inStock */\n      0x00\n      add\n      0x00\n        /* \"contracts/MarketPlace.sol\":3249:3336  userProducts[_shop][_productId].inStock += userProducts[msg.sender][_productId].inStock */\n      dup3\n      dup3\n      sload\n      tag_187\n      swap2\n      swap1\n      tag_142\n      jump\t// in\n    tag_187:\n      swap3\n      pop\n      pop\n      dup2\n      swap1\n      sstore\n      pop\n        /* \"contracts/MarketPlace.sol\":3353:3365  userProducts */\n      0x03\n        /* \"contracts/MarketPlace.sol\":3353:3377  userProducts[msg.sender] */\n      0x00\n        /* \"contracts/MarketPlace.sol\":3366:3376  msg.sender */\n      caller\n        /* \"contracts/MarketPlace.sol\":3353:3377  userProducts[msg.sender] */\n      0xffffffffffffffffffffffffffffffffffffffff\n      and\n      0xffffffffffffffffffffffffffffffffffffffff\n      and\n      dup2\n      mstore\n      0x20\n      add\n      swap1\n      dup2\n      mstore\n      0x20\n      add\n      0x00\n      keccak256\n        /* \"contracts/MarketPlace.sol\":3378:3388  _productId */\n      dup5\n        /* \"contracts/MarketPlace.sol\":3353:3389  userProducts[msg.sender][_productId] */\n      dup2\n      sload\n      dup2\n      lt\n      tag_188\n      jumpi\n      tag_189\n      tag_107\n      jump\t// in\n    tag_189:\n    tag_188:\n      swap1\n      0x00\n      mstore\n      keccak256(0x00, 0x20)\n      swap1\n      0x04\n      mul\n      add\n      0x00\n        /* \"contracts/MarketPlace.sol\":3346:3389  delete userProducts[msg.sender][_productId] */\n      dup1\n      dup3\n      add\n      0x00\n      swap1\n      sstore\n      0x01\n      dup3\n      add\n      0x00\n      swap1\n      sstore\n      0x02\n      dup3\n      add\n      0x00\n      tag_191\n      swap2\n      swap1\n      tag_192\n      jump\t// in\n    tag_191:\n      0x03\n      dup3\n      add\n      0x00\n      swap1\n      sstore\n      pop\n      pop\n        /* \"contracts/MarketPlace.sol\":3423:3434  totalRefSum */\n      dup1\n        /* \"contracts/MarketPlace.sol\":3399:3404  users */\n      0x02\n        /* \"contracts/MarketPlace.sol\":3399:3411  users[_shop] */\n      0x00\n        /* \"contracts/MarketPlace.sol\":3405:3410  _shop */\n      dup8\n        /* \"contracts/MarketPlace.sol\":3399:3411  users[_shop] */\n      0xffffffffffffffffffffffffffffffffffffffff\n      and\n      0xffffffffffffffffffffffffffffffffffffffff\n      and\n      dup2\n      mstore\n      0x20\n      add\n      swap1\n      dup2\n      mstore\n      0x20\n      add\n      0x00\n      keccak256\n        /* \"contracts/MarketPlace.sol\":3399:3419  users[_shop].balance */\n      0x01\n      add\n      0x00\n        /* \"contracts/MarketPlace.sol\":3399:3434  users[_shop].balance -= totalRefSum */\n      dup3\n      dup3\n      sload\n      tag_193\n      swap2\n      swap1\n      tag_137\n      jump\t// in\n    tag_193:\n      swap3\n      pop\n      pop\n      dup2\n      swap1\n      sstore\n      pop\n        /* \"contracts/MarketPlace.sol\":3452:3462  msg.sender */\n      caller\n        /* \"contracts/MarketPlace.sol\":3444:3472  payable(msg.sender).transfer */\n      0xffffffffffffffffffffffffffffffffffffffff\n      and\n        /* \"contracts/MarketPlace.sol\":3444:3485  payable(msg.sender).transfer(totalRefSum) */\n      0x08fc\n        /* \"contracts/MarketPlace.sol\":3473:3484  totalRefSum */\n      dup3\n        /* \"contracts/MarketPlace.sol\":3444:3485  payable(msg.sender).transfer(totalRefSum) */\n      swap1\n      dup2\n      iszero\n      mul\n      swap1\n      mload(0x40)\n      0x00\n      mload(0x40)\n      dup1\n      dup4\n      sub\n      dup2\n      dup6\n      dup9\n      dup9\n      call\n      swap4\n      pop\n      pop\n      pop\n      pop\n      iszero\n      dup1\n      iszero\n      tag_195\n      jumpi\n      returndatasize\n      0x00\n      dup1\n      returndatacopy\n      revert(0x00, returndatasize)\n    tag_195:\n      pop\n        /* \"contracts/MarketPlace.sol\":2946:3494  {... */\n      pop\n      pop\n      pop\n        /* \"contracts/MarketPlace.sol\":2891:3494  function refund(address _shop, uint _productId) public {... */\n      pop\n      pop\n      jump\t// out\n        /* \"contracts/MarketPlace.sol\":1469:1556  function makeMarket() public  {... */\n    tag_47:\n        /* \"contracts/MarketPlace.sol\":1529:1549  User(Role.Market, 0) */\n      mload(0x40)\n      dup1\n      0x40\n      add\n      0x40\n      mstore\n      dup1\n        /* \"contracts/MarketPlace.sol\":1534:1545  Role.Market */\n      0x01\n        /* \"contracts/MarketPlace.sol\":1529:1549  User(Role.Market, 0) */\n      0x02\n      dup2\n      gt\n      iszero\n      tag_197\n      jumpi\n      tag_198\n      tag_76\n      jump\t// in\n    tag_198:\n    tag_197:\n      dup2\n      mstore\n      0x20\n      add\n        /* \"contracts/MarketPlace.sol\":1547:1548  0 */\n      0x00\n        /* \"contracts/MarketPlace.sol\":1529:1549  User(Role.Market, 0) */\n      dup2\n      mstore\n      pop\n        /* \"contracts/MarketPlace.sol\":1509:1514  users */\n      0x02\n        /* \"contracts/MarketPlace.sol\":1509:1526  users[msg.sender] */\n      0x00\n        /* \"contracts/MarketPlace.sol\":1515:1525  msg.sender */\n      caller\n        /* \"contracts/MarketPlace.sol\":1509:1526  users[msg.sender] */\n      0xffffffffffffffffffffffffffffffffffffffff\n      and\n      0xffffffffffffffffffffffffffffffffffffffff\n      and\n      dup2\n      mstore\n      0x20\n      add\n      swap1\n      dup2\n      mstore\n      0x20\n      add\n      0x00\n      keccak256\n        /* \"contracts/MarketPlace.sol\":1509:1549  users[msg.sender] = User(Role.Market, 0) */\n      0x00\n      dup3\n      add\n      mload\n      dup2\n      0x00\n      add\n      exp(0x0100, 0x00)\n      dup2\n      sload\n      dup2\n      0xff\n      mul\n      not\n      and\n      swap1\n      dup4\n      0x02\n      dup2\n      gt\n      iszero\n      tag_199\n      jumpi\n      tag_200\n      tag_76\n      jump\t// in\n    tag_200:\n    tag_199:\n      mul\n      or\n      swap1\n      sstore\n      pop\n      0x20\n      dup3\n      add\n      mload\n      dup2\n      0x01\n      add\n      sstore\n      swap1\n      pop\n      pop\n        /* \"contracts/MarketPlace.sol\":1469:1556  function makeMarket() public  {... */\n      jump\t// out\n        /* \"contracts/MarketPlace.sol\":927:1143  function randMod(uint _modulus) public view returns(uint)... */\n    tag_52:\n        /* \"contracts/MarketPlace.sol\":979:983  uint */\n      0x00\n        /* \"contracts/MarketPlace.sol\":1002:1016  uint randNonce */\n      dup1\n        /* \"contracts/MarketPlace.sol\":1026:1037  randNonce++ */\n      dup1\n      dup1\n      tag_202\n      swap1\n      tag_144\n      jump\t// in\n    tag_202:\n      swap2\n      pop\n      pop\n        /* \"contracts/MarketPlace.sol\":1128:1136  _modulus */\n      dup3\n        /* \"contracts/MarketPlace.sol\":1086:1101  block.timestamp */\n      timestamp\n        /* \"contracts/MarketPlace.sol\":1102:1112  msg.sender */\n      caller\n        /* \"contracts/MarketPlace.sol\":1113:1122  randNonce */\n      dup4\n        /* \"contracts/MarketPlace.sol\":1069:1123  abi.encodePacked(block.timestamp,msg.sender,randNonce) */\n      add(0x20, mload(0x40))\n      tag_203\n      swap4\n      swap3\n      swap2\n      swap1\n      tag_204\n      jump\t// in\n    tag_203:\n      mload(0x40)\n      0x20\n      dup2\n      dup4\n      sub\n      sub\n      dup2\n      mstore\n      swap1\n      0x40\n      mstore\n        /* \"contracts/MarketPlace.sol\":1059:1124  keccak256(abi.encodePacked(block.timestamp,msg.sender,randNonce)) */\n      dup1\n      mload\n      swap1\n      0x20\n      add\n      keccak256\n        /* \"contracts/MarketPlace.sol\":1054:1125  uint(keccak256(abi.encodePacked(block.timestamp,msg.sender,randNonce))) */\n      0x00\n      shr\n        /* \"contracts/MarketPlace.sol\":1054:1136  uint(keccak256(abi.encodePacked(block.timestamp,msg.sender,randNonce))) % _modulus */\n      tag_205\n      swap2\n      swap1\n      tag_206\n      jump\t// in\n    tag_205:\n        /* \"contracts/MarketPlace.sol\":1047:1136  return uint(keccak256(abi.encodePacked(block.timestamp,msg.sender,randNonce))) % _modulus */\n      swap2\n      pop\n      pop\n        /* \"contracts/MarketPlace.sol\":927:1143  function randMod(uint _modulus) public view returns(uint)... */\n      swap2\n      swap1\n      pop\n      jump\t// out\n        /* \"contracts/MarketPlace.sol\":297:317  address public owner */\n    tag_57:\n      0x00\n      dup1\n      sload\n      swap1\n      0x0100\n      exp\n      swap1\n      div\n      0xffffffffffffffffffffffffffffffffffffffff\n      and\n      dup2\n      jump\t// out\n        /* \"contracts/MarketPlace.sol\":3500:5256  function purchase(address _shop, uint _amount, uint _id) public payable {... */\n    tag_61:\n        /* \"contracts/MarketPlace.sol\":3612:3621  Role.User */\n      0x00\n        /* \"contracts/MarketPlace.sol\":3586:3621  users[msg.sender].role == Role.User */\n      0x02\n      dup2\n      gt\n      iszero\n      tag_208\n      jumpi\n      tag_209\n      tag_76\n      jump\t// in\n    tag_209:\n    tag_208:\n        /* \"contracts/MarketPlace.sol\":3586:3591  users */\n      0x02\n        /* \"contracts/MarketPlace.sol\":3586:3603  users[msg.sender] */\n      0x00\n        /* \"contracts/MarketPlace.sol\":3592:3602  msg.sender */\n      caller\n        /* \"contracts/MarketPlace.sol\":3586:3603  users[msg.sender] */\n      0xffffffffffffffffffffffffffffffffffffffff\n      and\n      0xffffffffffffffffffffffffffffffffffffffff\n      and\n      dup2\n      mstore\n      0x20\n      add\n      swap1\n      dup2\n      mstore\n      0x20\n      add\n      0x00\n      keccak256\n        /* \"contracts/MarketPlace.sol\":3586:3608  users[msg.sender].role */\n      0x00\n      add\n      0x00\n      swap1\n      sload\n      swap1\n      0x0100\n      exp\n      swap1\n      div\n      0xff\n      and\n        /* \"contracts/MarketPlace.sol\":3586:3621  users[msg.sender].role == Role.User */\n      0x02\n      dup2\n      gt\n      iszero\n      tag_210\n      jumpi\n      tag_211\n      tag_76\n      jump\t// in\n    tag_211:\n    tag_210:\n      sub\n        /* \"contracts/MarketPlace.sol\":3582:3687  if (users[msg.sender].role == Role.User) {... */\n      tag_212\n      jumpi\n        /* \"contracts/MarketPlace.sol\":3657:3676  User( Role.User, 0) */\n      mload(0x40)\n      dup1\n      0x40\n      add\n      0x40\n      mstore\n      dup1\n        /* \"contracts/MarketPlace.sol\":3663:3672  Role.User */\n      0x00\n        /* \"contracts/MarketPlace.sol\":3657:3676  User( Role.User, 0) */\n      0x02\n      dup2\n      gt\n      iszero\n      tag_213\n      jumpi\n      tag_214\n      tag_76\n      jump\t// in\n    tag_214:\n    tag_213:\n      dup2\n      mstore\n      0x20\n      add\n        /* \"contracts/MarketPlace.sol\":3674:3675  0 */\n      0x00\n        /* \"contracts/MarketPlace.sol\":3657:3676  User( Role.User, 0) */\n      dup2\n      mstore\n      pop\n        /* \"contracts/MarketPlace.sol\":3637:3642  users */\n      0x02\n        /* \"contracts/MarketPlace.sol\":3637:3654  users[msg.sender] */\n      0x00\n        /* \"contracts/MarketPlace.sol\":3643:3653  msg.sender */\n      caller\n        /* \"contracts/MarketPlace.sol\":3637:3654  users[msg.sender] */\n      0xffffffffffffffffffffffffffffffffffffffff\n      and\n      0xffffffffffffffffffffffffffffffffffffffff\n      and\n      dup2\n      mstore\n      0x20\n      add\n      swap1\n      dup2\n      mstore\n      0x20\n      add\n      0x00\n      keccak256\n        /* \"contracts/MarketPlace.sol\":3637:3676  users[msg.sender] = User( Role.User, 0) */\n      0x00\n      dup3\n      add\n      mload\n      dup2\n      0x00\n      add\n      exp(0x0100, 0x00)\n      dup2\n      sload\n      dup2\n      0xff\n      mul\n      not\n      and\n      swap1\n      dup4\n      0x02\n      dup2\n      gt\n      iszero\n      tag_215\n      jumpi\n      tag_216\n      tag_76\n      jump\t// in\n    tag_216:\n    tag_215:\n      mul\n      or\n      swap1\n      sstore\n      pop\n      0x20\n      dup3\n      add\n      mload\n      dup2\n      0x01\n      add\n      sstore\n      swap1\n      pop\n      pop\n        /* \"contracts/MarketPlace.sol\":3582:3687  if (users[msg.sender].role == Role.User) {... */\n    tag_212:\n        /* \"contracts/MarketPlace.sol\":3723:3724  0 */\n      0x00\n        /* \"contracts/MarketPlace.sol\":3713:3720  _amount */\n      dup3\n        /* \"contracts/MarketPlace.sol\":3713:3724  _amount > 0 */\n      gt\n        /* \"contracts/MarketPlace.sol\":3705:3767  require(_amount > 0, \"Purchase amount must be greater than 0\") */\n      tag_217\n      jumpi\n      mload(0x40)\n      0x08c379a000000000000000000000000000000000000000000000000000000000\n      dup2\n      mstore\n      0x04\n      add\n      tag_218\n      swap1\n      tag_101\n      jump\t// in\n    tag_218:\n      mload(0x40)\n      dup1\n      swap2\n      sub\n      swap1\n      revert\n    tag_217:\n        /* \"contracts/MarketPlace.sol\":3791:3803  userProducts */\n      0x03\n        /* \"contracts/MarketPlace.sol\":3791:3810  userProducts[_shop] */\n      0x00\n        /* \"contracts/MarketPlace.sol\":3804:3809  _shop */\n      dup5\n        /* \"contracts/MarketPlace.sol\":3791:3810  userProducts[_shop] */\n      0xffffffffffffffffffffffffffffffffffffffff\n      and\n      0xffffffffffffffffffffffffffffffffffffffff\n      and\n      dup2\n      mstore\n      0x20\n      add\n      swap1\n      dup2\n      mstore\n      0x20\n      add\n      0x00\n      keccak256\n        /* \"contracts/MarketPlace.sol\":3791:3817  userProducts[_shop].length */\n      dup1\n      sload\n      swap1\n      pop\n        /* \"contracts/MarketPlace.sol\":3785:3788  _id */\n      dup2\n        /* \"contracts/MarketPlace.sol\":3785:3817  _id < userProducts[_shop].length */\n      lt\n        /* \"contracts/MarketPlace.sol\":3777:3840  require(_id < userProducts[_shop].length, \"Invalid product ID\") */\n      tag_219\n      jumpi\n      mload(0x40)\n      0x08c379a000000000000000000000000000000000000000000000000000000000\n      dup2\n      mstore\n      0x04\n      add\n      tag_220\n      swap1\n      tag_104\n      jump\t// in\n    tag_220:\n      mload(0x40)\n      dup1\n      swap2\n      sub\n      swap1\n      revert\n    tag_219:\n        /* \"contracts/MarketPlace.sol\":3869:3881  userProducts */\n      0x03\n        /* \"contracts/MarketPlace.sol\":3869:3888  userProducts[_shop] */\n      0x00\n        /* \"contracts/MarketPlace.sol\":3882:3887  _shop */\n      dup5\n        /* \"contracts/MarketPlace.sol\":3869:3888  userProducts[_shop] */\n      0xffffffffffffffffffffffffffffffffffffffff\n      and\n      0xffffffffffffffffffffffffffffffffffffffff\n      and\n      dup2\n      mstore\n      0x20\n      add\n      swap1\n      dup2\n      mstore\n      0x20\n      add\n      0x00\n      keccak256\n        /* \"contracts/MarketPlace.sol\":3889:3892  _id */\n      dup2\n        /* \"contracts/MarketPlace.sol\":3869:3893  userProducts[_shop][_id] */\n      dup2\n      sload\n      dup2\n      lt\n      tag_221\n      jumpi\n      tag_222\n      tag_107\n      jump\t// in\n    tag_222:\n    tag_221:\n      swap1\n      0x00\n      mstore\n      keccak256(0x00, 0x20)\n      swap1\n      0x04\n      mul\n      add\n        /* \"contracts/MarketPlace.sol\":3869:3901  userProducts[_shop][_id].inStock */\n      0x00\n      add\n      sload\n        /* \"contracts/MarketPlace.sol\":3858:3865  _amount */\n      dup3\n        /* \"contracts/MarketPlace.sol\":3858:3901  _amount <= userProducts[_shop][_id].inStock */\n      gt\n      iszero\n        /* \"contracts/MarketPlace.sol\":3850:3932  require(_amount <= userProducts[_shop][_id].inStock, \"Not enough stock available\") */\n      tag_224\n      jumpi\n      mload(0x40)\n      0x08c379a000000000000000000000000000000000000000000000000000000000\n      dup2\n      mstore\n      0x04\n      add\n      tag_225\n      swap1\n      tag_226\n      jump\t// in\n    tag_225:\n      mload(0x40)\n      dup1\n      swap2\n      sub\n      swap1\n      revert\n    tag_224:\n        /* \"contracts/MarketPlace.sol\":3943:3958  uint totalPrice */\n      0x00\n        /* \"contracts/MarketPlace.sol\":4004:4011  1 ether */\n      0x0de0b6b3a7640000\n        /* \"contracts/MarketPlace.sol\":3971:3983  userProducts */\n      0x03\n        /* \"contracts/MarketPlace.sol\":3971:3990  userProducts[_shop] */\n      0x00\n        /* \"contracts/MarketPlace.sol\":3984:3989  _shop */\n      dup7\n        /* \"contracts/MarketPlace.sol\":3971:3990  userProducts[_shop] */\n      0xffffffffffffffffffffffffffffffffffffffff\n      and\n      0xffffffffffffffffffffffffffffffffffffffff\n      and\n      dup2\n      mstore\n      0x20\n      add\n      swap1\n      dup2\n      mstore\n      0x20\n      add\n      0x00\n      keccak256\n        /* \"contracts/MarketPlace.sol\":3991:3994  _id */\n      dup4\n        /* \"contracts/MarketPlace.sol\":3971:3995  userProducts[_shop][_id] */\n      dup2\n      sload\n      dup2\n      lt\n      tag_227\n      jumpi\n      tag_228\n      tag_107\n      jump\t// in\n    tag_228:\n    tag_227:\n      swap1\n      0x00\n      mstore\n      keccak256(0x00, 0x20)\n      swap1\n      0x04\n      mul\n      add\n        /* \"contracts/MarketPlace.sol\":3971:4001  userProducts[_shop][_id].price */\n      0x01\n      add\n      sload\n        /* \"contracts/MarketPlace.sol\":3961:3968  _amount */\n      dup5\n        /* \"contracts/MarketPlace.sol\":3961:4001  _amount * userProducts[_shop][_id].price */\n      tag_230\n      swap2\n      swap1\n      tag_128\n      jump\t// in\n    tag_230:\n        /* \"contracts/MarketPlace.sol\":3961:4011  _amount * userProducts[_shop][_id].price * 1 ether */\n      tag_231\n      swap2\n      swap1\n      tag_128\n      jump\t// in\n    tag_231:\n        /* \"contracts/MarketPlace.sol\":3943:4011  uint totalPrice = _amount * userProducts[_shop][_id].price * 1 ether */\n      swap1\n      pop\n        /* \"contracts/MarketPlace.sol\":4042:4052  totalPrice */\n      dup1\n        /* \"contracts/MarketPlace.sol\":4029:4038  msg.value */\n      callvalue\n        /* \"contracts/MarketPlace.sol\":4029:4052  msg.value >= totalPrice */\n      lt\n      iszero\n        /* \"contracts/MarketPlace.sol\":4021:4080  require(msg.value >= totalPrice, \"Insufficient funds sent\") */\n      tag_232\n      jumpi\n      mload(0x40)\n      0x08c379a000000000000000000000000000000000000000000000000000000000\n      dup2\n      mstore\n      0x04\n      add\n      tag_233\n      swap1\n      tag_132\n      jump\t// in\n    tag_233:\n      mload(0x40)\n      dup1\n      swap2\n      sub\n      swap1\n      revert\n    tag_232:\n        /* \"contracts/MarketPlace.sol\":4181:4199  bool productExists */\n      0x00\n        /* \"contracts/MarketPlace.sol\":4222:4228  uint i */\n      dup1\n        /* \"contracts/MarketPlace.sol\":4217:4624  for (uint i = 0; i < userProducts[msg.sender].length; i++) {... */\n    tag_234:\n        /* \"contracts/MarketPlace.sol\":4238:4250  userProducts */\n      0x03\n        /* \"contracts/MarketPlace.sol\":4238:4262  userProducts[msg.sender] */\n      0x00\n        /* \"contracts/MarketPlace.sol\":4251:4261  msg.sender */\n      caller\n        /* \"contracts/MarketPlace.sol\":4238:4262  userProducts[msg.sender] */\n      0xffffffffffffffffffffffffffffffffffffffff\n      and\n      0xffffffffffffffffffffffffffffffffffffffff\n      and\n      dup2\n      mstore\n      0x20\n      add\n      swap1\n      dup2\n      mstore\n      0x20\n      add\n      0x00\n      keccak256\n        /* \"contracts/MarketPlace.sol\":4238:4269  userProducts[msg.sender].length */\n      dup1\n      sload\n      swap1\n      pop\n        /* \"contracts/MarketPlace.sol\":4234:4235  i */\n      dup2\n        /* \"contracts/MarketPlace.sol\":4234:4269  i < userProducts[msg.sender].length */\n      lt\n        /* \"contracts/MarketPlace.sol\":4217:4624  for (uint i = 0; i < userProducts[msg.sender].length; i++) {... */\n      iszero\n      tag_235\n      jumpi\n        /* \"contracts/MarketPlace.sol\":4364:4376  userProducts */\n      0x03\n        /* \"contracts/MarketPlace.sol\":4364:4383  userProducts[_shop] */\n      0x00\n        /* \"contracts/MarketPlace.sol\":4377:4382  _shop */\n      dup8\n        /* \"contracts/MarketPlace.sol\":4364:4383  userProducts[_shop] */\n      0xffffffffffffffffffffffffffffffffffffffff\n      and\n      0xffffffffffffffffffffffffffffffffffffffff\n      and\n      dup2\n      mstore\n      0x20\n      add\n      swap1\n      dup2\n      mstore\n      0x20\n      add\n      0x00\n      keccak256\n        /* \"contracts/MarketPlace.sol\":4384:4387  _id */\n      dup5\n        /* \"contracts/MarketPlace.sol\":4364:4388  userProducts[_shop][_id] */\n      dup2\n      sload\n      dup2\n      lt\n      tag_237\n      jumpi\n      tag_238\n      tag_107\n      jump\t// in\n    tag_238:\n    tag_237:\n      swap1\n      0x00\n      mstore\n      keccak256(0x00, 0x20)\n      swap1\n      0x04\n      mul\n      add\n        /* \"contracts/MarketPlace.sol\":4364:4393  userProducts[_shop][_id].name */\n      0x02\n      add\n        /* \"contracts/MarketPlace.sol\":4348:4395  keccak256(bytes(userProducts[_shop][_id].name)) */\n      mload(0x40)\n      tag_240\n      swap2\n      swap1\n      tag_122\n      jump\t// in\n    tag_240:\n      mload(0x40)\n      dup1\n      swap2\n      sub\n      swap1\n      keccak256\n        /* \"contracts/MarketPlace.sol\":4310:4322  userProducts */\n      0x03\n        /* \"contracts/MarketPlace.sol\":4310:4334  userProducts[msg.sender] */\n      0x00\n        /* \"contracts/MarketPlace.sol\":4323:4333  msg.sender */\n      caller\n        /* \"contracts/MarketPlace.sol\":4310:4334  userProducts[msg.sender] */\n      0xffffffffffffffffffffffffffffffffffffffff\n      and\n      0xffffffffffffffffffffffffffffffffffffffff\n      and\n      dup2\n      mstore\n      0x20\n      add\n      swap1\n      dup2\n      mstore\n      0x20\n      add\n      0x00\n      keccak256\n        /* \"contracts/MarketPlace.sol\":4335:4336  i */\n      dup3\n        /* \"contracts/MarketPlace.sol\":4310:4337  userProducts[msg.sender][i] */\n      dup2\n      sload\n      dup2\n      lt\n      tag_241\n      jumpi\n      tag_242\n      tag_107\n      jump\t// in\n    tag_242:\n    tag_241:\n      swap1\n      0x00\n      mstore\n      keccak256(0x00, 0x20)\n      swap1\n      0x04\n      mul\n      add\n        /* \"contracts/MarketPlace.sol\":4310:4342  userProducts[msg.sender][i].name */\n      0x02\n      add\n        /* \"contracts/MarketPlace.sol\":4294:4344  keccak256(bytes(userProducts[msg.sender][i].name)) */\n      mload(0x40)\n      tag_244\n      swap2\n      swap1\n      tag_122\n      jump\t// in\n    tag_244:\n      mload(0x40)\n      dup1\n      swap2\n      sub\n      swap1\n      keccak256\n        /* \"contracts/MarketPlace.sol\":4294:4395  keccak256(bytes(userProducts[msg.sender][i].name)) == keccak256(bytes(userProducts[_shop][_id].name)) */\n      sub\n        /* \"contracts/MarketPlace.sol\":4290:4614  if (keccak256(bytes(userProducts[msg.sender][i].name)) == keccak256(bytes(userProducts[_shop][_id].name))) {... */\n      tag_245\n      jumpi\n        /* \"contracts/MarketPlace.sol\":4454:4461  _amount */\n      dup5\n        /* \"contracts/MarketPlace.sol\":4415:4427  userProducts */\n      0x03\n        /* \"contracts/MarketPlace.sol\":4415:4439  userProducts[msg.sender] */\n      0x00\n        /* \"contracts/MarketPlace.sol\":4428:4438  msg.sender */\n      caller\n        /* \"contracts/MarketPlace.sol\":4415:4439  userProducts[msg.sender] */\n      0xffffffffffffffffffffffffffffffffffffffff\n      and\n      0xffffffffffffffffffffffffffffffffffffffff\n      and\n      dup2\n      mstore\n      0x20\n      add\n      swap1\n      dup2\n      mstore\n      0x20\n      add\n      0x00\n      keccak256\n        /* \"contracts/MarketPlace.sol\":4440:4441  i */\n      dup3\n        /* \"contracts/MarketPlace.sol\":4415:4442  userProducts[msg.sender][i] */\n      dup2\n      sload\n      dup2\n      lt\n      tag_246\n      jumpi\n      tag_247\n      tag_107\n      jump\t// in\n    tag_247:\n    tag_246:\n      swap1\n      0x00\n      mstore\n      keccak256(0x00, 0x20)\n      swap1\n      0x04\n      mul\n      add\n        /* \"contracts/MarketPlace.sol\":4415:4450  userProducts[msg.sender][i].inStock */\n      0x00\n      add\n      0x00\n        /* \"contracts/MarketPlace.sol\":4415:4461  userProducts[msg.sender][i].inStock += _amount */\n      dup3\n      dup3\n      sload\n      tag_249\n      swap2\n      swap1\n      tag_142\n      jump\t// in\n    tag_249:\n      swap3\n      pop\n      pop\n      dup2\n      swap1\n      sstore\n      pop\n        /* \"contracts/MarketPlace.sol\":4495:4499  true */\n      0x01\n        /* \"contracts/MarketPlace.sol\":4479:4499  productExists = true */\n      swap2\n      pop\n        /* \"contracts/MarketPlace.sol\":4517:4522  break */\n      jump(tag_235)\n        /* \"contracts/MarketPlace.sol\":4290:4614  if (keccak256(bytes(userProducts[msg.sender][i].name)) == keccak256(bytes(userProducts[_shop][_id].name))) {... */\n    tag_245:\n        /* \"contracts/MarketPlace.sol\":4271:4274  i++ */\n      dup1\n      dup1\n      tag_250\n      swap1\n      tag_144\n      jump\t// in\n    tag_250:\n      swap2\n      pop\n      pop\n        /* \"contracts/MarketPlace.sol\":4217:4624  for (uint i = 0; i < userProducts[msg.sender].length; i++) {... */\n      jump(tag_234)\n    tag_235:\n      pop\n        /* \"contracts/MarketPlace.sol\":4719:4732  productExists */\n      dup1\n        /* \"contracts/MarketPlace.sol\":4714:4999  if (!productExists) {... */\n      tag_251\n      jumpi\n        /* \"contracts/MarketPlace.sol\":4817:4839  Product memory newItem */\n      0x00\n        /* \"contracts/MarketPlace.sol\":4842:4936  Product(_amount, userProducts[_shop][_id].price, userProducts[_shop][_id].name, randMod(1000)) */\n      mload(0x40)\n      dup1\n      0x80\n      add\n      0x40\n      mstore\n      dup1\n        /* \"contracts/MarketPlace.sol\":4850:4857  _amount */\n      dup7\n        /* \"contracts/MarketPlace.sol\":4842:4936  Product(_amount, userProducts[_shop][_id].price, userProducts[_shop][_id].name, randMod(1000)) */\n      dup2\n      mstore\n      0x20\n      add\n        /* \"contracts/MarketPlace.sol\":4859:4871  userProducts */\n      0x03\n        /* \"contracts/MarketPlace.sol\":4859:4878  userProducts[_shop] */\n      0x00\n        /* \"contracts/MarketPlace.sol\":4872:4877  _shop */\n      dup10\n        /* \"contracts/MarketPlace.sol\":4859:4878  userProducts[_shop] */\n      0xffffffffffffffffffffffffffffffffffffffff\n      and\n      0xffffffffffffffffffffffffffffffffffffffff\n      and\n      dup2\n      mstore\n      0x20\n      add\n      swap1\n      dup2\n      mstore\n      0x20\n      add\n      0x00\n      keccak256\n        /* \"contracts/MarketPlace.sol\":4879:4882  _id */\n      dup7\n        /* \"contracts/MarketPlace.sol\":4859:4883  userProducts[_shop][_id] */\n      dup2\n      sload\n      dup2\n      lt\n      tag_252\n      jumpi\n      tag_253\n      tag_107\n      jump\t// in\n    tag_253:\n    tag_252:\n      swap1\n      0x00\n      mstore\n      keccak256(0x00, 0x20)\n      swap1\n      0x04\n      mul\n      add\n        /* \"contracts/MarketPlace.sol\":4859:4889  userProducts[_shop][_id].price */\n      0x01\n      add\n      sload\n        /* \"contracts/MarketPlace.sol\":4842:4936  Product(_amount, userProducts[_shop][_id].price, userProducts[_shop][_id].name, randMod(1000)) */\n      dup2\n      mstore\n      0x20\n      add\n        /* \"contracts/MarketPlace.sol\":4891:4903  userProducts */\n      0x03\n        /* \"contracts/MarketPlace.sol\":4891:4910  userProducts[_shop] */\n      0x00\n        /* \"contracts/MarketPlace.sol\":4904:4909  _shop */\n      dup10\n        /* \"contracts/MarketPlace.sol\":4891:4910  userProducts[_shop] */\n      0xffffffffffffffffffffffffffffffffffffffff\n      and\n      0xffffffffffffffffffffffffffffffffffffffff\n      and\n      dup2\n      mstore\n      0x20\n      add\n      swap1\n      dup2\n      mstore\n      0x20\n      add\n      0x00\n      keccak256\n        /* \"contracts/MarketPlace.sol\":4911:4914  _id */\n      dup7\n        /* \"contracts/MarketPlace.sol\":4891:4915  userProducts[_shop][_id] */\n      dup2\n      sload\n      dup2\n      lt\n      tag_255\n      jumpi\n      tag_256\n      tag_107\n      jump\t// in\n    tag_256:\n    tag_255:\n      swap1\n      0x00\n      mstore\n      keccak256(0x00, 0x20)\n      swap1\n      0x04\n      mul\n      add\n        /* \"contracts/MarketPlace.sol\":4891:4920  userProducts[_shop][_id].name */\n      0x02\n      add\n        /* \"contracts/MarketPlace.sol\":4842:4936  Product(_amount, userProducts[_shop][_id].price, userProducts[_shop][_id].name, randMod(1000)) */\n      dup1\n      sload\n      tag_258\n      swap1\n      tag_110\n      jump\t// in\n    tag_258:\n      dup1\n      0x1f\n      add\n      0x20\n      dup1\n      swap2\n      div\n      mul\n      0x20\n      add\n      mload(0x40)\n      swap1\n      dup2\n      add\n      0x40\n      mstore\n      dup1\n      swap3\n      swap2\n      swap1\n      dup2\n      dup2\n      mstore\n      0x20\n      add\n      dup3\n      dup1\n      sload\n      tag_259\n      swap1\n      tag_110\n      jump\t// in\n    tag_259:\n      dup1\n      iszero\n      tag_260\n      jumpi\n      dup1\n      0x1f\n      lt\n      tag_261\n      jumpi\n      0x0100\n      dup1\n      dup4\n      sload\n      div\n      mul\n      dup4\n      mstore\n      swap2\n      0x20\n      add\n      swap2\n      jump(tag_260)\n    tag_261:\n      dup3\n      add\n      swap2\n      swap1\n      0x00\n      mstore\n      keccak256(0x00, 0x20)\n      swap1\n    tag_262:\n      dup2\n      sload\n      dup2\n      mstore\n      swap1\n      0x01\n      add\n      swap1\n      0x20\n      add\n      dup1\n      dup4\n      gt\n      tag_262\n      jumpi\n      dup3\n      swap1\n      sub\n      0x1f\n      and\n      dup3\n      add\n      swap2\n    tag_260:\n      pop\n      pop\n      pop\n      pop\n      pop\n      dup2\n      mstore\n      0x20\n      add\n        /* \"contracts/MarketPlace.sol\":4922:4935  randMod(1000) */\n      tag_263\n        /* \"contracts/MarketPlace.sol\":4930:4934  1000 */\n      0x03e8\n        /* \"contracts/MarketPlace.sol\":4922:4929  randMod */\n      tag_52\n        /* \"contracts/MarketPlace.sol\":4922:4935  randMod(1000) */\n      jump\t// in\n    tag_263:\n        /* \"contracts/MarketPlace.sol\":4842:4936  Product(_amount, userProducts[_shop][_id].price, userProducts[_shop][_id].name, randMod(1000)) */\n      dup2\n      mstore\n      pop\n        /* \"contracts/MarketPlace.sol\":4817:4936  Product memory newItem = Product(_amount, userProducts[_shop][_id].price, userProducts[_shop][_id].name, randMod(1000)) */\n      swap1\n      pop\n        /* \"contracts/MarketPlace.sol\":4950:4962  userProducts */\n      0x03\n        /* \"contracts/MarketPlace.sol\":4950:4974  userProducts[msg.sender] */\n      0x00\n        /* \"contracts/MarketPlace.sol\":4963:4973  msg.sender */\n      caller\n        /* \"contracts/MarketPlace.sol\":4950:4974  userProducts[msg.sender] */\n      0xffffffffffffffffffffffffffffffffffffffff\n      and\n      0xffffffffffffffffffffffffffffffffffffffff\n      and\n      dup2\n      mstore\n      0x20\n      add\n      swap1\n      dup2\n      mstore\n      0x20\n      add\n      0x00\n      keccak256\n        /* \"contracts/MarketPlace.sol\":4980:4987  newItem */\n      dup2\n        /* \"contracts/MarketPlace.sol\":4950:4988  userProducts[msg.sender].push(newItem) */\n      swap1\n      dup1\n      0x01\n      dup2\n      sload\n      add\n      dup1\n      dup3\n      sstore\n      dup1\n      swap2\n      pop\n      pop\n      0x01\n      swap1\n      sub\n      swap1\n      0x00\n      mstore\n      keccak256(0x00, 0x20)\n      swap1\n      0x04\n      mul\n      add\n      0x00\n      swap1\n      swap2\n      swap1\n      swap2\n      swap1\n      swap2\n      pop\n      0x00\n      dup3\n      add\n      mload\n      dup2\n      0x00\n      add\n      sstore\n      0x20\n      dup3\n      add\n      mload\n      dup2\n      0x01\n      add\n      sstore\n      0x40\n      dup3\n      add\n      mload\n      dup2\n      0x02\n      add\n      swap1\n      dup2\n      tag_265\n      swap2\n      swap1\n      tag_88\n      jump\t// in\n    tag_265:\n      pop\n      0x60\n      dup3\n      add\n      mload\n      dup2\n      0x03\n      add\n      sstore\n      pop\n      pop\n        /* \"contracts/MarketPlace.sol\":4734:4999  {... */\n      pop\n        /* \"contracts/MarketPlace.sol\":4714:4999  if (!productExists) {... */\n    tag_251:\n        /* \"contracts/MarketPlace.sol\":5045:5052  _amount */\n      dup4\n        /* \"contracts/MarketPlace.sol\":5009:5021  userProducts */\n      0x03\n        /* \"contracts/MarketPlace.sol\":5009:5028  userProducts[_shop] */\n      0x00\n        /* \"contracts/MarketPlace.sol\":5022:5027  _shop */\n      dup8\n        /* \"contracts/MarketPlace.sol\":5009:5028  userProducts[_shop] */\n      0xffffffffffffffffffffffffffffffffffffffff\n      and\n      0xffffffffffffffffffffffffffffffffffffffff\n      and\n      dup2\n      mstore\n      0x20\n      add\n      swap1\n      dup2\n      mstore\n      0x20\n      add\n      0x00\n      keccak256\n        /* \"contracts/MarketPlace.sol\":5029:5032  _id */\n      dup5\n        /* \"contracts/MarketPlace.sol\":5009:5033  userProducts[_shop][_id] */\n      dup2\n      sload\n      dup2\n      lt\n      tag_266\n      jumpi\n      tag_267\n      tag_107\n      jump\t// in\n    tag_267:\n    tag_266:\n      swap1\n      0x00\n      mstore\n      keccak256(0x00, 0x20)\n      swap1\n      0x04\n      mul\n      add\n        /* \"contracts/MarketPlace.sol\":5009:5041  userProducts[_shop][_id].inStock */\n      0x00\n      add\n      0x00\n        /* \"contracts/MarketPlace.sol\":5009:5052  userProducts[_shop][_id].inStock -= _amount */\n      dup3\n      dup3\n      sload\n      tag_269\n      swap2\n      swap1\n      tag_137\n      jump\t// in\n    tag_269:\n      swap3\n      pop\n      pop\n      dup2\n      swap1\n      sstore\n      pop\n        /* \"contracts/MarketPlace.sol\":5079:5089  totalPrice */\n      dup2\n        /* \"contracts/MarketPlace.sol\":5067:5076  msg.value */\n      callvalue\n        /* \"contracts/MarketPlace.sol\":5067:5089  msg.value > totalPrice */\n      gt\n        /* \"contracts/MarketPlace.sol\":5063:5202  if (msg.value > totalPrice) {... */\n      iszero\n      tag_270\n      jumpi\n        /* \"contracts/MarketPlace.sol\":5105:5116  uint change */\n      0x00\n        /* \"contracts/MarketPlace.sol\":5131:5141  totalPrice */\n      dup3\n        /* \"contracts/MarketPlace.sol\":5119:5128  msg.value */\n      callvalue\n        /* \"contracts/MarketPlace.sol\":5119:5141  msg.value - totalPrice */\n      tag_271\n      swap2\n      swap1\n      tag_137\n      jump\t// in\n    tag_271:\n        /* \"contracts/MarketPlace.sol\":5105:5141  uint change = msg.value - totalPrice */\n      swap1\n      pop\n        /* \"contracts/MarketPlace.sol\":5163:5173  msg.sender */\n      caller\n        /* \"contracts/MarketPlace.sol\":5155:5183  payable(msg.sender).transfer */\n      0xffffffffffffffffffffffffffffffffffffffff\n      and\n        /* \"contracts/MarketPlace.sol\":5155:5191  payable(msg.sender).transfer(change) */\n      0x08fc\n        /* \"contracts/MarketPlace.sol\":5184:5190  change */\n      dup3\n        /* \"contracts/MarketPlace.sol\":5155:5191  payable(msg.sender).transfer(change) */\n      swap1\n      dup2\n      iszero\n      mul\n      swap1\n      mload(0x40)\n      0x00\n      mload(0x40)\n      dup1\n      dup4\n      sub\n      dup2\n      dup6\n      dup9\n      dup9\n      call\n      swap4\n      pop\n      pop\n      pop\n      pop\n      iszero\n      dup1\n      iszero\n      tag_273\n      jumpi\n      returndatasize\n      0x00\n      dup1\n      returndatacopy\n      revert(0x00, returndatasize)\n    tag_273:\n      pop\n        /* \"contracts/MarketPlace.sol\":5091:5202  {... */\n      pop\n        /* \"contracts/MarketPlace.sol\":5063:5202  if (msg.value > totalPrice) {... */\n    tag_270:\n        /* \"contracts/MarketPlace.sol\":5234:5244  totalPrice */\n      dup2\n        /* \"contracts/MarketPlace.sol\":5211:5216  users */\n      0x02\n        /* \"contracts/MarketPlace.sol\":5211:5223  users[_shop] */\n      0x00\n        /* \"contracts/MarketPlace.sol\":5217:5222  _shop */\n      dup8\n        /* \"contracts/MarketPlace.sol\":5211:5223  users[_shop] */\n      0xffffffffffffffffffffffffffffffffffffffff\n      and\n      0xffffffffffffffffffffffffffffffffffffffff\n      and\n      dup2\n      mstore\n      0x20\n      add\n      swap1\n      dup2\n      mstore\n      0x20\n      add\n      0x00\n      keccak256\n        /* \"contracts/MarketPlace.sol\":5211:5231  users[_shop].balance */\n      0x01\n      add\n        /* \"contracts/MarketPlace.sol\":5211:5244  users[_shop].balance = totalPrice */\n      dup2\n      swap1\n      sstore\n      pop\n        /* \"contracts/MarketPlace.sol\":3572:5256  {... */\n      pop\n      pop\n        /* \"contracts/MarketPlace.sol\":3500:5256  function purchase(address _shop, uint _amount, uint _id) public payable {... */\n      pop\n      pop\n      pop\n      jump\t// out\n        /* \"contracts/MarketPlace.sol\":573:610  mapping(address => User) public users */\n    tag_66:\n      mstore(0x20, 0x02)\n      dup1\n      0x00\n      mstore\n      keccak256(0x00, 0x40)\n      0x00\n      swap2\n      pop\n      swap1\n      pop\n      dup1\n      0x00\n      add\n      0x00\n      swap1\n      sload\n      swap1\n      0x0100\n      exp\n      swap1\n      div\n      0xff\n      and\n      swap1\n      dup1\n      0x01\n      add\n      sload\n      swap1\n      pop\n      dup3\n      jump\t// out\n        /* \"contracts/MarketPlace.sol\":5262:5399  function withdrawBal(address _shop) public {... */\n    tag_72:\n        /* \"contracts/MarketPlace.sol\":5315:5327  uint balance */\n      0x00\n        /* \"contracts/MarketPlace.sol\":5330:5335  users */\n      0x02\n        /* \"contracts/MarketPlace.sol\":5330:5342  users[_shop] */\n      0x00\n        /* \"contracts/MarketPlace.sol\":5336:5341  _shop */\n      dup4\n        /* \"contracts/MarketPlace.sol\":5330:5342  users[_shop] */\n      0xffffffffffffffffffffffffffffffffffffffff\n      and\n      0xffffffffffffffffffffffffffffffffffffffff\n      and\n      dup2\n      mstore\n      0x20\n      add\n      swap1\n      dup2\n      mstore\n      0x20\n      add\n      0x00\n      keccak256\n        /* \"contracts/MarketPlace.sol\":5330:5350  users[_shop].balance */\n      0x01\n      add\n      sload\n        /* \"contracts/MarketPlace.sol\":5315:5350  uint balance = users[_shop].balance */\n      swap1\n      pop\n        /* \"contracts/MarketPlace.sol\":5368:5373  _shop */\n      dup2\n        /* \"contracts/MarketPlace.sol\":5360:5383  payable(_shop).transfer */\n      0xffffffffffffffffffffffffffffffffffffffff\n      and\n        /* \"contracts/MarketPlace.sol\":5360:5392  payable(_shop).transfer(balance) */\n      0x08fc\n        /* \"contracts/MarketPlace.sol\":5384:5391  balance */\n      dup3\n        /* \"contracts/MarketPlace.sol\":5360:5392  payable(_shop).transfer(balance) */\n      swap1\n      dup2\n      iszero\n      mul\n      swap1\n      mload(0x40)\n      0x00\n      mload(0x40)\n      dup1\n      dup4\n      sub\n      dup2\n      dup6\n      dup9\n      dup9\n      call\n      swap4\n      pop\n      pop\n      pop\n      pop\n      iszero\n      dup1\n      iszero\n      tag_276\n      jumpi\n      returndatasize\n      0x00\n      dup1\n      returndatacopy\n      revert(0x00, returndatasize)\n    tag_276:\n      pop\n        /* \"contracts/MarketPlace.sol\":5305:5399  {... */\n      pop\n        /* \"contracts/MarketPlace.sol\":5262:5399  function withdrawBal(address _shop) public {... */\n      pop\n      jump\t// out\n    tag_192:\n      pop\n      dup1\n      sload\n      tag_277\n      swap1\n      tag_110\n      jump\t// in\n    tag_277:\n      0x00\n      dup3\n      sstore\n      dup1\n      0x1f\n      lt\n      tag_279\n      jumpi\n      pop\n      jump(tag_278)\n    tag_279:\n      0x1f\n      add\n      0x20\n      swap1\n      div\n      swap1\n      0x00\n      mstore\n      keccak256(0x00, 0x20)\n      swap1\n      dup2\n      add\n      swap1\n      tag_280\n      swap2\n      swap1\n      tag_281\n      jump\t// in\n    tag_280:\n    tag_278:\n      pop\n      jump\t// out\n    tag_281:\n    tag_282:\n      dup1\n      dup3\n      gt\n      iszero\n      tag_283\n      jumpi\n      0x00\n      dup2\n      0x00\n      swap1\n      sstore\n      pop\n      0x01\n      add\n      jump(tag_282)\n    tag_283:\n      pop\n      swap1\n      jump\t// out\n        /* \"#utility.yul\":88:205   */\n    tag_285:\n        /* \"#utility.yul\":197:198   */\n      0x00\n        /* \"#utility.yul\":194:195   */\n      dup1\n        /* \"#utility.yul\":187:199   */\n      revert\n        /* \"#utility.yul\":211:328   */\n    tag_286:\n        /* \"#utility.yul\":320:321   */\n      0x00\n        /* \"#utility.yul\":317:318   */\n      dup1\n        /* \"#utility.yul\":310:322   */\n      revert\n        /* \"#utility.yul\":334:460   */\n    tag_287:\n        /* \"#utility.yul\":371:378   */\n      0x00\n        /* \"#utility.yul\":411:453   */\n      0xffffffffffffffffffffffffffffffffffffffff\n        /* \"#utility.yul\":404:409   */\n      dup3\n        /* \"#utility.yul\":400:454   */\n      and\n        /* \"#utility.yul\":389:454   */\n      swap1\n      pop\n        /* \"#utility.yul\":334:460   */\n      swap2\n      swap1\n      pop\n      jump\t// out\n        /* \"#utility.yul\":466:562   */\n    tag_288:\n        /* \"#utility.yul\":503:510   */\n      0x00\n        /* \"#utility.yul\":532:556   */\n      tag_355\n        /* \"#utility.yul\":550:555   */\n      dup3\n        /* \"#utility.yul\":532:556   */\n      tag_287\n      jump\t// in\n    tag_355:\n        /* \"#utility.yul\":521:556   */\n      swap1\n      pop\n        /* \"#utility.yul\":466:562   */\n      swap2\n      swap1\n      pop\n      jump\t// out\n        /* \"#utility.yul\":568:690   */\n    tag_289:\n        /* \"#utility.yul\":641:665   */\n      tag_357\n        /* \"#utility.yul\":659:664   */\n      dup2\n        /* \"#utility.yul\":641:665   */\n      tag_288\n      jump\t// in\n    tag_357:\n        /* \"#utility.yul\":634:639   */\n      dup2\n        /* \"#utility.yul\":631:666   */\n      eq\n        /* \"#utility.yul\":621:684   */\n      tag_358\n      jumpi\n        /* \"#utility.yul\":680:681   */\n      0x00\n        /* \"#utility.yul\":677:678   */\n      dup1\n        /* \"#utility.yul\":670:682   */\n      revert\n        /* \"#utility.yul\":621:684   */\n    tag_358:\n        /* \"#utility.yul\":568:690   */\n      pop\n      jump\t// out\n        /* \"#utility.yul\":696:835   */\n    tag_290:\n        /* \"#utility.yul\":742:747   */\n      0x00\n        /* \"#utility.yul\":780:786   */\n      dup2\n        /* \"#utility.yul\":767:787   */\n      calldataload\n        /* \"#utility.yul\":758:787   */\n      swap1\n      pop\n        /* \"#utility.yul\":796:829   */\n      tag_360\n        /* \"#utility.yul\":823:828   */\n      dup2\n        /* \"#utility.yul\":796:829   */\n      tag_289\n      jump\t// in\n    tag_360:\n        /* \"#utility.yul\":696:835   */\n      swap3\n      swap2\n      pop\n      pop\n      jump\t// out\n        /* \"#utility.yul\":841:918   */\n    tag_291:\n        /* \"#utility.yul\":878:885   */\n      0x00\n        /* \"#utility.yul\":907:912   */\n      dup2\n        /* \"#utility.yul\":896:912   */\n      swap1\n      pop\n        /* \"#utility.yul\":841:918   */\n      swap2\n      swap1\n      pop\n      jump\t// out\n        /* \"#utility.yul\":924:1046   */\n    tag_292:\n        /* \"#utility.yul\":997:1021   */\n      tag_363\n        /* \"#utility.yul\":1015:1020   */\n      dup2\n        /* \"#utility.yul\":997:1021   */\n      tag_291\n      jump\t// in\n    tag_363:\n        /* \"#utility.yul\":990:995   */\n      dup2\n        /* \"#utility.yul\":987:1022   */\n      eq\n        /* \"#utility.yul\":977:1040   */\n      tag_364\n      jumpi\n        /* \"#utility.yul\":1036:1037   */\n      0x00\n        /* \"#utility.yul\":1033:1034   */\n      dup1\n        /* \"#utility.yul\":1026:1038   */\n      revert\n        /* \"#utility.yul\":977:1040   */\n    tag_364:\n        /* \"#utility.yul\":924:1046   */\n      pop\n      jump\t// out\n        /* \"#utility.yul\":1052:1191   */\n    tag_293:\n        /* \"#utility.yul\":1098:1103   */\n      0x00\n        /* \"#utility.yul\":1136:1142   */\n      dup2\n        /* \"#utility.yul\":1123:1143   */\n      calldataload\n        /* \"#utility.yul\":1114:1143   */\n      swap1\n      pop\n        /* \"#utility.yul\":1152:1185   */\n      tag_366\n        /* \"#utility.yul\":1179:1184   */\n      dup2\n        /* \"#utility.yul\":1152:1185   */\n      tag_292\n      jump\t// in\n    tag_366:\n        /* \"#utility.yul\":1052:1191   */\n      swap3\n      swap2\n      pop\n      pop\n      jump\t// out\n        /* \"#utility.yul\":1197:1314   */\n    tag_294:\n        /* \"#utility.yul\":1306:1307   */\n      0x00\n        /* \"#utility.yul\":1303:1304   */\n      dup1\n        /* \"#utility.yul\":1296:1308   */\n      revert\n        /* \"#utility.yul\":1320:1437   */\n    tag_295:\n        /* \"#utility.yul\":1429:1430   */\n      0x00\n        /* \"#utility.yul\":1426:1427   */\n      dup1\n        /* \"#utility.yul\":1419:1431   */\n      revert\n        /* \"#utility.yul\":1443:1560   */\n    tag_296:\n        /* \"#utility.yul\":1552:1553   */\n      0x00\n        /* \"#utility.yul\":1549:1550   */\n      dup1\n        /* \"#utility.yul\":1542:1554   */\n      revert\n        /* \"#utility.yul\":1580:2133   */\n    tag_297:\n        /* \"#utility.yul\":1638:1646   */\n      0x00\n        /* \"#utility.yul\":1648:1654   */\n      dup1\n        /* \"#utility.yul\":1698:1701   */\n      dup4\n        /* \"#utility.yul\":1691:1695   */\n      0x1f\n        /* \"#utility.yul\":1683:1689   */\n      dup5\n        /* \"#utility.yul\":1679:1696   */\n      add\n        /* \"#utility.yul\":1675:1702   */\n      slt\n        /* \"#utility.yul\":1665:1787   */\n      tag_371\n      jumpi\n        /* \"#utility.yul\":1706:1785   */\n      tag_372\n      tag_294\n      jump\t// in\n    tag_372:\n        /* \"#utility.yul\":1665:1787   */\n    tag_371:\n        /* \"#utility.yul\":1819:1825   */\n      dup3\n        /* \"#utility.yul\":1806:1826   */\n      calldataload\n        /* \"#utility.yul\":1796:1826   */\n      swap1\n      pop\n        /* \"#utility.yul\":1849:1867   */\n      0xffffffffffffffff\n        /* \"#utility.yul\":1841:1847   */\n      dup2\n        /* \"#utility.yul\":1838:1868   */\n      gt\n        /* \"#utility.yul\":1835:1952   */\n      iszero\n      tag_373\n      jumpi\n        /* \"#utility.yul\":1871:1950   */\n      tag_374\n      tag_295\n      jump\t// in\n    tag_374:\n        /* \"#utility.yul\":1835:1952   */\n    tag_373:\n        /* \"#utility.yul\":1985:1989   */\n      0x20\n        /* \"#utility.yul\":1977:1983   */\n      dup4\n        /* \"#utility.yul\":1973:1990   */\n      add\n        /* \"#utility.yul\":1961:1990   */\n      swap2\n      pop\n        /* \"#utility.yul\":2039:2042   */\n      dup4\n        /* \"#utility.yul\":2031:2035   */\n      0x01\n        /* \"#utility.yul\":2023:2029   */\n      dup3\n        /* \"#utility.yul\":2019:2036   */\n      mul\n        /* \"#utility.yul\":2009:2017   */\n      dup4\n        /* \"#utility.yul\":2005:2037   */\n      add\n        /* \"#utility.yul\":2002:2043   */\n      gt\n        /* \"#utility.yul\":1999:2127   */\n      iszero\n      tag_375\n      jumpi\n        /* \"#utility.yul\":2046:2125   */\n      tag_376\n      tag_296\n      jump\t// in\n    tag_376:\n        /* \"#utility.yul\":1999:2127   */\n    tag_375:\n        /* \"#utility.yul\":1580:2133   */\n      swap3\n      pop\n      swap3\n      swap1\n      pop\n      jump\t// out\n        /* \"#utility.yul\":2139:3250   */\n    tag_18:\n        /* \"#utility.yul\":2246:2252   */\n      0x00\n        /* \"#utility.yul\":2254:2260   */\n      dup1\n        /* \"#utility.yul\":2262:2268   */\n      0x00\n        /* \"#utility.yul\":2270:2276   */\n      dup1\n        /* \"#utility.yul\":2278:2284   */\n      0x00\n        /* \"#utility.yul\":2286:2292   */\n      dup1\n        /* \"#utility.yul\":2335:2338   */\n      0xa0\n        /* \"#utility.yul\":2323:2332   */\n      dup8\n        /* \"#utility.yul\":2314:2321   */\n      dup10\n        /* \"#utility.yul\":2310:2333   */\n      sub\n        /* \"#utility.yul\":2306:2339   */\n      slt\n        /* \"#utility.yul\":2303:2423   */\n      iszero\n      tag_378\n      jumpi\n        /* \"#utility.yul\":2342:2421   */\n      tag_379\n      tag_285\n      jump\t// in\n    tag_379:\n        /* \"#utility.yul\":2303:2423   */\n    tag_378:\n        /* \"#utility.yul\":2462:2463   */\n      0x00\n        /* \"#utility.yul\":2487:2540   */\n      tag_380\n        /* \"#utility.yul\":2532:2539   */\n      dup10\n        /* \"#utility.yul\":2523:2529   */\n      dup3\n        /* \"#utility.yul\":2512:2521   */\n      dup11\n        /* \"#utility.yul\":2508:2530   */\n      add\n        /* \"#utility.yul\":2487:2540   */\n      tag_290\n      jump\t// in\n    tag_380:\n        /* \"#utility.yul\":2477:2540   */\n      swap7\n      pop\n        /* \"#utility.yul\":2433:2550   */\n      pop\n        /* \"#utility.yul\":2589:2591   */\n      0x20\n        /* \"#utility.yul\":2615:2668   */\n      tag_381\n        /* \"#utility.yul\":2660:2667   */\n      dup10\n        /* \"#utility.yul\":2651:2657   */\n      dup3\n        /* \"#utility.yul\":2640:2649   */\n      dup11\n        /* \"#utility.yul\":2636:2658   */\n      add\n        /* \"#utility.yul\":2615:2668   */\n      tag_293\n      jump\t// in\n    tag_381:\n        /* \"#utility.yul\":2605:2668   */\n      swap6\n      pop\n        /* \"#utility.yul\":2560:2678   */\n      pop\n        /* \"#utility.yul\":2717:2719   */\n      0x40\n        /* \"#utility.yul\":2743:2796   */\n      tag_382\n        /* \"#utility.yul\":2788:2795   */\n      dup10\n        /* \"#utility.yul\":2779:2785   */\n      dup3\n        /* \"#utility.yul\":2768:2777   */\n      dup11\n        /* \"#utility.yul\":2764:2786   */\n      add\n        /* \"#utility.yul\":2743:2796   */\n      tag_293\n      jump\t// in\n    tag_382:\n        /* \"#utility.yul\":2733:2796   */\n      swap5\n      pop\n        /* \"#utility.yul\":2688:2806   */\n      pop\n        /* \"#utility.yul\":2873:2875   */\n      0x60\n        /* \"#utility.yul\":2862:2871   */\n      dup8\n        /* \"#utility.yul\":2858:2876   */\n      add\n        /* \"#utility.yul\":2845:2877   */\n      calldataload\n        /* \"#utility.yul\":2904:2922   */\n      0xffffffffffffffff\n        /* \"#utility.yul\":2896:2902   */\n      dup2\n        /* \"#utility.yul\":2893:2923   */\n      gt\n        /* \"#utility.yul\":2890:3007   */\n      iszero\n      tag_383\n      jumpi\n        /* \"#utility.yul\":2926:3005   */\n      tag_384\n      tag_286\n      jump\t// in\n    tag_384:\n        /* \"#utility.yul\":2890:3007   */\n    tag_383:\n        /* \"#utility.yul\":3039:3104   */\n      tag_385\n        /* \"#utility.yul\":3096:3103   */\n      dup10\n        /* \"#utility.yul\":3087:3093   */\n      dup3\n        /* \"#utility.yul\":3076:3085   */\n      dup11\n        /* \"#utility.yul\":3072:3094   */\n      add\n        /* \"#utility.yul\":3039:3104   */\n      tag_297\n      jump\t// in\n    tag_385:\n        /* \"#utility.yul\":3021:3104   */\n      swap4\n      pop\n      swap4\n      pop\n        /* \"#utility.yul\":2816:3114   */\n      pop\n        /* \"#utility.yul\":3153:3156   */\n      0x80\n        /* \"#utility.yul\":3180:3233   */\n      tag_386\n        /* \"#utility.yul\":3225:3232   */\n      dup10\n        /* \"#utility.yul\":3216:3222   */\n      dup3\n        /* \"#utility.yul\":3205:3214   */\n      dup11\n        /* \"#utility.yul\":3201:3223   */\n      add\n        /* \"#utility.yul\":3180:3233   */\n      tag_293\n      jump\t// in\n    tag_386:\n        /* \"#utility.yul\":3170:3233   */\n      swap2\n      pop\n        /* \"#utility.yul\":3124:3243   */\n      pop\n        /* \"#utility.yul\":2139:3250   */\n      swap3\n      swap6\n      pop\n      swap3\n      swap6\n      pop\n      swap3\n      swap6\n      jump\t// out\n        /* \"#utility.yul\":3256:3875   */\n    tag_22:\n        /* \"#utility.yul\":3333:3339   */\n      0x00\n        /* \"#utility.yul\":3341:3347   */\n      dup1\n        /* \"#utility.yul\":3349:3355   */\n      0x00\n        /* \"#utility.yul\":3398:3400   */\n      0x60\n        /* \"#utility.yul\":3386:3395   */\n      dup5\n        /* \"#utility.yul\":3377:3384   */\n      dup7\n        /* \"#utility.yul\":3373:3396   */\n      sub\n        /* \"#utility.yul\":3369:3401   */\n      slt\n        /* \"#utility.yul\":3366:3485   */\n      iszero\n      tag_388\n      jumpi\n        /* \"#utility.yul\":3404:3483   */\n      tag_389\n      tag_285\n      jump\t// in\n    tag_389:\n        /* \"#utility.yul\":3366:3485   */\n    tag_388:\n        /* \"#utility.yul\":3524:3525   */\n      0x00\n        /* \"#utility.yul\":3549:3602   */\n      tag_390\n        /* \"#utility.yul\":3594:3601   */\n      dup7\n        /* \"#utility.yul\":3585:3591   */\n      dup3\n        /* \"#utility.yul\":3574:3583   */\n      dup8\n        /* \"#utility.yul\":3570:3592   */\n      add\n        /* \"#utility.yul\":3549:3602   */\n      tag_290\n      jump\t// in\n    tag_390:\n        /* \"#utility.yul\":3539:3602   */\n      swap4\n      pop\n        /* \"#utility.yul\":3495:3612   */\n      pop\n        /* \"#utility.yul\":3651:3653   */\n      0x20\n        /* \"#utility.yul\":3677:3730   */\n      tag_391\n        /* \"#utility.yul\":3722:3729   */\n      dup7\n        /* \"#utility.yul\":3713:3719   */\n      dup3\n        /* \"#utility.yul\":3702:3711   */\n      dup8\n        /* \"#utility.yul\":3698:3720   */\n      add\n        /* \"#utility.yul\":3677:3730   */\n      tag_293\n      jump\t// in\n    tag_391:\n        /* \"#utility.yul\":3667:3730   */\n      swap3\n      pop\n        /* \"#utility.yul\":3622:3740   */\n      pop\n        /* \"#utility.yul\":3779:3781   */\n      0x40\n        /* \"#utility.yul\":3805:3858   */\n      tag_392\n        /* \"#utility.yul\":3850:3857   */\n      dup7\n        /* \"#utility.yul\":3841:3847   */\n      dup3\n        /* \"#utility.yul\":3830:3839   */\n      dup8\n        /* \"#utility.yul\":3826:3848   */\n      add\n        /* \"#utility.yul\":3805:3858   */\n      tag_293\n      jump\t// in\n    tag_392:\n        /* \"#utility.yul\":3795:3858   */\n      swap2\n      pop\n        /* \"#utility.yul\":3750:3868   */\n      pop\n        /* \"#utility.yul\":3256:3875   */\n      swap3\n      pop\n      swap3\n      pop\n      swap3\n      jump\t// out\n        /* \"#utility.yul\":3881:4846   */\n    tag_27:\n        /* \"#utility.yul\":3979:3985   */\n      0x00\n        /* \"#utility.yul\":3987:3993   */\n      dup1\n        /* \"#utility.yul\":3995:4001   */\n      0x00\n        /* \"#utility.yul\":4003:4009   */\n      dup1\n        /* \"#utility.yul\":4011:4017   */\n      0x00\n        /* \"#utility.yul\":4060:4063   */\n      0x80\n        /* \"#utility.yul\":4048:4057   */\n      dup7\n        /* \"#utility.yul\":4039:4046   */\n      dup9\n        /* \"#utility.yul\":4035:4058   */\n      sub\n        /* \"#utility.yul\":4031:4064   */\n      slt\n        /* \"#utility.yul\":4028:4148   */\n      iszero\n      tag_394\n      jumpi\n        /* \"#utility.yul\":4067:4146   */\n      tag_395\n      tag_285\n      jump\t// in\n    tag_395:\n        /* \"#utility.yul\":4028:4148   */\n    tag_394:\n        /* \"#utility.yul\":4187:4188   */\n      0x00\n        /* \"#utility.yul\":4212:4265   */\n      tag_396\n        /* \"#utility.yul\":4257:4264   */\n      dup9\n        /* \"#utility.yul\":4248:4254   */\n      dup3\n        /* \"#utility.yul\":4237:4246   */\n      dup10\n        /* \"#utility.yul\":4233:4255   */\n      add\n        /* \"#utility.yul\":4212:4265   */\n      tag_293\n      jump\t// in\n    tag_396:\n        /* \"#utility.yul\":4202:4265   */\n      swap6\n      pop\n        /* \"#utility.yul\":4158:4275   */\n      pop\n        /* \"#utility.yul\":4314:4316   */\n      0x20\n        /* \"#utility.yul\":4340:4393   */\n      tag_397\n        /* \"#utility.yul\":4385:4392   */\n      dup9\n        /* \"#utility.yul\":4376:4382   */\n      dup3\n        /* \"#utility.yul\":4365:4374   */\n      dup10\n        /* \"#utility.yul\":4361:4383   */\n      add\n        /* \"#utility.yul\":4340:4393   */\n      tag_293\n      jump\t// in\n    tag_397:\n        /* \"#utility.yul\":4330:4393   */\n      swap5\n      pop\n        /* \"#utility.yul\":4285:4403   */\n      pop\n        /* \"#utility.yul\":4470:4472   */\n      0x40\n        /* \"#utility.yul\":4459:4468   */\n      dup7\n        /* \"#utility.yul\":4455:4473   */\n      add\n        /* \"#utility.yul\":4442:4474   */\n      calldataload\n        /* \"#utility.yul\":4501:4519   */\n      0xffffffffffffffff\n        /* \"#utility.yul\":4493:4499   */\n      dup2\n        /* \"#utility.yul\":4490:4520   */\n      gt\n        /* \"#utility.yul\":4487:4604   */\n      iszero\n      tag_398\n      jumpi\n        /* \"#utility.yul\":4523:4602   */\n      tag_399\n      tag_286\n      jump\t// in\n    tag_399:\n        /* \"#utility.yul\":4487:4604   */\n    tag_398:\n        /* \"#utility.yul\":4636:4701   */\n      tag_400\n        /* \"#utility.yul\":4693:4700   */\n      dup9\n        /* \"#utility.yul\":4684:4690   */\n      dup3\n        /* \"#utility.yul\":4673:4682   */\n      dup10\n        /* \"#utility.yul\":4669:4691   */\n      add\n        /* \"#utility.yul\":4636:4701   */\n      tag_297\n      jump\t// in\n    tag_400:\n        /* \"#utility.yul\":4618:4701   */\n      swap4\n      pop\n      swap4\n      pop\n        /* \"#utility.yul\":4413:4711   */\n      pop\n        /* \"#utility.yul\":4750:4752   */\n      0x60\n        /* \"#utility.yul\":4776:4829   */\n      tag_401\n        /* \"#utility.yul\":4821:4828   */\n      dup9\n        /* \"#utility.yul\":4812:4818   */\n      dup3\n        /* \"#utility.yul\":4801:4810   */\n      dup10\n        /* \"#utility.yul\":4797:4819   */\n      add\n        /* \"#utility.yul\":4776:4829   */\n      tag_293\n      jump\t// in\n    tag_401:\n        /* \"#utility.yul\":4766:4829   */\n      swap2\n      pop\n        /* \"#utility.yul\":4721:4839   */\n      pop\n        /* \"#utility.yul\":3881:4846   */\n      swap3\n      swap6\n      pop\n      swap3\n      swap6\n      swap1\n      swap4\n      pop\n      jump\t// out\n        /* \"#utility.yul\":4852:4970   */\n    tag_298:\n        /* \"#utility.yul\":4939:4963   */\n      tag_403\n        /* \"#utility.yul\":4957:4962   */\n      dup2\n        /* \"#utility.yul\":4939:4963   */\n      tag_288\n      jump\t// in\n    tag_403:\n        /* \"#utility.yul\":4934:4937   */\n      dup3\n        /* \"#utility.yul\":4927:4964   */\n      mstore\n        /* \"#utility.yul\":4852:4970   */\n      pop\n      pop\n      jump\t// out\n        /* \"#utility.yul\":4976:5198   */\n    tag_33:\n        /* \"#utility.yul\":5069:5073   */\n      0x00\n        /* \"#utility.yul\":5107:5109   */\n      0x20\n        /* \"#utility.yul\":5096:5105   */\n      dup3\n        /* \"#utility.yul\":5092:5110   */\n      add\n        /* \"#utility.yul\":5084:5110   */\n      swap1\n      pop\n        /* \"#utility.yul\":5120:5191   */\n      tag_405\n        /* \"#utility.yul\":5188:5189   */\n      0x00\n        /* \"#utility.yul\":5177:5186   */\n      dup4\n        /* \"#utility.yul\":5173:5190   */\n      add\n        /* \"#utility.yul\":5164:5170   */\n      dup5\n        /* \"#utility.yul\":5120:5191   */\n      tag_298\n      jump\t// in\n    tag_405:\n        /* \"#utility.yul\":4976:5198   */\n      swap3\n      swap2\n      pop\n      pop\n      jump\t// out\n        /* \"#utility.yul\":5204:5678   */\n    tag_37:\n        /* \"#utility.yul\":5272:5278   */\n      0x00\n        /* \"#utility.yul\":5280:5286   */\n      dup1\n        /* \"#utility.yul\":5329:5331   */\n      0x40\n        /* \"#utility.yul\":5317:5326   */\n      dup4\n        /* \"#utility.yul\":5308:5315   */\n      dup6\n        /* \"#utility.yul\":5304:5327   */\n      sub\n        /* \"#utility.yul\":5300:5332   */\n      slt\n        /* \"#utility.yul\":5297:5416   */\n      iszero\n      tag_407\n      jumpi\n        /* \"#utility.yul\":5335:5414   */\n      tag_408\n      tag_285\n      jump\t// in\n    tag_408:\n        /* \"#utility.yul\":5297:5416   */\n    tag_407:\n        /* \"#utility.yul\":5455:5456   */\n      0x00\n        /* \"#utility.yul\":5480:5533   */\n      tag_409\n        /* \"#utility.yul\":5525:5532   */\n      dup6\n        /* \"#utility.yul\":5516:5522   */\n      dup3\n        /* \"#utility.yul\":5505:5514   */\n      dup7\n        /* \"#utility.yul\":5501:5523   */\n      add\n        /* \"#utility.yul\":5480:5533   */\n      tag_290\n      jump\t// in\n    tag_409:\n        /* \"#utility.yul\":5470:5533   */\n      swap3\n      pop\n        /* \"#utility.yul\":5426:5543   */\n      pop\n        /* \"#utility.yul\":5582:5584   */\n      0x20\n        /* \"#utility.yul\":5608:5661   */\n      tag_410\n        /* \"#utility.yul\":5653:5660   */\n      dup6\n        /* \"#utility.yul\":5644:5650   */\n      dup3\n        /* \"#utility.yul\":5633:5642   */\n      dup7\n        /* \"#utility.yul\":5629:5651   */\n      add\n        /* \"#utility.yul\":5608:5661   */\n      tag_293\n      jump\t// in\n    tag_410:\n        /* \"#utility.yul\":5598:5661   */\n      swap2\n      pop\n        /* \"#utility.yul\":5553:5671   */\n      pop\n        /* \"#utility.yul\":5204:5678   */\n      swap3\n      pop\n      swap3\n      swap1\n      pop\n      jump\t// out\n        /* \"#utility.yul\":5684:5802   */\n    tag_299:\n        /* \"#utility.yul\":5771:5795   */\n      tag_412\n        /* \"#utility.yul\":5789:5794   */\n      dup2\n        /* \"#utility.yul\":5771:5795   */\n      tag_291\n      jump\t// in\n    tag_412:\n        /* \"#utility.yul\":5766:5769   */\n      dup3\n        /* \"#utility.yul\":5759:5796   */\n      mstore\n        /* \"#utility.yul\":5684:5802   */\n      pop\n      pop\n      jump\t// out\n        /* \"#utility.yul\":5808:5907   */\n    tag_300:\n        /* \"#utility.yul\":5860:5866   */\n      0x00\n        /* \"#utility.yul\":5894:5899   */\n      dup2\n        /* \"#utility.yul\":5888:5900   */\n      mload\n        /* \"#utility.yul\":5878:5900   */\n      swap1\n      pop\n        /* \"#utility.yul\":5808:5907   */\n      swap2\n      swap1\n      pop\n      jump\t// out\n        /* \"#utility.yul\":5913:6082   */\n    tag_301:\n        /* \"#utility.yul\":5997:6008   */\n      0x00\n        /* \"#utility.yul\":6031:6037   */\n      dup3\n        /* \"#utility.yul\":6026:6029   */\n      dup3\n        /* \"#utility.yul\":6019:6038   */\n      mstore\n        /* \"#utility.yul\":6071:6075   */\n      0x20\n        /* \"#utility.yul\":6066:6069   */\n      dup3\n        /* \"#utility.yul\":6062:6076   */\n      add\n        /* \"#utility.yul\":6047:6076   */\n      swap1\n      pop\n        /* \"#utility.yul\":5913:6082   */\n      swap3\n      swap2\n      pop\n      pop\n      jump\t// out\n        /* \"#utility.yul\":6088:6334   */\n    tag_302:\n        /* \"#utility.yul\":6169:6170   */\n      0x00\n        /* \"#utility.yul\":6179:6292   */\n    tag_416:\n        /* \"#utility.yul\":6193:6199   */\n      dup4\n        /* \"#utility.yul\":6190:6191   */\n      dup2\n        /* \"#utility.yul\":6187:6200   */\n      lt\n        /* \"#utility.yul\":6179:6292   */\n      iszero\n      tag_418\n      jumpi\n        /* \"#utility.yul\":6278:6279   */\n      dup1\n        /* \"#utility.yul\":6273:6276   */\n      dup3\n        /* \"#utility.yul\":6269:6280   */\n      add\n        /* \"#utility.yul\":6263:6281   */\n      mload\n        /* \"#utility.yul\":6259:6260   */\n      dup2\n        /* \"#utility.yul\":6254:6257   */\n      dup5\n        /* \"#utility.yul\":6250:6261   */\n      add\n        /* \"#utility.yul\":6243:6282   */\n      mstore\n        /* \"#utility.yul\":6215:6217   */\n      0x20\n        /* \"#utility.yul\":6212:6213   */\n      dup2\n        /* \"#utility.yul\":6208:6218   */\n      add\n        /* \"#utility.yul\":6203:6218   */\n      swap1\n      pop\n        /* \"#utility.yul\":6179:6292   */\n      jump(tag_416)\n    tag_418:\n        /* \"#utility.yul\":6326:6327   */\n      0x00\n        /* \"#utility.yul\":6317:6323   */\n      dup5\n        /* \"#utility.yul\":6312:6315   */\n      dup5\n        /* \"#utility.yul\":6308:6324   */\n      add\n        /* \"#utility.yul\":6301:6328   */\n      mstore\n        /* \"#utility.yul\":6150:6334   */\n      pop\n        /* \"#utility.yul\":6088:6334   */\n      pop\n      pop\n      pop\n      jump\t// out\n        /* \"#utility.yul\":6340:6442   */\n    tag_303:\n        /* \"#utility.yul\":6381:6387   */\n      0x00\n        /* \"#utility.yul\":6432:6434   */\n      0x1f\n        /* \"#utility.yul\":6428:6435   */\n      not\n        /* \"#utility.yul\":6423:6425   */\n      0x1f\n        /* \"#utility.yul\":6416:6421   */\n      dup4\n        /* \"#utility.yul\":6412:6426   */\n      add\n        /* \"#utility.yul\":6408:6436   */\n      and\n        /* \"#utility.yul\":6398:6436   */\n      swap1\n      pop\n        /* \"#utility.yul\":6340:6442   */\n      swap2\n      swap1\n      pop\n      jump\t// out\n        /* \"#utility.yul\":6448:6825   */\n    tag_304:\n        /* \"#utility.yul\":6536:6539   */\n      0x00\n        /* \"#utility.yul\":6564:6603   */\n      tag_421\n        /* \"#utility.yul\":6597:6602   */\n      dup3\n        /* \"#utility.yul\":6564:6603   */\n      tag_300\n      jump\t// in\n    tag_421:\n        /* \"#utility.yul\":6619:6690   */\n      tag_422\n        /* \"#utility.yul\":6683:6689   */\n      dup2\n        /* \"#utility.yul\":6678:6681   */\n      dup6\n        /* \"#utility.yul\":6619:6690   */\n      tag_301\n      jump\t// in\n    tag_422:\n        /* \"#utility.yul\":6612:6690   */\n      swap4\n      pop\n        /* \"#utility.yul\":6699:6764   */\n      tag_423\n        /* \"#utility.yul\":6757:6763   */\n      dup2\n        /* \"#utility.yul\":6752:6755   */\n      dup6\n        /* \"#utility.yul\":6745:6749   */\n      0x20\n        /* \"#utility.yul\":6738:6743   */\n      dup7\n        /* \"#utility.yul\":6734:6750   */\n      add\n        /* \"#utility.yul\":6699:6764   */\n      tag_302\n      jump\t// in\n    tag_423:\n        /* \"#utility.yul\":6789:6818   */\n      tag_424\n        /* \"#utility.yul\":6811:6817   */\n      dup2\n        /* \"#utility.yul\":6789:6818   */\n      tag_303\n      jump\t// in\n    tag_424:\n        /* \"#utility.yul\":6784:6787   */\n      dup5\n        /* \"#utility.yul\":6780:6819   */\n      add\n        /* \"#utility.yul\":6773:6819   */\n      swap2\n      pop\n        /* \"#utility.yul\":6540:6825   */\n      pop\n        /* \"#utility.yul\":6448:6825   */\n      swap3\n      swap2\n      pop\n      pop\n      jump\t// out\n        /* \"#utility.yul\":6831:7475   */\n    tag_40:\n        /* \"#utility.yul\":7028:7032   */\n      0x00\n        /* \"#utility.yul\":7066:7069   */\n      0x80\n        /* \"#utility.yul\":7055:7064   */\n      dup3\n        /* \"#utility.yul\":7051:7070   */\n      add\n        /* \"#utility.yul\":7043:7070   */\n      swap1\n      pop\n        /* \"#utility.yul\":7080:7151   */\n      tag_426\n        /* \"#utility.yul\":7148:7149   */\n      0x00\n        /* \"#utility.yul\":7137:7146   */\n      dup4\n        /* \"#utility.yul\":7133:7150   */\n      add\n        /* \"#utility.yul\":7124:7130   */\n      dup8\n        /* \"#utility.yul\":7080:7151   */\n      tag_299\n      jump\t// in\n    tag_426:\n        /* \"#utility.yul\":7161:7233   */\n      tag_427\n        /* \"#utility.yul\":7229:7231   */\n      0x20\n        /* \"#utility.yul\":7218:7227   */\n      dup4\n        /* \"#utility.yul\":7214:7232   */\n      add\n        /* \"#utility.yul\":7205:7211   */\n      dup7\n        /* \"#utility.yul\":7161:7233   */\n      tag_299\n      jump\t// in\n    tag_427:\n        /* \"#utility.yul\":7280:7289   */\n      dup2\n        /* \"#utility.yul\":7274:7278   */\n      dup2\n        /* \"#utility.yul\":7270:7290   */\n      sub\n        /* \"#utility.yul\":7265:7267   */\n      0x40\n        /* \"#utility.yul\":7254:7263   */\n      dup4\n        /* \"#utility.yul\":7250:7268   */\n      add\n        /* \"#utility.yul\":7243:7291   */\n      mstore\n        /* \"#utility.yul\":7308:7386   */\n      tag_428\n        /* \"#utility.yul\":7381:7385   */\n      dup2\n        /* \"#utility.yul\":7372:7378   */\n      dup6\n        /* \"#utility.yul\":7308:7386   */\n      tag_304\n      jump\t// in\n    tag_428:\n        /* \"#utility.yul\":7300:7386   */\n      swap1\n      pop\n        /* \"#utility.yul\":7396:7468   */\n      tag_429\n        /* \"#utility.yul\":7464:7466   */\n      0x60\n        /* \"#utility.yul\":7453:7462   */\n      dup4\n        /* \"#utility.yul\":7449:7467   */\n      add\n        /* \"#utility.yul\":7440:7446   */\n      dup5\n        /* \"#utility.yul\":7396:7468   */\n      tag_299\n      jump\t// in\n    tag_429:\n        /* \"#utility.yul\":6831:7475   */\n      swap6\n      swap5\n      pop\n      pop\n      pop\n      pop\n      pop\n      jump\t// out\n        /* \"#utility.yul\":7481:7810   */\n    tag_51:\n        /* \"#utility.yul\":7540:7546   */\n      0x00\n        /* \"#utility.yul\":7589:7591   */\n      0x20\n        /* \"#utility.yul\":7577:7586   */\n      dup3\n        /* \"#utility.yul\":7568:7575   */\n      dup5\n        /* \"#utility.yul\":7564:7587   */\n      sub\n        /* \"#utility.yul\":7560:7592   */\n      slt\n        /* \"#utility.yul\":7557:7676   */\n      iszero\n      tag_431\n      jumpi\n        /* \"#utility.yul\":7595:7674   */\n      tag_432\n      tag_285\n      jump\t// in\n    tag_432:\n        /* \"#utility.yul\":7557:7676   */\n    tag_431:\n        /* \"#utility.yul\":7715:7716   */\n      0x00\n        /* \"#utility.yul\":7740:7793   */\n      tag_433\n        /* \"#utility.yul\":7785:7792   */\n      dup5\n        /* \"#utility.yul\":7776:7782   */\n      dup3\n        /* \"#utility.yul\":7765:7774   */\n      dup6\n        /* \"#utility.yul\":7761:7783   */\n      add\n        /* \"#utility.yul\":7740:7793   */\n      tag_293\n      jump\t// in\n    tag_433:\n        /* \"#utility.yul\":7730:7793   */\n      swap2\n      pop\n        /* \"#utility.yul\":7686:7803   */\n      pop\n        /* \"#utility.yul\":7481:7810   */\n      swap3\n      swap2\n      pop\n      pop\n      jump\t// out\n        /* \"#utility.yul\":7816:8038   */\n    tag_54:\n        /* \"#utility.yul\":7909:7913   */\n      0x00\n        /* \"#utility.yul\":7947:7949   */\n      0x20\n        /* \"#utility.yul\":7936:7945   */\n      dup3\n        /* \"#utility.yul\":7932:7950   */\n      add\n        /* \"#utility.yul\":7924:7950   */\n      swap1\n      pop\n        /* \"#utility.yul\":7960:8031   */\n      tag_435\n        /* \"#utility.yul\":8028:8029   */\n      0x00\n        /* \"#utility.yul\":8017:8026   */\n      dup4\n        /* \"#utility.yul\":8013:8030   */\n      add\n        /* \"#utility.yul\":8004:8010   */\n      dup5\n        /* \"#utility.yul\":7960:8031   */\n      tag_299\n      jump\t// in\n    tag_435:\n        /* \"#utility.yul\":7816:8038   */\n      swap3\n      swap2\n      pop\n      pop\n      jump\t// out\n        /* \"#utility.yul\":8044:8373   */\n    tag_65:\n        /* \"#utility.yul\":8103:8109   */\n      0x00\n        /* \"#utility.yul\":8152:8154   */\n      0x20\n        /* \"#utility.yul\":8140:8149   */\n      dup3\n        /* \"#utility.yul\":8131:8138   */\n      dup5\n        /* \"#utility.yul\":8127:8150   */\n      sub\n        /* \"#utility.yul\":8123:8155   */\n      slt\n        /* \"#utility.yul\":8120:8239   */\n      iszero\n      tag_437\n      jumpi\n        /* \"#utility.yul\":8158:8237   */\n      tag_438\n      tag_285\n      jump\t// in\n    tag_438:\n        /* \"#utility.yul\":8120:8239   */\n    tag_437:\n        /* \"#utility.yul\":8278:8279   */\n      0x00\n        /* \"#utility.yul\":8303:8356   */\n      tag_439\n        /* \"#utility.yul\":8348:8355   */\n      dup5\n        /* \"#utility.yul\":8339:8345   */\n      dup3\n        /* \"#utility.yul\":8328:8337   */\n      dup6\n        /* \"#utility.yul\":8324:8346   */\n      add\n        /* \"#utility.yul\":8303:8356   */\n      tag_290\n      jump\t// in\n    tag_439:\n        /* \"#utility.yul\":8293:8356   */\n      swap2\n      pop\n        /* \"#utility.yul\":8249:8366   */\n      pop\n        /* \"#utility.yul\":8044:8373   */\n      swap3\n      swap2\n      pop\n      pop\n      jump\t// out\n        /* \"#utility.yul\":8379:8559   */\n    tag_76:\n        /* \"#utility.yul\":8427:8504   */\n      0x4e487b7100000000000000000000000000000000000000000000000000000000\n        /* \"#utility.yul\":8424:8425   */\n      0x00\n        /* \"#utility.yul\":8417:8505   */\n      mstore\n        /* \"#utility.yul\":8524:8528   */\n      0x21\n        /* \"#utility.yul\":8521:8522   */\n      0x04\n        /* \"#utility.yul\":8514:8529   */\n      mstore\n        /* \"#utility.yul\":8548:8552   */\n      0x24\n        /* \"#utility.yul\":8545:8546   */\n      0x00\n        /* \"#utility.yul\":8538:8553   */\n      revert\n        /* \"#utility.yul\":8565:8676   */\n    tag_305:\n        /* \"#utility.yul\":8644:8645   */\n      0x03\n        /* \"#utility.yul\":8637:8642   */\n      dup2\n        /* \"#utility.yul\":8634:8646   */\n      lt\n        /* \"#utility.yul\":8624:8670   */\n      tag_442\n      jumpi\n        /* \"#utility.yul\":8650:8668   */\n      tag_443\n      tag_76\n      jump\t// in\n    tag_443:\n        /* \"#utility.yul\":8624:8670   */\n    tag_442:\n        /* \"#utility.yul\":8565:8676   */\n      pop\n      jump\t// out\n        /* \"#utility.yul\":8682:8805   */\n    tag_306:\n        /* \"#utility.yul\":8725:8732   */\n      0x00\n        /* \"#utility.yul\":8754:8759   */\n      dup2\n        /* \"#utility.yul\":8743:8759   */\n      swap1\n      pop\n        /* \"#utility.yul\":8760:8799   */\n      tag_445\n        /* \"#utility.yul\":8793:8798   */\n      dup3\n        /* \"#utility.yul\":8760:8799   */\n      tag_305\n      jump\t// in\n    tag_445:\n        /* \"#utility.yul\":8682:8805   */\n      swap2\n      swap1\n      pop\n      jump\t// out\n        /* \"#utility.yul\":8811:8934   */\n    tag_307:\n        /* \"#utility.yul\":8865:8874   */\n      0x00\n        /* \"#utility.yul\":8898:8928   */\n      tag_447\n        /* \"#utility.yul\":8922:8927   */\n      dup3\n        /* \"#utility.yul\":8898:8928   */\n      tag_306\n      jump\t// in\n    tag_447:\n        /* \"#utility.yul\":8885:8928   */\n      swap1\n      pop\n        /* \"#utility.yul\":8811:8934   */\n      swap2\n      swap1\n      pop\n      jump\t// out\n        /* \"#utility.yul\":8940:9079   */\n    tag_308:\n        /* \"#utility.yul\":9031:9072   */\n      tag_449\n        /* \"#utility.yul\":9066:9071   */\n      dup2\n        /* \"#utility.yul\":9031:9072   */\n      tag_307\n      jump\t// in\n    tag_449:\n        /* \"#utility.yul\":9026:9029   */\n      dup3\n        /* \"#utility.yul\":9019:9073   */\n      mstore\n        /* \"#utility.yul\":8940:9079   */\n      pop\n      pop\n      jump\t// out\n        /* \"#utility.yul\":9085:9425   */\n    tag_68:\n        /* \"#utility.yul\":9210:9214   */\n      0x00\n        /* \"#utility.yul\":9248:9250   */\n      0x40\n        /* \"#utility.yul\":9237:9246   */\n      dup3\n        /* \"#utility.yul\":9233:9251   */\n      add\n        /* \"#utility.yul\":9225:9251   */\n      swap1\n      pop\n        /* \"#utility.yul\":9261:9336   */\n      tag_451\n        /* \"#utility.yul\":9333:9334   */\n      0x00\n        /* \"#utility.yul\":9322:9331   */\n      dup4\n        /* \"#utility.yul\":9318:9335   */\n      add\n        /* \"#utility.yul\":9309:9315   */\n      dup6\n        /* \"#utility.yul\":9261:9336   */\n      tag_308\n      jump\t// in\n    tag_451:\n        /* \"#utility.yul\":9346:9418   */\n      tag_452\n        /* \"#utility.yul\":9414:9416   */\n      0x20\n        /* \"#utility.yul\":9403:9412   */\n      dup4\n        /* \"#utility.yul\":9399:9417   */\n      add\n        /* \"#utility.yul\":9390:9396   */\n      dup5\n        /* \"#utility.yul\":9346:9418   */\n      tag_299\n      jump\t// in\n    tag_452:\n        /* \"#utility.yul\":9085:9425   */\n      swap4\n      swap3\n      pop\n      pop\n      pop\n      jump\t// out\n        /* \"#utility.yul\":9431:9545   */\n    tag_309:\n      pop\n      jump\t// out\n        /* \"#utility.yul\":9551:9915   */\n    tag_310:\n        /* \"#utility.yul\":9693:9696   */\n      0x00\n        /* \"#utility.yul\":9714:9780   */\n      tag_455\n        /* \"#utility.yul\":9778:9779   */\n      0x00\n        /* \"#utility.yul\":9773:9776   */\n      dup4\n        /* \"#utility.yul\":9714:9780   */\n      tag_301\n      jump\t// in\n    tag_455:\n        /* \"#utility.yul\":9707:9780   */\n      swap2\n      pop\n        /* \"#utility.yul\":9789:9882   */\n      tag_456\n        /* \"#utility.yul\":9878:9881   */\n      dup3\n        /* \"#utility.yul\":9789:9882   */\n      tag_309\n      jump\t// in\n    tag_456:\n        /* \"#utility.yul\":9907:9908   */\n      0x00\n        /* \"#utility.yul\":9902:9905   */\n      dup3\n        /* \"#utility.yul\":9898:9909   */\n      add\n        /* \"#utility.yul\":9891:9909   */\n      swap1\n      pop\n        /* \"#utility.yul\":9551:9915   */\n      swap2\n      swap1\n      pop\n      jump\t// out\n        /* \"#utility.yul\":9921:10340   */\n    tag_81:\n        /* \"#utility.yul\":10087:10091   */\n      0x00\n        /* \"#utility.yul\":10125:10127   */\n      0x20\n        /* \"#utility.yul\":10114:10123   */\n      dup3\n        /* \"#utility.yul\":10110:10128   */\n      add\n        /* \"#utility.yul\":10102:10128   */\n      swap1\n      pop\n        /* \"#utility.yul\":10174:10183   */\n      dup2\n        /* \"#utility.yul\":10168:10172   */\n      dup2\n        /* \"#utility.yul\":10164:10184   */\n      sub\n        /* \"#utility.yul\":10160:10161   */\n      0x00\n        /* \"#utility.yul\":10149:10158   */\n      dup4\n        /* \"#utility.yul\":10145:10162   */\n      add\n        /* \"#utility.yul\":10138:10185   */\n      mstore\n        /* \"#utility.yul\":10202:10333   */\n      tag_458\n        /* \"#utility.yul\":10328:10332   */\n      dup2\n        /* \"#utility.yul\":10202:10333   */\n      tag_310\n      jump\t// in\n    tag_458:\n        /* \"#utility.yul\":10194:10333   */\n      swap1\n      pop\n        /* \"#utility.yul\":9921:10340   */\n      swap2\n      swap1\n      pop\n      jump\t// out\n        /* \"#utility.yul\":10346:10762   */\n    tag_311:\n        /* \"#utility.yul\":10486:10552   */\n      0xd09cd0b0d0b3d0b0d0b7d0b8d0bd20d0bdd0b520d181d0bed0bed182d0b2d0b5\n        /* \"#utility.yul\":10482:10483   */\n      0x00\n        /* \"#utility.yul\":10474:10480   */\n      dup3\n        /* \"#utility.yul\":10470:10484   */\n      add\n        /* \"#utility.yul\":10463:10553   */\n      mstore\n        /* \"#utility.yul\":10587:10653   */\n      0xd182d181d0b2d183d0b5d18220d0bed182d0bfd180d0b0d0b2d0b8d182d0b5d0\n        /* \"#utility.yul\":10582:10584   */\n      0x20\n        /* \"#utility.yul\":10574:10580   */\n      dup3\n        /* \"#utility.yul\":10570:10585   */\n      add\n        /* \"#utility.yul\":10563:10654   */\n      mstore\n        /* \"#utility.yul\":10688:10754   */\n      0xbbd18e0000000000000000000000000000000000000000000000000000000000\n        /* \"#utility.yul\":10683:10685   */\n      0x40\n        /* \"#utility.yul\":10675:10681   */\n      dup3\n        /* \"#utility.yul\":10671:10686   */\n      add\n        /* \"#utility.yul\":10664:10755   */\n      mstore\n        /* \"#utility.yul\":10346:10762   */\n      pop\n      jump\t// out\n        /* \"#utility.yul\":10768:11134   */\n    tag_312:\n        /* \"#utility.yul\":10910:10913   */\n      0x00\n        /* \"#utility.yul\":10931:10998   */\n      tag_461\n        /* \"#utility.yul\":10995:10997   */\n      0x43\n        /* \"#utility.yul\":10990:10993   */\n      dup4\n        /* \"#utility.yul\":10931:10998   */\n      tag_301\n      jump\t// in\n    tag_461:\n        /* \"#utility.yul\":10924:10998   */\n      swap2\n      pop\n        /* \"#utility.yul\":11007:11100   */\n      tag_462\n        /* \"#utility.yul\":11096:11099   */\n      dup3\n        /* \"#utility.yul\":11007:11100   */\n      tag_311\n      jump\t// in\n    tag_462:\n        /* \"#utility.yul\":11125:11127   */\n      0x60\n        /* \"#utility.yul\":11120:11123   */\n      dup3\n        /* \"#utility.yul\":11116:11128   */\n      add\n        /* \"#utility.yul\":11109:11128   */\n      swap1\n      pop\n        /* \"#utility.yul\":10768:11134   */\n      swap2\n      swap1\n      pop\n      jump\t// out\n        /* \"#utility.yul\":11140:11559   */\n    tag_84:\n        /* \"#utility.yul\":11306:11310   */\n      0x00\n        /* \"#utility.yul\":11344:11346   */\n      0x20\n        /* \"#utility.yul\":11333:11342   */\n      dup3\n        /* \"#utility.yul\":11329:11347   */\n      add\n        /* \"#utility.yul\":11321:11347   */\n      swap1\n      pop\n        /* \"#utility.yul\":11393:11402   */\n      dup2\n        /* \"#utility.yul\":11387:11391   */\n      dup2\n        /* \"#utility.yul\":11383:11403   */\n      sub\n        /* \"#utility.yul\":11379:11380   */\n      0x00\n        /* \"#utility.yul\":11368:11377   */\n      dup4\n        /* \"#utility.yul\":11364:11381   */\n      add\n        /* \"#utility.yul\":11357:11404   */\n      mstore\n        /* \"#utility.yul\":11421:11552   */\n      tag_464\n        /* \"#utility.yul\":11547:11551   */\n      dup2\n        /* \"#utility.yul\":11421:11552   */\n      tag_312\n      jump\t// in\n    tag_464:\n        /* \"#utility.yul\":11413:11552   */\n      swap1\n      pop\n        /* \"#utility.yul\":11140:11559   */\n      swap2\n      swap1\n      pop\n      jump\t// out\n        /* \"#utility.yul\":11565:11745   */\n    tag_313:\n        /* \"#utility.yul\":11613:11690   */\n      0x4e487b7100000000000000000000000000000000000000000000000000000000\n        /* \"#utility.yul\":11610:11611   */\n      0x00\n        /* \"#utility.yul\":11603:11691   */\n      mstore\n        /* \"#utility.yul\":11710:11714   */\n      0x41\n        /* \"#utility.yul\":11707:11708   */\n      0x04\n        /* \"#utility.yul\":11700:11715   */\n      mstore\n        /* \"#utility.yul\":11734:11738   */\n      0x24\n        /* \"#utility.yul\":11731:11732   */\n      0x00\n        /* \"#utility.yul\":11724:11739   */\n      revert\n        /* \"#utility.yul\":11751:11931   */\n    tag_314:\n        /* \"#utility.yul\":11799:11876   */\n      0x4e487b7100000000000000000000000000000000000000000000000000000000\n        /* \"#utility.yul\":11796:11797   */\n      0x00\n        /* \"#utility.yul\":11789:11877   */\n      mstore\n        /* \"#utility.yul\":11896:11900   */\n      0x22\n        /* \"#utility.yul\":11893:11894   */\n      0x04\n        /* \"#utility.yul\":11886:11901   */\n      mstore\n        /* \"#utility.yul\":11920:11924   */\n      0x24\n        /* \"#utility.yul\":11917:11918   */\n      0x00\n        /* \"#utility.yul\":11910:11925   */\n      revert\n        /* \"#utility.yul\":11937:12257   */\n    tag_110:\n        /* \"#utility.yul\":11981:11987   */\n      0x00\n        /* \"#utility.yul\":12018:12019   */\n      0x02\n        /* \"#utility.yul\":12012:12016   */\n      dup3\n        /* \"#utility.yul\":12008:12020   */\n      div\n        /* \"#utility.yul\":11998:12020   */\n      swap1\n      pop\n        /* \"#utility.yul\":12065:12066   */\n      0x01\n        /* \"#utility.yul\":12059:12063   */\n      dup3\n        /* \"#utility.yul\":12055:12067   */\n      and\n        /* \"#utility.yul\":12086:12104   */\n      dup1\n        /* \"#utility.yul\":12076:12157   */\n      tag_468\n      jumpi\n        /* \"#utility.yul\":12142:12146   */\n      0x7f\n        /* \"#utility.yul\":12134:12140   */\n      dup3\n        /* \"#utility.yul\":12130:12147   */\n      and\n        /* \"#utility.yul\":12120:12147   */\n      swap2\n      pop\n        /* \"#utility.yul\":12076:12157   */\n    tag_468:\n        /* \"#utility.yul\":12204:12206   */\n      0x20\n        /* \"#utility.yul\":12196:12202   */\n      dup3\n        /* \"#utility.yul\":12193:12207   */\n      lt\n        /* \"#utility.yul\":12173:12191   */\n      dup2\n        /* \"#utility.yul\":12170:12208   */\n      sub\n        /* \"#utility.yul\":12167:12251   */\n      tag_469\n      jumpi\n        /* \"#utility.yul\":12223:12241   */\n      tag_470\n      tag_314\n      jump\t// in\n    tag_470:\n        /* \"#utility.yul\":12167:12251   */\n    tag_469:\n        /* \"#utility.yul\":11988:12257   */\n      pop\n        /* \"#utility.yul\":11937:12257   */\n      swap2\n      swap1\n      pop\n      jump\t// out\n        /* \"#utility.yul\":12263:12404   */\n    tag_315:\n        /* \"#utility.yul\":12312:12316   */\n      0x00\n        /* \"#utility.yul\":12335:12338   */\n      dup2\n        /* \"#utility.yul\":12327:12338   */\n      swap1\n      pop\n        /* \"#utility.yul\":12358:12361   */\n      dup2\n        /* \"#utility.yul\":12355:12356   */\n      0x00\n        /* \"#utility.yul\":12348:12362   */\n      mstore\n        /* \"#utility.yul\":12392:12396   */\n      0x20\n        /* \"#utility.yul\":12389:12390   */\n      0x00\n        /* \"#utility.yul\":12379:12397   */\n      keccak256\n        /* \"#utility.yul\":12371:12397   */\n      swap1\n      pop\n        /* \"#utility.yul\":12263:12404   */\n      swap2\n      swap1\n      pop\n      jump\t// out\n        /* \"#utility.yul\":12410:12503   */\n    tag_316:\n        /* \"#utility.yul\":12447:12453   */\n      0x00\n        /* \"#utility.yul\":12494:12496   */\n      0x20\n        /* \"#utility.yul\":12489:12491   */\n      0x1f\n        /* \"#utility.yul\":12482:12487   */\n      dup4\n        /* \"#utility.yul\":12478:12492   */\n      add\n        /* \"#utility.yul\":12474:12497   */\n      div\n        /* \"#utility.yul\":12464:12497   */\n      swap1\n      pop\n        /* \"#utility.yul\":12410:12503   */\n      swap2\n      swap1\n      pop\n      jump\t// out\n        /* \"#utility.yul\":12509:12616   */\n    tag_317:\n        /* \"#utility.yul\":12553:12561   */\n      0x00\n        /* \"#utility.yul\":12603:12608   */\n      dup3\n        /* \"#utility.yul\":12597:12601   */\n      dup3\n        /* \"#utility.yul\":12593:12609   */\n      shl\n        /* \"#utility.yul\":12572:12609   */\n      swap1\n      pop\n        /* \"#utility.yul\":12509:12616   */\n      swap3\n      swap2\n      pop\n      pop\n      jump\t// out\n        /* \"#utility.yul\":12622:13015   */\n    tag_318:\n        /* \"#utility.yul\":12691:12697   */\n      0x00\n        /* \"#utility.yul\":12741:12742   */\n      0x08\n        /* \"#utility.yul\":12729:12739   */\n      dup4\n        /* \"#utility.yul\":12725:12743   */\n      mul\n        /* \"#utility.yul\":12764:12861   */\n      tag_475\n        /* \"#utility.yul\":12794:12860   */\n      0xffffffffffffffffffffffffffffffffffffffffffffffffffffffffffffffff\n        /* \"#utility.yul\":12783:12792   */\n      dup3\n        /* \"#utility.yul\":12764:12861   */\n      tag_317\n      jump\t// in\n    tag_475:\n        /* \"#utility.yul\":12882:12921   */\n      tag_476\n        /* \"#utility.yul\":12912:12920   */\n      dup7\n        /* \"#utility.yul\":12901:12910   */\n      dup4\n        /* \"#utility.yul\":12882:12921   */\n      tag_317\n      jump\t// in\n    tag_476:\n        /* \"#utility.yul\":12870:12921   */\n      swap6\n      pop\n        /* \"#utility.yul\":12954:12958   */\n      dup1\n        /* \"#utility.yul\":12950:12959   */\n      not\n        /* \"#utility.yul\":12943:12948   */\n      dup5\n        /* \"#utility.yul\":12939:12960   */\n      and\n        /* \"#utility.yul\":12930:12960   */\n      swap4\n      pop\n        /* \"#utility.yul\":13003:13007   */\n      dup1\n        /* \"#utility.yul\":12993:13001   */\n      dup7\n        /* \"#utility.yul\":12989:13008   */\n      and\n        /* \"#utility.yul\":12982:12987   */\n      dup5\n        /* \"#utility.yul\":12979:13009   */\n      or\n        /* \"#utility.yul\":12969:13009   */\n      swap3\n      pop\n        /* \"#utility.yul\":12698:13015   */\n      pop\n      pop\n        /* \"#utility.yul\":12622:13015   */\n      swap4\n      swap3\n      pop\n      pop\n      pop\n      jump\t// out\n        /* \"#utility.yul\":13021:13081   */\n    tag_319:\n        /* \"#utility.yul\":13049:13052   */\n      0x00\n        /* \"#utility.yul\":13070:13075   */\n      dup2\n        /* \"#utility.yul\":13063:13075   */\n      swap1\n      pop\n        /* \"#utility.yul\":13021:13081   */\n      swap2\n      swap1\n      pop\n      jump\t// out\n        /* \"#utility.yul\":13087:13229   */\n    tag_320:\n        /* \"#utility.yul\":13137:13146   */\n      0x00\n        /* \"#utility.yul\":13170:13223   */\n      tag_479\n        /* \"#utility.yul\":13188:13222   */\n      tag_480\n        /* \"#utility.yul\":13197:13221   */\n      tag_481\n        /* \"#utility.yul\":13215:13220   */\n      dup5\n        /* \"#utility.yul\":13197:13221   */\n      tag_291\n      jump\t// in\n    tag_481:\n        /* \"#utility.yul\":13188:13222   */\n      tag_319\n      jump\t// in\n    tag_480:\n        /* \"#utility.yul\":13170:13223   */\n      tag_291\n      jump\t// in\n    tag_479:\n        /* \"#utility.yul\":13157:13223   */\n      swap1\n      pop\n        /* \"#utility.yul\":13087:13229   */\n      swap2\n      swap1\n      pop\n      jump\t// out\n        /* \"#utility.yul\":13235:13310   */\n    tag_321:\n        /* \"#utility.yul\":13278:13281   */\n      0x00\n        /* \"#utility.yul\":13299:13304   */\n      dup2\n        /* \"#utility.yul\":13292:13304   */\n      swap1\n      pop\n        /* \"#utility.yul\":13235:13310   */\n      swap2\n      swap1\n      pop\n      jump\t// out\n        /* \"#utility.yul\":13316:13585   */\n    tag_322:\n        /* \"#utility.yul\":13426:13465   */\n      tag_484\n        /* \"#utility.yul\":13457:13464   */\n      dup4\n        /* \"#utility.yul\":13426:13465   */\n      tag_320\n      jump\t// in\n    tag_484:\n        /* \"#utility.yul\":13487:13578   */\n      tag_485\n        /* \"#utility.yul\":13536:13577   */\n      tag_486\n        /* \"#utility.yul\":13560:13576   */\n      dup3\n        /* \"#utility.yul\":13536:13577   */\n      tag_321\n      jump\t// in\n    tag_486:\n        /* \"#utility.yul\":13528:13534   */\n      dup5\n        /* \"#utility.yul\":13521:13525   */\n      dup5\n        /* \"#utility.yul\":13515:13526   */\n      sload\n        /* \"#utility.yul\":13487:13578   */\n      tag_318\n      jump\t// in\n    tag_485:\n        /* \"#utility.yul\":13481:13485   */\n      dup3\n        /* \"#utility.yul\":13474:13579   */\n      sstore\n        /* \"#utility.yul\":13392:13585   */\n      pop\n        /* \"#utility.yul\":13316:13585   */\n      pop\n      pop\n      pop\n      jump\t// out\n        /* \"#utility.yul\":13591:13664   */\n    tag_323:\n        /* \"#utility.yul\":13636:13639   */\n      0x00\n        /* \"#utility.yul\":13591:13664   */\n      swap1\n      jump\t// out\n        /* \"#utility.yul\":13670:13859   */\n    tag_324:\n        /* \"#utility.yul\":13747:13779   */\n      tag_489\n      tag_323\n      jump\t// in\n    tag_489:\n        /* \"#utility.yul\":13788:13853   */\n      tag_490\n        /* \"#utility.yul\":13846:13852   */\n      dup2\n        /* \"#utility.yul\":13838:13844   */\n      dup5\n        /* \"#utility.yul\":13832:13836   */\n      dup5\n        /* \"#utility.yul\":13788:13853   */\n      tag_322\n      jump\t// in\n    tag_490:\n        /* \"#utility.yul\":13723:13859   */\n      pop\n        /* \"#utility.yul\":13670:13859   */\n      pop\n      pop\n      jump\t// out\n        /* \"#utility.yul\":13865:14051   */\n    tag_325:\n        /* \"#utility.yul\":13925:14045   */\n    tag_492:\n        /* \"#utility.yul\":13942:13945   */\n      dup2\n        /* \"#utility.yul\":13935:13940   */\n      dup2\n        /* \"#utility.yul\":13932:13946   */\n      lt\n        /* \"#utility.yul\":13925:14045   */\n      iszero\n      tag_494\n      jumpi\n        /* \"#utility.yul\":13996:14035   */\n      tag_495\n        /* \"#utility.yul\":14033:14034   */\n      0x00\n        /* \"#utility.yul\":14026:14031   */\n      dup3\n        /* \"#utility.yul\":13996:14035   */\n      tag_324\n      jump\t// in\n    tag_495:\n        /* \"#utility.yul\":13969:13970   */\n      0x01\n        /* \"#utility.yul\":13962:13967   */\n      dup2\n        /* \"#utility.yul\":13958:13971   */\n      add\n        /* \"#utility.yul\":13949:13971   */\n      swap1\n      pop\n        /* \"#utility.yul\":13925:14045   */\n      jump(tag_492)\n    tag_494:\n        /* \"#utility.yul\":13865:14051   */\n      pop\n      pop\n      jump\t// out\n        /* \"#utility.yul\":14057:14600   */\n    tag_326:\n        /* \"#utility.yul\":14158:14160   */\n      0x1f\n        /* \"#utility.yul\":14153:14156   */\n      dup3\n        /* \"#utility.yul\":14150:14161   */\n      gt\n        /* \"#utility.yul\":14147:14593   */\n      iszero\n      tag_497\n      jumpi\n        /* \"#utility.yul\":14192:14230   */\n      tag_498\n        /* \"#utility.yul\":14224:14229   */\n      dup2\n        /* \"#utility.yul\":14192:14230   */\n      tag_315\n      jump\t// in\n    tag_498:\n        /* \"#utility.yul\":14276:14305   */\n      tag_499\n        /* \"#utility.yul\":14294:14304   */\n      dup5\n        /* \"#utility.yul\":14276:14305   */\n      tag_316\n      jump\t// in\n    tag_499:\n        /* \"#utility.yul\":14266:14274   */\n      dup2\n        /* \"#utility.yul\":14262:14306   */\n      add\n        /* \"#utility.yul\":14459:14461   */\n      0x20\n        /* \"#utility.yul\":14447:14457   */\n      dup6\n        /* \"#utility.yul\":14444:14462   */\n      lt\n        /* \"#utility.yul\":14441:14490   */\n      iszero\n      tag_500\n      jumpi\n        /* \"#utility.yul\":14480:14488   */\n      dup2\n        /* \"#utility.yul\":14465:14488   */\n      swap1\n      pop\n        /* \"#utility.yul\":14441:14490   */\n    tag_500:\n        /* \"#utility.yul\":14503:14583   */\n      tag_501\n        /* \"#utility.yul\":14559:14581   */\n      tag_502\n        /* \"#utility.yul\":14577:14580   */\n      dup6\n        /* \"#utility.yul\":14559:14581   */\n      tag_316\n      jump\t// in\n    tag_502:\n        /* \"#utility.yul\":14549:14557   */\n      dup4\n        /* \"#utility.yul\":14545:14582   */\n      add\n        /* \"#utility.yul\":14532:14543   */\n      dup3\n        /* \"#utility.yul\":14503:14583   */\n      tag_325\n      jump\t// in\n    tag_501:\n        /* \"#utility.yul\":14162:14593   */\n      pop\n      pop\n        /* \"#utility.yul\":14147:14593   */\n    tag_497:\n        /* \"#utility.yul\":14057:14600   */\n      pop\n      pop\n      pop\n      jump\t// out\n        /* \"#utility.yul\":14606:14723   */\n    tag_327:\n        /* \"#utility.yul\":14660:14668   */\n      0x00\n        /* \"#utility.yul\":14710:14715   */\n      dup3\n        /* \"#utility.yul\":14704:14708   */\n      dup3\n        /* \"#utility.yul\":14700:14716   */\n      shr\n        /* \"#utility.yul\":14679:14716   */\n      swap1\n      pop\n        /* \"#utility.yul\":14606:14723   */\n      swap3\n      swap2\n      pop\n      pop\n      jump\t// out\n        /* \"#utility.yul\":14729:14898   */\n    tag_328:\n        /* \"#utility.yul\":14773:14779   */\n      0x00\n        /* \"#utility.yul\":14806:14857   */\n      tag_505\n        /* \"#utility.yul\":14854:14855   */\n      0x00\n        /* \"#utility.yul\":14850:14856   */\n      not\n        /* \"#utility.yul\":14842:14847   */\n      dup5\n        /* \"#utility.yul\":14839:14840   */\n      0x08\n        /* \"#utility.yul\":14835:14848   */\n      mul\n        /* \"#utility.yul\":14806:14857   */\n      tag_327\n      jump\t// in\n    tag_505:\n        /* \"#utility.yul\":14802:14858   */\n      not\n        /* \"#utility.yul\":14887:14891   */\n      dup1\n        /* \"#utility.yul\":14881:14885   */\n      dup4\n        /* \"#utility.yul\":14877:14892   */\n      and\n        /* \"#utility.yul\":14867:14892   */\n      swap2\n      pop\n        /* \"#utility.yul\":14780:14898   */\n      pop\n        /* \"#utility.yul\":14729:14898   */\n      swap3\n      swap2\n      pop\n      pop\n      jump\t// out\n        /* \"#utility.yul\":14903:15198   */\n    tag_329:\n        /* \"#utility.yul\":14979:14983   */\n      0x00\n        /* \"#utility.yul\":15125:15154   */\n      tag_507\n        /* \"#utility.yul\":15150:15153   */\n      dup4\n        /* \"#utility.yul\":15144:15148   */\n      dup4\n        /* \"#utility.yul\":15125:15154   */\n      tag_328\n      jump\t// in\n    tag_507:\n        /* \"#utility.yul\":15117:15154   */\n      swap2\n      pop\n        /* \"#utility.yul\":15187:15190   */\n      dup3\n        /* \"#utility.yul\":15184:15185   */\n      0x02\n        /* \"#utility.yul\":15180:15191   */\n      mul\n        /* \"#utility.yul\":15174:15178   */\n      dup3\n        /* \"#utility.yul\":15171:15192   */\n      or\n        /* \"#utility.yul\":15163:15192   */\n      swap1\n      pop\n        /* \"#utility.yul\":14903:15198   */\n      swap3\n      swap2\n      pop\n      pop\n      jump\t// out\n        /* \"#utility.yul\":15203:16598   */\n    tag_88:\n        /* \"#utility.yul\":15320:15357   */\n      tag_509\n        /* \"#utility.yul\":15353:15356   */\n      dup3\n        /* \"#utility.yul\":15320:15357   */\n      tag_300\n      jump\t// in\n    tag_509:\n        /* \"#utility.yul\":15422:15440   */\n      0xffffffffffffffff\n        /* \"#utility.yul\":15414:15420   */\n      dup2\n        /* \"#utility.yul\":15411:15441   */\n      gt\n        /* \"#utility.yul\":15408:15464   */\n      iszero\n      tag_510\n      jumpi\n        /* \"#utility.yul\":15444:15462   */\n      tag_511\n      tag_313\n      jump\t// in\n    tag_511:\n        /* \"#utility.yul\":15408:15464   */\n    tag_510:\n        /* \"#utility.yul\":15488:15526   */\n      tag_512\n        /* \"#utility.yul\":15520:15524   */\n      dup3\n        /* \"#utility.yul\":15514:15525   */\n      sload\n        /* \"#utility.yul\":15488:15526   */\n      tag_110\n      jump\t// in\n    tag_512:\n        /* \"#utility.yul\":15573:15640   */\n      tag_513\n        /* \"#utility.yul\":15633:15639   */\n      dup3\n        /* \"#utility.yul\":15625:15631   */\n      dup3\n        /* \"#utility.yul\":15619:15623   */\n      dup6\n        /* \"#utility.yul\":15573:15640   */\n      tag_326\n      jump\t// in\n    tag_513:\n        /* \"#utility.yul\":15667:15668   */\n      0x00\n        /* \"#utility.yul\":15691:15695   */\n      0x20\n        /* \"#utility.yul\":15678:15695   */\n      swap1\n      pop\n        /* \"#utility.yul\":15723:15725   */\n      0x1f\n        /* \"#utility.yul\":15715:15721   */\n      dup4\n        /* \"#utility.yul\":15712:15726   */\n      gt\n        /* \"#utility.yul\":15740:15741   */\n      0x01\n        /* \"#utility.yul\":15735:16353   */\n      dup2\n      eq\n      tag_515\n      jumpi\n        /* \"#utility.yul\":16397:16398   */\n      0x00\n        /* \"#utility.yul\":16414:16420   */\n      dup5\n        /* \"#utility.yul\":16411:16488   */\n      iszero\n      tag_516\n      jumpi\n        /* \"#utility.yul\":16463:16472   */\n      dup3\n        /* \"#utility.yul\":16458:16461   */\n      dup8\n        /* \"#utility.yul\":16454:16473   */\n      add\n        /* \"#utility.yul\":16448:16474   */\n      mload\n        /* \"#utility.yul\":16439:16474   */\n      swap1\n      pop\n        /* \"#utility.yul\":16411:16488   */\n    tag_516:\n        /* \"#utility.yul\":16514:16581   */\n      tag_517\n        /* \"#utility.yul\":16574:16580   */\n      dup6\n        /* \"#utility.yul\":16567:16572   */\n      dup3\n        /* \"#utility.yul\":16514:16581   */\n      tag_329\n      jump\t// in\n    tag_517:\n        /* \"#utility.yul\":16508:16512   */\n      dup7\n        /* \"#utility.yul\":16501:16582   */\n      sstore\n        /* \"#utility.yul\":16370:16592   */\n      pop\n        /* \"#utility.yul\":15705:16592   */\n      jump(tag_514)\n        /* \"#utility.yul\":15735:16353   */\n    tag_515:\n        /* \"#utility.yul\":15787:15791   */\n      0x1f\n        /* \"#utility.yul\":15783:15792   */\n      not\n        /* \"#utility.yul\":15775:15781   */\n      dup5\n        /* \"#utility.yul\":15771:15793   */\n      and\n        /* \"#utility.yul\":15821:15858   */\n      tag_518\n        /* \"#utility.yul\":15853:15857   */\n      dup7\n        /* \"#utility.yul\":15821:15858   */\n      tag_315\n      jump\t// in\n    tag_518:\n        /* \"#utility.yul\":15880:15881   */\n      0x00\n        /* \"#utility.yul\":15894:16102   */\n    tag_519:\n        /* \"#utility.yul\":15908:15915   */\n      dup3\n        /* \"#utility.yul\":15905:15906   */\n      dup2\n        /* \"#utility.yul\":15902:15916   */\n      lt\n        /* \"#utility.yul\":15894:16102   */\n      iszero\n      tag_521\n      jumpi\n        /* \"#utility.yul\":15987:15996   */\n      dup5\n        /* \"#utility.yul\":15982:15985   */\n      dup10\n        /* \"#utility.yul\":15978:15997   */\n      add\n        /* \"#utility.yul\":15972:15998   */\n      mload\n        /* \"#utility.yul\":15964:15970   */\n      dup3\n        /* \"#utility.yul\":15957:15999   */\n      sstore\n        /* \"#utility.yul\":16038:16039   */\n      0x01\n        /* \"#utility.yul\":16030:16036   */\n      dup3\n        /* \"#utility.yul\":16026:16040   */\n      add\n        /* \"#utility.yul\":16016:16040   */\n      swap2\n      pop\n        /* \"#utility.yul\":16085:16087   */\n      0x20\n        /* \"#utility.yul\":16074:16083   */\n      dup6\n        /* \"#utility.yul\":16070:16088   */\n      add\n        /* \"#utility.yul\":16057:16088   */\n      swap5\n      pop\n        /* \"#utility.yul\":15931:15935   */\n      0x20\n        /* \"#utility.yul\":15928:15929   */\n      dup2\n        /* \"#utility.yul\":15924:15936   */\n      add\n        /* \"#utility.yul\":15919:15936   */\n      swap1\n      pop\n        /* \"#utility.yul\":15894:16102   */\n      jump(tag_519)\n    tag_521:\n        /* \"#utility.yul\":16130:16136   */\n      dup7\n        /* \"#utility.yul\":16121:16128   */\n      dup4\n        /* \"#utility.yul\":16118:16137   */\n      lt\n        /* \"#utility.yul\":16115:16294   */\n      iszero\n      tag_522\n      jumpi\n        /* \"#utility.yul\":16188:16197   */\n      dup5\n        /* \"#utility.yul\":16183:16186   */\n      dup10\n        /* \"#utility.yul\":16179:16198   */\n      add\n        /* \"#utility.yul\":16173:16199   */\n      mload\n        /* \"#utility.yul\":16231:16279   */\n      tag_523\n        /* \"#utility.yul\":16273:16277   */\n      0x1f\n        /* \"#utility.yul\":16265:16271   */\n      dup10\n        /* \"#utility.yul\":16261:16278   */\n      and\n        /* \"#utility.yul\":16250:16259   */\n      dup3\n        /* \"#utility.yul\":16231:16279   */\n      tag_328\n      jump\t// in\n    tag_523:\n        /* \"#utility.yul\":16223:16229   */\n      dup4\n        /* \"#utility.yul\":16216:16280   */\n      sstore\n        /* \"#utility.yul\":16138:16294   */\n      pop\n        /* \"#utility.yul\":16115:16294   */\n    tag_522:\n        /* \"#utility.yul\":16340:16341   */\n      0x01\n        /* \"#utility.yul\":16336:16337   */\n      0x02\n        /* \"#utility.yul\":16328:16334   */\n      dup9\n        /* \"#utility.yul\":16324:16338   */\n      mul\n        /* \"#utility.yul\":16320:16342   */\n      add\n        /* \"#utility.yul\":16314:16318   */\n      dup9\n        /* \"#utility.yul\":16307:16343   */\n      sstore\n        /* \"#utility.yul\":15742:16353   */\n      pop\n      pop\n      pop\n        /* \"#utility.yul\":15705:16592   */\n    tag_514:\n      pop\n        /* \"#utility.yul\":15295:16598   */\n      pop\n      pop\n      pop\n        /* \"#utility.yul\":15203:16598   */\n      pop\n      pop\n      jump\t// out\n        /* \"#utility.yul\":16604:16829   */\n    tag_330:\n        /* \"#utility.yul\":16744:16778   */\n      0x507572636861736520616d6f756e74206d757374206265206772656174657220\n        /* \"#utility.yul\":16740:16741   */\n      0x00\n        /* \"#utility.yul\":16732:16738   */\n      dup3\n        /* \"#utility.yul\":16728:16742   */\n      add\n        /* \"#utility.yul\":16721:16779   */\n      mstore\n        /* \"#utility.yul\":16813:16821   */\n      0x7468616e20300000000000000000000000000000000000000000000000000000\n        /* \"#utility.yul\":16808:16810   */\n      0x20\n        /* \"#utility.yul\":16800:16806   */\n      dup3\n        /* \"#utility.yul\":16796:16811   */\n      add\n        /* \"#utility.yul\":16789:16822   */\n      mstore\n        /* \"#utility.yul\":16604:16829   */\n      pop\n      jump\t// out\n        /* \"#utility.yul\":16835:17201   */\n    tag_331:\n        /* \"#utility.yul\":16977:16980   */\n      0x00\n        /* \"#utility.yul\":16998:17065   */\n      tag_526\n        /* \"#utility.yul\":17062:17064   */\n      0x26\n        /* \"#utility.yul\":17057:17060   */\n      dup4\n        /* \"#utility.yul\":16998:17065   */\n      tag_301\n      jump\t// in\n    tag_526:\n        /* \"#utility.yul\":16991:17065   */\n      swap2\n      pop\n        /* \"#utility.yul\":17074:17167   */\n      tag_527\n        /* \"#utility.yul\":17163:17166   */\n      dup3\n        /* \"#utility.yul\":17074:17167   */\n      tag_330\n      jump\t// in\n    tag_527:\n        /* \"#utility.yul\":17192:17194   */\n      0x40\n        /* \"#utility.yul\":17187:17190   */\n      dup3\n        /* \"#utility.yul\":17183:17195   */\n      add\n        /* \"#utility.yul\":17176:17195   */\n      swap1\n      pop\n        /* \"#utility.yul\":16835:17201   */\n      swap2\n      swap1\n      pop\n      jump\t// out\n        /* \"#utility.yul\":17207:17626   */\n    tag_101:\n        /* \"#utility.yul\":17373:17377   */\n      0x00\n        /* \"#utility.yul\":17411:17413   */\n      0x20\n        /* \"#utility.yul\":17400:17409   */\n      dup3\n        /* \"#utility.yul\":17396:17414   */\n      add\n        /* \"#utility.yul\":17388:17414   */\n      swap1\n      pop\n        /* \"#utility.yul\":17460:17469   */\n      dup2\n        /* \"#utility.yul\":17454:17458   */\n      dup2\n        /* \"#utility.yul\":17450:17470   */\n      sub\n        /* \"#utility.yul\":17446:17447   */\n      0x00\n        /* \"#utility.yul\":17435:17444   */\n      dup4\n        /* \"#utility.yul\":17431:17448   */\n      add\n        /* \"#utility.yul\":17424:17471   */\n      mstore\n        /* \"#utility.yul\":17488:17619   */\n      tag_529\n        /* \"#utility.yul\":17614:17618   */\n      dup2\n        /* \"#utility.yul\":17488:17619   */\n      tag_331\n      jump\t// in\n    tag_529:\n        /* \"#utility.yul\":17480:17619   */\n      swap1\n      pop\n        /* \"#utility.yul\":17207:17626   */\n      swap2\n      swap1\n      pop\n      jump\t// out\n        /* \"#utility.yul\":17632:17800   */\n    tag_332:\n        /* \"#utility.yul\":17772:17792   */\n      0x496e76616c69642070726f647563742049440000000000000000000000000000\n        /* \"#utility.yul\":17768:17769   */\n      0x00\n        /* \"#utility.yul\":17760:17766   */\n      dup3\n        /* \"#utility.yul\":17756:17770   */\n      add\n        /* \"#utility.yul\":17749:17793   */\n      mstore\n        /* \"#utility.yul\":17632:17800   */\n      pop\n      jump\t// out\n        /* \"#utility.yul\":17806:18172   */\n    tag_333:\n        /* \"#utility.yul\":17948:17951   */\n      0x00\n        /* \"#utility.yul\":17969:18036   */\n      tag_532\n        /* \"#utility.yul\":18033:18035   */\n      0x12\n        /* \"#utility.yul\":18028:18031   */\n      dup4\n        /* \"#utility.yul\":17969:18036   */\n      tag_301\n      jump\t// in\n    tag_532:\n        /* \"#utility.yul\":17962:18036   */\n      swap2\n      pop\n        /* \"#utility.yul\":18045:18138   */\n      tag_533\n        /* \"#utility.yul\":18134:18137   */\n      dup3\n        /* \"#utility.yul\":18045:18138   */\n      tag_332\n      jump\t// in\n    tag_533:\n        /* \"#utility.yul\":18163:18165   */\n      0x20\n        /* \"#utility.yul\":18158:18161   */\n      dup3\n        /* \"#utility.yul\":18154:18166   */\n      add\n        /* \"#utility.yul\":18147:18166   */\n      swap1\n      pop\n        /* \"#utility.yul\":17806:18172   */\n      swap2\n      swap1\n      pop\n      jump\t// out\n        /* \"#utility.yul\":18178:18597   */\n    tag_104:\n        /* \"#utility.yul\":18344:18348   */\n      0x00\n        /* \"#utility.yul\":18382:18384   */\n      0x20\n        /* \"#utility.yul\":18371:18380   */\n      dup3\n        /* \"#utility.yul\":18367:18385   */\n      add\n        /* \"#utility.yul\":18359:18385   */\n      swap1\n      pop\n        /* \"#utility.yul\":18431:18440   */\n      dup2\n        /* \"#utility.yul\":18425:18429   */\n      dup2\n        /* \"#utility.yul\":18421:18441   */\n      sub\n        /* \"#utility.yul\":18417:18418   */\n      0x00\n        /* \"#utility.yul\":18406:18415   */\n      dup4\n        /* \"#utility.yul\":18402:18419   */\n      add\n        /* \"#utility.yul\":18395:18442   */\n      mstore\n        /* \"#utility.yul\":18459:18590   */\n      tag_535\n        /* \"#utility.yul\":18585:18589   */\n      dup2\n        /* \"#utility.yul\":18459:18590   */\n      tag_333\n      jump\t// in\n    tag_535:\n        /* \"#utility.yul\":18451:18590   */\n      swap1\n      pop\n        /* \"#utility.yul\":18178:18597   */\n      swap2\n      swap1\n      pop\n      jump\t// out\n        /* \"#utility.yul\":18603:18783   */\n    tag_107:\n        /* \"#utility.yul\":18651:18728   */\n      0x4e487b7100000000000000000000000000000000000000000000000000000000\n        /* \"#utility.yul\":18648:18649   */\n      0x00\n        /* \"#utility.yul\":18641:18729   */\n      mstore\n        /* \"#utility.yul\":18748:18752   */\n      0x32\n        /* \"#utility.yul\":18745:18746   */\n      0x04\n        /* \"#utility.yul\":18738:18753   */\n      mstore\n        /* \"#utility.yul\":18772:18776   */\n      0x24\n        /* \"#utility.yul\":18769:18770   */\n      0x00\n        /* \"#utility.yul\":18762:18777   */\n      revert\n        /* \"#utility.yul\":18789:18936   */\n    tag_334:\n        /* \"#utility.yul\":18890:18901   */\n      0x00\n        /* \"#utility.yul\":18927:18930   */\n      dup2\n        /* \"#utility.yul\":18912:18930   */\n      swap1\n      pop\n        /* \"#utility.yul\":18789:18936   */\n      swap3\n      swap2\n      pop\n      pop\n      jump\t// out\n        /* \"#utility.yul\":18942:19086   */\n    tag_335:\n        /* \"#utility.yul\":18994:18998   */\n      0x00\n        /* \"#utility.yul\":19017:19020   */\n      dup2\n        /* \"#utility.yul\":19009:19020   */\n      swap1\n      pop\n        /* \"#utility.yul\":19040:19043   */\n      dup2\n        /* \"#utility.yul\":19037:19038   */\n      0x00\n        /* \"#utility.yul\":19030:19044   */\n      mstore\n        /* \"#utility.yul\":19074:19078   */\n      0x20\n        /* \"#utility.yul\":19071:19072   */\n      0x00\n        /* \"#utility.yul\":19061:19079   */\n      keccak256\n        /* \"#utility.yul\":19053:19079   */\n      swap1\n      pop\n        /* \"#utility.yul\":18942:19086   */\n      swap2\n      swap1\n      pop\n      jump\t// out\n        /* \"#utility.yul\":19114:19992   */\n    tag_336:\n        /* \"#utility.yul\":19219:19222   */\n      0x00\n        /* \"#utility.yul\":19256:19261   */\n      dup2\n        /* \"#utility.yul\":19250:19262   */\n      sload\n        /* \"#utility.yul\":19285:19321   */\n      tag_540\n        /* \"#utility.yul\":19311:19320   */\n      dup2\n        /* \"#utility.yul\":19285:19321   */\n      tag_110\n      jump\t// in\n    tag_540:\n        /* \"#utility.yul\":19337:19425   */\n      tag_541\n        /* \"#utility.yul\":19418:19424   */\n      dup2\n        /* \"#utility.yul\":19413:19416   */\n      dup7\n        /* \"#utility.yul\":19337:19425   */\n      tag_334\n      jump\t// in\n    tag_541:\n        /* \"#utility.yul\":19330:19425   */\n      swap5\n      pop\n        /* \"#utility.yul\":19456:19457   */\n      0x01\n        /* \"#utility.yul\":19445:19454   */\n      dup3\n        /* \"#utility.yul\":19441:19458   */\n      and\n        /* \"#utility.yul\":19472:19473   */\n      0x00\n        /* \"#utility.yul\":19467:19633   */\n      dup2\n      eq\n      tag_543\n      jumpi\n        /* \"#utility.yul\":19647:19648   */\n      0x01\n        /* \"#utility.yul\":19642:19986   */\n      dup2\n      eq\n      tag_544\n      jumpi\n        /* \"#utility.yul\":19434:19986   */\n      jump(tag_542)\n        /* \"#utility.yul\":19467:19633   */\n    tag_543:\n        /* \"#utility.yul\":19551:19555   */\n      0xff\n        /* \"#utility.yul\":19547:19556   */\n      not\n        /* \"#utility.yul\":19536:19545   */\n      dup4\n        /* \"#utility.yul\":19532:19557   */\n      and\n        /* \"#utility.yul\":19527:19530   */\n      dup7\n        /* \"#utility.yul\":19520:19558   */\n      mstore\n        /* \"#utility.yul\":19613:19619   */\n      dup2\n        /* \"#utility.yul\":19606:19620   */\n      iszero\n        /* \"#utility.yul\":19599:19621   */\n      iszero\n        /* \"#utility.yul\":19591:19597   */\n      dup3\n        /* \"#utility.yul\":19587:19622   */\n      mul\n        /* \"#utility.yul\":19582:19585   */\n      dup7\n        /* \"#utility.yul\":19578:19623   */\n      add\n        /* \"#utility.yul\":19571:19623   */\n      swap4\n      pop\n        /* \"#utility.yul\":19467:19633   */\n      jump(tag_542)\n        /* \"#utility.yul\":19642:19986   */\n    tag_544:\n        /* \"#utility.yul\":19709:19750   */\n      tag_545\n        /* \"#utility.yul\":19744:19749   */\n      dup6\n        /* \"#utility.yul\":19709:19750   */\n      tag_335\n      jump\t// in\n    tag_545:\n        /* \"#utility.yul\":19772:19773   */\n      0x00\n        /* \"#utility.yul\":19786:19940   */\n    tag_546:\n        /* \"#utility.yul\":19800:19806   */\n      dup4\n        /* \"#utility.yul\":19797:19798   */\n      dup2\n        /* \"#utility.yul\":19794:19807   */\n      lt\n        /* \"#utility.yul\":19786:19940   */\n      iszero\n      tag_548\n      jumpi\n        /* \"#utility.yul\":19874:19881   */\n      dup2\n        /* \"#utility.yul\":19868:19882   */\n      sload\n        /* \"#utility.yul\":19864:19865   */\n      dup2\n        /* \"#utility.yul\":19859:19862   */\n      dup10\n        /* \"#utility.yul\":19855:19866   */\n      add\n        /* \"#utility.yul\":19848:19883   */\n      mstore\n        /* \"#utility.yul\":19924:19925   */\n      0x01\n        /* \"#utility.yul\":19915:19922   */\n      dup3\n        /* \"#utility.yul\":19911:19926   */\n      add\n        /* \"#utility.yul\":19900:19926   */\n      swap2\n      pop\n        /* \"#utility.yul\":19822:19826   */\n      0x20\n        /* \"#utility.yul\":19819:19820   */\n      dup2\n        /* \"#utility.yul\":19815:19827   */\n      add\n        /* \"#utility.yul\":19810:19827   */\n      swap1\n      pop\n        /* \"#utility.yul\":19786:19940   */\n      jump(tag_546)\n    tag_548:\n        /* \"#utility.yul\":19969:19975   */\n      dup4\n        /* \"#utility.yul\":19964:19967   */\n      dup9\n        /* \"#utility.yul\":19960:19976   */\n      add\n        /* \"#utility.yul\":19953:19976   */\n      swap6\n      pop\n        /* \"#utility.yul\":19649:19986   */\n      pop\n      pop\n        /* \"#utility.yul\":19434:19986   */\n    tag_542:\n      pop\n        /* \"#utility.yul\":19223:19992   */\n      pop\n      pop\n        /* \"#utility.yul\":19114:19992   */\n      swap3\n      swap2\n      pop\n      pop\n      jump\t// out\n        /* \"#utility.yul\":19998:20271   */\n    tag_122:\n        /* \"#utility.yul\":20129:20132   */\n      0x00\n        /* \"#utility.yul\":20151:20245   */\n      tag_550\n        /* \"#utility.yul\":20241:20244   */\n      dup3\n        /* \"#utility.yul\":20232:20238   */\n      dup5\n        /* \"#utility.yul\":20151:20245   */\n      tag_336\n      jump\t// in\n    tag_550:\n        /* \"#utility.yul\":20144:20245   */\n      swap2\n      pop\n        /* \"#utility.yul\":20262:20265   */\n      dup2\n        /* \"#utility.yul\":20255:20265   */\n      swap1\n      pop\n        /* \"#utility.yul\":19998:20271   */\n      swap3\n      swap2\n      pop\n      pop\n      jump\t// out\n        /* \"#utility.yul\":20277:20457   */\n    tag_337:\n        /* \"#utility.yul\":20325:20402   */\n      0x4e487b7100000000000000000000000000000000000000000000000000000000\n        /* \"#utility.yul\":20322:20323   */\n      0x00\n        /* \"#utility.yul\":20315:20403   */\n      mstore\n        /* \"#utility.yul\":20422:20426   */\n      0x11\n        /* \"#utility.yul\":20419:20420   */\n      0x04\n        /* \"#utility.yul\":20412:20427   */\n      mstore\n        /* \"#utility.yul\":20446:20450   */\n      0x24\n        /* \"#utility.yul\":20443:20444   */\n      0x00\n        /* \"#utility.yul\":20436:20451   */\n      revert\n        /* \"#utility.yul\":20463:20873   */\n    tag_128:\n        /* \"#utility.yul\":20503:20510   */\n      0x00\n        /* \"#utility.yul\":20526:20546   */\n      tag_553\n        /* \"#utility.yul\":20544:20545   */\n      dup3\n        /* \"#utility.yul\":20526:20546   */\n      tag_291\n      jump\t// in\n    tag_553:\n        /* \"#utility.yul\":20521:20546   */\n      swap2\n      pop\n        /* \"#utility.yul\":20560:20580   */\n      tag_554\n        /* \"#utility.yul\":20578:20579   */\n      dup4\n        /* \"#utility.yul\":20560:20580   */\n      tag_291\n      jump\t// in\n    tag_554:\n        /* \"#utility.yul\":20555:20580   */\n      swap3\n      pop\n        /* \"#utility.yul\":20615:20616   */\n      dup3\n        /* \"#utility.yul\":20612:20613   */\n      dup3\n        /* \"#utility.yul\":20608:20617   */\n      mul\n        /* \"#utility.yul\":20637:20667   */\n      tag_555\n        /* \"#utility.yul\":20655:20666   */\n      dup2\n        /* \"#utility.yul\":20637:20667   */\n      tag_291\n      jump\t// in\n    tag_555:\n        /* \"#utility.yul\":20626:20667   */\n      swap2\n      pop\n        /* \"#utility.yul\":20816:20817   */\n      dup3\n        /* \"#utility.yul\":20807:20814   */\n      dup3\n        /* \"#utility.yul\":20803:20818   */\n      div\n        /* \"#utility.yul\":20800:20801   */\n      dup5\n        /* \"#utility.yul\":20797:20819   */\n      eq\n        /* \"#utility.yul\":20777:20778   */\n      dup4\n        /* \"#utility.yul\":20770:20779   */\n      iszero\n        /* \"#utility.yul\":20750:20833   */\n      or\n        /* \"#utility.yul\":20727:20866   */\n      tag_556\n      jumpi\n        /* \"#utility.yul\":20846:20864   */\n      tag_557\n      tag_337\n      jump\t// in\n    tag_557:\n        /* \"#utility.yul\":20727:20866   */\n    tag_556:\n        /* \"#utility.yul\":20511:20873   */\n      pop\n        /* \"#utility.yul\":20463:20873   */\n      swap3\n      swap2\n      pop\n      pop\n      jump\t// out\n        /* \"#utility.yul\":20879:21052   */\n    tag_338:\n        /* \"#utility.yul\":21019:21044   */\n      0x496e73756666696369656e742066756e64732073656e74000000000000000000\n        /* \"#utility.yul\":21015:21016   */\n      0x00\n        /* \"#utility.yul\":21007:21013   */\n      dup3\n        /* \"#utility.yul\":21003:21017   */\n      add\n        /* \"#utility.yul\":20996:21045   */\n      mstore\n        /* \"#utility.yul\":20879:21052   */\n      pop\n      jump\t// out\n        /* \"#utility.yul\":21058:21424   */\n    tag_339:\n        /* \"#utility.yul\":21200:21203   */\n      0x00\n        /* \"#utility.yul\":21221:21288   */\n      tag_560\n        /* \"#utility.yul\":21285:21287   */\n      0x17\n        /* \"#utility.yul\":21280:21283   */\n      dup4\n        /* \"#utility.yul\":21221:21288   */\n      tag_301\n      jump\t// in\n    tag_560:\n        /* \"#utility.yul\":21214:21288   */\n      swap2\n      pop\n        /* \"#utility.yul\":21297:21390   */\n      tag_561\n        /* \"#utility.yul\":21386:21389   */\n      dup3\n        /* \"#utility.yul\":21297:21390   */\n      tag_338\n      jump\t// in\n    tag_561:\n        /* \"#utility.yul\":21415:21417   */\n      0x20\n        /* \"#utility.yul\":21410:21413   */\n      dup3\n        /* \"#utility.yul\":21406:21418   */\n      add\n        /* \"#utility.yul\":21399:21418   */\n      swap1\n      pop\n        /* \"#utility.yul\":21058:21424   */\n      swap2\n      swap1\n      pop\n      jump\t// out\n        /* \"#utility.yul\":21430:21849   */\n    tag_132:\n        /* \"#utility.yul\":21596:21600   */\n      0x00\n        /* \"#utility.yul\":21634:21636   */\n      0x20\n        /* \"#utility.yul\":21623:21632   */\n      dup3\n        /* \"#utility.yul\":21619:21637   */\n      add\n        /* \"#utility.yul\":21611:21637   */\n      swap1\n      pop\n        /* \"#utility.yul\":21683:21692   */\n      dup2\n        /* \"#utility.yul\":21677:21681   */\n      dup2\n        /* \"#utility.yul\":21673:21693   */\n      sub\n        /* \"#utility.yul\":21669:21670   */\n      0x00\n        /* \"#utility.yul\":21658:21667   */\n      dup4\n        /* \"#utility.yul\":21654:21671   */\n      add\n        /* \"#utility.yul\":21647:21694   */\n      mstore\n        /* \"#utility.yul\":21711:21842   */\n      tag_563\n        /* \"#utility.yul\":21837:21841   */\n      dup2\n        /* \"#utility.yul\":21711:21842   */\n      tag_339\n      jump\t// in\n    tag_563:\n        /* \"#utility.yul\":21703:21842   */\n      swap1\n      pop\n        /* \"#utility.yul\":21430:21849   */\n      swap2\n      swap1\n      pop\n      jump\t// out\n        /* \"#utility.yul\":21855:22049   */\n    tag_137:\n        /* \"#utility.yul\":21895:21899   */\n      0x00\n        /* \"#utility.yul\":21915:21935   */\n      tag_565\n        /* \"#utility.yul\":21933:21934   */\n      dup3\n        /* \"#utility.yul\":21915:21935   */\n      tag_291\n      jump\t// in\n    tag_565:\n        /* \"#utility.yul\":21910:21935   */\n      swap2\n      pop\n        /* \"#utility.yul\":21949:21969   */\n      tag_566\n        /* \"#utility.yul\":21967:21968   */\n      dup4\n        /* \"#utility.yul\":21949:21969   */\n      tag_291\n      jump\t// in\n    tag_566:\n        /* \"#utility.yul\":21944:21969   */\n      swap3\n      pop\n        /* \"#utility.yul\":21993:21994   */\n      dup3\n        /* \"#utility.yul\":21990:21991   */\n      dup3\n        /* \"#utility.yul\":21986:21995   */\n      sub\n        /* \"#utility.yul\":21978:21995   */\n      swap1\n      pop\n        /* \"#utility.yul\":22017:22018   */\n      dup2\n        /* \"#utility.yul\":22011:22015   */\n      dup2\n        /* \"#utility.yul\":22008:22019   */\n      gt\n        /* \"#utility.yul\":22005:22042   */\n      iszero\n      tag_567\n      jumpi\n        /* \"#utility.yul\":22022:22040   */\n      tag_568\n      tag_337\n      jump\t// in\n    tag_568:\n        /* \"#utility.yul\":22005:22042   */\n    tag_567:\n        /* \"#utility.yul\":21855:22049   */\n      swap3\n      swap2\n      pop\n      pop\n      jump\t// out\n        /* \"#utility.yul\":22055:22246   */\n    tag_142:\n        /* \"#utility.yul\":22095:22098   */\n      0x00\n        /* \"#utility.yul\":22114:22134   */\n      tag_570\n        /* \"#utility.yul\":22132:22133   */\n      dup3\n        /* \"#utility.yul\":22114:22134   */\n      tag_291\n      jump\t// in\n    tag_570:\n        /* \"#utility.yul\":22109:22134   */\n      swap2\n      pop\n        /* \"#utility.yul\":22148:22168   */\n      tag_571\n        /* \"#utility.yul\":22166:22167   */\n      dup4\n        /* \"#utility.yul\":22148:22168   */\n      tag_291\n      jump\t// in\n    tag_571:\n        /* \"#utility.yul\":22143:22168   */\n      swap3\n      pop\n        /* \"#utility.yul\":22191:22192   */\n      dup3\n        /* \"#utility.yul\":22188:22189   */\n      dup3\n        /* \"#utility.yul\":22184:22193   */\n      add\n        /* \"#utility.yul\":22177:22193   */\n      swap1\n      pop\n        /* \"#utility.yul\":22212:22215   */\n      dup1\n        /* \"#utility.yul\":22209:22210   */\n      dup3\n        /* \"#utility.yul\":22206:22216   */\n      gt\n        /* \"#utility.yul\":22203:22239   */\n      iszero\n      tag_572\n      jumpi\n        /* \"#utility.yul\":22219:22237   */\n      tag_573\n      tag_337\n      jump\t// in\n    tag_573:\n        /* \"#utility.yul\":22203:22239   */\n    tag_572:\n        /* \"#utility.yul\":22055:22246   */\n      swap3\n      swap2\n      pop\n      pop\n      jump\t// out\n        /* \"#utility.yul\":22252:22485   */\n    tag_144:\n        /* \"#utility.yul\":22291:22294   */\n      0x00\n        /* \"#utility.yul\":22314:22338   */\n      tag_575\n        /* \"#utility.yul\":22332:22337   */\n      dup3\n        /* \"#utility.yul\":22314:22338   */\n      tag_291\n      jump\t// in\n    tag_575:\n        /* \"#utility.yul\":22305:22338   */\n      swap2\n      pop\n        /* \"#utility.yul\":22360:22426   */\n      0xffffffffffffffffffffffffffffffffffffffffffffffffffffffffffffffff\n        /* \"#utility.yul\":22353:22358   */\n      dup3\n        /* \"#utility.yul\":22350:22427   */\n      sub\n        /* \"#utility.yul\":22347:22450   */\n      tag_576\n      jumpi\n        /* \"#utility.yul\":22430:22448   */\n      tag_577\n      tag_337\n      jump\t// in\n    tag_577:\n        /* \"#utility.yul\":22347:22450   */\n    tag_576:\n        /* \"#utility.yul\":22477:22478   */\n      0x01\n        /* \"#utility.yul\":22470:22475   */\n      dup3\n        /* \"#utility.yul\":22466:22479   */\n      add\n        /* \"#utility.yul\":22459:22479   */\n      swap1\n      pop\n        /* \"#utility.yul\":22252:22485   */\n      swap2\n      swap1\n      pop\n      jump\t// out\n        /* \"#utility.yul\":22491:22671   */\n    tag_340:\n        /* \"#utility.yul\":22539:22616   */\n      0x4e487b7100000000000000000000000000000000000000000000000000000000\n        /* \"#utility.yul\":22536:22537   */\n      0x00\n        /* \"#utility.yul\":22529:22617   */\n      mstore\n        /* \"#utility.yul\":22636:22640   */\n      0x12\n        /* \"#utility.yul\":22633:22634   */\n      0x04\n        /* \"#utility.yul\":22626:22641   */\n      mstore\n        /* \"#utility.yul\":22660:22664   */\n      0x24\n        /* \"#utility.yul\":22657:22658   */\n      0x00\n        /* \"#utility.yul\":22650:22665   */\n      revert\n        /* \"#utility.yul\":22677:22862   */\n    tag_155:\n        /* \"#utility.yul\":22717:22718   */\n      0x00\n        /* \"#utility.yul\":22734:22754   */\n      tag_580\n        /* \"#utility.yul\":22752:22753   */\n      dup3\n        /* \"#utility.yul\":22734:22754   */\n      tag_291\n      jump\t// in\n    tag_580:\n        /* \"#utility.yul\":22729:22754   */\n      swap2\n      pop\n        /* \"#utility.yul\":22768:22788   */\n      tag_581\n        /* \"#utility.yul\":22786:22787   */\n      dup4\n        /* \"#utility.yul\":22768:22788   */\n      tag_291\n      jump\t// in\n    tag_581:\n        /* \"#utility.yul\":22763:22788   */\n      swap3\n      pop\n        /* \"#utility.yul\":22807:22808   */\n      dup3\n        /* \"#utility.yul\":22797:22832   */\n      tag_582\n      jumpi\n        /* \"#utility.yul\":22812:22830   */\n      tag_583\n      tag_340\n      jump\t// in\n    tag_583:\n        /* \"#utility.yul\":22797:22832   */\n    tag_582:\n        /* \"#utility.yul\":22854:22855   */\n      dup3\n        /* \"#utility.yul\":22851:22852   */\n      dup3\n        /* \"#utility.yul\":22847:22856   */\n      div\n        /* \"#utility.yul\":22842:22856   */\n      swap1\n      pop\n        /* \"#utility.yul\":22677:22862   */\n      swap3\n      swap2\n      pop\n      pop\n      jump\t// out\n        /* \"#utility.yul\":22868:22947   */\n    tag_341:\n        /* \"#utility.yul\":22907:22914   */\n      0x00\n        /* \"#utility.yul\":22936:22941   */\n      dup2\n        /* \"#utility.yul\":22925:22941   */\n      swap1\n      pop\n        /* \"#utility.yul\":22868:22947   */\n      swap2\n      swap1\n      pop\n      jump\t// out\n        /* \"#utility.yul\":22953:23110   */\n    tag_342:\n        /* \"#utility.yul\":23058:23103   */\n      tag_586\n        /* \"#utility.yul\":23078:23102   */\n      tag_587\n        /* \"#utility.yul\":23096:23101   */\n      dup3\n        /* \"#utility.yul\":23078:23102   */\n      tag_291\n      jump\t// in\n    tag_587:\n        /* \"#utility.yul\":23058:23103   */\n      tag_341\n      jump\t// in\n    tag_586:\n        /* \"#utility.yul\":23053:23056   */\n      dup3\n        /* \"#utility.yul\":23046:23104   */\n      mstore\n        /* \"#utility.yul\":22953:23110   */\n      pop\n      pop\n      jump\t// out\n        /* \"#utility.yul\":23116:23210   */\n    tag_343:\n        /* \"#utility.yul\":23149:23157   */\n      0x00\n        /* \"#utility.yul\":23197:23202   */\n      dup2\n        /* \"#utility.yul\":23193:23195   */\n      0x60\n        /* \"#utility.yul\":23189:23203   */\n      shl\n        /* \"#utility.yul\":23168:23203   */\n      swap1\n      pop\n        /* \"#utility.yul\":23116:23210   */\n      swap2\n      swap1\n      pop\n      jump\t// out\n        /* \"#utility.yul\":23216:23310   */\n    tag_344:\n        /* \"#utility.yul\":23255:23262   */\n      0x00\n        /* \"#utility.yul\":23284:23304   */\n      tag_590\n        /* \"#utility.yul\":23298:23303   */\n      dup3\n        /* \"#utility.yul\":23284:23304   */\n      tag_343\n      jump\t// in\n    tag_590:\n        /* \"#utility.yul\":23273:23304   */\n      swap1\n      pop\n        /* \"#utility.yul\":23216:23310   */\n      swap2\n      swap1\n      pop\n      jump\t// out\n        /* \"#utility.yul\":23316:23416   */\n    tag_345:\n        /* \"#utility.yul\":23355:23362   */\n      0x00\n        /* \"#utility.yul\":23384:23410   */\n      tag_592\n        /* \"#utility.yul\":23404:23409   */\n      dup3\n        /* \"#utility.yul\":23384:23410   */\n      tag_344\n      jump\t// in\n    tag_592:\n        /* \"#utility.yul\":23373:23410   */\n      swap1\n      pop\n        /* \"#utility.yul\":23316:23416   */\n      swap2\n      swap1\n      pop\n      jump\t// out\n        /* \"#utility.yul\":23422:23579   */\n    tag_346:\n        /* \"#utility.yul\":23527:23572   */\n      tag_594\n        /* \"#utility.yul\":23547:23571   */\n      tag_595\n        /* \"#utility.yul\":23565:23570   */\n      dup3\n        /* \"#utility.yul\":23547:23571   */\n      tag_288\n      jump\t// in\n    tag_595:\n        /* \"#utility.yul\":23527:23572   */\n      tag_345\n      jump\t// in\n    tag_594:\n        /* \"#utility.yul\":23522:23525   */\n      dup3\n        /* \"#utility.yul\":23515:23573   */\n      mstore\n        /* \"#utility.yul\":23422:23579   */\n      pop\n      pop\n      jump\t// out\n        /* \"#utility.yul\":23585:24123   */\n    tag_204:\n        /* \"#utility.yul\":23753:23756   */\n      0x00\n        /* \"#utility.yul\":23768:23843   */\n      tag_597\n        /* \"#utility.yul\":23839:23842   */\n      dup3\n        /* \"#utility.yul\":23830:23836   */\n      dup7\n        /* \"#utility.yul\":23768:23843   */\n      tag_342\n      jump\t// in\n    tag_597:\n        /* \"#utility.yul\":23868:23870   */\n      0x20\n        /* \"#utility.yul\":23863:23866   */\n      dup3\n        /* \"#utility.yul\":23859:23871   */\n      add\n        /* \"#utility.yul\":23852:23871   */\n      swap2\n      pop\n        /* \"#utility.yul\":23881:23956   */\n      tag_598\n        /* \"#utility.yul\":23952:23955   */\n      dup3\n        /* \"#utility.yul\":23943:23949   */\n      dup6\n        /* \"#utility.yul\":23881:23956   */\n      tag_346\n      jump\t// in\n    tag_598:\n        /* \"#utility.yul\":23981:23983   */\n      0x14\n        /* \"#utility.yul\":23976:23979   */\n      dup3\n        /* \"#utility.yul\":23972:23984   */\n      add\n        /* \"#utility.yul\":23965:23984   */\n      swap2\n      pop\n        /* \"#utility.yul\":23994:24069   */\n      tag_599\n        /* \"#utility.yul\":24065:24068   */\n      dup3\n        /* \"#utility.yul\":24056:24062   */\n      dup5\n        /* \"#utility.yul\":23994:24069   */\n      tag_342\n      jump\t// in\n    tag_599:\n        /* \"#utility.yul\":24094:24096   */\n      0x20\n        /* \"#utility.yul\":24089:24092   */\n      dup3\n        /* \"#utility.yul\":24085:24097   */\n      add\n        /* \"#utility.yul\":24078:24097   */\n      swap2\n      pop\n        /* \"#utility.yul\":24114:24117   */\n      dup2\n        /* \"#utility.yul\":24107:24117   */\n      swap1\n      pop\n        /* \"#utility.yul\":23585:24123   */\n      swap5\n      swap4\n      pop\n      pop\n      pop\n      pop\n      jump\t// out\n        /* \"#utility.yul\":24129:24305   */\n    tag_206:\n        /* \"#utility.yul\":24161:24162   */\n      0x00\n        /* \"#utility.yul\":24178:24198   */\n      tag_601\n        /* \"#utility.yul\":24196:24197   */\n      dup3\n        /* \"#utility.yul\":24178:24198   */\n      tag_291\n      jump\t// in\n    tag_601:\n        /* \"#utility.yul\":24173:24198   */\n      swap2\n      pop\n        /* \"#utility.yul\":24212:24232   */\n      tag_602\n        /* \"#utility.yul\":24230:24231   */\n      dup4\n        /* \"#utility.yul\":24212:24232   */\n      tag_291\n      jump\t// in\n    tag_602:\n        /* \"#utility.yul\":24207:24232   */\n      swap3\n      pop\n        /* \"#utility.yul\":24251:24252   */\n      dup3\n        /* \"#utility.yul\":24241:24276   */\n      tag_603\n      jumpi\n        /* \"#utility.yul\":24256:24274   */\n      tag_604\n      tag_340\n      jump\t// in\n    tag_604:\n        /* \"#utility.yul\":24241:24276   */\n    tag_603:\n        /* \"#utility.yul\":24297:24298   */\n      dup3\n        /* \"#utility.yul\":24294:24295   */\n      dup3\n        /* \"#utility.yul\":24290:24299   */\n      mod\n        /* \"#utility.yul\":24285:24299   */\n      swap1\n      pop\n        /* \"#utility.yul\":24129:24305   */\n      swap3\n      swap2\n      pop\n      pop\n      jump\t// out\n        /* \"#utility.yul\":24311:24487   */\n    tag_347:\n        /* \"#utility.yul\":24451:24479   */\n      0x4e6f7420656e6f7567682073746f636b20617661696c61626c65000000000000\n        /* \"#utility.yul\":24447:24448   */\n      0x00\n        /* \"#utility.yul\":24439:24445   */\n      dup3\n        /* \"#utility.yul\":24435:24449   */\n      add\n        /* \"#utility.yul\":24428:24480   */\n      mstore\n        /* \"#utility.yul\":24311:24487   */\n      pop\n      jump\t// out\n        /* \"#utility.yul\":24493:24859   */\n    tag_348:\n        /* \"#utility.yul\":24635:24638   */\n      0x00\n        /* \"#utility.yul\":24656:24723   */\n      tag_607\n        /* \"#utility.yul\":24720:24722   */\n      0x1a\n        /* \"#utility.yul\":24715:24718   */\n      dup4\n        /* \"#utility.yul\":24656:24723   */\n      tag_301\n      jump\t// in\n    tag_607:\n        /* \"#utility.yul\":24649:24723   */\n      swap2\n      pop\n        /* \"#utility.yul\":24732:24825   */\n      tag_608\n        /* \"#utility.yul\":24821:24824   */\n      dup3\n        /* \"#utility.yul\":24732:24825   */\n      tag_347\n      jump\t// in\n    tag_608:\n        /* \"#utility.yul\":24850:24852   */\n      0x20\n        /* \"#utility.yul\":24845:24848   */\n      dup3\n        /* \"#utility.yul\":24841:24853   */\n      add\n        /* \"#utility.yul\":24834:24853   */\n      swap1\n      pop\n        /* \"#utility.yul\":24493:24859   */\n      swap2\n      swap1\n      pop\n      jump\t// out\n        /* \"#utility.yul\":24865:25284   */\n    tag_226:\n        /* \"#utility.yul\":25031:25035   */\n      0x00\n        /* \"#utility.yul\":25069:25071   */\n      0x20\n        /* \"#utility.yul\":25058:25067   */\n      dup3\n        /* \"#utility.yul\":25054:25072   */\n      add\n        /* \"#utility.yul\":25046:25072   */\n      swap1\n      pop\n        /* \"#utility.yul\":25118:25127   */\n      dup2\n        /* \"#utility.yul\":25112:25116   */\n      dup2\n        /* \"#utility.yul\":25108:25128   */\n      sub\n        /* \"#utility.yul\":25104:25105   */\n      0x00\n        /* \"#utility.yul\":25093:25102   */\n      dup4\n        /* \"#utility.yul\":25089:25106   */\n      add\n        /* \"#utility.yul\":25082:25129   */\n      mstore\n        /* \"#utility.yul\":25146:25277   */\n      tag_610\n        /* \"#utility.yul\":25272:25276   */\n      dup2\n        /* \"#utility.yul\":25146:25277   */\n      tag_348\n      jump\t// in\n    tag_610:\n        /* \"#utility.yul\":25138:25277   */\n      swap1\n      pop\n        /* \"#utility.yul\":24865:25284   */\n      swap2\n      swap1\n      pop\n      jump\t// out\n\n    auxdata: 0xa26469706673582212200d40e002f70dfd50fad2e6fa78d91e3029e5bbbca659ece3a123b3917d46680364736f6c63430008120033\n}\n",
				"bytecode": {
					"linkReferences": {},
					"object": "608060405234801561001057600080fd5b50612b33806100206000396000f3fe6080604052600436106100a75760003560e01c806366d0dc671161006457806366d0dc67146101ae578063805553e8146101c55780638da5cb5b1461020257806398968f151461022d578063a87430ba14610249578063f67a2ad114610287576100a7565b806303194133146100ac57806305103ede146100d557806333af9f8b146100f157806336da44681461011a5780633d52788314610145578063410085df14610185575b600080fd5b3480156100b857600080fd5b506100d360048036038101906100ce9190611dfc565b6102b0565b005b6100ef60048036038101906100ea9190611e96565b6104e9565b005b3480156100fd57600080fd5b5061011860048036038101906101139190611ee9565b610b5c565b005b34801561012657600080fd5b5061012f610d7f565b60405161013c9190611f80565b60405180910390f35b34801561015157600080fd5b5061016c60048036038101906101679190611f9b565b610da5565b60405161017c949392919061207a565b60405180910390f35b34801561019157600080fd5b506101ac60048036038101906101a79190611f9b565b610e7a565b005b3480156101ba57600080fd5b506101c3611247565b005b3480156101d157600080fd5b506101ec60048036038101906101e791906120c6565b6112ee565b6040516101f991906120f3565b60405180910390f35b34801561020e57600080fd5b50610217611340565b6040516102249190611f80565b60405180910390f35b61024760048036038101906102429190611e96565b611364565b005b34801561025557600080fd5b50610270600480360381019061026b919061210e565b611bd9565b60405161027e9291906121b2565b60405180910390f35b34801561029357600080fd5b506102ae60048036038101906102a9919061210e565b611c0a565b005b6001868160028111156102c6576102c561213b565b5b600260003373ffffffffffffffffffffffffffffffffffffffff1673ffffffffffffffffffffffffffffffffffffffff16815260200190815260200160002060000160009054906101000a900460ff1660028111156103285761032761213b565b5b14610368576040517f08c379a000000000000000000000000000000000000000000000000000000000815260040161035f90612201565b60405180910390fd5b8073ffffffffffffffffffffffffffffffffffffffff163373ffffffffffffffffffffffffffffffffffffffff16146103d6576040517f08c379a00000000000000000000000000000000000000000000000000000000081526004016103cd906122b9565b60405180910390fd5b6000604051806080016040528089815260200188815260200187878080601f016020809104026020016040519081016040528093929190818152602001838380828437600081840152601f19601f820116905080830192505050505050508152602001858152509050600360008a73ffffffffffffffffffffffffffffffffffffffff1673ffffffffffffffffffffffffffffffffffffffff168152602001908152602001600020819080600181540180825580915050600190039060005260206000209060040201600090919091909150600082015181600001556020820151816001015560408201518160020190816104d19190612514565b50606082015181600301555050505050505050505050565b6001838160028111156104ff576104fe61213b565b5b600260003373ffffffffffffffffffffffffffffffffffffffff1673ffffffffffffffffffffffffffffffffffffffff16815260200190815260200160002060000160009054906101000a900460ff1660028111156105615761056061213b565b5b146105a1576040517f08c379a000000000000000000000000000000000000000000000000000000000815260040161059890612201565b60405180910390fd5b8073ffffffffffffffffffffffffffffffffffffffff163373ffffffffffffffffffffffffffffffffffffffff161461060f576040517f08c379a0000000000000000000000000000000000000000000000000000000008152600401610606906122b9565b60405180910390fd5b60008311610652576040517f08c379a000000000000000000000000000000000000000000000000000000000815260040161064990612658565b60405180910390fd5b600360008673ffffffffffffffffffffffffffffffffffffffff1673ffffffffffffffffffffffffffffffffffffffff1681526020019081526020016000208054905084106106d6576040517f08c379a00000000000000000000000000000000000000000000000000000000081526004016106cd906126c4565b60405180910390fd5b6000806000600360008973ffffffffffffffffffffffffffffffffffffffff1673ffffffffffffffffffffffffffffffffffffffff168152602001908152602001600020878154811061072c5761072b6126e4565b5b9060005260206000209060040201600201805461074890612337565b80601f016020809104026020016040519081016040528092919081815260200182805461077490612337565b80156107c15780601f10610796576101008083540402835291602001916107c1565b820191906000526020600020905b8154815290600101906020018083116107a457829003601f168201915b5050505050905060005b60036000600160009054906101000a900473ffffffffffffffffffffffffffffffffffffffff1673ffffffffffffffffffffffffffffffffffffffff1673ffffffffffffffffffffffffffffffffffffffff16815260200190815260200160002080549050811015610af05760036000600160009054906101000a900473ffffffffffffffffffffffffffffffffffffffff1673ffffffffffffffffffffffffffffffffffffffff1673ffffffffffffffffffffffffffffffffffffffff16815260200190815260200160002081815481106108aa576108a96126e4565b5b90600052602060002090600402016002016040516108c891906127b6565b6040518091039020828051906020012003610add5760036000600160009054906101000a900473ffffffffffffffffffffffffffffffffffffffff1673ffffffffffffffffffffffffffffffffffffffff1673ffffffffffffffffffffffffffffffffffffffff16815260200190815260200160002081815481106109505761094f6126e4565b5b9060005260206000209060040201600101549250670de0b6b3a7640000878461097991906127fc565b61098391906127fc565b9350833410156109c8576040517f08c379a00000000000000000000000000000000000000000000000000000000081526004016109bf9061288a565b60405180910390fd5b8660036000600160009054906101000a900473ffffffffffffffffffffffffffffffffffffffff1673ffffffffffffffffffffffffffffffffffffffff1673ffffffffffffffffffffffffffffffffffffffff1681526020019081526020016000208281548110610a3c57610a3b6126e4565b5b90600052602060002090600402016000016000828254610a5c91906128aa565b9250508190555086600360008b73ffffffffffffffffffffffffffffffffffffffff1673ffffffffffffffffffffffffffffffffffffffff1681526020019081526020016000208981548110610ab557610ab46126e4565b5b90600052602060002090600402016000016000828254610ad591906128de565b925050819055505b8080610ae890612912565b9150506107cb565b5082341115610b525760008334610b0791906128aa565b90503373ffffffffffffffffffffffffffffffffffffffff166108fc829081150290604051600060405180830381858888f19350505050158015610b4f573d6000803e3d6000fd5b50505b5050505050505050565b33600160006101000a81548173ffffffffffffffffffffffffffffffffffffffff021916908373ffffffffffffffffffffffffffffffffffffffff1602179055506040518060400160405280600280811115610bbb57610bba61213b565b5b8152602001600081525060026000600160009054906101000a900473ffffffffffffffffffffffffffffffffffffffff1673ffffffffffffffffffffffffffffffffffffffff1673ffffffffffffffffffffffffffffffffffffffff16815260200190815260200160002060008201518160000160006101000a81548160ff02191690836002811115610c5157610c5061213b565b5b02179055506020820151816001015590505060006040518060800160405280878152602001600287610c839190612989565b815260200185858080601f016020809104026020016040519081016040528093929190818152602001838380828437600081840152601f19601f820116905080830192505050505050508152602001838152509050600360003373ffffffffffffffffffffffffffffffffffffffff1673ffffffffffffffffffffffffffffffffffffffff16815260200190815260200160002081908060018154018082558091505060019003906000526020600020906004020160009091909190915060008201518160000155602082015181600101556040820151816002019081610d6a9190612514565b50606082015181600301555050505050505050565b600160009054906101000a900473ffffffffffffffffffffffffffffffffffffffff1681565b60036020528160005260406000208181548110610dc157600080fd5b906000526020600020906004020160009150915050806000015490806001015490806002018054610df190612337565b80601f0160208091040260200160405190810160405280929190818152602001828054610e1d90612337565b8015610e6a5780601f10610e3f57610100808354040283529160200191610e6a565b820191906000526020600020905b815481529060010190602001808311610e4d57829003601f168201915b5050505050908060030154905084565b6000600360003373ffffffffffffffffffffffffffffffffffffffff1673ffffffffffffffffffffffffffffffffffffffff1681526020019081526020016000208281548110610ecd57610ecc6126e4565b5b90600052602060002090600402016003015490506000600360008573ffffffffffffffffffffffffffffffffffffffff1673ffffffffffffffffffffffffffffffffffffffff1681526020019081526020016000208381548110610f3457610f336126e4565b5b9060005260206000209060040201600301549050808211610f5457600080fd5b6000670de0b6b3a7640000600360008773ffffffffffffffffffffffffffffffffffffffff1673ffffffffffffffffffffffffffffffffffffffff1681526020019081526020016000208581548110610fb057610faf6126e4565b5b906000526020600020906004020160010154600360003373ffffffffffffffffffffffffffffffffffffffff1673ffffffffffffffffffffffffffffffffffffffff1681526020019081526020016000208681548110611013576110126126e4565b5b90600052602060002090600402016000015461102f91906127fc565b61103991906127fc565b9050600360003373ffffffffffffffffffffffffffffffffffffffff1673ffffffffffffffffffffffffffffffffffffffff168152602001908152602001600020848154811061108c5761108b6126e4565b5b906000526020600020906004020160000154600360008773ffffffffffffffffffffffffffffffffffffffff1673ffffffffffffffffffffffffffffffffffffffff16815260200190815260200160002085815481106110ef576110ee6126e4565b5b9060005260206000209060040201600001600082825461110f91906128de565b92505081905550600360003373ffffffffffffffffffffffffffffffffffffffff1673ffffffffffffffffffffffffffffffffffffffff1681526020019081526020016000208481548110611167576111666126e4565b5b906000526020600020906004020160008082016000905560018201600090556002820160006111969190611c9c565b6003820160009055505080600260008773ffffffffffffffffffffffffffffffffffffffff1673ffffffffffffffffffffffffffffffffffffffff16815260200190815260200160002060010160008282546111f291906128aa565b925050819055503373ffffffffffffffffffffffffffffffffffffffff166108fc829081150290604051600060405180830381858888f1935050505015801561123f573d6000803e3d6000fd5b505050505050565b6040518060400160405280600160028111156112665761126561213b565b5b81526020016000815250600260003373ffffffffffffffffffffffffffffffffffffffff1673ffffffffffffffffffffffffffffffffffffffff16815260200190815260200160002060008201518160000160006101000a81548160ff021916908360028111156112da576112d961213b565b5b021790555060208201518160010155905050565b60008080806112fc90612912565b9150508242338360405160200161131593929190612a23565b6040516020818303038152906040528051906020012060001c6113389190612a60565b915050919050565b60008054906101000a900473ffffffffffffffffffffffffffffffffffffffff1681565b600060028111156113785761137761213b565b5b600260003373ffffffffffffffffffffffffffffffffffffffff1673ffffffffffffffffffffffffffffffffffffffff16815260200190815260200160002060000160009054906101000a900460ff1660028111156113da576113d961213b565b5b03611485576040518060400160405280600060028111156113fe576113fd61213b565b5b81526020016000815250600260003373ffffffffffffffffffffffffffffffffffffffff1673ffffffffffffffffffffffffffffffffffffffff16815260200190815260200160002060008201518160000160006101000a81548160ff021916908360028111156114725761147161213b565b5b0217905550602082015181600101559050505b600082116114c8576040517f08c379a00000000000000000000000000000000000000000000000000000000081526004016114bf90612658565b60405180910390fd5b600360008473ffffffffffffffffffffffffffffffffffffffff1673ffffffffffffffffffffffffffffffffffffffff16815260200190815260200160002080549050811061154c576040517f08c379a0000000000000000000000000000000000000000000000000000000008152600401611543906126c4565b60405180910390fd5b600360008473ffffffffffffffffffffffffffffffffffffffff1673ffffffffffffffffffffffffffffffffffffffff168152602001908152602001600020818154811061159d5761159c6126e4565b5b9060005260206000209060040201600001548211156115f1576040517f08c379a00000000000000000000000000000000000000000000000000000000081526004016115e890612add565b60405180910390fd5b6000670de0b6b3a7640000600360008673ffffffffffffffffffffffffffffffffffffffff1673ffffffffffffffffffffffffffffffffffffffff168152602001908152602001600020838154811061164d5761164c6126e4565b5b9060005260206000209060040201600101548461166a91906127fc565b61167491906127fc565b9050803410156116b9576040517f08c379a00000000000000000000000000000000000000000000000000000000081526004016116b09061288a565b60405180910390fd5b6000805b600360003373ffffffffffffffffffffffffffffffffffffffff1673ffffffffffffffffffffffffffffffffffffffff1681526020019081526020016000208054905081101561188f57600360008773ffffffffffffffffffffffffffffffffffffffff1673ffffffffffffffffffffffffffffffffffffffff1681526020019081526020016000208481548110611758576117576126e4565b5b906000526020600020906004020160020160405161177691906127b6565b6040518091039020600360003373ffffffffffffffffffffffffffffffffffffffff1673ffffffffffffffffffffffffffffffffffffffff16815260200190815260200160002082815481106117cf576117ce6126e4565b5b90600052602060002090600402016002016040516117ed91906127b6565b60405180910390200361187c5784600360003373ffffffffffffffffffffffffffffffffffffffff1673ffffffffffffffffffffffffffffffffffffffff168152602001908152602001600020828154811061184c5761184b6126e4565b5b9060005260206000209060040201600001600082825461186c91906128de565b925050819055506001915061188f565b808061188790612912565b9150506116bd565b5080611ab15760006040518060800160405280868152602001600360008973ffffffffffffffffffffffffffffffffffffffff1673ffffffffffffffffffffffffffffffffffffffff16815260200190815260200160002086815481106118f9576118f86126e4565b5b9060005260206000209060040201600101548152602001600360008973ffffffffffffffffffffffffffffffffffffffff1673ffffffffffffffffffffffffffffffffffffffff1681526020019081526020016000208681548110611961576119606126e4565b5b9060005260206000209060040201600201805461197d90612337565b80601f01602080910402602001604051908101604052809291908181526020018280546119a990612337565b80156119f65780601f106119cb576101008083540402835291602001916119f6565b820191906000526020600020905b8154815290600101906020018083116119d957829003601f168201915b50505050508152602001611a0b6103e86112ee565b8152509050600360003373ffffffffffffffffffffffffffffffffffffffff1673ffffffffffffffffffffffffffffffffffffffff16815260200190815260200160002081908060018154018082558091505060019003906000526020600020906004020160009091909190915060008201518160000155602082015181600101556040820151816002019081611aa29190612514565b50606082015181600301555050505b83600360008773ffffffffffffffffffffffffffffffffffffffff1673ffffffffffffffffffffffffffffffffffffffff1681526020019081526020016000208481548110611b0357611b026126e4565b5b90600052602060002090600402016000016000828254611b2391906128aa565b9250508190555081341115611b8b5760008234611b4091906128aa565b90503373ffffffffffffffffffffffffffffffffffffffff166108fc829081150290604051600060405180830381858888f19350505050158015611b88573d6000803e3d6000fd5b50505b81600260008773ffffffffffffffffffffffffffffffffffffffff1673ffffffffffffffffffffffffffffffffffffffff168152602001908152602001600020600101819055505050505050565b60026020528060005260406000206000915090508060000160009054906101000a900460ff16908060010154905082565b6000600260008373ffffffffffffffffffffffffffffffffffffffff1673ffffffffffffffffffffffffffffffffffffffff1681526020019081526020016000206001015490508173ffffffffffffffffffffffffffffffffffffffff166108fc829081150290604051600060405180830381858888f19350505050158015611c97573d6000803e3d6000fd5b505050565b508054611ca890612337565b6000825580601f10611cba5750611cd9565b601f016020900490600052602060002090810190611cd89190611cdc565b5b50565b5b80821115611cf5576000816000905550600101611cdd565b5090565b600080fd5b600080fd5b600073ffffffffffffffffffffffffffffffffffffffff82169050919050565b6000611d2e82611d03565b9050919050565b611d3e81611d23565b8114611d4957600080fd5b50565b600081359050611d5b81611d35565b92915050565b6000819050919050565b611d7481611d61565b8114611d7f57600080fd5b50565b600081359050611d9181611d6b565b92915050565b600080fd5b600080fd5b600080fd5b60008083601f840112611dbc57611dbb611d97565b5b8235905067ffffffffffffffff811115611dd957611dd8611d9c565b5b602083019150836001820283011115611df557611df4611da1565b5b9250929050565b60008060008060008060a08789031215611e1957611e18611cf9565b5b6000611e2789828a01611d4c565b9650506020611e3889828a01611d82565b9550506040611e4989828a01611d82565b945050606087013567ffffffffffffffff811115611e6a57611e69611cfe565b5b611e7689828a01611da6565b93509350506080611e8989828a01611d82565b9150509295509295509295565b600080600060608486031215611eaf57611eae611cf9565b5b6000611ebd86828701611d4c565b9350506020611ece86828701611d82565b9250506040611edf86828701611d82565b9150509250925092565b600080600080600060808688031215611f0557611f04611cf9565b5b6000611f1388828901611d82565b9550506020611f2488828901611d82565b945050604086013567ffffffffffffffff811115611f4557611f44611cfe565b5b611f5188828901611da6565b93509350506060611f6488828901611d82565b9150509295509295909350565b611f7a81611d23565b82525050565b6000602082019050611f956000830184611f71565b92915050565b60008060408385031215611fb257611fb1611cf9565b5b6000611fc085828601611d4c565b9250506020611fd185828601611d82565b9150509250929050565b611fe481611d61565b82525050565b600081519050919050565b600082825260208201905092915050565b60005b83811015612024578082015181840152602081019050612009565b60008484015250505050565b6000601f19601f8301169050919050565b600061204c82611fea565b6120568185611ff5565b9350612066818560208601612006565b61206f81612030565b840191505092915050565b600060808201905061208f6000830187611fdb565b61209c6020830186611fdb565b81810360408301526120ae8185612041565b90506120bd6060830184611fdb565b95945050505050565b6000602082840312156120dc576120db611cf9565b5b60006120ea84828501611d82565b91505092915050565b60006020820190506121086000830184611fdb565b92915050565b60006020828403121561212457612123611cf9565b5b600061213284828501611d4c565b91505092915050565b7f4e487b7100000000000000000000000000000000000000000000000000000000600052602160045260246000fd5b6003811061217b5761217a61213b565b5b50565b600081905061218c8261216a565b919050565b600061219c8261217e565b9050919050565b6121ac81612191565b82525050565b60006040820190506121c760008301856121a3565b6121d46020830184611fdb565b9392505050565b50565b60006121eb600083611ff5565b91506121f6826121db565b600082019050919050565b6000602082019050818103600083015261221a816121de565b9050919050565b7fd09cd0b0d0b3d0b0d0b7d0b8d0bd20d0bdd0b520d181d0bed0bed182d0b2d0b560008201527fd182d181d0b2d183d0b5d18220d0bed182d0bfd180d0b0d0b2d0b8d182d0b5d060208201527fbbd18e0000000000000000000000000000000000000000000000000000000000604082015250565b60006122a3604383611ff5565b91506122ae82612221565b606082019050919050565b600060208201905081810360008301526122d281612296565b9050919050565b7f4e487b7100000000000000000000000000000000000000000000000000000000600052604160045260246000fd5b7f4e487b7100000000000000000000000000000000000000000000000000000000600052602260045260246000fd5b6000600282049050600182168061234f57607f821691505b60208210810361236257612361612308565b5b50919050565b60008190508160005260206000209050919050565b60006020601f8301049050919050565b600082821b905092915050565b6000600883026123ca7fffffffffffffffffffffffffffffffffffffffffffffffffffffffffffffffff8261238d565b6123d4868361238d565b95508019841693508086168417925050509392505050565b6000819050919050565b600061241161240c61240784611d61565b6123ec565b611d61565b9050919050565b6000819050919050565b61242b836123f6565b61243f61243782612418565b84845461239a565b825550505050565b600090565b612454612447565b61245f818484612422565b505050565b5b818110156124835761247860008261244c565b600181019050612465565b5050565b601f8211156124c85761249981612368565b6124a28461237d565b810160208510156124b1578190505b6124c56124bd8561237d565b830182612464565b50505b505050565b600082821c905092915050565b60006124eb600019846008026124cd565b1980831691505092915050565b600061250483836124da565b9150826002028217905092915050565b61251d82611fea565b67ffffffffffffffff811115612536576125356122d9565b5b6125408254612337565b61254b828285612487565b600060209050601f83116001811461257e576000841561256c578287015190505b61257685826124f8565b8655506125de565b601f19841661258c86612368565b60005b828110156125b45784890151825560018201915060208501945060208101905061258f565b868310156125d157848901516125cd601f8916826124da565b8355505b6001600288020188555050505b505050505050565b7f507572636861736520616d6f756e74206d75737420626520677265617465722060008201527f7468616e20300000000000000000000000000000000000000000000000000000602082015250565b6000612642602683611ff5565b915061264d826125e6565b604082019050919050565b6000602082019050818103600083015261267181612635565b9050919050565b7f496e76616c69642070726f647563742049440000000000000000000000000000600082015250565b60006126ae601283611ff5565b91506126b982612678565b602082019050919050565b600060208201905081810360008301526126dd816126a1565b9050919050565b7f4e487b7100000000000000000000000000000000000000000000000000000000600052603260045260246000fd5b600081905092915050565b60008190508160005260206000209050919050565b6000815461274081612337565b61274a8186612713565b94506001821660008114612765576001811461277a576127ad565b60ff19831686528115158202860193506127ad565b6127838561271e565b60005b838110156127a557815481890152600182019150602081019050612786565b838801955050505b50505092915050565b60006127c28284612733565b915081905092915050565b7f4e487b7100000000000000000000000000000000000000000000000000000000600052601160045260246000fd5b600061280782611d61565b915061281283611d61565b925082820261282081611d61565b91508282048414831517612837576128366127cd565b5b5092915050565b7f496e73756666696369656e742066756e64732073656e74000000000000000000600082015250565b6000612874601783611ff5565b915061287f8261283e565b602082019050919050565b600060208201905081810360008301526128a381612867565b9050919050565b60006128b582611d61565b91506128c083611d61565b92508282039050818111156128d8576128d76127cd565b5b92915050565b60006128e982611d61565b91506128f483611d61565b925082820190508082111561290c5761290b6127cd565b5b92915050565b600061291d82611d61565b91507fffffffffffffffffffffffffffffffffffffffffffffffffffffffffffffffff820361294f5761294e6127cd565b5b600182019050919050565b7f4e487b7100000000000000000000000000000000000000000000000000000000600052601260045260246000fd5b600061299482611d61565b915061299f83611d61565b9250826129af576129ae61295a565b5b828204905092915050565b6000819050919050565b6129d56129d082611d61565b6129ba565b82525050565b60008160601b9050919050565b60006129f3826129db565b9050919050565b6000612a05826129e8565b9050919050565b612a1d612a1882611d23565b6129fa565b82525050565b6000612a2f82866129c4565b602082019150612a3f8285612a0c565b601482019150612a4f82846129c4565b602082019150819050949350505050565b6000612a6b82611d61565b9150612a7683611d61565b925082612a8657612a8561295a565b5b828206905092915050565b7f4e6f7420656e6f7567682073746f636b20617661696c61626c65000000000000600082015250565b6000612ac7601a83611ff5565b9150612ad282612a91565b602082019050919050565b60006020820190508181036000830152612af681612aba565b905091905056fea26469706673582212200d40e002f70dfd50fad2e6fa78d91e3029e5bbbca659ece3a123b3917d46680364736f6c63430008120033",
					"opcodes": "PUSH1 0x80 PUSH1 0x40 MSTORE CALLVALUE DUP1 ISZERO PUSH2 0x10 JUMPI PUSH1 0x0 DUP1 REVERT JUMPDEST POP PUSH2 0x2B33 DUP1 PUSH2 0x20 PUSH1 0x0 CODECOPY PUSH1 0x0 RETURN INVALID PUSH1 0x80 PUSH1 0x40 MSTORE PUSH1 0x4 CALLDATASIZE LT PUSH2 0xA7 JUMPI PUSH1 0x0 CALLDATALOAD PUSH1 0xE0 SHR DUP1 PUSH4 0x66D0DC67 GT PUSH2 0x64 JUMPI DUP1 PUSH4 0x66D0DC67 EQ PUSH2 0x1AE JUMPI DUP1 PUSH4 0x805553E8 EQ PUSH2 0x1C5 JUMPI DUP1 PUSH4 0x8DA5CB5B EQ PUSH2 0x202 JUMPI DUP1 PUSH4 0x98968F15 EQ PUSH2 0x22D JUMPI DUP1 PUSH4 0xA87430BA EQ PUSH2 0x249 JUMPI DUP1 PUSH4 0xF67A2AD1 EQ PUSH2 0x287 JUMPI PUSH2 0xA7 JUMP JUMPDEST DUP1 PUSH4 0x3194133 EQ PUSH2 0xAC JUMPI DUP1 PUSH4 0x5103EDE EQ PUSH2 0xD5 JUMPI DUP1 PUSH4 0x33AF9F8B EQ PUSH2 0xF1 JUMPI DUP1 PUSH4 0x36DA4468 EQ PUSH2 0x11A JUMPI DUP1 PUSH4 0x3D527883 EQ PUSH2 0x145 JUMPI DUP1 PUSH4 0x410085DF EQ PUSH2 0x185 JUMPI JUMPDEST PUSH1 0x0 DUP1 REVERT JUMPDEST CALLVALUE DUP1 ISZERO PUSH2 0xB8 JUMPI PUSH1 0x0 DUP1 REVERT JUMPDEST POP PUSH2 0xD3 PUSH1 0x4 DUP1 CALLDATASIZE SUB DUP2 ADD SWAP1 PUSH2 0xCE SWAP2 SWAP1 PUSH2 0x1DFC JUMP JUMPDEST PUSH2 0x2B0 JUMP JUMPDEST STOP JUMPDEST PUSH2 0xEF PUSH1 0x4 DUP1 CALLDATASIZE SUB DUP2 ADD SWAP1 PUSH2 0xEA SWAP2 SWAP1 PUSH2 0x1E96 JUMP JUMPDEST PUSH2 0x4E9 JUMP JUMPDEST STOP JUMPDEST CALLVALUE DUP1 ISZERO PUSH2 0xFD JUMPI PUSH1 0x0 DUP1 REVERT JUMPDEST POP PUSH2 0x118 PUSH1 0x4 DUP1 CALLDATASIZE SUB DUP2 ADD SWAP1 PUSH2 0x113 SWAP2 SWAP1 PUSH2 0x1EE9 JUMP JUMPDEST PUSH2 0xB5C JUMP JUMPDEST STOP JUMPDEST CALLVALUE DUP1 ISZERO PUSH2 0x126 JUMPI PUSH1 0x0 DUP1 REVERT JUMPDEST POP PUSH2 0x12F PUSH2 0xD7F JUMP JUMPDEST PUSH1 0x40 MLOAD PUSH2 0x13C SWAP2 SWAP1 PUSH2 0x1F80 JUMP JUMPDEST PUSH1 0x40 MLOAD DUP1 SWAP2 SUB SWAP1 RETURN JUMPDEST CALLVALUE DUP1 ISZERO PUSH2 0x151 JUMPI PUSH1 0x0 DUP1 REVERT JUMPDEST POP PUSH2 0x16C PUSH1 0x4 DUP1 CALLDATASIZE SUB DUP2 ADD SWAP1 PUSH2 0x167 SWAP2 SWAP1 PUSH2 0x1F9B JUMP JUMPDEST PUSH2 0xDA5 JUMP JUMPDEST PUSH1 0x40 MLOAD PUSH2 0x17C SWAP5 SWAP4 SWAP3 SWAP2 SWAP1 PUSH2 0x207A JUMP JUMPDEST PUSH1 0x40 MLOAD DUP1 SWAP2 SUB SWAP1 RETURN JUMPDEST CALLVALUE DUP1 ISZERO PUSH2 0x191 JUMPI PUSH1 0x0 DUP1 REVERT JUMPDEST POP PUSH2 0x1AC PUSH1 0x4 DUP1 CALLDATASIZE SUB DUP2 ADD SWAP1 PUSH2 0x1A7 SWAP2 SWAP1 PUSH2 0x1F9B JUMP JUMPDEST PUSH2 0xE7A JUMP JUMPDEST STOP JUMPDEST CALLVALUE DUP1 ISZERO PUSH2 0x1BA JUMPI PUSH1 0x0 DUP1 REVERT JUMPDEST POP PUSH2 0x1C3 PUSH2 0x1247 JUMP JUMPDEST STOP JUMPDEST CALLVALUE DUP1 ISZERO PUSH2 0x1D1 JUMPI PUSH1 0x0 DUP1 REVERT JUMPDEST POP PUSH2 0x1EC PUSH1 0x4 DUP1 CALLDATASIZE SUB DUP2 ADD SWAP1 PUSH2 0x1E7 SWAP2 SWAP1 PUSH2 0x20C6 JUMP JUMPDEST PUSH2 0x12EE JUMP JUMPDEST PUSH1 0x40 MLOAD PUSH2 0x1F9 SWAP2 SWAP1 PUSH2 0x20F3 JUMP JUMPDEST PUSH1 0x40 MLOAD DUP1 SWAP2 SUB SWAP1 RETURN JUMPDEST CALLVALUE DUP1 ISZERO PUSH2 0x20E JUMPI PUSH1 0x0 DUP1 REVERT JUMPDEST POP PUSH2 0x217 PUSH2 0x1340 JUMP JUMPDEST PUSH1 0x40 MLOAD PUSH2 0x224 SWAP2 SWAP1 PUSH2 0x1F80 JUMP JUMPDEST PUSH1 0x40 MLOAD DUP1 SWAP2 SUB SWAP1 RETURN JUMPDEST PUSH2 0x247 PUSH1 0x4 DUP1 CALLDATASIZE SUB DUP2 ADD SWAP1 PUSH2 0x242 SWAP2 SWAP1 PUSH2 0x1E96 JUMP JUMPDEST PUSH2 0x1364 JUMP JUMPDEST STOP JUMPDEST CALLVALUE DUP1 ISZERO PUSH2 0x255 JUMPI PUSH1 0x0 DUP1 REVERT JUMPDEST POP PUSH2 0x270 PUSH1 0x4 DUP1 CALLDATASIZE SUB DUP2 ADD SWAP1 PUSH2 0x26B SWAP2 SWAP1 PUSH2 0x210E JUMP JUMPDEST PUSH2 0x1BD9 JUMP JUMPDEST PUSH1 0x40 MLOAD PUSH2 0x27E SWAP3 SWAP2 SWAP1 PUSH2 0x21B2 JUMP JUMPDEST PUSH1 0x40 MLOAD DUP1 SWAP2 SUB SWAP1 RETURN JUMPDEST CALLVALUE DUP1 ISZERO PUSH2 0x293 JUMPI PUSH1 0x0 DUP1 REVERT JUMPDEST POP PUSH2 0x2AE PUSH1 0x4 DUP1 CALLDATASIZE SUB DUP2 ADD SWAP1 PUSH2 0x2A9 SWAP2 SWAP1 PUSH2 0x210E JUMP JUMPDEST PUSH2 0x1C0A JUMP JUMPDEST STOP JUMPDEST PUSH1 0x1 DUP7 DUP2 PUSH1 0x2 DUP2 GT ISZERO PUSH2 0x2C6 JUMPI PUSH2 0x2C5 PUSH2 0x213B JUMP JUMPDEST JUMPDEST PUSH1 0x2 PUSH1 0x0 CALLER PUSH20 0xFFFFFFFFFFFFFFFFFFFFFFFFFFFFFFFFFFFFFFFF AND PUSH20 0xFFFFFFFFFFFFFFFFFFFFFFFFFFFFFFFFFFFFFFFF AND DUP2 MSTORE PUSH1 0x20 ADD SWAP1 DUP2 MSTORE PUSH1 0x20 ADD PUSH1 0x0 KECCAK256 PUSH1 0x0 ADD PUSH1 0x0 SWAP1 SLOAD SWAP1 PUSH2 0x100 EXP SWAP1 DIV PUSH1 0xFF AND PUSH1 0x2 DUP2 GT ISZERO PUSH2 0x328 JUMPI PUSH2 0x327 PUSH2 0x213B JUMP JUMPDEST JUMPDEST EQ PUSH2 0x368 JUMPI PUSH1 0x40 MLOAD PUSH32 0x8C379A000000000000000000000000000000000000000000000000000000000 DUP2 MSTORE PUSH1 0x4 ADD PUSH2 0x35F SWAP1 PUSH2 0x2201 JUMP JUMPDEST PUSH1 0x40 MLOAD DUP1 SWAP2 SUB SWAP1 REVERT JUMPDEST DUP1 PUSH20 0xFFFFFFFFFFFFFFFFFFFFFFFFFFFFFFFFFFFFFFFF AND CALLER PUSH20 0xFFFFFFFFFFFFFFFFFFFFFFFFFFFFFFFFFFFFFFFF AND EQ PUSH2 0x3D6 JUMPI PUSH1 0x40 MLOAD PUSH32 0x8C379A000000000000000000000000000000000000000000000000000000000 DUP2 MSTORE PUSH1 0x4 ADD PUSH2 0x3CD SWAP1 PUSH2 0x22B9 JUMP JUMPDEST PUSH1 0x40 MLOAD DUP1 SWAP2 SUB SWAP1 REVERT JUMPDEST PUSH1 0x0 PUSH1 0x40 MLOAD DUP1 PUSH1 0x80 ADD PUSH1 0x40 MSTORE DUP1 DUP10 DUP2 MSTORE PUSH1 0x20 ADD DUP9 DUP2 MSTORE PUSH1 0x20 ADD DUP8 DUP8 DUP1 DUP1 PUSH1 0x1F ADD PUSH1 0x20 DUP1 SWAP2 DIV MUL PUSH1 0x20 ADD PUSH1 0x40 MLOAD SWAP1 DUP2 ADD PUSH1 0x40 MSTORE DUP1 SWAP4 SWAP3 SWAP2 SWAP1 DUP2 DUP2 MSTORE PUSH1 0x20 ADD DUP4 DUP4 DUP1 DUP3 DUP5 CALLDATACOPY PUSH1 0x0 DUP2 DUP5 ADD MSTORE PUSH1 0x1F NOT PUSH1 0x1F DUP3 ADD AND SWAP1 POP DUP1 DUP4 ADD SWAP3 POP POP POP POP POP POP POP DUP2 MSTORE PUSH1 0x20 ADD DUP6 DUP2 MSTORE POP SWAP1 POP PUSH1 0x3 PUSH1 0x0 DUP11 PUSH20 0xFFFFFFFFFFFFFFFFFFFFFFFFFFFFFFFFFFFFFFFF AND PUSH20 0xFFFFFFFFFFFFFFFFFFFFFFFFFFFFFFFFFFFFFFFF AND DUP2 MSTORE PUSH1 0x20 ADD SWAP1 DUP2 MSTORE PUSH1 0x20 ADD PUSH1 0x0 KECCAK256 DUP2 SWAP1 DUP1 PUSH1 0x1 DUP2 SLOAD ADD DUP1 DUP3 SSTORE DUP1 SWAP2 POP POP PUSH1 0x1 SWAP1 SUB SWAP1 PUSH1 0x0 MSTORE PUSH1 0x20 PUSH1 0x0 KECCAK256 SWAP1 PUSH1 0x4 MUL ADD PUSH1 0x0 SWAP1 SWAP2 SWAP1 SWAP2 SWAP1 SWAP2 POP PUSH1 0x0 DUP3 ADD MLOAD DUP2 PUSH1 0x0 ADD SSTORE PUSH1 0x20 DUP3 ADD MLOAD DUP2 PUSH1 0x1 ADD SSTORE PUSH1 0x40 DUP3 ADD MLOAD DUP2 PUSH1 0x2 ADD SWAP1 DUP2 PUSH2 0x4D1 SWAP2 SWAP1 PUSH2 0x2514 JUMP JUMPDEST POP PUSH1 0x60 DUP3 ADD MLOAD DUP2 PUSH1 0x3 ADD SSTORE POP POP POP POP POP POP POP POP POP POP POP JUMP JUMPDEST PUSH1 0x1 DUP4 DUP2 PUSH1 0x2 DUP2 GT ISZERO PUSH2 0x4FF JUMPI PUSH2 0x4FE PUSH2 0x213B JUMP JUMPDEST JUMPDEST PUSH1 0x2 PUSH1 0x0 CALLER PUSH20 0xFFFFFFFFFFFFFFFFFFFFFFFFFFFFFFFFFFFFFFFF AND PUSH20 0xFFFFFFFFFFFFFFFFFFFFFFFFFFFFFFFFFFFFFFFF AND DUP2 MSTORE PUSH1 0x20 ADD SWAP1 DUP2 MSTORE PUSH1 0x20 ADD PUSH1 0x0 KECCAK256 PUSH1 0x0 ADD PUSH1 0x0 SWAP1 SLOAD SWAP1 PUSH2 0x100 EXP SWAP1 DIV PUSH1 0xFF AND PUSH1 0x2 DUP2 GT ISZERO PUSH2 0x561 JUMPI PUSH2 0x560 PUSH2 0x213B JUMP JUMPDEST JUMPDEST EQ PUSH2 0x5A1 JUMPI PUSH1 0x40 MLOAD PUSH32 0x8C379A000000000000000000000000000000000000000000000000000000000 DUP2 MSTORE PUSH1 0x4 ADD PUSH2 0x598 SWAP1 PUSH2 0x2201 JUMP JUMPDEST PUSH1 0x40 MLOAD DUP1 SWAP2 SUB SWAP1 REVERT JUMPDEST DUP1 PUSH20 0xFFFFFFFFFFFFFFFFFFFFFFFFFFFFFFFFFFFFFFFF AND CALLER PUSH20 0xFFFFFFFFFFFFFFFFFFFFFFFFFFFFFFFFFFFFFFFF AND EQ PUSH2 0x60F JUMPI PUSH1 0x40 MLOAD PUSH32 0x8C379A000000000000000000000000000000000000000000000000000000000 DUP2 MSTORE PUSH1 0x4 ADD PUSH2 0x606 SWAP1 PUSH2 0x22B9 JUMP JUMPDEST PUSH1 0x40 MLOAD DUP1 SWAP2 SUB SWAP1 REVERT JUMPDEST PUSH1 0x0 DUP4 GT PUSH2 0x652 JUMPI PUSH1 0x40 MLOAD PUSH32 0x8C379A000000000000000000000000000000000000000000000000000000000 DUP2 MSTORE PUSH1 0x4 ADD PUSH2 0x649 SWAP1 PUSH2 0x2658 JUMP JUMPDEST PUSH1 0x40 MLOAD DUP1 SWAP2 SUB SWAP1 REVERT JUMPDEST PUSH1 0x3 PUSH1 0x0 DUP7 PUSH20 0xFFFFFFFFFFFFFFFFFFFFFFFFFFFFFFFFFFFFFFFF AND PUSH20 0xFFFFFFFFFFFFFFFFFFFFFFFFFFFFFFFFFFFFFFFF AND DUP2 MSTORE PUSH1 0x20 ADD SWAP1 DUP2 MSTORE PUSH1 0x20 ADD PUSH1 0x0 KECCAK256 DUP1 SLOAD SWAP1 POP DUP5 LT PUSH2 0x6D6 JUMPI PUSH1 0x40 MLOAD PUSH32 0x8C379A000000000000000000000000000000000000000000000000000000000 DUP2 MSTORE PUSH1 0x4 ADD PUSH2 0x6CD SWAP1 PUSH2 0x26C4 JUMP JUMPDEST PUSH1 0x40 MLOAD DUP1 SWAP2 SUB SWAP1 REVERT JUMPDEST PUSH1 0x0 DUP1 PUSH1 0x0 PUSH1 0x3 PUSH1 0x0 DUP10 PUSH20 0xFFFFFFFFFFFFFFFFFFFFFFFFFFFFFFFFFFFFFFFF AND PUSH20 0xFFFFFFFFFFFFFFFFFFFFFFFFFFFFFFFFFFFFFFFF AND DUP2 MSTORE PUSH1 0x20 ADD SWAP1 DUP2 MSTORE PUSH1 0x20 ADD PUSH1 0x0 KECCAK256 DUP8 DUP2 SLOAD DUP2 LT PUSH2 0x72C JUMPI PUSH2 0x72B PUSH2 0x26E4 JUMP JUMPDEST JUMPDEST SWAP1 PUSH1 0x0 MSTORE PUSH1 0x20 PUSH1 0x0 KECCAK256 SWAP1 PUSH1 0x4 MUL ADD PUSH1 0x2 ADD DUP1 SLOAD PUSH2 0x748 SWAP1 PUSH2 0x2337 JUMP JUMPDEST DUP1 PUSH1 0x1F ADD PUSH1 0x20 DUP1 SWAP2 DIV MUL PUSH1 0x20 ADD PUSH1 0x40 MLOAD SWAP1 DUP2 ADD PUSH1 0x40 MSTORE DUP1 SWAP3 SWAP2 SWAP1 DUP2 DUP2 MSTORE PUSH1 0x20 ADD DUP3 DUP1 SLOAD PUSH2 0x774 SWAP1 PUSH2 0x2337 JUMP JUMPDEST DUP1 ISZERO PUSH2 0x7C1 JUMPI DUP1 PUSH1 0x1F LT PUSH2 0x796 JUMPI PUSH2 0x100 DUP1 DUP4 SLOAD DIV MUL DUP4 MSTORE SWAP2 PUSH1 0x20 ADD SWAP2 PUSH2 0x7C1 JUMP JUMPDEST DUP3 ADD SWAP2 SWAP1 PUSH1 0x0 MSTORE PUSH1 0x20 PUSH1 0x0 KECCAK256 SWAP1 JUMPDEST DUP2 SLOAD DUP2 MSTORE SWAP1 PUSH1 0x1 ADD SWAP1 PUSH1 0x20 ADD DUP1 DUP4 GT PUSH2 0x7A4 JUMPI DUP3 SWAP1 SUB PUSH1 0x1F AND DUP3 ADD SWAP2 JUMPDEST POP POP POP POP POP SWAP1 POP PUSH1 0x0 JUMPDEST PUSH1 0x3 PUSH1 0x0 PUSH1 0x1 PUSH1 0x0 SWAP1 SLOAD SWAP1 PUSH2 0x100 EXP SWAP1 DIV PUSH20 0xFFFFFFFFFFFFFFFFFFFFFFFFFFFFFFFFFFFFFFFF AND PUSH20 0xFFFFFFFFFFFFFFFFFFFFFFFFFFFFFFFFFFFFFFFF AND PUSH20 0xFFFFFFFFFFFFFFFFFFFFFFFFFFFFFFFFFFFFFFFF AND DUP2 MSTORE PUSH1 0x20 ADD SWAP1 DUP2 MSTORE PUSH1 0x20 ADD PUSH1 0x0 KECCAK256 DUP1 SLOAD SWAP1 POP DUP2 LT ISZERO PUSH2 0xAF0 JUMPI PUSH1 0x3 PUSH1 0x0 PUSH1 0x1 PUSH1 0x0 SWAP1 SLOAD SWAP1 PUSH2 0x100 EXP SWAP1 DIV PUSH20 0xFFFFFFFFFFFFFFFFFFFFFFFFFFFFFFFFFFFFFFFF AND PUSH20 0xFFFFFFFFFFFFFFFFFFFFFFFFFFFFFFFFFFFFFFFF AND PUSH20 0xFFFFFFFFFFFFFFFFFFFFFFFFFFFFFFFFFFFFFFFF AND DUP2 MSTORE PUSH1 0x20 ADD SWAP1 DUP2 MSTORE PUSH1 0x20 ADD PUSH1 0x0 KECCAK256 DUP2 DUP2 SLOAD DUP2 LT PUSH2 0x8AA JUMPI PUSH2 0x8A9 PUSH2 0x26E4 JUMP JUMPDEST JUMPDEST SWAP1 PUSH1 0x0 MSTORE PUSH1 0x20 PUSH1 0x0 KECCAK256 SWAP1 PUSH1 0x4 MUL ADD PUSH1 0x2 ADD PUSH1 0x40 MLOAD PUSH2 0x8C8 SWAP2 SWAP1 PUSH2 0x27B6 JUMP JUMPDEST PUSH1 0x40 MLOAD DUP1 SWAP2 SUB SWAP1 KECCAK256 DUP3 DUP1 MLOAD SWAP1 PUSH1 0x20 ADD KECCAK256 SUB PUSH2 0xADD JUMPI PUSH1 0x3 PUSH1 0x0 PUSH1 0x1 PUSH1 0x0 SWAP1 SLOAD SWAP1 PUSH2 0x100 EXP SWAP1 DIV PUSH20 0xFFFFFFFFFFFFFFFFFFFFFFFFFFFFFFFFFFFFFFFF AND PUSH20 0xFFFFFFFFFFFFFFFFFFFFFFFFFFFFFFFFFFFFFFFF AND PUSH20 0xFFFFFFFFFFFFFFFFFFFFFFFFFFFFFFFFFFFFFFFF AND DUP2 MSTORE PUSH1 0x20 ADD SWAP1 DUP2 MSTORE PUSH1 0x20 ADD PUSH1 0x0 KECCAK256 DUP2 DUP2 SLOAD DUP2 LT PUSH2 0x950 JUMPI PUSH2 0x94F PUSH2 0x26E4 JUMP JUMPDEST JUMPDEST SWAP1 PUSH1 0x0 MSTORE PUSH1 0x20 PUSH1 0x0 KECCAK256 SWAP1 PUSH1 0x4 MUL ADD PUSH1 0x1 ADD SLOAD SWAP3 POP PUSH8 0xDE0B6B3A7640000 DUP8 DUP5 PUSH2 0x979 SWAP2 SWAP1 PUSH2 0x27FC JUMP JUMPDEST PUSH2 0x983 SWAP2 SWAP1 PUSH2 0x27FC JUMP JUMPDEST SWAP4 POP DUP4 CALLVALUE LT ISZERO PUSH2 0x9C8 JUMPI PUSH1 0x40 MLOAD PUSH32 0x8C379A000000000000000000000000000000000000000000000000000000000 DUP2 MSTORE PUSH1 0x4 ADD PUSH2 0x9BF SWAP1 PUSH2 0x288A JUMP JUMPDEST PUSH1 0x40 MLOAD DUP1 SWAP2 SUB SWAP1 REVERT JUMPDEST DUP7 PUSH1 0x3 PUSH1 0x0 PUSH1 0x1 PUSH1 0x0 SWAP1 SLOAD SWAP1 PUSH2 0x100 EXP SWAP1 DIV PUSH20 0xFFFFFFFFFFFFFFFFFFFFFFFFFFFFFFFFFFFFFFFF AND PUSH20 0xFFFFFFFFFFFFFFFFFFFFFFFFFFFFFFFFFFFFFFFF AND PUSH20 0xFFFFFFFFFFFFFFFFFFFFFFFFFFFFFFFFFFFFFFFF AND DUP2 MSTORE PUSH1 0x20 ADD SWAP1 DUP2 MSTORE PUSH1 0x20 ADD PUSH1 0x0 KECCAK256 DUP3 DUP2 SLOAD DUP2 LT PUSH2 0xA3C JUMPI PUSH2 0xA3B PUSH2 0x26E4 JUMP JUMPDEST JUMPDEST SWAP1 PUSH1 0x0 MSTORE PUSH1 0x20 PUSH1 0x0 KECCAK256 SWAP1 PUSH1 0x4 MUL ADD PUSH1 0x0 ADD PUSH1 0x0 DUP3 DUP3 SLOAD PUSH2 0xA5C SWAP2 SWAP1 PUSH2 0x28AA JUMP JUMPDEST SWAP3 POP POP DUP2 SWAP1 SSTORE POP DUP7 PUSH1 0x3 PUSH1 0x0 DUP12 PUSH20 0xFFFFFFFFFFFFFFFFFFFFFFFFFFFFFFFFFFFFFFFF AND PUSH20 0xFFFFFFFFFFFFFFFFFFFFFFFFFFFFFFFFFFFFFFFF AND DUP2 MSTORE PUSH1 0x20 ADD SWAP1 DUP2 MSTORE PUSH1 0x20 ADD PUSH1 0x0 KECCAK256 DUP10 DUP2 SLOAD DUP2 LT PUSH2 0xAB5 JUMPI PUSH2 0xAB4 PUSH2 0x26E4 JUMP JUMPDEST JUMPDEST SWAP1 PUSH1 0x0 MSTORE PUSH1 0x20 PUSH1 0x0 KECCAK256 SWAP1 PUSH1 0x4 MUL ADD PUSH1 0x0 ADD PUSH1 0x0 DUP3 DUP3 SLOAD PUSH2 0xAD5 SWAP2 SWAP1 PUSH2 0x28DE JUMP JUMPDEST SWAP3 POP POP DUP2 SWAP1 SSTORE POP JUMPDEST DUP1 DUP1 PUSH2 0xAE8 SWAP1 PUSH2 0x2912 JUMP JUMPDEST SWAP2 POP POP PUSH2 0x7CB JUMP JUMPDEST POP DUP3 CALLVALUE GT ISZERO PUSH2 0xB52 JUMPI PUSH1 0x0 DUP4 CALLVALUE PUSH2 0xB07 SWAP2 SWAP1 PUSH2 0x28AA JUMP JUMPDEST SWAP1 POP CALLER PUSH20 0xFFFFFFFFFFFFFFFFFFFFFFFFFFFFFFFFFFFFFFFF AND PUSH2 0x8FC DUP3 SWAP1 DUP2 ISZERO MUL SWAP1 PUSH1 0x40 MLOAD PUSH1 0x0 PUSH1 0x40 MLOAD DUP1 DUP4 SUB DUP2 DUP6 DUP9 DUP9 CALL SWAP4 POP POP POP POP ISZERO DUP1 ISZERO PUSH2 0xB4F JUMPI RETURNDATASIZE PUSH1 0x0 DUP1 RETURNDATACOPY RETURNDATASIZE PUSH1 0x0 REVERT JUMPDEST POP POP JUMPDEST POP POP POP POP POP POP POP POP JUMP JUMPDEST CALLER PUSH1 0x1 PUSH1 0x0 PUSH2 0x100 EXP DUP2 SLOAD DUP2 PUSH20 0xFFFFFFFFFFFFFFFFFFFFFFFFFFFFFFFFFFFFFFFF MUL NOT AND SWAP1 DUP4 PUSH20 0xFFFFFFFFFFFFFFFFFFFFFFFFFFFFFFFFFFFFFFFF AND MUL OR SWAP1 SSTORE POP PUSH1 0x40 MLOAD DUP1 PUSH1 0x40 ADD PUSH1 0x40 MSTORE DUP1 PUSH1 0x2 DUP1 DUP2 GT ISZERO PUSH2 0xBBB JUMPI PUSH2 0xBBA PUSH2 0x213B JUMP JUMPDEST JUMPDEST DUP2 MSTORE PUSH1 0x20 ADD PUSH1 0x0 DUP2 MSTORE POP PUSH1 0x2 PUSH1 0x0 PUSH1 0x1 PUSH1 0x0 SWAP1 SLOAD SWAP1 PUSH2 0x100 EXP SWAP1 DIV PUSH20 0xFFFFFFFFFFFFFFFFFFFFFFFFFFFFFFFFFFFFFFFF AND PUSH20 0xFFFFFFFFFFFFFFFFFFFFFFFFFFFFFFFFFFFFFFFF AND PUSH20 0xFFFFFFFFFFFFFFFFFFFFFFFFFFFFFFFFFFFFFFFF AND DUP2 MSTORE PUSH1 0x20 ADD SWAP1 DUP2 MSTORE PUSH1 0x20 ADD PUSH1 0x0 KECCAK256 PUSH1 0x0 DUP3 ADD MLOAD DUP2 PUSH1 0x0 ADD PUSH1 0x0 PUSH2 0x100 EXP DUP2 SLOAD DUP2 PUSH1 0xFF MUL NOT AND SWAP1 DUP4 PUSH1 0x2 DUP2 GT ISZERO PUSH2 0xC51 JUMPI PUSH2 0xC50 PUSH2 0x213B JUMP JUMPDEST JUMPDEST MUL OR SWAP1 SSTORE POP PUSH1 0x20 DUP3 ADD MLOAD DUP2 PUSH1 0x1 ADD SSTORE SWAP1 POP POP PUSH1 0x0 PUSH1 0x40 MLOAD DUP1 PUSH1 0x80 ADD PUSH1 0x40 MSTORE DUP1 DUP8 DUP2 MSTORE PUSH1 0x20 ADD PUSH1 0x2 DUP8 PUSH2 0xC83 SWAP2 SWAP1 PUSH2 0x2989 JUMP JUMPDEST DUP2 MSTORE PUSH1 0x20 ADD DUP6 DUP6 DUP1 DUP1 PUSH1 0x1F ADD PUSH1 0x20 DUP1 SWAP2 DIV MUL PUSH1 0x20 ADD PUSH1 0x40 MLOAD SWAP1 DUP2 ADD PUSH1 0x40 MSTORE DUP1 SWAP4 SWAP3 SWAP2 SWAP1 DUP2 DUP2 MSTORE PUSH1 0x20 ADD DUP4 DUP4 DUP1 DUP3 DUP5 CALLDATACOPY PUSH1 0x0 DUP2 DUP5 ADD MSTORE PUSH1 0x1F NOT PUSH1 0x1F DUP3 ADD AND SWAP1 POP DUP1 DUP4 ADD SWAP3 POP POP POP POP POP POP POP DUP2 MSTORE PUSH1 0x20 ADD DUP4 DUP2 MSTORE POP SWAP1 POP PUSH1 0x3 PUSH1 0x0 CALLER PUSH20 0xFFFFFFFFFFFFFFFFFFFFFFFFFFFFFFFFFFFFFFFF AND PUSH20 0xFFFFFFFFFFFFFFFFFFFFFFFFFFFFFFFFFFFFFFFF AND DUP2 MSTORE PUSH1 0x20 ADD SWAP1 DUP2 MSTORE PUSH1 0x20 ADD PUSH1 0x0 KECCAK256 DUP2 SWAP1 DUP1 PUSH1 0x1 DUP2 SLOAD ADD DUP1 DUP3 SSTORE DUP1 SWAP2 POP POP PUSH1 0x1 SWAP1 SUB SWAP1 PUSH1 0x0 MSTORE PUSH1 0x20 PUSH1 0x0 KECCAK256 SWAP1 PUSH1 0x4 MUL ADD PUSH1 0x0 SWAP1 SWAP2 SWAP1 SWAP2 SWAP1 SWAP2 POP PUSH1 0x0 DUP3 ADD MLOAD DUP2 PUSH1 0x0 ADD SSTORE PUSH1 0x20 DUP3 ADD MLOAD DUP2 PUSH1 0x1 ADD SSTORE PUSH1 0x40 DUP3 ADD MLOAD DUP2 PUSH1 0x2 ADD SWAP1 DUP2 PUSH2 0xD6A SWAP2 SWAP1 PUSH2 0x2514 JUMP JUMPDEST POP PUSH1 0x60 DUP3 ADD MLOAD DUP2 PUSH1 0x3 ADD SSTORE POP POP POP POP POP POP POP POP JUMP JUMPDEST PUSH1 0x1 PUSH1 0x0 SWAP1 SLOAD SWAP1 PUSH2 0x100 EXP SWAP1 DIV PUSH20 0xFFFFFFFFFFFFFFFFFFFFFFFFFFFFFFFFFFFFFFFF AND DUP2 JUMP JUMPDEST PUSH1 0x3 PUSH1 0x20 MSTORE DUP2 PUSH1 0x0 MSTORE PUSH1 0x40 PUSH1 0x0 KECCAK256 DUP2 DUP2 SLOAD DUP2 LT PUSH2 0xDC1 JUMPI PUSH1 0x0 DUP1 REVERT JUMPDEST SWAP1 PUSH1 0x0 MSTORE PUSH1 0x20 PUSH1 0x0 KECCAK256 SWAP1 PUSH1 0x4 MUL ADD PUSH1 0x0 SWAP2 POP SWAP2 POP POP DUP1 PUSH1 0x0 ADD SLOAD SWAP1 DUP1 PUSH1 0x1 ADD SLOAD SWAP1 DUP1 PUSH1 0x2 ADD DUP1 SLOAD PUSH2 0xDF1 SWAP1 PUSH2 0x2337 JUMP JUMPDEST DUP1 PUSH1 0x1F ADD PUSH1 0x20 DUP1 SWAP2 DIV MUL PUSH1 0x20 ADD PUSH1 0x40 MLOAD SWAP1 DUP2 ADD PUSH1 0x40 MSTORE DUP1 SWAP3 SWAP2 SWAP1 DUP2 DUP2 MSTORE PUSH1 0x20 ADD DUP3 DUP1 SLOAD PUSH2 0xE1D SWAP1 PUSH2 0x2337 JUMP JUMPDEST DUP1 ISZERO PUSH2 0xE6A JUMPI DUP1 PUSH1 0x1F LT PUSH2 0xE3F JUMPI PUSH2 0x100 DUP1 DUP4 SLOAD DIV MUL DUP4 MSTORE SWAP2 PUSH1 0x20 ADD SWAP2 PUSH2 0xE6A JUMP JUMPDEST DUP3 ADD SWAP2 SWAP1 PUSH1 0x0 MSTORE PUSH1 0x20 PUSH1 0x0 KECCAK256 SWAP1 JUMPDEST DUP2 SLOAD DUP2 MSTORE SWAP1 PUSH1 0x1 ADD SWAP1 PUSH1 0x20 ADD DUP1 DUP4 GT PUSH2 0xE4D JUMPI DUP3 SWAP1 SUB PUSH1 0x1F AND DUP3 ADD SWAP2 JUMPDEST POP POP POP POP POP SWAP1 DUP1 PUSH1 0x3 ADD SLOAD SWAP1 POP DUP5 JUMP JUMPDEST PUSH1 0x0 PUSH1 0x3 PUSH1 0x0 CALLER PUSH20 0xFFFFFFFFFFFFFFFFFFFFFFFFFFFFFFFFFFFFFFFF AND PUSH20 0xFFFFFFFFFFFFFFFFFFFFFFFFFFFFFFFFFFFFFFFF AND DUP2 MSTORE PUSH1 0x20 ADD SWAP1 DUP2 MSTORE PUSH1 0x20 ADD PUSH1 0x0 KECCAK256 DUP3 DUP2 SLOAD DUP2 LT PUSH2 0xECD JUMPI PUSH2 0xECC PUSH2 0x26E4 JUMP JUMPDEST JUMPDEST SWAP1 PUSH1 0x0 MSTORE PUSH1 0x20 PUSH1 0x0 KECCAK256 SWAP1 PUSH1 0x4 MUL ADD PUSH1 0x3 ADD SLOAD SWAP1 POP PUSH1 0x0 PUSH1 0x3 PUSH1 0x0 DUP6 PUSH20 0xFFFFFFFFFFFFFFFFFFFFFFFFFFFFFFFFFFFFFFFF AND PUSH20 0xFFFFFFFFFFFFFFFFFFFFFFFFFFFFFFFFFFFFFFFF AND DUP2 MSTORE PUSH1 0x20 ADD SWAP1 DUP2 MSTORE PUSH1 0x20 ADD PUSH1 0x0 KECCAK256 DUP4 DUP2 SLOAD DUP2 LT PUSH2 0xF34 JUMPI PUSH2 0xF33 PUSH2 0x26E4 JUMP JUMPDEST JUMPDEST SWAP1 PUSH1 0x0 MSTORE PUSH1 0x20 PUSH1 0x0 KECCAK256 SWAP1 PUSH1 0x4 MUL ADD PUSH1 0x3 ADD SLOAD SWAP1 POP DUP1 DUP3 GT PUSH2 0xF54 JUMPI PUSH1 0x0 DUP1 REVERT JUMPDEST PUSH1 0x0 PUSH8 0xDE0B6B3A7640000 PUSH1 0x3 PUSH1 0x0 DUP8 PUSH20 0xFFFFFFFFFFFFFFFFFFFFFFFFFFFFFFFFFFFFFFFF AND PUSH20 0xFFFFFFFFFFFFFFFFFFFFFFFFFFFFFFFFFFFFFFFF AND DUP2 MSTORE PUSH1 0x20 ADD SWAP1 DUP2 MSTORE PUSH1 0x20 ADD PUSH1 0x0 KECCAK256 DUP6 DUP2 SLOAD DUP2 LT PUSH2 0xFB0 JUMPI PUSH2 0xFAF PUSH2 0x26E4 JUMP JUMPDEST JUMPDEST SWAP1 PUSH1 0x0 MSTORE PUSH1 0x20 PUSH1 0x0 KECCAK256 SWAP1 PUSH1 0x4 MUL ADD PUSH1 0x1 ADD SLOAD PUSH1 0x3 PUSH1 0x0 CALLER PUSH20 0xFFFFFFFFFFFFFFFFFFFFFFFFFFFFFFFFFFFFFFFF AND PUSH20 0xFFFFFFFFFFFFFFFFFFFFFFFFFFFFFFFFFFFFFFFF AND DUP2 MSTORE PUSH1 0x20 ADD SWAP1 DUP2 MSTORE PUSH1 0x20 ADD PUSH1 0x0 KECCAK256 DUP7 DUP2 SLOAD DUP2 LT PUSH2 0x1013 JUMPI PUSH2 0x1012 PUSH2 0x26E4 JUMP JUMPDEST JUMPDEST SWAP1 PUSH1 0x0 MSTORE PUSH1 0x20 PUSH1 0x0 KECCAK256 SWAP1 PUSH1 0x4 MUL ADD PUSH1 0x0 ADD SLOAD PUSH2 0x102F SWAP2 SWAP1 PUSH2 0x27FC JUMP JUMPDEST PUSH2 0x1039 SWAP2 SWAP1 PUSH2 0x27FC JUMP JUMPDEST SWAP1 POP PUSH1 0x3 PUSH1 0x0 CALLER PUSH20 0xFFFFFFFFFFFFFFFFFFFFFFFFFFFFFFFFFFFFFFFF AND PUSH20 0xFFFFFFFFFFFFFFFFFFFFFFFFFFFFFFFFFFFFFFFF AND DUP2 MSTORE PUSH1 0x20 ADD SWAP1 DUP2 MSTORE PUSH1 0x20 ADD PUSH1 0x0 KECCAK256 DUP5 DUP2 SLOAD DUP2 LT PUSH2 0x108C JUMPI PUSH2 0x108B PUSH2 0x26E4 JUMP JUMPDEST JUMPDEST SWAP1 PUSH1 0x0 MSTORE PUSH1 0x20 PUSH1 0x0 KECCAK256 SWAP1 PUSH1 0x4 MUL ADD PUSH1 0x0 ADD SLOAD PUSH1 0x3 PUSH1 0x0 DUP8 PUSH20 0xFFFFFFFFFFFFFFFFFFFFFFFFFFFFFFFFFFFFFFFF AND PUSH20 0xFFFFFFFFFFFFFFFFFFFFFFFFFFFFFFFFFFFFFFFF AND DUP2 MSTORE PUSH1 0x20 ADD SWAP1 DUP2 MSTORE PUSH1 0x20 ADD PUSH1 0x0 KECCAK256 DUP6 DUP2 SLOAD DUP2 LT PUSH2 0x10EF JUMPI PUSH2 0x10EE PUSH2 0x26E4 JUMP JUMPDEST JUMPDEST SWAP1 PUSH1 0x0 MSTORE PUSH1 0x20 PUSH1 0x0 KECCAK256 SWAP1 PUSH1 0x4 MUL ADD PUSH1 0x0 ADD PUSH1 0x0 DUP3 DUP3 SLOAD PUSH2 0x110F SWAP2 SWAP1 PUSH2 0x28DE JUMP JUMPDEST SWAP3 POP POP DUP2 SWAP1 SSTORE POP PUSH1 0x3 PUSH1 0x0 CALLER PUSH20 0xFFFFFFFFFFFFFFFFFFFFFFFFFFFFFFFFFFFFFFFF AND PUSH20 0xFFFFFFFFFFFFFFFFFFFFFFFFFFFFFFFFFFFFFFFF AND DUP2 MSTORE PUSH1 0x20 ADD SWAP1 DUP2 MSTORE PUSH1 0x20 ADD PUSH1 0x0 KECCAK256 DUP5 DUP2 SLOAD DUP2 LT PUSH2 0x1167 JUMPI PUSH2 0x1166 PUSH2 0x26E4 JUMP JUMPDEST JUMPDEST SWAP1 PUSH1 0x0 MSTORE PUSH1 0x20 PUSH1 0x0 KECCAK256 SWAP1 PUSH1 0x4 MUL ADD PUSH1 0x0 DUP1 DUP3 ADD PUSH1 0x0 SWAP1 SSTORE PUSH1 0x1 DUP3 ADD PUSH1 0x0 SWAP1 SSTORE PUSH1 0x2 DUP3 ADD PUSH1 0x0 PUSH2 0x1196 SWAP2 SWAP1 PUSH2 0x1C9C JUMP JUMPDEST PUSH1 0x3 DUP3 ADD PUSH1 0x0 SWAP1 SSTORE POP POP DUP1 PUSH1 0x2 PUSH1 0x0 DUP8 PUSH20 0xFFFFFFFFFFFFFFFFFFFFFFFFFFFFFFFFFFFFFFFF AND PUSH20 0xFFFFFFFFFFFFFFFFFFFFFFFFFFFFFFFFFFFFFFFF AND DUP2 MSTORE PUSH1 0x20 ADD SWAP1 DUP2 MSTORE PUSH1 0x20 ADD PUSH1 0x0 KECCAK256 PUSH1 0x1 ADD PUSH1 0x0 DUP3 DUP3 SLOAD PUSH2 0x11F2 SWAP2 SWAP1 PUSH2 0x28AA JUMP JUMPDEST SWAP3 POP POP DUP2 SWAP1 SSTORE POP CALLER PUSH20 0xFFFFFFFFFFFFFFFFFFFFFFFFFFFFFFFFFFFFFFFF AND PUSH2 0x8FC DUP3 SWAP1 DUP2 ISZERO MUL SWAP1 PUSH1 0x40 MLOAD PUSH1 0x0 PUSH1 0x40 MLOAD DUP1 DUP4 SUB DUP2 DUP6 DUP9 DUP9 CALL SWAP4 POP POP POP POP ISZERO DUP1 ISZERO PUSH2 0x123F JUMPI RETURNDATASIZE PUSH1 0x0 DUP1 RETURNDATACOPY RETURNDATASIZE PUSH1 0x0 REVERT JUMPDEST POP POP POP POP POP POP JUMP JUMPDEST PUSH1 0x40 MLOAD DUP1 PUSH1 0x40 ADD PUSH1 0x40 MSTORE DUP1 PUSH1 0x1 PUSH1 0x2 DUP2 GT ISZERO PUSH2 0x1266 JUMPI PUSH2 0x1265 PUSH2 0x213B JUMP JUMPDEST JUMPDEST DUP2 MSTORE PUSH1 0x20 ADD PUSH1 0x0 DUP2 MSTORE POP PUSH1 0x2 PUSH1 0x0 CALLER PUSH20 0xFFFFFFFFFFFFFFFFFFFFFFFFFFFFFFFFFFFFFFFF AND PUSH20 0xFFFFFFFFFFFFFFFFFFFFFFFFFFFFFFFFFFFFFFFF AND DUP2 MSTORE PUSH1 0x20 ADD SWAP1 DUP2 MSTORE PUSH1 0x20 ADD PUSH1 0x0 KECCAK256 PUSH1 0x0 DUP3 ADD MLOAD DUP2 PUSH1 0x0 ADD PUSH1 0x0 PUSH2 0x100 EXP DUP2 SLOAD DUP2 PUSH1 0xFF MUL NOT AND SWAP1 DUP4 PUSH1 0x2 DUP2 GT ISZERO PUSH2 0x12DA JUMPI PUSH2 0x12D9 PUSH2 0x213B JUMP JUMPDEST JUMPDEST MUL OR SWAP1 SSTORE POP PUSH1 0x20 DUP3 ADD MLOAD DUP2 PUSH1 0x1 ADD SSTORE SWAP1 POP POP JUMP JUMPDEST PUSH1 0x0 DUP1 DUP1 DUP1 PUSH2 0x12FC SWAP1 PUSH2 0x2912 JUMP JUMPDEST SWAP2 POP POP DUP3 TIMESTAMP CALLER DUP4 PUSH1 0x40 MLOAD PUSH1 0x20 ADD PUSH2 0x1315 SWAP4 SWAP3 SWAP2 SWAP1 PUSH2 0x2A23 JUMP JUMPDEST PUSH1 0x40 MLOAD PUSH1 0x20 DUP2 DUP4 SUB SUB DUP2 MSTORE SWAP1 PUSH1 0x40 MSTORE DUP1 MLOAD SWAP1 PUSH1 0x20 ADD KECCAK256 PUSH1 0x0 SHR PUSH2 0x1338 SWAP2 SWAP1 PUSH2 0x2A60 JUMP JUMPDEST SWAP2 POP POP SWAP2 SWAP1 POP JUMP JUMPDEST PUSH1 0x0 DUP1 SLOAD SWAP1 PUSH2 0x100 EXP SWAP1 DIV PUSH20 0xFFFFFFFFFFFFFFFFFFFFFFFFFFFFFFFFFFFFFFFF AND DUP2 JUMP JUMPDEST PUSH1 0x0 PUSH1 0x2 DUP2 GT ISZERO PUSH2 0x1378 JUMPI PUSH2 0x1377 PUSH2 0x213B JUMP JUMPDEST JUMPDEST PUSH1 0x2 PUSH1 0x0 CALLER PUSH20 0xFFFFFFFFFFFFFFFFFFFFFFFFFFFFFFFFFFFFFFFF AND PUSH20 0xFFFFFFFFFFFFFFFFFFFFFFFFFFFFFFFFFFFFFFFF AND DUP2 MSTORE PUSH1 0x20 ADD SWAP1 DUP2 MSTORE PUSH1 0x20 ADD PUSH1 0x0 KECCAK256 PUSH1 0x0 ADD PUSH1 0x0 SWAP1 SLOAD SWAP1 PUSH2 0x100 EXP SWAP1 DIV PUSH1 0xFF AND PUSH1 0x2 DUP2 GT ISZERO PUSH2 0x13DA JUMPI PUSH2 0x13D9 PUSH2 0x213B JUMP JUMPDEST JUMPDEST SUB PUSH2 0x1485 JUMPI PUSH1 0x40 MLOAD DUP1 PUSH1 0x40 ADD PUSH1 0x40 MSTORE DUP1 PUSH1 0x0 PUSH1 0x2 DUP2 GT ISZERO PUSH2 0x13FE JUMPI PUSH2 0x13FD PUSH2 0x213B JUMP JUMPDEST JUMPDEST DUP2 MSTORE PUSH1 0x20 ADD PUSH1 0x0 DUP2 MSTORE POP PUSH1 0x2 PUSH1 0x0 CALLER PUSH20 0xFFFFFFFFFFFFFFFFFFFFFFFFFFFFFFFFFFFFFFFF AND PUSH20 0xFFFFFFFFFFFFFFFFFFFFFFFFFFFFFFFFFFFFFFFF AND DUP2 MSTORE PUSH1 0x20 ADD SWAP1 DUP2 MSTORE PUSH1 0x20 ADD PUSH1 0x0 KECCAK256 PUSH1 0x0 DUP3 ADD MLOAD DUP2 PUSH1 0x0 ADD PUSH1 0x0 PUSH2 0x100 EXP DUP2 SLOAD DUP2 PUSH1 0xFF MUL NOT AND SWAP1 DUP4 PUSH1 0x2 DUP2 GT ISZERO PUSH2 0x1472 JUMPI PUSH2 0x1471 PUSH2 0x213B JUMP JUMPDEST JUMPDEST MUL OR SWAP1 SSTORE POP PUSH1 0x20 DUP3 ADD MLOAD DUP2 PUSH1 0x1 ADD SSTORE SWAP1 POP POP JUMPDEST PUSH1 0x0 DUP3 GT PUSH2 0x14C8 JUMPI PUSH1 0x40 MLOAD PUSH32 0x8C379A000000000000000000000000000000000000000000000000000000000 DUP2 MSTORE PUSH1 0x4 ADD PUSH2 0x14BF SWAP1 PUSH2 0x2658 JUMP JUMPDEST PUSH1 0x40 MLOAD DUP1 SWAP2 SUB SWAP1 REVERT JUMPDEST PUSH1 0x3 PUSH1 0x0 DUP5 PUSH20 0xFFFFFFFFFFFFFFFFFFFFFFFFFFFFFFFFFFFFFFFF AND PUSH20 0xFFFFFFFFFFFFFFFFFFFFFFFFFFFFFFFFFFFFFFFF AND DUP2 MSTORE PUSH1 0x20 ADD SWAP1 DUP2 MSTORE PUSH1 0x20 ADD PUSH1 0x0 KECCAK256 DUP1 SLOAD SWAP1 POP DUP2 LT PUSH2 0x154C JUMPI PUSH1 0x40 MLOAD PUSH32 0x8C379A000000000000000000000000000000000000000000000000000000000 DUP2 MSTORE PUSH1 0x4 ADD PUSH2 0x1543 SWAP1 PUSH2 0x26C4 JUMP JUMPDEST PUSH1 0x40 MLOAD DUP1 SWAP2 SUB SWAP1 REVERT JUMPDEST PUSH1 0x3 PUSH1 0x0 DUP5 PUSH20 0xFFFFFFFFFFFFFFFFFFFFFFFFFFFFFFFFFFFFFFFF AND PUSH20 0xFFFFFFFFFFFFFFFFFFFFFFFFFFFFFFFFFFFFFFFF AND DUP2 MSTORE PUSH1 0x20 ADD SWAP1 DUP2 MSTORE PUSH1 0x20 ADD PUSH1 0x0 KECCAK256 DUP2 DUP2 SLOAD DUP2 LT PUSH2 0x159D JUMPI PUSH2 0x159C PUSH2 0x26E4 JUMP JUMPDEST JUMPDEST SWAP1 PUSH1 0x0 MSTORE PUSH1 0x20 PUSH1 0x0 KECCAK256 SWAP1 PUSH1 0x4 MUL ADD PUSH1 0x0 ADD SLOAD DUP3 GT ISZERO PUSH2 0x15F1 JUMPI PUSH1 0x40 MLOAD PUSH32 0x8C379A000000000000000000000000000000000000000000000000000000000 DUP2 MSTORE PUSH1 0x4 ADD PUSH2 0x15E8 SWAP1 PUSH2 0x2ADD JUMP JUMPDEST PUSH1 0x40 MLOAD DUP1 SWAP2 SUB SWAP1 REVERT JUMPDEST PUSH1 0x0 PUSH8 0xDE0B6B3A7640000 PUSH1 0x3 PUSH1 0x0 DUP7 PUSH20 0xFFFFFFFFFFFFFFFFFFFFFFFFFFFFFFFFFFFFFFFF AND PUSH20 0xFFFFFFFFFFFFFFFFFFFFFFFFFFFFFFFFFFFFFFFF AND DUP2 MSTORE PUSH1 0x20 ADD SWAP1 DUP2 MSTORE PUSH1 0x20 ADD PUSH1 0x0 KECCAK256 DUP4 DUP2 SLOAD DUP2 LT PUSH2 0x164D JUMPI PUSH2 0x164C PUSH2 0x26E4 JUMP JUMPDEST JUMPDEST SWAP1 PUSH1 0x0 MSTORE PUSH1 0x20 PUSH1 0x0 KECCAK256 SWAP1 PUSH1 0x4 MUL ADD PUSH1 0x1 ADD SLOAD DUP5 PUSH2 0x166A SWAP2 SWAP1 PUSH2 0x27FC JUMP JUMPDEST PUSH2 0x1674 SWAP2 SWAP1 PUSH2 0x27FC JUMP JUMPDEST SWAP1 POP DUP1 CALLVALUE LT ISZERO PUSH2 0x16B9 JUMPI PUSH1 0x40 MLOAD PUSH32 0x8C379A000000000000000000000000000000000000000000000000000000000 DUP2 MSTORE PUSH1 0x4 ADD PUSH2 0x16B0 SWAP1 PUSH2 0x288A JUMP JUMPDEST PUSH1 0x40 MLOAD DUP1 SWAP2 SUB SWAP1 REVERT JUMPDEST PUSH1 0x0 DUP1 JUMPDEST PUSH1 0x3 PUSH1 0x0 CALLER PUSH20 0xFFFFFFFFFFFFFFFFFFFFFFFFFFFFFFFFFFFFFFFF AND PUSH20 0xFFFFFFFFFFFFFFFFFFFFFFFFFFFFFFFFFFFFFFFF AND DUP2 MSTORE PUSH1 0x20 ADD SWAP1 DUP2 MSTORE PUSH1 0x20 ADD PUSH1 0x0 KECCAK256 DUP1 SLOAD SWAP1 POP DUP2 LT ISZERO PUSH2 0x188F JUMPI PUSH1 0x3 PUSH1 0x0 DUP8 PUSH20 0xFFFFFFFFFFFFFFFFFFFFFFFFFFFFFFFFFFFFFFFF AND PUSH20 0xFFFFFFFFFFFFFFFFFFFFFFFFFFFFFFFFFFFFFFFF AND DUP2 MSTORE PUSH1 0x20 ADD SWAP1 DUP2 MSTORE PUSH1 0x20 ADD PUSH1 0x0 KECCAK256 DUP5 DUP2 SLOAD DUP2 LT PUSH2 0x1758 JUMPI PUSH2 0x1757 PUSH2 0x26E4 JUMP JUMPDEST JUMPDEST SWAP1 PUSH1 0x0 MSTORE PUSH1 0x20 PUSH1 0x0 KECCAK256 SWAP1 PUSH1 0x4 MUL ADD PUSH1 0x2 ADD PUSH1 0x40 MLOAD PUSH2 0x1776 SWAP2 SWAP1 PUSH2 0x27B6 JUMP JUMPDEST PUSH1 0x40 MLOAD DUP1 SWAP2 SUB SWAP1 KECCAK256 PUSH1 0x3 PUSH1 0x0 CALLER PUSH20 0xFFFFFFFFFFFFFFFFFFFFFFFFFFFFFFFFFFFFFFFF AND PUSH20 0xFFFFFFFFFFFFFFFFFFFFFFFFFFFFFFFFFFFFFFFF AND DUP2 MSTORE PUSH1 0x20 ADD SWAP1 DUP2 MSTORE PUSH1 0x20 ADD PUSH1 0x0 KECCAK256 DUP3 DUP2 SLOAD DUP2 LT PUSH2 0x17CF JUMPI PUSH2 0x17CE PUSH2 0x26E4 JUMP JUMPDEST JUMPDEST SWAP1 PUSH1 0x0 MSTORE PUSH1 0x20 PUSH1 0x0 KECCAK256 SWAP1 PUSH1 0x4 MUL ADD PUSH1 0x2 ADD PUSH1 0x40 MLOAD PUSH2 0x17ED SWAP2 SWAP1 PUSH2 0x27B6 JUMP JUMPDEST PUSH1 0x40 MLOAD DUP1 SWAP2 SUB SWAP1 KECCAK256 SUB PUSH2 0x187C JUMPI DUP5 PUSH1 0x3 PUSH1 0x0 CALLER PUSH20 0xFFFFFFFFFFFFFFFFFFFFFFFFFFFFFFFFFFFFFFFF AND PUSH20 0xFFFFFFFFFFFFFFFFFFFFFFFFFFFFFFFFFFFFFFFF AND DUP2 MSTORE PUSH1 0x20 ADD SWAP1 DUP2 MSTORE PUSH1 0x20 ADD PUSH1 0x0 KECCAK256 DUP3 DUP2 SLOAD DUP2 LT PUSH2 0x184C JUMPI PUSH2 0x184B PUSH2 0x26E4 JUMP JUMPDEST JUMPDEST SWAP1 PUSH1 0x0 MSTORE PUSH1 0x20 PUSH1 0x0 KECCAK256 SWAP1 PUSH1 0x4 MUL ADD PUSH1 0x0 ADD PUSH1 0x0 DUP3 DUP3 SLOAD PUSH2 0x186C SWAP2 SWAP1 PUSH2 0x28DE JUMP JUMPDEST SWAP3 POP POP DUP2 SWAP1 SSTORE POP PUSH1 0x1 SWAP2 POP PUSH2 0x188F JUMP JUMPDEST DUP1 DUP1 PUSH2 0x1887 SWAP1 PUSH2 0x2912 JUMP JUMPDEST SWAP2 POP POP PUSH2 0x16BD JUMP JUMPDEST POP DUP1 PUSH2 0x1AB1 JUMPI PUSH1 0x0 PUSH1 0x40 MLOAD DUP1 PUSH1 0x80 ADD PUSH1 0x40 MSTORE DUP1 DUP7 DUP2 MSTORE PUSH1 0x20 ADD PUSH1 0x3 PUSH1 0x0 DUP10 PUSH20 0xFFFFFFFFFFFFFFFFFFFFFFFFFFFFFFFFFFFFFFFF AND PUSH20 0xFFFFFFFFFFFFFFFFFFFFFFFFFFFFFFFFFFFFFFFF AND DUP2 MSTORE PUSH1 0x20 ADD SWAP1 DUP2 MSTORE PUSH1 0x20 ADD PUSH1 0x0 KECCAK256 DUP7 DUP2 SLOAD DUP2 LT PUSH2 0x18F9 JUMPI PUSH2 0x18F8 PUSH2 0x26E4 JUMP JUMPDEST JUMPDEST SWAP1 PUSH1 0x0 MSTORE PUSH1 0x20 PUSH1 0x0 KECCAK256 SWAP1 PUSH1 0x4 MUL ADD PUSH1 0x1 ADD SLOAD DUP2 MSTORE PUSH1 0x20 ADD PUSH1 0x3 PUSH1 0x0 DUP10 PUSH20 0xFFFFFFFFFFFFFFFFFFFFFFFFFFFFFFFFFFFFFFFF AND PUSH20 0xFFFFFFFFFFFFFFFFFFFFFFFFFFFFFFFFFFFFFFFF AND DUP2 MSTORE PUSH1 0x20 ADD SWAP1 DUP2 MSTORE PUSH1 0x20 ADD PUSH1 0x0 KECCAK256 DUP7 DUP2 SLOAD DUP2 LT PUSH2 0x1961 JUMPI PUSH2 0x1960 PUSH2 0x26E4 JUMP JUMPDEST JUMPDEST SWAP1 PUSH1 0x0 MSTORE PUSH1 0x20 PUSH1 0x0 KECCAK256 SWAP1 PUSH1 0x4 MUL ADD PUSH1 0x2 ADD DUP1 SLOAD PUSH2 0x197D SWAP1 PUSH2 0x2337 JUMP JUMPDEST DUP1 PUSH1 0x1F ADD PUSH1 0x20 DUP1 SWAP2 DIV MUL PUSH1 0x20 ADD PUSH1 0x40 MLOAD SWAP1 DUP2 ADD PUSH1 0x40 MSTORE DUP1 SWAP3 SWAP2 SWAP1 DUP2 DUP2 MSTORE PUSH1 0x20 ADD DUP3 DUP1 SLOAD PUSH2 0x19A9 SWAP1 PUSH2 0x2337 JUMP JUMPDEST DUP1 ISZERO PUSH2 0x19F6 JUMPI DUP1 PUSH1 0x1F LT PUSH2 0x19CB JUMPI PUSH2 0x100 DUP1 DUP4 SLOAD DIV MUL DUP4 MSTORE SWAP2 PUSH1 0x20 ADD SWAP2 PUSH2 0x19F6 JUMP JUMPDEST DUP3 ADD SWAP2 SWAP1 PUSH1 0x0 MSTORE PUSH1 0x20 PUSH1 0x0 KECCAK256 SWAP1 JUMPDEST DUP2 SLOAD DUP2 MSTORE SWAP1 PUSH1 0x1 ADD SWAP1 PUSH1 0x20 ADD DUP1 DUP4 GT PUSH2 0x19D9 JUMPI DUP3 SWAP1 SUB PUSH1 0x1F AND DUP3 ADD SWAP2 JUMPDEST POP POP POP POP POP DUP2 MSTORE PUSH1 0x20 ADD PUSH2 0x1A0B PUSH2 0x3E8 PUSH2 0x12EE JUMP JUMPDEST DUP2 MSTORE POP SWAP1 POP PUSH1 0x3 PUSH1 0x0 CALLER PUSH20 0xFFFFFFFFFFFFFFFFFFFFFFFFFFFFFFFFFFFFFFFF AND PUSH20 0xFFFFFFFFFFFFFFFFFFFFFFFFFFFFFFFFFFFFFFFF AND DUP2 MSTORE PUSH1 0x20 ADD SWAP1 DUP2 MSTORE PUSH1 0x20 ADD PUSH1 0x0 KECCAK256 DUP2 SWAP1 DUP1 PUSH1 0x1 DUP2 SLOAD ADD DUP1 DUP3 SSTORE DUP1 SWAP2 POP POP PUSH1 0x1 SWAP1 SUB SWAP1 PUSH1 0x0 MSTORE PUSH1 0x20 PUSH1 0x0 KECCAK256 SWAP1 PUSH1 0x4 MUL ADD PUSH1 0x0 SWAP1 SWAP2 SWAP1 SWAP2 SWAP1 SWAP2 POP PUSH1 0x0 DUP3 ADD MLOAD DUP2 PUSH1 0x0 ADD SSTORE PUSH1 0x20 DUP3 ADD MLOAD DUP2 PUSH1 0x1 ADD SSTORE PUSH1 0x40 DUP3 ADD MLOAD DUP2 PUSH1 0x2 ADD SWAP1 DUP2 PUSH2 0x1AA2 SWAP2 SWAP1 PUSH2 0x2514 JUMP JUMPDEST POP PUSH1 0x60 DUP3 ADD MLOAD DUP2 PUSH1 0x3 ADD SSTORE POP POP POP JUMPDEST DUP4 PUSH1 0x3 PUSH1 0x0 DUP8 PUSH20 0xFFFFFFFFFFFFFFFFFFFFFFFFFFFFFFFFFFFFFFFF AND PUSH20 0xFFFFFFFFFFFFFFFFFFFFFFFFFFFFFFFFFFFFFFFF AND DUP2 MSTORE PUSH1 0x20 ADD SWAP1 DUP2 MSTORE PUSH1 0x20 ADD PUSH1 0x0 KECCAK256 DUP5 DUP2 SLOAD DUP2 LT PUSH2 0x1B03 JUMPI PUSH2 0x1B02 PUSH2 0x26E4 JUMP JUMPDEST JUMPDEST SWAP1 PUSH1 0x0 MSTORE PUSH1 0x20 PUSH1 0x0 KECCAK256 SWAP1 PUSH1 0x4 MUL ADD PUSH1 0x0 ADD PUSH1 0x0 DUP3 DUP3 SLOAD PUSH2 0x1B23 SWAP2 SWAP1 PUSH2 0x28AA JUMP JUMPDEST SWAP3 POP POP DUP2 SWAP1 SSTORE POP DUP2 CALLVALUE GT ISZERO PUSH2 0x1B8B JUMPI PUSH1 0x0 DUP3 CALLVALUE PUSH2 0x1B40 SWAP2 SWAP1 PUSH2 0x28AA JUMP JUMPDEST SWAP1 POP CALLER PUSH20 0xFFFFFFFFFFFFFFFFFFFFFFFFFFFFFFFFFFFFFFFF AND PUSH2 0x8FC DUP3 SWAP1 DUP2 ISZERO MUL SWAP1 PUSH1 0x40 MLOAD PUSH1 0x0 PUSH1 0x40 MLOAD DUP1 DUP4 SUB DUP2 DUP6 DUP9 DUP9 CALL SWAP4 POP POP POP POP ISZERO DUP1 ISZERO PUSH2 0x1B88 JUMPI RETURNDATASIZE PUSH1 0x0 DUP1 RETURNDATACOPY RETURNDATASIZE PUSH1 0x0 REVERT JUMPDEST POP POP JUMPDEST DUP2 PUSH1 0x2 PUSH1 0x0 DUP8 PUSH20 0xFFFFFFFFFFFFFFFFFFFFFFFFFFFFFFFFFFFFFFFF AND PUSH20 0xFFFFFFFFFFFFFFFFFFFFFFFFFFFFFFFFFFFFFFFF AND DUP2 MSTORE PUSH1 0x20 ADD SWAP1 DUP2 MSTORE PUSH1 0x20 ADD PUSH1 0x0 KECCAK256 PUSH1 0x1 ADD DUP2 SWAP1 SSTORE POP POP POP POP POP POP JUMP JUMPDEST PUSH1 0x2 PUSH1 0x20 MSTORE DUP1 PUSH1 0x0 MSTORE PUSH1 0x40 PUSH1 0x0 KECCAK256 PUSH1 0x0 SWAP2 POP SWAP1 POP DUP1 PUSH1 0x0 ADD PUSH1 0x0 SWAP1 SLOAD SWAP1 PUSH2 0x100 EXP SWAP1 DIV PUSH1 0xFF AND SWAP1 DUP1 PUSH1 0x1 ADD SLOAD SWAP1 POP DUP3 JUMP JUMPDEST PUSH1 0x0 PUSH1 0x2 PUSH1 0x0 DUP4 PUSH20 0xFFFFFFFFFFFFFFFFFFFFFFFFFFFFFFFFFFFFFFFF AND PUSH20 0xFFFFFFFFFFFFFFFFFFFFFFFFFFFFFFFFFFFFFFFF AND DUP2 MSTORE PUSH1 0x20 ADD SWAP1 DUP2 MSTORE PUSH1 0x20 ADD PUSH1 0x0 KECCAK256 PUSH1 0x1 ADD SLOAD SWAP1 POP DUP2 PUSH20 0xFFFFFFFFFFFFFFFFFFFFFFFFFFFFFFFFFFFFFFFF AND PUSH2 0x8FC DUP3 SWAP1 DUP2 ISZERO MUL SWAP1 PUSH1 0x40 MLOAD PUSH1 0x0 PUSH1 0x40 MLOAD DUP1 DUP4 SUB DUP2 DUP6 DUP9 DUP9 CALL SWAP4 POP POP POP POP ISZERO DUP1 ISZERO PUSH2 0x1C97 JUMPI RETURNDATASIZE PUSH1 0x0 DUP1 RETURNDATACOPY RETURNDATASIZE PUSH1 0x0 REVERT JUMPDEST POP POP POP JUMP JUMPDEST POP DUP1 SLOAD PUSH2 0x1CA8 SWAP1 PUSH2 0x2337 JUMP JUMPDEST PUSH1 0x0 DUP3 SSTORE DUP1 PUSH1 0x1F LT PUSH2 0x1CBA JUMPI POP PUSH2 0x1CD9 JUMP JUMPDEST PUSH1 0x1F ADD PUSH1 0x20 SWAP1 DIV SWAP1 PUSH1 0x0 MSTORE PUSH1 0x20 PUSH1 0x0 KECCAK256 SWAP1 DUP2 ADD SWAP1 PUSH2 0x1CD8 SWAP2 SWAP1 PUSH2 0x1CDC JUMP JUMPDEST JUMPDEST POP JUMP JUMPDEST JUMPDEST DUP1 DUP3 GT ISZERO PUSH2 0x1CF5 JUMPI PUSH1 0x0 DUP2 PUSH1 0x0 SWAP1 SSTORE POP PUSH1 0x1 ADD PUSH2 0x1CDD JUMP JUMPDEST POP SWAP1 JUMP JUMPDEST PUSH1 0x0 DUP1 REVERT JUMPDEST PUSH1 0x0 DUP1 REVERT JUMPDEST PUSH1 0x0 PUSH20 0xFFFFFFFFFFFFFFFFFFFFFFFFFFFFFFFFFFFFFFFF DUP3 AND SWAP1 POP SWAP2 SWAP1 POP JUMP JUMPDEST PUSH1 0x0 PUSH2 0x1D2E DUP3 PUSH2 0x1D03 JUMP JUMPDEST SWAP1 POP SWAP2 SWAP1 POP JUMP JUMPDEST PUSH2 0x1D3E DUP2 PUSH2 0x1D23 JUMP JUMPDEST DUP2 EQ PUSH2 0x1D49 JUMPI PUSH1 0x0 DUP1 REVERT JUMPDEST POP JUMP JUMPDEST PUSH1 0x0 DUP2 CALLDATALOAD SWAP1 POP PUSH2 0x1D5B DUP2 PUSH2 0x1D35 JUMP JUMPDEST SWAP3 SWAP2 POP POP JUMP JUMPDEST PUSH1 0x0 DUP2 SWAP1 POP SWAP2 SWAP1 POP JUMP JUMPDEST PUSH2 0x1D74 DUP2 PUSH2 0x1D61 JUMP JUMPDEST DUP2 EQ PUSH2 0x1D7F JUMPI PUSH1 0x0 DUP1 REVERT JUMPDEST POP JUMP JUMPDEST PUSH1 0x0 DUP2 CALLDATALOAD SWAP1 POP PUSH2 0x1D91 DUP2 PUSH2 0x1D6B JUMP JUMPDEST SWAP3 SWAP2 POP POP JUMP JUMPDEST PUSH1 0x0 DUP1 REVERT JUMPDEST PUSH1 0x0 DUP1 REVERT JUMPDEST PUSH1 0x0 DUP1 REVERT JUMPDEST PUSH1 0x0 DUP1 DUP4 PUSH1 0x1F DUP5 ADD SLT PUSH2 0x1DBC JUMPI PUSH2 0x1DBB PUSH2 0x1D97 JUMP JUMPDEST JUMPDEST DUP3 CALLDATALOAD SWAP1 POP PUSH8 0xFFFFFFFFFFFFFFFF DUP2 GT ISZERO PUSH2 0x1DD9 JUMPI PUSH2 0x1DD8 PUSH2 0x1D9C JUMP JUMPDEST JUMPDEST PUSH1 0x20 DUP4 ADD SWAP2 POP DUP4 PUSH1 0x1 DUP3 MUL DUP4 ADD GT ISZERO PUSH2 0x1DF5 JUMPI PUSH2 0x1DF4 PUSH2 0x1DA1 JUMP JUMPDEST JUMPDEST SWAP3 POP SWAP3 SWAP1 POP JUMP JUMPDEST PUSH1 0x0 DUP1 PUSH1 0x0 DUP1 PUSH1 0x0 DUP1 PUSH1 0xA0 DUP8 DUP10 SUB SLT ISZERO PUSH2 0x1E19 JUMPI PUSH2 0x1E18 PUSH2 0x1CF9 JUMP JUMPDEST JUMPDEST PUSH1 0x0 PUSH2 0x1E27 DUP10 DUP3 DUP11 ADD PUSH2 0x1D4C JUMP JUMPDEST SWAP7 POP POP PUSH1 0x20 PUSH2 0x1E38 DUP10 DUP3 DUP11 ADD PUSH2 0x1D82 JUMP JUMPDEST SWAP6 POP POP PUSH1 0x40 PUSH2 0x1E49 DUP10 DUP3 DUP11 ADD PUSH2 0x1D82 JUMP JUMPDEST SWAP5 POP POP PUSH1 0x60 DUP8 ADD CALLDATALOAD PUSH8 0xFFFFFFFFFFFFFFFF DUP2 GT ISZERO PUSH2 0x1E6A JUMPI PUSH2 0x1E69 PUSH2 0x1CFE JUMP JUMPDEST JUMPDEST PUSH2 0x1E76 DUP10 DUP3 DUP11 ADD PUSH2 0x1DA6 JUMP JUMPDEST SWAP4 POP SWAP4 POP POP PUSH1 0x80 PUSH2 0x1E89 DUP10 DUP3 DUP11 ADD PUSH2 0x1D82 JUMP JUMPDEST SWAP2 POP POP SWAP3 SWAP6 POP SWAP3 SWAP6 POP SWAP3 SWAP6 JUMP JUMPDEST PUSH1 0x0 DUP1 PUSH1 0x0 PUSH1 0x60 DUP5 DUP7 SUB SLT ISZERO PUSH2 0x1EAF JUMPI PUSH2 0x1EAE PUSH2 0x1CF9 JUMP JUMPDEST JUMPDEST PUSH1 0x0 PUSH2 0x1EBD DUP7 DUP3 DUP8 ADD PUSH2 0x1D4C JUMP JUMPDEST SWAP4 POP POP PUSH1 0x20 PUSH2 0x1ECE DUP7 DUP3 DUP8 ADD PUSH2 0x1D82 JUMP JUMPDEST SWAP3 POP POP PUSH1 0x40 PUSH2 0x1EDF DUP7 DUP3 DUP8 ADD PUSH2 0x1D82 JUMP JUMPDEST SWAP2 POP POP SWAP3 POP SWAP3 POP SWAP3 JUMP JUMPDEST PUSH1 0x0 DUP1 PUSH1 0x0 DUP1 PUSH1 0x0 PUSH1 0x80 DUP7 DUP9 SUB SLT ISZERO PUSH2 0x1F05 JUMPI PUSH2 0x1F04 PUSH2 0x1CF9 JUMP JUMPDEST JUMPDEST PUSH1 0x0 PUSH2 0x1F13 DUP9 DUP3 DUP10 ADD PUSH2 0x1D82 JUMP JUMPDEST SWAP6 POP POP PUSH1 0x20 PUSH2 0x1F24 DUP9 DUP3 DUP10 ADD PUSH2 0x1D82 JUMP JUMPDEST SWAP5 POP POP PUSH1 0x40 DUP7 ADD CALLDATALOAD PUSH8 0xFFFFFFFFFFFFFFFF DUP2 GT ISZERO PUSH2 0x1F45 JUMPI PUSH2 0x1F44 PUSH2 0x1CFE JUMP JUMPDEST JUMPDEST PUSH2 0x1F51 DUP9 DUP3 DUP10 ADD PUSH2 0x1DA6 JUMP JUMPDEST SWAP4 POP SWAP4 POP POP PUSH1 0x60 PUSH2 0x1F64 DUP9 DUP3 DUP10 ADD PUSH2 0x1D82 JUMP JUMPDEST SWAP2 POP POP SWAP3 SWAP6 POP SWAP3 SWAP6 SWAP1 SWAP4 POP JUMP JUMPDEST PUSH2 0x1F7A DUP2 PUSH2 0x1D23 JUMP JUMPDEST DUP3 MSTORE POP POP JUMP JUMPDEST PUSH1 0x0 PUSH1 0x20 DUP3 ADD SWAP1 POP PUSH2 0x1F95 PUSH1 0x0 DUP4 ADD DUP5 PUSH2 0x1F71 JUMP JUMPDEST SWAP3 SWAP2 POP POP JUMP JUMPDEST PUSH1 0x0 DUP1 PUSH1 0x40 DUP4 DUP6 SUB SLT ISZERO PUSH2 0x1FB2 JUMPI PUSH2 0x1FB1 PUSH2 0x1CF9 JUMP JUMPDEST JUMPDEST PUSH1 0x0 PUSH2 0x1FC0 DUP6 DUP3 DUP7 ADD PUSH2 0x1D4C JUMP JUMPDEST SWAP3 POP POP PUSH1 0x20 PUSH2 0x1FD1 DUP6 DUP3 DUP7 ADD PUSH2 0x1D82 JUMP JUMPDEST SWAP2 POP POP SWAP3 POP SWAP3 SWAP1 POP JUMP JUMPDEST PUSH2 0x1FE4 DUP2 PUSH2 0x1D61 JUMP JUMPDEST DUP3 MSTORE POP POP JUMP JUMPDEST PUSH1 0x0 DUP2 MLOAD SWAP1 POP SWAP2 SWAP1 POP JUMP JUMPDEST PUSH1 0x0 DUP3 DUP3 MSTORE PUSH1 0x20 DUP3 ADD SWAP1 POP SWAP3 SWAP2 POP POP JUMP JUMPDEST PUSH1 0x0 JUMPDEST DUP4 DUP2 LT ISZERO PUSH2 0x2024 JUMPI DUP1 DUP3 ADD MLOAD DUP2 DUP5 ADD MSTORE PUSH1 0x20 DUP2 ADD SWAP1 POP PUSH2 0x2009 JUMP JUMPDEST PUSH1 0x0 DUP5 DUP5 ADD MSTORE POP POP POP POP JUMP JUMPDEST PUSH1 0x0 PUSH1 0x1F NOT PUSH1 0x1F DUP4 ADD AND SWAP1 POP SWAP2 SWAP1 POP JUMP JUMPDEST PUSH1 0x0 PUSH2 0x204C DUP3 PUSH2 0x1FEA JUMP JUMPDEST PUSH2 0x2056 DUP2 DUP6 PUSH2 0x1FF5 JUMP JUMPDEST SWAP4 POP PUSH2 0x2066 DUP2 DUP6 PUSH1 0x20 DUP7 ADD PUSH2 0x2006 JUMP JUMPDEST PUSH2 0x206F DUP2 PUSH2 0x2030 JUMP JUMPDEST DUP5 ADD SWAP2 POP POP SWAP3 SWAP2 POP POP JUMP JUMPDEST PUSH1 0x0 PUSH1 0x80 DUP3 ADD SWAP1 POP PUSH2 0x208F PUSH1 0x0 DUP4 ADD DUP8 PUSH2 0x1FDB JUMP JUMPDEST PUSH2 0x209C PUSH1 0x20 DUP4 ADD DUP7 PUSH2 0x1FDB JUMP JUMPDEST DUP2 DUP2 SUB PUSH1 0x40 DUP4 ADD MSTORE PUSH2 0x20AE DUP2 DUP6 PUSH2 0x2041 JUMP JUMPDEST SWAP1 POP PUSH2 0x20BD PUSH1 0x60 DUP4 ADD DUP5 PUSH2 0x1FDB JUMP JUMPDEST SWAP6 SWAP5 POP POP POP POP POP JUMP JUMPDEST PUSH1 0x0 PUSH1 0x20 DUP3 DUP5 SUB SLT ISZERO PUSH2 0x20DC JUMPI PUSH2 0x20DB PUSH2 0x1CF9 JUMP JUMPDEST JUMPDEST PUSH1 0x0 PUSH2 0x20EA DUP5 DUP3 DUP6 ADD PUSH2 0x1D82 JUMP JUMPDEST SWAP2 POP POP SWAP3 SWAP2 POP POP JUMP JUMPDEST PUSH1 0x0 PUSH1 0x20 DUP3 ADD SWAP1 POP PUSH2 0x2108 PUSH1 0x0 DUP4 ADD DUP5 PUSH2 0x1FDB JUMP JUMPDEST SWAP3 SWAP2 POP POP JUMP JUMPDEST PUSH1 0x0 PUSH1 0x20 DUP3 DUP5 SUB SLT ISZERO PUSH2 0x2124 JUMPI PUSH2 0x2123 PUSH2 0x1CF9 JUMP JUMPDEST JUMPDEST PUSH1 0x0 PUSH2 0x2132 DUP5 DUP3 DUP6 ADD PUSH2 0x1D4C JUMP JUMPDEST SWAP2 POP POP SWAP3 SWAP2 POP POP JUMP JUMPDEST PUSH32 0x4E487B7100000000000000000000000000000000000000000000000000000000 PUSH1 0x0 MSTORE PUSH1 0x21 PUSH1 0x4 MSTORE PUSH1 0x24 PUSH1 0x0 REVERT JUMPDEST PUSH1 0x3 DUP2 LT PUSH2 0x217B JUMPI PUSH2 0x217A PUSH2 0x213B JUMP JUMPDEST JUMPDEST POP JUMP JUMPDEST PUSH1 0x0 DUP2 SWAP1 POP PUSH2 0x218C DUP3 PUSH2 0x216A JUMP JUMPDEST SWAP2 SWAP1 POP JUMP JUMPDEST PUSH1 0x0 PUSH2 0x219C DUP3 PUSH2 0x217E JUMP JUMPDEST SWAP1 POP SWAP2 SWAP1 POP JUMP JUMPDEST PUSH2 0x21AC DUP2 PUSH2 0x2191 JUMP JUMPDEST DUP3 MSTORE POP POP JUMP JUMPDEST PUSH1 0x0 PUSH1 0x40 DUP3 ADD SWAP1 POP PUSH2 0x21C7 PUSH1 0x0 DUP4 ADD DUP6 PUSH2 0x21A3 JUMP JUMPDEST PUSH2 0x21D4 PUSH1 0x20 DUP4 ADD DUP5 PUSH2 0x1FDB JUMP JUMPDEST SWAP4 SWAP3 POP POP POP JUMP JUMPDEST POP JUMP JUMPDEST PUSH1 0x0 PUSH2 0x21EB PUSH1 0x0 DUP4 PUSH2 0x1FF5 JUMP JUMPDEST SWAP2 POP PUSH2 0x21F6 DUP3 PUSH2 0x21DB JUMP JUMPDEST PUSH1 0x0 DUP3 ADD SWAP1 POP SWAP2 SWAP1 POP JUMP JUMPDEST PUSH1 0x0 PUSH1 0x20 DUP3 ADD SWAP1 POP DUP2 DUP2 SUB PUSH1 0x0 DUP4 ADD MSTORE PUSH2 0x221A DUP2 PUSH2 0x21DE JUMP JUMPDEST SWAP1 POP SWAP2 SWAP1 POP JUMP JUMPDEST PUSH32 0xD09CD0B0D0B3D0B0D0B7D0B8D0BD20D0BDD0B520D181D0BED0BED182D0B2D0B5 PUSH1 0x0 DUP3 ADD MSTORE PUSH32 0xD182D181D0B2D183D0B5D18220D0BED182D0BFD180D0B0D0B2D0B8D182D0B5D0 PUSH1 0x20 DUP3 ADD MSTORE PUSH32 0xBBD18E0000000000000000000000000000000000000000000000000000000000 PUSH1 0x40 DUP3 ADD MSTORE POP JUMP JUMPDEST PUSH1 0x0 PUSH2 0x22A3 PUSH1 0x43 DUP4 PUSH2 0x1FF5 JUMP JUMPDEST SWAP2 POP PUSH2 0x22AE DUP3 PUSH2 0x2221 JUMP JUMPDEST PUSH1 0x60 DUP3 ADD SWAP1 POP SWAP2 SWAP1 POP JUMP JUMPDEST PUSH1 0x0 PUSH1 0x20 DUP3 ADD SWAP1 POP DUP2 DUP2 SUB PUSH1 0x0 DUP4 ADD MSTORE PUSH2 0x22D2 DUP2 PUSH2 0x2296 JUMP JUMPDEST SWAP1 POP SWAP2 SWAP1 POP JUMP JUMPDEST PUSH32 0x4E487B7100000000000000000000000000000000000000000000000000000000 PUSH1 0x0 MSTORE PUSH1 0x41 PUSH1 0x4 MSTORE PUSH1 0x24 PUSH1 0x0 REVERT JUMPDEST PUSH32 0x4E487B7100000000000000000000000000000000000000000000000000000000 PUSH1 0x0 MSTORE PUSH1 0x22 PUSH1 0x4 MSTORE PUSH1 0x24 PUSH1 0x0 REVERT JUMPDEST PUSH1 0x0 PUSH1 0x2 DUP3 DIV SWAP1 POP PUSH1 0x1 DUP3 AND DUP1 PUSH2 0x234F JUMPI PUSH1 0x7F DUP3 AND SWAP2 POP JUMPDEST PUSH1 0x20 DUP3 LT DUP2 SUB PUSH2 0x2362 JUMPI PUSH2 0x2361 PUSH2 0x2308 JUMP JUMPDEST JUMPDEST POP SWAP2 SWAP1 POP JUMP JUMPDEST PUSH1 0x0 DUP2 SWAP1 POP DUP2 PUSH1 0x0 MSTORE PUSH1 0x20 PUSH1 0x0 KECCAK256 SWAP1 POP SWAP2 SWAP1 POP JUMP JUMPDEST PUSH1 0x0 PUSH1 0x20 PUSH1 0x1F DUP4 ADD DIV SWAP1 POP SWAP2 SWAP1 POP JUMP JUMPDEST PUSH1 0x0 DUP3 DUP3 SHL SWAP1 POP SWAP3 SWAP2 POP POP JUMP JUMPDEST PUSH1 0x0 PUSH1 0x8 DUP4 MUL PUSH2 0x23CA PUSH32 0xFFFFFFFFFFFFFFFFFFFFFFFFFFFFFFFFFFFFFFFFFFFFFFFFFFFFFFFFFFFFFFFF DUP3 PUSH2 0x238D JUMP JUMPDEST PUSH2 0x23D4 DUP7 DUP4 PUSH2 0x238D JUMP JUMPDEST SWAP6 POP DUP1 NOT DUP5 AND SWAP4 POP DUP1 DUP7 AND DUP5 OR SWAP3 POP POP POP SWAP4 SWAP3 POP POP POP JUMP JUMPDEST PUSH1 0x0 DUP2 SWAP1 POP SWAP2 SWAP1 POP JUMP JUMPDEST PUSH1 0x0 PUSH2 0x2411 PUSH2 0x240C PUSH2 0x2407 DUP5 PUSH2 0x1D61 JUMP JUMPDEST PUSH2 0x23EC JUMP JUMPDEST PUSH2 0x1D61 JUMP JUMPDEST SWAP1 POP SWAP2 SWAP1 POP JUMP JUMPDEST PUSH1 0x0 DUP2 SWAP1 POP SWAP2 SWAP1 POP JUMP JUMPDEST PUSH2 0x242B DUP4 PUSH2 0x23F6 JUMP JUMPDEST PUSH2 0x243F PUSH2 0x2437 DUP3 PUSH2 0x2418 JUMP JUMPDEST DUP5 DUP5 SLOAD PUSH2 0x239A JUMP JUMPDEST DUP3 SSTORE POP POP POP POP JUMP JUMPDEST PUSH1 0x0 SWAP1 JUMP JUMPDEST PUSH2 0x2454 PUSH2 0x2447 JUMP JUMPDEST PUSH2 0x245F DUP2 DUP5 DUP5 PUSH2 0x2422 JUMP JUMPDEST POP POP POP JUMP JUMPDEST JUMPDEST DUP2 DUP2 LT ISZERO PUSH2 0x2483 JUMPI PUSH2 0x2478 PUSH1 0x0 DUP3 PUSH2 0x244C JUMP JUMPDEST PUSH1 0x1 DUP2 ADD SWAP1 POP PUSH2 0x2465 JUMP JUMPDEST POP POP JUMP JUMPDEST PUSH1 0x1F DUP3 GT ISZERO PUSH2 0x24C8 JUMPI PUSH2 0x2499 DUP2 PUSH2 0x2368 JUMP JUMPDEST PUSH2 0x24A2 DUP5 PUSH2 0x237D JUMP JUMPDEST DUP2 ADD PUSH1 0x20 DUP6 LT ISZERO PUSH2 0x24B1 JUMPI DUP2 SWAP1 POP JUMPDEST PUSH2 0x24C5 PUSH2 0x24BD DUP6 PUSH2 0x237D JUMP JUMPDEST DUP4 ADD DUP3 PUSH2 0x2464 JUMP JUMPDEST POP POP JUMPDEST POP POP POP JUMP JUMPDEST PUSH1 0x0 DUP3 DUP3 SHR SWAP1 POP SWAP3 SWAP2 POP POP JUMP JUMPDEST PUSH1 0x0 PUSH2 0x24EB PUSH1 0x0 NOT DUP5 PUSH1 0x8 MUL PUSH2 0x24CD JUMP JUMPDEST NOT DUP1 DUP4 AND SWAP2 POP POP SWAP3 SWAP2 POP POP JUMP JUMPDEST PUSH1 0x0 PUSH2 0x2504 DUP4 DUP4 PUSH2 0x24DA JUMP JUMPDEST SWAP2 POP DUP3 PUSH1 0x2 MUL DUP3 OR SWAP1 POP SWAP3 SWAP2 POP POP JUMP JUMPDEST PUSH2 0x251D DUP3 PUSH2 0x1FEA JUMP JUMPDEST PUSH8 0xFFFFFFFFFFFFFFFF DUP2 GT ISZERO PUSH2 0x2536 JUMPI PUSH2 0x2535 PUSH2 0x22D9 JUMP JUMPDEST JUMPDEST PUSH2 0x2540 DUP3 SLOAD PUSH2 0x2337 JUMP JUMPDEST PUSH2 0x254B DUP3 DUP3 DUP6 PUSH2 0x2487 JUMP JUMPDEST PUSH1 0x0 PUSH1 0x20 SWAP1 POP PUSH1 0x1F DUP4 GT PUSH1 0x1 DUP2 EQ PUSH2 0x257E JUMPI PUSH1 0x0 DUP5 ISZERO PUSH2 0x256C JUMPI DUP3 DUP8 ADD MLOAD SWAP1 POP JUMPDEST PUSH2 0x2576 DUP6 DUP3 PUSH2 0x24F8 JUMP JUMPDEST DUP7 SSTORE POP PUSH2 0x25DE JUMP JUMPDEST PUSH1 0x1F NOT DUP5 AND PUSH2 0x258C DUP7 PUSH2 0x2368 JUMP JUMPDEST PUSH1 0x0 JUMPDEST DUP3 DUP2 LT ISZERO PUSH2 0x25B4 JUMPI DUP5 DUP10 ADD MLOAD DUP3 SSTORE PUSH1 0x1 DUP3 ADD SWAP2 POP PUSH1 0x20 DUP6 ADD SWAP5 POP PUSH1 0x20 DUP2 ADD SWAP1 POP PUSH2 0x258F JUMP JUMPDEST DUP7 DUP4 LT ISZERO PUSH2 0x25D1 JUMPI DUP5 DUP10 ADD MLOAD PUSH2 0x25CD PUSH1 0x1F DUP10 AND DUP3 PUSH2 0x24DA JUMP JUMPDEST DUP4 SSTORE POP JUMPDEST PUSH1 0x1 PUSH1 0x2 DUP9 MUL ADD DUP9 SSTORE POP POP POP JUMPDEST POP POP POP POP POP POP JUMP JUMPDEST PUSH32 0x507572636861736520616D6F756E74206D757374206265206772656174657220 PUSH1 0x0 DUP3 ADD MSTORE PUSH32 0x7468616E20300000000000000000000000000000000000000000000000000000 PUSH1 0x20 DUP3 ADD MSTORE POP JUMP JUMPDEST PUSH1 0x0 PUSH2 0x2642 PUSH1 0x26 DUP4 PUSH2 0x1FF5 JUMP JUMPDEST SWAP2 POP PUSH2 0x264D DUP3 PUSH2 0x25E6 JUMP JUMPDEST PUSH1 0x40 DUP3 ADD SWAP1 POP SWAP2 SWAP1 POP JUMP JUMPDEST PUSH1 0x0 PUSH1 0x20 DUP3 ADD SWAP1 POP DUP2 DUP2 SUB PUSH1 0x0 DUP4 ADD MSTORE PUSH2 0x2671 DUP2 PUSH2 0x2635 JUMP JUMPDEST SWAP1 POP SWAP2 SWAP1 POP JUMP JUMPDEST PUSH32 0x496E76616C69642070726F647563742049440000000000000000000000000000 PUSH1 0x0 DUP3 ADD MSTORE POP JUMP JUMPDEST PUSH1 0x0 PUSH2 0x26AE PUSH1 0x12 DUP4 PUSH2 0x1FF5 JUMP JUMPDEST SWAP2 POP PUSH2 0x26B9 DUP3 PUSH2 0x2678 JUMP JUMPDEST PUSH1 0x20 DUP3 ADD SWAP1 POP SWAP2 SWAP1 POP JUMP JUMPDEST PUSH1 0x0 PUSH1 0x20 DUP3 ADD SWAP1 POP DUP2 DUP2 SUB PUSH1 0x0 DUP4 ADD MSTORE PUSH2 0x26DD DUP2 PUSH2 0x26A1 JUMP JUMPDEST SWAP1 POP SWAP2 SWAP1 POP JUMP JUMPDEST PUSH32 0x4E487B7100000000000000000000000000000000000000000000000000000000 PUSH1 0x0 MSTORE PUSH1 0x32 PUSH1 0x4 MSTORE PUSH1 0x24 PUSH1 0x0 REVERT JUMPDEST PUSH1 0x0 DUP2 SWAP1 POP SWAP3 SWAP2 POP POP JUMP JUMPDEST PUSH1 0x0 DUP2 SWAP1 POP DUP2 PUSH1 0x0 MSTORE PUSH1 0x20 PUSH1 0x0 KECCAK256 SWAP1 POP SWAP2 SWAP1 POP JUMP JUMPDEST PUSH1 0x0 DUP2 SLOAD PUSH2 0x2740 DUP2 PUSH2 0x2337 JUMP JUMPDEST PUSH2 0x274A DUP2 DUP7 PUSH2 0x2713 JUMP JUMPDEST SWAP5 POP PUSH1 0x1 DUP3 AND PUSH1 0x0 DUP2 EQ PUSH2 0x2765 JUMPI PUSH1 0x1 DUP2 EQ PUSH2 0x277A JUMPI PUSH2 0x27AD JUMP JUMPDEST PUSH1 0xFF NOT DUP4 AND DUP7 MSTORE DUP2 ISZERO ISZERO DUP3 MUL DUP7 ADD SWAP4 POP PUSH2 0x27AD JUMP JUMPDEST PUSH2 0x2783 DUP6 PUSH2 0x271E JUMP JUMPDEST PUSH1 0x0 JUMPDEST DUP4 DUP2 LT ISZERO PUSH2 0x27A5 JUMPI DUP2 SLOAD DUP2 DUP10 ADD MSTORE PUSH1 0x1 DUP3 ADD SWAP2 POP PUSH1 0x20 DUP2 ADD SWAP1 POP PUSH2 0x2786 JUMP JUMPDEST DUP4 DUP9 ADD SWAP6 POP POP POP JUMPDEST POP POP POP SWAP3 SWAP2 POP POP JUMP JUMPDEST PUSH1 0x0 PUSH2 0x27C2 DUP3 DUP5 PUSH2 0x2733 JUMP JUMPDEST SWAP2 POP DUP2 SWAP1 POP SWAP3 SWAP2 POP POP JUMP JUMPDEST PUSH32 0x4E487B7100000000000000000000000000000000000000000000000000000000 PUSH1 0x0 MSTORE PUSH1 0x11 PUSH1 0x4 MSTORE PUSH1 0x24 PUSH1 0x0 REVERT JUMPDEST PUSH1 0x0 PUSH2 0x2807 DUP3 PUSH2 0x1D61 JUMP JUMPDEST SWAP2 POP PUSH2 0x2812 DUP4 PUSH2 0x1D61 JUMP JUMPDEST SWAP3 POP DUP3 DUP3 MUL PUSH2 0x2820 DUP2 PUSH2 0x1D61 JUMP JUMPDEST SWAP2 POP DUP3 DUP3 DIV DUP5 EQ DUP4 ISZERO OR PUSH2 0x2837 JUMPI PUSH2 0x2836 PUSH2 0x27CD JUMP JUMPDEST JUMPDEST POP SWAP3 SWAP2 POP POP JUMP JUMPDEST PUSH32 0x496E73756666696369656E742066756E64732073656E74000000000000000000 PUSH1 0x0 DUP3 ADD MSTORE POP JUMP JUMPDEST PUSH1 0x0 PUSH2 0x2874 PUSH1 0x17 DUP4 PUSH2 0x1FF5 JUMP JUMPDEST SWAP2 POP PUSH2 0x287F DUP3 PUSH2 0x283E JUMP JUMPDEST PUSH1 0x20 DUP3 ADD SWAP1 POP SWAP2 SWAP1 POP JUMP JUMPDEST PUSH1 0x0 PUSH1 0x20 DUP3 ADD SWAP1 POP DUP2 DUP2 SUB PUSH1 0x0 DUP4 ADD MSTORE PUSH2 0x28A3 DUP2 PUSH2 0x2867 JUMP JUMPDEST SWAP1 POP SWAP2 SWAP1 POP JUMP JUMPDEST PUSH1 0x0 PUSH2 0x28B5 DUP3 PUSH2 0x1D61 JUMP JUMPDEST SWAP2 POP PUSH2 0x28C0 DUP4 PUSH2 0x1D61 JUMP JUMPDEST SWAP3 POP DUP3 DUP3 SUB SWAP1 POP DUP2 DUP2 GT ISZERO PUSH2 0x28D8 JUMPI PUSH2 0x28D7 PUSH2 0x27CD JUMP JUMPDEST JUMPDEST SWAP3 SWAP2 POP POP JUMP JUMPDEST PUSH1 0x0 PUSH2 0x28E9 DUP3 PUSH2 0x1D61 JUMP JUMPDEST SWAP2 POP PUSH2 0x28F4 DUP4 PUSH2 0x1D61 JUMP JUMPDEST SWAP3 POP DUP3 DUP3 ADD SWAP1 POP DUP1 DUP3 GT ISZERO PUSH2 0x290C JUMPI PUSH2 0x290B PUSH2 0x27CD JUMP JUMPDEST JUMPDEST SWAP3 SWAP2 POP POP JUMP JUMPDEST PUSH1 0x0 PUSH2 0x291D DUP3 PUSH2 0x1D61 JUMP JUMPDEST SWAP2 POP PUSH32 0xFFFFFFFFFFFFFFFFFFFFFFFFFFFFFFFFFFFFFFFFFFFFFFFFFFFFFFFFFFFFFFFF DUP3 SUB PUSH2 0x294F JUMPI PUSH2 0x294E PUSH2 0x27CD JUMP JUMPDEST JUMPDEST PUSH1 0x1 DUP3 ADD SWAP1 POP SWAP2 SWAP1 POP JUMP JUMPDEST PUSH32 0x4E487B7100000000000000000000000000000000000000000000000000000000 PUSH1 0x0 MSTORE PUSH1 0x12 PUSH1 0x4 MSTORE PUSH1 0x24 PUSH1 0x0 REVERT JUMPDEST PUSH1 0x0 PUSH2 0x2994 DUP3 PUSH2 0x1D61 JUMP JUMPDEST SWAP2 POP PUSH2 0x299F DUP4 PUSH2 0x1D61 JUMP JUMPDEST SWAP3 POP DUP3 PUSH2 0x29AF JUMPI PUSH2 0x29AE PUSH2 0x295A JUMP JUMPDEST JUMPDEST DUP3 DUP3 DIV SWAP1 POP SWAP3 SWAP2 POP POP JUMP JUMPDEST PUSH1 0x0 DUP2 SWAP1 POP SWAP2 SWAP1 POP JUMP JUMPDEST PUSH2 0x29D5 PUSH2 0x29D0 DUP3 PUSH2 0x1D61 JUMP JUMPDEST PUSH2 0x29BA JUMP JUMPDEST DUP3 MSTORE POP POP JUMP JUMPDEST PUSH1 0x0 DUP2 PUSH1 0x60 SHL SWAP1 POP SWAP2 SWAP1 POP JUMP JUMPDEST PUSH1 0x0 PUSH2 0x29F3 DUP3 PUSH2 0x29DB JUMP JUMPDEST SWAP1 POP SWAP2 SWAP1 POP JUMP JUMPDEST PUSH1 0x0 PUSH2 0x2A05 DUP3 PUSH2 0x29E8 JUMP JUMPDEST SWAP1 POP SWAP2 SWAP1 POP JUMP JUMPDEST PUSH2 0x2A1D PUSH2 0x2A18 DUP3 PUSH2 0x1D23 JUMP JUMPDEST PUSH2 0x29FA JUMP JUMPDEST DUP3 MSTORE POP POP JUMP JUMPDEST PUSH1 0x0 PUSH2 0x2A2F DUP3 DUP7 PUSH2 0x29C4 JUMP JUMPDEST PUSH1 0x20 DUP3 ADD SWAP2 POP PUSH2 0x2A3F DUP3 DUP6 PUSH2 0x2A0C JUMP JUMPDEST PUSH1 0x14 DUP3 ADD SWAP2 POP PUSH2 0x2A4F DUP3 DUP5 PUSH2 0x29C4 JUMP JUMPDEST PUSH1 0x20 DUP3 ADD SWAP2 POP DUP2 SWAP1 POP SWAP5 SWAP4 POP POP POP POP JUMP JUMPDEST PUSH1 0x0 PUSH2 0x2A6B DUP3 PUSH2 0x1D61 JUMP JUMPDEST SWAP2 POP PUSH2 0x2A76 DUP4 PUSH2 0x1D61 JUMP JUMPDEST SWAP3 POP DUP3 PUSH2 0x2A86 JUMPI PUSH2 0x2A85 PUSH2 0x295A JUMP JUMPDEST JUMPDEST DUP3 DUP3 MOD SWAP1 POP SWAP3 SWAP2 POP POP JUMP JUMPDEST PUSH32 0x4E6F7420656E6F7567682073746F636B20617661696C61626C65000000000000 PUSH1 0x0 DUP3 ADD MSTORE POP JUMP JUMPDEST PUSH1 0x0 PUSH2 0x2AC7 PUSH1 0x1A DUP4 PUSH2 0x1FF5 JUMP JUMPDEST SWAP2 POP PUSH2 0x2AD2 DUP3 PUSH2 0x2A91 JUMP JUMPDEST PUSH1 0x20 DUP3 ADD SWAP1 POP SWAP2 SWAP1 POP JUMP JUMPDEST PUSH1 0x0 PUSH1 0x20 DUP3 ADD SWAP1 POP DUP2 DUP2 SUB PUSH1 0x0 DUP4 ADD MSTORE PUSH2 0x2AF6 DUP2 PUSH2 0x2ABA JUMP JUMPDEST SWAP1 POP SWAP2 SWAP1 POP JUMP INVALID LOG2 PUSH5 0x6970667358 0x22 SLT KECCAK256 0xD BLOCKHASH 0xE0 MUL 0xF7 0xD REVERT POP STATICCALL 0xD2 0xE6 STATICCALL PUSH25 0xD91E3029E5BBBCA659ECE3A123B3917D46680364736F6C6343 STOP ADDMOD SLT STOP CALLER "
				},
				"gasEstimates": {
					"creation": {
						"codeDepositCost": "2211800",
						"executionCost": "2360",
						"totalCost": "2214160"
					},
					"external": {
						"addItems(address,uint256,uint256,string,uint256)": "infinite",
						"addItemsSupplier(uint256,uint256,string,uint256)": "infinite",
						"makeMarket()": "29651",
						"owner()": "2555",
						"purchase(address,uint256,uint256)": "infinite",
						"randMod(uint256)": "infinite",
						"refillStore(address,uint256,uint256)": "infinite",
						"refund(address,uint256)": "infinite",
						"supplier()": "2581",
						"userProducts(address,uint256)": "infinite",
						"users(address)": "5259",
						"withdrawBal(address)": "infinite"
					}
				},
				"methodIdentifiers": {
					"addItems(address,uint256,uint256,string,uint256)": "03194133",
					"addItemsSupplier(uint256,uint256,string,uint256)": "33af9f8b",
					"makeMarket()": "66d0dc67",
					"owner()": "8da5cb5b",
					"purchase(address,uint256,uint256)": "98968f15",
					"randMod(uint256)": "805553e8",
					"refillStore(address,uint256,uint256)": "05103ede",
					"refund(address,uint256)": "410085df",
					"supplier()": "36da4468",
					"userProducts(address,uint256)": "3d527883",
					"users(address)": "a87430ba",
					"withdrawBal(address)": "f67a2ad1"
				}
			},
			"storageLayout": {
				"storage": [
					{
						"astId": 3,
						"contract": "contracts/MarketPlace.sol:MarketPlace",
						"label": "owner",
						"offset": 0,
						"slot": "0",
						"type": "t_address"
					},
					{
						"astId": 5,
						"contract": "contracts/MarketPlace.sol:MarketPlace",
						"label": "supplier",
						"offset": 0,
						"slot": "1",
						"type": "t_address"
					},
					{
						"astId": 29,
						"contract": "contracts/MarketPlace.sol:MarketPlace",
						"label": "users",
						"offset": 0,
						"slot": "2",
						"type": "t_mapping(t_address,t_struct(User)15_storage)"
					},
					{
						"astId": 35,
						"contract": "contracts/MarketPlace.sol:MarketPlace",
						"label": "userProducts",
						"offset": 0,
						"slot": "3",
						"type": "t_mapping(t_address,t_array(t_struct(Product)24_storage)dyn_storage)"
					}
				],
				"types": {
					"t_address": {
						"encoding": "inplace",
						"label": "address",
						"numberOfBytes": "20"
					},
					"t_array(t_struct(Product)24_storage)dyn_storage": {
						"base": "t_struct(Product)24_storage",
						"encoding": "dynamic_array",
						"label": "struct MarketPlace.Product[]",
						"numberOfBytes": "32"
					},
					"t_enum(Role)9": {
						"encoding": "inplace",
						"label": "enum MarketPlace.Role",
						"numberOfBytes": "1"
					},
					"t_mapping(t_address,t_array(t_struct(Product)24_storage)dyn_storage)": {
						"encoding": "mapping",
						"key": "t_address",
						"label": "mapping(address => struct MarketPlace.Product[])",
						"numberOfBytes": "32",
						"value": "t_array(t_struct(Product)24_storage)dyn_storage"
					},
					"t_mapping(t_address,t_struct(User)15_storage)": {
						"encoding": "mapping",
						"key": "t_address",
						"label": "mapping(address => struct MarketPlace.User)",
						"numberOfBytes": "32",
						"value": "t_struct(User)15_storage"
					},
					"t_string_storage": {
						"encoding": "bytes",
						"label": "string",
						"numberOfBytes": "32"
					},
					"t_struct(Product)24_storage": {
						"encoding": "inplace",
						"label": "struct MarketPlace.Product",
						"members": [
							{
								"astId": 17,
								"contract": "contracts/MarketPlace.sol:MarketPlace",
								"label": "inStock",
								"offset": 0,
								"slot": "0",
								"type": "t_uint256"
							},
							{
								"astId": 19,
								"contract": "contracts/MarketPlace.sol:MarketPlace",
								"label": "price",
								"offset": 0,
								"slot": "1",
								"type": "t_uint256"
							},
							{
								"astId": 21,
								"contract": "contracts/MarketPlace.sol:MarketPlace",
								"label": "name",
								"offset": 0,
								"slot": "2",
								"type": "t_string_storage"
							},
							{
								"astId": 23,
								"contract": "contracts/MarketPlace.sol:MarketPlace",
								"label": "expDate",
								"offset": 0,
								"slot": "3",
								"type": "t_uint256"
							}
						],
						"numberOfBytes": "128"
					},
					"t_struct(User)15_storage": {
						"encoding": "inplace",
						"label": "struct MarketPlace.User",
						"members": [
							{
								"astId": 12,
								"contract": "contracts/MarketPlace.sol:MarketPlace",
								"label": "role",
								"offset": 0,
								"slot": "0",
								"type": "t_enum(Role)9"
							},
							{
								"astId": 14,
								"contract": "contracts/MarketPlace.sol:MarketPlace",
								"label": "balance",
								"offset": 0,
								"slot": "1",
								"type": "t_uint256"
							}
						],
						"numberOfBytes": "64"
					},
					"t_uint256": {
						"encoding": "inplace",
						"label": "uint256",
						"numberOfBytes": "32"
					}
				}
			},
			"userdoc": {
				"kind": "user",
				"methods": {},
				"version": 1
			}
		}
	}
}