{
	"contracts/Test.sol": {
		"MarketPlace": {
			"abi": [
				{
					"inputs": [],
					"stateMutability": "nonpayable",
					"type": "constructor"
				},
				{
					"inputs": [
						{
							"internalType": "bool",
							"name": "_status",
							"type": "bool"
						},
						{
							"internalType": "uint256",
							"name": "_deliveryId",
							"type": "uint256"
						}
					],
					"name": "acceptDelivery",
					"outputs": [],
					"stateMutability": "payable",
					"type": "function"
				},
				{
					"inputs": [
						{
							"internalType": "uint256",
							"name": "_inStock",
							"type": "uint256"
						},
						{
							"internalType": "uint256",
							"name": "_price",
							"type": "uint256"
						},
						{
							"internalType": "string",
							"name": "_name",
							"type": "string"
						},
						{
							"internalType": "uint256",
							"name": "_expDate",
							"type": "uint256"
						}
					],
					"name": "addItemsMarket",
					"outputs": [],
					"stateMutability": "nonpayable",
					"type": "function"
				},
				{
					"inputs": [
						{
							"internalType": "uint256",
							"name": "_inStock",
							"type": "uint256"
						},
						{
							"internalType": "uint256",
							"name": "_price",
							"type": "uint256"
						},
						{
							"internalType": "string",
							"name": "_name",
							"type": "string"
						},
						{
							"internalType": "uint256",
							"name": "_expDate",
							"type": "uint256"
						},
						{
							"internalType": "address",
							"name": "_addressSupp",
							"type": "address"
						}
					],
					"name": "addItemsSupplier",
					"outputs": [],
					"stateMutability": "nonpayable",
					"type": "function"
				},
				{
					"inputs": [
						{
							"internalType": "uint256",
							"name": "_idTicket",
							"type": "uint256"
						}
					],
					"name": "approveChangeRole",
					"outputs": [],
					"stateMutability": "nonpayable",
					"type": "function"
				},
				{
					"inputs": [
						{
							"internalType": "bool",
							"name": "_status",
							"type": "bool"
						},
						{
							"internalType": "uint256",
							"name": "_deliveryId",
							"type": "uint256"
						},
						{
							"internalType": "address",
							"name": "",
							"type": "address"
						}
					],
					"name": "approveDelivery",
					"outputs": [],
					"stateMutability": "nonpayable",
					"type": "function"
				},
				{
					"inputs": [
						{
							"internalType": "enum MarketPlace.Role",
							"name": "_role",
							"type": "uint8"
						}
					],
					"name": "changeRole",
					"outputs": [],
					"stateMutability": "nonpayable",
					"type": "function"
				},
				{
					"inputs": [
						{
							"internalType": "uint256",
							"name": "",
							"type": "uint256"
						}
					],
					"name": "deliveryOrders",
					"outputs": [
						{
							"internalType": "address",
							"name": "userAddr",
							"type": "address"
						},
						{
							"internalType": "address",
							"name": "shop",
							"type": "address"
						},
						{
							"internalType": "enum MarketPlace.Status",
							"name": "status",
							"type": "uint8"
						},
						{
							"internalType": "string",
							"name": "trackNumber",
							"type": "string"
						},
						{
							"internalType": "uint256",
							"name": "productId",
							"type": "uint256"
						},
						{
							"internalType": "uint256",
							"name": "amount",
							"type": "uint256"
						}
					],
					"stateMutability": "view",
					"type": "function"
				},
				{
					"inputs": [
						{
							"internalType": "string",
							"name": "_nameRef",
							"type": "string"
						},
						{
							"internalType": "address",
							"name": "_user",
							"type": "address"
						}
					],
					"name": "genRef",
					"outputs": [],
					"stateMutability": "nonpayable",
					"type": "function"
				},
				{
					"inputs": [
						{
							"internalType": "address",
							"name": "_shop",
							"type": "address"
						},
						{
							"internalType": "uint256",
							"name": "_productId",
							"type": "uint256"
						},
						{
							"internalType": "uint256",
							"name": "_amount",
							"type": "uint256"
						}
					],
					"name": "makeDelivery",
					"outputs": [],
					"stateMutability": "nonpayable",
					"type": "function"
				},
				{
					"inputs": [],
					"name": "makeMarket",
					"outputs": [],
					"stateMutability": "nonpayable",
					"type": "function"
				},
				{
					"inputs": [],
					"name": "makeSupplier",
					"outputs": [],
					"stateMutability": "nonpayable",
					"type": "function"
				},
				{
					"inputs": [],
					"name": "makeUser",
					"outputs": [],
					"stateMutability": "nonpayable",
					"type": "function"
				},
				{
					"inputs": [
						{
							"internalType": "address",
							"name": "",
							"type": "address"
						},
						{
							"internalType": "uint256",
							"name": "",
							"type": "uint256"
						}
					],
					"name": "marketProducts",
					"outputs": [
						{
							"internalType": "address",
							"name": "userAddress",
							"type": "address"
						},
						{
							"internalType": "uint256",
							"name": "inStock",
							"type": "uint256"
						},
						{
							"internalType": "uint256",
							"name": "price",
							"type": "uint256"
						},
						{
							"internalType": "string",
							"name": "name",
							"type": "string"
						},
						{
							"internalType": "uint256",
							"name": "expDate",
							"type": "uint256"
						}
					],
					"stateMutability": "view",
					"type": "function"
				},
				{
					"inputs": [],
					"name": "owner",
					"outputs": [
						{
							"internalType": "address",
							"name": "",
							"type": "address"
						}
					],
					"stateMutability": "view",
					"type": "function"
				},
				{
					"inputs": [
						{
							"internalType": "address",
							"name": "_shop",
							"type": "address"
						},
						{
							"internalType": "uint256",
							"name": "_amount",
							"type": "uint256"
						},
						{
							"internalType": "uint256",
							"name": "_id",
							"type": "uint256"
						},
						{
							"internalType": "string",
							"name": "_ref",
							"type": "string"
						}
					],
					"name": "purchase",
					"outputs": [],
					"stateMutability": "payable",
					"type": "function"
				},
				{
					"inputs": [
						{
							"internalType": "uint256",
							"name": "_modulus",
							"type": "uint256"
						}
					],
					"name": "randMod",
					"outputs": [
						{
							"internalType": "uint256",
							"name": "",
							"type": "uint256"
						}
					],
					"stateMutability": "view",
					"type": "function"
				},
				{
					"inputs": [
						{
							"internalType": "string",
							"name": "",
							"type": "string"
						}
					],
					"name": "referrals",
					"outputs": [
						{
							"internalType": "address",
							"name": "",
							"type": "address"
						}
					],
					"stateMutability": "view",
					"type": "function"
				},
				{
					"inputs": [
						{
							"internalType": "address",
							"name": "_shop",
							"type": "address"
						},
						{
							"internalType": "uint256",
							"name": "_productId",
							"type": "uint256"
						},
						{
							"internalType": "uint256",
							"name": "_amount",
							"type": "uint256"
						},
						{
							"internalType": "address",
							"name": "_supplier",
							"type": "address"
						}
					],
					"name": "refillStore",
					"outputs": [],
					"stateMutability": "payable",
					"type": "function"
				},
				{
					"inputs": [
						{
							"internalType": "address",
							"name": "_shop",
							"type": "address"
						},
						{
							"internalType": "uint256",
							"name": "_productId",
							"type": "uint256"
						}
					],
					"name": "refund",
					"outputs": [],
					"stateMutability": "nonpayable",
					"type": "function"
				},
				{
					"inputs": [
						{
							"internalType": "address",
							"name": "",
							"type": "address"
						},
						{
							"internalType": "uint256",
							"name": "",
							"type": "uint256"
						}
					],
					"name": "supplierProducts",
					"outputs": [
						{
							"internalType": "address",
							"name": "userAddress",
							"type": "address"
						},
						{
							"internalType": "uint256",
							"name": "inStock",
							"type": "uint256"
						},
						{
							"internalType": "uint256",
							"name": "price",
							"type": "uint256"
						},
						{
							"internalType": "string",
							"name": "name",
							"type": "string"
						},
						{
							"internalType": "uint256",
							"name": "expDate",
							"type": "uint256"
						}
					],
					"stateMutability": "view",
					"type": "function"
				},
				{
					"inputs": [
						{
							"internalType": "uint256",
							"name": "",
							"type": "uint256"
						}
					],
					"name": "tickets",
					"outputs": [
						{
							"internalType": "address",
							"name": "userAddr",
							"type": "address"
						},
						{
							"internalType": "enum MarketPlace.Role",
							"name": "role",
							"type": "uint8"
						}
					],
					"stateMutability": "view",
					"type": "function"
				},
				{
					"inputs": [
						{
							"internalType": "string",
							"name": "input",
							"type": "string"
						}
					],
					"name": "toUpper",
					"outputs": [
						{
							"internalType": "string",
							"name": "",
							"type": "string"
						}
					],
					"stateMutability": "pure",
					"type": "function"
				},
				{
					"inputs": [
						{
							"internalType": "address",
							"name": "",
							"type": "address"
						},
						{
							"internalType": "uint256",
							"name": "",
							"type": "uint256"
						}
					],
					"name": "userProducts",
					"outputs": [
						{
							"internalType": "address",
							"name": "userAddress",
							"type": "address"
						},
						{
							"internalType": "uint256",
							"name": "inStock",
							"type": "uint256"
						},
						{
							"internalType": "uint256",
							"name": "price",
							"type": "uint256"
						},
						{
							"internalType": "string",
							"name": "name",
							"type": "string"
						},
						{
							"internalType": "uint256",
							"name": "expDate",
							"type": "uint256"
						}
					],
					"stateMutability": "view",
					"type": "function"
				},
				{
					"inputs": [
						{
							"internalType": "address",
							"name": "",
							"type": "address"
						}
					],
					"name": "users",
					"outputs": [
						{
							"internalType": "enum MarketPlace.Role",
							"name": "role",
							"type": "uint8"
						},
						{
							"internalType": "uint256",
							"name": "balance",
							"type": "uint256"
						}
					],
					"stateMutability": "view",
					"type": "function"
				},
				{
					"inputs": [
						{
							"internalType": "address",
							"name": "_shop",
							"type": "address"
						}
					],
					"name": "withdrawBal",
					"outputs": [],
					"stateMutability": "nonpayable",
					"type": "function"
				}
			],
			"devdoc": {
				"kind": "dev",
				"methods": {},
				"version": 1
			},
			"evm": {
				"assembly": "    /* \"contracts/Test.sol\":60:8696  contract MarketPlace {... */\n  mstore(0x40, 0x80)\n    /* \"contracts/Test.sol\":292:341  constructor() {... */\n  callvalue\n  dup1\n  iszero\n  tag_1\n  jumpi\n  0x00\n  dup1\n  revert\ntag_1:\n  pop\n    /* \"contracts/Test.sol\":324:334  msg.sender */\n  caller\n    /* \"contracts/Test.sol\":316:321  owner */\n  0x01\n  0x00\n    /* \"contracts/Test.sol\":316:334  owner = msg.sender */\n  0x0100\n  exp\n  dup2\n  sload\n  dup2\n  0xffffffffffffffffffffffffffffffffffffffff\n  mul\n  not\n  and\n  swap1\n  dup4\n  0xffffffffffffffffffffffffffffffffffffffff\n  and\n  mul\n  or\n  swap1\n  sstore\n  pop\n    /* \"contracts/Test.sol\":60:8696  contract MarketPlace {... */\n  dataSize(sub_0)\n  dup1\n  dataOffset(sub_0)\n  0x00\n  codecopy\n  0x00\n  return\nstop\n\nsub_0: assembly {\n        /* \"contracts/Test.sol\":60:8696  contract MarketPlace {... */\n      mstore(0x40, 0x80)\n      jumpi(tag_1, lt(calldatasize, 0x04))\n      shr(0xe0, calldataload(0x00))\n      dup1\n      0x6f764708\n      gt\n      tag_27\n      jumpi\n      dup1\n      0xa1ba90b6\n      gt\n      tag_28\n      jumpi\n      dup1\n      0xd55768dd\n      gt\n      tag_29\n      jumpi\n      dup1\n      0xd55768dd\n      eq\n      tag_23\n      jumpi\n      dup1\n      0xda76af31\n      eq\n      tag_24\n      jumpi\n      dup1\n      0xf67a2ad1\n      eq\n      tag_25\n      jumpi\n      dup1\n      0xfecd8f79\n      eq\n      tag_26\n      jumpi\n      jump(tag_1)\n    tag_29:\n      dup1\n      0xa1ba90b6\n      eq\n      tag_20\n      jumpi\n      dup1\n      0xa87430ba\n      eq\n      tag_21\n      jumpi\n      dup1\n      0xd18a524a\n      eq\n      tag_22\n      jumpi\n      jump(tag_1)\n    tag_28:\n      dup1\n      0x6f764708\n      eq\n      tag_14\n      jumpi\n      dup1\n      0x7555bf10\n      eq\n      tag_15\n      jumpi\n      dup1\n      0x805553e8\n      eq\n      tag_16\n      jumpi\n      dup1\n      0x861c2b6d\n      eq\n      tag_17\n      jumpi\n      dup1\n      0x8da5cb5b\n      eq\n      tag_18\n      jumpi\n      dup1\n      0x9f1cd587\n      eq\n      tag_19\n      jumpi\n      jump(tag_1)\n    tag_27:\n      dup1\n      0x4bd4b507\n      gt\n      tag_30\n      jumpi\n      dup1\n      0x4bd4b507\n      eq\n      tag_8\n      jumpi\n      dup1\n      0x4f424547\n      eq\n      tag_9\n      jumpi\n      dup1\n      0x50b44712\n      eq\n      tag_10\n      jumpi\n      dup1\n      0x55dea0b3\n      eq\n      tag_11\n      jumpi\n      dup1\n      0x62dd748c\n      eq\n      tag_12\n      jumpi\n      dup1\n      0x66d0dc67\n      eq\n      tag_13\n      jumpi\n      jump(tag_1)\n    tag_30:\n      dup1\n      0x8de16a\n      eq\n      tag_2\n      jumpi\n      dup1\n      0x1cc11721\n      eq\n      tag_3\n      jumpi\n      dup1\n      0x27b90b1b\n      eq\n      tag_4\n      jumpi\n      dup1\n      0x3d527883\n      eq\n      tag_5\n      jumpi\n      dup1\n      0x3dfe7dee\n      eq\n      tag_6\n      jumpi\n      dup1\n      0x410085df\n      eq\n      tag_7\n      jumpi\n    tag_1:\n      0x00\n      dup1\n      revert\n        /* \"contracts/Test.sol\":4852:5093  function addItemsMarket(uint _inStock, uint _price, string calldata _name, uint _expDate) public {... */\n    tag_2:\n      callvalue\n      dup1\n      iszero\n      tag_31\n      jumpi\n      0x00\n      dup1\n      revert\n    tag_31:\n      pop\n      tag_32\n      0x04\n      dup1\n      calldatasize\n      sub\n      dup2\n      add\n      swap1\n      tag_33\n      swap2\n      swap1\n      tag_34\n      jump\t// in\n    tag_33:\n      tag_35\n      jump\t// in\n    tag_32:\n      stop\n        /* \"contracts/Test.sol\":248:285  DeliveryOrder[] public deliveryOrders */\n    tag_3:\n      callvalue\n      dup1\n      iszero\n      tag_36\n      jumpi\n      0x00\n      dup1\n      revert\n    tag_36:\n      pop\n      tag_37\n      0x04\n      dup1\n      calldatasize\n      sub\n      dup2\n      add\n      swap1\n      tag_38\n      swap2\n      swap1\n      tag_39\n      jump\t// in\n    tag_38:\n      tag_40\n      jump\t// in\n    tag_37:\n      mload(0x40)\n      tag_41\n      swap7\n      swap6\n      swap5\n      swap4\n      swap3\n      swap2\n      swap1\n      tag_42\n      jump\t// in\n    tag_41:\n      mload(0x40)\n      dup1\n      swap2\n      sub\n      swap1\n      return\n        /* \"contracts/Test.sol\":1072:1125  mapping(address => Product[]) public supplierProducts */\n    tag_4:\n      callvalue\n      dup1\n      iszero\n      tag_43\n      jumpi\n      0x00\n      dup1\n      revert\n    tag_43:\n      pop\n      tag_44\n      0x04\n      dup1\n      calldatasize\n      sub\n      dup2\n      add\n      swap1\n      tag_45\n      swap2\n      swap1\n      tag_46\n      jump\t// in\n    tag_45:\n      tag_47\n      jump\t// in\n    tag_44:\n      mload(0x40)\n      tag_48\n      swap6\n      swap5\n      swap4\n      swap3\n      swap2\n      swap1\n      tag_49\n      jump\t// in\n    tag_48:\n      mload(0x40)\n      dup1\n      swap2\n      sub\n      swap1\n      return\n        /* \"contracts/Test.sol\":960:1009  mapping(address => Product[]) public userProducts */\n    tag_5:\n      callvalue\n      dup1\n      iszero\n      tag_50\n      jumpi\n      0x00\n      dup1\n      revert\n    tag_50:\n      pop\n      tag_51\n      0x04\n      dup1\n      calldatasize\n      sub\n      dup2\n      add\n      swap1\n      tag_52\n      swap2\n      swap1\n      tag_46\n      jump\t// in\n    tag_52:\n      tag_53\n      jump\t// in\n    tag_51:\n      mload(0x40)\n      tag_54\n      swap6\n      swap5\n      swap4\n      swap3\n      swap2\n      swap1\n      tag_49\n      jump\t// in\n    tag_54:\n      mload(0x40)\n      dup1\n      swap2\n      sub\n      swap1\n      return\n        /* \"contracts/Test.sol\":1913:2003  function makeSupplier() public {... */\n    tag_6:\n      callvalue\n      dup1\n      iszero\n      tag_55\n      jumpi\n      0x00\n      dup1\n      revert\n    tag_55:\n      pop\n      tag_56\n      tag_57\n      jump\t// in\n    tag_56:\n      stop\n        /* \"contracts/Test.sol\":6438:6981  function refund(address _shop, uint _productId) public {... */\n    tag_7:\n      callvalue\n      dup1\n      iszero\n      tag_58\n      jumpi\n      0x00\n      dup1\n      revert\n    tag_58:\n      pop\n      tag_59\n      0x04\n      dup1\n      calldatasize\n      sub\n      dup2\n      add\n      swap1\n      tag_60\n      swap2\n      swap1\n      tag_46\n      jump\t// in\n    tag_60:\n      tag_61\n      jump\t// in\n    tag_59:\n      stop\n        /* \"contracts/Test.sol\":3860:4133  function approveDelivery(bool _status, uint _deliveryId, address ) public {... */\n    tag_8:\n      callvalue\n      dup1\n      iszero\n      tag_62\n      jumpi\n      0x00\n      dup1\n      revert\n    tag_62:\n      pop\n      tag_63\n      0x04\n      dup1\n      calldatasize\n      sub\n      dup2\n      add\n      swap1\n      tag_64\n      swap2\n      swap1\n      tag_65\n      jump\t// in\n    tag_64:\n      tag_66\n      jump\t// in\n    tag_63:\n      stop\n        /* \"contracts/Test.sol\":1015:1066  mapping(address => Product[]) public marketProducts */\n    tag_9:\n      callvalue\n      dup1\n      iszero\n      tag_67\n      jumpi\n      0x00\n      dup1\n      revert\n    tag_67:\n      pop\n      tag_68\n      0x04\n      dup1\n      calldatasize\n      sub\n      dup2\n      add\n      swap1\n      tag_69\n      swap2\n      swap1\n      tag_46\n      jump\t// in\n    tag_69:\n      tag_70\n      jump\t// in\n    tag_68:\n      mload(0x40)\n      tag_71\n      swap6\n      swap5\n      swap4\n      swap3\n      swap2\n      swap1\n      tag_49\n      jump\t// in\n    tag_71:\n      mload(0x40)\n      dup1\n      swap2\n      sub\n      swap1\n      return\n        /* \"contracts/Test.sol\":193:216  Ticket[] public tickets */\n    tag_10:\n      callvalue\n      dup1\n      iszero\n      tag_72\n      jumpi\n      0x00\n      dup1\n      revert\n    tag_72:\n      pop\n      tag_73\n      0x04\n      dup1\n      calldatasize\n      sub\n      dup2\n      add\n      swap1\n      tag_74\n      swap2\n      swap1\n      tag_39\n      jump\t// in\n    tag_74:\n      tag_75\n      jump\t// in\n    tag_73:\n      mload(0x40)\n      tag_76\n      swap3\n      swap2\n      swap1\n      tag_77\n      jump\t// in\n    tag_76:\n      mload(0x40)\n      dup1\n      swap2\n      sub\n      swap1\n      return\n        /* \"contracts/Test.sol\":2398:2493  function changeRole(Role _role) public {... */\n    tag_11:\n      callvalue\n      dup1\n      iszero\n      tag_78\n      jumpi\n      0x00\n      dup1\n      revert\n    tag_78:\n      pop\n      tag_79\n      0x04\n      dup1\n      calldatasize\n      sub\n      dup2\n      add\n      swap1\n      tag_80\n      swap2\n      swap1\n      tag_81\n      jump\t// in\n    tag_80:\n      tag_82\n      jump\t// in\n    tag_79:\n      stop\n        /* \"contracts/Test.sol\":2717:3107  function toUpper(string memory input) public pure returns (string memory) {... */\n    tag_12:\n      callvalue\n      dup1\n      iszero\n      tag_83\n      jumpi\n      0x00\n      dup1\n      revert\n    tag_83:\n      pop\n      tag_84\n      0x04\n      dup1\n      calldatasize\n      sub\n      dup2\n      add\n      swap1\n      tag_85\n      swap2\n      swap1\n      tag_86\n      jump\t// in\n    tag_85:\n      tag_87\n      jump\t// in\n    tag_84:\n      mload(0x40)\n      tag_88\n      swap2\n      swap1\n      tag_89\n      jump\t// in\n    tag_88:\n      mload(0x40)\n      dup1\n      swap2\n      sub\n      swap1\n      return\n        /* \"contracts/Test.sol\":2009:2096  function makeMarket() public  {... */\n    tag_13:\n      callvalue\n      dup1\n      iszero\n      tag_90\n      jumpi\n      0x00\n      dup1\n      revert\n    tag_90:\n      pop\n      tag_91\n      tag_92\n      jump\t// in\n    tag_91:\n      stop\n        /* \"contracts/Test.sol\":2102:2392  function approveChangeRole(uint _idTicket) public OnlyOwner {... */\n    tag_14:\n      callvalue\n      dup1\n      iszero\n      tag_93\n      jumpi\n      0x00\n      dup1\n      revert\n    tag_93:\n      pop\n      tag_94\n      0x04\n      dup1\n      calldatasize\n      sub\n      dup2\n      add\n      swap1\n      tag_95\n      swap2\n      swap1\n      tag_39\n      jump\t// in\n    tag_95:\n      tag_96\n      jump\t// in\n    tag_94:\n      stop\n        /* \"contracts/Test.sol\":3264:3854  function makeDelivery(address _shop, uint _productId, uint _amount) public {... */\n    tag_15:\n      callvalue\n      dup1\n      iszero\n      tag_97\n      jumpi\n      0x00\n      dup1\n      revert\n    tag_97:\n      pop\n      tag_98\n      0x04\n      dup1\n      calldatasize\n      sub\n      dup2\n      add\n      swap1\n      tag_99\n      swap2\n      swap1\n      tag_100\n      jump\t// in\n    tag_99:\n      tag_101\n      jump\t// in\n    tag_98:\n      stop\n        /* \"contracts/Test.sol\":2499:2711  function randMod(uint _modulus) public view returns(uint) {   ... */\n    tag_16:\n      callvalue\n      dup1\n      iszero\n      tag_102\n      jumpi\n      0x00\n      dup1\n      revert\n    tag_102:\n      pop\n      tag_103\n      0x04\n      dup1\n      calldatasize\n      sub\n      dup2\n      add\n      swap1\n      tag_104\n      swap2\n      swap1\n      tag_39\n      jump\t// in\n    tag_104:\n      tag_105\n      jump\t// in\n    tag_103:\n      mload(0x40)\n      tag_106\n      swap2\n      swap1\n      tag_107\n      jump\t// in\n    tag_106:\n      mload(0x40)\n      dup1\n      swap2\n      sub\n      swap1\n      return\n        /* \"contracts/Test.sol\":4532:4846  function addItemsSupplier(uint _inStock, uint _price, string calldata _name, uint _expDate, address _addressSupp) public AccessControl(Role.Supplier, _addressSupp) {... */\n    tag_17:\n      callvalue\n      dup1\n      iszero\n      tag_108\n      jumpi\n      0x00\n      dup1\n      revert\n    tag_108:\n      pop\n      tag_109\n      0x04\n      dup1\n      calldatasize\n      sub\n      dup2\n      add\n      swap1\n      tag_110\n      swap2\n      swap1\n      tag_111\n      jump\t// in\n    tag_110:\n      tag_112\n      jump\t// in\n    tag_109:\n      stop\n        /* \"contracts/Test.sol\":222:242  address public owner */\n    tag_18:\n      callvalue\n      dup1\n      iszero\n      tag_113\n      jumpi\n      0x00\n      dup1\n      revert\n    tag_113:\n      pop\n      tag_114\n      tag_115\n      jump\t// in\n    tag_114:\n      mload(0x40)\n      tag_116\n      swap2\n      swap1\n      tag_117\n      jump\t// in\n    tag_116:\n      mload(0x40)\n      dup1\n      swap2\n      sub\n      swap1\n      return\n        /* \"contracts/Test.sol\":6987:8583  function purchase(address _shop, uint _amount, uint _id, string memory _ref ) public payable {... */\n    tag_19:\n      tag_118\n      0x04\n      dup1\n      calldatasize\n      sub\n      dup2\n      add\n      swap1\n      tag_119\n      swap2\n      swap1\n      tag_120\n      jump\t// in\n    tag_119:\n      tag_121\n      jump\t// in\n    tag_118:\n      stop\n        /* \"contracts/Test.sol\":3113:3257  function genRef(string memory _nameRef, address _user) public {... */\n    tag_20:\n      callvalue\n      dup1\n      iszero\n      tag_122\n      jumpi\n      0x00\n      dup1\n      revert\n    tag_122:\n      pop\n      tag_123\n      0x04\n      dup1\n      calldatasize\n      sub\n      dup2\n      add\n      swap1\n      tag_124\n      swap2\n      swap1\n      tag_125\n      jump\t// in\n    tag_124:\n      tag_126\n      jump\t// in\n    tag_123:\n      stop\n        /* \"contracts/Test.sol\":917:954  mapping(address => User) public users */\n    tag_21:\n      callvalue\n      dup1\n      iszero\n      tag_127\n      jumpi\n      0x00\n      dup1\n      revert\n    tag_127:\n      pop\n      tag_128\n      0x04\n      dup1\n      calldatasize\n      sub\n      dup2\n      add\n      swap1\n      tag_129\n      swap2\n      swap1\n      tag_130\n      jump\t// in\n    tag_129:\n      tag_131\n      jump\t// in\n    tag_128:\n      mload(0x40)\n      tag_132\n      swap3\n      swap2\n      swap1\n      tag_133\n      jump\t// in\n    tag_132:\n      mload(0x40)\n      dup1\n      swap2\n      sub\n      swap1\n      return\n        /* \"contracts/Test.sol\":1825:1907  function makeUser() public {... */\n    tag_22:\n      callvalue\n      dup1\n      iszero\n      tag_134\n      jumpi\n      0x00\n      dup1\n      revert\n    tag_134:\n      pop\n      tag_135\n      tag_136\n      jump\t// in\n    tag_135:\n      stop\n        /* \"contracts/Test.sol\":1131:1174  mapping(string => address) public referrals */\n    tag_23:\n      callvalue\n      dup1\n      iszero\n      tag_137\n      jumpi\n      0x00\n      dup1\n      revert\n    tag_137:\n      pop\n      tag_138\n      0x04\n      dup1\n      calldatasize\n      sub\n      dup2\n      add\n      swap1\n      tag_139\n      swap2\n      swap1\n      tag_86\n      jump\t// in\n    tag_139:\n      tag_140\n      jump\t// in\n    tag_138:\n      mload(0x40)\n      tag_141\n      swap2\n      swap1\n      tag_117\n      jump\t// in\n    tag_141:\n      mload(0x40)\n      dup1\n      swap2\n      sub\n      swap1\n      return\n        /* \"contracts/Test.sol\":4139:4526  function acceptDelivery(bool _status, uint _deliveryId) public payable {... */\n    tag_24:\n      tag_142\n      0x04\n      dup1\n      calldatasize\n      sub\n      dup2\n      add\n      swap1\n      tag_143\n      swap2\n      swap1\n      tag_144\n      jump\t// in\n    tag_143:\n      tag_145\n      jump\t// in\n    tag_142:\n      stop\n        /* \"contracts/Test.sol\":8589:8694  function withdrawBal(address _shop) public {... */\n    tag_25:\n      callvalue\n      dup1\n      iszero\n      tag_146\n      jumpi\n      0x00\n      dup1\n      revert\n    tag_146:\n      pop\n      tag_147\n      0x04\n      dup1\n      calldatasize\n      sub\n      dup2\n      add\n      swap1\n      tag_148\n      swap2\n      swap1\n      tag_130\n      jump\t// in\n    tag_148:\n      tag_149\n      jump\t// in\n    tag_147:\n      stop\n        /* \"contracts/Test.sol\":5104:6432  function refillStore(address _shop, uint _productId, uint _amount, address _supplier) public payable AccessControl(Role.Market, _shop) {... */\n    tag_26:\n      tag_150\n      0x04\n      dup1\n      calldatasize\n      sub\n      dup2\n      add\n      swap1\n      tag_151\n      swap2\n      swap1\n      tag_152\n      jump\t// in\n    tag_151:\n      tag_153\n      jump\t// in\n    tag_150:\n      stop\n        /* \"contracts/Test.sol\":4852:5093  function addItemsMarket(uint _inStock, uint _price, string calldata _name, uint _expDate) public {... */\n    tag_35:\n        /* \"contracts/Test.sol\":4959:4978  Product memory item */\n      0x00\n        /* \"contracts/Test.sol\":4981:5039  Product(msg.sender, _inStock, _price / 2, _name, _expDate) */\n      mload(0x40)\n      dup1\n      0xa0\n      add\n      0x40\n      mstore\n      dup1\n        /* \"contracts/Test.sol\":4989:4999  msg.sender */\n      caller\n        /* \"contracts/Test.sol\":4981:5039  Product(msg.sender, _inStock, _price / 2, _name, _expDate) */\n      0xffffffffffffffffffffffffffffffffffffffff\n      and\n      dup2\n      mstore\n      0x20\n      add\n        /* \"contracts/Test.sol\":5001:5009  _inStock */\n      dup8\n        /* \"contracts/Test.sol\":4981:5039  Product(msg.sender, _inStock, _price / 2, _name, _expDate) */\n      dup2\n      mstore\n      0x20\n      add\n        /* \"contracts/Test.sol\":5020:5021  2 */\n      0x02\n        /* \"contracts/Test.sol\":5011:5017  _price */\n      dup8\n        /* \"contracts/Test.sol\":5011:5021  _price / 2 */\n      tag_155\n      swap2\n      swap1\n      tag_156\n      jump\t// in\n    tag_155:\n        /* \"contracts/Test.sol\":4981:5039  Product(msg.sender, _inStock, _price / 2, _name, _expDate) */\n      dup2\n      mstore\n      0x20\n      add\n        /* \"contracts/Test.sol\":5023:5028  _name */\n      dup6\n      dup6\n        /* \"contracts/Test.sol\":4981:5039  Product(msg.sender, _inStock, _price / 2, _name, _expDate) */\n      dup1\n      dup1\n      0x1f\n      add\n      0x20\n      dup1\n      swap2\n      div\n      mul\n      0x20\n      add\n      mload(0x40)\n      swap1\n      dup2\n      add\n      0x40\n      mstore\n      dup1\n      swap4\n      swap3\n      swap2\n      swap1\n      dup2\n      dup2\n      mstore\n      0x20\n      add\n      dup4\n      dup4\n      dup1\n      dup3\n      dup5\n      calldatacopy\n      0x00\n      dup2\n      dup5\n      add\n      mstore\n      not(0x1f)\n      0x1f\n      dup3\n      add\n      and\n      swap1\n      pop\n      dup1\n      dup4\n      add\n      swap3\n      pop\n      pop\n      pop\n      pop\n      pop\n      pop\n      pop\n      dup2\n      mstore\n      0x20\n      add\n        /* \"contracts/Test.sol\":5030:5038  _expDate */\n      dup4\n        /* \"contracts/Test.sol\":4981:5039  Product(msg.sender, _inStock, _price / 2, _name, _expDate) */\n      dup2\n      mstore\n      pop\n        /* \"contracts/Test.sol\":4959:5039  Product memory item = Product(msg.sender, _inStock, _price / 2, _name, _expDate) */\n      swap1\n      pop\n        /* \"contracts/Test.sol\":5049:5063  marketProducts */\n      0x05\n        /* \"contracts/Test.sol\":5049:5075  marketProducts[msg.sender] */\n      0x00\n        /* \"contracts/Test.sol\":5064:5074  msg.sender */\n      caller\n        /* \"contracts/Test.sol\":5049:5075  marketProducts[msg.sender] */\n      0xffffffffffffffffffffffffffffffffffffffff\n      and\n      0xffffffffffffffffffffffffffffffffffffffff\n      and\n      dup2\n      mstore\n      0x20\n      add\n      swap1\n      dup2\n      mstore\n      0x20\n      add\n      0x00\n      keccak256\n        /* \"contracts/Test.sol\":5081:5085  item */\n      dup2\n        /* \"contracts/Test.sol\":5049:5086  marketProducts[msg.sender].push(item) */\n      swap1\n      dup1\n      0x01\n      dup2\n      sload\n      add\n      dup1\n      dup3\n      sstore\n      dup1\n      swap2\n      pop\n      pop\n      0x01\n      swap1\n      sub\n      swap1\n      0x00\n      mstore\n      keccak256(0x00, 0x20)\n      swap1\n      0x05\n      mul\n      add\n      0x00\n      swap1\n      swap2\n      swap1\n      swap2\n      swap1\n      swap2\n      pop\n      0x00\n      dup3\n      add\n      mload\n      dup2\n      0x00\n      add\n      exp(0x0100, 0x00)\n      dup2\n      sload\n      dup2\n      0xffffffffffffffffffffffffffffffffffffffff\n      mul\n      not\n      and\n      swap1\n      dup4\n      0xffffffffffffffffffffffffffffffffffffffff\n      and\n      mul\n      or\n      swap1\n      sstore\n      pop\n      0x20\n      dup3\n      add\n      mload\n      dup2\n      0x01\n      add\n      sstore\n      0x40\n      dup3\n      add\n      mload\n      dup2\n      0x02\n      add\n      sstore\n      0x60\n      dup3\n      add\n      mload\n      dup2\n      0x03\n      add\n      swap1\n      dup2\n      tag_158\n      swap2\n      swap1\n      tag_159\n      jump\t// in\n    tag_158:\n      pop\n      0x80\n      dup3\n      add\n      mload\n      dup2\n      0x04\n      add\n      sstore\n      pop\n      pop\n        /* \"contracts/Test.sol\":4949:5093  {... */\n      pop\n        /* \"contracts/Test.sol\":4852:5093  function addItemsMarket(uint _inStock, uint _price, string calldata _name, uint _expDate) public {... */\n      pop\n      pop\n      pop\n      pop\n      pop\n      jump\t// out\n        /* \"contracts/Test.sol\":248:285  DeliveryOrder[] public deliveryOrders */\n    tag_40:\n      0x02\n      dup2\n      dup2\n      sload\n      dup2\n      lt\n      tag_160\n      jumpi\n      0x00\n      dup1\n      revert\n    tag_160:\n      swap1\n      0x00\n      mstore\n      keccak256(0x00, 0x20)\n      swap1\n      0x05\n      mul\n      add\n      0x00\n      swap2\n      pop\n      swap1\n      pop\n      dup1\n      0x00\n      add\n      0x00\n      swap1\n      sload\n      swap1\n      0x0100\n      exp\n      swap1\n      div\n      0xffffffffffffffffffffffffffffffffffffffff\n      and\n      swap1\n      dup1\n      0x01\n      add\n      0x00\n      swap1\n      sload\n      swap1\n      0x0100\n      exp\n      swap1\n      div\n      0xffffffffffffffffffffffffffffffffffffffff\n      and\n      swap1\n      dup1\n      0x01\n      add\n      0x14\n      swap1\n      sload\n      swap1\n      0x0100\n      exp\n      swap1\n      div\n      0xff\n      and\n      swap1\n      dup1\n      0x02\n      add\n      dup1\n      sload\n      tag_162\n      swap1\n      tag_163\n      jump\t// in\n    tag_162:\n      dup1\n      0x1f\n      add\n      0x20\n      dup1\n      swap2\n      div\n      mul\n      0x20\n      add\n      mload(0x40)\n      swap1\n      dup2\n      add\n      0x40\n      mstore\n      dup1\n      swap3\n      swap2\n      swap1\n      dup2\n      dup2\n      mstore\n      0x20\n      add\n      dup3\n      dup1\n      sload\n      tag_164\n      swap1\n      tag_163\n      jump\t// in\n    tag_164:\n      dup1\n      iszero\n      tag_165\n      jumpi\n      dup1\n      0x1f\n      lt\n      tag_166\n      jumpi\n      0x0100\n      dup1\n      dup4\n      sload\n      div\n      mul\n      dup4\n      mstore\n      swap2\n      0x20\n      add\n      swap2\n      jump(tag_165)\n    tag_166:\n      dup3\n      add\n      swap2\n      swap1\n      0x00\n      mstore\n      keccak256(0x00, 0x20)\n      swap1\n    tag_167:\n      dup2\n      sload\n      dup2\n      mstore\n      swap1\n      0x01\n      add\n      swap1\n      0x20\n      add\n      dup1\n      dup4\n      gt\n      tag_167\n      jumpi\n      dup3\n      swap1\n      sub\n      0x1f\n      and\n      dup3\n      add\n      swap2\n    tag_165:\n      pop\n      pop\n      pop\n      pop\n      pop\n      swap1\n      dup1\n      0x03\n      add\n      sload\n      swap1\n      dup1\n      0x04\n      add\n      sload\n      swap1\n      pop\n      dup7\n      jump\t// out\n        /* \"contracts/Test.sol\":1072:1125  mapping(address => Product[]) public supplierProducts */\n    tag_47:\n      mstore(0x20, 0x06)\n      dup2\n      0x00\n      mstore\n      keccak256(0x00, 0x40)\n      dup2\n      dup2\n      sload\n      dup2\n      lt\n      tag_168\n      jumpi\n      0x00\n      dup1\n      revert\n    tag_168:\n      swap1\n      0x00\n      mstore\n      keccak256(0x00, 0x20)\n      swap1\n      0x05\n      mul\n      add\n      0x00\n      swap2\n      pop\n      swap2\n      pop\n      pop\n      dup1\n      0x00\n      add\n      0x00\n      swap1\n      sload\n      swap1\n      0x0100\n      exp\n      swap1\n      div\n      0xffffffffffffffffffffffffffffffffffffffff\n      and\n      swap1\n      dup1\n      0x01\n      add\n      sload\n      swap1\n      dup1\n      0x02\n      add\n      sload\n      swap1\n      dup1\n      0x03\n      add\n      dup1\n      sload\n      tag_170\n      swap1\n      tag_163\n      jump\t// in\n    tag_170:\n      dup1\n      0x1f\n      add\n      0x20\n      dup1\n      swap2\n      div\n      mul\n      0x20\n      add\n      mload(0x40)\n      swap1\n      dup2\n      add\n      0x40\n      mstore\n      dup1\n      swap3\n      swap2\n      swap1\n      dup2\n      dup2\n      mstore\n      0x20\n      add\n      dup3\n      dup1\n      sload\n      tag_171\n      swap1\n      tag_163\n      jump\t// in\n    tag_171:\n      dup1\n      iszero\n      tag_172\n      jumpi\n      dup1\n      0x1f\n      lt\n      tag_173\n      jumpi\n      0x0100\n      dup1\n      dup4\n      sload\n      div\n      mul\n      dup4\n      mstore\n      swap2\n      0x20\n      add\n      swap2\n      jump(tag_172)\n    tag_173:\n      dup3\n      add\n      swap2\n      swap1\n      0x00\n      mstore\n      keccak256(0x00, 0x20)\n      swap1\n    tag_174:\n      dup2\n      sload\n      dup2\n      mstore\n      swap1\n      0x01\n      add\n      swap1\n      0x20\n      add\n      dup1\n      dup4\n      gt\n      tag_174\n      jumpi\n      dup3\n      swap1\n      sub\n      0x1f\n      and\n      dup3\n      add\n      swap2\n    tag_172:\n      pop\n      pop\n      pop\n      pop\n      pop\n      swap1\n      dup1\n      0x04\n      add\n      sload\n      swap1\n      pop\n      dup6\n      jump\t// out\n        /* \"contracts/Test.sol\":960:1009  mapping(address => Product[]) public userProducts */\n    tag_53:\n      mstore(0x20, 0x04)\n      dup2\n      0x00\n      mstore\n      keccak256(0x00, 0x40)\n      dup2\n      dup2\n      sload\n      dup2\n      lt\n      tag_175\n      jumpi\n      0x00\n      dup1\n      revert\n    tag_175:\n      swap1\n      0x00\n      mstore\n      keccak256(0x00, 0x20)\n      swap1\n      0x05\n      mul\n      add\n      0x00\n      swap2\n      pop\n      swap2\n      pop\n      pop\n      dup1\n      0x00\n      add\n      0x00\n      swap1\n      sload\n      swap1\n      0x0100\n      exp\n      swap1\n      div\n      0xffffffffffffffffffffffffffffffffffffffff\n      and\n      swap1\n      dup1\n      0x01\n      add\n      sload\n      swap1\n      dup1\n      0x02\n      add\n      sload\n      swap1\n      dup1\n      0x03\n      add\n      dup1\n      sload\n      tag_177\n      swap1\n      tag_163\n      jump\t// in\n    tag_177:\n      dup1\n      0x1f\n      add\n      0x20\n      dup1\n      swap2\n      div\n      mul\n      0x20\n      add\n      mload(0x40)\n      swap1\n      dup2\n      add\n      0x40\n      mstore\n      dup1\n      swap3\n      swap2\n      swap1\n      dup2\n      dup2\n      mstore\n      0x20\n      add\n      dup3\n      dup1\n      sload\n      tag_178\n      swap1\n      tag_163\n      jump\t// in\n    tag_178:\n      dup1\n      iszero\n      tag_179\n      jumpi\n      dup1\n      0x1f\n      lt\n      tag_180\n      jumpi\n      0x0100\n      dup1\n      dup4\n      sload\n      div\n      mul\n      dup4\n      mstore\n      swap2\n      0x20\n      add\n      swap2\n      jump(tag_179)\n    tag_180:\n      dup3\n      add\n      swap2\n      swap1\n      0x00\n      mstore\n      keccak256(0x00, 0x20)\n      swap1\n    tag_181:\n      dup2\n      sload\n      dup2\n      mstore\n      swap1\n      0x01\n      add\n      swap1\n      0x20\n      add\n      dup1\n      dup4\n      gt\n      tag_181\n      jumpi\n      dup3\n      swap1\n      sub\n      0x1f\n      and\n      dup3\n      add\n      swap2\n    tag_179:\n      pop\n      pop\n      pop\n      pop\n      pop\n      swap1\n      dup1\n      0x04\n      add\n      sload\n      swap1\n      pop\n      dup6\n      jump\t// out\n        /* \"contracts/Test.sol\":1913:2003  function makeSupplier() public {... */\n    tag_57:\n        /* \"contracts/Test.sol\":1974:1996  User(Role.Supplier, 0) */\n      mload(0x40)\n      dup1\n      0x40\n      add\n      0x40\n      mstore\n      dup1\n        /* \"contracts/Test.sol\":1979:1992  Role.Supplier */\n      0x02\n        /* \"contracts/Test.sol\":1974:1996  User(Role.Supplier, 0) */\n      dup1\n      dup2\n      gt\n      iszero\n      tag_183\n      jumpi\n      tag_184\n      tag_185\n      jump\t// in\n    tag_184:\n    tag_183:\n      dup2\n      mstore\n      0x20\n      add\n        /* \"contracts/Test.sol\":1994:1995  0 */\n      0x00\n        /* \"contracts/Test.sol\":1974:1996  User(Role.Supplier, 0) */\n      dup2\n      mstore\n      pop\n        /* \"contracts/Test.sol\":1954:1959  users */\n      0x03\n        /* \"contracts/Test.sol\":1954:1971  users[msg.sender] */\n      0x00\n        /* \"contracts/Test.sol\":1960:1970  msg.sender */\n      caller\n        /* \"contracts/Test.sol\":1954:1971  users[msg.sender] */\n      0xffffffffffffffffffffffffffffffffffffffff\n      and\n      0xffffffffffffffffffffffffffffffffffffffff\n      and\n      dup2\n      mstore\n      0x20\n      add\n      swap1\n      dup2\n      mstore\n      0x20\n      add\n      0x00\n      keccak256\n        /* \"contracts/Test.sol\":1954:1996  users[msg.sender] = User(Role.Supplier, 0) */\n      0x00\n      dup3\n      add\n      mload\n      dup2\n      0x00\n      add\n      exp(0x0100, 0x00)\n      dup2\n      sload\n      dup2\n      0xff\n      mul\n      not\n      and\n      swap1\n      dup4\n      0x02\n      dup2\n      gt\n      iszero\n      tag_186\n      jumpi\n      tag_187\n      tag_185\n      jump\t// in\n    tag_187:\n    tag_186:\n      mul\n      or\n      swap1\n      sstore\n      pop\n      0x20\n      dup3\n      add\n      mload\n      dup2\n      0x01\n      add\n      sstore\n      swap1\n      pop\n      pop\n        /* \"contracts/Test.sol\":1913:2003  function makeSupplier() public {... */\n      jump\t// out\n        /* \"contracts/Test.sol\":6438:6981  function refund(address _shop, uint _productId) public {... */\n    tag_61:\n        /* \"contracts/Test.sol\":6558:6572  marketProducts */\n      0x05\n        /* \"contracts/Test.sol\":6558:6579  marketProducts[_shop] */\n      0x00\n        /* \"contracts/Test.sol\":6573:6578  _shop */\n      dup4\n        /* \"contracts/Test.sol\":6558:6579  marketProducts[_shop] */\n      0xffffffffffffffffffffffffffffffffffffffff\n      and\n      0xffffffffffffffffffffffffffffffffffffffff\n      and\n      dup2\n      mstore\n      0x20\n      add\n      swap1\n      dup2\n      mstore\n      0x20\n      add\n      0x00\n      keccak256\n        /* \"contracts/Test.sol\":6580:6590  _productId */\n      dup2\n        /* \"contracts/Test.sol\":6558:6591  marketProducts[_shop][_productId] */\n      dup2\n      sload\n      dup2\n      lt\n      tag_189\n      jumpi\n      tag_190\n      tag_191\n      jump\t// in\n    tag_190:\n    tag_189:\n      swap1\n      0x00\n      mstore\n      keccak256(0x00, 0x20)\n      swap1\n      0x05\n      mul\n      add\n        /* \"contracts/Test.sol\":6558:6599  marketProducts[_shop][_productId].expDate */\n      0x04\n      add\n      sload\n        /* \"contracts/Test.sol\":6511:6523  userProducts */\n      0x04\n        /* \"contracts/Test.sol\":6511:6535  userProducts[msg.sender] */\n      0x00\n        /* \"contracts/Test.sol\":6524:6534  msg.sender */\n      caller\n        /* \"contracts/Test.sol\":6511:6535  userProducts[msg.sender] */\n      0xffffffffffffffffffffffffffffffffffffffff\n      and\n      0xffffffffffffffffffffffffffffffffffffffff\n      and\n      dup2\n      mstore\n      0x20\n      add\n      swap1\n      dup2\n      mstore\n      0x20\n      add\n      0x00\n      keccak256\n        /* \"contracts/Test.sol\":6536:6546  _productId */\n      dup3\n        /* \"contracts/Test.sol\":6511:6547  userProducts[msg.sender][_productId] */\n      dup2\n      sload\n      dup2\n      lt\n      tag_193\n      jumpi\n      tag_194\n      tag_191\n      jump\t// in\n    tag_194:\n    tag_193:\n      swap1\n      0x00\n      mstore\n      keccak256(0x00, 0x20)\n      swap1\n      0x05\n      mul\n      add\n        /* \"contracts/Test.sol\":6511:6555  userProducts[msg.sender][_productId].expDate */\n      0x04\n      add\n      sload\n        /* \"contracts/Test.sol\":6511:6599  userProducts[msg.sender][_productId].expDate > marketProducts[_shop][_productId].expDate */\n      gt\n        /* \"contracts/Test.sol\":6503:6600  require(userProducts[msg.sender][_productId].expDate > marketProducts[_shop][_productId].expDate) */\n      tag_196\n      jumpi\n      0x00\n      dup1\n      revert\n    tag_196:\n        /* \"contracts/Test.sol\":6610:6626  uint totalRefSum */\n      0x00\n        /* \"contracts/Test.sol\":6719:6726  1 ether */\n      0x0de0b6b3a7640000\n        /* \"contracts/Test.sol\":6677:6691  marketProducts */\n      0x05\n        /* \"contracts/Test.sol\":6677:6698  marketProducts[_shop] */\n      0x00\n        /* \"contracts/Test.sol\":6692:6697  _shop */\n      dup6\n        /* \"contracts/Test.sol\":6677:6698  marketProducts[_shop] */\n      0xffffffffffffffffffffffffffffffffffffffff\n      and\n      0xffffffffffffffffffffffffffffffffffffffff\n      and\n      dup2\n      mstore\n      0x20\n      add\n      swap1\n      dup2\n      mstore\n      0x20\n      add\n      0x00\n      keccak256\n        /* \"contracts/Test.sol\":6699:6709  _productId */\n      dup4\n        /* \"contracts/Test.sol\":6677:6710  marketProducts[_shop][_productId] */\n      dup2\n      sload\n      dup2\n      lt\n      tag_197\n      jumpi\n      tag_198\n      tag_191\n      jump\t// in\n    tag_198:\n    tag_197:\n      swap1\n      0x00\n      mstore\n      keccak256(0x00, 0x20)\n      swap1\n      0x05\n      mul\n      add\n        /* \"contracts/Test.sol\":6677:6716  marketProducts[_shop][_productId].price */\n      0x02\n      add\n      sload\n        /* \"contracts/Test.sol\":6630:6642  userProducts */\n      0x04\n        /* \"contracts/Test.sol\":6630:6654  userProducts[msg.sender] */\n      0x00\n        /* \"contracts/Test.sol\":6643:6653  msg.sender */\n      caller\n        /* \"contracts/Test.sol\":6630:6654  userProducts[msg.sender] */\n      0xffffffffffffffffffffffffffffffffffffffff\n      and\n      0xffffffffffffffffffffffffffffffffffffffff\n      and\n      dup2\n      mstore\n      0x20\n      add\n      swap1\n      dup2\n      mstore\n      0x20\n      add\n      0x00\n      keccak256\n        /* \"contracts/Test.sol\":6655:6665  _productId */\n      dup5\n        /* \"contracts/Test.sol\":6630:6666  userProducts[msg.sender][_productId] */\n      dup2\n      sload\n      dup2\n      lt\n      tag_200\n      jumpi\n      tag_201\n      tag_191\n      jump\t// in\n    tag_201:\n    tag_200:\n      swap1\n      0x00\n      mstore\n      keccak256(0x00, 0x20)\n      swap1\n      0x05\n      mul\n      add\n        /* \"contracts/Test.sol\":6630:6674  userProducts[msg.sender][_productId].inStock */\n      0x01\n      add\n      sload\n        /* \"contracts/Test.sol\":6630:6716  userProducts[msg.sender][_productId].inStock * marketProducts[_shop][_productId].price */\n      tag_203\n      swap2\n      swap1\n      tag_204\n      jump\t// in\n    tag_203:\n        /* \"contracts/Test.sol\":6630:6726  userProducts[msg.sender][_productId].inStock * marketProducts[_shop][_productId].price * 1 ether */\n      tag_205\n      swap2\n      swap1\n      tag_204\n      jump\t// in\n    tag_205:\n        /* \"contracts/Test.sol\":6610:6726  uint totalRefSum =  userProducts[msg.sender][_productId].inStock * marketProducts[_shop][_productId].price * 1 ether */\n      swap1\n      pop\n        /* \"contracts/Test.sol\":6781:6793  userProducts */\n      0x04\n        /* \"contracts/Test.sol\":6781:6805  userProducts[msg.sender] */\n      0x00\n        /* \"contracts/Test.sol\":6794:6804  msg.sender */\n      caller\n        /* \"contracts/Test.sol\":6781:6805  userProducts[msg.sender] */\n      0xffffffffffffffffffffffffffffffffffffffff\n      and\n      0xffffffffffffffffffffffffffffffffffffffff\n      and\n      dup2\n      mstore\n      0x20\n      add\n      swap1\n      dup2\n      mstore\n      0x20\n      add\n      0x00\n      keccak256\n        /* \"contracts/Test.sol\":6806:6816  _productId */\n      dup3\n        /* \"contracts/Test.sol\":6781:6817  userProducts[msg.sender][_productId] */\n      dup2\n      sload\n      dup2\n      lt\n      tag_206\n      jumpi\n      tag_207\n      tag_191\n      jump\t// in\n    tag_207:\n    tag_206:\n      swap1\n      0x00\n      mstore\n      keccak256(0x00, 0x20)\n      swap1\n      0x05\n      mul\n      add\n        /* \"contracts/Test.sol\":6781:6825  userProducts[msg.sender][_productId].inStock */\n      0x01\n      add\n      sload\n        /* \"contracts/Test.sol\":6736:6750  marketProducts */\n      0x05\n        /* \"contracts/Test.sol\":6736:6757  marketProducts[_shop] */\n      0x00\n        /* \"contracts/Test.sol\":6751:6756  _shop */\n      dup6\n        /* \"contracts/Test.sol\":6736:6757  marketProducts[_shop] */\n      0xffffffffffffffffffffffffffffffffffffffff\n      and\n      0xffffffffffffffffffffffffffffffffffffffff\n      and\n      dup2\n      mstore\n      0x20\n      add\n      swap1\n      dup2\n      mstore\n      0x20\n      add\n      0x00\n      keccak256\n        /* \"contracts/Test.sol\":6758:6768  _productId */\n      dup4\n        /* \"contracts/Test.sol\":6736:6769  marketProducts[_shop][_productId] */\n      dup2\n      sload\n      dup2\n      lt\n      tag_209\n      jumpi\n      tag_210\n      tag_191\n      jump\t// in\n    tag_210:\n    tag_209:\n      swap1\n      0x00\n      mstore\n      keccak256(0x00, 0x20)\n      swap1\n      0x05\n      mul\n      add\n        /* \"contracts/Test.sol\":6736:6777  marketProducts[_shop][_productId].inStock */\n      0x01\n      add\n      0x00\n        /* \"contracts/Test.sol\":6736:6825  marketProducts[_shop][_productId].inStock += userProducts[msg.sender][_productId].inStock */\n      dup3\n      dup3\n      sload\n      tag_212\n      swap2\n      swap1\n      tag_213\n      jump\t// in\n    tag_212:\n      swap3\n      pop\n      pop\n      dup2\n      swap1\n      sstore\n      pop\n        /* \"contracts/Test.sol\":6842:6854  userProducts */\n      0x04\n        /* \"contracts/Test.sol\":6842:6866  userProducts[msg.sender] */\n      0x00\n        /* \"contracts/Test.sol\":6855:6865  msg.sender */\n      caller\n        /* \"contracts/Test.sol\":6842:6866  userProducts[msg.sender] */\n      0xffffffffffffffffffffffffffffffffffffffff\n      and\n      0xffffffffffffffffffffffffffffffffffffffff\n      and\n      dup2\n      mstore\n      0x20\n      add\n      swap1\n      dup2\n      mstore\n      0x20\n      add\n      0x00\n      keccak256\n        /* \"contracts/Test.sol\":6867:6877  _productId */\n      dup3\n        /* \"contracts/Test.sol\":6842:6878  userProducts[msg.sender][_productId] */\n      dup2\n      sload\n      dup2\n      lt\n      tag_214\n      jumpi\n      tag_215\n      tag_191\n      jump\t// in\n    tag_215:\n    tag_214:\n      swap1\n      0x00\n      mstore\n      keccak256(0x00, 0x20)\n      swap1\n      0x05\n      mul\n      add\n      0x00\n        /* \"contracts/Test.sol\":6835:6878  delete userProducts[msg.sender][_productId] */\n      dup1\n      dup3\n      add\n      exp(0x0100, 0x00)\n      dup2\n      sload\n      swap1\n      0xffffffffffffffffffffffffffffffffffffffff\n      mul\n      not\n      and\n      swap1\n      sstore\n      0x01\n      dup3\n      add\n      0x00\n      swap1\n      sstore\n      0x02\n      dup3\n      add\n      0x00\n      swap1\n      sstore\n      0x03\n      dup3\n      add\n      0x00\n      tag_217\n      swap2\n      swap1\n      tag_218\n      jump\t// in\n    tag_217:\n      0x04\n      dup3\n      add\n      0x00\n      swap1\n      sstore\n      pop\n      pop\n        /* \"contracts/Test.sol\":6912:6923  totalRefSum */\n      dup1\n        /* \"contracts/Test.sol\":6888:6893  users */\n      0x03\n        /* \"contracts/Test.sol\":6888:6900  users[_shop] */\n      0x00\n        /* \"contracts/Test.sol\":6894:6899  _shop */\n      dup6\n        /* \"contracts/Test.sol\":6888:6900  users[_shop] */\n      0xffffffffffffffffffffffffffffffffffffffff\n      and\n      0xffffffffffffffffffffffffffffffffffffffff\n      and\n      dup2\n      mstore\n      0x20\n      add\n      swap1\n      dup2\n      mstore\n      0x20\n      add\n      0x00\n      keccak256\n        /* \"contracts/Test.sol\":6888:6908  users[_shop].balance */\n      0x01\n      add\n      0x00\n        /* \"contracts/Test.sol\":6888:6923  users[_shop].balance -= totalRefSum */\n      dup3\n      dup3\n      sload\n      tag_219\n      swap2\n      swap1\n      tag_220\n      jump\t// in\n    tag_219:\n      swap3\n      pop\n      pop\n      dup2\n      swap1\n      sstore\n      pop\n        /* \"contracts/Test.sol\":6941:6951  msg.sender */\n      caller\n        /* \"contracts/Test.sol\":6933:6961  payable(msg.sender).transfer */\n      0xffffffffffffffffffffffffffffffffffffffff\n      and\n        /* \"contracts/Test.sol\":6933:6974  payable(msg.sender).transfer(totalRefSum) */\n      0x08fc\n        /* \"contracts/Test.sol\":6962:6973  totalRefSum */\n      dup3\n        /* \"contracts/Test.sol\":6933:6974  payable(msg.sender).transfer(totalRefSum) */\n      swap1\n      dup2\n      iszero\n      mul\n      swap1\n      mload(0x40)\n      0x00\n      mload(0x40)\n      dup1\n      dup4\n      sub\n      dup2\n      dup6\n      dup9\n      dup9\n      call\n      swap4\n      pop\n      pop\n      pop\n      pop\n      iszero\n      dup1\n      iszero\n      tag_222\n      jumpi\n      returndatasize\n      0x00\n      dup1\n      returndatacopy\n      revert(0x00, returndatasize)\n    tag_222:\n      pop\n        /* \"contracts/Test.sol\":6493:6981  {... */\n      pop\n        /* \"contracts/Test.sol\":6438:6981  function refund(address _shop, uint _productId) public {... */\n      pop\n      pop\n      jump\t// out\n        /* \"contracts/Test.sol\":3860:4133  function approveDelivery(bool _status, uint _deliveryId, address ) public {... */\n    tag_66:\n        /* \"contracts/Test.sol\":3948:3955  _status */\n      dup3\n        /* \"contracts/Test.sol\":3944:4127  if (_status) {... */\n      iszero\n      tag_224\n      jumpi\n        /* \"contracts/Test.sol\":4008:4025  Status.Prepairing */\n      0x01\n        /* \"contracts/Test.sol\":3971:3985  deliveryOrders */\n      0x02\n        /* \"contracts/Test.sol\":3986:3997  _deliveryId */\n      dup4\n        /* \"contracts/Test.sol\":3971:3998  deliveryOrders[_deliveryId] */\n      dup2\n      sload\n      dup2\n      lt\n      tag_225\n      jumpi\n      tag_226\n      tag_191\n      jump\t// in\n    tag_226:\n    tag_225:\n      swap1\n      0x00\n      mstore\n      keccak256(0x00, 0x20)\n      swap1\n      0x05\n      mul\n      add\n        /* \"contracts/Test.sol\":3971:4005  deliveryOrders[_deliveryId].status */\n      0x01\n      add\n      0x14\n        /* \"contracts/Test.sol\":3971:4025  deliveryOrders[_deliveryId].status = Status.Prepairing */\n      0x0100\n      exp\n      dup2\n      sload\n      dup2\n      0xff\n      mul\n      not\n      and\n      swap1\n      dup4\n      0x03\n      dup2\n      gt\n      iszero\n      tag_228\n      jumpi\n      tag_229\n      tag_185\n      jump\t// in\n    tag_229:\n    tag_228:\n      mul\n      or\n      swap1\n      sstore\n      pop\n        /* \"contracts/Test.sol\":3944:4127  if (_status) {... */\n      jump(tag_230)\n    tag_224:\n        /* \"contracts/Test.sol\":4101:4116  Status.Canceled */\n      0x02\n        /* \"contracts/Test.sol\":4064:4078  deliveryOrders */\n      dup1\n        /* \"contracts/Test.sol\":4079:4090  _deliveryId */\n      dup4\n        /* \"contracts/Test.sol\":4064:4091  deliveryOrders[_deliveryId] */\n      dup2\n      sload\n      dup2\n      lt\n      tag_231\n      jumpi\n      tag_232\n      tag_191\n      jump\t// in\n    tag_232:\n    tag_231:\n      swap1\n      0x00\n      mstore\n      keccak256(0x00, 0x20)\n      swap1\n      0x05\n      mul\n      add\n        /* \"contracts/Test.sol\":4064:4098  deliveryOrders[_deliveryId].status */\n      0x01\n      add\n      0x14\n        /* \"contracts/Test.sol\":4064:4116  deliveryOrders[_deliveryId].status = Status.Canceled */\n      0x0100\n      exp\n      dup2\n      sload\n      dup2\n      0xff\n      mul\n      not\n      and\n      swap1\n      dup4\n      0x03\n      dup2\n      gt\n      iszero\n      tag_234\n      jumpi\n      tag_235\n      tag_185\n      jump\t// in\n    tag_235:\n    tag_234:\n      mul\n      or\n      swap1\n      sstore\n      pop\n        /* \"contracts/Test.sol\":3944:4127  if (_status) {... */\n    tag_230:\n        /* \"contracts/Test.sol\":3860:4133  function approveDelivery(bool _status, uint _deliveryId, address ) public {... */\n      pop\n      pop\n      pop\n      jump\t// out\n        /* \"contracts/Test.sol\":1015:1066  mapping(address => Product[]) public marketProducts */\n    tag_70:\n      mstore(0x20, 0x05)\n      dup2\n      0x00\n      mstore\n      keccak256(0x00, 0x40)\n      dup2\n      dup2\n      sload\n      dup2\n      lt\n      tag_236\n      jumpi\n      0x00\n      dup1\n      revert\n    tag_236:\n      swap1\n      0x00\n      mstore\n      keccak256(0x00, 0x20)\n      swap1\n      0x05\n      mul\n      add\n      0x00\n      swap2\n      pop\n      swap2\n      pop\n      pop\n      dup1\n      0x00\n      add\n      0x00\n      swap1\n      sload\n      swap1\n      0x0100\n      exp\n      swap1\n      div\n      0xffffffffffffffffffffffffffffffffffffffff\n      and\n      swap1\n      dup1\n      0x01\n      add\n      sload\n      swap1\n      dup1\n      0x02\n      add\n      sload\n      swap1\n      dup1\n      0x03\n      add\n      dup1\n      sload\n      tag_238\n      swap1\n      tag_163\n      jump\t// in\n    tag_238:\n      dup1\n      0x1f\n      add\n      0x20\n      dup1\n      swap2\n      div\n      mul\n      0x20\n      add\n      mload(0x40)\n      swap1\n      dup2\n      add\n      0x40\n      mstore\n      dup1\n      swap3\n      swap2\n      swap1\n      dup2\n      dup2\n      mstore\n      0x20\n      add\n      dup3\n      dup1\n      sload\n      tag_239\n      swap1\n      tag_163\n      jump\t// in\n    tag_239:\n      dup1\n      iszero\n      tag_240\n      jumpi\n      dup1\n      0x1f\n      lt\n      tag_241\n      jumpi\n      0x0100\n      dup1\n      dup4\n      sload\n      div\n      mul\n      dup4\n      mstore\n      swap2\n      0x20\n      add\n      swap2\n      jump(tag_240)\n    tag_241:\n      dup3\n      add\n      swap2\n      swap1\n      0x00\n      mstore\n      keccak256(0x00, 0x20)\n      swap1\n    tag_242:\n      dup2\n      sload\n      dup2\n      mstore\n      swap1\n      0x01\n      add\n      swap1\n      0x20\n      add\n      dup1\n      dup4\n      gt\n      tag_242\n      jumpi\n      dup3\n      swap1\n      sub\n      0x1f\n      and\n      dup3\n      add\n      swap2\n    tag_240:\n      pop\n      pop\n      pop\n      pop\n      pop\n      swap1\n      dup1\n      0x04\n      add\n      sload\n      swap1\n      pop\n      dup6\n      jump\t// out\n        /* \"contracts/Test.sol\":193:216  Ticket[] public tickets */\n    tag_75:\n      0x00\n      dup2\n      dup2\n      sload\n      dup2\n      lt\n      tag_243\n      jumpi\n      0x00\n      dup1\n      revert\n    tag_243:\n      swap1\n      0x00\n      mstore\n      keccak256(0x00, 0x20)\n      add\n      0x00\n      swap2\n      pop\n      swap1\n      pop\n      dup1\n      0x00\n      add\n      0x00\n      swap1\n      sload\n      swap1\n      0x0100\n      exp\n      swap1\n      div\n      0xffffffffffffffffffffffffffffffffffffffff\n      and\n      swap1\n      dup1\n      0x00\n      add\n      0x14\n      swap1\n      sload\n      swap1\n      0x0100\n      exp\n      swap1\n      div\n      0xff\n      and\n      swap1\n      pop\n      dup3\n      jump\t// out\n        /* \"contracts/Test.sol\":2398:2493  function changeRole(Role _role) public {... */\n    tag_82:\n        /* \"contracts/Test.sol\":2447:2454  tickets */\n      0x00\n        /* \"contracts/Test.sol\":2460:2485  Ticket(msg.sender, _role) */\n      mload(0x40)\n      dup1\n      0x40\n      add\n      0x40\n      mstore\n      dup1\n        /* \"contracts/Test.sol\":2467:2477  msg.sender */\n      caller\n        /* \"contracts/Test.sol\":2460:2485  Ticket(msg.sender, _role) */\n      0xffffffffffffffffffffffffffffffffffffffff\n      and\n      dup2\n      mstore\n      0x20\n      add\n        /* \"contracts/Test.sol\":2479:2484  _role */\n      dup4\n        /* \"contracts/Test.sol\":2460:2485  Ticket(msg.sender, _role) */\n      0x02\n      dup2\n      gt\n      iszero\n      tag_246\n      jumpi\n      tag_247\n      tag_185\n      jump\t// in\n    tag_247:\n    tag_246:\n      dup2\n      mstore\n      pop\n        /* \"contracts/Test.sol\":2447:2486  tickets.push(Ticket(msg.sender, _role)) */\n      swap1\n      dup1\n      0x01\n      dup2\n      sload\n      add\n      dup1\n      dup3\n      sstore\n      dup1\n      swap2\n      pop\n      pop\n      0x01\n      swap1\n      sub\n      swap1\n      0x00\n      mstore\n      keccak256(0x00, 0x20)\n      add\n      0x00\n      swap1\n      swap2\n      swap1\n      swap2\n      swap1\n      swap2\n      pop\n      0x00\n      dup3\n      add\n      mload\n      dup2\n      0x00\n      add\n      exp(0x0100, 0x00)\n      dup2\n      sload\n      dup2\n      0xffffffffffffffffffffffffffffffffffffffff\n      mul\n      not\n      and\n      swap1\n      dup4\n      0xffffffffffffffffffffffffffffffffffffffff\n      and\n      mul\n      or\n      swap1\n      sstore\n      pop\n      0x20\n      dup3\n      add\n      mload\n      dup2\n      0x00\n      add\n      exp(0x0100, 0x14)\n      dup2\n      sload\n      dup2\n      0xff\n      mul\n      not\n      and\n      swap1\n      dup4\n      0x02\n      dup2\n      gt\n      iszero\n      tag_249\n      jumpi\n      tag_250\n      tag_185\n      jump\t// in\n    tag_250:\n    tag_249:\n      mul\n      or\n      swap1\n      sstore\n      pop\n      pop\n      pop\n        /* \"contracts/Test.sol\":2398:2493  function changeRole(Role _role) public {... */\n      pop\n      jump\t// out\n        /* \"contracts/Test.sol\":2717:3107  function toUpper(string memory input) public pure returns (string memory) {... */\n    tag_87:\n        /* \"contracts/Test.sol\":2776:2789  string memory */\n      0x60\n        /* \"contracts/Test.sol\":2801:2824  bytes memory inputBytes */\n      0x00\n        /* \"contracts/Test.sol\":2833:2838  input */\n      dup3\n        /* \"contracts/Test.sol\":2801:2839  bytes memory inputBytes = bytes(input) */\n      swap1\n      pop\n        /* \"contracts/Test.sol\":2854:2863  uint256 i */\n      0x00\n        /* \"contracts/Test.sol\":2849:3066  for (uint256 i = 0; i < inputBytes.length; i++) {... */\n    tag_252:\n        /* \"contracts/Test.sol\":2873:2883  inputBytes */\n      dup2\n        /* \"contracts/Test.sol\":2873:2890  inputBytes.length */\n      mload\n        /* \"contracts/Test.sol\":2869:2870  i */\n      dup2\n        /* \"contracts/Test.sol\":2869:2890  i < inputBytes.length */\n      lt\n        /* \"contracts/Test.sol\":2849:3066  for (uint256 i = 0; i < inputBytes.length; i++) {... */\n      iszero\n      tag_253\n      jumpi\n        /* \"contracts/Test.sol\":2939:2941  97 */\n      0x61\n        /* \"contracts/Test.sol\":2921:2931  inputBytes */\n      dup3\n        /* \"contracts/Test.sol\":2932:2933  i */\n      dup3\n        /* \"contracts/Test.sol\":2921:2934  inputBytes[i] */\n      dup2\n      mload\n      dup2\n      lt\n      tag_255\n      jumpi\n      tag_256\n      tag_191\n      jump\t// in\n    tag_256:\n    tag_255:\n      0x20\n      add\n      add\n      mload\n      0xf8\n      shr\n      0xf8\n      shl\n        /* \"contracts/Test.sol\":2915:2935  uint8(inputBytes[i]) */\n      0xf8\n      shr\n        /* \"contracts/Test.sol\":2915:2941  uint8(inputBytes[i]) >= 97 */\n      0xff\n      and\n      lt\n      iszero\n        /* \"contracts/Test.sol\":2915:2972  uint8(inputBytes[i]) >= 97 && uint8(inputBytes[i]) <= 122 */\n      dup1\n      iszero\n      tag_257\n      jumpi\n      pop\n        /* \"contracts/Test.sol\":2969:2972  122 */\n      0x7a\n        /* \"contracts/Test.sol\":2951:2961  inputBytes */\n      dup3\n        /* \"contracts/Test.sol\":2962:2963  i */\n      dup3\n        /* \"contracts/Test.sol\":2951:2964  inputBytes[i] */\n      dup2\n      mload\n      dup2\n      lt\n      tag_258\n      jumpi\n      tag_259\n      tag_191\n      jump\t// in\n    tag_259:\n    tag_258:\n      0x20\n      add\n      add\n      mload\n      0xf8\n      shr\n      0xf8\n      shl\n        /* \"contracts/Test.sol\":2945:2965  uint8(inputBytes[i]) */\n      0xf8\n      shr\n        /* \"contracts/Test.sol\":2945:2972  uint8(inputBytes[i]) <= 122 */\n      0xff\n      and\n      gt\n      iszero\n        /* \"contracts/Test.sol\":2915:2972  uint8(inputBytes[i]) >= 97 && uint8(inputBytes[i]) <= 122 */\n    tag_257:\n        /* \"contracts/Test.sol\":2911:3056  if (uint8(inputBytes[i]) >= 97 && uint8(inputBytes[i]) <= 122) {... */\n      iszero\n      tag_260\n      jumpi\n        /* \"contracts/Test.sol\":3038:3040  32 */\n      0x20\n        /* \"contracts/Test.sol\":3021:3031  inputBytes */\n      dup3\n        /* \"contracts/Test.sol\":3032:3033  i */\n      dup3\n        /* \"contracts/Test.sol\":3021:3034  inputBytes[i] */\n      dup2\n      mload\n      dup2\n      lt\n      tag_261\n      jumpi\n      tag_262\n      tag_191\n      jump\t// in\n    tag_262:\n    tag_261:\n      0x20\n      add\n      add\n      mload\n      0xf8\n      shr\n      0xf8\n      shl\n        /* \"contracts/Test.sol\":3015:3035  uint8(inputBytes[i]) */\n      0xf8\n      shr\n        /* \"contracts/Test.sol\":3015:3040  uint8(inputBytes[i]) - 32 */\n      tag_263\n      swap2\n      swap1\n      tag_264\n      jump\t// in\n    tag_263:\n        /* \"contracts/Test.sol\":3008:3041  bytes1(uint8(inputBytes[i]) - 32) */\n      0xf8\n      shl\n        /* \"contracts/Test.sol\":2992:3002  inputBytes */\n      dup3\n        /* \"contracts/Test.sol\":3003:3004  i */\n      dup3\n        /* \"contracts/Test.sol\":2992:3005  inputBytes[i] */\n      dup2\n      mload\n      dup2\n      lt\n      tag_265\n      jumpi\n      tag_266\n      tag_191\n      jump\t// in\n    tag_266:\n    tag_265:\n      0x20\n      add\n      add\n        /* \"contracts/Test.sol\":2992:3041  inputBytes[i] = bytes1(uint8(inputBytes[i]) - 32) */\n      swap1\n      not(0xffffffffffffffffffffffffffffffffffffffffffffffffffffffffffffff)\n      and\n      swap1\n      dup2\n      0x00\n      byte\n      swap1\n      mstore8\n      pop\n        /* \"contracts/Test.sol\":2911:3056  if (uint8(inputBytes[i]) >= 97 && uint8(inputBytes[i]) <= 122) {... */\n    tag_260:\n        /* \"contracts/Test.sol\":2892:2895  i++ */\n      dup1\n      dup1\n      tag_267\n      swap1\n      tag_268\n      jump\t// in\n    tag_267:\n      swap2\n      pop\n      pop\n        /* \"contracts/Test.sol\":2849:3066  for (uint256 i = 0; i < inputBytes.length; i++) {... */\n      jump(tag_252)\n    tag_253:\n      pop\n        /* \"contracts/Test.sol\":3089:3099  inputBytes */\n      dup1\n        /* \"contracts/Test.sol\":3075:3100  return string(inputBytes) */\n      swap2\n      pop\n      pop\n        /* \"contracts/Test.sol\":2717:3107  function toUpper(string memory input) public pure returns (string memory) {... */\n      swap2\n      swap1\n      pop\n      jump\t// out\n        /* \"contracts/Test.sol\":2009:2096  function makeMarket() public  {... */\n    tag_92:\n        /* \"contracts/Test.sol\":2069:2089  User(Role.Market, 0) */\n      mload(0x40)\n      dup1\n      0x40\n      add\n      0x40\n      mstore\n      dup1\n        /* \"contracts/Test.sol\":2074:2085  Role.Market */\n      0x01\n        /* \"contracts/Test.sol\":2069:2089  User(Role.Market, 0) */\n      0x02\n      dup2\n      gt\n      iszero\n      tag_270\n      jumpi\n      tag_271\n      tag_185\n      jump\t// in\n    tag_271:\n    tag_270:\n      dup2\n      mstore\n      0x20\n      add\n        /* \"contracts/Test.sol\":2087:2088  0 */\n      0x00\n        /* \"contracts/Test.sol\":2069:2089  User(Role.Market, 0) */\n      dup2\n      mstore\n      pop\n        /* \"contracts/Test.sol\":2049:2054  users */\n      0x03\n        /* \"contracts/Test.sol\":2049:2066  users[msg.sender] */\n      0x00\n        /* \"contracts/Test.sol\":2055:2065  msg.sender */\n      caller\n        /* \"contracts/Test.sol\":2049:2066  users[msg.sender] */\n      0xffffffffffffffffffffffffffffffffffffffff\n      and\n      0xffffffffffffffffffffffffffffffffffffffff\n      and\n      dup2\n      mstore\n      0x20\n      add\n      swap1\n      dup2\n      mstore\n      0x20\n      add\n      0x00\n      keccak256\n        /* \"contracts/Test.sol\":2049:2089  users[msg.sender] = User(Role.Market, 0) */\n      0x00\n      dup3\n      add\n      mload\n      dup2\n      0x00\n      add\n      exp(0x0100, 0x00)\n      dup2\n      sload\n      dup2\n      0xff\n      mul\n      not\n      and\n      swap1\n      dup4\n      0x02\n      dup2\n      gt\n      iszero\n      tag_272\n      jumpi\n      tag_273\n      tag_185\n      jump\t// in\n    tag_273:\n    tag_272:\n      mul\n      or\n      swap1\n      sstore\n      pop\n      0x20\n      dup3\n      add\n      mload\n      dup2\n      0x01\n      add\n      sstore\n      swap1\n      pop\n      pop\n        /* \"contracts/Test.sol\":2009:2096  function makeMarket() public  {... */\n      jump\t// out\n        /* \"contracts/Test.sol\":2102:2392  function approveChangeRole(uint _idTicket) public OnlyOwner {... */\n    tag_96:\n        /* \"contracts/Test.sol\":1299:1304  owner */\n      0x01\n      0x00\n      swap1\n      sload\n      swap1\n      0x0100\n      exp\n      swap1\n      div\n      0xffffffffffffffffffffffffffffffffffffffff\n      and\n        /* \"contracts/Test.sol\":1285:1304  msg.sender == owner */\n      0xffffffffffffffffffffffffffffffffffffffff\n      and\n        /* \"contracts/Test.sol\":1285:1295  msg.sender */\n      caller\n        /* \"contracts/Test.sol\":1285:1304  msg.sender == owner */\n      0xffffffffffffffffffffffffffffffffffffffff\n      and\n      eq\n        /* \"contracts/Test.sol\":1277:1305  require(msg.sender == owner) */\n      tag_275\n      jumpi\n      0x00\n      dup1\n      revert\n    tag_275:\n        /* \"contracts/Test.sol\":2172:2188  address userAddr */\n      0x00\n        /* \"contracts/Test.sol\":2191:2198  tickets */\n      dup1\n        /* \"contracts/Test.sol\":2199:2208  _idTicket */\n      dup3\n        /* \"contracts/Test.sol\":2191:2209  tickets[_idTicket] */\n      dup2\n      sload\n      dup2\n      lt\n      tag_277\n      jumpi\n      tag_278\n      tag_191\n      jump\t// in\n    tag_278:\n    tag_277:\n      swap1\n      0x00\n      mstore\n      keccak256(0x00, 0x20)\n      add\n        /* \"contracts/Test.sol\":2191:2218  tickets[_idTicket].userAddr */\n      0x00\n      add\n      0x00\n      swap1\n      sload\n      swap1\n      0x0100\n      exp\n      swap1\n      div\n      0xffffffffffffffffffffffffffffffffffffffff\n      and\n        /* \"contracts/Test.sol\":2172:2218  address userAddr = tickets[_idTicket].userAddr */\n      swap1\n      pop\n        /* \"contracts/Test.sol\":2228:2244  Role changedRole */\n      0x00\n        /* \"contracts/Test.sol\":2247:2254  tickets */\n      dup1\n        /* \"contracts/Test.sol\":2255:2264  _idTicket */\n      dup4\n        /* \"contracts/Test.sol\":2247:2265  tickets[_idTicket] */\n      dup2\n      sload\n      dup2\n      lt\n      tag_280\n      jumpi\n      tag_281\n      tag_191\n      jump\t// in\n    tag_281:\n    tag_280:\n      swap1\n      0x00\n      mstore\n      keccak256(0x00, 0x20)\n      add\n        /* \"contracts/Test.sol\":2247:2270  tickets[_idTicket].role */\n      0x00\n      add\n      0x14\n      swap1\n      sload\n      swap1\n      0x0100\n      exp\n      swap1\n      div\n      0xff\n      and\n        /* \"contracts/Test.sol\":2228:2270  Role changedRole = tickets[_idTicket].role */\n      swap1\n      pop\n        /* \"contracts/Test.sol\":2303:2314  changedRole */\n      dup1\n        /* \"contracts/Test.sol\":2280:2285  users */\n      0x03\n        /* \"contracts/Test.sol\":2280:2295  users[userAddr] */\n      0x00\n        /* \"contracts/Test.sol\":2286:2294  userAddr */\n      dup5\n        /* \"contracts/Test.sol\":2280:2295  users[userAddr] */\n      0xffffffffffffffffffffffffffffffffffffffff\n      and\n      0xffffffffffffffffffffffffffffffffffffffff\n      and\n      dup2\n      mstore\n      0x20\n      add\n      swap1\n      dup2\n      mstore\n      0x20\n      add\n      0x00\n      keccak256\n        /* \"contracts/Test.sol\":2280:2300  users[userAddr].role */\n      0x00\n      add\n      0x00\n        /* \"contracts/Test.sol\":2280:2314  users[userAddr].role = changedRole */\n      0x0100\n      exp\n      dup2\n      sload\n      dup2\n      0xff\n      mul\n      not\n      and\n      swap1\n      dup4\n      0x02\n      dup2\n      gt\n      iszero\n      tag_283\n      jumpi\n      tag_284\n      tag_185\n      jump\t// in\n    tag_284:\n    tag_283:\n      mul\n      or\n      swap1\n      sstore\n      pop\n        /* \"contracts/Test.sol\":2162:2392  {... */\n      pop\n      pop\n        /* \"contracts/Test.sol\":2102:2392  function approveChangeRole(uint _idTicket) public OnlyOwner {... */\n      pop\n      jump\t// out\n        /* \"contracts/Test.sol\":3264:3854  function makeDelivery(address _shop, uint _productId, uint _amount) public {... */\n    tag_101:\n        /* \"contracts/Test.sol\":3367:3368  0 */\n      0x00\n        /* \"contracts/Test.sol\":3357:3364  _amount */\n      dup2\n        /* \"contracts/Test.sol\":3357:3368  _amount > 0 */\n      gt\n        /* \"contracts/Test.sol\":3349:3411  require(_amount > 0, \"Purchase amount must be greater than 0\") */\n      tag_286\n      jumpi\n      mload(0x40)\n      0x08c379a000000000000000000000000000000000000000000000000000000000\n      dup2\n      mstore\n      0x04\n      add\n      tag_287\n      swap1\n      tag_288\n      jump\t// in\n    tag_287:\n      mload(0x40)\n      dup1\n      swap2\n      sub\n      swap1\n      revert\n    tag_286:\n        /* \"contracts/Test.sol\":3442:3456  marketProducts */\n      0x05\n        /* \"contracts/Test.sol\":3442:3463  marketProducts[_shop] */\n      0x00\n        /* \"contracts/Test.sol\":3457:3462  _shop */\n      dup5\n        /* \"contracts/Test.sol\":3442:3463  marketProducts[_shop] */\n      0xffffffffffffffffffffffffffffffffffffffff\n      and\n      0xffffffffffffffffffffffffffffffffffffffff\n      and\n      dup2\n      mstore\n      0x20\n      add\n      swap1\n      dup2\n      mstore\n      0x20\n      add\n      0x00\n      keccak256\n        /* \"contracts/Test.sol\":3442:3470  marketProducts[_shop].length */\n      dup1\n      sload\n      swap1\n      pop\n        /* \"contracts/Test.sol\":3429:3439  _productId */\n      dup3\n        /* \"contracts/Test.sol\":3429:3470  _productId < marketProducts[_shop].length */\n      lt\n        /* \"contracts/Test.sol\":3421:3493  require(_productId < marketProducts[_shop].length, \"Invalid product ID\") */\n      tag_289\n      jumpi\n      mload(0x40)\n      0x08c379a000000000000000000000000000000000000000000000000000000000\n      dup2\n      mstore\n      0x04\n      add\n      tag_290\n      swap1\n      tag_291\n      jump\t// in\n    tag_290:\n      mload(0x40)\n      dup1\n      swap2\n      sub\n      swap1\n      revert\n    tag_289:\n        /* \"contracts/Test.sol\":3503:3528  string memory productName */\n      0x00\n        /* \"contracts/Test.sol\":3531:3545  marketProducts */\n      0x05\n        /* \"contracts/Test.sol\":3531:3552  marketProducts[_shop] */\n      0x00\n        /* \"contracts/Test.sol\":3546:3551  _shop */\n      dup6\n        /* \"contracts/Test.sol\":3531:3552  marketProducts[_shop] */\n      0xffffffffffffffffffffffffffffffffffffffff\n      and\n      0xffffffffffffffffffffffffffffffffffffffff\n      and\n      dup2\n      mstore\n      0x20\n      add\n      swap1\n      dup2\n      mstore\n      0x20\n      add\n      0x00\n      keccak256\n        /* \"contracts/Test.sol\":3553:3563  _productId */\n      dup4\n        /* \"contracts/Test.sol\":3531:3564  marketProducts[_shop][_productId] */\n      dup2\n      sload\n      dup2\n      lt\n      tag_292\n      jumpi\n      tag_293\n      tag_191\n      jump\t// in\n    tag_293:\n    tag_292:\n      swap1\n      0x00\n      mstore\n      keccak256(0x00, 0x20)\n      swap1\n      0x05\n      mul\n      add\n        /* \"contracts/Test.sol\":3531:3569  marketProducts[_shop][_productId].name */\n      0x03\n      add\n        /* \"contracts/Test.sol\":3503:3569  string memory productName = marketProducts[_shop][_productId].name */\n      dup1\n      sload\n      tag_295\n      swap1\n      tag_163\n      jump\t// in\n    tag_295:\n      dup1\n      0x1f\n      add\n      0x20\n      dup1\n      swap2\n      div\n      mul\n      0x20\n      add\n      mload(0x40)\n      swap1\n      dup2\n      add\n      0x40\n      mstore\n      dup1\n      swap3\n      swap2\n      swap1\n      dup2\n      dup2\n      mstore\n      0x20\n      add\n      dup3\n      dup1\n      sload\n      tag_296\n      swap1\n      tag_163\n      jump\t// in\n    tag_296:\n      dup1\n      iszero\n      tag_297\n      jumpi\n      dup1\n      0x1f\n      lt\n      tag_298\n      jumpi\n      0x0100\n      dup1\n      dup4\n      sload\n      div\n      mul\n      dup4\n      mstore\n      swap2\n      0x20\n      add\n      swap2\n      jump(tag_297)\n    tag_298:\n      dup3\n      add\n      swap2\n      swap1\n      0x00\n      mstore\n      keccak256(0x00, 0x20)\n      swap1\n    tag_299:\n      dup2\n      sload\n      dup2\n      mstore\n      swap1\n      0x01\n      add\n      swap1\n      0x20\n      add\n      dup1\n      dup4\n      gt\n      tag_299\n      jumpi\n      dup3\n      swap1\n      sub\n      0x1f\n      and\n      dup3\n      add\n      swap2\n    tag_297:\n      pop\n      pop\n      pop\n      pop\n      pop\n      swap1\n      pop\n        /* \"contracts/Test.sol\":3579:3604  string memory trackNumber */\n      0x00\n        /* \"contracts/Test.sol\":3626:3637  productName */\n      dup2\n        /* \"contracts/Test.sol\":3607:3643  string.concat(\"AA\",productName,\"BB\") */\n      add(0x20, mload(0x40))\n      tag_300\n      swap2\n      swap1\n      tag_301\n      jump\t// in\n    tag_300:\n      mload(0x40)\n      0x20\n      dup2\n      dup4\n      sub\n      sub\n      dup2\n      mstore\n      swap1\n      0x40\n      mstore\n        /* \"contracts/Test.sol\":3579:3643  string memory trackNumber = string.concat(\"AA\",productName,\"BB\") */\n      swap1\n      pop\n        /* \"contracts/Test.sol\":3667:3687  toUpper(trackNumber) */\n      tag_302\n        /* \"contracts/Test.sol\":3675:3686  trackNumber */\n      dup2\n        /* \"contracts/Test.sol\":3667:3674  toUpper */\n      tag_87\n        /* \"contracts/Test.sol\":3667:3687  toUpper(trackNumber) */\n      jump\t// in\n    tag_302:\n        /* \"contracts/Test.sol\":3653:3687  trackNumber = toUpper(trackNumber) */\n      swap1\n      pop\n        /* \"contracts/Test.sol\":3697:3723  DeliveryOrder memory order */\n      0x00\n        /* \"contracts/Test.sol\":3726:3811  DeliveryOrder(msg.sender, _shop, Status.Prepairing, trackNumber, _productId, _amount) */\n      mload(0x40)\n      dup1\n      0xc0\n      add\n      0x40\n      mstore\n      dup1\n        /* \"contracts/Test.sol\":3740:3750  msg.sender */\n      caller\n        /* \"contracts/Test.sol\":3726:3811  DeliveryOrder(msg.sender, _shop, Status.Prepairing, trackNumber, _productId, _amount) */\n      0xffffffffffffffffffffffffffffffffffffffff\n      and\n      dup2\n      mstore\n      0x20\n      add\n        /* \"contracts/Test.sol\":3752:3757  _shop */\n      dup8\n        /* \"contracts/Test.sol\":3726:3811  DeliveryOrder(msg.sender, _shop, Status.Prepairing, trackNumber, _productId, _amount) */\n      0xffffffffffffffffffffffffffffffffffffffff\n      and\n      dup2\n      mstore\n      0x20\n      add\n        /* \"contracts/Test.sol\":3759:3776  Status.Prepairing */\n      0x01\n        /* \"contracts/Test.sol\":3726:3811  DeliveryOrder(msg.sender, _shop, Status.Prepairing, trackNumber, _productId, _amount) */\n      0x03\n      dup2\n      gt\n      iszero\n      tag_303\n      jumpi\n      tag_304\n      tag_185\n      jump\t// in\n    tag_304:\n    tag_303:\n      dup2\n      mstore\n      0x20\n      add\n        /* \"contracts/Test.sol\":3778:3789  trackNumber */\n      dup4\n        /* \"contracts/Test.sol\":3726:3811  DeliveryOrder(msg.sender, _shop, Status.Prepairing, trackNumber, _productId, _amount) */\n      dup2\n      mstore\n      0x20\n      add\n        /* \"contracts/Test.sol\":3791:3801  _productId */\n      dup7\n        /* \"contracts/Test.sol\":3726:3811  DeliveryOrder(msg.sender, _shop, Status.Prepairing, trackNumber, _productId, _amount) */\n      dup2\n      mstore\n      0x20\n      add\n        /* \"contracts/Test.sol\":3803:3810  _amount */\n      dup6\n        /* \"contracts/Test.sol\":3726:3811  DeliveryOrder(msg.sender, _shop, Status.Prepairing, trackNumber, _productId, _amount) */\n      dup2\n      mstore\n      pop\n        /* \"contracts/Test.sol\":3697:3811  DeliveryOrder memory order = DeliveryOrder(msg.sender, _shop, Status.Prepairing, trackNumber, _productId, _amount) */\n      swap1\n      pop\n        /* \"contracts/Test.sol\":3821:3835  deliveryOrders */\n      0x02\n        /* \"contracts/Test.sol\":3841:3846  order */\n      dup2\n        /* \"contracts/Test.sol\":3821:3847  deliveryOrders.push(order) */\n      swap1\n      dup1\n      0x01\n      dup2\n      sload\n      add\n      dup1\n      dup3\n      sstore\n      dup1\n      swap2\n      pop\n      pop\n      0x01\n      swap1\n      sub\n      swap1\n      0x00\n      mstore\n      keccak256(0x00, 0x20)\n      swap1\n      0x05\n      mul\n      add\n      0x00\n      swap1\n      swap2\n      swap1\n      swap2\n      swap1\n      swap2\n      pop\n      0x00\n      dup3\n      add\n      mload\n      dup2\n      0x00\n      add\n      exp(0x0100, 0x00)\n      dup2\n      sload\n      dup2\n      0xffffffffffffffffffffffffffffffffffffffff\n      mul\n      not\n      and\n      swap1\n      dup4\n      0xffffffffffffffffffffffffffffffffffffffff\n      and\n      mul\n      or\n      swap1\n      sstore\n      pop\n      0x20\n      dup3\n      add\n      mload\n      dup2\n      0x01\n      add\n      exp(0x0100, 0x00)\n      dup2\n      sload\n      dup2\n      0xffffffffffffffffffffffffffffffffffffffff\n      mul\n      not\n      and\n      swap1\n      dup4\n      0xffffffffffffffffffffffffffffffffffffffff\n      and\n      mul\n      or\n      swap1\n      sstore\n      pop\n      0x40\n      dup3\n      add\n      mload\n      dup2\n      0x01\n      add\n      exp(0x0100, 0x14)\n      dup2\n      sload\n      dup2\n      0xff\n      mul\n      not\n      and\n      swap1\n      dup4\n      0x03\n      dup2\n      gt\n      iszero\n      tag_306\n      jumpi\n      tag_307\n      tag_185\n      jump\t// in\n    tag_307:\n    tag_306:\n      mul\n      or\n      swap1\n      sstore\n      pop\n      0x60\n      dup3\n      add\n      mload\n      dup2\n      0x02\n      add\n      swap1\n      dup2\n      tag_308\n      swap2\n      swap1\n      tag_159\n      jump\t// in\n    tag_308:\n      pop\n      0x80\n      dup3\n      add\n      mload\n      dup2\n      0x03\n      add\n      sstore\n      0xa0\n      dup3\n      add\n      mload\n      dup2\n      0x04\n      add\n      sstore\n      pop\n      pop\n        /* \"contracts/Test.sol\":3339:3854  {... */\n      pop\n      pop\n      pop\n        /* \"contracts/Test.sol\":3264:3854  function makeDelivery(address _shop, uint _productId, uint _amount) public {... */\n      pop\n      pop\n      pop\n      jump\t// out\n        /* \"contracts/Test.sol\":2499:2711  function randMod(uint _modulus) public view returns(uint) {   ... */\n    tag_105:\n        /* \"contracts/Test.sol\":2551:2555  uint */\n      0x00\n        /* \"contracts/Test.sol\":2570:2584  uint randNonce */\n      dup1\n        /* \"contracts/Test.sol\":2594:2605  randNonce++ */\n      dup1\n      dup1\n      tag_310\n      swap1\n      tag_268\n      jump\t// in\n    tag_310:\n      swap2\n      pop\n      pop\n        /* \"contracts/Test.sol\":2696:2704  _modulus */\n      dup3\n        /* \"contracts/Test.sol\":2654:2669  block.timestamp */\n      timestamp\n        /* \"contracts/Test.sol\":2670:2680  msg.sender */\n      caller\n        /* \"contracts/Test.sol\":2681:2690  randNonce */\n      dup4\n        /* \"contracts/Test.sol\":2637:2691  abi.encodePacked(block.timestamp,msg.sender,randNonce) */\n      add(0x20, mload(0x40))\n      tag_311\n      swap4\n      swap3\n      swap2\n      swap1\n      tag_312\n      jump\t// in\n    tag_311:\n      mload(0x40)\n      0x20\n      dup2\n      dup4\n      sub\n      sub\n      dup2\n      mstore\n      swap1\n      0x40\n      mstore\n        /* \"contracts/Test.sol\":2627:2692  keccak256(abi.encodePacked(block.timestamp,msg.sender,randNonce)) */\n      dup1\n      mload\n      swap1\n      0x20\n      add\n      keccak256\n        /* \"contracts/Test.sol\":2622:2693  uint(keccak256(abi.encodePacked(block.timestamp,msg.sender,randNonce))) */\n      0x00\n      shr\n        /* \"contracts/Test.sol\":2622:2704  uint(keccak256(abi.encodePacked(block.timestamp,msg.sender,randNonce))) % _modulus */\n      tag_313\n      swap2\n      swap1\n      tag_314\n      jump\t// in\n    tag_313:\n        /* \"contracts/Test.sol\":2615:2704  return uint(keccak256(abi.encodePacked(block.timestamp,msg.sender,randNonce))) % _modulus */\n      swap2\n      pop\n      pop\n        /* \"contracts/Test.sol\":2499:2711  function randMod(uint _modulus) public view returns(uint) {   ... */\n      swap2\n      swap1\n      pop\n      jump\t// out\n        /* \"contracts/Test.sol\":4532:4846  function addItemsSupplier(uint _inStock, uint _price, string calldata _name, uint _expDate, address _addressSupp) public AccessControl(Role.Supplier, _addressSupp) {... */\n    tag_112:\n        /* \"contracts/Test.sol\":4667:4680  Role.Supplier */\n      0x02\n        /* \"contracts/Test.sol\":4682:4694  _addressSupp */\n      dup2\n        /* \"contracts/Test.sol\":1426:1431  _role */\n      dup2\n        /* \"contracts/Test.sol\":1400:1431  users[msg.sender].role == _role */\n      0x02\n      dup2\n      gt\n      iszero\n      tag_316\n      jumpi\n      tag_317\n      tag_185\n      jump\t// in\n    tag_317:\n    tag_316:\n        /* \"contracts/Test.sol\":1400:1405  users */\n      0x03\n        /* \"contracts/Test.sol\":1400:1417  users[msg.sender] */\n      0x00\n        /* \"contracts/Test.sol\":1406:1416  msg.sender */\n      caller\n        /* \"contracts/Test.sol\":1400:1417  users[msg.sender] */\n      0xffffffffffffffffffffffffffffffffffffffff\n      and\n      0xffffffffffffffffffffffffffffffffffffffff\n      and\n      dup2\n      mstore\n      0x20\n      add\n      swap1\n      dup2\n      mstore\n      0x20\n      add\n      0x00\n      keccak256\n        /* \"contracts/Test.sol\":1400:1422  users[msg.sender].role */\n      0x00\n      add\n      0x00\n      swap1\n      sload\n      swap1\n      0x0100\n      exp\n      swap1\n      div\n      0xff\n      and\n        /* \"contracts/Test.sol\":1400:1431  users[msg.sender].role == _role */\n      0x02\n      dup2\n      gt\n      iszero\n      tag_318\n      jumpi\n      tag_319\n      tag_185\n      jump\t// in\n    tag_319:\n    tag_318:\n      eq\n        /* \"contracts/Test.sol\":1392:1508  require(users[msg.sender].role == _role, unicode\"Ваша роль не позволяет это изменять\") */\n      tag_320\n      jumpi\n      mload(0x40)\n      0x08c379a000000000000000000000000000000000000000000000000000000000\n      dup2\n      mstore\n      0x04\n      add\n      tag_321\n      swap1\n      tag_322\n      jump\t// in\n    tag_321:\n      mload(0x40)\n      dup1\n      swap2\n      sub\n      swap1\n      revert\n    tag_320:\n        /* \"contracts/Test.sol\":1540:1545  _shop */\n      dup1\n        /* \"contracts/Test.sol\":1526:1545  msg.sender == _shop */\n      0xffffffffffffffffffffffffffffffffffffffff\n      and\n        /* \"contracts/Test.sol\":1526:1536  msg.sender */\n      caller\n        /* \"contracts/Test.sol\":1526:1545  msg.sender == _shop */\n      0xffffffffffffffffffffffffffffffffffffffff\n      and\n      eq\n        /* \"contracts/Test.sol\":1518:1624  require(msg.sender == _shop, unicode\"Магазин не соответсвует отправителю\") */\n      tag_323\n      jumpi\n      mload(0x40)\n      0x08c379a000000000000000000000000000000000000000000000000000000000\n      dup2\n      mstore\n      0x04\n      add\n      tag_324\n      swap1\n      tag_325\n      jump\t// in\n    tag_324:\n      mload(0x40)\n      dup1\n      swap2\n      sub\n      swap1\n      revert\n    tag_323:\n        /* \"contracts/Test.sol\":4706:4725  Product memory item */\n      0x00\n        /* \"contracts/Test.sol\":4728:4788  Product(_addressSupp, _inStock, _price / 2, _name, _expDate) */\n      mload(0x40)\n      dup1\n      0xa0\n      add\n      0x40\n      mstore\n      dup1\n        /* \"contracts/Test.sol\":4736:4748  _addressSupp */\n      dup6\n        /* \"contracts/Test.sol\":4728:4788  Product(_addressSupp, _inStock, _price / 2, _name, _expDate) */\n      0xffffffffffffffffffffffffffffffffffffffff\n      and\n      dup2\n      mstore\n      0x20\n      add\n        /* \"contracts/Test.sol\":4750:4758  _inStock */\n      dup11\n        /* \"contracts/Test.sol\":4728:4788  Product(_addressSupp, _inStock, _price / 2, _name, _expDate) */\n      dup2\n      mstore\n      0x20\n      add\n        /* \"contracts/Test.sol\":4769:4770  2 */\n      0x02\n        /* \"contracts/Test.sol\":4760:4766  _price */\n      dup11\n        /* \"contracts/Test.sol\":4760:4770  _price / 2 */\n      tag_327\n      swap2\n      swap1\n      tag_156\n      jump\t// in\n    tag_327:\n        /* \"contracts/Test.sol\":4728:4788  Product(_addressSupp, _inStock, _price / 2, _name, _expDate) */\n      dup2\n      mstore\n      0x20\n      add\n        /* \"contracts/Test.sol\":4772:4777  _name */\n      dup9\n      dup9\n        /* \"contracts/Test.sol\":4728:4788  Product(_addressSupp, _inStock, _price / 2, _name, _expDate) */\n      dup1\n      dup1\n      0x1f\n      add\n      0x20\n      dup1\n      swap2\n      div\n      mul\n      0x20\n      add\n      mload(0x40)\n      swap1\n      dup2\n      add\n      0x40\n      mstore\n      dup1\n      swap4\n      swap3\n      swap2\n      swap1\n      dup2\n      dup2\n      mstore\n      0x20\n      add\n      dup4\n      dup4\n      dup1\n      dup3\n      dup5\n      calldatacopy\n      0x00\n      dup2\n      dup5\n      add\n      mstore\n      not(0x1f)\n      0x1f\n      dup3\n      add\n      and\n      swap1\n      pop\n      dup1\n      dup4\n      add\n      swap3\n      pop\n      pop\n      pop\n      pop\n      pop\n      pop\n      pop\n      dup2\n      mstore\n      0x20\n      add\n        /* \"contracts/Test.sol\":4779:4787  _expDate */\n      dup7\n        /* \"contracts/Test.sol\":4728:4788  Product(_addressSupp, _inStock, _price / 2, _name, _expDate) */\n      dup2\n      mstore\n      pop\n        /* \"contracts/Test.sol\":4706:4788  Product memory item = Product(_addressSupp, _inStock, _price / 2, _name, _expDate) */\n      swap1\n      pop\n        /* \"contracts/Test.sol\":4798:4814  supplierProducts */\n      0x06\n        /* \"contracts/Test.sol\":4798:4828  supplierProducts[_addressSupp] */\n      0x00\n        /* \"contracts/Test.sol\":4815:4827  _addressSupp */\n      dup6\n        /* \"contracts/Test.sol\":4798:4828  supplierProducts[_addressSupp] */\n      0xffffffffffffffffffffffffffffffffffffffff\n      and\n      0xffffffffffffffffffffffffffffffffffffffff\n      and\n      dup2\n      mstore\n      0x20\n      add\n      swap1\n      dup2\n      mstore\n      0x20\n      add\n      0x00\n      keccak256\n        /* \"contracts/Test.sol\":4834:4838  item */\n      dup2\n        /* \"contracts/Test.sol\":4798:4839  supplierProducts[_addressSupp].push(item) */\n      swap1\n      dup1\n      0x01\n      dup2\n      sload\n      add\n      dup1\n      dup3\n      sstore\n      dup1\n      swap2\n      pop\n      pop\n      0x01\n      swap1\n      sub\n      swap1\n      0x00\n      mstore\n      keccak256(0x00, 0x20)\n      swap1\n      0x05\n      mul\n      add\n      0x00\n      swap1\n      swap2\n      swap1\n      swap2\n      swap1\n      swap2\n      pop\n      0x00\n      dup3\n      add\n      mload\n      dup2\n      0x00\n      add\n      exp(0x0100, 0x00)\n      dup2\n      sload\n      dup2\n      0xffffffffffffffffffffffffffffffffffffffff\n      mul\n      not\n      and\n      swap1\n      dup4\n      0xffffffffffffffffffffffffffffffffffffffff\n      and\n      mul\n      or\n      swap1\n      sstore\n      pop\n      0x20\n      dup3\n      add\n      mload\n      dup2\n      0x01\n      add\n      sstore\n      0x40\n      dup3\n      add\n      mload\n      dup2\n      0x02\n      add\n      sstore\n      0x60\n      dup3\n      add\n      mload\n      dup2\n      0x03\n      add\n      swap1\n      dup2\n      tag_329\n      swap2\n      swap1\n      tag_159\n      jump\t// in\n    tag_329:\n      pop\n      0x80\n      dup3\n      add\n      mload\n      dup2\n      0x04\n      add\n      sstore\n      pop\n      pop\n        /* \"contracts/Test.sol\":4696:4846  {... */\n      pop\n        /* \"contracts/Test.sol\":4532:4846  function addItemsSupplier(uint _inStock, uint _price, string calldata _name, uint _expDate, address _addressSupp) public AccessControl(Role.Supplier, _addressSupp) {... */\n      pop\n      pop\n      pop\n      pop\n      pop\n      pop\n      pop\n      pop\n      jump\t// out\n        /* \"contracts/Test.sol\":222:242  address public owner */\n    tag_115:\n      0x01\n      0x00\n      swap1\n      sload\n      swap1\n      0x0100\n      exp\n      swap1\n      div\n      0xffffffffffffffffffffffffffffffffffffffff\n      and\n      dup2\n      jump\t// out\n        /* \"contracts/Test.sol\":6987:8583  function purchase(address _shop, uint _amount, uint _id, string memory _ref ) public payable {... */\n    tag_121:\n        /* \"contracts/Test.sol\":7120:7129  Role.User */\n      0x00\n        /* \"contracts/Test.sol\":7094:7129  users[msg.sender].role == Role.User */\n      0x02\n      dup2\n      gt\n      iszero\n      tag_331\n      jumpi\n      tag_332\n      tag_185\n      jump\t// in\n    tag_332:\n    tag_331:\n        /* \"contracts/Test.sol\":7094:7099  users */\n      0x03\n        /* \"contracts/Test.sol\":7094:7111  users[msg.sender] */\n      0x00\n        /* \"contracts/Test.sol\":7100:7110  msg.sender */\n      caller\n        /* \"contracts/Test.sol\":7094:7111  users[msg.sender] */\n      0xffffffffffffffffffffffffffffffffffffffff\n      and\n      0xffffffffffffffffffffffffffffffffffffffff\n      and\n      dup2\n      mstore\n      0x20\n      add\n      swap1\n      dup2\n      mstore\n      0x20\n      add\n      0x00\n      keccak256\n        /* \"contracts/Test.sol\":7094:7116  users[msg.sender].role */\n      0x00\n      add\n      0x00\n      swap1\n      sload\n      swap1\n      0x0100\n      exp\n      swap1\n      div\n      0xff\n      and\n        /* \"contracts/Test.sol\":7094:7129  users[msg.sender].role == Role.User */\n      0x02\n      dup2\n      gt\n      iszero\n      tag_333\n      jumpi\n      tag_334\n      tag_185\n      jump\t// in\n    tag_334:\n    tag_333:\n      sub\n        /* \"contracts/Test.sol\":7090:7195  if (users[msg.sender].role == Role.User) {... */\n      tag_335\n      jumpi\n        /* \"contracts/Test.sol\":7165:7184  User( Role.User, 0) */\n      mload(0x40)\n      dup1\n      0x40\n      add\n      0x40\n      mstore\n      dup1\n        /* \"contracts/Test.sol\":7171:7180  Role.User */\n      0x00\n        /* \"contracts/Test.sol\":7165:7184  User( Role.User, 0) */\n      0x02\n      dup2\n      gt\n      iszero\n      tag_336\n      jumpi\n      tag_337\n      tag_185\n      jump\t// in\n    tag_337:\n    tag_336:\n      dup2\n      mstore\n      0x20\n      add\n        /* \"contracts/Test.sol\":7182:7183  0 */\n      0x00\n        /* \"contracts/Test.sol\":7165:7184  User( Role.User, 0) */\n      dup2\n      mstore\n      pop\n        /* \"contracts/Test.sol\":7145:7150  users */\n      0x03\n        /* \"contracts/Test.sol\":7145:7162  users[msg.sender] */\n      0x00\n        /* \"contracts/Test.sol\":7151:7161  msg.sender */\n      caller\n        /* \"contracts/Test.sol\":7145:7162  users[msg.sender] */\n      0xffffffffffffffffffffffffffffffffffffffff\n      and\n      0xffffffffffffffffffffffffffffffffffffffff\n      and\n      dup2\n      mstore\n      0x20\n      add\n      swap1\n      dup2\n      mstore\n      0x20\n      add\n      0x00\n      keccak256\n        /* \"contracts/Test.sol\":7145:7184  users[msg.sender] = User( Role.User, 0) */\n      0x00\n      dup3\n      add\n      mload\n      dup2\n      0x00\n      add\n      exp(0x0100, 0x00)\n      dup2\n      sload\n      dup2\n      0xff\n      mul\n      not\n      and\n      swap1\n      dup4\n      0x02\n      dup2\n      gt\n      iszero\n      tag_338\n      jumpi\n      tag_339\n      tag_185\n      jump\t// in\n    tag_339:\n    tag_338:\n      mul\n      or\n      swap1\n      sstore\n      pop\n      0x20\n      dup3\n      add\n      mload\n      dup2\n      0x01\n      add\n      sstore\n      swap1\n      pop\n      pop\n        /* \"contracts/Test.sol\":7090:7195  if (users[msg.sender].role == Role.User) {... */\n    tag_335:\n        /* \"contracts/Test.sol\":7231:7232  0 */\n      0x00\n        /* \"contracts/Test.sol\":7221:7228  _amount */\n      dup4\n        /* \"contracts/Test.sol\":7221:7232  _amount > 0 */\n      gt\n        /* \"contracts/Test.sol\":7213:7275  require(_amount > 0, \"Purchase amount must be greater than 0\") */\n      tag_340\n      jumpi\n      mload(0x40)\n      0x08c379a000000000000000000000000000000000000000000000000000000000\n      dup2\n      mstore\n      0x04\n      add\n      tag_341\n      swap1\n      tag_288\n      jump\t// in\n    tag_341:\n      mload(0x40)\n      dup1\n      swap2\n      sub\n      swap1\n      revert\n    tag_340:\n        /* \"contracts/Test.sol\":7299:7313  marketProducts */\n      0x05\n        /* \"contracts/Test.sol\":7299:7320  marketProducts[_shop] */\n      0x00\n        /* \"contracts/Test.sol\":7314:7319  _shop */\n      dup6\n        /* \"contracts/Test.sol\":7299:7320  marketProducts[_shop] */\n      0xffffffffffffffffffffffffffffffffffffffff\n      and\n      0xffffffffffffffffffffffffffffffffffffffff\n      and\n      dup2\n      mstore\n      0x20\n      add\n      swap1\n      dup2\n      mstore\n      0x20\n      add\n      0x00\n      keccak256\n        /* \"contracts/Test.sol\":7299:7327  marketProducts[_shop].length */\n      dup1\n      sload\n      swap1\n      pop\n        /* \"contracts/Test.sol\":7293:7296  _id */\n      dup3\n        /* \"contracts/Test.sol\":7293:7327  _id < marketProducts[_shop].length */\n      lt\n        /* \"contracts/Test.sol\":7285:7350  require(_id < marketProducts[_shop].length, \"Invalid product ID\") */\n      tag_342\n      jumpi\n      mload(0x40)\n      0x08c379a000000000000000000000000000000000000000000000000000000000\n      dup2\n      mstore\n      0x04\n      add\n      tag_343\n      swap1\n      tag_291\n      jump\t// in\n    tag_343:\n      mload(0x40)\n      dup1\n      swap2\n      sub\n      swap1\n      revert\n    tag_342:\n        /* \"contracts/Test.sol\":7379:7393  marketProducts */\n      0x05\n        /* \"contracts/Test.sol\":7379:7400  marketProducts[_shop] */\n      0x00\n        /* \"contracts/Test.sol\":7394:7399  _shop */\n      dup6\n        /* \"contracts/Test.sol\":7379:7400  marketProducts[_shop] */\n      0xffffffffffffffffffffffffffffffffffffffff\n      and\n      0xffffffffffffffffffffffffffffffffffffffff\n      and\n      dup2\n      mstore\n      0x20\n      add\n      swap1\n      dup2\n      mstore\n      0x20\n      add\n      0x00\n      keccak256\n        /* \"contracts/Test.sol\":7401:7404  _id */\n      dup3\n        /* \"contracts/Test.sol\":7379:7405  marketProducts[_shop][_id] */\n      dup2\n      sload\n      dup2\n      lt\n      tag_344\n      jumpi\n      tag_345\n      tag_191\n      jump\t// in\n    tag_345:\n    tag_344:\n      swap1\n      0x00\n      mstore\n      keccak256(0x00, 0x20)\n      swap1\n      0x05\n      mul\n      add\n        /* \"contracts/Test.sol\":7379:7413  marketProducts[_shop][_id].inStock */\n      0x01\n      add\n      sload\n        /* \"contracts/Test.sol\":7368:7375  _amount */\n      dup4\n        /* \"contracts/Test.sol\":7368:7413  _amount <= marketProducts[_shop][_id].inStock */\n      gt\n      iszero\n        /* \"contracts/Test.sol\":7360:7444  require(_amount <= marketProducts[_shop][_id].inStock, \"Not enough stock available\") */\n      tag_347\n      jumpi\n      mload(0x40)\n      0x08c379a000000000000000000000000000000000000000000000000000000000\n      dup2\n      mstore\n      0x04\n      add\n      tag_348\n      swap1\n      tag_349\n      jump\t// in\n    tag_348:\n      mload(0x40)\n      dup1\n      swap2\n      sub\n      swap1\n      revert\n    tag_347:\n        /* \"contracts/Test.sol\":7455:7470  uint totalPrice */\n      0x00\n        /* \"contracts/Test.sol\":7518:7525  1 ether */\n      0x0de0b6b3a7640000\n        /* \"contracts/Test.sol\":7483:7497  marketProducts */\n      0x05\n        /* \"contracts/Test.sol\":7483:7504  marketProducts[_shop] */\n      0x00\n        /* \"contracts/Test.sol\":7498:7503  _shop */\n      dup8\n        /* \"contracts/Test.sol\":7483:7504  marketProducts[_shop] */\n      0xffffffffffffffffffffffffffffffffffffffff\n      and\n      0xffffffffffffffffffffffffffffffffffffffff\n      and\n      dup2\n      mstore\n      0x20\n      add\n      swap1\n      dup2\n      mstore\n      0x20\n      add\n      0x00\n      keccak256\n        /* \"contracts/Test.sol\":7505:7508  _id */\n      dup5\n        /* \"contracts/Test.sol\":7483:7509  marketProducts[_shop][_id] */\n      dup2\n      sload\n      dup2\n      lt\n      tag_350\n      jumpi\n      tag_351\n      tag_191\n      jump\t// in\n    tag_351:\n    tag_350:\n      swap1\n      0x00\n      mstore\n      keccak256(0x00, 0x20)\n      swap1\n      0x05\n      mul\n      add\n        /* \"contracts/Test.sol\":7483:7515  marketProducts[_shop][_id].price */\n      0x02\n      add\n      sload\n        /* \"contracts/Test.sol\":7473:7480  _amount */\n      dup6\n        /* \"contracts/Test.sol\":7473:7515  _amount * marketProducts[_shop][_id].price */\n      tag_353\n      swap2\n      swap1\n      tag_204\n      jump\t// in\n    tag_353:\n        /* \"contracts/Test.sol\":7473:7525  _amount * marketProducts[_shop][_id].price * 1 ether */\n      tag_354\n      swap2\n      swap1\n      tag_204\n      jump\t// in\n    tag_354:\n        /* \"contracts/Test.sol\":7455:7525  uint totalPrice = _amount * marketProducts[_shop][_id].price * 1 ether */\n      swap1\n      pop\n        /* \"contracts/Test.sol\":7559:7569  msg.sender */\n      caller\n        /* \"contracts/Test.sol\":7540:7569  referrals[_ref] == msg.sender */\n      0xffffffffffffffffffffffffffffffffffffffff\n      and\n        /* \"contracts/Test.sol\":7540:7549  referrals */\n      0x07\n        /* \"contracts/Test.sol\":7550:7554  _ref */\n      dup4\n        /* \"contracts/Test.sol\":7540:7555  referrals[_ref] */\n      mload(0x40)\n      tag_355\n      swap2\n      swap1\n      tag_356\n      jump\t// in\n    tag_355:\n      swap1\n      dup2\n      mstore\n      0x20\n      add\n      mload(0x40)\n      dup1\n      swap2\n      sub\n      swap1\n      keccak256\n      0x00\n      swap1\n      sload\n      swap1\n      0x0100\n      exp\n      swap1\n      div\n      0xffffffffffffffffffffffffffffffffffffffff\n      and\n        /* \"contracts/Test.sol\":7540:7569  referrals[_ref] == msg.sender */\n      0xffffffffffffffffffffffffffffffffffffffff\n      and\n      sub\n        /* \"contracts/Test.sol\":7536:7674  if (referrals[_ref] == msg.sender) {... */\n      tag_357\n      jumpi\n        /* \"contracts/Test.sol\":7617:7620  100 */\n      0x64\n        /* \"contracts/Test.sol\":7612:7614  90 */\n      0x5a\n        /* \"contracts/Test.sol\":7599:7609  totalPrice */\n      dup3\n        /* \"contracts/Test.sol\":7599:7614  totalPrice * 90 */\n      tag_358\n      swap2\n      swap1\n      tag_204\n      jump\t// in\n    tag_358:\n        /* \"contracts/Test.sol\":7599:7620  totalPrice * 90 / 100 */\n      tag_359\n      swap2\n      swap1\n      tag_156\n      jump\t// in\n    tag_359:\n        /* \"contracts/Test.sol\":7585:7621  totalPrice = (totalPrice * 90 / 100) */\n      swap1\n      pop\n        /* \"contracts/Test.sol\":7661:7662  0 */\n      0x00\n        /* \"contracts/Test.sol\":7635:7644  referrals */\n      0x07\n        /* \"contracts/Test.sol\":7645:7649  _ref */\n      dup4\n        /* \"contracts/Test.sol\":7635:7650  referrals[_ref] */\n      mload(0x40)\n      tag_360\n      swap2\n      swap1\n      tag_356\n      jump\t// in\n    tag_360:\n      swap1\n      dup2\n      mstore\n      0x20\n      add\n      mload(0x40)\n      dup1\n      swap2\n      sub\n      swap1\n      keccak256\n      0x00\n        /* \"contracts/Test.sol\":7635:7663  referrals[_ref] = address(0) */\n      0x0100\n      exp\n      dup2\n      sload\n      dup2\n      0xffffffffffffffffffffffffffffffffffffffff\n      mul\n      not\n      and\n      swap1\n      dup4\n      0xffffffffffffffffffffffffffffffffffffffff\n      and\n      mul\n      or\n      swap1\n      sstore\n      pop\n        /* \"contracts/Test.sol\":7536:7674  if (referrals[_ref] == msg.sender) {... */\n    tag_357:\n        /* \"contracts/Test.sol\":7705:7715  totalPrice */\n      dup1\n        /* \"contracts/Test.sol\":7692:7701  msg.value */\n      callvalue\n        /* \"contracts/Test.sol\":7692:7715  msg.value >= totalPrice */\n      lt\n      iszero\n        /* \"contracts/Test.sol\":7684:7743  require(msg.value >= totalPrice, \"Insufficient funds sent\") */\n      tag_361\n      jumpi\n      mload(0x40)\n      0x08c379a000000000000000000000000000000000000000000000000000000000\n      dup2\n      mstore\n      0x04\n      add\n      tag_362\n      swap1\n      tag_363\n      jump\t// in\n    tag_362:\n      mload(0x40)\n      dup1\n      swap2\n      sub\n      swap1\n      revert\n    tag_361:\n        /* \"contracts/Test.sol\":7753:7771  bool productExists */\n      0x00\n        /* \"contracts/Test.sol\":7795:7801  uint i */\n      dup1\n        /* \"contracts/Test.sol\":7790:8121  for (uint i = 0; i < userProducts[msg.sender].length; i++) {... */\n    tag_364:\n        /* \"contracts/Test.sol\":7811:7823  userProducts */\n      0x04\n        /* \"contracts/Test.sol\":7811:7835  userProducts[msg.sender] */\n      0x00\n        /* \"contracts/Test.sol\":7824:7834  msg.sender */\n      caller\n        /* \"contracts/Test.sol\":7811:7835  userProducts[msg.sender] */\n      0xffffffffffffffffffffffffffffffffffffffff\n      and\n      0xffffffffffffffffffffffffffffffffffffffff\n      and\n      dup2\n      mstore\n      0x20\n      add\n      swap1\n      dup2\n      mstore\n      0x20\n      add\n      0x00\n      keccak256\n        /* \"contracts/Test.sol\":7811:7842  userProducts[msg.sender].length */\n      dup1\n      sload\n      swap1\n      pop\n        /* \"contracts/Test.sol\":7807:7808  i */\n      dup2\n        /* \"contracts/Test.sol\":7807:7842  i < userProducts[msg.sender].length */\n      lt\n        /* \"contracts/Test.sol\":7790:8121  for (uint i = 0; i < userProducts[msg.sender].length; i++) {... */\n      iszero\n      tag_365\n      jumpi\n        /* \"contracts/Test.sol\":7937:7949  userProducts */\n      0x04\n        /* \"contracts/Test.sol\":7937:7956  userProducts[_shop] */\n      0x00\n        /* \"contracts/Test.sol\":7950:7955  _shop */\n      dup9\n        /* \"contracts/Test.sol\":7937:7956  userProducts[_shop] */\n      0xffffffffffffffffffffffffffffffffffffffff\n      and\n      0xffffffffffffffffffffffffffffffffffffffff\n      and\n      dup2\n      mstore\n      0x20\n      add\n      swap1\n      dup2\n      mstore\n      0x20\n      add\n      0x00\n      keccak256\n        /* \"contracts/Test.sol\":7957:7960  _id */\n      dup6\n        /* \"contracts/Test.sol\":7937:7961  userProducts[_shop][_id] */\n      dup2\n      sload\n      dup2\n      lt\n      tag_367\n      jumpi\n      tag_368\n      tag_191\n      jump\t// in\n    tag_368:\n    tag_367:\n      swap1\n      0x00\n      mstore\n      keccak256(0x00, 0x20)\n      swap1\n      0x05\n      mul\n      add\n        /* \"contracts/Test.sol\":7937:7966  userProducts[_shop][_id].name */\n      0x03\n      add\n        /* \"contracts/Test.sol\":7921:7968  keccak256(bytes(userProducts[_shop][_id].name)) */\n      mload(0x40)\n      tag_370\n      swap2\n      swap1\n      tag_371\n      jump\t// in\n    tag_370:\n      mload(0x40)\n      dup1\n      swap2\n      sub\n      swap1\n      keccak256\n        /* \"contracts/Test.sol\":7883:7895  userProducts */\n      0x04\n        /* \"contracts/Test.sol\":7883:7907  userProducts[msg.sender] */\n      0x00\n        /* \"contracts/Test.sol\":7896:7906  msg.sender */\n      caller\n        /* \"contracts/Test.sol\":7883:7907  userProducts[msg.sender] */\n      0xffffffffffffffffffffffffffffffffffffffff\n      and\n      0xffffffffffffffffffffffffffffffffffffffff\n      and\n      dup2\n      mstore\n      0x20\n      add\n      swap1\n      dup2\n      mstore\n      0x20\n      add\n      0x00\n      keccak256\n        /* \"contracts/Test.sol\":7908:7909  i */\n      dup3\n        /* \"contracts/Test.sol\":7883:7910  userProducts[msg.sender][i] */\n      dup2\n      sload\n      dup2\n      lt\n      tag_372\n      jumpi\n      tag_373\n      tag_191\n      jump\t// in\n    tag_373:\n    tag_372:\n      swap1\n      0x00\n      mstore\n      keccak256(0x00, 0x20)\n      swap1\n      0x05\n      mul\n      add\n        /* \"contracts/Test.sol\":7883:7915  userProducts[msg.sender][i].name */\n      0x03\n      add\n        /* \"contracts/Test.sol\":7867:7917  keccak256(bytes(userProducts[msg.sender][i].name)) */\n      mload(0x40)\n      tag_375\n      swap2\n      swap1\n      tag_371\n      jump\t// in\n    tag_375:\n      mload(0x40)\n      dup1\n      swap2\n      sub\n      swap1\n      keccak256\n        /* \"contracts/Test.sol\":7867:7968  keccak256(bytes(userProducts[msg.sender][i].name)) == keccak256(bytes(userProducts[_shop][_id].name)) */\n      sub\n        /* \"contracts/Test.sol\":7863:8111  if (keccak256(bytes(userProducts[msg.sender][i].name)) == keccak256(bytes(userProducts[_shop][_id].name))) {... */\n      tag_376\n      jumpi\n        /* \"contracts/Test.sol\":8027:8034  _amount */\n      dup6\n        /* \"contracts/Test.sol\":7988:8000  userProducts */\n      0x04\n        /* \"contracts/Test.sol\":7988:8012  userProducts[msg.sender] */\n      0x00\n        /* \"contracts/Test.sol\":8001:8011  msg.sender */\n      caller\n        /* \"contracts/Test.sol\":7988:8012  userProducts[msg.sender] */\n      0xffffffffffffffffffffffffffffffffffffffff\n      and\n      0xffffffffffffffffffffffffffffffffffffffff\n      and\n      dup2\n      mstore\n      0x20\n      add\n      swap1\n      dup2\n      mstore\n      0x20\n      add\n      0x00\n      keccak256\n        /* \"contracts/Test.sol\":8013:8014  i */\n      dup3\n        /* \"contracts/Test.sol\":7988:8015  userProducts[msg.sender][i] */\n      dup2\n      sload\n      dup2\n      lt\n      tag_377\n      jumpi\n      tag_378\n      tag_191\n      jump\t// in\n    tag_378:\n    tag_377:\n      swap1\n      0x00\n      mstore\n      keccak256(0x00, 0x20)\n      swap1\n      0x05\n      mul\n      add\n        /* \"contracts/Test.sol\":7988:8023  userProducts[msg.sender][i].inStock */\n      0x01\n      add\n      0x00\n        /* \"contracts/Test.sol\":7988:8034  userProducts[msg.sender][i].inStock += _amount */\n      dup3\n      dup3\n      sload\n      tag_380\n      swap2\n      swap1\n      tag_213\n      jump\t// in\n    tag_380:\n      swap3\n      pop\n      pop\n      dup2\n      swap1\n      sstore\n      pop\n        /* \"contracts/Test.sol\":8068:8072  true */\n      0x01\n        /* \"contracts/Test.sol\":8052:8072  productExists = true */\n      swap2\n      pop\n        /* \"contracts/Test.sol\":8090:8095  break */\n      jump(tag_365)\n        /* \"contracts/Test.sol\":7863:8111  if (keccak256(bytes(userProducts[msg.sender][i].name)) == keccak256(bytes(userProducts[_shop][_id].name))) {... */\n    tag_376:\n        /* \"contracts/Test.sol\":7844:7847  i++ */\n      dup1\n      dup1\n      tag_381\n      swap1\n      tag_268\n      jump\t// in\n    tag_381:\n      swap2\n      pop\n      pop\n        /* \"contracts/Test.sol\":7790:8121  for (uint i = 0; i < userProducts[msg.sender].length; i++) {... */\n      jump(tag_364)\n    tag_365:\n      pop\n        /* \"contracts/Test.sol\":8136:8149  productExists */\n      dup1\n        /* \"contracts/Test.sol\":8131:8363  if (!productExists) {... */\n      tag_382\n      jumpi\n        /* \"contracts/Test.sol\":8165:8187  Product memory newItem */\n      0x00\n        /* \"contracts/Test.sol\":8190:8300  Product(msg.sender, _amount, marketProducts[_shop][_id].price, marketProducts[_shop][_id].name, randMod(1000)) */\n      mload(0x40)\n      dup1\n      0xa0\n      add\n      0x40\n      mstore\n      dup1\n        /* \"contracts/Test.sol\":8198:8208  msg.sender */\n      caller\n        /* \"contracts/Test.sol\":8190:8300  Product(msg.sender, _amount, marketProducts[_shop][_id].price, marketProducts[_shop][_id].name, randMod(1000)) */\n      0xffffffffffffffffffffffffffffffffffffffff\n      and\n      dup2\n      mstore\n      0x20\n      add\n        /* \"contracts/Test.sol\":8210:8217  _amount */\n      dup8\n        /* \"contracts/Test.sol\":8190:8300  Product(msg.sender, _amount, marketProducts[_shop][_id].price, marketProducts[_shop][_id].name, randMod(1000)) */\n      dup2\n      mstore\n      0x20\n      add\n        /* \"contracts/Test.sol\":8219:8233  marketProducts */\n      0x05\n        /* \"contracts/Test.sol\":8219:8240  marketProducts[_shop] */\n      0x00\n        /* \"contracts/Test.sol\":8234:8239  _shop */\n      dup11\n        /* \"contracts/Test.sol\":8219:8240  marketProducts[_shop] */\n      0xffffffffffffffffffffffffffffffffffffffff\n      and\n      0xffffffffffffffffffffffffffffffffffffffff\n      and\n      dup2\n      mstore\n      0x20\n      add\n      swap1\n      dup2\n      mstore\n      0x20\n      add\n      0x00\n      keccak256\n        /* \"contracts/Test.sol\":8241:8244  _id */\n      dup8\n        /* \"contracts/Test.sol\":8219:8245  marketProducts[_shop][_id] */\n      dup2\n      sload\n      dup2\n      lt\n      tag_383\n      jumpi\n      tag_384\n      tag_191\n      jump\t// in\n    tag_384:\n    tag_383:\n      swap1\n      0x00\n      mstore\n      keccak256(0x00, 0x20)\n      swap1\n      0x05\n      mul\n      add\n        /* \"contracts/Test.sol\":8219:8251  marketProducts[_shop][_id].price */\n      0x02\n      add\n      sload\n        /* \"contracts/Test.sol\":8190:8300  Product(msg.sender, _amount, marketProducts[_shop][_id].price, marketProducts[_shop][_id].name, randMod(1000)) */\n      dup2\n      mstore\n      0x20\n      add\n        /* \"contracts/Test.sol\":8253:8267  marketProducts */\n      0x05\n        /* \"contracts/Test.sol\":8253:8274  marketProducts[_shop] */\n      0x00\n        /* \"contracts/Test.sol\":8268:8273  _shop */\n      dup11\n        /* \"contracts/Test.sol\":8253:8274  marketProducts[_shop] */\n      0xffffffffffffffffffffffffffffffffffffffff\n      and\n      0xffffffffffffffffffffffffffffffffffffffff\n      and\n      dup2\n      mstore\n      0x20\n      add\n      swap1\n      dup2\n      mstore\n      0x20\n      add\n      0x00\n      keccak256\n        /* \"contracts/Test.sol\":8275:8278  _id */\n      dup8\n        /* \"contracts/Test.sol\":8253:8279  marketProducts[_shop][_id] */\n      dup2\n      sload\n      dup2\n      lt\n      tag_386\n      jumpi\n      tag_387\n      tag_191\n      jump\t// in\n    tag_387:\n    tag_386:\n      swap1\n      0x00\n      mstore\n      keccak256(0x00, 0x20)\n      swap1\n      0x05\n      mul\n      add\n        /* \"contracts/Test.sol\":8253:8284  marketProducts[_shop][_id].name */\n      0x03\n      add\n        /* \"contracts/Test.sol\":8190:8300  Product(msg.sender, _amount, marketProducts[_shop][_id].price, marketProducts[_shop][_id].name, randMod(1000)) */\n      dup1\n      sload\n      tag_389\n      swap1\n      tag_163\n      jump\t// in\n    tag_389:\n      dup1\n      0x1f\n      add\n      0x20\n      dup1\n      swap2\n      div\n      mul\n      0x20\n      add\n      mload(0x40)\n      swap1\n      dup2\n      add\n      0x40\n      mstore\n      dup1\n      swap3\n      swap2\n      swap1\n      dup2\n      dup2\n      mstore\n      0x20\n      add\n      dup3\n      dup1\n      sload\n      tag_390\n      swap1\n      tag_163\n      jump\t// in\n    tag_390:\n      dup1\n      iszero\n      tag_391\n      jumpi\n      dup1\n      0x1f\n      lt\n      tag_392\n      jumpi\n      0x0100\n      dup1\n      dup4\n      sload\n      div\n      mul\n      dup4\n      mstore\n      swap2\n      0x20\n      add\n      swap2\n      jump(tag_391)\n    tag_392:\n      dup3\n      add\n      swap2\n      swap1\n      0x00\n      mstore\n      keccak256(0x00, 0x20)\n      swap1\n    tag_393:\n      dup2\n      sload\n      dup2\n      mstore\n      swap1\n      0x01\n      add\n      swap1\n      0x20\n      add\n      dup1\n      dup4\n      gt\n      tag_393\n      jumpi\n      dup3\n      swap1\n      sub\n      0x1f\n      and\n      dup3\n      add\n      swap2\n    tag_391:\n      pop\n      pop\n      pop\n      pop\n      pop\n      dup2\n      mstore\n      0x20\n      add\n        /* \"contracts/Test.sol\":8286:8299  randMod(1000) */\n      tag_394\n        /* \"contracts/Test.sol\":8294:8298  1000 */\n      0x03e8\n        /* \"contracts/Test.sol\":8286:8293  randMod */\n      tag_105\n        /* \"contracts/Test.sol\":8286:8299  randMod(1000) */\n      jump\t// in\n    tag_394:\n        /* \"contracts/Test.sol\":8190:8300  Product(msg.sender, _amount, marketProducts[_shop][_id].price, marketProducts[_shop][_id].name, randMod(1000)) */\n      dup2\n      mstore\n      pop\n        /* \"contracts/Test.sol\":8165:8300  Product memory newItem = Product(msg.sender, _amount, marketProducts[_shop][_id].price, marketProducts[_shop][_id].name, randMod(1000)) */\n      swap1\n      pop\n        /* \"contracts/Test.sol\":8314:8326  userProducts */\n      0x04\n        /* \"contracts/Test.sol\":8314:8338  userProducts[msg.sender] */\n      0x00\n        /* \"contracts/Test.sol\":8327:8337  msg.sender */\n      caller\n        /* \"contracts/Test.sol\":8314:8338  userProducts[msg.sender] */\n      0xffffffffffffffffffffffffffffffffffffffff\n      and\n      0xffffffffffffffffffffffffffffffffffffffff\n      and\n      dup2\n      mstore\n      0x20\n      add\n      swap1\n      dup2\n      mstore\n      0x20\n      add\n      0x00\n      keccak256\n        /* \"contracts/Test.sol\":8344:8351  newItem */\n      dup2\n        /* \"contracts/Test.sol\":8314:8352  userProducts[msg.sender].push(newItem) */\n      swap1\n      dup1\n      0x01\n      dup2\n      sload\n      add\n      dup1\n      dup3\n      sstore\n      dup1\n      swap2\n      pop\n      pop\n      0x01\n      swap1\n      sub\n      swap1\n      0x00\n      mstore\n      keccak256(0x00, 0x20)\n      swap1\n      0x05\n      mul\n      add\n      0x00\n      swap1\n      swap2\n      swap1\n      swap2\n      swap1\n      swap2\n      pop\n      0x00\n      dup3\n      add\n      mload\n      dup2\n      0x00\n      add\n      exp(0x0100, 0x00)\n      dup2\n      sload\n      dup2\n      0xffffffffffffffffffffffffffffffffffffffff\n      mul\n      not\n      and\n      swap1\n      dup4\n      0xffffffffffffffffffffffffffffffffffffffff\n      and\n      mul\n      or\n      swap1\n      sstore\n      pop\n      0x20\n      dup3\n      add\n      mload\n      dup2\n      0x01\n      add\n      sstore\n      0x40\n      dup3\n      add\n      mload\n      dup2\n      0x02\n      add\n      sstore\n      0x60\n      dup3\n      add\n      mload\n      dup2\n      0x03\n      add\n      swap1\n      dup2\n      tag_396\n      swap2\n      swap1\n      tag_159\n      jump\t// in\n    tag_396:\n      pop\n      0x80\n      dup3\n      add\n      mload\n      dup2\n      0x04\n      add\n      sstore\n      pop\n      pop\n        /* \"contracts/Test.sol\":8151:8363  {... */\n      pop\n        /* \"contracts/Test.sol\":8131:8363  if (!productExists) {... */\n    tag_382:\n        /* \"contracts/Test.sol\":8411:8418  _amount */\n      dup5\n        /* \"contracts/Test.sol\":8373:8387  marketProducts */\n      0x05\n        /* \"contracts/Test.sol\":8373:8394  marketProducts[_shop] */\n      0x00\n        /* \"contracts/Test.sol\":8388:8393  _shop */\n      dup9\n        /* \"contracts/Test.sol\":8373:8394  marketProducts[_shop] */\n      0xffffffffffffffffffffffffffffffffffffffff\n      and\n      0xffffffffffffffffffffffffffffffffffffffff\n      and\n      dup2\n      mstore\n      0x20\n      add\n      swap1\n      dup2\n      mstore\n      0x20\n      add\n      0x00\n      keccak256\n        /* \"contracts/Test.sol\":8395:8398  _id */\n      dup6\n        /* \"contracts/Test.sol\":8373:8399  marketProducts[_shop][_id] */\n      dup2\n      sload\n      dup2\n      lt\n      tag_397\n      jumpi\n      tag_398\n      tag_191\n      jump\t// in\n    tag_398:\n    tag_397:\n      swap1\n      0x00\n      mstore\n      keccak256(0x00, 0x20)\n      swap1\n      0x05\n      mul\n      add\n        /* \"contracts/Test.sol\":8373:8407  marketProducts[_shop][_id].inStock */\n      0x01\n      add\n      0x00\n        /* \"contracts/Test.sol\":8373:8418  marketProducts[_shop][_id].inStock -= _amount */\n      dup3\n      dup3\n      sload\n      tag_400\n      swap2\n      swap1\n      tag_220\n      jump\t// in\n    tag_400:\n      swap3\n      pop\n      pop\n      dup2\n      swap1\n      sstore\n      pop\n        /* \"contracts/Test.sol\":8451:8461  totalPrice */\n      dup2\n        /* \"contracts/Test.sol\":8428:8433  users */\n      0x03\n        /* \"contracts/Test.sol\":8428:8440  users[_shop] */\n      0x00\n        /* \"contracts/Test.sol\":8434:8439  _shop */\n      dup9\n        /* \"contracts/Test.sol\":8428:8440  users[_shop] */\n      0xffffffffffffffffffffffffffffffffffffffff\n      and\n      0xffffffffffffffffffffffffffffffffffffffff\n      and\n      dup2\n      mstore\n      0x20\n      add\n      swap1\n      dup2\n      mstore\n      0x20\n      add\n      0x00\n      keccak256\n        /* \"contracts/Test.sol\":8428:8448  users[_shop].balance */\n      0x01\n      add\n        /* \"contracts/Test.sol\":8428:8461  users[_shop].balance = totalPrice */\n      dup2\n      swap1\n      sstore\n      pop\n        /* \"contracts/Test.sol\":8488:8498  totalPrice */\n      dup2\n        /* \"contracts/Test.sol\":8476:8485  msg.value */\n      callvalue\n        /* \"contracts/Test.sol\":8476:8498  msg.value > totalPrice */\n      gt\n        /* \"contracts/Test.sol\":8472:8577  if (msg.value > totalPrice) {... */\n      iszero\n      tag_401\n      jumpi\n        /* \"contracts/Test.sol\":8522:8532  msg.sender */\n      caller\n        /* \"contracts/Test.sol\":8514:8542  payable(msg.sender).transfer */\n      0xffffffffffffffffffffffffffffffffffffffff\n      and\n        /* \"contracts/Test.sol\":8514:8566  payable(msg.sender).transfer(msg.value - totalPrice) */\n      0x08fc\n        /* \"contracts/Test.sol\":8555:8565  totalPrice */\n      dup4\n        /* \"contracts/Test.sol\":8543:8552  msg.value */\n      callvalue\n        /* \"contracts/Test.sol\":8543:8565  msg.value - totalPrice */\n      tag_402\n      swap2\n      swap1\n      tag_220\n      jump\t// in\n    tag_402:\n        /* \"contracts/Test.sol\":8514:8566  payable(msg.sender).transfer(msg.value - totalPrice) */\n      swap1\n      dup2\n      iszero\n      mul\n      swap1\n      mload(0x40)\n      0x00\n      mload(0x40)\n      dup1\n      dup4\n      sub\n      dup2\n      dup6\n      dup9\n      dup9\n      call\n      swap4\n      pop\n      pop\n      pop\n      pop\n      iszero\n      dup1\n      iszero\n      tag_404\n      jumpi\n      returndatasize\n      0x00\n      dup1\n      returndatacopy\n      revert(0x00, returndatasize)\n    tag_404:\n      pop\n        /* \"contracts/Test.sol\":8472:8577  if (msg.value > totalPrice) {... */\n    tag_401:\n        /* \"contracts/Test.sol\":7080:8583  {... */\n      pop\n      pop\n        /* \"contracts/Test.sol\":6987:8583  function purchase(address _shop, uint _amount, uint _id, string memory _ref ) public payable {... */\n      pop\n      pop\n      pop\n      pop\n      jump\t// out\n        /* \"contracts/Test.sol\":3113:3257  function genRef(string memory _nameRef, address _user) public {... */\n    tag_126:\n        /* \"contracts/Test.sol\":3207:3212  _user */\n      dup1\n        /* \"contracts/Test.sol\":3193:3212  msg.sender != _user */\n      0xffffffffffffffffffffffffffffffffffffffff\n      and\n        /* \"contracts/Test.sol\":3193:3203  msg.sender */\n      caller\n        /* \"contracts/Test.sol\":3193:3212  msg.sender != _user */\n      0xffffffffffffffffffffffffffffffffffffffff\n      and\n      sub\n        /* \"contracts/Test.sol\":3185:3213  require(msg.sender != _user) */\n      tag_406\n      jumpi\n      0x00\n      dup1\n      revert\n    tag_406:\n        /* \"contracts/Test.sol\":3245:3250  _user */\n      dup1\n        /* \"contracts/Test.sol\":3223:3232  referrals */\n      0x07\n        /* \"contracts/Test.sol\":3233:3241  _nameRef */\n      dup4\n        /* \"contracts/Test.sol\":3223:3242  referrals[_nameRef] */\n      mload(0x40)\n      tag_407\n      swap2\n      swap1\n      tag_356\n      jump\t// in\n    tag_407:\n      swap1\n      dup2\n      mstore\n      0x20\n      add\n      mload(0x40)\n      dup1\n      swap2\n      sub\n      swap1\n      keccak256\n      0x00\n        /* \"contracts/Test.sol\":3223:3250  referrals[_nameRef] = _user */\n      0x0100\n      exp\n      dup2\n      sload\n      dup2\n      0xffffffffffffffffffffffffffffffffffffffff\n      mul\n      not\n      and\n      swap1\n      dup4\n      0xffffffffffffffffffffffffffffffffffffffff\n      and\n      mul\n      or\n      swap1\n      sstore\n      pop\n        /* \"contracts/Test.sol\":3113:3257  function genRef(string memory _nameRef, address _user) public {... */\n      pop\n      pop\n      jump\t// out\n        /* \"contracts/Test.sol\":917:954  mapping(address => User) public users */\n    tag_131:\n      mstore(0x20, 0x03)\n      dup1\n      0x00\n      mstore\n      keccak256(0x00, 0x40)\n      0x00\n      swap2\n      pop\n      swap1\n      pop\n      dup1\n      0x00\n      add\n      0x00\n      swap1\n      sload\n      swap1\n      0x0100\n      exp\n      swap1\n      div\n      0xff\n      and\n      swap1\n      dup1\n      0x01\n      add\n      sload\n      swap1\n      pop\n      dup3\n      jump\t// out\n        /* \"contracts/Test.sol\":1825:1907  function makeUser() public {... */\n    tag_136:\n        /* \"contracts/Test.sol\":1882:1900  User(Role.User, 0) */\n      mload(0x40)\n      dup1\n      0x40\n      add\n      0x40\n      mstore\n      dup1\n        /* \"contracts/Test.sol\":1887:1896  Role.User */\n      0x00\n        /* \"contracts/Test.sol\":1882:1900  User(Role.User, 0) */\n      0x02\n      dup2\n      gt\n      iszero\n      tag_409\n      jumpi\n      tag_410\n      tag_185\n      jump\t// in\n    tag_410:\n    tag_409:\n      dup2\n      mstore\n      0x20\n      add\n        /* \"contracts/Test.sol\":1898:1899  0 */\n      0x00\n        /* \"contracts/Test.sol\":1882:1900  User(Role.User, 0) */\n      dup2\n      mstore\n      pop\n        /* \"contracts/Test.sol\":1862:1867  users */\n      0x03\n        /* \"contracts/Test.sol\":1862:1879  users[msg.sender] */\n      0x00\n        /* \"contracts/Test.sol\":1868:1878  msg.sender */\n      caller\n        /* \"contracts/Test.sol\":1862:1879  users[msg.sender] */\n      0xffffffffffffffffffffffffffffffffffffffff\n      and\n      0xffffffffffffffffffffffffffffffffffffffff\n      and\n      dup2\n      mstore\n      0x20\n      add\n      swap1\n      dup2\n      mstore\n      0x20\n      add\n      0x00\n      keccak256\n        /* \"contracts/Test.sol\":1862:1900  users[msg.sender] = User(Role.User, 0) */\n      0x00\n      dup3\n      add\n      mload\n      dup2\n      0x00\n      add\n      exp(0x0100, 0x00)\n      dup2\n      sload\n      dup2\n      0xff\n      mul\n      not\n      and\n      swap1\n      dup4\n      0x02\n      dup2\n      gt\n      iszero\n      tag_411\n      jumpi\n      tag_412\n      tag_185\n      jump\t// in\n    tag_412:\n    tag_411:\n      mul\n      or\n      swap1\n      sstore\n      pop\n      0x20\n      dup3\n      add\n      mload\n      dup2\n      0x01\n      add\n      sstore\n      swap1\n      pop\n      pop\n        /* \"contracts/Test.sol\":1825:1907  function makeUser() public {... */\n      jump\t// out\n        /* \"contracts/Test.sol\":1131:1174  mapping(string => address) public referrals */\n    tag_140:\n      0x07\n      dup2\n      dup1\n      mload\n      0x20\n      dup2\n      add\n      dup3\n      add\n      dup1\n      mload\n      dup5\n      dup3\n      mstore\n      0x20\n      dup4\n      add\n      0x20\n      dup6\n      add\n      keccak256\n      dup2\n      dup4\n      mstore\n      dup1\n      swap6\n      pop\n      pop\n      pop\n      pop\n      pop\n      pop\n      0x00\n      swap2\n      pop\n      sload\n      swap1\n      0x0100\n      exp\n      swap1\n      div\n      0xffffffffffffffffffffffffffffffffffffffff\n      and\n      dup2\n      jump\t// out\n        /* \"contracts/Test.sol\":4139:4526  function acceptDelivery(bool _status, uint _deliveryId) public payable {... */\n    tag_145:\n        /* \"contracts/Test.sol\":4266:4283  Status.Prepairing */\n      0x01\n        /* \"contracts/Test.sol\":4228:4283  deliveryOrders[_deliveryId].status == Status.Prepairing */\n      0x03\n      dup2\n      gt\n      iszero\n      tag_414\n      jumpi\n      tag_415\n      tag_185\n      jump\t// in\n    tag_415:\n    tag_414:\n        /* \"contracts/Test.sol\":4228:4242  deliveryOrders */\n      0x02\n        /* \"contracts/Test.sol\":4243:4254  _deliveryId */\n      dup3\n        /* \"contracts/Test.sol\":4228:4255  deliveryOrders[_deliveryId] */\n      dup2\n      sload\n      dup2\n      lt\n      tag_416\n      jumpi\n      tag_417\n      tag_191\n      jump\t// in\n    tag_417:\n    tag_416:\n      swap1\n      0x00\n      mstore\n      keccak256(0x00, 0x20)\n      swap1\n      0x05\n      mul\n      add\n        /* \"contracts/Test.sol\":4228:4262  deliveryOrders[_deliveryId].status */\n      0x01\n      add\n      0x14\n      swap1\n      sload\n      swap1\n      0x0100\n      exp\n      swap1\n      div\n      0xff\n      and\n        /* \"contracts/Test.sol\":4228:4283  deliveryOrders[_deliveryId].status == Status.Prepairing */\n      0x03\n      dup2\n      gt\n      iszero\n      tag_419\n      jumpi\n      tag_420\n      tag_185\n      jump\t// in\n    tag_420:\n    tag_419:\n      eq\n        /* \"contracts/Test.sol\":4220:4284  require(deliveryOrders[_deliveryId].status == Status.Prepairing) */\n      tag_421\n      jumpi\n      0x00\n      dup1\n      revert\n    tag_421:\n        /* \"contracts/Test.sol\":4298:4305  _status */\n      dup2\n        /* \"contracts/Test.sol\":4294:4520  if (_status) { ... */\n      iszero\n      tag_422\n      jumpi\n        /* \"contracts/Test.sol\":4322:4417  purchase(deliveryOrders[_deliveryId].shop, deliveryOrders[_deliveryId].amount, _deliveryId, \"\") */\n      tag_423\n        /* \"contracts/Test.sol\":4331:4345  deliveryOrders */\n      0x02\n        /* \"contracts/Test.sol\":4346:4357  _deliveryId */\n      dup3\n        /* \"contracts/Test.sol\":4331:4358  deliveryOrders[_deliveryId] */\n      dup2\n      sload\n      dup2\n      lt\n      tag_424\n      jumpi\n      tag_425\n      tag_191\n      jump\t// in\n    tag_425:\n    tag_424:\n      swap1\n      0x00\n      mstore\n      keccak256(0x00, 0x20)\n      swap1\n      0x05\n      mul\n      add\n        /* \"contracts/Test.sol\":4331:4363  deliveryOrders[_deliveryId].shop */\n      0x01\n      add\n      0x00\n      swap1\n      sload\n      swap1\n      0x0100\n      exp\n      swap1\n      div\n      0xffffffffffffffffffffffffffffffffffffffff\n      and\n        /* \"contracts/Test.sol\":4365:4379  deliveryOrders */\n      0x02\n        /* \"contracts/Test.sol\":4380:4391  _deliveryId */\n      dup4\n        /* \"contracts/Test.sol\":4365:4392  deliveryOrders[_deliveryId] */\n      dup2\n      sload\n      dup2\n      lt\n      tag_427\n      jumpi\n      tag_428\n      tag_191\n      jump\t// in\n    tag_428:\n    tag_427:\n      swap1\n      0x00\n      mstore\n      keccak256(0x00, 0x20)\n      swap1\n      0x05\n      mul\n      add\n        /* \"contracts/Test.sol\":4365:4399  deliveryOrders[_deliveryId].amount */\n      0x04\n      add\n      sload\n        /* \"contracts/Test.sol\":4401:4412  _deliveryId */\n      dup4\n        /* \"contracts/Test.sol\":4322:4417  purchase(deliveryOrders[_deliveryId].shop, deliveryOrders[_deliveryId].amount, _deliveryId, \"\") */\n      mload(0x40)\n      dup1\n      0x20\n      add\n      0x40\n      mstore\n      dup1\n      0x00\n      dup2\n      mstore\n      pop\n        /* \"contracts/Test.sol\":4322:4330  purchase */\n      tag_121\n        /* \"contracts/Test.sol\":4322:4417  purchase(deliveryOrders[_deliveryId].shop, deliveryOrders[_deliveryId].amount, _deliveryId, \"\") */\n      jump\t// in\n    tag_423:\n        /* \"contracts/Test.sol\":4294:4520  if (_status) { ... */\n      jump(tag_430)\n    tag_422:\n        /* \"contracts/Test.sol\":4494:4509  Status.Canceled */\n      0x02\n        /* \"contracts/Test.sol\":4456:4509  deliveryOrders[_deliveryId].status == Status.Canceled */\n      0x03\n      dup2\n      gt\n      iszero\n      tag_431\n      jumpi\n      tag_432\n      tag_185\n      jump\t// in\n    tag_432:\n    tag_431:\n        /* \"contracts/Test.sol\":4456:4470  deliveryOrders */\n      0x02\n        /* \"contracts/Test.sol\":4471:4482  _deliveryId */\n      dup3\n        /* \"contracts/Test.sol\":4456:4483  deliveryOrders[_deliveryId] */\n      dup2\n      sload\n      dup2\n      lt\n      tag_433\n      jumpi\n      tag_434\n      tag_191\n      jump\t// in\n    tag_434:\n    tag_433:\n      swap1\n      0x00\n      mstore\n      keccak256(0x00, 0x20)\n      swap1\n      0x05\n      mul\n      add\n        /* \"contracts/Test.sol\":4456:4490  deliveryOrders[_deliveryId].status */\n      0x01\n      add\n      0x14\n      swap1\n      sload\n      swap1\n      0x0100\n      exp\n      swap1\n      div\n      0xff\n      and\n        /* \"contracts/Test.sol\":4456:4509  deliveryOrders[_deliveryId].status == Status.Canceled */\n      0x03\n      dup2\n      gt\n      iszero\n      tag_436\n      jumpi\n      tag_437\n      tag_185\n      jump\t// in\n    tag_437:\n    tag_436:\n      pop\n      pop\n        /* \"contracts/Test.sol\":4294:4520  if (_status) { ... */\n    tag_430:\n        /* \"contracts/Test.sol\":4139:4526  function acceptDelivery(bool _status, uint _deliveryId) public payable {... */\n      pop\n      pop\n      jump\t// out\n        /* \"contracts/Test.sol\":8589:8694  function withdrawBal(address _shop) public {... */\n    tag_149:\n        /* \"contracts/Test.sol\":8650:8655  _shop */\n      dup1\n        /* \"contracts/Test.sol\":8642:8665  payable(_shop).transfer */\n      0xffffffffffffffffffffffffffffffffffffffff\n      and\n        /* \"contracts/Test.sol\":8642:8687  payable(_shop).transfer(users[_shop].balance) */\n      0x08fc\n        /* \"contracts/Test.sol\":8666:8671  users */\n      0x03\n        /* \"contracts/Test.sol\":8666:8678  users[_shop] */\n      0x00\n        /* \"contracts/Test.sol\":8672:8677  _shop */\n      dup5\n        /* \"contracts/Test.sol\":8666:8678  users[_shop] */\n      0xffffffffffffffffffffffffffffffffffffffff\n      and\n      0xffffffffffffffffffffffffffffffffffffffff\n      and\n      dup2\n      mstore\n      0x20\n      add\n      swap1\n      dup2\n      mstore\n      0x20\n      add\n      0x00\n      keccak256\n        /* \"contracts/Test.sol\":8666:8686  users[_shop].balance */\n      0x01\n      add\n      sload\n        /* \"contracts/Test.sol\":8642:8687  payable(_shop).transfer(users[_shop].balance) */\n      swap1\n      dup2\n      iszero\n      mul\n      swap1\n      mload(0x40)\n      0x00\n      mload(0x40)\n      dup1\n      dup4\n      sub\n      dup2\n      dup6\n      dup9\n      dup9\n      call\n      swap4\n      pop\n      pop\n      pop\n      pop\n      iszero\n      dup1\n      iszero\n      tag_440\n      jumpi\n      returndatasize\n      0x00\n      dup1\n      returndatacopy\n      revert(0x00, returndatasize)\n    tag_440:\n      pop\n        /* \"contracts/Test.sol\":8589:8694  function withdrawBal(address _shop) public {... */\n      pop\n      jump\t// out\n        /* \"contracts/Test.sol\":5104:6432  function refillStore(address _shop, uint _productId, uint _amount, address _supplier) public payable AccessControl(Role.Market, _shop) {... */\n    tag_153:\n        /* \"contracts/Test.sol\":5219:5230  Role.Market */\n      0x01\n        /* \"contracts/Test.sol\":5232:5237  _shop */\n      dup5\n        /* \"contracts/Test.sol\":1426:1431  _role */\n      dup2\n        /* \"contracts/Test.sol\":1400:1431  users[msg.sender].role == _role */\n      0x02\n      dup2\n      gt\n      iszero\n      tag_442\n      jumpi\n      tag_443\n      tag_185\n      jump\t// in\n    tag_443:\n    tag_442:\n        /* \"contracts/Test.sol\":1400:1405  users */\n      0x03\n        /* \"contracts/Test.sol\":1400:1417  users[msg.sender] */\n      0x00\n        /* \"contracts/Test.sol\":1406:1416  msg.sender */\n      caller\n        /* \"contracts/Test.sol\":1400:1417  users[msg.sender] */\n      0xffffffffffffffffffffffffffffffffffffffff\n      and\n      0xffffffffffffffffffffffffffffffffffffffff\n      and\n      dup2\n      mstore\n      0x20\n      add\n      swap1\n      dup2\n      mstore\n      0x20\n      add\n      0x00\n      keccak256\n        /* \"contracts/Test.sol\":1400:1422  users[msg.sender].role */\n      0x00\n      add\n      0x00\n      swap1\n      sload\n      swap1\n      0x0100\n      exp\n      swap1\n      div\n      0xff\n      and\n        /* \"contracts/Test.sol\":1400:1431  users[msg.sender].role == _role */\n      0x02\n      dup2\n      gt\n      iszero\n      tag_444\n      jumpi\n      tag_445\n      tag_185\n      jump\t// in\n    tag_445:\n    tag_444:\n      eq\n        /* \"contracts/Test.sol\":1392:1508  require(users[msg.sender].role == _role, unicode\"Ваша роль не позволяет это изменять\") */\n      tag_446\n      jumpi\n      mload(0x40)\n      0x08c379a000000000000000000000000000000000000000000000000000000000\n      dup2\n      mstore\n      0x04\n      add\n      tag_447\n      swap1\n      tag_322\n      jump\t// in\n    tag_447:\n      mload(0x40)\n      dup1\n      swap2\n      sub\n      swap1\n      revert\n    tag_446:\n        /* \"contracts/Test.sol\":1540:1545  _shop */\n      dup1\n        /* \"contracts/Test.sol\":1526:1545  msg.sender == _shop */\n      0xffffffffffffffffffffffffffffffffffffffff\n      and\n        /* \"contracts/Test.sol\":1526:1536  msg.sender */\n      caller\n        /* \"contracts/Test.sol\":1526:1545  msg.sender == _shop */\n      0xffffffffffffffffffffffffffffffffffffffff\n      and\n      eq\n        /* \"contracts/Test.sol\":1518:1624  require(msg.sender == _shop, unicode\"Магазин не соответсвует отправителю\") */\n      tag_448\n      jumpi\n      mload(0x40)\n      0x08c379a000000000000000000000000000000000000000000000000000000000\n      dup2\n      mstore\n      0x04\n      add\n      tag_449\n      swap1\n      tag_325\n      jump\t// in\n    tag_449:\n      mload(0x40)\n      dup1\n      swap2\n      sub\n      swap1\n      revert\n    tag_448:\n        /* \"contracts/Test.sol\":5267:5268  0 */\n      0x00\n        /* \"contracts/Test.sol\":5257:5264  _amount */\n      dup5\n        /* \"contracts/Test.sol\":5257:5268  _amount > 0 */\n      gt\n        /* \"contracts/Test.sol\":5249:5311  require(_amount > 0, \"Purchase amount must be greater than 0\") */\n      tag_451\n      jumpi\n      mload(0x40)\n      0x08c379a000000000000000000000000000000000000000000000000000000000\n      dup2\n      mstore\n      0x04\n      add\n      tag_452\n      swap1\n      tag_288\n      jump\t// in\n    tag_452:\n      mload(0x40)\n      dup1\n      swap2\n      sub\n      swap1\n      revert\n    tag_451:\n        /* \"contracts/Test.sol\":5342:5358  supplierProducts */\n      0x06\n        /* \"contracts/Test.sol\":5342:5369  supplierProducts[_supplier] */\n      0x00\n        /* \"contracts/Test.sol\":5359:5368  _supplier */\n      dup5\n        /* \"contracts/Test.sol\":5342:5369  supplierProducts[_supplier] */\n      0xffffffffffffffffffffffffffffffffffffffff\n      and\n      0xffffffffffffffffffffffffffffffffffffffff\n      and\n      dup2\n      mstore\n      0x20\n      add\n      swap1\n      dup2\n      mstore\n      0x20\n      add\n      0x00\n      keccak256\n        /* \"contracts/Test.sol\":5342:5376  supplierProducts[_supplier].length */\n      dup1\n      sload\n      swap1\n      pop\n        /* \"contracts/Test.sol\":5329:5339  _productId */\n      dup6\n        /* \"contracts/Test.sol\":5329:5376  _productId < supplierProducts[_supplier].length */\n      lt\n        /* \"contracts/Test.sol\":5321:5399  require(_productId < supplierProducts[_supplier].length, \"Invalid product ID\") */\n      tag_453\n      jumpi\n      mload(0x40)\n      0x08c379a000000000000000000000000000000000000000000000000000000000\n      dup2\n      mstore\n      0x04\n      add\n      tag_454\n      swap1\n      tag_291\n      jump\t// in\n    tag_454:\n      mload(0x40)\n      dup1\n      swap2\n      sub\n      swap1\n      revert\n    tag_453:\n        /* \"contracts/Test.sol\":5409:5419  uint price */\n      0x00\n        /* \"contracts/Test.sol\":5422:5438  supplierProducts */\n      0x06\n        /* \"contracts/Test.sol\":5422:5449  supplierProducts[_supplier] */\n      0x00\n        /* \"contracts/Test.sol\":5439:5448  _supplier */\n      dup6\n        /* \"contracts/Test.sol\":5422:5449  supplierProducts[_supplier] */\n      0xffffffffffffffffffffffffffffffffffffffff\n      and\n      0xffffffffffffffffffffffffffffffffffffffff\n      and\n      dup2\n      mstore\n      0x20\n      add\n      swap1\n      dup2\n      mstore\n      0x20\n      add\n      0x00\n      keccak256\n        /* \"contracts/Test.sol\":5450:5460  _productId */\n      dup7\n        /* \"contracts/Test.sol\":5422:5461  supplierProducts[_supplier][_productId] */\n      dup2\n      sload\n      dup2\n      lt\n      tag_455\n      jumpi\n      tag_456\n      tag_191\n      jump\t// in\n    tag_456:\n    tag_455:\n      swap1\n      0x00\n      mstore\n      keccak256(0x00, 0x20)\n      swap1\n      0x05\n      mul\n      add\n        /* \"contracts/Test.sol\":5422:5467  supplierProducts[_supplier][_productId].price */\n      0x02\n      add\n      sload\n        /* \"contracts/Test.sol\":5409:5467  uint price = supplierProducts[_supplier][_productId].price */\n      swap1\n      pop\n        /* \"contracts/Test.sol\":5477:5492  uint totalPrice */\n      0x00\n        /* \"contracts/Test.sol\":5513:5520  1 ether */\n      0x0de0b6b3a7640000\n        /* \"contracts/Test.sol\":5503:5510  _amount */\n      dup7\n        /* \"contracts/Test.sol\":5495:5500  price */\n      dup4\n        /* \"contracts/Test.sol\":5495:5510  price * _amount */\n      tag_458\n      swap2\n      swap1\n      tag_204\n      jump\t// in\n    tag_458:\n        /* \"contracts/Test.sol\":5495:5520  price * _amount * 1 ether */\n      tag_459\n      swap2\n      swap1\n      tag_204\n      jump\t// in\n    tag_459:\n        /* \"contracts/Test.sol\":5477:5520  uint totalPrice = price * _amount * 1 ether */\n      swap1\n      pop\n        /* \"contracts/Test.sol\":5551:5561  totalPrice */\n      dup1\n        /* \"contracts/Test.sol\":5538:5547  msg.value */\n      callvalue\n        /* \"contracts/Test.sol\":5538:5561  msg.value >= totalPrice */\n      lt\n      iszero\n        /* \"contracts/Test.sol\":5530:5589  require(msg.value >= totalPrice, \"Insufficient funds sent\") */\n      tag_460\n      jumpi\n      mload(0x40)\n      0x08c379a000000000000000000000000000000000000000000000000000000000\n      dup2\n      mstore\n      0x04\n      add\n      tag_461\n      swap1\n      tag_363\n      jump\t// in\n    tag_461:\n      mload(0x40)\n      dup1\n      swap2\n      sub\n      swap1\n      revert\n    tag_460:\n        /* \"contracts/Test.sol\":5599:5623  string memory targetName */\n      0x00\n        /* \"contracts/Test.sol\":5626:5642  supplierProducts */\n      0x06\n        /* \"contracts/Test.sol\":5626:5653  supplierProducts[_supplier] */\n      0x00\n        /* \"contracts/Test.sol\":5643:5652  _supplier */\n      dup8\n        /* \"contracts/Test.sol\":5626:5653  supplierProducts[_supplier] */\n      0xffffffffffffffffffffffffffffffffffffffff\n      and\n      0xffffffffffffffffffffffffffffffffffffffff\n      and\n      dup2\n      mstore\n      0x20\n      add\n      swap1\n      dup2\n      mstore\n      0x20\n      add\n      0x00\n      keccak256\n        /* \"contracts/Test.sol\":5654:5664  _productId */\n      dup9\n        /* \"contracts/Test.sol\":5626:5665  supplierProducts[_supplier][_productId] */\n      dup2\n      sload\n      dup2\n      lt\n      tag_462\n      jumpi\n      tag_463\n      tag_191\n      jump\t// in\n    tag_463:\n    tag_462:\n      swap1\n      0x00\n      mstore\n      keccak256(0x00, 0x20)\n      swap1\n      0x05\n      mul\n      add\n        /* \"contracts/Test.sol\":5626:5670  supplierProducts[_supplier][_productId].name */\n      0x03\n      add\n        /* \"contracts/Test.sol\":5599:5670  string memory targetName = supplierProducts[_supplier][_productId].name */\n      dup1\n      sload\n      tag_465\n      swap1\n      tag_163\n      jump\t// in\n    tag_465:\n      dup1\n      0x1f\n      add\n      0x20\n      dup1\n      swap2\n      div\n      mul\n      0x20\n      add\n      mload(0x40)\n      swap1\n      dup2\n      add\n      0x40\n      mstore\n      dup1\n      swap3\n      swap2\n      swap1\n      dup2\n      dup2\n      mstore\n      0x20\n      add\n      dup3\n      dup1\n      sload\n      tag_466\n      swap1\n      tag_163\n      jump\t// in\n    tag_466:\n      dup1\n      iszero\n      tag_467\n      jumpi\n      dup1\n      0x1f\n      lt\n      tag_468\n      jumpi\n      0x0100\n      dup1\n      dup4\n      sload\n      div\n      mul\n      dup4\n      mstore\n      swap2\n      0x20\n      add\n      swap2\n      jump(tag_467)\n    tag_468:\n      dup3\n      add\n      swap2\n      swap1\n      0x00\n      mstore\n      keccak256(0x00, 0x20)\n      swap1\n    tag_469:\n      dup2\n      sload\n      dup2\n      mstore\n      swap1\n      0x01\n      add\n      swap1\n      0x20\n      add\n      dup1\n      dup4\n      gt\n      tag_469\n      jumpi\n      dup3\n      swap1\n      sub\n      0x1f\n      and\n      dup3\n      add\n      swap2\n    tag_467:\n      pop\n      pop\n      pop\n      pop\n      pop\n      swap1\n      pop\n        /* \"contracts/Test.sol\":5680:5698  bool productExists */\n      0x00\n        /* \"contracts/Test.sol\":5721:5727  uint i */\n      dup1\n        /* \"contracts/Test.sol\":5717:6018  for(uint i = 0; i< marketProducts[_shop].length; i++){... */\n    tag_470:\n        /* \"contracts/Test.sol\":5736:5750  marketProducts */\n      0x05\n        /* \"contracts/Test.sol\":5736:5757  marketProducts[_shop] */\n      0x00\n        /* \"contracts/Test.sol\":5751:5756  _shop */\n      dup13\n        /* \"contracts/Test.sol\":5736:5757  marketProducts[_shop] */\n      0xffffffffffffffffffffffffffffffffffffffff\n      and\n      0xffffffffffffffffffffffffffffffffffffffff\n      and\n      dup2\n      mstore\n      0x20\n      add\n      swap1\n      dup2\n      mstore\n      0x20\n      add\n      0x00\n      keccak256\n        /* \"contracts/Test.sol\":5736:5764  marketProducts[_shop].length */\n      dup1\n      sload\n      swap1\n      pop\n        /* \"contracts/Test.sol\":5733:5734  i */\n      dup2\n        /* \"contracts/Test.sol\":5733:5764  i< marketProducts[_shop].length */\n      lt\n        /* \"contracts/Test.sol\":5717:6018  for(uint i = 0; i< marketProducts[_shop].length; i++){... */\n      iszero\n      tag_471\n      jumpi\n        /* \"contracts/Test.sol\":5836:5850  marketProducts */\n      0x05\n        /* \"contracts/Test.sol\":5836:5857  marketProducts[_shop] */\n      0x00\n        /* \"contracts/Test.sol\":5851:5856  _shop */\n      dup13\n        /* \"contracts/Test.sol\":5836:5857  marketProducts[_shop] */\n      0xffffffffffffffffffffffffffffffffffffffff\n      and\n      0xffffffffffffffffffffffffffffffffffffffff\n      and\n      dup2\n      mstore\n      0x20\n      add\n      swap1\n      dup2\n      mstore\n      0x20\n      add\n      0x00\n      keccak256\n        /* \"contracts/Test.sol\":5858:5859  i */\n      dup2\n        /* \"contracts/Test.sol\":5836:5860  marketProducts[_shop][i] */\n      dup2\n      sload\n      dup2\n      lt\n      tag_473\n      jumpi\n      tag_474\n      tag_191\n      jump\t// in\n    tag_474:\n    tag_473:\n      swap1\n      0x00\n      mstore\n      keccak256(0x00, 0x20)\n      swap1\n      0x05\n      mul\n      add\n        /* \"contracts/Test.sol\":5836:5865  marketProducts[_shop][i].name */\n      0x03\n      add\n        /* \"contracts/Test.sol\":5820:5867  keccak256(bytes(marketProducts[_shop][i].name)) */\n      mload(0x40)\n      tag_476\n      swap2\n      swap1\n      tag_371\n      jump\t// in\n    tag_476:\n      mload(0x40)\n      dup1\n      swap2\n      sub\n      swap1\n      keccak256\n        /* \"contracts/Test.sol\":5804:5814  targetName */\n      dup4\n        /* \"contracts/Test.sol\":5788:5816  keccak256(bytes(targetName)) */\n      dup1\n      mload\n      swap1\n      0x20\n      add\n      keccak256\n        /* \"contracts/Test.sol\":5788:5867  keccak256(bytes(targetName)) == keccak256(bytes(marketProducts[_shop][i].name)) */\n      sub\n        /* \"contracts/Test.sol\":5784:6008  if (keccak256(bytes(targetName)) == keccak256(bytes(marketProducts[_shop][i].name))){... */\n      tag_477\n      jumpi\n        /* \"contracts/Test.sol\":5922:5929  _amount */\n      dup9\n        /* \"contracts/Test.sol\":5886:5900  marketProducts */\n      0x05\n        /* \"contracts/Test.sol\":5886:5907  marketProducts[_shop] */\n      0x00\n        /* \"contracts/Test.sol\":5901:5906  _shop */\n      dup14\n        /* \"contracts/Test.sol\":5886:5907  marketProducts[_shop] */\n      0xffffffffffffffffffffffffffffffffffffffff\n      and\n      0xffffffffffffffffffffffffffffffffffffffff\n      and\n      dup2\n      mstore\n      0x20\n      add\n      swap1\n      dup2\n      mstore\n      0x20\n      add\n      0x00\n      keccak256\n        /* \"contracts/Test.sol\":5908:5909  i */\n      dup3\n        /* \"contracts/Test.sol\":5886:5910  marketProducts[_shop][i] */\n      dup2\n      sload\n      dup2\n      lt\n      tag_478\n      jumpi\n      tag_479\n      tag_191\n      jump\t// in\n    tag_479:\n    tag_478:\n      swap1\n      0x00\n      mstore\n      keccak256(0x00, 0x20)\n      swap1\n      0x05\n      mul\n      add\n        /* \"contracts/Test.sol\":5886:5918  marketProducts[_shop][i].inStock */\n      0x01\n      add\n      0x00\n        /* \"contracts/Test.sol\":5886:5929  marketProducts[_shop][i].inStock += _amount */\n      dup3\n      dup3\n      sload\n      tag_481\n      swap2\n      swap1\n      tag_213\n      jump\t// in\n    tag_481:\n      swap3\n      pop\n      pop\n      dup2\n      swap1\n      sstore\n      pop\n        /* \"contracts/Test.sol\":5963:5967  true */\n      0x01\n        /* \"contracts/Test.sol\":5947:5967  productExists = true */\n      swap2\n      pop\n        /* \"contracts/Test.sol\":5985:5990  break */\n      jump(tag_471)\n        /* \"contracts/Test.sol\":5784:6008  if (keccak256(bytes(targetName)) == keccak256(bytes(marketProducts[_shop][i].name))){... */\n    tag_477:\n        /* \"contracts/Test.sol\":5766:5769  i++ */\n      dup1\n      dup1\n      tag_482\n      swap1\n      tag_268\n      jump\t// in\n    tag_482:\n      swap2\n      pop\n      pop\n        /* \"contracts/Test.sol\":5717:6018  for(uint i = 0; i< marketProducts[_shop].length; i++){... */\n      jump(tag_470)\n    tag_471:\n      pop\n        /* \"contracts/Test.sol\":6033:6046  productExists */\n      dup1\n        /* \"contracts/Test.sol\":6028:6241  if (!productExists){... */\n      tag_483\n      jumpi\n        /* \"contracts/Test.sol\":6061:6083  Product memory newItem */\n      0x00\n        /* \"contracts/Test.sol\":6086:6181  Product(_supplier, _amount, price, targetName, supplierProducts[_supplier][_productId].expDate) */\n      mload(0x40)\n      dup1\n      0xa0\n      add\n      0x40\n      mstore\n      dup1\n        /* \"contracts/Test.sol\":6094:6103  _supplier */\n      dup10\n        /* \"contracts/Test.sol\":6086:6181  Product(_supplier, _amount, price, targetName, supplierProducts[_supplier][_productId].expDate) */\n      0xffffffffffffffffffffffffffffffffffffffff\n      and\n      dup2\n      mstore\n      0x20\n      add\n        /* \"contracts/Test.sol\":6105:6112  _amount */\n      dup11\n        /* \"contracts/Test.sol\":6086:6181  Product(_supplier, _amount, price, targetName, supplierProducts[_supplier][_productId].expDate) */\n      dup2\n      mstore\n      0x20\n      add\n        /* \"contracts/Test.sol\":6114:6119  price */\n      dup7\n        /* \"contracts/Test.sol\":6086:6181  Product(_supplier, _amount, price, targetName, supplierProducts[_supplier][_productId].expDate) */\n      dup2\n      mstore\n      0x20\n      add\n        /* \"contracts/Test.sol\":6121:6131  targetName */\n      dup5\n        /* \"contracts/Test.sol\":6086:6181  Product(_supplier, _amount, price, targetName, supplierProducts[_supplier][_productId].expDate) */\n      dup2\n      mstore\n      0x20\n      add\n        /* \"contracts/Test.sol\":6133:6149  supplierProducts */\n      0x06\n        /* \"contracts/Test.sol\":6133:6160  supplierProducts[_supplier] */\n      0x00\n        /* \"contracts/Test.sol\":6150:6159  _supplier */\n      dup12\n        /* \"contracts/Test.sol\":6133:6160  supplierProducts[_supplier] */\n      0xffffffffffffffffffffffffffffffffffffffff\n      and\n      0xffffffffffffffffffffffffffffffffffffffff\n      and\n      dup2\n      mstore\n      0x20\n      add\n      swap1\n      dup2\n      mstore\n      0x20\n      add\n      0x00\n      keccak256\n        /* \"contracts/Test.sol\":6161:6171  _productId */\n      dup13\n        /* \"contracts/Test.sol\":6133:6172  supplierProducts[_supplier][_productId] */\n      dup2\n      sload\n      dup2\n      lt\n      tag_484\n      jumpi\n      tag_485\n      tag_191\n      jump\t// in\n    tag_485:\n    tag_484:\n      swap1\n      0x00\n      mstore\n      keccak256(0x00, 0x20)\n      swap1\n      0x05\n      mul\n      add\n        /* \"contracts/Test.sol\":6133:6180  supplierProducts[_supplier][_productId].expDate */\n      0x04\n      add\n      sload\n        /* \"contracts/Test.sol\":6086:6181  Product(_supplier, _amount, price, targetName, supplierProducts[_supplier][_productId].expDate) */\n      dup2\n      mstore\n      pop\n        /* \"contracts/Test.sol\":6061:6181  Product memory newItem = Product(_supplier, _amount, price, targetName, supplierProducts[_supplier][_productId].expDate) */\n      swap1\n      pop\n        /* \"contracts/Test.sol\":6195:6209  marketProducts */\n      0x05\n        /* \"contracts/Test.sol\":6195:6216  marketProducts[_shop] */\n      0x00\n        /* \"contracts/Test.sol\":6210:6215  _shop */\n      dup13\n        /* \"contracts/Test.sol\":6195:6216  marketProducts[_shop] */\n      0xffffffffffffffffffffffffffffffffffffffff\n      and\n      0xffffffffffffffffffffffffffffffffffffffff\n      and\n      dup2\n      mstore\n      0x20\n      add\n      swap1\n      dup2\n      mstore\n      0x20\n      add\n      0x00\n      keccak256\n        /* \"contracts/Test.sol\":6222:6229  newItem */\n      dup2\n        /* \"contracts/Test.sol\":6195:6230  marketProducts[_shop].push(newItem) */\n      swap1\n      dup1\n      0x01\n      dup2\n      sload\n      add\n      dup1\n      dup3\n      sstore\n      dup1\n      swap2\n      pop\n      pop\n      0x01\n      swap1\n      sub\n      swap1\n      0x00\n      mstore\n      keccak256(0x00, 0x20)\n      swap1\n      0x05\n      mul\n      add\n      0x00\n      swap1\n      swap2\n      swap1\n      swap2\n      swap1\n      swap2\n      pop\n      0x00\n      dup3\n      add\n      mload\n      dup2\n      0x00\n      add\n      exp(0x0100, 0x00)\n      dup2\n      sload\n      dup2\n      0xffffffffffffffffffffffffffffffffffffffff\n      mul\n      not\n      and\n      swap1\n      dup4\n      0xffffffffffffffffffffffffffffffffffffffff\n      and\n      mul\n      or\n      swap1\n      sstore\n      pop\n      0x20\n      dup3\n      add\n      mload\n      dup2\n      0x01\n      add\n      sstore\n      0x40\n      dup3\n      add\n      mload\n      dup2\n      0x02\n      add\n      sstore\n      0x60\n      dup3\n      add\n      mload\n      dup2\n      0x03\n      add\n      swap1\n      dup2\n      tag_488\n      swap2\n      swap1\n      tag_159\n      jump\t// in\n    tag_488:\n      pop\n      0x80\n      dup3\n      add\n      mload\n      dup2\n      0x04\n      add\n      sstore\n      pop\n      pop\n        /* \"contracts/Test.sol\":6047:6241  {... */\n      pop\n        /* \"contracts/Test.sol\":6028:6241  if (!productExists){... */\n    tag_483:\n        /* \"contracts/Test.sol\":6302:6309  _amount */\n      dup8\n        /* \"contracts/Test.sol\":6251:6267  supplierProducts */\n      0x06\n        /* \"contracts/Test.sol\":6251:6278  supplierProducts[_supplier] */\n      0x00\n        /* \"contracts/Test.sol\":6268:6277  _supplier */\n      dup10\n        /* \"contracts/Test.sol\":6251:6278  supplierProducts[_supplier] */\n      0xffffffffffffffffffffffffffffffffffffffff\n      and\n      0xffffffffffffffffffffffffffffffffffffffff\n      and\n      dup2\n      mstore\n      0x20\n      add\n      swap1\n      dup2\n      mstore\n      0x20\n      add\n      0x00\n      keccak256\n        /* \"contracts/Test.sol\":6279:6289  _productId */\n      dup11\n        /* \"contracts/Test.sol\":6251:6290  supplierProducts[_supplier][_productId] */\n      dup2\n      sload\n      dup2\n      lt\n      tag_489\n      jumpi\n      tag_490\n      tag_191\n      jump\t// in\n    tag_490:\n    tag_489:\n      swap1\n      0x00\n      mstore\n      keccak256(0x00, 0x20)\n      swap1\n      0x05\n      mul\n      add\n        /* \"contracts/Test.sol\":6251:6298  supplierProducts[_supplier][_productId].inStock */\n      0x01\n      add\n      0x00\n        /* \"contracts/Test.sol\":6251:6309  supplierProducts[_supplier][_productId].inStock -= _amount */\n      dup3\n      dup3\n      sload\n      tag_492\n      swap2\n      swap1\n      tag_220\n      jump\t// in\n    tag_492:\n      swap3\n      pop\n      pop\n      dup2\n      swap1\n      sstore\n      pop\n        /* \"contracts/Test.sol\":6336:6346  totalPrice */\n      dup3\n        /* \"contracts/Test.sol\":6324:6333  msg.value */\n      callvalue\n        /* \"contracts/Test.sol\":6324:6346  msg.value > totalPrice */\n      gt\n        /* \"contracts/Test.sol\":6320:6425  if (msg.value > totalPrice) {... */\n      iszero\n      tag_493\n      jumpi\n        /* \"contracts/Test.sol\":6370:6380  msg.sender */\n      caller\n        /* \"contracts/Test.sol\":6362:6390  payable(msg.sender).transfer */\n      0xffffffffffffffffffffffffffffffffffffffff\n      and\n        /* \"contracts/Test.sol\":6362:6414  payable(msg.sender).transfer(msg.value - totalPrice) */\n      0x08fc\n        /* \"contracts/Test.sol\":6403:6413  totalPrice */\n      dup5\n        /* \"contracts/Test.sol\":6391:6400  msg.value */\n      callvalue\n        /* \"contracts/Test.sol\":6391:6413  msg.value - totalPrice */\n      tag_494\n      swap2\n      swap1\n      tag_220\n      jump\t// in\n    tag_494:\n        /* \"contracts/Test.sol\":6362:6414  payable(msg.sender).transfer(msg.value - totalPrice) */\n      swap1\n      dup2\n      iszero\n      mul\n      swap1\n      mload(0x40)\n      0x00\n      mload(0x40)\n      dup1\n      dup4\n      sub\n      dup2\n      dup6\n      dup9\n      dup9\n      call\n      swap4\n      pop\n      pop\n      pop\n      pop\n      iszero\n      dup1\n      iszero\n      tag_496\n      jumpi\n      returndatasize\n      0x00\n      dup1\n      returndatacopy\n      revert(0x00, returndatasize)\n    tag_496:\n      pop\n        /* \"contracts/Test.sol\":6320:6425  if (msg.value > totalPrice) {... */\n    tag_493:\n        /* \"contracts/Test.sol\":5239:6432  {... */\n      pop\n      pop\n      pop\n      pop\n        /* \"contracts/Test.sol\":5104:6432  function refillStore(address _shop, uint _productId, uint _amount, address _supplier) public payable AccessControl(Role.Market, _shop) {... */\n      pop\n      pop\n      pop\n      pop\n      pop\n      pop\n      jump\t// out\n    tag_218:\n      pop\n      dup1\n      sload\n      tag_497\n      swap1\n      tag_163\n      jump\t// in\n    tag_497:\n      0x00\n      dup3\n      sstore\n      dup1\n      0x1f\n      lt\n      tag_499\n      jumpi\n      pop\n      jump(tag_498)\n    tag_499:\n      0x1f\n      add\n      0x20\n      swap1\n      div\n      swap1\n      0x00\n      mstore\n      keccak256(0x00, 0x20)\n      swap1\n      dup2\n      add\n      swap1\n      tag_500\n      swap2\n      swap1\n      tag_501\n      jump\t// in\n    tag_500:\n    tag_498:\n      pop\n      jump\t// out\n    tag_501:\n    tag_502:\n      dup1\n      dup3\n      gt\n      iszero\n      tag_503\n      jumpi\n      0x00\n      dup2\n      0x00\n      swap1\n      sstore\n      pop\n      0x01\n      add\n      jump(tag_502)\n    tag_503:\n      pop\n      swap1\n      jump\t// out\n        /* \"#utility.yul\":7:82   */\n    tag_504:\n        /* \"#utility.yul\":40:46   */\n      0x00\n        /* \"#utility.yul\":73:75   */\n      0x40\n        /* \"#utility.yul\":67:76   */\n      mload\n        /* \"#utility.yul\":57:76   */\n      swap1\n      pop\n        /* \"#utility.yul\":7:82   */\n      swap1\n      jump\t// out\n        /* \"#utility.yul\":88:205   */\n    tag_505:\n        /* \"#utility.yul\":197:198   */\n      0x00\n        /* \"#utility.yul\":194:195   */\n      dup1\n        /* \"#utility.yul\":187:199   */\n      revert\n        /* \"#utility.yul\":211:328   */\n    tag_506:\n        /* \"#utility.yul\":320:321   */\n      0x00\n        /* \"#utility.yul\":317:318   */\n      dup1\n        /* \"#utility.yul\":310:322   */\n      revert\n        /* \"#utility.yul\":334:411   */\n    tag_507:\n        /* \"#utility.yul\":371:378   */\n      0x00\n        /* \"#utility.yul\":400:405   */\n      dup2\n        /* \"#utility.yul\":389:405   */\n      swap1\n      pop\n        /* \"#utility.yul\":334:411   */\n      swap2\n      swap1\n      pop\n      jump\t// out\n        /* \"#utility.yul\":417:539   */\n    tag_508:\n        /* \"#utility.yul\":490:514   */\n      tag_596\n        /* \"#utility.yul\":508:513   */\n      dup2\n        /* \"#utility.yul\":490:514   */\n      tag_507\n      jump\t// in\n    tag_596:\n        /* \"#utility.yul\":483:488   */\n      dup2\n        /* \"#utility.yul\":480:515   */\n      eq\n        /* \"#utility.yul\":470:533   */\n      tag_597\n      jumpi\n        /* \"#utility.yul\":529:530   */\n      0x00\n        /* \"#utility.yul\":526:527   */\n      dup1\n        /* \"#utility.yul\":519:531   */\n      revert\n        /* \"#utility.yul\":470:533   */\n    tag_597:\n        /* \"#utility.yul\":417:539   */\n      pop\n      jump\t// out\n        /* \"#utility.yul\":545:684   */\n    tag_509:\n        /* \"#utility.yul\":591:596   */\n      0x00\n        /* \"#utility.yul\":629:635   */\n      dup2\n        /* \"#utility.yul\":616:636   */\n      calldataload\n        /* \"#utility.yul\":607:636   */\n      swap1\n      pop\n        /* \"#utility.yul\":645:678   */\n      tag_599\n        /* \"#utility.yul\":672:677   */\n      dup2\n        /* \"#utility.yul\":645:678   */\n      tag_508\n      jump\t// in\n    tag_599:\n        /* \"#utility.yul\":545:684   */\n      swap3\n      swap2\n      pop\n      pop\n      jump\t// out\n        /* \"#utility.yul\":690:807   */\n    tag_510:\n        /* \"#utility.yul\":799:800   */\n      0x00\n        /* \"#utility.yul\":796:797   */\n      dup1\n        /* \"#utility.yul\":789:801   */\n      revert\n        /* \"#utility.yul\":813:930   */\n    tag_511:\n        /* \"#utility.yul\":922:923   */\n      0x00\n        /* \"#utility.yul\":919:920   */\n      dup1\n        /* \"#utility.yul\":912:924   */\n      revert\n        /* \"#utility.yul\":936:1053   */\n    tag_512:\n        /* \"#utility.yul\":1045:1046   */\n      0x00\n        /* \"#utility.yul\":1042:1043   */\n      dup1\n        /* \"#utility.yul\":1035:1047   */\n      revert\n        /* \"#utility.yul\":1073:1626   */\n    tag_513:\n        /* \"#utility.yul\":1131:1139   */\n      0x00\n        /* \"#utility.yul\":1141:1147   */\n      dup1\n        /* \"#utility.yul\":1191:1194   */\n      dup4\n        /* \"#utility.yul\":1184:1188   */\n      0x1f\n        /* \"#utility.yul\":1176:1182   */\n      dup5\n        /* \"#utility.yul\":1172:1189   */\n      add\n        /* \"#utility.yul\":1168:1195   */\n      slt\n        /* \"#utility.yul\":1158:1280   */\n      tag_604\n      jumpi\n        /* \"#utility.yul\":1199:1278   */\n      tag_605\n      tag_510\n      jump\t// in\n    tag_605:\n        /* \"#utility.yul\":1158:1280   */\n    tag_604:\n        /* \"#utility.yul\":1312:1318   */\n      dup3\n        /* \"#utility.yul\":1299:1319   */\n      calldataload\n        /* \"#utility.yul\":1289:1319   */\n      swap1\n      pop\n        /* \"#utility.yul\":1342:1360   */\n      0xffffffffffffffff\n        /* \"#utility.yul\":1334:1340   */\n      dup2\n        /* \"#utility.yul\":1331:1361   */\n      gt\n        /* \"#utility.yul\":1328:1445   */\n      iszero\n      tag_606\n      jumpi\n        /* \"#utility.yul\":1364:1443   */\n      tag_607\n      tag_511\n      jump\t// in\n    tag_607:\n        /* \"#utility.yul\":1328:1445   */\n    tag_606:\n        /* \"#utility.yul\":1478:1482   */\n      0x20\n        /* \"#utility.yul\":1470:1476   */\n      dup4\n        /* \"#utility.yul\":1466:1483   */\n      add\n        /* \"#utility.yul\":1454:1483   */\n      swap2\n      pop\n        /* \"#utility.yul\":1532:1535   */\n      dup4\n        /* \"#utility.yul\":1524:1528   */\n      0x01\n        /* \"#utility.yul\":1516:1522   */\n      dup3\n        /* \"#utility.yul\":1512:1529   */\n      mul\n        /* \"#utility.yul\":1502:1510   */\n      dup4\n        /* \"#utility.yul\":1498:1530   */\n      add\n        /* \"#utility.yul\":1495:1536   */\n      gt\n        /* \"#utility.yul\":1492:1620   */\n      iszero\n      tag_608\n      jumpi\n        /* \"#utility.yul\":1539:1618   */\n      tag_609\n      tag_512\n      jump\t// in\n    tag_609:\n        /* \"#utility.yul\":1492:1620   */\n    tag_608:\n        /* \"#utility.yul\":1073:1626   */\n      swap3\n      pop\n      swap3\n      swap1\n      pop\n      jump\t// out\n        /* \"#utility.yul\":1632:2597   */\n    tag_34:\n        /* \"#utility.yul\":1730:1736   */\n      0x00\n        /* \"#utility.yul\":1738:1744   */\n      dup1\n        /* \"#utility.yul\":1746:1752   */\n      0x00\n        /* \"#utility.yul\":1754:1760   */\n      dup1\n        /* \"#utility.yul\":1762:1768   */\n      0x00\n        /* \"#utility.yul\":1811:1814   */\n      0x80\n        /* \"#utility.yul\":1799:1808   */\n      dup7\n        /* \"#utility.yul\":1790:1797   */\n      dup9\n        /* \"#utility.yul\":1786:1809   */\n      sub\n        /* \"#utility.yul\":1782:1815   */\n      slt\n        /* \"#utility.yul\":1779:1899   */\n      iszero\n      tag_611\n      jumpi\n        /* \"#utility.yul\":1818:1897   */\n      tag_612\n      tag_505\n      jump\t// in\n    tag_612:\n        /* \"#utility.yul\":1779:1899   */\n    tag_611:\n        /* \"#utility.yul\":1938:1939   */\n      0x00\n        /* \"#utility.yul\":1963:2016   */\n      tag_613\n        /* \"#utility.yul\":2008:2015   */\n      dup9\n        /* \"#utility.yul\":1999:2005   */\n      dup3\n        /* \"#utility.yul\":1988:1997   */\n      dup10\n        /* \"#utility.yul\":1984:2006   */\n      add\n        /* \"#utility.yul\":1963:2016   */\n      tag_509\n      jump\t// in\n    tag_613:\n        /* \"#utility.yul\":1953:2016   */\n      swap6\n      pop\n        /* \"#utility.yul\":1909:2026   */\n      pop\n        /* \"#utility.yul\":2065:2067   */\n      0x20\n        /* \"#utility.yul\":2091:2144   */\n      tag_614\n        /* \"#utility.yul\":2136:2143   */\n      dup9\n        /* \"#utility.yul\":2127:2133   */\n      dup3\n        /* \"#utility.yul\":2116:2125   */\n      dup10\n        /* \"#utility.yul\":2112:2134   */\n      add\n        /* \"#utility.yul\":2091:2144   */\n      tag_509\n      jump\t// in\n    tag_614:\n        /* \"#utility.yul\":2081:2144   */\n      swap5\n      pop\n        /* \"#utility.yul\":2036:2154   */\n      pop\n        /* \"#utility.yul\":2221:2223   */\n      0x40\n        /* \"#utility.yul\":2210:2219   */\n      dup7\n        /* \"#utility.yul\":2206:2224   */\n      add\n        /* \"#utility.yul\":2193:2225   */\n      calldataload\n        /* \"#utility.yul\":2252:2270   */\n      0xffffffffffffffff\n        /* \"#utility.yul\":2244:2250   */\n      dup2\n        /* \"#utility.yul\":2241:2271   */\n      gt\n        /* \"#utility.yul\":2238:2355   */\n      iszero\n      tag_615\n      jumpi\n        /* \"#utility.yul\":2274:2353   */\n      tag_616\n      tag_506\n      jump\t// in\n    tag_616:\n        /* \"#utility.yul\":2238:2355   */\n    tag_615:\n        /* \"#utility.yul\":2387:2452   */\n      tag_617\n        /* \"#utility.yul\":2444:2451   */\n      dup9\n        /* \"#utility.yul\":2435:2441   */\n      dup3\n        /* \"#utility.yul\":2424:2433   */\n      dup10\n        /* \"#utility.yul\":2420:2442   */\n      add\n        /* \"#utility.yul\":2387:2452   */\n      tag_513\n      jump\t// in\n    tag_617:\n        /* \"#utility.yul\":2369:2452   */\n      swap4\n      pop\n      swap4\n      pop\n        /* \"#utility.yul\":2164:2462   */\n      pop\n        /* \"#utility.yul\":2501:2503   */\n      0x60\n        /* \"#utility.yul\":2527:2580   */\n      tag_618\n        /* \"#utility.yul\":2572:2579   */\n      dup9\n        /* \"#utility.yul\":2563:2569   */\n      dup3\n        /* \"#utility.yul\":2552:2561   */\n      dup10\n        /* \"#utility.yul\":2548:2570   */\n      add\n        /* \"#utility.yul\":2527:2580   */\n      tag_509\n      jump\t// in\n    tag_618:\n        /* \"#utility.yul\":2517:2580   */\n      swap2\n      pop\n        /* \"#utility.yul\":2472:2590   */\n      pop\n        /* \"#utility.yul\":1632:2597   */\n      swap3\n      swap6\n      pop\n      swap3\n      swap6\n      swap1\n      swap4\n      pop\n      jump\t// out\n        /* \"#utility.yul\":2603:2932   */\n    tag_39:\n        /* \"#utility.yul\":2662:2668   */\n      0x00\n        /* \"#utility.yul\":2711:2713   */\n      0x20\n        /* \"#utility.yul\":2699:2708   */\n      dup3\n        /* \"#utility.yul\":2690:2697   */\n      dup5\n        /* \"#utility.yul\":2686:2709   */\n      sub\n        /* \"#utility.yul\":2682:2714   */\n      slt\n        /* \"#utility.yul\":2679:2798   */\n      iszero\n      tag_620\n      jumpi\n        /* \"#utility.yul\":2717:2796   */\n      tag_621\n      tag_505\n      jump\t// in\n    tag_621:\n        /* \"#utility.yul\":2679:2798   */\n    tag_620:\n        /* \"#utility.yul\":2837:2838   */\n      0x00\n        /* \"#utility.yul\":2862:2915   */\n      tag_622\n        /* \"#utility.yul\":2907:2914   */\n      dup5\n        /* \"#utility.yul\":2898:2904   */\n      dup3\n        /* \"#utility.yul\":2887:2896   */\n      dup6\n        /* \"#utility.yul\":2883:2905   */\n      add\n        /* \"#utility.yul\":2862:2915   */\n      tag_509\n      jump\t// in\n    tag_622:\n        /* \"#utility.yul\":2852:2915   */\n      swap2\n      pop\n        /* \"#utility.yul\":2808:2925   */\n      pop\n        /* \"#utility.yul\":2603:2932   */\n      swap3\n      swap2\n      pop\n      pop\n      jump\t// out\n        /* \"#utility.yul\":2938:3064   */\n    tag_514:\n        /* \"#utility.yul\":2975:2982   */\n      0x00\n        /* \"#utility.yul\":3015:3057   */\n      0xffffffffffffffffffffffffffffffffffffffff\n        /* \"#utility.yul\":3008:3013   */\n      dup3\n        /* \"#utility.yul\":3004:3058   */\n      and\n        /* \"#utility.yul\":2993:3058   */\n      swap1\n      pop\n        /* \"#utility.yul\":2938:3064   */\n      swap2\n      swap1\n      pop\n      jump\t// out\n        /* \"#utility.yul\":3070:3166   */\n    tag_515:\n        /* \"#utility.yul\":3107:3114   */\n      0x00\n        /* \"#utility.yul\":3136:3160   */\n      tag_625\n        /* \"#utility.yul\":3154:3159   */\n      dup3\n        /* \"#utility.yul\":3136:3160   */\n      tag_514\n      jump\t// in\n    tag_625:\n        /* \"#utility.yul\":3125:3160   */\n      swap1\n      pop\n        /* \"#utility.yul\":3070:3166   */\n      swap2\n      swap1\n      pop\n      jump\t// out\n        /* \"#utility.yul\":3172:3290   */\n    tag_516:\n        /* \"#utility.yul\":3259:3283   */\n      tag_627\n        /* \"#utility.yul\":3277:3282   */\n      dup2\n        /* \"#utility.yul\":3259:3283   */\n      tag_515\n      jump\t// in\n    tag_627:\n        /* \"#utility.yul\":3254:3257   */\n      dup3\n        /* \"#utility.yul\":3247:3284   */\n      mstore\n        /* \"#utility.yul\":3172:3290   */\n      pop\n      pop\n      jump\t// out\n        /* \"#utility.yul\":3296:3476   */\n    tag_185:\n        /* \"#utility.yul\":3344:3421   */\n      0x4e487b7100000000000000000000000000000000000000000000000000000000\n        /* \"#utility.yul\":3341:3342   */\n      0x00\n        /* \"#utility.yul\":3334:3422   */\n      mstore\n        /* \"#utility.yul\":3441:3445   */\n      0x21\n        /* \"#utility.yul\":3438:3439   */\n      0x04\n        /* \"#utility.yul\":3431:3446   */\n      mstore\n        /* \"#utility.yul\":3465:3469   */\n      0x24\n        /* \"#utility.yul\":3462:3463   */\n      0x00\n        /* \"#utility.yul\":3455:3470   */\n      revert\n        /* \"#utility.yul\":3482:3596   */\n    tag_517:\n        /* \"#utility.yul\":3564:3565   */\n      0x04\n        /* \"#utility.yul\":3557:3562   */\n      dup2\n        /* \"#utility.yul\":3554:3566   */\n      lt\n        /* \"#utility.yul\":3544:3590   */\n      tag_630\n      jumpi\n        /* \"#utility.yul\":3570:3588   */\n      tag_631\n      tag_185\n      jump\t// in\n    tag_631:\n        /* \"#utility.yul\":3544:3590   */\n    tag_630:\n        /* \"#utility.yul\":3482:3596   */\n      pop\n      jump\t// out\n        /* \"#utility.yul\":3602:3731   */\n    tag_518:\n        /* \"#utility.yul\":3648:3655   */\n      0x00\n        /* \"#utility.yul\":3677:3682   */\n      dup2\n        /* \"#utility.yul\":3666:3682   */\n      swap1\n      pop\n        /* \"#utility.yul\":3683:3725   */\n      tag_633\n        /* \"#utility.yul\":3719:3724   */\n      dup3\n        /* \"#utility.yul\":3683:3725   */\n      tag_517\n      jump\t// in\n    tag_633:\n        /* \"#utility.yul\":3602:3731   */\n      swap2\n      swap1\n      pop\n      jump\t// out\n        /* \"#utility.yul\":3737:3866   */\n    tag_519:\n        /* \"#utility.yul\":3794:3803   */\n      0x00\n        /* \"#utility.yul\":3827:3860   */\n      tag_635\n        /* \"#utility.yul\":3854:3859   */\n      dup3\n        /* \"#utility.yul\":3827:3860   */\n      tag_518\n      jump\t// in\n    tag_635:\n        /* \"#utility.yul\":3814:3860   */\n      swap1\n      pop\n        /* \"#utility.yul\":3737:3866   */\n      swap2\n      swap1\n      pop\n      jump\t// out\n        /* \"#utility.yul\":3872:4017   */\n    tag_520:\n        /* \"#utility.yul\":3966:4010   */\n      tag_637\n        /* \"#utility.yul\":4004:4009   */\n      dup2\n        /* \"#utility.yul\":3966:4010   */\n      tag_519\n      jump\t// in\n    tag_637:\n        /* \"#utility.yul\":3961:3964   */\n      dup3\n        /* \"#utility.yul\":3954:4011   */\n      mstore\n        /* \"#utility.yul\":3872:4017   */\n      pop\n      pop\n      jump\t// out\n        /* \"#utility.yul\":4023:4122   */\n    tag_521:\n        /* \"#utility.yul\":4075:4081   */\n      0x00\n        /* \"#utility.yul\":4109:4114   */\n      dup2\n        /* \"#utility.yul\":4103:4115   */\n      mload\n        /* \"#utility.yul\":4093:4115   */\n      swap1\n      pop\n        /* \"#utility.yul\":4023:4122   */\n      swap2\n      swap1\n      pop\n      jump\t// out\n        /* \"#utility.yul\":4128:4297   */\n    tag_522:\n        /* \"#utility.yul\":4212:4223   */\n      0x00\n        /* \"#utility.yul\":4246:4252   */\n      dup3\n        /* \"#utility.yul\":4241:4244   */\n      dup3\n        /* \"#utility.yul\":4234:4253   */\n      mstore\n        /* \"#utility.yul\":4286:4290   */\n      0x20\n        /* \"#utility.yul\":4281:4284   */\n      dup3\n        /* \"#utility.yul\":4277:4291   */\n      add\n        /* \"#utility.yul\":4262:4291   */\n      swap1\n      pop\n        /* \"#utility.yul\":4128:4297   */\n      swap3\n      swap2\n      pop\n      pop\n      jump\t// out\n        /* \"#utility.yul\":4303:4549   */\n    tag_523:\n        /* \"#utility.yul\":4384:4385   */\n      0x00\n        /* \"#utility.yul\":4394:4507   */\n    tag_641:\n        /* \"#utility.yul\":4408:4414   */\n      dup4\n        /* \"#utility.yul\":4405:4406   */\n      dup2\n        /* \"#utility.yul\":4402:4415   */\n      lt\n        /* \"#utility.yul\":4394:4507   */\n      iszero\n      tag_643\n      jumpi\n        /* \"#utility.yul\":4493:4494   */\n      dup1\n        /* \"#utility.yul\":4488:4491   */\n      dup3\n        /* \"#utility.yul\":4484:4495   */\n      add\n        /* \"#utility.yul\":4478:4496   */\n      mload\n        /* \"#utility.yul\":4474:4475   */\n      dup2\n        /* \"#utility.yul\":4469:4472   */\n      dup5\n        /* \"#utility.yul\":4465:4476   */\n      add\n        /* \"#utility.yul\":4458:4497   */\n      mstore\n        /* \"#utility.yul\":4430:4432   */\n      0x20\n        /* \"#utility.yul\":4427:4428   */\n      dup2\n        /* \"#utility.yul\":4423:4433   */\n      add\n        /* \"#utility.yul\":4418:4433   */\n      swap1\n      pop\n        /* \"#utility.yul\":4394:4507   */\n      jump(tag_641)\n    tag_643:\n        /* \"#utility.yul\":4541:4542   */\n      0x00\n        /* \"#utility.yul\":4532:4538   */\n      dup5\n        /* \"#utility.yul\":4527:4530   */\n      dup5\n        /* \"#utility.yul\":4523:4539   */\n      add\n        /* \"#utility.yul\":4516:4543   */\n      mstore\n        /* \"#utility.yul\":4365:4549   */\n      pop\n        /* \"#utility.yul\":4303:4549   */\n      pop\n      pop\n      pop\n      jump\t// out\n        /* \"#utility.yul\":4555:4657   */\n    tag_524:\n        /* \"#utility.yul\":4596:4602   */\n      0x00\n        /* \"#utility.yul\":4647:4649   */\n      0x1f\n        /* \"#utility.yul\":4643:4650   */\n      not\n        /* \"#utility.yul\":4638:4640   */\n      0x1f\n        /* \"#utility.yul\":4631:4636   */\n      dup4\n        /* \"#utility.yul\":4627:4641   */\n      add\n        /* \"#utility.yul\":4623:4651   */\n      and\n        /* \"#utility.yul\":4613:4651   */\n      swap1\n      pop\n        /* \"#utility.yul\":4555:4657   */\n      swap2\n      swap1\n      pop\n      jump\t// out\n        /* \"#utility.yul\":4663:5040   */\n    tag_525:\n        /* \"#utility.yul\":4751:4754   */\n      0x00\n        /* \"#utility.yul\":4779:4818   */\n      tag_646\n        /* \"#utility.yul\":4812:4817   */\n      dup3\n        /* \"#utility.yul\":4779:4818   */\n      tag_521\n      jump\t// in\n    tag_646:\n        /* \"#utility.yul\":4834:4905   */\n      tag_647\n        /* \"#utility.yul\":4898:4904   */\n      dup2\n        /* \"#utility.yul\":4893:4896   */\n      dup6\n        /* \"#utility.yul\":4834:4905   */\n      tag_522\n      jump\t// in\n    tag_647:\n        /* \"#utility.yul\":4827:4905   */\n      swap4\n      pop\n        /* \"#utility.yul\":4914:4979   */\n      tag_648\n        /* \"#utility.yul\":4972:4978   */\n      dup2\n        /* \"#utility.yul\":4967:4970   */\n      dup6\n        /* \"#utility.yul\":4960:4964   */\n      0x20\n        /* \"#utility.yul\":4953:4958   */\n      dup7\n        /* \"#utility.yul\":4949:4965   */\n      add\n        /* \"#utility.yul\":4914:4979   */\n      tag_523\n      jump\t// in\n    tag_648:\n        /* \"#utility.yul\":5004:5033   */\n      tag_649\n        /* \"#utility.yul\":5026:5032   */\n      dup2\n        /* \"#utility.yul\":5004:5033   */\n      tag_524\n      jump\t// in\n    tag_649:\n        /* \"#utility.yul\":4999:5002   */\n      dup5\n        /* \"#utility.yul\":4995:5034   */\n      add\n        /* \"#utility.yul\":4988:5034   */\n      swap2\n      pop\n        /* \"#utility.yul\":4755:5040   */\n      pop\n        /* \"#utility.yul\":4663:5040   */\n      swap3\n      swap2\n      pop\n      pop\n      jump\t// out\n        /* \"#utility.yul\":5046:5164   */\n    tag_526:\n        /* \"#utility.yul\":5133:5157   */\n      tag_651\n        /* \"#utility.yul\":5151:5156   */\n      dup2\n        /* \"#utility.yul\":5133:5157   */\n      tag_507\n      jump\t// in\n    tag_651:\n        /* \"#utility.yul\":5128:5131   */\n      dup3\n        /* \"#utility.yul\":5121:5158   */\n      mstore\n        /* \"#utility.yul\":5046:5164   */\n      pop\n      pop\n      jump\t// out\n        /* \"#utility.yul\":5170:6050   */\n    tag_42:\n        /* \"#utility.yul\":5430:5434   */\n      0x00\n        /* \"#utility.yul\":5468:5471   */\n      0xc0\n        /* \"#utility.yul\":5457:5466   */\n      dup3\n        /* \"#utility.yul\":5453:5472   */\n      add\n        /* \"#utility.yul\":5445:5472   */\n      swap1\n      pop\n        /* \"#utility.yul\":5482:5553   */\n      tag_653\n        /* \"#utility.yul\":5550:5551   */\n      0x00\n        /* \"#utility.yul\":5539:5548   */\n      dup4\n        /* \"#utility.yul\":5535:5552   */\n      add\n        /* \"#utility.yul\":5526:5532   */\n      dup10\n        /* \"#utility.yul\":5482:5553   */\n      tag_516\n      jump\t// in\n    tag_653:\n        /* \"#utility.yul\":5563:5635   */\n      tag_654\n        /* \"#utility.yul\":5631:5633   */\n      0x20\n        /* \"#utility.yul\":5620:5629   */\n      dup4\n        /* \"#utility.yul\":5616:5634   */\n      add\n        /* \"#utility.yul\":5607:5613   */\n      dup9\n        /* \"#utility.yul\":5563:5635   */\n      tag_516\n      jump\t// in\n    tag_654:\n        /* \"#utility.yul\":5645:5724   */\n      tag_655\n        /* \"#utility.yul\":5720:5722   */\n      0x40\n        /* \"#utility.yul\":5709:5718   */\n      dup4\n        /* \"#utility.yul\":5705:5723   */\n      add\n        /* \"#utility.yul\":5696:5702   */\n      dup8\n        /* \"#utility.yul\":5645:5724   */\n      tag_520\n      jump\t// in\n    tag_655:\n        /* \"#utility.yul\":5771:5780   */\n      dup2\n        /* \"#utility.yul\":5765:5769   */\n      dup2\n        /* \"#utility.yul\":5761:5781   */\n      sub\n        /* \"#utility.yul\":5756:5758   */\n      0x60\n        /* \"#utility.yul\":5745:5754   */\n      dup4\n        /* \"#utility.yul\":5741:5759   */\n      add\n        /* \"#utility.yul\":5734:5782   */\n      mstore\n        /* \"#utility.yul\":5799:5877   */\n      tag_656\n        /* \"#utility.yul\":5872:5876   */\n      dup2\n        /* \"#utility.yul\":5863:5869   */\n      dup7\n        /* \"#utility.yul\":5799:5877   */\n      tag_525\n      jump\t// in\n    tag_656:\n        /* \"#utility.yul\":5791:5877   */\n      swap1\n      pop\n        /* \"#utility.yul\":5887:5960   */\n      tag_657\n        /* \"#utility.yul\":5955:5958   */\n      0x80\n        /* \"#utility.yul\":5944:5953   */\n      dup4\n        /* \"#utility.yul\":5940:5959   */\n      add\n        /* \"#utility.yul\":5931:5937   */\n      dup6\n        /* \"#utility.yul\":5887:5960   */\n      tag_526\n      jump\t// in\n    tag_657:\n        /* \"#utility.yul\":5970:6043   */\n      tag_658\n        /* \"#utility.yul\":6038:6041   */\n      0xa0\n        /* \"#utility.yul\":6027:6036   */\n      dup4\n        /* \"#utility.yul\":6023:6042   */\n      add\n        /* \"#utility.yul\":6014:6020   */\n      dup5\n        /* \"#utility.yul\":5970:6043   */\n      tag_526\n      jump\t// in\n    tag_658:\n        /* \"#utility.yul\":5170:6050   */\n      swap8\n      swap7\n      pop\n      pop\n      pop\n      pop\n      pop\n      pop\n      pop\n      jump\t// out\n        /* \"#utility.yul\":6056:6178   */\n    tag_527:\n        /* \"#utility.yul\":6129:6153   */\n      tag_660\n        /* \"#utility.yul\":6147:6152   */\n      dup2\n        /* \"#utility.yul\":6129:6153   */\n      tag_515\n      jump\t// in\n    tag_660:\n        /* \"#utility.yul\":6122:6127   */\n      dup2\n        /* \"#utility.yul\":6119:6154   */\n      eq\n        /* \"#utility.yul\":6109:6172   */\n      tag_661\n      jumpi\n        /* \"#utility.yul\":6168:6169   */\n      0x00\n        /* \"#utility.yul\":6165:6166   */\n      dup1\n        /* \"#utility.yul\":6158:6170   */\n      revert\n        /* \"#utility.yul\":6109:6172   */\n    tag_661:\n        /* \"#utility.yul\":6056:6178   */\n      pop\n      jump\t// out\n        /* \"#utility.yul\":6184:6323   */\n    tag_528:\n        /* \"#utility.yul\":6230:6235   */\n      0x00\n        /* \"#utility.yul\":6268:6274   */\n      dup2\n        /* \"#utility.yul\":6255:6275   */\n      calldataload\n        /* \"#utility.yul\":6246:6275   */\n      swap1\n      pop\n        /* \"#utility.yul\":6284:6317   */\n      tag_663\n        /* \"#utility.yul\":6311:6316   */\n      dup2\n        /* \"#utility.yul\":6284:6317   */\n      tag_527\n      jump\t// in\n    tag_663:\n        /* \"#utility.yul\":6184:6323   */\n      swap3\n      swap2\n      pop\n      pop\n      jump\t// out\n        /* \"#utility.yul\":6329:6803   */\n    tag_46:\n        /* \"#utility.yul\":6397:6403   */\n      0x00\n        /* \"#utility.yul\":6405:6411   */\n      dup1\n        /* \"#utility.yul\":6454:6456   */\n      0x40\n        /* \"#utility.yul\":6442:6451   */\n      dup4\n        /* \"#utility.yul\":6433:6440   */\n      dup6\n        /* \"#utility.yul\":6429:6452   */\n      sub\n        /* \"#utility.yul\":6425:6457   */\n      slt\n        /* \"#utility.yul\":6422:6541   */\n      iszero\n      tag_665\n      jumpi\n        /* \"#utility.yul\":6460:6539   */\n      tag_666\n      tag_505\n      jump\t// in\n    tag_666:\n        /* \"#utility.yul\":6422:6541   */\n    tag_665:\n        /* \"#utility.yul\":6580:6581   */\n      0x00\n        /* \"#utility.yul\":6605:6658   */\n      tag_667\n        /* \"#utility.yul\":6650:6657   */\n      dup6\n        /* \"#utility.yul\":6641:6647   */\n      dup3\n        /* \"#utility.yul\":6630:6639   */\n      dup7\n        /* \"#utility.yul\":6626:6648   */\n      add\n        /* \"#utility.yul\":6605:6658   */\n      tag_528\n      jump\t// in\n    tag_667:\n        /* \"#utility.yul\":6595:6658   */\n      swap3\n      pop\n        /* \"#utility.yul\":6551:6668   */\n      pop\n        /* \"#utility.yul\":6707:6709   */\n      0x20\n        /* \"#utility.yul\":6733:6786   */\n      tag_668\n        /* \"#utility.yul\":6778:6785   */\n      dup6\n        /* \"#utility.yul\":6769:6775   */\n      dup3\n        /* \"#utility.yul\":6758:6767   */\n      dup7\n        /* \"#utility.yul\":6754:6776   */\n      add\n        /* \"#utility.yul\":6733:6786   */\n      tag_509\n      jump\t// in\n    tag_668:\n        /* \"#utility.yul\":6723:6786   */\n      swap2\n      pop\n        /* \"#utility.yul\":6678:6796   */\n      pop\n        /* \"#utility.yul\":6329:6803   */\n      swap3\n      pop\n      swap3\n      swap1\n      pop\n      jump\t// out\n        /* \"#utility.yul\":6809:7564   */\n    tag_49:\n        /* \"#utility.yul\":7034:7038   */\n      0x00\n        /* \"#utility.yul\":7072:7075   */\n      0xa0\n        /* \"#utility.yul\":7061:7070   */\n      dup3\n        /* \"#utility.yul\":7057:7076   */\n      add\n        /* \"#utility.yul\":7049:7076   */\n      swap1\n      pop\n        /* \"#utility.yul\":7086:7157   */\n      tag_670\n        /* \"#utility.yul\":7154:7155   */\n      0x00\n        /* \"#utility.yul\":7143:7152   */\n      dup4\n        /* \"#utility.yul\":7139:7156   */\n      add\n        /* \"#utility.yul\":7130:7136   */\n      dup9\n        /* \"#utility.yul\":7086:7157   */\n      tag_516\n      jump\t// in\n    tag_670:\n        /* \"#utility.yul\":7167:7239   */\n      tag_671\n        /* \"#utility.yul\":7235:7237   */\n      0x20\n        /* \"#utility.yul\":7224:7233   */\n      dup4\n        /* \"#utility.yul\":7220:7238   */\n      add\n        /* \"#utility.yul\":7211:7217   */\n      dup8\n        /* \"#utility.yul\":7167:7239   */\n      tag_526\n      jump\t// in\n    tag_671:\n        /* \"#utility.yul\":7249:7321   */\n      tag_672\n        /* \"#utility.yul\":7317:7319   */\n      0x40\n        /* \"#utility.yul\":7306:7315   */\n      dup4\n        /* \"#utility.yul\":7302:7320   */\n      add\n        /* \"#utility.yul\":7293:7299   */\n      dup7\n        /* \"#utility.yul\":7249:7321   */\n      tag_526\n      jump\t// in\n    tag_672:\n        /* \"#utility.yul\":7368:7377   */\n      dup2\n        /* \"#utility.yul\":7362:7366   */\n      dup2\n        /* \"#utility.yul\":7358:7378   */\n      sub\n        /* \"#utility.yul\":7353:7355   */\n      0x60\n        /* \"#utility.yul\":7342:7351   */\n      dup4\n        /* \"#utility.yul\":7338:7356   */\n      add\n        /* \"#utility.yul\":7331:7379   */\n      mstore\n        /* \"#utility.yul\":7396:7474   */\n      tag_673\n        /* \"#utility.yul\":7469:7473   */\n      dup2\n        /* \"#utility.yul\":7460:7466   */\n      dup6\n        /* \"#utility.yul\":7396:7474   */\n      tag_525\n      jump\t// in\n    tag_673:\n        /* \"#utility.yul\":7388:7474   */\n      swap1\n      pop\n        /* \"#utility.yul\":7484:7557   */\n      tag_674\n        /* \"#utility.yul\":7552:7555   */\n      0x80\n        /* \"#utility.yul\":7541:7550   */\n      dup4\n        /* \"#utility.yul\":7537:7556   */\n      add\n        /* \"#utility.yul\":7528:7534   */\n      dup5\n        /* \"#utility.yul\":7484:7557   */\n      tag_526\n      jump\t// in\n    tag_674:\n        /* \"#utility.yul\":6809:7564   */\n      swap7\n      swap6\n      pop\n      pop\n      pop\n      pop\n      pop\n      pop\n      jump\t// out\n        /* \"#utility.yul\":7570:7660   */\n    tag_529:\n        /* \"#utility.yul\":7604:7611   */\n      0x00\n        /* \"#utility.yul\":7647:7652   */\n      dup2\n        /* \"#utility.yul\":7640:7653   */\n      iszero\n        /* \"#utility.yul\":7633:7654   */\n      iszero\n        /* \"#utility.yul\":7622:7654   */\n      swap1\n      pop\n        /* \"#utility.yul\":7570:7660   */\n      swap2\n      swap1\n      pop\n      jump\t// out\n        /* \"#utility.yul\":7666:7782   */\n    tag_530:\n        /* \"#utility.yul\":7736:7757   */\n      tag_677\n        /* \"#utility.yul\":7751:7756   */\n      dup2\n        /* \"#utility.yul\":7736:7757   */\n      tag_529\n      jump\t// in\n    tag_677:\n        /* \"#utility.yul\":7729:7734   */\n      dup2\n        /* \"#utility.yul\":7726:7758   */\n      eq\n        /* \"#utility.yul\":7716:7776   */\n      tag_678\n      jumpi\n        /* \"#utility.yul\":7772:7773   */\n      0x00\n        /* \"#utility.yul\":7769:7770   */\n      dup1\n        /* \"#utility.yul\":7762:7774   */\n      revert\n        /* \"#utility.yul\":7716:7776   */\n    tag_678:\n        /* \"#utility.yul\":7666:7782   */\n      pop\n      jump\t// out\n        /* \"#utility.yul\":7788:7921   */\n    tag_531:\n        /* \"#utility.yul\":7831:7836   */\n      0x00\n        /* \"#utility.yul\":7869:7875   */\n      dup2\n        /* \"#utility.yul\":7856:7876   */\n      calldataload\n        /* \"#utility.yul\":7847:7876   */\n      swap1\n      pop\n        /* \"#utility.yul\":7885:7915   */\n      tag_680\n        /* \"#utility.yul\":7909:7914   */\n      dup2\n        /* \"#utility.yul\":7885:7915   */\n      tag_530\n      jump\t// in\n    tag_680:\n        /* \"#utility.yul\":7788:7921   */\n      swap3\n      swap2\n      pop\n      pop\n      jump\t// out\n        /* \"#utility.yul\":7927:8540   */\n    tag_65:\n        /* \"#utility.yul\":8001:8007   */\n      0x00\n        /* \"#utility.yul\":8009:8015   */\n      dup1\n        /* \"#utility.yul\":8017:8023   */\n      0x00\n        /* \"#utility.yul\":8066:8068   */\n      0x60\n        /* \"#utility.yul\":8054:8063   */\n      dup5\n        /* \"#utility.yul\":8045:8052   */\n      dup7\n        /* \"#utility.yul\":8041:8064   */\n      sub\n        /* \"#utility.yul\":8037:8069   */\n      slt\n        /* \"#utility.yul\":8034:8153   */\n      iszero\n      tag_682\n      jumpi\n        /* \"#utility.yul\":8072:8151   */\n      tag_683\n      tag_505\n      jump\t// in\n    tag_683:\n        /* \"#utility.yul\":8034:8153   */\n    tag_682:\n        /* \"#utility.yul\":8192:8193   */\n      0x00\n        /* \"#utility.yul\":8217:8267   */\n      tag_684\n        /* \"#utility.yul\":8259:8266   */\n      dup7\n        /* \"#utility.yul\":8250:8256   */\n      dup3\n        /* \"#utility.yul\":8239:8248   */\n      dup8\n        /* \"#utility.yul\":8235:8257   */\n      add\n        /* \"#utility.yul\":8217:8267   */\n      tag_531\n      jump\t// in\n    tag_684:\n        /* \"#utility.yul\":8207:8267   */\n      swap4\n      pop\n        /* \"#utility.yul\":8163:8277   */\n      pop\n        /* \"#utility.yul\":8316:8318   */\n      0x20\n        /* \"#utility.yul\":8342:8395   */\n      tag_685\n        /* \"#utility.yul\":8387:8394   */\n      dup7\n        /* \"#utility.yul\":8378:8384   */\n      dup3\n        /* \"#utility.yul\":8367:8376   */\n      dup8\n        /* \"#utility.yul\":8363:8385   */\n      add\n        /* \"#utility.yul\":8342:8395   */\n      tag_509\n      jump\t// in\n    tag_685:\n        /* \"#utility.yul\":8332:8395   */\n      swap3\n      pop\n        /* \"#utility.yul\":8287:8405   */\n      pop\n        /* \"#utility.yul\":8444:8446   */\n      0x40\n        /* \"#utility.yul\":8470:8523   */\n      tag_686\n        /* \"#utility.yul\":8515:8522   */\n      dup7\n        /* \"#utility.yul\":8506:8512   */\n      dup3\n        /* \"#utility.yul\":8495:8504   */\n      dup8\n        /* \"#utility.yul\":8491:8513   */\n      add\n        /* \"#utility.yul\":8470:8523   */\n      tag_528\n      jump\t// in\n    tag_686:\n        /* \"#utility.yul\":8460:8523   */\n      swap2\n      pop\n        /* \"#utility.yul\":8415:8533   */\n      pop\n        /* \"#utility.yul\":7927:8540   */\n      swap3\n      pop\n      swap3\n      pop\n      swap3\n      jump\t// out\n        /* \"#utility.yul\":8546:8657   */\n    tag_532:\n        /* \"#utility.yul\":8625:8626   */\n      0x03\n        /* \"#utility.yul\":8618:8623   */\n      dup2\n        /* \"#utility.yul\":8615:8627   */\n      lt\n        /* \"#utility.yul\":8605:8651   */\n      tag_688\n      jumpi\n        /* \"#utility.yul\":8631:8649   */\n      tag_689\n      tag_185\n      jump\t// in\n    tag_689:\n        /* \"#utility.yul\":8605:8651   */\n    tag_688:\n        /* \"#utility.yul\":8546:8657   */\n      pop\n      jump\t// out\n        /* \"#utility.yul\":8663:8786   */\n    tag_533:\n        /* \"#utility.yul\":8706:8713   */\n      0x00\n        /* \"#utility.yul\":8735:8740   */\n      dup2\n        /* \"#utility.yul\":8724:8740   */\n      swap1\n      pop\n        /* \"#utility.yul\":8741:8780   */\n      tag_691\n        /* \"#utility.yul\":8774:8779   */\n      dup3\n        /* \"#utility.yul\":8741:8780   */\n      tag_532\n      jump\t// in\n    tag_691:\n        /* \"#utility.yul\":8663:8786   */\n      swap2\n      swap1\n      pop\n      jump\t// out\n        /* \"#utility.yul\":8792:8915   */\n    tag_534:\n        /* \"#utility.yul\":8846:8855   */\n      0x00\n        /* \"#utility.yul\":8879:8909   */\n      tag_693\n        /* \"#utility.yul\":8903:8908   */\n      dup3\n        /* \"#utility.yul\":8879:8909   */\n      tag_533\n      jump\t// in\n    tag_693:\n        /* \"#utility.yul\":8866:8909   */\n      swap1\n      pop\n        /* \"#utility.yul\":8792:8915   */\n      swap2\n      swap1\n      pop\n      jump\t// out\n        /* \"#utility.yul\":8921:9060   */\n    tag_535:\n        /* \"#utility.yul\":9012:9053   */\n      tag_695\n        /* \"#utility.yul\":9047:9052   */\n      dup2\n        /* \"#utility.yul\":9012:9053   */\n      tag_534\n      jump\t// in\n    tag_695:\n        /* \"#utility.yul\":9007:9010   */\n      dup3\n        /* \"#utility.yul\":9000:9054   */\n      mstore\n        /* \"#utility.yul\":8921:9060   */\n      pop\n      pop\n      jump\t// out\n        /* \"#utility.yul\":9066:9406   */\n    tag_77:\n        /* \"#utility.yul\":9191:9195   */\n      0x00\n        /* \"#utility.yul\":9229:9231   */\n      0x40\n        /* \"#utility.yul\":9218:9227   */\n      dup3\n        /* \"#utility.yul\":9214:9232   */\n      add\n        /* \"#utility.yul\":9206:9232   */\n      swap1\n      pop\n        /* \"#utility.yul\":9242:9313   */\n      tag_697\n        /* \"#utility.yul\":9310:9311   */\n      0x00\n        /* \"#utility.yul\":9299:9308   */\n      dup4\n        /* \"#utility.yul\":9295:9312   */\n      add\n        /* \"#utility.yul\":9286:9292   */\n      dup6\n        /* \"#utility.yul\":9242:9313   */\n      tag_516\n      jump\t// in\n    tag_697:\n        /* \"#utility.yul\":9323:9399   */\n      tag_698\n        /* \"#utility.yul\":9395:9397   */\n      0x20\n        /* \"#utility.yul\":9384:9393   */\n      dup4\n        /* \"#utility.yul\":9380:9398   */\n      add\n        /* \"#utility.yul\":9371:9377   */\n      dup5\n        /* \"#utility.yul\":9323:9399   */\n      tag_535\n      jump\t// in\n    tag_698:\n        /* \"#utility.yul\":9066:9406   */\n      swap4\n      swap3\n      pop\n      pop\n      pop\n      jump\t// out\n        /* \"#utility.yul\":9412:9517   */\n    tag_536:\n        /* \"#utility.yul\":9491:9492   */\n      0x03\n        /* \"#utility.yul\":9484:9489   */\n      dup2\n        /* \"#utility.yul\":9481:9493   */\n      lt\n        /* \"#utility.yul\":9471:9511   */\n      tag_700\n      jumpi\n        /* \"#utility.yul\":9507:9508   */\n      0x00\n        /* \"#utility.yul\":9504:9505   */\n      dup1\n        /* \"#utility.yul\":9497:9509   */\n      revert\n        /* \"#utility.yul\":9471:9511   */\n    tag_700:\n        /* \"#utility.yul\":9412:9517   */\n      pop\n      jump\t// out\n        /* \"#utility.yul\":9523:9674   */\n    tag_537:\n        /* \"#utility.yul\":9575:9580   */\n      0x00\n        /* \"#utility.yul\":9613:9619   */\n      dup2\n        /* \"#utility.yul\":9600:9620   */\n      calldataload\n        /* \"#utility.yul\":9591:9620   */\n      swap1\n      pop\n        /* \"#utility.yul\":9629:9668   */\n      tag_702\n        /* \"#utility.yul\":9662:9667   */\n      dup2\n        /* \"#utility.yul\":9629:9668   */\n      tag_536\n      jump\t// in\n    tag_702:\n        /* \"#utility.yul\":9523:9674   */\n      swap3\n      swap2\n      pop\n      pop\n      jump\t// out\n        /* \"#utility.yul\":9680:10021   */\n    tag_81:\n        /* \"#utility.yul\":9745:9751   */\n      0x00\n        /* \"#utility.yul\":9794:9796   */\n      0x20\n        /* \"#utility.yul\":9782:9791   */\n      dup3\n        /* \"#utility.yul\":9773:9780   */\n      dup5\n        /* \"#utility.yul\":9769:9792   */\n      sub\n        /* \"#utility.yul\":9765:9797   */\n      slt\n        /* \"#utility.yul\":9762:9881   */\n      iszero\n      tag_704\n      jumpi\n        /* \"#utility.yul\":9800:9879   */\n      tag_705\n      tag_505\n      jump\t// in\n    tag_705:\n        /* \"#utility.yul\":9762:9881   */\n    tag_704:\n        /* \"#utility.yul\":9920:9921   */\n      0x00\n        /* \"#utility.yul\":9945:10004   */\n      tag_706\n        /* \"#utility.yul\":9996:10003   */\n      dup5\n        /* \"#utility.yul\":9987:9993   */\n      dup3\n        /* \"#utility.yul\":9976:9985   */\n      dup6\n        /* \"#utility.yul\":9972:9994   */\n      add\n        /* \"#utility.yul\":9945:10004   */\n      tag_537\n      jump\t// in\n    tag_706:\n        /* \"#utility.yul\":9935:10004   */\n      swap2\n      pop\n        /* \"#utility.yul\":9891:10014   */\n      pop\n        /* \"#utility.yul\":9680:10021   */\n      swap3\n      swap2\n      pop\n      pop\n      jump\t// out\n        /* \"#utility.yul\":10027:10144   */\n    tag_538:\n        /* \"#utility.yul\":10136:10137   */\n      0x00\n        /* \"#utility.yul\":10133:10134   */\n      dup1\n        /* \"#utility.yul\":10126:10138   */\n      revert\n        /* \"#utility.yul\":10150:10330   */\n    tag_539:\n        /* \"#utility.yul\":10198:10275   */\n      0x4e487b7100000000000000000000000000000000000000000000000000000000\n        /* \"#utility.yul\":10195:10196   */\n      0x00\n        /* \"#utility.yul\":10188:10276   */\n      mstore\n        /* \"#utility.yul\":10295:10299   */\n      0x41\n        /* \"#utility.yul\":10292:10293   */\n      0x04\n        /* \"#utility.yul\":10285:10300   */\n      mstore\n        /* \"#utility.yul\":10319:10323   */\n      0x24\n        /* \"#utility.yul\":10316:10317   */\n      0x00\n        /* \"#utility.yul\":10309:10324   */\n      revert\n        /* \"#utility.yul\":10336:10617   */\n    tag_540:\n        /* \"#utility.yul\":10419:10446   */\n      tag_710\n        /* \"#utility.yul\":10441:10445   */\n      dup3\n        /* \"#utility.yul\":10419:10446   */\n      tag_524\n      jump\t// in\n    tag_710:\n        /* \"#utility.yul\":10411:10417   */\n      dup2\n        /* \"#utility.yul\":10407:10447   */\n      add\n        /* \"#utility.yul\":10549:10555   */\n      dup2\n        /* \"#utility.yul\":10537:10547   */\n      dup2\n        /* \"#utility.yul\":10534:10556   */\n      lt\n        /* \"#utility.yul\":10513:10531   */\n      0xffffffffffffffff\n        /* \"#utility.yul\":10501:10511   */\n      dup3\n        /* \"#utility.yul\":10498:10532   */\n      gt\n        /* \"#utility.yul\":10495:10557   */\n      or\n        /* \"#utility.yul\":10492:10580   */\n      iszero\n      tag_711\n      jumpi\n        /* \"#utility.yul\":10560:10578   */\n      tag_712\n      tag_539\n      jump\t// in\n    tag_712:\n        /* \"#utility.yul\":10492:10580   */\n    tag_711:\n        /* \"#utility.yul\":10600:10610   */\n      dup1\n        /* \"#utility.yul\":10596:10598   */\n      0x40\n        /* \"#utility.yul\":10589:10611   */\n      mstore\n        /* \"#utility.yul\":10379:10617   */\n      pop\n        /* \"#utility.yul\":10336:10617   */\n      pop\n      pop\n      jump\t// out\n        /* \"#utility.yul\":10623:10752   */\n    tag_541:\n        /* \"#utility.yul\":10657:10663   */\n      0x00\n        /* \"#utility.yul\":10684:10704   */\n      tag_714\n      tag_504\n      jump\t// in\n    tag_714:\n        /* \"#utility.yul\":10674:10704   */\n      swap1\n      pop\n        /* \"#utility.yul\":10713:10746   */\n      tag_715\n        /* \"#utility.yul\":10741:10745   */\n      dup3\n        /* \"#utility.yul\":10733:10739   */\n      dup3\n        /* \"#utility.yul\":10713:10746   */\n      tag_540\n      jump\t// in\n    tag_715:\n        /* \"#utility.yul\":10623:10752   */\n      swap2\n      swap1\n      pop\n      jump\t// out\n        /* \"#utility.yul\":10758:11066   */\n    tag_542:\n        /* \"#utility.yul\":10820:10824   */\n      0x00\n        /* \"#utility.yul\":10910:10928   */\n      0xffffffffffffffff\n        /* \"#utility.yul\":10902:10908   */\n      dup3\n        /* \"#utility.yul\":10899:10929   */\n      gt\n        /* \"#utility.yul\":10896:10952   */\n      iszero\n      tag_717\n      jumpi\n        /* \"#utility.yul\":10932:10950   */\n      tag_718\n      tag_539\n      jump\t// in\n    tag_718:\n        /* \"#utility.yul\":10896:10952   */\n    tag_717:\n        /* \"#utility.yul\":10970:10999   */\n      tag_719\n        /* \"#utility.yul\":10992:10998   */\n      dup3\n        /* \"#utility.yul\":10970:10999   */\n      tag_524\n      jump\t// in\n    tag_719:\n        /* \"#utility.yul\":10962:10999   */\n      swap1\n      pop\n        /* \"#utility.yul\":11054:11058   */\n      0x20\n        /* \"#utility.yul\":11048:11052   */\n      dup2\n        /* \"#utility.yul\":11044:11059   */\n      add\n        /* \"#utility.yul\":11036:11059   */\n      swap1\n      pop\n        /* \"#utility.yul\":10758:11066   */\n      swap2\n      swap1\n      pop\n      jump\t// out\n        /* \"#utility.yul\":11072:11218   */\n    tag_543:\n        /* \"#utility.yul\":11169:11175   */\n      dup3\n        /* \"#utility.yul\":11164:11167   */\n      dup2\n        /* \"#utility.yul\":11159:11162   */\n      dup4\n        /* \"#utility.yul\":11146:11176   */\n      calldatacopy\n        /* \"#utility.yul\":11210:11211   */\n      0x00\n        /* \"#utility.yul\":11201:11207   */\n      dup4\n        /* \"#utility.yul\":11196:11199   */\n      dup4\n        /* \"#utility.yul\":11192:11208   */\n      add\n        /* \"#utility.yul\":11185:11212   */\n      mstore\n        /* \"#utility.yul\":11072:11218   */\n      pop\n      pop\n      pop\n      jump\t// out\n        /* \"#utility.yul\":11224:11649   */\n    tag_544:\n        /* \"#utility.yul\":11302:11307   */\n      0x00\n        /* \"#utility.yul\":11327:11393   */\n      tag_722\n        /* \"#utility.yul\":11343:11392   */\n      tag_723\n        /* \"#utility.yul\":11385:11391   */\n      dup5\n        /* \"#utility.yul\":11343:11392   */\n      tag_542\n      jump\t// in\n    tag_723:\n        /* \"#utility.yul\":11327:11393   */\n      tag_541\n      jump\t// in\n    tag_722:\n        /* \"#utility.yul\":11318:11393   */\n      swap1\n      pop\n        /* \"#utility.yul\":11416:11422   */\n      dup3\n        /* \"#utility.yul\":11409:11414   */\n      dup2\n        /* \"#utility.yul\":11402:11423   */\n      mstore\n        /* \"#utility.yul\":11454:11458   */\n      0x20\n        /* \"#utility.yul\":11447:11452   */\n      dup2\n        /* \"#utility.yul\":11443:11459   */\n      add\n        /* \"#utility.yul\":11492:11495   */\n      dup5\n        /* \"#utility.yul\":11483:11489   */\n      dup5\n        /* \"#utility.yul\":11478:11481   */\n      dup5\n        /* \"#utility.yul\":11474:11490   */\n      add\n        /* \"#utility.yul\":11471:11496   */\n      gt\n        /* \"#utility.yul\":11468:11580   */\n      iszero\n      tag_724\n      jumpi\n        /* \"#utility.yul\":11499:11578   */\n      tag_725\n      tag_538\n      jump\t// in\n    tag_725:\n        /* \"#utility.yul\":11468:11580   */\n    tag_724:\n        /* \"#utility.yul\":11589:11643   */\n      tag_726\n        /* \"#utility.yul\":11636:11642   */\n      dup5\n        /* \"#utility.yul\":11631:11634   */\n      dup3\n        /* \"#utility.yul\":11626:11629   */\n      dup6\n        /* \"#utility.yul\":11589:11643   */\n      tag_543\n      jump\t// in\n    tag_726:\n        /* \"#utility.yul\":11308:11649   */\n      pop\n        /* \"#utility.yul\":11224:11649   */\n      swap4\n      swap3\n      pop\n      pop\n      pop\n      jump\t// out\n        /* \"#utility.yul\":11669:12009   */\n    tag_545:\n        /* \"#utility.yul\":11725:11730   */\n      0x00\n        /* \"#utility.yul\":11774:11777   */\n      dup3\n        /* \"#utility.yul\":11767:11771   */\n      0x1f\n        /* \"#utility.yul\":11759:11765   */\n      dup4\n        /* \"#utility.yul\":11755:11772   */\n      add\n        /* \"#utility.yul\":11751:11778   */\n      slt\n        /* \"#utility.yul\":11741:11863   */\n      tag_728\n      jumpi\n        /* \"#utility.yul\":11782:11861   */\n      tag_729\n      tag_510\n      jump\t// in\n    tag_729:\n        /* \"#utility.yul\":11741:11863   */\n    tag_728:\n        /* \"#utility.yul\":11899:11905   */\n      dup2\n        /* \"#utility.yul\":11886:11906   */\n      calldataload\n        /* \"#utility.yul\":11924:12003   */\n      tag_730\n        /* \"#utility.yul\":11999:12002   */\n      dup5\n        /* \"#utility.yul\":11991:11997   */\n      dup3\n        /* \"#utility.yul\":11984:11988   */\n      0x20\n        /* \"#utility.yul\":11976:11982   */\n      dup7\n        /* \"#utility.yul\":11972:11989   */\n      add\n        /* \"#utility.yul\":11924:12003   */\n      tag_544\n      jump\t// in\n    tag_730:\n        /* \"#utility.yul\":11915:12003   */\n      swap2\n      pop\n        /* \"#utility.yul\":11731:12009   */\n      pop\n        /* \"#utility.yul\":11669:12009   */\n      swap3\n      swap2\n      pop\n      pop\n      jump\t// out\n        /* \"#utility.yul\":12015:12524   */\n    tag_86:\n        /* \"#utility.yul\":12084:12090   */\n      0x00\n        /* \"#utility.yul\":12133:12135   */\n      0x20\n        /* \"#utility.yul\":12121:12130   */\n      dup3\n        /* \"#utility.yul\":12112:12119   */\n      dup5\n        /* \"#utility.yul\":12108:12131   */\n      sub\n        /* \"#utility.yul\":12104:12136   */\n      slt\n        /* \"#utility.yul\":12101:12220   */\n      iszero\n      tag_732\n      jumpi\n        /* \"#utility.yul\":12139:12218   */\n      tag_733\n      tag_505\n      jump\t// in\n    tag_733:\n        /* \"#utility.yul\":12101:12220   */\n    tag_732:\n        /* \"#utility.yul\":12287:12288   */\n      0x00\n        /* \"#utility.yul\":12276:12285   */\n      dup3\n        /* \"#utility.yul\":12272:12289   */\n      add\n        /* \"#utility.yul\":12259:12290   */\n      calldataload\n        /* \"#utility.yul\":12317:12335   */\n      0xffffffffffffffff\n        /* \"#utility.yul\":12309:12315   */\n      dup2\n        /* \"#utility.yul\":12306:12336   */\n      gt\n        /* \"#utility.yul\":12303:12420   */\n      iszero\n      tag_734\n      jumpi\n        /* \"#utility.yul\":12339:12418   */\n      tag_735\n      tag_506\n      jump\t// in\n    tag_735:\n        /* \"#utility.yul\":12303:12420   */\n    tag_734:\n        /* \"#utility.yul\":12444:12507   */\n      tag_736\n        /* \"#utility.yul\":12499:12506   */\n      dup5\n        /* \"#utility.yul\":12490:12496   */\n      dup3\n        /* \"#utility.yul\":12479:12488   */\n      dup6\n        /* \"#utility.yul\":12475:12497   */\n      add\n        /* \"#utility.yul\":12444:12507   */\n      tag_545\n      jump\t// in\n    tag_736:\n        /* \"#utility.yul\":12434:12507   */\n      swap2\n      pop\n        /* \"#utility.yul\":12230:12517   */\n      pop\n        /* \"#utility.yul\":12015:12524   */\n      swap3\n      swap2\n      pop\n      pop\n      jump\t// out\n        /* \"#utility.yul\":12530:12843   */\n    tag_89:\n        /* \"#utility.yul\":12643:12647   */\n      0x00\n        /* \"#utility.yul\":12681:12683   */\n      0x20\n        /* \"#utility.yul\":12670:12679   */\n      dup3\n        /* \"#utility.yul\":12666:12684   */\n      add\n        /* \"#utility.yul\":12658:12684   */\n      swap1\n      pop\n        /* \"#utility.yul\":12730:12739   */\n      dup2\n        /* \"#utility.yul\":12724:12728   */\n      dup2\n        /* \"#utility.yul\":12720:12740   */\n      sub\n        /* \"#utility.yul\":12716:12717   */\n      0x00\n        /* \"#utility.yul\":12705:12714   */\n      dup4\n        /* \"#utility.yul\":12701:12718   */\n      add\n        /* \"#utility.yul\":12694:12741   */\n      mstore\n        /* \"#utility.yul\":12758:12836   */\n      tag_738\n        /* \"#utility.yul\":12831:12835   */\n      dup2\n        /* \"#utility.yul\":12822:12828   */\n      dup5\n        /* \"#utility.yul\":12758:12836   */\n      tag_525\n      jump\t// in\n    tag_738:\n        /* \"#utility.yul\":12750:12836   */\n      swap1\n      pop\n        /* \"#utility.yul\":12530:12843   */\n      swap3\n      swap2\n      pop\n      pop\n      jump\t// out\n        /* \"#utility.yul\":12849:13468   */\n    tag_100:\n        /* \"#utility.yul\":12926:12932   */\n      0x00\n        /* \"#utility.yul\":12934:12940   */\n      dup1\n        /* \"#utility.yul\":12942:12948   */\n      0x00\n        /* \"#utility.yul\":12991:12993   */\n      0x60\n        /* \"#utility.yul\":12979:12988   */\n      dup5\n        /* \"#utility.yul\":12970:12977   */\n      dup7\n        /* \"#utility.yul\":12966:12989   */\n      sub\n        /* \"#utility.yul\":12962:12994   */\n      slt\n        /* \"#utility.yul\":12959:13078   */\n      iszero\n      tag_740\n      jumpi\n        /* \"#utility.yul\":12997:13076   */\n      tag_741\n      tag_505\n      jump\t// in\n    tag_741:\n        /* \"#utility.yul\":12959:13078   */\n    tag_740:\n        /* \"#utility.yul\":13117:13118   */\n      0x00\n        /* \"#utility.yul\":13142:13195   */\n      tag_742\n        /* \"#utility.yul\":13187:13194   */\n      dup7\n        /* \"#utility.yul\":13178:13184   */\n      dup3\n        /* \"#utility.yul\":13167:13176   */\n      dup8\n        /* \"#utility.yul\":13163:13185   */\n      add\n        /* \"#utility.yul\":13142:13195   */\n      tag_528\n      jump\t// in\n    tag_742:\n        /* \"#utility.yul\":13132:13195   */\n      swap4\n      pop\n        /* \"#utility.yul\":13088:13205   */\n      pop\n        /* \"#utility.yul\":13244:13246   */\n      0x20\n        /* \"#utility.yul\":13270:13323   */\n      tag_743\n        /* \"#utility.yul\":13315:13322   */\n      dup7\n        /* \"#utility.yul\":13306:13312   */\n      dup3\n        /* \"#utility.yul\":13295:13304   */\n      dup8\n        /* \"#utility.yul\":13291:13313   */\n      add\n        /* \"#utility.yul\":13270:13323   */\n      tag_509\n      jump\t// in\n    tag_743:\n        /* \"#utility.yul\":13260:13323   */\n      swap3\n      pop\n        /* \"#utility.yul\":13215:13333   */\n      pop\n        /* \"#utility.yul\":13372:13374   */\n      0x40\n        /* \"#utility.yul\":13398:13451   */\n      tag_744\n        /* \"#utility.yul\":13443:13450   */\n      dup7\n        /* \"#utility.yul\":13434:13440   */\n      dup3\n        /* \"#utility.yul\":13423:13432   */\n      dup8\n        /* \"#utility.yul\":13419:13441   */\n      add\n        /* \"#utility.yul\":13398:13451   */\n      tag_509\n      jump\t// in\n    tag_744:\n        /* \"#utility.yul\":13388:13451   */\n      swap2\n      pop\n        /* \"#utility.yul\":13343:13461   */\n      pop\n        /* \"#utility.yul\":12849:13468   */\n      swap3\n      pop\n      swap3\n      pop\n      swap3\n      jump\t// out\n        /* \"#utility.yul\":13474:13696   */\n    tag_107:\n        /* \"#utility.yul\":13567:13571   */\n      0x00\n        /* \"#utility.yul\":13605:13607   */\n      0x20\n        /* \"#utility.yul\":13594:13603   */\n      dup3\n        /* \"#utility.yul\":13590:13608   */\n      add\n        /* \"#utility.yul\":13582:13608   */\n      swap1\n      pop\n        /* \"#utility.yul\":13618:13689   */\n      tag_746\n        /* \"#utility.yul\":13686:13687   */\n      0x00\n        /* \"#utility.yul\":13675:13684   */\n      dup4\n        /* \"#utility.yul\":13671:13688   */\n      add\n        /* \"#utility.yul\":13662:13668   */\n      dup5\n        /* \"#utility.yul\":13618:13689   */\n      tag_526\n      jump\t// in\n    tag_746:\n        /* \"#utility.yul\":13474:13696   */\n      swap3\n      swap2\n      pop\n      pop\n      jump\t// out\n        /* \"#utility.yul\":13702:14813   */\n    tag_111:\n        /* \"#utility.yul\":13809:13815   */\n      0x00\n        /* \"#utility.yul\":13817:13823   */\n      dup1\n        /* \"#utility.yul\":13825:13831   */\n      0x00\n        /* \"#utility.yul\":13833:13839   */\n      dup1\n        /* \"#utility.yul\":13841:13847   */\n      0x00\n        /* \"#utility.yul\":13849:13855   */\n      dup1\n        /* \"#utility.yul\":13898:13901   */\n      0xa0\n        /* \"#utility.yul\":13886:13895   */\n      dup8\n        /* \"#utility.yul\":13877:13884   */\n      dup10\n        /* \"#utility.yul\":13873:13896   */\n      sub\n        /* \"#utility.yul\":13869:13902   */\n      slt\n        /* \"#utility.yul\":13866:13986   */\n      iszero\n      tag_748\n      jumpi\n        /* \"#utility.yul\":13905:13984   */\n      tag_749\n      tag_505\n      jump\t// in\n    tag_749:\n        /* \"#utility.yul\":13866:13986   */\n    tag_748:\n        /* \"#utility.yul\":14025:14026   */\n      0x00\n        /* \"#utility.yul\":14050:14103   */\n      tag_750\n        /* \"#utility.yul\":14095:14102   */\n      dup10\n        /* \"#utility.yul\":14086:14092   */\n      dup3\n        /* \"#utility.yul\":14075:14084   */\n      dup11\n        /* \"#utility.yul\":14071:14093   */\n      add\n        /* \"#utility.yul\":14050:14103   */\n      tag_509\n      jump\t// in\n    tag_750:\n        /* \"#utility.yul\":14040:14103   */\n      swap7\n      pop\n        /* \"#utility.yul\":13996:14113   */\n      pop\n        /* \"#utility.yul\":14152:14154   */\n      0x20\n        /* \"#utility.yul\":14178:14231   */\n      tag_751\n        /* \"#utility.yul\":14223:14230   */\n      dup10\n        /* \"#utility.yul\":14214:14220   */\n      dup3\n        /* \"#utility.yul\":14203:14212   */\n      dup11\n        /* \"#utility.yul\":14199:14221   */\n      add\n        /* \"#utility.yul\":14178:14231   */\n      tag_509\n      jump\t// in\n    tag_751:\n        /* \"#utility.yul\":14168:14231   */\n      swap6\n      pop\n        /* \"#utility.yul\":14123:14241   */\n      pop\n        /* \"#utility.yul\":14308:14310   */\n      0x40\n        /* \"#utility.yul\":14297:14306   */\n      dup8\n        /* \"#utility.yul\":14293:14311   */\n      add\n        /* \"#utility.yul\":14280:14312   */\n      calldataload\n        /* \"#utility.yul\":14339:14357   */\n      0xffffffffffffffff\n        /* \"#utility.yul\":14331:14337   */\n      dup2\n        /* \"#utility.yul\":14328:14358   */\n      gt\n        /* \"#utility.yul\":14325:14442   */\n      iszero\n      tag_752\n      jumpi\n        /* \"#utility.yul\":14361:14440   */\n      tag_753\n      tag_506\n      jump\t// in\n    tag_753:\n        /* \"#utility.yul\":14325:14442   */\n    tag_752:\n        /* \"#utility.yul\":14474:14539   */\n      tag_754\n        /* \"#utility.yul\":14531:14538   */\n      dup10\n        /* \"#utility.yul\":14522:14528   */\n      dup3\n        /* \"#utility.yul\":14511:14520   */\n      dup11\n        /* \"#utility.yul\":14507:14529   */\n      add\n        /* \"#utility.yul\":14474:14539   */\n      tag_513\n      jump\t// in\n    tag_754:\n        /* \"#utility.yul\":14456:14539   */\n      swap5\n      pop\n      swap5\n      pop\n        /* \"#utility.yul\":14251:14549   */\n      pop\n        /* \"#utility.yul\":14588:14590   */\n      0x60\n        /* \"#utility.yul\":14614:14667   */\n      tag_755\n        /* \"#utility.yul\":14659:14666   */\n      dup10\n        /* \"#utility.yul\":14650:14656   */\n      dup3\n        /* \"#utility.yul\":14639:14648   */\n      dup11\n        /* \"#utility.yul\":14635:14657   */\n      add\n        /* \"#utility.yul\":14614:14667   */\n      tag_509\n      jump\t// in\n    tag_755:\n        /* \"#utility.yul\":14604:14667   */\n      swap3\n      pop\n        /* \"#utility.yul\":14559:14677   */\n      pop\n        /* \"#utility.yul\":14716:14719   */\n      0x80\n        /* \"#utility.yul\":14743:14796   */\n      tag_756\n        /* \"#utility.yul\":14788:14795   */\n      dup10\n        /* \"#utility.yul\":14779:14785   */\n      dup3\n        /* \"#utility.yul\":14768:14777   */\n      dup11\n        /* \"#utility.yul\":14764:14786   */\n      add\n        /* \"#utility.yul\":14743:14796   */\n      tag_528\n      jump\t// in\n    tag_756:\n        /* \"#utility.yul\":14733:14796   */\n      swap2\n      pop\n        /* \"#utility.yul\":14687:14806   */\n      pop\n        /* \"#utility.yul\":13702:14813   */\n      swap3\n      swap6\n      pop\n      swap3\n      swap6\n      pop\n      swap3\n      swap6\n      jump\t// out\n        /* \"#utility.yul\":14819:15041   */\n    tag_117:\n        /* \"#utility.yul\":14912:14916   */\n      0x00\n        /* \"#utility.yul\":14950:14952   */\n      0x20\n        /* \"#utility.yul\":14939:14948   */\n      dup3\n        /* \"#utility.yul\":14935:14953   */\n      add\n        /* \"#utility.yul\":14927:14953   */\n      swap1\n      pop\n        /* \"#utility.yul\":14963:15034   */\n      tag_758\n        /* \"#utility.yul\":15031:15032   */\n      0x00\n        /* \"#utility.yul\":15020:15029   */\n      dup4\n        /* \"#utility.yul\":15016:15033   */\n      add\n        /* \"#utility.yul\":15007:15013   */\n      dup5\n        /* \"#utility.yul\":14963:15034   */\n      tag_516\n      jump\t// in\n    tag_758:\n        /* \"#utility.yul\":14819:15041   */\n      swap3\n      swap2\n      pop\n      pop\n      jump\t// out\n        /* \"#utility.yul\":15047:15992   */\n    tag_120:\n        /* \"#utility.yul\":15143:15149   */\n      0x00\n        /* \"#utility.yul\":15151:15157   */\n      dup1\n        /* \"#utility.yul\":15159:15165   */\n      0x00\n        /* \"#utility.yul\":15167:15173   */\n      dup1\n        /* \"#utility.yul\":15216:15219   */\n      0x80\n        /* \"#utility.yul\":15204:15213   */\n      dup6\n        /* \"#utility.yul\":15195:15202   */\n      dup8\n        /* \"#utility.yul\":15191:15214   */\n      sub\n        /* \"#utility.yul\":15187:15220   */\n      slt\n        /* \"#utility.yul\":15184:15304   */\n      iszero\n      tag_760\n      jumpi\n        /* \"#utility.yul\":15223:15302   */\n      tag_761\n      tag_505\n      jump\t// in\n    tag_761:\n        /* \"#utility.yul\":15184:15304   */\n    tag_760:\n        /* \"#utility.yul\":15343:15344   */\n      0x00\n        /* \"#utility.yul\":15368:15421   */\n      tag_762\n        /* \"#utility.yul\":15413:15420   */\n      dup8\n        /* \"#utility.yul\":15404:15410   */\n      dup3\n        /* \"#utility.yul\":15393:15402   */\n      dup9\n        /* \"#utility.yul\":15389:15411   */\n      add\n        /* \"#utility.yul\":15368:15421   */\n      tag_528\n      jump\t// in\n    tag_762:\n        /* \"#utility.yul\":15358:15421   */\n      swap5\n      pop\n        /* \"#utility.yul\":15314:15431   */\n      pop\n        /* \"#utility.yul\":15470:15472   */\n      0x20\n        /* \"#utility.yul\":15496:15549   */\n      tag_763\n        /* \"#utility.yul\":15541:15548   */\n      dup8\n        /* \"#utility.yul\":15532:15538   */\n      dup3\n        /* \"#utility.yul\":15521:15530   */\n      dup9\n        /* \"#utility.yul\":15517:15539   */\n      add\n        /* \"#utility.yul\":15496:15549   */\n      tag_509\n      jump\t// in\n    tag_763:\n        /* \"#utility.yul\":15486:15549   */\n      swap4\n      pop\n        /* \"#utility.yul\":15441:15559   */\n      pop\n        /* \"#utility.yul\":15598:15600   */\n      0x40\n        /* \"#utility.yul\":15624:15677   */\n      tag_764\n        /* \"#utility.yul\":15669:15676   */\n      dup8\n        /* \"#utility.yul\":15660:15666   */\n      dup3\n        /* \"#utility.yul\":15649:15658   */\n      dup9\n        /* \"#utility.yul\":15645:15667   */\n      add\n        /* \"#utility.yul\":15624:15677   */\n      tag_509\n      jump\t// in\n    tag_764:\n        /* \"#utility.yul\":15614:15677   */\n      swap3\n      pop\n        /* \"#utility.yul\":15569:15687   */\n      pop\n        /* \"#utility.yul\":15754:15756   */\n      0x60\n        /* \"#utility.yul\":15743:15752   */\n      dup6\n        /* \"#utility.yul\":15739:15757   */\n      add\n        /* \"#utility.yul\":15726:15758   */\n      calldataload\n        /* \"#utility.yul\":15785:15803   */\n      0xffffffffffffffff\n        /* \"#utility.yul\":15777:15783   */\n      dup2\n        /* \"#utility.yul\":15774:15804   */\n      gt\n        /* \"#utility.yul\":15771:15888   */\n      iszero\n      tag_765\n      jumpi\n        /* \"#utility.yul\":15807:15886   */\n      tag_766\n      tag_506\n      jump\t// in\n    tag_766:\n        /* \"#utility.yul\":15771:15888   */\n    tag_765:\n        /* \"#utility.yul\":15912:15975   */\n      tag_767\n        /* \"#utility.yul\":15967:15974   */\n      dup8\n        /* \"#utility.yul\":15958:15964   */\n      dup3\n        /* \"#utility.yul\":15947:15956   */\n      dup9\n        /* \"#utility.yul\":15943:15965   */\n      add\n        /* \"#utility.yul\":15912:15975   */\n      tag_545\n      jump\t// in\n    tag_767:\n        /* \"#utility.yul\":15902:15975   */\n      swap2\n      pop\n        /* \"#utility.yul\":15697:15985   */\n      pop\n        /* \"#utility.yul\":15047:15992   */\n      swap3\n      swap6\n      swap2\n      swap5\n      pop\n      swap3\n      pop\n      jump\t// out\n        /* \"#utility.yul\":15998:16652   */\n    tag_125:\n        /* \"#utility.yul\":16076:16082   */\n      0x00\n        /* \"#utility.yul\":16084:16090   */\n      dup1\n        /* \"#utility.yul\":16133:16135   */\n      0x40\n        /* \"#utility.yul\":16121:16130   */\n      dup4\n        /* \"#utility.yul\":16112:16119   */\n      dup6\n        /* \"#utility.yul\":16108:16131   */\n      sub\n        /* \"#utility.yul\":16104:16136   */\n      slt\n        /* \"#utility.yul\":16101:16220   */\n      iszero\n      tag_769\n      jumpi\n        /* \"#utility.yul\":16139:16218   */\n      tag_770\n      tag_505\n      jump\t// in\n    tag_770:\n        /* \"#utility.yul\":16101:16220   */\n    tag_769:\n        /* \"#utility.yul\":16287:16288   */\n      0x00\n        /* \"#utility.yul\":16276:16285   */\n      dup4\n        /* \"#utility.yul\":16272:16289   */\n      add\n        /* \"#utility.yul\":16259:16290   */\n      calldataload\n        /* \"#utility.yul\":16317:16335   */\n      0xffffffffffffffff\n        /* \"#utility.yul\":16309:16315   */\n      dup2\n        /* \"#utility.yul\":16306:16336   */\n      gt\n        /* \"#utility.yul\":16303:16420   */\n      iszero\n      tag_771\n      jumpi\n        /* \"#utility.yul\":16339:16418   */\n      tag_772\n      tag_506\n      jump\t// in\n    tag_772:\n        /* \"#utility.yul\":16303:16420   */\n    tag_771:\n        /* \"#utility.yul\":16444:16507   */\n      tag_773\n        /* \"#utility.yul\":16499:16506   */\n      dup6\n        /* \"#utility.yul\":16490:16496   */\n      dup3\n        /* \"#utility.yul\":16479:16488   */\n      dup7\n        /* \"#utility.yul\":16475:16497   */\n      add\n        /* \"#utility.yul\":16444:16507   */\n      tag_545\n      jump\t// in\n    tag_773:\n        /* \"#utility.yul\":16434:16507   */\n      swap3\n      pop\n        /* \"#utility.yul\":16230:16517   */\n      pop\n        /* \"#utility.yul\":16556:16558   */\n      0x20\n        /* \"#utility.yul\":16582:16635   */\n      tag_774\n        /* \"#utility.yul\":16627:16634   */\n      dup6\n        /* \"#utility.yul\":16618:16624   */\n      dup3\n        /* \"#utility.yul\":16607:16616   */\n      dup7\n        /* \"#utility.yul\":16603:16625   */\n      add\n        /* \"#utility.yul\":16582:16635   */\n      tag_528\n      jump\t// in\n    tag_774:\n        /* \"#utility.yul\":16572:16635   */\n      swap2\n      pop\n        /* \"#utility.yul\":16527:16645   */\n      pop\n        /* \"#utility.yul\":15998:16652   */\n      swap3\n      pop\n      swap3\n      swap1\n      pop\n      jump\t// out\n        /* \"#utility.yul\":16658:16987   */\n    tag_130:\n        /* \"#utility.yul\":16717:16723   */\n      0x00\n        /* \"#utility.yul\":16766:16768   */\n      0x20\n        /* \"#utility.yul\":16754:16763   */\n      dup3\n        /* \"#utility.yul\":16745:16752   */\n      dup5\n        /* \"#utility.yul\":16741:16764   */\n      sub\n        /* \"#utility.yul\":16737:16769   */\n      slt\n        /* \"#utility.yul\":16734:16853   */\n      iszero\n      tag_776\n      jumpi\n        /* \"#utility.yul\":16772:16851   */\n      tag_777\n      tag_505\n      jump\t// in\n    tag_777:\n        /* \"#utility.yul\":16734:16853   */\n    tag_776:\n        /* \"#utility.yul\":16892:16893   */\n      0x00\n        /* \"#utility.yul\":16917:16970   */\n      tag_778\n        /* \"#utility.yul\":16962:16969   */\n      dup5\n        /* \"#utility.yul\":16953:16959   */\n      dup3\n        /* \"#utility.yul\":16942:16951   */\n      dup6\n        /* \"#utility.yul\":16938:16960   */\n      add\n        /* \"#utility.yul\":16917:16970   */\n      tag_528\n      jump\t// in\n    tag_778:\n        /* \"#utility.yul\":16907:16970   */\n      swap2\n      pop\n        /* \"#utility.yul\":16863:16980   */\n      pop\n        /* \"#utility.yul\":16658:16987   */\n      swap3\n      swap2\n      pop\n      pop\n      jump\t// out\n        /* \"#utility.yul\":16993:17333   */\n    tag_133:\n        /* \"#utility.yul\":17118:17122   */\n      0x00\n        /* \"#utility.yul\":17156:17158   */\n      0x40\n        /* \"#utility.yul\":17145:17154   */\n      dup3\n        /* \"#utility.yul\":17141:17159   */\n      add\n        /* \"#utility.yul\":17133:17159   */\n      swap1\n      pop\n        /* \"#utility.yul\":17169:17244   */\n      tag_780\n        /* \"#utility.yul\":17241:17242   */\n      0x00\n        /* \"#utility.yul\":17230:17239   */\n      dup4\n        /* \"#utility.yul\":17226:17243   */\n      add\n        /* \"#utility.yul\":17217:17223   */\n      dup6\n        /* \"#utility.yul\":17169:17244   */\n      tag_535\n      jump\t// in\n    tag_780:\n        /* \"#utility.yul\":17254:17326   */\n      tag_781\n        /* \"#utility.yul\":17322:17324   */\n      0x20\n        /* \"#utility.yul\":17311:17320   */\n      dup4\n        /* \"#utility.yul\":17307:17325   */\n      add\n        /* \"#utility.yul\":17298:17304   */\n      dup5\n        /* \"#utility.yul\":17254:17326   */\n      tag_526\n      jump\t// in\n    tag_781:\n        /* \"#utility.yul\":16993:17333   */\n      swap4\n      swap3\n      pop\n      pop\n      pop\n      jump\t// out\n        /* \"#utility.yul\":17339:17807   */\n    tag_144:\n        /* \"#utility.yul\":17404:17410   */\n      0x00\n        /* \"#utility.yul\":17412:17418   */\n      dup1\n        /* \"#utility.yul\":17461:17463   */\n      0x40\n        /* \"#utility.yul\":17449:17458   */\n      dup4\n        /* \"#utility.yul\":17440:17447   */\n      dup6\n        /* \"#utility.yul\":17436:17459   */\n      sub\n        /* \"#utility.yul\":17432:17464   */\n      slt\n        /* \"#utility.yul\":17429:17548   */\n      iszero\n      tag_783\n      jumpi\n        /* \"#utility.yul\":17467:17546   */\n      tag_784\n      tag_505\n      jump\t// in\n    tag_784:\n        /* \"#utility.yul\":17429:17548   */\n    tag_783:\n        /* \"#utility.yul\":17587:17588   */\n      0x00\n        /* \"#utility.yul\":17612:17662   */\n      tag_785\n        /* \"#utility.yul\":17654:17661   */\n      dup6\n        /* \"#utility.yul\":17645:17651   */\n      dup3\n        /* \"#utility.yul\":17634:17643   */\n      dup7\n        /* \"#utility.yul\":17630:17652   */\n      add\n        /* \"#utility.yul\":17612:17662   */\n      tag_531\n      jump\t// in\n    tag_785:\n        /* \"#utility.yul\":17602:17662   */\n      swap3\n      pop\n        /* \"#utility.yul\":17558:17672   */\n      pop\n        /* \"#utility.yul\":17711:17713   */\n      0x20\n        /* \"#utility.yul\":17737:17790   */\n      tag_786\n        /* \"#utility.yul\":17782:17789   */\n      dup6\n        /* \"#utility.yul\":17773:17779   */\n      dup3\n        /* \"#utility.yul\":17762:17771   */\n      dup7\n        /* \"#utility.yul\":17758:17780   */\n      add\n        /* \"#utility.yul\":17737:17790   */\n      tag_509\n      jump\t// in\n    tag_786:\n        /* \"#utility.yul\":17727:17790   */\n      swap2\n      pop\n        /* \"#utility.yul\":17682:17800   */\n      pop\n        /* \"#utility.yul\":17339:17807   */\n      swap3\n      pop\n      swap3\n      swap1\n      pop\n      jump\t// out\n        /* \"#utility.yul\":17813:18578   */\n    tag_152:\n        /* \"#utility.yul\":17899:17905   */\n      0x00\n        /* \"#utility.yul\":17907:17913   */\n      dup1\n        /* \"#utility.yul\":17915:17921   */\n      0x00\n        /* \"#utility.yul\":17923:17929   */\n      dup1\n        /* \"#utility.yul\":17972:17975   */\n      0x80\n        /* \"#utility.yul\":17960:17969   */\n      dup6\n        /* \"#utility.yul\":17951:17958   */\n      dup8\n        /* \"#utility.yul\":17947:17970   */\n      sub\n        /* \"#utility.yul\":17943:17976   */\n      slt\n        /* \"#utility.yul\":17940:18060   */\n      iszero\n      tag_788\n      jumpi\n        /* \"#utility.yul\":17979:18058   */\n      tag_789\n      tag_505\n      jump\t// in\n    tag_789:\n        /* \"#utility.yul\":17940:18060   */\n    tag_788:\n        /* \"#utility.yul\":18099:18100   */\n      0x00\n        /* \"#utility.yul\":18124:18177   */\n      tag_790\n        /* \"#utility.yul\":18169:18176   */\n      dup8\n        /* \"#utility.yul\":18160:18166   */\n      dup3\n        /* \"#utility.yul\":18149:18158   */\n      dup9\n        /* \"#utility.yul\":18145:18167   */\n      add\n        /* \"#utility.yul\":18124:18177   */\n      tag_528\n      jump\t// in\n    tag_790:\n        /* \"#utility.yul\":18114:18177   */\n      swap5\n      pop\n        /* \"#utility.yul\":18070:18187   */\n      pop\n        /* \"#utility.yul\":18226:18228   */\n      0x20\n        /* \"#utility.yul\":18252:18305   */\n      tag_791\n        /* \"#utility.yul\":18297:18304   */\n      dup8\n        /* \"#utility.yul\":18288:18294   */\n      dup3\n        /* \"#utility.yul\":18277:18286   */\n      dup9\n        /* \"#utility.yul\":18273:18295   */\n      add\n        /* \"#utility.yul\":18252:18305   */\n      tag_509\n      jump\t// in\n    tag_791:\n        /* \"#utility.yul\":18242:18305   */\n      swap4\n      pop\n        /* \"#utility.yul\":18197:18315   */\n      pop\n        /* \"#utility.yul\":18354:18356   */\n      0x40\n        /* \"#utility.yul\":18380:18433   */\n      tag_792\n        /* \"#utility.yul\":18425:18432   */\n      dup8\n        /* \"#utility.yul\":18416:18422   */\n      dup3\n        /* \"#utility.yul\":18405:18414   */\n      dup9\n        /* \"#utility.yul\":18401:18423   */\n      add\n        /* \"#utility.yul\":18380:18433   */\n      tag_509\n      jump\t// in\n    tag_792:\n        /* \"#utility.yul\":18370:18433   */\n      swap3\n      pop\n        /* \"#utility.yul\":18325:18443   */\n      pop\n        /* \"#utility.yul\":18482:18484   */\n      0x60\n        /* \"#utility.yul\":18508:18561   */\n      tag_793\n        /* \"#utility.yul\":18553:18560   */\n      dup8\n        /* \"#utility.yul\":18544:18550   */\n      dup3\n        /* \"#utility.yul\":18533:18542   */\n      dup9\n        /* \"#utility.yul\":18529:18551   */\n      add\n        /* \"#utility.yul\":18508:18561   */\n      tag_528\n      jump\t// in\n    tag_793:\n        /* \"#utility.yul\":18498:18561   */\n      swap2\n      pop\n        /* \"#utility.yul\":18453:18571   */\n      pop\n        /* \"#utility.yul\":17813:18578   */\n      swap3\n      swap6\n      swap2\n      swap5\n      pop\n      swap3\n      pop\n      jump\t// out\n        /* \"#utility.yul\":18584:18764   */\n    tag_546:\n        /* \"#utility.yul\":18632:18709   */\n      0x4e487b7100000000000000000000000000000000000000000000000000000000\n        /* \"#utility.yul\":18629:18630   */\n      0x00\n        /* \"#utility.yul\":18622:18710   */\n      mstore\n        /* \"#utility.yul\":18729:18733   */\n      0x12\n        /* \"#utility.yul\":18726:18727   */\n      0x04\n        /* \"#utility.yul\":18719:18734   */\n      mstore\n        /* \"#utility.yul\":18753:18757   */\n      0x24\n        /* \"#utility.yul\":18750:18751   */\n      0x00\n        /* \"#utility.yul\":18743:18758   */\n      revert\n        /* \"#utility.yul\":18770:18950   */\n    tag_547:\n        /* \"#utility.yul\":18818:18895   */\n      0x4e487b7100000000000000000000000000000000000000000000000000000000\n        /* \"#utility.yul\":18815:18816   */\n      0x00\n        /* \"#utility.yul\":18808:18896   */\n      mstore\n        /* \"#utility.yul\":18915:18919   */\n      0x11\n        /* \"#utility.yul\":18912:18913   */\n      0x04\n        /* \"#utility.yul\":18905:18920   */\n      mstore\n        /* \"#utility.yul\":18939:18943   */\n      0x24\n        /* \"#utility.yul\":18936:18937   */\n      0x00\n        /* \"#utility.yul\":18929:18944   */\n      revert\n        /* \"#utility.yul\":18956:19141   */\n    tag_156:\n        /* \"#utility.yul\":18996:18997   */\n      0x00\n        /* \"#utility.yul\":19013:19033   */\n      tag_797\n        /* \"#utility.yul\":19031:19032   */\n      dup3\n        /* \"#utility.yul\":19013:19033   */\n      tag_507\n      jump\t// in\n    tag_797:\n        /* \"#utility.yul\":19008:19033   */\n      swap2\n      pop\n        /* \"#utility.yul\":19047:19067   */\n      tag_798\n        /* \"#utility.yul\":19065:19066   */\n      dup4\n        /* \"#utility.yul\":19047:19067   */\n      tag_507\n      jump\t// in\n    tag_798:\n        /* \"#utility.yul\":19042:19067   */\n      swap3\n      pop\n        /* \"#utility.yul\":19086:19087   */\n      dup3\n        /* \"#utility.yul\":19076:19111   */\n      tag_799\n      jumpi\n        /* \"#utility.yul\":19091:19109   */\n      tag_800\n      tag_546\n      jump\t// in\n    tag_800:\n        /* \"#utility.yul\":19076:19111   */\n    tag_799:\n        /* \"#utility.yul\":19133:19134   */\n      dup3\n        /* \"#utility.yul\":19130:19131   */\n      dup3\n        /* \"#utility.yul\":19126:19135   */\n      div\n        /* \"#utility.yul\":19121:19135   */\n      swap1\n      pop\n        /* \"#utility.yul\":18956:19141   */\n      swap3\n      swap2\n      pop\n      pop\n      jump\t// out\n        /* \"#utility.yul\":19147:19327   */\n    tag_548:\n        /* \"#utility.yul\":19195:19272   */\n      0x4e487b7100000000000000000000000000000000000000000000000000000000\n        /* \"#utility.yul\":19192:19193   */\n      0x00\n        /* \"#utility.yul\":19185:19273   */\n      mstore\n        /* \"#utility.yul\":19292:19296   */\n      0x22\n        /* \"#utility.yul\":19289:19290   */\n      0x04\n        /* \"#utility.yul\":19282:19297   */\n      mstore\n        /* \"#utility.yul\":19316:19320   */\n      0x24\n        /* \"#utility.yul\":19313:19314   */\n      0x00\n        /* \"#utility.yul\":19306:19321   */\n      revert\n        /* \"#utility.yul\":19333:19653   */\n    tag_163:\n        /* \"#utility.yul\":19377:19383   */\n      0x00\n        /* \"#utility.yul\":19414:19415   */\n      0x02\n        /* \"#utility.yul\":19408:19412   */\n      dup3\n        /* \"#utility.yul\":19404:19416   */\n      div\n        /* \"#utility.yul\":19394:19416   */\n      swap1\n      pop\n        /* \"#utility.yul\":19461:19462   */\n      0x01\n        /* \"#utility.yul\":19455:19459   */\n      dup3\n        /* \"#utility.yul\":19451:19463   */\n      and\n        /* \"#utility.yul\":19482:19500   */\n      dup1\n        /* \"#utility.yul\":19472:19553   */\n      tag_803\n      jumpi\n        /* \"#utility.yul\":19538:19542   */\n      0x7f\n        /* \"#utility.yul\":19530:19536   */\n      dup3\n        /* \"#utility.yul\":19526:19543   */\n      and\n        /* \"#utility.yul\":19516:19543   */\n      swap2\n      pop\n        /* \"#utility.yul\":19472:19553   */\n    tag_803:\n        /* \"#utility.yul\":19600:19602   */\n      0x20\n        /* \"#utility.yul\":19592:19598   */\n      dup3\n        /* \"#utility.yul\":19589:19603   */\n      lt\n        /* \"#utility.yul\":19569:19587   */\n      dup2\n        /* \"#utility.yul\":19566:19604   */\n      sub\n        /* \"#utility.yul\":19563:19647   */\n      tag_804\n      jumpi\n        /* \"#utility.yul\":19619:19637   */\n      tag_805\n      tag_548\n      jump\t// in\n    tag_805:\n        /* \"#utility.yul\":19563:19647   */\n    tag_804:\n        /* \"#utility.yul\":19384:19653   */\n      pop\n        /* \"#utility.yul\":19333:19653   */\n      swap2\n      swap1\n      pop\n      jump\t// out\n        /* \"#utility.yul\":19659:19800   */\n    tag_549:\n        /* \"#utility.yul\":19708:19712   */\n      0x00\n        /* \"#utility.yul\":19731:19734   */\n      dup2\n        /* \"#utility.yul\":19723:19734   */\n      swap1\n      pop\n        /* \"#utility.yul\":19754:19757   */\n      dup2\n        /* \"#utility.yul\":19751:19752   */\n      0x00\n        /* \"#utility.yul\":19744:19758   */\n      mstore\n        /* \"#utility.yul\":19788:19792   */\n      0x20\n        /* \"#utility.yul\":19785:19786   */\n      0x00\n        /* \"#utility.yul\":19775:19793   */\n      keccak256\n        /* \"#utility.yul\":19767:19793   */\n      swap1\n      pop\n        /* \"#utility.yul\":19659:19800   */\n      swap2\n      swap1\n      pop\n      jump\t// out\n        /* \"#utility.yul\":19806:19899   */\n    tag_550:\n        /* \"#utility.yul\":19843:19849   */\n      0x00\n        /* \"#utility.yul\":19890:19892   */\n      0x20\n        /* \"#utility.yul\":19885:19887   */\n      0x1f\n        /* \"#utility.yul\":19878:19883   */\n      dup4\n        /* \"#utility.yul\":19874:19888   */\n      add\n        /* \"#utility.yul\":19870:19893   */\n      div\n        /* \"#utility.yul\":19860:19893   */\n      swap1\n      pop\n        /* \"#utility.yul\":19806:19899   */\n      swap2\n      swap1\n      pop\n      jump\t// out\n        /* \"#utility.yul\":19905:20012   */\n    tag_551:\n        /* \"#utility.yul\":19949:19957   */\n      0x00\n        /* \"#utility.yul\":19999:20004   */\n      dup3\n        /* \"#utility.yul\":19993:19997   */\n      dup3\n        /* \"#utility.yul\":19989:20005   */\n      shl\n        /* \"#utility.yul\":19968:20005   */\n      swap1\n      pop\n        /* \"#utility.yul\":19905:20012   */\n      swap3\n      swap2\n      pop\n      pop\n      jump\t// out\n        /* \"#utility.yul\":20018:20411   */\n    tag_552:\n        /* \"#utility.yul\":20087:20093   */\n      0x00\n        /* \"#utility.yul\":20137:20138   */\n      0x08\n        /* \"#utility.yul\":20125:20135   */\n      dup4\n        /* \"#utility.yul\":20121:20139   */\n      mul\n        /* \"#utility.yul\":20160:20257   */\n      tag_810\n        /* \"#utility.yul\":20190:20256   */\n      0xffffffffffffffffffffffffffffffffffffffffffffffffffffffffffffffff\n        /* \"#utility.yul\":20179:20188   */\n      dup3\n        /* \"#utility.yul\":20160:20257   */\n      tag_551\n      jump\t// in\n    tag_810:\n        /* \"#utility.yul\":20278:20317   */\n      tag_811\n        /* \"#utility.yul\":20308:20316   */\n      dup7\n        /* \"#utility.yul\":20297:20306   */\n      dup4\n        /* \"#utility.yul\":20278:20317   */\n      tag_551\n      jump\t// in\n    tag_811:\n        /* \"#utility.yul\":20266:20317   */\n      swap6\n      pop\n        /* \"#utility.yul\":20350:20354   */\n      dup1\n        /* \"#utility.yul\":20346:20355   */\n      not\n        /* \"#utility.yul\":20339:20344   */\n      dup5\n        /* \"#utility.yul\":20335:20356   */\n      and\n        /* \"#utility.yul\":20326:20356   */\n      swap4\n      pop\n        /* \"#utility.yul\":20399:20403   */\n      dup1\n        /* \"#utility.yul\":20389:20397   */\n      dup7\n        /* \"#utility.yul\":20385:20404   */\n      and\n        /* \"#utility.yul\":20378:20383   */\n      dup5\n        /* \"#utility.yul\":20375:20405   */\n      or\n        /* \"#utility.yul\":20365:20405   */\n      swap3\n      pop\n        /* \"#utility.yul\":20094:20411   */\n      pop\n      pop\n        /* \"#utility.yul\":20018:20411   */\n      swap4\n      swap3\n      pop\n      pop\n      pop\n      jump\t// out\n        /* \"#utility.yul\":20417:20477   */\n    tag_553:\n        /* \"#utility.yul\":20445:20448   */\n      0x00\n        /* \"#utility.yul\":20466:20471   */\n      dup2\n        /* \"#utility.yul\":20459:20471   */\n      swap1\n      pop\n        /* \"#utility.yul\":20417:20477   */\n      swap2\n      swap1\n      pop\n      jump\t// out\n        /* \"#utility.yul\":20483:20625   */\n    tag_554:\n        /* \"#utility.yul\":20533:20542   */\n      0x00\n        /* \"#utility.yul\":20566:20619   */\n      tag_814\n        /* \"#utility.yul\":20584:20618   */\n      tag_815\n        /* \"#utility.yul\":20593:20617   */\n      tag_816\n        /* \"#utility.yul\":20611:20616   */\n      dup5\n        /* \"#utility.yul\":20593:20617   */\n      tag_507\n      jump\t// in\n    tag_816:\n        /* \"#utility.yul\":20584:20618   */\n      tag_553\n      jump\t// in\n    tag_815:\n        /* \"#utility.yul\":20566:20619   */\n      tag_507\n      jump\t// in\n    tag_814:\n        /* \"#utility.yul\":20553:20619   */\n      swap1\n      pop\n        /* \"#utility.yul\":20483:20625   */\n      swap2\n      swap1\n      pop\n      jump\t// out\n        /* \"#utility.yul\":20631:20706   */\n    tag_555:\n        /* \"#utility.yul\":20674:20677   */\n      0x00\n        /* \"#utility.yul\":20695:20700   */\n      dup2\n        /* \"#utility.yul\":20688:20700   */\n      swap1\n      pop\n        /* \"#utility.yul\":20631:20706   */\n      swap2\n      swap1\n      pop\n      jump\t// out\n        /* \"#utility.yul\":20712:20981   */\n    tag_556:\n        /* \"#utility.yul\":20822:20861   */\n      tag_819\n        /* \"#utility.yul\":20853:20860   */\n      dup4\n        /* \"#utility.yul\":20822:20861   */\n      tag_554\n      jump\t// in\n    tag_819:\n        /* \"#utility.yul\":20883:20974   */\n      tag_820\n        /* \"#utility.yul\":20932:20973   */\n      tag_821\n        /* \"#utility.yul\":20956:20972   */\n      dup3\n        /* \"#utility.yul\":20932:20973   */\n      tag_555\n      jump\t// in\n    tag_821:\n        /* \"#utility.yul\":20924:20930   */\n      dup5\n        /* \"#utility.yul\":20917:20921   */\n      dup5\n        /* \"#utility.yul\":20911:20922   */\n      sload\n        /* \"#utility.yul\":20883:20974   */\n      tag_552\n      jump\t// in\n    tag_820:\n        /* \"#utility.yul\":20877:20881   */\n      dup3\n        /* \"#utility.yul\":20870:20975   */\n      sstore\n        /* \"#utility.yul\":20788:20981   */\n      pop\n        /* \"#utility.yul\":20712:20981   */\n      pop\n      pop\n      pop\n      jump\t// out\n        /* \"#utility.yul\":20987:21060   */\n    tag_557:\n        /* \"#utility.yul\":21032:21035   */\n      0x00\n        /* \"#utility.yul\":20987:21060   */\n      swap1\n      jump\t// out\n        /* \"#utility.yul\":21066:21255   */\n    tag_558:\n        /* \"#utility.yul\":21143:21175   */\n      tag_824\n      tag_557\n      jump\t// in\n    tag_824:\n        /* \"#utility.yul\":21184:21249   */\n      tag_825\n        /* \"#utility.yul\":21242:21248   */\n      dup2\n        /* \"#utility.yul\":21234:21240   */\n      dup5\n        /* \"#utility.yul\":21228:21232   */\n      dup5\n        /* \"#utility.yul\":21184:21249   */\n      tag_556\n      jump\t// in\n    tag_825:\n        /* \"#utility.yul\":21119:21255   */\n      pop\n        /* \"#utility.yul\":21066:21255   */\n      pop\n      pop\n      jump\t// out\n        /* \"#utility.yul\":21261:21447   */\n    tag_559:\n        /* \"#utility.yul\":21321:21441   */\n    tag_827:\n        /* \"#utility.yul\":21338:21341   */\n      dup2\n        /* \"#utility.yul\":21331:21336   */\n      dup2\n        /* \"#utility.yul\":21328:21342   */\n      lt\n        /* \"#utility.yul\":21321:21441   */\n      iszero\n      tag_829\n      jumpi\n        /* \"#utility.yul\":21392:21431   */\n      tag_830\n        /* \"#utility.yul\":21429:21430   */\n      0x00\n        /* \"#utility.yul\":21422:21427   */\n      dup3\n        /* \"#utility.yul\":21392:21431   */\n      tag_558\n      jump\t// in\n    tag_830:\n        /* \"#utility.yul\":21365:21366   */\n      0x01\n        /* \"#utility.yul\":21358:21363   */\n      dup2\n        /* \"#utility.yul\":21354:21367   */\n      add\n        /* \"#utility.yul\":21345:21367   */\n      swap1\n      pop\n        /* \"#utility.yul\":21321:21441   */\n      jump(tag_827)\n    tag_829:\n        /* \"#utility.yul\":21261:21447   */\n      pop\n      pop\n      jump\t// out\n        /* \"#utility.yul\":21453:21996   */\n    tag_560:\n        /* \"#utility.yul\":21554:21556   */\n      0x1f\n        /* \"#utility.yul\":21549:21552   */\n      dup3\n        /* \"#utility.yul\":21546:21557   */\n      gt\n        /* \"#utility.yul\":21543:21989   */\n      iszero\n      tag_832\n      jumpi\n        /* \"#utility.yul\":21588:21626   */\n      tag_833\n        /* \"#utility.yul\":21620:21625   */\n      dup2\n        /* \"#utility.yul\":21588:21626   */\n      tag_549\n      jump\t// in\n    tag_833:\n        /* \"#utility.yul\":21672:21701   */\n      tag_834\n        /* \"#utility.yul\":21690:21700   */\n      dup5\n        /* \"#utility.yul\":21672:21701   */\n      tag_550\n      jump\t// in\n    tag_834:\n        /* \"#utility.yul\":21662:21670   */\n      dup2\n        /* \"#utility.yul\":21658:21702   */\n      add\n        /* \"#utility.yul\":21855:21857   */\n      0x20\n        /* \"#utility.yul\":21843:21853   */\n      dup6\n        /* \"#utility.yul\":21840:21858   */\n      lt\n        /* \"#utility.yul\":21837:21886   */\n      iszero\n      tag_835\n      jumpi\n        /* \"#utility.yul\":21876:21884   */\n      dup2\n        /* \"#utility.yul\":21861:21884   */\n      swap1\n      pop\n        /* \"#utility.yul\":21837:21886   */\n    tag_835:\n        /* \"#utility.yul\":21899:21979   */\n      tag_836\n        /* \"#utility.yul\":21955:21977   */\n      tag_837\n        /* \"#utility.yul\":21973:21976   */\n      dup6\n        /* \"#utility.yul\":21955:21977   */\n      tag_550\n      jump\t// in\n    tag_837:\n        /* \"#utility.yul\":21945:21953   */\n      dup4\n        /* \"#utility.yul\":21941:21978   */\n      add\n        /* \"#utility.yul\":21928:21939   */\n      dup3\n        /* \"#utility.yul\":21899:21979   */\n      tag_559\n      jump\t// in\n    tag_836:\n        /* \"#utility.yul\":21558:21989   */\n      pop\n      pop\n        /* \"#utility.yul\":21543:21989   */\n    tag_832:\n        /* \"#utility.yul\":21453:21996   */\n      pop\n      pop\n      pop\n      jump\t// out\n        /* \"#utility.yul\":22002:22119   */\n    tag_561:\n        /* \"#utility.yul\":22056:22064   */\n      0x00\n        /* \"#utility.yul\":22106:22111   */\n      dup3\n        /* \"#utility.yul\":22100:22104   */\n      dup3\n        /* \"#utility.yul\":22096:22112   */\n      shr\n        /* \"#utility.yul\":22075:22112   */\n      swap1\n      pop\n        /* \"#utility.yul\":22002:22119   */\n      swap3\n      swap2\n      pop\n      pop\n      jump\t// out\n        /* \"#utility.yul\":22125:22294   */\n    tag_562:\n        /* \"#utility.yul\":22169:22175   */\n      0x00\n        /* \"#utility.yul\":22202:22253   */\n      tag_840\n        /* \"#utility.yul\":22250:22251   */\n      0x00\n        /* \"#utility.yul\":22246:22252   */\n      not\n        /* \"#utility.yul\":22238:22243   */\n      dup5\n        /* \"#utility.yul\":22235:22236   */\n      0x08\n        /* \"#utility.yul\":22231:22244   */\n      mul\n        /* \"#utility.yul\":22202:22253   */\n      tag_561\n      jump\t// in\n    tag_840:\n        /* \"#utility.yul\":22198:22254   */\n      not\n        /* \"#utility.yul\":22283:22287   */\n      dup1\n        /* \"#utility.yul\":22277:22281   */\n      dup4\n        /* \"#utility.yul\":22273:22288   */\n      and\n        /* \"#utility.yul\":22263:22288   */\n      swap2\n      pop\n        /* \"#utility.yul\":22176:22294   */\n      pop\n        /* \"#utility.yul\":22125:22294   */\n      swap3\n      swap2\n      pop\n      pop\n      jump\t// out\n        /* \"#utility.yul\":22299:22594   */\n    tag_563:\n        /* \"#utility.yul\":22375:22379   */\n      0x00\n        /* \"#utility.yul\":22521:22550   */\n      tag_842\n        /* \"#utility.yul\":22546:22549   */\n      dup4\n        /* \"#utility.yul\":22540:22544   */\n      dup4\n        /* \"#utility.yul\":22521:22550   */\n      tag_562\n      jump\t// in\n    tag_842:\n        /* \"#utility.yul\":22513:22550   */\n      swap2\n      pop\n        /* \"#utility.yul\":22583:22586   */\n      dup3\n        /* \"#utility.yul\":22580:22581   */\n      0x02\n        /* \"#utility.yul\":22576:22587   */\n      mul\n        /* \"#utility.yul\":22570:22574   */\n      dup3\n        /* \"#utility.yul\":22567:22588   */\n      or\n        /* \"#utility.yul\":22559:22588   */\n      swap1\n      pop\n        /* \"#utility.yul\":22299:22594   */\n      swap3\n      swap2\n      pop\n      pop\n      jump\t// out\n        /* \"#utility.yul\":22599:23994   */\n    tag_159:\n        /* \"#utility.yul\":22716:22753   */\n      tag_844\n        /* \"#utility.yul\":22749:22752   */\n      dup3\n        /* \"#utility.yul\":22716:22753   */\n      tag_521\n      jump\t// in\n    tag_844:\n        /* \"#utility.yul\":22818:22836   */\n      0xffffffffffffffff\n        /* \"#utility.yul\":22810:22816   */\n      dup2\n        /* \"#utility.yul\":22807:22837   */\n      gt\n        /* \"#utility.yul\":22804:22860   */\n      iszero\n      tag_845\n      jumpi\n        /* \"#utility.yul\":22840:22858   */\n      tag_846\n      tag_539\n      jump\t// in\n    tag_846:\n        /* \"#utility.yul\":22804:22860   */\n    tag_845:\n        /* \"#utility.yul\":22884:22922   */\n      tag_847\n        /* \"#utility.yul\":22916:22920   */\n      dup3\n        /* \"#utility.yul\":22910:22921   */\n      sload\n        /* \"#utility.yul\":22884:22922   */\n      tag_163\n      jump\t// in\n    tag_847:\n        /* \"#utility.yul\":22969:23036   */\n      tag_848\n        /* \"#utility.yul\":23029:23035   */\n      dup3\n        /* \"#utility.yul\":23021:23027   */\n      dup3\n        /* \"#utility.yul\":23015:23019   */\n      dup6\n        /* \"#utility.yul\":22969:23036   */\n      tag_560\n      jump\t// in\n    tag_848:\n        /* \"#utility.yul\":23063:23064   */\n      0x00\n        /* \"#utility.yul\":23087:23091   */\n      0x20\n        /* \"#utility.yul\":23074:23091   */\n      swap1\n      pop\n        /* \"#utility.yul\":23119:23121   */\n      0x1f\n        /* \"#utility.yul\":23111:23117   */\n      dup4\n        /* \"#utility.yul\":23108:23122   */\n      gt\n        /* \"#utility.yul\":23136:23137   */\n      0x01\n        /* \"#utility.yul\":23131:23749   */\n      dup2\n      eq\n      tag_850\n      jumpi\n        /* \"#utility.yul\":23793:23794   */\n      0x00\n        /* \"#utility.yul\":23810:23816   */\n      dup5\n        /* \"#utility.yul\":23807:23884   */\n      iszero\n      tag_851\n      jumpi\n        /* \"#utility.yul\":23859:23868   */\n      dup3\n        /* \"#utility.yul\":23854:23857   */\n      dup8\n        /* \"#utility.yul\":23850:23869   */\n      add\n        /* \"#utility.yul\":23844:23870   */\n      mload\n        /* \"#utility.yul\":23835:23870   */\n      swap1\n      pop\n        /* \"#utility.yul\":23807:23884   */\n    tag_851:\n        /* \"#utility.yul\":23910:23977   */\n      tag_852\n        /* \"#utility.yul\":23970:23976   */\n      dup6\n        /* \"#utility.yul\":23963:23968   */\n      dup3\n        /* \"#utility.yul\":23910:23977   */\n      tag_563\n      jump\t// in\n    tag_852:\n        /* \"#utility.yul\":23904:23908   */\n      dup7\n        /* \"#utility.yul\":23897:23978   */\n      sstore\n        /* \"#utility.yul\":23766:23988   */\n      pop\n        /* \"#utility.yul\":23101:23988   */\n      jump(tag_849)\n        /* \"#utility.yul\":23131:23749   */\n    tag_850:\n        /* \"#utility.yul\":23183:23187   */\n      0x1f\n        /* \"#utility.yul\":23179:23188   */\n      not\n        /* \"#utility.yul\":23171:23177   */\n      dup5\n        /* \"#utility.yul\":23167:23189   */\n      and\n        /* \"#utility.yul\":23217:23254   */\n      tag_853\n        /* \"#utility.yul\":23249:23253   */\n      dup7\n        /* \"#utility.yul\":23217:23254   */\n      tag_549\n      jump\t// in\n    tag_853:\n        /* \"#utility.yul\":23276:23277   */\n      0x00\n        /* \"#utility.yul\":23290:23498   */\n    tag_854:\n        /* \"#utility.yul\":23304:23311   */\n      dup3\n        /* \"#utility.yul\":23301:23302   */\n      dup2\n        /* \"#utility.yul\":23298:23312   */\n      lt\n        /* \"#utility.yul\":23290:23498   */\n      iszero\n      tag_856\n      jumpi\n        /* \"#utility.yul\":23383:23392   */\n      dup5\n        /* \"#utility.yul\":23378:23381   */\n      dup10\n        /* \"#utility.yul\":23374:23393   */\n      add\n        /* \"#utility.yul\":23368:23394   */\n      mload\n        /* \"#utility.yul\":23360:23366   */\n      dup3\n        /* \"#utility.yul\":23353:23395   */\n      sstore\n        /* \"#utility.yul\":23434:23435   */\n      0x01\n        /* \"#utility.yul\":23426:23432   */\n      dup3\n        /* \"#utility.yul\":23422:23436   */\n      add\n        /* \"#utility.yul\":23412:23436   */\n      swap2\n      pop\n        /* \"#utility.yul\":23481:23483   */\n      0x20\n        /* \"#utility.yul\":23470:23479   */\n      dup6\n        /* \"#utility.yul\":23466:23484   */\n      add\n        /* \"#utility.yul\":23453:23484   */\n      swap5\n      pop\n        /* \"#utility.yul\":23327:23331   */\n      0x20\n        /* \"#utility.yul\":23324:23325   */\n      dup2\n        /* \"#utility.yul\":23320:23332   */\n      add\n        /* \"#utility.yul\":23315:23332   */\n      swap1\n      pop\n        /* \"#utility.yul\":23290:23498   */\n      jump(tag_854)\n    tag_856:\n        /* \"#utility.yul\":23526:23532   */\n      dup7\n        /* \"#utility.yul\":23517:23524   */\n      dup4\n        /* \"#utility.yul\":23514:23533   */\n      lt\n        /* \"#utility.yul\":23511:23690   */\n      iszero\n      tag_857\n      jumpi\n        /* \"#utility.yul\":23584:23593   */\n      dup5\n        /* \"#utility.yul\":23579:23582   */\n      dup10\n        /* \"#utility.yul\":23575:23594   */\n      add\n        /* \"#utility.yul\":23569:23595   */\n      mload\n        /* \"#utility.yul\":23627:23675   */\n      tag_858\n        /* \"#utility.yul\":23669:23673   */\n      0x1f\n        /* \"#utility.yul\":23661:23667   */\n      dup10\n        /* \"#utility.yul\":23657:23674   */\n      and\n        /* \"#utility.yul\":23646:23655   */\n      dup3\n        /* \"#utility.yul\":23627:23675   */\n      tag_562\n      jump\t// in\n    tag_858:\n        /* \"#utility.yul\":23619:23625   */\n      dup4\n        /* \"#utility.yul\":23612:23676   */\n      sstore\n        /* \"#utility.yul\":23534:23690   */\n      pop\n        /* \"#utility.yul\":23511:23690   */\n    tag_857:\n        /* \"#utility.yul\":23736:23737   */\n      0x01\n        /* \"#utility.yul\":23732:23733   */\n      0x02\n        /* \"#utility.yul\":23724:23730   */\n      dup9\n        /* \"#utility.yul\":23720:23734   */\n      mul\n        /* \"#utility.yul\":23716:23738   */\n      add\n        /* \"#utility.yul\":23710:23714   */\n      dup9\n        /* \"#utility.yul\":23703:23739   */\n      sstore\n        /* \"#utility.yul\":23138:23749   */\n      pop\n      pop\n      pop\n        /* \"#utility.yul\":23101:23988   */\n    tag_849:\n      pop\n        /* \"#utility.yul\":22691:23994   */\n      pop\n      pop\n      pop\n        /* \"#utility.yul\":22599:23994   */\n      pop\n      pop\n      jump\t// out\n        /* \"#utility.yul\":24000:24180   */\n    tag_191:\n        /* \"#utility.yul\":24048:24125   */\n      0x4e487b7100000000000000000000000000000000000000000000000000000000\n        /* \"#utility.yul\":24045:24046   */\n      0x00\n        /* \"#utility.yul\":24038:24126   */\n      mstore\n        /* \"#utility.yul\":24145:24149   */\n      0x32\n        /* \"#utility.yul\":24142:24143   */\n      0x04\n        /* \"#utility.yul\":24135:24150   */\n      mstore\n        /* \"#utility.yul\":24169:24173   */\n      0x24\n        /* \"#utility.yul\":24166:24167   */\n      0x00\n        /* \"#utility.yul\":24159:24174   */\n      revert\n        /* \"#utility.yul\":24186:24596   */\n    tag_204:\n        /* \"#utility.yul\":24226:24233   */\n      0x00\n        /* \"#utility.yul\":24249:24269   */\n      tag_861\n        /* \"#utility.yul\":24267:24268   */\n      dup3\n        /* \"#utility.yul\":24249:24269   */\n      tag_507\n      jump\t// in\n    tag_861:\n        /* \"#utility.yul\":24244:24269   */\n      swap2\n      pop\n        /* \"#utility.yul\":24283:24303   */\n      tag_862\n        /* \"#utility.yul\":24301:24302   */\n      dup4\n        /* \"#utility.yul\":24283:24303   */\n      tag_507\n      jump\t// in\n    tag_862:\n        /* \"#utility.yul\":24278:24303   */\n      swap3\n      pop\n        /* \"#utility.yul\":24338:24339   */\n      dup3\n        /* \"#utility.yul\":24335:24336   */\n      dup3\n        /* \"#utility.yul\":24331:24340   */\n      mul\n        /* \"#utility.yul\":24360:24390   */\n      tag_863\n        /* \"#utility.yul\":24378:24389   */\n      dup2\n        /* \"#utility.yul\":24360:24390   */\n      tag_507\n      jump\t// in\n    tag_863:\n        /* \"#utility.yul\":24349:24390   */\n      swap2\n      pop\n        /* \"#utility.yul\":24539:24540   */\n      dup3\n        /* \"#utility.yul\":24530:24537   */\n      dup3\n        /* \"#utility.yul\":24526:24541   */\n      div\n        /* \"#utility.yul\":24523:24524   */\n      dup5\n        /* \"#utility.yul\":24520:24542   */\n      eq\n        /* \"#utility.yul\":24500:24501   */\n      dup4\n        /* \"#utility.yul\":24493:24502   */\n      iszero\n        /* \"#utility.yul\":24473:24556   */\n      or\n        /* \"#utility.yul\":24450:24589   */\n      tag_864\n      jumpi\n        /* \"#utility.yul\":24569:24587   */\n      tag_865\n      tag_547\n      jump\t// in\n    tag_865:\n        /* \"#utility.yul\":24450:24589   */\n    tag_864:\n        /* \"#utility.yul\":24234:24596   */\n      pop\n        /* \"#utility.yul\":24186:24596   */\n      swap3\n      swap2\n      pop\n      pop\n      jump\t// out\n        /* \"#utility.yul\":24602:24793   */\n    tag_213:\n        /* \"#utility.yul\":24642:24645   */\n      0x00\n        /* \"#utility.yul\":24661:24681   */\n      tag_867\n        /* \"#utility.yul\":24679:24680   */\n      dup3\n        /* \"#utility.yul\":24661:24681   */\n      tag_507\n      jump\t// in\n    tag_867:\n        /* \"#utility.yul\":24656:24681   */\n      swap2\n      pop\n        /* \"#utility.yul\":24695:24715   */\n      tag_868\n        /* \"#utility.yul\":24713:24714   */\n      dup4\n        /* \"#utility.yul\":24695:24715   */\n      tag_507\n      jump\t// in\n    tag_868:\n        /* \"#utility.yul\":24690:24715   */\n      swap3\n      pop\n        /* \"#utility.yul\":24738:24739   */\n      dup3\n        /* \"#utility.yul\":24735:24736   */\n      dup3\n        /* \"#utility.yul\":24731:24740   */\n      add\n        /* \"#utility.yul\":24724:24740   */\n      swap1\n      pop\n        /* \"#utility.yul\":24759:24762   */\n      dup1\n        /* \"#utility.yul\":24756:24757   */\n      dup3\n        /* \"#utility.yul\":24753:24763   */\n      gt\n        /* \"#utility.yul\":24750:24786   */\n      iszero\n      tag_869\n      jumpi\n        /* \"#utility.yul\":24766:24784   */\n      tag_870\n      tag_547\n      jump\t// in\n    tag_870:\n        /* \"#utility.yul\":24750:24786   */\n    tag_869:\n        /* \"#utility.yul\":24602:24793   */\n      swap3\n      swap2\n      pop\n      pop\n      jump\t// out\n        /* \"#utility.yul\":24799:24993   */\n    tag_220:\n        /* \"#utility.yul\":24839:24843   */\n      0x00\n        /* \"#utility.yul\":24859:24879   */\n      tag_872\n        /* \"#utility.yul\":24877:24878   */\n      dup3\n        /* \"#utility.yul\":24859:24879   */\n      tag_507\n      jump\t// in\n    tag_872:\n        /* \"#utility.yul\":24854:24879   */\n      swap2\n      pop\n        /* \"#utility.yul\":24893:24913   */\n      tag_873\n        /* \"#utility.yul\":24911:24912   */\n      dup4\n        /* \"#utility.yul\":24893:24913   */\n      tag_507\n      jump\t// in\n    tag_873:\n        /* \"#utility.yul\":24888:24913   */\n      swap3\n      pop\n        /* \"#utility.yul\":24937:24938   */\n      dup3\n        /* \"#utility.yul\":24934:24935   */\n      dup3\n        /* \"#utility.yul\":24930:24939   */\n      sub\n        /* \"#utility.yul\":24922:24939   */\n      swap1\n      pop\n        /* \"#utility.yul\":24961:24962   */\n      dup2\n        /* \"#utility.yul\":24955:24959   */\n      dup2\n        /* \"#utility.yul\":24952:24963   */\n      gt\n        /* \"#utility.yul\":24949:24986   */\n      iszero\n      tag_874\n      jumpi\n        /* \"#utility.yul\":24966:24984   */\n      tag_875\n      tag_547\n      jump\t// in\n    tag_875:\n        /* \"#utility.yul\":24949:24986   */\n    tag_874:\n        /* \"#utility.yul\":24799:24993   */\n      swap3\n      swap2\n      pop\n      pop\n      jump\t// out\n        /* \"#utility.yul\":24999:25085   */\n    tag_564:\n        /* \"#utility.yul\":25034:25041   */\n      0x00\n        /* \"#utility.yul\":25074:25078   */\n      0xff\n        /* \"#utility.yul\":25067:25072   */\n      dup3\n        /* \"#utility.yul\":25063:25079   */\n      and\n        /* \"#utility.yul\":25052:25079   */\n      swap1\n      pop\n        /* \"#utility.yul\":24999:25085   */\n      swap2\n      swap1\n      pop\n      jump\t// out\n        /* \"#utility.yul\":25091:25282   */\n    tag_264:\n        /* \"#utility.yul\":25129:25133   */\n      0x00\n        /* \"#utility.yul\":25149:25167   */\n      tag_878\n        /* \"#utility.yul\":25165:25166   */\n      dup3\n        /* \"#utility.yul\":25149:25167   */\n      tag_564\n      jump\t// in\n    tag_878:\n        /* \"#utility.yul\":25144:25167   */\n      swap2\n      pop\n        /* \"#utility.yul\":25181:25199   */\n      tag_879\n        /* \"#utility.yul\":25197:25198   */\n      dup4\n        /* \"#utility.yul\":25181:25199   */\n      tag_564\n      jump\t// in\n    tag_879:\n        /* \"#utility.yul\":25176:25199   */\n      swap3\n      pop\n        /* \"#utility.yul\":25223:25224   */\n      dup3\n        /* \"#utility.yul\":25220:25221   */\n      dup3\n        /* \"#utility.yul\":25216:25225   */\n      sub\n        /* \"#utility.yul\":25208:25225   */\n      swap1\n      pop\n        /* \"#utility.yul\":25247:25251   */\n      0xff\n        /* \"#utility.yul\":25241:25245   */\n      dup2\n        /* \"#utility.yul\":25238:25252   */\n      gt\n        /* \"#utility.yul\":25235:25275   */\n      iszero\n      tag_880\n      jumpi\n        /* \"#utility.yul\":25255:25273   */\n      tag_881\n      tag_547\n      jump\t// in\n    tag_881:\n        /* \"#utility.yul\":25235:25275   */\n    tag_880:\n        /* \"#utility.yul\":25091:25282   */\n      swap3\n      swap2\n      pop\n      pop\n      jump\t// out\n        /* \"#utility.yul\":25288:25521   */\n    tag_268:\n        /* \"#utility.yul\":25327:25330   */\n      0x00\n        /* \"#utility.yul\":25350:25374   */\n      tag_883\n        /* \"#utility.yul\":25368:25373   */\n      dup3\n        /* \"#utility.yul\":25350:25374   */\n      tag_507\n      jump\t// in\n    tag_883:\n        /* \"#utility.yul\":25341:25374   */\n      swap2\n      pop\n        /* \"#utility.yul\":25396:25462   */\n      0xffffffffffffffffffffffffffffffffffffffffffffffffffffffffffffffff\n        /* \"#utility.yul\":25389:25394   */\n      dup3\n        /* \"#utility.yul\":25386:25463   */\n      sub\n        /* \"#utility.yul\":25383:25486   */\n      tag_884\n      jumpi\n        /* \"#utility.yul\":25466:25484   */\n      tag_885\n      tag_547\n      jump\t// in\n    tag_885:\n        /* \"#utility.yul\":25383:25486   */\n    tag_884:\n        /* \"#utility.yul\":25513:25514   */\n      0x01\n        /* \"#utility.yul\":25506:25511   */\n      dup3\n        /* \"#utility.yul\":25502:25515   */\n      add\n        /* \"#utility.yul\":25495:25515   */\n      swap1\n      pop\n        /* \"#utility.yul\":25288:25521   */\n      swap2\n      swap1\n      pop\n      jump\t// out\n        /* \"#utility.yul\":25527:25752   */\n    tag_565:\n        /* \"#utility.yul\":25667:25701   */\n      0x507572636861736520616d6f756e74206d757374206265206772656174657220\n        /* \"#utility.yul\":25663:25664   */\n      0x00\n        /* \"#utility.yul\":25655:25661   */\n      dup3\n        /* \"#utility.yul\":25651:25665   */\n      add\n        /* \"#utility.yul\":25644:25702   */\n      mstore\n        /* \"#utility.yul\":25736:25744   */\n      0x7468616e20300000000000000000000000000000000000000000000000000000\n        /* \"#utility.yul\":25731:25733   */\n      0x20\n        /* \"#utility.yul\":25723:25729   */\n      dup3\n        /* \"#utility.yul\":25719:25734   */\n      add\n        /* \"#utility.yul\":25712:25745   */\n      mstore\n        /* \"#utility.yul\":25527:25752   */\n      pop\n      jump\t// out\n        /* \"#utility.yul\":25758:26124   */\n    tag_566:\n        /* \"#utility.yul\":25900:25903   */\n      0x00\n        /* \"#utility.yul\":25921:25988   */\n      tag_888\n        /* \"#utility.yul\":25985:25987   */\n      0x26\n        /* \"#utility.yul\":25980:25983   */\n      dup4\n        /* \"#utility.yul\":25921:25988   */\n      tag_522\n      jump\t// in\n    tag_888:\n        /* \"#utility.yul\":25914:25988   */\n      swap2\n      pop\n        /* \"#utility.yul\":25997:26090   */\n      tag_889\n        /* \"#utility.yul\":26086:26089   */\n      dup3\n        /* \"#utility.yul\":25997:26090   */\n      tag_565\n      jump\t// in\n    tag_889:\n        /* \"#utility.yul\":26115:26117   */\n      0x40\n        /* \"#utility.yul\":26110:26113   */\n      dup3\n        /* \"#utility.yul\":26106:26118   */\n      add\n        /* \"#utility.yul\":26099:26118   */\n      swap1\n      pop\n        /* \"#utility.yul\":25758:26124   */\n      swap2\n      swap1\n      pop\n      jump\t// out\n        /* \"#utility.yul\":26130:26549   */\n    tag_288:\n        /* \"#utility.yul\":26296:26300   */\n      0x00\n        /* \"#utility.yul\":26334:26336   */\n      0x20\n        /* \"#utility.yul\":26323:26332   */\n      dup3\n        /* \"#utility.yul\":26319:26337   */\n      add\n        /* \"#utility.yul\":26311:26337   */\n      swap1\n      pop\n        /* \"#utility.yul\":26383:26392   */\n      dup2\n        /* \"#utility.yul\":26377:26381   */\n      dup2\n        /* \"#utility.yul\":26373:26393   */\n      sub\n        /* \"#utility.yul\":26369:26370   */\n      0x00\n        /* \"#utility.yul\":26358:26367   */\n      dup4\n        /* \"#utility.yul\":26354:26371   */\n      add\n        /* \"#utility.yul\":26347:26394   */\n      mstore\n        /* \"#utility.yul\":26411:26542   */\n      tag_891\n        /* \"#utility.yul\":26537:26541   */\n      dup2\n        /* \"#utility.yul\":26411:26542   */\n      tag_566\n      jump\t// in\n    tag_891:\n        /* \"#utility.yul\":26403:26542   */\n      swap1\n      pop\n        /* \"#utility.yul\":26130:26549   */\n      swap2\n      swap1\n      pop\n      jump\t// out\n        /* \"#utility.yul\":26555:26723   */\n    tag_567:\n        /* \"#utility.yul\":26695:26715   */\n      0x496e76616c69642070726f647563742049440000000000000000000000000000\n        /* \"#utility.yul\":26691:26692   */\n      0x00\n        /* \"#utility.yul\":26683:26689   */\n      dup3\n        /* \"#utility.yul\":26679:26693   */\n      add\n        /* \"#utility.yul\":26672:26716   */\n      mstore\n        /* \"#utility.yul\":26555:26723   */\n      pop\n      jump\t// out\n        /* \"#utility.yul\":26729:27095   */\n    tag_568:\n        /* \"#utility.yul\":26871:26874   */\n      0x00\n        /* \"#utility.yul\":26892:26959   */\n      tag_894\n        /* \"#utility.yul\":26956:26958   */\n      0x12\n        /* \"#utility.yul\":26951:26954   */\n      dup4\n        /* \"#utility.yul\":26892:26959   */\n      tag_522\n      jump\t// in\n    tag_894:\n        /* \"#utility.yul\":26885:26959   */\n      swap2\n      pop\n        /* \"#utility.yul\":26968:27061   */\n      tag_895\n        /* \"#utility.yul\":27057:27060   */\n      dup3\n        /* \"#utility.yul\":26968:27061   */\n      tag_567\n      jump\t// in\n    tag_895:\n        /* \"#utility.yul\":27086:27088   */\n      0x20\n        /* \"#utility.yul\":27081:27084   */\n      dup3\n        /* \"#utility.yul\":27077:27089   */\n      add\n        /* \"#utility.yul\":27070:27089   */\n      swap1\n      pop\n        /* \"#utility.yul\":26729:27095   */\n      swap2\n      swap1\n      pop\n      jump\t// out\n        /* \"#utility.yul\":27101:27520   */\n    tag_291:\n        /* \"#utility.yul\":27267:27271   */\n      0x00\n        /* \"#utility.yul\":27305:27307   */\n      0x20\n        /* \"#utility.yul\":27294:27303   */\n      dup3\n        /* \"#utility.yul\":27290:27308   */\n      add\n        /* \"#utility.yul\":27282:27308   */\n      swap1\n      pop\n        /* \"#utility.yul\":27354:27363   */\n      dup2\n        /* \"#utility.yul\":27348:27352   */\n      dup2\n        /* \"#utility.yul\":27344:27364   */\n      sub\n        /* \"#utility.yul\":27340:27341   */\n      0x00\n        /* \"#utility.yul\":27329:27338   */\n      dup4\n        /* \"#utility.yul\":27325:27342   */\n      add\n        /* \"#utility.yul\":27318:27365   */\n      mstore\n        /* \"#utility.yul\":27382:27513   */\n      tag_897\n        /* \"#utility.yul\":27508:27512   */\n      dup2\n        /* \"#utility.yul\":27382:27513   */\n      tag_568\n      jump\t// in\n    tag_897:\n        /* \"#utility.yul\":27374:27513   */\n      swap1\n      pop\n        /* \"#utility.yul\":27101:27520   */\n      swap2\n      swap1\n      pop\n      jump\t// out\n        /* \"#utility.yul\":27526:27705   */\n    tag_569:\n        /* \"#utility.yul\":27694:27698   */\n      0x4141000000000000000000000000000000000000000000000000000000000000\n        /* \"#utility.yul\":27689:27692   */\n      dup2\n        /* \"#utility.yul\":27682:27699   */\n      mstore\n        /* \"#utility.yul\":27526:27705   */\n      pop\n      jump\t// out\n        /* \"#utility.yul\":27711:27859   */\n    tag_570:\n        /* \"#utility.yul\":27813:27824   */\n      0x00\n        /* \"#utility.yul\":27850:27853   */\n      dup2\n        /* \"#utility.yul\":27835:27853   */\n      swap1\n      pop\n        /* \"#utility.yul\":27711:27859   */\n      swap3\n      swap2\n      pop\n      pop\n      jump\t// out\n        /* \"#utility.yul\":27865:28255   */\n    tag_571:\n        /* \"#utility.yul\":27971:27974   */\n      0x00\n        /* \"#utility.yul\":27999:28038   */\n      tag_901\n        /* \"#utility.yul\":28032:28037   */\n      dup3\n        /* \"#utility.yul\":27999:28038   */\n      tag_521\n      jump\t// in\n    tag_901:\n        /* \"#utility.yul\":28054:28143   */\n      tag_902\n        /* \"#utility.yul\":28136:28142   */\n      dup2\n        /* \"#utility.yul\":28131:28134   */\n      dup6\n        /* \"#utility.yul\":28054:28143   */\n      tag_570\n      jump\t// in\n    tag_902:\n        /* \"#utility.yul\":28047:28143   */\n      swap4\n      pop\n        /* \"#utility.yul\":28152:28217   */\n      tag_903\n        /* \"#utility.yul\":28210:28216   */\n      dup2\n        /* \"#utility.yul\":28205:28208   */\n      dup6\n        /* \"#utility.yul\":28198:28202   */\n      0x20\n        /* \"#utility.yul\":28191:28196   */\n      dup7\n        /* \"#utility.yul\":28187:28203   */\n      add\n        /* \"#utility.yul\":28152:28217   */\n      tag_523\n      jump\t// in\n    tag_903:\n        /* \"#utility.yul\":28242:28248   */\n      dup1\n        /* \"#utility.yul\":28237:28240   */\n      dup5\n        /* \"#utility.yul\":28233:28249   */\n      add\n        /* \"#utility.yul\":28226:28249   */\n      swap2\n      pop\n        /* \"#utility.yul\":27975:28255   */\n      pop\n        /* \"#utility.yul\":27865:28255   */\n      swap3\n      swap2\n      pop\n      pop\n      jump\t// out\n        /* \"#utility.yul\":28261:28440   */\n    tag_572:\n        /* \"#utility.yul\":28429:28433   */\n      0x4242000000000000000000000000000000000000000000000000000000000000\n        /* \"#utility.yul\":28424:28427   */\n      dup2\n        /* \"#utility.yul\":28417:28434   */\n      mstore\n        /* \"#utility.yul\":28261:28440   */\n      pop\n      jump\t// out\n        /* \"#utility.yul\":28446:29249   */\n    tag_301:\n        /* \"#utility.yul\":28758:28761   */\n      0x00\n        /* \"#utility.yul\":28773:28910   */\n      tag_906\n        /* \"#utility.yul\":28906:28909   */\n      dup3\n        /* \"#utility.yul\":28773:28910   */\n      tag_569\n      jump\t// in\n    tag_906:\n        /* \"#utility.yul\":28935:28936   */\n      0x02\n        /* \"#utility.yul\":28930:28933   */\n      dup3\n        /* \"#utility.yul\":28926:28937   */\n      add\n        /* \"#utility.yul\":28919:28937   */\n      swap2\n      pop\n        /* \"#utility.yul\":28954:29049   */\n      tag_907\n        /* \"#utility.yul\":29045:29048   */\n      dup3\n        /* \"#utility.yul\":29036:29042   */\n      dup5\n        /* \"#utility.yul\":28954:29049   */\n      tag_571\n      jump\t// in\n    tag_907:\n        /* \"#utility.yul\":28947:29049   */\n      swap2\n      pop\n        /* \"#utility.yul\":29059:29196   */\n      tag_908\n        /* \"#utility.yul\":29192:29195   */\n      dup3\n        /* \"#utility.yul\":29059:29196   */\n      tag_572\n      jump\t// in\n    tag_908:\n        /* \"#utility.yul\":29221:29222   */\n      0x02\n        /* \"#utility.yul\":29216:29219   */\n      dup3\n        /* \"#utility.yul\":29212:29223   */\n      add\n        /* \"#utility.yul\":29205:29223   */\n      swap2\n      pop\n        /* \"#utility.yul\":29240:29243   */\n      dup2\n        /* \"#utility.yul\":29233:29243   */\n      swap1\n      pop\n        /* \"#utility.yul\":28446:29249   */\n      swap3\n      swap2\n      pop\n      pop\n      jump\t// out\n        /* \"#utility.yul\":29255:29334   */\n    tag_573:\n        /* \"#utility.yul\":29294:29301   */\n      0x00\n        /* \"#utility.yul\":29323:29328   */\n      dup2\n        /* \"#utility.yul\":29312:29328   */\n      swap1\n      pop\n        /* \"#utility.yul\":29255:29334   */\n      swap2\n      swap1\n      pop\n      jump\t// out\n        /* \"#utility.yul\":29340:29497   */\n    tag_574:\n        /* \"#utility.yul\":29445:29490   */\n      tag_911\n        /* \"#utility.yul\":29465:29489   */\n      tag_912\n        /* \"#utility.yul\":29483:29488   */\n      dup3\n        /* \"#utility.yul\":29465:29489   */\n      tag_507\n      jump\t// in\n    tag_912:\n        /* \"#utility.yul\":29445:29490   */\n      tag_573\n      jump\t// in\n    tag_911:\n        /* \"#utility.yul\":29440:29443   */\n      dup3\n        /* \"#utility.yul\":29433:29491   */\n      mstore\n        /* \"#utility.yul\":29340:29497   */\n      pop\n      pop\n      jump\t// out\n        /* \"#utility.yul\":29503:29597   */\n    tag_575:\n        /* \"#utility.yul\":29536:29544   */\n      0x00\n        /* \"#utility.yul\":29584:29589   */\n      dup2\n        /* \"#utility.yul\":29580:29582   */\n      0x60\n        /* \"#utility.yul\":29576:29590   */\n      shl\n        /* \"#utility.yul\":29555:29590   */\n      swap1\n      pop\n        /* \"#utility.yul\":29503:29597   */\n      swap2\n      swap1\n      pop\n      jump\t// out\n        /* \"#utility.yul\":29603:29697   */\n    tag_576:\n        /* \"#utility.yul\":29642:29649   */\n      0x00\n        /* \"#utility.yul\":29671:29691   */\n      tag_915\n        /* \"#utility.yul\":29685:29690   */\n      dup3\n        /* \"#utility.yul\":29671:29691   */\n      tag_575\n      jump\t// in\n    tag_915:\n        /* \"#utility.yul\":29660:29691   */\n      swap1\n      pop\n        /* \"#utility.yul\":29603:29697   */\n      swap2\n      swap1\n      pop\n      jump\t// out\n        /* \"#utility.yul\":29703:29803   */\n    tag_577:\n        /* \"#utility.yul\":29742:29749   */\n      0x00\n        /* \"#utility.yul\":29771:29797   */\n      tag_917\n        /* \"#utility.yul\":29791:29796   */\n      dup3\n        /* \"#utility.yul\":29771:29797   */\n      tag_576\n      jump\t// in\n    tag_917:\n        /* \"#utility.yul\":29760:29797   */\n      swap1\n      pop\n        /* \"#utility.yul\":29703:29803   */\n      swap2\n      swap1\n      pop\n      jump\t// out\n        /* \"#utility.yul\":29809:29966   */\n    tag_578:\n        /* \"#utility.yul\":29914:29959   */\n      tag_919\n        /* \"#utility.yul\":29934:29958   */\n      tag_920\n        /* \"#utility.yul\":29952:29957   */\n      dup3\n        /* \"#utility.yul\":29934:29958   */\n      tag_515\n      jump\t// in\n    tag_920:\n        /* \"#utility.yul\":29914:29959   */\n      tag_577\n      jump\t// in\n    tag_919:\n        /* \"#utility.yul\":29909:29912   */\n      dup3\n        /* \"#utility.yul\":29902:29960   */\n      mstore\n        /* \"#utility.yul\":29809:29966   */\n      pop\n      pop\n      jump\t// out\n        /* \"#utility.yul\":29972:30510   */\n    tag_312:\n        /* \"#utility.yul\":30140:30143   */\n      0x00\n        /* \"#utility.yul\":30155:30230   */\n      tag_922\n        /* \"#utility.yul\":30226:30229   */\n      dup3\n        /* \"#utility.yul\":30217:30223   */\n      dup7\n        /* \"#utility.yul\":30155:30230   */\n      tag_574\n      jump\t// in\n    tag_922:\n        /* \"#utility.yul\":30255:30257   */\n      0x20\n        /* \"#utility.yul\":30250:30253   */\n      dup3\n        /* \"#utility.yul\":30246:30258   */\n      add\n        /* \"#utility.yul\":30239:30258   */\n      swap2\n      pop\n        /* \"#utility.yul\":30268:30343   */\n      tag_923\n        /* \"#utility.yul\":30339:30342   */\n      dup3\n        /* \"#utility.yul\":30330:30336   */\n      dup6\n        /* \"#utility.yul\":30268:30343   */\n      tag_578\n      jump\t// in\n    tag_923:\n        /* \"#utility.yul\":30368:30370   */\n      0x14\n        /* \"#utility.yul\":30363:30366   */\n      dup3\n        /* \"#utility.yul\":30359:30371   */\n      add\n        /* \"#utility.yul\":30352:30371   */\n      swap2\n      pop\n        /* \"#utility.yul\":30381:30456   */\n      tag_924\n        /* \"#utility.yul\":30452:30455   */\n      dup3\n        /* \"#utility.yul\":30443:30449   */\n      dup5\n        /* \"#utility.yul\":30381:30456   */\n      tag_574\n      jump\t// in\n    tag_924:\n        /* \"#utility.yul\":30481:30483   */\n      0x20\n        /* \"#utility.yul\":30476:30479   */\n      dup3\n        /* \"#utility.yul\":30472:30484   */\n      add\n        /* \"#utility.yul\":30465:30484   */\n      swap2\n      pop\n        /* \"#utility.yul\":30501:30504   */\n      dup2\n        /* \"#utility.yul\":30494:30504   */\n      swap1\n      pop\n        /* \"#utility.yul\":29972:30510   */\n      swap5\n      swap4\n      pop\n      pop\n      pop\n      pop\n      jump\t// out\n        /* \"#utility.yul\":30516:30692   */\n    tag_314:\n        /* \"#utility.yul\":30548:30549   */\n      0x00\n        /* \"#utility.yul\":30565:30585   */\n      tag_926\n        /* \"#utility.yul\":30583:30584   */\n      dup3\n        /* \"#utility.yul\":30565:30585   */\n      tag_507\n      jump\t// in\n    tag_926:\n        /* \"#utility.yul\":30560:30585   */\n      swap2\n      pop\n        /* \"#utility.yul\":30599:30619   */\n      tag_927\n        /* \"#utility.yul\":30617:30618   */\n      dup4\n        /* \"#utility.yul\":30599:30619   */\n      tag_507\n      jump\t// in\n    tag_927:\n        /* \"#utility.yul\":30594:30619   */\n      swap3\n      pop\n        /* \"#utility.yul\":30638:30639   */\n      dup3\n        /* \"#utility.yul\":30628:30663   */\n      tag_928\n      jumpi\n        /* \"#utility.yul\":30643:30661   */\n      tag_929\n      tag_546\n      jump\t// in\n    tag_929:\n        /* \"#utility.yul\":30628:30663   */\n    tag_928:\n        /* \"#utility.yul\":30684:30685   */\n      dup3\n        /* \"#utility.yul\":30681:30682   */\n      dup3\n        /* \"#utility.yul\":30677:30686   */\n      mod\n        /* \"#utility.yul\":30672:30686   */\n      swap1\n      pop\n        /* \"#utility.yul\":30516:30692   */\n      swap3\n      swap2\n      pop\n      pop\n      jump\t// out\n        /* \"#utility.yul\":30698:31114   */\n    tag_579:\n        /* \"#utility.yul\":30838:30904   */\n      0xd092d0b0d188d0b020d180d0bed0bbd18c20d0bdd0b520d0bfd0bed0b7d0b2d0\n        /* \"#utility.yul\":30834:30835   */\n      0x00\n        /* \"#utility.yul\":30826:30832   */\n      dup3\n        /* \"#utility.yul\":30822:30836   */\n      add\n        /* \"#utility.yul\":30815:30905   */\n      mstore\n        /* \"#utility.yul\":30939:31005   */\n      0xbed0bbd18fd0b5d18220d18dd182d0be20d0b8d0b7d0bcd0b5d0bdd18fd182d1\n        /* \"#utility.yul\":30934:30936   */\n      0x20\n        /* \"#utility.yul\":30926:30932   */\n      dup3\n        /* \"#utility.yul\":30922:30937   */\n      add\n        /* \"#utility.yul\":30915:31006   */\n      mstore\n        /* \"#utility.yul\":31040:31106   */\n      0x8c00000000000000000000000000000000000000000000000000000000000000\n        /* \"#utility.yul\":31035:31037   */\n      0x40\n        /* \"#utility.yul\":31027:31033   */\n      dup3\n        /* \"#utility.yul\":31023:31038   */\n      add\n        /* \"#utility.yul\":31016:31107   */\n      mstore\n        /* \"#utility.yul\":30698:31114   */\n      pop\n      jump\t// out\n        /* \"#utility.yul\":31120:31486   */\n    tag_580:\n        /* \"#utility.yul\":31262:31265   */\n      0x00\n        /* \"#utility.yul\":31283:31350   */\n      tag_932\n        /* \"#utility.yul\":31347:31349   */\n      0x41\n        /* \"#utility.yul\":31342:31345   */\n      dup4\n        /* \"#utility.yul\":31283:31350   */\n      tag_522\n      jump\t// in\n    tag_932:\n        /* \"#utility.yul\":31276:31350   */\n      swap2\n      pop\n        /* \"#utility.yul\":31359:31452   */\n      tag_933\n        /* \"#utility.yul\":31448:31451   */\n      dup3\n        /* \"#utility.yul\":31359:31452   */\n      tag_579\n      jump\t// in\n    tag_933:\n        /* \"#utility.yul\":31477:31479   */\n      0x60\n        /* \"#utility.yul\":31472:31475   */\n      dup3\n        /* \"#utility.yul\":31468:31480   */\n      add\n        /* \"#utility.yul\":31461:31480   */\n      swap1\n      pop\n        /* \"#utility.yul\":31120:31486   */\n      swap2\n      swap1\n      pop\n      jump\t// out\n        /* \"#utility.yul\":31492:31911   */\n    tag_322:\n        /* \"#utility.yul\":31658:31662   */\n      0x00\n        /* \"#utility.yul\":31696:31698   */\n      0x20\n        /* \"#utility.yul\":31685:31694   */\n      dup3\n        /* \"#utility.yul\":31681:31699   */\n      add\n        /* \"#utility.yul\":31673:31699   */\n      swap1\n      pop\n        /* \"#utility.yul\":31745:31754   */\n      dup2\n        /* \"#utility.yul\":31739:31743   */\n      dup2\n        /* \"#utility.yul\":31735:31755   */\n      sub\n        /* \"#utility.yul\":31731:31732   */\n      0x00\n        /* \"#utility.yul\":31720:31729   */\n      dup4\n        /* \"#utility.yul\":31716:31733   */\n      add\n        /* \"#utility.yul\":31709:31756   */\n      mstore\n        /* \"#utility.yul\":31773:31904   */\n      tag_935\n        /* \"#utility.yul\":31899:31903   */\n      dup2\n        /* \"#utility.yul\":31773:31904   */\n      tag_580\n      jump\t// in\n    tag_935:\n        /* \"#utility.yul\":31765:31904   */\n      swap1\n      pop\n        /* \"#utility.yul\":31492:31911   */\n      swap2\n      swap1\n      pop\n      jump\t// out\n        /* \"#utility.yul\":31917:32333   */\n    tag_581:\n        /* \"#utility.yul\":32057:32123   */\n      0xd09cd0b0d0b3d0b0d0b7d0b8d0bd20d0bdd0b520d181d0bed0bed182d0b2d0b5\n        /* \"#utility.yul\":32053:32054   */\n      0x00\n        /* \"#utility.yul\":32045:32051   */\n      dup3\n        /* \"#utility.yul\":32041:32055   */\n      add\n        /* \"#utility.yul\":32034:32124   */\n      mstore\n        /* \"#utility.yul\":32158:32224   */\n      0xd182d181d0b2d183d0b5d18220d0bed182d0bfd180d0b0d0b2d0b8d182d0b5d0\n        /* \"#utility.yul\":32153:32155   */\n      0x20\n        /* \"#utility.yul\":32145:32151   */\n      dup3\n        /* \"#utility.yul\":32141:32156   */\n      add\n        /* \"#utility.yul\":32134:32225   */\n      mstore\n        /* \"#utility.yul\":32259:32325   */\n      0xbbd18e0000000000000000000000000000000000000000000000000000000000\n        /* \"#utility.yul\":32254:32256   */\n      0x40\n        /* \"#utility.yul\":32246:32252   */\n      dup3\n        /* \"#utility.yul\":32242:32257   */\n      add\n        /* \"#utility.yul\":32235:32326   */\n      mstore\n        /* \"#utility.yul\":31917:32333   */\n      pop\n      jump\t// out\n        /* \"#utility.yul\":32339:32705   */\n    tag_582:\n        /* \"#utility.yul\":32481:32484   */\n      0x00\n        /* \"#utility.yul\":32502:32569   */\n      tag_938\n        /* \"#utility.yul\":32566:32568   */\n      0x43\n        /* \"#utility.yul\":32561:32564   */\n      dup4\n        /* \"#utility.yul\":32502:32569   */\n      tag_522\n      jump\t// in\n    tag_938:\n        /* \"#utility.yul\":32495:32569   */\n      swap2\n      pop\n        /* \"#utility.yul\":32578:32671   */\n      tag_939\n        /* \"#utility.yul\":32667:32670   */\n      dup3\n        /* \"#utility.yul\":32578:32671   */\n      tag_581\n      jump\t// in\n    tag_939:\n        /* \"#utility.yul\":32696:32698   */\n      0x60\n        /* \"#utility.yul\":32691:32694   */\n      dup3\n        /* \"#utility.yul\":32687:32699   */\n      add\n        /* \"#utility.yul\":32680:32699   */\n      swap1\n      pop\n        /* \"#utility.yul\":32339:32705   */\n      swap2\n      swap1\n      pop\n      jump\t// out\n        /* \"#utility.yul\":32711:33130   */\n    tag_325:\n        /* \"#utility.yul\":32877:32881   */\n      0x00\n        /* \"#utility.yul\":32915:32917   */\n      0x20\n        /* \"#utility.yul\":32904:32913   */\n      dup3\n        /* \"#utility.yul\":32900:32918   */\n      add\n        /* \"#utility.yul\":32892:32918   */\n      swap1\n      pop\n        /* \"#utility.yul\":32964:32973   */\n      dup2\n        /* \"#utility.yul\":32958:32962   */\n      dup2\n        /* \"#utility.yul\":32954:32974   */\n      sub\n        /* \"#utility.yul\":32950:32951   */\n      0x00\n        /* \"#utility.yul\":32939:32948   */\n      dup4\n        /* \"#utility.yul\":32935:32952   */\n      add\n        /* \"#utility.yul\":32928:32975   */\n      mstore\n        /* \"#utility.yul\":32992:33123   */\n      tag_941\n        /* \"#utility.yul\":33118:33122   */\n      dup2\n        /* \"#utility.yul\":32992:33123   */\n      tag_582\n      jump\t// in\n    tag_941:\n        /* \"#utility.yul\":32984:33123   */\n      swap1\n      pop\n        /* \"#utility.yul\":32711:33130   */\n      swap2\n      swap1\n      pop\n      jump\t// out\n        /* \"#utility.yul\":33136:33312   */\n    tag_583:\n        /* \"#utility.yul\":33276:33304   */\n      0x4e6f7420656e6f7567682073746f636b20617661696c61626c65000000000000\n        /* \"#utility.yul\":33272:33273   */\n      0x00\n        /* \"#utility.yul\":33264:33270   */\n      dup3\n        /* \"#utility.yul\":33260:33274   */\n      add\n        /* \"#utility.yul\":33253:33305   */\n      mstore\n        /* \"#utility.yul\":33136:33312   */\n      pop\n      jump\t// out\n        /* \"#utility.yul\":33318:33684   */\n    tag_584:\n        /* \"#utility.yul\":33460:33463   */\n      0x00\n        /* \"#utility.yul\":33481:33548   */\n      tag_944\n        /* \"#utility.yul\":33545:33547   */\n      0x1a\n        /* \"#utility.yul\":33540:33543   */\n      dup4\n        /* \"#utility.yul\":33481:33548   */\n      tag_522\n      jump\t// in\n    tag_944:\n        /* \"#utility.yul\":33474:33548   */\n      swap2\n      pop\n        /* \"#utility.yul\":33557:33650   */\n      tag_945\n        /* \"#utility.yul\":33646:33649   */\n      dup3\n        /* \"#utility.yul\":33557:33650   */\n      tag_583\n      jump\t// in\n    tag_945:\n        /* \"#utility.yul\":33675:33677   */\n      0x20\n        /* \"#utility.yul\":33670:33673   */\n      dup3\n        /* \"#utility.yul\":33666:33678   */\n      add\n        /* \"#utility.yul\":33659:33678   */\n      swap1\n      pop\n        /* \"#utility.yul\":33318:33684   */\n      swap2\n      swap1\n      pop\n      jump\t// out\n        /* \"#utility.yul\":33690:34109   */\n    tag_349:\n        /* \"#utility.yul\":33856:33860   */\n      0x00\n        /* \"#utility.yul\":33894:33896   */\n      0x20\n        /* \"#utility.yul\":33883:33892   */\n      dup3\n        /* \"#utility.yul\":33879:33897   */\n      add\n        /* \"#utility.yul\":33871:33897   */\n      swap1\n      pop\n        /* \"#utility.yul\":33943:33952   */\n      dup2\n        /* \"#utility.yul\":33937:33941   */\n      dup2\n        /* \"#utility.yul\":33933:33953   */\n      sub\n        /* \"#utility.yul\":33929:33930   */\n      0x00\n        /* \"#utility.yul\":33918:33927   */\n      dup4\n        /* \"#utility.yul\":33914:33931   */\n      add\n        /* \"#utility.yul\":33907:33954   */\n      mstore\n        /* \"#utility.yul\":33971:34102   */\n      tag_947\n        /* \"#utility.yul\":34097:34101   */\n      dup2\n        /* \"#utility.yul\":33971:34102   */\n      tag_584\n      jump\t// in\n    tag_947:\n        /* \"#utility.yul\":33963:34102   */\n      swap1\n      pop\n        /* \"#utility.yul\":33690:34109   */\n      swap2\n      swap1\n      pop\n      jump\t// out\n        /* \"#utility.yul\":34115:34390   */\n    tag_356:\n        /* \"#utility.yul\":34247:34250   */\n      0x00\n        /* \"#utility.yul\":34269:34364   */\n      tag_949\n        /* \"#utility.yul\":34360:34363   */\n      dup3\n        /* \"#utility.yul\":34351:34357   */\n      dup5\n        /* \"#utility.yul\":34269:34364   */\n      tag_571\n      jump\t// in\n    tag_949:\n        /* \"#utility.yul\":34262:34364   */\n      swap2\n      pop\n        /* \"#utility.yul\":34381:34384   */\n      dup2\n        /* \"#utility.yul\":34374:34384   */\n      swap1\n      pop\n        /* \"#utility.yul\":34115:34390   */\n      swap3\n      swap2\n      pop\n      pop\n      jump\t// out\n        /* \"#utility.yul\":34396:34569   */\n    tag_585:\n        /* \"#utility.yul\":34536:34561   */\n      0x496e73756666696369656e742066756e64732073656e74000000000000000000\n        /* \"#utility.yul\":34532:34533   */\n      0x00\n        /* \"#utility.yul\":34524:34530   */\n      dup3\n        /* \"#utility.yul\":34520:34534   */\n      add\n        /* \"#utility.yul\":34513:34562   */\n      mstore\n        /* \"#utility.yul\":34396:34569   */\n      pop\n      jump\t// out\n        /* \"#utility.yul\":34575:34941   */\n    tag_586:\n        /* \"#utility.yul\":34717:34720   */\n      0x00\n        /* \"#utility.yul\":34738:34805   */\n      tag_952\n        /* \"#utility.yul\":34802:34804   */\n      0x17\n        /* \"#utility.yul\":34797:34800   */\n      dup4\n        /* \"#utility.yul\":34738:34805   */\n      tag_522\n      jump\t// in\n    tag_952:\n        /* \"#utility.yul\":34731:34805   */\n      swap2\n      pop\n        /* \"#utility.yul\":34814:34907   */\n      tag_953\n        /* \"#utility.yul\":34903:34906   */\n      dup3\n        /* \"#utility.yul\":34814:34907   */\n      tag_585\n      jump\t// in\n    tag_953:\n        /* \"#utility.yul\":34932:34934   */\n      0x20\n        /* \"#utility.yul\":34927:34930   */\n      dup3\n        /* \"#utility.yul\":34923:34935   */\n      add\n        /* \"#utility.yul\":34916:34935   */\n      swap1\n      pop\n        /* \"#utility.yul\":34575:34941   */\n      swap2\n      swap1\n      pop\n      jump\t// out\n        /* \"#utility.yul\":34947:35366   */\n    tag_363:\n        /* \"#utility.yul\":35113:35117   */\n      0x00\n        /* \"#utility.yul\":35151:35153   */\n      0x20\n        /* \"#utility.yul\":35140:35149   */\n      dup3\n        /* \"#utility.yul\":35136:35154   */\n      add\n        /* \"#utility.yul\":35128:35154   */\n      swap1\n      pop\n        /* \"#utility.yul\":35200:35209   */\n      dup2\n        /* \"#utility.yul\":35194:35198   */\n      dup2\n        /* \"#utility.yul\":35190:35210   */\n      sub\n        /* \"#utility.yul\":35186:35187   */\n      0x00\n        /* \"#utility.yul\":35175:35184   */\n      dup4\n        /* \"#utility.yul\":35171:35188   */\n      add\n        /* \"#utility.yul\":35164:35211   */\n      mstore\n        /* \"#utility.yul\":35228:35359   */\n      tag_955\n        /* \"#utility.yul\":35354:35358   */\n      dup2\n        /* \"#utility.yul\":35228:35359   */\n      tag_586\n      jump\t// in\n    tag_955:\n        /* \"#utility.yul\":35220:35359   */\n      swap1\n      pop\n        /* \"#utility.yul\":34947:35366   */\n      swap2\n      swap1\n      pop\n      jump\t// out\n        /* \"#utility.yul\":35372:35519   */\n    tag_587:\n        /* \"#utility.yul\":35473:35484   */\n      0x00\n        /* \"#utility.yul\":35510:35513   */\n      dup2\n        /* \"#utility.yul\":35495:35513   */\n      swap1\n      pop\n        /* \"#utility.yul\":35372:35519   */\n      swap3\n      swap2\n      pop\n      pop\n      jump\t// out\n        /* \"#utility.yul\":35525:35669   */\n    tag_588:\n        /* \"#utility.yul\":35577:35581   */\n      0x00\n        /* \"#utility.yul\":35600:35603   */\n      dup2\n        /* \"#utility.yul\":35592:35603   */\n      swap1\n      pop\n        /* \"#utility.yul\":35623:35626   */\n      dup2\n        /* \"#utility.yul\":35620:35621   */\n      0x00\n        /* \"#utility.yul\":35613:35627   */\n      mstore\n        /* \"#utility.yul\":35657:35661   */\n      0x20\n        /* \"#utility.yul\":35654:35655   */\n      0x00\n        /* \"#utility.yul\":35644:35662   */\n      keccak256\n        /* \"#utility.yul\":35636:35662   */\n      swap1\n      pop\n        /* \"#utility.yul\":35525:35669   */\n      swap2\n      swap1\n      pop\n      jump\t// out\n        /* \"#utility.yul\":35697:36575   */\n    tag_589:\n        /* \"#utility.yul\":35802:35805   */\n      0x00\n        /* \"#utility.yul\":35839:35844   */\n      dup2\n        /* \"#utility.yul\":35833:35845   */\n      sload\n        /* \"#utility.yul\":35868:35904   */\n      tag_959\n        /* \"#utility.yul\":35894:35903   */\n      dup2\n        /* \"#utility.yul\":35868:35904   */\n      tag_163\n      jump\t// in\n    tag_959:\n        /* \"#utility.yul\":35920:36008   */\n      tag_960\n        /* \"#utility.yul\":36001:36007   */\n      dup2\n        /* \"#utility.yul\":35996:35999   */\n      dup7\n        /* \"#utility.yul\":35920:36008   */\n      tag_587\n      jump\t// in\n    tag_960:\n        /* \"#utility.yul\":35913:36008   */\n      swap5\n      pop\n        /* \"#utility.yul\":36039:36040   */\n      0x01\n        /* \"#utility.yul\":36028:36037   */\n      dup3\n        /* \"#utility.yul\":36024:36041   */\n      and\n        /* \"#utility.yul\":36055:36056   */\n      0x00\n        /* \"#utility.yul\":36050:36216   */\n      dup2\n      eq\n      tag_962\n      jumpi\n        /* \"#utility.yul\":36230:36231   */\n      0x01\n        /* \"#utility.yul\":36225:36569   */\n      dup2\n      eq\n      tag_963\n      jumpi\n        /* \"#utility.yul\":36017:36569   */\n      jump(tag_961)\n        /* \"#utility.yul\":36050:36216   */\n    tag_962:\n        /* \"#utility.yul\":36134:36138   */\n      0xff\n        /* \"#utility.yul\":36130:36139   */\n      not\n        /* \"#utility.yul\":36119:36128   */\n      dup4\n        /* \"#utility.yul\":36115:36140   */\n      and\n        /* \"#utility.yul\":36110:36113   */\n      dup7\n        /* \"#utility.yul\":36103:36141   */\n      mstore\n        /* \"#utility.yul\":36196:36202   */\n      dup2\n        /* \"#utility.yul\":36189:36203   */\n      iszero\n        /* \"#utility.yul\":36182:36204   */\n      iszero\n        /* \"#utility.yul\":36174:36180   */\n      dup3\n        /* \"#utility.yul\":36170:36205   */\n      mul\n        /* \"#utility.yul\":36165:36168   */\n      dup7\n        /* \"#utility.yul\":36161:36206   */\n      add\n        /* \"#utility.yul\":36154:36206   */\n      swap4\n      pop\n        /* \"#utility.yul\":36050:36216   */\n      jump(tag_961)\n        /* \"#utility.yul\":36225:36569   */\n    tag_963:\n        /* \"#utility.yul\":36292:36333   */\n      tag_964\n        /* \"#utility.yul\":36327:36332   */\n      dup6\n        /* \"#utility.yul\":36292:36333   */\n      tag_588\n      jump\t// in\n    tag_964:\n        /* \"#utility.yul\":36355:36356   */\n      0x00\n        /* \"#utility.yul\":36369:36523   */\n    tag_965:\n        /* \"#utility.yul\":36383:36389   */\n      dup4\n        /* \"#utility.yul\":36380:36381   */\n      dup2\n        /* \"#utility.yul\":36377:36390   */\n      lt\n        /* \"#utility.yul\":36369:36523   */\n      iszero\n      tag_967\n      jumpi\n        /* \"#utility.yul\":36457:36464   */\n      dup2\n        /* \"#utility.yul\":36451:36465   */\n      sload\n        /* \"#utility.yul\":36447:36448   */\n      dup2\n        /* \"#utility.yul\":36442:36445   */\n      dup10\n        /* \"#utility.yul\":36438:36449   */\n      add\n        /* \"#utility.yul\":36431:36466   */\n      mstore\n        /* \"#utility.yul\":36507:36508   */\n      0x01\n        /* \"#utility.yul\":36498:36505   */\n      dup3\n        /* \"#utility.yul\":36494:36509   */\n      add\n        /* \"#utility.yul\":36483:36509   */\n      swap2\n      pop\n        /* \"#utility.yul\":36405:36409   */\n      0x20\n        /* \"#utility.yul\":36402:36403   */\n      dup2\n        /* \"#utility.yul\":36398:36410   */\n      add\n        /* \"#utility.yul\":36393:36410   */\n      swap1\n      pop\n        /* \"#utility.yul\":36369:36523   */\n      jump(tag_965)\n    tag_967:\n        /* \"#utility.yul\":36552:36558   */\n      dup4\n        /* \"#utility.yul\":36547:36550   */\n      dup9\n        /* \"#utility.yul\":36543:36559   */\n      add\n        /* \"#utility.yul\":36536:36559   */\n      swap6\n      pop\n        /* \"#utility.yul\":36232:36569   */\n      pop\n      pop\n        /* \"#utility.yul\":36017:36569   */\n    tag_961:\n      pop\n        /* \"#utility.yul\":35806:36575   */\n      pop\n      pop\n        /* \"#utility.yul\":35697:36575   */\n      swap3\n      swap2\n      pop\n      pop\n      jump\t// out\n        /* \"#utility.yul\":36581:36854   */\n    tag_371:\n        /* \"#utility.yul\":36712:36715   */\n      0x00\n        /* \"#utility.yul\":36734:36828   */\n      tag_969\n        /* \"#utility.yul\":36824:36827   */\n      dup3\n        /* \"#utility.yul\":36815:36821   */\n      dup5\n        /* \"#utility.yul\":36734:36828   */\n      tag_589\n      jump\t// in\n    tag_969:\n        /* \"#utility.yul\":36727:36828   */\n      swap2\n      pop\n        /* \"#utility.yul\":36845:36848   */\n      dup2\n        /* \"#utility.yul\":36838:36848   */\n      swap1\n      pop\n        /* \"#utility.yul\":36581:36854   */\n      swap3\n      swap2\n      pop\n      pop\n      jump\t// out\n\n    auxdata: 0xa26469706673582212205aeb2839dea43332d808b2d28a23ef8d4ebdcf7564caa0413464cfe4969d1bf264736f6c63430008150033\n}\n",
				"bytecode": {
					"linkReferences": {},
					"object": "608060405234801561000f575f80fd5b503360015f6101000a81548173ffffffffffffffffffffffffffffffffffffffff021916908373ffffffffffffffffffffffffffffffffffffffff1602179055506143028061005d5f395ff3fe608060405260043610610164575f3560e01c80636f764708116100d0578063a1ba90b611610089578063d55768dd11610063578063d55768dd14610523578063da76af311461055f578063f67a2ad11461057b578063fecd8f79146105a357610164565b8063a1ba90b6146104a8578063a87430ba146104d0578063d18a524a1461050d57610164565b80636f764708146103ae5780637555bf10146103d6578063805553e8146103fe578063861c2b6d1461043a5780638da5cb5b146104625780639f1cd5871461048c57610164565b80634bd4b507116101225780634bd4b5071461028f5780634f424547146102b757806350b44712146102f757806355dea0b31461033457806362dd748c1461035c57806366d0dc671461039857610164565b80628de16a146101685780631cc117211461019057806327b90b1b146101d15780633d527883146102115780633dfe7dee14610251578063410085df14610267575b5f80fd5b348015610173575f80fd5b5061018e60048036038101906101899190612fc8565b6105bf565b005b34801561019b575f80fd5b506101b660048036038101906101b1919061304c565b610734565b6040516101c8969594939291906131c2565b60405180910390f35b3480156101dc575f80fd5b506101f760048036038101906101f29190613252565b61084c565b604051610208959493929190613290565b60405180910390f35b34801561021c575f80fd5b5061023760048036038101906102329190613252565b61093d565b604051610248959493929190613290565b60405180910390f35b34801561025c575f80fd5b50610265610a2e565b005b348015610272575f80fd5b5061028d60048036038101906102889190613252565b610ace565b005b34801561029a575f80fd5b506102b560048036038101906102b0919061331d565b610e8b565b005b3480156102c2575f80fd5b506102dd60048036038101906102d89190613252565b610f33565b6040516102ee959493929190613290565b60405180910390f35b348015610302575f80fd5b5061031d6004803603810190610318919061304c565b611024565b60405161032b9291906133b3565b60405180910390f35b34801561033f575f80fd5b5061035a600480360381019061035591906133fd565b611079565b005b348015610367575f80fd5b50610382600480360381019061037d9190613550565b611151565b60405161038f9190613597565b60405180910390f35b3480156103a3575f80fd5b506103ac61124e565b005b3480156103b9575f80fd5b506103d460048036038101906103cf919061304c565b6112ef565b005b3480156103e1575f80fd5b506103fc60048036038101906103f791906135b7565b611420565b005b348015610409575f80fd5b50610424600480360381019061041f919061304c565b611780565b6040516104319190613607565b60405180910390f35b348015610445575f80fd5b50610460600480360381019061045b9190613620565b6117d0565b005b34801561046d575f80fd5b50610476611a6a565b60405161048391906136b6565b60405180910390f35b6104a660048036038101906104a191906136cf565b611a8f565b005b3480156104b3575f80fd5b506104ce60048036038101906104c9919061374f565b612405565b005b3480156104db575f80fd5b506104f660048036038101906104f191906137a9565b61249c565b6040516105049291906137d4565b60405180910390f35b348015610518575f80fd5b506105216124c8565b005b34801561052e575f80fd5b5061054960048036038101906105449190613550565b612568565b60405161055691906136b6565b60405180910390f35b610579600480360381019061057491906137fb565b6125b0565b005b348015610586575f80fd5b506105a1600480360381019061059c91906137a9565b6126f8565b005b6105bd60048036038101906105b89190613839565b61277f565b005b5f6040518060a001604052803373ffffffffffffffffffffffffffffffffffffffff1681526020018781526020016002876105fa91906138f7565b815260200185858080601f0160208091040260200160405190810160405280939291908181526020018383808284375f81840152601f19601f82011690508083019250505050505050815260200183815250905060055f3373ffffffffffffffffffffffffffffffffffffffff1673ffffffffffffffffffffffffffffffffffffffff1681526020019081526020015f2081908060018154018082558091505060019003905f5260205f2090600502015f909190919091505f820151815f015f6101000a81548173ffffffffffffffffffffffffffffffffffffffff021916908373ffffffffffffffffffffffffffffffffffffffff1602179055506020820151816001015560408201518160020155606082015181600301908161071f9190613b21565b50608082015181600401555050505050505050565b60028181548110610743575f80fd5b905f5260205f2090600502015f91509050805f015f9054906101000a900473ffffffffffffffffffffffffffffffffffffffff1690806001015f9054906101000a900473ffffffffffffffffffffffffffffffffffffffff16908060010160149054906101000a900460ff16908060020180546107bf90613954565b80601f01602080910402602001604051908101604052809291908181526020018280546107eb90613954565b80156108365780601f1061080d57610100808354040283529160200191610836565b820191905f5260205f20905b81548152906001019060200180831161081957829003601f168201915b5050505050908060030154908060040154905086565b6006602052815f5260405f208181548110610865575f80fd5b905f5260205f2090600502015f9150915050805f015f9054906101000a900473ffffffffffffffffffffffffffffffffffffffff16908060010154908060020154908060030180546108b690613954565b80601f01602080910402602001604051908101604052809291908181526020018280546108e290613954565b801561092d5780601f106109045761010080835404028352916020019161092d565b820191905f5260205f20905b81548152906001019060200180831161091057829003601f168201915b5050505050908060040154905085565b6004602052815f5260405f208181548110610956575f80fd5b905f5260205f2090600502015f9150915050805f015f9054906101000a900473ffffffffffffffffffffffffffffffffffffffff16908060010154908060020154908060030180546109a790613954565b80601f01602080910402602001604051908101604052809291908181526020018280546109d390613954565b8015610a1e5780601f106109f557610100808354040283529160200191610a1e565b820191905f5260205f20905b815481529060010190602001808311610a0157829003601f168201915b5050505050908060040154905085565b6040518060400160405280600280811115610a4c57610a4b6130b6565b5b81526020015f81525060035f3373ffffffffffffffffffffffffffffffffffffffff1673ffffffffffffffffffffffffffffffffffffffff1681526020019081526020015f205f820151815f015f6101000a81548160ff02191690836002811115610aba57610ab96130b6565b5b021790555060208201518160010155905050565b60055f8373ffffffffffffffffffffffffffffffffffffffff1673ffffffffffffffffffffffffffffffffffffffff1681526020019081526020015f208181548110610b1d57610b1c613bf0565b5b905f5260205f2090600502016004015460045f3373ffffffffffffffffffffffffffffffffffffffff1673ffffffffffffffffffffffffffffffffffffffff1681526020019081526020015f208281548110610b7c57610b7b613bf0565b5b905f5260205f2090600502016004015411610b95575f80fd5b5f670de0b6b3a764000060055f8573ffffffffffffffffffffffffffffffffffffffff1673ffffffffffffffffffffffffffffffffffffffff1681526020019081526020015f208381548110610bee57610bed613bf0565b5b905f5260205f2090600502016002015460045f3373ffffffffffffffffffffffffffffffffffffffff1673ffffffffffffffffffffffffffffffffffffffff1681526020019081526020015f208481548110610c4d57610c4c613bf0565b5b905f5260205f20906005020160010154610c679190613c1d565b610c719190613c1d565b905060045f3373ffffffffffffffffffffffffffffffffffffffff1673ffffffffffffffffffffffffffffffffffffffff1681526020019081526020015f208281548110610cc257610cc1613bf0565b5b905f5260205f2090600502016001015460055f8573ffffffffffffffffffffffffffffffffffffffff1673ffffffffffffffffffffffffffffffffffffffff1681526020019081526020015f208381548110610d2157610d20613bf0565b5b905f5260205f2090600502016001015f828254610d3e9190613c5e565b9250508190555060045f3373ffffffffffffffffffffffffffffffffffffffff1673ffffffffffffffffffffffffffffffffffffffff1681526020019081526020015f208281548110610d9457610d93613bf0565b5b905f5260205f2090600502015f8082015f6101000a81549073ffffffffffffffffffffffffffffffffffffffff0219169055600182015f9055600282015f9055600382015f610de39190612ecb565b600482015f905550508060035f8573ffffffffffffffffffffffffffffffffffffffff1673ffffffffffffffffffffffffffffffffffffffff1681526020019081526020015f206001015f828254610e3b9190613c91565b925050819055503373ffffffffffffffffffffffffffffffffffffffff166108fc8290811502906040515f60405180830381858888f19350505050158015610e85573d5f803e3d5ffd5b50505050565b8215610ee257600160028381548110610ea757610ea6613bf0565b5b905f5260205f20906005020160010160146101000a81548160ff02191690836003811115610ed857610ed76130b6565b5b0217905550610f2e565b6002808381548110610ef757610ef6613bf0565b5b905f5260205f20906005020160010160146101000a81548160ff02191690836003811115610f2857610f276130b6565b5b02179055505b505050565b6005602052815f5260405f208181548110610f4c575f80fd5b905f5260205f2090600502015f9150915050805f015f9054906101000a900473ffffffffffffffffffffffffffffffffffffffff1690806001015490806002015490806003018054610f9d90613954565b80601f0160208091040260200160405190810160405280929190818152602001828054610fc990613954565b80156110145780601f10610feb57610100808354040283529160200191611014565b820191905f5260205f20905b815481529060010190602001808311610ff757829003601f168201915b5050505050908060040154905085565b5f8181548110611032575f80fd5b905f5260205f20015f91509050805f015f9054906101000a900473ffffffffffffffffffffffffffffffffffffffff1690805f0160149054906101000a900460ff16905082565b5f60405180604001604052803373ffffffffffffffffffffffffffffffffffffffff1681526020018360028111156110b4576110b36130b6565b5b815250908060018154018082558091505060019003905f5260205f20015f909190919091505f820151815f015f6101000a81548173ffffffffffffffffffffffffffffffffffffffff021916908373ffffffffffffffffffffffffffffffffffffffff1602179055506020820151815f0160146101000a81548160ff02191690836002811115611147576111466130b6565b5b0217905550505050565b60605f8290505f5b815181101561124457606182828151811061117757611176613bf0565b5b602001015160f81c60f81b60f81c60ff16101580156111ba5750607a8282815181106111a6576111a5613bf0565b5b602001015160f81c60f81b60f81c60ff1611155b156112315760208282815181106111d4576111d3613bf0565b5b602001015160f81c60f81b60f81c6111ec9190613cd0565b60f81b82828151811061120257611201613bf0565b5b60200101907effffffffffffffffffffffffffffffffffffffffffffffffffffffffffffff191690815f1a9053505b808061123c90613d04565b915050611159565b5080915050919050565b60405180604001604052806001600281111561126d5761126c6130b6565b5b81526020015f81525060035f3373ffffffffffffffffffffffffffffffffffffffff1673ffffffffffffffffffffffffffffffffffffffff1681526020019081526020015f205f820151815f015f6101000a81548160ff021916908360028111156112db576112da6130b6565b5b021790555060208201518160010155905050565b60015f9054906101000a900473ffffffffffffffffffffffffffffffffffffffff1673ffffffffffffffffffffffffffffffffffffffff163373ffffffffffffffffffffffffffffffffffffffff1614611347575f80fd5b5f80828154811061135b5761135a613bf0565b5b905f5260205f20015f015f9054906101000a900473ffffffffffffffffffffffffffffffffffffffff1690505f80838154811061139b5761139a613bf0565b5b905f5260205f20015f0160149054906101000a900460ff1690508060035f8473ffffffffffffffffffffffffffffffffffffffff1673ffffffffffffffffffffffffffffffffffffffff1681526020019081526020015f205f015f6101000a81548160ff02191690836002811115611416576114156130b6565b5b0217905550505050565b5f8111611462576040517f08c379a000000000000000000000000000000000000000000000000000000000815260040161145990613dbb565b60405180910390fd5b60055f8473ffffffffffffffffffffffffffffffffffffffff1673ffffffffffffffffffffffffffffffffffffffff1681526020019081526020015f208054905082106114e4576040517f08c379a00000000000000000000000000000000000000000000000000000000081526004016114db90613e23565b60405180910390fd5b5f60055f8573ffffffffffffffffffffffffffffffffffffffff1673ffffffffffffffffffffffffffffffffffffffff1681526020019081526020015f20838154811061153457611533613bf0565b5b905f5260205f209060050201600301805461154e90613954565b80601f016020809104026020016040519081016040528092919081815260200182805461157a90613954565b80156115c55780601f1061159c576101008083540402835291602001916115c5565b820191905f5260205f20905b8154815290600101906020018083116115a857829003601f168201915b505050505090505f816040516020016115de9190613ec7565b60405160208183030381529060405290506115f881611151565b90505f6040518060c001604052803373ffffffffffffffffffffffffffffffffffffffff1681526020018773ffffffffffffffffffffffffffffffffffffffff16815260200160016003811115611652576116516130b6565b5b8152602001838152602001868152602001858152509050600281908060018154018082558091505060019003905f5260205f2090600502015f909190919091505f820151815f015f6101000a81548173ffffffffffffffffffffffffffffffffffffffff021916908373ffffffffffffffffffffffffffffffffffffffff1602179055506020820151816001015f6101000a81548173ffffffffffffffffffffffffffffffffffffffff021916908373ffffffffffffffffffffffffffffffffffffffff16021790555060408201518160010160146101000a81548160ff02191690836003811115611747576117466130b6565b5b021790555060608201518160020190816117619190613b21565b506080820151816003015560a082015181600401555050505050505050565b5f80808061178d90613d04565b915050824233836040516020016117a693929190613f60565b604051602081830303815290604052805190602001205f1c6117c89190613f9c565b915050919050565b6002818160028111156117e6576117e56130b6565b5b60035f3373ffffffffffffffffffffffffffffffffffffffff1673ffffffffffffffffffffffffffffffffffffffff1681526020019081526020015f205f015f9054906101000a900460ff166002811115611844576118436130b6565b5b14611884576040517f08c379a000000000000000000000000000000000000000000000000000000000815260040161187b90614062565b60405180910390fd5b8073ffffffffffffffffffffffffffffffffffffffff163373ffffffffffffffffffffffffffffffffffffffff16146118f2576040517f08c379a00000000000000000000000000000000000000000000000000000000081526004016118e990614116565b60405180910390fd5b5f6040518060a001604052808573ffffffffffffffffffffffffffffffffffffffff1681526020018a815260200160028a61192d91906138f7565b815260200188888080601f0160208091040260200160405190810160405280939291908181526020018383808284375f81840152601f19601f82011690508083019250505050505050815260200186815250905060065f8573ffffffffffffffffffffffffffffffffffffffff1673ffffffffffffffffffffffffffffffffffffffff1681526020019081526020015f2081908060018154018082558091505060019003905f5260205f2090600502015f909190919091505f820151815f015f6101000a81548173ffffffffffffffffffffffffffffffffffffffff021916908373ffffffffffffffffffffffffffffffffffffffff16021790555060208201518160010155604082015181600201556060820151816003019081611a529190613b21565b50608082015181600401555050505050505050505050565b60015f9054906101000a900473ffffffffffffffffffffffffffffffffffffffff1681565b5f6002811115611aa257611aa16130b6565b5b60035f3373ffffffffffffffffffffffffffffffffffffffff1673ffffffffffffffffffffffffffffffffffffffff1681526020019081526020015f205f015f9054906101000a900460ff166002811115611b0057611aff6130b6565b5b03611ba45760405180604001604052805f6002811115611b2357611b226130b6565b5b81526020015f81525060035f3373ffffffffffffffffffffffffffffffffffffffff1673ffffffffffffffffffffffffffffffffffffffff1681526020019081526020015f205f820151815f015f6101000a81548160ff02191690836002811115611b9157611b906130b6565b5b0217905550602082015181600101559050505b5f8311611be6576040517f08c379a0000000000000000000000000000000000000000000000000000000008152600401611bdd90613dbb565b60405180910390fd5b60055f8573ffffffffffffffffffffffffffffffffffffffff1673ffffffffffffffffffffffffffffffffffffffff1681526020019081526020015f20805490508210611c68576040517f08c379a0000000000000000000000000000000000000000000000000000000008152600401611c5f90613e23565b60405180910390fd5b60055f8573ffffffffffffffffffffffffffffffffffffffff1673ffffffffffffffffffffffffffffffffffffffff1681526020019081526020015f208281548110611cb757611cb6613bf0565b5b905f5260205f20906005020160010154831115611d09576040517f08c379a0000000000000000000000000000000000000000000000000000000008152600401611d009061417e565b60405180910390fd5b5f670de0b6b3a764000060055f8773ffffffffffffffffffffffffffffffffffffffff1673ffffffffffffffffffffffffffffffffffffffff1681526020019081526020015f208481548110611d6257611d61613bf0565b5b905f5260205f2090600502016002015485611d7d9190613c1d565b611d879190613c1d565b90503373ffffffffffffffffffffffffffffffffffffffff16600783604051611db0919061419c565b90815260200160405180910390205f9054906101000a900473ffffffffffffffffffffffffffffffffffffffff1673ffffffffffffffffffffffffffffffffffffffff1603611e71576064605a82611e089190613c1d565b611e1291906138f7565b90505f600783604051611e25919061419c565b90815260200160405180910390205f6101000a81548173ffffffffffffffffffffffffffffffffffffffff021916908373ffffffffffffffffffffffffffffffffffffffff1602179055505b80341015611eb4576040517f08c379a0000000000000000000000000000000000000000000000000000000008152600401611eab906141fc565b60405180910390fd5b5f805b60045f3373ffffffffffffffffffffffffffffffffffffffff1673ffffffffffffffffffffffffffffffffffffffff1681526020019081526020015f208054905081101561207a5760045f8873ffffffffffffffffffffffffffffffffffffffff1673ffffffffffffffffffffffffffffffffffffffff1681526020019081526020015f208581548110611f4e57611f4d613bf0565b5b905f5260205f209060050201600301604051611f6a91906142b6565b604051809103902060045f3373ffffffffffffffffffffffffffffffffffffffff1673ffffffffffffffffffffffffffffffffffffffff1681526020019081526020015f208281548110611fc157611fc0613bf0565b5b905f5260205f209060050201600301604051611fdd91906142b6565b604051809103902003612067578560045f3373ffffffffffffffffffffffffffffffffffffffff1673ffffffffffffffffffffffffffffffffffffffff1681526020019081526020015f20828154811061203a57612039613bf0565b5b905f5260205f2090600502016001015f8282546120579190613c5e565b925050819055506001915061207a565b808061207290613d04565b915050611eb7565b50806122ec575f6040518060a001604052803373ffffffffffffffffffffffffffffffffffffffff16815260200187815260200160055f8a73ffffffffffffffffffffffffffffffffffffffff1673ffffffffffffffffffffffffffffffffffffffff1681526020019081526020015f2087815481106120fd576120fc613bf0565b5b905f5260205f20906005020160020154815260200160055f8a73ffffffffffffffffffffffffffffffffffffffff1673ffffffffffffffffffffffffffffffffffffffff1681526020019081526020015f20878154811061216157612160613bf0565b5b905f5260205f209060050201600301805461217b90613954565b80601f01602080910402602001604051908101604052809291908181526020018280546121a790613954565b80156121f25780601f106121c9576101008083540402835291602001916121f2565b820191905f5260205f20905b8154815290600101906020018083116121d557829003601f168201915b505050505081526020016122076103e8611780565b815250905060045f3373ffffffffffffffffffffffffffffffffffffffff1673ffffffffffffffffffffffffffffffffffffffff1681526020019081526020015f2081908060018154018082558091505060019003905f5260205f2090600502015f909190919091505f820151815f015f6101000a81548173ffffffffffffffffffffffffffffffffffffffff021916908373ffffffffffffffffffffffffffffffffffffffff160217905550602082015181600101556040820151816002015560608201518160030190816122dd9190613b21565b50608082015181600401555050505b8460055f8873ffffffffffffffffffffffffffffffffffffffff1673ffffffffffffffffffffffffffffffffffffffff1681526020019081526020015f20858154811061233c5761233b613bf0565b5b905f5260205f2090600502016001015f8282546123599190613c91565b925050819055508160035f8873ffffffffffffffffffffffffffffffffffffffff1673ffffffffffffffffffffffffffffffffffffffff1681526020019081526020015f2060010181905550813411156123fd573373ffffffffffffffffffffffffffffffffffffffff166108fc83346123d39190613c91565b90811502906040515f60405180830381858888f193505050501580156123fb573d5f803e3d5ffd5b505b505050505050565b8073ffffffffffffffffffffffffffffffffffffffff163373ffffffffffffffffffffffffffffffffffffffff160361243c575f80fd5b8060078360405161244d919061419c565b90815260200160405180910390205f6101000a81548173ffffffffffffffffffffffffffffffffffffffff021916908373ffffffffffffffffffffffffffffffffffffffff1602179055505050565b6003602052805f5260405f205f91509050805f015f9054906101000a900460ff16908060010154905082565b60405180604001604052805f60028111156124e6576124e56130b6565b5b81526020015f81525060035f3373ffffffffffffffffffffffffffffffffffffffff1673ffffffffffffffffffffffffffffffffffffffff1681526020019081526020015f205f820151815f015f6101000a81548160ff02191690836002811115612554576125536130b6565b5b021790555060208201518160010155905050565b6007818051602081018201805184825260208301602085012081835280955050505050505f915054906101000a900473ffffffffffffffffffffffffffffffffffffffff1681565b600160038111156125c4576125c36130b6565b5b600282815481106125d8576125d7613bf0565b5b905f5260205f20906005020160010160149054906101000a900460ff166003811115612607576126066130b6565b5b14612610575f80fd5b811561269a576126956002828154811061262d5761262c613bf0565b5b905f5260205f2090600502016001015f9054906101000a900473ffffffffffffffffffffffffffffffffffffffff16600283815481106126705761266f613bf0565b5b905f5260205f209060050201600401548360405180602001604052805f815250611a8f565b6126f4565b600260038111156126ae576126ad6130b6565b5b600282815481106126c2576126c1613bf0565b5b905f5260205f20906005020160010160149054906101000a900460ff1660038111156126f1576126f06130b6565b5b50505b5050565b8073ffffffffffffffffffffffffffffffffffffffff166108fc60035f8473ffffffffffffffffffffffffffffffffffffffff1673ffffffffffffffffffffffffffffffffffffffff1681526020019081526020015f206001015490811502906040515f60405180830381858888f1935050505015801561277b573d5f803e3d5ffd5b5050565b600184816002811115612795576127946130b6565b5b60035f3373ffffffffffffffffffffffffffffffffffffffff1673ffffffffffffffffffffffffffffffffffffffff1681526020019081526020015f205f015f9054906101000a900460ff1660028111156127f3576127f26130b6565b5b14612833576040517f08c379a000000000000000000000000000000000000000000000000000000000815260040161282a90614062565b60405180910390fd5b8073ffffffffffffffffffffffffffffffffffffffff163373ffffffffffffffffffffffffffffffffffffffff16146128a1576040517f08c379a000000000000000000000000000000000000000000000000000000000815260040161289890614116565b60405180910390fd5b5f84116128e3576040517f08c379a00000000000000000000000000000000000000000000000000000000081526004016128da90613dbb565b60405180910390fd5b60065f8473ffffffffffffffffffffffffffffffffffffffff1673ffffffffffffffffffffffffffffffffffffffff1681526020019081526020015f20805490508510612965576040517f08c379a000000000000000000000000000000000000000000000000000000000815260040161295c90613e23565b60405180910390fd5b5f60065f8573ffffffffffffffffffffffffffffffffffffffff1673ffffffffffffffffffffffffffffffffffffffff1681526020019081526020015f2086815481106129b5576129b4613bf0565b5b905f5260205f2090600502016002015490505f670de0b6b3a764000086836129dd9190613c1d565b6129e79190613c1d565b905080341015612a2c576040517f08c379a0000000000000000000000000000000000000000000000000000000008152600401612a23906141fc565b60405180910390fd5b5f60065f8773ffffffffffffffffffffffffffffffffffffffff1673ffffffffffffffffffffffffffffffffffffffff1681526020019081526020015f208881548110612a7c57612a7b613bf0565b5b905f5260205f2090600502016003018054612a9690613954565b80601f0160208091040260200160405190810160405280929190818152602001828054612ac290613954565b8015612b0d5780601f10612ae457610100808354040283529160200191612b0d565b820191905f5260205f20905b815481529060010190602001808311612af057829003601f168201915b505050505090505f805b60055f8c73ffffffffffffffffffffffffffffffffffffffff1673ffffffffffffffffffffffffffffffffffffffff1681526020019081526020015f2080549050811015612c6f5760055f8c73ffffffffffffffffffffffffffffffffffffffff1673ffffffffffffffffffffffffffffffffffffffff1681526020019081526020015f208181548110612bae57612bad613bf0565b5b905f5260205f209060050201600301604051612bca91906142b6565b6040518091039020838051906020012003612c5c578860055f8d73ffffffffffffffffffffffffffffffffffffffff1673ffffffffffffffffffffffffffffffffffffffff1681526020019081526020015f208281548110612c2f57612c2e613bf0565b5b905f5260205f2090600502016001015f828254612c4c9190613c5e565b9250508190555060019150612c6f565b8080612c6790613d04565b915050612b17565b5080612df3575f6040518060a001604052808973ffffffffffffffffffffffffffffffffffffffff1681526020018a815260200186815260200184815260200160065f8b73ffffffffffffffffffffffffffffffffffffffff1673ffffffffffffffffffffffffffffffffffffffff1681526020019081526020015f208c81548110612cfe57612cfd613bf0565b5b905f5260205f20906005020160040154815250905060055f8c73ffffffffffffffffffffffffffffffffffffffff1673ffffffffffffffffffffffffffffffffffffffff1681526020019081526020015f2081908060018154018082558091505060019003905f5260205f2090600502015f909190919091505f820151815f015f6101000a81548173ffffffffffffffffffffffffffffffffffffffff021916908373ffffffffffffffffffffffffffffffffffffffff16021790555060208201518160010155604082015181600201556060820151816003019081612de49190613b21565b50608082015181600401555050505b8760065f8973ffffffffffffffffffffffffffffffffffffffff1673ffffffffffffffffffffffffffffffffffffffff1681526020019081526020015f208a81548110612e4357612e42613bf0565b5b905f5260205f2090600502016001015f828254612e609190613c91565b9250508190555082341115612ebf573373ffffffffffffffffffffffffffffffffffffffff166108fc8434612e959190613c91565b90811502906040515f60405180830381858888f19350505050158015612ebd573d5f803e3d5ffd5b505b50505050505050505050565b508054612ed790613954565b5f825580601f10612ee85750612f05565b601f0160209004905f5260205f2090810190612f049190612f08565b5b50565b5b80821115612f1f575f815f905550600101612f09565b5090565b5f604051905090565b5f80fd5b5f80fd5b5f819050919050565b612f4681612f34565b8114612f50575f80fd5b50565b5f81359050612f6181612f3d565b92915050565b5f80fd5b5f80fd5b5f80fd5b5f8083601f840112612f8857612f87612f67565b5b8235905067ffffffffffffffff811115612fa557612fa4612f6b565b5b602083019150836001820283011115612fc157612fc0612f6f565b5b9250929050565b5f805f805f60808688031215612fe157612fe0612f2c565b5b5f612fee88828901612f53565b9550506020612fff88828901612f53565b945050604086013567ffffffffffffffff8111156130205761301f612f30565b5b61302c88828901612f73565b9350935050606061303f88828901612f53565b9150509295509295909350565b5f6020828403121561306157613060612f2c565b5b5f61306e84828501612f53565b91505092915050565b5f73ffffffffffffffffffffffffffffffffffffffff82169050919050565b5f6130a082613077565b9050919050565b6130b081613096565b82525050565b7f4e487b71000000000000000000000000000000000000000000000000000000005f52602160045260245ffd5b600481106130f4576130f36130b6565b5b50565b5f819050613104826130e3565b919050565b5f613113826130f7565b9050919050565b61312381613109565b82525050565b5f81519050919050565b5f82825260208201905092915050565b5f5b83811015613160578082015181840152602081019050613145565b5f8484015250505050565b5f601f19601f8301169050919050565b5f61318582613129565b61318f8185613133565b935061319f818560208601613143565b6131a88161316b565b840191505092915050565b6131bc81612f34565b82525050565b5f60c0820190506131d55f8301896130a7565b6131e260208301886130a7565b6131ef604083018761311a565b8181036060830152613201818661317b565b905061321060808301856131b3565b61321d60a08301846131b3565b979650505050505050565b61323181613096565b811461323b575f80fd5b50565b5f8135905061324c81613228565b92915050565b5f806040838503121561326857613267612f2c565b5b5f6132758582860161323e565b925050602061328685828601612f53565b9150509250929050565b5f60a0820190506132a35f8301886130a7565b6132b060208301876131b3565b6132bd60408301866131b3565b81810360608301526132cf818561317b565b90506132de60808301846131b3565b9695505050505050565b5f8115159050919050565b6132fc816132e8565b8114613306575f80fd5b50565b5f81359050613317816132f3565b92915050565b5f805f6060848603121561333457613333612f2c565b5b5f61334186828701613309565b935050602061335286828701612f53565b92505060406133638682870161323e565b9150509250925092565b6003811061337e5761337d6130b6565b5b50565b5f81905061338e8261336d565b919050565b5f61339d82613381565b9050919050565b6133ad81613393565b82525050565b5f6040820190506133c65f8301856130a7565b6133d360208301846133a4565b9392505050565b600381106133e6575f80fd5b50565b5f813590506133f7816133da565b92915050565b5f6020828403121561341257613411612f2c565b5b5f61341f848285016133e9565b91505092915050565b5f80fd5b7f4e487b71000000000000000000000000000000000000000000000000000000005f52604160045260245ffd5b6134628261316b565b810181811067ffffffffffffffff821117156134815761348061342c565b5b80604052505050565b5f613493612f23565b905061349f8282613459565b919050565b5f67ffffffffffffffff8211156134be576134bd61342c565b5b6134c78261316b565b9050602081019050919050565b828183375f83830152505050565b5f6134f46134ef846134a4565b61348a565b9050828152602081018484840111156135105761350f613428565b5b61351b8482856134d4565b509392505050565b5f82601f83011261353757613536612f67565b5b81356135478482602086016134e2565b91505092915050565b5f6020828403121561356557613564612f2c565b5b5f82013567ffffffffffffffff81111561358257613581612f30565b5b61358e84828501613523565b91505092915050565b5f6020820190508181035f8301526135af818461317b565b905092915050565b5f805f606084860312156135ce576135cd612f2c565b5b5f6135db8682870161323e565b93505060206135ec86828701612f53565b92505060406135fd86828701612f53565b9150509250925092565b5f60208201905061361a5f8301846131b3565b92915050565b5f805f805f8060a0878903121561363a57613639612f2c565b5b5f61364789828a01612f53565b965050602061365889828a01612f53565b955050604087013567ffffffffffffffff81111561367957613678612f30565b5b61368589828a01612f73565b9450945050606061369889828a01612f53565b92505060806136a989828a0161323e565b9150509295509295509295565b5f6020820190506136c95f8301846130a7565b92915050565b5f805f80608085870312156136e7576136e6612f2c565b5b5f6136f48782880161323e565b945050602061370587828801612f53565b935050604061371687828801612f53565b925050606085013567ffffffffffffffff81111561373757613736612f30565b5b61374387828801613523565b91505092959194509250565b5f806040838503121561376557613764612f2c565b5b5f83013567ffffffffffffffff81111561378257613781612f30565b5b61378e85828601613523565b925050602061379f8582860161323e565b9150509250929050565b5f602082840312156137be576137bd612f2c565b5b5f6137cb8482850161323e565b91505092915050565b5f6040820190506137e75f8301856133a4565b6137f460208301846131b3565b9392505050565b5f806040838503121561381157613810612f2c565b5b5f61381e85828601613309565b925050602061382f85828601612f53565b9150509250929050565b5f805f806080858703121561385157613850612f2c565b5b5f61385e8782880161323e565b945050602061386f87828801612f53565b935050604061388087828801612f53565b92505060606138918782880161323e565b91505092959194509250565b7f4e487b71000000000000000000000000000000000000000000000000000000005f52601260045260245ffd5b7f4e487b71000000000000000000000000000000000000000000000000000000005f52601160045260245ffd5b5f61390182612f34565b915061390c83612f34565b92508261391c5761391b61389d565b5b828204905092915050565b7f4e487b71000000000000000000000000000000000000000000000000000000005f52602260045260245ffd5b5f600282049050600182168061396b57607f821691505b60208210810361397e5761397d613927565b5b50919050565b5f819050815f5260205f209050919050565b5f6020601f8301049050919050565b5f82821b905092915050565b5f600883026139e07fffffffffffffffffffffffffffffffffffffffffffffffffffffffffffffffff826139a5565b6139ea86836139a5565b95508019841693508086168417925050509392505050565b5f819050919050565b5f613a25613a20613a1b84612f34565b613a02565b612f34565b9050919050565b5f819050919050565b613a3e83613a0b565b613a52613a4a82613a2c565b8484546139b1565b825550505050565b5f90565b613a66613a5a565b613a71818484613a35565b505050565b5b81811015613a9457613a895f82613a5e565b600181019050613a77565b5050565b601f821115613ad957613aaa81613984565b613ab384613996565b81016020851015613ac2578190505b613ad6613ace85613996565b830182613a76565b50505b505050565b5f82821c905092915050565b5f613af95f1984600802613ade565b1980831691505092915050565b5f613b118383613aea565b9150826002028217905092915050565b613b2a82613129565b67ffffffffffffffff811115613b4357613b4261342c565b5b613b4d8254613954565b613b58828285613a98565b5f60209050601f831160018114613b89575f8415613b77578287015190505b613b818582613b06565b865550613be8565b601f198416613b9786613984565b5f5b82811015613bbe57848901518255600182019150602085019450602081019050613b99565b86831015613bdb5784890151613bd7601f891682613aea565b8355505b6001600288020188555050505b505050505050565b7f4e487b71000000000000000000000000000000000000000000000000000000005f52603260045260245ffd5b5f613c2782612f34565b9150613c3283612f34565b9250828202613c4081612f34565b91508282048414831517613c5757613c566138ca565b5b5092915050565b5f613c6882612f34565b9150613c7383612f34565b9250828201905080821115613c8b57613c8a6138ca565b5b92915050565b5f613c9b82612f34565b9150613ca683612f34565b9250828203905081811115613cbe57613cbd6138ca565b5b92915050565b5f60ff82169050919050565b5f613cda82613cc4565b9150613ce583613cc4565b9250828203905060ff811115613cfe57613cfd6138ca565b5b92915050565b5f613d0e82612f34565b91507fffffffffffffffffffffffffffffffffffffffffffffffffffffffffffffffff8203613d4057613d3f6138ca565b5b600182019050919050565b7f507572636861736520616d6f756e74206d7573742062652067726561746572205f8201527f7468616e20300000000000000000000000000000000000000000000000000000602082015250565b5f613da5602683613133565b9150613db082613d4b565b604082019050919050565b5f6020820190508181035f830152613dd281613d99565b9050919050565b7f496e76616c69642070726f6475637420494400000000000000000000000000005f82015250565b5f613e0d601283613133565b9150613e1882613dd9565b602082019050919050565b5f6020820190508181035f830152613e3a81613e01565b9050919050565b7f4141000000000000000000000000000000000000000000000000000000000000815250565b5f81905092915050565b5f613e7b82613129565b613e858185613e67565b9350613e95818560208601613143565b80840191505092915050565b7f4242000000000000000000000000000000000000000000000000000000000000815250565b5f613ed182613e41565b600282019150613ee18284613e71565b9150613eec82613ea1565b60028201915081905092915050565b5f819050919050565b613f15613f1082612f34565b613efb565b82525050565b5f8160601b9050919050565b5f613f3182613f1b565b9050919050565b5f613f4282613f27565b9050919050565b613f5a613f5582613096565b613f38565b82525050565b5f613f6b8286613f04565b602082019150613f7b8285613f49565b601482019150613f8b8284613f04565b602082019150819050949350505050565b5f613fa682612f34565b9150613fb183612f34565b925082613fc157613fc061389d565b5b828206905092915050565b7fd092d0b0d188d0b020d180d0bed0bbd18c20d0bdd0b520d0bfd0bed0b7d0b2d05f8201527fbed0bbd18fd0b5d18220d18dd182d0be20d0b8d0b7d0bcd0b5d0bdd18fd182d160208201527f8c00000000000000000000000000000000000000000000000000000000000000604082015250565b5f61404c604183613133565b915061405782613fcc565b606082019050919050565b5f6020820190508181035f83015261407981614040565b9050919050565b7fd09cd0b0d0b3d0b0d0b7d0b8d0bd20d0bdd0b520d181d0bed0bed182d0b2d0b55f8201527fd182d181d0b2d183d0b5d18220d0bed182d0bfd180d0b0d0b2d0b8d182d0b5d060208201527fbbd18e0000000000000000000000000000000000000000000000000000000000604082015250565b5f614100604383613133565b915061410b82614080565b606082019050919050565b5f6020820190508181035f83015261412d816140f4565b9050919050565b7f4e6f7420656e6f7567682073746f636b20617661696c61626c650000000000005f82015250565b5f614168601a83613133565b915061417382614134565b602082019050919050565b5f6020820190508181035f8301526141958161415c565b9050919050565b5f6141a78284613e71565b915081905092915050565b7f496e73756666696369656e742066756e64732073656e740000000000000000005f82015250565b5f6141e6601783613133565b91506141f1826141b2565b602082019050919050565b5f6020820190508181035f830152614213816141da565b9050919050565b5f81905092915050565b5f819050815f5260205f209050919050565b5f815461424281613954565b61424c818661421a565b9450600182165f8114614266576001811461427b576142ad565b60ff19831686528115158202860193506142ad565b61428485614224565b5f5b838110156142a557815481890152600182019150602081019050614286565b838801955050505b50505092915050565b5f6142c18284614236565b91508190509291505056fea26469706673582212205aeb2839dea43332d808b2d28a23ef8d4ebdcf7564caa0413464cfe4969d1bf264736f6c63430008150033",
					"opcodes": "PUSH1 0x80 PUSH1 0x40 MSTORE CALLVALUE DUP1 ISZERO PUSH2 0xF JUMPI PUSH0 DUP1 REVERT JUMPDEST POP CALLER PUSH1 0x1 PUSH0 PUSH2 0x100 EXP DUP2 SLOAD DUP2 PUSH20 0xFFFFFFFFFFFFFFFFFFFFFFFFFFFFFFFFFFFFFFFF MUL NOT AND SWAP1 DUP4 PUSH20 0xFFFFFFFFFFFFFFFFFFFFFFFFFFFFFFFFFFFFFFFF AND MUL OR SWAP1 SSTORE POP PUSH2 0x4302 DUP1 PUSH2 0x5D PUSH0 CODECOPY PUSH0 RETURN INVALID PUSH1 0x80 PUSH1 0x40 MSTORE PUSH1 0x4 CALLDATASIZE LT PUSH2 0x164 JUMPI PUSH0 CALLDATALOAD PUSH1 0xE0 SHR DUP1 PUSH4 0x6F764708 GT PUSH2 0xD0 JUMPI DUP1 PUSH4 0xA1BA90B6 GT PUSH2 0x89 JUMPI DUP1 PUSH4 0xD55768DD GT PUSH2 0x63 JUMPI DUP1 PUSH4 0xD55768DD EQ PUSH2 0x523 JUMPI DUP1 PUSH4 0xDA76AF31 EQ PUSH2 0x55F JUMPI DUP1 PUSH4 0xF67A2AD1 EQ PUSH2 0x57B JUMPI DUP1 PUSH4 0xFECD8F79 EQ PUSH2 0x5A3 JUMPI PUSH2 0x164 JUMP JUMPDEST DUP1 PUSH4 0xA1BA90B6 EQ PUSH2 0x4A8 JUMPI DUP1 PUSH4 0xA87430BA EQ PUSH2 0x4D0 JUMPI DUP1 PUSH4 0xD18A524A EQ PUSH2 0x50D JUMPI PUSH2 0x164 JUMP JUMPDEST DUP1 PUSH4 0x6F764708 EQ PUSH2 0x3AE JUMPI DUP1 PUSH4 0x7555BF10 EQ PUSH2 0x3D6 JUMPI DUP1 PUSH4 0x805553E8 EQ PUSH2 0x3FE JUMPI DUP1 PUSH4 0x861C2B6D EQ PUSH2 0x43A JUMPI DUP1 PUSH4 0x8DA5CB5B EQ PUSH2 0x462 JUMPI DUP1 PUSH4 0x9F1CD587 EQ PUSH2 0x48C JUMPI PUSH2 0x164 JUMP JUMPDEST DUP1 PUSH4 0x4BD4B507 GT PUSH2 0x122 JUMPI DUP1 PUSH4 0x4BD4B507 EQ PUSH2 0x28F JUMPI DUP1 PUSH4 0x4F424547 EQ PUSH2 0x2B7 JUMPI DUP1 PUSH4 0x50B44712 EQ PUSH2 0x2F7 JUMPI DUP1 PUSH4 0x55DEA0B3 EQ PUSH2 0x334 JUMPI DUP1 PUSH4 0x62DD748C EQ PUSH2 0x35C JUMPI DUP1 PUSH4 0x66D0DC67 EQ PUSH2 0x398 JUMPI PUSH2 0x164 JUMP JUMPDEST DUP1 PUSH3 0x8DE16A EQ PUSH2 0x168 JUMPI DUP1 PUSH4 0x1CC11721 EQ PUSH2 0x190 JUMPI DUP1 PUSH4 0x27B90B1B EQ PUSH2 0x1D1 JUMPI DUP1 PUSH4 0x3D527883 EQ PUSH2 0x211 JUMPI DUP1 PUSH4 0x3DFE7DEE EQ PUSH2 0x251 JUMPI DUP1 PUSH4 0x410085DF EQ PUSH2 0x267 JUMPI JUMPDEST PUSH0 DUP1 REVERT JUMPDEST CALLVALUE DUP1 ISZERO PUSH2 0x173 JUMPI PUSH0 DUP1 REVERT JUMPDEST POP PUSH2 0x18E PUSH1 0x4 DUP1 CALLDATASIZE SUB DUP2 ADD SWAP1 PUSH2 0x189 SWAP2 SWAP1 PUSH2 0x2FC8 JUMP JUMPDEST PUSH2 0x5BF JUMP JUMPDEST STOP JUMPDEST CALLVALUE DUP1 ISZERO PUSH2 0x19B JUMPI PUSH0 DUP1 REVERT JUMPDEST POP PUSH2 0x1B6 PUSH1 0x4 DUP1 CALLDATASIZE SUB DUP2 ADD SWAP1 PUSH2 0x1B1 SWAP2 SWAP1 PUSH2 0x304C JUMP JUMPDEST PUSH2 0x734 JUMP JUMPDEST PUSH1 0x40 MLOAD PUSH2 0x1C8 SWAP7 SWAP6 SWAP5 SWAP4 SWAP3 SWAP2 SWAP1 PUSH2 0x31C2 JUMP JUMPDEST PUSH1 0x40 MLOAD DUP1 SWAP2 SUB SWAP1 RETURN JUMPDEST CALLVALUE DUP1 ISZERO PUSH2 0x1DC JUMPI PUSH0 DUP1 REVERT JUMPDEST POP PUSH2 0x1F7 PUSH1 0x4 DUP1 CALLDATASIZE SUB DUP2 ADD SWAP1 PUSH2 0x1F2 SWAP2 SWAP1 PUSH2 0x3252 JUMP JUMPDEST PUSH2 0x84C JUMP JUMPDEST PUSH1 0x40 MLOAD PUSH2 0x208 SWAP6 SWAP5 SWAP4 SWAP3 SWAP2 SWAP1 PUSH2 0x3290 JUMP JUMPDEST PUSH1 0x40 MLOAD DUP1 SWAP2 SUB SWAP1 RETURN JUMPDEST CALLVALUE DUP1 ISZERO PUSH2 0x21C JUMPI PUSH0 DUP1 REVERT JUMPDEST POP PUSH2 0x237 PUSH1 0x4 DUP1 CALLDATASIZE SUB DUP2 ADD SWAP1 PUSH2 0x232 SWAP2 SWAP1 PUSH2 0x3252 JUMP JUMPDEST PUSH2 0x93D JUMP JUMPDEST PUSH1 0x40 MLOAD PUSH2 0x248 SWAP6 SWAP5 SWAP4 SWAP3 SWAP2 SWAP1 PUSH2 0x3290 JUMP JUMPDEST PUSH1 0x40 MLOAD DUP1 SWAP2 SUB SWAP1 RETURN JUMPDEST CALLVALUE DUP1 ISZERO PUSH2 0x25C JUMPI PUSH0 DUP1 REVERT JUMPDEST POP PUSH2 0x265 PUSH2 0xA2E JUMP JUMPDEST STOP JUMPDEST CALLVALUE DUP1 ISZERO PUSH2 0x272 JUMPI PUSH0 DUP1 REVERT JUMPDEST POP PUSH2 0x28D PUSH1 0x4 DUP1 CALLDATASIZE SUB DUP2 ADD SWAP1 PUSH2 0x288 SWAP2 SWAP1 PUSH2 0x3252 JUMP JUMPDEST PUSH2 0xACE JUMP JUMPDEST STOP JUMPDEST CALLVALUE DUP1 ISZERO PUSH2 0x29A JUMPI PUSH0 DUP1 REVERT JUMPDEST POP PUSH2 0x2B5 PUSH1 0x4 DUP1 CALLDATASIZE SUB DUP2 ADD SWAP1 PUSH2 0x2B0 SWAP2 SWAP1 PUSH2 0x331D JUMP JUMPDEST PUSH2 0xE8B JUMP JUMPDEST STOP JUMPDEST CALLVALUE DUP1 ISZERO PUSH2 0x2C2 JUMPI PUSH0 DUP1 REVERT JUMPDEST POP PUSH2 0x2DD PUSH1 0x4 DUP1 CALLDATASIZE SUB DUP2 ADD SWAP1 PUSH2 0x2D8 SWAP2 SWAP1 PUSH2 0x3252 JUMP JUMPDEST PUSH2 0xF33 JUMP JUMPDEST PUSH1 0x40 MLOAD PUSH2 0x2EE SWAP6 SWAP5 SWAP4 SWAP3 SWAP2 SWAP1 PUSH2 0x3290 JUMP JUMPDEST PUSH1 0x40 MLOAD DUP1 SWAP2 SUB SWAP1 RETURN JUMPDEST CALLVALUE DUP1 ISZERO PUSH2 0x302 JUMPI PUSH0 DUP1 REVERT JUMPDEST POP PUSH2 0x31D PUSH1 0x4 DUP1 CALLDATASIZE SUB DUP2 ADD SWAP1 PUSH2 0x318 SWAP2 SWAP1 PUSH2 0x304C JUMP JUMPDEST PUSH2 0x1024 JUMP JUMPDEST PUSH1 0x40 MLOAD PUSH2 0x32B SWAP3 SWAP2 SWAP1 PUSH2 0x33B3 JUMP JUMPDEST PUSH1 0x40 MLOAD DUP1 SWAP2 SUB SWAP1 RETURN JUMPDEST CALLVALUE DUP1 ISZERO PUSH2 0x33F JUMPI PUSH0 DUP1 REVERT JUMPDEST POP PUSH2 0x35A PUSH1 0x4 DUP1 CALLDATASIZE SUB DUP2 ADD SWAP1 PUSH2 0x355 SWAP2 SWAP1 PUSH2 0x33FD JUMP JUMPDEST PUSH2 0x1079 JUMP JUMPDEST STOP JUMPDEST CALLVALUE DUP1 ISZERO PUSH2 0x367 JUMPI PUSH0 DUP1 REVERT JUMPDEST POP PUSH2 0x382 PUSH1 0x4 DUP1 CALLDATASIZE SUB DUP2 ADD SWAP1 PUSH2 0x37D SWAP2 SWAP1 PUSH2 0x3550 JUMP JUMPDEST PUSH2 0x1151 JUMP JUMPDEST PUSH1 0x40 MLOAD PUSH2 0x38F SWAP2 SWAP1 PUSH2 0x3597 JUMP JUMPDEST PUSH1 0x40 MLOAD DUP1 SWAP2 SUB SWAP1 RETURN JUMPDEST CALLVALUE DUP1 ISZERO PUSH2 0x3A3 JUMPI PUSH0 DUP1 REVERT JUMPDEST POP PUSH2 0x3AC PUSH2 0x124E JUMP JUMPDEST STOP JUMPDEST CALLVALUE DUP1 ISZERO PUSH2 0x3B9 JUMPI PUSH0 DUP1 REVERT JUMPDEST POP PUSH2 0x3D4 PUSH1 0x4 DUP1 CALLDATASIZE SUB DUP2 ADD SWAP1 PUSH2 0x3CF SWAP2 SWAP1 PUSH2 0x304C JUMP JUMPDEST PUSH2 0x12EF JUMP JUMPDEST STOP JUMPDEST CALLVALUE DUP1 ISZERO PUSH2 0x3E1 JUMPI PUSH0 DUP1 REVERT JUMPDEST POP PUSH2 0x3FC PUSH1 0x4 DUP1 CALLDATASIZE SUB DUP2 ADD SWAP1 PUSH2 0x3F7 SWAP2 SWAP1 PUSH2 0x35B7 JUMP JUMPDEST PUSH2 0x1420 JUMP JUMPDEST STOP JUMPDEST CALLVALUE DUP1 ISZERO PUSH2 0x409 JUMPI PUSH0 DUP1 REVERT JUMPDEST POP PUSH2 0x424 PUSH1 0x4 DUP1 CALLDATASIZE SUB DUP2 ADD SWAP1 PUSH2 0x41F SWAP2 SWAP1 PUSH2 0x304C JUMP JUMPDEST PUSH2 0x1780 JUMP JUMPDEST PUSH1 0x40 MLOAD PUSH2 0x431 SWAP2 SWAP1 PUSH2 0x3607 JUMP JUMPDEST PUSH1 0x40 MLOAD DUP1 SWAP2 SUB SWAP1 RETURN JUMPDEST CALLVALUE DUP1 ISZERO PUSH2 0x445 JUMPI PUSH0 DUP1 REVERT JUMPDEST POP PUSH2 0x460 PUSH1 0x4 DUP1 CALLDATASIZE SUB DUP2 ADD SWAP1 PUSH2 0x45B SWAP2 SWAP1 PUSH2 0x3620 JUMP JUMPDEST PUSH2 0x17D0 JUMP JUMPDEST STOP JUMPDEST CALLVALUE DUP1 ISZERO PUSH2 0x46D JUMPI PUSH0 DUP1 REVERT JUMPDEST POP PUSH2 0x476 PUSH2 0x1A6A JUMP JUMPDEST PUSH1 0x40 MLOAD PUSH2 0x483 SWAP2 SWAP1 PUSH2 0x36B6 JUMP JUMPDEST PUSH1 0x40 MLOAD DUP1 SWAP2 SUB SWAP1 RETURN JUMPDEST PUSH2 0x4A6 PUSH1 0x4 DUP1 CALLDATASIZE SUB DUP2 ADD SWAP1 PUSH2 0x4A1 SWAP2 SWAP1 PUSH2 0x36CF JUMP JUMPDEST PUSH2 0x1A8F JUMP JUMPDEST STOP JUMPDEST CALLVALUE DUP1 ISZERO PUSH2 0x4B3 JUMPI PUSH0 DUP1 REVERT JUMPDEST POP PUSH2 0x4CE PUSH1 0x4 DUP1 CALLDATASIZE SUB DUP2 ADD SWAP1 PUSH2 0x4C9 SWAP2 SWAP1 PUSH2 0x374F JUMP JUMPDEST PUSH2 0x2405 JUMP JUMPDEST STOP JUMPDEST CALLVALUE DUP1 ISZERO PUSH2 0x4DB JUMPI PUSH0 DUP1 REVERT JUMPDEST POP PUSH2 0x4F6 PUSH1 0x4 DUP1 CALLDATASIZE SUB DUP2 ADD SWAP1 PUSH2 0x4F1 SWAP2 SWAP1 PUSH2 0x37A9 JUMP JUMPDEST PUSH2 0x249C JUMP JUMPDEST PUSH1 0x40 MLOAD PUSH2 0x504 SWAP3 SWAP2 SWAP1 PUSH2 0x37D4 JUMP JUMPDEST PUSH1 0x40 MLOAD DUP1 SWAP2 SUB SWAP1 RETURN JUMPDEST CALLVALUE DUP1 ISZERO PUSH2 0x518 JUMPI PUSH0 DUP1 REVERT JUMPDEST POP PUSH2 0x521 PUSH2 0x24C8 JUMP JUMPDEST STOP JUMPDEST CALLVALUE DUP1 ISZERO PUSH2 0x52E JUMPI PUSH0 DUP1 REVERT JUMPDEST POP PUSH2 0x549 PUSH1 0x4 DUP1 CALLDATASIZE SUB DUP2 ADD SWAP1 PUSH2 0x544 SWAP2 SWAP1 PUSH2 0x3550 JUMP JUMPDEST PUSH2 0x2568 JUMP JUMPDEST PUSH1 0x40 MLOAD PUSH2 0x556 SWAP2 SWAP1 PUSH2 0x36B6 JUMP JUMPDEST PUSH1 0x40 MLOAD DUP1 SWAP2 SUB SWAP1 RETURN JUMPDEST PUSH2 0x579 PUSH1 0x4 DUP1 CALLDATASIZE SUB DUP2 ADD SWAP1 PUSH2 0x574 SWAP2 SWAP1 PUSH2 0x37FB JUMP JUMPDEST PUSH2 0x25B0 JUMP JUMPDEST STOP JUMPDEST CALLVALUE DUP1 ISZERO PUSH2 0x586 JUMPI PUSH0 DUP1 REVERT JUMPDEST POP PUSH2 0x5A1 PUSH1 0x4 DUP1 CALLDATASIZE SUB DUP2 ADD SWAP1 PUSH2 0x59C SWAP2 SWAP1 PUSH2 0x37A9 JUMP JUMPDEST PUSH2 0x26F8 JUMP JUMPDEST STOP JUMPDEST PUSH2 0x5BD PUSH1 0x4 DUP1 CALLDATASIZE SUB DUP2 ADD SWAP1 PUSH2 0x5B8 SWAP2 SWAP1 PUSH2 0x3839 JUMP JUMPDEST PUSH2 0x277F JUMP JUMPDEST STOP JUMPDEST PUSH0 PUSH1 0x40 MLOAD DUP1 PUSH1 0xA0 ADD PUSH1 0x40 MSTORE DUP1 CALLER PUSH20 0xFFFFFFFFFFFFFFFFFFFFFFFFFFFFFFFFFFFFFFFF AND DUP2 MSTORE PUSH1 0x20 ADD DUP8 DUP2 MSTORE PUSH1 0x20 ADD PUSH1 0x2 DUP8 PUSH2 0x5FA SWAP2 SWAP1 PUSH2 0x38F7 JUMP JUMPDEST DUP2 MSTORE PUSH1 0x20 ADD DUP6 DUP6 DUP1 DUP1 PUSH1 0x1F ADD PUSH1 0x20 DUP1 SWAP2 DIV MUL PUSH1 0x20 ADD PUSH1 0x40 MLOAD SWAP1 DUP2 ADD PUSH1 0x40 MSTORE DUP1 SWAP4 SWAP3 SWAP2 SWAP1 DUP2 DUP2 MSTORE PUSH1 0x20 ADD DUP4 DUP4 DUP1 DUP3 DUP5 CALLDATACOPY PUSH0 DUP2 DUP5 ADD MSTORE PUSH1 0x1F NOT PUSH1 0x1F DUP3 ADD AND SWAP1 POP DUP1 DUP4 ADD SWAP3 POP POP POP POP POP POP POP DUP2 MSTORE PUSH1 0x20 ADD DUP4 DUP2 MSTORE POP SWAP1 POP PUSH1 0x5 PUSH0 CALLER PUSH20 0xFFFFFFFFFFFFFFFFFFFFFFFFFFFFFFFFFFFFFFFF AND PUSH20 0xFFFFFFFFFFFFFFFFFFFFFFFFFFFFFFFFFFFFFFFF AND DUP2 MSTORE PUSH1 0x20 ADD SWAP1 DUP2 MSTORE PUSH1 0x20 ADD PUSH0 KECCAK256 DUP2 SWAP1 DUP1 PUSH1 0x1 DUP2 SLOAD ADD DUP1 DUP3 SSTORE DUP1 SWAP2 POP POP PUSH1 0x1 SWAP1 SUB SWAP1 PUSH0 MSTORE PUSH1 0x20 PUSH0 KECCAK256 SWAP1 PUSH1 0x5 MUL ADD PUSH0 SWAP1 SWAP2 SWAP1 SWAP2 SWAP1 SWAP2 POP PUSH0 DUP3 ADD MLOAD DUP2 PUSH0 ADD PUSH0 PUSH2 0x100 EXP DUP2 SLOAD DUP2 PUSH20 0xFFFFFFFFFFFFFFFFFFFFFFFFFFFFFFFFFFFFFFFF MUL NOT AND SWAP1 DUP4 PUSH20 0xFFFFFFFFFFFFFFFFFFFFFFFFFFFFFFFFFFFFFFFF AND MUL OR SWAP1 SSTORE POP PUSH1 0x20 DUP3 ADD MLOAD DUP2 PUSH1 0x1 ADD SSTORE PUSH1 0x40 DUP3 ADD MLOAD DUP2 PUSH1 0x2 ADD SSTORE PUSH1 0x60 DUP3 ADD MLOAD DUP2 PUSH1 0x3 ADD SWAP1 DUP2 PUSH2 0x71F SWAP2 SWAP1 PUSH2 0x3B21 JUMP JUMPDEST POP PUSH1 0x80 DUP3 ADD MLOAD DUP2 PUSH1 0x4 ADD SSTORE POP POP POP POP POP POP POP POP JUMP JUMPDEST PUSH1 0x2 DUP2 DUP2 SLOAD DUP2 LT PUSH2 0x743 JUMPI PUSH0 DUP1 REVERT JUMPDEST SWAP1 PUSH0 MSTORE PUSH1 0x20 PUSH0 KECCAK256 SWAP1 PUSH1 0x5 MUL ADD PUSH0 SWAP2 POP SWAP1 POP DUP1 PUSH0 ADD PUSH0 SWAP1 SLOAD SWAP1 PUSH2 0x100 EXP SWAP1 DIV PUSH20 0xFFFFFFFFFFFFFFFFFFFFFFFFFFFFFFFFFFFFFFFF AND SWAP1 DUP1 PUSH1 0x1 ADD PUSH0 SWAP1 SLOAD SWAP1 PUSH2 0x100 EXP SWAP1 DIV PUSH20 0xFFFFFFFFFFFFFFFFFFFFFFFFFFFFFFFFFFFFFFFF AND SWAP1 DUP1 PUSH1 0x1 ADD PUSH1 0x14 SWAP1 SLOAD SWAP1 PUSH2 0x100 EXP SWAP1 DIV PUSH1 0xFF AND SWAP1 DUP1 PUSH1 0x2 ADD DUP1 SLOAD PUSH2 0x7BF SWAP1 PUSH2 0x3954 JUMP JUMPDEST DUP1 PUSH1 0x1F ADD PUSH1 0x20 DUP1 SWAP2 DIV MUL PUSH1 0x20 ADD PUSH1 0x40 MLOAD SWAP1 DUP2 ADD PUSH1 0x40 MSTORE DUP1 SWAP3 SWAP2 SWAP1 DUP2 DUP2 MSTORE PUSH1 0x20 ADD DUP3 DUP1 SLOAD PUSH2 0x7EB SWAP1 PUSH2 0x3954 JUMP JUMPDEST DUP1 ISZERO PUSH2 0x836 JUMPI DUP1 PUSH1 0x1F LT PUSH2 0x80D JUMPI PUSH2 0x100 DUP1 DUP4 SLOAD DIV MUL DUP4 MSTORE SWAP2 PUSH1 0x20 ADD SWAP2 PUSH2 0x836 JUMP JUMPDEST DUP3 ADD SWAP2 SWAP1 PUSH0 MSTORE PUSH1 0x20 PUSH0 KECCAK256 SWAP1 JUMPDEST DUP2 SLOAD DUP2 MSTORE SWAP1 PUSH1 0x1 ADD SWAP1 PUSH1 0x20 ADD DUP1 DUP4 GT PUSH2 0x819 JUMPI DUP3 SWAP1 SUB PUSH1 0x1F AND DUP3 ADD SWAP2 JUMPDEST POP POP POP POP POP SWAP1 DUP1 PUSH1 0x3 ADD SLOAD SWAP1 DUP1 PUSH1 0x4 ADD SLOAD SWAP1 POP DUP7 JUMP JUMPDEST PUSH1 0x6 PUSH1 0x20 MSTORE DUP2 PUSH0 MSTORE PUSH1 0x40 PUSH0 KECCAK256 DUP2 DUP2 SLOAD DUP2 LT PUSH2 0x865 JUMPI PUSH0 DUP1 REVERT JUMPDEST SWAP1 PUSH0 MSTORE PUSH1 0x20 PUSH0 KECCAK256 SWAP1 PUSH1 0x5 MUL ADD PUSH0 SWAP2 POP SWAP2 POP POP DUP1 PUSH0 ADD PUSH0 SWAP1 SLOAD SWAP1 PUSH2 0x100 EXP SWAP1 DIV PUSH20 0xFFFFFFFFFFFFFFFFFFFFFFFFFFFFFFFFFFFFFFFF AND SWAP1 DUP1 PUSH1 0x1 ADD SLOAD SWAP1 DUP1 PUSH1 0x2 ADD SLOAD SWAP1 DUP1 PUSH1 0x3 ADD DUP1 SLOAD PUSH2 0x8B6 SWAP1 PUSH2 0x3954 JUMP JUMPDEST DUP1 PUSH1 0x1F ADD PUSH1 0x20 DUP1 SWAP2 DIV MUL PUSH1 0x20 ADD PUSH1 0x40 MLOAD SWAP1 DUP2 ADD PUSH1 0x40 MSTORE DUP1 SWAP3 SWAP2 SWAP1 DUP2 DUP2 MSTORE PUSH1 0x20 ADD DUP3 DUP1 SLOAD PUSH2 0x8E2 SWAP1 PUSH2 0x3954 JUMP JUMPDEST DUP1 ISZERO PUSH2 0x92D JUMPI DUP1 PUSH1 0x1F LT PUSH2 0x904 JUMPI PUSH2 0x100 DUP1 DUP4 SLOAD DIV MUL DUP4 MSTORE SWAP2 PUSH1 0x20 ADD SWAP2 PUSH2 0x92D JUMP JUMPDEST DUP3 ADD SWAP2 SWAP1 PUSH0 MSTORE PUSH1 0x20 PUSH0 KECCAK256 SWAP1 JUMPDEST DUP2 SLOAD DUP2 MSTORE SWAP1 PUSH1 0x1 ADD SWAP1 PUSH1 0x20 ADD DUP1 DUP4 GT PUSH2 0x910 JUMPI DUP3 SWAP1 SUB PUSH1 0x1F AND DUP3 ADD SWAP2 JUMPDEST POP POP POP POP POP SWAP1 DUP1 PUSH1 0x4 ADD SLOAD SWAP1 POP DUP6 JUMP JUMPDEST PUSH1 0x4 PUSH1 0x20 MSTORE DUP2 PUSH0 MSTORE PUSH1 0x40 PUSH0 KECCAK256 DUP2 DUP2 SLOAD DUP2 LT PUSH2 0x956 JUMPI PUSH0 DUP1 REVERT JUMPDEST SWAP1 PUSH0 MSTORE PUSH1 0x20 PUSH0 KECCAK256 SWAP1 PUSH1 0x5 MUL ADD PUSH0 SWAP2 POP SWAP2 POP POP DUP1 PUSH0 ADD PUSH0 SWAP1 SLOAD SWAP1 PUSH2 0x100 EXP SWAP1 DIV PUSH20 0xFFFFFFFFFFFFFFFFFFFFFFFFFFFFFFFFFFFFFFFF AND SWAP1 DUP1 PUSH1 0x1 ADD SLOAD SWAP1 DUP1 PUSH1 0x2 ADD SLOAD SWAP1 DUP1 PUSH1 0x3 ADD DUP1 SLOAD PUSH2 0x9A7 SWAP1 PUSH2 0x3954 JUMP JUMPDEST DUP1 PUSH1 0x1F ADD PUSH1 0x20 DUP1 SWAP2 DIV MUL PUSH1 0x20 ADD PUSH1 0x40 MLOAD SWAP1 DUP2 ADD PUSH1 0x40 MSTORE DUP1 SWAP3 SWAP2 SWAP1 DUP2 DUP2 MSTORE PUSH1 0x20 ADD DUP3 DUP1 SLOAD PUSH2 0x9D3 SWAP1 PUSH2 0x3954 JUMP JUMPDEST DUP1 ISZERO PUSH2 0xA1E JUMPI DUP1 PUSH1 0x1F LT PUSH2 0x9F5 JUMPI PUSH2 0x100 DUP1 DUP4 SLOAD DIV MUL DUP4 MSTORE SWAP2 PUSH1 0x20 ADD SWAP2 PUSH2 0xA1E JUMP JUMPDEST DUP3 ADD SWAP2 SWAP1 PUSH0 MSTORE PUSH1 0x20 PUSH0 KECCAK256 SWAP1 JUMPDEST DUP2 SLOAD DUP2 MSTORE SWAP1 PUSH1 0x1 ADD SWAP1 PUSH1 0x20 ADD DUP1 DUP4 GT PUSH2 0xA01 JUMPI DUP3 SWAP1 SUB PUSH1 0x1F AND DUP3 ADD SWAP2 JUMPDEST POP POP POP POP POP SWAP1 DUP1 PUSH1 0x4 ADD SLOAD SWAP1 POP DUP6 JUMP JUMPDEST PUSH1 0x40 MLOAD DUP1 PUSH1 0x40 ADD PUSH1 0x40 MSTORE DUP1 PUSH1 0x2 DUP1 DUP2 GT ISZERO PUSH2 0xA4C JUMPI PUSH2 0xA4B PUSH2 0x30B6 JUMP JUMPDEST JUMPDEST DUP2 MSTORE PUSH1 0x20 ADD PUSH0 DUP2 MSTORE POP PUSH1 0x3 PUSH0 CALLER PUSH20 0xFFFFFFFFFFFFFFFFFFFFFFFFFFFFFFFFFFFFFFFF AND PUSH20 0xFFFFFFFFFFFFFFFFFFFFFFFFFFFFFFFFFFFFFFFF AND DUP2 MSTORE PUSH1 0x20 ADD SWAP1 DUP2 MSTORE PUSH1 0x20 ADD PUSH0 KECCAK256 PUSH0 DUP3 ADD MLOAD DUP2 PUSH0 ADD PUSH0 PUSH2 0x100 EXP DUP2 SLOAD DUP2 PUSH1 0xFF MUL NOT AND SWAP1 DUP4 PUSH1 0x2 DUP2 GT ISZERO PUSH2 0xABA JUMPI PUSH2 0xAB9 PUSH2 0x30B6 JUMP JUMPDEST JUMPDEST MUL OR SWAP1 SSTORE POP PUSH1 0x20 DUP3 ADD MLOAD DUP2 PUSH1 0x1 ADD SSTORE SWAP1 POP POP JUMP JUMPDEST PUSH1 0x5 PUSH0 DUP4 PUSH20 0xFFFFFFFFFFFFFFFFFFFFFFFFFFFFFFFFFFFFFFFF AND PUSH20 0xFFFFFFFFFFFFFFFFFFFFFFFFFFFFFFFFFFFFFFFF AND DUP2 MSTORE PUSH1 0x20 ADD SWAP1 DUP2 MSTORE PUSH1 0x20 ADD PUSH0 KECCAK256 DUP2 DUP2 SLOAD DUP2 LT PUSH2 0xB1D JUMPI PUSH2 0xB1C PUSH2 0x3BF0 JUMP JUMPDEST JUMPDEST SWAP1 PUSH0 MSTORE PUSH1 0x20 PUSH0 KECCAK256 SWAP1 PUSH1 0x5 MUL ADD PUSH1 0x4 ADD SLOAD PUSH1 0x4 PUSH0 CALLER PUSH20 0xFFFFFFFFFFFFFFFFFFFFFFFFFFFFFFFFFFFFFFFF AND PUSH20 0xFFFFFFFFFFFFFFFFFFFFFFFFFFFFFFFFFFFFFFFF AND DUP2 MSTORE PUSH1 0x20 ADD SWAP1 DUP2 MSTORE PUSH1 0x20 ADD PUSH0 KECCAK256 DUP3 DUP2 SLOAD DUP2 LT PUSH2 0xB7C JUMPI PUSH2 0xB7B PUSH2 0x3BF0 JUMP JUMPDEST JUMPDEST SWAP1 PUSH0 MSTORE PUSH1 0x20 PUSH0 KECCAK256 SWAP1 PUSH1 0x5 MUL ADD PUSH1 0x4 ADD SLOAD GT PUSH2 0xB95 JUMPI PUSH0 DUP1 REVERT JUMPDEST PUSH0 PUSH8 0xDE0B6B3A7640000 PUSH1 0x5 PUSH0 DUP6 PUSH20 0xFFFFFFFFFFFFFFFFFFFFFFFFFFFFFFFFFFFFFFFF AND PUSH20 0xFFFFFFFFFFFFFFFFFFFFFFFFFFFFFFFFFFFFFFFF AND DUP2 MSTORE PUSH1 0x20 ADD SWAP1 DUP2 MSTORE PUSH1 0x20 ADD PUSH0 KECCAK256 DUP4 DUP2 SLOAD DUP2 LT PUSH2 0xBEE JUMPI PUSH2 0xBED PUSH2 0x3BF0 JUMP JUMPDEST JUMPDEST SWAP1 PUSH0 MSTORE PUSH1 0x20 PUSH0 KECCAK256 SWAP1 PUSH1 0x5 MUL ADD PUSH1 0x2 ADD SLOAD PUSH1 0x4 PUSH0 CALLER PUSH20 0xFFFFFFFFFFFFFFFFFFFFFFFFFFFFFFFFFFFFFFFF AND PUSH20 0xFFFFFFFFFFFFFFFFFFFFFFFFFFFFFFFFFFFFFFFF AND DUP2 MSTORE PUSH1 0x20 ADD SWAP1 DUP2 MSTORE PUSH1 0x20 ADD PUSH0 KECCAK256 DUP5 DUP2 SLOAD DUP2 LT PUSH2 0xC4D JUMPI PUSH2 0xC4C PUSH2 0x3BF0 JUMP JUMPDEST JUMPDEST SWAP1 PUSH0 MSTORE PUSH1 0x20 PUSH0 KECCAK256 SWAP1 PUSH1 0x5 MUL ADD PUSH1 0x1 ADD SLOAD PUSH2 0xC67 SWAP2 SWAP1 PUSH2 0x3C1D JUMP JUMPDEST PUSH2 0xC71 SWAP2 SWAP1 PUSH2 0x3C1D JUMP JUMPDEST SWAP1 POP PUSH1 0x4 PUSH0 CALLER PUSH20 0xFFFFFFFFFFFFFFFFFFFFFFFFFFFFFFFFFFFFFFFF AND PUSH20 0xFFFFFFFFFFFFFFFFFFFFFFFFFFFFFFFFFFFFFFFF AND DUP2 MSTORE PUSH1 0x20 ADD SWAP1 DUP2 MSTORE PUSH1 0x20 ADD PUSH0 KECCAK256 DUP3 DUP2 SLOAD DUP2 LT PUSH2 0xCC2 JUMPI PUSH2 0xCC1 PUSH2 0x3BF0 JUMP JUMPDEST JUMPDEST SWAP1 PUSH0 MSTORE PUSH1 0x20 PUSH0 KECCAK256 SWAP1 PUSH1 0x5 MUL ADD PUSH1 0x1 ADD SLOAD PUSH1 0x5 PUSH0 DUP6 PUSH20 0xFFFFFFFFFFFFFFFFFFFFFFFFFFFFFFFFFFFFFFFF AND PUSH20 0xFFFFFFFFFFFFFFFFFFFFFFFFFFFFFFFFFFFFFFFF AND DUP2 MSTORE PUSH1 0x20 ADD SWAP1 DUP2 MSTORE PUSH1 0x20 ADD PUSH0 KECCAK256 DUP4 DUP2 SLOAD DUP2 LT PUSH2 0xD21 JUMPI PUSH2 0xD20 PUSH2 0x3BF0 JUMP JUMPDEST JUMPDEST SWAP1 PUSH0 MSTORE PUSH1 0x20 PUSH0 KECCAK256 SWAP1 PUSH1 0x5 MUL ADD PUSH1 0x1 ADD PUSH0 DUP3 DUP3 SLOAD PUSH2 0xD3E SWAP2 SWAP1 PUSH2 0x3C5E JUMP JUMPDEST SWAP3 POP POP DUP2 SWAP1 SSTORE POP PUSH1 0x4 PUSH0 CALLER PUSH20 0xFFFFFFFFFFFFFFFFFFFFFFFFFFFFFFFFFFFFFFFF AND PUSH20 0xFFFFFFFFFFFFFFFFFFFFFFFFFFFFFFFFFFFFFFFF AND DUP2 MSTORE PUSH1 0x20 ADD SWAP1 DUP2 MSTORE PUSH1 0x20 ADD PUSH0 KECCAK256 DUP3 DUP2 SLOAD DUP2 LT PUSH2 0xD94 JUMPI PUSH2 0xD93 PUSH2 0x3BF0 JUMP JUMPDEST JUMPDEST SWAP1 PUSH0 MSTORE PUSH1 0x20 PUSH0 KECCAK256 SWAP1 PUSH1 0x5 MUL ADD PUSH0 DUP1 DUP3 ADD PUSH0 PUSH2 0x100 EXP DUP2 SLOAD SWAP1 PUSH20 0xFFFFFFFFFFFFFFFFFFFFFFFFFFFFFFFFFFFFFFFF MUL NOT AND SWAP1 SSTORE PUSH1 0x1 DUP3 ADD PUSH0 SWAP1 SSTORE PUSH1 0x2 DUP3 ADD PUSH0 SWAP1 SSTORE PUSH1 0x3 DUP3 ADD PUSH0 PUSH2 0xDE3 SWAP2 SWAP1 PUSH2 0x2ECB JUMP JUMPDEST PUSH1 0x4 DUP3 ADD PUSH0 SWAP1 SSTORE POP POP DUP1 PUSH1 0x3 PUSH0 DUP6 PUSH20 0xFFFFFFFFFFFFFFFFFFFFFFFFFFFFFFFFFFFFFFFF AND PUSH20 0xFFFFFFFFFFFFFFFFFFFFFFFFFFFFFFFFFFFFFFFF AND DUP2 MSTORE PUSH1 0x20 ADD SWAP1 DUP2 MSTORE PUSH1 0x20 ADD PUSH0 KECCAK256 PUSH1 0x1 ADD PUSH0 DUP3 DUP3 SLOAD PUSH2 0xE3B SWAP2 SWAP1 PUSH2 0x3C91 JUMP JUMPDEST SWAP3 POP POP DUP2 SWAP1 SSTORE POP CALLER PUSH20 0xFFFFFFFFFFFFFFFFFFFFFFFFFFFFFFFFFFFFFFFF AND PUSH2 0x8FC DUP3 SWAP1 DUP2 ISZERO MUL SWAP1 PUSH1 0x40 MLOAD PUSH0 PUSH1 0x40 MLOAD DUP1 DUP4 SUB DUP2 DUP6 DUP9 DUP9 CALL SWAP4 POP POP POP POP ISZERO DUP1 ISZERO PUSH2 0xE85 JUMPI RETURNDATASIZE PUSH0 DUP1 RETURNDATACOPY RETURNDATASIZE PUSH0 REVERT JUMPDEST POP POP POP POP JUMP JUMPDEST DUP3 ISZERO PUSH2 0xEE2 JUMPI PUSH1 0x1 PUSH1 0x2 DUP4 DUP2 SLOAD DUP2 LT PUSH2 0xEA7 JUMPI PUSH2 0xEA6 PUSH2 0x3BF0 JUMP JUMPDEST JUMPDEST SWAP1 PUSH0 MSTORE PUSH1 0x20 PUSH0 KECCAK256 SWAP1 PUSH1 0x5 MUL ADD PUSH1 0x1 ADD PUSH1 0x14 PUSH2 0x100 EXP DUP2 SLOAD DUP2 PUSH1 0xFF MUL NOT AND SWAP1 DUP4 PUSH1 0x3 DUP2 GT ISZERO PUSH2 0xED8 JUMPI PUSH2 0xED7 PUSH2 0x30B6 JUMP JUMPDEST JUMPDEST MUL OR SWAP1 SSTORE POP PUSH2 0xF2E JUMP JUMPDEST PUSH1 0x2 DUP1 DUP4 DUP2 SLOAD DUP2 LT PUSH2 0xEF7 JUMPI PUSH2 0xEF6 PUSH2 0x3BF0 JUMP JUMPDEST JUMPDEST SWAP1 PUSH0 MSTORE PUSH1 0x20 PUSH0 KECCAK256 SWAP1 PUSH1 0x5 MUL ADD PUSH1 0x1 ADD PUSH1 0x14 PUSH2 0x100 EXP DUP2 SLOAD DUP2 PUSH1 0xFF MUL NOT AND SWAP1 DUP4 PUSH1 0x3 DUP2 GT ISZERO PUSH2 0xF28 JUMPI PUSH2 0xF27 PUSH2 0x30B6 JUMP JUMPDEST JUMPDEST MUL OR SWAP1 SSTORE POP JUMPDEST POP POP POP JUMP JUMPDEST PUSH1 0x5 PUSH1 0x20 MSTORE DUP2 PUSH0 MSTORE PUSH1 0x40 PUSH0 KECCAK256 DUP2 DUP2 SLOAD DUP2 LT PUSH2 0xF4C JUMPI PUSH0 DUP1 REVERT JUMPDEST SWAP1 PUSH0 MSTORE PUSH1 0x20 PUSH0 KECCAK256 SWAP1 PUSH1 0x5 MUL ADD PUSH0 SWAP2 POP SWAP2 POP POP DUP1 PUSH0 ADD PUSH0 SWAP1 SLOAD SWAP1 PUSH2 0x100 EXP SWAP1 DIV PUSH20 0xFFFFFFFFFFFFFFFFFFFFFFFFFFFFFFFFFFFFFFFF AND SWAP1 DUP1 PUSH1 0x1 ADD SLOAD SWAP1 DUP1 PUSH1 0x2 ADD SLOAD SWAP1 DUP1 PUSH1 0x3 ADD DUP1 SLOAD PUSH2 0xF9D SWAP1 PUSH2 0x3954 JUMP JUMPDEST DUP1 PUSH1 0x1F ADD PUSH1 0x20 DUP1 SWAP2 DIV MUL PUSH1 0x20 ADD PUSH1 0x40 MLOAD SWAP1 DUP2 ADD PUSH1 0x40 MSTORE DUP1 SWAP3 SWAP2 SWAP1 DUP2 DUP2 MSTORE PUSH1 0x20 ADD DUP3 DUP1 SLOAD PUSH2 0xFC9 SWAP1 PUSH2 0x3954 JUMP JUMPDEST DUP1 ISZERO PUSH2 0x1014 JUMPI DUP1 PUSH1 0x1F LT PUSH2 0xFEB JUMPI PUSH2 0x100 DUP1 DUP4 SLOAD DIV MUL DUP4 MSTORE SWAP2 PUSH1 0x20 ADD SWAP2 PUSH2 0x1014 JUMP JUMPDEST DUP3 ADD SWAP2 SWAP1 PUSH0 MSTORE PUSH1 0x20 PUSH0 KECCAK256 SWAP1 JUMPDEST DUP2 SLOAD DUP2 MSTORE SWAP1 PUSH1 0x1 ADD SWAP1 PUSH1 0x20 ADD DUP1 DUP4 GT PUSH2 0xFF7 JUMPI DUP3 SWAP1 SUB PUSH1 0x1F AND DUP3 ADD SWAP2 JUMPDEST POP POP POP POP POP SWAP1 DUP1 PUSH1 0x4 ADD SLOAD SWAP1 POP DUP6 JUMP JUMPDEST PUSH0 DUP2 DUP2 SLOAD DUP2 LT PUSH2 0x1032 JUMPI PUSH0 DUP1 REVERT JUMPDEST SWAP1 PUSH0 MSTORE PUSH1 0x20 PUSH0 KECCAK256 ADD PUSH0 SWAP2 POP SWAP1 POP DUP1 PUSH0 ADD PUSH0 SWAP1 SLOAD SWAP1 PUSH2 0x100 EXP SWAP1 DIV PUSH20 0xFFFFFFFFFFFFFFFFFFFFFFFFFFFFFFFFFFFFFFFF AND SWAP1 DUP1 PUSH0 ADD PUSH1 0x14 SWAP1 SLOAD SWAP1 PUSH2 0x100 EXP SWAP1 DIV PUSH1 0xFF AND SWAP1 POP DUP3 JUMP JUMPDEST PUSH0 PUSH1 0x40 MLOAD DUP1 PUSH1 0x40 ADD PUSH1 0x40 MSTORE DUP1 CALLER PUSH20 0xFFFFFFFFFFFFFFFFFFFFFFFFFFFFFFFFFFFFFFFF AND DUP2 MSTORE PUSH1 0x20 ADD DUP4 PUSH1 0x2 DUP2 GT ISZERO PUSH2 0x10B4 JUMPI PUSH2 0x10B3 PUSH2 0x30B6 JUMP JUMPDEST JUMPDEST DUP2 MSTORE POP SWAP1 DUP1 PUSH1 0x1 DUP2 SLOAD ADD DUP1 DUP3 SSTORE DUP1 SWAP2 POP POP PUSH1 0x1 SWAP1 SUB SWAP1 PUSH0 MSTORE PUSH1 0x20 PUSH0 KECCAK256 ADD PUSH0 SWAP1 SWAP2 SWAP1 SWAP2 SWAP1 SWAP2 POP PUSH0 DUP3 ADD MLOAD DUP2 PUSH0 ADD PUSH0 PUSH2 0x100 EXP DUP2 SLOAD DUP2 PUSH20 0xFFFFFFFFFFFFFFFFFFFFFFFFFFFFFFFFFFFFFFFF MUL NOT AND SWAP1 DUP4 PUSH20 0xFFFFFFFFFFFFFFFFFFFFFFFFFFFFFFFFFFFFFFFF AND MUL OR SWAP1 SSTORE POP PUSH1 0x20 DUP3 ADD MLOAD DUP2 PUSH0 ADD PUSH1 0x14 PUSH2 0x100 EXP DUP2 SLOAD DUP2 PUSH1 0xFF MUL NOT AND SWAP1 DUP4 PUSH1 0x2 DUP2 GT ISZERO PUSH2 0x1147 JUMPI PUSH2 0x1146 PUSH2 0x30B6 JUMP JUMPDEST JUMPDEST MUL OR SWAP1 SSTORE POP POP POP POP JUMP JUMPDEST PUSH1 0x60 PUSH0 DUP3 SWAP1 POP PUSH0 JUMPDEST DUP2 MLOAD DUP2 LT ISZERO PUSH2 0x1244 JUMPI PUSH1 0x61 DUP3 DUP3 DUP2 MLOAD DUP2 LT PUSH2 0x1177 JUMPI PUSH2 0x1176 PUSH2 0x3BF0 JUMP JUMPDEST JUMPDEST PUSH1 0x20 ADD ADD MLOAD PUSH1 0xF8 SHR PUSH1 0xF8 SHL PUSH1 0xF8 SHR PUSH1 0xFF AND LT ISZERO DUP1 ISZERO PUSH2 0x11BA JUMPI POP PUSH1 0x7A DUP3 DUP3 DUP2 MLOAD DUP2 LT PUSH2 0x11A6 JUMPI PUSH2 0x11A5 PUSH2 0x3BF0 JUMP JUMPDEST JUMPDEST PUSH1 0x20 ADD ADD MLOAD PUSH1 0xF8 SHR PUSH1 0xF8 SHL PUSH1 0xF8 SHR PUSH1 0xFF AND GT ISZERO JUMPDEST ISZERO PUSH2 0x1231 JUMPI PUSH1 0x20 DUP3 DUP3 DUP2 MLOAD DUP2 LT PUSH2 0x11D4 JUMPI PUSH2 0x11D3 PUSH2 0x3BF0 JUMP JUMPDEST JUMPDEST PUSH1 0x20 ADD ADD MLOAD PUSH1 0xF8 SHR PUSH1 0xF8 SHL PUSH1 0xF8 SHR PUSH2 0x11EC SWAP2 SWAP1 PUSH2 0x3CD0 JUMP JUMPDEST PUSH1 0xF8 SHL DUP3 DUP3 DUP2 MLOAD DUP2 LT PUSH2 0x1202 JUMPI PUSH2 0x1201 PUSH2 0x3BF0 JUMP JUMPDEST JUMPDEST PUSH1 0x20 ADD ADD SWAP1 PUSH31 0xFFFFFFFFFFFFFFFFFFFFFFFFFFFFFFFFFFFFFFFFFFFFFFFFFFFFFFFFFFFFFF NOT AND SWAP1 DUP2 PUSH0 BYTE SWAP1 MSTORE8 POP JUMPDEST DUP1 DUP1 PUSH2 0x123C SWAP1 PUSH2 0x3D04 JUMP JUMPDEST SWAP2 POP POP PUSH2 0x1159 JUMP JUMPDEST POP DUP1 SWAP2 POP POP SWAP2 SWAP1 POP JUMP JUMPDEST PUSH1 0x40 MLOAD DUP1 PUSH1 0x40 ADD PUSH1 0x40 MSTORE DUP1 PUSH1 0x1 PUSH1 0x2 DUP2 GT ISZERO PUSH2 0x126D JUMPI PUSH2 0x126C PUSH2 0x30B6 JUMP JUMPDEST JUMPDEST DUP2 MSTORE PUSH1 0x20 ADD PUSH0 DUP2 MSTORE POP PUSH1 0x3 PUSH0 CALLER PUSH20 0xFFFFFFFFFFFFFFFFFFFFFFFFFFFFFFFFFFFFFFFF AND PUSH20 0xFFFFFFFFFFFFFFFFFFFFFFFFFFFFFFFFFFFFFFFF AND DUP2 MSTORE PUSH1 0x20 ADD SWAP1 DUP2 MSTORE PUSH1 0x20 ADD PUSH0 KECCAK256 PUSH0 DUP3 ADD MLOAD DUP2 PUSH0 ADD PUSH0 PUSH2 0x100 EXP DUP2 SLOAD DUP2 PUSH1 0xFF MUL NOT AND SWAP1 DUP4 PUSH1 0x2 DUP2 GT ISZERO PUSH2 0x12DB JUMPI PUSH2 0x12DA PUSH2 0x30B6 JUMP JUMPDEST JUMPDEST MUL OR SWAP1 SSTORE POP PUSH1 0x20 DUP3 ADD MLOAD DUP2 PUSH1 0x1 ADD SSTORE SWAP1 POP POP JUMP JUMPDEST PUSH1 0x1 PUSH0 SWAP1 SLOAD SWAP1 PUSH2 0x100 EXP SWAP1 DIV PUSH20 0xFFFFFFFFFFFFFFFFFFFFFFFFFFFFFFFFFFFFFFFF AND PUSH20 0xFFFFFFFFFFFFFFFFFFFFFFFFFFFFFFFFFFFFFFFF AND CALLER PUSH20 0xFFFFFFFFFFFFFFFFFFFFFFFFFFFFFFFFFFFFFFFF AND EQ PUSH2 0x1347 JUMPI PUSH0 DUP1 REVERT JUMPDEST PUSH0 DUP1 DUP3 DUP2 SLOAD DUP2 LT PUSH2 0x135B JUMPI PUSH2 0x135A PUSH2 0x3BF0 JUMP JUMPDEST JUMPDEST SWAP1 PUSH0 MSTORE PUSH1 0x20 PUSH0 KECCAK256 ADD PUSH0 ADD PUSH0 SWAP1 SLOAD SWAP1 PUSH2 0x100 EXP SWAP1 DIV PUSH20 0xFFFFFFFFFFFFFFFFFFFFFFFFFFFFFFFFFFFFFFFF AND SWAP1 POP PUSH0 DUP1 DUP4 DUP2 SLOAD DUP2 LT PUSH2 0x139B JUMPI PUSH2 0x139A PUSH2 0x3BF0 JUMP JUMPDEST JUMPDEST SWAP1 PUSH0 MSTORE PUSH1 0x20 PUSH0 KECCAK256 ADD PUSH0 ADD PUSH1 0x14 SWAP1 SLOAD SWAP1 PUSH2 0x100 EXP SWAP1 DIV PUSH1 0xFF AND SWAP1 POP DUP1 PUSH1 0x3 PUSH0 DUP5 PUSH20 0xFFFFFFFFFFFFFFFFFFFFFFFFFFFFFFFFFFFFFFFF AND PUSH20 0xFFFFFFFFFFFFFFFFFFFFFFFFFFFFFFFFFFFFFFFF AND DUP2 MSTORE PUSH1 0x20 ADD SWAP1 DUP2 MSTORE PUSH1 0x20 ADD PUSH0 KECCAK256 PUSH0 ADD PUSH0 PUSH2 0x100 EXP DUP2 SLOAD DUP2 PUSH1 0xFF MUL NOT AND SWAP1 DUP4 PUSH1 0x2 DUP2 GT ISZERO PUSH2 0x1416 JUMPI PUSH2 0x1415 PUSH2 0x30B6 JUMP JUMPDEST JUMPDEST MUL OR SWAP1 SSTORE POP POP POP POP JUMP JUMPDEST PUSH0 DUP2 GT PUSH2 0x1462 JUMPI PUSH1 0x40 MLOAD PUSH32 0x8C379A000000000000000000000000000000000000000000000000000000000 DUP2 MSTORE PUSH1 0x4 ADD PUSH2 0x1459 SWAP1 PUSH2 0x3DBB JUMP JUMPDEST PUSH1 0x40 MLOAD DUP1 SWAP2 SUB SWAP1 REVERT JUMPDEST PUSH1 0x5 PUSH0 DUP5 PUSH20 0xFFFFFFFFFFFFFFFFFFFFFFFFFFFFFFFFFFFFFFFF AND PUSH20 0xFFFFFFFFFFFFFFFFFFFFFFFFFFFFFFFFFFFFFFFF AND DUP2 MSTORE PUSH1 0x20 ADD SWAP1 DUP2 MSTORE PUSH1 0x20 ADD PUSH0 KECCAK256 DUP1 SLOAD SWAP1 POP DUP3 LT PUSH2 0x14E4 JUMPI PUSH1 0x40 MLOAD PUSH32 0x8C379A000000000000000000000000000000000000000000000000000000000 DUP2 MSTORE PUSH1 0x4 ADD PUSH2 0x14DB SWAP1 PUSH2 0x3E23 JUMP JUMPDEST PUSH1 0x40 MLOAD DUP1 SWAP2 SUB SWAP1 REVERT JUMPDEST PUSH0 PUSH1 0x5 PUSH0 DUP6 PUSH20 0xFFFFFFFFFFFFFFFFFFFFFFFFFFFFFFFFFFFFFFFF AND PUSH20 0xFFFFFFFFFFFFFFFFFFFFFFFFFFFFFFFFFFFFFFFF AND DUP2 MSTORE PUSH1 0x20 ADD SWAP1 DUP2 MSTORE PUSH1 0x20 ADD PUSH0 KECCAK256 DUP4 DUP2 SLOAD DUP2 LT PUSH2 0x1534 JUMPI PUSH2 0x1533 PUSH2 0x3BF0 JUMP JUMPDEST JUMPDEST SWAP1 PUSH0 MSTORE PUSH1 0x20 PUSH0 KECCAK256 SWAP1 PUSH1 0x5 MUL ADD PUSH1 0x3 ADD DUP1 SLOAD PUSH2 0x154E SWAP1 PUSH2 0x3954 JUMP JUMPDEST DUP1 PUSH1 0x1F ADD PUSH1 0x20 DUP1 SWAP2 DIV MUL PUSH1 0x20 ADD PUSH1 0x40 MLOAD SWAP1 DUP2 ADD PUSH1 0x40 MSTORE DUP1 SWAP3 SWAP2 SWAP1 DUP2 DUP2 MSTORE PUSH1 0x20 ADD DUP3 DUP1 SLOAD PUSH2 0x157A SWAP1 PUSH2 0x3954 JUMP JUMPDEST DUP1 ISZERO PUSH2 0x15C5 JUMPI DUP1 PUSH1 0x1F LT PUSH2 0x159C JUMPI PUSH2 0x100 DUP1 DUP4 SLOAD DIV MUL DUP4 MSTORE SWAP2 PUSH1 0x20 ADD SWAP2 PUSH2 0x15C5 JUMP JUMPDEST DUP3 ADD SWAP2 SWAP1 PUSH0 MSTORE PUSH1 0x20 PUSH0 KECCAK256 SWAP1 JUMPDEST DUP2 SLOAD DUP2 MSTORE SWAP1 PUSH1 0x1 ADD SWAP1 PUSH1 0x20 ADD DUP1 DUP4 GT PUSH2 0x15A8 JUMPI DUP3 SWAP1 SUB PUSH1 0x1F AND DUP3 ADD SWAP2 JUMPDEST POP POP POP POP POP SWAP1 POP PUSH0 DUP2 PUSH1 0x40 MLOAD PUSH1 0x20 ADD PUSH2 0x15DE SWAP2 SWAP1 PUSH2 0x3EC7 JUMP JUMPDEST PUSH1 0x40 MLOAD PUSH1 0x20 DUP2 DUP4 SUB SUB DUP2 MSTORE SWAP1 PUSH1 0x40 MSTORE SWAP1 POP PUSH2 0x15F8 DUP2 PUSH2 0x1151 JUMP JUMPDEST SWAP1 POP PUSH0 PUSH1 0x40 MLOAD DUP1 PUSH1 0xC0 ADD PUSH1 0x40 MSTORE DUP1 CALLER PUSH20 0xFFFFFFFFFFFFFFFFFFFFFFFFFFFFFFFFFFFFFFFF AND DUP2 MSTORE PUSH1 0x20 ADD DUP8 PUSH20 0xFFFFFFFFFFFFFFFFFFFFFFFFFFFFFFFFFFFFFFFF AND DUP2 MSTORE PUSH1 0x20 ADD PUSH1 0x1 PUSH1 0x3 DUP2 GT ISZERO PUSH2 0x1652 JUMPI PUSH2 0x1651 PUSH2 0x30B6 JUMP JUMPDEST JUMPDEST DUP2 MSTORE PUSH1 0x20 ADD DUP4 DUP2 MSTORE PUSH1 0x20 ADD DUP7 DUP2 MSTORE PUSH1 0x20 ADD DUP6 DUP2 MSTORE POP SWAP1 POP PUSH1 0x2 DUP2 SWAP1 DUP1 PUSH1 0x1 DUP2 SLOAD ADD DUP1 DUP3 SSTORE DUP1 SWAP2 POP POP PUSH1 0x1 SWAP1 SUB SWAP1 PUSH0 MSTORE PUSH1 0x20 PUSH0 KECCAK256 SWAP1 PUSH1 0x5 MUL ADD PUSH0 SWAP1 SWAP2 SWAP1 SWAP2 SWAP1 SWAP2 POP PUSH0 DUP3 ADD MLOAD DUP2 PUSH0 ADD PUSH0 PUSH2 0x100 EXP DUP2 SLOAD DUP2 PUSH20 0xFFFFFFFFFFFFFFFFFFFFFFFFFFFFFFFFFFFFFFFF MUL NOT AND SWAP1 DUP4 PUSH20 0xFFFFFFFFFFFFFFFFFFFFFFFFFFFFFFFFFFFFFFFF AND MUL OR SWAP1 SSTORE POP PUSH1 0x20 DUP3 ADD MLOAD DUP2 PUSH1 0x1 ADD PUSH0 PUSH2 0x100 EXP DUP2 SLOAD DUP2 PUSH20 0xFFFFFFFFFFFFFFFFFFFFFFFFFFFFFFFFFFFFFFFF MUL NOT AND SWAP1 DUP4 PUSH20 0xFFFFFFFFFFFFFFFFFFFFFFFFFFFFFFFFFFFFFFFF AND MUL OR SWAP1 SSTORE POP PUSH1 0x40 DUP3 ADD MLOAD DUP2 PUSH1 0x1 ADD PUSH1 0x14 PUSH2 0x100 EXP DUP2 SLOAD DUP2 PUSH1 0xFF MUL NOT AND SWAP1 DUP4 PUSH1 0x3 DUP2 GT ISZERO PUSH2 0x1747 JUMPI PUSH2 0x1746 PUSH2 0x30B6 JUMP JUMPDEST JUMPDEST MUL OR SWAP1 SSTORE POP PUSH1 0x60 DUP3 ADD MLOAD DUP2 PUSH1 0x2 ADD SWAP1 DUP2 PUSH2 0x1761 SWAP2 SWAP1 PUSH2 0x3B21 JUMP JUMPDEST POP PUSH1 0x80 DUP3 ADD MLOAD DUP2 PUSH1 0x3 ADD SSTORE PUSH1 0xA0 DUP3 ADD MLOAD DUP2 PUSH1 0x4 ADD SSTORE POP POP POP POP POP POP POP POP JUMP JUMPDEST PUSH0 DUP1 DUP1 DUP1 PUSH2 0x178D SWAP1 PUSH2 0x3D04 JUMP JUMPDEST SWAP2 POP POP DUP3 TIMESTAMP CALLER DUP4 PUSH1 0x40 MLOAD PUSH1 0x20 ADD PUSH2 0x17A6 SWAP4 SWAP3 SWAP2 SWAP1 PUSH2 0x3F60 JUMP JUMPDEST PUSH1 0x40 MLOAD PUSH1 0x20 DUP2 DUP4 SUB SUB DUP2 MSTORE SWAP1 PUSH1 0x40 MSTORE DUP1 MLOAD SWAP1 PUSH1 0x20 ADD KECCAK256 PUSH0 SHR PUSH2 0x17C8 SWAP2 SWAP1 PUSH2 0x3F9C JUMP JUMPDEST SWAP2 POP POP SWAP2 SWAP1 POP JUMP JUMPDEST PUSH1 0x2 DUP2 DUP2 PUSH1 0x2 DUP2 GT ISZERO PUSH2 0x17E6 JUMPI PUSH2 0x17E5 PUSH2 0x30B6 JUMP JUMPDEST JUMPDEST PUSH1 0x3 PUSH0 CALLER PUSH20 0xFFFFFFFFFFFFFFFFFFFFFFFFFFFFFFFFFFFFFFFF AND PUSH20 0xFFFFFFFFFFFFFFFFFFFFFFFFFFFFFFFFFFFFFFFF AND DUP2 MSTORE PUSH1 0x20 ADD SWAP1 DUP2 MSTORE PUSH1 0x20 ADD PUSH0 KECCAK256 PUSH0 ADD PUSH0 SWAP1 SLOAD SWAP1 PUSH2 0x100 EXP SWAP1 DIV PUSH1 0xFF AND PUSH1 0x2 DUP2 GT ISZERO PUSH2 0x1844 JUMPI PUSH2 0x1843 PUSH2 0x30B6 JUMP JUMPDEST JUMPDEST EQ PUSH2 0x1884 JUMPI PUSH1 0x40 MLOAD PUSH32 0x8C379A000000000000000000000000000000000000000000000000000000000 DUP2 MSTORE PUSH1 0x4 ADD PUSH2 0x187B SWAP1 PUSH2 0x4062 JUMP JUMPDEST PUSH1 0x40 MLOAD DUP1 SWAP2 SUB SWAP1 REVERT JUMPDEST DUP1 PUSH20 0xFFFFFFFFFFFFFFFFFFFFFFFFFFFFFFFFFFFFFFFF AND CALLER PUSH20 0xFFFFFFFFFFFFFFFFFFFFFFFFFFFFFFFFFFFFFFFF AND EQ PUSH2 0x18F2 JUMPI PUSH1 0x40 MLOAD PUSH32 0x8C379A000000000000000000000000000000000000000000000000000000000 DUP2 MSTORE PUSH1 0x4 ADD PUSH2 0x18E9 SWAP1 PUSH2 0x4116 JUMP JUMPDEST PUSH1 0x40 MLOAD DUP1 SWAP2 SUB SWAP1 REVERT JUMPDEST PUSH0 PUSH1 0x40 MLOAD DUP1 PUSH1 0xA0 ADD PUSH1 0x40 MSTORE DUP1 DUP6 PUSH20 0xFFFFFFFFFFFFFFFFFFFFFFFFFFFFFFFFFFFFFFFF AND DUP2 MSTORE PUSH1 0x20 ADD DUP11 DUP2 MSTORE PUSH1 0x20 ADD PUSH1 0x2 DUP11 PUSH2 0x192D SWAP2 SWAP1 PUSH2 0x38F7 JUMP JUMPDEST DUP2 MSTORE PUSH1 0x20 ADD DUP9 DUP9 DUP1 DUP1 PUSH1 0x1F ADD PUSH1 0x20 DUP1 SWAP2 DIV MUL PUSH1 0x20 ADD PUSH1 0x40 MLOAD SWAP1 DUP2 ADD PUSH1 0x40 MSTORE DUP1 SWAP4 SWAP3 SWAP2 SWAP1 DUP2 DUP2 MSTORE PUSH1 0x20 ADD DUP4 DUP4 DUP1 DUP3 DUP5 CALLDATACOPY PUSH0 DUP2 DUP5 ADD MSTORE PUSH1 0x1F NOT PUSH1 0x1F DUP3 ADD AND SWAP1 POP DUP1 DUP4 ADD SWAP3 POP POP POP POP POP POP POP DUP2 MSTORE PUSH1 0x20 ADD DUP7 DUP2 MSTORE POP SWAP1 POP PUSH1 0x6 PUSH0 DUP6 PUSH20 0xFFFFFFFFFFFFFFFFFFFFFFFFFFFFFFFFFFFFFFFF AND PUSH20 0xFFFFFFFFFFFFFFFFFFFFFFFFFFFFFFFFFFFFFFFF AND DUP2 MSTORE PUSH1 0x20 ADD SWAP1 DUP2 MSTORE PUSH1 0x20 ADD PUSH0 KECCAK256 DUP2 SWAP1 DUP1 PUSH1 0x1 DUP2 SLOAD ADD DUP1 DUP3 SSTORE DUP1 SWAP2 POP POP PUSH1 0x1 SWAP1 SUB SWAP1 PUSH0 MSTORE PUSH1 0x20 PUSH0 KECCAK256 SWAP1 PUSH1 0x5 MUL ADD PUSH0 SWAP1 SWAP2 SWAP1 SWAP2 SWAP1 SWAP2 POP PUSH0 DUP3 ADD MLOAD DUP2 PUSH0 ADD PUSH0 PUSH2 0x100 EXP DUP2 SLOAD DUP2 PUSH20 0xFFFFFFFFFFFFFFFFFFFFFFFFFFFFFFFFFFFFFFFF MUL NOT AND SWAP1 DUP4 PUSH20 0xFFFFFFFFFFFFFFFFFFFFFFFFFFFFFFFFFFFFFFFF AND MUL OR SWAP1 SSTORE POP PUSH1 0x20 DUP3 ADD MLOAD DUP2 PUSH1 0x1 ADD SSTORE PUSH1 0x40 DUP3 ADD MLOAD DUP2 PUSH1 0x2 ADD SSTORE PUSH1 0x60 DUP3 ADD MLOAD DUP2 PUSH1 0x3 ADD SWAP1 DUP2 PUSH2 0x1A52 SWAP2 SWAP1 PUSH2 0x3B21 JUMP JUMPDEST POP PUSH1 0x80 DUP3 ADD MLOAD DUP2 PUSH1 0x4 ADD SSTORE POP POP POP POP POP POP POP POP POP POP POP JUMP JUMPDEST PUSH1 0x1 PUSH0 SWAP1 SLOAD SWAP1 PUSH2 0x100 EXP SWAP1 DIV PUSH20 0xFFFFFFFFFFFFFFFFFFFFFFFFFFFFFFFFFFFFFFFF AND DUP2 JUMP JUMPDEST PUSH0 PUSH1 0x2 DUP2 GT ISZERO PUSH2 0x1AA2 JUMPI PUSH2 0x1AA1 PUSH2 0x30B6 JUMP JUMPDEST JUMPDEST PUSH1 0x3 PUSH0 CALLER PUSH20 0xFFFFFFFFFFFFFFFFFFFFFFFFFFFFFFFFFFFFFFFF AND PUSH20 0xFFFFFFFFFFFFFFFFFFFFFFFFFFFFFFFFFFFFFFFF AND DUP2 MSTORE PUSH1 0x20 ADD SWAP1 DUP2 MSTORE PUSH1 0x20 ADD PUSH0 KECCAK256 PUSH0 ADD PUSH0 SWAP1 SLOAD SWAP1 PUSH2 0x100 EXP SWAP1 DIV PUSH1 0xFF AND PUSH1 0x2 DUP2 GT ISZERO PUSH2 0x1B00 JUMPI PUSH2 0x1AFF PUSH2 0x30B6 JUMP JUMPDEST JUMPDEST SUB PUSH2 0x1BA4 JUMPI PUSH1 0x40 MLOAD DUP1 PUSH1 0x40 ADD PUSH1 0x40 MSTORE DUP1 PUSH0 PUSH1 0x2 DUP2 GT ISZERO PUSH2 0x1B23 JUMPI PUSH2 0x1B22 PUSH2 0x30B6 JUMP JUMPDEST JUMPDEST DUP2 MSTORE PUSH1 0x20 ADD PUSH0 DUP2 MSTORE POP PUSH1 0x3 PUSH0 CALLER PUSH20 0xFFFFFFFFFFFFFFFFFFFFFFFFFFFFFFFFFFFFFFFF AND PUSH20 0xFFFFFFFFFFFFFFFFFFFFFFFFFFFFFFFFFFFFFFFF AND DUP2 MSTORE PUSH1 0x20 ADD SWAP1 DUP2 MSTORE PUSH1 0x20 ADD PUSH0 KECCAK256 PUSH0 DUP3 ADD MLOAD DUP2 PUSH0 ADD PUSH0 PUSH2 0x100 EXP DUP2 SLOAD DUP2 PUSH1 0xFF MUL NOT AND SWAP1 DUP4 PUSH1 0x2 DUP2 GT ISZERO PUSH2 0x1B91 JUMPI PUSH2 0x1B90 PUSH2 0x30B6 JUMP JUMPDEST JUMPDEST MUL OR SWAP1 SSTORE POP PUSH1 0x20 DUP3 ADD MLOAD DUP2 PUSH1 0x1 ADD SSTORE SWAP1 POP POP JUMPDEST PUSH0 DUP4 GT PUSH2 0x1BE6 JUMPI PUSH1 0x40 MLOAD PUSH32 0x8C379A000000000000000000000000000000000000000000000000000000000 DUP2 MSTORE PUSH1 0x4 ADD PUSH2 0x1BDD SWAP1 PUSH2 0x3DBB JUMP JUMPDEST PUSH1 0x40 MLOAD DUP1 SWAP2 SUB SWAP1 REVERT JUMPDEST PUSH1 0x5 PUSH0 DUP6 PUSH20 0xFFFFFFFFFFFFFFFFFFFFFFFFFFFFFFFFFFFFFFFF AND PUSH20 0xFFFFFFFFFFFFFFFFFFFFFFFFFFFFFFFFFFFFFFFF AND DUP2 MSTORE PUSH1 0x20 ADD SWAP1 DUP2 MSTORE PUSH1 0x20 ADD PUSH0 KECCAK256 DUP1 SLOAD SWAP1 POP DUP3 LT PUSH2 0x1C68 JUMPI PUSH1 0x40 MLOAD PUSH32 0x8C379A000000000000000000000000000000000000000000000000000000000 DUP2 MSTORE PUSH1 0x4 ADD PUSH2 0x1C5F SWAP1 PUSH2 0x3E23 JUMP JUMPDEST PUSH1 0x40 MLOAD DUP1 SWAP2 SUB SWAP1 REVERT JUMPDEST PUSH1 0x5 PUSH0 DUP6 PUSH20 0xFFFFFFFFFFFFFFFFFFFFFFFFFFFFFFFFFFFFFFFF AND PUSH20 0xFFFFFFFFFFFFFFFFFFFFFFFFFFFFFFFFFFFFFFFF AND DUP2 MSTORE PUSH1 0x20 ADD SWAP1 DUP2 MSTORE PUSH1 0x20 ADD PUSH0 KECCAK256 DUP3 DUP2 SLOAD DUP2 LT PUSH2 0x1CB7 JUMPI PUSH2 0x1CB6 PUSH2 0x3BF0 JUMP JUMPDEST JUMPDEST SWAP1 PUSH0 MSTORE PUSH1 0x20 PUSH0 KECCAK256 SWAP1 PUSH1 0x5 MUL ADD PUSH1 0x1 ADD SLOAD DUP4 GT ISZERO PUSH2 0x1D09 JUMPI PUSH1 0x40 MLOAD PUSH32 0x8C379A000000000000000000000000000000000000000000000000000000000 DUP2 MSTORE PUSH1 0x4 ADD PUSH2 0x1D00 SWAP1 PUSH2 0x417E JUMP JUMPDEST PUSH1 0x40 MLOAD DUP1 SWAP2 SUB SWAP1 REVERT JUMPDEST PUSH0 PUSH8 0xDE0B6B3A7640000 PUSH1 0x5 PUSH0 DUP8 PUSH20 0xFFFFFFFFFFFFFFFFFFFFFFFFFFFFFFFFFFFFFFFF AND PUSH20 0xFFFFFFFFFFFFFFFFFFFFFFFFFFFFFFFFFFFFFFFF AND DUP2 MSTORE PUSH1 0x20 ADD SWAP1 DUP2 MSTORE PUSH1 0x20 ADD PUSH0 KECCAK256 DUP5 DUP2 SLOAD DUP2 LT PUSH2 0x1D62 JUMPI PUSH2 0x1D61 PUSH2 0x3BF0 JUMP JUMPDEST JUMPDEST SWAP1 PUSH0 MSTORE PUSH1 0x20 PUSH0 KECCAK256 SWAP1 PUSH1 0x5 MUL ADD PUSH1 0x2 ADD SLOAD DUP6 PUSH2 0x1D7D SWAP2 SWAP1 PUSH2 0x3C1D JUMP JUMPDEST PUSH2 0x1D87 SWAP2 SWAP1 PUSH2 0x3C1D JUMP JUMPDEST SWAP1 POP CALLER PUSH20 0xFFFFFFFFFFFFFFFFFFFFFFFFFFFFFFFFFFFFFFFF AND PUSH1 0x7 DUP4 PUSH1 0x40 MLOAD PUSH2 0x1DB0 SWAP2 SWAP1 PUSH2 0x419C JUMP JUMPDEST SWAP1 DUP2 MSTORE PUSH1 0x20 ADD PUSH1 0x40 MLOAD DUP1 SWAP2 SUB SWAP1 KECCAK256 PUSH0 SWAP1 SLOAD SWAP1 PUSH2 0x100 EXP SWAP1 DIV PUSH20 0xFFFFFFFFFFFFFFFFFFFFFFFFFFFFFFFFFFFFFFFF AND PUSH20 0xFFFFFFFFFFFFFFFFFFFFFFFFFFFFFFFFFFFFFFFF AND SUB PUSH2 0x1E71 JUMPI PUSH1 0x64 PUSH1 0x5A DUP3 PUSH2 0x1E08 SWAP2 SWAP1 PUSH2 0x3C1D JUMP JUMPDEST PUSH2 0x1E12 SWAP2 SWAP1 PUSH2 0x38F7 JUMP JUMPDEST SWAP1 POP PUSH0 PUSH1 0x7 DUP4 PUSH1 0x40 MLOAD PUSH2 0x1E25 SWAP2 SWAP1 PUSH2 0x419C JUMP JUMPDEST SWAP1 DUP2 MSTORE PUSH1 0x20 ADD PUSH1 0x40 MLOAD DUP1 SWAP2 SUB SWAP1 KECCAK256 PUSH0 PUSH2 0x100 EXP DUP2 SLOAD DUP2 PUSH20 0xFFFFFFFFFFFFFFFFFFFFFFFFFFFFFFFFFFFFFFFF MUL NOT AND SWAP1 DUP4 PUSH20 0xFFFFFFFFFFFFFFFFFFFFFFFFFFFFFFFFFFFFFFFF AND MUL OR SWAP1 SSTORE POP JUMPDEST DUP1 CALLVALUE LT ISZERO PUSH2 0x1EB4 JUMPI PUSH1 0x40 MLOAD PUSH32 0x8C379A000000000000000000000000000000000000000000000000000000000 DUP2 MSTORE PUSH1 0x4 ADD PUSH2 0x1EAB SWAP1 PUSH2 0x41FC JUMP JUMPDEST PUSH1 0x40 MLOAD DUP1 SWAP2 SUB SWAP1 REVERT JUMPDEST PUSH0 DUP1 JUMPDEST PUSH1 0x4 PUSH0 CALLER PUSH20 0xFFFFFFFFFFFFFFFFFFFFFFFFFFFFFFFFFFFFFFFF AND PUSH20 0xFFFFFFFFFFFFFFFFFFFFFFFFFFFFFFFFFFFFFFFF AND DUP2 MSTORE PUSH1 0x20 ADD SWAP1 DUP2 MSTORE PUSH1 0x20 ADD PUSH0 KECCAK256 DUP1 SLOAD SWAP1 POP DUP2 LT ISZERO PUSH2 0x207A JUMPI PUSH1 0x4 PUSH0 DUP9 PUSH20 0xFFFFFFFFFFFFFFFFFFFFFFFFFFFFFFFFFFFFFFFF AND PUSH20 0xFFFFFFFFFFFFFFFFFFFFFFFFFFFFFFFFFFFFFFFF AND DUP2 MSTORE PUSH1 0x20 ADD SWAP1 DUP2 MSTORE PUSH1 0x20 ADD PUSH0 KECCAK256 DUP6 DUP2 SLOAD DUP2 LT PUSH2 0x1F4E JUMPI PUSH2 0x1F4D PUSH2 0x3BF0 JUMP JUMPDEST JUMPDEST SWAP1 PUSH0 MSTORE PUSH1 0x20 PUSH0 KECCAK256 SWAP1 PUSH1 0x5 MUL ADD PUSH1 0x3 ADD PUSH1 0x40 MLOAD PUSH2 0x1F6A SWAP2 SWAP1 PUSH2 0x42B6 JUMP JUMPDEST PUSH1 0x40 MLOAD DUP1 SWAP2 SUB SWAP1 KECCAK256 PUSH1 0x4 PUSH0 CALLER PUSH20 0xFFFFFFFFFFFFFFFFFFFFFFFFFFFFFFFFFFFFFFFF AND PUSH20 0xFFFFFFFFFFFFFFFFFFFFFFFFFFFFFFFFFFFFFFFF AND DUP2 MSTORE PUSH1 0x20 ADD SWAP1 DUP2 MSTORE PUSH1 0x20 ADD PUSH0 KECCAK256 DUP3 DUP2 SLOAD DUP2 LT PUSH2 0x1FC1 JUMPI PUSH2 0x1FC0 PUSH2 0x3BF0 JUMP JUMPDEST JUMPDEST SWAP1 PUSH0 MSTORE PUSH1 0x20 PUSH0 KECCAK256 SWAP1 PUSH1 0x5 MUL ADD PUSH1 0x3 ADD PUSH1 0x40 MLOAD PUSH2 0x1FDD SWAP2 SWAP1 PUSH2 0x42B6 JUMP JUMPDEST PUSH1 0x40 MLOAD DUP1 SWAP2 SUB SWAP1 KECCAK256 SUB PUSH2 0x2067 JUMPI DUP6 PUSH1 0x4 PUSH0 CALLER PUSH20 0xFFFFFFFFFFFFFFFFFFFFFFFFFFFFFFFFFFFFFFFF AND PUSH20 0xFFFFFFFFFFFFFFFFFFFFFFFFFFFFFFFFFFFFFFFF AND DUP2 MSTORE PUSH1 0x20 ADD SWAP1 DUP2 MSTORE PUSH1 0x20 ADD PUSH0 KECCAK256 DUP3 DUP2 SLOAD DUP2 LT PUSH2 0x203A JUMPI PUSH2 0x2039 PUSH2 0x3BF0 JUMP JUMPDEST JUMPDEST SWAP1 PUSH0 MSTORE PUSH1 0x20 PUSH0 KECCAK256 SWAP1 PUSH1 0x5 MUL ADD PUSH1 0x1 ADD PUSH0 DUP3 DUP3 SLOAD PUSH2 0x2057 SWAP2 SWAP1 PUSH2 0x3C5E JUMP JUMPDEST SWAP3 POP POP DUP2 SWAP1 SSTORE POP PUSH1 0x1 SWAP2 POP PUSH2 0x207A JUMP JUMPDEST DUP1 DUP1 PUSH2 0x2072 SWAP1 PUSH2 0x3D04 JUMP JUMPDEST SWAP2 POP POP PUSH2 0x1EB7 JUMP JUMPDEST POP DUP1 PUSH2 0x22EC JUMPI PUSH0 PUSH1 0x40 MLOAD DUP1 PUSH1 0xA0 ADD PUSH1 0x40 MSTORE DUP1 CALLER PUSH20 0xFFFFFFFFFFFFFFFFFFFFFFFFFFFFFFFFFFFFFFFF AND DUP2 MSTORE PUSH1 0x20 ADD DUP8 DUP2 MSTORE PUSH1 0x20 ADD PUSH1 0x5 PUSH0 DUP11 PUSH20 0xFFFFFFFFFFFFFFFFFFFFFFFFFFFFFFFFFFFFFFFF AND PUSH20 0xFFFFFFFFFFFFFFFFFFFFFFFFFFFFFFFFFFFFFFFF AND DUP2 MSTORE PUSH1 0x20 ADD SWAP1 DUP2 MSTORE PUSH1 0x20 ADD PUSH0 KECCAK256 DUP8 DUP2 SLOAD DUP2 LT PUSH2 0x20FD JUMPI PUSH2 0x20FC PUSH2 0x3BF0 JUMP JUMPDEST JUMPDEST SWAP1 PUSH0 MSTORE PUSH1 0x20 PUSH0 KECCAK256 SWAP1 PUSH1 0x5 MUL ADD PUSH1 0x2 ADD SLOAD DUP2 MSTORE PUSH1 0x20 ADD PUSH1 0x5 PUSH0 DUP11 PUSH20 0xFFFFFFFFFFFFFFFFFFFFFFFFFFFFFFFFFFFFFFFF AND PUSH20 0xFFFFFFFFFFFFFFFFFFFFFFFFFFFFFFFFFFFFFFFF AND DUP2 MSTORE PUSH1 0x20 ADD SWAP1 DUP2 MSTORE PUSH1 0x20 ADD PUSH0 KECCAK256 DUP8 DUP2 SLOAD DUP2 LT PUSH2 0x2161 JUMPI PUSH2 0x2160 PUSH2 0x3BF0 JUMP JUMPDEST JUMPDEST SWAP1 PUSH0 MSTORE PUSH1 0x20 PUSH0 KECCAK256 SWAP1 PUSH1 0x5 MUL ADD PUSH1 0x3 ADD DUP1 SLOAD PUSH2 0x217B SWAP1 PUSH2 0x3954 JUMP JUMPDEST DUP1 PUSH1 0x1F ADD PUSH1 0x20 DUP1 SWAP2 DIV MUL PUSH1 0x20 ADD PUSH1 0x40 MLOAD SWAP1 DUP2 ADD PUSH1 0x40 MSTORE DUP1 SWAP3 SWAP2 SWAP1 DUP2 DUP2 MSTORE PUSH1 0x20 ADD DUP3 DUP1 SLOAD PUSH2 0x21A7 SWAP1 PUSH2 0x3954 JUMP JUMPDEST DUP1 ISZERO PUSH2 0x21F2 JUMPI DUP1 PUSH1 0x1F LT PUSH2 0x21C9 JUMPI PUSH2 0x100 DUP1 DUP4 SLOAD DIV MUL DUP4 MSTORE SWAP2 PUSH1 0x20 ADD SWAP2 PUSH2 0x21F2 JUMP JUMPDEST DUP3 ADD SWAP2 SWAP1 PUSH0 MSTORE PUSH1 0x20 PUSH0 KECCAK256 SWAP1 JUMPDEST DUP2 SLOAD DUP2 MSTORE SWAP1 PUSH1 0x1 ADD SWAP1 PUSH1 0x20 ADD DUP1 DUP4 GT PUSH2 0x21D5 JUMPI DUP3 SWAP1 SUB PUSH1 0x1F AND DUP3 ADD SWAP2 JUMPDEST POP POP POP POP POP DUP2 MSTORE PUSH1 0x20 ADD PUSH2 0x2207 PUSH2 0x3E8 PUSH2 0x1780 JUMP JUMPDEST DUP2 MSTORE POP SWAP1 POP PUSH1 0x4 PUSH0 CALLER PUSH20 0xFFFFFFFFFFFFFFFFFFFFFFFFFFFFFFFFFFFFFFFF AND PUSH20 0xFFFFFFFFFFFFFFFFFFFFFFFFFFFFFFFFFFFFFFFF AND DUP2 MSTORE PUSH1 0x20 ADD SWAP1 DUP2 MSTORE PUSH1 0x20 ADD PUSH0 KECCAK256 DUP2 SWAP1 DUP1 PUSH1 0x1 DUP2 SLOAD ADD DUP1 DUP3 SSTORE DUP1 SWAP2 POP POP PUSH1 0x1 SWAP1 SUB SWAP1 PUSH0 MSTORE PUSH1 0x20 PUSH0 KECCAK256 SWAP1 PUSH1 0x5 MUL ADD PUSH0 SWAP1 SWAP2 SWAP1 SWAP2 SWAP1 SWAP2 POP PUSH0 DUP3 ADD MLOAD DUP2 PUSH0 ADD PUSH0 PUSH2 0x100 EXP DUP2 SLOAD DUP2 PUSH20 0xFFFFFFFFFFFFFFFFFFFFFFFFFFFFFFFFFFFFFFFF MUL NOT AND SWAP1 DUP4 PUSH20 0xFFFFFFFFFFFFFFFFFFFFFFFFFFFFFFFFFFFFFFFF AND MUL OR SWAP1 SSTORE POP PUSH1 0x20 DUP3 ADD MLOAD DUP2 PUSH1 0x1 ADD SSTORE PUSH1 0x40 DUP3 ADD MLOAD DUP2 PUSH1 0x2 ADD SSTORE PUSH1 0x60 DUP3 ADD MLOAD DUP2 PUSH1 0x3 ADD SWAP1 DUP2 PUSH2 0x22DD SWAP2 SWAP1 PUSH2 0x3B21 JUMP JUMPDEST POP PUSH1 0x80 DUP3 ADD MLOAD DUP2 PUSH1 0x4 ADD SSTORE POP POP POP JUMPDEST DUP5 PUSH1 0x5 PUSH0 DUP9 PUSH20 0xFFFFFFFFFFFFFFFFFFFFFFFFFFFFFFFFFFFFFFFF AND PUSH20 0xFFFFFFFFFFFFFFFFFFFFFFFFFFFFFFFFFFFFFFFF AND DUP2 MSTORE PUSH1 0x20 ADD SWAP1 DUP2 MSTORE PUSH1 0x20 ADD PUSH0 KECCAK256 DUP6 DUP2 SLOAD DUP2 LT PUSH2 0x233C JUMPI PUSH2 0x233B PUSH2 0x3BF0 JUMP JUMPDEST JUMPDEST SWAP1 PUSH0 MSTORE PUSH1 0x20 PUSH0 KECCAK256 SWAP1 PUSH1 0x5 MUL ADD PUSH1 0x1 ADD PUSH0 DUP3 DUP3 SLOAD PUSH2 0x2359 SWAP2 SWAP1 PUSH2 0x3C91 JUMP JUMPDEST SWAP3 POP POP DUP2 SWAP1 SSTORE POP DUP2 PUSH1 0x3 PUSH0 DUP9 PUSH20 0xFFFFFFFFFFFFFFFFFFFFFFFFFFFFFFFFFFFFFFFF AND PUSH20 0xFFFFFFFFFFFFFFFFFFFFFFFFFFFFFFFFFFFFFFFF AND DUP2 MSTORE PUSH1 0x20 ADD SWAP1 DUP2 MSTORE PUSH1 0x20 ADD PUSH0 KECCAK256 PUSH1 0x1 ADD DUP2 SWAP1 SSTORE POP DUP2 CALLVALUE GT ISZERO PUSH2 0x23FD JUMPI CALLER PUSH20 0xFFFFFFFFFFFFFFFFFFFFFFFFFFFFFFFFFFFFFFFF AND PUSH2 0x8FC DUP4 CALLVALUE PUSH2 0x23D3 SWAP2 SWAP1 PUSH2 0x3C91 JUMP JUMPDEST SWAP1 DUP2 ISZERO MUL SWAP1 PUSH1 0x40 MLOAD PUSH0 PUSH1 0x40 MLOAD DUP1 DUP4 SUB DUP2 DUP6 DUP9 DUP9 CALL SWAP4 POP POP POP POP ISZERO DUP1 ISZERO PUSH2 0x23FB JUMPI RETURNDATASIZE PUSH0 DUP1 RETURNDATACOPY RETURNDATASIZE PUSH0 REVERT JUMPDEST POP JUMPDEST POP POP POP POP POP POP JUMP JUMPDEST DUP1 PUSH20 0xFFFFFFFFFFFFFFFFFFFFFFFFFFFFFFFFFFFFFFFF AND CALLER PUSH20 0xFFFFFFFFFFFFFFFFFFFFFFFFFFFFFFFFFFFFFFFF AND SUB PUSH2 0x243C JUMPI PUSH0 DUP1 REVERT JUMPDEST DUP1 PUSH1 0x7 DUP4 PUSH1 0x40 MLOAD PUSH2 0x244D SWAP2 SWAP1 PUSH2 0x419C JUMP JUMPDEST SWAP1 DUP2 MSTORE PUSH1 0x20 ADD PUSH1 0x40 MLOAD DUP1 SWAP2 SUB SWAP1 KECCAK256 PUSH0 PUSH2 0x100 EXP DUP2 SLOAD DUP2 PUSH20 0xFFFFFFFFFFFFFFFFFFFFFFFFFFFFFFFFFFFFFFFF MUL NOT AND SWAP1 DUP4 PUSH20 0xFFFFFFFFFFFFFFFFFFFFFFFFFFFFFFFFFFFFFFFF AND MUL OR SWAP1 SSTORE POP POP POP JUMP JUMPDEST PUSH1 0x3 PUSH1 0x20 MSTORE DUP1 PUSH0 MSTORE PUSH1 0x40 PUSH0 KECCAK256 PUSH0 SWAP2 POP SWAP1 POP DUP1 PUSH0 ADD PUSH0 SWAP1 SLOAD SWAP1 PUSH2 0x100 EXP SWAP1 DIV PUSH1 0xFF AND SWAP1 DUP1 PUSH1 0x1 ADD SLOAD SWAP1 POP DUP3 JUMP JUMPDEST PUSH1 0x40 MLOAD DUP1 PUSH1 0x40 ADD PUSH1 0x40 MSTORE DUP1 PUSH0 PUSH1 0x2 DUP2 GT ISZERO PUSH2 0x24E6 JUMPI PUSH2 0x24E5 PUSH2 0x30B6 JUMP JUMPDEST JUMPDEST DUP2 MSTORE PUSH1 0x20 ADD PUSH0 DUP2 MSTORE POP PUSH1 0x3 PUSH0 CALLER PUSH20 0xFFFFFFFFFFFFFFFFFFFFFFFFFFFFFFFFFFFFFFFF AND PUSH20 0xFFFFFFFFFFFFFFFFFFFFFFFFFFFFFFFFFFFFFFFF AND DUP2 MSTORE PUSH1 0x20 ADD SWAP1 DUP2 MSTORE PUSH1 0x20 ADD PUSH0 KECCAK256 PUSH0 DUP3 ADD MLOAD DUP2 PUSH0 ADD PUSH0 PUSH2 0x100 EXP DUP2 SLOAD DUP2 PUSH1 0xFF MUL NOT AND SWAP1 DUP4 PUSH1 0x2 DUP2 GT ISZERO PUSH2 0x2554 JUMPI PUSH2 0x2553 PUSH2 0x30B6 JUMP JUMPDEST JUMPDEST MUL OR SWAP1 SSTORE POP PUSH1 0x20 DUP3 ADD MLOAD DUP2 PUSH1 0x1 ADD SSTORE SWAP1 POP POP JUMP JUMPDEST PUSH1 0x7 DUP2 DUP1 MLOAD PUSH1 0x20 DUP2 ADD DUP3 ADD DUP1 MLOAD DUP5 DUP3 MSTORE PUSH1 0x20 DUP4 ADD PUSH1 0x20 DUP6 ADD KECCAK256 DUP2 DUP4 MSTORE DUP1 SWAP6 POP POP POP POP POP POP PUSH0 SWAP2 POP SLOAD SWAP1 PUSH2 0x100 EXP SWAP1 DIV PUSH20 0xFFFFFFFFFFFFFFFFFFFFFFFFFFFFFFFFFFFFFFFF AND DUP2 JUMP JUMPDEST PUSH1 0x1 PUSH1 0x3 DUP2 GT ISZERO PUSH2 0x25C4 JUMPI PUSH2 0x25C3 PUSH2 0x30B6 JUMP JUMPDEST JUMPDEST PUSH1 0x2 DUP3 DUP2 SLOAD DUP2 LT PUSH2 0x25D8 JUMPI PUSH2 0x25D7 PUSH2 0x3BF0 JUMP JUMPDEST JUMPDEST SWAP1 PUSH0 MSTORE PUSH1 0x20 PUSH0 KECCAK256 SWAP1 PUSH1 0x5 MUL ADD PUSH1 0x1 ADD PUSH1 0x14 SWAP1 SLOAD SWAP1 PUSH2 0x100 EXP SWAP1 DIV PUSH1 0xFF AND PUSH1 0x3 DUP2 GT ISZERO PUSH2 0x2607 JUMPI PUSH2 0x2606 PUSH2 0x30B6 JUMP JUMPDEST JUMPDEST EQ PUSH2 0x2610 JUMPI PUSH0 DUP1 REVERT JUMPDEST DUP2 ISZERO PUSH2 0x269A JUMPI PUSH2 0x2695 PUSH1 0x2 DUP3 DUP2 SLOAD DUP2 LT PUSH2 0x262D JUMPI PUSH2 0x262C PUSH2 0x3BF0 JUMP JUMPDEST JUMPDEST SWAP1 PUSH0 MSTORE PUSH1 0x20 PUSH0 KECCAK256 SWAP1 PUSH1 0x5 MUL ADD PUSH1 0x1 ADD PUSH0 SWAP1 SLOAD SWAP1 PUSH2 0x100 EXP SWAP1 DIV PUSH20 0xFFFFFFFFFFFFFFFFFFFFFFFFFFFFFFFFFFFFFFFF AND PUSH1 0x2 DUP4 DUP2 SLOAD DUP2 LT PUSH2 0x2670 JUMPI PUSH2 0x266F PUSH2 0x3BF0 JUMP JUMPDEST JUMPDEST SWAP1 PUSH0 MSTORE PUSH1 0x20 PUSH0 KECCAK256 SWAP1 PUSH1 0x5 MUL ADD PUSH1 0x4 ADD SLOAD DUP4 PUSH1 0x40 MLOAD DUP1 PUSH1 0x20 ADD PUSH1 0x40 MSTORE DUP1 PUSH0 DUP2 MSTORE POP PUSH2 0x1A8F JUMP JUMPDEST PUSH2 0x26F4 JUMP JUMPDEST PUSH1 0x2 PUSH1 0x3 DUP2 GT ISZERO PUSH2 0x26AE JUMPI PUSH2 0x26AD PUSH2 0x30B6 JUMP JUMPDEST JUMPDEST PUSH1 0x2 DUP3 DUP2 SLOAD DUP2 LT PUSH2 0x26C2 JUMPI PUSH2 0x26C1 PUSH2 0x3BF0 JUMP JUMPDEST JUMPDEST SWAP1 PUSH0 MSTORE PUSH1 0x20 PUSH0 KECCAK256 SWAP1 PUSH1 0x5 MUL ADD PUSH1 0x1 ADD PUSH1 0x14 SWAP1 SLOAD SWAP1 PUSH2 0x100 EXP SWAP1 DIV PUSH1 0xFF AND PUSH1 0x3 DUP2 GT ISZERO PUSH2 0x26F1 JUMPI PUSH2 0x26F0 PUSH2 0x30B6 JUMP JUMPDEST JUMPDEST POP POP JUMPDEST POP POP JUMP JUMPDEST DUP1 PUSH20 0xFFFFFFFFFFFFFFFFFFFFFFFFFFFFFFFFFFFFFFFF AND PUSH2 0x8FC PUSH1 0x3 PUSH0 DUP5 PUSH20 0xFFFFFFFFFFFFFFFFFFFFFFFFFFFFFFFFFFFFFFFF AND PUSH20 0xFFFFFFFFFFFFFFFFFFFFFFFFFFFFFFFFFFFFFFFF AND DUP2 MSTORE PUSH1 0x20 ADD SWAP1 DUP2 MSTORE PUSH1 0x20 ADD PUSH0 KECCAK256 PUSH1 0x1 ADD SLOAD SWAP1 DUP2 ISZERO MUL SWAP1 PUSH1 0x40 MLOAD PUSH0 PUSH1 0x40 MLOAD DUP1 DUP4 SUB DUP2 DUP6 DUP9 DUP9 CALL SWAP4 POP POP POP POP ISZERO DUP1 ISZERO PUSH2 0x277B JUMPI RETURNDATASIZE PUSH0 DUP1 RETURNDATACOPY RETURNDATASIZE PUSH0 REVERT JUMPDEST POP POP JUMP JUMPDEST PUSH1 0x1 DUP5 DUP2 PUSH1 0x2 DUP2 GT ISZERO PUSH2 0x2795 JUMPI PUSH2 0x2794 PUSH2 0x30B6 JUMP JUMPDEST JUMPDEST PUSH1 0x3 PUSH0 CALLER PUSH20 0xFFFFFFFFFFFFFFFFFFFFFFFFFFFFFFFFFFFFFFFF AND PUSH20 0xFFFFFFFFFFFFFFFFFFFFFFFFFFFFFFFFFFFFFFFF AND DUP2 MSTORE PUSH1 0x20 ADD SWAP1 DUP2 MSTORE PUSH1 0x20 ADD PUSH0 KECCAK256 PUSH0 ADD PUSH0 SWAP1 SLOAD SWAP1 PUSH2 0x100 EXP SWAP1 DIV PUSH1 0xFF AND PUSH1 0x2 DUP2 GT ISZERO PUSH2 0x27F3 JUMPI PUSH2 0x27F2 PUSH2 0x30B6 JUMP JUMPDEST JUMPDEST EQ PUSH2 0x2833 JUMPI PUSH1 0x40 MLOAD PUSH32 0x8C379A000000000000000000000000000000000000000000000000000000000 DUP2 MSTORE PUSH1 0x4 ADD PUSH2 0x282A SWAP1 PUSH2 0x4062 JUMP JUMPDEST PUSH1 0x40 MLOAD DUP1 SWAP2 SUB SWAP1 REVERT JUMPDEST DUP1 PUSH20 0xFFFFFFFFFFFFFFFFFFFFFFFFFFFFFFFFFFFFFFFF AND CALLER PUSH20 0xFFFFFFFFFFFFFFFFFFFFFFFFFFFFFFFFFFFFFFFF AND EQ PUSH2 0x28A1 JUMPI PUSH1 0x40 MLOAD PUSH32 0x8C379A000000000000000000000000000000000000000000000000000000000 DUP2 MSTORE PUSH1 0x4 ADD PUSH2 0x2898 SWAP1 PUSH2 0x4116 JUMP JUMPDEST PUSH1 0x40 MLOAD DUP1 SWAP2 SUB SWAP1 REVERT JUMPDEST PUSH0 DUP5 GT PUSH2 0x28E3 JUMPI PUSH1 0x40 MLOAD PUSH32 0x8C379A000000000000000000000000000000000000000000000000000000000 DUP2 MSTORE PUSH1 0x4 ADD PUSH2 0x28DA SWAP1 PUSH2 0x3DBB JUMP JUMPDEST PUSH1 0x40 MLOAD DUP1 SWAP2 SUB SWAP1 REVERT JUMPDEST PUSH1 0x6 PUSH0 DUP5 PUSH20 0xFFFFFFFFFFFFFFFFFFFFFFFFFFFFFFFFFFFFFFFF AND PUSH20 0xFFFFFFFFFFFFFFFFFFFFFFFFFFFFFFFFFFFFFFFF AND DUP2 MSTORE PUSH1 0x20 ADD SWAP1 DUP2 MSTORE PUSH1 0x20 ADD PUSH0 KECCAK256 DUP1 SLOAD SWAP1 POP DUP6 LT PUSH2 0x2965 JUMPI PUSH1 0x40 MLOAD PUSH32 0x8C379A000000000000000000000000000000000000000000000000000000000 DUP2 MSTORE PUSH1 0x4 ADD PUSH2 0x295C SWAP1 PUSH2 0x3E23 JUMP JUMPDEST PUSH1 0x40 MLOAD DUP1 SWAP2 SUB SWAP1 REVERT JUMPDEST PUSH0 PUSH1 0x6 PUSH0 DUP6 PUSH20 0xFFFFFFFFFFFFFFFFFFFFFFFFFFFFFFFFFFFFFFFF AND PUSH20 0xFFFFFFFFFFFFFFFFFFFFFFFFFFFFFFFFFFFFFFFF AND DUP2 MSTORE PUSH1 0x20 ADD SWAP1 DUP2 MSTORE PUSH1 0x20 ADD PUSH0 KECCAK256 DUP7 DUP2 SLOAD DUP2 LT PUSH2 0x29B5 JUMPI PUSH2 0x29B4 PUSH2 0x3BF0 JUMP JUMPDEST JUMPDEST SWAP1 PUSH0 MSTORE PUSH1 0x20 PUSH0 KECCAK256 SWAP1 PUSH1 0x5 MUL ADD PUSH1 0x2 ADD SLOAD SWAP1 POP PUSH0 PUSH8 0xDE0B6B3A7640000 DUP7 DUP4 PUSH2 0x29DD SWAP2 SWAP1 PUSH2 0x3C1D JUMP JUMPDEST PUSH2 0x29E7 SWAP2 SWAP1 PUSH2 0x3C1D JUMP JUMPDEST SWAP1 POP DUP1 CALLVALUE LT ISZERO PUSH2 0x2A2C JUMPI PUSH1 0x40 MLOAD PUSH32 0x8C379A000000000000000000000000000000000000000000000000000000000 DUP2 MSTORE PUSH1 0x4 ADD PUSH2 0x2A23 SWAP1 PUSH2 0x41FC JUMP JUMPDEST PUSH1 0x40 MLOAD DUP1 SWAP2 SUB SWAP1 REVERT JUMPDEST PUSH0 PUSH1 0x6 PUSH0 DUP8 PUSH20 0xFFFFFFFFFFFFFFFFFFFFFFFFFFFFFFFFFFFFFFFF AND PUSH20 0xFFFFFFFFFFFFFFFFFFFFFFFFFFFFFFFFFFFFFFFF AND DUP2 MSTORE PUSH1 0x20 ADD SWAP1 DUP2 MSTORE PUSH1 0x20 ADD PUSH0 KECCAK256 DUP9 DUP2 SLOAD DUP2 LT PUSH2 0x2A7C JUMPI PUSH2 0x2A7B PUSH2 0x3BF0 JUMP JUMPDEST JUMPDEST SWAP1 PUSH0 MSTORE PUSH1 0x20 PUSH0 KECCAK256 SWAP1 PUSH1 0x5 MUL ADD PUSH1 0x3 ADD DUP1 SLOAD PUSH2 0x2A96 SWAP1 PUSH2 0x3954 JUMP JUMPDEST DUP1 PUSH1 0x1F ADD PUSH1 0x20 DUP1 SWAP2 DIV MUL PUSH1 0x20 ADD PUSH1 0x40 MLOAD SWAP1 DUP2 ADD PUSH1 0x40 MSTORE DUP1 SWAP3 SWAP2 SWAP1 DUP2 DUP2 MSTORE PUSH1 0x20 ADD DUP3 DUP1 SLOAD PUSH2 0x2AC2 SWAP1 PUSH2 0x3954 JUMP JUMPDEST DUP1 ISZERO PUSH2 0x2B0D JUMPI DUP1 PUSH1 0x1F LT PUSH2 0x2AE4 JUMPI PUSH2 0x100 DUP1 DUP4 SLOAD DIV MUL DUP4 MSTORE SWAP2 PUSH1 0x20 ADD SWAP2 PUSH2 0x2B0D JUMP JUMPDEST DUP3 ADD SWAP2 SWAP1 PUSH0 MSTORE PUSH1 0x20 PUSH0 KECCAK256 SWAP1 JUMPDEST DUP2 SLOAD DUP2 MSTORE SWAP1 PUSH1 0x1 ADD SWAP1 PUSH1 0x20 ADD DUP1 DUP4 GT PUSH2 0x2AF0 JUMPI DUP3 SWAP1 SUB PUSH1 0x1F AND DUP3 ADD SWAP2 JUMPDEST POP POP POP POP POP SWAP1 POP PUSH0 DUP1 JUMPDEST PUSH1 0x5 PUSH0 DUP13 PUSH20 0xFFFFFFFFFFFFFFFFFFFFFFFFFFFFFFFFFFFFFFFF AND PUSH20 0xFFFFFFFFFFFFFFFFFFFFFFFFFFFFFFFFFFFFFFFF AND DUP2 MSTORE PUSH1 0x20 ADD SWAP1 DUP2 MSTORE PUSH1 0x20 ADD PUSH0 KECCAK256 DUP1 SLOAD SWAP1 POP DUP2 LT ISZERO PUSH2 0x2C6F JUMPI PUSH1 0x5 PUSH0 DUP13 PUSH20 0xFFFFFFFFFFFFFFFFFFFFFFFFFFFFFFFFFFFFFFFF AND PUSH20 0xFFFFFFFFFFFFFFFFFFFFFFFFFFFFFFFFFFFFFFFF AND DUP2 MSTORE PUSH1 0x20 ADD SWAP1 DUP2 MSTORE PUSH1 0x20 ADD PUSH0 KECCAK256 DUP2 DUP2 SLOAD DUP2 LT PUSH2 0x2BAE JUMPI PUSH2 0x2BAD PUSH2 0x3BF0 JUMP JUMPDEST JUMPDEST SWAP1 PUSH0 MSTORE PUSH1 0x20 PUSH0 KECCAK256 SWAP1 PUSH1 0x5 MUL ADD PUSH1 0x3 ADD PUSH1 0x40 MLOAD PUSH2 0x2BCA SWAP2 SWAP1 PUSH2 0x42B6 JUMP JUMPDEST PUSH1 0x40 MLOAD DUP1 SWAP2 SUB SWAP1 KECCAK256 DUP4 DUP1 MLOAD SWAP1 PUSH1 0x20 ADD KECCAK256 SUB PUSH2 0x2C5C JUMPI DUP9 PUSH1 0x5 PUSH0 DUP14 PUSH20 0xFFFFFFFFFFFFFFFFFFFFFFFFFFFFFFFFFFFFFFFF AND PUSH20 0xFFFFFFFFFFFFFFFFFFFFFFFFFFFFFFFFFFFFFFFF AND DUP2 MSTORE PUSH1 0x20 ADD SWAP1 DUP2 MSTORE PUSH1 0x20 ADD PUSH0 KECCAK256 DUP3 DUP2 SLOAD DUP2 LT PUSH2 0x2C2F JUMPI PUSH2 0x2C2E PUSH2 0x3BF0 JUMP JUMPDEST JUMPDEST SWAP1 PUSH0 MSTORE PUSH1 0x20 PUSH0 KECCAK256 SWAP1 PUSH1 0x5 MUL ADD PUSH1 0x1 ADD PUSH0 DUP3 DUP3 SLOAD PUSH2 0x2C4C SWAP2 SWAP1 PUSH2 0x3C5E JUMP JUMPDEST SWAP3 POP POP DUP2 SWAP1 SSTORE POP PUSH1 0x1 SWAP2 POP PUSH2 0x2C6F JUMP JUMPDEST DUP1 DUP1 PUSH2 0x2C67 SWAP1 PUSH2 0x3D04 JUMP JUMPDEST SWAP2 POP POP PUSH2 0x2B17 JUMP JUMPDEST POP DUP1 PUSH2 0x2DF3 JUMPI PUSH0 PUSH1 0x40 MLOAD DUP1 PUSH1 0xA0 ADD PUSH1 0x40 MSTORE DUP1 DUP10 PUSH20 0xFFFFFFFFFFFFFFFFFFFFFFFFFFFFFFFFFFFFFFFF AND DUP2 MSTORE PUSH1 0x20 ADD DUP11 DUP2 MSTORE PUSH1 0x20 ADD DUP7 DUP2 MSTORE PUSH1 0x20 ADD DUP5 DUP2 MSTORE PUSH1 0x20 ADD PUSH1 0x6 PUSH0 DUP12 PUSH20 0xFFFFFFFFFFFFFFFFFFFFFFFFFFFFFFFFFFFFFFFF AND PUSH20 0xFFFFFFFFFFFFFFFFFFFFFFFFFFFFFFFFFFFFFFFF AND DUP2 MSTORE PUSH1 0x20 ADD SWAP1 DUP2 MSTORE PUSH1 0x20 ADD PUSH0 KECCAK256 DUP13 DUP2 SLOAD DUP2 LT PUSH2 0x2CFE JUMPI PUSH2 0x2CFD PUSH2 0x3BF0 JUMP JUMPDEST JUMPDEST SWAP1 PUSH0 MSTORE PUSH1 0x20 PUSH0 KECCAK256 SWAP1 PUSH1 0x5 MUL ADD PUSH1 0x4 ADD SLOAD DUP2 MSTORE POP SWAP1 POP PUSH1 0x5 PUSH0 DUP13 PUSH20 0xFFFFFFFFFFFFFFFFFFFFFFFFFFFFFFFFFFFFFFFF AND PUSH20 0xFFFFFFFFFFFFFFFFFFFFFFFFFFFFFFFFFFFFFFFF AND DUP2 MSTORE PUSH1 0x20 ADD SWAP1 DUP2 MSTORE PUSH1 0x20 ADD PUSH0 KECCAK256 DUP2 SWAP1 DUP1 PUSH1 0x1 DUP2 SLOAD ADD DUP1 DUP3 SSTORE DUP1 SWAP2 POP POP PUSH1 0x1 SWAP1 SUB SWAP1 PUSH0 MSTORE PUSH1 0x20 PUSH0 KECCAK256 SWAP1 PUSH1 0x5 MUL ADD PUSH0 SWAP1 SWAP2 SWAP1 SWAP2 SWAP1 SWAP2 POP PUSH0 DUP3 ADD MLOAD DUP2 PUSH0 ADD PUSH0 PUSH2 0x100 EXP DUP2 SLOAD DUP2 PUSH20 0xFFFFFFFFFFFFFFFFFFFFFFFFFFFFFFFFFFFFFFFF MUL NOT AND SWAP1 DUP4 PUSH20 0xFFFFFFFFFFFFFFFFFFFFFFFFFFFFFFFFFFFFFFFF AND MUL OR SWAP1 SSTORE POP PUSH1 0x20 DUP3 ADD MLOAD DUP2 PUSH1 0x1 ADD SSTORE PUSH1 0x40 DUP3 ADD MLOAD DUP2 PUSH1 0x2 ADD SSTORE PUSH1 0x60 DUP3 ADD MLOAD DUP2 PUSH1 0x3 ADD SWAP1 DUP2 PUSH2 0x2DE4 SWAP2 SWAP1 PUSH2 0x3B21 JUMP JUMPDEST POP PUSH1 0x80 DUP3 ADD MLOAD DUP2 PUSH1 0x4 ADD SSTORE POP POP POP JUMPDEST DUP8 PUSH1 0x6 PUSH0 DUP10 PUSH20 0xFFFFFFFFFFFFFFFFFFFFFFFFFFFFFFFFFFFFFFFF AND PUSH20 0xFFFFFFFFFFFFFFFFFFFFFFFFFFFFFFFFFFFFFFFF AND DUP2 MSTORE PUSH1 0x20 ADD SWAP1 DUP2 MSTORE PUSH1 0x20 ADD PUSH0 KECCAK256 DUP11 DUP2 SLOAD DUP2 LT PUSH2 0x2E43 JUMPI PUSH2 0x2E42 PUSH2 0x3BF0 JUMP JUMPDEST JUMPDEST SWAP1 PUSH0 MSTORE PUSH1 0x20 PUSH0 KECCAK256 SWAP1 PUSH1 0x5 MUL ADD PUSH1 0x1 ADD PUSH0 DUP3 DUP3 SLOAD PUSH2 0x2E60 SWAP2 SWAP1 PUSH2 0x3C91 JUMP JUMPDEST SWAP3 POP POP DUP2 SWAP1 SSTORE POP DUP3 CALLVALUE GT ISZERO PUSH2 0x2EBF JUMPI CALLER PUSH20 0xFFFFFFFFFFFFFFFFFFFFFFFFFFFFFFFFFFFFFFFF AND PUSH2 0x8FC DUP5 CALLVALUE PUSH2 0x2E95 SWAP2 SWAP1 PUSH2 0x3C91 JUMP JUMPDEST SWAP1 DUP2 ISZERO MUL SWAP1 PUSH1 0x40 MLOAD PUSH0 PUSH1 0x40 MLOAD DUP1 DUP4 SUB DUP2 DUP6 DUP9 DUP9 CALL SWAP4 POP POP POP POP ISZERO DUP1 ISZERO PUSH2 0x2EBD JUMPI RETURNDATASIZE PUSH0 DUP1 RETURNDATACOPY RETURNDATASIZE PUSH0 REVERT JUMPDEST POP JUMPDEST POP POP POP POP POP POP POP POP POP POP JUMP JUMPDEST POP DUP1 SLOAD PUSH2 0x2ED7 SWAP1 PUSH2 0x3954 JUMP JUMPDEST PUSH0 DUP3 SSTORE DUP1 PUSH1 0x1F LT PUSH2 0x2EE8 JUMPI POP PUSH2 0x2F05 JUMP JUMPDEST PUSH1 0x1F ADD PUSH1 0x20 SWAP1 DIV SWAP1 PUSH0 MSTORE PUSH1 0x20 PUSH0 KECCAK256 SWAP1 DUP2 ADD SWAP1 PUSH2 0x2F04 SWAP2 SWAP1 PUSH2 0x2F08 JUMP JUMPDEST JUMPDEST POP JUMP JUMPDEST JUMPDEST DUP1 DUP3 GT ISZERO PUSH2 0x2F1F JUMPI PUSH0 DUP2 PUSH0 SWAP1 SSTORE POP PUSH1 0x1 ADD PUSH2 0x2F09 JUMP JUMPDEST POP SWAP1 JUMP JUMPDEST PUSH0 PUSH1 0x40 MLOAD SWAP1 POP SWAP1 JUMP JUMPDEST PUSH0 DUP1 REVERT JUMPDEST PUSH0 DUP1 REVERT JUMPDEST PUSH0 DUP2 SWAP1 POP SWAP2 SWAP1 POP JUMP JUMPDEST PUSH2 0x2F46 DUP2 PUSH2 0x2F34 JUMP JUMPDEST DUP2 EQ PUSH2 0x2F50 JUMPI PUSH0 DUP1 REVERT JUMPDEST POP JUMP JUMPDEST PUSH0 DUP2 CALLDATALOAD SWAP1 POP PUSH2 0x2F61 DUP2 PUSH2 0x2F3D JUMP JUMPDEST SWAP3 SWAP2 POP POP JUMP JUMPDEST PUSH0 DUP1 REVERT JUMPDEST PUSH0 DUP1 REVERT JUMPDEST PUSH0 DUP1 REVERT JUMPDEST PUSH0 DUP1 DUP4 PUSH1 0x1F DUP5 ADD SLT PUSH2 0x2F88 JUMPI PUSH2 0x2F87 PUSH2 0x2F67 JUMP JUMPDEST JUMPDEST DUP3 CALLDATALOAD SWAP1 POP PUSH8 0xFFFFFFFFFFFFFFFF DUP2 GT ISZERO PUSH2 0x2FA5 JUMPI PUSH2 0x2FA4 PUSH2 0x2F6B JUMP JUMPDEST JUMPDEST PUSH1 0x20 DUP4 ADD SWAP2 POP DUP4 PUSH1 0x1 DUP3 MUL DUP4 ADD GT ISZERO PUSH2 0x2FC1 JUMPI PUSH2 0x2FC0 PUSH2 0x2F6F JUMP JUMPDEST JUMPDEST SWAP3 POP SWAP3 SWAP1 POP JUMP JUMPDEST PUSH0 DUP1 PUSH0 DUP1 PUSH0 PUSH1 0x80 DUP7 DUP9 SUB SLT ISZERO PUSH2 0x2FE1 JUMPI PUSH2 0x2FE0 PUSH2 0x2F2C JUMP JUMPDEST JUMPDEST PUSH0 PUSH2 0x2FEE DUP9 DUP3 DUP10 ADD PUSH2 0x2F53 JUMP JUMPDEST SWAP6 POP POP PUSH1 0x20 PUSH2 0x2FFF DUP9 DUP3 DUP10 ADD PUSH2 0x2F53 JUMP JUMPDEST SWAP5 POP POP PUSH1 0x40 DUP7 ADD CALLDATALOAD PUSH8 0xFFFFFFFFFFFFFFFF DUP2 GT ISZERO PUSH2 0x3020 JUMPI PUSH2 0x301F PUSH2 0x2F30 JUMP JUMPDEST JUMPDEST PUSH2 0x302C DUP9 DUP3 DUP10 ADD PUSH2 0x2F73 JUMP JUMPDEST SWAP4 POP SWAP4 POP POP PUSH1 0x60 PUSH2 0x303F DUP9 DUP3 DUP10 ADD PUSH2 0x2F53 JUMP JUMPDEST SWAP2 POP POP SWAP3 SWAP6 POP SWAP3 SWAP6 SWAP1 SWAP4 POP JUMP JUMPDEST PUSH0 PUSH1 0x20 DUP3 DUP5 SUB SLT ISZERO PUSH2 0x3061 JUMPI PUSH2 0x3060 PUSH2 0x2F2C JUMP JUMPDEST JUMPDEST PUSH0 PUSH2 0x306E DUP5 DUP3 DUP6 ADD PUSH2 0x2F53 JUMP JUMPDEST SWAP2 POP POP SWAP3 SWAP2 POP POP JUMP JUMPDEST PUSH0 PUSH20 0xFFFFFFFFFFFFFFFFFFFFFFFFFFFFFFFFFFFFFFFF DUP3 AND SWAP1 POP SWAP2 SWAP1 POP JUMP JUMPDEST PUSH0 PUSH2 0x30A0 DUP3 PUSH2 0x3077 JUMP JUMPDEST SWAP1 POP SWAP2 SWAP1 POP JUMP JUMPDEST PUSH2 0x30B0 DUP2 PUSH2 0x3096 JUMP JUMPDEST DUP3 MSTORE POP POP JUMP JUMPDEST PUSH32 0x4E487B7100000000000000000000000000000000000000000000000000000000 PUSH0 MSTORE PUSH1 0x21 PUSH1 0x4 MSTORE PUSH1 0x24 PUSH0 REVERT JUMPDEST PUSH1 0x4 DUP2 LT PUSH2 0x30F4 JUMPI PUSH2 0x30F3 PUSH2 0x30B6 JUMP JUMPDEST JUMPDEST POP JUMP JUMPDEST PUSH0 DUP2 SWAP1 POP PUSH2 0x3104 DUP3 PUSH2 0x30E3 JUMP JUMPDEST SWAP2 SWAP1 POP JUMP JUMPDEST PUSH0 PUSH2 0x3113 DUP3 PUSH2 0x30F7 JUMP JUMPDEST SWAP1 POP SWAP2 SWAP1 POP JUMP JUMPDEST PUSH2 0x3123 DUP2 PUSH2 0x3109 JUMP JUMPDEST DUP3 MSTORE POP POP JUMP JUMPDEST PUSH0 DUP2 MLOAD SWAP1 POP SWAP2 SWAP1 POP JUMP JUMPDEST PUSH0 DUP3 DUP3 MSTORE PUSH1 0x20 DUP3 ADD SWAP1 POP SWAP3 SWAP2 POP POP JUMP JUMPDEST PUSH0 JUMPDEST DUP4 DUP2 LT ISZERO PUSH2 0x3160 JUMPI DUP1 DUP3 ADD MLOAD DUP2 DUP5 ADD MSTORE PUSH1 0x20 DUP2 ADD SWAP1 POP PUSH2 0x3145 JUMP JUMPDEST PUSH0 DUP5 DUP5 ADD MSTORE POP POP POP POP JUMP JUMPDEST PUSH0 PUSH1 0x1F NOT PUSH1 0x1F DUP4 ADD AND SWAP1 POP SWAP2 SWAP1 POP JUMP JUMPDEST PUSH0 PUSH2 0x3185 DUP3 PUSH2 0x3129 JUMP JUMPDEST PUSH2 0x318F DUP2 DUP6 PUSH2 0x3133 JUMP JUMPDEST SWAP4 POP PUSH2 0x319F DUP2 DUP6 PUSH1 0x20 DUP7 ADD PUSH2 0x3143 JUMP JUMPDEST PUSH2 0x31A8 DUP2 PUSH2 0x316B JUMP JUMPDEST DUP5 ADD SWAP2 POP POP SWAP3 SWAP2 POP POP JUMP JUMPDEST PUSH2 0x31BC DUP2 PUSH2 0x2F34 JUMP JUMPDEST DUP3 MSTORE POP POP JUMP JUMPDEST PUSH0 PUSH1 0xC0 DUP3 ADD SWAP1 POP PUSH2 0x31D5 PUSH0 DUP4 ADD DUP10 PUSH2 0x30A7 JUMP JUMPDEST PUSH2 0x31E2 PUSH1 0x20 DUP4 ADD DUP9 PUSH2 0x30A7 JUMP JUMPDEST PUSH2 0x31EF PUSH1 0x40 DUP4 ADD DUP8 PUSH2 0x311A JUMP JUMPDEST DUP2 DUP2 SUB PUSH1 0x60 DUP4 ADD MSTORE PUSH2 0x3201 DUP2 DUP7 PUSH2 0x317B JUMP JUMPDEST SWAP1 POP PUSH2 0x3210 PUSH1 0x80 DUP4 ADD DUP6 PUSH2 0x31B3 JUMP JUMPDEST PUSH2 0x321D PUSH1 0xA0 DUP4 ADD DUP5 PUSH2 0x31B3 JUMP JUMPDEST SWAP8 SWAP7 POP POP POP POP POP POP POP JUMP JUMPDEST PUSH2 0x3231 DUP2 PUSH2 0x3096 JUMP JUMPDEST DUP2 EQ PUSH2 0x323B JUMPI PUSH0 DUP1 REVERT JUMPDEST POP JUMP JUMPDEST PUSH0 DUP2 CALLDATALOAD SWAP1 POP PUSH2 0x324C DUP2 PUSH2 0x3228 JUMP JUMPDEST SWAP3 SWAP2 POP POP JUMP JUMPDEST PUSH0 DUP1 PUSH1 0x40 DUP4 DUP6 SUB SLT ISZERO PUSH2 0x3268 JUMPI PUSH2 0x3267 PUSH2 0x2F2C JUMP JUMPDEST JUMPDEST PUSH0 PUSH2 0x3275 DUP6 DUP3 DUP7 ADD PUSH2 0x323E JUMP JUMPDEST SWAP3 POP POP PUSH1 0x20 PUSH2 0x3286 DUP6 DUP3 DUP7 ADD PUSH2 0x2F53 JUMP JUMPDEST SWAP2 POP POP SWAP3 POP SWAP3 SWAP1 POP JUMP JUMPDEST PUSH0 PUSH1 0xA0 DUP3 ADD SWAP1 POP PUSH2 0x32A3 PUSH0 DUP4 ADD DUP9 PUSH2 0x30A7 JUMP JUMPDEST PUSH2 0x32B0 PUSH1 0x20 DUP4 ADD DUP8 PUSH2 0x31B3 JUMP JUMPDEST PUSH2 0x32BD PUSH1 0x40 DUP4 ADD DUP7 PUSH2 0x31B3 JUMP JUMPDEST DUP2 DUP2 SUB PUSH1 0x60 DUP4 ADD MSTORE PUSH2 0x32CF DUP2 DUP6 PUSH2 0x317B JUMP JUMPDEST SWAP1 POP PUSH2 0x32DE PUSH1 0x80 DUP4 ADD DUP5 PUSH2 0x31B3 JUMP JUMPDEST SWAP7 SWAP6 POP POP POP POP POP POP JUMP JUMPDEST PUSH0 DUP2 ISZERO ISZERO SWAP1 POP SWAP2 SWAP1 POP JUMP JUMPDEST PUSH2 0x32FC DUP2 PUSH2 0x32E8 JUMP JUMPDEST DUP2 EQ PUSH2 0x3306 JUMPI PUSH0 DUP1 REVERT JUMPDEST POP JUMP JUMPDEST PUSH0 DUP2 CALLDATALOAD SWAP1 POP PUSH2 0x3317 DUP2 PUSH2 0x32F3 JUMP JUMPDEST SWAP3 SWAP2 POP POP JUMP JUMPDEST PUSH0 DUP1 PUSH0 PUSH1 0x60 DUP5 DUP7 SUB SLT ISZERO PUSH2 0x3334 JUMPI PUSH2 0x3333 PUSH2 0x2F2C JUMP JUMPDEST JUMPDEST PUSH0 PUSH2 0x3341 DUP7 DUP3 DUP8 ADD PUSH2 0x3309 JUMP JUMPDEST SWAP4 POP POP PUSH1 0x20 PUSH2 0x3352 DUP7 DUP3 DUP8 ADD PUSH2 0x2F53 JUMP JUMPDEST SWAP3 POP POP PUSH1 0x40 PUSH2 0x3363 DUP7 DUP3 DUP8 ADD PUSH2 0x323E JUMP JUMPDEST SWAP2 POP POP SWAP3 POP SWAP3 POP SWAP3 JUMP JUMPDEST PUSH1 0x3 DUP2 LT PUSH2 0x337E JUMPI PUSH2 0x337D PUSH2 0x30B6 JUMP JUMPDEST JUMPDEST POP JUMP JUMPDEST PUSH0 DUP2 SWAP1 POP PUSH2 0x338E DUP3 PUSH2 0x336D JUMP JUMPDEST SWAP2 SWAP1 POP JUMP JUMPDEST PUSH0 PUSH2 0x339D DUP3 PUSH2 0x3381 JUMP JUMPDEST SWAP1 POP SWAP2 SWAP1 POP JUMP JUMPDEST PUSH2 0x33AD DUP2 PUSH2 0x3393 JUMP JUMPDEST DUP3 MSTORE POP POP JUMP JUMPDEST PUSH0 PUSH1 0x40 DUP3 ADD SWAP1 POP PUSH2 0x33C6 PUSH0 DUP4 ADD DUP6 PUSH2 0x30A7 JUMP JUMPDEST PUSH2 0x33D3 PUSH1 0x20 DUP4 ADD DUP5 PUSH2 0x33A4 JUMP JUMPDEST SWAP4 SWAP3 POP POP POP JUMP JUMPDEST PUSH1 0x3 DUP2 LT PUSH2 0x33E6 JUMPI PUSH0 DUP1 REVERT JUMPDEST POP JUMP JUMPDEST PUSH0 DUP2 CALLDATALOAD SWAP1 POP PUSH2 0x33F7 DUP2 PUSH2 0x33DA JUMP JUMPDEST SWAP3 SWAP2 POP POP JUMP JUMPDEST PUSH0 PUSH1 0x20 DUP3 DUP5 SUB SLT ISZERO PUSH2 0x3412 JUMPI PUSH2 0x3411 PUSH2 0x2F2C JUMP JUMPDEST JUMPDEST PUSH0 PUSH2 0x341F DUP5 DUP3 DUP6 ADD PUSH2 0x33E9 JUMP JUMPDEST SWAP2 POP POP SWAP3 SWAP2 POP POP JUMP JUMPDEST PUSH0 DUP1 REVERT JUMPDEST PUSH32 0x4E487B7100000000000000000000000000000000000000000000000000000000 PUSH0 MSTORE PUSH1 0x41 PUSH1 0x4 MSTORE PUSH1 0x24 PUSH0 REVERT JUMPDEST PUSH2 0x3462 DUP3 PUSH2 0x316B JUMP JUMPDEST DUP2 ADD DUP2 DUP2 LT PUSH8 0xFFFFFFFFFFFFFFFF DUP3 GT OR ISZERO PUSH2 0x3481 JUMPI PUSH2 0x3480 PUSH2 0x342C JUMP JUMPDEST JUMPDEST DUP1 PUSH1 0x40 MSTORE POP POP POP JUMP JUMPDEST PUSH0 PUSH2 0x3493 PUSH2 0x2F23 JUMP JUMPDEST SWAP1 POP PUSH2 0x349F DUP3 DUP3 PUSH2 0x3459 JUMP JUMPDEST SWAP2 SWAP1 POP JUMP JUMPDEST PUSH0 PUSH8 0xFFFFFFFFFFFFFFFF DUP3 GT ISZERO PUSH2 0x34BE JUMPI PUSH2 0x34BD PUSH2 0x342C JUMP JUMPDEST JUMPDEST PUSH2 0x34C7 DUP3 PUSH2 0x316B JUMP JUMPDEST SWAP1 POP PUSH1 0x20 DUP2 ADD SWAP1 POP SWAP2 SWAP1 POP JUMP JUMPDEST DUP3 DUP2 DUP4 CALLDATACOPY PUSH0 DUP4 DUP4 ADD MSTORE POP POP POP JUMP JUMPDEST PUSH0 PUSH2 0x34F4 PUSH2 0x34EF DUP5 PUSH2 0x34A4 JUMP JUMPDEST PUSH2 0x348A JUMP JUMPDEST SWAP1 POP DUP3 DUP2 MSTORE PUSH1 0x20 DUP2 ADD DUP5 DUP5 DUP5 ADD GT ISZERO PUSH2 0x3510 JUMPI PUSH2 0x350F PUSH2 0x3428 JUMP JUMPDEST JUMPDEST PUSH2 0x351B DUP5 DUP3 DUP6 PUSH2 0x34D4 JUMP JUMPDEST POP SWAP4 SWAP3 POP POP POP JUMP JUMPDEST PUSH0 DUP3 PUSH1 0x1F DUP4 ADD SLT PUSH2 0x3537 JUMPI PUSH2 0x3536 PUSH2 0x2F67 JUMP JUMPDEST JUMPDEST DUP2 CALLDATALOAD PUSH2 0x3547 DUP5 DUP3 PUSH1 0x20 DUP7 ADD PUSH2 0x34E2 JUMP JUMPDEST SWAP2 POP POP SWAP3 SWAP2 POP POP JUMP JUMPDEST PUSH0 PUSH1 0x20 DUP3 DUP5 SUB SLT ISZERO PUSH2 0x3565 JUMPI PUSH2 0x3564 PUSH2 0x2F2C JUMP JUMPDEST JUMPDEST PUSH0 DUP3 ADD CALLDATALOAD PUSH8 0xFFFFFFFFFFFFFFFF DUP2 GT ISZERO PUSH2 0x3582 JUMPI PUSH2 0x3581 PUSH2 0x2F30 JUMP JUMPDEST JUMPDEST PUSH2 0x358E DUP5 DUP3 DUP6 ADD PUSH2 0x3523 JUMP JUMPDEST SWAP2 POP POP SWAP3 SWAP2 POP POP JUMP JUMPDEST PUSH0 PUSH1 0x20 DUP3 ADD SWAP1 POP DUP2 DUP2 SUB PUSH0 DUP4 ADD MSTORE PUSH2 0x35AF DUP2 DUP5 PUSH2 0x317B JUMP JUMPDEST SWAP1 POP SWAP3 SWAP2 POP POP JUMP JUMPDEST PUSH0 DUP1 PUSH0 PUSH1 0x60 DUP5 DUP7 SUB SLT ISZERO PUSH2 0x35CE JUMPI PUSH2 0x35CD PUSH2 0x2F2C JUMP JUMPDEST JUMPDEST PUSH0 PUSH2 0x35DB DUP7 DUP3 DUP8 ADD PUSH2 0x323E JUMP JUMPDEST SWAP4 POP POP PUSH1 0x20 PUSH2 0x35EC DUP7 DUP3 DUP8 ADD PUSH2 0x2F53 JUMP JUMPDEST SWAP3 POP POP PUSH1 0x40 PUSH2 0x35FD DUP7 DUP3 DUP8 ADD PUSH2 0x2F53 JUMP JUMPDEST SWAP2 POP POP SWAP3 POP SWAP3 POP SWAP3 JUMP JUMPDEST PUSH0 PUSH1 0x20 DUP3 ADD SWAP1 POP PUSH2 0x361A PUSH0 DUP4 ADD DUP5 PUSH2 0x31B3 JUMP JUMPDEST SWAP3 SWAP2 POP POP JUMP JUMPDEST PUSH0 DUP1 PUSH0 DUP1 PUSH0 DUP1 PUSH1 0xA0 DUP8 DUP10 SUB SLT ISZERO PUSH2 0x363A JUMPI PUSH2 0x3639 PUSH2 0x2F2C JUMP JUMPDEST JUMPDEST PUSH0 PUSH2 0x3647 DUP10 DUP3 DUP11 ADD PUSH2 0x2F53 JUMP JUMPDEST SWAP7 POP POP PUSH1 0x20 PUSH2 0x3658 DUP10 DUP3 DUP11 ADD PUSH2 0x2F53 JUMP JUMPDEST SWAP6 POP POP PUSH1 0x40 DUP8 ADD CALLDATALOAD PUSH8 0xFFFFFFFFFFFFFFFF DUP2 GT ISZERO PUSH2 0x3679 JUMPI PUSH2 0x3678 PUSH2 0x2F30 JUMP JUMPDEST JUMPDEST PUSH2 0x3685 DUP10 DUP3 DUP11 ADD PUSH2 0x2F73 JUMP JUMPDEST SWAP5 POP SWAP5 POP POP PUSH1 0x60 PUSH2 0x3698 DUP10 DUP3 DUP11 ADD PUSH2 0x2F53 JUMP JUMPDEST SWAP3 POP POP PUSH1 0x80 PUSH2 0x36A9 DUP10 DUP3 DUP11 ADD PUSH2 0x323E JUMP JUMPDEST SWAP2 POP POP SWAP3 SWAP6 POP SWAP3 SWAP6 POP SWAP3 SWAP6 JUMP JUMPDEST PUSH0 PUSH1 0x20 DUP3 ADD SWAP1 POP PUSH2 0x36C9 PUSH0 DUP4 ADD DUP5 PUSH2 0x30A7 JUMP JUMPDEST SWAP3 SWAP2 POP POP JUMP JUMPDEST PUSH0 DUP1 PUSH0 DUP1 PUSH1 0x80 DUP6 DUP8 SUB SLT ISZERO PUSH2 0x36E7 JUMPI PUSH2 0x36E6 PUSH2 0x2F2C JUMP JUMPDEST JUMPDEST PUSH0 PUSH2 0x36F4 DUP8 DUP3 DUP9 ADD PUSH2 0x323E JUMP JUMPDEST SWAP5 POP POP PUSH1 0x20 PUSH2 0x3705 DUP8 DUP3 DUP9 ADD PUSH2 0x2F53 JUMP JUMPDEST SWAP4 POP POP PUSH1 0x40 PUSH2 0x3716 DUP8 DUP3 DUP9 ADD PUSH2 0x2F53 JUMP JUMPDEST SWAP3 POP POP PUSH1 0x60 DUP6 ADD CALLDATALOAD PUSH8 0xFFFFFFFFFFFFFFFF DUP2 GT ISZERO PUSH2 0x3737 JUMPI PUSH2 0x3736 PUSH2 0x2F30 JUMP JUMPDEST JUMPDEST PUSH2 0x3743 DUP8 DUP3 DUP9 ADD PUSH2 0x3523 JUMP JUMPDEST SWAP2 POP POP SWAP3 SWAP6 SWAP2 SWAP5 POP SWAP3 POP JUMP JUMPDEST PUSH0 DUP1 PUSH1 0x40 DUP4 DUP6 SUB SLT ISZERO PUSH2 0x3765 JUMPI PUSH2 0x3764 PUSH2 0x2F2C JUMP JUMPDEST JUMPDEST PUSH0 DUP4 ADD CALLDATALOAD PUSH8 0xFFFFFFFFFFFFFFFF DUP2 GT ISZERO PUSH2 0x3782 JUMPI PUSH2 0x3781 PUSH2 0x2F30 JUMP JUMPDEST JUMPDEST PUSH2 0x378E DUP6 DUP3 DUP7 ADD PUSH2 0x3523 JUMP JUMPDEST SWAP3 POP POP PUSH1 0x20 PUSH2 0x379F DUP6 DUP3 DUP7 ADD PUSH2 0x323E JUMP JUMPDEST SWAP2 POP POP SWAP3 POP SWAP3 SWAP1 POP JUMP JUMPDEST PUSH0 PUSH1 0x20 DUP3 DUP5 SUB SLT ISZERO PUSH2 0x37BE JUMPI PUSH2 0x37BD PUSH2 0x2F2C JUMP JUMPDEST JUMPDEST PUSH0 PUSH2 0x37CB DUP5 DUP3 DUP6 ADD PUSH2 0x323E JUMP JUMPDEST SWAP2 POP POP SWAP3 SWAP2 POP POP JUMP JUMPDEST PUSH0 PUSH1 0x40 DUP3 ADD SWAP1 POP PUSH2 0x37E7 PUSH0 DUP4 ADD DUP6 PUSH2 0x33A4 JUMP JUMPDEST PUSH2 0x37F4 PUSH1 0x20 DUP4 ADD DUP5 PUSH2 0x31B3 JUMP JUMPDEST SWAP4 SWAP3 POP POP POP JUMP JUMPDEST PUSH0 DUP1 PUSH1 0x40 DUP4 DUP6 SUB SLT ISZERO PUSH2 0x3811 JUMPI PUSH2 0x3810 PUSH2 0x2F2C JUMP JUMPDEST JUMPDEST PUSH0 PUSH2 0x381E DUP6 DUP3 DUP7 ADD PUSH2 0x3309 JUMP JUMPDEST SWAP3 POP POP PUSH1 0x20 PUSH2 0x382F DUP6 DUP3 DUP7 ADD PUSH2 0x2F53 JUMP JUMPDEST SWAP2 POP POP SWAP3 POP SWAP3 SWAP1 POP JUMP JUMPDEST PUSH0 DUP1 PUSH0 DUP1 PUSH1 0x80 DUP6 DUP8 SUB SLT ISZERO PUSH2 0x3851 JUMPI PUSH2 0x3850 PUSH2 0x2F2C JUMP JUMPDEST JUMPDEST PUSH0 PUSH2 0x385E DUP8 DUP3 DUP9 ADD PUSH2 0x323E JUMP JUMPDEST SWAP5 POP POP PUSH1 0x20 PUSH2 0x386F DUP8 DUP3 DUP9 ADD PUSH2 0x2F53 JUMP JUMPDEST SWAP4 POP POP PUSH1 0x40 PUSH2 0x3880 DUP8 DUP3 DUP9 ADD PUSH2 0x2F53 JUMP JUMPDEST SWAP3 POP POP PUSH1 0x60 PUSH2 0x3891 DUP8 DUP3 DUP9 ADD PUSH2 0x323E JUMP JUMPDEST SWAP2 POP POP SWAP3 SWAP6 SWAP2 SWAP5 POP SWAP3 POP JUMP JUMPDEST PUSH32 0x4E487B7100000000000000000000000000000000000000000000000000000000 PUSH0 MSTORE PUSH1 0x12 PUSH1 0x4 MSTORE PUSH1 0x24 PUSH0 REVERT JUMPDEST PUSH32 0x4E487B7100000000000000000000000000000000000000000000000000000000 PUSH0 MSTORE PUSH1 0x11 PUSH1 0x4 MSTORE PUSH1 0x24 PUSH0 REVERT JUMPDEST PUSH0 PUSH2 0x3901 DUP3 PUSH2 0x2F34 JUMP JUMPDEST SWAP2 POP PUSH2 0x390C DUP4 PUSH2 0x2F34 JUMP JUMPDEST SWAP3 POP DUP3 PUSH2 0x391C JUMPI PUSH2 0x391B PUSH2 0x389D JUMP JUMPDEST JUMPDEST DUP3 DUP3 DIV SWAP1 POP SWAP3 SWAP2 POP POP JUMP JUMPDEST PUSH32 0x4E487B7100000000000000000000000000000000000000000000000000000000 PUSH0 MSTORE PUSH1 0x22 PUSH1 0x4 MSTORE PUSH1 0x24 PUSH0 REVERT JUMPDEST PUSH0 PUSH1 0x2 DUP3 DIV SWAP1 POP PUSH1 0x1 DUP3 AND DUP1 PUSH2 0x396B JUMPI PUSH1 0x7F DUP3 AND SWAP2 POP JUMPDEST PUSH1 0x20 DUP3 LT DUP2 SUB PUSH2 0x397E JUMPI PUSH2 0x397D PUSH2 0x3927 JUMP JUMPDEST JUMPDEST POP SWAP2 SWAP1 POP JUMP JUMPDEST PUSH0 DUP2 SWAP1 POP DUP2 PUSH0 MSTORE PUSH1 0x20 PUSH0 KECCAK256 SWAP1 POP SWAP2 SWAP1 POP JUMP JUMPDEST PUSH0 PUSH1 0x20 PUSH1 0x1F DUP4 ADD DIV SWAP1 POP SWAP2 SWAP1 POP JUMP JUMPDEST PUSH0 DUP3 DUP3 SHL SWAP1 POP SWAP3 SWAP2 POP POP JUMP JUMPDEST PUSH0 PUSH1 0x8 DUP4 MUL PUSH2 0x39E0 PUSH32 0xFFFFFFFFFFFFFFFFFFFFFFFFFFFFFFFFFFFFFFFFFFFFFFFFFFFFFFFFFFFFFFFF DUP3 PUSH2 0x39A5 JUMP JUMPDEST PUSH2 0x39EA DUP7 DUP4 PUSH2 0x39A5 JUMP JUMPDEST SWAP6 POP DUP1 NOT DUP5 AND SWAP4 POP DUP1 DUP7 AND DUP5 OR SWAP3 POP POP POP SWAP4 SWAP3 POP POP POP JUMP JUMPDEST PUSH0 DUP2 SWAP1 POP SWAP2 SWAP1 POP JUMP JUMPDEST PUSH0 PUSH2 0x3A25 PUSH2 0x3A20 PUSH2 0x3A1B DUP5 PUSH2 0x2F34 JUMP JUMPDEST PUSH2 0x3A02 JUMP JUMPDEST PUSH2 0x2F34 JUMP JUMPDEST SWAP1 POP SWAP2 SWAP1 POP JUMP JUMPDEST PUSH0 DUP2 SWAP1 POP SWAP2 SWAP1 POP JUMP JUMPDEST PUSH2 0x3A3E DUP4 PUSH2 0x3A0B JUMP JUMPDEST PUSH2 0x3A52 PUSH2 0x3A4A DUP3 PUSH2 0x3A2C JUMP JUMPDEST DUP5 DUP5 SLOAD PUSH2 0x39B1 JUMP JUMPDEST DUP3 SSTORE POP POP POP POP JUMP JUMPDEST PUSH0 SWAP1 JUMP JUMPDEST PUSH2 0x3A66 PUSH2 0x3A5A JUMP JUMPDEST PUSH2 0x3A71 DUP2 DUP5 DUP5 PUSH2 0x3A35 JUMP JUMPDEST POP POP POP JUMP JUMPDEST JUMPDEST DUP2 DUP2 LT ISZERO PUSH2 0x3A94 JUMPI PUSH2 0x3A89 PUSH0 DUP3 PUSH2 0x3A5E JUMP JUMPDEST PUSH1 0x1 DUP2 ADD SWAP1 POP PUSH2 0x3A77 JUMP JUMPDEST POP POP JUMP JUMPDEST PUSH1 0x1F DUP3 GT ISZERO PUSH2 0x3AD9 JUMPI PUSH2 0x3AAA DUP2 PUSH2 0x3984 JUMP JUMPDEST PUSH2 0x3AB3 DUP5 PUSH2 0x3996 JUMP JUMPDEST DUP2 ADD PUSH1 0x20 DUP6 LT ISZERO PUSH2 0x3AC2 JUMPI DUP2 SWAP1 POP JUMPDEST PUSH2 0x3AD6 PUSH2 0x3ACE DUP6 PUSH2 0x3996 JUMP JUMPDEST DUP4 ADD DUP3 PUSH2 0x3A76 JUMP JUMPDEST POP POP JUMPDEST POP POP POP JUMP JUMPDEST PUSH0 DUP3 DUP3 SHR SWAP1 POP SWAP3 SWAP2 POP POP JUMP JUMPDEST PUSH0 PUSH2 0x3AF9 PUSH0 NOT DUP5 PUSH1 0x8 MUL PUSH2 0x3ADE JUMP JUMPDEST NOT DUP1 DUP4 AND SWAP2 POP POP SWAP3 SWAP2 POP POP JUMP JUMPDEST PUSH0 PUSH2 0x3B11 DUP4 DUP4 PUSH2 0x3AEA JUMP JUMPDEST SWAP2 POP DUP3 PUSH1 0x2 MUL DUP3 OR SWAP1 POP SWAP3 SWAP2 POP POP JUMP JUMPDEST PUSH2 0x3B2A DUP3 PUSH2 0x3129 JUMP JUMPDEST PUSH8 0xFFFFFFFFFFFFFFFF DUP2 GT ISZERO PUSH2 0x3B43 JUMPI PUSH2 0x3B42 PUSH2 0x342C JUMP JUMPDEST JUMPDEST PUSH2 0x3B4D DUP3 SLOAD PUSH2 0x3954 JUMP JUMPDEST PUSH2 0x3B58 DUP3 DUP3 DUP6 PUSH2 0x3A98 JUMP JUMPDEST PUSH0 PUSH1 0x20 SWAP1 POP PUSH1 0x1F DUP4 GT PUSH1 0x1 DUP2 EQ PUSH2 0x3B89 JUMPI PUSH0 DUP5 ISZERO PUSH2 0x3B77 JUMPI DUP3 DUP8 ADD MLOAD SWAP1 POP JUMPDEST PUSH2 0x3B81 DUP6 DUP3 PUSH2 0x3B06 JUMP JUMPDEST DUP7 SSTORE POP PUSH2 0x3BE8 JUMP JUMPDEST PUSH1 0x1F NOT DUP5 AND PUSH2 0x3B97 DUP7 PUSH2 0x3984 JUMP JUMPDEST PUSH0 JUMPDEST DUP3 DUP2 LT ISZERO PUSH2 0x3BBE JUMPI DUP5 DUP10 ADD MLOAD DUP3 SSTORE PUSH1 0x1 DUP3 ADD SWAP2 POP PUSH1 0x20 DUP6 ADD SWAP5 POP PUSH1 0x20 DUP2 ADD SWAP1 POP PUSH2 0x3B99 JUMP JUMPDEST DUP7 DUP4 LT ISZERO PUSH2 0x3BDB JUMPI DUP5 DUP10 ADD MLOAD PUSH2 0x3BD7 PUSH1 0x1F DUP10 AND DUP3 PUSH2 0x3AEA JUMP JUMPDEST DUP4 SSTORE POP JUMPDEST PUSH1 0x1 PUSH1 0x2 DUP9 MUL ADD DUP9 SSTORE POP POP POP JUMPDEST POP POP POP POP POP POP JUMP JUMPDEST PUSH32 0x4E487B7100000000000000000000000000000000000000000000000000000000 PUSH0 MSTORE PUSH1 0x32 PUSH1 0x4 MSTORE PUSH1 0x24 PUSH0 REVERT JUMPDEST PUSH0 PUSH2 0x3C27 DUP3 PUSH2 0x2F34 JUMP JUMPDEST SWAP2 POP PUSH2 0x3C32 DUP4 PUSH2 0x2F34 JUMP JUMPDEST SWAP3 POP DUP3 DUP3 MUL PUSH2 0x3C40 DUP2 PUSH2 0x2F34 JUMP JUMPDEST SWAP2 POP DUP3 DUP3 DIV DUP5 EQ DUP4 ISZERO OR PUSH2 0x3C57 JUMPI PUSH2 0x3C56 PUSH2 0x38CA JUMP JUMPDEST JUMPDEST POP SWAP3 SWAP2 POP POP JUMP JUMPDEST PUSH0 PUSH2 0x3C68 DUP3 PUSH2 0x2F34 JUMP JUMPDEST SWAP2 POP PUSH2 0x3C73 DUP4 PUSH2 0x2F34 JUMP JUMPDEST SWAP3 POP DUP3 DUP3 ADD SWAP1 POP DUP1 DUP3 GT ISZERO PUSH2 0x3C8B JUMPI PUSH2 0x3C8A PUSH2 0x38CA JUMP JUMPDEST JUMPDEST SWAP3 SWAP2 POP POP JUMP JUMPDEST PUSH0 PUSH2 0x3C9B DUP3 PUSH2 0x2F34 JUMP JUMPDEST SWAP2 POP PUSH2 0x3CA6 DUP4 PUSH2 0x2F34 JUMP JUMPDEST SWAP3 POP DUP3 DUP3 SUB SWAP1 POP DUP2 DUP2 GT ISZERO PUSH2 0x3CBE JUMPI PUSH2 0x3CBD PUSH2 0x38CA JUMP JUMPDEST JUMPDEST SWAP3 SWAP2 POP POP JUMP JUMPDEST PUSH0 PUSH1 0xFF DUP3 AND SWAP1 POP SWAP2 SWAP1 POP JUMP JUMPDEST PUSH0 PUSH2 0x3CDA DUP3 PUSH2 0x3CC4 JUMP JUMPDEST SWAP2 POP PUSH2 0x3CE5 DUP4 PUSH2 0x3CC4 JUMP JUMPDEST SWAP3 POP DUP3 DUP3 SUB SWAP1 POP PUSH1 0xFF DUP2 GT ISZERO PUSH2 0x3CFE JUMPI PUSH2 0x3CFD PUSH2 0x38CA JUMP JUMPDEST JUMPDEST SWAP3 SWAP2 POP POP JUMP JUMPDEST PUSH0 PUSH2 0x3D0E DUP3 PUSH2 0x2F34 JUMP JUMPDEST SWAP2 POP PUSH32 0xFFFFFFFFFFFFFFFFFFFFFFFFFFFFFFFFFFFFFFFFFFFFFFFFFFFFFFFFFFFFFFFF DUP3 SUB PUSH2 0x3D40 JUMPI PUSH2 0x3D3F PUSH2 0x38CA JUMP JUMPDEST JUMPDEST PUSH1 0x1 DUP3 ADD SWAP1 POP SWAP2 SWAP1 POP JUMP JUMPDEST PUSH32 0x507572636861736520616D6F756E74206D757374206265206772656174657220 PUSH0 DUP3 ADD MSTORE PUSH32 0x7468616E20300000000000000000000000000000000000000000000000000000 PUSH1 0x20 DUP3 ADD MSTORE POP JUMP JUMPDEST PUSH0 PUSH2 0x3DA5 PUSH1 0x26 DUP4 PUSH2 0x3133 JUMP JUMPDEST SWAP2 POP PUSH2 0x3DB0 DUP3 PUSH2 0x3D4B JUMP JUMPDEST PUSH1 0x40 DUP3 ADD SWAP1 POP SWAP2 SWAP1 POP JUMP JUMPDEST PUSH0 PUSH1 0x20 DUP3 ADD SWAP1 POP DUP2 DUP2 SUB PUSH0 DUP4 ADD MSTORE PUSH2 0x3DD2 DUP2 PUSH2 0x3D99 JUMP JUMPDEST SWAP1 POP SWAP2 SWAP1 POP JUMP JUMPDEST PUSH32 0x496E76616C69642070726F647563742049440000000000000000000000000000 PUSH0 DUP3 ADD MSTORE POP JUMP JUMPDEST PUSH0 PUSH2 0x3E0D PUSH1 0x12 DUP4 PUSH2 0x3133 JUMP JUMPDEST SWAP2 POP PUSH2 0x3E18 DUP3 PUSH2 0x3DD9 JUMP JUMPDEST PUSH1 0x20 DUP3 ADD SWAP1 POP SWAP2 SWAP1 POP JUMP JUMPDEST PUSH0 PUSH1 0x20 DUP3 ADD SWAP1 POP DUP2 DUP2 SUB PUSH0 DUP4 ADD MSTORE PUSH2 0x3E3A DUP2 PUSH2 0x3E01 JUMP JUMPDEST SWAP1 POP SWAP2 SWAP1 POP JUMP JUMPDEST PUSH32 0x4141000000000000000000000000000000000000000000000000000000000000 DUP2 MSTORE POP JUMP JUMPDEST PUSH0 DUP2 SWAP1 POP SWAP3 SWAP2 POP POP JUMP JUMPDEST PUSH0 PUSH2 0x3E7B DUP3 PUSH2 0x3129 JUMP JUMPDEST PUSH2 0x3E85 DUP2 DUP6 PUSH2 0x3E67 JUMP JUMPDEST SWAP4 POP PUSH2 0x3E95 DUP2 DUP6 PUSH1 0x20 DUP7 ADD PUSH2 0x3143 JUMP JUMPDEST DUP1 DUP5 ADD SWAP2 POP POP SWAP3 SWAP2 POP POP JUMP JUMPDEST PUSH32 0x4242000000000000000000000000000000000000000000000000000000000000 DUP2 MSTORE POP JUMP JUMPDEST PUSH0 PUSH2 0x3ED1 DUP3 PUSH2 0x3E41 JUMP JUMPDEST PUSH1 0x2 DUP3 ADD SWAP2 POP PUSH2 0x3EE1 DUP3 DUP5 PUSH2 0x3E71 JUMP JUMPDEST SWAP2 POP PUSH2 0x3EEC DUP3 PUSH2 0x3EA1 JUMP JUMPDEST PUSH1 0x2 DUP3 ADD SWAP2 POP DUP2 SWAP1 POP SWAP3 SWAP2 POP POP JUMP JUMPDEST PUSH0 DUP2 SWAP1 POP SWAP2 SWAP1 POP JUMP JUMPDEST PUSH2 0x3F15 PUSH2 0x3F10 DUP3 PUSH2 0x2F34 JUMP JUMPDEST PUSH2 0x3EFB JUMP JUMPDEST DUP3 MSTORE POP POP JUMP JUMPDEST PUSH0 DUP2 PUSH1 0x60 SHL SWAP1 POP SWAP2 SWAP1 POP JUMP JUMPDEST PUSH0 PUSH2 0x3F31 DUP3 PUSH2 0x3F1B JUMP JUMPDEST SWAP1 POP SWAP2 SWAP1 POP JUMP JUMPDEST PUSH0 PUSH2 0x3F42 DUP3 PUSH2 0x3F27 JUMP JUMPDEST SWAP1 POP SWAP2 SWAP1 POP JUMP JUMPDEST PUSH2 0x3F5A PUSH2 0x3F55 DUP3 PUSH2 0x3096 JUMP JUMPDEST PUSH2 0x3F38 JUMP JUMPDEST DUP3 MSTORE POP POP JUMP JUMPDEST PUSH0 PUSH2 0x3F6B DUP3 DUP7 PUSH2 0x3F04 JUMP JUMPDEST PUSH1 0x20 DUP3 ADD SWAP2 POP PUSH2 0x3F7B DUP3 DUP6 PUSH2 0x3F49 JUMP JUMPDEST PUSH1 0x14 DUP3 ADD SWAP2 POP PUSH2 0x3F8B DUP3 DUP5 PUSH2 0x3F04 JUMP JUMPDEST PUSH1 0x20 DUP3 ADD SWAP2 POP DUP2 SWAP1 POP SWAP5 SWAP4 POP POP POP POP JUMP JUMPDEST PUSH0 PUSH2 0x3FA6 DUP3 PUSH2 0x2F34 JUMP JUMPDEST SWAP2 POP PUSH2 0x3FB1 DUP4 PUSH2 0x2F34 JUMP JUMPDEST SWAP3 POP DUP3 PUSH2 0x3FC1 JUMPI PUSH2 0x3FC0 PUSH2 0x389D JUMP JUMPDEST JUMPDEST DUP3 DUP3 MOD SWAP1 POP SWAP3 SWAP2 POP POP JUMP JUMPDEST PUSH32 0xD092D0B0D188D0B020D180D0BED0BBD18C20D0BDD0B520D0BFD0BED0B7D0B2D0 PUSH0 DUP3 ADD MSTORE PUSH32 0xBED0BBD18FD0B5D18220D18DD182D0BE20D0B8D0B7D0BCD0B5D0BDD18FD182D1 PUSH1 0x20 DUP3 ADD MSTORE PUSH32 0x8C00000000000000000000000000000000000000000000000000000000000000 PUSH1 0x40 DUP3 ADD MSTORE POP JUMP JUMPDEST PUSH0 PUSH2 0x404C PUSH1 0x41 DUP4 PUSH2 0x3133 JUMP JUMPDEST SWAP2 POP PUSH2 0x4057 DUP3 PUSH2 0x3FCC JUMP JUMPDEST PUSH1 0x60 DUP3 ADD SWAP1 POP SWAP2 SWAP1 POP JUMP JUMPDEST PUSH0 PUSH1 0x20 DUP3 ADD SWAP1 POP DUP2 DUP2 SUB PUSH0 DUP4 ADD MSTORE PUSH2 0x4079 DUP2 PUSH2 0x4040 JUMP JUMPDEST SWAP1 POP SWAP2 SWAP1 POP JUMP JUMPDEST PUSH32 0xD09CD0B0D0B3D0B0D0B7D0B8D0BD20D0BDD0B520D181D0BED0BED182D0B2D0B5 PUSH0 DUP3 ADD MSTORE PUSH32 0xD182D181D0B2D183D0B5D18220D0BED182D0BFD180D0B0D0B2D0B8D182D0B5D0 PUSH1 0x20 DUP3 ADD MSTORE PUSH32 0xBBD18E0000000000000000000000000000000000000000000000000000000000 PUSH1 0x40 DUP3 ADD MSTORE POP JUMP JUMPDEST PUSH0 PUSH2 0x4100 PUSH1 0x43 DUP4 PUSH2 0x3133 JUMP JUMPDEST SWAP2 POP PUSH2 0x410B DUP3 PUSH2 0x4080 JUMP JUMPDEST PUSH1 0x60 DUP3 ADD SWAP1 POP SWAP2 SWAP1 POP JUMP JUMPDEST PUSH0 PUSH1 0x20 DUP3 ADD SWAP1 POP DUP2 DUP2 SUB PUSH0 DUP4 ADD MSTORE PUSH2 0x412D DUP2 PUSH2 0x40F4 JUMP JUMPDEST SWAP1 POP SWAP2 SWAP1 POP JUMP JUMPDEST PUSH32 0x4E6F7420656E6F7567682073746F636B20617661696C61626C65000000000000 PUSH0 DUP3 ADD MSTORE POP JUMP JUMPDEST PUSH0 PUSH2 0x4168 PUSH1 0x1A DUP4 PUSH2 0x3133 JUMP JUMPDEST SWAP2 POP PUSH2 0x4173 DUP3 PUSH2 0x4134 JUMP JUMPDEST PUSH1 0x20 DUP3 ADD SWAP1 POP SWAP2 SWAP1 POP JUMP JUMPDEST PUSH0 PUSH1 0x20 DUP3 ADD SWAP1 POP DUP2 DUP2 SUB PUSH0 DUP4 ADD MSTORE PUSH2 0x4195 DUP2 PUSH2 0x415C JUMP JUMPDEST SWAP1 POP SWAP2 SWAP1 POP JUMP JUMPDEST PUSH0 PUSH2 0x41A7 DUP3 DUP5 PUSH2 0x3E71 JUMP JUMPDEST SWAP2 POP DUP2 SWAP1 POP SWAP3 SWAP2 POP POP JUMP JUMPDEST PUSH32 0x496E73756666696369656E742066756E64732073656E74000000000000000000 PUSH0 DUP3 ADD MSTORE POP JUMP JUMPDEST PUSH0 PUSH2 0x41E6 PUSH1 0x17 DUP4 PUSH2 0x3133 JUMP JUMPDEST SWAP2 POP PUSH2 0x41F1 DUP3 PUSH2 0x41B2 JUMP JUMPDEST PUSH1 0x20 DUP3 ADD SWAP1 POP SWAP2 SWAP1 POP JUMP JUMPDEST PUSH0 PUSH1 0x20 DUP3 ADD SWAP1 POP DUP2 DUP2 SUB PUSH0 DUP4 ADD MSTORE PUSH2 0x4213 DUP2 PUSH2 0x41DA JUMP JUMPDEST SWAP1 POP SWAP2 SWAP1 POP JUMP JUMPDEST PUSH0 DUP2 SWAP1 POP SWAP3 SWAP2 POP POP JUMP JUMPDEST PUSH0 DUP2 SWAP1 POP DUP2 PUSH0 MSTORE PUSH1 0x20 PUSH0 KECCAK256 SWAP1 POP SWAP2 SWAP1 POP JUMP JUMPDEST PUSH0 DUP2 SLOAD PUSH2 0x4242 DUP2 PUSH2 0x3954 JUMP JUMPDEST PUSH2 0x424C DUP2 DUP7 PUSH2 0x421A JUMP JUMPDEST SWAP5 POP PUSH1 0x1 DUP3 AND PUSH0 DUP2 EQ PUSH2 0x4266 JUMPI PUSH1 0x1 DUP2 EQ PUSH2 0x427B JUMPI PUSH2 0x42AD JUMP JUMPDEST PUSH1 0xFF NOT DUP4 AND DUP7 MSTORE DUP2 ISZERO ISZERO DUP3 MUL DUP7 ADD SWAP4 POP PUSH2 0x42AD JUMP JUMPDEST PUSH2 0x4284 DUP6 PUSH2 0x4224 JUMP JUMPDEST PUSH0 JUMPDEST DUP4 DUP2 LT ISZERO PUSH2 0x42A5 JUMPI DUP2 SLOAD DUP2 DUP10 ADD MSTORE PUSH1 0x1 DUP3 ADD SWAP2 POP PUSH1 0x20 DUP2 ADD SWAP1 POP PUSH2 0x4286 JUMP JUMPDEST DUP4 DUP9 ADD SWAP6 POP POP POP JUMPDEST POP POP POP SWAP3 SWAP2 POP POP JUMP JUMPDEST PUSH0 PUSH2 0x42C1 DUP3 DUP5 PUSH2 0x4236 JUMP JUMPDEST SWAP2 POP DUP2 SWAP1 POP SWAP3 SWAP2 POP POP JUMP INVALID LOG2 PUSH5 0x6970667358 0x22 SLT KECCAK256 GAS 0xEB 0x28 CODECOPY 0xDE LOG4 CALLER ORIGIN 0xD8 ADDMOD 0xB2 0xD2 DUP11 0x23 0xEF DUP14 0x4E 0xBD 0xCF PUSH22 0x64CAA0413464CFE4969D1BF264736F6C634300081500 CALLER "
				},
				"gasEstimates": {
					"creation": {
						"codeDepositCost": "3430800",
						"executionCost": "28099",
						"totalCost": "3458899"
					},
					"external": {
						"acceptDelivery(bool,uint256)": "infinite",
						"addItemsMarket(uint256,uint256,string,uint256)": "infinite",
						"addItemsSupplier(uint256,uint256,string,uint256,address)": "infinite",
						"approveChangeRole(uint256)": "35683",
						"approveDelivery(bool,uint256,address)": "27379",
						"changeRole(uint8)": "73488",
						"deliveryOrders(uint256)": "infinite",
						"genRef(string,address)": "infinite",
						"makeDelivery(address,uint256,uint256)": "infinite",
						"makeMarket()": "29777",
						"makeSupplier()": "29756",
						"makeUser()": "29732",
						"marketProducts(address,uint256)": "infinite",
						"owner()": "2619",
						"purchase(address,uint256,uint256,string)": "infinite",
						"randMod(uint256)": "infinite",
						"referrals(string)": "infinite",
						"refillStore(address,uint256,uint256,address)": "infinite",
						"refund(address,uint256)": "infinite",
						"supplierProducts(address,uint256)": "infinite",
						"tickets(uint256)": "7423",
						"toUpper(string)": "infinite",
						"userProducts(address,uint256)": "infinite",
						"users(address)": "5222",
						"withdrawBal(address)": "infinite"
					}
				},
				"methodIdentifiers": {
					"acceptDelivery(bool,uint256)": "da76af31",
					"addItemsMarket(uint256,uint256,string,uint256)": "008de16a",
					"addItemsSupplier(uint256,uint256,string,uint256,address)": "861c2b6d",
					"approveChangeRole(uint256)": "6f764708",
					"approveDelivery(bool,uint256,address)": "4bd4b507",
					"changeRole(uint8)": "55dea0b3",
					"deliveryOrders(uint256)": "1cc11721",
					"genRef(string,address)": "a1ba90b6",
					"makeDelivery(address,uint256,uint256)": "7555bf10",
					"makeMarket()": "66d0dc67",
					"makeSupplier()": "3dfe7dee",
					"makeUser()": "d18a524a",
					"marketProducts(address,uint256)": "4f424547",
					"owner()": "8da5cb5b",
					"purchase(address,uint256,uint256,string)": "9f1cd587",
					"randMod(uint256)": "805553e8",
					"referrals(string)": "d55768dd",
					"refillStore(address,uint256,uint256,address)": "fecd8f79",
					"refund(address,uint256)": "410085df",
					"supplierProducts(address,uint256)": "27b90b1b",
					"tickets(uint256)": "50b44712",
					"toUpper(string)": "62dd748c",
					"userProducts(address,uint256)": "3d527883",
					"users(address)": "a87430ba",
					"withdrawBal(address)": "f67a2ad1"
				}
			},
			"storageLayout": {
				"storage": [
					{
						"astId": 14,
						"contract": "contracts/Test.sol:MarketPlace",
						"label": "tickets",
						"offset": 0,
						"slot": "0",
						"type": "t_array(t_struct(Ticket)49_storage)dyn_storage"
					},
					{
						"astId": 16,
						"contract": "contracts/Test.sol:MarketPlace",
						"label": "owner",
						"offset": 0,
						"slot": "1",
						"type": "t_address"
					},
					{
						"astId": 20,
						"contract": "contracts/Test.sol:MarketPlace",
						"label": "deliveryOrders",
						"offset": 0,
						"slot": "2",
						"type": "t_array(t_struct(DeliveryOrder)43_storage)dyn_storage"
					},
					{
						"astId": 71,
						"contract": "contracts/Test.sol:MarketPlace",
						"label": "users",
						"offset": 0,
						"slot": "3",
						"type": "t_mapping(t_address,t_struct(User)55_storage)"
					},
					{
						"astId": 77,
						"contract": "contracts/Test.sol:MarketPlace",
						"label": "userProducts",
						"offset": 0,
						"slot": "4",
						"type": "t_mapping(t_address,t_array(t_struct(Product)66_storage)dyn_storage)"
					},
					{
						"astId": 83,
						"contract": "contracts/Test.sol:MarketPlace",
						"label": "marketProducts",
						"offset": 0,
						"slot": "5",
						"type": "t_mapping(t_address,t_array(t_struct(Product)66_storage)dyn_storage)"
					},
					{
						"astId": 89,
						"contract": "contracts/Test.sol:MarketPlace",
						"label": "supplierProducts",
						"offset": 0,
						"slot": "6",
						"type": "t_mapping(t_address,t_array(t_struct(Product)66_storage)dyn_storage)"
					},
					{
						"astId": 93,
						"contract": "contracts/Test.sol:MarketPlace",
						"label": "referrals",
						"offset": 0,
						"slot": "7",
						"type": "t_mapping(t_string_memory_ptr,t_address)"
					}
				],
				"types": {
					"t_address": {
						"encoding": "inplace",
						"label": "address",
						"numberOfBytes": "20"
					},
					"t_array(t_struct(DeliveryOrder)43_storage)dyn_storage": {
						"base": "t_struct(DeliveryOrder)43_storage",
						"encoding": "dynamic_array",
						"label": "struct MarketPlace.DeliveryOrder[]",
						"numberOfBytes": "32"
					},
					"t_array(t_struct(Product)66_storage)dyn_storage": {
						"base": "t_struct(Product)66_storage",
						"encoding": "dynamic_array",
						"label": "struct MarketPlace.Product[]",
						"numberOfBytes": "32"
					},
					"t_array(t_struct(Ticket)49_storage)dyn_storage": {
						"base": "t_struct(Ticket)49_storage",
						"encoding": "dynamic_array",
						"label": "struct MarketPlace.Ticket[]",
						"numberOfBytes": "32"
					},
					"t_enum(Role)5": {
						"encoding": "inplace",
						"label": "enum MarketPlace.Role",
						"numberOfBytes": "1"
					},
					"t_enum(Status)10": {
						"encoding": "inplace",
						"label": "enum MarketPlace.Status",
						"numberOfBytes": "1"
					},
					"t_mapping(t_address,t_array(t_struct(Product)66_storage)dyn_storage)": {
						"encoding": "mapping",
						"key": "t_address",
						"label": "mapping(address => struct MarketPlace.Product[])",
						"numberOfBytes": "32",
						"value": "t_array(t_struct(Product)66_storage)dyn_storage"
					},
					"t_mapping(t_address,t_struct(User)55_storage)": {
						"encoding": "mapping",
						"key": "t_address",
						"label": "mapping(address => struct MarketPlace.User)",
						"numberOfBytes": "32",
						"value": "t_struct(User)55_storage"
					},
					"t_mapping(t_string_memory_ptr,t_address)": {
						"encoding": "mapping",
						"key": "t_string_memory_ptr",
						"label": "mapping(string => address)",
						"numberOfBytes": "32",
						"value": "t_address"
					},
					"t_string_memory_ptr": {
						"encoding": "bytes",
						"label": "string",
						"numberOfBytes": "32"
					},
					"t_string_storage": {
						"encoding": "bytes",
						"label": "string",
						"numberOfBytes": "32"
					},
					"t_struct(DeliveryOrder)43_storage": {
						"encoding": "inplace",
						"label": "struct MarketPlace.DeliveryOrder",
						"members": [
							{
								"astId": 31,
								"contract": "contracts/Test.sol:MarketPlace",
								"label": "userAddr",
								"offset": 0,
								"slot": "0",
								"type": "t_address"
							},
							{
								"astId": 33,
								"contract": "contracts/Test.sol:MarketPlace",
								"label": "shop",
								"offset": 0,
								"slot": "1",
								"type": "t_address"
							},
							{
								"astId": 36,
								"contract": "contracts/Test.sol:MarketPlace",
								"label": "status",
								"offset": 20,
								"slot": "1",
								"type": "t_enum(Status)10"
							},
							{
								"astId": 38,
								"contract": "contracts/Test.sol:MarketPlace",
								"label": "trackNumber",
								"offset": 0,
								"slot": "2",
								"type": "t_string_storage"
							},
							{
								"astId": 40,
								"contract": "contracts/Test.sol:MarketPlace",
								"label": "productId",
								"offset": 0,
								"slot": "3",
								"type": "t_uint256"
							},
							{
								"astId": 42,
								"contract": "contracts/Test.sol:MarketPlace",
								"label": "amount",
								"offset": 0,
								"slot": "4",
								"type": "t_uint256"
							}
						],
						"numberOfBytes": "160"
					},
					"t_struct(Product)66_storage": {
						"encoding": "inplace",
						"label": "struct MarketPlace.Product",
						"members": [
							{
								"astId": 57,
								"contract": "contracts/Test.sol:MarketPlace",
								"label": "userAddress",
								"offset": 0,
								"slot": "0",
								"type": "t_address"
							},
							{
								"astId": 59,
								"contract": "contracts/Test.sol:MarketPlace",
								"label": "inStock",
								"offset": 0,
								"slot": "1",
								"type": "t_uint256"
							},
							{
								"astId": 61,
								"contract": "contracts/Test.sol:MarketPlace",
								"label": "price",
								"offset": 0,
								"slot": "2",
								"type": "t_uint256"
							},
							{
								"astId": 63,
								"contract": "contracts/Test.sol:MarketPlace",
								"label": "name",
								"offset": 0,
								"slot": "3",
								"type": "t_string_storage"
							},
							{
								"astId": 65,
								"contract": "contracts/Test.sol:MarketPlace",
								"label": "expDate",
								"offset": 0,
								"slot": "4",
								"type": "t_uint256"
							}
						],
						"numberOfBytes": "160"
					},
					"t_struct(Ticket)49_storage": {
						"encoding": "inplace",
						"label": "struct MarketPlace.Ticket",
						"members": [
							{
								"astId": 45,
								"contract": "contracts/Test.sol:MarketPlace",
								"label": "userAddr",
								"offset": 0,
								"slot": "0",
								"type": "t_address"
							},
							{
								"astId": 48,
								"contract": "contracts/Test.sol:MarketPlace",
								"label": "role",
								"offset": 20,
								"slot": "0",
								"type": "t_enum(Role)5"
							}
						],
						"numberOfBytes": "32"
					},
					"t_struct(User)55_storage": {
						"encoding": "inplace",
						"label": "struct MarketPlace.User",
						"members": [
							{
								"astId": 52,
								"contract": "contracts/Test.sol:MarketPlace",
								"label": "role",
								"offset": 0,
								"slot": "0",
								"type": "t_enum(Role)5"
							},
							{
								"astId": 54,
								"contract": "contracts/Test.sol:MarketPlace",
								"label": "balance",
								"offset": 0,
								"slot": "1",
								"type": "t_uint256"
							}
						],
						"numberOfBytes": "64"
					},
					"t_uint256": {
						"encoding": "inplace",
						"label": "uint256",
						"numberOfBytes": "32"
					}
				}
			},
			"userdoc": {
				"kind": "user",
				"methods": {},
				"version": 1
			}
		}
	}
}