{
	"contracts/Test.sol": {
		"MarketPlace": {
			"abi": [
				{
					"inputs": [],
					"stateMutability": "nonpayable",
					"type": "constructor"
				},
				{
					"inputs": [
						{
							"internalType": "bool",
							"name": "_status",
							"type": "bool"
						},
						{
							"internalType": "uint256",
							"name": "_deliveryId",
							"type": "uint256"
						}
					],
					"name": "acceptDelivery",
					"outputs": [],
					"stateMutability": "payable",
					"type": "function"
				},
				{
					"inputs": [
						{
							"internalType": "uint256",
							"name": "_inStock",
							"type": "uint256"
						},
						{
							"internalType": "uint256",
							"name": "_price",
							"type": "uint256"
						},
						{
							"internalType": "string",
							"name": "_name",
							"type": "string"
						},
						{
							"internalType": "uint256",
							"name": "_expDate",
							"type": "uint256"
						}
					],
					"name": "addItemsMarket",
					"outputs": [],
					"stateMutability": "nonpayable",
					"type": "function"
				},
				{
					"inputs": [
						{
							"internalType": "uint256",
							"name": "_inStock",
							"type": "uint256"
						},
						{
							"internalType": "uint256",
							"name": "_price",
							"type": "uint256"
						},
						{
							"internalType": "string",
							"name": "_name",
							"type": "string"
						},
						{
							"internalType": "uint256",
							"name": "_expDate",
							"type": "uint256"
						},
						{
							"internalType": "address",
							"name": "_addressSupp",
							"type": "address"
						}
					],
					"name": "addItemsSupplier",
					"outputs": [],
					"stateMutability": "nonpayable",
					"type": "function"
				},
				{
					"inputs": [
						{
							"internalType": "uint256",
							"name": "_idTicket",
							"type": "uint256"
						}
					],
					"name": "approveChangeRole",
					"outputs": [],
					"stateMutability": "nonpayable",
					"type": "function"
				},
				{
					"inputs": [
						{
							"internalType": "bool",
							"name": "_status",
							"type": "bool"
						},
						{
							"internalType": "uint256",
							"name": "_deliveryId",
							"type": "uint256"
						}
					],
					"name": "approveDelivery",
					"outputs": [],
					"stateMutability": "nonpayable",
					"type": "function"
				},
				{
					"inputs": [
						{
							"internalType": "enum MarketPlace.Role",
							"name": "_role",
							"type": "uint8"
						}
					],
					"name": "changeRole",
					"outputs": [],
					"stateMutability": "nonpayable",
					"type": "function"
				},
				{
					"inputs": [
						{
							"internalType": "uint256",
							"name": "",
							"type": "uint256"
						}
					],
					"name": "deliveryOrders",
					"outputs": [
						{
							"internalType": "address",
							"name": "userAddr",
							"type": "address"
						},
						{
							"internalType": "address",
							"name": "shop",
							"type": "address"
						},
						{
							"internalType": "enum MarketPlace.Status",
							"name": "status",
							"type": "uint8"
						},
						{
							"internalType": "string",
							"name": "trackNumber",
							"type": "string"
						},
						{
							"internalType": "uint256",
							"name": "productId",
							"type": "uint256"
						},
						{
							"internalType": "uint256",
							"name": "amount",
							"type": "uint256"
						}
					],
					"stateMutability": "view",
					"type": "function"
				},
				{
					"inputs": [
						{
							"internalType": "string",
							"name": "_nameRef",
							"type": "string"
						},
						{
							"internalType": "address",
							"name": "_user",
							"type": "address"
						}
					],
					"name": "genRef",
					"outputs": [],
					"stateMutability": "nonpayable",
					"type": "function"
				},
				{
					"inputs": [
						{
							"internalType": "address",
							"name": "_shop",
							"type": "address"
						},
						{
							"internalType": "uint256",
							"name": "_productId",
							"type": "uint256"
						},
						{
							"internalType": "uint256",
							"name": "_amount",
							"type": "uint256"
						}
					],
					"name": "makeDelivery",
					"outputs": [],
					"stateMutability": "nonpayable",
					"type": "function"
				},
				{
					"inputs": [],
					"name": "makeMarket",
					"outputs": [],
					"stateMutability": "nonpayable",
					"type": "function"
				},
				{
					"inputs": [],
					"name": "makeSupplier",
					"outputs": [],
					"stateMutability": "nonpayable",
					"type": "function"
				},
				{
					"inputs": [],
					"name": "makeUser",
					"outputs": [],
					"stateMutability": "nonpayable",
					"type": "function"
				},
				{
					"inputs": [
						{
							"internalType": "address",
							"name": "",
							"type": "address"
						},
						{
							"internalType": "uint256",
							"name": "",
							"type": "uint256"
						}
					],
					"name": "marketProducts",
					"outputs": [
						{
							"internalType": "address",
							"name": "userAddress",
							"type": "address"
						},
						{
							"internalType": "uint256",
							"name": "inStock",
							"type": "uint256"
						},
						{
							"internalType": "uint256",
							"name": "price",
							"type": "uint256"
						},
						{
							"internalType": "string",
							"name": "name",
							"type": "string"
						},
						{
							"internalType": "uint256",
							"name": "expDate",
							"type": "uint256"
						}
					],
					"stateMutability": "view",
					"type": "function"
				},
				{
					"inputs": [],
					"name": "owner",
					"outputs": [
						{
							"internalType": "address",
							"name": "",
							"type": "address"
						}
					],
					"stateMutability": "view",
					"type": "function"
				},
				{
					"inputs": [
						{
							"internalType": "address",
							"name": "_shop",
							"type": "address"
						},
						{
							"internalType": "uint256",
							"name": "_amount",
							"type": "uint256"
						},
						{
							"internalType": "uint256",
							"name": "_id",
							"type": "uint256"
						},
						{
							"internalType": "string",
							"name": "_ref",
							"type": "string"
						}
					],
					"name": "purchase",
					"outputs": [],
					"stateMutability": "payable",
					"type": "function"
				},
				{
					"inputs": [
						{
							"internalType": "uint256",
							"name": "_modulus",
							"type": "uint256"
						}
					],
					"name": "randMod",
					"outputs": [
						{
							"internalType": "uint256",
							"name": "",
							"type": "uint256"
						}
					],
					"stateMutability": "view",
					"type": "function"
				},
				{
					"inputs": [
						{
							"internalType": "string",
							"name": "",
							"type": "string"
						}
					],
					"name": "referrals",
					"outputs": [
						{
							"internalType": "address",
							"name": "",
							"type": "address"
						}
					],
					"stateMutability": "view",
					"type": "function"
				},
				{
					"inputs": [
						{
							"internalType": "address",
							"name": "_shop",
							"type": "address"
						},
						{
							"internalType": "uint256",
							"name": "_productId",
							"type": "uint256"
						},
						{
							"internalType": "uint256",
							"name": "_amount",
							"type": "uint256"
						},
						{
							"internalType": "address",
							"name": "_supplier",
							"type": "address"
						}
					],
					"name": "refillStore",
					"outputs": [],
					"stateMutability": "payable",
					"type": "function"
				},
				{
					"inputs": [
						{
							"internalType": "address",
							"name": "_shop",
							"type": "address"
						},
						{
							"internalType": "uint256",
							"name": "_productId",
							"type": "uint256"
						}
					],
					"name": "refund",
					"outputs": [],
					"stateMutability": "nonpayable",
					"type": "function"
				},
				{
					"inputs": [
						{
							"internalType": "address",
							"name": "",
							"type": "address"
						},
						{
							"internalType": "uint256",
							"name": "",
							"type": "uint256"
						}
					],
					"name": "supplierProducts",
					"outputs": [
						{
							"internalType": "address",
							"name": "userAddress",
							"type": "address"
						},
						{
							"internalType": "uint256",
							"name": "inStock",
							"type": "uint256"
						},
						{
							"internalType": "uint256",
							"name": "price",
							"type": "uint256"
						},
						{
							"internalType": "string",
							"name": "name",
							"type": "string"
						},
						{
							"internalType": "uint256",
							"name": "expDate",
							"type": "uint256"
						}
					],
					"stateMutability": "view",
					"type": "function"
				},
				{
					"inputs": [
						{
							"internalType": "uint256",
							"name": "",
							"type": "uint256"
						}
					],
					"name": "tickets",
					"outputs": [
						{
							"internalType": "address",
							"name": "userAddr",
							"type": "address"
						},
						{
							"internalType": "enum MarketPlace.Role",
							"name": "role",
							"type": "uint8"
						}
					],
					"stateMutability": "view",
					"type": "function"
				},
				{
					"inputs": [
						{
							"internalType": "string",
							"name": "input",
							"type": "string"
						}
					],
					"name": "toUpper",
					"outputs": [
						{
							"internalType": "string",
							"name": "",
							"type": "string"
						}
					],
					"stateMutability": "pure",
					"type": "function"
				},
				{
					"inputs": [
						{
							"internalType": "address",
							"name": "",
							"type": "address"
						},
						{
							"internalType": "uint256",
							"name": "",
							"type": "uint256"
						}
					],
					"name": "userProducts",
					"outputs": [
						{
							"internalType": "address",
							"name": "userAddress",
							"type": "address"
						},
						{
							"internalType": "uint256",
							"name": "inStock",
							"type": "uint256"
						},
						{
							"internalType": "uint256",
							"name": "price",
							"type": "uint256"
						},
						{
							"internalType": "string",
							"name": "name",
							"type": "string"
						},
						{
							"internalType": "uint256",
							"name": "expDate",
							"type": "uint256"
						}
					],
					"stateMutability": "view",
					"type": "function"
				},
				{
					"inputs": [
						{
							"internalType": "address",
							"name": "",
							"type": "address"
						}
					],
					"name": "users",
					"outputs": [
						{
							"internalType": "enum MarketPlace.Role",
							"name": "role",
							"type": "uint8"
						},
						{
							"internalType": "uint256",
							"name": "balance",
							"type": "uint256"
						}
					],
					"stateMutability": "view",
					"type": "function"
				},
				{
					"inputs": [
						{
							"internalType": "address",
							"name": "_shop",
							"type": "address"
						}
					],
					"name": "withdrawBal",
					"outputs": [],
					"stateMutability": "nonpayable",
					"type": "function"
				}
			],
			"devdoc": {
				"kind": "dev",
				"methods": {},
				"version": 1
			},
			"evm": {
				"assembly": "    /* \"contracts/Test.sol\":60:8302  contract MarketPlace {... */\n  mstore(0x40, 0x80)\n    /* \"contracts/Test.sol\":292:341  constructor() {... */\n  callvalue\n  dup1\n  iszero\n  tag_1\n  jumpi\n  0x00\n  dup1\n  revert\ntag_1:\n  pop\n    /* \"contracts/Test.sol\":324:334  msg.sender */\n  caller\n    /* \"contracts/Test.sol\":316:321  owner */\n  0x01\n  0x00\n    /* \"contracts/Test.sol\":316:334  owner = msg.sender */\n  0x0100\n  exp\n  dup2\n  sload\n  dup2\n  0xffffffffffffffffffffffffffffffffffffffff\n  mul\n  not\n  and\n  swap1\n  dup4\n  0xffffffffffffffffffffffffffffffffffffffff\n  and\n  mul\n  or\n  swap1\n  sstore\n  pop\n    /* \"contracts/Test.sol\":60:8302  contract MarketPlace {... */\n  dataSize(sub_0)\n  dup1\n  dataOffset(sub_0)\n  0x00\n  codecopy\n  0x00\n  return\nstop\n\nsub_0: assembly {\n        /* \"contracts/Test.sol\":60:8302  contract MarketPlace {... */\n      mstore(0x40, 0x80)\n      jumpi(tag_1, lt(calldatasize, 0x04))\n      shr(0xe0, calldataload(0x00))\n      dup1\n      0x7555bf10\n      gt\n      tag_27\n      jumpi\n      dup1\n      0xa1ba90b6\n      gt\n      tag_28\n      jumpi\n      dup1\n      0xd55768dd\n      gt\n      tag_29\n      jumpi\n      dup1\n      0xd55768dd\n      eq\n      tag_23\n      jumpi\n      dup1\n      0xda76af31\n      eq\n      tag_24\n      jumpi\n      dup1\n      0xf67a2ad1\n      eq\n      tag_25\n      jumpi\n      dup1\n      0xfecd8f79\n      eq\n      tag_26\n      jumpi\n      jump(tag_1)\n    tag_29:\n      dup1\n      0xa1ba90b6\n      eq\n      tag_20\n      jumpi\n      dup1\n      0xa87430ba\n      eq\n      tag_21\n      jumpi\n      dup1\n      0xd18a524a\n      eq\n      tag_22\n      jumpi\n      jump(tag_1)\n    tag_28:\n      dup1\n      0x7555bf10\n      eq\n      tag_14\n      jumpi\n      dup1\n      0x7eb33a58\n      eq\n      tag_15\n      jumpi\n      dup1\n      0x805553e8\n      eq\n      tag_16\n      jumpi\n      dup1\n      0x861c2b6d\n      eq\n      tag_17\n      jumpi\n      dup1\n      0x8da5cb5b\n      eq\n      tag_18\n      jumpi\n      dup1\n      0x9f1cd587\n      eq\n      tag_19\n      jumpi\n      jump(tag_1)\n    tag_27:\n      dup1\n      0x4f424547\n      gt\n      tag_30\n      jumpi\n      dup1\n      0x4f424547\n      eq\n      tag_8\n      jumpi\n      dup1\n      0x50b44712\n      eq\n      tag_9\n      jumpi\n      dup1\n      0x55dea0b3\n      eq\n      tag_10\n      jumpi\n      dup1\n      0x62dd748c\n      eq\n      tag_11\n      jumpi\n      dup1\n      0x66d0dc67\n      eq\n      tag_12\n      jumpi\n      dup1\n      0x6f764708\n      eq\n      tag_13\n      jumpi\n      jump(tag_1)\n    tag_30:\n      dup1\n      0x8de16a\n      eq\n      tag_2\n      jumpi\n      dup1\n      0x1cc11721\n      eq\n      tag_3\n      jumpi\n      dup1\n      0x27b90b1b\n      eq\n      tag_4\n      jumpi\n      dup1\n      0x3d527883\n      eq\n      tag_5\n      jumpi\n      dup1\n      0x3dfe7dee\n      eq\n      tag_6\n      jumpi\n      dup1\n      0x410085df\n      eq\n      tag_7\n      jumpi\n    tag_1:\n      0x00\n      dup1\n      revert\n        /* \"contracts/Test.sol\":4422:4698  function addItemsMarket(uint _inStock, uint _price, string calldata _name, uint _expDate) public AccessControl(Role.Market, msg.sender) {... */\n    tag_2:\n      callvalue\n      dup1\n      iszero\n      tag_31\n      jumpi\n      0x00\n      dup1\n      revert\n    tag_31:\n      pop\n      tag_32\n      0x04\n      dup1\n      calldatasize\n      sub\n      dup2\n      add\n      swap1\n      tag_33\n      swap2\n      swap1\n      tag_34\n      jump\t// in\n    tag_33:\n      tag_35\n      jump\t// in\n    tag_32:\n      stop\n        /* \"contracts/Test.sol\":248:285  DeliveryOrder[] public deliveryOrders */\n    tag_3:\n      callvalue\n      dup1\n      iszero\n      tag_36\n      jumpi\n      0x00\n      dup1\n      revert\n    tag_36:\n      pop\n      tag_37\n      0x04\n      dup1\n      calldatasize\n      sub\n      dup2\n      add\n      swap1\n      tag_38\n      swap2\n      swap1\n      tag_39\n      jump\t// in\n    tag_38:\n      tag_40\n      jump\t// in\n    tag_37:\n      mload(0x40)\n      tag_41\n      swap7\n      swap6\n      swap5\n      swap4\n      swap3\n      swap2\n      swap1\n      tag_42\n      jump\t// in\n    tag_41:\n      mload(0x40)\n      dup1\n      swap2\n      sub\n      swap1\n      return\n        /* \"contracts/Test.sol\":961:1014  mapping(address => Product[]) public supplierProducts */\n    tag_4:\n      callvalue\n      dup1\n      iszero\n      tag_43\n      jumpi\n      0x00\n      dup1\n      revert\n    tag_43:\n      pop\n      tag_44\n      0x04\n      dup1\n      calldatasize\n      sub\n      dup2\n      add\n      swap1\n      tag_45\n      swap2\n      swap1\n      tag_46\n      jump\t// in\n    tag_45:\n      tag_47\n      jump\t// in\n    tag_44:\n      mload(0x40)\n      tag_48\n      swap6\n      swap5\n      swap4\n      swap3\n      swap2\n      swap1\n      tag_49\n      jump\t// in\n    tag_48:\n      mload(0x40)\n      dup1\n      swap2\n      sub\n      swap1\n      return\n        /* \"contracts/Test.sol\":849:898  mapping(address => Product[]) public userProducts */\n    tag_5:\n      callvalue\n      dup1\n      iszero\n      tag_50\n      jumpi\n      0x00\n      dup1\n      revert\n    tag_50:\n      pop\n      tag_51\n      0x04\n      dup1\n      calldatasize\n      sub\n      dup2\n      add\n      swap1\n      tag_52\n      swap2\n      swap1\n      tag_46\n      jump\t// in\n    tag_52:\n      tag_53\n      jump\t// in\n    tag_51:\n      mload(0x40)\n      tag_54\n      swap6\n      swap5\n      swap4\n      swap3\n      swap2\n      swap1\n      tag_49\n      jump\t// in\n    tag_54:\n      mload(0x40)\n      dup1\n      swap2\n      sub\n      swap1\n      return\n        /* \"contracts/Test.sol\":1488:1578  function makeSupplier() public {... */\n    tag_6:\n      callvalue\n      dup1\n      iszero\n      tag_55\n      jumpi\n      0x00\n      dup1\n      revert\n    tag_55:\n      pop\n      tag_56\n      tag_57\n      jump\t// in\n    tag_56:\n      stop\n        /* \"contracts/Test.sol\":6043:6586  function refund(address _shop, uint _productId) public {... */\n    tag_7:\n      callvalue\n      dup1\n      iszero\n      tag_58\n      jumpi\n      0x00\n      dup1\n      revert\n    tag_58:\n      pop\n      tag_59\n      0x04\n      dup1\n      calldatasize\n      sub\n      dup2\n      add\n      swap1\n      tag_60\n      swap2\n      swap1\n      tag_46\n      jump\t// in\n    tag_60:\n      tag_61\n      jump\t// in\n    tag_59:\n      stop\n        /* \"contracts/Test.sol\":904:955  mapping(address => Product[]) public marketProducts */\n    tag_8:\n      callvalue\n      dup1\n      iszero\n      tag_62\n      jumpi\n      0x00\n      dup1\n      revert\n    tag_62:\n      pop\n      tag_63\n      0x04\n      dup1\n      calldatasize\n      sub\n      dup2\n      add\n      swap1\n      tag_64\n      swap2\n      swap1\n      tag_46\n      jump\t// in\n    tag_64:\n      tag_65\n      jump\t// in\n    tag_63:\n      mload(0x40)\n      tag_66\n      swap6\n      swap5\n      swap4\n      swap3\n      swap2\n      swap1\n      tag_49\n      jump\t// in\n    tag_66:\n      mload(0x40)\n      dup1\n      swap2\n      sub\n      swap1\n      return\n        /* \"contracts/Test.sol\":193:216  Ticket[] public tickets */\n    tag_9:\n      callvalue\n      dup1\n      iszero\n      tag_67\n      jumpi\n      0x00\n      dup1\n      revert\n    tag_67:\n      pop\n      tag_68\n      0x04\n      dup1\n      calldatasize\n      sub\n      dup2\n      add\n      swap1\n      tag_69\n      swap2\n      swap1\n      tag_39\n      jump\t// in\n    tag_69:\n      tag_70\n      jump\t// in\n    tag_68:\n      mload(0x40)\n      tag_71\n      swap3\n      swap2\n      swap1\n      tag_72\n      jump\t// in\n    tag_71:\n      mload(0x40)\n      dup1\n      swap2\n      sub\n      swap1\n      return\n        /* \"contracts/Test.sol\":1902:1997  function changeRole(Role _role) public {... */\n    tag_10:\n      callvalue\n      dup1\n      iszero\n      tag_73\n      jumpi\n      0x00\n      dup1\n      revert\n    tag_73:\n      pop\n      tag_74\n      0x04\n      dup1\n      calldatasize\n      sub\n      dup2\n      add\n      swap1\n      tag_75\n      swap2\n      swap1\n      tag_76\n      jump\t// in\n    tag_75:\n      tag_77\n      jump\t// in\n    tag_74:\n      stop\n        /* \"contracts/Test.sol\":2221:2611  function toUpper(string memory input) public pure returns (string memory) {... */\n    tag_11:\n      callvalue\n      dup1\n      iszero\n      tag_78\n      jumpi\n      0x00\n      dup1\n      revert\n    tag_78:\n      pop\n      tag_79\n      0x04\n      dup1\n      calldatasize\n      sub\n      dup2\n      add\n      swap1\n      tag_80\n      swap2\n      swap1\n      tag_81\n      jump\t// in\n    tag_80:\n      tag_82\n      jump\t// in\n    tag_79:\n      mload(0x40)\n      tag_83\n      swap2\n      swap1\n      tag_84\n      jump\t// in\n    tag_83:\n      mload(0x40)\n      dup1\n      swap2\n      sub\n      swap1\n      return\n        /* \"contracts/Test.sol\":1584:1671  function makeMarket() public  {... */\n    tag_12:\n      callvalue\n      dup1\n      iszero\n      tag_85\n      jumpi\n      0x00\n      dup1\n      revert\n    tag_85:\n      pop\n      tag_86\n      tag_87\n      jump\t// in\n    tag_86:\n      stop\n        /* \"contracts/Test.sol\":1677:1896  function approveChangeRole(uint _idTicket) public OnlyOwner {... */\n    tag_13:\n      callvalue\n      dup1\n      iszero\n      tag_88\n      jumpi\n      0x00\n      dup1\n      revert\n    tag_88:\n      pop\n      tag_89\n      0x04\n      dup1\n      calldatasize\n      sub\n      dup2\n      add\n      swap1\n      tag_90\n      swap2\n      swap1\n      tag_39\n      jump\t// in\n    tag_90:\n      tag_91\n      jump\t// in\n    tag_89:\n      stop\n        /* \"contracts/Test.sol\":2768:3358  function makeDelivery(address _shop, uint _productId, uint _amount) public {... */\n    tag_14:\n      callvalue\n      dup1\n      iszero\n      tag_92\n      jumpi\n      0x00\n      dup1\n      revert\n    tag_92:\n      pop\n      tag_93\n      0x04\n      dup1\n      calldatasize\n      sub\n      dup2\n      add\n      swap1\n      tag_94\n      swap2\n      swap1\n      tag_95\n      jump\t// in\n    tag_94:\n      tag_96\n      jump\t// in\n    tag_93:\n      stop\n        /* \"contracts/Test.sol\":3364:3666  function approveDelivery(bool _status, uint _deliveryId) public AccessControl(Role.Market, msg.sender) {... */\n    tag_15:\n      callvalue\n      dup1\n      iszero\n      tag_97\n      jumpi\n      0x00\n      dup1\n      revert\n    tag_97:\n      pop\n      tag_98\n      0x04\n      dup1\n      calldatasize\n      sub\n      dup2\n      add\n      swap1\n      tag_99\n      swap2\n      swap1\n      tag_100\n      jump\t// in\n    tag_99:\n      tag_101\n      jump\t// in\n    tag_98:\n      stop\n        /* \"contracts/Test.sol\":2003:2215  function randMod(uint _modulus) public view returns(uint) {   ... */\n    tag_16:\n      callvalue\n      dup1\n      iszero\n      tag_102\n      jumpi\n      0x00\n      dup1\n      revert\n    tag_102:\n      pop\n      tag_103\n      0x04\n      dup1\n      calldatasize\n      sub\n      dup2\n      add\n      swap1\n      tag_104\n      swap2\n      swap1\n      tag_39\n      jump\t// in\n    tag_104:\n      tag_105\n      jump\t// in\n    tag_103:\n      mload(0x40)\n      tag_106\n      swap2\n      swap1\n      tag_107\n      jump\t// in\n    tag_106:\n      mload(0x40)\n      dup1\n      swap2\n      sub\n      swap1\n      return\n        /* \"contracts/Test.sol\":4102:4416  function addItemsSupplier(uint _inStock, uint _price, string calldata _name, uint _expDate, address _addressSupp) public AccessControl(Role.Supplier, _addressSupp) {... */\n    tag_17:\n      callvalue\n      dup1\n      iszero\n      tag_108\n      jumpi\n      0x00\n      dup1\n      revert\n    tag_108:\n      pop\n      tag_109\n      0x04\n      dup1\n      calldatasize\n      sub\n      dup2\n      add\n      swap1\n      tag_110\n      swap2\n      swap1\n      tag_111\n      jump\t// in\n    tag_110:\n      tag_112\n      jump\t// in\n    tag_109:\n      stop\n        /* \"contracts/Test.sol\":222:242  address public owner */\n    tag_18:\n      callvalue\n      dup1\n      iszero\n      tag_113\n      jumpi\n      0x00\n      dup1\n      revert\n    tag_113:\n      pop\n      tag_114\n      tag_115\n      jump\t// in\n    tag_114:\n      mload(0x40)\n      tag_116\n      swap2\n      swap1\n      tag_117\n      jump\t// in\n    tag_116:\n      mload(0x40)\n      dup1\n      swap2\n      sub\n      swap1\n      return\n        /* \"contracts/Test.sol\":6592:8189  function purchase(address _shop, uint _amount, uint _id, string memory _ref ) public payable {... */\n    tag_19:\n      tag_118\n      0x04\n      dup1\n      calldatasize\n      sub\n      dup2\n      add\n      swap1\n      tag_119\n      swap2\n      swap1\n      tag_120\n      jump\t// in\n    tag_119:\n      tag_121\n      jump\t// in\n    tag_118:\n      stop\n        /* \"contracts/Test.sol\":2617:2761  function genRef(string memory _nameRef, address _user) public {... */\n    tag_20:\n      callvalue\n      dup1\n      iszero\n      tag_122\n      jumpi\n      0x00\n      dup1\n      revert\n    tag_122:\n      pop\n      tag_123\n      0x04\n      dup1\n      calldatasize\n      sub\n      dup2\n      add\n      swap1\n      tag_124\n      swap2\n      swap1\n      tag_125\n      jump\t// in\n    tag_124:\n      tag_126\n      jump\t// in\n    tag_123:\n      stop\n        /* \"contracts/Test.sol\":806:843  mapping(address => User) public users */\n    tag_21:\n      callvalue\n      dup1\n      iszero\n      tag_127\n      jumpi\n      0x00\n      dup1\n      revert\n    tag_127:\n      pop\n      tag_128\n      0x04\n      dup1\n      calldatasize\n      sub\n      dup2\n      add\n      swap1\n      tag_129\n      swap2\n      swap1\n      tag_130\n      jump\t// in\n    tag_129:\n      tag_131\n      jump\t// in\n    tag_128:\n      mload(0x40)\n      tag_132\n      swap3\n      swap2\n      swap1\n      tag_133\n      jump\t// in\n    tag_132:\n      mload(0x40)\n      dup1\n      swap2\n      sub\n      swap1\n      return\n        /* \"contracts/Test.sol\":1400:1482  function makeUser() public {... */\n    tag_22:\n      callvalue\n      dup1\n      iszero\n      tag_134\n      jumpi\n      0x00\n      dup1\n      revert\n    tag_134:\n      pop\n      tag_135\n      tag_136\n      jump\t// in\n    tag_135:\n      stop\n        /* \"contracts/Test.sol\":1020:1063  mapping(string => address) public referrals */\n    tag_23:\n      callvalue\n      dup1\n      iszero\n      tag_137\n      jumpi\n      0x00\n      dup1\n      revert\n    tag_137:\n      pop\n      tag_138\n      0x04\n      dup1\n      calldatasize\n      sub\n      dup2\n      add\n      swap1\n      tag_139\n      swap2\n      swap1\n      tag_81\n      jump\t// in\n    tag_139:\n      tag_140\n      jump\t// in\n    tag_138:\n      mload(0x40)\n      tag_141\n      swap2\n      swap1\n      tag_117\n      jump\t// in\n    tag_141:\n      mload(0x40)\n      dup1\n      swap2\n      sub\n      swap1\n      return\n        /* \"contracts/Test.sol\":3672:4096  function acceptDelivery(bool _status, uint _deliveryId) public payable AccessControl(Role.User, msg.sender) {... */\n    tag_24:\n      tag_142\n      0x04\n      dup1\n      calldatasize\n      sub\n      dup2\n      add\n      swap1\n      tag_143\n      swap2\n      swap1\n      tag_100\n      jump\t// in\n    tag_143:\n      tag_144\n      jump\t// in\n    tag_142:\n      stop\n        /* \"contracts/Test.sol\":8195:8300  function withdrawBal(address _shop) public {... */\n    tag_25:\n      callvalue\n      dup1\n      iszero\n      tag_145\n      jumpi\n      0x00\n      dup1\n      revert\n    tag_145:\n      pop\n      tag_146\n      0x04\n      dup1\n      calldatasize\n      sub\n      dup2\n      add\n      swap1\n      tag_147\n      swap2\n      swap1\n      tag_130\n      jump\t// in\n    tag_147:\n      tag_148\n      jump\t// in\n    tag_146:\n      stop\n        /* \"contracts/Test.sol\":4709:6037  function refillStore(address _shop, uint _productId, uint _amount, address _supplier) public payable AccessControl(Role.Market, _shop) {... */\n    tag_26:\n      tag_149\n      0x04\n      dup1\n      calldatasize\n      sub\n      dup2\n      add\n      swap1\n      tag_150\n      swap2\n      swap1\n      tag_151\n      jump\t// in\n    tag_150:\n      tag_152\n      jump\t// in\n    tag_149:\n      stop\n        /* \"contracts/Test.sol\":4422:4698  function addItemsMarket(uint _inStock, uint _price, string calldata _name, uint _expDate) public AccessControl(Role.Market, msg.sender) {... */\n    tag_35:\n        /* \"contracts/Test.sol\":4533:4544  Role.Market */\n      0x01\n        /* \"contracts/Test.sol\":4546:4556  msg.sender */\n      caller\n        /* \"contracts/Test.sol\":1254:1259  _role */\n      dup2\n        /* \"contracts/Test.sol\":1228:1259  users[msg.sender].role == _role */\n      0x02\n      dup2\n      gt\n      iszero\n      tag_154\n      jumpi\n      tag_155\n      tag_156\n      jump\t// in\n    tag_155:\n    tag_154:\n        /* \"contracts/Test.sol\":1228:1233  users */\n      0x03\n        /* \"contracts/Test.sol\":1228:1245  users[msg.sender] */\n      0x00\n        /* \"contracts/Test.sol\":1234:1244  msg.sender */\n      caller\n        /* \"contracts/Test.sol\":1228:1245  users[msg.sender] */\n      0xffffffffffffffffffffffffffffffffffffffff\n      and\n      0xffffffffffffffffffffffffffffffffffffffff\n      and\n      dup2\n      mstore\n      0x20\n      add\n      swap1\n      dup2\n      mstore\n      0x20\n      add\n      0x00\n      keccak256\n        /* \"contracts/Test.sol\":1228:1250  users[msg.sender].role */\n      0x00\n      add\n      0x00\n      swap1\n      sload\n      swap1\n      0x0100\n      exp\n      swap1\n      div\n      0xff\n      and\n        /* \"contracts/Test.sol\":1228:1259  users[msg.sender].role == _role */\n      0x02\n      dup2\n      gt\n      iszero\n      tag_157\n      jumpi\n      tag_158\n      tag_156\n      jump\t// in\n    tag_158:\n    tag_157:\n      eq\n        /* \"contracts/Test.sol\":1220:1300  require(users[msg.sender].role == _role, \"Your role does not allow this change\") */\n      tag_159\n      jumpi\n      mload(0x40)\n      0x08c379a000000000000000000000000000000000000000000000000000000000\n      dup2\n      mstore\n      0x04\n      add\n      tag_160\n      swap1\n      tag_161\n      jump\t// in\n    tag_160:\n      mload(0x40)\n      dup1\n      swap2\n      sub\n      swap1\n      revert\n    tag_159:\n        /* \"contracts/Test.sol\":1332:1337  _shop */\n      dup1\n        /* \"contracts/Test.sol\":1318:1337  msg.sender == _shop */\n      0xffffffffffffffffffffffffffffffffffffffff\n      and\n        /* \"contracts/Test.sol\":1318:1328  msg.sender */\n      caller\n        /* \"contracts/Test.sol\":1318:1337  msg.sender == _shop */\n      0xffffffffffffffffffffffffffffffffffffffff\n      and\n      eq\n        /* \"contracts/Test.sol\":1310:1376  require(msg.sender == _shop, \"The shop does not match the sender\") */\n      tag_162\n      jumpi\n      mload(0x40)\n      0x08c379a000000000000000000000000000000000000000000000000000000000\n      dup2\n      mstore\n      0x04\n      add\n      tag_163\n      swap1\n      tag_164\n      jump\t// in\n    tag_163:\n      mload(0x40)\n      dup1\n      swap2\n      sub\n      swap1\n      revert\n    tag_162:\n        /* \"contracts/Test.sol\":4568:4587  Product memory item */\n      0x00\n        /* \"contracts/Test.sol\":4590:4644  Product(msg.sender, _inStock, _price, _name, _expDate) */\n      mload(0x40)\n      dup1\n      0xa0\n      add\n      0x40\n      mstore\n      dup1\n        /* \"contracts/Test.sol\":4598:4608  msg.sender */\n      caller\n        /* \"contracts/Test.sol\":4590:4644  Product(msg.sender, _inStock, _price, _name, _expDate) */\n      0xffffffffffffffffffffffffffffffffffffffff\n      and\n      dup2\n      mstore\n      0x20\n      add\n        /* \"contracts/Test.sol\":4610:4618  _inStock */\n      dup10\n        /* \"contracts/Test.sol\":4590:4644  Product(msg.sender, _inStock, _price, _name, _expDate) */\n      dup2\n      mstore\n      0x20\n      add\n        /* \"contracts/Test.sol\":4620:4626  _price */\n      dup9\n        /* \"contracts/Test.sol\":4590:4644  Product(msg.sender, _inStock, _price, _name, _expDate) */\n      dup2\n      mstore\n      0x20\n      add\n        /* \"contracts/Test.sol\":4628:4633  _name */\n      dup8\n      dup8\n        /* \"contracts/Test.sol\":4590:4644  Product(msg.sender, _inStock, _price, _name, _expDate) */\n      dup1\n      dup1\n      0x1f\n      add\n      0x20\n      dup1\n      swap2\n      div\n      mul\n      0x20\n      add\n      mload(0x40)\n      swap1\n      dup2\n      add\n      0x40\n      mstore\n      dup1\n      swap4\n      swap3\n      swap2\n      swap1\n      dup2\n      dup2\n      mstore\n      0x20\n      add\n      dup4\n      dup4\n      dup1\n      dup3\n      dup5\n      calldatacopy\n      0x00\n      dup2\n      dup5\n      add\n      mstore\n      not(0x1f)\n      0x1f\n      dup3\n      add\n      and\n      swap1\n      pop\n      dup1\n      dup4\n      add\n      swap3\n      pop\n      pop\n      pop\n      pop\n      pop\n      pop\n      pop\n      dup2\n      mstore\n      0x20\n      add\n        /* \"contracts/Test.sol\":4635:4643  _expDate */\n      dup6\n        /* \"contracts/Test.sol\":4590:4644  Product(msg.sender, _inStock, _price, _name, _expDate) */\n      dup2\n      mstore\n      pop\n        /* \"contracts/Test.sol\":4568:4644  Product memory item = Product(msg.sender, _inStock, _price, _name, _expDate) */\n      swap1\n      pop\n        /* \"contracts/Test.sol\":4654:4668  marketProducts */\n      0x05\n        /* \"contracts/Test.sol\":4654:4680  marketProducts[msg.sender] */\n      0x00\n        /* \"contracts/Test.sol\":4669:4679  msg.sender */\n      caller\n        /* \"contracts/Test.sol\":4654:4680  marketProducts[msg.sender] */\n      0xffffffffffffffffffffffffffffffffffffffff\n      and\n      0xffffffffffffffffffffffffffffffffffffffff\n      and\n      dup2\n      mstore\n      0x20\n      add\n      swap1\n      dup2\n      mstore\n      0x20\n      add\n      0x00\n      keccak256\n        /* \"contracts/Test.sol\":4686:4690  item */\n      dup2\n        /* \"contracts/Test.sol\":4654:4691  marketProducts[msg.sender].push(item) */\n      swap1\n      dup1\n      0x01\n      dup2\n      sload\n      add\n      dup1\n      dup3\n      sstore\n      dup1\n      swap2\n      pop\n      pop\n      0x01\n      swap1\n      sub\n      swap1\n      0x00\n      mstore\n      keccak256(0x00, 0x20)\n      swap1\n      0x05\n      mul\n      add\n      0x00\n      swap1\n      swap2\n      swap1\n      swap2\n      swap1\n      swap2\n      pop\n      0x00\n      dup3\n      add\n      mload\n      dup2\n      0x00\n      add\n      exp(0x0100, 0x00)\n      dup2\n      sload\n      dup2\n      0xffffffffffffffffffffffffffffffffffffffff\n      mul\n      not\n      and\n      swap1\n      dup4\n      0xffffffffffffffffffffffffffffffffffffffff\n      and\n      mul\n      or\n      swap1\n      sstore\n      pop\n      0x20\n      dup3\n      add\n      mload\n      dup2\n      0x01\n      add\n      sstore\n      0x40\n      dup3\n      add\n      mload\n      dup2\n      0x02\n      add\n      sstore\n      0x60\n      dup3\n      add\n      mload\n      dup2\n      0x03\n      add\n      swap1\n      dup2\n      tag_167\n      swap2\n      swap1\n      tag_168\n      jump\t// in\n    tag_167:\n      pop\n      0x80\n      dup3\n      add\n      mload\n      dup2\n      0x04\n      add\n      sstore\n      pop\n      pop\n        /* \"contracts/Test.sol\":4558:4698  {... */\n      pop\n        /* \"contracts/Test.sol\":4422:4698  function addItemsMarket(uint _inStock, uint _price, string calldata _name, uint _expDate) public AccessControl(Role.Market, msg.sender) {... */\n      pop\n      pop\n      pop\n      pop\n      pop\n      pop\n      pop\n      jump\t// out\n        /* \"contracts/Test.sol\":248:285  DeliveryOrder[] public deliveryOrders */\n    tag_40:\n      0x02\n      dup2\n      dup2\n      sload\n      dup2\n      lt\n      tag_169\n      jumpi\n      0x00\n      dup1\n      revert\n    tag_169:\n      swap1\n      0x00\n      mstore\n      keccak256(0x00, 0x20)\n      swap1\n      0x05\n      mul\n      add\n      0x00\n      swap2\n      pop\n      swap1\n      pop\n      dup1\n      0x00\n      add\n      0x00\n      swap1\n      sload\n      swap1\n      0x0100\n      exp\n      swap1\n      div\n      0xffffffffffffffffffffffffffffffffffffffff\n      and\n      swap1\n      dup1\n      0x01\n      add\n      0x00\n      swap1\n      sload\n      swap1\n      0x0100\n      exp\n      swap1\n      div\n      0xffffffffffffffffffffffffffffffffffffffff\n      and\n      swap1\n      dup1\n      0x01\n      add\n      0x14\n      swap1\n      sload\n      swap1\n      0x0100\n      exp\n      swap1\n      div\n      0xff\n      and\n      swap1\n      dup1\n      0x02\n      add\n      dup1\n      sload\n      tag_171\n      swap1\n      tag_172\n      jump\t// in\n    tag_171:\n      dup1\n      0x1f\n      add\n      0x20\n      dup1\n      swap2\n      div\n      mul\n      0x20\n      add\n      mload(0x40)\n      swap1\n      dup2\n      add\n      0x40\n      mstore\n      dup1\n      swap3\n      swap2\n      swap1\n      dup2\n      dup2\n      mstore\n      0x20\n      add\n      dup3\n      dup1\n      sload\n      tag_173\n      swap1\n      tag_172\n      jump\t// in\n    tag_173:\n      dup1\n      iszero\n      tag_174\n      jumpi\n      dup1\n      0x1f\n      lt\n      tag_175\n      jumpi\n      0x0100\n      dup1\n      dup4\n      sload\n      div\n      mul\n      dup4\n      mstore\n      swap2\n      0x20\n      add\n      swap2\n      jump(tag_174)\n    tag_175:\n      dup3\n      add\n      swap2\n      swap1\n      0x00\n      mstore\n      keccak256(0x00, 0x20)\n      swap1\n    tag_176:\n      dup2\n      sload\n      dup2\n      mstore\n      swap1\n      0x01\n      add\n      swap1\n      0x20\n      add\n      dup1\n      dup4\n      gt\n      tag_176\n      jumpi\n      dup3\n      swap1\n      sub\n      0x1f\n      and\n      dup3\n      add\n      swap2\n    tag_174:\n      pop\n      pop\n      pop\n      pop\n      pop\n      swap1\n      dup1\n      0x03\n      add\n      sload\n      swap1\n      dup1\n      0x04\n      add\n      sload\n      swap1\n      pop\n      dup7\n      jump\t// out\n        /* \"contracts/Test.sol\":961:1014  mapping(address => Product[]) public supplierProducts */\n    tag_47:\n      mstore(0x20, 0x06)\n      dup2\n      0x00\n      mstore\n      keccak256(0x00, 0x40)\n      dup2\n      dup2\n      sload\n      dup2\n      lt\n      tag_177\n      jumpi\n      0x00\n      dup1\n      revert\n    tag_177:\n      swap1\n      0x00\n      mstore\n      keccak256(0x00, 0x20)\n      swap1\n      0x05\n      mul\n      add\n      0x00\n      swap2\n      pop\n      swap2\n      pop\n      pop\n      dup1\n      0x00\n      add\n      0x00\n      swap1\n      sload\n      swap1\n      0x0100\n      exp\n      swap1\n      div\n      0xffffffffffffffffffffffffffffffffffffffff\n      and\n      swap1\n      dup1\n      0x01\n      add\n      sload\n      swap1\n      dup1\n      0x02\n      add\n      sload\n      swap1\n      dup1\n      0x03\n      add\n      dup1\n      sload\n      tag_179\n      swap1\n      tag_172\n      jump\t// in\n    tag_179:\n      dup1\n      0x1f\n      add\n      0x20\n      dup1\n      swap2\n      div\n      mul\n      0x20\n      add\n      mload(0x40)\n      swap1\n      dup2\n      add\n      0x40\n      mstore\n      dup1\n      swap3\n      swap2\n      swap1\n      dup2\n      dup2\n      mstore\n      0x20\n      add\n      dup3\n      dup1\n      sload\n      tag_180\n      swap1\n      tag_172\n      jump\t// in\n    tag_180:\n      dup1\n      iszero\n      tag_181\n      jumpi\n      dup1\n      0x1f\n      lt\n      tag_182\n      jumpi\n      0x0100\n      dup1\n      dup4\n      sload\n      div\n      mul\n      dup4\n      mstore\n      swap2\n      0x20\n      add\n      swap2\n      jump(tag_181)\n    tag_182:\n      dup3\n      add\n      swap2\n      swap1\n      0x00\n      mstore\n      keccak256(0x00, 0x20)\n      swap1\n    tag_183:\n      dup2\n      sload\n      dup2\n      mstore\n      swap1\n      0x01\n      add\n      swap1\n      0x20\n      add\n      dup1\n      dup4\n      gt\n      tag_183\n      jumpi\n      dup3\n      swap1\n      sub\n      0x1f\n      and\n      dup3\n      add\n      swap2\n    tag_181:\n      pop\n      pop\n      pop\n      pop\n      pop\n      swap1\n      dup1\n      0x04\n      add\n      sload\n      swap1\n      pop\n      dup6\n      jump\t// out\n        /* \"contracts/Test.sol\":849:898  mapping(address => Product[]) public userProducts */\n    tag_53:\n      mstore(0x20, 0x04)\n      dup2\n      0x00\n      mstore\n      keccak256(0x00, 0x40)\n      dup2\n      dup2\n      sload\n      dup2\n      lt\n      tag_184\n      jumpi\n      0x00\n      dup1\n      revert\n    tag_184:\n      swap1\n      0x00\n      mstore\n      keccak256(0x00, 0x20)\n      swap1\n      0x05\n      mul\n      add\n      0x00\n      swap2\n      pop\n      swap2\n      pop\n      pop\n      dup1\n      0x00\n      add\n      0x00\n      swap1\n      sload\n      swap1\n      0x0100\n      exp\n      swap1\n      div\n      0xffffffffffffffffffffffffffffffffffffffff\n      and\n      swap1\n      dup1\n      0x01\n      add\n      sload\n      swap1\n      dup1\n      0x02\n      add\n      sload\n      swap1\n      dup1\n      0x03\n      add\n      dup1\n      sload\n      tag_186\n      swap1\n      tag_172\n      jump\t// in\n    tag_186:\n      dup1\n      0x1f\n      add\n      0x20\n      dup1\n      swap2\n      div\n      mul\n      0x20\n      add\n      mload(0x40)\n      swap1\n      dup2\n      add\n      0x40\n      mstore\n      dup1\n      swap3\n      swap2\n      swap1\n      dup2\n      dup2\n      mstore\n      0x20\n      add\n      dup3\n      dup1\n      sload\n      tag_187\n      swap1\n      tag_172\n      jump\t// in\n    tag_187:\n      dup1\n      iszero\n      tag_188\n      jumpi\n      dup1\n      0x1f\n      lt\n      tag_189\n      jumpi\n      0x0100\n      dup1\n      dup4\n      sload\n      div\n      mul\n      dup4\n      mstore\n      swap2\n      0x20\n      add\n      swap2\n      jump(tag_188)\n    tag_189:\n      dup3\n      add\n      swap2\n      swap1\n      0x00\n      mstore\n      keccak256(0x00, 0x20)\n      swap1\n    tag_190:\n      dup2\n      sload\n      dup2\n      mstore\n      swap1\n      0x01\n      add\n      swap1\n      0x20\n      add\n      dup1\n      dup4\n      gt\n      tag_190\n      jumpi\n      dup3\n      swap1\n      sub\n      0x1f\n      and\n      dup3\n      add\n      swap2\n    tag_188:\n      pop\n      pop\n      pop\n      pop\n      pop\n      swap1\n      dup1\n      0x04\n      add\n      sload\n      swap1\n      pop\n      dup6\n      jump\t// out\n        /* \"contracts/Test.sol\":1488:1578  function makeSupplier() public {... */\n    tag_57:\n        /* \"contracts/Test.sol\":1549:1571  User(Role.Supplier, 0) */\n      mload(0x40)\n      dup1\n      0x40\n      add\n      0x40\n      mstore\n      dup1\n        /* \"contracts/Test.sol\":1554:1567  Role.Supplier */\n      0x02\n        /* \"contracts/Test.sol\":1549:1571  User(Role.Supplier, 0) */\n      dup1\n      dup2\n      gt\n      iszero\n      tag_192\n      jumpi\n      tag_193\n      tag_156\n      jump\t// in\n    tag_193:\n    tag_192:\n      dup2\n      mstore\n      0x20\n      add\n        /* \"contracts/Test.sol\":1569:1570  0 */\n      0x00\n        /* \"contracts/Test.sol\":1549:1571  User(Role.Supplier, 0) */\n      dup2\n      mstore\n      pop\n        /* \"contracts/Test.sol\":1529:1534  users */\n      0x03\n        /* \"contracts/Test.sol\":1529:1546  users[msg.sender] */\n      0x00\n        /* \"contracts/Test.sol\":1535:1545  msg.sender */\n      caller\n        /* \"contracts/Test.sol\":1529:1546  users[msg.sender] */\n      0xffffffffffffffffffffffffffffffffffffffff\n      and\n      0xffffffffffffffffffffffffffffffffffffffff\n      and\n      dup2\n      mstore\n      0x20\n      add\n      swap1\n      dup2\n      mstore\n      0x20\n      add\n      0x00\n      keccak256\n        /* \"contracts/Test.sol\":1529:1571  users[msg.sender] = User(Role.Supplier, 0) */\n      0x00\n      dup3\n      add\n      mload\n      dup2\n      0x00\n      add\n      exp(0x0100, 0x00)\n      dup2\n      sload\n      dup2\n      0xff\n      mul\n      not\n      and\n      swap1\n      dup4\n      0x02\n      dup2\n      gt\n      iszero\n      tag_194\n      jumpi\n      tag_195\n      tag_156\n      jump\t// in\n    tag_195:\n    tag_194:\n      mul\n      or\n      swap1\n      sstore\n      pop\n      0x20\n      dup3\n      add\n      mload\n      dup2\n      0x01\n      add\n      sstore\n      swap1\n      pop\n      pop\n        /* \"contracts/Test.sol\":1488:1578  function makeSupplier() public {... */\n      jump\t// out\n        /* \"contracts/Test.sol\":6043:6586  function refund(address _shop, uint _productId) public {... */\n    tag_61:\n        /* \"contracts/Test.sol\":6163:6177  marketProducts */\n      0x05\n        /* \"contracts/Test.sol\":6163:6184  marketProducts[_shop] */\n      0x00\n        /* \"contracts/Test.sol\":6178:6183  _shop */\n      dup4\n        /* \"contracts/Test.sol\":6163:6184  marketProducts[_shop] */\n      0xffffffffffffffffffffffffffffffffffffffff\n      and\n      0xffffffffffffffffffffffffffffffffffffffff\n      and\n      dup2\n      mstore\n      0x20\n      add\n      swap1\n      dup2\n      mstore\n      0x20\n      add\n      0x00\n      keccak256\n        /* \"contracts/Test.sol\":6185:6195  _productId */\n      dup2\n        /* \"contracts/Test.sol\":6163:6196  marketProducts[_shop][_productId] */\n      dup2\n      sload\n      dup2\n      lt\n      tag_197\n      jumpi\n      tag_198\n      tag_199\n      jump\t// in\n    tag_198:\n    tag_197:\n      swap1\n      0x00\n      mstore\n      keccak256(0x00, 0x20)\n      swap1\n      0x05\n      mul\n      add\n        /* \"contracts/Test.sol\":6163:6204  marketProducts[_shop][_productId].expDate */\n      0x04\n      add\n      sload\n        /* \"contracts/Test.sol\":6116:6128  userProducts */\n      0x04\n        /* \"contracts/Test.sol\":6116:6140  userProducts[msg.sender] */\n      0x00\n        /* \"contracts/Test.sol\":6129:6139  msg.sender */\n      caller\n        /* \"contracts/Test.sol\":6116:6140  userProducts[msg.sender] */\n      0xffffffffffffffffffffffffffffffffffffffff\n      and\n      0xffffffffffffffffffffffffffffffffffffffff\n      and\n      dup2\n      mstore\n      0x20\n      add\n      swap1\n      dup2\n      mstore\n      0x20\n      add\n      0x00\n      keccak256\n        /* \"contracts/Test.sol\":6141:6151  _productId */\n      dup3\n        /* \"contracts/Test.sol\":6116:6152  userProducts[msg.sender][_productId] */\n      dup2\n      sload\n      dup2\n      lt\n      tag_201\n      jumpi\n      tag_202\n      tag_199\n      jump\t// in\n    tag_202:\n    tag_201:\n      swap1\n      0x00\n      mstore\n      keccak256(0x00, 0x20)\n      swap1\n      0x05\n      mul\n      add\n        /* \"contracts/Test.sol\":6116:6160  userProducts[msg.sender][_productId].expDate */\n      0x04\n      add\n      sload\n        /* \"contracts/Test.sol\":6116:6204  userProducts[msg.sender][_productId].expDate > marketProducts[_shop][_productId].expDate */\n      gt\n        /* \"contracts/Test.sol\":6108:6205  require(userProducts[msg.sender][_productId].expDate > marketProducts[_shop][_productId].expDate) */\n      tag_204\n      jumpi\n      0x00\n      dup1\n      revert\n    tag_204:\n        /* \"contracts/Test.sol\":6215:6231  uint totalRefSum */\n      0x00\n        /* \"contracts/Test.sol\":6324:6331  1 ether */\n      0x0de0b6b3a7640000\n        /* \"contracts/Test.sol\":6282:6296  marketProducts */\n      0x05\n        /* \"contracts/Test.sol\":6282:6303  marketProducts[_shop] */\n      0x00\n        /* \"contracts/Test.sol\":6297:6302  _shop */\n      dup6\n        /* \"contracts/Test.sol\":6282:6303  marketProducts[_shop] */\n      0xffffffffffffffffffffffffffffffffffffffff\n      and\n      0xffffffffffffffffffffffffffffffffffffffff\n      and\n      dup2\n      mstore\n      0x20\n      add\n      swap1\n      dup2\n      mstore\n      0x20\n      add\n      0x00\n      keccak256\n        /* \"contracts/Test.sol\":6304:6314  _productId */\n      dup4\n        /* \"contracts/Test.sol\":6282:6315  marketProducts[_shop][_productId] */\n      dup2\n      sload\n      dup2\n      lt\n      tag_205\n      jumpi\n      tag_206\n      tag_199\n      jump\t// in\n    tag_206:\n    tag_205:\n      swap1\n      0x00\n      mstore\n      keccak256(0x00, 0x20)\n      swap1\n      0x05\n      mul\n      add\n        /* \"contracts/Test.sol\":6282:6321  marketProducts[_shop][_productId].price */\n      0x02\n      add\n      sload\n        /* \"contracts/Test.sol\":6235:6247  userProducts */\n      0x04\n        /* \"contracts/Test.sol\":6235:6259  userProducts[msg.sender] */\n      0x00\n        /* \"contracts/Test.sol\":6248:6258  msg.sender */\n      caller\n        /* \"contracts/Test.sol\":6235:6259  userProducts[msg.sender] */\n      0xffffffffffffffffffffffffffffffffffffffff\n      and\n      0xffffffffffffffffffffffffffffffffffffffff\n      and\n      dup2\n      mstore\n      0x20\n      add\n      swap1\n      dup2\n      mstore\n      0x20\n      add\n      0x00\n      keccak256\n        /* \"contracts/Test.sol\":6260:6270  _productId */\n      dup5\n        /* \"contracts/Test.sol\":6235:6271  userProducts[msg.sender][_productId] */\n      dup2\n      sload\n      dup2\n      lt\n      tag_208\n      jumpi\n      tag_209\n      tag_199\n      jump\t// in\n    tag_209:\n    tag_208:\n      swap1\n      0x00\n      mstore\n      keccak256(0x00, 0x20)\n      swap1\n      0x05\n      mul\n      add\n        /* \"contracts/Test.sol\":6235:6279  userProducts[msg.sender][_productId].inStock */\n      0x01\n      add\n      sload\n        /* \"contracts/Test.sol\":6235:6321  userProducts[msg.sender][_productId].inStock * marketProducts[_shop][_productId].price */\n      tag_211\n      swap2\n      swap1\n      tag_212\n      jump\t// in\n    tag_211:\n        /* \"contracts/Test.sol\":6235:6331  userProducts[msg.sender][_productId].inStock * marketProducts[_shop][_productId].price * 1 ether */\n      tag_213\n      swap2\n      swap1\n      tag_212\n      jump\t// in\n    tag_213:\n        /* \"contracts/Test.sol\":6215:6331  uint totalRefSum =  userProducts[msg.sender][_productId].inStock * marketProducts[_shop][_productId].price * 1 ether */\n      swap1\n      pop\n        /* \"contracts/Test.sol\":6386:6398  userProducts */\n      0x04\n        /* \"contracts/Test.sol\":6386:6410  userProducts[msg.sender] */\n      0x00\n        /* \"contracts/Test.sol\":6399:6409  msg.sender */\n      caller\n        /* \"contracts/Test.sol\":6386:6410  userProducts[msg.sender] */\n      0xffffffffffffffffffffffffffffffffffffffff\n      and\n      0xffffffffffffffffffffffffffffffffffffffff\n      and\n      dup2\n      mstore\n      0x20\n      add\n      swap1\n      dup2\n      mstore\n      0x20\n      add\n      0x00\n      keccak256\n        /* \"contracts/Test.sol\":6411:6421  _productId */\n      dup3\n        /* \"contracts/Test.sol\":6386:6422  userProducts[msg.sender][_productId] */\n      dup2\n      sload\n      dup2\n      lt\n      tag_214\n      jumpi\n      tag_215\n      tag_199\n      jump\t// in\n    tag_215:\n    tag_214:\n      swap1\n      0x00\n      mstore\n      keccak256(0x00, 0x20)\n      swap1\n      0x05\n      mul\n      add\n        /* \"contracts/Test.sol\":6386:6430  userProducts[msg.sender][_productId].inStock */\n      0x01\n      add\n      sload\n        /* \"contracts/Test.sol\":6341:6355  marketProducts */\n      0x05\n        /* \"contracts/Test.sol\":6341:6362  marketProducts[_shop] */\n      0x00\n        /* \"contracts/Test.sol\":6356:6361  _shop */\n      dup6\n        /* \"contracts/Test.sol\":6341:6362  marketProducts[_shop] */\n      0xffffffffffffffffffffffffffffffffffffffff\n      and\n      0xffffffffffffffffffffffffffffffffffffffff\n      and\n      dup2\n      mstore\n      0x20\n      add\n      swap1\n      dup2\n      mstore\n      0x20\n      add\n      0x00\n      keccak256\n        /* \"contracts/Test.sol\":6363:6373  _productId */\n      dup4\n        /* \"contracts/Test.sol\":6341:6374  marketProducts[_shop][_productId] */\n      dup2\n      sload\n      dup2\n      lt\n      tag_217\n      jumpi\n      tag_218\n      tag_199\n      jump\t// in\n    tag_218:\n    tag_217:\n      swap1\n      0x00\n      mstore\n      keccak256(0x00, 0x20)\n      swap1\n      0x05\n      mul\n      add\n        /* \"contracts/Test.sol\":6341:6382  marketProducts[_shop][_productId].inStock */\n      0x01\n      add\n      0x00\n        /* \"contracts/Test.sol\":6341:6430  marketProducts[_shop][_productId].inStock += userProducts[msg.sender][_productId].inStock */\n      dup3\n      dup3\n      sload\n      tag_220\n      swap2\n      swap1\n      tag_221\n      jump\t// in\n    tag_220:\n      swap3\n      pop\n      pop\n      dup2\n      swap1\n      sstore\n      pop\n        /* \"contracts/Test.sol\":6447:6459  userProducts */\n      0x04\n        /* \"contracts/Test.sol\":6447:6471  userProducts[msg.sender] */\n      0x00\n        /* \"contracts/Test.sol\":6460:6470  msg.sender */\n      caller\n        /* \"contracts/Test.sol\":6447:6471  userProducts[msg.sender] */\n      0xffffffffffffffffffffffffffffffffffffffff\n      and\n      0xffffffffffffffffffffffffffffffffffffffff\n      and\n      dup2\n      mstore\n      0x20\n      add\n      swap1\n      dup2\n      mstore\n      0x20\n      add\n      0x00\n      keccak256\n        /* \"contracts/Test.sol\":6472:6482  _productId */\n      dup3\n        /* \"contracts/Test.sol\":6447:6483  userProducts[msg.sender][_productId] */\n      dup2\n      sload\n      dup2\n      lt\n      tag_222\n      jumpi\n      tag_223\n      tag_199\n      jump\t// in\n    tag_223:\n    tag_222:\n      swap1\n      0x00\n      mstore\n      keccak256(0x00, 0x20)\n      swap1\n      0x05\n      mul\n      add\n      0x00\n        /* \"contracts/Test.sol\":6440:6483  delete userProducts[msg.sender][_productId] */\n      dup1\n      dup3\n      add\n      exp(0x0100, 0x00)\n      dup2\n      sload\n      swap1\n      0xffffffffffffffffffffffffffffffffffffffff\n      mul\n      not\n      and\n      swap1\n      sstore\n      0x01\n      dup3\n      add\n      0x00\n      swap1\n      sstore\n      0x02\n      dup3\n      add\n      0x00\n      swap1\n      sstore\n      0x03\n      dup3\n      add\n      0x00\n      tag_225\n      swap2\n      swap1\n      tag_226\n      jump\t// in\n    tag_225:\n      0x04\n      dup3\n      add\n      0x00\n      swap1\n      sstore\n      pop\n      pop\n        /* \"contracts/Test.sol\":6517:6528  totalRefSum */\n      dup1\n        /* \"contracts/Test.sol\":6493:6498  users */\n      0x03\n        /* \"contracts/Test.sol\":6493:6505  users[_shop] */\n      0x00\n        /* \"contracts/Test.sol\":6499:6504  _shop */\n      dup6\n        /* \"contracts/Test.sol\":6493:6505  users[_shop] */\n      0xffffffffffffffffffffffffffffffffffffffff\n      and\n      0xffffffffffffffffffffffffffffffffffffffff\n      and\n      dup2\n      mstore\n      0x20\n      add\n      swap1\n      dup2\n      mstore\n      0x20\n      add\n      0x00\n      keccak256\n        /* \"contracts/Test.sol\":6493:6513  users[_shop].balance */\n      0x01\n      add\n      0x00\n        /* \"contracts/Test.sol\":6493:6528  users[_shop].balance -= totalRefSum */\n      dup3\n      dup3\n      sload\n      tag_227\n      swap2\n      swap1\n      tag_228\n      jump\t// in\n    tag_227:\n      swap3\n      pop\n      pop\n      dup2\n      swap1\n      sstore\n      pop\n        /* \"contracts/Test.sol\":6546:6556  msg.sender */\n      caller\n        /* \"contracts/Test.sol\":6538:6566  payable(msg.sender).transfer */\n      0xffffffffffffffffffffffffffffffffffffffff\n      and\n        /* \"contracts/Test.sol\":6538:6579  payable(msg.sender).transfer(totalRefSum) */\n      0x08fc\n        /* \"contracts/Test.sol\":6567:6578  totalRefSum */\n      dup3\n        /* \"contracts/Test.sol\":6538:6579  payable(msg.sender).transfer(totalRefSum) */\n      swap1\n      dup2\n      iszero\n      mul\n      swap1\n      mload(0x40)\n      0x00\n      mload(0x40)\n      dup1\n      dup4\n      sub\n      dup2\n      dup6\n      dup9\n      dup9\n      call\n      swap4\n      pop\n      pop\n      pop\n      pop\n      iszero\n      dup1\n      iszero\n      tag_230\n      jumpi\n      returndatasize\n      0x00\n      dup1\n      returndatacopy\n      revert(0x00, returndatasize)\n    tag_230:\n      pop\n        /* \"contracts/Test.sol\":6098:6586  {... */\n      pop\n        /* \"contracts/Test.sol\":6043:6586  function refund(address _shop, uint _productId) public {... */\n      pop\n      pop\n      jump\t// out\n        /* \"contracts/Test.sol\":904:955  mapping(address => Product[]) public marketProducts */\n    tag_65:\n      mstore(0x20, 0x05)\n      dup2\n      0x00\n      mstore\n      keccak256(0x00, 0x40)\n      dup2\n      dup2\n      sload\n      dup2\n      lt\n      tag_231\n      jumpi\n      0x00\n      dup1\n      revert\n    tag_231:\n      swap1\n      0x00\n      mstore\n      keccak256(0x00, 0x20)\n      swap1\n      0x05\n      mul\n      add\n      0x00\n      swap2\n      pop\n      swap2\n      pop\n      pop\n      dup1\n      0x00\n      add\n      0x00\n      swap1\n      sload\n      swap1\n      0x0100\n      exp\n      swap1\n      div\n      0xffffffffffffffffffffffffffffffffffffffff\n      and\n      swap1\n      dup1\n      0x01\n      add\n      sload\n      swap1\n      dup1\n      0x02\n      add\n      sload\n      swap1\n      dup1\n      0x03\n      add\n      dup1\n      sload\n      tag_233\n      swap1\n      tag_172\n      jump\t// in\n    tag_233:\n      dup1\n      0x1f\n      add\n      0x20\n      dup1\n      swap2\n      div\n      mul\n      0x20\n      add\n      mload(0x40)\n      swap1\n      dup2\n      add\n      0x40\n      mstore\n      dup1\n      swap3\n      swap2\n      swap1\n      dup2\n      dup2\n      mstore\n      0x20\n      add\n      dup3\n      dup1\n      sload\n      tag_234\n      swap1\n      tag_172\n      jump\t// in\n    tag_234:\n      dup1\n      iszero\n      tag_235\n      jumpi\n      dup1\n      0x1f\n      lt\n      tag_236\n      jumpi\n      0x0100\n      dup1\n      dup4\n      sload\n      div\n      mul\n      dup4\n      mstore\n      swap2\n      0x20\n      add\n      swap2\n      jump(tag_235)\n    tag_236:\n      dup3\n      add\n      swap2\n      swap1\n      0x00\n      mstore\n      keccak256(0x00, 0x20)\n      swap1\n    tag_237:\n      dup2\n      sload\n      dup2\n      mstore\n      swap1\n      0x01\n      add\n      swap1\n      0x20\n      add\n      dup1\n      dup4\n      gt\n      tag_237\n      jumpi\n      dup3\n      swap1\n      sub\n      0x1f\n      and\n      dup3\n      add\n      swap2\n    tag_235:\n      pop\n      pop\n      pop\n      pop\n      pop\n      swap1\n      dup1\n      0x04\n      add\n      sload\n      swap1\n      pop\n      dup6\n      jump\t// out\n        /* \"contracts/Test.sol\":193:216  Ticket[] public tickets */\n    tag_70:\n      0x00\n      dup2\n      dup2\n      sload\n      dup2\n      lt\n      tag_238\n      jumpi\n      0x00\n      dup1\n      revert\n    tag_238:\n      swap1\n      0x00\n      mstore\n      keccak256(0x00, 0x20)\n      add\n      0x00\n      swap2\n      pop\n      swap1\n      pop\n      dup1\n      0x00\n      add\n      0x00\n      swap1\n      sload\n      swap1\n      0x0100\n      exp\n      swap1\n      div\n      0xffffffffffffffffffffffffffffffffffffffff\n      and\n      swap1\n      dup1\n      0x00\n      add\n      0x14\n      swap1\n      sload\n      swap1\n      0x0100\n      exp\n      swap1\n      div\n      0xff\n      and\n      swap1\n      pop\n      dup3\n      jump\t// out\n        /* \"contracts/Test.sol\":1902:1997  function changeRole(Role _role) public {... */\n    tag_77:\n        /* \"contracts/Test.sol\":1951:1958  tickets */\n      0x00\n        /* \"contracts/Test.sol\":1964:1989  Ticket(msg.sender, _role) */\n      mload(0x40)\n      dup1\n      0x40\n      add\n      0x40\n      mstore\n      dup1\n        /* \"contracts/Test.sol\":1971:1981  msg.sender */\n      caller\n        /* \"contracts/Test.sol\":1964:1989  Ticket(msg.sender, _role) */\n      0xffffffffffffffffffffffffffffffffffffffff\n      and\n      dup2\n      mstore\n      0x20\n      add\n        /* \"contracts/Test.sol\":1983:1988  _role */\n      dup4\n        /* \"contracts/Test.sol\":1964:1989  Ticket(msg.sender, _role) */\n      0x02\n      dup2\n      gt\n      iszero\n      tag_241\n      jumpi\n      tag_242\n      tag_156\n      jump\t// in\n    tag_242:\n    tag_241:\n      dup2\n      mstore\n      pop\n        /* \"contracts/Test.sol\":1951:1990  tickets.push(Ticket(msg.sender, _role)) */\n      swap1\n      dup1\n      0x01\n      dup2\n      sload\n      add\n      dup1\n      dup3\n      sstore\n      dup1\n      swap2\n      pop\n      pop\n      0x01\n      swap1\n      sub\n      swap1\n      0x00\n      mstore\n      keccak256(0x00, 0x20)\n      add\n      0x00\n      swap1\n      swap2\n      swap1\n      swap2\n      swap1\n      swap2\n      pop\n      0x00\n      dup3\n      add\n      mload\n      dup2\n      0x00\n      add\n      exp(0x0100, 0x00)\n      dup2\n      sload\n      dup2\n      0xffffffffffffffffffffffffffffffffffffffff\n      mul\n      not\n      and\n      swap1\n      dup4\n      0xffffffffffffffffffffffffffffffffffffffff\n      and\n      mul\n      or\n      swap1\n      sstore\n      pop\n      0x20\n      dup3\n      add\n      mload\n      dup2\n      0x00\n      add\n      exp(0x0100, 0x14)\n      dup2\n      sload\n      dup2\n      0xff\n      mul\n      not\n      and\n      swap1\n      dup4\n      0x02\n      dup2\n      gt\n      iszero\n      tag_244\n      jumpi\n      tag_245\n      tag_156\n      jump\t// in\n    tag_245:\n    tag_244:\n      mul\n      or\n      swap1\n      sstore\n      pop\n      pop\n      pop\n        /* \"contracts/Test.sol\":1902:1997  function changeRole(Role _role) public {... */\n      pop\n      jump\t// out\n        /* \"contracts/Test.sol\":2221:2611  function toUpper(string memory input) public pure returns (string memory) {... */\n    tag_82:\n        /* \"contracts/Test.sol\":2280:2293  string memory */\n      0x60\n        /* \"contracts/Test.sol\":2305:2328  bytes memory inputBytes */\n      0x00\n        /* \"contracts/Test.sol\":2337:2342  input */\n      dup3\n        /* \"contracts/Test.sol\":2305:2343  bytes memory inputBytes = bytes(input) */\n      swap1\n      pop\n        /* \"contracts/Test.sol\":2358:2367  uint256 i */\n      0x00\n        /* \"contracts/Test.sol\":2353:2570  for (uint256 i = 0; i < inputBytes.length; i++) {... */\n    tag_247:\n        /* \"contracts/Test.sol\":2377:2387  inputBytes */\n      dup2\n        /* \"contracts/Test.sol\":2377:2394  inputBytes.length */\n      mload\n        /* \"contracts/Test.sol\":2373:2374  i */\n      dup2\n        /* \"contracts/Test.sol\":2373:2394  i < inputBytes.length */\n      lt\n        /* \"contracts/Test.sol\":2353:2570  for (uint256 i = 0; i < inputBytes.length; i++) {... */\n      iszero\n      tag_248\n      jumpi\n        /* \"contracts/Test.sol\":2443:2445  97 */\n      0x61\n        /* \"contracts/Test.sol\":2425:2435  inputBytes */\n      dup3\n        /* \"contracts/Test.sol\":2436:2437  i */\n      dup3\n        /* \"contracts/Test.sol\":2425:2438  inputBytes[i] */\n      dup2\n      mload\n      dup2\n      lt\n      tag_250\n      jumpi\n      tag_251\n      tag_199\n      jump\t// in\n    tag_251:\n    tag_250:\n      0x20\n      add\n      add\n      mload\n      0xf8\n      shr\n      0xf8\n      shl\n        /* \"contracts/Test.sol\":2419:2439  uint8(inputBytes[i]) */\n      0xf8\n      shr\n        /* \"contracts/Test.sol\":2419:2445  uint8(inputBytes[i]) >= 97 */\n      0xff\n      and\n      lt\n      iszero\n        /* \"contracts/Test.sol\":2419:2476  uint8(inputBytes[i]) >= 97 && uint8(inputBytes[i]) <= 122 */\n      dup1\n      iszero\n      tag_252\n      jumpi\n      pop\n        /* \"contracts/Test.sol\":2473:2476  122 */\n      0x7a\n        /* \"contracts/Test.sol\":2455:2465  inputBytes */\n      dup3\n        /* \"contracts/Test.sol\":2466:2467  i */\n      dup3\n        /* \"contracts/Test.sol\":2455:2468  inputBytes[i] */\n      dup2\n      mload\n      dup2\n      lt\n      tag_253\n      jumpi\n      tag_254\n      tag_199\n      jump\t// in\n    tag_254:\n    tag_253:\n      0x20\n      add\n      add\n      mload\n      0xf8\n      shr\n      0xf8\n      shl\n        /* \"contracts/Test.sol\":2449:2469  uint8(inputBytes[i]) */\n      0xf8\n      shr\n        /* \"contracts/Test.sol\":2449:2476  uint8(inputBytes[i]) <= 122 */\n      0xff\n      and\n      gt\n      iszero\n        /* \"contracts/Test.sol\":2419:2476  uint8(inputBytes[i]) >= 97 && uint8(inputBytes[i]) <= 122 */\n    tag_252:\n        /* \"contracts/Test.sol\":2415:2560  if (uint8(inputBytes[i]) >= 97 && uint8(inputBytes[i]) <= 122) {... */\n      iszero\n      tag_255\n      jumpi\n        /* \"contracts/Test.sol\":2542:2544  32 */\n      0x20\n        /* \"contracts/Test.sol\":2525:2535  inputBytes */\n      dup3\n        /* \"contracts/Test.sol\":2536:2537  i */\n      dup3\n        /* \"contracts/Test.sol\":2525:2538  inputBytes[i] */\n      dup2\n      mload\n      dup2\n      lt\n      tag_256\n      jumpi\n      tag_257\n      tag_199\n      jump\t// in\n    tag_257:\n    tag_256:\n      0x20\n      add\n      add\n      mload\n      0xf8\n      shr\n      0xf8\n      shl\n        /* \"contracts/Test.sol\":2519:2539  uint8(inputBytes[i]) */\n      0xf8\n      shr\n        /* \"contracts/Test.sol\":2519:2544  uint8(inputBytes[i]) - 32 */\n      tag_258\n      swap2\n      swap1\n      tag_259\n      jump\t// in\n    tag_258:\n        /* \"contracts/Test.sol\":2512:2545  bytes1(uint8(inputBytes[i]) - 32) */\n      0xf8\n      shl\n        /* \"contracts/Test.sol\":2496:2506  inputBytes */\n      dup3\n        /* \"contracts/Test.sol\":2507:2508  i */\n      dup3\n        /* \"contracts/Test.sol\":2496:2509  inputBytes[i] */\n      dup2\n      mload\n      dup2\n      lt\n      tag_260\n      jumpi\n      tag_261\n      tag_199\n      jump\t// in\n    tag_261:\n    tag_260:\n      0x20\n      add\n      add\n        /* \"contracts/Test.sol\":2496:2545  inputBytes[i] = bytes1(uint8(inputBytes[i]) - 32) */\n      swap1\n      not(0xffffffffffffffffffffffffffffffffffffffffffffffffffffffffffffff)\n      and\n      swap1\n      dup2\n      0x00\n      byte\n      swap1\n      mstore8\n      pop\n        /* \"contracts/Test.sol\":2415:2560  if (uint8(inputBytes[i]) >= 97 && uint8(inputBytes[i]) <= 122) {... */\n    tag_255:\n        /* \"contracts/Test.sol\":2396:2399  i++ */\n      dup1\n      dup1\n      tag_262\n      swap1\n      tag_263\n      jump\t// in\n    tag_262:\n      swap2\n      pop\n      pop\n        /* \"contracts/Test.sol\":2353:2570  for (uint256 i = 0; i < inputBytes.length; i++) {... */\n      jump(tag_247)\n    tag_248:\n      pop\n        /* \"contracts/Test.sol\":2593:2603  inputBytes */\n      dup1\n        /* \"contracts/Test.sol\":2579:2604  return string(inputBytes) */\n      swap2\n      pop\n      pop\n        /* \"contracts/Test.sol\":2221:2611  function toUpper(string memory input) public pure returns (string memory) {... */\n      swap2\n      swap1\n      pop\n      jump\t// out\n        /* \"contracts/Test.sol\":1584:1671  function makeMarket() public  {... */\n    tag_87:\n        /* \"contracts/Test.sol\":1644:1664  User(Role.Market, 0) */\n      mload(0x40)\n      dup1\n      0x40\n      add\n      0x40\n      mstore\n      dup1\n        /* \"contracts/Test.sol\":1649:1660  Role.Market */\n      0x01\n        /* \"contracts/Test.sol\":1644:1664  User(Role.Market, 0) */\n      0x02\n      dup2\n      gt\n      iszero\n      tag_265\n      jumpi\n      tag_266\n      tag_156\n      jump\t// in\n    tag_266:\n    tag_265:\n      dup2\n      mstore\n      0x20\n      add\n        /* \"contracts/Test.sol\":1662:1663  0 */\n      0x00\n        /* \"contracts/Test.sol\":1644:1664  User(Role.Market, 0) */\n      dup2\n      mstore\n      pop\n        /* \"contracts/Test.sol\":1624:1629  users */\n      0x03\n        /* \"contracts/Test.sol\":1624:1641  users[msg.sender] */\n      0x00\n        /* \"contracts/Test.sol\":1630:1640  msg.sender */\n      caller\n        /* \"contracts/Test.sol\":1624:1641  users[msg.sender] */\n      0xffffffffffffffffffffffffffffffffffffffff\n      and\n      0xffffffffffffffffffffffffffffffffffffffff\n      and\n      dup2\n      mstore\n      0x20\n      add\n      swap1\n      dup2\n      mstore\n      0x20\n      add\n      0x00\n      keccak256\n        /* \"contracts/Test.sol\":1624:1664  users[msg.sender] = User(Role.Market, 0) */\n      0x00\n      dup3\n      add\n      mload\n      dup2\n      0x00\n      add\n      exp(0x0100, 0x00)\n      dup2\n      sload\n      dup2\n      0xff\n      mul\n      not\n      and\n      swap1\n      dup4\n      0x02\n      dup2\n      gt\n      iszero\n      tag_267\n      jumpi\n      tag_268\n      tag_156\n      jump\t// in\n    tag_268:\n    tag_267:\n      mul\n      or\n      swap1\n      sstore\n      pop\n      0x20\n      dup3\n      add\n      mload\n      dup2\n      0x01\n      add\n      sstore\n      swap1\n      pop\n      pop\n        /* \"contracts/Test.sol\":1584:1671  function makeMarket() public  {... */\n      jump\t// out\n        /* \"contracts/Test.sol\":1677:1896  function approveChangeRole(uint _idTicket) public OnlyOwner {... */\n    tag_91:\n        /* \"contracts/Test.sol\":1127:1132  owner */\n      0x01\n      0x00\n      swap1\n      sload\n      swap1\n      0x0100\n      exp\n      swap1\n      div\n      0xffffffffffffffffffffffffffffffffffffffff\n      and\n        /* \"contracts/Test.sol\":1113:1132  msg.sender == owner */\n      0xffffffffffffffffffffffffffffffffffffffff\n      and\n        /* \"contracts/Test.sol\":1113:1123  msg.sender */\n      caller\n        /* \"contracts/Test.sol\":1113:1132  msg.sender == owner */\n      0xffffffffffffffffffffffffffffffffffffffff\n      and\n      eq\n        /* \"contracts/Test.sol\":1105:1133  require(msg.sender == owner) */\n      tag_270\n      jumpi\n      0x00\n      dup1\n      revert\n    tag_270:\n        /* \"contracts/Test.sol\":1747:1763  address userAddr */\n      0x00\n        /* \"contracts/Test.sol\":1766:1773  tickets */\n      dup1\n        /* \"contracts/Test.sol\":1774:1783  _idTicket */\n      dup3\n        /* \"contracts/Test.sol\":1766:1784  tickets[_idTicket] */\n      dup2\n      sload\n      dup2\n      lt\n      tag_272\n      jumpi\n      tag_273\n      tag_199\n      jump\t// in\n    tag_273:\n    tag_272:\n      swap1\n      0x00\n      mstore\n      keccak256(0x00, 0x20)\n      add\n        /* \"contracts/Test.sol\":1766:1793  tickets[_idTicket].userAddr */\n      0x00\n      add\n      0x00\n      swap1\n      sload\n      swap1\n      0x0100\n      exp\n      swap1\n      div\n      0xffffffffffffffffffffffffffffffffffffffff\n      and\n        /* \"contracts/Test.sol\":1747:1793  address userAddr = tickets[_idTicket].userAddr */\n      swap1\n      pop\n        /* \"contracts/Test.sol\":1803:1819  Role changedRole */\n      0x00\n        /* \"contracts/Test.sol\":1822:1829  tickets */\n      dup1\n        /* \"contracts/Test.sol\":1830:1839  _idTicket */\n      dup4\n        /* \"contracts/Test.sol\":1822:1840  tickets[_idTicket] */\n      dup2\n      sload\n      dup2\n      lt\n      tag_275\n      jumpi\n      tag_276\n      tag_199\n      jump\t// in\n    tag_276:\n    tag_275:\n      swap1\n      0x00\n      mstore\n      keccak256(0x00, 0x20)\n      add\n        /* \"contracts/Test.sol\":1822:1845  tickets[_idTicket].role */\n      0x00\n      add\n      0x14\n      swap1\n      sload\n      swap1\n      0x0100\n      exp\n      swap1\n      div\n      0xff\n      and\n        /* \"contracts/Test.sol\":1803:1845  Role changedRole = tickets[_idTicket].role */\n      swap1\n      pop\n        /* \"contracts/Test.sol\":1878:1889  changedRole */\n      dup1\n        /* \"contracts/Test.sol\":1855:1860  users */\n      0x03\n        /* \"contracts/Test.sol\":1855:1870  users[userAddr] */\n      0x00\n        /* \"contracts/Test.sol\":1861:1869  userAddr */\n      dup5\n        /* \"contracts/Test.sol\":1855:1870  users[userAddr] */\n      0xffffffffffffffffffffffffffffffffffffffff\n      and\n      0xffffffffffffffffffffffffffffffffffffffff\n      and\n      dup2\n      mstore\n      0x20\n      add\n      swap1\n      dup2\n      mstore\n      0x20\n      add\n      0x00\n      keccak256\n        /* \"contracts/Test.sol\":1855:1875  users[userAddr].role */\n      0x00\n      add\n      0x00\n        /* \"contracts/Test.sol\":1855:1889  users[userAddr].role = changedRole */\n      0x0100\n      exp\n      dup2\n      sload\n      dup2\n      0xff\n      mul\n      not\n      and\n      swap1\n      dup4\n      0x02\n      dup2\n      gt\n      iszero\n      tag_278\n      jumpi\n      tag_279\n      tag_156\n      jump\t// in\n    tag_279:\n    tag_278:\n      mul\n      or\n      swap1\n      sstore\n      pop\n        /* \"contracts/Test.sol\":1737:1896  {... */\n      pop\n      pop\n        /* \"contracts/Test.sol\":1677:1896  function approveChangeRole(uint _idTicket) public OnlyOwner {... */\n      pop\n      jump\t// out\n        /* \"contracts/Test.sol\":2768:3358  function makeDelivery(address _shop, uint _productId, uint _amount) public {... */\n    tag_96:\n        /* \"contracts/Test.sol\":2871:2872  0 */\n      0x00\n        /* \"contracts/Test.sol\":2861:2868  _amount */\n      dup2\n        /* \"contracts/Test.sol\":2861:2872  _amount > 0 */\n      gt\n        /* \"contracts/Test.sol\":2853:2915  require(_amount > 0, \"Purchase amount must be greater than 0\") */\n      tag_281\n      jumpi\n      mload(0x40)\n      0x08c379a000000000000000000000000000000000000000000000000000000000\n      dup2\n      mstore\n      0x04\n      add\n      tag_282\n      swap1\n      tag_283\n      jump\t// in\n    tag_282:\n      mload(0x40)\n      dup1\n      swap2\n      sub\n      swap1\n      revert\n    tag_281:\n        /* \"contracts/Test.sol\":2946:2960  marketProducts */\n      0x05\n        /* \"contracts/Test.sol\":2946:2967  marketProducts[_shop] */\n      0x00\n        /* \"contracts/Test.sol\":2961:2966  _shop */\n      dup5\n        /* \"contracts/Test.sol\":2946:2967  marketProducts[_shop] */\n      0xffffffffffffffffffffffffffffffffffffffff\n      and\n      0xffffffffffffffffffffffffffffffffffffffff\n      and\n      dup2\n      mstore\n      0x20\n      add\n      swap1\n      dup2\n      mstore\n      0x20\n      add\n      0x00\n      keccak256\n        /* \"contracts/Test.sol\":2946:2974  marketProducts[_shop].length */\n      dup1\n      sload\n      swap1\n      pop\n        /* \"contracts/Test.sol\":2933:2943  _productId */\n      dup3\n        /* \"contracts/Test.sol\":2933:2974  _productId < marketProducts[_shop].length */\n      lt\n        /* \"contracts/Test.sol\":2925:2997  require(_productId < marketProducts[_shop].length, \"Invalid product ID\") */\n      tag_284\n      jumpi\n      mload(0x40)\n      0x08c379a000000000000000000000000000000000000000000000000000000000\n      dup2\n      mstore\n      0x04\n      add\n      tag_285\n      swap1\n      tag_286\n      jump\t// in\n    tag_285:\n      mload(0x40)\n      dup1\n      swap2\n      sub\n      swap1\n      revert\n    tag_284:\n        /* \"contracts/Test.sol\":3007:3032  string memory productName */\n      0x00\n        /* \"contracts/Test.sol\":3035:3049  marketProducts */\n      0x05\n        /* \"contracts/Test.sol\":3035:3056  marketProducts[_shop] */\n      0x00\n        /* \"contracts/Test.sol\":3050:3055  _shop */\n      dup6\n        /* \"contracts/Test.sol\":3035:3056  marketProducts[_shop] */\n      0xffffffffffffffffffffffffffffffffffffffff\n      and\n      0xffffffffffffffffffffffffffffffffffffffff\n      and\n      dup2\n      mstore\n      0x20\n      add\n      swap1\n      dup2\n      mstore\n      0x20\n      add\n      0x00\n      keccak256\n        /* \"contracts/Test.sol\":3057:3067  _productId */\n      dup4\n        /* \"contracts/Test.sol\":3035:3068  marketProducts[_shop][_productId] */\n      dup2\n      sload\n      dup2\n      lt\n      tag_287\n      jumpi\n      tag_288\n      tag_199\n      jump\t// in\n    tag_288:\n    tag_287:\n      swap1\n      0x00\n      mstore\n      keccak256(0x00, 0x20)\n      swap1\n      0x05\n      mul\n      add\n        /* \"contracts/Test.sol\":3035:3073  marketProducts[_shop][_productId].name */\n      0x03\n      add\n        /* \"contracts/Test.sol\":3007:3073  string memory productName = marketProducts[_shop][_productId].name */\n      dup1\n      sload\n      tag_290\n      swap1\n      tag_172\n      jump\t// in\n    tag_290:\n      dup1\n      0x1f\n      add\n      0x20\n      dup1\n      swap2\n      div\n      mul\n      0x20\n      add\n      mload(0x40)\n      swap1\n      dup2\n      add\n      0x40\n      mstore\n      dup1\n      swap3\n      swap2\n      swap1\n      dup2\n      dup2\n      mstore\n      0x20\n      add\n      dup3\n      dup1\n      sload\n      tag_291\n      swap1\n      tag_172\n      jump\t// in\n    tag_291:\n      dup1\n      iszero\n      tag_292\n      jumpi\n      dup1\n      0x1f\n      lt\n      tag_293\n      jumpi\n      0x0100\n      dup1\n      dup4\n      sload\n      div\n      mul\n      dup4\n      mstore\n      swap2\n      0x20\n      add\n      swap2\n      jump(tag_292)\n    tag_293:\n      dup3\n      add\n      swap2\n      swap1\n      0x00\n      mstore\n      keccak256(0x00, 0x20)\n      swap1\n    tag_294:\n      dup2\n      sload\n      dup2\n      mstore\n      swap1\n      0x01\n      add\n      swap1\n      0x20\n      add\n      dup1\n      dup4\n      gt\n      tag_294\n      jumpi\n      dup3\n      swap1\n      sub\n      0x1f\n      and\n      dup3\n      add\n      swap2\n    tag_292:\n      pop\n      pop\n      pop\n      pop\n      pop\n      swap1\n      pop\n        /* \"contracts/Test.sol\":3083:3108  string memory trackNumber */\n      0x00\n        /* \"contracts/Test.sol\":3130:3141  productName */\n      dup2\n        /* \"contracts/Test.sol\":3111:3147  string.concat(\"AA\",productName,\"BB\") */\n      add(0x20, mload(0x40))\n      tag_295\n      swap2\n      swap1\n      tag_296\n      jump\t// in\n    tag_295:\n      mload(0x40)\n      0x20\n      dup2\n      dup4\n      sub\n      sub\n      dup2\n      mstore\n      swap1\n      0x40\n      mstore\n        /* \"contracts/Test.sol\":3083:3147  string memory trackNumber = string.concat(\"AA\",productName,\"BB\") */\n      swap1\n      pop\n        /* \"contracts/Test.sol\":3171:3191  toUpper(trackNumber) */\n      tag_297\n        /* \"contracts/Test.sol\":3179:3190  trackNumber */\n      dup2\n        /* \"contracts/Test.sol\":3171:3178  toUpper */\n      tag_82\n        /* \"contracts/Test.sol\":3171:3191  toUpper(trackNumber) */\n      jump\t// in\n    tag_297:\n        /* \"contracts/Test.sol\":3157:3191  trackNumber = toUpper(trackNumber) */\n      swap1\n      pop\n        /* \"contracts/Test.sol\":3201:3227  DeliveryOrder memory order */\n      0x00\n        /* \"contracts/Test.sol\":3230:3315  DeliveryOrder(msg.sender, _shop, Status.Prepairing, trackNumber, _productId, _amount) */\n      mload(0x40)\n      dup1\n      0xc0\n      add\n      0x40\n      mstore\n      dup1\n        /* \"contracts/Test.sol\":3244:3254  msg.sender */\n      caller\n        /* \"contracts/Test.sol\":3230:3315  DeliveryOrder(msg.sender, _shop, Status.Prepairing, trackNumber, _productId, _amount) */\n      0xffffffffffffffffffffffffffffffffffffffff\n      and\n      dup2\n      mstore\n      0x20\n      add\n        /* \"contracts/Test.sol\":3256:3261  _shop */\n      dup8\n        /* \"contracts/Test.sol\":3230:3315  DeliveryOrder(msg.sender, _shop, Status.Prepairing, trackNumber, _productId, _amount) */\n      0xffffffffffffffffffffffffffffffffffffffff\n      and\n      dup2\n      mstore\n      0x20\n      add\n        /* \"contracts/Test.sol\":3263:3280  Status.Prepairing */\n      0x01\n        /* \"contracts/Test.sol\":3230:3315  DeliveryOrder(msg.sender, _shop, Status.Prepairing, trackNumber, _productId, _amount) */\n      0x03\n      dup2\n      gt\n      iszero\n      tag_298\n      jumpi\n      tag_299\n      tag_156\n      jump\t// in\n    tag_299:\n    tag_298:\n      dup2\n      mstore\n      0x20\n      add\n        /* \"contracts/Test.sol\":3282:3293  trackNumber */\n      dup4\n        /* \"contracts/Test.sol\":3230:3315  DeliveryOrder(msg.sender, _shop, Status.Prepairing, trackNumber, _productId, _amount) */\n      dup2\n      mstore\n      0x20\n      add\n        /* \"contracts/Test.sol\":3295:3305  _productId */\n      dup7\n        /* \"contracts/Test.sol\":3230:3315  DeliveryOrder(msg.sender, _shop, Status.Prepairing, trackNumber, _productId, _amount) */\n      dup2\n      mstore\n      0x20\n      add\n        /* \"contracts/Test.sol\":3307:3314  _amount */\n      dup6\n        /* \"contracts/Test.sol\":3230:3315  DeliveryOrder(msg.sender, _shop, Status.Prepairing, trackNumber, _productId, _amount) */\n      dup2\n      mstore\n      pop\n        /* \"contracts/Test.sol\":3201:3315  DeliveryOrder memory order = DeliveryOrder(msg.sender, _shop, Status.Prepairing, trackNumber, _productId, _amount) */\n      swap1\n      pop\n        /* \"contracts/Test.sol\":3325:3339  deliveryOrders */\n      0x02\n        /* \"contracts/Test.sol\":3345:3350  order */\n      dup2\n        /* \"contracts/Test.sol\":3325:3351  deliveryOrders.push(order) */\n      swap1\n      dup1\n      0x01\n      dup2\n      sload\n      add\n      dup1\n      dup3\n      sstore\n      dup1\n      swap2\n      pop\n      pop\n      0x01\n      swap1\n      sub\n      swap1\n      0x00\n      mstore\n      keccak256(0x00, 0x20)\n      swap1\n      0x05\n      mul\n      add\n      0x00\n      swap1\n      swap2\n      swap1\n      swap2\n      swap1\n      swap2\n      pop\n      0x00\n      dup3\n      add\n      mload\n      dup2\n      0x00\n      add\n      exp(0x0100, 0x00)\n      dup2\n      sload\n      dup2\n      0xffffffffffffffffffffffffffffffffffffffff\n      mul\n      not\n      and\n      swap1\n      dup4\n      0xffffffffffffffffffffffffffffffffffffffff\n      and\n      mul\n      or\n      swap1\n      sstore\n      pop\n      0x20\n      dup3\n      add\n      mload\n      dup2\n      0x01\n      add\n      exp(0x0100, 0x00)\n      dup2\n      sload\n      dup2\n      0xffffffffffffffffffffffffffffffffffffffff\n      mul\n      not\n      and\n      swap1\n      dup4\n      0xffffffffffffffffffffffffffffffffffffffff\n      and\n      mul\n      or\n      swap1\n      sstore\n      pop\n      0x40\n      dup3\n      add\n      mload\n      dup2\n      0x01\n      add\n      exp(0x0100, 0x14)\n      dup2\n      sload\n      dup2\n      0xff\n      mul\n      not\n      and\n      swap1\n      dup4\n      0x03\n      dup2\n      gt\n      iszero\n      tag_301\n      jumpi\n      tag_302\n      tag_156\n      jump\t// in\n    tag_302:\n    tag_301:\n      mul\n      or\n      swap1\n      sstore\n      pop\n      0x60\n      dup3\n      add\n      mload\n      dup2\n      0x02\n      add\n      swap1\n      dup2\n      tag_303\n      swap2\n      swap1\n      tag_168\n      jump\t// in\n    tag_303:\n      pop\n      0x80\n      dup3\n      add\n      mload\n      dup2\n      0x03\n      add\n      sstore\n      0xa0\n      dup3\n      add\n      mload\n      dup2\n      0x04\n      add\n      sstore\n      pop\n      pop\n        /* \"contracts/Test.sol\":2843:3358  {... */\n      pop\n      pop\n      pop\n        /* \"contracts/Test.sol\":2768:3358  function makeDelivery(address _shop, uint _productId, uint _amount) public {... */\n      pop\n      pop\n      pop\n      jump\t// out\n        /* \"contracts/Test.sol\":3364:3666  function approveDelivery(bool _status, uint _deliveryId) public AccessControl(Role.Market, msg.sender) {... */\n    tag_101:\n        /* \"contracts/Test.sol\":3442:3453  Role.Market */\n      0x01\n        /* \"contracts/Test.sol\":3455:3465  msg.sender */\n      caller\n        /* \"contracts/Test.sol\":1254:1259  _role */\n      dup2\n        /* \"contracts/Test.sol\":1228:1259  users[msg.sender].role == _role */\n      0x02\n      dup2\n      gt\n      iszero\n      tag_305\n      jumpi\n      tag_306\n      tag_156\n      jump\t// in\n    tag_306:\n    tag_305:\n        /* \"contracts/Test.sol\":1228:1233  users */\n      0x03\n        /* \"contracts/Test.sol\":1228:1245  users[msg.sender] */\n      0x00\n        /* \"contracts/Test.sol\":1234:1244  msg.sender */\n      caller\n        /* \"contracts/Test.sol\":1228:1245  users[msg.sender] */\n      0xffffffffffffffffffffffffffffffffffffffff\n      and\n      0xffffffffffffffffffffffffffffffffffffffff\n      and\n      dup2\n      mstore\n      0x20\n      add\n      swap1\n      dup2\n      mstore\n      0x20\n      add\n      0x00\n      keccak256\n        /* \"contracts/Test.sol\":1228:1250  users[msg.sender].role */\n      0x00\n      add\n      0x00\n      swap1\n      sload\n      swap1\n      0x0100\n      exp\n      swap1\n      div\n      0xff\n      and\n        /* \"contracts/Test.sol\":1228:1259  users[msg.sender].role == _role */\n      0x02\n      dup2\n      gt\n      iszero\n      tag_307\n      jumpi\n      tag_308\n      tag_156\n      jump\t// in\n    tag_308:\n    tag_307:\n      eq\n        /* \"contracts/Test.sol\":1220:1300  require(users[msg.sender].role == _role, \"Your role does not allow this change\") */\n      tag_309\n      jumpi\n      mload(0x40)\n      0x08c379a000000000000000000000000000000000000000000000000000000000\n      dup2\n      mstore\n      0x04\n      add\n      tag_310\n      swap1\n      tag_161\n      jump\t// in\n    tag_310:\n      mload(0x40)\n      dup1\n      swap2\n      sub\n      swap1\n      revert\n    tag_309:\n        /* \"contracts/Test.sol\":1332:1337  _shop */\n      dup1\n        /* \"contracts/Test.sol\":1318:1337  msg.sender == _shop */\n      0xffffffffffffffffffffffffffffffffffffffff\n      and\n        /* \"contracts/Test.sol\":1318:1328  msg.sender */\n      caller\n        /* \"contracts/Test.sol\":1318:1337  msg.sender == _shop */\n      0xffffffffffffffffffffffffffffffffffffffff\n      and\n      eq\n        /* \"contracts/Test.sol\":1310:1376  require(msg.sender == _shop, \"The shop does not match the sender\") */\n      tag_311\n      jumpi\n      mload(0x40)\n      0x08c379a000000000000000000000000000000000000000000000000000000000\n      dup2\n      mstore\n      0x04\n      add\n      tag_312\n      swap1\n      tag_164\n      jump\t// in\n    tag_312:\n      mload(0x40)\n      dup1\n      swap2\n      sub\n      swap1\n      revert\n    tag_311:\n        /* \"contracts/Test.sol\":3481:3488  _status */\n      dup4\n        /* \"contracts/Test.sol\":3477:3660  if (_status) {... */\n      iszero\n      tag_314\n      jumpi\n        /* \"contracts/Test.sol\":3541:3558  Status.Prepairing */\n      0x01\n        /* \"contracts/Test.sol\":3504:3518  deliveryOrders */\n      0x02\n        /* \"contracts/Test.sol\":3519:3530  _deliveryId */\n      dup5\n        /* \"contracts/Test.sol\":3504:3531  deliveryOrders[_deliveryId] */\n      dup2\n      sload\n      dup2\n      lt\n      tag_315\n      jumpi\n      tag_316\n      tag_199\n      jump\t// in\n    tag_316:\n    tag_315:\n      swap1\n      0x00\n      mstore\n      keccak256(0x00, 0x20)\n      swap1\n      0x05\n      mul\n      add\n        /* \"contracts/Test.sol\":3504:3538  deliveryOrders[_deliveryId].status */\n      0x01\n      add\n      0x14\n        /* \"contracts/Test.sol\":3504:3558  deliveryOrders[_deliveryId].status = Status.Prepairing */\n      0x0100\n      exp\n      dup2\n      sload\n      dup2\n      0xff\n      mul\n      not\n      and\n      swap1\n      dup4\n      0x03\n      dup2\n      gt\n      iszero\n      tag_318\n      jumpi\n      tag_319\n      tag_156\n      jump\t// in\n    tag_319:\n    tag_318:\n      mul\n      or\n      swap1\n      sstore\n      pop\n        /* \"contracts/Test.sol\":3477:3660  if (_status) {... */\n      jump(tag_320)\n    tag_314:\n        /* \"contracts/Test.sol\":3634:3649  Status.Canceled */\n      0x02\n        /* \"contracts/Test.sol\":3597:3611  deliveryOrders */\n      dup1\n        /* \"contracts/Test.sol\":3612:3623  _deliveryId */\n      dup5\n        /* \"contracts/Test.sol\":3597:3624  deliveryOrders[_deliveryId] */\n      dup2\n      sload\n      dup2\n      lt\n      tag_321\n      jumpi\n      tag_322\n      tag_199\n      jump\t// in\n    tag_322:\n    tag_321:\n      swap1\n      0x00\n      mstore\n      keccak256(0x00, 0x20)\n      swap1\n      0x05\n      mul\n      add\n        /* \"contracts/Test.sol\":3597:3631  deliveryOrders[_deliveryId].status */\n      0x01\n      add\n      0x14\n        /* \"contracts/Test.sol\":3597:3649  deliveryOrders[_deliveryId].status = Status.Canceled */\n      0x0100\n      exp\n      dup2\n      sload\n      dup2\n      0xff\n      mul\n      not\n      and\n      swap1\n      dup4\n      0x03\n      dup2\n      gt\n      iszero\n      tag_324\n      jumpi\n      tag_325\n      tag_156\n      jump\t// in\n    tag_325:\n    tag_324:\n      mul\n      or\n      swap1\n      sstore\n      pop\n        /* \"contracts/Test.sol\":3477:3660  if (_status) {... */\n    tag_320:\n        /* \"contracts/Test.sol\":3364:3666  function approveDelivery(bool _status, uint _deliveryId) public AccessControl(Role.Market, msg.sender) {... */\n      pop\n      pop\n      pop\n      pop\n      jump\t// out\n        /* \"contracts/Test.sol\":2003:2215  function randMod(uint _modulus) public view returns(uint) {   ... */\n    tag_105:\n        /* \"contracts/Test.sol\":2055:2059  uint */\n      0x00\n        /* \"contracts/Test.sol\":2074:2088  uint randNonce */\n      dup1\n        /* \"contracts/Test.sol\":2098:2109  randNonce++ */\n      dup1\n      dup1\n      tag_327\n      swap1\n      tag_263\n      jump\t// in\n    tag_327:\n      swap2\n      pop\n      pop\n        /* \"contracts/Test.sol\":2200:2208  _modulus */\n      dup3\n        /* \"contracts/Test.sol\":2158:2173  block.timestamp */\n      timestamp\n        /* \"contracts/Test.sol\":2174:2184  msg.sender */\n      caller\n        /* \"contracts/Test.sol\":2185:2194  randNonce */\n      dup4\n        /* \"contracts/Test.sol\":2141:2195  abi.encodePacked(block.timestamp,msg.sender,randNonce) */\n      add(0x20, mload(0x40))\n      tag_328\n      swap4\n      swap3\n      swap2\n      swap1\n      tag_329\n      jump\t// in\n    tag_328:\n      mload(0x40)\n      0x20\n      dup2\n      dup4\n      sub\n      sub\n      dup2\n      mstore\n      swap1\n      0x40\n      mstore\n        /* \"contracts/Test.sol\":2131:2196  keccak256(abi.encodePacked(block.timestamp,msg.sender,randNonce)) */\n      dup1\n      mload\n      swap1\n      0x20\n      add\n      keccak256\n        /* \"contracts/Test.sol\":2126:2197  uint(keccak256(abi.encodePacked(block.timestamp,msg.sender,randNonce))) */\n      0x00\n      shr\n        /* \"contracts/Test.sol\":2126:2208  uint(keccak256(abi.encodePacked(block.timestamp,msg.sender,randNonce))) % _modulus */\n      tag_330\n      swap2\n      swap1\n      tag_331\n      jump\t// in\n    tag_330:\n        /* \"contracts/Test.sol\":2119:2208  return uint(keccak256(abi.encodePacked(block.timestamp,msg.sender,randNonce))) % _modulus */\n      swap2\n      pop\n      pop\n        /* \"contracts/Test.sol\":2003:2215  function randMod(uint _modulus) public view returns(uint) {   ... */\n      swap2\n      swap1\n      pop\n      jump\t// out\n        /* \"contracts/Test.sol\":4102:4416  function addItemsSupplier(uint _inStock, uint _price, string calldata _name, uint _expDate, address _addressSupp) public AccessControl(Role.Supplier, _addressSupp) {... */\n    tag_112:\n        /* \"contracts/Test.sol\":4237:4250  Role.Supplier */\n      0x02\n        /* \"contracts/Test.sol\":4252:4264  _addressSupp */\n      dup2\n        /* \"contracts/Test.sol\":1254:1259  _role */\n      dup2\n        /* \"contracts/Test.sol\":1228:1259  users[msg.sender].role == _role */\n      0x02\n      dup2\n      gt\n      iszero\n      tag_333\n      jumpi\n      tag_334\n      tag_156\n      jump\t// in\n    tag_334:\n    tag_333:\n        /* \"contracts/Test.sol\":1228:1233  users */\n      0x03\n        /* \"contracts/Test.sol\":1228:1245  users[msg.sender] */\n      0x00\n        /* \"contracts/Test.sol\":1234:1244  msg.sender */\n      caller\n        /* \"contracts/Test.sol\":1228:1245  users[msg.sender] */\n      0xffffffffffffffffffffffffffffffffffffffff\n      and\n      0xffffffffffffffffffffffffffffffffffffffff\n      and\n      dup2\n      mstore\n      0x20\n      add\n      swap1\n      dup2\n      mstore\n      0x20\n      add\n      0x00\n      keccak256\n        /* \"contracts/Test.sol\":1228:1250  users[msg.sender].role */\n      0x00\n      add\n      0x00\n      swap1\n      sload\n      swap1\n      0x0100\n      exp\n      swap1\n      div\n      0xff\n      and\n        /* \"contracts/Test.sol\":1228:1259  users[msg.sender].role == _role */\n      0x02\n      dup2\n      gt\n      iszero\n      tag_335\n      jumpi\n      tag_336\n      tag_156\n      jump\t// in\n    tag_336:\n    tag_335:\n      eq\n        /* \"contracts/Test.sol\":1220:1300  require(users[msg.sender].role == _role, \"Your role does not allow this change\") */\n      tag_337\n      jumpi\n      mload(0x40)\n      0x08c379a000000000000000000000000000000000000000000000000000000000\n      dup2\n      mstore\n      0x04\n      add\n      tag_338\n      swap1\n      tag_161\n      jump\t// in\n    tag_338:\n      mload(0x40)\n      dup1\n      swap2\n      sub\n      swap1\n      revert\n    tag_337:\n        /* \"contracts/Test.sol\":1332:1337  _shop */\n      dup1\n        /* \"contracts/Test.sol\":1318:1337  msg.sender == _shop */\n      0xffffffffffffffffffffffffffffffffffffffff\n      and\n        /* \"contracts/Test.sol\":1318:1328  msg.sender */\n      caller\n        /* \"contracts/Test.sol\":1318:1337  msg.sender == _shop */\n      0xffffffffffffffffffffffffffffffffffffffff\n      and\n      eq\n        /* \"contracts/Test.sol\":1310:1376  require(msg.sender == _shop, \"The shop does not match the sender\") */\n      tag_339\n      jumpi\n      mload(0x40)\n      0x08c379a000000000000000000000000000000000000000000000000000000000\n      dup2\n      mstore\n      0x04\n      add\n      tag_340\n      swap1\n      tag_164\n      jump\t// in\n    tag_340:\n      mload(0x40)\n      dup1\n      swap2\n      sub\n      swap1\n      revert\n    tag_339:\n        /* \"contracts/Test.sol\":4276:4295  Product memory item */\n      0x00\n        /* \"contracts/Test.sol\":4298:4358  Product(_addressSupp, _inStock, _price / 2, _name, _expDate) */\n      mload(0x40)\n      dup1\n      0xa0\n      add\n      0x40\n      mstore\n      dup1\n        /* \"contracts/Test.sol\":4306:4318  _addressSupp */\n      dup6\n        /* \"contracts/Test.sol\":4298:4358  Product(_addressSupp, _inStock, _price / 2, _name, _expDate) */\n      0xffffffffffffffffffffffffffffffffffffffff\n      and\n      dup2\n      mstore\n      0x20\n      add\n        /* \"contracts/Test.sol\":4320:4328  _inStock */\n      dup11\n        /* \"contracts/Test.sol\":4298:4358  Product(_addressSupp, _inStock, _price / 2, _name, _expDate) */\n      dup2\n      mstore\n      0x20\n      add\n        /* \"contracts/Test.sol\":4339:4340  2 */\n      0x02\n        /* \"contracts/Test.sol\":4330:4336  _price */\n      dup11\n        /* \"contracts/Test.sol\":4330:4340  _price / 2 */\n      tag_342\n      swap2\n      swap1\n      tag_343\n      jump\t// in\n    tag_342:\n        /* \"contracts/Test.sol\":4298:4358  Product(_addressSupp, _inStock, _price / 2, _name, _expDate) */\n      dup2\n      mstore\n      0x20\n      add\n        /* \"contracts/Test.sol\":4342:4347  _name */\n      dup9\n      dup9\n        /* \"contracts/Test.sol\":4298:4358  Product(_addressSupp, _inStock, _price / 2, _name, _expDate) */\n      dup1\n      dup1\n      0x1f\n      add\n      0x20\n      dup1\n      swap2\n      div\n      mul\n      0x20\n      add\n      mload(0x40)\n      swap1\n      dup2\n      add\n      0x40\n      mstore\n      dup1\n      swap4\n      swap3\n      swap2\n      swap1\n      dup2\n      dup2\n      mstore\n      0x20\n      add\n      dup4\n      dup4\n      dup1\n      dup3\n      dup5\n      calldatacopy\n      0x00\n      dup2\n      dup5\n      add\n      mstore\n      not(0x1f)\n      0x1f\n      dup3\n      add\n      and\n      swap1\n      pop\n      dup1\n      dup4\n      add\n      swap3\n      pop\n      pop\n      pop\n      pop\n      pop\n      pop\n      pop\n      dup2\n      mstore\n      0x20\n      add\n        /* \"contracts/Test.sol\":4349:4357  _expDate */\n      dup7\n        /* \"contracts/Test.sol\":4298:4358  Product(_addressSupp, _inStock, _price / 2, _name, _expDate) */\n      dup2\n      mstore\n      pop\n        /* \"contracts/Test.sol\":4276:4358  Product memory item = Product(_addressSupp, _inStock, _price / 2, _name, _expDate) */\n      swap1\n      pop\n        /* \"contracts/Test.sol\":4368:4384  supplierProducts */\n      0x06\n        /* \"contracts/Test.sol\":4368:4398  supplierProducts[_addressSupp] */\n      0x00\n        /* \"contracts/Test.sol\":4385:4397  _addressSupp */\n      dup6\n        /* \"contracts/Test.sol\":4368:4398  supplierProducts[_addressSupp] */\n      0xffffffffffffffffffffffffffffffffffffffff\n      and\n      0xffffffffffffffffffffffffffffffffffffffff\n      and\n      dup2\n      mstore\n      0x20\n      add\n      swap1\n      dup2\n      mstore\n      0x20\n      add\n      0x00\n      keccak256\n        /* \"contracts/Test.sol\":4404:4408  item */\n      dup2\n        /* \"contracts/Test.sol\":4368:4409  supplierProducts[_addressSupp].push(item) */\n      swap1\n      dup1\n      0x01\n      dup2\n      sload\n      add\n      dup1\n      dup3\n      sstore\n      dup1\n      swap2\n      pop\n      pop\n      0x01\n      swap1\n      sub\n      swap1\n      0x00\n      mstore\n      keccak256(0x00, 0x20)\n      swap1\n      0x05\n      mul\n      add\n      0x00\n      swap1\n      swap2\n      swap1\n      swap2\n      swap1\n      swap2\n      pop\n      0x00\n      dup3\n      add\n      mload\n      dup2\n      0x00\n      add\n      exp(0x0100, 0x00)\n      dup2\n      sload\n      dup2\n      0xffffffffffffffffffffffffffffffffffffffff\n      mul\n      not\n      and\n      swap1\n      dup4\n      0xffffffffffffffffffffffffffffffffffffffff\n      and\n      mul\n      or\n      swap1\n      sstore\n      pop\n      0x20\n      dup3\n      add\n      mload\n      dup2\n      0x01\n      add\n      sstore\n      0x40\n      dup3\n      add\n      mload\n      dup2\n      0x02\n      add\n      sstore\n      0x60\n      dup3\n      add\n      mload\n      dup2\n      0x03\n      add\n      swap1\n      dup2\n      tag_345\n      swap2\n      swap1\n      tag_168\n      jump\t// in\n    tag_345:\n      pop\n      0x80\n      dup3\n      add\n      mload\n      dup2\n      0x04\n      add\n      sstore\n      pop\n      pop\n        /* \"contracts/Test.sol\":4266:4416  {... */\n      pop\n        /* \"contracts/Test.sol\":4102:4416  function addItemsSupplier(uint _inStock, uint _price, string calldata _name, uint _expDate, address _addressSupp) public AccessControl(Role.Supplier, _addressSupp) {... */\n      pop\n      pop\n      pop\n      pop\n      pop\n      pop\n      pop\n      pop\n      jump\t// out\n        /* \"contracts/Test.sol\":222:242  address public owner */\n    tag_115:\n      0x01\n      0x00\n      swap1\n      sload\n      swap1\n      0x0100\n      exp\n      swap1\n      div\n      0xffffffffffffffffffffffffffffffffffffffff\n      and\n      dup2\n      jump\t// out\n        /* \"contracts/Test.sol\":6592:8189  function purchase(address _shop, uint _amount, uint _id, string memory _ref ) public payable {... */\n    tag_121:\n        /* \"contracts/Test.sol\":6725:6734  Role.User */\n      0x00\n        /* \"contracts/Test.sol\":6699:6734  users[msg.sender].role == Role.User */\n      0x02\n      dup2\n      gt\n      iszero\n      tag_347\n      jumpi\n      tag_348\n      tag_156\n      jump\t// in\n    tag_348:\n    tag_347:\n        /* \"contracts/Test.sol\":6699:6704  users */\n      0x03\n        /* \"contracts/Test.sol\":6699:6716  users[msg.sender] */\n      0x00\n        /* \"contracts/Test.sol\":6705:6715  msg.sender */\n      caller\n        /* \"contracts/Test.sol\":6699:6716  users[msg.sender] */\n      0xffffffffffffffffffffffffffffffffffffffff\n      and\n      0xffffffffffffffffffffffffffffffffffffffff\n      and\n      dup2\n      mstore\n      0x20\n      add\n      swap1\n      dup2\n      mstore\n      0x20\n      add\n      0x00\n      keccak256\n        /* \"contracts/Test.sol\":6699:6721  users[msg.sender].role */\n      0x00\n      add\n      0x00\n      swap1\n      sload\n      swap1\n      0x0100\n      exp\n      swap1\n      div\n      0xff\n      and\n        /* \"contracts/Test.sol\":6699:6734  users[msg.sender].role == Role.User */\n      0x02\n      dup2\n      gt\n      iszero\n      tag_349\n      jumpi\n      tag_350\n      tag_156\n      jump\t// in\n    tag_350:\n    tag_349:\n      sub\n        /* \"contracts/Test.sol\":6695:6800  if (users[msg.sender].role == Role.User) {... */\n      tag_351\n      jumpi\n        /* \"contracts/Test.sol\":6770:6789  User( Role.User, 0) */\n      mload(0x40)\n      dup1\n      0x40\n      add\n      0x40\n      mstore\n      dup1\n        /* \"contracts/Test.sol\":6776:6785  Role.User */\n      0x00\n        /* \"contracts/Test.sol\":6770:6789  User( Role.User, 0) */\n      0x02\n      dup2\n      gt\n      iszero\n      tag_352\n      jumpi\n      tag_353\n      tag_156\n      jump\t// in\n    tag_353:\n    tag_352:\n      dup2\n      mstore\n      0x20\n      add\n        /* \"contracts/Test.sol\":6787:6788  0 */\n      0x00\n        /* \"contracts/Test.sol\":6770:6789  User( Role.User, 0) */\n      dup2\n      mstore\n      pop\n        /* \"contracts/Test.sol\":6750:6755  users */\n      0x03\n        /* \"contracts/Test.sol\":6750:6767  users[msg.sender] */\n      0x00\n        /* \"contracts/Test.sol\":6756:6766  msg.sender */\n      caller\n        /* \"contracts/Test.sol\":6750:6767  users[msg.sender] */\n      0xffffffffffffffffffffffffffffffffffffffff\n      and\n      0xffffffffffffffffffffffffffffffffffffffff\n      and\n      dup2\n      mstore\n      0x20\n      add\n      swap1\n      dup2\n      mstore\n      0x20\n      add\n      0x00\n      keccak256\n        /* \"contracts/Test.sol\":6750:6789  users[msg.sender] = User( Role.User, 0) */\n      0x00\n      dup3\n      add\n      mload\n      dup2\n      0x00\n      add\n      exp(0x0100, 0x00)\n      dup2\n      sload\n      dup2\n      0xff\n      mul\n      not\n      and\n      swap1\n      dup4\n      0x02\n      dup2\n      gt\n      iszero\n      tag_354\n      jumpi\n      tag_355\n      tag_156\n      jump\t// in\n    tag_355:\n    tag_354:\n      mul\n      or\n      swap1\n      sstore\n      pop\n      0x20\n      dup3\n      add\n      mload\n      dup2\n      0x01\n      add\n      sstore\n      swap1\n      pop\n      pop\n        /* \"contracts/Test.sol\":6695:6800  if (users[msg.sender].role == Role.User) {... */\n    tag_351:\n        /* \"contracts/Test.sol\":6836:6837  0 */\n      0x00\n        /* \"contracts/Test.sol\":6826:6833  _amount */\n      dup4\n        /* \"contracts/Test.sol\":6826:6837  _amount > 0 */\n      gt\n        /* \"contracts/Test.sol\":6818:6880  require(_amount > 0, \"Purchase amount must be greater than 0\") */\n      tag_356\n      jumpi\n      mload(0x40)\n      0x08c379a000000000000000000000000000000000000000000000000000000000\n      dup2\n      mstore\n      0x04\n      add\n      tag_357\n      swap1\n      tag_283\n      jump\t// in\n    tag_357:\n      mload(0x40)\n      dup1\n      swap2\n      sub\n      swap1\n      revert\n    tag_356:\n        /* \"contracts/Test.sol\":6904:6918  marketProducts */\n      0x05\n        /* \"contracts/Test.sol\":6904:6925  marketProducts[_shop] */\n      0x00\n        /* \"contracts/Test.sol\":6919:6924  _shop */\n      dup6\n        /* \"contracts/Test.sol\":6904:6925  marketProducts[_shop] */\n      0xffffffffffffffffffffffffffffffffffffffff\n      and\n      0xffffffffffffffffffffffffffffffffffffffff\n      and\n      dup2\n      mstore\n      0x20\n      add\n      swap1\n      dup2\n      mstore\n      0x20\n      add\n      0x00\n      keccak256\n        /* \"contracts/Test.sol\":6904:6932  marketProducts[_shop].length */\n      dup1\n      sload\n      swap1\n      pop\n        /* \"contracts/Test.sol\":6898:6901  _id */\n      dup3\n        /* \"contracts/Test.sol\":6898:6932  _id < marketProducts[_shop].length */\n      lt\n        /* \"contracts/Test.sol\":6890:6955  require(_id < marketProducts[_shop].length, \"Invalid product ID\") */\n      tag_358\n      jumpi\n      mload(0x40)\n      0x08c379a000000000000000000000000000000000000000000000000000000000\n      dup2\n      mstore\n      0x04\n      add\n      tag_359\n      swap1\n      tag_286\n      jump\t// in\n    tag_359:\n      mload(0x40)\n      dup1\n      swap2\n      sub\n      swap1\n      revert\n    tag_358:\n        /* \"contracts/Test.sol\":6984:6998  marketProducts */\n      0x05\n        /* \"contracts/Test.sol\":6984:7005  marketProducts[_shop] */\n      0x00\n        /* \"contracts/Test.sol\":6999:7004  _shop */\n      dup6\n        /* \"contracts/Test.sol\":6984:7005  marketProducts[_shop] */\n      0xffffffffffffffffffffffffffffffffffffffff\n      and\n      0xffffffffffffffffffffffffffffffffffffffff\n      and\n      dup2\n      mstore\n      0x20\n      add\n      swap1\n      dup2\n      mstore\n      0x20\n      add\n      0x00\n      keccak256\n        /* \"contracts/Test.sol\":7006:7009  _id */\n      dup3\n        /* \"contracts/Test.sol\":6984:7010  marketProducts[_shop][_id] */\n      dup2\n      sload\n      dup2\n      lt\n      tag_360\n      jumpi\n      tag_361\n      tag_199\n      jump\t// in\n    tag_361:\n    tag_360:\n      swap1\n      0x00\n      mstore\n      keccak256(0x00, 0x20)\n      swap1\n      0x05\n      mul\n      add\n        /* \"contracts/Test.sol\":6984:7018  marketProducts[_shop][_id].inStock */\n      0x01\n      add\n      sload\n        /* \"contracts/Test.sol\":6973:6980  _amount */\n      dup4\n        /* \"contracts/Test.sol\":6973:7018  _amount <= marketProducts[_shop][_id].inStock */\n      gt\n      iszero\n        /* \"contracts/Test.sol\":6965:7049  require(_amount <= marketProducts[_shop][_id].inStock, \"Not enough stock available\") */\n      tag_363\n      jumpi\n      mload(0x40)\n      0x08c379a000000000000000000000000000000000000000000000000000000000\n      dup2\n      mstore\n      0x04\n      add\n      tag_364\n      swap1\n      tag_365\n      jump\t// in\n    tag_364:\n      mload(0x40)\n      dup1\n      swap2\n      sub\n      swap1\n      revert\n    tag_363:\n        /* \"contracts/Test.sol\":7060:7075  uint totalPrice */\n      0x00\n        /* \"contracts/Test.sol\":7123:7130  1 ether */\n      0x0de0b6b3a7640000\n        /* \"contracts/Test.sol\":7088:7102  marketProducts */\n      0x05\n        /* \"contracts/Test.sol\":7088:7109  marketProducts[_shop] */\n      0x00\n        /* \"contracts/Test.sol\":7103:7108  _shop */\n      dup8\n        /* \"contracts/Test.sol\":7088:7109  marketProducts[_shop] */\n      0xffffffffffffffffffffffffffffffffffffffff\n      and\n      0xffffffffffffffffffffffffffffffffffffffff\n      and\n      dup2\n      mstore\n      0x20\n      add\n      swap1\n      dup2\n      mstore\n      0x20\n      add\n      0x00\n      keccak256\n        /* \"contracts/Test.sol\":7110:7113  _id */\n      dup5\n        /* \"contracts/Test.sol\":7088:7114  marketProducts[_shop][_id] */\n      dup2\n      sload\n      dup2\n      lt\n      tag_366\n      jumpi\n      tag_367\n      tag_199\n      jump\t// in\n    tag_367:\n    tag_366:\n      swap1\n      0x00\n      mstore\n      keccak256(0x00, 0x20)\n      swap1\n      0x05\n      mul\n      add\n        /* \"contracts/Test.sol\":7088:7120  marketProducts[_shop][_id].price */\n      0x02\n      add\n      sload\n        /* \"contracts/Test.sol\":7078:7085  _amount */\n      dup6\n        /* \"contracts/Test.sol\":7078:7120  _amount * marketProducts[_shop][_id].price */\n      tag_369\n      swap2\n      swap1\n      tag_212\n      jump\t// in\n    tag_369:\n        /* \"contracts/Test.sol\":7078:7130  _amount * marketProducts[_shop][_id].price * 1 ether */\n      tag_370\n      swap2\n      swap1\n      tag_212\n      jump\t// in\n    tag_370:\n        /* \"contracts/Test.sol\":7060:7130  uint totalPrice = _amount * marketProducts[_shop][_id].price * 1 ether */\n      swap1\n      pop\n        /* \"contracts/Test.sol\":7164:7174  msg.sender */\n      caller\n        /* \"contracts/Test.sol\":7145:7174  referrals[_ref] == msg.sender */\n      0xffffffffffffffffffffffffffffffffffffffff\n      and\n        /* \"contracts/Test.sol\":7145:7154  referrals */\n      0x07\n        /* \"contracts/Test.sol\":7155:7159  _ref */\n      dup4\n        /* \"contracts/Test.sol\":7145:7160  referrals[_ref] */\n      mload(0x40)\n      tag_371\n      swap2\n      swap1\n      tag_372\n      jump\t// in\n    tag_371:\n      swap1\n      dup2\n      mstore\n      0x20\n      add\n      mload(0x40)\n      dup1\n      swap2\n      sub\n      swap1\n      keccak256\n      0x00\n      swap1\n      sload\n      swap1\n      0x0100\n      exp\n      swap1\n      div\n      0xffffffffffffffffffffffffffffffffffffffff\n      and\n        /* \"contracts/Test.sol\":7145:7174  referrals[_ref] == msg.sender */\n      0xffffffffffffffffffffffffffffffffffffffff\n      and\n      sub\n        /* \"contracts/Test.sol\":7141:7279  if (referrals[_ref] == msg.sender) {... */\n      tag_373\n      jumpi\n        /* \"contracts/Test.sol\":7222:7225  100 */\n      0x64\n        /* \"contracts/Test.sol\":7217:7219  90 */\n      0x5a\n        /* \"contracts/Test.sol\":7204:7214  totalPrice */\n      dup3\n        /* \"contracts/Test.sol\":7204:7219  totalPrice * 90 */\n      tag_374\n      swap2\n      swap1\n      tag_212\n      jump\t// in\n    tag_374:\n        /* \"contracts/Test.sol\":7204:7225  totalPrice * 90 / 100 */\n      tag_375\n      swap2\n      swap1\n      tag_343\n      jump\t// in\n    tag_375:\n        /* \"contracts/Test.sol\":7190:7226  totalPrice = (totalPrice * 90 / 100) */\n      swap1\n      pop\n        /* \"contracts/Test.sol\":7266:7267  0 */\n      0x00\n        /* \"contracts/Test.sol\":7240:7249  referrals */\n      0x07\n        /* \"contracts/Test.sol\":7250:7254  _ref */\n      dup4\n        /* \"contracts/Test.sol\":7240:7255  referrals[_ref] */\n      mload(0x40)\n      tag_376\n      swap2\n      swap1\n      tag_372\n      jump\t// in\n    tag_376:\n      swap1\n      dup2\n      mstore\n      0x20\n      add\n      mload(0x40)\n      dup1\n      swap2\n      sub\n      swap1\n      keccak256\n      0x00\n        /* \"contracts/Test.sol\":7240:7268  referrals[_ref] = address(0) */\n      0x0100\n      exp\n      dup2\n      sload\n      dup2\n      0xffffffffffffffffffffffffffffffffffffffff\n      mul\n      not\n      and\n      swap1\n      dup4\n      0xffffffffffffffffffffffffffffffffffffffff\n      and\n      mul\n      or\n      swap1\n      sstore\n      pop\n        /* \"contracts/Test.sol\":7141:7279  if (referrals[_ref] == msg.sender) {... */\n    tag_373:\n        /* \"contracts/Test.sol\":7310:7320  totalPrice */\n      dup1\n        /* \"contracts/Test.sol\":7297:7306  msg.value */\n      callvalue\n        /* \"contracts/Test.sol\":7297:7320  msg.value >= totalPrice */\n      lt\n      iszero\n        /* \"contracts/Test.sol\":7289:7348  require(msg.value >= totalPrice, \"Insufficient funds sent\") */\n      tag_377\n      jumpi\n      mload(0x40)\n      0x08c379a000000000000000000000000000000000000000000000000000000000\n      dup2\n      mstore\n      0x04\n      add\n      tag_378\n      swap1\n      tag_379\n      jump\t// in\n    tag_378:\n      mload(0x40)\n      dup1\n      swap2\n      sub\n      swap1\n      revert\n    tag_377:\n        /* \"contracts/Test.sol\":7358:7376  bool productExists */\n      0x00\n        /* \"contracts/Test.sol\":7400:7406  uint i */\n      dup1\n        /* \"contracts/Test.sol\":7395:7726  for (uint i = 0; i < userProducts[msg.sender].length; i++) {... */\n    tag_380:\n        /* \"contracts/Test.sol\":7416:7428  userProducts */\n      0x04\n        /* \"contracts/Test.sol\":7416:7440  userProducts[msg.sender] */\n      0x00\n        /* \"contracts/Test.sol\":7429:7439  msg.sender */\n      caller\n        /* \"contracts/Test.sol\":7416:7440  userProducts[msg.sender] */\n      0xffffffffffffffffffffffffffffffffffffffff\n      and\n      0xffffffffffffffffffffffffffffffffffffffff\n      and\n      dup2\n      mstore\n      0x20\n      add\n      swap1\n      dup2\n      mstore\n      0x20\n      add\n      0x00\n      keccak256\n        /* \"contracts/Test.sol\":7416:7447  userProducts[msg.sender].length */\n      dup1\n      sload\n      swap1\n      pop\n        /* \"contracts/Test.sol\":7412:7413  i */\n      dup2\n        /* \"contracts/Test.sol\":7412:7447  i < userProducts[msg.sender].length */\n      lt\n        /* \"contracts/Test.sol\":7395:7726  for (uint i = 0; i < userProducts[msg.sender].length; i++) {... */\n      iszero\n      tag_381\n      jumpi\n        /* \"contracts/Test.sol\":7542:7554  userProducts */\n      0x04\n        /* \"contracts/Test.sol\":7542:7561  userProducts[_shop] */\n      0x00\n        /* \"contracts/Test.sol\":7555:7560  _shop */\n      dup9\n        /* \"contracts/Test.sol\":7542:7561  userProducts[_shop] */\n      0xffffffffffffffffffffffffffffffffffffffff\n      and\n      0xffffffffffffffffffffffffffffffffffffffff\n      and\n      dup2\n      mstore\n      0x20\n      add\n      swap1\n      dup2\n      mstore\n      0x20\n      add\n      0x00\n      keccak256\n        /* \"contracts/Test.sol\":7562:7565  _id */\n      dup6\n        /* \"contracts/Test.sol\":7542:7566  userProducts[_shop][_id] */\n      dup2\n      sload\n      dup2\n      lt\n      tag_383\n      jumpi\n      tag_384\n      tag_199\n      jump\t// in\n    tag_384:\n    tag_383:\n      swap1\n      0x00\n      mstore\n      keccak256(0x00, 0x20)\n      swap1\n      0x05\n      mul\n      add\n        /* \"contracts/Test.sol\":7542:7571  userProducts[_shop][_id].name */\n      0x03\n      add\n        /* \"contracts/Test.sol\":7526:7573  keccak256(bytes(userProducts[_shop][_id].name)) */\n      mload(0x40)\n      tag_386\n      swap2\n      swap1\n      tag_387\n      jump\t// in\n    tag_386:\n      mload(0x40)\n      dup1\n      swap2\n      sub\n      swap1\n      keccak256\n        /* \"contracts/Test.sol\":7488:7500  userProducts */\n      0x04\n        /* \"contracts/Test.sol\":7488:7512  userProducts[msg.sender] */\n      0x00\n        /* \"contracts/Test.sol\":7501:7511  msg.sender */\n      caller\n        /* \"contracts/Test.sol\":7488:7512  userProducts[msg.sender] */\n      0xffffffffffffffffffffffffffffffffffffffff\n      and\n      0xffffffffffffffffffffffffffffffffffffffff\n      and\n      dup2\n      mstore\n      0x20\n      add\n      swap1\n      dup2\n      mstore\n      0x20\n      add\n      0x00\n      keccak256\n        /* \"contracts/Test.sol\":7513:7514  i */\n      dup3\n        /* \"contracts/Test.sol\":7488:7515  userProducts[msg.sender][i] */\n      dup2\n      sload\n      dup2\n      lt\n      tag_388\n      jumpi\n      tag_389\n      tag_199\n      jump\t// in\n    tag_389:\n    tag_388:\n      swap1\n      0x00\n      mstore\n      keccak256(0x00, 0x20)\n      swap1\n      0x05\n      mul\n      add\n        /* \"contracts/Test.sol\":7488:7520  userProducts[msg.sender][i].name */\n      0x03\n      add\n        /* \"contracts/Test.sol\":7472:7522  keccak256(bytes(userProducts[msg.sender][i].name)) */\n      mload(0x40)\n      tag_391\n      swap2\n      swap1\n      tag_387\n      jump\t// in\n    tag_391:\n      mload(0x40)\n      dup1\n      swap2\n      sub\n      swap1\n      keccak256\n        /* \"contracts/Test.sol\":7472:7573  keccak256(bytes(userProducts[msg.sender][i].name)) == keccak256(bytes(userProducts[_shop][_id].name)) */\n      sub\n        /* \"contracts/Test.sol\":7468:7716  if (keccak256(bytes(userProducts[msg.sender][i].name)) == keccak256(bytes(userProducts[_shop][_id].name))) {... */\n      tag_392\n      jumpi\n        /* \"contracts/Test.sol\":7632:7639  _amount */\n      dup6\n        /* \"contracts/Test.sol\":7593:7605  userProducts */\n      0x04\n        /* \"contracts/Test.sol\":7593:7617  userProducts[msg.sender] */\n      0x00\n        /* \"contracts/Test.sol\":7606:7616  msg.sender */\n      caller\n        /* \"contracts/Test.sol\":7593:7617  userProducts[msg.sender] */\n      0xffffffffffffffffffffffffffffffffffffffff\n      and\n      0xffffffffffffffffffffffffffffffffffffffff\n      and\n      dup2\n      mstore\n      0x20\n      add\n      swap1\n      dup2\n      mstore\n      0x20\n      add\n      0x00\n      keccak256\n        /* \"contracts/Test.sol\":7618:7619  i */\n      dup3\n        /* \"contracts/Test.sol\":7593:7620  userProducts[msg.sender][i] */\n      dup2\n      sload\n      dup2\n      lt\n      tag_393\n      jumpi\n      tag_394\n      tag_199\n      jump\t// in\n    tag_394:\n    tag_393:\n      swap1\n      0x00\n      mstore\n      keccak256(0x00, 0x20)\n      swap1\n      0x05\n      mul\n      add\n        /* \"contracts/Test.sol\":7593:7628  userProducts[msg.sender][i].inStock */\n      0x01\n      add\n      0x00\n        /* \"contracts/Test.sol\":7593:7639  userProducts[msg.sender][i].inStock += _amount */\n      dup3\n      dup3\n      sload\n      tag_396\n      swap2\n      swap1\n      tag_221\n      jump\t// in\n    tag_396:\n      swap3\n      pop\n      pop\n      dup2\n      swap1\n      sstore\n      pop\n        /* \"contracts/Test.sol\":7673:7677  true */\n      0x01\n        /* \"contracts/Test.sol\":7657:7677  productExists = true */\n      swap2\n      pop\n        /* \"contracts/Test.sol\":7695:7700  break */\n      jump(tag_381)\n        /* \"contracts/Test.sol\":7468:7716  if (keccak256(bytes(userProducts[msg.sender][i].name)) == keccak256(bytes(userProducts[_shop][_id].name))) {... */\n    tag_392:\n        /* \"contracts/Test.sol\":7449:7452  i++ */\n      dup1\n      dup1\n      tag_397\n      swap1\n      tag_263\n      jump\t// in\n    tag_397:\n      swap2\n      pop\n      pop\n        /* \"contracts/Test.sol\":7395:7726  for (uint i = 0; i < userProducts[msg.sender].length; i++) {... */\n      jump(tag_380)\n    tag_381:\n      pop\n        /* \"contracts/Test.sol\":7741:7754  productExists */\n      dup1\n        /* \"contracts/Test.sol\":7736:7968  if (!productExists) {... */\n      tag_398\n      jumpi\n        /* \"contracts/Test.sol\":7770:7792  Product memory newItem */\n      0x00\n        /* \"contracts/Test.sol\":7795:7905  Product(msg.sender, _amount, marketProducts[_shop][_id].price, marketProducts[_shop][_id].name, randMod(1000)) */\n      mload(0x40)\n      dup1\n      0xa0\n      add\n      0x40\n      mstore\n      dup1\n        /* \"contracts/Test.sol\":7803:7813  msg.sender */\n      caller\n        /* \"contracts/Test.sol\":7795:7905  Product(msg.sender, _amount, marketProducts[_shop][_id].price, marketProducts[_shop][_id].name, randMod(1000)) */\n      0xffffffffffffffffffffffffffffffffffffffff\n      and\n      dup2\n      mstore\n      0x20\n      add\n        /* \"contracts/Test.sol\":7815:7822  _amount */\n      dup8\n        /* \"contracts/Test.sol\":7795:7905  Product(msg.sender, _amount, marketProducts[_shop][_id].price, marketProducts[_shop][_id].name, randMod(1000)) */\n      dup2\n      mstore\n      0x20\n      add\n        /* \"contracts/Test.sol\":7824:7838  marketProducts */\n      0x05\n        /* \"contracts/Test.sol\":7824:7845  marketProducts[_shop] */\n      0x00\n        /* \"contracts/Test.sol\":7839:7844  _shop */\n      dup11\n        /* \"contracts/Test.sol\":7824:7845  marketProducts[_shop] */\n      0xffffffffffffffffffffffffffffffffffffffff\n      and\n      0xffffffffffffffffffffffffffffffffffffffff\n      and\n      dup2\n      mstore\n      0x20\n      add\n      swap1\n      dup2\n      mstore\n      0x20\n      add\n      0x00\n      keccak256\n        /* \"contracts/Test.sol\":7846:7849  _id */\n      dup8\n        /* \"contracts/Test.sol\":7824:7850  marketProducts[_shop][_id] */\n      dup2\n      sload\n      dup2\n      lt\n      tag_399\n      jumpi\n      tag_400\n      tag_199\n      jump\t// in\n    tag_400:\n    tag_399:\n      swap1\n      0x00\n      mstore\n      keccak256(0x00, 0x20)\n      swap1\n      0x05\n      mul\n      add\n        /* \"contracts/Test.sol\":7824:7856  marketProducts[_shop][_id].price */\n      0x02\n      add\n      sload\n        /* \"contracts/Test.sol\":7795:7905  Product(msg.sender, _amount, marketProducts[_shop][_id].price, marketProducts[_shop][_id].name, randMod(1000)) */\n      dup2\n      mstore\n      0x20\n      add\n        /* \"contracts/Test.sol\":7858:7872  marketProducts */\n      0x05\n        /* \"contracts/Test.sol\":7858:7879  marketProducts[_shop] */\n      0x00\n        /* \"contracts/Test.sol\":7873:7878  _shop */\n      dup11\n        /* \"contracts/Test.sol\":7858:7879  marketProducts[_shop] */\n      0xffffffffffffffffffffffffffffffffffffffff\n      and\n      0xffffffffffffffffffffffffffffffffffffffff\n      and\n      dup2\n      mstore\n      0x20\n      add\n      swap1\n      dup2\n      mstore\n      0x20\n      add\n      0x00\n      keccak256\n        /* \"contracts/Test.sol\":7880:7883  _id */\n      dup8\n        /* \"contracts/Test.sol\":7858:7884  marketProducts[_shop][_id] */\n      dup2\n      sload\n      dup2\n      lt\n      tag_402\n      jumpi\n      tag_403\n      tag_199\n      jump\t// in\n    tag_403:\n    tag_402:\n      swap1\n      0x00\n      mstore\n      keccak256(0x00, 0x20)\n      swap1\n      0x05\n      mul\n      add\n        /* \"contracts/Test.sol\":7858:7889  marketProducts[_shop][_id].name */\n      0x03\n      add\n        /* \"contracts/Test.sol\":7795:7905  Product(msg.sender, _amount, marketProducts[_shop][_id].price, marketProducts[_shop][_id].name, randMod(1000)) */\n      dup1\n      sload\n      tag_405\n      swap1\n      tag_172\n      jump\t// in\n    tag_405:\n      dup1\n      0x1f\n      add\n      0x20\n      dup1\n      swap2\n      div\n      mul\n      0x20\n      add\n      mload(0x40)\n      swap1\n      dup2\n      add\n      0x40\n      mstore\n      dup1\n      swap3\n      swap2\n      swap1\n      dup2\n      dup2\n      mstore\n      0x20\n      add\n      dup3\n      dup1\n      sload\n      tag_406\n      swap1\n      tag_172\n      jump\t// in\n    tag_406:\n      dup1\n      iszero\n      tag_407\n      jumpi\n      dup1\n      0x1f\n      lt\n      tag_408\n      jumpi\n      0x0100\n      dup1\n      dup4\n      sload\n      div\n      mul\n      dup4\n      mstore\n      swap2\n      0x20\n      add\n      swap2\n      jump(tag_407)\n    tag_408:\n      dup3\n      add\n      swap2\n      swap1\n      0x00\n      mstore\n      keccak256(0x00, 0x20)\n      swap1\n    tag_409:\n      dup2\n      sload\n      dup2\n      mstore\n      swap1\n      0x01\n      add\n      swap1\n      0x20\n      add\n      dup1\n      dup4\n      gt\n      tag_409\n      jumpi\n      dup3\n      swap1\n      sub\n      0x1f\n      and\n      dup3\n      add\n      swap2\n    tag_407:\n      pop\n      pop\n      pop\n      pop\n      pop\n      dup2\n      mstore\n      0x20\n      add\n        /* \"contracts/Test.sol\":7891:7904  randMod(1000) */\n      tag_410\n        /* \"contracts/Test.sol\":7899:7903  1000 */\n      0x03e8\n        /* \"contracts/Test.sol\":7891:7898  randMod */\n      tag_105\n        /* \"contracts/Test.sol\":7891:7904  randMod(1000) */\n      jump\t// in\n    tag_410:\n        /* \"contracts/Test.sol\":7795:7905  Product(msg.sender, _amount, marketProducts[_shop][_id].price, marketProducts[_shop][_id].name, randMod(1000)) */\n      dup2\n      mstore\n      pop\n        /* \"contracts/Test.sol\":7770:7905  Product memory newItem = Product(msg.sender, _amount, marketProducts[_shop][_id].price, marketProducts[_shop][_id].name, randMod(1000)) */\n      swap1\n      pop\n        /* \"contracts/Test.sol\":7919:7931  userProducts */\n      0x04\n        /* \"contracts/Test.sol\":7919:7943  userProducts[msg.sender] */\n      0x00\n        /* \"contracts/Test.sol\":7932:7942  msg.sender */\n      caller\n        /* \"contracts/Test.sol\":7919:7943  userProducts[msg.sender] */\n      0xffffffffffffffffffffffffffffffffffffffff\n      and\n      0xffffffffffffffffffffffffffffffffffffffff\n      and\n      dup2\n      mstore\n      0x20\n      add\n      swap1\n      dup2\n      mstore\n      0x20\n      add\n      0x00\n      keccak256\n        /* \"contracts/Test.sol\":7949:7956  newItem */\n      dup2\n        /* \"contracts/Test.sol\":7919:7957  userProducts[msg.sender].push(newItem) */\n      swap1\n      dup1\n      0x01\n      dup2\n      sload\n      add\n      dup1\n      dup3\n      sstore\n      dup1\n      swap2\n      pop\n      pop\n      0x01\n      swap1\n      sub\n      swap1\n      0x00\n      mstore\n      keccak256(0x00, 0x20)\n      swap1\n      0x05\n      mul\n      add\n      0x00\n      swap1\n      swap2\n      swap1\n      swap2\n      swap1\n      swap2\n      pop\n      0x00\n      dup3\n      add\n      mload\n      dup2\n      0x00\n      add\n      exp(0x0100, 0x00)\n      dup2\n      sload\n      dup2\n      0xffffffffffffffffffffffffffffffffffffffff\n      mul\n      not\n      and\n      swap1\n      dup4\n      0xffffffffffffffffffffffffffffffffffffffff\n      and\n      mul\n      or\n      swap1\n      sstore\n      pop\n      0x20\n      dup3\n      add\n      mload\n      dup2\n      0x01\n      add\n      sstore\n      0x40\n      dup3\n      add\n      mload\n      dup2\n      0x02\n      add\n      sstore\n      0x60\n      dup3\n      add\n      mload\n      dup2\n      0x03\n      add\n      swap1\n      dup2\n      tag_412\n      swap2\n      swap1\n      tag_168\n      jump\t// in\n    tag_412:\n      pop\n      0x80\n      dup3\n      add\n      mload\n      dup2\n      0x04\n      add\n      sstore\n      pop\n      pop\n        /* \"contracts/Test.sol\":7756:7968  {... */\n      pop\n        /* \"contracts/Test.sol\":7736:7968  if (!productExists) {... */\n    tag_398:\n        /* \"contracts/Test.sol\":8016:8023  _amount */\n      dup5\n        /* \"contracts/Test.sol\":7978:7992  marketProducts */\n      0x05\n        /* \"contracts/Test.sol\":7978:7999  marketProducts[_shop] */\n      0x00\n        /* \"contracts/Test.sol\":7993:7998  _shop */\n      dup9\n        /* \"contracts/Test.sol\":7978:7999  marketProducts[_shop] */\n      0xffffffffffffffffffffffffffffffffffffffff\n      and\n      0xffffffffffffffffffffffffffffffffffffffff\n      and\n      dup2\n      mstore\n      0x20\n      add\n      swap1\n      dup2\n      mstore\n      0x20\n      add\n      0x00\n      keccak256\n        /* \"contracts/Test.sol\":8000:8003  _id */\n      dup6\n        /* \"contracts/Test.sol\":7978:8004  marketProducts[_shop][_id] */\n      dup2\n      sload\n      dup2\n      lt\n      tag_413\n      jumpi\n      tag_414\n      tag_199\n      jump\t// in\n    tag_414:\n    tag_413:\n      swap1\n      0x00\n      mstore\n      keccak256(0x00, 0x20)\n      swap1\n      0x05\n      mul\n      add\n        /* \"contracts/Test.sol\":7978:8012  marketProducts[_shop][_id].inStock */\n      0x01\n      add\n      0x00\n        /* \"contracts/Test.sol\":7978:8023  marketProducts[_shop][_id].inStock -= _amount */\n      dup3\n      dup3\n      sload\n      tag_416\n      swap2\n      swap1\n      tag_228\n      jump\t// in\n    tag_416:\n      swap3\n      pop\n      pop\n      dup2\n      swap1\n      sstore\n      pop\n        /* \"contracts/Test.sol\":8057:8067  totalPrice */\n      dup2\n        /* \"contracts/Test.sol\":8033:8038  users */\n      0x03\n        /* \"contracts/Test.sol\":8033:8045  users[_shop] */\n      0x00\n        /* \"contracts/Test.sol\":8039:8044  _shop */\n      dup9\n        /* \"contracts/Test.sol\":8033:8045  users[_shop] */\n      0xffffffffffffffffffffffffffffffffffffffff\n      and\n      0xffffffffffffffffffffffffffffffffffffffff\n      and\n      dup2\n      mstore\n      0x20\n      add\n      swap1\n      dup2\n      mstore\n      0x20\n      add\n      0x00\n      keccak256\n        /* \"contracts/Test.sol\":8033:8053  users[_shop].balance */\n      0x01\n      add\n      0x00\n        /* \"contracts/Test.sol\":8033:8067  users[_shop].balance += totalPrice */\n      dup3\n      dup3\n      sload\n      tag_417\n      swap2\n      swap1\n      tag_221\n      jump\t// in\n    tag_417:\n      swap3\n      pop\n      pop\n      dup2\n      swap1\n      sstore\n      pop\n        /* \"contracts/Test.sol\":8094:8104  totalPrice */\n      dup2\n        /* \"contracts/Test.sol\":8082:8091  msg.value */\n      callvalue\n        /* \"contracts/Test.sol\":8082:8104  msg.value > totalPrice */\n      gt\n        /* \"contracts/Test.sol\":8078:8183  if (msg.value > totalPrice) {... */\n      iszero\n      tag_418\n      jumpi\n        /* \"contracts/Test.sol\":8128:8138  msg.sender */\n      caller\n        /* \"contracts/Test.sol\":8120:8148  payable(msg.sender).transfer */\n      0xffffffffffffffffffffffffffffffffffffffff\n      and\n        /* \"contracts/Test.sol\":8120:8172  payable(msg.sender).transfer(msg.value - totalPrice) */\n      0x08fc\n        /* \"contracts/Test.sol\":8161:8171  totalPrice */\n      dup4\n        /* \"contracts/Test.sol\":8149:8158  msg.value */\n      callvalue\n        /* \"contracts/Test.sol\":8149:8171  msg.value - totalPrice */\n      tag_419\n      swap2\n      swap1\n      tag_228\n      jump\t// in\n    tag_419:\n        /* \"contracts/Test.sol\":8120:8172  payable(msg.sender).transfer(msg.value - totalPrice) */\n      swap1\n      dup2\n      iszero\n      mul\n      swap1\n      mload(0x40)\n      0x00\n      mload(0x40)\n      dup1\n      dup4\n      sub\n      dup2\n      dup6\n      dup9\n      dup9\n      call\n      swap4\n      pop\n      pop\n      pop\n      pop\n      iszero\n      dup1\n      iszero\n      tag_421\n      jumpi\n      returndatasize\n      0x00\n      dup1\n      returndatacopy\n      revert(0x00, returndatasize)\n    tag_421:\n      pop\n        /* \"contracts/Test.sol\":8078:8183  if (msg.value > totalPrice) {... */\n    tag_418:\n        /* \"contracts/Test.sol\":6685:8189  {... */\n      pop\n      pop\n        /* \"contracts/Test.sol\":6592:8189  function purchase(address _shop, uint _amount, uint _id, string memory _ref ) public payable {... */\n      pop\n      pop\n      pop\n      pop\n      jump\t// out\n        /* \"contracts/Test.sol\":2617:2761  function genRef(string memory _nameRef, address _user) public {... */\n    tag_126:\n        /* \"contracts/Test.sol\":2711:2716  _user */\n      dup1\n        /* \"contracts/Test.sol\":2697:2716  msg.sender != _user */\n      0xffffffffffffffffffffffffffffffffffffffff\n      and\n        /* \"contracts/Test.sol\":2697:2707  msg.sender */\n      caller\n        /* \"contracts/Test.sol\":2697:2716  msg.sender != _user */\n      0xffffffffffffffffffffffffffffffffffffffff\n      and\n      sub\n        /* \"contracts/Test.sol\":2689:2717  require(msg.sender != _user) */\n      tag_423\n      jumpi\n      0x00\n      dup1\n      revert\n    tag_423:\n        /* \"contracts/Test.sol\":2749:2754  _user */\n      dup1\n        /* \"contracts/Test.sol\":2727:2736  referrals */\n      0x07\n        /* \"contracts/Test.sol\":2737:2745  _nameRef */\n      dup4\n        /* \"contracts/Test.sol\":2727:2746  referrals[_nameRef] */\n      mload(0x40)\n      tag_424\n      swap2\n      swap1\n      tag_372\n      jump\t// in\n    tag_424:\n      swap1\n      dup2\n      mstore\n      0x20\n      add\n      mload(0x40)\n      dup1\n      swap2\n      sub\n      swap1\n      keccak256\n      0x00\n        /* \"contracts/Test.sol\":2727:2754  referrals[_nameRef] = _user */\n      0x0100\n      exp\n      dup2\n      sload\n      dup2\n      0xffffffffffffffffffffffffffffffffffffffff\n      mul\n      not\n      and\n      swap1\n      dup4\n      0xffffffffffffffffffffffffffffffffffffffff\n      and\n      mul\n      or\n      swap1\n      sstore\n      pop\n        /* \"contracts/Test.sol\":2617:2761  function genRef(string memory _nameRef, address _user) public {... */\n      pop\n      pop\n      jump\t// out\n        /* \"contracts/Test.sol\":806:843  mapping(address => User) public users */\n    tag_131:\n      mstore(0x20, 0x03)\n      dup1\n      0x00\n      mstore\n      keccak256(0x00, 0x40)\n      0x00\n      swap2\n      pop\n      swap1\n      pop\n      dup1\n      0x00\n      add\n      0x00\n      swap1\n      sload\n      swap1\n      0x0100\n      exp\n      swap1\n      div\n      0xff\n      and\n      swap1\n      dup1\n      0x01\n      add\n      sload\n      swap1\n      pop\n      dup3\n      jump\t// out\n        /* \"contracts/Test.sol\":1400:1482  function makeUser() public {... */\n    tag_136:\n        /* \"contracts/Test.sol\":1457:1475  User(Role.User, 0) */\n      mload(0x40)\n      dup1\n      0x40\n      add\n      0x40\n      mstore\n      dup1\n        /* \"contracts/Test.sol\":1462:1471  Role.User */\n      0x00\n        /* \"contracts/Test.sol\":1457:1475  User(Role.User, 0) */\n      0x02\n      dup2\n      gt\n      iszero\n      tag_426\n      jumpi\n      tag_427\n      tag_156\n      jump\t// in\n    tag_427:\n    tag_426:\n      dup2\n      mstore\n      0x20\n      add\n        /* \"contracts/Test.sol\":1473:1474  0 */\n      0x00\n        /* \"contracts/Test.sol\":1457:1475  User(Role.User, 0) */\n      dup2\n      mstore\n      pop\n        /* \"contracts/Test.sol\":1437:1442  users */\n      0x03\n        /* \"contracts/Test.sol\":1437:1454  users[msg.sender] */\n      0x00\n        /* \"contracts/Test.sol\":1443:1453  msg.sender */\n      caller\n        /* \"contracts/Test.sol\":1437:1454  users[msg.sender] */\n      0xffffffffffffffffffffffffffffffffffffffff\n      and\n      0xffffffffffffffffffffffffffffffffffffffff\n      and\n      dup2\n      mstore\n      0x20\n      add\n      swap1\n      dup2\n      mstore\n      0x20\n      add\n      0x00\n      keccak256\n        /* \"contracts/Test.sol\":1437:1475  users[msg.sender] = User(Role.User, 0) */\n      0x00\n      dup3\n      add\n      mload\n      dup2\n      0x00\n      add\n      exp(0x0100, 0x00)\n      dup2\n      sload\n      dup2\n      0xff\n      mul\n      not\n      and\n      swap1\n      dup4\n      0x02\n      dup2\n      gt\n      iszero\n      tag_428\n      jumpi\n      tag_429\n      tag_156\n      jump\t// in\n    tag_429:\n    tag_428:\n      mul\n      or\n      swap1\n      sstore\n      pop\n      0x20\n      dup3\n      add\n      mload\n      dup2\n      0x01\n      add\n      sstore\n      swap1\n      pop\n      pop\n        /* \"contracts/Test.sol\":1400:1482  function makeUser() public {... */\n      jump\t// out\n        /* \"contracts/Test.sol\":1020:1063  mapping(string => address) public referrals */\n    tag_140:\n      0x07\n      dup2\n      dup1\n      mload\n      0x20\n      dup2\n      add\n      dup3\n      add\n      dup1\n      mload\n      dup5\n      dup3\n      mstore\n      0x20\n      dup4\n      add\n      0x20\n      dup6\n      add\n      keccak256\n      dup2\n      dup4\n      mstore\n      dup1\n      swap6\n      pop\n      pop\n      pop\n      pop\n      pop\n      pop\n      0x00\n      swap2\n      pop\n      sload\n      swap1\n      0x0100\n      exp\n      swap1\n      div\n      0xffffffffffffffffffffffffffffffffffffffff\n      and\n      dup2\n      jump\t// out\n        /* \"contracts/Test.sol\":3672:4096  function acceptDelivery(bool _status, uint _deliveryId) public payable AccessControl(Role.User, msg.sender) {... */\n    tag_144:\n        /* \"contracts/Test.sol\":3757:3766  Role.User */\n      0x00\n        /* \"contracts/Test.sol\":3768:3778  msg.sender */\n      caller\n        /* \"contracts/Test.sol\":1254:1259  _role */\n      dup2\n        /* \"contracts/Test.sol\":1228:1259  users[msg.sender].role == _role */\n      0x02\n      dup2\n      gt\n      iszero\n      tag_431\n      jumpi\n      tag_432\n      tag_156\n      jump\t// in\n    tag_432:\n    tag_431:\n        /* \"contracts/Test.sol\":1228:1233  users */\n      0x03\n        /* \"contracts/Test.sol\":1228:1245  users[msg.sender] */\n      0x00\n        /* \"contracts/Test.sol\":1234:1244  msg.sender */\n      caller\n        /* \"contracts/Test.sol\":1228:1245  users[msg.sender] */\n      0xffffffffffffffffffffffffffffffffffffffff\n      and\n      0xffffffffffffffffffffffffffffffffffffffff\n      and\n      dup2\n      mstore\n      0x20\n      add\n      swap1\n      dup2\n      mstore\n      0x20\n      add\n      0x00\n      keccak256\n        /* \"contracts/Test.sol\":1228:1250  users[msg.sender].role */\n      0x00\n      add\n      0x00\n      swap1\n      sload\n      swap1\n      0x0100\n      exp\n      swap1\n      div\n      0xff\n      and\n        /* \"contracts/Test.sol\":1228:1259  users[msg.sender].role == _role */\n      0x02\n      dup2\n      gt\n      iszero\n      tag_433\n      jumpi\n      tag_434\n      tag_156\n      jump\t// in\n    tag_434:\n    tag_433:\n      eq\n        /* \"contracts/Test.sol\":1220:1300  require(users[msg.sender].role == _role, \"Your role does not allow this change\") */\n      tag_435\n      jumpi\n      mload(0x40)\n      0x08c379a000000000000000000000000000000000000000000000000000000000\n      dup2\n      mstore\n      0x04\n      add\n      tag_436\n      swap1\n      tag_161\n      jump\t// in\n    tag_436:\n      mload(0x40)\n      dup1\n      swap2\n      sub\n      swap1\n      revert\n    tag_435:\n        /* \"contracts/Test.sol\":1332:1337  _shop */\n      dup1\n        /* \"contracts/Test.sol\":1318:1337  msg.sender == _shop */\n      0xffffffffffffffffffffffffffffffffffffffff\n      and\n        /* \"contracts/Test.sol\":1318:1328  msg.sender */\n      caller\n        /* \"contracts/Test.sol\":1318:1337  msg.sender == _shop */\n      0xffffffffffffffffffffffffffffffffffffffff\n      and\n      eq\n        /* \"contracts/Test.sol\":1310:1376  require(msg.sender == _shop, \"The shop does not match the sender\") */\n      tag_437\n      jumpi\n      mload(0x40)\n      0x08c379a000000000000000000000000000000000000000000000000000000000\n      dup2\n      mstore\n      0x04\n      add\n      tag_438\n      swap1\n      tag_164\n      jump\t// in\n    tag_438:\n      mload(0x40)\n      dup1\n      swap2\n      sub\n      swap1\n      revert\n    tag_437:\n        /* \"contracts/Test.sol\":3836:3853  Status.Prepairing */\n      0x01\n        /* \"contracts/Test.sol\":3798:3853  deliveryOrders[_deliveryId].status == Status.Prepairing */\n      0x03\n      dup2\n      gt\n      iszero\n      tag_440\n      jumpi\n      tag_441\n      tag_156\n      jump\t// in\n    tag_441:\n    tag_440:\n        /* \"contracts/Test.sol\":3798:3812  deliveryOrders */\n      0x02\n        /* \"contracts/Test.sol\":3813:3824  _deliveryId */\n      dup5\n        /* \"contracts/Test.sol\":3798:3825  deliveryOrders[_deliveryId] */\n      dup2\n      sload\n      dup2\n      lt\n      tag_442\n      jumpi\n      tag_443\n      tag_199\n      jump\t// in\n    tag_443:\n    tag_442:\n      swap1\n      0x00\n      mstore\n      keccak256(0x00, 0x20)\n      swap1\n      0x05\n      mul\n      add\n        /* \"contracts/Test.sol\":3798:3832  deliveryOrders[_deliveryId].status */\n      0x01\n      add\n      0x14\n      swap1\n      sload\n      swap1\n      0x0100\n      exp\n      swap1\n      div\n      0xff\n      and\n        /* \"contracts/Test.sol\":3798:3853  deliveryOrders[_deliveryId].status == Status.Prepairing */\n      0x03\n      dup2\n      gt\n      iszero\n      tag_445\n      jumpi\n      tag_446\n      tag_156\n      jump\t// in\n    tag_446:\n    tag_445:\n      eq\n        /* \"contracts/Test.sol\":3790:3854  require(deliveryOrders[_deliveryId].status == Status.Prepairing) */\n      tag_447\n      jumpi\n      0x00\n      dup1\n      revert\n    tag_447:\n        /* \"contracts/Test.sol\":3868:3875  _status */\n      dup4\n        /* \"contracts/Test.sol\":3864:4090  if (_status) { ... */\n      iszero\n      tag_448\n      jumpi\n        /* \"contracts/Test.sol\":3892:3987  purchase(deliveryOrders[_deliveryId].shop, deliveryOrders[_deliveryId].amount, _deliveryId, \"\") */\n      tag_449\n        /* \"contracts/Test.sol\":3901:3915  deliveryOrders */\n      0x02\n        /* \"contracts/Test.sol\":3916:3927  _deliveryId */\n      dup5\n        /* \"contracts/Test.sol\":3901:3928  deliveryOrders[_deliveryId] */\n      dup2\n      sload\n      dup2\n      lt\n      tag_450\n      jumpi\n      tag_451\n      tag_199\n      jump\t// in\n    tag_451:\n    tag_450:\n      swap1\n      0x00\n      mstore\n      keccak256(0x00, 0x20)\n      swap1\n      0x05\n      mul\n      add\n        /* \"contracts/Test.sol\":3901:3933  deliveryOrders[_deliveryId].shop */\n      0x01\n      add\n      0x00\n      swap1\n      sload\n      swap1\n      0x0100\n      exp\n      swap1\n      div\n      0xffffffffffffffffffffffffffffffffffffffff\n      and\n        /* \"contracts/Test.sol\":3935:3949  deliveryOrders */\n      0x02\n        /* \"contracts/Test.sol\":3950:3961  _deliveryId */\n      dup6\n        /* \"contracts/Test.sol\":3935:3962  deliveryOrders[_deliveryId] */\n      dup2\n      sload\n      dup2\n      lt\n      tag_453\n      jumpi\n      tag_454\n      tag_199\n      jump\t// in\n    tag_454:\n    tag_453:\n      swap1\n      0x00\n      mstore\n      keccak256(0x00, 0x20)\n      swap1\n      0x05\n      mul\n      add\n        /* \"contracts/Test.sol\":3935:3969  deliveryOrders[_deliveryId].amount */\n      0x04\n      add\n      sload\n        /* \"contracts/Test.sol\":3971:3982  _deliveryId */\n      dup6\n        /* \"contracts/Test.sol\":3892:3987  purchase(deliveryOrders[_deliveryId].shop, deliveryOrders[_deliveryId].amount, _deliveryId, \"\") */\n      mload(0x40)\n      dup1\n      0x20\n      add\n      0x40\n      mstore\n      dup1\n      0x00\n      dup2\n      mstore\n      pop\n        /* \"contracts/Test.sol\":3892:3900  purchase */\n      tag_121\n        /* \"contracts/Test.sol\":3892:3987  purchase(deliveryOrders[_deliveryId].shop, deliveryOrders[_deliveryId].amount, _deliveryId, \"\") */\n      jump\t// in\n    tag_449:\n        /* \"contracts/Test.sol\":3864:4090  if (_status) { ... */\n      jump(tag_456)\n    tag_448:\n        /* \"contracts/Test.sol\":4064:4079  Status.Canceled */\n      0x02\n        /* \"contracts/Test.sol\":4026:4079  deliveryOrders[_deliveryId].status == Status.Canceled */\n      0x03\n      dup2\n      gt\n      iszero\n      tag_457\n      jumpi\n      tag_458\n      tag_156\n      jump\t// in\n    tag_458:\n    tag_457:\n        /* \"contracts/Test.sol\":4026:4040  deliveryOrders */\n      0x02\n        /* \"contracts/Test.sol\":4041:4052  _deliveryId */\n      dup5\n        /* \"contracts/Test.sol\":4026:4053  deliveryOrders[_deliveryId] */\n      dup2\n      sload\n      dup2\n      lt\n      tag_459\n      jumpi\n      tag_460\n      tag_199\n      jump\t// in\n    tag_460:\n    tag_459:\n      swap1\n      0x00\n      mstore\n      keccak256(0x00, 0x20)\n      swap1\n      0x05\n      mul\n      add\n        /* \"contracts/Test.sol\":4026:4060  deliveryOrders[_deliveryId].status */\n      0x01\n      add\n      0x14\n      swap1\n      sload\n      swap1\n      0x0100\n      exp\n      swap1\n      div\n      0xff\n      and\n        /* \"contracts/Test.sol\":4026:4079  deliveryOrders[_deliveryId].status == Status.Canceled */\n      0x03\n      dup2\n      gt\n      iszero\n      tag_462\n      jumpi\n      tag_463\n      tag_156\n      jump\t// in\n    tag_463:\n    tag_462:\n      pop\n      pop\n        /* \"contracts/Test.sol\":3864:4090  if (_status) { ... */\n    tag_456:\n        /* \"contracts/Test.sol\":3672:4096  function acceptDelivery(bool _status, uint _deliveryId) public payable AccessControl(Role.User, msg.sender) {... */\n      pop\n      pop\n      pop\n      pop\n      jump\t// out\n        /* \"contracts/Test.sol\":8195:8300  function withdrawBal(address _shop) public {... */\n    tag_148:\n        /* \"contracts/Test.sol\":8256:8261  _shop */\n      dup1\n        /* \"contracts/Test.sol\":8248:8271  payable(_shop).transfer */\n      0xffffffffffffffffffffffffffffffffffffffff\n      and\n        /* \"contracts/Test.sol\":8248:8293  payable(_shop).transfer(users[_shop].balance) */\n      0x08fc\n        /* \"contracts/Test.sol\":8272:8277  users */\n      0x03\n        /* \"contracts/Test.sol\":8272:8284  users[_shop] */\n      0x00\n        /* \"contracts/Test.sol\":8278:8283  _shop */\n      dup5\n        /* \"contracts/Test.sol\":8272:8284  users[_shop] */\n      0xffffffffffffffffffffffffffffffffffffffff\n      and\n      0xffffffffffffffffffffffffffffffffffffffff\n      and\n      dup2\n      mstore\n      0x20\n      add\n      swap1\n      dup2\n      mstore\n      0x20\n      add\n      0x00\n      keccak256\n        /* \"contracts/Test.sol\":8272:8292  users[_shop].balance */\n      0x01\n      add\n      sload\n        /* \"contracts/Test.sol\":8248:8293  payable(_shop).transfer(users[_shop].balance) */\n      swap1\n      dup2\n      iszero\n      mul\n      swap1\n      mload(0x40)\n      0x00\n      mload(0x40)\n      dup1\n      dup4\n      sub\n      dup2\n      dup6\n      dup9\n      dup9\n      call\n      swap4\n      pop\n      pop\n      pop\n      pop\n      iszero\n      dup1\n      iszero\n      tag_466\n      jumpi\n      returndatasize\n      0x00\n      dup1\n      returndatacopy\n      revert(0x00, returndatasize)\n    tag_466:\n      pop\n        /* \"contracts/Test.sol\":8195:8300  function withdrawBal(address _shop) public {... */\n      pop\n      jump\t// out\n        /* \"contracts/Test.sol\":4709:6037  function refillStore(address _shop, uint _productId, uint _amount, address _supplier) public payable AccessControl(Role.Market, _shop) {... */\n    tag_152:\n        /* \"contracts/Test.sol\":4824:4835  Role.Market */\n      0x01\n        /* \"contracts/Test.sol\":4837:4842  _shop */\n      dup5\n        /* \"contracts/Test.sol\":1254:1259  _role */\n      dup2\n        /* \"contracts/Test.sol\":1228:1259  users[msg.sender].role == _role */\n      0x02\n      dup2\n      gt\n      iszero\n      tag_468\n      jumpi\n      tag_469\n      tag_156\n      jump\t// in\n    tag_469:\n    tag_468:\n        /* \"contracts/Test.sol\":1228:1233  users */\n      0x03\n        /* \"contracts/Test.sol\":1228:1245  users[msg.sender] */\n      0x00\n        /* \"contracts/Test.sol\":1234:1244  msg.sender */\n      caller\n        /* \"contracts/Test.sol\":1228:1245  users[msg.sender] */\n      0xffffffffffffffffffffffffffffffffffffffff\n      and\n      0xffffffffffffffffffffffffffffffffffffffff\n      and\n      dup2\n      mstore\n      0x20\n      add\n      swap1\n      dup2\n      mstore\n      0x20\n      add\n      0x00\n      keccak256\n        /* \"contracts/Test.sol\":1228:1250  users[msg.sender].role */\n      0x00\n      add\n      0x00\n      swap1\n      sload\n      swap1\n      0x0100\n      exp\n      swap1\n      div\n      0xff\n      and\n        /* \"contracts/Test.sol\":1228:1259  users[msg.sender].role == _role */\n      0x02\n      dup2\n      gt\n      iszero\n      tag_470\n      jumpi\n      tag_471\n      tag_156\n      jump\t// in\n    tag_471:\n    tag_470:\n      eq\n        /* \"contracts/Test.sol\":1220:1300  require(users[msg.sender].role == _role, \"Your role does not allow this change\") */\n      tag_472\n      jumpi\n      mload(0x40)\n      0x08c379a000000000000000000000000000000000000000000000000000000000\n      dup2\n      mstore\n      0x04\n      add\n      tag_473\n      swap1\n      tag_161\n      jump\t// in\n    tag_473:\n      mload(0x40)\n      dup1\n      swap2\n      sub\n      swap1\n      revert\n    tag_472:\n        /* \"contracts/Test.sol\":1332:1337  _shop */\n      dup1\n        /* \"contracts/Test.sol\":1318:1337  msg.sender == _shop */\n      0xffffffffffffffffffffffffffffffffffffffff\n      and\n        /* \"contracts/Test.sol\":1318:1328  msg.sender */\n      caller\n        /* \"contracts/Test.sol\":1318:1337  msg.sender == _shop */\n      0xffffffffffffffffffffffffffffffffffffffff\n      and\n      eq\n        /* \"contracts/Test.sol\":1310:1376  require(msg.sender == _shop, \"The shop does not match the sender\") */\n      tag_474\n      jumpi\n      mload(0x40)\n      0x08c379a000000000000000000000000000000000000000000000000000000000\n      dup2\n      mstore\n      0x04\n      add\n      tag_475\n      swap1\n      tag_164\n      jump\t// in\n    tag_475:\n      mload(0x40)\n      dup1\n      swap2\n      sub\n      swap1\n      revert\n    tag_474:\n        /* \"contracts/Test.sol\":4872:4873  0 */\n      0x00\n        /* \"contracts/Test.sol\":4862:4869  _amount */\n      dup5\n        /* \"contracts/Test.sol\":4862:4873  _amount > 0 */\n      gt\n        /* \"contracts/Test.sol\":4854:4916  require(_amount > 0, \"Purchase amount must be greater than 0\") */\n      tag_477\n      jumpi\n      mload(0x40)\n      0x08c379a000000000000000000000000000000000000000000000000000000000\n      dup2\n      mstore\n      0x04\n      add\n      tag_478\n      swap1\n      tag_283\n      jump\t// in\n    tag_478:\n      mload(0x40)\n      dup1\n      swap2\n      sub\n      swap1\n      revert\n    tag_477:\n        /* \"contracts/Test.sol\":4947:4963  supplierProducts */\n      0x06\n        /* \"contracts/Test.sol\":4947:4974  supplierProducts[_supplier] */\n      0x00\n        /* \"contracts/Test.sol\":4964:4973  _supplier */\n      dup5\n        /* \"contracts/Test.sol\":4947:4974  supplierProducts[_supplier] */\n      0xffffffffffffffffffffffffffffffffffffffff\n      and\n      0xffffffffffffffffffffffffffffffffffffffff\n      and\n      dup2\n      mstore\n      0x20\n      add\n      swap1\n      dup2\n      mstore\n      0x20\n      add\n      0x00\n      keccak256\n        /* \"contracts/Test.sol\":4947:4981  supplierProducts[_supplier].length */\n      dup1\n      sload\n      swap1\n      pop\n        /* \"contracts/Test.sol\":4934:4944  _productId */\n      dup6\n        /* \"contracts/Test.sol\":4934:4981  _productId < supplierProducts[_supplier].length */\n      lt\n        /* \"contracts/Test.sol\":4926:5004  require(_productId < supplierProducts[_supplier].length, \"Invalid product ID\") */\n      tag_479\n      jumpi\n      mload(0x40)\n      0x08c379a000000000000000000000000000000000000000000000000000000000\n      dup2\n      mstore\n      0x04\n      add\n      tag_480\n      swap1\n      tag_286\n      jump\t// in\n    tag_480:\n      mload(0x40)\n      dup1\n      swap2\n      sub\n      swap1\n      revert\n    tag_479:\n        /* \"contracts/Test.sol\":5014:5024  uint price */\n      0x00\n        /* \"contracts/Test.sol\":5027:5043  supplierProducts */\n      0x06\n        /* \"contracts/Test.sol\":5027:5054  supplierProducts[_supplier] */\n      0x00\n        /* \"contracts/Test.sol\":5044:5053  _supplier */\n      dup6\n        /* \"contracts/Test.sol\":5027:5054  supplierProducts[_supplier] */\n      0xffffffffffffffffffffffffffffffffffffffff\n      and\n      0xffffffffffffffffffffffffffffffffffffffff\n      and\n      dup2\n      mstore\n      0x20\n      add\n      swap1\n      dup2\n      mstore\n      0x20\n      add\n      0x00\n      keccak256\n        /* \"contracts/Test.sol\":5055:5065  _productId */\n      dup7\n        /* \"contracts/Test.sol\":5027:5066  supplierProducts[_supplier][_productId] */\n      dup2\n      sload\n      dup2\n      lt\n      tag_481\n      jumpi\n      tag_482\n      tag_199\n      jump\t// in\n    tag_482:\n    tag_481:\n      swap1\n      0x00\n      mstore\n      keccak256(0x00, 0x20)\n      swap1\n      0x05\n      mul\n      add\n        /* \"contracts/Test.sol\":5027:5072  supplierProducts[_supplier][_productId].price */\n      0x02\n      add\n      sload\n        /* \"contracts/Test.sol\":5014:5072  uint price = supplierProducts[_supplier][_productId].price */\n      swap1\n      pop\n        /* \"contracts/Test.sol\":5082:5097  uint totalPrice */\n      0x00\n        /* \"contracts/Test.sol\":5118:5125  1 ether */\n      0x0de0b6b3a7640000\n        /* \"contracts/Test.sol\":5108:5115  _amount */\n      dup7\n        /* \"contracts/Test.sol\":5100:5105  price */\n      dup4\n        /* \"contracts/Test.sol\":5100:5115  price * _amount */\n      tag_484\n      swap2\n      swap1\n      tag_212\n      jump\t// in\n    tag_484:\n        /* \"contracts/Test.sol\":5100:5125  price * _amount * 1 ether */\n      tag_485\n      swap2\n      swap1\n      tag_212\n      jump\t// in\n    tag_485:\n        /* \"contracts/Test.sol\":5082:5125  uint totalPrice = price * _amount * 1 ether */\n      swap1\n      pop\n        /* \"contracts/Test.sol\":5156:5166  totalPrice */\n      dup1\n        /* \"contracts/Test.sol\":5143:5152  msg.value */\n      callvalue\n        /* \"contracts/Test.sol\":5143:5166  msg.value >= totalPrice */\n      lt\n      iszero\n        /* \"contracts/Test.sol\":5135:5194  require(msg.value >= totalPrice, \"Insufficient funds sent\") */\n      tag_486\n      jumpi\n      mload(0x40)\n      0x08c379a000000000000000000000000000000000000000000000000000000000\n      dup2\n      mstore\n      0x04\n      add\n      tag_487\n      swap1\n      tag_379\n      jump\t// in\n    tag_487:\n      mload(0x40)\n      dup1\n      swap2\n      sub\n      swap1\n      revert\n    tag_486:\n        /* \"contracts/Test.sol\":5204:5228  string memory targetName */\n      0x00\n        /* \"contracts/Test.sol\":5231:5247  supplierProducts */\n      0x06\n        /* \"contracts/Test.sol\":5231:5258  supplierProducts[_supplier] */\n      0x00\n        /* \"contracts/Test.sol\":5248:5257  _supplier */\n      dup8\n        /* \"contracts/Test.sol\":5231:5258  supplierProducts[_supplier] */\n      0xffffffffffffffffffffffffffffffffffffffff\n      and\n      0xffffffffffffffffffffffffffffffffffffffff\n      and\n      dup2\n      mstore\n      0x20\n      add\n      swap1\n      dup2\n      mstore\n      0x20\n      add\n      0x00\n      keccak256\n        /* \"contracts/Test.sol\":5259:5269  _productId */\n      dup9\n        /* \"contracts/Test.sol\":5231:5270  supplierProducts[_supplier][_productId] */\n      dup2\n      sload\n      dup2\n      lt\n      tag_488\n      jumpi\n      tag_489\n      tag_199\n      jump\t// in\n    tag_489:\n    tag_488:\n      swap1\n      0x00\n      mstore\n      keccak256(0x00, 0x20)\n      swap1\n      0x05\n      mul\n      add\n        /* \"contracts/Test.sol\":5231:5275  supplierProducts[_supplier][_productId].name */\n      0x03\n      add\n        /* \"contracts/Test.sol\":5204:5275  string memory targetName = supplierProducts[_supplier][_productId].name */\n      dup1\n      sload\n      tag_491\n      swap1\n      tag_172\n      jump\t// in\n    tag_491:\n      dup1\n      0x1f\n      add\n      0x20\n      dup1\n      swap2\n      div\n      mul\n      0x20\n      add\n      mload(0x40)\n      swap1\n      dup2\n      add\n      0x40\n      mstore\n      dup1\n      swap3\n      swap2\n      swap1\n      dup2\n      dup2\n      mstore\n      0x20\n      add\n      dup3\n      dup1\n      sload\n      tag_492\n      swap1\n      tag_172\n      jump\t// in\n    tag_492:\n      dup1\n      iszero\n      tag_493\n      jumpi\n      dup1\n      0x1f\n      lt\n      tag_494\n      jumpi\n      0x0100\n      dup1\n      dup4\n      sload\n      div\n      mul\n      dup4\n      mstore\n      swap2\n      0x20\n      add\n      swap2\n      jump(tag_493)\n    tag_494:\n      dup3\n      add\n      swap2\n      swap1\n      0x00\n      mstore\n      keccak256(0x00, 0x20)\n      swap1\n    tag_495:\n      dup2\n      sload\n      dup2\n      mstore\n      swap1\n      0x01\n      add\n      swap1\n      0x20\n      add\n      dup1\n      dup4\n      gt\n      tag_495\n      jumpi\n      dup3\n      swap1\n      sub\n      0x1f\n      and\n      dup3\n      add\n      swap2\n    tag_493:\n      pop\n      pop\n      pop\n      pop\n      pop\n      swap1\n      pop\n        /* \"contracts/Test.sol\":5285:5303  bool productExists */\n      0x00\n        /* \"contracts/Test.sol\":5326:5332  uint i */\n      dup1\n        /* \"contracts/Test.sol\":5322:5623  for(uint i = 0; i< marketProducts[_shop].length; i++){... */\n    tag_496:\n        /* \"contracts/Test.sol\":5341:5355  marketProducts */\n      0x05\n        /* \"contracts/Test.sol\":5341:5362  marketProducts[_shop] */\n      0x00\n        /* \"contracts/Test.sol\":5356:5361  _shop */\n      dup13\n        /* \"contracts/Test.sol\":5341:5362  marketProducts[_shop] */\n      0xffffffffffffffffffffffffffffffffffffffff\n      and\n      0xffffffffffffffffffffffffffffffffffffffff\n      and\n      dup2\n      mstore\n      0x20\n      add\n      swap1\n      dup2\n      mstore\n      0x20\n      add\n      0x00\n      keccak256\n        /* \"contracts/Test.sol\":5341:5369  marketProducts[_shop].length */\n      dup1\n      sload\n      swap1\n      pop\n        /* \"contracts/Test.sol\":5338:5339  i */\n      dup2\n        /* \"contracts/Test.sol\":5338:5369  i< marketProducts[_shop].length */\n      lt\n        /* \"contracts/Test.sol\":5322:5623  for(uint i = 0; i< marketProducts[_shop].length; i++){... */\n      iszero\n      tag_497\n      jumpi\n        /* \"contracts/Test.sol\":5441:5455  marketProducts */\n      0x05\n        /* \"contracts/Test.sol\":5441:5462  marketProducts[_shop] */\n      0x00\n        /* \"contracts/Test.sol\":5456:5461  _shop */\n      dup13\n        /* \"contracts/Test.sol\":5441:5462  marketProducts[_shop] */\n      0xffffffffffffffffffffffffffffffffffffffff\n      and\n      0xffffffffffffffffffffffffffffffffffffffff\n      and\n      dup2\n      mstore\n      0x20\n      add\n      swap1\n      dup2\n      mstore\n      0x20\n      add\n      0x00\n      keccak256\n        /* \"contracts/Test.sol\":5463:5464  i */\n      dup2\n        /* \"contracts/Test.sol\":5441:5465  marketProducts[_shop][i] */\n      dup2\n      sload\n      dup2\n      lt\n      tag_499\n      jumpi\n      tag_500\n      tag_199\n      jump\t// in\n    tag_500:\n    tag_499:\n      swap1\n      0x00\n      mstore\n      keccak256(0x00, 0x20)\n      swap1\n      0x05\n      mul\n      add\n        /* \"contracts/Test.sol\":5441:5470  marketProducts[_shop][i].name */\n      0x03\n      add\n        /* \"contracts/Test.sol\":5425:5472  keccak256(bytes(marketProducts[_shop][i].name)) */\n      mload(0x40)\n      tag_502\n      swap2\n      swap1\n      tag_387\n      jump\t// in\n    tag_502:\n      mload(0x40)\n      dup1\n      swap2\n      sub\n      swap1\n      keccak256\n        /* \"contracts/Test.sol\":5409:5419  targetName */\n      dup4\n        /* \"contracts/Test.sol\":5393:5421  keccak256(bytes(targetName)) */\n      dup1\n      mload\n      swap1\n      0x20\n      add\n      keccak256\n        /* \"contracts/Test.sol\":5393:5472  keccak256(bytes(targetName)) == keccak256(bytes(marketProducts[_shop][i].name)) */\n      sub\n        /* \"contracts/Test.sol\":5389:5613  if (keccak256(bytes(targetName)) == keccak256(bytes(marketProducts[_shop][i].name))){... */\n      tag_503\n      jumpi\n        /* \"contracts/Test.sol\":5527:5534  _amount */\n      dup9\n        /* \"contracts/Test.sol\":5491:5505  marketProducts */\n      0x05\n        /* \"contracts/Test.sol\":5491:5512  marketProducts[_shop] */\n      0x00\n        /* \"contracts/Test.sol\":5506:5511  _shop */\n      dup14\n        /* \"contracts/Test.sol\":5491:5512  marketProducts[_shop] */\n      0xffffffffffffffffffffffffffffffffffffffff\n      and\n      0xffffffffffffffffffffffffffffffffffffffff\n      and\n      dup2\n      mstore\n      0x20\n      add\n      swap1\n      dup2\n      mstore\n      0x20\n      add\n      0x00\n      keccak256\n        /* \"contracts/Test.sol\":5513:5514  i */\n      dup3\n        /* \"contracts/Test.sol\":5491:5515  marketProducts[_shop][i] */\n      dup2\n      sload\n      dup2\n      lt\n      tag_504\n      jumpi\n      tag_505\n      tag_199\n      jump\t// in\n    tag_505:\n    tag_504:\n      swap1\n      0x00\n      mstore\n      keccak256(0x00, 0x20)\n      swap1\n      0x05\n      mul\n      add\n        /* \"contracts/Test.sol\":5491:5523  marketProducts[_shop][i].inStock */\n      0x01\n      add\n      0x00\n        /* \"contracts/Test.sol\":5491:5534  marketProducts[_shop][i].inStock += _amount */\n      dup3\n      dup3\n      sload\n      tag_507\n      swap2\n      swap1\n      tag_221\n      jump\t// in\n    tag_507:\n      swap3\n      pop\n      pop\n      dup2\n      swap1\n      sstore\n      pop\n        /* \"contracts/Test.sol\":5568:5572  true */\n      0x01\n        /* \"contracts/Test.sol\":5552:5572  productExists = true */\n      swap2\n      pop\n        /* \"contracts/Test.sol\":5590:5595  break */\n      jump(tag_497)\n        /* \"contracts/Test.sol\":5389:5613  if (keccak256(bytes(targetName)) == keccak256(bytes(marketProducts[_shop][i].name))){... */\n    tag_503:\n        /* \"contracts/Test.sol\":5371:5374  i++ */\n      dup1\n      dup1\n      tag_508\n      swap1\n      tag_263\n      jump\t// in\n    tag_508:\n      swap2\n      pop\n      pop\n        /* \"contracts/Test.sol\":5322:5623  for(uint i = 0; i< marketProducts[_shop].length; i++){... */\n      jump(tag_496)\n    tag_497:\n      pop\n        /* \"contracts/Test.sol\":5638:5651  productExists */\n      dup1\n        /* \"contracts/Test.sol\":5633:5846  if (!productExists){... */\n      tag_509\n      jumpi\n        /* \"contracts/Test.sol\":5666:5688  Product memory newItem */\n      0x00\n        /* \"contracts/Test.sol\":5691:5786  Product(_supplier, _amount, price, targetName, supplierProducts[_supplier][_productId].expDate) */\n      mload(0x40)\n      dup1\n      0xa0\n      add\n      0x40\n      mstore\n      dup1\n        /* \"contracts/Test.sol\":5699:5708  _supplier */\n      dup10\n        /* \"contracts/Test.sol\":5691:5786  Product(_supplier, _amount, price, targetName, supplierProducts[_supplier][_productId].expDate) */\n      0xffffffffffffffffffffffffffffffffffffffff\n      and\n      dup2\n      mstore\n      0x20\n      add\n        /* \"contracts/Test.sol\":5710:5717  _amount */\n      dup11\n        /* \"contracts/Test.sol\":5691:5786  Product(_supplier, _amount, price, targetName, supplierProducts[_supplier][_productId].expDate) */\n      dup2\n      mstore\n      0x20\n      add\n        /* \"contracts/Test.sol\":5719:5724  price */\n      dup7\n        /* \"contracts/Test.sol\":5691:5786  Product(_supplier, _amount, price, targetName, supplierProducts[_supplier][_productId].expDate) */\n      dup2\n      mstore\n      0x20\n      add\n        /* \"contracts/Test.sol\":5726:5736  targetName */\n      dup5\n        /* \"contracts/Test.sol\":5691:5786  Product(_supplier, _amount, price, targetName, supplierProducts[_supplier][_productId].expDate) */\n      dup2\n      mstore\n      0x20\n      add\n        /* \"contracts/Test.sol\":5738:5754  supplierProducts */\n      0x06\n        /* \"contracts/Test.sol\":5738:5765  supplierProducts[_supplier] */\n      0x00\n        /* \"contracts/Test.sol\":5755:5764  _supplier */\n      dup12\n        /* \"contracts/Test.sol\":5738:5765  supplierProducts[_supplier] */\n      0xffffffffffffffffffffffffffffffffffffffff\n      and\n      0xffffffffffffffffffffffffffffffffffffffff\n      and\n      dup2\n      mstore\n      0x20\n      add\n      swap1\n      dup2\n      mstore\n      0x20\n      add\n      0x00\n      keccak256\n        /* \"contracts/Test.sol\":5766:5776  _productId */\n      dup13\n        /* \"contracts/Test.sol\":5738:5777  supplierProducts[_supplier][_productId] */\n      dup2\n      sload\n      dup2\n      lt\n      tag_510\n      jumpi\n      tag_511\n      tag_199\n      jump\t// in\n    tag_511:\n    tag_510:\n      swap1\n      0x00\n      mstore\n      keccak256(0x00, 0x20)\n      swap1\n      0x05\n      mul\n      add\n        /* \"contracts/Test.sol\":5738:5785  supplierProducts[_supplier][_productId].expDate */\n      0x04\n      add\n      sload\n        /* \"contracts/Test.sol\":5691:5786  Product(_supplier, _amount, price, targetName, supplierProducts[_supplier][_productId].expDate) */\n      dup2\n      mstore\n      pop\n        /* \"contracts/Test.sol\":5666:5786  Product memory newItem = Product(_supplier, _amount, price, targetName, supplierProducts[_supplier][_productId].expDate) */\n      swap1\n      pop\n        /* \"contracts/Test.sol\":5800:5814  marketProducts */\n      0x05\n        /* \"contracts/Test.sol\":5800:5821  marketProducts[_shop] */\n      0x00\n        /* \"contracts/Test.sol\":5815:5820  _shop */\n      dup13\n        /* \"contracts/Test.sol\":5800:5821  marketProducts[_shop] */\n      0xffffffffffffffffffffffffffffffffffffffff\n      and\n      0xffffffffffffffffffffffffffffffffffffffff\n      and\n      dup2\n      mstore\n      0x20\n      add\n      swap1\n      dup2\n      mstore\n      0x20\n      add\n      0x00\n      keccak256\n        /* \"contracts/Test.sol\":5827:5834  newItem */\n      dup2\n        /* \"contracts/Test.sol\":5800:5835  marketProducts[_shop].push(newItem) */\n      swap1\n      dup1\n      0x01\n      dup2\n      sload\n      add\n      dup1\n      dup3\n      sstore\n      dup1\n      swap2\n      pop\n      pop\n      0x01\n      swap1\n      sub\n      swap1\n      0x00\n      mstore\n      keccak256(0x00, 0x20)\n      swap1\n      0x05\n      mul\n      add\n      0x00\n      swap1\n      swap2\n      swap1\n      swap2\n      swap1\n      swap2\n      pop\n      0x00\n      dup3\n      add\n      mload\n      dup2\n      0x00\n      add\n      exp(0x0100, 0x00)\n      dup2\n      sload\n      dup2\n      0xffffffffffffffffffffffffffffffffffffffff\n      mul\n      not\n      and\n      swap1\n      dup4\n      0xffffffffffffffffffffffffffffffffffffffff\n      and\n      mul\n      or\n      swap1\n      sstore\n      pop\n      0x20\n      dup3\n      add\n      mload\n      dup2\n      0x01\n      add\n      sstore\n      0x40\n      dup3\n      add\n      mload\n      dup2\n      0x02\n      add\n      sstore\n      0x60\n      dup3\n      add\n      mload\n      dup2\n      0x03\n      add\n      swap1\n      dup2\n      tag_514\n      swap2\n      swap1\n      tag_168\n      jump\t// in\n    tag_514:\n      pop\n      0x80\n      dup3\n      add\n      mload\n      dup2\n      0x04\n      add\n      sstore\n      pop\n      pop\n        /* \"contracts/Test.sol\":5652:5846  {... */\n      pop\n        /* \"contracts/Test.sol\":5633:5846  if (!productExists){... */\n    tag_509:\n        /* \"contracts/Test.sol\":5907:5914  _amount */\n      dup8\n        /* \"contracts/Test.sol\":5856:5872  supplierProducts */\n      0x06\n        /* \"contracts/Test.sol\":5856:5883  supplierProducts[_supplier] */\n      0x00\n        /* \"contracts/Test.sol\":5873:5882  _supplier */\n      dup10\n        /* \"contracts/Test.sol\":5856:5883  supplierProducts[_supplier] */\n      0xffffffffffffffffffffffffffffffffffffffff\n      and\n      0xffffffffffffffffffffffffffffffffffffffff\n      and\n      dup2\n      mstore\n      0x20\n      add\n      swap1\n      dup2\n      mstore\n      0x20\n      add\n      0x00\n      keccak256\n        /* \"contracts/Test.sol\":5884:5894  _productId */\n      dup11\n        /* \"contracts/Test.sol\":5856:5895  supplierProducts[_supplier][_productId] */\n      dup2\n      sload\n      dup2\n      lt\n      tag_515\n      jumpi\n      tag_516\n      tag_199\n      jump\t// in\n    tag_516:\n    tag_515:\n      swap1\n      0x00\n      mstore\n      keccak256(0x00, 0x20)\n      swap1\n      0x05\n      mul\n      add\n        /* \"contracts/Test.sol\":5856:5903  supplierProducts[_supplier][_productId].inStock */\n      0x01\n      add\n      0x00\n        /* \"contracts/Test.sol\":5856:5914  supplierProducts[_supplier][_productId].inStock -= _amount */\n      dup3\n      dup3\n      sload\n      tag_518\n      swap2\n      swap1\n      tag_228\n      jump\t// in\n    tag_518:\n      swap3\n      pop\n      pop\n      dup2\n      swap1\n      sstore\n      pop\n        /* \"contracts/Test.sol\":5941:5951  totalPrice */\n      dup3\n        /* \"contracts/Test.sol\":5929:5938  msg.value */\n      callvalue\n        /* \"contracts/Test.sol\":5929:5951  msg.value > totalPrice */\n      gt\n        /* \"contracts/Test.sol\":5925:6030  if (msg.value > totalPrice) {... */\n      iszero\n      tag_519\n      jumpi\n        /* \"contracts/Test.sol\":5975:5985  msg.sender */\n      caller\n        /* \"contracts/Test.sol\":5967:5995  payable(msg.sender).transfer */\n      0xffffffffffffffffffffffffffffffffffffffff\n      and\n        /* \"contracts/Test.sol\":5967:6019  payable(msg.sender).transfer(msg.value - totalPrice) */\n      0x08fc\n        /* \"contracts/Test.sol\":6008:6018  totalPrice */\n      dup5\n        /* \"contracts/Test.sol\":5996:6005  msg.value */\n      callvalue\n        /* \"contracts/Test.sol\":5996:6018  msg.value - totalPrice */\n      tag_520\n      swap2\n      swap1\n      tag_228\n      jump\t// in\n    tag_520:\n        /* \"contracts/Test.sol\":5967:6019  payable(msg.sender).transfer(msg.value - totalPrice) */\n      swap1\n      dup2\n      iszero\n      mul\n      swap1\n      mload(0x40)\n      0x00\n      mload(0x40)\n      dup1\n      dup4\n      sub\n      dup2\n      dup6\n      dup9\n      dup9\n      call\n      swap4\n      pop\n      pop\n      pop\n      pop\n      iszero\n      dup1\n      iszero\n      tag_522\n      jumpi\n      returndatasize\n      0x00\n      dup1\n      returndatacopy\n      revert(0x00, returndatasize)\n    tag_522:\n      pop\n        /* \"contracts/Test.sol\":5925:6030  if (msg.value > totalPrice) {... */\n    tag_519:\n        /* \"contracts/Test.sol\":4844:6037  {... */\n      pop\n      pop\n      pop\n      pop\n        /* \"contracts/Test.sol\":4709:6037  function refillStore(address _shop, uint _productId, uint _amount, address _supplier) public payable AccessControl(Role.Market, _shop) {... */\n      pop\n      pop\n      pop\n      pop\n      pop\n      pop\n      jump\t// out\n    tag_226:\n      pop\n      dup1\n      sload\n      tag_523\n      swap1\n      tag_172\n      jump\t// in\n    tag_523:\n      0x00\n      dup3\n      sstore\n      dup1\n      0x1f\n      lt\n      tag_525\n      jumpi\n      pop\n      jump(tag_524)\n    tag_525:\n      0x1f\n      add\n      0x20\n      swap1\n      div\n      swap1\n      0x00\n      mstore\n      keccak256(0x00, 0x20)\n      swap1\n      dup2\n      add\n      swap1\n      tag_526\n      swap2\n      swap1\n      tag_527\n      jump\t// in\n    tag_526:\n    tag_524:\n      pop\n      jump\t// out\n    tag_527:\n    tag_528:\n      dup1\n      dup3\n      gt\n      iszero\n      tag_529\n      jumpi\n      0x00\n      dup2\n      0x00\n      swap1\n      sstore\n      pop\n      0x01\n      add\n      jump(tag_528)\n    tag_529:\n      pop\n      swap1\n      jump\t// out\n        /* \"#utility.yul\":7:82   */\n    tag_530:\n        /* \"#utility.yul\":40:46   */\n      0x00\n        /* \"#utility.yul\":73:75   */\n      0x40\n        /* \"#utility.yul\":67:76   */\n      mload\n        /* \"#utility.yul\":57:76   */\n      swap1\n      pop\n        /* \"#utility.yul\":7:82   */\n      swap1\n      jump\t// out\n        /* \"#utility.yul\":88:205   */\n    tag_531:\n        /* \"#utility.yul\":197:198   */\n      0x00\n        /* \"#utility.yul\":194:195   */\n      dup1\n        /* \"#utility.yul\":187:199   */\n      revert\n        /* \"#utility.yul\":211:328   */\n    tag_532:\n        /* \"#utility.yul\":320:321   */\n      0x00\n        /* \"#utility.yul\":317:318   */\n      dup1\n        /* \"#utility.yul\":310:322   */\n      revert\n        /* \"#utility.yul\":334:411   */\n    tag_533:\n        /* \"#utility.yul\":371:378   */\n      0x00\n        /* \"#utility.yul\":400:405   */\n      dup2\n        /* \"#utility.yul\":389:405   */\n      swap1\n      pop\n        /* \"#utility.yul\":334:411   */\n      swap2\n      swap1\n      pop\n      jump\t// out\n        /* \"#utility.yul\":417:539   */\n    tag_534:\n        /* \"#utility.yul\":490:514   */\n      tag_622\n        /* \"#utility.yul\":508:513   */\n      dup2\n        /* \"#utility.yul\":490:514   */\n      tag_533\n      jump\t// in\n    tag_622:\n        /* \"#utility.yul\":483:488   */\n      dup2\n        /* \"#utility.yul\":480:515   */\n      eq\n        /* \"#utility.yul\":470:533   */\n      tag_623\n      jumpi\n        /* \"#utility.yul\":529:530   */\n      0x00\n        /* \"#utility.yul\":526:527   */\n      dup1\n        /* \"#utility.yul\":519:531   */\n      revert\n        /* \"#utility.yul\":470:533   */\n    tag_623:\n        /* \"#utility.yul\":417:539   */\n      pop\n      jump\t// out\n        /* \"#utility.yul\":545:684   */\n    tag_535:\n        /* \"#utility.yul\":591:596   */\n      0x00\n        /* \"#utility.yul\":629:635   */\n      dup2\n        /* \"#utility.yul\":616:636   */\n      calldataload\n        /* \"#utility.yul\":607:636   */\n      swap1\n      pop\n        /* \"#utility.yul\":645:678   */\n      tag_625\n        /* \"#utility.yul\":672:677   */\n      dup2\n        /* \"#utility.yul\":645:678   */\n      tag_534\n      jump\t// in\n    tag_625:\n        /* \"#utility.yul\":545:684   */\n      swap3\n      swap2\n      pop\n      pop\n      jump\t// out\n        /* \"#utility.yul\":690:807   */\n    tag_536:\n        /* \"#utility.yul\":799:800   */\n      0x00\n        /* \"#utility.yul\":796:797   */\n      dup1\n        /* \"#utility.yul\":789:801   */\n      revert\n        /* \"#utility.yul\":813:930   */\n    tag_537:\n        /* \"#utility.yul\":922:923   */\n      0x00\n        /* \"#utility.yul\":919:920   */\n      dup1\n        /* \"#utility.yul\":912:924   */\n      revert\n        /* \"#utility.yul\":936:1053   */\n    tag_538:\n        /* \"#utility.yul\":1045:1046   */\n      0x00\n        /* \"#utility.yul\":1042:1043   */\n      dup1\n        /* \"#utility.yul\":1035:1047   */\n      revert\n        /* \"#utility.yul\":1073:1626   */\n    tag_539:\n        /* \"#utility.yul\":1131:1139   */\n      0x00\n        /* \"#utility.yul\":1141:1147   */\n      dup1\n        /* \"#utility.yul\":1191:1194   */\n      dup4\n        /* \"#utility.yul\":1184:1188   */\n      0x1f\n        /* \"#utility.yul\":1176:1182   */\n      dup5\n        /* \"#utility.yul\":1172:1189   */\n      add\n        /* \"#utility.yul\":1168:1195   */\n      slt\n        /* \"#utility.yul\":1158:1280   */\n      tag_630\n      jumpi\n        /* \"#utility.yul\":1199:1278   */\n      tag_631\n      tag_536\n      jump\t// in\n    tag_631:\n        /* \"#utility.yul\":1158:1280   */\n    tag_630:\n        /* \"#utility.yul\":1312:1318   */\n      dup3\n        /* \"#utility.yul\":1299:1319   */\n      calldataload\n        /* \"#utility.yul\":1289:1319   */\n      swap1\n      pop\n        /* \"#utility.yul\":1342:1360   */\n      0xffffffffffffffff\n        /* \"#utility.yul\":1334:1340   */\n      dup2\n        /* \"#utility.yul\":1331:1361   */\n      gt\n        /* \"#utility.yul\":1328:1445   */\n      iszero\n      tag_632\n      jumpi\n        /* \"#utility.yul\":1364:1443   */\n      tag_633\n      tag_537\n      jump\t// in\n    tag_633:\n        /* \"#utility.yul\":1328:1445   */\n    tag_632:\n        /* \"#utility.yul\":1478:1482   */\n      0x20\n        /* \"#utility.yul\":1470:1476   */\n      dup4\n        /* \"#utility.yul\":1466:1483   */\n      add\n        /* \"#utility.yul\":1454:1483   */\n      swap2\n      pop\n        /* \"#utility.yul\":1532:1535   */\n      dup4\n        /* \"#utility.yul\":1524:1528   */\n      0x01\n        /* \"#utility.yul\":1516:1522   */\n      dup3\n        /* \"#utility.yul\":1512:1529   */\n      mul\n        /* \"#utility.yul\":1502:1510   */\n      dup4\n        /* \"#utility.yul\":1498:1530   */\n      add\n        /* \"#utility.yul\":1495:1536   */\n      gt\n        /* \"#utility.yul\":1492:1620   */\n      iszero\n      tag_634\n      jumpi\n        /* \"#utility.yul\":1539:1618   */\n      tag_635\n      tag_538\n      jump\t// in\n    tag_635:\n        /* \"#utility.yul\":1492:1620   */\n    tag_634:\n        /* \"#utility.yul\":1073:1626   */\n      swap3\n      pop\n      swap3\n      swap1\n      pop\n      jump\t// out\n        /* \"#utility.yul\":1632:2597   */\n    tag_34:\n        /* \"#utility.yul\":1730:1736   */\n      0x00\n        /* \"#utility.yul\":1738:1744   */\n      dup1\n        /* \"#utility.yul\":1746:1752   */\n      0x00\n        /* \"#utility.yul\":1754:1760   */\n      dup1\n        /* \"#utility.yul\":1762:1768   */\n      0x00\n        /* \"#utility.yul\":1811:1814   */\n      0x80\n        /* \"#utility.yul\":1799:1808   */\n      dup7\n        /* \"#utility.yul\":1790:1797   */\n      dup9\n        /* \"#utility.yul\":1786:1809   */\n      sub\n        /* \"#utility.yul\":1782:1815   */\n      slt\n        /* \"#utility.yul\":1779:1899   */\n      iszero\n      tag_637\n      jumpi\n        /* \"#utility.yul\":1818:1897   */\n      tag_638\n      tag_531\n      jump\t// in\n    tag_638:\n        /* \"#utility.yul\":1779:1899   */\n    tag_637:\n        /* \"#utility.yul\":1938:1939   */\n      0x00\n        /* \"#utility.yul\":1963:2016   */\n      tag_639\n        /* \"#utility.yul\":2008:2015   */\n      dup9\n        /* \"#utility.yul\":1999:2005   */\n      dup3\n        /* \"#utility.yul\":1988:1997   */\n      dup10\n        /* \"#utility.yul\":1984:2006   */\n      add\n        /* \"#utility.yul\":1963:2016   */\n      tag_535\n      jump\t// in\n    tag_639:\n        /* \"#utility.yul\":1953:2016   */\n      swap6\n      pop\n        /* \"#utility.yul\":1909:2026   */\n      pop\n        /* \"#utility.yul\":2065:2067   */\n      0x20\n        /* \"#utility.yul\":2091:2144   */\n      tag_640\n        /* \"#utility.yul\":2136:2143   */\n      dup9\n        /* \"#utility.yul\":2127:2133   */\n      dup3\n        /* \"#utility.yul\":2116:2125   */\n      dup10\n        /* \"#utility.yul\":2112:2134   */\n      add\n        /* \"#utility.yul\":2091:2144   */\n      tag_535\n      jump\t// in\n    tag_640:\n        /* \"#utility.yul\":2081:2144   */\n      swap5\n      pop\n        /* \"#utility.yul\":2036:2154   */\n      pop\n        /* \"#utility.yul\":2221:2223   */\n      0x40\n        /* \"#utility.yul\":2210:2219   */\n      dup7\n        /* \"#utility.yul\":2206:2224   */\n      add\n        /* \"#utility.yul\":2193:2225   */\n      calldataload\n        /* \"#utility.yul\":2252:2270   */\n      0xffffffffffffffff\n        /* \"#utility.yul\":2244:2250   */\n      dup2\n        /* \"#utility.yul\":2241:2271   */\n      gt\n        /* \"#utility.yul\":2238:2355   */\n      iszero\n      tag_641\n      jumpi\n        /* \"#utility.yul\":2274:2353   */\n      tag_642\n      tag_532\n      jump\t// in\n    tag_642:\n        /* \"#utility.yul\":2238:2355   */\n    tag_641:\n        /* \"#utility.yul\":2387:2452   */\n      tag_643\n        /* \"#utility.yul\":2444:2451   */\n      dup9\n        /* \"#utility.yul\":2435:2441   */\n      dup3\n        /* \"#utility.yul\":2424:2433   */\n      dup10\n        /* \"#utility.yul\":2420:2442   */\n      add\n        /* \"#utility.yul\":2387:2452   */\n      tag_539\n      jump\t// in\n    tag_643:\n        /* \"#utility.yul\":2369:2452   */\n      swap4\n      pop\n      swap4\n      pop\n        /* \"#utility.yul\":2164:2462   */\n      pop\n        /* \"#utility.yul\":2501:2503   */\n      0x60\n        /* \"#utility.yul\":2527:2580   */\n      tag_644\n        /* \"#utility.yul\":2572:2579   */\n      dup9\n        /* \"#utility.yul\":2563:2569   */\n      dup3\n        /* \"#utility.yul\":2552:2561   */\n      dup10\n        /* \"#utility.yul\":2548:2570   */\n      add\n        /* \"#utility.yul\":2527:2580   */\n      tag_535\n      jump\t// in\n    tag_644:\n        /* \"#utility.yul\":2517:2580   */\n      swap2\n      pop\n        /* \"#utility.yul\":2472:2590   */\n      pop\n        /* \"#utility.yul\":1632:2597   */\n      swap3\n      swap6\n      pop\n      swap3\n      swap6\n      swap1\n      swap4\n      pop\n      jump\t// out\n        /* \"#utility.yul\":2603:2932   */\n    tag_39:\n        /* \"#utility.yul\":2662:2668   */\n      0x00\n        /* \"#utility.yul\":2711:2713   */\n      0x20\n        /* \"#utility.yul\":2699:2708   */\n      dup3\n        /* \"#utility.yul\":2690:2697   */\n      dup5\n        /* \"#utility.yul\":2686:2709   */\n      sub\n        /* \"#utility.yul\":2682:2714   */\n      slt\n        /* \"#utility.yul\":2679:2798   */\n      iszero\n      tag_646\n      jumpi\n        /* \"#utility.yul\":2717:2796   */\n      tag_647\n      tag_531\n      jump\t// in\n    tag_647:\n        /* \"#utility.yul\":2679:2798   */\n    tag_646:\n        /* \"#utility.yul\":2837:2838   */\n      0x00\n        /* \"#utility.yul\":2862:2915   */\n      tag_648\n        /* \"#utility.yul\":2907:2914   */\n      dup5\n        /* \"#utility.yul\":2898:2904   */\n      dup3\n        /* \"#utility.yul\":2887:2896   */\n      dup6\n        /* \"#utility.yul\":2883:2905   */\n      add\n        /* \"#utility.yul\":2862:2915   */\n      tag_535\n      jump\t// in\n    tag_648:\n        /* \"#utility.yul\":2852:2915   */\n      swap2\n      pop\n        /* \"#utility.yul\":2808:2925   */\n      pop\n        /* \"#utility.yul\":2603:2932   */\n      swap3\n      swap2\n      pop\n      pop\n      jump\t// out\n        /* \"#utility.yul\":2938:3064   */\n    tag_540:\n        /* \"#utility.yul\":2975:2982   */\n      0x00\n        /* \"#utility.yul\":3015:3057   */\n      0xffffffffffffffffffffffffffffffffffffffff\n        /* \"#utility.yul\":3008:3013   */\n      dup3\n        /* \"#utility.yul\":3004:3058   */\n      and\n        /* \"#utility.yul\":2993:3058   */\n      swap1\n      pop\n        /* \"#utility.yul\":2938:3064   */\n      swap2\n      swap1\n      pop\n      jump\t// out\n        /* \"#utility.yul\":3070:3166   */\n    tag_541:\n        /* \"#utility.yul\":3107:3114   */\n      0x00\n        /* \"#utility.yul\":3136:3160   */\n      tag_651\n        /* \"#utility.yul\":3154:3159   */\n      dup3\n        /* \"#utility.yul\":3136:3160   */\n      tag_540\n      jump\t// in\n    tag_651:\n        /* \"#utility.yul\":3125:3160   */\n      swap1\n      pop\n        /* \"#utility.yul\":3070:3166   */\n      swap2\n      swap1\n      pop\n      jump\t// out\n        /* \"#utility.yul\":3172:3290   */\n    tag_542:\n        /* \"#utility.yul\":3259:3283   */\n      tag_653\n        /* \"#utility.yul\":3277:3282   */\n      dup2\n        /* \"#utility.yul\":3259:3283   */\n      tag_541\n      jump\t// in\n    tag_653:\n        /* \"#utility.yul\":3254:3257   */\n      dup3\n        /* \"#utility.yul\":3247:3284   */\n      mstore\n        /* \"#utility.yul\":3172:3290   */\n      pop\n      pop\n      jump\t// out\n        /* \"#utility.yul\":3296:3476   */\n    tag_156:\n        /* \"#utility.yul\":3344:3421   */\n      0x4e487b7100000000000000000000000000000000000000000000000000000000\n        /* \"#utility.yul\":3341:3342   */\n      0x00\n        /* \"#utility.yul\":3334:3422   */\n      mstore\n        /* \"#utility.yul\":3441:3445   */\n      0x21\n        /* \"#utility.yul\":3438:3439   */\n      0x04\n        /* \"#utility.yul\":3431:3446   */\n      mstore\n        /* \"#utility.yul\":3465:3469   */\n      0x24\n        /* \"#utility.yul\":3462:3463   */\n      0x00\n        /* \"#utility.yul\":3455:3470   */\n      revert\n        /* \"#utility.yul\":3482:3596   */\n    tag_543:\n        /* \"#utility.yul\":3564:3565   */\n      0x04\n        /* \"#utility.yul\":3557:3562   */\n      dup2\n        /* \"#utility.yul\":3554:3566   */\n      lt\n        /* \"#utility.yul\":3544:3590   */\n      tag_656\n      jumpi\n        /* \"#utility.yul\":3570:3588   */\n      tag_657\n      tag_156\n      jump\t// in\n    tag_657:\n        /* \"#utility.yul\":3544:3590   */\n    tag_656:\n        /* \"#utility.yul\":3482:3596   */\n      pop\n      jump\t// out\n        /* \"#utility.yul\":3602:3731   */\n    tag_544:\n        /* \"#utility.yul\":3648:3655   */\n      0x00\n        /* \"#utility.yul\":3677:3682   */\n      dup2\n        /* \"#utility.yul\":3666:3682   */\n      swap1\n      pop\n        /* \"#utility.yul\":3683:3725   */\n      tag_659\n        /* \"#utility.yul\":3719:3724   */\n      dup3\n        /* \"#utility.yul\":3683:3725   */\n      tag_543\n      jump\t// in\n    tag_659:\n        /* \"#utility.yul\":3602:3731   */\n      swap2\n      swap1\n      pop\n      jump\t// out\n        /* \"#utility.yul\":3737:3866   */\n    tag_545:\n        /* \"#utility.yul\":3794:3803   */\n      0x00\n        /* \"#utility.yul\":3827:3860   */\n      tag_661\n        /* \"#utility.yul\":3854:3859   */\n      dup3\n        /* \"#utility.yul\":3827:3860   */\n      tag_544\n      jump\t// in\n    tag_661:\n        /* \"#utility.yul\":3814:3860   */\n      swap1\n      pop\n        /* \"#utility.yul\":3737:3866   */\n      swap2\n      swap1\n      pop\n      jump\t// out\n        /* \"#utility.yul\":3872:4017   */\n    tag_546:\n        /* \"#utility.yul\":3966:4010   */\n      tag_663\n        /* \"#utility.yul\":4004:4009   */\n      dup2\n        /* \"#utility.yul\":3966:4010   */\n      tag_545\n      jump\t// in\n    tag_663:\n        /* \"#utility.yul\":3961:3964   */\n      dup3\n        /* \"#utility.yul\":3954:4011   */\n      mstore\n        /* \"#utility.yul\":3872:4017   */\n      pop\n      pop\n      jump\t// out\n        /* \"#utility.yul\":4023:4122   */\n    tag_547:\n        /* \"#utility.yul\":4075:4081   */\n      0x00\n        /* \"#utility.yul\":4109:4114   */\n      dup2\n        /* \"#utility.yul\":4103:4115   */\n      mload\n        /* \"#utility.yul\":4093:4115   */\n      swap1\n      pop\n        /* \"#utility.yul\":4023:4122   */\n      swap2\n      swap1\n      pop\n      jump\t// out\n        /* \"#utility.yul\":4128:4297   */\n    tag_548:\n        /* \"#utility.yul\":4212:4223   */\n      0x00\n        /* \"#utility.yul\":4246:4252   */\n      dup3\n        /* \"#utility.yul\":4241:4244   */\n      dup3\n        /* \"#utility.yul\":4234:4253   */\n      mstore\n        /* \"#utility.yul\":4286:4290   */\n      0x20\n        /* \"#utility.yul\":4281:4284   */\n      dup3\n        /* \"#utility.yul\":4277:4291   */\n      add\n        /* \"#utility.yul\":4262:4291   */\n      swap1\n      pop\n        /* \"#utility.yul\":4128:4297   */\n      swap3\n      swap2\n      pop\n      pop\n      jump\t// out\n        /* \"#utility.yul\":4303:4549   */\n    tag_549:\n        /* \"#utility.yul\":4384:4385   */\n      0x00\n        /* \"#utility.yul\":4394:4507   */\n    tag_667:\n        /* \"#utility.yul\":4408:4414   */\n      dup4\n        /* \"#utility.yul\":4405:4406   */\n      dup2\n        /* \"#utility.yul\":4402:4415   */\n      lt\n        /* \"#utility.yul\":4394:4507   */\n      iszero\n      tag_669\n      jumpi\n        /* \"#utility.yul\":4493:4494   */\n      dup1\n        /* \"#utility.yul\":4488:4491   */\n      dup3\n        /* \"#utility.yul\":4484:4495   */\n      add\n        /* \"#utility.yul\":4478:4496   */\n      mload\n        /* \"#utility.yul\":4474:4475   */\n      dup2\n        /* \"#utility.yul\":4469:4472   */\n      dup5\n        /* \"#utility.yul\":4465:4476   */\n      add\n        /* \"#utility.yul\":4458:4497   */\n      mstore\n        /* \"#utility.yul\":4430:4432   */\n      0x20\n        /* \"#utility.yul\":4427:4428   */\n      dup2\n        /* \"#utility.yul\":4423:4433   */\n      add\n        /* \"#utility.yul\":4418:4433   */\n      swap1\n      pop\n        /* \"#utility.yul\":4394:4507   */\n      jump(tag_667)\n    tag_669:\n        /* \"#utility.yul\":4541:4542   */\n      0x00\n        /* \"#utility.yul\":4532:4538   */\n      dup5\n        /* \"#utility.yul\":4527:4530   */\n      dup5\n        /* \"#utility.yul\":4523:4539   */\n      add\n        /* \"#utility.yul\":4516:4543   */\n      mstore\n        /* \"#utility.yul\":4365:4549   */\n      pop\n        /* \"#utility.yul\":4303:4549   */\n      pop\n      pop\n      pop\n      jump\t// out\n        /* \"#utility.yul\":4555:4657   */\n    tag_550:\n        /* \"#utility.yul\":4596:4602   */\n      0x00\n        /* \"#utility.yul\":4647:4649   */\n      0x1f\n        /* \"#utility.yul\":4643:4650   */\n      not\n        /* \"#utility.yul\":4638:4640   */\n      0x1f\n        /* \"#utility.yul\":4631:4636   */\n      dup4\n        /* \"#utility.yul\":4627:4641   */\n      add\n        /* \"#utility.yul\":4623:4651   */\n      and\n        /* \"#utility.yul\":4613:4651   */\n      swap1\n      pop\n        /* \"#utility.yul\":4555:4657   */\n      swap2\n      swap1\n      pop\n      jump\t// out\n        /* \"#utility.yul\":4663:5040   */\n    tag_551:\n        /* \"#utility.yul\":4751:4754   */\n      0x00\n        /* \"#utility.yul\":4779:4818   */\n      tag_672\n        /* \"#utility.yul\":4812:4817   */\n      dup3\n        /* \"#utility.yul\":4779:4818   */\n      tag_547\n      jump\t// in\n    tag_672:\n        /* \"#utility.yul\":4834:4905   */\n      tag_673\n        /* \"#utility.yul\":4898:4904   */\n      dup2\n        /* \"#utility.yul\":4893:4896   */\n      dup6\n        /* \"#utility.yul\":4834:4905   */\n      tag_548\n      jump\t// in\n    tag_673:\n        /* \"#utility.yul\":4827:4905   */\n      swap4\n      pop\n        /* \"#utility.yul\":4914:4979   */\n      tag_674\n        /* \"#utility.yul\":4972:4978   */\n      dup2\n        /* \"#utility.yul\":4967:4970   */\n      dup6\n        /* \"#utility.yul\":4960:4964   */\n      0x20\n        /* \"#utility.yul\":4953:4958   */\n      dup7\n        /* \"#utility.yul\":4949:4965   */\n      add\n        /* \"#utility.yul\":4914:4979   */\n      tag_549\n      jump\t// in\n    tag_674:\n        /* \"#utility.yul\":5004:5033   */\n      tag_675\n        /* \"#utility.yul\":5026:5032   */\n      dup2\n        /* \"#utility.yul\":5004:5033   */\n      tag_550\n      jump\t// in\n    tag_675:\n        /* \"#utility.yul\":4999:5002   */\n      dup5\n        /* \"#utility.yul\":4995:5034   */\n      add\n        /* \"#utility.yul\":4988:5034   */\n      swap2\n      pop\n        /* \"#utility.yul\":4755:5040   */\n      pop\n        /* \"#utility.yul\":4663:5040   */\n      swap3\n      swap2\n      pop\n      pop\n      jump\t// out\n        /* \"#utility.yul\":5046:5164   */\n    tag_552:\n        /* \"#utility.yul\":5133:5157   */\n      tag_677\n        /* \"#utility.yul\":5151:5156   */\n      dup2\n        /* \"#utility.yul\":5133:5157   */\n      tag_533\n      jump\t// in\n    tag_677:\n        /* \"#utility.yul\":5128:5131   */\n      dup3\n        /* \"#utility.yul\":5121:5158   */\n      mstore\n        /* \"#utility.yul\":5046:5164   */\n      pop\n      pop\n      jump\t// out\n        /* \"#utility.yul\":5170:6050   */\n    tag_42:\n        /* \"#utility.yul\":5430:5434   */\n      0x00\n        /* \"#utility.yul\":5468:5471   */\n      0xc0\n        /* \"#utility.yul\":5457:5466   */\n      dup3\n        /* \"#utility.yul\":5453:5472   */\n      add\n        /* \"#utility.yul\":5445:5472   */\n      swap1\n      pop\n        /* \"#utility.yul\":5482:5553   */\n      tag_679\n        /* \"#utility.yul\":5550:5551   */\n      0x00\n        /* \"#utility.yul\":5539:5548   */\n      dup4\n        /* \"#utility.yul\":5535:5552   */\n      add\n        /* \"#utility.yul\":5526:5532   */\n      dup10\n        /* \"#utility.yul\":5482:5553   */\n      tag_542\n      jump\t// in\n    tag_679:\n        /* \"#utility.yul\":5563:5635   */\n      tag_680\n        /* \"#utility.yul\":5631:5633   */\n      0x20\n        /* \"#utility.yul\":5620:5629   */\n      dup4\n        /* \"#utility.yul\":5616:5634   */\n      add\n        /* \"#utility.yul\":5607:5613   */\n      dup9\n        /* \"#utility.yul\":5563:5635   */\n      tag_542\n      jump\t// in\n    tag_680:\n        /* \"#utility.yul\":5645:5724   */\n      tag_681\n        /* \"#utility.yul\":5720:5722   */\n      0x40\n        /* \"#utility.yul\":5709:5718   */\n      dup4\n        /* \"#utility.yul\":5705:5723   */\n      add\n        /* \"#utility.yul\":5696:5702   */\n      dup8\n        /* \"#utility.yul\":5645:5724   */\n      tag_546\n      jump\t// in\n    tag_681:\n        /* \"#utility.yul\":5771:5780   */\n      dup2\n        /* \"#utility.yul\":5765:5769   */\n      dup2\n        /* \"#utility.yul\":5761:5781   */\n      sub\n        /* \"#utility.yul\":5756:5758   */\n      0x60\n        /* \"#utility.yul\":5745:5754   */\n      dup4\n        /* \"#utility.yul\":5741:5759   */\n      add\n        /* \"#utility.yul\":5734:5782   */\n      mstore\n        /* \"#utility.yul\":5799:5877   */\n      tag_682\n        /* \"#utility.yul\":5872:5876   */\n      dup2\n        /* \"#utility.yul\":5863:5869   */\n      dup7\n        /* \"#utility.yul\":5799:5877   */\n      tag_551\n      jump\t// in\n    tag_682:\n        /* \"#utility.yul\":5791:5877   */\n      swap1\n      pop\n        /* \"#utility.yul\":5887:5960   */\n      tag_683\n        /* \"#utility.yul\":5955:5958   */\n      0x80\n        /* \"#utility.yul\":5944:5953   */\n      dup4\n        /* \"#utility.yul\":5940:5959   */\n      add\n        /* \"#utility.yul\":5931:5937   */\n      dup6\n        /* \"#utility.yul\":5887:5960   */\n      tag_552\n      jump\t// in\n    tag_683:\n        /* \"#utility.yul\":5970:6043   */\n      tag_684\n        /* \"#utility.yul\":6038:6041   */\n      0xa0\n        /* \"#utility.yul\":6027:6036   */\n      dup4\n        /* \"#utility.yul\":6023:6042   */\n      add\n        /* \"#utility.yul\":6014:6020   */\n      dup5\n        /* \"#utility.yul\":5970:6043   */\n      tag_552\n      jump\t// in\n    tag_684:\n        /* \"#utility.yul\":5170:6050   */\n      swap8\n      swap7\n      pop\n      pop\n      pop\n      pop\n      pop\n      pop\n      pop\n      jump\t// out\n        /* \"#utility.yul\":6056:6178   */\n    tag_553:\n        /* \"#utility.yul\":6129:6153   */\n      tag_686\n        /* \"#utility.yul\":6147:6152   */\n      dup2\n        /* \"#utility.yul\":6129:6153   */\n      tag_541\n      jump\t// in\n    tag_686:\n        /* \"#utility.yul\":6122:6127   */\n      dup2\n        /* \"#utility.yul\":6119:6154   */\n      eq\n        /* \"#utility.yul\":6109:6172   */\n      tag_687\n      jumpi\n        /* \"#utility.yul\":6168:6169   */\n      0x00\n        /* \"#utility.yul\":6165:6166   */\n      dup1\n        /* \"#utility.yul\":6158:6170   */\n      revert\n        /* \"#utility.yul\":6109:6172   */\n    tag_687:\n        /* \"#utility.yul\":6056:6178   */\n      pop\n      jump\t// out\n        /* \"#utility.yul\":6184:6323   */\n    tag_554:\n        /* \"#utility.yul\":6230:6235   */\n      0x00\n        /* \"#utility.yul\":6268:6274   */\n      dup2\n        /* \"#utility.yul\":6255:6275   */\n      calldataload\n        /* \"#utility.yul\":6246:6275   */\n      swap1\n      pop\n        /* \"#utility.yul\":6284:6317   */\n      tag_689\n        /* \"#utility.yul\":6311:6316   */\n      dup2\n        /* \"#utility.yul\":6284:6317   */\n      tag_553\n      jump\t// in\n    tag_689:\n        /* \"#utility.yul\":6184:6323   */\n      swap3\n      swap2\n      pop\n      pop\n      jump\t// out\n        /* \"#utility.yul\":6329:6803   */\n    tag_46:\n        /* \"#utility.yul\":6397:6403   */\n      0x00\n        /* \"#utility.yul\":6405:6411   */\n      dup1\n        /* \"#utility.yul\":6454:6456   */\n      0x40\n        /* \"#utility.yul\":6442:6451   */\n      dup4\n        /* \"#utility.yul\":6433:6440   */\n      dup6\n        /* \"#utility.yul\":6429:6452   */\n      sub\n        /* \"#utility.yul\":6425:6457   */\n      slt\n        /* \"#utility.yul\":6422:6541   */\n      iszero\n      tag_691\n      jumpi\n        /* \"#utility.yul\":6460:6539   */\n      tag_692\n      tag_531\n      jump\t// in\n    tag_692:\n        /* \"#utility.yul\":6422:6541   */\n    tag_691:\n        /* \"#utility.yul\":6580:6581   */\n      0x00\n        /* \"#utility.yul\":6605:6658   */\n      tag_693\n        /* \"#utility.yul\":6650:6657   */\n      dup6\n        /* \"#utility.yul\":6641:6647   */\n      dup3\n        /* \"#utility.yul\":6630:6639   */\n      dup7\n        /* \"#utility.yul\":6626:6648   */\n      add\n        /* \"#utility.yul\":6605:6658   */\n      tag_554\n      jump\t// in\n    tag_693:\n        /* \"#utility.yul\":6595:6658   */\n      swap3\n      pop\n        /* \"#utility.yul\":6551:6668   */\n      pop\n        /* \"#utility.yul\":6707:6709   */\n      0x20\n        /* \"#utility.yul\":6733:6786   */\n      tag_694\n        /* \"#utility.yul\":6778:6785   */\n      dup6\n        /* \"#utility.yul\":6769:6775   */\n      dup3\n        /* \"#utility.yul\":6758:6767   */\n      dup7\n        /* \"#utility.yul\":6754:6776   */\n      add\n        /* \"#utility.yul\":6733:6786   */\n      tag_535\n      jump\t// in\n    tag_694:\n        /* \"#utility.yul\":6723:6786   */\n      swap2\n      pop\n        /* \"#utility.yul\":6678:6796   */\n      pop\n        /* \"#utility.yul\":6329:6803   */\n      swap3\n      pop\n      swap3\n      swap1\n      pop\n      jump\t// out\n        /* \"#utility.yul\":6809:7564   */\n    tag_49:\n        /* \"#utility.yul\":7034:7038   */\n      0x00\n        /* \"#utility.yul\":7072:7075   */\n      0xa0\n        /* \"#utility.yul\":7061:7070   */\n      dup3\n        /* \"#utility.yul\":7057:7076   */\n      add\n        /* \"#utility.yul\":7049:7076   */\n      swap1\n      pop\n        /* \"#utility.yul\":7086:7157   */\n      tag_696\n        /* \"#utility.yul\":7154:7155   */\n      0x00\n        /* \"#utility.yul\":7143:7152   */\n      dup4\n        /* \"#utility.yul\":7139:7156   */\n      add\n        /* \"#utility.yul\":7130:7136   */\n      dup9\n        /* \"#utility.yul\":7086:7157   */\n      tag_542\n      jump\t// in\n    tag_696:\n        /* \"#utility.yul\":7167:7239   */\n      tag_697\n        /* \"#utility.yul\":7235:7237   */\n      0x20\n        /* \"#utility.yul\":7224:7233   */\n      dup4\n        /* \"#utility.yul\":7220:7238   */\n      add\n        /* \"#utility.yul\":7211:7217   */\n      dup8\n        /* \"#utility.yul\":7167:7239   */\n      tag_552\n      jump\t// in\n    tag_697:\n        /* \"#utility.yul\":7249:7321   */\n      tag_698\n        /* \"#utility.yul\":7317:7319   */\n      0x40\n        /* \"#utility.yul\":7306:7315   */\n      dup4\n        /* \"#utility.yul\":7302:7320   */\n      add\n        /* \"#utility.yul\":7293:7299   */\n      dup7\n        /* \"#utility.yul\":7249:7321   */\n      tag_552\n      jump\t// in\n    tag_698:\n        /* \"#utility.yul\":7368:7377   */\n      dup2\n        /* \"#utility.yul\":7362:7366   */\n      dup2\n        /* \"#utility.yul\":7358:7378   */\n      sub\n        /* \"#utility.yul\":7353:7355   */\n      0x60\n        /* \"#utility.yul\":7342:7351   */\n      dup4\n        /* \"#utility.yul\":7338:7356   */\n      add\n        /* \"#utility.yul\":7331:7379   */\n      mstore\n        /* \"#utility.yul\":7396:7474   */\n      tag_699\n        /* \"#utility.yul\":7469:7473   */\n      dup2\n        /* \"#utility.yul\":7460:7466   */\n      dup6\n        /* \"#utility.yul\":7396:7474   */\n      tag_551\n      jump\t// in\n    tag_699:\n        /* \"#utility.yul\":7388:7474   */\n      swap1\n      pop\n        /* \"#utility.yul\":7484:7557   */\n      tag_700\n        /* \"#utility.yul\":7552:7555   */\n      0x80\n        /* \"#utility.yul\":7541:7550   */\n      dup4\n        /* \"#utility.yul\":7537:7556   */\n      add\n        /* \"#utility.yul\":7528:7534   */\n      dup5\n        /* \"#utility.yul\":7484:7557   */\n      tag_552\n      jump\t// in\n    tag_700:\n        /* \"#utility.yul\":6809:7564   */\n      swap7\n      swap6\n      pop\n      pop\n      pop\n      pop\n      pop\n      pop\n      jump\t// out\n        /* \"#utility.yul\":7570:7681   */\n    tag_555:\n        /* \"#utility.yul\":7649:7650   */\n      0x03\n        /* \"#utility.yul\":7642:7647   */\n      dup2\n        /* \"#utility.yul\":7639:7651   */\n      lt\n        /* \"#utility.yul\":7629:7675   */\n      tag_702\n      jumpi\n        /* \"#utility.yul\":7655:7673   */\n      tag_703\n      tag_156\n      jump\t// in\n    tag_703:\n        /* \"#utility.yul\":7629:7675   */\n    tag_702:\n        /* \"#utility.yul\":7570:7681   */\n      pop\n      jump\t// out\n        /* \"#utility.yul\":7687:7810   */\n    tag_556:\n        /* \"#utility.yul\":7730:7737   */\n      0x00\n        /* \"#utility.yul\":7759:7764   */\n      dup2\n        /* \"#utility.yul\":7748:7764   */\n      swap1\n      pop\n        /* \"#utility.yul\":7765:7804   */\n      tag_705\n        /* \"#utility.yul\":7798:7803   */\n      dup3\n        /* \"#utility.yul\":7765:7804   */\n      tag_555\n      jump\t// in\n    tag_705:\n        /* \"#utility.yul\":7687:7810   */\n      swap2\n      swap1\n      pop\n      jump\t// out\n        /* \"#utility.yul\":7816:7939   */\n    tag_557:\n        /* \"#utility.yul\":7870:7879   */\n      0x00\n        /* \"#utility.yul\":7903:7933   */\n      tag_707\n        /* \"#utility.yul\":7927:7932   */\n      dup3\n        /* \"#utility.yul\":7903:7933   */\n      tag_556\n      jump\t// in\n    tag_707:\n        /* \"#utility.yul\":7890:7933   */\n      swap1\n      pop\n        /* \"#utility.yul\":7816:7939   */\n      swap2\n      swap1\n      pop\n      jump\t// out\n        /* \"#utility.yul\":7945:8084   */\n    tag_558:\n        /* \"#utility.yul\":8036:8077   */\n      tag_709\n        /* \"#utility.yul\":8071:8076   */\n      dup2\n        /* \"#utility.yul\":8036:8077   */\n      tag_557\n      jump\t// in\n    tag_709:\n        /* \"#utility.yul\":8031:8034   */\n      dup3\n        /* \"#utility.yul\":8024:8078   */\n      mstore\n        /* \"#utility.yul\":7945:8084   */\n      pop\n      pop\n      jump\t// out\n        /* \"#utility.yul\":8090:8430   */\n    tag_72:\n        /* \"#utility.yul\":8215:8219   */\n      0x00\n        /* \"#utility.yul\":8253:8255   */\n      0x40\n        /* \"#utility.yul\":8242:8251   */\n      dup3\n        /* \"#utility.yul\":8238:8256   */\n      add\n        /* \"#utility.yul\":8230:8256   */\n      swap1\n      pop\n        /* \"#utility.yul\":8266:8337   */\n      tag_711\n        /* \"#utility.yul\":8334:8335   */\n      0x00\n        /* \"#utility.yul\":8323:8332   */\n      dup4\n        /* \"#utility.yul\":8319:8336   */\n      add\n        /* \"#utility.yul\":8310:8316   */\n      dup6\n        /* \"#utility.yul\":8266:8337   */\n      tag_542\n      jump\t// in\n    tag_711:\n        /* \"#utility.yul\":8347:8423   */\n      tag_712\n        /* \"#utility.yul\":8419:8421   */\n      0x20\n        /* \"#utility.yul\":8408:8417   */\n      dup4\n        /* \"#utility.yul\":8404:8422   */\n      add\n        /* \"#utility.yul\":8395:8401   */\n      dup5\n        /* \"#utility.yul\":8347:8423   */\n      tag_558\n      jump\t// in\n    tag_712:\n        /* \"#utility.yul\":8090:8430   */\n      swap4\n      swap3\n      pop\n      pop\n      pop\n      jump\t// out\n        /* \"#utility.yul\":8436:8541   */\n    tag_559:\n        /* \"#utility.yul\":8515:8516   */\n      0x03\n        /* \"#utility.yul\":8508:8513   */\n      dup2\n        /* \"#utility.yul\":8505:8517   */\n      lt\n        /* \"#utility.yul\":8495:8535   */\n      tag_714\n      jumpi\n        /* \"#utility.yul\":8531:8532   */\n      0x00\n        /* \"#utility.yul\":8528:8529   */\n      dup1\n        /* \"#utility.yul\":8521:8533   */\n      revert\n        /* \"#utility.yul\":8495:8535   */\n    tag_714:\n        /* \"#utility.yul\":8436:8541   */\n      pop\n      jump\t// out\n        /* \"#utility.yul\":8547:8698   */\n    tag_560:\n        /* \"#utility.yul\":8599:8604   */\n      0x00\n        /* \"#utility.yul\":8637:8643   */\n      dup2\n        /* \"#utility.yul\":8624:8644   */\n      calldataload\n        /* \"#utility.yul\":8615:8644   */\n      swap1\n      pop\n        /* \"#utility.yul\":8653:8692   */\n      tag_716\n        /* \"#utility.yul\":8686:8691   */\n      dup2\n        /* \"#utility.yul\":8653:8692   */\n      tag_559\n      jump\t// in\n    tag_716:\n        /* \"#utility.yul\":8547:8698   */\n      swap3\n      swap2\n      pop\n      pop\n      jump\t// out\n        /* \"#utility.yul\":8704:9045   */\n    tag_76:\n        /* \"#utility.yul\":8769:8775   */\n      0x00\n        /* \"#utility.yul\":8818:8820   */\n      0x20\n        /* \"#utility.yul\":8806:8815   */\n      dup3\n        /* \"#utility.yul\":8797:8804   */\n      dup5\n        /* \"#utility.yul\":8793:8816   */\n      sub\n        /* \"#utility.yul\":8789:8821   */\n      slt\n        /* \"#utility.yul\":8786:8905   */\n      iszero\n      tag_718\n      jumpi\n        /* \"#utility.yul\":8824:8903   */\n      tag_719\n      tag_531\n      jump\t// in\n    tag_719:\n        /* \"#utility.yul\":8786:8905   */\n    tag_718:\n        /* \"#utility.yul\":8944:8945   */\n      0x00\n        /* \"#utility.yul\":8969:9028   */\n      tag_720\n        /* \"#utility.yul\":9020:9027   */\n      dup5\n        /* \"#utility.yul\":9011:9017   */\n      dup3\n        /* \"#utility.yul\":9000:9009   */\n      dup6\n        /* \"#utility.yul\":8996:9018   */\n      add\n        /* \"#utility.yul\":8969:9028   */\n      tag_560\n      jump\t// in\n    tag_720:\n        /* \"#utility.yul\":8959:9028   */\n      swap2\n      pop\n        /* \"#utility.yul\":8915:9038   */\n      pop\n        /* \"#utility.yul\":8704:9045   */\n      swap3\n      swap2\n      pop\n      pop\n      jump\t// out\n        /* \"#utility.yul\":9051:9168   */\n    tag_561:\n        /* \"#utility.yul\":9160:9161   */\n      0x00\n        /* \"#utility.yul\":9157:9158   */\n      dup1\n        /* \"#utility.yul\":9150:9162   */\n      revert\n        /* \"#utility.yul\":9174:9354   */\n    tag_562:\n        /* \"#utility.yul\":9222:9299   */\n      0x4e487b7100000000000000000000000000000000000000000000000000000000\n        /* \"#utility.yul\":9219:9220   */\n      0x00\n        /* \"#utility.yul\":9212:9300   */\n      mstore\n        /* \"#utility.yul\":9319:9323   */\n      0x41\n        /* \"#utility.yul\":9316:9317   */\n      0x04\n        /* \"#utility.yul\":9309:9324   */\n      mstore\n        /* \"#utility.yul\":9343:9347   */\n      0x24\n        /* \"#utility.yul\":9340:9341   */\n      0x00\n        /* \"#utility.yul\":9333:9348   */\n      revert\n        /* \"#utility.yul\":9360:9641   */\n    tag_563:\n        /* \"#utility.yul\":9443:9470   */\n      tag_724\n        /* \"#utility.yul\":9465:9469   */\n      dup3\n        /* \"#utility.yul\":9443:9470   */\n      tag_550\n      jump\t// in\n    tag_724:\n        /* \"#utility.yul\":9435:9441   */\n      dup2\n        /* \"#utility.yul\":9431:9471   */\n      add\n        /* \"#utility.yul\":9573:9579   */\n      dup2\n        /* \"#utility.yul\":9561:9571   */\n      dup2\n        /* \"#utility.yul\":9558:9580   */\n      lt\n        /* \"#utility.yul\":9537:9555   */\n      0xffffffffffffffff\n        /* \"#utility.yul\":9525:9535   */\n      dup3\n        /* \"#utility.yul\":9522:9556   */\n      gt\n        /* \"#utility.yul\":9519:9581   */\n      or\n        /* \"#utility.yul\":9516:9604   */\n      iszero\n      tag_725\n      jumpi\n        /* \"#utility.yul\":9584:9602   */\n      tag_726\n      tag_562\n      jump\t// in\n    tag_726:\n        /* \"#utility.yul\":9516:9604   */\n    tag_725:\n        /* \"#utility.yul\":9624:9634   */\n      dup1\n        /* \"#utility.yul\":9620:9622   */\n      0x40\n        /* \"#utility.yul\":9613:9635   */\n      mstore\n        /* \"#utility.yul\":9403:9641   */\n      pop\n        /* \"#utility.yul\":9360:9641   */\n      pop\n      pop\n      jump\t// out\n        /* \"#utility.yul\":9647:9776   */\n    tag_564:\n        /* \"#utility.yul\":9681:9687   */\n      0x00\n        /* \"#utility.yul\":9708:9728   */\n      tag_728\n      tag_530\n      jump\t// in\n    tag_728:\n        /* \"#utility.yul\":9698:9728   */\n      swap1\n      pop\n        /* \"#utility.yul\":9737:9770   */\n      tag_729\n        /* \"#utility.yul\":9765:9769   */\n      dup3\n        /* \"#utility.yul\":9757:9763   */\n      dup3\n        /* \"#utility.yul\":9737:9770   */\n      tag_563\n      jump\t// in\n    tag_729:\n        /* \"#utility.yul\":9647:9776   */\n      swap2\n      swap1\n      pop\n      jump\t// out\n        /* \"#utility.yul\":9782:10090   */\n    tag_565:\n        /* \"#utility.yul\":9844:9848   */\n      0x00\n        /* \"#utility.yul\":9934:9952   */\n      0xffffffffffffffff\n        /* \"#utility.yul\":9926:9932   */\n      dup3\n        /* \"#utility.yul\":9923:9953   */\n      gt\n        /* \"#utility.yul\":9920:9976   */\n      iszero\n      tag_731\n      jumpi\n        /* \"#utility.yul\":9956:9974   */\n      tag_732\n      tag_562\n      jump\t// in\n    tag_732:\n        /* \"#utility.yul\":9920:9976   */\n    tag_731:\n        /* \"#utility.yul\":9994:10023   */\n      tag_733\n        /* \"#utility.yul\":10016:10022   */\n      dup3\n        /* \"#utility.yul\":9994:10023   */\n      tag_550\n      jump\t// in\n    tag_733:\n        /* \"#utility.yul\":9986:10023   */\n      swap1\n      pop\n        /* \"#utility.yul\":10078:10082   */\n      0x20\n        /* \"#utility.yul\":10072:10076   */\n      dup2\n        /* \"#utility.yul\":10068:10083   */\n      add\n        /* \"#utility.yul\":10060:10083   */\n      swap1\n      pop\n        /* \"#utility.yul\":9782:10090   */\n      swap2\n      swap1\n      pop\n      jump\t// out\n        /* \"#utility.yul\":10096:10242   */\n    tag_566:\n        /* \"#utility.yul\":10193:10199   */\n      dup3\n        /* \"#utility.yul\":10188:10191   */\n      dup2\n        /* \"#utility.yul\":10183:10186   */\n      dup4\n        /* \"#utility.yul\":10170:10200   */\n      calldatacopy\n        /* \"#utility.yul\":10234:10235   */\n      0x00\n        /* \"#utility.yul\":10225:10231   */\n      dup4\n        /* \"#utility.yul\":10220:10223   */\n      dup4\n        /* \"#utility.yul\":10216:10232   */\n      add\n        /* \"#utility.yul\":10209:10236   */\n      mstore\n        /* \"#utility.yul\":10096:10242   */\n      pop\n      pop\n      pop\n      jump\t// out\n        /* \"#utility.yul\":10248:10673   */\n    tag_567:\n        /* \"#utility.yul\":10326:10331   */\n      0x00\n        /* \"#utility.yul\":10351:10417   */\n      tag_736\n        /* \"#utility.yul\":10367:10416   */\n      tag_737\n        /* \"#utility.yul\":10409:10415   */\n      dup5\n        /* \"#utility.yul\":10367:10416   */\n      tag_565\n      jump\t// in\n    tag_737:\n        /* \"#utility.yul\":10351:10417   */\n      tag_564\n      jump\t// in\n    tag_736:\n        /* \"#utility.yul\":10342:10417   */\n      swap1\n      pop\n        /* \"#utility.yul\":10440:10446   */\n      dup3\n        /* \"#utility.yul\":10433:10438   */\n      dup2\n        /* \"#utility.yul\":10426:10447   */\n      mstore\n        /* \"#utility.yul\":10478:10482   */\n      0x20\n        /* \"#utility.yul\":10471:10476   */\n      dup2\n        /* \"#utility.yul\":10467:10483   */\n      add\n        /* \"#utility.yul\":10516:10519   */\n      dup5\n        /* \"#utility.yul\":10507:10513   */\n      dup5\n        /* \"#utility.yul\":10502:10505   */\n      dup5\n        /* \"#utility.yul\":10498:10514   */\n      add\n        /* \"#utility.yul\":10495:10520   */\n      gt\n        /* \"#utility.yul\":10492:10604   */\n      iszero\n      tag_738\n      jumpi\n        /* \"#utility.yul\":10523:10602   */\n      tag_739\n      tag_561\n      jump\t// in\n    tag_739:\n        /* \"#utility.yul\":10492:10604   */\n    tag_738:\n        /* \"#utility.yul\":10613:10667   */\n      tag_740\n        /* \"#utility.yul\":10660:10666   */\n      dup5\n        /* \"#utility.yul\":10655:10658   */\n      dup3\n        /* \"#utility.yul\":10650:10653   */\n      dup6\n        /* \"#utility.yul\":10613:10667   */\n      tag_566\n      jump\t// in\n    tag_740:\n        /* \"#utility.yul\":10332:10673   */\n      pop\n        /* \"#utility.yul\":10248:10673   */\n      swap4\n      swap3\n      pop\n      pop\n      pop\n      jump\t// out\n        /* \"#utility.yul\":10693:11033   */\n    tag_568:\n        /* \"#utility.yul\":10749:10754   */\n      0x00\n        /* \"#utility.yul\":10798:10801   */\n      dup3\n        /* \"#utility.yul\":10791:10795   */\n      0x1f\n        /* \"#utility.yul\":10783:10789   */\n      dup4\n        /* \"#utility.yul\":10779:10796   */\n      add\n        /* \"#utility.yul\":10775:10802   */\n      slt\n        /* \"#utility.yul\":10765:10887   */\n      tag_742\n      jumpi\n        /* \"#utility.yul\":10806:10885   */\n      tag_743\n      tag_536\n      jump\t// in\n    tag_743:\n        /* \"#utility.yul\":10765:10887   */\n    tag_742:\n        /* \"#utility.yul\":10923:10929   */\n      dup2\n        /* \"#utility.yul\":10910:10930   */\n      calldataload\n        /* \"#utility.yul\":10948:11027   */\n      tag_744\n        /* \"#utility.yul\":11023:11026   */\n      dup5\n        /* \"#utility.yul\":11015:11021   */\n      dup3\n        /* \"#utility.yul\":11008:11012   */\n      0x20\n        /* \"#utility.yul\":11000:11006   */\n      dup7\n        /* \"#utility.yul\":10996:11013   */\n      add\n        /* \"#utility.yul\":10948:11027   */\n      tag_567\n      jump\t// in\n    tag_744:\n        /* \"#utility.yul\":10939:11027   */\n      swap2\n      pop\n        /* \"#utility.yul\":10755:11033   */\n      pop\n        /* \"#utility.yul\":10693:11033   */\n      swap3\n      swap2\n      pop\n      pop\n      jump\t// out\n        /* \"#utility.yul\":11039:11548   */\n    tag_81:\n        /* \"#utility.yul\":11108:11114   */\n      0x00\n        /* \"#utility.yul\":11157:11159   */\n      0x20\n        /* \"#utility.yul\":11145:11154   */\n      dup3\n        /* \"#utility.yul\":11136:11143   */\n      dup5\n        /* \"#utility.yul\":11132:11155   */\n      sub\n        /* \"#utility.yul\":11128:11160   */\n      slt\n        /* \"#utility.yul\":11125:11244   */\n      iszero\n      tag_746\n      jumpi\n        /* \"#utility.yul\":11163:11242   */\n      tag_747\n      tag_531\n      jump\t// in\n    tag_747:\n        /* \"#utility.yul\":11125:11244   */\n    tag_746:\n        /* \"#utility.yul\":11311:11312   */\n      0x00\n        /* \"#utility.yul\":11300:11309   */\n      dup3\n        /* \"#utility.yul\":11296:11313   */\n      add\n        /* \"#utility.yul\":11283:11314   */\n      calldataload\n        /* \"#utility.yul\":11341:11359   */\n      0xffffffffffffffff\n        /* \"#utility.yul\":11333:11339   */\n      dup2\n        /* \"#utility.yul\":11330:11360   */\n      gt\n        /* \"#utility.yul\":11327:11444   */\n      iszero\n      tag_748\n      jumpi\n        /* \"#utility.yul\":11363:11442   */\n      tag_749\n      tag_532\n      jump\t// in\n    tag_749:\n        /* \"#utility.yul\":11327:11444   */\n    tag_748:\n        /* \"#utility.yul\":11468:11531   */\n      tag_750\n        /* \"#utility.yul\":11523:11530   */\n      dup5\n        /* \"#utility.yul\":11514:11520   */\n      dup3\n        /* \"#utility.yul\":11503:11512   */\n      dup6\n        /* \"#utility.yul\":11499:11521   */\n      add\n        /* \"#utility.yul\":11468:11531   */\n      tag_568\n      jump\t// in\n    tag_750:\n        /* \"#utility.yul\":11458:11531   */\n      swap2\n      pop\n        /* \"#utility.yul\":11254:11541   */\n      pop\n        /* \"#utility.yul\":11039:11548   */\n      swap3\n      swap2\n      pop\n      pop\n      jump\t// out\n        /* \"#utility.yul\":11554:11867   */\n    tag_84:\n        /* \"#utility.yul\":11667:11671   */\n      0x00\n        /* \"#utility.yul\":11705:11707   */\n      0x20\n        /* \"#utility.yul\":11694:11703   */\n      dup3\n        /* \"#utility.yul\":11690:11708   */\n      add\n        /* \"#utility.yul\":11682:11708   */\n      swap1\n      pop\n        /* \"#utility.yul\":11754:11763   */\n      dup2\n        /* \"#utility.yul\":11748:11752   */\n      dup2\n        /* \"#utility.yul\":11744:11764   */\n      sub\n        /* \"#utility.yul\":11740:11741   */\n      0x00\n        /* \"#utility.yul\":11729:11738   */\n      dup4\n        /* \"#utility.yul\":11725:11742   */\n      add\n        /* \"#utility.yul\":11718:11765   */\n      mstore\n        /* \"#utility.yul\":11782:11860   */\n      tag_752\n        /* \"#utility.yul\":11855:11859   */\n      dup2\n        /* \"#utility.yul\":11846:11852   */\n      dup5\n        /* \"#utility.yul\":11782:11860   */\n      tag_551\n      jump\t// in\n    tag_752:\n        /* \"#utility.yul\":11774:11860   */\n      swap1\n      pop\n        /* \"#utility.yul\":11554:11867   */\n      swap3\n      swap2\n      pop\n      pop\n      jump\t// out\n        /* \"#utility.yul\":11873:12492   */\n    tag_95:\n        /* \"#utility.yul\":11950:11956   */\n      0x00\n        /* \"#utility.yul\":11958:11964   */\n      dup1\n        /* \"#utility.yul\":11966:11972   */\n      0x00\n        /* \"#utility.yul\":12015:12017   */\n      0x60\n        /* \"#utility.yul\":12003:12012   */\n      dup5\n        /* \"#utility.yul\":11994:12001   */\n      dup7\n        /* \"#utility.yul\":11990:12013   */\n      sub\n        /* \"#utility.yul\":11986:12018   */\n      slt\n        /* \"#utility.yul\":11983:12102   */\n      iszero\n      tag_754\n      jumpi\n        /* \"#utility.yul\":12021:12100   */\n      tag_755\n      tag_531\n      jump\t// in\n    tag_755:\n        /* \"#utility.yul\":11983:12102   */\n    tag_754:\n        /* \"#utility.yul\":12141:12142   */\n      0x00\n        /* \"#utility.yul\":12166:12219   */\n      tag_756\n        /* \"#utility.yul\":12211:12218   */\n      dup7\n        /* \"#utility.yul\":12202:12208   */\n      dup3\n        /* \"#utility.yul\":12191:12200   */\n      dup8\n        /* \"#utility.yul\":12187:12209   */\n      add\n        /* \"#utility.yul\":12166:12219   */\n      tag_554\n      jump\t// in\n    tag_756:\n        /* \"#utility.yul\":12156:12219   */\n      swap4\n      pop\n        /* \"#utility.yul\":12112:12229   */\n      pop\n        /* \"#utility.yul\":12268:12270   */\n      0x20\n        /* \"#utility.yul\":12294:12347   */\n      tag_757\n        /* \"#utility.yul\":12339:12346   */\n      dup7\n        /* \"#utility.yul\":12330:12336   */\n      dup3\n        /* \"#utility.yul\":12319:12328   */\n      dup8\n        /* \"#utility.yul\":12315:12337   */\n      add\n        /* \"#utility.yul\":12294:12347   */\n      tag_535\n      jump\t// in\n    tag_757:\n        /* \"#utility.yul\":12284:12347   */\n      swap3\n      pop\n        /* \"#utility.yul\":12239:12357   */\n      pop\n        /* \"#utility.yul\":12396:12398   */\n      0x40\n        /* \"#utility.yul\":12422:12475   */\n      tag_758\n        /* \"#utility.yul\":12467:12474   */\n      dup7\n        /* \"#utility.yul\":12458:12464   */\n      dup3\n        /* \"#utility.yul\":12447:12456   */\n      dup8\n        /* \"#utility.yul\":12443:12465   */\n      add\n        /* \"#utility.yul\":12422:12475   */\n      tag_535\n      jump\t// in\n    tag_758:\n        /* \"#utility.yul\":12412:12475   */\n      swap2\n      pop\n        /* \"#utility.yul\":12367:12485   */\n      pop\n        /* \"#utility.yul\":11873:12492   */\n      swap3\n      pop\n      swap3\n      pop\n      swap3\n      jump\t// out\n        /* \"#utility.yul\":12498:12588   */\n    tag_569:\n        /* \"#utility.yul\":12532:12539   */\n      0x00\n        /* \"#utility.yul\":12575:12580   */\n      dup2\n        /* \"#utility.yul\":12568:12581   */\n      iszero\n        /* \"#utility.yul\":12561:12582   */\n      iszero\n        /* \"#utility.yul\":12550:12582   */\n      swap1\n      pop\n        /* \"#utility.yul\":12498:12588   */\n      swap2\n      swap1\n      pop\n      jump\t// out\n        /* \"#utility.yul\":12594:12710   */\n    tag_570:\n        /* \"#utility.yul\":12664:12685   */\n      tag_761\n        /* \"#utility.yul\":12679:12684   */\n      dup2\n        /* \"#utility.yul\":12664:12685   */\n      tag_569\n      jump\t// in\n    tag_761:\n        /* \"#utility.yul\":12657:12662   */\n      dup2\n        /* \"#utility.yul\":12654:12686   */\n      eq\n        /* \"#utility.yul\":12644:12704   */\n      tag_762\n      jumpi\n        /* \"#utility.yul\":12700:12701   */\n      0x00\n        /* \"#utility.yul\":12697:12698   */\n      dup1\n        /* \"#utility.yul\":12690:12702   */\n      revert\n        /* \"#utility.yul\":12644:12704   */\n    tag_762:\n        /* \"#utility.yul\":12594:12710   */\n      pop\n      jump\t// out\n        /* \"#utility.yul\":12716:12849   */\n    tag_571:\n        /* \"#utility.yul\":12759:12764   */\n      0x00\n        /* \"#utility.yul\":12797:12803   */\n      dup2\n        /* \"#utility.yul\":12784:12804   */\n      calldataload\n        /* \"#utility.yul\":12775:12804   */\n      swap1\n      pop\n        /* \"#utility.yul\":12813:12843   */\n      tag_764\n        /* \"#utility.yul\":12837:12842   */\n      dup2\n        /* \"#utility.yul\":12813:12843   */\n      tag_570\n      jump\t// in\n    tag_764:\n        /* \"#utility.yul\":12716:12849   */\n      swap3\n      swap2\n      pop\n      pop\n      jump\t// out\n        /* \"#utility.yul\":12855:13323   */\n    tag_100:\n        /* \"#utility.yul\":12920:12926   */\n      0x00\n        /* \"#utility.yul\":12928:12934   */\n      dup1\n        /* \"#utility.yul\":12977:12979   */\n      0x40\n        /* \"#utility.yul\":12965:12974   */\n      dup4\n        /* \"#utility.yul\":12956:12963   */\n      dup6\n        /* \"#utility.yul\":12952:12975   */\n      sub\n        /* \"#utility.yul\":12948:12980   */\n      slt\n        /* \"#utility.yul\":12945:13064   */\n      iszero\n      tag_766\n      jumpi\n        /* \"#utility.yul\":12983:13062   */\n      tag_767\n      tag_531\n      jump\t// in\n    tag_767:\n        /* \"#utility.yul\":12945:13064   */\n    tag_766:\n        /* \"#utility.yul\":13103:13104   */\n      0x00\n        /* \"#utility.yul\":13128:13178   */\n      tag_768\n        /* \"#utility.yul\":13170:13177   */\n      dup6\n        /* \"#utility.yul\":13161:13167   */\n      dup3\n        /* \"#utility.yul\":13150:13159   */\n      dup7\n        /* \"#utility.yul\":13146:13168   */\n      add\n        /* \"#utility.yul\":13128:13178   */\n      tag_571\n      jump\t// in\n    tag_768:\n        /* \"#utility.yul\":13118:13178   */\n      swap3\n      pop\n        /* \"#utility.yul\":13074:13188   */\n      pop\n        /* \"#utility.yul\":13227:13229   */\n      0x20\n        /* \"#utility.yul\":13253:13306   */\n      tag_769\n        /* \"#utility.yul\":13298:13305   */\n      dup6\n        /* \"#utility.yul\":13289:13295   */\n      dup3\n        /* \"#utility.yul\":13278:13287   */\n      dup7\n        /* \"#utility.yul\":13274:13296   */\n      add\n        /* \"#utility.yul\":13253:13306   */\n      tag_535\n      jump\t// in\n    tag_769:\n        /* \"#utility.yul\":13243:13306   */\n      swap2\n      pop\n        /* \"#utility.yul\":13198:13316   */\n      pop\n        /* \"#utility.yul\":12855:13323   */\n      swap3\n      pop\n      swap3\n      swap1\n      pop\n      jump\t// out\n        /* \"#utility.yul\":13329:13551   */\n    tag_107:\n        /* \"#utility.yul\":13422:13426   */\n      0x00\n        /* \"#utility.yul\":13460:13462   */\n      0x20\n        /* \"#utility.yul\":13449:13458   */\n      dup3\n        /* \"#utility.yul\":13445:13463   */\n      add\n        /* \"#utility.yul\":13437:13463   */\n      swap1\n      pop\n        /* \"#utility.yul\":13473:13544   */\n      tag_771\n        /* \"#utility.yul\":13541:13542   */\n      0x00\n        /* \"#utility.yul\":13530:13539   */\n      dup4\n        /* \"#utility.yul\":13526:13543   */\n      add\n        /* \"#utility.yul\":13517:13523   */\n      dup5\n        /* \"#utility.yul\":13473:13544   */\n      tag_552\n      jump\t// in\n    tag_771:\n        /* \"#utility.yul\":13329:13551   */\n      swap3\n      swap2\n      pop\n      pop\n      jump\t// out\n        /* \"#utility.yul\":13557:14668   */\n    tag_111:\n        /* \"#utility.yul\":13664:13670   */\n      0x00\n        /* \"#utility.yul\":13672:13678   */\n      dup1\n        /* \"#utility.yul\":13680:13686   */\n      0x00\n        /* \"#utility.yul\":13688:13694   */\n      dup1\n        /* \"#utility.yul\":13696:13702   */\n      0x00\n        /* \"#utility.yul\":13704:13710   */\n      dup1\n        /* \"#utility.yul\":13753:13756   */\n      0xa0\n        /* \"#utility.yul\":13741:13750   */\n      dup8\n        /* \"#utility.yul\":13732:13739   */\n      dup10\n        /* \"#utility.yul\":13728:13751   */\n      sub\n        /* \"#utility.yul\":13724:13757   */\n      slt\n        /* \"#utility.yul\":13721:13841   */\n      iszero\n      tag_773\n      jumpi\n        /* \"#utility.yul\":13760:13839   */\n      tag_774\n      tag_531\n      jump\t// in\n    tag_774:\n        /* \"#utility.yul\":13721:13841   */\n    tag_773:\n        /* \"#utility.yul\":13880:13881   */\n      0x00\n        /* \"#utility.yul\":13905:13958   */\n      tag_775\n        /* \"#utility.yul\":13950:13957   */\n      dup10\n        /* \"#utility.yul\":13941:13947   */\n      dup3\n        /* \"#utility.yul\":13930:13939   */\n      dup11\n        /* \"#utility.yul\":13926:13948   */\n      add\n        /* \"#utility.yul\":13905:13958   */\n      tag_535\n      jump\t// in\n    tag_775:\n        /* \"#utility.yul\":13895:13958   */\n      swap7\n      pop\n        /* \"#utility.yul\":13851:13968   */\n      pop\n        /* \"#utility.yul\":14007:14009   */\n      0x20\n        /* \"#utility.yul\":14033:14086   */\n      tag_776\n        /* \"#utility.yul\":14078:14085   */\n      dup10\n        /* \"#utility.yul\":14069:14075   */\n      dup3\n        /* \"#utility.yul\":14058:14067   */\n      dup11\n        /* \"#utility.yul\":14054:14076   */\n      add\n        /* \"#utility.yul\":14033:14086   */\n      tag_535\n      jump\t// in\n    tag_776:\n        /* \"#utility.yul\":14023:14086   */\n      swap6\n      pop\n        /* \"#utility.yul\":13978:14096   */\n      pop\n        /* \"#utility.yul\":14163:14165   */\n      0x40\n        /* \"#utility.yul\":14152:14161   */\n      dup8\n        /* \"#utility.yul\":14148:14166   */\n      add\n        /* \"#utility.yul\":14135:14167   */\n      calldataload\n        /* \"#utility.yul\":14194:14212   */\n      0xffffffffffffffff\n        /* \"#utility.yul\":14186:14192   */\n      dup2\n        /* \"#utility.yul\":14183:14213   */\n      gt\n        /* \"#utility.yul\":14180:14297   */\n      iszero\n      tag_777\n      jumpi\n        /* \"#utility.yul\":14216:14295   */\n      tag_778\n      tag_532\n      jump\t// in\n    tag_778:\n        /* \"#utility.yul\":14180:14297   */\n    tag_777:\n        /* \"#utility.yul\":14329:14394   */\n      tag_779\n        /* \"#utility.yul\":14386:14393   */\n      dup10\n        /* \"#utility.yul\":14377:14383   */\n      dup3\n        /* \"#utility.yul\":14366:14375   */\n      dup11\n        /* \"#utility.yul\":14362:14384   */\n      add\n        /* \"#utility.yul\":14329:14394   */\n      tag_539\n      jump\t// in\n    tag_779:\n        /* \"#utility.yul\":14311:14394   */\n      swap5\n      pop\n      swap5\n      pop\n        /* \"#utility.yul\":14106:14404   */\n      pop\n        /* \"#utility.yul\":14443:14445   */\n      0x60\n        /* \"#utility.yul\":14469:14522   */\n      tag_780\n        /* \"#utility.yul\":14514:14521   */\n      dup10\n        /* \"#utility.yul\":14505:14511   */\n      dup3\n        /* \"#utility.yul\":14494:14503   */\n      dup11\n        /* \"#utility.yul\":14490:14512   */\n      add\n        /* \"#utility.yul\":14469:14522   */\n      tag_535\n      jump\t// in\n    tag_780:\n        /* \"#utility.yul\":14459:14522   */\n      swap3\n      pop\n        /* \"#utility.yul\":14414:14532   */\n      pop\n        /* \"#utility.yul\":14571:14574   */\n      0x80\n        /* \"#utility.yul\":14598:14651   */\n      tag_781\n        /* \"#utility.yul\":14643:14650   */\n      dup10\n        /* \"#utility.yul\":14634:14640   */\n      dup3\n        /* \"#utility.yul\":14623:14632   */\n      dup11\n        /* \"#utility.yul\":14619:14641   */\n      add\n        /* \"#utility.yul\":14598:14651   */\n      tag_554\n      jump\t// in\n    tag_781:\n        /* \"#utility.yul\":14588:14651   */\n      swap2\n      pop\n        /* \"#utility.yul\":14542:14661   */\n      pop\n        /* \"#utility.yul\":13557:14668   */\n      swap3\n      swap6\n      pop\n      swap3\n      swap6\n      pop\n      swap3\n      swap6\n      jump\t// out\n        /* \"#utility.yul\":14674:14896   */\n    tag_117:\n        /* \"#utility.yul\":14767:14771   */\n      0x00\n        /* \"#utility.yul\":14805:14807   */\n      0x20\n        /* \"#utility.yul\":14794:14803   */\n      dup3\n        /* \"#utility.yul\":14790:14808   */\n      add\n        /* \"#utility.yul\":14782:14808   */\n      swap1\n      pop\n        /* \"#utility.yul\":14818:14889   */\n      tag_783\n        /* \"#utility.yul\":14886:14887   */\n      0x00\n        /* \"#utility.yul\":14875:14884   */\n      dup4\n        /* \"#utility.yul\":14871:14888   */\n      add\n        /* \"#utility.yul\":14862:14868   */\n      dup5\n        /* \"#utility.yul\":14818:14889   */\n      tag_542\n      jump\t// in\n    tag_783:\n        /* \"#utility.yul\":14674:14896   */\n      swap3\n      swap2\n      pop\n      pop\n      jump\t// out\n        /* \"#utility.yul\":14902:15847   */\n    tag_120:\n        /* \"#utility.yul\":14998:15004   */\n      0x00\n        /* \"#utility.yul\":15006:15012   */\n      dup1\n        /* \"#utility.yul\":15014:15020   */\n      0x00\n        /* \"#utility.yul\":15022:15028   */\n      dup1\n        /* \"#utility.yul\":15071:15074   */\n      0x80\n        /* \"#utility.yul\":15059:15068   */\n      dup6\n        /* \"#utility.yul\":15050:15057   */\n      dup8\n        /* \"#utility.yul\":15046:15069   */\n      sub\n        /* \"#utility.yul\":15042:15075   */\n      slt\n        /* \"#utility.yul\":15039:15159   */\n      iszero\n      tag_785\n      jumpi\n        /* \"#utility.yul\":15078:15157   */\n      tag_786\n      tag_531\n      jump\t// in\n    tag_786:\n        /* \"#utility.yul\":15039:15159   */\n    tag_785:\n        /* \"#utility.yul\":15198:15199   */\n      0x00\n        /* \"#utility.yul\":15223:15276   */\n      tag_787\n        /* \"#utility.yul\":15268:15275   */\n      dup8\n        /* \"#utility.yul\":15259:15265   */\n      dup3\n        /* \"#utility.yul\":15248:15257   */\n      dup9\n        /* \"#utility.yul\":15244:15266   */\n      add\n        /* \"#utility.yul\":15223:15276   */\n      tag_554\n      jump\t// in\n    tag_787:\n        /* \"#utility.yul\":15213:15276   */\n      swap5\n      pop\n        /* \"#utility.yul\":15169:15286   */\n      pop\n        /* \"#utility.yul\":15325:15327   */\n      0x20\n        /* \"#utility.yul\":15351:15404   */\n      tag_788\n        /* \"#utility.yul\":15396:15403   */\n      dup8\n        /* \"#utility.yul\":15387:15393   */\n      dup3\n        /* \"#utility.yul\":15376:15385   */\n      dup9\n        /* \"#utility.yul\":15372:15394   */\n      add\n        /* \"#utility.yul\":15351:15404   */\n      tag_535\n      jump\t// in\n    tag_788:\n        /* \"#utility.yul\":15341:15404   */\n      swap4\n      pop\n        /* \"#utility.yul\":15296:15414   */\n      pop\n        /* \"#utility.yul\":15453:15455   */\n      0x40\n        /* \"#utility.yul\":15479:15532   */\n      tag_789\n        /* \"#utility.yul\":15524:15531   */\n      dup8\n        /* \"#utility.yul\":15515:15521   */\n      dup3\n        /* \"#utility.yul\":15504:15513   */\n      dup9\n        /* \"#utility.yul\":15500:15522   */\n      add\n        /* \"#utility.yul\":15479:15532   */\n      tag_535\n      jump\t// in\n    tag_789:\n        /* \"#utility.yul\":15469:15532   */\n      swap3\n      pop\n        /* \"#utility.yul\":15424:15542   */\n      pop\n        /* \"#utility.yul\":15609:15611   */\n      0x60\n        /* \"#utility.yul\":15598:15607   */\n      dup6\n        /* \"#utility.yul\":15594:15612   */\n      add\n        /* \"#utility.yul\":15581:15613   */\n      calldataload\n        /* \"#utility.yul\":15640:15658   */\n      0xffffffffffffffff\n        /* \"#utility.yul\":15632:15638   */\n      dup2\n        /* \"#utility.yul\":15629:15659   */\n      gt\n        /* \"#utility.yul\":15626:15743   */\n      iszero\n      tag_790\n      jumpi\n        /* \"#utility.yul\":15662:15741   */\n      tag_791\n      tag_532\n      jump\t// in\n    tag_791:\n        /* \"#utility.yul\":15626:15743   */\n    tag_790:\n        /* \"#utility.yul\":15767:15830   */\n      tag_792\n        /* \"#utility.yul\":15822:15829   */\n      dup8\n        /* \"#utility.yul\":15813:15819   */\n      dup3\n        /* \"#utility.yul\":15802:15811   */\n      dup9\n        /* \"#utility.yul\":15798:15820   */\n      add\n        /* \"#utility.yul\":15767:15830   */\n      tag_568\n      jump\t// in\n    tag_792:\n        /* \"#utility.yul\":15757:15830   */\n      swap2\n      pop\n        /* \"#utility.yul\":15552:15840   */\n      pop\n        /* \"#utility.yul\":14902:15847   */\n      swap3\n      swap6\n      swap2\n      swap5\n      pop\n      swap3\n      pop\n      jump\t// out\n        /* \"#utility.yul\":15853:16507   */\n    tag_125:\n        /* \"#utility.yul\":15931:15937   */\n      0x00\n        /* \"#utility.yul\":15939:15945   */\n      dup1\n        /* \"#utility.yul\":15988:15990   */\n      0x40\n        /* \"#utility.yul\":15976:15985   */\n      dup4\n        /* \"#utility.yul\":15967:15974   */\n      dup6\n        /* \"#utility.yul\":15963:15986   */\n      sub\n        /* \"#utility.yul\":15959:15991   */\n      slt\n        /* \"#utility.yul\":15956:16075   */\n      iszero\n      tag_794\n      jumpi\n        /* \"#utility.yul\":15994:16073   */\n      tag_795\n      tag_531\n      jump\t// in\n    tag_795:\n        /* \"#utility.yul\":15956:16075   */\n    tag_794:\n        /* \"#utility.yul\":16142:16143   */\n      0x00\n        /* \"#utility.yul\":16131:16140   */\n      dup4\n        /* \"#utility.yul\":16127:16144   */\n      add\n        /* \"#utility.yul\":16114:16145   */\n      calldataload\n        /* \"#utility.yul\":16172:16190   */\n      0xffffffffffffffff\n        /* \"#utility.yul\":16164:16170   */\n      dup2\n        /* \"#utility.yul\":16161:16191   */\n      gt\n        /* \"#utility.yul\":16158:16275   */\n      iszero\n      tag_796\n      jumpi\n        /* \"#utility.yul\":16194:16273   */\n      tag_797\n      tag_532\n      jump\t// in\n    tag_797:\n        /* \"#utility.yul\":16158:16275   */\n    tag_796:\n        /* \"#utility.yul\":16299:16362   */\n      tag_798\n        /* \"#utility.yul\":16354:16361   */\n      dup6\n        /* \"#utility.yul\":16345:16351   */\n      dup3\n        /* \"#utility.yul\":16334:16343   */\n      dup7\n        /* \"#utility.yul\":16330:16352   */\n      add\n        /* \"#utility.yul\":16299:16362   */\n      tag_568\n      jump\t// in\n    tag_798:\n        /* \"#utility.yul\":16289:16362   */\n      swap3\n      pop\n        /* \"#utility.yul\":16085:16372   */\n      pop\n        /* \"#utility.yul\":16411:16413   */\n      0x20\n        /* \"#utility.yul\":16437:16490   */\n      tag_799\n        /* \"#utility.yul\":16482:16489   */\n      dup6\n        /* \"#utility.yul\":16473:16479   */\n      dup3\n        /* \"#utility.yul\":16462:16471   */\n      dup7\n        /* \"#utility.yul\":16458:16480   */\n      add\n        /* \"#utility.yul\":16437:16490   */\n      tag_554\n      jump\t// in\n    tag_799:\n        /* \"#utility.yul\":16427:16490   */\n      swap2\n      pop\n        /* \"#utility.yul\":16382:16500   */\n      pop\n        /* \"#utility.yul\":15853:16507   */\n      swap3\n      pop\n      swap3\n      swap1\n      pop\n      jump\t// out\n        /* \"#utility.yul\":16513:16842   */\n    tag_130:\n        /* \"#utility.yul\":16572:16578   */\n      0x00\n        /* \"#utility.yul\":16621:16623   */\n      0x20\n        /* \"#utility.yul\":16609:16618   */\n      dup3\n        /* \"#utility.yul\":16600:16607   */\n      dup5\n        /* \"#utility.yul\":16596:16619   */\n      sub\n        /* \"#utility.yul\":16592:16624   */\n      slt\n        /* \"#utility.yul\":16589:16708   */\n      iszero\n      tag_801\n      jumpi\n        /* \"#utility.yul\":16627:16706   */\n      tag_802\n      tag_531\n      jump\t// in\n    tag_802:\n        /* \"#utility.yul\":16589:16708   */\n    tag_801:\n        /* \"#utility.yul\":16747:16748   */\n      0x00\n        /* \"#utility.yul\":16772:16825   */\n      tag_803\n        /* \"#utility.yul\":16817:16824   */\n      dup5\n        /* \"#utility.yul\":16808:16814   */\n      dup3\n        /* \"#utility.yul\":16797:16806   */\n      dup6\n        /* \"#utility.yul\":16793:16815   */\n      add\n        /* \"#utility.yul\":16772:16825   */\n      tag_554\n      jump\t// in\n    tag_803:\n        /* \"#utility.yul\":16762:16825   */\n      swap2\n      pop\n        /* \"#utility.yul\":16718:16835   */\n      pop\n        /* \"#utility.yul\":16513:16842   */\n      swap3\n      swap2\n      pop\n      pop\n      jump\t// out\n        /* \"#utility.yul\":16848:17188   */\n    tag_133:\n        /* \"#utility.yul\":16973:16977   */\n      0x00\n        /* \"#utility.yul\":17011:17013   */\n      0x40\n        /* \"#utility.yul\":17000:17009   */\n      dup3\n        /* \"#utility.yul\":16996:17014   */\n      add\n        /* \"#utility.yul\":16988:17014   */\n      swap1\n      pop\n        /* \"#utility.yul\":17024:17099   */\n      tag_805\n        /* \"#utility.yul\":17096:17097   */\n      0x00\n        /* \"#utility.yul\":17085:17094   */\n      dup4\n        /* \"#utility.yul\":17081:17098   */\n      add\n        /* \"#utility.yul\":17072:17078   */\n      dup6\n        /* \"#utility.yul\":17024:17099   */\n      tag_558\n      jump\t// in\n    tag_805:\n        /* \"#utility.yul\":17109:17181   */\n      tag_806\n        /* \"#utility.yul\":17177:17179   */\n      0x20\n        /* \"#utility.yul\":17166:17175   */\n      dup4\n        /* \"#utility.yul\":17162:17180   */\n      add\n        /* \"#utility.yul\":17153:17159   */\n      dup5\n        /* \"#utility.yul\":17109:17181   */\n      tag_552\n      jump\t// in\n    tag_806:\n        /* \"#utility.yul\":16848:17188   */\n      swap4\n      swap3\n      pop\n      pop\n      pop\n      jump\t// out\n        /* \"#utility.yul\":17194:17959   */\n    tag_151:\n        /* \"#utility.yul\":17280:17286   */\n      0x00\n        /* \"#utility.yul\":17288:17294   */\n      dup1\n        /* \"#utility.yul\":17296:17302   */\n      0x00\n        /* \"#utility.yul\":17304:17310   */\n      dup1\n        /* \"#utility.yul\":17353:17356   */\n      0x80\n        /* \"#utility.yul\":17341:17350   */\n      dup6\n        /* \"#utility.yul\":17332:17339   */\n      dup8\n        /* \"#utility.yul\":17328:17351   */\n      sub\n        /* \"#utility.yul\":17324:17357   */\n      slt\n        /* \"#utility.yul\":17321:17441   */\n      iszero\n      tag_808\n      jumpi\n        /* \"#utility.yul\":17360:17439   */\n      tag_809\n      tag_531\n      jump\t// in\n    tag_809:\n        /* \"#utility.yul\":17321:17441   */\n    tag_808:\n        /* \"#utility.yul\":17480:17481   */\n      0x00\n        /* \"#utility.yul\":17505:17558   */\n      tag_810\n        /* \"#utility.yul\":17550:17557   */\n      dup8\n        /* \"#utility.yul\":17541:17547   */\n      dup3\n        /* \"#utility.yul\":17530:17539   */\n      dup9\n        /* \"#utility.yul\":17526:17548   */\n      add\n        /* \"#utility.yul\":17505:17558   */\n      tag_554\n      jump\t// in\n    tag_810:\n        /* \"#utility.yul\":17495:17558   */\n      swap5\n      pop\n        /* \"#utility.yul\":17451:17568   */\n      pop\n        /* \"#utility.yul\":17607:17609   */\n      0x20\n        /* \"#utility.yul\":17633:17686   */\n      tag_811\n        /* \"#utility.yul\":17678:17685   */\n      dup8\n        /* \"#utility.yul\":17669:17675   */\n      dup3\n        /* \"#utility.yul\":17658:17667   */\n      dup9\n        /* \"#utility.yul\":17654:17676   */\n      add\n        /* \"#utility.yul\":17633:17686   */\n      tag_535\n      jump\t// in\n    tag_811:\n        /* \"#utility.yul\":17623:17686   */\n      swap4\n      pop\n        /* \"#utility.yul\":17578:17696   */\n      pop\n        /* \"#utility.yul\":17735:17737   */\n      0x40\n        /* \"#utility.yul\":17761:17814   */\n      tag_812\n        /* \"#utility.yul\":17806:17813   */\n      dup8\n        /* \"#utility.yul\":17797:17803   */\n      dup3\n        /* \"#utility.yul\":17786:17795   */\n      dup9\n        /* \"#utility.yul\":17782:17804   */\n      add\n        /* \"#utility.yul\":17761:17814   */\n      tag_535\n      jump\t// in\n    tag_812:\n        /* \"#utility.yul\":17751:17814   */\n      swap3\n      pop\n        /* \"#utility.yul\":17706:17824   */\n      pop\n        /* \"#utility.yul\":17863:17865   */\n      0x60\n        /* \"#utility.yul\":17889:17942   */\n      tag_813\n        /* \"#utility.yul\":17934:17941   */\n      dup8\n        /* \"#utility.yul\":17925:17931   */\n      dup3\n        /* \"#utility.yul\":17914:17923   */\n      dup9\n        /* \"#utility.yul\":17910:17932   */\n      add\n        /* \"#utility.yul\":17889:17942   */\n      tag_554\n      jump\t// in\n    tag_813:\n        /* \"#utility.yul\":17879:17942   */\n      swap2\n      pop\n        /* \"#utility.yul\":17834:17952   */\n      pop\n        /* \"#utility.yul\":17194:17959   */\n      swap3\n      swap6\n      swap2\n      swap5\n      pop\n      swap3\n      pop\n      jump\t// out\n        /* \"#utility.yul\":17965:18188   */\n    tag_572:\n        /* \"#utility.yul\":18105:18139   */\n      0x596f757220726f6c6520646f6573206e6f7420616c6c6f772074686973206368\n        /* \"#utility.yul\":18101:18102   */\n      0x00\n        /* \"#utility.yul\":18093:18099   */\n      dup3\n        /* \"#utility.yul\":18089:18103   */\n      add\n        /* \"#utility.yul\":18082:18140   */\n      mstore\n        /* \"#utility.yul\":18174:18180   */\n      0x616e676500000000000000000000000000000000000000000000000000000000\n        /* \"#utility.yul\":18169:18171   */\n      0x20\n        /* \"#utility.yul\":18161:18167   */\n      dup3\n        /* \"#utility.yul\":18157:18172   */\n      add\n        /* \"#utility.yul\":18150:18181   */\n      mstore\n        /* \"#utility.yul\":17965:18188   */\n      pop\n      jump\t// out\n        /* \"#utility.yul\":18194:18560   */\n    tag_573:\n        /* \"#utility.yul\":18336:18339   */\n      0x00\n        /* \"#utility.yul\":18357:18424   */\n      tag_816\n        /* \"#utility.yul\":18421:18423   */\n      0x24\n        /* \"#utility.yul\":18416:18419   */\n      dup4\n        /* \"#utility.yul\":18357:18424   */\n      tag_548\n      jump\t// in\n    tag_816:\n        /* \"#utility.yul\":18350:18424   */\n      swap2\n      pop\n        /* \"#utility.yul\":18433:18526   */\n      tag_817\n        /* \"#utility.yul\":18522:18525   */\n      dup3\n        /* \"#utility.yul\":18433:18526   */\n      tag_572\n      jump\t// in\n    tag_817:\n        /* \"#utility.yul\":18551:18553   */\n      0x40\n        /* \"#utility.yul\":18546:18549   */\n      dup3\n        /* \"#utility.yul\":18542:18554   */\n      add\n        /* \"#utility.yul\":18535:18554   */\n      swap1\n      pop\n        /* \"#utility.yul\":18194:18560   */\n      swap2\n      swap1\n      pop\n      jump\t// out\n        /* \"#utility.yul\":18566:18985   */\n    tag_161:\n        /* \"#utility.yul\":18732:18736   */\n      0x00\n        /* \"#utility.yul\":18770:18772   */\n      0x20\n        /* \"#utility.yul\":18759:18768   */\n      dup3\n        /* \"#utility.yul\":18755:18773   */\n      add\n        /* \"#utility.yul\":18747:18773   */\n      swap1\n      pop\n        /* \"#utility.yul\":18819:18828   */\n      dup2\n        /* \"#utility.yul\":18813:18817   */\n      dup2\n        /* \"#utility.yul\":18809:18829   */\n      sub\n        /* \"#utility.yul\":18805:18806   */\n      0x00\n        /* \"#utility.yul\":18794:18803   */\n      dup4\n        /* \"#utility.yul\":18790:18807   */\n      add\n        /* \"#utility.yul\":18783:18830   */\n      mstore\n        /* \"#utility.yul\":18847:18978   */\n      tag_819\n        /* \"#utility.yul\":18973:18977   */\n      dup2\n        /* \"#utility.yul\":18847:18978   */\n      tag_573\n      jump\t// in\n    tag_819:\n        /* \"#utility.yul\":18839:18978   */\n      swap1\n      pop\n        /* \"#utility.yul\":18566:18985   */\n      swap2\n      swap1\n      pop\n      jump\t// out\n        /* \"#utility.yul\":18991:19212   */\n    tag_574:\n        /* \"#utility.yul\":19131:19165   */\n      0x5468652073686f7020646f6573206e6f74206d61746368207468652073656e64\n        /* \"#utility.yul\":19127:19128   */\n      0x00\n        /* \"#utility.yul\":19119:19125   */\n      dup3\n        /* \"#utility.yul\":19115:19129   */\n      add\n        /* \"#utility.yul\":19108:19166   */\n      mstore\n        /* \"#utility.yul\":19200:19204   */\n      0x6572000000000000000000000000000000000000000000000000000000000000\n        /* \"#utility.yul\":19195:19197   */\n      0x20\n        /* \"#utility.yul\":19187:19193   */\n      dup3\n        /* \"#utility.yul\":19183:19198   */\n      add\n        /* \"#utility.yul\":19176:19205   */\n      mstore\n        /* \"#utility.yul\":18991:19212   */\n      pop\n      jump\t// out\n        /* \"#utility.yul\":19218:19584   */\n    tag_575:\n        /* \"#utility.yul\":19360:19363   */\n      0x00\n        /* \"#utility.yul\":19381:19448   */\n      tag_822\n        /* \"#utility.yul\":19445:19447   */\n      0x22\n        /* \"#utility.yul\":19440:19443   */\n      dup4\n        /* \"#utility.yul\":19381:19448   */\n      tag_548\n      jump\t// in\n    tag_822:\n        /* \"#utility.yul\":19374:19448   */\n      swap2\n      pop\n        /* \"#utility.yul\":19457:19550   */\n      tag_823\n        /* \"#utility.yul\":19546:19549   */\n      dup3\n        /* \"#utility.yul\":19457:19550   */\n      tag_574\n      jump\t// in\n    tag_823:\n        /* \"#utility.yul\":19575:19577   */\n      0x40\n        /* \"#utility.yul\":19570:19573   */\n      dup3\n        /* \"#utility.yul\":19566:19578   */\n      add\n        /* \"#utility.yul\":19559:19578   */\n      swap1\n      pop\n        /* \"#utility.yul\":19218:19584   */\n      swap2\n      swap1\n      pop\n      jump\t// out\n        /* \"#utility.yul\":19590:20009   */\n    tag_164:\n        /* \"#utility.yul\":19756:19760   */\n      0x00\n        /* \"#utility.yul\":19794:19796   */\n      0x20\n        /* \"#utility.yul\":19783:19792   */\n      dup3\n        /* \"#utility.yul\":19779:19797   */\n      add\n        /* \"#utility.yul\":19771:19797   */\n      swap1\n      pop\n        /* \"#utility.yul\":19843:19852   */\n      dup2\n        /* \"#utility.yul\":19837:19841   */\n      dup2\n        /* \"#utility.yul\":19833:19853   */\n      sub\n        /* \"#utility.yul\":19829:19830   */\n      0x00\n        /* \"#utility.yul\":19818:19827   */\n      dup4\n        /* \"#utility.yul\":19814:19831   */\n      add\n        /* \"#utility.yul\":19807:19854   */\n      mstore\n        /* \"#utility.yul\":19871:20002   */\n      tag_825\n        /* \"#utility.yul\":19997:20001   */\n      dup2\n        /* \"#utility.yul\":19871:20002   */\n      tag_575\n      jump\t// in\n    tag_825:\n        /* \"#utility.yul\":19863:20002   */\n      swap1\n      pop\n        /* \"#utility.yul\":19590:20009   */\n      swap2\n      swap1\n      pop\n      jump\t// out\n        /* \"#utility.yul\":20015:20195   */\n    tag_576:\n        /* \"#utility.yul\":20063:20140   */\n      0x4e487b7100000000000000000000000000000000000000000000000000000000\n        /* \"#utility.yul\":20060:20061   */\n      0x00\n        /* \"#utility.yul\":20053:20141   */\n      mstore\n        /* \"#utility.yul\":20160:20164   */\n      0x22\n        /* \"#utility.yul\":20157:20158   */\n      0x04\n        /* \"#utility.yul\":20150:20165   */\n      mstore\n        /* \"#utility.yul\":20184:20188   */\n      0x24\n        /* \"#utility.yul\":20181:20182   */\n      0x00\n        /* \"#utility.yul\":20174:20189   */\n      revert\n        /* \"#utility.yul\":20201:20521   */\n    tag_172:\n        /* \"#utility.yul\":20245:20251   */\n      0x00\n        /* \"#utility.yul\":20282:20283   */\n      0x02\n        /* \"#utility.yul\":20276:20280   */\n      dup3\n        /* \"#utility.yul\":20272:20284   */\n      div\n        /* \"#utility.yul\":20262:20284   */\n      swap1\n      pop\n        /* \"#utility.yul\":20329:20330   */\n      0x01\n        /* \"#utility.yul\":20323:20327   */\n      dup3\n        /* \"#utility.yul\":20319:20331   */\n      and\n        /* \"#utility.yul\":20350:20368   */\n      dup1\n        /* \"#utility.yul\":20340:20421   */\n      tag_828\n      jumpi\n        /* \"#utility.yul\":20406:20410   */\n      0x7f\n        /* \"#utility.yul\":20398:20404   */\n      dup3\n        /* \"#utility.yul\":20394:20411   */\n      and\n        /* \"#utility.yul\":20384:20411   */\n      swap2\n      pop\n        /* \"#utility.yul\":20340:20421   */\n    tag_828:\n        /* \"#utility.yul\":20468:20470   */\n      0x20\n        /* \"#utility.yul\":20460:20466   */\n      dup3\n        /* \"#utility.yul\":20457:20471   */\n      lt\n        /* \"#utility.yul\":20437:20455   */\n      dup2\n        /* \"#utility.yul\":20434:20472   */\n      sub\n        /* \"#utility.yul\":20431:20515   */\n      tag_829\n      jumpi\n        /* \"#utility.yul\":20487:20505   */\n      tag_830\n      tag_576\n      jump\t// in\n    tag_830:\n        /* \"#utility.yul\":20431:20515   */\n    tag_829:\n        /* \"#utility.yul\":20252:20521   */\n      pop\n        /* \"#utility.yul\":20201:20521   */\n      swap2\n      swap1\n      pop\n      jump\t// out\n        /* \"#utility.yul\":20527:20668   */\n    tag_577:\n        /* \"#utility.yul\":20576:20580   */\n      0x00\n        /* \"#utility.yul\":20599:20602   */\n      dup2\n        /* \"#utility.yul\":20591:20602   */\n      swap1\n      pop\n        /* \"#utility.yul\":20622:20625   */\n      dup2\n        /* \"#utility.yul\":20619:20620   */\n      0x00\n        /* \"#utility.yul\":20612:20626   */\n      mstore\n        /* \"#utility.yul\":20656:20660   */\n      0x20\n        /* \"#utility.yul\":20653:20654   */\n      0x00\n        /* \"#utility.yul\":20643:20661   */\n      keccak256\n        /* \"#utility.yul\":20635:20661   */\n      swap1\n      pop\n        /* \"#utility.yul\":20527:20668   */\n      swap2\n      swap1\n      pop\n      jump\t// out\n        /* \"#utility.yul\":20674:20767   */\n    tag_578:\n        /* \"#utility.yul\":20711:20717   */\n      0x00\n        /* \"#utility.yul\":20758:20760   */\n      0x20\n        /* \"#utility.yul\":20753:20755   */\n      0x1f\n        /* \"#utility.yul\":20746:20751   */\n      dup4\n        /* \"#utility.yul\":20742:20756   */\n      add\n        /* \"#utility.yul\":20738:20761   */\n      div\n        /* \"#utility.yul\":20728:20761   */\n      swap1\n      pop\n        /* \"#utility.yul\":20674:20767   */\n      swap2\n      swap1\n      pop\n      jump\t// out\n        /* \"#utility.yul\":20773:20880   */\n    tag_579:\n        /* \"#utility.yul\":20817:20825   */\n      0x00\n        /* \"#utility.yul\":20867:20872   */\n      dup3\n        /* \"#utility.yul\":20861:20865   */\n      dup3\n        /* \"#utility.yul\":20857:20873   */\n      shl\n        /* \"#utility.yul\":20836:20873   */\n      swap1\n      pop\n        /* \"#utility.yul\":20773:20880   */\n      swap3\n      swap2\n      pop\n      pop\n      jump\t// out\n        /* \"#utility.yul\":20886:21279   */\n    tag_580:\n        /* \"#utility.yul\":20955:20961   */\n      0x00\n        /* \"#utility.yul\":21005:21006   */\n      0x08\n        /* \"#utility.yul\":20993:21003   */\n      dup4\n        /* \"#utility.yul\":20989:21007   */\n      mul\n        /* \"#utility.yul\":21028:21125   */\n      tag_835\n        /* \"#utility.yul\":21058:21124   */\n      0xffffffffffffffffffffffffffffffffffffffffffffffffffffffffffffffff\n        /* \"#utility.yul\":21047:21056   */\n      dup3\n        /* \"#utility.yul\":21028:21125   */\n      tag_579\n      jump\t// in\n    tag_835:\n        /* \"#utility.yul\":21146:21185   */\n      tag_836\n        /* \"#utility.yul\":21176:21184   */\n      dup7\n        /* \"#utility.yul\":21165:21174   */\n      dup4\n        /* \"#utility.yul\":21146:21185   */\n      tag_579\n      jump\t// in\n    tag_836:\n        /* \"#utility.yul\":21134:21185   */\n      swap6\n      pop\n        /* \"#utility.yul\":21218:21222   */\n      dup1\n        /* \"#utility.yul\":21214:21223   */\n      not\n        /* \"#utility.yul\":21207:21212   */\n      dup5\n        /* \"#utility.yul\":21203:21224   */\n      and\n        /* \"#utility.yul\":21194:21224   */\n      swap4\n      pop\n        /* \"#utility.yul\":21267:21271   */\n      dup1\n        /* \"#utility.yul\":21257:21265   */\n      dup7\n        /* \"#utility.yul\":21253:21272   */\n      and\n        /* \"#utility.yul\":21246:21251   */\n      dup5\n        /* \"#utility.yul\":21243:21273   */\n      or\n        /* \"#utility.yul\":21233:21273   */\n      swap3\n      pop\n        /* \"#utility.yul\":20962:21279   */\n      pop\n      pop\n        /* \"#utility.yul\":20886:21279   */\n      swap4\n      swap3\n      pop\n      pop\n      pop\n      jump\t// out\n        /* \"#utility.yul\":21285:21345   */\n    tag_581:\n        /* \"#utility.yul\":21313:21316   */\n      0x00\n        /* \"#utility.yul\":21334:21339   */\n      dup2\n        /* \"#utility.yul\":21327:21339   */\n      swap1\n      pop\n        /* \"#utility.yul\":21285:21345   */\n      swap2\n      swap1\n      pop\n      jump\t// out\n        /* \"#utility.yul\":21351:21493   */\n    tag_582:\n        /* \"#utility.yul\":21401:21410   */\n      0x00\n        /* \"#utility.yul\":21434:21487   */\n      tag_839\n        /* \"#utility.yul\":21452:21486   */\n      tag_840\n        /* \"#utility.yul\":21461:21485   */\n      tag_841\n        /* \"#utility.yul\":21479:21484   */\n      dup5\n        /* \"#utility.yul\":21461:21485   */\n      tag_533\n      jump\t// in\n    tag_841:\n        /* \"#utility.yul\":21452:21486   */\n      tag_581\n      jump\t// in\n    tag_840:\n        /* \"#utility.yul\":21434:21487   */\n      tag_533\n      jump\t// in\n    tag_839:\n        /* \"#utility.yul\":21421:21487   */\n      swap1\n      pop\n        /* \"#utility.yul\":21351:21493   */\n      swap2\n      swap1\n      pop\n      jump\t// out\n        /* \"#utility.yul\":21499:21574   */\n    tag_583:\n        /* \"#utility.yul\":21542:21545   */\n      0x00\n        /* \"#utility.yul\":21563:21568   */\n      dup2\n        /* \"#utility.yul\":21556:21568   */\n      swap1\n      pop\n        /* \"#utility.yul\":21499:21574   */\n      swap2\n      swap1\n      pop\n      jump\t// out\n        /* \"#utility.yul\":21580:21849   */\n    tag_584:\n        /* \"#utility.yul\":21690:21729   */\n      tag_844\n        /* \"#utility.yul\":21721:21728   */\n      dup4\n        /* \"#utility.yul\":21690:21729   */\n      tag_582\n      jump\t// in\n    tag_844:\n        /* \"#utility.yul\":21751:21842   */\n      tag_845\n        /* \"#utility.yul\":21800:21841   */\n      tag_846\n        /* \"#utility.yul\":21824:21840   */\n      dup3\n        /* \"#utility.yul\":21800:21841   */\n      tag_583\n      jump\t// in\n    tag_846:\n        /* \"#utility.yul\":21792:21798   */\n      dup5\n        /* \"#utility.yul\":21785:21789   */\n      dup5\n        /* \"#utility.yul\":21779:21790   */\n      sload\n        /* \"#utility.yul\":21751:21842   */\n      tag_580\n      jump\t// in\n    tag_845:\n        /* \"#utility.yul\":21745:21749   */\n      dup3\n        /* \"#utility.yul\":21738:21843   */\n      sstore\n        /* \"#utility.yul\":21656:21849   */\n      pop\n        /* \"#utility.yul\":21580:21849   */\n      pop\n      pop\n      pop\n      jump\t// out\n        /* \"#utility.yul\":21855:21928   */\n    tag_585:\n        /* \"#utility.yul\":21900:21903   */\n      0x00\n        /* \"#utility.yul\":21855:21928   */\n      swap1\n      jump\t// out\n        /* \"#utility.yul\":21934:22123   */\n    tag_586:\n        /* \"#utility.yul\":22011:22043   */\n      tag_849\n      tag_585\n      jump\t// in\n    tag_849:\n        /* \"#utility.yul\":22052:22117   */\n      tag_850\n        /* \"#utility.yul\":22110:22116   */\n      dup2\n        /* \"#utility.yul\":22102:22108   */\n      dup5\n        /* \"#utility.yul\":22096:22100   */\n      dup5\n        /* \"#utility.yul\":22052:22117   */\n      tag_584\n      jump\t// in\n    tag_850:\n        /* \"#utility.yul\":21987:22123   */\n      pop\n        /* \"#utility.yul\":21934:22123   */\n      pop\n      pop\n      jump\t// out\n        /* \"#utility.yul\":22129:22315   */\n    tag_587:\n        /* \"#utility.yul\":22189:22309   */\n    tag_852:\n        /* \"#utility.yul\":22206:22209   */\n      dup2\n        /* \"#utility.yul\":22199:22204   */\n      dup2\n        /* \"#utility.yul\":22196:22210   */\n      lt\n        /* \"#utility.yul\":22189:22309   */\n      iszero\n      tag_854\n      jumpi\n        /* \"#utility.yul\":22260:22299   */\n      tag_855\n        /* \"#utility.yul\":22297:22298   */\n      0x00\n        /* \"#utility.yul\":22290:22295   */\n      dup3\n        /* \"#utility.yul\":22260:22299   */\n      tag_586\n      jump\t// in\n    tag_855:\n        /* \"#utility.yul\":22233:22234   */\n      0x01\n        /* \"#utility.yul\":22226:22231   */\n      dup2\n        /* \"#utility.yul\":22222:22235   */\n      add\n        /* \"#utility.yul\":22213:22235   */\n      swap1\n      pop\n        /* \"#utility.yul\":22189:22309   */\n      jump(tag_852)\n    tag_854:\n        /* \"#utility.yul\":22129:22315   */\n      pop\n      pop\n      jump\t// out\n        /* \"#utility.yul\":22321:22864   */\n    tag_588:\n        /* \"#utility.yul\":22422:22424   */\n      0x1f\n        /* \"#utility.yul\":22417:22420   */\n      dup3\n        /* \"#utility.yul\":22414:22425   */\n      gt\n        /* \"#utility.yul\":22411:22857   */\n      iszero\n      tag_857\n      jumpi\n        /* \"#utility.yul\":22456:22494   */\n      tag_858\n        /* \"#utility.yul\":22488:22493   */\n      dup2\n        /* \"#utility.yul\":22456:22494   */\n      tag_577\n      jump\t// in\n    tag_858:\n        /* \"#utility.yul\":22540:22569   */\n      tag_859\n        /* \"#utility.yul\":22558:22568   */\n      dup5\n        /* \"#utility.yul\":22540:22569   */\n      tag_578\n      jump\t// in\n    tag_859:\n        /* \"#utility.yul\":22530:22538   */\n      dup2\n        /* \"#utility.yul\":22526:22570   */\n      add\n        /* \"#utility.yul\":22723:22725   */\n      0x20\n        /* \"#utility.yul\":22711:22721   */\n      dup6\n        /* \"#utility.yul\":22708:22726   */\n      lt\n        /* \"#utility.yul\":22705:22754   */\n      iszero\n      tag_860\n      jumpi\n        /* \"#utility.yul\":22744:22752   */\n      dup2\n        /* \"#utility.yul\":22729:22752   */\n      swap1\n      pop\n        /* \"#utility.yul\":22705:22754   */\n    tag_860:\n        /* \"#utility.yul\":22767:22847   */\n      tag_861\n        /* \"#utility.yul\":22823:22845   */\n      tag_862\n        /* \"#utility.yul\":22841:22844   */\n      dup6\n        /* \"#utility.yul\":22823:22845   */\n      tag_578\n      jump\t// in\n    tag_862:\n        /* \"#utility.yul\":22813:22821   */\n      dup4\n        /* \"#utility.yul\":22809:22846   */\n      add\n        /* \"#utility.yul\":22796:22807   */\n      dup3\n        /* \"#utility.yul\":22767:22847   */\n      tag_587\n      jump\t// in\n    tag_861:\n        /* \"#utility.yul\":22426:22857   */\n      pop\n      pop\n        /* \"#utility.yul\":22411:22857   */\n    tag_857:\n        /* \"#utility.yul\":22321:22864   */\n      pop\n      pop\n      pop\n      jump\t// out\n        /* \"#utility.yul\":22870:22987   */\n    tag_589:\n        /* \"#utility.yul\":22924:22932   */\n      0x00\n        /* \"#utility.yul\":22974:22979   */\n      dup3\n        /* \"#utility.yul\":22968:22972   */\n      dup3\n        /* \"#utility.yul\":22964:22980   */\n      shr\n        /* \"#utility.yul\":22943:22980   */\n      swap1\n      pop\n        /* \"#utility.yul\":22870:22987   */\n      swap3\n      swap2\n      pop\n      pop\n      jump\t// out\n        /* \"#utility.yul\":22993:23162   */\n    tag_590:\n        /* \"#utility.yul\":23037:23043   */\n      0x00\n        /* \"#utility.yul\":23070:23121   */\n      tag_865\n        /* \"#utility.yul\":23118:23119   */\n      0x00\n        /* \"#utility.yul\":23114:23120   */\n      not\n        /* \"#utility.yul\":23106:23111   */\n      dup5\n        /* \"#utility.yul\":23103:23104   */\n      0x08\n        /* \"#utility.yul\":23099:23112   */\n      mul\n        /* \"#utility.yul\":23070:23121   */\n      tag_589\n      jump\t// in\n    tag_865:\n        /* \"#utility.yul\":23066:23122   */\n      not\n        /* \"#utility.yul\":23151:23155   */\n      dup1\n        /* \"#utility.yul\":23145:23149   */\n      dup4\n        /* \"#utility.yul\":23141:23156   */\n      and\n        /* \"#utility.yul\":23131:23156   */\n      swap2\n      pop\n        /* \"#utility.yul\":23044:23162   */\n      pop\n        /* \"#utility.yul\":22993:23162   */\n      swap3\n      swap2\n      pop\n      pop\n      jump\t// out\n        /* \"#utility.yul\":23167:23462   */\n    tag_591:\n        /* \"#utility.yul\":23243:23247   */\n      0x00\n        /* \"#utility.yul\":23389:23418   */\n      tag_867\n        /* \"#utility.yul\":23414:23417   */\n      dup4\n        /* \"#utility.yul\":23408:23412   */\n      dup4\n        /* \"#utility.yul\":23389:23418   */\n      tag_590\n      jump\t// in\n    tag_867:\n        /* \"#utility.yul\":23381:23418   */\n      swap2\n      pop\n        /* \"#utility.yul\":23451:23454   */\n      dup3\n        /* \"#utility.yul\":23448:23449   */\n      0x02\n        /* \"#utility.yul\":23444:23455   */\n      mul\n        /* \"#utility.yul\":23438:23442   */\n      dup3\n        /* \"#utility.yul\":23435:23456   */\n      or\n        /* \"#utility.yul\":23427:23456   */\n      swap1\n      pop\n        /* \"#utility.yul\":23167:23462   */\n      swap3\n      swap2\n      pop\n      pop\n      jump\t// out\n        /* \"#utility.yul\":23467:24862   */\n    tag_168:\n        /* \"#utility.yul\":23584:23621   */\n      tag_869\n        /* \"#utility.yul\":23617:23620   */\n      dup3\n        /* \"#utility.yul\":23584:23621   */\n      tag_547\n      jump\t// in\n    tag_869:\n        /* \"#utility.yul\":23686:23704   */\n      0xffffffffffffffff\n        /* \"#utility.yul\":23678:23684   */\n      dup2\n        /* \"#utility.yul\":23675:23705   */\n      gt\n        /* \"#utility.yul\":23672:23728   */\n      iszero\n      tag_870\n      jumpi\n        /* \"#utility.yul\":23708:23726   */\n      tag_871\n      tag_562\n      jump\t// in\n    tag_871:\n        /* \"#utility.yul\":23672:23728   */\n    tag_870:\n        /* \"#utility.yul\":23752:23790   */\n      tag_872\n        /* \"#utility.yul\":23784:23788   */\n      dup3\n        /* \"#utility.yul\":23778:23789   */\n      sload\n        /* \"#utility.yul\":23752:23790   */\n      tag_172\n      jump\t// in\n    tag_872:\n        /* \"#utility.yul\":23837:23904   */\n      tag_873\n        /* \"#utility.yul\":23897:23903   */\n      dup3\n        /* \"#utility.yul\":23889:23895   */\n      dup3\n        /* \"#utility.yul\":23883:23887   */\n      dup6\n        /* \"#utility.yul\":23837:23904   */\n      tag_588\n      jump\t// in\n    tag_873:\n        /* \"#utility.yul\":23931:23932   */\n      0x00\n        /* \"#utility.yul\":23955:23959   */\n      0x20\n        /* \"#utility.yul\":23942:23959   */\n      swap1\n      pop\n        /* \"#utility.yul\":23987:23989   */\n      0x1f\n        /* \"#utility.yul\":23979:23985   */\n      dup4\n        /* \"#utility.yul\":23976:23990   */\n      gt\n        /* \"#utility.yul\":24004:24005   */\n      0x01\n        /* \"#utility.yul\":23999:24617   */\n      dup2\n      eq\n      tag_875\n      jumpi\n        /* \"#utility.yul\":24661:24662   */\n      0x00\n        /* \"#utility.yul\":24678:24684   */\n      dup5\n        /* \"#utility.yul\":24675:24752   */\n      iszero\n      tag_876\n      jumpi\n        /* \"#utility.yul\":24727:24736   */\n      dup3\n        /* \"#utility.yul\":24722:24725   */\n      dup8\n        /* \"#utility.yul\":24718:24737   */\n      add\n        /* \"#utility.yul\":24712:24738   */\n      mload\n        /* \"#utility.yul\":24703:24738   */\n      swap1\n      pop\n        /* \"#utility.yul\":24675:24752   */\n    tag_876:\n        /* \"#utility.yul\":24778:24845   */\n      tag_877\n        /* \"#utility.yul\":24838:24844   */\n      dup6\n        /* \"#utility.yul\":24831:24836   */\n      dup3\n        /* \"#utility.yul\":24778:24845   */\n      tag_591\n      jump\t// in\n    tag_877:\n        /* \"#utility.yul\":24772:24776   */\n      dup7\n        /* \"#utility.yul\":24765:24846   */\n      sstore\n        /* \"#utility.yul\":24634:24856   */\n      pop\n        /* \"#utility.yul\":23969:24856   */\n      jump(tag_874)\n        /* \"#utility.yul\":23999:24617   */\n    tag_875:\n        /* \"#utility.yul\":24051:24055   */\n      0x1f\n        /* \"#utility.yul\":24047:24056   */\n      not\n        /* \"#utility.yul\":24039:24045   */\n      dup5\n        /* \"#utility.yul\":24035:24057   */\n      and\n        /* \"#utility.yul\":24085:24122   */\n      tag_878\n        /* \"#utility.yul\":24117:24121   */\n      dup7\n        /* \"#utility.yul\":24085:24122   */\n      tag_577\n      jump\t// in\n    tag_878:\n        /* \"#utility.yul\":24144:24145   */\n      0x00\n        /* \"#utility.yul\":24158:24366   */\n    tag_879:\n        /* \"#utility.yul\":24172:24179   */\n      dup3\n        /* \"#utility.yul\":24169:24170   */\n      dup2\n        /* \"#utility.yul\":24166:24180   */\n      lt\n        /* \"#utility.yul\":24158:24366   */\n      iszero\n      tag_881\n      jumpi\n        /* \"#utility.yul\":24251:24260   */\n      dup5\n        /* \"#utility.yul\":24246:24249   */\n      dup10\n        /* \"#utility.yul\":24242:24261   */\n      add\n        /* \"#utility.yul\":24236:24262   */\n      mload\n        /* \"#utility.yul\":24228:24234   */\n      dup3\n        /* \"#utility.yul\":24221:24263   */\n      sstore\n        /* \"#utility.yul\":24302:24303   */\n      0x01\n        /* \"#utility.yul\":24294:24300   */\n      dup3\n        /* \"#utility.yul\":24290:24304   */\n      add\n        /* \"#utility.yul\":24280:24304   */\n      swap2\n      pop\n        /* \"#utility.yul\":24349:24351   */\n      0x20\n        /* \"#utility.yul\":24338:24347   */\n      dup6\n        /* \"#utility.yul\":24334:24352   */\n      add\n        /* \"#utility.yul\":24321:24352   */\n      swap5\n      pop\n        /* \"#utility.yul\":24195:24199   */\n      0x20\n        /* \"#utility.yul\":24192:24193   */\n      dup2\n        /* \"#utility.yul\":24188:24200   */\n      add\n        /* \"#utility.yul\":24183:24200   */\n      swap1\n      pop\n        /* \"#utility.yul\":24158:24366   */\n      jump(tag_879)\n    tag_881:\n        /* \"#utility.yul\":24394:24400   */\n      dup7\n        /* \"#utility.yul\":24385:24392   */\n      dup4\n        /* \"#utility.yul\":24382:24401   */\n      lt\n        /* \"#utility.yul\":24379:24558   */\n      iszero\n      tag_882\n      jumpi\n        /* \"#utility.yul\":24452:24461   */\n      dup5\n        /* \"#utility.yul\":24447:24450   */\n      dup10\n        /* \"#utility.yul\":24443:24462   */\n      add\n        /* \"#utility.yul\":24437:24463   */\n      mload\n        /* \"#utility.yul\":24495:24543   */\n      tag_883\n        /* \"#utility.yul\":24537:24541   */\n      0x1f\n        /* \"#utility.yul\":24529:24535   */\n      dup10\n        /* \"#utility.yul\":24525:24542   */\n      and\n        /* \"#utility.yul\":24514:24523   */\n      dup3\n        /* \"#utility.yul\":24495:24543   */\n      tag_590\n      jump\t// in\n    tag_883:\n        /* \"#utility.yul\":24487:24493   */\n      dup4\n        /* \"#utility.yul\":24480:24544   */\n      sstore\n        /* \"#utility.yul\":24402:24558   */\n      pop\n        /* \"#utility.yul\":24379:24558   */\n    tag_882:\n        /* \"#utility.yul\":24604:24605   */\n      0x01\n        /* \"#utility.yul\":24600:24601   */\n      0x02\n        /* \"#utility.yul\":24592:24598   */\n      dup9\n        /* \"#utility.yul\":24588:24602   */\n      mul\n        /* \"#utility.yul\":24584:24606   */\n      add\n        /* \"#utility.yul\":24578:24582   */\n      dup9\n        /* \"#utility.yul\":24571:24607   */\n      sstore\n        /* \"#utility.yul\":24006:24617   */\n      pop\n      pop\n      pop\n        /* \"#utility.yul\":23969:24856   */\n    tag_874:\n      pop\n        /* \"#utility.yul\":23559:24862   */\n      pop\n      pop\n      pop\n        /* \"#utility.yul\":23467:24862   */\n      pop\n      pop\n      jump\t// out\n        /* \"#utility.yul\":24868:25048   */\n    tag_199:\n        /* \"#utility.yul\":24916:24993   */\n      0x4e487b7100000000000000000000000000000000000000000000000000000000\n        /* \"#utility.yul\":24913:24914   */\n      0x00\n        /* \"#utility.yul\":24906:24994   */\n      mstore\n        /* \"#utility.yul\":25013:25017   */\n      0x32\n        /* \"#utility.yul\":25010:25011   */\n      0x04\n        /* \"#utility.yul\":25003:25018   */\n      mstore\n        /* \"#utility.yul\":25037:25041   */\n      0x24\n        /* \"#utility.yul\":25034:25035   */\n      0x00\n        /* \"#utility.yul\":25027:25042   */\n      revert\n        /* \"#utility.yul\":25054:25234   */\n    tag_592:\n        /* \"#utility.yul\":25102:25179   */\n      0x4e487b7100000000000000000000000000000000000000000000000000000000\n        /* \"#utility.yul\":25099:25100   */\n      0x00\n        /* \"#utility.yul\":25092:25180   */\n      mstore\n        /* \"#utility.yul\":25199:25203   */\n      0x11\n        /* \"#utility.yul\":25196:25197   */\n      0x04\n        /* \"#utility.yul\":25189:25204   */\n      mstore\n        /* \"#utility.yul\":25223:25227   */\n      0x24\n        /* \"#utility.yul\":25220:25221   */\n      0x00\n        /* \"#utility.yul\":25213:25228   */\n      revert\n        /* \"#utility.yul\":25240:25650   */\n    tag_212:\n        /* \"#utility.yul\":25280:25287   */\n      0x00\n        /* \"#utility.yul\":25303:25323   */\n      tag_887\n        /* \"#utility.yul\":25321:25322   */\n      dup3\n        /* \"#utility.yul\":25303:25323   */\n      tag_533\n      jump\t// in\n    tag_887:\n        /* \"#utility.yul\":25298:25323   */\n      swap2\n      pop\n        /* \"#utility.yul\":25337:25357   */\n      tag_888\n        /* \"#utility.yul\":25355:25356   */\n      dup4\n        /* \"#utility.yul\":25337:25357   */\n      tag_533\n      jump\t// in\n    tag_888:\n        /* \"#utility.yul\":25332:25357   */\n      swap3\n      pop\n        /* \"#utility.yul\":25392:25393   */\n      dup3\n        /* \"#utility.yul\":25389:25390   */\n      dup3\n        /* \"#utility.yul\":25385:25394   */\n      mul\n        /* \"#utility.yul\":25414:25444   */\n      tag_889\n        /* \"#utility.yul\":25432:25443   */\n      dup2\n        /* \"#utility.yul\":25414:25444   */\n      tag_533\n      jump\t// in\n    tag_889:\n        /* \"#utility.yul\":25403:25444   */\n      swap2\n      pop\n        /* \"#utility.yul\":25593:25594   */\n      dup3\n        /* \"#utility.yul\":25584:25591   */\n      dup3\n        /* \"#utility.yul\":25580:25595   */\n      div\n        /* \"#utility.yul\":25577:25578   */\n      dup5\n        /* \"#utility.yul\":25574:25596   */\n      eq\n        /* \"#utility.yul\":25554:25555   */\n      dup4\n        /* \"#utility.yul\":25547:25556   */\n      iszero\n        /* \"#utility.yul\":25527:25610   */\n      or\n        /* \"#utility.yul\":25504:25643   */\n      tag_890\n      jumpi\n        /* \"#utility.yul\":25623:25641   */\n      tag_891\n      tag_592\n      jump\t// in\n    tag_891:\n        /* \"#utility.yul\":25504:25643   */\n    tag_890:\n        /* \"#utility.yul\":25288:25650   */\n      pop\n        /* \"#utility.yul\":25240:25650   */\n      swap3\n      swap2\n      pop\n      pop\n      jump\t// out\n        /* \"#utility.yul\":25656:25847   */\n    tag_221:\n        /* \"#utility.yul\":25696:25699   */\n      0x00\n        /* \"#utility.yul\":25715:25735   */\n      tag_893\n        /* \"#utility.yul\":25733:25734   */\n      dup3\n        /* \"#utility.yul\":25715:25735   */\n      tag_533\n      jump\t// in\n    tag_893:\n        /* \"#utility.yul\":25710:25735   */\n      swap2\n      pop\n        /* \"#utility.yul\":25749:25769   */\n      tag_894\n        /* \"#utility.yul\":25767:25768   */\n      dup4\n        /* \"#utility.yul\":25749:25769   */\n      tag_533\n      jump\t// in\n    tag_894:\n        /* \"#utility.yul\":25744:25769   */\n      swap3\n      pop\n        /* \"#utility.yul\":25792:25793   */\n      dup3\n        /* \"#utility.yul\":25789:25790   */\n      dup3\n        /* \"#utility.yul\":25785:25794   */\n      add\n        /* \"#utility.yul\":25778:25794   */\n      swap1\n      pop\n        /* \"#utility.yul\":25813:25816   */\n      dup1\n        /* \"#utility.yul\":25810:25811   */\n      dup3\n        /* \"#utility.yul\":25807:25817   */\n      gt\n        /* \"#utility.yul\":25804:25840   */\n      iszero\n      tag_895\n      jumpi\n        /* \"#utility.yul\":25820:25838   */\n      tag_896\n      tag_592\n      jump\t// in\n    tag_896:\n        /* \"#utility.yul\":25804:25840   */\n    tag_895:\n        /* \"#utility.yul\":25656:25847   */\n      swap3\n      swap2\n      pop\n      pop\n      jump\t// out\n        /* \"#utility.yul\":25853:26047   */\n    tag_228:\n        /* \"#utility.yul\":25893:25897   */\n      0x00\n        /* \"#utility.yul\":25913:25933   */\n      tag_898\n        /* \"#utility.yul\":25931:25932   */\n      dup3\n        /* \"#utility.yul\":25913:25933   */\n      tag_533\n      jump\t// in\n    tag_898:\n        /* \"#utility.yul\":25908:25933   */\n      swap2\n      pop\n        /* \"#utility.yul\":25947:25967   */\n      tag_899\n        /* \"#utility.yul\":25965:25966   */\n      dup4\n        /* \"#utility.yul\":25947:25967   */\n      tag_533\n      jump\t// in\n    tag_899:\n        /* \"#utility.yul\":25942:25967   */\n      swap3\n      pop\n        /* \"#utility.yul\":25991:25992   */\n      dup3\n        /* \"#utility.yul\":25988:25989   */\n      dup3\n        /* \"#utility.yul\":25984:25993   */\n      sub\n        /* \"#utility.yul\":25976:25993   */\n      swap1\n      pop\n        /* \"#utility.yul\":26015:26016   */\n      dup2\n        /* \"#utility.yul\":26009:26013   */\n      dup2\n        /* \"#utility.yul\":26006:26017   */\n      gt\n        /* \"#utility.yul\":26003:26040   */\n      iszero\n      tag_900\n      jumpi\n        /* \"#utility.yul\":26020:26038   */\n      tag_901\n      tag_592\n      jump\t// in\n    tag_901:\n        /* \"#utility.yul\":26003:26040   */\n    tag_900:\n        /* \"#utility.yul\":25853:26047   */\n      swap3\n      swap2\n      pop\n      pop\n      jump\t// out\n        /* \"#utility.yul\":26053:26139   */\n    tag_593:\n        /* \"#utility.yul\":26088:26095   */\n      0x00\n        /* \"#utility.yul\":26128:26132   */\n      0xff\n        /* \"#utility.yul\":26121:26126   */\n      dup3\n        /* \"#utility.yul\":26117:26133   */\n      and\n        /* \"#utility.yul\":26106:26133   */\n      swap1\n      pop\n        /* \"#utility.yul\":26053:26139   */\n      swap2\n      swap1\n      pop\n      jump\t// out\n        /* \"#utility.yul\":26145:26336   */\n    tag_259:\n        /* \"#utility.yul\":26183:26187   */\n      0x00\n        /* \"#utility.yul\":26203:26221   */\n      tag_904\n        /* \"#utility.yul\":26219:26220   */\n      dup3\n        /* \"#utility.yul\":26203:26221   */\n      tag_593\n      jump\t// in\n    tag_904:\n        /* \"#utility.yul\":26198:26221   */\n      swap2\n      pop\n        /* \"#utility.yul\":26235:26253   */\n      tag_905\n        /* \"#utility.yul\":26251:26252   */\n      dup4\n        /* \"#utility.yul\":26235:26253   */\n      tag_593\n      jump\t// in\n    tag_905:\n        /* \"#utility.yul\":26230:26253   */\n      swap3\n      pop\n        /* \"#utility.yul\":26277:26278   */\n      dup3\n        /* \"#utility.yul\":26274:26275   */\n      dup3\n        /* \"#utility.yul\":26270:26279   */\n      sub\n        /* \"#utility.yul\":26262:26279   */\n      swap1\n      pop\n        /* \"#utility.yul\":26301:26305   */\n      0xff\n        /* \"#utility.yul\":26295:26299   */\n      dup2\n        /* \"#utility.yul\":26292:26306   */\n      gt\n        /* \"#utility.yul\":26289:26329   */\n      iszero\n      tag_906\n      jumpi\n        /* \"#utility.yul\":26309:26327   */\n      tag_907\n      tag_592\n      jump\t// in\n    tag_907:\n        /* \"#utility.yul\":26289:26329   */\n    tag_906:\n        /* \"#utility.yul\":26145:26336   */\n      swap3\n      swap2\n      pop\n      pop\n      jump\t// out\n        /* \"#utility.yul\":26342:26575   */\n    tag_263:\n        /* \"#utility.yul\":26381:26384   */\n      0x00\n        /* \"#utility.yul\":26404:26428   */\n      tag_909\n        /* \"#utility.yul\":26422:26427   */\n      dup3\n        /* \"#utility.yul\":26404:26428   */\n      tag_533\n      jump\t// in\n    tag_909:\n        /* \"#utility.yul\":26395:26428   */\n      swap2\n      pop\n        /* \"#utility.yul\":26450:26516   */\n      0xffffffffffffffffffffffffffffffffffffffffffffffffffffffffffffffff\n        /* \"#utility.yul\":26443:26448   */\n      dup3\n        /* \"#utility.yul\":26440:26517   */\n      sub\n        /* \"#utility.yul\":26437:26540   */\n      tag_910\n      jumpi\n        /* \"#utility.yul\":26520:26538   */\n      tag_911\n      tag_592\n      jump\t// in\n    tag_911:\n        /* \"#utility.yul\":26437:26540   */\n    tag_910:\n        /* \"#utility.yul\":26567:26568   */\n      0x01\n        /* \"#utility.yul\":26560:26565   */\n      dup3\n        /* \"#utility.yul\":26556:26569   */\n      add\n        /* \"#utility.yul\":26549:26569   */\n      swap1\n      pop\n        /* \"#utility.yul\":26342:26575   */\n      swap2\n      swap1\n      pop\n      jump\t// out\n        /* \"#utility.yul\":26581:26806   */\n    tag_594:\n        /* \"#utility.yul\":26721:26755   */\n      0x507572636861736520616d6f756e74206d757374206265206772656174657220\n        /* \"#utility.yul\":26717:26718   */\n      0x00\n        /* \"#utility.yul\":26709:26715   */\n      dup3\n        /* \"#utility.yul\":26705:26719   */\n      add\n        /* \"#utility.yul\":26698:26756   */\n      mstore\n        /* \"#utility.yul\":26790:26798   */\n      0x7468616e20300000000000000000000000000000000000000000000000000000\n        /* \"#utility.yul\":26785:26787   */\n      0x20\n        /* \"#utility.yul\":26777:26783   */\n      dup3\n        /* \"#utility.yul\":26773:26788   */\n      add\n        /* \"#utility.yul\":26766:26799   */\n      mstore\n        /* \"#utility.yul\":26581:26806   */\n      pop\n      jump\t// out\n        /* \"#utility.yul\":26812:27178   */\n    tag_595:\n        /* \"#utility.yul\":26954:26957   */\n      0x00\n        /* \"#utility.yul\":26975:27042   */\n      tag_914\n        /* \"#utility.yul\":27039:27041   */\n      0x26\n        /* \"#utility.yul\":27034:27037   */\n      dup4\n        /* \"#utility.yul\":26975:27042   */\n      tag_548\n      jump\t// in\n    tag_914:\n        /* \"#utility.yul\":26968:27042   */\n      swap2\n      pop\n        /* \"#utility.yul\":27051:27144   */\n      tag_915\n        /* \"#utility.yul\":27140:27143   */\n      dup3\n        /* \"#utility.yul\":27051:27144   */\n      tag_594\n      jump\t// in\n    tag_915:\n        /* \"#utility.yul\":27169:27171   */\n      0x40\n        /* \"#utility.yul\":27164:27167   */\n      dup3\n        /* \"#utility.yul\":27160:27172   */\n      add\n        /* \"#utility.yul\":27153:27172   */\n      swap1\n      pop\n        /* \"#utility.yul\":26812:27178   */\n      swap2\n      swap1\n      pop\n      jump\t// out\n        /* \"#utility.yul\":27184:27603   */\n    tag_283:\n        /* \"#utility.yul\":27350:27354   */\n      0x00\n        /* \"#utility.yul\":27388:27390   */\n      0x20\n        /* \"#utility.yul\":27377:27386   */\n      dup3\n        /* \"#utility.yul\":27373:27391   */\n      add\n        /* \"#utility.yul\":27365:27391   */\n      swap1\n      pop\n        /* \"#utility.yul\":27437:27446   */\n      dup2\n        /* \"#utility.yul\":27431:27435   */\n      dup2\n        /* \"#utility.yul\":27427:27447   */\n      sub\n        /* \"#utility.yul\":27423:27424   */\n      0x00\n        /* \"#utility.yul\":27412:27421   */\n      dup4\n        /* \"#utility.yul\":27408:27425   */\n      add\n        /* \"#utility.yul\":27401:27448   */\n      mstore\n        /* \"#utility.yul\":27465:27596   */\n      tag_917\n        /* \"#utility.yul\":27591:27595   */\n      dup2\n        /* \"#utility.yul\":27465:27596   */\n      tag_595\n      jump\t// in\n    tag_917:\n        /* \"#utility.yul\":27457:27596   */\n      swap1\n      pop\n        /* \"#utility.yul\":27184:27603   */\n      swap2\n      swap1\n      pop\n      jump\t// out\n        /* \"#utility.yul\":27609:27777   */\n    tag_596:\n        /* \"#utility.yul\":27749:27769   */\n      0x496e76616c69642070726f647563742049440000000000000000000000000000\n        /* \"#utility.yul\":27745:27746   */\n      0x00\n        /* \"#utility.yul\":27737:27743   */\n      dup3\n        /* \"#utility.yul\":27733:27747   */\n      add\n        /* \"#utility.yul\":27726:27770   */\n      mstore\n        /* \"#utility.yul\":27609:27777   */\n      pop\n      jump\t// out\n        /* \"#utility.yul\":27783:28149   */\n    tag_597:\n        /* \"#utility.yul\":27925:27928   */\n      0x00\n        /* \"#utility.yul\":27946:28013   */\n      tag_920\n        /* \"#utility.yul\":28010:28012   */\n      0x12\n        /* \"#utility.yul\":28005:28008   */\n      dup4\n        /* \"#utility.yul\":27946:28013   */\n      tag_548\n      jump\t// in\n    tag_920:\n        /* \"#utility.yul\":27939:28013   */\n      swap2\n      pop\n        /* \"#utility.yul\":28022:28115   */\n      tag_921\n        /* \"#utility.yul\":28111:28114   */\n      dup3\n        /* \"#utility.yul\":28022:28115   */\n      tag_596\n      jump\t// in\n    tag_921:\n        /* \"#utility.yul\":28140:28142   */\n      0x20\n        /* \"#utility.yul\":28135:28138   */\n      dup3\n        /* \"#utility.yul\":28131:28143   */\n      add\n        /* \"#utility.yul\":28124:28143   */\n      swap1\n      pop\n        /* \"#utility.yul\":27783:28149   */\n      swap2\n      swap1\n      pop\n      jump\t// out\n        /* \"#utility.yul\":28155:28574   */\n    tag_286:\n        /* \"#utility.yul\":28321:28325   */\n      0x00\n        /* \"#utility.yul\":28359:28361   */\n      0x20\n        /* \"#utility.yul\":28348:28357   */\n      dup3\n        /* \"#utility.yul\":28344:28362   */\n      add\n        /* \"#utility.yul\":28336:28362   */\n      swap1\n      pop\n        /* \"#utility.yul\":28408:28417   */\n      dup2\n        /* \"#utility.yul\":28402:28406   */\n      dup2\n        /* \"#utility.yul\":28398:28418   */\n      sub\n        /* \"#utility.yul\":28394:28395   */\n      0x00\n        /* \"#utility.yul\":28383:28392   */\n      dup4\n        /* \"#utility.yul\":28379:28396   */\n      add\n        /* \"#utility.yul\":28372:28419   */\n      mstore\n        /* \"#utility.yul\":28436:28567   */\n      tag_923\n        /* \"#utility.yul\":28562:28566   */\n      dup2\n        /* \"#utility.yul\":28436:28567   */\n      tag_597\n      jump\t// in\n    tag_923:\n        /* \"#utility.yul\":28428:28567   */\n      swap1\n      pop\n        /* \"#utility.yul\":28155:28574   */\n      swap2\n      swap1\n      pop\n      jump\t// out\n        /* \"#utility.yul\":28580:28759   */\n    tag_598:\n        /* \"#utility.yul\":28748:28752   */\n      0x4141000000000000000000000000000000000000000000000000000000000000\n        /* \"#utility.yul\":28743:28746   */\n      dup2\n        /* \"#utility.yul\":28736:28753   */\n      mstore\n        /* \"#utility.yul\":28580:28759   */\n      pop\n      jump\t// out\n        /* \"#utility.yul\":28765:28913   */\n    tag_599:\n        /* \"#utility.yul\":28867:28878   */\n      0x00\n        /* \"#utility.yul\":28904:28907   */\n      dup2\n        /* \"#utility.yul\":28889:28907   */\n      swap1\n      pop\n        /* \"#utility.yul\":28765:28913   */\n      swap3\n      swap2\n      pop\n      pop\n      jump\t// out\n        /* \"#utility.yul\":28919:29309   */\n    tag_600:\n        /* \"#utility.yul\":29025:29028   */\n      0x00\n        /* \"#utility.yul\":29053:29092   */\n      tag_927\n        /* \"#utility.yul\":29086:29091   */\n      dup3\n        /* \"#utility.yul\":29053:29092   */\n      tag_547\n      jump\t// in\n    tag_927:\n        /* \"#utility.yul\":29108:29197   */\n      tag_928\n        /* \"#utility.yul\":29190:29196   */\n      dup2\n        /* \"#utility.yul\":29185:29188   */\n      dup6\n        /* \"#utility.yul\":29108:29197   */\n      tag_599\n      jump\t// in\n    tag_928:\n        /* \"#utility.yul\":29101:29197   */\n      swap4\n      pop\n        /* \"#utility.yul\":29206:29271   */\n      tag_929\n        /* \"#utility.yul\":29264:29270   */\n      dup2\n        /* \"#utility.yul\":29259:29262   */\n      dup6\n        /* \"#utility.yul\":29252:29256   */\n      0x20\n        /* \"#utility.yul\":29245:29250   */\n      dup7\n        /* \"#utility.yul\":29241:29257   */\n      add\n        /* \"#utility.yul\":29206:29271   */\n      tag_549\n      jump\t// in\n    tag_929:\n        /* \"#utility.yul\":29296:29302   */\n      dup1\n        /* \"#utility.yul\":29291:29294   */\n      dup5\n        /* \"#utility.yul\":29287:29303   */\n      add\n        /* \"#utility.yul\":29280:29303   */\n      swap2\n      pop\n        /* \"#utility.yul\":29029:29309   */\n      pop\n        /* \"#utility.yul\":28919:29309   */\n      swap3\n      swap2\n      pop\n      pop\n      jump\t// out\n        /* \"#utility.yul\":29315:29494   */\n    tag_601:\n        /* \"#utility.yul\":29483:29487   */\n      0x4242000000000000000000000000000000000000000000000000000000000000\n        /* \"#utility.yul\":29478:29481   */\n      dup2\n        /* \"#utility.yul\":29471:29488   */\n      mstore\n        /* \"#utility.yul\":29315:29494   */\n      pop\n      jump\t// out\n        /* \"#utility.yul\":29500:30303   */\n    tag_296:\n        /* \"#utility.yul\":29812:29815   */\n      0x00\n        /* \"#utility.yul\":29827:29964   */\n      tag_932\n        /* \"#utility.yul\":29960:29963   */\n      dup3\n        /* \"#utility.yul\":29827:29964   */\n      tag_598\n      jump\t// in\n    tag_932:\n        /* \"#utility.yul\":29989:29990   */\n      0x02\n        /* \"#utility.yul\":29984:29987   */\n      dup3\n        /* \"#utility.yul\":29980:29991   */\n      add\n        /* \"#utility.yul\":29973:29991   */\n      swap2\n      pop\n        /* \"#utility.yul\":30008:30103   */\n      tag_933\n        /* \"#utility.yul\":30099:30102   */\n      dup3\n        /* \"#utility.yul\":30090:30096   */\n      dup5\n        /* \"#utility.yul\":30008:30103   */\n      tag_600\n      jump\t// in\n    tag_933:\n        /* \"#utility.yul\":30001:30103   */\n      swap2\n      pop\n        /* \"#utility.yul\":30113:30250   */\n      tag_934\n        /* \"#utility.yul\":30246:30249   */\n      dup3\n        /* \"#utility.yul\":30113:30250   */\n      tag_601\n      jump\t// in\n    tag_934:\n        /* \"#utility.yul\":30275:30276   */\n      0x02\n        /* \"#utility.yul\":30270:30273   */\n      dup3\n        /* \"#utility.yul\":30266:30277   */\n      add\n        /* \"#utility.yul\":30259:30277   */\n      swap2\n      pop\n        /* \"#utility.yul\":30294:30297   */\n      dup2\n        /* \"#utility.yul\":30287:30297   */\n      swap1\n      pop\n        /* \"#utility.yul\":29500:30303   */\n      swap3\n      swap2\n      pop\n      pop\n      jump\t// out\n        /* \"#utility.yul\":30309:30388   */\n    tag_602:\n        /* \"#utility.yul\":30348:30355   */\n      0x00\n        /* \"#utility.yul\":30377:30382   */\n      dup2\n        /* \"#utility.yul\":30366:30382   */\n      swap1\n      pop\n        /* \"#utility.yul\":30309:30388   */\n      swap2\n      swap1\n      pop\n      jump\t// out\n        /* \"#utility.yul\":30394:30551   */\n    tag_603:\n        /* \"#utility.yul\":30499:30544   */\n      tag_937\n        /* \"#utility.yul\":30519:30543   */\n      tag_938\n        /* \"#utility.yul\":30537:30542   */\n      dup3\n        /* \"#utility.yul\":30519:30543   */\n      tag_533\n      jump\t// in\n    tag_938:\n        /* \"#utility.yul\":30499:30544   */\n      tag_602\n      jump\t// in\n    tag_937:\n        /* \"#utility.yul\":30494:30497   */\n      dup3\n        /* \"#utility.yul\":30487:30545   */\n      mstore\n        /* \"#utility.yul\":30394:30551   */\n      pop\n      pop\n      jump\t// out\n        /* \"#utility.yul\":30557:30651   */\n    tag_604:\n        /* \"#utility.yul\":30590:30598   */\n      0x00\n        /* \"#utility.yul\":30638:30643   */\n      dup2\n        /* \"#utility.yul\":30634:30636   */\n      0x60\n        /* \"#utility.yul\":30630:30644   */\n      shl\n        /* \"#utility.yul\":30609:30644   */\n      swap1\n      pop\n        /* \"#utility.yul\":30557:30651   */\n      swap2\n      swap1\n      pop\n      jump\t// out\n        /* \"#utility.yul\":30657:30751   */\n    tag_605:\n        /* \"#utility.yul\":30696:30703   */\n      0x00\n        /* \"#utility.yul\":30725:30745   */\n      tag_941\n        /* \"#utility.yul\":30739:30744   */\n      dup3\n        /* \"#utility.yul\":30725:30745   */\n      tag_604\n      jump\t// in\n    tag_941:\n        /* \"#utility.yul\":30714:30745   */\n      swap1\n      pop\n        /* \"#utility.yul\":30657:30751   */\n      swap2\n      swap1\n      pop\n      jump\t// out\n        /* \"#utility.yul\":30757:30857   */\n    tag_606:\n        /* \"#utility.yul\":30796:30803   */\n      0x00\n        /* \"#utility.yul\":30825:30851   */\n      tag_943\n        /* \"#utility.yul\":30845:30850   */\n      dup3\n        /* \"#utility.yul\":30825:30851   */\n      tag_605\n      jump\t// in\n    tag_943:\n        /* \"#utility.yul\":30814:30851   */\n      swap1\n      pop\n        /* \"#utility.yul\":30757:30857   */\n      swap2\n      swap1\n      pop\n      jump\t// out\n        /* \"#utility.yul\":30863:31020   */\n    tag_607:\n        /* \"#utility.yul\":30968:31013   */\n      tag_945\n        /* \"#utility.yul\":30988:31012   */\n      tag_946\n        /* \"#utility.yul\":31006:31011   */\n      dup3\n        /* \"#utility.yul\":30988:31012   */\n      tag_541\n      jump\t// in\n    tag_946:\n        /* \"#utility.yul\":30968:31013   */\n      tag_606\n      jump\t// in\n    tag_945:\n        /* \"#utility.yul\":30963:30966   */\n      dup3\n        /* \"#utility.yul\":30956:31014   */\n      mstore\n        /* \"#utility.yul\":30863:31020   */\n      pop\n      pop\n      jump\t// out\n        /* \"#utility.yul\":31026:31564   */\n    tag_329:\n        /* \"#utility.yul\":31194:31197   */\n      0x00\n        /* \"#utility.yul\":31209:31284   */\n      tag_948\n        /* \"#utility.yul\":31280:31283   */\n      dup3\n        /* \"#utility.yul\":31271:31277   */\n      dup7\n        /* \"#utility.yul\":31209:31284   */\n      tag_603\n      jump\t// in\n    tag_948:\n        /* \"#utility.yul\":31309:31311   */\n      0x20\n        /* \"#utility.yul\":31304:31307   */\n      dup3\n        /* \"#utility.yul\":31300:31312   */\n      add\n        /* \"#utility.yul\":31293:31312   */\n      swap2\n      pop\n        /* \"#utility.yul\":31322:31397   */\n      tag_949\n        /* \"#utility.yul\":31393:31396   */\n      dup3\n        /* \"#utility.yul\":31384:31390   */\n      dup6\n        /* \"#utility.yul\":31322:31397   */\n      tag_607\n      jump\t// in\n    tag_949:\n        /* \"#utility.yul\":31422:31424   */\n      0x14\n        /* \"#utility.yul\":31417:31420   */\n      dup3\n        /* \"#utility.yul\":31413:31425   */\n      add\n        /* \"#utility.yul\":31406:31425   */\n      swap2\n      pop\n        /* \"#utility.yul\":31435:31510   */\n      tag_950\n        /* \"#utility.yul\":31506:31509   */\n      dup3\n        /* \"#utility.yul\":31497:31503   */\n      dup5\n        /* \"#utility.yul\":31435:31510   */\n      tag_603\n      jump\t// in\n    tag_950:\n        /* \"#utility.yul\":31535:31537   */\n      0x20\n        /* \"#utility.yul\":31530:31533   */\n      dup3\n        /* \"#utility.yul\":31526:31538   */\n      add\n        /* \"#utility.yul\":31519:31538   */\n      swap2\n      pop\n        /* \"#utility.yul\":31555:31558   */\n      dup2\n        /* \"#utility.yul\":31548:31558   */\n      swap1\n      pop\n        /* \"#utility.yul\":31026:31564   */\n      swap5\n      swap4\n      pop\n      pop\n      pop\n      pop\n      jump\t// out\n        /* \"#utility.yul\":31570:31750   */\n    tag_608:\n        /* \"#utility.yul\":31618:31695   */\n      0x4e487b7100000000000000000000000000000000000000000000000000000000\n        /* \"#utility.yul\":31615:31616   */\n      0x00\n        /* \"#utility.yul\":31608:31696   */\n      mstore\n        /* \"#utility.yul\":31715:31719   */\n      0x12\n        /* \"#utility.yul\":31712:31713   */\n      0x04\n        /* \"#utility.yul\":31705:31720   */\n      mstore\n        /* \"#utility.yul\":31739:31743   */\n      0x24\n        /* \"#utility.yul\":31736:31737   */\n      0x00\n        /* \"#utility.yul\":31729:31744   */\n      revert\n        /* \"#utility.yul\":31756:31932   */\n    tag_331:\n        /* \"#utility.yul\":31788:31789   */\n      0x00\n        /* \"#utility.yul\":31805:31825   */\n      tag_953\n        /* \"#utility.yul\":31823:31824   */\n      dup3\n        /* \"#utility.yul\":31805:31825   */\n      tag_533\n      jump\t// in\n    tag_953:\n        /* \"#utility.yul\":31800:31825   */\n      swap2\n      pop\n        /* \"#utility.yul\":31839:31859   */\n      tag_954\n        /* \"#utility.yul\":31857:31858   */\n      dup4\n        /* \"#utility.yul\":31839:31859   */\n      tag_533\n      jump\t// in\n    tag_954:\n        /* \"#utility.yul\":31834:31859   */\n      swap3\n      pop\n        /* \"#utility.yul\":31878:31879   */\n      dup3\n        /* \"#utility.yul\":31868:31903   */\n      tag_955\n      jumpi\n        /* \"#utility.yul\":31883:31901   */\n      tag_956\n      tag_608\n      jump\t// in\n    tag_956:\n        /* \"#utility.yul\":31868:31903   */\n    tag_955:\n        /* \"#utility.yul\":31924:31925   */\n      dup3\n        /* \"#utility.yul\":31921:31922   */\n      dup3\n        /* \"#utility.yul\":31917:31926   */\n      mod\n        /* \"#utility.yul\":31912:31926   */\n      swap1\n      pop\n        /* \"#utility.yul\":31756:31932   */\n      swap3\n      swap2\n      pop\n      pop\n      jump\t// out\n        /* \"#utility.yul\":31938:32123   */\n    tag_343:\n        /* \"#utility.yul\":31978:31979   */\n      0x00\n        /* \"#utility.yul\":31995:32015   */\n      tag_958\n        /* \"#utility.yul\":32013:32014   */\n      dup3\n        /* \"#utility.yul\":31995:32015   */\n      tag_533\n      jump\t// in\n    tag_958:\n        /* \"#utility.yul\":31990:32015   */\n      swap2\n      pop\n        /* \"#utility.yul\":32029:32049   */\n      tag_959\n        /* \"#utility.yul\":32047:32048   */\n      dup4\n        /* \"#utility.yul\":32029:32049   */\n      tag_533\n      jump\t// in\n    tag_959:\n        /* \"#utility.yul\":32024:32049   */\n      swap3\n      pop\n        /* \"#utility.yul\":32068:32069   */\n      dup3\n        /* \"#utility.yul\":32058:32093   */\n      tag_960\n      jumpi\n        /* \"#utility.yul\":32073:32091   */\n      tag_961\n      tag_608\n      jump\t// in\n    tag_961:\n        /* \"#utility.yul\":32058:32093   */\n    tag_960:\n        /* \"#utility.yul\":32115:32116   */\n      dup3\n        /* \"#utility.yul\":32112:32113   */\n      dup3\n        /* \"#utility.yul\":32108:32117   */\n      div\n        /* \"#utility.yul\":32103:32117   */\n      swap1\n      pop\n        /* \"#utility.yul\":31938:32123   */\n      swap3\n      swap2\n      pop\n      pop\n      jump\t// out\n        /* \"#utility.yul\":32129:32305   */\n    tag_609:\n        /* \"#utility.yul\":32269:32297   */\n      0x4e6f7420656e6f7567682073746f636b20617661696c61626c65000000000000\n        /* \"#utility.yul\":32265:32266   */\n      0x00\n        /* \"#utility.yul\":32257:32263   */\n      dup3\n        /* \"#utility.yul\":32253:32267   */\n      add\n        /* \"#utility.yul\":32246:32298   */\n      mstore\n        /* \"#utility.yul\":32129:32305   */\n      pop\n      jump\t// out\n        /* \"#utility.yul\":32311:32677   */\n    tag_610:\n        /* \"#utility.yul\":32453:32456   */\n      0x00\n        /* \"#utility.yul\":32474:32541   */\n      tag_964\n        /* \"#utility.yul\":32538:32540   */\n      0x1a\n        /* \"#utility.yul\":32533:32536   */\n      dup4\n        /* \"#utility.yul\":32474:32541   */\n      tag_548\n      jump\t// in\n    tag_964:\n        /* \"#utility.yul\":32467:32541   */\n      swap2\n      pop\n        /* \"#utility.yul\":32550:32643   */\n      tag_965\n        /* \"#utility.yul\":32639:32642   */\n      dup3\n        /* \"#utility.yul\":32550:32643   */\n      tag_609\n      jump\t// in\n    tag_965:\n        /* \"#utility.yul\":32668:32670   */\n      0x20\n        /* \"#utility.yul\":32663:32666   */\n      dup3\n        /* \"#utility.yul\":32659:32671   */\n      add\n        /* \"#utility.yul\":32652:32671   */\n      swap1\n      pop\n        /* \"#utility.yul\":32311:32677   */\n      swap2\n      swap1\n      pop\n      jump\t// out\n        /* \"#utility.yul\":32683:33102   */\n    tag_365:\n        /* \"#utility.yul\":32849:32853   */\n      0x00\n        /* \"#utility.yul\":32887:32889   */\n      0x20\n        /* \"#utility.yul\":32876:32885   */\n      dup3\n        /* \"#utility.yul\":32872:32890   */\n      add\n        /* \"#utility.yul\":32864:32890   */\n      swap1\n      pop\n        /* \"#utility.yul\":32936:32945   */\n      dup2\n        /* \"#utility.yul\":32930:32934   */\n      dup2\n        /* \"#utility.yul\":32926:32946   */\n      sub\n        /* \"#utility.yul\":32922:32923   */\n      0x00\n        /* \"#utility.yul\":32911:32920   */\n      dup4\n        /* \"#utility.yul\":32907:32924   */\n      add\n        /* \"#utility.yul\":32900:32947   */\n      mstore\n        /* \"#utility.yul\":32964:33095   */\n      tag_967\n        /* \"#utility.yul\":33090:33094   */\n      dup2\n        /* \"#utility.yul\":32964:33095   */\n      tag_610\n      jump\t// in\n    tag_967:\n        /* \"#utility.yul\":32956:33095   */\n      swap1\n      pop\n        /* \"#utility.yul\":32683:33102   */\n      swap2\n      swap1\n      pop\n      jump\t// out\n        /* \"#utility.yul\":33108:33383   */\n    tag_372:\n        /* \"#utility.yul\":33240:33243   */\n      0x00\n        /* \"#utility.yul\":33262:33357   */\n      tag_969\n        /* \"#utility.yul\":33353:33356   */\n      dup3\n        /* \"#utility.yul\":33344:33350   */\n      dup5\n        /* \"#utility.yul\":33262:33357   */\n      tag_600\n      jump\t// in\n    tag_969:\n        /* \"#utility.yul\":33255:33357   */\n      swap2\n      pop\n        /* \"#utility.yul\":33374:33377   */\n      dup2\n        /* \"#utility.yul\":33367:33377   */\n      swap1\n      pop\n        /* \"#utility.yul\":33108:33383   */\n      swap3\n      swap2\n      pop\n      pop\n      jump\t// out\n        /* \"#utility.yul\":33389:33562   */\n    tag_611:\n        /* \"#utility.yul\":33529:33554   */\n      0x496e73756666696369656e742066756e64732073656e74000000000000000000\n        /* \"#utility.yul\":33525:33526   */\n      0x00\n        /* \"#utility.yul\":33517:33523   */\n      dup3\n        /* \"#utility.yul\":33513:33527   */\n      add\n        /* \"#utility.yul\":33506:33555   */\n      mstore\n        /* \"#utility.yul\":33389:33562   */\n      pop\n      jump\t// out\n        /* \"#utility.yul\":33568:33934   */\n    tag_612:\n        /* \"#utility.yul\":33710:33713   */\n      0x00\n        /* \"#utility.yul\":33731:33798   */\n      tag_972\n        /* \"#utility.yul\":33795:33797   */\n      0x17\n        /* \"#utility.yul\":33790:33793   */\n      dup4\n        /* \"#utility.yul\":33731:33798   */\n      tag_548\n      jump\t// in\n    tag_972:\n        /* \"#utility.yul\":33724:33798   */\n      swap2\n      pop\n        /* \"#utility.yul\":33807:33900   */\n      tag_973\n        /* \"#utility.yul\":33896:33899   */\n      dup3\n        /* \"#utility.yul\":33807:33900   */\n      tag_611\n      jump\t// in\n    tag_973:\n        /* \"#utility.yul\":33925:33927   */\n      0x20\n        /* \"#utility.yul\":33920:33923   */\n      dup3\n        /* \"#utility.yul\":33916:33928   */\n      add\n        /* \"#utility.yul\":33909:33928   */\n      swap1\n      pop\n        /* \"#utility.yul\":33568:33934   */\n      swap2\n      swap1\n      pop\n      jump\t// out\n        /* \"#utility.yul\":33940:34359   */\n    tag_379:\n        /* \"#utility.yul\":34106:34110   */\n      0x00\n        /* \"#utility.yul\":34144:34146   */\n      0x20\n        /* \"#utility.yul\":34133:34142   */\n      dup3\n        /* \"#utility.yul\":34129:34147   */\n      add\n        /* \"#utility.yul\":34121:34147   */\n      swap1\n      pop\n        /* \"#utility.yul\":34193:34202   */\n      dup2\n        /* \"#utility.yul\":34187:34191   */\n      dup2\n        /* \"#utility.yul\":34183:34203   */\n      sub\n        /* \"#utility.yul\":34179:34180   */\n      0x00\n        /* \"#utility.yul\":34168:34177   */\n      dup4\n        /* \"#utility.yul\":34164:34181   */\n      add\n        /* \"#utility.yul\":34157:34204   */\n      mstore\n        /* \"#utility.yul\":34221:34352   */\n      tag_975\n        /* \"#utility.yul\":34347:34351   */\n      dup2\n        /* \"#utility.yul\":34221:34352   */\n      tag_612\n      jump\t// in\n    tag_975:\n        /* \"#utility.yul\":34213:34352   */\n      swap1\n      pop\n        /* \"#utility.yul\":33940:34359   */\n      swap2\n      swap1\n      pop\n      jump\t// out\n        /* \"#utility.yul\":34365:34512   */\n    tag_613:\n        /* \"#utility.yul\":34466:34477   */\n      0x00\n        /* \"#utility.yul\":34503:34506   */\n      dup2\n        /* \"#utility.yul\":34488:34506   */\n      swap1\n      pop\n        /* \"#utility.yul\":34365:34512   */\n      swap3\n      swap2\n      pop\n      pop\n      jump\t// out\n        /* \"#utility.yul\":34518:34662   */\n    tag_614:\n        /* \"#utility.yul\":34570:34574   */\n      0x00\n        /* \"#utility.yul\":34593:34596   */\n      dup2\n        /* \"#utility.yul\":34585:34596   */\n      swap1\n      pop\n        /* \"#utility.yul\":34616:34619   */\n      dup2\n        /* \"#utility.yul\":34613:34614   */\n      0x00\n        /* \"#utility.yul\":34606:34620   */\n      mstore\n        /* \"#utility.yul\":34650:34654   */\n      0x20\n        /* \"#utility.yul\":34647:34648   */\n      0x00\n        /* \"#utility.yul\":34637:34655   */\n      keccak256\n        /* \"#utility.yul\":34629:34655   */\n      swap1\n      pop\n        /* \"#utility.yul\":34518:34662   */\n      swap2\n      swap1\n      pop\n      jump\t// out\n        /* \"#utility.yul\":34690:35568   */\n    tag_615:\n        /* \"#utility.yul\":34795:34798   */\n      0x00\n        /* \"#utility.yul\":34832:34837   */\n      dup2\n        /* \"#utility.yul\":34826:34838   */\n      sload\n        /* \"#utility.yul\":34861:34897   */\n      tag_979\n        /* \"#utility.yul\":34887:34896   */\n      dup2\n        /* \"#utility.yul\":34861:34897   */\n      tag_172\n      jump\t// in\n    tag_979:\n        /* \"#utility.yul\":34913:35001   */\n      tag_980\n        /* \"#utility.yul\":34994:35000   */\n      dup2\n        /* \"#utility.yul\":34989:34992   */\n      dup7\n        /* \"#utility.yul\":34913:35001   */\n      tag_613\n      jump\t// in\n    tag_980:\n        /* \"#utility.yul\":34906:35001   */\n      swap5\n      pop\n        /* \"#utility.yul\":35032:35033   */\n      0x01\n        /* \"#utility.yul\":35021:35030   */\n      dup3\n        /* \"#utility.yul\":35017:35034   */\n      and\n        /* \"#utility.yul\":35048:35049   */\n      0x00\n        /* \"#utility.yul\":35043:35209   */\n      dup2\n      eq\n      tag_982\n      jumpi\n        /* \"#utility.yul\":35223:35224   */\n      0x01\n        /* \"#utility.yul\":35218:35562   */\n      dup2\n      eq\n      tag_983\n      jumpi\n        /* \"#utility.yul\":35010:35562   */\n      jump(tag_981)\n        /* \"#utility.yul\":35043:35209   */\n    tag_982:\n        /* \"#utility.yul\":35127:35131   */\n      0xff\n        /* \"#utility.yul\":35123:35132   */\n      not\n        /* \"#utility.yul\":35112:35121   */\n      dup4\n        /* \"#utility.yul\":35108:35133   */\n      and\n        /* \"#utility.yul\":35103:35106   */\n      dup7\n        /* \"#utility.yul\":35096:35134   */\n      mstore\n        /* \"#utility.yul\":35189:35195   */\n      dup2\n        /* \"#utility.yul\":35182:35196   */\n      iszero\n        /* \"#utility.yul\":35175:35197   */\n      iszero\n        /* \"#utility.yul\":35167:35173   */\n      dup3\n        /* \"#utility.yul\":35163:35198   */\n      mul\n        /* \"#utility.yul\":35158:35161   */\n      dup7\n        /* \"#utility.yul\":35154:35199   */\n      add\n        /* \"#utility.yul\":35147:35199   */\n      swap4\n      pop\n        /* \"#utility.yul\":35043:35209   */\n      jump(tag_981)\n        /* \"#utility.yul\":35218:35562   */\n    tag_983:\n        /* \"#utility.yul\":35285:35326   */\n      tag_984\n        /* \"#utility.yul\":35320:35325   */\n      dup6\n        /* \"#utility.yul\":35285:35326   */\n      tag_614\n      jump\t// in\n    tag_984:\n        /* \"#utility.yul\":35348:35349   */\n      0x00\n        /* \"#utility.yul\":35362:35516   */\n    tag_985:\n        /* \"#utility.yul\":35376:35382   */\n      dup4\n        /* \"#utility.yul\":35373:35374   */\n      dup2\n        /* \"#utility.yul\":35370:35383   */\n      lt\n        /* \"#utility.yul\":35362:35516   */\n      iszero\n      tag_987\n      jumpi\n        /* \"#utility.yul\":35450:35457   */\n      dup2\n        /* \"#utility.yul\":35444:35458   */\n      sload\n        /* \"#utility.yul\":35440:35441   */\n      dup2\n        /* \"#utility.yul\":35435:35438   */\n      dup10\n        /* \"#utility.yul\":35431:35442   */\n      add\n        /* \"#utility.yul\":35424:35459   */\n      mstore\n        /* \"#utility.yul\":35500:35501   */\n      0x01\n        /* \"#utility.yul\":35491:35498   */\n      dup3\n        /* \"#utility.yul\":35487:35502   */\n      add\n        /* \"#utility.yul\":35476:35502   */\n      swap2\n      pop\n        /* \"#utility.yul\":35398:35402   */\n      0x20\n        /* \"#utility.yul\":35395:35396   */\n      dup2\n        /* \"#utility.yul\":35391:35403   */\n      add\n        /* \"#utility.yul\":35386:35403   */\n      swap1\n      pop\n        /* \"#utility.yul\":35362:35516   */\n      jump(tag_985)\n    tag_987:\n        /* \"#utility.yul\":35545:35551   */\n      dup4\n        /* \"#utility.yul\":35540:35543   */\n      dup9\n        /* \"#utility.yul\":35536:35552   */\n      add\n        /* \"#utility.yul\":35529:35552   */\n      swap6\n      pop\n        /* \"#utility.yul\":35225:35562   */\n      pop\n      pop\n        /* \"#utility.yul\":35010:35562   */\n    tag_981:\n      pop\n        /* \"#utility.yul\":34799:35568   */\n      pop\n      pop\n        /* \"#utility.yul\":34690:35568   */\n      swap3\n      swap2\n      pop\n      pop\n      jump\t// out\n        /* \"#utility.yul\":35574:35847   */\n    tag_387:\n        /* \"#utility.yul\":35705:35708   */\n      0x00\n        /* \"#utility.yul\":35727:35821   */\n      tag_989\n        /* \"#utility.yul\":35817:35820   */\n      dup3\n        /* \"#utility.yul\":35808:35814   */\n      dup5\n        /* \"#utility.yul\":35727:35821   */\n      tag_615\n      jump\t// in\n    tag_989:\n        /* \"#utility.yul\":35720:35821   */\n      swap2\n      pop\n        /* \"#utility.yul\":35838:35841   */\n      dup2\n        /* \"#utility.yul\":35831:35841   */\n      swap1\n      pop\n        /* \"#utility.yul\":35574:35847   */\n      swap3\n      swap2\n      pop\n      pop\n      jump\t// out\n\n    auxdata: 0xa26469706673582212204358fe04d5329f592504cb3d7fd5ddc59c18d67e2f7aa1f2a64f6c52de7c523a64736f6c63430008150033\n}\n",
				"bytecode": {
					"linkReferences": {},
					"object": "608060405234801561000f575f80fd5b503360015f6101000a81548173ffffffffffffffffffffffffffffffffffffffff021916908373ffffffffffffffffffffffffffffffffffffffff1602179055506145d58061005d5f395ff3fe608060405260043610610164575f3560e01c80637555bf10116100d0578063a1ba90b611610089578063d55768dd11610063578063d55768dd14610523578063da76af311461055f578063f67a2ad11461057b578063fecd8f79146105a357610164565b8063a1ba90b6146104a8578063a87430ba146104d0578063d18a524a1461050d57610164565b80637555bf10146103ae5780637eb33a58146103d6578063805553e8146103fe578063861c2b6d1461043a5780638da5cb5b146104625780639f1cd5871461048c57610164565b80634f424547116101225780634f4245471461028f57806350b44712146102cf57806355dea0b31461030c57806362dd748c1461033457806366d0dc67146103705780636f7647081461038657610164565b80628de16a146101685780631cc117211461019057806327b90b1b146101d15780633d527883146102115780633dfe7dee14610251578063410085df14610267575b5f80fd5b348015610173575f80fd5b5061018e60048036038101906101899190613337565b6105bf565b005b34801561019b575f80fd5b506101b660048036038101906101b191906133bb565b61084c565b6040516101c896959493929190613531565b60405180910390f35b3480156101dc575f80fd5b506101f760048036038101906101f291906135c1565b610964565b6040516102089594939291906135ff565b60405180910390f35b34801561021c575f80fd5b50610237600480360381019061023291906135c1565b610a55565b6040516102489594939291906135ff565b60405180910390f35b34801561025c575f80fd5b50610265610b46565b005b348015610272575f80fd5b5061028d600480360381019061028891906135c1565b610be6565b005b34801561029a575f80fd5b506102b560048036038101906102b091906135c1565b610fa3565b6040516102c69594939291906135ff565b60405180910390f35b3480156102da575f80fd5b506102f560048036038101906102f091906133bb565b611094565b60405161030392919061369d565b60405180910390f35b348015610317575f80fd5b50610332600480360381019061032d91906136e7565b6110e9565b005b34801561033f575f80fd5b5061035a6004803603810190610355919061383a565b6111c1565b6040516103679190613881565b60405180910390f35b34801561037b575f80fd5b506103846112be565b005b348015610391575f80fd5b506103ac60048036038101906103a791906133bb565b61135f565b005b3480156103b9575f80fd5b506103d460048036038101906103cf91906138a1565b611490565b005b3480156103e1575f80fd5b506103fc60048036038101906103f79190613926565b6117f0565b005b348015610409575f80fd5b50610424600480360381019061041f91906133bb565b6119bb565b6040516104319190613964565b60405180910390f35b348015610445575f80fd5b50610460600480360381019061045b919061397d565b611a0b565b005b34801561046d575f80fd5b50610476611ca5565b6040516104839190613a13565b60405180910390f35b6104a660048036038101906104a19190613a2c565b611cca565b005b3480156104b3575f80fd5b506104ce60048036038101906104c99190613aac565b612651565b005b3480156104db575f80fd5b506104f660048036038101906104f19190613b06565b6126e8565b604051610504929190613b31565b60405180910390f35b348015610518575f80fd5b50610521612714565b005b34801561052e575f80fd5b506105496004803603810190610544919061383a565b6127b4565b6040516105569190613a13565b60405180910390f35b61057960048036038101906105749190613926565b6127fc565b005b348015610586575f80fd5b506105a1600480360381019061059c9190613b06565b612a67565b005b6105bd60048036038101906105b89190613b58565b612aee565b005b6001338160028111156105d5576105d4613425565b5b60035f3373ffffffffffffffffffffffffffffffffffffffff1673ffffffffffffffffffffffffffffffffffffffff1681526020019081526020015f205f015f9054906101000a900460ff16600281111561063357610632613425565b5b14610673576040517f08c379a000000000000000000000000000000000000000000000000000000000815260040161066a90613c2c565b60405180910390fd5b8073ffffffffffffffffffffffffffffffffffffffff163373ffffffffffffffffffffffffffffffffffffffff16146106e1576040517f08c379a00000000000000000000000000000000000000000000000000000000081526004016106d890613cba565b60405180910390fd5b5f6040518060a001604052803373ffffffffffffffffffffffffffffffffffffffff16815260200189815260200188815260200187878080601f0160208091040260200160405190810160405280939291908181526020018383808284375f81840152601f19601f82011690508083019250505050505050815260200185815250905060055f3373ffffffffffffffffffffffffffffffffffffffff1673ffffffffffffffffffffffffffffffffffffffff1681526020019081526020015f2081908060018154018082558091505060019003905f5260205f2090600502015f909190919091505f820151815f015f6101000a81548173ffffffffffffffffffffffffffffffffffffffff021916908373ffffffffffffffffffffffffffffffffffffffff160217905550602082015181600101556040820151816002015560608201518160030190816108359190613ed2565b506080820151816004015550505050505050505050565b6002818154811061085b575f80fd5b905f5260205f2090600502015f91509050805f015f9054906101000a900473ffffffffffffffffffffffffffffffffffffffff1690806001015f9054906101000a900473ffffffffffffffffffffffffffffffffffffffff16908060010160149054906101000a900460ff16908060020180546108d790613d05565b80601f016020809104026020016040519081016040528092919081815260200182805461090390613d05565b801561094e5780601f106109255761010080835404028352916020019161094e565b820191905f5260205f20905b81548152906001019060200180831161093157829003601f168201915b5050505050908060030154908060040154905086565b6006602052815f5260405f20818154811061097d575f80fd5b905f5260205f2090600502015f9150915050805f015f9054906101000a900473ffffffffffffffffffffffffffffffffffffffff16908060010154908060020154908060030180546109ce90613d05565b80601f01602080910402602001604051908101604052809291908181526020018280546109fa90613d05565b8015610a455780601f10610a1c57610100808354040283529160200191610a45565b820191905f5260205f20905b815481529060010190602001808311610a2857829003601f168201915b5050505050908060040154905085565b6004602052815f5260405f208181548110610a6e575f80fd5b905f5260205f2090600502015f9150915050805f015f9054906101000a900473ffffffffffffffffffffffffffffffffffffffff1690806001015490806002015490806003018054610abf90613d05565b80601f0160208091040260200160405190810160405280929190818152602001828054610aeb90613d05565b8015610b365780601f10610b0d57610100808354040283529160200191610b36565b820191905f5260205f20905b815481529060010190602001808311610b1957829003601f168201915b5050505050908060040154905085565b6040518060400160405280600280811115610b6457610b63613425565b5b81526020015f81525060035f3373ffffffffffffffffffffffffffffffffffffffff1673ffffffffffffffffffffffffffffffffffffffff1681526020019081526020015f205f820151815f015f6101000a81548160ff02191690836002811115610bd257610bd1613425565b5b021790555060208201518160010155905050565b60055f8373ffffffffffffffffffffffffffffffffffffffff1673ffffffffffffffffffffffffffffffffffffffff1681526020019081526020015f208181548110610c3557610c34613fa1565b5b905f5260205f2090600502016004015460045f3373ffffffffffffffffffffffffffffffffffffffff1673ffffffffffffffffffffffffffffffffffffffff1681526020019081526020015f208281548110610c9457610c93613fa1565b5b905f5260205f2090600502016004015411610cad575f80fd5b5f670de0b6b3a764000060055f8573ffffffffffffffffffffffffffffffffffffffff1673ffffffffffffffffffffffffffffffffffffffff1681526020019081526020015f208381548110610d0657610d05613fa1565b5b905f5260205f2090600502016002015460045f3373ffffffffffffffffffffffffffffffffffffffff1673ffffffffffffffffffffffffffffffffffffffff1681526020019081526020015f208481548110610d6557610d64613fa1565b5b905f5260205f20906005020160010154610d7f9190613ffb565b610d899190613ffb565b905060045f3373ffffffffffffffffffffffffffffffffffffffff1673ffffffffffffffffffffffffffffffffffffffff1681526020019081526020015f208281548110610dda57610dd9613fa1565b5b905f5260205f2090600502016001015460055f8573ffffffffffffffffffffffffffffffffffffffff1673ffffffffffffffffffffffffffffffffffffffff1681526020019081526020015f208381548110610e3957610e38613fa1565b5b905f5260205f2090600502016001015f828254610e56919061403c565b9250508190555060045f3373ffffffffffffffffffffffffffffffffffffffff1673ffffffffffffffffffffffffffffffffffffffff1681526020019081526020015f208281548110610eac57610eab613fa1565b5b905f5260205f2090600502015f8082015f6101000a81549073ffffffffffffffffffffffffffffffffffffffff0219169055600182015f9055600282015f9055600382015f610efb919061323a565b600482015f905550508060035f8573ffffffffffffffffffffffffffffffffffffffff1673ffffffffffffffffffffffffffffffffffffffff1681526020019081526020015f206001015f828254610f53919061406f565b925050819055503373ffffffffffffffffffffffffffffffffffffffff166108fc8290811502906040515f60405180830381858888f19350505050158015610f9d573d5f803e3d5ffd5b50505050565b6005602052815f5260405f208181548110610fbc575f80fd5b905f5260205f2090600502015f9150915050805f015f9054906101000a900473ffffffffffffffffffffffffffffffffffffffff169080600101549080600201549080600301805461100d90613d05565b80601f016020809104026020016040519081016040528092919081815260200182805461103990613d05565b80156110845780601f1061105b57610100808354040283529160200191611084565b820191905f5260205f20905b81548152906001019060200180831161106757829003601f168201915b5050505050908060040154905085565b5f81815481106110a2575f80fd5b905f5260205f20015f91509050805f015f9054906101000a900473ffffffffffffffffffffffffffffffffffffffff1690805f0160149054906101000a900460ff16905082565b5f60405180604001604052803373ffffffffffffffffffffffffffffffffffffffff16815260200183600281111561112457611123613425565b5b815250908060018154018082558091505060019003905f5260205f20015f909190919091505f820151815f015f6101000a81548173ffffffffffffffffffffffffffffffffffffffff021916908373ffffffffffffffffffffffffffffffffffffffff1602179055506020820151815f0160146101000a81548160ff021916908360028111156111b7576111b6613425565b5b0217905550505050565b60605f8290505f5b81518110156112b45760618282815181106111e7576111e6613fa1565b5b602001015160f81c60f81b60f81c60ff161015801561122a5750607a82828151811061121657611215613fa1565b5b602001015160f81c60f81b60f81c60ff1611155b156112a157602082828151811061124457611243613fa1565b5b602001015160f81c60f81b60f81c61125c91906140ae565b60f81b82828151811061127257611271613fa1565b5b60200101907effffffffffffffffffffffffffffffffffffffffffffffffffffffffffffff191690815f1a9053505b80806112ac906140e2565b9150506111c9565b5080915050919050565b6040518060400160405280600160028111156112dd576112dc613425565b5b81526020015f81525060035f3373ffffffffffffffffffffffffffffffffffffffff1673ffffffffffffffffffffffffffffffffffffffff1681526020019081526020015f205f820151815f015f6101000a81548160ff0219169083600281111561134b5761134a613425565b5b021790555060208201518160010155905050565b60015f9054906101000a900473ffffffffffffffffffffffffffffffffffffffff1673ffffffffffffffffffffffffffffffffffffffff163373ffffffffffffffffffffffffffffffffffffffff16146113b7575f80fd5b5f8082815481106113cb576113ca613fa1565b5b905f5260205f20015f015f9054906101000a900473ffffffffffffffffffffffffffffffffffffffff1690505f80838154811061140b5761140a613fa1565b5b905f5260205f20015f0160149054906101000a900460ff1690508060035f8473ffffffffffffffffffffffffffffffffffffffff1673ffffffffffffffffffffffffffffffffffffffff1681526020019081526020015f205f015f6101000a81548160ff0219169083600281111561148657611485613425565b5b0217905550505050565b5f81116114d2576040517f08c379a00000000000000000000000000000000000000000000000000000000081526004016114c990614199565b60405180910390fd5b60055f8473ffffffffffffffffffffffffffffffffffffffff1673ffffffffffffffffffffffffffffffffffffffff1681526020019081526020015f20805490508210611554576040517f08c379a000000000000000000000000000000000000000000000000000000000815260040161154b90614201565b60405180910390fd5b5f60055f8573ffffffffffffffffffffffffffffffffffffffff1673ffffffffffffffffffffffffffffffffffffffff1681526020019081526020015f2083815481106115a4576115a3613fa1565b5b905f5260205f20906005020160030180546115be90613d05565b80601f01602080910402602001604051908101604052809291908181526020018280546115ea90613d05565b80156116355780601f1061160c57610100808354040283529160200191611635565b820191905f5260205f20905b81548152906001019060200180831161161857829003601f168201915b505050505090505f8160405160200161164e91906142a5565b6040516020818303038152906040529050611668816111c1565b90505f6040518060c001604052803373ffffffffffffffffffffffffffffffffffffffff1681526020018773ffffffffffffffffffffffffffffffffffffffff168152602001600160038111156116c2576116c1613425565b5b8152602001838152602001868152602001858152509050600281908060018154018082558091505060019003905f5260205f2090600502015f909190919091505f820151815f015f6101000a81548173ffffffffffffffffffffffffffffffffffffffff021916908373ffffffffffffffffffffffffffffffffffffffff1602179055506020820151816001015f6101000a81548173ffffffffffffffffffffffffffffffffffffffff021916908373ffffffffffffffffffffffffffffffffffffffff16021790555060408201518160010160146101000a81548160ff021916908360038111156117b7576117b6613425565b5b021790555060608201518160020190816117d19190613ed2565b506080820151816003015560a082015181600401555050505050505050565b60013381600281111561180657611805613425565b5b60035f3373ffffffffffffffffffffffffffffffffffffffff1673ffffffffffffffffffffffffffffffffffffffff1681526020019081526020015f205f015f9054906101000a900460ff16600281111561186457611863613425565b5b146118a4576040517f08c379a000000000000000000000000000000000000000000000000000000000815260040161189b90613c2c565b60405180910390fd5b8073ffffffffffffffffffffffffffffffffffffffff163373ffffffffffffffffffffffffffffffffffffffff1614611912576040517f08c379a000000000000000000000000000000000000000000000000000000000815260040161190990613cba565b60405180910390fd5b83156119695760016002848154811061192e5761192d613fa1565b5b905f5260205f20906005020160010160146101000a81548160ff0219169083600381111561195f5761195e613425565b5b02179055506119b5565b600280848154811061197e5761197d613fa1565b5b905f5260205f20906005020160010160146101000a81548160ff021916908360038111156119af576119ae613425565b5b02179055505b50505050565b5f8080806119c8906140e2565b915050824233836040516020016119e19392919061433e565b604051602081830303815290604052805190602001205f1c611a0391906143a7565b915050919050565b600281816002811115611a2157611a20613425565b5b60035f3373ffffffffffffffffffffffffffffffffffffffff1673ffffffffffffffffffffffffffffffffffffffff1681526020019081526020015f205f015f9054906101000a900460ff166002811115611a7f57611a7e613425565b5b14611abf576040517f08c379a0000000000000000000000000000000000000000000000000000000008152600401611ab690613c2c565b60405180910390fd5b8073ffffffffffffffffffffffffffffffffffffffff163373ffffffffffffffffffffffffffffffffffffffff1614611b2d576040517f08c379a0000000000000000000000000000000000000000000000000000000008152600401611b2490613cba565b60405180910390fd5b5f6040518060a001604052808573ffffffffffffffffffffffffffffffffffffffff1681526020018a815260200160028a611b6891906143d7565b815260200188888080601f0160208091040260200160405190810160405280939291908181526020018383808284375f81840152601f19601f82011690508083019250505050505050815260200186815250905060065f8573ffffffffffffffffffffffffffffffffffffffff1673ffffffffffffffffffffffffffffffffffffffff1681526020019081526020015f2081908060018154018082558091505060019003905f5260205f2090600502015f909190919091505f820151815f015f6101000a81548173ffffffffffffffffffffffffffffffffffffffff021916908373ffffffffffffffffffffffffffffffffffffffff16021790555060208201518160010155604082015181600201556060820151816003019081611c8d9190613ed2565b50608082015181600401555050505050505050505050565b60015f9054906101000a900473ffffffffffffffffffffffffffffffffffffffff1681565b5f6002811115611cdd57611cdc613425565b5b60035f3373ffffffffffffffffffffffffffffffffffffffff1673ffffffffffffffffffffffffffffffffffffffff1681526020019081526020015f205f015f9054906101000a900460ff166002811115611d3b57611d3a613425565b5b03611ddf5760405180604001604052805f6002811115611d5e57611d5d613425565b5b81526020015f81525060035f3373ffffffffffffffffffffffffffffffffffffffff1673ffffffffffffffffffffffffffffffffffffffff1681526020019081526020015f205f820151815f015f6101000a81548160ff02191690836002811115611dcc57611dcb613425565b5b0217905550602082015181600101559050505b5f8311611e21576040517f08c379a0000000000000000000000000000000000000000000000000000000008152600401611e1890614199565b60405180910390fd5b60055f8573ffffffffffffffffffffffffffffffffffffffff1673ffffffffffffffffffffffffffffffffffffffff1681526020019081526020015f20805490508210611ea3576040517f08c379a0000000000000000000000000000000000000000000000000000000008152600401611e9a90614201565b60405180910390fd5b60055f8573ffffffffffffffffffffffffffffffffffffffff1673ffffffffffffffffffffffffffffffffffffffff1681526020019081526020015f208281548110611ef257611ef1613fa1565b5b905f5260205f20906005020160010154831115611f44576040517f08c379a0000000000000000000000000000000000000000000000000000000008152600401611f3b90614451565b60405180910390fd5b5f670de0b6b3a764000060055f8773ffffffffffffffffffffffffffffffffffffffff1673ffffffffffffffffffffffffffffffffffffffff1681526020019081526020015f208481548110611f9d57611f9c613fa1565b5b905f5260205f2090600502016002015485611fb89190613ffb565b611fc29190613ffb565b90503373ffffffffffffffffffffffffffffffffffffffff16600783604051611feb919061446f565b90815260200160405180910390205f9054906101000a900473ffffffffffffffffffffffffffffffffffffffff1673ffffffffffffffffffffffffffffffffffffffff16036120ac576064605a826120439190613ffb565b61204d91906143d7565b90505f600783604051612060919061446f565b90815260200160405180910390205f6101000a81548173ffffffffffffffffffffffffffffffffffffffff021916908373ffffffffffffffffffffffffffffffffffffffff1602179055505b803410156120ef576040517f08c379a00000000000000000000000000000000000000000000000000000000081526004016120e6906144cf565b60405180910390fd5b5f805b60045f3373ffffffffffffffffffffffffffffffffffffffff1673ffffffffffffffffffffffffffffffffffffffff1681526020019081526020015f20805490508110156122b55760045f8873ffffffffffffffffffffffffffffffffffffffff1673ffffffffffffffffffffffffffffffffffffffff1681526020019081526020015f20858154811061218957612188613fa1565b5b905f5260205f2090600502016003016040516121a59190614589565b604051809103902060045f3373ffffffffffffffffffffffffffffffffffffffff1673ffffffffffffffffffffffffffffffffffffffff1681526020019081526020015f2082815481106121fc576121fb613fa1565b5b905f5260205f2090600502016003016040516122189190614589565b6040518091039020036122a2578560045f3373ffffffffffffffffffffffffffffffffffffffff1673ffffffffffffffffffffffffffffffffffffffff1681526020019081526020015f20828154811061227557612274613fa1565b5b905f5260205f2090600502016001015f828254612292919061403c565b92505081905550600191506122b5565b80806122ad906140e2565b9150506120f2565b5080612527575f6040518060a001604052803373ffffffffffffffffffffffffffffffffffffffff16815260200187815260200160055f8a73ffffffffffffffffffffffffffffffffffffffff1673ffffffffffffffffffffffffffffffffffffffff1681526020019081526020015f20878154811061233857612337613fa1565b5b905f5260205f20906005020160020154815260200160055f8a73ffffffffffffffffffffffffffffffffffffffff1673ffffffffffffffffffffffffffffffffffffffff1681526020019081526020015f20878154811061239c5761239b613fa1565b5b905f5260205f20906005020160030180546123b690613d05565b80601f01602080910402602001604051908101604052809291908181526020018280546123e290613d05565b801561242d5780601f106124045761010080835404028352916020019161242d565b820191905f5260205f20905b81548152906001019060200180831161241057829003601f168201915b505050505081526020016124426103e86119bb565b815250905060045f3373ffffffffffffffffffffffffffffffffffffffff1673ffffffffffffffffffffffffffffffffffffffff1681526020019081526020015f2081908060018154018082558091505060019003905f5260205f2090600502015f909190919091505f820151815f015f6101000a81548173ffffffffffffffffffffffffffffffffffffffff021916908373ffffffffffffffffffffffffffffffffffffffff160217905550602082015181600101556040820151816002015560608201518160030190816125189190613ed2565b50608082015181600401555050505b8460055f8873ffffffffffffffffffffffffffffffffffffffff1673ffffffffffffffffffffffffffffffffffffffff1681526020019081526020015f20858154811061257757612576613fa1565b5b905f5260205f2090600502016001015f828254612594919061406f565b925050819055508160035f8873ffffffffffffffffffffffffffffffffffffffff1673ffffffffffffffffffffffffffffffffffffffff1681526020019081526020015f206001015f8282546125ea919061403c565b9250508190555081341115612649573373ffffffffffffffffffffffffffffffffffffffff166108fc833461261f919061406f565b90811502906040515f60405180830381858888f19350505050158015612647573d5f803e3d5ffd5b505b505050505050565b8073ffffffffffffffffffffffffffffffffffffffff163373ffffffffffffffffffffffffffffffffffffffff1603612688575f80fd5b80600783604051612699919061446f565b90815260200160405180910390205f6101000a81548173ffffffffffffffffffffffffffffffffffffffff021916908373ffffffffffffffffffffffffffffffffffffffff1602179055505050565b6003602052805f5260405f205f91509050805f015f9054906101000a900460ff16908060010154905082565b60405180604001604052805f600281111561273257612731613425565b5b81526020015f81525060035f3373ffffffffffffffffffffffffffffffffffffffff1673ffffffffffffffffffffffffffffffffffffffff1681526020019081526020015f205f820151815f015f6101000a81548160ff021916908360028111156127a05761279f613425565b5b021790555060208201518160010155905050565b6007818051602081018201805184825260208301602085012081835280955050505050505f915054906101000a900473ffffffffffffffffffffffffffffffffffffffff1681565b5f3381600281111561281157612810613425565b5b60035f3373ffffffffffffffffffffffffffffffffffffffff1673ffffffffffffffffffffffffffffffffffffffff1681526020019081526020015f205f015f9054906101000a900460ff16600281111561286f5761286e613425565b5b146128af576040517f08c379a00000000000000000000000000000000000000000000000000000000081526004016128a690613c2c565b60405180910390fd5b8073ffffffffffffffffffffffffffffffffffffffff163373ffffffffffffffffffffffffffffffffffffffff161461291d576040517f08c379a000000000000000000000000000000000000000000000000000000000815260040161291490613cba565b60405180910390fd5b6001600381111561293157612930613425565b5b6002848154811061294557612944613fa1565b5b905f5260205f20906005020160010160149054906101000a900460ff16600381111561297457612973613425565b5b1461297d575f80fd5b8315612a0757612a026002848154811061299a57612999613fa1565b5b905f5260205f2090600502016001015f9054906101000a900473ffffffffffffffffffffffffffffffffffffffff16600285815481106129dd576129dc613fa1565b5b905f5260205f209060050201600401548560405180602001604052805f815250611cca565b612a61565b60026003811115612a1b57612a1a613425565b5b60028481548110612a2f57612a2e613fa1565b5b905f5260205f20906005020160010160149054906101000a900460ff166003811115612a5e57612a5d613425565b5b50505b50505050565b8073ffffffffffffffffffffffffffffffffffffffff166108fc60035f8473ffffffffffffffffffffffffffffffffffffffff1673ffffffffffffffffffffffffffffffffffffffff1681526020019081526020015f206001015490811502906040515f60405180830381858888f19350505050158015612aea573d5f803e3d5ffd5b5050565b600184816002811115612b0457612b03613425565b5b60035f3373ffffffffffffffffffffffffffffffffffffffff1673ffffffffffffffffffffffffffffffffffffffff1681526020019081526020015f205f015f9054906101000a900460ff166002811115612b6257612b61613425565b5b14612ba2576040517f08c379a0000000000000000000000000000000000000000000000000000000008152600401612b9990613c2c565b60405180910390fd5b8073ffffffffffffffffffffffffffffffffffffffff163373ffffffffffffffffffffffffffffffffffffffff1614612c10576040517f08c379a0000000000000000000000000000000000000000000000000000000008152600401612c0790613cba565b60405180910390fd5b5f8411612c52576040517f08c379a0000000000000000000000000000000000000000000000000000000008152600401612c4990614199565b60405180910390fd5b60065f8473ffffffffffffffffffffffffffffffffffffffff1673ffffffffffffffffffffffffffffffffffffffff1681526020019081526020015f20805490508510612cd4576040517f08c379a0000000000000000000000000000000000000000000000000000000008152600401612ccb90614201565b60405180910390fd5b5f60065f8573ffffffffffffffffffffffffffffffffffffffff1673ffffffffffffffffffffffffffffffffffffffff1681526020019081526020015f208681548110612d2457612d23613fa1565b5b905f5260205f2090600502016002015490505f670de0b6b3a76400008683612d4c9190613ffb565b612d569190613ffb565b905080341015612d9b576040517f08c379a0000000000000000000000000000000000000000000000000000000008152600401612d92906144cf565b60405180910390fd5b5f60065f8773ffffffffffffffffffffffffffffffffffffffff1673ffffffffffffffffffffffffffffffffffffffff1681526020019081526020015f208881548110612deb57612dea613fa1565b5b905f5260205f2090600502016003018054612e0590613d05565b80601f0160208091040260200160405190810160405280929190818152602001828054612e3190613d05565b8015612e7c5780601f10612e5357610100808354040283529160200191612e7c565b820191905f5260205f20905b815481529060010190602001808311612e5f57829003601f168201915b505050505090505f805b60055f8c73ffffffffffffffffffffffffffffffffffffffff1673ffffffffffffffffffffffffffffffffffffffff1681526020019081526020015f2080549050811015612fde5760055f8c73ffffffffffffffffffffffffffffffffffffffff1673ffffffffffffffffffffffffffffffffffffffff1681526020019081526020015f208181548110612f1d57612f1c613fa1565b5b905f5260205f209060050201600301604051612f399190614589565b6040518091039020838051906020012003612fcb578860055f8d73ffffffffffffffffffffffffffffffffffffffff1673ffffffffffffffffffffffffffffffffffffffff1681526020019081526020015f208281548110612f9e57612f9d613fa1565b5b905f5260205f2090600502016001015f828254612fbb919061403c565b9250508190555060019150612fde565b8080612fd6906140e2565b915050612e86565b5080613162575f6040518060a001604052808973ffffffffffffffffffffffffffffffffffffffff1681526020018a815260200186815260200184815260200160065f8b73ffffffffffffffffffffffffffffffffffffffff1673ffffffffffffffffffffffffffffffffffffffff1681526020019081526020015f208c8154811061306d5761306c613fa1565b5b905f5260205f20906005020160040154815250905060055f8c73ffffffffffffffffffffffffffffffffffffffff1673ffffffffffffffffffffffffffffffffffffffff1681526020019081526020015f2081908060018154018082558091505060019003905f5260205f2090600502015f909190919091505f820151815f015f6101000a81548173ffffffffffffffffffffffffffffffffffffffff021916908373ffffffffffffffffffffffffffffffffffffffff160217905550602082015181600101556040820151816002015560608201518160030190816131539190613ed2565b50608082015181600401555050505b8760065f8973ffffffffffffffffffffffffffffffffffffffff1673ffffffffffffffffffffffffffffffffffffffff1681526020019081526020015f208a815481106131b2576131b1613fa1565b5b905f5260205f2090600502016001015f8282546131cf919061406f565b925050819055508234111561322e573373ffffffffffffffffffffffffffffffffffffffff166108fc8434613204919061406f565b90811502906040515f60405180830381858888f1935050505015801561322c573d5f803e3d5ffd5b505b50505050505050505050565b50805461324690613d05565b5f825580601f106132575750613274565b601f0160209004905f5260205f20908101906132739190613277565b5b50565b5b8082111561328e575f815f905550600101613278565b5090565b5f604051905090565b5f80fd5b5f80fd5b5f819050919050565b6132b5816132a3565b81146132bf575f80fd5b50565b5f813590506132d0816132ac565b92915050565b5f80fd5b5f80fd5b5f80fd5b5f8083601f8401126132f7576132f66132d6565b5b8235905067ffffffffffffffff811115613314576133136132da565b5b6020830191508360018202830111156133305761332f6132de565b5b9250929050565b5f805f805f608086880312156133505761334f61329b565b5b5f61335d888289016132c2565b955050602061336e888289016132c2565b945050604086013567ffffffffffffffff81111561338f5761338e61329f565b5b61339b888289016132e2565b935093505060606133ae888289016132c2565b9150509295509295909350565b5f602082840312156133d0576133cf61329b565b5b5f6133dd848285016132c2565b91505092915050565b5f73ffffffffffffffffffffffffffffffffffffffff82169050919050565b5f61340f826133e6565b9050919050565b61341f81613405565b82525050565b7f4e487b71000000000000000000000000000000000000000000000000000000005f52602160045260245ffd5b6004811061346357613462613425565b5b50565b5f81905061347382613452565b919050565b5f61348282613466565b9050919050565b61349281613478565b82525050565b5f81519050919050565b5f82825260208201905092915050565b5f5b838110156134cf5780820151818401526020810190506134b4565b5f8484015250505050565b5f601f19601f8301169050919050565b5f6134f482613498565b6134fe81856134a2565b935061350e8185602086016134b2565b613517816134da565b840191505092915050565b61352b816132a3565b82525050565b5f60c0820190506135445f830189613416565b6135516020830188613416565b61355e6040830187613489565b818103606083015261357081866134ea565b905061357f6080830185613522565b61358c60a0830184613522565b979650505050505050565b6135a081613405565b81146135aa575f80fd5b50565b5f813590506135bb81613597565b92915050565b5f80604083850312156135d7576135d661329b565b5b5f6135e4858286016135ad565b92505060206135f5858286016132c2565b9150509250929050565b5f60a0820190506136125f830188613416565b61361f6020830187613522565b61362c6040830186613522565b818103606083015261363e81856134ea565b905061364d6080830184613522565b9695505050505050565b6003811061366857613667613425565b5b50565b5f81905061367882613657565b919050565b5f6136878261366b565b9050919050565b6136978161367d565b82525050565b5f6040820190506136b05f830185613416565b6136bd602083018461368e565b9392505050565b600381106136d0575f80fd5b50565b5f813590506136e1816136c4565b92915050565b5f602082840312156136fc576136fb61329b565b5b5f613709848285016136d3565b91505092915050565b5f80fd5b7f4e487b71000000000000000000000000000000000000000000000000000000005f52604160045260245ffd5b61374c826134da565b810181811067ffffffffffffffff8211171561376b5761376a613716565b5b80604052505050565b5f61377d613292565b90506137898282613743565b919050565b5f67ffffffffffffffff8211156137a8576137a7613716565b5b6137b1826134da565b9050602081019050919050565b828183375f83830152505050565b5f6137de6137d98461378e565b613774565b9050828152602081018484840111156137fa576137f9613712565b5b6138058482856137be565b509392505050565b5f82601f830112613821576138206132d6565b5b81356138318482602086016137cc565b91505092915050565b5f6020828403121561384f5761384e61329b565b5b5f82013567ffffffffffffffff81111561386c5761386b61329f565b5b6138788482850161380d565b91505092915050565b5f6020820190508181035f83015261389981846134ea565b905092915050565b5f805f606084860312156138b8576138b761329b565b5b5f6138c5868287016135ad565b93505060206138d6868287016132c2565b92505060406138e7868287016132c2565b9150509250925092565b5f8115159050919050565b613905816138f1565b811461390f575f80fd5b50565b5f81359050613920816138fc565b92915050565b5f806040838503121561393c5761393b61329b565b5b5f61394985828601613912565b925050602061395a858286016132c2565b9150509250929050565b5f6020820190506139775f830184613522565b92915050565b5f805f805f8060a087890312156139975761399661329b565b5b5f6139a489828a016132c2565b96505060206139b589828a016132c2565b955050604087013567ffffffffffffffff8111156139d6576139d561329f565b5b6139e289828a016132e2565b945094505060606139f589828a016132c2565b9250506080613a0689828a016135ad565b9150509295509295509295565b5f602082019050613a265f830184613416565b92915050565b5f805f8060808587031215613a4457613a4361329b565b5b5f613a51878288016135ad565b9450506020613a62878288016132c2565b9350506040613a73878288016132c2565b925050606085013567ffffffffffffffff811115613a9457613a9361329f565b5b613aa08782880161380d565b91505092959194509250565b5f8060408385031215613ac257613ac161329b565b5b5f83013567ffffffffffffffff811115613adf57613ade61329f565b5b613aeb8582860161380d565b9250506020613afc858286016135ad565b9150509250929050565b5f60208284031215613b1b57613b1a61329b565b5b5f613b28848285016135ad565b91505092915050565b5f604082019050613b445f83018561368e565b613b516020830184613522565b9392505050565b5f805f8060808587031215613b7057613b6f61329b565b5b5f613b7d878288016135ad565b9450506020613b8e878288016132c2565b9350506040613b9f878288016132c2565b9250506060613bb0878288016135ad565b91505092959194509250565b7f596f757220726f6c6520646f6573206e6f7420616c6c6f7720746869732063685f8201527f616e676500000000000000000000000000000000000000000000000000000000602082015250565b5f613c166024836134a2565b9150613c2182613bbc565b604082019050919050565b5f6020820190508181035f830152613c4381613c0a565b9050919050565b7f5468652073686f7020646f6573206e6f74206d61746368207468652073656e645f8201527f6572000000000000000000000000000000000000000000000000000000000000602082015250565b5f613ca46022836134a2565b9150613caf82613c4a565b604082019050919050565b5f6020820190508181035f830152613cd181613c98565b9050919050565b7f4e487b71000000000000000000000000000000000000000000000000000000005f52602260045260245ffd5b5f6002820490506001821680613d1c57607f821691505b602082108103613d2f57613d2e613cd8565b5b50919050565b5f819050815f5260205f209050919050565b5f6020601f8301049050919050565b5f82821b905092915050565b5f60088302613d917fffffffffffffffffffffffffffffffffffffffffffffffffffffffffffffffff82613d56565b613d9b8683613d56565b95508019841693508086168417925050509392505050565b5f819050919050565b5f613dd6613dd1613dcc846132a3565b613db3565b6132a3565b9050919050565b5f819050919050565b613def83613dbc565b613e03613dfb82613ddd565b848454613d62565b825550505050565b5f90565b613e17613e0b565b613e22818484613de6565b505050565b5b81811015613e4557613e3a5f82613e0f565b600181019050613e28565b5050565b601f821115613e8a57613e5b81613d35565b613e6484613d47565b81016020851015613e73578190505b613e87613e7f85613d47565b830182613e27565b50505b505050565b5f82821c905092915050565b5f613eaa5f1984600802613e8f565b1980831691505092915050565b5f613ec28383613e9b565b9150826002028217905092915050565b613edb82613498565b67ffffffffffffffff811115613ef457613ef3613716565b5b613efe8254613d05565b613f09828285613e49565b5f60209050601f831160018114613f3a575f8415613f28578287015190505b613f328582613eb7565b865550613f99565b601f198416613f4886613d35565b5f5b82811015613f6f57848901518255600182019150602085019450602081019050613f4a565b86831015613f8c5784890151613f88601f891682613e9b565b8355505b6001600288020188555050505b505050505050565b7f4e487b71000000000000000000000000000000000000000000000000000000005f52603260045260245ffd5b7f4e487b71000000000000000000000000000000000000000000000000000000005f52601160045260245ffd5b5f614005826132a3565b9150614010836132a3565b925082820261401e816132a3565b9150828204841483151761403557614034613fce565b5b5092915050565b5f614046826132a3565b9150614051836132a3565b925082820190508082111561406957614068613fce565b5b92915050565b5f614079826132a3565b9150614084836132a3565b925082820390508181111561409c5761409b613fce565b5b92915050565b5f60ff82169050919050565b5f6140b8826140a2565b91506140c3836140a2565b9250828203905060ff8111156140dc576140db613fce565b5b92915050565b5f6140ec826132a3565b91507fffffffffffffffffffffffffffffffffffffffffffffffffffffffffffffffff820361411e5761411d613fce565b5b600182019050919050565b7f507572636861736520616d6f756e74206d7573742062652067726561746572205f8201527f7468616e20300000000000000000000000000000000000000000000000000000602082015250565b5f6141836026836134a2565b915061418e82614129565b604082019050919050565b5f6020820190508181035f8301526141b081614177565b9050919050565b7f496e76616c69642070726f6475637420494400000000000000000000000000005f82015250565b5f6141eb6012836134a2565b91506141f6826141b7565b602082019050919050565b5f6020820190508181035f830152614218816141df565b9050919050565b7f4141000000000000000000000000000000000000000000000000000000000000815250565b5f81905092915050565b5f61425982613498565b6142638185614245565b93506142738185602086016134b2565b80840191505092915050565b7f4242000000000000000000000000000000000000000000000000000000000000815250565b5f6142af8261421f565b6002820191506142bf828461424f565b91506142ca8261427f565b60028201915081905092915050565b5f819050919050565b6142f36142ee826132a3565b6142d9565b82525050565b5f8160601b9050919050565b5f61430f826142f9565b9050919050565b5f61432082614305565b9050919050565b61433861433382613405565b614316565b82525050565b5f61434982866142e2565b6020820191506143598285614327565b60148201915061436982846142e2565b602082019150819050949350505050565b7f4e487b71000000000000000000000000000000000000000000000000000000005f52601260045260245ffd5b5f6143b1826132a3565b91506143bc836132a3565b9250826143cc576143cb61437a565b5b828206905092915050565b5f6143e1826132a3565b91506143ec836132a3565b9250826143fc576143fb61437a565b5b828204905092915050565b7f4e6f7420656e6f7567682073746f636b20617661696c61626c650000000000005f82015250565b5f61443b601a836134a2565b915061444682614407565b602082019050919050565b5f6020820190508181035f8301526144688161442f565b9050919050565b5f61447a828461424f565b915081905092915050565b7f496e73756666696369656e742066756e64732073656e740000000000000000005f82015250565b5f6144b96017836134a2565b91506144c482614485565b602082019050919050565b5f6020820190508181035f8301526144e6816144ad565b9050919050565b5f81905092915050565b5f819050815f5260205f209050919050565b5f815461451581613d05565b61451f81866144ed565b9450600182165f8114614539576001811461454e57614580565b60ff1983168652811515820286019350614580565b614557856144f7565b5f5b8381101561457857815481890152600182019150602081019050614559565b838801955050505b50505092915050565b5f6145948284614509565b91508190509291505056fea26469706673582212204358fe04d5329f592504cb3d7fd5ddc59c18d67e2f7aa1f2a64f6c52de7c523a64736f6c63430008150033",
					"opcodes": "PUSH1 0x80 PUSH1 0x40 MSTORE CALLVALUE DUP1 ISZERO PUSH2 0xF JUMPI PUSH0 DUP1 REVERT JUMPDEST POP CALLER PUSH1 0x1 PUSH0 PUSH2 0x100 EXP DUP2 SLOAD DUP2 PUSH20 0xFFFFFFFFFFFFFFFFFFFFFFFFFFFFFFFFFFFFFFFF MUL NOT AND SWAP1 DUP4 PUSH20 0xFFFFFFFFFFFFFFFFFFFFFFFFFFFFFFFFFFFFFFFF AND MUL OR SWAP1 SSTORE POP PUSH2 0x45D5 DUP1 PUSH2 0x5D PUSH0 CODECOPY PUSH0 RETURN INVALID PUSH1 0x80 PUSH1 0x40 MSTORE PUSH1 0x4 CALLDATASIZE LT PUSH2 0x164 JUMPI PUSH0 CALLDATALOAD PUSH1 0xE0 SHR DUP1 PUSH4 0x7555BF10 GT PUSH2 0xD0 JUMPI DUP1 PUSH4 0xA1BA90B6 GT PUSH2 0x89 JUMPI DUP1 PUSH4 0xD55768DD GT PUSH2 0x63 JUMPI DUP1 PUSH4 0xD55768DD EQ PUSH2 0x523 JUMPI DUP1 PUSH4 0xDA76AF31 EQ PUSH2 0x55F JUMPI DUP1 PUSH4 0xF67A2AD1 EQ PUSH2 0x57B JUMPI DUP1 PUSH4 0xFECD8F79 EQ PUSH2 0x5A3 JUMPI PUSH2 0x164 JUMP JUMPDEST DUP1 PUSH4 0xA1BA90B6 EQ PUSH2 0x4A8 JUMPI DUP1 PUSH4 0xA87430BA EQ PUSH2 0x4D0 JUMPI DUP1 PUSH4 0xD18A524A EQ PUSH2 0x50D JUMPI PUSH2 0x164 JUMP JUMPDEST DUP1 PUSH4 0x7555BF10 EQ PUSH2 0x3AE JUMPI DUP1 PUSH4 0x7EB33A58 EQ PUSH2 0x3D6 JUMPI DUP1 PUSH4 0x805553E8 EQ PUSH2 0x3FE JUMPI DUP1 PUSH4 0x861C2B6D EQ PUSH2 0x43A JUMPI DUP1 PUSH4 0x8DA5CB5B EQ PUSH2 0x462 JUMPI DUP1 PUSH4 0x9F1CD587 EQ PUSH2 0x48C JUMPI PUSH2 0x164 JUMP JUMPDEST DUP1 PUSH4 0x4F424547 GT PUSH2 0x122 JUMPI DUP1 PUSH4 0x4F424547 EQ PUSH2 0x28F JUMPI DUP1 PUSH4 0x50B44712 EQ PUSH2 0x2CF JUMPI DUP1 PUSH4 0x55DEA0B3 EQ PUSH2 0x30C JUMPI DUP1 PUSH4 0x62DD748C EQ PUSH2 0x334 JUMPI DUP1 PUSH4 0x66D0DC67 EQ PUSH2 0x370 JUMPI DUP1 PUSH4 0x6F764708 EQ PUSH2 0x386 JUMPI PUSH2 0x164 JUMP JUMPDEST DUP1 PUSH3 0x8DE16A EQ PUSH2 0x168 JUMPI DUP1 PUSH4 0x1CC11721 EQ PUSH2 0x190 JUMPI DUP1 PUSH4 0x27B90B1B EQ PUSH2 0x1D1 JUMPI DUP1 PUSH4 0x3D527883 EQ PUSH2 0x211 JUMPI DUP1 PUSH4 0x3DFE7DEE EQ PUSH2 0x251 JUMPI DUP1 PUSH4 0x410085DF EQ PUSH2 0x267 JUMPI JUMPDEST PUSH0 DUP1 REVERT JUMPDEST CALLVALUE DUP1 ISZERO PUSH2 0x173 JUMPI PUSH0 DUP1 REVERT JUMPDEST POP PUSH2 0x18E PUSH1 0x4 DUP1 CALLDATASIZE SUB DUP2 ADD SWAP1 PUSH2 0x189 SWAP2 SWAP1 PUSH2 0x3337 JUMP JUMPDEST PUSH2 0x5BF JUMP JUMPDEST STOP JUMPDEST CALLVALUE DUP1 ISZERO PUSH2 0x19B JUMPI PUSH0 DUP1 REVERT JUMPDEST POP PUSH2 0x1B6 PUSH1 0x4 DUP1 CALLDATASIZE SUB DUP2 ADD SWAP1 PUSH2 0x1B1 SWAP2 SWAP1 PUSH2 0x33BB JUMP JUMPDEST PUSH2 0x84C JUMP JUMPDEST PUSH1 0x40 MLOAD PUSH2 0x1C8 SWAP7 SWAP6 SWAP5 SWAP4 SWAP3 SWAP2 SWAP1 PUSH2 0x3531 JUMP JUMPDEST PUSH1 0x40 MLOAD DUP1 SWAP2 SUB SWAP1 RETURN JUMPDEST CALLVALUE DUP1 ISZERO PUSH2 0x1DC JUMPI PUSH0 DUP1 REVERT JUMPDEST POP PUSH2 0x1F7 PUSH1 0x4 DUP1 CALLDATASIZE SUB DUP2 ADD SWAP1 PUSH2 0x1F2 SWAP2 SWAP1 PUSH2 0x35C1 JUMP JUMPDEST PUSH2 0x964 JUMP JUMPDEST PUSH1 0x40 MLOAD PUSH2 0x208 SWAP6 SWAP5 SWAP4 SWAP3 SWAP2 SWAP1 PUSH2 0x35FF JUMP JUMPDEST PUSH1 0x40 MLOAD DUP1 SWAP2 SUB SWAP1 RETURN JUMPDEST CALLVALUE DUP1 ISZERO PUSH2 0x21C JUMPI PUSH0 DUP1 REVERT JUMPDEST POP PUSH2 0x237 PUSH1 0x4 DUP1 CALLDATASIZE SUB DUP2 ADD SWAP1 PUSH2 0x232 SWAP2 SWAP1 PUSH2 0x35C1 JUMP JUMPDEST PUSH2 0xA55 JUMP JUMPDEST PUSH1 0x40 MLOAD PUSH2 0x248 SWAP6 SWAP5 SWAP4 SWAP3 SWAP2 SWAP1 PUSH2 0x35FF JUMP JUMPDEST PUSH1 0x40 MLOAD DUP1 SWAP2 SUB SWAP1 RETURN JUMPDEST CALLVALUE DUP1 ISZERO PUSH2 0x25C JUMPI PUSH0 DUP1 REVERT JUMPDEST POP PUSH2 0x265 PUSH2 0xB46 JUMP JUMPDEST STOP JUMPDEST CALLVALUE DUP1 ISZERO PUSH2 0x272 JUMPI PUSH0 DUP1 REVERT JUMPDEST POP PUSH2 0x28D PUSH1 0x4 DUP1 CALLDATASIZE SUB DUP2 ADD SWAP1 PUSH2 0x288 SWAP2 SWAP1 PUSH2 0x35C1 JUMP JUMPDEST PUSH2 0xBE6 JUMP JUMPDEST STOP JUMPDEST CALLVALUE DUP1 ISZERO PUSH2 0x29A JUMPI PUSH0 DUP1 REVERT JUMPDEST POP PUSH2 0x2B5 PUSH1 0x4 DUP1 CALLDATASIZE SUB DUP2 ADD SWAP1 PUSH2 0x2B0 SWAP2 SWAP1 PUSH2 0x35C1 JUMP JUMPDEST PUSH2 0xFA3 JUMP JUMPDEST PUSH1 0x40 MLOAD PUSH2 0x2C6 SWAP6 SWAP5 SWAP4 SWAP3 SWAP2 SWAP1 PUSH2 0x35FF JUMP JUMPDEST PUSH1 0x40 MLOAD DUP1 SWAP2 SUB SWAP1 RETURN JUMPDEST CALLVALUE DUP1 ISZERO PUSH2 0x2DA JUMPI PUSH0 DUP1 REVERT JUMPDEST POP PUSH2 0x2F5 PUSH1 0x4 DUP1 CALLDATASIZE SUB DUP2 ADD SWAP1 PUSH2 0x2F0 SWAP2 SWAP1 PUSH2 0x33BB JUMP JUMPDEST PUSH2 0x1094 JUMP JUMPDEST PUSH1 0x40 MLOAD PUSH2 0x303 SWAP3 SWAP2 SWAP1 PUSH2 0x369D JUMP JUMPDEST PUSH1 0x40 MLOAD DUP1 SWAP2 SUB SWAP1 RETURN JUMPDEST CALLVALUE DUP1 ISZERO PUSH2 0x317 JUMPI PUSH0 DUP1 REVERT JUMPDEST POP PUSH2 0x332 PUSH1 0x4 DUP1 CALLDATASIZE SUB DUP2 ADD SWAP1 PUSH2 0x32D SWAP2 SWAP1 PUSH2 0x36E7 JUMP JUMPDEST PUSH2 0x10E9 JUMP JUMPDEST STOP JUMPDEST CALLVALUE DUP1 ISZERO PUSH2 0x33F JUMPI PUSH0 DUP1 REVERT JUMPDEST POP PUSH2 0x35A PUSH1 0x4 DUP1 CALLDATASIZE SUB DUP2 ADD SWAP1 PUSH2 0x355 SWAP2 SWAP1 PUSH2 0x383A JUMP JUMPDEST PUSH2 0x11C1 JUMP JUMPDEST PUSH1 0x40 MLOAD PUSH2 0x367 SWAP2 SWAP1 PUSH2 0x3881 JUMP JUMPDEST PUSH1 0x40 MLOAD DUP1 SWAP2 SUB SWAP1 RETURN JUMPDEST CALLVALUE DUP1 ISZERO PUSH2 0x37B JUMPI PUSH0 DUP1 REVERT JUMPDEST POP PUSH2 0x384 PUSH2 0x12BE JUMP JUMPDEST STOP JUMPDEST CALLVALUE DUP1 ISZERO PUSH2 0x391 JUMPI PUSH0 DUP1 REVERT JUMPDEST POP PUSH2 0x3AC PUSH1 0x4 DUP1 CALLDATASIZE SUB DUP2 ADD SWAP1 PUSH2 0x3A7 SWAP2 SWAP1 PUSH2 0x33BB JUMP JUMPDEST PUSH2 0x135F JUMP JUMPDEST STOP JUMPDEST CALLVALUE DUP1 ISZERO PUSH2 0x3B9 JUMPI PUSH0 DUP1 REVERT JUMPDEST POP PUSH2 0x3D4 PUSH1 0x4 DUP1 CALLDATASIZE SUB DUP2 ADD SWAP1 PUSH2 0x3CF SWAP2 SWAP1 PUSH2 0x38A1 JUMP JUMPDEST PUSH2 0x1490 JUMP JUMPDEST STOP JUMPDEST CALLVALUE DUP1 ISZERO PUSH2 0x3E1 JUMPI PUSH0 DUP1 REVERT JUMPDEST POP PUSH2 0x3FC PUSH1 0x4 DUP1 CALLDATASIZE SUB DUP2 ADD SWAP1 PUSH2 0x3F7 SWAP2 SWAP1 PUSH2 0x3926 JUMP JUMPDEST PUSH2 0x17F0 JUMP JUMPDEST STOP JUMPDEST CALLVALUE DUP1 ISZERO PUSH2 0x409 JUMPI PUSH0 DUP1 REVERT JUMPDEST POP PUSH2 0x424 PUSH1 0x4 DUP1 CALLDATASIZE SUB DUP2 ADD SWAP1 PUSH2 0x41F SWAP2 SWAP1 PUSH2 0x33BB JUMP JUMPDEST PUSH2 0x19BB JUMP JUMPDEST PUSH1 0x40 MLOAD PUSH2 0x431 SWAP2 SWAP1 PUSH2 0x3964 JUMP JUMPDEST PUSH1 0x40 MLOAD DUP1 SWAP2 SUB SWAP1 RETURN JUMPDEST CALLVALUE DUP1 ISZERO PUSH2 0x445 JUMPI PUSH0 DUP1 REVERT JUMPDEST POP PUSH2 0x460 PUSH1 0x4 DUP1 CALLDATASIZE SUB DUP2 ADD SWAP1 PUSH2 0x45B SWAP2 SWAP1 PUSH2 0x397D JUMP JUMPDEST PUSH2 0x1A0B JUMP JUMPDEST STOP JUMPDEST CALLVALUE DUP1 ISZERO PUSH2 0x46D JUMPI PUSH0 DUP1 REVERT JUMPDEST POP PUSH2 0x476 PUSH2 0x1CA5 JUMP JUMPDEST PUSH1 0x40 MLOAD PUSH2 0x483 SWAP2 SWAP1 PUSH2 0x3A13 JUMP JUMPDEST PUSH1 0x40 MLOAD DUP1 SWAP2 SUB SWAP1 RETURN JUMPDEST PUSH2 0x4A6 PUSH1 0x4 DUP1 CALLDATASIZE SUB DUP2 ADD SWAP1 PUSH2 0x4A1 SWAP2 SWAP1 PUSH2 0x3A2C JUMP JUMPDEST PUSH2 0x1CCA JUMP JUMPDEST STOP JUMPDEST CALLVALUE DUP1 ISZERO PUSH2 0x4B3 JUMPI PUSH0 DUP1 REVERT JUMPDEST POP PUSH2 0x4CE PUSH1 0x4 DUP1 CALLDATASIZE SUB DUP2 ADD SWAP1 PUSH2 0x4C9 SWAP2 SWAP1 PUSH2 0x3AAC JUMP JUMPDEST PUSH2 0x2651 JUMP JUMPDEST STOP JUMPDEST CALLVALUE DUP1 ISZERO PUSH2 0x4DB JUMPI PUSH0 DUP1 REVERT JUMPDEST POP PUSH2 0x4F6 PUSH1 0x4 DUP1 CALLDATASIZE SUB DUP2 ADD SWAP1 PUSH2 0x4F1 SWAP2 SWAP1 PUSH2 0x3B06 JUMP JUMPDEST PUSH2 0x26E8 JUMP JUMPDEST PUSH1 0x40 MLOAD PUSH2 0x504 SWAP3 SWAP2 SWAP1 PUSH2 0x3B31 JUMP JUMPDEST PUSH1 0x40 MLOAD DUP1 SWAP2 SUB SWAP1 RETURN JUMPDEST CALLVALUE DUP1 ISZERO PUSH2 0x518 JUMPI PUSH0 DUP1 REVERT JUMPDEST POP PUSH2 0x521 PUSH2 0x2714 JUMP JUMPDEST STOP JUMPDEST CALLVALUE DUP1 ISZERO PUSH2 0x52E JUMPI PUSH0 DUP1 REVERT JUMPDEST POP PUSH2 0x549 PUSH1 0x4 DUP1 CALLDATASIZE SUB DUP2 ADD SWAP1 PUSH2 0x544 SWAP2 SWAP1 PUSH2 0x383A JUMP JUMPDEST PUSH2 0x27B4 JUMP JUMPDEST PUSH1 0x40 MLOAD PUSH2 0x556 SWAP2 SWAP1 PUSH2 0x3A13 JUMP JUMPDEST PUSH1 0x40 MLOAD DUP1 SWAP2 SUB SWAP1 RETURN JUMPDEST PUSH2 0x579 PUSH1 0x4 DUP1 CALLDATASIZE SUB DUP2 ADD SWAP1 PUSH2 0x574 SWAP2 SWAP1 PUSH2 0x3926 JUMP JUMPDEST PUSH2 0x27FC JUMP JUMPDEST STOP JUMPDEST CALLVALUE DUP1 ISZERO PUSH2 0x586 JUMPI PUSH0 DUP1 REVERT JUMPDEST POP PUSH2 0x5A1 PUSH1 0x4 DUP1 CALLDATASIZE SUB DUP2 ADD SWAP1 PUSH2 0x59C SWAP2 SWAP1 PUSH2 0x3B06 JUMP JUMPDEST PUSH2 0x2A67 JUMP JUMPDEST STOP JUMPDEST PUSH2 0x5BD PUSH1 0x4 DUP1 CALLDATASIZE SUB DUP2 ADD SWAP1 PUSH2 0x5B8 SWAP2 SWAP1 PUSH2 0x3B58 JUMP JUMPDEST PUSH2 0x2AEE JUMP JUMPDEST STOP JUMPDEST PUSH1 0x1 CALLER DUP2 PUSH1 0x2 DUP2 GT ISZERO PUSH2 0x5D5 JUMPI PUSH2 0x5D4 PUSH2 0x3425 JUMP JUMPDEST JUMPDEST PUSH1 0x3 PUSH0 CALLER PUSH20 0xFFFFFFFFFFFFFFFFFFFFFFFFFFFFFFFFFFFFFFFF AND PUSH20 0xFFFFFFFFFFFFFFFFFFFFFFFFFFFFFFFFFFFFFFFF AND DUP2 MSTORE PUSH1 0x20 ADD SWAP1 DUP2 MSTORE PUSH1 0x20 ADD PUSH0 KECCAK256 PUSH0 ADD PUSH0 SWAP1 SLOAD SWAP1 PUSH2 0x100 EXP SWAP1 DIV PUSH1 0xFF AND PUSH1 0x2 DUP2 GT ISZERO PUSH2 0x633 JUMPI PUSH2 0x632 PUSH2 0x3425 JUMP JUMPDEST JUMPDEST EQ PUSH2 0x673 JUMPI PUSH1 0x40 MLOAD PUSH32 0x8C379A000000000000000000000000000000000000000000000000000000000 DUP2 MSTORE PUSH1 0x4 ADD PUSH2 0x66A SWAP1 PUSH2 0x3C2C JUMP JUMPDEST PUSH1 0x40 MLOAD DUP1 SWAP2 SUB SWAP1 REVERT JUMPDEST DUP1 PUSH20 0xFFFFFFFFFFFFFFFFFFFFFFFFFFFFFFFFFFFFFFFF AND CALLER PUSH20 0xFFFFFFFFFFFFFFFFFFFFFFFFFFFFFFFFFFFFFFFF AND EQ PUSH2 0x6E1 JUMPI PUSH1 0x40 MLOAD PUSH32 0x8C379A000000000000000000000000000000000000000000000000000000000 DUP2 MSTORE PUSH1 0x4 ADD PUSH2 0x6D8 SWAP1 PUSH2 0x3CBA JUMP JUMPDEST PUSH1 0x40 MLOAD DUP1 SWAP2 SUB SWAP1 REVERT JUMPDEST PUSH0 PUSH1 0x40 MLOAD DUP1 PUSH1 0xA0 ADD PUSH1 0x40 MSTORE DUP1 CALLER PUSH20 0xFFFFFFFFFFFFFFFFFFFFFFFFFFFFFFFFFFFFFFFF AND DUP2 MSTORE PUSH1 0x20 ADD DUP10 DUP2 MSTORE PUSH1 0x20 ADD DUP9 DUP2 MSTORE PUSH1 0x20 ADD DUP8 DUP8 DUP1 DUP1 PUSH1 0x1F ADD PUSH1 0x20 DUP1 SWAP2 DIV MUL PUSH1 0x20 ADD PUSH1 0x40 MLOAD SWAP1 DUP2 ADD PUSH1 0x40 MSTORE DUP1 SWAP4 SWAP3 SWAP2 SWAP1 DUP2 DUP2 MSTORE PUSH1 0x20 ADD DUP4 DUP4 DUP1 DUP3 DUP5 CALLDATACOPY PUSH0 DUP2 DUP5 ADD MSTORE PUSH1 0x1F NOT PUSH1 0x1F DUP3 ADD AND SWAP1 POP DUP1 DUP4 ADD SWAP3 POP POP POP POP POP POP POP DUP2 MSTORE PUSH1 0x20 ADD DUP6 DUP2 MSTORE POP SWAP1 POP PUSH1 0x5 PUSH0 CALLER PUSH20 0xFFFFFFFFFFFFFFFFFFFFFFFFFFFFFFFFFFFFFFFF AND PUSH20 0xFFFFFFFFFFFFFFFFFFFFFFFFFFFFFFFFFFFFFFFF AND DUP2 MSTORE PUSH1 0x20 ADD SWAP1 DUP2 MSTORE PUSH1 0x20 ADD PUSH0 KECCAK256 DUP2 SWAP1 DUP1 PUSH1 0x1 DUP2 SLOAD ADD DUP1 DUP3 SSTORE DUP1 SWAP2 POP POP PUSH1 0x1 SWAP1 SUB SWAP1 PUSH0 MSTORE PUSH1 0x20 PUSH0 KECCAK256 SWAP1 PUSH1 0x5 MUL ADD PUSH0 SWAP1 SWAP2 SWAP1 SWAP2 SWAP1 SWAP2 POP PUSH0 DUP3 ADD MLOAD DUP2 PUSH0 ADD PUSH0 PUSH2 0x100 EXP DUP2 SLOAD DUP2 PUSH20 0xFFFFFFFFFFFFFFFFFFFFFFFFFFFFFFFFFFFFFFFF MUL NOT AND SWAP1 DUP4 PUSH20 0xFFFFFFFFFFFFFFFFFFFFFFFFFFFFFFFFFFFFFFFF AND MUL OR SWAP1 SSTORE POP PUSH1 0x20 DUP3 ADD MLOAD DUP2 PUSH1 0x1 ADD SSTORE PUSH1 0x40 DUP3 ADD MLOAD DUP2 PUSH1 0x2 ADD SSTORE PUSH1 0x60 DUP3 ADD MLOAD DUP2 PUSH1 0x3 ADD SWAP1 DUP2 PUSH2 0x835 SWAP2 SWAP1 PUSH2 0x3ED2 JUMP JUMPDEST POP PUSH1 0x80 DUP3 ADD MLOAD DUP2 PUSH1 0x4 ADD SSTORE POP POP POP POP POP POP POP POP POP POP JUMP JUMPDEST PUSH1 0x2 DUP2 DUP2 SLOAD DUP2 LT PUSH2 0x85B JUMPI PUSH0 DUP1 REVERT JUMPDEST SWAP1 PUSH0 MSTORE PUSH1 0x20 PUSH0 KECCAK256 SWAP1 PUSH1 0x5 MUL ADD PUSH0 SWAP2 POP SWAP1 POP DUP1 PUSH0 ADD PUSH0 SWAP1 SLOAD SWAP1 PUSH2 0x100 EXP SWAP1 DIV PUSH20 0xFFFFFFFFFFFFFFFFFFFFFFFFFFFFFFFFFFFFFFFF AND SWAP1 DUP1 PUSH1 0x1 ADD PUSH0 SWAP1 SLOAD SWAP1 PUSH2 0x100 EXP SWAP1 DIV PUSH20 0xFFFFFFFFFFFFFFFFFFFFFFFFFFFFFFFFFFFFFFFF AND SWAP1 DUP1 PUSH1 0x1 ADD PUSH1 0x14 SWAP1 SLOAD SWAP1 PUSH2 0x100 EXP SWAP1 DIV PUSH1 0xFF AND SWAP1 DUP1 PUSH1 0x2 ADD DUP1 SLOAD PUSH2 0x8D7 SWAP1 PUSH2 0x3D05 JUMP JUMPDEST DUP1 PUSH1 0x1F ADD PUSH1 0x20 DUP1 SWAP2 DIV MUL PUSH1 0x20 ADD PUSH1 0x40 MLOAD SWAP1 DUP2 ADD PUSH1 0x40 MSTORE DUP1 SWAP3 SWAP2 SWAP1 DUP2 DUP2 MSTORE PUSH1 0x20 ADD DUP3 DUP1 SLOAD PUSH2 0x903 SWAP1 PUSH2 0x3D05 JUMP JUMPDEST DUP1 ISZERO PUSH2 0x94E JUMPI DUP1 PUSH1 0x1F LT PUSH2 0x925 JUMPI PUSH2 0x100 DUP1 DUP4 SLOAD DIV MUL DUP4 MSTORE SWAP2 PUSH1 0x20 ADD SWAP2 PUSH2 0x94E JUMP JUMPDEST DUP3 ADD SWAP2 SWAP1 PUSH0 MSTORE PUSH1 0x20 PUSH0 KECCAK256 SWAP1 JUMPDEST DUP2 SLOAD DUP2 MSTORE SWAP1 PUSH1 0x1 ADD SWAP1 PUSH1 0x20 ADD DUP1 DUP4 GT PUSH2 0x931 JUMPI DUP3 SWAP1 SUB PUSH1 0x1F AND DUP3 ADD SWAP2 JUMPDEST POP POP POP POP POP SWAP1 DUP1 PUSH1 0x3 ADD SLOAD SWAP1 DUP1 PUSH1 0x4 ADD SLOAD SWAP1 POP DUP7 JUMP JUMPDEST PUSH1 0x6 PUSH1 0x20 MSTORE DUP2 PUSH0 MSTORE PUSH1 0x40 PUSH0 KECCAK256 DUP2 DUP2 SLOAD DUP2 LT PUSH2 0x97D JUMPI PUSH0 DUP1 REVERT JUMPDEST SWAP1 PUSH0 MSTORE PUSH1 0x20 PUSH0 KECCAK256 SWAP1 PUSH1 0x5 MUL ADD PUSH0 SWAP2 POP SWAP2 POP POP DUP1 PUSH0 ADD PUSH0 SWAP1 SLOAD SWAP1 PUSH2 0x100 EXP SWAP1 DIV PUSH20 0xFFFFFFFFFFFFFFFFFFFFFFFFFFFFFFFFFFFFFFFF AND SWAP1 DUP1 PUSH1 0x1 ADD SLOAD SWAP1 DUP1 PUSH1 0x2 ADD SLOAD SWAP1 DUP1 PUSH1 0x3 ADD DUP1 SLOAD PUSH2 0x9CE SWAP1 PUSH2 0x3D05 JUMP JUMPDEST DUP1 PUSH1 0x1F ADD PUSH1 0x20 DUP1 SWAP2 DIV MUL PUSH1 0x20 ADD PUSH1 0x40 MLOAD SWAP1 DUP2 ADD PUSH1 0x40 MSTORE DUP1 SWAP3 SWAP2 SWAP1 DUP2 DUP2 MSTORE PUSH1 0x20 ADD DUP3 DUP1 SLOAD PUSH2 0x9FA SWAP1 PUSH2 0x3D05 JUMP JUMPDEST DUP1 ISZERO PUSH2 0xA45 JUMPI DUP1 PUSH1 0x1F LT PUSH2 0xA1C JUMPI PUSH2 0x100 DUP1 DUP4 SLOAD DIV MUL DUP4 MSTORE SWAP2 PUSH1 0x20 ADD SWAP2 PUSH2 0xA45 JUMP JUMPDEST DUP3 ADD SWAP2 SWAP1 PUSH0 MSTORE PUSH1 0x20 PUSH0 KECCAK256 SWAP1 JUMPDEST DUP2 SLOAD DUP2 MSTORE SWAP1 PUSH1 0x1 ADD SWAP1 PUSH1 0x20 ADD DUP1 DUP4 GT PUSH2 0xA28 JUMPI DUP3 SWAP1 SUB PUSH1 0x1F AND DUP3 ADD SWAP2 JUMPDEST POP POP POP POP POP SWAP1 DUP1 PUSH1 0x4 ADD SLOAD SWAP1 POP DUP6 JUMP JUMPDEST PUSH1 0x4 PUSH1 0x20 MSTORE DUP2 PUSH0 MSTORE PUSH1 0x40 PUSH0 KECCAK256 DUP2 DUP2 SLOAD DUP2 LT PUSH2 0xA6E JUMPI PUSH0 DUP1 REVERT JUMPDEST SWAP1 PUSH0 MSTORE PUSH1 0x20 PUSH0 KECCAK256 SWAP1 PUSH1 0x5 MUL ADD PUSH0 SWAP2 POP SWAP2 POP POP DUP1 PUSH0 ADD PUSH0 SWAP1 SLOAD SWAP1 PUSH2 0x100 EXP SWAP1 DIV PUSH20 0xFFFFFFFFFFFFFFFFFFFFFFFFFFFFFFFFFFFFFFFF AND SWAP1 DUP1 PUSH1 0x1 ADD SLOAD SWAP1 DUP1 PUSH1 0x2 ADD SLOAD SWAP1 DUP1 PUSH1 0x3 ADD DUP1 SLOAD PUSH2 0xABF SWAP1 PUSH2 0x3D05 JUMP JUMPDEST DUP1 PUSH1 0x1F ADD PUSH1 0x20 DUP1 SWAP2 DIV MUL PUSH1 0x20 ADD PUSH1 0x40 MLOAD SWAP1 DUP2 ADD PUSH1 0x40 MSTORE DUP1 SWAP3 SWAP2 SWAP1 DUP2 DUP2 MSTORE PUSH1 0x20 ADD DUP3 DUP1 SLOAD PUSH2 0xAEB SWAP1 PUSH2 0x3D05 JUMP JUMPDEST DUP1 ISZERO PUSH2 0xB36 JUMPI DUP1 PUSH1 0x1F LT PUSH2 0xB0D JUMPI PUSH2 0x100 DUP1 DUP4 SLOAD DIV MUL DUP4 MSTORE SWAP2 PUSH1 0x20 ADD SWAP2 PUSH2 0xB36 JUMP JUMPDEST DUP3 ADD SWAP2 SWAP1 PUSH0 MSTORE PUSH1 0x20 PUSH0 KECCAK256 SWAP1 JUMPDEST DUP2 SLOAD DUP2 MSTORE SWAP1 PUSH1 0x1 ADD SWAP1 PUSH1 0x20 ADD DUP1 DUP4 GT PUSH2 0xB19 JUMPI DUP3 SWAP1 SUB PUSH1 0x1F AND DUP3 ADD SWAP2 JUMPDEST POP POP POP POP POP SWAP1 DUP1 PUSH1 0x4 ADD SLOAD SWAP1 POP DUP6 JUMP JUMPDEST PUSH1 0x40 MLOAD DUP1 PUSH1 0x40 ADD PUSH1 0x40 MSTORE DUP1 PUSH1 0x2 DUP1 DUP2 GT ISZERO PUSH2 0xB64 JUMPI PUSH2 0xB63 PUSH2 0x3425 JUMP JUMPDEST JUMPDEST DUP2 MSTORE PUSH1 0x20 ADD PUSH0 DUP2 MSTORE POP PUSH1 0x3 PUSH0 CALLER PUSH20 0xFFFFFFFFFFFFFFFFFFFFFFFFFFFFFFFFFFFFFFFF AND PUSH20 0xFFFFFFFFFFFFFFFFFFFFFFFFFFFFFFFFFFFFFFFF AND DUP2 MSTORE PUSH1 0x20 ADD SWAP1 DUP2 MSTORE PUSH1 0x20 ADD PUSH0 KECCAK256 PUSH0 DUP3 ADD MLOAD DUP2 PUSH0 ADD PUSH0 PUSH2 0x100 EXP DUP2 SLOAD DUP2 PUSH1 0xFF MUL NOT AND SWAP1 DUP4 PUSH1 0x2 DUP2 GT ISZERO PUSH2 0xBD2 JUMPI PUSH2 0xBD1 PUSH2 0x3425 JUMP JUMPDEST JUMPDEST MUL OR SWAP1 SSTORE POP PUSH1 0x20 DUP3 ADD MLOAD DUP2 PUSH1 0x1 ADD SSTORE SWAP1 POP POP JUMP JUMPDEST PUSH1 0x5 PUSH0 DUP4 PUSH20 0xFFFFFFFFFFFFFFFFFFFFFFFFFFFFFFFFFFFFFFFF AND PUSH20 0xFFFFFFFFFFFFFFFFFFFFFFFFFFFFFFFFFFFFFFFF AND DUP2 MSTORE PUSH1 0x20 ADD SWAP1 DUP2 MSTORE PUSH1 0x20 ADD PUSH0 KECCAK256 DUP2 DUP2 SLOAD DUP2 LT PUSH2 0xC35 JUMPI PUSH2 0xC34 PUSH2 0x3FA1 JUMP JUMPDEST JUMPDEST SWAP1 PUSH0 MSTORE PUSH1 0x20 PUSH0 KECCAK256 SWAP1 PUSH1 0x5 MUL ADD PUSH1 0x4 ADD SLOAD PUSH1 0x4 PUSH0 CALLER PUSH20 0xFFFFFFFFFFFFFFFFFFFFFFFFFFFFFFFFFFFFFFFF AND PUSH20 0xFFFFFFFFFFFFFFFFFFFFFFFFFFFFFFFFFFFFFFFF AND DUP2 MSTORE PUSH1 0x20 ADD SWAP1 DUP2 MSTORE PUSH1 0x20 ADD PUSH0 KECCAK256 DUP3 DUP2 SLOAD DUP2 LT PUSH2 0xC94 JUMPI PUSH2 0xC93 PUSH2 0x3FA1 JUMP JUMPDEST JUMPDEST SWAP1 PUSH0 MSTORE PUSH1 0x20 PUSH0 KECCAK256 SWAP1 PUSH1 0x5 MUL ADD PUSH1 0x4 ADD SLOAD GT PUSH2 0xCAD JUMPI PUSH0 DUP1 REVERT JUMPDEST PUSH0 PUSH8 0xDE0B6B3A7640000 PUSH1 0x5 PUSH0 DUP6 PUSH20 0xFFFFFFFFFFFFFFFFFFFFFFFFFFFFFFFFFFFFFFFF AND PUSH20 0xFFFFFFFFFFFFFFFFFFFFFFFFFFFFFFFFFFFFFFFF AND DUP2 MSTORE PUSH1 0x20 ADD SWAP1 DUP2 MSTORE PUSH1 0x20 ADD PUSH0 KECCAK256 DUP4 DUP2 SLOAD DUP2 LT PUSH2 0xD06 JUMPI PUSH2 0xD05 PUSH2 0x3FA1 JUMP JUMPDEST JUMPDEST SWAP1 PUSH0 MSTORE PUSH1 0x20 PUSH0 KECCAK256 SWAP1 PUSH1 0x5 MUL ADD PUSH1 0x2 ADD SLOAD PUSH1 0x4 PUSH0 CALLER PUSH20 0xFFFFFFFFFFFFFFFFFFFFFFFFFFFFFFFFFFFFFFFF AND PUSH20 0xFFFFFFFFFFFFFFFFFFFFFFFFFFFFFFFFFFFFFFFF AND DUP2 MSTORE PUSH1 0x20 ADD SWAP1 DUP2 MSTORE PUSH1 0x20 ADD PUSH0 KECCAK256 DUP5 DUP2 SLOAD DUP2 LT PUSH2 0xD65 JUMPI PUSH2 0xD64 PUSH2 0x3FA1 JUMP JUMPDEST JUMPDEST SWAP1 PUSH0 MSTORE PUSH1 0x20 PUSH0 KECCAK256 SWAP1 PUSH1 0x5 MUL ADD PUSH1 0x1 ADD SLOAD PUSH2 0xD7F SWAP2 SWAP1 PUSH2 0x3FFB JUMP JUMPDEST PUSH2 0xD89 SWAP2 SWAP1 PUSH2 0x3FFB JUMP JUMPDEST SWAP1 POP PUSH1 0x4 PUSH0 CALLER PUSH20 0xFFFFFFFFFFFFFFFFFFFFFFFFFFFFFFFFFFFFFFFF AND PUSH20 0xFFFFFFFFFFFFFFFFFFFFFFFFFFFFFFFFFFFFFFFF AND DUP2 MSTORE PUSH1 0x20 ADD SWAP1 DUP2 MSTORE PUSH1 0x20 ADD PUSH0 KECCAK256 DUP3 DUP2 SLOAD DUP2 LT PUSH2 0xDDA JUMPI PUSH2 0xDD9 PUSH2 0x3FA1 JUMP JUMPDEST JUMPDEST SWAP1 PUSH0 MSTORE PUSH1 0x20 PUSH0 KECCAK256 SWAP1 PUSH1 0x5 MUL ADD PUSH1 0x1 ADD SLOAD PUSH1 0x5 PUSH0 DUP6 PUSH20 0xFFFFFFFFFFFFFFFFFFFFFFFFFFFFFFFFFFFFFFFF AND PUSH20 0xFFFFFFFFFFFFFFFFFFFFFFFFFFFFFFFFFFFFFFFF AND DUP2 MSTORE PUSH1 0x20 ADD SWAP1 DUP2 MSTORE PUSH1 0x20 ADD PUSH0 KECCAK256 DUP4 DUP2 SLOAD DUP2 LT PUSH2 0xE39 JUMPI PUSH2 0xE38 PUSH2 0x3FA1 JUMP JUMPDEST JUMPDEST SWAP1 PUSH0 MSTORE PUSH1 0x20 PUSH0 KECCAK256 SWAP1 PUSH1 0x5 MUL ADD PUSH1 0x1 ADD PUSH0 DUP3 DUP3 SLOAD PUSH2 0xE56 SWAP2 SWAP1 PUSH2 0x403C JUMP JUMPDEST SWAP3 POP POP DUP2 SWAP1 SSTORE POP PUSH1 0x4 PUSH0 CALLER PUSH20 0xFFFFFFFFFFFFFFFFFFFFFFFFFFFFFFFFFFFFFFFF AND PUSH20 0xFFFFFFFFFFFFFFFFFFFFFFFFFFFFFFFFFFFFFFFF AND DUP2 MSTORE PUSH1 0x20 ADD SWAP1 DUP2 MSTORE PUSH1 0x20 ADD PUSH0 KECCAK256 DUP3 DUP2 SLOAD DUP2 LT PUSH2 0xEAC JUMPI PUSH2 0xEAB PUSH2 0x3FA1 JUMP JUMPDEST JUMPDEST SWAP1 PUSH0 MSTORE PUSH1 0x20 PUSH0 KECCAK256 SWAP1 PUSH1 0x5 MUL ADD PUSH0 DUP1 DUP3 ADD PUSH0 PUSH2 0x100 EXP DUP2 SLOAD SWAP1 PUSH20 0xFFFFFFFFFFFFFFFFFFFFFFFFFFFFFFFFFFFFFFFF MUL NOT AND SWAP1 SSTORE PUSH1 0x1 DUP3 ADD PUSH0 SWAP1 SSTORE PUSH1 0x2 DUP3 ADD PUSH0 SWAP1 SSTORE PUSH1 0x3 DUP3 ADD PUSH0 PUSH2 0xEFB SWAP2 SWAP1 PUSH2 0x323A JUMP JUMPDEST PUSH1 0x4 DUP3 ADD PUSH0 SWAP1 SSTORE POP POP DUP1 PUSH1 0x3 PUSH0 DUP6 PUSH20 0xFFFFFFFFFFFFFFFFFFFFFFFFFFFFFFFFFFFFFFFF AND PUSH20 0xFFFFFFFFFFFFFFFFFFFFFFFFFFFFFFFFFFFFFFFF AND DUP2 MSTORE PUSH1 0x20 ADD SWAP1 DUP2 MSTORE PUSH1 0x20 ADD PUSH0 KECCAK256 PUSH1 0x1 ADD PUSH0 DUP3 DUP3 SLOAD PUSH2 0xF53 SWAP2 SWAP1 PUSH2 0x406F JUMP JUMPDEST SWAP3 POP POP DUP2 SWAP1 SSTORE POP CALLER PUSH20 0xFFFFFFFFFFFFFFFFFFFFFFFFFFFFFFFFFFFFFFFF AND PUSH2 0x8FC DUP3 SWAP1 DUP2 ISZERO MUL SWAP1 PUSH1 0x40 MLOAD PUSH0 PUSH1 0x40 MLOAD DUP1 DUP4 SUB DUP2 DUP6 DUP9 DUP9 CALL SWAP4 POP POP POP POP ISZERO DUP1 ISZERO PUSH2 0xF9D JUMPI RETURNDATASIZE PUSH0 DUP1 RETURNDATACOPY RETURNDATASIZE PUSH0 REVERT JUMPDEST POP POP POP POP JUMP JUMPDEST PUSH1 0x5 PUSH1 0x20 MSTORE DUP2 PUSH0 MSTORE PUSH1 0x40 PUSH0 KECCAK256 DUP2 DUP2 SLOAD DUP2 LT PUSH2 0xFBC JUMPI PUSH0 DUP1 REVERT JUMPDEST SWAP1 PUSH0 MSTORE PUSH1 0x20 PUSH0 KECCAK256 SWAP1 PUSH1 0x5 MUL ADD PUSH0 SWAP2 POP SWAP2 POP POP DUP1 PUSH0 ADD PUSH0 SWAP1 SLOAD SWAP1 PUSH2 0x100 EXP SWAP1 DIV PUSH20 0xFFFFFFFFFFFFFFFFFFFFFFFFFFFFFFFFFFFFFFFF AND SWAP1 DUP1 PUSH1 0x1 ADD SLOAD SWAP1 DUP1 PUSH1 0x2 ADD SLOAD SWAP1 DUP1 PUSH1 0x3 ADD DUP1 SLOAD PUSH2 0x100D SWAP1 PUSH2 0x3D05 JUMP JUMPDEST DUP1 PUSH1 0x1F ADD PUSH1 0x20 DUP1 SWAP2 DIV MUL PUSH1 0x20 ADD PUSH1 0x40 MLOAD SWAP1 DUP2 ADD PUSH1 0x40 MSTORE DUP1 SWAP3 SWAP2 SWAP1 DUP2 DUP2 MSTORE PUSH1 0x20 ADD DUP3 DUP1 SLOAD PUSH2 0x1039 SWAP1 PUSH2 0x3D05 JUMP JUMPDEST DUP1 ISZERO PUSH2 0x1084 JUMPI DUP1 PUSH1 0x1F LT PUSH2 0x105B JUMPI PUSH2 0x100 DUP1 DUP4 SLOAD DIV MUL DUP4 MSTORE SWAP2 PUSH1 0x20 ADD SWAP2 PUSH2 0x1084 JUMP JUMPDEST DUP3 ADD SWAP2 SWAP1 PUSH0 MSTORE PUSH1 0x20 PUSH0 KECCAK256 SWAP1 JUMPDEST DUP2 SLOAD DUP2 MSTORE SWAP1 PUSH1 0x1 ADD SWAP1 PUSH1 0x20 ADD DUP1 DUP4 GT PUSH2 0x1067 JUMPI DUP3 SWAP1 SUB PUSH1 0x1F AND DUP3 ADD SWAP2 JUMPDEST POP POP POP POP POP SWAP1 DUP1 PUSH1 0x4 ADD SLOAD SWAP1 POP DUP6 JUMP JUMPDEST PUSH0 DUP2 DUP2 SLOAD DUP2 LT PUSH2 0x10A2 JUMPI PUSH0 DUP1 REVERT JUMPDEST SWAP1 PUSH0 MSTORE PUSH1 0x20 PUSH0 KECCAK256 ADD PUSH0 SWAP2 POP SWAP1 POP DUP1 PUSH0 ADD PUSH0 SWAP1 SLOAD SWAP1 PUSH2 0x100 EXP SWAP1 DIV PUSH20 0xFFFFFFFFFFFFFFFFFFFFFFFFFFFFFFFFFFFFFFFF AND SWAP1 DUP1 PUSH0 ADD PUSH1 0x14 SWAP1 SLOAD SWAP1 PUSH2 0x100 EXP SWAP1 DIV PUSH1 0xFF AND SWAP1 POP DUP3 JUMP JUMPDEST PUSH0 PUSH1 0x40 MLOAD DUP1 PUSH1 0x40 ADD PUSH1 0x40 MSTORE DUP1 CALLER PUSH20 0xFFFFFFFFFFFFFFFFFFFFFFFFFFFFFFFFFFFFFFFF AND DUP2 MSTORE PUSH1 0x20 ADD DUP4 PUSH1 0x2 DUP2 GT ISZERO PUSH2 0x1124 JUMPI PUSH2 0x1123 PUSH2 0x3425 JUMP JUMPDEST JUMPDEST DUP2 MSTORE POP SWAP1 DUP1 PUSH1 0x1 DUP2 SLOAD ADD DUP1 DUP3 SSTORE DUP1 SWAP2 POP POP PUSH1 0x1 SWAP1 SUB SWAP1 PUSH0 MSTORE PUSH1 0x20 PUSH0 KECCAK256 ADD PUSH0 SWAP1 SWAP2 SWAP1 SWAP2 SWAP1 SWAP2 POP PUSH0 DUP3 ADD MLOAD DUP2 PUSH0 ADD PUSH0 PUSH2 0x100 EXP DUP2 SLOAD DUP2 PUSH20 0xFFFFFFFFFFFFFFFFFFFFFFFFFFFFFFFFFFFFFFFF MUL NOT AND SWAP1 DUP4 PUSH20 0xFFFFFFFFFFFFFFFFFFFFFFFFFFFFFFFFFFFFFFFF AND MUL OR SWAP1 SSTORE POP PUSH1 0x20 DUP3 ADD MLOAD DUP2 PUSH0 ADD PUSH1 0x14 PUSH2 0x100 EXP DUP2 SLOAD DUP2 PUSH1 0xFF MUL NOT AND SWAP1 DUP4 PUSH1 0x2 DUP2 GT ISZERO PUSH2 0x11B7 JUMPI PUSH2 0x11B6 PUSH2 0x3425 JUMP JUMPDEST JUMPDEST MUL OR SWAP1 SSTORE POP POP POP POP JUMP JUMPDEST PUSH1 0x60 PUSH0 DUP3 SWAP1 POP PUSH0 JUMPDEST DUP2 MLOAD DUP2 LT ISZERO PUSH2 0x12B4 JUMPI PUSH1 0x61 DUP3 DUP3 DUP2 MLOAD DUP2 LT PUSH2 0x11E7 JUMPI PUSH2 0x11E6 PUSH2 0x3FA1 JUMP JUMPDEST JUMPDEST PUSH1 0x20 ADD ADD MLOAD PUSH1 0xF8 SHR PUSH1 0xF8 SHL PUSH1 0xF8 SHR PUSH1 0xFF AND LT ISZERO DUP1 ISZERO PUSH2 0x122A JUMPI POP PUSH1 0x7A DUP3 DUP3 DUP2 MLOAD DUP2 LT PUSH2 0x1216 JUMPI PUSH2 0x1215 PUSH2 0x3FA1 JUMP JUMPDEST JUMPDEST PUSH1 0x20 ADD ADD MLOAD PUSH1 0xF8 SHR PUSH1 0xF8 SHL PUSH1 0xF8 SHR PUSH1 0xFF AND GT ISZERO JUMPDEST ISZERO PUSH2 0x12A1 JUMPI PUSH1 0x20 DUP3 DUP3 DUP2 MLOAD DUP2 LT PUSH2 0x1244 JUMPI PUSH2 0x1243 PUSH2 0x3FA1 JUMP JUMPDEST JUMPDEST PUSH1 0x20 ADD ADD MLOAD PUSH1 0xF8 SHR PUSH1 0xF8 SHL PUSH1 0xF8 SHR PUSH2 0x125C SWAP2 SWAP1 PUSH2 0x40AE JUMP JUMPDEST PUSH1 0xF8 SHL DUP3 DUP3 DUP2 MLOAD DUP2 LT PUSH2 0x1272 JUMPI PUSH2 0x1271 PUSH2 0x3FA1 JUMP JUMPDEST JUMPDEST PUSH1 0x20 ADD ADD SWAP1 PUSH31 0xFFFFFFFFFFFFFFFFFFFFFFFFFFFFFFFFFFFFFFFFFFFFFFFFFFFFFFFFFFFFFF NOT AND SWAP1 DUP2 PUSH0 BYTE SWAP1 MSTORE8 POP JUMPDEST DUP1 DUP1 PUSH2 0x12AC SWAP1 PUSH2 0x40E2 JUMP JUMPDEST SWAP2 POP POP PUSH2 0x11C9 JUMP JUMPDEST POP DUP1 SWAP2 POP POP SWAP2 SWAP1 POP JUMP JUMPDEST PUSH1 0x40 MLOAD DUP1 PUSH1 0x40 ADD PUSH1 0x40 MSTORE DUP1 PUSH1 0x1 PUSH1 0x2 DUP2 GT ISZERO PUSH2 0x12DD JUMPI PUSH2 0x12DC PUSH2 0x3425 JUMP JUMPDEST JUMPDEST DUP2 MSTORE PUSH1 0x20 ADD PUSH0 DUP2 MSTORE POP PUSH1 0x3 PUSH0 CALLER PUSH20 0xFFFFFFFFFFFFFFFFFFFFFFFFFFFFFFFFFFFFFFFF AND PUSH20 0xFFFFFFFFFFFFFFFFFFFFFFFFFFFFFFFFFFFFFFFF AND DUP2 MSTORE PUSH1 0x20 ADD SWAP1 DUP2 MSTORE PUSH1 0x20 ADD PUSH0 KECCAK256 PUSH0 DUP3 ADD MLOAD DUP2 PUSH0 ADD PUSH0 PUSH2 0x100 EXP DUP2 SLOAD DUP2 PUSH1 0xFF MUL NOT AND SWAP1 DUP4 PUSH1 0x2 DUP2 GT ISZERO PUSH2 0x134B JUMPI PUSH2 0x134A PUSH2 0x3425 JUMP JUMPDEST JUMPDEST MUL OR SWAP1 SSTORE POP PUSH1 0x20 DUP3 ADD MLOAD DUP2 PUSH1 0x1 ADD SSTORE SWAP1 POP POP JUMP JUMPDEST PUSH1 0x1 PUSH0 SWAP1 SLOAD SWAP1 PUSH2 0x100 EXP SWAP1 DIV PUSH20 0xFFFFFFFFFFFFFFFFFFFFFFFFFFFFFFFFFFFFFFFF AND PUSH20 0xFFFFFFFFFFFFFFFFFFFFFFFFFFFFFFFFFFFFFFFF AND CALLER PUSH20 0xFFFFFFFFFFFFFFFFFFFFFFFFFFFFFFFFFFFFFFFF AND EQ PUSH2 0x13B7 JUMPI PUSH0 DUP1 REVERT JUMPDEST PUSH0 DUP1 DUP3 DUP2 SLOAD DUP2 LT PUSH2 0x13CB JUMPI PUSH2 0x13CA PUSH2 0x3FA1 JUMP JUMPDEST JUMPDEST SWAP1 PUSH0 MSTORE PUSH1 0x20 PUSH0 KECCAK256 ADD PUSH0 ADD PUSH0 SWAP1 SLOAD SWAP1 PUSH2 0x100 EXP SWAP1 DIV PUSH20 0xFFFFFFFFFFFFFFFFFFFFFFFFFFFFFFFFFFFFFFFF AND SWAP1 POP PUSH0 DUP1 DUP4 DUP2 SLOAD DUP2 LT PUSH2 0x140B JUMPI PUSH2 0x140A PUSH2 0x3FA1 JUMP JUMPDEST JUMPDEST SWAP1 PUSH0 MSTORE PUSH1 0x20 PUSH0 KECCAK256 ADD PUSH0 ADD PUSH1 0x14 SWAP1 SLOAD SWAP1 PUSH2 0x100 EXP SWAP1 DIV PUSH1 0xFF AND SWAP1 POP DUP1 PUSH1 0x3 PUSH0 DUP5 PUSH20 0xFFFFFFFFFFFFFFFFFFFFFFFFFFFFFFFFFFFFFFFF AND PUSH20 0xFFFFFFFFFFFFFFFFFFFFFFFFFFFFFFFFFFFFFFFF AND DUP2 MSTORE PUSH1 0x20 ADD SWAP1 DUP2 MSTORE PUSH1 0x20 ADD PUSH0 KECCAK256 PUSH0 ADD PUSH0 PUSH2 0x100 EXP DUP2 SLOAD DUP2 PUSH1 0xFF MUL NOT AND SWAP1 DUP4 PUSH1 0x2 DUP2 GT ISZERO PUSH2 0x1486 JUMPI PUSH2 0x1485 PUSH2 0x3425 JUMP JUMPDEST JUMPDEST MUL OR SWAP1 SSTORE POP POP POP POP JUMP JUMPDEST PUSH0 DUP2 GT PUSH2 0x14D2 JUMPI PUSH1 0x40 MLOAD PUSH32 0x8C379A000000000000000000000000000000000000000000000000000000000 DUP2 MSTORE PUSH1 0x4 ADD PUSH2 0x14C9 SWAP1 PUSH2 0x4199 JUMP JUMPDEST PUSH1 0x40 MLOAD DUP1 SWAP2 SUB SWAP1 REVERT JUMPDEST PUSH1 0x5 PUSH0 DUP5 PUSH20 0xFFFFFFFFFFFFFFFFFFFFFFFFFFFFFFFFFFFFFFFF AND PUSH20 0xFFFFFFFFFFFFFFFFFFFFFFFFFFFFFFFFFFFFFFFF AND DUP2 MSTORE PUSH1 0x20 ADD SWAP1 DUP2 MSTORE PUSH1 0x20 ADD PUSH0 KECCAK256 DUP1 SLOAD SWAP1 POP DUP3 LT PUSH2 0x1554 JUMPI PUSH1 0x40 MLOAD PUSH32 0x8C379A000000000000000000000000000000000000000000000000000000000 DUP2 MSTORE PUSH1 0x4 ADD PUSH2 0x154B SWAP1 PUSH2 0x4201 JUMP JUMPDEST PUSH1 0x40 MLOAD DUP1 SWAP2 SUB SWAP1 REVERT JUMPDEST PUSH0 PUSH1 0x5 PUSH0 DUP6 PUSH20 0xFFFFFFFFFFFFFFFFFFFFFFFFFFFFFFFFFFFFFFFF AND PUSH20 0xFFFFFFFFFFFFFFFFFFFFFFFFFFFFFFFFFFFFFFFF AND DUP2 MSTORE PUSH1 0x20 ADD SWAP1 DUP2 MSTORE PUSH1 0x20 ADD PUSH0 KECCAK256 DUP4 DUP2 SLOAD DUP2 LT PUSH2 0x15A4 JUMPI PUSH2 0x15A3 PUSH2 0x3FA1 JUMP JUMPDEST JUMPDEST SWAP1 PUSH0 MSTORE PUSH1 0x20 PUSH0 KECCAK256 SWAP1 PUSH1 0x5 MUL ADD PUSH1 0x3 ADD DUP1 SLOAD PUSH2 0x15BE SWAP1 PUSH2 0x3D05 JUMP JUMPDEST DUP1 PUSH1 0x1F ADD PUSH1 0x20 DUP1 SWAP2 DIV MUL PUSH1 0x20 ADD PUSH1 0x40 MLOAD SWAP1 DUP2 ADD PUSH1 0x40 MSTORE DUP1 SWAP3 SWAP2 SWAP1 DUP2 DUP2 MSTORE PUSH1 0x20 ADD DUP3 DUP1 SLOAD PUSH2 0x15EA SWAP1 PUSH2 0x3D05 JUMP JUMPDEST DUP1 ISZERO PUSH2 0x1635 JUMPI DUP1 PUSH1 0x1F LT PUSH2 0x160C JUMPI PUSH2 0x100 DUP1 DUP4 SLOAD DIV MUL DUP4 MSTORE SWAP2 PUSH1 0x20 ADD SWAP2 PUSH2 0x1635 JUMP JUMPDEST DUP3 ADD SWAP2 SWAP1 PUSH0 MSTORE PUSH1 0x20 PUSH0 KECCAK256 SWAP1 JUMPDEST DUP2 SLOAD DUP2 MSTORE SWAP1 PUSH1 0x1 ADD SWAP1 PUSH1 0x20 ADD DUP1 DUP4 GT PUSH2 0x1618 JUMPI DUP3 SWAP1 SUB PUSH1 0x1F AND DUP3 ADD SWAP2 JUMPDEST POP POP POP POP POP SWAP1 POP PUSH0 DUP2 PUSH1 0x40 MLOAD PUSH1 0x20 ADD PUSH2 0x164E SWAP2 SWAP1 PUSH2 0x42A5 JUMP JUMPDEST PUSH1 0x40 MLOAD PUSH1 0x20 DUP2 DUP4 SUB SUB DUP2 MSTORE SWAP1 PUSH1 0x40 MSTORE SWAP1 POP PUSH2 0x1668 DUP2 PUSH2 0x11C1 JUMP JUMPDEST SWAP1 POP PUSH0 PUSH1 0x40 MLOAD DUP1 PUSH1 0xC0 ADD PUSH1 0x40 MSTORE DUP1 CALLER PUSH20 0xFFFFFFFFFFFFFFFFFFFFFFFFFFFFFFFFFFFFFFFF AND DUP2 MSTORE PUSH1 0x20 ADD DUP8 PUSH20 0xFFFFFFFFFFFFFFFFFFFFFFFFFFFFFFFFFFFFFFFF AND DUP2 MSTORE PUSH1 0x20 ADD PUSH1 0x1 PUSH1 0x3 DUP2 GT ISZERO PUSH2 0x16C2 JUMPI PUSH2 0x16C1 PUSH2 0x3425 JUMP JUMPDEST JUMPDEST DUP2 MSTORE PUSH1 0x20 ADD DUP4 DUP2 MSTORE PUSH1 0x20 ADD DUP7 DUP2 MSTORE PUSH1 0x20 ADD DUP6 DUP2 MSTORE POP SWAP1 POP PUSH1 0x2 DUP2 SWAP1 DUP1 PUSH1 0x1 DUP2 SLOAD ADD DUP1 DUP3 SSTORE DUP1 SWAP2 POP POP PUSH1 0x1 SWAP1 SUB SWAP1 PUSH0 MSTORE PUSH1 0x20 PUSH0 KECCAK256 SWAP1 PUSH1 0x5 MUL ADD PUSH0 SWAP1 SWAP2 SWAP1 SWAP2 SWAP1 SWAP2 POP PUSH0 DUP3 ADD MLOAD DUP2 PUSH0 ADD PUSH0 PUSH2 0x100 EXP DUP2 SLOAD DUP2 PUSH20 0xFFFFFFFFFFFFFFFFFFFFFFFFFFFFFFFFFFFFFFFF MUL NOT AND SWAP1 DUP4 PUSH20 0xFFFFFFFFFFFFFFFFFFFFFFFFFFFFFFFFFFFFFFFF AND MUL OR SWAP1 SSTORE POP PUSH1 0x20 DUP3 ADD MLOAD DUP2 PUSH1 0x1 ADD PUSH0 PUSH2 0x100 EXP DUP2 SLOAD DUP2 PUSH20 0xFFFFFFFFFFFFFFFFFFFFFFFFFFFFFFFFFFFFFFFF MUL NOT AND SWAP1 DUP4 PUSH20 0xFFFFFFFFFFFFFFFFFFFFFFFFFFFFFFFFFFFFFFFF AND MUL OR SWAP1 SSTORE POP PUSH1 0x40 DUP3 ADD MLOAD DUP2 PUSH1 0x1 ADD PUSH1 0x14 PUSH2 0x100 EXP DUP2 SLOAD DUP2 PUSH1 0xFF MUL NOT AND SWAP1 DUP4 PUSH1 0x3 DUP2 GT ISZERO PUSH2 0x17B7 JUMPI PUSH2 0x17B6 PUSH2 0x3425 JUMP JUMPDEST JUMPDEST MUL OR SWAP1 SSTORE POP PUSH1 0x60 DUP3 ADD MLOAD DUP2 PUSH1 0x2 ADD SWAP1 DUP2 PUSH2 0x17D1 SWAP2 SWAP1 PUSH2 0x3ED2 JUMP JUMPDEST POP PUSH1 0x80 DUP3 ADD MLOAD DUP2 PUSH1 0x3 ADD SSTORE PUSH1 0xA0 DUP3 ADD MLOAD DUP2 PUSH1 0x4 ADD SSTORE POP POP POP POP POP POP POP POP JUMP JUMPDEST PUSH1 0x1 CALLER DUP2 PUSH1 0x2 DUP2 GT ISZERO PUSH2 0x1806 JUMPI PUSH2 0x1805 PUSH2 0x3425 JUMP JUMPDEST JUMPDEST PUSH1 0x3 PUSH0 CALLER PUSH20 0xFFFFFFFFFFFFFFFFFFFFFFFFFFFFFFFFFFFFFFFF AND PUSH20 0xFFFFFFFFFFFFFFFFFFFFFFFFFFFFFFFFFFFFFFFF AND DUP2 MSTORE PUSH1 0x20 ADD SWAP1 DUP2 MSTORE PUSH1 0x20 ADD PUSH0 KECCAK256 PUSH0 ADD PUSH0 SWAP1 SLOAD SWAP1 PUSH2 0x100 EXP SWAP1 DIV PUSH1 0xFF AND PUSH1 0x2 DUP2 GT ISZERO PUSH2 0x1864 JUMPI PUSH2 0x1863 PUSH2 0x3425 JUMP JUMPDEST JUMPDEST EQ PUSH2 0x18A4 JUMPI PUSH1 0x40 MLOAD PUSH32 0x8C379A000000000000000000000000000000000000000000000000000000000 DUP2 MSTORE PUSH1 0x4 ADD PUSH2 0x189B SWAP1 PUSH2 0x3C2C JUMP JUMPDEST PUSH1 0x40 MLOAD DUP1 SWAP2 SUB SWAP1 REVERT JUMPDEST DUP1 PUSH20 0xFFFFFFFFFFFFFFFFFFFFFFFFFFFFFFFFFFFFFFFF AND CALLER PUSH20 0xFFFFFFFFFFFFFFFFFFFFFFFFFFFFFFFFFFFFFFFF AND EQ PUSH2 0x1912 JUMPI PUSH1 0x40 MLOAD PUSH32 0x8C379A000000000000000000000000000000000000000000000000000000000 DUP2 MSTORE PUSH1 0x4 ADD PUSH2 0x1909 SWAP1 PUSH2 0x3CBA JUMP JUMPDEST PUSH1 0x40 MLOAD DUP1 SWAP2 SUB SWAP1 REVERT JUMPDEST DUP4 ISZERO PUSH2 0x1969 JUMPI PUSH1 0x1 PUSH1 0x2 DUP5 DUP2 SLOAD DUP2 LT PUSH2 0x192E JUMPI PUSH2 0x192D PUSH2 0x3FA1 JUMP JUMPDEST JUMPDEST SWAP1 PUSH0 MSTORE PUSH1 0x20 PUSH0 KECCAK256 SWAP1 PUSH1 0x5 MUL ADD PUSH1 0x1 ADD PUSH1 0x14 PUSH2 0x100 EXP DUP2 SLOAD DUP2 PUSH1 0xFF MUL NOT AND SWAP1 DUP4 PUSH1 0x3 DUP2 GT ISZERO PUSH2 0x195F JUMPI PUSH2 0x195E PUSH2 0x3425 JUMP JUMPDEST JUMPDEST MUL OR SWAP1 SSTORE POP PUSH2 0x19B5 JUMP JUMPDEST PUSH1 0x2 DUP1 DUP5 DUP2 SLOAD DUP2 LT PUSH2 0x197E JUMPI PUSH2 0x197D PUSH2 0x3FA1 JUMP JUMPDEST JUMPDEST SWAP1 PUSH0 MSTORE PUSH1 0x20 PUSH0 KECCAK256 SWAP1 PUSH1 0x5 MUL ADD PUSH1 0x1 ADD PUSH1 0x14 PUSH2 0x100 EXP DUP2 SLOAD DUP2 PUSH1 0xFF MUL NOT AND SWAP1 DUP4 PUSH1 0x3 DUP2 GT ISZERO PUSH2 0x19AF JUMPI PUSH2 0x19AE PUSH2 0x3425 JUMP JUMPDEST JUMPDEST MUL OR SWAP1 SSTORE POP JUMPDEST POP POP POP POP JUMP JUMPDEST PUSH0 DUP1 DUP1 DUP1 PUSH2 0x19C8 SWAP1 PUSH2 0x40E2 JUMP JUMPDEST SWAP2 POP POP DUP3 TIMESTAMP CALLER DUP4 PUSH1 0x40 MLOAD PUSH1 0x20 ADD PUSH2 0x19E1 SWAP4 SWAP3 SWAP2 SWAP1 PUSH2 0x433E JUMP JUMPDEST PUSH1 0x40 MLOAD PUSH1 0x20 DUP2 DUP4 SUB SUB DUP2 MSTORE SWAP1 PUSH1 0x40 MSTORE DUP1 MLOAD SWAP1 PUSH1 0x20 ADD KECCAK256 PUSH0 SHR PUSH2 0x1A03 SWAP2 SWAP1 PUSH2 0x43A7 JUMP JUMPDEST SWAP2 POP POP SWAP2 SWAP1 POP JUMP JUMPDEST PUSH1 0x2 DUP2 DUP2 PUSH1 0x2 DUP2 GT ISZERO PUSH2 0x1A21 JUMPI PUSH2 0x1A20 PUSH2 0x3425 JUMP JUMPDEST JUMPDEST PUSH1 0x3 PUSH0 CALLER PUSH20 0xFFFFFFFFFFFFFFFFFFFFFFFFFFFFFFFFFFFFFFFF AND PUSH20 0xFFFFFFFFFFFFFFFFFFFFFFFFFFFFFFFFFFFFFFFF AND DUP2 MSTORE PUSH1 0x20 ADD SWAP1 DUP2 MSTORE PUSH1 0x20 ADD PUSH0 KECCAK256 PUSH0 ADD PUSH0 SWAP1 SLOAD SWAP1 PUSH2 0x100 EXP SWAP1 DIV PUSH1 0xFF AND PUSH1 0x2 DUP2 GT ISZERO PUSH2 0x1A7F JUMPI PUSH2 0x1A7E PUSH2 0x3425 JUMP JUMPDEST JUMPDEST EQ PUSH2 0x1ABF JUMPI PUSH1 0x40 MLOAD PUSH32 0x8C379A000000000000000000000000000000000000000000000000000000000 DUP2 MSTORE PUSH1 0x4 ADD PUSH2 0x1AB6 SWAP1 PUSH2 0x3C2C JUMP JUMPDEST PUSH1 0x40 MLOAD DUP1 SWAP2 SUB SWAP1 REVERT JUMPDEST DUP1 PUSH20 0xFFFFFFFFFFFFFFFFFFFFFFFFFFFFFFFFFFFFFFFF AND CALLER PUSH20 0xFFFFFFFFFFFFFFFFFFFFFFFFFFFFFFFFFFFFFFFF AND EQ PUSH2 0x1B2D JUMPI PUSH1 0x40 MLOAD PUSH32 0x8C379A000000000000000000000000000000000000000000000000000000000 DUP2 MSTORE PUSH1 0x4 ADD PUSH2 0x1B24 SWAP1 PUSH2 0x3CBA JUMP JUMPDEST PUSH1 0x40 MLOAD DUP1 SWAP2 SUB SWAP1 REVERT JUMPDEST PUSH0 PUSH1 0x40 MLOAD DUP1 PUSH1 0xA0 ADD PUSH1 0x40 MSTORE DUP1 DUP6 PUSH20 0xFFFFFFFFFFFFFFFFFFFFFFFFFFFFFFFFFFFFFFFF AND DUP2 MSTORE PUSH1 0x20 ADD DUP11 DUP2 MSTORE PUSH1 0x20 ADD PUSH1 0x2 DUP11 PUSH2 0x1B68 SWAP2 SWAP1 PUSH2 0x43D7 JUMP JUMPDEST DUP2 MSTORE PUSH1 0x20 ADD DUP9 DUP9 DUP1 DUP1 PUSH1 0x1F ADD PUSH1 0x20 DUP1 SWAP2 DIV MUL PUSH1 0x20 ADD PUSH1 0x40 MLOAD SWAP1 DUP2 ADD PUSH1 0x40 MSTORE DUP1 SWAP4 SWAP3 SWAP2 SWAP1 DUP2 DUP2 MSTORE PUSH1 0x20 ADD DUP4 DUP4 DUP1 DUP3 DUP5 CALLDATACOPY PUSH0 DUP2 DUP5 ADD MSTORE PUSH1 0x1F NOT PUSH1 0x1F DUP3 ADD AND SWAP1 POP DUP1 DUP4 ADD SWAP3 POP POP POP POP POP POP POP DUP2 MSTORE PUSH1 0x20 ADD DUP7 DUP2 MSTORE POP SWAP1 POP PUSH1 0x6 PUSH0 DUP6 PUSH20 0xFFFFFFFFFFFFFFFFFFFFFFFFFFFFFFFFFFFFFFFF AND PUSH20 0xFFFFFFFFFFFFFFFFFFFFFFFFFFFFFFFFFFFFFFFF AND DUP2 MSTORE PUSH1 0x20 ADD SWAP1 DUP2 MSTORE PUSH1 0x20 ADD PUSH0 KECCAK256 DUP2 SWAP1 DUP1 PUSH1 0x1 DUP2 SLOAD ADD DUP1 DUP3 SSTORE DUP1 SWAP2 POP POP PUSH1 0x1 SWAP1 SUB SWAP1 PUSH0 MSTORE PUSH1 0x20 PUSH0 KECCAK256 SWAP1 PUSH1 0x5 MUL ADD PUSH0 SWAP1 SWAP2 SWAP1 SWAP2 SWAP1 SWAP2 POP PUSH0 DUP3 ADD MLOAD DUP2 PUSH0 ADD PUSH0 PUSH2 0x100 EXP DUP2 SLOAD DUP2 PUSH20 0xFFFFFFFFFFFFFFFFFFFFFFFFFFFFFFFFFFFFFFFF MUL NOT AND SWAP1 DUP4 PUSH20 0xFFFFFFFFFFFFFFFFFFFFFFFFFFFFFFFFFFFFFFFF AND MUL OR SWAP1 SSTORE POP PUSH1 0x20 DUP3 ADD MLOAD DUP2 PUSH1 0x1 ADD SSTORE PUSH1 0x40 DUP3 ADD MLOAD DUP2 PUSH1 0x2 ADD SSTORE PUSH1 0x60 DUP3 ADD MLOAD DUP2 PUSH1 0x3 ADD SWAP1 DUP2 PUSH2 0x1C8D SWAP2 SWAP1 PUSH2 0x3ED2 JUMP JUMPDEST POP PUSH1 0x80 DUP3 ADD MLOAD DUP2 PUSH1 0x4 ADD SSTORE POP POP POP POP POP POP POP POP POP POP POP JUMP JUMPDEST PUSH1 0x1 PUSH0 SWAP1 SLOAD SWAP1 PUSH2 0x100 EXP SWAP1 DIV PUSH20 0xFFFFFFFFFFFFFFFFFFFFFFFFFFFFFFFFFFFFFFFF AND DUP2 JUMP JUMPDEST PUSH0 PUSH1 0x2 DUP2 GT ISZERO PUSH2 0x1CDD JUMPI PUSH2 0x1CDC PUSH2 0x3425 JUMP JUMPDEST JUMPDEST PUSH1 0x3 PUSH0 CALLER PUSH20 0xFFFFFFFFFFFFFFFFFFFFFFFFFFFFFFFFFFFFFFFF AND PUSH20 0xFFFFFFFFFFFFFFFFFFFFFFFFFFFFFFFFFFFFFFFF AND DUP2 MSTORE PUSH1 0x20 ADD SWAP1 DUP2 MSTORE PUSH1 0x20 ADD PUSH0 KECCAK256 PUSH0 ADD PUSH0 SWAP1 SLOAD SWAP1 PUSH2 0x100 EXP SWAP1 DIV PUSH1 0xFF AND PUSH1 0x2 DUP2 GT ISZERO PUSH2 0x1D3B JUMPI PUSH2 0x1D3A PUSH2 0x3425 JUMP JUMPDEST JUMPDEST SUB PUSH2 0x1DDF JUMPI PUSH1 0x40 MLOAD DUP1 PUSH1 0x40 ADD PUSH1 0x40 MSTORE DUP1 PUSH0 PUSH1 0x2 DUP2 GT ISZERO PUSH2 0x1D5E JUMPI PUSH2 0x1D5D PUSH2 0x3425 JUMP JUMPDEST JUMPDEST DUP2 MSTORE PUSH1 0x20 ADD PUSH0 DUP2 MSTORE POP PUSH1 0x3 PUSH0 CALLER PUSH20 0xFFFFFFFFFFFFFFFFFFFFFFFFFFFFFFFFFFFFFFFF AND PUSH20 0xFFFFFFFFFFFFFFFFFFFFFFFFFFFFFFFFFFFFFFFF AND DUP2 MSTORE PUSH1 0x20 ADD SWAP1 DUP2 MSTORE PUSH1 0x20 ADD PUSH0 KECCAK256 PUSH0 DUP3 ADD MLOAD DUP2 PUSH0 ADD PUSH0 PUSH2 0x100 EXP DUP2 SLOAD DUP2 PUSH1 0xFF MUL NOT AND SWAP1 DUP4 PUSH1 0x2 DUP2 GT ISZERO PUSH2 0x1DCC JUMPI PUSH2 0x1DCB PUSH2 0x3425 JUMP JUMPDEST JUMPDEST MUL OR SWAP1 SSTORE POP PUSH1 0x20 DUP3 ADD MLOAD DUP2 PUSH1 0x1 ADD SSTORE SWAP1 POP POP JUMPDEST PUSH0 DUP4 GT PUSH2 0x1E21 JUMPI PUSH1 0x40 MLOAD PUSH32 0x8C379A000000000000000000000000000000000000000000000000000000000 DUP2 MSTORE PUSH1 0x4 ADD PUSH2 0x1E18 SWAP1 PUSH2 0x4199 JUMP JUMPDEST PUSH1 0x40 MLOAD DUP1 SWAP2 SUB SWAP1 REVERT JUMPDEST PUSH1 0x5 PUSH0 DUP6 PUSH20 0xFFFFFFFFFFFFFFFFFFFFFFFFFFFFFFFFFFFFFFFF AND PUSH20 0xFFFFFFFFFFFFFFFFFFFFFFFFFFFFFFFFFFFFFFFF AND DUP2 MSTORE PUSH1 0x20 ADD SWAP1 DUP2 MSTORE PUSH1 0x20 ADD PUSH0 KECCAK256 DUP1 SLOAD SWAP1 POP DUP3 LT PUSH2 0x1EA3 JUMPI PUSH1 0x40 MLOAD PUSH32 0x8C379A000000000000000000000000000000000000000000000000000000000 DUP2 MSTORE PUSH1 0x4 ADD PUSH2 0x1E9A SWAP1 PUSH2 0x4201 JUMP JUMPDEST PUSH1 0x40 MLOAD DUP1 SWAP2 SUB SWAP1 REVERT JUMPDEST PUSH1 0x5 PUSH0 DUP6 PUSH20 0xFFFFFFFFFFFFFFFFFFFFFFFFFFFFFFFFFFFFFFFF AND PUSH20 0xFFFFFFFFFFFFFFFFFFFFFFFFFFFFFFFFFFFFFFFF AND DUP2 MSTORE PUSH1 0x20 ADD SWAP1 DUP2 MSTORE PUSH1 0x20 ADD PUSH0 KECCAK256 DUP3 DUP2 SLOAD DUP2 LT PUSH2 0x1EF2 JUMPI PUSH2 0x1EF1 PUSH2 0x3FA1 JUMP JUMPDEST JUMPDEST SWAP1 PUSH0 MSTORE PUSH1 0x20 PUSH0 KECCAK256 SWAP1 PUSH1 0x5 MUL ADD PUSH1 0x1 ADD SLOAD DUP4 GT ISZERO PUSH2 0x1F44 JUMPI PUSH1 0x40 MLOAD PUSH32 0x8C379A000000000000000000000000000000000000000000000000000000000 DUP2 MSTORE PUSH1 0x4 ADD PUSH2 0x1F3B SWAP1 PUSH2 0x4451 JUMP JUMPDEST PUSH1 0x40 MLOAD DUP1 SWAP2 SUB SWAP1 REVERT JUMPDEST PUSH0 PUSH8 0xDE0B6B3A7640000 PUSH1 0x5 PUSH0 DUP8 PUSH20 0xFFFFFFFFFFFFFFFFFFFFFFFFFFFFFFFFFFFFFFFF AND PUSH20 0xFFFFFFFFFFFFFFFFFFFFFFFFFFFFFFFFFFFFFFFF AND DUP2 MSTORE PUSH1 0x20 ADD SWAP1 DUP2 MSTORE PUSH1 0x20 ADD PUSH0 KECCAK256 DUP5 DUP2 SLOAD DUP2 LT PUSH2 0x1F9D JUMPI PUSH2 0x1F9C PUSH2 0x3FA1 JUMP JUMPDEST JUMPDEST SWAP1 PUSH0 MSTORE PUSH1 0x20 PUSH0 KECCAK256 SWAP1 PUSH1 0x5 MUL ADD PUSH1 0x2 ADD SLOAD DUP6 PUSH2 0x1FB8 SWAP2 SWAP1 PUSH2 0x3FFB JUMP JUMPDEST PUSH2 0x1FC2 SWAP2 SWAP1 PUSH2 0x3FFB JUMP JUMPDEST SWAP1 POP CALLER PUSH20 0xFFFFFFFFFFFFFFFFFFFFFFFFFFFFFFFFFFFFFFFF AND PUSH1 0x7 DUP4 PUSH1 0x40 MLOAD PUSH2 0x1FEB SWAP2 SWAP1 PUSH2 0x446F JUMP JUMPDEST SWAP1 DUP2 MSTORE PUSH1 0x20 ADD PUSH1 0x40 MLOAD DUP1 SWAP2 SUB SWAP1 KECCAK256 PUSH0 SWAP1 SLOAD SWAP1 PUSH2 0x100 EXP SWAP1 DIV PUSH20 0xFFFFFFFFFFFFFFFFFFFFFFFFFFFFFFFFFFFFFFFF AND PUSH20 0xFFFFFFFFFFFFFFFFFFFFFFFFFFFFFFFFFFFFFFFF AND SUB PUSH2 0x20AC JUMPI PUSH1 0x64 PUSH1 0x5A DUP3 PUSH2 0x2043 SWAP2 SWAP1 PUSH2 0x3FFB JUMP JUMPDEST PUSH2 0x204D SWAP2 SWAP1 PUSH2 0x43D7 JUMP JUMPDEST SWAP1 POP PUSH0 PUSH1 0x7 DUP4 PUSH1 0x40 MLOAD PUSH2 0x2060 SWAP2 SWAP1 PUSH2 0x446F JUMP JUMPDEST SWAP1 DUP2 MSTORE PUSH1 0x20 ADD PUSH1 0x40 MLOAD DUP1 SWAP2 SUB SWAP1 KECCAK256 PUSH0 PUSH2 0x100 EXP DUP2 SLOAD DUP2 PUSH20 0xFFFFFFFFFFFFFFFFFFFFFFFFFFFFFFFFFFFFFFFF MUL NOT AND SWAP1 DUP4 PUSH20 0xFFFFFFFFFFFFFFFFFFFFFFFFFFFFFFFFFFFFFFFF AND MUL OR SWAP1 SSTORE POP JUMPDEST DUP1 CALLVALUE LT ISZERO PUSH2 0x20EF JUMPI PUSH1 0x40 MLOAD PUSH32 0x8C379A000000000000000000000000000000000000000000000000000000000 DUP2 MSTORE PUSH1 0x4 ADD PUSH2 0x20E6 SWAP1 PUSH2 0x44CF JUMP JUMPDEST PUSH1 0x40 MLOAD DUP1 SWAP2 SUB SWAP1 REVERT JUMPDEST PUSH0 DUP1 JUMPDEST PUSH1 0x4 PUSH0 CALLER PUSH20 0xFFFFFFFFFFFFFFFFFFFFFFFFFFFFFFFFFFFFFFFF AND PUSH20 0xFFFFFFFFFFFFFFFFFFFFFFFFFFFFFFFFFFFFFFFF AND DUP2 MSTORE PUSH1 0x20 ADD SWAP1 DUP2 MSTORE PUSH1 0x20 ADD PUSH0 KECCAK256 DUP1 SLOAD SWAP1 POP DUP2 LT ISZERO PUSH2 0x22B5 JUMPI PUSH1 0x4 PUSH0 DUP9 PUSH20 0xFFFFFFFFFFFFFFFFFFFFFFFFFFFFFFFFFFFFFFFF AND PUSH20 0xFFFFFFFFFFFFFFFFFFFFFFFFFFFFFFFFFFFFFFFF AND DUP2 MSTORE PUSH1 0x20 ADD SWAP1 DUP2 MSTORE PUSH1 0x20 ADD PUSH0 KECCAK256 DUP6 DUP2 SLOAD DUP2 LT PUSH2 0x2189 JUMPI PUSH2 0x2188 PUSH2 0x3FA1 JUMP JUMPDEST JUMPDEST SWAP1 PUSH0 MSTORE PUSH1 0x20 PUSH0 KECCAK256 SWAP1 PUSH1 0x5 MUL ADD PUSH1 0x3 ADD PUSH1 0x40 MLOAD PUSH2 0x21A5 SWAP2 SWAP1 PUSH2 0x4589 JUMP JUMPDEST PUSH1 0x40 MLOAD DUP1 SWAP2 SUB SWAP1 KECCAK256 PUSH1 0x4 PUSH0 CALLER PUSH20 0xFFFFFFFFFFFFFFFFFFFFFFFFFFFFFFFFFFFFFFFF AND PUSH20 0xFFFFFFFFFFFFFFFFFFFFFFFFFFFFFFFFFFFFFFFF AND DUP2 MSTORE PUSH1 0x20 ADD SWAP1 DUP2 MSTORE PUSH1 0x20 ADD PUSH0 KECCAK256 DUP3 DUP2 SLOAD DUP2 LT PUSH2 0x21FC JUMPI PUSH2 0x21FB PUSH2 0x3FA1 JUMP JUMPDEST JUMPDEST SWAP1 PUSH0 MSTORE PUSH1 0x20 PUSH0 KECCAK256 SWAP1 PUSH1 0x5 MUL ADD PUSH1 0x3 ADD PUSH1 0x40 MLOAD PUSH2 0x2218 SWAP2 SWAP1 PUSH2 0x4589 JUMP JUMPDEST PUSH1 0x40 MLOAD DUP1 SWAP2 SUB SWAP1 KECCAK256 SUB PUSH2 0x22A2 JUMPI DUP6 PUSH1 0x4 PUSH0 CALLER PUSH20 0xFFFFFFFFFFFFFFFFFFFFFFFFFFFFFFFFFFFFFFFF AND PUSH20 0xFFFFFFFFFFFFFFFFFFFFFFFFFFFFFFFFFFFFFFFF AND DUP2 MSTORE PUSH1 0x20 ADD SWAP1 DUP2 MSTORE PUSH1 0x20 ADD PUSH0 KECCAK256 DUP3 DUP2 SLOAD DUP2 LT PUSH2 0x2275 JUMPI PUSH2 0x2274 PUSH2 0x3FA1 JUMP JUMPDEST JUMPDEST SWAP1 PUSH0 MSTORE PUSH1 0x20 PUSH0 KECCAK256 SWAP1 PUSH1 0x5 MUL ADD PUSH1 0x1 ADD PUSH0 DUP3 DUP3 SLOAD PUSH2 0x2292 SWAP2 SWAP1 PUSH2 0x403C JUMP JUMPDEST SWAP3 POP POP DUP2 SWAP1 SSTORE POP PUSH1 0x1 SWAP2 POP PUSH2 0x22B5 JUMP JUMPDEST DUP1 DUP1 PUSH2 0x22AD SWAP1 PUSH2 0x40E2 JUMP JUMPDEST SWAP2 POP POP PUSH2 0x20F2 JUMP JUMPDEST POP DUP1 PUSH2 0x2527 JUMPI PUSH0 PUSH1 0x40 MLOAD DUP1 PUSH1 0xA0 ADD PUSH1 0x40 MSTORE DUP1 CALLER PUSH20 0xFFFFFFFFFFFFFFFFFFFFFFFFFFFFFFFFFFFFFFFF AND DUP2 MSTORE PUSH1 0x20 ADD DUP8 DUP2 MSTORE PUSH1 0x20 ADD PUSH1 0x5 PUSH0 DUP11 PUSH20 0xFFFFFFFFFFFFFFFFFFFFFFFFFFFFFFFFFFFFFFFF AND PUSH20 0xFFFFFFFFFFFFFFFFFFFFFFFFFFFFFFFFFFFFFFFF AND DUP2 MSTORE PUSH1 0x20 ADD SWAP1 DUP2 MSTORE PUSH1 0x20 ADD PUSH0 KECCAK256 DUP8 DUP2 SLOAD DUP2 LT PUSH2 0x2338 JUMPI PUSH2 0x2337 PUSH2 0x3FA1 JUMP JUMPDEST JUMPDEST SWAP1 PUSH0 MSTORE PUSH1 0x20 PUSH0 KECCAK256 SWAP1 PUSH1 0x5 MUL ADD PUSH1 0x2 ADD SLOAD DUP2 MSTORE PUSH1 0x20 ADD PUSH1 0x5 PUSH0 DUP11 PUSH20 0xFFFFFFFFFFFFFFFFFFFFFFFFFFFFFFFFFFFFFFFF AND PUSH20 0xFFFFFFFFFFFFFFFFFFFFFFFFFFFFFFFFFFFFFFFF AND DUP2 MSTORE PUSH1 0x20 ADD SWAP1 DUP2 MSTORE PUSH1 0x20 ADD PUSH0 KECCAK256 DUP8 DUP2 SLOAD DUP2 LT PUSH2 0x239C JUMPI PUSH2 0x239B PUSH2 0x3FA1 JUMP JUMPDEST JUMPDEST SWAP1 PUSH0 MSTORE PUSH1 0x20 PUSH0 KECCAK256 SWAP1 PUSH1 0x5 MUL ADD PUSH1 0x3 ADD DUP1 SLOAD PUSH2 0x23B6 SWAP1 PUSH2 0x3D05 JUMP JUMPDEST DUP1 PUSH1 0x1F ADD PUSH1 0x20 DUP1 SWAP2 DIV MUL PUSH1 0x20 ADD PUSH1 0x40 MLOAD SWAP1 DUP2 ADD PUSH1 0x40 MSTORE DUP1 SWAP3 SWAP2 SWAP1 DUP2 DUP2 MSTORE PUSH1 0x20 ADD DUP3 DUP1 SLOAD PUSH2 0x23E2 SWAP1 PUSH2 0x3D05 JUMP JUMPDEST DUP1 ISZERO PUSH2 0x242D JUMPI DUP1 PUSH1 0x1F LT PUSH2 0x2404 JUMPI PUSH2 0x100 DUP1 DUP4 SLOAD DIV MUL DUP4 MSTORE SWAP2 PUSH1 0x20 ADD SWAP2 PUSH2 0x242D JUMP JUMPDEST DUP3 ADD SWAP2 SWAP1 PUSH0 MSTORE PUSH1 0x20 PUSH0 KECCAK256 SWAP1 JUMPDEST DUP2 SLOAD DUP2 MSTORE SWAP1 PUSH1 0x1 ADD SWAP1 PUSH1 0x20 ADD DUP1 DUP4 GT PUSH2 0x2410 JUMPI DUP3 SWAP1 SUB PUSH1 0x1F AND DUP3 ADD SWAP2 JUMPDEST POP POP POP POP POP DUP2 MSTORE PUSH1 0x20 ADD PUSH2 0x2442 PUSH2 0x3E8 PUSH2 0x19BB JUMP JUMPDEST DUP2 MSTORE POP SWAP1 POP PUSH1 0x4 PUSH0 CALLER PUSH20 0xFFFFFFFFFFFFFFFFFFFFFFFFFFFFFFFFFFFFFFFF AND PUSH20 0xFFFFFFFFFFFFFFFFFFFFFFFFFFFFFFFFFFFFFFFF AND DUP2 MSTORE PUSH1 0x20 ADD SWAP1 DUP2 MSTORE PUSH1 0x20 ADD PUSH0 KECCAK256 DUP2 SWAP1 DUP1 PUSH1 0x1 DUP2 SLOAD ADD DUP1 DUP3 SSTORE DUP1 SWAP2 POP POP PUSH1 0x1 SWAP1 SUB SWAP1 PUSH0 MSTORE PUSH1 0x20 PUSH0 KECCAK256 SWAP1 PUSH1 0x5 MUL ADD PUSH0 SWAP1 SWAP2 SWAP1 SWAP2 SWAP1 SWAP2 POP PUSH0 DUP3 ADD MLOAD DUP2 PUSH0 ADD PUSH0 PUSH2 0x100 EXP DUP2 SLOAD DUP2 PUSH20 0xFFFFFFFFFFFFFFFFFFFFFFFFFFFFFFFFFFFFFFFF MUL NOT AND SWAP1 DUP4 PUSH20 0xFFFFFFFFFFFFFFFFFFFFFFFFFFFFFFFFFFFFFFFF AND MUL OR SWAP1 SSTORE POP PUSH1 0x20 DUP3 ADD MLOAD DUP2 PUSH1 0x1 ADD SSTORE PUSH1 0x40 DUP3 ADD MLOAD DUP2 PUSH1 0x2 ADD SSTORE PUSH1 0x60 DUP3 ADD MLOAD DUP2 PUSH1 0x3 ADD SWAP1 DUP2 PUSH2 0x2518 SWAP2 SWAP1 PUSH2 0x3ED2 JUMP JUMPDEST POP PUSH1 0x80 DUP3 ADD MLOAD DUP2 PUSH1 0x4 ADD SSTORE POP POP POP JUMPDEST DUP5 PUSH1 0x5 PUSH0 DUP9 PUSH20 0xFFFFFFFFFFFFFFFFFFFFFFFFFFFFFFFFFFFFFFFF AND PUSH20 0xFFFFFFFFFFFFFFFFFFFFFFFFFFFFFFFFFFFFFFFF AND DUP2 MSTORE PUSH1 0x20 ADD SWAP1 DUP2 MSTORE PUSH1 0x20 ADD PUSH0 KECCAK256 DUP6 DUP2 SLOAD DUP2 LT PUSH2 0x2577 JUMPI PUSH2 0x2576 PUSH2 0x3FA1 JUMP JUMPDEST JUMPDEST SWAP1 PUSH0 MSTORE PUSH1 0x20 PUSH0 KECCAK256 SWAP1 PUSH1 0x5 MUL ADD PUSH1 0x1 ADD PUSH0 DUP3 DUP3 SLOAD PUSH2 0x2594 SWAP2 SWAP1 PUSH2 0x406F JUMP JUMPDEST SWAP3 POP POP DUP2 SWAP1 SSTORE POP DUP2 PUSH1 0x3 PUSH0 DUP9 PUSH20 0xFFFFFFFFFFFFFFFFFFFFFFFFFFFFFFFFFFFFFFFF AND PUSH20 0xFFFFFFFFFFFFFFFFFFFFFFFFFFFFFFFFFFFFFFFF AND DUP2 MSTORE PUSH1 0x20 ADD SWAP1 DUP2 MSTORE PUSH1 0x20 ADD PUSH0 KECCAK256 PUSH1 0x1 ADD PUSH0 DUP3 DUP3 SLOAD PUSH2 0x25EA SWAP2 SWAP1 PUSH2 0x403C JUMP JUMPDEST SWAP3 POP POP DUP2 SWAP1 SSTORE POP DUP2 CALLVALUE GT ISZERO PUSH2 0x2649 JUMPI CALLER PUSH20 0xFFFFFFFFFFFFFFFFFFFFFFFFFFFFFFFFFFFFFFFF AND PUSH2 0x8FC DUP4 CALLVALUE PUSH2 0x261F SWAP2 SWAP1 PUSH2 0x406F JUMP JUMPDEST SWAP1 DUP2 ISZERO MUL SWAP1 PUSH1 0x40 MLOAD PUSH0 PUSH1 0x40 MLOAD DUP1 DUP4 SUB DUP2 DUP6 DUP9 DUP9 CALL SWAP4 POP POP POP POP ISZERO DUP1 ISZERO PUSH2 0x2647 JUMPI RETURNDATASIZE PUSH0 DUP1 RETURNDATACOPY RETURNDATASIZE PUSH0 REVERT JUMPDEST POP JUMPDEST POP POP POP POP POP POP JUMP JUMPDEST DUP1 PUSH20 0xFFFFFFFFFFFFFFFFFFFFFFFFFFFFFFFFFFFFFFFF AND CALLER PUSH20 0xFFFFFFFFFFFFFFFFFFFFFFFFFFFFFFFFFFFFFFFF AND SUB PUSH2 0x2688 JUMPI PUSH0 DUP1 REVERT JUMPDEST DUP1 PUSH1 0x7 DUP4 PUSH1 0x40 MLOAD PUSH2 0x2699 SWAP2 SWAP1 PUSH2 0x446F JUMP JUMPDEST SWAP1 DUP2 MSTORE PUSH1 0x20 ADD PUSH1 0x40 MLOAD DUP1 SWAP2 SUB SWAP1 KECCAK256 PUSH0 PUSH2 0x100 EXP DUP2 SLOAD DUP2 PUSH20 0xFFFFFFFFFFFFFFFFFFFFFFFFFFFFFFFFFFFFFFFF MUL NOT AND SWAP1 DUP4 PUSH20 0xFFFFFFFFFFFFFFFFFFFFFFFFFFFFFFFFFFFFFFFF AND MUL OR SWAP1 SSTORE POP POP POP JUMP JUMPDEST PUSH1 0x3 PUSH1 0x20 MSTORE DUP1 PUSH0 MSTORE PUSH1 0x40 PUSH0 KECCAK256 PUSH0 SWAP2 POP SWAP1 POP DUP1 PUSH0 ADD PUSH0 SWAP1 SLOAD SWAP1 PUSH2 0x100 EXP SWAP1 DIV PUSH1 0xFF AND SWAP1 DUP1 PUSH1 0x1 ADD SLOAD SWAP1 POP DUP3 JUMP JUMPDEST PUSH1 0x40 MLOAD DUP1 PUSH1 0x40 ADD PUSH1 0x40 MSTORE DUP1 PUSH0 PUSH1 0x2 DUP2 GT ISZERO PUSH2 0x2732 JUMPI PUSH2 0x2731 PUSH2 0x3425 JUMP JUMPDEST JUMPDEST DUP2 MSTORE PUSH1 0x20 ADD PUSH0 DUP2 MSTORE POP PUSH1 0x3 PUSH0 CALLER PUSH20 0xFFFFFFFFFFFFFFFFFFFFFFFFFFFFFFFFFFFFFFFF AND PUSH20 0xFFFFFFFFFFFFFFFFFFFFFFFFFFFFFFFFFFFFFFFF AND DUP2 MSTORE PUSH1 0x20 ADD SWAP1 DUP2 MSTORE PUSH1 0x20 ADD PUSH0 KECCAK256 PUSH0 DUP3 ADD MLOAD DUP2 PUSH0 ADD PUSH0 PUSH2 0x100 EXP DUP2 SLOAD DUP2 PUSH1 0xFF MUL NOT AND SWAP1 DUP4 PUSH1 0x2 DUP2 GT ISZERO PUSH2 0x27A0 JUMPI PUSH2 0x279F PUSH2 0x3425 JUMP JUMPDEST JUMPDEST MUL OR SWAP1 SSTORE POP PUSH1 0x20 DUP3 ADD MLOAD DUP2 PUSH1 0x1 ADD SSTORE SWAP1 POP POP JUMP JUMPDEST PUSH1 0x7 DUP2 DUP1 MLOAD PUSH1 0x20 DUP2 ADD DUP3 ADD DUP1 MLOAD DUP5 DUP3 MSTORE PUSH1 0x20 DUP4 ADD PUSH1 0x20 DUP6 ADD KECCAK256 DUP2 DUP4 MSTORE DUP1 SWAP6 POP POP POP POP POP POP PUSH0 SWAP2 POP SLOAD SWAP1 PUSH2 0x100 EXP SWAP1 DIV PUSH20 0xFFFFFFFFFFFFFFFFFFFFFFFFFFFFFFFFFFFFFFFF AND DUP2 JUMP JUMPDEST PUSH0 CALLER DUP2 PUSH1 0x2 DUP2 GT ISZERO PUSH2 0x2811 JUMPI PUSH2 0x2810 PUSH2 0x3425 JUMP JUMPDEST JUMPDEST PUSH1 0x3 PUSH0 CALLER PUSH20 0xFFFFFFFFFFFFFFFFFFFFFFFFFFFFFFFFFFFFFFFF AND PUSH20 0xFFFFFFFFFFFFFFFFFFFFFFFFFFFFFFFFFFFFFFFF AND DUP2 MSTORE PUSH1 0x20 ADD SWAP1 DUP2 MSTORE PUSH1 0x20 ADD PUSH0 KECCAK256 PUSH0 ADD PUSH0 SWAP1 SLOAD SWAP1 PUSH2 0x100 EXP SWAP1 DIV PUSH1 0xFF AND PUSH1 0x2 DUP2 GT ISZERO PUSH2 0x286F JUMPI PUSH2 0x286E PUSH2 0x3425 JUMP JUMPDEST JUMPDEST EQ PUSH2 0x28AF JUMPI PUSH1 0x40 MLOAD PUSH32 0x8C379A000000000000000000000000000000000000000000000000000000000 DUP2 MSTORE PUSH1 0x4 ADD PUSH2 0x28A6 SWAP1 PUSH2 0x3C2C JUMP JUMPDEST PUSH1 0x40 MLOAD DUP1 SWAP2 SUB SWAP1 REVERT JUMPDEST DUP1 PUSH20 0xFFFFFFFFFFFFFFFFFFFFFFFFFFFFFFFFFFFFFFFF AND CALLER PUSH20 0xFFFFFFFFFFFFFFFFFFFFFFFFFFFFFFFFFFFFFFFF AND EQ PUSH2 0x291D JUMPI PUSH1 0x40 MLOAD PUSH32 0x8C379A000000000000000000000000000000000000000000000000000000000 DUP2 MSTORE PUSH1 0x4 ADD PUSH2 0x2914 SWAP1 PUSH2 0x3CBA JUMP JUMPDEST PUSH1 0x40 MLOAD DUP1 SWAP2 SUB SWAP1 REVERT JUMPDEST PUSH1 0x1 PUSH1 0x3 DUP2 GT ISZERO PUSH2 0x2931 JUMPI PUSH2 0x2930 PUSH2 0x3425 JUMP JUMPDEST JUMPDEST PUSH1 0x2 DUP5 DUP2 SLOAD DUP2 LT PUSH2 0x2945 JUMPI PUSH2 0x2944 PUSH2 0x3FA1 JUMP JUMPDEST JUMPDEST SWAP1 PUSH0 MSTORE PUSH1 0x20 PUSH0 KECCAK256 SWAP1 PUSH1 0x5 MUL ADD PUSH1 0x1 ADD PUSH1 0x14 SWAP1 SLOAD SWAP1 PUSH2 0x100 EXP SWAP1 DIV PUSH1 0xFF AND PUSH1 0x3 DUP2 GT ISZERO PUSH2 0x2974 JUMPI PUSH2 0x2973 PUSH2 0x3425 JUMP JUMPDEST JUMPDEST EQ PUSH2 0x297D JUMPI PUSH0 DUP1 REVERT JUMPDEST DUP4 ISZERO PUSH2 0x2A07 JUMPI PUSH2 0x2A02 PUSH1 0x2 DUP5 DUP2 SLOAD DUP2 LT PUSH2 0x299A JUMPI PUSH2 0x2999 PUSH2 0x3FA1 JUMP JUMPDEST JUMPDEST SWAP1 PUSH0 MSTORE PUSH1 0x20 PUSH0 KECCAK256 SWAP1 PUSH1 0x5 MUL ADD PUSH1 0x1 ADD PUSH0 SWAP1 SLOAD SWAP1 PUSH2 0x100 EXP SWAP1 DIV PUSH20 0xFFFFFFFFFFFFFFFFFFFFFFFFFFFFFFFFFFFFFFFF AND PUSH1 0x2 DUP6 DUP2 SLOAD DUP2 LT PUSH2 0x29DD JUMPI PUSH2 0x29DC PUSH2 0x3FA1 JUMP JUMPDEST JUMPDEST SWAP1 PUSH0 MSTORE PUSH1 0x20 PUSH0 KECCAK256 SWAP1 PUSH1 0x5 MUL ADD PUSH1 0x4 ADD SLOAD DUP6 PUSH1 0x40 MLOAD DUP1 PUSH1 0x20 ADD PUSH1 0x40 MSTORE DUP1 PUSH0 DUP2 MSTORE POP PUSH2 0x1CCA JUMP JUMPDEST PUSH2 0x2A61 JUMP JUMPDEST PUSH1 0x2 PUSH1 0x3 DUP2 GT ISZERO PUSH2 0x2A1B JUMPI PUSH2 0x2A1A PUSH2 0x3425 JUMP JUMPDEST JUMPDEST PUSH1 0x2 DUP5 DUP2 SLOAD DUP2 LT PUSH2 0x2A2F JUMPI PUSH2 0x2A2E PUSH2 0x3FA1 JUMP JUMPDEST JUMPDEST SWAP1 PUSH0 MSTORE PUSH1 0x20 PUSH0 KECCAK256 SWAP1 PUSH1 0x5 MUL ADD PUSH1 0x1 ADD PUSH1 0x14 SWAP1 SLOAD SWAP1 PUSH2 0x100 EXP SWAP1 DIV PUSH1 0xFF AND PUSH1 0x3 DUP2 GT ISZERO PUSH2 0x2A5E JUMPI PUSH2 0x2A5D PUSH2 0x3425 JUMP JUMPDEST JUMPDEST POP POP JUMPDEST POP POP POP POP JUMP JUMPDEST DUP1 PUSH20 0xFFFFFFFFFFFFFFFFFFFFFFFFFFFFFFFFFFFFFFFF AND PUSH2 0x8FC PUSH1 0x3 PUSH0 DUP5 PUSH20 0xFFFFFFFFFFFFFFFFFFFFFFFFFFFFFFFFFFFFFFFF AND PUSH20 0xFFFFFFFFFFFFFFFFFFFFFFFFFFFFFFFFFFFFFFFF AND DUP2 MSTORE PUSH1 0x20 ADD SWAP1 DUP2 MSTORE PUSH1 0x20 ADD PUSH0 KECCAK256 PUSH1 0x1 ADD SLOAD SWAP1 DUP2 ISZERO MUL SWAP1 PUSH1 0x40 MLOAD PUSH0 PUSH1 0x40 MLOAD DUP1 DUP4 SUB DUP2 DUP6 DUP9 DUP9 CALL SWAP4 POP POP POP POP ISZERO DUP1 ISZERO PUSH2 0x2AEA JUMPI RETURNDATASIZE PUSH0 DUP1 RETURNDATACOPY RETURNDATASIZE PUSH0 REVERT JUMPDEST POP POP JUMP JUMPDEST PUSH1 0x1 DUP5 DUP2 PUSH1 0x2 DUP2 GT ISZERO PUSH2 0x2B04 JUMPI PUSH2 0x2B03 PUSH2 0x3425 JUMP JUMPDEST JUMPDEST PUSH1 0x3 PUSH0 CALLER PUSH20 0xFFFFFFFFFFFFFFFFFFFFFFFFFFFFFFFFFFFFFFFF AND PUSH20 0xFFFFFFFFFFFFFFFFFFFFFFFFFFFFFFFFFFFFFFFF AND DUP2 MSTORE PUSH1 0x20 ADD SWAP1 DUP2 MSTORE PUSH1 0x20 ADD PUSH0 KECCAK256 PUSH0 ADD PUSH0 SWAP1 SLOAD SWAP1 PUSH2 0x100 EXP SWAP1 DIV PUSH1 0xFF AND PUSH1 0x2 DUP2 GT ISZERO PUSH2 0x2B62 JUMPI PUSH2 0x2B61 PUSH2 0x3425 JUMP JUMPDEST JUMPDEST EQ PUSH2 0x2BA2 JUMPI PUSH1 0x40 MLOAD PUSH32 0x8C379A000000000000000000000000000000000000000000000000000000000 DUP2 MSTORE PUSH1 0x4 ADD PUSH2 0x2B99 SWAP1 PUSH2 0x3C2C JUMP JUMPDEST PUSH1 0x40 MLOAD DUP1 SWAP2 SUB SWAP1 REVERT JUMPDEST DUP1 PUSH20 0xFFFFFFFFFFFFFFFFFFFFFFFFFFFFFFFFFFFFFFFF AND CALLER PUSH20 0xFFFFFFFFFFFFFFFFFFFFFFFFFFFFFFFFFFFFFFFF AND EQ PUSH2 0x2C10 JUMPI PUSH1 0x40 MLOAD PUSH32 0x8C379A000000000000000000000000000000000000000000000000000000000 DUP2 MSTORE PUSH1 0x4 ADD PUSH2 0x2C07 SWAP1 PUSH2 0x3CBA JUMP JUMPDEST PUSH1 0x40 MLOAD DUP1 SWAP2 SUB SWAP1 REVERT JUMPDEST PUSH0 DUP5 GT PUSH2 0x2C52 JUMPI PUSH1 0x40 MLOAD PUSH32 0x8C379A000000000000000000000000000000000000000000000000000000000 DUP2 MSTORE PUSH1 0x4 ADD PUSH2 0x2C49 SWAP1 PUSH2 0x4199 JUMP JUMPDEST PUSH1 0x40 MLOAD DUP1 SWAP2 SUB SWAP1 REVERT JUMPDEST PUSH1 0x6 PUSH0 DUP5 PUSH20 0xFFFFFFFFFFFFFFFFFFFFFFFFFFFFFFFFFFFFFFFF AND PUSH20 0xFFFFFFFFFFFFFFFFFFFFFFFFFFFFFFFFFFFFFFFF AND DUP2 MSTORE PUSH1 0x20 ADD SWAP1 DUP2 MSTORE PUSH1 0x20 ADD PUSH0 KECCAK256 DUP1 SLOAD SWAP1 POP DUP6 LT PUSH2 0x2CD4 JUMPI PUSH1 0x40 MLOAD PUSH32 0x8C379A000000000000000000000000000000000000000000000000000000000 DUP2 MSTORE PUSH1 0x4 ADD PUSH2 0x2CCB SWAP1 PUSH2 0x4201 JUMP JUMPDEST PUSH1 0x40 MLOAD DUP1 SWAP2 SUB SWAP1 REVERT JUMPDEST PUSH0 PUSH1 0x6 PUSH0 DUP6 PUSH20 0xFFFFFFFFFFFFFFFFFFFFFFFFFFFFFFFFFFFFFFFF AND PUSH20 0xFFFFFFFFFFFFFFFFFFFFFFFFFFFFFFFFFFFFFFFF AND DUP2 MSTORE PUSH1 0x20 ADD SWAP1 DUP2 MSTORE PUSH1 0x20 ADD PUSH0 KECCAK256 DUP7 DUP2 SLOAD DUP2 LT PUSH2 0x2D24 JUMPI PUSH2 0x2D23 PUSH2 0x3FA1 JUMP JUMPDEST JUMPDEST SWAP1 PUSH0 MSTORE PUSH1 0x20 PUSH0 KECCAK256 SWAP1 PUSH1 0x5 MUL ADD PUSH1 0x2 ADD SLOAD SWAP1 POP PUSH0 PUSH8 0xDE0B6B3A7640000 DUP7 DUP4 PUSH2 0x2D4C SWAP2 SWAP1 PUSH2 0x3FFB JUMP JUMPDEST PUSH2 0x2D56 SWAP2 SWAP1 PUSH2 0x3FFB JUMP JUMPDEST SWAP1 POP DUP1 CALLVALUE LT ISZERO PUSH2 0x2D9B JUMPI PUSH1 0x40 MLOAD PUSH32 0x8C379A000000000000000000000000000000000000000000000000000000000 DUP2 MSTORE PUSH1 0x4 ADD PUSH2 0x2D92 SWAP1 PUSH2 0x44CF JUMP JUMPDEST PUSH1 0x40 MLOAD DUP1 SWAP2 SUB SWAP1 REVERT JUMPDEST PUSH0 PUSH1 0x6 PUSH0 DUP8 PUSH20 0xFFFFFFFFFFFFFFFFFFFFFFFFFFFFFFFFFFFFFFFF AND PUSH20 0xFFFFFFFFFFFFFFFFFFFFFFFFFFFFFFFFFFFFFFFF AND DUP2 MSTORE PUSH1 0x20 ADD SWAP1 DUP2 MSTORE PUSH1 0x20 ADD PUSH0 KECCAK256 DUP9 DUP2 SLOAD DUP2 LT PUSH2 0x2DEB JUMPI PUSH2 0x2DEA PUSH2 0x3FA1 JUMP JUMPDEST JUMPDEST SWAP1 PUSH0 MSTORE PUSH1 0x20 PUSH0 KECCAK256 SWAP1 PUSH1 0x5 MUL ADD PUSH1 0x3 ADD DUP1 SLOAD PUSH2 0x2E05 SWAP1 PUSH2 0x3D05 JUMP JUMPDEST DUP1 PUSH1 0x1F ADD PUSH1 0x20 DUP1 SWAP2 DIV MUL PUSH1 0x20 ADD PUSH1 0x40 MLOAD SWAP1 DUP2 ADD PUSH1 0x40 MSTORE DUP1 SWAP3 SWAP2 SWAP1 DUP2 DUP2 MSTORE PUSH1 0x20 ADD DUP3 DUP1 SLOAD PUSH2 0x2E31 SWAP1 PUSH2 0x3D05 JUMP JUMPDEST DUP1 ISZERO PUSH2 0x2E7C JUMPI DUP1 PUSH1 0x1F LT PUSH2 0x2E53 JUMPI PUSH2 0x100 DUP1 DUP4 SLOAD DIV MUL DUP4 MSTORE SWAP2 PUSH1 0x20 ADD SWAP2 PUSH2 0x2E7C JUMP JUMPDEST DUP3 ADD SWAP2 SWAP1 PUSH0 MSTORE PUSH1 0x20 PUSH0 KECCAK256 SWAP1 JUMPDEST DUP2 SLOAD DUP2 MSTORE SWAP1 PUSH1 0x1 ADD SWAP1 PUSH1 0x20 ADD DUP1 DUP4 GT PUSH2 0x2E5F JUMPI DUP3 SWAP1 SUB PUSH1 0x1F AND DUP3 ADD SWAP2 JUMPDEST POP POP POP POP POP SWAP1 POP PUSH0 DUP1 JUMPDEST PUSH1 0x5 PUSH0 DUP13 PUSH20 0xFFFFFFFFFFFFFFFFFFFFFFFFFFFFFFFFFFFFFFFF AND PUSH20 0xFFFFFFFFFFFFFFFFFFFFFFFFFFFFFFFFFFFFFFFF AND DUP2 MSTORE PUSH1 0x20 ADD SWAP1 DUP2 MSTORE PUSH1 0x20 ADD PUSH0 KECCAK256 DUP1 SLOAD SWAP1 POP DUP2 LT ISZERO PUSH2 0x2FDE JUMPI PUSH1 0x5 PUSH0 DUP13 PUSH20 0xFFFFFFFFFFFFFFFFFFFFFFFFFFFFFFFFFFFFFFFF AND PUSH20 0xFFFFFFFFFFFFFFFFFFFFFFFFFFFFFFFFFFFFFFFF AND DUP2 MSTORE PUSH1 0x20 ADD SWAP1 DUP2 MSTORE PUSH1 0x20 ADD PUSH0 KECCAK256 DUP2 DUP2 SLOAD DUP2 LT PUSH2 0x2F1D JUMPI PUSH2 0x2F1C PUSH2 0x3FA1 JUMP JUMPDEST JUMPDEST SWAP1 PUSH0 MSTORE PUSH1 0x20 PUSH0 KECCAK256 SWAP1 PUSH1 0x5 MUL ADD PUSH1 0x3 ADD PUSH1 0x40 MLOAD PUSH2 0x2F39 SWAP2 SWAP1 PUSH2 0x4589 JUMP JUMPDEST PUSH1 0x40 MLOAD DUP1 SWAP2 SUB SWAP1 KECCAK256 DUP4 DUP1 MLOAD SWAP1 PUSH1 0x20 ADD KECCAK256 SUB PUSH2 0x2FCB JUMPI DUP9 PUSH1 0x5 PUSH0 DUP14 PUSH20 0xFFFFFFFFFFFFFFFFFFFFFFFFFFFFFFFFFFFFFFFF AND PUSH20 0xFFFFFFFFFFFFFFFFFFFFFFFFFFFFFFFFFFFFFFFF AND DUP2 MSTORE PUSH1 0x20 ADD SWAP1 DUP2 MSTORE PUSH1 0x20 ADD PUSH0 KECCAK256 DUP3 DUP2 SLOAD DUP2 LT PUSH2 0x2F9E JUMPI PUSH2 0x2F9D PUSH2 0x3FA1 JUMP JUMPDEST JUMPDEST SWAP1 PUSH0 MSTORE PUSH1 0x20 PUSH0 KECCAK256 SWAP1 PUSH1 0x5 MUL ADD PUSH1 0x1 ADD PUSH0 DUP3 DUP3 SLOAD PUSH2 0x2FBB SWAP2 SWAP1 PUSH2 0x403C JUMP JUMPDEST SWAP3 POP POP DUP2 SWAP1 SSTORE POP PUSH1 0x1 SWAP2 POP PUSH2 0x2FDE JUMP JUMPDEST DUP1 DUP1 PUSH2 0x2FD6 SWAP1 PUSH2 0x40E2 JUMP JUMPDEST SWAP2 POP POP PUSH2 0x2E86 JUMP JUMPDEST POP DUP1 PUSH2 0x3162 JUMPI PUSH0 PUSH1 0x40 MLOAD DUP1 PUSH1 0xA0 ADD PUSH1 0x40 MSTORE DUP1 DUP10 PUSH20 0xFFFFFFFFFFFFFFFFFFFFFFFFFFFFFFFFFFFFFFFF AND DUP2 MSTORE PUSH1 0x20 ADD DUP11 DUP2 MSTORE PUSH1 0x20 ADD DUP7 DUP2 MSTORE PUSH1 0x20 ADD DUP5 DUP2 MSTORE PUSH1 0x20 ADD PUSH1 0x6 PUSH0 DUP12 PUSH20 0xFFFFFFFFFFFFFFFFFFFFFFFFFFFFFFFFFFFFFFFF AND PUSH20 0xFFFFFFFFFFFFFFFFFFFFFFFFFFFFFFFFFFFFFFFF AND DUP2 MSTORE PUSH1 0x20 ADD SWAP1 DUP2 MSTORE PUSH1 0x20 ADD PUSH0 KECCAK256 DUP13 DUP2 SLOAD DUP2 LT PUSH2 0x306D JUMPI PUSH2 0x306C PUSH2 0x3FA1 JUMP JUMPDEST JUMPDEST SWAP1 PUSH0 MSTORE PUSH1 0x20 PUSH0 KECCAK256 SWAP1 PUSH1 0x5 MUL ADD PUSH1 0x4 ADD SLOAD DUP2 MSTORE POP SWAP1 POP PUSH1 0x5 PUSH0 DUP13 PUSH20 0xFFFFFFFFFFFFFFFFFFFFFFFFFFFFFFFFFFFFFFFF AND PUSH20 0xFFFFFFFFFFFFFFFFFFFFFFFFFFFFFFFFFFFFFFFF AND DUP2 MSTORE PUSH1 0x20 ADD SWAP1 DUP2 MSTORE PUSH1 0x20 ADD PUSH0 KECCAK256 DUP2 SWAP1 DUP1 PUSH1 0x1 DUP2 SLOAD ADD DUP1 DUP3 SSTORE DUP1 SWAP2 POP POP PUSH1 0x1 SWAP1 SUB SWAP1 PUSH0 MSTORE PUSH1 0x20 PUSH0 KECCAK256 SWAP1 PUSH1 0x5 MUL ADD PUSH0 SWAP1 SWAP2 SWAP1 SWAP2 SWAP1 SWAP2 POP PUSH0 DUP3 ADD MLOAD DUP2 PUSH0 ADD PUSH0 PUSH2 0x100 EXP DUP2 SLOAD DUP2 PUSH20 0xFFFFFFFFFFFFFFFFFFFFFFFFFFFFFFFFFFFFFFFF MUL NOT AND SWAP1 DUP4 PUSH20 0xFFFFFFFFFFFFFFFFFFFFFFFFFFFFFFFFFFFFFFFF AND MUL OR SWAP1 SSTORE POP PUSH1 0x20 DUP3 ADD MLOAD DUP2 PUSH1 0x1 ADD SSTORE PUSH1 0x40 DUP3 ADD MLOAD DUP2 PUSH1 0x2 ADD SSTORE PUSH1 0x60 DUP3 ADD MLOAD DUP2 PUSH1 0x3 ADD SWAP1 DUP2 PUSH2 0x3153 SWAP2 SWAP1 PUSH2 0x3ED2 JUMP JUMPDEST POP PUSH1 0x80 DUP3 ADD MLOAD DUP2 PUSH1 0x4 ADD SSTORE POP POP POP JUMPDEST DUP8 PUSH1 0x6 PUSH0 DUP10 PUSH20 0xFFFFFFFFFFFFFFFFFFFFFFFFFFFFFFFFFFFFFFFF AND PUSH20 0xFFFFFFFFFFFFFFFFFFFFFFFFFFFFFFFFFFFFFFFF AND DUP2 MSTORE PUSH1 0x20 ADD SWAP1 DUP2 MSTORE PUSH1 0x20 ADD PUSH0 KECCAK256 DUP11 DUP2 SLOAD DUP2 LT PUSH2 0x31B2 JUMPI PUSH2 0x31B1 PUSH2 0x3FA1 JUMP JUMPDEST JUMPDEST SWAP1 PUSH0 MSTORE PUSH1 0x20 PUSH0 KECCAK256 SWAP1 PUSH1 0x5 MUL ADD PUSH1 0x1 ADD PUSH0 DUP3 DUP3 SLOAD PUSH2 0x31CF SWAP2 SWAP1 PUSH2 0x406F JUMP JUMPDEST SWAP3 POP POP DUP2 SWAP1 SSTORE POP DUP3 CALLVALUE GT ISZERO PUSH2 0x322E JUMPI CALLER PUSH20 0xFFFFFFFFFFFFFFFFFFFFFFFFFFFFFFFFFFFFFFFF AND PUSH2 0x8FC DUP5 CALLVALUE PUSH2 0x3204 SWAP2 SWAP1 PUSH2 0x406F JUMP JUMPDEST SWAP1 DUP2 ISZERO MUL SWAP1 PUSH1 0x40 MLOAD PUSH0 PUSH1 0x40 MLOAD DUP1 DUP4 SUB DUP2 DUP6 DUP9 DUP9 CALL SWAP4 POP POP POP POP ISZERO DUP1 ISZERO PUSH2 0x322C JUMPI RETURNDATASIZE PUSH0 DUP1 RETURNDATACOPY RETURNDATASIZE PUSH0 REVERT JUMPDEST POP JUMPDEST POP POP POP POP POP POP POP POP POP POP JUMP JUMPDEST POP DUP1 SLOAD PUSH2 0x3246 SWAP1 PUSH2 0x3D05 JUMP JUMPDEST PUSH0 DUP3 SSTORE DUP1 PUSH1 0x1F LT PUSH2 0x3257 JUMPI POP PUSH2 0x3274 JUMP JUMPDEST PUSH1 0x1F ADD PUSH1 0x20 SWAP1 DIV SWAP1 PUSH0 MSTORE PUSH1 0x20 PUSH0 KECCAK256 SWAP1 DUP2 ADD SWAP1 PUSH2 0x3273 SWAP2 SWAP1 PUSH2 0x3277 JUMP JUMPDEST JUMPDEST POP JUMP JUMPDEST JUMPDEST DUP1 DUP3 GT ISZERO PUSH2 0x328E JUMPI PUSH0 DUP2 PUSH0 SWAP1 SSTORE POP PUSH1 0x1 ADD PUSH2 0x3278 JUMP JUMPDEST POP SWAP1 JUMP JUMPDEST PUSH0 PUSH1 0x40 MLOAD SWAP1 POP SWAP1 JUMP JUMPDEST PUSH0 DUP1 REVERT JUMPDEST PUSH0 DUP1 REVERT JUMPDEST PUSH0 DUP2 SWAP1 POP SWAP2 SWAP1 POP JUMP JUMPDEST PUSH2 0x32B5 DUP2 PUSH2 0x32A3 JUMP JUMPDEST DUP2 EQ PUSH2 0x32BF JUMPI PUSH0 DUP1 REVERT JUMPDEST POP JUMP JUMPDEST PUSH0 DUP2 CALLDATALOAD SWAP1 POP PUSH2 0x32D0 DUP2 PUSH2 0x32AC JUMP JUMPDEST SWAP3 SWAP2 POP POP JUMP JUMPDEST PUSH0 DUP1 REVERT JUMPDEST PUSH0 DUP1 REVERT JUMPDEST PUSH0 DUP1 REVERT JUMPDEST PUSH0 DUP1 DUP4 PUSH1 0x1F DUP5 ADD SLT PUSH2 0x32F7 JUMPI PUSH2 0x32F6 PUSH2 0x32D6 JUMP JUMPDEST JUMPDEST DUP3 CALLDATALOAD SWAP1 POP PUSH8 0xFFFFFFFFFFFFFFFF DUP2 GT ISZERO PUSH2 0x3314 JUMPI PUSH2 0x3313 PUSH2 0x32DA JUMP JUMPDEST JUMPDEST PUSH1 0x20 DUP4 ADD SWAP2 POP DUP4 PUSH1 0x1 DUP3 MUL DUP4 ADD GT ISZERO PUSH2 0x3330 JUMPI PUSH2 0x332F PUSH2 0x32DE JUMP JUMPDEST JUMPDEST SWAP3 POP SWAP3 SWAP1 POP JUMP JUMPDEST PUSH0 DUP1 PUSH0 DUP1 PUSH0 PUSH1 0x80 DUP7 DUP9 SUB SLT ISZERO PUSH2 0x3350 JUMPI PUSH2 0x334F PUSH2 0x329B JUMP JUMPDEST JUMPDEST PUSH0 PUSH2 0x335D DUP9 DUP3 DUP10 ADD PUSH2 0x32C2 JUMP JUMPDEST SWAP6 POP POP PUSH1 0x20 PUSH2 0x336E DUP9 DUP3 DUP10 ADD PUSH2 0x32C2 JUMP JUMPDEST SWAP5 POP POP PUSH1 0x40 DUP7 ADD CALLDATALOAD PUSH8 0xFFFFFFFFFFFFFFFF DUP2 GT ISZERO PUSH2 0x338F JUMPI PUSH2 0x338E PUSH2 0x329F JUMP JUMPDEST JUMPDEST PUSH2 0x339B DUP9 DUP3 DUP10 ADD PUSH2 0x32E2 JUMP JUMPDEST SWAP4 POP SWAP4 POP POP PUSH1 0x60 PUSH2 0x33AE DUP9 DUP3 DUP10 ADD PUSH2 0x32C2 JUMP JUMPDEST SWAP2 POP POP SWAP3 SWAP6 POP SWAP3 SWAP6 SWAP1 SWAP4 POP JUMP JUMPDEST PUSH0 PUSH1 0x20 DUP3 DUP5 SUB SLT ISZERO PUSH2 0x33D0 JUMPI PUSH2 0x33CF PUSH2 0x329B JUMP JUMPDEST JUMPDEST PUSH0 PUSH2 0x33DD DUP5 DUP3 DUP6 ADD PUSH2 0x32C2 JUMP JUMPDEST SWAP2 POP POP SWAP3 SWAP2 POP POP JUMP JUMPDEST PUSH0 PUSH20 0xFFFFFFFFFFFFFFFFFFFFFFFFFFFFFFFFFFFFFFFF DUP3 AND SWAP1 POP SWAP2 SWAP1 POP JUMP JUMPDEST PUSH0 PUSH2 0x340F DUP3 PUSH2 0x33E6 JUMP JUMPDEST SWAP1 POP SWAP2 SWAP1 POP JUMP JUMPDEST PUSH2 0x341F DUP2 PUSH2 0x3405 JUMP JUMPDEST DUP3 MSTORE POP POP JUMP JUMPDEST PUSH32 0x4E487B7100000000000000000000000000000000000000000000000000000000 PUSH0 MSTORE PUSH1 0x21 PUSH1 0x4 MSTORE PUSH1 0x24 PUSH0 REVERT JUMPDEST PUSH1 0x4 DUP2 LT PUSH2 0x3463 JUMPI PUSH2 0x3462 PUSH2 0x3425 JUMP JUMPDEST JUMPDEST POP JUMP JUMPDEST PUSH0 DUP2 SWAP1 POP PUSH2 0x3473 DUP3 PUSH2 0x3452 JUMP JUMPDEST SWAP2 SWAP1 POP JUMP JUMPDEST PUSH0 PUSH2 0x3482 DUP3 PUSH2 0x3466 JUMP JUMPDEST SWAP1 POP SWAP2 SWAP1 POP JUMP JUMPDEST PUSH2 0x3492 DUP2 PUSH2 0x3478 JUMP JUMPDEST DUP3 MSTORE POP POP JUMP JUMPDEST PUSH0 DUP2 MLOAD SWAP1 POP SWAP2 SWAP1 POP JUMP JUMPDEST PUSH0 DUP3 DUP3 MSTORE PUSH1 0x20 DUP3 ADD SWAP1 POP SWAP3 SWAP2 POP POP JUMP JUMPDEST PUSH0 JUMPDEST DUP4 DUP2 LT ISZERO PUSH2 0x34CF JUMPI DUP1 DUP3 ADD MLOAD DUP2 DUP5 ADD MSTORE PUSH1 0x20 DUP2 ADD SWAP1 POP PUSH2 0x34B4 JUMP JUMPDEST PUSH0 DUP5 DUP5 ADD MSTORE POP POP POP POP JUMP JUMPDEST PUSH0 PUSH1 0x1F NOT PUSH1 0x1F DUP4 ADD AND SWAP1 POP SWAP2 SWAP1 POP JUMP JUMPDEST PUSH0 PUSH2 0x34F4 DUP3 PUSH2 0x3498 JUMP JUMPDEST PUSH2 0x34FE DUP2 DUP6 PUSH2 0x34A2 JUMP JUMPDEST SWAP4 POP PUSH2 0x350E DUP2 DUP6 PUSH1 0x20 DUP7 ADD PUSH2 0x34B2 JUMP JUMPDEST PUSH2 0x3517 DUP2 PUSH2 0x34DA JUMP JUMPDEST DUP5 ADD SWAP2 POP POP SWAP3 SWAP2 POP POP JUMP JUMPDEST PUSH2 0x352B DUP2 PUSH2 0x32A3 JUMP JUMPDEST DUP3 MSTORE POP POP JUMP JUMPDEST PUSH0 PUSH1 0xC0 DUP3 ADD SWAP1 POP PUSH2 0x3544 PUSH0 DUP4 ADD DUP10 PUSH2 0x3416 JUMP JUMPDEST PUSH2 0x3551 PUSH1 0x20 DUP4 ADD DUP9 PUSH2 0x3416 JUMP JUMPDEST PUSH2 0x355E PUSH1 0x40 DUP4 ADD DUP8 PUSH2 0x3489 JUMP JUMPDEST DUP2 DUP2 SUB PUSH1 0x60 DUP4 ADD MSTORE PUSH2 0x3570 DUP2 DUP7 PUSH2 0x34EA JUMP JUMPDEST SWAP1 POP PUSH2 0x357F PUSH1 0x80 DUP4 ADD DUP6 PUSH2 0x3522 JUMP JUMPDEST PUSH2 0x358C PUSH1 0xA0 DUP4 ADD DUP5 PUSH2 0x3522 JUMP JUMPDEST SWAP8 SWAP7 POP POP POP POP POP POP POP JUMP JUMPDEST PUSH2 0x35A0 DUP2 PUSH2 0x3405 JUMP JUMPDEST DUP2 EQ PUSH2 0x35AA JUMPI PUSH0 DUP1 REVERT JUMPDEST POP JUMP JUMPDEST PUSH0 DUP2 CALLDATALOAD SWAP1 POP PUSH2 0x35BB DUP2 PUSH2 0x3597 JUMP JUMPDEST SWAP3 SWAP2 POP POP JUMP JUMPDEST PUSH0 DUP1 PUSH1 0x40 DUP4 DUP6 SUB SLT ISZERO PUSH2 0x35D7 JUMPI PUSH2 0x35D6 PUSH2 0x329B JUMP JUMPDEST JUMPDEST PUSH0 PUSH2 0x35E4 DUP6 DUP3 DUP7 ADD PUSH2 0x35AD JUMP JUMPDEST SWAP3 POP POP PUSH1 0x20 PUSH2 0x35F5 DUP6 DUP3 DUP7 ADD PUSH2 0x32C2 JUMP JUMPDEST SWAP2 POP POP SWAP3 POP SWAP3 SWAP1 POP JUMP JUMPDEST PUSH0 PUSH1 0xA0 DUP3 ADD SWAP1 POP PUSH2 0x3612 PUSH0 DUP4 ADD DUP9 PUSH2 0x3416 JUMP JUMPDEST PUSH2 0x361F PUSH1 0x20 DUP4 ADD DUP8 PUSH2 0x3522 JUMP JUMPDEST PUSH2 0x362C PUSH1 0x40 DUP4 ADD DUP7 PUSH2 0x3522 JUMP JUMPDEST DUP2 DUP2 SUB PUSH1 0x60 DUP4 ADD MSTORE PUSH2 0x363E DUP2 DUP6 PUSH2 0x34EA JUMP JUMPDEST SWAP1 POP PUSH2 0x364D PUSH1 0x80 DUP4 ADD DUP5 PUSH2 0x3522 JUMP JUMPDEST SWAP7 SWAP6 POP POP POP POP POP POP JUMP JUMPDEST PUSH1 0x3 DUP2 LT PUSH2 0x3668 JUMPI PUSH2 0x3667 PUSH2 0x3425 JUMP JUMPDEST JUMPDEST POP JUMP JUMPDEST PUSH0 DUP2 SWAP1 POP PUSH2 0x3678 DUP3 PUSH2 0x3657 JUMP JUMPDEST SWAP2 SWAP1 POP JUMP JUMPDEST PUSH0 PUSH2 0x3687 DUP3 PUSH2 0x366B JUMP JUMPDEST SWAP1 POP SWAP2 SWAP1 POP JUMP JUMPDEST PUSH2 0x3697 DUP2 PUSH2 0x367D JUMP JUMPDEST DUP3 MSTORE POP POP JUMP JUMPDEST PUSH0 PUSH1 0x40 DUP3 ADD SWAP1 POP PUSH2 0x36B0 PUSH0 DUP4 ADD DUP6 PUSH2 0x3416 JUMP JUMPDEST PUSH2 0x36BD PUSH1 0x20 DUP4 ADD DUP5 PUSH2 0x368E JUMP JUMPDEST SWAP4 SWAP3 POP POP POP JUMP JUMPDEST PUSH1 0x3 DUP2 LT PUSH2 0x36D0 JUMPI PUSH0 DUP1 REVERT JUMPDEST POP JUMP JUMPDEST PUSH0 DUP2 CALLDATALOAD SWAP1 POP PUSH2 0x36E1 DUP2 PUSH2 0x36C4 JUMP JUMPDEST SWAP3 SWAP2 POP POP JUMP JUMPDEST PUSH0 PUSH1 0x20 DUP3 DUP5 SUB SLT ISZERO PUSH2 0x36FC JUMPI PUSH2 0x36FB PUSH2 0x329B JUMP JUMPDEST JUMPDEST PUSH0 PUSH2 0x3709 DUP5 DUP3 DUP6 ADD PUSH2 0x36D3 JUMP JUMPDEST SWAP2 POP POP SWAP3 SWAP2 POP POP JUMP JUMPDEST PUSH0 DUP1 REVERT JUMPDEST PUSH32 0x4E487B7100000000000000000000000000000000000000000000000000000000 PUSH0 MSTORE PUSH1 0x41 PUSH1 0x4 MSTORE PUSH1 0x24 PUSH0 REVERT JUMPDEST PUSH2 0x374C DUP3 PUSH2 0x34DA JUMP JUMPDEST DUP2 ADD DUP2 DUP2 LT PUSH8 0xFFFFFFFFFFFFFFFF DUP3 GT OR ISZERO PUSH2 0x376B JUMPI PUSH2 0x376A PUSH2 0x3716 JUMP JUMPDEST JUMPDEST DUP1 PUSH1 0x40 MSTORE POP POP POP JUMP JUMPDEST PUSH0 PUSH2 0x377D PUSH2 0x3292 JUMP JUMPDEST SWAP1 POP PUSH2 0x3789 DUP3 DUP3 PUSH2 0x3743 JUMP JUMPDEST SWAP2 SWAP1 POP JUMP JUMPDEST PUSH0 PUSH8 0xFFFFFFFFFFFFFFFF DUP3 GT ISZERO PUSH2 0x37A8 JUMPI PUSH2 0x37A7 PUSH2 0x3716 JUMP JUMPDEST JUMPDEST PUSH2 0x37B1 DUP3 PUSH2 0x34DA JUMP JUMPDEST SWAP1 POP PUSH1 0x20 DUP2 ADD SWAP1 POP SWAP2 SWAP1 POP JUMP JUMPDEST DUP3 DUP2 DUP4 CALLDATACOPY PUSH0 DUP4 DUP4 ADD MSTORE POP POP POP JUMP JUMPDEST PUSH0 PUSH2 0x37DE PUSH2 0x37D9 DUP5 PUSH2 0x378E JUMP JUMPDEST PUSH2 0x3774 JUMP JUMPDEST SWAP1 POP DUP3 DUP2 MSTORE PUSH1 0x20 DUP2 ADD DUP5 DUP5 DUP5 ADD GT ISZERO PUSH2 0x37FA JUMPI PUSH2 0x37F9 PUSH2 0x3712 JUMP JUMPDEST JUMPDEST PUSH2 0x3805 DUP5 DUP3 DUP6 PUSH2 0x37BE JUMP JUMPDEST POP SWAP4 SWAP3 POP POP POP JUMP JUMPDEST PUSH0 DUP3 PUSH1 0x1F DUP4 ADD SLT PUSH2 0x3821 JUMPI PUSH2 0x3820 PUSH2 0x32D6 JUMP JUMPDEST JUMPDEST DUP2 CALLDATALOAD PUSH2 0x3831 DUP5 DUP3 PUSH1 0x20 DUP7 ADD PUSH2 0x37CC JUMP JUMPDEST SWAP2 POP POP SWAP3 SWAP2 POP POP JUMP JUMPDEST PUSH0 PUSH1 0x20 DUP3 DUP5 SUB SLT ISZERO PUSH2 0x384F JUMPI PUSH2 0x384E PUSH2 0x329B JUMP JUMPDEST JUMPDEST PUSH0 DUP3 ADD CALLDATALOAD PUSH8 0xFFFFFFFFFFFFFFFF DUP2 GT ISZERO PUSH2 0x386C JUMPI PUSH2 0x386B PUSH2 0x329F JUMP JUMPDEST JUMPDEST PUSH2 0x3878 DUP5 DUP3 DUP6 ADD PUSH2 0x380D JUMP JUMPDEST SWAP2 POP POP SWAP3 SWAP2 POP POP JUMP JUMPDEST PUSH0 PUSH1 0x20 DUP3 ADD SWAP1 POP DUP2 DUP2 SUB PUSH0 DUP4 ADD MSTORE PUSH2 0x3899 DUP2 DUP5 PUSH2 0x34EA JUMP JUMPDEST SWAP1 POP SWAP3 SWAP2 POP POP JUMP JUMPDEST PUSH0 DUP1 PUSH0 PUSH1 0x60 DUP5 DUP7 SUB SLT ISZERO PUSH2 0x38B8 JUMPI PUSH2 0x38B7 PUSH2 0x329B JUMP JUMPDEST JUMPDEST PUSH0 PUSH2 0x38C5 DUP7 DUP3 DUP8 ADD PUSH2 0x35AD JUMP JUMPDEST SWAP4 POP POP PUSH1 0x20 PUSH2 0x38D6 DUP7 DUP3 DUP8 ADD PUSH2 0x32C2 JUMP JUMPDEST SWAP3 POP POP PUSH1 0x40 PUSH2 0x38E7 DUP7 DUP3 DUP8 ADD PUSH2 0x32C2 JUMP JUMPDEST SWAP2 POP POP SWAP3 POP SWAP3 POP SWAP3 JUMP JUMPDEST PUSH0 DUP2 ISZERO ISZERO SWAP1 POP SWAP2 SWAP1 POP JUMP JUMPDEST PUSH2 0x3905 DUP2 PUSH2 0x38F1 JUMP JUMPDEST DUP2 EQ PUSH2 0x390F JUMPI PUSH0 DUP1 REVERT JUMPDEST POP JUMP JUMPDEST PUSH0 DUP2 CALLDATALOAD SWAP1 POP PUSH2 0x3920 DUP2 PUSH2 0x38FC JUMP JUMPDEST SWAP3 SWAP2 POP POP JUMP JUMPDEST PUSH0 DUP1 PUSH1 0x40 DUP4 DUP6 SUB SLT ISZERO PUSH2 0x393C JUMPI PUSH2 0x393B PUSH2 0x329B JUMP JUMPDEST JUMPDEST PUSH0 PUSH2 0x3949 DUP6 DUP3 DUP7 ADD PUSH2 0x3912 JUMP JUMPDEST SWAP3 POP POP PUSH1 0x20 PUSH2 0x395A DUP6 DUP3 DUP7 ADD PUSH2 0x32C2 JUMP JUMPDEST SWAP2 POP POP SWAP3 POP SWAP3 SWAP1 POP JUMP JUMPDEST PUSH0 PUSH1 0x20 DUP3 ADD SWAP1 POP PUSH2 0x3977 PUSH0 DUP4 ADD DUP5 PUSH2 0x3522 JUMP JUMPDEST SWAP3 SWAP2 POP POP JUMP JUMPDEST PUSH0 DUP1 PUSH0 DUP1 PUSH0 DUP1 PUSH1 0xA0 DUP8 DUP10 SUB SLT ISZERO PUSH2 0x3997 JUMPI PUSH2 0x3996 PUSH2 0x329B JUMP JUMPDEST JUMPDEST PUSH0 PUSH2 0x39A4 DUP10 DUP3 DUP11 ADD PUSH2 0x32C2 JUMP JUMPDEST SWAP7 POP POP PUSH1 0x20 PUSH2 0x39B5 DUP10 DUP3 DUP11 ADD PUSH2 0x32C2 JUMP JUMPDEST SWAP6 POP POP PUSH1 0x40 DUP8 ADD CALLDATALOAD PUSH8 0xFFFFFFFFFFFFFFFF DUP2 GT ISZERO PUSH2 0x39D6 JUMPI PUSH2 0x39D5 PUSH2 0x329F JUMP JUMPDEST JUMPDEST PUSH2 0x39E2 DUP10 DUP3 DUP11 ADD PUSH2 0x32E2 JUMP JUMPDEST SWAP5 POP SWAP5 POP POP PUSH1 0x60 PUSH2 0x39F5 DUP10 DUP3 DUP11 ADD PUSH2 0x32C2 JUMP JUMPDEST SWAP3 POP POP PUSH1 0x80 PUSH2 0x3A06 DUP10 DUP3 DUP11 ADD PUSH2 0x35AD JUMP JUMPDEST SWAP2 POP POP SWAP3 SWAP6 POP SWAP3 SWAP6 POP SWAP3 SWAP6 JUMP JUMPDEST PUSH0 PUSH1 0x20 DUP3 ADD SWAP1 POP PUSH2 0x3A26 PUSH0 DUP4 ADD DUP5 PUSH2 0x3416 JUMP JUMPDEST SWAP3 SWAP2 POP POP JUMP JUMPDEST PUSH0 DUP1 PUSH0 DUP1 PUSH1 0x80 DUP6 DUP8 SUB SLT ISZERO PUSH2 0x3A44 JUMPI PUSH2 0x3A43 PUSH2 0x329B JUMP JUMPDEST JUMPDEST PUSH0 PUSH2 0x3A51 DUP8 DUP3 DUP9 ADD PUSH2 0x35AD JUMP JUMPDEST SWAP5 POP POP PUSH1 0x20 PUSH2 0x3A62 DUP8 DUP3 DUP9 ADD PUSH2 0x32C2 JUMP JUMPDEST SWAP4 POP POP PUSH1 0x40 PUSH2 0x3A73 DUP8 DUP3 DUP9 ADD PUSH2 0x32C2 JUMP JUMPDEST SWAP3 POP POP PUSH1 0x60 DUP6 ADD CALLDATALOAD PUSH8 0xFFFFFFFFFFFFFFFF DUP2 GT ISZERO PUSH2 0x3A94 JUMPI PUSH2 0x3A93 PUSH2 0x329F JUMP JUMPDEST JUMPDEST PUSH2 0x3AA0 DUP8 DUP3 DUP9 ADD PUSH2 0x380D JUMP JUMPDEST SWAP2 POP POP SWAP3 SWAP6 SWAP2 SWAP5 POP SWAP3 POP JUMP JUMPDEST PUSH0 DUP1 PUSH1 0x40 DUP4 DUP6 SUB SLT ISZERO PUSH2 0x3AC2 JUMPI PUSH2 0x3AC1 PUSH2 0x329B JUMP JUMPDEST JUMPDEST PUSH0 DUP4 ADD CALLDATALOAD PUSH8 0xFFFFFFFFFFFFFFFF DUP2 GT ISZERO PUSH2 0x3ADF JUMPI PUSH2 0x3ADE PUSH2 0x329F JUMP JUMPDEST JUMPDEST PUSH2 0x3AEB DUP6 DUP3 DUP7 ADD PUSH2 0x380D JUMP JUMPDEST SWAP3 POP POP PUSH1 0x20 PUSH2 0x3AFC DUP6 DUP3 DUP7 ADD PUSH2 0x35AD JUMP JUMPDEST SWAP2 POP POP SWAP3 POP SWAP3 SWAP1 POP JUMP JUMPDEST PUSH0 PUSH1 0x20 DUP3 DUP5 SUB SLT ISZERO PUSH2 0x3B1B JUMPI PUSH2 0x3B1A PUSH2 0x329B JUMP JUMPDEST JUMPDEST PUSH0 PUSH2 0x3B28 DUP5 DUP3 DUP6 ADD PUSH2 0x35AD JUMP JUMPDEST SWAP2 POP POP SWAP3 SWAP2 POP POP JUMP JUMPDEST PUSH0 PUSH1 0x40 DUP3 ADD SWAP1 POP PUSH2 0x3B44 PUSH0 DUP4 ADD DUP6 PUSH2 0x368E JUMP JUMPDEST PUSH2 0x3B51 PUSH1 0x20 DUP4 ADD DUP5 PUSH2 0x3522 JUMP JUMPDEST SWAP4 SWAP3 POP POP POP JUMP JUMPDEST PUSH0 DUP1 PUSH0 DUP1 PUSH1 0x80 DUP6 DUP8 SUB SLT ISZERO PUSH2 0x3B70 JUMPI PUSH2 0x3B6F PUSH2 0x329B JUMP JUMPDEST JUMPDEST PUSH0 PUSH2 0x3B7D DUP8 DUP3 DUP9 ADD PUSH2 0x35AD JUMP JUMPDEST SWAP5 POP POP PUSH1 0x20 PUSH2 0x3B8E DUP8 DUP3 DUP9 ADD PUSH2 0x32C2 JUMP JUMPDEST SWAP4 POP POP PUSH1 0x40 PUSH2 0x3B9F DUP8 DUP3 DUP9 ADD PUSH2 0x32C2 JUMP JUMPDEST SWAP3 POP POP PUSH1 0x60 PUSH2 0x3BB0 DUP8 DUP3 DUP9 ADD PUSH2 0x35AD JUMP JUMPDEST SWAP2 POP POP SWAP3 SWAP6 SWAP2 SWAP5 POP SWAP3 POP JUMP JUMPDEST PUSH32 0x596F757220726F6C6520646F6573206E6F7420616C6C6F772074686973206368 PUSH0 DUP3 ADD MSTORE PUSH32 0x616E676500000000000000000000000000000000000000000000000000000000 PUSH1 0x20 DUP3 ADD MSTORE POP JUMP JUMPDEST PUSH0 PUSH2 0x3C16 PUSH1 0x24 DUP4 PUSH2 0x34A2 JUMP JUMPDEST SWAP2 POP PUSH2 0x3C21 DUP3 PUSH2 0x3BBC JUMP JUMPDEST PUSH1 0x40 DUP3 ADD SWAP1 POP SWAP2 SWAP1 POP JUMP JUMPDEST PUSH0 PUSH1 0x20 DUP3 ADD SWAP1 POP DUP2 DUP2 SUB PUSH0 DUP4 ADD MSTORE PUSH2 0x3C43 DUP2 PUSH2 0x3C0A JUMP JUMPDEST SWAP1 POP SWAP2 SWAP1 POP JUMP JUMPDEST PUSH32 0x5468652073686F7020646F6573206E6F74206D61746368207468652073656E64 PUSH0 DUP3 ADD MSTORE PUSH32 0x6572000000000000000000000000000000000000000000000000000000000000 PUSH1 0x20 DUP3 ADD MSTORE POP JUMP JUMPDEST PUSH0 PUSH2 0x3CA4 PUSH1 0x22 DUP4 PUSH2 0x34A2 JUMP JUMPDEST SWAP2 POP PUSH2 0x3CAF DUP3 PUSH2 0x3C4A JUMP JUMPDEST PUSH1 0x40 DUP3 ADD SWAP1 POP SWAP2 SWAP1 POP JUMP JUMPDEST PUSH0 PUSH1 0x20 DUP3 ADD SWAP1 POP DUP2 DUP2 SUB PUSH0 DUP4 ADD MSTORE PUSH2 0x3CD1 DUP2 PUSH2 0x3C98 JUMP JUMPDEST SWAP1 POP SWAP2 SWAP1 POP JUMP JUMPDEST PUSH32 0x4E487B7100000000000000000000000000000000000000000000000000000000 PUSH0 MSTORE PUSH1 0x22 PUSH1 0x4 MSTORE PUSH1 0x24 PUSH0 REVERT JUMPDEST PUSH0 PUSH1 0x2 DUP3 DIV SWAP1 POP PUSH1 0x1 DUP3 AND DUP1 PUSH2 0x3D1C JUMPI PUSH1 0x7F DUP3 AND SWAP2 POP JUMPDEST PUSH1 0x20 DUP3 LT DUP2 SUB PUSH2 0x3D2F JUMPI PUSH2 0x3D2E PUSH2 0x3CD8 JUMP JUMPDEST JUMPDEST POP SWAP2 SWAP1 POP JUMP JUMPDEST PUSH0 DUP2 SWAP1 POP DUP2 PUSH0 MSTORE PUSH1 0x20 PUSH0 KECCAK256 SWAP1 POP SWAP2 SWAP1 POP JUMP JUMPDEST PUSH0 PUSH1 0x20 PUSH1 0x1F DUP4 ADD DIV SWAP1 POP SWAP2 SWAP1 POP JUMP JUMPDEST PUSH0 DUP3 DUP3 SHL SWAP1 POP SWAP3 SWAP2 POP POP JUMP JUMPDEST PUSH0 PUSH1 0x8 DUP4 MUL PUSH2 0x3D91 PUSH32 0xFFFFFFFFFFFFFFFFFFFFFFFFFFFFFFFFFFFFFFFFFFFFFFFFFFFFFFFFFFFFFFFF DUP3 PUSH2 0x3D56 JUMP JUMPDEST PUSH2 0x3D9B DUP7 DUP4 PUSH2 0x3D56 JUMP JUMPDEST SWAP6 POP DUP1 NOT DUP5 AND SWAP4 POP DUP1 DUP7 AND DUP5 OR SWAP3 POP POP POP SWAP4 SWAP3 POP POP POP JUMP JUMPDEST PUSH0 DUP2 SWAP1 POP SWAP2 SWAP1 POP JUMP JUMPDEST PUSH0 PUSH2 0x3DD6 PUSH2 0x3DD1 PUSH2 0x3DCC DUP5 PUSH2 0x32A3 JUMP JUMPDEST PUSH2 0x3DB3 JUMP JUMPDEST PUSH2 0x32A3 JUMP JUMPDEST SWAP1 POP SWAP2 SWAP1 POP JUMP JUMPDEST PUSH0 DUP2 SWAP1 POP SWAP2 SWAP1 POP JUMP JUMPDEST PUSH2 0x3DEF DUP4 PUSH2 0x3DBC JUMP JUMPDEST PUSH2 0x3E03 PUSH2 0x3DFB DUP3 PUSH2 0x3DDD JUMP JUMPDEST DUP5 DUP5 SLOAD PUSH2 0x3D62 JUMP JUMPDEST DUP3 SSTORE POP POP POP POP JUMP JUMPDEST PUSH0 SWAP1 JUMP JUMPDEST PUSH2 0x3E17 PUSH2 0x3E0B JUMP JUMPDEST PUSH2 0x3E22 DUP2 DUP5 DUP5 PUSH2 0x3DE6 JUMP JUMPDEST POP POP POP JUMP JUMPDEST JUMPDEST DUP2 DUP2 LT ISZERO PUSH2 0x3E45 JUMPI PUSH2 0x3E3A PUSH0 DUP3 PUSH2 0x3E0F JUMP JUMPDEST PUSH1 0x1 DUP2 ADD SWAP1 POP PUSH2 0x3E28 JUMP JUMPDEST POP POP JUMP JUMPDEST PUSH1 0x1F DUP3 GT ISZERO PUSH2 0x3E8A JUMPI PUSH2 0x3E5B DUP2 PUSH2 0x3D35 JUMP JUMPDEST PUSH2 0x3E64 DUP5 PUSH2 0x3D47 JUMP JUMPDEST DUP2 ADD PUSH1 0x20 DUP6 LT ISZERO PUSH2 0x3E73 JUMPI DUP2 SWAP1 POP JUMPDEST PUSH2 0x3E87 PUSH2 0x3E7F DUP6 PUSH2 0x3D47 JUMP JUMPDEST DUP4 ADD DUP3 PUSH2 0x3E27 JUMP JUMPDEST POP POP JUMPDEST POP POP POP JUMP JUMPDEST PUSH0 DUP3 DUP3 SHR SWAP1 POP SWAP3 SWAP2 POP POP JUMP JUMPDEST PUSH0 PUSH2 0x3EAA PUSH0 NOT DUP5 PUSH1 0x8 MUL PUSH2 0x3E8F JUMP JUMPDEST NOT DUP1 DUP4 AND SWAP2 POP POP SWAP3 SWAP2 POP POP JUMP JUMPDEST PUSH0 PUSH2 0x3EC2 DUP4 DUP4 PUSH2 0x3E9B JUMP JUMPDEST SWAP2 POP DUP3 PUSH1 0x2 MUL DUP3 OR SWAP1 POP SWAP3 SWAP2 POP POP JUMP JUMPDEST PUSH2 0x3EDB DUP3 PUSH2 0x3498 JUMP JUMPDEST PUSH8 0xFFFFFFFFFFFFFFFF DUP2 GT ISZERO PUSH2 0x3EF4 JUMPI PUSH2 0x3EF3 PUSH2 0x3716 JUMP JUMPDEST JUMPDEST PUSH2 0x3EFE DUP3 SLOAD PUSH2 0x3D05 JUMP JUMPDEST PUSH2 0x3F09 DUP3 DUP3 DUP6 PUSH2 0x3E49 JUMP JUMPDEST PUSH0 PUSH1 0x20 SWAP1 POP PUSH1 0x1F DUP4 GT PUSH1 0x1 DUP2 EQ PUSH2 0x3F3A JUMPI PUSH0 DUP5 ISZERO PUSH2 0x3F28 JUMPI DUP3 DUP8 ADD MLOAD SWAP1 POP JUMPDEST PUSH2 0x3F32 DUP6 DUP3 PUSH2 0x3EB7 JUMP JUMPDEST DUP7 SSTORE POP PUSH2 0x3F99 JUMP JUMPDEST PUSH1 0x1F NOT DUP5 AND PUSH2 0x3F48 DUP7 PUSH2 0x3D35 JUMP JUMPDEST PUSH0 JUMPDEST DUP3 DUP2 LT ISZERO PUSH2 0x3F6F JUMPI DUP5 DUP10 ADD MLOAD DUP3 SSTORE PUSH1 0x1 DUP3 ADD SWAP2 POP PUSH1 0x20 DUP6 ADD SWAP5 POP PUSH1 0x20 DUP2 ADD SWAP1 POP PUSH2 0x3F4A JUMP JUMPDEST DUP7 DUP4 LT ISZERO PUSH2 0x3F8C JUMPI DUP5 DUP10 ADD MLOAD PUSH2 0x3F88 PUSH1 0x1F DUP10 AND DUP3 PUSH2 0x3E9B JUMP JUMPDEST DUP4 SSTORE POP JUMPDEST PUSH1 0x1 PUSH1 0x2 DUP9 MUL ADD DUP9 SSTORE POP POP POP JUMPDEST POP POP POP POP POP POP JUMP JUMPDEST PUSH32 0x4E487B7100000000000000000000000000000000000000000000000000000000 PUSH0 MSTORE PUSH1 0x32 PUSH1 0x4 MSTORE PUSH1 0x24 PUSH0 REVERT JUMPDEST PUSH32 0x4E487B7100000000000000000000000000000000000000000000000000000000 PUSH0 MSTORE PUSH1 0x11 PUSH1 0x4 MSTORE PUSH1 0x24 PUSH0 REVERT JUMPDEST PUSH0 PUSH2 0x4005 DUP3 PUSH2 0x32A3 JUMP JUMPDEST SWAP2 POP PUSH2 0x4010 DUP4 PUSH2 0x32A3 JUMP JUMPDEST SWAP3 POP DUP3 DUP3 MUL PUSH2 0x401E DUP2 PUSH2 0x32A3 JUMP JUMPDEST SWAP2 POP DUP3 DUP3 DIV DUP5 EQ DUP4 ISZERO OR PUSH2 0x4035 JUMPI PUSH2 0x4034 PUSH2 0x3FCE JUMP JUMPDEST JUMPDEST POP SWAP3 SWAP2 POP POP JUMP JUMPDEST PUSH0 PUSH2 0x4046 DUP3 PUSH2 0x32A3 JUMP JUMPDEST SWAP2 POP PUSH2 0x4051 DUP4 PUSH2 0x32A3 JUMP JUMPDEST SWAP3 POP DUP3 DUP3 ADD SWAP1 POP DUP1 DUP3 GT ISZERO PUSH2 0x4069 JUMPI PUSH2 0x4068 PUSH2 0x3FCE JUMP JUMPDEST JUMPDEST SWAP3 SWAP2 POP POP JUMP JUMPDEST PUSH0 PUSH2 0x4079 DUP3 PUSH2 0x32A3 JUMP JUMPDEST SWAP2 POP PUSH2 0x4084 DUP4 PUSH2 0x32A3 JUMP JUMPDEST SWAP3 POP DUP3 DUP3 SUB SWAP1 POP DUP2 DUP2 GT ISZERO PUSH2 0x409C JUMPI PUSH2 0x409B PUSH2 0x3FCE JUMP JUMPDEST JUMPDEST SWAP3 SWAP2 POP POP JUMP JUMPDEST PUSH0 PUSH1 0xFF DUP3 AND SWAP1 POP SWAP2 SWAP1 POP JUMP JUMPDEST PUSH0 PUSH2 0x40B8 DUP3 PUSH2 0x40A2 JUMP JUMPDEST SWAP2 POP PUSH2 0x40C3 DUP4 PUSH2 0x40A2 JUMP JUMPDEST SWAP3 POP DUP3 DUP3 SUB SWAP1 POP PUSH1 0xFF DUP2 GT ISZERO PUSH2 0x40DC JUMPI PUSH2 0x40DB PUSH2 0x3FCE JUMP JUMPDEST JUMPDEST SWAP3 SWAP2 POP POP JUMP JUMPDEST PUSH0 PUSH2 0x40EC DUP3 PUSH2 0x32A3 JUMP JUMPDEST SWAP2 POP PUSH32 0xFFFFFFFFFFFFFFFFFFFFFFFFFFFFFFFFFFFFFFFFFFFFFFFFFFFFFFFFFFFFFFFF DUP3 SUB PUSH2 0x411E JUMPI PUSH2 0x411D PUSH2 0x3FCE JUMP JUMPDEST JUMPDEST PUSH1 0x1 DUP3 ADD SWAP1 POP SWAP2 SWAP1 POP JUMP JUMPDEST PUSH32 0x507572636861736520616D6F756E74206D757374206265206772656174657220 PUSH0 DUP3 ADD MSTORE PUSH32 0x7468616E20300000000000000000000000000000000000000000000000000000 PUSH1 0x20 DUP3 ADD MSTORE POP JUMP JUMPDEST PUSH0 PUSH2 0x4183 PUSH1 0x26 DUP4 PUSH2 0x34A2 JUMP JUMPDEST SWAP2 POP PUSH2 0x418E DUP3 PUSH2 0x4129 JUMP JUMPDEST PUSH1 0x40 DUP3 ADD SWAP1 POP SWAP2 SWAP1 POP JUMP JUMPDEST PUSH0 PUSH1 0x20 DUP3 ADD SWAP1 POP DUP2 DUP2 SUB PUSH0 DUP4 ADD MSTORE PUSH2 0x41B0 DUP2 PUSH2 0x4177 JUMP JUMPDEST SWAP1 POP SWAP2 SWAP1 POP JUMP JUMPDEST PUSH32 0x496E76616C69642070726F647563742049440000000000000000000000000000 PUSH0 DUP3 ADD MSTORE POP JUMP JUMPDEST PUSH0 PUSH2 0x41EB PUSH1 0x12 DUP4 PUSH2 0x34A2 JUMP JUMPDEST SWAP2 POP PUSH2 0x41F6 DUP3 PUSH2 0x41B7 JUMP JUMPDEST PUSH1 0x20 DUP3 ADD SWAP1 POP SWAP2 SWAP1 POP JUMP JUMPDEST PUSH0 PUSH1 0x20 DUP3 ADD SWAP1 POP DUP2 DUP2 SUB PUSH0 DUP4 ADD MSTORE PUSH2 0x4218 DUP2 PUSH2 0x41DF JUMP JUMPDEST SWAP1 POP SWAP2 SWAP1 POP JUMP JUMPDEST PUSH32 0x4141000000000000000000000000000000000000000000000000000000000000 DUP2 MSTORE POP JUMP JUMPDEST PUSH0 DUP2 SWAP1 POP SWAP3 SWAP2 POP POP JUMP JUMPDEST PUSH0 PUSH2 0x4259 DUP3 PUSH2 0x3498 JUMP JUMPDEST PUSH2 0x4263 DUP2 DUP6 PUSH2 0x4245 JUMP JUMPDEST SWAP4 POP PUSH2 0x4273 DUP2 DUP6 PUSH1 0x20 DUP7 ADD PUSH2 0x34B2 JUMP JUMPDEST DUP1 DUP5 ADD SWAP2 POP POP SWAP3 SWAP2 POP POP JUMP JUMPDEST PUSH32 0x4242000000000000000000000000000000000000000000000000000000000000 DUP2 MSTORE POP JUMP JUMPDEST PUSH0 PUSH2 0x42AF DUP3 PUSH2 0x421F JUMP JUMPDEST PUSH1 0x2 DUP3 ADD SWAP2 POP PUSH2 0x42BF DUP3 DUP5 PUSH2 0x424F JUMP JUMPDEST SWAP2 POP PUSH2 0x42CA DUP3 PUSH2 0x427F JUMP JUMPDEST PUSH1 0x2 DUP3 ADD SWAP2 POP DUP2 SWAP1 POP SWAP3 SWAP2 POP POP JUMP JUMPDEST PUSH0 DUP2 SWAP1 POP SWAP2 SWAP1 POP JUMP JUMPDEST PUSH2 0x42F3 PUSH2 0x42EE DUP3 PUSH2 0x32A3 JUMP JUMPDEST PUSH2 0x42D9 JUMP JUMPDEST DUP3 MSTORE POP POP JUMP JUMPDEST PUSH0 DUP2 PUSH1 0x60 SHL SWAP1 POP SWAP2 SWAP1 POP JUMP JUMPDEST PUSH0 PUSH2 0x430F DUP3 PUSH2 0x42F9 JUMP JUMPDEST SWAP1 POP SWAP2 SWAP1 POP JUMP JUMPDEST PUSH0 PUSH2 0x4320 DUP3 PUSH2 0x4305 JUMP JUMPDEST SWAP1 POP SWAP2 SWAP1 POP JUMP JUMPDEST PUSH2 0x4338 PUSH2 0x4333 DUP3 PUSH2 0x3405 JUMP JUMPDEST PUSH2 0x4316 JUMP JUMPDEST DUP3 MSTORE POP POP JUMP JUMPDEST PUSH0 PUSH2 0x4349 DUP3 DUP7 PUSH2 0x42E2 JUMP JUMPDEST PUSH1 0x20 DUP3 ADD SWAP2 POP PUSH2 0x4359 DUP3 DUP6 PUSH2 0x4327 JUMP JUMPDEST PUSH1 0x14 DUP3 ADD SWAP2 POP PUSH2 0x4369 DUP3 DUP5 PUSH2 0x42E2 JUMP JUMPDEST PUSH1 0x20 DUP3 ADD SWAP2 POP DUP2 SWAP1 POP SWAP5 SWAP4 POP POP POP POP JUMP JUMPDEST PUSH32 0x4E487B7100000000000000000000000000000000000000000000000000000000 PUSH0 MSTORE PUSH1 0x12 PUSH1 0x4 MSTORE PUSH1 0x24 PUSH0 REVERT JUMPDEST PUSH0 PUSH2 0x43B1 DUP3 PUSH2 0x32A3 JUMP JUMPDEST SWAP2 POP PUSH2 0x43BC DUP4 PUSH2 0x32A3 JUMP JUMPDEST SWAP3 POP DUP3 PUSH2 0x43CC JUMPI PUSH2 0x43CB PUSH2 0x437A JUMP JUMPDEST JUMPDEST DUP3 DUP3 MOD SWAP1 POP SWAP3 SWAP2 POP POP JUMP JUMPDEST PUSH0 PUSH2 0x43E1 DUP3 PUSH2 0x32A3 JUMP JUMPDEST SWAP2 POP PUSH2 0x43EC DUP4 PUSH2 0x32A3 JUMP JUMPDEST SWAP3 POP DUP3 PUSH2 0x43FC JUMPI PUSH2 0x43FB PUSH2 0x437A JUMP JUMPDEST JUMPDEST DUP3 DUP3 DIV SWAP1 POP SWAP3 SWAP2 POP POP JUMP JUMPDEST PUSH32 0x4E6F7420656E6F7567682073746F636B20617661696C61626C65000000000000 PUSH0 DUP3 ADD MSTORE POP JUMP JUMPDEST PUSH0 PUSH2 0x443B PUSH1 0x1A DUP4 PUSH2 0x34A2 JUMP JUMPDEST SWAP2 POP PUSH2 0x4446 DUP3 PUSH2 0x4407 JUMP JUMPDEST PUSH1 0x20 DUP3 ADD SWAP1 POP SWAP2 SWAP1 POP JUMP JUMPDEST PUSH0 PUSH1 0x20 DUP3 ADD SWAP1 POP DUP2 DUP2 SUB PUSH0 DUP4 ADD MSTORE PUSH2 0x4468 DUP2 PUSH2 0x442F JUMP JUMPDEST SWAP1 POP SWAP2 SWAP1 POP JUMP JUMPDEST PUSH0 PUSH2 0x447A DUP3 DUP5 PUSH2 0x424F JUMP JUMPDEST SWAP2 POP DUP2 SWAP1 POP SWAP3 SWAP2 POP POP JUMP JUMPDEST PUSH32 0x496E73756666696369656E742066756E64732073656E74000000000000000000 PUSH0 DUP3 ADD MSTORE POP JUMP JUMPDEST PUSH0 PUSH2 0x44B9 PUSH1 0x17 DUP4 PUSH2 0x34A2 JUMP JUMPDEST SWAP2 POP PUSH2 0x44C4 DUP3 PUSH2 0x4485 JUMP JUMPDEST PUSH1 0x20 DUP3 ADD SWAP1 POP SWAP2 SWAP1 POP JUMP JUMPDEST PUSH0 PUSH1 0x20 DUP3 ADD SWAP1 POP DUP2 DUP2 SUB PUSH0 DUP4 ADD MSTORE PUSH2 0x44E6 DUP2 PUSH2 0x44AD JUMP JUMPDEST SWAP1 POP SWAP2 SWAP1 POP JUMP JUMPDEST PUSH0 DUP2 SWAP1 POP SWAP3 SWAP2 POP POP JUMP JUMPDEST PUSH0 DUP2 SWAP1 POP DUP2 PUSH0 MSTORE PUSH1 0x20 PUSH0 KECCAK256 SWAP1 POP SWAP2 SWAP1 POP JUMP JUMPDEST PUSH0 DUP2 SLOAD PUSH2 0x4515 DUP2 PUSH2 0x3D05 JUMP JUMPDEST PUSH2 0x451F DUP2 DUP7 PUSH2 0x44ED JUMP JUMPDEST SWAP5 POP PUSH1 0x1 DUP3 AND PUSH0 DUP2 EQ PUSH2 0x4539 JUMPI PUSH1 0x1 DUP2 EQ PUSH2 0x454E JUMPI PUSH2 0x4580 JUMP JUMPDEST PUSH1 0xFF NOT DUP4 AND DUP7 MSTORE DUP2 ISZERO ISZERO DUP3 MUL DUP7 ADD SWAP4 POP PUSH2 0x4580 JUMP JUMPDEST PUSH2 0x4557 DUP6 PUSH2 0x44F7 JUMP JUMPDEST PUSH0 JUMPDEST DUP4 DUP2 LT ISZERO PUSH2 0x4578 JUMPI DUP2 SLOAD DUP2 DUP10 ADD MSTORE PUSH1 0x1 DUP3 ADD SWAP2 POP PUSH1 0x20 DUP2 ADD SWAP1 POP PUSH2 0x4559 JUMP JUMPDEST DUP4 DUP9 ADD SWAP6 POP POP POP JUMPDEST POP POP POP SWAP3 SWAP2 POP POP JUMP JUMPDEST PUSH0 PUSH2 0x4594 DUP3 DUP5 PUSH2 0x4509 JUMP JUMPDEST SWAP2 POP DUP2 SWAP1 POP SWAP3 SWAP2 POP POP JUMP INVALID LOG2 PUSH5 0x6970667358 0x22 SLT KECCAK256 NUMBER PC INVALID DIV 0xD5 ORIGIN SWAP16 MSIZE 0x25 DIV 0xCB RETURNDATASIZE PUSH32 0xD5DDC59C18D67E2F7AA1F2A64F6C52DE7C523A64736F6C634300081500330000 "
				},
				"gasEstimates": {
					"creation": {
						"codeDepositCost": "3575400",
						"executionCost": "28278",
						"totalCost": "3603678"
					},
					"external": {
						"acceptDelivery(bool,uint256)": "infinite",
						"addItemsMarket(uint256,uint256,string,uint256)": "infinite",
						"addItemsSupplier(uint256,uint256,string,uint256,address)": "infinite",
						"approveChangeRole(uint256)": "35793",
						"approveDelivery(bool,uint256)": "29531",
						"changeRole(uint8)": "73466",
						"deliveryOrders(uint256)": "infinite",
						"genRef(string,address)": "infinite",
						"makeDelivery(address,uint256,uint256)": "infinite",
						"makeMarket()": "29755",
						"makeSupplier()": "29756",
						"makeUser()": "29732",
						"marketProducts(address,uint256)": "infinite",
						"owner()": "2619",
						"purchase(address,uint256,uint256,string)": "infinite",
						"randMod(uint256)": "infinite",
						"referrals(string)": "infinite",
						"refillStore(address,uint256,uint256,address)": "infinite",
						"refund(address,uint256)": "infinite",
						"supplierProducts(address,uint256)": "infinite",
						"tickets(uint256)": "7401",
						"toUpper(string)": "infinite",
						"userProducts(address,uint256)": "infinite",
						"users(address)": "5222",
						"withdrawBal(address)": "infinite"
					}
				},
				"methodIdentifiers": {
					"acceptDelivery(bool,uint256)": "da76af31",
					"addItemsMarket(uint256,uint256,string,uint256)": "008de16a",
					"addItemsSupplier(uint256,uint256,string,uint256,address)": "861c2b6d",
					"approveChangeRole(uint256)": "6f764708",
					"approveDelivery(bool,uint256)": "7eb33a58",
					"changeRole(uint8)": "55dea0b3",
					"deliveryOrders(uint256)": "1cc11721",
					"genRef(string,address)": "a1ba90b6",
					"makeDelivery(address,uint256,uint256)": "7555bf10",
					"makeMarket()": "66d0dc67",
					"makeSupplier()": "3dfe7dee",
					"makeUser()": "d18a524a",
					"marketProducts(address,uint256)": "4f424547",
					"owner()": "8da5cb5b",
					"purchase(address,uint256,uint256,string)": "9f1cd587",
					"randMod(uint256)": "805553e8",
					"referrals(string)": "d55768dd",
					"refillStore(address,uint256,uint256,address)": "fecd8f79",
					"refund(address,uint256)": "410085df",
					"supplierProducts(address,uint256)": "27b90b1b",
					"tickets(uint256)": "50b44712",
					"toUpper(string)": "62dd748c",
					"userProducts(address,uint256)": "3d527883",
					"users(address)": "a87430ba",
					"withdrawBal(address)": "f67a2ad1"
				}
			},
			"storageLayout": {
				"storage": [
					{
						"astId": 14,
						"contract": "contracts/Test.sol:MarketPlace",
						"label": "tickets",
						"offset": 0,
						"slot": "0",
						"type": "t_array(t_struct(Ticket)49_storage)dyn_storage"
					},
					{
						"astId": 16,
						"contract": "contracts/Test.sol:MarketPlace",
						"label": "owner",
						"offset": 0,
						"slot": "1",
						"type": "t_address"
					},
					{
						"astId": 20,
						"contract": "contracts/Test.sol:MarketPlace",
						"label": "deliveryOrders",
						"offset": 0,
						"slot": "2",
						"type": "t_array(t_struct(DeliveryOrder)43_storage)dyn_storage"
					},
					{
						"astId": 71,
						"contract": "contracts/Test.sol:MarketPlace",
						"label": "users",
						"offset": 0,
						"slot": "3",
						"type": "t_mapping(t_address,t_struct(User)55_storage)"
					},
					{
						"astId": 77,
						"contract": "contracts/Test.sol:MarketPlace",
						"label": "userProducts",
						"offset": 0,
						"slot": "4",
						"type": "t_mapping(t_address,t_array(t_struct(Product)66_storage)dyn_storage)"
					},
					{
						"astId": 83,
						"contract": "contracts/Test.sol:MarketPlace",
						"label": "marketProducts",
						"offset": 0,
						"slot": "5",
						"type": "t_mapping(t_address,t_array(t_struct(Product)66_storage)dyn_storage)"
					},
					{
						"astId": 89,
						"contract": "contracts/Test.sol:MarketPlace",
						"label": "supplierProducts",
						"offset": 0,
						"slot": "6",
						"type": "t_mapping(t_address,t_array(t_struct(Product)66_storage)dyn_storage)"
					},
					{
						"astId": 93,
						"contract": "contracts/Test.sol:MarketPlace",
						"label": "referrals",
						"offset": 0,
						"slot": "7",
						"type": "t_mapping(t_string_memory_ptr,t_address)"
					}
				],
				"types": {
					"t_address": {
						"encoding": "inplace",
						"label": "address",
						"numberOfBytes": "20"
					},
					"t_array(t_struct(DeliveryOrder)43_storage)dyn_storage": {
						"base": "t_struct(DeliveryOrder)43_storage",
						"encoding": "dynamic_array",
						"label": "struct MarketPlace.DeliveryOrder[]",
						"numberOfBytes": "32"
					},
					"t_array(t_struct(Product)66_storage)dyn_storage": {
						"base": "t_struct(Product)66_storage",
						"encoding": "dynamic_array",
						"label": "struct MarketPlace.Product[]",
						"numberOfBytes": "32"
					},
					"t_array(t_struct(Ticket)49_storage)dyn_storage": {
						"base": "t_struct(Ticket)49_storage",
						"encoding": "dynamic_array",
						"label": "struct MarketPlace.Ticket[]",
						"numberOfBytes": "32"
					},
					"t_enum(Role)5": {
						"encoding": "inplace",
						"label": "enum MarketPlace.Role",
						"numberOfBytes": "1"
					},
					"t_enum(Status)10": {
						"encoding": "inplace",
						"label": "enum MarketPlace.Status",
						"numberOfBytes": "1"
					},
					"t_mapping(t_address,t_array(t_struct(Product)66_storage)dyn_storage)": {
						"encoding": "mapping",
						"key": "t_address",
						"label": "mapping(address => struct MarketPlace.Product[])",
						"numberOfBytes": "32",
						"value": "t_array(t_struct(Product)66_storage)dyn_storage"
					},
					"t_mapping(t_address,t_struct(User)55_storage)": {
						"encoding": "mapping",
						"key": "t_address",
						"label": "mapping(address => struct MarketPlace.User)",
						"numberOfBytes": "32",
						"value": "t_struct(User)55_storage"
					},
					"t_mapping(t_string_memory_ptr,t_address)": {
						"encoding": "mapping",
						"key": "t_string_memory_ptr",
						"label": "mapping(string => address)",
						"numberOfBytes": "32",
						"value": "t_address"
					},
					"t_string_memory_ptr": {
						"encoding": "bytes",
						"label": "string",
						"numberOfBytes": "32"
					},
					"t_string_storage": {
						"encoding": "bytes",
						"label": "string",
						"numberOfBytes": "32"
					},
					"t_struct(DeliveryOrder)43_storage": {
						"encoding": "inplace",
						"label": "struct MarketPlace.DeliveryOrder",
						"members": [
							{
								"astId": 31,
								"contract": "contracts/Test.sol:MarketPlace",
								"label": "userAddr",
								"offset": 0,
								"slot": "0",
								"type": "t_address"
							},
							{
								"astId": 33,
								"contract": "contracts/Test.sol:MarketPlace",
								"label": "shop",
								"offset": 0,
								"slot": "1",
								"type": "t_address"
							},
							{
								"astId": 36,
								"contract": "contracts/Test.sol:MarketPlace",
								"label": "status",
								"offset": 20,
								"slot": "1",
								"type": "t_enum(Status)10"
							},
							{
								"astId": 38,
								"contract": "contracts/Test.sol:MarketPlace",
								"label": "trackNumber",
								"offset": 0,
								"slot": "2",
								"type": "t_string_storage"
							},
							{
								"astId": 40,
								"contract": "contracts/Test.sol:MarketPlace",
								"label": "productId",
								"offset": 0,
								"slot": "3",
								"type": "t_uint256"
							},
							{
								"astId": 42,
								"contract": "contracts/Test.sol:MarketPlace",
								"label": "amount",
								"offset": 0,
								"slot": "4",
								"type": "t_uint256"
							}
						],
						"numberOfBytes": "160"
					},
					"t_struct(Product)66_storage": {
						"encoding": "inplace",
						"label": "struct MarketPlace.Product",
						"members": [
							{
								"astId": 57,
								"contract": "contracts/Test.sol:MarketPlace",
								"label": "userAddress",
								"offset": 0,
								"slot": "0",
								"type": "t_address"
							},
							{
								"astId": 59,
								"contract": "contracts/Test.sol:MarketPlace",
								"label": "inStock",
								"offset": 0,
								"slot": "1",
								"type": "t_uint256"
							},
							{
								"astId": 61,
								"contract": "contracts/Test.sol:MarketPlace",
								"label": "price",
								"offset": 0,
								"slot": "2",
								"type": "t_uint256"
							},
							{
								"astId": 63,
								"contract": "contracts/Test.sol:MarketPlace",
								"label": "name",
								"offset": 0,
								"slot": "3",
								"type": "t_string_storage"
							},
							{
								"astId": 65,
								"contract": "contracts/Test.sol:MarketPlace",
								"label": "expDate",
								"offset": 0,
								"slot": "4",
								"type": "t_uint256"
							}
						],
						"numberOfBytes": "160"
					},
					"t_struct(Ticket)49_storage": {
						"encoding": "inplace",
						"label": "struct MarketPlace.Ticket",
						"members": [
							{
								"astId": 45,
								"contract": "contracts/Test.sol:MarketPlace",
								"label": "userAddr",
								"offset": 0,
								"slot": "0",
								"type": "t_address"
							},
							{
								"astId": 48,
								"contract": "contracts/Test.sol:MarketPlace",
								"label": "role",
								"offset": 20,
								"slot": "0",
								"type": "t_enum(Role)5"
							}
						],
						"numberOfBytes": "32"
					},
					"t_struct(User)55_storage": {
						"encoding": "inplace",
						"label": "struct MarketPlace.User",
						"members": [
							{
								"astId": 52,
								"contract": "contracts/Test.sol:MarketPlace",
								"label": "role",
								"offset": 0,
								"slot": "0",
								"type": "t_enum(Role)5"
							},
							{
								"astId": 54,
								"contract": "contracts/Test.sol:MarketPlace",
								"label": "balance",
								"offset": 0,
								"slot": "1",
								"type": "t_uint256"
							}
						],
						"numberOfBytes": "64"
					},
					"t_uint256": {
						"encoding": "inplace",
						"label": "uint256",
						"numberOfBytes": "32"
					}
				}
			},
			"userdoc": {
				"kind": "user",
				"methods": {},
				"version": 1
			}
		}
	}
}