{
	"contracts/MarketPlaceTest.sol": {
		"MarketPlace": {
			"abi": [
				{
					"inputs": [
						{
							"internalType": "address",
							"name": "_shop",
							"type": "address"
						},
						{
							"internalType": "uint256",
							"name": "_inStock",
							"type": "uint256"
						},
						{
							"internalType": "uint256",
							"name": "_price",
							"type": "uint256"
						},
						{
							"internalType": "string",
							"name": "_name",
							"type": "string"
						},
						{
							"internalType": "uint256",
							"name": "_expDate",
							"type": "uint256"
						}
					],
					"name": "addItems",
					"outputs": [],
					"stateMutability": "nonpayable",
					"type": "function"
				},
				{
					"inputs": [
						{
							"internalType": "uint256",
							"name": "_inStock",
							"type": "uint256"
						},
						{
							"internalType": "uint256",
							"name": "_price",
							"type": "uint256"
						},
						{
							"internalType": "string",
							"name": "_name",
							"type": "string"
						},
						{
							"internalType": "uint256",
							"name": "_expDate",
							"type": "uint256"
						}
					],
					"name": "addItemsSupplier",
					"outputs": [],
					"stateMutability": "nonpayable",
					"type": "function"
				},
				{
					"inputs": [
						{
							"internalType": "string",
							"name": "_nameRef",
							"type": "string"
						},
						{
							"internalType": "address",
							"name": "_user",
							"type": "address"
						}
					],
					"name": "genRef",
					"outputs": [],
					"stateMutability": "nonpayable",
					"type": "function"
				},
				{
					"inputs": [],
					"name": "makeMarket",
					"outputs": [],
					"stateMutability": "nonpayable",
					"type": "function"
				},
				{
					"inputs": [],
					"name": "owner",
					"outputs": [
						{
							"internalType": "address",
							"name": "",
							"type": "address"
						}
					],
					"stateMutability": "view",
					"type": "function"
				},
				{
					"inputs": [
						{
							"internalType": "address",
							"name": "_shop",
							"type": "address"
						},
						{
							"internalType": "uint256",
							"name": "_amount",
							"type": "uint256"
						},
						{
							"internalType": "uint256",
							"name": "_id",
							"type": "uint256"
						},
						{
							"internalType": "string",
							"name": "_ref",
							"type": "string"
						}
					],
					"name": "purchase",
					"outputs": [],
					"stateMutability": "payable",
					"type": "function"
				},
				{
					"inputs": [
						{
							"internalType": "uint256",
							"name": "_modulus",
							"type": "uint256"
						}
					],
					"name": "randMod",
					"outputs": [
						{
							"internalType": "uint256",
							"name": "",
							"type": "uint256"
						}
					],
					"stateMutability": "view",
					"type": "function"
				},
				{
					"inputs": [
						{
							"internalType": "string",
							"name": "",
							"type": "string"
						}
					],
					"name": "referrals",
					"outputs": [
						{
							"internalType": "address",
							"name": "",
							"type": "address"
						}
					],
					"stateMutability": "view",
					"type": "function"
				},
				{
					"inputs": [
						{
							"internalType": "address",
							"name": "_shop",
							"type": "address"
						},
						{
							"internalType": "uint256",
							"name": "_productId",
							"type": "uint256"
						},
						{
							"internalType": "uint256",
							"name": "_amount",
							"type": "uint256"
						}
					],
					"name": "refillStore",
					"outputs": [],
					"stateMutability": "payable",
					"type": "function"
				},
				{
					"inputs": [
						{
							"internalType": "address",
							"name": "_shop",
							"type": "address"
						},
						{
							"internalType": "uint256",
							"name": "_productId",
							"type": "uint256"
						}
					],
					"name": "refund",
					"outputs": [],
					"stateMutability": "nonpayable",
					"type": "function"
				},
				{
					"inputs": [],
					"name": "supplier",
					"outputs": [
						{
							"internalType": "address",
							"name": "",
							"type": "address"
						}
					],
					"stateMutability": "view",
					"type": "function"
				},
				{
					"inputs": [
						{
							"internalType": "address",
							"name": "",
							"type": "address"
						},
						{
							"internalType": "uint256",
							"name": "",
							"type": "uint256"
						}
					],
					"name": "userProducts",
					"outputs": [
						{
							"internalType": "uint256",
							"name": "inStock",
							"type": "uint256"
						},
						{
							"internalType": "uint256",
							"name": "price",
							"type": "uint256"
						},
						{
							"internalType": "string",
							"name": "name",
							"type": "string"
						},
						{
							"internalType": "uint256",
							"name": "expDate",
							"type": "uint256"
						}
					],
					"stateMutability": "view",
					"type": "function"
				},
				{
					"inputs": [
						{
							"internalType": "address",
							"name": "",
							"type": "address"
						}
					],
					"name": "users",
					"outputs": [
						{
							"internalType": "enum MarketPlace.Role",
							"name": "role",
							"type": "uint8"
						},
						{
							"internalType": "uint256",
							"name": "balance",
							"type": "uint256"
						}
					],
					"stateMutability": "view",
					"type": "function"
				},
				{
					"inputs": [
						{
							"internalType": "address",
							"name": "_shop",
							"type": "address"
						}
					],
					"name": "withdrawBal",
					"outputs": [],
					"stateMutability": "nonpayable",
					"type": "function"
				}
			],
			"devdoc": {
				"kind": "dev",
				"methods": {},
				"version": 1
			},
			"evm": {
				"assembly": "    /* \"contracts/MarketPlaceTest.sol\":361:5859  contract MarketPlace {... */\n  mstore(0x40, 0x80)\n  callvalue\n  dup1\n  iszero\n  tag_1\n  jumpi\n  0x00\n  dup1\n  revert\ntag_1:\n  pop\n  dataSize(sub_0)\n  dup1\n  dataOffset(sub_0)\n  0x00\n  codecopy\n  0x00\n  return\nstop\n\nsub_0: assembly {\n        /* \"contracts/MarketPlaceTest.sol\":361:5859  contract MarketPlace {... */\n      mstore(0x40, 0x80)\n      jumpi(tag_1, lt(calldatasize, 0x04))\n      shr(0xe0, calldataload(0x00))\n      dup1\n      0x805553e8\n      gt\n      tag_16\n      jumpi\n      dup1\n      0xa1ba90b6\n      gt\n      tag_17\n      jumpi\n      dup1\n      0xa1ba90b6\n      eq\n      tag_12\n      jumpi\n      dup1\n      0xa87430ba\n      eq\n      tag_13\n      jumpi\n      dup1\n      0xd55768dd\n      eq\n      tag_14\n      jumpi\n      dup1\n      0xf67a2ad1\n      eq\n      tag_15\n      jumpi\n      jump(tag_1)\n    tag_17:\n      dup1\n      0x805553e8\n      eq\n      tag_9\n      jumpi\n      dup1\n      0x8da5cb5b\n      eq\n      tag_10\n      jumpi\n      dup1\n      0x9f1cd587\n      eq\n      tag_11\n      jumpi\n      jump(tag_1)\n    tag_16:\n      dup1\n      0x36da4468\n      gt\n      tag_18\n      jumpi\n      dup1\n      0x36da4468\n      eq\n      tag_5\n      jumpi\n      dup1\n      0x3d527883\n      eq\n      tag_6\n      jumpi\n      dup1\n      0x410085df\n      eq\n      tag_7\n      jumpi\n      dup1\n      0x66d0dc67\n      eq\n      tag_8\n      jumpi\n      jump(tag_1)\n    tag_18:\n      dup1\n      0x03194133\n      eq\n      tag_2\n      jumpi\n      dup1\n      0x05103ede\n      eq\n      tag_3\n      jumpi\n      dup1\n      0x33af9f8b\n      eq\n      tag_4\n      jumpi\n    tag_1:\n      0x00\n      dup1\n      revert\n        /* \"contracts/MarketPlaceTest.sol\":1856:2117  function addItems(address _shop, uint _inStock, uint _price, string calldata _name, uint _expDate) public AccessControl(Role.Market, _shop) {... */\n    tag_2:\n      callvalue\n      dup1\n      iszero\n      tag_19\n      jumpi\n      0x00\n      dup1\n      revert\n    tag_19:\n      pop\n      tag_20\n      0x04\n      dup1\n      calldatasize\n      sub\n      dup2\n      add\n      swap1\n      tag_21\n      swap2\n      swap1\n      tag_22\n      jump\t// in\n    tag_21:\n      tag_23\n      jump\t// in\n    tag_20:\n      stop\n        /* \"contracts/MarketPlaceTest.sol\":2123:3175  function refillStore(address _shop, uint _productId, uint _amount) public payable AccessControl(Role.Market, _shop){... */\n    tag_3:\n      tag_24\n      0x04\n      dup1\n      calldatasize\n      sub\n      dup2\n      add\n      swap1\n      tag_25\n      swap2\n      swap1\n      tag_26\n      jump\t// in\n    tag_25:\n      tag_27\n      jump\t// in\n    tag_24:\n      stop\n        /* \"contracts/MarketPlaceTest.sol\":1439:1748  function addItemsSupplier(uint _inStock, uint _price, string calldata _name, uint _expDate) public{... */\n    tag_4:\n      callvalue\n      dup1\n      iszero\n      tag_28\n      jumpi\n      0x00\n      dup1\n      revert\n    tag_28:\n      pop\n      tag_29\n      0x04\n      dup1\n      calldatasize\n      sub\n      dup2\n      add\n      swap1\n      tag_30\n      swap2\n      swap1\n      tag_31\n      jump\t// in\n    tag_30:\n      tag_32\n      jump\t// in\n    tag_29:\n      stop\n        /* \"contracts/MarketPlaceTest.sol\":414:437  address public supplier */\n    tag_5:\n      callvalue\n      dup1\n      iszero\n      tag_33\n      jumpi\n      0x00\n      dup1\n      revert\n    tag_33:\n      pop\n      tag_34\n      tag_35\n      jump\t// in\n    tag_34:\n      mload(0x40)\n      tag_36\n      swap2\n      swap1\n      tag_37\n      jump\t// in\n    tag_36:\n      mload(0x40)\n      dup1\n      swap2\n      sub\n      swap1\n      return\n        /* \"contracts/MarketPlaceTest.sol\":707:756  mapping(address => Product[]) public userProducts */\n    tag_6:\n      callvalue\n      dup1\n      iszero\n      tag_38\n      jumpi\n      0x00\n      dup1\n      revert\n    tag_38:\n      pop\n      tag_39\n      0x04\n      dup1\n      calldatasize\n      sub\n      dup2\n      add\n      swap1\n      tag_40\n      swap2\n      swap1\n      tag_41\n      jump\t// in\n    tag_40:\n      tag_42\n      jump\t// in\n    tag_39:\n      mload(0x40)\n      tag_43\n      swap5\n      swap4\n      swap3\n      swap2\n      swap1\n      tag_44\n      jump\t// in\n    tag_43:\n      mload(0x40)\n      dup1\n      swap2\n      sub\n      swap1\n      return\n        /* \"contracts/MarketPlaceTest.sol\":3181:3784  function refund(address _shop, uint _productId) public {... */\n    tag_7:\n      callvalue\n      dup1\n      iszero\n      tag_45\n      jumpi\n      0x00\n      dup1\n      revert\n    tag_45:\n      pop\n      tag_46\n      0x04\n      dup1\n      calldatasize\n      sub\n      dup2\n      add\n      swap1\n      tag_47\n      swap2\n      swap1\n      tag_41\n      jump\t// in\n    tag_47:\n      tag_48\n      jump\t// in\n    tag_46:\n      stop\n        /* \"contracts/MarketPlaceTest.sol\":1759:1846  function makeMarket() public  {... */\n    tag_8:\n      callvalue\n      dup1\n      iszero\n      tag_49\n      jumpi\n      0x00\n      dup1\n      revert\n    tag_49:\n      pop\n      tag_50\n      tag_51\n      jump\t// in\n    tag_50:\n      stop\n        /* \"contracts/MarketPlaceTest.sol\":1067:1283  function randMod(uint _modulus) public view returns(uint)... */\n    tag_9:\n      callvalue\n      dup1\n      iszero\n      tag_52\n      jumpi\n      0x00\n      dup1\n      revert\n    tag_52:\n      pop\n      tag_53\n      0x04\n      dup1\n      calldatasize\n      sub\n      dup2\n      add\n      swap1\n      tag_54\n      swap2\n      swap1\n      tag_55\n      jump\t// in\n    tag_54:\n      tag_56\n      jump\t// in\n    tag_53:\n      mload(0x40)\n      tag_57\n      swap2\n      swap1\n      tag_58\n      jump\t// in\n    tag_57:\n      mload(0x40)\n      dup1\n      swap2\n      sub\n      swap1\n      return\n        /* \"contracts/MarketPlaceTest.sol\":388:408  address public owner */\n    tag_10:\n      callvalue\n      dup1\n      iszero\n      tag_59\n      jumpi\n      0x00\n      dup1\n      revert\n    tag_59:\n      pop\n      tag_60\n      tag_61\n      jump\t// in\n    tag_60:\n      mload(0x40)\n      tag_62\n      swap2\n      swap1\n      tag_37\n      jump\t// in\n    tag_62:\n      mload(0x40)\n      dup1\n      swap2\n      sub\n      swap1\n      return\n        /* \"contracts/MarketPlaceTest.sol\":3790:5714  function purchase(address _shop, uint _amount, uint _id, string memory _ref) public payable {... */\n    tag_11:\n      tag_63\n      0x04\n      dup1\n      calldatasize\n      sub\n      dup2\n      add\n      swap1\n      tag_64\n      swap2\n      swap1\n      tag_65\n      jump\t// in\n    tag_64:\n      tag_66\n      jump\t// in\n    tag_63:\n      stop\n        /* \"contracts/MarketPlaceTest.sol\":1289:1432  function genRef(string memory _nameRef, address _user) public{... */\n    tag_12:\n      callvalue\n      dup1\n      iszero\n      tag_67\n      jumpi\n      0x00\n      dup1\n      revert\n    tag_67:\n      pop\n      tag_68\n      0x04\n      dup1\n      calldatasize\n      sub\n      dup2\n      add\n      swap1\n      tag_69\n      swap2\n      swap1\n      tag_70\n      jump\t// in\n    tag_69:\n      tag_71\n      jump\t// in\n    tag_68:\n      stop\n        /* \"contracts/MarketPlaceTest.sol\":664:701  mapping(address => User) public users */\n    tag_13:\n      callvalue\n      dup1\n      iszero\n      tag_72\n      jumpi\n      0x00\n      dup1\n      revert\n    tag_72:\n      pop\n      tag_73\n      0x04\n      dup1\n      calldatasize\n      sub\n      dup2\n      add\n      swap1\n      tag_74\n      swap2\n      swap1\n      tag_75\n      jump\t// in\n    tag_74:\n      tag_76\n      jump\t// in\n    tag_73:\n      mload(0x40)\n      tag_77\n      swap3\n      swap2\n      swap1\n      tag_78\n      jump\t// in\n    tag_77:\n      mload(0x40)\n      dup1\n      swap2\n      sub\n      swap1\n      return\n        /* \"contracts/MarketPlaceTest.sol\":762:805  mapping(string => address) public referrals */\n    tag_14:\n      callvalue\n      dup1\n      iszero\n      tag_79\n      jumpi\n      0x00\n      dup1\n      revert\n    tag_79:\n      pop\n      tag_80\n      0x04\n      dup1\n      calldatasize\n      sub\n      dup2\n      add\n      swap1\n      tag_81\n      swap2\n      swap1\n      tag_82\n      jump\t// in\n    tag_81:\n      tag_83\n      jump\t// in\n    tag_80:\n      mload(0x40)\n      tag_84\n      swap2\n      swap1\n      tag_37\n      jump\t// in\n    tag_84:\n      mload(0x40)\n      dup1\n      swap2\n      sub\n      swap1\n      return\n        /* \"contracts/MarketPlaceTest.sol\":5720:5857  function withdrawBal(address _shop) public {... */\n    tag_15:\n      callvalue\n      dup1\n      iszero\n      tag_85\n      jumpi\n      0x00\n      dup1\n      revert\n    tag_85:\n      pop\n      tag_86\n      0x04\n      dup1\n      calldatasize\n      sub\n      dup2\n      add\n      swap1\n      tag_87\n      swap2\n      swap1\n      tag_75\n      jump\t// in\n    tag_87:\n      tag_88\n      jump\t// in\n    tag_86:\n      stop\n        /* \"contracts/MarketPlaceTest.sol\":1856:2117  function addItems(address _shop, uint _inStock, uint _price, string calldata _name, uint _expDate) public AccessControl(Role.Market, _shop) {... */\n    tag_23:\n        /* \"contracts/MarketPlaceTest.sol\":1976:1987  Role.Market */\n      0x01\n        /* \"contracts/MarketPlaceTest.sol\":1989:1994  _shop */\n      dup7\n        /* \"contracts/MarketPlaceTest.sol\":910:915  _role */\n      dup2\n        /* \"contracts/MarketPlaceTest.sol\":884:915  users[msg.sender].role == _role */\n      0x02\n      dup2\n      gt\n      iszero\n      tag_90\n      jumpi\n      tag_91\n      tag_92\n      jump\t// in\n    tag_91:\n    tag_90:\n        /* \"contracts/MarketPlaceTest.sol\":884:889  users */\n      0x02\n        /* \"contracts/MarketPlaceTest.sol\":884:901  users[msg.sender] */\n      0x00\n        /* \"contracts/MarketPlaceTest.sol\":890:900  msg.sender */\n      caller\n        /* \"contracts/MarketPlaceTest.sol\":884:901  users[msg.sender] */\n      0xffffffffffffffffffffffffffffffffffffffff\n      and\n      0xffffffffffffffffffffffffffffffffffffffff\n      and\n      dup2\n      mstore\n      0x20\n      add\n      swap1\n      dup2\n      mstore\n      0x20\n      add\n      0x00\n      keccak256\n        /* \"contracts/MarketPlaceTest.sol\":884:906  users[msg.sender].role */\n      0x00\n      add\n      0x00\n      swap1\n      sload\n      swap1\n      0x0100\n      exp\n      swap1\n      div\n      0xff\n      and\n        /* \"contracts/MarketPlaceTest.sol\":884:915  users[msg.sender].role == _role */\n      0x02\n      dup2\n      gt\n      iszero\n      tag_93\n      jumpi\n      tag_94\n      tag_92\n      jump\t// in\n    tag_94:\n    tag_93:\n      eq\n        /* \"contracts/MarketPlaceTest.sol\":876:927  require(users[msg.sender].role == _role, unicode\"\") */\n      tag_95\n      jumpi\n      mload(0x40)\n      0x08c379a000000000000000000000000000000000000000000000000000000000\n      dup2\n      mstore\n      0x04\n      add\n      tag_96\n      swap1\n      tag_97\n      jump\t// in\n    tag_96:\n      mload(0x40)\n      dup1\n      swap2\n      sub\n      swap1\n      revert\n    tag_95:\n        /* \"contracts/MarketPlaceTest.sol\":959:964  _shop */\n      dup1\n        /* \"contracts/MarketPlaceTest.sol\":945:964  msg.sender == _shop */\n      0xffffffffffffffffffffffffffffffffffffffff\n      and\n        /* \"contracts/MarketPlaceTest.sol\":945:955  msg.sender */\n      caller\n        /* \"contracts/MarketPlaceTest.sol\":945:964  msg.sender == _shop */\n      0xffffffffffffffffffffffffffffffffffffffff\n      and\n      eq\n        /* \"contracts/MarketPlaceTest.sol\":937:1043  require(msg.sender == _shop, unicode\"Магазин не соответсвует отправителю\") */\n      tag_98\n      jumpi\n      mload(0x40)\n      0x08c379a000000000000000000000000000000000000000000000000000000000\n      dup2\n      mstore\n      0x04\n      add\n      tag_99\n      swap1\n      tag_100\n      jump\t// in\n    tag_99:\n      mload(0x40)\n      dup1\n      swap2\n      sub\n      swap1\n      revert\n    tag_98:\n        /* \"contracts/MarketPlaceTest.sol\":2006:2025  Product memory item */\n      0x00\n        /* \"contracts/MarketPlaceTest.sol\":2028:2070  Product(_inStock, _price, _name, _expDate) */\n      mload(0x40)\n      dup1\n      0x80\n      add\n      0x40\n      mstore\n      dup1\n        /* \"contracts/MarketPlaceTest.sol\":2036:2044  _inStock */\n      dup10\n        /* \"contracts/MarketPlaceTest.sol\":2028:2070  Product(_inStock, _price, _name, _expDate) */\n      dup2\n      mstore\n      0x20\n      add\n        /* \"contracts/MarketPlaceTest.sol\":2046:2052  _price */\n      dup9\n        /* \"contracts/MarketPlaceTest.sol\":2028:2070  Product(_inStock, _price, _name, _expDate) */\n      dup2\n      mstore\n      0x20\n      add\n        /* \"contracts/MarketPlaceTest.sol\":2054:2059  _name */\n      dup8\n      dup8\n        /* \"contracts/MarketPlaceTest.sol\":2028:2070  Product(_inStock, _price, _name, _expDate) */\n      dup1\n      dup1\n      0x1f\n      add\n      0x20\n      dup1\n      swap2\n      div\n      mul\n      0x20\n      add\n      mload(0x40)\n      swap1\n      dup2\n      add\n      0x40\n      mstore\n      dup1\n      swap4\n      swap3\n      swap2\n      swap1\n      dup2\n      dup2\n      mstore\n      0x20\n      add\n      dup4\n      dup4\n      dup1\n      dup3\n      dup5\n      calldatacopy\n      0x00\n      dup2\n      dup5\n      add\n      mstore\n      not(0x1f)\n      0x1f\n      dup3\n      add\n      and\n      swap1\n      pop\n      dup1\n      dup4\n      add\n      swap3\n      pop\n      pop\n      pop\n      pop\n      pop\n      pop\n      pop\n      dup2\n      mstore\n      0x20\n      add\n        /* \"contracts/MarketPlaceTest.sol\":2061:2069  _expDate */\n      dup6\n        /* \"contracts/MarketPlaceTest.sol\":2028:2070  Product(_inStock, _price, _name, _expDate) */\n      dup2\n      mstore\n      pop\n        /* \"contracts/MarketPlaceTest.sol\":2006:2070  Product memory item = Product(_inStock, _price, _name, _expDate) */\n      swap1\n      pop\n        /* \"contracts/MarketPlaceTest.sol\":2080:2092  userProducts */\n      0x03\n        /* \"contracts/MarketPlaceTest.sol\":2080:2099  userProducts[_shop] */\n      0x00\n        /* \"contracts/MarketPlaceTest.sol\":2093:2098  _shop */\n      dup11\n        /* \"contracts/MarketPlaceTest.sol\":2080:2099  userProducts[_shop] */\n      0xffffffffffffffffffffffffffffffffffffffff\n      and\n      0xffffffffffffffffffffffffffffffffffffffff\n      and\n      dup2\n      mstore\n      0x20\n      add\n      swap1\n      dup2\n      mstore\n      0x20\n      add\n      0x00\n      keccak256\n        /* \"contracts/MarketPlaceTest.sol\":2105:2109  item */\n      dup2\n        /* \"contracts/MarketPlaceTest.sol\":2080:2110  userProducts[_shop].push(item) */\n      swap1\n      dup1\n      0x01\n      dup2\n      sload\n      add\n      dup1\n      dup3\n      sstore\n      dup1\n      swap2\n      pop\n      pop\n      0x01\n      swap1\n      sub\n      swap1\n      0x00\n      mstore\n      keccak256(0x00, 0x20)\n      swap1\n      0x04\n      mul\n      add\n      0x00\n      swap1\n      swap2\n      swap1\n      swap2\n      swap1\n      swap2\n      pop\n      0x00\n      dup3\n      add\n      mload\n      dup2\n      0x00\n      add\n      sstore\n      0x20\n      dup3\n      add\n      mload\n      dup2\n      0x01\n      add\n      sstore\n      0x40\n      dup3\n      add\n      mload\n      dup2\n      0x02\n      add\n      swap1\n      dup2\n      tag_103\n      swap2\n      swap1\n      tag_104\n      jump\t// in\n    tag_103:\n      pop\n      0x60\n      dup3\n      add\n      mload\n      dup2\n      0x03\n      add\n      sstore\n      pop\n      pop\n        /* \"contracts/MarketPlaceTest.sol\":1996:2117  {... */\n      pop\n        /* \"contracts/MarketPlaceTest.sol\":1856:2117  function addItems(address _shop, uint _inStock, uint _price, string calldata _name, uint _expDate) public AccessControl(Role.Market, _shop) {... */\n      pop\n      pop\n      pop\n      pop\n      pop\n      pop\n      pop\n      pop\n      jump\t// out\n        /* \"contracts/MarketPlaceTest.sol\":2123:3175  function refillStore(address _shop, uint _productId, uint _amount) public payable AccessControl(Role.Market, _shop){... */\n    tag_27:\n        /* \"contracts/MarketPlaceTest.sol\":2219:2230  Role.Market */\n      0x01\n        /* \"contracts/MarketPlaceTest.sol\":2232:2237  _shop */\n      dup4\n        /* \"contracts/MarketPlaceTest.sol\":910:915  _role */\n      dup2\n        /* \"contracts/MarketPlaceTest.sol\":884:915  users[msg.sender].role == _role */\n      0x02\n      dup2\n      gt\n      iszero\n      tag_106\n      jumpi\n      tag_107\n      tag_92\n      jump\t// in\n    tag_107:\n    tag_106:\n        /* \"contracts/MarketPlaceTest.sol\":884:889  users */\n      0x02\n        /* \"contracts/MarketPlaceTest.sol\":884:901  users[msg.sender] */\n      0x00\n        /* \"contracts/MarketPlaceTest.sol\":890:900  msg.sender */\n      caller\n        /* \"contracts/MarketPlaceTest.sol\":884:901  users[msg.sender] */\n      0xffffffffffffffffffffffffffffffffffffffff\n      and\n      0xffffffffffffffffffffffffffffffffffffffff\n      and\n      dup2\n      mstore\n      0x20\n      add\n      swap1\n      dup2\n      mstore\n      0x20\n      add\n      0x00\n      keccak256\n        /* \"contracts/MarketPlaceTest.sol\":884:906  users[msg.sender].role */\n      0x00\n      add\n      0x00\n      swap1\n      sload\n      swap1\n      0x0100\n      exp\n      swap1\n      div\n      0xff\n      and\n        /* \"contracts/MarketPlaceTest.sol\":884:915  users[msg.sender].role == _role */\n      0x02\n      dup2\n      gt\n      iszero\n      tag_108\n      jumpi\n      tag_109\n      tag_92\n      jump\t// in\n    tag_109:\n    tag_108:\n      eq\n        /* \"contracts/MarketPlaceTest.sol\":876:927  require(users[msg.sender].role == _role, unicode\"\") */\n      tag_110\n      jumpi\n      mload(0x40)\n      0x08c379a000000000000000000000000000000000000000000000000000000000\n      dup2\n      mstore\n      0x04\n      add\n      tag_111\n      swap1\n      tag_97\n      jump\t// in\n    tag_111:\n      mload(0x40)\n      dup1\n      swap2\n      sub\n      swap1\n      revert\n    tag_110:\n        /* \"contracts/MarketPlaceTest.sol\":959:964  _shop */\n      dup1\n        /* \"contracts/MarketPlaceTest.sol\":945:964  msg.sender == _shop */\n      0xffffffffffffffffffffffffffffffffffffffff\n      and\n        /* \"contracts/MarketPlaceTest.sol\":945:955  msg.sender */\n      caller\n        /* \"contracts/MarketPlaceTest.sol\":945:964  msg.sender == _shop */\n      0xffffffffffffffffffffffffffffffffffffffff\n      and\n      eq\n        /* \"contracts/MarketPlaceTest.sol\":937:1043  require(msg.sender == _shop, unicode\"Магазин не соответсвует отправителю\") */\n      tag_112\n      jumpi\n      mload(0x40)\n      0x08c379a000000000000000000000000000000000000000000000000000000000\n      dup2\n      mstore\n      0x04\n      add\n      tag_113\n      swap1\n      tag_100\n      jump\t// in\n    tag_113:\n      mload(0x40)\n      dup1\n      swap2\n      sub\n      swap1\n      revert\n    tag_112:\n        /* \"contracts/MarketPlaceTest.sol\":2266:2267  0 */\n      0x00\n        /* \"contracts/MarketPlaceTest.sol\":2256:2263  _amount */\n      dup4\n        /* \"contracts/MarketPlaceTest.sol\":2256:2267  _amount > 0 */\n      gt\n        /* \"contracts/MarketPlaceTest.sol\":2248:2310  require(_amount > 0, \"Purchase amount must be greater than 0\") */\n      tag_115\n      jumpi\n      mload(0x40)\n      0x08c379a000000000000000000000000000000000000000000000000000000000\n      dup2\n      mstore\n      0x04\n      add\n      tag_116\n      swap1\n      tag_117\n      jump\t// in\n    tag_116:\n      mload(0x40)\n      dup1\n      swap2\n      sub\n      swap1\n      revert\n    tag_115:\n        /* \"contracts/MarketPlaceTest.sol\":2341:2353  userProducts */\n      0x03\n        /* \"contracts/MarketPlaceTest.sol\":2341:2360  userProducts[_shop] */\n      0x00\n        /* \"contracts/MarketPlaceTest.sol\":2354:2359  _shop */\n      dup7\n        /* \"contracts/MarketPlaceTest.sol\":2341:2360  userProducts[_shop] */\n      0xffffffffffffffffffffffffffffffffffffffff\n      and\n      0xffffffffffffffffffffffffffffffffffffffff\n      and\n      dup2\n      mstore\n      0x20\n      add\n      swap1\n      dup2\n      mstore\n      0x20\n      add\n      0x00\n      keccak256\n        /* \"contracts/MarketPlaceTest.sol\":2341:2367  userProducts[_shop].length */\n      dup1\n      sload\n      swap1\n      pop\n        /* \"contracts/MarketPlaceTest.sol\":2328:2338  _productId */\n      dup5\n        /* \"contracts/MarketPlaceTest.sol\":2328:2367  _productId < userProducts[_shop].length */\n      lt\n        /* \"contracts/MarketPlaceTest.sol\":2320:2390  require(_productId < userProducts[_shop].length, \"Invalid product ID\") */\n      tag_118\n      jumpi\n      mload(0x40)\n      0x08c379a000000000000000000000000000000000000000000000000000000000\n      dup2\n      mstore\n      0x04\n      add\n      tag_119\n      swap1\n      tag_120\n      jump\t// in\n    tag_119:\n      mload(0x40)\n      dup1\n      swap2\n      sub\n      swap1\n      revert\n    tag_118:\n        /* \"contracts/MarketPlaceTest.sol\":2401:2416  uint totalPrice */\n      0x00\n        /* \"contracts/MarketPlaceTest.sol\":2426:2436  uint price */\n      dup1\n        /* \"contracts/MarketPlaceTest.sol\":2446:2470  string memory targetName */\n      0x00\n        /* \"contracts/MarketPlaceTest.sol\":2473:2485  userProducts */\n      0x03\n        /* \"contracts/MarketPlaceTest.sol\":2473:2492  userProducts[_shop] */\n      0x00\n        /* \"contracts/MarketPlaceTest.sol\":2486:2491  _shop */\n      dup10\n        /* \"contracts/MarketPlaceTest.sol\":2473:2492  userProducts[_shop] */\n      0xffffffffffffffffffffffffffffffffffffffff\n      and\n      0xffffffffffffffffffffffffffffffffffffffff\n      and\n      dup2\n      mstore\n      0x20\n      add\n      swap1\n      dup2\n      mstore\n      0x20\n      add\n      0x00\n      keccak256\n        /* \"contracts/MarketPlaceTest.sol\":2493:2503  _productId */\n      dup8\n        /* \"contracts/MarketPlaceTest.sol\":2473:2504  userProducts[_shop][_productId] */\n      dup2\n      sload\n      dup2\n      lt\n      tag_121\n      jumpi\n      tag_122\n      tag_123\n      jump\t// in\n    tag_122:\n    tag_121:\n      swap1\n      0x00\n      mstore\n      keccak256(0x00, 0x20)\n      swap1\n      0x04\n      mul\n      add\n        /* \"contracts/MarketPlaceTest.sol\":2473:2509  userProducts[_shop][_productId].name */\n      0x02\n      add\n        /* \"contracts/MarketPlaceTest.sol\":2446:2509  string memory targetName = userProducts[_shop][_productId].name */\n      dup1\n      sload\n      tag_125\n      swap1\n      tag_126\n      jump\t// in\n    tag_125:\n      dup1\n      0x1f\n      add\n      0x20\n      dup1\n      swap2\n      div\n      mul\n      0x20\n      add\n      mload(0x40)\n      swap1\n      dup2\n      add\n      0x40\n      mstore\n      dup1\n      swap3\n      swap2\n      swap1\n      dup2\n      dup2\n      mstore\n      0x20\n      add\n      dup3\n      dup1\n      sload\n      tag_127\n      swap1\n      tag_126\n      jump\t// in\n    tag_127:\n      dup1\n      iszero\n      tag_128\n      jumpi\n      dup1\n      0x1f\n      lt\n      tag_129\n      jumpi\n      0x0100\n      dup1\n      dup4\n      sload\n      div\n      mul\n      dup4\n      mstore\n      swap2\n      0x20\n      add\n      swap2\n      jump(tag_128)\n    tag_129:\n      dup3\n      add\n      swap2\n      swap1\n      0x00\n      mstore\n      keccak256(0x00, 0x20)\n      swap1\n    tag_130:\n      dup2\n      sload\n      dup2\n      mstore\n      swap1\n      0x01\n      add\n      swap1\n      0x20\n      add\n      dup1\n      dup4\n      gt\n      tag_130\n      jumpi\n      dup3\n      swap1\n      sub\n      0x1f\n      and\n      dup3\n      add\n      swap2\n    tag_128:\n      pop\n      pop\n      pop\n      pop\n      pop\n      swap1\n      pop\n        /* \"contracts/MarketPlaceTest.sol\":2524:2530  uint i */\n      0x00\n        /* \"contracts/MarketPlaceTest.sol\":2520:3019  for(uint i = 0; i< userProducts[supplier].length; i++){... */\n    tag_131:\n        /* \"contracts/MarketPlaceTest.sol\":2539:2551  userProducts */\n      0x03\n        /* \"contracts/MarketPlaceTest.sol\":2539:2561  userProducts[supplier] */\n      0x00\n        /* \"contracts/MarketPlaceTest.sol\":2552:2560  supplier */\n      0x01\n      0x00\n      swap1\n      sload\n      swap1\n      0x0100\n      exp\n      swap1\n      div\n      0xffffffffffffffffffffffffffffffffffffffff\n      and\n        /* \"contracts/MarketPlaceTest.sol\":2539:2561  userProducts[supplier] */\n      0xffffffffffffffffffffffffffffffffffffffff\n      and\n      0xffffffffffffffffffffffffffffffffffffffff\n      and\n      dup2\n      mstore\n      0x20\n      add\n      swap1\n      dup2\n      mstore\n      0x20\n      add\n      0x00\n      keccak256\n        /* \"contracts/MarketPlaceTest.sol\":2539:2568  userProducts[supplier].length */\n      dup1\n      sload\n      swap1\n      pop\n        /* \"contracts/MarketPlaceTest.sol\":2536:2537  i */\n      dup2\n        /* \"contracts/MarketPlaceTest.sol\":2536:2568  i< userProducts[supplier].length */\n      lt\n        /* \"contracts/MarketPlaceTest.sol\":2520:3019  for(uint i = 0; i< userProducts[supplier].length; i++){... */\n      iszero\n      tag_132\n      jumpi\n        /* \"contracts/MarketPlaceTest.sol\":2640:2652  userProducts */\n      0x03\n        /* \"contracts/MarketPlaceTest.sol\":2640:2662  userProducts[supplier] */\n      0x00\n        /* \"contracts/MarketPlaceTest.sol\":2653:2661  supplier */\n      0x01\n      0x00\n      swap1\n      sload\n      swap1\n      0x0100\n      exp\n      swap1\n      div\n      0xffffffffffffffffffffffffffffffffffffffff\n      and\n        /* \"contracts/MarketPlaceTest.sol\":2640:2662  userProducts[supplier] */\n      0xffffffffffffffffffffffffffffffffffffffff\n      and\n      0xffffffffffffffffffffffffffffffffffffffff\n      and\n      dup2\n      mstore\n      0x20\n      add\n      swap1\n      dup2\n      mstore\n      0x20\n      add\n      0x00\n      keccak256\n        /* \"contracts/MarketPlaceTest.sol\":2663:2664  i */\n      dup2\n        /* \"contracts/MarketPlaceTest.sol\":2640:2665  userProducts[supplier][i] */\n      dup2\n      sload\n      dup2\n      lt\n      tag_134\n      jumpi\n      tag_135\n      tag_123\n      jump\t// in\n    tag_135:\n    tag_134:\n      swap1\n      0x00\n      mstore\n      keccak256(0x00, 0x20)\n      swap1\n      0x04\n      mul\n      add\n        /* \"contracts/MarketPlaceTest.sol\":2640:2670  userProducts[supplier][i].name */\n      0x02\n      add\n        /* \"contracts/MarketPlaceTest.sol\":2624:2672  keccak256(bytes(userProducts[supplier][i].name)) */\n      mload(0x40)\n      tag_137\n      swap2\n      swap1\n      tag_138\n      jump\t// in\n    tag_137:\n      mload(0x40)\n      dup1\n      swap2\n      sub\n      swap1\n      keccak256\n        /* \"contracts/MarketPlaceTest.sol\":2608:2618  targetName */\n      dup3\n        /* \"contracts/MarketPlaceTest.sol\":2592:2620  keccak256(bytes(targetName)) */\n      dup1\n      mload\n      swap1\n      0x20\n      add\n      keccak256\n        /* \"contracts/MarketPlaceTest.sol\":2592:2672  keccak256(bytes(targetName)) == keccak256(bytes(userProducts[supplier][i].name)) */\n      sub\n        /* \"contracts/MarketPlaceTest.sol\":2588:3009  if (keccak256(bytes(targetName)) == keccak256(bytes(userProducts[supplier][i].name))){... */\n      tag_139\n      jumpi\n        /* \"contracts/MarketPlaceTest.sol\":2699:2711  userProducts */\n      0x03\n        /* \"contracts/MarketPlaceTest.sol\":2699:2721  userProducts[supplier] */\n      0x00\n        /* \"contracts/MarketPlaceTest.sol\":2712:2720  supplier */\n      0x01\n      0x00\n      swap1\n      sload\n      swap1\n      0x0100\n      exp\n      swap1\n      div\n      0xffffffffffffffffffffffffffffffffffffffff\n      and\n        /* \"contracts/MarketPlaceTest.sol\":2699:2721  userProducts[supplier] */\n      0xffffffffffffffffffffffffffffffffffffffff\n      and\n      0xffffffffffffffffffffffffffffffffffffffff\n      and\n      dup2\n      mstore\n      0x20\n      add\n      swap1\n      dup2\n      mstore\n      0x20\n      add\n      0x00\n      keccak256\n        /* \"contracts/MarketPlaceTest.sol\":2722:2723  i */\n      dup2\n        /* \"contracts/MarketPlaceTest.sol\":2699:2724  userProducts[supplier][i] */\n      dup2\n      sload\n      dup2\n      lt\n      tag_140\n      jumpi\n      tag_141\n      tag_123\n      jump\t// in\n    tag_141:\n    tag_140:\n      swap1\n      0x00\n      mstore\n      keccak256(0x00, 0x20)\n      swap1\n      0x04\n      mul\n      add\n        /* \"contracts/MarketPlaceTest.sol\":2699:2730  userProducts[supplier][i].price */\n      0x01\n      add\n      sload\n        /* \"contracts/MarketPlaceTest.sol\":2691:2730  price = userProducts[supplier][i].price */\n      swap3\n      pop\n        /* \"contracts/MarketPlaceTest.sol\":2779:2786  1 ether */\n      0x0de0b6b3a7640000\n        /* \"contracts/MarketPlaceTest.sol\":2769:2776  _amount */\n      dup8\n        /* \"contracts/MarketPlaceTest.sol\":2761:2766  price */\n      dup5\n        /* \"contracts/MarketPlaceTest.sol\":2761:2776  price * _amount */\n      tag_143\n      swap2\n      swap1\n      tag_144\n      jump\t// in\n    tag_143:\n        /* \"contracts/MarketPlaceTest.sol\":2761:2786  price * _amount * 1 ether */\n      tag_145\n      swap2\n      swap1\n      tag_144\n      jump\t// in\n    tag_145:\n        /* \"contracts/MarketPlaceTest.sol\":2748:2786  totalPrice = price * _amount * 1 ether */\n      swap4\n      pop\n        /* \"contracts/MarketPlaceTest.sol\":2825:2835  totalPrice */\n      dup4\n        /* \"contracts/MarketPlaceTest.sol\":2812:2821  msg.value */\n      callvalue\n        /* \"contracts/MarketPlaceTest.sol\":2812:2835  msg.value >= totalPrice */\n      lt\n      iszero\n        /* \"contracts/MarketPlaceTest.sol\":2804:2863  require(msg.value >= totalPrice, \"Insufficient funds sent\") */\n      tag_146\n      jumpi\n      mload(0x40)\n      0x08c379a000000000000000000000000000000000000000000000000000000000\n      dup2\n      mstore\n      0x04\n      add\n      tag_147\n      swap1\n      tag_148\n      jump\t// in\n    tag_147:\n      mload(0x40)\n      dup1\n      swap2\n      sub\n      swap1\n      revert\n    tag_146:\n        /* \"contracts/MarketPlaceTest.sol\":2916:2923  _amount */\n      dup7\n        /* \"contracts/MarketPlaceTest.sol\":2881:2893  userProducts */\n      0x03\n        /* \"contracts/MarketPlaceTest.sol\":2881:2903  userProducts[supplier] */\n      0x00\n        /* \"contracts/MarketPlaceTest.sol\":2894:2902  supplier */\n      0x01\n      0x00\n      swap1\n      sload\n      swap1\n      0x0100\n      exp\n      swap1\n      div\n      0xffffffffffffffffffffffffffffffffffffffff\n      and\n        /* \"contracts/MarketPlaceTest.sol\":2881:2903  userProducts[supplier] */\n      0xffffffffffffffffffffffffffffffffffffffff\n      and\n      0xffffffffffffffffffffffffffffffffffffffff\n      and\n      dup2\n      mstore\n      0x20\n      add\n      swap1\n      dup2\n      mstore\n      0x20\n      add\n      0x00\n      keccak256\n        /* \"contracts/MarketPlaceTest.sol\":2904:2905  i */\n      dup3\n        /* \"contracts/MarketPlaceTest.sol\":2881:2906  userProducts[supplier][i] */\n      dup2\n      sload\n      dup2\n      lt\n      tag_149\n      jumpi\n      tag_150\n      tag_123\n      jump\t// in\n    tag_150:\n    tag_149:\n      swap1\n      0x00\n      mstore\n      keccak256(0x00, 0x20)\n      swap1\n      0x04\n      mul\n      add\n        /* \"contracts/MarketPlaceTest.sol\":2881:2914  userProducts[supplier][i].inStock */\n      0x00\n      add\n      0x00\n        /* \"contracts/MarketPlaceTest.sol\":2881:2923  userProducts[supplier][i].inStock-=_amount */\n      dup3\n      dup3\n      sload\n      tag_152\n      swap2\n      swap1\n      tag_153\n      jump\t// in\n    tag_152:\n      swap3\n      pop\n      pop\n      dup2\n      swap1\n      sstore\n      pop\n        /* \"contracts/MarketPlaceTest.sol\":2984:2991  _amount */\n      dup7\n        /* \"contracts/MarketPlaceTest.sol\":2941:2953  userProducts */\n      0x03\n        /* \"contracts/MarketPlaceTest.sol\":2941:2960  userProducts[_shop] */\n      0x00\n        /* \"contracts/MarketPlaceTest.sol\":2954:2959  _shop */\n      dup12\n        /* \"contracts/MarketPlaceTest.sol\":2941:2960  userProducts[_shop] */\n      0xffffffffffffffffffffffffffffffffffffffff\n      and\n      0xffffffffffffffffffffffffffffffffffffffff\n      and\n      dup2\n      mstore\n      0x20\n      add\n      swap1\n      dup2\n      mstore\n      0x20\n      add\n      0x00\n      keccak256\n        /* \"contracts/MarketPlaceTest.sol\":2961:2971  _productId */\n      dup10\n        /* \"contracts/MarketPlaceTest.sol\":2941:2972  userProducts[_shop][_productId] */\n      dup2\n      sload\n      dup2\n      lt\n      tag_154\n      jumpi\n      tag_155\n      tag_123\n      jump\t// in\n    tag_155:\n    tag_154:\n      swap1\n      0x00\n      mstore\n      keccak256(0x00, 0x20)\n      swap1\n      0x04\n      mul\n      add\n        /* \"contracts/MarketPlaceTest.sol\":2941:2980  userProducts[_shop][_productId].inStock */\n      0x00\n      add\n      0x00\n        /* \"contracts/MarketPlaceTest.sol\":2941:2991  userProducts[_shop][_productId].inStock += _amount */\n      dup3\n      dup3\n      sload\n      tag_157\n      swap2\n      swap1\n      tag_158\n      jump\t// in\n    tag_157:\n      swap3\n      pop\n      pop\n      dup2\n      swap1\n      sstore\n      pop\n        /* \"contracts/MarketPlaceTest.sol\":2588:3009  if (keccak256(bytes(targetName)) == keccak256(bytes(userProducts[supplier][i].name))){... */\n    tag_139:\n        /* \"contracts/MarketPlaceTest.sol\":2570:2573  i++ */\n      dup1\n      dup1\n      tag_159\n      swap1\n      tag_160\n      jump\t// in\n    tag_159:\n      swap2\n      pop\n      pop\n        /* \"contracts/MarketPlaceTest.sol\":2520:3019  for(uint i = 0; i< userProducts[supplier].length; i++){... */\n      jump(tag_131)\n    tag_132:\n      pop\n        /* \"contracts/MarketPlaceTest.sol\":3045:3055  totalPrice */\n      dup3\n        /* \"contracts/MarketPlaceTest.sol\":3033:3042  msg.value */\n      callvalue\n        /* \"contracts/MarketPlaceTest.sol\":3033:3055  msg.value > totalPrice */\n      gt\n        /* \"contracts/MarketPlaceTest.sol\":3029:3168  if (msg.value > totalPrice) {... */\n      iszero\n      tag_161\n      jumpi\n        /* \"contracts/MarketPlaceTest.sol\":3071:3082  uint change */\n      0x00\n        /* \"contracts/MarketPlaceTest.sol\":3097:3107  totalPrice */\n      dup4\n        /* \"contracts/MarketPlaceTest.sol\":3085:3094  msg.value */\n      callvalue\n        /* \"contracts/MarketPlaceTest.sol\":3085:3107  msg.value - totalPrice */\n      tag_162\n      swap2\n      swap1\n      tag_153\n      jump\t// in\n    tag_162:\n        /* \"contracts/MarketPlaceTest.sol\":3071:3107  uint change = msg.value - totalPrice */\n      swap1\n      pop\n        /* \"contracts/MarketPlaceTest.sol\":3129:3139  msg.sender */\n      caller\n        /* \"contracts/MarketPlaceTest.sol\":3121:3149  payable(msg.sender).transfer */\n      0xffffffffffffffffffffffffffffffffffffffff\n      and\n        /* \"contracts/MarketPlaceTest.sol\":3121:3157  payable(msg.sender).transfer(change) */\n      0x08fc\n        /* \"contracts/MarketPlaceTest.sol\":3150:3156  change */\n      dup3\n        /* \"contracts/MarketPlaceTest.sol\":3121:3157  payable(msg.sender).transfer(change) */\n      swap1\n      dup2\n      iszero\n      mul\n      swap1\n      mload(0x40)\n      0x00\n      mload(0x40)\n      dup1\n      dup4\n      sub\n      dup2\n      dup6\n      dup9\n      dup9\n      call\n      swap4\n      pop\n      pop\n      pop\n      pop\n      iszero\n      dup1\n      iszero\n      tag_164\n      jumpi\n      returndatasize\n      0x00\n      dup1\n      returndatacopy\n      revert(0x00, returndatasize)\n    tag_164:\n      pop\n        /* \"contracts/MarketPlaceTest.sol\":3057:3168  {... */\n      pop\n        /* \"contracts/MarketPlaceTest.sol\":3029:3168  if (msg.value > totalPrice) {... */\n    tag_161:\n        /* \"contracts/MarketPlaceTest.sol\":2238:3175  {... */\n      pop\n      pop\n      pop\n        /* \"contracts/MarketPlaceTest.sol\":2123:3175  function refillStore(address _shop, uint _productId, uint _amount) public payable AccessControl(Role.Market, _shop){... */\n      pop\n      pop\n      pop\n      pop\n      pop\n      jump\t// out\n        /* \"contracts/MarketPlaceTest.sol\":1439:1748  function addItemsSupplier(uint _inStock, uint _price, string calldata _name, uint _expDate) public{... */\n    tag_32:\n        /* \"contracts/MarketPlaceTest.sol\":1558:1568  msg.sender */\n      caller\n        /* \"contracts/MarketPlaceTest.sol\":1547:1555  supplier */\n      0x01\n      0x00\n        /* \"contracts/MarketPlaceTest.sol\":1547:1568  supplier = msg.sender */\n      0x0100\n      exp\n      dup2\n      sload\n      dup2\n      0xffffffffffffffffffffffffffffffffffffffff\n      mul\n      not\n      and\n      swap1\n      dup4\n      0xffffffffffffffffffffffffffffffffffffffff\n      and\n      mul\n      or\n      swap1\n      sstore\n      pop\n        /* \"contracts/MarketPlaceTest.sol\":1596:1618  User(Role.Supplier, 0) */\n      mload(0x40)\n      dup1\n      0x40\n      add\n      0x40\n      mstore\n      dup1\n        /* \"contracts/MarketPlaceTest.sol\":1601:1614  Role.Supplier */\n      0x02\n        /* \"contracts/MarketPlaceTest.sol\":1596:1618  User(Role.Supplier, 0) */\n      dup1\n      dup2\n      gt\n      iszero\n      tag_166\n      jumpi\n      tag_167\n      tag_92\n      jump\t// in\n    tag_167:\n    tag_166:\n      dup2\n      mstore\n      0x20\n      add\n        /* \"contracts/MarketPlaceTest.sol\":1616:1617  0 */\n      0x00\n        /* \"contracts/MarketPlaceTest.sol\":1596:1618  User(Role.Supplier, 0) */\n      dup2\n      mstore\n      pop\n        /* \"contracts/MarketPlaceTest.sol\":1578:1583  users */\n      0x02\n        /* \"contracts/MarketPlaceTest.sol\":1578:1593  users[supplier] */\n      0x00\n        /* \"contracts/MarketPlaceTest.sol\":1584:1592  supplier */\n      0x01\n      0x00\n      swap1\n      sload\n      swap1\n      0x0100\n      exp\n      swap1\n      div\n      0xffffffffffffffffffffffffffffffffffffffff\n      and\n        /* \"contracts/MarketPlaceTest.sol\":1578:1593  users[supplier] */\n      0xffffffffffffffffffffffffffffffffffffffff\n      and\n      0xffffffffffffffffffffffffffffffffffffffff\n      and\n      dup2\n      mstore\n      0x20\n      add\n      swap1\n      dup2\n      mstore\n      0x20\n      add\n      0x00\n      keccak256\n        /* \"contracts/MarketPlaceTest.sol\":1578:1618  users[supplier] = User(Role.Supplier, 0) */\n      0x00\n      dup3\n      add\n      mload\n      dup2\n      0x00\n      add\n      exp(0x0100, 0x00)\n      dup2\n      sload\n      dup2\n      0xff\n      mul\n      not\n      and\n      swap1\n      dup4\n      0x02\n      dup2\n      gt\n      iszero\n      tag_168\n      jumpi\n      tag_169\n      tag_92\n      jump\t// in\n    tag_169:\n    tag_168:\n      mul\n      or\n      swap1\n      sstore\n      pop\n      0x20\n      dup3\n      add\n      mload\n      dup2\n      0x01\n      add\n      sstore\n      swap1\n      pop\n      pop\n        /* \"contracts/MarketPlaceTest.sol\":1628:1647  Product memory item */\n      0x00\n        /* \"contracts/MarketPlaceTest.sol\":1650:1696  Product(_inStock, _price / 2, _name, _expDate) */\n      mload(0x40)\n      dup1\n      0x80\n      add\n      0x40\n      mstore\n      dup1\n        /* \"contracts/MarketPlaceTest.sol\":1658:1666  _inStock */\n      dup8\n        /* \"contracts/MarketPlaceTest.sol\":1650:1696  Product(_inStock, _price / 2, _name, _expDate) */\n      dup2\n      mstore\n      0x20\n      add\n        /* \"contracts/MarketPlaceTest.sol\":1677:1678  2 */\n      0x02\n        /* \"contracts/MarketPlaceTest.sol\":1668:1674  _price */\n      dup8\n        /* \"contracts/MarketPlaceTest.sol\":1668:1678  _price / 2 */\n      tag_170\n      swap2\n      swap1\n      tag_171\n      jump\t// in\n    tag_170:\n        /* \"contracts/MarketPlaceTest.sol\":1650:1696  Product(_inStock, _price / 2, _name, _expDate) */\n      dup2\n      mstore\n      0x20\n      add\n        /* \"contracts/MarketPlaceTest.sol\":1680:1685  _name */\n      dup6\n      dup6\n        /* \"contracts/MarketPlaceTest.sol\":1650:1696  Product(_inStock, _price / 2, _name, _expDate) */\n      dup1\n      dup1\n      0x1f\n      add\n      0x20\n      dup1\n      swap2\n      div\n      mul\n      0x20\n      add\n      mload(0x40)\n      swap1\n      dup2\n      add\n      0x40\n      mstore\n      dup1\n      swap4\n      swap3\n      swap2\n      swap1\n      dup2\n      dup2\n      mstore\n      0x20\n      add\n      dup4\n      dup4\n      dup1\n      dup3\n      dup5\n      calldatacopy\n      0x00\n      dup2\n      dup5\n      add\n      mstore\n      not(0x1f)\n      0x1f\n      dup3\n      add\n      and\n      swap1\n      pop\n      dup1\n      dup4\n      add\n      swap3\n      pop\n      pop\n      pop\n      pop\n      pop\n      pop\n      pop\n      dup2\n      mstore\n      0x20\n      add\n        /* \"contracts/MarketPlaceTest.sol\":1687:1695  _expDate */\n      dup4\n        /* \"contracts/MarketPlaceTest.sol\":1650:1696  Product(_inStock, _price / 2, _name, _expDate) */\n      dup2\n      mstore\n      pop\n        /* \"contracts/MarketPlaceTest.sol\":1628:1696  Product memory item = Product(_inStock, _price / 2, _name, _expDate) */\n      swap1\n      pop\n        /* \"contracts/MarketPlaceTest.sol\":1706:1718  userProducts */\n      0x03\n        /* \"contracts/MarketPlaceTest.sol\":1706:1730  userProducts[msg.sender] */\n      0x00\n        /* \"contracts/MarketPlaceTest.sol\":1719:1729  msg.sender */\n      caller\n        /* \"contracts/MarketPlaceTest.sol\":1706:1730  userProducts[msg.sender] */\n      0xffffffffffffffffffffffffffffffffffffffff\n      and\n      0xffffffffffffffffffffffffffffffffffffffff\n      and\n      dup2\n      mstore\n      0x20\n      add\n      swap1\n      dup2\n      mstore\n      0x20\n      add\n      0x00\n      keccak256\n        /* \"contracts/MarketPlaceTest.sol\":1736:1740  item */\n      dup2\n        /* \"contracts/MarketPlaceTest.sol\":1706:1741  userProducts[msg.sender].push(item) */\n      swap1\n      dup1\n      0x01\n      dup2\n      sload\n      add\n      dup1\n      dup3\n      sstore\n      dup1\n      swap2\n      pop\n      pop\n      0x01\n      swap1\n      sub\n      swap1\n      0x00\n      mstore\n      keccak256(0x00, 0x20)\n      swap1\n      0x04\n      mul\n      add\n      0x00\n      swap1\n      swap2\n      swap1\n      swap2\n      swap1\n      swap2\n      pop\n      0x00\n      dup3\n      add\n      mload\n      dup2\n      0x00\n      add\n      sstore\n      0x20\n      dup3\n      add\n      mload\n      dup2\n      0x01\n      add\n      sstore\n      0x40\n      dup3\n      add\n      mload\n      dup2\n      0x02\n      add\n      swap1\n      dup2\n      tag_173\n      swap2\n      swap1\n      tag_104\n      jump\t// in\n    tag_173:\n      pop\n      0x60\n      dup3\n      add\n      mload\n      dup2\n      0x03\n      add\n      sstore\n      pop\n      pop\n        /* \"contracts/MarketPlaceTest.sol\":1537:1748  {... */\n      pop\n        /* \"contracts/MarketPlaceTest.sol\":1439:1748  function addItemsSupplier(uint _inStock, uint _price, string calldata _name, uint _expDate) public{... */\n      pop\n      pop\n      pop\n      pop\n      pop\n      jump\t// out\n        /* \"contracts/MarketPlaceTest.sol\":414:437  address public supplier */\n    tag_35:\n      0x01\n      0x00\n      swap1\n      sload\n      swap1\n      0x0100\n      exp\n      swap1\n      div\n      0xffffffffffffffffffffffffffffffffffffffff\n      and\n      dup2\n      jump\t// out\n        /* \"contracts/MarketPlaceTest.sol\":707:756  mapping(address => Product[]) public userProducts */\n    tag_42:\n      mstore(0x20, 0x03)\n      dup2\n      0x00\n      mstore\n      keccak256(0x00, 0x40)\n      dup2\n      dup2\n      sload\n      dup2\n      lt\n      tag_174\n      jumpi\n      0x00\n      dup1\n      revert\n    tag_174:\n      swap1\n      0x00\n      mstore\n      keccak256(0x00, 0x20)\n      swap1\n      0x04\n      mul\n      add\n      0x00\n      swap2\n      pop\n      swap2\n      pop\n      pop\n      dup1\n      0x00\n      add\n      sload\n      swap1\n      dup1\n      0x01\n      add\n      sload\n      swap1\n      dup1\n      0x02\n      add\n      dup1\n      sload\n      tag_176\n      swap1\n      tag_126\n      jump\t// in\n    tag_176:\n      dup1\n      0x1f\n      add\n      0x20\n      dup1\n      swap2\n      div\n      mul\n      0x20\n      add\n      mload(0x40)\n      swap1\n      dup2\n      add\n      0x40\n      mstore\n      dup1\n      swap3\n      swap2\n      swap1\n      dup2\n      dup2\n      mstore\n      0x20\n      add\n      dup3\n      dup1\n      sload\n      tag_177\n      swap1\n      tag_126\n      jump\t// in\n    tag_177:\n      dup1\n      iszero\n      tag_178\n      jumpi\n      dup1\n      0x1f\n      lt\n      tag_179\n      jumpi\n      0x0100\n      dup1\n      dup4\n      sload\n      div\n      mul\n      dup4\n      mstore\n      swap2\n      0x20\n      add\n      swap2\n      jump(tag_178)\n    tag_179:\n      dup3\n      add\n      swap2\n      swap1\n      0x00\n      mstore\n      keccak256(0x00, 0x20)\n      swap1\n    tag_180:\n      dup2\n      sload\n      dup2\n      mstore\n      swap1\n      0x01\n      add\n      swap1\n      0x20\n      add\n      dup1\n      dup4\n      gt\n      tag_180\n      jumpi\n      dup3\n      swap1\n      sub\n      0x1f\n      and\n      dup3\n      add\n      swap2\n    tag_178:\n      pop\n      pop\n      pop\n      pop\n      pop\n      swap1\n      dup1\n      0x03\n      add\n      sload\n      swap1\n      pop\n      dup5\n      jump\t// out\n        /* \"contracts/MarketPlaceTest.sol\":3181:3784  function refund(address _shop, uint _productId) public {... */\n    tag_48:\n        /* \"contracts/MarketPlaceTest.sol\":3246:3258  uint userExp */\n      0x00\n        /* \"contracts/MarketPlaceTest.sol\":3261:3273  userProducts */\n      0x03\n        /* \"contracts/MarketPlaceTest.sol\":3261:3285  userProducts[msg.sender] */\n      0x00\n        /* \"contracts/MarketPlaceTest.sol\":3274:3284  msg.sender */\n      caller\n        /* \"contracts/MarketPlaceTest.sol\":3261:3285  userProducts[msg.sender] */\n      0xffffffffffffffffffffffffffffffffffffffff\n      and\n      0xffffffffffffffffffffffffffffffffffffffff\n      and\n      dup2\n      mstore\n      0x20\n      add\n      swap1\n      dup2\n      mstore\n      0x20\n      add\n      0x00\n      keccak256\n        /* \"contracts/MarketPlaceTest.sol\":3286:3296  _productId */\n      dup3\n        /* \"contracts/MarketPlaceTest.sol\":3261:3297  userProducts[msg.sender][_productId] */\n      dup2\n      sload\n      dup2\n      lt\n      tag_182\n      jumpi\n      tag_183\n      tag_123\n      jump\t// in\n    tag_183:\n    tag_182:\n      swap1\n      0x00\n      mstore\n      keccak256(0x00, 0x20)\n      swap1\n      0x04\n      mul\n      add\n        /* \"contracts/MarketPlaceTest.sol\":3261:3305  userProducts[msg.sender][_productId].expDate */\n      0x03\n      add\n      sload\n        /* \"contracts/MarketPlaceTest.sol\":3246:3305  uint userExp = userProducts[msg.sender][_productId].expDate */\n      swap1\n      pop\n        /* \"contracts/MarketPlaceTest.sol\":3315:3327  uint shopExp */\n      0x00\n        /* \"contracts/MarketPlaceTest.sol\":3330:3342  userProducts */\n      0x03\n        /* \"contracts/MarketPlaceTest.sol\":3330:3349  userProducts[_shop] */\n      0x00\n        /* \"contracts/MarketPlaceTest.sol\":3343:3348  _shop */\n      dup6\n        /* \"contracts/MarketPlaceTest.sol\":3330:3349  userProducts[_shop] */\n      0xffffffffffffffffffffffffffffffffffffffff\n      and\n      0xffffffffffffffffffffffffffffffffffffffff\n      and\n      dup2\n      mstore\n      0x20\n      add\n      swap1\n      dup2\n      mstore\n      0x20\n      add\n      0x00\n      keccak256\n        /* \"contracts/MarketPlaceTest.sol\":3350:3360  _productId */\n      dup4\n        /* \"contracts/MarketPlaceTest.sol\":3330:3361  userProducts[_shop][_productId] */\n      dup2\n      sload\n      dup2\n      lt\n      tag_185\n      jumpi\n      tag_186\n      tag_123\n      jump\t// in\n    tag_186:\n    tag_185:\n      swap1\n      0x00\n      mstore\n      keccak256(0x00, 0x20)\n      swap1\n      0x04\n      mul\n      add\n        /* \"contracts/MarketPlaceTest.sol\":3330:3369  userProducts[_shop][_productId].expDate */\n      0x03\n      add\n      sload\n        /* \"contracts/MarketPlaceTest.sol\":3315:3369  uint shopExp = userProducts[_shop][_productId].expDate */\n      swap1\n      pop\n        /* \"contracts/MarketPlaceTest.sol\":3397:3404  shopExp */\n      dup1\n        /* \"contracts/MarketPlaceTest.sol\":3387:3394  userExp */\n      dup3\n        /* \"contracts/MarketPlaceTest.sol\":3387:3404  userExp > shopExp */\n      gt\n        /* \"contracts/MarketPlaceTest.sol\":3379:3405  require(userExp > shopExp) */\n      tag_188\n      jumpi\n      0x00\n      dup1\n      revert\n    tag_188:\n        /* \"contracts/MarketPlaceTest.sol\":3415:3431  uint totalRefSum */\n      0x00\n        /* \"contracts/MarketPlaceTest.sol\":3522:3529  1 ether */\n      0x0de0b6b3a7640000\n        /* \"contracts/MarketPlaceTest.sol\":3482:3494  userProducts */\n      0x03\n        /* \"contracts/MarketPlaceTest.sol\":3482:3501  userProducts[_shop] */\n      0x00\n        /* \"contracts/MarketPlaceTest.sol\":3495:3500  _shop */\n      dup8\n        /* \"contracts/MarketPlaceTest.sol\":3482:3501  userProducts[_shop] */\n      0xffffffffffffffffffffffffffffffffffffffff\n      and\n      0xffffffffffffffffffffffffffffffffffffffff\n      and\n      dup2\n      mstore\n      0x20\n      add\n      swap1\n      dup2\n      mstore\n      0x20\n      add\n      0x00\n      keccak256\n        /* \"contracts/MarketPlaceTest.sol\":3502:3512  _productId */\n      dup6\n        /* \"contracts/MarketPlaceTest.sol\":3482:3513  userProducts[_shop][_productId] */\n      dup2\n      sload\n      dup2\n      lt\n      tag_189\n      jumpi\n      tag_190\n      tag_123\n      jump\t// in\n    tag_190:\n    tag_189:\n      swap1\n      0x00\n      mstore\n      keccak256(0x00, 0x20)\n      swap1\n      0x04\n      mul\n      add\n        /* \"contracts/MarketPlaceTest.sol\":3482:3519  userProducts[_shop][_productId].price */\n      0x01\n      add\n      sload\n        /* \"contracts/MarketPlaceTest.sol\":3435:3447  userProducts */\n      0x03\n        /* \"contracts/MarketPlaceTest.sol\":3435:3459  userProducts[msg.sender] */\n      0x00\n        /* \"contracts/MarketPlaceTest.sol\":3448:3458  msg.sender */\n      caller\n        /* \"contracts/MarketPlaceTest.sol\":3435:3459  userProducts[msg.sender] */\n      0xffffffffffffffffffffffffffffffffffffffff\n      and\n      0xffffffffffffffffffffffffffffffffffffffff\n      and\n      dup2\n      mstore\n      0x20\n      add\n      swap1\n      dup2\n      mstore\n      0x20\n      add\n      0x00\n      keccak256\n        /* \"contracts/MarketPlaceTest.sol\":3460:3470  _productId */\n      dup7\n        /* \"contracts/MarketPlaceTest.sol\":3435:3471  userProducts[msg.sender][_productId] */\n      dup2\n      sload\n      dup2\n      lt\n      tag_192\n      jumpi\n      tag_193\n      tag_123\n      jump\t// in\n    tag_193:\n    tag_192:\n      swap1\n      0x00\n      mstore\n      keccak256(0x00, 0x20)\n      swap1\n      0x04\n      mul\n      add\n        /* \"contracts/MarketPlaceTest.sol\":3435:3479  userProducts[msg.sender][_productId].inStock */\n      0x00\n      add\n      sload\n        /* \"contracts/MarketPlaceTest.sol\":3435:3519  userProducts[msg.sender][_productId].inStock * userProducts[_shop][_productId].price */\n      tag_195\n      swap2\n      swap1\n      tag_144\n      jump\t// in\n    tag_195:\n        /* \"contracts/MarketPlaceTest.sol\":3435:3529  userProducts[msg.sender][_productId].inStock * userProducts[_shop][_productId].price * 1 ether */\n      tag_196\n      swap2\n      swap1\n      tag_144\n      jump\t// in\n    tag_196:\n        /* \"contracts/MarketPlaceTest.sol\":3415:3529  uint totalRefSum =  userProducts[msg.sender][_productId].inStock * userProducts[_shop][_productId].price * 1 ether */\n      swap1\n      pop\n        /* \"contracts/MarketPlaceTest.sol\":3582:3594  userProducts */\n      0x03\n        /* \"contracts/MarketPlaceTest.sol\":3582:3606  userProducts[msg.sender] */\n      0x00\n        /* \"contracts/MarketPlaceTest.sol\":3595:3605  msg.sender */\n      caller\n        /* \"contracts/MarketPlaceTest.sol\":3582:3606  userProducts[msg.sender] */\n      0xffffffffffffffffffffffffffffffffffffffff\n      and\n      0xffffffffffffffffffffffffffffffffffffffff\n      and\n      dup2\n      mstore\n      0x20\n      add\n      swap1\n      dup2\n      mstore\n      0x20\n      add\n      0x00\n      keccak256\n        /* \"contracts/MarketPlaceTest.sol\":3607:3617  _productId */\n      dup5\n        /* \"contracts/MarketPlaceTest.sol\":3582:3618  userProducts[msg.sender][_productId] */\n      dup2\n      sload\n      dup2\n      lt\n      tag_197\n      jumpi\n      tag_198\n      tag_123\n      jump\t// in\n    tag_198:\n    tag_197:\n      swap1\n      0x00\n      mstore\n      keccak256(0x00, 0x20)\n      swap1\n      0x04\n      mul\n      add\n        /* \"contracts/MarketPlaceTest.sol\":3582:3626  userProducts[msg.sender][_productId].inStock */\n      0x00\n      add\n      sload\n        /* \"contracts/MarketPlaceTest.sol\":3539:3551  userProducts */\n      0x03\n        /* \"contracts/MarketPlaceTest.sol\":3539:3558  userProducts[_shop] */\n      0x00\n        /* \"contracts/MarketPlaceTest.sol\":3552:3557  _shop */\n      dup8\n        /* \"contracts/MarketPlaceTest.sol\":3539:3558  userProducts[_shop] */\n      0xffffffffffffffffffffffffffffffffffffffff\n      and\n      0xffffffffffffffffffffffffffffffffffffffff\n      and\n      dup2\n      mstore\n      0x20\n      add\n      swap1\n      dup2\n      mstore\n      0x20\n      add\n      0x00\n      keccak256\n        /* \"contracts/MarketPlaceTest.sol\":3559:3569  _productId */\n      dup6\n        /* \"contracts/MarketPlaceTest.sol\":3539:3570  userProducts[_shop][_productId] */\n      dup2\n      sload\n      dup2\n      lt\n      tag_200\n      jumpi\n      tag_201\n      tag_123\n      jump\t// in\n    tag_201:\n    tag_200:\n      swap1\n      0x00\n      mstore\n      keccak256(0x00, 0x20)\n      swap1\n      0x04\n      mul\n      add\n        /* \"contracts/MarketPlaceTest.sol\":3539:3578  userProducts[_shop][_productId].inStock */\n      0x00\n      add\n      0x00\n        /* \"contracts/MarketPlaceTest.sol\":3539:3626  userProducts[_shop][_productId].inStock += userProducts[msg.sender][_productId].inStock */\n      dup3\n      dup3\n      sload\n      tag_203\n      swap2\n      swap1\n      tag_158\n      jump\t// in\n    tag_203:\n      swap3\n      pop\n      pop\n      dup2\n      swap1\n      sstore\n      pop\n        /* \"contracts/MarketPlaceTest.sol\":3643:3655  userProducts */\n      0x03\n        /* \"contracts/MarketPlaceTest.sol\":3643:3667  userProducts[msg.sender] */\n      0x00\n        /* \"contracts/MarketPlaceTest.sol\":3656:3666  msg.sender */\n      caller\n        /* \"contracts/MarketPlaceTest.sol\":3643:3667  userProducts[msg.sender] */\n      0xffffffffffffffffffffffffffffffffffffffff\n      and\n      0xffffffffffffffffffffffffffffffffffffffff\n      and\n      dup2\n      mstore\n      0x20\n      add\n      swap1\n      dup2\n      mstore\n      0x20\n      add\n      0x00\n      keccak256\n        /* \"contracts/MarketPlaceTest.sol\":3668:3678  _productId */\n      dup5\n        /* \"contracts/MarketPlaceTest.sol\":3643:3679  userProducts[msg.sender][_productId] */\n      dup2\n      sload\n      dup2\n      lt\n      tag_204\n      jumpi\n      tag_205\n      tag_123\n      jump\t// in\n    tag_205:\n    tag_204:\n      swap1\n      0x00\n      mstore\n      keccak256(0x00, 0x20)\n      swap1\n      0x04\n      mul\n      add\n      0x00\n        /* \"contracts/MarketPlaceTest.sol\":3636:3679  delete userProducts[msg.sender][_productId] */\n      dup1\n      dup3\n      add\n      0x00\n      swap1\n      sstore\n      0x01\n      dup3\n      add\n      0x00\n      swap1\n      sstore\n      0x02\n      dup3\n      add\n      0x00\n      tag_207\n      swap2\n      swap1\n      tag_208\n      jump\t// in\n    tag_207:\n      0x03\n      dup3\n      add\n      0x00\n      swap1\n      sstore\n      pop\n      pop\n        /* \"contracts/MarketPlaceTest.sol\":3713:3724  totalRefSum */\n      dup1\n        /* \"contracts/MarketPlaceTest.sol\":3689:3694  users */\n      0x02\n        /* \"contracts/MarketPlaceTest.sol\":3689:3701  users[_shop] */\n      0x00\n        /* \"contracts/MarketPlaceTest.sol\":3695:3700  _shop */\n      dup8\n        /* \"contracts/MarketPlaceTest.sol\":3689:3701  users[_shop] */\n      0xffffffffffffffffffffffffffffffffffffffff\n      and\n      0xffffffffffffffffffffffffffffffffffffffff\n      and\n      dup2\n      mstore\n      0x20\n      add\n      swap1\n      dup2\n      mstore\n      0x20\n      add\n      0x00\n      keccak256\n        /* \"contracts/MarketPlaceTest.sol\":3689:3709  users[_shop].balance */\n      0x01\n      add\n      0x00\n        /* \"contracts/MarketPlaceTest.sol\":3689:3724  users[_shop].balance -= totalRefSum */\n      dup3\n      dup3\n      sload\n      tag_209\n      swap2\n      swap1\n      tag_153\n      jump\t// in\n    tag_209:\n      swap3\n      pop\n      pop\n      dup2\n      swap1\n      sstore\n      pop\n        /* \"contracts/MarketPlaceTest.sol\":3742:3752  msg.sender */\n      caller\n        /* \"contracts/MarketPlaceTest.sol\":3734:3762  payable(msg.sender).transfer */\n      0xffffffffffffffffffffffffffffffffffffffff\n      and\n        /* \"contracts/MarketPlaceTest.sol\":3734:3775  payable(msg.sender).transfer(totalRefSum) */\n      0x08fc\n        /* \"contracts/MarketPlaceTest.sol\":3763:3774  totalRefSum */\n      dup3\n        /* \"contracts/MarketPlaceTest.sol\":3734:3775  payable(msg.sender).transfer(totalRefSum) */\n      swap1\n      dup2\n      iszero\n      mul\n      swap1\n      mload(0x40)\n      0x00\n      mload(0x40)\n      dup1\n      dup4\n      sub\n      dup2\n      dup6\n      dup9\n      dup9\n      call\n      swap4\n      pop\n      pop\n      pop\n      pop\n      iszero\n      dup1\n      iszero\n      tag_211\n      jumpi\n      returndatasize\n      0x00\n      dup1\n      returndatacopy\n      revert(0x00, returndatasize)\n    tag_211:\n      pop\n        /* \"contracts/MarketPlaceTest.sol\":3236:3784  {... */\n      pop\n      pop\n      pop\n        /* \"contracts/MarketPlaceTest.sol\":3181:3784  function refund(address _shop, uint _productId) public {... */\n      pop\n      pop\n      jump\t// out\n        /* \"contracts/MarketPlaceTest.sol\":1759:1846  function makeMarket() public  {... */\n    tag_51:\n        /* \"contracts/MarketPlaceTest.sol\":1819:1839  User(Role.Market, 0) */\n      mload(0x40)\n      dup1\n      0x40\n      add\n      0x40\n      mstore\n      dup1\n        /* \"contracts/MarketPlaceTest.sol\":1824:1835  Role.Market */\n      0x01\n        /* \"contracts/MarketPlaceTest.sol\":1819:1839  User(Role.Market, 0) */\n      0x02\n      dup2\n      gt\n      iszero\n      tag_213\n      jumpi\n      tag_214\n      tag_92\n      jump\t// in\n    tag_214:\n    tag_213:\n      dup2\n      mstore\n      0x20\n      add\n        /* \"contracts/MarketPlaceTest.sol\":1837:1838  0 */\n      0x00\n        /* \"contracts/MarketPlaceTest.sol\":1819:1839  User(Role.Market, 0) */\n      dup2\n      mstore\n      pop\n        /* \"contracts/MarketPlaceTest.sol\":1799:1804  users */\n      0x02\n        /* \"contracts/MarketPlaceTest.sol\":1799:1816  users[msg.sender] */\n      0x00\n        /* \"contracts/MarketPlaceTest.sol\":1805:1815  msg.sender */\n      caller\n        /* \"contracts/MarketPlaceTest.sol\":1799:1816  users[msg.sender] */\n      0xffffffffffffffffffffffffffffffffffffffff\n      and\n      0xffffffffffffffffffffffffffffffffffffffff\n      and\n      dup2\n      mstore\n      0x20\n      add\n      swap1\n      dup2\n      mstore\n      0x20\n      add\n      0x00\n      keccak256\n        /* \"contracts/MarketPlaceTest.sol\":1799:1839  users[msg.sender] = User(Role.Market, 0) */\n      0x00\n      dup3\n      add\n      mload\n      dup2\n      0x00\n      add\n      exp(0x0100, 0x00)\n      dup2\n      sload\n      dup2\n      0xff\n      mul\n      not\n      and\n      swap1\n      dup4\n      0x02\n      dup2\n      gt\n      iszero\n      tag_215\n      jumpi\n      tag_216\n      tag_92\n      jump\t// in\n    tag_216:\n    tag_215:\n      mul\n      or\n      swap1\n      sstore\n      pop\n      0x20\n      dup3\n      add\n      mload\n      dup2\n      0x01\n      add\n      sstore\n      swap1\n      pop\n      pop\n        /* \"contracts/MarketPlaceTest.sol\":1759:1846  function makeMarket() public  {... */\n      jump\t// out\n        /* \"contracts/MarketPlaceTest.sol\":1067:1283  function randMod(uint _modulus) public view returns(uint)... */\n    tag_56:\n        /* \"contracts/MarketPlaceTest.sol\":1119:1123  uint */\n      0x00\n        /* \"contracts/MarketPlaceTest.sol\":1142:1156  uint randNonce */\n      dup1\n        /* \"contracts/MarketPlaceTest.sol\":1166:1177  randNonce++ */\n      dup1\n      dup1\n      tag_218\n      swap1\n      tag_160\n      jump\t// in\n    tag_218:\n      swap2\n      pop\n      pop\n        /* \"contracts/MarketPlaceTest.sol\":1268:1276  _modulus */\n      dup3\n        /* \"contracts/MarketPlaceTest.sol\":1226:1241  block.timestamp */\n      timestamp\n        /* \"contracts/MarketPlaceTest.sol\":1242:1252  msg.sender */\n      caller\n        /* \"contracts/MarketPlaceTest.sol\":1253:1262  randNonce */\n      dup4\n        /* \"contracts/MarketPlaceTest.sol\":1209:1263  abi.encodePacked(block.timestamp,msg.sender,randNonce) */\n      add(0x20, mload(0x40))\n      tag_219\n      swap4\n      swap3\n      swap2\n      swap1\n      tag_220\n      jump\t// in\n    tag_219:\n      mload(0x40)\n      0x20\n      dup2\n      dup4\n      sub\n      sub\n      dup2\n      mstore\n      swap1\n      0x40\n      mstore\n        /* \"contracts/MarketPlaceTest.sol\":1199:1264  keccak256(abi.encodePacked(block.timestamp,msg.sender,randNonce)) */\n      dup1\n      mload\n      swap1\n      0x20\n      add\n      keccak256\n        /* \"contracts/MarketPlaceTest.sol\":1194:1265  uint(keccak256(abi.encodePacked(block.timestamp,msg.sender,randNonce))) */\n      0x00\n      shr\n        /* \"contracts/MarketPlaceTest.sol\":1194:1276  uint(keccak256(abi.encodePacked(block.timestamp,msg.sender,randNonce))) % _modulus */\n      tag_221\n      swap2\n      swap1\n      tag_222\n      jump\t// in\n    tag_221:\n        /* \"contracts/MarketPlaceTest.sol\":1187:1276  return uint(keccak256(abi.encodePacked(block.timestamp,msg.sender,randNonce))) % _modulus */\n      swap2\n      pop\n      pop\n        /* \"contracts/MarketPlaceTest.sol\":1067:1283  function randMod(uint _modulus) public view returns(uint)... */\n      swap2\n      swap1\n      pop\n      jump\t// out\n        /* \"contracts/MarketPlaceTest.sol\":388:408  address public owner */\n    tag_61:\n      0x00\n      dup1\n      sload\n      swap1\n      0x0100\n      exp\n      swap1\n      div\n      0xffffffffffffffffffffffffffffffffffffffff\n      and\n      dup2\n      jump\t// out\n        /* \"contracts/MarketPlaceTest.sol\":3790:5714  function purchase(address _shop, uint _amount, uint _id, string memory _ref) public payable {... */\n    tag_66:\n        /* \"contracts/MarketPlaceTest.sol\":3922:3931  Role.User */\n      0x00\n        /* \"contracts/MarketPlaceTest.sol\":3896:3931  users[msg.sender].role == Role.User */\n      0x02\n      dup2\n      gt\n      iszero\n      tag_224\n      jumpi\n      tag_225\n      tag_92\n      jump\t// in\n    tag_225:\n    tag_224:\n        /* \"contracts/MarketPlaceTest.sol\":3896:3901  users */\n      0x02\n        /* \"contracts/MarketPlaceTest.sol\":3896:3913  users[msg.sender] */\n      0x00\n        /* \"contracts/MarketPlaceTest.sol\":3902:3912  msg.sender */\n      caller\n        /* \"contracts/MarketPlaceTest.sol\":3896:3913  users[msg.sender] */\n      0xffffffffffffffffffffffffffffffffffffffff\n      and\n      0xffffffffffffffffffffffffffffffffffffffff\n      and\n      dup2\n      mstore\n      0x20\n      add\n      swap1\n      dup2\n      mstore\n      0x20\n      add\n      0x00\n      keccak256\n        /* \"contracts/MarketPlaceTest.sol\":3896:3918  users[msg.sender].role */\n      0x00\n      add\n      0x00\n      swap1\n      sload\n      swap1\n      0x0100\n      exp\n      swap1\n      div\n      0xff\n      and\n        /* \"contracts/MarketPlaceTest.sol\":3896:3931  users[msg.sender].role == Role.User */\n      0x02\n      dup2\n      gt\n      iszero\n      tag_226\n      jumpi\n      tag_227\n      tag_92\n      jump\t// in\n    tag_227:\n    tag_226:\n      sub\n        /* \"contracts/MarketPlaceTest.sol\":3892:3997  if (users[msg.sender].role == Role.User) {... */\n      tag_228\n      jumpi\n        /* \"contracts/MarketPlaceTest.sol\":3967:3986  User( Role.User, 0) */\n      mload(0x40)\n      dup1\n      0x40\n      add\n      0x40\n      mstore\n      dup1\n        /* \"contracts/MarketPlaceTest.sol\":3973:3982  Role.User */\n      0x00\n        /* \"contracts/MarketPlaceTest.sol\":3967:3986  User( Role.User, 0) */\n      0x02\n      dup2\n      gt\n      iszero\n      tag_229\n      jumpi\n      tag_230\n      tag_92\n      jump\t// in\n    tag_230:\n    tag_229:\n      dup2\n      mstore\n      0x20\n      add\n        /* \"contracts/MarketPlaceTest.sol\":3984:3985  0 */\n      0x00\n        /* \"contracts/MarketPlaceTest.sol\":3967:3986  User( Role.User, 0) */\n      dup2\n      mstore\n      pop\n        /* \"contracts/MarketPlaceTest.sol\":3947:3952  users */\n      0x02\n        /* \"contracts/MarketPlaceTest.sol\":3947:3964  users[msg.sender] */\n      0x00\n        /* \"contracts/MarketPlaceTest.sol\":3953:3963  msg.sender */\n      caller\n        /* \"contracts/MarketPlaceTest.sol\":3947:3964  users[msg.sender] */\n      0xffffffffffffffffffffffffffffffffffffffff\n      and\n      0xffffffffffffffffffffffffffffffffffffffff\n      and\n      dup2\n      mstore\n      0x20\n      add\n      swap1\n      dup2\n      mstore\n      0x20\n      add\n      0x00\n      keccak256\n        /* \"contracts/MarketPlaceTest.sol\":3947:3986  users[msg.sender] = User( Role.User, 0) */\n      0x00\n      dup3\n      add\n      mload\n      dup2\n      0x00\n      add\n      exp(0x0100, 0x00)\n      dup2\n      sload\n      dup2\n      0xff\n      mul\n      not\n      and\n      swap1\n      dup4\n      0x02\n      dup2\n      gt\n      iszero\n      tag_231\n      jumpi\n      tag_232\n      tag_92\n      jump\t// in\n    tag_232:\n    tag_231:\n      mul\n      or\n      swap1\n      sstore\n      pop\n      0x20\n      dup3\n      add\n      mload\n      dup2\n      0x01\n      add\n      sstore\n      swap1\n      pop\n      pop\n        /* \"contracts/MarketPlaceTest.sol\":3892:3997  if (users[msg.sender].role == Role.User) {... */\n    tag_228:\n        /* \"contracts/MarketPlaceTest.sol\":4033:4034  0 */\n      0x00\n        /* \"contracts/MarketPlaceTest.sol\":4023:4030  _amount */\n      dup4\n        /* \"contracts/MarketPlaceTest.sol\":4023:4034  _amount > 0 */\n      gt\n        /* \"contracts/MarketPlaceTest.sol\":4015:4077  require(_amount > 0, \"Purchase amount must be greater than 0\") */\n      tag_233\n      jumpi\n      mload(0x40)\n      0x08c379a000000000000000000000000000000000000000000000000000000000\n      dup2\n      mstore\n      0x04\n      add\n      tag_234\n      swap1\n      tag_117\n      jump\t// in\n    tag_234:\n      mload(0x40)\n      dup1\n      swap2\n      sub\n      swap1\n      revert\n    tag_233:\n        /* \"contracts/MarketPlaceTest.sol\":4101:4113  userProducts */\n      0x03\n        /* \"contracts/MarketPlaceTest.sol\":4101:4120  userProducts[_shop] */\n      0x00\n        /* \"contracts/MarketPlaceTest.sol\":4114:4119  _shop */\n      dup6\n        /* \"contracts/MarketPlaceTest.sol\":4101:4120  userProducts[_shop] */\n      0xffffffffffffffffffffffffffffffffffffffff\n      and\n      0xffffffffffffffffffffffffffffffffffffffff\n      and\n      dup2\n      mstore\n      0x20\n      add\n      swap1\n      dup2\n      mstore\n      0x20\n      add\n      0x00\n      keccak256\n        /* \"contracts/MarketPlaceTest.sol\":4101:4127  userProducts[_shop].length */\n      dup1\n      sload\n      swap1\n      pop\n        /* \"contracts/MarketPlaceTest.sol\":4095:4098  _id */\n      dup3\n        /* \"contracts/MarketPlaceTest.sol\":4095:4127  _id < userProducts[_shop].length */\n      lt\n        /* \"contracts/MarketPlaceTest.sol\":4087:4150  require(_id < userProducts[_shop].length, \"Invalid product ID\") */\n      tag_235\n      jumpi\n      mload(0x40)\n      0x08c379a000000000000000000000000000000000000000000000000000000000\n      dup2\n      mstore\n      0x04\n      add\n      tag_236\n      swap1\n      tag_120\n      jump\t// in\n    tag_236:\n      mload(0x40)\n      dup1\n      swap2\n      sub\n      swap1\n      revert\n    tag_235:\n        /* \"contracts/MarketPlaceTest.sol\":4179:4191  userProducts */\n      0x03\n        /* \"contracts/MarketPlaceTest.sol\":4179:4198  userProducts[_shop] */\n      0x00\n        /* \"contracts/MarketPlaceTest.sol\":4192:4197  _shop */\n      dup6\n        /* \"contracts/MarketPlaceTest.sol\":4179:4198  userProducts[_shop] */\n      0xffffffffffffffffffffffffffffffffffffffff\n      and\n      0xffffffffffffffffffffffffffffffffffffffff\n      and\n      dup2\n      mstore\n      0x20\n      add\n      swap1\n      dup2\n      mstore\n      0x20\n      add\n      0x00\n      keccak256\n        /* \"contracts/MarketPlaceTest.sol\":4199:4202  _id */\n      dup3\n        /* \"contracts/MarketPlaceTest.sol\":4179:4203  userProducts[_shop][_id] */\n      dup2\n      sload\n      dup2\n      lt\n      tag_237\n      jumpi\n      tag_238\n      tag_123\n      jump\t// in\n    tag_238:\n    tag_237:\n      swap1\n      0x00\n      mstore\n      keccak256(0x00, 0x20)\n      swap1\n      0x04\n      mul\n      add\n        /* \"contracts/MarketPlaceTest.sol\":4179:4211  userProducts[_shop][_id].inStock */\n      0x00\n      add\n      sload\n        /* \"contracts/MarketPlaceTest.sol\":4168:4175  _amount */\n      dup4\n        /* \"contracts/MarketPlaceTest.sol\":4168:4211  _amount <= userProducts[_shop][_id].inStock */\n      gt\n      iszero\n        /* \"contracts/MarketPlaceTest.sol\":4160:4242  require(_amount <= userProducts[_shop][_id].inStock, \"Not enough stock available\") */\n      tag_240\n      jumpi\n      mload(0x40)\n      0x08c379a000000000000000000000000000000000000000000000000000000000\n      dup2\n      mstore\n      0x04\n      add\n      tag_241\n      swap1\n      tag_242\n      jump\t// in\n    tag_241:\n      mload(0x40)\n      dup1\n      swap2\n      sub\n      swap1\n      revert\n    tag_240:\n        /* \"contracts/MarketPlaceTest.sol\":4253:4268  uint totalPrice */\n      0x00\n        /* \"contracts/MarketPlaceTest.sol\":4314:4321  1 ether */\n      0x0de0b6b3a7640000\n        /* \"contracts/MarketPlaceTest.sol\":4281:4293  userProducts */\n      0x03\n        /* \"contracts/MarketPlaceTest.sol\":4281:4300  userProducts[_shop] */\n      0x00\n        /* \"contracts/MarketPlaceTest.sol\":4294:4299  _shop */\n      dup8\n        /* \"contracts/MarketPlaceTest.sol\":4281:4300  userProducts[_shop] */\n      0xffffffffffffffffffffffffffffffffffffffff\n      and\n      0xffffffffffffffffffffffffffffffffffffffff\n      and\n      dup2\n      mstore\n      0x20\n      add\n      swap1\n      dup2\n      mstore\n      0x20\n      add\n      0x00\n      keccak256\n        /* \"contracts/MarketPlaceTest.sol\":4301:4304  _id */\n      dup5\n        /* \"contracts/MarketPlaceTest.sol\":4281:4305  userProducts[_shop][_id] */\n      dup2\n      sload\n      dup2\n      lt\n      tag_243\n      jumpi\n      tag_244\n      tag_123\n      jump\t// in\n    tag_244:\n    tag_243:\n      swap1\n      0x00\n      mstore\n      keccak256(0x00, 0x20)\n      swap1\n      0x04\n      mul\n      add\n        /* \"contracts/MarketPlaceTest.sol\":4281:4311  userProducts[_shop][_id].price */\n      0x01\n      add\n      sload\n        /* \"contracts/MarketPlaceTest.sol\":4271:4278  _amount */\n      dup6\n        /* \"contracts/MarketPlaceTest.sol\":4271:4311  _amount * userProducts[_shop][_id].price */\n      tag_246\n      swap2\n      swap1\n      tag_144\n      jump\t// in\n    tag_246:\n        /* \"contracts/MarketPlaceTest.sol\":4271:4321  _amount * userProducts[_shop][_id].price * 1 ether */\n      tag_247\n      swap2\n      swap1\n      tag_144\n      jump\t// in\n    tag_247:\n        /* \"contracts/MarketPlaceTest.sol\":4253:4321  uint totalPrice = _amount * userProducts[_shop][_id].price * 1 ether */\n      swap1\n      pop\n        /* \"contracts/MarketPlaceTest.sol\":4355:4365  msg.sender */\n      caller\n        /* \"contracts/MarketPlaceTest.sol\":4336:4365  referrals[_ref] == msg.sender */\n      0xffffffffffffffffffffffffffffffffffffffff\n      and\n        /* \"contracts/MarketPlaceTest.sol\":4336:4345  referrals */\n      0x04\n        /* \"contracts/MarketPlaceTest.sol\":4346:4350  _ref */\n      dup4\n        /* \"contracts/MarketPlaceTest.sol\":4336:4351  referrals[_ref] */\n      mload(0x40)\n      tag_248\n      swap2\n      swap1\n      tag_249\n      jump\t// in\n    tag_248:\n      swap1\n      dup2\n      mstore\n      0x20\n      add\n      mload(0x40)\n      dup1\n      swap2\n      sub\n      swap1\n      keccak256\n      0x00\n      swap1\n      sload\n      swap1\n      0x0100\n      exp\n      swap1\n      div\n      0xffffffffffffffffffffffffffffffffffffffff\n      and\n        /* \"contracts/MarketPlaceTest.sol\":4336:4365  referrals[_ref] == msg.sender */\n      0xffffffffffffffffffffffffffffffffffffffff\n      and\n      sub\n        /* \"contracts/MarketPlaceTest.sol\":4332:4470  if (referrals[_ref] == msg.sender) {... */\n      tag_250\n      jumpi\n        /* \"contracts/MarketPlaceTest.sol\":4413:4416  100 */\n      0x64\n        /* \"contracts/MarketPlaceTest.sol\":4408:4410  90 */\n      0x5a\n        /* \"contracts/MarketPlaceTest.sol\":4395:4405  totalPrice */\n      dup3\n        /* \"contracts/MarketPlaceTest.sol\":4395:4410  totalPrice * 90 */\n      tag_251\n      swap2\n      swap1\n      tag_144\n      jump\t// in\n    tag_251:\n        /* \"contracts/MarketPlaceTest.sol\":4395:4416  totalPrice * 90 / 100 */\n      tag_252\n      swap2\n      swap1\n      tag_171\n      jump\t// in\n    tag_252:\n        /* \"contracts/MarketPlaceTest.sol\":4381:4417  totalPrice = (totalPrice * 90 / 100) */\n      swap1\n      pop\n        /* \"contracts/MarketPlaceTest.sol\":4457:4458  0 */\n      0x00\n        /* \"contracts/MarketPlaceTest.sol\":4431:4440  referrals */\n      0x04\n        /* \"contracts/MarketPlaceTest.sol\":4441:4445  _ref */\n      dup4\n        /* \"contracts/MarketPlaceTest.sol\":4431:4446  referrals[_ref] */\n      mload(0x40)\n      tag_253\n      swap2\n      swap1\n      tag_249\n      jump\t// in\n    tag_253:\n      swap1\n      dup2\n      mstore\n      0x20\n      add\n      mload(0x40)\n      dup1\n      swap2\n      sub\n      swap1\n      keccak256\n      0x00\n        /* \"contracts/MarketPlaceTest.sol\":4431:4459  referrals[_ref] = address(0) */\n      0x0100\n      exp\n      dup2\n      sload\n      dup2\n      0xffffffffffffffffffffffffffffffffffffffff\n      mul\n      not\n      and\n      swap1\n      dup4\n      0xffffffffffffffffffffffffffffffffffffffff\n      and\n      mul\n      or\n      swap1\n      sstore\n      pop\n        /* \"contracts/MarketPlaceTest.sol\":4332:4470  if (referrals[_ref] == msg.sender) {... */\n    tag_250:\n        /* \"contracts/MarketPlaceTest.sol\":4500:4510  totalPrice */\n      dup1\n        /* \"contracts/MarketPlaceTest.sol\":4487:4496  msg.value */\n      callvalue\n        /* \"contracts/MarketPlaceTest.sol\":4487:4510  msg.value >= totalPrice */\n      lt\n      iszero\n        /* \"contracts/MarketPlaceTest.sol\":4479:4538  require(msg.value >= totalPrice, \"Insufficient funds sent\") */\n      tag_254\n      jumpi\n      mload(0x40)\n      0x08c379a000000000000000000000000000000000000000000000000000000000\n      dup2\n      mstore\n      0x04\n      add\n      tag_255\n      swap1\n      tag_148\n      jump\t// in\n    tag_255:\n      mload(0x40)\n      dup1\n      swap2\n      sub\n      swap1\n      revert\n    tag_254:\n        /* \"contracts/MarketPlaceTest.sol\":4639:4657  bool productExists */\n      0x00\n        /* \"contracts/MarketPlaceTest.sol\":4680:4686  uint i */\n      dup1\n        /* \"contracts/MarketPlaceTest.sol\":4675:5082  for (uint i = 0; i < userProducts[msg.sender].length; i++) {... */\n    tag_256:\n        /* \"contracts/MarketPlaceTest.sol\":4696:4708  userProducts */\n      0x03\n        /* \"contracts/MarketPlaceTest.sol\":4696:4720  userProducts[msg.sender] */\n      0x00\n        /* \"contracts/MarketPlaceTest.sol\":4709:4719  msg.sender */\n      caller\n        /* \"contracts/MarketPlaceTest.sol\":4696:4720  userProducts[msg.sender] */\n      0xffffffffffffffffffffffffffffffffffffffff\n      and\n      0xffffffffffffffffffffffffffffffffffffffff\n      and\n      dup2\n      mstore\n      0x20\n      add\n      swap1\n      dup2\n      mstore\n      0x20\n      add\n      0x00\n      keccak256\n        /* \"contracts/MarketPlaceTest.sol\":4696:4727  userProducts[msg.sender].length */\n      dup1\n      sload\n      swap1\n      pop\n        /* \"contracts/MarketPlaceTest.sol\":4692:4693  i */\n      dup2\n        /* \"contracts/MarketPlaceTest.sol\":4692:4727  i < userProducts[msg.sender].length */\n      lt\n        /* \"contracts/MarketPlaceTest.sol\":4675:5082  for (uint i = 0; i < userProducts[msg.sender].length; i++) {... */\n      iszero\n      tag_257\n      jumpi\n        /* \"contracts/MarketPlaceTest.sol\":4822:4834  userProducts */\n      0x03\n        /* \"contracts/MarketPlaceTest.sol\":4822:4841  userProducts[_shop] */\n      0x00\n        /* \"contracts/MarketPlaceTest.sol\":4835:4840  _shop */\n      dup9\n        /* \"contracts/MarketPlaceTest.sol\":4822:4841  userProducts[_shop] */\n      0xffffffffffffffffffffffffffffffffffffffff\n      and\n      0xffffffffffffffffffffffffffffffffffffffff\n      and\n      dup2\n      mstore\n      0x20\n      add\n      swap1\n      dup2\n      mstore\n      0x20\n      add\n      0x00\n      keccak256\n        /* \"contracts/MarketPlaceTest.sol\":4842:4845  _id */\n      dup6\n        /* \"contracts/MarketPlaceTest.sol\":4822:4846  userProducts[_shop][_id] */\n      dup2\n      sload\n      dup2\n      lt\n      tag_259\n      jumpi\n      tag_260\n      tag_123\n      jump\t// in\n    tag_260:\n    tag_259:\n      swap1\n      0x00\n      mstore\n      keccak256(0x00, 0x20)\n      swap1\n      0x04\n      mul\n      add\n        /* \"contracts/MarketPlaceTest.sol\":4822:4851  userProducts[_shop][_id].name */\n      0x02\n      add\n        /* \"contracts/MarketPlaceTest.sol\":4806:4853  keccak256(bytes(userProducts[_shop][_id].name)) */\n      mload(0x40)\n      tag_262\n      swap2\n      swap1\n      tag_138\n      jump\t// in\n    tag_262:\n      mload(0x40)\n      dup1\n      swap2\n      sub\n      swap1\n      keccak256\n        /* \"contracts/MarketPlaceTest.sol\":4768:4780  userProducts */\n      0x03\n        /* \"contracts/MarketPlaceTest.sol\":4768:4792  userProducts[msg.sender] */\n      0x00\n        /* \"contracts/MarketPlaceTest.sol\":4781:4791  msg.sender */\n      caller\n        /* \"contracts/MarketPlaceTest.sol\":4768:4792  userProducts[msg.sender] */\n      0xffffffffffffffffffffffffffffffffffffffff\n      and\n      0xffffffffffffffffffffffffffffffffffffffff\n      and\n      dup2\n      mstore\n      0x20\n      add\n      swap1\n      dup2\n      mstore\n      0x20\n      add\n      0x00\n      keccak256\n        /* \"contracts/MarketPlaceTest.sol\":4793:4794  i */\n      dup3\n        /* \"contracts/MarketPlaceTest.sol\":4768:4795  userProducts[msg.sender][i] */\n      dup2\n      sload\n      dup2\n      lt\n      tag_263\n      jumpi\n      tag_264\n      tag_123\n      jump\t// in\n    tag_264:\n    tag_263:\n      swap1\n      0x00\n      mstore\n      keccak256(0x00, 0x20)\n      swap1\n      0x04\n      mul\n      add\n        /* \"contracts/MarketPlaceTest.sol\":4768:4800  userProducts[msg.sender][i].name */\n      0x02\n      add\n        /* \"contracts/MarketPlaceTest.sol\":4752:4802  keccak256(bytes(userProducts[msg.sender][i].name)) */\n      mload(0x40)\n      tag_266\n      swap2\n      swap1\n      tag_138\n      jump\t// in\n    tag_266:\n      mload(0x40)\n      dup1\n      swap2\n      sub\n      swap1\n      keccak256\n        /* \"contracts/MarketPlaceTest.sol\":4752:4853  keccak256(bytes(userProducts[msg.sender][i].name)) == keccak256(bytes(userProducts[_shop][_id].name)) */\n      sub\n        /* \"contracts/MarketPlaceTest.sol\":4748:5072  if (keccak256(bytes(userProducts[msg.sender][i].name)) == keccak256(bytes(userProducts[_shop][_id].name))) {... */\n      tag_267\n      jumpi\n        /* \"contracts/MarketPlaceTest.sol\":4912:4919  _amount */\n      dup6\n        /* \"contracts/MarketPlaceTest.sol\":4873:4885  userProducts */\n      0x03\n        /* \"contracts/MarketPlaceTest.sol\":4873:4897  userProducts[msg.sender] */\n      0x00\n        /* \"contracts/MarketPlaceTest.sol\":4886:4896  msg.sender */\n      caller\n        /* \"contracts/MarketPlaceTest.sol\":4873:4897  userProducts[msg.sender] */\n      0xffffffffffffffffffffffffffffffffffffffff\n      and\n      0xffffffffffffffffffffffffffffffffffffffff\n      and\n      dup2\n      mstore\n      0x20\n      add\n      swap1\n      dup2\n      mstore\n      0x20\n      add\n      0x00\n      keccak256\n        /* \"contracts/MarketPlaceTest.sol\":4898:4899  i */\n      dup3\n        /* \"contracts/MarketPlaceTest.sol\":4873:4900  userProducts[msg.sender][i] */\n      dup2\n      sload\n      dup2\n      lt\n      tag_268\n      jumpi\n      tag_269\n      tag_123\n      jump\t// in\n    tag_269:\n    tag_268:\n      swap1\n      0x00\n      mstore\n      keccak256(0x00, 0x20)\n      swap1\n      0x04\n      mul\n      add\n        /* \"contracts/MarketPlaceTest.sol\":4873:4908  userProducts[msg.sender][i].inStock */\n      0x00\n      add\n      0x00\n        /* \"contracts/MarketPlaceTest.sol\":4873:4919  userProducts[msg.sender][i].inStock += _amount */\n      dup3\n      dup3\n      sload\n      tag_271\n      swap2\n      swap1\n      tag_158\n      jump\t// in\n    tag_271:\n      swap3\n      pop\n      pop\n      dup2\n      swap1\n      sstore\n      pop\n        /* \"contracts/MarketPlaceTest.sol\":4953:4957  true */\n      0x01\n        /* \"contracts/MarketPlaceTest.sol\":4937:4957  productExists = true */\n      swap2\n      pop\n        /* \"contracts/MarketPlaceTest.sol\":4975:4980  break */\n      jump(tag_257)\n        /* \"contracts/MarketPlaceTest.sol\":4748:5072  if (keccak256(bytes(userProducts[msg.sender][i].name)) == keccak256(bytes(userProducts[_shop][_id].name))) {... */\n    tag_267:\n        /* \"contracts/MarketPlaceTest.sol\":4729:4732  i++ */\n      dup1\n      dup1\n      tag_272\n      swap1\n      tag_160\n      jump\t// in\n    tag_272:\n      swap2\n      pop\n      pop\n        /* \"contracts/MarketPlaceTest.sol\":4675:5082  for (uint i = 0; i < userProducts[msg.sender].length; i++) {... */\n      jump(tag_256)\n    tag_257:\n      pop\n        /* \"contracts/MarketPlaceTest.sol\":5177:5190  productExists */\n      dup1\n        /* \"contracts/MarketPlaceTest.sol\":5172:5457  if (!productExists) {... */\n      tag_273\n      jumpi\n        /* \"contracts/MarketPlaceTest.sol\":5275:5297  Product memory newItem */\n      0x00\n        /* \"contracts/MarketPlaceTest.sol\":5300:5394  Product(_amount, userProducts[_shop][_id].price, userProducts[_shop][_id].name, randMod(1000)) */\n      mload(0x40)\n      dup1\n      0x80\n      add\n      0x40\n      mstore\n      dup1\n        /* \"contracts/MarketPlaceTest.sol\":5308:5315  _amount */\n      dup8\n        /* \"contracts/MarketPlaceTest.sol\":5300:5394  Product(_amount, userProducts[_shop][_id].price, userProducts[_shop][_id].name, randMod(1000)) */\n      dup2\n      mstore\n      0x20\n      add\n        /* \"contracts/MarketPlaceTest.sol\":5317:5329  userProducts */\n      0x03\n        /* \"contracts/MarketPlaceTest.sol\":5317:5336  userProducts[_shop] */\n      0x00\n        /* \"contracts/MarketPlaceTest.sol\":5330:5335  _shop */\n      dup11\n        /* \"contracts/MarketPlaceTest.sol\":5317:5336  userProducts[_shop] */\n      0xffffffffffffffffffffffffffffffffffffffff\n      and\n      0xffffffffffffffffffffffffffffffffffffffff\n      and\n      dup2\n      mstore\n      0x20\n      add\n      swap1\n      dup2\n      mstore\n      0x20\n      add\n      0x00\n      keccak256\n        /* \"contracts/MarketPlaceTest.sol\":5337:5340  _id */\n      dup8\n        /* \"contracts/MarketPlaceTest.sol\":5317:5341  userProducts[_shop][_id] */\n      dup2\n      sload\n      dup2\n      lt\n      tag_274\n      jumpi\n      tag_275\n      tag_123\n      jump\t// in\n    tag_275:\n    tag_274:\n      swap1\n      0x00\n      mstore\n      keccak256(0x00, 0x20)\n      swap1\n      0x04\n      mul\n      add\n        /* \"contracts/MarketPlaceTest.sol\":5317:5347  userProducts[_shop][_id].price */\n      0x01\n      add\n      sload\n        /* \"contracts/MarketPlaceTest.sol\":5300:5394  Product(_amount, userProducts[_shop][_id].price, userProducts[_shop][_id].name, randMod(1000)) */\n      dup2\n      mstore\n      0x20\n      add\n        /* \"contracts/MarketPlaceTest.sol\":5349:5361  userProducts */\n      0x03\n        /* \"contracts/MarketPlaceTest.sol\":5349:5368  userProducts[_shop] */\n      0x00\n        /* \"contracts/MarketPlaceTest.sol\":5362:5367  _shop */\n      dup11\n        /* \"contracts/MarketPlaceTest.sol\":5349:5368  userProducts[_shop] */\n      0xffffffffffffffffffffffffffffffffffffffff\n      and\n      0xffffffffffffffffffffffffffffffffffffffff\n      and\n      dup2\n      mstore\n      0x20\n      add\n      swap1\n      dup2\n      mstore\n      0x20\n      add\n      0x00\n      keccak256\n        /* \"contracts/MarketPlaceTest.sol\":5369:5372  _id */\n      dup8\n        /* \"contracts/MarketPlaceTest.sol\":5349:5373  userProducts[_shop][_id] */\n      dup2\n      sload\n      dup2\n      lt\n      tag_277\n      jumpi\n      tag_278\n      tag_123\n      jump\t// in\n    tag_278:\n    tag_277:\n      swap1\n      0x00\n      mstore\n      keccak256(0x00, 0x20)\n      swap1\n      0x04\n      mul\n      add\n        /* \"contracts/MarketPlaceTest.sol\":5349:5378  userProducts[_shop][_id].name */\n      0x02\n      add\n        /* \"contracts/MarketPlaceTest.sol\":5300:5394  Product(_amount, userProducts[_shop][_id].price, userProducts[_shop][_id].name, randMod(1000)) */\n      dup1\n      sload\n      tag_280\n      swap1\n      tag_126\n      jump\t// in\n    tag_280:\n      dup1\n      0x1f\n      add\n      0x20\n      dup1\n      swap2\n      div\n      mul\n      0x20\n      add\n      mload(0x40)\n      swap1\n      dup2\n      add\n      0x40\n      mstore\n      dup1\n      swap3\n      swap2\n      swap1\n      dup2\n      dup2\n      mstore\n      0x20\n      add\n      dup3\n      dup1\n      sload\n      tag_281\n      swap1\n      tag_126\n      jump\t// in\n    tag_281:\n      dup1\n      iszero\n      tag_282\n      jumpi\n      dup1\n      0x1f\n      lt\n      tag_283\n      jumpi\n      0x0100\n      dup1\n      dup4\n      sload\n      div\n      mul\n      dup4\n      mstore\n      swap2\n      0x20\n      add\n      swap2\n      jump(tag_282)\n    tag_283:\n      dup3\n      add\n      swap2\n      swap1\n      0x00\n      mstore\n      keccak256(0x00, 0x20)\n      swap1\n    tag_284:\n      dup2\n      sload\n      dup2\n      mstore\n      swap1\n      0x01\n      add\n      swap1\n      0x20\n      add\n      dup1\n      dup4\n      gt\n      tag_284\n      jumpi\n      dup3\n      swap1\n      sub\n      0x1f\n      and\n      dup3\n      add\n      swap2\n    tag_282:\n      pop\n      pop\n      pop\n      pop\n      pop\n      dup2\n      mstore\n      0x20\n      add\n        /* \"contracts/MarketPlaceTest.sol\":5380:5393  randMod(1000) */\n      tag_285\n        /* \"contracts/MarketPlaceTest.sol\":5388:5392  1000 */\n      0x03e8\n        /* \"contracts/MarketPlaceTest.sol\":5380:5387  randMod */\n      tag_56\n        /* \"contracts/MarketPlaceTest.sol\":5380:5393  randMod(1000) */\n      jump\t// in\n    tag_285:\n        /* \"contracts/MarketPlaceTest.sol\":5300:5394  Product(_amount, userProducts[_shop][_id].price, userProducts[_shop][_id].name, randMod(1000)) */\n      dup2\n      mstore\n      pop\n        /* \"contracts/MarketPlaceTest.sol\":5275:5394  Product memory newItem = Product(_amount, userProducts[_shop][_id].price, userProducts[_shop][_id].name, randMod(1000)) */\n      swap1\n      pop\n        /* \"contracts/MarketPlaceTest.sol\":5408:5420  userProducts */\n      0x03\n        /* \"contracts/MarketPlaceTest.sol\":5408:5432  userProducts[msg.sender] */\n      0x00\n        /* \"contracts/MarketPlaceTest.sol\":5421:5431  msg.sender */\n      caller\n        /* \"contracts/MarketPlaceTest.sol\":5408:5432  userProducts[msg.sender] */\n      0xffffffffffffffffffffffffffffffffffffffff\n      and\n      0xffffffffffffffffffffffffffffffffffffffff\n      and\n      dup2\n      mstore\n      0x20\n      add\n      swap1\n      dup2\n      mstore\n      0x20\n      add\n      0x00\n      keccak256\n        /* \"contracts/MarketPlaceTest.sol\":5438:5445  newItem */\n      dup2\n        /* \"contracts/MarketPlaceTest.sol\":5408:5446  userProducts[msg.sender].push(newItem) */\n      swap1\n      dup1\n      0x01\n      dup2\n      sload\n      add\n      dup1\n      dup3\n      sstore\n      dup1\n      swap2\n      pop\n      pop\n      0x01\n      swap1\n      sub\n      swap1\n      0x00\n      mstore\n      keccak256(0x00, 0x20)\n      swap1\n      0x04\n      mul\n      add\n      0x00\n      swap1\n      swap2\n      swap1\n      swap2\n      swap1\n      swap2\n      pop\n      0x00\n      dup3\n      add\n      mload\n      dup2\n      0x00\n      add\n      sstore\n      0x20\n      dup3\n      add\n      mload\n      dup2\n      0x01\n      add\n      sstore\n      0x40\n      dup3\n      add\n      mload\n      dup2\n      0x02\n      add\n      swap1\n      dup2\n      tag_287\n      swap2\n      swap1\n      tag_104\n      jump\t// in\n    tag_287:\n      pop\n      0x60\n      dup3\n      add\n      mload\n      dup2\n      0x03\n      add\n      sstore\n      pop\n      pop\n        /* \"contracts/MarketPlaceTest.sol\":5192:5457  {... */\n      pop\n        /* \"contracts/MarketPlaceTest.sol\":5172:5457  if (!productExists) {... */\n    tag_273:\n        /* \"contracts/MarketPlaceTest.sol\":5503:5510  _amount */\n      dup5\n        /* \"contracts/MarketPlaceTest.sol\":5467:5479  userProducts */\n      0x03\n        /* \"contracts/MarketPlaceTest.sol\":5467:5486  userProducts[_shop] */\n      0x00\n        /* \"contracts/MarketPlaceTest.sol\":5480:5485  _shop */\n      dup9\n        /* \"contracts/MarketPlaceTest.sol\":5467:5486  userProducts[_shop] */\n      0xffffffffffffffffffffffffffffffffffffffff\n      and\n      0xffffffffffffffffffffffffffffffffffffffff\n      and\n      dup2\n      mstore\n      0x20\n      add\n      swap1\n      dup2\n      mstore\n      0x20\n      add\n      0x00\n      keccak256\n        /* \"contracts/MarketPlaceTest.sol\":5487:5490  _id */\n      dup6\n        /* \"contracts/MarketPlaceTest.sol\":5467:5491  userProducts[_shop][_id] */\n      dup2\n      sload\n      dup2\n      lt\n      tag_288\n      jumpi\n      tag_289\n      tag_123\n      jump\t// in\n    tag_289:\n    tag_288:\n      swap1\n      0x00\n      mstore\n      keccak256(0x00, 0x20)\n      swap1\n      0x04\n      mul\n      add\n        /* \"contracts/MarketPlaceTest.sol\":5467:5499  userProducts[_shop][_id].inStock */\n      0x00\n      add\n      0x00\n        /* \"contracts/MarketPlaceTest.sol\":5467:5510  userProducts[_shop][_id].inStock -= _amount */\n      dup3\n      dup3\n      sload\n      tag_291\n      swap2\n      swap1\n      tag_153\n      jump\t// in\n    tag_291:\n      swap3\n      pop\n      pop\n      dup2\n      swap1\n      sstore\n      pop\n        /* \"contracts/MarketPlaceTest.sol\":5537:5547  totalPrice */\n      dup2\n        /* \"contracts/MarketPlaceTest.sol\":5525:5534  msg.value */\n      callvalue\n        /* \"contracts/MarketPlaceTest.sol\":5525:5547  msg.value > totalPrice */\n      gt\n        /* \"contracts/MarketPlaceTest.sol\":5521:5660  if (msg.value > totalPrice) {... */\n      iszero\n      tag_292\n      jumpi\n        /* \"contracts/MarketPlaceTest.sol\":5563:5574  uint change */\n      0x00\n        /* \"contracts/MarketPlaceTest.sol\":5589:5599  totalPrice */\n      dup3\n        /* \"contracts/MarketPlaceTest.sol\":5577:5586  msg.value */\n      callvalue\n        /* \"contracts/MarketPlaceTest.sol\":5577:5599  msg.value - totalPrice */\n      tag_293\n      swap2\n      swap1\n      tag_153\n      jump\t// in\n    tag_293:\n        /* \"contracts/MarketPlaceTest.sol\":5563:5599  uint change = msg.value - totalPrice */\n      swap1\n      pop\n        /* \"contracts/MarketPlaceTest.sol\":5621:5631  msg.sender */\n      caller\n        /* \"contracts/MarketPlaceTest.sol\":5613:5641  payable(msg.sender).transfer */\n      0xffffffffffffffffffffffffffffffffffffffff\n      and\n        /* \"contracts/MarketPlaceTest.sol\":5613:5649  payable(msg.sender).transfer(change) */\n      0x08fc\n        /* \"contracts/MarketPlaceTest.sol\":5642:5648  change */\n      dup3\n        /* \"contracts/MarketPlaceTest.sol\":5613:5649  payable(msg.sender).transfer(change) */\n      swap1\n      dup2\n      iszero\n      mul\n      swap1\n      mload(0x40)\n      0x00\n      mload(0x40)\n      dup1\n      dup4\n      sub\n      dup2\n      dup6\n      dup9\n      dup9\n      call\n      swap4\n      pop\n      pop\n      pop\n      pop\n      iszero\n      dup1\n      iszero\n      tag_295\n      jumpi\n      returndatasize\n      0x00\n      dup1\n      returndatacopy\n      revert(0x00, returndatasize)\n    tag_295:\n      pop\n        /* \"contracts/MarketPlaceTest.sol\":5549:5660  {... */\n      pop\n        /* \"contracts/MarketPlaceTest.sol\":5521:5660  if (msg.value > totalPrice) {... */\n    tag_292:\n        /* \"contracts/MarketPlaceTest.sol\":5692:5702  totalPrice */\n      dup2\n        /* \"contracts/MarketPlaceTest.sol\":5669:5674  users */\n      0x02\n        /* \"contracts/MarketPlaceTest.sol\":5669:5681  users[_shop] */\n      0x00\n        /* \"contracts/MarketPlaceTest.sol\":5675:5680  _shop */\n      dup9\n        /* \"contracts/MarketPlaceTest.sol\":5669:5681  users[_shop] */\n      0xffffffffffffffffffffffffffffffffffffffff\n      and\n      0xffffffffffffffffffffffffffffffffffffffff\n      and\n      dup2\n      mstore\n      0x20\n      add\n      swap1\n      dup2\n      mstore\n      0x20\n      add\n      0x00\n      keccak256\n        /* \"contracts/MarketPlaceTest.sol\":5669:5689  users[_shop].balance */\n      0x01\n      add\n        /* \"contracts/MarketPlaceTest.sol\":5669:5702  users[_shop].balance = totalPrice */\n      dup2\n      swap1\n      sstore\n      pop\n        /* \"contracts/MarketPlaceTest.sol\":3882:5714  {... */\n      pop\n      pop\n        /* \"contracts/MarketPlaceTest.sol\":3790:5714  function purchase(address _shop, uint _amount, uint _id, string memory _ref) public payable {... */\n      pop\n      pop\n      pop\n      pop\n      jump\t// out\n        /* \"contracts/MarketPlaceTest.sol\":1289:1432  function genRef(string memory _nameRef, address _user) public{... */\n    tag_71:\n        /* \"contracts/MarketPlaceTest.sol\":1382:1387  _user */\n      dup1\n        /* \"contracts/MarketPlaceTest.sol\":1368:1387  msg.sender != _user */\n      0xffffffffffffffffffffffffffffffffffffffff\n      and\n        /* \"contracts/MarketPlaceTest.sol\":1368:1378  msg.sender */\n      caller\n        /* \"contracts/MarketPlaceTest.sol\":1368:1387  msg.sender != _user */\n      0xffffffffffffffffffffffffffffffffffffffff\n      and\n      sub\n        /* \"contracts/MarketPlaceTest.sol\":1360:1388  require(msg.sender != _user) */\n      tag_297\n      jumpi\n      0x00\n      dup1\n      revert\n    tag_297:\n        /* \"contracts/MarketPlaceTest.sol\":1420:1425  _user */\n      dup1\n        /* \"contracts/MarketPlaceTest.sol\":1398:1407  referrals */\n      0x04\n        /* \"contracts/MarketPlaceTest.sol\":1408:1416  _nameRef */\n      dup4\n        /* \"contracts/MarketPlaceTest.sol\":1398:1417  referrals[_nameRef] */\n      mload(0x40)\n      tag_298\n      swap2\n      swap1\n      tag_249\n      jump\t// in\n    tag_298:\n      swap1\n      dup2\n      mstore\n      0x20\n      add\n      mload(0x40)\n      dup1\n      swap2\n      sub\n      swap1\n      keccak256\n      0x00\n        /* \"contracts/MarketPlaceTest.sol\":1398:1425  referrals[_nameRef] = _user */\n      0x0100\n      exp\n      dup2\n      sload\n      dup2\n      0xffffffffffffffffffffffffffffffffffffffff\n      mul\n      not\n      and\n      swap1\n      dup4\n      0xffffffffffffffffffffffffffffffffffffffff\n      and\n      mul\n      or\n      swap1\n      sstore\n      pop\n        /* \"contracts/MarketPlaceTest.sol\":1289:1432  function genRef(string memory _nameRef, address _user) public{... */\n      pop\n      pop\n      jump\t// out\n        /* \"contracts/MarketPlaceTest.sol\":664:701  mapping(address => User) public users */\n    tag_76:\n      mstore(0x20, 0x02)\n      dup1\n      0x00\n      mstore\n      keccak256(0x00, 0x40)\n      0x00\n      swap2\n      pop\n      swap1\n      pop\n      dup1\n      0x00\n      add\n      0x00\n      swap1\n      sload\n      swap1\n      0x0100\n      exp\n      swap1\n      div\n      0xff\n      and\n      swap1\n      dup1\n      0x01\n      add\n      sload\n      swap1\n      pop\n      dup3\n      jump\t// out\n        /* \"contracts/MarketPlaceTest.sol\":762:805  mapping(string => address) public referrals */\n    tag_83:\n      0x04\n      dup2\n      dup1\n      mload\n      0x20\n      dup2\n      add\n      dup3\n      add\n      dup1\n      mload\n      dup5\n      dup3\n      mstore\n      0x20\n      dup4\n      add\n      0x20\n      dup6\n      add\n      keccak256\n      dup2\n      dup4\n      mstore\n      dup1\n      swap6\n      pop\n      pop\n      pop\n      pop\n      pop\n      pop\n      0x00\n      swap2\n      pop\n      sload\n      swap1\n      0x0100\n      exp\n      swap1\n      div\n      0xffffffffffffffffffffffffffffffffffffffff\n      and\n      dup2\n      jump\t// out\n        /* \"contracts/MarketPlaceTest.sol\":5720:5857  function withdrawBal(address _shop) public {... */\n    tag_88:\n        /* \"contracts/MarketPlaceTest.sol\":5773:5785  uint balance */\n      0x00\n        /* \"contracts/MarketPlaceTest.sol\":5788:5793  users */\n      0x02\n        /* \"contracts/MarketPlaceTest.sol\":5788:5800  users[_shop] */\n      0x00\n        /* \"contracts/MarketPlaceTest.sol\":5794:5799  _shop */\n      dup4\n        /* \"contracts/MarketPlaceTest.sol\":5788:5800  users[_shop] */\n      0xffffffffffffffffffffffffffffffffffffffff\n      and\n      0xffffffffffffffffffffffffffffffffffffffff\n      and\n      dup2\n      mstore\n      0x20\n      add\n      swap1\n      dup2\n      mstore\n      0x20\n      add\n      0x00\n      keccak256\n        /* \"contracts/MarketPlaceTest.sol\":5788:5808  users[_shop].balance */\n      0x01\n      add\n      sload\n        /* \"contracts/MarketPlaceTest.sol\":5773:5808  uint balance = users[_shop].balance */\n      swap1\n      pop\n        /* \"contracts/MarketPlaceTest.sol\":5826:5831  _shop */\n      dup2\n        /* \"contracts/MarketPlaceTest.sol\":5818:5841  payable(_shop).transfer */\n      0xffffffffffffffffffffffffffffffffffffffff\n      and\n        /* \"contracts/MarketPlaceTest.sol\":5818:5850  payable(_shop).transfer(balance) */\n      0x08fc\n        /* \"contracts/MarketPlaceTest.sol\":5842:5849  balance */\n      dup3\n        /* \"contracts/MarketPlaceTest.sol\":5818:5850  payable(_shop).transfer(balance) */\n      swap1\n      dup2\n      iszero\n      mul\n      swap1\n      mload(0x40)\n      0x00\n      mload(0x40)\n      dup1\n      dup4\n      sub\n      dup2\n      dup6\n      dup9\n      dup9\n      call\n      swap4\n      pop\n      pop\n      pop\n      pop\n      iszero\n      dup1\n      iszero\n      tag_301\n      jumpi\n      returndatasize\n      0x00\n      dup1\n      returndatacopy\n      revert(0x00, returndatasize)\n    tag_301:\n      pop\n        /* \"contracts/MarketPlaceTest.sol\":5763:5857  {... */\n      pop\n        /* \"contracts/MarketPlaceTest.sol\":5720:5857  function withdrawBal(address _shop) public {... */\n      pop\n      jump\t// out\n    tag_208:\n      pop\n      dup1\n      sload\n      tag_302\n      swap1\n      tag_126\n      jump\t// in\n    tag_302:\n      0x00\n      dup3\n      sstore\n      dup1\n      0x1f\n      lt\n      tag_304\n      jumpi\n      pop\n      jump(tag_303)\n    tag_304:\n      0x1f\n      add\n      0x20\n      swap1\n      div\n      swap1\n      0x00\n      mstore\n      keccak256(0x00, 0x20)\n      swap1\n      dup2\n      add\n      swap1\n      tag_305\n      swap2\n      swap1\n      tag_306\n      jump\t// in\n    tag_305:\n    tag_303:\n      pop\n      jump\t// out\n    tag_306:\n    tag_307:\n      dup1\n      dup3\n      gt\n      iszero\n      tag_308\n      jumpi\n      0x00\n      dup2\n      0x00\n      swap1\n      sstore\n      pop\n      0x01\n      add\n      jump(tag_307)\n    tag_308:\n      pop\n      swap1\n      jump\t// out\n        /* \"#utility.yul\":7:82   */\n    tag_309:\n        /* \"#utility.yul\":40:46   */\n      0x00\n        /* \"#utility.yul\":73:75   */\n      0x40\n        /* \"#utility.yul\":67:76   */\n      mload\n        /* \"#utility.yul\":57:76   */\n      swap1\n      pop\n        /* \"#utility.yul\":7:82   */\n      swap1\n      jump\t// out\n        /* \"#utility.yul\":88:205   */\n    tag_310:\n        /* \"#utility.yul\":197:198   */\n      0x00\n        /* \"#utility.yul\":194:195   */\n      dup1\n        /* \"#utility.yul\":187:199   */\n      revert\n        /* \"#utility.yul\":211:328   */\n    tag_311:\n        /* \"#utility.yul\":320:321   */\n      0x00\n        /* \"#utility.yul\":317:318   */\n      dup1\n        /* \"#utility.yul\":310:322   */\n      revert\n        /* \"#utility.yul\":334:460   */\n    tag_312:\n        /* \"#utility.yul\":371:378   */\n      0x00\n        /* \"#utility.yul\":411:453   */\n      0xffffffffffffffffffffffffffffffffffffffff\n        /* \"#utility.yul\":404:409   */\n      dup3\n        /* \"#utility.yul\":400:454   */\n      and\n        /* \"#utility.yul\":389:454   */\n      swap1\n      pop\n        /* \"#utility.yul\":334:460   */\n      swap2\n      swap1\n      pop\n      jump\t// out\n        /* \"#utility.yul\":466:562   */\n    tag_313:\n        /* \"#utility.yul\":503:510   */\n      0x00\n        /* \"#utility.yul\":532:556   */\n      tag_389\n        /* \"#utility.yul\":550:555   */\n      dup3\n        /* \"#utility.yul\":532:556   */\n      tag_312\n      jump\t// in\n    tag_389:\n        /* \"#utility.yul\":521:556   */\n      swap1\n      pop\n        /* \"#utility.yul\":466:562   */\n      swap2\n      swap1\n      pop\n      jump\t// out\n        /* \"#utility.yul\":568:690   */\n    tag_314:\n        /* \"#utility.yul\":641:665   */\n      tag_391\n        /* \"#utility.yul\":659:664   */\n      dup2\n        /* \"#utility.yul\":641:665   */\n      tag_313\n      jump\t// in\n    tag_391:\n        /* \"#utility.yul\":634:639   */\n      dup2\n        /* \"#utility.yul\":631:666   */\n      eq\n        /* \"#utility.yul\":621:684   */\n      tag_392\n      jumpi\n        /* \"#utility.yul\":680:681   */\n      0x00\n        /* \"#utility.yul\":677:678   */\n      dup1\n        /* \"#utility.yul\":670:682   */\n      revert\n        /* \"#utility.yul\":621:684   */\n    tag_392:\n        /* \"#utility.yul\":568:690   */\n      pop\n      jump\t// out\n        /* \"#utility.yul\":696:835   */\n    tag_315:\n        /* \"#utility.yul\":742:747   */\n      0x00\n        /* \"#utility.yul\":780:786   */\n      dup2\n        /* \"#utility.yul\":767:787   */\n      calldataload\n        /* \"#utility.yul\":758:787   */\n      swap1\n      pop\n        /* \"#utility.yul\":796:829   */\n      tag_394\n        /* \"#utility.yul\":823:828   */\n      dup2\n        /* \"#utility.yul\":796:829   */\n      tag_314\n      jump\t// in\n    tag_394:\n        /* \"#utility.yul\":696:835   */\n      swap3\n      swap2\n      pop\n      pop\n      jump\t// out\n        /* \"#utility.yul\":841:918   */\n    tag_316:\n        /* \"#utility.yul\":878:885   */\n      0x00\n        /* \"#utility.yul\":907:912   */\n      dup2\n        /* \"#utility.yul\":896:912   */\n      swap1\n      pop\n        /* \"#utility.yul\":841:918   */\n      swap2\n      swap1\n      pop\n      jump\t// out\n        /* \"#utility.yul\":924:1046   */\n    tag_317:\n        /* \"#utility.yul\":997:1021   */\n      tag_397\n        /* \"#utility.yul\":1015:1020   */\n      dup2\n        /* \"#utility.yul\":997:1021   */\n      tag_316\n      jump\t// in\n    tag_397:\n        /* \"#utility.yul\":990:995   */\n      dup2\n        /* \"#utility.yul\":987:1022   */\n      eq\n        /* \"#utility.yul\":977:1040   */\n      tag_398\n      jumpi\n        /* \"#utility.yul\":1036:1037   */\n      0x00\n        /* \"#utility.yul\":1033:1034   */\n      dup1\n        /* \"#utility.yul\":1026:1038   */\n      revert\n        /* \"#utility.yul\":977:1040   */\n    tag_398:\n        /* \"#utility.yul\":924:1046   */\n      pop\n      jump\t// out\n        /* \"#utility.yul\":1052:1191   */\n    tag_318:\n        /* \"#utility.yul\":1098:1103   */\n      0x00\n        /* \"#utility.yul\":1136:1142   */\n      dup2\n        /* \"#utility.yul\":1123:1143   */\n      calldataload\n        /* \"#utility.yul\":1114:1143   */\n      swap1\n      pop\n        /* \"#utility.yul\":1152:1185   */\n      tag_400\n        /* \"#utility.yul\":1179:1184   */\n      dup2\n        /* \"#utility.yul\":1152:1185   */\n      tag_317\n      jump\t// in\n    tag_400:\n        /* \"#utility.yul\":1052:1191   */\n      swap3\n      swap2\n      pop\n      pop\n      jump\t// out\n        /* \"#utility.yul\":1197:1314   */\n    tag_319:\n        /* \"#utility.yul\":1306:1307   */\n      0x00\n        /* \"#utility.yul\":1303:1304   */\n      dup1\n        /* \"#utility.yul\":1296:1308   */\n      revert\n        /* \"#utility.yul\":1320:1437   */\n    tag_320:\n        /* \"#utility.yul\":1429:1430   */\n      0x00\n        /* \"#utility.yul\":1426:1427   */\n      dup1\n        /* \"#utility.yul\":1419:1431   */\n      revert\n        /* \"#utility.yul\":1443:1560   */\n    tag_321:\n        /* \"#utility.yul\":1552:1553   */\n      0x00\n        /* \"#utility.yul\":1549:1550   */\n      dup1\n        /* \"#utility.yul\":1542:1554   */\n      revert\n        /* \"#utility.yul\":1580:2133   */\n    tag_322:\n        /* \"#utility.yul\":1638:1646   */\n      0x00\n        /* \"#utility.yul\":1648:1654   */\n      dup1\n        /* \"#utility.yul\":1698:1701   */\n      dup4\n        /* \"#utility.yul\":1691:1695   */\n      0x1f\n        /* \"#utility.yul\":1683:1689   */\n      dup5\n        /* \"#utility.yul\":1679:1696   */\n      add\n        /* \"#utility.yul\":1675:1702   */\n      slt\n        /* \"#utility.yul\":1665:1787   */\n      tag_405\n      jumpi\n        /* \"#utility.yul\":1706:1785   */\n      tag_406\n      tag_319\n      jump\t// in\n    tag_406:\n        /* \"#utility.yul\":1665:1787   */\n    tag_405:\n        /* \"#utility.yul\":1819:1825   */\n      dup3\n        /* \"#utility.yul\":1806:1826   */\n      calldataload\n        /* \"#utility.yul\":1796:1826   */\n      swap1\n      pop\n        /* \"#utility.yul\":1849:1867   */\n      0xffffffffffffffff\n        /* \"#utility.yul\":1841:1847   */\n      dup2\n        /* \"#utility.yul\":1838:1868   */\n      gt\n        /* \"#utility.yul\":1835:1952   */\n      iszero\n      tag_407\n      jumpi\n        /* \"#utility.yul\":1871:1950   */\n      tag_408\n      tag_320\n      jump\t// in\n    tag_408:\n        /* \"#utility.yul\":1835:1952   */\n    tag_407:\n        /* \"#utility.yul\":1985:1989   */\n      0x20\n        /* \"#utility.yul\":1977:1983   */\n      dup4\n        /* \"#utility.yul\":1973:1990   */\n      add\n        /* \"#utility.yul\":1961:1990   */\n      swap2\n      pop\n        /* \"#utility.yul\":2039:2042   */\n      dup4\n        /* \"#utility.yul\":2031:2035   */\n      0x01\n        /* \"#utility.yul\":2023:2029   */\n      dup3\n        /* \"#utility.yul\":2019:2036   */\n      mul\n        /* \"#utility.yul\":2009:2017   */\n      dup4\n        /* \"#utility.yul\":2005:2037   */\n      add\n        /* \"#utility.yul\":2002:2043   */\n      gt\n        /* \"#utility.yul\":1999:2127   */\n      iszero\n      tag_409\n      jumpi\n        /* \"#utility.yul\":2046:2125   */\n      tag_410\n      tag_321\n      jump\t// in\n    tag_410:\n        /* \"#utility.yul\":1999:2127   */\n    tag_409:\n        /* \"#utility.yul\":1580:2133   */\n      swap3\n      pop\n      swap3\n      swap1\n      pop\n      jump\t// out\n        /* \"#utility.yul\":2139:3250   */\n    tag_22:\n        /* \"#utility.yul\":2246:2252   */\n      0x00\n        /* \"#utility.yul\":2254:2260   */\n      dup1\n        /* \"#utility.yul\":2262:2268   */\n      0x00\n        /* \"#utility.yul\":2270:2276   */\n      dup1\n        /* \"#utility.yul\":2278:2284   */\n      0x00\n        /* \"#utility.yul\":2286:2292   */\n      dup1\n        /* \"#utility.yul\":2335:2338   */\n      0xa0\n        /* \"#utility.yul\":2323:2332   */\n      dup8\n        /* \"#utility.yul\":2314:2321   */\n      dup10\n        /* \"#utility.yul\":2310:2333   */\n      sub\n        /* \"#utility.yul\":2306:2339   */\n      slt\n        /* \"#utility.yul\":2303:2423   */\n      iszero\n      tag_412\n      jumpi\n        /* \"#utility.yul\":2342:2421   */\n      tag_413\n      tag_310\n      jump\t// in\n    tag_413:\n        /* \"#utility.yul\":2303:2423   */\n    tag_412:\n        /* \"#utility.yul\":2462:2463   */\n      0x00\n        /* \"#utility.yul\":2487:2540   */\n      tag_414\n        /* \"#utility.yul\":2532:2539   */\n      dup10\n        /* \"#utility.yul\":2523:2529   */\n      dup3\n        /* \"#utility.yul\":2512:2521   */\n      dup11\n        /* \"#utility.yul\":2508:2530   */\n      add\n        /* \"#utility.yul\":2487:2540   */\n      tag_315\n      jump\t// in\n    tag_414:\n        /* \"#utility.yul\":2477:2540   */\n      swap7\n      pop\n        /* \"#utility.yul\":2433:2550   */\n      pop\n        /* \"#utility.yul\":2589:2591   */\n      0x20\n        /* \"#utility.yul\":2615:2668   */\n      tag_415\n        /* \"#utility.yul\":2660:2667   */\n      dup10\n        /* \"#utility.yul\":2651:2657   */\n      dup3\n        /* \"#utility.yul\":2640:2649   */\n      dup11\n        /* \"#utility.yul\":2636:2658   */\n      add\n        /* \"#utility.yul\":2615:2668   */\n      tag_318\n      jump\t// in\n    tag_415:\n        /* \"#utility.yul\":2605:2668   */\n      swap6\n      pop\n        /* \"#utility.yul\":2560:2678   */\n      pop\n        /* \"#utility.yul\":2717:2719   */\n      0x40\n        /* \"#utility.yul\":2743:2796   */\n      tag_416\n        /* \"#utility.yul\":2788:2795   */\n      dup10\n        /* \"#utility.yul\":2779:2785   */\n      dup3\n        /* \"#utility.yul\":2768:2777   */\n      dup11\n        /* \"#utility.yul\":2764:2786   */\n      add\n        /* \"#utility.yul\":2743:2796   */\n      tag_318\n      jump\t// in\n    tag_416:\n        /* \"#utility.yul\":2733:2796   */\n      swap5\n      pop\n        /* \"#utility.yul\":2688:2806   */\n      pop\n        /* \"#utility.yul\":2873:2875   */\n      0x60\n        /* \"#utility.yul\":2862:2871   */\n      dup8\n        /* \"#utility.yul\":2858:2876   */\n      add\n        /* \"#utility.yul\":2845:2877   */\n      calldataload\n        /* \"#utility.yul\":2904:2922   */\n      0xffffffffffffffff\n        /* \"#utility.yul\":2896:2902   */\n      dup2\n        /* \"#utility.yul\":2893:2923   */\n      gt\n        /* \"#utility.yul\":2890:3007   */\n      iszero\n      tag_417\n      jumpi\n        /* \"#utility.yul\":2926:3005   */\n      tag_418\n      tag_311\n      jump\t// in\n    tag_418:\n        /* \"#utility.yul\":2890:3007   */\n    tag_417:\n        /* \"#utility.yul\":3039:3104   */\n      tag_419\n        /* \"#utility.yul\":3096:3103   */\n      dup10\n        /* \"#utility.yul\":3087:3093   */\n      dup3\n        /* \"#utility.yul\":3076:3085   */\n      dup11\n        /* \"#utility.yul\":3072:3094   */\n      add\n        /* \"#utility.yul\":3039:3104   */\n      tag_322\n      jump\t// in\n    tag_419:\n        /* \"#utility.yul\":3021:3104   */\n      swap4\n      pop\n      swap4\n      pop\n        /* \"#utility.yul\":2816:3114   */\n      pop\n        /* \"#utility.yul\":3153:3156   */\n      0x80\n        /* \"#utility.yul\":3180:3233   */\n      tag_420\n        /* \"#utility.yul\":3225:3232   */\n      dup10\n        /* \"#utility.yul\":3216:3222   */\n      dup3\n        /* \"#utility.yul\":3205:3214   */\n      dup11\n        /* \"#utility.yul\":3201:3223   */\n      add\n        /* \"#utility.yul\":3180:3233   */\n      tag_318\n      jump\t// in\n    tag_420:\n        /* \"#utility.yul\":3170:3233   */\n      swap2\n      pop\n        /* \"#utility.yul\":3124:3243   */\n      pop\n        /* \"#utility.yul\":2139:3250   */\n      swap3\n      swap6\n      pop\n      swap3\n      swap6\n      pop\n      swap3\n      swap6\n      jump\t// out\n        /* \"#utility.yul\":3256:3875   */\n    tag_26:\n        /* \"#utility.yul\":3333:3339   */\n      0x00\n        /* \"#utility.yul\":3341:3347   */\n      dup1\n        /* \"#utility.yul\":3349:3355   */\n      0x00\n        /* \"#utility.yul\":3398:3400   */\n      0x60\n        /* \"#utility.yul\":3386:3395   */\n      dup5\n        /* \"#utility.yul\":3377:3384   */\n      dup7\n        /* \"#utility.yul\":3373:3396   */\n      sub\n        /* \"#utility.yul\":3369:3401   */\n      slt\n        /* \"#utility.yul\":3366:3485   */\n      iszero\n      tag_422\n      jumpi\n        /* \"#utility.yul\":3404:3483   */\n      tag_423\n      tag_310\n      jump\t// in\n    tag_423:\n        /* \"#utility.yul\":3366:3485   */\n    tag_422:\n        /* \"#utility.yul\":3524:3525   */\n      0x00\n        /* \"#utility.yul\":3549:3602   */\n      tag_424\n        /* \"#utility.yul\":3594:3601   */\n      dup7\n        /* \"#utility.yul\":3585:3591   */\n      dup3\n        /* \"#utility.yul\":3574:3583   */\n      dup8\n        /* \"#utility.yul\":3570:3592   */\n      add\n        /* \"#utility.yul\":3549:3602   */\n      tag_315\n      jump\t// in\n    tag_424:\n        /* \"#utility.yul\":3539:3602   */\n      swap4\n      pop\n        /* \"#utility.yul\":3495:3612   */\n      pop\n        /* \"#utility.yul\":3651:3653   */\n      0x20\n        /* \"#utility.yul\":3677:3730   */\n      tag_425\n        /* \"#utility.yul\":3722:3729   */\n      dup7\n        /* \"#utility.yul\":3713:3719   */\n      dup3\n        /* \"#utility.yul\":3702:3711   */\n      dup8\n        /* \"#utility.yul\":3698:3720   */\n      add\n        /* \"#utility.yul\":3677:3730   */\n      tag_318\n      jump\t// in\n    tag_425:\n        /* \"#utility.yul\":3667:3730   */\n      swap3\n      pop\n        /* \"#utility.yul\":3622:3740   */\n      pop\n        /* \"#utility.yul\":3779:3781   */\n      0x40\n        /* \"#utility.yul\":3805:3858   */\n      tag_426\n        /* \"#utility.yul\":3850:3857   */\n      dup7\n        /* \"#utility.yul\":3841:3847   */\n      dup3\n        /* \"#utility.yul\":3830:3839   */\n      dup8\n        /* \"#utility.yul\":3826:3848   */\n      add\n        /* \"#utility.yul\":3805:3858   */\n      tag_318\n      jump\t// in\n    tag_426:\n        /* \"#utility.yul\":3795:3858   */\n      swap2\n      pop\n        /* \"#utility.yul\":3750:3868   */\n      pop\n        /* \"#utility.yul\":3256:3875   */\n      swap3\n      pop\n      swap3\n      pop\n      swap3\n      jump\t// out\n        /* \"#utility.yul\":3881:4846   */\n    tag_31:\n        /* \"#utility.yul\":3979:3985   */\n      0x00\n        /* \"#utility.yul\":3987:3993   */\n      dup1\n        /* \"#utility.yul\":3995:4001   */\n      0x00\n        /* \"#utility.yul\":4003:4009   */\n      dup1\n        /* \"#utility.yul\":4011:4017   */\n      0x00\n        /* \"#utility.yul\":4060:4063   */\n      0x80\n        /* \"#utility.yul\":4048:4057   */\n      dup7\n        /* \"#utility.yul\":4039:4046   */\n      dup9\n        /* \"#utility.yul\":4035:4058   */\n      sub\n        /* \"#utility.yul\":4031:4064   */\n      slt\n        /* \"#utility.yul\":4028:4148   */\n      iszero\n      tag_428\n      jumpi\n        /* \"#utility.yul\":4067:4146   */\n      tag_429\n      tag_310\n      jump\t// in\n    tag_429:\n        /* \"#utility.yul\":4028:4148   */\n    tag_428:\n        /* \"#utility.yul\":4187:4188   */\n      0x00\n        /* \"#utility.yul\":4212:4265   */\n      tag_430\n        /* \"#utility.yul\":4257:4264   */\n      dup9\n        /* \"#utility.yul\":4248:4254   */\n      dup3\n        /* \"#utility.yul\":4237:4246   */\n      dup10\n        /* \"#utility.yul\":4233:4255   */\n      add\n        /* \"#utility.yul\":4212:4265   */\n      tag_318\n      jump\t// in\n    tag_430:\n        /* \"#utility.yul\":4202:4265   */\n      swap6\n      pop\n        /* \"#utility.yul\":4158:4275   */\n      pop\n        /* \"#utility.yul\":4314:4316   */\n      0x20\n        /* \"#utility.yul\":4340:4393   */\n      tag_431\n        /* \"#utility.yul\":4385:4392   */\n      dup9\n        /* \"#utility.yul\":4376:4382   */\n      dup3\n        /* \"#utility.yul\":4365:4374   */\n      dup10\n        /* \"#utility.yul\":4361:4383   */\n      add\n        /* \"#utility.yul\":4340:4393   */\n      tag_318\n      jump\t// in\n    tag_431:\n        /* \"#utility.yul\":4330:4393   */\n      swap5\n      pop\n        /* \"#utility.yul\":4285:4403   */\n      pop\n        /* \"#utility.yul\":4470:4472   */\n      0x40\n        /* \"#utility.yul\":4459:4468   */\n      dup7\n        /* \"#utility.yul\":4455:4473   */\n      add\n        /* \"#utility.yul\":4442:4474   */\n      calldataload\n        /* \"#utility.yul\":4501:4519   */\n      0xffffffffffffffff\n        /* \"#utility.yul\":4493:4499   */\n      dup2\n        /* \"#utility.yul\":4490:4520   */\n      gt\n        /* \"#utility.yul\":4487:4604   */\n      iszero\n      tag_432\n      jumpi\n        /* \"#utility.yul\":4523:4602   */\n      tag_433\n      tag_311\n      jump\t// in\n    tag_433:\n        /* \"#utility.yul\":4487:4604   */\n    tag_432:\n        /* \"#utility.yul\":4636:4701   */\n      tag_434\n        /* \"#utility.yul\":4693:4700   */\n      dup9\n        /* \"#utility.yul\":4684:4690   */\n      dup3\n        /* \"#utility.yul\":4673:4682   */\n      dup10\n        /* \"#utility.yul\":4669:4691   */\n      add\n        /* \"#utility.yul\":4636:4701   */\n      tag_322\n      jump\t// in\n    tag_434:\n        /* \"#utility.yul\":4618:4701   */\n      swap4\n      pop\n      swap4\n      pop\n        /* \"#utility.yul\":4413:4711   */\n      pop\n        /* \"#utility.yul\":4750:4752   */\n      0x60\n        /* \"#utility.yul\":4776:4829   */\n      tag_435\n        /* \"#utility.yul\":4821:4828   */\n      dup9\n        /* \"#utility.yul\":4812:4818   */\n      dup3\n        /* \"#utility.yul\":4801:4810   */\n      dup10\n        /* \"#utility.yul\":4797:4819   */\n      add\n        /* \"#utility.yul\":4776:4829   */\n      tag_318\n      jump\t// in\n    tag_435:\n        /* \"#utility.yul\":4766:4829   */\n      swap2\n      pop\n        /* \"#utility.yul\":4721:4839   */\n      pop\n        /* \"#utility.yul\":3881:4846   */\n      swap3\n      swap6\n      pop\n      swap3\n      swap6\n      swap1\n      swap4\n      pop\n      jump\t// out\n        /* \"#utility.yul\":4852:4970   */\n    tag_323:\n        /* \"#utility.yul\":4939:4963   */\n      tag_437\n        /* \"#utility.yul\":4957:4962   */\n      dup2\n        /* \"#utility.yul\":4939:4963   */\n      tag_313\n      jump\t// in\n    tag_437:\n        /* \"#utility.yul\":4934:4937   */\n      dup3\n        /* \"#utility.yul\":4927:4964   */\n      mstore\n        /* \"#utility.yul\":4852:4970   */\n      pop\n      pop\n      jump\t// out\n        /* \"#utility.yul\":4976:5198   */\n    tag_37:\n        /* \"#utility.yul\":5069:5073   */\n      0x00\n        /* \"#utility.yul\":5107:5109   */\n      0x20\n        /* \"#utility.yul\":5096:5105   */\n      dup3\n        /* \"#utility.yul\":5092:5110   */\n      add\n        /* \"#utility.yul\":5084:5110   */\n      swap1\n      pop\n        /* \"#utility.yul\":5120:5191   */\n      tag_439\n        /* \"#utility.yul\":5188:5189   */\n      0x00\n        /* \"#utility.yul\":5177:5186   */\n      dup4\n        /* \"#utility.yul\":5173:5190   */\n      add\n        /* \"#utility.yul\":5164:5170   */\n      dup5\n        /* \"#utility.yul\":5120:5191   */\n      tag_323\n      jump\t// in\n    tag_439:\n        /* \"#utility.yul\":4976:5198   */\n      swap3\n      swap2\n      pop\n      pop\n      jump\t// out\n        /* \"#utility.yul\":5204:5678   */\n    tag_41:\n        /* \"#utility.yul\":5272:5278   */\n      0x00\n        /* \"#utility.yul\":5280:5286   */\n      dup1\n        /* \"#utility.yul\":5329:5331   */\n      0x40\n        /* \"#utility.yul\":5317:5326   */\n      dup4\n        /* \"#utility.yul\":5308:5315   */\n      dup6\n        /* \"#utility.yul\":5304:5327   */\n      sub\n        /* \"#utility.yul\":5300:5332   */\n      slt\n        /* \"#utility.yul\":5297:5416   */\n      iszero\n      tag_441\n      jumpi\n        /* \"#utility.yul\":5335:5414   */\n      tag_442\n      tag_310\n      jump\t// in\n    tag_442:\n        /* \"#utility.yul\":5297:5416   */\n    tag_441:\n        /* \"#utility.yul\":5455:5456   */\n      0x00\n        /* \"#utility.yul\":5480:5533   */\n      tag_443\n        /* \"#utility.yul\":5525:5532   */\n      dup6\n        /* \"#utility.yul\":5516:5522   */\n      dup3\n        /* \"#utility.yul\":5505:5514   */\n      dup7\n        /* \"#utility.yul\":5501:5523   */\n      add\n        /* \"#utility.yul\":5480:5533   */\n      tag_315\n      jump\t// in\n    tag_443:\n        /* \"#utility.yul\":5470:5533   */\n      swap3\n      pop\n        /* \"#utility.yul\":5426:5543   */\n      pop\n        /* \"#utility.yul\":5582:5584   */\n      0x20\n        /* \"#utility.yul\":5608:5661   */\n      tag_444\n        /* \"#utility.yul\":5653:5660   */\n      dup6\n        /* \"#utility.yul\":5644:5650   */\n      dup3\n        /* \"#utility.yul\":5633:5642   */\n      dup7\n        /* \"#utility.yul\":5629:5651   */\n      add\n        /* \"#utility.yul\":5608:5661   */\n      tag_318\n      jump\t// in\n    tag_444:\n        /* \"#utility.yul\":5598:5661   */\n      swap2\n      pop\n        /* \"#utility.yul\":5553:5671   */\n      pop\n        /* \"#utility.yul\":5204:5678   */\n      swap3\n      pop\n      swap3\n      swap1\n      pop\n      jump\t// out\n        /* \"#utility.yul\":5684:5802   */\n    tag_324:\n        /* \"#utility.yul\":5771:5795   */\n      tag_446\n        /* \"#utility.yul\":5789:5794   */\n      dup2\n        /* \"#utility.yul\":5771:5795   */\n      tag_316\n      jump\t// in\n    tag_446:\n        /* \"#utility.yul\":5766:5769   */\n      dup3\n        /* \"#utility.yul\":5759:5796   */\n      mstore\n        /* \"#utility.yul\":5684:5802   */\n      pop\n      pop\n      jump\t// out\n        /* \"#utility.yul\":5808:5907   */\n    tag_325:\n        /* \"#utility.yul\":5860:5866   */\n      0x00\n        /* \"#utility.yul\":5894:5899   */\n      dup2\n        /* \"#utility.yul\":5888:5900   */\n      mload\n        /* \"#utility.yul\":5878:5900   */\n      swap1\n      pop\n        /* \"#utility.yul\":5808:5907   */\n      swap2\n      swap1\n      pop\n      jump\t// out\n        /* \"#utility.yul\":5913:6082   */\n    tag_326:\n        /* \"#utility.yul\":5997:6008   */\n      0x00\n        /* \"#utility.yul\":6031:6037   */\n      dup3\n        /* \"#utility.yul\":6026:6029   */\n      dup3\n        /* \"#utility.yul\":6019:6038   */\n      mstore\n        /* \"#utility.yul\":6071:6075   */\n      0x20\n        /* \"#utility.yul\":6066:6069   */\n      dup3\n        /* \"#utility.yul\":6062:6076   */\n      add\n        /* \"#utility.yul\":6047:6076   */\n      swap1\n      pop\n        /* \"#utility.yul\":5913:6082   */\n      swap3\n      swap2\n      pop\n      pop\n      jump\t// out\n        /* \"#utility.yul\":6088:6334   */\n    tag_327:\n        /* \"#utility.yul\":6169:6170   */\n      0x00\n        /* \"#utility.yul\":6179:6292   */\n    tag_450:\n        /* \"#utility.yul\":6193:6199   */\n      dup4\n        /* \"#utility.yul\":6190:6191   */\n      dup2\n        /* \"#utility.yul\":6187:6200   */\n      lt\n        /* \"#utility.yul\":6179:6292   */\n      iszero\n      tag_452\n      jumpi\n        /* \"#utility.yul\":6278:6279   */\n      dup1\n        /* \"#utility.yul\":6273:6276   */\n      dup3\n        /* \"#utility.yul\":6269:6280   */\n      add\n        /* \"#utility.yul\":6263:6281   */\n      mload\n        /* \"#utility.yul\":6259:6260   */\n      dup2\n        /* \"#utility.yul\":6254:6257   */\n      dup5\n        /* \"#utility.yul\":6250:6261   */\n      add\n        /* \"#utility.yul\":6243:6282   */\n      mstore\n        /* \"#utility.yul\":6215:6217   */\n      0x20\n        /* \"#utility.yul\":6212:6213   */\n      dup2\n        /* \"#utility.yul\":6208:6218   */\n      add\n        /* \"#utility.yul\":6203:6218   */\n      swap1\n      pop\n        /* \"#utility.yul\":6179:6292   */\n      jump(tag_450)\n    tag_452:\n        /* \"#utility.yul\":6326:6327   */\n      0x00\n        /* \"#utility.yul\":6317:6323   */\n      dup5\n        /* \"#utility.yul\":6312:6315   */\n      dup5\n        /* \"#utility.yul\":6308:6324   */\n      add\n        /* \"#utility.yul\":6301:6328   */\n      mstore\n        /* \"#utility.yul\":6150:6334   */\n      pop\n        /* \"#utility.yul\":6088:6334   */\n      pop\n      pop\n      pop\n      jump\t// out\n        /* \"#utility.yul\":6340:6442   */\n    tag_328:\n        /* \"#utility.yul\":6381:6387   */\n      0x00\n        /* \"#utility.yul\":6432:6434   */\n      0x1f\n        /* \"#utility.yul\":6428:6435   */\n      not\n        /* \"#utility.yul\":6423:6425   */\n      0x1f\n        /* \"#utility.yul\":6416:6421   */\n      dup4\n        /* \"#utility.yul\":6412:6426   */\n      add\n        /* \"#utility.yul\":6408:6436   */\n      and\n        /* \"#utility.yul\":6398:6436   */\n      swap1\n      pop\n        /* \"#utility.yul\":6340:6442   */\n      swap2\n      swap1\n      pop\n      jump\t// out\n        /* \"#utility.yul\":6448:6825   */\n    tag_329:\n        /* \"#utility.yul\":6536:6539   */\n      0x00\n        /* \"#utility.yul\":6564:6603   */\n      tag_455\n        /* \"#utility.yul\":6597:6602   */\n      dup3\n        /* \"#utility.yul\":6564:6603   */\n      tag_325\n      jump\t// in\n    tag_455:\n        /* \"#utility.yul\":6619:6690   */\n      tag_456\n        /* \"#utility.yul\":6683:6689   */\n      dup2\n        /* \"#utility.yul\":6678:6681   */\n      dup6\n        /* \"#utility.yul\":6619:6690   */\n      tag_326\n      jump\t// in\n    tag_456:\n        /* \"#utility.yul\":6612:6690   */\n      swap4\n      pop\n        /* \"#utility.yul\":6699:6764   */\n      tag_457\n        /* \"#utility.yul\":6757:6763   */\n      dup2\n        /* \"#utility.yul\":6752:6755   */\n      dup6\n        /* \"#utility.yul\":6745:6749   */\n      0x20\n        /* \"#utility.yul\":6738:6743   */\n      dup7\n        /* \"#utility.yul\":6734:6750   */\n      add\n        /* \"#utility.yul\":6699:6764   */\n      tag_327\n      jump\t// in\n    tag_457:\n        /* \"#utility.yul\":6789:6818   */\n      tag_458\n        /* \"#utility.yul\":6811:6817   */\n      dup2\n        /* \"#utility.yul\":6789:6818   */\n      tag_328\n      jump\t// in\n    tag_458:\n        /* \"#utility.yul\":6784:6787   */\n      dup5\n        /* \"#utility.yul\":6780:6819   */\n      add\n        /* \"#utility.yul\":6773:6819   */\n      swap2\n      pop\n        /* \"#utility.yul\":6540:6825   */\n      pop\n        /* \"#utility.yul\":6448:6825   */\n      swap3\n      swap2\n      pop\n      pop\n      jump\t// out\n        /* \"#utility.yul\":6831:7475   */\n    tag_44:\n        /* \"#utility.yul\":7028:7032   */\n      0x00\n        /* \"#utility.yul\":7066:7069   */\n      0x80\n        /* \"#utility.yul\":7055:7064   */\n      dup3\n        /* \"#utility.yul\":7051:7070   */\n      add\n        /* \"#utility.yul\":7043:7070   */\n      swap1\n      pop\n        /* \"#utility.yul\":7080:7151   */\n      tag_460\n        /* \"#utility.yul\":7148:7149   */\n      0x00\n        /* \"#utility.yul\":7137:7146   */\n      dup4\n        /* \"#utility.yul\":7133:7150   */\n      add\n        /* \"#utility.yul\":7124:7130   */\n      dup8\n        /* \"#utility.yul\":7080:7151   */\n      tag_324\n      jump\t// in\n    tag_460:\n        /* \"#utility.yul\":7161:7233   */\n      tag_461\n        /* \"#utility.yul\":7229:7231   */\n      0x20\n        /* \"#utility.yul\":7218:7227   */\n      dup4\n        /* \"#utility.yul\":7214:7232   */\n      add\n        /* \"#utility.yul\":7205:7211   */\n      dup7\n        /* \"#utility.yul\":7161:7233   */\n      tag_324\n      jump\t// in\n    tag_461:\n        /* \"#utility.yul\":7280:7289   */\n      dup2\n        /* \"#utility.yul\":7274:7278   */\n      dup2\n        /* \"#utility.yul\":7270:7290   */\n      sub\n        /* \"#utility.yul\":7265:7267   */\n      0x40\n        /* \"#utility.yul\":7254:7263   */\n      dup4\n        /* \"#utility.yul\":7250:7268   */\n      add\n        /* \"#utility.yul\":7243:7291   */\n      mstore\n        /* \"#utility.yul\":7308:7386   */\n      tag_462\n        /* \"#utility.yul\":7381:7385   */\n      dup2\n        /* \"#utility.yul\":7372:7378   */\n      dup6\n        /* \"#utility.yul\":7308:7386   */\n      tag_329\n      jump\t// in\n    tag_462:\n        /* \"#utility.yul\":7300:7386   */\n      swap1\n      pop\n        /* \"#utility.yul\":7396:7468   */\n      tag_463\n        /* \"#utility.yul\":7464:7466   */\n      0x60\n        /* \"#utility.yul\":7453:7462   */\n      dup4\n        /* \"#utility.yul\":7449:7467   */\n      add\n        /* \"#utility.yul\":7440:7446   */\n      dup5\n        /* \"#utility.yul\":7396:7468   */\n      tag_324\n      jump\t// in\n    tag_463:\n        /* \"#utility.yul\":6831:7475   */\n      swap6\n      swap5\n      pop\n      pop\n      pop\n      pop\n      pop\n      jump\t// out\n        /* \"#utility.yul\":7481:7810   */\n    tag_55:\n        /* \"#utility.yul\":7540:7546   */\n      0x00\n        /* \"#utility.yul\":7589:7591   */\n      0x20\n        /* \"#utility.yul\":7577:7586   */\n      dup3\n        /* \"#utility.yul\":7568:7575   */\n      dup5\n        /* \"#utility.yul\":7564:7587   */\n      sub\n        /* \"#utility.yul\":7560:7592   */\n      slt\n        /* \"#utility.yul\":7557:7676   */\n      iszero\n      tag_465\n      jumpi\n        /* \"#utility.yul\":7595:7674   */\n      tag_466\n      tag_310\n      jump\t// in\n    tag_466:\n        /* \"#utility.yul\":7557:7676   */\n    tag_465:\n        /* \"#utility.yul\":7715:7716   */\n      0x00\n        /* \"#utility.yul\":7740:7793   */\n      tag_467\n        /* \"#utility.yul\":7785:7792   */\n      dup5\n        /* \"#utility.yul\":7776:7782   */\n      dup3\n        /* \"#utility.yul\":7765:7774   */\n      dup6\n        /* \"#utility.yul\":7761:7783   */\n      add\n        /* \"#utility.yul\":7740:7793   */\n      tag_318\n      jump\t// in\n    tag_467:\n        /* \"#utility.yul\":7730:7793   */\n      swap2\n      pop\n        /* \"#utility.yul\":7686:7803   */\n      pop\n        /* \"#utility.yul\":7481:7810   */\n      swap3\n      swap2\n      pop\n      pop\n      jump\t// out\n        /* \"#utility.yul\":7816:8038   */\n    tag_58:\n        /* \"#utility.yul\":7909:7913   */\n      0x00\n        /* \"#utility.yul\":7947:7949   */\n      0x20\n        /* \"#utility.yul\":7936:7945   */\n      dup3\n        /* \"#utility.yul\":7932:7950   */\n      add\n        /* \"#utility.yul\":7924:7950   */\n      swap1\n      pop\n        /* \"#utility.yul\":7960:8031   */\n      tag_469\n        /* \"#utility.yul\":8028:8029   */\n      0x00\n        /* \"#utility.yul\":8017:8026   */\n      dup4\n        /* \"#utility.yul\":8013:8030   */\n      add\n        /* \"#utility.yul\":8004:8010   */\n      dup5\n        /* \"#utility.yul\":7960:8031   */\n      tag_324\n      jump\t// in\n    tag_469:\n        /* \"#utility.yul\":7816:8038   */\n      swap3\n      swap2\n      pop\n      pop\n      jump\t// out\n        /* \"#utility.yul\":8044:8161   */\n    tag_330:\n        /* \"#utility.yul\":8153:8154   */\n      0x00\n        /* \"#utility.yul\":8150:8151   */\n      dup1\n        /* \"#utility.yul\":8143:8155   */\n      revert\n        /* \"#utility.yul\":8167:8347   */\n    tag_331:\n        /* \"#utility.yul\":8215:8292   */\n      0x4e487b7100000000000000000000000000000000000000000000000000000000\n        /* \"#utility.yul\":8212:8213   */\n      0x00\n        /* \"#utility.yul\":8205:8293   */\n      mstore\n        /* \"#utility.yul\":8312:8316   */\n      0x41\n        /* \"#utility.yul\":8309:8310   */\n      0x04\n        /* \"#utility.yul\":8302:8317   */\n      mstore\n        /* \"#utility.yul\":8336:8340   */\n      0x24\n        /* \"#utility.yul\":8333:8334   */\n      0x00\n        /* \"#utility.yul\":8326:8341   */\n      revert\n        /* \"#utility.yul\":8353:8634   */\n    tag_332:\n        /* \"#utility.yul\":8436:8463   */\n      tag_473\n        /* \"#utility.yul\":8458:8462   */\n      dup3\n        /* \"#utility.yul\":8436:8463   */\n      tag_328\n      jump\t// in\n    tag_473:\n        /* \"#utility.yul\":8428:8434   */\n      dup2\n        /* \"#utility.yul\":8424:8464   */\n      add\n        /* \"#utility.yul\":8566:8572   */\n      dup2\n        /* \"#utility.yul\":8554:8564   */\n      dup2\n        /* \"#utility.yul\":8551:8573   */\n      lt\n        /* \"#utility.yul\":8530:8548   */\n      0xffffffffffffffff\n        /* \"#utility.yul\":8518:8528   */\n      dup3\n        /* \"#utility.yul\":8515:8549   */\n      gt\n        /* \"#utility.yul\":8512:8574   */\n      or\n        /* \"#utility.yul\":8509:8597   */\n      iszero\n      tag_474\n      jumpi\n        /* \"#utility.yul\":8577:8595   */\n      tag_475\n      tag_331\n      jump\t// in\n    tag_475:\n        /* \"#utility.yul\":8509:8597   */\n    tag_474:\n        /* \"#utility.yul\":8617:8627   */\n      dup1\n        /* \"#utility.yul\":8613:8615   */\n      0x40\n        /* \"#utility.yul\":8606:8628   */\n      mstore\n        /* \"#utility.yul\":8396:8634   */\n      pop\n        /* \"#utility.yul\":8353:8634   */\n      pop\n      pop\n      jump\t// out\n        /* \"#utility.yul\":8640:8769   */\n    tag_333:\n        /* \"#utility.yul\":8674:8680   */\n      0x00\n        /* \"#utility.yul\":8701:8721   */\n      tag_477\n      tag_309\n      jump\t// in\n    tag_477:\n        /* \"#utility.yul\":8691:8721   */\n      swap1\n      pop\n        /* \"#utility.yul\":8730:8763   */\n      tag_478\n        /* \"#utility.yul\":8758:8762   */\n      dup3\n        /* \"#utility.yul\":8750:8756   */\n      dup3\n        /* \"#utility.yul\":8730:8763   */\n      tag_332\n      jump\t// in\n    tag_478:\n        /* \"#utility.yul\":8640:8769   */\n      swap2\n      swap1\n      pop\n      jump\t// out\n        /* \"#utility.yul\":8775:9083   */\n    tag_334:\n        /* \"#utility.yul\":8837:8841   */\n      0x00\n        /* \"#utility.yul\":8927:8945   */\n      0xffffffffffffffff\n        /* \"#utility.yul\":8919:8925   */\n      dup3\n        /* \"#utility.yul\":8916:8946   */\n      gt\n        /* \"#utility.yul\":8913:8969   */\n      iszero\n      tag_480\n      jumpi\n        /* \"#utility.yul\":8949:8967   */\n      tag_481\n      tag_331\n      jump\t// in\n    tag_481:\n        /* \"#utility.yul\":8913:8969   */\n    tag_480:\n        /* \"#utility.yul\":8987:9016   */\n      tag_482\n        /* \"#utility.yul\":9009:9015   */\n      dup3\n        /* \"#utility.yul\":8987:9016   */\n      tag_328\n      jump\t// in\n    tag_482:\n        /* \"#utility.yul\":8979:9016   */\n      swap1\n      pop\n        /* \"#utility.yul\":9071:9075   */\n      0x20\n        /* \"#utility.yul\":9065:9069   */\n      dup2\n        /* \"#utility.yul\":9061:9076   */\n      add\n        /* \"#utility.yul\":9053:9076   */\n      swap1\n      pop\n        /* \"#utility.yul\":8775:9083   */\n      swap2\n      swap1\n      pop\n      jump\t// out\n        /* \"#utility.yul\":9089:9235   */\n    tag_335:\n        /* \"#utility.yul\":9186:9192   */\n      dup3\n        /* \"#utility.yul\":9181:9184   */\n      dup2\n        /* \"#utility.yul\":9176:9179   */\n      dup4\n        /* \"#utility.yul\":9163:9193   */\n      calldatacopy\n        /* \"#utility.yul\":9227:9228   */\n      0x00\n        /* \"#utility.yul\":9218:9224   */\n      dup4\n        /* \"#utility.yul\":9213:9216   */\n      dup4\n        /* \"#utility.yul\":9209:9225   */\n      add\n        /* \"#utility.yul\":9202:9229   */\n      mstore\n        /* \"#utility.yul\":9089:9235   */\n      pop\n      pop\n      pop\n      jump\t// out\n        /* \"#utility.yul\":9241:9666   */\n    tag_336:\n        /* \"#utility.yul\":9319:9324   */\n      0x00\n        /* \"#utility.yul\":9344:9410   */\n      tag_485\n        /* \"#utility.yul\":9360:9409   */\n      tag_486\n        /* \"#utility.yul\":9402:9408   */\n      dup5\n        /* \"#utility.yul\":9360:9409   */\n      tag_334\n      jump\t// in\n    tag_486:\n        /* \"#utility.yul\":9344:9410   */\n      tag_333\n      jump\t// in\n    tag_485:\n        /* \"#utility.yul\":9335:9410   */\n      swap1\n      pop\n        /* \"#utility.yul\":9433:9439   */\n      dup3\n        /* \"#utility.yul\":9426:9431   */\n      dup2\n        /* \"#utility.yul\":9419:9440   */\n      mstore\n        /* \"#utility.yul\":9471:9475   */\n      0x20\n        /* \"#utility.yul\":9464:9469   */\n      dup2\n        /* \"#utility.yul\":9460:9476   */\n      add\n        /* \"#utility.yul\":9509:9512   */\n      dup5\n        /* \"#utility.yul\":9500:9506   */\n      dup5\n        /* \"#utility.yul\":9495:9498   */\n      dup5\n        /* \"#utility.yul\":9491:9507   */\n      add\n        /* \"#utility.yul\":9488:9513   */\n      gt\n        /* \"#utility.yul\":9485:9597   */\n      iszero\n      tag_487\n      jumpi\n        /* \"#utility.yul\":9516:9595   */\n      tag_488\n      tag_330\n      jump\t// in\n    tag_488:\n        /* \"#utility.yul\":9485:9597   */\n    tag_487:\n        /* \"#utility.yul\":9606:9660   */\n      tag_489\n        /* \"#utility.yul\":9653:9659   */\n      dup5\n        /* \"#utility.yul\":9648:9651   */\n      dup3\n        /* \"#utility.yul\":9643:9646   */\n      dup6\n        /* \"#utility.yul\":9606:9660   */\n      tag_335\n      jump\t// in\n    tag_489:\n        /* \"#utility.yul\":9325:9666   */\n      pop\n        /* \"#utility.yul\":9241:9666   */\n      swap4\n      swap3\n      pop\n      pop\n      pop\n      jump\t// out\n        /* \"#utility.yul\":9686:10026   */\n    tag_337:\n        /* \"#utility.yul\":9742:9747   */\n      0x00\n        /* \"#utility.yul\":9791:9794   */\n      dup3\n        /* \"#utility.yul\":9784:9788   */\n      0x1f\n        /* \"#utility.yul\":9776:9782   */\n      dup4\n        /* \"#utility.yul\":9772:9789   */\n      add\n        /* \"#utility.yul\":9768:9795   */\n      slt\n        /* \"#utility.yul\":9758:9880   */\n      tag_491\n      jumpi\n        /* \"#utility.yul\":9799:9878   */\n      tag_492\n      tag_319\n      jump\t// in\n    tag_492:\n        /* \"#utility.yul\":9758:9880   */\n    tag_491:\n        /* \"#utility.yul\":9916:9922   */\n      dup2\n        /* \"#utility.yul\":9903:9923   */\n      calldataload\n        /* \"#utility.yul\":9941:10020   */\n      tag_493\n        /* \"#utility.yul\":10016:10019   */\n      dup5\n        /* \"#utility.yul\":10008:10014   */\n      dup3\n        /* \"#utility.yul\":10001:10005   */\n      0x20\n        /* \"#utility.yul\":9993:9999   */\n      dup7\n        /* \"#utility.yul\":9989:10006   */\n      add\n        /* \"#utility.yul\":9941:10020   */\n      tag_336\n      jump\t// in\n    tag_493:\n        /* \"#utility.yul\":9932:10020   */\n      swap2\n      pop\n        /* \"#utility.yul\":9748:10026   */\n      pop\n        /* \"#utility.yul\":9686:10026   */\n      swap3\n      swap2\n      pop\n      pop\n      jump\t// out\n        /* \"#utility.yul\":10032:10977   */\n    tag_65:\n        /* \"#utility.yul\":10128:10134   */\n      0x00\n        /* \"#utility.yul\":10136:10142   */\n      dup1\n        /* \"#utility.yul\":10144:10150   */\n      0x00\n        /* \"#utility.yul\":10152:10158   */\n      dup1\n        /* \"#utility.yul\":10201:10204   */\n      0x80\n        /* \"#utility.yul\":10189:10198   */\n      dup6\n        /* \"#utility.yul\":10180:10187   */\n      dup8\n        /* \"#utility.yul\":10176:10199   */\n      sub\n        /* \"#utility.yul\":10172:10205   */\n      slt\n        /* \"#utility.yul\":10169:10289   */\n      iszero\n      tag_495\n      jumpi\n        /* \"#utility.yul\":10208:10287   */\n      tag_496\n      tag_310\n      jump\t// in\n    tag_496:\n        /* \"#utility.yul\":10169:10289   */\n    tag_495:\n        /* \"#utility.yul\":10328:10329   */\n      0x00\n        /* \"#utility.yul\":10353:10406   */\n      tag_497\n        /* \"#utility.yul\":10398:10405   */\n      dup8\n        /* \"#utility.yul\":10389:10395   */\n      dup3\n        /* \"#utility.yul\":10378:10387   */\n      dup9\n        /* \"#utility.yul\":10374:10396   */\n      add\n        /* \"#utility.yul\":10353:10406   */\n      tag_315\n      jump\t// in\n    tag_497:\n        /* \"#utility.yul\":10343:10406   */\n      swap5\n      pop\n        /* \"#utility.yul\":10299:10416   */\n      pop\n        /* \"#utility.yul\":10455:10457   */\n      0x20\n        /* \"#utility.yul\":10481:10534   */\n      tag_498\n        /* \"#utility.yul\":10526:10533   */\n      dup8\n        /* \"#utility.yul\":10517:10523   */\n      dup3\n        /* \"#utility.yul\":10506:10515   */\n      dup9\n        /* \"#utility.yul\":10502:10524   */\n      add\n        /* \"#utility.yul\":10481:10534   */\n      tag_318\n      jump\t// in\n    tag_498:\n        /* \"#utility.yul\":10471:10534   */\n      swap4\n      pop\n        /* \"#utility.yul\":10426:10544   */\n      pop\n        /* \"#utility.yul\":10583:10585   */\n      0x40\n        /* \"#utility.yul\":10609:10662   */\n      tag_499\n        /* \"#utility.yul\":10654:10661   */\n      dup8\n        /* \"#utility.yul\":10645:10651   */\n      dup3\n        /* \"#utility.yul\":10634:10643   */\n      dup9\n        /* \"#utility.yul\":10630:10652   */\n      add\n        /* \"#utility.yul\":10609:10662   */\n      tag_318\n      jump\t// in\n    tag_499:\n        /* \"#utility.yul\":10599:10662   */\n      swap3\n      pop\n        /* \"#utility.yul\":10554:10672   */\n      pop\n        /* \"#utility.yul\":10739:10741   */\n      0x60\n        /* \"#utility.yul\":10728:10737   */\n      dup6\n        /* \"#utility.yul\":10724:10742   */\n      add\n        /* \"#utility.yul\":10711:10743   */\n      calldataload\n        /* \"#utility.yul\":10770:10788   */\n      0xffffffffffffffff\n        /* \"#utility.yul\":10762:10768   */\n      dup2\n        /* \"#utility.yul\":10759:10789   */\n      gt\n        /* \"#utility.yul\":10756:10873   */\n      iszero\n      tag_500\n      jumpi\n        /* \"#utility.yul\":10792:10871   */\n      tag_501\n      tag_311\n      jump\t// in\n    tag_501:\n        /* \"#utility.yul\":10756:10873   */\n    tag_500:\n        /* \"#utility.yul\":10897:10960   */\n      tag_502\n        /* \"#utility.yul\":10952:10959   */\n      dup8\n        /* \"#utility.yul\":10943:10949   */\n      dup3\n        /* \"#utility.yul\":10932:10941   */\n      dup9\n        /* \"#utility.yul\":10928:10950   */\n      add\n        /* \"#utility.yul\":10897:10960   */\n      tag_337\n      jump\t// in\n    tag_502:\n        /* \"#utility.yul\":10887:10960   */\n      swap2\n      pop\n        /* \"#utility.yul\":10682:10970   */\n      pop\n        /* \"#utility.yul\":10032:10977   */\n      swap3\n      swap6\n      swap2\n      swap5\n      pop\n      swap3\n      pop\n      jump\t// out\n        /* \"#utility.yul\":10983:11637   */\n    tag_70:\n        /* \"#utility.yul\":11061:11067   */\n      0x00\n        /* \"#utility.yul\":11069:11075   */\n      dup1\n        /* \"#utility.yul\":11118:11120   */\n      0x40\n        /* \"#utility.yul\":11106:11115   */\n      dup4\n        /* \"#utility.yul\":11097:11104   */\n      dup6\n        /* \"#utility.yul\":11093:11116   */\n      sub\n        /* \"#utility.yul\":11089:11121   */\n      slt\n        /* \"#utility.yul\":11086:11205   */\n      iszero\n      tag_504\n      jumpi\n        /* \"#utility.yul\":11124:11203   */\n      tag_505\n      tag_310\n      jump\t// in\n    tag_505:\n        /* \"#utility.yul\":11086:11205   */\n    tag_504:\n        /* \"#utility.yul\":11272:11273   */\n      0x00\n        /* \"#utility.yul\":11261:11270   */\n      dup4\n        /* \"#utility.yul\":11257:11274   */\n      add\n        /* \"#utility.yul\":11244:11275   */\n      calldataload\n        /* \"#utility.yul\":11302:11320   */\n      0xffffffffffffffff\n        /* \"#utility.yul\":11294:11300   */\n      dup2\n        /* \"#utility.yul\":11291:11321   */\n      gt\n        /* \"#utility.yul\":11288:11405   */\n      iszero\n      tag_506\n      jumpi\n        /* \"#utility.yul\":11324:11403   */\n      tag_507\n      tag_311\n      jump\t// in\n    tag_507:\n        /* \"#utility.yul\":11288:11405   */\n    tag_506:\n        /* \"#utility.yul\":11429:11492   */\n      tag_508\n        /* \"#utility.yul\":11484:11491   */\n      dup6\n        /* \"#utility.yul\":11475:11481   */\n      dup3\n        /* \"#utility.yul\":11464:11473   */\n      dup7\n        /* \"#utility.yul\":11460:11482   */\n      add\n        /* \"#utility.yul\":11429:11492   */\n      tag_337\n      jump\t// in\n    tag_508:\n        /* \"#utility.yul\":11419:11492   */\n      swap3\n      pop\n        /* \"#utility.yul\":11215:11502   */\n      pop\n        /* \"#utility.yul\":11541:11543   */\n      0x20\n        /* \"#utility.yul\":11567:11620   */\n      tag_509\n        /* \"#utility.yul\":11612:11619   */\n      dup6\n        /* \"#utility.yul\":11603:11609   */\n      dup3\n        /* \"#utility.yul\":11592:11601   */\n      dup7\n        /* \"#utility.yul\":11588:11610   */\n      add\n        /* \"#utility.yul\":11567:11620   */\n      tag_315\n      jump\t// in\n    tag_509:\n        /* \"#utility.yul\":11557:11620   */\n      swap2\n      pop\n        /* \"#utility.yul\":11512:11630   */\n      pop\n        /* \"#utility.yul\":10983:11637   */\n      swap3\n      pop\n      swap3\n      swap1\n      pop\n      jump\t// out\n        /* \"#utility.yul\":11643:11972   */\n    tag_75:\n        /* \"#utility.yul\":11702:11708   */\n      0x00\n        /* \"#utility.yul\":11751:11753   */\n      0x20\n        /* \"#utility.yul\":11739:11748   */\n      dup3\n        /* \"#utility.yul\":11730:11737   */\n      dup5\n        /* \"#utility.yul\":11726:11749   */\n      sub\n        /* \"#utility.yul\":11722:11754   */\n      slt\n        /* \"#utility.yul\":11719:11838   */\n      iszero\n      tag_511\n      jumpi\n        /* \"#utility.yul\":11757:11836   */\n      tag_512\n      tag_310\n      jump\t// in\n    tag_512:\n        /* \"#utility.yul\":11719:11838   */\n    tag_511:\n        /* \"#utility.yul\":11877:11878   */\n      0x00\n        /* \"#utility.yul\":11902:11955   */\n      tag_513\n        /* \"#utility.yul\":11947:11954   */\n      dup5\n        /* \"#utility.yul\":11938:11944   */\n      dup3\n        /* \"#utility.yul\":11927:11936   */\n      dup6\n        /* \"#utility.yul\":11923:11945   */\n      add\n        /* \"#utility.yul\":11902:11955   */\n      tag_315\n      jump\t// in\n    tag_513:\n        /* \"#utility.yul\":11892:11955   */\n      swap2\n      pop\n        /* \"#utility.yul\":11848:11965   */\n      pop\n        /* \"#utility.yul\":11643:11972   */\n      swap3\n      swap2\n      pop\n      pop\n      jump\t// out\n        /* \"#utility.yul\":11978:12158   */\n    tag_92:\n        /* \"#utility.yul\":12026:12103   */\n      0x4e487b7100000000000000000000000000000000000000000000000000000000\n        /* \"#utility.yul\":12023:12024   */\n      0x00\n        /* \"#utility.yul\":12016:12104   */\n      mstore\n        /* \"#utility.yul\":12123:12127   */\n      0x21\n        /* \"#utility.yul\":12120:12121   */\n      0x04\n        /* \"#utility.yul\":12113:12128   */\n      mstore\n        /* \"#utility.yul\":12147:12151   */\n      0x24\n        /* \"#utility.yul\":12144:12145   */\n      0x00\n        /* \"#utility.yul\":12137:12152   */\n      revert\n        /* \"#utility.yul\":12164:12275   */\n    tag_338:\n        /* \"#utility.yul\":12243:12244   */\n      0x03\n        /* \"#utility.yul\":12236:12241   */\n      dup2\n        /* \"#utility.yul\":12233:12245   */\n      lt\n        /* \"#utility.yul\":12223:12269   */\n      tag_516\n      jumpi\n        /* \"#utility.yul\":12249:12267   */\n      tag_517\n      tag_92\n      jump\t// in\n    tag_517:\n        /* \"#utility.yul\":12223:12269   */\n    tag_516:\n        /* \"#utility.yul\":12164:12275   */\n      pop\n      jump\t// out\n        /* \"#utility.yul\":12281:12404   */\n    tag_339:\n        /* \"#utility.yul\":12324:12331   */\n      0x00\n        /* \"#utility.yul\":12353:12358   */\n      dup2\n        /* \"#utility.yul\":12342:12358   */\n      swap1\n      pop\n        /* \"#utility.yul\":12359:12398   */\n      tag_519\n        /* \"#utility.yul\":12392:12397   */\n      dup3\n        /* \"#utility.yul\":12359:12398   */\n      tag_338\n      jump\t// in\n    tag_519:\n        /* \"#utility.yul\":12281:12404   */\n      swap2\n      swap1\n      pop\n      jump\t// out\n        /* \"#utility.yul\":12410:12533   */\n    tag_340:\n        /* \"#utility.yul\":12464:12473   */\n      0x00\n        /* \"#utility.yul\":12497:12527   */\n      tag_521\n        /* \"#utility.yul\":12521:12526   */\n      dup3\n        /* \"#utility.yul\":12497:12527   */\n      tag_339\n      jump\t// in\n    tag_521:\n        /* \"#utility.yul\":12484:12527   */\n      swap1\n      pop\n        /* \"#utility.yul\":12410:12533   */\n      swap2\n      swap1\n      pop\n      jump\t// out\n        /* \"#utility.yul\":12539:12678   */\n    tag_341:\n        /* \"#utility.yul\":12630:12671   */\n      tag_523\n        /* \"#utility.yul\":12665:12670   */\n      dup2\n        /* \"#utility.yul\":12630:12671   */\n      tag_340\n      jump\t// in\n    tag_523:\n        /* \"#utility.yul\":12625:12628   */\n      dup3\n        /* \"#utility.yul\":12618:12672   */\n      mstore\n        /* \"#utility.yul\":12539:12678   */\n      pop\n      pop\n      jump\t// out\n        /* \"#utility.yul\":12684:13024   */\n    tag_78:\n        /* \"#utility.yul\":12809:12813   */\n      0x00\n        /* \"#utility.yul\":12847:12849   */\n      0x40\n        /* \"#utility.yul\":12836:12845   */\n      dup3\n        /* \"#utility.yul\":12832:12850   */\n      add\n        /* \"#utility.yul\":12824:12850   */\n      swap1\n      pop\n        /* \"#utility.yul\":12860:12935   */\n      tag_525\n        /* \"#utility.yul\":12932:12933   */\n      0x00\n        /* \"#utility.yul\":12921:12930   */\n      dup4\n        /* \"#utility.yul\":12917:12934   */\n      add\n        /* \"#utility.yul\":12908:12914   */\n      dup6\n        /* \"#utility.yul\":12860:12935   */\n      tag_341\n      jump\t// in\n    tag_525:\n        /* \"#utility.yul\":12945:13017   */\n      tag_526\n        /* \"#utility.yul\":13013:13015   */\n      0x20\n        /* \"#utility.yul\":13002:13011   */\n      dup4\n        /* \"#utility.yul\":12998:13016   */\n      add\n        /* \"#utility.yul\":12989:12995   */\n      dup5\n        /* \"#utility.yul\":12945:13017   */\n      tag_324\n      jump\t// in\n    tag_526:\n        /* \"#utility.yul\":12684:13024   */\n      swap4\n      swap3\n      pop\n      pop\n      pop\n      jump\t// out\n        /* \"#utility.yul\":13030:13539   */\n    tag_82:\n        /* \"#utility.yul\":13099:13105   */\n      0x00\n        /* \"#utility.yul\":13148:13150   */\n      0x20\n        /* \"#utility.yul\":13136:13145   */\n      dup3\n        /* \"#utility.yul\":13127:13134   */\n      dup5\n        /* \"#utility.yul\":13123:13146   */\n      sub\n        /* \"#utility.yul\":13119:13151   */\n      slt\n        /* \"#utility.yul\":13116:13235   */\n      iszero\n      tag_528\n      jumpi\n        /* \"#utility.yul\":13154:13233   */\n      tag_529\n      tag_310\n      jump\t// in\n    tag_529:\n        /* \"#utility.yul\":13116:13235   */\n    tag_528:\n        /* \"#utility.yul\":13302:13303   */\n      0x00\n        /* \"#utility.yul\":13291:13300   */\n      dup3\n        /* \"#utility.yul\":13287:13304   */\n      add\n        /* \"#utility.yul\":13274:13305   */\n      calldataload\n        /* \"#utility.yul\":13332:13350   */\n      0xffffffffffffffff\n        /* \"#utility.yul\":13324:13330   */\n      dup2\n        /* \"#utility.yul\":13321:13351   */\n      gt\n        /* \"#utility.yul\":13318:13435   */\n      iszero\n      tag_530\n      jumpi\n        /* \"#utility.yul\":13354:13433   */\n      tag_531\n      tag_311\n      jump\t// in\n    tag_531:\n        /* \"#utility.yul\":13318:13435   */\n    tag_530:\n        /* \"#utility.yul\":13459:13522   */\n      tag_532\n        /* \"#utility.yul\":13514:13521   */\n      dup5\n        /* \"#utility.yul\":13505:13511   */\n      dup3\n        /* \"#utility.yul\":13494:13503   */\n      dup6\n        /* \"#utility.yul\":13490:13512   */\n      add\n        /* \"#utility.yul\":13459:13522   */\n      tag_337\n      jump\t// in\n    tag_532:\n        /* \"#utility.yul\":13449:13522   */\n      swap2\n      pop\n        /* \"#utility.yul\":13245:13532   */\n      pop\n        /* \"#utility.yul\":13030:13539   */\n      swap3\n      swap2\n      pop\n      pop\n      jump\t// out\n        /* \"#utility.yul\":13545:13659   */\n    tag_342:\n      pop\n      jump\t// out\n        /* \"#utility.yul\":13665:14029   */\n    tag_343:\n        /* \"#utility.yul\":13807:13810   */\n      0x00\n        /* \"#utility.yul\":13828:13894   */\n      tag_535\n        /* \"#utility.yul\":13892:13893   */\n      0x00\n        /* \"#utility.yul\":13887:13890   */\n      dup4\n        /* \"#utility.yul\":13828:13894   */\n      tag_326\n      jump\t// in\n    tag_535:\n        /* \"#utility.yul\":13821:13894   */\n      swap2\n      pop\n        /* \"#utility.yul\":13903:13996   */\n      tag_536\n        /* \"#utility.yul\":13992:13995   */\n      dup3\n        /* \"#utility.yul\":13903:13996   */\n      tag_342\n      jump\t// in\n    tag_536:\n        /* \"#utility.yul\":14021:14022   */\n      0x00\n        /* \"#utility.yul\":14016:14019   */\n      dup3\n        /* \"#utility.yul\":14012:14023   */\n      add\n        /* \"#utility.yul\":14005:14023   */\n      swap1\n      pop\n        /* \"#utility.yul\":13665:14029   */\n      swap2\n      swap1\n      pop\n      jump\t// out\n        /* \"#utility.yul\":14035:14454   */\n    tag_97:\n        /* \"#utility.yul\":14201:14205   */\n      0x00\n        /* \"#utility.yul\":14239:14241   */\n      0x20\n        /* \"#utility.yul\":14228:14237   */\n      dup3\n        /* \"#utility.yul\":14224:14242   */\n      add\n        /* \"#utility.yul\":14216:14242   */\n      swap1\n      pop\n        /* \"#utility.yul\":14288:14297   */\n      dup2\n        /* \"#utility.yul\":14282:14286   */\n      dup2\n        /* \"#utility.yul\":14278:14298   */\n      sub\n        /* \"#utility.yul\":14274:14275   */\n      0x00\n        /* \"#utility.yul\":14263:14272   */\n      dup4\n        /* \"#utility.yul\":14259:14276   */\n      add\n        /* \"#utility.yul\":14252:14299   */\n      mstore\n        /* \"#utility.yul\":14316:14447   */\n      tag_538\n        /* \"#utility.yul\":14442:14446   */\n      dup2\n        /* \"#utility.yul\":14316:14447   */\n      tag_343\n      jump\t// in\n    tag_538:\n        /* \"#utility.yul\":14308:14447   */\n      swap1\n      pop\n        /* \"#utility.yul\":14035:14454   */\n      swap2\n      swap1\n      pop\n      jump\t// out\n        /* \"#utility.yul\":14460:14876   */\n    tag_344:\n        /* \"#utility.yul\":14600:14666   */\n      0xd09cd0b0d0b3d0b0d0b7d0b8d0bd20d0bdd0b520d181d0bed0bed182d0b2d0b5\n        /* \"#utility.yul\":14596:14597   */\n      0x00\n        /* \"#utility.yul\":14588:14594   */\n      dup3\n        /* \"#utility.yul\":14584:14598   */\n      add\n        /* \"#utility.yul\":14577:14667   */\n      mstore\n        /* \"#utility.yul\":14701:14767   */\n      0xd182d181d0b2d183d0b5d18220d0bed182d0bfd180d0b0d0b2d0b8d182d0b5d0\n        /* \"#utility.yul\":14696:14698   */\n      0x20\n        /* \"#utility.yul\":14688:14694   */\n      dup3\n        /* \"#utility.yul\":14684:14699   */\n      add\n        /* \"#utility.yul\":14677:14768   */\n      mstore\n        /* \"#utility.yul\":14802:14868   */\n      0xbbd18e0000000000000000000000000000000000000000000000000000000000\n        /* \"#utility.yul\":14797:14799   */\n      0x40\n        /* \"#utility.yul\":14789:14795   */\n      dup3\n        /* \"#utility.yul\":14785:14800   */\n      add\n        /* \"#utility.yul\":14778:14869   */\n      mstore\n        /* \"#utility.yul\":14460:14876   */\n      pop\n      jump\t// out\n        /* \"#utility.yul\":14882:15248   */\n    tag_345:\n        /* \"#utility.yul\":15024:15027   */\n      0x00\n        /* \"#utility.yul\":15045:15112   */\n      tag_541\n        /* \"#utility.yul\":15109:15111   */\n      0x43\n        /* \"#utility.yul\":15104:15107   */\n      dup4\n        /* \"#utility.yul\":15045:15112   */\n      tag_326\n      jump\t// in\n    tag_541:\n        /* \"#utility.yul\":15038:15112   */\n      swap2\n      pop\n        /* \"#utility.yul\":15121:15214   */\n      tag_542\n        /* \"#utility.yul\":15210:15213   */\n      dup3\n        /* \"#utility.yul\":15121:15214   */\n      tag_344\n      jump\t// in\n    tag_542:\n        /* \"#utility.yul\":15239:15241   */\n      0x60\n        /* \"#utility.yul\":15234:15237   */\n      dup3\n        /* \"#utility.yul\":15230:15242   */\n      add\n        /* \"#utility.yul\":15223:15242   */\n      swap1\n      pop\n        /* \"#utility.yul\":14882:15248   */\n      swap2\n      swap1\n      pop\n      jump\t// out\n        /* \"#utility.yul\":15254:15673   */\n    tag_100:\n        /* \"#utility.yul\":15420:15424   */\n      0x00\n        /* \"#utility.yul\":15458:15460   */\n      0x20\n        /* \"#utility.yul\":15447:15456   */\n      dup3\n        /* \"#utility.yul\":15443:15461   */\n      add\n        /* \"#utility.yul\":15435:15461   */\n      swap1\n      pop\n        /* \"#utility.yul\":15507:15516   */\n      dup2\n        /* \"#utility.yul\":15501:15505   */\n      dup2\n        /* \"#utility.yul\":15497:15517   */\n      sub\n        /* \"#utility.yul\":15493:15494   */\n      0x00\n        /* \"#utility.yul\":15482:15491   */\n      dup4\n        /* \"#utility.yul\":15478:15495   */\n      add\n        /* \"#utility.yul\":15471:15518   */\n      mstore\n        /* \"#utility.yul\":15535:15666   */\n      tag_544\n        /* \"#utility.yul\":15661:15665   */\n      dup2\n        /* \"#utility.yul\":15535:15666   */\n      tag_345\n      jump\t// in\n    tag_544:\n        /* \"#utility.yul\":15527:15666   */\n      swap1\n      pop\n        /* \"#utility.yul\":15254:15673   */\n      swap2\n      swap1\n      pop\n      jump\t// out\n        /* \"#utility.yul\":15679:15859   */\n    tag_346:\n        /* \"#utility.yul\":15727:15804   */\n      0x4e487b7100000000000000000000000000000000000000000000000000000000\n        /* \"#utility.yul\":15724:15725   */\n      0x00\n        /* \"#utility.yul\":15717:15805   */\n      mstore\n        /* \"#utility.yul\":15824:15828   */\n      0x22\n        /* \"#utility.yul\":15821:15822   */\n      0x04\n        /* \"#utility.yul\":15814:15829   */\n      mstore\n        /* \"#utility.yul\":15848:15852   */\n      0x24\n        /* \"#utility.yul\":15845:15846   */\n      0x00\n        /* \"#utility.yul\":15838:15853   */\n      revert\n        /* \"#utility.yul\":15865:16185   */\n    tag_126:\n        /* \"#utility.yul\":15909:15915   */\n      0x00\n        /* \"#utility.yul\":15946:15947   */\n      0x02\n        /* \"#utility.yul\":15940:15944   */\n      dup3\n        /* \"#utility.yul\":15936:15948   */\n      div\n        /* \"#utility.yul\":15926:15948   */\n      swap1\n      pop\n        /* \"#utility.yul\":15993:15994   */\n      0x01\n        /* \"#utility.yul\":15987:15991   */\n      dup3\n        /* \"#utility.yul\":15983:15995   */\n      and\n        /* \"#utility.yul\":16014:16032   */\n      dup1\n        /* \"#utility.yul\":16004:16085   */\n      tag_547\n      jumpi\n        /* \"#utility.yul\":16070:16074   */\n      0x7f\n        /* \"#utility.yul\":16062:16068   */\n      dup3\n        /* \"#utility.yul\":16058:16075   */\n      and\n        /* \"#utility.yul\":16048:16075   */\n      swap2\n      pop\n        /* \"#utility.yul\":16004:16085   */\n    tag_547:\n        /* \"#utility.yul\":16132:16134   */\n      0x20\n        /* \"#utility.yul\":16124:16130   */\n      dup3\n        /* \"#utility.yul\":16121:16135   */\n      lt\n        /* \"#utility.yul\":16101:16119   */\n      dup2\n        /* \"#utility.yul\":16098:16136   */\n      sub\n        /* \"#utility.yul\":16095:16179   */\n      tag_548\n      jumpi\n        /* \"#utility.yul\":16151:16169   */\n      tag_549\n      tag_346\n      jump\t// in\n    tag_549:\n        /* \"#utility.yul\":16095:16179   */\n    tag_548:\n        /* \"#utility.yul\":15916:16185   */\n      pop\n        /* \"#utility.yul\":15865:16185   */\n      swap2\n      swap1\n      pop\n      jump\t// out\n        /* \"#utility.yul\":16191:16332   */\n    tag_347:\n        /* \"#utility.yul\":16240:16244   */\n      0x00\n        /* \"#utility.yul\":16263:16266   */\n      dup2\n        /* \"#utility.yul\":16255:16266   */\n      swap1\n      pop\n        /* \"#utility.yul\":16286:16289   */\n      dup2\n        /* \"#utility.yul\":16283:16284   */\n      0x00\n        /* \"#utility.yul\":16276:16290   */\n      mstore\n        /* \"#utility.yul\":16320:16324   */\n      0x20\n        /* \"#utility.yul\":16317:16318   */\n      0x00\n        /* \"#utility.yul\":16307:16325   */\n      keccak256\n        /* \"#utility.yul\":16299:16325   */\n      swap1\n      pop\n        /* \"#utility.yul\":16191:16332   */\n      swap2\n      swap1\n      pop\n      jump\t// out\n        /* \"#utility.yul\":16338:16431   */\n    tag_348:\n        /* \"#utility.yul\":16375:16381   */\n      0x00\n        /* \"#utility.yul\":16422:16424   */\n      0x20\n        /* \"#utility.yul\":16417:16419   */\n      0x1f\n        /* \"#utility.yul\":16410:16415   */\n      dup4\n        /* \"#utility.yul\":16406:16420   */\n      add\n        /* \"#utility.yul\":16402:16425   */\n      div\n        /* \"#utility.yul\":16392:16425   */\n      swap1\n      pop\n        /* \"#utility.yul\":16338:16431   */\n      swap2\n      swap1\n      pop\n      jump\t// out\n        /* \"#utility.yul\":16437:16544   */\n    tag_349:\n        /* \"#utility.yul\":16481:16489   */\n      0x00\n        /* \"#utility.yul\":16531:16536   */\n      dup3\n        /* \"#utility.yul\":16525:16529   */\n      dup3\n        /* \"#utility.yul\":16521:16537   */\n      shl\n        /* \"#utility.yul\":16500:16537   */\n      swap1\n      pop\n        /* \"#utility.yul\":16437:16544   */\n      swap3\n      swap2\n      pop\n      pop\n      jump\t// out\n        /* \"#utility.yul\":16550:16943   */\n    tag_350:\n        /* \"#utility.yul\":16619:16625   */\n      0x00\n        /* \"#utility.yul\":16669:16670   */\n      0x08\n        /* \"#utility.yul\":16657:16667   */\n      dup4\n        /* \"#utility.yul\":16653:16671   */\n      mul\n        /* \"#utility.yul\":16692:16789   */\n      tag_554\n        /* \"#utility.yul\":16722:16788   */\n      0xffffffffffffffffffffffffffffffffffffffffffffffffffffffffffffffff\n        /* \"#utility.yul\":16711:16720   */\n      dup3\n        /* \"#utility.yul\":16692:16789   */\n      tag_349\n      jump\t// in\n    tag_554:\n        /* \"#utility.yul\":16810:16849   */\n      tag_555\n        /* \"#utility.yul\":16840:16848   */\n      dup7\n        /* \"#utility.yul\":16829:16838   */\n      dup4\n        /* \"#utility.yul\":16810:16849   */\n      tag_349\n      jump\t// in\n    tag_555:\n        /* \"#utility.yul\":16798:16849   */\n      swap6\n      pop\n        /* \"#utility.yul\":16882:16886   */\n      dup1\n        /* \"#utility.yul\":16878:16887   */\n      not\n        /* \"#utility.yul\":16871:16876   */\n      dup5\n        /* \"#utility.yul\":16867:16888   */\n      and\n        /* \"#utility.yul\":16858:16888   */\n      swap4\n      pop\n        /* \"#utility.yul\":16931:16935   */\n      dup1\n        /* \"#utility.yul\":16921:16929   */\n      dup7\n        /* \"#utility.yul\":16917:16936   */\n      and\n        /* \"#utility.yul\":16910:16915   */\n      dup5\n        /* \"#utility.yul\":16907:16937   */\n      or\n        /* \"#utility.yul\":16897:16937   */\n      swap3\n      pop\n        /* \"#utility.yul\":16626:16943   */\n      pop\n      pop\n        /* \"#utility.yul\":16550:16943   */\n      swap4\n      swap3\n      pop\n      pop\n      pop\n      jump\t// out\n        /* \"#utility.yul\":16949:17009   */\n    tag_351:\n        /* \"#utility.yul\":16977:16980   */\n      0x00\n        /* \"#utility.yul\":16998:17003   */\n      dup2\n        /* \"#utility.yul\":16991:17003   */\n      swap1\n      pop\n        /* \"#utility.yul\":16949:17009   */\n      swap2\n      swap1\n      pop\n      jump\t// out\n        /* \"#utility.yul\":17015:17157   */\n    tag_352:\n        /* \"#utility.yul\":17065:17074   */\n      0x00\n        /* \"#utility.yul\":17098:17151   */\n      tag_558\n        /* \"#utility.yul\":17116:17150   */\n      tag_559\n        /* \"#utility.yul\":17125:17149   */\n      tag_560\n        /* \"#utility.yul\":17143:17148   */\n      dup5\n        /* \"#utility.yul\":17125:17149   */\n      tag_316\n      jump\t// in\n    tag_560:\n        /* \"#utility.yul\":17116:17150   */\n      tag_351\n      jump\t// in\n    tag_559:\n        /* \"#utility.yul\":17098:17151   */\n      tag_316\n      jump\t// in\n    tag_558:\n        /* \"#utility.yul\":17085:17151   */\n      swap1\n      pop\n        /* \"#utility.yul\":17015:17157   */\n      swap2\n      swap1\n      pop\n      jump\t// out\n        /* \"#utility.yul\":17163:17238   */\n    tag_353:\n        /* \"#utility.yul\":17206:17209   */\n      0x00\n        /* \"#utility.yul\":17227:17232   */\n      dup2\n        /* \"#utility.yul\":17220:17232   */\n      swap1\n      pop\n        /* \"#utility.yul\":17163:17238   */\n      swap2\n      swap1\n      pop\n      jump\t// out\n        /* \"#utility.yul\":17244:17513   */\n    tag_354:\n        /* \"#utility.yul\":17354:17393   */\n      tag_563\n        /* \"#utility.yul\":17385:17392   */\n      dup4\n        /* \"#utility.yul\":17354:17393   */\n      tag_352\n      jump\t// in\n    tag_563:\n        /* \"#utility.yul\":17415:17506   */\n      tag_564\n        /* \"#utility.yul\":17464:17505   */\n      tag_565\n        /* \"#utility.yul\":17488:17504   */\n      dup3\n        /* \"#utility.yul\":17464:17505   */\n      tag_353\n      jump\t// in\n    tag_565:\n        /* \"#utility.yul\":17456:17462   */\n      dup5\n        /* \"#utility.yul\":17449:17453   */\n      dup5\n        /* \"#utility.yul\":17443:17454   */\n      sload\n        /* \"#utility.yul\":17415:17506   */\n      tag_350\n      jump\t// in\n    tag_564:\n        /* \"#utility.yul\":17409:17413   */\n      dup3\n        /* \"#utility.yul\":17402:17507   */\n      sstore\n        /* \"#utility.yul\":17320:17513   */\n      pop\n        /* \"#utility.yul\":17244:17513   */\n      pop\n      pop\n      pop\n      jump\t// out\n        /* \"#utility.yul\":17519:17592   */\n    tag_355:\n        /* \"#utility.yul\":17564:17567   */\n      0x00\n        /* \"#utility.yul\":17519:17592   */\n      swap1\n      jump\t// out\n        /* \"#utility.yul\":17598:17787   */\n    tag_356:\n        /* \"#utility.yul\":17675:17707   */\n      tag_568\n      tag_355\n      jump\t// in\n    tag_568:\n        /* \"#utility.yul\":17716:17781   */\n      tag_569\n        /* \"#utility.yul\":17774:17780   */\n      dup2\n        /* \"#utility.yul\":17766:17772   */\n      dup5\n        /* \"#utility.yul\":17760:17764   */\n      dup5\n        /* \"#utility.yul\":17716:17781   */\n      tag_354\n      jump\t// in\n    tag_569:\n        /* \"#utility.yul\":17651:17787   */\n      pop\n        /* \"#utility.yul\":17598:17787   */\n      pop\n      pop\n      jump\t// out\n        /* \"#utility.yul\":17793:17979   */\n    tag_357:\n        /* \"#utility.yul\":17853:17973   */\n    tag_571:\n        /* \"#utility.yul\":17870:17873   */\n      dup2\n        /* \"#utility.yul\":17863:17868   */\n      dup2\n        /* \"#utility.yul\":17860:17874   */\n      lt\n        /* \"#utility.yul\":17853:17973   */\n      iszero\n      tag_573\n      jumpi\n        /* \"#utility.yul\":17924:17963   */\n      tag_574\n        /* \"#utility.yul\":17961:17962   */\n      0x00\n        /* \"#utility.yul\":17954:17959   */\n      dup3\n        /* \"#utility.yul\":17924:17963   */\n      tag_356\n      jump\t// in\n    tag_574:\n        /* \"#utility.yul\":17897:17898   */\n      0x01\n        /* \"#utility.yul\":17890:17895   */\n      dup2\n        /* \"#utility.yul\":17886:17899   */\n      add\n        /* \"#utility.yul\":17877:17899   */\n      swap1\n      pop\n        /* \"#utility.yul\":17853:17973   */\n      jump(tag_571)\n    tag_573:\n        /* \"#utility.yul\":17793:17979   */\n      pop\n      pop\n      jump\t// out\n        /* \"#utility.yul\":17985:18528   */\n    tag_358:\n        /* \"#utility.yul\":18086:18088   */\n      0x1f\n        /* \"#utility.yul\":18081:18084   */\n      dup3\n        /* \"#utility.yul\":18078:18089   */\n      gt\n        /* \"#utility.yul\":18075:18521   */\n      iszero\n      tag_576\n      jumpi\n        /* \"#utility.yul\":18120:18158   */\n      tag_577\n        /* \"#utility.yul\":18152:18157   */\n      dup2\n        /* \"#utility.yul\":18120:18158   */\n      tag_347\n      jump\t// in\n    tag_577:\n        /* \"#utility.yul\":18204:18233   */\n      tag_578\n        /* \"#utility.yul\":18222:18232   */\n      dup5\n        /* \"#utility.yul\":18204:18233   */\n      tag_348\n      jump\t// in\n    tag_578:\n        /* \"#utility.yul\":18194:18202   */\n      dup2\n        /* \"#utility.yul\":18190:18234   */\n      add\n        /* \"#utility.yul\":18387:18389   */\n      0x20\n        /* \"#utility.yul\":18375:18385   */\n      dup6\n        /* \"#utility.yul\":18372:18390   */\n      lt\n        /* \"#utility.yul\":18369:18418   */\n      iszero\n      tag_579\n      jumpi\n        /* \"#utility.yul\":18408:18416   */\n      dup2\n        /* \"#utility.yul\":18393:18416   */\n      swap1\n      pop\n        /* \"#utility.yul\":18369:18418   */\n    tag_579:\n        /* \"#utility.yul\":18431:18511   */\n      tag_580\n        /* \"#utility.yul\":18487:18509   */\n      tag_581\n        /* \"#utility.yul\":18505:18508   */\n      dup6\n        /* \"#utility.yul\":18487:18509   */\n      tag_348\n      jump\t// in\n    tag_581:\n        /* \"#utility.yul\":18477:18485   */\n      dup4\n        /* \"#utility.yul\":18473:18510   */\n      add\n        /* \"#utility.yul\":18460:18471   */\n      dup3\n        /* \"#utility.yul\":18431:18511   */\n      tag_357\n      jump\t// in\n    tag_580:\n        /* \"#utility.yul\":18090:18521   */\n      pop\n      pop\n        /* \"#utility.yul\":18075:18521   */\n    tag_576:\n        /* \"#utility.yul\":17985:18528   */\n      pop\n      pop\n      pop\n      jump\t// out\n        /* \"#utility.yul\":18534:18651   */\n    tag_359:\n        /* \"#utility.yul\":18588:18596   */\n      0x00\n        /* \"#utility.yul\":18638:18643   */\n      dup3\n        /* \"#utility.yul\":18632:18636   */\n      dup3\n        /* \"#utility.yul\":18628:18644   */\n      shr\n        /* \"#utility.yul\":18607:18644   */\n      swap1\n      pop\n        /* \"#utility.yul\":18534:18651   */\n      swap3\n      swap2\n      pop\n      pop\n      jump\t// out\n        /* \"#utility.yul\":18657:18826   */\n    tag_360:\n        /* \"#utility.yul\":18701:18707   */\n      0x00\n        /* \"#utility.yul\":18734:18785   */\n      tag_584\n        /* \"#utility.yul\":18782:18783   */\n      0x00\n        /* \"#utility.yul\":18778:18784   */\n      not\n        /* \"#utility.yul\":18770:18775   */\n      dup5\n        /* \"#utility.yul\":18767:18768   */\n      0x08\n        /* \"#utility.yul\":18763:18776   */\n      mul\n        /* \"#utility.yul\":18734:18785   */\n      tag_359\n      jump\t// in\n    tag_584:\n        /* \"#utility.yul\":18730:18786   */\n      not\n        /* \"#utility.yul\":18815:18819   */\n      dup1\n        /* \"#utility.yul\":18809:18813   */\n      dup4\n        /* \"#utility.yul\":18805:18820   */\n      and\n        /* \"#utility.yul\":18795:18820   */\n      swap2\n      pop\n        /* \"#utility.yul\":18708:18826   */\n      pop\n        /* \"#utility.yul\":18657:18826   */\n      swap3\n      swap2\n      pop\n      pop\n      jump\t// out\n        /* \"#utility.yul\":18831:19126   */\n    tag_361:\n        /* \"#utility.yul\":18907:18911   */\n      0x00\n        /* \"#utility.yul\":19053:19082   */\n      tag_586\n        /* \"#utility.yul\":19078:19081   */\n      dup4\n        /* \"#utility.yul\":19072:19076   */\n      dup4\n        /* \"#utility.yul\":19053:19082   */\n      tag_360\n      jump\t// in\n    tag_586:\n        /* \"#utility.yul\":19045:19082   */\n      swap2\n      pop\n        /* \"#utility.yul\":19115:19118   */\n      dup3\n        /* \"#utility.yul\":19112:19113   */\n      0x02\n        /* \"#utility.yul\":19108:19119   */\n      mul\n        /* \"#utility.yul\":19102:19106   */\n      dup3\n        /* \"#utility.yul\":19099:19120   */\n      or\n        /* \"#utility.yul\":19091:19120   */\n      swap1\n      pop\n        /* \"#utility.yul\":18831:19126   */\n      swap3\n      swap2\n      pop\n      pop\n      jump\t// out\n        /* \"#utility.yul\":19131:20526   */\n    tag_104:\n        /* \"#utility.yul\":19248:19285   */\n      tag_588\n        /* \"#utility.yul\":19281:19284   */\n      dup3\n        /* \"#utility.yul\":19248:19285   */\n      tag_325\n      jump\t// in\n    tag_588:\n        /* \"#utility.yul\":19350:19368   */\n      0xffffffffffffffff\n        /* \"#utility.yul\":19342:19348   */\n      dup2\n        /* \"#utility.yul\":19339:19369   */\n      gt\n        /* \"#utility.yul\":19336:19392   */\n      iszero\n      tag_589\n      jumpi\n        /* \"#utility.yul\":19372:19390   */\n      tag_590\n      tag_331\n      jump\t// in\n    tag_590:\n        /* \"#utility.yul\":19336:19392   */\n    tag_589:\n        /* \"#utility.yul\":19416:19454   */\n      tag_591\n        /* \"#utility.yul\":19448:19452   */\n      dup3\n        /* \"#utility.yul\":19442:19453   */\n      sload\n        /* \"#utility.yul\":19416:19454   */\n      tag_126\n      jump\t// in\n    tag_591:\n        /* \"#utility.yul\":19501:19568   */\n      tag_592\n        /* \"#utility.yul\":19561:19567   */\n      dup3\n        /* \"#utility.yul\":19553:19559   */\n      dup3\n        /* \"#utility.yul\":19547:19551   */\n      dup6\n        /* \"#utility.yul\":19501:19568   */\n      tag_358\n      jump\t// in\n    tag_592:\n        /* \"#utility.yul\":19595:19596   */\n      0x00\n        /* \"#utility.yul\":19619:19623   */\n      0x20\n        /* \"#utility.yul\":19606:19623   */\n      swap1\n      pop\n        /* \"#utility.yul\":19651:19653   */\n      0x1f\n        /* \"#utility.yul\":19643:19649   */\n      dup4\n        /* \"#utility.yul\":19640:19654   */\n      gt\n        /* \"#utility.yul\":19668:19669   */\n      0x01\n        /* \"#utility.yul\":19663:20281   */\n      dup2\n      eq\n      tag_594\n      jumpi\n        /* \"#utility.yul\":20325:20326   */\n      0x00\n        /* \"#utility.yul\":20342:20348   */\n      dup5\n        /* \"#utility.yul\":20339:20416   */\n      iszero\n      tag_595\n      jumpi\n        /* \"#utility.yul\":20391:20400   */\n      dup3\n        /* \"#utility.yul\":20386:20389   */\n      dup8\n        /* \"#utility.yul\":20382:20401   */\n      add\n        /* \"#utility.yul\":20376:20402   */\n      mload\n        /* \"#utility.yul\":20367:20402   */\n      swap1\n      pop\n        /* \"#utility.yul\":20339:20416   */\n    tag_595:\n        /* \"#utility.yul\":20442:20509   */\n      tag_596\n        /* \"#utility.yul\":20502:20508   */\n      dup6\n        /* \"#utility.yul\":20495:20500   */\n      dup3\n        /* \"#utility.yul\":20442:20509   */\n      tag_361\n      jump\t// in\n    tag_596:\n        /* \"#utility.yul\":20436:20440   */\n      dup7\n        /* \"#utility.yul\":20429:20510   */\n      sstore\n        /* \"#utility.yul\":20298:20520   */\n      pop\n        /* \"#utility.yul\":19633:20520   */\n      jump(tag_593)\n        /* \"#utility.yul\":19663:20281   */\n    tag_594:\n        /* \"#utility.yul\":19715:19719   */\n      0x1f\n        /* \"#utility.yul\":19711:19720   */\n      not\n        /* \"#utility.yul\":19703:19709   */\n      dup5\n        /* \"#utility.yul\":19699:19721   */\n      and\n        /* \"#utility.yul\":19749:19786   */\n      tag_597\n        /* \"#utility.yul\":19781:19785   */\n      dup7\n        /* \"#utility.yul\":19749:19786   */\n      tag_347\n      jump\t// in\n    tag_597:\n        /* \"#utility.yul\":19808:19809   */\n      0x00\n        /* \"#utility.yul\":19822:20030   */\n    tag_598:\n        /* \"#utility.yul\":19836:19843   */\n      dup3\n        /* \"#utility.yul\":19833:19834   */\n      dup2\n        /* \"#utility.yul\":19830:19844   */\n      lt\n        /* \"#utility.yul\":19822:20030   */\n      iszero\n      tag_600\n      jumpi\n        /* \"#utility.yul\":19915:19924   */\n      dup5\n        /* \"#utility.yul\":19910:19913   */\n      dup10\n        /* \"#utility.yul\":19906:19925   */\n      add\n        /* \"#utility.yul\":19900:19926   */\n      mload\n        /* \"#utility.yul\":19892:19898   */\n      dup3\n        /* \"#utility.yul\":19885:19927   */\n      sstore\n        /* \"#utility.yul\":19966:19967   */\n      0x01\n        /* \"#utility.yul\":19958:19964   */\n      dup3\n        /* \"#utility.yul\":19954:19968   */\n      add\n        /* \"#utility.yul\":19944:19968   */\n      swap2\n      pop\n        /* \"#utility.yul\":20013:20015   */\n      0x20\n        /* \"#utility.yul\":20002:20011   */\n      dup6\n        /* \"#utility.yul\":19998:20016   */\n      add\n        /* \"#utility.yul\":19985:20016   */\n      swap5\n      pop\n        /* \"#utility.yul\":19859:19863   */\n      0x20\n        /* \"#utility.yul\":19856:19857   */\n      dup2\n        /* \"#utility.yul\":19852:19864   */\n      add\n        /* \"#utility.yul\":19847:19864   */\n      swap1\n      pop\n        /* \"#utility.yul\":19822:20030   */\n      jump(tag_598)\n    tag_600:\n        /* \"#utility.yul\":20058:20064   */\n      dup7\n        /* \"#utility.yul\":20049:20056   */\n      dup4\n        /* \"#utility.yul\":20046:20065   */\n      lt\n        /* \"#utility.yul\":20043:20222   */\n      iszero\n      tag_601\n      jumpi\n        /* \"#utility.yul\":20116:20125   */\n      dup5\n        /* \"#utility.yul\":20111:20114   */\n      dup10\n        /* \"#utility.yul\":20107:20126   */\n      add\n        /* \"#utility.yul\":20101:20127   */\n      mload\n        /* \"#utility.yul\":20159:20207   */\n      tag_602\n        /* \"#utility.yul\":20201:20205   */\n      0x1f\n        /* \"#utility.yul\":20193:20199   */\n      dup10\n        /* \"#utility.yul\":20189:20206   */\n      and\n        /* \"#utility.yul\":20178:20187   */\n      dup3\n        /* \"#utility.yul\":20159:20207   */\n      tag_360\n      jump\t// in\n    tag_602:\n        /* \"#utility.yul\":20151:20157   */\n      dup4\n        /* \"#utility.yul\":20144:20208   */\n      sstore\n        /* \"#utility.yul\":20066:20222   */\n      pop\n        /* \"#utility.yul\":20043:20222   */\n    tag_601:\n        /* \"#utility.yul\":20268:20269   */\n      0x01\n        /* \"#utility.yul\":20264:20265   */\n      0x02\n        /* \"#utility.yul\":20256:20262   */\n      dup9\n        /* \"#utility.yul\":20252:20266   */\n      mul\n        /* \"#utility.yul\":20248:20270   */\n      add\n        /* \"#utility.yul\":20242:20246   */\n      dup9\n        /* \"#utility.yul\":20235:20271   */\n      sstore\n        /* \"#utility.yul\":19670:20281   */\n      pop\n      pop\n      pop\n        /* \"#utility.yul\":19633:20520   */\n    tag_593:\n      pop\n        /* \"#utility.yul\":19223:20526   */\n      pop\n      pop\n      pop\n        /* \"#utility.yul\":19131:20526   */\n      pop\n      pop\n      jump\t// out\n        /* \"#utility.yul\":20532:20757   */\n    tag_362:\n        /* \"#utility.yul\":20672:20706   */\n      0x507572636861736520616d6f756e74206d757374206265206772656174657220\n        /* \"#utility.yul\":20668:20669   */\n      0x00\n        /* \"#utility.yul\":20660:20666   */\n      dup3\n        /* \"#utility.yul\":20656:20670   */\n      add\n        /* \"#utility.yul\":20649:20707   */\n      mstore\n        /* \"#utility.yul\":20741:20749   */\n      0x7468616e20300000000000000000000000000000000000000000000000000000\n        /* \"#utility.yul\":20736:20738   */\n      0x20\n        /* \"#utility.yul\":20728:20734   */\n      dup3\n        /* \"#utility.yul\":20724:20739   */\n      add\n        /* \"#utility.yul\":20717:20750   */\n      mstore\n        /* \"#utility.yul\":20532:20757   */\n      pop\n      jump\t// out\n        /* \"#utility.yul\":20763:21129   */\n    tag_363:\n        /* \"#utility.yul\":20905:20908   */\n      0x00\n        /* \"#utility.yul\":20926:20993   */\n      tag_605\n        /* \"#utility.yul\":20990:20992   */\n      0x26\n        /* \"#utility.yul\":20985:20988   */\n      dup4\n        /* \"#utility.yul\":20926:20993   */\n      tag_326\n      jump\t// in\n    tag_605:\n        /* \"#utility.yul\":20919:20993   */\n      swap2\n      pop\n        /* \"#utility.yul\":21002:21095   */\n      tag_606\n        /* \"#utility.yul\":21091:21094   */\n      dup3\n        /* \"#utility.yul\":21002:21095   */\n      tag_362\n      jump\t// in\n    tag_606:\n        /* \"#utility.yul\":21120:21122   */\n      0x40\n        /* \"#utility.yul\":21115:21118   */\n      dup3\n        /* \"#utility.yul\":21111:21123   */\n      add\n        /* \"#utility.yul\":21104:21123   */\n      swap1\n      pop\n        /* \"#utility.yul\":20763:21129   */\n      swap2\n      swap1\n      pop\n      jump\t// out\n        /* \"#utility.yul\":21135:21554   */\n    tag_117:\n        /* \"#utility.yul\":21301:21305   */\n      0x00\n        /* \"#utility.yul\":21339:21341   */\n      0x20\n        /* \"#utility.yul\":21328:21337   */\n      dup3\n        /* \"#utility.yul\":21324:21342   */\n      add\n        /* \"#utility.yul\":21316:21342   */\n      swap1\n      pop\n        /* \"#utility.yul\":21388:21397   */\n      dup2\n        /* \"#utility.yul\":21382:21386   */\n      dup2\n        /* \"#utility.yul\":21378:21398   */\n      sub\n        /* \"#utility.yul\":21374:21375   */\n      0x00\n        /* \"#utility.yul\":21363:21372   */\n      dup4\n        /* \"#utility.yul\":21359:21376   */\n      add\n        /* \"#utility.yul\":21352:21399   */\n      mstore\n        /* \"#utility.yul\":21416:21547   */\n      tag_608\n        /* \"#utility.yul\":21542:21546   */\n      dup2\n        /* \"#utility.yul\":21416:21547   */\n      tag_363\n      jump\t// in\n    tag_608:\n        /* \"#utility.yul\":21408:21547   */\n      swap1\n      pop\n        /* \"#utility.yul\":21135:21554   */\n      swap2\n      swap1\n      pop\n      jump\t// out\n        /* \"#utility.yul\":21560:21728   */\n    tag_364:\n        /* \"#utility.yul\":21700:21720   */\n      0x496e76616c69642070726f647563742049440000000000000000000000000000\n        /* \"#utility.yul\":21696:21697   */\n      0x00\n        /* \"#utility.yul\":21688:21694   */\n      dup3\n        /* \"#utility.yul\":21684:21698   */\n      add\n        /* \"#utility.yul\":21677:21721   */\n      mstore\n        /* \"#utility.yul\":21560:21728   */\n      pop\n      jump\t// out\n        /* \"#utility.yul\":21734:22100   */\n    tag_365:\n        /* \"#utility.yul\":21876:21879   */\n      0x00\n        /* \"#utility.yul\":21897:21964   */\n      tag_611\n        /* \"#utility.yul\":21961:21963   */\n      0x12\n        /* \"#utility.yul\":21956:21959   */\n      dup4\n        /* \"#utility.yul\":21897:21964   */\n      tag_326\n      jump\t// in\n    tag_611:\n        /* \"#utility.yul\":21890:21964   */\n      swap2\n      pop\n        /* \"#utility.yul\":21973:22066   */\n      tag_612\n        /* \"#utility.yul\":22062:22065   */\n      dup3\n        /* \"#utility.yul\":21973:22066   */\n      tag_364\n      jump\t// in\n    tag_612:\n        /* \"#utility.yul\":22091:22093   */\n      0x20\n        /* \"#utility.yul\":22086:22089   */\n      dup3\n        /* \"#utility.yul\":22082:22094   */\n      add\n        /* \"#utility.yul\":22075:22094   */\n      swap1\n      pop\n        /* \"#utility.yul\":21734:22100   */\n      swap2\n      swap1\n      pop\n      jump\t// out\n        /* \"#utility.yul\":22106:22525   */\n    tag_120:\n        /* \"#utility.yul\":22272:22276   */\n      0x00\n        /* \"#utility.yul\":22310:22312   */\n      0x20\n        /* \"#utility.yul\":22299:22308   */\n      dup3\n        /* \"#utility.yul\":22295:22313   */\n      add\n        /* \"#utility.yul\":22287:22313   */\n      swap1\n      pop\n        /* \"#utility.yul\":22359:22368   */\n      dup2\n        /* \"#utility.yul\":22353:22357   */\n      dup2\n        /* \"#utility.yul\":22349:22369   */\n      sub\n        /* \"#utility.yul\":22345:22346   */\n      0x00\n        /* \"#utility.yul\":22334:22343   */\n      dup4\n        /* \"#utility.yul\":22330:22347   */\n      add\n        /* \"#utility.yul\":22323:22370   */\n      mstore\n        /* \"#utility.yul\":22387:22518   */\n      tag_614\n        /* \"#utility.yul\":22513:22517   */\n      dup2\n        /* \"#utility.yul\":22387:22518   */\n      tag_365\n      jump\t// in\n    tag_614:\n        /* \"#utility.yul\":22379:22518   */\n      swap1\n      pop\n        /* \"#utility.yul\":22106:22525   */\n      swap2\n      swap1\n      pop\n      jump\t// out\n        /* \"#utility.yul\":22531:22711   */\n    tag_123:\n        /* \"#utility.yul\":22579:22656   */\n      0x4e487b7100000000000000000000000000000000000000000000000000000000\n        /* \"#utility.yul\":22576:22577   */\n      0x00\n        /* \"#utility.yul\":22569:22657   */\n      mstore\n        /* \"#utility.yul\":22676:22680   */\n      0x32\n        /* \"#utility.yul\":22673:22674   */\n      0x04\n        /* \"#utility.yul\":22666:22681   */\n      mstore\n        /* \"#utility.yul\":22700:22704   */\n      0x24\n        /* \"#utility.yul\":22697:22698   */\n      0x00\n        /* \"#utility.yul\":22690:22705   */\n      revert\n        /* \"#utility.yul\":22717:22864   */\n    tag_366:\n        /* \"#utility.yul\":22818:22829   */\n      0x00\n        /* \"#utility.yul\":22855:22858   */\n      dup2\n        /* \"#utility.yul\":22840:22858   */\n      swap1\n      pop\n        /* \"#utility.yul\":22717:22864   */\n      swap3\n      swap2\n      pop\n      pop\n      jump\t// out\n        /* \"#utility.yul\":22870:23014   */\n    tag_367:\n        /* \"#utility.yul\":22922:22926   */\n      0x00\n        /* \"#utility.yul\":22945:22948   */\n      dup2\n        /* \"#utility.yul\":22937:22948   */\n      swap1\n      pop\n        /* \"#utility.yul\":22968:22971   */\n      dup2\n        /* \"#utility.yul\":22965:22966   */\n      0x00\n        /* \"#utility.yul\":22958:22972   */\n      mstore\n        /* \"#utility.yul\":23002:23006   */\n      0x20\n        /* \"#utility.yul\":22999:23000   */\n      0x00\n        /* \"#utility.yul\":22989:23007   */\n      keccak256\n        /* \"#utility.yul\":22981:23007   */\n      swap1\n      pop\n        /* \"#utility.yul\":22870:23014   */\n      swap2\n      swap1\n      pop\n      jump\t// out\n        /* \"#utility.yul\":23042:23920   */\n    tag_368:\n        /* \"#utility.yul\":23147:23150   */\n      0x00\n        /* \"#utility.yul\":23184:23189   */\n      dup2\n        /* \"#utility.yul\":23178:23190   */\n      sload\n        /* \"#utility.yul\":23213:23249   */\n      tag_619\n        /* \"#utility.yul\":23239:23248   */\n      dup2\n        /* \"#utility.yul\":23213:23249   */\n      tag_126\n      jump\t// in\n    tag_619:\n        /* \"#utility.yul\":23265:23353   */\n      tag_620\n        /* \"#utility.yul\":23346:23352   */\n      dup2\n        /* \"#utility.yul\":23341:23344   */\n      dup7\n        /* \"#utility.yul\":23265:23353   */\n      tag_366\n      jump\t// in\n    tag_620:\n        /* \"#utility.yul\":23258:23353   */\n      swap5\n      pop\n        /* \"#utility.yul\":23384:23385   */\n      0x01\n        /* \"#utility.yul\":23373:23382   */\n      dup3\n        /* \"#utility.yul\":23369:23386   */\n      and\n        /* \"#utility.yul\":23400:23401   */\n      0x00\n        /* \"#utility.yul\":23395:23561   */\n      dup2\n      eq\n      tag_622\n      jumpi\n        /* \"#utility.yul\":23575:23576   */\n      0x01\n        /* \"#utility.yul\":23570:23914   */\n      dup2\n      eq\n      tag_623\n      jumpi\n        /* \"#utility.yul\":23362:23914   */\n      jump(tag_621)\n        /* \"#utility.yul\":23395:23561   */\n    tag_622:\n        /* \"#utility.yul\":23479:23483   */\n      0xff\n        /* \"#utility.yul\":23475:23484   */\n      not\n        /* \"#utility.yul\":23464:23473   */\n      dup4\n        /* \"#utility.yul\":23460:23485   */\n      and\n        /* \"#utility.yul\":23455:23458   */\n      dup7\n        /* \"#utility.yul\":23448:23486   */\n      mstore\n        /* \"#utility.yul\":23541:23547   */\n      dup2\n        /* \"#utility.yul\":23534:23548   */\n      iszero\n        /* \"#utility.yul\":23527:23549   */\n      iszero\n        /* \"#utility.yul\":23519:23525   */\n      dup3\n        /* \"#utility.yul\":23515:23550   */\n      mul\n        /* \"#utility.yul\":23510:23513   */\n      dup7\n        /* \"#utility.yul\":23506:23551   */\n      add\n        /* \"#utility.yul\":23499:23551   */\n      swap4\n      pop\n        /* \"#utility.yul\":23395:23561   */\n      jump(tag_621)\n        /* \"#utility.yul\":23570:23914   */\n    tag_623:\n        /* \"#utility.yul\":23637:23678   */\n      tag_624\n        /* \"#utility.yul\":23672:23677   */\n      dup6\n        /* \"#utility.yul\":23637:23678   */\n      tag_367\n      jump\t// in\n    tag_624:\n        /* \"#utility.yul\":23700:23701   */\n      0x00\n        /* \"#utility.yul\":23714:23868   */\n    tag_625:\n        /* \"#utility.yul\":23728:23734   */\n      dup4\n        /* \"#utility.yul\":23725:23726   */\n      dup2\n        /* \"#utility.yul\":23722:23735   */\n      lt\n        /* \"#utility.yul\":23714:23868   */\n      iszero\n      tag_627\n      jumpi\n        /* \"#utility.yul\":23802:23809   */\n      dup2\n        /* \"#utility.yul\":23796:23810   */\n      sload\n        /* \"#utility.yul\":23792:23793   */\n      dup2\n        /* \"#utility.yul\":23787:23790   */\n      dup10\n        /* \"#utility.yul\":23783:23794   */\n      add\n        /* \"#utility.yul\":23776:23811   */\n      mstore\n        /* \"#utility.yul\":23852:23853   */\n      0x01\n        /* \"#utility.yul\":23843:23850   */\n      dup3\n        /* \"#utility.yul\":23839:23854   */\n      add\n        /* \"#utility.yul\":23828:23854   */\n      swap2\n      pop\n        /* \"#utility.yul\":23750:23754   */\n      0x20\n        /* \"#utility.yul\":23747:23748   */\n      dup2\n        /* \"#utility.yul\":23743:23755   */\n      add\n        /* \"#utility.yul\":23738:23755   */\n      swap1\n      pop\n        /* \"#utility.yul\":23714:23868   */\n      jump(tag_625)\n    tag_627:\n        /* \"#utility.yul\":23897:23903   */\n      dup4\n        /* \"#utility.yul\":23892:23895   */\n      dup9\n        /* \"#utility.yul\":23888:23904   */\n      add\n        /* \"#utility.yul\":23881:23904   */\n      swap6\n      pop\n        /* \"#utility.yul\":23577:23914   */\n      pop\n      pop\n        /* \"#utility.yul\":23362:23914   */\n    tag_621:\n      pop\n        /* \"#utility.yul\":23151:23920   */\n      pop\n      pop\n        /* \"#utility.yul\":23042:23920   */\n      swap3\n      swap2\n      pop\n      pop\n      jump\t// out\n        /* \"#utility.yul\":23926:24199   */\n    tag_138:\n        /* \"#utility.yul\":24057:24060   */\n      0x00\n        /* \"#utility.yul\":24079:24173   */\n      tag_629\n        /* \"#utility.yul\":24169:24172   */\n      dup3\n        /* \"#utility.yul\":24160:24166   */\n      dup5\n        /* \"#utility.yul\":24079:24173   */\n      tag_368\n      jump\t// in\n    tag_629:\n        /* \"#utility.yul\":24072:24173   */\n      swap2\n      pop\n        /* \"#utility.yul\":24190:24193   */\n      dup2\n        /* \"#utility.yul\":24183:24193   */\n      swap1\n      pop\n        /* \"#utility.yul\":23926:24199   */\n      swap3\n      swap2\n      pop\n      pop\n      jump\t// out\n        /* \"#utility.yul\":24205:24385   */\n    tag_369:\n        /* \"#utility.yul\":24253:24330   */\n      0x4e487b7100000000000000000000000000000000000000000000000000000000\n        /* \"#utility.yul\":24250:24251   */\n      0x00\n        /* \"#utility.yul\":24243:24331   */\n      mstore\n        /* \"#utility.yul\":24350:24354   */\n      0x11\n        /* \"#utility.yul\":24347:24348   */\n      0x04\n        /* \"#utility.yul\":24340:24355   */\n      mstore\n        /* \"#utility.yul\":24374:24378   */\n      0x24\n        /* \"#utility.yul\":24371:24372   */\n      0x00\n        /* \"#utility.yul\":24364:24379   */\n      revert\n        /* \"#utility.yul\":24391:24801   */\n    tag_144:\n        /* \"#utility.yul\":24431:24438   */\n      0x00\n        /* \"#utility.yul\":24454:24474   */\n      tag_632\n        /* \"#utility.yul\":24472:24473   */\n      dup3\n        /* \"#utility.yul\":24454:24474   */\n      tag_316\n      jump\t// in\n    tag_632:\n        /* \"#utility.yul\":24449:24474   */\n      swap2\n      pop\n        /* \"#utility.yul\":24488:24508   */\n      tag_633\n        /* \"#utility.yul\":24506:24507   */\n      dup4\n        /* \"#utility.yul\":24488:24508   */\n      tag_316\n      jump\t// in\n    tag_633:\n        /* \"#utility.yul\":24483:24508   */\n      swap3\n      pop\n        /* \"#utility.yul\":24543:24544   */\n      dup3\n        /* \"#utility.yul\":24540:24541   */\n      dup3\n        /* \"#utility.yul\":24536:24545   */\n      mul\n        /* \"#utility.yul\":24565:24595   */\n      tag_634\n        /* \"#utility.yul\":24583:24594   */\n      dup2\n        /* \"#utility.yul\":24565:24595   */\n      tag_316\n      jump\t// in\n    tag_634:\n        /* \"#utility.yul\":24554:24595   */\n      swap2\n      pop\n        /* \"#utility.yul\":24744:24745   */\n      dup3\n        /* \"#utility.yul\":24735:24742   */\n      dup3\n        /* \"#utility.yul\":24731:24746   */\n      div\n        /* \"#utility.yul\":24728:24729   */\n      dup5\n        /* \"#utility.yul\":24725:24747   */\n      eq\n        /* \"#utility.yul\":24705:24706   */\n      dup4\n        /* \"#utility.yul\":24698:24707   */\n      iszero\n        /* \"#utility.yul\":24678:24761   */\n      or\n        /* \"#utility.yul\":24655:24794   */\n      tag_635\n      jumpi\n        /* \"#utility.yul\":24774:24792   */\n      tag_636\n      tag_369\n      jump\t// in\n    tag_636:\n        /* \"#utility.yul\":24655:24794   */\n    tag_635:\n        /* \"#utility.yul\":24439:24801   */\n      pop\n        /* \"#utility.yul\":24391:24801   */\n      swap3\n      swap2\n      pop\n      pop\n      jump\t// out\n        /* \"#utility.yul\":24807:24980   */\n    tag_370:\n        /* \"#utility.yul\":24947:24972   */\n      0x496e73756666696369656e742066756e64732073656e74000000000000000000\n        /* \"#utility.yul\":24943:24944   */\n      0x00\n        /* \"#utility.yul\":24935:24941   */\n      dup3\n        /* \"#utility.yul\":24931:24945   */\n      add\n        /* \"#utility.yul\":24924:24973   */\n      mstore\n        /* \"#utility.yul\":24807:24980   */\n      pop\n      jump\t// out\n        /* \"#utility.yul\":24986:25352   */\n    tag_371:\n        /* \"#utility.yul\":25128:25131   */\n      0x00\n        /* \"#utility.yul\":25149:25216   */\n      tag_639\n        /* \"#utility.yul\":25213:25215   */\n      0x17\n        /* \"#utility.yul\":25208:25211   */\n      dup4\n        /* \"#utility.yul\":25149:25216   */\n      tag_326\n      jump\t// in\n    tag_639:\n        /* \"#utility.yul\":25142:25216   */\n      swap2\n      pop\n        /* \"#utility.yul\":25225:25318   */\n      tag_640\n        /* \"#utility.yul\":25314:25317   */\n      dup3\n        /* \"#utility.yul\":25225:25318   */\n      tag_370\n      jump\t// in\n    tag_640:\n        /* \"#utility.yul\":25343:25345   */\n      0x20\n        /* \"#utility.yul\":25338:25341   */\n      dup3\n        /* \"#utility.yul\":25334:25346   */\n      add\n        /* \"#utility.yul\":25327:25346   */\n      swap1\n      pop\n        /* \"#utility.yul\":24986:25352   */\n      swap2\n      swap1\n      pop\n      jump\t// out\n        /* \"#utility.yul\":25358:25777   */\n    tag_148:\n        /* \"#utility.yul\":25524:25528   */\n      0x00\n        /* \"#utility.yul\":25562:25564   */\n      0x20\n        /* \"#utility.yul\":25551:25560   */\n      dup3\n        /* \"#utility.yul\":25547:25565   */\n      add\n        /* \"#utility.yul\":25539:25565   */\n      swap1\n      pop\n        /* \"#utility.yul\":25611:25620   */\n      dup2\n        /* \"#utility.yul\":25605:25609   */\n      dup2\n        /* \"#utility.yul\":25601:25621   */\n      sub\n        /* \"#utility.yul\":25597:25598   */\n      0x00\n        /* \"#utility.yul\":25586:25595   */\n      dup4\n        /* \"#utility.yul\":25582:25599   */\n      add\n        /* \"#utility.yul\":25575:25622   */\n      mstore\n        /* \"#utility.yul\":25639:25770   */\n      tag_642\n        /* \"#utility.yul\":25765:25769   */\n      dup2\n        /* \"#utility.yul\":25639:25770   */\n      tag_371\n      jump\t// in\n    tag_642:\n        /* \"#utility.yul\":25631:25770   */\n      swap1\n      pop\n        /* \"#utility.yul\":25358:25777   */\n      swap2\n      swap1\n      pop\n      jump\t// out\n        /* \"#utility.yul\":25783:25977   */\n    tag_153:\n        /* \"#utility.yul\":25823:25827   */\n      0x00\n        /* \"#utility.yul\":25843:25863   */\n      tag_644\n        /* \"#utility.yul\":25861:25862   */\n      dup3\n        /* \"#utility.yul\":25843:25863   */\n      tag_316\n      jump\t// in\n    tag_644:\n        /* \"#utility.yul\":25838:25863   */\n      swap2\n      pop\n        /* \"#utility.yul\":25877:25897   */\n      tag_645\n        /* \"#utility.yul\":25895:25896   */\n      dup4\n        /* \"#utility.yul\":25877:25897   */\n      tag_316\n      jump\t// in\n    tag_645:\n        /* \"#utility.yul\":25872:25897   */\n      swap3\n      pop\n        /* \"#utility.yul\":25921:25922   */\n      dup3\n        /* \"#utility.yul\":25918:25919   */\n      dup3\n        /* \"#utility.yul\":25914:25923   */\n      sub\n        /* \"#utility.yul\":25906:25923   */\n      swap1\n      pop\n        /* \"#utility.yul\":25945:25946   */\n      dup2\n        /* \"#utility.yul\":25939:25943   */\n      dup2\n        /* \"#utility.yul\":25936:25947   */\n      gt\n        /* \"#utility.yul\":25933:25970   */\n      iszero\n      tag_646\n      jumpi\n        /* \"#utility.yul\":25950:25968   */\n      tag_647\n      tag_369\n      jump\t// in\n    tag_647:\n        /* \"#utility.yul\":25933:25970   */\n    tag_646:\n        /* \"#utility.yul\":25783:25977   */\n      swap3\n      swap2\n      pop\n      pop\n      jump\t// out\n        /* \"#utility.yul\":25983:26174   */\n    tag_158:\n        /* \"#utility.yul\":26023:26026   */\n      0x00\n        /* \"#utility.yul\":26042:26062   */\n      tag_649\n        /* \"#utility.yul\":26060:26061   */\n      dup3\n        /* \"#utility.yul\":26042:26062   */\n      tag_316\n      jump\t// in\n    tag_649:\n        /* \"#utility.yul\":26037:26062   */\n      swap2\n      pop\n        /* \"#utility.yul\":26076:26096   */\n      tag_650\n        /* \"#utility.yul\":26094:26095   */\n      dup4\n        /* \"#utility.yul\":26076:26096   */\n      tag_316\n      jump\t// in\n    tag_650:\n        /* \"#utility.yul\":26071:26096   */\n      swap3\n      pop\n        /* \"#utility.yul\":26119:26120   */\n      dup3\n        /* \"#utility.yul\":26116:26117   */\n      dup3\n        /* \"#utility.yul\":26112:26121   */\n      add\n        /* \"#utility.yul\":26105:26121   */\n      swap1\n      pop\n        /* \"#utility.yul\":26140:26143   */\n      dup1\n        /* \"#utility.yul\":26137:26138   */\n      dup3\n        /* \"#utility.yul\":26134:26144   */\n      gt\n        /* \"#utility.yul\":26131:26167   */\n      iszero\n      tag_651\n      jumpi\n        /* \"#utility.yul\":26147:26165   */\n      tag_652\n      tag_369\n      jump\t// in\n    tag_652:\n        /* \"#utility.yul\":26131:26167   */\n    tag_651:\n        /* \"#utility.yul\":25983:26174   */\n      swap3\n      swap2\n      pop\n      pop\n      jump\t// out\n        /* \"#utility.yul\":26180:26413   */\n    tag_160:\n        /* \"#utility.yul\":26219:26222   */\n      0x00\n        /* \"#utility.yul\":26242:26266   */\n      tag_654\n        /* \"#utility.yul\":26260:26265   */\n      dup3\n        /* \"#utility.yul\":26242:26266   */\n      tag_316\n      jump\t// in\n    tag_654:\n        /* \"#utility.yul\":26233:26266   */\n      swap2\n      pop\n        /* \"#utility.yul\":26288:26354   */\n      0xffffffffffffffffffffffffffffffffffffffffffffffffffffffffffffffff\n        /* \"#utility.yul\":26281:26286   */\n      dup3\n        /* \"#utility.yul\":26278:26355   */\n      sub\n        /* \"#utility.yul\":26275:26378   */\n      tag_655\n      jumpi\n        /* \"#utility.yul\":26358:26376   */\n      tag_656\n      tag_369\n      jump\t// in\n    tag_656:\n        /* \"#utility.yul\":26275:26378   */\n    tag_655:\n        /* \"#utility.yul\":26405:26406   */\n      0x01\n        /* \"#utility.yul\":26398:26403   */\n      dup3\n        /* \"#utility.yul\":26394:26407   */\n      add\n        /* \"#utility.yul\":26387:26407   */\n      swap1\n      pop\n        /* \"#utility.yul\":26180:26413   */\n      swap2\n      swap1\n      pop\n      jump\t// out\n        /* \"#utility.yul\":26419:26599   */\n    tag_372:\n        /* \"#utility.yul\":26467:26544   */\n      0x4e487b7100000000000000000000000000000000000000000000000000000000\n        /* \"#utility.yul\":26464:26465   */\n      0x00\n        /* \"#utility.yul\":26457:26545   */\n      mstore\n        /* \"#utility.yul\":26564:26568   */\n      0x12\n        /* \"#utility.yul\":26561:26562   */\n      0x04\n        /* \"#utility.yul\":26554:26569   */\n      mstore\n        /* \"#utility.yul\":26588:26592   */\n      0x24\n        /* \"#utility.yul\":26585:26586   */\n      0x00\n        /* \"#utility.yul\":26578:26593   */\n      revert\n        /* \"#utility.yul\":26605:26790   */\n    tag_171:\n        /* \"#utility.yul\":26645:26646   */\n      0x00\n        /* \"#utility.yul\":26662:26682   */\n      tag_659\n        /* \"#utility.yul\":26680:26681   */\n      dup3\n        /* \"#utility.yul\":26662:26682   */\n      tag_316\n      jump\t// in\n    tag_659:\n        /* \"#utility.yul\":26657:26682   */\n      swap2\n      pop\n        /* \"#utility.yul\":26696:26716   */\n      tag_660\n        /* \"#utility.yul\":26714:26715   */\n      dup4\n        /* \"#utility.yul\":26696:26716   */\n      tag_316\n      jump\t// in\n    tag_660:\n        /* \"#utility.yul\":26691:26716   */\n      swap3\n      pop\n        /* \"#utility.yul\":26735:26736   */\n      dup3\n        /* \"#utility.yul\":26725:26760   */\n      tag_661\n      jumpi\n        /* \"#utility.yul\":26740:26758   */\n      tag_662\n      tag_372\n      jump\t// in\n    tag_662:\n        /* \"#utility.yul\":26725:26760   */\n    tag_661:\n        /* \"#utility.yul\":26782:26783   */\n      dup3\n        /* \"#utility.yul\":26779:26780   */\n      dup3\n        /* \"#utility.yul\":26775:26784   */\n      div\n        /* \"#utility.yul\":26770:26784   */\n      swap1\n      pop\n        /* \"#utility.yul\":26605:26790   */\n      swap3\n      swap2\n      pop\n      pop\n      jump\t// out\n        /* \"#utility.yul\":26796:26875   */\n    tag_373:\n        /* \"#utility.yul\":26835:26842   */\n      0x00\n        /* \"#utility.yul\":26864:26869   */\n      dup2\n        /* \"#utility.yul\":26853:26869   */\n      swap1\n      pop\n        /* \"#utility.yul\":26796:26875   */\n      swap2\n      swap1\n      pop\n      jump\t// out\n        /* \"#utility.yul\":26881:27038   */\n    tag_374:\n        /* \"#utility.yul\":26986:27031   */\n      tag_665\n        /* \"#utility.yul\":27006:27030   */\n      tag_666\n        /* \"#utility.yul\":27024:27029   */\n      dup3\n        /* \"#utility.yul\":27006:27030   */\n      tag_316\n      jump\t// in\n    tag_666:\n        /* \"#utility.yul\":26986:27031   */\n      tag_373\n      jump\t// in\n    tag_665:\n        /* \"#utility.yul\":26981:26984   */\n      dup3\n        /* \"#utility.yul\":26974:27032   */\n      mstore\n        /* \"#utility.yul\":26881:27038   */\n      pop\n      pop\n      jump\t// out\n        /* \"#utility.yul\":27044:27138   */\n    tag_375:\n        /* \"#utility.yul\":27077:27085   */\n      0x00\n        /* \"#utility.yul\":27125:27130   */\n      dup2\n        /* \"#utility.yul\":27121:27123   */\n      0x60\n        /* \"#utility.yul\":27117:27131   */\n      shl\n        /* \"#utility.yul\":27096:27131   */\n      swap1\n      pop\n        /* \"#utility.yul\":27044:27138   */\n      swap2\n      swap1\n      pop\n      jump\t// out\n        /* \"#utility.yul\":27144:27238   */\n    tag_376:\n        /* \"#utility.yul\":27183:27190   */\n      0x00\n        /* \"#utility.yul\":27212:27232   */\n      tag_669\n        /* \"#utility.yul\":27226:27231   */\n      dup3\n        /* \"#utility.yul\":27212:27232   */\n      tag_375\n      jump\t// in\n    tag_669:\n        /* \"#utility.yul\":27201:27232   */\n      swap1\n      pop\n        /* \"#utility.yul\":27144:27238   */\n      swap2\n      swap1\n      pop\n      jump\t// out\n        /* \"#utility.yul\":27244:27344   */\n    tag_377:\n        /* \"#utility.yul\":27283:27290   */\n      0x00\n        /* \"#utility.yul\":27312:27338   */\n      tag_671\n        /* \"#utility.yul\":27332:27337   */\n      dup3\n        /* \"#utility.yul\":27312:27338   */\n      tag_376\n      jump\t// in\n    tag_671:\n        /* \"#utility.yul\":27301:27338   */\n      swap1\n      pop\n        /* \"#utility.yul\":27244:27344   */\n      swap2\n      swap1\n      pop\n      jump\t// out\n        /* \"#utility.yul\":27350:27507   */\n    tag_378:\n        /* \"#utility.yul\":27455:27500   */\n      tag_673\n        /* \"#utility.yul\":27475:27499   */\n      tag_674\n        /* \"#utility.yul\":27493:27498   */\n      dup3\n        /* \"#utility.yul\":27475:27499   */\n      tag_313\n      jump\t// in\n    tag_674:\n        /* \"#utility.yul\":27455:27500   */\n      tag_377\n      jump\t// in\n    tag_673:\n        /* \"#utility.yul\":27450:27453   */\n      dup3\n        /* \"#utility.yul\":27443:27501   */\n      mstore\n        /* \"#utility.yul\":27350:27507   */\n      pop\n      pop\n      jump\t// out\n        /* \"#utility.yul\":27513:28051   */\n    tag_220:\n        /* \"#utility.yul\":27681:27684   */\n      0x00\n        /* \"#utility.yul\":27696:27771   */\n      tag_676\n        /* \"#utility.yul\":27767:27770   */\n      dup3\n        /* \"#utility.yul\":27758:27764   */\n      dup7\n        /* \"#utility.yul\":27696:27771   */\n      tag_374\n      jump\t// in\n    tag_676:\n        /* \"#utility.yul\":27796:27798   */\n      0x20\n        /* \"#utility.yul\":27791:27794   */\n      dup3\n        /* \"#utility.yul\":27787:27799   */\n      add\n        /* \"#utility.yul\":27780:27799   */\n      swap2\n      pop\n        /* \"#utility.yul\":27809:27884   */\n      tag_677\n        /* \"#utility.yul\":27880:27883   */\n      dup3\n        /* \"#utility.yul\":27871:27877   */\n      dup6\n        /* \"#utility.yul\":27809:27884   */\n      tag_378\n      jump\t// in\n    tag_677:\n        /* \"#utility.yul\":27909:27911   */\n      0x14\n        /* \"#utility.yul\":27904:27907   */\n      dup3\n        /* \"#utility.yul\":27900:27912   */\n      add\n        /* \"#utility.yul\":27893:27912   */\n      swap2\n      pop\n        /* \"#utility.yul\":27922:27997   */\n      tag_678\n        /* \"#utility.yul\":27993:27996   */\n      dup3\n        /* \"#utility.yul\":27984:27990   */\n      dup5\n        /* \"#utility.yul\":27922:27997   */\n      tag_374\n      jump\t// in\n    tag_678:\n        /* \"#utility.yul\":28022:28024   */\n      0x20\n        /* \"#utility.yul\":28017:28020   */\n      dup3\n        /* \"#utility.yul\":28013:28025   */\n      add\n        /* \"#utility.yul\":28006:28025   */\n      swap2\n      pop\n        /* \"#utility.yul\":28042:28045   */\n      dup2\n        /* \"#utility.yul\":28035:28045   */\n      swap1\n      pop\n        /* \"#utility.yul\":27513:28051   */\n      swap5\n      swap4\n      pop\n      pop\n      pop\n      pop\n      jump\t// out\n        /* \"#utility.yul\":28057:28233   */\n    tag_222:\n        /* \"#utility.yul\":28089:28090   */\n      0x00\n        /* \"#utility.yul\":28106:28126   */\n      tag_680\n        /* \"#utility.yul\":28124:28125   */\n      dup3\n        /* \"#utility.yul\":28106:28126   */\n      tag_316\n      jump\t// in\n    tag_680:\n        /* \"#utility.yul\":28101:28126   */\n      swap2\n      pop\n        /* \"#utility.yul\":28140:28160   */\n      tag_681\n        /* \"#utility.yul\":28158:28159   */\n      dup4\n        /* \"#utility.yul\":28140:28160   */\n      tag_316\n      jump\t// in\n    tag_681:\n        /* \"#utility.yul\":28135:28160   */\n      swap3\n      pop\n        /* \"#utility.yul\":28179:28180   */\n      dup3\n        /* \"#utility.yul\":28169:28204   */\n      tag_682\n      jumpi\n        /* \"#utility.yul\":28184:28202   */\n      tag_683\n      tag_372\n      jump\t// in\n    tag_683:\n        /* \"#utility.yul\":28169:28204   */\n    tag_682:\n        /* \"#utility.yul\":28225:28226   */\n      dup3\n        /* \"#utility.yul\":28222:28223   */\n      dup3\n        /* \"#utility.yul\":28218:28227   */\n      mod\n        /* \"#utility.yul\":28213:28227   */\n      swap1\n      pop\n        /* \"#utility.yul\":28057:28233   */\n      swap3\n      swap2\n      pop\n      pop\n      jump\t// out\n        /* \"#utility.yul\":28239:28415   */\n    tag_379:\n        /* \"#utility.yul\":28379:28407   */\n      0x4e6f7420656e6f7567682073746f636b20617661696c61626c65000000000000\n        /* \"#utility.yul\":28375:28376   */\n      0x00\n        /* \"#utility.yul\":28367:28373   */\n      dup3\n        /* \"#utility.yul\":28363:28377   */\n      add\n        /* \"#utility.yul\":28356:28408   */\n      mstore\n        /* \"#utility.yul\":28239:28415   */\n      pop\n      jump\t// out\n        /* \"#utility.yul\":28421:28787   */\n    tag_380:\n        /* \"#utility.yul\":28563:28566   */\n      0x00\n        /* \"#utility.yul\":28584:28651   */\n      tag_686\n        /* \"#utility.yul\":28648:28650   */\n      0x1a\n        /* \"#utility.yul\":28643:28646   */\n      dup4\n        /* \"#utility.yul\":28584:28651   */\n      tag_326\n      jump\t// in\n    tag_686:\n        /* \"#utility.yul\":28577:28651   */\n      swap2\n      pop\n        /* \"#utility.yul\":28660:28753   */\n      tag_687\n        /* \"#utility.yul\":28749:28752   */\n      dup3\n        /* \"#utility.yul\":28660:28753   */\n      tag_379\n      jump\t// in\n    tag_687:\n        /* \"#utility.yul\":28778:28780   */\n      0x20\n        /* \"#utility.yul\":28773:28776   */\n      dup3\n        /* \"#utility.yul\":28769:28781   */\n      add\n        /* \"#utility.yul\":28762:28781   */\n      swap1\n      pop\n        /* \"#utility.yul\":28421:28787   */\n      swap2\n      swap1\n      pop\n      jump\t// out\n        /* \"#utility.yul\":28793:29212   */\n    tag_242:\n        /* \"#utility.yul\":28959:28963   */\n      0x00\n        /* \"#utility.yul\":28997:28999   */\n      0x20\n        /* \"#utility.yul\":28986:28995   */\n      dup3\n        /* \"#utility.yul\":28982:29000   */\n      add\n        /* \"#utility.yul\":28974:29000   */\n      swap1\n      pop\n        /* \"#utility.yul\":29046:29055   */\n      dup2\n        /* \"#utility.yul\":29040:29044   */\n      dup2\n        /* \"#utility.yul\":29036:29056   */\n      sub\n        /* \"#utility.yul\":29032:29033   */\n      0x00\n        /* \"#utility.yul\":29021:29030   */\n      dup4\n        /* \"#utility.yul\":29017:29034   */\n      add\n        /* \"#utility.yul\":29010:29057   */\n      mstore\n        /* \"#utility.yul\":29074:29205   */\n      tag_689\n        /* \"#utility.yul\":29200:29204   */\n      dup2\n        /* \"#utility.yul\":29074:29205   */\n      tag_380\n      jump\t// in\n    tag_689:\n        /* \"#utility.yul\":29066:29205   */\n      swap1\n      pop\n        /* \"#utility.yul\":28793:29212   */\n      swap2\n      swap1\n      pop\n      jump\t// out\n        /* \"#utility.yul\":29218:29366   */\n    tag_381:\n        /* \"#utility.yul\":29320:29331   */\n      0x00\n        /* \"#utility.yul\":29357:29360   */\n      dup2\n        /* \"#utility.yul\":29342:29360   */\n      swap1\n      pop\n        /* \"#utility.yul\":29218:29366   */\n      swap3\n      swap2\n      pop\n      pop\n      jump\t// out\n        /* \"#utility.yul\":29372:29762   */\n    tag_382:\n        /* \"#utility.yul\":29478:29481   */\n      0x00\n        /* \"#utility.yul\":29506:29545   */\n      tag_692\n        /* \"#utility.yul\":29539:29544   */\n      dup3\n        /* \"#utility.yul\":29506:29545   */\n      tag_325\n      jump\t// in\n    tag_692:\n        /* \"#utility.yul\":29561:29650   */\n      tag_693\n        /* \"#utility.yul\":29643:29649   */\n      dup2\n        /* \"#utility.yul\":29638:29641   */\n      dup6\n        /* \"#utility.yul\":29561:29650   */\n      tag_381\n      jump\t// in\n    tag_693:\n        /* \"#utility.yul\":29554:29650   */\n      swap4\n      pop\n        /* \"#utility.yul\":29659:29724   */\n      tag_694\n        /* \"#utility.yul\":29717:29723   */\n      dup2\n        /* \"#utility.yul\":29712:29715   */\n      dup6\n        /* \"#utility.yul\":29705:29709   */\n      0x20\n        /* \"#utility.yul\":29698:29703   */\n      dup7\n        /* \"#utility.yul\":29694:29710   */\n      add\n        /* \"#utility.yul\":29659:29724   */\n      tag_327\n      jump\t// in\n    tag_694:\n        /* \"#utility.yul\":29749:29755   */\n      dup1\n        /* \"#utility.yul\":29744:29747   */\n      dup5\n        /* \"#utility.yul\":29740:29756   */\n      add\n        /* \"#utility.yul\":29733:29756   */\n      swap2\n      pop\n        /* \"#utility.yul\":29482:29762   */\n      pop\n        /* \"#utility.yul\":29372:29762   */\n      swap3\n      swap2\n      pop\n      pop\n      jump\t// out\n        /* \"#utility.yul\":29768:30043   */\n    tag_249:\n        /* \"#utility.yul\":29900:29903   */\n      0x00\n        /* \"#utility.yul\":29922:30017   */\n      tag_696\n        /* \"#utility.yul\":30013:30016   */\n      dup3\n        /* \"#utility.yul\":30004:30010   */\n      dup5\n        /* \"#utility.yul\":29922:30017   */\n      tag_382\n      jump\t// in\n    tag_696:\n        /* \"#utility.yul\":29915:30017   */\n      swap2\n      pop\n        /* \"#utility.yul\":30034:30037   */\n      dup2\n        /* \"#utility.yul\":30027:30037   */\n      swap1\n      pop\n        /* \"#utility.yul\":29768:30043   */\n      swap3\n      swap2\n      pop\n      pop\n      jump\t// out\n\n    auxdata: 0xa2646970667358221220ce472dbcc22f572c628a7d9549365b6ad519793e3c0ef84cb8a32f8987dc2ae064736f6c63430008120033\n}\n",
				"bytecode": {
					"linkReferences": {},
					"object": "608060405234801561001057600080fd5b50613023806100206000396000f3fe6080604052600436106100dd5760003560e01c8063805553e81161007f578063a1ba90b611610059578063a1ba90b61461027f578063a87430ba146102a8578063d55768dd146102e6578063f67a2ad114610323576100dd565b8063805553e8146101fb5780638da5cb5b146102385780639f1cd58714610263576100dd565b806336da4468116100bb57806336da4468146101505780633d5278831461017b578063410085df146101bb57806366d0dc67146101e4576100dd565b806303194133146100e257806305103ede1461010b57806333af9f8b14610127575b600080fd5b3480156100ee57600080fd5b5061010960048036038101906101049190612070565b61034c565b005b6101256004803603810190610120919061210a565b610585565b005b34801561013357600080fd5b5061014e6004803603810190610149919061215d565b610bf8565b005b34801561015c57600080fd5b50610165610e1b565b60405161017291906121f4565b60405180910390f35b34801561018757600080fd5b506101a2600480360381019061019d919061220f565b610e41565b6040516101b294939291906122ee565b60405180910390f35b3480156101c757600080fd5b506101e260048036038101906101dd919061220f565b610f16565b005b3480156101f057600080fd5b506101f96112e3565b005b34801561020757600080fd5b50610222600480360381019061021d919061233a565b61138a565b60405161022f9190612367565b60405180910390f35b34801561024457600080fd5b5061024d6113dc565b60405161025a91906121f4565b60405180910390f35b61027d600480360381019061027891906124b2565b611400565b005b34801561028b57600080fd5b506102a660048036038101906102a19190612535565b611d61565b005b3480156102b457600080fd5b506102cf60048036038101906102ca9190612591565b611dfa565b6040516102dd929190612635565b60405180910390f35b3480156102f257600080fd5b5061030d6004803603810190610308919061265e565b611e2b565b60405161031a91906121f4565b60405180910390f35b34801561032f57600080fd5b5061034a60048036038101906103459190612591565b611e74565b005b600186816002811115610362576103616125be565b5b600260003373ffffffffffffffffffffffffffffffffffffffff1673ffffffffffffffffffffffffffffffffffffffff16815260200190815260200160002060000160009054906101000a900460ff1660028111156103c4576103c36125be565b5b14610404576040517f08c379a00000000000000000000000000000000000000000000000000000000081526004016103fb906126cd565b60405180910390fd5b8073ffffffffffffffffffffffffffffffffffffffff163373ffffffffffffffffffffffffffffffffffffffff1614610472576040517f08c379a000000000000000000000000000000000000000000000000000000000815260040161046990612785565b60405180910390fd5b6000604051806080016040528089815260200188815260200187878080601f016020809104026020016040519081016040528093929190818152602001838380828437600081840152601f19601f820116905080830192505050505050508152602001858152509050600360008a73ffffffffffffffffffffffffffffffffffffffff1673ffffffffffffffffffffffffffffffffffffffff1681526020019081526020016000208190806001815401808255809150506001900390600052602060002090600402016000909190919091506000820151816000015560208201518160010155604082015181600201908161056d91906129b1565b50606082015181600301555050505050505050505050565b60018381600281111561059b5761059a6125be565b5b600260003373ffffffffffffffffffffffffffffffffffffffff1673ffffffffffffffffffffffffffffffffffffffff16815260200190815260200160002060000160009054906101000a900460ff1660028111156105fd576105fc6125be565b5b1461063d576040517f08c379a0000000000000000000000000000000000000000000000000000000008152600401610634906126cd565b60405180910390fd5b8073ffffffffffffffffffffffffffffffffffffffff163373ffffffffffffffffffffffffffffffffffffffff16146106ab576040517f08c379a00000000000000000000000000000000000000000000000000000000081526004016106a290612785565b60405180910390fd5b600083116106ee576040517f08c379a00000000000000000000000000000000000000000000000000000000081526004016106e590612af5565b60405180910390fd5b600360008673ffffffffffffffffffffffffffffffffffffffff1673ffffffffffffffffffffffffffffffffffffffff168152602001908152602001600020805490508410610772576040517f08c379a000000000000000000000000000000000000000000000000000000000815260040161076990612b61565b60405180910390fd5b6000806000600360008973ffffffffffffffffffffffffffffffffffffffff1673ffffffffffffffffffffffffffffffffffffffff16815260200190815260200160002087815481106107c8576107c7612b81565b5b906000526020600020906004020160020180546107e4906127d4565b80601f0160208091040260200160405190810160405280929190818152602001828054610810906127d4565b801561085d5780601f106108325761010080835404028352916020019161085d565b820191906000526020600020905b81548152906001019060200180831161084057829003601f168201915b5050505050905060005b60036000600160009054906101000a900473ffffffffffffffffffffffffffffffffffffffff1673ffffffffffffffffffffffffffffffffffffffff1673ffffffffffffffffffffffffffffffffffffffff16815260200190815260200160002080549050811015610b8c5760036000600160009054906101000a900473ffffffffffffffffffffffffffffffffffffffff1673ffffffffffffffffffffffffffffffffffffffff1673ffffffffffffffffffffffffffffffffffffffff168152602001908152602001600020818154811061094657610945612b81565b5b90600052602060002090600402016002016040516109649190612c53565b6040518091039020828051906020012003610b795760036000600160009054906101000a900473ffffffffffffffffffffffffffffffffffffffff1673ffffffffffffffffffffffffffffffffffffffff1673ffffffffffffffffffffffffffffffffffffffff16815260200190815260200160002081815481106109ec576109eb612b81565b5b9060005260206000209060040201600101549250670de0b6b3a76400008784610a159190612c99565b610a1f9190612c99565b935083341015610a64576040517f08c379a0000000000000000000000000000000000000000000000000000000008152600401610a5b90612d27565b60405180910390fd5b8660036000600160009054906101000a900473ffffffffffffffffffffffffffffffffffffffff1673ffffffffffffffffffffffffffffffffffffffff1673ffffffffffffffffffffffffffffffffffffffff1681526020019081526020016000208281548110610ad857610ad7612b81565b5b90600052602060002090600402016000016000828254610af89190612d47565b9250508190555086600360008b73ffffffffffffffffffffffffffffffffffffffff1673ffffffffffffffffffffffffffffffffffffffff1681526020019081526020016000208981548110610b5157610b50612b81565b5b90600052602060002090600402016000016000828254610b719190612d7b565b925050819055505b8080610b8490612daf565b915050610867565b5082341115610bee5760008334610ba39190612d47565b90503373ffffffffffffffffffffffffffffffffffffffff166108fc829081150290604051600060405180830381858888f19350505050158015610beb573d6000803e3d6000fd5b50505b5050505050505050565b33600160006101000a81548173ffffffffffffffffffffffffffffffffffffffff021916908373ffffffffffffffffffffffffffffffffffffffff1602179055506040518060400160405280600280811115610c5757610c566125be565b5b8152602001600081525060026000600160009054906101000a900473ffffffffffffffffffffffffffffffffffffffff1673ffffffffffffffffffffffffffffffffffffffff1673ffffffffffffffffffffffffffffffffffffffff16815260200190815260200160002060008201518160000160006101000a81548160ff02191690836002811115610ced57610cec6125be565b5b02179055506020820151816001015590505060006040518060800160405280878152602001600287610d1f9190612e26565b815260200185858080601f016020809104026020016040519081016040528093929190818152602001838380828437600081840152601f19601f820116905080830192505050505050508152602001838152509050600360003373ffffffffffffffffffffffffffffffffffffffff1673ffffffffffffffffffffffffffffffffffffffff16815260200190815260200160002081908060018154018082558091505060019003906000526020600020906004020160009091909190915060008201518160000155602082015181600101556040820151816002019081610e0691906129b1565b50606082015181600301555050505050505050565b600160009054906101000a900473ffffffffffffffffffffffffffffffffffffffff1681565b60036020528160005260406000208181548110610e5d57600080fd5b906000526020600020906004020160009150915050806000015490806001015490806002018054610e8d906127d4565b80601f0160208091040260200160405190810160405280929190818152602001828054610eb9906127d4565b8015610f065780601f10610edb57610100808354040283529160200191610f06565b820191906000526020600020905b815481529060010190602001808311610ee957829003601f168201915b5050505050908060030154905084565b6000600360003373ffffffffffffffffffffffffffffffffffffffff1673ffffffffffffffffffffffffffffffffffffffff1681526020019081526020016000208281548110610f6957610f68612b81565b5b90600052602060002090600402016003015490506000600360008573ffffffffffffffffffffffffffffffffffffffff1673ffffffffffffffffffffffffffffffffffffffff1681526020019081526020016000208381548110610fd057610fcf612b81565b5b9060005260206000209060040201600301549050808211610ff057600080fd5b6000670de0b6b3a7640000600360008773ffffffffffffffffffffffffffffffffffffffff1673ffffffffffffffffffffffffffffffffffffffff168152602001908152602001600020858154811061104c5761104b612b81565b5b906000526020600020906004020160010154600360003373ffffffffffffffffffffffffffffffffffffffff1673ffffffffffffffffffffffffffffffffffffffff16815260200190815260200160002086815481106110af576110ae612b81565b5b9060005260206000209060040201600001546110cb9190612c99565b6110d59190612c99565b9050600360003373ffffffffffffffffffffffffffffffffffffffff1673ffffffffffffffffffffffffffffffffffffffff168152602001908152602001600020848154811061112857611127612b81565b5b906000526020600020906004020160000154600360008773ffffffffffffffffffffffffffffffffffffffff1673ffffffffffffffffffffffffffffffffffffffff168152602001908152602001600020858154811061118b5761118a612b81565b5b906000526020600020906004020160000160008282546111ab9190612d7b565b92505081905550600360003373ffffffffffffffffffffffffffffffffffffffff1673ffffffffffffffffffffffffffffffffffffffff168152602001908152602001600020848154811061120357611202612b81565b5b906000526020600020906004020160008082016000905560018201600090556002820160006112329190611f06565b6003820160009055505080600260008773ffffffffffffffffffffffffffffffffffffffff1673ffffffffffffffffffffffffffffffffffffffff168152602001908152602001600020600101600082825461128e9190612d47565b925050819055503373ffffffffffffffffffffffffffffffffffffffff166108fc829081150290604051600060405180830381858888f193505050501580156112db573d6000803e3d6000fd5b505050505050565b604051806040016040528060016002811115611302576113016125be565b5b81526020016000815250600260003373ffffffffffffffffffffffffffffffffffffffff1673ffffffffffffffffffffffffffffffffffffffff16815260200190815260200160002060008201518160000160006101000a81548160ff02191690836002811115611376576113756125be565b5b021790555060208201518160010155905050565b600080808061139890612daf565b915050824233836040516020016113b193929190612ec0565b6040516020818303038152906040528051906020012060001c6113d49190612efd565b915050919050565b60008054906101000a900473ffffffffffffffffffffffffffffffffffffffff1681565b60006002811115611414576114136125be565b5b600260003373ffffffffffffffffffffffffffffffffffffffff1673ffffffffffffffffffffffffffffffffffffffff16815260200190815260200160002060000160009054906101000a900460ff166002811115611476576114756125be565b5b036115215760405180604001604052806000600281111561149a576114996125be565b5b81526020016000815250600260003373ffffffffffffffffffffffffffffffffffffffff1673ffffffffffffffffffffffffffffffffffffffff16815260200190815260200160002060008201518160000160006101000a81548160ff0219169083600281111561150e5761150d6125be565b5b0217905550602082015181600101559050505b60008311611564576040517f08c379a000000000000000000000000000000000000000000000000000000000815260040161155b90612af5565b60405180910390fd5b600360008573ffffffffffffffffffffffffffffffffffffffff1673ffffffffffffffffffffffffffffffffffffffff1681526020019081526020016000208054905082106115e8576040517f08c379a00000000000000000000000000000000000000000000000000000000081526004016115df90612b61565b60405180910390fd5b600360008573ffffffffffffffffffffffffffffffffffffffff1673ffffffffffffffffffffffffffffffffffffffff168152602001908152602001600020828154811061163957611638612b81565b5b90600052602060002090600402016000015483111561168d576040517f08c379a000000000000000000000000000000000000000000000000000000000815260040161168490612f7a565b60405180910390fd5b6000670de0b6b3a7640000600360008773ffffffffffffffffffffffffffffffffffffffff1673ffffffffffffffffffffffffffffffffffffffff16815260200190815260200160002084815481106116e9576116e8612b81565b5b906000526020600020906004020160010154856117069190612c99565b6117109190612c99565b90503373ffffffffffffffffffffffffffffffffffffffff166004836040516117399190612fd6565b908152602001604051809103902060009054906101000a900473ffffffffffffffffffffffffffffffffffffffff1673ffffffffffffffffffffffffffffffffffffffff16036117fd576064605a826117929190612c99565b61179c9190612e26565b905060006004836040516117b09190612fd6565b908152602001604051809103902060006101000a81548173ffffffffffffffffffffffffffffffffffffffff021916908373ffffffffffffffffffffffffffffffffffffffff1602179055505b80341015611840576040517f08c379a000000000000000000000000000000000000000000000000000000000815260040161183790612d27565b60405180910390fd5b6000805b600360003373ffffffffffffffffffffffffffffffffffffffff1673ffffffffffffffffffffffffffffffffffffffff16815260200190815260200160002080549050811015611a1657600360008873ffffffffffffffffffffffffffffffffffffffff1673ffffffffffffffffffffffffffffffffffffffff16815260200190815260200160002085815481106118df576118de612b81565b5b90600052602060002090600402016002016040516118fd9190612c53565b6040518091039020600360003373ffffffffffffffffffffffffffffffffffffffff1673ffffffffffffffffffffffffffffffffffffffff168152602001908152602001600020828154811061195657611955612b81565b5b90600052602060002090600402016002016040516119749190612c53565b604051809103902003611a035785600360003373ffffffffffffffffffffffffffffffffffffffff1673ffffffffffffffffffffffffffffffffffffffff16815260200190815260200160002082815481106119d3576119d2612b81565b5b906000526020600020906004020160000160008282546119f39190612d7b565b9250508190555060019150611a16565b8080611a0e90612daf565b915050611844565b5080611c385760006040518060800160405280878152602001600360008a73ffffffffffffffffffffffffffffffffffffffff1673ffffffffffffffffffffffffffffffffffffffff1681526020019081526020016000208781548110611a8057611a7f612b81565b5b9060005260206000209060040201600101548152602001600360008a73ffffffffffffffffffffffffffffffffffffffff1673ffffffffffffffffffffffffffffffffffffffff1681526020019081526020016000208781548110611ae857611ae7612b81565b5b90600052602060002090600402016002018054611b04906127d4565b80601f0160208091040260200160405190810160405280929190818152602001828054611b30906127d4565b8015611b7d5780601f10611b5257610100808354040283529160200191611b7d565b820191906000526020600020905b815481529060010190602001808311611b6057829003601f168201915b50505050508152602001611b926103e861138a565b8152509050600360003373ffffffffffffffffffffffffffffffffffffffff1673ffffffffffffffffffffffffffffffffffffffff16815260200190815260200160002081908060018154018082558091505060019003906000526020600020906004020160009091909190915060008201518160000155602082015181600101556040820151816002019081611c2991906129b1565b50606082015181600301555050505b84600360008873ffffffffffffffffffffffffffffffffffffffff1673ffffffffffffffffffffffffffffffffffffffff1681526020019081526020016000208581548110611c8a57611c89612b81565b5b90600052602060002090600402016000016000828254611caa9190612d47565b9250508190555081341115611d125760008234611cc79190612d47565b90503373ffffffffffffffffffffffffffffffffffffffff166108fc829081150290604051600060405180830381858888f19350505050158015611d0f573d6000803e3d6000fd5b50505b81600260008873ffffffffffffffffffffffffffffffffffffffff1673ffffffffffffffffffffffffffffffffffffffff16815260200190815260200160002060010181905550505050505050565b8073ffffffffffffffffffffffffffffffffffffffff163373ffffffffffffffffffffffffffffffffffffffff1603611d9957600080fd5b80600483604051611daa9190612fd6565b908152602001604051809103902060006101000a81548173ffffffffffffffffffffffffffffffffffffffff021916908373ffffffffffffffffffffffffffffffffffffffff1602179055505050565b60026020528060005260406000206000915090508060000160009054906101000a900460ff16908060010154905082565b6004818051602081018201805184825260208301602085012081835280955050505050506000915054906101000a900473ffffffffffffffffffffffffffffffffffffffff1681565b6000600260008373ffffffffffffffffffffffffffffffffffffffff1673ffffffffffffffffffffffffffffffffffffffff1681526020019081526020016000206001015490508173ffffffffffffffffffffffffffffffffffffffff166108fc829081150290604051600060405180830381858888f19350505050158015611f01573d6000803e3d6000fd5b505050565b508054611f12906127d4565b6000825580601f10611f245750611f43565b601f016020900490600052602060002090810190611f429190611f46565b5b50565b5b80821115611f5f576000816000905550600101611f47565b5090565b6000604051905090565b600080fd5b600080fd5b600073ffffffffffffffffffffffffffffffffffffffff82169050919050565b6000611fa282611f77565b9050919050565b611fb281611f97565b8114611fbd57600080fd5b50565b600081359050611fcf81611fa9565b92915050565b6000819050919050565b611fe881611fd5565b8114611ff357600080fd5b50565b60008135905061200581611fdf565b92915050565b600080fd5b600080fd5b600080fd5b60008083601f8401126120305761202f61200b565b5b8235905067ffffffffffffffff81111561204d5761204c612010565b5b60208301915083600182028301111561206957612068612015565b5b9250929050565b60008060008060008060a0878903121561208d5761208c611f6d565b5b600061209b89828a01611fc0565b96505060206120ac89828a01611ff6565b95505060406120bd89828a01611ff6565b945050606087013567ffffffffffffffff8111156120de576120dd611f72565b5b6120ea89828a0161201a565b935093505060806120fd89828a01611ff6565b9150509295509295509295565b60008060006060848603121561212357612122611f6d565b5b600061213186828701611fc0565b935050602061214286828701611ff6565b925050604061215386828701611ff6565b9150509250925092565b60008060008060006080868803121561217957612178611f6d565b5b600061218788828901611ff6565b955050602061219888828901611ff6565b945050604086013567ffffffffffffffff8111156121b9576121b8611f72565b5b6121c58882890161201a565b935093505060606121d888828901611ff6565b9150509295509295909350565b6121ee81611f97565b82525050565b600060208201905061220960008301846121e5565b92915050565b6000806040838503121561222657612225611f6d565b5b600061223485828601611fc0565b925050602061224585828601611ff6565b9150509250929050565b61225881611fd5565b82525050565b600081519050919050565b600082825260208201905092915050565b60005b8381101561229857808201518184015260208101905061227d565b60008484015250505050565b6000601f19601f8301169050919050565b60006122c08261225e565b6122ca8185612269565b93506122da81856020860161227a565b6122e3816122a4565b840191505092915050565b6000608082019050612303600083018761224f565b612310602083018661224f565b818103604083015261232281856122b5565b9050612331606083018461224f565b95945050505050565b6000602082840312156123505761234f611f6d565b5b600061235e84828501611ff6565b91505092915050565b600060208201905061237c600083018461224f565b92915050565b600080fd5b7f4e487b7100000000000000000000000000000000000000000000000000000000600052604160045260246000fd5b6123bf826122a4565b810181811067ffffffffffffffff821117156123de576123dd612387565b5b80604052505050565b60006123f1611f63565b90506123fd82826123b6565b919050565b600067ffffffffffffffff82111561241d5761241c612387565b5b612426826122a4565b9050602081019050919050565b82818337600083830152505050565b600061245561245084612402565b6123e7565b90508281526020810184848401111561247157612470612382565b5b61247c848285612433565b509392505050565b600082601f8301126124995761249861200b565b5b81356124a9848260208601612442565b91505092915050565b600080600080608085870312156124cc576124cb611f6d565b5b60006124da87828801611fc0565b94505060206124eb87828801611ff6565b93505060406124fc87828801611ff6565b925050606085013567ffffffffffffffff81111561251d5761251c611f72565b5b61252987828801612484565b91505092959194509250565b6000806040838503121561254c5761254b611f6d565b5b600083013567ffffffffffffffff81111561256a57612569611f72565b5b61257685828601612484565b925050602061258785828601611fc0565b9150509250929050565b6000602082840312156125a7576125a6611f6d565b5b60006125b584828501611fc0565b91505092915050565b7f4e487b7100000000000000000000000000000000000000000000000000000000600052602160045260246000fd5b600381106125fe576125fd6125be565b5b50565b600081905061260f826125ed565b919050565b600061261f82612601565b9050919050565b61262f81612614565b82525050565b600060408201905061264a6000830185612626565b612657602083018461224f565b9392505050565b60006020828403121561267457612673611f6d565b5b600082013567ffffffffffffffff81111561269257612691611f72565b5b61269e84828501612484565b91505092915050565b50565b60006126b7600083612269565b91506126c2826126a7565b600082019050919050565b600060208201905081810360008301526126e6816126aa565b9050919050565b7fd09cd0b0d0b3d0b0d0b7d0b8d0bd20d0bdd0b520d181d0bed0bed182d0b2d0b560008201527fd182d181d0b2d183d0b5d18220d0bed182d0bfd180d0b0d0b2d0b8d182d0b5d060208201527fbbd18e0000000000000000000000000000000000000000000000000000000000604082015250565b600061276f604383612269565b915061277a826126ed565b606082019050919050565b6000602082019050818103600083015261279e81612762565b9050919050565b7f4e487b7100000000000000000000000000000000000000000000000000000000600052602260045260246000fd5b600060028204905060018216806127ec57607f821691505b6020821081036127ff576127fe6127a5565b5b50919050565b60008190508160005260206000209050919050565b60006020601f8301049050919050565b600082821b905092915050565b6000600883026128677fffffffffffffffffffffffffffffffffffffffffffffffffffffffffffffffff8261282a565b612871868361282a565b95508019841693508086168417925050509392505050565b6000819050919050565b60006128ae6128a96128a484611fd5565b612889565b611fd5565b9050919050565b6000819050919050565b6128c883612893565b6128dc6128d4826128b5565b848454612837565b825550505050565b600090565b6128f16128e4565b6128fc8184846128bf565b505050565b5b81811015612920576129156000826128e9565b600181019050612902565b5050565b601f8211156129655761293681612805565b61293f8461281a565b8101602085101561294e578190505b61296261295a8561281a565b830182612901565b50505b505050565b600082821c905092915050565b60006129886000198460080261296a565b1980831691505092915050565b60006129a18383612977565b9150826002028217905092915050565b6129ba8261225e565b67ffffffffffffffff8111156129d3576129d2612387565b5b6129dd82546127d4565b6129e8828285612924565b600060209050601f831160018114612a1b5760008415612a09578287015190505b612a138582612995565b865550612a7b565b601f198416612a2986612805565b60005b82811015612a5157848901518255600182019150602085019450602081019050612a2c565b86831015612a6e5784890151612a6a601f891682612977565b8355505b6001600288020188555050505b505050505050565b7f507572636861736520616d6f756e74206d75737420626520677265617465722060008201527f7468616e20300000000000000000000000000000000000000000000000000000602082015250565b6000612adf602683612269565b9150612aea82612a83565b604082019050919050565b60006020820190508181036000830152612b0e81612ad2565b9050919050565b7f496e76616c69642070726f647563742049440000000000000000000000000000600082015250565b6000612b4b601283612269565b9150612b5682612b15565b602082019050919050565b60006020820190508181036000830152612b7a81612b3e565b9050919050565b7f4e487b7100000000000000000000000000000000000000000000000000000000600052603260045260246000fd5b600081905092915050565b60008190508160005260206000209050919050565b60008154612bdd816127d4565b612be78186612bb0565b94506001821660008114612c025760018114612c1757612c4a565b60ff1983168652811515820286019350612c4a565b612c2085612bbb565b60005b83811015612c4257815481890152600182019150602081019050612c23565b838801955050505b50505092915050565b6000612c5f8284612bd0565b915081905092915050565b7f4e487b7100000000000000000000000000000000000000000000000000000000600052601160045260246000fd5b6000612ca482611fd5565b9150612caf83611fd5565b9250828202612cbd81611fd5565b91508282048414831517612cd457612cd3612c6a565b5b5092915050565b7f496e73756666696369656e742066756e64732073656e74000000000000000000600082015250565b6000612d11601783612269565b9150612d1c82612cdb565b602082019050919050565b60006020820190508181036000830152612d4081612d04565b9050919050565b6000612d5282611fd5565b9150612d5d83611fd5565b9250828203905081811115612d7557612d74612c6a565b5b92915050565b6000612d8682611fd5565b9150612d9183611fd5565b9250828201905080821115612da957612da8612c6a565b5b92915050565b6000612dba82611fd5565b91507fffffffffffffffffffffffffffffffffffffffffffffffffffffffffffffffff8203612dec57612deb612c6a565b5b600182019050919050565b7f4e487b7100000000000000000000000000000000000000000000000000000000600052601260045260246000fd5b6000612e3182611fd5565b9150612e3c83611fd5565b925082612e4c57612e4b612df7565b5b828204905092915050565b6000819050919050565b612e72612e6d82611fd5565b612e57565b82525050565b60008160601b9050919050565b6000612e9082612e78565b9050919050565b6000612ea282612e85565b9050919050565b612eba612eb582611f97565b612e97565b82525050565b6000612ecc8286612e61565b602082019150612edc8285612ea9565b601482019150612eec8284612e61565b602082019150819050949350505050565b6000612f0882611fd5565b9150612f1383611fd5565b925082612f2357612f22612df7565b5b828206905092915050565b7f4e6f7420656e6f7567682073746f636b20617661696c61626c65000000000000600082015250565b6000612f64601a83612269565b9150612f6f82612f2e565b602082019050919050565b60006020820190508181036000830152612f9381612f57565b9050919050565b600081905092915050565b6000612fb08261225e565b612fba8185612f9a565b9350612fca81856020860161227a565b80840191505092915050565b6000612fe28284612fa5565b91508190509291505056fea2646970667358221220ce472dbcc22f572c628a7d9549365b6ad519793e3c0ef84cb8a32f8987dc2ae064736f6c63430008120033",
					"opcodes": "PUSH1 0x80 PUSH1 0x40 MSTORE CALLVALUE DUP1 ISZERO PUSH2 0x10 JUMPI PUSH1 0x0 DUP1 REVERT JUMPDEST POP PUSH2 0x3023 DUP1 PUSH2 0x20 PUSH1 0x0 CODECOPY PUSH1 0x0 RETURN INVALID PUSH1 0x80 PUSH1 0x40 MSTORE PUSH1 0x4 CALLDATASIZE LT PUSH2 0xDD JUMPI PUSH1 0x0 CALLDATALOAD PUSH1 0xE0 SHR DUP1 PUSH4 0x805553E8 GT PUSH2 0x7F JUMPI DUP1 PUSH4 0xA1BA90B6 GT PUSH2 0x59 JUMPI DUP1 PUSH4 0xA1BA90B6 EQ PUSH2 0x27F JUMPI DUP1 PUSH4 0xA87430BA EQ PUSH2 0x2A8 JUMPI DUP1 PUSH4 0xD55768DD EQ PUSH2 0x2E6 JUMPI DUP1 PUSH4 0xF67A2AD1 EQ PUSH2 0x323 JUMPI PUSH2 0xDD JUMP JUMPDEST DUP1 PUSH4 0x805553E8 EQ PUSH2 0x1FB JUMPI DUP1 PUSH4 0x8DA5CB5B EQ PUSH2 0x238 JUMPI DUP1 PUSH4 0x9F1CD587 EQ PUSH2 0x263 JUMPI PUSH2 0xDD JUMP JUMPDEST DUP1 PUSH4 0x36DA4468 GT PUSH2 0xBB JUMPI DUP1 PUSH4 0x36DA4468 EQ PUSH2 0x150 JUMPI DUP1 PUSH4 0x3D527883 EQ PUSH2 0x17B JUMPI DUP1 PUSH4 0x410085DF EQ PUSH2 0x1BB JUMPI DUP1 PUSH4 0x66D0DC67 EQ PUSH2 0x1E4 JUMPI PUSH2 0xDD JUMP JUMPDEST DUP1 PUSH4 0x3194133 EQ PUSH2 0xE2 JUMPI DUP1 PUSH4 0x5103EDE EQ PUSH2 0x10B JUMPI DUP1 PUSH4 0x33AF9F8B EQ PUSH2 0x127 JUMPI JUMPDEST PUSH1 0x0 DUP1 REVERT JUMPDEST CALLVALUE DUP1 ISZERO PUSH2 0xEE JUMPI PUSH1 0x0 DUP1 REVERT JUMPDEST POP PUSH2 0x109 PUSH1 0x4 DUP1 CALLDATASIZE SUB DUP2 ADD SWAP1 PUSH2 0x104 SWAP2 SWAP1 PUSH2 0x2070 JUMP JUMPDEST PUSH2 0x34C JUMP JUMPDEST STOP JUMPDEST PUSH2 0x125 PUSH1 0x4 DUP1 CALLDATASIZE SUB DUP2 ADD SWAP1 PUSH2 0x120 SWAP2 SWAP1 PUSH2 0x210A JUMP JUMPDEST PUSH2 0x585 JUMP JUMPDEST STOP JUMPDEST CALLVALUE DUP1 ISZERO PUSH2 0x133 JUMPI PUSH1 0x0 DUP1 REVERT JUMPDEST POP PUSH2 0x14E PUSH1 0x4 DUP1 CALLDATASIZE SUB DUP2 ADD SWAP1 PUSH2 0x149 SWAP2 SWAP1 PUSH2 0x215D JUMP JUMPDEST PUSH2 0xBF8 JUMP JUMPDEST STOP JUMPDEST CALLVALUE DUP1 ISZERO PUSH2 0x15C JUMPI PUSH1 0x0 DUP1 REVERT JUMPDEST POP PUSH2 0x165 PUSH2 0xE1B JUMP JUMPDEST PUSH1 0x40 MLOAD PUSH2 0x172 SWAP2 SWAP1 PUSH2 0x21F4 JUMP JUMPDEST PUSH1 0x40 MLOAD DUP1 SWAP2 SUB SWAP1 RETURN JUMPDEST CALLVALUE DUP1 ISZERO PUSH2 0x187 JUMPI PUSH1 0x0 DUP1 REVERT JUMPDEST POP PUSH2 0x1A2 PUSH1 0x4 DUP1 CALLDATASIZE SUB DUP2 ADD SWAP1 PUSH2 0x19D SWAP2 SWAP1 PUSH2 0x220F JUMP JUMPDEST PUSH2 0xE41 JUMP JUMPDEST PUSH1 0x40 MLOAD PUSH2 0x1B2 SWAP5 SWAP4 SWAP3 SWAP2 SWAP1 PUSH2 0x22EE JUMP JUMPDEST PUSH1 0x40 MLOAD DUP1 SWAP2 SUB SWAP1 RETURN JUMPDEST CALLVALUE DUP1 ISZERO PUSH2 0x1C7 JUMPI PUSH1 0x0 DUP1 REVERT JUMPDEST POP PUSH2 0x1E2 PUSH1 0x4 DUP1 CALLDATASIZE SUB DUP2 ADD SWAP1 PUSH2 0x1DD SWAP2 SWAP1 PUSH2 0x220F JUMP JUMPDEST PUSH2 0xF16 JUMP JUMPDEST STOP JUMPDEST CALLVALUE DUP1 ISZERO PUSH2 0x1F0 JUMPI PUSH1 0x0 DUP1 REVERT JUMPDEST POP PUSH2 0x1F9 PUSH2 0x12E3 JUMP JUMPDEST STOP JUMPDEST CALLVALUE DUP1 ISZERO PUSH2 0x207 JUMPI PUSH1 0x0 DUP1 REVERT JUMPDEST POP PUSH2 0x222 PUSH1 0x4 DUP1 CALLDATASIZE SUB DUP2 ADD SWAP1 PUSH2 0x21D SWAP2 SWAP1 PUSH2 0x233A JUMP JUMPDEST PUSH2 0x138A JUMP JUMPDEST PUSH1 0x40 MLOAD PUSH2 0x22F SWAP2 SWAP1 PUSH2 0x2367 JUMP JUMPDEST PUSH1 0x40 MLOAD DUP1 SWAP2 SUB SWAP1 RETURN JUMPDEST CALLVALUE DUP1 ISZERO PUSH2 0x244 JUMPI PUSH1 0x0 DUP1 REVERT JUMPDEST POP PUSH2 0x24D PUSH2 0x13DC JUMP JUMPDEST PUSH1 0x40 MLOAD PUSH2 0x25A SWAP2 SWAP1 PUSH2 0x21F4 JUMP JUMPDEST PUSH1 0x40 MLOAD DUP1 SWAP2 SUB SWAP1 RETURN JUMPDEST PUSH2 0x27D PUSH1 0x4 DUP1 CALLDATASIZE SUB DUP2 ADD SWAP1 PUSH2 0x278 SWAP2 SWAP1 PUSH2 0x24B2 JUMP JUMPDEST PUSH2 0x1400 JUMP JUMPDEST STOP JUMPDEST CALLVALUE DUP1 ISZERO PUSH2 0x28B JUMPI PUSH1 0x0 DUP1 REVERT JUMPDEST POP PUSH2 0x2A6 PUSH1 0x4 DUP1 CALLDATASIZE SUB DUP2 ADD SWAP1 PUSH2 0x2A1 SWAP2 SWAP1 PUSH2 0x2535 JUMP JUMPDEST PUSH2 0x1D61 JUMP JUMPDEST STOP JUMPDEST CALLVALUE DUP1 ISZERO PUSH2 0x2B4 JUMPI PUSH1 0x0 DUP1 REVERT JUMPDEST POP PUSH2 0x2CF PUSH1 0x4 DUP1 CALLDATASIZE SUB DUP2 ADD SWAP1 PUSH2 0x2CA SWAP2 SWAP1 PUSH2 0x2591 JUMP JUMPDEST PUSH2 0x1DFA JUMP JUMPDEST PUSH1 0x40 MLOAD PUSH2 0x2DD SWAP3 SWAP2 SWAP1 PUSH2 0x2635 JUMP JUMPDEST PUSH1 0x40 MLOAD DUP1 SWAP2 SUB SWAP1 RETURN JUMPDEST CALLVALUE DUP1 ISZERO PUSH2 0x2F2 JUMPI PUSH1 0x0 DUP1 REVERT JUMPDEST POP PUSH2 0x30D PUSH1 0x4 DUP1 CALLDATASIZE SUB DUP2 ADD SWAP1 PUSH2 0x308 SWAP2 SWAP1 PUSH2 0x265E JUMP JUMPDEST PUSH2 0x1E2B JUMP JUMPDEST PUSH1 0x40 MLOAD PUSH2 0x31A SWAP2 SWAP1 PUSH2 0x21F4 JUMP JUMPDEST PUSH1 0x40 MLOAD DUP1 SWAP2 SUB SWAP1 RETURN JUMPDEST CALLVALUE DUP1 ISZERO PUSH2 0x32F JUMPI PUSH1 0x0 DUP1 REVERT JUMPDEST POP PUSH2 0x34A PUSH1 0x4 DUP1 CALLDATASIZE SUB DUP2 ADD SWAP1 PUSH2 0x345 SWAP2 SWAP1 PUSH2 0x2591 JUMP JUMPDEST PUSH2 0x1E74 JUMP JUMPDEST STOP JUMPDEST PUSH1 0x1 DUP7 DUP2 PUSH1 0x2 DUP2 GT ISZERO PUSH2 0x362 JUMPI PUSH2 0x361 PUSH2 0x25BE JUMP JUMPDEST JUMPDEST PUSH1 0x2 PUSH1 0x0 CALLER PUSH20 0xFFFFFFFFFFFFFFFFFFFFFFFFFFFFFFFFFFFFFFFF AND PUSH20 0xFFFFFFFFFFFFFFFFFFFFFFFFFFFFFFFFFFFFFFFF AND DUP2 MSTORE PUSH1 0x20 ADD SWAP1 DUP2 MSTORE PUSH1 0x20 ADD PUSH1 0x0 KECCAK256 PUSH1 0x0 ADD PUSH1 0x0 SWAP1 SLOAD SWAP1 PUSH2 0x100 EXP SWAP1 DIV PUSH1 0xFF AND PUSH1 0x2 DUP2 GT ISZERO PUSH2 0x3C4 JUMPI PUSH2 0x3C3 PUSH2 0x25BE JUMP JUMPDEST JUMPDEST EQ PUSH2 0x404 JUMPI PUSH1 0x40 MLOAD PUSH32 0x8C379A000000000000000000000000000000000000000000000000000000000 DUP2 MSTORE PUSH1 0x4 ADD PUSH2 0x3FB SWAP1 PUSH2 0x26CD JUMP JUMPDEST PUSH1 0x40 MLOAD DUP1 SWAP2 SUB SWAP1 REVERT JUMPDEST DUP1 PUSH20 0xFFFFFFFFFFFFFFFFFFFFFFFFFFFFFFFFFFFFFFFF AND CALLER PUSH20 0xFFFFFFFFFFFFFFFFFFFFFFFFFFFFFFFFFFFFFFFF AND EQ PUSH2 0x472 JUMPI PUSH1 0x40 MLOAD PUSH32 0x8C379A000000000000000000000000000000000000000000000000000000000 DUP2 MSTORE PUSH1 0x4 ADD PUSH2 0x469 SWAP1 PUSH2 0x2785 JUMP JUMPDEST PUSH1 0x40 MLOAD DUP1 SWAP2 SUB SWAP1 REVERT JUMPDEST PUSH1 0x0 PUSH1 0x40 MLOAD DUP1 PUSH1 0x80 ADD PUSH1 0x40 MSTORE DUP1 DUP10 DUP2 MSTORE PUSH1 0x20 ADD DUP9 DUP2 MSTORE PUSH1 0x20 ADD DUP8 DUP8 DUP1 DUP1 PUSH1 0x1F ADD PUSH1 0x20 DUP1 SWAP2 DIV MUL PUSH1 0x20 ADD PUSH1 0x40 MLOAD SWAP1 DUP2 ADD PUSH1 0x40 MSTORE DUP1 SWAP4 SWAP3 SWAP2 SWAP1 DUP2 DUP2 MSTORE PUSH1 0x20 ADD DUP4 DUP4 DUP1 DUP3 DUP5 CALLDATACOPY PUSH1 0x0 DUP2 DUP5 ADD MSTORE PUSH1 0x1F NOT PUSH1 0x1F DUP3 ADD AND SWAP1 POP DUP1 DUP4 ADD SWAP3 POP POP POP POP POP POP POP DUP2 MSTORE PUSH1 0x20 ADD DUP6 DUP2 MSTORE POP SWAP1 POP PUSH1 0x3 PUSH1 0x0 DUP11 PUSH20 0xFFFFFFFFFFFFFFFFFFFFFFFFFFFFFFFFFFFFFFFF AND PUSH20 0xFFFFFFFFFFFFFFFFFFFFFFFFFFFFFFFFFFFFFFFF AND DUP2 MSTORE PUSH1 0x20 ADD SWAP1 DUP2 MSTORE PUSH1 0x20 ADD PUSH1 0x0 KECCAK256 DUP2 SWAP1 DUP1 PUSH1 0x1 DUP2 SLOAD ADD DUP1 DUP3 SSTORE DUP1 SWAP2 POP POP PUSH1 0x1 SWAP1 SUB SWAP1 PUSH1 0x0 MSTORE PUSH1 0x20 PUSH1 0x0 KECCAK256 SWAP1 PUSH1 0x4 MUL ADD PUSH1 0x0 SWAP1 SWAP2 SWAP1 SWAP2 SWAP1 SWAP2 POP PUSH1 0x0 DUP3 ADD MLOAD DUP2 PUSH1 0x0 ADD SSTORE PUSH1 0x20 DUP3 ADD MLOAD DUP2 PUSH1 0x1 ADD SSTORE PUSH1 0x40 DUP3 ADD MLOAD DUP2 PUSH1 0x2 ADD SWAP1 DUP2 PUSH2 0x56D SWAP2 SWAP1 PUSH2 0x29B1 JUMP JUMPDEST POP PUSH1 0x60 DUP3 ADD MLOAD DUP2 PUSH1 0x3 ADD SSTORE POP POP POP POP POP POP POP POP POP POP POP JUMP JUMPDEST PUSH1 0x1 DUP4 DUP2 PUSH1 0x2 DUP2 GT ISZERO PUSH2 0x59B JUMPI PUSH2 0x59A PUSH2 0x25BE JUMP JUMPDEST JUMPDEST PUSH1 0x2 PUSH1 0x0 CALLER PUSH20 0xFFFFFFFFFFFFFFFFFFFFFFFFFFFFFFFFFFFFFFFF AND PUSH20 0xFFFFFFFFFFFFFFFFFFFFFFFFFFFFFFFFFFFFFFFF AND DUP2 MSTORE PUSH1 0x20 ADD SWAP1 DUP2 MSTORE PUSH1 0x20 ADD PUSH1 0x0 KECCAK256 PUSH1 0x0 ADD PUSH1 0x0 SWAP1 SLOAD SWAP1 PUSH2 0x100 EXP SWAP1 DIV PUSH1 0xFF AND PUSH1 0x2 DUP2 GT ISZERO PUSH2 0x5FD JUMPI PUSH2 0x5FC PUSH2 0x25BE JUMP JUMPDEST JUMPDEST EQ PUSH2 0x63D JUMPI PUSH1 0x40 MLOAD PUSH32 0x8C379A000000000000000000000000000000000000000000000000000000000 DUP2 MSTORE PUSH1 0x4 ADD PUSH2 0x634 SWAP1 PUSH2 0x26CD JUMP JUMPDEST PUSH1 0x40 MLOAD DUP1 SWAP2 SUB SWAP1 REVERT JUMPDEST DUP1 PUSH20 0xFFFFFFFFFFFFFFFFFFFFFFFFFFFFFFFFFFFFFFFF AND CALLER PUSH20 0xFFFFFFFFFFFFFFFFFFFFFFFFFFFFFFFFFFFFFFFF AND EQ PUSH2 0x6AB JUMPI PUSH1 0x40 MLOAD PUSH32 0x8C379A000000000000000000000000000000000000000000000000000000000 DUP2 MSTORE PUSH1 0x4 ADD PUSH2 0x6A2 SWAP1 PUSH2 0x2785 JUMP JUMPDEST PUSH1 0x40 MLOAD DUP1 SWAP2 SUB SWAP1 REVERT JUMPDEST PUSH1 0x0 DUP4 GT PUSH2 0x6EE JUMPI PUSH1 0x40 MLOAD PUSH32 0x8C379A000000000000000000000000000000000000000000000000000000000 DUP2 MSTORE PUSH1 0x4 ADD PUSH2 0x6E5 SWAP1 PUSH2 0x2AF5 JUMP JUMPDEST PUSH1 0x40 MLOAD DUP1 SWAP2 SUB SWAP1 REVERT JUMPDEST PUSH1 0x3 PUSH1 0x0 DUP7 PUSH20 0xFFFFFFFFFFFFFFFFFFFFFFFFFFFFFFFFFFFFFFFF AND PUSH20 0xFFFFFFFFFFFFFFFFFFFFFFFFFFFFFFFFFFFFFFFF AND DUP2 MSTORE PUSH1 0x20 ADD SWAP1 DUP2 MSTORE PUSH1 0x20 ADD PUSH1 0x0 KECCAK256 DUP1 SLOAD SWAP1 POP DUP5 LT PUSH2 0x772 JUMPI PUSH1 0x40 MLOAD PUSH32 0x8C379A000000000000000000000000000000000000000000000000000000000 DUP2 MSTORE PUSH1 0x4 ADD PUSH2 0x769 SWAP1 PUSH2 0x2B61 JUMP JUMPDEST PUSH1 0x40 MLOAD DUP1 SWAP2 SUB SWAP1 REVERT JUMPDEST PUSH1 0x0 DUP1 PUSH1 0x0 PUSH1 0x3 PUSH1 0x0 DUP10 PUSH20 0xFFFFFFFFFFFFFFFFFFFFFFFFFFFFFFFFFFFFFFFF AND PUSH20 0xFFFFFFFFFFFFFFFFFFFFFFFFFFFFFFFFFFFFFFFF AND DUP2 MSTORE PUSH1 0x20 ADD SWAP1 DUP2 MSTORE PUSH1 0x20 ADD PUSH1 0x0 KECCAK256 DUP8 DUP2 SLOAD DUP2 LT PUSH2 0x7C8 JUMPI PUSH2 0x7C7 PUSH2 0x2B81 JUMP JUMPDEST JUMPDEST SWAP1 PUSH1 0x0 MSTORE PUSH1 0x20 PUSH1 0x0 KECCAK256 SWAP1 PUSH1 0x4 MUL ADD PUSH1 0x2 ADD DUP1 SLOAD PUSH2 0x7E4 SWAP1 PUSH2 0x27D4 JUMP JUMPDEST DUP1 PUSH1 0x1F ADD PUSH1 0x20 DUP1 SWAP2 DIV MUL PUSH1 0x20 ADD PUSH1 0x40 MLOAD SWAP1 DUP2 ADD PUSH1 0x40 MSTORE DUP1 SWAP3 SWAP2 SWAP1 DUP2 DUP2 MSTORE PUSH1 0x20 ADD DUP3 DUP1 SLOAD PUSH2 0x810 SWAP1 PUSH2 0x27D4 JUMP JUMPDEST DUP1 ISZERO PUSH2 0x85D JUMPI DUP1 PUSH1 0x1F LT PUSH2 0x832 JUMPI PUSH2 0x100 DUP1 DUP4 SLOAD DIV MUL DUP4 MSTORE SWAP2 PUSH1 0x20 ADD SWAP2 PUSH2 0x85D JUMP JUMPDEST DUP3 ADD SWAP2 SWAP1 PUSH1 0x0 MSTORE PUSH1 0x20 PUSH1 0x0 KECCAK256 SWAP1 JUMPDEST DUP2 SLOAD DUP2 MSTORE SWAP1 PUSH1 0x1 ADD SWAP1 PUSH1 0x20 ADD DUP1 DUP4 GT PUSH2 0x840 JUMPI DUP3 SWAP1 SUB PUSH1 0x1F AND DUP3 ADD SWAP2 JUMPDEST POP POP POP POP POP SWAP1 POP PUSH1 0x0 JUMPDEST PUSH1 0x3 PUSH1 0x0 PUSH1 0x1 PUSH1 0x0 SWAP1 SLOAD SWAP1 PUSH2 0x100 EXP SWAP1 DIV PUSH20 0xFFFFFFFFFFFFFFFFFFFFFFFFFFFFFFFFFFFFFFFF AND PUSH20 0xFFFFFFFFFFFFFFFFFFFFFFFFFFFFFFFFFFFFFFFF AND PUSH20 0xFFFFFFFFFFFFFFFFFFFFFFFFFFFFFFFFFFFFFFFF AND DUP2 MSTORE PUSH1 0x20 ADD SWAP1 DUP2 MSTORE PUSH1 0x20 ADD PUSH1 0x0 KECCAK256 DUP1 SLOAD SWAP1 POP DUP2 LT ISZERO PUSH2 0xB8C JUMPI PUSH1 0x3 PUSH1 0x0 PUSH1 0x1 PUSH1 0x0 SWAP1 SLOAD SWAP1 PUSH2 0x100 EXP SWAP1 DIV PUSH20 0xFFFFFFFFFFFFFFFFFFFFFFFFFFFFFFFFFFFFFFFF AND PUSH20 0xFFFFFFFFFFFFFFFFFFFFFFFFFFFFFFFFFFFFFFFF AND PUSH20 0xFFFFFFFFFFFFFFFFFFFFFFFFFFFFFFFFFFFFFFFF AND DUP2 MSTORE PUSH1 0x20 ADD SWAP1 DUP2 MSTORE PUSH1 0x20 ADD PUSH1 0x0 KECCAK256 DUP2 DUP2 SLOAD DUP2 LT PUSH2 0x946 JUMPI PUSH2 0x945 PUSH2 0x2B81 JUMP JUMPDEST JUMPDEST SWAP1 PUSH1 0x0 MSTORE PUSH1 0x20 PUSH1 0x0 KECCAK256 SWAP1 PUSH1 0x4 MUL ADD PUSH1 0x2 ADD PUSH1 0x40 MLOAD PUSH2 0x964 SWAP2 SWAP1 PUSH2 0x2C53 JUMP JUMPDEST PUSH1 0x40 MLOAD DUP1 SWAP2 SUB SWAP1 KECCAK256 DUP3 DUP1 MLOAD SWAP1 PUSH1 0x20 ADD KECCAK256 SUB PUSH2 0xB79 JUMPI PUSH1 0x3 PUSH1 0x0 PUSH1 0x1 PUSH1 0x0 SWAP1 SLOAD SWAP1 PUSH2 0x100 EXP SWAP1 DIV PUSH20 0xFFFFFFFFFFFFFFFFFFFFFFFFFFFFFFFFFFFFFFFF AND PUSH20 0xFFFFFFFFFFFFFFFFFFFFFFFFFFFFFFFFFFFFFFFF AND PUSH20 0xFFFFFFFFFFFFFFFFFFFFFFFFFFFFFFFFFFFFFFFF AND DUP2 MSTORE PUSH1 0x20 ADD SWAP1 DUP2 MSTORE PUSH1 0x20 ADD PUSH1 0x0 KECCAK256 DUP2 DUP2 SLOAD DUP2 LT PUSH2 0x9EC JUMPI PUSH2 0x9EB PUSH2 0x2B81 JUMP JUMPDEST JUMPDEST SWAP1 PUSH1 0x0 MSTORE PUSH1 0x20 PUSH1 0x0 KECCAK256 SWAP1 PUSH1 0x4 MUL ADD PUSH1 0x1 ADD SLOAD SWAP3 POP PUSH8 0xDE0B6B3A7640000 DUP8 DUP5 PUSH2 0xA15 SWAP2 SWAP1 PUSH2 0x2C99 JUMP JUMPDEST PUSH2 0xA1F SWAP2 SWAP1 PUSH2 0x2C99 JUMP JUMPDEST SWAP4 POP DUP4 CALLVALUE LT ISZERO PUSH2 0xA64 JUMPI PUSH1 0x40 MLOAD PUSH32 0x8C379A000000000000000000000000000000000000000000000000000000000 DUP2 MSTORE PUSH1 0x4 ADD PUSH2 0xA5B SWAP1 PUSH2 0x2D27 JUMP JUMPDEST PUSH1 0x40 MLOAD DUP1 SWAP2 SUB SWAP1 REVERT JUMPDEST DUP7 PUSH1 0x3 PUSH1 0x0 PUSH1 0x1 PUSH1 0x0 SWAP1 SLOAD SWAP1 PUSH2 0x100 EXP SWAP1 DIV PUSH20 0xFFFFFFFFFFFFFFFFFFFFFFFFFFFFFFFFFFFFFFFF AND PUSH20 0xFFFFFFFFFFFFFFFFFFFFFFFFFFFFFFFFFFFFFFFF AND PUSH20 0xFFFFFFFFFFFFFFFFFFFFFFFFFFFFFFFFFFFFFFFF AND DUP2 MSTORE PUSH1 0x20 ADD SWAP1 DUP2 MSTORE PUSH1 0x20 ADD PUSH1 0x0 KECCAK256 DUP3 DUP2 SLOAD DUP2 LT PUSH2 0xAD8 JUMPI PUSH2 0xAD7 PUSH2 0x2B81 JUMP JUMPDEST JUMPDEST SWAP1 PUSH1 0x0 MSTORE PUSH1 0x20 PUSH1 0x0 KECCAK256 SWAP1 PUSH1 0x4 MUL ADD PUSH1 0x0 ADD PUSH1 0x0 DUP3 DUP3 SLOAD PUSH2 0xAF8 SWAP2 SWAP1 PUSH2 0x2D47 JUMP JUMPDEST SWAP3 POP POP DUP2 SWAP1 SSTORE POP DUP7 PUSH1 0x3 PUSH1 0x0 DUP12 PUSH20 0xFFFFFFFFFFFFFFFFFFFFFFFFFFFFFFFFFFFFFFFF AND PUSH20 0xFFFFFFFFFFFFFFFFFFFFFFFFFFFFFFFFFFFFFFFF AND DUP2 MSTORE PUSH1 0x20 ADD SWAP1 DUP2 MSTORE PUSH1 0x20 ADD PUSH1 0x0 KECCAK256 DUP10 DUP2 SLOAD DUP2 LT PUSH2 0xB51 JUMPI PUSH2 0xB50 PUSH2 0x2B81 JUMP JUMPDEST JUMPDEST SWAP1 PUSH1 0x0 MSTORE PUSH1 0x20 PUSH1 0x0 KECCAK256 SWAP1 PUSH1 0x4 MUL ADD PUSH1 0x0 ADD PUSH1 0x0 DUP3 DUP3 SLOAD PUSH2 0xB71 SWAP2 SWAP1 PUSH2 0x2D7B JUMP JUMPDEST SWAP3 POP POP DUP2 SWAP1 SSTORE POP JUMPDEST DUP1 DUP1 PUSH2 0xB84 SWAP1 PUSH2 0x2DAF JUMP JUMPDEST SWAP2 POP POP PUSH2 0x867 JUMP JUMPDEST POP DUP3 CALLVALUE GT ISZERO PUSH2 0xBEE JUMPI PUSH1 0x0 DUP4 CALLVALUE PUSH2 0xBA3 SWAP2 SWAP1 PUSH2 0x2D47 JUMP JUMPDEST SWAP1 POP CALLER PUSH20 0xFFFFFFFFFFFFFFFFFFFFFFFFFFFFFFFFFFFFFFFF AND PUSH2 0x8FC DUP3 SWAP1 DUP2 ISZERO MUL SWAP1 PUSH1 0x40 MLOAD PUSH1 0x0 PUSH1 0x40 MLOAD DUP1 DUP4 SUB DUP2 DUP6 DUP9 DUP9 CALL SWAP4 POP POP POP POP ISZERO DUP1 ISZERO PUSH2 0xBEB JUMPI RETURNDATASIZE PUSH1 0x0 DUP1 RETURNDATACOPY RETURNDATASIZE PUSH1 0x0 REVERT JUMPDEST POP POP JUMPDEST POP POP POP POP POP POP POP POP JUMP JUMPDEST CALLER PUSH1 0x1 PUSH1 0x0 PUSH2 0x100 EXP DUP2 SLOAD DUP2 PUSH20 0xFFFFFFFFFFFFFFFFFFFFFFFFFFFFFFFFFFFFFFFF MUL NOT AND SWAP1 DUP4 PUSH20 0xFFFFFFFFFFFFFFFFFFFFFFFFFFFFFFFFFFFFFFFF AND MUL OR SWAP1 SSTORE POP PUSH1 0x40 MLOAD DUP1 PUSH1 0x40 ADD PUSH1 0x40 MSTORE DUP1 PUSH1 0x2 DUP1 DUP2 GT ISZERO PUSH2 0xC57 JUMPI PUSH2 0xC56 PUSH2 0x25BE JUMP JUMPDEST JUMPDEST DUP2 MSTORE PUSH1 0x20 ADD PUSH1 0x0 DUP2 MSTORE POP PUSH1 0x2 PUSH1 0x0 PUSH1 0x1 PUSH1 0x0 SWAP1 SLOAD SWAP1 PUSH2 0x100 EXP SWAP1 DIV PUSH20 0xFFFFFFFFFFFFFFFFFFFFFFFFFFFFFFFFFFFFFFFF AND PUSH20 0xFFFFFFFFFFFFFFFFFFFFFFFFFFFFFFFFFFFFFFFF AND PUSH20 0xFFFFFFFFFFFFFFFFFFFFFFFFFFFFFFFFFFFFFFFF AND DUP2 MSTORE PUSH1 0x20 ADD SWAP1 DUP2 MSTORE PUSH1 0x20 ADD PUSH1 0x0 KECCAK256 PUSH1 0x0 DUP3 ADD MLOAD DUP2 PUSH1 0x0 ADD PUSH1 0x0 PUSH2 0x100 EXP DUP2 SLOAD DUP2 PUSH1 0xFF MUL NOT AND SWAP1 DUP4 PUSH1 0x2 DUP2 GT ISZERO PUSH2 0xCED JUMPI PUSH2 0xCEC PUSH2 0x25BE JUMP JUMPDEST JUMPDEST MUL OR SWAP1 SSTORE POP PUSH1 0x20 DUP3 ADD MLOAD DUP2 PUSH1 0x1 ADD SSTORE SWAP1 POP POP PUSH1 0x0 PUSH1 0x40 MLOAD DUP1 PUSH1 0x80 ADD PUSH1 0x40 MSTORE DUP1 DUP8 DUP2 MSTORE PUSH1 0x20 ADD PUSH1 0x2 DUP8 PUSH2 0xD1F SWAP2 SWAP1 PUSH2 0x2E26 JUMP JUMPDEST DUP2 MSTORE PUSH1 0x20 ADD DUP6 DUP6 DUP1 DUP1 PUSH1 0x1F ADD PUSH1 0x20 DUP1 SWAP2 DIV MUL PUSH1 0x20 ADD PUSH1 0x40 MLOAD SWAP1 DUP2 ADD PUSH1 0x40 MSTORE DUP1 SWAP4 SWAP3 SWAP2 SWAP1 DUP2 DUP2 MSTORE PUSH1 0x20 ADD DUP4 DUP4 DUP1 DUP3 DUP5 CALLDATACOPY PUSH1 0x0 DUP2 DUP5 ADD MSTORE PUSH1 0x1F NOT PUSH1 0x1F DUP3 ADD AND SWAP1 POP DUP1 DUP4 ADD SWAP3 POP POP POP POP POP POP POP DUP2 MSTORE PUSH1 0x20 ADD DUP4 DUP2 MSTORE POP SWAP1 POP PUSH1 0x3 PUSH1 0x0 CALLER PUSH20 0xFFFFFFFFFFFFFFFFFFFFFFFFFFFFFFFFFFFFFFFF AND PUSH20 0xFFFFFFFFFFFFFFFFFFFFFFFFFFFFFFFFFFFFFFFF AND DUP2 MSTORE PUSH1 0x20 ADD SWAP1 DUP2 MSTORE PUSH1 0x20 ADD PUSH1 0x0 KECCAK256 DUP2 SWAP1 DUP1 PUSH1 0x1 DUP2 SLOAD ADD DUP1 DUP3 SSTORE DUP1 SWAP2 POP POP PUSH1 0x1 SWAP1 SUB SWAP1 PUSH1 0x0 MSTORE PUSH1 0x20 PUSH1 0x0 KECCAK256 SWAP1 PUSH1 0x4 MUL ADD PUSH1 0x0 SWAP1 SWAP2 SWAP1 SWAP2 SWAP1 SWAP2 POP PUSH1 0x0 DUP3 ADD MLOAD DUP2 PUSH1 0x0 ADD SSTORE PUSH1 0x20 DUP3 ADD MLOAD DUP2 PUSH1 0x1 ADD SSTORE PUSH1 0x40 DUP3 ADD MLOAD DUP2 PUSH1 0x2 ADD SWAP1 DUP2 PUSH2 0xE06 SWAP2 SWAP1 PUSH2 0x29B1 JUMP JUMPDEST POP PUSH1 0x60 DUP3 ADD MLOAD DUP2 PUSH1 0x3 ADD SSTORE POP POP POP POP POP POP POP POP JUMP JUMPDEST PUSH1 0x1 PUSH1 0x0 SWAP1 SLOAD SWAP1 PUSH2 0x100 EXP SWAP1 DIV PUSH20 0xFFFFFFFFFFFFFFFFFFFFFFFFFFFFFFFFFFFFFFFF AND DUP2 JUMP JUMPDEST PUSH1 0x3 PUSH1 0x20 MSTORE DUP2 PUSH1 0x0 MSTORE PUSH1 0x40 PUSH1 0x0 KECCAK256 DUP2 DUP2 SLOAD DUP2 LT PUSH2 0xE5D JUMPI PUSH1 0x0 DUP1 REVERT JUMPDEST SWAP1 PUSH1 0x0 MSTORE PUSH1 0x20 PUSH1 0x0 KECCAK256 SWAP1 PUSH1 0x4 MUL ADD PUSH1 0x0 SWAP2 POP SWAP2 POP POP DUP1 PUSH1 0x0 ADD SLOAD SWAP1 DUP1 PUSH1 0x1 ADD SLOAD SWAP1 DUP1 PUSH1 0x2 ADD DUP1 SLOAD PUSH2 0xE8D SWAP1 PUSH2 0x27D4 JUMP JUMPDEST DUP1 PUSH1 0x1F ADD PUSH1 0x20 DUP1 SWAP2 DIV MUL PUSH1 0x20 ADD PUSH1 0x40 MLOAD SWAP1 DUP2 ADD PUSH1 0x40 MSTORE DUP1 SWAP3 SWAP2 SWAP1 DUP2 DUP2 MSTORE PUSH1 0x20 ADD DUP3 DUP1 SLOAD PUSH2 0xEB9 SWAP1 PUSH2 0x27D4 JUMP JUMPDEST DUP1 ISZERO PUSH2 0xF06 JUMPI DUP1 PUSH1 0x1F LT PUSH2 0xEDB JUMPI PUSH2 0x100 DUP1 DUP4 SLOAD DIV MUL DUP4 MSTORE SWAP2 PUSH1 0x20 ADD SWAP2 PUSH2 0xF06 JUMP JUMPDEST DUP3 ADD SWAP2 SWAP1 PUSH1 0x0 MSTORE PUSH1 0x20 PUSH1 0x0 KECCAK256 SWAP1 JUMPDEST DUP2 SLOAD DUP2 MSTORE SWAP1 PUSH1 0x1 ADD SWAP1 PUSH1 0x20 ADD DUP1 DUP4 GT PUSH2 0xEE9 JUMPI DUP3 SWAP1 SUB PUSH1 0x1F AND DUP3 ADD SWAP2 JUMPDEST POP POP POP POP POP SWAP1 DUP1 PUSH1 0x3 ADD SLOAD SWAP1 POP DUP5 JUMP JUMPDEST PUSH1 0x0 PUSH1 0x3 PUSH1 0x0 CALLER PUSH20 0xFFFFFFFFFFFFFFFFFFFFFFFFFFFFFFFFFFFFFFFF AND PUSH20 0xFFFFFFFFFFFFFFFFFFFFFFFFFFFFFFFFFFFFFFFF AND DUP2 MSTORE PUSH1 0x20 ADD SWAP1 DUP2 MSTORE PUSH1 0x20 ADD PUSH1 0x0 KECCAK256 DUP3 DUP2 SLOAD DUP2 LT PUSH2 0xF69 JUMPI PUSH2 0xF68 PUSH2 0x2B81 JUMP JUMPDEST JUMPDEST SWAP1 PUSH1 0x0 MSTORE PUSH1 0x20 PUSH1 0x0 KECCAK256 SWAP1 PUSH1 0x4 MUL ADD PUSH1 0x3 ADD SLOAD SWAP1 POP PUSH1 0x0 PUSH1 0x3 PUSH1 0x0 DUP6 PUSH20 0xFFFFFFFFFFFFFFFFFFFFFFFFFFFFFFFFFFFFFFFF AND PUSH20 0xFFFFFFFFFFFFFFFFFFFFFFFFFFFFFFFFFFFFFFFF AND DUP2 MSTORE PUSH1 0x20 ADD SWAP1 DUP2 MSTORE PUSH1 0x20 ADD PUSH1 0x0 KECCAK256 DUP4 DUP2 SLOAD DUP2 LT PUSH2 0xFD0 JUMPI PUSH2 0xFCF PUSH2 0x2B81 JUMP JUMPDEST JUMPDEST SWAP1 PUSH1 0x0 MSTORE PUSH1 0x20 PUSH1 0x0 KECCAK256 SWAP1 PUSH1 0x4 MUL ADD PUSH1 0x3 ADD SLOAD SWAP1 POP DUP1 DUP3 GT PUSH2 0xFF0 JUMPI PUSH1 0x0 DUP1 REVERT JUMPDEST PUSH1 0x0 PUSH8 0xDE0B6B3A7640000 PUSH1 0x3 PUSH1 0x0 DUP8 PUSH20 0xFFFFFFFFFFFFFFFFFFFFFFFFFFFFFFFFFFFFFFFF AND PUSH20 0xFFFFFFFFFFFFFFFFFFFFFFFFFFFFFFFFFFFFFFFF AND DUP2 MSTORE PUSH1 0x20 ADD SWAP1 DUP2 MSTORE PUSH1 0x20 ADD PUSH1 0x0 KECCAK256 DUP6 DUP2 SLOAD DUP2 LT PUSH2 0x104C JUMPI PUSH2 0x104B PUSH2 0x2B81 JUMP JUMPDEST JUMPDEST SWAP1 PUSH1 0x0 MSTORE PUSH1 0x20 PUSH1 0x0 KECCAK256 SWAP1 PUSH1 0x4 MUL ADD PUSH1 0x1 ADD SLOAD PUSH1 0x3 PUSH1 0x0 CALLER PUSH20 0xFFFFFFFFFFFFFFFFFFFFFFFFFFFFFFFFFFFFFFFF AND PUSH20 0xFFFFFFFFFFFFFFFFFFFFFFFFFFFFFFFFFFFFFFFF AND DUP2 MSTORE PUSH1 0x20 ADD SWAP1 DUP2 MSTORE PUSH1 0x20 ADD PUSH1 0x0 KECCAK256 DUP7 DUP2 SLOAD DUP2 LT PUSH2 0x10AF JUMPI PUSH2 0x10AE PUSH2 0x2B81 JUMP JUMPDEST JUMPDEST SWAP1 PUSH1 0x0 MSTORE PUSH1 0x20 PUSH1 0x0 KECCAK256 SWAP1 PUSH1 0x4 MUL ADD PUSH1 0x0 ADD SLOAD PUSH2 0x10CB SWAP2 SWAP1 PUSH2 0x2C99 JUMP JUMPDEST PUSH2 0x10D5 SWAP2 SWAP1 PUSH2 0x2C99 JUMP JUMPDEST SWAP1 POP PUSH1 0x3 PUSH1 0x0 CALLER PUSH20 0xFFFFFFFFFFFFFFFFFFFFFFFFFFFFFFFFFFFFFFFF AND PUSH20 0xFFFFFFFFFFFFFFFFFFFFFFFFFFFFFFFFFFFFFFFF AND DUP2 MSTORE PUSH1 0x20 ADD SWAP1 DUP2 MSTORE PUSH1 0x20 ADD PUSH1 0x0 KECCAK256 DUP5 DUP2 SLOAD DUP2 LT PUSH2 0x1128 JUMPI PUSH2 0x1127 PUSH2 0x2B81 JUMP JUMPDEST JUMPDEST SWAP1 PUSH1 0x0 MSTORE PUSH1 0x20 PUSH1 0x0 KECCAK256 SWAP1 PUSH1 0x4 MUL ADD PUSH1 0x0 ADD SLOAD PUSH1 0x3 PUSH1 0x0 DUP8 PUSH20 0xFFFFFFFFFFFFFFFFFFFFFFFFFFFFFFFFFFFFFFFF AND PUSH20 0xFFFFFFFFFFFFFFFFFFFFFFFFFFFFFFFFFFFFFFFF AND DUP2 MSTORE PUSH1 0x20 ADD SWAP1 DUP2 MSTORE PUSH1 0x20 ADD PUSH1 0x0 KECCAK256 DUP6 DUP2 SLOAD DUP2 LT PUSH2 0x118B JUMPI PUSH2 0x118A PUSH2 0x2B81 JUMP JUMPDEST JUMPDEST SWAP1 PUSH1 0x0 MSTORE PUSH1 0x20 PUSH1 0x0 KECCAK256 SWAP1 PUSH1 0x4 MUL ADD PUSH1 0x0 ADD PUSH1 0x0 DUP3 DUP3 SLOAD PUSH2 0x11AB SWAP2 SWAP1 PUSH2 0x2D7B JUMP JUMPDEST SWAP3 POP POP DUP2 SWAP1 SSTORE POP PUSH1 0x3 PUSH1 0x0 CALLER PUSH20 0xFFFFFFFFFFFFFFFFFFFFFFFFFFFFFFFFFFFFFFFF AND PUSH20 0xFFFFFFFFFFFFFFFFFFFFFFFFFFFFFFFFFFFFFFFF AND DUP2 MSTORE PUSH1 0x20 ADD SWAP1 DUP2 MSTORE PUSH1 0x20 ADD PUSH1 0x0 KECCAK256 DUP5 DUP2 SLOAD DUP2 LT PUSH2 0x1203 JUMPI PUSH2 0x1202 PUSH2 0x2B81 JUMP JUMPDEST JUMPDEST SWAP1 PUSH1 0x0 MSTORE PUSH1 0x20 PUSH1 0x0 KECCAK256 SWAP1 PUSH1 0x4 MUL ADD PUSH1 0x0 DUP1 DUP3 ADD PUSH1 0x0 SWAP1 SSTORE PUSH1 0x1 DUP3 ADD PUSH1 0x0 SWAP1 SSTORE PUSH1 0x2 DUP3 ADD PUSH1 0x0 PUSH2 0x1232 SWAP2 SWAP1 PUSH2 0x1F06 JUMP JUMPDEST PUSH1 0x3 DUP3 ADD PUSH1 0x0 SWAP1 SSTORE POP POP DUP1 PUSH1 0x2 PUSH1 0x0 DUP8 PUSH20 0xFFFFFFFFFFFFFFFFFFFFFFFFFFFFFFFFFFFFFFFF AND PUSH20 0xFFFFFFFFFFFFFFFFFFFFFFFFFFFFFFFFFFFFFFFF AND DUP2 MSTORE PUSH1 0x20 ADD SWAP1 DUP2 MSTORE PUSH1 0x20 ADD PUSH1 0x0 KECCAK256 PUSH1 0x1 ADD PUSH1 0x0 DUP3 DUP3 SLOAD PUSH2 0x128E SWAP2 SWAP1 PUSH2 0x2D47 JUMP JUMPDEST SWAP3 POP POP DUP2 SWAP1 SSTORE POP CALLER PUSH20 0xFFFFFFFFFFFFFFFFFFFFFFFFFFFFFFFFFFFFFFFF AND PUSH2 0x8FC DUP3 SWAP1 DUP2 ISZERO MUL SWAP1 PUSH1 0x40 MLOAD PUSH1 0x0 PUSH1 0x40 MLOAD DUP1 DUP4 SUB DUP2 DUP6 DUP9 DUP9 CALL SWAP4 POP POP POP POP ISZERO DUP1 ISZERO PUSH2 0x12DB JUMPI RETURNDATASIZE PUSH1 0x0 DUP1 RETURNDATACOPY RETURNDATASIZE PUSH1 0x0 REVERT JUMPDEST POP POP POP POP POP POP JUMP JUMPDEST PUSH1 0x40 MLOAD DUP1 PUSH1 0x40 ADD PUSH1 0x40 MSTORE DUP1 PUSH1 0x1 PUSH1 0x2 DUP2 GT ISZERO PUSH2 0x1302 JUMPI PUSH2 0x1301 PUSH2 0x25BE JUMP JUMPDEST JUMPDEST DUP2 MSTORE PUSH1 0x20 ADD PUSH1 0x0 DUP2 MSTORE POP PUSH1 0x2 PUSH1 0x0 CALLER PUSH20 0xFFFFFFFFFFFFFFFFFFFFFFFFFFFFFFFFFFFFFFFF AND PUSH20 0xFFFFFFFFFFFFFFFFFFFFFFFFFFFFFFFFFFFFFFFF AND DUP2 MSTORE PUSH1 0x20 ADD SWAP1 DUP2 MSTORE PUSH1 0x20 ADD PUSH1 0x0 KECCAK256 PUSH1 0x0 DUP3 ADD MLOAD DUP2 PUSH1 0x0 ADD PUSH1 0x0 PUSH2 0x100 EXP DUP2 SLOAD DUP2 PUSH1 0xFF MUL NOT AND SWAP1 DUP4 PUSH1 0x2 DUP2 GT ISZERO PUSH2 0x1376 JUMPI PUSH2 0x1375 PUSH2 0x25BE JUMP JUMPDEST JUMPDEST MUL OR SWAP1 SSTORE POP PUSH1 0x20 DUP3 ADD MLOAD DUP2 PUSH1 0x1 ADD SSTORE SWAP1 POP POP JUMP JUMPDEST PUSH1 0x0 DUP1 DUP1 DUP1 PUSH2 0x1398 SWAP1 PUSH2 0x2DAF JUMP JUMPDEST SWAP2 POP POP DUP3 TIMESTAMP CALLER DUP4 PUSH1 0x40 MLOAD PUSH1 0x20 ADD PUSH2 0x13B1 SWAP4 SWAP3 SWAP2 SWAP1 PUSH2 0x2EC0 JUMP JUMPDEST PUSH1 0x40 MLOAD PUSH1 0x20 DUP2 DUP4 SUB SUB DUP2 MSTORE SWAP1 PUSH1 0x40 MSTORE DUP1 MLOAD SWAP1 PUSH1 0x20 ADD KECCAK256 PUSH1 0x0 SHR PUSH2 0x13D4 SWAP2 SWAP1 PUSH2 0x2EFD JUMP JUMPDEST SWAP2 POP POP SWAP2 SWAP1 POP JUMP JUMPDEST PUSH1 0x0 DUP1 SLOAD SWAP1 PUSH2 0x100 EXP SWAP1 DIV PUSH20 0xFFFFFFFFFFFFFFFFFFFFFFFFFFFFFFFFFFFFFFFF AND DUP2 JUMP JUMPDEST PUSH1 0x0 PUSH1 0x2 DUP2 GT ISZERO PUSH2 0x1414 JUMPI PUSH2 0x1413 PUSH2 0x25BE JUMP JUMPDEST JUMPDEST PUSH1 0x2 PUSH1 0x0 CALLER PUSH20 0xFFFFFFFFFFFFFFFFFFFFFFFFFFFFFFFFFFFFFFFF AND PUSH20 0xFFFFFFFFFFFFFFFFFFFFFFFFFFFFFFFFFFFFFFFF AND DUP2 MSTORE PUSH1 0x20 ADD SWAP1 DUP2 MSTORE PUSH1 0x20 ADD PUSH1 0x0 KECCAK256 PUSH1 0x0 ADD PUSH1 0x0 SWAP1 SLOAD SWAP1 PUSH2 0x100 EXP SWAP1 DIV PUSH1 0xFF AND PUSH1 0x2 DUP2 GT ISZERO PUSH2 0x1476 JUMPI PUSH2 0x1475 PUSH2 0x25BE JUMP JUMPDEST JUMPDEST SUB PUSH2 0x1521 JUMPI PUSH1 0x40 MLOAD DUP1 PUSH1 0x40 ADD PUSH1 0x40 MSTORE DUP1 PUSH1 0x0 PUSH1 0x2 DUP2 GT ISZERO PUSH2 0x149A JUMPI PUSH2 0x1499 PUSH2 0x25BE JUMP JUMPDEST JUMPDEST DUP2 MSTORE PUSH1 0x20 ADD PUSH1 0x0 DUP2 MSTORE POP PUSH1 0x2 PUSH1 0x0 CALLER PUSH20 0xFFFFFFFFFFFFFFFFFFFFFFFFFFFFFFFFFFFFFFFF AND PUSH20 0xFFFFFFFFFFFFFFFFFFFFFFFFFFFFFFFFFFFFFFFF AND DUP2 MSTORE PUSH1 0x20 ADD SWAP1 DUP2 MSTORE PUSH1 0x20 ADD PUSH1 0x0 KECCAK256 PUSH1 0x0 DUP3 ADD MLOAD DUP2 PUSH1 0x0 ADD PUSH1 0x0 PUSH2 0x100 EXP DUP2 SLOAD DUP2 PUSH1 0xFF MUL NOT AND SWAP1 DUP4 PUSH1 0x2 DUP2 GT ISZERO PUSH2 0x150E JUMPI PUSH2 0x150D PUSH2 0x25BE JUMP JUMPDEST JUMPDEST MUL OR SWAP1 SSTORE POP PUSH1 0x20 DUP3 ADD MLOAD DUP2 PUSH1 0x1 ADD SSTORE SWAP1 POP POP JUMPDEST PUSH1 0x0 DUP4 GT PUSH2 0x1564 JUMPI PUSH1 0x40 MLOAD PUSH32 0x8C379A000000000000000000000000000000000000000000000000000000000 DUP2 MSTORE PUSH1 0x4 ADD PUSH2 0x155B SWAP1 PUSH2 0x2AF5 JUMP JUMPDEST PUSH1 0x40 MLOAD DUP1 SWAP2 SUB SWAP1 REVERT JUMPDEST PUSH1 0x3 PUSH1 0x0 DUP6 PUSH20 0xFFFFFFFFFFFFFFFFFFFFFFFFFFFFFFFFFFFFFFFF AND PUSH20 0xFFFFFFFFFFFFFFFFFFFFFFFFFFFFFFFFFFFFFFFF AND DUP2 MSTORE PUSH1 0x20 ADD SWAP1 DUP2 MSTORE PUSH1 0x20 ADD PUSH1 0x0 KECCAK256 DUP1 SLOAD SWAP1 POP DUP3 LT PUSH2 0x15E8 JUMPI PUSH1 0x40 MLOAD PUSH32 0x8C379A000000000000000000000000000000000000000000000000000000000 DUP2 MSTORE PUSH1 0x4 ADD PUSH2 0x15DF SWAP1 PUSH2 0x2B61 JUMP JUMPDEST PUSH1 0x40 MLOAD DUP1 SWAP2 SUB SWAP1 REVERT JUMPDEST PUSH1 0x3 PUSH1 0x0 DUP6 PUSH20 0xFFFFFFFFFFFFFFFFFFFFFFFFFFFFFFFFFFFFFFFF AND PUSH20 0xFFFFFFFFFFFFFFFFFFFFFFFFFFFFFFFFFFFFFFFF AND DUP2 MSTORE PUSH1 0x20 ADD SWAP1 DUP2 MSTORE PUSH1 0x20 ADD PUSH1 0x0 KECCAK256 DUP3 DUP2 SLOAD DUP2 LT PUSH2 0x1639 JUMPI PUSH2 0x1638 PUSH2 0x2B81 JUMP JUMPDEST JUMPDEST SWAP1 PUSH1 0x0 MSTORE PUSH1 0x20 PUSH1 0x0 KECCAK256 SWAP1 PUSH1 0x4 MUL ADD PUSH1 0x0 ADD SLOAD DUP4 GT ISZERO PUSH2 0x168D JUMPI PUSH1 0x40 MLOAD PUSH32 0x8C379A000000000000000000000000000000000000000000000000000000000 DUP2 MSTORE PUSH1 0x4 ADD PUSH2 0x1684 SWAP1 PUSH2 0x2F7A JUMP JUMPDEST PUSH1 0x40 MLOAD DUP1 SWAP2 SUB SWAP1 REVERT JUMPDEST PUSH1 0x0 PUSH8 0xDE0B6B3A7640000 PUSH1 0x3 PUSH1 0x0 DUP8 PUSH20 0xFFFFFFFFFFFFFFFFFFFFFFFFFFFFFFFFFFFFFFFF AND PUSH20 0xFFFFFFFFFFFFFFFFFFFFFFFFFFFFFFFFFFFFFFFF AND DUP2 MSTORE PUSH1 0x20 ADD SWAP1 DUP2 MSTORE PUSH1 0x20 ADD PUSH1 0x0 KECCAK256 DUP5 DUP2 SLOAD DUP2 LT PUSH2 0x16E9 JUMPI PUSH2 0x16E8 PUSH2 0x2B81 JUMP JUMPDEST JUMPDEST SWAP1 PUSH1 0x0 MSTORE PUSH1 0x20 PUSH1 0x0 KECCAK256 SWAP1 PUSH1 0x4 MUL ADD PUSH1 0x1 ADD SLOAD DUP6 PUSH2 0x1706 SWAP2 SWAP1 PUSH2 0x2C99 JUMP JUMPDEST PUSH2 0x1710 SWAP2 SWAP1 PUSH2 0x2C99 JUMP JUMPDEST SWAP1 POP CALLER PUSH20 0xFFFFFFFFFFFFFFFFFFFFFFFFFFFFFFFFFFFFFFFF AND PUSH1 0x4 DUP4 PUSH1 0x40 MLOAD PUSH2 0x1739 SWAP2 SWAP1 PUSH2 0x2FD6 JUMP JUMPDEST SWAP1 DUP2 MSTORE PUSH1 0x20 ADD PUSH1 0x40 MLOAD DUP1 SWAP2 SUB SWAP1 KECCAK256 PUSH1 0x0 SWAP1 SLOAD SWAP1 PUSH2 0x100 EXP SWAP1 DIV PUSH20 0xFFFFFFFFFFFFFFFFFFFFFFFFFFFFFFFFFFFFFFFF AND PUSH20 0xFFFFFFFFFFFFFFFFFFFFFFFFFFFFFFFFFFFFFFFF AND SUB PUSH2 0x17FD JUMPI PUSH1 0x64 PUSH1 0x5A DUP3 PUSH2 0x1792 SWAP2 SWAP1 PUSH2 0x2C99 JUMP JUMPDEST PUSH2 0x179C SWAP2 SWAP1 PUSH2 0x2E26 JUMP JUMPDEST SWAP1 POP PUSH1 0x0 PUSH1 0x4 DUP4 PUSH1 0x40 MLOAD PUSH2 0x17B0 SWAP2 SWAP1 PUSH2 0x2FD6 JUMP JUMPDEST SWAP1 DUP2 MSTORE PUSH1 0x20 ADD PUSH1 0x40 MLOAD DUP1 SWAP2 SUB SWAP1 KECCAK256 PUSH1 0x0 PUSH2 0x100 EXP DUP2 SLOAD DUP2 PUSH20 0xFFFFFFFFFFFFFFFFFFFFFFFFFFFFFFFFFFFFFFFF MUL NOT AND SWAP1 DUP4 PUSH20 0xFFFFFFFFFFFFFFFFFFFFFFFFFFFFFFFFFFFFFFFF AND MUL OR SWAP1 SSTORE POP JUMPDEST DUP1 CALLVALUE LT ISZERO PUSH2 0x1840 JUMPI PUSH1 0x40 MLOAD PUSH32 0x8C379A000000000000000000000000000000000000000000000000000000000 DUP2 MSTORE PUSH1 0x4 ADD PUSH2 0x1837 SWAP1 PUSH2 0x2D27 JUMP JUMPDEST PUSH1 0x40 MLOAD DUP1 SWAP2 SUB SWAP1 REVERT JUMPDEST PUSH1 0x0 DUP1 JUMPDEST PUSH1 0x3 PUSH1 0x0 CALLER PUSH20 0xFFFFFFFFFFFFFFFFFFFFFFFFFFFFFFFFFFFFFFFF AND PUSH20 0xFFFFFFFFFFFFFFFFFFFFFFFFFFFFFFFFFFFFFFFF AND DUP2 MSTORE PUSH1 0x20 ADD SWAP1 DUP2 MSTORE PUSH1 0x20 ADD PUSH1 0x0 KECCAK256 DUP1 SLOAD SWAP1 POP DUP2 LT ISZERO PUSH2 0x1A16 JUMPI PUSH1 0x3 PUSH1 0x0 DUP9 PUSH20 0xFFFFFFFFFFFFFFFFFFFFFFFFFFFFFFFFFFFFFFFF AND PUSH20 0xFFFFFFFFFFFFFFFFFFFFFFFFFFFFFFFFFFFFFFFF AND DUP2 MSTORE PUSH1 0x20 ADD SWAP1 DUP2 MSTORE PUSH1 0x20 ADD PUSH1 0x0 KECCAK256 DUP6 DUP2 SLOAD DUP2 LT PUSH2 0x18DF JUMPI PUSH2 0x18DE PUSH2 0x2B81 JUMP JUMPDEST JUMPDEST SWAP1 PUSH1 0x0 MSTORE PUSH1 0x20 PUSH1 0x0 KECCAK256 SWAP1 PUSH1 0x4 MUL ADD PUSH1 0x2 ADD PUSH1 0x40 MLOAD PUSH2 0x18FD SWAP2 SWAP1 PUSH2 0x2C53 JUMP JUMPDEST PUSH1 0x40 MLOAD DUP1 SWAP2 SUB SWAP1 KECCAK256 PUSH1 0x3 PUSH1 0x0 CALLER PUSH20 0xFFFFFFFFFFFFFFFFFFFFFFFFFFFFFFFFFFFFFFFF AND PUSH20 0xFFFFFFFFFFFFFFFFFFFFFFFFFFFFFFFFFFFFFFFF AND DUP2 MSTORE PUSH1 0x20 ADD SWAP1 DUP2 MSTORE PUSH1 0x20 ADD PUSH1 0x0 KECCAK256 DUP3 DUP2 SLOAD DUP2 LT PUSH2 0x1956 JUMPI PUSH2 0x1955 PUSH2 0x2B81 JUMP JUMPDEST JUMPDEST SWAP1 PUSH1 0x0 MSTORE PUSH1 0x20 PUSH1 0x0 KECCAK256 SWAP1 PUSH1 0x4 MUL ADD PUSH1 0x2 ADD PUSH1 0x40 MLOAD PUSH2 0x1974 SWAP2 SWAP1 PUSH2 0x2C53 JUMP JUMPDEST PUSH1 0x40 MLOAD DUP1 SWAP2 SUB SWAP1 KECCAK256 SUB PUSH2 0x1A03 JUMPI DUP6 PUSH1 0x3 PUSH1 0x0 CALLER PUSH20 0xFFFFFFFFFFFFFFFFFFFFFFFFFFFFFFFFFFFFFFFF AND PUSH20 0xFFFFFFFFFFFFFFFFFFFFFFFFFFFFFFFFFFFFFFFF AND DUP2 MSTORE PUSH1 0x20 ADD SWAP1 DUP2 MSTORE PUSH1 0x20 ADD PUSH1 0x0 KECCAK256 DUP3 DUP2 SLOAD DUP2 LT PUSH2 0x19D3 JUMPI PUSH2 0x19D2 PUSH2 0x2B81 JUMP JUMPDEST JUMPDEST SWAP1 PUSH1 0x0 MSTORE PUSH1 0x20 PUSH1 0x0 KECCAK256 SWAP1 PUSH1 0x4 MUL ADD PUSH1 0x0 ADD PUSH1 0x0 DUP3 DUP3 SLOAD PUSH2 0x19F3 SWAP2 SWAP1 PUSH2 0x2D7B JUMP JUMPDEST SWAP3 POP POP DUP2 SWAP1 SSTORE POP PUSH1 0x1 SWAP2 POP PUSH2 0x1A16 JUMP JUMPDEST DUP1 DUP1 PUSH2 0x1A0E SWAP1 PUSH2 0x2DAF JUMP JUMPDEST SWAP2 POP POP PUSH2 0x1844 JUMP JUMPDEST POP DUP1 PUSH2 0x1C38 JUMPI PUSH1 0x0 PUSH1 0x40 MLOAD DUP1 PUSH1 0x80 ADD PUSH1 0x40 MSTORE DUP1 DUP8 DUP2 MSTORE PUSH1 0x20 ADD PUSH1 0x3 PUSH1 0x0 DUP11 PUSH20 0xFFFFFFFFFFFFFFFFFFFFFFFFFFFFFFFFFFFFFFFF AND PUSH20 0xFFFFFFFFFFFFFFFFFFFFFFFFFFFFFFFFFFFFFFFF AND DUP2 MSTORE PUSH1 0x20 ADD SWAP1 DUP2 MSTORE PUSH1 0x20 ADD PUSH1 0x0 KECCAK256 DUP8 DUP2 SLOAD DUP2 LT PUSH2 0x1A80 JUMPI PUSH2 0x1A7F PUSH2 0x2B81 JUMP JUMPDEST JUMPDEST SWAP1 PUSH1 0x0 MSTORE PUSH1 0x20 PUSH1 0x0 KECCAK256 SWAP1 PUSH1 0x4 MUL ADD PUSH1 0x1 ADD SLOAD DUP2 MSTORE PUSH1 0x20 ADD PUSH1 0x3 PUSH1 0x0 DUP11 PUSH20 0xFFFFFFFFFFFFFFFFFFFFFFFFFFFFFFFFFFFFFFFF AND PUSH20 0xFFFFFFFFFFFFFFFFFFFFFFFFFFFFFFFFFFFFFFFF AND DUP2 MSTORE PUSH1 0x20 ADD SWAP1 DUP2 MSTORE PUSH1 0x20 ADD PUSH1 0x0 KECCAK256 DUP8 DUP2 SLOAD DUP2 LT PUSH2 0x1AE8 JUMPI PUSH2 0x1AE7 PUSH2 0x2B81 JUMP JUMPDEST JUMPDEST SWAP1 PUSH1 0x0 MSTORE PUSH1 0x20 PUSH1 0x0 KECCAK256 SWAP1 PUSH1 0x4 MUL ADD PUSH1 0x2 ADD DUP1 SLOAD PUSH2 0x1B04 SWAP1 PUSH2 0x27D4 JUMP JUMPDEST DUP1 PUSH1 0x1F ADD PUSH1 0x20 DUP1 SWAP2 DIV MUL PUSH1 0x20 ADD PUSH1 0x40 MLOAD SWAP1 DUP2 ADD PUSH1 0x40 MSTORE DUP1 SWAP3 SWAP2 SWAP1 DUP2 DUP2 MSTORE PUSH1 0x20 ADD DUP3 DUP1 SLOAD PUSH2 0x1B30 SWAP1 PUSH2 0x27D4 JUMP JUMPDEST DUP1 ISZERO PUSH2 0x1B7D JUMPI DUP1 PUSH1 0x1F LT PUSH2 0x1B52 JUMPI PUSH2 0x100 DUP1 DUP4 SLOAD DIV MUL DUP4 MSTORE SWAP2 PUSH1 0x20 ADD SWAP2 PUSH2 0x1B7D JUMP JUMPDEST DUP3 ADD SWAP2 SWAP1 PUSH1 0x0 MSTORE PUSH1 0x20 PUSH1 0x0 KECCAK256 SWAP1 JUMPDEST DUP2 SLOAD DUP2 MSTORE SWAP1 PUSH1 0x1 ADD SWAP1 PUSH1 0x20 ADD DUP1 DUP4 GT PUSH2 0x1B60 JUMPI DUP3 SWAP1 SUB PUSH1 0x1F AND DUP3 ADD SWAP2 JUMPDEST POP POP POP POP POP DUP2 MSTORE PUSH1 0x20 ADD PUSH2 0x1B92 PUSH2 0x3E8 PUSH2 0x138A JUMP JUMPDEST DUP2 MSTORE POP SWAP1 POP PUSH1 0x3 PUSH1 0x0 CALLER PUSH20 0xFFFFFFFFFFFFFFFFFFFFFFFFFFFFFFFFFFFFFFFF AND PUSH20 0xFFFFFFFFFFFFFFFFFFFFFFFFFFFFFFFFFFFFFFFF AND DUP2 MSTORE PUSH1 0x20 ADD SWAP1 DUP2 MSTORE PUSH1 0x20 ADD PUSH1 0x0 KECCAK256 DUP2 SWAP1 DUP1 PUSH1 0x1 DUP2 SLOAD ADD DUP1 DUP3 SSTORE DUP1 SWAP2 POP POP PUSH1 0x1 SWAP1 SUB SWAP1 PUSH1 0x0 MSTORE PUSH1 0x20 PUSH1 0x0 KECCAK256 SWAP1 PUSH1 0x4 MUL ADD PUSH1 0x0 SWAP1 SWAP2 SWAP1 SWAP2 SWAP1 SWAP2 POP PUSH1 0x0 DUP3 ADD MLOAD DUP2 PUSH1 0x0 ADD SSTORE PUSH1 0x20 DUP3 ADD MLOAD DUP2 PUSH1 0x1 ADD SSTORE PUSH1 0x40 DUP3 ADD MLOAD DUP2 PUSH1 0x2 ADD SWAP1 DUP2 PUSH2 0x1C29 SWAP2 SWAP1 PUSH2 0x29B1 JUMP JUMPDEST POP PUSH1 0x60 DUP3 ADD MLOAD DUP2 PUSH1 0x3 ADD SSTORE POP POP POP JUMPDEST DUP5 PUSH1 0x3 PUSH1 0x0 DUP9 PUSH20 0xFFFFFFFFFFFFFFFFFFFFFFFFFFFFFFFFFFFFFFFF AND PUSH20 0xFFFFFFFFFFFFFFFFFFFFFFFFFFFFFFFFFFFFFFFF AND DUP2 MSTORE PUSH1 0x20 ADD SWAP1 DUP2 MSTORE PUSH1 0x20 ADD PUSH1 0x0 KECCAK256 DUP6 DUP2 SLOAD DUP2 LT PUSH2 0x1C8A JUMPI PUSH2 0x1C89 PUSH2 0x2B81 JUMP JUMPDEST JUMPDEST SWAP1 PUSH1 0x0 MSTORE PUSH1 0x20 PUSH1 0x0 KECCAK256 SWAP1 PUSH1 0x4 MUL ADD PUSH1 0x0 ADD PUSH1 0x0 DUP3 DUP3 SLOAD PUSH2 0x1CAA SWAP2 SWAP1 PUSH2 0x2D47 JUMP JUMPDEST SWAP3 POP POP DUP2 SWAP1 SSTORE POP DUP2 CALLVALUE GT ISZERO PUSH2 0x1D12 JUMPI PUSH1 0x0 DUP3 CALLVALUE PUSH2 0x1CC7 SWAP2 SWAP1 PUSH2 0x2D47 JUMP JUMPDEST SWAP1 POP CALLER PUSH20 0xFFFFFFFFFFFFFFFFFFFFFFFFFFFFFFFFFFFFFFFF AND PUSH2 0x8FC DUP3 SWAP1 DUP2 ISZERO MUL SWAP1 PUSH1 0x40 MLOAD PUSH1 0x0 PUSH1 0x40 MLOAD DUP1 DUP4 SUB DUP2 DUP6 DUP9 DUP9 CALL SWAP4 POP POP POP POP ISZERO DUP1 ISZERO PUSH2 0x1D0F JUMPI RETURNDATASIZE PUSH1 0x0 DUP1 RETURNDATACOPY RETURNDATASIZE PUSH1 0x0 REVERT JUMPDEST POP POP JUMPDEST DUP2 PUSH1 0x2 PUSH1 0x0 DUP9 PUSH20 0xFFFFFFFFFFFFFFFFFFFFFFFFFFFFFFFFFFFFFFFF AND PUSH20 0xFFFFFFFFFFFFFFFFFFFFFFFFFFFFFFFFFFFFFFFF AND DUP2 MSTORE PUSH1 0x20 ADD SWAP1 DUP2 MSTORE PUSH1 0x20 ADD PUSH1 0x0 KECCAK256 PUSH1 0x1 ADD DUP2 SWAP1 SSTORE POP POP POP POP POP POP POP JUMP JUMPDEST DUP1 PUSH20 0xFFFFFFFFFFFFFFFFFFFFFFFFFFFFFFFFFFFFFFFF AND CALLER PUSH20 0xFFFFFFFFFFFFFFFFFFFFFFFFFFFFFFFFFFFFFFFF AND SUB PUSH2 0x1D99 JUMPI PUSH1 0x0 DUP1 REVERT JUMPDEST DUP1 PUSH1 0x4 DUP4 PUSH1 0x40 MLOAD PUSH2 0x1DAA SWAP2 SWAP1 PUSH2 0x2FD6 JUMP JUMPDEST SWAP1 DUP2 MSTORE PUSH1 0x20 ADD PUSH1 0x40 MLOAD DUP1 SWAP2 SUB SWAP1 KECCAK256 PUSH1 0x0 PUSH2 0x100 EXP DUP2 SLOAD DUP2 PUSH20 0xFFFFFFFFFFFFFFFFFFFFFFFFFFFFFFFFFFFFFFFF MUL NOT AND SWAP1 DUP4 PUSH20 0xFFFFFFFFFFFFFFFFFFFFFFFFFFFFFFFFFFFFFFFF AND MUL OR SWAP1 SSTORE POP POP POP JUMP JUMPDEST PUSH1 0x2 PUSH1 0x20 MSTORE DUP1 PUSH1 0x0 MSTORE PUSH1 0x40 PUSH1 0x0 KECCAK256 PUSH1 0x0 SWAP2 POP SWAP1 POP DUP1 PUSH1 0x0 ADD PUSH1 0x0 SWAP1 SLOAD SWAP1 PUSH2 0x100 EXP SWAP1 DIV PUSH1 0xFF AND SWAP1 DUP1 PUSH1 0x1 ADD SLOAD SWAP1 POP DUP3 JUMP JUMPDEST PUSH1 0x4 DUP2 DUP1 MLOAD PUSH1 0x20 DUP2 ADD DUP3 ADD DUP1 MLOAD DUP5 DUP3 MSTORE PUSH1 0x20 DUP4 ADD PUSH1 0x20 DUP6 ADD KECCAK256 DUP2 DUP4 MSTORE DUP1 SWAP6 POP POP POP POP POP POP PUSH1 0x0 SWAP2 POP SLOAD SWAP1 PUSH2 0x100 EXP SWAP1 DIV PUSH20 0xFFFFFFFFFFFFFFFFFFFFFFFFFFFFFFFFFFFFFFFF AND DUP2 JUMP JUMPDEST PUSH1 0x0 PUSH1 0x2 PUSH1 0x0 DUP4 PUSH20 0xFFFFFFFFFFFFFFFFFFFFFFFFFFFFFFFFFFFFFFFF AND PUSH20 0xFFFFFFFFFFFFFFFFFFFFFFFFFFFFFFFFFFFFFFFF AND DUP2 MSTORE PUSH1 0x20 ADD SWAP1 DUP2 MSTORE PUSH1 0x20 ADD PUSH1 0x0 KECCAK256 PUSH1 0x1 ADD SLOAD SWAP1 POP DUP2 PUSH20 0xFFFFFFFFFFFFFFFFFFFFFFFFFFFFFFFFFFFFFFFF AND PUSH2 0x8FC DUP3 SWAP1 DUP2 ISZERO MUL SWAP1 PUSH1 0x40 MLOAD PUSH1 0x0 PUSH1 0x40 MLOAD DUP1 DUP4 SUB DUP2 DUP6 DUP9 DUP9 CALL SWAP4 POP POP POP POP ISZERO DUP1 ISZERO PUSH2 0x1F01 JUMPI RETURNDATASIZE PUSH1 0x0 DUP1 RETURNDATACOPY RETURNDATASIZE PUSH1 0x0 REVERT JUMPDEST POP POP POP JUMP JUMPDEST POP DUP1 SLOAD PUSH2 0x1F12 SWAP1 PUSH2 0x27D4 JUMP JUMPDEST PUSH1 0x0 DUP3 SSTORE DUP1 PUSH1 0x1F LT PUSH2 0x1F24 JUMPI POP PUSH2 0x1F43 JUMP JUMPDEST PUSH1 0x1F ADD PUSH1 0x20 SWAP1 DIV SWAP1 PUSH1 0x0 MSTORE PUSH1 0x20 PUSH1 0x0 KECCAK256 SWAP1 DUP2 ADD SWAP1 PUSH2 0x1F42 SWAP2 SWAP1 PUSH2 0x1F46 JUMP JUMPDEST JUMPDEST POP JUMP JUMPDEST JUMPDEST DUP1 DUP3 GT ISZERO PUSH2 0x1F5F JUMPI PUSH1 0x0 DUP2 PUSH1 0x0 SWAP1 SSTORE POP PUSH1 0x1 ADD PUSH2 0x1F47 JUMP JUMPDEST POP SWAP1 JUMP JUMPDEST PUSH1 0x0 PUSH1 0x40 MLOAD SWAP1 POP SWAP1 JUMP JUMPDEST PUSH1 0x0 DUP1 REVERT JUMPDEST PUSH1 0x0 DUP1 REVERT JUMPDEST PUSH1 0x0 PUSH20 0xFFFFFFFFFFFFFFFFFFFFFFFFFFFFFFFFFFFFFFFF DUP3 AND SWAP1 POP SWAP2 SWAP1 POP JUMP JUMPDEST PUSH1 0x0 PUSH2 0x1FA2 DUP3 PUSH2 0x1F77 JUMP JUMPDEST SWAP1 POP SWAP2 SWAP1 POP JUMP JUMPDEST PUSH2 0x1FB2 DUP2 PUSH2 0x1F97 JUMP JUMPDEST DUP2 EQ PUSH2 0x1FBD JUMPI PUSH1 0x0 DUP1 REVERT JUMPDEST POP JUMP JUMPDEST PUSH1 0x0 DUP2 CALLDATALOAD SWAP1 POP PUSH2 0x1FCF DUP2 PUSH2 0x1FA9 JUMP JUMPDEST SWAP3 SWAP2 POP POP JUMP JUMPDEST PUSH1 0x0 DUP2 SWAP1 POP SWAP2 SWAP1 POP JUMP JUMPDEST PUSH2 0x1FE8 DUP2 PUSH2 0x1FD5 JUMP JUMPDEST DUP2 EQ PUSH2 0x1FF3 JUMPI PUSH1 0x0 DUP1 REVERT JUMPDEST POP JUMP JUMPDEST PUSH1 0x0 DUP2 CALLDATALOAD SWAP1 POP PUSH2 0x2005 DUP2 PUSH2 0x1FDF JUMP JUMPDEST SWAP3 SWAP2 POP POP JUMP JUMPDEST PUSH1 0x0 DUP1 REVERT JUMPDEST PUSH1 0x0 DUP1 REVERT JUMPDEST PUSH1 0x0 DUP1 REVERT JUMPDEST PUSH1 0x0 DUP1 DUP4 PUSH1 0x1F DUP5 ADD SLT PUSH2 0x2030 JUMPI PUSH2 0x202F PUSH2 0x200B JUMP JUMPDEST JUMPDEST DUP3 CALLDATALOAD SWAP1 POP PUSH8 0xFFFFFFFFFFFFFFFF DUP2 GT ISZERO PUSH2 0x204D JUMPI PUSH2 0x204C PUSH2 0x2010 JUMP JUMPDEST JUMPDEST PUSH1 0x20 DUP4 ADD SWAP2 POP DUP4 PUSH1 0x1 DUP3 MUL DUP4 ADD GT ISZERO PUSH2 0x2069 JUMPI PUSH2 0x2068 PUSH2 0x2015 JUMP JUMPDEST JUMPDEST SWAP3 POP SWAP3 SWAP1 POP JUMP JUMPDEST PUSH1 0x0 DUP1 PUSH1 0x0 DUP1 PUSH1 0x0 DUP1 PUSH1 0xA0 DUP8 DUP10 SUB SLT ISZERO PUSH2 0x208D JUMPI PUSH2 0x208C PUSH2 0x1F6D JUMP JUMPDEST JUMPDEST PUSH1 0x0 PUSH2 0x209B DUP10 DUP3 DUP11 ADD PUSH2 0x1FC0 JUMP JUMPDEST SWAP7 POP POP PUSH1 0x20 PUSH2 0x20AC DUP10 DUP3 DUP11 ADD PUSH2 0x1FF6 JUMP JUMPDEST SWAP6 POP POP PUSH1 0x40 PUSH2 0x20BD DUP10 DUP3 DUP11 ADD PUSH2 0x1FF6 JUMP JUMPDEST SWAP5 POP POP PUSH1 0x60 DUP8 ADD CALLDATALOAD PUSH8 0xFFFFFFFFFFFFFFFF DUP2 GT ISZERO PUSH2 0x20DE JUMPI PUSH2 0x20DD PUSH2 0x1F72 JUMP JUMPDEST JUMPDEST PUSH2 0x20EA DUP10 DUP3 DUP11 ADD PUSH2 0x201A JUMP JUMPDEST SWAP4 POP SWAP4 POP POP PUSH1 0x80 PUSH2 0x20FD DUP10 DUP3 DUP11 ADD PUSH2 0x1FF6 JUMP JUMPDEST SWAP2 POP POP SWAP3 SWAP6 POP SWAP3 SWAP6 POP SWAP3 SWAP6 JUMP JUMPDEST PUSH1 0x0 DUP1 PUSH1 0x0 PUSH1 0x60 DUP5 DUP7 SUB SLT ISZERO PUSH2 0x2123 JUMPI PUSH2 0x2122 PUSH2 0x1F6D JUMP JUMPDEST JUMPDEST PUSH1 0x0 PUSH2 0x2131 DUP7 DUP3 DUP8 ADD PUSH2 0x1FC0 JUMP JUMPDEST SWAP4 POP POP PUSH1 0x20 PUSH2 0x2142 DUP7 DUP3 DUP8 ADD PUSH2 0x1FF6 JUMP JUMPDEST SWAP3 POP POP PUSH1 0x40 PUSH2 0x2153 DUP7 DUP3 DUP8 ADD PUSH2 0x1FF6 JUMP JUMPDEST SWAP2 POP POP SWAP3 POP SWAP3 POP SWAP3 JUMP JUMPDEST PUSH1 0x0 DUP1 PUSH1 0x0 DUP1 PUSH1 0x0 PUSH1 0x80 DUP7 DUP9 SUB SLT ISZERO PUSH2 0x2179 JUMPI PUSH2 0x2178 PUSH2 0x1F6D JUMP JUMPDEST JUMPDEST PUSH1 0x0 PUSH2 0x2187 DUP9 DUP3 DUP10 ADD PUSH2 0x1FF6 JUMP JUMPDEST SWAP6 POP POP PUSH1 0x20 PUSH2 0x2198 DUP9 DUP3 DUP10 ADD PUSH2 0x1FF6 JUMP JUMPDEST SWAP5 POP POP PUSH1 0x40 DUP7 ADD CALLDATALOAD PUSH8 0xFFFFFFFFFFFFFFFF DUP2 GT ISZERO PUSH2 0x21B9 JUMPI PUSH2 0x21B8 PUSH2 0x1F72 JUMP JUMPDEST JUMPDEST PUSH2 0x21C5 DUP9 DUP3 DUP10 ADD PUSH2 0x201A JUMP JUMPDEST SWAP4 POP SWAP4 POP POP PUSH1 0x60 PUSH2 0x21D8 DUP9 DUP3 DUP10 ADD PUSH2 0x1FF6 JUMP JUMPDEST SWAP2 POP POP SWAP3 SWAP6 POP SWAP3 SWAP6 SWAP1 SWAP4 POP JUMP JUMPDEST PUSH2 0x21EE DUP2 PUSH2 0x1F97 JUMP JUMPDEST DUP3 MSTORE POP POP JUMP JUMPDEST PUSH1 0x0 PUSH1 0x20 DUP3 ADD SWAP1 POP PUSH2 0x2209 PUSH1 0x0 DUP4 ADD DUP5 PUSH2 0x21E5 JUMP JUMPDEST SWAP3 SWAP2 POP POP JUMP JUMPDEST PUSH1 0x0 DUP1 PUSH1 0x40 DUP4 DUP6 SUB SLT ISZERO PUSH2 0x2226 JUMPI PUSH2 0x2225 PUSH2 0x1F6D JUMP JUMPDEST JUMPDEST PUSH1 0x0 PUSH2 0x2234 DUP6 DUP3 DUP7 ADD PUSH2 0x1FC0 JUMP JUMPDEST SWAP3 POP POP PUSH1 0x20 PUSH2 0x2245 DUP6 DUP3 DUP7 ADD PUSH2 0x1FF6 JUMP JUMPDEST SWAP2 POP POP SWAP3 POP SWAP3 SWAP1 POP JUMP JUMPDEST PUSH2 0x2258 DUP2 PUSH2 0x1FD5 JUMP JUMPDEST DUP3 MSTORE POP POP JUMP JUMPDEST PUSH1 0x0 DUP2 MLOAD SWAP1 POP SWAP2 SWAP1 POP JUMP JUMPDEST PUSH1 0x0 DUP3 DUP3 MSTORE PUSH1 0x20 DUP3 ADD SWAP1 POP SWAP3 SWAP2 POP POP JUMP JUMPDEST PUSH1 0x0 JUMPDEST DUP4 DUP2 LT ISZERO PUSH2 0x2298 JUMPI DUP1 DUP3 ADD MLOAD DUP2 DUP5 ADD MSTORE PUSH1 0x20 DUP2 ADD SWAP1 POP PUSH2 0x227D JUMP JUMPDEST PUSH1 0x0 DUP5 DUP5 ADD MSTORE POP POP POP POP JUMP JUMPDEST PUSH1 0x0 PUSH1 0x1F NOT PUSH1 0x1F DUP4 ADD AND SWAP1 POP SWAP2 SWAP1 POP JUMP JUMPDEST PUSH1 0x0 PUSH2 0x22C0 DUP3 PUSH2 0x225E JUMP JUMPDEST PUSH2 0x22CA DUP2 DUP6 PUSH2 0x2269 JUMP JUMPDEST SWAP4 POP PUSH2 0x22DA DUP2 DUP6 PUSH1 0x20 DUP7 ADD PUSH2 0x227A JUMP JUMPDEST PUSH2 0x22E3 DUP2 PUSH2 0x22A4 JUMP JUMPDEST DUP5 ADD SWAP2 POP POP SWAP3 SWAP2 POP POP JUMP JUMPDEST PUSH1 0x0 PUSH1 0x80 DUP3 ADD SWAP1 POP PUSH2 0x2303 PUSH1 0x0 DUP4 ADD DUP8 PUSH2 0x224F JUMP JUMPDEST PUSH2 0x2310 PUSH1 0x20 DUP4 ADD DUP7 PUSH2 0x224F JUMP JUMPDEST DUP2 DUP2 SUB PUSH1 0x40 DUP4 ADD MSTORE PUSH2 0x2322 DUP2 DUP6 PUSH2 0x22B5 JUMP JUMPDEST SWAP1 POP PUSH2 0x2331 PUSH1 0x60 DUP4 ADD DUP5 PUSH2 0x224F JUMP JUMPDEST SWAP6 SWAP5 POP POP POP POP POP JUMP JUMPDEST PUSH1 0x0 PUSH1 0x20 DUP3 DUP5 SUB SLT ISZERO PUSH2 0x2350 JUMPI PUSH2 0x234F PUSH2 0x1F6D JUMP JUMPDEST JUMPDEST PUSH1 0x0 PUSH2 0x235E DUP5 DUP3 DUP6 ADD PUSH2 0x1FF6 JUMP JUMPDEST SWAP2 POP POP SWAP3 SWAP2 POP POP JUMP JUMPDEST PUSH1 0x0 PUSH1 0x20 DUP3 ADD SWAP1 POP PUSH2 0x237C PUSH1 0x0 DUP4 ADD DUP5 PUSH2 0x224F JUMP JUMPDEST SWAP3 SWAP2 POP POP JUMP JUMPDEST PUSH1 0x0 DUP1 REVERT JUMPDEST PUSH32 0x4E487B7100000000000000000000000000000000000000000000000000000000 PUSH1 0x0 MSTORE PUSH1 0x41 PUSH1 0x4 MSTORE PUSH1 0x24 PUSH1 0x0 REVERT JUMPDEST PUSH2 0x23BF DUP3 PUSH2 0x22A4 JUMP JUMPDEST DUP2 ADD DUP2 DUP2 LT PUSH8 0xFFFFFFFFFFFFFFFF DUP3 GT OR ISZERO PUSH2 0x23DE JUMPI PUSH2 0x23DD PUSH2 0x2387 JUMP JUMPDEST JUMPDEST DUP1 PUSH1 0x40 MSTORE POP POP POP JUMP JUMPDEST PUSH1 0x0 PUSH2 0x23F1 PUSH2 0x1F63 JUMP JUMPDEST SWAP1 POP PUSH2 0x23FD DUP3 DUP3 PUSH2 0x23B6 JUMP JUMPDEST SWAP2 SWAP1 POP JUMP JUMPDEST PUSH1 0x0 PUSH8 0xFFFFFFFFFFFFFFFF DUP3 GT ISZERO PUSH2 0x241D JUMPI PUSH2 0x241C PUSH2 0x2387 JUMP JUMPDEST JUMPDEST PUSH2 0x2426 DUP3 PUSH2 0x22A4 JUMP JUMPDEST SWAP1 POP PUSH1 0x20 DUP2 ADD SWAP1 POP SWAP2 SWAP1 POP JUMP JUMPDEST DUP3 DUP2 DUP4 CALLDATACOPY PUSH1 0x0 DUP4 DUP4 ADD MSTORE POP POP POP JUMP JUMPDEST PUSH1 0x0 PUSH2 0x2455 PUSH2 0x2450 DUP5 PUSH2 0x2402 JUMP JUMPDEST PUSH2 0x23E7 JUMP JUMPDEST SWAP1 POP DUP3 DUP2 MSTORE PUSH1 0x20 DUP2 ADD DUP5 DUP5 DUP5 ADD GT ISZERO PUSH2 0x2471 JUMPI PUSH2 0x2470 PUSH2 0x2382 JUMP JUMPDEST JUMPDEST PUSH2 0x247C DUP5 DUP3 DUP6 PUSH2 0x2433 JUMP JUMPDEST POP SWAP4 SWAP3 POP POP POP JUMP JUMPDEST PUSH1 0x0 DUP3 PUSH1 0x1F DUP4 ADD SLT PUSH2 0x2499 JUMPI PUSH2 0x2498 PUSH2 0x200B JUMP JUMPDEST JUMPDEST DUP2 CALLDATALOAD PUSH2 0x24A9 DUP5 DUP3 PUSH1 0x20 DUP7 ADD PUSH2 0x2442 JUMP JUMPDEST SWAP2 POP POP SWAP3 SWAP2 POP POP JUMP JUMPDEST PUSH1 0x0 DUP1 PUSH1 0x0 DUP1 PUSH1 0x80 DUP6 DUP8 SUB SLT ISZERO PUSH2 0x24CC JUMPI PUSH2 0x24CB PUSH2 0x1F6D JUMP JUMPDEST JUMPDEST PUSH1 0x0 PUSH2 0x24DA DUP8 DUP3 DUP9 ADD PUSH2 0x1FC0 JUMP JUMPDEST SWAP5 POP POP PUSH1 0x20 PUSH2 0x24EB DUP8 DUP3 DUP9 ADD PUSH2 0x1FF6 JUMP JUMPDEST SWAP4 POP POP PUSH1 0x40 PUSH2 0x24FC DUP8 DUP3 DUP9 ADD PUSH2 0x1FF6 JUMP JUMPDEST SWAP3 POP POP PUSH1 0x60 DUP6 ADD CALLDATALOAD PUSH8 0xFFFFFFFFFFFFFFFF DUP2 GT ISZERO PUSH2 0x251D JUMPI PUSH2 0x251C PUSH2 0x1F72 JUMP JUMPDEST JUMPDEST PUSH2 0x2529 DUP8 DUP3 DUP9 ADD PUSH2 0x2484 JUMP JUMPDEST SWAP2 POP POP SWAP3 SWAP6 SWAP2 SWAP5 POP SWAP3 POP JUMP JUMPDEST PUSH1 0x0 DUP1 PUSH1 0x40 DUP4 DUP6 SUB SLT ISZERO PUSH2 0x254C JUMPI PUSH2 0x254B PUSH2 0x1F6D JUMP JUMPDEST JUMPDEST PUSH1 0x0 DUP4 ADD CALLDATALOAD PUSH8 0xFFFFFFFFFFFFFFFF DUP2 GT ISZERO PUSH2 0x256A JUMPI PUSH2 0x2569 PUSH2 0x1F72 JUMP JUMPDEST JUMPDEST PUSH2 0x2576 DUP6 DUP3 DUP7 ADD PUSH2 0x2484 JUMP JUMPDEST SWAP3 POP POP PUSH1 0x20 PUSH2 0x2587 DUP6 DUP3 DUP7 ADD PUSH2 0x1FC0 JUMP JUMPDEST SWAP2 POP POP SWAP3 POP SWAP3 SWAP1 POP JUMP JUMPDEST PUSH1 0x0 PUSH1 0x20 DUP3 DUP5 SUB SLT ISZERO PUSH2 0x25A7 JUMPI PUSH2 0x25A6 PUSH2 0x1F6D JUMP JUMPDEST JUMPDEST PUSH1 0x0 PUSH2 0x25B5 DUP5 DUP3 DUP6 ADD PUSH2 0x1FC0 JUMP JUMPDEST SWAP2 POP POP SWAP3 SWAP2 POP POP JUMP JUMPDEST PUSH32 0x4E487B7100000000000000000000000000000000000000000000000000000000 PUSH1 0x0 MSTORE PUSH1 0x21 PUSH1 0x4 MSTORE PUSH1 0x24 PUSH1 0x0 REVERT JUMPDEST PUSH1 0x3 DUP2 LT PUSH2 0x25FE JUMPI PUSH2 0x25FD PUSH2 0x25BE JUMP JUMPDEST JUMPDEST POP JUMP JUMPDEST PUSH1 0x0 DUP2 SWAP1 POP PUSH2 0x260F DUP3 PUSH2 0x25ED JUMP JUMPDEST SWAP2 SWAP1 POP JUMP JUMPDEST PUSH1 0x0 PUSH2 0x261F DUP3 PUSH2 0x2601 JUMP JUMPDEST SWAP1 POP SWAP2 SWAP1 POP JUMP JUMPDEST PUSH2 0x262F DUP2 PUSH2 0x2614 JUMP JUMPDEST DUP3 MSTORE POP POP JUMP JUMPDEST PUSH1 0x0 PUSH1 0x40 DUP3 ADD SWAP1 POP PUSH2 0x264A PUSH1 0x0 DUP4 ADD DUP6 PUSH2 0x2626 JUMP JUMPDEST PUSH2 0x2657 PUSH1 0x20 DUP4 ADD DUP5 PUSH2 0x224F JUMP JUMPDEST SWAP4 SWAP3 POP POP POP JUMP JUMPDEST PUSH1 0x0 PUSH1 0x20 DUP3 DUP5 SUB SLT ISZERO PUSH2 0x2674 JUMPI PUSH2 0x2673 PUSH2 0x1F6D JUMP JUMPDEST JUMPDEST PUSH1 0x0 DUP3 ADD CALLDATALOAD PUSH8 0xFFFFFFFFFFFFFFFF DUP2 GT ISZERO PUSH2 0x2692 JUMPI PUSH2 0x2691 PUSH2 0x1F72 JUMP JUMPDEST JUMPDEST PUSH2 0x269E DUP5 DUP3 DUP6 ADD PUSH2 0x2484 JUMP JUMPDEST SWAP2 POP POP SWAP3 SWAP2 POP POP JUMP JUMPDEST POP JUMP JUMPDEST PUSH1 0x0 PUSH2 0x26B7 PUSH1 0x0 DUP4 PUSH2 0x2269 JUMP JUMPDEST SWAP2 POP PUSH2 0x26C2 DUP3 PUSH2 0x26A7 JUMP JUMPDEST PUSH1 0x0 DUP3 ADD SWAP1 POP SWAP2 SWAP1 POP JUMP JUMPDEST PUSH1 0x0 PUSH1 0x20 DUP3 ADD SWAP1 POP DUP2 DUP2 SUB PUSH1 0x0 DUP4 ADD MSTORE PUSH2 0x26E6 DUP2 PUSH2 0x26AA JUMP JUMPDEST SWAP1 POP SWAP2 SWAP1 POP JUMP JUMPDEST PUSH32 0xD09CD0B0D0B3D0B0D0B7D0B8D0BD20D0BDD0B520D181D0BED0BED182D0B2D0B5 PUSH1 0x0 DUP3 ADD MSTORE PUSH32 0xD182D181D0B2D183D0B5D18220D0BED182D0BFD180D0B0D0B2D0B8D182D0B5D0 PUSH1 0x20 DUP3 ADD MSTORE PUSH32 0xBBD18E0000000000000000000000000000000000000000000000000000000000 PUSH1 0x40 DUP3 ADD MSTORE POP JUMP JUMPDEST PUSH1 0x0 PUSH2 0x276F PUSH1 0x43 DUP4 PUSH2 0x2269 JUMP JUMPDEST SWAP2 POP PUSH2 0x277A DUP3 PUSH2 0x26ED JUMP JUMPDEST PUSH1 0x60 DUP3 ADD SWAP1 POP SWAP2 SWAP1 POP JUMP JUMPDEST PUSH1 0x0 PUSH1 0x20 DUP3 ADD SWAP1 POP DUP2 DUP2 SUB PUSH1 0x0 DUP4 ADD MSTORE PUSH2 0x279E DUP2 PUSH2 0x2762 JUMP JUMPDEST SWAP1 POP SWAP2 SWAP1 POP JUMP JUMPDEST PUSH32 0x4E487B7100000000000000000000000000000000000000000000000000000000 PUSH1 0x0 MSTORE PUSH1 0x22 PUSH1 0x4 MSTORE PUSH1 0x24 PUSH1 0x0 REVERT JUMPDEST PUSH1 0x0 PUSH1 0x2 DUP3 DIV SWAP1 POP PUSH1 0x1 DUP3 AND DUP1 PUSH2 0x27EC JUMPI PUSH1 0x7F DUP3 AND SWAP2 POP JUMPDEST PUSH1 0x20 DUP3 LT DUP2 SUB PUSH2 0x27FF JUMPI PUSH2 0x27FE PUSH2 0x27A5 JUMP JUMPDEST JUMPDEST POP SWAP2 SWAP1 POP JUMP JUMPDEST PUSH1 0x0 DUP2 SWAP1 POP DUP2 PUSH1 0x0 MSTORE PUSH1 0x20 PUSH1 0x0 KECCAK256 SWAP1 POP SWAP2 SWAP1 POP JUMP JUMPDEST PUSH1 0x0 PUSH1 0x20 PUSH1 0x1F DUP4 ADD DIV SWAP1 POP SWAP2 SWAP1 POP JUMP JUMPDEST PUSH1 0x0 DUP3 DUP3 SHL SWAP1 POP SWAP3 SWAP2 POP POP JUMP JUMPDEST PUSH1 0x0 PUSH1 0x8 DUP4 MUL PUSH2 0x2867 PUSH32 0xFFFFFFFFFFFFFFFFFFFFFFFFFFFFFFFFFFFFFFFFFFFFFFFFFFFFFFFFFFFFFFFF DUP3 PUSH2 0x282A JUMP JUMPDEST PUSH2 0x2871 DUP7 DUP4 PUSH2 0x282A JUMP JUMPDEST SWAP6 POP DUP1 NOT DUP5 AND SWAP4 POP DUP1 DUP7 AND DUP5 OR SWAP3 POP POP POP SWAP4 SWAP3 POP POP POP JUMP JUMPDEST PUSH1 0x0 DUP2 SWAP1 POP SWAP2 SWAP1 POP JUMP JUMPDEST PUSH1 0x0 PUSH2 0x28AE PUSH2 0x28A9 PUSH2 0x28A4 DUP5 PUSH2 0x1FD5 JUMP JUMPDEST PUSH2 0x2889 JUMP JUMPDEST PUSH2 0x1FD5 JUMP JUMPDEST SWAP1 POP SWAP2 SWAP1 POP JUMP JUMPDEST PUSH1 0x0 DUP2 SWAP1 POP SWAP2 SWAP1 POP JUMP JUMPDEST PUSH2 0x28C8 DUP4 PUSH2 0x2893 JUMP JUMPDEST PUSH2 0x28DC PUSH2 0x28D4 DUP3 PUSH2 0x28B5 JUMP JUMPDEST DUP5 DUP5 SLOAD PUSH2 0x2837 JUMP JUMPDEST DUP3 SSTORE POP POP POP POP JUMP JUMPDEST PUSH1 0x0 SWAP1 JUMP JUMPDEST PUSH2 0x28F1 PUSH2 0x28E4 JUMP JUMPDEST PUSH2 0x28FC DUP2 DUP5 DUP5 PUSH2 0x28BF JUMP JUMPDEST POP POP POP JUMP JUMPDEST JUMPDEST DUP2 DUP2 LT ISZERO PUSH2 0x2920 JUMPI PUSH2 0x2915 PUSH1 0x0 DUP3 PUSH2 0x28E9 JUMP JUMPDEST PUSH1 0x1 DUP2 ADD SWAP1 POP PUSH2 0x2902 JUMP JUMPDEST POP POP JUMP JUMPDEST PUSH1 0x1F DUP3 GT ISZERO PUSH2 0x2965 JUMPI PUSH2 0x2936 DUP2 PUSH2 0x2805 JUMP JUMPDEST PUSH2 0x293F DUP5 PUSH2 0x281A JUMP JUMPDEST DUP2 ADD PUSH1 0x20 DUP6 LT ISZERO PUSH2 0x294E JUMPI DUP2 SWAP1 POP JUMPDEST PUSH2 0x2962 PUSH2 0x295A DUP6 PUSH2 0x281A JUMP JUMPDEST DUP4 ADD DUP3 PUSH2 0x2901 JUMP JUMPDEST POP POP JUMPDEST POP POP POP JUMP JUMPDEST PUSH1 0x0 DUP3 DUP3 SHR SWAP1 POP SWAP3 SWAP2 POP POP JUMP JUMPDEST PUSH1 0x0 PUSH2 0x2988 PUSH1 0x0 NOT DUP5 PUSH1 0x8 MUL PUSH2 0x296A JUMP JUMPDEST NOT DUP1 DUP4 AND SWAP2 POP POP SWAP3 SWAP2 POP POP JUMP JUMPDEST PUSH1 0x0 PUSH2 0x29A1 DUP4 DUP4 PUSH2 0x2977 JUMP JUMPDEST SWAP2 POP DUP3 PUSH1 0x2 MUL DUP3 OR SWAP1 POP SWAP3 SWAP2 POP POP JUMP JUMPDEST PUSH2 0x29BA DUP3 PUSH2 0x225E JUMP JUMPDEST PUSH8 0xFFFFFFFFFFFFFFFF DUP2 GT ISZERO PUSH2 0x29D3 JUMPI PUSH2 0x29D2 PUSH2 0x2387 JUMP JUMPDEST JUMPDEST PUSH2 0x29DD DUP3 SLOAD PUSH2 0x27D4 JUMP JUMPDEST PUSH2 0x29E8 DUP3 DUP3 DUP6 PUSH2 0x2924 JUMP JUMPDEST PUSH1 0x0 PUSH1 0x20 SWAP1 POP PUSH1 0x1F DUP4 GT PUSH1 0x1 DUP2 EQ PUSH2 0x2A1B JUMPI PUSH1 0x0 DUP5 ISZERO PUSH2 0x2A09 JUMPI DUP3 DUP8 ADD MLOAD SWAP1 POP JUMPDEST PUSH2 0x2A13 DUP6 DUP3 PUSH2 0x2995 JUMP JUMPDEST DUP7 SSTORE POP PUSH2 0x2A7B JUMP JUMPDEST PUSH1 0x1F NOT DUP5 AND PUSH2 0x2A29 DUP7 PUSH2 0x2805 JUMP JUMPDEST PUSH1 0x0 JUMPDEST DUP3 DUP2 LT ISZERO PUSH2 0x2A51 JUMPI DUP5 DUP10 ADD MLOAD DUP3 SSTORE PUSH1 0x1 DUP3 ADD SWAP2 POP PUSH1 0x20 DUP6 ADD SWAP5 POP PUSH1 0x20 DUP2 ADD SWAP1 POP PUSH2 0x2A2C JUMP JUMPDEST DUP7 DUP4 LT ISZERO PUSH2 0x2A6E JUMPI DUP5 DUP10 ADD MLOAD PUSH2 0x2A6A PUSH1 0x1F DUP10 AND DUP3 PUSH2 0x2977 JUMP JUMPDEST DUP4 SSTORE POP JUMPDEST PUSH1 0x1 PUSH1 0x2 DUP9 MUL ADD DUP9 SSTORE POP POP POP JUMPDEST POP POP POP POP POP POP JUMP JUMPDEST PUSH32 0x507572636861736520616D6F756E74206D757374206265206772656174657220 PUSH1 0x0 DUP3 ADD MSTORE PUSH32 0x7468616E20300000000000000000000000000000000000000000000000000000 PUSH1 0x20 DUP3 ADD MSTORE POP JUMP JUMPDEST PUSH1 0x0 PUSH2 0x2ADF PUSH1 0x26 DUP4 PUSH2 0x2269 JUMP JUMPDEST SWAP2 POP PUSH2 0x2AEA DUP3 PUSH2 0x2A83 JUMP JUMPDEST PUSH1 0x40 DUP3 ADD SWAP1 POP SWAP2 SWAP1 POP JUMP JUMPDEST PUSH1 0x0 PUSH1 0x20 DUP3 ADD SWAP1 POP DUP2 DUP2 SUB PUSH1 0x0 DUP4 ADD MSTORE PUSH2 0x2B0E DUP2 PUSH2 0x2AD2 JUMP JUMPDEST SWAP1 POP SWAP2 SWAP1 POP JUMP JUMPDEST PUSH32 0x496E76616C69642070726F647563742049440000000000000000000000000000 PUSH1 0x0 DUP3 ADD MSTORE POP JUMP JUMPDEST PUSH1 0x0 PUSH2 0x2B4B PUSH1 0x12 DUP4 PUSH2 0x2269 JUMP JUMPDEST SWAP2 POP PUSH2 0x2B56 DUP3 PUSH2 0x2B15 JUMP JUMPDEST PUSH1 0x20 DUP3 ADD SWAP1 POP SWAP2 SWAP1 POP JUMP JUMPDEST PUSH1 0x0 PUSH1 0x20 DUP3 ADD SWAP1 POP DUP2 DUP2 SUB PUSH1 0x0 DUP4 ADD MSTORE PUSH2 0x2B7A DUP2 PUSH2 0x2B3E JUMP JUMPDEST SWAP1 POP SWAP2 SWAP1 POP JUMP JUMPDEST PUSH32 0x4E487B7100000000000000000000000000000000000000000000000000000000 PUSH1 0x0 MSTORE PUSH1 0x32 PUSH1 0x4 MSTORE PUSH1 0x24 PUSH1 0x0 REVERT JUMPDEST PUSH1 0x0 DUP2 SWAP1 POP SWAP3 SWAP2 POP POP JUMP JUMPDEST PUSH1 0x0 DUP2 SWAP1 POP DUP2 PUSH1 0x0 MSTORE PUSH1 0x20 PUSH1 0x0 KECCAK256 SWAP1 POP SWAP2 SWAP1 POP JUMP JUMPDEST PUSH1 0x0 DUP2 SLOAD PUSH2 0x2BDD DUP2 PUSH2 0x27D4 JUMP JUMPDEST PUSH2 0x2BE7 DUP2 DUP7 PUSH2 0x2BB0 JUMP JUMPDEST SWAP5 POP PUSH1 0x1 DUP3 AND PUSH1 0x0 DUP2 EQ PUSH2 0x2C02 JUMPI PUSH1 0x1 DUP2 EQ PUSH2 0x2C17 JUMPI PUSH2 0x2C4A JUMP JUMPDEST PUSH1 0xFF NOT DUP4 AND DUP7 MSTORE DUP2 ISZERO ISZERO DUP3 MUL DUP7 ADD SWAP4 POP PUSH2 0x2C4A JUMP JUMPDEST PUSH2 0x2C20 DUP6 PUSH2 0x2BBB JUMP JUMPDEST PUSH1 0x0 JUMPDEST DUP4 DUP2 LT ISZERO PUSH2 0x2C42 JUMPI DUP2 SLOAD DUP2 DUP10 ADD MSTORE PUSH1 0x1 DUP3 ADD SWAP2 POP PUSH1 0x20 DUP2 ADD SWAP1 POP PUSH2 0x2C23 JUMP JUMPDEST DUP4 DUP9 ADD SWAP6 POP POP POP JUMPDEST POP POP POP SWAP3 SWAP2 POP POP JUMP JUMPDEST PUSH1 0x0 PUSH2 0x2C5F DUP3 DUP5 PUSH2 0x2BD0 JUMP JUMPDEST SWAP2 POP DUP2 SWAP1 POP SWAP3 SWAP2 POP POP JUMP JUMPDEST PUSH32 0x4E487B7100000000000000000000000000000000000000000000000000000000 PUSH1 0x0 MSTORE PUSH1 0x11 PUSH1 0x4 MSTORE PUSH1 0x24 PUSH1 0x0 REVERT JUMPDEST PUSH1 0x0 PUSH2 0x2CA4 DUP3 PUSH2 0x1FD5 JUMP JUMPDEST SWAP2 POP PUSH2 0x2CAF DUP4 PUSH2 0x1FD5 JUMP JUMPDEST SWAP3 POP DUP3 DUP3 MUL PUSH2 0x2CBD DUP2 PUSH2 0x1FD5 JUMP JUMPDEST SWAP2 POP DUP3 DUP3 DIV DUP5 EQ DUP4 ISZERO OR PUSH2 0x2CD4 JUMPI PUSH2 0x2CD3 PUSH2 0x2C6A JUMP JUMPDEST JUMPDEST POP SWAP3 SWAP2 POP POP JUMP JUMPDEST PUSH32 0x496E73756666696369656E742066756E64732073656E74000000000000000000 PUSH1 0x0 DUP3 ADD MSTORE POP JUMP JUMPDEST PUSH1 0x0 PUSH2 0x2D11 PUSH1 0x17 DUP4 PUSH2 0x2269 JUMP JUMPDEST SWAP2 POP PUSH2 0x2D1C DUP3 PUSH2 0x2CDB JUMP JUMPDEST PUSH1 0x20 DUP3 ADD SWAP1 POP SWAP2 SWAP1 POP JUMP JUMPDEST PUSH1 0x0 PUSH1 0x20 DUP3 ADD SWAP1 POP DUP2 DUP2 SUB PUSH1 0x0 DUP4 ADD MSTORE PUSH2 0x2D40 DUP2 PUSH2 0x2D04 JUMP JUMPDEST SWAP1 POP SWAP2 SWAP1 POP JUMP JUMPDEST PUSH1 0x0 PUSH2 0x2D52 DUP3 PUSH2 0x1FD5 JUMP JUMPDEST SWAP2 POP PUSH2 0x2D5D DUP4 PUSH2 0x1FD5 JUMP JUMPDEST SWAP3 POP DUP3 DUP3 SUB SWAP1 POP DUP2 DUP2 GT ISZERO PUSH2 0x2D75 JUMPI PUSH2 0x2D74 PUSH2 0x2C6A JUMP JUMPDEST JUMPDEST SWAP3 SWAP2 POP POP JUMP JUMPDEST PUSH1 0x0 PUSH2 0x2D86 DUP3 PUSH2 0x1FD5 JUMP JUMPDEST SWAP2 POP PUSH2 0x2D91 DUP4 PUSH2 0x1FD5 JUMP JUMPDEST SWAP3 POP DUP3 DUP3 ADD SWAP1 POP DUP1 DUP3 GT ISZERO PUSH2 0x2DA9 JUMPI PUSH2 0x2DA8 PUSH2 0x2C6A JUMP JUMPDEST JUMPDEST SWAP3 SWAP2 POP POP JUMP JUMPDEST PUSH1 0x0 PUSH2 0x2DBA DUP3 PUSH2 0x1FD5 JUMP JUMPDEST SWAP2 POP PUSH32 0xFFFFFFFFFFFFFFFFFFFFFFFFFFFFFFFFFFFFFFFFFFFFFFFFFFFFFFFFFFFFFFFF DUP3 SUB PUSH2 0x2DEC JUMPI PUSH2 0x2DEB PUSH2 0x2C6A JUMP JUMPDEST JUMPDEST PUSH1 0x1 DUP3 ADD SWAP1 POP SWAP2 SWAP1 POP JUMP JUMPDEST PUSH32 0x4E487B7100000000000000000000000000000000000000000000000000000000 PUSH1 0x0 MSTORE PUSH1 0x12 PUSH1 0x4 MSTORE PUSH1 0x24 PUSH1 0x0 REVERT JUMPDEST PUSH1 0x0 PUSH2 0x2E31 DUP3 PUSH2 0x1FD5 JUMP JUMPDEST SWAP2 POP PUSH2 0x2E3C DUP4 PUSH2 0x1FD5 JUMP JUMPDEST SWAP3 POP DUP3 PUSH2 0x2E4C JUMPI PUSH2 0x2E4B PUSH2 0x2DF7 JUMP JUMPDEST JUMPDEST DUP3 DUP3 DIV SWAP1 POP SWAP3 SWAP2 POP POP JUMP JUMPDEST PUSH1 0x0 DUP2 SWAP1 POP SWAP2 SWAP1 POP JUMP JUMPDEST PUSH2 0x2E72 PUSH2 0x2E6D DUP3 PUSH2 0x1FD5 JUMP JUMPDEST PUSH2 0x2E57 JUMP JUMPDEST DUP3 MSTORE POP POP JUMP JUMPDEST PUSH1 0x0 DUP2 PUSH1 0x60 SHL SWAP1 POP SWAP2 SWAP1 POP JUMP JUMPDEST PUSH1 0x0 PUSH2 0x2E90 DUP3 PUSH2 0x2E78 JUMP JUMPDEST SWAP1 POP SWAP2 SWAP1 POP JUMP JUMPDEST PUSH1 0x0 PUSH2 0x2EA2 DUP3 PUSH2 0x2E85 JUMP JUMPDEST SWAP1 POP SWAP2 SWAP1 POP JUMP JUMPDEST PUSH2 0x2EBA PUSH2 0x2EB5 DUP3 PUSH2 0x1F97 JUMP JUMPDEST PUSH2 0x2E97 JUMP JUMPDEST DUP3 MSTORE POP POP JUMP JUMPDEST PUSH1 0x0 PUSH2 0x2ECC DUP3 DUP7 PUSH2 0x2E61 JUMP JUMPDEST PUSH1 0x20 DUP3 ADD SWAP2 POP PUSH2 0x2EDC DUP3 DUP6 PUSH2 0x2EA9 JUMP JUMPDEST PUSH1 0x14 DUP3 ADD SWAP2 POP PUSH2 0x2EEC DUP3 DUP5 PUSH2 0x2E61 JUMP JUMPDEST PUSH1 0x20 DUP3 ADD SWAP2 POP DUP2 SWAP1 POP SWAP5 SWAP4 POP POP POP POP JUMP JUMPDEST PUSH1 0x0 PUSH2 0x2F08 DUP3 PUSH2 0x1FD5 JUMP JUMPDEST SWAP2 POP PUSH2 0x2F13 DUP4 PUSH2 0x1FD5 JUMP JUMPDEST SWAP3 POP DUP3 PUSH2 0x2F23 JUMPI PUSH2 0x2F22 PUSH2 0x2DF7 JUMP JUMPDEST JUMPDEST DUP3 DUP3 MOD SWAP1 POP SWAP3 SWAP2 POP POP JUMP JUMPDEST PUSH32 0x4E6F7420656E6F7567682073746F636B20617661696C61626C65000000000000 PUSH1 0x0 DUP3 ADD MSTORE POP JUMP JUMPDEST PUSH1 0x0 PUSH2 0x2F64 PUSH1 0x1A DUP4 PUSH2 0x2269 JUMP JUMPDEST SWAP2 POP PUSH2 0x2F6F DUP3 PUSH2 0x2F2E JUMP JUMPDEST PUSH1 0x20 DUP3 ADD SWAP1 POP SWAP2 SWAP1 POP JUMP JUMPDEST PUSH1 0x0 PUSH1 0x20 DUP3 ADD SWAP1 POP DUP2 DUP2 SUB PUSH1 0x0 DUP4 ADD MSTORE PUSH2 0x2F93 DUP2 PUSH2 0x2F57 JUMP JUMPDEST SWAP1 POP SWAP2 SWAP1 POP JUMP JUMPDEST PUSH1 0x0 DUP2 SWAP1 POP SWAP3 SWAP2 POP POP JUMP JUMPDEST PUSH1 0x0 PUSH2 0x2FB0 DUP3 PUSH2 0x225E JUMP JUMPDEST PUSH2 0x2FBA DUP2 DUP6 PUSH2 0x2F9A JUMP JUMPDEST SWAP4 POP PUSH2 0x2FCA DUP2 DUP6 PUSH1 0x20 DUP7 ADD PUSH2 0x227A JUMP JUMPDEST DUP1 DUP5 ADD SWAP2 POP POP SWAP3 SWAP2 POP POP JUMP JUMPDEST PUSH1 0x0 PUSH2 0x2FE2 DUP3 DUP5 PUSH2 0x2FA5 JUMP JUMPDEST SWAP2 POP DUP2 SWAP1 POP SWAP3 SWAP2 POP POP JUMP INVALID LOG2 PUSH5 0x6970667358 0x22 SLT KECCAK256 0xCE SELFBALANCE 0x2D 0xBC 0xC2 0x2F JUMPI 0x2C PUSH3 0x8A7D95 0x49 CALLDATASIZE JUMPDEST PUSH11 0xD519793E3C0EF84CB8A32F DUP10 DUP8 0xDC 0x2A 0xE0 PUSH5 0x736F6C6343 STOP ADDMOD SLT STOP CALLER "
				},
				"gasEstimates": {
					"creation": {
						"codeDepositCost": "2464600",
						"executionCost": "2658",
						"totalCost": "2467258"
					},
					"external": {
						"addItems(address,uint256,uint256,string,uint256)": "infinite",
						"addItemsSupplier(uint256,uint256,string,uint256)": "infinite",
						"genRef(string,address)": "infinite",
						"makeMarket()": "29740",
						"owner()": "2556",
						"purchase(address,uint256,uint256,string)": "infinite",
						"randMod(uint256)": "infinite",
						"referrals(string)": "infinite",
						"refillStore(address,uint256,uint256)": "infinite",
						"refund(address,uint256)": "infinite",
						"supplier()": "2537",
						"userProducts(address,uint256)": "infinite",
						"users(address)": "5215",
						"withdrawBal(address)": "infinite"
					}
				},
				"methodIdentifiers": {
					"addItems(address,uint256,uint256,string,uint256)": "03194133",
					"addItemsSupplier(uint256,uint256,string,uint256)": "33af9f8b",
					"genRef(string,address)": "a1ba90b6",
					"makeMarket()": "66d0dc67",
					"owner()": "8da5cb5b",
					"purchase(address,uint256,uint256,string)": "9f1cd587",
					"randMod(uint256)": "805553e8",
					"referrals(string)": "d55768dd",
					"refillStore(address,uint256,uint256)": "05103ede",
					"refund(address,uint256)": "410085df",
					"supplier()": "36da4468",
					"userProducts(address,uint256)": "3d527883",
					"users(address)": "a87430ba",
					"withdrawBal(address)": "f67a2ad1"
				}
			},
			"storageLayout": {
				"storage": [
					{
						"astId": 3,
						"contract": "contracts/MarketPlaceTest.sol:MarketPlace",
						"label": "owner",
						"offset": 0,
						"slot": "0",
						"type": "t_address"
					},
					{
						"astId": 5,
						"contract": "contracts/MarketPlaceTest.sol:MarketPlace",
						"label": "supplier",
						"offset": 0,
						"slot": "1",
						"type": "t_address"
					},
					{
						"astId": 29,
						"contract": "contracts/MarketPlaceTest.sol:MarketPlace",
						"label": "users",
						"offset": 0,
						"slot": "2",
						"type": "t_mapping(t_address,t_struct(User)15_storage)"
					},
					{
						"astId": 35,
						"contract": "contracts/MarketPlaceTest.sol:MarketPlace",
						"label": "userProducts",
						"offset": 0,
						"slot": "3",
						"type": "t_mapping(t_address,t_array(t_struct(Product)24_storage)dyn_storage)"
					},
					{
						"astId": 39,
						"contract": "contracts/MarketPlaceTest.sol:MarketPlace",
						"label": "referrals",
						"offset": 0,
						"slot": "4",
						"type": "t_mapping(t_string_memory_ptr,t_address)"
					}
				],
				"types": {
					"t_address": {
						"encoding": "inplace",
						"label": "address",
						"numberOfBytes": "20"
					},
					"t_array(t_struct(Product)24_storage)dyn_storage": {
						"base": "t_struct(Product)24_storage",
						"encoding": "dynamic_array",
						"label": "struct MarketPlace.Product[]",
						"numberOfBytes": "32"
					},
					"t_enum(Role)9": {
						"encoding": "inplace",
						"label": "enum MarketPlace.Role",
						"numberOfBytes": "1"
					},
					"t_mapping(t_address,t_array(t_struct(Product)24_storage)dyn_storage)": {
						"encoding": "mapping",
						"key": "t_address",
						"label": "mapping(address => struct MarketPlace.Product[])",
						"numberOfBytes": "32",
						"value": "t_array(t_struct(Product)24_storage)dyn_storage"
					},
					"t_mapping(t_address,t_struct(User)15_storage)": {
						"encoding": "mapping",
						"key": "t_address",
						"label": "mapping(address => struct MarketPlace.User)",
						"numberOfBytes": "32",
						"value": "t_struct(User)15_storage"
					},
					"t_mapping(t_string_memory_ptr,t_address)": {
						"encoding": "mapping",
						"key": "t_string_memory_ptr",
						"label": "mapping(string => address)",
						"numberOfBytes": "32",
						"value": "t_address"
					},
					"t_string_memory_ptr": {
						"encoding": "bytes",
						"label": "string",
						"numberOfBytes": "32"
					},
					"t_string_storage": {
						"encoding": "bytes",
						"label": "string",
						"numberOfBytes": "32"
					},
					"t_struct(Product)24_storage": {
						"encoding": "inplace",
						"label": "struct MarketPlace.Product",
						"members": [
							{
								"astId": 17,
								"contract": "contracts/MarketPlaceTest.sol:MarketPlace",
								"label": "inStock",
								"offset": 0,
								"slot": "0",
								"type": "t_uint256"
							},
							{
								"astId": 19,
								"contract": "contracts/MarketPlaceTest.sol:MarketPlace",
								"label": "price",
								"offset": 0,
								"slot": "1",
								"type": "t_uint256"
							},
							{
								"astId": 21,
								"contract": "contracts/MarketPlaceTest.sol:MarketPlace",
								"label": "name",
								"offset": 0,
								"slot": "2",
								"type": "t_string_storage"
							},
							{
								"astId": 23,
								"contract": "contracts/MarketPlaceTest.sol:MarketPlace",
								"label": "expDate",
								"offset": 0,
								"slot": "3",
								"type": "t_uint256"
							}
						],
						"numberOfBytes": "128"
					},
					"t_struct(User)15_storage": {
						"encoding": "inplace",
						"label": "struct MarketPlace.User",
						"members": [
							{
								"astId": 12,
								"contract": "contracts/MarketPlaceTest.sol:MarketPlace",
								"label": "role",
								"offset": 0,
								"slot": "0",
								"type": "t_enum(Role)9"
							},
							{
								"astId": 14,
								"contract": "contracts/MarketPlaceTest.sol:MarketPlace",
								"label": "balance",
								"offset": 0,
								"slot": "1",
								"type": "t_uint256"
							}
						],
						"numberOfBytes": "64"
					},
					"t_uint256": {
						"encoding": "inplace",
						"label": "uint256",
						"numberOfBytes": "32"
					}
				}
			},
			"userdoc": {
				"kind": "user",
				"methods": {},
				"version": 1
			}
		}
	}
}